{
	"contractName": "AntiLogos",
	"abi": [
		{
			"constant": true,
			"inputs": [],
			"name": "name",
			"outputs": [
				{
					"name": "",
					"type": "string"
				}
			],
			"payable": false,
			"stateMutability": "view",
			"type": "function"
		},
		{
			"constant": true,
			"inputs": [],
			"name": "aoDevTeam1",
			"outputs": [
				{
					"name": "",
					"type": "address"
				}
			],
			"payable": false,
			"stateMutability": "view",
			"type": "function"
		},
		{
			"constant": true,
			"inputs": [],
			"name": "totalSupply",
			"outputs": [
				{
					"name": "",
					"type": "uint256"
				}
			],
			"payable": false,
			"stateMutability": "view",
			"type": "function"
		},
		{
			"constant": true,
			"inputs": [],
			"name": "sign",
			"outputs": [
				{
					"name": "",
					"type": "int8"
				}
			],
			"payable": false,
			"stateMutability": "view",
			"type": "function"
		},
		{
			"constant": true,
			"inputs": [],
			"name": "decimals",
			"outputs": [
				{
					"name": "",
					"type": "uint8"
				}
			],
			"payable": false,
			"stateMutability": "view",
			"type": "function"
		},
		{
			"constant": false,
			"inputs": [
				{
					"name": "_account",
					"type": "address"
				},
				{
					"name": "_whitelist",
					"type": "bool"
				}
			],
			"name": "setWhitelist",
			"outputs": [],
			"payable": false,
			"stateMutability": "nonpayable",
			"type": "function"
		},
		{
			"constant": true,
			"inputs": [
				{
					"name": "",
					"type": "address"
				}
			],
			"name": "balanceOf",
			"outputs": [
				{
					"name": "",
					"type": "uint256"
				}
			],
			"payable": false,
			"stateMutability": "view",
			"type": "function"
		},
		{
			"constant": false,
			"inputs": [
				{
					"name": "target",
					"type": "address"
				},
				{
					"name": "mintedAmount",
					"type": "uint256"
				}
			],
			"name": "mintToken",
			"outputs": [
				{
					"name": "",
					"type": "bool"
				}
			],
			"payable": false,
			"stateMutability": "nonpayable",
			"type": "function"
		},
		{
			"constant": true,
			"inputs": [],
			"name": "symbol",
			"outputs": [
				{
					"name": "",
					"type": "string"
				}
			],
			"payable": false,
			"stateMutability": "view",
			"type": "function"
		},
		{
			"constant": true,
			"inputs": [
				{
					"name": "",
					"type": "address"
				}
			],
			"name": "whitelist",
			"outputs": [
				{
					"name": "",
					"type": "bool"
				}
			],
			"payable": false,
			"stateMutability": "view",
			"type": "function"
		},
		{
			"constant": true,
			"inputs": [],
			"name": "internalName",
			"outputs": [
				{
					"name": "",
					"type": "bytes32"
				}
			],
			"payable": false,
			"stateMutability": "view",
			"type": "function"
		},
		{
			"constant": true,
			"inputs": [],
			"name": "aoDevTeam2",
			"outputs": [
				{
					"name": "",
					"type": "address"
				}
			],
			"payable": false,
			"stateMutability": "view",
			"type": "function"
		},
		{
			"constant": false,
			"inputs": [
				{
					"name": "_aoDevTeam1",
					"type": "address"
				},
				{
					"name": "_aoDevTeam2",
					"type": "address"
				}
			],
			"name": "setAODevTeamAddresses",
			"outputs": [],
			"payable": false,
			"stateMutability": "nonpayable",
			"type": "function"
		},
		{
			"constant": true,
			"inputs": [],
			"name": "developer",
			"outputs": [
				{
					"name": "",
					"type": "address"
				}
			],
			"payable": false,
			"stateMutability": "view",
			"type": "function"
		},
		{
			"constant": false,
			"inputs": [
				{
					"name": "newDeveloper",
					"type": "address"
				}
			],
			"name": "transferOwnership",
			"outputs": [],
			"payable": false,
			"stateMutability": "nonpayable",
			"type": "function"
		},
		{
			"inputs": [
				{
					"name": "initialSupply",
					"type": "uint256"
				},
				{
					"name": "tokenName",
					"type": "string"
				},
				{
					"name": "tokenSymbol",
					"type": "string"
				},
				{
					"name": "tokenInternalName",
					"type": "bytes32"
				}
			],
			"payable": false,
			"stateMutability": "nonpayable",
			"type": "constructor"
		},
		{
			"anonymous": false,
			"inputs": [
				{
					"indexed": true,
					"name": "target",
					"type": "address"
				},
				{
					"indexed": false,
					"name": "value",
					"type": "uint256"
				}
			],
			"name": "Mint",
			"type": "event"
		}
	],
	"bytecode": "0x608060405260018054600160a060020a0319908116735c63644d01ba385ebac5bcf2ddc1e6dbc1182b521782556002805490911673156c79bf4347d1891da834ea30662a14177cbf281790556006805460ff1990811690915560088054909116909117905534801561007057600080fd5b50604051610875380380610875833981016040908152815160208084015183850151606086015160008054600160a060020a03191633908117825560098790558152600a8552959095208490559085018051939590949101929091859185918591859185918591859185916100ea91600491860190610120565b5081516100fe906005906020850190610120565b5060075550506008805460ff191660ff179055506101bb975050505050505050565b828054600181600116156101000203166002900490600052602060002090601f016020900481019282601f1061016157805160ff191683800117855561018e565b8280016001018555821561018e579182015b8281111561018e578251825591602001919060010190610173565b5061019a92915061019e565b5090565b6101b891905b8082111561019a57600081556001016101a4565b90565b6106ab806101ca6000396000f3006080604052600436106100da5763ffffffff7c010000000000000000000000000000000000000000000000000000000060003504166306fdde0381146100df57806315227aa71461016957806318160ddd1461019a5780632ca15122146101c1578063313ce567146101ef57806353d6fd591461021a57806370a082311461024257806379c650681461026357806395d89b411461029b5780639b19251a146102b05780639bba68b5146102d1578063a99433a6146102e6578063b24626e9146102fb578063ca4b208b14610322578063f2fde38b14610337575b600080fd5b3480156100eb57600080fd5b506100f4610358565b6040805160208082528351818301528351919283929083019185019080838360005b8381101561012e578181015183820152602001610116565b50505050905090810190601f16801561015b5780820380516001836020036101000a031916815260200191505b509250505060405180910390f35b34801561017557600080fd5b5061017e6103e6565b60408051600160a060020a039092168252519081900360200190f35b3480156101a657600080fd5b506101af6103f5565b60408051918252519081900360200190f35b3480156101cd57600080fd5b506101d66103fb565b60408051600092830b90920b8252519081900360200190f35b3480156101fb57600080fd5b50610204610404565b6040805160ff9092168252519081900360200190f35b34801561022657600080fd5b50610240600160a060020a0360043516602435151561040d565b005b34801561024e57600080fd5b506101af600160a060020a036004351661044f565b34801561026f57600080fd5b50610287600160a060020a0360043516602435610461565b604080519115158252519081900360200190f35b3480156102a757600080fd5b506100f4610540565b3480156102bc57600080fd5b50610287600160a060020a036004351661059b565b3480156102dd57600080fd5b506101af6105b0565b3480156102f257600080fd5b5061017e6105b6565b34801561030757600080fd5b50610240600160a060020a03600435811690602435166105c5565b34801561032e57600080fd5b5061017e610617565b34801561034357600080fd5b50610240600160a060020a0360043516610626565b6004805460408051602060026001851615610100026000190190941693909304601f810184900484028201840190925281815292918301828280156103de5780601f106103b3576101008083540402835291602001916103de565b820191906000526020600020905b8154815290600101906020018083116103c157829003601f168201915b505050505081565b600154600160a060020a031681565b60095481565b60085460000b81565b60065460ff1681565b600054600160a060020a0316331461042457600080fd5b600160a060020a03919091166000908152600360205260409020805460ff1916911515919091179055565b600a6020526000908152604090205481565b3360008181526003602052604081205490919060ff161515600114806104945750600054600160a060020a038281169116145b151561049f57600080fd5b600160a060020a0384166000908152600a60205260409020546104c8908463ffffffff61066c16565b600160a060020a0385166000908152600a60205260409020556009546104f4908463ffffffff61066c16565b600955604080518481529051600160a060020a038616917f0f6798a560793a54c3bcfe86a93cde1e73087d944c0ea20544137d4121396885919081900360200190a25060019392505050565b6005805460408051602060026001851615610100026000190190941693909304601f810184900484028201840190925281815292918301828280156103de5780601f106103b3576101008083540402835291602001916103de565b60036020526000908152604090205460ff1681565b60075481565b600254600160a060020a031681565b600054600160a060020a031633146105dc57600080fd5b60018054600160a060020a0393841673ffffffffffffffffffffffffffffffffffffffff199182161790915560028054929093169116179055565b600054600160a060020a031681565b600054600160a060020a0316331461063d57600080fd5b6000805473ffffffffffffffffffffffffffffffffffffffff1916600160a060020a0392909216919091179055565b8181018281101561067957fe5b929150505600a165627a7a723058201181ddbaf3c7a7479ed82aab7d2ee45d92f10cf2799bf938a1fd76eda9dcd83a0029",
	"source": "pragma solidity ^0.4.24;\n\nimport \"./AntiThoughtCurrency.sol\";\n\ncontract AntiLogos is AntiThoughtCurrency {\n\t/**\n\t * @dev Constructor function\n\t */\n\tconstructor(uint256 initialSupply, string tokenName, string tokenSymbol, bytes32 tokenInternalName)\n\t\tAntiThoughtCurrency(initialSupply, tokenName, tokenSymbol, tokenInternalName) public {}\n}\n",
	"sourcePath": "/home/jmulyono/ao-contracts/contracts/AntiLogos.sol",
	"compiler": {
		"name": "solc",
		"version": "0.4.24+commit.e67f0147.Emscripten.clang"
	},
	"schemaVersion": "2.0.1",
	"updatedAt": "2018-12-11T08:43:54.349Z"
}