{
	"contractName": "AOAddressSetting",
	"abi": [
		{
			"constant": true,
			"inputs": [],
			"name": "aoDevTeam1",
			"outputs": [
				{
					"name": "",
					"type": "address"
				}
			],
			"payable": false,
			"stateMutability": "view",
			"type": "function"
		},
		{
			"constant": false,
			"inputs": [
				{
					"name": "_account",
					"type": "address"
				},
				{
					"name": "_whitelist",
					"type": "bool"
				}
			],
			"name": "setWhitelist",
			"outputs": [],
			"payable": false,
			"stateMutability": "nonpayable",
			"type": "function"
		},
		{
			"constant": true,
			"inputs": [
				{
					"name": "",
					"type": "address"
				}
			],
			"name": "whitelist",
			"outputs": [
				{
					"name": "",
					"type": "bool"
				}
			],
			"payable": false,
			"stateMutability": "view",
			"type": "function"
		},
		{
			"constant": true,
			"inputs": [
				{
					"name": "",
					"type": "uint256"
				}
			],
			"name": "settingValue",
			"outputs": [
				{
					"name": "",
					"type": "address"
				}
			],
			"payable": false,
			"stateMutability": "view",
			"type": "function"
		},
		{
			"constant": true,
			"inputs": [],
			"name": "aoDevTeam2",
			"outputs": [
				{
					"name": "",
					"type": "address"
				}
			],
			"payable": false,
			"stateMutability": "view",
			"type": "function"
		},
		{
			"constant": true,
			"inputs": [
				{
					"name": "",
					"type": "uint256"
				}
			],
			"name": "pendingValue",
			"outputs": [
				{
					"name": "",
					"type": "address"
				}
			],
			"payable": false,
			"stateMutability": "view",
			"type": "function"
		},
		{
			"constant": false,
			"inputs": [
				{
					"name": "_aoDevTeam1",
					"type": "address"
				},
				{
					"name": "_aoDevTeam2",
					"type": "address"
				}
			],
			"name": "setAODevTeamAddresses",
			"outputs": [],
			"payable": false,
			"stateMutability": "nonpayable",
			"type": "function"
		},
		{
			"constant": true,
			"inputs": [],
			"name": "developer",
			"outputs": [
				{
					"name": "",
					"type": "address"
				}
			],
			"payable": false,
			"stateMutability": "view",
			"type": "function"
		},
		{
			"constant": false,
			"inputs": [
				{
					"name": "newDeveloper",
					"type": "address"
				}
			],
			"name": "transferOwnership",
			"outputs": [],
			"payable": false,
			"stateMutability": "nonpayable",
			"type": "function"
		},
		{
			"inputs": [],
			"payable": false,
			"stateMutability": "nonpayable",
			"type": "constructor"
		},
		{
			"constant": false,
			"inputs": [
				{
					"name": "_settingId",
					"type": "uint256"
				},
				{
					"name": "_value",
					"type": "address"
				}
			],
			"name": "setPendingValue",
			"outputs": [],
			"payable": false,
			"stateMutability": "nonpayable",
			"type": "function"
		},
		{
			"constant": false,
			"inputs": [
				{
					"name": "_settingId",
					"type": "uint256"
				}
			],
			"name": "movePendingToSetting",
			"outputs": [],
			"payable": false,
			"stateMutability": "nonpayable",
			"type": "function"
		}
	],
	"bytecode": "0x608060405260018054600160a060020a0319908116735c63644d01ba385ebac5bcf2ddc1e6dbc1182b52179091556002805490911673156c79bf4347d1891da834ea30662a14177cbf2817905534801561005857600080fd5b5060008054600160a060020a0319163317905561049f8061007a6000396000f3006080604052600436106100ae5763ffffffff7c0100000000000000000000000000000000000000000000000000000000600035041663088fc1a881146100b357806315227aa7146100cd57806353d6fd59146100fe57806397e30fc4146101245780639b19251a146101485780639ba535ce1461017d578063a99433a614610195578063af9e8b16146101aa578063b24626e9146101c2578063ca4b208b146101e9578063f2fde38b146101fe575b600080fd5b3480156100bf57600080fd5b506100cb60043561021f565b005b3480156100d957600080fd5b506100e26102aa565b60408051600160a060020a039092168252519081900360200190f35b34801561010a57600080fd5b506100cb600160a060020a036004351660243515156102b9565b34801561013057600080fd5b506100cb600435600160a060020a03602435166102fb565b34801561015457600080fd5b50610169600160a060020a0360043516610372565b604080519115158252519081900360200190f35b34801561018957600080fd5b506100e2600435610387565b3480156101a157600080fd5b506100e26103a2565b3480156101b657600080fd5b506100e26004356103b1565b3480156101ce57600080fd5b506100cb600160a060020a03600435811690602435166103cc565b3480156101f557600080fd5b506100e261041e565b34801561020a57600080fd5b506100cb600160a060020a036004351661042d565b3360008181526003602052604081205490919060ff161515600114806102525750600054600160a060020a038281169116145b151561025d57600080fd5b50506000908152600560209081526040808320805473ffffffffffffffffffffffffffffffffffffffff19808216909255600490935292208054909216600160a060020a03909116179055565b600154600160a060020a031681565b600054600160a060020a031633146102d057600080fd5b600160a060020a03919091166000908152600360205260409020805460ff1916911515919091179055565b3360008181526003602052604090205460ff1615156001148061032b5750600054600160a060020a038281169116145b151561033657600080fd5b50600091825260056020526040909120805473ffffffffffffffffffffffffffffffffffffffff1916600160a060020a03909216919091179055565b60036020526000908152604090205460ff1681565b600460205260009081526040902054600160a060020a031681565b600254600160a060020a031681565b600560205260009081526040902054600160a060020a031681565b600054600160a060020a031633146103e357600080fd5b60018054600160a060020a0393841673ffffffffffffffffffffffffffffffffffffffff199182161790915560028054929093169116179055565b600054600160a060020a031681565b600054600160a060020a0316331461044457600080fd5b6000805473ffffffffffffffffffffffffffffffffffffffff1916600160a060020a03929092169190911790555600a165627a7a72305820f8573ea5b563217bfc5622537dbca681cb56fe6be747ccd800045990228ea1720029",
	"source": "pragma solidity ^0.4.24;\n\nimport './developed.sol';\n\n/**\n * @title AOAddressSetting\n *\n * This contract stores all AO address setting variables\n */\ncontract AOAddressSetting is developed {\n\t// Mapping from settingId to it's actual address value\n\tmapping (uint256 => address) public settingValue;\n\n\t// Mapping from settingId to it's potential address value that is at pending state\n\tmapping (uint256 => address) public pendingValue;\n\n\t/**\n\t * @dev Constructor function\n\t */\n\tconstructor() public {}\n\n\t/**\n\t * @dev Set pending value\n\t * @param _settingId The ID of the setting\n\t * @param _value The address value to be set\n\t */\n\tfunction setPendingValue(uint256 _settingId, address _value) public inWhitelist(msg.sender) {\n\t\tpendingValue[_settingId] = _value;\n\t}\n\n\t/**\n\t * @dev Move value from pending to setting\n\t * @param _settingId The ID of the setting\n\t */\n\tfunction movePendingToSetting(uint256 _settingId) public inWhitelist(msg.sender) {\n\t\taddress _tempValue = pendingValue[_settingId];\n\t\tdelete pendingValue[_settingId];\n\t\tsettingValue[_settingId] = _tempValue;\n\t}\n}\n",
	"sourcePath": "/home/jmulyono/ao-contracts/contracts/AOAddressSetting.sol",
	"compiler": {
		"name": "solc",
		"version": "0.4.24+commit.e67f0147.Emscripten.clang"
	},
	"schemaVersion": "2.0.1",
	"updatedAt": "2018-12-19T05:20:18.364Z"
}