{
	"contractName": "AOBoolSetting",
	"abi": [
		{
			"constant": true,
			"inputs": [],
			"name": "nameTAOPositionAddress",
			"outputs": [
				{
					"name": "",
					"type": "address"
				}
			],
			"payable": false,
			"stateMutability": "view",
			"type": "function"
		},
		{
			"constant": true,
			"inputs": [
				{
					"name": "",
					"type": "address"
				}
			],
			"name": "whitelist",
			"outputs": [
				{
					"name": "",
					"type": "bool"
				}
			],
			"payable": false,
			"stateMutability": "view",
			"type": "function"
		},
		{
			"constant": true,
			"inputs": [
				{
					"name": "",
					"type": "uint256"
				}
			],
			"name": "settingValue",
			"outputs": [
				{
					"name": "",
					"type": "bool"
				}
			],
			"payable": false,
			"stateMutability": "view",
			"type": "function"
		},
		{
			"constant": true,
			"inputs": [],
			"name": "theAO",
			"outputs": [
				{
					"name": "",
					"type": "address"
				}
			],
			"payable": false,
			"stateMutability": "view",
			"type": "function"
		},
		{
			"constant": true,
			"inputs": [
				{
					"name": "",
					"type": "uint256"
				}
			],
			"name": "pendingValue",
			"outputs": [
				{
					"name": "",
					"type": "bool"
				}
			],
			"payable": false,
			"stateMutability": "view",
			"type": "function"
		},
		{
			"inputs": [],
			"payable": false,
			"stateMutability": "nonpayable",
			"type": "constructor"
		},
		{
			"constant": false,
			"inputs": [
				{
					"name": "_nameTAOPositionAddress",
					"type": "address"
				}
			],
			"name": "setNameTAOPositionAddress",
			"outputs": [],
			"payable": false,
			"stateMutability": "nonpayable",
			"type": "function"
		},
		{
			"constant": false,
			"inputs": [
				{
					"name": "_theAO",
					"type": "address"
				}
			],
			"name": "transferOwnership",
			"outputs": [],
			"payable": false,
			"stateMutability": "nonpayable",
			"type": "function"
		},
		{
			"constant": false,
			"inputs": [
				{
					"name": "_account",
					"type": "address"
				},
				{
					"name": "_whitelist",
					"type": "bool"
				}
			],
			"name": "setWhitelist",
			"outputs": [],
			"payable": false,
			"stateMutability": "nonpayable",
			"type": "function"
		},
		{
			"constant": false,
			"inputs": [
				{
					"name": "_settingId",
					"type": "uint256"
				},
				{
					"name": "_value",
					"type": "bool"
				}
			],
			"name": "setPendingValue",
			"outputs": [],
			"payable": false,
			"stateMutability": "nonpayable",
			"type": "function"
		},
		{
			"constant": false,
			"inputs": [
				{
					"name": "_settingId",
					"type": "uint256"
				}
			],
			"name": "movePendingToSetting",
			"outputs": [],
			"payable": false,
			"stateMutability": "nonpayable",
			"type": "function"
		}
	],
	"bytecode": "0x608060405234801561001057600080fd5b5060008054600160a060020a03191633179055610617806100326000396000f3006080604052600436106100a35763ffffffff7c0100000000000000000000000000000000000000000000000000000000600035041663088fc1a881146100a85780634ef033f0146100c257806353d6fd59146100f35780635802c695146101195780635cfaf2ef146101365780639b19251a146101575780639ba535ce1461018c578063a9b6b38e146101a4578063af9e8b16146101b9578063f2fde38b146101d1575b600080fd5b3480156100b457600080fd5b506100c06004356101f2565b005b3480156100ce57600080fd5b506100d7610248565b60408051600160a060020a039092168252519081900360200190f35b3480156100ff57600080fd5b506100c0600160a060020a03600435166024351515610257565b34801561012557600080fd5b506100c06004356024351515610356565b34801561014257600080fd5b506100c0600160a060020a0360043516610397565b34801561016357600080fd5b50610178600160a060020a036004351661049a565b604080519115158252519081900360200190f35b34801561019857600080fd5b506101786004356104af565b3480156101b057600080fd5b506100d76104c4565b3480156101c557600080fd5b506101786004356104d3565b3480156101dd57600080fd5b506100c0600160a060020a03600435166104e8565b3360009081526002602052604081205460ff16151560011461021357600080fd5b506000908152600460209081526040808320805460ff1980821690925560039093529220805490921660ff9091161515179055565b600154600160a060020a031681565b600054600154604080517ff66afcac000000000000000000000000000000000000000000000000000000008152336004820152600160a060020a0393841660248201529290911660448301525173__AOLibrary_____________________________9163f66afcac916064808301926020929190829003018186803b1580156102df57600080fd5b505af41580156102f3573d6000803e3d6000fd5b505050506040513d602081101561030957600080fd5b5051151561031657600080fd5b600160a060020a038216151561032b57600080fd5b600160a060020a03919091166000908152600260205260409020805460ff1916911515919091179055565b3360009081526002602052604090205460ff16151560011461037757600080fd5b600091825260046020526040909120805460ff1916911515919091179055565b600054600154604080517ff66afcac000000000000000000000000000000000000000000000000000000008152336004820152600160a060020a0393841660248201529290911660448301525173__AOLibrary_____________________________9163f66afcac916064808301926020929190829003018186803b15801561041f57600080fd5b505af4158015610433573d6000803e3d6000fd5b505050506040513d602081101561044957600080fd5b5051151561045657600080fd5b600160a060020a038116151561046b57600080fd5b6001805473ffffffffffffffffffffffffffffffffffffffff1916600160a060020a0392909216919091179055565b60026020526000908152604090205460ff1681565b60036020526000908152604090205460ff1681565b600054600160a060020a031681565b60046020526000908152604090205460ff1681565b600054600154604080517ff66afcac000000000000000000000000000000000000000000000000000000008152336004820152600160a060020a0393841660248201529290911660448301525173__AOLibrary_____________________________9163f66afcac916064808301926020929190829003018186803b15801561057057600080fd5b505af4158015610584573d6000803e3d6000fd5b505050506040513d602081101561059a57600080fd5b505115156105a757600080fd5b600160a060020a03811615156105bc57600080fd5b6000805473ffffffffffffffffffffffffffffffffffffffff1916600160a060020a03929092169190911790555600a165627a7a723058206c3a42d8a9ad7a1e2885d958937b04dd0aa0535ed6c7bcc4ef2be70354d889150029",
	"source": "pragma solidity ^0.4.24;\n\nimport './TheAO.sol';\nimport './AOLibrary.sol';\n\n/**\n * @title AOBoolSetting\n *\n * This contract stores all AO bool setting variables\n */\ncontract AOBoolSetting is TheAO {\n\t// Mapping from settingId to it's actual bool value\n\tmapping (uint256 => bool) public settingValue;\n\n\t// Mapping from settingId to it's potential bool value that is at pending state\n\tmapping (uint256 => bool) public pendingValue;\n\n\t/**\n\t * @dev Constructor function\n\t */\n\tconstructor() public {}\n\n\t/**\n\t * @dev Checks if the calling contract address is The AO\n\t *\t\tOR\n\t *\t\tIf The AO is set to a Name/TAO, then check if calling address is the Advocate\n\t */\n\tmodifier onlyTheAO {\n\t\trequire (AOLibrary.isTheAO(msg.sender, theAO, nameTAOPositionAddress));\n\t\t_;\n\t}\n\n\t/***** The AO ONLY METHODS *****/\n\t/**\n\t * @dev The AO set the NameTAOPosition Address\n\t * @param _nameTAOPositionAddress The address of NameTAOPosition\n\t */\n\tfunction setNameTAOPositionAddress(address _nameTAOPositionAddress) public onlyTheAO {\n\t\trequire (_nameTAOPositionAddress != address(0));\n\t\tnameTAOPositionAddress = _nameTAOPositionAddress;\n\t}\n\n\t/**\n\t * @dev Transfer ownership of The AO to new address\n\t * @param _theAO The new address to be transferred\n\t */\n\tfunction transferOwnership(address _theAO) public onlyTheAO {\n\t\trequire (_theAO != address(0));\n\t\ttheAO = _theAO;\n\t}\n\n\t/**\n\t * @dev Whitelist `_account` address to transact on behalf of others\n\t * @param _account The address to whitelist\n\t * @param _whitelist Either to whitelist or not\n\t */\n\tfunction setWhitelist(address _account, bool _whitelist) public onlyTheAO {\n\t\trequire (_account != address(0));\n\t\twhitelist[_account] = _whitelist;\n\t}\n\n\t/***** PUBLIC METHODS *****/\n\t/**\n\t * @dev Set pending value\n\t * @param _settingId The ID of the setting\n\t * @param _value The bool value to be set\n\t */\n\tfunction setPendingValue(uint256 _settingId, bool _value) public inWhitelist {\n\t\tpendingValue[_settingId] = _value;\n\t}\n\n\t/**\n\t * @dev Move value from pending to setting\n\t * @param _settingId The ID of the setting\n\t */\n\tfunction movePendingToSetting(uint256 _settingId) public inWhitelist {\n\t\tbool _tempValue = pendingValue[_settingId];\n\t\tdelete pendingValue[_settingId];\n\t\tsettingValue[_settingId] = _tempValue;\n\t}\n}\n",
	"sourcePath": "/Users/johanmulyono/Work/AO/ao-contracts/contracts/AOBoolSetting.sol",
	"compiler": {
		"name": "solc",
		"version": "0.4.24+commit.e67f0147.Emscripten.clang"
	},
	"schemaVersion": "2.0.1",
	"updatedAt": "2019-01-07T04:52:08.495Z"
}