{
	"contractName": "AOBoolSetting",
	"abi": [
		{
			"constant": true,
			"inputs": [],
			"name": "aoDevTeam1",
			"outputs": [
				{
					"name": "",
					"type": "address"
				}
			],
			"payable": false,
			"stateMutability": "view",
			"type": "function"
		},
		{
			"constant": false,
			"inputs": [
				{
					"name": "_account",
					"type": "address"
				},
				{
					"name": "_whitelist",
					"type": "bool"
				}
			],
			"name": "setWhitelist",
			"outputs": [],
			"payable": false,
			"stateMutability": "nonpayable",
			"type": "function"
		},
		{
			"constant": true,
			"inputs": [
				{
					"name": "",
					"type": "address"
				}
			],
			"name": "whitelist",
			"outputs": [
				{
					"name": "",
					"type": "bool"
				}
			],
			"payable": false,
			"stateMutability": "view",
			"type": "function"
		},
		{
			"constant": true,
			"inputs": [
				{
					"name": "",
					"type": "uint256"
				}
			],
			"name": "settingValue",
			"outputs": [
				{
					"name": "",
					"type": "bool"
				}
			],
			"payable": false,
			"stateMutability": "view",
			"type": "function"
		},
		{
			"constant": true,
			"inputs": [],
			"name": "aoDevTeam2",
			"outputs": [
				{
					"name": "",
					"type": "address"
				}
			],
			"payable": false,
			"stateMutability": "view",
			"type": "function"
		},
		{
			"constant": true,
			"inputs": [
				{
					"name": "",
					"type": "uint256"
				}
			],
			"name": "pendingValue",
			"outputs": [
				{
					"name": "",
					"type": "bool"
				}
			],
			"payable": false,
			"stateMutability": "view",
			"type": "function"
		},
		{
			"constant": false,
			"inputs": [
				{
					"name": "_aoDevTeam1",
					"type": "address"
				},
				{
					"name": "_aoDevTeam2",
					"type": "address"
				}
			],
			"name": "setAODevTeamAddresses",
			"outputs": [],
			"payable": false,
			"stateMutability": "nonpayable",
			"type": "function"
		},
		{
			"constant": true,
			"inputs": [],
			"name": "developer",
			"outputs": [
				{
					"name": "",
					"type": "address"
				}
			],
			"payable": false,
			"stateMutability": "view",
			"type": "function"
		},
		{
			"constant": false,
			"inputs": [
				{
					"name": "newDeveloper",
					"type": "address"
				}
			],
			"name": "transferOwnership",
			"outputs": [],
			"payable": false,
			"stateMutability": "nonpayable",
			"type": "function"
		},
		{
			"inputs": [],
			"payable": false,
			"stateMutability": "nonpayable",
			"type": "constructor"
		},
		{
			"constant": false,
			"inputs": [
				{
					"name": "_settingId",
					"type": "uint256"
				},
				{
					"name": "_value",
					"type": "bool"
				}
			],
			"name": "setPendingValue",
			"outputs": [],
			"payable": false,
			"stateMutability": "nonpayable",
			"type": "function"
		},
		{
			"constant": false,
			"inputs": [
				{
					"name": "_settingId",
					"type": "uint256"
				}
			],
			"name": "movePendingToSetting",
			"outputs": [],
			"payable": false,
			"stateMutability": "nonpayable",
			"type": "function"
		}
	],
	"bytecode": "0x608060405260018054600160a060020a0319908116735c63644d01ba385ebac5bcf2ddc1e6dbc1182b52179091556002805490911673156c79bf4347d1891da834ea30662a14177cbf2817905534801561005857600080fd5b5060008054600160a060020a0319163317905561045a8061007a6000396000f3006080604052600436106100ae5763ffffffff7c0100000000000000000000000000000000000000000000000000000000600035041663088fc1a881146100b357806315227aa7146100cd57806353d6fd59146100fe5780635802c695146101245780639b19251a146101415780639ba535ce14610176578063a99433a61461018e578063af9e8b16146101a3578063b24626e9146101bb578063ca4b208b146101e2578063f2fde38b146101f7575b600080fd5b3480156100bf57600080fd5b506100cb600435610218565b005b3480156100d957600080fd5b506100e261028c565b60408051600160a060020a039092168252519081900360200190f35b34801561010a57600080fd5b506100cb600160a060020a0360043516602435151561029b565b34801561013057600080fd5b506100cb60043560243515156102dd565b34801561014d57600080fd5b50610162600160a060020a0360043516610339565b604080519115158252519081900360200190f35b34801561018257600080fd5b5061016260043561034e565b34801561019a57600080fd5b506100e2610363565b3480156101af57600080fd5b50610162600435610372565b3480156101c757600080fd5b506100cb600160a060020a0360043581169060243516610387565b3480156101ee57600080fd5b506100e26103d9565b34801561020357600080fd5b506100cb600160a060020a03600435166103e8565b3360008181526003602052604081205490919060ff1615156001148061024b5750600054600160a060020a038281169116145b151561025657600080fd5b50506000908152600560209081526040808320805460ff1980821690925560049093529220805490921660ff9091161515179055565b600154600160a060020a031681565b600054600160a060020a031633146102b257600080fd5b600160a060020a03919091166000908152600360205260409020805460ff1916911515919091179055565b3360008181526003602052604090205460ff1615156001148061030d5750600054600160a060020a038281169116145b151561031857600080fd5b50600091825260056020526040909120805460ff1916911515919091179055565b60036020526000908152604090205460ff1681565b60046020526000908152604090205460ff1681565b600254600160a060020a031681565b60056020526000908152604090205460ff1681565b600054600160a060020a0316331461039e57600080fd5b60018054600160a060020a0393841673ffffffffffffffffffffffffffffffffffffffff199182161790915560028054929093169116179055565b600054600160a060020a031681565b600054600160a060020a031633146103ff57600080fd5b6000805473ffffffffffffffffffffffffffffffffffffffff1916600160a060020a03929092169190911790555600a165627a7a7230582086e974f3c3c2dcc25ebcbca804f3d19873fc7ee540a0d3bb43978ad6b1a9d2990029",
	"source": "pragma solidity ^0.4.24;\n\nimport './developed.sol';\n\n/**\n * @title AOBoolSetting\n *\n * This contract stores all AO bool setting variables\n */\ncontract AOBoolSetting is developed {\n\t// Mapping from settingId to it's actual bool value\n\tmapping (uint256 => bool) public settingValue;\n\n\t// Mapping from settingId to it's potential bool value that is at pending state\n\tmapping (uint256 => bool) public pendingValue;\n\n\t/**\n\t * @dev Constructor function\n\t */\n\tconstructor() public {}\n\n\t/**\n\t * @dev Set pending value\n\t * @param _settingId The ID of the setting\n\t * @param _value The bool value to be set\n\t */\n\tfunction setPendingValue(uint256 _settingId, bool _value) public inWhitelist(msg.sender) {\n\t\tpendingValue[_settingId] = _value;\n\t}\n\n\t/**\n\t * @dev Move value from pending to setting\n\t * @param _settingId The ID of the setting\n\t */\n\tfunction movePendingToSetting(uint256 _settingId) public inWhitelist(msg.sender) {\n\t\tbool _tempValue = pendingValue[_settingId];\n\t\tdelete pendingValue[_settingId];\n\t\tsettingValue[_settingId] = _tempValue;\n\t}\n}\n",
	"sourcePath": "/home/jmulyono/ao-contracts/contracts/AOBoolSetting.sol",
	"compiler": {
		"name": "solc",
		"version": "0.4.24+commit.e67f0147.Emscripten.clang"
	},
	"schemaVersion": "2.0.1",
	"updatedAt": "2018-12-11T08:43:54.411Z"
}