{
	"contractName": "AOBytesSetting",
	"abi": [
		{
			"constant": true,
			"inputs": [],
			"name": "nameTAOPositionAddress",
			"outputs": [
				{
					"name": "",
					"type": "address"
				}
			],
			"payable": false,
			"stateMutability": "view",
			"type": "function"
		},
		{
			"constant": true,
			"inputs": [
				{
					"name": "",
					"type": "address"
				}
			],
			"name": "whitelist",
			"outputs": [
				{
					"name": "",
					"type": "bool"
				}
			],
			"payable": false,
			"stateMutability": "view",
			"type": "function"
		},
		{
			"constant": true,
			"inputs": [
				{
					"name": "",
					"type": "uint256"
				}
			],
			"name": "settingValue",
			"outputs": [
				{
					"name": "",
					"type": "bytes32"
				}
			],
			"payable": false,
			"stateMutability": "view",
			"type": "function"
		},
		{
			"constant": true,
			"inputs": [],
			"name": "theAO",
			"outputs": [
				{
					"name": "",
					"type": "address"
				}
			],
			"payable": false,
			"stateMutability": "view",
			"type": "function"
		},
		{
			"constant": true,
			"inputs": [
				{
					"name": "",
					"type": "uint256"
				}
			],
			"name": "pendingValue",
			"outputs": [
				{
					"name": "",
					"type": "bytes32"
				}
			],
			"payable": false,
			"stateMutability": "view",
			"type": "function"
		},
		{
			"inputs": [],
			"payable": false,
			"stateMutability": "nonpayable",
			"type": "constructor"
		},
		{
			"constant": false,
			"inputs": [
				{
					"name": "_nameTAOPositionAddress",
					"type": "address"
				}
			],
			"name": "setNameTAOPositionAddress",
			"outputs": [],
			"payable": false,
			"stateMutability": "nonpayable",
			"type": "function"
		},
		{
			"constant": false,
			"inputs": [
				{
					"name": "_theAO",
					"type": "address"
				}
			],
			"name": "transferOwnership",
			"outputs": [],
			"payable": false,
			"stateMutability": "nonpayable",
			"type": "function"
		},
		{
			"constant": false,
			"inputs": [
				{
					"name": "_account",
					"type": "address"
				},
				{
					"name": "_whitelist",
					"type": "bool"
				}
			],
			"name": "setWhitelist",
			"outputs": [],
			"payable": false,
			"stateMutability": "nonpayable",
			"type": "function"
		},
		{
			"constant": false,
			"inputs": [
				{
					"name": "_settingId",
					"type": "uint256"
				},
				{
					"name": "_value",
					"type": "bytes32"
				}
			],
			"name": "setPendingValue",
			"outputs": [],
			"payable": false,
			"stateMutability": "nonpayable",
			"type": "function"
		},
		{
			"constant": false,
			"inputs": [
				{
					"name": "_settingId",
					"type": "uint256"
				}
			],
			"name": "movePendingToSetting",
			"outputs": [],
			"payable": false,
			"stateMutability": "nonpayable",
			"type": "function"
		}
	],
	"bytecode": "0x608060405234801561001057600080fd5b5060008054600160a060020a03191633179055610601806100326000396000f3006080604052600436106100a35763ffffffff7c0100000000000000000000000000000000000000000000000000000000600035041663088fc1a881146100a857806331629388146100c25780634ef033f0146100dd57806353d6fd591461010e5780635cfaf2ef146101345780639b19251a146101555780639ba535ce1461018a578063a9b6b38e146101b4578063af9e8b16146101c9578063f2fde38b146101e1575b600080fd5b3480156100b457600080fd5b506100c0600435610202565b005b3480156100ce57600080fd5b506100c0600435602435610246565b3480156100e957600080fd5b506100f2610279565b60408051600160a060020a039092168252519081900360200190f35b34801561011a57600080fd5b506100c0600160a060020a03600435166024351515610288565b34801561014057600080fd5b506100c0600160a060020a0360043516610387565b34801561016157600080fd5b50610176600160a060020a036004351661048a565b604080519115158252519081900360200190f35b34801561019657600080fd5b506101a260043561049f565b60408051918252519081900360200190f35b3480156101c057600080fd5b506100f26104b1565b3480156101d557600080fd5b506101a26004356104c0565b3480156101ed57600080fd5b506100c0600160a060020a03600435166104d2565b3360009081526002602052604081205460ff16151560011461022357600080fd5b506000908152600460209081526040808320805490849055600390925290912055565b3360009081526002602052604090205460ff16151560011461026757600080fd5b60009182526004602052604090912055565b600154600160a060020a031681565b600054600154604080517ff66afcac000000000000000000000000000000000000000000000000000000008152336004820152600160a060020a0393841660248201529290911660448301525173__AOLibrary_____________________________9163f66afcac916064808301926020929190829003018186803b15801561031057600080fd5b505af4158015610324573d6000803e3d6000fd5b505050506040513d602081101561033a57600080fd5b5051151561034757600080fd5b600160a060020a038216151561035c57600080fd5b600160a060020a03919091166000908152600260205260409020805460ff1916911515919091179055565b600054600154604080517ff66afcac000000000000000000000000000000000000000000000000000000008152336004820152600160a060020a0393841660248201529290911660448301525173__AOLibrary_____________________________9163f66afcac916064808301926020929190829003018186803b15801561040f57600080fd5b505af4158015610423573d6000803e3d6000fd5b505050506040513d602081101561043957600080fd5b5051151561044657600080fd5b600160a060020a038116151561045b57600080fd5b6001805473ffffffffffffffffffffffffffffffffffffffff1916600160a060020a0392909216919091179055565b60026020526000908152604090205460ff1681565b60036020526000908152604090205481565b600054600160a060020a031681565b60046020526000908152604090205481565b600054600154604080517ff66afcac000000000000000000000000000000000000000000000000000000008152336004820152600160a060020a0393841660248201529290911660448301525173__AOLibrary_____________________________9163f66afcac916064808301926020929190829003018186803b15801561055a57600080fd5b505af415801561056e573d6000803e3d6000fd5b505050506040513d602081101561058457600080fd5b5051151561059157600080fd5b600160a060020a03811615156105a657600080fd5b6000805473ffffffffffffffffffffffffffffffffffffffff1916600160a060020a03929092169190911790555600a165627a7a723058205831a3a6ed3d0155af5df4e53e78b414be6db2f0c6b2256d1d61ad3949266f660029",
	"source": "pragma solidity ^0.4.24;\n\nimport './TheAO.sol';\nimport './AOLibrary.sol';\n\n/**\n * @title AOBytesSetting\n *\n * This contract stores all AO bytes32 setting variables\n */\ncontract AOBytesSetting is TheAO {\n\t// Mapping from settingId to it's actual bytes32 value\n\tmapping (uint256 => bytes32) public settingValue;\n\n\t// Mapping from settingId to it's potential bytes32 value that is at pending state\n\tmapping (uint256 => bytes32) public pendingValue;\n\n\t/**\n\t * @dev Constructor function\n\t */\n\tconstructor() public {}\n\n\t/**\n\t * @dev Checks if the calling contract address is The AO\n\t *\t\tOR\n\t *\t\tIf The AO is set to a Name/TAO, then check if calling address is the Advocate\n\t */\n\tmodifier onlyTheAO {\n\t\trequire (AOLibrary.isTheAO(msg.sender, theAO, nameTAOPositionAddress));\n\t\t_;\n\t}\n\n\t/***** The AO ONLY METHODS *****/\n\t/**\n\t * @dev The AO set the NameTAOPosition Address\n\t * @param _nameTAOPositionAddress The address of NameTAOPosition\n\t */\n\tfunction setNameTAOPositionAddress(address _nameTAOPositionAddress) public onlyTheAO {\n\t\trequire (_nameTAOPositionAddress != address(0));\n\t\tnameTAOPositionAddress = _nameTAOPositionAddress;\n\t}\n\n\t/**\n\t * @dev Transfer ownership of The AO to new address\n\t * @param _theAO The new address to be transferred\n\t */\n\tfunction transferOwnership(address _theAO) public onlyTheAO {\n\t\trequire (_theAO != address(0));\n\t\ttheAO = _theAO;\n\t}\n\n\t/**\n\t * @dev Whitelist `_account` address to transact on behalf of others\n\t * @param _account The address to whitelist\n\t * @param _whitelist Either to whitelist or not\n\t */\n\tfunction setWhitelist(address _account, bool _whitelist) public onlyTheAO {\n\t\trequire (_account != address(0));\n\t\twhitelist[_account] = _whitelist;\n\t}\n\n\t/***** PUBLIC METHODS *****/\n\t/**\n\t * @dev Set pending value\n\t * @param _settingId The ID of the setting\n\t * @param _value The bytes32 value to be set\n\t */\n\tfunction setPendingValue(uint256 _settingId, bytes32 _value) public inWhitelist {\n\t\tpendingValue[_settingId] = _value;\n\t}\n\n\t/**\n\t * @dev Move value from pending to setting\n\t * @param _settingId The ID of the setting\n\t */\n\tfunction movePendingToSetting(uint256 _settingId) public inWhitelist {\n\t\tbytes32 _tempValue = pendingValue[_settingId];\n\t\tdelete pendingValue[_settingId];\n\t\tsettingValue[_settingId] = _tempValue;\n\t}\n}\n",
	"sourcePath": "/Users/johanmulyono/Work/AO/ao-contracts/contracts/AOBytesSetting.sol",
	"compiler": {
		"name": "solc",
		"version": "0.4.24+commit.e67f0147.Emscripten.clang"
	},
	"schemaVersion": "2.0.1",
	"updatedAt": "2019-01-07T04:52:08.499Z"
}