{
	"contractName": "AOContentHost",
	"abi": [
		{
			"constant": true,
			"inputs": [],
			"name": "aoStakedContentAddress",
			"outputs": [
				{
					"name": "",
					"type": "address"
				}
			],
			"payable": false,
			"stateMutability": "view",
			"type": "function"
		},
		{
			"constant": true,
			"inputs": [],
			"name": "nameTAOPositionAddress",
			"outputs": [
				{
					"name": "",
					"type": "address"
				}
			],
			"payable": false,
			"stateMutability": "view",
			"type": "function"
		},
		{
			"constant": true,
			"inputs": [],
			"name": "aoContentAddress",
			"outputs": [
				{
					"name": "",
					"type": "address"
				}
			],
			"payable": false,
			"stateMutability": "view",
			"type": "function"
		},
		{
			"constant": true,
			"inputs": [],
			"name": "aoEarningAddress",
			"outputs": [
				{
					"name": "",
					"type": "address"
				}
			],
			"payable": false,
			"stateMutability": "view",
			"type": "function"
		},
		{
			"constant": true,
			"inputs": [
				{
					"name": "",
					"type": "address"
				}
			],
			"name": "whitelist",
			"outputs": [
				{
					"name": "",
					"type": "bool"
				}
			],
			"payable": false,
			"stateMutability": "view",
			"type": "function"
		},
		{
			"constant": true,
			"inputs": [],
			"name": "theAO",
			"outputs": [
				{
					"name": "",
					"type": "address"
				}
			],
			"payable": false,
			"stateMutability": "view",
			"type": "function"
		},
		{
			"constant": true,
			"inputs": [],
			"name": "nameFactoryAddress",
			"outputs": [
				{
					"name": "",
					"type": "address"
				}
			],
			"payable": false,
			"stateMutability": "view",
			"type": "function"
		},
		{
			"constant": true,
			"inputs": [],
			"name": "totalContentHosts",
			"outputs": [
				{
					"name": "",
					"type": "uint256"
				}
			],
			"payable": false,
			"stateMutability": "view",
			"type": "function"
		},
		{
			"constant": true,
			"inputs": [],
			"name": "aoPurchaseReceiptAddress",
			"outputs": [
				{
					"name": "",
					"type": "address"
				}
			],
			"payable": false,
			"stateMutability": "view",
			"type": "function"
		},
		{
			"inputs": [
				{
					"name": "_aoContentAddress",
					"type": "address"
				},
				{
					"name": "_aoStakedContentAddress",
					"type": "address"
				},
				{
					"name": "_aoPurchaseReceiptAddress",
					"type": "address"
				},
				{
					"name": "_aoEarningAddress",
					"type": "address"
				},
				{
					"name": "_nameFactoryAddress",
					"type": "address"
				},
				{
					"name": "_nameTAOPositionAddress",
					"type": "address"
				}
			],
			"payable": false,
			"stateMutability": "nonpayable",
			"type": "constructor"
		},
		{
			"anonymous": false,
			"inputs": [
				{
					"indexed": true,
					"name": "host",
					"type": "address"
				},
				{
					"indexed": true,
					"name": "contentHostId",
					"type": "bytes32"
				},
				{
					"indexed": false,
					"name": "stakedContentId",
					"type": "bytes32"
				},
				{
					"indexed": false,
					"name": "contentId",
					"type": "bytes32"
				},
				{
					"indexed": false,
					"name": "contentDatKey",
					"type": "string"
				},
				{
					"indexed": false,
					"name": "metadataDatKey",
					"type": "string"
				}
			],
			"name": "HostContent",
			"type": "event"
		},
		{
			"constant": false,
			"inputs": [
				{
					"name": "_theAO",
					"type": "address"
				}
			],
			"name": "transferOwnership",
			"outputs": [],
			"payable": false,
			"stateMutability": "nonpayable",
			"type": "function"
		},
		{
			"constant": false,
			"inputs": [
				{
					"name": "_account",
					"type": "address"
				},
				{
					"name": "_whitelist",
					"type": "bool"
				}
			],
			"name": "setWhitelist",
			"outputs": [],
			"payable": false,
			"stateMutability": "nonpayable",
			"type": "function"
		},
		{
			"constant": false,
			"inputs": [
				{
					"name": "_aoContentAddress",
					"type": "address"
				}
			],
			"name": "setAOContentAddress",
			"outputs": [],
			"payable": false,
			"stateMutability": "nonpayable",
			"type": "function"
		},
		{
			"constant": false,
			"inputs": [
				{
					"name": "_aoStakedContentAddress",
					"type": "address"
				}
			],
			"name": "setAOStakedContentAddress",
			"outputs": [],
			"payable": false,
			"stateMutability": "nonpayable",
			"type": "function"
		},
		{
			"constant": false,
			"inputs": [
				{
					"name": "_aoPurchaseReceiptAddress",
					"type": "address"
				}
			],
			"name": "setAOPurchaseReceiptAddress",
			"outputs": [],
			"payable": false,
			"stateMutability": "nonpayable",
			"type": "function"
		},
		{
			"constant": false,
			"inputs": [
				{
					"name": "_aoEarningAddress",
					"type": "address"
				}
			],
			"name": "setAOEarningAddress",
			"outputs": [],
			"payable": false,
			"stateMutability": "nonpayable",
			"type": "function"
		},
		{
			"constant": false,
			"inputs": [
				{
					"name": "_nameFactoryAddress",
					"type": "address"
				}
			],
			"name": "setNameFactoryAddress",
			"outputs": [],
			"payable": false,
			"stateMutability": "nonpayable",
			"type": "function"
		},
		{
			"constant": false,
			"inputs": [
				{
					"name": "_nameTAOPositionAddress",
					"type": "address"
				}
			],
			"name": "setNameTAOPositionAddress",
			"outputs": [],
			"payable": false,
			"stateMutability": "nonpayable",
			"type": "function"
		},
		{
			"constant": false,
			"inputs": [
				{
					"name": "_host",
					"type": "address"
				},
				{
					"name": "_stakedContentId",
					"type": "bytes32"
				},
				{
					"name": "_encChallenge",
					"type": "string"
				},
				{
					"name": "_contentDatKey",
					"type": "string"
				},
				{
					"name": "_metadataDatKey",
					"type": "string"
				}
			],
			"name": "create",
			"outputs": [
				{
					"name": "",
					"type": "bool"
				}
			],
			"payable": false,
			"stateMutability": "nonpayable",
			"type": "function"
		},
		{
			"constant": true,
			"inputs": [
				{
					"name": "_contentHostId",
					"type": "bytes32"
				}
			],
			"name": "getById",
			"outputs": [
				{
					"name": "",
					"type": "bytes32"
				},
				{
					"name": "",
					"type": "bytes32"
				},
				{
					"name": "",
					"type": "address"
				},
				{
					"name": "",
					"type": "string"
				},
				{
					"name": "",
					"type": "string"
				}
			],
			"payable": false,
			"stateMutability": "view",
			"type": "function"
		},
		{
			"constant": true,
			"inputs": [
				{
					"name": "_contentHostId",
					"type": "bytes32"
				}
			],
			"name": "contentHostPrice",
			"outputs": [
				{
					"name": "",
					"type": "uint256"
				}
			],
			"payable": false,
			"stateMutability": "view",
			"type": "function"
		},
		{
			"constant": true,
			"inputs": [
				{
					"name": "_contentHostId",
					"type": "bytes32"
				}
			],
			"name": "contentHostPaidByAO",
			"outputs": [
				{
					"name": "",
					"type": "uint256"
				}
			],
			"payable": false,
			"stateMutability": "view",
			"type": "function"
		},
		{
			"constant": true,
			"inputs": [
				{
					"name": "_contentHostId",
					"type": "bytes32"
				}
			],
			"name": "isExist",
			"outputs": [
				{
					"name": "",
					"type": "bool"
				}
			],
			"payable": false,
			"stateMutability": "view",
			"type": "function"
		},
		{
			"constant": false,
			"inputs": [
				{
					"name": "_purchaseReceiptId",
					"type": "bytes32"
				},
				{
					"name": "_baseChallengeV",
					"type": "uint8"
				},
				{
					"name": "_baseChallengeR",
					"type": "bytes32"
				},
				{
					"name": "_baseChallengeS",
					"type": "bytes32"
				},
				{
					"name": "_encChallenge",
					"type": "string"
				},
				{
					"name": "_contentDatKey",
					"type": "string"
				},
				{
					"name": "_metadataDatKey",
					"type": "string"
				}
			],
			"name": "becomeHost",
			"outputs": [],
			"payable": false,
			"stateMutability": "nonpayable",
			"type": "function"
		}
	],
	"bytecode": "0x60806040523480156200001157600080fd5b5060405160c080620029a6833981018060405260c08110156200003357600080fd5b508051602082015160408301516060840151608085015160a09095015160008054600160a060020a0319163317905593949293919290916200007e86640100000000620000ee810204565b6200009285640100000000620001f3810204565b620000a684640100000000620002f8810204565b620000ba83640100000000620003fd810204565b620000ce8264010000000062000502810204565b620000e28164010000000062000607810204565b50505050505062000702565b600054600154604080517ff66afcac000000000000000000000000000000000000000000000000000000008152336004820152600160a060020a0393841660248201529290911660448301525173__AOLibrary_____________________________9163f66afcac916064808301926020929190829003018186803b1580156200017757600080fd5b505af41580156200018c573d6000803e3d6000fd5b505050506040513d6020811015620001a357600080fd5b50511515620001b157600080fd5b600160a060020a0381161515620001c757600080fd5b60048054600160a060020a03909216600160a060020a0319928316811790915560098054909216179055565b600054600154604080517ff66afcac000000000000000000000000000000000000000000000000000000008152336004820152600160a060020a0393841660248201529290911660448301525173__AOLibrary_____________________________9163f66afcac916064808301926020929190829003018186803b1580156200027c57600080fd5b505af415801562000291573d6000803e3d6000fd5b505050506040513d6020811015620002a857600080fd5b50511515620002b657600080fd5b600160a060020a0381161515620002cc57600080fd5b60058054600160a060020a03909216600160a060020a03199283168117909155600a8054909216179055565b600054600154604080517ff66afcac000000000000000000000000000000000000000000000000000000008152336004820152600160a060020a0393841660248201529290911660448301525173__AOLibrary_____________________________9163f66afcac916064808301926020929190829003018186803b1580156200038157600080fd5b505af415801562000396573d6000803e3d6000fd5b505050506040513d6020811015620003ad57600080fd5b50511515620003bb57600080fd5b600160a060020a0381161515620003d157600080fd5b60068054600160a060020a03909216600160a060020a03199283168117909155600b8054909216179055565b600054600154604080517ff66afcac000000000000000000000000000000000000000000000000000000008152336004820152600160a060020a0393841660248201529290911660448301525173__AOLibrary_____________________________9163f66afcac916064808301926020929190829003018186803b1580156200048657600080fd5b505af41580156200049b573d6000803e3d6000fd5b505050506040513d6020811015620004b257600080fd5b50511515620004c057600080fd5b600160a060020a0381161515620004d657600080fd5b60078054600160a060020a03909216600160a060020a03199283168117909155600c8054909216179055565b600054600154604080517ff66afcac000000000000000000000000000000000000000000000000000000008152336004820152600160a060020a0393841660248201529290911660448301525173__AOLibrary_____________________________9163f66afcac916064808301926020929190829003018186803b1580156200058b57600080fd5b505af4158015620005a0573d6000803e3d6000fd5b505050506040513d6020811015620005b757600080fd5b50511515620005c557600080fd5b600160a060020a0381161515620005db57600080fd5b60088054600160a060020a03909216600160a060020a03199283168117909155600d8054909216179055565b600054600154604080517ff66afcac000000000000000000000000000000000000000000000000000000008152336004820152600160a060020a0393841660248201529290911660448301525173__AOLibrary_____________________________9163f66afcac916064808301926020929190829003018186803b1580156200069057600080fd5b505af4158015620006a5573d6000803e3d6000fd5b505050506040513d6020811015620006bc57600080fd5b50511515620006ca57600080fd5b600160a060020a0381161515620006e057600080fd5b60018054600160a060020a031916600160a060020a0392909216919091179055565b61229480620007126000396000f3fe608060405234801561001057600080fd5b506004361061016a576000357c01000000000000000000000000000000000000000000000000000000009004806389a83246116100e0578063bc40620611610099578063bc40620614610738578063bc6abaa214610740578063c7061f9714610766578063c96a74e51461078c578063e669ecab14610794578063f2fde38b1461079c5761016a565b806389a83246146106995780638c924361146106bf5780638f629222146106e55780639b19251a146106ed578063a9b6b38e14610713578063a9e3fd271461071b5761016a565b806353d6fd591161013257806353d6fd5914610422578063555ea48c146104505780635cfaf2ef1461061f578063762fee181461064557806385cb86c81461066257806386231b9e1461066a5761016a565b8063078753ad1461016f5780630da8097d146101935780632dff0d0d146102d05780633e36144f146103f25780634ef033f01461041a575b600080fd5b6101776107c2565b60408051600160a060020a039092168252519081900360200190f35b6102bc600480360360a08110156101a957600080fd5b600160a060020a03823516916020810135918101906060810160408201356401000000008111156101d957600080fd5b8201836020820111156101eb57600080fd5b8035906020019184600183028401116401000000008311171561020d57600080fd5b91939092909160208101903564010000000081111561022b57600080fd5b82018360208201111561023d57600080fd5b8035906020019184600183028401116401000000008311171561025f57600080fd5b91939092909160208101903564010000000081111561027d57600080fd5b82018360208201111561028f57600080fd5b803590602001918460018302840111640100000000831117156102b157600080fd5b5090925090506107d1565b604080519115158252519081900360200190f35b6102ed600480360360208110156102e657600080fd5b50356108b5565b6040518086815260200185815260200184600160a060020a0316600160a060020a031681526020018060200180602001838103835285818151815260200191508051906020019080838360005b8381101561035257818101518382015260200161033a565b50505050905090810190601f16801561037f5780820380516001836020036101000a031916815260200191505b50838103825284518152845160209182019186019080838360005b838110156103b257818101518382015260200161039a565b50505050905090810190601f1680156103df5780820380516001836020036101000a031916815260200191505b5097505050505050505060405180910390f35b6104186004803603602081101561040857600080fd5b5035600160a060020a0316610b1a565b005b610177610c04565b6104186004803603604081101561043857600080fd5b50600160a060020a0381351690602001351515610c13565b610418600480360360e081101561046657600080fd5b81359160ff6020820135169160408201359160608101359181019060a08101608082013564010000000081111561049c57600080fd5b8201836020820111156104ae57600080fd5b803590602001918460018302840111640100000000831117156104d057600080fd5b91908080601f016020809104026020016040519081016040528093929190818152602001838380828437600092019190915250929594936020810193503591505064010000000081111561052357600080fd5b82018360208201111561053557600080fd5b8035906020019184600183028401116401000000008311171561055757600080fd5b91908080601f01602080910402602001604051908101604052809392919081815260200183838082843760009201919091525092959493602081019350359150506401000000008111156105aa57600080fd5b8201836020820111156105bc57600080fd5b803590602001918460018302840111640100000000831117156105de57600080fd5b91908080601f016020809104026020016040519081016040528093929190818152602001838380828437600092019190915250929550610cfc945050505050565b6104186004803603602081101561063557600080fd5b5035600160a060020a0316610f96565b6102bc6004803603602081101561065b57600080fd5b5035611076565b61017761108c565b6106876004803603602081101561068057600080fd5b503561109b565b60408051918252519081900360200190f35b610418600480360360208110156106af57600080fd5b5035600160a060020a03166112bc565b610418600480360360208110156106d557600080fd5b5035600160a060020a03166113a6565b610177611490565b6102bc6004803603602081101561070357600080fd5b5035600160a060020a031661149f565b6101776114b4565b6106876004803603602081101561073157600080fd5b50356114c3565b61017761163d565b6104186004803603602081101561075657600080fd5b5035600160a060020a031661164c565b6104186004803603602081101561077c57600080fd5b5035600160a060020a0316611736565b610687611820565b610177611826565b610418600480360360208110156107b257600080fd5b5035600160a060020a0316611835565b600554600160a060020a031681565b3360009081526002602052604081205460ff1615156001146107f257600080fd5b61089b898989898080601f01602080910402602001604051908101604052809392919081815260200183838082843760009201919091525050604080516020601f8d018190048102820181019092528b815292508b91508a908190840183828082843760009201919091525050604080516020601f8c018190048102820181019092528a815292508a915089908190840183828082843760009201919091525061191592505050565b15156108a657600080fd5b50600198975050505050505050565b6000818152600f602052604081205481908190606090819083106108d857600080fd5b6108e061218f565b6000878152600f60209081526040808320548352600e825291829020825160e0810184528154815260018083015482850152600280840154838701526003840154600160a060020a0316606084015260048401805487516101009482161594909402600019011691909104601f8101869004860283018601909652858252919492936080860193919291908301828280156109bc5780601f10610991576101008083540402835291602001916109bc565b820191906000526020600020905b81548152906001019060200180831161099f57829003601f168201915b505050918352505060058201805460408051602060026001851615610100026000190190941693909304601f8101849004840282018401909252818152938201939291830182828015610a505780601f10610a2557610100808354040283529160200191610a50565b820191906000526020600020905b815481529060010190602001808311610a3357829003601f168201915b505050918352505060068201805460408051602060026001851615610100026000190190941693909304601f8101849004840282018401909252818152938201939291830182828015610ae45780601f10610ab957610100808354040283529160200191610ae4565b820191906000526020600020905b815481529060010190602001808311610ac757829003601f168201915b5050509190925250505060208101516040820151606083015160a084015160c090940151929b919a509850919650945092505050565b6000546001546040805160e260020a633d9abf2b028152336004820152600160a060020a0393841660248201529290911660448301525173__AOLibrary_____________________________9163f66afcac916064808301926020929190829003018186803b158015610b8c57600080fd5b505af4158015610ba0573d6000803e3d6000fd5b505050506040513d6020811015610bb657600080fd5b50511515610bc357600080fd5b600160a060020a0381161515610bd857600080fd5b60058054600160a060020a03909216600160a060020a03199283168117909155600a8054909216179055565b600154600160a060020a031681565b6000546001546040805160e260020a633d9abf2b028152336004820152600160a060020a0393841660248201529290911660448301525173__AOLibrary_____________________________9163f66afcac916064808301926020929190829003018186803b158015610c8557600080fd5b505af4158015610c99573d6000803e3d6000fd5b505050506040513d6020811015610caf57600080fd5b50511515610cbc57600080fd5b600160a060020a0382161515610cd157600080fd5b600160a060020a03919091166000908152600260205260409020805460ff1916911515919091179055565b600d54604080517f029b7d530000000000000000000000000000000000000000000000000000000081523360048201529051600092600160a060020a03169163029b7d53916024808301926020929190829003018186803b158015610d6057600080fd5b505afa158015610d74573d6000803e3d6000fd5b505050506040513d6020811015610d8a57600080fd5b50519050600160a060020a0381161515610da357600080fd5b610db08882898989611d90565b1515610dbb57600080fd5b600b546040805160e060020a632dff0d0d028152600481018b90529051600092600160a060020a031691632dff0d0d9160248083019286929190829003018186803b158015610e0957600080fd5b505afa158015610e1d573d6000803e3d6000fd5b505050506040513d6000823e601f3d908101601f19168201604052610140811015610e4757600080fd5b8151602083015160408401516060850151608086015160a087015160c088015160e08901805197999698959794969395929491939283019291640100000000811115610e9257600080fd5b82016020810184811115610ea557600080fd5b8151640100000000811182820187101715610ebf57600080fd5b50999b50610ee29a508c99508b98508f97508e96508d9550611915945050505050565b1515610eed57600080fd5b600c54604080517f4c9e0913000000000000000000000000000000000000000000000000000000008152600481018c90529051600160a060020a0390921691634c9e0913916024808201926020929091908290030181600087803b158015610f5457600080fd5b505af1158015610f68573d6000803e3d6000fd5b505050506040513d6020811015610f7e57600080fd5b50511515610f8b57600080fd5b505050505050505050565b6000546001546040805160e260020a633d9abf2b028152336004820152600160a060020a0393841660248201529290911660448301525173__AOLibrary_____________________________9163f66afcac916064808301926020929190829003018186803b15801561100857600080fd5b505af415801561101c573d6000803e3d6000fd5b505050506040513d602081101561103257600080fd5b5051151561103f57600080fd5b600160a060020a038116151561105457600080fd5b60018054600160a060020a031916600160a060020a0392909216919091179055565b6000818152600f6020526040812054115b919050565b600454600160a060020a031681565b6000818152600f602052604081205481106110b557600080fd5b6000828152600f60209081526040808320548352600e82529182902060010154600a5483517f5c36901c0000000000000000000000000000000000000000000000000000000081526004810183905293519193600160a060020a0390911692635c36901c92602480840193829003018186803b15801561113457600080fd5b505afa158015611148573d6000803e3d6000fd5b505050506040513d602081101561115e57600080fd5b5051151561116b57600080fd5b6000838152600f60209081526040808320548352600e8252918290206002015460095483517f65cf0ace0000000000000000000000000000000000000000000000000000000081526004810183905293519193600160a060020a03909116926365cf0ace92602480840193829003018186803b1580156111ea57600080fd5b505afa1580156111fe573d6000803e3d6000fd5b505050506040513d602081101561121457600080fd5b50511561122657600092505050611087565b30600160a060020a031663a9e3fd27856040518263ffffffff167c01000000000000000000000000000000000000000000000000000000000281526004018082815260200191505060206040518083038186803b15801561128657600080fd5b505afa15801561129a573d6000803e3d6000fd5b505050506040513d60208110156112b057600080fd5b50519250611087915050565b6000546001546040805160e260020a633d9abf2b028152336004820152600160a060020a0393841660248201529290911660448301525173__AOLibrary_____________________________9163f66afcac916064808301926020929190829003018186803b15801561132e57600080fd5b505af4158015611342573d6000803e3d6000fd5b505050506040513d602081101561135857600080fd5b5051151561136557600080fd5b600160a060020a038116151561137a57600080fd5b60048054600160a060020a03909216600160a060020a0319928316811790915560098054909216179055565b6000546001546040805160e260020a633d9abf2b028152336004820152600160a060020a0393841660248201529290911660448301525173__AOLibrary_____________________________9163f66afcac916064808301926020929190829003018186803b15801561141857600080fd5b505af415801561142c573d6000803e3d6000fd5b505050506040513d602081101561144257600080fd5b5051151561144f57600080fd5b600160a060020a038116151561146457600080fd5b60088054600160a060020a03909216600160a060020a03199283168117909155600d8054909216179055565b600754600160a060020a031681565b60026020526000908152604090205460ff1681565b600054600160a060020a031681565b6000818152600f602052604081205481106114dd57600080fd5b6000828152600f60209081526040808320548352600e82529182902060010154600a5483517f5c36901c0000000000000000000000000000000000000000000000000000000081526004810183905293519193600160a060020a0390911692635c36901c92602480840193829003018186803b15801561155c57600080fd5b505afa158015611570573d6000803e3d6000fd5b505050506040513d602081101561158657600080fd5b5051151561159357600080fd5b600a546040805160e060020a632dff0d0d0281526004810184905290516000928392600160a060020a0390911691632dff0d0d9160248082019261010092909190829003018186803b1580156115e857600080fd5b505afa1580156115fc573d6000803e3d6000fd5b505050506040513d61010081101561161357600080fd5b5060408101516060909101519092509050611634828263ffffffff611e4a16565b95945050505050565b600854600160a060020a031681565b6000546001546040805160e260020a633d9abf2b028152336004820152600160a060020a0393841660248201529290911660448301525173__AOLibrary_____________________________9163f66afcac916064808301926020929190829003018186803b1580156116be57600080fd5b505af41580156116d2573d6000803e3d6000fd5b505050506040513d60208110156116e857600080fd5b505115156116f557600080fd5b600160a060020a038116151561170a57600080fd5b60068054600160a060020a03909216600160a060020a03199283168117909155600b8054909216179055565b6000546001546040805160e260020a633d9abf2b028152336004820152600160a060020a0393841660248201529290911660448301525173__AOLibrary_____________________________9163f66afcac916064808301926020929190829003018186803b1580156117a857600080fd5b505af41580156117bc573d6000803e3d6000fd5b505050506040513d60208110156117d257600080fd5b505115156117df57600080fd5b600160a060020a03811615156117f457600080fd5b60078054600160a060020a03909216600160a060020a03199283168117909155600c8054909216179055565b60035481565b600654600160a060020a031681565b6000546001546040805160e260020a633d9abf2b028152336004820152600160a060020a0393841660248201529290911660448301525173__AOLibrary_____________________________9163f66afcac916064808301926020929190829003018186803b1580156118a757600080fd5b505af41580156118bb573d6000803e3d6000fd5b505050506040513d60208110156118d157600080fd5b505115156118de57600080fd5b600160a060020a03811615156118f357600080fd5b60008054600160a060020a031916600160a060020a0392909216919091179055565b6000600160a060020a038616151561192c57600080fd5b604080517f2d706a34000000000000000000000000000000000000000000000000000000008152600160a060020a0388166004820152905173__AOLibrary_____________________________91632d706a34916024808301926020929190829003018186803b15801561199f57600080fd5b505af41580156119b3573d6000803e3d6000fd5b505050506040513d60208110156119c957600080fd5b505115156119d657600080fd5b83516000106119e457600080fd5b82516000106119f257600080fd5b8151600010611a0057600080fd5b600a54604080517f5c36901c000000000000000000000000000000000000000000000000000000008152600481018890529051600160a060020a0390921691635c36901c91602480820192602092909190829003018186803b158015611a6557600080fd5b505afa158015611a79573d6000803e3d6000fd5b505050506040513d6020811015611a8f57600080fd5b50511515611a9c57600080fd5b60038054600101808255604080516c01000000000000000000000000308102602080840191909152600160a060020a03808d16909202603484015260488084018c905284518085039091018152606890930184528251928101929092206000948552600e90925291909220928301549192911615611b1957600080fd5b600a546040805160e060020a632dff0d0d028152600481018a90529051600092600160a060020a031691632dff0d0d91602480830192610100929190829003018186803b158015611b6957600080fd5b505afa158015611b7d573d6000803e3d6000fd5b505050506040513d610100811015611b9457600080fd5b50518383556001830189905560028301819055600383018054600160a060020a031916600160a060020a038c161790558751909150611bdc90600484019060208a01906121cd565b508551611bf290600584019060208901906121cd565b508451611c0890600684019060208801906121cd565b50600380546000858152600f6020908152604091829020929092558454928501546001808701546002808901548551838152968701819052608095870186815260058b01805460001996811615610100029690960190951692909204958701869052600160a060020a03909416957f3822dc82485ad7da8362b68055846011a5882496620bcc8e725a6f810591eb10959294939260068b019290606083019060a084019086908015611cfb5780601f10611cd057610100808354040283529160200191611cfb565b820191906000526020600020905b815481529060010190602001808311611cde57829003601f168201915b5050838103825284546002600019610100600184161502019091160480825260209091019085908015611d6f5780601f10611d4457610100808354040283529160200191611d6f565b820191906000526020600020905b815481529060010190602001808311611d5257829003601f168201915b5050965050505050505060405180910390a350600198975050505050505050565b600b54604080517f0671084200000000000000000000000000000000000000000000000000000000815260048101889052600160a060020a03878116602483015291516000939290921691630671084291604480820192602092909190829003018186803b158015611e0157600080fd5b505afa158015611e15573d6000803e3d6000fd5b505050506040513d6020811015611e2b57600080fd5b50518015611e405750611e4086858585611e5d565b9695505050505050565b81810182811015611e5757fe5b92915050565b600b546040805160e060020a632dff0d0d02815260048101879052905160009283928392600160a060020a0390921691632dff0d0d916024808201928692909190829003018186803b158015611eb257600080fd5b505afa158015611ec6573d6000803e3d6000fd5b505050506040513d6000823e601f3d908101601f19168201604052610140811015611ef057600080fd5b8151602083015160408401516060850151608086015160a087015160c088015160e08901805197999698959794969395929491939283019291640100000000811115611f3b57600080fd5b82016020810184811115611f4e57600080fd5b8151640100000000811182820187101715611f6857600080fd5b50505060200151600954604080517f3486d8f6000000000000000000000000000000000000000000000000000000008152600481018b90529051999d50919b5060009a50309950600160a060020a031697633486d8f69750602480830197508b96509094509084900301915082905086803b158015611fe657600080fd5b505afa158015611ffa573d6000803e3d6000fd5b505050506040513d6000823e601f3d908101601f19168201604052602081101561202357600080fd5b81019080805164010000000081111561203b57600080fd5b8201602081018481111561204e57600080fd5b815164010000000081118282018710171561206857600080fd5b50509291905050506040516020018083600160a060020a0316600160a060020a03166c0100000000000000000000000002815260140182805190602001908083835b602083106120c95780518252601f1990920191602091820191016120aa565b6001836020036101000a0380198251168184511680821785525050505050509050019250505060405160208183030381529060405280519060200120905081600160a060020a031660018289898960405160008152602001604052604051808581526020018460ff1660ff1681526020018381526020018281526020019450505050506020604051602081039080840390855afa15801561216e573d6000803e3d6000fd5b50505060206040510351600160a060020a0316149350505050949350505050565b6040805160e0810182526000808252602082018190529181018290526060808201929092526080810182905260a0810182905260c081019190915290565b828054600181600116156101000203166002900490600052602060002090601f016020900481019282601f1061220e57805160ff191683800117855561223b565b8280016001018555821561223b579182015b8281111561223b578251825591602001919060010190612220565b5061224792915061224b565b5090565b61226591905b808211156122475760008155600101612251565b9056fea165627a7a723058202d5eb4d0cb09f3c19f0811c15e547cce21a09e9c9a5521bd9017710d848434870029",
	"source": "pragma solidity >=0.5.4 <0.6.0;\n\nimport './SafeMath.sol';\nimport './AOLibrary.sol';\nimport './TheAO.sol';\nimport './IAOContentHost.sol';\nimport './IAOContent.sol';\nimport './IAOStakedContent.sol';\nimport './IAOPurchaseReceipt.sol';\nimport './IAOEarning.sol';\nimport './INameFactory.sol';\n\n/**\n * @title AOContentHost\n */\ncontract AOContentHost is TheAO, IAOContentHost {\n\tusing SafeMath for uint256;\n\n\tuint256 public totalContentHosts;\n\taddress public aoContentAddress;\n\taddress public aoStakedContentAddress;\n\taddress public aoPurchaseReceiptAddress;\n\taddress public aoEarningAddress;\n\taddress public nameFactoryAddress;\n\n\tIAOContent internal _aoContent;\n\tIAOStakedContent internal _aoStakedContent;\n\tIAOPurchaseReceipt internal _aoPurchaseReceipt;\n\tIAOEarning internal _aoEarning;\n\tINameFactory internal _nameFactory;\n\n\tstruct ContentHost {\n\t\tbytes32 contentHostId;\n\t\tbytes32 stakedContentId;\n\t\tbytes32 contentId;\n\t\taddress host;\n\t\t/**\n\t\t * encChallenge is the content's PUBLIC KEY unique to the host\n\t\t */\n\t\tstring encChallenge;\n\t\tstring contentDatKey;\n\t\tstring metadataDatKey;\n\t}\n\n\t// Mapping from ContentHost index to the ContentHost object\n\tmapping (uint256 => ContentHost) internal contentHosts;\n\n\t// Mapping from content host ID to index of the contentHosts list\n\tmapping (bytes32 => uint256) internal contentHostIndex;\n\n\t// Event to be broadcasted to public when a node hosts a content\n\tevent HostContent(address indexed host, bytes32 indexed contentHostId, bytes32 stakedContentId, bytes32 contentId, string contentDatKey, string metadataDatKey);\n\n\t/**\n\t * @dev Constructor function\n\t * @param _aoContentAddress The address of AOContent\n\t * @param _aoStakedContentAddress The address of AOStakedContent\n\t * @param _aoPurchaseReceiptAddress The address of AOPurchaseReceipt\n\t * @param _aoEarningAddress The address of AOEarning\n\t * @param _nameFactoryAddress The address of NameFactory\n\t * @param _nameTAOPositionAddress The address of NameTAOPosition\n\t */\n\tconstructor(address _aoContentAddress, address _aoStakedContentAddress, address _aoPurchaseReceiptAddress, address _aoEarningAddress, address _nameFactoryAddress, address _nameTAOPositionAddress) public {\n\t\tsetAOContentAddress(_aoContentAddress);\n\t\tsetAOStakedContentAddress(_aoStakedContentAddress);\n\t\tsetAOPurchaseReceiptAddress(_aoPurchaseReceiptAddress);\n\t\tsetAOEarningAddress(_aoEarningAddress);\n\t\tsetNameFactoryAddress(_nameFactoryAddress);\n\t\tsetNameTAOPositionAddress(_nameTAOPositionAddress);\n\t}\n\n\t/**\n\t * @dev Checks if the calling contract address is The AO\n\t *\t\tOR\n\t *\t\tIf The AO is set to a Name/TAO, then check if calling address is the Advocate\n\t */\n\tmodifier onlyTheAO {\n\t\trequire (AOLibrary.isTheAO(msg.sender, theAO, nameTAOPositionAddress));\n\t\t_;\n\t}\n\n\t/***** The AO ONLY METHODS *****/\n\t/**\n\t * @dev Transfer ownership of The AO to new address\n\t * @param _theAO The new address to be transferred\n\t */\n\tfunction transferOwnership(address _theAO) public onlyTheAO {\n\t\trequire (_theAO != address(0));\n\t\ttheAO = _theAO;\n\t}\n\n\t/**\n\t * @dev Whitelist `_account` address to transact on behalf of others\n\t * @param _account The address to whitelist\n\t * @param _whitelist Either to whitelist or not\n\t */\n\tfunction setWhitelist(address _account, bool _whitelist) public onlyTheAO {\n\t\trequire (_account != address(0));\n\t\twhitelist[_account] = _whitelist;\n\t}\n\n\t/**\n\t * @dev The AO sets AOContent address\n\t * @param _aoContentAddress The address of AOContent\n\t */\n\tfunction setAOContentAddress(address _aoContentAddress) public onlyTheAO {\n\t\trequire (_aoContentAddress != address(0));\n\t\taoContentAddress = _aoContentAddress;\n\t\t_aoContent = IAOContent(_aoContentAddress);\n\t}\n\n\t/**\n\t * @dev The AO sets AOStakedContent address\n\t * @param _aoStakedContentAddress The address of AOStakedContent\n\t */\n\tfunction setAOStakedContentAddress(address _aoStakedContentAddress) public onlyTheAO {\n\t\trequire (_aoStakedContentAddress != address(0));\n\t\taoStakedContentAddress = _aoStakedContentAddress;\n\t\t_aoStakedContent = IAOStakedContent(_aoStakedContentAddress);\n\t}\n\n\t/**\n\t * @dev The AO sets AOPurchaseReceipt address\n\t * @param _aoPurchaseReceiptAddress The address of AOPurchaseReceipt\n\t */\n\tfunction setAOPurchaseReceiptAddress(address _aoPurchaseReceiptAddress) public onlyTheAO {\n\t\trequire (_aoPurchaseReceiptAddress != address(0));\n\t\taoPurchaseReceiptAddress = _aoPurchaseReceiptAddress;\n\t\t_aoPurchaseReceipt = IAOPurchaseReceipt(_aoPurchaseReceiptAddress);\n\t}\n\n\t/**\n\t * @dev The AO sets AOEarning address\n\t * @param _aoEarningAddress The address of AOEarning\n\t */\n\tfunction setAOEarningAddress(address _aoEarningAddress) public onlyTheAO {\n\t\trequire (_aoEarningAddress != address(0));\n\t\taoEarningAddress = _aoEarningAddress;\n\t\t_aoEarning = IAOEarning(_aoEarningAddress);\n\t}\n\n\t/**\n\t * @dev The AO sets NameFactory address\n\t * @param _nameFactoryAddress The address of NameFactory\n\t */\n\tfunction setNameFactoryAddress(address _nameFactoryAddress) public onlyTheAO {\n\t\trequire (_nameFactoryAddress != address(0));\n\t\tnameFactoryAddress = _nameFactoryAddress;\n\t\t_nameFactory = INameFactory(_nameFactoryAddress);\n\t}\n\n\t/**\n\t * @dev The AO sets NameTAOPosition address\n\t * @param _nameTAOPositionAddress The address of NameTAOPosition\n\t */\n\tfunction setNameTAOPositionAddress(address _nameTAOPositionAddress) public onlyTheAO {\n\t\trequire (_nameTAOPositionAddress != address(0));\n\t\tnameTAOPositionAddress = _nameTAOPositionAddress;\n\t}\n\n\t/***** PUBLIC METHODS *****/\n\t/**\n\t * @dev Add the distribution node info that hosts the content\n\t * @param _host the address of the host\n\t * @param _stakedContentId The ID of the staked content\n\t * @param _encChallenge The encrypted challenge string (PUBLIC KEY) of the content unique to the host\n\t * @param _contentDatKey The dat key of the content\n\t * @param _metadataDatKey The dat key of the content's metadata\n\t * @return true on success\n\t */\n\tfunction create(address _host, bytes32 _stakedContentId, string calldata _encChallenge, string calldata _contentDatKey, string calldata _metadataDatKey) external inWhitelist returns (bool) {\n\t\trequire (_create(_host, _stakedContentId, _encChallenge, _contentDatKey, _metadataDatKey));\n\t\treturn true;\n\t}\n\n\t/**\n\t * @dev Return content host info at a given ID\n\t * @param _contentHostId The ID of the hosted content\n\t * @return The ID of the staked content\n\t * @return The ID of the content\n\t * @return address of the host\n\t * @return the dat key of the content\n\t * @return the dat key of the content's metadata\n\t */\n\tfunction getById(bytes32 _contentHostId) external view returns (bytes32, bytes32, address, string memory, string memory) {\n\t\t// Make sure the content host exist\n\t\trequire (contentHostIndex[_contentHostId] > 0);\n\t\tContentHost memory _contentHost = contentHosts[contentHostIndex[_contentHostId]];\n\t\treturn (\n\t\t\t_contentHost.stakedContentId,\n\t\t\t_contentHost.contentId,\n\t\t\t_contentHost.host,\n\t\t\t_contentHost.contentDatKey,\n\t\t\t_contentHost.metadataDatKey\n\t\t);\n\t}\n\n\t/**\n\t * @dev Determine the content price hosted by a host\n\t * @param _contentHostId The content host ID to be checked\n\t * @return the price of the content\n\t */\n\tfunction contentHostPrice(bytes32 _contentHostId) external view returns (uint256) {\n\t\t// Make sure content host exist\n\t\trequire (contentHostIndex[_contentHostId] > 0);\n\n\t\tbytes32 _stakedContentId = contentHosts[contentHostIndex[_contentHostId]].stakedContentId;\n\t\trequire (_aoStakedContent.isActive(_stakedContentId));\n\n\t\t(,,uint256 _networkAmount, uint256 _primordialAmount,,,,) = _aoStakedContent.getById(_stakedContentId);\n\t\treturn _networkAmount.add(_primordialAmount);\n\t}\n\n\t/**\n\t * @dev Determine the how much the content is paid by AO given a contentHostId\n\t * @param _contentHostId The content host ID to be checked\n\t * @return the amount paid by AO\n\t */\n\tfunction contentHostPaidByAO(bytes32 _contentHostId) external view returns (uint256) {\n\t\t// Make sure content host exist\n\t\trequire (contentHostIndex[_contentHostId] > 0);\n\n\t\tbytes32 _stakedContentId = contentHosts[contentHostIndex[_contentHostId]].stakedContentId;\n\t\trequire (_aoStakedContent.isActive(_stakedContentId));\n\n\t\tbytes32 _contentId = contentHosts[contentHostIndex[_contentHostId]].contentId;\n\t\tif (_aoContent.isAOContentUsageType(_contentId)) {\n\t\t\treturn 0;\n\t\t} else {\n\t\t\treturn this.contentHostPrice(_contentHostId);\n\t\t}\n\t}\n\n\t/**\n\t * @dev Check whether or not a contentHostId exist\n\t * @param _contentHostId The content host ID to be checked\n\t * @return true if yes, false otherwise\n\t */\n\tfunction isExist(bytes32 _contentHostId) external view returns (bool) {\n\t\treturn (contentHostIndex[_contentHostId] > 0);\n\t}\n\n\t/**\n\t * @dev Request node wants to become a distribution node after buying the content\n\t *\t\tAlso, if this transaction succeeds, contract will release all of the earnings that are\n\t *\t\tcurrently in escrow for content creator/host/The AO\n\t * @param _purchaseReceiptId The ID of the Purchase Receipt\n\t * @param _baseChallengeV The V part of signature when signing the base challenge\n\t * @param _baseChallengeR The R part of signature when signing the base challenge\n\t * @param _baseChallengeS The S part of signature when signing the base challenge\n\t * @param _encChallenge The encrypted challenge string (PUBLIC KEY) of the content unique to the host\n\t * @param _contentDatKey The dat key of the content\n\t * @param _metadataDatKey The dat key of the content's metadata\n\t */\n\tfunction becomeHost(\n\t\tbytes32 _purchaseReceiptId,\n\t\tuint8 _baseChallengeV,\n\t\tbytes32 _baseChallengeR,\n\t\tbytes32 _baseChallengeS,\n\t\tstring memory _encChallenge,\n\t\tstring memory _contentDatKey,\n\t\tstring memory _metadataDatKey\n\t) public {\n\t\taddress _hostNameId = _nameFactory.ethAddressToNameId(msg.sender);\n\t\trequire (_hostNameId != address(0));\n\t\trequire (_canBecomeHost(_purchaseReceiptId, _hostNameId, _baseChallengeV, _baseChallengeR, _baseChallengeS));\n\n\t\t(, bytes32 _stakedContentId,,,,,,,,) = _aoPurchaseReceipt.getById(_purchaseReceiptId);\n\n\t\trequire (_create(_hostNameId, _stakedContentId, _encChallenge, _contentDatKey, _metadataDatKey));\n\n\t\t// Release earning from escrow\n\t\trequire (_aoEarning.releaseEarning(_purchaseReceiptId));\n\t}\n\n\t/***** INTERNAL METHODS *****/\n\t/**\n\t * @dev Actual add the distribution node info that hosts the content\n\t * @param _host the address of the host\n\t * @param _stakedContentId The ID of the staked content\n\t * @param _encChallenge The encrypted challenge string (PUBLIC KEY) of the content unique to the host\n\t * @param _contentDatKey The dat key of the content\n\t * @param _metadataDatKey The dat key of the content's metadata\n\t * @return true on success\n\t */\n\tfunction _create(address _host, bytes32 _stakedContentId, string memory _encChallenge, string memory _contentDatKey, string memory _metadataDatKey) internal returns (bool) {\n\t\trequire (_host != address(0));\n\t\trequire (AOLibrary.isName(_host));\n\t\trequire (bytes(_encChallenge).length > 0);\n\t\trequire (bytes(_contentDatKey).length > 0);\n\t\trequire (bytes(_metadataDatKey).length > 0);\n\t\trequire (_aoStakedContent.isActive(_stakedContentId));\n\n\t\t// Increment totalContentHosts\n\t\ttotalContentHosts++;\n\n\t\t// Generate contentId\n\t\tbytes32 _contentHostId = keccak256(abi.encodePacked(this, _host, _stakedContentId));\n\n\t\tContentHost storage _contentHost = contentHosts[totalContentHosts];\n\n\t\t// Make sure the node doesn't host the same content twice\n\t\trequire (_contentHost.host == address(0));\n\n\t\t(bytes32 _contentId,,,,,,,) = _aoStakedContent.getById(_stakedContentId);\n\n\t\t_contentHost.contentHostId = _contentHostId;\n\t\t_contentHost.stakedContentId = _stakedContentId;\n\t\t_contentHost.contentId = _contentId;\n\t\t_contentHost.host = _host;\n\t\t_contentHost.encChallenge = _encChallenge;\n\t\t_contentHost.contentDatKey = _contentDatKey;\n\t\t_contentHost.metadataDatKey = _metadataDatKey;\n\n\t\tcontentHostIndex[_contentHostId] = totalContentHosts;\n\n\t\temit HostContent(_contentHost.host, _contentHost.contentHostId, _contentHost.stakedContentId, _contentHost.contentId, _contentHost.contentDatKey, _contentHost.metadataDatKey);\n\t\treturn true;\n\t}\n\n\t/**\n\t * @dev Check whether or not the passed params are valid\n\t * @param _purchaseReceiptId The ID of the Purchase Receipt\n\t * @param _sender The address of the sender\n\t * @param _baseChallengeV The V part of signature when signing the base challenge\n\t * @param _baseChallengeR The R part of signature when signing the base challenge\n\t * @param _baseChallengeS The S part of signature when signing the base challenge\n\t * @return true if yes, false otherwise\n\t */\n\tfunction _canBecomeHost(bytes32 _purchaseReceiptId, address _sender, uint8 _baseChallengeV, bytes32 _baseChallengeR, bytes32 _baseChallengeS) internal view returns (bool) {\n\t\t// Make sure the purchase receipt owner is the same as the sender\n\t\treturn (_aoPurchaseReceipt.senderIsBuyer(_purchaseReceiptId, _sender) &&\n\t\t\t_verifyBecomeHostSignature(_purchaseReceiptId, _baseChallengeV, _baseChallengeR, _baseChallengeS)\n\t\t);\n\t}\n\n\t/**\n\t * @dev Verify the become host signature\n\t * @param _purchaseReceiptId The ID of the purchase receipt\n\t * @param _v part of the signature\n\t * @param _r part of the signature\n\t * @param _s part of the signature\n\t * @return true if valid, false otherwise\n\t */\n\tfunction _verifyBecomeHostSignature(bytes32 _purchaseReceiptId, uint8 _v, bytes32 _r, bytes32 _s) internal view returns (bool) {\n\t\t(,, bytes32 _contentId,,,,,, address _publicAddress,) = _aoPurchaseReceipt.getById(_purchaseReceiptId);\n\n\t\tbytes32 _hash = keccak256(abi.encodePacked(address(this), _aoContent.getBaseChallenge(_contentId)));\n\t\treturn (ecrecover(_hash, _v, _r, _s) == _publicAddress);\n\t}\n}\n",
	"sourcePath": "/home/jmulyono/ao-contracts/contracts/AOContentHost.sol",
	"compiler": {
		"name": "solc",
		"version": "0.5.4+commit.9549d8ff.Emscripten.clang"
	},
	"schemaVersion": "3.0.9",
	"updatedAt": "2019-05-21T06:22:09.217Z",
	"devdoc": {
		"methods": {
			"becomeHost(bytes32,uint8,bytes32,bytes32,string,string,string)": {
				"details": "Request node wants to become a distribution node after buying the content\tAlso, if this transaction succeeds, contract will release all of the earnings that are\tcurrently in escrow for content creator/host/The AO",
				"params": {
					"_baseChallengeR": "The R part of signature when signing the base challenge",
					"_baseChallengeS": "The S part of signature when signing the base challenge",
					"_baseChallengeV": "The V part of signature when signing the base challenge",
					"_contentDatKey": "The dat key of the content",
					"_encChallenge": "The encrypted challenge string (PUBLIC KEY) of the content unique to the host",
					"_metadataDatKey": "The dat key of the content's metadata",
					"_purchaseReceiptId": "The ID of the Purchase Receipt"
				}
			},
			"constructor": {
				"details": "Constructor function",
				"params": {
					"_aoContentAddress": "The address of AOContent",
					"_aoEarningAddress": "The address of AOEarning",
					"_aoPurchaseReceiptAddress": "The address of AOPurchaseReceipt",
					"_aoStakedContentAddress": "The address of AOStakedContent",
					"_nameFactoryAddress": "The address of NameFactory",
					"_nameTAOPositionAddress": "The address of NameTAOPosition"
				}
			},
			"contentHostPaidByAO(bytes32)": {
				"details": "Determine the how much the content is paid by AO given a contentHostId",
				"params": {
					"_contentHostId": "The content host ID to be checked"
				},
				"return": "the amount paid by AO"
			},
			"contentHostPrice(bytes32)": {
				"details": "Determine the content price hosted by a host",
				"params": {
					"_contentHostId": "The content host ID to be checked"
				},
				"return": "the price of the content"
			},
			"create(address,bytes32,string,string,string)": {
				"details": "Add the distribution node info that hosts the content",
				"params": {
					"_contentDatKey": "The dat key of the content",
					"_encChallenge": "The encrypted challenge string (PUBLIC KEY) of the content unique to the host",
					"_host": "the address of the host",
					"_metadataDatKey": "The dat key of the content's metadata",
					"_stakedContentId": "The ID of the staked content"
				},
				"return": "true on success"
			},
			"getById(bytes32)": {
				"details": "Return content host info at a given ID",
				"params": {
					"_contentHostId": "The ID of the hosted content"
				},
				"return": "The ID of the staked contentThe ID of the contentaddress of the hostthe dat key of the contentthe dat key of the content's metadata"
			},
			"isExist(bytes32)": {
				"details": "Check whether or not a contentHostId exist",
				"params": {
					"_contentHostId": "The content host ID to be checked"
				},
				"return": "true if yes, false otherwise"
			},
			"setAOContentAddress(address)": {
				"details": "The AO sets AOContent address",
				"params": {
					"_aoContentAddress": "The address of AOContent"
				}
			},
			"setAOEarningAddress(address)": {
				"details": "The AO sets AOEarning address",
				"params": {
					"_aoEarningAddress": "The address of AOEarning"
				}
			},
			"setAOPurchaseReceiptAddress(address)": {
				"details": "The AO sets AOPurchaseReceipt address",
				"params": {
					"_aoPurchaseReceiptAddress": "The address of AOPurchaseReceipt"
				}
			},
			"setAOStakedContentAddress(address)": {
				"details": "The AO sets AOStakedContent address",
				"params": {
					"_aoStakedContentAddress": "The address of AOStakedContent"
				}
			},
			"setNameFactoryAddress(address)": {
				"details": "The AO sets NameFactory address",
				"params": {
					"_nameFactoryAddress": "The address of NameFactory"
				}
			},
			"setNameTAOPositionAddress(address)": {
				"details": "The AO sets NameTAOPosition address",
				"params": {
					"_nameTAOPositionAddress": "The address of NameTAOPosition"
				}
			},
			"setWhitelist(address,bool)": {
				"details": "Whitelist `_account` address to transact on behalf of others",
				"params": {
					"_account": "The address to whitelist",
					"_whitelist": "Either to whitelist or not"
				}
			},
			"transferOwnership(address)": {
				"details": "Transfer ownership of The AO to new address",
				"params": {
					"_theAO": "The new address to be transferred"
				}
			}
		},
		"title": "AOContentHost"
	},
	"userdoc": {
		"methods": {}
	}
}