{
	"contractName": "AOContent",
	"abi": [
		{
			"constant": true,
			"inputs": [],
			"name": "aoSettingAddress",
			"outputs": [
				{
					"name": "",
					"type": "address"
				}
			],
			"payable": false,
			"stateMutability": "view",
			"type": "function",
			"signature": "0x1d0138ff"
		},
		{
			"constant": true,
			"inputs": [],
			"name": "totalContents",
			"outputs": [
				{
					"name": "",
					"type": "uint256"
				}
			],
			"payable": false,
			"stateMutability": "view",
			"type": "function",
			"signature": "0x3848627b"
		},
		{
			"constant": true,
			"inputs": [],
			"name": "nameTAOPositionAddress",
			"outputs": [
				{
					"name": "",
					"type": "address"
				}
			],
			"payable": false,
			"stateMutability": "view",
			"type": "function",
			"signature": "0x4ef033f0"
		},
		{
			"constant": true,
			"inputs": [
				{
					"name": "",
					"type": "address"
				}
			],
			"name": "whitelist",
			"outputs": [
				{
					"name": "",
					"type": "bool"
				}
			],
			"payable": false,
			"stateMutability": "view",
			"type": "function",
			"signature": "0x9b19251a"
		},
		{
			"constant": true,
			"inputs": [],
			"name": "theAO",
			"outputs": [
				{
					"name": "",
					"type": "address"
				}
			],
			"payable": false,
			"stateMutability": "view",
			"type": "function",
			"signature": "0xa9b6b38e"
		},
		{
			"constant": true,
			"inputs": [],
			"name": "nameFactoryAddress",
			"outputs": [
				{
					"name": "",
					"type": "address"
				}
			],
			"payable": false,
			"stateMutability": "view",
			"type": "function",
			"signature": "0xbc406206"
		},
		{
			"constant": true,
			"inputs": [],
			"name": "settingTAOId",
			"outputs": [
				{
					"name": "",
					"type": "address"
				}
			],
			"payable": false,
			"stateMutability": "view",
			"type": "function",
			"signature": "0xe7c50185"
		},
		{
			"inputs": [
				{
					"name": "_settingTAOId",
					"type": "address"
				},
				{
					"name": "_aoSettingAddress",
					"type": "address"
				},
				{
					"name": "_nameFactoryAddress",
					"type": "address"
				},
				{
					"name": "_nameTAOPositionAddress",
					"type": "address"
				}
			],
			"payable": false,
			"stateMutability": "nonpayable",
			"type": "constructor",
			"signature": "constructor"
		},
		{
			"anonymous": false,
			"inputs": [
				{
					"indexed": true,
					"name": "creator",
					"type": "address"
				},
				{
					"indexed": true,
					"name": "contentId",
					"type": "bytes32"
				},
				{
					"indexed": false,
					"name": "fileSize",
					"type": "uint256"
				},
				{
					"indexed": false,
					"name": "contentUsageType",
					"type": "bytes32"
				}
			],
			"name": "StoreContent",
			"type": "event",
			"signature": "0xe57c42bf3a4425cef2daf5daea09e512a58183eac320e1480456a511a6afe7cd"
		},
		{
			"anonymous": false,
			"inputs": [
				{
					"indexed": true,
					"name": "contentId",
					"type": "bytes32"
				},
				{
					"indexed": true,
					"name": "taoId",
					"type": "address"
				},
				{
					"indexed": false,
					"name": "signer",
					"type": "address"
				},
				{
					"indexed": false,
					"name": "taoContentState",
					"type": "bytes32"
				}
			],
			"name": "UpdateTAOContentState",
			"type": "event",
			"signature": "0x0528e12829f4904634dd7bd06309457b4867ebd8bdf33ae6a8f6092a9a9461b9"
		},
		{
			"anonymous": false,
			"inputs": [
				{
					"indexed": true,
					"name": "creator",
					"type": "address"
				},
				{
					"indexed": true,
					"name": "contentId",
					"type": "bytes32"
				},
				{
					"indexed": false,
					"name": "newExtraData",
					"type": "string"
				}
			],
			"name": "SetExtraData",
			"type": "event",
			"signature": "0xccfac2e5e45c8af339b83af022e2d6072564ca42a312b0511d9fd022ebb2fdf7"
		},
		{
			"constant": false,
			"inputs": [
				{
					"name": "_theAO",
					"type": "address"
				}
			],
			"name": "transferOwnership",
			"outputs": [],
			"payable": false,
			"stateMutability": "nonpayable",
			"type": "function",
			"signature": "0xf2fde38b"
		},
		{
			"constant": false,
			"inputs": [
				{
					"name": "_account",
					"type": "address"
				},
				{
					"name": "_whitelist",
					"type": "bool"
				}
			],
			"name": "setWhitelist",
			"outputs": [],
			"payable": false,
			"stateMutability": "nonpayable",
			"type": "function",
			"signature": "0x53d6fd59"
		},
		{
			"constant": false,
			"inputs": [
				{
					"name": "_settingTAOId",
					"type": "address"
				}
			],
			"name": "setSettingTAOId",
			"outputs": [],
			"payable": false,
			"stateMutability": "nonpayable",
			"type": "function",
			"signature": "0xd6830af3"
		},
		{
			"constant": false,
			"inputs": [
				{
					"name": "_aoSettingAddress",
					"type": "address"
				}
			],
			"name": "setAOSettingAddress",
			"outputs": [],
			"payable": false,
			"stateMutability": "nonpayable",
			"type": "function",
			"signature": "0x06fd7088"
		},
		{
			"constant": false,
			"inputs": [
				{
					"name": "_nameFactoryAddress",
					"type": "address"
				}
			],
			"name": "setNameFactoryAddress",
			"outputs": [],
			"payable": false,
			"stateMutability": "nonpayable",
			"type": "function",
			"signature": "0x8c924361"
		},
		{
			"constant": false,
			"inputs": [
				{
					"name": "_nameTAOPositionAddress",
					"type": "address"
				}
			],
			"name": "setNameTAOPositionAddress",
			"outputs": [],
			"payable": false,
			"stateMutability": "nonpayable",
			"type": "function",
			"signature": "0x5cfaf2ef"
		},
		{
			"constant": false,
			"inputs": [
				{
					"name": "_creator",
					"type": "address"
				},
				{
					"name": "_baseChallenge",
					"type": "string"
				},
				{
					"name": "_fileSize",
					"type": "uint256"
				},
				{
					"name": "_contentUsageType",
					"type": "bytes32"
				},
				{
					"name": "_taoId",
					"type": "address"
				}
			],
			"name": "create",
			"outputs": [
				{
					"name": "",
					"type": "bytes32"
				}
			],
			"payable": false,
			"stateMutability": "nonpayable",
			"type": "function",
			"signature": "0xd0d9ca52"
		},
		{
			"constant": true,
			"inputs": [
				{
					"name": "_contentId",
					"type": "bytes32"
				}
			],
			"name": "getById",
			"outputs": [
				{
					"name": "",
					"type": "address"
				},
				{
					"name": "",
					"type": "uint256"
				},
				{
					"name": "",
					"type": "bytes32"
				},
				{
					"name": "",
					"type": "address"
				},
				{
					"name": "",
					"type": "bytes32"
				},
				{
					"name": "",
					"type": "uint8"
				},
				{
					"name": "",
					"type": "bytes32"
				},
				{
					"name": "",
					"type": "bytes32"
				},
				{
					"name": "",
					"type": "string"
				}
			],
			"payable": false,
			"stateMutability": "view",
			"type": "function",
			"signature": "0x2dff0d0d"
		},
		{
			"constant": true,
			"inputs": [
				{
					"name": "_contentId",
					"type": "bytes32"
				}
			],
			"name": "getBaseChallenge",
			"outputs": [
				{
					"name": "",
					"type": "string"
				}
			],
			"payable": false,
			"stateMutability": "view",
			"type": "function",
			"signature": "0x3486d8f6"
		},
		{
			"constant": false,
			"inputs": [
				{
					"name": "_contentId",
					"type": "bytes32"
				},
				{
					"name": "_taoId",
					"type": "address"
				},
				{
					"name": "_taoContentState",
					"type": "bytes32"
				},
				{
					"name": "_updateTAOContentStateV",
					"type": "uint8"
				},
				{
					"name": "_updateTAOContentStateR",
					"type": "bytes32"
				},
				{
					"name": "_updateTAOContentStateS",
					"type": "bytes32"
				}
			],
			"name": "updateTAOContentState",
			"outputs": [],
			"payable": false,
			"stateMutability": "nonpayable",
			"type": "function",
			"signature": "0x83b01a83"
		},
		{
			"constant": true,
			"inputs": [
				{
					"name": "_contentId",
					"type": "bytes32"
				}
			],
			"name": "isAOContentUsageType",
			"outputs": [
				{
					"name": "",
					"type": "bool"
				}
			],
			"payable": false,
			"stateMutability": "view",
			"type": "function",
			"signature": "0x65cf0ace"
		},
		{
			"constant": false,
			"inputs": [
				{
					"name": "_contentId",
					"type": "bytes32"
				},
				{
					"name": "_extraData",
					"type": "string"
				}
			],
			"name": "setExtraData",
			"outputs": [],
			"payable": false,
			"stateMutability": "nonpayable",
			"type": "function",
			"signature": "0x2d189a62"
		}
	],
	"bytecode": "0x60806040523480156200001157600080fd5b50604051608080620029ee833981018060405260808110156200003357600080fd5b5080516020820151604083015160609093015160008054600160a060020a03191633179055919290916200007084640100000000620000b6810204565b620000848364010000000062000249810204565b62000098826401000000006200034e810204565b620000ac8164010000000062000453810204565b5050505062000558565b600054600154604080517ff66afcac000000000000000000000000000000000000000000000000000000008152336004820152600160a060020a0393841660248201529290911660448301525173__AOLibrary_____________________________9163f66afcac916064808301926020929190829003018186803b1580156200013f57600080fd5b505af415801562000154573d6000803e3d6000fd5b505050506040513d60208110156200016b57600080fd5b505115156200017957600080fd5b604080517f2fca5414000000000000000000000000000000000000000000000000000000008152600160a060020a0383166004820152905173__AOLibrary_____________________________91632fca5414916024808301926020929190829003018186803b158015620001ed57600080fd5b505af415801562000202573d6000803e3d6000fd5b505050506040513d60208110156200021957600080fd5b505115156200022757600080fd5b60048054600160a060020a031916600160a060020a0392909216919091179055565b600054600154604080517ff66afcac000000000000000000000000000000000000000000000000000000008152336004820152600160a060020a0393841660248201529290911660448301525173__AOLibrary_____________________________9163f66afcac916064808301926020929190829003018186803b158015620002d257600080fd5b505af4158015620002e7573d6000803e3d6000fd5b505050506040513d6020811015620002fe57600080fd5b505115156200030c57600080fd5b600160a060020a03811615156200032257600080fd5b60058054600160a060020a03909216600160a060020a0319928316811790915560078054909216179055565b600054600154604080517ff66afcac000000000000000000000000000000000000000000000000000000008152336004820152600160a060020a0393841660248201529290911660448301525173__AOLibrary_____________________________9163f66afcac916064808301926020929190829003018186803b158015620003d757600080fd5b505af4158015620003ec573d6000803e3d6000fd5b505050506040513d60208110156200040357600080fd5b505115156200041157600080fd5b600160a060020a03811615156200042757600080fd5b60068054600160a060020a03909216600160a060020a0319928316811790915560088054909216179055565b600054600154604080517ff66afcac000000000000000000000000000000000000000000000000000000008152336004820152600160a060020a0393841660248201529290911660448301525173__AOLibrary_____________________________9163f66afcac916064808301926020929190829003018186803b158015620004dc57600080fd5b505af4158015620004f1573d6000803e3d6000fd5b505050506040513d60208110156200050857600080fd5b505115156200051657600080fd5b600160a060020a03811615156200052c57600080fd5b60018054600160a060020a03909216600160a060020a0319928316811790915560098054909216179055565b61248680620005686000396000f3fe608060405234801561001057600080fd5b506004361061013e576000357c01000000000000000000000000000000000000000000000000000000009004806365cf0ace116100ca578063bc4062061161008e578063bc40620614610507578063d0d9ca521461050f578063d6830af3146105a4578063e7c50185146105ca578063f2fde38b146105d25761013e565b806365cf0ace1461043b57806383b01a831461046c5780638c924361146104b35780639b19251a146104d9578063a9b6b38e146104ff5761013e565b80633486d8f6116101115780633486d8f6146103335780633848627b146103c55780634ef033f0146103df57806353d6fd59146103e75780635cfaf2ef146104155761013e565b806306fd7088146101435780631d0138ff1461016b5780632d189a621461018f5780632dff0d0d1461023c575b600080fd5b6101696004803603602081101561015957600080fd5b5035600160a060020a03166105f8565b005b6101736106ef565b60408051600160a060020a039092168252519081900360200190f35b610169600480360360408110156101a557600080fd5b813591908101906040810160208201356401000000008111156101c757600080fd5b8201836020820111156101d957600080fd5b803590602001918460018302840111640100000000831117156101fb57600080fd5b91908080601f0160208091040260200160405190810160405280939291908181526020018383808284376000920191909152509295506106fe945050505050565b6102596004803603602081101561025257600080fd5b50356108ba565b604051808a600160a060020a0316600160a060020a0316815260200189815260200188815260200187600160a060020a0316600160a060020a031681526020018681526020018560ff1660ff16815260200184815260200183815260200180602001828103825283818151815260200191508051906020019080838360005b838110156102f05781810151838201526020016102d8565b50505050905090810190601f16801561031d5780820380516001836020036101000a031916815260200191505b509a505050505050505050505060405180910390f35b6103506004803603602081101561034957600080fd5b5035610b01565b6040805160208082528351818301528351919283929083019185019080838360005b8381101561038a578181015183820152602001610372565b50505050905090810190601f1680156103b75780820380516001836020036101000a031916815260200191505b509250505060405180910390f35b6103cd610dba565b60408051918252519081900360200190f35b610173610dc0565b610169600480360360408110156103fd57600080fd5b50600160a060020a0381351690602001351515610dcf565b6101696004803603602081101561042b57600080fd5b5035600160a060020a0316610eb8565b6104586004803603602081101561045157600080fd5b5035610faf565b604080519115158252519081900360200190f35b610169600480360360c081101561048257600080fd5b50803590600160a060020a036020820135169060408101359060ff6060820135169060808101359060a00135611002565b610169600480360360208110156104c957600080fd5b5035600160a060020a031661127a565b610458600480360360208110156104ef57600080fd5b5035600160a060020a0316611371565b610173611386565b610173611395565b6103cd600480360360a081101561052557600080fd5b600160a060020a03823516919081019060408101602082013564010000000081111561055057600080fd5b82018360208201111561056257600080fd5b8035906020019184600183028401116401000000008311171561058457600080fd5b919350915080359060208101359060400135600160a060020a03166113a4565b610169600480360360208110156105ba57600080fd5b5035600160a060020a03166115af565b610173611731565b610169600480360360208110156105e857600080fd5b5035600160a060020a0316611740565b6000546001546040805160e260020a633d9abf2b028152336004820152600160a060020a0393841660248201529290911660448301525173__AOLibrary_____________________________9163f66afcac916064808301926020929190829003018186803b15801561066a57600080fd5b505af415801561067e573d6000803e3d6000fd5b505050506040513d602081101561069457600080fd5b505115156106a157600080fd5b600160a060020a03811615156106b657600080fd5b60058054600160a060020a0390921673ffffffffffffffffffffffffffffffffffffffff19928316811790915560078054909216179055565b600554600160a060020a031681565b6000828152600b60205260408120541161071757600080fd5b6000828152600b60209081526040808320548352600a82529182902060085483517f029b7d5300000000000000000000000000000000000000000000000000000000815233600482015293519193600160a060020a039091169263029b7d5392602480840193829003018186803b15801561079157600080fd5b505afa1580156107a5573d6000803e3d6000fd5b505050506040513d60208110156107bb57600080fd5b50516001820154600160a060020a039081169116146107d957600080fd5b81516107ee90600a83019060208501906122f6565b508054600180830154604080516020808252600a8701805460026000199782161561010002979097011695909504908201819052600160a060020a03909316937fccfac2e5e45c8af339b83af022e2d6072564ca42a312b0511d9fd022ebb2fdf7939092829190820190849080156108a75780601f1061087c576101008083540402835291602001916108a7565b820191906000526020600020905b81548152906001019060200180831161088a57829003601f168201915b50509250505060405180910390a3505050565b60008060008060008060008060606000600b60008c8152602001908152602001600020541115156108ea57600080fd5b6108f2612374565b60008b8152600b60209081526040808320548352600a82529182902082516101608101845281548152600180830154600160a060020a0316828501526002808401805487516101009482161594909402600019011691909104601f810186900486028301860187528083529295939493860193919290918301828280156109ba5780601f1061098f576101008083540402835291602001916109ba565b820191906000526020600020905b81548152906001019060200180831161099d57829003601f168201915b5050509183525050600382015460208083019190915260048301546040808401919091526005840154600160a060020a0316606084015260068401546080840152600784015460ff1660a0840152600884015460c0840152600984015460e0840152600a8401805482516002610100600184161581026000190190931604601f810186900486028201860190945283815294019392909190830182828015610aa35780601f10610a7857610100808354040283529160200191610aa3565b820191906000526020600020905b815481529060010190602001808311610a8657829003601f168201915b50505050508152505090508060200151816060015182608001518360a001518460c001518560e00151866101000151876101200151886101400151809050995099509950995099509950995099509950509193959799909294969850565b6000818152600b602052604081205460609110610b1d57600080fd5b610b25612374565b6000838152600b60209081526040808320548352600a82529182902082516101608101845281548152600180830154600160a060020a0316828501526002808401805487516101009482161594909402600019011691909104601f81018690048602830186018752808352929593949386019391929091830182828015610bed5780601f10610bc257610100808354040283529160200191610bed565b820191906000526020600020905b815481529060010190602001808311610bd057829003601f168201915b5050509183525050600382015460208083019190915260048301546040808401919091526005840154600160a060020a0316606084015260068401546080840152600784015460ff1660a0840152600884015460c0840152600984015460e0840152600a8401805482516002610100600184161581026000190190931604601f810186900486028201860190945283815294019392909190830182828015610cd65780601f10610cab57610100808354040283529160200191610cd6565b820191906000526020600020905b815481529060010190602001808311610cb957829003601f168201915b505050919092525050336000908152600260205260409020549192505060ff16151560011480610da55750600854604080517f029b7d530000000000000000000000000000000000000000000000000000000081523360048201529051600160a060020a039092169163029b7d5391602480820192602092909190829003018186803b158015610d6557600080fd5b505afa158015610d79573d6000803e3d6000fd5b505050506040513d6020811015610d8f57600080fd5b50516020820151600160a060020a039081169116145b1515610db057600080fd5b6040015192915050565b60035481565b600154600160a060020a031681565b6000546001546040805160e260020a633d9abf2b028152336004820152600160a060020a0393841660248201529290911660448301525173__AOLibrary_____________________________9163f66afcac916064808301926020929190829003018186803b158015610e4157600080fd5b505af4158015610e55573d6000803e3d6000fd5b505050506040513d6020811015610e6b57600080fd5b50511515610e7857600080fd5b600160a060020a0382161515610e8d57600080fd5b600160a060020a03919091166000908152600260205260409020805460ff1916911515919091179055565b6000546001546040805160e260020a633d9abf2b028152336004820152600160a060020a0393841660248201529290911660448301525173__AOLibrary_____________________________9163f66afcac916064808301926020929190829003018186803b158015610f2a57600080fd5b505af4158015610f3e573d6000803e3d6000fd5b505050506040513d6020811015610f5457600080fd5b50511515610f6157600080fd5b600160a060020a0381161515610f7657600080fd5b60018054600160a060020a0390921673ffffffffffffffffffffffffffffffffffffffff19928316811790915560098054909216179055565b6000818152600b60205260408120548110610fc957600080fd5b6000610fd361182d565b5050506000868152600b60209081526040808320548352600a9091529020600401549092149350505050919050565b6000868152600b60205260408120541161101b57600080fd5b604080517f2fca5414000000000000000000000000000000000000000000000000000000008152600160a060020a0387166004820152905173__AOLibrary_____________________________91632fca5414916024808301926020929190829003018186803b15801561108e57600080fd5b505af41580156110a2573d6000803e3d6000fd5b505050506040513d60208110156110b857600080fd5b505115156110c557600080fd5b6000806000806110d361182d565b95509550955095505050828814806110ea57508188145b806110f457508088145b15156110ff57600080fd5b600061110f8b8b8b8b8b8b611faa565b60008c8152600b60209081526040808320548352600a9091529020909150600160a060020a038216331480156111e057506009546005820154604080517fe2c8e54a000000000000000000000000000000000000000000000000000000008152600160a060020a03868116600483015292831660248201529051919092169163e2c8e54a916044808301926020929190829003018186803b1580156111b357600080fd5b505afa1580156111c7573d6000803e3d6000fd5b505050506040513d60208110156111dd57600080fd5b50515b15156111eb57600080fd5b600481015486146111fb57600080fd5b600681018a905560078101805460ff191660ff8b16179055600881018890556009810187905560408051600160a060020a038481168252602082018d90528251908e16928f927f0528e12829f4904634dd7bd06309457b4867ebd8bdf33ae6a8f6092a9a9461b9929081900390910190a3505050505050505050505050565b6000546001546040805160e260020a633d9abf2b028152336004820152600160a060020a0393841660248201529290911660448301525173__AOLibrary_____________________________9163f66afcac916064808301926020929190829003018186803b1580156112ec57600080fd5b505af4158015611300573d6000803e3d6000fd5b505050506040513d602081101561131657600080fd5b5051151561132357600080fd5b600160a060020a038116151561133857600080fd5b60068054600160a060020a0390921673ffffffffffffffffffffffffffffffffffffffff19928316811790915560088054909216179055565b60026020526000908152604090205460ff1681565b600054600160a060020a031681565b600654600160a060020a031681565b3360009081526002602052604081205460ff1615156001146113c557600080fd5b61140a8787878080601f016020809104026020016040519081016040528093929190818152602001838380828437600092019190915250899250889150879050612075565b151561141557600080fd5b60038054600190810191829055604080516c01000000000000000000000000308102602080840191909152600160a060020a03808e169092026034840152604880840187905284518085039091018152606890930184528251928101929092206000958652600a9092529190932091820154161561149257600080fd5b60008061149d61182d565b50509350935050508383600001819055508a8360010160006101000a815481600160a060020a030219169083600160a060020a0316021790555089898460020191906114ea9291906123cf565b50600383018890556004830187905581871415611533576006830181905560058301805473ffffffffffffffffffffffffffffffffffffffff1916600160a060020a0388161790555b600380546000868152600b6020908152604091829020929092558554600187015493870154600488015483519182529381019390935281519093600160a060020a0316927fe57c42bf3a4425cef2daf5daea09e512a58183eac320e1480456a511a6afe7cd92908290030190a350505498975050505050505050565b6000546001546040805160e260020a633d9abf2b028152336004820152600160a060020a0393841660248201529290911660448301525173__AOLibrary_____________________________9163f66afcac916064808301926020929190829003018186803b15801561162157600080fd5b505af4158015611635573d6000803e3d6000fd5b505050506040513d602081101561164b57600080fd5b5051151561165857600080fd5b604080517f2fca5414000000000000000000000000000000000000000000000000000000008152600160a060020a0383166004820152905173__AOLibrary_____________________________91632fca5414916024808301926020929190829003018186803b1580156116cb57600080fd5b505af41580156116df573d6000803e3d6000fd5b505050506040513d60208110156116f557600080fd5b5051151561170257600080fd5b6004805473ffffffffffffffffffffffffffffffffffffffff1916600160a060020a0392909216919091179055565b600454600160a060020a031681565b6000546001546040805160e260020a633d9abf2b028152336004820152600160a060020a0393841660248201529290911660448301525173__AOLibrary_____________________________9163f66afcac916064808301926020929190829003018186803b1580156117b257600080fd5b505af41580156117c6573d6000803e3d6000fd5b505050506040513d60208110156117dc57600080fd5b505115156117e957600080fd5b600160a060020a03811615156117fe57600080fd5b6000805473ffffffffffffffffffffffffffffffffffffffff1916600160a060020a0392909216919091179055565b600754600480546040805160e260020a631c196fb7028152600160a060020a039283169381019390935260248301819052601a60448401527f636f6e74656e745573616765547970655f616f436f6e74656e7400000000000060648401525160009384938493849384938493849390911691637065bedc916084808201928692909190829003018186803b1580156118c457600080fd5b505afa1580156118d8573d6000803e3d6000fd5b505050506040513d6000823e601f3d908101601f1916820160405260a081101561190157600080fd5b81516020830151604084015160608501516080860180519496939592949193928301929164010000000081111561193757600080fd5b8201602081018481111561194a57600080fd5b815164010000000081118282018710171561196457600080fd5b5050600754600480546040805160e260020a631c196fb7028152600160a060020a039283169381019390935260248301819052602060448401527f636f6e74656e745573616765547970655f6372656174697665436f6d6d6f6e73606484015251979b5060009a509091169750637065bedc96506084808201968a965094509084900301915082905086803b1580156119fc57600080fd5b505afa158015611a10573d6000803e3d6000fd5b505050506040513d6000823e601f3d908101601f1916820160405260a0811015611a3957600080fd5b815160208301516040840151606085015160808601805194969395929491939283019291640100000000811115611a6f57600080fd5b82016020810184811115611a8257600080fd5b8151640100000000811182820187101715611a9c57600080fd5b5050600754600480546040805160e260020a631c196fb7028152600160a060020a039283169381019390935260248301819052601b60448401527f636f6e74656e745573616765547970655f74616f436f6e74656e740000000000606484015251979b5060009a509091169750637065bedc96506084808201968a965094509084900301915082905086803b158015611b3457600080fd5b505afa158015611b48573d6000803e3d6000fd5b505050506040513d6000823e601f3d908101601f1916820160405260a0811015611b7157600080fd5b815160208301516040840151606085015160808601805194969395929491939283019291640100000000811115611ba757600080fd5b82016020810184811115611bba57600080fd5b8151640100000000811182820187101715611bd457600080fd5b5050600754600480546040805160e260020a631c196fb7028152600160a060020a039283169381019390935260248301819052601960448401527f74616f436f6e74656e7453746174655f7375626d697474656400000000000000606484015251979b5060009a509091169750637065bedc96506084808201968a965094509084900301915082905086803b158015611c6c57600080fd5b505afa158015611c80573d6000803e3d6000fd5b505050506040513d6000823e601f3d908101601f1916820160405260a0811015611ca957600080fd5b815160208301516040840151606085015160808601805194969395929491939283019291640100000000811115611cdf57600080fd5b82016020810184811115611cf257600080fd5b8151640100000000811182820187101715611d0c57600080fd5b5050600754600480546040805160e260020a631c196fb7028152600160a060020a039283169381019390935260248301819052601d60448401527f74616f436f6e74656e7453746174655f70656e64696e67526576696577000000606484015251979b5060009a509091169750637065bedc96506084808201968a965094509084900301915082905086803b158015611da457600080fd5b505afa158015611db8573d6000803e3d6000fd5b505050506040513d6000823e601f3d908101601f1916820160405260a0811015611de157600080fd5b815160208301516040840151606085015160808601805194969395929491939283019291640100000000811115611e1757600080fd5b82016020810184811115611e2a57600080fd5b8151640100000000811182820187101715611e4457600080fd5b5050600754600480546040805160e260020a631c196fb7028152600160a060020a039283169381019390935260248301819052601d60448401527f74616f436f6e74656e7453746174655f6163636570746564546f54414f000000606484015251979b5060009a509091169750637065bedc96506084808201968a965094509084900301915082905086803b158015611edc57600080fd5b505afa158015611ef0573d6000803e3d6000fd5b505050506040513d6000823e601f3d908101601f1916820160405260a0811015611f1957600080fd5b815160208301516040840151606085015160808601805194969395929491939283019291640100000000811115611f4f57600080fd5b82016020810184811115611f6257600080fd5b8151640100000000811182820187101715611f7c57600080fd5b50509291905050505093505050508585858585859b509b509b509b509b509b50505050505050909192939495565b604080516c01000000000000000000000000308102602080840191909152603483018a9052600160a060020a03891690910260548301526068808301889052835180840390910181526088830180855281519183019190912060009182905260a8840180865281905260ff881660c885015260e8840187905261010884018690529351909392600192610128808301939192601f198301929081900390910190855afa15801561205e573d6000803e3d6000fd5b5050604051601f1901519998505050505050505050565b60008060008061208361182d565b5093965091945092505050600160a060020a038916158015906121415750604080517f2d706a34000000000000000000000000000000000000000000000000000000008152600160a060020a038b166004820152905173__AOLibrary_____________________________91632d706a34916024808301926020929190829003018186803b15801561211457600080fd5b505af4158015612128573d6000803e3d6000fd5b505050506040513d602081101561213e57600080fd5b50515b801561214e575060008851115b801561215a5750600087115b801561217857508286148061216e57508186145b8061217857508086145b80156122e9575080861415806122e9575080861480156121a05750600160a060020a03851615155b80156122475750604080517f2fca5414000000000000000000000000000000000000000000000000000000008152600160a060020a0387166004820152905173__AOLibrary_____________________________91632fca5414916024808301926020929190829003018186803b15801561221a57600080fd5b505af415801561222e573d6000803e3d6000fd5b505050506040513d602081101561224457600080fd5b50515b80156122e95750600954604080517f473f1e4d000000000000000000000000000000000000000000000000000000008152600160a060020a038c8116600483015288811660248301529151919092169163473f1e4d916044808301926020929190829003018186803b1580156122bc57600080fd5b505afa1580156122d0573d6000803e3d6000fd5b505050506040513d60208110156122e657600080fd5b50515b9998505050505050505050565b828054600181600116156101000203166002900490600052602060002090601f016020900481019282601f1061233757805160ff1916838001178555612364565b82800160010185558215612364579182015b82811115612364578251825591602001919060010190612349565b5061237092915061243d565b5090565b604080516101608101825260008082526020820181905260609282018390528282018190526080820181905260a0820181905260c0820181905260e08201819052610100820181905261012082015261014081019190915290565b828054600181600116156101000203166002900490600052602060002090601f016020900481019282601f106124105782800160ff19823516178555612364565b82800160010185558215612364579182015b82811115612364578235825591602001919060010190612422565b61245791905b808211156123705760008155600101612443565b9056fea165627a7a72305820da2dafb2037da0a1bfd19ee1c313cf2b3cb0ce84295abc0fae904cfba30445d00029",
	"source": "pragma solidity >=0.5.4 <0.6.0;\n\nimport './AOLibrary.sol';\nimport './TheAO.sol';\nimport './IAOContent.sol';\nimport './IAOSetting.sol';\nimport './INameFactory.sol';\nimport './INameTAOPosition.sol';\n\n/**\n * @title AOContent\n */\ncontract AOContent is TheAO, IAOContent {\n\tuint256 public totalContents;\n\taddress public settingTAOId;\n\taddress public aoSettingAddress;\n\taddress public nameFactoryAddress;\n\n\tIAOSetting internal _aoSetting;\n\tINameFactory internal _nameFactory;\n\tINameTAOPosition internal _nameTAOPosition;\n\n\tstruct Content {\n\t\tbytes32 contentId;\n\t\taddress creator;\n\t\t/**\n\t\t * baseChallenge is the content's PUBLIC KEY\n\t\t * When a request node wants to be a host, it is required to send a signed base challenge (its content's PUBLIC KEY)\n\t\t * so that the contract can verify the authenticity of the content by comparing what the contract has and what the request node\n\t\t * submit\n\t\t */\n\t\tstring baseChallenge;\n\t\tuint256 fileSize;\n\t\tbytes32 contentUsageType; // i.e AO Content, Creative Commons, or T(AO) Content\n\t\taddress taoId;\n\t\tbytes32 taoContentState; // i.e Submitted, Pending Review, Accepted to TAO\n\t\tuint8 updateTAOContentStateV;\n\t\tbytes32 updateTAOContentStateR;\n\t\tbytes32 updateTAOContentStateS;\n\t\tstring extraData;\n\t}\n\n\t// Mapping from Content index to the Content object\n\tmapping (uint256 => Content) internal contents;\n\n\t// Mapping from content ID to index of the contents list\n\tmapping (bytes32 => uint256) internal contentIndex;\n\n\t// Event to be broadcasted to public when `content` is stored\n\tevent StoreContent(address indexed creator, bytes32 indexed contentId, uint256 fileSize, bytes32 contentUsageType);\n\n\t// Event to be broadcasted to public when Advocate/Listener/Speaker wants to update the TAO Content's State\n\tevent UpdateTAOContentState(bytes32 indexed contentId, address indexed taoId, address signer, bytes32 taoContentState);\n\n\t// Event to be broadcasted to public when content creator updates the content's extra data\n\tevent SetExtraData(address indexed creator, bytes32 indexed contentId, string newExtraData);\n\n\t/**\n\t * @dev Constructor function\n\t * @param _settingTAOId The TAO ID that controls the setting\n\t * @param _aoSettingAddress The address of AOSetting\n\t * @param _nameFactoryAddress The address of NameFactory\n\t * @param _nameTAOPositionAddress The address of NameTAOPosition\n\t */\n\tconstructor(address _settingTAOId, address _aoSettingAddress, address _nameFactoryAddress, address _nameTAOPositionAddress) public {\n\t\tsetSettingTAOId(_settingTAOId);\n\t\tsetAOSettingAddress(_aoSettingAddress);\n\t\tsetNameFactoryAddress(_nameFactoryAddress);\n\t\tsetNameTAOPositionAddress(_nameTAOPositionAddress);\n\t}\n\n\t/**\n\t * @dev Checks if the calling contract address is The AO\n\t *\t\tOR\n\t *\t\tIf The AO is set to a Name/TAO, then check if calling address is the Advocate\n\t */\n\tmodifier onlyTheAO {\n\t\trequire (AOLibrary.isTheAO(msg.sender, theAO, nameTAOPositionAddress));\n\t\t_;\n\t}\n\n\t/***** The AO ONLY METHODS *****/\n\t/**\n\t * @dev Transfer ownership of The AO to new address\n\t * @param _theAO The new address to be transferred\n\t */\n\tfunction transferOwnership(address _theAO) public onlyTheAO {\n\t\trequire (_theAO != address(0));\n\t\ttheAO = _theAO;\n\t}\n\n\t/**\n\t * @dev Whitelist `_account` address to transact on behalf of others\n\t * @param _account The address to whitelist\n\t * @param _whitelist Either to whitelist or not\n\t */\n\tfunction setWhitelist(address _account, bool _whitelist) public onlyTheAO {\n\t\trequire (_account != address(0));\n\t\twhitelist[_account] = _whitelist;\n\t}\n\n\t/**\n\t * @dev The AO sets setting TAO ID\n\t * @param _settingTAOId The new setting TAO ID to set\n\t */\n\tfunction setSettingTAOId(address _settingTAOId) public onlyTheAO {\n\t\trequire (AOLibrary.isTAO(_settingTAOId));\n\t\tsettingTAOId = _settingTAOId;\n\t}\n\n\t/**\n\t * @dev The AO sets AO Setting address\n\t * @param _aoSettingAddress The address of AOSetting\n\t */\n\tfunction setAOSettingAddress(address _aoSettingAddress) public onlyTheAO {\n\t\trequire (_aoSettingAddress != address(0));\n\t\taoSettingAddress = _aoSettingAddress;\n\t\t_aoSetting = IAOSetting(_aoSettingAddress);\n\t}\n\n\t/**\n\t * @dev The AO sets NameFactory address\n\t * @param _nameFactoryAddress The address of NameFactory\n\t */\n\tfunction setNameFactoryAddress(address _nameFactoryAddress) public onlyTheAO {\n\t\trequire (_nameFactoryAddress != address(0));\n\t\tnameFactoryAddress = _nameFactoryAddress;\n\t\t_nameFactory = INameFactory(_nameFactoryAddress);\n\t}\n\n\t/**\n\t * @dev The AO sets NameTAOPosition address\n\t * @param _nameTAOPositionAddress The address of NameTAOPosition\n\t */\n\tfunction setNameTAOPositionAddress(address _nameTAOPositionAddress) public onlyTheAO {\n\t\trequire (_nameTAOPositionAddress != address(0));\n\t\tnameTAOPositionAddress = _nameTAOPositionAddress;\n\t\t_nameTAOPosition = INameTAOPosition(_nameTAOPositionAddress);\n\t}\n\n\t/***** PUBLIC METHODS *****/\n\t/**\n\t * @dev Store the content information (content creation during staking)\n\t * @param _creator the address of the content creator\n\t * @param _baseChallenge The base challenge string (PUBLIC KEY) of the content\n\t * @param _fileSize The size of the file\n\t * @param _contentUsageType The content usage type, i.e AO Content, Creative Commons, or T(AO) Content\n\t * @param _taoId The TAO (TAO) ID for this content (if this is a T(AO) Content)\n\t * @return the ID of the content\n\t */\n\tfunction create(address _creator,\n\t\tstring calldata _baseChallenge,\n\t\tuint256 _fileSize,\n\t\tbytes32 _contentUsageType,\n\t\taddress _taoId\n\t\t) external inWhitelist returns (bytes32) {\n\t\trequire (_canCreate(_creator, _baseChallenge, _fileSize, _contentUsageType, _taoId));\n\n\t\t// Increment totalContents\n\t\ttotalContents++;\n\n\t\t// Generate contentId\n\t\tbytes32 _contentId = keccak256(abi.encodePacked(this, _creator, totalContents));\n\t\tContent storage _content = contents[totalContents];\n\n\t\t// Make sure the node does't store the same content twice\n\t\trequire (_content.creator == address(0));\n\n\t\t(,,bytes32 contentUsageType_taoContent, bytes32 taoContentState_submitted,,) = _getSettingVariables();\n\n\t\t_content.contentId = _contentId;\n\t\t_content.creator = _creator;\n\t\t_content.baseChallenge = _baseChallenge;\n\t\t_content.fileSize = _fileSize;\n\t\t_content.contentUsageType = _contentUsageType;\n\n\t\t// If this is a TAO Content\n\t\tif (_contentUsageType == contentUsageType_taoContent) {\n\t\t\t_content.taoContentState = taoContentState_submitted;\n\t\t\t_content.taoId = _taoId;\n\t\t}\n\n\t\tcontentIndex[_contentId] = totalContents;\n\n\t\temit StoreContent(_content.creator, _content.contentId, _content.fileSize, _content.contentUsageType);\n\t\treturn _content.contentId;\n\t}\n\n\t/**\n\t * @dev Return content info at a given ID\n\t * @param _contentId The ID of the content\n\t * @return address of the creator\n\t * @return file size of the content\n\t * @return the content usage type, i.e AO Content, Creative Commons, or T(AO) Content\n\t * @return The TAO ID for this content (if this is a T(AO) Content)\n\t * @return The TAO Content state, i.e Submitted, Pending Review, or Accepted to TAO\n\t * @return The V part of signature that is used to update the TAO Content State\n\t * @return The R part of signature that is used to update the TAO Content State\n\t * @return The S part of signature that is used to update the TAO Content State\n\t * @return the extra information sent to the contract when creating a content\n\t */\n\tfunction getById(bytes32 _contentId) external view returns (address, uint256, bytes32, address, bytes32, uint8, bytes32, bytes32, string memory) {\n\t\t// Make sure the content exist\n\t\trequire (contentIndex[_contentId] > 0);\n\t\tContent memory _content = contents[contentIndex[_contentId]];\n\t\treturn (\n\t\t\t_content.creator,\n\t\t\t_content.fileSize,\n\t\t\t_content.contentUsageType,\n\t\t\t_content.taoId,\n\t\t\t_content.taoContentState,\n\t\t\t_content.updateTAOContentStateV,\n\t\t\t_content.updateTAOContentStateR,\n\t\t\t_content.updateTAOContentStateS,\n\t\t\t_content.extraData\n\t\t);\n\t}\n\n\t/**\n\t * @dev Get content base challenge\n\t * @param _contentId The ID of the content\n\t * @return the base challenge\n\t */\n\tfunction getBaseChallenge(bytes32 _contentId) external view returns (string memory) {\n\t\t// Make sure the content exist\n\t\trequire (contentIndex[_contentId] > 0);\n\t\tContent memory _content = contents[contentIndex[_contentId]];\n\t\trequire (whitelist[msg.sender] == true || _content.creator == _nameFactory.ethAddressToNameId(msg.sender));\n\t\treturn _content.baseChallenge;\n\t}\n\n\t/**\n\t * @dev Update the TAO Content State of a T(AO) Content\n\t * @param _contentId The ID of the Content\n\t * @param _taoId The ID of the TAO that initiates the update\n\t * @param _taoContentState The TAO Content state value, i.e Submitted, Pending Review, or Accepted to TAO\n\t * @param _updateTAOContentStateV The V part of the signature for this update\n\t * @param _updateTAOContentStateR The R part of the signature for this update\n\t * @param _updateTAOContentStateS The S part of the signature for this update\n\t */\n\tfunction updateTAOContentState(\n\t\tbytes32 _contentId,\n\t\taddress _taoId,\n\t\tbytes32 _taoContentState,\n\t\tuint8 _updateTAOContentStateV,\n\t\tbytes32 _updateTAOContentStateR,\n\t\tbytes32 _updateTAOContentStateS\n\t) public {\n\t\t// Make sure the content exist\n\t\trequire (contentIndex[_contentId] > 0);\n\t\trequire (AOLibrary.isTAO(_taoId));\n\t\t(,, bytes32 _contentUsageType_taoContent, bytes32 taoContentState_submitted, bytes32 taoContentState_pendingReview, bytes32 taoContentState_acceptedToTAO) = _getSettingVariables();\n\t\trequire (_taoContentState == taoContentState_submitted || _taoContentState == taoContentState_pendingReview || _taoContentState == taoContentState_acceptedToTAO);\n\n\t\taddress _signatureAddress = _getUpdateTAOContentStateSignatureAddress(_contentId, _taoId, _taoContentState, _updateTAOContentStateV, _updateTAOContentStateR, _updateTAOContentStateS);\n\n\t\tContent storage _content = contents[contentIndex[_contentId]];\n\t\t// Make sure that the signature address is one of content's TAO ID's Advocate/Listener/Speaker\n\t\trequire (_signatureAddress == msg.sender && _nameTAOPosition.senderIsPosition(_signatureAddress, _content.taoId));\n\t\trequire (_content.contentUsageType == _contentUsageType_taoContent);\n\n\t\t_content.taoContentState = _taoContentState;\n\t\t_content.updateTAOContentStateV = _updateTAOContentStateV;\n\t\t_content.updateTAOContentStateR = _updateTAOContentStateR;\n\t\t_content.updateTAOContentStateS = _updateTAOContentStateS;\n\n\t\temit UpdateTAOContentState(_contentId, _taoId, _signatureAddress, _taoContentState);\n\t}\n\n\t/**\n\t * @dev Check whether or not the content is of AO Content Usage Type\n\t * @param _contentId The ID of the content\n\t * @return true if yes. false otherwise\n\t */\n\tfunction isAOContentUsageType(bytes32 _contentId) external view returns (bool) {\n\t\trequire (contentIndex[_contentId] > 0);\n\t\t(bytes32 _contentUsageType_aoContent,,,,,) = _getSettingVariables();\n\t\treturn contents[contentIndex[_contentId]].contentUsageType == _contentUsageType_aoContent;\n\t}\n\n\t/**\n\t * @dev Set extra data on existing content\n\t * @param _contentId The ID of the content\n\t * @param _extraData some extra information to send to the contract for a content\n\t */\n\tfunction setExtraData(bytes32 _contentId, string memory _extraData) public {\n\t\t// Make sure the content exist\n\t\trequire (contentIndex[_contentId] > 0);\n\n\t\tContent storage _content = contents[contentIndex[_contentId]];\n\t\t// Make sure the content creator is the same as the sender\n\t\trequire (_content.creator == _nameFactory.ethAddressToNameId(msg.sender));\n\n\t\t_content.extraData = _extraData;\n\n\t\temit SetExtraData(_content.creator, _content.contentId, _content.extraData);\n\t}\n\n\t/***** INTERNAL METHODS *****/\n\t/**\n\t * @dev Checks if create params are valid\n\t * @param _creator the address of the content creator\n\t * @param _baseChallenge The base challenge string (PUBLIC KEY) of the content\n\t * @param _fileSize The size of the file\n\t * @param _contentUsageType The content usage type, i.e AO Content, Creative Commons, or T(AO) Content\n\t * @param _taoId The TAO (TAO) ID for this content (if this is a T(AO) Content)\n\t * @return true if yes. false otherwise\n\t */\n\tfunction _canCreate(address _creator, string memory _baseChallenge, uint256 _fileSize, bytes32 _contentUsageType, address _taoId) internal view returns (bool) {\n\t\t(bytes32 aoContent, bytes32 creativeCommons, bytes32 taoContent,,,) = _getSettingVariables();\n\t\treturn (_creator != address(0) &&\n\t\t\tAOLibrary.isName(_creator) &&\n\t\t\tbytes(_baseChallenge).length > 0 &&\n\t\t\t_fileSize > 0 &&\n\t\t\t(_contentUsageType == aoContent || _contentUsageType == creativeCommons || _contentUsageType == taoContent) &&\n\t\t\t(\n\t\t\t\t_contentUsageType != taoContent ||\n\t\t\t\t(_contentUsageType == taoContent && _taoId != address(0) && AOLibrary.isTAO(_taoId) && _nameTAOPosition.nameIsPosition(_creator, _taoId))\n\t\t\t)\n\t\t);\n\t}\n\n\t/**\n\t * @dev Get setting variables\n\t * @return contentUsageType_aoContent Content Usage Type = AO Content\n\t * @return contentUsageType_creativeCommons Content Usage Type = Creative Commons\n\t * @return contentUsageType_taoContent Content Usage Type = T(AO) Content\n\t * @return taoContentState_submitted TAO Content State = Submitted\n\t * @return taoContentState_pendingReview TAO Content State = Pending Review\n\t * @return taoContentState_acceptedToTAO TAO Content State = Accepted to TAO\n\t */\n\tfunction _getSettingVariables() internal view returns (bytes32, bytes32, bytes32, bytes32, bytes32, bytes32) {\n\t\t(,,,bytes32 contentUsageType_aoContent,) = _aoSetting.getSettingValuesByTAOName(settingTAOId, 'contentUsageType_aoContent');\n\t\t(,,,bytes32 contentUsageType_creativeCommons,) = _aoSetting.getSettingValuesByTAOName(settingTAOId, 'contentUsageType_creativeCommons');\n\t\t(,,,bytes32 contentUsageType_taoContent,) = _aoSetting.getSettingValuesByTAOName(settingTAOId, 'contentUsageType_taoContent');\n\t\t(,,,bytes32 taoContentState_submitted,) = _aoSetting.getSettingValuesByTAOName(settingTAOId, 'taoContentState_submitted');\n\t\t(,,,bytes32 taoContentState_pendingReview,) = _aoSetting.getSettingValuesByTAOName(settingTAOId, 'taoContentState_pendingReview');\n\t\t(,,,bytes32 taoContentState_acceptedToTAO,) = _aoSetting.getSettingValuesByTAOName(settingTAOId, 'taoContentState_acceptedToTAO');\n\n\t\treturn (\n\t\t\tcontentUsageType_aoContent,\n\t\t\tcontentUsageType_creativeCommons,\n\t\t\tcontentUsageType_taoContent,\n\t\t\ttaoContentState_submitted,\n\t\t\ttaoContentState_pendingReview,\n\t\t\ttaoContentState_acceptedToTAO\n\t\t);\n\t}\n\n\t/**\n\t * @dev Return the address that signed the TAO content state update\n\t * @param _contentId the ID of the content\n\t * @param _taoId the ID of the TAO\n\t * @param _taoContentState the TAO Content State value, i.e Submitted, Pending Review, or Accepted to TAO\n\t * @param _v part of the signature\n\t * @param _r part of the signature\n\t * @param _s part of the signature\n\t * @return the address that signed the message\n\t */\n\tfunction _getUpdateTAOContentStateSignatureAddress(bytes32 _contentId, address _taoId, bytes32 _taoContentState, uint8 _v, bytes32 _r, bytes32 _s) internal view returns (address) {\n\t\tbytes32 _hash = keccak256(abi.encodePacked(address(this), _contentId, _taoId, _taoContentState));\n\t\treturn ecrecover(_hash, _v, _r, _s);\n\t}\n}\n",
	"sourcePath": "/home/jmulyono/ao-contracts/contracts/AOContent.sol",
	"compiler": {
		"name": "solc",
		"version": "0.5.4+commit.9549d8ff.Emscripten.clang"
	},
	"schemaVersion": "3.0.2",
	"updatedAt": "2019-05-15T08:20:35.692Z",
	"devdoc": {
		"methods": {
			"constructor": {
				"details": "Constructor function",
				"params": {
					"_aoSettingAddress": "The address of AOSetting",
					"_nameFactoryAddress": "The address of NameFactory",
					"_nameTAOPositionAddress": "The address of NameTAOPosition",
					"_settingTAOId": "The TAO ID that controls the setting"
				}
			},
			"create(address,string,uint256,bytes32,address)": {
				"details": "Store the content information (content creation during staking)",
				"params": {
					"_baseChallenge": "The base challenge string (PUBLIC KEY) of the content",
					"_contentUsageType": "The content usage type, i.e AO Content, Creative Commons, or T(AO) Content",
					"_creator": "the address of the content creator",
					"_fileSize": "The size of the file",
					"_taoId": "The TAO (TAO) ID for this content (if this is a T(AO) Content)"
				},
				"return": "the ID of the content"
			},
			"getBaseChallenge(bytes32)": {
				"details": "Get content base challenge",
				"params": {
					"_contentId": "The ID of the content"
				},
				"return": "the base challenge"
			},
			"getById(bytes32)": {
				"details": "Return content info at a given ID",
				"params": {
					"_contentId": "The ID of the content"
				},
				"return": "address of the creatorfile size of the contentthe content usage type, i.e AO Content, Creative Commons, or T(AO) ContentThe TAO ID for this content (if this is a T(AO) Content)The TAO Content state, i.e Submitted, Pending Review, or Accepted to TAOThe V part of signature that is used to update the TAO Content StateThe R part of signature that is used to update the TAO Content StateThe S part of signature that is used to update the TAO Content Statethe extra information sent to the contract when creating a content"
			},
			"isAOContentUsageType(bytes32)": {
				"details": "Check whether or not the content is of AO Content Usage Type",
				"params": {
					"_contentId": "The ID of the content"
				},
				"return": "true if yes. false otherwise"
			},
			"setAOSettingAddress(address)": {
				"details": "The AO sets AO Setting address",
				"params": {
					"_aoSettingAddress": "The address of AOSetting"
				}
			},
			"setExtraData(bytes32,string)": {
				"details": "Set extra data on existing content",
				"params": {
					"_contentId": "The ID of the content",
					"_extraData": "some extra information to send to the contract for a content"
				}
			},
			"setNameFactoryAddress(address)": {
				"details": "The AO sets NameFactory address",
				"params": {
					"_nameFactoryAddress": "The address of NameFactory"
				}
			},
			"setNameTAOPositionAddress(address)": {
				"details": "The AO sets NameTAOPosition address",
				"params": {
					"_nameTAOPositionAddress": "The address of NameTAOPosition"
				}
			},
			"setSettingTAOId(address)": {
				"details": "The AO sets setting TAO ID",
				"params": {
					"_settingTAOId": "The new setting TAO ID to set"
				}
			},
			"setWhitelist(address,bool)": {
				"details": "Whitelist `_account` address to transact on behalf of others",
				"params": {
					"_account": "The address to whitelist",
					"_whitelist": "Either to whitelist or not"
				}
			},
			"transferOwnership(address)": {
				"details": "Transfer ownership of The AO to new address",
				"params": {
					"_theAO": "The new address to be transferred"
				}
			},
			"updateTAOContentState(bytes32,address,bytes32,uint8,bytes32,bytes32)": {
				"details": "Update the TAO Content State of a T(AO) Content",
				"params": {
					"_contentId": "The ID of the Content",
					"_taoContentState": "The TAO Content state value, i.e Submitted, Pending Review, or Accepted to TAO",
					"_taoId": "The ID of the TAO that initiates the update",
					"_updateTAOContentStateR": "The R part of the signature for this update",
					"_updateTAOContentStateS": "The S part of the signature for this update",
					"_updateTAOContentStateV": "The V part of the signature for this update"
				}
			}
		},
		"title": "AOContent"
	},
	"userdoc": {
		"methods": {}
	}
}