{
	"contractName": "AOContent",
	"abi": [
		{
			"constant": true,
			"inputs": [],
			"name": "killed",
			"outputs": [
				{
					"name": "",
					"type": "bool"
				}
			],
			"payable": false,
			"stateMutability": "view",
			"type": "function"
		},
		{
			"constant": true,
			"inputs": [],
			"name": "totalStakedContents",
			"outputs": [
				{
					"name": "",
					"type": "uint256"
				}
			],
			"payable": false,
			"stateMutability": "view",
			"type": "function"
		},
		{
			"constant": true,
			"inputs": [],
			"name": "totalContents",
			"outputs": [
				{
					"name": "",
					"type": "uint256"
				}
			],
			"payable": false,
			"stateMutability": "view",
			"type": "function"
		},
		{
			"constant": true,
			"inputs": [],
			"name": "nameTAOPositionAddress",
			"outputs": [
				{
					"name": "",
					"type": "address"
				}
			],
			"payable": false,
			"stateMutability": "view",
			"type": "function"
		},
		{
			"constant": true,
			"inputs": [],
			"name": "paused",
			"outputs": [
				{
					"name": "",
					"type": "bool"
				}
			],
			"payable": false,
			"stateMutability": "view",
			"type": "function"
		},
		{
			"constant": true,
			"inputs": [
				{
					"name": "",
					"type": "address"
				}
			],
			"name": "whitelist",
			"outputs": [
				{
					"name": "",
					"type": "bool"
				}
			],
			"payable": false,
			"stateMutability": "view",
			"type": "function"
		},
		{
			"constant": true,
			"inputs": [],
			"name": "theAO",
			"outputs": [
				{
					"name": "",
					"type": "address"
				}
			],
			"payable": false,
			"stateMutability": "view",
			"type": "function"
		},
		{
			"constant": true,
			"inputs": [],
			"name": "baseDenominationAddress",
			"outputs": [
				{
					"name": "",
					"type": "address"
				}
			],
			"payable": false,
			"stateMutability": "view",
			"type": "function"
		},
		{
			"constant": true,
			"inputs": [],
			"name": "treasuryAddress",
			"outputs": [
				{
					"name": "",
					"type": "address"
				}
			],
			"payable": false,
			"stateMutability": "view",
			"type": "function"
		},
		{
			"constant": true,
			"inputs": [],
			"name": "totalContentHosts",
			"outputs": [
				{
					"name": "",
					"type": "uint256"
				}
			],
			"payable": false,
			"stateMutability": "view",
			"type": "function"
		},
		{
			"constant": true,
			"inputs": [],
			"name": "settingTAOId",
			"outputs": [
				{
					"name": "",
					"type": "address"
				}
			],
			"payable": false,
			"stateMutability": "view",
			"type": "function"
		},
		{
			"constant": true,
			"inputs": [],
			"name": "totalPurchaseReceipts",
			"outputs": [
				{
					"name": "",
					"type": "uint256"
				}
			],
			"payable": false,
			"stateMutability": "view",
			"type": "function"
		},
		{
			"constant": true,
			"inputs": [
				{
					"name": "",
					"type": "address"
				},
				{
					"name": "",
					"type": "bytes32"
				}
			],
			"name": "buyerPurchaseReceipts",
			"outputs": [
				{
					"name": "",
					"type": "bytes32"
				}
			],
			"payable": false,
			"stateMutability": "view",
			"type": "function"
		},
		{
			"inputs": [
				{
					"name": "_settingTAOId",
					"type": "address"
				},
				{
					"name": "_aoSettingAddress",
					"type": "address"
				},
				{
					"name": "_baseDenominationAddress",
					"type": "address"
				},
				{
					"name": "_treasuryAddress",
					"type": "address"
				},
				{
					"name": "_earningAddress",
					"type": "address"
				},
				{
					"name": "_nameTAOPositionAddress",
					"type": "address"
				}
			],
			"payable": false,
			"stateMutability": "nonpayable",
			"type": "constructor"
		},
		{
			"anonymous": false,
			"inputs": [
				{
					"indexed": true,
					"name": "creator",
					"type": "address"
				},
				{
					"indexed": true,
					"name": "contentId",
					"type": "bytes32"
				},
				{
					"indexed": false,
					"name": "fileSize",
					"type": "uint256"
				},
				{
					"indexed": false,
					"name": "contentUsageType",
					"type": "bytes32"
				}
			],
			"name": "StoreContent",
			"type": "event"
		},
		{
			"anonymous": false,
			"inputs": [
				{
					"indexed": true,
					"name": "stakeOwner",
					"type": "address"
				},
				{
					"indexed": true,
					"name": "stakeId",
					"type": "bytes32"
				},
				{
					"indexed": true,
					"name": "contentId",
					"type": "bytes32"
				},
				{
					"indexed": false,
					"name": "baseNetworkAmount",
					"type": "uint256"
				},
				{
					"indexed": false,
					"name": "primordialAmount",
					"type": "uint256"
				},
				{
					"indexed": false,
					"name": "primordialWeightedMultiplier",
					"type": "uint256"
				},
				{
					"indexed": false,
					"name": "profitPercentage",
					"type": "uint256"
				},
				{
					"indexed": false,
					"name": "createdOnTimestamp",
					"type": "uint256"
				}
			],
			"name": "StakeContent",
			"type": "event"
		},
		{
			"anonymous": false,
			"inputs": [
				{
					"indexed": true,
					"name": "host",
					"type": "address"
				},
				{
					"indexed": true,
					"name": "contentHostId",
					"type": "bytes32"
				},
				{
					"indexed": false,
					"name": "stakeId",
					"type": "bytes32"
				},
				{
					"indexed": false,
					"name": "contentDatKey",
					"type": "string"
				},
				{
					"indexed": false,
					"name": "metadataDatKey",
					"type": "string"
				}
			],
			"name": "HostContent",
			"type": "event"
		},
		{
			"anonymous": false,
			"inputs": [
				{
					"indexed": true,
					"name": "stakeOwner",
					"type": "address"
				},
				{
					"indexed": true,
					"name": "stakeId",
					"type": "bytes32"
				},
				{
					"indexed": false,
					"name": "newProfitPercentage",
					"type": "uint256"
				}
			],
			"name": "SetProfitPercentage",
			"type": "event"
		},
		{
			"anonymous": false,
			"inputs": [
				{
					"indexed": true,
					"name": "stakeOwner",
					"type": "address"
				},
				{
					"indexed": true,
					"name": "stakeId",
					"type": "bytes32"
				},
				{
					"indexed": true,
					"name": "contentId",
					"type": "bytes32"
				},
				{
					"indexed": false,
					"name": "remainingNetworkAmount",
					"type": "uint256"
				},
				{
					"indexed": false,
					"name": "remainingPrimordialAmount",
					"type": "uint256"
				},
				{
					"indexed": false,
					"name": "primordialWeightedMultiplier",
					"type": "uint256"
				}
			],
			"name": "UnstakePartialContent",
			"type": "event"
		},
		{
			"anonymous": false,
			"inputs": [
				{
					"indexed": true,
					"name": "stakeOwner",
					"type": "address"
				},
				{
					"indexed": true,
					"name": "stakeId",
					"type": "bytes32"
				}
			],
			"name": "UnstakeContent",
			"type": "event"
		},
		{
			"anonymous": false,
			"inputs": [
				{
					"indexed": true,
					"name": "stakeOwner",
					"type": "address"
				},
				{
					"indexed": true,
					"name": "stakeId",
					"type": "bytes32"
				},
				{
					"indexed": true,
					"name": "contentId",
					"type": "bytes32"
				},
				{
					"indexed": false,
					"name": "currentNetworkAmount",
					"type": "uint256"
				},
				{
					"indexed": false,
					"name": "currentPrimordialAmount",
					"type": "uint256"
				},
				{
					"indexed": false,
					"name": "currentPrimordialWeightedMultiplier",
					"type": "uint256"
				}
			],
			"name": "StakeExistingContent",
			"type": "event"
		},
		{
			"anonymous": false,
			"inputs": [
				{
					"indexed": true,
					"name": "buyer",
					"type": "address"
				},
				{
					"indexed": true,
					"name": "purchaseId",
					"type": "bytes32"
				},
				{
					"indexed": true,
					"name": "contentHostId",
					"type": "bytes32"
				},
				{
					"indexed": false,
					"name": "price",
					"type": "uint256"
				},
				{
					"indexed": false,
					"name": "amountPaidByAO",
					"type": "uint256"
				},
				{
					"indexed": false,
					"name": "amountPaidByBuyer",
					"type": "uint256"
				},
				{
					"indexed": false,
					"name": "publicKey",
					"type": "string"
				},
				{
					"indexed": false,
					"name": "publicAddress",
					"type": "address"
				},
				{
					"indexed": false,
					"name": "createdOnTimestamp",
					"type": "uint256"
				}
			],
			"name": "BuyContent",
			"type": "event"
		},
		{
			"anonymous": false,
			"inputs": [
				{
					"indexed": true,
					"name": "contentId",
					"type": "bytes32"
				},
				{
					"indexed": true,
					"name": "taoId",
					"type": "address"
				},
				{
					"indexed": false,
					"name": "signer",
					"type": "address"
				},
				{
					"indexed": false,
					"name": "taoContentState",
					"type": "bytes32"
				}
			],
			"name": "UpdateTAOContentState",
			"type": "event"
		},
		{
			"anonymous": false,
			"inputs": [],
			"name": "EscapeHatch",
			"type": "event"
		},
		{
			"constant": false,
			"inputs": [
				{
					"name": "_theAO",
					"type": "address"
				}
			],
			"name": "transferOwnership",
			"outputs": [],
			"payable": false,
			"stateMutability": "nonpayable",
			"type": "function"
		},
		{
			"constant": false,
			"inputs": [
				{
					"name": "_account",
					"type": "address"
				},
				{
					"name": "_whitelist",
					"type": "bool"
				}
			],
			"name": "setWhitelist",
			"outputs": [],
			"payable": false,
			"stateMutability": "nonpayable",
			"type": "function"
		},
		{
			"constant": false,
			"inputs": [
				{
					"name": "_paused",
					"type": "bool"
				}
			],
			"name": "setPaused",
			"outputs": [],
			"payable": false,
			"stateMutability": "nonpayable",
			"type": "function"
		},
		{
			"constant": false,
			"inputs": [],
			"name": "escapeHatch",
			"outputs": [],
			"payable": false,
			"stateMutability": "nonpayable",
			"type": "function"
		},
		{
			"constant": false,
			"inputs": [
				{
					"name": "_newBaseDenominationAddress",
					"type": "address"
				}
			],
			"name": "setBaseDenominationAddress",
			"outputs": [],
			"payable": false,
			"stateMutability": "nonpayable",
			"type": "function"
		},
		{
			"constant": false,
			"inputs": [
				{
					"name": "_networkIntegerAmount",
					"type": "uint256"
				},
				{
					"name": "_networkFractionAmount",
					"type": "uint256"
				},
				{
					"name": "_denomination",
					"type": "bytes8"
				},
				{
					"name": "_primordialAmount",
					"type": "uint256"
				},
				{
					"name": "_baseChallenge",
					"type": "string"
				},
				{
					"name": "_encChallenge",
					"type": "string"
				},
				{
					"name": "_contentDatKey",
					"type": "string"
				},
				{
					"name": "_metadataDatKey",
					"type": "string"
				},
				{
					"name": "_fileSize",
					"type": "uint256"
				},
				{
					"name": "_profitPercentage",
					"type": "uint256"
				}
			],
			"name": "stakeAOContent",
			"outputs": [],
			"payable": false,
			"stateMutability": "nonpayable",
			"type": "function"
		},
		{
			"constant": false,
			"inputs": [
				{
					"name": "_networkIntegerAmount",
					"type": "uint256"
				},
				{
					"name": "_networkFractionAmount",
					"type": "uint256"
				},
				{
					"name": "_denomination",
					"type": "bytes8"
				},
				{
					"name": "_primordialAmount",
					"type": "uint256"
				},
				{
					"name": "_baseChallenge",
					"type": "string"
				},
				{
					"name": "_encChallenge",
					"type": "string"
				},
				{
					"name": "_contentDatKey",
					"type": "string"
				},
				{
					"name": "_metadataDatKey",
					"type": "string"
				},
				{
					"name": "_fileSize",
					"type": "uint256"
				}
			],
			"name": "stakeCreativeCommonsContent",
			"outputs": [],
			"payable": false,
			"stateMutability": "nonpayable",
			"type": "function"
		},
		{
			"constant": false,
			"inputs": [
				{
					"name": "_networkIntegerAmount",
					"type": "uint256"
				},
				{
					"name": "_networkFractionAmount",
					"type": "uint256"
				},
				{
					"name": "_denomination",
					"type": "bytes8"
				},
				{
					"name": "_primordialAmount",
					"type": "uint256"
				},
				{
					"name": "_baseChallenge",
					"type": "string"
				},
				{
					"name": "_encChallenge",
					"type": "string"
				},
				{
					"name": "_contentDatKey",
					"type": "string"
				},
				{
					"name": "_metadataDatKey",
					"type": "string"
				},
				{
					"name": "_fileSize",
					"type": "uint256"
				},
				{
					"name": "_taoId",
					"type": "address"
				}
			],
			"name": "stakeTAOContent",
			"outputs": [],
			"payable": false,
			"stateMutability": "nonpayable",
			"type": "function"
		},
		{
			"constant": false,
			"inputs": [
				{
					"name": "_stakeId",
					"type": "bytes32"
				},
				{
					"name": "_profitPercentage",
					"type": "uint256"
				}
			],
			"name": "setProfitPercentage",
			"outputs": [],
			"payable": false,
			"stateMutability": "nonpayable",
			"type": "function"
		},
		{
			"constant": false,
			"inputs": [
				{
					"name": "_contentId",
					"type": "bytes32"
				},
				{
					"name": "_extraData",
					"type": "string"
				}
			],
			"name": "setContentExtraData",
			"outputs": [],
			"payable": false,
			"stateMutability": "nonpayable",
			"type": "function"
		},
		{
			"constant": true,
			"inputs": [
				{
					"name": "_contentId",
					"type": "bytes32"
				}
			],
			"name": "contentById",
			"outputs": [
				{
					"name": "",
					"type": "address"
				},
				{
					"name": "",
					"type": "uint256"
				},
				{
					"name": "",
					"type": "bytes32"
				},
				{
					"name": "",
					"type": "address"
				},
				{
					"name": "",
					"type": "bytes32"
				},
				{
					"name": "",
					"type": "uint8"
				},
				{
					"name": "",
					"type": "bytes32"
				},
				{
					"name": "",
					"type": "bytes32"
				},
				{
					"name": "",
					"type": "string"
				}
			],
			"payable": false,
			"stateMutability": "view",
			"type": "function"
		},
		{
			"constant": true,
			"inputs": [
				{
					"name": "_contentHostId",
					"type": "bytes32"
				}
			],
			"name": "contentHostById",
			"outputs": [
				{
					"name": "",
					"type": "bytes32"
				},
				{
					"name": "",
					"type": "address"
				},
				{
					"name": "",
					"type": "string"
				},
				{
					"name": "",
					"type": "string"
				}
			],
			"payable": false,
			"stateMutability": "view",
			"type": "function"
		},
		{
			"constant": true,
			"inputs": [
				{
					"name": "_stakeId",
					"type": "bytes32"
				}
			],
			"name": "stakedContentById",
			"outputs": [
				{
					"name": "",
					"type": "bytes32"
				},
				{
					"name": "",
					"type": "address"
				},
				{
					"name": "",
					"type": "uint256"
				},
				{
					"name": "",
					"type": "uint256"
				},
				{
					"name": "",
					"type": "uint256"
				},
				{
					"name": "",
					"type": "uint256"
				},
				{
					"name": "",
					"type": "bool"
				},
				{
					"name": "",
					"type": "uint256"
				}
			],
			"payable": false,
			"stateMutability": "view",
			"type": "function"
		},
		{
			"constant": false,
			"inputs": [
				{
					"name": "_stakeId",
					"type": "bytes32"
				},
				{
					"name": "_networkIntegerAmount",
					"type": "uint256"
				},
				{
					"name": "_networkFractionAmount",
					"type": "uint256"
				},
				{
					"name": "_denomination",
					"type": "bytes8"
				},
				{
					"name": "_primordialAmount",
					"type": "uint256"
				}
			],
			"name": "unstakePartialContent",
			"outputs": [],
			"payable": false,
			"stateMutability": "nonpayable",
			"type": "function"
		},
		{
			"constant": false,
			"inputs": [
				{
					"name": "_stakeId",
					"type": "bytes32"
				}
			],
			"name": "unstakeContent",
			"outputs": [],
			"payable": false,
			"stateMutability": "nonpayable",
			"type": "function"
		},
		{
			"constant": false,
			"inputs": [
				{
					"name": "_stakeId",
					"type": "bytes32"
				},
				{
					"name": "_networkIntegerAmount",
					"type": "uint256"
				},
				{
					"name": "_networkFractionAmount",
					"type": "uint256"
				},
				{
					"name": "_denomination",
					"type": "bytes8"
				},
				{
					"name": "_primordialAmount",
					"type": "uint256"
				}
			],
			"name": "stakeExistingContent",
			"outputs": [],
			"payable": false,
			"stateMutability": "nonpayable",
			"type": "function"
		},
		{
			"constant": true,
			"inputs": [
				{
					"name": "_contentHostId",
					"type": "bytes32"
				}
			],
			"name": "contentHostPrice",
			"outputs": [
				{
					"name": "",
					"type": "uint256"
				}
			],
			"payable": false,
			"stateMutability": "view",
			"type": "function"
		},
		{
			"constant": true,
			"inputs": [
				{
					"name": "_contentHostId",
					"type": "bytes32"
				}
			],
			"name": "contentHostPaidByAO",
			"outputs": [
				{
					"name": "",
					"type": "uint256"
				}
			],
			"payable": false,
			"stateMutability": "view",
			"type": "function"
		},
		{
			"constant": false,
			"inputs": [
				{
					"name": "_contentHostId",
					"type": "bytes32"
				},
				{
					"name": "_networkIntegerAmount",
					"type": "uint256"
				},
				{
					"name": "_networkFractionAmount",
					"type": "uint256"
				},
				{
					"name": "_denomination",
					"type": "bytes8"
				},
				{
					"name": "_publicKey",
					"type": "string"
				},
				{
					"name": "_publicAddress",
					"type": "address"
				}
			],
			"name": "buyContent",
			"outputs": [],
			"payable": false,
			"stateMutability": "nonpayable",
			"type": "function"
		},
		{
			"constant": true,
			"inputs": [
				{
					"name": "_purchaseId",
					"type": "bytes32"
				}
			],
			"name": "purchaseReceiptById",
			"outputs": [
				{
					"name": "",
					"type": "bytes32"
				},
				{
					"name": "",
					"type": "address"
				},
				{
					"name": "",
					"type": "uint256"
				},
				{
					"name": "",
					"type": "uint256"
				},
				{
					"name": "",
					"type": "uint256"
				},
				{
					"name": "",
					"type": "string"
				},
				{
					"name": "",
					"type": "address"
				},
				{
					"name": "",
					"type": "uint256"
				}
			],
			"payable": false,
			"stateMutability": "view",
			"type": "function"
		},
		{
			"constant": false,
			"inputs": [
				{
					"name": "_purchaseId",
					"type": "bytes32"
				},
				{
					"name": "_baseChallengeV",
					"type": "uint8"
				},
				{
					"name": "_baseChallengeR",
					"type": "bytes32"
				},
				{
					"name": "_baseChallengeS",
					"type": "bytes32"
				},
				{
					"name": "_encChallenge",
					"type": "string"
				},
				{
					"name": "_contentDatKey",
					"type": "string"
				},
				{
					"name": "_metadataDatKey",
					"type": "string"
				}
			],
			"name": "becomeHost",
			"outputs": [],
			"payable": false,
			"stateMutability": "nonpayable",
			"type": "function"
		},
		{
			"constant": false,
			"inputs": [
				{
					"name": "_contentId",
					"type": "bytes32"
				},
				{
					"name": "_taoId",
					"type": "address"
				},
				{
					"name": "_taoContentState",
					"type": "bytes32"
				},
				{
					"name": "_updateTAOContentStateV",
					"type": "uint8"
				},
				{
					"name": "_updateTAOContentStateR",
					"type": "bytes32"
				},
				{
					"name": "_updateTAOContentStateS",
					"type": "bytes32"
				}
			],
			"name": "updateTAOContentState",
			"outputs": [],
			"payable": false,
			"stateMutability": "nonpayable",
			"type": "function"
		}
	],
	"bytecode": "0x608060405234801561001057600080fd5b5060405160c08062005d8583398101604090815281516020830151918301516060840151608085015160a0909501516000805433600160a060020a0319918216178255600780548216600160a060020a03978816179055600880548216958716958617905560098054821694871694851790556001805482169387169384179055600a80548216909517909455600b80548516909317909255600c8054841696851696909617909555600d805483169390941692909217909255600e80549092169092179055615c9e908190620000e790396000f30060806040526004361061019d5763ffffffff60e060020a6000350416630292f88a81146101a25780631554611f146101c557806316c38b3c146101da5780631ef7b68a146101f45780631f3a0e41146102e1578063202352f71461030a5780633848627b146103315780633c19df06146103465780634ef033f01461047757806353d6fd59146104a8578063555ea48c146104ce5780635c975abb146105b857806370660f7c146105cd5780637b4126f4146105fb57806383b01a831461067b57806386231b9e146106ae57806398c547b8146106c65780639b19251a14610724578063a9b6b38e14610745578063a9e3fd271461075a578063b380b0d414610772578063b3a186321461078d578063c3db397f146108c5578063c44a0795146108f3578063c5f956af14610908578063c96a74e51461091d578063e2499b9814610932578063e57c09bc14610995578063e6ab96ed14610a75578063e7c5018514610a8d578063e914027414610aa2578063ef3c053114610be2578063f2fde38b14610d00578063f4f0bfeb14610d21578063fffbd7aa14610d36575b600080fd5b3480156101ae57600080fd5b506101c3600160a060020a0360043516610d5a565b005b3480156101d157600080fd5b506101c3610ea6565b3480156101e657600080fd5b506101c36004351515610fb6565b34801561020057600080fd5b5061020c60043561108e565b60405180896000191660001916815260200188600160a060020a0316600160a060020a031681526020018781526020018681526020018581526020018060200184600160a060020a0316600160a060020a03168152602001838152602001828103825285818151815260200191508051906020019080838360005b8381101561029f578181015183820152602001610287565b50505050905090810190601f1680156102cc5780820380516001836020036101000a031916815260200191505b50995050505050505050505060405180910390f35b3480156102ed57600080fd5b506102f6611237565b604080519115158252519081900360200190f35b34801561031657600080fd5b5061031f611247565b60408051918252519081900360200190f35b34801561033d57600080fd5b5061031f61124d565b34801561035257600080fd5b50604080516020601f6084356004818101359283018490048402850184019095528184526101c3948035946024803595600160c060020a031960443516956064359536959460a494909391019190819084018382808284375050604080516020601f89358b018035918201839004830284018301909452808352979a99988101979196509182019450925082915084018382808284375050604080516020601f89358b018035918201839004830284018301909452808352979a99988101979196509182019450925082915084018382808284375050604080516020601f89358b018035918201839004830284018301909452808352979a99988101979196509182019450925082915084018382808284375094975050933594506112539350505050565b34801561048357600080fd5b5061048c61160f565b60408051600160a060020a039092168252519081900360200190f35b3480156104b457600080fd5b506101c3600160a060020a0360043516602435151561161e565b3480156104da57600080fd5b50604080516020600460843581810135601f81018490048402850184019095528484526101c3948235946024803560ff169560443595606435953695919460a494909391019190819084018382808284375050604080516020601f89358b018035918201839004830284018301909452808352979a99988101979196509182019450925082915084018382808284375050604080516020601f89358b018035918201839004830284018301909452808352979a9998810197919650918201945092508291508401838280828437509497506117079650505050505050565b3480156105c457600080fd5b506102f6611d8a565b3480156105d957600080fd5b506101c3600435602435604435600160c060020a031960643516608435611d9a565b34801561060757600080fd5b50604080516020601f6084356004818101359283018490048402850184019095528184526101c394803594602480359560443595600160c060020a0319606435169536959460a494909391019190819084018382808284375094975050509235600160a060020a031693506123d492505050565b34801561068757600080fd5b506101c3600435600160a060020a036024351660443560ff6064351660843560a435612c36565b3480156106ba57600080fd5b5061031f600435612fa4565b3480156106d257600080fd5b5060408051602060046024803582810135601f81018590048502860185019096528585526101c395833595369560449491939091019190819084018382808284375094975061303f9650505050505050565b34801561073057600080fd5b506102f6600160a060020a03600435166130da565b34801561075157600080fd5b5061048c6130ef565b34801561076657600080fd5b5061031f6004356130fe565b34801561077e57600080fd5b506101c360043560243561324d565b34801561079957600080fd5b50604080516020601f6084356004818101359283018490048402850184019095528184526101c3948035946024803595600160c060020a031960443516956064359536959460a494909391019190819084018382808284375050604080516020601f89358b018035918201839004830284018301909452808352979a99988101979196509182019450925082915084018382808284375050604080516020601f89358b018035918201839004830284018301909452808352979a99988101979196509182019450925082915084018382808284375050604080516020601f89358b018035918201839004830284018301909452808352979a9998810197919650918201945092508291508401838280828437509497505084359550505060209092013591506133a79050565b3480156108d157600080fd5b506101c3600435602435604435600160c060020a0319606435166084356136a3565b3480156108ff57600080fd5b5061048c613b8f565b34801561091457600080fd5b5061048c613b9e565b34801561092957600080fd5b5061031f613bad565b34801561093e57600080fd5b5061094a600435613bb3565b60408051988952600160a060020a039097166020890152878701959095526060870193909352608086019190915260a0850152151560c084015260e083015251908190036101000190f35b3480156109a157600080fd5b506109ad600435613c8e565b60408051600160a060020a03808c16825260208083018c90529282018a9052881660608201526080810187905260ff861660a082015260c0810185905260e08101849052610120610100820181815284519183019190915283519192909161014084019185019080838360005b83811015610a32578181015183820152602001610a1a565b50505050905090810190601f168015610a5f5780820380516001836020036101000a031916815260200191505b509a505050505050505050505060405180910390f35b348015610a8157600080fd5b506101c3600435613ece565b348015610a9957600080fd5b5061048c61417d565b348015610aae57600080fd5b50604080516020601f6084356004818101359283018490048402850184019095528184526101c3948035946024803595600160c060020a031960443516956064359536959460a494909391019190819084018382808284375050604080516020601f89358b018035918201839004830284018301909452808352979a99988101979196509182019450925082915084018382808284375050604080516020601f89358b018035918201839004830284018301909452808352979a99988101979196509182019450925082915084018382808284375050604080516020601f89358b018035918201839004830284018301909452808352979a9998810197919650918201945092508291508401838280828437509497505084359550505050602090910135600160a060020a0316905061418c565b348015610bee57600080fd5b50610bfa60043561459f565b60405180856000191660001916815260200184600160a060020a0316600160a060020a031681526020018060200180602001838103835285818151815260200191508051906020019080838360005b83811015610c61578181015183820152602001610c49565b50505050905090810190601f168015610c8e5780820380516001836020036101000a031916815260200191505b50838103825284518152845160209182019186019080838360005b83811015610cc1578181015183820152602001610ca9565b50505050905090810190601f168015610cee5780820380516001836020036101000a031916815260200191505b50965050505050505060405180910390f35b348015610d0c57600080fd5b506101c3600160a060020a03600435166147ed565b348015610d2d57600080fd5b5061031f6148cd565b348015610d4257600080fd5b5061031f600160a060020a03600435166024356148d3565b6000546001546040805160e260020a633d9abf2b028152336004820152600160a060020a0393841660248201529290911660448301525173__AOLibrary_____________________________9163f66afcac916064808301926020929190829003018186803b158015610dcc57600080fd5b505af4158015610de0573d6000803e3d6000fd5b505050506040513d6020811015610df657600080fd5b50511515610e0357600080fd5b80600160a060020a0316630aa245466040518163ffffffff1660e060020a028152600401602060405180830381600087803b158015610e4157600080fd5b505af1158015610e55573d6000803e3d6000fd5b505050506040513d6020811015610e6b57600080fd5b505115610e7757600080fd5b60088054600160a060020a0319908116600160a060020a039384161791829055600a8054929093169116179055565b6000546001546040805160e260020a633d9abf2b028152336004820152600160a060020a0393841660248201529290911660448301525173__AOLibrary_____________________________9163f66afcac916064808301926020929190829003018186803b158015610f1857600080fd5b505af4158015610f2c573d6000803e3d6000fd5b505050506040513d6020811015610f4257600080fd5b50511515610f4f57600080fd5b600e5460a860020a900460ff1615610f6657600080fd5b600e805475ff000000000000000000000000000000000000000000191660a860020a1790556040517f16ed36fbe43aed6ba7426b24d35620696380d398f2f22f918dd74e4d3e0ceef990600090a1565b6000546001546040805160e260020a633d9abf2b028152336004820152600160a060020a0393841660248201529290911660448301525173__AOLibrary_____________________________9163f66afcac916064808301926020929190829003018186803b15801561102857600080fd5b505af415801561103c573d6000803e3d6000fd5b505050506040513d602081101561105257600080fd5b5051151561105f57600080fd5b600e805491151560a060020a0274ff000000000000000000000000000000000000000019909216919091179055565b600080600080600060606000806110a3615ab1565b60008a815260166020526040812054116110bc57600080fd5b60008a815260166020908152604080832054835260158252918290208251610120810184528154815260018083015482850152600280840154600160a060020a0316838701526003840154606084015260048401546080840152600584015460a08401526006840180548751601f948216156101000260001901909116929092049283018690048602820186019096528181529194929360c086019391908301828280156111ab5780601f10611180576101008083540402835291602001916111ab565b820191906000526020600020905b81548152906001019060200180831161118e57829003601f168201915b505050505081526020016007820160009054906101000a9004600160a060020a0316600160a060020a0316600160a060020a0316815260200160088201548152505090508060200151816040015182606001518360a0015184608001518560c001518660e001518761010001518292509850985098509850985098509850985050919395975091939597565b600e5460a860020a900460ff1681565b60055481565b60035481565b600e5460009060a060020a900460ff1615801561127a5750600e5460a860020a900460ff16155b151561128557600080fd5b73__AOLibrary_____________________________63455eb777600960009054906101000a9004600160a060020a03168c8c8c8c8c8c8c8c8c60006040518c63ffffffff1660e060020a028152600401808c600160a060020a0316600160a060020a031681526020018b81526020018a815260200189600160c060020a031916600160c060020a03191681526020018881526020018060200180602001806020018060200187815260200186815260200185810385528b818151815260200191508051906020019080838360005b8381101561136b578181015183820152602001611353565b50505050905090810190601f1680156113985780820380516001836020036101000a031916815260200191505b5085810384528a5181528a516020918201918c019080838360005b838110156113cb5781810151838201526020016113b3565b50505050905090810190601f1680156113f85780820380516001836020036101000a031916815260200191505b5085810383528951815289516020918201918b019080838360005b8381101561142b578181015183820152602001611413565b50505050905090810190601f1680156114585780820380516001836020036101000a031916815260200191505b5085810382528851815288516020918201918a019080838360005b8381101561148b578181015183820152602001611473565b50505050905090810190601f1680156114b85780820380516001836020036101000a031916815260200191505b509f5050505050505050505050505050505060206040518083038186803b1580156114e257600080fd5b505af41580156114f6573d6000803e3d6000fd5b505050506040513d602081101561150c57600080fd5b5051151561151957600080fd5b600b546040805160e360020a63042fb71d028152600481018d9052602481018c9052600160c060020a03198b166044820152905184926115c1928b92600160a060020a039092169163217db8e8916064808201926020929091908290030181600087803b15801561158957600080fd5b505af115801561159d573d6000803e3d6000fd5b505050506040513d60208110156115b357600080fd5b50519063ffffffff6148f016565b146115cb57600080fd5b6115d3614903565b50505050915050611603336115fb336115f0338b888860006150b1565b8e8e8e8e60006152af565b878787615766565b50505050505050505050565b600154600160a060020a031681565b6000546001546040805160e260020a633d9abf2b028152336004820152600160a060020a0393841660248201529290911660448301525173__AOLibrary_____________________________9163f66afcac916064808301926020929190829003018186803b15801561169057600080fd5b505af41580156116a4573d6000803e3d6000fd5b505050506040513d60208110156116ba57600080fd5b505115156116c757600080fd5b600160a060020a03821615156116dc57600080fd5b600160a060020a03919091166000908152600260205260409020805460ff1916911515919091179055565b61170f615ab1565b60008061171a615afc565b600e5460a060020a900460ff1615801561173e5750600e5460a860020a900460ff16155b151561174957600080fd5b60008b8152601660205260408120541161176257600080fd5b60008b815260166020908152604080832054835260158252918290208251610120810184528154815260018083015482850152600280840154600160a060020a0316838701526003840154606084015260048401546080840152600584015460a08401526006840180548751601f948216156101000260001901909116929092049283018690048602820186019096528181529194929360c086019391908301828280156118515780601f1061182657610100808354040283529160200191611851565b820191906000526020600020905b81548152906001019060200180831161183457829003601f168201915b50505091835250506007820154600160a060020a0390811660208084019190915260089093015460409283015283830151600090815260148452828120548152601384528281206001908101548083526012865284832054835260119095529083902001549184015193975091955093501633146118ce57600080fd5b6000828152601060209081526040808320548352600f82529182902082516101608101845281548152600180830154600160a060020a031682850152600280840180548751601f9482161561010002600019019091169290920492830186900486028201860187528282529295939493860193909291908301828280156119965780601f1061196b57610100808354040283529160200191611996565b820191906000526020600020905b81548152906001019060200180831161197957829003601f168201915b5050509183525050600382015460208083019190915260048301546040808401919091526005840154600160a060020a0316606084015260068401546080840152600784015460ff1660a0840152600884015460c0840152600984015460e0840152600a840180548251601f60026001841615610100908102600019019094160490810186900486028201860190945283815294019392909190830182828015611a815780601f10611a5657610100808354040283529160200191611a81565b820191906000526020600020905b815481529060010190602001808311611a6457829003601f168201915b50505050508152505090508360e00151600160a060020a031673__AOLibrary_____________________________633d56dca33084604001518e8e8e6040518663ffffffff1660e060020a0281526004018086600160a060020a0316600160a060020a03168152602001806020018560ff1660ff16815260200184600019166000191681526020018360001916600019168152602001828103825286818151815260200191508051906020019080838360005b83811015611b4c578181015183820152602001611b34565b50505050905090810190601f168015611b795780820380516001836020036101000a031916815260200191505b50965050505050505060206040518083038186803b158015611b9a57600080fd5b505af4158015611bae573d6000803e3d6000fd5b505050506040513d6020811015611bc457600080fd5b5051600160a060020a031614611bd957600080fd5b611be63384898989615766565b600c60009054906101000a9004600160a060020a0316600160a060020a031663ff28d6258486602001518e856060015189608001511160116000601260008c6000191660001916815260200190815260200160002054815260200190815260200160002060020160009054906101000a9004600160a060020a031660136000601460008e602001516000191660001916815260200190815260200160002054815260200190815260200160002060020160009054906101000a9004600160a060020a03166040518763ffffffff1660e060020a028152600401808760001916600019168152602001866000191660001916815260200185600019166000191681526020018415151515815260200183600160a060020a0316600160a060020a0316815260200182600160a060020a0316600160a060020a031681526020019650505050505050602060405180830381600087803b158015611d4657600080fd5b505af1158015611d5a573d6000803e3d6000fd5b505050506040513d6020811015611d7057600080fd5b50511515611d7d57600080fd5b5050505050505050505050565b600e5460a060020a900460ff1681565b600e546000908190819060a060020a900460ff16158015611dc55750600e5460a860020a900460ff16155b1515611dd057600080fd5b60008881526012602052604081205411611de957600080fd5b6000888152601260209081526040808320548352601182528083206001810154845260108352818420548452600f9092529091206003015460028201549194509250600160a060020a03163314611e3f57600080fd5b6000871180611e4e5750600086115b80611e595750600084115b1515611e6457600080fd5b600954600184015473__AOLibrary_____________________________9163cf7bb19291600160a060020a0390911690611e9d90615a66565b85611eb9886004015489600301546148f090919063ffffffff16565b6040805160e060020a63ffffffff8816028152600160a060020a039095166004860152921515602485015260448401919091526064830152608482018b905260a482018a9052600160c060020a0319891660c483015260e4820188905251610104808301926020929190829003018186803b158015611f3757600080fd5b505af4158015611f4b573d6000803e3d6000fd5b505050506040513d6020811015611f6157600080fd5b50511515611f6e57600080fd5b600084118015611f825750600783015460ff165b8015611f92575060008360040154115b8015611fa2575060008360050154115b15612048576005830154600a54604080517f281bdaf80000000000000000000000000000000000000000000000000000000081523360048201529051600160a060020a039092169163281bdaf8916024808201926020929091908290030181600087803b15801561201257600080fd5b505af1158015612026573d6000803e3d6000fd5b505050506040513d602081101561203c57600080fd5b50511461204857600080fd5b60078301805460ff19166001179055600085901a60f860020a027fff00000000000000000000000000000000000000000000000000000000000000161580159061209c5750600087118061209c5750600086115b156121fd57600b546040805160e360020a63042fb71d028152600481018a905260248101899052600160c060020a0319881660448201529051600160a060020a039092169163217db8e8916064808201926020929091908290030181600087803b15801561210957600080fd5b505af115801561211d573d6000803e3d6000fd5b505050506040513d602081101561213357600080fd5b5051600384015490915061214d908263ffffffff6148f016565b6003840155600a546002840154604080517f31a8aeb3000000000000000000000000000000000000000000000000000000008152600160a060020a03928316600482015260248101859052905191909216916331a8aeb39160448083019260209291908290030181600087803b1580156121c657600080fd5b505af11580156121da573d6000803e3d6000fd5b505050506040513d60208110156121f057600080fd5b505115156121fd57600080fd5b600084111561237357600483015461221b908563ffffffff6148f016565b600480850191909155600a546002850154604080517f281bdaf8000000000000000000000000000000000000000000000000000000008152600160a060020a03928316948101949094525191169163281bdaf89160248083019260209291908290030181600087803b15801561229057600080fd5b505af11580156122a4573d6000803e3d6000fd5b505050506040513d60208110156122ba57600080fd5b505160058401819055600a546002850154604080517f7e904f7b000000000000000000000000000000000000000000000000000000008152600160a060020a03928316600482015260248101899052604481019490945251911691637e904f7b9160648083019260209291908290030181600087803b15801561233c57600080fd5b505af1158015612350573d6000803e3d6000fd5b505050506040513d602081101561236657600080fd5b5051151561237357600080fd5b60018301548354600385015460048601546005870154604080519384526020840192909252828201525133917f7fa32f70b286f05be6f001e570ad7f2e82d767dc5ec7f8e0e585414189184224919081900360600190a45050505050505050565b6123dc615b57565b6123e4615b8b565b600e54600090819060a060020a900460ff1615801561240d5750600e5460a860020a900460ff16155b151561241857600080fd5b60008a8152601460205260408120541161243157600080fd5b855160001061243f57600080fd5b600160a060020a038516151561245457600080fd5b60008a81526014602090815260408083205483526013825291829020825160c0810184528154815260018083015482850152600280840154600160a060020a0316838701526003840180548751601f9482161561010002600019019091169290920492830186900486028201860190965281815291949293606086019391908301828280156125245780601f106124f957610100808354040283529160200191612524565b820191906000526020600020905b81548152906001019060200180831161250757829003601f168201915b505050918352505060048201805460408051602060026001851615610100026000190190941693909304601f81018490048402820184019092528181529382019392918301828280156125b85780601f1061258d576101008083540402835291602001916125b8565b820191906000526020600020905b81548152906001019060200180831161259b57829003601f168201915b505050918352505060058201805460408051602060026001851615610100026000190190941693909304601f810184900484028201840190925281815293820193929183018282801561264c5780601f106126215761010080835404028352916020019161264c565b820191906000526020600020905b81548152906001019060200180831161262f57829003601f168201915b505050919092525050506020808201516000908152601282526040808220548252601183529081902081516101208101835281548152600180830154948201949094526002820154600160a060020a0316928101929092526003810154606083015260048101546080830152600581015460a0830152600681015460c0830152600781015460ff16151560e08301819052600890910154610100830152929650945014801561271c575060008360600151118061271c57506000836080015111801561271c575060008360a00151115b151561272757600080fd5b3360009081526017602090815260408083208d8452909152812054901a60f860020a027fff00000000000000000000000000000000000000000000000000000000000000161561277657600080fd5b6127838360200151615a66565b1561286c576009546080840151606085015173__AOLibrary_____________________________9263749b782092600160a060020a03909116916127cc9163ffffffff6148f016565b6040805160e060020a63ffffffff8616028152600160a060020a0390931660048401526024830191909152604482018d9052606482018c9052600160c060020a03198b1660848301525160a4808301926020929190829003018186803b15801561283557600080fd5b505af4158015612849573d6000803e3d6000fd5b505050506040513d602081101561285f57600080fd5b5051151561286c57600080fd5b600680546001019055604080516c010000000000000000000000003081026020808401919091523391909102603483015260488083018e905283518084039091018152606890920192839052815191929182918401908083835b602083106128e55780518252601f1990920191602091820191016128c6565b51815160209384036101000a60001901801990921691161790526040805192909401829003909120600654600090815260159092529290206002810154929650945050600160a060020a031615915061293f905057600080fd5b818155600181018a9055600281018054600160a060020a03191633179055608083015160608401516129769163ffffffff6148f016565b60038201556129848a612fa4565b60058201819055600382015461299f9163ffffffff615a9f16565b600482015585516129b99060068301906020890190615bd7565b50600781018054600160a060020a031916600160a060020a038781169190911790915542600883015560065460008481526016602090815260408083209390935533808352601782528383208f8452825291839020869055600c546060880151608089015160a08a015160c08b01518b880151978d0151958c015194909816976316e4822b978b9694959394929391929091612a5490615a66565b6040805160e060020a63ffffffff8d16028152600160a060020a039a8b166004820152602481019990995260448901979097526064880195909552608487019390935260a4860191909152851660c485015290931660e483015291151561010482015290516101248083019260209291908290030181600087803b158015612adb57600080fd5b505af1158015612aef573d6000803e3d6000fd5b505050506040513d6020811015612b0557600080fd5b50511515612b1257600080fd5b6001808201548254600280850154600386015460058701546004880154600789015460088a01546040805186815260208101869052908101849052600160a060020a039283166080820181905260a0820183905260c06060830181815260068f0180549e8f16156101000260001901909e169a909a049083018190529a9b999a93909716987f2c72921f8f60255406eee5de60c5ec8395db946a000f42207df042f153a53c57989697959694959094909360e083019086908015612c175780601f10612bec57610100808354040283529160200191612c17565b820191906000526020600020905b815481529060010190602001808311612bfa57829003601f168201915b505097505050505050505060405180910390a450505050505050505050565b600e546000908190819081908190819060a060020a900460ff16158015612c675750600e5460a860020a900460ff16155b1515612c7257600080fd5b60008c81526010602052604081205411612c8b57600080fd5b604080517f2fca5414000000000000000000000000000000000000000000000000000000008152600160a060020a038d166004820152905173__AOLibrary_____________________________91632fca5414916024808301926020929190829003018186803b158015612cfe57600080fd5b505af4158015612d12573d6000803e3d6000fd5b505050506040513d6020811015612d2857600080fd5b50511515612d3557600080fd5b612d3d614903565b929a5090985096509450505089851480612d5657508984145b80612d6057508983145b1515612d6b57600080fd5b604080517fb625dd87000000000000000000000000000000000000000000000000000000008152306004820152602481018e9052600160a060020a038d166044820152606481018c905260ff8b16608482015260a481018a905260c48101899052905173__AOLibrary_____________________________9163b625dd879160e4808301926020929190829003018186803b158015612e0957600080fd5b505af4158015612e1d573d6000803e3d6000fd5b505050506040513d6020811015612e3357600080fd5b505160008d8152601060209081526040808320548352600f90915290209092509050600160a060020a03821633148015612f0a5750600e546005820154604080517fe2c8e54a000000000000000000000000000000000000000000000000000000008152600160a060020a03868116600483015292831660248201529051919092169163e2c8e54a9160448083019260209291908290030181600087803b158015612edd57600080fd5b505af1158015612ef1573d6000803e3d6000fd5b505050506040513d6020811015612f0757600080fd5b50515b1515612f1557600080fd5b60048101548614612f2557600080fd5b600681018a905560078101805460ff191660ff8b16179055600881018890556009810187905560408051600160a060020a038481168252602082018d90528251908e16928f927f0528e12829f4904634dd7bd06309457b4867ebd8bdf33ae6a8f6092a9a9461b9929081900390910190a3505050505050505050505050565b600e546000908190819060a060020a900460ff16158015612fcf5750600e5460a860020a900460ff16155b1515612fda57600080fd5b505060008281526014602090815260408083205483526013825280832060019081015480855260128452828520548552601190935292209091015461301e81615a66565b1561302c5760009250613038565b613035846130fe565b92505b5050919050565b600e5460009060a060020a900460ff161580156130665750600e5460a860020a900460ff16155b151561307157600080fd5b6000838152601060205260408120541161308a57600080fd5b506000828152601060209081526040808320548352600f90915290206001810154600160a060020a031633146130bf57600080fd5b81516130d490600a8301906020850190615bd7565b50505050565b60026020526000908152604090205460ff1681565b600054600160a060020a031681565b600080613109615b8b565b600e5460a060020a900460ff1615801561312d5750600e5460a860020a900460ff16155b151561313857600080fd5b6000848152601460205260408120541161315157600080fd5b50506000828152601460209081526040808320548352601382528083206001908101548085526012845282852054855260118452938290208251610120810184528154815281830154948101949094526002810154600160a060020a0316928401929092526003820154606084015260048201546080840152600582015460a0840152600682015460c0840152600782015460ff16151560e084018190526008909201546101008401521480156132295750600081606001511180613229575060008160800151118015613229575060008160a00151115b151561323457600080fd5b608081015160608201516130359163ffffffff6148f016565b600e5460009060a060020a900460ff161580156132745750600e5460a860020a900460ff16155b151561327f57600080fd5b73__AOLibrary_____________________________63caf297656040518163ffffffff1660e060020a02815260040160206040518083038186803b1580156132c657600080fd5b505af41580156132da573d6000803e3d6000fd5b505050506040513d60208110156132f057600080fd5b50518211156132fe57600080fd5b6000838152601260205260408120541161331757600080fd5b506000828152601260209081526040808320548352601190915290206002810154600160a060020a0316331461334c57600080fd5b6133598160010154615a66565b151561336457600080fd5b60068101829055604080518381529051849133917f6c4a0cfd4af9f173dec0ac350616d6c855be630c8c83b3cd18879ad5a6bf6d299181900360200190a3505050565b600e5460009060a060020a900460ff161580156133ce5750600e5460a860020a900460ff16155b15156133d957600080fd5b73__AOLibrary_____________________________63455eb777600960009054906101000a9004600160a060020a03168d8d8d8d8d8d8d8d8d8d6040518c63ffffffff1660e060020a028152600401808c600160a060020a0316600160a060020a031681526020018b81526020018a815260200189600160c060020a031916600160c060020a03191681526020018881526020018060200180602001806020018060200187815260200186815260200185810385528b818151815260200191508051906020019080838360005b838110156134be5781810151838201526020016134a6565b50505050905090810190601f1680156134eb5780820380516001836020036101000a031916815260200191505b5085810384528a5181528a516020918201918c019080838360005b8381101561351e578181015183820152602001613506565b50505050905090810190601f16801561354b5780820380516001836020036101000a031916815260200191505b5085810383528951815289516020918201918b019080838360005b8381101561357e578181015183820152602001613566565b50505050905090810190601f1680156135ab5780820380516001836020036101000a031916815260200191505b5085810382528851815288516020918201918a019080838360005b838110156135de5781810151838201526020016135c6565b50505050905090810190601f16801561360b5780820380516001836020036101000a031916815260200191505b509f5050505050505050505050505050505060206040518083038186803b15801561363557600080fd5b505af4158015613649573d6000803e3d6000fd5b505050506040513d602081101561365f57600080fd5b5051151561366c57600080fd5b613674614903565b50505050509050611d7d3361369b33613691338c898860006150b1565b8f8f8f8f8a6152af565b888888615766565b600e546000908190819060a060020a900460ff161580156136ce5750600e5460a860020a900460ff16155b15156136d957600080fd5b600088815260126020526040812054116136f257600080fd5b60008711806137015750600086115b8061370c5750600084115b151561371757600080fd5b6000888152601260209081526040808320548352601182528083206001810154845260108352818420548452600f9092529091206003015460028201549194509250600160a060020a0316331461376d57600080fd5b600783015460ff16151560011480156137a757506000836003015411806137a75750600083600401541180156137a7575060008360050154115b15156137b257600080fd5b6009546003840154600480860154604080517f6c4ef21e000000000000000000000000000000000000000000000000000000008152600160a060020a0390951692850192909252602484018b9052604484018a9052600160c060020a0319891660648501526084840188905260a484019290925260c483019190915260e482018490525173__AOLibrary_____________________________91636c4ef21e91610104808301926020929190829003018186803b15801561387257600080fd5b505af4158015613886573d6000803e3d6000fd5b505050506040513d602081101561389c57600080fd5b505115156138a957600080fd5b7fff0000000000000000000000000000000000000000000000000000000000000060f860020a600087901a0216158015906138ee575060008711806138ee5750600086115b15613a4857600b546040805160e360020a63042fb71d028152600481018a905260248101899052600160c060020a0319881660448201529051600160a060020a039092169163217db8e8916064808201926020929091908290030181600087803b15801561395b57600080fd5b505af115801561396f573d6000803e3d6000fd5b505050506040513d602081101561398557600080fd5b5051600384015490915061399f908263ffffffff615a9f16565b6003840155600a54604080517f731a3b06000000000000000000000000000000000000000000000000000000008152336004820152602481018490529051600160a060020a039092169163731a3b06916044808201926020929091908290030181600087803b158015613a1157600080fd5b505af1158015613a25573d6000803e3d6000fd5b505050506040513d6020811015613a3b57600080fd5b50511515613a4857600080fd5b6000841115613b20576004830154613a66908563ffffffff615a9f16565b600480850191909155600a546005850154604080517f74ead7b7000000000000000000000000000000000000000000000000000000008152339481019490945260248401889052604484019190915251600160a060020a03909116916374ead7b79160648083019260209291908290030181600087803b158015613ae957600080fd5b505af1158015613afd573d6000803e3d6000fd5b505050506040513d6020811015613b1357600080fd5b50511515613b2057600080fd5b6001830154835460028501546003860154600487015460058801546040805193845260208401929092528282015251600160a060020a03909216917f645f75eb984f0b89f1e9887da267d2025a37764e7bd6537b7d7eff900e8725eb9181900360600190a45050505050505050565b600854600160a060020a031681565b600954600160a060020a031681565b60045481565b600080600080600080600080613bc7615b8b565b60008a81526012602052604081205411613be057600080fd5b5050506000968752505060126020908152604080872054875260118252958690208651610120810188528154815260018201549281018390526002820154600160a060020a0316978101889052600382015460608201819052600483015460808301819052600584015460a08401819052600685015460c08501819052600786015460ff16151560e08601819052600890960154610100909501859052959b92995090975095509293509091565b6000806000806000806000806060613ca4615afc565b60008b81526010602052604081205411613cbd57600080fd5b60008b8152601060209081526040808320548352600f82529182902082516101608101845281548152600180830154600160a060020a031682850152600280840180548751601f948216156101000260001901909116929092049283018690048602820186018752828252929593949386019390929190830182828015613d855780601f10613d5a57610100808354040283529160200191613d85565b820191906000526020600020905b815481529060010190602001808311613d6857829003601f168201915b5050509183525050600382015460208083019190915260048301546040808401919091526005840154600160a060020a0316606084015260068401546080840152600784015460ff1660a0840152600884015460c0840152600984015460e0840152600a840180548251601f60026001841615610100908102600019019094160490810186900486028201860190945283815294019392909190830182828015613e705780601f10613e4557610100808354040283529160200191613e70565b820191906000526020600020905b815481529060010190602001808311613e5357829003601f168201915b50505050508152505090508060200151816060015182608001518360a001518460c001518560e00151866101000151876101200151886101400151809050995099509950995099509950995099509950509193959799909294969850565b600e5460009081908190819060a060020a900460ff16158015613efb5750600e5460a860020a900460ff16155b1515613f0657600080fd5b60008581526012602052604081205411613f1f57600080fd5b6000858152601260209081526040808320548352601190915290206002810154909450600160a060020a03163314613f5657600080fd5b600784015460ff1615156001148015613f905750600084600301541180613f90575060008460040154118015613f90575060008460050154115b1515613f9b57600080fd5b60078401805460ff1916905560038401546000101561406757600384018054600091829055600a54604080517f731a3b06000000000000000000000000000000000000000000000000000000008152336004820152602481018490529051929650600160a060020a039091169263731a3b06926044808401936020939083900390910190829087803b15801561403057600080fd5b505af1158015614044573d6000803e3d6000fd5b505050506040513d602081101561405a57600080fd5b5051151561406757600080fd5b60008460040154111561413d5750506004808301805460058501805460009384905590839055600a54604080517f74ead7b7000000000000000000000000000000000000000000000000000000008152339681019690965260248601849052604486018390525192949193600160a060020a03909116926374ead7b7926064808201936020939283900390910190829087803b15801561410657600080fd5b505af115801561411a573d6000803e3d6000fd5b505050506040513d602081101561413057600080fd5b5051151561413d57600080fd5b60028401546040518691600160a060020a0316907eeb6a306a149d2ec8a5e5f228483a31d06863f4cd48237ddf5c1c236805def890600090a35050505050565b600754600160a060020a031681565b600e5460009060a060020a900460ff161580156141b35750600e5460a860020a900460ff16155b15156141be57600080fd5b73__AOLibrary_____________________________63455eb777600960009054906101000a9004600160a060020a03168d8d8d8d8d8d8d8d8d60006040518c63ffffffff1660e060020a028152600401808c600160a060020a0316600160a060020a031681526020018b81526020018a815260200189600160c060020a031916600160c060020a03191681526020018881526020018060200180602001806020018060200187815260200186815260200185810385528b818151815260200191508051906020019080838360005b838110156142a457818101518382015260200161428c565b50505050905090810190601f1680156142d15780820380516001836020036101000a031916815260200191505b5085810384528a5181528a516020918201918c019080838360005b838110156143045781810151838201526020016142ec565b50505050905090810190601f1680156143315780820380516001836020036101000a031916815260200191505b5085810383528951815289516020918201918b019080838360005b8381101561436457818101518382015260200161434c565b50505050905090810190601f1680156143915780820380516001836020036101000a031916815260200191505b5085810382528851815288516020918201918a019080838360005b838110156143c45781810151838201526020016143ac565b50505050905090810190601f1680156143f15780820380516001836020036101000a031916815260200191505b509f5050505050505050505050505050505060206040518083038186803b15801561441b57600080fd5b505af415801561442f573d6000803e3d6000fd5b505050506040513d602081101561444557600080fd5b5051151561445257600080fd5b600b546040805160e360020a63042fb71d028152600481018e9052602481018d9052600160c060020a03198c166044820152905185926144c2928c92600160a060020a039092169163217db8e8916064808201926020929091908290030181600087803b15801561158957600080fd5b1480156145655750600e54604080517fe2c8e54a000000000000000000000000000000000000000000000000000000008152336004820152600160a060020a0385811660248301529151919092169163e2c8e54a9160448083019260209291908290030181600087803b15801561453857600080fd5b505af115801561454c573d6000803e3d6000fd5b505050506040513d602081101561456257600080fd5b50515b151561457057600080fd5b614578614903565b50505092505050611d7d3361369b33614594338c89888a6150b1565b8f8f8f8f60006152af565b6000806060806145ad615b57565b600086815260146020526040812054116145c657600080fd5b60008681526014602090815260408083205483526013825291829020825160c0810184528154815260018083015482850152600280840154600160a060020a0316838701526003840180548751601f9482161561010002600019019091169290920492830186900486028201860190965281815291949293606086019391908301828280156146965780601f1061466b57610100808354040283529160200191614696565b820191906000526020600020905b81548152906001019060200180831161467957829003601f168201915b505050918352505060048201805460408051602060026001851615610100026000190190941693909304601f810184900484028201840190925281815293820193929183018282801561472a5780601f106146ff5761010080835404028352916020019161472a565b820191906000526020600020905b81548152906001019060200180831161470d57829003601f168201915b505050918352505060058201805460408051602060026001851615610100026000190190941693909304601f81018490048402820184019092528181529382019392918301828280156147be5780601f10614793576101008083540402835291602001916147be565b820191906000526020600020905b8154815290600101906020018083116147a157829003601f168201915b5050509190925250505060208101516040820151608083015160a0909301519199909850919650945092505050565b6000546001546040805160e260020a633d9abf2b028152336004820152600160a060020a0393841660248201529290911660448301525173__AOLibrary_____________________________9163f66afcac916064808301926020929190829003018186803b15801561485f57600080fd5b505af4158015614873573d6000803e3d6000fd5b505050506040513d602081101561488957600080fd5b5051151561489657600080fd5b600160a060020a03811615156148ab57600080fd5b60008054600160a060020a031916600160a060020a0392909216919091179055565b60065481565b601760209081526000928352604080842090915290825290205481565b818101828110156148fd57fe5b92915050565b600d546007546040805160e260020a631c196fb7028152600160a060020a03928316600482015260248101829052601a60448201527f636f6e74656e745573616765547970655f616f436f6e74656e7400000000000060648201529051600093849384938493849384938493849384938493849384939190921691637065bedc916084808301928692919082900301818387803b1580156149a357600080fd5b505af11580156149b7573d6000803e3d6000fd5b505050506040513d6000823e601f3d908101601f1916820160405260a08110156149e057600080fd5b815160208301516040840151606085015160808601805194969395929491939283019291640100000000811115614a1657600080fd5b82016020810184811115614a2957600080fd5b8151640100000000811182820187101715614a4357600080fd5b5050929190505050509850505050600d60009054906101000a9004600160a060020a0316600160a060020a0316637065bedc600760009054906101000a9004600160a060020a03166040518263ffffffff1660e060020a0281526004018082600160a060020a0316600160a060020a0316815260200180602001828103825260208152602001807f636f6e74656e745573616765547970655f6372656174697665436f6d6d6f6e7381525060200192505050600060405180830381600087803b158015614b0f57600080fd5b505af1158015614b23573d6000803e3d6000fd5b505050506040513d6000823e601f3d908101601f1916820160405260a0811015614b4c57600080fd5b815160208301516040840151606085015160808601805194969395929491939283019291640100000000811115614b8257600080fd5b82016020810184811115614b9557600080fd5b8151640100000000811182820187101715614baf57600080fd5b5050600d546007546040805160e260020a631c196fb7028152600160a060020a03928316600482015260248101829052601b60448201527f636f6e74656e745573616765547970655f74616f436f6e74656e74000000000060648201529051979f5091169850637065bedc97506084808201975060009695509085900301925083915084905087803b158015614c4457600080fd5b505af1158015614c58573d6000803e3d6000fd5b505050506040513d6000823e601f3d908101601f1916820160405260a0811015614c8157600080fd5b815160208301516040840151606085015160808601805194969395929491939283019291640100000000811115614cb757600080fd5b82016020810184811115614cca57600080fd5b8151640100000000811182820187101715614ce457600080fd5b5050600d546007546040805160e260020a631c196fb7028152600160a060020a03928316600482015260248101829052601960448201527f74616f436f6e74656e7453746174655f7375626d69747465640000000000000060648201529051979e5091169850637065bedc97506084808201975060009695509085900301925083915084905087803b158015614d7957600080fd5b505af1158015614d8d573d6000803e3d6000fd5b505050506040513d6000823e601f3d908101601f1916820160405260a0811015614db657600080fd5b815160208301516040840151606085015160808601805194969395929491939283019291640100000000811115614dec57600080fd5b82016020810184811115614dff57600080fd5b8151640100000000811182820187101715614e1957600080fd5b5050600d546007546040805160e260020a631c196fb7028152600160a060020a03928316600482015260248101829052601d60448201527f74616f436f6e74656e7453746174655f70656e64696e6752657669657700000060648201529051979d5091169850637065bedc97506084808201975060009695509085900301925083915084905087803b158015614eae57600080fd5b505af1158015614ec2573d6000803e3d6000fd5b505050506040513d6000823e601f3d908101601f1916820160405260a0811015614eeb57600080fd5b815160208301516040840151606085015160808601805194969395929491939283019291640100000000811115614f2157600080fd5b82016020810184811115614f3457600080fd5b8151640100000000811182820187101715614f4e57600080fd5b5050600d546007546040805160e260020a631c196fb7028152600160a060020a03928316600482015260248101829052601d60448201527f74616f436f6e74656e7453746174655f6163636570746564546f54414f00000060648201529051979c5091169850637065bedc97506084808201975060009695509085900301925083915084905087803b158015614fe357600080fd5b505af1158015614ff7573d6000803e3d6000fd5b505050506040513d6000823e601f3d908101601f1916820160405260a081101561502057600080fd5b81516020830151604084015160608501516080860180519496939592949193928301929164010000000081111561505657600080fd5b8201602081018481111561506957600080fd5b815164010000000081118282018710171561508357600080fd5b50509291905050505093505050508585858585859b509b509b509b509b509b50505050505050909192939495565b6003805460010190819055604080516c01000000000000000000000000308102602080840191909152600160a060020a038a169091026034830152604880830194909452825180830390940184526068909101918290528251600093849384938493849392918291908401908083835b602083106151405780518252601f199092019160209182019101615121565b51815160209384036101000a600019018019909216911617905260408051929094018290039091206003546000908152600f9092529290206001810154929850965050600160a060020a031615915061519a905057600080fd5b6151a2614903565b505093509350505083836000018160001916905550898360010160006101000a815481600160a060020a030219169083600160a060020a03160217905550888360020190805190602001906151f8929190615bd7565b506003830188905560048301879055818714156152345760068301819055600583018054600160a060020a031916600160a060020a0388161790555b60038054600086815260106020908152604091829020929092558554600187015493870154600488015483519182529381019390935281519093600160a060020a0316927fe57c42bf3a4425cef2daf5daea09e512a58183eac320e1480456a511a6afe7cd92908290030190a3505054979650505050505050565b600580546001019055604080516c01000000000000000000000000308102602080840191909152600160a060020a038b16909102603483015260488083018a905283518084039091018152606890920192839052815160009384938493909282918401908083835b602083106153365780518252601f199092019160209182019101615317565b51815160209384036101000a60001901801990921691161790526040805192909401829003909120600554600090815260119092529290206002810154929650945050600160a060020a0316159150615390905057600080fd5b81815560018082018a9055600282018054600160a060020a031916600160a060020a038d161790556006820185905560078201805460ff1916909117905542600882015560055460008381526012602052604081209190915586901a60f860020a027effffffffffffffffffffffffffffffffffffffffffffffffffffffffffffff1916600060f860020a0214158015615434575060008811806154345750600087115b1561557c57600b546040805160e360020a63042fb71d028152600481018b9052602481018a9052600160c060020a0319891660448201529051600160a060020a039092169163217db8e8916064808201926020929091908290030181600087803b1580156154a157600080fd5b505af11580156154b5573d6000803e3d6000fd5b505050506040513d60208110156154cb57600080fd5b505160038201819055600a54604080517f31a8aeb3000000000000000000000000000000000000000000000000000000008152600160a060020a038e811660048301526024820194909452905192909116916331a8aeb3916044808201926020929091908290030181600087803b15801561554557600080fd5b505af1158015615559573d6000803e3d6000fd5b505050506040513d602081101561556f57600080fd5b5051151561557c57600080fd5b60008511156156dc576004808201869055600a546002830154604080517f281bdaf8000000000000000000000000000000000000000000000000000000008152600160a060020a03928316948101949094525191169163281bdaf89160248083019260209291908290030181600087803b1580156155f957600080fd5b505af115801561560d573d6000803e3d6000fd5b505050506040513d602081101561562357600080fd5b505160058201819055600a546002830154604080517f7e904f7b000000000000000000000000000000000000000000000000000000008152600160a060020a039283166004820152602481018a9052604481019490945251911691637e904f7b9160648083019260209291908290030181600087803b1580156156a557600080fd5b505af11580156156b9573d6000803e3d6000fd5b505050506040513d60208110156156cf57600080fd5b505115156156dc57600080fd5b60018101548154600283015460038401546004850154600586015460068701546008880154604080519586526020860194909452848401929092526060840152608083015251600160a060020a03909216917f8e4070fcd0119c9df9d24fa5f6be85f7b7951b6b226bea5b3509e5a97b03b6879181900360a00190a4549998505050505050505050565b6000806000855111151561577957600080fd5b835160001061578757600080fd5b825160001061579557600080fd5b600086815260126020526040812054116157ae57600080fd5b600480546001019055604080516c01000000000000000000000000308102602080840191909152600160a060020a038b16909102603483015260488083018a905283518084039091018152606890920192839052815191929182918401908083835b6020831061582f5780518252601f199092019160209182019101615810565b51815160209384036101000a60001901801990921691161790526040805192909401829003909120600454600090815260139092529290206002810154929650945050600160a060020a0316159150615889905057600080fd5b81815560018101869055600281018054600160a060020a031916600160a060020a03891617905584516158c59060038301906020880190615bd7565b5083516158db9060048301906020870190615bd7565b5082516158f19060058301906020860190615bd7565b506004805460008481526014602090815260409182902092909255835460028086015460018088015485518181526060978101888152988a018054938416156101000260001901909316949094049684018790529396600160a060020a03909216957ff0f838e428cacd8f5b84897fb23a2f3f9da3898d1b2ff5fe647fa9b6e7c3789b95919360058a019390929091908301906080840190869080156159d85780601f106159ad576101008083540402835291602001916159d8565b820191906000526020600020905b8154815290600101906020018083116159bb57829003601f168201915b5050838103825284546002600019610100600184161502019091160480825260209091019085908015615a4c5780601f10615a2157610100808354040283529160200191615a4c565b820191906000526020600020905b815481529060010190602001808311615a2f57829003601f168201915b50509550505050505060405180910390a350505050505050565b600080615a71614903565b50505060009586525050601060209081526040808620548652600f9091529093206004015490921492915050565b600082821115615aab57fe5b50900390565b604080516101208101825260008082526020820181905291810182905260608082018390526080820183905260a0820183905260c082015260e0810182905261010081019190915290565b604080516101608101825260008082526020820181905260609282018390528282018190526080820181905260a0820181905260c0820181905260e08201819052610100820181905261012082015261014081019190915290565b6040805160c0810182526000808252602082018190529181019190915260608082018190526080820181905260a082015290565b6040805161012081018252600080825260208201819052918101829052606081018290526080810182905260a0810182905260c0810182905260e0810182905261010081019190915290565b828054600181600116156101000203166002900490600052602060002090601f016020900481019282601f10615c1857805160ff1916838001178555615c45565b82800160010185558215615c45579182015b82811115615c45578251825591602001919060010190615c2a565b50615c51929150615c55565b5090565b615c6f91905b80821115615c515760008155600101615c5b565b905600a165627a7a723058203504bb1a7a956cb17abd4d3b7c592870f954498e83d48a53a8f07d782e2999f30029",
	"source": "pragma solidity ^0.4.24;\n\nimport './SafeMath.sol';\nimport './TheAO.sol';\nimport './AOToken.sol';\nimport './AOTreasury.sol';\nimport './AOEarning.sol';\nimport './AOLibrary.sol';\nimport './AOSetting.sol';\nimport './NameTAOPosition.sol';\n\n/**\n * @title AOContent\n *\n * The purpose of this contract is to allow content creator to stake network ERC20 AO tokens and/or primordial AO Tokens\n * on his/her content\n */\ncontract AOContent is TheAO {\n\tusing SafeMath for uint256;\n\n\tuint256 public totalContents;\n\tuint256 public totalContentHosts;\n\tuint256 public totalStakedContents;\n\tuint256 public totalPurchaseReceipts;\n\n\taddress public settingTAOId;\n\taddress public baseDenominationAddress;\n\taddress public treasuryAddress;\n\n\tAOToken internal _baseAO;\n\tAOTreasury internal _treasury;\n\tAOEarning internal _earning;\n\tAOSetting internal _aoSetting;\n\tNameTAOPosition internal _nameTAOPosition;\n\n\tbool public paused;\n\tbool public killed;\n\n\tstruct Content {\n\t\tbytes32 contentId;\n\t\taddress creator;\n\t\t/**\n\t\t * baseChallenge is the content's PUBLIC KEY\n\t\t * When a request node wants to be a host, it is required to send a signed base challenge (its content's PUBLIC KEY)\n\t\t * so that the contract can verify the authenticity of the content by comparing what the contract has and what the request node\n\t\t * submit\n\t\t */\n\t\tstring baseChallenge;\n\t\tuint256 fileSize;\n\t\tbytes32 contentUsageType; // i.e AO Content, Creative Commons, or T(AO) Content\n\t\taddress taoId;\n\t\tbytes32 taoContentState; // i.e Submitted, Pending Review, Accepted to TAO\n\t\tuint8 updateTAOContentStateV;\n\t\tbytes32 updateTAOContentStateR;\n\t\tbytes32 updateTAOContentStateS;\n\t\tstring extraData;\n\t}\n\n\tstruct StakedContent {\n\t\tbytes32 stakeId;\n\t\tbytes32 contentId;\n\t\taddress stakeOwner;\n\t\tuint256 networkAmount; // total network token staked in base denomination\n\t\tuint256 primordialAmount;\t// the amount of primordial AO Token to stake (always in base denomination)\n\t\tuint256 primordialWeightedMultiplier;\n\t\tuint256 profitPercentage; // support up to 4 decimals, 100% = 1000000\n\t\tbool active; // true if currently staked, false when unstaked\n\t\tuint256 createdOnTimestamp;\n\t}\n\n\tstruct ContentHost {\n\t\tbytes32 contentHostId;\n\t\tbytes32 stakeId;\n\t\taddress host;\n\t\t/**\n\t\t * encChallenge is the content's PUBLIC KEY unique to the host\n\t\t */\n\t\tstring encChallenge;\n\t\tstring contentDatKey;\n\t\tstring metadataDatKey;\n\t}\n\n\tstruct PurchaseReceipt {\n\t\tbytes32 purchaseId;\n\t\tbytes32 contentHostId;\n\t\taddress buyer;\n\t\tuint256 price;\n\t\tuint256 amountPaidByBuyer;\t// total network token paid in base denomination\n\t\tuint256 amountPaidByAO; // total amount paid by AO\n\t\tstring publicKey; // The public key provided by request node\n\t\taddress publicAddress; // The public address provided by request node\n\t\tuint256 createdOnTimestamp;\n\t}\n\n\t// Mapping from Content index to the Content object\n\tmapping (uint256 => Content) internal contents;\n\n\t// Mapping from content ID to index of the contents list\n\tmapping (bytes32 => uint256) internal contentIndex;\n\n\t// Mapping from StakedContent index to the StakedContent object\n\tmapping (uint256 => StakedContent) internal stakedContents;\n\n\t// Mapping from stake ID to index of the stakedContents list\n\tmapping (bytes32 => uint256) internal stakedContentIndex;\n\n\t// Mapping from ContentHost index to the ContentHost object\n\tmapping (uint256 => ContentHost) internal contentHosts;\n\n\t// Mapping from content host ID to index of the contentHosts list\n\tmapping (bytes32 => uint256) internal contentHostIndex;\n\n\t// Mapping from PurchaseReceipt index to the PurchaseReceipt object\n\tmapping (uint256 => PurchaseReceipt) internal purchaseReceipts;\n\n\t// Mapping from purchase ID to index of the purchaseReceipts list\n\tmapping (bytes32 => uint256) internal purchaseReceiptIndex;\n\n\t// Mapping from buyer's content host ID to the buy ID\n\t// To check whether or not buyer has bought/paid for a content\n\tmapping (address => mapping (bytes32 => bytes32)) public buyerPurchaseReceipts;\n\n\t// Event to be broadcasted to public when `content` is stored\n\tevent StoreContent(address indexed creator, bytes32 indexed contentId, uint256 fileSize, bytes32 contentUsageType);\n\n\t// Event to be broadcasted to public when `stakeOwner` stakes a new content\n\tevent StakeContent(address indexed stakeOwner, bytes32 indexed stakeId, bytes32 indexed contentId, uint256 baseNetworkAmount, uint256 primordialAmount, uint256 primordialWeightedMultiplier, uint256 profitPercentage, uint256 createdOnTimestamp);\n\n\t// Event to be broadcasted to public when a node hosts a content\n\tevent HostContent(address indexed host, bytes32 indexed contentHostId, bytes32 stakeId, string contentDatKey, string metadataDatKey);\n\n\t// Event to be broadcasted to public when `stakeOwner` updates the staked content's profit percentage\n\tevent SetProfitPercentage(address indexed stakeOwner, bytes32 indexed stakeId, uint256 newProfitPercentage);\n\n\t// Event to be broadcasted to public when `stakeOwner` unstakes some network/primordial token from an existing content\n\tevent UnstakePartialContent(address indexed stakeOwner, bytes32 indexed stakeId, bytes32 indexed contentId, uint256 remainingNetworkAmount, uint256 remainingPrimordialAmount, uint256 primordialWeightedMultiplier);\n\n\t// Event to be broadcasted to public when `stakeOwner` unstakes all token amount on an existing content\n\tevent UnstakeContent(address indexed stakeOwner, bytes32 indexed stakeId);\n\n\t// Event to be broadcasted to public when `stakeOwner` re-stakes an existing content\n\tevent StakeExistingContent(address indexed stakeOwner, bytes32 indexed stakeId, bytes32 indexed contentId, uint256 currentNetworkAmount, uint256 currentPrimordialAmount, uint256 currentPrimordialWeightedMultiplier);\n\n\t// Event to be broadcasted to public when a request node buys a content\n\tevent BuyContent(address indexed buyer, bytes32 indexed purchaseId, bytes32 indexed contentHostId, uint256 price, uint256 amountPaidByAO, uint256 amountPaidByBuyer, string publicKey, address publicAddress, uint256 createdOnTimestamp);\n\n\t// Event to be broadcasted to public when Advocate/Listener/Speaker wants to update the TAO Content's State\n\tevent UpdateTAOContentState(bytes32 indexed contentId, address indexed taoId, address signer, bytes32 taoContentState);\n\n\t// Event to be broadcasted to public when emergency mode is triggered\n\tevent EscapeHatch();\n\n\t/**\n\t * @dev Constructor function\n\t * @param _settingTAOId The TAO ID that controls the setting\n\t * @param _aoSettingAddress The address of AOSetting\n\t * @param _baseDenominationAddress The address of AO base token\n\t * @param _treasuryAddress The address of AOTreasury\n\t * @param _earningAddress The address of AOEarning\n\t * @param _nameTAOPositionAddress The address of NameTAOPosition\n\t */\n\tconstructor(address _settingTAOId, address _aoSettingAddress, address _baseDenominationAddress, address _treasuryAddress, address _earningAddress, address _nameTAOPositionAddress) public {\n\t\tsettingTAOId = _settingTAOId;\n\t\tbaseDenominationAddress = _baseDenominationAddress;\n\t\ttreasuryAddress = _treasuryAddress;\n\t\tnameTAOPositionAddress = _nameTAOPositionAddress;\n\n\t\t_baseAO = AOToken(_baseDenominationAddress);\n\t\t_treasury = AOTreasury(_treasuryAddress);\n\t\t_earning = AOEarning(_earningAddress);\n\t\t_aoSetting = AOSetting(_aoSettingAddress);\n\t\t_nameTAOPosition = NameTAOPosition(_nameTAOPositionAddress);\n\t}\n\n\t/**\n\t * @dev Checks if the calling contract address is The AO\n\t *\t\tOR\n\t *\t\tIf The AO is set to a Name/TAO, then check if calling address is the Advocate\n\t */\n\tmodifier onlyTheAO {\n\t\trequire (AOLibrary.isTheAO(msg.sender, theAO, nameTAOPositionAddress));\n\t\t_;\n\t}\n\n\t/**\n\t * @dev Checks if contract is currently active\n\t */\n\tmodifier isContractActive {\n\t\trequire (paused == false && killed == false);\n\t\t_;\n\t}\n\n\t/***** The AO ONLY METHODS *****/\n\t/**\n\t * @dev Transfer ownership of The AO to new address\n\t * @param _theAO The new address to be transferred\n\t */\n\tfunction transferOwnership(address _theAO) public onlyTheAO {\n\t\trequire (_theAO != address(0));\n\t\ttheAO = _theAO;\n\t}\n\n\t/**\n\t * @dev Whitelist `_account` address to transact on behalf of others\n\t * @param _account The address to whitelist\n\t * @param _whitelist Either to whitelist or not\n\t */\n\tfunction setWhitelist(address _account, bool _whitelist) public onlyTheAO {\n\t\trequire (_account != address(0));\n\t\twhitelist[_account] = _whitelist;\n\t}\n\n\t/**\n\t * @dev The AO pauses/unpauses contract\n\t * @param _paused Either to pause contract or not\n\t */\n\tfunction setPaused(bool _paused) public onlyTheAO {\n\t\tpaused = _paused;\n\t}\n\n\t/**\n\t * @dev The AO triggers emergency mode.\n\t *\n\t */\n\tfunction escapeHatch() public onlyTheAO {\n\t\trequire (killed == false);\n\t\tkilled = true;\n\t\temit EscapeHatch();\n\t}\n\n\t/**\n\t * @dev The AO updates base denomination address\n\t * @param _newBaseDenominationAddress The new address\n\t */\n\tfunction setBaseDenominationAddress(address _newBaseDenominationAddress) public onlyTheAO {\n\t\trequire (AOToken(_newBaseDenominationAddress).powerOfTen() == 0);\n\t\tbaseDenominationAddress = _newBaseDenominationAddress;\n\t\t_baseAO = AOToken(baseDenominationAddress);\n\t}\n\n\t/***** PUBLIC METHODS *****/\n\t/**\n\t * @dev Stake `_networkIntegerAmount` + `_networkFractionAmount` of network token in `_denomination` and/or `_primordialAmount` primordial Tokens for an AO Content\n\t * @param _networkIntegerAmount The integer amount of network token to stake\n\t * @param _networkFractionAmount The fraction amount of network token to stake\n\t * @param _denomination The denomination of the network token, i.e ao, kilo, mega, etc.\n\t * @param _primordialAmount The amount of primordial Token to stake\n\t * @param _baseChallenge The base challenge string (PUBLIC KEY) of the content\n\t * @param _encChallenge The encrypted challenge string (PUBLIC KEY) of the content unique to the host\n\t * @param _contentDatKey The dat key of the content\n\t * @param _metadataDatKey The dat key of the content's metadata\n\t * @param _fileSize The size of the file\n\t * @param _profitPercentage The percentage of profit the stake owner's media will charge\n\t */\n\tfunction stakeAOContent(\n\t\tuint256 _networkIntegerAmount,\n\t\tuint256 _networkFractionAmount,\n\t\tbytes8 _denomination,\n\t\tuint256 _primordialAmount,\n\t\tstring _baseChallenge,\n\t\tstring _encChallenge,\n\t\tstring _contentDatKey,\n\t\tstring _metadataDatKey,\n\t\tuint256 _fileSize,\n\t\tuint256 _profitPercentage)\n\t\tpublic isContractActive {\n\t\trequire (AOLibrary.canStake(treasuryAddress, _networkIntegerAmount, _networkFractionAmount, _denomination, _primordialAmount, _baseChallenge, _encChallenge, _contentDatKey, _metadataDatKey, _fileSize, _profitPercentage));\n\t\t(bytes32 _contentUsageType_aoContent,,,,,) = _getSettingVariables();\n\n\t\t/**\n\t\t * 1. Store this content\n\t\t * 2. Stake the network/primordial token on content\n\t\t * 3. Add the node info that hosts this content (in this case the creator himself)\n\t\t */\n\t\t_hostContent(\n\t\t\tmsg.sender,\n\t\t\t_stakeContent(\n\t\t\t\tmsg.sender,\n\t\t\t\t_storeContent(\n\t\t\t\t\tmsg.sender,\n\t\t\t\t\t_baseChallenge,\n\t\t\t\t\t_fileSize,\n\t\t\t\t\t_contentUsageType_aoContent,\n\t\t\t\t\taddress(0)\n\t\t\t\t),\n\t\t\t\t_networkIntegerAmount,\n\t\t\t\t_networkFractionAmount,\n\t\t\t\t_denomination,\n\t\t\t\t_primordialAmount,\n\t\t\t\t_profitPercentage\n\t\t\t),\n\t\t\t_encChallenge,\n\t\t\t_contentDatKey,\n\t\t\t_metadataDatKey\n\t\t);\n\t}\n\n\t/**\n\t * @dev Stake `_networkIntegerAmount` + `_networkFractionAmount` of network token in `_denomination` and/or `_primordialAmount` primordial Tokens for a Creative Commons Content\n\t * @param _networkIntegerAmount The integer amount of network token to stake\n\t * @param _networkFractionAmount The fraction amount of network token to stake\n\t * @param _denomination The denomination of the network token, i.e ao, kilo, mega, etc.\n\t * @param _primordialAmount The amount of primordial Token to stake\n\t * @param _baseChallenge The base challenge string (PUBLIC KEY) of the content\n\t * @param _encChallenge The encrypted challenge string (PUBLIC KEY) of the content unique to the host\n\t * @param _contentDatKey The dat key of the content\n\t * @param _metadataDatKey The dat key of the content's metadata\n\t * @param _fileSize The size of the file\n\t */\n\tfunction stakeCreativeCommonsContent(\n\t\tuint256 _networkIntegerAmount,\n\t\tuint256 _networkFractionAmount,\n\t\tbytes8 _denomination,\n\t\tuint256 _primordialAmount,\n\t\tstring _baseChallenge,\n\t\tstring _encChallenge,\n\t\tstring _contentDatKey,\n\t\tstring _metadataDatKey,\n\t\tuint256 _fileSize)\n\t\tpublic isContractActive {\n\t\trequire (AOLibrary.canStake(treasuryAddress, _networkIntegerAmount, _networkFractionAmount, _denomination, _primordialAmount, _baseChallenge, _encChallenge, _contentDatKey, _metadataDatKey, _fileSize, 0));\n\t\trequire (_treasury.toBase(_networkIntegerAmount, _networkFractionAmount, _denomination).add(_primordialAmount) == _fileSize);\n\n\t\t(,bytes32 _contentUsageType_creativeCommons,,,,) = _getSettingVariables();\n\n\t\t/**\n\t\t * 1. Store this content\n\t\t * 2. Stake the network/primordial token on content\n\t\t * 3. Add the node info that hosts this content (in this case the creator himself)\n\t\t */\n\t\t_hostContent(\n\t\t\tmsg.sender,\n\t\t\t_stakeContent(\n\t\t\t\tmsg.sender,\n\t\t\t\t_storeContent(\n\t\t\t\t\tmsg.sender,\n\t\t\t\t\t_baseChallenge,\n\t\t\t\t\t_fileSize,\n\t\t\t\t\t_contentUsageType_creativeCommons,\n\t\t\t\t\taddress(0)\n\t\t\t\t),\n\t\t\t\t_networkIntegerAmount,\n\t\t\t\t_networkFractionAmount,\n\t\t\t\t_denomination,\n\t\t\t\t_primordialAmount,\n\t\t\t\t0\n\t\t\t),\n\t\t\t_encChallenge,\n\t\t\t_contentDatKey,\n\t\t\t_metadataDatKey\n\t\t);\n\t}\n\n\t/**\n\t * @dev Stake `_networkIntegerAmount` + `_networkFractionAmount` of network token in `_denomination` and/or `_primordialAmount` primordial Tokens for a T(AO) Content\n\t * @param _networkIntegerAmount The integer amount of network token to stake\n\t * @param _networkFractionAmount The fraction amount of network token to stake\n\t * @param _denomination The denomination of the network token, i.e ao, kilo, mega, etc.\n\t * @param _primordialAmount The amount of primordial Token to stake\n\t * @param _baseChallenge The base challenge string (PUBLIC KEY) of the content\n\t * @param _encChallenge The encrypted challenge string (PUBLIC KEY) of the content unique to the host\n\t * @param _contentDatKey The dat key of the content\n\t * @param _metadataDatKey The dat key of the content's metadata\n\t * @param _fileSize The size of the file\n\t * @param _taoId The TAO (TAO) ID for this content (if this is a T(AO) Content)\n\t */\n\tfunction stakeTAOContent(\n\t\tuint256 _networkIntegerAmount,\n\t\tuint256 _networkFractionAmount,\n\t\tbytes8 _denomination,\n\t\tuint256 _primordialAmount,\n\t\tstring _baseChallenge,\n\t\tstring _encChallenge,\n\t\tstring _contentDatKey,\n\t\tstring _metadataDatKey,\n\t\tuint256 _fileSize,\n\t\taddress _taoId)\n\t\tpublic isContractActive {\n\t\trequire (AOLibrary.canStake(treasuryAddress, _networkIntegerAmount, _networkFractionAmount, _denomination, _primordialAmount, _baseChallenge, _encChallenge, _contentDatKey, _metadataDatKey, _fileSize, 0));\n\t\trequire (\n\t\t\t_treasury.toBase(_networkIntegerAmount, _networkFractionAmount, _denomination).add(_primordialAmount) == _fileSize &&\n\t\t\t_nameTAOPosition.senderIsPosition(msg.sender, _taoId)\n\t\t);\n\n\t\t(,,bytes32 _contentUsageType_taoContent,,,) = _getSettingVariables();\n\n\t\t/**\n\t\t * 1. Store this content\n\t\t * 2. Stake the network/primordial token on content\n\t\t * 3. Add the node info that hosts this content (in this case the creator himself)\n\t\t */\n\t\t_hostContent(\n\t\t\tmsg.sender,\n\t\t\t_stakeContent(\n\t\t\t\tmsg.sender,\n\t\t\t\t_storeContent(\n\t\t\t\t\tmsg.sender,\n\t\t\t\t\t_baseChallenge,\n\t\t\t\t\t_fileSize,\n\t\t\t\t\t_contentUsageType_taoContent,\n\t\t\t\t\t_taoId\n\t\t\t\t),\n\t\t\t\t_networkIntegerAmount,\n\t\t\t\t_networkFractionAmount,\n\t\t\t\t_denomination,\n\t\t\t\t_primordialAmount,\n\t\t\t\t0\n\t\t\t),\n\t\t\t_encChallenge,\n\t\t\t_contentDatKey,\n\t\t\t_metadataDatKey\n\t\t);\n\t}\n\n\t/**\n\t * @dev Set profit percentage on existing staked content\n\t *\t\tWill throw error if this is a Creative Commons/T(AO) Content\n\t * @param _stakeId The ID of the staked content\n\t * @param _profitPercentage The new value to be set\n\t */\n\tfunction setProfitPercentage(bytes32 _stakeId, uint256 _profitPercentage) public isContractActive {\n\t\trequire (_profitPercentage <= AOLibrary.PERCENTAGE_DIVISOR());\n\n\t\t// Make sure the staked content exist\n\t\trequire (stakedContentIndex[_stakeId] > 0);\n\n\t\tStakedContent storage _stakedContent = stakedContents[stakedContentIndex[_stakeId]];\n\t\t// Make sure the staked content owner is the same as the sender\n\t\trequire (_stakedContent.stakeOwner == msg.sender);\n\n\t\t// Make sure we are updating profit percentage for AO Content only\n\t\t// Creative Commons/T(AO) Content has 0 profit percentage\n\t\trequire (_isAOContentUsageType(_stakedContent.contentId));\n\n\t\t_stakedContent.profitPercentage = _profitPercentage;\n\n\t\temit SetProfitPercentage(msg.sender, _stakeId, _profitPercentage);\n\t}\n\n\t/**\n\t * @dev Set extra data on existing content\n\t * @param _contentId The ID of the content\n\t * @param _extraData some extra information to send to the contract for a content\n\t */\n\tfunction setContentExtraData(bytes32 _contentId, string _extraData) public isContractActive {\n\t\t// Make sure the content exist\n\t\trequire (contentIndex[_contentId] > 0);\n\n\t\tContent storage _content = contents[contentIndex[_contentId]];\n\t\t// Make sure the content creator is the same as the sender\n\t\trequire (_content.creator == msg.sender);\n\n\t\t_content.extraData = _extraData;\n\t}\n\n\t/**\n\t * @dev Return content info at a given ID\n\t * @param _contentId The ID of the content\n\t * @return address of the creator\n\t * @return file size of the content\n\t * @return the content usage type, i.e AO Content, Creative Commons, or T(AO) Content\n\t * @return The TAO ID for this content (if this is a T(AO) Content)\n\t * @return The TAO Content state, i.e Submitted, Pending Review, or Accepted to TAO\n\t * @return The V part of signature that is used to update the TAO Content State\n\t * @return The R part of signature that is used to update the TAO Content State\n\t * @return The S part of signature that is used to update the TAO Content State\n\t * @return the extra information sent to the contract when creating a content\n\t */\n\tfunction contentById(bytes32 _contentId) public view returns (address, uint256, bytes32, address, bytes32, uint8, bytes32, bytes32, string) {\n\t\t// Make sure the content exist\n\t\trequire (contentIndex[_contentId] > 0);\n\t\tContent memory _content = contents[contentIndex[_contentId]];\n\t\treturn (\n\t\t\t_content.creator,\n\t\t\t_content.fileSize,\n\t\t\t_content.contentUsageType,\n\t\t\t_content.taoId,\n\t\t\t_content.taoContentState,\n\t\t\t_content.updateTAOContentStateV,\n\t\t\t_content.updateTAOContentStateR,\n\t\t\t_content.updateTAOContentStateS,\n\t\t\t_content.extraData\n\t\t);\n\t}\n\n\t/**\n\t * @dev Return content host info at a given ID\n\t * @param _contentHostId The ID of the hosted content\n\t * @return The ID of the staked content\n\t * @return address of the host\n\t * @return the dat key of the content\n\t * @return the dat key of the content's metadata\n\t */\n\tfunction contentHostById(bytes32 _contentHostId) public view returns (bytes32, address, string, string) {\n\t\t// Make sure the content host exist\n\t\trequire (contentHostIndex[_contentHostId] > 0);\n\t\tContentHost memory _contentHost = contentHosts[contentHostIndex[_contentHostId]];\n\t\treturn (\n\t\t\t_contentHost.stakeId,\n\t\t\t_contentHost.host,\n\t\t\t_contentHost.contentDatKey,\n\t\t\t_contentHost.metadataDatKey\n\t\t);\n\t}\n\n\t/**\n\t * @dev Return staked content information at a given ID\n\t * @param _stakeId The ID of the staked content\n\t * @return The ID of the content being staked\n\t * @return address of the staked content's owner\n\t * @return the network base token amount staked for this content\n\t * @return the primordial token amount staked for this content\n\t * @return the primordial weighted multiplier of the staked content\n\t * @return the profit percentage of the content\n\t * @return status of the staked content\n\t * @return the timestamp when the staked content was created\n\t */\n\tfunction stakedContentById(bytes32 _stakeId) public view returns (bytes32, address, uint256, uint256, uint256, uint256, bool, uint256) {\n\t\t// Make sure the staked content exist\n\t\trequire (stakedContentIndex[_stakeId] > 0);\n\n\t\tStakedContent memory _stakedContent = stakedContents[stakedContentIndex[_stakeId]];\n\t\treturn (\n\t\t\t_stakedContent.contentId,\n\t\t\t_stakedContent.stakeOwner,\n\t\t\t_stakedContent.networkAmount,\n\t\t\t_stakedContent.primordialAmount,\n\t\t\t_stakedContent.primordialWeightedMultiplier,\n\t\t\t_stakedContent.profitPercentage,\n\t\t\t_stakedContent.active,\n\t\t\t_stakedContent.createdOnTimestamp\n\t\t);\n\t}\n\n\t/**\n\t * @dev Unstake existing staked content and refund partial staked amount to the stake owner\n\t *\t\tUse unstakeContent() to unstake all staked token amount. unstakePartialContent() can unstake only up to\n\t *\t\tthe mininum required to pay the fileSize\n\t * @param _stakeId The ID of the staked content\n\t * @param _networkIntegerAmount The integer amount of network token to unstake\n\t * @param _networkFractionAmount The fraction amount of network token to unstake\n\t * @param _denomination The denomination of the network token, i.e ao, kilo, mega, etc.\n\t * @param _primordialAmount The amount of primordial Token to unstake\n\t */\n\tfunction unstakePartialContent(bytes32 _stakeId, uint256 _networkIntegerAmount, uint256 _networkFractionAmount, bytes8 _denomination, uint256 _primordialAmount) public isContractActive {\n\t\t// Make sure the staked content exist\n\t\trequire (stakedContentIndex[_stakeId] > 0);\n\t\trequire (_networkIntegerAmount > 0 || _networkFractionAmount > 0 || _primordialAmount > 0);\n\n\t\tStakedContent storage _stakedContent = stakedContents[stakedContentIndex[_stakeId]];\n\t\tuint256 _fileSize = contents[contentIndex[_stakedContent.contentId]].fileSize;\n\n\t\t// Make sure the staked content owner is the same as the sender\n\t\trequire (_stakedContent.stakeOwner == msg.sender);\n\t\t// Make sure the staked content is currently active (staked) with some amounts\n\t\trequire (_stakedContent.active == true && (_stakedContent.networkAmount > 0 || (_stakedContent.primordialAmount > 0 && _stakedContent.primordialWeightedMultiplier > 0)));\n\t\t// Make sure the staked content has enough balance to unstake\n\t\trequire (AOLibrary.canUnstakePartial(treasuryAddress, _networkIntegerAmount, _networkFractionAmount, _denomination, _primordialAmount, _stakedContent.networkAmount, _stakedContent.primordialAmount, _fileSize));\n\n\t\tif (_denomination[0] != 0 && (_networkIntegerAmount > 0 || _networkFractionAmount > 0)) {\n\t\t\tuint256 _unstakeNetworkAmount = _treasury.toBase(_networkIntegerAmount, _networkFractionAmount, _denomination);\n\t\t\t_stakedContent.networkAmount = _stakedContent.networkAmount.sub(_unstakeNetworkAmount);\n\t\t\trequire (_baseAO.unstakeFrom(msg.sender, _unstakeNetworkAmount));\n\t\t}\n\t\tif (_primordialAmount > 0) {\n\t\t\t_stakedContent.primordialAmount = _stakedContent.primordialAmount.sub(_primordialAmount);\n\t\t\trequire (_baseAO.unstakePrimordialTokenFrom(msg.sender, _primordialAmount, _stakedContent.primordialWeightedMultiplier));\n\t\t}\n\t\temit UnstakePartialContent(_stakedContent.stakeOwner, _stakedContent.stakeId, _stakedContent.contentId, _stakedContent.networkAmount, _stakedContent.primordialAmount, _stakedContent.primordialWeightedMultiplier);\n\t}\n\n\t/**\n\t * @dev Unstake existing staked content and refund the total staked amount to the stake owner\n\t * @param _stakeId The ID of the staked content\n\t */\n\tfunction unstakeContent(bytes32 _stakeId) public isContractActive {\n\t\t// Make sure the staked content exist\n\t\trequire (stakedContentIndex[_stakeId] > 0);\n\n\t\tStakedContent storage _stakedContent = stakedContents[stakedContentIndex[_stakeId]];\n\t\t// Make sure the staked content owner is the same as the sender\n\t\trequire (_stakedContent.stakeOwner == msg.sender);\n\t\t// Make sure the staked content is currently active (staked) with some amounts\n\t\trequire (_stakedContent.active == true && (_stakedContent.networkAmount > 0 || (_stakedContent.primordialAmount > 0 && _stakedContent.primordialWeightedMultiplier > 0)));\n\n\t\t_stakedContent.active = false;\n\n\t\tif (_stakedContent.networkAmount > 0) {\n\t\t\tuint256 _unstakeNetworkAmount = _stakedContent.networkAmount;\n\t\t\t_stakedContent.networkAmount = 0;\n\t\t\trequire (_baseAO.unstakeFrom(msg.sender, _unstakeNetworkAmount));\n\t\t}\n\t\tif (_stakedContent.primordialAmount > 0) {\n\t\t\tuint256 _primordialAmount = _stakedContent.primordialAmount;\n\t\t\tuint256 _primordialWeightedMultiplier = _stakedContent.primordialWeightedMultiplier;\n\t\t\t_stakedContent.primordialAmount = 0;\n\t\t\t_stakedContent.primordialWeightedMultiplier = 0;\n\t\t\trequire (_baseAO.unstakePrimordialTokenFrom(msg.sender, _primordialAmount, _primordialWeightedMultiplier));\n\t\t}\n\t\temit UnstakeContent(_stakedContent.stakeOwner, _stakeId);\n\t}\n\n\t/**\n\t * @dev Stake existing content with more tokens (this is to increase the price)\n\t *\n\t * @param _stakeId The ID of the staked content\n\t * @param _networkIntegerAmount The integer amount of network token to stake\n\t * @param _networkFractionAmount The fraction amount of network token to stake\n\t * @param _denomination The denomination of the network token, i.e ao, kilo, mega, etc.\n\t * @param _primordialAmount The amount of primordial Token to stake. (The primordial weighted multiplier has to match the current staked weighted multiplier)\n\t */\n\tfunction stakeExistingContent(bytes32 _stakeId, uint256 _networkIntegerAmount, uint256 _networkFractionAmount, bytes8 _denomination, uint256 _primordialAmount) public isContractActive {\n\t\t// Make sure the staked content exist\n\t\trequire (stakedContentIndex[_stakeId] > 0);\n\n\t\tStakedContent storage _stakedContent = stakedContents[stakedContentIndex[_stakeId]];\n\t\tuint256 _fileSize = contents[contentIndex[_stakedContent.contentId]].fileSize;\n\n\t\t// Make sure the staked content owner is the same as the sender\n\t\trequire (_stakedContent.stakeOwner == msg.sender);\n\t\trequire (_networkIntegerAmount > 0 || _networkFractionAmount > 0 || _primordialAmount > 0);\n\t\trequire (AOLibrary.canStakeExisting(treasuryAddress, _isAOContentUsageType(_stakedContent.contentId), _fileSize, _stakedContent.networkAmount.add(_stakedContent.primordialAmount), _networkIntegerAmount, _networkFractionAmount, _denomination, _primordialAmount));\n\n\t\t// Make sure we can stake primordial token\n\t\t// If we are currently staking an active staked content, then the stake owner's weighted multiplier has to match `stakedContent.primordialWeightedMultiplier`\n\t\t// i.e, can't use a combination of different weighted multiplier. Stake owner has to call unstakeContent() to unstake all tokens first\n\t\tif (_primordialAmount > 0 && _stakedContent.active && _stakedContent.primordialAmount > 0 && _stakedContent.primordialWeightedMultiplier > 0) {\n\t\t\trequire (_baseAO.weightedMultiplierByAddress(msg.sender) == _stakedContent.primordialWeightedMultiplier);\n\t\t}\n\n\t\t_stakedContent.active = true;\n\t\tif (_denomination[0] != 0 && (_networkIntegerAmount > 0 || _networkFractionAmount > 0)) {\n\t\t\tuint256 _stakeNetworkAmount = _treasury.toBase(_networkIntegerAmount, _networkFractionAmount, _denomination);\n\t\t\t_stakedContent.networkAmount = _stakedContent.networkAmount.add(_stakeNetworkAmount);\n\t\t\trequire (_baseAO.stakeFrom(_stakedContent.stakeOwner, _stakeNetworkAmount));\n\t\t}\n\t\tif (_primordialAmount > 0) {\n\t\t\t_stakedContent.primordialAmount = _stakedContent.primordialAmount.add(_primordialAmount);\n\n\t\t\t// Primordial Token is the base AO Token\n\t\t\t_stakedContent.primordialWeightedMultiplier = _baseAO.weightedMultiplierByAddress(_stakedContent.stakeOwner);\n\t\t\trequire (_baseAO.stakePrimordialTokenFrom(_stakedContent.stakeOwner, _primordialAmount, _stakedContent.primordialWeightedMultiplier));\n\t\t}\n\n\t\temit StakeExistingContent(msg.sender, _stakedContent.stakeId, _stakedContent.contentId, _stakedContent.networkAmount, _stakedContent.primordialAmount, _stakedContent.primordialWeightedMultiplier);\n\t}\n\n\t/**\n\t * @dev Determine the content price hosted by a host\n\t * @param _contentHostId The content host ID to be checked\n\t * @return the price of the content\n\t */\n\tfunction contentHostPrice(bytes32 _contentHostId) public isContractActive view returns (uint256) {\n\t\t// Make sure content host exist\n\t\trequire (contentHostIndex[_contentHostId] > 0);\n\n\t\tbytes32 _stakeId = contentHosts[contentHostIndex[_contentHostId]].stakeId;\n\t\tStakedContent memory _stakedContent = stakedContents[stakedContentIndex[_stakeId]];\n\t\t// Make sure content is currently staked\n\t\trequire (_stakedContent.active == true && (_stakedContent.networkAmount > 0 || (_stakedContent.primordialAmount > 0 && _stakedContent.primordialWeightedMultiplier > 0)));\n\t\treturn _stakedContent.networkAmount.add(_stakedContent.primordialAmount);\n\t}\n\n\t/**\n\t * @dev Determine the how much the content is paid by AO given a contentHostId\n\t * @param _contentHostId The content host ID to be checked\n\t * @return the amount paid by AO\n\t */\n\tfunction contentHostPaidByAO(bytes32 _contentHostId) public isContractActive view returns (uint256) {\n\t\tbytes32 _stakeId = contentHosts[contentHostIndex[_contentHostId]].stakeId;\n\t\tbytes32 _contentId = stakedContents[stakedContentIndex[_stakeId]].contentId;\n\t\tif (_isAOContentUsageType(_contentId)) {\n\t\t\treturn 0;\n\t\t} else {\n\t\t\treturn contentHostPrice(_contentHostId);\n\t\t}\n\t}\n\n\t/**\n\t * @dev Bring content in to the requesting node by sending network tokens to the contract to pay for the content\n\t * @param _contentHostId The ID of hosted content\n\t * @param _networkIntegerAmount The integer amount of network token to pay\n\t * @param _networkFractionAmount The fraction amount of network token to pay\n\t * @param _denomination The denomination of the network token, i.e ao, kilo, mega, etc.\n\t * @param _publicKey The public key of the request node\n\t * @param _publicAddress The public address of the request node\n\t */\n\tfunction buyContent(bytes32 _contentHostId, uint256 _networkIntegerAmount, uint256 _networkFractionAmount, bytes8 _denomination, string _publicKey, address _publicAddress) public isContractActive {\n\t\t// Make sure the content host exist\n\t\trequire (contentHostIndex[_contentHostId] > 0);\n\n\t\t// Make sure public key is not empty\n\t\trequire (bytes(_publicKey).length > 0);\n\n\t\t// Make sure public address is valid\n\t\trequire (_publicAddress != address(0));\n\n\t\tContentHost memory _contentHost = contentHosts[contentHostIndex[_contentHostId]];\n\t\tStakedContent memory _stakedContent = stakedContents[stakedContentIndex[_contentHost.stakeId]];\n\n\t\t// Make sure the content currently has stake\n\t\trequire (_stakedContent.active == true && (_stakedContent.networkAmount > 0 || (_stakedContent.primordialAmount > 0 && _stakedContent.primordialWeightedMultiplier > 0)));\n\n\t\t// Make sure the buyer has not bought this content previously\n\t\trequire (buyerPurchaseReceipts[msg.sender][_contentHostId][0] == 0);\n\n\t\t// Make sure the token amount can pay for the content price\n\t\tif (_isAOContentUsageType(_stakedContent.contentId)) {\n\t\t\trequire (AOLibrary.canBuy(treasuryAddress, _stakedContent.networkAmount.add(_stakedContent.primordialAmount), _networkIntegerAmount, _networkFractionAmount, _denomination));\n\t\t}\n\n\t\t// Increment totalPurchaseReceipts;\n\t\ttotalPurchaseReceipts++;\n\n\t\t// Generate purchaseId\n\t\tbytes32 _purchaseId = keccak256(abi.encodePacked(this, msg.sender, _contentHostId));\n\t\tPurchaseReceipt storage _purchaseReceipt = purchaseReceipts[totalPurchaseReceipts];\n\n\t\t// Make sure the node doesn't buy the same content twice\n\t\trequire (_purchaseReceipt.buyer == address(0));\n\n\t\t_purchaseReceipt.purchaseId = _purchaseId;\n\t\t_purchaseReceipt.contentHostId = _contentHostId;\n\t\t_purchaseReceipt.buyer = msg.sender;\n\t\t// Update the receipt with the correct network amount\n\t\t_purchaseReceipt.price = _stakedContent.networkAmount.add(_stakedContent.primordialAmount);\n\t\t_purchaseReceipt.amountPaidByAO = contentHostPaidByAO(_contentHostId);\n\t\t_purchaseReceipt.amountPaidByBuyer = _purchaseReceipt.price.sub(_purchaseReceipt.amountPaidByAO);\n\t\t_purchaseReceipt.publicKey = _publicKey;\n\t\t_purchaseReceipt.publicAddress = _publicAddress;\n\t\t_purchaseReceipt.createdOnTimestamp = now;\n\n\t\tpurchaseReceiptIndex[_purchaseId] = totalPurchaseReceipts;\n\t\tbuyerPurchaseReceipts[msg.sender][_contentHostId] = _purchaseId;\n\n\t\t// Calculate content creator/host/The AO earning from this purchase and store them in escrow\n\t\trequire (_earning.calculateEarning(\n\t\t\tmsg.sender,\n\t\t\t_purchaseId,\n\t\t\t_stakedContent.networkAmount,\n\t\t\t_stakedContent.primordialAmount,\n\t\t\t_stakedContent.primordialWeightedMultiplier,\n\t\t\t_stakedContent.profitPercentage,\n\t\t\t_stakedContent.stakeOwner,\n\t\t\t_contentHost.host,\n\t\t\t_isAOContentUsageType(_stakedContent.contentId)\n\t\t));\n\n\t\temit BuyContent(_purchaseReceipt.buyer, _purchaseReceipt.purchaseId, _purchaseReceipt.contentHostId, _purchaseReceipt.price, _purchaseReceipt.amountPaidByAO, _purchaseReceipt.amountPaidByBuyer, _purchaseReceipt.publicKey, _purchaseReceipt.publicAddress, _purchaseReceipt.createdOnTimestamp);\n\t}\n\n\t/**\n\t * @dev Return purchase receipt info at a given ID\n\t * @param _purchaseId The ID of the purchased content\n\t * @return The ID of the content host\n\t * @return address of the buyer\n\t * @return price of the content\n\t * @return amount paid by AO\n\t * @return amount paid by Buyer\n\t * @return request node's public key\n\t * @return request node's public address\n\t * @return created on timestamp\n\t */\n\tfunction purchaseReceiptById(bytes32 _purchaseId) public view returns (bytes32, address, uint256, uint256, uint256, string, address, uint256) {\n\t\t// Make sure the purchase receipt exist\n\t\trequire (purchaseReceiptIndex[_purchaseId] > 0);\n\t\tPurchaseReceipt memory _purchaseReceipt = purchaseReceipts[purchaseReceiptIndex[_purchaseId]];\n\t\treturn (\n\t\t\t_purchaseReceipt.contentHostId,\n\t\t\t_purchaseReceipt.buyer,\n\t\t\t_purchaseReceipt.price,\n\t\t\t_purchaseReceipt.amountPaidByAO,\n\t\t\t_purchaseReceipt.amountPaidByBuyer,\n\t\t\t_purchaseReceipt.publicKey,\n\t\t\t_purchaseReceipt.publicAddress,\n\t\t\t_purchaseReceipt.createdOnTimestamp\n\t\t);\n\t}\n\n\t/**\n\t * @dev Request node wants to become a distribution node after buying the content\n\t *\t\tAlso, if this transaction succeeds, contract will release all of the earnings that are\n\t *\t\tcurrently in escrow for content creator/host/The AO\n\t */\n\tfunction becomeHost(\n\t\tbytes32 _purchaseId,\n\t\tuint8 _baseChallengeV,\n\t\tbytes32 _baseChallengeR,\n\t\tbytes32 _baseChallengeS,\n\t\tstring _encChallenge,\n\t\tstring _contentDatKey,\n\t\tstring _metadataDatKey\n\t) public isContractActive {\n\t\t// Make sure the purchase receipt exist\n\t\trequire (purchaseReceiptIndex[_purchaseId] > 0);\n\n\t\tPurchaseReceipt memory _purchaseReceipt = purchaseReceipts[purchaseReceiptIndex[_purchaseId]];\n\t\tbytes32 _stakeId = contentHosts[contentHostIndex[_purchaseReceipt.contentHostId]].stakeId;\n\t\tbytes32 _contentId = stakedContents[stakedContentIndex[_stakeId]].contentId;\n\n\t\t// Make sure the purchase receipt owner is the same as the sender\n\t\trequire (_purchaseReceipt.buyer == msg.sender);\n\n\t\t// Verify that the file is not tampered by validating the base challenge signature\n\t\t// The signed base challenge key should match the one from content creator\n\t\tContent memory _content = contents[contentIndex[_contentId]];\n\t\trequire (AOLibrary.getBecomeHostSignatureAddress(address(this), _content.baseChallenge, _baseChallengeV, _baseChallengeR, _baseChallengeS) == _purchaseReceipt.publicAddress);\n\n\t\t_hostContent(msg.sender, _stakeId, _encChallenge, _contentDatKey, _metadataDatKey);\n\n\t\t// Release earning from escrow\n\t\trequire (_earning.releaseEarning(\n\t\t\t_stakeId,\n\t\t\t_purchaseReceipt.contentHostId,\n\t\t\t_purchaseId,\n\t\t\t(_purchaseReceipt.amountPaidByBuyer > _content.fileSize),\n\t\t\tstakedContents[stakedContentIndex[_stakeId]].stakeOwner,\n\t\t\tcontentHosts[contentHostIndex[_purchaseReceipt.contentHostId]].host)\n\t\t);\n\t}\n\n\t/**\n\t * @dev Update the TAO Content State of a T(AO) Content\n\t * @param _contentId The ID of the Content\n\t * @param _taoId The ID of the TAO that initiates the update\n\t * @param _taoContentState The TAO Content state value, i.e Submitted, Pending Review, or Accepted to TAO\n\t * @param _updateTAOContentStateV The V part of the signature for this update\n\t * @param _updateTAOContentStateR The R part of the signature for this update\n\t * @param _updateTAOContentStateS The S part of the signature for this update\n\t */\n\tfunction updateTAOContentState(\n\t\tbytes32 _contentId,\n\t\taddress _taoId,\n\t\tbytes32 _taoContentState,\n\t\tuint8 _updateTAOContentStateV,\n\t\tbytes32 _updateTAOContentStateR,\n\t\tbytes32 _updateTAOContentStateS\n\t) public isContractActive {\n\t\t// Make sure the content exist\n\t\trequire (contentIndex[_contentId] > 0);\n\t\trequire (AOLibrary.isTAO(_taoId));\n\t\t(,, bytes32 _contentUsageType_taoContent, bytes32 taoContentState_submitted, bytes32 taoContentState_pendingReview, bytes32 taoContentState_acceptedToTAO) = _getSettingVariables();\n\t\trequire (_taoContentState == taoContentState_submitted || _taoContentState == taoContentState_pendingReview || _taoContentState == taoContentState_acceptedToTAO);\n\n\t\taddress _signatureAddress = AOLibrary.getUpdateTAOContentStateSignatureAddress(address(this), _contentId, _taoId, _taoContentState, _updateTAOContentStateV, _updateTAOContentStateR, _updateTAOContentStateS);\n\n\t\tContent storage _content = contents[contentIndex[_contentId]];\n\t\t// Make sure that the signature address is one of content's TAO ID's Advocate/Listener/Speaker\n\t\trequire (_signatureAddress == msg.sender && _nameTAOPosition.senderIsPosition(_signatureAddress, _content.taoId));\n\t\trequire (_content.contentUsageType == _contentUsageType_taoContent);\n\n\t\t_content.taoContentState = _taoContentState;\n\t\t_content.updateTAOContentStateV = _updateTAOContentStateV;\n\t\t_content.updateTAOContentStateR = _updateTAOContentStateR;\n\t\t_content.updateTAOContentStateS = _updateTAOContentStateS;\n\n\t\temit UpdateTAOContentState(_contentId, _taoId, _signatureAddress, _taoContentState);\n\t}\n\n\t/***** INTERNAL METHODS *****/\n\t/**\n\t * @dev Store the content information (content creation during staking)\n\t * @param _creator the address of the content creator\n\t * @param _baseChallenge The base challenge string (PUBLIC KEY) of the content\n\t * @param _fileSize The size of the file\n\t * @param _contentUsageType The content usage type, i.e AO Content, Creative Commons, or T(AO) Content\n\t * @param _taoId The TAO (TAO) ID for this content (if this is a T(AO) Content)\n\t * @return the ID of the content\n\t */\n\tfunction _storeContent(address _creator, string _baseChallenge, uint256 _fileSize, bytes32 _contentUsageType, address _taoId) internal returns (bytes32) {\n\t\t// Increment totalContents\n\t\ttotalContents++;\n\n\t\t// Generate contentId\n\t\tbytes32 _contentId = keccak256(abi.encodePacked(this, _creator, totalContents));\n\t\tContent storage _content = contents[totalContents];\n\n\t\t// Make sure the node does't store the same content twice\n\t\trequire (_content.creator == address(0));\n\n\t\t(,,bytes32 contentUsageType_taoContent, bytes32 taoContentState_submitted,,) = _getSettingVariables();\n\n\t\t_content.contentId = _contentId;\n\t\t_content.creator = _creator;\n\t\t_content.baseChallenge = _baseChallenge;\n\t\t_content.fileSize = _fileSize;\n\t\t_content.contentUsageType = _contentUsageType;\n\n\t\t// If this is a TAO Content\n\t\tif (_contentUsageType == contentUsageType_taoContent) {\n\t\t\t_content.taoContentState = taoContentState_submitted;\n\t\t\t_content.taoId = _taoId;\n\t\t}\n\n\t\tcontentIndex[_contentId] = totalContents;\n\n\t\temit StoreContent(_content.creator, _content.contentId, _content.fileSize, _content.contentUsageType);\n\t\treturn _content.contentId;\n\t}\n\n\t/**\n\t * @dev Add the distribution node info that hosts the content\n\t * @param _host the address of the host\n\t * @param _stakeId The ID of the staked content\n\t * @param _encChallenge The encrypted challenge string (PUBLIC KEY) of the content unique to the host\n\t * @param _contentDatKey The dat key of the content\n\t * @param _metadataDatKey The dat key of the content's metadata\n\t */\n\tfunction _hostContent(address _host, bytes32 _stakeId, string _encChallenge, string _contentDatKey, string _metadataDatKey) internal {\n\t\trequire (bytes(_encChallenge).length > 0);\n\t\trequire (bytes(_contentDatKey).length > 0);\n\t\trequire (bytes(_metadataDatKey).length > 0);\n\t\trequire (stakedContentIndex[_stakeId] > 0);\n\n\t\t// Increment totalContentHosts\n\t\ttotalContentHosts++;\n\n\t\t// Generate contentId\n\t\tbytes32 _contentHostId = keccak256(abi.encodePacked(this, _host, _stakeId));\n\n\t\tContentHost storage _contentHost = contentHosts[totalContentHosts];\n\n\t\t// Make sure the node doesn't host the same content twice\n\t\trequire (_contentHost.host == address(0));\n\n\t\t_contentHost.contentHostId = _contentHostId;\n\t\t_contentHost.stakeId = _stakeId;\n\t\t_contentHost.host = _host;\n\t\t_contentHost.encChallenge = _encChallenge;\n\t\t_contentHost.contentDatKey = _contentDatKey;\n\t\t_contentHost.metadataDatKey = _metadataDatKey;\n\n\t\tcontentHostIndex[_contentHostId] = totalContentHosts;\n\n\t\temit HostContent(_contentHost.host, _contentHost.contentHostId, _contentHost.stakeId, _contentHost.contentDatKey, _contentHost.metadataDatKey);\n\t}\n\n\t/**\n\t * @dev actual staking the content\n\t * @param _stakeOwner the address that stake the content\n\t * @param _contentId The ID of the content\n\t * @param _networkIntegerAmount The integer amount of network token to stake\n\t * @param _networkFractionAmount The fraction amount of network token to stake\n\t * @param _denomination The denomination of the network token, i.e ao, kilo, mega, etc.\n\t * @param _primordialAmount The amount of primordial Token to stake\n\t * @param _profitPercentage The percentage of profit the stake owner's media will charge\n\t * @return the newly created staked content ID\n\t */\n\tfunction _stakeContent(address _stakeOwner, bytes32 _contentId, uint256 _networkIntegerAmount, uint256 _networkFractionAmount, bytes8 _denomination, uint256 _primordialAmount, uint256 _profitPercentage) internal returns (bytes32) {\n\t\t// Increment totalStakedContents\n\t\ttotalStakedContents++;\n\n\t\t// Generate stakeId\n\t\tbytes32 _stakeId = keccak256(abi.encodePacked(this, _stakeOwner, _contentId));\n\t\tStakedContent storage _stakedContent = stakedContents[totalStakedContents];\n\n\t\t// Make sure the node doesn't stake the same content twice\n\t\trequire (_stakedContent.stakeOwner == address(0));\n\n\t\t_stakedContent.stakeId = _stakeId;\n\t\t_stakedContent.contentId = _contentId;\n\t\t_stakedContent.stakeOwner = _stakeOwner;\n\t\t_stakedContent.profitPercentage = _profitPercentage;\n\t\t_stakedContent.active = true;\n\t\t_stakedContent.createdOnTimestamp = now;\n\n\t\tstakedContentIndex[_stakeId] = totalStakedContents;\n\n\t\tif (_denomination[0] != 0 && (_networkIntegerAmount > 0 || _networkFractionAmount > 0)) {\n\t\t\t_stakedContent.networkAmount = _treasury.toBase(_networkIntegerAmount, _networkFractionAmount, _denomination);\n\t\t\trequire (_baseAO.stakeFrom(_stakeOwner, _stakedContent.networkAmount));\n\t\t}\n\t\tif (_primordialAmount > 0) {\n\t\t\t_stakedContent.primordialAmount = _primordialAmount;\n\n\t\t\t// Primordial Token is the base AO Token\n\t\t\t_stakedContent.primordialWeightedMultiplier = _baseAO.weightedMultiplierByAddress(_stakedContent.stakeOwner);\n\t\t\trequire (_baseAO.stakePrimordialTokenFrom(_stakedContent.stakeOwner, _primordialAmount, _stakedContent.primordialWeightedMultiplier));\n\t\t}\n\n\t\temit StakeContent(_stakedContent.stakeOwner, _stakedContent.stakeId, _stakedContent.contentId, _stakedContent.networkAmount, _stakedContent.primordialAmount, _stakedContent.primordialWeightedMultiplier, _stakedContent.profitPercentage, _stakedContent.createdOnTimestamp);\n\n\t\treturn _stakedContent.stakeId;\n\t}\n\n\t/**\n\t * @dev Get setting variables\n\t * @return contentUsageType_aoContent Content Usage Type = AO Content\n\t * @return contentUsageType_creativeCommons Content Usage Type = Creative Commons\n\t * @return contentUsageType_taoContent Content Usage Type = T(AO) Content\n\t * @return taoContentState_submitted TAO Content State = Submitted\n\t * @return taoContentState_pendingReview TAO Content State = Pending Review\n\t * @return taoContentState_acceptedToTAO TAO Content State = Accepted to TAO\n\t */\n\tfunction _getSettingVariables() internal view returns (bytes32, bytes32, bytes32, bytes32, bytes32, bytes32) {\n\t\t(,,,bytes32 contentUsageType_aoContent,) = _aoSetting.getSettingValuesByTAOName(settingTAOId, 'contentUsageType_aoContent');\n\t\t(,,,bytes32 contentUsageType_creativeCommons,) = _aoSetting.getSettingValuesByTAOName(settingTAOId, 'contentUsageType_creativeCommons');\n\t\t(,,,bytes32 contentUsageType_taoContent,) = _aoSetting.getSettingValuesByTAOName(settingTAOId, 'contentUsageType_taoContent');\n\t\t(,,,bytes32 taoContentState_submitted,) = _aoSetting.getSettingValuesByTAOName(settingTAOId, 'taoContentState_submitted');\n\t\t(,,,bytes32 taoContentState_pendingReview,) = _aoSetting.getSettingValuesByTAOName(settingTAOId, 'taoContentState_pendingReview');\n\t\t(,,,bytes32 taoContentState_acceptedToTAO,) = _aoSetting.getSettingValuesByTAOName(settingTAOId, 'taoContentState_acceptedToTAO');\n\n\t\treturn (\n\t\t\tcontentUsageType_aoContent,\n\t\t\tcontentUsageType_creativeCommons,\n\t\t\tcontentUsageType_taoContent,\n\t\t\ttaoContentState_submitted,\n\t\t\ttaoContentState_pendingReview,\n\t\t\ttaoContentState_acceptedToTAO\n\t\t);\n\t}\n\n\t/**\n\t * @dev Check whether or not the content is of AO Content Usage Type\n\t * @param _contentId The ID of the content\n\t * @return true if yes. false otherwise\n\t */\n\tfunction _isAOContentUsageType(bytes32 _contentId) internal view returns (bool) {\n\t\t(bytes32 _contentUsageType_aoContent,,,,,) = _getSettingVariables();\n\t\treturn contents[contentIndex[_contentId]].contentUsageType == _contentUsageType_aoContent;\n\t}\n}\n",
	"sourcePath": "/Users/johanmulyono/Work/AO/ao-contracts/contracts/AOContent.sol",
	"compiler": {
		"name": "solc",
		"version": "0.4.24+commit.e67f0147.Emscripten.clang"
	},
	"schemaVersion": "2.0.1",
	"updatedAt": "2019-01-07T03:04:12.888Z"
}