{
	"contractName": "AOContent",
	"abi": [
		{
			"constant": true,
			"inputs": [],
			"name": "killed",
			"outputs": [
				{
					"name": "",
					"type": "bool"
				}
			],
			"payable": false,
			"stateMutability": "view",
			"type": "function"
		},
		{
			"constant": true,
			"inputs": [],
			"name": "totalStakedContents",
			"outputs": [
				{
					"name": "",
					"type": "uint256"
				}
			],
			"payable": false,
			"stateMutability": "view",
			"type": "function"
		},
		{
			"constant": true,
			"inputs": [],
			"name": "inflationRate",
			"outputs": [
				{
					"name": "",
					"type": "uint256"
				}
			],
			"payable": false,
			"stateMutability": "view",
			"type": "function"
		},
		{
			"constant": true,
			"inputs": [],
			"name": "totalBoughtContents",
			"outputs": [
				{
					"name": "",
					"type": "uint256"
				}
			],
			"payable": false,
			"stateMutability": "view",
			"type": "function"
		},
		{
			"constant": true,
			"inputs": [
				{
					"name": "",
					"type": "address"
				},
				{
					"name": "",
					"type": "uint256"
				}
			],
			"name": "buyContentPrimordialTokenProfit",
			"outputs": [
				{
					"name": "",
					"type": "uint256"
				}
			],
			"payable": false,
			"stateMutability": "view",
			"type": "function"
		},
		{
			"constant": false,
			"inputs": [
				{
					"name": "_account",
					"type": "address"
				},
				{
					"name": "_whitelist",
					"type": "bool"
				}
			],
			"name": "setWhitelist",
			"outputs": [],
			"payable": false,
			"stateMutability": "nonpayable",
			"type": "function"
		},
		{
			"constant": true,
			"inputs": [],
			"name": "paused",
			"outputs": [
				{
					"name": "",
					"type": "bool"
				}
			],
			"payable": false,
			"stateMutability": "view",
			"type": "function"
		},
		{
			"constant": true,
			"inputs": [
				{
					"name": "",
					"type": "address"
				}
			],
			"name": "buyContentNetworkTokenProfit",
			"outputs": [
				{
					"name": "",
					"type": "uint256"
				}
			],
			"payable": false,
			"stateMutability": "view",
			"type": "function"
		},
		{
			"constant": true,
			"inputs": [],
			"name": "owner",
			"outputs": [
				{
					"name": "",
					"type": "address"
				}
			],
			"payable": false,
			"stateMutability": "view",
			"type": "function"
		},
		{
			"constant": true,
			"inputs": [
				{
					"name": "",
					"type": "address"
				}
			],
			"name": "whitelist",
			"outputs": [
				{
					"name": "",
					"type": "bool"
				}
			],
			"payable": false,
			"stateMutability": "view",
			"type": "function"
		},
		{
			"constant": true,
			"inputs": [],
			"name": "PERCENTAGE_DIVISOR",
			"outputs": [
				{
					"name": "",
					"type": "uint256"
				}
			],
			"payable": false,
			"stateMutability": "view",
			"type": "function"
		},
		{
			"constant": false,
			"inputs": [
				{
					"name": "newOwner",
					"type": "address"
				}
			],
			"name": "transferOwnership",
			"outputs": [],
			"payable": false,
			"stateMutability": "nonpayable",
			"type": "function"
		},
		{
			"inputs": [
				{
					"name": "_treasuryAddress",
					"type": "address"
				}
			],
			"payable": false,
			"stateMutability": "nonpayable",
			"type": "constructor"
		},
		{
			"anonymous": false,
			"inputs": [
				{
					"indexed": true,
					"name": "stakeOwner",
					"type": "address"
				},
				{
					"indexed": true,
					"name": "stakeId",
					"type": "bytes32"
				},
				{
					"indexed": false,
					"name": "networkIntegerAmount",
					"type": "uint256"
				},
				{
					"indexed": false,
					"name": "networkFractionAmount",
					"type": "uint256"
				},
				{
					"indexed": false,
					"name": "denomination",
					"type": "bytes8"
				},
				{
					"indexed": false,
					"name": "totalNetworkBaseAmount",
					"type": "uint256"
				},
				{
					"indexed": false,
					"name": "primordialAmount",
					"type": "uint256"
				},
				{
					"indexed": false,
					"name": "primordialWeightedIndex",
					"type": "uint256"
				},
				{
					"indexed": false,
					"name": "datKey",
					"type": "string"
				},
				{
					"indexed": false,
					"name": "fileSize",
					"type": "uint256"
				},
				{
					"indexed": false,
					"name": "profitPercentage",
					"type": "uint256"
				},
				{
					"indexed": false,
					"name": "createdOnTimestamp",
					"type": "uint256"
				}
			],
			"name": "StakeContent",
			"type": "event"
		},
		{
			"anonymous": false,
			"inputs": [
				{
					"indexed": true,
					"name": "stakeOwner",
					"type": "address"
				},
				{
					"indexed": true,
					"name": "stakeId",
					"type": "bytes32"
				},
				{
					"indexed": false,
					"name": "newProfitPercentage",
					"type": "uint256"
				}
			],
			"name": "SetProfitPercentage",
			"type": "event"
		},
		{
			"anonymous": false,
			"inputs": [
				{
					"indexed": true,
					"name": "stakeOwner",
					"type": "address"
				},
				{
					"indexed": true,
					"name": "stakeId",
					"type": "bytes32"
				},
				{
					"indexed": false,
					"name": "remainingNetworkAmount",
					"type": "uint256"
				},
				{
					"indexed": false,
					"name": "remainingPrimordialAmount",
					"type": "uint256"
				},
				{
					"indexed": false,
					"name": "primordialWeightedIndex",
					"type": "uint256"
				}
			],
			"name": "UnstakePartialContent",
			"type": "event"
		},
		{
			"anonymous": false,
			"inputs": [
				{
					"indexed": true,
					"name": "stakeOwner",
					"type": "address"
				},
				{
					"indexed": true,
					"name": "stakeId",
					"type": "bytes32"
				}
			],
			"name": "UnstakeContent",
			"type": "event"
		},
		{
			"anonymous": false,
			"inputs": [
				{
					"indexed": true,
					"name": "stakeOwner",
					"type": "address"
				},
				{
					"indexed": true,
					"name": "stakeId",
					"type": "bytes32"
				},
				{
					"indexed": false,
					"name": "currentNetworkAmount",
					"type": "uint256"
				},
				{
					"indexed": false,
					"name": "currentPrimordialAmount",
					"type": "uint256"
				},
				{
					"indexed": false,
					"name": "currentPrimordialWeightedIndex",
					"type": "uint256"
				}
			],
			"name": "StakeExistingContent",
			"type": "event"
		},
		{
			"anonymous": false,
			"inputs": [
				{
					"indexed": true,
					"name": "sender",
					"type": "address"
				},
				{
					"indexed": true,
					"name": "recipient",
					"type": "address"
				},
				{
					"indexed": true,
					"name": "buyId",
					"type": "bytes32"
				},
				{
					"indexed": false,
					"name": "stakeId",
					"type": "bytes32"
				},
				{
					"indexed": false,
					"name": "networkAmount",
					"type": "uint256"
				},
				{
					"indexed": false,
					"name": "networkProfitAmount",
					"type": "uint256"
				},
				{
					"indexed": false,
					"name": "profitPercentage",
					"type": "uint256"
				},
				{
					"indexed": false,
					"name": "recipientType",
					"type": "uint8"
				}
			],
			"name": "BuyContentNetworkTokenEarning",
			"type": "event"
		},
		{
			"anonymous": false,
			"inputs": [
				{
					"indexed": true,
					"name": "sender",
					"type": "address"
				},
				{
					"indexed": true,
					"name": "recipient",
					"type": "address"
				},
				{
					"indexed": true,
					"name": "buyId",
					"type": "bytes32"
				},
				{
					"indexed": false,
					"name": "stakeId",
					"type": "bytes32"
				},
				{
					"indexed": false,
					"name": "primordialAmount",
					"type": "uint256"
				},
				{
					"indexed": false,
					"name": "primordialWeightedIndex",
					"type": "uint256"
				},
				{
					"indexed": false,
					"name": "primordialProfitAmount",
					"type": "uint256"
				},
				{
					"indexed": false,
					"name": "profitPercentage",
					"type": "uint256"
				},
				{
					"indexed": false,
					"name": "recipientType",
					"type": "uint8"
				}
			],
			"name": "BuyContentPrimordialTokenEarning",
			"type": "event"
		},
		{
			"anonymous": false,
			"inputs": [
				{
					"indexed": true,
					"name": "buyer",
					"type": "address"
				},
				{
					"indexed": false,
					"name": "buyId",
					"type": "bytes32"
				},
				{
					"indexed": false,
					"name": "stakeId",
					"type": "bytes32"
				},
				{
					"indexed": false,
					"name": "host",
					"type": "address"
				},
				{
					"indexed": false,
					"name": "networkIntegerAmount",
					"type": "uint256"
				},
				{
					"indexed": false,
					"name": "networkFractionAmount",
					"type": "uint256"
				},
				{
					"indexed": false,
					"name": "denomination",
					"type": "bytes8"
				},
				{
					"indexed": false,
					"name": "totalNetworkAmount",
					"type": "uint256"
				},
				{
					"indexed": false,
					"name": "primordialAmount",
					"type": "uint256"
				},
				{
					"indexed": false,
					"name": "primordialWeightedIndex",
					"type": "uint256"
				}
			],
			"name": "BuyContent",
			"type": "event"
		},
		{
			"anonymous": false,
			"inputs": [],
			"name": "EscapeHatch",
			"type": "event"
		},
		{
			"constant": false,
			"inputs": [
				{
					"name": "_paused",
					"type": "bool"
				}
			],
			"name": "setPaused",
			"outputs": [],
			"payable": false,
			"stateMutability": "nonpayable",
			"type": "function"
		},
		{
			"constant": false,
			"inputs": [],
			"name": "escapeHatch",
			"outputs": [],
			"payable": false,
			"stateMutability": "nonpayable",
			"type": "function"
		},
		{
			"constant": false,
			"inputs": [
				{
					"name": "_inflationRate",
					"type": "uint256"
				}
			],
			"name": "setInflationRate",
			"outputs": [],
			"payable": false,
			"stateMutability": "nonpayable",
			"type": "function"
		},
		{
			"constant": false,
			"inputs": [
				{
					"name": "_networkIntegerAmount",
					"type": "uint256"
				},
				{
					"name": "_networkFractionAmount",
					"type": "uint256"
				},
				{
					"name": "_denomination",
					"type": "bytes8"
				},
				{
					"name": "_primordialAmount",
					"type": "uint256"
				},
				{
					"name": "_datKey",
					"type": "string"
				},
				{
					"name": "_fileSize",
					"type": "uint256"
				},
				{
					"name": "_profitPercentage",
					"type": "uint256"
				}
			],
			"name": "stakeContent",
			"outputs": [],
			"payable": false,
			"stateMutability": "nonpayable",
			"type": "function"
		},
		{
			"constant": false,
			"inputs": [
				{
					"name": "_stakeId",
					"type": "bytes32"
				},
				{
					"name": "_profitPercentage",
					"type": "uint256"
				}
			],
			"name": "setProfitPercentage",
			"outputs": [],
			"payable": false,
			"stateMutability": "nonpayable",
			"type": "function"
		},
		{
			"constant": true,
			"inputs": [
				{
					"name": "_stakeId",
					"type": "bytes32"
				}
			],
			"name": "stakedContentById",
			"outputs": [
				{
					"name": "",
					"type": "address"
				},
				{
					"name": "",
					"type": "uint256"
				},
				{
					"name": "",
					"type": "uint256"
				},
				{
					"name": "",
					"type": "uint256"
				},
				{
					"name": "",
					"type": "string"
				},
				{
					"name": "",
					"type": "uint256"
				},
				{
					"name": "",
					"type": "uint256"
				},
				{
					"name": "",
					"type": "bool"
				},
				{
					"name": "",
					"type": "uint256"
				}
			],
			"payable": false,
			"stateMutability": "view",
			"type": "function"
		},
		{
			"constant": false,
			"inputs": [
				{
					"name": "_stakeId",
					"type": "bytes32"
				},
				{
					"name": "_networkIntegerAmount",
					"type": "uint256"
				},
				{
					"name": "_networkFractionAmount",
					"type": "uint256"
				},
				{
					"name": "_denomination",
					"type": "bytes8"
				},
				{
					"name": "_primordialAmount",
					"type": "uint256"
				}
			],
			"name": "unstakePartialContent",
			"outputs": [],
			"payable": false,
			"stateMutability": "nonpayable",
			"type": "function"
		},
		{
			"constant": false,
			"inputs": [
				{
					"name": "_stakeId",
					"type": "bytes32"
				}
			],
			"name": "unstakeContent",
			"outputs": [],
			"payable": false,
			"stateMutability": "nonpayable",
			"type": "function"
		},
		{
			"constant": false,
			"inputs": [
				{
					"name": "_stakeId",
					"type": "bytes32"
				},
				{
					"name": "_networkIntegerAmount",
					"type": "uint256"
				},
				{
					"name": "_networkFractionAmount",
					"type": "uint256"
				},
				{
					"name": "_denomination",
					"type": "bytes8"
				},
				{
					"name": "_primordialAmount",
					"type": "uint256"
				}
			],
			"name": "stakeExistingContent",
			"outputs": [],
			"payable": false,
			"stateMutability": "nonpayable",
			"type": "function"
		},
		{
			"constant": false,
			"inputs": [
				{
					"name": "_stakeId",
					"type": "bytes32"
				},
				{
					"name": "_host",
					"type": "address"
				},
				{
					"name": "_networkIntegerAmount",
					"type": "uint256"
				},
				{
					"name": "_networkFractionAmount",
					"type": "uint256"
				},
				{
					"name": "_denomination",
					"type": "bytes8"
				},
				{
					"name": "_primordialAmount",
					"type": "uint256"
				}
			],
			"name": "buyContent",
			"outputs": [],
			"payable": false,
			"stateMutability": "nonpayable",
			"type": "function"
		}
	],
	"bytecode": "0x608060405234801561001057600080fd5b506040516020806137c6833981016040525160008054600160a060020a0319908116331790915560068054600160a060020a03909316929091169190911790556137678061005f6000396000f30060806040526004361061010e5763ffffffff60e060020a6000350416631554611f811461011357806316c38b3c1461012a5780631f3a0e4114610144578063202352f71461016d57806331f9e35b146101945780633b6a08da146101a957806347eecd48146101be57806353d6fd59146101e2578063587996ed146102085780635c975abb1461028657806370660f7c1461029b5780637af33849146102c95780638da5cb5b146102ea5780639b19251a1461031b578063b1551b951461033c578063b380b0d414610354578063c3db397f1461036f578063caf297651461039d578063e2499b98146103b2578063e30d52e914610490578063e6ab96ed146104ca578063f2fde38b146104e2575b600080fd5b34801561011f57600080fd5b50610128610503565b005b34801561013657600080fd5b506101286004351515610569565b34801561015057600080fd5b50610159610593565b604080519115158252519081900360200190f35b34801561017957600080fd5b506101826105a1565b60408051918252519081900360200190f35b3480156101a057600080fd5b506101826105a7565b3480156101b557600080fd5b506101826105ad565b3480156101ca57600080fd5b50610182600160a060020a03600435166024356105b3565b3480156101ee57600080fd5b50610128600160a060020a036004351660243515156105d0565b34801561021457600080fd5b50604080516020601f608435600481810135928301849004840285018401909552818452610128948035946024803595600160c060020a031960443516956064359536959460a49490939101919081908401838280828437509497505084359550505060209092013591506106129050565b34801561029257600080fd5b506101596109bd565b3480156102a757600080fd5b50610128600435602435604435600160c060020a0319606435166084356109c6565b3480156102d557600080fd5b50610182600160a060020a0360043516610cb9565b3480156102f657600080fd5b506102ff610ccb565b60408051600160a060020a039092168252519081900360200190f35b34801561032757600080fd5b50610159600160a060020a0360043516610cda565b34801561034857600080fd5b50610128600435610cef565b34801561036057600080fd5b50610128600435602435610d31565b34801561037b57600080fd5b50610128600435602435604435600160c060020a031960643516608435610dfb565b3480156103a957600080fd5b50610182610fa4565b3480156103be57600080fd5b506103ca600435610fab565b604051808a600160a060020a0316600160a060020a031681526020018981526020018881526020018781526020018060200186815260200185815260200184151515158152602001838152602001828103825287818151815260200191508051906020019080838360005b8381101561044d578181015183820152602001610435565b50505050905090810190601f16801561047a5780820380516001836020036101000a031916815260200191505b509a505050505050505050505060405180910390f35b34801561049c57600080fd5b50610128600435600160a060020a0360243516604435606435600160c060020a03196084351660a435611155565b3480156104d657600080fd5b506101286004356113f6565b3480156104ee57600080fd5b50610128600160a060020a03600435166115cc565b600054600160a060020a0316331461051a57600080fd5b600254610100900460ff161561052f57600080fd5b6002805461ff0019166101001790556040517f16ed36fbe43aed6ba7426b24d35620696380d398f2f22f918dd74e4d3e0ceef990600090a1565b600054600160a060020a0316331461058057600080fd5b6002805460ff1916911515919091179055565b600254610100900460ff1681565b60045481565b60035481565b60055481565b600d60209081526000928352604080842090915290825290205481565b600054600160a060020a031633146105e757600080fd5b600160a060020a03919091166000908152600160205260409020805460ff1916911515919091179055565b600254600090819060ff161580156106325750600254610100900460ff16155b151561063d57600080fd5b845160001061064b57600080fd5b6000841161065857600080fd5b60008911806106675750600088115b806106725750600086115b151561067d57600080fd5b620f424083111561068d57600080fd5b61069a8989898988611612565b15156001146106a857600080fd5b60048054600101908190556040516c01000000000000000000000000308181026020808501918252339384026034860152604885018690528a51929593948b936068909101918401908083835b602083106107145780518252601f1990920191602091820191016106f5565b6001836020036101000a0380198251168184511680821785525050505050509050019450505050506040516020818303038152906040526040518082805190602001908083835b6020831061077a5780518252601f19909201916020918201910161075b565b51815160209384036101000a60001901801990921691161790526040805192909401829003909120600454600090815260078352939093208381556001810180543373ffffffffffffffffffffffffffffffffffffffff199091161790558a5193975095506107f49450600586019350890191905061363e565b5060068101849055600781018390556008808201805460ff19166001179055426009830155600454600084815260209290925260408220558911806108395750600088115b156108555761084a828a8a8a6116f8565b151561085557600080fd5b6000861115610873576108688287611ba5565b151561087357600080fd5b816000191633600160a060020a03167f6fbbdc0d9f31b60e23dd3e55df0d034195309d1930f93bc275eec07be7c9f6f88b8b8b866002015487600301548860040154896005018a600601548b600701548c60090154604051808b81526020018a815260200189600160c060020a031916600160c060020a03191681526020018881526020018781526020018681526020018060200185815260200184815260200183815260200182810382528681815460018160011615610100020316600290048152602001915080546001816001161561010002031660029004801561099b5780601f106109705761010080835404028352916020019161099b565b820191906000526020600020905b81548152906001019060200180831161097e57829003601f168201915b50509b50505050505050505050505060405180910390a3505050505050505050565b60025460ff1681565b60025460009081908190819060ff161580156109ea5750600254610100900460ff16155b15156109f557600080fd5b60008981526008602052604081205411610a0e57600080fd5b6000898152600860209081526040808320548352600790915290206001810154909450600160a060020a03163314610a4557600080fd5b6000881180610a545750600087115b80610a5f5750600085115b1515610a6a57600080fd5b610a778989898989611df5565b1515610a8257600080fd5b600660009054906101000a9004600160a060020a0316600160a060020a031663dc689d3c6040518163ffffffff1660e060020a028152600401606060405180830381600087803b158015610ad557600080fd5b505af1158015610ae9573d6000803e3d6000fd5b505050506040513d6060811015610aff57600080fd5b5060208101516040909101519093509150600160a060020a0383161515610b2557600080fd5b600182151514610b3457600080fd5b5081600085118015610b4a5750600884015460ff165b8015610b5a575060008460030154115b8015610b6a575060008460040154115b15610c0557836004015481600160a060020a03166356307efc336040518263ffffffff1660e060020a0281526004018082600160a060020a0316600160a060020a03168152602001915050602060405180830381600087803b158015610bcf57600080fd5b505af1158015610be3573d6000803e3d6000fd5b505050506040513d6020811015610bf957600080fd5b505114610c0557600080fd5b60088401805460ff191660011790556000881180610c235750600087115b15610c3f57610c34898989896116f8565b1515610c3f57600080fd5b6000851115610c5d57610c528986611ba5565b1515610c5d57600080fd5b60028401546003850154600486015460408051938452602084019290925282820152518a9133917f59178f3d20de8be99cc2de6de96d8b2555aff301b54fc420faf0af67348a399e9181900360600190a3505050505050505050565b600c6020526000908152604090205481565b600054600160a060020a031681565b60016020526000908152604090205460ff1681565b3360008181526001602081905260409091205460ff1615151480610d205750600054600160a060020a038281169116145b1515610d2b57600080fd5b50600355565b60025460009060ff16158015610d4f5750600254610100900460ff16155b1515610d5a57600080fd5b620f4240821115610d6a57600080fd5b60008381526008602052604081205411610d8357600080fd5b506000828152600860209081526040808320548352600790915290206001810154600160a060020a03163314610db857600080fd5b60078101829055604080518381529051849133917f6c4a0cfd4af9f173dec0ac350616d6c855be630c8c83b3cd18879ad5a6bf6d299181900360200190a3505050565b60025460009060ff16158015610e195750600254610100900460ff16155b1515610e2457600080fd5b60008681526008602052604081205411610e3d57600080fd5b6000851180610e4c5750600084115b80610e575750600082115b1515610e6257600080fd5b506000858152600860209081526040808320548352600790915290206001810154600160a060020a03163314610e9757600080fd5b600881015460ff1615156001148015610ec25750600081600201541180610ec2575060008160030154115b1515610ecd57600080fd5b610ee885858585856002015486600301548760060154612005565b1515610ef357600080fd5b6000851180610f025750600084115b15610f1e57610f13868686866121b6565b1515610f1e57600080fd5b6000821115610f3c57610f318683612651565b1515610f3c57600080fd5b805460018201546002830154600384015460048501546040805193845260208401929092528282015251600160a060020a03909216917f39144879f55f49a6ea59a28ae61f331e8ce510cd47c82bd317abba766c8f56649181900360600190a3505050505050565b620f424081565b6000806000806060600080600080610fc16136bc565b60008b81526008602052604081205411610fda57600080fd5b60008b8152600860209081526040808320548352600782529182902082516101408101845281548152600180830154600160a060020a0316828501526002808401548387015260038401546060840152600484015460808401526005840180548751601f948216156101000260001901909116929092049283018690048602820186019096528181529194929360a086019391908301828280156110bf5780601f10611094576101008083540402835291602001916110bf565b820191906000526020600020905b8154815290600101906020018083116110a257829003601f168201915b5050505050815260200160068201548152602001600782015481526020016008820160009054906101000a900460ff16151515158152602001600982015481525050905080602001518160400151826060015183608001518460a001518560c001518660e00151876101000151886101200151849450995099509950995099509950995099509950509193959799909294969850565b600254600090819060ff161580156111755750600254610100900460ff16155b151561118057600080fd5b6000888152600860205260408120541161119957600080fd5b336000908152600b6020908152604082208a8352905280fd5b602083106111d15780518252601f1990920191602091820191016111b2565b6001836020036101000a0380198251168184511680821785525050505050509050019150506040518091039020915060096000600554815260200190815260200160002090508181600001816000191690555087816001018160001916905550338160020160006101000a815481600160a060020a030219169083600160a060020a03160217905550868160030160006101000a815481600160a060020a030219169083600160a060020a03160217905550428160070181905550600554600a600084600019166000191681526020019081526020016000208190555081600b600033600160a060020a0316600160a060020a0316815260200190815260200160002060008a6000191660001916815260200190815260200160002081600019169055506000600860ff16118015611313575060008611806113135750600085115b1561132f57611324828787876128e7565b151561132f57600080fd5b600083111561134d576113428284612db5565b151561134d57600080fd5b6002810154815460018301546003840154600485015460058601546006870154604080519687526020870195909552600160a060020a0393841686860152606086018d9052608086018c9052600160c060020a03198b1660a087015260c086019290925260e085015261010084015290519216917f94c9c25d021fd2b1f6476cdbfdb7c2eaed2113f9e8a1652415edae376b861085918190036101200190a25050505050505050565b600254600090819060ff161580156114165750600254610100900460ff16155b151561142157600080fd5b6000838152600860205260408120541161143a57600080fd5b6000838152600860209081526040808320548352600790915290206001810154909250600160a060020a0316331461147157600080fd5b600882015460ff161515600114801561149c575060008260020154118061149c575060008260030154115b15156114a757600080fd5b60088201805460ff1916905560028201546000101561156057600660009054906101000a9004600160a060020a0316600160a060020a031663dc689d3c6040518163ffffffff1660e060020a028152600401606060405180830381600087803b15801561151357600080fd5b505af1158015611527573d6000803e3d6000fd5b505050506040513d606081101561153d57600080fd5b505160028301549091506115559084906000846121b6565b151561156057600080fd5b60008260030154111561158e5761157b838360030154612651565b151561158657600080fd5b600060048301555b60018201546040518491600160a060020a0316907eeb6a306a149d2ec8a5e5f228483a31d06863f4cd48237ddf5c1c236805def890600090a3505050565b600054600160a060020a031633146115e357600080fd5b6000805473ffffffffffffffffffffffffffffffffffffffff1916600160a060020a0392909216919091179055565b6000808611806116225750600085115b156116e4576006546040805160e360020a63042fb71d0281526004810189905260248101889052600160c060020a031987166044820152905184926116cf928792600160a060020a039092169163217db8e8916064808201926020929091908290030181600087803b15801561169757600080fd5b505af11580156116ab573d6000803e3d6000fd5b505050506040513d60208110156116c157600080fd5b50519063ffffffff61334616565b106116dc575060016116ef565b5060006116ef565b8183106116dc575060015b95945050505050565b600654604080517f5ba6ff10000000000000000000000000000000000000000000000000000000008152600160c060020a0319841660048201528151600093849360609384938693899385938493600160a060020a0390931692635ba6ff109260248084019391929182900301818787803b15801561177657600080fd5b505af115801561178a573d6000803e3d6000fd5b505050506040513d60408110156117a057600080fd5b5080516020909101519092509050600160a060020a038216158015906117c857506001811515145b15156117d357600080fd5b60076000600860008f600019166000191681526020019081526020016000205481526020019081526020016000209650600660009054906101000a9004600160a060020a0316600160a060020a031663492611438860010160009054906101000a9004600160a060020a03168d8d8d6040518563ffffffff1660e060020a0281526004018085600160a060020a0316600160a060020a0316815260200184815260200183815260200182600160c060020a031916600160c060020a0319168152602001945050505050600060405180830381600087803b1580156118b657600080fd5b505af11580156118ca573d6000803e3d6000fd5b505050506040513d6000823e601f3d908101601f1916820160409081528110156118f357600080fd5b81019080805164010000000081111561190b57600080fd5b8201602081018481111561191e57600080fd5b815185602082028301116401000000008211171561193b57600080fd5b5050929190602001805164010000000081111561195757600080fd5b8201602081018481111561196a57600080fd5b815185602082028301116401000000008211171561198757600080fd5b505092919050505095509550611a55600660009054906101000a9004600160a060020a0316600160a060020a031663217db8e88d8d8d6040518463ffffffff1660e060020a0281526004018084815260200183815260200182600160c060020a031916600160c060020a03191681526020019350505050602060405180830381600087803b158015611a1857600080fd5b505af1158015611a2c573d6000803e3d6000fd5b505050506040513d6020811015611a4257600080fd5b505160028901549063ffffffff61334616565b6002880155600093505b8551841015611b93578551600090879086908110611a7957fe5b90602001906020020151600160a060020a031614158015611ab1575060008585815181101515611aa557fe5b90602001906020020151115b15611b88578584815181101515611ac457fe5b6020908102909101015160018801548651600160a060020a03928316926331a8aeb3921690889088908110611af557fe5b906020019060200201516040518363ffffffff1660e060020a0281526004018083600160a060020a0316600160a060020a0316815260200182815260200192505050602060405180830381600087803b158015611b5157600080fd5b505af1158015611b65573d6000803e3d6000fd5b505050506040513d6020811015611b7b57600080fd5b50511515611b8857600080fd5b600190930192611a5f565b5060019b9a5050505050505050505050565b6000806000806000600660009054906101000a9004600160a060020a0316600160a060020a031663dc689d3c6040518163ffffffff1660e060020a028152600401606060405180830381600087803b158015611c0057600080fd5b505af1158015611c14573d6000803e3d6000fd5b505050506040513d6060811015611c2a57600080fd5b5060208101516040909101519094509250600160a060020a0384161515611c5057600080fd5b600183151514611c5f57600080fd5b6000878152600860209081526040808320548352600790915290206003810154909250611c92908763ffffffff61334616565b6003830155506001810154604080517f56307efc000000000000000000000000000000000000000000000000000000008152600160a060020a039283166004820152905185928316916356307efc9160248083019260209291908290030181600087803b158015611d0257600080fd5b505af1158015611d16573d6000803e3d6000fd5b505050506040513d6020811015611d2c57600080fd5b505160048084018290556001840154604080517f9b66da9c000000000000000000000000000000000000000000000000000000008152600160a060020a0392831693810193909352602483018a90526044830193909352915191831691639b66da9c916064808201926020929091908290030181600087803b158015611db157600080fd5b505af1158015611dc5573d6000803e3d6000fd5b505050506040513d6020811015611ddb57600080fd5b50511515611de857600080fd5b5060019695505050505050565b6000611dff6136bc565b6000878152600860209081526040808320548352600782529182902082516101408101845281548152600180830154600160a060020a0316828501526002808401548387015260038401546060840152600484015460808401526005840180548751601f948216156101000260001901909116929092049283018690048602820186019096528181529194929360a08601939190830182828015611ee45780601f10611eb957610100808354040283529160200191611ee4565b820191906000526020600020905b815481529060010190602001808311611ec757829003601f168201915b50505091835250506006820154602082015260078201546040820152600882015460ff161515606082015260099091015460809091015290506000861180611f2c5750600085115b15611fc95760c08101516060820151604080840151600654825160e360020a63042fb71d028152600481018c9052602481018b9052600160c060020a03198a1660448201529251611fc09493611fb4939284928b92600160a060020a039092169163217db8e89160648083019260209291908290030181600087803b15801561169757600080fd5b9063ffffffff61334616565b10159150611ffb565b6000831115611ff6578060c00151611fc084611fb48460600151856040015161334690919063ffffffff16565b600091505b5095945050505050565b6000808811806120155750600087115b80156120b357506006546040805160e360020a63042fb71d028152600481018b9052602481018a9052600160c060020a0319891660448201529051600160a060020a039092169163217db8e8916064808201926020929091908290030181600087803b15801561208457600080fd5b505af1158015612098573d6000803e3d6000fd5b505050506040513d60208110156120ae57600080fd5b505184105b806120bd57508483105b80612191575060008811806120d25750600087115b801561219157508161218f6120ed858863ffffffff61335916565b6006546040805160e360020a63042fb71d028152600481018e9052602481018d9052600160c060020a03198c1660448201529051611fb492600160a060020a03169163217db8e89160648083019260209291908290030181600087803b15801561215657600080fd5b505af115801561216a573d6000803e3d6000fd5b505050506040513d602081101561218057600080fd5b5051889063ffffffff61335916565b105b8061219a575060005b156121a7575060006121ab565b5060015b979650505050505050565b600654604080517f5ba6ff10000000000000000000000000000000000000000000000000000000008152600160c060020a0319841660048201528151600093849360609384938693899385938493600160a060020a0390931692635ba6ff109260248084019391929182900301818787803b15801561223457600080fd5b505af1158015612248573d6000803e3d6000fd5b505050506040513d604081101561225e57600080fd5b5080516020909101519092509050600160a060020a0382161580159061228657506001811515145b151561229157600080fd5b60076000600860008f600019166000191681526020019081526020016000205481526020019081526020016000209650600660009054906101000a9004600160a060020a0316600160a060020a0316630db460bc8860010160009054906101000a9004600160a060020a03168d8d8d6040518563ffffffff1660e060020a0281526004018085600160a060020a0316600160a060020a0316815260200184815260200183815260200182600160c060020a031916600160c060020a0319168152602001945050505050600060405180830381600087803b15801561237457600080fd5b505af1158015612388573d6000803e3d6000fd5b505050506040513d6000823e601f3d908101601f1916820160409081528110156123b157600080fd5b8101908080516401000000008111156123c957600080fd5b820160208101848111156123dc57600080fd5b81518560208202830111640100000000821117156123f957600080fd5b5050929190602001805164010000000081111561241557600080fd5b8201602081018481111561242857600080fd5b815185602082028301116401000000008211171561244557600080fd5b505092919050505095509550612513600660009054906101000a9004600160a060020a0316600160a060020a031663217db8e88d8d8d6040518463ffffffff1660e060020a0281526004018084815260200183815260200182600160c060020a031916600160c060020a03191681526020019350505050602060405180830381600087803b1580156124d657600080fd5b505af11580156124ea573d6000803e3d6000fd5b505050506040513d602081101561250057600080fd5b505160028901549063ffffffff61335916565b6002880155600093505b8551841015611b9357855160009087908690811061253757fe5b90602001906020020151600160a060020a03161415801561256f57506000858581518110151561256357fe5b90602001906020020151115b1561264657858481518110151561258257fe5b6020908102909101015160018801548651600160a060020a039283169263731a3b069216908890889081106125b357fe5b906020019060200201516040518363ffffffff1660e060020a0281526004018083600160a060020a0316600160a060020a0316815260200182815260200192505050602060405180830381600087803b15801561260f57600080fd5b505af1158015612623573d6000803e3d6000fd5b505050506040513d602081101561263957600080fd5b5051151561264657600080fd5b60019093019261251d565b6000806000806000600660009054906101000a9004600160a060020a0316600160a060020a031663dc689d3c6040518163ffffffff1660e060020a028152600401606060405180830381600087803b1580156126ac57600080fd5b505af11580156126c0573d6000803e3d6000fd5b505050506040513d60608110156126d657600080fd5b5060208101516040909101519094509250600160a060020a03841615156126fc57600080fd5b60018315151461270b57600080fd5b600087815260086020908152604080832054835260079091529020600381015490925061273e908763ffffffff61335916565b6003830155506001810154600480830154604080517f9d8c1eed000000000000000000000000000000000000000000000000000000008152600160a060020a0394851693810193909352602483018990526044830191909152518592831691639d8c1eed9160648083019260209291908290030181600087803b158015611db157600080fd5b8154815290600101906020018083116127c4575050509183525050600682015460208201526007820154604080830191909152600883015460ff1615156060808401919091526009909301546080909201919091529082015190820151919350612834919063ffffffff61334616565b905060008711806128455750600086115b156128c3576006546040805160e360020a63042fb71d028152600481018a905260248101899052600160c060020a031988166044820152905183926128ba928892600160a060020a039092169163217db8e8916064808201926020929091908290030181600087803b15801561169757600080fd5b101592506128dc565b60008411156128d7578084101592506128dc565b600092505b505095945050505050565b6000806128f26136bc565b600654604080517f5ba6ff10000000000000000000000000000000000000000000000000000000008152600160c060020a0319871660048201528151600093889385938493600160a060020a0390931692635ba6ff109260248084019391929182900301818787803b15801561296757600080fd5b505af115801561297b573d6000803e3d6000fd5b505050506040513d604081101561299157600080fd5b5080516020909101519092509050600160a060020a038216158015906129b957506001811515145b15156129c457600080fd5b60008b8152600a602090815260408083205483526009825280832060018082015485526008845282852054855260078452938290208251610140810184528154815281860154600160a060020a0316818601526002808301548286015260038301546060830152600483015460808301526005830180548651601f99821615610100026000190190911692909204978801879004870282018701909552868152929b5094909360a08601939190830182828015612ac25780601f10612a9757610100808354040283529160200191612ac2565b820191906000526020600020905b815481529060010190602001808311612aa557829003601f168201915b50505091835250506006828101546020808401919091526007840154604080850191909152600885015460ff161515606085015260099094015460809093019290925254825160e360020a63042fb71d028152600481018f9052602481018e9052600160c060020a03198d1660448201529251939850600160a060020a03169263217db8e89260648082019392918290030181600087803b158015612b6657600080fd5b505af1158015612b7a573d6000803e3d6000fd5b505050506040513d6020811015612b9057600080fd5b505160048701556002860154612bb190600160a060020a03168b8b8b61336b565b1515612bbc57600080fd5b612bea620f4240612bde8760e00151896004015461360090919063ffffffff16565b9063ffffffff61362916565b602080870151600160a060020a03166000908152600c9091526040902054909450612c1b908563ffffffff61334616565b60208087018051600160a060020a039081166000908152600c84526040808220959095558a54925160028c015460018d015460048e015460e08e01518951928352978201528088018c905260608101969096526080860192909252945192948216939116917f8b0e560b6684dceda8198167e8321a34e29f12089e560d042082e653853643139181900360a00190a46004860154612cec90612cc3908663ffffffff61335916565b6003880154600160a060020a03166000908152600c60205260409020549063ffffffff61334616565b600387018054600160a060020a039081166000908152600c602052604090209290925587549054600289015460018a015460048b015493949283169391909216917f8b0e560b6684dceda8198167e8321a34e29f12089e560d042082e6538536431391612d5f818b63ffffffff61335916565b60e08c0151612d7890620f42409063ffffffff61335916565b60408051948552602085019390935283830191909152606083015260016080830152519081900360a00190a45060019a9950505050505050505050565b600080600080612dc36136bc565b600080600660009054906101000a9004600160a060020a0316600160a060020a031663dc689d3c6040518163ffffffff1660e060020a028152600401606060405180830381600087803b158015612e1957600080fd5b505af1158015612e2d573d6000803e3d6000fd5b505050506040513d6060811015612e4357600080fd5b5060208101516040909101519096509450600160a060020a0386161515612e6957600080fd5b600185151514612e7857600080fd5b6000898152600a602090815260408083205483526009825280832060018082015485526008845282852054855260078452938290208251610140810184528154815281860154600160a060020a0316818601526002808301548286015260038301546060830152600483015460808301526005830180548651601f9982161561010002600019019091169290920497880187900487028201870190955286815292995094909360a08601939190830182828015612f765780601f10612f4b57610100808354040283529160200191612f76565b820191906000526020600020905b815481529060010190602001808311612f5957829003601f168201915b505050918352505060068201546020808301919091526007830154604080840191909152600884015460ff1615156060840152600990930154608090920191909152600587018b9055600287015482517f56307efc000000000000000000000000000000000000000000000000000000008152600160a060020a03918216600482015292519396508995508516926356307efc9260248082019392918290030181600087803b15801561302857600080fd5b505af115801561303c573d6000803e3d6000fd5b505050506040513d602081101561305257600080fd5b5051600685015560028401546005850154604080517feca74981000000000000000000000000000000000000000000000000000000008152600160a060020a0393841660048201523060248201526044810192909252519184169163eca74981916064808201926020929091908290030181600087803b1580156130d557600080fd5b505af11580156130e9573d6000803e3d6000fd5b505050506040513d60208110156130ff57600080fd5b5051151561310c57600080fd5b61312e620f4240612bde8560e00151876005015461360090919063ffffffff16565b602080850151600160a060020a03166000908152600d8252604080822060068901548352909252205490915061316a908263ffffffff61334616565b60208085018051600160a060020a039081166000908152600d8452604080822060068b0180548452908652818320969096558954935160028b015460018c015460058d0154985460e08d01518551928352988201999099528084019890985260608801899052608088019690965260a087019290925251929490821693909116917f149919c59d6285d010a6d0e7d8dde6789a91a4d40e84b23d400c44b1d0428ddd9181900360c00190a460058401546132669061322e908363ffffffff61335916565b6003860154600160a060020a03166000908152600d6020908152604080832060068a015484529091529020549063ffffffff61334616565b600385018054600160a060020a039081166000908152600d6020908152604080832060068b0180548552925290912093909355865491546002880154600189015460058a0154955494959284169491909316927f149919c59d6285d010a6d0e7d8dde6789a91a4d40e84b23d400c44b1d0428ddd9290916132ed828963ffffffff61335916565b60e08b015161330690620f42409063ffffffff61335916565b6040805195865260208601949094528484019290925260608401526080830152600160a0830152519081900360c00190a450600198975050505050505050565b8181018281101561335357fe5b92915050565b60008282111561336557fe5b50900390565b600654604080517f49261143000000000000000000000000000000000000000000000000000000008152600160a060020a0387811660048301526024820187905260448201869052600160c060020a03198516606483015291516000936060938493869391909216916349261143916084808301928692919082900301818387803b1580156133f957600080fd5b505af115801561340d573d6000803e3d6000fd5b505050506040513d6000823e601f3d908101601f19168201604090815281101561343657600080fd5b81019080805164010000000081111561344e57600080fd5b8201602081018481111561346157600080fd5b815185602082028301116401000000008211171561347e57600080fd5b5050929190602001805164010000000081111561349a57600080fd5b820160208101848111156134ad57600080fd5b81518560208202830111640100000000821117156134ca57600080fd5b50949750955060009450505050505b82518110156121a75782516000908490839081106134f357fe5b90602001906020020151600160a060020a03161415801561352b57506000828281518110151561351f57fe5b90602001906020020151115b156135f857828181518110151561353e57fe5b90602001906020020151600160a060020a031663a144a3e08930858581518110151561356657fe5b60209081029091018101516040805160e060020a63ffffffff8816028152600160a060020a03958616600482015293909416602484015260448301529151606480830193928290030181600087803b1580156135c157600080fd5b505af11580156135d5573d6000803e3d6000fd5b505050506040513d60208110156135eb57600080fd5b505115156135f857600080fd5b6001016134d9565b600082151561361157506000613353565b5081810281838281151561362157fe5b041461335357fe5b6000818381151561363657fe5b049392505050565b828054600181600116156101000203166002900490600052602060002090601f016020900481019282601f1061367f57805160ff19168380011785556136ac565b828001600101855582156136ac579182015b828111156136ac578251825591602001919060010190613691565b506136b892915061371e565b5090565b61014060405190810160405280600080191681526020016000600160a060020a03168152602001600081526020016000815260200160008152602001606081526020016000815260200160008152602001600015158152602001600081525090565b61373891905b808211156136b85760008155600101613724565b905600a165627a7a72305820d199905da5cb73f33a762aabb389af3b3ace40ab8f6599beb20a8d2c6e4607d60029",
	"source": "pragma solidity ^0.4.24;\n\nimport './SafeMath.sol';\nimport './owned.sol';\nimport './AOToken.sol';\nimport './AOTreasury.sol';\n\n/**\n * @title AOContent\n *\n * The purpose of this contract is to allow content creator to stake network ERC20 AO tokens and/or primordial AO Tokens\n * on his/her content\n */\ncontract AOContent is owned {\n\tusing SafeMath for uint256;\n\n\tbool public paused;\n\tbool public killed;\n\tuint256 public inflationRate; // support up to 4 decimals, i.e 12.3456% = 123456\n\tuint256 constant public PERCENTAGE_DIVISOR = 10 ** 6; // 100% = 1000000\n\tuint256 public totalStakedContents;\n\tuint256 public totalBoughtContents;\n\tAOTreasury private _treasury;\n\n\tstruct StakedContent {\n\t\tbytes32 stakeId;\n\t\taddress stakeOwner;\n\t\tuint256 networkAmount; // total network token staked in base denomination\n\t\tuint256 primordialAmount;\t// the amount of primordial AO Token to stake (always in base denomination)\n\t\tuint256 primordialWeightedIndex;\n\t\tstring datKey;\n\t\tuint256 fileSize;\n\t\tuint256 profitPercentage; // support up to 4 decimals, 100% = 1000000\n\t\tbool active; // true if currently staked, false when unstaked\n\t\tuint256 createdOnTimestamp;\n\t}\n\n\tstruct BoughtContent {\n\t\tbytes32 buyId;\n\t\tbytes32 stakeId;\n\t\taddress buyer;\n\t\taddress host; // The host address that holds the data\n\t\tuint256 networkAmount; // total network token staked in base denomination\n\t\tuint256 primordialAmount;\t// the amount of primordial AO Token to stake (always in base denomination)\n\t\tuint256 primordialWeightedIndex;\n\t\tuint256 createdOnTimestamp;\n\t}\n\n\t// Mapping from StakedContent index to the StakedContent object\n\tmapping (uint256 => StakedContent) private stakedContents;\n\n\t// Mapping from stake ID to index of the stakedContents list\n\tmapping (bytes32 => uint256) private stakedContentIndex;\n\n\t// Mapping from BoughtContent index to the BoughtContent object\n\tmapping (uint256 => BoughtContent) private boughtContents;\n\n\t// Mapping from buy ID to index of the boughtContents list\n\tmapping (bytes32 => uint256) private boughtContentIndex;\n\n\t// Mapping from buyer's bought stake ID to the buy ID\n\t// To check whether or not a stakedContent has been bought by buyer\n\tmapping (address => mapping (bytes32 => bytes32)) internal buyerOwnedStakeId;\n\n\t// Mapping from address to his/her network token profit\n\t// Accumulated when someone buys content from content creator/host\n\tmapping (address => uint256) public buyContentNetworkTokenProfit;\n\n\t// Mapping from address to his/her primordial token profit at weighted index\n\t// Accumulated when someone buys content from content creator/host\n\tmapping (address => mapping (uint256 => uint256)) public buyContentPrimordialTokenProfit;\n\n\t// Event to be broadcasted to public when `stakeOwner` stakes a new content\n\tevent StakeContent(\n\t\taddress indexed stakeOwner,\n\t\tbytes32 indexed stakeId,\n\t\tuint256 networkIntegerAmount,\n\t\tuint256 networkFractionAmount,\n\t\tbytes8 denomination,\n\t\tuint256 totalNetworkBaseAmount,\n\t\tuint256 primordialAmount,\n\t\tuint256 primordialWeightedIndex,\n\t\tstring datKey,\n\t\tuint256 fileSize,\n\t\tuint256 profitPercentage,\n\t\tuint256 createdOnTimestamp\n\t);\n\n\t// Event to be broadcasted to public when `stakeOwner` updates the staked content's profit percentage\n\tevent SetProfitPercentage(address indexed stakeOwner, bytes32 indexed stakeId, uint256 newProfitPercentage);\n\n\t// Event to be broadcasted to public when `stakeOwner` unstakes some network/primordial token from an existing content\n\tevent UnstakePartialContent(address indexed stakeOwner, bytes32 indexed stakeId, uint256 remainingNetworkAmount, uint256 remainingPrimordialAmount, uint256 primordialWeightedIndex);\n\n\t// Event to be broadcasted to public when `stakeOwner` unstakes all token amount on an existing content\n\tevent UnstakeContent(address indexed stakeOwner, bytes32 indexed stakeId);\n\n\t// Event to be broadcasted to public when `stakeOwner` re-stakes an existing content\n\tevent StakeExistingContent(address indexed stakeOwner, bytes32 indexed stakeId, uint256 currentNetworkAmount, uint256 currentPrimordialAmount, uint256 currentPrimordialWeightedIndex);\n\n\t// Event to be broadcasted to public when we reward content/creator when someone buys the content\n\t// recipientType:\n\t// 0 => Stake Owner (Content Creator)\n\t// 1 => Node Host\n\tevent BuyContentNetworkTokenEarning(address indexed sender, address indexed recipient, bytes32 indexed buyId, bytes32 stakeId, uint256  networkAmount, uint256 networkProfitAmount, uint256 profitPercentage, uint8 recipientType);\n\n\tevent BuyContentPrimordialTokenEarning(address indexed sender, address indexed recipient, bytes32 indexed buyId, bytes32 stakeId, uint256 primordialAmount, uint256 primordialWeightedIndex, uint256 primordialProfitAmount, uint256 profitPercentage, uint8 recipientType);\n\n\t// Event to be broadcasted to public when `buyer` buys a content\n\tevent BuyContent(address indexed buyer, bytes32 buyId, bytes32 stakeId, address host, uint256 networkIntegerAmount, uint256 networkFractionAmount, bytes8 denomination, uint256 totalNetworkAmount, uint256 primordialAmount, uint256 primordialWeightedIndex);\n\n\t// Event to be broadcasted to public when emergency mode is triggered\n\tevent EscapeHatch();\n\n\t/**\n\t * @dev Constructor function\n\t * @param _treasuryAddress The address of AOTreasury\n\t */\n\tconstructor(address _treasuryAddress) public {\n\t\t_treasury = AOTreasury(_treasuryAddress);\n\t}\n\n\t/**\n\t * @dev Checks if contract is currently active\n\t */\n\tmodifier isActive {\n\t\trequire (paused == false && killed == false);\n\t\t_;\n\t}\n\n\t/**\n\t * @dev Checks if the denomination is valid\n\t */\n\tmodifier isValidDenomination(bytes8 _denomination) {\n\t\t// Make sure the _denomination is in the available list\n\t\t(address _networkTokenAddress, bool _networkTokenActive) = _treasury.getDenomination(_denomination);\n\t\trequire (_networkTokenAddress != address(0) && _networkTokenActive == true);\n\t\t_;\n\t}\n\n\t/***** OWNER ONLY METHODS *****/\n\t/**\n\t * @dev Owner pauses/unpauses contract\n\t * @param _paused Either to pause contract or not\n\t */\n\tfunction setPaused(bool _paused) public onlyOwner {\n\t\tpaused = _paused;\n\t}\n\n\t/**\n\t * @dev Owner triggers emergency mode.\n\t *\n\t * Allow stake owners to withdraw all existing active staked funds\n\t */\n\tfunction escapeHatch() public onlyOwner {\n\t\trequire (killed == false);\n\t\tkilled = true;\n\t\temit EscapeHatch();\n\t}\n\n\t/**\n\t * @dev Whitelisted address sets inflation rate\n\t * @param _inflationRate The new inflation rate value to be set\n\t */\n\tfunction setInflationRate(uint256 _inflationRate) public inWhitelist(msg.sender) {\n\t\tinflationRate = _inflationRate;\n\t}\n\n\t/***** PUBLIC METHODS *****/\n\t/**\n\t * @dev Stake `_networkIntegerAmount` + `_networkFractionAmount` of network token in `_denomination` and/or `_primordialAmount` primordial Tokens for a content\n\t * @param _networkIntegerAmount The integer amount of network token to stake\n\t * @param _networkFractionAmount The fraction amount of network token to stake\n\t * @param _denomination The denomination of the network token, i.e ao, kilo, mega, etc.\n\t * @param _primordialAmount The amount of primordial Token to stake\n\t * @param _datKey The dat key of the file\n\t * @param _fileSize The size of the file\n\t * @param _profitPercentage The percentage of profit the stake owner's media will charge\n\t */\n\tfunction stakeContent(\n\t\tuint256 _networkIntegerAmount,\n\t\tuint256 _networkFractionAmount,\n\t\tbytes8 _denomination,\n\t\tuint256 _primordialAmount,\n\t\tstring _datKey,\n\t\tuint256 _fileSize,\n\t\tuint256 _profitPercentage)\n\t\tpublic\n\t\tisActive {\n\t\trequire (bytes(_datKey).length > 0);\n\t\trequire (_fileSize > 0);\n\t\trequire (_networkIntegerAmount > 0 || _networkFractionAmount > 0 || _primordialAmount > 0);\n\t\trequire (_profitPercentage <= PERCENTAGE_DIVISOR);\n\t\trequire (_canStake(_networkIntegerAmount, _networkFractionAmount, _denomination, _primordialAmount, _fileSize) == true);\n\n\t\t// Increment totalStakedContents\n\t\ttotalStakedContents++;\n\n\t\t// Generate stakeId\n\t\tbytes32 _stakeId = keccak256(abi.encodePacked(this, msg.sender, totalStakedContents, _datKey));\n\t\tStakedContent storage _stakedContent = stakedContents[totalStakedContents];\n\t\t_stakedContent.stakeId = _stakeId;\n\t\t_stakedContent.stakeOwner = msg.sender;\n\t\t_stakedContent.datKey = _datKey;\n\t\t_stakedContent.fileSize = _fileSize;\n\t\t_stakedContent.profitPercentage = _profitPercentage;\n\t\t_stakedContent.active = true;\n\t\t_stakedContent.createdOnTimestamp = now;\n\n\t\tstakedContentIndex[_stakeId] = totalStakedContents;\n\n\t\tif (_denomination.length > 0 && (_networkIntegerAmount > 0 || _networkFractionAmount > 0)) {\n\t\t\trequire (_stakeNetworkToken(_stakeId, _networkIntegerAmount, _networkFractionAmount, _denomination));\n\t\t}\n\t\tif (_primordialAmount > 0) {\n\t\t\trequire (_stakePrimordialToken(_stakeId, _primordialAmount));\n\t\t}\n\t\temit StakeContent(\n\t\t\tmsg.sender,\n\t\t\t_stakeId,\n\t\t\t_networkIntegerAmount,\n\t\t\t_networkFractionAmount,\n\t\t\t_denomination,\n\t\t\t_stakedContent.networkAmount,\n\t\t\t_stakedContent.primordialAmount,\n\t\t\t_stakedContent.primordialWeightedIndex,\n\t\t\t_stakedContent.datKey,\n\t\t\t_stakedContent.fileSize,\n\t\t\t_stakedContent.profitPercentage,\n\t\t\t_stakedContent.createdOnTimestamp\n\t\t);\n\t}\n\n\t/**\n\t * @dev Set profit percentage on existing staked content\n\t * @param _stakeId The ID of the staked content\n\t * @param _profitPercentage The new value to be set\n\t */\n\tfunction setProfitPercentage(bytes32 _stakeId, uint256 _profitPercentage) public isActive {\n\t\trequire (_profitPercentage <= PERCENTAGE_DIVISOR);\n\n\t\t// Make sure the staked content exist\n\t\trequire (stakedContentIndex[_stakeId] > 0);\n\n\t\tStakedContent storage _stakedContent = stakedContents[stakedContentIndex[_stakeId]];\n\t\t// Make sure the staked content owner is the same as the sender\n\t\trequire (_stakedContent.stakeOwner == msg.sender);\n\n\t\t_stakedContent.profitPercentage = _profitPercentage;\n\n\t\temit SetProfitPercentage(msg.sender, _stakeId, _profitPercentage);\n\t}\n\n\t/**\n\t * @dev Return staked content information at a given ID\n\t * @param _stakeId The ID of the staked content\n\t * @return address of the staked content's owner\n\t * @return the network base token amount staked for this content\n\t * @return the primordial token amount staked for this content\n\t * @return the primordial weighted index of the staked content\n\t * @return the dat key of the content\n\t * @return the file size of the content\n\t * @return the profit percentage of the content\n\t * @return status of the staked content\n\t * @return the timestamp when the staked content was created\n\t */\n\tfunction stakedContentById(bytes32 _stakeId) public view returns (address, uint256, uint256, uint256, string, uint256, uint256, bool, uint256) {\n\t\t// Make sure the staked content exist\n\t\trequire (stakedContentIndex[_stakeId] > 0);\n\n\t\tStakedContent memory _stakedContent = stakedContents[stakedContentIndex[_stakeId]];\n\t\treturn (\n\t\t\t_stakedContent.stakeOwner,\n\t\t\t_stakedContent.networkAmount,\n\t\t\t_stakedContent.primordialAmount,\n\t\t\t_stakedContent.primordialWeightedIndex,\n\t\t\t_stakedContent.datKey,\n\t\t\t_stakedContent.fileSize,\n\t\t\t_stakedContent.profitPercentage,\n\t\t\t_stakedContent.active,\n\t\t\t_stakedContent.createdOnTimestamp\n\t\t);\n\t}\n\n\t/**\n\t * @dev Unstake existing staked content and refund partial staked amount to the stake owner\n\t *\t\tUse unstakeContent() to unstake all staked token amount. unstakePartialContent() can unstake only up to\n\t *\t\tthe mininum required to pay the fileSize\n\t * @param _stakeId The ID of the staked content\n\t * @param _networkIntegerAmount The integer amount of network token to unstake\n\t * @param _networkFractionAmount The fraction amount of network token to unstake\n\t * @param _denomination The denomination of the network token, i.e ao, kilo, mega, etc.\n\t * @param _primordialAmount The amount of primordial Token to unstake\n\t */\n\tfunction unstakePartialContent(bytes32 _stakeId, uint256 _networkIntegerAmount, uint256 _networkFractionAmount, bytes8 _denomination, uint256 _primordialAmount) public isActive {\n\t\t// Make sure the staked content exist\n\t\trequire (stakedContentIndex[_stakeId] > 0);\n\t\trequire (_networkIntegerAmount > 0 || _networkFractionAmount > 0 || _primordialAmount > 0);\n\n\t\tStakedContent storage _stakedContent = stakedContents[stakedContentIndex[_stakeId]];\n\t\t// Make sure the staked content owner is the same as the sender\n\t\trequire (_stakedContent.stakeOwner == msg.sender);\n\t\t// Make sure the staked content is currently active (staked) with some amounts\n\t\trequire (_stakedContent.active == true && (_stakedContent.networkAmount > 0 || _stakedContent.primordialAmount > 0));\n\t\t// Make sure the staked content has enough balance to unstake\n\t\trequire (_canUnstakePartial(_networkIntegerAmount, _networkFractionAmount, _denomination, _primordialAmount, _stakedContent.networkAmount, _stakedContent.primordialAmount, _stakedContent.fileSize));\n\n\t\tif (_denomination.length > 0 && (_networkIntegerAmount > 0 || _networkFractionAmount > 0)) {\n\t\t\trequire (_unstakePartialNetworkToken(_stakeId, _networkIntegerAmount, _networkFractionAmount, _denomination));\n\t\t}\n\t\tif (_primordialAmount > 0) {\n\t\t\trequire (_unstakePartialPrimordialToken(_stakeId, _primordialAmount));\n\t\t}\n\t\temit UnstakePartialContent(_stakedContent.stakeOwner, _stakedContent.stakeId, _stakedContent.networkAmount, _stakedContent.primordialAmount, _stakedContent.primordialWeightedIndex);\n\t}\n\n\t/**\n\t * @dev Unstake existing staked content and refund the total staked amount to the stake owner\n\t * @param _stakeId The ID of the staked content\n\t */\n\tfunction unstakeContent(bytes32 _stakeId) public isActive {\n\t\t// Make sure the staked content exist\n\t\trequire (stakedContentIndex[_stakeId] > 0);\n\n\t\tStakedContent storage _stakedContent = stakedContents[stakedContentIndex[_stakeId]];\n\t\t// Make sure the staked content owner is the same as the sender\n\t\trequire (_stakedContent.stakeOwner == msg.sender);\n\t\t// Make sure the staked content is currently active (staked) with some amounts\n\t\trequire (_stakedContent.active == true && (_stakedContent.networkAmount > 0 || _stakedContent.primordialAmount > 0));\n\n\t\t_stakedContent.active = false;\n\n\t\tif (_stakedContent.networkAmount > 0) {\n\t\t\t(bytes8 _baseDenominationName,,) = _treasury.getBaseDenomination();\n\t\t\trequire (_unstakePartialNetworkToken(_stakeId, _stakedContent.networkAmount, 0, _baseDenominationName));\n\t\t}\n\t\tif (_stakedContent.primordialAmount > 0) {\n\t\t\trequire (_unstakePartialPrimordialToken(_stakeId, _stakedContent.primordialAmount));\n\t\t\t_stakedContent.primordialWeightedIndex = 0;\n\t\t}\n\t\temit UnstakeContent(_stakedContent.stakeOwner, _stakeId);\n\t}\n\n\t/**\n\t * @dev Stake existing content with more tokens (this is to increase the price)\n\t *\n\t * @param _stakeId The ID of the staked content\n\t * @param _networkIntegerAmount The integer amount of network token to stake\n\t * @param _networkFractionAmount The fraction amount of network token to stake\n\t * @param _denomination The denomination of the network token, i.e ao, kilo, mega, etc.\n\t * @param _primordialAmount The amount of primordial Token to stake. (The primordial weighted index has to match the current staked weighted index)\n\t */\n\tfunction stakeExistingContent(bytes32 _stakeId, uint256 _networkIntegerAmount, uint256 _networkFractionAmount, bytes8 _denomination, uint256 _primordialAmount) public isActive {\n\t\t// Make sure the staked content exist\n\t\trequire (stakedContentIndex[_stakeId] > 0);\n\n\t\tStakedContent storage _stakedContent = stakedContents[stakedContentIndex[_stakeId]];\n\t\t// Make sure the staked content owner is the same as the sender\n\t\trequire (_stakedContent.stakeOwner == msg.sender);\n\t\trequire (_networkIntegerAmount > 0 || _networkFractionAmount > 0 || _primordialAmount > 0);\n\t\trequire (_canStakeExisting(_stakeId, _networkIntegerAmount, _networkFractionAmount, _denomination, _primordialAmount));\n\n\t\t// Make sure we can stake primordial token\n\t\t// If we are currently staking an active staked content, then the stake owner's weighted index has to match `stakedContent.primordialWeightedIndex`\n\t\t// i.e, can't use a combination of different weighted index. Stake owner has to call unstakeContent() to unstake all tokens first\n\t\t(, address _baseDenominationAddress, bool _baseDenominationActive) = _treasury.getBaseDenomination();\n\t\trequire (_baseDenominationAddress != address(0));\n\t\trequire (_baseDenominationActive == true);\n\t\tAOToken _primordialToken = AOToken(_baseDenominationAddress);\n\t\tif (_primordialAmount > 0 && _stakedContent.active && _stakedContent.primordialAmount > 0 && _stakedContent.primordialWeightedIndex > 0) {\n\t\t\trequire (_primordialToken.weightedIndexByAddress(msg.sender) == _stakedContent.primordialWeightedIndex);\n\t\t}\n\n\t\t_stakedContent.active = true;\n\t\tif (_denomination.length > 0 && (_networkIntegerAmount > 0 || _networkFractionAmount > 0)) {\n\t\t\trequire (_stakeNetworkToken(_stakeId, _networkIntegerAmount, _networkFractionAmount, _denomination));\n\t\t}\n\t\tif (_primordialAmount > 0) {\n\t\t\trequire (_stakePrimordialToken(_stakeId, _primordialAmount));\n\t\t}\n\n\t\temit StakeExistingContent(msg.sender, _stakeId, _stakedContent.networkAmount, _stakedContent.primordialAmount, _stakedContent.primordialWeightedIndex);\n\t}\n\n\t/**\n\t * @dev Buy existing content\n\t * @param _stakeId The ID of the staked content\n\t * @param _host The node address that hosts the file\n\t * @param _networkIntegerAmount The integer amount of network token to spend\n\t * @param _networkFractionAmount The fraction amount of network token to spend\n\t * @param _denomination The denomination of the network token, i.e ao, kilo, mega, etc.\n\t * @param _primordialAmount The amount of primordial Token to spend\n\t */\n\tfunction buyContent(bytes32 _stakeId, address _host, uint256 _networkIntegerAmount, uint256 _networkFractionAmount, bytes8 _denomination, uint256 _primordialAmount) public isActive {\n\t\t// Make sure the staked content exist\n\t\trequire (stakedContentIndex[_stakeId] > 0);\n\t\t// Make sure buyer has not bought this content previously\n\t\trequire (buyerOwnedStakeId[msg.sender][_stakeId].length == 0);\n\t\t// _host has to be either the stake owner (content creator) or someone who has purchased the content previously\n\t\trequire (_host == stakedContents[stakedContentIndex[_stakeId]].stakeOwner || buyerOwnedStakeId[_host][_stakeId].length > 0);\n\n\t\trequire (_networkIntegerAmount > 0 || _networkFractionAmount > 0 || _primordialAmount > 0);\n\t\t// Make sure the token amount can pay for the content price\n\t\trequire (_canBuy(_stakeId, _networkIntegerAmount, _networkFractionAmount, _denomination, _primordialAmount));\n\n\t\t// Increment totalBoughtContents;\n\t\ttotalBoughtContents++;\n\n\t\t// Generate buyId\n\t\tbytes32 _buyId = keccak256(abi.encodePacked(this, msg.sender, totalBoughtContents, _stakeId));\n\n\t\tBoughtContent storage _boughtContent = boughtContents[totalBoughtContents];\n\t\t_boughtContent.buyId = _buyId;\n\t\t_boughtContent.stakeId = _stakeId;\n\t\t_boughtContent.buyer = msg.sender;\n\t\t_boughtContent.host = _host;\n\t\t_boughtContent.createdOnTimestamp = now;\n\n\t\tboughtContentIndex[_buyId] = totalBoughtContents;\n\t\tbuyerOwnedStakeId[msg.sender][_stakeId] = _buyId;\n\n\t\tif (_denomination.length > 0 && (_networkIntegerAmount > 0 || _networkFractionAmount > 0)) {\n\t\t\trequire (_payNetworkToken(_buyId, _networkIntegerAmount, _networkFractionAmount, _denomination));\n\t\t}\n\t\tif (_primordialAmount > 0) {\n\t\t\trequire (_payPrimordialToken(_buyId, _primordialAmount));\n\t\t}\n\n\t\t// TODO:\n\t\t// Mint network token and reward Foundation, stake owner and host accordingly\n\n\t\temit BuyContent(_boughtContent.buyer, _boughtContent.buyId, _boughtContent.stakeId, _boughtContent.host, _networkIntegerAmount, _networkFractionAmount, _denomination, _boughtContent.networkAmount, _boughtContent.primordialAmount, _boughtContent.primordialWeightedIndex);\n\t}\n\n\t/***** INTERNAL METHODS *****/\n\t/**\n\t * @dev Check whether the network token and/or primordial token is adequate to pay for the filesize\n\t * @param _networkIntegerAmount The integer amount of the network token\n\t * @param _networkFractionAmount The fraction amount of the network token\n\t * @param _denomination The denomination of the the network token\n\t * @param _primordialAmount The amount of primordial token\n\t * @param _fileSize The file size of the content\n\t * @return true when the amount is sufficient, false otherwise\n\t */\n\tfunction _canStake(uint256 _networkIntegerAmount, uint256 _networkFractionAmount, bytes8 _denomination, uint256 _primordialAmount, uint256 _fileSize) internal view returns (bool) {\n\t\tif (_denomination.length > 0 && (_networkIntegerAmount > 0 || _networkFractionAmount > 0)) {\n\t\t\tif (_treasury.toBase(_networkIntegerAmount, _networkFractionAmount, _denomination).add(_primordialAmount) >= _fileSize) {\n\t\t\t\treturn true;\n\t\t\t} else {\n\t\t\t\treturn false;\n\t\t\t}\n\t\t} else if (_primordialAmount >= _fileSize) {\n\t\t\treturn true;\n\t\t} else {\n\t\t\treturn false;\n\t\t}\n\t}\n\n\t/**\n\t * @dev Check whether or the requested unstake amount is valid\n\t * @param _networkIntegerAmount The integer amount of the network token\n\t * @param _networkFractionAmount The fraction amount of the network token\n\t * @param _denomination The denomination of the the network token\n\t * @param _primordialAmount The amount of primordial token\n\t * @param _stakedNetworkAmount The current staked network token amount\n\t * @param _stakedPrimordialAmount The current staked primordial token amount\n\t * @param _stakedFileSize The file size of the staked content\n\t * @return true if can unstake, false otherwise\n\t */\n\tfunction _canUnstakePartial(\n\t\tuint256 _networkIntegerAmount,\n\t\tuint256 _networkFractionAmount,\n\t\tbytes8 _denomination,\n\t\tuint256 _primordialAmount,\n\t\tuint256 _stakedNetworkAmount,\n\t\tuint256 _stakedPrimordialAmount,\n\t\tuint256 _stakedFileSize) internal view returns (bool) {\n\t\tif (\n\t\t\t(_denomination.length > 0 &&\n\t\t\t\t(_networkIntegerAmount > 0 || _networkFractionAmount > 0) &&\n\t\t\t\t_stakedNetworkAmount < _treasury.toBase(_networkIntegerAmount, _networkFractionAmount, _denomination)\n\t\t\t) ||\n\t\t\t_stakedPrimordialAmount < _primordialAmount ||\n\t\t\t(\n\t\t\t\t_denomination.length > 0\n\t\t\t\t\t&& (_networkIntegerAmount > 0 || _networkFractionAmount > 0)\n\t\t\t\t\t&& (_stakedNetworkAmount.sub(_treasury.toBase(_networkIntegerAmount, _networkFractionAmount, _denomination)).add(_stakedPrimordialAmount.sub(_primordialAmount)) < _stakedFileSize)\n\t\t\t) ||\n\t\t\t( _denomination.length == 0 && _networkIntegerAmount == 0 && _networkFractionAmount == 0 && _primordialAmount > 0 && _stakedPrimordialAmount.sub(_primordialAmount) < _stakedFileSize)\n\t\t) {\n\t\t\treturn false;\n\t\t} else {\n\t\t\treturn true;\n\t\t}\n\t}\n\n\t/**\n\t * @dev Stake network token on existing staked content\n\t * @param _stakeId The ID of the staked content\n\t * @param _networkIntegerAmount The integer amount of the network token to stake\n\t * @param _networkFractionAmount The fraction amount of the network token to stake\n\t * @param _denomination The denomination of the the network token to stake\n\t * @return true on success\n\t */\n\tfunction _stakeNetworkToken(bytes32 _stakeId, uint256 _networkIntegerAmount, uint256 _networkFractionAmount, bytes8 _denomination) internal isValidDenomination(_denomination) returns (bool) {\n\t\tStakedContent storage _stakedContent = stakedContents[stakedContentIndex[_stakeId]];\n\t\t(address[] memory _paymentAddress, uint256[] memory _paymentAmount) = _treasury.determinePayment(_stakedContent.stakeOwner, _networkIntegerAmount, _networkFractionAmount, _denomination);\n\n\t\t_stakedContent.networkAmount = _stakedContent.networkAmount.add(_treasury.toBase(_networkIntegerAmount, _networkFractionAmount, _denomination));\n\n\t\t// Stake tokens from each denomination in payment address\n\t\tfor (uint256 i=0; i < _paymentAddress.length; i++) {\n\t\t\tif (_paymentAddress[i] != address(0) && _paymentAmount[i] > 0) {\n\t\t\t\trequire (AOToken(_paymentAddress[i]).stakeFrom(_stakedContent.stakeOwner, _paymentAmount[i]));\n\t\t\t}\n\t\t}\n\t\treturn true;\n\t}\n\n\t/**\n\t * @dev Stake primordial token on existing staked content\n\t * @param _stakeId The ID of the staked content\n\t * @param _primordialAmount The amount of the primordial token to stake\n\t * @return true on success\n\t */\n\tfunction _stakePrimordialToken(bytes32 _stakeId, uint256 _primordialAmount) internal returns (bool) {\n\t\t// Make sure base denomination is active\n\t\t(, address _baseDenominationAddress, bool _baseDenominationActive) = _treasury.getBaseDenomination();\n\t\trequire (_baseDenominationAddress != address(0));\n\t\trequire (_baseDenominationActive == true);\n\n\t\tStakedContent storage _stakedContent = stakedContents[stakedContentIndex[_stakeId]];\n\n\t\t_stakedContent.primordialAmount = _stakedContent.primordialAmount.add(_primordialAmount);\n\n\t\t// Primordial Token is the base AO Token\n\t\tAOToken _primordialToken = AOToken(_baseDenominationAddress);\n\t\t_stakedContent.primordialWeightedIndex = _primordialToken.weightedIndexByAddress(_stakedContent.stakeOwner);\n\t\trequire (_primordialToken.stakeIcoTokenFrom(_stakedContent.stakeOwner, _primordialAmount, _stakedContent.primordialWeightedIndex));\n\t\treturn true;\n\t}\n\n\t/**\n\t * @dev Unstake some network token on existing staked content\n\t * @param _stakeId The ID of the staked content\n\t * @param _networkIntegerAmount The integer amount of the network token to unstake\n\t * @param _networkFractionAmount The fraction amount of the network token to unstake\n\t * @param _denomination The denomination of the the network token to unstake\n\t * @return true on success\n\t */\n\tfunction _unstakePartialNetworkToken(bytes32 _stakeId, uint256 _networkIntegerAmount, uint256 _networkFractionAmount, bytes8 _denomination) internal isValidDenomination(_denomination) returns (bool) {\n\t\tStakedContent storage _stakedContent = stakedContents[stakedContentIndex[_stakeId]];\n\t\t(address[] memory _unstakeAddress, uint256[] memory _unstakeAmount) = _treasury.determineUnstake(_stakedContent.stakeOwner, _networkIntegerAmount, _networkFractionAmount, _denomination);\n\n\t\t_stakedContent.networkAmount = _stakedContent.networkAmount.sub(_treasury.toBase(_networkIntegerAmount, _networkFractionAmount, _denomination));\n\n\t\t// Unstake tokens from each denomination in unstake address\n\t\tfor (uint256 i=0; i < _unstakeAddress.length; i++) {\n\t\t\tif (_unstakeAddress[i] != address(0) && _unstakeAmount[i] > 0) {\n\t\t\t\trequire (AOToken(_unstakeAddress[i]).unstakeFrom(_stakedContent.stakeOwner, _unstakeAmount[i]));\n\t\t\t}\n\t\t}\n\t\treturn true;\n\t}\n\n\t/**\n\t * @dev Unstake some primordial token on existing staked content\n\t * @param _stakeId The ID of the staked content\n\t * @param _primordialAmount The amount of the primordial token to unstake\n\t * @return true on success\n\t */\n\tfunction _unstakePartialPrimordialToken(bytes32 _stakeId, uint256 _primordialAmount) internal returns (bool) {\n\t\t// Make sure base denomination is active\n\t\t(, address _baseDenominationAddress, bool _baseDenominationActive) = _treasury.getBaseDenomination();\n\t\trequire (_baseDenominationAddress != address(0));\n\t\trequire (_baseDenominationActive == true);\n\n\t\tStakedContent storage _stakedContent = stakedContents[stakedContentIndex[_stakeId]];\n\n\t\t_stakedContent.primordialAmount = _stakedContent.primordialAmount.sub(_primordialAmount);\n\n\t\t// Primordial Token is the base AO Token\n\t\tAOToken _primordialToken = AOToken(_baseDenominationAddress);\n\t\trequire (_primordialToken.unstakeIcoTokenFrom(_stakedContent.stakeOwner, _primordialAmount, _stakedContent.primordialWeightedIndex));\n\t\treturn true;\n\t}\n\n\t/**\n\t * @dev Check whether the network token and/or primordial token is adequate to pay for existing staked content\n\t * @param _stakeId The stake ID to be checked\n\t * @param _networkIntegerAmount The integer amount of the network token\n\t * @param _networkFractionAmount The fraction amount of the network token\n\t * @param _denomination The denomination of the the network token\n\t * @param _primordialAmount The amount of primordial token\n\t * @return true when the amount is sufficient, false otherwise\n\t */\n\tfunction _canStakeExisting(bytes32 _stakeId, uint256 _networkIntegerAmount, uint256 _networkFractionAmount, bytes8 _denomination, uint256 _primordialAmount) internal view returns (bool) {\n\t\tStakedContent memory _stakedContent = stakedContents[stakedContentIndex[_stakeId]];\n\n\t\tif (_denomination.length > 0 && (_networkIntegerAmount > 0 || _networkFractionAmount > 0)) {\n\t\t\treturn _treasury.toBase(_networkIntegerAmount, _networkFractionAmount, _denomination).add(_primordialAmount).add(_stakedContent.networkAmount).add(_stakedContent.primordialAmount) >= _stakedContent.fileSize;\n\t\t} else if (_primordialAmount > 0) {\n\t\t\treturn _stakedContent.networkAmount.add(_stakedContent.primordialAmount).add(_primordialAmount) >= _stakedContent.fileSize;\n\t\t} else {\n\t\t\treturn false;\n\t\t}\n\t}\n\n\t/**\n\t * @dev Check whether the network token and/or primordial token is adequate to pay for existing staked content\n\t * @param _stakeId The stake ID to be checked\n\t * @param _networkIntegerAmount The integer amount of the network token\n\t * @param _networkFractionAmount The fraction amount of the network token\n\t * @param _denomination The denomination of the the network token\n\t * @param _primordialAmount The amount of primordial token\n\t * @return true when the amount is sufficient, false otherwise\n\t */\n\tfunction _canBuy(bytes32 _stakeId, uint256 _networkIntegerAmount, uint256 _networkFractionAmount, bytes8 _denomination, uint256 _primordialAmount) internal view returns (bool) {\n\t\tStakedContent memory _stakedContent = stakedContents[stakedContentIndex[_stakeId]];\n\t\tuint256 _price = _stakedContent.networkAmount.add(_stakedContent.primordialAmount);\n\n\t\tif (_denomination.length > 0 && (_networkIntegerAmount > 0 || _networkFractionAmount > 0)) {\n\t\t\treturn _treasury.toBase(_networkIntegerAmount, _networkFractionAmount, _denomination).add(_primordialAmount) >= _price;\n\t\t} else if (_primordialAmount > 0) {\n\t\t\treturn _primordialAmount >= _price;\n\t\t} else {\n\t\t\treturn false;\n\t\t}\n\t}\n\n\n\t/**\n\t * @dev Pay bought content with network token\n\t * @param _buyId The ID of the bought content\n\t * @param _networkIntegerAmount The integer amount of the network token to pay\n\t * @param _networkFractionAmount The fraction amount of the network token to pay\n\t * @param _denomination The denomination of the the network token to pay\n\t * @return true on success\n\t */\n\tfunction _payNetworkToken(bytes32 _buyId, uint256 _networkIntegerAmount, uint256 _networkFractionAmount, bytes8 _denomination) internal isValidDenomination(_denomination) returns (bool) {\n\t\tBoughtContent storage _boughtContent = boughtContents[boughtContentIndex[_buyId]];\n\t\tStakedContent memory _stakedContent = stakedContents[stakedContentIndex[_boughtContent.stakeId]];\n\n\t\t_boughtContent.networkAmount = _treasury.toBase(_networkIntegerAmount, _networkFractionAmount, _denomination);\n\n\t\t// Transfer payment\n\t\trequire (_transferNetworkTokenPayment(_boughtContent.buyer, _networkIntegerAmount, _networkFractionAmount, _denomination));\n\n\t\t// Store how much the content creator earns\n\t\tuint256 _contentCreatorProfit = (_boughtContent.networkAmount.mul(_stakedContent.profitPercentage)).div(PERCENTAGE_DIVISOR);\n\t\tbuyContentNetworkTokenProfit[_stakedContent.stakeOwner] = buyContentNetworkTokenProfit[_stakedContent.stakeOwner].add(_contentCreatorProfit);\n\t\temit BuyContentNetworkTokenEarning(_boughtContent.buyer, _stakedContent.stakeOwner, _boughtContent.buyId, _boughtContent.stakeId, _boughtContent.networkAmount, _contentCreatorProfit, _stakedContent.profitPercentage, 0);\n\n\t\t// Store how much the node host earns\n\t\tbuyContentNetworkTokenProfit[_boughtContent.host] = buyContentNetworkTokenProfit[_boughtContent.host].add(_boughtContent.networkAmount.sub(_contentCreatorProfit));\n\t\temit BuyContentNetworkTokenEarning(_boughtContent.buyer, _boughtContent.host, _boughtContent.buyId, _boughtContent.stakeId, _boughtContent.networkAmount, _boughtContent.networkAmount.sub(_contentCreatorProfit), PERCENTAGE_DIVISOR.sub(_stakedContent.profitPercentage), 1);\n\t\treturn true;\n\t}\n\n\t/**\n\t * @dev Actually transfer the network token for the purchase\n\t * @param _sender The address of the sender\n\t * @param _networkIntegerAmount The integer amount of the network token to transfer\n\t * @param _networkFractionAmount The fraction amount of the network token to transfer\n\t * @param _denomination The denomination of the the network token to transfer\n\t * @return true on success\n\t */\n\tfunction _transferNetworkTokenPayment(address _sender, uint256 _networkIntegerAmount, uint256 _networkFractionAmount, bytes8 _denomination) internal returns (bool) {\n\t\t// Transfer tokens from each denomination in payment address to this contract\n\t\t(address[] memory _paymentAddress, uint256[] memory _paymentAmount) = _treasury.determinePayment(_sender, _networkIntegerAmount, _networkFractionAmount, _denomination);\n\n\t\tfor (uint256 i=0; i < _paymentAddress.length; i++) {\n\t\t\tif (_paymentAddress[i] != address(0) && _paymentAmount[i] > 0) {\n\t\t\t\trequire (AOToken(_paymentAddress[i]).whitelistTransferFrom(_sender, this, _paymentAmount[i]));\n\t\t\t}\n\t\t}\n\t\treturn true;\n\t}\n\n\t/**\n\t * @dev Pay bought content with primordial token\n\t * @param _buyId The ID of the bought content\n\t * @param _primordialAmount The amount of the primordial token to pay\n\t * @return true on success\n\t */\n\tfunction _payPrimordialToken(bytes32 _buyId, uint256 _primordialAmount) internal returns (bool) {\n\t\t// Make sure base denomination is active\n\t\t(, address _baseDenominationAddress, bool _baseDenominationActive) = _treasury.getBaseDenomination();\n\t\trequire (_baseDenominationAddress != address(0));\n\t\trequire (_baseDenominationActive == true);\n\n\t\tBoughtContent storage _boughtContent = boughtContents[boughtContentIndex[_buyId]];\n\t\tStakedContent memory _stakedContent = stakedContents[stakedContentIndex[_boughtContent.stakeId]];\n\n\t\t_boughtContent.primordialAmount = _primordialAmount;\n\n\t\t// Primordial Token is the base AO Token\n\t\tAOToken _primordialToken = AOToken(_baseDenominationAddress);\n\t\t_boughtContent.primordialWeightedIndex = _primordialToken.weightedIndexByAddress(_boughtContent.buyer);\n\n\t\t// Transfer payment\n\t\trequire (_primordialToken.whitelistTransferIcoTokenFrom(_boughtContent.buyer, this, _boughtContent.primordialAmount));\n\n\t\t// Store how much the content creator earns\n\t\tuint256 _contentCreatorProfit = (_boughtContent.primordialAmount.mul(_stakedContent.profitPercentage)).div(PERCENTAGE_DIVISOR);\n\t\tbuyContentPrimordialTokenProfit[_stakedContent.stakeOwner][_boughtContent.primordialWeightedIndex] = buyContentPrimordialTokenProfit[_stakedContent.stakeOwner][_boughtContent.primordialWeightedIndex].add(_contentCreatorProfit);\n\t\temit BuyContentPrimordialTokenEarning(_boughtContent.buyer, _stakedContent.stakeOwner, _boughtContent.buyId, _boughtContent.stakeId, _boughtContent.primordialAmount, _boughtContent.primordialWeightedIndex, _contentCreatorProfit, _stakedContent.profitPercentage, 0);\n\n\t\t// Store how much the node host earns\n\t\tbuyContentPrimordialTokenProfit[_boughtContent.host][_boughtContent.primordialWeightedIndex] = buyContentPrimordialTokenProfit[_boughtContent.host][_boughtContent.primordialWeightedIndex].add(_boughtContent.primordialAmount.sub(_contentCreatorProfit));\n\t\temit BuyContentPrimordialTokenEarning(_boughtContent.buyer, _boughtContent.host, _boughtContent.buyId, _boughtContent.stakeId, _boughtContent.primordialAmount, _boughtContent.primordialWeightedIndex, _boughtContent.primordialAmount.sub(_contentCreatorProfit), PERCENTAGE_DIVISOR.sub(_stakedContent.profitPercentage), 1);\n\t\treturn true;\n\t}\n}\n",
	"sourcePath": "/home/jmulyono/ao-contracts/contracts/AOContent.sol",
	"compiler": {
		"name": "solc",
		"version": "0.4.24+commit.e67f0147.Emscripten.clang"
	},
	"schemaVersion": "1.0.1",
	"updatedAt": "2018-08-06T14:39:08.806Z"
}