{
  "contractName": "AOContentHost",
  "abi": [
    {
      "constant": true,
      "inputs": [],
      "name": "aoStakedContentAddress",
      "outputs": [
        {
          "name": "",
          "type": "address"
        }
      ],
      "payable": false,
      "stateMutability": "view",
      "type": "function"
    },
    {
      "constant": true,
      "inputs": [],
      "name": "nameTAOPositionAddress",
      "outputs": [
        {
          "name": "",
          "type": "address"
        }
      ],
      "payable": false,
      "stateMutability": "view",
      "type": "function"
    },
    {
      "constant": true,
      "inputs": [],
      "name": "aoContentAddress",
      "outputs": [
        {
          "name": "",
          "type": "address"
        }
      ],
      "payable": false,
      "stateMutability": "view",
      "type": "function"
    },
    {
      "constant": true,
      "inputs": [],
      "name": "aoEarningAddress",
      "outputs": [
        {
          "name": "",
          "type": "address"
        }
      ],
      "payable": false,
      "stateMutability": "view",
      "type": "function"
    },
    {
      "constant": true,
      "inputs": [
        {
          "name": "",
          "type": "address"
        }
      ],
      "name": "whitelist",
      "outputs": [
        {
          "name": "",
          "type": "bool"
        }
      ],
      "payable": false,
      "stateMutability": "view",
      "type": "function"
    },
    {
      "constant": true,
      "inputs": [],
      "name": "theAO",
      "outputs": [
        {
          "name": "",
          "type": "address"
        }
      ],
      "payable": false,
      "stateMutability": "view",
      "type": "function"
    },
    {
      "constant": true,
      "inputs": [],
      "name": "totalContentHosts",
      "outputs": [
        {
          "name": "",
          "type": "uint256"
        }
      ],
      "payable": false,
      "stateMutability": "view",
      "type": "function"
    },
    {
      "constant": true,
      "inputs": [],
      "name": "aoPurchaseReceiptAddress",
      "outputs": [
        {
          "name": "",
          "type": "address"
        }
      ],
      "payable": false,
      "stateMutability": "view",
      "type": "function"
    },
    {
      "inputs": [
        {
          "name": "_aoContentAddress",
          "type": "address"
        },
        {
          "name": "_aoStakedContentAddress",
          "type": "address"
        },
        {
          "name": "_aoPurchaseReceiptAddress",
          "type": "address"
        },
        {
          "name": "_aoEarningAddress",
          "type": "address"
        },
        {
          "name": "_nameTAOPositionAddress",
          "type": "address"
        }
      ],
      "payable": false,
      "stateMutability": "nonpayable",
      "type": "constructor"
    },
    {
      "anonymous": false,
      "inputs": [
        {
          "indexed": true,
          "name": "host",
          "type": "address"
        },
        {
          "indexed": true,
          "name": "contentHostId",
          "type": "bytes32"
        },
        {
          "indexed": false,
          "name": "stakedContentId",
          "type": "bytes32"
        },
        {
          "indexed": false,
          "name": "contentId",
          "type": "bytes32"
        },
        {
          "indexed": false,
          "name": "contentDatKey",
          "type": "string"
        },
        {
          "indexed": false,
          "name": "metadataDatKey",
          "type": "string"
        }
      ],
      "name": "HostContent",
      "type": "event"
    },
    {
      "constant": false,
      "inputs": [
        {
          "name": "_theAO",
          "type": "address"
        }
      ],
      "name": "transferOwnership",
      "outputs": [],
      "payable": false,
      "stateMutability": "nonpayable",
      "type": "function"
    },
    {
      "constant": false,
      "inputs": [
        {
          "name": "_account",
          "type": "address"
        },
        {
          "name": "_whitelist",
          "type": "bool"
        }
      ],
      "name": "setWhitelist",
      "outputs": [],
      "payable": false,
      "stateMutability": "nonpayable",
      "type": "function"
    },
    {
      "constant": false,
      "inputs": [
        {
          "name": "_aoContentAddress",
          "type": "address"
        }
      ],
      "name": "setAOContentAddress",
      "outputs": [],
      "payable": false,
      "stateMutability": "nonpayable",
      "type": "function"
    },
    {
      "constant": false,
      "inputs": [
        {
          "name": "_aoStakedContentAddress",
          "type": "address"
        }
      ],
      "name": "setAOStakedContentAddress",
      "outputs": [],
      "payable": false,
      "stateMutability": "nonpayable",
      "type": "function"
    },
    {
      "constant": false,
      "inputs": [
        {
          "name": "_aoPurchaseReceiptAddress",
          "type": "address"
        }
      ],
      "name": "setAOPurchaseReceiptAddress",
      "outputs": [],
      "payable": false,
      "stateMutability": "nonpayable",
      "type": "function"
    },
    {
      "constant": false,
      "inputs": [
        {
          "name": "_aoEarningAddress",
          "type": "address"
        }
      ],
      "name": "setAOEarningAddress",
      "outputs": [],
      "payable": false,
      "stateMutability": "nonpayable",
      "type": "function"
    },
    {
      "constant": false,
      "inputs": [
        {
          "name": "_nameTAOPositionAddress",
          "type": "address"
        }
      ],
      "name": "setNameTAOPositionAddress",
      "outputs": [],
      "payable": false,
      "stateMutability": "nonpayable",
      "type": "function"
    },
    {
      "constant": false,
      "inputs": [
        {
          "name": "_host",
          "type": "address"
        },
        {
          "name": "_stakedContentId",
          "type": "bytes32"
        },
        {
          "name": "_encChallenge",
          "type": "string"
        },
        {
          "name": "_contentDatKey",
          "type": "string"
        },
        {
          "name": "_metadataDatKey",
          "type": "string"
        }
      ],
      "name": "create",
      "outputs": [
        {
          "name": "",
          "type": "bool"
        }
      ],
      "payable": false,
      "stateMutability": "nonpayable",
      "type": "function"
    },
    {
      "constant": true,
      "inputs": [
        {
          "name": "_contentHostId",
          "type": "bytes32"
        }
      ],
      "name": "getById",
      "outputs": [
        {
          "name": "",
          "type": "bytes32"
        },
        {
          "name": "",
          "type": "bytes32"
        },
        {
          "name": "",
          "type": "address"
        },
        {
          "name": "",
          "type": "string"
        },
        {
          "name": "",
          "type": "string"
        }
      ],
      "payable": false,
      "stateMutability": "view",
      "type": "function"
    },
    {
      "constant": true,
      "inputs": [
        {
          "name": "_contentHostId",
          "type": "bytes32"
        }
      ],
      "name": "contentHostPrice",
      "outputs": [
        {
          "name": "",
          "type": "uint256"
        }
      ],
      "payable": false,
      "stateMutability": "view",
      "type": "function"
    },
    {
      "constant": true,
      "inputs": [
        {
          "name": "_contentHostId",
          "type": "bytes32"
        }
      ],
      "name": "contentHostPaidByAO",
      "outputs": [
        {
          "name": "",
          "type": "uint256"
        }
      ],
      "payable": false,
      "stateMutability": "view",
      "type": "function"
    },
    {
      "constant": true,
      "inputs": [
        {
          "name": "_contentHostId",
          "type": "bytes32"
        }
      ],
      "name": "isExist",
      "outputs": [
        {
          "name": "",
          "type": "bool"
        }
      ],
      "payable": false,
      "stateMutability": "view",
      "type": "function"
    },
    {
      "constant": false,
      "inputs": [
        {
          "name": "_purchaseReceiptId",
          "type": "bytes32"
        },
        {
          "name": "_baseChallengeV",
          "type": "uint8"
        },
        {
          "name": "_baseChallengeR",
          "type": "bytes32"
        },
        {
          "name": "_baseChallengeS",
          "type": "bytes32"
        },
        {
          "name": "_encChallenge",
          "type": "string"
        },
        {
          "name": "_contentDatKey",
          "type": "string"
        },
        {
          "name": "_metadataDatKey",
          "type": "string"
        }
      ],
      "name": "becomeHost",
      "outputs": [],
      "payable": false,
      "stateMutability": "nonpayable",
      "type": "function"
    }
  ],
  "bytecode": "0x60806040523480156200001157600080fd5b5060405160a080620024a7833981018060405260a08110156200003357600080fd5b50805160208083015160408401516060850151608090950151600080546001600160a01b0319163317905593949193909262000075908690620000c4811b901c565b6200008684620001c560201b60201c565b6200009783620002c660201b60201c565b620000a882620003c760201b60201c565b620000b981620004c860201b60201c565b5050505050620005bf565b600054600154604080517ff66afcac0000000000000000000000000000000000000000000000000000000081523360048201526001600160a01b0393841660248201529290911660448301525173__AOLibrary_____________________________9163f66afcac916064808301926020929190829003018186803b1580156200014d57600080fd5b505af415801562000162573d6000803e3d6000fd5b505050506040513d60208110156200017957600080fd5b50516200018557600080fd5b6001600160a01b0381166200019957600080fd5b600480546001600160a01b039092166001600160a01b0319928316811790915560088054909216179055565b600054600154604080517ff66afcac0000000000000000000000000000000000000000000000000000000081523360048201526001600160a01b0393841660248201529290911660448301525173__AOLibrary_____________________________9163f66afcac916064808301926020929190829003018186803b1580156200024e57600080fd5b505af415801562000263573d6000803e3d6000fd5b505050506040513d60208110156200027a57600080fd5b50516200028657600080fd5b6001600160a01b0381166200029a57600080fd5b600580546001600160a01b039092166001600160a01b0319928316811790915560098054909216179055565b600054600154604080517ff66afcac0000000000000000000000000000000000000000000000000000000081523360048201526001600160a01b0393841660248201529290911660448301525173__AOLibrary_____________________________9163f66afcac916064808301926020929190829003018186803b1580156200034f57600080fd5b505af415801562000364573d6000803e3d6000fd5b505050506040513d60208110156200037b57600080fd5b50516200038757600080fd5b6001600160a01b0381166200039b57600080fd5b600680546001600160a01b039092166001600160a01b03199283168117909155600a8054909216179055565b600054600154604080517ff66afcac0000000000000000000000000000000000000000000000000000000081523360048201526001600160a01b0393841660248201529290911660448301525173__AOLibrary_____________________________9163f66afcac916064808301926020929190829003018186803b1580156200045057600080fd5b505af415801562000465573d6000803e3d6000fd5b505050506040513d60208110156200047c57600080fd5b50516200048857600080fd5b6001600160a01b0381166200049c57600080fd5b600780546001600160a01b039092166001600160a01b03199283168117909155600b8054909216179055565b600054600154604080517ff66afcac0000000000000000000000000000000000000000000000000000000081523360048201526001600160a01b0393841660248201529290911660448301525173__AOLibrary_____________________________9163f66afcac916064808301926020929190829003018186803b1580156200055157600080fd5b505af415801562000566573d6000803e3d6000fd5b505050506040513d60208110156200057d57600080fd5b50516200058957600080fd5b6001600160a01b0381166200059d57600080fd5b600180546001600160a01b0319166001600160a01b0392909216919091179055565b611ed880620005cf6000396000f3fe608060405234801561001057600080fd5b50600436106101375760003560e01c806386231b9e116100b8578063a9e3fd271161007c578063a9e3fd27146106b6578063bc6abaa2146106d3578063c7061f97146106f9578063c96a74e51461071f578063e669ecab14610727578063f2fde38b1461072f57610137565b806386231b9e1461062b57806389a832461461065a5780638f629222146106805780639b19251a14610688578063a9b6b38e146106ae57610137565b806353d6fd59116100ff57806353d6fd59146103e9578063555ea48c146104175780635cfaf2ef146105e0578063762fee181461060657806385cb86c81461062357610137565b8063078753ad1461013c5780630da8097d146101605780632dff0d0d146102975780633e36144f146103b95780634ef033f0146103e1575b600080fd5b610144610755565b604080516001600160a01b039092168252519081900360200190f35b610283600480360360a081101561017657600080fd5b6001600160a01b0382351691602081013591810190606081016040820135600160201b8111156101a557600080fd5b8201836020820111156101b757600080fd5b803590602001918460018302840111600160201b831117156101d857600080fd5b919390929091602081019035600160201b8111156101f557600080fd5b82018360208201111561020757600080fd5b803590602001918460018302840111600160201b8311171561022857600080fd5b919390929091602081019035600160201b81111561024557600080fd5b82018360208201111561025757600080fd5b803590602001918460018302840111600160201b8311171561027857600080fd5b509092509050610764565b604080519115158252519081900360200190f35b6102b4600480360360208110156102ad57600080fd5b5035610846565b60405180868152602001858152602001846001600160a01b03166001600160a01b031681526020018060200180602001838103835285818151815260200191508051906020019080838360005b83811015610319578181015183820152602001610301565b50505050905090810190601f1680156103465780820380516001836020036101000a031916815260200191505b50838103825284518152845160209182019186019080838360005b83811015610379578181015183820152602001610361565b50505050905090810190601f1680156103a65780820380516001836020036101000a031916815260200191505b5097505050505050505060405180910390f35b6103df600480360360208110156103cf57600080fd5b50356001600160a01b0316610aa9565b005b610144610b8f565b6103df600480360360408110156103ff57600080fd5b506001600160a01b0381351690602001351515610b9e565b6103df600480360360e081101561042d57600080fd5b81359160ff6020820135169160408201359160608101359181019060a081016080820135600160201b81111561046257600080fd5b82018360208201111561047457600080fd5b803590602001918460018302840111600160201b8311171561049557600080fd5b91908080601f0160208091040260200160405190810160405280939291908181526020018383808284376000920191909152509295949360208101935035915050600160201b8111156104e757600080fd5b8201836020820111156104f957600080fd5b803590602001918460018302840111600160201b8311171561051a57600080fd5b91908080601f0160208091040260200160405190810160405280939291908181526020018383808284376000920191909152509295949360208101935035915050600160201b81111561056c57600080fd5b82018360208201111561057e57600080fd5b803590602001918460018302840111600160201b8311171561059f57600080fd5b91908080601f016020809104026020016040519081016040528093929190818152602001838380828437600092019190915250929550610c83945050505050565b6103df600480360360208110156105f657600080fd5b50356001600160a01b0316610e57565b6102836004803603602081101561061c57600080fd5b5035610f33565b610144610f4a565b6106486004803603602081101561064157600080fd5b5035610f59565b60408051918252519081900360200190f35b6103df6004803603602081101561067057600080fd5b50356001600160a01b031661112e565b610144611214565b6102836004803603602081101561069e57600080fd5b50356001600160a01b0316611223565b610144611238565b610648600480360360208110156106cc57600080fd5b5035611247565b6103df600480360360208110156106e957600080fd5b50356001600160a01b03166113a7565b6103df6004803603602081101561070f57600080fd5b50356001600160a01b031661148d565b610648611573565b610144611579565b6103df6004803603602081101561074557600080fd5b50356001600160a01b0316611588565b6005546001600160a01b031681565b3360009081526002602052604081205460ff16151560011461078557600080fd5b61082e898989898080601f01602080910402602001604051908101604052809392919081815260200183838082843760009201919091525050604080516020601f8d018190048102820181019092528b815292508b91508a908190840183828082843760009201919091525050604080516020601f8c018190048102820181019092528a815292508a915089908190840183828082843760009201919091525061166492505050565b61083757600080fd5b50600198975050505050505050565b6000818152600d602052604081205481908190606090819061086757600080fd5b61086f611dd3565b6000878152600d60209081526040808320548352600c825291829020825160e08101845281548152600180830154828501526002808401548387015260038401546001600160a01b0316606084015260048401805487516101009482161594909402600019011691909104601f81018690048602830186019096528582529194929360808601939192919083018282801561094b5780601f106109205761010080835404028352916020019161094b565b820191906000526020600020905b81548152906001019060200180831161092e57829003601f168201915b505050918352505060058201805460408051602060026001851615610100026000190190941693909304601f81018490048402820184019092528181529382019392918301828280156109df5780601f106109b4576101008083540402835291602001916109df565b820191906000526020600020905b8154815290600101906020018083116109c257829003601f168201915b505050918352505060068201805460408051602060026001851615610100026000190190941693909304601f8101849004840282018401909252818152938201939291830182828015610a735780601f10610a4857610100808354040283529160200191610a73565b820191906000526020600020905b815481529060010190602001808311610a5657829003601f168201915b5050509190925250505060208101516040820151606083015160a084015160c090940151929b919a509850919650945092505050565b60005460015460408051600160e21b633d9abf2b0281523360048201526001600160a01b0393841660248201529290911660448301525173__AOLibrary_____________________________9163f66afcac916064808301926020929190829003018186803b158015610b1b57600080fd5b505af4158015610b2f573d6000803e3d6000fd5b505050506040513d6020811015610b4557600080fd5b5051610b5057600080fd5b6001600160a01b038116610b6357600080fd5b600580546001600160a01b039092166001600160a01b0319928316811790915560098054909216179055565b6001546001600160a01b031681565b60005460015460408051600160e21b633d9abf2b0281523360048201526001600160a01b0393841660248201529290911660448301525173__AOLibrary_____________________________9163f66afcac916064808301926020929190829003018186803b158015610c1057600080fd5b505af4158015610c24573d6000803e3d6000fd5b505050506040513d6020811015610c3a57600080fd5b5051610c4557600080fd5b6001600160a01b038216610c5857600080fd5b6001600160a01b03919091166000908152600260205260409020805460ff1916911515919091179055565b610c908733888888611a10565b610c9957600080fd5b600a5460408051600160e01b632dff0d0d028152600481018a905290516000926001600160a01b031691632dff0d0d9160248083019286929190829003018186803b158015610ce757600080fd5b505afa158015610cfb573d6000803e3d6000fd5b505050506040513d6000823e601f3d908101601f19168201604052610140811015610d2557600080fd5b8151602083015160408401516060850151608086015160a087015160c088015160e08901805197999698959794969395929491939283019291600160201b811115610d6f57600080fd5b82016020810184811115610d8257600080fd5b8151600160201b811182820187101715610d9b57600080fd5b50999b50610dbe9a503399508b98508e97508d96508c9550611664945050505050565b610dc757600080fd5b600b5460408051600160e01b634c9e0913028152600481018b905290516001600160a01b0390921691634c9e0913916024808201926020929091908290030181600087803b158015610e1857600080fd5b505af1158015610e2c573d6000803e3d6000fd5b505050506040513d6020811015610e4257600080fd5b5051610e4d57600080fd5b5050505050505050565b60005460015460408051600160e21b633d9abf2b0281523360048201526001600160a01b0393841660248201529290911660448301525173__AOLibrary_____________________________9163f66afcac916064808301926020929190829003018186803b158015610ec957600080fd5b505af4158015610edd573d6000803e3d6000fd5b505050506040513d6020811015610ef357600080fd5b5051610efe57600080fd5b6001600160a01b038116610f1157600080fd5b600180546001600160a01b0319166001600160a01b0392909216919091179055565b6000818152600d602052604090205415155b919050565b6004546001600160a01b031681565b6000818152600d6020526040812054610f7157600080fd5b6000828152600d60209081526040808320548352600c825291829020600101546009548351600160e21b63170da40702815260048101839052935191936001600160a01b0390911692635c36901c92602480840193829003018186803b158015610fda57600080fd5b505afa158015610fee573d6000803e3d6000fd5b505050506040513d602081101561100457600080fd5b505161100f57600080fd5b6000838152600d60209081526040808320548352600c825291829020600201546008548351600160e11b6332e7856702815260048101839052935191936001600160a01b03909116926365cf0ace92602480840193829003018186803b15801561107857600080fd5b505afa15801561108c573d6000803e3d6000fd5b505050506040513d60208110156110a257600080fd5b5051156110b457600092505050610f45565b306001600160a01b031663a9e3fd27856040518263ffffffff1660e01b81526004018082815260200191505060206040518083038186803b1580156110f857600080fd5b505afa15801561110c573d6000803e3d6000fd5b505050506040513d602081101561112257600080fd5b50519250610f45915050565b60005460015460408051600160e21b633d9abf2b0281523360048201526001600160a01b0393841660248201529290911660448301525173__AOLibrary_____________________________9163f66afcac916064808301926020929190829003018186803b1580156111a057600080fd5b505af41580156111b4573d6000803e3d6000fd5b505050506040513d60208110156111ca57600080fd5b50516111d557600080fd5b6001600160a01b0381166111e857600080fd5b600480546001600160a01b039092166001600160a01b0319928316811790915560088054909216179055565b6007546001600160a01b031681565b60026020526000908152604090205460ff1681565b6000546001600160a01b031681565b6000818152600d602052604081205461125f57600080fd5b6000828152600d60209081526040808320548352600c825291829020600101546009548351600160e21b63170da40702815260048101839052935191936001600160a01b0390911692635c36901c92602480840193829003018186803b1580156112c857600080fd5b505afa1580156112dc573d6000803e3d6000fd5b505050506040513d60208110156112f257600080fd5b50516112fd57600080fd5b60095460408051600160e01b632dff0d0d02815260048101849052905160009283926001600160a01b0390911691632dff0d0d9160248082019261010092909190829003018186803b15801561135257600080fd5b505afa158015611366573d6000803e3d6000fd5b505050506040513d61010081101561137d57600080fd5b506040810151606090910151909250905061139e828263ffffffff611ab416565b95945050505050565b60005460015460408051600160e21b633d9abf2b0281523360048201526001600160a01b0393841660248201529290911660448301525173__AOLibrary_____________________________9163f66afcac916064808301926020929190829003018186803b15801561141957600080fd5b505af415801561142d573d6000803e3d6000fd5b505050506040513d602081101561144357600080fd5b505161144e57600080fd5b6001600160a01b03811661146157600080fd5b600680546001600160a01b039092166001600160a01b03199283168117909155600a8054909216179055565b60005460015460408051600160e21b633d9abf2b0281523360048201526001600160a01b0393841660248201529290911660448301525173__AOLibrary_____________________________9163f66afcac916064808301926020929190829003018186803b1580156114ff57600080fd5b505af4158015611513573d6000803e3d6000fd5b505050506040513d602081101561152957600080fd5b505161153457600080fd5b6001600160a01b03811661154757600080fd5b600780546001600160a01b039092166001600160a01b03199283168117909155600b8054909216179055565b60035481565b6006546001600160a01b031681565b60005460015460408051600160e21b633d9abf2b0281523360048201526001600160a01b0393841660248201529290911660448301525173__AOLibrary_____________________________9163f66afcac916064808301926020929190829003018186803b1580156115fa57600080fd5b505af415801561160e573d6000803e3d6000fd5b505050506040513d602081101561162457600080fd5b505161162f57600080fd5b6001600160a01b03811661164257600080fd5b600080546001600160a01b0319166001600160a01b0392909216919091179055565b60006001600160a01b03861661167957600080fd5b600084511161168757600080fd5b600083511161169557600080fd5b60008251116116a357600080fd5b60095460408051600160e21b63170da4070281526004810188905290516001600160a01b0390921691635c36901c91602480820192602092909190829003018186803b1580156116f257600080fd5b505afa158015611706573d6000803e3d6000fd5b505050506040513d602081101561171c57600080fd5b505161172757600080fd5b600380546001018082556040805130606090811b6020808401919091526001600160a01b03808d1690921b603484015260488084018c905284518085039091018152606890930184528251928101929092206000948552600c9092529190922092830154919291161561179957600080fd5b60095460408051600160e01b632dff0d0d028152600481018a905290516000926001600160a01b031691632dff0d0d91602480830192610100929190829003018186803b1580156117e957600080fd5b505afa1580156117fd573d6000803e3d6000fd5b505050506040513d61010081101561181457600080fd5b505183835560018301899055600283018190556003830180546001600160a01b0319166001600160a01b038c16179055875190915061185c90600484019060208a0190611e11565b5085516118729060058401906020890190611e11565b5084516118889060068401906020880190611e11565b50600380546000858152600d6020908152604091829020929092558454928501546001808701546002808901548551838152968701819052608095870186815260058b018054600019968116156101000296909601909516929092049587018690526001600160a01b03909416957f3822dc82485ad7da8362b68055846011a5882496620bcc8e725a6f810591eb10959294939260068b019290606083019060a08401908690801561197b5780601f106119505761010080835404028352916020019161197b565b820191906000526020600020905b81548152906001019060200180831161195e57829003601f168201915b50508381038252845460026000196101006001841615020190911604808252602090910190859080156119ef5780601f106119c4576101008083540402835291602001916119ef565b820191906000526020600020905b8154815290600101906020018083116119d257829003601f168201915b5050965050505050505060405180910390a350600198975050505050505050565b600a5460408051600160e11b6303388421028152600481018890526001600160a01b03878116602483015291516000939290921691630671084291604480820192602092909190829003018186803b158015611a6b57600080fd5b505afa158015611a7f573d6000803e3d6000fd5b505050506040513d6020811015611a9557600080fd5b50518015611aaa5750611aaa86858585611ac7565b9695505050505050565b81810182811015611ac157fe5b92915050565b600a5460408051600160e01b632dff0d0d028152600481018790529051600092839283926001600160a01b0390921691632dff0d0d916024808201928692909190829003018186803b158015611b1c57600080fd5b505afa158015611b30573d6000803e3d6000fd5b505050506040513d6000823e601f3d908101601f19168201604052610140811015611b5a57600080fd5b8151602083015160408401516060850151608086015160a087015160c088015160e08901805197999698959794969395929491939283019291600160201b811115611ba457600080fd5b82016020810184811115611bb757600080fd5b8151600160201b811182820187101715611bd057600080fd5b5050506020015160085460408051600160e11b631a436c7b028152600481018b90529051999d50919b5060009a503099506001600160a01b031697633486d8f69750602480830197508b96509094509084900301915082905086803b158015611c3857600080fd5b505afa158015611c4c573d6000803e3d6000fd5b505050506040513d6000823e601f3d908101601f191682016040526020811015611c7557600080fd5b810190808051600160201b811115611c8c57600080fd5b82016020810184811115611c9f57600080fd5b8151600160201b811182820187101715611cb857600080fd5b505092919050505060405160200180836001600160a01b03166001600160a01b031660601b815260140182805190602001908083835b60208310611d0d5780518252601f199092019160209182019101611cee565b6001836020036101000a03801982511681845116808217855250505050505090500192505050604051602081830303815290604052805190602001209050816001600160a01b031660018289898960405160008152602001604052604051808581526020018460ff1660ff1681526020018381526020018281526020019450505050506020604051602081039080840390855afa158015611db2573d6000803e3d6000fd5b505050602060405103516001600160a01b0316149350505050949350505050565b6040805160e0810182526000808252602082018190529181018290526060808201929092526080810182905260a0810182905260c081019190915290565b828054600181600116156101000203166002900490600052602060002090601f016020900481019282601f10611e5257805160ff1916838001178555611e7f565b82800160010185558215611e7f579182015b82811115611e7f578251825591602001919060010190611e64565b50611e8b929150611e8f565b5090565b611ea991905b80821115611e8b5760008155600101611e95565b9056fea165627a7a72305820f683ae322c948edd4d354bf5066833ac65351fc175480452a204c10812f26be10029",
  "source": "pragma solidity >=0.5.4 <0.6.0;\n\nimport './SafeMath.sol';\nimport './AOLibrary.sol';\nimport './TheAO.sol';\nimport './IAOContentHost.sol';\nimport './IAOContent.sol';\nimport './IAOStakedContent.sol';\nimport './IAOPurchaseReceipt.sol';\nimport './IAOEarning.sol';\n\n/**\n * @title AOContentHost\n */\ncontract AOContentHost is TheAO, IAOContentHost {\n\tusing SafeMath for uint256;\n\n\tuint256 public totalContentHosts;\n\taddress public aoContentAddress;\n\taddress public aoStakedContentAddress;\n\taddress public aoPurchaseReceiptAddress;\n\taddress public aoEarningAddress;\n\n\tIAOContent internal _aoContent;\n\tIAOStakedContent internal _aoStakedContent;\n\tIAOPurchaseReceipt internal _aoPurchaseReceipt;\n\tIAOEarning internal _aoEarning;\n\n\tstruct ContentHost {\n\t\tbytes32 contentHostId;\n\t\tbytes32 stakedContentId;\n\t\tbytes32 contentId;\n\t\taddress host;\n\t\t/**\n\t\t * encChallenge is the content's PUBLIC KEY unique to the host\n\t\t */\n\t\tstring encChallenge;\n\t\tstring contentDatKey;\n\t\tstring metadataDatKey;\n\t}\n\n\t// Mapping from ContentHost index to the ContentHost object\n\tmapping (uint256 => ContentHost) internal contentHosts;\n\n\t// Mapping from content host ID to index of the contentHosts list\n\tmapping (bytes32 => uint256) internal contentHostIndex;\n\n\t// Event to be broadcasted to public when a node hosts a content\n\tevent HostContent(address indexed host, bytes32 indexed contentHostId, bytes32 stakedContentId, bytes32 contentId, string contentDatKey, string metadataDatKey);\n\n\t/**\n\t * @dev Constructor function\n\t * @param _aoContentAddress The address of AOContent\n\t * @param _aoStakedContentAddress The address of AOStakedContent\n\t * @param _aoPurchaseReceiptAddress The address of AOPurchaseReceipt\n\t * @param _aoEarningAddress The address of AOEarning\n\t * @param _nameTAOPositionAddress The address of NameTAOPosition\n\t */\n\tconstructor(address _aoContentAddress, address _aoStakedContentAddress, address _aoPurchaseReceiptAddress, address _aoEarningAddress, address _nameTAOPositionAddress) public {\n\t\tsetAOContentAddress(_aoContentAddress);\n\t\tsetAOStakedContentAddress(_aoStakedContentAddress);\n\t\tsetAOPurchaseReceiptAddress(_aoPurchaseReceiptAddress);\n\t\tsetAOEarningAddress(_aoEarningAddress);\n\t\tsetNameTAOPositionAddress(_nameTAOPositionAddress);\n\t}\n\n\t/**\n\t * @dev Checks if the calling contract address is The AO\n\t *\t\tOR\n\t *\t\tIf The AO is set to a Name/TAO, then check if calling address is the Advocate\n\t */\n\tmodifier onlyTheAO {\n\t\trequire (AOLibrary.isTheAO(msg.sender, theAO, nameTAOPositionAddress));\n\t\t_;\n\t}\n\n\t/***** The AO ONLY METHODS *****/\n\t/**\n\t * @dev Transfer ownership of The AO to new address\n\t * @param _theAO The new address to be transferred\n\t */\n\tfunction transferOwnership(address _theAO) public onlyTheAO {\n\t\trequire (_theAO != address(0));\n\t\ttheAO = _theAO;\n\t}\n\n\t/**\n\t * @dev Whitelist `_account` address to transact on behalf of others\n\t * @param _account The address to whitelist\n\t * @param _whitelist Either to whitelist or not\n\t */\n\tfunction setWhitelist(address _account, bool _whitelist) public onlyTheAO {\n\t\trequire (_account != address(0));\n\t\twhitelist[_account] = _whitelist;\n\t}\n\n\t/**\n\t * @dev The AO sets AOContent address\n\t * @param _aoContentAddress The address of AOContent\n\t */\n\tfunction setAOContentAddress(address _aoContentAddress) public onlyTheAO {\n\t\trequire (_aoContentAddress != address(0));\n\t\taoContentAddress = _aoContentAddress;\n\t\t_aoContent = IAOContent(_aoContentAddress);\n\t}\n\n\t/**\n\t * @dev The AO sets AOStakedContent address\n\t * @param _aoStakedContentAddress The address of AOStakedContent\n\t */\n\tfunction setAOStakedContentAddress(address _aoStakedContentAddress) public onlyTheAO {\n\t\trequire (_aoStakedContentAddress != address(0));\n\t\taoStakedContentAddress = _aoStakedContentAddress;\n\t\t_aoStakedContent = IAOStakedContent(_aoStakedContentAddress);\n\t}\n\n\t/**\n\t * @dev The AO sets AOPurchaseReceipt address\n\t * @param _aoPurchaseReceiptAddress The address of AOPurchaseReceipt\n\t */\n\tfunction setAOPurchaseReceiptAddress(address _aoPurchaseReceiptAddress) public onlyTheAO {\n\t\trequire (_aoPurchaseReceiptAddress != address(0));\n\t\taoPurchaseReceiptAddress = _aoPurchaseReceiptAddress;\n\t\t_aoPurchaseReceipt = IAOPurchaseReceipt(_aoPurchaseReceiptAddress);\n\t}\n\n\t/**\n\t * @dev The AO sets AOEarning address\n\t * @param _aoEarningAddress The address of AOEarning\n\t */\n\tfunction setAOEarningAddress(address _aoEarningAddress) public onlyTheAO {\n\t\trequire (_aoEarningAddress != address(0));\n\t\taoEarningAddress = _aoEarningAddress;\n\t\t_aoEarning = IAOEarning(_aoEarningAddress);\n\t}\n\n\t/**\n\t * @dev The AO sets NameTAOPosition address\n\t * @param _nameTAOPositionAddress The address of NameTAOPosition\n\t */\n\tfunction setNameTAOPositionAddress(address _nameTAOPositionAddress) public onlyTheAO {\n\t\trequire (_nameTAOPositionAddress != address(0));\n\t\tnameTAOPositionAddress = _nameTAOPositionAddress;\n\t}\n\n\t/***** PUBLIC METHODS *****/\n\t/**\n\t * @dev Add the distribution node info that hosts the content\n\t * @param _host the address of the host\n\t * @param _stakedContentId The ID of the staked content\n\t * @param _encChallenge The encrypted challenge string (PUBLIC KEY) of the content unique to the host\n\t * @param _contentDatKey The dat key of the content\n\t * @param _metadataDatKey The dat key of the content's metadata\n\t * @return true on success\n\t */\n\tfunction create(address _host, bytes32 _stakedContentId, string calldata _encChallenge, string calldata _contentDatKey, string calldata _metadataDatKey) external inWhitelist returns (bool) {\n\t\trequire (_create(_host, _stakedContentId, _encChallenge, _contentDatKey, _metadataDatKey));\n\t\treturn true;\n\t}\n\n\t/**\n\t * @dev Return content host info at a given ID\n\t * @param _contentHostId The ID of the hosted content\n\t * @return The ID of the staked content\n\t * @return The ID of the content\n\t * @return address of the host\n\t * @return the dat key of the content\n\t * @return the dat key of the content's metadata\n\t */\n\tfunction getById(bytes32 _contentHostId) external view returns (bytes32, bytes32, address, string memory, string memory) {\n\t\t// Make sure the content host exist\n\t\trequire (contentHostIndex[_contentHostId] > 0);\n\t\tContentHost memory _contentHost = contentHosts[contentHostIndex[_contentHostId]];\n\t\treturn (\n\t\t\t_contentHost.stakedContentId,\n\t\t\t_contentHost.contentId,\n\t\t\t_contentHost.host,\n\t\t\t_contentHost.contentDatKey,\n\t\t\t_contentHost.metadataDatKey\n\t\t);\n\t}\n\n\t/**\n\t * @dev Determine the content price hosted by a host\n\t * @param _contentHostId The content host ID to be checked\n\t * @return the price of the content\n\t */\n\tfunction contentHostPrice(bytes32 _contentHostId) external view returns (uint256) {\n\t\t// Make sure content host exist\n\t\trequire (contentHostIndex[_contentHostId] > 0);\n\n\t\tbytes32 _stakedContentId = contentHosts[contentHostIndex[_contentHostId]].stakedContentId;\n\t\trequire (_aoStakedContent.isActive(_stakedContentId));\n\n\t\t(,,uint256 _networkAmount, uint256 _primordialAmount,,,,) = _aoStakedContent.getById(_stakedContentId);\n\t\treturn _networkAmount.add(_primordialAmount);\n\t}\n\n\t/**\n\t * @dev Determine the how much the content is paid by AO given a contentHostId\n\t * @param _contentHostId The content host ID to be checked\n\t * @return the amount paid by AO\n\t */\n\tfunction contentHostPaidByAO(bytes32 _contentHostId) external view returns (uint256) {\n\t\t// Make sure content host exist\n\t\trequire (contentHostIndex[_contentHostId] > 0);\n\n\t\tbytes32 _stakedContentId = contentHosts[contentHostIndex[_contentHostId]].stakedContentId;\n\t\trequire (_aoStakedContent.isActive(_stakedContentId));\n\n\t\tbytes32 _contentId = contentHosts[contentHostIndex[_contentHostId]].contentId;\n\t\tif (_aoContent.isAOContentUsageType(_contentId)) {\n\t\t\treturn 0;\n\t\t} else {\n\t\t\treturn this.contentHostPrice(_contentHostId);\n\t\t}\n\t}\n\n\t/**\n\t * @dev Check whether or not a contentHostId exist\n\t * @param _contentHostId The content host ID to be checked\n\t * @return true if yes, false otherwise\n\t */\n\tfunction isExist(bytes32 _contentHostId) external view returns (bool) {\n\t\treturn (contentHostIndex[_contentHostId] > 0);\n\t}\n\n\t/**\n\t * @dev Request node wants to become a distribution node after buying the content\n\t *\t\tAlso, if this transaction succeeds, contract will release all of the earnings that are\n\t *\t\tcurrently in escrow for content creator/host/The AO\n\t * @param _purchaseReceiptId The ID of the Purchase Receipt\n\t * @param _baseChallengeV The V part of signature when signing the base challenge\n\t * @param _baseChallengeR The R part of signature when signing the base challenge\n\t * @param _baseChallengeS The S part of signature when signing the base challenge\n\t * @param _encChallenge The encrypted challenge string (PUBLIC KEY) of the content unique to the host\n\t * @param _contentDatKey The dat key of the content\n\t * @param _metadataDatKey The dat key of the content's metadata\n\t */\n\tfunction becomeHost(\n\t\tbytes32 _purchaseReceiptId,\n\t\tuint8 _baseChallengeV,\n\t\tbytes32 _baseChallengeR,\n\t\tbytes32 _baseChallengeS,\n\t\tstring memory _encChallenge,\n\t\tstring memory _contentDatKey,\n\t\tstring memory _metadataDatKey\n\t) public {\n\t\trequire (_canBecomeHost(_purchaseReceiptId, msg.sender, _baseChallengeV, _baseChallengeR, _baseChallengeS));\n\n\t\t(, bytes32 _stakedContentId,,,,,,,,) = _aoPurchaseReceipt.getById(_purchaseReceiptId);\n\n\t\trequire (_create(msg.sender, _stakedContentId, _encChallenge, _contentDatKey, _metadataDatKey));\n\n\t\t// Release earning from escrow\n\t\trequire (_aoEarning.releaseEarning(_purchaseReceiptId));\n\t}\n\n\t/***** INTERNAL METHODS *****/\n\t/**\n\t * @dev Actual add the distribution node info that hosts the content\n\t * @param _host the address of the host\n\t * @param _stakedContentId The ID of the staked content\n\t * @param _encChallenge The encrypted challenge string (PUBLIC KEY) of the content unique to the host\n\t * @param _contentDatKey The dat key of the content\n\t * @param _metadataDatKey The dat key of the content's metadata\n\t * @return true on success\n\t */\n\tfunction _create(address _host, bytes32 _stakedContentId, string memory _encChallenge, string memory _contentDatKey, string memory _metadataDatKey) internal returns (bool) {\n\t\trequire (_host != address(0));\n\t\trequire (bytes(_encChallenge).length > 0);\n\t\trequire (bytes(_contentDatKey).length > 0);\n\t\trequire (bytes(_metadataDatKey).length > 0);\n\t\trequire (_aoStakedContent.isActive(_stakedContentId));\n\n\t\t// Increment totalContentHosts\n\t\ttotalContentHosts++;\n\n\t\t// Generate contentId\n\t\tbytes32 _contentHostId = keccak256(abi.encodePacked(this, _host, _stakedContentId));\n\n\t\tContentHost storage _contentHost = contentHosts[totalContentHosts];\n\n\t\t// Make sure the node doesn't host the same content twice\n\t\trequire (_contentHost.host == address(0));\n\n\t\t(bytes32 _contentId,,,,,,,) = _aoStakedContent.getById(_stakedContentId);\n\n\t\t_contentHost.contentHostId = _contentHostId;\n\t\t_contentHost.stakedContentId = _stakedContentId;\n\t\t_contentHost.contentId = _contentId;\n\t\t_contentHost.host = _host;\n\t\t_contentHost.encChallenge = _encChallenge;\n\t\t_contentHost.contentDatKey = _contentDatKey;\n\t\t_contentHost.metadataDatKey = _metadataDatKey;\n\n\t\tcontentHostIndex[_contentHostId] = totalContentHosts;\n\n\t\temit HostContent(_contentHost.host, _contentHost.contentHostId, _contentHost.stakedContentId, _contentHost.contentId, _contentHost.contentDatKey, _contentHost.metadataDatKey);\n\t\treturn true;\n\t}\n\n\t/**\n\t * @dev Check whether or not the passed params are valid\n\t * @param _purchaseReceiptId The ID of the Purchase Receipt\n\t * @param _sender The address of the sender\n\t * @param _baseChallengeV The V part of signature when signing the base challenge\n\t * @param _baseChallengeR The R part of signature when signing the base challenge\n\t * @param _baseChallengeS The S part of signature when signing the base challenge\n\t * @return true if yes, false otherwise\n\t */\n\tfunction _canBecomeHost(bytes32 _purchaseReceiptId, address _sender, uint8 _baseChallengeV, bytes32 _baseChallengeR, bytes32 _baseChallengeS) internal view returns (bool) {\n\t\t// Make sure the purchase receipt owner is the same as the sender\n\t\treturn (_aoPurchaseReceipt.senderIsBuyer(_purchaseReceiptId, _sender) &&\n\t\t\t_verifyBecomeHostSignature(_purchaseReceiptId, _baseChallengeV, _baseChallengeR, _baseChallengeS)\n\t\t);\n\t}\n\n\t/**\n\t * @dev Verify the become host signature\n\t * @param _purchaseReceiptId The ID of the purchase receipt\n\t * @param _v part of the signature\n\t * @param _r part of the signature\n\t * @param _s part of the signature\n\t * @return true if valid, false otherwise\n\t */\n\tfunction _verifyBecomeHostSignature(bytes32 _purchaseReceiptId, uint8 _v, bytes32 _r, bytes32 _s) internal view returns (bool) {\n\t\t(,, bytes32 _contentId,,,,,, address _publicAddress,) = _aoPurchaseReceipt.getById(_purchaseReceiptId);\n\n\t\tbytes32 _hash = keccak256(abi.encodePacked(address(this), _aoContent.getBaseChallenge(_contentId)));\n\t\treturn (ecrecover(_hash, _v, _r, _s) == _publicAddress);\n\t}\n}\n",
  "sourcePath": "/usr/local/ao-contracts/contracts/AOContentHost.sol",
  "compiler": {
    "name": "solc",
    "version": "0.5.6+commit.b259423e.Emscripten.clang"
  },
  "schemaVersion": "3.0.2",
  "updatedAt": "2019-03-28T22:28:47.089Z",
  "devdoc": {
    "methods": {
      "becomeHost(bytes32,uint8,bytes32,bytes32,string,string,string)": {
        "details": "Request node wants to become a distribution node after buying the content\tAlso, if this transaction succeeds, contract will release all of the earnings that are\tcurrently in escrow for content creator/host/The AO",
        "params": {
          "_baseChallengeR": "The R part of signature when signing the base challenge",
          "_baseChallengeS": "The S part of signature when signing the base challenge",
          "_baseChallengeV": "The V part of signature when signing the base challenge",
          "_contentDatKey": "The dat key of the content",
          "_encChallenge": "The encrypted challenge string (PUBLIC KEY) of the content unique to the host",
          "_metadataDatKey": "The dat key of the content's metadata",
          "_purchaseReceiptId": "The ID of the Purchase Receipt"
        }
      },
      "constructor": {
        "details": "Constructor function",
        "params": {
          "_aoContentAddress": "The address of AOContent",
          "_aoEarningAddress": "The address of AOEarning",
          "_aoPurchaseReceiptAddress": "The address of AOPurchaseReceipt",
          "_aoStakedContentAddress": "The address of AOStakedContent",
          "_nameTAOPositionAddress": "The address of NameTAOPosition"
        }
      },
      "contentHostPaidByAO(bytes32)": {
        "details": "Determine the how much the content is paid by AO given a contentHostId",
        "params": {
          "_contentHostId": "The content host ID to be checked"
        },
        "return": "the amount paid by AO"
      },
      "contentHostPrice(bytes32)": {
        "details": "Determine the content price hosted by a host",
        "params": {
          "_contentHostId": "The content host ID to be checked"
        },
        "return": "the price of the content"
      },
      "create(address,bytes32,string,string,string)": {
        "details": "Add the distribution node info that hosts the content",
        "params": {
          "_contentDatKey": "The dat key of the content",
          "_encChallenge": "The encrypted challenge string (PUBLIC KEY) of the content unique to the host",
          "_host": "the address of the host",
          "_metadataDatKey": "The dat key of the content's metadata",
          "_stakedContentId": "The ID of the staked content"
        },
        "return": "true on success"
      },
      "getById(bytes32)": {
        "details": "Return content host info at a given ID",
        "params": {
          "_contentHostId": "The ID of the hosted content"
        },
        "return": "The ID of the staked contentThe ID of the contentaddress of the hostthe dat key of the contentthe dat key of the content's metadata"
      },
      "isExist(bytes32)": {
        "details": "Check whether or not a contentHostId exist",
        "params": {
          "_contentHostId": "The content host ID to be checked"
        },
        "return": "true if yes, false otherwise"
      },
      "setAOContentAddress(address)": {
        "details": "The AO sets AOContent address",
        "params": {
          "_aoContentAddress": "The address of AOContent"
        }
      },
      "setAOEarningAddress(address)": {
        "details": "The AO sets AOEarning address",
        "params": {
          "_aoEarningAddress": "The address of AOEarning"
        }
      },
      "setAOPurchaseReceiptAddress(address)": {
        "details": "The AO sets AOPurchaseReceipt address",
        "params": {
          "_aoPurchaseReceiptAddress": "The address of AOPurchaseReceipt"
        }
      },
      "setAOStakedContentAddress(address)": {
        "details": "The AO sets AOStakedContent address",
        "params": {
          "_aoStakedContentAddress": "The address of AOStakedContent"
        }
      },
      "setNameTAOPositionAddress(address)": {
        "details": "The AO sets NameTAOPosition address",
        "params": {
          "_nameTAOPositionAddress": "The address of NameTAOPosition"
        }
      },
      "setWhitelist(address,bool)": {
        "details": "Whitelist `_account` address to transact on behalf of others",
        "params": {
          "_account": "The address to whitelist",
          "_whitelist": "Either to whitelist or not"
        }
      },
      "transferOwnership(address)": {
        "details": "Transfer ownership of The AO to new address",
        "params": {
          "_theAO": "The new address to be transferred"
        }
      }
    },
    "title": "AOContentHost"
  },
  "userdoc": {
    "methods": {}
  }
}