{
	"contractName": "AOContent",
	"abi": [
		{
			"constant": true,
			"inputs": [],
			"name": "aoDevTeam1",
			"outputs": [
				{
					"name": "",
					"type": "address"
				}
			],
			"payable": false,
			"stateMutability": "view",
			"type": "function"
		},
		{
			"constant": true,
			"inputs": [],
			"name": "killed",
			"outputs": [
				{
					"name": "",
					"type": "bool"
				}
			],
			"payable": false,
			"stateMutability": "view",
			"type": "function"
		},
		{
			"constant": true,
			"inputs": [],
			"name": "totalStakedContents",
			"outputs": [
				{
					"name": "",
					"type": "uint256"
				}
			],
			"payable": false,
			"stateMutability": "view",
			"type": "function"
		},
		{
			"constant": true,
			"inputs": [],
			"name": "totalContents",
			"outputs": [
				{
					"name": "",
					"type": "uint256"
				}
			],
			"payable": false,
			"stateMutability": "view",
			"type": "function"
		},
		{
			"constant": false,
			"inputs": [
				{
					"name": "_account",
					"type": "address"
				},
				{
					"name": "_whitelist",
					"type": "bool"
				}
			],
			"name": "setWhitelist",
			"outputs": [],
			"payable": false,
			"stateMutability": "nonpayable",
			"type": "function"
		},
		{
			"constant": true,
			"inputs": [],
			"name": "paused",
			"outputs": [
				{
					"name": "",
					"type": "bool"
				}
			],
			"payable": false,
			"stateMutability": "view",
			"type": "function"
		},
		{
			"constant": true,
			"inputs": [
				{
					"name": "",
					"type": "address"
				}
			],
			"name": "whitelist",
			"outputs": [
				{
					"name": "",
					"type": "bool"
				}
			],
			"payable": false,
			"stateMutability": "view",
			"type": "function"
		},
		{
			"constant": true,
			"inputs": [],
			"name": "aoDevTeam2",
			"outputs": [
				{
					"name": "",
					"type": "address"
				}
			],
			"payable": false,
			"stateMutability": "view",
			"type": "function"
		},
		{
			"constant": false,
			"inputs": [
				{
					"name": "_aoDevTeam1",
					"type": "address"
				},
				{
					"name": "_aoDevTeam2",
					"type": "address"
				}
			],
			"name": "setAODevTeamAddresses",
			"outputs": [],
			"payable": false,
			"stateMutability": "nonpayable",
			"type": "function"
		},
		{
			"constant": true,
			"inputs": [],
			"name": "baseDenominationAddress",
			"outputs": [
				{
					"name": "",
					"type": "address"
				}
			],
			"payable": false,
			"stateMutability": "view",
			"type": "function"
		},
		{
			"constant": true,
			"inputs": [],
			"name": "treasuryAddress",
			"outputs": [
				{
					"name": "",
					"type": "address"
				}
			],
			"payable": false,
			"stateMutability": "view",
			"type": "function"
		},
		{
			"constant": true,
			"inputs": [],
			"name": "totalContentHosts",
			"outputs": [
				{
					"name": "",
					"type": "uint256"
				}
			],
			"payable": false,
			"stateMutability": "view",
			"type": "function"
		},
		{
			"constant": true,
			"inputs": [],
			"name": "developer",
			"outputs": [
				{
					"name": "",
					"type": "address"
				}
			],
			"payable": false,
			"stateMutability": "view",
			"type": "function"
		},
		{
			"constant": true,
			"inputs": [],
			"name": "PERCENTAGE_DIVISOR",
			"outputs": [
				{
					"name": "",
					"type": "uint256"
				}
			],
			"payable": false,
			"stateMutability": "view",
			"type": "function"
		},
		{
			"constant": true,
			"inputs": [],
			"name": "earningAddress",
			"outputs": [
				{
					"name": "",
					"type": "address"
				}
			],
			"payable": false,
			"stateMutability": "view",
			"type": "function"
		},
		{
			"constant": false,
			"inputs": [
				{
					"name": "newDeveloper",
					"type": "address"
				}
			],
			"name": "transferOwnership",
			"outputs": [],
			"payable": false,
			"stateMutability": "nonpayable",
			"type": "function"
		},
		{
			"constant": true,
			"inputs": [],
			"name": "totalPurchaseReceipts",
			"outputs": [
				{
					"name": "",
					"type": "uint256"
				}
			],
			"payable": false,
			"stateMutability": "view",
			"type": "function"
		},
		{
			"constant": true,
			"inputs": [
				{
					"name": "",
					"type": "address"
				},
				{
					"name": "",
					"type": "bytes32"
				}
			],
			"name": "buyerPurchaseReceipts",
			"outputs": [
				{
					"name": "",
					"type": "bytes32"
				}
			],
			"payable": false,
			"stateMutability": "view",
			"type": "function"
		},
		{
			"inputs": [
				{
					"name": "_baseDenominationAddress",
					"type": "address"
				},
				{
					"name": "_treasuryAddress",
					"type": "address"
				},
				{
					"name": "_earningAddress",
					"type": "address"
				}
			],
			"payable": false,
			"stateMutability": "nonpayable",
			"type": "constructor"
		},
		{
			"anonymous": false,
			"inputs": [
				{
					"indexed": true,
					"name": "creator",
					"type": "address"
				},
				{
					"indexed": true,
					"name": "contentId",
					"type": "bytes32"
				},
				{
					"indexed": false,
					"name": "fileSize",
					"type": "uint256"
				}
			],
			"name": "StoreContent",
			"type": "event"
		},
		{
			"anonymous": false,
			"inputs": [
				{
					"indexed": true,
					"name": "stakeOwner",
					"type": "address"
				},
				{
					"indexed": true,
					"name": "stakeId",
					"type": "bytes32"
				},
				{
					"indexed": true,
					"name": "contentId",
					"type": "bytes32"
				},
				{
					"indexed": false,
					"name": "baseNetworkAmount",
					"type": "uint256"
				},
				{
					"indexed": false,
					"name": "primordialAmount",
					"type": "uint256"
				},
				{
					"indexed": false,
					"name": "primordialWeightedMultiplier",
					"type": "uint256"
				},
				{
					"indexed": false,
					"name": "profitPercentage",
					"type": "uint256"
				},
				{
					"indexed": false,
					"name": "createdOnTimestamp",
					"type": "uint256"
				},
				{
					"indexed": false,
					"name": "extraData",
					"type": "string"
				}
			],
			"name": "StakeContent",
			"type": "event"
		},
		{
			"anonymous": false,
			"inputs": [
				{
					"indexed": true,
					"name": "host",
					"type": "address"
				},
				{
					"indexed": true,
					"name": "contentHostId",
					"type": "bytes32"
				},
				{
					"indexed": false,
					"name": "stakeId",
					"type": "bytes32"
				},
				{
					"indexed": false,
					"name": "contentDatKey",
					"type": "string"
				},
				{
					"indexed": false,
					"name": "metadataDatKey",
					"type": "string"
				}
			],
			"name": "HostContent",
			"type": "event"
		},
		{
			"anonymous": false,
			"inputs": [
				{
					"indexed": true,
					"name": "stakeOwner",
					"type": "address"
				},
				{
					"indexed": true,
					"name": "stakeId",
					"type": "bytes32"
				},
				{
					"indexed": false,
					"name": "newProfitPercentage",
					"type": "uint256"
				}
			],
			"name": "SetProfitPercentage",
			"type": "event"
		},
		{
			"anonymous": false,
			"inputs": [
				{
					"indexed": true,
					"name": "stakeOwner",
					"type": "address"
				},
				{
					"indexed": true,
					"name": "stakeId",
					"type": "bytes32"
				},
				{
					"indexed": true,
					"name": "contentId",
					"type": "bytes32"
				},
				{
					"indexed": false,
					"name": "remainingNetworkAmount",
					"type": "uint256"
				},
				{
					"indexed": false,
					"name": "remainingPrimordialAmount",
					"type": "uint256"
				},
				{
					"indexed": false,
					"name": "primordialWeightedMultiplier",
					"type": "uint256"
				}
			],
			"name": "UnstakePartialContent",
			"type": "event"
		},
		{
			"anonymous": false,
			"inputs": [
				{
					"indexed": true,
					"name": "stakeOwner",
					"type": "address"
				},
				{
					"indexed": true,
					"name": "stakeId",
					"type": "bytes32"
				}
			],
			"name": "UnstakeContent",
			"type": "event"
		},
		{
			"anonymous": false,
			"inputs": [
				{
					"indexed": true,
					"name": "stakeOwner",
					"type": "address"
				},
				{
					"indexed": true,
					"name": "stakeId",
					"type": "bytes32"
				},
				{
					"indexed": true,
					"name": "contentId",
					"type": "bytes32"
				},
				{
					"indexed": false,
					"name": "currentNetworkAmount",
					"type": "uint256"
				},
				{
					"indexed": false,
					"name": "currentPrimordialAmount",
					"type": "uint256"
				},
				{
					"indexed": false,
					"name": "currentPrimordialWeightedMultiplier",
					"type": "uint256"
				}
			],
			"name": "StakeExistingContent",
			"type": "event"
		},
		{
			"anonymous": false,
			"inputs": [
				{
					"indexed": true,
					"name": "buyer",
					"type": "address"
				},
				{
					"indexed": true,
					"name": "purchaseId",
					"type": "bytes32"
				},
				{
					"indexed": true,
					"name": "contentHostId",
					"type": "bytes32"
				},
				{
					"indexed": false,
					"name": "paidNetworkAmount",
					"type": "uint256"
				},
				{
					"indexed": false,
					"name": "publicKey",
					"type": "string"
				},
				{
					"indexed": false,
					"name": "publicAddress",
					"type": "address"
				},
				{
					"indexed": false,
					"name": "createdOnTimestamp",
					"type": "uint256"
				}
			],
			"name": "BuyContent",
			"type": "event"
		},
		{
			"anonymous": false,
			"inputs": [],
			"name": "EscapeHatch",
			"type": "event"
		},
		{
			"constant": false,
			"inputs": [
				{
					"name": "_paused",
					"type": "bool"
				}
			],
			"name": "setPaused",
			"outputs": [],
			"payable": false,
			"stateMutability": "nonpayable",
			"type": "function"
		},
		{
			"constant": false,
			"inputs": [
				{
					"name": "_newBaseDenominationAddress",
					"type": "address"
				}
			],
			"name": "setBaseDenominationAddress",
			"outputs": [],
			"payable": false,
			"stateMutability": "nonpayable",
			"type": "function"
		},
		{
			"constant": false,
			"inputs": [],
			"name": "escapeHatch",
			"outputs": [],
			"payable": false,
			"stateMutability": "nonpayable",
			"type": "function"
		},
		{
			"constant": false,
			"inputs": [
				{
					"name": "_networkIntegerAmount",
					"type": "uint256"
				},
				{
					"name": "_networkFractionAmount",
					"type": "uint256"
				},
				{
					"name": "_denomination",
					"type": "bytes8"
				},
				{
					"name": "_primordialAmount",
					"type": "uint256"
				},
				{
					"name": "_baseChallenge",
					"type": "string"
				},
				{
					"name": "_encChallenge",
					"type": "string"
				},
				{
					"name": "_contentDatKey",
					"type": "string"
				},
				{
					"name": "_metadataDatKey",
					"type": "string"
				},
				{
					"name": "_fileSize",
					"type": "uint256"
				},
				{
					"name": "_profitPercentage",
					"type": "uint256"
				},
				{
					"name": "_extraData",
					"type": "string"
				}
			],
			"name": "stakeContent",
			"outputs": [],
			"payable": false,
			"stateMutability": "nonpayable",
			"type": "function"
		},
		{
			"constant": false,
			"inputs": [
				{
					"name": "_stakeId",
					"type": "bytes32"
				},
				{
					"name": "_profitPercentage",
					"type": "uint256"
				}
			],
			"name": "setProfitPercentage",
			"outputs": [],
			"payable": false,
			"stateMutability": "nonpayable",
			"type": "function"
		},
		{
			"constant": true,
			"inputs": [
				{
					"name": "_contentId",
					"type": "bytes32"
				}
			],
			"name": "contentById",
			"outputs": [
				{
					"name": "",
					"type": "address"
				},
				{
					"name": "",
					"type": "uint256"
				}
			],
			"payable": false,
			"stateMutability": "view",
			"type": "function"
		},
		{
			"constant": true,
			"inputs": [
				{
					"name": "_contentHostId",
					"type": "bytes32"
				}
			],
			"name": "contentHostById",
			"outputs": [
				{
					"name": "",
					"type": "bytes32"
				},
				{
					"name": "",
					"type": "address"
				},
				{
					"name": "",
					"type": "string"
				},
				{
					"name": "",
					"type": "string"
				}
			],
			"payable": false,
			"stateMutability": "view",
			"type": "function"
		},
		{
			"constant": true,
			"inputs": [
				{
					"name": "_stakeId",
					"type": "bytes32"
				}
			],
			"name": "stakedContentById",
			"outputs": [
				{
					"name": "",
					"type": "bytes32"
				},
				{
					"name": "",
					"type": "address"
				},
				{
					"name": "",
					"type": "uint256"
				},
				{
					"name": "",
					"type": "uint256"
				},
				{
					"name": "",
					"type": "uint256"
				},
				{
					"name": "",
					"type": "uint256"
				},
				{
					"name": "",
					"type": "bool"
				},
				{
					"name": "",
					"type": "uint256"
				},
				{
					"name": "",
					"type": "string"
				}
			],
			"payable": false,
			"stateMutability": "view",
			"type": "function"
		},
		{
			"constant": false,
			"inputs": [
				{
					"name": "_stakeId",
					"type": "bytes32"
				},
				{
					"name": "_networkIntegerAmount",
					"type": "uint256"
				},
				{
					"name": "_networkFractionAmount",
					"type": "uint256"
				},
				{
					"name": "_denomination",
					"type": "bytes8"
				},
				{
					"name": "_primordialAmount",
					"type": "uint256"
				}
			],
			"name": "unstakePartialContent",
			"outputs": [],
			"payable": false,
			"stateMutability": "nonpayable",
			"type": "function"
		},
		{
			"constant": false,
			"inputs": [
				{
					"name": "_stakeId",
					"type": "bytes32"
				}
			],
			"name": "unstakeContent",
			"outputs": [],
			"payable": false,
			"stateMutability": "nonpayable",
			"type": "function"
		},
		{
			"constant": false,
			"inputs": [
				{
					"name": "_stakeId",
					"type": "bytes32"
				},
				{
					"name": "_networkIntegerAmount",
					"type": "uint256"
				},
				{
					"name": "_networkFractionAmount",
					"type": "uint256"
				},
				{
					"name": "_denomination",
					"type": "bytes8"
				},
				{
					"name": "_primordialAmount",
					"type": "uint256"
				}
			],
			"name": "stakeExistingContent",
			"outputs": [],
			"payable": false,
			"stateMutability": "nonpayable",
			"type": "function"
		},
		{
			"constant": true,
			"inputs": [
				{
					"name": "_contentHostId",
					"type": "bytes32"
				}
			],
			"name": "contentHostPrice",
			"outputs": [
				{
					"name": "",
					"type": "uint256"
				}
			],
			"payable": false,
			"stateMutability": "view",
			"type": "function"
		},
		{
			"constant": false,
			"inputs": [
				{
					"name": "_contentHostId",
					"type": "bytes32"
				},
				{
					"name": "_networkIntegerAmount",
					"type": "uint256"
				},
				{
					"name": "_networkFractionAmount",
					"type": "uint256"
				},
				{
					"name": "_denomination",
					"type": "bytes8"
				},
				{
					"name": "_publicKey",
					"type": "string"
				},
				{
					"name": "_publicAddress",
					"type": "address"
				}
			],
			"name": "buyContent",
			"outputs": [],
			"payable": false,
			"stateMutability": "nonpayable",
			"type": "function"
		},
		{
			"constant": true,
			"inputs": [
				{
					"name": "_purchaseId",
					"type": "bytes32"
				}
			],
			"name": "purchaseReceiptById",
			"outputs": [
				{
					"name": "",
					"type": "bytes32"
				},
				{
					"name": "",
					"type": "address"
				},
				{
					"name": "",
					"type": "uint256"
				},
				{
					"name": "",
					"type": "string"
				},
				{
					"name": "",
					"type": "address"
				},
				{
					"name": "",
					"type": "uint256"
				}
			],
			"payable": false,
			"stateMutability": "view",
			"type": "function"
		},
		{
			"constant": false,
			"inputs": [
				{
					"name": "_purchaseId",
					"type": "bytes32"
				},
				{
					"name": "_baseChallengeV",
					"type": "uint8"
				},
				{
					"name": "_baseChallengeR",
					"type": "bytes32"
				},
				{
					"name": "_baseChallengeS",
					"type": "bytes32"
				},
				{
					"name": "_encChallenge",
					"type": "string"
				},
				{
					"name": "_contentDatKey",
					"type": "string"
				},
				{
					"name": "_metadataDatKey",
					"type": "string"
				}
			],
			"name": "becomeHost",
			"outputs": [],
			"payable": false,
			"stateMutability": "nonpayable",
			"type": "function"
		}
	],
	"bytecode": "0x608060405260018054600160a060020a0319908116735c63644d01ba385ebac5bcf2ddc1e6dbc1182b52179091556002805490911673156c79bf4347d1891da834ea30662a14177cbf2817905534801561005857600080fd5b5060405160608061449183398101604090815281516020830151919092015160008054600160a060020a0319908116331790915560098054600160a060020a039586169083168117909155600a805494861694831685179055600c805483169091179055600d80548216909317909255600e805493909116929091169190911790556143a8806100e96000396000f3006080604052600436106101875763ffffffff60e060020a6000350416630292f88a811461018c57806315227aa7146101af5780631554611f146101e057806316c38b3c146101f55780631ef7b68a1461020f5780631f3a0e41146102d4578063202352f7146102fd5780633848627b1461032457806353d6fd5914610339578063555ea48c1461035f5780635c975abb1461044957806370660f7c1461045e5780637b4126f41461048c5780639b19251a1461050c578063a5d770741461052d578063a99433a6146106a7578063a9e3fd27146106bc578063b24626e9146106d4578063b380b0d4146106fb578063c3db397f14610716578063c44a079514610744578063c5f956af14610759578063c96a74e51461076e578063ca4b208b14610783578063caf2976514610798578063e2499b98146107ad578063e57c09bc14610893578063e6ab96ed146108ce578063ec05cc2b146108e6578063ef3c0531146108fb578063f2fde38b14610a19578063f4f0bfeb14610a3a578063fffbd7aa14610a4f575b600080fd5b34801561019857600080fd5b506101ad600160a060020a0360043516610a73565b005b3480156101bb57600080fd5b506101c4610ba6565b60408051600160a060020a039092168252519081900360200190f35b3480156101ec57600080fd5b506101ad610bb5565b34801561020157600080fd5b506101ad6004351515610c1b565b34801561021b57600080fd5b50610227600435610c45565b60408051878152600160a060020a038088166020808401919091529282018790528416608082015260a0810183905260c06060820181815286519183019190915285519192909160e084019187019080838360005b8381101561029457818101518382015260200161027c565b50505050905090810190601f1680156102c15780820380516001836020036101000a031916815260200191505b5097505050505050505060405180910390f35b3480156102e057600080fd5b506102e9610da7565b604080519115158252519081900360200190f35b34801561030957600080fd5b50610312610db5565b60408051918252519081900360200190f35b34801561033057600080fd5b50610312610dbb565b34801561034557600080fd5b506101ad600160a060020a03600435166024351515610dc1565b34801561036b57600080fd5b50604080516020600460843581810135601f81018490048402850184019095528484526101ad948235946024803560ff169560443595606435953695919460a494909391019190819084018382808284375050604080516020601f89358b018035918201839004830284018301909452808352979a99988101979196509182019450925082915084018382808284375050604080516020601f89358b018035918201839004830284018301909452808352979a999881019791965091820194509250829150840183828082843750949750610e039650505050505050565b34801561045557600080fd5b506102e9611388565b34801561046a57600080fd5b506101ad600435602435604435600160c060020a031960643516608435611391565b34801561049857600080fd5b50604080516020601f6084356004818101359283018490048402850184019095528184526101ad94803594602480359560443595600160c060020a0319606435169536959460a494909391019190819084018382808284375094975050509235600160a060020a03169350611a6f92505050565b34801561051857600080fd5b506102e9600160a060020a036004351661230b565b34801561053957600080fd5b50604080516020601f6084356004818101359283018490048402850184019095528184526101ad948035946024803595600160c060020a031960443516956064359536959460a494909391019190819084018382808284375050604080516020601f89358b018035918201839004830284018301909452808352979a99988101979196509182019450925082915084018382808284375050604080516020601f89358b018035918201839004830284018301909452808352979a99988101979196509182019450925082915084018382808284375050604080516020601f89358b018035918201839004830284018301909452808352979a99988101979196509182019450925082915084018382808284375050604080516020888301358a018035601f8101839004830284018301909452838352979a89359a8a8301359a919990985060609091019650919450908101925081908401838280828437509497506123209650505050505050565b3480156106b357600080fd5b506101c46124b2565b3480156106c857600080fd5b506103126004356124c1565b3480156106e057600080fd5b506101ad600160a060020a03600435811690602435166128a0565b34801561070757600080fd5b506101ad6004356024356128e5565b34801561072257600080fd5b506101ad600435602435604435600160c060020a0319606435166084356129af565b34801561075057600080fd5b506101c4612f55565b34801561076557600080fd5b506101c4612f64565b34801561077a57600080fd5b50610312612f73565b34801561078f57600080fd5b506101c4612f79565b3480156107a457600080fd5b50610312612f88565b3480156107b957600080fd5b506107c5600435612f8f565b604051808a6000191660001916815260200189600160a060020a0316600160a060020a031681526020018881526020018781526020018681526020018581526020018415151515815260200183815260200180602001828103825283818151815260200191508051906020019080838360005b83811015610850578181015183820152602001610838565b50505050905090810190601f16801561087d5780820380516001836020036101000a031916815260200191505b509a505050505050505050505060405180910390f35b34801561089f57600080fd5b506108ab600435613131565b60408051600160a060020a03909316835260208301919091528051918290030190f35b3480156108da57600080fd5b506101ad600435613245565b3480156108f257600080fd5b506101c46134eb565b34801561090757600080fd5b506109136004356134fa565b60405180856000191660001916815260200184600160a060020a0316600160a060020a031681526020018060200180602001838103835285818151815260200191508051906020019080838360005b8381101561097a578181015183820152602001610962565b50505050905090810190601f1680156109a75780820380516001836020036101000a031916815260200191505b50838103825284518152845160209182019186019080838360005b838110156109da5781810151838201526020016109c2565b50505050905090810190601f168015610a075780820380516001836020036101000a031916815260200191505b50965050505050505060405180910390f35b348015610a2557600080fd5b506101ad600160a060020a0360043516613748565b348015610a4657600080fd5b50610312613781565b348015610a5b57600080fd5b50610312600160a060020a0360043516602435613787565b600054600160a060020a03163314610a8a57600080fd5b80600160a060020a0316630aa245466040518163ffffffff1660e060020a028152600401602060405180830381600087803b158015610ac857600080fd5b505af1158015610adc573d6000803e3d6000fd5b505050506040513d6020811015610af257600080fd5b5051158015610b6c575080600160a060020a031663ba2f81706040518163ffffffff1660e060020a028152600401602060405180830381600087803b158015610b3a57600080fd5b505af1158015610b4e573d6000803e3d6000fd5b505050506040513d6020811015610b6457600080fd5b505115156001145b1515610b7757600080fd5b60098054600160a060020a0319908116600160a060020a039384161791829055600c8054929093169116179055565b600154600160a060020a031681565b600054600160a060020a03163314610bcc57600080fd5b600454610100900460ff1615610be157600080fd5b6004805461ff0019166101001790556040517f16ed36fbe43aed6ba7426b24d35620696380d398f2f22f918dd74e4d3e0ceef990600090a1565b600054600160a060020a03163314610c3257600080fd5b6004805460ff1916911515919091179055565b60008060006060600080610c576141e5565b60008881526016602052604081205411610c7057600080fd5b60008881526016602090815260408083205483526015825291829020825160e0810184528154815260018083015482850152600280840154600160a060020a031683870152600384015460608401526004840180548751601f948216156101000260001901909116929092049283018690048602820186019096528181529194929360808601939190830182828015610d4a5780601f10610d1f57610100808354040283529160200191610d4a565b820191906000526020600020905b815481529060010190602001808311610d2d57829003601f168201915b50505091835250506005820154600160a060020a031660208083019190915260069092015460409182015290820151908201516060830151608084015160a085015160c090950151939d929c50909a509850919650945092505050565b600454610100900460ff1681565b60075481565b60055481565b600054600160a060020a03163314610dd857600080fd5b600160a060020a03919091166000908152600360205260409020805460ff1916911515919091179055565b610e0b6141e5565b600080610e16614220565b60045460ff16158015610e315750600454610100900460ff16155b1515610e3c57600080fd5b60008b81526016602052604081205411610e5557600080fd5b60008b81526016602090815260408083205483526015825291829020825160e0810184528154815260018083015482850152600280840154600160a060020a031683870152600384015460608401526004840180548751601f948216156101000260001901909116929092049283018690048602820186019096528181529194929360808601939190830182828015610f2f5780601f10610f0457610100808354040283529160200191610f2f565b820191906000526020600020905b815481529060010190602001808311610f1257829003601f168201915b50505091835250506005820154600160a060020a039081166020808401919091526006909301546040928301528383015160009081526014845282812054815260138452828120600190810154808352601286528483205483526011909552908390200154918401519397509195509350163314610fac57600080fd5b6000828152601060209081526040808320548352600f825291829020825160808101845281548152600180830154600160a060020a031682850152600280840180548751601f9482161561010002600019019091169290920492830186900486028201860187528282529295939493860193909291908301828280156110735780601f1061104857610100808354040283529160200191611073565b820191906000526020600020905b81548152906001019060200180831161105657829003601f168201915b5050505050815260200160038201548152505090508360a00151600160a060020a031673__AOLibrary_____________________________6379f3e0bf3084604001518e8e8e6040518663ffffffff1660e060020a0281526004018086600160a060020a0316600160a060020a03168152602001806020018560ff1660ff16815260200184600019166000191681526020018360001916600019168152602001828103825286818151815260200191508051906020019080838360005b83811015611148578181015183820152602001611130565b50505050905090810190601f1680156111755780820380516001836020036101000a031916815260200191505b50965050505050505060206040518083038186803b15801561119657600080fd5b505af41580156111aa573d6000803e3d6000fd5b505050506040513d60208110156111c057600080fd5b5051600160a060020a0316146111d557600080fd5b6111e233848989896137a4565b600e60009054906101000a9004600160a060020a0316600160a060020a031663715eb5bc8486602001518e8860600151866060015160116000601260008d6000191660001916815260200190815260200160002054815260200190815260200160002060020160009054906101000a9004600160a060020a031660136000601460008f602001516000191660001916815260200190815260200160002054815260200190815260200160002060020160009054906101000a9004600160a060020a03166040518863ffffffff1660e060020a0281526004018088600019166000191681526020018760001916600019168152602001866000191660001916815260200185815260200184815260200183600160a060020a0316600160a060020a0316815260200182600160a060020a0316600160a060020a03168152602001975050505050505050602060405180830381600087803b15801561134457600080fd5b505af1158015611358573d6000803e3d6000fd5b505050506040513d602081101561136e57600080fd5b5051151561137b57600080fd5b5050505050505050505050565b60045460ff1681565b600061139b614220565b60045460009060ff161580156113b95750600454610100900460ff16155b15156113c457600080fd5b600088815260126020526040812054116113dd57600080fd5b600088815260126020908152604080832054835260118252808320600180820154855260108452828520548552600f84529382902082516080810184528154815281860154600160a060020a031681860152600280830180548651601f9982161561010002600019019091169290920497880187900487028201870186528782529399509095919493860193909291908301828280156114be5780601f10611493576101008083540402835291602001916114be565b820191906000526020600020905b8154815290600101906020018083116114a157829003601f168201915b5050509183525050600391909101546020909101526002840154909250600160a060020a031633146114ef57600080fd5b60008711806114fe5750600086115b806115095750600084115b151561151457600080fd5b600a5460608301516004850154600386015473__AOLibrary_____________________________93632618ae2193600160a060020a0390911692909161155f9163ffffffff613aa216565b6040805160e060020a63ffffffff8716028152600160a060020a03909416600485015260248401929092526044830152606482018b9052608482018a9052600160c060020a0319891660a483015260c482018890525160e4808301926020929190829003018186803b1580156115d457600080fd5b505af41580156115e8573d6000803e3d6000fd5b505050506040513d60208110156115fe57600080fd5b5051151561160b57600080fd5b60008411801561161f5750600783015460ff165b801561162f575060008360040154115b801561163f575060008360050154115b156116e5576005830154600c54604080517f281bdaf80000000000000000000000000000000000000000000000000000000081523360048201529051600160a060020a039092169163281bdaf8916024808201926020929091908290030181600087803b1580156116af57600080fd5b505af11580156116c3573d6000803e3d6000fd5b505050506040513d60208110156116d957600080fd5b5051146116e557600080fd5b60078301805460ff19166001179055600085901a60f860020a02600160f860020a03191615801590611721575060008711806117215750600086115b1561189857600d54604080517f217db8e8000000000000000000000000000000000000000000000000000000008152600481018a905260248101899052600160c060020a0319881660448201529051600160a060020a039092169163217db8e8916064808201926020929091908290030181600087803b1580156117a457600080fd5b505af11580156117b8573d6000803e3d6000fd5b505050506040513d60208110156117ce57600080fd5b505160038401549091506117e8908263ffffffff613aa216565b6003840155600c546002840154604080517f31a8aeb3000000000000000000000000000000000000000000000000000000008152600160a060020a03928316600482015260248101859052905191909216916331a8aeb39160448083019260209291908290030181600087803b15801561186157600080fd5b505af1158015611875573d6000803e3d6000fd5b505050506040513d602081101561188b57600080fd5b5051151561189857600080fd5b6000841115611a0e5760048301546118b6908563ffffffff613aa216565b600480850191909155600c546002850154604080517f281bdaf8000000000000000000000000000000000000000000000000000000008152600160a060020a03928316948101949094525191169163281bdaf89160248083019260209291908290030181600087803b15801561192b57600080fd5b505af115801561193f573d6000803e3d6000fd5b505050506040513d602081101561195557600080fd5b505160058401819055600c546002850154604080517f7e904f7b000000000000000000000000000000000000000000000000000000008152600160a060020a03928316600482015260248101899052604481019490945251911691637e904f7b9160648083019260209291908290030181600087803b1580156119d757600080fd5b505af11580156119eb573d6000803e3d6000fd5b505050506040513d6020811015611a0157600080fd5b50511515611a0e57600080fd5b60018301548354600385015460048601546005870154604080519384526020840192909252828201525133917f7fa32f70b286f05be6f001e570ad7f2e82d767dc5ec7f8e0e585414189184224919081900360600190a45050505050505050565b611a77614248565b611a7f61427c565b600454600090819060ff16158015611a9f5750600454610100900460ff16155b1515611aaa57600080fd5b60008a81526014602052604081205411611ac357600080fd5b8551600010611ad157600080fd5b600160a060020a0385161515611ae657600080fd5b60008a81526014602090815260408083205483526013825291829020825160c0810184528154815260018083015482850152600280840154600160a060020a0316838701526003840180548751601f948216156101000260001901909116929092049283018690048602820186019096528181529194929360608601939190830182828015611bb65780601f10611b8b57610100808354040283529160200191611bb6565b820191906000526020600020905b815481529060010190602001808311611b9957829003601f168201915b505050918352505060048201805460408051602060026001851615610100026000190190941693909304601f8101849004840282018401909252818152938201939291830182828015611c4a5780601f10611c1f57610100808354040283529160200191611c4a565b820191906000526020600020905b815481529060010190602001808311611c2d57829003601f168201915b505050918352505060058201805460408051602060026001851615610100026000190190941693909304601f8101849004840282018401909252818152938201939291830182828015611cde5780601f10611cb357610100808354040283529160200191611cde565b820191906000526020600020905b815481529060010190602001808311611cc157829003601f168201915b50505091909252505050602080820151600090815260128252604080822054825260118352908190208151610140810183528154815260018083015482860152600280840154600160a060020a0316838601526003840154606084015260048401546080840152600584015460a0840152600684015460c0840152600784015460ff16151560e08401526008840154610100808501919091526009850180548751601f9582161590930260001901169290920492830187900487028101870190955281855295995090949193610120860193929190830182828015611e045780601f10611dd957610100808354040283529160200191611e04565b820191906000526020600020905b815481529060010190602001808311611de757829003601f168201915b50505050508152505092508260e00151151560011515148015611e485750600083606001511180611e48575060008360800151118015611e48575060008360a00151115b1515611e5357600080fd5b3360009081526017602090815260408083208d8452909152812054901a60f860020a02600160f860020a03191615611e8a57600080fd5b600160f860020a031960f860020a600089901a021615801590611eb757506000891180611eb75750600088115b1515611ec257600080fd5b600a546080840151606085015173__AOLibrary_____________________________9263749b782092600160a060020a0390911691611f069163ffffffff613aa216565b6040805160e060020a63ffffffff8616028152600160a060020a0390931660048401526024830191909152604482018d9052606482018c9052600160c060020a03198b1660848301525160a4808301926020929190829003018186803b158015611f6f57600080fd5b505af4158015611f83573d6000803e3d6000fd5b505050506040513d6020811015611f9957600080fd5b50511515611fa657600080fd5b600880546001019055604080516c010000000000000000000000003081026020808401919091523391909102603483015260488083018e905283518084039091018152606890920192839052815191929182918401908083835b6020831061201f5780518252601f199092019160209182019101612000565b51815160209384036101000a60001901801990921691161790526040805192909401829003909120600854600090815260159092529290206002810154929650945050600160a060020a0316159150612079905057600080fd5b818155600181018a9055600281018054600160a060020a03191633179055608083015160608401516120b09163ffffffff613aa216565b600382015585516120ca90600483019060208901906142e1565b50600581018054600160a060020a031916600160a060020a038781169190911790915542600683015560085460008481526016602090815260408083209390935533808352601782528383208f84528252838320879055600e54606089015160808a015160a08b015160c08c01518c8901518e8a01518a517fb7f125d60000000000000000000000000000000000000000000000000000000081526004810198909852602488018e905260448801959095526064870193909352608486019190915260a4850152871660c4840152861660e48301529351939094169363b7f125d6936101048083019491928390030190829087803b1580156121cb57600080fd5b505af11580156121df573d6000803e3d6000fd5b505050506040513d60208110156121f557600080fd5b5051151561220257600080fd5b600180820154825460028085015460038601546005870154600688015460408051848152600160a060020a039384169181018290526060810183905260806020820181815260048d0180549c8d16156101000260001901909c16989098049082018190529899979893909516967f3c10b75134615097f0bc3a21cea830f73fe2febf6508f010d2f503aa051b369e9694959094919390919060a0830190869080156122ee5780601f106122c3576101008083540402835291602001916122ee565b820191906000526020600020905b8154815290600101906020018083116122d157829003601f168201915b50509550505050505060405180910390a450505050505050505050565b60036020526000908152604090205460ff1681565b600454600090819060ff161580156123405750600454610100900460ff16155b151561234b57600080fd5b885160001061235957600080fd5b6000851161236657600080fd5b60008d1180612375575060008c115b80612380575060008a115b151561238b57600080fd5b600a54604080517f05c6c870000000000000000000000000000000000000000000000000000000008152600160a060020a039092166004830152602482018f9052604482018e9052600160c060020a03198d166064830152608482018c905260a482018790525173__AOLibrary_____________________________916305c6c8709160c4808301926020929190829003018186803b15801561242d57600080fd5b505af4158015612441573d6000803e3d6000fd5b505050506040513d602081101561245757600080fd5b5051151560011461246757600080fd5b620f424084111561247757600080fd5b612482338a87613ab5565b915061249433838f8f8f8f8a8a613c40565b90506124a333828a8a8a6137a4565b50505050505050505050505050565b600254600160a060020a031681565b60006124cb614248565b6124d361427c565b60045460ff161580156124ee5750600454610100900460ff16155b15156124f957600080fd5b6000848152601460205260408120541161251257600080fd5b60008481526014602090815260408083205483526013825291829020825160c0810184528154815260018083015482850152600280840154600160a060020a0316838701526003840180548751601f9482161561010002600019019091169290920492830186900486028201860190965281815291949293606086019391908301828280156125e25780601f106125b7576101008083540402835291602001916125e2565b820191906000526020600020905b8154815290600101906020018083116125c557829003601f168201915b505050918352505060048201805460408051602060026001851615610100026000190190941693909304601f81018490048402820184019092528181529382019392918301828280156126765780601f1061264b57610100808354040283529160200191612676565b820191906000526020600020905b81548152906001019060200180831161265957829003601f168201915b505050918352505060058201805460408051602060026001851615610100026000190190941693909304601f810184900484028201840190925281815293820193929183018282801561270a5780601f106126df5761010080835404028352916020019161270a565b820191906000526020600020905b8154815290600101906020018083116126ed57829003601f168201915b50505091909252505050602080820151600090815260128252604080822054825260118352908190208151610140810183528154815260018083015482860152600280840154600160a060020a0316838601526003840154606084015260048401546080840152600584015460a0840152600684015460c0840152600784015460ff16151560e08401526008840154610100808501919091526009850180548751601f95821615909302600019011692909204928301879004870281018701909552818552959750909491936101208601939291908301828280156128305780601f1061280557610100808354040283529160200191612830565b820191906000526020600020905b81548152906001019060200180831161281357829003601f168201915b50505050508152505090508060e001511515600115151480156128745750600081606001511180612874575060008160800151118015612874575060008160a00151115b151561287f57600080fd5b608081015160608201516128989163ffffffff613aa216565b949350505050565b600054600160a060020a031633146128b757600080fd5b60018054600160a060020a03938416600160a060020a03199182161790915560028054929093169116179055565b60045460009060ff161580156129035750600454610100900460ff16155b151561290e57600080fd5b620f424082111561291e57600080fd5b6000838152601260205260408120541161293757600080fd5b506000828152601260209081526040808320548352601190915290206002810154600160a060020a0316331461296c57600080fd5b60068101829055604080518381529051849133917f6c4a0cfd4af9f173dec0ac350616d6c855be630c8c83b3cd18879ad5a6bf6d299181900360200190a3505050565b60006129b9614220565b60045460009060ff161580156129d75750600454610100900460ff16155b15156129e257600080fd5b600088815260126020526040812054116129fb57600080fd5b6000871180612a0a5750600086115b80612a155750600084115b1515612a2057600080fd5b600088815260126020908152604080832054835260118252808320600180820154855260108452828520548552600f84529382902082516080810184528154815281860154600160a060020a031681860152600280830180548651601f998216156101000260001901909116929092049788018790048702820187018652878252939950909591949386019390929190830182828015612b015780601f10612ad657610100808354040283529160200191612b01565b820191906000526020600020905b815481529060010190602001808311612ae457829003601f168201915b5050509183525050600391909101546020909101526002840154909250600160a060020a03163314612b3257600080fd5b600783015460ff1615156001148015612b6c5750600083600301541180612b6c575060008360040154118015612b6c575060008360050154115b1515612b7757600080fd5b600a5460038401546004808601546060860151604080517f6c4ef21e000000000000000000000000000000000000000000000000000000008152600160a060020a0390961693860193909352602485018c9052604485018b9052600160c060020a03198a1660648601526084850189905260a485019390935260c484015260e48301919091525173__AOLibrary_____________________________91636c4ef21e91610104808301926020929190829003018186803b158015612c3a57600080fd5b505af4158015612c4e573d6000803e3d6000fd5b505050506040513d6020811015612c6457600080fd5b50511515612c7157600080fd5b600160f860020a031960f860020a600087901a021615801590612c9e57506000871180612c9e5750600086115b15612e0e57600d54604080517f217db8e8000000000000000000000000000000000000000000000000000000008152600481018a905260248101899052600160c060020a0319881660448201529051600160a060020a039092169163217db8e8916064808201926020929091908290030181600087803b158015612d2157600080fd5b505af1158015612d35573d6000803e3d6000fd5b505050506040513d6020811015612d4b57600080fd5b50516003840154909150612d65908263ffffffff6141d316565b6003840155600c54604080517f731a3b06000000000000000000000000000000000000000000000000000000008152336004820152602481018490529051600160a060020a039092169163731a3b06916044808201926020929091908290030181600087803b158015612dd757600080fd5b505af1158015612deb573d6000803e3d6000fd5b505050506040513d6020811015612e0157600080fd5b50511515612e0e57600080fd5b6000841115612ee6576004830154612e2c908563ffffffff6141d316565b600480850191909155600c546005850154604080517f74ead7b7000000000000000000000000000000000000000000000000000000008152339481019490945260248401889052604484019190915251600160a060020a03909116916374ead7b79160648083019260209291908290030181600087803b158015612eaf57600080fd5b505af1158015612ec3573d6000803e3d6000fd5b505050506040513d6020811015612ed957600080fd5b50511515612ee657600080fd5b6001830154835460028501546003860154600487015460058801546040805193845260208401929092528282015251600160a060020a03909216917f645f75eb984f0b89f1e9887da267d2025a37764e7bd6537b7d7eff900e8725eb9181900360600190a45050505050505050565b600954600160a060020a031681565b600a54600160a060020a031681565b60065481565b600054600160a060020a031681565b620f424081565b6000806000806000806000806060612fa561427c565b60008b81526012602052604081205411612fbe57600080fd5b60008b815260126020908152604080832054835260118252918290208251610140810184528154815260018083015482850152600280840154600160a060020a0316838701526003840154606084015260048401546080840152600584015460a0840152600684015460c0840152600784015460ff16151560e08401526008840154610100808501919091526009850180548851601f95821615909302600019011692909204928301869004860281018601909652818652919492936101208601939291908301828280156130d45780601f106130a9576101008083540402835291602001916130d4565b820191906000526020600020905b8154815290600101906020018083116130b757829003601f168201915b505050505081525050905080602001518160400151826060015183608001518460a001518560c001518660e00151876101000151886101200151809050995099509950995099509950995099509950509193959799909294969850565b60008061313c614220565b6000848152601060205260408120541161315557600080fd5b6000848152601060209081526040808320548352600f825291829020825160808101845281548152600180830154600160a060020a031682850152600280840180548751601f94821615610100026000190190911692909204928301869004860282018601875282825292959394938601939092919083018282801561321c5780601f106131f15761010080835404028352916020019161321c565b820191906000526020600020905b8154815290600101906020018083116131ff57829003601f168201915b505050505081526020016003820154815250509050806020015181606001519250925050915091565b60045460009081908190819060ff161580156132695750600454610100900460ff16155b151561327457600080fd5b6000858152601260205260408120541161328d57600080fd5b6000858152601260209081526040808320548352601190915290206002810154909450600160a060020a031633146132c457600080fd5b600784015460ff16151560011480156132fe57506000846003015411806132fe5750600084600401541180156132fe575060008460050154115b151561330957600080fd5b60078401805460ff191690556003840154600010156133d557600384018054600091829055600c54604080517f731a3b06000000000000000000000000000000000000000000000000000000008152336004820152602481018490529051929650600160a060020a039091169263731a3b06926044808401936020939083900390910190829087803b15801561339e57600080fd5b505af11580156133b2573d6000803e3d6000fd5b505050506040513d60208110156133c857600080fd5b505115156133d557600080fd5b6000846004015411156134ab5750506004808301805460058501805460009384905590839055600c54604080517f74ead7b7000000000000000000000000000000000000000000000000000000008152339681019690965260248601849052604486018390525192949193600160a060020a03909116926374ead7b7926064808201936020939283900390910190829087803b15801561347457600080fd5b505af1158015613488573d6000803e3d6000fd5b505050506040513d602081101561349e57600080fd5b505115156134ab57600080fd5b60028401546040518691600160a060020a0316907eeb6a306a149d2ec8a5e5f228483a31d06863f4cd48237ddf5c1c236805def890600090a35050505050565b600b54600160a060020a031681565b600080606080613508614248565b6000868152601460205260408120541161352157600080fd5b60008681526014602090815260408083205483526013825291829020825160c0810184528154815260018083015482850152600280840154600160a060020a0316838701526003840180548751601f9482161561010002600019019091169290920492830186900486028201860190965281815291949293606086019391908301828280156135f15780601f106135c6576101008083540402835291602001916135f1565b820191906000526020600020905b8154815290600101906020018083116135d457829003601f168201915b505050918352505060048201805460408051602060026001851615610100026000190190941693909304601f81018490048402820184019092528181529382019392918301828280156136855780601f1061365a57610100808354040283529160200191613685565b820191906000526020600020905b81548152906001019060200180831161366857829003601f168201915b505050918352505060058201805460408051602060026001851615610100026000190190941693909304601f81018490048402820184019092528181529382019392918301828280156137195780601f106136ee57610100808354040283529160200191613719565b820191906000526020600020905b8154815290600101906020018083116136fc57829003601f168201915b5050509190925250505060208101516040820151608083015160a0909301519199909850919650945092505050565b600054600160a060020a0316331461375f57600080fd5b60008054600160a060020a031916600160a060020a0392909216919091179055565b60085481565b601760209081526000928352604080842090915290825290205481565b600080600085511115156137b757600080fd5b83516000106137c557600080fd5b82516000106137d357600080fd5b600086815260126020526040812054116137ec57600080fd5b600680546001019055604080516c01000000000000000000000000308102602080840191909152600160a060020a038b16909102603483015260488083018a905283518084039091018152606890920192839052815191929182918401908083835b6020831061386d5780518252601f19909201916020918201910161384e565b51815160209384036101000a60001901801990921691161790526040805192909401829003909120600654600090815260139092529290206002810154929650945050600160a060020a03161591506138c7905057600080fd5b81815560018101869055600281018054600160a060020a031916600160a060020a038916179055845161390390600383019060208801906142e1565b50835161391990600483019060208701906142e1565b50825161392f90600583019060208601906142e1565b506006546000838152601460209081526040918290209290925582546002808501546001808701548551818152606097810188815260048a018054948516156101000260001901909416959095049781018890529496600160a060020a03909316957ff0f838e428cacd8f5b84897fb23a2f3f9da3898d1b2ff5fe647fa9b6e7c3789b959194929360058a019391830190608084019086908015613a145780601f106139e957610100808354040283529160200191613a14565b820191906000526020600020905b8154815290600101906020018083116139f757829003601f168201915b5050838103825284546002600019610100600184161502019091160480825260209091019085908015613a885780601f10613a5d57610100808354040283529160200191613a88565b820191906000526020600020905b815481529060010190602001808311613a6b57829003601f168201915b50509550505050505060405180910390a350505050505050565b81810182811015613aaf57fe5b92915050565b6005805460010190819055604080516c01000000000000000000000000308102602080840191909152600160a060020a038816909102603483015260488083019490945282518083039094018452606890910191829052825160009384938493919290918291908401908083835b60208310613b425780518252601f199092019160209182019101613b23565b51815160209384036101000a600019018019909216911617905260408051929094018290039091206005546000908152600f9092529290206001810154929650945050600160a060020a0316159150613b9c905057600080fd5b818155600181018054600160a060020a031916600160a060020a0388161790558451613bd190600283019060208801906142e1565b506003810184815560055460008481526010602090815260409182902092909255835460018501549354825190815291519093600160a060020a0316927fc32282ed7cda0874fea4bbf507f0e1b00098b28139068ce544f1a0f9a2fb8135928290030190a35495945050505050565b600780546001019055604080516c01000000000000000000000000308102602080840191909152600160a060020a038c16909102603483015260488083018b905283518084039091018152606890920192839052815160009384938493909282918401908083835b60208310613cc75780518252601f199092019160209182019101613ca8565b51815160209384036101000a60001901801990921691161790526040805192909401829003909120600754600090815260119092529290206002810154929650945050600160a060020a0316159150613d21905057600080fd5b81815560018082018b9055600282018054600160a060020a031916600160a060020a038e161790556006820186905560078201805460ff191690911790554260088201558351613d7a90600983019060208701906142e1565b5060075460008381526012602052604081209190915587901a60f860020a027effffffffffffffffffffffffffffffffffffffffffffffffffffffffffffff1916600060f860020a0214158015613ddb57506000891180613ddb5750600088115b15613f3957600d54604080517f217db8e8000000000000000000000000000000000000000000000000000000008152600481018c9052602481018b9052600160c060020a03198a1660448201529051600160a060020a039092169163217db8e8916064808201926020929091908290030181600087803b158015613e5e57600080fd5b505af1158015613e72573d6000803e3d6000fd5b505050506040513d6020811015613e8857600080fd5b505160038201819055600c54604080517f31a8aeb3000000000000000000000000000000000000000000000000000000008152600160a060020a038f811660048301526024820194909452905192909116916331a8aeb3916044808201926020929091908290030181600087803b158015613f0257600080fd5b505af1158015613f16573d6000803e3d6000fd5b505050506040513d6020811015613f2c57600080fd5b50511515613f3957600080fd5b6000861115614099576004808201879055600c546002830154604080517f281bdaf8000000000000000000000000000000000000000000000000000000008152600160a060020a03928316948101949094525191169163281bdaf89160248083019260209291908290030181600087803b158015613fb657600080fd5b505af1158015613fca573d6000803e3d6000fd5b505050506040513d6020811015613fe057600080fd5b505160058201819055600c546002830154604080517f7e904f7b000000000000000000000000000000000000000000000000000000008152600160a060020a039283166004820152602481018b9052604481019490945251911691637e904f7b9160648083019260209291908290030181600087803b15801561406257600080fd5b505af1158015614076573d6000803e3d6000fd5b505050506040513d602081101561408c57600080fd5b5051151561409957600080fd5b8060010154600019168160000154600019168260020160009054906101000a9004600160a060020a0316600160a060020a03167f332a0c7cd149bed5079143cee24862eb27282a626b8244e0597d73506978ea2e846003015485600401548660050154876006015488600801548960090160405180878152602001868152602001858152602001848152602001838152602001806020018281038252838181546001816001161561010002031660029004815260200191508054600181600116156101000203166002900480156141b15780601f10614186576101008083540402835291602001916141b1565b820191906000526020600020905b81548152906001019060200180831161419457829003601f168201915b505097505050505050505060405180910390a4549a9950505050505050505050565b6000828211156141df57fe5b50900390565b6040805160e0810182526000808252602082018190529181018290526060808201839052608082015260a0810182905260c081019190915290565b6040805160808101825260008082526020820181905260609282018390529181019190915290565b6040805160c0810182526000808252602082018190529181019190915260608082018190526080820181905260a082015290565b6101406040519081016040528060008019168152602001600080191681526020016000600160a060020a031681526020016000815260200160008152602001600081526020016000815260200160001515815260200160008152602001606081525090565b828054600181600116156101000203166002900490600052602060002090601f016020900481019282601f1061432257805160ff191683800117855561434f565b8280016001018555821561434f579182015b8281111561434f578251825591602001919060010190614334565b5061435b92915061435f565b5090565b61437991905b8082111561435b5760008155600101614365565b905600a165627a7a723058207d7ad5e4107da878e600b2e7039e959bbcc48bf6caf8989d2067f4aed1b4c8c40029",
	"source": "pragma solidity ^0.4.24;\n\nimport './SafeMath.sol';\nimport './developed.sol';\nimport './AOToken.sol';\nimport './AOTreasury.sol';\nimport './AOEarning.sol';\nimport './AOLibrary.sol';\n\n/**\n * @title AOContent\n *\n * The purpose of this contract is to allow content creator to stake network ERC20 AO tokens and/or primordial AO Tokens\n * on his/her content\n */\ncontract AOContent is developed {\n\tusing SafeMath for uint256;\n\n\tbool public paused;\n\tbool public killed;\n\tuint256 constant public PERCENTAGE_DIVISOR = 10 ** 6; // 100% = 1000000\n\tuint256 public totalContents;\n\tuint256 public totalContentHosts;\n\tuint256 public totalStakedContents;\n\tuint256 public totalPurchaseReceipts;\n\n\taddress public baseDenominationAddress;\n\taddress public treasuryAddress;\n\taddress public earningAddress;\n\tAOToken internal _baseAO;\n\tAOTreasury internal _treasury;\n\tAOEarning internal _earning;\n\n\tstruct Content {\n\t\tbytes32 contentId;\n\t\taddress creator;\n\t\t/**\n\t\t * baseChallenge is the content's PUBLIC KEY\n\t\t * When a request node wants to be a host, we require it to send a signed base challenge (its content's PUBLIC KEY)\n\t\t * so that we can verify the authenticity of the content by comparing what the contract has and what the request node\n\t\t * submit\n\t\t */\n\t\tstring baseChallenge;\n\t\tuint256 fileSize;\n\t}\n\n\tstruct StakedContent {\n\t\tbytes32 stakeId;\n\t\tbytes32 contentId;\n\t\taddress stakeOwner;\n\t\tuint256 networkAmount; // total network token staked in base denomination\n\t\tuint256 primordialAmount;\t// the amount of primordial AO Token to stake (always in base denomination)\n\t\tuint256 primordialWeightedMultiplier;\n\t\tuint256 profitPercentage; // support up to 4 decimals, 100% = 1000000\n\t\tbool active; // true if currently staked, false when unstaked\n\t\tuint256 createdOnTimestamp;\n\t\tstring extraData;\n\t}\n\n\tstruct ContentHost {\n\t\tbytes32 contentHostId;\n\t\tbytes32 stakeId;\n\t\taddress host;\n\t\t/**\n\t\t * encChallenge is the content's PUBLIC KEY unique to the host\n\t\t */\n\t\tstring encChallenge;\n\t\tstring contentDatKey;\n\t\tstring metadataDatKey;\n\t}\n\n\tstruct PurchaseReceipt {\n\t\tbytes32 purchaseId;\n\t\tbytes32 contentHostId;\n\t\taddress buyer;\n\t\tuint256 networkAmount; // total network token paid in base denomination\n\t\tstring publicKey; // The public key provided by request node\n\t\taddress publicAddress; // The public address provided by request node\n\t\tuint256 createdOnTimestamp;\n\t}\n\n\t// Mapping from Content index to the Content object\n\tmapping (uint256 => Content) private contents;\n\n\t// Mapping from content ID to index of the contents list\n\tmapping (bytes32 => uint256) private contentIndex;\n\n\t// Mapping from StakedContent index to the StakedContent object\n\tmapping (uint256 => StakedContent) private stakedContents;\n\n\t// Mapping from stake ID to index of the stakedContents list\n\tmapping (bytes32 => uint256) private stakedContentIndex;\n\n\t// Mapping from ContentHost index to the ContentHost object\n\tmapping (uint256 => ContentHost) private contentHosts;\n\n\t// Mapping from content host ID to index of the contentHosts list\n\tmapping (bytes32 => uint256) private contentHostIndex;\n\n\t// Mapping from PurchaseReceipt index to the PurchaseReceipt object\n\tmapping (uint256 => PurchaseReceipt) private purchaseReceipts;\n\n\t// Mapping from purchase ID to index of the purchaseReceipts list\n\tmapping (bytes32 => uint256) private purchaseReceiptIndex;\n\n\t// Mapping from buyer's content host ID to the buy ID\n\t// To check whether or not buyer has bought/paid for a content\n\tmapping (address => mapping (bytes32 => bytes32)) public buyerPurchaseReceipts;\n\n\t// Event to be broadcasted to public when `content` is stored\n\tevent StoreContent(address indexed creator, bytes32 indexed contentId, uint256 fileSize);\n\n\t// Event to be broadcasted to public when `stakeOwner` stakes a new content\n\tevent StakeContent(address indexed stakeOwner, bytes32 indexed stakeId, bytes32 indexed contentId, uint256 baseNetworkAmount, uint256 primordialAmount, uint256 primordialWeightedMultiplier, uint256 profitPercentage, uint256 createdOnTimestamp, string extraData);\n\n\t// Event to be broadcasted to public when a node hosts a content\n\tevent HostContent(address indexed host, bytes32 indexed contentHostId, bytes32 stakeId, string contentDatKey, string metadataDatKey);\n\n\t// Event to be broadcasted to public when `stakeOwner` updates the staked content's profit percentage\n\tevent SetProfitPercentage(address indexed stakeOwner, bytes32 indexed stakeId, uint256 newProfitPercentage);\n\n\t// Event to be broadcasted to public when `stakeOwner` unstakes some network/primordial token from an existing content\n\tevent UnstakePartialContent(address indexed stakeOwner, bytes32 indexed stakeId, bytes32 indexed contentId, uint256 remainingNetworkAmount, uint256 remainingPrimordialAmount, uint256 primordialWeightedMultiplier);\n\n\t// Event to be broadcasted to public when `stakeOwner` unstakes all token amount on an existing content\n\tevent UnstakeContent(address indexed stakeOwner, bytes32 indexed stakeId);\n\n\t// Event to be broadcasted to public when `stakeOwner` re-stakes an existing content\n\tevent StakeExistingContent(address indexed stakeOwner, bytes32 indexed stakeId, bytes32 indexed contentId, uint256 currentNetworkAmount, uint256 currentPrimordialAmount, uint256 currentPrimordialWeightedMultiplier);\n\n\t// Event to be broadcasted to public when a request node buys a content\n\tevent BuyContent(address indexed buyer, bytes32 indexed purchaseId, bytes32 indexed contentHostId, uint256 paidNetworkAmount, string publicKey, address publicAddress, uint256 createdOnTimestamp);\n\n\t// Event to be broadcasted to public when emergency mode is triggered\n\tevent EscapeHatch();\n\n\t/**\n\t * @dev Constructor function\n\t * @param _baseDenominationAddress The address of AO base token\n\t * @param _treasuryAddress The address of AOTreasury\n\t * @param _earningAddress The address of AOEarning\n\t */\n\tconstructor(address _baseDenominationAddress, address _treasuryAddress, address _earningAddress) public {\n\t\tbaseDenominationAddress = _baseDenominationAddress;\n\t\ttreasuryAddress = _treasuryAddress;\n\t\t_baseAO = AOToken(_baseDenominationAddress);\n\t\t_treasury = AOTreasury(_treasuryAddress);\n\t\t_earning = AOEarning(_earningAddress);\n\t}\n\n\t/**\n\t * @dev Checks if contract is currently active\n\t */\n\tmodifier isActive {\n\t\trequire (paused == false && killed == false);\n\t\t_;\n\t}\n\n\t/***** DEVELOPER ONLY METHODS *****/\n\t/**\n\t * @dev Developer pauses/unpauses contract\n\t * @param _paused Either to pause contract or not\n\t */\n\tfunction setPaused(bool _paused) public onlyDeveloper {\n\t\tpaused = _paused;\n\t}\n\n\t/**\n\t * @dev Developer updates base denomination address\n\t * @param _newBaseDenominationAddress The new address\n\t */\n\tfunction setBaseDenominationAddress(address _newBaseDenominationAddress) public onlyDeveloper {\n\t\trequire (AOToken(_newBaseDenominationAddress).powerOfTen() == 0 && AOToken(_newBaseDenominationAddress).networkExchangeContract() == true);\n\t\tbaseDenominationAddress = _newBaseDenominationAddress;\n\t\t_baseAO = AOToken(baseDenominationAddress);\n\t}\n\n\t/**\n\t * @dev Developer triggers emergency mode.\n\t *\n\t */\n\tfunction escapeHatch() public onlyDeveloper {\n\t\trequire (killed == false);\n\t\tkilled = true;\n\t\temit EscapeHatch();\n\t}\n\n\t/***** PUBLIC METHODS *****/\n\t/**\n\t * @dev Stake `_networkIntegerAmount` + `_networkFractionAmount` of network token in `_denomination` and/or `_primordialAmount` primordial Tokens for a content\n\t * @param _networkIntegerAmount The integer amount of network token to stake\n\t * @param _networkFractionAmount The fraction amount of network token to stake\n\t * @param _denomination The denomination of the network token, i.e ao, kilo, mega, etc.\n\t * @param _primordialAmount The amount of primordial Token to stake\n\t * @param _baseChallenge The base challenge string (PUBLIC KEY) of the content\n\t * @param _encChallenge The encrypted challenge string (PUBLIC KEY) of the content unique to the host\n\t * @param _contentDatKey The dat key of the content\n\t * @param _metadataDatKey The dat key of the content's metadata\n\t * @param _fileSize The size of the file\n\t * @param _profitPercentage The percentage of profit the stake owner's media will charge\n\t * @param _extraData some extra information to send to the contract when staking a content\n\t */\n\tfunction stakeContent(\n\t\tuint256 _networkIntegerAmount,\n\t\tuint256 _networkFractionAmount,\n\t\tbytes8 _denomination,\n\t\tuint256 _primordialAmount,\n\t\tstring _baseChallenge,\n\t\tstring _encChallenge,\n\t\tstring _contentDatKey,\n\t\tstring _metadataDatKey,\n\t\tuint256 _fileSize,\n\t\tuint256 _profitPercentage,\n\t\tstring _extraData)\n\t\tpublic\n\t\tisActive {\n\t\trequire (bytes(_baseChallenge).length > 0);\n\t\trequire (_fileSize > 0);\n\t\trequire (_networkIntegerAmount > 0 || _networkFractionAmount > 0 || _primordialAmount > 0);\n\t\trequire (AOLibrary.canStake(treasuryAddress, _networkIntegerAmount, _networkFractionAmount, _denomination, _primordialAmount, _fileSize) == true);\n\t\trequire (_profitPercentage <= PERCENTAGE_DIVISOR);\n\n\t\t// Store this content\n\t\tbytes32 _contentId = _storeContent(msg.sender, _baseChallenge, _fileSize);\n\n\t\t// Stake the network/primordial token on content\n\t\tbytes32 _stakeId = _stakeContent(msg.sender, _contentId, _networkIntegerAmount, _networkFractionAmount, _denomination, _primordialAmount, _profitPercentage, _extraData);\n\n\t\t// Add the node info that hosts this content (in this case the creator himself)\n\t\t_hostContent(msg.sender, _stakeId, _encChallenge, _contentDatKey, _metadataDatKey);\n\t}\n\n\t/**\n\t * @dev Set profit percentage on existing staked content\n\t * @param _stakeId The ID of the staked content\n\t * @param _profitPercentage The new value to be set\n\t */\n\tfunction setProfitPercentage(bytes32 _stakeId, uint256 _profitPercentage) public isActive {\n\t\trequire (_profitPercentage <= PERCENTAGE_DIVISOR);\n\n\t\t// Make sure the staked content exist\n\t\trequire (stakedContentIndex[_stakeId] > 0);\n\n\t\tStakedContent storage _stakedContent = stakedContents[stakedContentIndex[_stakeId]];\n\t\t// Make sure the staked content owner is the same as the sender\n\t\trequire (_stakedContent.stakeOwner == msg.sender);\n\n\t\t_stakedContent.profitPercentage = _profitPercentage;\n\n\t\temit SetProfitPercentage(msg.sender, _stakeId, _profitPercentage);\n\t}\n\n\t/**\n\t * @dev Return content info at a given ID\n\t * @param _contentId The ID of the content\n\t * @return address of the creator\n\t * @return file size of the content\n\t */\n\tfunction contentById(bytes32 _contentId) public view returns (address, uint256) {\n\t\t// Make sure the content exist\n\t\trequire (contentIndex[_contentId] > 0);\n\t\tContent memory _content = contents[contentIndex[_contentId]];\n\t\treturn (\n\t\t\t_content.creator,\n\t\t\t_content.fileSize\n\t\t);\n\t}\n\n\t/**\n\t * @dev Return content host info at a given ID\n\t * @param _contentHostId The ID of the hosted content\n\t * @return The ID of the staked content\n\t * @return address of the host\n\t * @return the dat key of the content\n\t * @return the dat key of the content's metadata\n\t */\n\tfunction contentHostById(bytes32 _contentHostId) public view returns (bytes32, address, string, string) {\n\t\t// Make sure the content host exist\n\t\trequire (contentHostIndex[_contentHostId] > 0);\n\t\tContentHost memory _contentHost = contentHosts[contentHostIndex[_contentHostId]];\n\t\treturn (\n\t\t\t_contentHost.stakeId,\n\t\t\t_contentHost.host,\n\t\t\t_contentHost.contentDatKey,\n\t\t\t_contentHost.metadataDatKey\n\t\t);\n\t}\n\n\t/**\n\t * @dev Return staked content information at a given ID\n\t * @param _stakeId The ID of the staked content\n\t * @return The ID of the content being staked\n\t * @return address of the staked content's owner\n\t * @return the network base token amount staked for this content\n\t * @return the primordial token amount staked for this content\n\t * @return the primordial weighted multiplier of the staked content\n\t * @return the profit percentage of the content\n\t * @return status of the staked content\n\t * @return the timestamp when the staked content was created\n\t * @return the extra information sent to the contract when staking a content\n\t */\n\tfunction stakedContentById(bytes32 _stakeId) public view returns (bytes32, address, uint256, uint256, uint256, uint256, bool, uint256, string) {\n\t\t// Make sure the staked content exist\n\t\trequire (stakedContentIndex[_stakeId] > 0);\n\n\t\tStakedContent memory _stakedContent = stakedContents[stakedContentIndex[_stakeId]];\n\t\treturn (\n\t\t\t_stakedContent.contentId,\n\t\t\t_stakedContent.stakeOwner,\n\t\t\t_stakedContent.networkAmount,\n\t\t\t_stakedContent.primordialAmount,\n\t\t\t_stakedContent.primordialWeightedMultiplier,\n\t\t\t_stakedContent.profitPercentage,\n\t\t\t_stakedContent.active,\n\t\t\t_stakedContent.createdOnTimestamp,\n\t\t\t_stakedContent.extraData\n\t\t);\n\t}\n\n\t/**\n\t * @dev Unstake existing staked content and refund partial staked amount to the stake owner\n\t *\t\tUse unstakeContent() to unstake all staked token amount. unstakePartialContent() can unstake only up to\n\t *\t\tthe mininum required to pay the fileSize\n\t * @param _stakeId The ID of the staked content\n\t * @param _networkIntegerAmount The integer amount of network token to unstake\n\t * @param _networkFractionAmount The fraction amount of network token to unstake\n\t * @param _denomination The denomination of the network token, i.e ao, kilo, mega, etc.\n\t * @param _primordialAmount The amount of primordial Token to unstake\n\t */\n\tfunction unstakePartialContent(bytes32 _stakeId, uint256 _networkIntegerAmount, uint256 _networkFractionAmount, bytes8 _denomination, uint256 _primordialAmount) public isActive {\n\t\t// Make sure the staked content exist\n\t\trequire (stakedContentIndex[_stakeId] > 0);\n\t\trequire (_networkIntegerAmount > 0 || _networkFractionAmount > 0 || _primordialAmount > 0);\n\n\t\tStakedContent storage _stakedContent = stakedContents[stakedContentIndex[_stakeId]];\n\t\tContent memory _content = contents[contentIndex[_stakedContent.contentId]];\n\n\t\t// Make sure the staked content owner is the same as the sender\n\t\trequire (_stakedContent.stakeOwner == msg.sender);\n\t\t// Make sure the staked content is currently active (staked) with some amounts\n\t\trequire (_stakedContent.active == true && (_stakedContent.networkAmount > 0 || (_stakedContent.primordialAmount > 0 && _stakedContent.primordialWeightedMultiplier > 0)));\n\t\t// Make sure the staked content has enough balance to unstake\n\t\trequire (AOLibrary.canUnstakePartial(treasuryAddress, _networkIntegerAmount, _networkFractionAmount, _denomination, _primordialAmount, _stakedContent.networkAmount, _stakedContent.primordialAmount, _content.fileSize));\n\n\t\tif (_denomination[0] != 0 && (_networkIntegerAmount > 0 || _networkFractionAmount > 0)) {\n\t\t\tuint256 _unstakeNetworkAmount = _treasury.toBase(_networkIntegerAmount, _networkFractionAmount, _denomination);\n\t\t\t_stakedContent.networkAmount = _stakedContent.networkAmount.sub(_unstakeNetworkAmount);\n\t\t\trequire (_baseAO.unstakeFrom(msg.sender, _unstakeNetworkAmount));\n\t\t}\n\t\tif (_primordialAmount > 0) {\n\t\t\t_stakedContent.primordialAmount = _stakedContent.primordialAmount.sub(_primordialAmount);\n\t\t\trequire (_baseAO.unstakePrimordialTokenFrom(msg.sender, _primordialAmount, _stakedContent.primordialWeightedMultiplier));\n\t\t}\n\t\temit UnstakePartialContent(_stakedContent.stakeOwner, _stakedContent.stakeId, _stakedContent.contentId, _stakedContent.networkAmount, _stakedContent.primordialAmount, _stakedContent.primordialWeightedMultiplier);\n\t}\n\n\t/**\n\t * @dev Unstake existing staked content and refund the total staked amount to the stake owner\n\t * @param _stakeId The ID of the staked content\n\t */\n\tfunction unstakeContent(bytes32 _stakeId) public isActive {\n\t\t// Make sure the staked content exist\n\t\trequire (stakedContentIndex[_stakeId] > 0);\n\n\t\tStakedContent storage _stakedContent = stakedContents[stakedContentIndex[_stakeId]];\n\t\t// Make sure the staked content owner is the same as the sender\n\t\trequire (_stakedContent.stakeOwner == msg.sender);\n\t\t// Make sure the staked content is currently active (staked) with some amounts\n\t\trequire (_stakedContent.active == true && (_stakedContent.networkAmount > 0 || (_stakedContent.primordialAmount > 0 && _stakedContent.primordialWeightedMultiplier > 0)));\n\n\t\t_stakedContent.active = false;\n\n\t\tif (_stakedContent.networkAmount > 0) {\n\t\t\tuint256 _unstakeNetworkAmount = _stakedContent.networkAmount;\n\t\t\t_stakedContent.networkAmount = 0;\n\t\t\trequire (_baseAO.unstakeFrom(msg.sender, _unstakeNetworkAmount));\n\t\t}\n\t\tif (_stakedContent.primordialAmount > 0) {\n\t\t\tuint256 _primordialAmount = _stakedContent.primordialAmount;\n\t\t\tuint256 _primordialWeightedMultiplier = _stakedContent.primordialWeightedMultiplier;\n\t\t\t_stakedContent.primordialAmount = 0;\n\t\t\t_stakedContent.primordialWeightedMultiplier = 0;\n\t\t\trequire (_baseAO.unstakePrimordialTokenFrom(msg.sender, _primordialAmount, _primordialWeightedMultiplier));\n\t\t}\n\t\temit UnstakeContent(_stakedContent.stakeOwner, _stakeId);\n\t}\n\n\t/**\n\t * @dev Stake existing content with more tokens (this is to increase the price)\n\t *\n\t * @param _stakeId The ID of the staked content\n\t * @param _networkIntegerAmount The integer amount of network token to stake\n\t * @param _networkFractionAmount The fraction amount of network token to stake\n\t * @param _denomination The denomination of the network token, i.e ao, kilo, mega, etc.\n\t * @param _primordialAmount The amount of primordial Token to stake. (The primordial weighted multiplier has to match the current staked weighted multiplier)\n\t */\n\tfunction stakeExistingContent(bytes32 _stakeId, uint256 _networkIntegerAmount, uint256 _networkFractionAmount, bytes8 _denomination, uint256 _primordialAmount) public isActive {\n\t\t// Make sure the staked content exist\n\t\trequire (stakedContentIndex[_stakeId] > 0);\n\n\t\tStakedContent storage _stakedContent = stakedContents[stakedContentIndex[_stakeId]];\n\t\tContent memory _content = contents[contentIndex[_stakedContent.contentId]];\n\n\t\t// Make sure the staked content owner is the same as the sender\n\t\trequire (_stakedContent.stakeOwner == msg.sender);\n\t\trequire (_networkIntegerAmount > 0 || _networkFractionAmount > 0 || _primordialAmount > 0);\n\t\trequire (AOLibrary.canStakeExisting(treasuryAddress, _content.fileSize, _stakedContent.networkAmount.add(_stakedContent.primordialAmount), _networkIntegerAmount, _networkFractionAmount, _denomination, _primordialAmount));\n\n\t\t// Make sure we can stake primordial token\n\t\t// If we are currently staking an active staked content, then the stake owner's weighted multiplier has to match `stakedContent.primordialWeightedMultiplier`\n\t\t// i.e, can't use a combination of different weighted multiplier. Stake owner has to call unstakeContent() to unstake all tokens first\n\t\tif (_primordialAmount > 0 && _stakedContent.active && _stakedContent.primordialAmount > 0 && _stakedContent.primordialWeightedMultiplier > 0) {\n\t\t\trequire (_baseAO.weightedMultiplierByAddress(msg.sender) == _stakedContent.primordialWeightedMultiplier);\n\t\t}\n\n\t\t_stakedContent.active = true;\n\t\tif (_denomination[0] != 0 && (_networkIntegerAmount > 0 || _networkFractionAmount > 0)) {\n\t\t\tuint256 _stakeNetworkAmount = _treasury.toBase(_networkIntegerAmount, _networkFractionAmount, _denomination);\n\t\t\t_stakedContent.networkAmount = _stakedContent.networkAmount.add(_stakeNetworkAmount);\n\t\t\trequire (_baseAO.stakeFrom(_stakedContent.stakeOwner, _stakeNetworkAmount));\n\t\t}\n\t\tif (_primordialAmount > 0) {\n\t\t\t_stakedContent.primordialAmount = _stakedContent.primordialAmount.add(_primordialAmount);\n\n\t\t\t// Primordial Token is the base AO Token\n\t\t\t_stakedContent.primordialWeightedMultiplier = _baseAO.weightedMultiplierByAddress(_stakedContent.stakeOwner);\n\t\t\trequire (_baseAO.stakePrimordialTokenFrom(_stakedContent.stakeOwner, _primordialAmount, _stakedContent.primordialWeightedMultiplier));\n\t\t}\n\n\t\temit StakeExistingContent(msg.sender, _stakedContent.stakeId, _stakedContent.contentId, _stakedContent.networkAmount, _stakedContent.primordialAmount, _stakedContent.primordialWeightedMultiplier);\n\t}\n\n\t/**\n\t * @dev Determine the content price hosted by a host\n\t * @param _contentHostId The content host ID to be checked\n\t * @return the price of the content\n\t */\n\tfunction contentHostPrice(bytes32 _contentHostId) public isActive view returns (uint256) {\n\t\t// Make sure content host exist\n\t\trequire (contentHostIndex[_contentHostId] > 0);\n\n\t\tContentHost memory _contentHost = contentHosts[contentHostIndex[_contentHostId]];\n\t\tStakedContent memory _stakedContent = stakedContents[stakedContentIndex[_contentHost.stakeId]];\n\t\t// Make sure content is currently staked\n\t\trequire (_stakedContent.active == true && (_stakedContent.networkAmount > 0 || (_stakedContent.primordialAmount > 0 && _stakedContent.primordialWeightedMultiplier > 0)));\n\t\treturn _stakedContent.networkAmount.add(_stakedContent.primordialAmount);\n\t}\n\n\t/**\n\t * @dev Bring content in to the requesting node by sending network tokens to the contract to pay for the content\n\t * @param _contentHostId The ID of hosted content\n\t * @param _networkIntegerAmount The integer amount of network token to pay\n\t * @param _networkFractionAmount The fraction amount of network token to pay\n\t * @param _denomination The denomination of the network token, i.e ao, kilo, mega, etc.\n\t * @param _publicKey The public key of the request node\n\t * @param _publicAddress The public address of the request node\n\t */\n\tfunction buyContent(bytes32 _contentHostId, uint256 _networkIntegerAmount, uint256 _networkFractionAmount, bytes8 _denomination, string _publicKey, address _publicAddress) public isActive {\n\t\t// Make sure the content host exist\n\t\trequire (contentHostIndex[_contentHostId] > 0);\n\n\t\t// Make sure public key is not empty\n\t\trequire (bytes(_publicKey).length > 0);\n\n\t\t// Make sure public address is valid\n\t\trequire (_publicAddress != address(0));\n\n\t\tContentHost memory _contentHost = contentHosts[contentHostIndex[_contentHostId]];\n\t\tStakedContent memory _stakedContent = stakedContents[stakedContentIndex[_contentHost.stakeId]];\n\n\t\t// Make sure the content currently has stake\n\t\trequire (_stakedContent.active == true && (_stakedContent.networkAmount > 0 || (_stakedContent.primordialAmount > 0 && _stakedContent.primordialWeightedMultiplier > 0)));\n\n\t\t// Make sure the buyer has not bought this content previously\n\t\trequire (buyerPurchaseReceipts[msg.sender][_contentHostId][0] == 0);\n\n\t\t// Make sure the token amount can pay for the content price\n\t\trequire (_denomination[0] != 0 && (_networkIntegerAmount > 0 || _networkFractionAmount > 0));\n\t\trequire (AOLibrary.canBuy(treasuryAddress, _stakedContent.networkAmount.add(_stakedContent.primordialAmount), _networkIntegerAmount, _networkFractionAmount, _denomination));\n\n\t\t// Increment totalPurchaseReceipts;\n\t\ttotalPurchaseReceipts++;\n\n\t\t// Generate purchaseId\n\t\tbytes32 _purchaseId = keccak256(abi.encodePacked(this, msg.sender, _contentHostId));\n\t\tPurchaseReceipt storage _purchaseReceipt = purchaseReceipts[totalPurchaseReceipts];\n\n\t\t// Make sure we don't buy the same content twice\n\t\trequire (_purchaseReceipt.buyer == address(0));\n\n\t\t_purchaseReceipt.purchaseId = _purchaseId;\n\t\t_purchaseReceipt.contentHostId = _contentHostId;\n\t\t_purchaseReceipt.buyer = msg.sender;\n\t\t// Update the receipt with the correct network amount\n\t\t_purchaseReceipt.networkAmount = _stakedContent.networkAmount.add(_stakedContent.primordialAmount);\n\t\t_purchaseReceipt.publicKey = _publicKey;\n\t\t_purchaseReceipt.publicAddress = _publicAddress;\n\t\t_purchaseReceipt.createdOnTimestamp = now;\n\n\t\tpurchaseReceiptIndex[_purchaseId] = totalPurchaseReceipts;\n\t\tbuyerPurchaseReceipts[msg.sender][_contentHostId] = _purchaseId;\n\n\t\t// Calculate content creator/host/foundation earning from this purchase and store them in escrow\n\t\trequire (_earning.calculateEarning(\n\t\t\tmsg.sender,\n\t\t\t_purchaseId,\n\t\t\t_stakedContent.networkAmount,\n\t\t\t_stakedContent.primordialAmount,\n\t\t\t_stakedContent.primordialWeightedMultiplier,\n\t\t\t_stakedContent.profitPercentage,\n\t\t\t_stakedContent.stakeOwner,\n\t\t\t_contentHost.host\n\t\t));\n\n\t\temit BuyContent(_purchaseReceipt.buyer, _purchaseReceipt.purchaseId, _purchaseReceipt.contentHostId, _purchaseReceipt.networkAmount, _purchaseReceipt.publicKey, _purchaseReceipt.publicAddress, _purchaseReceipt.createdOnTimestamp);\n\t}\n\n\t/**\n\t * @dev Return purchase receipt info at a given ID\n\t * @param _purchaseId The ID of the purchased content\n\t * @return The ID of the content host\n\t * @return address of the buyer\n\t * @return paid network amount\n\t * @return request node's public key\n\t * @return request node's public address\n\t * @return created on timestamp\n\t */\n\tfunction purchaseReceiptById(bytes32 _purchaseId) public view returns (bytes32, address, uint256, string, address, uint256) {\n\t\t// Make sure the purchase receipt exist\n\t\trequire (purchaseReceiptIndex[_purchaseId] > 0);\n\t\tPurchaseReceipt memory _purchaseReceipt = purchaseReceipts[purchaseReceiptIndex[_purchaseId]];\n\t\treturn (\n\t\t\t_purchaseReceipt.contentHostId,\n\t\t\t_purchaseReceipt.buyer,\n\t\t\t_purchaseReceipt.networkAmount,\n\t\t\t_purchaseReceipt.publicKey,\n\t\t\t_purchaseReceipt.publicAddress,\n\t\t\t_purchaseReceipt.createdOnTimestamp\n\t\t);\n\t}\n\n\t/**\n\t * @dev Request node wants to become a distribution node after buying the content\n\t *\t\tAlso, if this transaction succeeds, we release all of the earnings that are\n\t *\t\tcurrently in escrow for content creator/host/foundation\n\t */\n\tfunction becomeHost(bytes32 _purchaseId, uint8 _baseChallengeV, bytes32 _baseChallengeR, bytes32 _baseChallengeS, string _encChallenge, string _contentDatKey, string _metadataDatKey) public isActive {\n\t\t// Make sure the purchase receipt exist\n\t\trequire (purchaseReceiptIndex[_purchaseId] > 0);\n\n\t\tPurchaseReceipt memory _purchaseReceipt = purchaseReceipts[purchaseReceiptIndex[_purchaseId]];\n\t\tbytes32 _stakeId = contentHosts[contentHostIndex[_purchaseReceipt.contentHostId]].stakeId;\n\t\tbytes32 _contentId = stakedContents[stakedContentIndex[_stakeId]].contentId;\n\n\t\t// Make sure the purchase receipt owner is the same as the sender\n\t\trequire (_purchaseReceipt.buyer == msg.sender);\n\n\t\t// Verify that the file is not tampered by validating the base challenge signature\n\t\t// The signed base challenge key should match the one from content creator\n\t\tContent memory _content = contents[contentIndex[_contentId]];\n\t\trequire (AOLibrary.checkSignature(address(this), _content.baseChallenge, _baseChallengeV, _baseChallengeR, _baseChallengeS) == _purchaseReceipt.publicAddress);\n\n\t\t_hostContent(msg.sender, _stakeId, _encChallenge, _contentDatKey, _metadataDatKey);\n\n\t\t// Release earning from escrow\n\t\trequire (_earning.releaseEarning(_stakeId, _purchaseReceipt.contentHostId, _purchaseId, _purchaseReceipt.networkAmount, _content.fileSize, stakedContents[stakedContentIndex[_stakeId]].stakeOwner, contentHosts[contentHostIndex[_purchaseReceipt.contentHostId]].host));\n\t}\n\n\t/***** INTERNAL METHODS *****/\n\t/**\n\t * @dev Store the content information (content creation during staking)\n\t * @param _creator the address of the content creator\n\t * @param _baseChallenge The base challenge string (PUBLIC KEY) of the content\n\t * @param _fileSize The size of the file\n\t * @return the ID of the content\n\t */\n\tfunction _storeContent(address _creator, string _baseChallenge, uint256 _fileSize) internal returns (bytes32) {\n\t\t// Increment totalContents\n\t\ttotalContents++;\n\n\t\t// Generate contentId\n\t\tbytes32 _contentId = keccak256(abi.encodePacked(this, _creator, totalContents));\n\t\tContent storage _content = contents[totalContents];\n\n\t\t// Make sure we don't store the same content twice\n\t\trequire (_content.creator == address(0));\n\n\t\t_content.contentId = _contentId;\n\t\t_content.creator = _creator;\n\t\t_content.baseChallenge = _baseChallenge;\n\t\t_content.fileSize = _fileSize;\n\n\t\tcontentIndex[_contentId] = totalContents;\n\n\t\temit StoreContent(_content.creator, _content.contentId, _content.fileSize);\n\t\treturn _content.contentId;\n\t}\n\n\t/**\n\t * @dev Add the distribution node info that hosts the content\n\t * @param _host the address of the host\n\t * @param _stakeId The ID of the staked content\n\t * @param _encChallenge The encrypted challenge string (PUBLIC KEY) of the content unique to the host\n\t * @param _contentDatKey The dat key of the content\n\t * @param _metadataDatKey The dat key of the content's metadata\n\t */\n\tfunction _hostContent(address _host, bytes32 _stakeId, string _encChallenge, string _contentDatKey, string _metadataDatKey) internal {\n\t\trequire (bytes(_encChallenge).length > 0);\n\t\trequire (bytes(_contentDatKey).length > 0);\n\t\trequire (bytes(_metadataDatKey).length > 0);\n\t\trequire (stakedContentIndex[_stakeId] > 0);\n\n\t\t// Increment totalContentHosts\n\t\ttotalContentHosts++;\n\n\t\t// Generate contentId\n\t\tbytes32 _contentHostId = keccak256(abi.encodePacked(this, _host, _stakeId));\n\n\t\tContentHost storage _contentHost = contentHosts[totalContentHosts];\n\n\t\t// Make sure we don't host the same content twice\n\t\trequire (_contentHost.host == address(0));\n\n\t\t_contentHost.contentHostId = _contentHostId;\n\t\t_contentHost.stakeId = _stakeId;\n\t\t_contentHost.host = _host;\n\t\t_contentHost.encChallenge = _encChallenge;\n\t\t_contentHost.contentDatKey = _contentDatKey;\n\t\t_contentHost.metadataDatKey = _metadataDatKey;\n\n\t\tcontentHostIndex[_contentHostId] = totalContentHosts;\n\n\t\temit HostContent(_contentHost.host, _contentHost.contentHostId, _contentHost.stakeId, _contentHost.contentDatKey, _contentHost.metadataDatKey);\n\t}\n\n\t/**\n\t * @dev actual staking the content\n\t * @param _stakeOwner the address that stake the content\n\t * @param _contentId The ID of the content\n\t * @param _networkIntegerAmount The integer amount of network token to stake\n\t * @param _networkFractionAmount The fraction amount of network token to stake\n\t * @param _denomination The denomination of the network token, i.e ao, kilo, mega, etc.\n\t * @param _primordialAmount The amount of primordial Token to stake\n\t * @param _profitPercentage The percentage of profit the stake owner's media will charge\n\t * @param _extraData some extra information to send to the contract when staking a content\n\t * @return the newly created staked content ID\n\t */\n\tfunction _stakeContent(address _stakeOwner, bytes32 _contentId, uint256 _networkIntegerAmount, uint256 _networkFractionAmount, bytes8 _denomination, uint256 _primordialAmount, uint256 _profitPercentage, string _extraData) internal returns (bytes32) {\n\t\t// Increment totalStakedContents\n\t\ttotalStakedContents++;\n\n\t\t// Generate stakeId\n\t\tbytes32 _stakeId = keccak256(abi.encodePacked(this, _stakeOwner, _contentId));\n\t\tStakedContent storage _stakedContent = stakedContents[totalStakedContents];\n\n\t\t// Make sure we don't stake the same content twice\n\t\trequire (_stakedContent.stakeOwner == address(0));\n\n\t\t_stakedContent.stakeId = _stakeId;\n\t\t_stakedContent.contentId = _contentId;\n\t\t_stakedContent.stakeOwner = _stakeOwner;\n\t\t_stakedContent.profitPercentage = _profitPercentage;\n\t\t_stakedContent.active = true;\n\t\t_stakedContent.createdOnTimestamp = now;\n\t\t_stakedContent.extraData = _extraData;\n\n\t\tstakedContentIndex[_stakeId] = totalStakedContents;\n\n\t\tif (_denomination[0] != 0 && (_networkIntegerAmount > 0 || _networkFractionAmount > 0)) {\n\t\t\t_stakedContent.networkAmount = _treasury.toBase(_networkIntegerAmount, _networkFractionAmount, _denomination);\n\t\t\trequire (_baseAO.stakeFrom(_stakeOwner, _stakedContent.networkAmount));\n\t\t}\n\t\tif (_primordialAmount > 0) {\n\t\t\t_stakedContent.primordialAmount = _primordialAmount;\n\n\t\t\t// Primordial Token is the base AO Token\n\t\t\t_stakedContent.primordialWeightedMultiplier = _baseAO.weightedMultiplierByAddress(_stakedContent.stakeOwner);\n\t\t\trequire (_baseAO.stakePrimordialTokenFrom(_stakedContent.stakeOwner, _primordialAmount, _stakedContent.primordialWeightedMultiplier));\n\t\t}\n\n\t\temit StakeContent(_stakedContent.stakeOwner, _stakedContent.stakeId, _stakedContent.contentId, _stakedContent.networkAmount, _stakedContent.primordialAmount, _stakedContent.primordialWeightedMultiplier, _stakedContent.profitPercentage, _stakedContent.createdOnTimestamp, _stakedContent.extraData);\n\n\t\treturn _stakedContent.stakeId;\n\t}\n}\n",
	"sourcePath": "/home/jmulyono/ao-contracts/contracts/AOContent.sol",
	"compiler": {
		"name": "solc",
		"version": "0.4.24+commit.e67f0147.Emscripten.clang"
	},
	"schemaVersion": "2.0.1",
	"updatedAt": "2018-10-22T05:46:06.388Z"
}