{
  "contractName": "AOContent",
  "abi": [
    {
      "constant": true,
      "inputs": [],
      "name": "aoSettingAddress",
      "outputs": [
        {
          "name": "",
          "type": "address"
        }
      ],
      "payable": false,
      "stateMutability": "view",
      "type": "function"
    },
    {
      "constant": true,
      "inputs": [],
      "name": "totalContents",
      "outputs": [
        {
          "name": "",
          "type": "uint256"
        }
      ],
      "payable": false,
      "stateMutability": "view",
      "type": "function"
    },
    {
      "constant": true,
      "inputs": [],
      "name": "nameTAOPositionAddress",
      "outputs": [
        {
          "name": "",
          "type": "address"
        }
      ],
      "payable": false,
      "stateMutability": "view",
      "type": "function"
    },
    {
      "constant": true,
      "inputs": [
        {
          "name": "",
          "type": "address"
        }
      ],
      "name": "whitelist",
      "outputs": [
        {
          "name": "",
          "type": "bool"
        }
      ],
      "payable": false,
      "stateMutability": "view",
      "type": "function"
    },
    {
      "constant": true,
      "inputs": [],
      "name": "theAO",
      "outputs": [
        {
          "name": "",
          "type": "address"
        }
      ],
      "payable": false,
      "stateMutability": "view",
      "type": "function"
    },
    {
      "constant": true,
      "inputs": [],
      "name": "settingTAOId",
      "outputs": [
        {
          "name": "",
          "type": "address"
        }
      ],
      "payable": false,
      "stateMutability": "view",
      "type": "function"
    },
    {
      "inputs": [
        {
          "name": "_settingTAOId",
          "type": "address"
        },
        {
          "name": "_aoSettingAddress",
          "type": "address"
        },
        {
          "name": "_nameTAOPositionAddress",
          "type": "address"
        }
      ],
      "payable": false,
      "stateMutability": "nonpayable",
      "type": "constructor"
    },
    {
      "anonymous": false,
      "inputs": [
        {
          "indexed": true,
          "name": "creator",
          "type": "address"
        },
        {
          "indexed": true,
          "name": "contentId",
          "type": "bytes32"
        },
        {
          "indexed": false,
          "name": "fileSize",
          "type": "uint256"
        },
        {
          "indexed": false,
          "name": "contentUsageType",
          "type": "bytes32"
        }
      ],
      "name": "StoreContent",
      "type": "event"
    },
    {
      "anonymous": false,
      "inputs": [
        {
          "indexed": true,
          "name": "contentId",
          "type": "bytes32"
        },
        {
          "indexed": true,
          "name": "taoId",
          "type": "address"
        },
        {
          "indexed": false,
          "name": "signer",
          "type": "address"
        },
        {
          "indexed": false,
          "name": "taoContentState",
          "type": "bytes32"
        }
      ],
      "name": "UpdateTAOContentState",
      "type": "event"
    },
    {
      "anonymous": false,
      "inputs": [
        {
          "indexed": true,
          "name": "creator",
          "type": "address"
        },
        {
          "indexed": true,
          "name": "contentId",
          "type": "bytes32"
        },
        {
          "indexed": false,
          "name": "newExtraData",
          "type": "string"
        }
      ],
      "name": "SetExtraData",
      "type": "event"
    },
    {
      "constant": false,
      "inputs": [
        {
          "name": "_theAO",
          "type": "address"
        }
      ],
      "name": "transferOwnership",
      "outputs": [],
      "payable": false,
      "stateMutability": "nonpayable",
      "type": "function"
    },
    {
      "constant": false,
      "inputs": [
        {
          "name": "_account",
          "type": "address"
        },
        {
          "name": "_whitelist",
          "type": "bool"
        }
      ],
      "name": "setWhitelist",
      "outputs": [],
      "payable": false,
      "stateMutability": "nonpayable",
      "type": "function"
    },
    {
      "constant": false,
      "inputs": [
        {
          "name": "_settingTAOId",
          "type": "address"
        }
      ],
      "name": "setSettingTAOId",
      "outputs": [],
      "payable": false,
      "stateMutability": "nonpayable",
      "type": "function"
    },
    {
      "constant": false,
      "inputs": [
        {
          "name": "_aoSettingAddress",
          "type": "address"
        }
      ],
      "name": "setAOSettingAddress",
      "outputs": [],
      "payable": false,
      "stateMutability": "nonpayable",
      "type": "function"
    },
    {
      "constant": false,
      "inputs": [
        {
          "name": "_nameTAOPositionAddress",
          "type": "address"
        }
      ],
      "name": "setNameTAOPositionAddress",
      "outputs": [],
      "payable": false,
      "stateMutability": "nonpayable",
      "type": "function"
    },
    {
      "constant": false,
      "inputs": [
        {
          "name": "_creator",
          "type": "address"
        },
        {
          "name": "_baseChallenge",
          "type": "string"
        },
        {
          "name": "_fileSize",
          "type": "uint256"
        },
        {
          "name": "_contentUsageType",
          "type": "bytes32"
        },
        {
          "name": "_taoId",
          "type": "address"
        }
      ],
      "name": "create",
      "outputs": [
        {
          "name": "",
          "type": "bytes32"
        }
      ],
      "payable": false,
      "stateMutability": "nonpayable",
      "type": "function"
    },
    {
      "constant": true,
      "inputs": [
        {
          "name": "_contentId",
          "type": "bytes32"
        }
      ],
      "name": "getById",
      "outputs": [
        {
          "name": "",
          "type": "address"
        },
        {
          "name": "",
          "type": "uint256"
        },
        {
          "name": "",
          "type": "bytes32"
        },
        {
          "name": "",
          "type": "address"
        },
        {
          "name": "",
          "type": "bytes32"
        },
        {
          "name": "",
          "type": "uint8"
        },
        {
          "name": "",
          "type": "bytes32"
        },
        {
          "name": "",
          "type": "bytes32"
        },
        {
          "name": "",
          "type": "string"
        }
      ],
      "payable": false,
      "stateMutability": "view",
      "type": "function"
    },
    {
      "constant": true,
      "inputs": [
        {
          "name": "_contentId",
          "type": "bytes32"
        }
      ],
      "name": "getBaseChallenge",
      "outputs": [
        {
          "name": "",
          "type": "string"
        }
      ],
      "payable": false,
      "stateMutability": "view",
      "type": "function"
    },
    {
      "constant": false,
      "inputs": [
        {
          "name": "_contentId",
          "type": "bytes32"
        },
        {
          "name": "_taoId",
          "type": "address"
        },
        {
          "name": "_taoContentState",
          "type": "bytes32"
        },
        {
          "name": "_updateTAOContentStateV",
          "type": "uint8"
        },
        {
          "name": "_updateTAOContentStateR",
          "type": "bytes32"
        },
        {
          "name": "_updateTAOContentStateS",
          "type": "bytes32"
        }
      ],
      "name": "updateTAOContentState",
      "outputs": [],
      "payable": false,
      "stateMutability": "nonpayable",
      "type": "function"
    },
    {
      "constant": true,
      "inputs": [
        {
          "name": "_contentId",
          "type": "bytes32"
        }
      ],
      "name": "isAOContentUsageType",
      "outputs": [
        {
          "name": "",
          "type": "bool"
        }
      ],
      "payable": false,
      "stateMutability": "view",
      "type": "function"
    },
    {
      "constant": false,
      "inputs": [
        {
          "name": "_contentId",
          "type": "bytes32"
        },
        {
          "name": "_extraData",
          "type": "string"
        }
      ],
      "name": "setExtraData",
      "outputs": [],
      "payable": false,
      "stateMutability": "nonpayable",
      "type": "function"
    }
  ],
  "bytecode": "0x60806040523480156200001157600080fd5b50604051606080620025bc833981018060405260608110156200003357600080fd5b508051602082015160409092015160008054600160a060020a031916331790559091906200006a836401000000006200009b810204565b6200007e826401000000006200022e810204565b620000928164010000000062000333810204565b50505062000438565b600054600154604080517ff66afcac000000000000000000000000000000000000000000000000000000008152336004820152600160a060020a0393841660248201529290911660448301525173__AOLibrary_____________________________9163f66afcac916064808301926020929190829003018186803b1580156200012457600080fd5b505af415801562000139573d6000803e3d6000fd5b505050506040513d60208110156200015057600080fd5b505115156200015e57600080fd5b604080517f2fca5414000000000000000000000000000000000000000000000000000000008152600160a060020a0383166004820152905173__AOLibrary_____________________________91632fca5414916024808301926020929190829003018186803b158015620001d257600080fd5b505af4158015620001e7573d6000803e3d6000fd5b505050506040513d6020811015620001fe57600080fd5b505115156200020c57600080fd5b60048054600160a060020a031916600160a060020a0392909216919091179055565b600054600154604080517ff66afcac000000000000000000000000000000000000000000000000000000008152336004820152600160a060020a0393841660248201529290911660448301525173__AOLibrary_____________________________9163f66afcac916064808301926020929190829003018186803b158015620002b757600080fd5b505af4158015620002cc573d6000803e3d6000fd5b505050506040513d6020811015620002e357600080fd5b50511515620002f157600080fd5b600160a060020a03811615156200030757600080fd5b60058054600160a060020a03909216600160a060020a0319928316811790915560068054909216179055565b600054600154604080517ff66afcac000000000000000000000000000000000000000000000000000000008152336004820152600160a060020a0393841660248201529290911660448301525173__AOLibrary_____________________________9163f66afcac916064808301926020929190829003018186803b158015620003bc57600080fd5b505af4158015620003d1573d6000803e3d6000fd5b505050506040513d6020811015620003e857600080fd5b50511515620003f657600080fd5b600160a060020a03811615156200040c57600080fd5b60018054600160a060020a03909216600160a060020a0319928316811790915560078054909216179055565b61217480620004486000396000f3fe608060405234801561001057600080fd5b5060043610610128576000357c0100000000000000000000000000000000000000000000000000000000900480635cfaf2ef116100bf578063a9b6b38e1161008e578063a9b6b38e146104c3578063d0d9ca52146104cb578063d6830af314610560578063e7c5018514610586578063f2fde38b1461058e57610128565b80635cfaf2ef146103ff57806365cf0ace1461042557806383b01a83146104565780639b19251a1461049d57610128565b80633486d8f6116100fb5780633486d8f61461031d5780633848627b146103af5780634ef033f0146103c957806353d6fd59146103d157610128565b806306fd70881461012d5780631d0138ff146101555780632d189a62146101795780632dff0d0d14610226575b600080fd5b6101536004803603602081101561014357600080fd5b5035600160a060020a03166105b4565b005b61015d6106ab565b60408051600160a060020a039092168252519081900360200190f35b6101536004803603604081101561018f57600080fd5b813591908101906040810160208201356401000000008111156101b157600080fd5b8201836020820111156101c357600080fd5b803590602001918460018302840111640100000000831117156101e557600080fd5b91908080601f0160208091040260200160405190810160405280939291908181526020018383808284376000920191909152509295506106ba945050505050565b6102436004803603602081101561023c57600080fd5b50356107e8565b604051808a600160a060020a0316600160a060020a0316815260200189815260200188815260200187600160a060020a0316600160a060020a031681526020018681526020018560ff1660ff16815260200184815260200183815260200180602001828103825283818151815260200191508051906020019080838360005b838110156102da5781810151838201526020016102c2565b50505050905090810190601f1680156103075780820380516001836020036101000a031916815260200191505b509a505050505050505050505060405180910390f35b61033a6004803603602081101561033357600080fd5b5035610a2f565b6040805160208082528351818301528351919283929083019185019080838360005b8381101561037457818101518382015260200161035c565b50505050905090810190601f1680156103a15780820380516001836020036101000a031916815260200191505b509250505060405180910390f35b6103b7610c55565b60408051918252519081900360200190f35b61015d610c5b565b610153600480360360408110156103e757600080fd5b50600160a060020a0381351690602001351515610c6a565b6101536004803603602081101561041557600080fd5b5035600160a060020a0316610d53565b6104426004803603602081101561043b57600080fd5b5035610e4a565b604080519115158252519081900360200190f35b610153600480360360c081101561046c57600080fd5b50803590600160a060020a036020820135169060408101359060ff6060820135169060808101359060a00135610e9d565b610442600480360360208110156104b357600080fd5b5035600160a060020a0316611115565b61015d61112a565b6103b7600480360360a08110156104e157600080fd5b600160a060020a03823516919081019060408101602082013564010000000081111561050c57600080fd5b82018360208201111561051e57600080fd5b8035906020019184600183028401116401000000008311171561054057600080fd5b919350915080359060208101359060400135600160a060020a0316611139565b6101536004803603602081101561057657600080fd5b5035600160a060020a0316611344565b61015d6114c6565b610153600480360360208110156105a457600080fd5b5035600160a060020a03166114d5565b6000546001546040805160e260020a633d9abf2b028152336004820152600160a060020a0393841660248201529290911660448301525173__AOLibrary_____________________________9163f66afcac916064808301926020929190829003018186803b15801561062657600080fd5b505af415801561063a573d6000803e3d6000fd5b505050506040513d602081101561065057600080fd5b5051151561065d57600080fd5b600160a060020a038116151561067257600080fd5b60058054600160a060020a0390921673ffffffffffffffffffffffffffffffffffffffff19928316811790915560068054909216179055565b600554600160a060020a031681565b600082815260096020526040812054116106d357600080fd5b6000828152600960209081526040808320548352600890915290206001810154600160a060020a0316331461070757600080fd5b815161071c90600a8301906020850190611fe4565b508054600180830154604080516020808252600a8701805460026000199782161561010002979097011695909504908201819052600160a060020a03909316937fccfac2e5e45c8af339b83af022e2d6072564ca42a312b0511d9fd022ebb2fdf7939092829190820190849080156107d55780601f106107aa576101008083540402835291602001916107d5565b820191906000526020600020905b8154815290600101906020018083116107b857829003601f168201915b50509250505060405180910390a3505050565b60008060008060008060008060606000600960008c81526020019081526020016000205411151561081857600080fd5b610820612062565b60008b8152600960209081526040808320548352600882529182902082516101608101845281548152600180830154600160a060020a0316828501526002808401805487516101009482161594909402600019011691909104601f810186900486028301860187528083529295939493860193919290918301828280156108e85780601f106108bd576101008083540402835291602001916108e8565b820191906000526020600020905b8154815290600101906020018083116108cb57829003601f168201915b5050509183525050600382015460208083019190915260048301546040808401919091526005840154600160a060020a0316606084015260068401546080840152600784015460ff1660a0840152600884015460c0840152600984015460e0840152600a8401805482516002610100600184161581026000190190931604601f8101869004860282018601909452838152940193929091908301828280156109d15780601f106109a6576101008083540402835291602001916109d1565b820191906000526020600020905b8154815290600101906020018083116109b457829003601f168201915b50505050508152505090508060200151816060015182608001518360a001518460c001518560e00151866101000151876101200151886101400151809050995099509950995099509950995099509950509193959799909294969850565b60008181526009602052604081205460609110610a4b57600080fd5b610a53612062565b6000838152600960209081526040808320548352600882529182902082516101608101845281548152600180830154600160a060020a0316828501526002808401805487516101009482161594909402600019011691909104601f81018690048602830186018752808352929593949386019391929091830182828015610b1b5780601f10610af057610100808354040283529160200191610b1b565b820191906000526020600020905b815481529060010190602001808311610afe57829003601f168201915b5050509183525050600382015460208083019190915260048301546040808401919091526005840154600160a060020a0316606084015260068401546080840152600784015460ff1660a0840152600884015460c0840152600984015460e0840152600a8401805482516002610100600184161581026000190190931604601f810186900486028201860190945283815294019392909190830182828015610c045780601f10610bd957610100808354040283529160200191610c04565b820191906000526020600020905b815481529060010190602001808311610be757829003601f168201915b505050919092525050336000908152600260205260409020549192505060ff16151560011480610c4057506020810151600160a060020a031633145b1515610c4b57600080fd5b6040015192915050565b60035481565b600154600160a060020a031681565b6000546001546040805160e260020a633d9abf2b028152336004820152600160a060020a0393841660248201529290911660448301525173__AOLibrary_____________________________9163f66afcac916064808301926020929190829003018186803b158015610cdc57600080fd5b505af4158015610cf0573d6000803e3d6000fd5b505050506040513d6020811015610d0657600080fd5b50511515610d1357600080fd5b600160a060020a0382161515610d2857600080fd5b600160a060020a03919091166000908152600260205260409020805460ff1916911515919091179055565b6000546001546040805160e260020a633d9abf2b028152336004820152600160a060020a0393841660248201529290911660448301525173__AOLibrary_____________________________9163f66afcac916064808301926020929190829003018186803b158015610dc557600080fd5b505af4158015610dd9573d6000803e3d6000fd5b505050506040513d6020811015610def57600080fd5b50511515610dfc57600080fd5b600160a060020a0381161515610e1157600080fd5b60018054600160a060020a0390921673ffffffffffffffffffffffffffffffffffffffff19928316811790915560078054909216179055565b6000818152600960205260408120548110610e6457600080fd5b6000610e6e6115c2565b505050600086815260096020908152604080832054835260089091529020600401549092149350505050919050565b60008681526009602052604081205411610eb657600080fd5b604080517f2fca5414000000000000000000000000000000000000000000000000000000008152600160a060020a0387166004820152905173__AOLibrary_____________________________91632fca5414916024808301926020929190829003018186803b158015610f2957600080fd5b505af4158015610f3d573d6000803e3d6000fd5b505050506040513d6020811015610f5357600080fd5b50511515610f6057600080fd5b600080600080610f6e6115c2565b9550955095509550505082881480610f8557508188145b80610f8f57508088145b1515610f9a57600080fd5b6000610faa8b8b8b8b8b8b611d3f565b60008c815260096020908152604080832054835260089091529020909150600160a060020a0382163314801561107b57506007546005820154604080517fe2c8e54a000000000000000000000000000000000000000000000000000000008152600160a060020a03868116600483015292831660248201529051919092169163e2c8e54a916044808301926020929190829003018186803b15801561104e57600080fd5b505afa158015611062573d6000803e3d6000fd5b505050506040513d602081101561107857600080fd5b50515b151561108657600080fd5b6004810154861461109657600080fd5b600681018a905560078101805460ff191660ff8b16179055600881018890556009810187905560408051600160a060020a038481168252602082018d90528251908e16928f927f0528e12829f4904634dd7bd06309457b4867ebd8bdf33ae6a8f6092a9a9461b9929081900390910190a3505050505050505050505050565b60026020526000908152604090205460ff1681565b600054600160a060020a031681565b3360009081526002602052604081205460ff16151560011461115a57600080fd5b61119f8787878080601f016020809104026020016040519081016040528093929190818152602001838380828437600092019190915250899250889150879050611e0a565b15156111aa57600080fd5b60038054600190810191829055604080516c01000000000000000000000000308102602080840191909152600160a060020a03808e16909202603484015260488084018790528451808503909101815260689093018452825192810192909220600095865260089092529190932091820154161561122757600080fd5b6000806112326115c2565b50509350935050508383600001819055508a8360010160006101000a815481600160a060020a030219169083600160a060020a03160217905550898984600201919061127f9291906120bd565b506003830188905560048301879055818714156112c8576006830181905560058301805473ffffffffffffffffffffffffffffffffffffffff1916600160a060020a0388161790555b60038054600086815260096020908152604091829020929092558554600187015493870154600488015483519182529381019390935281519093600160a060020a0316927fe57c42bf3a4425cef2daf5daea09e512a58183eac320e1480456a511a6afe7cd92908290030190a350505498975050505050505050565b6000546001546040805160e260020a633d9abf2b028152336004820152600160a060020a0393841660248201529290911660448301525173__AOLibrary_____________________________9163f66afcac916064808301926020929190829003018186803b1580156113b657600080fd5b505af41580156113ca573d6000803e3d6000fd5b505050506040513d60208110156113e057600080fd5b505115156113ed57600080fd5b604080517f2fca5414000000000000000000000000000000000000000000000000000000008152600160a060020a0383166004820152905173__AOLibrary_____________________________91632fca5414916024808301926020929190829003018186803b15801561146057600080fd5b505af4158015611474573d6000803e3d6000fd5b505050506040513d602081101561148a57600080fd5b5051151561149757600080fd5b6004805473ffffffffffffffffffffffffffffffffffffffff1916600160a060020a0392909216919091179055565b600454600160a060020a031681565b6000546001546040805160e260020a633d9abf2b028152336004820152600160a060020a0393841660248201529290911660448301525173__AOLibrary_____________________________9163f66afcac916064808301926020929190829003018186803b15801561154757600080fd5b505af415801561155b573d6000803e3d6000fd5b505050506040513d602081101561157157600080fd5b5051151561157e57600080fd5b600160a060020a038116151561159357600080fd5b6000805473ffffffffffffffffffffffffffffffffffffffff1916600160a060020a0392909216919091179055565b600654600480546040805160e260020a631c196fb7028152600160a060020a039283169381019390935260248301819052601a60448401527f636f6e74656e745573616765547970655f616f436f6e74656e7400000000000060648401525160009384938493849384938493849390911691637065bedc916084808201928692909190829003018186803b15801561165957600080fd5b505afa15801561166d573d6000803e3d6000fd5b505050506040513d6000823e601f3d908101601f1916820160405260a081101561169657600080fd5b8151602083015160408401516060850151608086018051949693959294919392830192916401000000008111156116cc57600080fd5b820160208101848111156116df57600080fd5b81516401000000008111828201871017156116f957600080fd5b5050600654600480546040805160e260020a631c196fb7028152600160a060020a039283169381019390935260248301819052602060448401527f636f6e74656e745573616765547970655f6372656174697665436f6d6d6f6e73606484015251979b5060009a509091169750637065bedc96506084808201968a965094509084900301915082905086803b15801561179157600080fd5b505afa1580156117a5573d6000803e3d6000fd5b505050506040513d6000823e601f3d908101601f1916820160405260a08110156117ce57600080fd5b81516020830151604084015160608501516080860180519496939592949193928301929164010000000081111561180457600080fd5b8201602081018481111561181757600080fd5b815164010000000081118282018710171561183157600080fd5b5050600654600480546040805160e260020a631c196fb7028152600160a060020a039283169381019390935260248301819052601b60448401527f636f6e74656e745573616765547970655f74616f436f6e74656e740000000000606484015251979b5060009a509091169750637065bedc96506084808201968a965094509084900301915082905086803b1580156118c957600080fd5b505afa1580156118dd573d6000803e3d6000fd5b505050506040513d6000823e601f3d908101601f1916820160405260a081101561190657600080fd5b81516020830151604084015160608501516080860180519496939592949193928301929164010000000081111561193c57600080fd5b8201602081018481111561194f57600080fd5b815164010000000081118282018710171561196957600080fd5b5050600654600480546040805160e260020a631c196fb7028152600160a060020a039283169381019390935260248301819052601960448401527f74616f436f6e74656e7453746174655f7375626d697474656400000000000000606484015251979b5060009a509091169750637065bedc96506084808201968a965094509084900301915082905086803b158015611a0157600080fd5b505afa158015611a15573d6000803e3d6000fd5b505050506040513d6000823e601f3d908101601f1916820160405260a0811015611a3e57600080fd5b815160208301516040840151606085015160808601805194969395929491939283019291640100000000811115611a7457600080fd5b82016020810184811115611a8757600080fd5b8151640100000000811182820187101715611aa157600080fd5b5050600654600480546040805160e260020a631c196fb7028152600160a060020a039283169381019390935260248301819052601d60448401527f74616f436f6e74656e7453746174655f70656e64696e67526576696577000000606484015251979b5060009a509091169750637065bedc96506084808201968a965094509084900301915082905086803b158015611b3957600080fd5b505afa158015611b4d573d6000803e3d6000fd5b505050506040513d6000823e601f3d908101601f1916820160405260a0811015611b7657600080fd5b815160208301516040840151606085015160808601805194969395929491939283019291640100000000811115611bac57600080fd5b82016020810184811115611bbf57600080fd5b8151640100000000811182820187101715611bd957600080fd5b5050600654600480546040805160e260020a631c196fb7028152600160a060020a039283169381019390935260248301819052601d60448401527f74616f436f6e74656e7453746174655f6163636570746564546f54414f000000606484015251979b5060009a509091169750637065bedc96506084808201968a965094509084900301915082905086803b158015611c7157600080fd5b505afa158015611c85573d6000803e3d6000fd5b505050506040513d6000823e601f3d908101601f1916820160405260a0811015611cae57600080fd5b815160208301516040840151606085015160808601805194969395929491939283019291640100000000811115611ce457600080fd5b82016020810184811115611cf757600080fd5b8151640100000000811182820187101715611d1157600080fd5b50509291905050505093505050508585858585859b509b509b509b509b509b50505050505050909192939495565b604080516c01000000000000000000000000308102602080840191909152603483018a9052600160a060020a03891690910260548301526068808301889052835180840390910181526088830180855281519183019190912060009182905260a8840180865281905260ff881660c885015260e8840187905261010884018690529351909392600192610128808301939192601f198301929081900390910190855afa158015611df3573d6000803e3d6000fd5b5050604051601f1901519998505050505050505050565b600080600080611e186115c2565b5093965091945092505050600160a060020a03891615801590611e3c575060008851115b8015611e485750600087115b8015611e66575082861480611e5c57508186145b80611e6657508086145b8015611fd757508086141580611fd757508086148015611e8e5750600160a060020a03851615155b8015611f355750604080517f2fca5414000000000000000000000000000000000000000000000000000000008152600160a060020a0387166004820152905173__AOLibrary_____________________________91632fca5414916024808301926020929190829003018186803b158015611f0857600080fd5b505af4158015611f1c573d6000803e3d6000fd5b505050506040513d6020811015611f3257600080fd5b50515b8015611fd75750600754604080517fe2c8e54a000000000000000000000000000000000000000000000000000000008152600160a060020a038c8116600483015288811660248301529151919092169163e2c8e54a916044808301926020929190829003018186803b158015611faa57600080fd5b505afa158015611fbe573d6000803e3d6000fd5b505050506040513d6020811015611fd457600080fd5b50515b9998505050505050505050565b828054600181600116156101000203166002900490600052602060002090601f016020900481019282601f1061202557805160ff1916838001178555612052565b82800160010185558215612052579182015b82811115612052578251825591602001919060010190612037565b5061205e92915061212b565b5090565b604080516101608101825260008082526020820181905260609282018390528282018190526080820181905260a0820181905260c0820181905260e08201819052610100820181905261012082015261014081019190915290565b828054600181600116156101000203166002900490600052602060002090601f016020900481019282601f106120fe5782800160ff19823516178555612052565b82800160010185558215612052579182015b82811115612052578235825591602001919060010190612110565b61214591905b8082111561205e5760008155600101612131565b9056fea165627a7a723058203f120946258ebb9656e1c9425bdfad8f1113c20a98f849868d88e14b068fc0ba0029",
  "source": "pragma solidity ^0.5.4;\n\nimport './AOLibrary.sol';\nimport './TheAO.sol';\nimport './IAOContent.sol';\nimport './IAOSetting.sol';\nimport './INameTAOPosition.sol';\n\n/**\n * @title AOContent\n */\ncontract AOContent is TheAO, IAOContent {\n\tuint256 public totalContents;\n\taddress public settingTAOId;\n\taddress public aoSettingAddress;\n\n\tIAOSetting internal _aoSetting;\n\tINameTAOPosition internal _nameTAOPosition;\n\n\tstruct Content {\n\t\tbytes32 contentId;\n\t\taddress creator;\n\t\t/**\n\t\t * baseChallenge is the content's PUBLIC KEY\n\t\t * When a request node wants to be a host, it is required to send a signed base challenge (its content's PUBLIC KEY)\n\t\t * so that the contract can verify the authenticity of the content by comparing what the contract has and what the request node\n\t\t * submit\n\t\t */\n\t\tstring baseChallenge;\n\t\tuint256 fileSize;\n\t\tbytes32 contentUsageType; // i.e AO Content, Creative Commons, or T(AO) Content\n\t\taddress taoId;\n\t\tbytes32 taoContentState; // i.e Submitted, Pending Review, Accepted to TAO\n\t\tuint8 updateTAOContentStateV;\n\t\tbytes32 updateTAOContentStateR;\n\t\tbytes32 updateTAOContentStateS;\n\t\tstring extraData;\n\t}\n\n\t// Mapping from Content index to the Content object\n\tmapping (uint256 => Content) internal contents;\n\n\t// Mapping from content ID to index of the contents list\n\tmapping (bytes32 => uint256) internal contentIndex;\n\n\t// Event to be broadcasted to public when `content` is stored\n\tevent StoreContent(address indexed creator, bytes32 indexed contentId, uint256 fileSize, bytes32 contentUsageType);\n\n\t// Event to be broadcasted to public when Advocate/Listener/Speaker wants to update the TAO Content's State\n\tevent UpdateTAOContentState(bytes32 indexed contentId, address indexed taoId, address signer, bytes32 taoContentState);\n\n\t// Event to be broadcasted to public when content creator updates the content's extra data\n\tevent SetExtraData(address indexed creator, bytes32 indexed contentId, string newExtraData);\n\n\t/**\n\t * @dev Constructor function\n\t * @param _settingTAOId The TAO ID that controls the setting\n\t * @param _aoSettingAddress The address of AOSetting\n\t * @param _nameTAOPositionAddress The address of NameTAOPosition\n\t */\n\tconstructor(address _settingTAOId, address _aoSettingAddress, address _nameTAOPositionAddress) public {\n\t\tsetSettingTAOId(_settingTAOId);\n\t\tsetAOSettingAddress(_aoSettingAddress);\n\t\tsetNameTAOPositionAddress(_nameTAOPositionAddress);\n\t}\n\n\t/**\n\t * @dev Checks if the calling contract address is The AO\n\t *\t\tOR\n\t *\t\tIf The AO is set to a Name/TAO, then check if calling address is the Advocate\n\t */\n\tmodifier onlyTheAO {\n\t\trequire (AOLibrary.isTheAO(msg.sender, theAO, nameTAOPositionAddress));\n\t\t_;\n\t}\n\n\t/***** The AO ONLY METHODS *****/\n\t/**\n\t * @dev Transfer ownership of The AO to new address\n\t * @param _theAO The new address to be transferred\n\t */\n\tfunction transferOwnership(address _theAO) public onlyTheAO {\n\t\trequire (_theAO != address(0));\n\t\ttheAO = _theAO;\n\t}\n\n\t/**\n\t * @dev Whitelist `_account` address to transact on behalf of others\n\t * @param _account The address to whitelist\n\t * @param _whitelist Either to whitelist or not\n\t */\n\tfunction setWhitelist(address _account, bool _whitelist) public onlyTheAO {\n\t\trequire (_account != address(0));\n\t\twhitelist[_account] = _whitelist;\n\t}\n\n\t/**\n\t * @dev The AO sets setting TAO ID\n\t * @param _settingTAOId The new setting TAO ID to set\n\t */\n\tfunction setSettingTAOId(address _settingTAOId) public onlyTheAO {\n\t\trequire (AOLibrary.isTAO(_settingTAOId));\n\t\tsettingTAOId = _settingTAOId;\n\t}\n\n\t/**\n\t * @dev The AO sets AO Setting address\n\t * @param _aoSettingAddress The address of AOSetting\n\t */\n\tfunction setAOSettingAddress(address _aoSettingAddress) public onlyTheAO {\n\t\trequire (_aoSettingAddress != address(0));\n\t\taoSettingAddress = _aoSettingAddress;\n\t\t_aoSetting = IAOSetting(_aoSettingAddress);\n\t}\n\n\t/**\n\t * @dev The AO sets NameTAOPosition address\n\t * @param _nameTAOPositionAddress The address of NameTAOPosition\n\t */\n\tfunction setNameTAOPositionAddress(address _nameTAOPositionAddress) public onlyTheAO {\n\t\trequire (_nameTAOPositionAddress != address(0));\n\t\tnameTAOPositionAddress = _nameTAOPositionAddress;\n\t\t_nameTAOPosition = INameTAOPosition(_nameTAOPositionAddress);\n\t}\n\n\t/***** PUBLIC METHODS *****/\n\t/**\n\t * @dev Store the content information (content creation during staking)\n\t * @param _creator the address of the content creator\n\t * @param _baseChallenge The base challenge string (PUBLIC KEY) of the content\n\t * @param _fileSize The size of the file\n\t * @param _contentUsageType The content usage type, i.e AO Content, Creative Commons, or T(AO) Content\n\t * @param _taoId The TAO (TAO) ID for this content (if this is a T(AO) Content)\n\t * @return the ID of the content\n\t */\n\tfunction create(address _creator,\n\t\tstring calldata _baseChallenge,\n\t\tuint256 _fileSize,\n\t\tbytes32 _contentUsageType,\n\t\taddress _taoId\n\t\t) external inWhitelist returns (bytes32) {\n\t\trequire (_canCreate(_creator, _baseChallenge, _fileSize, _contentUsageType, _taoId));\n\n\t\t// Increment totalContents\n\t\ttotalContents++;\n\n\t\t// Generate contentId\n\t\tbytes32 _contentId = keccak256(abi.encodePacked(this, _creator, totalContents));\n\t\tContent storage _content = contents[totalContents];\n\n\t\t// Make sure the node does't store the same content twice\n\t\trequire (_content.creator == address(0));\n\n\t\t(,,bytes32 contentUsageType_taoContent, bytes32 taoContentState_submitted,,) = _getSettingVariables();\n\n\t\t_content.contentId = _contentId;\n\t\t_content.creator = _creator;\n\t\t_content.baseChallenge = _baseChallenge;\n\t\t_content.fileSize = _fileSize;\n\t\t_content.contentUsageType = _contentUsageType;\n\n\t\t// If this is a TAO Content\n\t\tif (_contentUsageType == contentUsageType_taoContent) {\n\t\t\t_content.taoContentState = taoContentState_submitted;\n\t\t\t_content.taoId = _taoId;\n\t\t}\n\n\t\tcontentIndex[_contentId] = totalContents;\n\n\t\temit StoreContent(_content.creator, _content.contentId, _content.fileSize, _content.contentUsageType);\n\t\treturn _content.contentId;\n\t}\n\n\t/**\n\t * @dev Return content info at a given ID\n\t * @param _contentId The ID of the content\n\t * @return address of the creator\n\t * @return file size of the content\n\t * @return the content usage type, i.e AO Content, Creative Commons, or T(AO) Content\n\t * @return The TAO ID for this content (if this is a T(AO) Content)\n\t * @return The TAO Content state, i.e Submitted, Pending Review, or Accepted to TAO\n\t * @return The V part of signature that is used to update the TAO Content State\n\t * @return The R part of signature that is used to update the TAO Content State\n\t * @return The S part of signature that is used to update the TAO Content State\n\t * @return the extra information sent to the contract when creating a content\n\t */\n\tfunction getById(bytes32 _contentId) external view returns (address, uint256, bytes32, address, bytes32, uint8, bytes32, bytes32, string memory) {\n\t\t// Make sure the content exist\n\t\trequire (contentIndex[_contentId] > 0);\n\t\tContent memory _content = contents[contentIndex[_contentId]];\n\t\treturn (\n\t\t\t_content.creator,\n\t\t\t_content.fileSize,\n\t\t\t_content.contentUsageType,\n\t\t\t_content.taoId,\n\t\t\t_content.taoContentState,\n\t\t\t_content.updateTAOContentStateV,\n\t\t\t_content.updateTAOContentStateR,\n\t\t\t_content.updateTAOContentStateS,\n\t\t\t_content.extraData\n\t\t);\n\t}\n\n\t/**\n\t * @dev Get content base challenge\n\t * @param _contentId The ID of the content\n\t * @return the base challenge\n\t */\n\tfunction getBaseChallenge(bytes32 _contentId) external view returns (string memory) {\n\t\t// Make sure the content exist\n\t\trequire (contentIndex[_contentId] > 0);\n\t\tContent memory _content = contents[contentIndex[_contentId]];\n\t\trequire (whitelist[msg.sender] == true || _content.creator == msg.sender);\n\t\treturn _content.baseChallenge;\n\t}\n\n\t/**\n\t * @dev Update the TAO Content State of a T(AO) Content\n\t * @param _contentId The ID of the Content\n\t * @param _taoId The ID of the TAO that initiates the update\n\t * @param _taoContentState The TAO Content state value, i.e Submitted, Pending Review, or Accepted to TAO\n\t * @param _updateTAOContentStateV The V part of the signature for this update\n\t * @param _updateTAOContentStateR The R part of the signature for this update\n\t * @param _updateTAOContentStateS The S part of the signature for this update\n\t */\n\tfunction updateTAOContentState(\n\t\tbytes32 _contentId,\n\t\taddress _taoId,\n\t\tbytes32 _taoContentState,\n\t\tuint8 _updateTAOContentStateV,\n\t\tbytes32 _updateTAOContentStateR,\n\t\tbytes32 _updateTAOContentStateS\n\t) public {\n\t\t// Make sure the content exist\n\t\trequire (contentIndex[_contentId] > 0);\n\t\trequire (AOLibrary.isTAO(_taoId));\n\t\t(,, bytes32 _contentUsageType_taoContent, bytes32 taoContentState_submitted, bytes32 taoContentState_pendingReview, bytes32 taoContentState_acceptedToTAO) = _getSettingVariables();\n\t\trequire (_taoContentState == taoContentState_submitted || _taoContentState == taoContentState_pendingReview || _taoContentState == taoContentState_acceptedToTAO);\n\n\t\taddress _signatureAddress = _getUpdateTAOContentStateSignatureAddress(_contentId, _taoId, _taoContentState, _updateTAOContentStateV, _updateTAOContentStateR, _updateTAOContentStateS);\n\n\t\tContent storage _content = contents[contentIndex[_contentId]];\n\t\t// Make sure that the signature address is one of content's TAO ID's Advocate/Listener/Speaker\n\t\trequire (_signatureAddress == msg.sender && _nameTAOPosition.senderIsPosition(_signatureAddress, _content.taoId));\n\t\trequire (_content.contentUsageType == _contentUsageType_taoContent);\n\n\t\t_content.taoContentState = _taoContentState;\n\t\t_content.updateTAOContentStateV = _updateTAOContentStateV;\n\t\t_content.updateTAOContentStateR = _updateTAOContentStateR;\n\t\t_content.updateTAOContentStateS = _updateTAOContentStateS;\n\n\t\temit UpdateTAOContentState(_contentId, _taoId, _signatureAddress, _taoContentState);\n\t}\n\n\t/**\n\t * @dev Check whether or not the content is of AO Content Usage Type\n\t * @param _contentId The ID of the content\n\t * @return true if yes. false otherwise\n\t */\n\tfunction isAOContentUsageType(bytes32 _contentId) external view returns (bool) {\n\t\trequire (contentIndex[_contentId] > 0);\n\t\t(bytes32 _contentUsageType_aoContent,,,,,) = _getSettingVariables();\n\t\treturn contents[contentIndex[_contentId]].contentUsageType == _contentUsageType_aoContent;\n\t}\n\n\t/**\n\t * @dev Set extra data on existing content\n\t * @param _contentId The ID of the content\n\t * @param _extraData some extra information to send to the contract for a content\n\t */\n\tfunction setExtraData(bytes32 _contentId, string memory _extraData) public {\n\t\t// Make sure the content exist\n\t\trequire (contentIndex[_contentId] > 0);\n\n\t\tContent storage _content = contents[contentIndex[_contentId]];\n\t\t// Make sure the content creator is the same as the sender\n\t\trequire (_content.creator == msg.sender);\n\n\t\t_content.extraData = _extraData;\n\n\t\temit SetExtraData(_content.creator, _content.contentId, _content.extraData);\n\t}\n\n\t/***** INTERNAL METHODS *****/\n\t/**\n\t * @dev Checks if create params are valid\n\t * @param _creator the address of the content creator\n\t * @param _baseChallenge The base challenge string (PUBLIC KEY) of the content\n\t * @param _fileSize The size of the file\n\t * @param _contentUsageType The content usage type, i.e AO Content, Creative Commons, or T(AO) Content\n\t * @param _taoId The TAO (TAO) ID for this content (if this is a T(AO) Content)\n\t * @return true if yes. false otherwise\n\t */\n\tfunction _canCreate(address _creator, string memory _baseChallenge, uint256 _fileSize, bytes32 _contentUsageType, address _taoId) internal view returns (bool) {\n\t\t(bytes32 aoContent, bytes32 creativeCommons, bytes32 taoContent,,,) = _getSettingVariables();\n\t\treturn (_creator != address(0) &&\n\t\t\tbytes(_baseChallenge).length > 0 &&\n\t\t\t_fileSize > 0 &&\n\t\t\t(_contentUsageType == aoContent || _contentUsageType == creativeCommons || _contentUsageType == taoContent) &&\n\t\t\t(\n\t\t\t\t_contentUsageType != taoContent ||\n\t\t\t\t(_contentUsageType == taoContent && _taoId != address(0) && AOLibrary.isTAO(_taoId) && _nameTAOPosition.senderIsPosition(_creator, _taoId))\n\t\t\t)\n\t\t);\n\t}\n\n\t/**\n\t * @dev Get setting variables\n\t * @return contentUsageType_aoContent Content Usage Type = AO Content\n\t * @return contentUsageType_creativeCommons Content Usage Type = Creative Commons\n\t * @return contentUsageType_taoContent Content Usage Type = T(AO) Content\n\t * @return taoContentState_submitted TAO Content State = Submitted\n\t * @return taoContentState_pendingReview TAO Content State = Pending Review\n\t * @return taoContentState_acceptedToTAO TAO Content State = Accepted to TAO\n\t */\n\tfunction _getSettingVariables() internal view returns (bytes32, bytes32, bytes32, bytes32, bytes32, bytes32) {\n\t\t(,,,bytes32 contentUsageType_aoContent,) = _aoSetting.getSettingValuesByTAOName(settingTAOId, 'contentUsageType_aoContent');\n\t\t(,,,bytes32 contentUsageType_creativeCommons,) = _aoSetting.getSettingValuesByTAOName(settingTAOId, 'contentUsageType_creativeCommons');\n\t\t(,,,bytes32 contentUsageType_taoContent,) = _aoSetting.getSettingValuesByTAOName(settingTAOId, 'contentUsageType_taoContent');\n\t\t(,,,bytes32 taoContentState_submitted,) = _aoSetting.getSettingValuesByTAOName(settingTAOId, 'taoContentState_submitted');\n\t\t(,,,bytes32 taoContentState_pendingReview,) = _aoSetting.getSettingValuesByTAOName(settingTAOId, 'taoContentState_pendingReview');\n\t\t(,,,bytes32 taoContentState_acceptedToTAO,) = _aoSetting.getSettingValuesByTAOName(settingTAOId, 'taoContentState_acceptedToTAO');\n\n\t\treturn (\n\t\t\tcontentUsageType_aoContent,\n\t\t\tcontentUsageType_creativeCommons,\n\t\t\tcontentUsageType_taoContent,\n\t\t\ttaoContentState_submitted,\n\t\t\ttaoContentState_pendingReview,\n\t\t\ttaoContentState_acceptedToTAO\n\t\t);\n\t}\n\n\t/**\n\t * @dev Return the address that signed the TAO content state update\n\t * @param _contentId the ID of the content\n\t * @param _taoId the ID of the TAO\n\t * @param _taoContentState the TAO Content State value, i.e Submitted, Pending Review, or Accepted to TAO\n\t * @param _v part of the signature\n\t * @param _r part of the signature\n\t * @param _s part of the signature\n\t * @return the address that signed the message\n\t */\n\tfunction _getUpdateTAOContentStateSignatureAddress(bytes32 _contentId, address _taoId, bytes32 _taoContentState, uint8 _v, bytes32 _r, bytes32 _s) internal view returns (address) {\n\t\tbytes32 _hash = keccak256(abi.encodePacked(address(this), _contentId, _taoId, _taoContentState));\n\t\treturn ecrecover(_hash, _v, _r, _s);\n\t}\n}\n",
  "sourcePath": "/usr/local/ao-contracts/contracts/AOContent.sol",
  "compiler": {
    "name": "solc",
    "version": "0.5.4+commit.9549d8ff.Emscripten.clang"
  },
  "schemaVersion": "3.0.2",
  "updatedAt": "2019-03-21T02:41:21.231Z",
  "devdoc": {
    "methods": {
      "constructor": {
        "details": "Constructor function",
        "params": {
          "_aoSettingAddress": "The address of AOSetting",
          "_nameTAOPositionAddress": "The address of NameTAOPosition",
          "_settingTAOId": "The TAO ID that controls the setting"
        }
      },
      "create(address,string,uint256,bytes32,address)": {
        "details": "Store the content information (content creation during staking)",
        "params": {
          "_baseChallenge": "The base challenge string (PUBLIC KEY) of the content",
          "_contentUsageType": "The content usage type, i.e AO Content, Creative Commons, or T(AO) Content",
          "_creator": "the address of the content creator",
          "_fileSize": "The size of the file",
          "_taoId": "The TAO (TAO) ID for this content (if this is a T(AO) Content)"
        },
        "return": "the ID of the content"
      },
      "getBaseChallenge(bytes32)": {
        "details": "Get content base challenge",
        "params": {
          "_contentId": "The ID of the content"
        },
        "return": "the base challenge"
      },
      "getById(bytes32)": {
        "details": "Return content info at a given ID",
        "params": {
          "_contentId": "The ID of the content"
        },
        "return": "address of the creatorfile size of the contentthe content usage type, i.e AO Content, Creative Commons, or T(AO) ContentThe TAO ID for this content (if this is a T(AO) Content)The TAO Content state, i.e Submitted, Pending Review, or Accepted to TAOThe V part of signature that is used to update the TAO Content StateThe R part of signature that is used to update the TAO Content StateThe S part of signature that is used to update the TAO Content Statethe extra information sent to the contract when creating a content"
      },
      "isAOContentUsageType(bytes32)": {
        "details": "Check whether or not the content is of AO Content Usage Type",
        "params": {
          "_contentId": "The ID of the content"
        },
        "return": "true if yes. false otherwise"
      },
      "setAOSettingAddress(address)": {
        "details": "The AO sets AO Setting address",
        "params": {
          "_aoSettingAddress": "The address of AOSetting"
        }
      },
      "setExtraData(bytes32,string)": {
        "details": "Set extra data on existing content",
        "params": {
          "_contentId": "The ID of the content",
          "_extraData": "some extra information to send to the contract for a content"
        }
      },
      "setNameTAOPositionAddress(address)": {
        "details": "The AO sets NameTAOPosition address",
        "params": {
          "_nameTAOPositionAddress": "The address of NameTAOPosition"
        }
      },
      "setSettingTAOId(address)": {
        "details": "The AO sets setting TAO ID",
        "params": {
          "_settingTAOId": "The new setting TAO ID to set"
        }
      },
      "setWhitelist(address,bool)": {
        "details": "Whitelist `_account` address to transact on behalf of others",
        "params": {
          "_account": "The address to whitelist",
          "_whitelist": "Either to whitelist or not"
        }
      },
      "transferOwnership(address)": {
        "details": "Transfer ownership of The AO to new address",
        "params": {
          "_theAO": "The new address to be transferred"
        }
      },
      "updateTAOContentState(bytes32,address,bytes32,uint8,bytes32,bytes32)": {
        "details": "Update the TAO Content State of a T(AO) Content",
        "params": {
          "_contentId": "The ID of the Content",
          "_taoContentState": "The TAO Content state value, i.e Submitted, Pending Review, or Accepted to TAO",
          "_taoId": "The ID of the TAO that initiates the update",
          "_updateTAOContentStateR": "The R part of the signature for this update",
          "_updateTAOContentStateS": "The S part of the signature for this update",
          "_updateTAOContentStateV": "The V part of the signature for this update"
        }
      }
    },
    "title": "AOContent"
  },
  "userdoc": {
    "methods": {}
  }
}