{
  "contractName": "AOContent",
  "abi": [
    {
      "constant": true,
      "inputs": [],
      "name": "aoSettingAddress",
      "outputs": [
        {
          "name": "",
          "type": "address"
        }
      ],
      "payable": false,
      "stateMutability": "view",
      "type": "function"
    },
    {
      "constant": true,
      "inputs": [],
      "name": "totalContents",
      "outputs": [
        {
          "name": "",
          "type": "uint256"
        }
      ],
      "payable": false,
      "stateMutability": "view",
      "type": "function"
    },
    {
      "constant": true,
      "inputs": [],
      "name": "nameTAOPositionAddress",
      "outputs": [
        {
          "name": "",
          "type": "address"
        }
      ],
      "payable": false,
      "stateMutability": "view",
      "type": "function"
    },
    {
      "constant": true,
      "inputs": [
        {
          "name": "",
          "type": "address"
        }
      ],
      "name": "whitelist",
      "outputs": [
        {
          "name": "",
          "type": "bool"
        }
      ],
      "payable": false,
      "stateMutability": "view",
      "type": "function"
    },
    {
      "constant": true,
      "inputs": [],
      "name": "theAO",
      "outputs": [
        {
          "name": "",
          "type": "address"
        }
      ],
      "payable": false,
      "stateMutability": "view",
      "type": "function"
    },
    {
      "constant": true,
      "inputs": [],
      "name": "settingTAOId",
      "outputs": [
        {
          "name": "",
          "type": "address"
        }
      ],
      "payable": false,
      "stateMutability": "view",
      "type": "function"
    },
    {
      "inputs": [
        {
          "name": "_settingTAOId",
          "type": "address"
        },
        {
          "name": "_aoSettingAddress",
          "type": "address"
        },
        {
          "name": "_nameTAOPositionAddress",
          "type": "address"
        }
      ],
      "payable": false,
      "stateMutability": "nonpayable",
      "type": "constructor"
    },
    {
      "anonymous": false,
      "inputs": [
        {
          "indexed": true,
          "name": "creator",
          "type": "address"
        },
        {
          "indexed": true,
          "name": "contentId",
          "type": "bytes32"
        },
        {
          "indexed": false,
          "name": "fileSize",
          "type": "uint256"
        },
        {
          "indexed": false,
          "name": "contentUsageType",
          "type": "bytes32"
        }
      ],
      "name": "StoreContent",
      "type": "event"
    },
    {
      "anonymous": false,
      "inputs": [
        {
          "indexed": true,
          "name": "contentId",
          "type": "bytes32"
        },
        {
          "indexed": true,
          "name": "taoId",
          "type": "address"
        },
        {
          "indexed": false,
          "name": "signer",
          "type": "address"
        },
        {
          "indexed": false,
          "name": "taoContentState",
          "type": "bytes32"
        }
      ],
      "name": "UpdateTAOContentState",
      "type": "event"
    },
    {
      "anonymous": false,
      "inputs": [
        {
          "indexed": true,
          "name": "creator",
          "type": "address"
        },
        {
          "indexed": true,
          "name": "contentId",
          "type": "bytes32"
        },
        {
          "indexed": false,
          "name": "newExtraData",
          "type": "string"
        }
      ],
      "name": "SetExtraData",
      "type": "event"
    },
    {
      "constant": false,
      "inputs": [
        {
          "name": "_theAO",
          "type": "address"
        }
      ],
      "name": "transferOwnership",
      "outputs": [],
      "payable": false,
      "stateMutability": "nonpayable",
      "type": "function"
    },
    {
      "constant": false,
      "inputs": [
        {
          "name": "_account",
          "type": "address"
        },
        {
          "name": "_whitelist",
          "type": "bool"
        }
      ],
      "name": "setWhitelist",
      "outputs": [],
      "payable": false,
      "stateMutability": "nonpayable",
      "type": "function"
    },
    {
      "constant": false,
      "inputs": [
        {
          "name": "_settingTAOId",
          "type": "address"
        }
      ],
      "name": "setSettingTAOId",
      "outputs": [],
      "payable": false,
      "stateMutability": "nonpayable",
      "type": "function"
    },
    {
      "constant": false,
      "inputs": [
        {
          "name": "_aoSettingAddress",
          "type": "address"
        }
      ],
      "name": "setAOSettingAddress",
      "outputs": [],
      "payable": false,
      "stateMutability": "nonpayable",
      "type": "function"
    },
    {
      "constant": false,
      "inputs": [
        {
          "name": "_nameTAOPositionAddress",
          "type": "address"
        }
      ],
      "name": "setNameTAOPositionAddress",
      "outputs": [],
      "payable": false,
      "stateMutability": "nonpayable",
      "type": "function"
    },
    {
      "constant": false,
      "inputs": [
        {
          "name": "_creator",
          "type": "address"
        },
        {
          "name": "_baseChallenge",
          "type": "string"
        },
        {
          "name": "_fileSize",
          "type": "uint256"
        },
        {
          "name": "_contentUsageType",
          "type": "bytes32"
        },
        {
          "name": "_taoId",
          "type": "address"
        }
      ],
      "name": "create",
      "outputs": [
        {
          "name": "",
          "type": "bytes32"
        }
      ],
      "payable": false,
      "stateMutability": "nonpayable",
      "type": "function"
    },
    {
      "constant": true,
      "inputs": [
        {
          "name": "_contentId",
          "type": "bytes32"
        }
      ],
      "name": "getById",
      "outputs": [
        {
          "name": "",
          "type": "address"
        },
        {
          "name": "",
          "type": "uint256"
        },
        {
          "name": "",
          "type": "bytes32"
        },
        {
          "name": "",
          "type": "address"
        },
        {
          "name": "",
          "type": "bytes32"
        },
        {
          "name": "",
          "type": "uint8"
        },
        {
          "name": "",
          "type": "bytes32"
        },
        {
          "name": "",
          "type": "bytes32"
        },
        {
          "name": "",
          "type": "string"
        }
      ],
      "payable": false,
      "stateMutability": "view",
      "type": "function"
    },
    {
      "constant": true,
      "inputs": [
        {
          "name": "_contentId",
          "type": "bytes32"
        }
      ],
      "name": "getBaseChallenge",
      "outputs": [
        {
          "name": "",
          "type": "string"
        }
      ],
      "payable": false,
      "stateMutability": "view",
      "type": "function"
    },
    {
      "constant": false,
      "inputs": [
        {
          "name": "_contentId",
          "type": "bytes32"
        },
        {
          "name": "_taoId",
          "type": "address"
        },
        {
          "name": "_taoContentState",
          "type": "bytes32"
        },
        {
          "name": "_updateTAOContentStateV",
          "type": "uint8"
        },
        {
          "name": "_updateTAOContentStateR",
          "type": "bytes32"
        },
        {
          "name": "_updateTAOContentStateS",
          "type": "bytes32"
        }
      ],
      "name": "updateTAOContentState",
      "outputs": [],
      "payable": false,
      "stateMutability": "nonpayable",
      "type": "function"
    },
    {
      "constant": true,
      "inputs": [
        {
          "name": "_contentId",
          "type": "bytes32"
        }
      ],
      "name": "isAOContentUsageType",
      "outputs": [
        {
          "name": "",
          "type": "bool"
        }
      ],
      "payable": false,
      "stateMutability": "view",
      "type": "function"
    },
    {
      "constant": false,
      "inputs": [
        {
          "name": "_contentId",
          "type": "bytes32"
        },
        {
          "name": "_extraData",
          "type": "string"
        }
      ],
      "name": "setExtraData",
      "outputs": [],
      "payable": false,
      "stateMutability": "nonpayable",
      "type": "function"
    }
  ],
  "bytecode": "0x60806040523480156200001157600080fd5b5060405160608062002492833981018060405260608110156200003357600080fd5b508051602080830151604090930151600080546001600160a01b03191633179055919291906200006990849062000094811b901c565b6200007a826200022360201b60201c565b6200008b816200032460201b60201c565b50505062000425565b600054600154604080517ff66afcac0000000000000000000000000000000000000000000000000000000081523360048201526001600160a01b0393841660248201529290911660448301525173__AOLibrary_____________________________9163f66afcac916064808301926020929190829003018186803b1580156200011d57600080fd5b505af415801562000132573d6000803e3d6000fd5b505050506040513d60208110156200014957600080fd5b50516200015557600080fd5b604080517f2fca54140000000000000000000000000000000000000000000000000000000081526001600160a01b0383166004820152905173__AOLibrary_____________________________91632fca5414916024808301926020929190829003018186803b158015620001c957600080fd5b505af4158015620001de573d6000803e3d6000fd5b505050506040513d6020811015620001f557600080fd5b50516200020157600080fd5b600480546001600160a01b0319166001600160a01b0392909216919091179055565b600054600154604080517ff66afcac0000000000000000000000000000000000000000000000000000000081523360048201526001600160a01b0393841660248201529290911660448301525173__AOLibrary_____________________________9163f66afcac916064808301926020929190829003018186803b158015620002ac57600080fd5b505af4158015620002c1573d6000803e3d6000fd5b505050506040513d6020811015620002d857600080fd5b5051620002e457600080fd5b6001600160a01b038116620002f857600080fd5b600580546001600160a01b039092166001600160a01b0319928316811790915560068054909216179055565b600054600154604080517ff66afcac0000000000000000000000000000000000000000000000000000000081523360048201526001600160a01b0393841660248201529290911660448301525173__AOLibrary_____________________________9163f66afcac916064808301926020929190829003018186803b158015620003ad57600080fd5b505af4158015620003c2573d6000803e3d6000fd5b505050506040513d6020811015620003d957600080fd5b5051620003e557600080fd5b6001600160a01b038116620003f957600080fd5b600180546001600160a01b039092166001600160a01b0319928316811790915560078054909216179055565b61205d80620004356000396000f3fe608060405234801561001057600080fd5b506004361061010b5760003560e01c80635cfaf2ef116100a2578063a9b6b38e11610071578063a9b6b38e146104a4578063d0d9ca52146104ac578063d6830af31461053f578063e7c5018514610565578063f2fde38b1461056d5761010b565b80635cfaf2ef146103e057806365cf0ace1461040657806383b01a83146104375780639b19251a1461047e5761010b565b80633486d8f6116100de5780633486d8f6146102fe5780633848627b146103905780634ef033f0146103aa57806353d6fd59146103b25761010b565b806306fd7088146101105780631d0138ff146101385780632d189a621461015c5780632dff0d0d14610207575b600080fd5b6101366004803603602081101561012657600080fd5b50356001600160a01b0316610593565b005b610140610679565b604080516001600160a01b039092168252519081900360200190f35b6101366004803603604081101561017257600080fd5b81359190810190604081016020820135600160201b81111561019357600080fd5b8201836020820111156101a557600080fd5b803590602001918460018302840111600160201b831117156101c657600080fd5b91908080601f016020809104026020016040519081016040528093929190818152602001838380828437600092019190915250929550610688945050505050565b6102246004803603602081101561021d57600080fd5b50356107b5565b604051808a6001600160a01b03166001600160a01b03168152602001898152602001888152602001876001600160a01b03166001600160a01b031681526020018681526020018560ff1660ff16815260200184815260200183815260200180602001828103825283818151815260200191508051906020019080838360005b838110156102bb5781810151838201526020016102a3565b50505050905090810190601f1680156102e85780820380516001836020036101000a031916815260200191505b509a505050505050505050505060405180910390f35b61031b6004803603602081101561031457600080fd5b50356109fa565b6040805160208082528351818301528351919283929083019185019080838360005b8381101561035557818101518382015260200161033d565b50505050905090810190601f1680156103825780820380516001836020036101000a031916815260200191505b509250505060405180910390f35b610398610c1d565b60408051918252519081900360200190f35b610140610c23565b610136600480360360408110156103c857600080fd5b506001600160a01b0381351690602001351515610c32565b610136600480360360208110156103f657600080fd5b50356001600160a01b0316610d17565b6104236004803603602081101561041c57600080fd5b5035610dfd565b604080519115158252519081900360200190f35b610136600480360360c081101561044d57600080fd5b508035906001600160a01b036020820135169060408101359060ff6060820135169060808101359060a00135610e4e565b6104236004803603602081101561049457600080fd5b50356001600160a01b0316611093565b6101406110a8565b610398600480360360a08110156104c257600080fd5b6001600160a01b038235169190810190604081016020820135600160201b8111156104ec57600080fd5b8201836020820111156104fe57600080fd5b803590602001918460018302840111600160201b8311171561051f57600080fd5b9193509150803590602081013590604001356001600160a01b03166110b7565b6101366004803603602081101561055557600080fd5b50356001600160a01b03166112a8565b610140611403565b6101366004803603602081101561058357600080fd5b50356001600160a01b0316611412565b60005460015460408051600160e21b633d9abf2b0281523360048201526001600160a01b0393841660248201529290911660448301525173__AOLibrary_____________________________9163f66afcac916064808301926020929190829003018186803b15801561060557600080fd5b505af4158015610619573d6000803e3d6000fd5b505050506040513d602081101561062f57600080fd5b505161063a57600080fd5b6001600160a01b03811661064d57600080fd5b600580546001600160a01b039092166001600160a01b0319928316811790915560068054909216179055565b6005546001600160a01b031681565b6000828152600960205260409020546106a057600080fd5b60008281526009602090815260408083205483526008909152902060018101546001600160a01b031633146106d457600080fd5b81516106e990600a8301906020850190611ecd565b508054600180830154604080516020808252600a87018054600260001997821615610100029790970116959095049082018190526001600160a01b03909316937fccfac2e5e45c8af339b83af022e2d6072564ca42a312b0511d9fd022ebb2fdf7939092829190820190849080156107a25780601f10610777576101008083540402835291602001916107a2565b820191906000526020600020905b81548152906001019060200180831161078557829003601f168201915b50509250505060405180910390a3505050565b60008060008060008060008060606000600960008c815260200190815260200160002054116107e357600080fd5b6107eb611f4b565b60008b81526009602090815260408083205483526008825291829020825161016081018452815481526001808301546001600160a01b0316828501526002808401805487516101009482161594909402600019011691909104601f810186900486028301860187528083529295939493860193919290918301828280156108b35780601f10610888576101008083540402835291602001916108b3565b820191906000526020600020905b81548152906001019060200180831161089657829003601f168201915b50505091835250506003820154602080830191909152600483015460408084019190915260058401546001600160a01b0316606084015260068401546080840152600784015460ff1660a0840152600884015460c0840152600984015460e0840152600a8401805482516002610100600184161581026000190190931604601f81018690048602820186019094528381529401939290919083018282801561099c5780601f106109715761010080835404028352916020019161099c565b820191906000526020600020905b81548152906001019060200180831161097f57829003601f168201915b50505050508152505090508060200151816060015182608001518360a001518460c001518560e00151866101000151876101200151886101400151809050995099509950995099509950995099509950509193959799909294969850565b600081815260096020526040902054606090610a1557600080fd5b610a1d611f4b565b60008381526009602090815260408083205483526008825291829020825161016081018452815481526001808301546001600160a01b0316828501526002808401805487516101009482161594909402600019011691909104601f81018690048602830186018752808352929593949386019391929091830182828015610ae55780601f10610aba57610100808354040283529160200191610ae5565b820191906000526020600020905b815481529060010190602001808311610ac857829003601f168201915b50505091835250506003820154602080830191909152600483015460408084019190915260058401546001600160a01b0316606084015260068401546080840152600784015460ff1660a0840152600884015460c0840152600984015460e0840152600a8401805482516002610100600184161581026000190190931604601f810186900486028201860190945283815294019392909190830182828015610bce5780601f10610ba357610100808354040283529160200191610bce565b820191906000526020600020905b815481529060010190602001808311610bb157829003601f168201915b505050919092525050336000908152600260205260409020549192505060ff16151560011480610c0a575060208101516001600160a01b031633145b610c1357600080fd5b6040015192915050565b60035481565b6001546001600160a01b031681565b60005460015460408051600160e21b633d9abf2b0281523360048201526001600160a01b0393841660248201529290911660448301525173__AOLibrary_____________________________9163f66afcac916064808301926020929190829003018186803b158015610ca457600080fd5b505af4158015610cb8573d6000803e3d6000fd5b505050506040513d6020811015610cce57600080fd5b5051610cd957600080fd5b6001600160a01b038216610cec57600080fd5b6001600160a01b03919091166000908152600260205260409020805460ff1916911515919091179055565b60005460015460408051600160e21b633d9abf2b0281523360048201526001600160a01b0393841660248201529290911660448301525173__AOLibrary_____________________________9163f66afcac916064808301926020929190829003018186803b158015610d8957600080fd5b505af4158015610d9d573d6000803e3d6000fd5b505050506040513d6020811015610db357600080fd5b5051610dbe57600080fd5b6001600160a01b038116610dd157600080fd5b600180546001600160a01b039092166001600160a01b0319928316811790915560078054909216179055565b600081815260096020526040812054610e1557600080fd5b6000610e1f6114ee565b505050600086815260096020908152604080832054835260089091529020600401549092149350505050919050565b600086815260096020526040902054610e6657600080fd5b60408051600160e21b630bf295050281526001600160a01b0387166004820152905173__AOLibrary_____________________________91632fca5414916024808301926020929190829003018186803b158015610ec357600080fd5b505af4158015610ed7573d6000803e3d6000fd5b505050506040513d6020811015610eed57600080fd5b5051610ef857600080fd5b600080600080610f066114ee565b9550955095509550505082881480610f1d57508188145b80610f2757508088145b610f3057600080fd5b6000610f408b8b8b8b8b8b611c5f565b60008c8152600960209081526040808320548352600890915290209091506001600160a01b03821633148015610ffb5750600754600582015460408051600160e11b63716472a50281526001600160a01b03868116600483015292831660248201529051919092169163e2c8e54a916044808301926020929190829003018186803b158015610fce57600080fd5b505afa158015610fe2573d6000803e3d6000fd5b505050506040513d6020811015610ff857600080fd5b50515b61100457600080fd5b8581600401541461101457600080fd5b600681018a905560078101805460ff191660ff8b161790556008810188905560098101879055604080516001600160a01b038481168252602082018d90528251908e16928f927f0528e12829f4904634dd7bd06309457b4867ebd8bdf33ae6a8f6092a9a9461b9929081900390910190a3505050505050505050505050565b60026020526000908152604090205460ff1681565b6000546001600160a01b031681565b3360009081526002602052604081205460ff1615156001146110d857600080fd5b61111d8787878080601f016020809104026020016040519081016040528093929190818152602001838380828437600092019190915250899250889150879050611d1f565b61112657600080fd5b600380546001908101918290556040805130606090811b6020808401919091526001600160a01b03808e1690921b603484015260488084018790528451808503909101815260689093018452825192810192909220600095865260089092529190932091820154161561119857600080fd5b6000806111a36114ee565b50509350935050508383600001819055508a8360010160006101000a8154816001600160a01b0302191690836001600160a01b0316021790555089898460020191906111f0929190611fa6565b5060038301889055600483018790558187141561122c57600683018190556005830180546001600160a01b0319166001600160a01b0388161790555b600380546000868152600960209081526040918290209290925585546001870154938701546004880154835191825293810193909352815190936001600160a01b0316927fe57c42bf3a4425cef2daf5daea09e512a58183eac320e1480456a511a6afe7cd92908290030190a350505498975050505050505050565b60005460015460408051600160e21b633d9abf2b0281523360048201526001600160a01b0393841660248201529290911660448301525173__AOLibrary_____________________________9163f66afcac916064808301926020929190829003018186803b15801561131a57600080fd5b505af415801561132e573d6000803e3d6000fd5b505050506040513d602081101561134457600080fd5b505161134f57600080fd5b60408051600160e21b630bf295050281526001600160a01b0383166004820152905173__AOLibrary_____________________________91632fca5414916024808301926020929190829003018186803b1580156113ac57600080fd5b505af41580156113c0573d6000803e3d6000fd5b505050506040513d60208110156113d657600080fd5b50516113e157600080fd5b600480546001600160a01b0319166001600160a01b0392909216919091179055565b6004546001600160a01b031681565b60005460015460408051600160e21b633d9abf2b0281523360048201526001600160a01b0393841660248201529290911660448301525173__AOLibrary_____________________________9163f66afcac916064808301926020929190829003018186803b15801561148457600080fd5b505af4158015611498573d6000803e3d6000fd5b505050506040513d60208110156114ae57600080fd5b50516114b957600080fd5b6001600160a01b0381166114cc57600080fd5b600080546001600160a01b0319166001600160a01b0392909216919091179055565b6006546004805460408051600160e21b631c196fb70281526001600160a01b039283169381019390935260248301819052601a60448401527f636f6e74656e745573616765547970655f616f436f6e74656e7400000000000060648401525160009384938493849384938493849390911691637065bedc916084808201928692909190829003018186803b15801561158557600080fd5b505afa158015611599573d6000803e3d6000fd5b505050506040513d6000823e601f3d908101601f1916820160405260a08110156115c257600080fd5b815160208301516040840151606085015160808601805194969395929491939283019291600160201b8111156115f757600080fd5b8201602081018481111561160a57600080fd5b8151600160201b81118282018710171561162357600080fd5b50506006546004805460408051600160e21b631c196fb70281526001600160a01b039283169381019390935260248301819052602060448401527f636f6e74656e745573616765547970655f6372656174697665436f6d6d6f6e73606484015251979b5060009a509091169750637065bedc96506084808201968a965094509084900301915082905086803b1580156116bb57600080fd5b505afa1580156116cf573d6000803e3d6000fd5b505050506040513d6000823e601f3d908101601f1916820160405260a08110156116f857600080fd5b815160208301516040840151606085015160808601805194969395929491939283019291600160201b81111561172d57600080fd5b8201602081018481111561174057600080fd5b8151600160201b81118282018710171561175957600080fd5b50506006546004805460408051600160e21b631c196fb70281526001600160a01b039283169381019390935260248301819052601b60448401527f636f6e74656e745573616765547970655f74616f436f6e74656e740000000000606484015251979b5060009a509091169750637065bedc96506084808201968a965094509084900301915082905086803b1580156117f157600080fd5b505afa158015611805573d6000803e3d6000fd5b505050506040513d6000823e601f3d908101601f1916820160405260a081101561182e57600080fd5b815160208301516040840151606085015160808601805194969395929491939283019291600160201b81111561186357600080fd5b8201602081018481111561187657600080fd5b8151600160201b81118282018710171561188f57600080fd5b50506006546004805460408051600160e21b631c196fb70281526001600160a01b039283169381019390935260248301819052601960448401527f74616f436f6e74656e7453746174655f7375626d697474656400000000000000606484015251979b5060009a509091169750637065bedc96506084808201968a965094509084900301915082905086803b15801561192757600080fd5b505afa15801561193b573d6000803e3d6000fd5b505050506040513d6000823e601f3d908101601f1916820160405260a081101561196457600080fd5b815160208301516040840151606085015160808601805194969395929491939283019291600160201b81111561199957600080fd5b820160208101848111156119ac57600080fd5b8151600160201b8111828201871017156119c557600080fd5b50506006546004805460408051600160e21b631c196fb70281526001600160a01b039283169381019390935260248301819052601d60448401527f74616f436f6e74656e7453746174655f70656e64696e67526576696577000000606484015251979b5060009a509091169750637065bedc96506084808201968a965094509084900301915082905086803b158015611a5d57600080fd5b505afa158015611a71573d6000803e3d6000fd5b505050506040513d6000823e601f3d908101601f1916820160405260a0811015611a9a57600080fd5b815160208301516040840151606085015160808601805194969395929491939283019291600160201b811115611acf57600080fd5b82016020810184811115611ae257600080fd5b8151600160201b811182820187101715611afb57600080fd5b50506006546004805460408051600160e21b631c196fb70281526001600160a01b039283169381019390935260248301819052601d60448401527f74616f436f6e74656e7453746174655f6163636570746564546f54414f000000606484015251979b5060009a509091169750637065bedc96506084808201968a965094509084900301915082905086803b158015611b9357600080fd5b505afa158015611ba7573d6000803e3d6000fd5b505050506040513d6000823e601f3d908101601f1916820160405260a0811015611bd057600080fd5b815160208301516040840151606085015160808601805194969395929491939283019291600160201b811115611c0557600080fd5b82016020810184811115611c1857600080fd5b8151600160201b811182820187101715611c3157600080fd5b50509291905050505093505050508585858585859b509b509b509b509b509b50505050505050909192939495565b6040805130606090811b602080840191909152603483018a90526001600160a01b03891690911b60548301526068808301889052835180840390910181526088830180855281519183019190912060009182905260a8840180865281905260ff881660c885015260e8840187905261010884018690529351909392600192610128808301939192601f198301929081900390910190855afa158015611d08573d6000803e3d6000fd5b5050604051601f1901519998505050505050505050565b600080600080611d2d6114ee565b50939650919450925050506001600160a01b03891615801590611d51575060008851115b8015611d5d5750600087115b8015611d7b575082861480611d7157508186145b80611d7b57508086145b8015611ec057508086141580611ec057508086148015611da357506001600160a01b03851615155b8015611e34575060408051600160e21b630bf295050281526001600160a01b0387166004820152905173__AOLibrary_____________________________91632fca5414916024808301926020929190829003018186803b158015611e0757600080fd5b505af4158015611e1b573d6000803e3d6000fd5b505050506040513d6020811015611e3157600080fd5b50515b8015611ec0575060075460408051600160e11b63716472a50281526001600160a01b038c8116600483015288811660248301529151919092169163e2c8e54a916044808301926020929190829003018186803b158015611e9357600080fd5b505afa158015611ea7573d6000803e3d6000fd5b505050506040513d6020811015611ebd57600080fd5b50515b9998505050505050505050565b828054600181600116156101000203166002900490600052602060002090601f016020900481019282601f10611f0e57805160ff1916838001178555611f3b565b82800160010185558215611f3b579182015b82811115611f3b578251825591602001919060010190611f20565b50611f47929150612014565b5090565b604080516101608101825260008082526020820181905260609282018390528282018190526080820181905260a0820181905260c0820181905260e08201819052610100820181905261012082015261014081019190915290565b828054600181600116156101000203166002900490600052602060002090601f016020900481019282601f10611fe75782800160ff19823516178555611f3b565b82800160010185558215611f3b579182015b82811115611f3b578235825591602001919060010190611ff9565b61202e91905b80821115611f47576000815560010161201a565b9056fea165627a7a72305820a9f33435a4c5984443bd5fda8e8bfb405f3868d6034e7ca84bb4293d72227eda0029",
  "source": "pragma solidity >=0.5.4 <0.6.0;\n\nimport './AOLibrary.sol';\nimport './TheAO.sol';\nimport './IAOContent.sol';\nimport './IAOSetting.sol';\nimport './INameTAOPosition.sol';\n\n/**\n * @title AOContent\n */\ncontract AOContent is TheAO, IAOContent {\n\tuint256 public totalContents;\n\taddress public settingTAOId;\n\taddress public aoSettingAddress;\n\n\tIAOSetting internal _aoSetting;\n\tINameTAOPosition internal _nameTAOPosition;\n\n\tstruct Content {\n\t\tbytes32 contentId;\n\t\taddress creator;\n\t\t/**\n\t\t * baseChallenge is the content's PUBLIC KEY\n\t\t * When a request node wants to be a host, it is required to send a signed base challenge (its content's PUBLIC KEY)\n\t\t * so that the contract can verify the authenticity of the content by comparing what the contract has and what the request node\n\t\t * submit\n\t\t */\n\t\tstring baseChallenge;\n\t\tuint256 fileSize;\n\t\tbytes32 contentUsageType; // i.e AO Content, Creative Commons, or T(AO) Content\n\t\taddress taoId;\n\t\tbytes32 taoContentState; // i.e Submitted, Pending Review, Accepted to TAO\n\t\tuint8 updateTAOContentStateV;\n\t\tbytes32 updateTAOContentStateR;\n\t\tbytes32 updateTAOContentStateS;\n\t\tstring extraData;\n\t}\n\n\t// Mapping from Content index to the Content object\n\tmapping (uint256 => Content) internal contents;\n\n\t// Mapping from content ID to index of the contents list\n\tmapping (bytes32 => uint256) internal contentIndex;\n\n\t// Event to be broadcasted to public when `content` is stored\n\tevent StoreContent(address indexed creator, bytes32 indexed contentId, uint256 fileSize, bytes32 contentUsageType);\n\n\t// Event to be broadcasted to public when Advocate/Listener/Speaker wants to update the TAO Content's State\n\tevent UpdateTAOContentState(bytes32 indexed contentId, address indexed taoId, address signer, bytes32 taoContentState);\n\n\t// Event to be broadcasted to public when content creator updates the content's extra data\n\tevent SetExtraData(address indexed creator, bytes32 indexed contentId, string newExtraData);\n\n\t/**\n\t * @dev Constructor function\n\t * @param _settingTAOId The TAO ID that controls the setting\n\t * @param _aoSettingAddress The address of AOSetting\n\t * @param _nameTAOPositionAddress The address of NameTAOPosition\n\t */\n\tconstructor(address _settingTAOId, address _aoSettingAddress, address _nameTAOPositionAddress) public {\n\t\tsetSettingTAOId(_settingTAOId);\n\t\tsetAOSettingAddress(_aoSettingAddress);\n\t\tsetNameTAOPositionAddress(_nameTAOPositionAddress);\n\t}\n\n\t/**\n\t * @dev Checks if the calling contract address is The AO\n\t *\t\tOR\n\t *\t\tIf The AO is set to a Name/TAO, then check if calling address is the Advocate\n\t */\n\tmodifier onlyTheAO {\n\t\trequire (AOLibrary.isTheAO(msg.sender, theAO, nameTAOPositionAddress));\n\t\t_;\n\t}\n\n\t/***** The AO ONLY METHODS *****/\n\t/**\n\t * @dev Transfer ownership of The AO to new address\n\t * @param _theAO The new address to be transferred\n\t */\n\tfunction transferOwnership(address _theAO) public onlyTheAO {\n\t\trequire (_theAO != address(0));\n\t\ttheAO = _theAO;\n\t}\n\n\t/**\n\t * @dev Whitelist `_account` address to transact on behalf of others\n\t * @param _account The address to whitelist\n\t * @param _whitelist Either to whitelist or not\n\t */\n\tfunction setWhitelist(address _account, bool _whitelist) public onlyTheAO {\n\t\trequire (_account != address(0));\n\t\twhitelist[_account] = _whitelist;\n\t}\n\n\t/**\n\t * @dev The AO sets setting TAO ID\n\t * @param _settingTAOId The new setting TAO ID to set\n\t */\n\tfunction setSettingTAOId(address _settingTAOId) public onlyTheAO {\n\t\trequire (AOLibrary.isTAO(_settingTAOId));\n\t\tsettingTAOId = _settingTAOId;\n\t}\n\n\t/**\n\t * @dev The AO sets AO Setting address\n\t * @param _aoSettingAddress The address of AOSetting\n\t */\n\tfunction setAOSettingAddress(address _aoSettingAddress) public onlyTheAO {\n\t\trequire (_aoSettingAddress != address(0));\n\t\taoSettingAddress = _aoSettingAddress;\n\t\t_aoSetting = IAOSetting(_aoSettingAddress);\n\t}\n\n\t/**\n\t * @dev The AO sets NameTAOPosition address\n\t * @param _nameTAOPositionAddress The address of NameTAOPosition\n\t */\n\tfunction setNameTAOPositionAddress(address _nameTAOPositionAddress) public onlyTheAO {\n\t\trequire (_nameTAOPositionAddress != address(0));\n\t\tnameTAOPositionAddress = _nameTAOPositionAddress;\n\t\t_nameTAOPosition = INameTAOPosition(_nameTAOPositionAddress);\n\t}\n\n\t/***** PUBLIC METHODS *****/\n\t/**\n\t * @dev Store the content information (content creation during staking)\n\t * @param _creator the address of the content creator\n\t * @param _baseChallenge The base challenge string (PUBLIC KEY) of the content\n\t * @param _fileSize The size of the file\n\t * @param _contentUsageType The content usage type, i.e AO Content, Creative Commons, or T(AO) Content\n\t * @param _taoId The TAO (TAO) ID for this content (if this is a T(AO) Content)\n\t * @return the ID of the content\n\t */\n\tfunction create(address _creator,\n\t\tstring calldata _baseChallenge,\n\t\tuint256 _fileSize,\n\t\tbytes32 _contentUsageType,\n\t\taddress _taoId\n\t\t) external inWhitelist returns (bytes32) {\n\t\trequire (_canCreate(_creator, _baseChallenge, _fileSize, _contentUsageType, _taoId));\n\n\t\t// Increment totalContents\n\t\ttotalContents++;\n\n\t\t// Generate contentId\n\t\tbytes32 _contentId = keccak256(abi.encodePacked(this, _creator, totalContents));\n\t\tContent storage _content = contents[totalContents];\n\n\t\t// Make sure the node does't store the same content twice\n\t\trequire (_content.creator == address(0));\n\n\t\t(,,bytes32 contentUsageType_taoContent, bytes32 taoContentState_submitted,,) = _getSettingVariables();\n\n\t\t_content.contentId = _contentId;\n\t\t_content.creator = _creator;\n\t\t_content.baseChallenge = _baseChallenge;\n\t\t_content.fileSize = _fileSize;\n\t\t_content.contentUsageType = _contentUsageType;\n\n\t\t// If this is a TAO Content\n\t\tif (_contentUsageType == contentUsageType_taoContent) {\n\t\t\t_content.taoContentState = taoContentState_submitted;\n\t\t\t_content.taoId = _taoId;\n\t\t}\n\n\t\tcontentIndex[_contentId] = totalContents;\n\n\t\temit StoreContent(_content.creator, _content.contentId, _content.fileSize, _content.contentUsageType);\n\t\treturn _content.contentId;\n\t}\n\n\t/**\n\t * @dev Return content info at a given ID\n\t * @param _contentId The ID of the content\n\t * @return address of the creator\n\t * @return file size of the content\n\t * @return the content usage type, i.e AO Content, Creative Commons, or T(AO) Content\n\t * @return The TAO ID for this content (if this is a T(AO) Content)\n\t * @return The TAO Content state, i.e Submitted, Pending Review, or Accepted to TAO\n\t * @return The V part of signature that is used to update the TAO Content State\n\t * @return The R part of signature that is used to update the TAO Content State\n\t * @return The S part of signature that is used to update the TAO Content State\n\t * @return the extra information sent to the contract when creating a content\n\t */\n\tfunction getById(bytes32 _contentId) external view returns (address, uint256, bytes32, address, bytes32, uint8, bytes32, bytes32, string memory) {\n\t\t// Make sure the content exist\n\t\trequire (contentIndex[_contentId] > 0);\n\t\tContent memory _content = contents[contentIndex[_contentId]];\n\t\treturn (\n\t\t\t_content.creator,\n\t\t\t_content.fileSize,\n\t\t\t_content.contentUsageType,\n\t\t\t_content.taoId,\n\t\t\t_content.taoContentState,\n\t\t\t_content.updateTAOContentStateV,\n\t\t\t_content.updateTAOContentStateR,\n\t\t\t_content.updateTAOContentStateS,\n\t\t\t_content.extraData\n\t\t);\n\t}\n\n\t/**\n\t * @dev Get content base challenge\n\t * @param _contentId The ID of the content\n\t * @return the base challenge\n\t */\n\tfunction getBaseChallenge(bytes32 _contentId) external view returns (string memory) {\n\t\t// Make sure the content exist\n\t\trequire (contentIndex[_contentId] > 0);\n\t\tContent memory _content = contents[contentIndex[_contentId]];\n\t\trequire (whitelist[msg.sender] == true || _content.creator == msg.sender);\n\t\treturn _content.baseChallenge;\n\t}\n\n\t/**\n\t * @dev Update the TAO Content State of a T(AO) Content\n\t * @param _contentId The ID of the Content\n\t * @param _taoId The ID of the TAO that initiates the update\n\t * @param _taoContentState The TAO Content state value, i.e Submitted, Pending Review, or Accepted to TAO\n\t * @param _updateTAOContentStateV The V part of the signature for this update\n\t * @param _updateTAOContentStateR The R part of the signature for this update\n\t * @param _updateTAOContentStateS The S part of the signature for this update\n\t */\n\tfunction updateTAOContentState(\n\t\tbytes32 _contentId,\n\t\taddress _taoId,\n\t\tbytes32 _taoContentState,\n\t\tuint8 _updateTAOContentStateV,\n\t\tbytes32 _updateTAOContentStateR,\n\t\tbytes32 _updateTAOContentStateS\n\t) public {\n\t\t// Make sure the content exist\n\t\trequire (contentIndex[_contentId] > 0);\n\t\trequire (AOLibrary.isTAO(_taoId));\n\t\t(,, bytes32 _contentUsageType_taoContent, bytes32 taoContentState_submitted, bytes32 taoContentState_pendingReview, bytes32 taoContentState_acceptedToTAO) = _getSettingVariables();\n\t\trequire (_taoContentState == taoContentState_submitted || _taoContentState == taoContentState_pendingReview || _taoContentState == taoContentState_acceptedToTAO);\n\n\t\taddress _signatureAddress = _getUpdateTAOContentStateSignatureAddress(_contentId, _taoId, _taoContentState, _updateTAOContentStateV, _updateTAOContentStateR, _updateTAOContentStateS);\n\n\t\tContent storage _content = contents[contentIndex[_contentId]];\n\t\t// Make sure that the signature address is one of content's TAO ID's Advocate/Listener/Speaker\n\t\trequire (_signatureAddress == msg.sender && _nameTAOPosition.senderIsPosition(_signatureAddress, _content.taoId));\n\t\trequire (_content.contentUsageType == _contentUsageType_taoContent);\n\n\t\t_content.taoContentState = _taoContentState;\n\t\t_content.updateTAOContentStateV = _updateTAOContentStateV;\n\t\t_content.updateTAOContentStateR = _updateTAOContentStateR;\n\t\t_content.updateTAOContentStateS = _updateTAOContentStateS;\n\n\t\temit UpdateTAOContentState(_contentId, _taoId, _signatureAddress, _taoContentState);\n\t}\n\n\t/**\n\t * @dev Check whether or not the content is of AO Content Usage Type\n\t * @param _contentId The ID of the content\n\t * @return true if yes. false otherwise\n\t */\n\tfunction isAOContentUsageType(bytes32 _contentId) external view returns (bool) {\n\t\trequire (contentIndex[_contentId] > 0);\n\t\t(bytes32 _contentUsageType_aoContent,,,,,) = _getSettingVariables();\n\t\treturn contents[contentIndex[_contentId]].contentUsageType == _contentUsageType_aoContent;\n\t}\n\n\t/**\n\t * @dev Set extra data on existing content\n\t * @param _contentId The ID of the content\n\t * @param _extraData some extra information to send to the contract for a content\n\t */\n\tfunction setExtraData(bytes32 _contentId, string memory _extraData) public {\n\t\t// Make sure the content exist\n\t\trequire (contentIndex[_contentId] > 0);\n\n\t\tContent storage _content = contents[contentIndex[_contentId]];\n\t\t// Make sure the content creator is the same as the sender\n\t\trequire (_content.creator == msg.sender);\n\n\t\t_content.extraData = _extraData;\n\n\t\temit SetExtraData(_content.creator, _content.contentId, _content.extraData);\n\t}\n\n\t/***** INTERNAL METHODS *****/\n\t/**\n\t * @dev Checks if create params are valid\n\t * @param _creator the address of the content creator\n\t * @param _baseChallenge The base challenge string (PUBLIC KEY) of the content\n\t * @param _fileSize The size of the file\n\t * @param _contentUsageType The content usage type, i.e AO Content, Creative Commons, or T(AO) Content\n\t * @param _taoId The TAO (TAO) ID for this content (if this is a T(AO) Content)\n\t * @return true if yes. false otherwise\n\t */\n\tfunction _canCreate(address _creator, string memory _baseChallenge, uint256 _fileSize, bytes32 _contentUsageType, address _taoId) internal view returns (bool) {\n\t\t(bytes32 aoContent, bytes32 creativeCommons, bytes32 taoContent,,,) = _getSettingVariables();\n\t\treturn (_creator != address(0) &&\n\t\t\tbytes(_baseChallenge).length > 0 &&\n\t\t\t_fileSize > 0 &&\n\t\t\t(_contentUsageType == aoContent || _contentUsageType == creativeCommons || _contentUsageType == taoContent) &&\n\t\t\t(\n\t\t\t\t_contentUsageType != taoContent ||\n\t\t\t\t(_contentUsageType == taoContent && _taoId != address(0) && AOLibrary.isTAO(_taoId) && _nameTAOPosition.senderIsPosition(_creator, _taoId))\n\t\t\t)\n\t\t);\n\t}\n\n\t/**\n\t * @dev Get setting variables\n\t * @return contentUsageType_aoContent Content Usage Type = AO Content\n\t * @return contentUsageType_creativeCommons Content Usage Type = Creative Commons\n\t * @return contentUsageType_taoContent Content Usage Type = T(AO) Content\n\t * @return taoContentState_submitted TAO Content State = Submitted\n\t * @return taoContentState_pendingReview TAO Content State = Pending Review\n\t * @return taoContentState_acceptedToTAO TAO Content State = Accepted to TAO\n\t */\n\tfunction _getSettingVariables() internal view returns (bytes32, bytes32, bytes32, bytes32, bytes32, bytes32) {\n\t\t(,,,bytes32 contentUsageType_aoContent,) = _aoSetting.getSettingValuesByTAOName(settingTAOId, 'contentUsageType_aoContent');\n\t\t(,,,bytes32 contentUsageType_creativeCommons,) = _aoSetting.getSettingValuesByTAOName(settingTAOId, 'contentUsageType_creativeCommons');\n\t\t(,,,bytes32 contentUsageType_taoContent,) = _aoSetting.getSettingValuesByTAOName(settingTAOId, 'contentUsageType_taoContent');\n\t\t(,,,bytes32 taoContentState_submitted,) = _aoSetting.getSettingValuesByTAOName(settingTAOId, 'taoContentState_submitted');\n\t\t(,,,bytes32 taoContentState_pendingReview,) = _aoSetting.getSettingValuesByTAOName(settingTAOId, 'taoContentState_pendingReview');\n\t\t(,,,bytes32 taoContentState_acceptedToTAO,) = _aoSetting.getSettingValuesByTAOName(settingTAOId, 'taoContentState_acceptedToTAO');\n\n\t\treturn (\n\t\t\tcontentUsageType_aoContent,\n\t\t\tcontentUsageType_creativeCommons,\n\t\t\tcontentUsageType_taoContent,\n\t\t\ttaoContentState_submitted,\n\t\t\ttaoContentState_pendingReview,\n\t\t\ttaoContentState_acceptedToTAO\n\t\t);\n\t}\n\n\t/**\n\t * @dev Return the address that signed the TAO content state update\n\t * @param _contentId the ID of the content\n\t * @param _taoId the ID of the TAO\n\t * @param _taoContentState the TAO Content State value, i.e Submitted, Pending Review, or Accepted to TAO\n\t * @param _v part of the signature\n\t * @param _r part of the signature\n\t * @param _s part of the signature\n\t * @return the address that signed the message\n\t */\n\tfunction _getUpdateTAOContentStateSignatureAddress(bytes32 _contentId, address _taoId, bytes32 _taoContentState, uint8 _v, bytes32 _r, bytes32 _s) internal view returns (address) {\n\t\tbytes32 _hash = keccak256(abi.encodePacked(address(this), _contentId, _taoId, _taoContentState));\n\t\treturn ecrecover(_hash, _v, _r, _s);\n\t}\n}\n",
  "sourcePath": "/usr/local/ao-contracts/contracts/AOContent.sol",
  "compiler": {
    "name": "solc",
    "version": "0.5.6+commit.b259423e.Emscripten.clang"
  },
  "schemaVersion": "3.0.2",
  "updatedAt": "2019-03-28T22:28:47.126Z",
  "devdoc": {
    "methods": {
      "constructor": {
        "details": "Constructor function",
        "params": {
          "_aoSettingAddress": "The address of AOSetting",
          "_nameTAOPositionAddress": "The address of NameTAOPosition",
          "_settingTAOId": "The TAO ID that controls the setting"
        }
      },
      "create(address,string,uint256,bytes32,address)": {
        "details": "Store the content information (content creation during staking)",
        "params": {
          "_baseChallenge": "The base challenge string (PUBLIC KEY) of the content",
          "_contentUsageType": "The content usage type, i.e AO Content, Creative Commons, or T(AO) Content",
          "_creator": "the address of the content creator",
          "_fileSize": "The size of the file",
          "_taoId": "The TAO (TAO) ID for this content (if this is a T(AO) Content)"
        },
        "return": "the ID of the content"
      },
      "getBaseChallenge(bytes32)": {
        "details": "Get content base challenge",
        "params": {
          "_contentId": "The ID of the content"
        },
        "return": "the base challenge"
      },
      "getById(bytes32)": {
        "details": "Return content info at a given ID",
        "params": {
          "_contentId": "The ID of the content"
        },
        "return": "address of the creatorfile size of the contentthe content usage type, i.e AO Content, Creative Commons, or T(AO) ContentThe TAO ID for this content (if this is a T(AO) Content)The TAO Content state, i.e Submitted, Pending Review, or Accepted to TAOThe V part of signature that is used to update the TAO Content StateThe R part of signature that is used to update the TAO Content StateThe S part of signature that is used to update the TAO Content Statethe extra information sent to the contract when creating a content"
      },
      "isAOContentUsageType(bytes32)": {
        "details": "Check whether or not the content is of AO Content Usage Type",
        "params": {
          "_contentId": "The ID of the content"
        },
        "return": "true if yes. false otherwise"
      },
      "setAOSettingAddress(address)": {
        "details": "The AO sets AO Setting address",
        "params": {
          "_aoSettingAddress": "The address of AOSetting"
        }
      },
      "setExtraData(bytes32,string)": {
        "details": "Set extra data on existing content",
        "params": {
          "_contentId": "The ID of the content",
          "_extraData": "some extra information to send to the contract for a content"
        }
      },
      "setNameTAOPositionAddress(address)": {
        "details": "The AO sets NameTAOPosition address",
        "params": {
          "_nameTAOPositionAddress": "The address of NameTAOPosition"
        }
      },
      "setSettingTAOId(address)": {
        "details": "The AO sets setting TAO ID",
        "params": {
          "_settingTAOId": "The new setting TAO ID to set"
        }
      },
      "setWhitelist(address,bool)": {
        "details": "Whitelist `_account` address to transact on behalf of others",
        "params": {
          "_account": "The address to whitelist",
          "_whitelist": "Either to whitelist or not"
        }
      },
      "transferOwnership(address)": {
        "details": "Transfer ownership of The AO to new address",
        "params": {
          "_theAO": "The new address to be transferred"
        }
      },
      "updateTAOContentState(bytes32,address,bytes32,uint8,bytes32,bytes32)": {
        "details": "Update the TAO Content State of a T(AO) Content",
        "params": {
          "_contentId": "The ID of the Content",
          "_taoContentState": "The TAO Content state value, i.e Submitted, Pending Review, or Accepted to TAO",
          "_taoId": "The ID of the TAO that initiates the update",
          "_updateTAOContentStateR": "The R part of the signature for this update",
          "_updateTAOContentStateS": "The S part of the signature for this update",
          "_updateTAOContentStateV": "The V part of the signature for this update"
        }
      }
    },
    "title": "AOContent"
  },
  "userdoc": {
    "methods": {}
  }
}