{
  "contractName": "AOContentFactory",
  "abi": [
    {
      "constant": true,
      "inputs": [],
      "name": "aoStakedContentAddress",
      "outputs": [
        {
          "name": "",
          "type": "address"
        }
      ],
      "payable": false,
      "stateMutability": "view",
      "type": "function"
    },
    {
      "constant": true,
      "inputs": [],
      "name": "aoSettingAddress",
      "outputs": [
        {
          "name": "",
          "type": "address"
        }
      ],
      "payable": false,
      "stateMutability": "view",
      "type": "function"
    },
    {
      "constant": true,
      "inputs": [],
      "name": "nameTAOPositionAddress",
      "outputs": [
        {
          "name": "",
          "type": "address"
        }
      ],
      "payable": false,
      "stateMutability": "view",
      "type": "function"
    },
    {
      "constant": true,
      "inputs": [],
      "name": "aoTreasuryAddress",
      "outputs": [
        {
          "name": "",
          "type": "address"
        }
      ],
      "payable": false,
      "stateMutability": "view",
      "type": "function"
    },
    {
      "constant": true,
      "inputs": [],
      "name": "aoContentAddress",
      "outputs": [
        {
          "name": "",
          "type": "address"
        }
      ],
      "payable": false,
      "stateMutability": "view",
      "type": "function"
    },
    {
      "constant": true,
      "inputs": [],
      "name": "aoEarningAddress",
      "outputs": [
        {
          "name": "",
          "type": "address"
        }
      ],
      "payable": false,
      "stateMutability": "view",
      "type": "function"
    },
    {
      "constant": true,
      "inputs": [],
      "name": "aoContentHostAddress",
      "outputs": [
        {
          "name": "",
          "type": "address"
        }
      ],
      "payable": false,
      "stateMutability": "view",
      "type": "function"
    },
    {
      "constant": true,
      "inputs": [
        {
          "name": "",
          "type": "address"
        }
      ],
      "name": "whitelist",
      "outputs": [
        {
          "name": "",
          "type": "bool"
        }
      ],
      "payable": false,
      "stateMutability": "view",
      "type": "function"
    },
    {
      "constant": true,
      "inputs": [],
      "name": "theAO",
      "outputs": [
        {
          "name": "",
          "type": "address"
        }
      ],
      "payable": false,
      "stateMutability": "view",
      "type": "function"
    },
    {
      "constant": true,
      "inputs": [],
      "name": "settingTAOId",
      "outputs": [
        {
          "name": "",
          "type": "address"
        }
      ],
      "payable": false,
      "stateMutability": "view",
      "type": "function"
    },
    {
      "inputs": [
        {
          "name": "_settingTAOId",
          "type": "address"
        },
        {
          "name": "_aoSettingAddress",
          "type": "address"
        },
        {
          "name": "_aoTreasuryAddress",
          "type": "address"
        },
        {
          "name": "_aoContentAddress",
          "type": "address"
        },
        {
          "name": "_aoStakedContentAddress",
          "type": "address"
        },
        {
          "name": "_aoContentHostAddress",
          "type": "address"
        },
        {
          "name": "_aoEarningAddress",
          "type": "address"
        },
        {
          "name": "_nameTAOPositionAddress",
          "type": "address"
        }
      ],
      "payable": false,
      "stateMutability": "nonpayable",
      "type": "constructor"
    },
    {
      "constant": false,
      "inputs": [
        {
          "name": "_theAO",
          "type": "address"
        }
      ],
      "name": "transferOwnership",
      "outputs": [],
      "payable": false,
      "stateMutability": "nonpayable",
      "type": "function"
    },
    {
      "constant": false,
      "inputs": [
        {
          "name": "_account",
          "type": "address"
        },
        {
          "name": "_whitelist",
          "type": "bool"
        }
      ],
      "name": "setWhitelist",
      "outputs": [],
      "payable": false,
      "stateMutability": "nonpayable",
      "type": "function"
    },
    {
      "constant": false,
      "inputs": [
        {
          "name": "_settingTAOId",
          "type": "address"
        }
      ],
      "name": "setSettingTAOId",
      "outputs": [],
      "payable": false,
      "stateMutability": "nonpayable",
      "type": "function"
    },
    {
      "constant": false,
      "inputs": [
        {
          "name": "_aoSettingAddress",
          "type": "address"
        }
      ],
      "name": "setAOSettingAddress",
      "outputs": [],
      "payable": false,
      "stateMutability": "nonpayable",
      "type": "function"
    },
    {
      "constant": false,
      "inputs": [
        {
          "name": "_aoTreasuryAddress",
          "type": "address"
        }
      ],
      "name": "setAOTreasuryAddress",
      "outputs": [],
      "payable": false,
      "stateMutability": "nonpayable",
      "type": "function"
    },
    {
      "constant": false,
      "inputs": [
        {
          "name": "_aoContentAddress",
          "type": "address"
        }
      ],
      "name": "setAOContentAddress",
      "outputs": [],
      "payable": false,
      "stateMutability": "nonpayable",
      "type": "function"
    },
    {
      "constant": false,
      "inputs": [
        {
          "name": "_aoStakedContentAddress",
          "type": "address"
        }
      ],
      "name": "setAOStakedContentAddress",
      "outputs": [],
      "payable": false,
      "stateMutability": "nonpayable",
      "type": "function"
    },
    {
      "constant": false,
      "inputs": [
        {
          "name": "_aoContentHostAddress",
          "type": "address"
        }
      ],
      "name": "setAOContentHostAddress",
      "outputs": [],
      "payable": false,
      "stateMutability": "nonpayable",
      "type": "function"
    },
    {
      "constant": false,
      "inputs": [
        {
          "name": "_aoEarningAddress",
          "type": "address"
        }
      ],
      "name": "setAOEarningAddress",
      "outputs": [],
      "payable": false,
      "stateMutability": "nonpayable",
      "type": "function"
    },
    {
      "constant": false,
      "inputs": [
        {
          "name": "_nameTAOPositionAddress",
          "type": "address"
        }
      ],
      "name": "setNameTAOPositionAddress",
      "outputs": [],
      "payable": false,
      "stateMutability": "nonpayable",
      "type": "function"
    },
    {
      "constant": false,
      "inputs": [
        {
          "name": "_networkIntegerAmount",
          "type": "uint256"
        },
        {
          "name": "_networkFractionAmount",
          "type": "uint256"
        },
        {
          "name": "_denomination",
          "type": "bytes8"
        },
        {
          "name": "_primordialAmount",
          "type": "uint256"
        },
        {
          "name": "_baseChallenge",
          "type": "string"
        },
        {
          "name": "_encChallenge",
          "type": "string"
        },
        {
          "name": "_contentDatKey",
          "type": "string"
        },
        {
          "name": "_metadataDatKey",
          "type": "string"
        },
        {
          "name": "_fileSize",
          "type": "uint256"
        },
        {
          "name": "_profitPercentage",
          "type": "uint256"
        }
      ],
      "name": "stakeAOContent",
      "outputs": [],
      "payable": false,
      "stateMutability": "nonpayable",
      "type": "function"
    },
    {
      "constant": false,
      "inputs": [
        {
          "name": "_networkIntegerAmount",
          "type": "uint256"
        },
        {
          "name": "_networkFractionAmount",
          "type": "uint256"
        },
        {
          "name": "_denomination",
          "type": "bytes8"
        },
        {
          "name": "_primordialAmount",
          "type": "uint256"
        },
        {
          "name": "_baseChallenge",
          "type": "string"
        },
        {
          "name": "_encChallenge",
          "type": "string"
        },
        {
          "name": "_contentDatKey",
          "type": "string"
        },
        {
          "name": "_metadataDatKey",
          "type": "string"
        },
        {
          "name": "_fileSize",
          "type": "uint256"
        }
      ],
      "name": "stakeCreativeCommonsContent",
      "outputs": [],
      "payable": false,
      "stateMutability": "nonpayable",
      "type": "function"
    },
    {
      "constant": false,
      "inputs": [
        {
          "name": "_networkIntegerAmount",
          "type": "uint256"
        },
        {
          "name": "_networkFractionAmount",
          "type": "uint256"
        },
        {
          "name": "_denomination",
          "type": "bytes8"
        },
        {
          "name": "_primordialAmount",
          "type": "uint256"
        },
        {
          "name": "_baseChallenge",
          "type": "string"
        },
        {
          "name": "_encChallenge",
          "type": "string"
        },
        {
          "name": "_contentDatKey",
          "type": "string"
        },
        {
          "name": "_metadataDatKey",
          "type": "string"
        },
        {
          "name": "_fileSize",
          "type": "uint256"
        },
        {
          "name": "_taoId",
          "type": "address"
        }
      ],
      "name": "stakeTAOContent",
      "outputs": [],
      "payable": false,
      "stateMutability": "nonpayable",
      "type": "function"
    },
    {
      "constant": true,
      "inputs": [
        {
          "name": "_stakedContentId",
          "type": "bytes32"
        }
      ],
      "name": "getStakingMetrics",
      "outputs": [
        {
          "name": "",
          "type": "uint256"
        },
        {
          "name": "",
          "type": "uint256"
        },
        {
          "name": "",
          "type": "uint256"
        }
      ],
      "payable": false,
      "stateMutability": "view",
      "type": "function"
    },
    {
      "constant": true,
      "inputs": [
        {
          "name": "_stakedContentId",
          "type": "bytes32"
        }
      ],
      "name": "getEarningMetrics",
      "outputs": [
        {
          "name": "",
          "type": "uint256"
        },
        {
          "name": "",
          "type": "uint256"
        },
        {
          "name": "",
          "type": "uint256"
        }
      ],
      "payable": false,
      "stateMutability": "view",
      "type": "function"
    },
    {
      "constant": true,
      "inputs": [
        {
          "name": "_stakedContentId",
          "type": "bytes32"
        }
      ],
      "name": "getContentMetrics",
      "outputs": [
        {
          "name": "",
          "type": "uint256"
        },
        {
          "name": "",
          "type": "uint256"
        },
        {
          "name": "",
          "type": "uint256"
        },
        {
          "name": "",
          "type": "uint256"
        },
        {
          "name": "",
          "type": "uint256"
        },
        {
          "name": "",
          "type": "uint256"
        }
      ],
      "payable": false,
      "stateMutability": "view",
      "type": "function"
    }
  ],
  "bytecode": "0x60806040523480156200001157600080fd5b50604051610100806200275783398101806040526101008110156200003557600080fd5b50805160208083015160408401516060850151608086015160a087015160c088015160e090980151600080546001600160a01b031916331790559697949693959294919390926200008c90899062000111811b901c565b6200009d87620002a060201b60201c565b620000ae86620003a160201b60201c565b620000bf85620004a260201b60201c565b620000d084620005a360201b60201c565b620000e183620006a460201b60201c565b620000f282620007a560201b60201c565b6200010381620008a660201b60201c565b5050505050505050620009a7565b600054600154604080517ff66afcac0000000000000000000000000000000000000000000000000000000081523360048201526001600160a01b0393841660248201529290911660448301525173__AOLibrary_____________________________9163f66afcac916064808301926020929190829003018186803b1580156200019a57600080fd5b505af4158015620001af573d6000803e3d6000fd5b505050506040513d6020811015620001c657600080fd5b5051620001d257600080fd5b604080517f2fca54140000000000000000000000000000000000000000000000000000000081526001600160a01b0383166004820152905173__AOLibrary_____________________________91632fca5414916024808301926020929190829003018186803b1580156200024657600080fd5b505af41580156200025b573d6000803e3d6000fd5b505050506040513d60208110156200027257600080fd5b50516200027e57600080fd5b600380546001600160a01b0319166001600160a01b0392909216919091179055565b600054600154604080517ff66afcac0000000000000000000000000000000000000000000000000000000081523360048201526001600160a01b0393841660248201529290911660448301525173__AOLibrary_____________________________9163f66afcac916064808301926020929190829003018186803b1580156200032957600080fd5b505af41580156200033e573d6000803e3d6000fd5b505050506040513d60208110156200035557600080fd5b50516200036157600080fd5b6001600160a01b0381166200037557600080fd5b600480546001600160a01b039092166001600160a01b03199283168117909155600a8054909216179055565b600054600154604080517ff66afcac0000000000000000000000000000000000000000000000000000000081523360048201526001600160a01b0393841660248201529290911660448301525173__AOLibrary_____________________________9163f66afcac916064808301926020929190829003018186803b1580156200042a57600080fd5b505af41580156200043f573d6000803e3d6000fd5b505050506040513d60208110156200045657600080fd5b50516200046257600080fd5b6001600160a01b0381166200047657600080fd5b600580546001600160a01b039092166001600160a01b03199283168117909155600b8054909216179055565b600054600154604080517ff66afcac0000000000000000000000000000000000000000000000000000000081523360048201526001600160a01b0393841660248201529290911660448301525173__AOLibrary_____________________________9163f66afcac916064808301926020929190829003018186803b1580156200052b57600080fd5b505af415801562000540573d6000803e3d6000fd5b505050506040513d60208110156200055757600080fd5b50516200056357600080fd5b6001600160a01b0381166200057757600080fd5b600680546001600160a01b039092166001600160a01b03199283168117909155600c8054909216179055565b600054600154604080517ff66afcac0000000000000000000000000000000000000000000000000000000081523360048201526001600160a01b0393841660248201529290911660448301525173__AOLibrary_____________________________9163f66afcac916064808301926020929190829003018186803b1580156200062c57600080fd5b505af415801562000641573d6000803e3d6000fd5b505050506040513d60208110156200065857600080fd5b50516200066457600080fd5b6001600160a01b0381166200067857600080fd5b600780546001600160a01b039092166001600160a01b03199283168117909155600d8054909216179055565b600054600154604080517ff66afcac0000000000000000000000000000000000000000000000000000000081523360048201526001600160a01b0393841660248201529290911660448301525173__AOLibrary_____________________________9163f66afcac916064808301926020929190829003018186803b1580156200072d57600080fd5b505af415801562000742573d6000803e3d6000fd5b505050506040513d60208110156200075957600080fd5b50516200076557600080fd5b6001600160a01b0381166200077957600080fd5b600880546001600160a01b039092166001600160a01b03199283168117909155600e8054909216179055565b600054600154604080517ff66afcac0000000000000000000000000000000000000000000000000000000081523360048201526001600160a01b0393841660248201529290911660448301525173__AOLibrary_____________________________9163f66afcac916064808301926020929190829003018186803b1580156200082e57600080fd5b505af415801562000843573d6000803e3d6000fd5b505050506040513d60208110156200085a57600080fd5b50516200086657600080fd5b6001600160a01b0381166200087a57600080fd5b600980546001600160a01b039092166001600160a01b03199283168117909155600f8054909216179055565b600054600154604080517ff66afcac0000000000000000000000000000000000000000000000000000000081523360048201526001600160a01b0393841660248201529290911660448301525173__AOLibrary_____________________________9163f66afcac916064808301926020929190829003018186803b1580156200092f57600080fd5b505af415801562000944573d6000803e3d6000fd5b505050506040513d60208110156200095b57600080fd5b50516200096757600080fd5b6001600160a01b0381166200097b57600080fd5b600180546001600160a01b039092166001600160a01b0319928316811790915560108054909216179055565b611da080620009b76000396000f3fe608060405234801561001057600080fd5b506004361061018e5760003560e01c806395f04f27116100de578063bb04e60811610097578063d6830af311610071578063d6830af3146108be578063e7c50185146108e4578063e9140274146108ec578063f2fde38b14610b505761018e565b8063bb04e60814610855578063c7061f9714610872578063cd5facb2146108985761018e565b806395f04f27146105255780639b19251a1461052d578063a9b6b38e14610567578063b3a186321461056f578063b527c44e146107ca578063b606bd00146108055761018e565b80634ef033f01161014b5780635f7b99ea116101255780635f7b99ea146104e757806385cb86c8146104ef57806389a83246146104f75780638f6292221461051d5761018e565b80634ef033f01461048b57806353d6fd59146104935780635cfaf2ef146104c15761018e565b806306fd708814610193578063078753ad146101bb57806307a8385e146101df5780631d0138ff146102055780633c19df061461020d5780633e36144f14610465575b600080fd5b6101b9600480360360208110156101a957600080fd5b50356001600160a01b0316610b76565b005b6101c3610c5c565b604080516001600160a01b039092168252519081900360200190f35b6101b9600480360360208110156101f557600080fd5b50356001600160a01b0316610c6b565b6101c3610d51565b6101b9600480360361012081101561022457600080fd5b8135916020810135916001600160c01b03196040830135169160608101359181019060a081016080820135600160201b81111561026057600080fd5b82018360208201111561027257600080fd5b803590602001918460018302840111600160201b8311171561029357600080fd5b91908080601f0160208091040260200160405190810160405280939291908181526020018383808284376000920191909152509295949360208101935035915050600160201b8111156102e557600080fd5b8201836020820111156102f757600080fd5b803590602001918460018302840111600160201b8311171561031857600080fd5b91908080601f0160208091040260200160405190810160405280939291908181526020018383808284376000920191909152509295949360208101935035915050600160201b81111561036a57600080fd5b82018360208201111561037c57600080fd5b803590602001918460018302840111600160201b8311171561039d57600080fd5b91908080601f0160208091040260200160405190810160405280939291908181526020018383808284376000920191909152509295949360208101935035915050600160201b8111156103ef57600080fd5b82018360208201111561040157600080fd5b803590602001918460018302840111600160201b8311171561042257600080fd5b91908080601f0160208091040260200160405190810160405280939291908181526020018383808284376000920191909152509295505091359250610d60915050565b6101b96004803603602081101561047b57600080fd5b50356001600160a01b0316610da4565b6101c3610e8a565b6101b9600480360360408110156104a957600080fd5b506001600160a01b0381351690602001351515610e99565b6101b9600480360360208110156104d757600080fd5b50356001600160a01b0316610f7e565b6101c3611064565b6101c3611073565b6101b96004803603602081101561050d57600080fd5b50356001600160a01b0316611082565b6101c3611168565b6101c3611177565b6105536004803603602081101561054357600080fd5b50356001600160a01b0316611186565b604080519115158252519081900360200190f35b6101c361119b565b6101b9600480360361014081101561058657600080fd5b8135916020810135916001600160c01b03196040830135169160608101359181019060a081016080820135600160201b8111156105c257600080fd5b8201836020820111156105d457600080fd5b803590602001918460018302840111600160201b831117156105f557600080fd5b91908080601f0160208091040260200160405190810160405280939291908181526020018383808284376000920191909152509295949360208101935035915050600160201b81111561064757600080fd5b82018360208201111561065957600080fd5b803590602001918460018302840111600160201b8311171561067a57600080fd5b91908080601f0160208091040260200160405190810160405280939291908181526020018383808284376000920191909152509295949360208101935035915050600160201b8111156106cc57600080fd5b8201836020820111156106de57600080fd5b803590602001918460018302840111600160201b831117156106ff57600080fd5b91908080601f0160208091040260200160405190810160405280939291908181526020018383808284376000920191909152509295949360208101935035915050600160201b81111561075157600080fd5b82018360208201111561076357600080fd5b803590602001918460018302840111600160201b8311171561078457600080fd5b91908080601f01602080910402602001604051908101604052809392919081815260200183838082843760009201919091525092955050823593505050602001356111aa565b6107e7600480360360208110156107e057600080fd5b50356111e7565b60408051938452602084019290925282820152519081900360600190f35b6108226004803603602081101561081b57600080fd5b5035611295565b604080519687526020870195909552858501939093526060850191909152608084015260a0830152519081900360c00190f35b6107e76004803603602081101561086b57600080fd5b50356112d9565b6101b96004803603602081101561088857600080fd5b50356001600160a01b0316611373565b6101b9600480360360208110156108ae57600080fd5b50356001600160a01b0316611459565b6101b9600480360360208110156108d457600080fd5b50356001600160a01b031661153f565b6101c361169a565b6101b9600480360361014081101561090357600080fd5b8135916020810135916001600160c01b03196040830135169160608101359181019060a081016080820135600160201b81111561093f57600080fd5b82018360208201111561095157600080fd5b803590602001918460018302840111600160201b8311171561097257600080fd5b91908080601f0160208091040260200160405190810160405280939291908181526020018383808284376000920191909152509295949360208101935035915050600160201b8111156109c457600080fd5b8201836020820111156109d657600080fd5b803590602001918460018302840111600160201b831117156109f757600080fd5b91908080601f0160208091040260200160405190810160405280939291908181526020018383808284376000920191909152509295949360208101935035915050600160201b811115610a4957600080fd5b820183602082011115610a5b57600080fd5b803590602001918460018302840111600160201b83111715610a7c57600080fd5b91908080601f0160208091040260200160405190810160405280939291908181526020018383808284376000920191909152509295949360208101935035915050600160201b811115610ace57600080fd5b820183602082011115610ae057600080fd5b803590602001918460018302840111600160201b83111715610b0157600080fd5b91908080601f01602080910402602001604051908101604052809392919081815260200183838082843760009201919091525092955050823593505050602001356001600160a01b03166116a9565b6101b960048036036020811015610b6657600080fd5b50356001600160a01b03166116d0565b60005460015460408051600160e21b633d9abf2b0281523360048201526001600160a01b0393841660248201529290911660448301525173__AOLibrary_____________________________9163f66afcac916064808301926020929190829003018186803b158015610be857600080fd5b505af4158015610bfc573d6000803e3d6000fd5b505050506040513d6020811015610c1257600080fd5b5051610c1d57600080fd5b6001600160a01b038116610c3057600080fd5b600480546001600160a01b039092166001600160a01b03199283168117909155600a8054909216179055565b6007546001600160a01b031681565b60005460015460408051600160e21b633d9abf2b0281523360048201526001600160a01b0393841660248201529290911660448301525173__AOLibrary_____________________________9163f66afcac916064808301926020929190829003018186803b158015610cdd57600080fd5b505af4158015610cf1573d6000803e3d6000fd5b505050506040513d6020811015610d0757600080fd5b5051610d1257600080fd5b6001600160a01b038116610d2557600080fd5b600580546001600160a01b039092166001600160a01b03199283168117909155600b8054909216179055565b6004546001600160a01b031681565b610d9033610d8833610d7d338a87610d766117ac565b60006118e2565b8d8d8d8d60006119f5565b868686611ab5565b610d9957600080fd5b505050505050505050565b60005460015460408051600160e21b633d9abf2b0281523360048201526001600160a01b0393841660248201529290911660448301525173__AOLibrary_____________________________9163f66afcac916064808301926020929190829003018186803b158015610e1657600080fd5b505af4158015610e2a573d6000803e3d6000fd5b505050506040513d6020811015610e4057600080fd5b5051610e4b57600080fd5b6001600160a01b038116610e5e57600080fd5b600780546001600160a01b039092166001600160a01b03199283168117909155600d8054909216179055565b6001546001600160a01b031681565b60005460015460408051600160e21b633d9abf2b0281523360048201526001600160a01b0393841660248201529290911660448301525173__AOLibrary_____________________________9163f66afcac916064808301926020929190829003018186803b158015610f0b57600080fd5b505af4158015610f1f573d6000803e3d6000fd5b505050506040513d6020811015610f3557600080fd5b5051610f4057600080fd5b6001600160a01b038216610f5357600080fd5b6001600160a01b03919091166000908152600260205260409020805460ff1916911515919091179055565b60005460015460408051600160e21b633d9abf2b0281523360048201526001600160a01b0393841660248201529290911660448301525173__AOLibrary_____________________________9163f66afcac916064808301926020929190829003018186803b158015610ff057600080fd5b505af4158015611004573d6000803e3d6000fd5b505050506040513d602081101561101a57600080fd5b505161102557600080fd5b6001600160a01b03811661103857600080fd5b600180546001600160a01b039092166001600160a01b0319928316811790915560108054909216179055565b6005546001600160a01b031681565b6006546001600160a01b031681565b60005460015460408051600160e21b633d9abf2b0281523360048201526001600160a01b0393841660248201529290911660448301525173__AOLibrary_____________________________9163f66afcac916064808301926020929190829003018186803b1580156110f457600080fd5b505af4158015611108573d6000803e3d6000fd5b505050506040513d602081101561111e57600080fd5b505161112957600080fd5b6001600160a01b03811661113c57600080fd5b600680546001600160a01b039092166001600160a01b03199283168117909155600c8054909216179055565b6009546001600160a01b031681565b6008546001600160a01b031681565b60026020526000908152604090205460ff1681565b6000546001600160a01b031681565b6111d2336111ca336111c0338b88610d76611c64565b8e8e8e8e896119f5565b878787611ab5565b6111db57600080fd5b50505050505050505050565b600080600080600080600d60009054906101000a90046001600160a01b03166001600160a01b0316632dff0d0d886040518263ffffffff1660e01b8152600401808281526020019150506101006040518083038186803b15801561124a57600080fd5b505afa15801561125e573d6000803e3d6000fd5b505050506040513d61010081101561127557600080fd5b506040810151606082015160809092015190999198509650945050505050565b60008060008060008060008060006112ac8a6111e7565b92509250925060008060006112c08d6112d9565b979f969e50949c509a5092985093965091945050505050565b600f5460408051600160e01b6341fddf9d028152600481018490529051600092839283926001600160a01b03909216916341fddf9d91602480820192606092909190829003018186803b15801561132f57600080fd5b505afa158015611343573d6000803e3d6000fd5b505050506040513d606081101561135957600080fd5b508051602082015160409092015190969195509350915050565b60005460015460408051600160e21b633d9abf2b0281523360048201526001600160a01b0393841660248201529290911660448301525173__AOLibrary_____________________________9163f66afcac916064808301926020929190829003018186803b1580156113e557600080fd5b505af41580156113f9573d6000803e3d6000fd5b505050506040513d602081101561140f57600080fd5b505161141a57600080fd5b6001600160a01b03811661142d57600080fd5b600980546001600160a01b039092166001600160a01b03199283168117909155600f8054909216179055565b60005460015460408051600160e21b633d9abf2b0281523360048201526001600160a01b0393841660248201529290911660448301525173__AOLibrary_____________________________9163f66afcac916064808301926020929190829003018186803b1580156114cb57600080fd5b505af41580156114df573d6000803e3d6000fd5b505050506040513d60208110156114f557600080fd5b505161150057600080fd5b6001600160a01b03811661151357600080fd5b600880546001600160a01b039092166001600160a01b03199283168117909155600e8054909216179055565b60005460015460408051600160e21b633d9abf2b0281523360048201526001600160a01b0393841660248201529290911660448301525173__AOLibrary_____________________________9163f66afcac916064808301926020929190829003018186803b1580156115b157600080fd5b505af41580156115c5573d6000803e3d6000fd5b505050506040513d60208110156115db57600080fd5b50516115e657600080fd5b60408051600160e21b630bf295050281526001600160a01b0383166004820152905173__AOLibrary_____________________________91632fca5414916024808301926020929190829003018186803b15801561164357600080fd5b505af4158015611657573d6000803e3d6000fd5b505050506040513d602081101561166d57600080fd5b505161167857600080fd5b600380546001600160a01b0319166001600160a01b0392909216919091179055565b6003546001600160a01b031681565b6111d2336111ca336116c5338b886116bf611cec565b896118e2565b8e8e8e8e60006119f5565b60005460015460408051600160e21b633d9abf2b0281523360048201526001600160a01b0393841660248201529290911660448301525173__AOLibrary_____________________________9163f66afcac916064808301926020929190829003018186803b15801561174257600080fd5b505af4158015611756573d6000803e3d6000fd5b505050506040513d602081101561176c57600080fd5b505161177757600080fd5b6001600160a01b03811661178a57600080fd5b600080546001600160a01b0319166001600160a01b0392909216919091179055565b600a5460035460408051600160e21b631c196fb70281526001600160a01b03928316600482015260248101829052602060448201527f636f6e74656e745573616765547970655f6372656174697665436f6d6d6f6e736064820152905160009384931691637065bedc9160848083019286929190829003018186803b15801561183457600080fd5b505afa158015611848573d6000803e3d6000fd5b505050506040513d6000823e601f3d908101601f1916820160405260a081101561187157600080fd5b815160208301516040840151606085015160808601805194969395929491939283019291600160201b8111156118a657600080fd5b820160208101848111156118b957600080fd5b8151600160201b8111828201871017156118d257600080fd5b5094995050505050505050505090565b600c54604051600160e11b63686ce5290281526001600160a01b03878116600483019081526044830187905260648301869052848216608484015260a060248401908152885160a48501528851600095939093169363d0d9ca52938b938b938b938b938b93929160c4019060208801908083838f5b8381101561196f578181015183820152602001611957565b50505050905090810190601f16801561199c5780820380516001836020036101000a031916815260200191505b509650505050505050602060405180830381600087803b1580156119bf57600080fd5b505af11580156119d3573d6000803e3d6000fd5b505050506040513d60208110156119e957600080fd5b50519695505050505050565b600d5460408051600160e01b639789f6170281526001600160a01b038a81166004830152602482018a905260448201899052606482018890526001600160c01b03198716608483015260a4820186905260c4820185905291516000939290921691639789f6179160e48082019260209290919082900301818787803b158015611a7d57600080fd5b505af1158015611a91573d6000803e3d6000fd5b505050506040513d6020811015611aa757600080fd5b505198975050505050505050565b6000600e60009054906101000a90046001600160a01b03166001600160a01b0316630da8097d87878787876040518663ffffffff1660e01b815260040180866001600160a01b03166001600160a01b03168152602001858152602001806020018060200180602001848103845287818151815260200191508051906020019080838360005b83811015611b52578181015183820152602001611b3a565b50505050905090810190601f168015611b7f5780820380516001836020036101000a031916815260200191505b50848103835286518152865160209182019188019080838360005b83811015611bb2578181015183820152602001611b9a565b50505050905090810190601f168015611bdf5780820380516001836020036101000a031916815260200191505b50848103825285518152855160209182019187019080838360005b83811015611c12578181015183820152602001611bfa565b50505050905090810190601f168015611c3f5780820380516001836020036101000a031916815260200191505b5098505050505050505050602060405180830381600087803b1580156119bf57600080fd5b600a5460035460408051600160e21b631c196fb70281526001600160a01b03928316600482015260248101829052601a60448201527f636f6e74656e745573616765547970655f616f436f6e74656e740000000000006064820152905160009384931691637065bedc9160848083019286929190829003018186803b15801561183457600080fd5b600a5460035460408051600160e21b631c196fb70281526001600160a01b03928316600482015260248101829052601b60448201527f636f6e74656e745573616765547970655f74616f436f6e74656e7400000000006064820152905160009384931691637065bedc9160848083019286929190829003018186803b15801561183457600080fdfea165627a7a7230582097f02a7754144dbc4be338b2f6e99ce23d50e97d757128263ace0d9ba4a4ec340029",
  "source": "pragma solidity >=0.5.4 <0.6.0;\n\nimport './SafeMath.sol';\nimport './AOLibrary.sol';\nimport './TheAO.sol';\nimport './IAOSetting.sol';\nimport './IAOTreasury.sol';\nimport './IAOContent.sol';\nimport './IAOStakedContent.sol';\nimport './IAOContentHost.sol';\nimport './IAOEarning.sol';\nimport './INameTAOPosition.sol';\n\n/**\n * @title AOContentFactory\n *\n * The purpose of this contract is to allow content creator to stake network AO ions and/or primordial AO+ ions\n * on his/her content\n */\ncontract AOContentFactory is TheAO {\n\tusing SafeMath for uint256;\n\n\taddress public settingTAOId;\n\taddress public aoSettingAddress;\n\taddress public aoTreasuryAddress;\n\taddress public aoContentAddress;\n\taddress public aoStakedContentAddress;\n\taddress public aoContentHostAddress;\n\taddress public aoEarningAddress;\n\n\tIAOSetting internal _aoSetting;\n\tIAOTreasury internal _aoTreasury;\n\tIAOContent internal _aoContent;\n\tIAOStakedContent internal _aoStakedContent;\n\tIAOContentHost internal _aoContentHost;\n\tIAOEarning internal _aoEarning;\n\tINameTAOPosition internal _nameTAOPosition;\n\n\t/**\n\t * @dev Constructor function\n\t * @param _settingTAOId The TAO ID that controls the setting\n\t * @param _aoSettingAddress The address of AOSetting\n\t * @param _aoTreasuryAddress The address of AOTreasury\n\t * @param _aoContentAddress The address of AOContent\n\t * @param _aoStakedContentAddress The address of AOStakedContent\n\t * @param _aoContentHostAddress The address of AOContentHost\n\t * @param _aoEarningAddress The address of AOEarning\n\t * @param _nameTAOPositionAddress The address of NameTAOPosition\n\t */\n\tconstructor(address _settingTAOId,\n\t\taddress _aoSettingAddress,\n\t\taddress _aoTreasuryAddress,\n\t\taddress _aoContentAddress,\n\t\taddress _aoStakedContentAddress,\n\t\taddress _aoContentHostAddress,\n\t\taddress _aoEarningAddress,\n\t\taddress _nameTAOPositionAddress\n\t\t) public {\n\t\tsetSettingTAOId(_settingTAOId);\n\t\tsetAOSettingAddress(_aoSettingAddress);\n\t\tsetAOTreasuryAddress(_aoTreasuryAddress);\n\t\tsetAOContentAddress(_aoContentAddress);\n\t\tsetAOStakedContentAddress(_aoStakedContentAddress);\n\t\tsetAOContentHostAddress(_aoContentHostAddress);\n\t\tsetAOEarningAddress(_aoEarningAddress);\n\t\tsetNameTAOPositionAddress(_nameTAOPositionAddress);\n\t}\n\n\t/**\n\t * @dev Checks if the calling contract address is The AO\n\t *\t\tOR\n\t *\t\tIf The AO is set to a Name/TAO, then check if calling address is the Advocate\n\t */\n\tmodifier onlyTheAO {\n\t\trequire (AOLibrary.isTheAO(msg.sender, theAO, nameTAOPositionAddress));\n\t\t_;\n\t}\n\n\t/***** The AO ONLY METHODS *****/\n\t/**\n\t * @dev Transfer ownership of The AO to new address\n\t * @param _theAO The new address to be transferred\n\t */\n\tfunction transferOwnership(address _theAO) public onlyTheAO {\n\t\trequire (_theAO != address(0));\n\t\ttheAO = _theAO;\n\t}\n\n\t/**\n\t * @dev Whitelist `_account` address to transact on behalf of others\n\t * @param _account The address to whitelist\n\t * @param _whitelist Either to whitelist or not\n\t */\n\tfunction setWhitelist(address _account, bool _whitelist) public onlyTheAO {\n\t\trequire (_account != address(0));\n\t\twhitelist[_account] = _whitelist;\n\t}\n\n\t/**\n\t * @dev The AO sets setting TAO ID\n\t * @param _settingTAOId The new setting TAO ID to set\n\t */\n\tfunction setSettingTAOId(address _settingTAOId) public onlyTheAO {\n\t\trequire (AOLibrary.isTAO(_settingTAOId));\n\t\tsettingTAOId = _settingTAOId;\n\t}\n\n\t/**\n\t * @dev The AO sets AO Setting address\n\t * @param _aoSettingAddress The address of AOSetting\n\t */\n\tfunction setAOSettingAddress(address _aoSettingAddress) public onlyTheAO {\n\t\trequire (_aoSettingAddress != address(0));\n\t\taoSettingAddress = _aoSettingAddress;\n\t\t_aoSetting = IAOSetting(_aoSettingAddress);\n\t}\n\n\t/**\n\t * @dev The AO sets AO Treasury address\n\t * @param _aoTreasuryAddress The address of AOTreasury\n\t */\n\tfunction setAOTreasuryAddress(address _aoTreasuryAddress) public onlyTheAO {\n\t\trequire (_aoTreasuryAddress != address(0));\n\t\taoTreasuryAddress = _aoTreasuryAddress;\n\t\t_aoTreasury = IAOTreasury(_aoTreasuryAddress);\n\t}\n\n\t/**\n\t * @dev The AO sets AOContent address\n\t * @param _aoContentAddress The address of AOContent\n\t */\n\tfunction setAOContentAddress(address _aoContentAddress) public onlyTheAO {\n\t\trequire (_aoContentAddress != address(0));\n\t\taoContentAddress = _aoContentAddress;\n\t\t_aoContent = IAOContent(_aoContentAddress);\n\t}\n\n\t/**\n\t * @dev The AO sets AOStakedContent address\n\t * @param _aoStakedContentAddress The address of AOStakedContent\n\t */\n\tfunction setAOStakedContentAddress(address _aoStakedContentAddress) public onlyTheAO {\n\t\trequire (_aoStakedContentAddress != address(0));\n\t\taoStakedContentAddress = _aoStakedContentAddress;\n\t\t_aoStakedContent = IAOStakedContent(_aoStakedContentAddress);\n\t}\n\n\t/**\n\t * @dev The AO sets AOContentHost address\n\t * @param _aoContentHostAddress The address of AOContentHost\n\t */\n\tfunction setAOContentHostAddress(address _aoContentHostAddress) public onlyTheAO {\n\t\trequire (_aoContentHostAddress != address(0));\n\t\taoContentHostAddress = _aoContentHostAddress;\n\t\t_aoContentHost = IAOContentHost(_aoContentHostAddress);\n\t}\n\n\t/**\n\t * @dev The AO sets AOEarning address\n\t * @param _aoEarningAddress The address of AOEarning\n\t */\n\tfunction setAOEarningAddress(address _aoEarningAddress) public onlyTheAO {\n\t\trequire (_aoEarningAddress != address(0));\n\t\taoEarningAddress = _aoEarningAddress;\n\t\t_aoEarning = IAOEarning(_aoEarningAddress);\n\t}\n\n\t/**\n\t * @dev The AO sets NameTAOPosition address\n\t * @param _nameTAOPositionAddress The address of NameTAOPosition\n\t */\n\tfunction setNameTAOPositionAddress(address _nameTAOPositionAddress) public onlyTheAO {\n\t\trequire (_nameTAOPositionAddress != address(0));\n\t\tnameTAOPositionAddress = _nameTAOPositionAddress;\n\t\t_nameTAOPosition = INameTAOPosition(_nameTAOPositionAddress);\n\t}\n\n\t/***** PUBLIC METHODS *****/\n\t/**\n\t * @dev Stake `_networkIntegerAmount` + `_networkFractionAmount` of network ion in `_denomination` and/or `_primordialAmount` primordial ion for an AO Content\n\t * @param _networkIntegerAmount The integer amount of network ion to stake\n\t * @param _networkFractionAmount The fraction amount of network ion to stake\n\t * @param _denomination The denomination of the network ion, i.e ao, kilo, mega, etc.\n\t * @param _primordialAmount The amount of primordial ion to stake\n\t * @param _baseChallenge The base challenge string (PUBLIC KEY) of the content\n\t * @param _encChallenge The encrypted challenge string (PUBLIC KEY) of the content unique to the host\n\t * @param _contentDatKey The dat key of the content\n\t * @param _metadataDatKey The dat key of the content's metadata\n\t * @param _fileSize The size of the file\n\t * @param _profitPercentage The percentage of profit the stake owner's media will charge\n\t */\n\tfunction stakeAOContent(\n\t\tuint256 _networkIntegerAmount,\n\t\tuint256 _networkFractionAmount,\n\t\tbytes8 _denomination,\n\t\tuint256 _primordialAmount,\n\t\tstring memory _baseChallenge,\n\t\tstring memory _encChallenge,\n\t\tstring memory _contentDatKey,\n\t\tstring memory _metadataDatKey,\n\t\tuint256 _fileSize,\n\t\tuint256 _profitPercentage\n\t\t) public {\n\t\t/**\n\t\t * 1. Store this content\n\t\t * 2. Stake the network/primordial ion on content\n\t\t * 3. Add the node info that hosts this content (in this case the creator himself)\n\t\t */\n\t\trequire (\n\t\t\t_hostContent(\n\t\t\t\tmsg.sender,\n\t\t\t\t_stakeContent(\n\t\t\t\t\tmsg.sender,\n\t\t\t\t\t_storeContent(\n\t\t\t\t\t\tmsg.sender,\n\t\t\t\t\t\t_baseChallenge,\n\t\t\t\t\t\t_fileSize,\n\t\t\t\t\t\t_contentUsageType_aoContent(),\n\t\t\t\t\t\taddress(0)\n\t\t\t\t\t),\n\t\t\t\t\t_networkIntegerAmount,\n\t\t\t\t\t_networkFractionAmount,\n\t\t\t\t\t_denomination,\n\t\t\t\t\t_primordialAmount,\n\t\t\t\t\t_profitPercentage\n\t\t\t\t),\n\t\t\t\t_encChallenge,\n\t\t\t\t_contentDatKey,\n\t\t\t\t_metadataDatKey\n\t\t\t)\n\t\t);\n\t}\n\n\t/**\n\t * @dev Stake `_networkIntegerAmount` + `_networkFractionAmount` of network ion in `_denomination` and/or `_primordialAmount` primordial ion for a Creative Commons Content\n\t * @param _networkIntegerAmount The integer amount of network on to stake\n\t * @param _networkFractionAmount The fraction amount of network ion to stake\n\t * @param _denomination The denomination of the network ion, i.e ao, kilo, mega, etc.\n\t * @param _primordialAmount The amount of primordial ion to stake\n\t * @param _baseChallenge The base challenge string (PUBLIC KEY) of the content\n\t * @param _encChallenge The encrypted challenge string (PUBLIC KEY) of the content unique to the host\n\t * @param _contentDatKey The dat key of the content\n\t * @param _metadataDatKey The dat key of the content's metadata\n\t * @param _fileSize The size of the file\n\t */\n\tfunction stakeCreativeCommonsContent(\n\t\tuint256 _networkIntegerAmount,\n\t\tuint256 _networkFractionAmount,\n\t\tbytes8 _denomination,\n\t\tuint256 _primordialAmount,\n\t\tstring memory _baseChallenge,\n\t\tstring memory _encChallenge,\n\t\tstring memory _contentDatKey,\n\t\tstring memory _metadataDatKey,\n\t\tuint256 _fileSize\n\t\t) public {\n\t\t/**\n\t\t * 1. Store this content\n\t\t * 2. Stake the network/primordial ion on content\n\t\t * 3. Add the node info that hosts this content (in this case the creator himself)\n\t\t */\n\t\trequire (\n\t\t\t_hostContent(\n\t\t\t\tmsg.sender,\n\t\t\t\t_stakeContent(\n\t\t\t\t\tmsg.sender,\n\t\t\t\t\t_storeContent(\n\t\t\t\t\t\tmsg.sender,\n\t\t\t\t\t\t_baseChallenge,\n\t\t\t\t\t\t_fileSize,\n\t\t\t\t\t\t_contentUsageType_creativeCommons(),\n\t\t\t\t\t\taddress(0)\n\t\t\t\t\t),\n\t\t\t\t\t_networkIntegerAmount,\n\t\t\t\t\t_networkFractionAmount,\n\t\t\t\t\t_denomination,\n\t\t\t\t\t_primordialAmount,\n\t\t\t\t\t0\n\t\t\t\t),\n\t\t\t\t_encChallenge,\n\t\t\t\t_contentDatKey,\n\t\t\t\t_metadataDatKey\n\t\t\t)\n\t\t);\n\t}\n\n\t/**\n\t * @dev Stake `_networkIntegerAmount` + `_networkFractionAmount` of network ion in `_denomination` and/or `_primordialAmount` primordial ion for a T(AO) Content\n\t * @param _networkIntegerAmount The integer amount of network ion to stake\n\t * @param _networkFractionAmount The fraction amount of network ion to stake\n\t * @param _denomination The denomination of the network ion, i.e ao, kilo, mega, etc.\n\t * @param _primordialAmount The amount of primordial ion to stake\n\t * @param _baseChallenge The base challenge string (PUBLIC KEY) of the content\n\t * @param _encChallenge The encrypted challenge string (PUBLIC KEY) of the content unique to the host\n\t * @param _contentDatKey The dat key of the content\n\t * @param _metadataDatKey The dat key of the content's metadata\n\t * @param _fileSize The size of the file\n\t * @param _taoId The TAO (TAO) ID for this content (if this is a T(AO) Content)\n\t */\n\tfunction stakeTAOContent(\n\t\tuint256 _networkIntegerAmount,\n\t\tuint256 _networkFractionAmount,\n\t\tbytes8 _denomination,\n\t\tuint256 _primordialAmount,\n\t\tstring memory _baseChallenge,\n\t\tstring memory _encChallenge,\n\t\tstring memory _contentDatKey,\n\t\tstring memory _metadataDatKey,\n\t\tuint256 _fileSize,\n\t\taddress _taoId\n\t\t) public {\n\t\t/**\n\t\t * 1. Store this content\n\t\t * 2. Stake the network/primordial ion on content\n\t\t * 3. Add the node info that hosts this content (in this case the creator himself)\n\t\t */\n\t\trequire (\n\t\t\t_hostContent(\n\t\t\t\tmsg.sender,\n\t\t\t\t_stakeContent(\n\t\t\t\t\tmsg.sender,\n\t\t\t\t\t_storeContent(\n\t\t\t\t\t\tmsg.sender,\n\t\t\t\t\t\t_baseChallenge,\n\t\t\t\t\t\t_fileSize,\n\t\t\t\t\t\t_contentUsageType_taoContent(),\n\t\t\t\t\t\t_taoId\n\t\t\t\t\t),\n\t\t\t\t\t_networkIntegerAmount,\n\t\t\t\t\t_networkFractionAmount,\n\t\t\t\t\t_denomination,\n\t\t\t\t\t_primordialAmount,\n\t\t\t\t\t0\n\t\t\t\t),\n\t\t\t\t_encChallenge,\n\t\t\t\t_contentDatKey,\n\t\t\t\t_metadataDatKey\n\t\t\t)\n\t\t);\n\t}\n\n\t/**\n\t * @dev Return the staking information of a StakedContent ID\n\t * @param _stakedContentId The ID of the staked content\n\t * @return the network base ion amount staked for this content\n\t * @return the primordial ion amount staked for this content\n\t * @return the primordial weighted multiplier of the staked content\n\t */\n\tfunction getStakingMetrics(bytes32 _stakedContentId) public view returns (uint256, uint256, uint256) {\n\t\t(,, uint256 networkAmount, uint256 primordialAmount, uint256 primordialWeightedMultiplier,,,) = _aoStakedContent.getById(_stakedContentId);\n\t\treturn (\n\t\t\tnetworkAmount,\n\t\t\tprimordialAmount,\n\t\t\tprimordialWeightedMultiplier\n\t\t);\n\t}\n\n\t/**\n\t * @dev Return the earning information of a StakedContent ID\n\t * @param _stakedContentId The ID of the staked content\n\t * @return the total earning from staking this content\n\t * @return the total earning from hosting this content\n\t * @return the total The AO earning of this content\n\t */\n\tfunction getEarningMetrics(bytes32 _stakedContentId) public view returns (uint256, uint256, uint256) {\n\t\treturn _aoEarning.getTotalStakedContentEarning(_stakedContentId);\n\t}\n\n\t/**\n\t * @dev Return the staking and earning information of a StakedContent ID\n\t * @param _stakedContentId The ID of the staked content\n\t * @return the network base ion amount staked for this content\n\t * @return the primordial ion amount staked for this content\n\t * @return the primordial weighted multiplier of the staked content\n\t * @return the total earning from staking this content\n\t * @return the total earning from hosting this content\n\t * @return the total The AO earning of this content\n\t */\n\tfunction getContentMetrics(bytes32 _stakedContentId) public view returns (uint256, uint256, uint256, uint256, uint256, uint256) {\n\t\t(uint256 networkAmount, uint256 primordialAmount, uint256 primordialWeightedMultiplier) = getStakingMetrics(_stakedContentId);\n\t\t(uint256 totalStakeEarning, uint256 totalHostEarning, uint256 totalTheAOEarning) = getEarningMetrics(_stakedContentId);\n\t\treturn (\n\t\t\tnetworkAmount,\n\t\t\tprimordialAmount,\n\t\t\tprimordialWeightedMultiplier,\n\t\t\ttotalStakeEarning,\n\t\t\ttotalHostEarning,\n\t\t\ttotalTheAOEarning\n\t\t);\n\t}\n\n\t/***** INTERNAL METHODS *****/\n\t/**\n\t * @dev Get Content Usage Type = AO Content setting\n\t * @return contentUsageType_aoContent Content Usage Type = AO Content\n\t */\n\tfunction _contentUsageType_aoContent() internal view returns (bytes32) {\n\t\t(,,,bytes32 contentUsageType_aoContent,) = _aoSetting.getSettingValuesByTAOName(settingTAOId, 'contentUsageType_aoContent');\n\t\treturn contentUsageType_aoContent;\n\t}\n\n\t/**\n\t * @dev Get Content Usage Type = Creative Commons setting\n\t * @return contentUsageType_creativeCommons Content Usage Type = Creative Commons\n\t */\n\tfunction _contentUsageType_creativeCommons() internal view returns (bytes32) {\n\t\t(,,,bytes32 contentUsageType_creativeCommons,) = _aoSetting.getSettingValuesByTAOName(settingTAOId, 'contentUsageType_creativeCommons');\n\t\treturn contentUsageType_creativeCommons;\n\t}\n\n\t/**\n\t * @dev Get Content Usage Type = TAO Content setting\n\t * @return contentUsageType_taoContent Content Usage Type = T(AO) Content\n\t */\n\tfunction _contentUsageType_taoContent() internal view returns (bytes32) {\n\t\t(,,,bytes32 contentUsageType_taoContent,) = _aoSetting.getSettingValuesByTAOName(settingTAOId, 'contentUsageType_taoContent');\n\t\treturn contentUsageType_taoContent;\n\t}\n\n\t/**\n\t * @dev Store the content information (content creation during staking)\n\t * @param _creator the address of the content creator\n\t * @param _baseChallenge The base challenge string (PUBLIC KEY) of the content\n\t * @param _fileSize The size of the file\n\t * @param _contentUsageType The content usage type, i.e AO Content, Creative Commons, or T(AO) Content\n\t * @param _taoId The TAO (TAO) ID for this content (if this is a T(AO) Content)\n\t * @return the ID of the content\n\t */\n\tfunction _storeContent(address _creator,\n\t\tstring memory _baseChallenge,\n\t\tuint256 _fileSize,\n\t\tbytes32 _contentUsageType,\n\t\taddress _taoId\n\t\t) internal returns (bytes32) {\n\t\treturn _aoContent.create(_creator, _baseChallenge, _fileSize, _contentUsageType, _taoId);\n\t}\n\n\t/**\n\t * @dev Actual staking the content\n\t * @param _stakeOwner the address that stake the content\n\t * @param _contentId The ID of the content\n\t * @param _networkIntegerAmount The integer amount of network ion to stake\n\t * @param _networkFractionAmount The fraction amount of network ion to stake\n\t * @param _denomination The denomination of the network ion, i.e ao, kilo, mega, etc.\n\t * @param _primordialAmount The amount of primordial ion to stake\n\t * @param _profitPercentage The percentage of profit the stake owner's media will charge\n\t * @return the newly created staked content ID\n\t */\n\tfunction _stakeContent(address _stakeOwner,\n\t\tbytes32 _contentId,\n\t\tuint256 _networkIntegerAmount,\n\t\tuint256 _networkFractionAmount,\n\t\tbytes8 _denomination,\n\t\tuint256 _primordialAmount,\n\t\tuint256 _profitPercentage\n\t\t) internal returns (bytes32) {\n\t\treturn _aoStakedContent.create(_stakeOwner, _contentId, _networkIntegerAmount, _networkFractionAmount, _denomination, _primordialAmount, _profitPercentage);\n\t}\n\n\t/**\n\t * @dev Add the distribution node info that hosts the content\n\t * @param _host the address of the host\n\t * @param _stakedContentId The ID of the staked content\n\t * @param _encChallenge The encrypted challenge string (PUBLIC KEY) of the content unique to the host\n\t * @param _contentDatKey The dat key of the content\n\t * @param _metadataDatKey The dat key of the content's metadata\n\t * @return true on success\n\t */\n\tfunction _hostContent(address _host, bytes32 _stakedContentId, string memory _encChallenge, string memory _contentDatKey, string memory _metadataDatKey) internal returns (bool) {\n\t\treturn _aoContentHost.create(_host, _stakedContentId, _encChallenge, _contentDatKey, _metadataDatKey);\n\t}\n}\n",
  "sourcePath": "/usr/local/ao-contracts/contracts/AOContentFactory.sol",
  "compiler": {
    "name": "solc",
    "version": "0.5.6+commit.b259423e.Emscripten.clang"
  },
  "schemaVersion": "3.0.2",
  "updatedAt": "2019-03-26T16:54:31.036Z",
  "devdoc": {
    "methods": {
      "constructor": {
        "details": "Constructor function",
        "params": {
          "_aoContentAddress": "The address of AOContent",
          "_aoContentHostAddress": "The address of AOContentHost",
          "_aoEarningAddress": "The address of AOEarning",
          "_aoSettingAddress": "The address of AOSetting",
          "_aoStakedContentAddress": "The address of AOStakedContent",
          "_aoTreasuryAddress": "The address of AOTreasury",
          "_nameTAOPositionAddress": "The address of NameTAOPosition",
          "_settingTAOId": "The TAO ID that controls the setting"
        }
      },
      "getContentMetrics(bytes32)": {
        "details": "Return the staking and earning information of a StakedContent ID",
        "params": {
          "_stakedContentId": "The ID of the staked content"
        },
        "return": "the network base ion amount staked for this contentthe primordial ion amount staked for this contentthe primordial weighted multiplier of the staked contentthe total earning from staking this contentthe total earning from hosting this contentthe total The AO earning of this content"
      },
      "getEarningMetrics(bytes32)": {
        "details": "Return the earning information of a StakedContent ID",
        "params": {
          "_stakedContentId": "The ID of the staked content"
        },
        "return": "the total earning from staking this contentthe total earning from hosting this contentthe total The AO earning of this content"
      },
      "getStakingMetrics(bytes32)": {
        "details": "Return the staking information of a StakedContent ID",
        "params": {
          "_stakedContentId": "The ID of the staked content"
        },
        "return": "the network base ion amount staked for this contentthe primordial ion amount staked for this contentthe primordial weighted multiplier of the staked content"
      },
      "setAOContentAddress(address)": {
        "details": "The AO sets AOContent address",
        "params": {
          "_aoContentAddress": "The address of AOContent"
        }
      },
      "setAOContentHostAddress(address)": {
        "details": "The AO sets AOContentHost address",
        "params": {
          "_aoContentHostAddress": "The address of AOContentHost"
        }
      },
      "setAOEarningAddress(address)": {
        "details": "The AO sets AOEarning address",
        "params": {
          "_aoEarningAddress": "The address of AOEarning"
        }
      },
      "setAOSettingAddress(address)": {
        "details": "The AO sets AO Setting address",
        "params": {
          "_aoSettingAddress": "The address of AOSetting"
        }
      },
      "setAOStakedContentAddress(address)": {
        "details": "The AO sets AOStakedContent address",
        "params": {
          "_aoStakedContentAddress": "The address of AOStakedContent"
        }
      },
      "setAOTreasuryAddress(address)": {
        "details": "The AO sets AO Treasury address",
        "params": {
          "_aoTreasuryAddress": "The address of AOTreasury"
        }
      },
      "setNameTAOPositionAddress(address)": {
        "details": "The AO sets NameTAOPosition address",
        "params": {
          "_nameTAOPositionAddress": "The address of NameTAOPosition"
        }
      },
      "setSettingTAOId(address)": {
        "details": "The AO sets setting TAO ID",
        "params": {
          "_settingTAOId": "The new setting TAO ID to set"
        }
      },
      "setWhitelist(address,bool)": {
        "details": "Whitelist `_account` address to transact on behalf of others",
        "params": {
          "_account": "The address to whitelist",
          "_whitelist": "Either to whitelist or not"
        }
      },
      "stakeAOContent(uint256,uint256,bytes8,uint256,string,string,string,string,uint256,uint256)": {
        "details": "Stake `_networkIntegerAmount` + `_networkFractionAmount` of network ion in `_denomination` and/or `_primordialAmount` primordial ion for an AO Content",
        "params": {
          "_baseChallenge": "The base challenge string (PUBLIC KEY) of the content",
          "_contentDatKey": "The dat key of the content",
          "_denomination": "The denomination of the network ion, i.e ao, kilo, mega, etc.",
          "_encChallenge": "The encrypted challenge string (PUBLIC KEY) of the content unique to the host",
          "_fileSize": "The size of the file",
          "_metadataDatKey": "The dat key of the content's metadata",
          "_networkFractionAmount": "The fraction amount of network ion to stake",
          "_networkIntegerAmount": "The integer amount of network ion to stake",
          "_primordialAmount": "The amount of primordial ion to stake",
          "_profitPercentage": "The percentage of profit the stake owner's media will charge"
        }
      },
      "stakeCreativeCommonsContent(uint256,uint256,bytes8,uint256,string,string,string,string,uint256)": {
        "details": "Stake `_networkIntegerAmount` + `_networkFractionAmount` of network ion in `_denomination` and/or `_primordialAmount` primordial ion for a Creative Commons Content",
        "params": {
          "_baseChallenge": "The base challenge string (PUBLIC KEY) of the content",
          "_contentDatKey": "The dat key of the content",
          "_denomination": "The denomination of the network ion, i.e ao, kilo, mega, etc.",
          "_encChallenge": "The encrypted challenge string (PUBLIC KEY) of the content unique to the host",
          "_fileSize": "The size of the file",
          "_metadataDatKey": "The dat key of the content's metadata",
          "_networkFractionAmount": "The fraction amount of network ion to stake",
          "_networkIntegerAmount": "The integer amount of network on to stake",
          "_primordialAmount": "The amount of primordial ion to stake"
        }
      },
      "stakeTAOContent(uint256,uint256,bytes8,uint256,string,string,string,string,uint256,address)": {
        "details": "Stake `_networkIntegerAmount` + `_networkFractionAmount` of network ion in `_denomination` and/or `_primordialAmount` primordial ion for a T(AO) Content",
        "params": {
          "_baseChallenge": "The base challenge string (PUBLIC KEY) of the content",
          "_contentDatKey": "The dat key of the content",
          "_denomination": "The denomination of the network ion, i.e ao, kilo, mega, etc.",
          "_encChallenge": "The encrypted challenge string (PUBLIC KEY) of the content unique to the host",
          "_fileSize": "The size of the file",
          "_metadataDatKey": "The dat key of the content's metadata",
          "_networkFractionAmount": "The fraction amount of network ion to stake",
          "_networkIntegerAmount": "The integer amount of network ion to stake",
          "_primordialAmount": "The amount of primordial ion to stake",
          "_taoId": "The TAO (TAO) ID for this content (if this is a T(AO) Content)"
        }
      },
      "transferOwnership(address)": {
        "details": "Transfer ownership of The AO to new address",
        "params": {
          "_theAO": "The new address to be transferred"
        }
      }
    },
    "title": "AOContentFactory * The purpose of this contract is to allow content creator to stake network AO ions and/or primordial AO+ ions on his/her content"
  },
  "userdoc": {
    "methods": {}
  }
}