{
	"contractName": "AOContent",
	"abi": [
		{
			"constant": true,
			"inputs": [],
			"name": "aoDevTeam1",
			"outputs": [
				{
					"name": "",
					"type": "address"
				}
			],
			"payable": false,
			"stateMutability": "view",
			"type": "function"
		},
		{
			"constant": true,
			"inputs": [],
			"name": "killed",
			"outputs": [
				{
					"name": "",
					"type": "bool"
				}
			],
			"payable": false,
			"stateMutability": "view",
			"type": "function"
		},
		{
			"constant": true,
			"inputs": [],
			"name": "totalStakedContents",
			"outputs": [
				{
					"name": "",
					"type": "uint256"
				}
			],
			"payable": false,
			"stateMutability": "view",
			"type": "function"
		},
		{
			"constant": true,
			"inputs": [],
			"name": "totalContents",
			"outputs": [
				{
					"name": "",
					"type": "uint256"
				}
			],
			"payable": false,
			"stateMutability": "view",
			"type": "function"
		},
		{
			"constant": false,
			"inputs": [
				{
					"name": "_account",
					"type": "address"
				},
				{
					"name": "_whitelist",
					"type": "bool"
				}
			],
			"name": "setWhitelist",
			"outputs": [],
			"payable": false,
			"stateMutability": "nonpayable",
			"type": "function"
		},
		{
			"constant": true,
			"inputs": [],
			"name": "paused",
			"outputs": [
				{
					"name": "",
					"type": "bool"
				}
			],
			"payable": false,
			"stateMutability": "view",
			"type": "function"
		},
		{
			"constant": true,
			"inputs": [
				{
					"name": "",
					"type": "address"
				}
			],
			"name": "whitelist",
			"outputs": [
				{
					"name": "",
					"type": "bool"
				}
			],
			"payable": false,
			"stateMutability": "view",
			"type": "function"
		},
		{
			"constant": true,
			"inputs": [],
			"name": "aoDevTeam2",
			"outputs": [
				{
					"name": "",
					"type": "address"
				}
			],
			"payable": false,
			"stateMutability": "view",
			"type": "function"
		},
		{
			"constant": false,
			"inputs": [
				{
					"name": "_aoDevTeam1",
					"type": "address"
				},
				{
					"name": "_aoDevTeam2",
					"type": "address"
				}
			],
			"name": "setAODevTeamAddresses",
			"outputs": [],
			"payable": false,
			"stateMutability": "nonpayable",
			"type": "function"
		},
		{
			"constant": true,
			"inputs": [],
			"name": "nameFactoryAddress",
			"outputs": [
				{
					"name": "",
					"type": "address"
				}
			],
			"payable": false,
			"stateMutability": "view",
			"type": "function"
		},
		{
			"constant": true,
			"inputs": [],
			"name": "baseDenominationAddress",
			"outputs": [
				{
					"name": "",
					"type": "address"
				}
			],
			"payable": false,
			"stateMutability": "view",
			"type": "function"
		},
		{
			"constant": true,
			"inputs": [],
			"name": "treasuryAddress",
			"outputs": [
				{
					"name": "",
					"type": "address"
				}
			],
			"payable": false,
			"stateMutability": "view",
			"type": "function"
		},
		{
			"constant": true,
			"inputs": [],
			"name": "totalContentHosts",
			"outputs": [
				{
					"name": "",
					"type": "uint256"
				}
			],
			"payable": false,
			"stateMutability": "view",
			"type": "function"
		},
		{
			"constant": true,
			"inputs": [],
			"name": "developer",
			"outputs": [
				{
					"name": "",
					"type": "address"
				}
			],
			"payable": false,
			"stateMutability": "view",
			"type": "function"
		},
		{
			"constant": true,
			"inputs": [],
			"name": "settingTAOId",
			"outputs": [
				{
					"name": "",
					"type": "address"
				}
			],
			"payable": false,
			"stateMutability": "view",
			"type": "function"
		},
		{
			"constant": false,
			"inputs": [
				{
					"name": "newDeveloper",
					"type": "address"
				}
			],
			"name": "transferOwnership",
			"outputs": [],
			"payable": false,
			"stateMutability": "nonpayable",
			"type": "function"
		},
		{
			"constant": true,
			"inputs": [],
			"name": "totalPurchaseReceipts",
			"outputs": [
				{
					"name": "",
					"type": "uint256"
				}
			],
			"payable": false,
			"stateMutability": "view",
			"type": "function"
		},
		{
			"constant": true,
			"inputs": [
				{
					"name": "",
					"type": "address"
				},
				{
					"name": "",
					"type": "bytes32"
				}
			],
			"name": "buyerPurchaseReceipts",
			"outputs": [
				{
					"name": "",
					"type": "bytes32"
				}
			],
			"payable": false,
			"stateMutability": "view",
			"type": "function"
		},
		{
			"inputs": [
				{
					"name": "_settingTAOId",
					"type": "address"
				},
				{
					"name": "_aoSettingAddress",
					"type": "address"
				},
				{
					"name": "_baseDenominationAddress",
					"type": "address"
				},
				{
					"name": "_treasuryAddress",
					"type": "address"
				},
				{
					"name": "_earningAddress",
					"type": "address"
				},
				{
					"name": "_nameFactoryAddress",
					"type": "address"
				}
			],
			"payable": false,
			"stateMutability": "nonpayable",
			"type": "constructor"
		},
		{
			"anonymous": false,
			"inputs": [
				{
					"indexed": true,
					"name": "creator",
					"type": "address"
				},
				{
					"indexed": true,
					"name": "contentId",
					"type": "bytes32"
				},
				{
					"indexed": false,
					"name": "fileSize",
					"type": "uint256"
				},
				{
					"indexed": false,
					"name": "contentUsageType",
					"type": "bytes32"
				}
			],
			"name": "StoreContent",
			"type": "event"
		},
		{
			"anonymous": false,
			"inputs": [
				{
					"indexed": true,
					"name": "stakeOwner",
					"type": "address"
				},
				{
					"indexed": true,
					"name": "stakeId",
					"type": "bytes32"
				},
				{
					"indexed": true,
					"name": "contentId",
					"type": "bytes32"
				},
				{
					"indexed": false,
					"name": "baseNetworkAmount",
					"type": "uint256"
				},
				{
					"indexed": false,
					"name": "primordialAmount",
					"type": "uint256"
				},
				{
					"indexed": false,
					"name": "primordialWeightedMultiplier",
					"type": "uint256"
				},
				{
					"indexed": false,
					"name": "profitPercentage",
					"type": "uint256"
				},
				{
					"indexed": false,
					"name": "createdOnTimestamp",
					"type": "uint256"
				}
			],
			"name": "StakeContent",
			"type": "event"
		},
		{
			"anonymous": false,
			"inputs": [
				{
					"indexed": true,
					"name": "host",
					"type": "address"
				},
				{
					"indexed": true,
					"name": "contentHostId",
					"type": "bytes32"
				},
				{
					"indexed": false,
					"name": "stakeId",
					"type": "bytes32"
				},
				{
					"indexed": false,
					"name": "contentDatKey",
					"type": "string"
				},
				{
					"indexed": false,
					"name": "metadataDatKey",
					"type": "string"
				}
			],
			"name": "HostContent",
			"type": "event"
		},
		{
			"anonymous": false,
			"inputs": [
				{
					"indexed": true,
					"name": "stakeOwner",
					"type": "address"
				},
				{
					"indexed": true,
					"name": "stakeId",
					"type": "bytes32"
				},
				{
					"indexed": false,
					"name": "newProfitPercentage",
					"type": "uint256"
				}
			],
			"name": "SetProfitPercentage",
			"type": "event"
		},
		{
			"anonymous": false,
			"inputs": [
				{
					"indexed": true,
					"name": "stakeOwner",
					"type": "address"
				},
				{
					"indexed": true,
					"name": "stakeId",
					"type": "bytes32"
				},
				{
					"indexed": true,
					"name": "contentId",
					"type": "bytes32"
				},
				{
					"indexed": false,
					"name": "remainingNetworkAmount",
					"type": "uint256"
				},
				{
					"indexed": false,
					"name": "remainingPrimordialAmount",
					"type": "uint256"
				},
				{
					"indexed": false,
					"name": "primordialWeightedMultiplier",
					"type": "uint256"
				}
			],
			"name": "UnstakePartialContent",
			"type": "event"
		},
		{
			"anonymous": false,
			"inputs": [
				{
					"indexed": true,
					"name": "stakeOwner",
					"type": "address"
				},
				{
					"indexed": true,
					"name": "stakeId",
					"type": "bytes32"
				}
			],
			"name": "UnstakeContent",
			"type": "event"
		},
		{
			"anonymous": false,
			"inputs": [
				{
					"indexed": true,
					"name": "stakeOwner",
					"type": "address"
				},
				{
					"indexed": true,
					"name": "stakeId",
					"type": "bytes32"
				},
				{
					"indexed": true,
					"name": "contentId",
					"type": "bytes32"
				},
				{
					"indexed": false,
					"name": "currentNetworkAmount",
					"type": "uint256"
				},
				{
					"indexed": false,
					"name": "currentPrimordialAmount",
					"type": "uint256"
				},
				{
					"indexed": false,
					"name": "currentPrimordialWeightedMultiplier",
					"type": "uint256"
				}
			],
			"name": "StakeExistingContent",
			"type": "event"
		},
		{
			"anonymous": false,
			"inputs": [
				{
					"indexed": true,
					"name": "buyer",
					"type": "address"
				},
				{
					"indexed": true,
					"name": "purchaseId",
					"type": "bytes32"
				},
				{
					"indexed": true,
					"name": "contentHostId",
					"type": "bytes32"
				},
				{
					"indexed": false,
					"name": "paidNetworkAmount",
					"type": "uint256"
				},
				{
					"indexed": false,
					"name": "publicKey",
					"type": "string"
				},
				{
					"indexed": false,
					"name": "publicAddress",
					"type": "address"
				},
				{
					"indexed": false,
					"name": "createdOnTimestamp",
					"type": "uint256"
				}
			],
			"name": "BuyContent",
			"type": "event"
		},
		{
			"anonymous": false,
			"inputs": [
				{
					"indexed": true,
					"name": "contentId",
					"type": "bytes32"
				},
				{
					"indexed": true,
					"name": "taoId",
					"type": "address"
				},
				{
					"indexed": false,
					"name": "signer",
					"type": "address"
				},
				{
					"indexed": false,
					"name": "taoContentState",
					"type": "bytes32"
				}
			],
			"name": "UpdateTAOContentState",
			"type": "event"
		},
		{
			"anonymous": false,
			"inputs": [],
			"name": "EscapeHatch",
			"type": "event"
		},
		{
			"constant": false,
			"inputs": [
				{
					"name": "_paused",
					"type": "bool"
				}
			],
			"name": "setPaused",
			"outputs": [],
			"payable": false,
			"stateMutability": "nonpayable",
			"type": "function"
		},
		{
			"constant": false,
			"inputs": [
				{
					"name": "_newBaseDenominationAddress",
					"type": "address"
				}
			],
			"name": "setBaseDenominationAddress",
			"outputs": [],
			"payable": false,
			"stateMutability": "nonpayable",
			"type": "function"
		},
		{
			"constant": false,
			"inputs": [],
			"name": "escapeHatch",
			"outputs": [],
			"payable": false,
			"stateMutability": "nonpayable",
			"type": "function"
		},
		{
			"constant": false,
			"inputs": [
				{
					"name": "_networkIntegerAmount",
					"type": "uint256"
				},
				{
					"name": "_networkFractionAmount",
					"type": "uint256"
				},
				{
					"name": "_denomination",
					"type": "bytes8"
				},
				{
					"name": "_primordialAmount",
					"type": "uint256"
				},
				{
					"name": "_baseChallenge",
					"type": "string"
				},
				{
					"name": "_encChallenge",
					"type": "string"
				},
				{
					"name": "_contentDatKey",
					"type": "string"
				},
				{
					"name": "_metadataDatKey",
					"type": "string"
				},
				{
					"name": "_fileSize",
					"type": "uint256"
				},
				{
					"name": "_profitPercentage",
					"type": "uint256"
				}
			],
			"name": "stakeAOContent",
			"outputs": [],
			"payable": false,
			"stateMutability": "nonpayable",
			"type": "function"
		},
		{
			"constant": false,
			"inputs": [
				{
					"name": "_networkIntegerAmount",
					"type": "uint256"
				},
				{
					"name": "_networkFractionAmount",
					"type": "uint256"
				},
				{
					"name": "_denomination",
					"type": "bytes8"
				},
				{
					"name": "_primordialAmount",
					"type": "uint256"
				},
				{
					"name": "_baseChallenge",
					"type": "string"
				},
				{
					"name": "_encChallenge",
					"type": "string"
				},
				{
					"name": "_contentDatKey",
					"type": "string"
				},
				{
					"name": "_metadataDatKey",
					"type": "string"
				},
				{
					"name": "_fileSize",
					"type": "uint256"
				}
			],
			"name": "stakeCreativeCommonsContent",
			"outputs": [],
			"payable": false,
			"stateMutability": "nonpayable",
			"type": "function"
		},
		{
			"constant": false,
			"inputs": [
				{
					"name": "_networkIntegerAmount",
					"type": "uint256"
				},
				{
					"name": "_networkFractionAmount",
					"type": "uint256"
				},
				{
					"name": "_denomination",
					"type": "bytes8"
				},
				{
					"name": "_primordialAmount",
					"type": "uint256"
				},
				{
					"name": "_baseChallenge",
					"type": "string"
				},
				{
					"name": "_encChallenge",
					"type": "string"
				},
				{
					"name": "_contentDatKey",
					"type": "string"
				},
				{
					"name": "_metadataDatKey",
					"type": "string"
				},
				{
					"name": "_fileSize",
					"type": "uint256"
				},
				{
					"name": "_taoId",
					"type": "address"
				}
			],
			"name": "stakeTAOContent",
			"outputs": [],
			"payable": false,
			"stateMutability": "nonpayable",
			"type": "function"
		},
		{
			"constant": false,
			"inputs": [
				{
					"name": "_stakeId",
					"type": "bytes32"
				},
				{
					"name": "_profitPercentage",
					"type": "uint256"
				}
			],
			"name": "setProfitPercentage",
			"outputs": [],
			"payable": false,
			"stateMutability": "nonpayable",
			"type": "function"
		},
		{
			"constant": false,
			"inputs": [
				{
					"name": "_contentId",
					"type": "bytes32"
				},
				{
					"name": "_extraData",
					"type": "string"
				}
			],
			"name": "setContentExtraData",
			"outputs": [],
			"payable": false,
			"stateMutability": "nonpayable",
			"type": "function"
		},
		{
			"constant": true,
			"inputs": [
				{
					"name": "_contentId",
					"type": "bytes32"
				}
			],
			"name": "contentById",
			"outputs": [
				{
					"name": "",
					"type": "address"
				},
				{
					"name": "",
					"type": "uint256"
				},
				{
					"name": "",
					"type": "bytes32"
				},
				{
					"name": "",
					"type": "address"
				},
				{
					"name": "",
					"type": "bytes32"
				},
				{
					"name": "",
					"type": "uint8"
				},
				{
					"name": "",
					"type": "bytes32"
				},
				{
					"name": "",
					"type": "bytes32"
				},
				{
					"name": "",
					"type": "string"
				}
			],
			"payable": false,
			"stateMutability": "view",
			"type": "function"
		},
		{
			"constant": true,
			"inputs": [
				{
					"name": "_contentHostId",
					"type": "bytes32"
				}
			],
			"name": "contentHostById",
			"outputs": [
				{
					"name": "",
					"type": "bytes32"
				},
				{
					"name": "",
					"type": "address"
				},
				{
					"name": "",
					"type": "string"
				},
				{
					"name": "",
					"type": "string"
				}
			],
			"payable": false,
			"stateMutability": "view",
			"type": "function"
		},
		{
			"constant": true,
			"inputs": [
				{
					"name": "_stakeId",
					"type": "bytes32"
				}
			],
			"name": "stakedContentById",
			"outputs": [
				{
					"name": "",
					"type": "bytes32"
				},
				{
					"name": "",
					"type": "address"
				},
				{
					"name": "",
					"type": "uint256"
				},
				{
					"name": "",
					"type": "uint256"
				},
				{
					"name": "",
					"type": "uint256"
				},
				{
					"name": "",
					"type": "uint256"
				},
				{
					"name": "",
					"type": "bool"
				},
				{
					"name": "",
					"type": "uint256"
				}
			],
			"payable": false,
			"stateMutability": "view",
			"type": "function"
		},
		{
			"constant": false,
			"inputs": [
				{
					"name": "_stakeId",
					"type": "bytes32"
				},
				{
					"name": "_networkIntegerAmount",
					"type": "uint256"
				},
				{
					"name": "_networkFractionAmount",
					"type": "uint256"
				},
				{
					"name": "_denomination",
					"type": "bytes8"
				},
				{
					"name": "_primordialAmount",
					"type": "uint256"
				}
			],
			"name": "unstakePartialContent",
			"outputs": [],
			"payable": false,
			"stateMutability": "nonpayable",
			"type": "function"
		},
		{
			"constant": false,
			"inputs": [
				{
					"name": "_stakeId",
					"type": "bytes32"
				}
			],
			"name": "unstakeContent",
			"outputs": [],
			"payable": false,
			"stateMutability": "nonpayable",
			"type": "function"
		},
		{
			"constant": false,
			"inputs": [
				{
					"name": "_stakeId",
					"type": "bytes32"
				},
				{
					"name": "_networkIntegerAmount",
					"type": "uint256"
				},
				{
					"name": "_networkFractionAmount",
					"type": "uint256"
				},
				{
					"name": "_denomination",
					"type": "bytes8"
				},
				{
					"name": "_primordialAmount",
					"type": "uint256"
				}
			],
			"name": "stakeExistingContent",
			"outputs": [],
			"payable": false,
			"stateMutability": "nonpayable",
			"type": "function"
		},
		{
			"constant": true,
			"inputs": [
				{
					"name": "_contentHostId",
					"type": "bytes32"
				}
			],
			"name": "contentHostPrice",
			"outputs": [
				{
					"name": "",
					"type": "uint256"
				}
			],
			"payable": false,
			"stateMutability": "view",
			"type": "function"
		},
		{
			"constant": true,
			"inputs": [
				{
					"name": "_contentHostId",
					"type": "bytes32"
				}
			],
			"name": "contentHostPaidByAO",
			"outputs": [
				{
					"name": "",
					"type": "uint256"
				}
			],
			"payable": false,
			"stateMutability": "view",
			"type": "function"
		},
		{
			"constant": false,
			"inputs": [
				{
					"name": "_contentHostId",
					"type": "bytes32"
				},
				{
					"name": "_networkIntegerAmount",
					"type": "uint256"
				},
				{
					"name": "_networkFractionAmount",
					"type": "uint256"
				},
				{
					"name": "_denomination",
					"type": "bytes8"
				},
				{
					"name": "_publicKey",
					"type": "string"
				},
				{
					"name": "_publicAddress",
					"type": "address"
				}
			],
			"name": "buyContent",
			"outputs": [],
			"payable": false,
			"stateMutability": "nonpayable",
			"type": "function"
		},
		{
			"constant": true,
			"inputs": [
				{
					"name": "_purchaseId",
					"type": "bytes32"
				}
			],
			"name": "purchaseReceiptById",
			"outputs": [
				{
					"name": "",
					"type": "bytes32"
				},
				{
					"name": "",
					"type": "address"
				},
				{
					"name": "",
					"type": "uint256"
				},
				{
					"name": "",
					"type": "string"
				},
				{
					"name": "",
					"type": "address"
				},
				{
					"name": "",
					"type": "uint256"
				}
			],
			"payable": false,
			"stateMutability": "view",
			"type": "function"
		},
		{
			"constant": false,
			"inputs": [
				{
					"name": "_purchaseId",
					"type": "bytes32"
				},
				{
					"name": "_baseChallengeV",
					"type": "uint8"
				},
				{
					"name": "_baseChallengeR",
					"type": "bytes32"
				},
				{
					"name": "_baseChallengeS",
					"type": "bytes32"
				},
				{
					"name": "_encChallenge",
					"type": "string"
				},
				{
					"name": "_contentDatKey",
					"type": "string"
				},
				{
					"name": "_metadataDatKey",
					"type": "string"
				}
			],
			"name": "becomeHost",
			"outputs": [],
			"payable": false,
			"stateMutability": "nonpayable",
			"type": "function"
		},
		{
			"constant": false,
			"inputs": [
				{
					"name": "_contentId",
					"type": "bytes32"
				},
				{
					"name": "_taoId",
					"type": "address"
				},
				{
					"name": "_taoContentState",
					"type": "bytes32"
				},
				{
					"name": "_updateTAOContentStateV",
					"type": "uint8"
				},
				{
					"name": "_updateTAOContentStateR",
					"type": "bytes32"
				},
				{
					"name": "_updateTAOContentStateS",
					"type": "bytes32"
				}
			],
			"name": "updateTAOContentState",
			"outputs": [],
			"payable": false,
			"stateMutability": "nonpayable",
			"type": "function"
		}
	],
	"bytecode": "0x608060405260018054600160a060020a0319908116735c63644d01ba385ebac5bcf2ddc1e6dbc1182b52179091556002805490911673156c79bf4347d1891da834ea30662a14177cbf2817905534801561005857600080fd5b5060405160c08062005aec83398101604090815281516020830151918301516060840151608085015160a0909501516000805433600160a060020a0319918216178255600980548216600160a060020a03978816179055600a805482169587169586179055600b805482169487169485179055600c8054821693871693909317909255600d80548316909417909355600e80548216909217909155600f80548216958416959095179094556010805490941691909216179091556159c99081906200012390396000f3006080604052600436106101be5763ffffffff60e060020a6000350416630292f88a81146101c357806315227aa7146101e65780631554611f1461021757806316c38b3c1461022c5780631ef7b68a146102465780631f3a0e411461030b578063202352f7146103345780633848627b1461035b5780633c19df061461037057806353d6fd59146104a1578063555ea48c146104c75780635c975abb146105b157806370660f7c146105c65780637b4126f4146105f457806383b01a831461067457806386231b9e146106a757806398c547b8146106bf5780639b19251a1461071d578063a99433a61461073e578063a9e3fd2714610753578063b24626e91461076b578063b380b0d414610792578063b3a18632146107ad578063bc406206146108e5578063c3db397f146108fa578063c44a079514610928578063c5f956af1461093d578063c96a74e514610952578063ca4b208b14610967578063e2499b981461097c578063e57c09bc146109df578063e6ab96ed14610abf578063e7c5018514610ad7578063e914027414610aec578063ef3c053114610c2c578063f2fde38b14610d4a578063f4f0bfeb14610d6b578063fffbd7aa14610d80575b600080fd5b3480156101cf57600080fd5b506101e4600160a060020a0360043516610da4565b005b3480156101f257600080fd5b506101fb610ed7565b60408051600160a060020a039092168252519081900360200190f35b34801561022357600080fd5b506101e4610ee6565b34801561023857600080fd5b506101e46004351515610f4c565b34801561025257600080fd5b5061025e600435610f76565b60408051878152600160a060020a038088166020808401919091529282018790528416608082015260a0810183905260c06060820181815286519183019190915285519192909160e084019187019080838360005b838110156102cb5781810151838201526020016102b3565b50505050905090810190601f1680156102f85780820380516001836020036101000a031916815260200191505b5097505050505050505060405180910390f35b34801561031757600080fd5b506103206110d8565b604080519115158252519081900360200190f35b34801561034057600080fd5b506103496110e6565b60408051918252519081900360200190f35b34801561036757600080fd5b506103496110ec565b34801561037c57600080fd5b50604080516020601f6084356004818101359283018490048402850184019095528184526101e4948035946024803595600160c060020a031960443516956064359536959460a494909391019190819084018382808284375050604080516020601f89358b018035918201839004830284018301909452808352979a99988101979196509182019450925082915084018382808284375050604080516020601f89358b018035918201839004830284018301909452808352979a99988101979196509182019450925082915084018382808284375050604080516020601f89358b018035918201839004830284018301909452808352979a99988101979196509182019450925082915084018382808284375094975050933594506110f29350505050565b3480156104ad57600080fd5b506101e4600160a060020a036004351660243515156114a5565b3480156104d357600080fd5b50604080516020600460843581810135601f81018490048402850184019095528484526101e4948235946024803560ff169560443595606435953695919460a494909391019190819084018382808284375050604080516020601f89358b018035918201839004830284018301909452808352979a99988101979196509182019450925082915084018382808284375050604080516020601f89358b018035918201839004830284018301909452808352979a9998810197919650918201945092508291508401838280828437509497506114e79650505050505050565b3480156105bd57600080fd5b50610320611b4e565b3480156105d257600080fd5b506101e4600435602435604435600160c060020a031960643516608435611b57565b34801561060057600080fd5b50604080516020601f6084356004818101359283018490048402850184019095528184526101e494803594602480359560443595600160c060020a0319606435169536959460a494909391019190819084018382808284375094975050509235600160a060020a0316935061218892505050565b34801561068057600080fd5b506101e4600435600160a060020a036024351660443560ff6064351660843560a4356129d9565b3480156106b357600080fd5b50610349600435612d55565b3480156106cb57600080fd5b5060408051602060046024803582810135601f81018590048502860185019096528585526101e4958335953695604494919390910191908190840183828082843750949750612de79650505050505050565b34801561072957600080fd5b50610320600160a060020a0360043516612e79565b34801561074a57600080fd5b506101fb612e8e565b34801561075f57600080fd5b50610349600435612e9d565b34801561077757600080fd5b506101e4600160a060020a0360043581169060243516612fe3565b34801561079e57600080fd5b506101e4600435602435613028565b3480156107b957600080fd5b50604080516020601f6084356004818101359283018490048402850184019095528184526101e4948035946024803595600160c060020a031960443516956064359536959460a494909391019190819084018382808284375050604080516020601f89358b018035918201839004830284018301909452808352979a99988101979196509182019450925082915084018382808284375050604080516020601f89358b018035918201839004830284018301909452808352979a99988101979196509182019450925082915084018382808284375050604080516020601f89358b018035918201839004830284018301909452808352979a9998810197919650918201945092508291508401838280828437509497505084359550505060209092013591506131799050565b3480156108f157600080fd5b506101fb61346c565b34801561090657600080fd5b506101e4600435602435604435600160c060020a03196064351660843561347b565b34801561093457600080fd5b506101fb61395e565b34801561094957600080fd5b506101fb61396d565b34801561095e57600080fd5b5061034961397c565b34801561097357600080fd5b506101fb613982565b34801561098857600080fd5b50610994600435613991565b60408051988952600160a060020a039097166020890152878701959095526060870193909352608086019190915260a0850152151560c084015260e083015251908190036101000190f35b3480156109eb57600080fd5b506109f7600435613a6c565b60408051600160a060020a03808c16825260208083018c90529282018a9052881660608201526080810187905260ff861660a082015260c0810185905260e08101849052610120610100820181815284519183019190915283519192909161014084019185019080838360005b83811015610a7c578181015183820152602001610a64565b50505050905090810190601f168015610aa95780820380516001836020036101000a031916815260200191505b509a505050505050505050505060405180910390f35b348015610acb57600080fd5b506101e4600435613cac565b348015610ae357600080fd5b506101fb613f52565b348015610af857600080fd5b50604080516020601f6084356004818101359283018490048402850184019095528184526101e4948035946024803595600160c060020a031960443516956064359536959460a494909391019190819084018382808284375050604080516020601f89358b018035918201839004830284018301909452808352979a99988101979196509182019450925082915084018382808284375050604080516020601f89358b018035918201839004830284018301909452808352979a99988101979196509182019450925082915084018382808284375050604080516020601f89358b018035918201839004830284018301909452808352979a9998810197919650918201945092508291508401838280828437509497505084359550505050602090910135600160a060020a03169050613f61565b348015610c3857600080fd5b50610c44600435614381565b60405180856000191660001916815260200184600160a060020a0316600160a060020a031681526020018060200180602001838103835285818151815260200191508051906020019080838360005b83811015610cab578181015183820152602001610c93565b50505050905090810190601f168015610cd85780820380516001836020036101000a031916815260200191505b50838103825284518152845160209182019186019080838360005b83811015610d0b578181015183820152602001610cf3565b50505050905090810190601f168015610d385780820380516001836020036101000a031916815260200191505b50965050505050505060405180910390f35b348015610d5657600080fd5b506101e4600160a060020a03600435166145cf565b348015610d7757600080fd5b50610349614608565b348015610d8c57600080fd5b50610349600160a060020a036004351660243561460e565b600054600160a060020a03163314610dbb57600080fd5b80600160a060020a0316630aa245466040518163ffffffff1660e060020a028152600401602060405180830381600087803b158015610df957600080fd5b505af1158015610e0d573d6000803e3d6000fd5b505050506040513d6020811015610e2357600080fd5b5051158015610e9d575080600160a060020a031663ba2f81706040518163ffffffff1660e060020a028152600401602060405180830381600087803b158015610e6b57600080fd5b505af1158015610e7f573d6000803e3d6000fd5b505050506040513d6020811015610e9557600080fd5b505115156001145b1515610ea857600080fd5b600a8054600160a060020a0319908116600160a060020a039384161791829055600d8054929093169116179055565b600154600160a060020a031681565b600054600160a060020a03163314610efd57600080fd5b600454610100900460ff1615610f1257600080fd5b6004805461ff0019166101001790556040517f16ed36fbe43aed6ba7426b24d35620696380d398f2f22f918dd74e4d3e0ceef990600090a1565b600054600160a060020a03163314610f6357600080fd5b6004805460ff1916911515919091179055565b60008060006060600080610f886157ec565b60008881526018602052604081205411610fa157600080fd5b60008881526018602090815260408083205483526017825291829020825160e0810184528154815260018083015482850152600280840154600160a060020a031683870152600384015460608401526004840180548751601f94821615610100026000190190911692909204928301869004860282018601909652818152919492936080860193919083018282801561107b5780601f106110505761010080835404028352916020019161107b565b820191906000526020600020905b81548152906001019060200180831161105e57829003601f168201915b50505091835250506005820154600160a060020a031660208083019190915260069092015460409182015290820151908201516060830151608084015160a085015160c090950151939d929c50909a509850919650945092505050565b600454610100900460ff1681565b60075481565b60055481565b60045460009060ff161580156111105750600454610100900460ff16155b151561111b57600080fd5b73__AOLibrary_____________________________63455eb777600b60009054906101000a9004600160a060020a03168c8c8c8c8c8c8c8c8c60006040518c63ffffffff1660e060020a028152600401808c600160a060020a0316600160a060020a031681526020018b81526020018a815260200189600160c060020a031916600160c060020a03191681526020018881526020018060200180602001806020018060200187815260200186815260200185810385528b818151815260200191508051906020019080838360005b838110156112015781810151838201526020016111e9565b50505050905090810190601f16801561122e5780820380516001836020036101000a031916815260200191505b5085810384528a5181528a516020918201918c019080838360005b83811015611261578181015183820152602001611249565b50505050905090810190601f16801561128e5780820380516001836020036101000a031916815260200191505b5085810383528951815289516020918201918b019080838360005b838110156112c15781810151838201526020016112a9565b50505050905090810190601f1680156112ee5780820380516001836020036101000a031916815260200191505b5085810382528851815288516020918201918a019080838360005b83811015611321578181015183820152602001611309565b50505050905090810190601f16801561134e5780820380516001836020036101000a031916815260200191505b509f5050505050505050505050505050505060206040518083038186803b15801561137857600080fd5b505af415801561138c573d6000803e3d6000fd5b505050506040513d60208110156113a257600080fd5b505115156113af57600080fd5b600e546040805160e360020a63042fb71d028152600481018d9052602481018c9052600160c060020a03198b16604482015290518492611457928b92600160a060020a039092169163217db8e8916064808201926020929091908290030181600087803b15801561141f57600080fd5b505af1158015611433573d6000803e3d6000fd5b505050506040513d602081101561144957600080fd5b50519063ffffffff61462b16565b1461146157600080fd5b61146961463e565b505050509150506114993361149133611486338b88886000614dec565b8e8e8e8e6000614fec565b8787876154a3565b50505050505050505050565b600054600160a060020a031633146114bc57600080fd5b600160a060020a03919091166000908152600360205260409020805460ff1916911515919091179055565b6114ef6157ec565b6000806114fa615827565b60045460ff161580156115155750600454610100900460ff16155b151561152057600080fd5b60008b8152601860205260408120541161153957600080fd5b60008b81526018602090815260408083205483526017825291829020825160e0810184528154815260018083015482850152600280840154600160a060020a031683870152600384015460608401526004840180548751601f9482161561010002600019019091169290920492830186900486028201860190965281815291949293608086019391908301828280156116135780601f106115e857610100808354040283529160200191611613565b820191906000526020600020905b8154815290600101906020018083116115f657829003601f168201915b50505091835250506005820154600160a060020a03908116602080840191909152600690930154604092830152838301516000908152601684528281205481526015845282812060019081015480835260148652848320548352601390955290839020015491840151939750919550935016331461169057600080fd5b6000828152601260209081526040808320548352601182529182902082516101608101845281548152600180830154600160a060020a031682850152600280840180548751601f9482161561010002600019019091169290920492830186900486028201860187528282529295939493860193909291908301828280156117585780601f1061172d57610100808354040283529160200191611758565b820191906000526020600020905b81548152906001019060200180831161173b57829003601f168201915b5050509183525050600382015460208083019190915260048301546040808401919091526005840154600160a060020a0316606084015260068401546080840152600784015460ff1660a0840152600884015460c0840152600984015460e0840152600a840180548251601f600260018416156101009081026000190190941604908101869004860282018601909452838152940193929091908301828280156118435780601f1061181857610100808354040283529160200191611843565b820191906000526020600020905b81548152906001019060200180831161182657829003601f168201915b50505050508152505090508360a00151600160a060020a031673__AOLibrary_____________________________633d56dca33084604001518e8e8e6040518663ffffffff1660e060020a0281526004018086600160a060020a0316600160a060020a03168152602001806020018560ff1660ff16815260200184600019166000191681526020018360001916600019168152602001828103825286818151815260200191508051906020019080838360005b8381101561190e5781810151838201526020016118f6565b50505050905090810190601f16801561193b5780820380516001836020036101000a031916815260200191505b50965050505050505060206040518083038186803b15801561195c57600080fd5b505af4158015611970573d6000803e3d6000fd5b505050506040513d602081101561198657600080fd5b5051600160a060020a03161461199b57600080fd5b6119a833848989896154a3565b600f60009054906101000a9004600160a060020a0316600160a060020a031663715eb5bc8486602001518e8860600151866060015160136000601460008d6000191660001916815260200190815260200160002054815260200190815260200160002060020160009054906101000a9004600160a060020a031660156000601660008f602001516000191660001916815260200190815260200160002054815260200190815260200160002060020160009054906101000a9004600160a060020a03166040518863ffffffff1660e060020a0281526004018088600019166000191681526020018760001916600019168152602001866000191660001916815260200185815260200184815260200183600160a060020a0316600160a060020a0316815260200182600160a060020a0316600160a060020a03168152602001975050505050505050602060405180830381600087803b158015611b0a57600080fd5b505af1158015611b1e573d6000803e3d6000fd5b505050506040513d6020811015611b3457600080fd5b50511515611b4157600080fd5b5050505050505050505050565b60045460ff1681565b6004546000908190819060ff16158015611b795750600454610100900460ff16155b1515611b8457600080fd5b60008881526014602052604081205411611b9d57600080fd5b600088815260146020908152604080832054835260138252808320600181015484526012835281842054845260119092529091206003015460028201549194509250600160a060020a03163314611bf357600080fd5b6000871180611c025750600086115b80611c0d5750600084115b1515611c1857600080fd5b600b54600184015473__AOLibrary_____________________________9163cf7bb19291600160a060020a0390911690611c51906157a1565b85611c6d8860040154896003015461462b90919063ffffffff16565b6040805160e060020a63ffffffff8816028152600160a060020a039095166004860152921515602485015260448401919091526064830152608482018b905260a482018a9052600160c060020a0319891660c483015260e4820188905251610104808301926020929190829003018186803b158015611ceb57600080fd5b505af4158015611cff573d6000803e3d6000fd5b505050506040513d6020811015611d1557600080fd5b50511515611d2257600080fd5b600084118015611d365750600783015460ff165b8015611d46575060008360040154115b8015611d56575060008360050154115b15611dfc576005830154600d54604080517f281bdaf80000000000000000000000000000000000000000000000000000000081523360048201529051600160a060020a039092169163281bdaf8916024808201926020929091908290030181600087803b158015611dc657600080fd5b505af1158015611dda573d6000803e3d6000fd5b505050506040513d6020811015611df057600080fd5b505114611dfc57600080fd5b60078301805460ff19166001179055600085901a60f860020a027fff000000000000000000000000000000000000000000000000000000000000001615801590611e5057506000871180611e505750600086115b15611fb157600e546040805160e360020a63042fb71d028152600481018a905260248101899052600160c060020a0319881660448201529051600160a060020a039092169163217db8e8916064808201926020929091908290030181600087803b158015611ebd57600080fd5b505af1158015611ed1573d6000803e3d6000fd5b505050506040513d6020811015611ee757600080fd5b50516003840154909150611f01908263ffffffff61462b16565b6003840155600d546002840154604080517f31a8aeb3000000000000000000000000000000000000000000000000000000008152600160a060020a03928316600482015260248101859052905191909216916331a8aeb39160448083019260209291908290030181600087803b158015611f7a57600080fd5b505af1158015611f8e573d6000803e3d6000fd5b505050506040513d6020811015611fa457600080fd5b50511515611fb157600080fd5b6000841115612127576004830154611fcf908563ffffffff61462b16565b600480850191909155600d546002850154604080517f281bdaf8000000000000000000000000000000000000000000000000000000008152600160a060020a03928316948101949094525191169163281bdaf89160248083019260209291908290030181600087803b15801561204457600080fd5b505af1158015612058573d6000803e3d6000fd5b505050506040513d602081101561206e57600080fd5b505160058401819055600d546002850154604080517f7e904f7b000000000000000000000000000000000000000000000000000000008152600160a060020a03928316600482015260248101899052604481019490945251911691637e904f7b9160648083019260209291908290030181600087803b1580156120f057600080fd5b505af1158015612104573d6000803e3d6000fd5b505050506040513d602081101561211a57600080fd5b5051151561212757600080fd5b60018301548354600385015460048601546005870154604080519384526020840192909252828201525133917f7fa32f70b286f05be6f001e570ad7f2e82d767dc5ec7f8e0e585414189184224919081900360600190a45050505050505050565b612190615882565b6121986158b6565b600454600090819060ff161580156121b85750600454610100900460ff16155b15156121c357600080fd5b60008a815260166020526040812054116121dc57600080fd5b85516000106121ea57600080fd5b600160a060020a03851615156121ff57600080fd5b60008a81526016602090815260408083205483526015825291829020825160c0810184528154815260018083015482850152600280840154600160a060020a0316838701526003840180548751601f9482161561010002600019019091169290920492830186900486028201860190965281815291949293606086019391908301828280156122cf5780601f106122a4576101008083540402835291602001916122cf565b820191906000526020600020905b8154815290600101906020018083116122b257829003601f168201915b505050918352505060048201805460408051602060026001851615610100026000190190941693909304601f81018490048402820184019092528181529382019392918301828280156123635780601f1061233857610100808354040283529160200191612363565b820191906000526020600020905b81548152906001019060200180831161234657829003601f168201915b505050918352505060058201805460408051602060026001851615610100026000190190941693909304601f81018490048402820184019092528181529382019392918301828280156123f75780601f106123cc576101008083540402835291602001916123f7565b820191906000526020600020905b8154815290600101906020018083116123da57829003601f168201915b505050919092525050506020808201516000908152601482526040808220548252601383529081902081516101208101835281548152600180830154948201949094526002820154600160a060020a0316928101929092526003810154606083015260048101546080830152600581015460a0830152600681015460c0830152600781015460ff16151560e0830181905260089091015461010083015292965094501480156124c757506000836060015111806124c75750600083608001511180156124c7575060008360a00151115b15156124d257600080fd5b3360009081526019602090815260408083208d8452909152812054901a60f860020a027fff00000000000000000000000000000000000000000000000000000000000000161561252157600080fd5b61252e83602001516157a1565b1561261757600b546080840151606085015173__AOLibrary_____________________________9263749b782092600160a060020a03909116916125779163ffffffff61462b16565b6040805160e060020a63ffffffff8616028152600160a060020a0390931660048401526024830191909152604482018d9052606482018c9052600160c060020a03198b1660848301525160a4808301926020929190829003018186803b1580156125e057600080fd5b505af41580156125f4573d6000803e3d6000fd5b505050506040513d602081101561260a57600080fd5b5051151561261757600080fd5b600880546001019055604080516c010000000000000000000000003081026020808401919091523391909102603483015260488083018e905283518084039091018152606890920192839052815191929182918401908083835b602083106126905780518252601f199092019160209182019101612671565b51815160209384036101000a60001901801990921691161790526040805192909401829003909120600854600090815260179092529290206002810154929650945050600160a060020a03161591506126ea905057600080fd5b818155600181018a9055600281018054600160a060020a031916331790556020830151612716906157a1565b61272157600061273a565b6080830151606084015161273a9163ffffffff61462b16565b600382015585516127549060048301906020890190615902565b50600581018054600160a060020a031916600160a060020a038781169190911790915542600683015560085460008481526018602090815260408083209390935533808352601982528383208f84528252838320879055600f54606089015160808a015160a08b015160c08c01518c87018051895260128852898920548952601190975296889020600301548c890151988e015196519490991698638bca51c99895978c979496939592949093919261280c906157a1565b6040805160e060020a63ffffffff8e16028152600160a060020a039b8c166004820152602481019a909a5260448a01989098526064890196909652608488019490945260a487019290925260c4860152851660e485015290931661010483015291151561012482015290516101448083019260209291908290030181600087803b15801561289957600080fd5b505af11580156128ad573d6000803e3d6000fd5b505050506040513d60208110156128c357600080fd5b505115156128d057600080fd5b600180820154825460028085015460038601546005870154600688015460408051848152600160a060020a039384169181018290526060810183905260806020820181815260048d0180549c8d16156101000260001901909c16989098049082018190529899979893909516967f3c10b75134615097f0bc3a21cea830f73fe2febf6508f010d2f503aa051b369e9694959094919390919060a0830190869080156129bc5780601f10612991576101008083540402835291602001916129bc565b820191906000526020600020905b81548152906001019060200180831161299f57829003601f168201915b50509550505050505060405180910390a450505050505050505050565b6004546000908190819081908190819060ff16158015612a015750600454610100900460ff16155b1515612a0c57600080fd5b60008c81526012602052604081205411612a2557600080fd5b604080517f2fca5414000000000000000000000000000000000000000000000000000000008152600160a060020a038d166004820152905173__AOLibrary_____________________________91632fca5414916024808301926020929190829003018186803b158015612a9857600080fd5b505af4158015612aac573d6000803e3d6000fd5b505050506040513d6020811015612ac257600080fd5b50511515612acf57600080fd5b612ad761463e565b929a5090985096509450505089851480612af057508984145b80612afa57508983145b1515612b0557600080fd5b604080517fb625dd87000000000000000000000000000000000000000000000000000000008152306004820152602481018e9052600160a060020a038d166044820152606481018c905260ff8b16608482015260a481018a905260c48101899052905173__AOLibrary_____________________________9163b625dd879160e4808301926020929190829003018186803b158015612ba357600080fd5b505af4158015612bb7573d6000803e3d6000fd5b505050506040513d6020811015612bcd57600080fd5b505160008d8152601260209081526040808320548352601190915290209092509050600160a060020a03821633148015612cbb5750600c546005820154604080517f0855c5c9000000000000000000000000000000000000000000000000000000008152600160a060020a03938416600482015285841660248201529290911660448301525173__AOLibrary_____________________________91630855c5c9916064808301926020929190829003018186803b158015612c8e57600080fd5b505af4158015612ca2573d6000803e3d6000fd5b505050506040513d6020811015612cb857600080fd5b50515b1515612cc657600080fd5b60048101548614612cd657600080fd5b600681018a905560078101805460ff191660ff8b16179055600881018890556009810187905560408051600160a060020a038481168252602082018d90528251908e16928f927f0528e12829f4904634dd7bd06309457b4867ebd8bdf33ae6a8f6092a9a9461b9929081900390910190a3505050505050505050505050565b6004546000908190819060ff16158015612d775750600454610100900460ff16155b1515612d8257600080fd5b5050600082815260166020908152604080832054835260158252808320600190810154808552601484528285205485526013909352922090910154612dc6816157a1565b15612dd45760009250612de0565b612ddd84612e9d565b92505b5050919050565b60045460009060ff16158015612e055750600454610100900460ff16155b1515612e1057600080fd5b60008381526012602052604081205411612e2957600080fd5b506000828152601260209081526040808320548352601190915290206001810154600160a060020a03163314612e5e57600080fd5b8151612e7390600a8301906020850190615902565b50505050565b60036020526000908152604090205460ff1681565b600254600160a060020a031681565b600080612ea86158b6565b60045460ff16158015612ec35750600454610100900460ff16155b1515612ece57600080fd5b60008481526016602052604081205411612ee757600080fd5b50506000828152601660209081526040808320548352601582528083206001908101548085526014845282852054855260138452938290208251610120810184528154815281830154948101949094526002810154600160a060020a0316928401929092526003820154606084015260048201546080840152600582015460a0840152600682015460c0840152600782015460ff16151560e08401819052600890920154610100840152148015612fbf5750600081606001511180612fbf575060008160800151118015612fbf575060008160a00151115b1515612fca57600080fd5b60808101516060820151612ddd9163ffffffff61462b16565b600054600160a060020a03163314612ffa57600080fd5b60018054600160a060020a03938416600160a060020a03199182161790915560028054929093169116179055565b60045460009060ff161580156130465750600454610100900460ff16155b151561305157600080fd5b73__AOLibrary_____________________________63caf297656040518163ffffffff1660e060020a02815260040160206040518083038186803b15801561309857600080fd5b505af41580156130ac573d6000803e3d6000fd5b505050506040513d60208110156130c257600080fd5b50518211156130d057600080fd5b600083815260146020526040812054116130e957600080fd5b506000828152601460209081526040808320548352601390915290206002810154600160a060020a0316331461311e57600080fd5b61312b81600101546157a1565b151561313657600080fd5b60068101829055604080518381529051849133917f6c4a0cfd4af9f173dec0ac350616d6c855be630c8c83b3cd18879ad5a6bf6d299181900360200190a3505050565b60045460009060ff161580156131975750600454610100900460ff16155b15156131a257600080fd5b73__AOLibrary_____________________________63455eb777600b60009054906101000a9004600160a060020a03168d8d8d8d8d8d8d8d8d8d6040518c63ffffffff1660e060020a028152600401808c600160a060020a0316600160a060020a031681526020018b81526020018a815260200189600160c060020a031916600160c060020a03191681526020018881526020018060200180602001806020018060200187815260200186815260200185810385528b818151815260200191508051906020019080838360005b8381101561328757818101518382015260200161326f565b50505050905090810190601f1680156132b45780820380516001836020036101000a031916815260200191505b5085810384528a5181528a516020918201918c019080838360005b838110156132e75781810151838201526020016132cf565b50505050905090810190601f1680156133145780820380516001836020036101000a031916815260200191505b5085810383528951815289516020918201918b019080838360005b8381101561334757818101518382015260200161332f565b50505050905090810190601f1680156133745780820380516001836020036101000a031916815260200191505b5085810382528851815288516020918201918a019080838360005b838110156133a757818101518382015260200161338f565b50505050905090810190601f1680156133d45780820380516001836020036101000a031916815260200191505b509f5050505050505050505050505050505060206040518083038186803b1580156133fe57600080fd5b505af4158015613412573d6000803e3d6000fd5b505050506040513d602081101561342857600080fd5b5051151561343557600080fd5b61343d61463e565b50505050509050611b41336134643361345a338c89886000614dec565b8f8f8f8f8a614fec565b8888886154a3565b600c54600160a060020a031681565b6004546000908190819060ff1615801561349d5750600454610100900460ff16155b15156134a857600080fd5b600088815260146020526040812054116134c157600080fd5b60008711806134d05750600086115b806134db5750600084115b15156134e657600080fd5b600088815260146020908152604080832054835260138252808320600181015484526012835281842054845260119092529091206003015460028201549194509250600160a060020a0316331461353c57600080fd5b600783015460ff16151560011480156135765750600083600301541180613576575060008360040154118015613576575060008360050154115b151561358157600080fd5b600b546003840154600480860154604080517f6c4ef21e000000000000000000000000000000000000000000000000000000008152600160a060020a0390951692850192909252602484018b9052604484018a9052600160c060020a0319891660648501526084840188905260a484019290925260c483019190915260e482018490525173__AOLibrary_____________________________91636c4ef21e91610104808301926020929190829003018186803b15801561364157600080fd5b505af4158015613655573d6000803e3d6000fd5b505050506040513d602081101561366b57600080fd5b5051151561367857600080fd5b7fff0000000000000000000000000000000000000000000000000000000000000060f860020a600087901a0216158015906136bd575060008711806136bd5750600086115b1561381757600e546040805160e360020a63042fb71d028152600481018a905260248101899052600160c060020a0319881660448201529051600160a060020a039092169163217db8e8916064808201926020929091908290030181600087803b15801561372a57600080fd5b505af115801561373e573d6000803e3d6000fd5b505050506040513d602081101561375457600080fd5b5051600384015490915061376e908263ffffffff6157da16565b6003840155600d54604080517f731a3b06000000000000000000000000000000000000000000000000000000008152336004820152602481018490529051600160a060020a039092169163731a3b06916044808201926020929091908290030181600087803b1580156137e057600080fd5b505af11580156137f4573d6000803e3d6000fd5b505050506040513d602081101561380a57600080fd5b5051151561381757600080fd5b60008411156138ef576004830154613835908563ffffffff6157da16565b600480850191909155600d546005850154604080517f74ead7b7000000000000000000000000000000000000000000000000000000008152339481019490945260248401889052604484019190915251600160a060020a03909116916374ead7b79160648083019260209291908290030181600087803b1580156138b857600080fd5b505af11580156138cc573d6000803e3d6000fd5b505050506040513d60208110156138e257600080fd5b505115156138ef57600080fd5b6001830154835460028501546003860154600487015460058801546040805193845260208401929092528282015251600160a060020a03909216917f645f75eb984f0b89f1e9887da267d2025a37764e7bd6537b7d7eff900e8725eb9181900360600190a45050505050505050565b600a54600160a060020a031681565b600b54600160a060020a031681565b60065481565b600054600160a060020a031681565b6000806000806000806000806139a56158b6565b60008a815260146020526040812054116139be57600080fd5b5050506000968752505060146020908152604080872054875260138252958690208651610120810188528154815260018201549281018390526002820154600160a060020a0316978101889052600382015460608201819052600483015460808301819052600584015460a08401819052600685015460c08501819052600786015460ff16151560e08601819052600890960154610100909501859052959b92995090975095509293509091565b6000806000806000806000806060613a82615827565b60008b81526012602052604081205411613a9b57600080fd5b60008b8152601260209081526040808320548352601182529182902082516101608101845281548152600180830154600160a060020a031682850152600280840180548751601f948216156101000260001901909116929092049283018690048602820186018752828252929593949386019390929190830182828015613b635780601f10613b3857610100808354040283529160200191613b63565b820191906000526020600020905b815481529060010190602001808311613b4657829003601f168201915b5050509183525050600382015460208083019190915260048301546040808401919091526005840154600160a060020a0316606084015260068401546080840152600784015460ff1660a0840152600884015460c0840152600984015460e0840152600a840180548251601f60026001841615610100908102600019019094160490810186900486028201860190945283815294019392909190830182828015613c4e5780601f10613c2357610100808354040283529160200191613c4e565b820191906000526020600020905b815481529060010190602001808311613c3157829003601f168201915b50505050508152505090508060200151816060015182608001518360a001518460c001518560e00151866101000151876101200151886101400151809050995099509950995099509950995099509950509193959799909294969850565b60045460009081908190819060ff16158015613cd05750600454610100900460ff16155b1515613cdb57600080fd5b60008581526014602052604081205411613cf457600080fd5b6000858152601460209081526040808320548352601390915290206002810154909450600160a060020a03163314613d2b57600080fd5b600784015460ff1615156001148015613d655750600084600301541180613d65575060008460040154118015613d65575060008460050154115b1515613d7057600080fd5b60078401805460ff19169055600384015460001015613e3c57600384018054600091829055600d54604080517f731a3b06000000000000000000000000000000000000000000000000000000008152336004820152602481018490529051929650600160a060020a039091169263731a3b06926044808401936020939083900390910190829087803b158015613e0557600080fd5b505af1158015613e19573d6000803e3d6000fd5b505050506040513d6020811015613e2f57600080fd5b50511515613e3c57600080fd5b600084600401541115613f125750506004808301805460058501805460009384905590839055600d54604080517f74ead7b7000000000000000000000000000000000000000000000000000000008152339681019690965260248601849052604486018390525192949193600160a060020a03909116926374ead7b7926064808201936020939283900390910190829087803b158015613edb57600080fd5b505af1158015613eef573d6000803e3d6000fd5b505050506040513d6020811015613f0557600080fd5b50511515613f1257600080fd5b60028401546040518691600160a060020a0316907eeb6a306a149d2ec8a5e5f228483a31d06863f4cd48237ddf5c1c236805def890600090a35050505050565b600954600160a060020a031681565b60045460009060ff16158015613f7f5750600454610100900460ff16155b1515613f8a57600080fd5b73__AOLibrary_____________________________63455eb777600b60009054906101000a9004600160a060020a03168d8d8d8d8d8d8d8d8d60006040518c63ffffffff1660e060020a028152600401808c600160a060020a0316600160a060020a031681526020018b81526020018a815260200189600160c060020a031916600160c060020a03191681526020018881526020018060200180602001806020018060200187815260200186815260200185810385528b818151815260200191508051906020019080838360005b83811015614070578181015183820152602001614058565b50505050905090810190601f16801561409d5780820380516001836020036101000a031916815260200191505b5085810384528a5181528a516020918201918c019080838360005b838110156140d05781810151838201526020016140b8565b50505050905090810190601f1680156140fd5780820380516001836020036101000a031916815260200191505b5085810383528951815289516020918201918b019080838360005b83811015614130578181015183820152602001614118565b50505050905090810190601f16801561415d5780820380516001836020036101000a031916815260200191505b5085810382528851815288516020918201918a019080838360005b83811015614190578181015183820152602001614178565b50505050905090810190601f1680156141bd5780820380516001836020036101000a031916815260200191505b509f5050505050505050505050505050505060206040518083038186803b1580156141e757600080fd5b505af41580156141fb573d6000803e3d6000fd5b505050506040513d602081101561421157600080fd5b5051151561421e57600080fd5b600e546040805160e360020a63042fb71d028152600481018e9052602481018d9052600160c060020a03198c1660448201529051859261428e928c92600160a060020a039092169163217db8e8916064808201926020929091908290030181600087803b15801561141f57600080fd5b1480156143475750600c54604080517f0855c5c9000000000000000000000000000000000000000000000000000000008152600160a060020a03928316600482015233602482015291841660448301525173__AOLibrary_____________________________91630855c5c9916064808301926020929190829003018186803b15801561431a57600080fd5b505af415801561432e573d6000803e3d6000fd5b505050506040513d602081101561434457600080fd5b50515b151561435257600080fd5b61435a61463e565b50505092505050611b413361346433614376338c89888a614dec565b8f8f8f8f6000614fec565b60008060608061438f615882565b600086815260166020526040812054116143a857600080fd5b60008681526016602090815260408083205483526015825291829020825160c0810184528154815260018083015482850152600280840154600160a060020a0316838701526003840180548751601f9482161561010002600019019091169290920492830186900486028201860190965281815291949293606086019391908301828280156144785780601f1061444d57610100808354040283529160200191614478565b820191906000526020600020905b81548152906001019060200180831161445b57829003601f168201915b505050918352505060048201805460408051602060026001851615610100026000190190941693909304601f810184900484028201840190925281815293820193929183018282801561450c5780601f106144e15761010080835404028352916020019161450c565b820191906000526020600020905b8154815290600101906020018083116144ef57829003601f168201915b505050918352505060058201805460408051602060026001851615610100026000190190941693909304601f81018490048402820184019092528181529382019392918301828280156145a05780601f10614575576101008083540402835291602001916145a0565b820191906000526020600020905b81548152906001019060200180831161458357829003601f168201915b5050509190925250505060208101516040820151608083015160a0909301519199909850919650945092505050565b600054600160a060020a031633146145e657600080fd5b60008054600160a060020a031916600160a060020a0392909216919091179055565b60085481565b601960209081526000928352604080842090915290825290205481565b8181018281101561463857fe5b92915050565b6010546009546040805160e260020a631c196fb7028152600160a060020a03928316600482015260248101829052601a60448201527f636f6e74656e745573616765547970655f616f436f6e74656e7400000000000060648201529051600093849384938493849384938493849384938493849384939190921691637065bedc916084808301928692919082900301818387803b1580156146de57600080fd5b505af11580156146f2573d6000803e3d6000fd5b505050506040513d6000823e601f3d908101601f1916820160405260a081101561471b57600080fd5b81516020830151604084015160608501516080860180519496939592949193928301929164010000000081111561475157600080fd5b8201602081018481111561476457600080fd5b815164010000000081118282018710171561477e57600080fd5b5050929190505050509850505050601060009054906101000a9004600160a060020a0316600160a060020a0316637065bedc600960009054906101000a9004600160a060020a03166040518263ffffffff1660e060020a0281526004018082600160a060020a0316600160a060020a0316815260200180602001828103825260208152602001807f636f6e74656e745573616765547970655f6372656174697665436f6d6d6f6e7381525060200192505050600060405180830381600087803b15801561484a57600080fd5b505af115801561485e573d6000803e3d6000fd5b505050506040513d6000823e601f3d908101601f1916820160405260a081101561488757600080fd5b8151602083015160408401516060850151608086018051949693959294919392830192916401000000008111156148bd57600080fd5b820160208101848111156148d057600080fd5b81516401000000008111828201871017156148ea57600080fd5b50506010546009546040805160e260020a631c196fb7028152600160a060020a03928316600482015260248101829052601b60448201527f636f6e74656e745573616765547970655f74616f436f6e74656e74000000000060648201529051979f5091169850637065bedc97506084808201975060009695509085900301925083915084905087803b15801561497f57600080fd5b505af1158015614993573d6000803e3d6000fd5b505050506040513d6000823e601f3d908101601f1916820160405260a08110156149bc57600080fd5b8151602083015160408401516060850151608086018051949693959294919392830192916401000000008111156149f257600080fd5b82016020810184811115614a0557600080fd5b8151640100000000811182820187101715614a1f57600080fd5b50506010546009546040805160e260020a631c196fb7028152600160a060020a03928316600482015260248101829052601960448201527f74616f436f6e74656e7453746174655f7375626d69747465640000000000000060648201529051979e5091169850637065bedc97506084808201975060009695509085900301925083915084905087803b158015614ab457600080fd5b505af1158015614ac8573d6000803e3d6000fd5b505050506040513d6000823e601f3d908101601f1916820160405260a0811015614af157600080fd5b815160208301516040840151606085015160808601805194969395929491939283019291640100000000811115614b2757600080fd5b82016020810184811115614b3a57600080fd5b8151640100000000811182820187101715614b5457600080fd5b50506010546009546040805160e260020a631c196fb7028152600160a060020a03928316600482015260248101829052601d60448201527f74616f436f6e74656e7453746174655f70656e64696e6752657669657700000060648201529051979d5091169850637065bedc97506084808201975060009695509085900301925083915084905087803b158015614be957600080fd5b505af1158015614bfd573d6000803e3d6000fd5b505050506040513d6000823e601f3d908101601f1916820160405260a0811015614c2657600080fd5b815160208301516040840151606085015160808601805194969395929491939283019291640100000000811115614c5c57600080fd5b82016020810184811115614c6f57600080fd5b8151640100000000811182820187101715614c8957600080fd5b50506010546009546040805160e260020a631c196fb7028152600160a060020a03928316600482015260248101829052601d60448201527f74616f436f6e74656e7453746174655f6163636570746564546f54414f00000060648201529051979c5091169850637065bedc97506084808201975060009695509085900301925083915084905087803b158015614d1e57600080fd5b505af1158015614d32573d6000803e3d6000fd5b505050506040513d6000823e601f3d908101601f1916820160405260a0811015614d5b57600080fd5b815160208301516040840151606085015160808601805194969395929491939283019291640100000000811115614d9157600080fd5b82016020810184811115614da457600080fd5b8151640100000000811182820187101715614dbe57600080fd5b50509291905050505093505050508585858585859b509b509b509b509b509b50505050505050909192939495565b6005805460010190819055604080516c01000000000000000000000000308102602080840191909152600160a060020a038a169091026034830152604880830194909452825180830390940184526068909101918290528251600093849384938493849392918291908401908083835b60208310614e7b5780518252601f199092019160209182019101614e5c565b51815160209384036101000a60001901801990921691161790526040805192909401829003909120600554600090815260119092529290206001810154929850965050600160a060020a0316159150614ed5905057600080fd5b614edd61463e565b505093509350505083836000018160001916905550898360010160006101000a815481600160a060020a030219169083600160a060020a0316021790555088836002019080519060200190614f33929190615902565b50600383018890556004830187905581871415614f6f5760068301819055600583018054600160a060020a031916600160a060020a0388161790555b60055460008581526012602090815260409182902092909255845460018601546003870154600488015484519182529481019490945282519193600160a060020a03909116927fe57c42bf3a4425cef2daf5daea09e512a58183eac320e1480456a511a6afe7cd92918290030190a3505054979650505050505050565b600780546001019055604080516c01000000000000000000000000308102602080840191909152600160a060020a038b16909102603483015260488083018a905283518084039091018152606890920192839052815160009384938493909282918401908083835b602083106150735780518252601f199092019160209182019101615054565b51815160209384036101000a60001901801990921691161790526040805192909401829003909120600754600090815260139092529290206002810154929650945050600160a060020a03161591506150cd905057600080fd5b81815560018082018a9055600282018054600160a060020a031916600160a060020a038d16179055600682018590556007808301805460ff19169092179091554260088301555460008381526014602052604081209190915586901a60f860020a027effffffffffffffffffffffffffffffffffffffffffffffffffffffffffffff1916600060f860020a0214158015615171575060008811806151715750600087115b156152b957600e546040805160e360020a63042fb71d028152600481018b9052602481018a9052600160c060020a0319891660448201529051600160a060020a039092169163217db8e8916064808201926020929091908290030181600087803b1580156151de57600080fd5b505af11580156151f2573d6000803e3d6000fd5b505050506040513d602081101561520857600080fd5b505160038201819055600d54604080517f31a8aeb3000000000000000000000000000000000000000000000000000000008152600160a060020a038e811660048301526024820194909452905192909116916331a8aeb3916044808201926020929091908290030181600087803b15801561528257600080fd5b505af1158015615296573d6000803e3d6000fd5b505050506040513d60208110156152ac57600080fd5b505115156152b957600080fd5b6000851115615419576004808201869055600d546002830154604080517f281bdaf8000000000000000000000000000000000000000000000000000000008152600160a060020a03928316948101949094525191169163281bdaf89160248083019260209291908290030181600087803b15801561533657600080fd5b505af115801561534a573d6000803e3d6000fd5b505050506040513d602081101561536057600080fd5b505160058201819055600d546002830154604080517f7e904f7b000000000000000000000000000000000000000000000000000000008152600160a060020a039283166004820152602481018a9052604481019490945251911691637e904f7b9160648083019260209291908290030181600087803b1580156153e257600080fd5b505af11580156153f6573d6000803e3d6000fd5b505050506040513d602081101561540c57600080fd5b5051151561541957600080fd5b60018101548154600283015460038401546004850154600586015460068701546008880154604080519586526020860194909452848401929092526060840152608083015251600160a060020a03909216917f8e4070fcd0119c9df9d24fa5f6be85f7b7951b6b226bea5b3509e5a97b03b6879181900360a00190a4549998505050505050505050565b600080600085511115156154b657600080fd5b83516000106154c457600080fd5b82516000106154d257600080fd5b600086815260146020526040812054116154eb57600080fd5b600680546001019055604080516c01000000000000000000000000308102602080840191909152600160a060020a038b16909102603483015260488083018a905283518084039091018152606890920192839052815191929182918401908083835b6020831061556c5780518252601f19909201916020918201910161554d565b51815160209384036101000a60001901801990921691161790526040805192909401829003909120600654600090815260159092529290206002810154929650945050600160a060020a03161591506155c6905057600080fd5b81815560018101869055600281018054600160a060020a031916600160a060020a03891617905584516156029060038301906020880190615902565b5083516156189060048301906020870190615902565b50825161562e9060058301906020860190615902565b506006546000838152601660209081526040918290209290925582546002808501546001808701548551818152606097810188815260048a018054948516156101000260001901909416959095049781018890529496600160a060020a03909316957ff0f838e428cacd8f5b84897fb23a2f3f9da3898d1b2ff5fe647fa9b6e7c3789b959194929360058a0193918301906080840190869080156157135780601f106156e857610100808354040283529160200191615713565b820191906000526020600020905b8154815290600101906020018083116156f657829003601f168201915b50508381038252845460026000196101006001841615020190911604808252602090910190859080156157875780601f1061575c57610100808354040283529160200191615787565b820191906000526020600020905b81548152906001019060200180831161576a57829003601f168201915b50509550505050505060405180910390a350505050505050565b6000806157ac61463e565b5050506000958652505060126020908152604080862054865260119091529093206004015490921492915050565b6000828211156157e657fe5b50900390565b6040805160e0810182526000808252602082018190529181018290526060808201839052608082015260a0810182905260c081019190915290565b604080516101608101825260008082526020820181905260609282018390528282018190526080820181905260a0820181905260c0820181905260e08201819052610100820181905261012082015261014081019190915290565b6040805160c0810182526000808252602082018190529181019190915260608082018190526080820181905260a082015290565b6040805161012081018252600080825260208201819052918101829052606081018290526080810182905260a0810182905260c0810182905260e0810182905261010081019190915290565b828054600181600116156101000203166002900490600052602060002090601f016020900481019282601f1061594357805160ff1916838001178555615970565b82800160010185558215615970579182015b82811115615970578251825591602001919060010190615955565b5061597c929150615980565b5090565b61599a91905b8082111561597c5760008155600101615986565b905600a165627a7a723058209c8469685ae7c44c1353a1abc427f64285f2b5ac64d9b0300d1fb3d1d526a07c0029",
	"source": "pragma solidity ^0.4.24;\n\nimport './SafeMath.sol';\nimport './developed.sol';\nimport './AOToken.sol';\nimport './AOTreasury.sol';\nimport './AOEarning.sol';\nimport './AOLibrary.sol';\nimport './AOSetting.sol';\n\n/**\n * @title AOContent\n *\n * The purpose of this contract is to allow content creator to stake network ERC20 AO tokens and/or primordial AO Tokens\n * on his/her content\n */\ncontract AOContent is developed {\n\tusing SafeMath for uint256;\n\n\tbool public paused;\n\tbool public killed;\n\tuint256 public totalContents;\n\tuint256 public totalContentHosts;\n\tuint256 public totalStakedContents;\n\tuint256 public totalPurchaseReceipts;\n\n\taddress public settingTAOId;\n\taddress public baseDenominationAddress;\n\taddress public treasuryAddress;\n\taddress public nameFactoryAddress;\n\n\tAOToken internal _baseAO;\n\tAOTreasury internal _treasury;\n\tAOEarning internal _earning;\n\tAOSetting internal _aoSetting;\n\n\tstruct Content {\n\t\tbytes32 contentId;\n\t\taddress creator;\n\t\t/**\n\t\t * baseChallenge is the content's PUBLIC KEY\n\t\t * When a request node wants to be a host, it is required to send a signed base challenge (its content's PUBLIC KEY)\n\t\t * so that the contract can verify the authenticity of the content by comparing what the contract has and what the request node\n\t\t * submit\n\t\t */\n\t\tstring baseChallenge;\n\t\tuint256 fileSize;\n\t\tbytes32 contentUsageType; // i.e AO Content, Creative Commons, or T(AO) Content\n\t\taddress taoId;\n\t\tbytes32 taoContentState; // i.e Submitted, Pending Review, Accepted to TAO\n\t\tuint8 updateTAOContentStateV;\n\t\tbytes32 updateTAOContentStateR;\n\t\tbytes32 updateTAOContentStateS;\n\t\tstring extraData;\n\t}\n\n\tstruct StakedContent {\n\t\tbytes32 stakeId;\n\t\tbytes32 contentId;\n\t\taddress stakeOwner;\n\t\tuint256 networkAmount; // total network token staked in base denomination\n\t\tuint256 primordialAmount;\t// the amount of primordial AO Token to stake (always in base denomination)\n\t\tuint256 primordialWeightedMultiplier;\n\t\tuint256 profitPercentage; // support up to 4 decimals, 100% = 1000000\n\t\tbool active; // true if currently staked, false when unstaked\n\t\tuint256 createdOnTimestamp;\n\t}\n\n\tstruct ContentHost {\n\t\tbytes32 contentHostId;\n\t\tbytes32 stakeId;\n\t\taddress host;\n\t\t/**\n\t\t * encChallenge is the content's PUBLIC KEY unique to the host\n\t\t */\n\t\tstring encChallenge;\n\t\tstring contentDatKey;\n\t\tstring metadataDatKey;\n\t}\n\n\tstruct PurchaseReceipt {\n\t\tbytes32 purchaseId;\n\t\tbytes32 contentHostId;\n\t\taddress buyer;\n\t\tuint256 networkAmount; // total network token paid in base denomination\n\t\tstring publicKey; // The public key provided by request node\n\t\taddress publicAddress; // The public address provided by request node\n\t\tuint256 createdOnTimestamp;\n\t}\n\n\t// Mapping from Content index to the Content object\n\tmapping (uint256 => Content) internal contents;\n\n\t// Mapping from content ID to index of the contents list\n\tmapping (bytes32 => uint256) internal contentIndex;\n\n\t// Mapping from StakedContent index to the StakedContent object\n\tmapping (uint256 => StakedContent) internal stakedContents;\n\n\t// Mapping from stake ID to index of the stakedContents list\n\tmapping (bytes32 => uint256) internal stakedContentIndex;\n\n\t// Mapping from ContentHost index to the ContentHost object\n\tmapping (uint256 => ContentHost) internal contentHosts;\n\n\t// Mapping from content host ID to index of the contentHosts list\n\tmapping (bytes32 => uint256) internal contentHostIndex;\n\n\t// Mapping from PurchaseReceipt index to the PurchaseReceipt object\n\tmapping (uint256 => PurchaseReceipt) internal purchaseReceipts;\n\n\t// Mapping from purchase ID to index of the purchaseReceipts list\n\tmapping (bytes32 => uint256) internal purchaseReceiptIndex;\n\n\t// Mapping from buyer's content host ID to the buy ID\n\t// To check whether or not buyer has bought/paid for a content\n\tmapping (address => mapping (bytes32 => bytes32)) public buyerPurchaseReceipts;\n\n\t// Event to be broadcasted to public when `content` is stored\n\tevent StoreContent(address indexed creator, bytes32 indexed contentId, uint256 fileSize, bytes32 contentUsageType);\n\n\t// Event to be broadcasted to public when `stakeOwner` stakes a new content\n\tevent StakeContent(address indexed stakeOwner, bytes32 indexed stakeId, bytes32 indexed contentId, uint256 baseNetworkAmount, uint256 primordialAmount, uint256 primordialWeightedMultiplier, uint256 profitPercentage, uint256 createdOnTimestamp);\n\n\t// Event to be broadcasted to public when a node hosts a content\n\tevent HostContent(address indexed host, bytes32 indexed contentHostId, bytes32 stakeId, string contentDatKey, string metadataDatKey);\n\n\t// Event to be broadcasted to public when `stakeOwner` updates the staked content's profit percentage\n\tevent SetProfitPercentage(address indexed stakeOwner, bytes32 indexed stakeId, uint256 newProfitPercentage);\n\n\t// Event to be broadcasted to public when `stakeOwner` unstakes some network/primordial token from an existing content\n\tevent UnstakePartialContent(address indexed stakeOwner, bytes32 indexed stakeId, bytes32 indexed contentId, uint256 remainingNetworkAmount, uint256 remainingPrimordialAmount, uint256 primordialWeightedMultiplier);\n\n\t// Event to be broadcasted to public when `stakeOwner` unstakes all token amount on an existing content\n\tevent UnstakeContent(address indexed stakeOwner, bytes32 indexed stakeId);\n\n\t// Event to be broadcasted to public when `stakeOwner` re-stakes an existing content\n\tevent StakeExistingContent(address indexed stakeOwner, bytes32 indexed stakeId, bytes32 indexed contentId, uint256 currentNetworkAmount, uint256 currentPrimordialAmount, uint256 currentPrimordialWeightedMultiplier);\n\n\t// Event to be broadcasted to public when a request node buys a content\n\tevent BuyContent(address indexed buyer, bytes32 indexed purchaseId, bytes32 indexed contentHostId, uint256 paidNetworkAmount, string publicKey, address publicAddress, uint256 createdOnTimestamp);\n\n\t// Event to be broadcasted to public when Advocate/Listener/Speaker wants to update the TAO Content's State\n\tevent UpdateTAOContentState(bytes32 indexed contentId, address indexed taoId, address signer, bytes32 taoContentState);\n\n\t// Event to be broadcasted to public when emergency mode is triggered\n\tevent EscapeHatch();\n\n\t/**\n\t * @dev Constructor function\n\t * @param _settingTAOId The TAO ID that controls the setting\n\t * @param _aoSettingAddress The address of AOSetting\n\t * @param _baseDenominationAddress The address of AO base token\n\t * @param _treasuryAddress The address of AOTreasury\n\t * @param _earningAddress The address of AOEarning\n\t * @param _nameFactoryAddress The address of NameFactory\n\t */\n\tconstructor(address _settingTAOId, address _aoSettingAddress, address _baseDenominationAddress, address _treasuryAddress, address _earningAddress, address _nameFactoryAddress) public {\n\t\tsettingTAOId = _settingTAOId;\n\t\tbaseDenominationAddress = _baseDenominationAddress;\n\t\ttreasuryAddress = _treasuryAddress;\n\t\tnameFactoryAddress = _nameFactoryAddress;\n\n\t\t_baseAO = AOToken(_baseDenominationAddress);\n\t\t_treasury = AOTreasury(_treasuryAddress);\n\t\t_earning = AOEarning(_earningAddress);\n\t\t_aoSetting = AOSetting(_aoSettingAddress);\n\t}\n\n\t/**\n\t * @dev Checks if contract is currently active\n\t */\n\tmodifier isActive {\n\t\trequire (paused == false && killed == false);\n\t\t_;\n\t}\n\n\t/***** DEVELOPER ONLY METHODS *****/\n\t/**\n\t * @dev Developer pauses/unpauses contract\n\t * @param _paused Either to pause contract or not\n\t */\n\tfunction setPaused(bool _paused) public onlyDeveloper {\n\t\tpaused = _paused;\n\t}\n\n\t/**\n\t * @dev Developer updates base denomination address\n\t * @param _newBaseDenominationAddress The new address\n\t */\n\tfunction setBaseDenominationAddress(address _newBaseDenominationAddress) public onlyDeveloper {\n\t\trequire (AOToken(_newBaseDenominationAddress).powerOfTen() == 0 && AOToken(_newBaseDenominationAddress).networkExchangeContract() == true);\n\t\tbaseDenominationAddress = _newBaseDenominationAddress;\n\t\t_baseAO = AOToken(baseDenominationAddress);\n\t}\n\n\t/**\n\t * @dev Developer triggers emergency mode.\n\t *\n\t */\n\tfunction escapeHatch() public onlyDeveloper {\n\t\trequire (killed == false);\n\t\tkilled = true;\n\t\temit EscapeHatch();\n\t}\n\n\t/***** PUBLIC METHODS *****/\n\t/**\n\t * @dev Stake `_networkIntegerAmount` + `_networkFractionAmount` of network token in `_denomination` and/or `_primordialAmount` primordial Tokens for an AO Content\n\t * @param _networkIntegerAmount The integer amount of network token to stake\n\t * @param _networkFractionAmount The fraction amount of network token to stake\n\t * @param _denomination The denomination of the network token, i.e ao, kilo, mega, etc.\n\t * @param _primordialAmount The amount of primordial Token to stake\n\t * @param _baseChallenge The base challenge string (PUBLIC KEY) of the content\n\t * @param _encChallenge The encrypted challenge string (PUBLIC KEY) of the content unique to the host\n\t * @param _contentDatKey The dat key of the content\n\t * @param _metadataDatKey The dat key of the content's metadata\n\t * @param _fileSize The size of the file\n\t * @param _profitPercentage The percentage of profit the stake owner's media will charge\n\t */\n\tfunction stakeAOContent(\n\t\tuint256 _networkIntegerAmount,\n\t\tuint256 _networkFractionAmount,\n\t\tbytes8 _denomination,\n\t\tuint256 _primordialAmount,\n\t\tstring _baseChallenge,\n\t\tstring _encChallenge,\n\t\tstring _contentDatKey,\n\t\tstring _metadataDatKey,\n\t\tuint256 _fileSize,\n\t\tuint256 _profitPercentage)\n\t\tpublic isActive {\n\t\trequire (AOLibrary.canStake(treasuryAddress, _networkIntegerAmount, _networkFractionAmount, _denomination, _primordialAmount, _baseChallenge, _encChallenge, _contentDatKey, _metadataDatKey, _fileSize, _profitPercentage));\n\t\t(bytes32 _contentUsageType_aoContent,,,,,) = _getSettingVariables();\n\n\t\t/**\n\t\t * 1. Store this content\n\t\t * 2. Stake the network/primordial token on content\n\t\t * 3. Add the node info that hosts this content (in this case the creator himself)\n\t\t */\n\t\t_hostContent(\n\t\t\tmsg.sender,\n\t\t\t_stakeContent(\n\t\t\t\tmsg.sender,\n\t\t\t\t_storeContent(\n\t\t\t\t\tmsg.sender,\n\t\t\t\t\t_baseChallenge,\n\t\t\t\t\t_fileSize,\n\t\t\t\t\t_contentUsageType_aoContent,\n\t\t\t\t\taddress(0)\n\t\t\t\t),\n\t\t\t\t_networkIntegerAmount,\n\t\t\t\t_networkFractionAmount,\n\t\t\t\t_denomination,\n\t\t\t\t_primordialAmount,\n\t\t\t\t_profitPercentage\n\t\t\t),\n\t\t\t_encChallenge,\n\t\t\t_contentDatKey,\n\t\t\t_metadataDatKey\n\t\t);\n\t}\n\n\t/**\n\t * @dev Stake `_networkIntegerAmount` + `_networkFractionAmount` of network token in `_denomination` and/or `_primordialAmount` primordial Tokens for a Creative Commons Content\n\t * @param _networkIntegerAmount The integer amount of network token to stake\n\t * @param _networkFractionAmount The fraction amount of network token to stake\n\t * @param _denomination The denomination of the network token, i.e ao, kilo, mega, etc.\n\t * @param _primordialAmount The amount of primordial Token to stake\n\t * @param _baseChallenge The base challenge string (PUBLIC KEY) of the content\n\t * @param _encChallenge The encrypted challenge string (PUBLIC KEY) of the content unique to the host\n\t * @param _contentDatKey The dat key of the content\n\t * @param _metadataDatKey The dat key of the content's metadata\n\t * @param _fileSize The size of the file\n\t */\n\tfunction stakeCreativeCommonsContent(\n\t\tuint256 _networkIntegerAmount,\n\t\tuint256 _networkFractionAmount,\n\t\tbytes8 _denomination,\n\t\tuint256 _primordialAmount,\n\t\tstring _baseChallenge,\n\t\tstring _encChallenge,\n\t\tstring _contentDatKey,\n\t\tstring _metadataDatKey,\n\t\tuint256 _fileSize)\n\t\tpublic isActive {\n\t\trequire (AOLibrary.canStake(treasuryAddress, _networkIntegerAmount, _networkFractionAmount, _denomination, _primordialAmount, _baseChallenge, _encChallenge, _contentDatKey, _metadataDatKey, _fileSize, 0));\n\t\trequire (_treasury.toBase(_networkIntegerAmount, _networkFractionAmount, _denomination).add(_primordialAmount) == _fileSize);\n\n\t\t(,bytes32 _contentUsageType_creativeCommons,,,,) = _getSettingVariables();\n\n\t\t/**\n\t\t * 1. Store this content\n\t\t * 2. Stake the network/primordial token on content\n\t\t * 3. Add the node info that hosts this content (in this case the creator himself)\n\t\t */\n\t\t_hostContent(\n\t\t\tmsg.sender,\n\t\t\t_stakeContent(\n\t\t\t\tmsg.sender,\n\t\t\t\t_storeContent(\n\t\t\t\t\tmsg.sender,\n\t\t\t\t\t_baseChallenge,\n\t\t\t\t\t_fileSize,\n\t\t\t\t\t_contentUsageType_creativeCommons,\n\t\t\t\t\taddress(0)\n\t\t\t\t),\n\t\t\t\t_networkIntegerAmount,\n\t\t\t\t_networkFractionAmount,\n\t\t\t\t_denomination,\n\t\t\t\t_primordialAmount,\n\t\t\t\t0\n\t\t\t),\n\t\t\t_encChallenge,\n\t\t\t_contentDatKey,\n\t\t\t_metadataDatKey\n\t\t);\n\t}\n\n\t/**\n\t * @dev Stake `_networkIntegerAmount` + `_networkFractionAmount` of network token in `_denomination` and/or `_primordialAmount` primordial Tokens for a T(AO) Content\n\t * @param _networkIntegerAmount The integer amount of network token to stake\n\t * @param _networkFractionAmount The fraction amount of network token to stake\n\t * @param _denomination The denomination of the network token, i.e ao, kilo, mega, etc.\n\t * @param _primordialAmount The amount of primordial Token to stake\n\t * @param _baseChallenge The base challenge string (PUBLIC KEY) of the content\n\t * @param _encChallenge The encrypted challenge string (PUBLIC KEY) of the content unique to the host\n\t * @param _contentDatKey The dat key of the content\n\t * @param _metadataDatKey The dat key of the content's metadata\n\t * @param _fileSize The size of the file\n\t * @param _taoId The TAO (TAO) ID for this content (if this is a T(AO) Content)\n\t */\n\tfunction stakeTAOContent(\n\t\tuint256 _networkIntegerAmount,\n\t\tuint256 _networkFractionAmount,\n\t\tbytes8 _denomination,\n\t\tuint256 _primordialAmount,\n\t\tstring _baseChallenge,\n\t\tstring _encChallenge,\n\t\tstring _contentDatKey,\n\t\tstring _metadataDatKey,\n\t\tuint256 _fileSize,\n\t\taddress _taoId)\n\t\tpublic isActive {\n\t\trequire (AOLibrary.canStake(treasuryAddress, _networkIntegerAmount, _networkFractionAmount, _denomination, _primordialAmount, _baseChallenge, _encChallenge, _contentDatKey, _metadataDatKey, _fileSize, 0));\n\t\trequire (\n\t\t\t_treasury.toBase(_networkIntegerAmount, _networkFractionAmount, _denomination).add(_primordialAmount) == _fileSize &&\n\t\t\tAOLibrary.addressIsTAOAdvocateListenerSpeaker(nameFactoryAddress, msg.sender, _taoId)\n\t\t);\n\n\t\t(,,bytes32 _contentUsageType_taoContent,,,) = _getSettingVariables();\n\n\t\t/**\n\t\t * 1. Store this content\n\t\t * 2. Stake the network/primordial token on content\n\t\t * 3. Add the node info that hosts this content (in this case the creator himself)\n\t\t */\n\t\t_hostContent(\n\t\t\tmsg.sender,\n\t\t\t_stakeContent(\n\t\t\t\tmsg.sender,\n\t\t\t\t_storeContent(\n\t\t\t\t\tmsg.sender,\n\t\t\t\t\t_baseChallenge,\n\t\t\t\t\t_fileSize,\n\t\t\t\t\t_contentUsageType_taoContent,\n\t\t\t\t\t_taoId\n\t\t\t\t),\n\t\t\t\t_networkIntegerAmount,\n\t\t\t\t_networkFractionAmount,\n\t\t\t\t_denomination,\n\t\t\t\t_primordialAmount,\n\t\t\t\t0\n\t\t\t),\n\t\t\t_encChallenge,\n\t\t\t_contentDatKey,\n\t\t\t_metadataDatKey\n\t\t);\n\t}\n\n\t/**\n\t * @dev Set profit percentage on existing staked content\n\t *\t\tWill throw error if this is a Creative Commons/T(AO) Content\n\t * @param _stakeId The ID of the staked content\n\t * @param _profitPercentage The new value to be set\n\t */\n\tfunction setProfitPercentage(bytes32 _stakeId, uint256 _profitPercentage) public isActive {\n\t\trequire (_profitPercentage <= AOLibrary.PERCENTAGE_DIVISOR());\n\n\t\t// Make sure the staked content exist\n\t\trequire (stakedContentIndex[_stakeId] > 0);\n\n\t\tStakedContent storage _stakedContent = stakedContents[stakedContentIndex[_stakeId]];\n\t\t// Make sure the staked content owner is the same as the sender\n\t\trequire (_stakedContent.stakeOwner == msg.sender);\n\n\t\t// Make sure we are updating profit percentage for AO Content only\n\t\t// Creative Commons/T(AO) Content has 0 profit percentage\n\t\trequire (_isAOContentUsageType(_stakedContent.contentId));\n\n\t\t_stakedContent.profitPercentage = _profitPercentage;\n\n\t\temit SetProfitPercentage(msg.sender, _stakeId, _profitPercentage);\n\t}\n\n\t/**\n\t * @dev Set extra data on existing content\n\t * @param _contentId The ID of the content\n\t * @param _extraData some extra information to send to the contract for a content\n\t */\n\tfunction setContentExtraData(bytes32 _contentId, string _extraData) public isActive {\n\t\t// Make sure the content exist\n\t\trequire (contentIndex[_contentId] > 0);\n\n\t\tContent storage _content = contents[contentIndex[_contentId]];\n\t\t// Make sure the content creator is the same as the sender\n\t\trequire (_content.creator == msg.sender);\n\n\t\t_content.extraData = _extraData;\n\t}\n\n\t/**\n\t * @dev Return content info at a given ID\n\t * @param _contentId The ID of the content\n\t * @return address of the creator\n\t * @return file size of the content\n\t * @return the content usage type, i.e AO Content, Creative Commons, or T(AO) Content\n\t * @return The TAO ID for this content (if this is a T(AO) Content)\n\t * @return The TAO Content state, i.e Submitted, Pending Review, or Accepted to TAO\n\t * @return The V part of signature that is used to update the TAO Content State\n\t * @return The R part of signature that is used to update the TAO Content State\n\t * @return The S part of signature that is used to update the TAO Content State\n\t * @return the extra information sent to the contract when creating a content\n\t */\n\tfunction contentById(bytes32 _contentId) public view returns (address, uint256, bytes32, address, bytes32, uint8, bytes32, bytes32, string) {\n\t\t// Make sure the content exist\n\t\trequire (contentIndex[_contentId] > 0);\n\t\tContent memory _content = contents[contentIndex[_contentId]];\n\t\treturn (\n\t\t\t_content.creator,\n\t\t\t_content.fileSize,\n\t\t\t_content.contentUsageType,\n\t\t\t_content.taoId,\n\t\t\t_content.taoContentState,\n\t\t\t_content.updateTAOContentStateV,\n\t\t\t_content.updateTAOContentStateR,\n\t\t\t_content.updateTAOContentStateS,\n\t\t\t_content.extraData\n\t\t);\n\t}\n\n\t/**\n\t * @dev Return content host info at a given ID\n\t * @param _contentHostId The ID of the hosted content\n\t * @return The ID of the staked content\n\t * @return address of the host\n\t * @return the dat key of the content\n\t * @return the dat key of the content's metadata\n\t */\n\tfunction contentHostById(bytes32 _contentHostId) public view returns (bytes32, address, string, string) {\n\t\t// Make sure the content host exist\n\t\trequire (contentHostIndex[_contentHostId] > 0);\n\t\tContentHost memory _contentHost = contentHosts[contentHostIndex[_contentHostId]];\n\t\treturn (\n\t\t\t_contentHost.stakeId,\n\t\t\t_contentHost.host,\n\t\t\t_contentHost.contentDatKey,\n\t\t\t_contentHost.metadataDatKey\n\t\t);\n\t}\n\n\t/**\n\t * @dev Return staked content information at a given ID\n\t * @param _stakeId The ID of the staked content\n\t * @return The ID of the content being staked\n\t * @return address of the staked content's owner\n\t * @return the network base token amount staked for this content\n\t * @return the primordial token amount staked for this content\n\t * @return the primordial weighted multiplier of the staked content\n\t * @return the profit percentage of the content\n\t * @return status of the staked content\n\t * @return the timestamp when the staked content was created\n\t */\n\tfunction stakedContentById(bytes32 _stakeId) public view returns (bytes32, address, uint256, uint256, uint256, uint256, bool, uint256) {\n\t\t// Make sure the staked content exist\n\t\trequire (stakedContentIndex[_stakeId] > 0);\n\n\t\tStakedContent memory _stakedContent = stakedContents[stakedContentIndex[_stakeId]];\n\t\treturn (\n\t\t\t_stakedContent.contentId,\n\t\t\t_stakedContent.stakeOwner,\n\t\t\t_stakedContent.networkAmount,\n\t\t\t_stakedContent.primordialAmount,\n\t\t\t_stakedContent.primordialWeightedMultiplier,\n\t\t\t_stakedContent.profitPercentage,\n\t\t\t_stakedContent.active,\n\t\t\t_stakedContent.createdOnTimestamp\n\t\t);\n\t}\n\n\t/**\n\t * @dev Unstake existing staked content and refund partial staked amount to the stake owner\n\t *\t\tUse unstakeContent() to unstake all staked token amount. unstakePartialContent() can unstake only up to\n\t *\t\tthe mininum required to pay the fileSize\n\t * @param _stakeId The ID of the staked content\n\t * @param _networkIntegerAmount The integer amount of network token to unstake\n\t * @param _networkFractionAmount The fraction amount of network token to unstake\n\t * @param _denomination The denomination of the network token, i.e ao, kilo, mega, etc.\n\t * @param _primordialAmount The amount of primordial Token to unstake\n\t */\n\tfunction unstakePartialContent(bytes32 _stakeId, uint256 _networkIntegerAmount, uint256 _networkFractionAmount, bytes8 _denomination, uint256 _primordialAmount) public isActive {\n\t\t// Make sure the staked content exist\n\t\trequire (stakedContentIndex[_stakeId] > 0);\n\t\trequire (_networkIntegerAmount > 0 || _networkFractionAmount > 0 || _primordialAmount > 0);\n\n\t\tStakedContent storage _stakedContent = stakedContents[stakedContentIndex[_stakeId]];\n\t\tuint256 _fileSize = contents[contentIndex[_stakedContent.contentId]].fileSize;\n\n\t\t// Make sure the staked content owner is the same as the sender\n\t\trequire (_stakedContent.stakeOwner == msg.sender);\n\t\t// Make sure the staked content is currently active (staked) with some amounts\n\t\trequire (_stakedContent.active == true && (_stakedContent.networkAmount > 0 || (_stakedContent.primordialAmount > 0 && _stakedContent.primordialWeightedMultiplier > 0)));\n\t\t// Make sure the staked content has enough balance to unstake\n\t\trequire (AOLibrary.canUnstakePartial(treasuryAddress, _networkIntegerAmount, _networkFractionAmount, _denomination, _primordialAmount, _stakedContent.networkAmount, _stakedContent.primordialAmount, _fileSize));\n\n\t\tif (_denomination[0] != 0 && (_networkIntegerAmount > 0 || _networkFractionAmount > 0)) {\n\t\t\tuint256 _unstakeNetworkAmount = _treasury.toBase(_networkIntegerAmount, _networkFractionAmount, _denomination);\n\t\t\t_stakedContent.networkAmount = _stakedContent.networkAmount.sub(_unstakeNetworkAmount);\n\t\t\trequire (_baseAO.unstakeFrom(msg.sender, _unstakeNetworkAmount));\n\t\t}\n\t\tif (_primordialAmount > 0) {\n\t\t\t_stakedContent.primordialAmount = _stakedContent.primordialAmount.sub(_primordialAmount);\n\t\t\trequire (_baseAO.unstakePrimordialTokenFrom(msg.sender, _primordialAmount, _stakedContent.primordialWeightedMultiplier));\n\t\t}\n\t\temit UnstakePartialContent(_stakedContent.stakeOwner, _stakedContent.stakeId, _stakedContent.contentId, _stakedContent.networkAmount, _stakedContent.primordialAmount, _stakedContent.primordialWeightedMultiplier);\n\t}\n\n\t/**\n\t * @dev Unstake existing staked content and refund the total staked amount to the stake owner\n\t * @param _stakeId The ID of the staked content\n\t */\n\tfunction unstakeContent(bytes32 _stakeId) public isActive {\n\t\t// Make sure the staked content exist\n\t\trequire (stakedContentIndex[_stakeId] > 0);\n\n\t\tStakedContent storage _stakedContent = stakedContents[stakedContentIndex[_stakeId]];\n\t\t// Make sure the staked content owner is the same as the sender\n\t\trequire (_stakedContent.stakeOwner == msg.sender);\n\t\t// Make sure the staked content is currently active (staked) with some amounts\n\t\trequire (_stakedContent.active == true && (_stakedContent.networkAmount > 0 || (_stakedContent.primordialAmount > 0 && _stakedContent.primordialWeightedMultiplier > 0)));\n\n\t\t_stakedContent.active = false;\n\n\t\tif (_stakedContent.networkAmount > 0) {\n\t\t\tuint256 _unstakeNetworkAmount = _stakedContent.networkAmount;\n\t\t\t_stakedContent.networkAmount = 0;\n\t\t\trequire (_baseAO.unstakeFrom(msg.sender, _unstakeNetworkAmount));\n\t\t}\n\t\tif (_stakedContent.primordialAmount > 0) {\n\t\t\tuint256 _primordialAmount = _stakedContent.primordialAmount;\n\t\t\tuint256 _primordialWeightedMultiplier = _stakedContent.primordialWeightedMultiplier;\n\t\t\t_stakedContent.primordialAmount = 0;\n\t\t\t_stakedContent.primordialWeightedMultiplier = 0;\n\t\t\trequire (_baseAO.unstakePrimordialTokenFrom(msg.sender, _primordialAmount, _primordialWeightedMultiplier));\n\t\t}\n\t\temit UnstakeContent(_stakedContent.stakeOwner, _stakeId);\n\t}\n\n\t/**\n\t * @dev Stake existing content with more tokens (this is to increase the price)\n\t *\n\t * @param _stakeId The ID of the staked content\n\t * @param _networkIntegerAmount The integer amount of network token to stake\n\t * @param _networkFractionAmount The fraction amount of network token to stake\n\t * @param _denomination The denomination of the network token, i.e ao, kilo, mega, etc.\n\t * @param _primordialAmount The amount of primordial Token to stake. (The primordial weighted multiplier has to match the current staked weighted multiplier)\n\t */\n\tfunction stakeExistingContent(bytes32 _stakeId, uint256 _networkIntegerAmount, uint256 _networkFractionAmount, bytes8 _denomination, uint256 _primordialAmount) public isActive {\n\t\t// Make sure the staked content exist\n\t\trequire (stakedContentIndex[_stakeId] > 0);\n\n\t\tStakedContent storage _stakedContent = stakedContents[stakedContentIndex[_stakeId]];\n\t\tuint256 _fileSize = contents[contentIndex[_stakedContent.contentId]].fileSize;\n\n\t\t// Make sure the staked content owner is the same as the sender\n\t\trequire (_stakedContent.stakeOwner == msg.sender);\n\t\trequire (_networkIntegerAmount > 0 || _networkFractionAmount > 0 || _primordialAmount > 0);\n\t\trequire (AOLibrary.canStakeExisting(treasuryAddress, _isAOContentUsageType(_stakedContent.contentId), _fileSize, _stakedContent.networkAmount.add(_stakedContent.primordialAmount), _networkIntegerAmount, _networkFractionAmount, _denomination, _primordialAmount));\n\n\t\t// Make sure we can stake primordial token\n\t\t// If we are currently staking an active staked content, then the stake owner's weighted multiplier has to match `stakedContent.primordialWeightedMultiplier`\n\t\t// i.e, can't use a combination of different weighted multiplier. Stake owner has to call unstakeContent() to unstake all tokens first\n\t\tif (_primordialAmount > 0 && _stakedContent.active && _stakedContent.primordialAmount > 0 && _stakedContent.primordialWeightedMultiplier > 0) {\n\t\t\trequire (_baseAO.weightedMultiplierByAddress(msg.sender) == _stakedContent.primordialWeightedMultiplier);\n\t\t}\n\n\t\t_stakedContent.active = true;\n\t\tif (_denomination[0] != 0 && (_networkIntegerAmount > 0 || _networkFractionAmount > 0)) {\n\t\t\tuint256 _stakeNetworkAmount = _treasury.toBase(_networkIntegerAmount, _networkFractionAmount, _denomination);\n\t\t\t_stakedContent.networkAmount = _stakedContent.networkAmount.add(_stakeNetworkAmount);\n\t\t\trequire (_baseAO.stakeFrom(_stakedContent.stakeOwner, _stakeNetworkAmount));\n\t\t}\n\t\tif (_primordialAmount > 0) {\n\t\t\t_stakedContent.primordialAmount = _stakedContent.primordialAmount.add(_primordialAmount);\n\n\t\t\t// Primordial Token is the base AO Token\n\t\t\t_stakedContent.primordialWeightedMultiplier = _baseAO.weightedMultiplierByAddress(_stakedContent.stakeOwner);\n\t\t\trequire (_baseAO.stakePrimordialTokenFrom(_stakedContent.stakeOwner, _primordialAmount, _stakedContent.primordialWeightedMultiplier));\n\t\t}\n\n\t\temit StakeExistingContent(msg.sender, _stakedContent.stakeId, _stakedContent.contentId, _stakedContent.networkAmount, _stakedContent.primordialAmount, _stakedContent.primordialWeightedMultiplier);\n\t}\n\n\t/**\n\t * @dev Determine the content price hosted by a host\n\t * @param _contentHostId The content host ID to be checked\n\t * @return the price of the content\n\t */\n\tfunction contentHostPrice(bytes32 _contentHostId) public isActive view returns (uint256) {\n\t\t// Make sure content host exist\n\t\trequire (contentHostIndex[_contentHostId] > 0);\n\n\t\tbytes32 _stakeId = contentHosts[contentHostIndex[_contentHostId]].stakeId;\n\t\tStakedContent memory _stakedContent = stakedContents[stakedContentIndex[_stakeId]];\n\t\t// Make sure content is currently staked\n\t\trequire (_stakedContent.active == true && (_stakedContent.networkAmount > 0 || (_stakedContent.primordialAmount > 0 && _stakedContent.primordialWeightedMultiplier > 0)));\n\t\treturn _stakedContent.networkAmount.add(_stakedContent.primordialAmount);\n\t}\n\n\t/**\n\t * @dev Determine the how much the content is paid by AO given a contentHostId\n\t * @param _contentHostId The content host ID to be checked\n\t * @return the amount paid by AO\n\t */\n\tfunction contentHostPaidByAO(bytes32 _contentHostId) public isActive view returns (uint256) {\n\t\tbytes32 _stakeId = contentHosts[contentHostIndex[_contentHostId]].stakeId;\n\t\tbytes32 _contentId = stakedContents[stakedContentIndex[_stakeId]].contentId;\n\t\tif (_isAOContentUsageType(_contentId)) {\n\t\t\treturn 0;\n\t\t} else {\n\t\t\treturn contentHostPrice(_contentHostId);\n\t\t}\n\t}\n\n\t/**\n\t * @dev Bring content in to the requesting node by sending network tokens to the contract to pay for the content\n\t * @param _contentHostId The ID of hosted content\n\t * @param _networkIntegerAmount The integer amount of network token to pay\n\t * @param _networkFractionAmount The fraction amount of network token to pay\n\t * @param _denomination The denomination of the network token, i.e ao, kilo, mega, etc.\n\t * @param _publicKey The public key of the request node\n\t * @param _publicAddress The public address of the request node\n\t */\n\tfunction buyContent(bytes32 _contentHostId, uint256 _networkIntegerAmount, uint256 _networkFractionAmount, bytes8 _denomination, string _publicKey, address _publicAddress) public isActive {\n\t\t// Make sure the content host exist\n\t\trequire (contentHostIndex[_contentHostId] > 0);\n\n\t\t// Make sure public key is not empty\n\t\trequire (bytes(_publicKey).length > 0);\n\n\t\t// Make sure public address is valid\n\t\trequire (_publicAddress != address(0));\n\n\t\tContentHost memory _contentHost = contentHosts[contentHostIndex[_contentHostId]];\n\t\tStakedContent memory _stakedContent = stakedContents[stakedContentIndex[_contentHost.stakeId]];\n\n\t\t// Make sure the content currently has stake\n\t\trequire (_stakedContent.active == true && (_stakedContent.networkAmount > 0 || (_stakedContent.primordialAmount > 0 && _stakedContent.primordialWeightedMultiplier > 0)));\n\n\t\t// Make sure the buyer has not bought this content previously\n\t\trequire (buyerPurchaseReceipts[msg.sender][_contentHostId][0] == 0);\n\n\t\t// Make sure the token amount can pay for the content price\n\t\tif (_isAOContentUsageType(_stakedContent.contentId)) {\n\t\t\trequire (AOLibrary.canBuy(treasuryAddress, _stakedContent.networkAmount.add(_stakedContent.primordialAmount), _networkIntegerAmount, _networkFractionAmount, _denomination));\n\t\t}\n\n\t\t// Increment totalPurchaseReceipts;\n\t\ttotalPurchaseReceipts++;\n\n\t\t// Generate purchaseId\n\t\tbytes32 _purchaseId = keccak256(abi.encodePacked(this, msg.sender, _contentHostId));\n\t\tPurchaseReceipt storage _purchaseReceipt = purchaseReceipts[totalPurchaseReceipts];\n\n\t\t// Make sure the node doesn't buy the same content twice\n\t\trequire (_purchaseReceipt.buyer == address(0));\n\n\t\t_purchaseReceipt.purchaseId = _purchaseId;\n\t\t_purchaseReceipt.contentHostId = _contentHostId;\n\t\t_purchaseReceipt.buyer = msg.sender;\n\t\t// Update the receipt with the correct network amount\n\t\t_purchaseReceipt.networkAmount = _isAOContentUsageType(_stakedContent.contentId) ? _stakedContent.networkAmount.add(_stakedContent.primordialAmount) : 0;\n\t\t_purchaseReceipt.publicKey = _publicKey;\n\t\t_purchaseReceipt.publicAddress = _publicAddress;\n\t\t_purchaseReceipt.createdOnTimestamp = now;\n\n\t\tpurchaseReceiptIndex[_purchaseId] = totalPurchaseReceipts;\n\t\tbuyerPurchaseReceipts[msg.sender][_contentHostId] = _purchaseId;\n\n\t\t// Calculate content creator/host/foundation earning from this purchase and store them in escrow\n\t\trequire (_earning.calculateEarning(\n\t\t\tmsg.sender,\n\t\t\t_purchaseId,\n\t\t\t_stakedContent.networkAmount,\n\t\t\t_stakedContent.primordialAmount,\n\t\t\t_stakedContent.primordialWeightedMultiplier,\n\t\t\t_stakedContent.profitPercentage,\n\t\t\tcontents[contentIndex[_stakedContent.contentId]].fileSize,\n\t\t\t_stakedContent.stakeOwner,\n\t\t\t_contentHost.host,\n\t\t\t_isAOContentUsageType(_stakedContent.contentId)\n\t\t));\n\n\t\temit BuyContent(_purchaseReceipt.buyer, _purchaseReceipt.purchaseId, _purchaseReceipt.contentHostId, _purchaseReceipt.networkAmount, _purchaseReceipt.publicKey, _purchaseReceipt.publicAddress, _purchaseReceipt.createdOnTimestamp);\n\t}\n\n\t/**\n\t * @dev Return purchase receipt info at a given ID\n\t * @param _purchaseId The ID of the purchased content\n\t * @return The ID of the content host\n\t * @return address of the buyer\n\t * @return paid network amount\n\t * @return request node's public key\n\t * @return request node's public address\n\t * @return created on timestamp\n\t */\n\tfunction purchaseReceiptById(bytes32 _purchaseId) public view returns (bytes32, address, uint256, string, address, uint256) {\n\t\t// Make sure the purchase receipt exist\n\t\trequire (purchaseReceiptIndex[_purchaseId] > 0);\n\t\tPurchaseReceipt memory _purchaseReceipt = purchaseReceipts[purchaseReceiptIndex[_purchaseId]];\n\t\treturn (\n\t\t\t_purchaseReceipt.contentHostId,\n\t\t\t_purchaseReceipt.buyer,\n\t\t\t_purchaseReceipt.networkAmount,\n\t\t\t_purchaseReceipt.publicKey,\n\t\t\t_purchaseReceipt.publicAddress,\n\t\t\t_purchaseReceipt.createdOnTimestamp\n\t\t);\n\t}\n\n\t/**\n\t * @dev Request node wants to become a distribution node after buying the content\n\t *\t\tAlso, if this transaction succeeds, contract will release all of the earnings that are\n\t *\t\tcurrently in escrow for content creator/host/foundation\n\t */\n\tfunction becomeHost(\n\t\tbytes32 _purchaseId,\n\t\tuint8 _baseChallengeV,\n\t\tbytes32 _baseChallengeR,\n\t\tbytes32 _baseChallengeS,\n\t\tstring _encChallenge,\n\t\tstring _contentDatKey,\n\t\tstring _metadataDatKey\n\t) public isActive {\n\t\t// Make sure the purchase receipt exist\n\t\trequire (purchaseReceiptIndex[_purchaseId] > 0);\n\n\t\tPurchaseReceipt memory _purchaseReceipt = purchaseReceipts[purchaseReceiptIndex[_purchaseId]];\n\t\tbytes32 _stakeId = contentHosts[contentHostIndex[_purchaseReceipt.contentHostId]].stakeId;\n\t\tbytes32 _contentId = stakedContents[stakedContentIndex[_stakeId]].contentId;\n\n\t\t// Make sure the purchase receipt owner is the same as the sender\n\t\trequire (_purchaseReceipt.buyer == msg.sender);\n\n\t\t// Verify that the file is not tampered by validating the base challenge signature\n\t\t// The signed base challenge key should match the one from content creator\n\t\tContent memory _content = contents[contentIndex[_contentId]];\n\t\trequire (AOLibrary.getBecomeHostSignatureAddress(address(this), _content.baseChallenge, _baseChallengeV, _baseChallengeR, _baseChallengeS) == _purchaseReceipt.publicAddress);\n\n\t\t_hostContent(msg.sender, _stakeId, _encChallenge, _contentDatKey, _metadataDatKey);\n\n\t\t// Release earning from escrow\n\t\trequire (_earning.releaseEarning(_stakeId, _purchaseReceipt.contentHostId, _purchaseId, _purchaseReceipt.networkAmount, _content.fileSize, stakedContents[stakedContentIndex[_stakeId]].stakeOwner, contentHosts[contentHostIndex[_purchaseReceipt.contentHostId]].host));\n\t}\n\n\t/**\n\t * @dev Update the TAO Content State of a T(AO) Content\n\t * @param _contentId The ID of the Content\n\t * @param _taoId The ID of the TAO that initiates the update\n\t * @param _taoContentState The TAO Content state value, i.e Submitted, Pending Review, or Accepted to TAO\n\t * @param _updateTAOContentStateV The V part of the signature for this update\n\t * @param _updateTAOContentStateR The R part of the signature for this update\n\t * @param _updateTAOContentStateS The S part of the signature for this update\n\t */\n\tfunction updateTAOContentState(\n\t\tbytes32 _contentId,\n\t\taddress _taoId,\n\t\tbytes32 _taoContentState,\n\t\tuint8 _updateTAOContentStateV,\n\t\tbytes32 _updateTAOContentStateR,\n\t\tbytes32 _updateTAOContentStateS\n\t) public isActive {\n\t\t// Make sure the content exist\n\t\trequire (contentIndex[_contentId] > 0);\n\t\trequire (AOLibrary.isTAO(_taoId));\n\t\t(,, bytes32 _contentUsageType_taoContent, bytes32 taoContentState_submitted, bytes32 taoContentState_pendingReview, bytes32 taoContentState_acceptedToTAO) = _getSettingVariables();\n\t\trequire (_taoContentState == taoContentState_submitted || _taoContentState == taoContentState_pendingReview || _taoContentState == taoContentState_acceptedToTAO);\n\n\t\taddress _signatureAddress = AOLibrary.getUpdateTAOContentStateSignatureAddress(address(this), _contentId, _taoId, _taoContentState, _updateTAOContentStateV, _updateTAOContentStateR, _updateTAOContentStateS);\n\n\t\tContent storage _content = contents[contentIndex[_contentId]];\n\t\t// Make sure that the signature address is one of content's TAO ID's Advocate/Listener/Speaker\n\t\trequire (_signatureAddress == msg.sender && AOLibrary.addressIsTAOAdvocateListenerSpeaker(nameFactoryAddress, _signatureAddress, _content.taoId));\n\n\t\trequire (_content.contentUsageType == _contentUsageType_taoContent);\n\n\t\t_content.taoContentState = _taoContentState;\n\t\t_content.updateTAOContentStateV = _updateTAOContentStateV;\n\t\t_content.updateTAOContentStateR = _updateTAOContentStateR;\n\t\t_content.updateTAOContentStateS = _updateTAOContentStateS;\n\n\t\temit UpdateTAOContentState(_contentId, _taoId, _signatureAddress, _taoContentState);\n\t}\n\n\t/***** INTERNAL METHODS *****/\n\t/**\n\t * @dev Store the content information (content creation during staking)\n\t * @param _creator the address of the content creator\n\t * @param _baseChallenge The base challenge string (PUBLIC KEY) of the content\n\t * @param _fileSize The size of the file\n\t * @param _contentUsageType The content usage type, i.e AO Content, Creative Commons, or T(AO) Content\n\t * @param _taoId The TAO (TAO) ID for this content (if this is a T(AO) Content)\n\t * @return the ID of the content\n\t */\n\tfunction _storeContent(address _creator, string _baseChallenge, uint256 _fileSize, bytes32 _contentUsageType, address _taoId) internal returns (bytes32) {\n\t\t// Increment totalContents\n\t\ttotalContents++;\n\n\t\t// Generate contentId\n\t\tbytes32 _contentId = keccak256(abi.encodePacked(this, _creator, totalContents));\n\t\tContent storage _content = contents[totalContents];\n\n\t\t// Make sure the node does't store the same content twice\n\t\trequire (_content.creator == address(0));\n\n\t\t(,,bytes32 contentUsageType_taoContent, bytes32 taoContentState_submitted,,) = _getSettingVariables();\n\n\t\t_content.contentId = _contentId;\n\t\t_content.creator = _creator;\n\t\t_content.baseChallenge = _baseChallenge;\n\t\t_content.fileSize = _fileSize;\n\t\t_content.contentUsageType = _contentUsageType;\n\n\t\t// If this is a TAO Content\n\t\tif (_contentUsageType == contentUsageType_taoContent) {\n\t\t\t_content.taoContentState = taoContentState_submitted;\n\t\t\t_content.taoId = _taoId;\n\t\t}\n\n\t\tcontentIndex[_contentId] = totalContents;\n\n\t\temit StoreContent(_content.creator, _content.contentId, _content.fileSize, _content.contentUsageType);\n\t\treturn _content.contentId;\n\t}\n\n\t/**\n\t * @dev Add the distribution node info that hosts the content\n\t * @param _host the address of the host\n\t * @param _stakeId The ID of the staked content\n\t * @param _encChallenge The encrypted challenge string (PUBLIC KEY) of the content unique to the host\n\t * @param _contentDatKey The dat key of the content\n\t * @param _metadataDatKey The dat key of the content's metadata\n\t */\n\tfunction _hostContent(address _host, bytes32 _stakeId, string _encChallenge, string _contentDatKey, string _metadataDatKey) internal {\n\t\trequire (bytes(_encChallenge).length > 0);\n\t\trequire (bytes(_contentDatKey).length > 0);\n\t\trequire (bytes(_metadataDatKey).length > 0);\n\t\trequire (stakedContentIndex[_stakeId] > 0);\n\n\t\t// Increment totalContentHosts\n\t\ttotalContentHosts++;\n\n\t\t// Generate contentId\n\t\tbytes32 _contentHostId = keccak256(abi.encodePacked(this, _host, _stakeId));\n\n\t\tContentHost storage _contentHost = contentHosts[totalContentHosts];\n\n\t\t// Make sure the node doesn't host the same content twice\n\t\trequire (_contentHost.host == address(0));\n\n\t\t_contentHost.contentHostId = _contentHostId;\n\t\t_contentHost.stakeId = _stakeId;\n\t\t_contentHost.host = _host;\n\t\t_contentHost.encChallenge = _encChallenge;\n\t\t_contentHost.contentDatKey = _contentDatKey;\n\t\t_contentHost.metadataDatKey = _metadataDatKey;\n\n\t\tcontentHostIndex[_contentHostId] = totalContentHosts;\n\n\t\temit HostContent(_contentHost.host, _contentHost.contentHostId, _contentHost.stakeId, _contentHost.contentDatKey, _contentHost.metadataDatKey);\n\t}\n\n\t/**\n\t * @dev actual staking the content\n\t * @param _stakeOwner the address that stake the content\n\t * @param _contentId The ID of the content\n\t * @param _networkIntegerAmount The integer amount of network token to stake\n\t * @param _networkFractionAmount The fraction amount of network token to stake\n\t * @param _denomination The denomination of the network token, i.e ao, kilo, mega, etc.\n\t * @param _primordialAmount The amount of primordial Token to stake\n\t * @param _profitPercentage The percentage of profit the stake owner's media will charge\n\t * @return the newly created staked content ID\n\t */\n\tfunction _stakeContent(address _stakeOwner, bytes32 _contentId, uint256 _networkIntegerAmount, uint256 _networkFractionAmount, bytes8 _denomination, uint256 _primordialAmount, uint256 _profitPercentage) internal returns (bytes32) {\n\t\t// Increment totalStakedContents\n\t\ttotalStakedContents++;\n\n\t\t// Generate stakeId\n\t\tbytes32 _stakeId = keccak256(abi.encodePacked(this, _stakeOwner, _contentId));\n\t\tStakedContent storage _stakedContent = stakedContents[totalStakedContents];\n\n\t\t// Make sure the node doesn't stake the same content twice\n\t\trequire (_stakedContent.stakeOwner == address(0));\n\n\t\t_stakedContent.stakeId = _stakeId;\n\t\t_stakedContent.contentId = _contentId;\n\t\t_stakedContent.stakeOwner = _stakeOwner;\n\t\t_stakedContent.profitPercentage = _profitPercentage;\n\t\t_stakedContent.active = true;\n\t\t_stakedContent.createdOnTimestamp = now;\n\n\t\tstakedContentIndex[_stakeId] = totalStakedContents;\n\n\t\tif (_denomination[0] != 0 && (_networkIntegerAmount > 0 || _networkFractionAmount > 0)) {\n\t\t\t_stakedContent.networkAmount = _treasury.toBase(_networkIntegerAmount, _networkFractionAmount, _denomination);\n\t\t\trequire (_baseAO.stakeFrom(_stakeOwner, _stakedContent.networkAmount));\n\t\t}\n\t\tif (_primordialAmount > 0) {\n\t\t\t_stakedContent.primordialAmount = _primordialAmount;\n\n\t\t\t// Primordial Token is the base AO Token\n\t\t\t_stakedContent.primordialWeightedMultiplier = _baseAO.weightedMultiplierByAddress(_stakedContent.stakeOwner);\n\t\t\trequire (_baseAO.stakePrimordialTokenFrom(_stakedContent.stakeOwner, _primordialAmount, _stakedContent.primordialWeightedMultiplier));\n\t\t}\n\n\t\temit StakeContent(_stakedContent.stakeOwner, _stakedContent.stakeId, _stakedContent.contentId, _stakedContent.networkAmount, _stakedContent.primordialAmount, _stakedContent.primordialWeightedMultiplier, _stakedContent.profitPercentage, _stakedContent.createdOnTimestamp);\n\n\t\treturn _stakedContent.stakeId;\n\t}\n\n\t/**\n\t * @dev Get setting variables\n\t * @return contentUsageType_aoContent Content Usage Type = AO Content\n\t * @return contentUsageType_creativeCommons Content Usage Type = Creative Commons\n\t * @return contentUsageType_taoContent Content Usage Type = T(AO) Content\n\t * @return taoContentState_submitted TAO Content State = Submitted\n\t * @return taoContentState_pendingReview TAO Content State = Pending Review\n\t * @return taoContentState_acceptedToTAO TAO Content State = Accepted to TAO\n\t */\n\tfunction _getSettingVariables() internal view returns (bytes32, bytes32, bytes32, bytes32, bytes32, bytes32) {\n\t\t(,,,bytes32 contentUsageType_aoContent,) = _aoSetting.getSettingValuesByTAOName(settingTAOId, 'contentUsageType_aoContent');\n\t\t(,,,bytes32 contentUsageType_creativeCommons,) = _aoSetting.getSettingValuesByTAOName(settingTAOId, 'contentUsageType_creativeCommons');\n\t\t(,,,bytes32 contentUsageType_taoContent,) = _aoSetting.getSettingValuesByTAOName(settingTAOId, 'contentUsageType_taoContent');\n\t\t(,,,bytes32 taoContentState_submitted,) = _aoSetting.getSettingValuesByTAOName(settingTAOId, 'taoContentState_submitted');\n\t\t(,,,bytes32 taoContentState_pendingReview,) = _aoSetting.getSettingValuesByTAOName(settingTAOId, 'taoContentState_pendingReview');\n\t\t(,,,bytes32 taoContentState_acceptedToTAO,) = _aoSetting.getSettingValuesByTAOName(settingTAOId, 'taoContentState_acceptedToTAO');\n\n\t\treturn (\n\t\t\tcontentUsageType_aoContent,\n\t\t\tcontentUsageType_creativeCommons,\n\t\t\tcontentUsageType_taoContent,\n\t\t\ttaoContentState_submitted,\n\t\t\ttaoContentState_pendingReview,\n\t\t\ttaoContentState_acceptedToTAO\n\t\t);\n\t}\n\n\t/**\n\t * @dev Check whether or not the content is of AO Content Usage Type\n\t * @param _contentId The ID of the content\n\t * @return true if yes. false otherwise\n\t */\n\tfunction _isAOContentUsageType(bytes32 _contentId) internal view returns (bool) {\n\t\t(bytes32 _contentUsageType_aoContent,,,,,) = _getSettingVariables();\n\t\treturn contents[contentIndex[_contentId]].contentUsageType == _contentUsageType_aoContent;\n\t}\n}\n",
	"sourcePath": "/Users/neilharlow/development/ao-contracts/contracts/AOContent.sol",
	"compiler": {
		"name": "solc",
		"version": "0.4.24+commit.e67f0147.Emscripten.clang"
	},
	"schemaVersion": "2.0.1",
	"updatedAt": "2019-01-07T19:52:25.736Z"
}