{
	"contractName": "AOContent",
	"abi": [
		{
			"constant": true,
			"inputs": [],
			"name": "killed",
			"outputs": [
				{
					"name": "",
					"type": "bool"
				}
			],
			"payable": false,
			"stateMutability": "view",
			"type": "function"
		},
		{
			"constant": true,
			"inputs": [],
			"name": "totalStakedContents",
			"outputs": [
				{
					"name": "",
					"type": "uint256"
				}
			],
			"payable": false,
			"stateMutability": "view",
			"type": "function"
		},
		{
			"constant": true,
			"inputs": [],
			"name": "totalContents",
			"outputs": [
				{
					"name": "",
					"type": "uint256"
				}
			],
			"payable": false,
			"stateMutability": "view",
			"type": "function"
		},
		{
			"constant": false,
			"inputs": [
				{
					"name": "_account",
					"type": "address"
				},
				{
					"name": "_whitelist",
					"type": "bool"
				}
			],
			"name": "setWhitelist",
			"outputs": [],
			"payable": false,
			"stateMutability": "nonpayable",
			"type": "function"
		},
		{
			"constant": true,
			"inputs": [],
			"name": "paused",
			"outputs": [
				{
					"name": "",
					"type": "bool"
				}
			],
			"payable": false,
			"stateMutability": "view",
			"type": "function"
		},
		{
			"constant": true,
			"inputs": [
				{
					"name": "",
					"type": "address"
				}
			],
			"name": "whitelist",
			"outputs": [
				{
					"name": "",
					"type": "bool"
				}
			],
			"payable": false,
			"stateMutability": "view",
			"type": "function"
		},
		{
			"constant": true,
			"inputs": [],
			"name": "baseDenominationAddress",
			"outputs": [
				{
					"name": "",
					"type": "address"
				}
			],
			"payable": false,
			"stateMutability": "view",
			"type": "function"
		},
		{
			"constant": true,
			"inputs": [],
			"name": "treasuryAddress",
			"outputs": [
				{
					"name": "",
					"type": "address"
				}
			],
			"payable": false,
			"stateMutability": "view",
			"type": "function"
		},
		{
			"constant": true,
			"inputs": [],
			"name": "totalContentHosts",
			"outputs": [
				{
					"name": "",
					"type": "uint256"
				}
			],
			"payable": false,
			"stateMutability": "view",
			"type": "function"
		},
		{
			"constant": true,
			"inputs": [],
			"name": "developer",
			"outputs": [
				{
					"name": "",
					"type": "address"
				}
			],
			"payable": false,
			"stateMutability": "view",
			"type": "function"
		},
		{
			"constant": true,
			"inputs": [],
			"name": "PERCENTAGE_DIVISOR",
			"outputs": [
				{
					"name": "",
					"type": "uint256"
				}
			],
			"payable": false,
			"stateMutability": "view",
			"type": "function"
		},
		{
			"constant": true,
			"inputs": [],
			"name": "earningAddress",
			"outputs": [
				{
					"name": "",
					"type": "address"
				}
			],
			"payable": false,
			"stateMutability": "view",
			"type": "function"
		},
		{
			"constant": false,
			"inputs": [
				{
					"name": "newDeveloper",
					"type": "address"
				}
			],
			"name": "transferOwnership",
			"outputs": [],
			"payable": false,
			"stateMutability": "nonpayable",
			"type": "function"
		},
		{
			"constant": true,
			"inputs": [],
			"name": "totalPurchaseReceipts",
			"outputs": [
				{
					"name": "",
					"type": "uint256"
				}
			],
			"payable": false,
			"stateMutability": "view",
			"type": "function"
		},
		{
			"constant": true,
			"inputs": [
				{
					"name": "",
					"type": "address"
				},
				{
					"name": "",
					"type": "bytes32"
				}
			],
			"name": "buyerPurchaseReceipts",
			"outputs": [
				{
					"name": "",
					"type": "bytes32"
				}
			],
			"payable": false,
			"stateMutability": "view",
			"type": "function"
		},
		{
			"inputs": [
				{
					"name": "_baseDenominationAddress",
					"type": "address"
				},
				{
					"name": "_treasuryAddress",
					"type": "address"
				},
				{
					"name": "_earningAddress",
					"type": "address"
				}
			],
			"payable": false,
			"stateMutability": "nonpayable",
			"type": "constructor"
		},
		{
			"anonymous": false,
			"inputs": [
				{
					"indexed": true,
					"name": "creator",
					"type": "address"
				},
				{
					"indexed": true,
					"name": "contentId",
					"type": "bytes32"
				},
				{
					"indexed": false,
					"name": "fileSize",
					"type": "uint256"
				}
			],
			"name": "StoreContent",
			"type": "event"
		},
		{
			"anonymous": false,
			"inputs": [
				{
					"indexed": true,
					"name": "stakeOwner",
					"type": "address"
				},
				{
					"indexed": true,
					"name": "stakeId",
					"type": "bytes32"
				},
				{
					"indexed": true,
					"name": "contentId",
					"type": "bytes32"
				},
				{
					"indexed": false,
					"name": "baseNetworkAmount",
					"type": "uint256"
				},
				{
					"indexed": false,
					"name": "primordialAmount",
					"type": "uint256"
				},
				{
					"indexed": false,
					"name": "primordialWeightedIndex",
					"type": "uint256"
				},
				{
					"indexed": false,
					"name": "profitPercentage",
					"type": "uint256"
				},
				{
					"indexed": false,
					"name": "createdOnTimestamp",
					"type": "uint256"
				},
				{
					"indexed": false,
					"name": "extraData",
					"type": "string"
				}
			],
			"name": "StakeContent",
			"type": "event"
		},
		{
			"anonymous": false,
			"inputs": [
				{
					"indexed": true,
					"name": "host",
					"type": "address"
				},
				{
					"indexed": true,
					"name": "contentHostId",
					"type": "bytes32"
				},
				{
					"indexed": false,
					"name": "stakeId",
					"type": "bytes32"
				},
				{
					"indexed": false,
					"name": "contentDatKey",
					"type": "string"
				},
				{
					"indexed": false,
					"name": "metadataDatKey",
					"type": "string"
				}
			],
			"name": "HostContent",
			"type": "event"
		},
		{
			"anonymous": false,
			"inputs": [
				{
					"indexed": true,
					"name": "stakeOwner",
					"type": "address"
				},
				{
					"indexed": true,
					"name": "stakeId",
					"type": "bytes32"
				},
				{
					"indexed": false,
					"name": "newProfitPercentage",
					"type": "uint256"
				}
			],
			"name": "SetProfitPercentage",
			"type": "event"
		},
		{
			"anonymous": false,
			"inputs": [
				{
					"indexed": true,
					"name": "stakeOwner",
					"type": "address"
				},
				{
					"indexed": true,
					"name": "stakeId",
					"type": "bytes32"
				},
				{
					"indexed": true,
					"name": "contentId",
					"type": "bytes32"
				},
				{
					"indexed": false,
					"name": "remainingNetworkAmount",
					"type": "uint256"
				},
				{
					"indexed": false,
					"name": "remainingPrimordialAmount",
					"type": "uint256"
				},
				{
					"indexed": false,
					"name": "primordialWeightedIndex",
					"type": "uint256"
				}
			],
			"name": "UnstakePartialContent",
			"type": "event"
		},
		{
			"anonymous": false,
			"inputs": [
				{
					"indexed": true,
					"name": "stakeOwner",
					"type": "address"
				},
				{
					"indexed": true,
					"name": "stakeId",
					"type": "bytes32"
				}
			],
			"name": "UnstakeContent",
			"type": "event"
		},
		{
			"anonymous": false,
			"inputs": [
				{
					"indexed": true,
					"name": "stakeOwner",
					"type": "address"
				},
				{
					"indexed": true,
					"name": "stakeId",
					"type": "bytes32"
				},
				{
					"indexed": true,
					"name": "contentId",
					"type": "bytes32"
				},
				{
					"indexed": false,
					"name": "currentNetworkAmount",
					"type": "uint256"
				},
				{
					"indexed": false,
					"name": "currentPrimordialAmount",
					"type": "uint256"
				},
				{
					"indexed": false,
					"name": "currentPrimordialWeightedIndex",
					"type": "uint256"
				}
			],
			"name": "StakeExistingContent",
			"type": "event"
		},
		{
			"anonymous": false,
			"inputs": [
				{
					"indexed": true,
					"name": "buyer",
					"type": "address"
				},
				{
					"indexed": true,
					"name": "purchaseId",
					"type": "bytes32"
				},
				{
					"indexed": true,
					"name": "contentHostId",
					"type": "bytes32"
				},
				{
					"indexed": false,
					"name": "paidNetworkAmount",
					"type": "uint256"
				},
				{
					"indexed": false,
					"name": "publicAddress",
					"type": "address"
				},
				{
					"indexed": false,
					"name": "createdOnTimestamp",
					"type": "uint256"
				}
			],
			"name": "BuyContent",
			"type": "event"
		},
		{
			"anonymous": false,
			"inputs": [],
			"name": "EscapeHatch",
			"type": "event"
		},
		{
			"constant": false,
			"inputs": [
				{
					"name": "_paused",
					"type": "bool"
				}
			],
			"name": "setPaused",
			"outputs": [],
			"payable": false,
			"stateMutability": "nonpayable",
			"type": "function"
		},
		{
			"constant": false,
			"inputs": [
				{
					"name": "_newBaseDenominationAddress",
					"type": "address"
				}
			],
			"name": "setBaseDenominationAddress",
			"outputs": [],
			"payable": false,
			"stateMutability": "nonpayable",
			"type": "function"
		},
		{
			"constant": false,
			"inputs": [],
			"name": "escapeHatch",
			"outputs": [],
			"payable": false,
			"stateMutability": "nonpayable",
			"type": "function"
		},
		{
			"constant": false,
			"inputs": [
				{
					"name": "_networkIntegerAmount",
					"type": "uint256"
				},
				{
					"name": "_networkFractionAmount",
					"type": "uint256"
				},
				{
					"name": "_denomination",
					"type": "bytes8"
				},
				{
					"name": "_primordialAmount",
					"type": "uint256"
				},
				{
					"name": "_baseChallenge",
					"type": "string"
				},
				{
					"name": "_encChallenge",
					"type": "string"
				},
				{
					"name": "_contentDatKey",
					"type": "string"
				},
				{
					"name": "_metadataDatKey",
					"type": "string"
				},
				{
					"name": "_fileSize",
					"type": "uint256"
				},
				{
					"name": "_profitPercentage",
					"type": "uint256"
				},
				{
					"name": "_extraData",
					"type": "string"
				}
			],
			"name": "stakeContent",
			"outputs": [],
			"payable": false,
			"stateMutability": "nonpayable",
			"type": "function"
		},
		{
			"constant": false,
			"inputs": [
				{
					"name": "_stakeId",
					"type": "bytes32"
				},
				{
					"name": "_profitPercentage",
					"type": "uint256"
				}
			],
			"name": "setProfitPercentage",
			"outputs": [],
			"payable": false,
			"stateMutability": "nonpayable",
			"type": "function"
		},
		{
			"constant": true,
			"inputs": [
				{
					"name": "_contentId",
					"type": "bytes32"
				}
			],
			"name": "contentById",
			"outputs": [
				{
					"name": "",
					"type": "address"
				},
				{
					"name": "",
					"type": "uint256"
				}
			],
			"payable": false,
			"stateMutability": "view",
			"type": "function"
		},
		{
			"constant": true,
			"inputs": [
				{
					"name": "_contentHostId",
					"type": "bytes32"
				}
			],
			"name": "contentHostById",
			"outputs": [
				{
					"name": "",
					"type": "bytes32"
				},
				{
					"name": "",
					"type": "address"
				},
				{
					"name": "",
					"type": "string"
				},
				{
					"name": "",
					"type": "string"
				}
			],
			"payable": false,
			"stateMutability": "view",
			"type": "function"
		},
		{
			"constant": true,
			"inputs": [
				{
					"name": "_stakeId",
					"type": "bytes32"
				}
			],
			"name": "stakedContentById",
			"outputs": [
				{
					"name": "",
					"type": "bytes32"
				},
				{
					"name": "",
					"type": "address"
				},
				{
					"name": "",
					"type": "uint256"
				},
				{
					"name": "",
					"type": "uint256"
				},
				{
					"name": "",
					"type": "uint256"
				},
				{
					"name": "",
					"type": "uint256"
				},
				{
					"name": "",
					"type": "bool"
				},
				{
					"name": "",
					"type": "uint256"
				},
				{
					"name": "",
					"type": "string"
				}
			],
			"payable": false,
			"stateMutability": "view",
			"type": "function"
		},
		{
			"constant": false,
			"inputs": [
				{
					"name": "_stakeId",
					"type": "bytes32"
				},
				{
					"name": "_networkIntegerAmount",
					"type": "uint256"
				},
				{
					"name": "_networkFractionAmount",
					"type": "uint256"
				},
				{
					"name": "_denomination",
					"type": "bytes8"
				},
				{
					"name": "_primordialAmount",
					"type": "uint256"
				}
			],
			"name": "unstakePartialContent",
			"outputs": [],
			"payable": false,
			"stateMutability": "nonpayable",
			"type": "function"
		},
		{
			"constant": false,
			"inputs": [
				{
					"name": "_stakeId",
					"type": "bytes32"
				}
			],
			"name": "unstakeContent",
			"outputs": [],
			"payable": false,
			"stateMutability": "nonpayable",
			"type": "function"
		},
		{
			"constant": false,
			"inputs": [
				{
					"name": "_stakeId",
					"type": "bytes32"
				},
				{
					"name": "_networkIntegerAmount",
					"type": "uint256"
				},
				{
					"name": "_networkFractionAmount",
					"type": "uint256"
				},
				{
					"name": "_denomination",
					"type": "bytes8"
				},
				{
					"name": "_primordialAmount",
					"type": "uint256"
				}
			],
			"name": "stakeExistingContent",
			"outputs": [],
			"payable": false,
			"stateMutability": "nonpayable",
			"type": "function"
		},
		{
			"constant": true,
			"inputs": [
				{
					"name": "_contentHostId",
					"type": "bytes32"
				}
			],
			"name": "contentHostPrice",
			"outputs": [
				{
					"name": "",
					"type": "uint256"
				}
			],
			"payable": false,
			"stateMutability": "view",
			"type": "function"
		},
		{
			"constant": false,
			"inputs": [
				{
					"name": "_contentHostId",
					"type": "bytes32"
				},
				{
					"name": "_networkIntegerAmount",
					"type": "uint256"
				},
				{
					"name": "_networkFractionAmount",
					"type": "uint256"
				},
				{
					"name": "_denomination",
					"type": "bytes8"
				},
				{
					"name": "_publicAddress",
					"type": "address"
				}
			],
			"name": "buyContent",
			"outputs": [],
			"payable": false,
			"stateMutability": "nonpayable",
			"type": "function"
		},
		{
			"constant": true,
			"inputs": [
				{
					"name": "_purchaseId",
					"type": "bytes32"
				}
			],
			"name": "purchaseReceiptById",
			"outputs": [
				{
					"name": "",
					"type": "bytes32"
				},
				{
					"name": "",
					"type": "address"
				},
				{
					"name": "",
					"type": "uint256"
				},
				{
					"name": "",
					"type": "address"
				},
				{
					"name": "",
					"type": "uint256"
				}
			],
			"payable": false,
			"stateMutability": "view",
			"type": "function"
		},
		{
			"constant": false,
			"inputs": [
				{
					"name": "_purchaseId",
					"type": "bytes32"
				},
				{
					"name": "_baseChallengeV",
					"type": "uint8"
				},
				{
					"name": "_baseChallengeR",
					"type": "bytes32"
				},
				{
					"name": "_baseChallengeS",
					"type": "bytes32"
				},
				{
					"name": "_encChallenge",
					"type": "string"
				},
				{
					"name": "_contentDatKey",
					"type": "string"
				},
				{
					"name": "_metadataDatKey",
					"type": "string"
				}
			],
			"name": "becomeHost",
			"outputs": [],
			"payable": false,
			"stateMutability": "nonpayable",
			"type": "function"
		}
	],
	"bytecode": "0x608060405234801561001057600080fd5b5060405160608061408583398101604090815281516020830151919092015160008054600160a060020a0319908116331790915560078054600160a060020a0395861690831681179091556008805494861694831685179055600a805483169091179055600b80548216909317909255600c80549390911692909116919091179055613fe4806100a16000396000f3006080604052600436106101665763ffffffff60e060020a6000350416630292f88a811461016b5780631554611f1461018e57806316c38b3c146101a35780631ef7b68a146101bd5780631f3a0e411461020d578063202352f7146102365780633848627b1461025d57806353d6fd5914610272578063555ea48c146102985780635c975abb1461038257806370660f7c146103975780639b19251a146103c5578063a5d77074146103e6578063a9e3fd2714610560578063adb517cd14610578578063b380b0d4146105af578063c3db397f146105ca578063c44a0795146105f8578063c5f956af14610629578063c96a74e51461063e578063ca4b208b14610653578063caf2976514610668578063e2499b981461067d578063e57c09bc14610763578063e6ab96ed1461079e578063ec05cc2b146107b6578063ef3c0531146107cb578063f2fde38b146108e9578063f4f0bfeb1461090a578063fffbd7aa1461091f575b600080fd5b34801561017757600080fd5b5061018c600160a060020a0360043516610943565b005b34801561019a57600080fd5b5061018c610a76565b3480156101af57600080fd5b5061018c6004351515610adc565b3480156101c957600080fd5b506101d5600435610b06565b60408051958652600160a060020a03948516602087015285810193909352921660608401526080830191909152519081900360a00190f35b34801561021957600080fd5b50610222610baf565b604080519115158252519081900360200190f35b34801561024257600080fd5b5061024b610bbd565b60408051918252519081900360200190f35b34801561026957600080fd5b5061024b610bc3565b34801561027e57600080fd5b5061018c600160a060020a03600435166024351515610bc9565b3480156102a457600080fd5b50604080516020600460843581810135601f810184900484028501840190955284845261018c948235946024803560ff169560443595606435953695919460a494909391019190819084018382808284375050604080516020601f89358b018035918201839004830284018301909452808352979a99988101979196509182019450925082915084018382808284375050604080516020601f89358b018035918201839004830284018301909452808352979a999881019791965091820194509250829150840183828082843750949750610c0b9650505050505050565b34801561038e57600080fd5b506102226110d7565b3480156103a357600080fd5b5061018c600435602435604435600160c060020a0319606435166084356110e0565b3480156103d157600080fd5b50610222600160a060020a03600435166117be565b3480156103f257600080fd5b50604080516020601f60843560048181013592830184900484028501840190955281845261018c948035946024803595600160c060020a031960443516956064359536959460a494909391019190819084018382808284375050604080516020601f89358b018035918201839004830284018301909452808352979a99988101979196509182019450925082915084018382808284375050604080516020601f89358b018035918201839004830284018301909452808352979a99988101979196509182019450925082915084018382808284375050604080516020601f89358b018035918201839004830284018301909452808352979a99988101979196509182019450925082915084018382808284375050604080516020888301358a018035601f8101839004830284018301909452838352979a89359a8a8301359a919990985060609091019650919450908101925081908401838280828437509497506117d39650505050505050565b34801561056c57600080fd5b5061024b600435611965565b34801561058457600080fd5b5061018c600435602435604435600160c060020a031960643516600160a060020a0360843516611d44565b3480156105bb57600080fd5b5061018c600435602435612525565b3480156105d657600080fd5b5061018c600435602435604435600160c060020a0319606435166084356125ef565b34801561060457600080fd5b5061060d612b95565b60408051600160a060020a039092168252519081900360200190f35b34801561063557600080fd5b5061060d612ba4565b34801561064a57600080fd5b5061024b612bb3565b34801561065f57600080fd5b5061060d612bb9565b34801561067457600080fd5b5061024b612bc8565b34801561068957600080fd5b50610695600435612bcf565b604051808a6000191660001916815260200189600160a060020a0316600160a060020a031681526020018881526020018781526020018681526020018581526020018415151515815260200183815260200180602001828103825283818151815260200191508051906020019080838360005b83811015610720578181015183820152602001610708565b50505050905090810190601f16801561074d5780820380516001836020036101000a031916815260200191505b509a505050505050505050505060405180910390f35b34801561076f57600080fd5b5061077b600435612d71565b60408051600160a060020a03909316835260208301919091528051918290030190f35b3480156107aa57600080fd5b5061018c600435612e85565b3480156107c257600080fd5b5061060d61312b565b3480156107d757600080fd5b506107e360043561313a565b60405180856000191660001916815260200184600160a060020a0316600160a060020a031681526020018060200180602001838103835285818151815260200191508051906020019080838360005b8381101561084a578181015183820152602001610832565b50505050905090810190601f1680156108775780820380516001836020036101000a031916815260200191505b50838103825284518152845160209182019186019080838360005b838110156108aa578181015183820152602001610892565b50505050905090810190601f1680156108d75780820380516001836020036101000a031916815260200191505b50965050505050505060405180910390f35b3480156108f557600080fd5b5061018c600160a060020a0360043516613388565b34801561091657600080fd5b5061024b6133c1565b34801561092b57600080fd5b5061024b600160a060020a03600435166024356133c7565b600054600160a060020a0316331461095a57600080fd5b80600160a060020a0316630aa245466040518163ffffffff1660e060020a028152600401602060405180830381600087803b15801561099857600080fd5b505af11580156109ac573d6000803e3d6000fd5b505050506040513d60208110156109c257600080fd5b5051158015610a3c575080600160a060020a031663ba2f81706040518163ffffffff1660e060020a028152600401602060405180830381600087803b158015610a0a57600080fd5b505af1158015610a1e573d6000803e3d6000fd5b505050506040513d6020811015610a3457600080fd5b505115156001145b1515610a4757600080fd5b60078054600160a060020a0319908116600160a060020a039384161791829055600a8054929093169116179055565b600054600160a060020a03163314610a8d57600080fd5b600254610100900460ff1615610aa257600080fd5b6002805461ff0019166101001790556040517f16ed36fbe43aed6ba7426b24d35620696380d398f2f22f918dd74e4d3e0ceef990600090a1565b600054600160a060020a03163314610af357600080fd5b6002805460ff1916911515919091179055565b6000806000806000610b16613e27565b60008781526014602052604081205411610b2f57600080fd5b505050600093845250506014602090815260408084205484526013825292839020835160c0810185528154815260018201549281018390526002820154600160a060020a0390811695820186905260038301546060830181905260048401549091166080830181905260059093015460a090920182905292959293509091565b600254610100900460ff1681565b60055481565b60035481565b600054600160a060020a03163314610be057600080fd5b600160a060020a03919091166000908152600160205260409020805460ff1916911515919091179055565b610c13613e27565b600080610c1e613e5c565b60025460ff16158015610c395750600254610100900460ff16155b1515610c4457600080fd5b60008b81526014602052604081205411610c5d57600080fd5b60008b815260146020908152604080832054835260138252808320815160c081018352815481526001808301548286018190526002840154600160a060020a039081168487019081526003860154606086015260048601548216608086015260059095015460a0850152908752601286528487205487526011865284872082015480885260108752858820548852600f90965293909520909401549051939750919550909350163314610d0f57600080fd5b6000828152600e60209081526040808320548352600d825291829020825160808101845281548152600180830154600160a060020a031682850152600280840180548751601f948216156101000260001901909116929092049283018690048602820186018752828252929593949386019390929190830182828015610dd65780601f10610dab57610100808354040283529160200191610dd6565b820191906000526020600020905b815481529060010190602001808311610db957829003601f168201915b5050505050815260200160038201548152505090508360800151600160a060020a031673__AOLibrary_____________________________6379f3e0bf3084604001518e8e8e6040518663ffffffff1660e060020a0281526004018086600160a060020a0316600160a060020a03168152602001806020018560ff1660ff16815260200184600019166000191681526020018360001916600019168152602001828103825286818151815260200191508051906020019080838360005b83811015610eab578181015183820152602001610e93565b50505050905090810190601f168015610ed85780820380516001836020036101000a031916815260200191505b50965050505050505060206040518083038186803b158015610ef957600080fd5b505af4158015610f0d573d6000803e3d6000fd5b505050506040513d6020811015610f2357600080fd5b5051600160a060020a031614610f3857600080fd5b610f4533848989896133e4565b600c60009054906101000a9004600160a060020a0316600160a060020a0316633a085fe5848d87606001518560600151600f6000601060008c6000191660001916815260200190815260200160002054815260200190815260200160002060020160009054906101000a9004600160a060020a031660116000601260008e602001516000191660001916815260200190815260200160002054815260200190815260200160002060020160009054906101000a9004600160a060020a03166040518763ffffffff1660e060020a028152600401808760001916600019168152602001866000191660001916815260200185815260200184815260200183600160a060020a0316600160a060020a0316815260200182600160a060020a0316600160a060020a031681526020019650505050505050602060405180830381600087803b15801561109357600080fd5b505af11580156110a7573d6000803e3d6000fd5b505050506040513d60208110156110bd57600080fd5b505115156110ca57600080fd5b5050505050505050505050565b60025460ff1681565b60006110ea613e5c565b60025460009060ff161580156111085750600254610100900460ff16155b151561111357600080fd5b6000888152601060205260408120541161112c57600080fd5b6000888152601060209081526040808320548352600f82528083206001808201548552600e8452828520548552600d84529382902082516080810184528154815281860154600160a060020a031681860152600280830180548651601f99821615610100026000190190911692909204978801879004870282018701865287825293995090959194938601939092919083018282801561120d5780601f106111e25761010080835404028352916020019161120d565b820191906000526020600020905b8154815290600101906020018083116111f057829003601f168201915b5050509183525050600391909101546020909101526002840154909250600160a060020a0316331461123e57600080fd5b600087118061124d5750600086115b806112585750600084115b151561126357600080fd5b60085460608301516004850154600386015473__AOLibrary_____________________________93632618ae2193600160a060020a039091169290916112ae9163ffffffff6136e416565b6040805160e060020a63ffffffff8716028152600160a060020a03909416600485015260248401929092526044830152606482018b9052608482018a9052600160c060020a0319891660a483015260c482018890525160e4808301926020929190829003018186803b15801561132357600080fd5b505af4158015611337573d6000803e3d6000fd5b505050506040513d602081101561134d57600080fd5b5051151561135a57600080fd5b60008411801561136e5750600783015460ff165b801561137e575060008360040154115b801561138e575060008360050154115b15611434576005830154600a54604080517f56307efc0000000000000000000000000000000000000000000000000000000081523360048201529051600160a060020a03909216916356307efc916024808201926020929091908290030181600087803b1580156113fe57600080fd5b505af1158015611412573d6000803e3d6000fd5b505050506040513d602081101561142857600080fd5b50511461143457600080fd5b60078301805460ff19166001179055600085901a60f860020a02600160f860020a03191615801590611470575060008711806114705750600086115b156115e757600b54604080517f217db8e8000000000000000000000000000000000000000000000000000000008152600481018a905260248101899052600160c060020a0319881660448201529051600160a060020a039092169163217db8e8916064808201926020929091908290030181600087803b1580156114f357600080fd5b505af1158015611507573d6000803e3d6000fd5b505050506040513d602081101561151d57600080fd5b50516003840154909150611537908263ffffffff6136e416565b6003840155600a546002840154604080517f31a8aeb3000000000000000000000000000000000000000000000000000000008152600160a060020a03928316600482015260248101859052905191909216916331a8aeb39160448083019260209291908290030181600087803b1580156115b057600080fd5b505af11580156115c4573d6000803e3d6000fd5b505050506040513d60208110156115da57600080fd5b505115156115e757600080fd5b600084111561175d576004830154611605908563ffffffff6136e416565b600480850191909155600a546002850154604080517f56307efc000000000000000000000000000000000000000000000000000000008152600160a060020a0392831694810194909452519116916356307efc9160248083019260209291908290030181600087803b15801561167a57600080fd5b505af115801561168e573d6000803e3d6000fd5b505050506040513d60208110156116a457600080fd5b505160058401819055600a546002850154604080517f7e904f7b000000000000000000000000000000000000000000000000000000008152600160a060020a03928316600482015260248101899052604481019490945251911691637e904f7b9160648083019260209291908290030181600087803b15801561172657600080fd5b505af115801561173a573d6000803e3d6000fd5b505050506040513d602081101561175057600080fd5b5051151561175d57600080fd5b60018301548354600385015460048601546005870154604080519384526020840192909252828201525133917f7fa32f70b286f05be6f001e570ad7f2e82d767dc5ec7f8e0e585414189184224919081900360600190a45050505050505050565b60016020526000908152604090205460ff1681565b600254600090819060ff161580156117f35750600254610100900460ff16155b15156117fe57600080fd5b885160001061180c57600080fd5b6000851161181957600080fd5b60008d1180611828575060008c115b80611833575060008a115b151561183e57600080fd5b600854604080517f05c6c870000000000000000000000000000000000000000000000000000000008152600160a060020a039092166004830152602482018f9052604482018e9052600160c060020a03198d166064830152608482018c905260a482018790525173__AOLibrary_____________________________916305c6c8709160c4808301926020929190829003018186803b1580156118e057600080fd5b505af41580156118f4573d6000803e3d6000fd5b505050506040513d602081101561190a57600080fd5b5051151560011461191a57600080fd5b620f424084111561192a57600080fd5b611935338a876136f7565b915061194733838f8f8f8f8a8a613882565b905061195633828a8a8a6133e4565b50505050505050505050505050565b600061196f613e84565b611977613eb8565b60025460ff161580156119925750600254610100900460ff16155b151561199d57600080fd5b600084815260126020526040812054116119b657600080fd5b60008481526012602090815260408083205483526011825291829020825160c0810184528154815260018083015482850152600280840154600160a060020a0316838701526003840180548751601f948216156101000260001901909116929092049283018690048602820186019096528181529194929360608601939190830182828015611a865780601f10611a5b57610100808354040283529160200191611a86565b820191906000526020600020905b815481529060010190602001808311611a6957829003601f168201915b505050918352505060048201805460408051602060026001851615610100026000190190941693909304601f8101849004840282018401909252818152938201939291830182828015611b1a5780601f10611aef57610100808354040283529160200191611b1a565b820191906000526020600020905b815481529060010190602001808311611afd57829003601f168201915b505050918352505060058201805460408051602060026001851615610100026000190190941693909304601f8101849004840282018401909252818152938201939291830182828015611bae5780601f10611b8357610100808354040283529160200191611bae565b820191906000526020600020905b815481529060010190602001808311611b9157829003601f168201915b505050919092525050506020808201516000908152601082526040808220548252600f8352908190208151610140810183528154815260018083015482860152600280840154600160a060020a0316838601526003840154606084015260048401546080840152600584015460a0840152600684015460c0840152600784015460ff16151560e08401526008840154610100808501919091526009850180548751601f9582161590930260001901169290920492830187900487028101870190955281855295975090949193610120860193929190830182828015611cd45780601f10611ca957610100808354040283529160200191611cd4565b820191906000526020600020905b815481529060010190602001808311611cb757829003601f168201915b50505050508152505090508060e00151151560011515148015611d185750600081606001511180611d18575060008160800151118015611d18575060008160a00151115b1515611d2357600080fd5b60808101516060820151611d3c9163ffffffff6136e416565b949350505050565b611d4c613e84565b611d54613eb8565b600254600090819060ff16158015611d745750600254610100900460ff16155b1515611d7f57600080fd5b60008981526012602052604081205411611d9857600080fd5b600160a060020a0385161515611dad57600080fd5b60008981526012602090815260408083205483526011825291829020825160c0810184528154815260018083015482850152600280840154600160a060020a0316838701526003840180548751601f948216156101000260001901909116929092049283018690048602820186019096528181529194929360608601939190830182828015611e7d5780601f10611e5257610100808354040283529160200191611e7d565b820191906000526020600020905b815481529060010190602001808311611e6057829003601f168201915b505050918352505060048201805460408051602060026001851615610100026000190190941693909304601f8101849004840282018401909252818152938201939291830182828015611f115780601f10611ee657610100808354040283529160200191611f11565b820191906000526020600020905b815481529060010190602001808311611ef457829003601f168201915b505050918352505060058201805460408051602060026001851615610100026000190190941693909304601f8101849004840282018401909252818152938201939291830182828015611fa55780601f10611f7a57610100808354040283529160200191611fa5565b820191906000526020600020905b815481529060010190602001808311611f8857829003601f168201915b505050919092525050506020808201516000908152601082526040808220548252600f8352908190208151610140810183528154815260018083015482860152600280840154600160a060020a0316838601526003840154606084015260048401546080840152600584015460a0840152600684015460c0840152600784015460ff16151560e08401526008840154610100808501919091526009850180548751601f95821615909302600019011692909204928301879004870281018701909552818552959950909491936101208601939291908301828280156120cb5780601f106120a0576101008083540402835291602001916120cb565b820191906000526020600020905b8154815290600101906020018083116120ae57829003601f168201915b50505050508152505092508260e0015115156001151514801561210f575060008360600151118061210f57506000836080015111801561210f575060008360a00151115b151561211a57600080fd5b3360009081526015602090815260408083208c8452909152812054901a60f860020a02600160f860020a0319161561215157600080fd5b600160f860020a031960f860020a600088901a02161580159061217e5750600088118061217e5750600087115b151561218957600080fd5b6008546080840151606085015173__AOLibrary_____________________________9263749b782092600160a060020a03909116916121cd9163ffffffff6136e416565b6040805160e060020a63ffffffff8616028152600160a060020a0390931660048401526024830191909152604482018c9052606482018b9052600160c060020a03198a1660848301525160a4808301926020929190829003018186803b15801561223657600080fd5b505af415801561224a573d6000803e3d6000fd5b505050506040513d602081101561226057600080fd5b5051151561226d57600080fd5b600680546001019055604080516c010000000000000000000000003081026020808401919091523391909102603483015260488083018d905283518084039091018152606890920192839052815191929182918401908083835b602083106122e65780518252601f1990920191602091820191016122c7565b51815160209384036101000a60001901801990921691161790526040805192909401829003909120600654600090815260139092529290206002810154929650945050600160a060020a0316159150612340905057600080fd5b81815560018101899055600281018054600160a060020a03191633179055608083015160608401516123779163ffffffff6136e416565b600382015560048082018054600160a060020a031916600160a060020a038881169190911790915542600584015560065460008581526014602090815260408083209390935533808352601582528383208f84528252838320889055600c5460608a015160808b015160a08c015160c08d01518d8901518f8a01518a517fb7f125d60000000000000000000000000000000000000000000000000000000081529c8d019790975260248c018e905260448c019490945260648b019290925260848a015260a4890152861660c488015290851660e48701529251929093169363b7f125d69361010480830194919391928390030190829087803b15801561247c57600080fd5b505af1158015612490573d6000803e3d6000fd5b505050506040513d60208110156124a657600080fd5b505115156124b357600080fd5b60018101548154600283015460038401546004850154600586015460408051938452600160a060020a03928316602085015283810191909152519216917f100dc2d918d977159ab8ebcce7b49bc14d8e525537f213955e3d95f4ff7689c49181900360600190a4505050505050505050565b60025460009060ff161580156125435750600254610100900460ff16155b151561254e57600080fd5b620f424082111561255e57600080fd5b6000838152601060205260408120541161257757600080fd5b506000828152601060209081526040808320548352600f90915290206002810154600160a060020a031633146125ac57600080fd5b60068101829055604080518381529051849133917f6c4a0cfd4af9f173dec0ac350616d6c855be630c8c83b3cd18879ad5a6bf6d299181900360200190a3505050565b60006125f9613e5c565b60025460009060ff161580156126175750600254610100900460ff16155b151561262257600080fd5b6000888152601060205260408120541161263b57600080fd5b600087118061264a5750600086115b806126555750600084115b151561266057600080fd5b6000888152601060209081526040808320548352600f82528083206001808201548552600e8452828520548552600d84529382902082516080810184528154815281860154600160a060020a031681860152600280830180548651601f9982161561010002600019019091169290920497880187900487028201870186528782529399509095919493860193909291908301828280156127415780601f1061271657610100808354040283529160200191612741565b820191906000526020600020905b81548152906001019060200180831161272457829003601f168201915b5050509183525050600391909101546020909101526002840154909250600160a060020a0316331461277257600080fd5b600783015460ff16151560011480156127ac57506000836003015411806127ac5750600083600401541180156127ac575060008360050154115b15156127b757600080fd5b60085460038401546004808601546060860151604080517f6c4ef21e000000000000000000000000000000000000000000000000000000008152600160a060020a0390961693860193909352602485018c9052604485018b9052600160c060020a03198a1660648601526084850189905260a485019390935260c484015260e48301919091525173__AOLibrary_____________________________91636c4ef21e91610104808301926020929190829003018186803b15801561287a57600080fd5b505af415801561288e573d6000803e3d6000fd5b505050506040513d60208110156128a457600080fd5b505115156128b157600080fd5b600160f860020a031960f860020a600087901a0216158015906128de575060008711806128de5750600086115b15612a4e57600b54604080517f217db8e8000000000000000000000000000000000000000000000000000000008152600481018a905260248101899052600160c060020a0319881660448201529051600160a060020a039092169163217db8e8916064808201926020929091908290030181600087803b15801561296157600080fd5b505af1158015612975573d6000803e3d6000fd5b505050506040513d602081101561298b57600080fd5b505160038401549091506129a5908263ffffffff613e1516565b6003840155600a54604080517f731a3b06000000000000000000000000000000000000000000000000000000008152336004820152602481018490529051600160a060020a039092169163731a3b06916044808201926020929091908290030181600087803b158015612a1757600080fd5b505af1158015612a2b573d6000803e3d6000fd5b505050506040513d6020811015612a4157600080fd5b50511515612a4e57600080fd5b6000841115612b26576004830154612a6c908563ffffffff613e1516565b600480850191909155600a546005850154604080517f74ead7b7000000000000000000000000000000000000000000000000000000008152339481019490945260248401889052604484019190915251600160a060020a03909116916374ead7b79160648083019260209291908290030181600087803b158015612aef57600080fd5b505af1158015612b03573d6000803e3d6000fd5b505050506040513d6020811015612b1957600080fd5b50511515612b2657600080fd5b6001830154835460028501546003860154600487015460058801546040805193845260208401929092528282015251600160a060020a03909216917f645f75eb984f0b89f1e9887da267d2025a37764e7bd6537b7d7eff900e8725eb9181900360600190a45050505050505050565b600754600160a060020a031681565b600854600160a060020a031681565b60045481565b600054600160a060020a031681565b620f424081565b6000806000806000806000806060612be5613eb8565b60008b81526010602052604081205411612bfe57600080fd5b60008b8152601060209081526040808320548352600f8252918290208251610140810184528154815260018083015482850152600280840154600160a060020a0316838701526003840154606084015260048401546080840152600584015460a0840152600684015460c0840152600784015460ff16151560e08401526008840154610100808501919091526009850180548851601f9582161590930260001901169290920492830186900486028101860190965281865291949293610120860193929190830182828015612d145780601f10612ce957610100808354040283529160200191612d14565b820191906000526020600020905b815481529060010190602001808311612cf757829003601f168201915b505050505081525050905080602001518160400151826060015183608001518460a001518560c001518660e00151876101000151886101200151809050995099509950995099509950995099509950509193959799909294969850565b600080612d7c613e5c565b6000848152600e602052604081205411612d9557600080fd5b6000848152600e60209081526040808320548352600d825291829020825160808101845281548152600180830154600160a060020a031682850152600280840180548751601f948216156101000260001901909116929092049283018690048602820186018752828252929593949386019390929190830182828015612e5c5780601f10612e3157610100808354040283529160200191612e5c565b820191906000526020600020905b815481529060010190602001808311612e3f57829003601f168201915b505050505081526020016003820154815250509050806020015181606001519250925050915091565b60025460009081908190819060ff16158015612ea95750600254610100900460ff16155b1515612eb457600080fd5b60008581526010602052604081205411612ecd57600080fd5b6000858152601060209081526040808320548352600f90915290206002810154909450600160a060020a03163314612f0457600080fd5b600784015460ff1615156001148015612f3e5750600084600301541180612f3e575060008460040154118015612f3e575060008460050154115b1515612f4957600080fd5b60078401805460ff1916905560038401546000101561301557600384018054600091829055600a54604080517f731a3b06000000000000000000000000000000000000000000000000000000008152336004820152602481018490529051929650600160a060020a039091169263731a3b06926044808401936020939083900390910190829087803b158015612fde57600080fd5b505af1158015612ff2573d6000803e3d6000fd5b505050506040513d602081101561300857600080fd5b5051151561301557600080fd5b6000846004015411156130eb5750506004808301805460058501805460009384905590839055600a54604080517f74ead7b7000000000000000000000000000000000000000000000000000000008152339681019690965260248601849052604486018390525192949193600160a060020a03909116926374ead7b7926064808201936020939283900390910190829087803b1580156130b457600080fd5b505af11580156130c8573d6000803e3d6000fd5b505050506040513d60208110156130de57600080fd5b505115156130eb57600080fd5b60028401546040518691600160a060020a0316907eeb6a306a149d2ec8a5e5f228483a31d06863f4cd48237ddf5c1c236805def890600090a35050505050565b600954600160a060020a031681565b600080606080613148613e84565b6000868152601260205260408120541161316157600080fd5b60008681526012602090815260408083205483526011825291829020825160c0810184528154815260018083015482850152600280840154600160a060020a0316838701526003840180548751601f9482161561010002600019019091169290920492830186900486028201860190965281815291949293606086019391908301828280156132315780601f1061320657610100808354040283529160200191613231565b820191906000526020600020905b81548152906001019060200180831161321457829003601f168201915b505050918352505060048201805460408051602060026001851615610100026000190190941693909304601f81018490048402820184019092528181529382019392918301828280156132c55780601f1061329a576101008083540402835291602001916132c5565b820191906000526020600020905b8154815290600101906020018083116132a857829003601f168201915b505050918352505060058201805460408051602060026001851615610100026000190190941693909304601f81018490048402820184019092528181529382019392918301828280156133595780601f1061332e57610100808354040283529160200191613359565b820191906000526020600020905b81548152906001019060200180831161333c57829003601f168201915b5050509190925250505060208101516040820151608083015160a0909301519199909850919650945092505050565b600054600160a060020a0316331461339f57600080fd5b60008054600160a060020a031916600160a060020a0392909216919091179055565b60065481565b601560209081526000928352604080842090915290825290205481565b600080600085511115156133f757600080fd5b835160001061340557600080fd5b825160001061341357600080fd5b6000868152601060205260408120541161342c57600080fd5b600480546001019055604080516c01000000000000000000000000308102602080840191909152600160a060020a038b16909102603483015260488083018a905283518084039091018152606890920192839052815191929182918401908083835b602083106134ad5780518252601f19909201916020918201910161348e565b51815160209384036101000a60001901801990921691161790526040805192909401829003909120600454600090815260119092529290206002810154929650945050600160a060020a0316159150613507905057600080fd5b81815560018101869055600281018054600160a060020a031916600160a060020a03891617905584516135439060038301906020880190613f1d565b5083516135599060048301906020870190613f1d565b50825161356f9060058301906020860190613f1d565b506004805460008481526012602090815260409182902092909255835460028086015460018088015485518181526060978101888152988a018054938416156101000260001901909316949094049684018790529396600160a060020a03909216957ff0f838e428cacd8f5b84897fb23a2f3f9da3898d1b2ff5fe647fa9b6e7c3789b95919360058a019390929091908301906080840190869080156136565780601f1061362b57610100808354040283529160200191613656565b820191906000526020600020905b81548152906001019060200180831161363957829003601f168201915b50508381038252845460026000196101006001841615020190911604808252602090910190859080156136ca5780601f1061369f576101008083540402835291602001916136ca565b820191906000526020600020905b8154815290600101906020018083116136ad57829003601f168201915b50509550505050505060405180910390a350505050505050565b818101828110156136f157fe5b92915050565b6003805460010190819055604080516c01000000000000000000000000308102602080840191909152600160a060020a038816909102603483015260488083019490945282518083039094018452606890910191829052825160009384938493919290918291908401908083835b602083106137845780518252601f199092019160209182019101613765565b51815160209384036101000a600019018019909216911617905260408051929094018290039091206003546000908152600d9092529290206001810154929650945050600160a060020a03161591506137de905057600080fd5b818155600181018054600160a060020a031916600160a060020a03881617905584516138139060028301906020880190613f1d565b50600380820185815590546000848152600e602090815260409182902092909255835460018501549354825190815291519093600160a060020a0316927fc32282ed7cda0874fea4bbf507f0e1b00098b28139068ce544f1a0f9a2fb8135928290030190a35495945050505050565b600580546001019055604080516c01000000000000000000000000308102602080840191909152600160a060020a038c16909102603483015260488083018b905283518084039091018152606890920192839052815160009384938493909282918401908083835b602083106139095780518252601f1990920191602091820191016138ea565b51815160209384036101000a600019018019909216911617905260408051929094018290039091206005546000908152600f9092529290206002810154929650945050600160a060020a0316159150613963905057600080fd5b81815560018082018b9055600282018054600160a060020a031916600160a060020a038e161790556006820186905560078201805460ff1916909117905542600882015583516139bc9060098301906020870190613f1d565b5060055460008381526010602052604081209190915587901a60f860020a027effffffffffffffffffffffffffffffffffffffffffffffffffffffffffffff1916600060f860020a0214158015613a1d57506000891180613a1d5750600088115b15613b7b57600b54604080517f217db8e8000000000000000000000000000000000000000000000000000000008152600481018c9052602481018b9052600160c060020a03198a1660448201529051600160a060020a039092169163217db8e8916064808201926020929091908290030181600087803b158015613aa057600080fd5b505af1158015613ab4573d6000803e3d6000fd5b505050506040513d6020811015613aca57600080fd5b505160038201819055600a54604080517f31a8aeb3000000000000000000000000000000000000000000000000000000008152600160a060020a038f811660048301526024820194909452905192909116916331a8aeb3916044808201926020929091908290030181600087803b158015613b4457600080fd5b505af1158015613b58573d6000803e3d6000fd5b505050506040513d6020811015613b6e57600080fd5b50511515613b7b57600080fd5b6000861115613cdb576004808201879055600a546002830154604080517f56307efc000000000000000000000000000000000000000000000000000000008152600160a060020a0392831694810194909452519116916356307efc9160248083019260209291908290030181600087803b158015613bf857600080fd5b505af1158015613c0c573d6000803e3d6000fd5b505050506040513d6020811015613c2257600080fd5b505160058201819055600a546002830154604080517f7e904f7b000000000000000000000000000000000000000000000000000000008152600160a060020a039283166004820152602481018b9052604481019490945251911691637e904f7b9160648083019260209291908290030181600087803b158015613ca457600080fd5b505af1158015613cb8573d6000803e3d6000fd5b505050506040513d6020811015613cce57600080fd5b50511515613cdb57600080fd5b8060010154600019168160000154600019168260020160009054906101000a9004600160a060020a0316600160a060020a03167f332a0c7cd149bed5079143cee24862eb27282a626b8244e0597d73506978ea2e84600301548560040154866005015487600601548860080154896009016040518087815260200186815260200185815260200184815260200183815260200180602001828103825283818154600181600116156101000203166002900481526020019150805460018160011615610100020316600290048015613df35780601f10613dc857610100808354040283529160200191613df3565b820191906000526020600020905b815481529060010190602001808311613dd657829003601f168201915b505097505050505050505060405180910390a4549a9950505050505050505050565b600082821115613e2157fe5b50900390565b6040805160c081018252600080825260208201819052918101829052606081018290526080810182905260a081019190915290565b6040805160808101825260008082526020820181905260609282018390529181019190915290565b6040805160c0810182526000808252602082018190529181019190915260608082018190526080820181905260a082015290565b6101406040519081016040528060008019168152602001600080191681526020016000600160a060020a031681526020016000815260200160008152602001600081526020016000815260200160001515815260200160008152602001606081525090565b828054600181600116156101000203166002900490600052602060002090601f016020900481019282601f10613f5e57805160ff1916838001178555613f8b565b82800160010185558215613f8b579182015b82811115613f8b578251825591602001919060010190613f70565b50613f97929150613f9b565b5090565b613fb591905b80821115613f975760008155600101613fa1565b905600a165627a7a72305820953a72ecf33fdea902bc4e3590a4a942302e53c90fa6cb87877042ea8c35ca720029",
	"source": "pragma solidity ^0.4.24;\n\nimport './SafeMath.sol';\nimport './developed.sol';\nimport './AOToken.sol';\nimport './AOTreasury.sol';\nimport './AOEarning.sol';\nimport './AOLibrary.sol';\n\n/**\n * @title AOContent\n *\n * The purpose of this contract is to allow content creator to stake network ERC20 AO tokens and/or primordial AO Tokens\n * on his/her content\n */\ncontract AOContent is developed {\n\tusing SafeMath for uint256;\n\n\tbool public paused;\n\tbool public killed;\n\tuint256 constant public PERCENTAGE_DIVISOR = 10 ** 6; // 100% = 1000000\n\tuint256 public totalContents;\n\tuint256 public totalContentHosts;\n\tuint256 public totalStakedContents;\n\tuint256 public totalPurchaseReceipts;\n\n\taddress public baseDenominationAddress;\n\taddress public treasuryAddress;\n\taddress public earningAddress;\n\tAOToken internal _baseAO;\n\tAOTreasury internal _treasury;\n\tAOEarning internal _earning;\n\n\tstruct Content {\n\t\tbytes32 contentId;\n\t\taddress creator;\n\t\t/**\n\t\t * baseChallenge is the content's PUBLIC KEY\n\t\t * When a request node wants to be a host, we require it to send a signed base challenge (its content's PUBLIC KEY)\n\t\t * so that we can verify the authenticity of the content by comparing what the contract has and what the request node\n\t\t * submit\n\t\t */\n\t\tstring baseChallenge;\n\t\tuint256 fileSize;\n\t}\n\n\tstruct StakedContent {\n\t\tbytes32 stakeId;\n\t\tbytes32 contentId;\n\t\taddress stakeOwner;\n\t\tuint256 networkAmount; // total network token staked in base denomination\n\t\tuint256 primordialAmount;\t// the amount of primordial AO Token to stake (always in base denomination)\n\t\tuint256 primordialWeightedIndex;\n\t\tuint256 profitPercentage; // support up to 4 decimals, 100% = 1000000\n\t\tbool active; // true if currently staked, false when unstaked\n\t\tuint256 createdOnTimestamp;\n\t\tstring extraData;\n\t}\n\n\tstruct ContentHost {\n\t\tbytes32 contentHostId;\n\t\tbytes32 stakeId;\n\t\taddress host;\n\t\t/**\n\t\t * encChallenge is the content's PUBLIC KEY unique to the host\n\t\t */\n\t\tstring encChallenge;\n\t\tstring contentDatKey;\n\t\tstring metadataDatKey;\n\t}\n\n\tstruct PurchaseReceipt {\n\t\tbytes32 purchaseId;\n\t\tbytes32 contentHostId;\n\t\taddress buyer;\n\t\tuint256 networkAmount; // total network token paid in base denomination\n\t\taddress publicAddress; // The public address provided by request node\n\t\tuint256 createdOnTimestamp;\n\t}\n\n\t// Mapping from Content index to the Content object\n\tmapping (uint256 => Content) private contents;\n\n\t// Mapping from content ID to index of the contents list\n\tmapping (bytes32 => uint256) private contentIndex;\n\n\t// Mapping from StakedContent index to the StakedContent object\n\tmapping (uint256 => StakedContent) private stakedContents;\n\n\t// Mapping from stake ID to index of the stakedContents list\n\tmapping (bytes32 => uint256) private stakedContentIndex;\n\n\t// Mapping from ContentHost index to the ContentHost object\n\tmapping (uint256 => ContentHost) private contentHosts;\n\n\t// Mapping from content host ID to index of the contentHosts list\n\tmapping (bytes32 => uint256) private contentHostIndex;\n\n\t// Mapping from PurchaseReceipt index to the PurchaseReceipt object\n\tmapping (uint256 => PurchaseReceipt) private purchaseReceipts;\n\n\t// Mapping from purchase ID to index of the purchaseReceipts list\n\tmapping (bytes32 => uint256) private purchaseReceiptIndex;\n\n\t// Mapping from buyer's content host ID to the buy ID\n\t// To check whether or not buyer has bought/paid for a content\n\tmapping (address => mapping (bytes32 => bytes32)) public buyerPurchaseReceipts;\n\n\t// Event to be broadcasted to public when `content` is stored\n\tevent StoreContent(address indexed creator, bytes32 indexed contentId, uint256 fileSize);\n\n\t// Event to be broadcasted to public when `stakeOwner` stakes a new content\n\tevent StakeContent(address indexed stakeOwner, bytes32 indexed stakeId, bytes32 indexed contentId, uint256 baseNetworkAmount, uint256 primordialAmount, uint256 primordialWeightedIndex, uint256 profitPercentage, uint256 createdOnTimestamp, string extraData);\n\n\t// Event to be broadcasted to public when a node hosts a content\n\tevent HostContent(address indexed host, bytes32 indexed contentHostId, bytes32 stakeId, string contentDatKey, string metadataDatKey);\n\n\t// Event to be broadcasted to public when `stakeOwner` updates the staked content's profit percentage\n\tevent SetProfitPercentage(address indexed stakeOwner, bytes32 indexed stakeId, uint256 newProfitPercentage);\n\n\t// Event to be broadcasted to public when `stakeOwner` unstakes some network/primordial token from an existing content\n\tevent UnstakePartialContent(address indexed stakeOwner, bytes32 indexed stakeId, bytes32 indexed contentId, uint256 remainingNetworkAmount, uint256 remainingPrimordialAmount, uint256 primordialWeightedIndex);\n\n\t// Event to be broadcasted to public when `stakeOwner` unstakes all token amount on an existing content\n\tevent UnstakeContent(address indexed stakeOwner, bytes32 indexed stakeId);\n\n\t// Event to be broadcasted to public when `stakeOwner` re-stakes an existing content\n\tevent StakeExistingContent(address indexed stakeOwner, bytes32 indexed stakeId, bytes32 indexed contentId, uint256 currentNetworkAmount, uint256 currentPrimordialAmount, uint256 currentPrimordialWeightedIndex);\n\n\t// Event to be broadcasted to public when a request node buys a content\n\tevent BuyContent(address indexed buyer, bytes32 indexed purchaseId, bytes32 indexed contentHostId, uint256 paidNetworkAmount, address publicAddress, uint256 createdOnTimestamp);\n\n\t// Event to be broadcasted to public when emergency mode is triggered\n\tevent EscapeHatch();\n\n\t/**\n\t * @dev Constructor function\n\t * @param _baseDenominationAddress The address of AO base token\n\t * @param _treasuryAddress The address of AOTreasury\n\t * @param _earningAddress The address of AOEarning\n\t */\n\tconstructor(address _baseDenominationAddress, address _treasuryAddress, address _earningAddress) public {\n\t\tbaseDenominationAddress = _baseDenominationAddress;\n\t\ttreasuryAddress = _treasuryAddress;\n\t\t_baseAO = AOToken(_baseDenominationAddress);\n\t\t_treasury = AOTreasury(_treasuryAddress);\n\t\t_earning = AOEarning(_earningAddress);\n\t}\n\n\t/**\n\t * @dev Checks if contract is currently active\n\t */\n\tmodifier isActive {\n\t\trequire (paused == false && killed == false);\n\t\t_;\n\t}\n\n\t/***** DEVELOPER ONLY METHODS *****/\n\t/**\n\t * @dev Developer pauses/unpauses contract\n\t * @param _paused Either to pause contract or not\n\t */\n\tfunction setPaused(bool _paused) public onlyDeveloper {\n\t\tpaused = _paused;\n\t}\n\n\t/**\n\t * @dev Developer updates base denomination address\n\t * @param _newBaseDenominationAddress The new address\n\t */\n\tfunction setBaseDenominationAddress(address _newBaseDenominationAddress) public onlyDeveloper {\n\t\trequire (AOToken(_newBaseDenominationAddress).powerOfTen() == 0 && AOToken(_newBaseDenominationAddress).networkExchangeContract() == true);\n\t\tbaseDenominationAddress = _newBaseDenominationAddress;\n\t\t_baseAO = AOToken(baseDenominationAddress);\n\t}\n\n\t/**\n\t * @dev Developer triggers emergency mode.\n\t *\n\t */\n\tfunction escapeHatch() public onlyDeveloper {\n\t\trequire (killed == false);\n\t\tkilled = true;\n\t\temit EscapeHatch();\n\t}\n\n\t/***** PUBLIC METHODS *****/\n\t/**\n\t * @dev Stake `_networkIntegerAmount` + `_networkFractionAmount` of network token in `_denomination` and/or `_primordialAmount` primordial Tokens for a content\n\t * @param _networkIntegerAmount The integer amount of network token to stake\n\t * @param _networkFractionAmount The fraction amount of network token to stake\n\t * @param _denomination The denomination of the network token, i.e ao, kilo, mega, etc.\n\t * @param _primordialAmount The amount of primordial Token to stake\n\t * @param _baseChallenge The base challenge string (PUBLIC KEY) of the content\n\t * @param _encChallenge The encrypted challenge string (PUBLIC KEY) of the content unique to the host\n\t * @param _contentDatKey The dat key of the content\n\t * @param _metadataDatKey The dat key of the content's metadata\n\t * @param _fileSize The size of the file\n\t * @param _profitPercentage The percentage of profit the stake owner's media will charge\n\t * @param _extraData some extra information to send to the contract when staking a content\n\t */\n\tfunction stakeContent(\n\t\tuint256 _networkIntegerAmount,\n\t\tuint256 _networkFractionAmount,\n\t\tbytes8 _denomination,\n\t\tuint256 _primordialAmount,\n\t\tstring _baseChallenge,\n\t\tstring _encChallenge,\n\t\tstring _contentDatKey,\n\t\tstring _metadataDatKey,\n\t\tuint256 _fileSize,\n\t\tuint256 _profitPercentage,\n\t\tstring _extraData)\n\t\tpublic\n\t\tisActive {\n\t\trequire (bytes(_baseChallenge).length > 0);\n\t\trequire (_fileSize > 0);\n\t\trequire (_networkIntegerAmount > 0 || _networkFractionAmount > 0 || _primordialAmount > 0);\n\t\trequire (AOLibrary.canStake(treasuryAddress, _networkIntegerAmount, _networkFractionAmount, _denomination, _primordialAmount, _fileSize) == true);\n\t\trequire (_profitPercentage <= PERCENTAGE_DIVISOR);\n\n\t\t// Store this content\n\t\tbytes32 _contentId = _storeContent(msg.sender, _baseChallenge, _fileSize);\n\n\t\t// Stake the network/primordial token on content\n\t\tbytes32 _stakeId = _stakeContent(msg.sender, _contentId, _networkIntegerAmount, _networkFractionAmount, _denomination, _primordialAmount, _profitPercentage, _extraData);\n\n\t\t// Add the node info that hosts this content (in this case the creator himself)\n\t\t_hostContent(msg.sender, _stakeId, _encChallenge, _contentDatKey, _metadataDatKey);\n\t}\n\n\t/**\n\t * @dev Set profit percentage on existing staked content\n\t * @param _stakeId The ID of the staked content\n\t * @param _profitPercentage The new value to be set\n\t */\n\tfunction setProfitPercentage(bytes32 _stakeId, uint256 _profitPercentage) public isActive {\n\t\trequire (_profitPercentage <= PERCENTAGE_DIVISOR);\n\n\t\t// Make sure the staked content exist\n\t\trequire (stakedContentIndex[_stakeId] > 0);\n\n\t\tStakedContent storage _stakedContent = stakedContents[stakedContentIndex[_stakeId]];\n\t\t// Make sure the staked content owner is the same as the sender\n\t\trequire (_stakedContent.stakeOwner == msg.sender);\n\n\t\t_stakedContent.profitPercentage = _profitPercentage;\n\n\t\temit SetProfitPercentage(msg.sender, _stakeId, _profitPercentage);\n\t}\n\n\t/**\n\t * @dev Return content info at a given ID\n\t * @param _contentId The ID of the content\n\t * @return address of the creator\n\t * @return file size of the content\n\t */\n\tfunction contentById(bytes32 _contentId) public view returns (address, uint256) {\n\t\t// Make sure the content exist\n\t\trequire (contentIndex[_contentId] > 0);\n\t\tContent memory _content = contents[contentIndex[_contentId]];\n\t\treturn (\n\t\t\t_content.creator,\n\t\t\t_content.fileSize\n\t\t);\n\t}\n\n\t/**\n\t * @dev Return content host info at a given ID\n\t * @param _contentHostId The ID of the hosted content\n\t * @return The ID of the staked content\n\t * @return address of the host\n\t * @return the dat key of the content\n\t * @return the dat key of the content's metadata\n\t */\n\tfunction contentHostById(bytes32 _contentHostId) public view returns (bytes32, address, string, string) {\n\t\t// Make sure the content host exist\n\t\trequire (contentHostIndex[_contentHostId] > 0);\n\t\tContentHost memory _contentHost = contentHosts[contentHostIndex[_contentHostId]];\n\t\treturn (\n\t\t\t_contentHost.stakeId,\n\t\t\t_contentHost.host,\n\t\t\t_contentHost.contentDatKey,\n\t\t\t_contentHost.metadataDatKey\n\t\t);\n\t}\n\n\t/**\n\t * @dev Return staked content information at a given ID\n\t * @param _stakeId The ID of the staked content\n\t * @return The ID of the content being staked\n\t * @return address of the staked content's owner\n\t * @return the network base token amount staked for this content\n\t * @return the primordial token amount staked for this content\n\t * @return the primordial weighted index of the staked content\n\t * @return the profit percentage of the content\n\t * @return status of the staked content\n\t * @return the timestamp when the staked content was created\n\t * @return the extra information sent to the contract when staking a content\n\t */\n\tfunction stakedContentById(bytes32 _stakeId) public view returns (bytes32, address, uint256, uint256, uint256, uint256, bool, uint256, string) {\n\t\t// Make sure the staked content exist\n\t\trequire (stakedContentIndex[_stakeId] > 0);\n\n\t\tStakedContent memory _stakedContent = stakedContents[stakedContentIndex[_stakeId]];\n\t\treturn (\n\t\t\t_stakedContent.contentId,\n\t\t\t_stakedContent.stakeOwner,\n\t\t\t_stakedContent.networkAmount,\n\t\t\t_stakedContent.primordialAmount,\n\t\t\t_stakedContent.primordialWeightedIndex,\n\t\t\t_stakedContent.profitPercentage,\n\t\t\t_stakedContent.active,\n\t\t\t_stakedContent.createdOnTimestamp,\n\t\t\t_stakedContent.extraData\n\t\t);\n\t}\n\n\t/**\n\t * @dev Unstake existing staked content and refund partial staked amount to the stake owner\n\t *\t\tUse unstakeContent() to unstake all staked token amount. unstakePartialContent() can unstake only up to\n\t *\t\tthe mininum required to pay the fileSize\n\t * @param _stakeId The ID of the staked content\n\t * @param _networkIntegerAmount The integer amount of network token to unstake\n\t * @param _networkFractionAmount The fraction amount of network token to unstake\n\t * @param _denomination The denomination of the network token, i.e ao, kilo, mega, etc.\n\t * @param _primordialAmount The amount of primordial Token to unstake\n\t */\n\tfunction unstakePartialContent(bytes32 _stakeId, uint256 _networkIntegerAmount, uint256 _networkFractionAmount, bytes8 _denomination, uint256 _primordialAmount) public isActive {\n\t\t// Make sure the staked content exist\n\t\trequire (stakedContentIndex[_stakeId] > 0);\n\t\trequire (_networkIntegerAmount > 0 || _networkFractionAmount > 0 || _primordialAmount > 0);\n\n\t\tStakedContent storage _stakedContent = stakedContents[stakedContentIndex[_stakeId]];\n\t\tContent memory _content = contents[contentIndex[_stakedContent.contentId]];\n\n\t\t// Make sure the staked content owner is the same as the sender\n\t\trequire (_stakedContent.stakeOwner == msg.sender);\n\t\t// Make sure the staked content is currently active (staked) with some amounts\n\t\trequire (_stakedContent.active == true && (_stakedContent.networkAmount > 0 || (_stakedContent.primordialAmount > 0 && _stakedContent.primordialWeightedIndex > 0)));\n\t\t// Make sure the staked content has enough balance to unstake\n\t\trequire (AOLibrary.canUnstakePartial(treasuryAddress, _networkIntegerAmount, _networkFractionAmount, _denomination, _primordialAmount, _stakedContent.networkAmount, _stakedContent.primordialAmount, _content.fileSize));\n\n\t\tif (_denomination[0] != 0 && (_networkIntegerAmount > 0 || _networkFractionAmount > 0)) {\n\t\t\tuint256 _unstakeNetworkAmount = _treasury.toBase(_networkIntegerAmount, _networkFractionAmount, _denomination);\n\t\t\t_stakedContent.networkAmount = _stakedContent.networkAmount.sub(_unstakeNetworkAmount);\n\t\t\trequire (_baseAO.unstakeFrom(msg.sender, _unstakeNetworkAmount));\n\t\t}\n\t\tif (_primordialAmount > 0) {\n\t\t\t_stakedContent.primordialAmount = _stakedContent.primordialAmount.sub(_primordialAmount);\n\t\t\trequire (_baseAO.unstakePrimordialTokenFrom(msg.sender, _primordialAmount, _stakedContent.primordialWeightedIndex));\n\t\t}\n\t\temit UnstakePartialContent(_stakedContent.stakeOwner, _stakedContent.stakeId, _stakedContent.contentId, _stakedContent.networkAmount, _stakedContent.primordialAmount, _stakedContent.primordialWeightedIndex);\n\t}\n\n\t/**\n\t * @dev Unstake existing staked content and refund the total staked amount to the stake owner\n\t * @param _stakeId The ID of the staked content\n\t */\n\tfunction unstakeContent(bytes32 _stakeId) public isActive {\n\t\t// Make sure the staked content exist\n\t\trequire (stakedContentIndex[_stakeId] > 0);\n\n\t\tStakedContent storage _stakedContent = stakedContents[stakedContentIndex[_stakeId]];\n\t\t// Make sure the staked content owner is the same as the sender\n\t\trequire (_stakedContent.stakeOwner == msg.sender);\n\t\t// Make sure the staked content is currently active (staked) with some amounts\n\t\trequire (_stakedContent.active == true && (_stakedContent.networkAmount > 0 || (_stakedContent.primordialAmount > 0 && _stakedContent.primordialWeightedIndex > 0)));\n\n\t\t_stakedContent.active = false;\n\n\t\tif (_stakedContent.networkAmount > 0) {\n\t\t\tuint256 _unstakeNetworkAmount = _stakedContent.networkAmount;\n\t\t\t_stakedContent.networkAmount = 0;\n\t\t\trequire (_baseAO.unstakeFrom(msg.sender, _unstakeNetworkAmount));\n\t\t}\n\t\tif (_stakedContent.primordialAmount > 0) {\n\t\t\tuint256 _primordialAmount = _stakedContent.primordialAmount;\n\t\t\tuint256 _primordialWeightedIndex = _stakedContent.primordialWeightedIndex;\n\t\t\t_stakedContent.primordialAmount = 0;\n\t\t\t_stakedContent.primordialWeightedIndex = 0;\n\t\t\trequire (_baseAO.unstakePrimordialTokenFrom(msg.sender, _primordialAmount, _primordialWeightedIndex));\n\t\t}\n\t\temit UnstakeContent(_stakedContent.stakeOwner, _stakeId);\n\t}\n\n\t/**\n\t * @dev Stake existing content with more tokens (this is to increase the price)\n\t *\n\t * @param _stakeId The ID of the staked content\n\t * @param _networkIntegerAmount The integer amount of network token to stake\n\t * @param _networkFractionAmount The fraction amount of network token to stake\n\t * @param _denomination The denomination of the network token, i.e ao, kilo, mega, etc.\n\t * @param _primordialAmount The amount of primordial Token to stake. (The primordial weighted index has to match the current staked weighted index)\n\t */\n\tfunction stakeExistingContent(bytes32 _stakeId, uint256 _networkIntegerAmount, uint256 _networkFractionAmount, bytes8 _denomination, uint256 _primordialAmount) public isActive {\n\t\t// Make sure the staked content exist\n\t\trequire (stakedContentIndex[_stakeId] > 0);\n\n\t\tStakedContent storage _stakedContent = stakedContents[stakedContentIndex[_stakeId]];\n\t\tContent memory _content = contents[contentIndex[_stakedContent.contentId]];\n\n\t\t// Make sure the staked content owner is the same as the sender\n\t\trequire (_stakedContent.stakeOwner == msg.sender);\n\t\trequire (_networkIntegerAmount > 0 || _networkFractionAmount > 0 || _primordialAmount > 0);\n\t\trequire (AOLibrary.canStakeExisting(treasuryAddress, _content.fileSize, _stakedContent.networkAmount.add(_stakedContent.primordialAmount), _networkIntegerAmount, _networkFractionAmount, _denomination, _primordialAmount));\n\n\t\t// Make sure we can stake primordial token\n\t\t// If we are currently staking an active staked content, then the stake owner's weighted index has to match `stakedContent.primordialWeightedIndex`\n\t\t// i.e, can't use a combination of different weighted index. Stake owner has to call unstakeContent() to unstake all tokens first\n\t\tif (_primordialAmount > 0 && _stakedContent.active && _stakedContent.primordialAmount > 0 && _stakedContent.primordialWeightedIndex > 0) {\n\t\t\trequire (_baseAO.weightedIndexByAddress(msg.sender) == _stakedContent.primordialWeightedIndex);\n\t\t}\n\n\t\t_stakedContent.active = true;\n\t\tif (_denomination[0] != 0 && (_networkIntegerAmount > 0 || _networkFractionAmount > 0)) {\n\t\t\tuint256 _stakeNetworkAmount = _treasury.toBase(_networkIntegerAmount, _networkFractionAmount, _denomination);\n\t\t\t_stakedContent.networkAmount = _stakedContent.networkAmount.add(_stakeNetworkAmount);\n\t\t\trequire (_baseAO.stakeFrom(_stakedContent.stakeOwner, _stakeNetworkAmount));\n\t\t}\n\t\tif (_primordialAmount > 0) {\n\t\t\t_stakedContent.primordialAmount = _stakedContent.primordialAmount.add(_primordialAmount);\n\n\t\t\t// Primordial Token is the base AO Token\n\t\t\t_stakedContent.primordialWeightedIndex = _baseAO.weightedIndexByAddress(_stakedContent.stakeOwner);\n\t\t\trequire (_baseAO.stakePrimordialTokenFrom(_stakedContent.stakeOwner, _primordialAmount, _stakedContent.primordialWeightedIndex));\n\t\t}\n\n\t\temit StakeExistingContent(msg.sender, _stakedContent.stakeId, _stakedContent.contentId, _stakedContent.networkAmount, _stakedContent.primordialAmount, _stakedContent.primordialWeightedIndex);\n\t}\n\n\t/**\n\t * @dev Determine the content price hosted by a host\n\t * @param _contentHostId The content host ID to be checked\n\t * @return the price of the content\n\t */\n\tfunction contentHostPrice(bytes32 _contentHostId) public isActive view returns (uint256) {\n\t\t// Make sure content host exist\n\t\trequire (contentHostIndex[_contentHostId] > 0);\n\n\t\tContentHost memory _contentHost = contentHosts[contentHostIndex[_contentHostId]];\n\t\tStakedContent memory _stakedContent = stakedContents[stakedContentIndex[_contentHost.stakeId]];\n\t\t// Make sure content is currently staked\n\t\trequire (_stakedContent.active == true && (_stakedContent.networkAmount > 0 || (_stakedContent.primordialAmount > 0 && _stakedContent.primordialWeightedIndex > 0)));\n\t\treturn _stakedContent.networkAmount.add(_stakedContent.primordialAmount);\n\t}\n\n\t/**\n\t * @dev Bring content in to the requesting node by sending network tokens to the contract to pay for the content\n\t * @param _contentHostId The ID of hosted content\n\t * @param _networkIntegerAmount The integer amount of network token to pay\n\t * @param _networkFractionAmount The fraction amount of network token to pay\n\t * @param _denomination The denomination of the network token, i.e ao, kilo, mega, etc.\n\t * @param _publicAddress The public address of the request node\n\t */\n\tfunction buyContent(bytes32 _contentHostId, uint256 _networkIntegerAmount, uint256 _networkFractionAmount, bytes8 _denomination, address _publicAddress) public isActive {\n\t\t// Make sure the content host exist\n\t\trequire (contentHostIndex[_contentHostId] > 0);\n\n\t\t// Make sure public address is valid\n\t\trequire (_publicAddress != address(0));\n\n\t\tContentHost memory _contentHost = contentHosts[contentHostIndex[_contentHostId]];\n\t\tStakedContent memory _stakedContent = stakedContents[stakedContentIndex[_contentHost.stakeId]];\n\n\t\t// Make sure the content currently has stake\n\t\trequire (_stakedContent.active == true && (_stakedContent.networkAmount > 0 || (_stakedContent.primordialAmount > 0 && _stakedContent.primordialWeightedIndex > 0)));\n\n\t\t// Make sure the buyer has not bought this content previously\n\t\trequire (buyerPurchaseReceipts[msg.sender][_contentHostId][0] == 0);\n\n\t\t// Make sure the token amount can pay for the content price\n\t\trequire (_denomination[0] != 0 && (_networkIntegerAmount > 0 || _networkFractionAmount > 0));\n\t\trequire (AOLibrary.canBuy(treasuryAddress, _stakedContent.networkAmount.add(_stakedContent.primordialAmount), _networkIntegerAmount, _networkFractionAmount, _denomination));\n\n\t\t// Increment totalPurchaseReceipts;\n\t\ttotalPurchaseReceipts++;\n\n\t\t// Generate purchaseId\n\t\tbytes32 _purchaseId = keccak256(abi.encodePacked(this, msg.sender, _contentHostId));\n\t\tPurchaseReceipt storage _purchaseReceipt = purchaseReceipts[totalPurchaseReceipts];\n\n\t\t// Make sure we don't buy the same content twice\n\t\trequire (_purchaseReceipt.buyer == address(0));\n\n\t\t_purchaseReceipt.purchaseId = _purchaseId;\n\t\t_purchaseReceipt.contentHostId = _contentHostId;\n\t\t_purchaseReceipt.buyer = msg.sender;\n\t\t// Update the receipt with the correct network amount\n\t\t_purchaseReceipt.networkAmount = _stakedContent.networkAmount.add(_stakedContent.primordialAmount);\n\t\t_purchaseReceipt.publicAddress = _publicAddress;\n\t\t_purchaseReceipt.createdOnTimestamp = now;\n\n\t\tpurchaseReceiptIndex[_purchaseId] = totalPurchaseReceipts;\n\t\tbuyerPurchaseReceipts[msg.sender][_contentHostId] = _purchaseId;\n\n\t\t// Calculate content creator/host/foundation earning from this purchase and store them in escrow\n\t\trequire (_earning.calculateEarning(\n\t\t\tmsg.sender,\n\t\t\t_purchaseId,\n\t\t\t_stakedContent.networkAmount,\n\t\t\t_stakedContent.primordialAmount,\n\t\t\t_stakedContent.primordialWeightedIndex,\n\t\t\t_stakedContent.profitPercentage,\n\t\t\t_stakedContent.stakeOwner,\n\t\t\t_contentHost.host\n\t\t));\n\n\t\temit BuyContent(_purchaseReceipt.buyer, _purchaseReceipt.purchaseId, _purchaseReceipt.contentHostId, _purchaseReceipt.networkAmount, _purchaseReceipt.publicAddress, _purchaseReceipt.createdOnTimestamp);\n\t}\n\n\t/**\n\t * @dev Return purchase receipt info at a given ID\n\t * @param _purchaseId The ID of the purchased content\n\t * @return The ID of the content host\n\t * @return address of the buyer\n\t * @return paid network amount\n\t * @return request node's public address\n\t * @return created on timestamp\n\t */\n\tfunction purchaseReceiptById(bytes32 _purchaseId) public view returns (bytes32, address, uint256, address, uint256) {\n\t\t// Make sure the purchase receipt exist\n\t\trequire (purchaseReceiptIndex[_purchaseId] > 0);\n\t\tPurchaseReceipt memory _purchaseReceipt = purchaseReceipts[purchaseReceiptIndex[_purchaseId]];\n\t\treturn (\n\t\t\t_purchaseReceipt.contentHostId,\n\t\t\t_purchaseReceipt.buyer,\n\t\t\t_purchaseReceipt.networkAmount,\n\t\t\t_purchaseReceipt.publicAddress,\n\t\t\t_purchaseReceipt.createdOnTimestamp\n\t\t);\n\t}\n\n\t/**\n\t * @dev Request node wants to become a distribution node after buying the content\n\t *\t\tAlso, if this transaction succeeds, we release all of the earnings that are\n\t *\t\tcurrently in escrow for content creator/host/foundation\n\t */\n\tfunction becomeHost(bytes32 _purchaseId, uint8 _baseChallengeV, bytes32 _baseChallengeR, bytes32 _baseChallengeS, string _encChallenge, string _contentDatKey, string _metadataDatKey) public isActive {\n\t\t// Make sure the purchase receipt exist\n\t\trequire (purchaseReceiptIndex[_purchaseId] > 0);\n\n\t\tPurchaseReceipt memory _purchaseReceipt = purchaseReceipts[purchaseReceiptIndex[_purchaseId]];\n\t\tbytes32 _stakeId = contentHosts[contentHostIndex[_purchaseReceipt.contentHostId]].stakeId;\n\t\tbytes32 _contentId = stakedContents[stakedContentIndex[_stakeId]].contentId;\n\n\t\t// Make sure the purchase receipt owner is the same as the sender\n\t\trequire (_purchaseReceipt.buyer == msg.sender);\n\n\t\t// Verify that the file is not tampered by validating the base challenge signature\n\t\t// The signed base challenge key should match the one from content creator\n\t\tContent memory _content = contents[contentIndex[_contentId]];\n\t\trequire (AOLibrary.checkSignature(address(this), _content.baseChallenge, _baseChallengeV, _baseChallengeR, _baseChallengeS) == _purchaseReceipt.publicAddress);\n\n\t\t_hostContent(msg.sender, _stakeId, _encChallenge, _contentDatKey, _metadataDatKey);\n\n\t\t// Release earning from escrow\n\t\trequire (_earning.releaseEarning(_stakeId, _purchaseId, _purchaseReceipt.networkAmount, _content.fileSize, stakedContents[stakedContentIndex[_stakeId]].stakeOwner, contentHosts[contentHostIndex[_purchaseReceipt.contentHostId]].host));\n\t}\n\n\t/***** INTERNAL METHODS *****/\n\t/**\n\t * @dev Store the content information (content creation during staking)\n\t * @param _creator the address of the content creator\n\t * @param _baseChallenge The base challenge string (PUBLIC KEY) of the content\n\t * @param _fileSize The size of the file\n\t * @return the ID of the content\n\t */\n\tfunction _storeContent(address _creator, string _baseChallenge, uint256 _fileSize) internal returns (bytes32) {\n\t\t// Increment totalContents\n\t\ttotalContents++;\n\n\t\t// Generate contentId\n\t\tbytes32 _contentId = keccak256(abi.encodePacked(this, _creator, totalContents));\n\t\tContent storage _content = contents[totalContents];\n\n\t\t// Make sure we don't store the same content twice\n\t\trequire (_content.creator == address(0));\n\n\t\t_content.contentId = _contentId;\n\t\t_content.creator = _creator;\n\t\t_content.baseChallenge = _baseChallenge;\n\t\t_content.fileSize = _fileSize;\n\n\t\tcontentIndex[_contentId] = totalContents;\n\n\t\temit StoreContent(_content.creator, _content.contentId, _content.fileSize);\n\t\treturn _content.contentId;\n\t}\n\n\t/**\n\t * @dev Add the distribution node info that hosts the content\n\t * @param _host the address of the host\n\t * @param _stakeId The ID of the staked content\n\t * @param _encChallenge The encrypted challenge string (PUBLIC KEY) of the content unique to the host\n\t * @param _contentDatKey The dat key of the content\n\t * @param _metadataDatKey The dat key of the content's metadata\n\t */\n\tfunction _hostContent(address _host, bytes32 _stakeId, string _encChallenge, string _contentDatKey, string _metadataDatKey) internal {\n\t\trequire (bytes(_encChallenge).length > 0);\n\t\trequire (bytes(_contentDatKey).length > 0);\n\t\trequire (bytes(_metadataDatKey).length > 0);\n\t\trequire (stakedContentIndex[_stakeId] > 0);\n\n\t\t// Increment totalContentHosts\n\t\ttotalContentHosts++;\n\n\t\t// Generate contentId\n\t\tbytes32 _contentHostId = keccak256(abi.encodePacked(this, _host, _stakeId));\n\n\t\tContentHost storage _contentHost = contentHosts[totalContentHosts];\n\n\t\t// Make sure we don't host the same content twice\n\t\trequire (_contentHost.host == address(0));\n\n\t\t_contentHost.contentHostId = _contentHostId;\n\t\t_contentHost.stakeId = _stakeId;\n\t\t_contentHost.host = _host;\n\t\t_contentHost.encChallenge = _encChallenge;\n\t\t_contentHost.contentDatKey = _contentDatKey;\n\t\t_contentHost.metadataDatKey = _metadataDatKey;\n\n\t\tcontentHostIndex[_contentHostId] = totalContentHosts;\n\n\t\temit HostContent(_contentHost.host, _contentHost.contentHostId, _contentHost.stakeId, _contentHost.contentDatKey, _contentHost.metadataDatKey);\n\t}\n\n\t/**\n\t * @dev actual staking the content\n\t * @param _stakeOwner the address that stake the content\n\t * @param _contentId The ID of the content\n\t * @param _networkIntegerAmount The integer amount of network token to stake\n\t * @param _networkFractionAmount The fraction amount of network token to stake\n\t * @param _denomination The denomination of the network token, i.e ao, kilo, mega, etc.\n\t * @param _primordialAmount The amount of primordial Token to stake\n\t * @param _profitPercentage The percentage of profit the stake owner's media will charge\n\t * @param _extraData some extra information to send to the contract when staking a content\n\t * @return the newly created staked content ID\n\t */\n\tfunction _stakeContent(address _stakeOwner, bytes32 _contentId, uint256 _networkIntegerAmount, uint256 _networkFractionAmount, bytes8 _denomination, uint256 _primordialAmount, uint256 _profitPercentage, string _extraData) internal returns (bytes32) {\n\t\t// Increment totalStakedContents\n\t\ttotalStakedContents++;\n\n\t\t// Generate stakeId\n\t\tbytes32 _stakeId = keccak256(abi.encodePacked(this, _stakeOwner, _contentId));\n\t\tStakedContent storage _stakedContent = stakedContents[totalStakedContents];\n\n\t\t// Make sure we don't stake the same content twice\n\t\trequire (_stakedContent.stakeOwner == address(0));\n\n\t\t_stakedContent.stakeId = _stakeId;\n\t\t_stakedContent.contentId = _contentId;\n\t\t_stakedContent.stakeOwner = _stakeOwner;\n\t\t_stakedContent.profitPercentage = _profitPercentage;\n\t\t_stakedContent.active = true;\n\t\t_stakedContent.createdOnTimestamp = now;\n\t\t_stakedContent.extraData = _extraData;\n\n\t\tstakedContentIndex[_stakeId] = totalStakedContents;\n\n\t\tif (_denomination[0] != 0 && (_networkIntegerAmount > 0 || _networkFractionAmount > 0)) {\n\t\t\t_stakedContent.networkAmount = _treasury.toBase(_networkIntegerAmount, _networkFractionAmount, _denomination);\n\t\t\trequire (_baseAO.stakeFrom(_stakeOwner, _stakedContent.networkAmount));\n\t\t}\n\t\tif (_primordialAmount > 0) {\n\t\t\t_stakedContent.primordialAmount = _primordialAmount;\n\n\t\t\t// Primordial Token is the base AO Token\n\t\t\t_stakedContent.primordialWeightedIndex = _baseAO.weightedIndexByAddress(_stakedContent.stakeOwner);\n\t\t\trequire (_baseAO.stakePrimordialTokenFrom(_stakedContent.stakeOwner, _primordialAmount, _stakedContent.primordialWeightedIndex));\n\t\t}\n\n\t\temit StakeContent(_stakedContent.stakeOwner, _stakedContent.stakeId, _stakedContent.contentId, _stakedContent.networkAmount, _stakedContent.primordialAmount, _stakedContent.primordialWeightedIndex, _stakedContent.profitPercentage, _stakedContent.createdOnTimestamp, _stakedContent.extraData);\n\n\t\treturn _stakedContent.stakeId;\n\t}\n}\n",
	"sourcePath": "/home/jmulyono/ao-contracts/contracts/AOContent.sol",
	"compiler": {
		"name": "solc",
		"version": "0.4.24+commit.e67f0147.Emscripten.clang"
	},
	"schemaVersion": "2.0.1",
	"updatedAt": "2018-09-20T04:49:46.946Z"
}