{
  "contractName": "AOContentHost",
  "abi": [
    {
      "constant": true,
      "inputs": [],
      "name": "aoStakedContentAddress",
      "outputs": [
        {
          "name": "",
          "type": "address"
        }
      ],
      "payable": false,
      "stateMutability": "view",
      "type": "function"
    },
    {
      "constant": true,
      "inputs": [],
      "name": "nameTAOPositionAddress",
      "outputs": [
        {
          "name": "",
          "type": "address"
        }
      ],
      "payable": false,
      "stateMutability": "view",
      "type": "function"
    },
    {
      "constant": true,
      "inputs": [],
      "name": "aoContentAddress",
      "outputs": [
        {
          "name": "",
          "type": "address"
        }
      ],
      "payable": false,
      "stateMutability": "view",
      "type": "function"
    },
    {
      "constant": true,
      "inputs": [],
      "name": "aoEarningAddress",
      "outputs": [
        {
          "name": "",
          "type": "address"
        }
      ],
      "payable": false,
      "stateMutability": "view",
      "type": "function"
    },
    {
      "constant": true,
      "inputs": [
        {
          "name": "",
          "type": "address"
        }
      ],
      "name": "whitelist",
      "outputs": [
        {
          "name": "",
          "type": "bool"
        }
      ],
      "payable": false,
      "stateMutability": "view",
      "type": "function"
    },
    {
      "constant": true,
      "inputs": [],
      "name": "theAO",
      "outputs": [
        {
          "name": "",
          "type": "address"
        }
      ],
      "payable": false,
      "stateMutability": "view",
      "type": "function"
    },
    {
      "constant": true,
      "inputs": [],
      "name": "nameFactoryAddress",
      "outputs": [
        {
          "name": "",
          "type": "address"
        }
      ],
      "payable": false,
      "stateMutability": "view",
      "type": "function"
    },
    {
      "constant": true,
      "inputs": [],
      "name": "totalContentHosts",
      "outputs": [
        {
          "name": "",
          "type": "uint256"
        }
      ],
      "payable": false,
      "stateMutability": "view",
      "type": "function"
    },
    {
      "constant": true,
      "inputs": [],
      "name": "aoPurchaseReceiptAddress",
      "outputs": [
        {
          "name": "",
          "type": "address"
        }
      ],
      "payable": false,
      "stateMutability": "view",
      "type": "function"
    },
    {
      "inputs": [
        {
          "name": "_aoContentAddress",
          "type": "address"
        },
        {
          "name": "_aoStakedContentAddress",
          "type": "address"
        },
        {
          "name": "_aoPurchaseReceiptAddress",
          "type": "address"
        },
        {
          "name": "_aoEarningAddress",
          "type": "address"
        },
        {
          "name": "_nameFactoryAddress",
          "type": "address"
        },
        {
          "name": "_nameTAOPositionAddress",
          "type": "address"
        }
      ],
      "payable": false,
      "stateMutability": "nonpayable",
      "type": "constructor"
    },
    {
      "anonymous": false,
      "inputs": [
        {
          "indexed": true,
          "name": "host",
          "type": "address"
        },
        {
          "indexed": true,
          "name": "contentHostId",
          "type": "bytes32"
        },
        {
          "indexed": false,
          "name": "stakedContentId",
          "type": "bytes32"
        },
        {
          "indexed": false,
          "name": "contentId",
          "type": "bytes32"
        },
        {
          "indexed": false,
          "name": "contentDatKey",
          "type": "string"
        },
        {
          "indexed": false,
          "name": "metadataDatKey",
          "type": "string"
        }
      ],
      "name": "HostContent",
      "type": "event"
    },
    {
      "constant": false,
      "inputs": [
        {
          "name": "_theAO",
          "type": "address"
        }
      ],
      "name": "transferOwnership",
      "outputs": [],
      "payable": false,
      "stateMutability": "nonpayable",
      "type": "function"
    },
    {
      "constant": false,
      "inputs": [
        {
          "name": "_account",
          "type": "address"
        },
        {
          "name": "_whitelist",
          "type": "bool"
        }
      ],
      "name": "setWhitelist",
      "outputs": [],
      "payable": false,
      "stateMutability": "nonpayable",
      "type": "function"
    },
    {
      "constant": false,
      "inputs": [
        {
          "name": "_aoContentAddress",
          "type": "address"
        }
      ],
      "name": "setAOContentAddress",
      "outputs": [],
      "payable": false,
      "stateMutability": "nonpayable",
      "type": "function"
    },
    {
      "constant": false,
      "inputs": [
        {
          "name": "_aoStakedContentAddress",
          "type": "address"
        }
      ],
      "name": "setAOStakedContentAddress",
      "outputs": [],
      "payable": false,
      "stateMutability": "nonpayable",
      "type": "function"
    },
    {
      "constant": false,
      "inputs": [
        {
          "name": "_aoPurchaseReceiptAddress",
          "type": "address"
        }
      ],
      "name": "setAOPurchaseReceiptAddress",
      "outputs": [],
      "payable": false,
      "stateMutability": "nonpayable",
      "type": "function"
    },
    {
      "constant": false,
      "inputs": [
        {
          "name": "_aoEarningAddress",
          "type": "address"
        }
      ],
      "name": "setAOEarningAddress",
      "outputs": [],
      "payable": false,
      "stateMutability": "nonpayable",
      "type": "function"
    },
    {
      "constant": false,
      "inputs": [
        {
          "name": "_nameFactoryAddress",
          "type": "address"
        }
      ],
      "name": "setNameFactoryAddress",
      "outputs": [],
      "payable": false,
      "stateMutability": "nonpayable",
      "type": "function"
    },
    {
      "constant": false,
      "inputs": [
        {
          "name": "_nameTAOPositionAddress",
          "type": "address"
        }
      ],
      "name": "setNameTAOPositionAddress",
      "outputs": [],
      "payable": false,
      "stateMutability": "nonpayable",
      "type": "function"
    },
    {
      "constant": false,
      "inputs": [
        {
          "name": "_host",
          "type": "address"
        },
        {
          "name": "_stakedContentId",
          "type": "bytes32"
        },
        {
          "name": "_encChallenge",
          "type": "string"
        },
        {
          "name": "_contentDatKey",
          "type": "string"
        },
        {
          "name": "_metadataDatKey",
          "type": "string"
        }
      ],
      "name": "create",
      "outputs": [
        {
          "name": "",
          "type": "bool"
        }
      ],
      "payable": false,
      "stateMutability": "nonpayable",
      "type": "function"
    },
    {
      "constant": true,
      "inputs": [
        {
          "name": "_contentHostId",
          "type": "bytes32"
        }
      ],
      "name": "getById",
      "outputs": [
        {
          "name": "",
          "type": "bytes32"
        },
        {
          "name": "",
          "type": "bytes32"
        },
        {
          "name": "",
          "type": "address"
        },
        {
          "name": "",
          "type": "string"
        },
        {
          "name": "",
          "type": "string"
        }
      ],
      "payable": false,
      "stateMutability": "view",
      "type": "function"
    },
    {
      "constant": true,
      "inputs": [
        {
          "name": "_contentHostId",
          "type": "bytes32"
        }
      ],
      "name": "contentHostPrice",
      "outputs": [
        {
          "name": "",
          "type": "uint256"
        }
      ],
      "payable": false,
      "stateMutability": "view",
      "type": "function"
    },
    {
      "constant": true,
      "inputs": [
        {
          "name": "_contentHostId",
          "type": "bytes32"
        }
      ],
      "name": "contentHostPaidByAO",
      "outputs": [
        {
          "name": "",
          "type": "uint256"
        }
      ],
      "payable": false,
      "stateMutability": "view",
      "type": "function"
    },
    {
      "constant": true,
      "inputs": [
        {
          "name": "_contentHostId",
          "type": "bytes32"
        }
      ],
      "name": "isExist",
      "outputs": [
        {
          "name": "",
          "type": "bool"
        }
      ],
      "payable": false,
      "stateMutability": "view",
      "type": "function"
    },
    {
      "constant": false,
      "inputs": [
        {
          "name": "_purchaseReceiptId",
          "type": "bytes32"
        },
        {
          "name": "_baseChallengeV",
          "type": "uint8"
        },
        {
          "name": "_baseChallengeR",
          "type": "bytes32"
        },
        {
          "name": "_baseChallengeS",
          "type": "bytes32"
        },
        {
          "name": "_encChallenge",
          "type": "string"
        },
        {
          "name": "_contentDatKey",
          "type": "string"
        },
        {
          "name": "_metadataDatKey",
          "type": "string"
        }
      ],
      "name": "becomeHost",
      "outputs": [],
      "payable": false,
      "stateMutability": "nonpayable",
      "type": "function"
    }
  ],
  "bytecode": "0x60806040523480156200001157600080fd5b5060405160c0806200281e833981018060405260c08110156200003357600080fd5b50805160208083015160408401516060850151608086015160a090960151600080546001600160a01b03191633179055949592949193909291906200007e908790620000df811b901c565b6200008f85620001e060201b60201c565b620000a084620002e160201b60201c565b620000b183620003e260201b60201c565b620000c282620004e360201b60201c565b620000d381620005e460201b60201c565b505050505050620006db565b600054600154604080517ff66afcac0000000000000000000000000000000000000000000000000000000081523360048201526001600160a01b0393841660248201529290911660448301525173__AOLibrary_____________________________9163f66afcac916064808301926020929190829003018186803b1580156200016857600080fd5b505af41580156200017d573d6000803e3d6000fd5b505050506040513d60208110156200019457600080fd5b5051620001a057600080fd5b6001600160a01b038116620001b457600080fd5b600480546001600160a01b039092166001600160a01b0319928316811790915560098054909216179055565b600054600154604080517ff66afcac0000000000000000000000000000000000000000000000000000000081523360048201526001600160a01b0393841660248201529290911660448301525173__AOLibrary_____________________________9163f66afcac916064808301926020929190829003018186803b1580156200026957600080fd5b505af41580156200027e573d6000803e3d6000fd5b505050506040513d60208110156200029557600080fd5b5051620002a157600080fd5b6001600160a01b038116620002b557600080fd5b600580546001600160a01b039092166001600160a01b03199283168117909155600a8054909216179055565b600054600154604080517ff66afcac0000000000000000000000000000000000000000000000000000000081523360048201526001600160a01b0393841660248201529290911660448301525173__AOLibrary_____________________________9163f66afcac916064808301926020929190829003018186803b1580156200036a57600080fd5b505af41580156200037f573d6000803e3d6000fd5b505050506040513d60208110156200039657600080fd5b5051620003a257600080fd5b6001600160a01b038116620003b657600080fd5b600680546001600160a01b039092166001600160a01b03199283168117909155600b8054909216179055565b600054600154604080517ff66afcac0000000000000000000000000000000000000000000000000000000081523360048201526001600160a01b0393841660248201529290911660448301525173__AOLibrary_____________________________9163f66afcac916064808301926020929190829003018186803b1580156200046b57600080fd5b505af415801562000480573d6000803e3d6000fd5b505050506040513d60208110156200049757600080fd5b5051620004a357600080fd5b6001600160a01b038116620004b757600080fd5b600780546001600160a01b039092166001600160a01b03199283168117909155600c8054909216179055565b600054600154604080517ff66afcac0000000000000000000000000000000000000000000000000000000081523360048201526001600160a01b0393841660248201529290911660448301525173__AOLibrary_____________________________9163f66afcac916064808301926020929190829003018186803b1580156200056c57600080fd5b505af415801562000581573d6000803e3d6000fd5b505050506040513d60208110156200059857600080fd5b5051620005a457600080fd5b6001600160a01b038116620005b857600080fd5b600880546001600160a01b039092166001600160a01b03199283168117909155600d8054909216179055565b600054600154604080517ff66afcac0000000000000000000000000000000000000000000000000000000081523360048201526001600160a01b0393841660248201529290911660448301525173__AOLibrary_____________________________9163f66afcac916064808301926020929190829003018186803b1580156200066d57600080fd5b505af415801562000682573d6000803e3d6000fd5b505050506040513d60208110156200069957600080fd5b5051620006a557600080fd5b6001600160a01b038116620006b957600080fd5b600180546001600160a01b0319166001600160a01b0392909216919091179055565b61213380620006eb6000396000f3fe608060405234801561001057600080fd5b506004361061014d5760003560e01c806389a83246116100c3578063bc4062061161007c578063bc4062061461070f578063bc6abaa214610717578063c7061f971461073d578063c96a74e514610763578063e669ecab1461076b578063f2fde38b146107735761014d565b806389a83246146106705780638c924361146106965780638f629222146106bc5780639b19251a146106c4578063a9b6b38e146106ea578063a9e3fd27146106f25761014d565b806353d6fd591161011557806353d6fd59146103ff578063555ea48c1461042d5780635cfaf2ef146105f6578063762fee181461061c57806385cb86c81461063957806386231b9e146106415761014d565b8063078753ad146101525780630da8097d146101765780632dff0d0d146102ad5780633e36144f146103cf5780634ef033f0146103f7575b600080fd5b61015a610799565b604080516001600160a01b039092168252519081900360200190f35b610299600480360360a081101561018c57600080fd5b6001600160a01b0382351691602081013591810190606081016040820135600160201b8111156101bb57600080fd5b8201836020820111156101cd57600080fd5b803590602001918460018302840111600160201b831117156101ee57600080fd5b919390929091602081019035600160201b81111561020b57600080fd5b82018360208201111561021d57600080fd5b803590602001918460018302840111600160201b8311171561023e57600080fd5b919390929091602081019035600160201b81111561025b57600080fd5b82018360208201111561026d57600080fd5b803590602001918460018302840111600160201b8311171561028e57600080fd5b5090925090506107a8565b604080519115158252519081900360200190f35b6102ca600480360360208110156102c357600080fd5b503561088a565b60405180868152602001858152602001846001600160a01b03166001600160a01b031681526020018060200180602001838103835285818151815260200191508051906020019080838360005b8381101561032f578181015183820152602001610317565b50505050905090810190601f16801561035c5780820380516001836020036101000a031916815260200191505b50838103825284518152845160209182019186019080838360005b8381101561038f578181015183820152602001610377565b50505050905090810190601f1680156103bc5780820380516001836020036101000a031916815260200191505b5097505050505050505060405180910390f35b6103f5600480360360208110156103e557600080fd5b50356001600160a01b0316610aed565b005b61015a610bd3565b6103f56004803603604081101561041557600080fd5b506001600160a01b0381351690602001351515610be2565b6103f5600480360360e081101561044357600080fd5b81359160ff6020820135169160408201359160608101359181019060a081016080820135600160201b81111561047857600080fd5b82018360208201111561048a57600080fd5b803590602001918460018302840111600160201b831117156104ab57600080fd5b91908080601f0160208091040260200160405190810160405280939291908181526020018383808284376000920191909152509295949360208101935035915050600160201b8111156104fd57600080fd5b82018360208201111561050f57600080fd5b803590602001918460018302840111600160201b8311171561053057600080fd5b91908080601f0160208091040260200160405190810160405280939291908181526020018383808284376000920191909152509295949360208101935035915050600160201b81111561058257600080fd5b82018360208201111561059457600080fd5b803590602001918460018302840111600160201b831117156105b557600080fd5b91908080601f016020809104026020016040519081016040528093929190818152602001838380828437600092019190915250929550610cc7945050505050565b6103f56004803603602081101561060c57600080fd5b50356001600160a01b0316610f2b565b6102996004803603602081101561063257600080fd5b5035611007565b61015a61101e565b61065e6004803603602081101561065757600080fd5b503561102d565b60408051918252519081900360200190f35b6103f56004803603602081101561068657600080fd5b50356001600160a01b0316611202565b6103f5600480360360208110156106ac57600080fd5b50356001600160a01b03166112e8565b61015a6113ce565b610299600480360360208110156106da57600080fd5b50356001600160a01b03166113dd565b61015a6113f2565b61065e6004803603602081101561070857600080fd5b5035611401565b61015a611561565b6103f56004803603602081101561072d57600080fd5b50356001600160a01b0316611570565b6103f56004803603602081101561075357600080fd5b50356001600160a01b0316611656565b61065e61173c565b61015a611742565b6103f56004803603602081101561078957600080fd5b50356001600160a01b0316611751565b6005546001600160a01b031681565b3360009081526002602052604081205460ff1615156001146107c957600080fd5b610872898989898080601f01602080910402602001604051908101604052809392919081815260200183838082843760009201919091525050604080516020601f8d018190048102820181019092528b815292508b91508a908190840183828082843760009201919091525050604080516020601f8c018190048102820181019092528a815292508a915089908190840183828082843760009201919091525061182d92505050565b61087b57600080fd5b50600198975050505050505050565b6000818152600f60205260408120548190819060609081906108ab57600080fd5b6108b361202e565b6000878152600f60209081526040808320548352600e825291829020825160e08101845281548152600180830154828501526002808401548387015260038401546001600160a01b0316606084015260048401805487516101009482161594909402600019011691909104601f81018690048602830186019096528582529194929360808601939192919083018282801561098f5780601f106109645761010080835404028352916020019161098f565b820191906000526020600020905b81548152906001019060200180831161097257829003601f168201915b505050918352505060058201805460408051602060026001851615610100026000190190941693909304601f8101849004840282018401909252818152938201939291830182828015610a235780601f106109f857610100808354040283529160200191610a23565b820191906000526020600020905b815481529060010190602001808311610a0657829003601f168201915b505050918352505060068201805460408051602060026001851615610100026000190190941693909304601f8101849004840282018401909252818152938201939291830182828015610ab75780601f10610a8c57610100808354040283529160200191610ab7565b820191906000526020600020905b815481529060010190602001808311610a9a57829003601f168201915b5050509190925250505060208101516040820151606083015160a084015160c090940151929b919a509850919650945092505050565b60005460015460408051600160e21b633d9abf2b0281523360048201526001600160a01b0393841660248201529290911660448301525173__AOLibrary_____________________________9163f66afcac916064808301926020929190829003018186803b158015610b5f57600080fd5b505af4158015610b73573d6000803e3d6000fd5b505050506040513d6020811015610b8957600080fd5b5051610b9457600080fd5b6001600160a01b038116610ba757600080fd5b600580546001600160a01b039092166001600160a01b03199283168117909155600a8054909216179055565b6001546001600160a01b031681565b60005460015460408051600160e21b633d9abf2b0281523360048201526001600160a01b0393841660248201529290911660448301525173__AOLibrary_____________________________9163f66afcac916064808301926020929190829003018186803b158015610c5457600080fd5b505af4158015610c68573d6000803e3d6000fd5b505050506040513d6020811015610c7e57600080fd5b5051610c8957600080fd5b6001600160a01b038216610c9c57600080fd5b6001600160a01b03919091166000908152600260205260409020805460ff1916911515919091179055565b600d5460408051600160e01b63029b7d5302815233600482015290516000926001600160a01b03169163029b7d53916024808301926020929190829003018186803b158015610d1557600080fd5b505afa158015610d29573d6000803e3d6000fd5b505050506040513d6020811015610d3f57600080fd5b505190506001600160a01b038116610d5657600080fd5b610d638882898989611c6b565b610d6c57600080fd5b600b5460408051600160e01b632dff0d0d028152600481018b905290516000926001600160a01b031691632dff0d0d9160248083019286929190829003018186803b158015610dba57600080fd5b505afa158015610dce573d6000803e3d6000fd5b505050506040513d6000823e601f3d908101601f19168201604052610140811015610df857600080fd5b8151602083015160408401516060850151608086015160a087015160c088015160e08901805197999698959794969395929491939283019291600160201b811115610e4257600080fd5b82016020810184811115610e5557600080fd5b8151600160201b811182820187101715610e6e57600080fd5b50999b50610e919a508c99508b98508f97508e96508d955061182d945050505050565b610e9a57600080fd5b600c5460408051600160e01b634c9e0913028152600481018c905290516001600160a01b0390921691634c9e0913916024808201926020929091908290030181600087803b158015610eeb57600080fd5b505af1158015610eff573d6000803e3d6000fd5b505050506040513d6020811015610f1557600080fd5b5051610f2057600080fd5b505050505050505050565b60005460015460408051600160e21b633d9abf2b0281523360048201526001600160a01b0393841660248201529290911660448301525173__AOLibrary_____________________________9163f66afcac916064808301926020929190829003018186803b158015610f9d57600080fd5b505af4158015610fb1573d6000803e3d6000fd5b505050506040513d6020811015610fc757600080fd5b5051610fd257600080fd5b6001600160a01b038116610fe557600080fd5b600180546001600160a01b0319166001600160a01b0392909216919091179055565b6000818152600f602052604090205415155b919050565b6004546001600160a01b031681565b6000818152600f602052604081205461104557600080fd5b6000828152600f60209081526040808320548352600e82529182902060010154600a548351600160e21b63170da40702815260048101839052935191936001600160a01b0390911692635c36901c92602480840193829003018186803b1580156110ae57600080fd5b505afa1580156110c2573d6000803e3d6000fd5b505050506040513d60208110156110d857600080fd5b50516110e357600080fd5b6000838152600f60209081526040808320548352600e825291829020600201546009548351600160e11b6332e7856702815260048101839052935191936001600160a01b03909116926365cf0ace92602480840193829003018186803b15801561114c57600080fd5b505afa158015611160573d6000803e3d6000fd5b505050506040513d602081101561117657600080fd5b50511561118857600092505050611019565b306001600160a01b031663a9e3fd27856040518263ffffffff1660e01b81526004018082815260200191505060206040518083038186803b1580156111cc57600080fd5b505afa1580156111e0573d6000803e3d6000fd5b505050506040513d60208110156111f657600080fd5b50519250611019915050565b60005460015460408051600160e21b633d9abf2b0281523360048201526001600160a01b0393841660248201529290911660448301525173__AOLibrary_____________________________9163f66afcac916064808301926020929190829003018186803b15801561127457600080fd5b505af4158015611288573d6000803e3d6000fd5b505050506040513d602081101561129e57600080fd5b50516112a957600080fd5b6001600160a01b0381166112bc57600080fd5b600480546001600160a01b039092166001600160a01b0319928316811790915560098054909216179055565b60005460015460408051600160e21b633d9abf2b0281523360048201526001600160a01b0393841660248201529290911660448301525173__AOLibrary_____________________________9163f66afcac916064808301926020929190829003018186803b15801561135a57600080fd5b505af415801561136e573d6000803e3d6000fd5b505050506040513d602081101561138457600080fd5b505161138f57600080fd5b6001600160a01b0381166113a257600080fd5b600880546001600160a01b039092166001600160a01b03199283168117909155600d8054909216179055565b6007546001600160a01b031681565b60026020526000908152604090205460ff1681565b6000546001600160a01b031681565b6000818152600f602052604081205461141957600080fd5b6000828152600f60209081526040808320548352600e82529182902060010154600a548351600160e21b63170da40702815260048101839052935191936001600160a01b0390911692635c36901c92602480840193829003018186803b15801561148257600080fd5b505afa158015611496573d6000803e3d6000fd5b505050506040513d60208110156114ac57600080fd5b50516114b757600080fd5b600a5460408051600160e01b632dff0d0d02815260048101849052905160009283926001600160a01b0390911691632dff0d0d9160248082019261010092909190829003018186803b15801561150c57600080fd5b505afa158015611520573d6000803e3d6000fd5b505050506040513d61010081101561153757600080fd5b5060408101516060909101519092509050611558828263ffffffff611d0f16565b95945050505050565b6008546001600160a01b031681565b60005460015460408051600160e21b633d9abf2b0281523360048201526001600160a01b0393841660248201529290911660448301525173__AOLibrary_____________________________9163f66afcac916064808301926020929190829003018186803b1580156115e257600080fd5b505af41580156115f6573d6000803e3d6000fd5b505050506040513d602081101561160c57600080fd5b505161161757600080fd5b6001600160a01b03811661162a57600080fd5b600680546001600160a01b039092166001600160a01b03199283168117909155600b8054909216179055565b60005460015460408051600160e21b633d9abf2b0281523360048201526001600160a01b0393841660248201529290911660448301525173__AOLibrary_____________________________9163f66afcac916064808301926020929190829003018186803b1580156116c857600080fd5b505af41580156116dc573d6000803e3d6000fd5b505050506040513d60208110156116f257600080fd5b50516116fd57600080fd5b6001600160a01b03811661171057600080fd5b600780546001600160a01b039092166001600160a01b03199283168117909155600c8054909216179055565b60035481565b6006546001600160a01b031681565b60005460015460408051600160e21b633d9abf2b0281523360048201526001600160a01b0393841660248201529290911660448301525173__AOLibrary_____________________________9163f66afcac916064808301926020929190829003018186803b1580156117c357600080fd5b505af41580156117d7573d6000803e3d6000fd5b505050506040513d60208110156117ed57600080fd5b50516117f857600080fd5b6001600160a01b03811661180b57600080fd5b600080546001600160a01b0319166001600160a01b0392909216919091179055565b60006001600160a01b03861661184257600080fd5b60408051600160e21b630b5c1a8d0281526001600160a01b0388166004820152905173__AOLibrary_____________________________91632d706a34916024808301926020929190829003018186803b15801561189f57600080fd5b505af41580156118b3573d6000803e3d6000fd5b505050506040513d60208110156118c957600080fd5b50516118d457600080fd5b60008451116118e257600080fd5b60008351116118f057600080fd5b60008251116118fe57600080fd5b600a5460408051600160e21b63170da4070281526004810188905290516001600160a01b0390921691635c36901c91602480820192602092909190829003018186803b15801561194d57600080fd5b505afa158015611961573d6000803e3d6000fd5b505050506040513d602081101561197757600080fd5b505161198257600080fd5b600380546001018082556040805130606090811b6020808401919091526001600160a01b03808d1690921b603484015260488084018c905284518085039091018152606890930184528251928101929092206000948552600e909252919092209283015491929116156119f457600080fd5b600a5460408051600160e01b632dff0d0d028152600481018a905290516000926001600160a01b031691632dff0d0d91602480830192610100929190829003018186803b158015611a4457600080fd5b505afa158015611a58573d6000803e3d6000fd5b505050506040513d610100811015611a6f57600080fd5b505183835560018301899055600283018190556003830180546001600160a01b0319166001600160a01b038c161790558751909150611ab790600484019060208a019061206c565b508551611acd906005840190602089019061206c565b508451611ae3906006840190602088019061206c565b50600380546000858152600f6020908152604091829020929092558454928501546001808701546002808901548551838152968701819052608095870186815260058b018054600019968116156101000296909601909516929092049587018690526001600160a01b03909416957f3822dc82485ad7da8362b68055846011a5882496620bcc8e725a6f810591eb10959294939260068b019290606083019060a084019086908015611bd65780601f10611bab57610100808354040283529160200191611bd6565b820191906000526020600020905b815481529060010190602001808311611bb957829003601f168201915b5050838103825284546002600019610100600184161502019091160480825260209091019085908015611c4a5780601f10611c1f57610100808354040283529160200191611c4a565b820191906000526020600020905b815481529060010190602001808311611c2d57829003601f168201915b5050965050505050505060405180910390a350600198975050505050505050565b600b5460408051600160e11b6303388421028152600481018890526001600160a01b03878116602483015291516000939290921691630671084291604480820192602092909190829003018186803b158015611cc657600080fd5b505afa158015611cda573d6000803e3d6000fd5b505050506040513d6020811015611cf057600080fd5b50518015611d055750611d0586858585611d22565b9695505050505050565b81810182811015611d1c57fe5b92915050565b600b5460408051600160e01b632dff0d0d028152600481018790529051600092839283926001600160a01b0390921691632dff0d0d916024808201928692909190829003018186803b158015611d7757600080fd5b505afa158015611d8b573d6000803e3d6000fd5b505050506040513d6000823e601f3d908101601f19168201604052610140811015611db557600080fd5b8151602083015160408401516060850151608086015160a087015160c088015160e08901805197999698959794969395929491939283019291600160201b811115611dff57600080fd5b82016020810184811115611e1257600080fd5b8151600160201b811182820187101715611e2b57600080fd5b5050506020015160095460408051600160e11b631a436c7b028152600481018b90529051999d50919b5060009a503099506001600160a01b031697633486d8f69750602480830197508b96509094509084900301915082905086803b158015611e9357600080fd5b505afa158015611ea7573d6000803e3d6000fd5b505050506040513d6000823e601f3d908101601f191682016040526020811015611ed057600080fd5b810190808051600160201b811115611ee757600080fd5b82016020810184811115611efa57600080fd5b8151600160201b811182820187101715611f1357600080fd5b505092919050505060405160200180836001600160a01b03166001600160a01b031660601b815260140182805190602001908083835b60208310611f685780518252601f199092019160209182019101611f49565b6001836020036101000a03801982511681845116808217855250505050505090500192505050604051602081830303815290604052805190602001209050816001600160a01b031660018289898960405160008152602001604052604051808581526020018460ff1660ff1681526020018381526020018281526020019450505050506020604051602081039080840390855afa15801561200d573d6000803e3d6000fd5b505050602060405103516001600160a01b0316149350505050949350505050565b6040805160e0810182526000808252602082018190529181018290526060808201929092526080810182905260a0810182905260c081019190915290565b828054600181600116156101000203166002900490600052602060002090601f016020900481019282601f106120ad57805160ff19168380011785556120da565b828001600101855582156120da579182015b828111156120da5782518255916020019190600101906120bf565b506120e69291506120ea565b5090565b61210491905b808211156120e657600081556001016120f0565b9056fea165627a7a7230582085de98682b08aae97e753a0001293cf321da7ea248240d24594bf5aa0562fbd10029",
  "source": "pragma solidity >=0.5.4 <0.6.0;\n\nimport './SafeMath.sol';\nimport './AOLibrary.sol';\nimport './TheAO.sol';\nimport './IAOContentHost.sol';\nimport './IAOContent.sol';\nimport './IAOStakedContent.sol';\nimport './IAOPurchaseReceipt.sol';\nimport './IAOEarning.sol';\nimport './INameFactory.sol';\n\n/**\n * @title AOContentHost\n */\ncontract AOContentHost is TheAO, IAOContentHost {\n\tusing SafeMath for uint256;\n\n\tuint256 public totalContentHosts;\n\taddress public aoContentAddress;\n\taddress public aoStakedContentAddress;\n\taddress public aoPurchaseReceiptAddress;\n\taddress public aoEarningAddress;\n\taddress public nameFactoryAddress;\n\n\tIAOContent internal _aoContent;\n\tIAOStakedContent internal _aoStakedContent;\n\tIAOPurchaseReceipt internal _aoPurchaseReceipt;\n\tIAOEarning internal _aoEarning;\n\tINameFactory internal _nameFactory;\n\n\tstruct ContentHost {\n\t\tbytes32 contentHostId;\n\t\tbytes32 stakedContentId;\n\t\tbytes32 contentId;\n\t\taddress host;\n\t\t/**\n\t\t * encChallenge is the content's PUBLIC KEY unique to the host\n\t\t */\n\t\tstring encChallenge;\n\t\tstring contentDatKey;\n\t\tstring metadataDatKey;\n\t}\n\n\t// Mapping from ContentHost index to the ContentHost object\n\tmapping (uint256 => ContentHost) internal contentHosts;\n\n\t// Mapping from content host ID to index of the contentHosts list\n\tmapping (bytes32 => uint256) internal contentHostIndex;\n\n\t// Event to be broadcasted to public when a node hosts a content\n\tevent HostContent(address indexed host, bytes32 indexed contentHostId, bytes32 stakedContentId, bytes32 contentId, string contentDatKey, string metadataDatKey);\n\n\t/**\n\t * @dev Constructor function\n\t * @param _aoContentAddress The address of AOContent\n\t * @param _aoStakedContentAddress The address of AOStakedContent\n\t * @param _aoPurchaseReceiptAddress The address of AOPurchaseReceipt\n\t * @param _aoEarningAddress The address of AOEarning\n\t * @param _nameFactoryAddress The address of NameFactory\n\t * @param _nameTAOPositionAddress The address of NameTAOPosition\n\t */\n\tconstructor(address _aoContentAddress, address _aoStakedContentAddress, address _aoPurchaseReceiptAddress, address _aoEarningAddress, address _nameFactoryAddress, address _nameTAOPositionAddress) public {\n\t\tsetAOContentAddress(_aoContentAddress);\n\t\tsetAOStakedContentAddress(_aoStakedContentAddress);\n\t\tsetAOPurchaseReceiptAddress(_aoPurchaseReceiptAddress);\n\t\tsetAOEarningAddress(_aoEarningAddress);\n\t\tsetNameFactoryAddress(_nameFactoryAddress);\n\t\tsetNameTAOPositionAddress(_nameTAOPositionAddress);\n\t}\n\n\t/**\n\t * @dev Checks if the calling contract address is The AO\n\t *\t\tOR\n\t *\t\tIf The AO is set to a Name/TAO, then check if calling address is the Advocate\n\t */\n\tmodifier onlyTheAO {\n\t\trequire (AOLibrary.isTheAO(msg.sender, theAO, nameTAOPositionAddress));\n\t\t_;\n\t}\n\n\t/***** The AO ONLY METHODS *****/\n\t/**\n\t * @dev Transfer ownership of The AO to new address\n\t * @param _theAO The new address to be transferred\n\t */\n\tfunction transferOwnership(address _theAO) public onlyTheAO {\n\t\trequire (_theAO != address(0));\n\t\ttheAO = _theAO;\n\t}\n\n\t/**\n\t * @dev Whitelist `_account` address to transact on behalf of others\n\t * @param _account The address to whitelist\n\t * @param _whitelist Either to whitelist or not\n\t */\n\tfunction setWhitelist(address _account, bool _whitelist) public onlyTheAO {\n\t\trequire (_account != address(0));\n\t\twhitelist[_account] = _whitelist;\n\t}\n\n\t/**\n\t * @dev The AO sets AOContent address\n\t * @param _aoContentAddress The address of AOContent\n\t */\n\tfunction setAOContentAddress(address _aoContentAddress) public onlyTheAO {\n\t\trequire (_aoContentAddress != address(0));\n\t\taoContentAddress = _aoContentAddress;\n\t\t_aoContent = IAOContent(_aoContentAddress);\n\t}\n\n\t/**\n\t * @dev The AO sets AOStakedContent address\n\t * @param _aoStakedContentAddress The address of AOStakedContent\n\t */\n\tfunction setAOStakedContentAddress(address _aoStakedContentAddress) public onlyTheAO {\n\t\trequire (_aoStakedContentAddress != address(0));\n\t\taoStakedContentAddress = _aoStakedContentAddress;\n\t\t_aoStakedContent = IAOStakedContent(_aoStakedContentAddress);\n\t}\n\n\t/**\n\t * @dev The AO sets AOPurchaseReceipt address\n\t * @param _aoPurchaseReceiptAddress The address of AOPurchaseReceipt\n\t */\n\tfunction setAOPurchaseReceiptAddress(address _aoPurchaseReceiptAddress) public onlyTheAO {\n\t\trequire (_aoPurchaseReceiptAddress != address(0));\n\t\taoPurchaseReceiptAddress = _aoPurchaseReceiptAddress;\n\t\t_aoPurchaseReceipt = IAOPurchaseReceipt(_aoPurchaseReceiptAddress);\n\t}\n\n\t/**\n\t * @dev The AO sets AOEarning address\n\t * @param _aoEarningAddress The address of AOEarning\n\t */\n\tfunction setAOEarningAddress(address _aoEarningAddress) public onlyTheAO {\n\t\trequire (_aoEarningAddress != address(0));\n\t\taoEarningAddress = _aoEarningAddress;\n\t\t_aoEarning = IAOEarning(_aoEarningAddress);\n\t}\n\n\t/**\n\t * @dev The AO sets NameFactory address\n\t * @param _nameFactoryAddress The address of NameFactory\n\t */\n\tfunction setNameFactoryAddress(address _nameFactoryAddress) public onlyTheAO {\n\t\trequire (_nameFactoryAddress != address(0));\n\t\tnameFactoryAddress = _nameFactoryAddress;\n\t\t_nameFactory = INameFactory(_nameFactoryAddress);\n\t}\n\n\t/**\n\t * @dev The AO sets NameTAOPosition address\n\t * @param _nameTAOPositionAddress The address of NameTAOPosition\n\t */\n\tfunction setNameTAOPositionAddress(address _nameTAOPositionAddress) public onlyTheAO {\n\t\trequire (_nameTAOPositionAddress != address(0));\n\t\tnameTAOPositionAddress = _nameTAOPositionAddress;\n\t}\n\n\t/***** PUBLIC METHODS *****/\n\t/**\n\t * @dev Add the distribution node info that hosts the content\n\t * @param _host the address of the host\n\t * @param _stakedContentId The ID of the staked content\n\t * @param _encChallenge The encrypted challenge string (PUBLIC KEY) of the content unique to the host\n\t * @param _contentDatKey The dat key of the content\n\t * @param _metadataDatKey The dat key of the content's metadata\n\t * @return true on success\n\t */\n\tfunction create(address _host, bytes32 _stakedContentId, string calldata _encChallenge, string calldata _contentDatKey, string calldata _metadataDatKey) external inWhitelist returns (bool) {\n\t\trequire (_create(_host, _stakedContentId, _encChallenge, _contentDatKey, _metadataDatKey));\n\t\treturn true;\n\t}\n\n\t/**\n\t * @dev Return content host info at a given ID\n\t * @param _contentHostId The ID of the hosted content\n\t * @return The ID of the staked content\n\t * @return The ID of the content\n\t * @return address of the host\n\t * @return the dat key of the content\n\t * @return the dat key of the content's metadata\n\t */\n\tfunction getById(bytes32 _contentHostId) external view returns (bytes32, bytes32, address, string memory, string memory) {\n\t\t// Make sure the content host exist\n\t\trequire (contentHostIndex[_contentHostId] > 0);\n\t\tContentHost memory _contentHost = contentHosts[contentHostIndex[_contentHostId]];\n\t\treturn (\n\t\t\t_contentHost.stakedContentId,\n\t\t\t_contentHost.contentId,\n\t\t\t_contentHost.host,\n\t\t\t_contentHost.contentDatKey,\n\t\t\t_contentHost.metadataDatKey\n\t\t);\n\t}\n\n\t/**\n\t * @dev Determine the content price hosted by a host\n\t * @param _contentHostId The content host ID to be checked\n\t * @return the price of the content\n\t */\n\tfunction contentHostPrice(bytes32 _contentHostId) external view returns (uint256) {\n\t\t// Make sure content host exist\n\t\trequire (contentHostIndex[_contentHostId] > 0);\n\n\t\tbytes32 _stakedContentId = contentHosts[contentHostIndex[_contentHostId]].stakedContentId;\n\t\trequire (_aoStakedContent.isActive(_stakedContentId));\n\n\t\t(,,uint256 _networkAmount, uint256 _primordialAmount,,,,) = _aoStakedContent.getById(_stakedContentId);\n\t\treturn _networkAmount.add(_primordialAmount);\n\t}\n\n\t/**\n\t * @dev Determine the how much the content is paid by AO given a contentHostId\n\t * @param _contentHostId The content host ID to be checked\n\t * @return the amount paid by AO\n\t */\n\tfunction contentHostPaidByAO(bytes32 _contentHostId) external view returns (uint256) {\n\t\t// Make sure content host exist\n\t\trequire (contentHostIndex[_contentHostId] > 0);\n\n\t\tbytes32 _stakedContentId = contentHosts[contentHostIndex[_contentHostId]].stakedContentId;\n\t\trequire (_aoStakedContent.isActive(_stakedContentId));\n\n\t\tbytes32 _contentId = contentHosts[contentHostIndex[_contentHostId]].contentId;\n\t\tif (_aoContent.isAOContentUsageType(_contentId)) {\n\t\t\treturn 0;\n\t\t} else {\n\t\t\treturn this.contentHostPrice(_contentHostId);\n\t\t}\n\t}\n\n\t/**\n\t * @dev Check whether or not a contentHostId exist\n\t * @param _contentHostId The content host ID to be checked\n\t * @return true if yes, false otherwise\n\t */\n\tfunction isExist(bytes32 _contentHostId) external view returns (bool) {\n\t\treturn (contentHostIndex[_contentHostId] > 0);\n\t}\n\n\t/**\n\t * @dev Request node wants to become a distribution node after buying the content\n\t *\t\tAlso, if this transaction succeeds, contract will release all of the earnings that are\n\t *\t\tcurrently in escrow for content creator/host/The AO\n\t * @param _purchaseReceiptId The ID of the Purchase Receipt\n\t * @param _baseChallengeV The V part of signature when signing the base challenge\n\t * @param _baseChallengeR The R part of signature when signing the base challenge\n\t * @param _baseChallengeS The S part of signature when signing the base challenge\n\t * @param _encChallenge The encrypted challenge string (PUBLIC KEY) of the content unique to the host\n\t * @param _contentDatKey The dat key of the content\n\t * @param _metadataDatKey The dat key of the content's metadata\n\t */\n\tfunction becomeHost(\n\t\tbytes32 _purchaseReceiptId,\n\t\tuint8 _baseChallengeV,\n\t\tbytes32 _baseChallengeR,\n\t\tbytes32 _baseChallengeS,\n\t\tstring memory _encChallenge,\n\t\tstring memory _contentDatKey,\n\t\tstring memory _metadataDatKey\n\t) public {\n\t\taddress _hostNameId = _nameFactory.ethAddressToNameId(msg.sender);\n\t\trequire (_hostNameId != address(0));\n\t\trequire (_canBecomeHost(_purchaseReceiptId, _hostNameId, _baseChallengeV, _baseChallengeR, _baseChallengeS));\n\n\t\t(, bytes32 _stakedContentId,,,,,,,,) = _aoPurchaseReceipt.getById(_purchaseReceiptId);\n\n\t\trequire (_create(_hostNameId, _stakedContentId, _encChallenge, _contentDatKey, _metadataDatKey));\n\n\t\t// Release earning from escrow\n\t\trequire (_aoEarning.releaseEarning(_purchaseReceiptId));\n\t}\n\n\t/***** INTERNAL METHODS *****/\n\t/**\n\t * @dev Actual add the distribution node info that hosts the content\n\t * @param _host the address of the host\n\t * @param _stakedContentId The ID of the staked content\n\t * @param _encChallenge The encrypted challenge string (PUBLIC KEY) of the content unique to the host\n\t * @param _contentDatKey The dat key of the content\n\t * @param _metadataDatKey The dat key of the content's metadata\n\t * @return true on success\n\t */\n\tfunction _create(address _host, bytes32 _stakedContentId, string memory _encChallenge, string memory _contentDatKey, string memory _metadataDatKey) internal returns (bool) {\n\t\trequire (_host != address(0));\n\t\trequire (AOLibrary.isName(_host));\n\t\trequire (bytes(_encChallenge).length > 0);\n\t\trequire (bytes(_contentDatKey).length > 0);\n\t\trequire (bytes(_metadataDatKey).length > 0);\n\t\trequire (_aoStakedContent.isActive(_stakedContentId));\n\n\t\t// Increment totalContentHosts\n\t\ttotalContentHosts++;\n\n\t\t// Generate contentId\n\t\tbytes32 _contentHostId = keccak256(abi.encodePacked(this, _host, _stakedContentId));\n\n\t\tContentHost storage _contentHost = contentHosts[totalContentHosts];\n\n\t\t// Make sure the node doesn't host the same content twice\n\t\trequire (_contentHost.host == address(0));\n\n\t\t(bytes32 _contentId,,,,,,,) = _aoStakedContent.getById(_stakedContentId);\n\n\t\t_contentHost.contentHostId = _contentHostId;\n\t\t_contentHost.stakedContentId = _stakedContentId;\n\t\t_contentHost.contentId = _contentId;\n\t\t_contentHost.host = _host;\n\t\t_contentHost.encChallenge = _encChallenge;\n\t\t_contentHost.contentDatKey = _contentDatKey;\n\t\t_contentHost.metadataDatKey = _metadataDatKey;\n\n\t\tcontentHostIndex[_contentHostId] = totalContentHosts;\n\n\t\temit HostContent(_contentHost.host, _contentHost.contentHostId, _contentHost.stakedContentId, _contentHost.contentId, _contentHost.contentDatKey, _contentHost.metadataDatKey);\n\t\treturn true;\n\t}\n\n\t/**\n\t * @dev Check whether or not the passed params are valid\n\t * @param _purchaseReceiptId The ID of the Purchase Receipt\n\t * @param _sender The address of the sender\n\t * @param _baseChallengeV The V part of signature when signing the base challenge\n\t * @param _baseChallengeR The R part of signature when signing the base challenge\n\t * @param _baseChallengeS The S part of signature when signing the base challenge\n\t * @return true if yes, false otherwise\n\t */\n\tfunction _canBecomeHost(bytes32 _purchaseReceiptId, address _sender, uint8 _baseChallengeV, bytes32 _baseChallengeR, bytes32 _baseChallengeS) internal view returns (bool) {\n\t\t// Make sure the purchase receipt owner is the same as the sender\n\t\treturn (_aoPurchaseReceipt.senderIsBuyer(_purchaseReceiptId, _sender) &&\n\t\t\t_verifyBecomeHostSignature(_purchaseReceiptId, _baseChallengeV, _baseChallengeR, _baseChallengeS)\n\t\t);\n\t}\n\n\t/**\n\t * @dev Verify the become host signature\n\t * @param _purchaseReceiptId The ID of the purchase receipt\n\t * @param _v part of the signature\n\t * @param _r part of the signature\n\t * @param _s part of the signature\n\t * @return true if valid, false otherwise\n\t */\n\tfunction _verifyBecomeHostSignature(bytes32 _purchaseReceiptId, uint8 _v, bytes32 _r, bytes32 _s) internal view returns (bool) {\n\t\t(,, bytes32 _contentId,,,,,, address _publicAddress,) = _aoPurchaseReceipt.getById(_purchaseReceiptId);\n\n\t\tbytes32 _hash = keccak256(abi.encodePacked(address(this), _aoContent.getBaseChallenge(_contentId)));\n\t\treturn (ecrecover(_hash, _v, _r, _s) == _publicAddress);\n\t}\n}\n",
  "sourcePath": "/usr/local/ao-contracts/contracts/AOContentHost.sol",
  "compiler": {
    "name": "solc",
    "version": "0.5.6+commit.b259423e.Emscripten.clang"
  },
  "schemaVersion": "3.0.2",
  "updatedAt": "2019-04-11T01:08:06.108Z",
  "devdoc": {
    "methods": {
      "becomeHost(bytes32,uint8,bytes32,bytes32,string,string,string)": {
        "details": "Request node wants to become a distribution node after buying the content\tAlso, if this transaction succeeds, contract will release all of the earnings that are\tcurrently in escrow for content creator/host/The AO",
        "params": {
          "_baseChallengeR": "The R part of signature when signing the base challenge",
          "_baseChallengeS": "The S part of signature when signing the base challenge",
          "_baseChallengeV": "The V part of signature when signing the base challenge",
          "_contentDatKey": "The dat key of the content",
          "_encChallenge": "The encrypted challenge string (PUBLIC KEY) of the content unique to the host",
          "_metadataDatKey": "The dat key of the content's metadata",
          "_purchaseReceiptId": "The ID of the Purchase Receipt"
        }
      },
      "constructor": {
        "details": "Constructor function",
        "params": {
          "_aoContentAddress": "The address of AOContent",
          "_aoEarningAddress": "The address of AOEarning",
          "_aoPurchaseReceiptAddress": "The address of AOPurchaseReceipt",
          "_aoStakedContentAddress": "The address of AOStakedContent",
          "_nameFactoryAddress": "The address of NameFactory",
          "_nameTAOPositionAddress": "The address of NameTAOPosition"
        }
      },
      "contentHostPaidByAO(bytes32)": {
        "details": "Determine the how much the content is paid by AO given a contentHostId",
        "params": {
          "_contentHostId": "The content host ID to be checked"
        },
        "return": "the amount paid by AO"
      },
      "contentHostPrice(bytes32)": {
        "details": "Determine the content price hosted by a host",
        "params": {
          "_contentHostId": "The content host ID to be checked"
        },
        "return": "the price of the content"
      },
      "create(address,bytes32,string,string,string)": {
        "details": "Add the distribution node info that hosts the content",
        "params": {
          "_contentDatKey": "The dat key of the content",
          "_encChallenge": "The encrypted challenge string (PUBLIC KEY) of the content unique to the host",
          "_host": "the address of the host",
          "_metadataDatKey": "The dat key of the content's metadata",
          "_stakedContentId": "The ID of the staked content"
        },
        "return": "true on success"
      },
      "getById(bytes32)": {
        "details": "Return content host info at a given ID",
        "params": {
          "_contentHostId": "The ID of the hosted content"
        },
        "return": "The ID of the staked contentThe ID of the contentaddress of the hostthe dat key of the contentthe dat key of the content's metadata"
      },
      "isExist(bytes32)": {
        "details": "Check whether or not a contentHostId exist",
        "params": {
          "_contentHostId": "The content host ID to be checked"
        },
        "return": "true if yes, false otherwise"
      },
      "setAOContentAddress(address)": {
        "details": "The AO sets AOContent address",
        "params": {
          "_aoContentAddress": "The address of AOContent"
        }
      },
      "setAOEarningAddress(address)": {
        "details": "The AO sets AOEarning address",
        "params": {
          "_aoEarningAddress": "The address of AOEarning"
        }
      },
      "setAOPurchaseReceiptAddress(address)": {
        "details": "The AO sets AOPurchaseReceipt address",
        "params": {
          "_aoPurchaseReceiptAddress": "The address of AOPurchaseReceipt"
        }
      },
      "setAOStakedContentAddress(address)": {
        "details": "The AO sets AOStakedContent address",
        "params": {
          "_aoStakedContentAddress": "The address of AOStakedContent"
        }
      },
      "setNameFactoryAddress(address)": {
        "details": "The AO sets NameFactory address",
        "params": {
          "_nameFactoryAddress": "The address of NameFactory"
        }
      },
      "setNameTAOPositionAddress(address)": {
        "details": "The AO sets NameTAOPosition address",
        "params": {
          "_nameTAOPositionAddress": "The address of NameTAOPosition"
        }
      },
      "setWhitelist(address,bool)": {
        "details": "Whitelist `_account` address to transact on behalf of others",
        "params": {
          "_account": "The address to whitelist",
          "_whitelist": "Either to whitelist or not"
        }
      },
      "transferOwnership(address)": {
        "details": "Transfer ownership of The AO to new address",
        "params": {
          "_theAO": "The new address to be transferred"
        }
      }
    },
    "title": "AOContentHost"
  },
  "userdoc": {
    "methods": {}
  }
}