{
	"contractName": "AOContent",
	"abi": [
		{
			"constant": true,
			"inputs": [],
			"name": "killed",
			"outputs": [
				{
					"name": "",
					"type": "bool"
				}
			],
			"payable": false,
			"stateMutability": "view",
			"type": "function"
		},
		{
			"constant": true,
			"inputs": [],
			"name": "totalStakedContents",
			"outputs": [
				{
					"name": "",
					"type": "uint256"
				}
			],
			"payable": false,
			"stateMutability": "view",
			"type": "function"
		},
		{
			"constant": true,
			"inputs": [],
			"name": "inflationRate",
			"outputs": [
				{
					"name": "",
					"type": "uint256"
				}
			],
			"payable": false,
			"stateMutability": "view",
			"type": "function"
		},
		{
			"constant": true,
			"inputs": [],
			"name": "totalBoughtContents",
			"outputs": [
				{
					"name": "",
					"type": "uint256"
				}
			],
			"payable": false,
			"stateMutability": "view",
			"type": "function"
		},
		{
			"constant": false,
			"inputs": [
				{
					"name": "_account",
					"type": "address"
				},
				{
					"name": "_whitelist",
					"type": "bool"
				}
			],
			"name": "setWhitelist",
			"outputs": [],
			"payable": false,
			"stateMutability": "nonpayable",
			"type": "function"
		},
		{
			"constant": true,
			"inputs": [],
			"name": "paused",
			"outputs": [
				{
					"name": "",
					"type": "bool"
				}
			],
			"payable": false,
			"stateMutability": "view",
			"type": "function"
		},
		{
			"constant": true,
			"inputs": [],
			"name": "owner",
			"outputs": [
				{
					"name": "",
					"type": "address"
				}
			],
			"payable": false,
			"stateMutability": "view",
			"type": "function"
		},
		{
			"constant": true,
			"inputs": [
				{
					"name": "",
					"type": "address"
				}
			],
			"name": "whitelist",
			"outputs": [
				{
					"name": "",
					"type": "bool"
				}
			],
			"payable": false,
			"stateMutability": "view",
			"type": "function"
		},
		{
			"constant": true,
			"inputs": [],
			"name": "PERCENTAGE_DIVISOR",
			"outputs": [
				{
					"name": "",
					"type": "uint256"
				}
			],
			"payable": false,
			"stateMutability": "view",
			"type": "function"
		},
		{
			"constant": false,
			"inputs": [
				{
					"name": "newOwner",
					"type": "address"
				}
			],
			"name": "transferOwnership",
			"outputs": [],
			"payable": false,
			"stateMutability": "nonpayable",
			"type": "function"
		},
		{
			"inputs": [
				{
					"name": "_treasuryAddress",
					"type": "address"
				}
			],
			"payable": false,
			"stateMutability": "nonpayable",
			"type": "constructor"
		},
		{
			"anonymous": false,
			"inputs": [
				{
					"indexed": true,
					"name": "stakeOwner",
					"type": "address"
				},
				{
					"indexed": true,
					"name": "stakeId",
					"type": "bytes32"
				},
				{
					"indexed": false,
					"name": "denominationAmount",
					"type": "uint256"
				},
				{
					"indexed": false,
					"name": "denomination",
					"type": "bytes8"
				},
				{
					"indexed": false,
					"name": "icoTokenAmount",
					"type": "uint256"
				},
				{
					"indexed": false,
					"name": "icoTokenWeightedIndex",
					"type": "uint256"
				},
				{
					"indexed": false,
					"name": "datKey",
					"type": "string"
				},
				{
					"indexed": false,
					"name": "fileSize",
					"type": "uint256"
				},
				{
					"indexed": false,
					"name": "profitPercentage",
					"type": "uint256"
				},
				{
					"indexed": false,
					"name": "createdOnTimestamp",
					"type": "uint256"
				}
			],
			"name": "StakeContent",
			"type": "event"
		},
		{
			"anonymous": false,
			"inputs": [
				{
					"indexed": true,
					"name": "stakeOwner",
					"type": "address"
				},
				{
					"indexed": true,
					"name": "stakeId",
					"type": "bytes32"
				},
				{
					"indexed": false,
					"name": "newProfitPercentage",
					"type": "uint256"
				}
			],
			"name": "SetProfitPercentage",
			"type": "event"
		},
		{
			"anonymous": false,
			"inputs": [
				{
					"indexed": true,
					"name": "stakeOwner",
					"type": "address"
				},
				{
					"indexed": true,
					"name": "stakeId",
					"type": "bytes32"
				}
			],
			"name": "UnstakeContent",
			"type": "event"
		},
		{
			"anonymous": false,
			"inputs": [
				{
					"indexed": true,
					"name": "stakeOwner",
					"type": "address"
				},
				{
					"indexed": true,
					"name": "stakeId",
					"type": "bytes32"
				},
				{
					"indexed": false,
					"name": "remainingDenominationAmount",
					"type": "uint256"
				},
				{
					"indexed": false,
					"name": "denomination",
					"type": "bytes8"
				},
				{
					"indexed": false,
					"name": "remainingIcoTokenAmount",
					"type": "uint256"
				},
				{
					"indexed": false,
					"name": "icoTokenWeightedIndex",
					"type": "uint256"
				}
			],
			"name": "UnstakePartialContent",
			"type": "event"
		},
		{
			"anonymous": false,
			"inputs": [
				{
					"indexed": true,
					"name": "stakeOwner",
					"type": "address"
				},
				{
					"indexed": true,
					"name": "stakeId",
					"type": "bytes32"
				},
				{
					"indexed": false,
					"name": "currentDenominationAmount",
					"type": "uint256"
				},
				{
					"indexed": false,
					"name": "currentDenomination",
					"type": "bytes8"
				},
				{
					"indexed": false,
					"name": "currentIcoTokenAmount",
					"type": "uint256"
				},
				{
					"indexed": false,
					"name": "currentIcoTokenWeightedIndex",
					"type": "uint256"
				}
			],
			"name": "StakeExistingContent",
			"type": "event"
		},
		{
			"anonymous": false,
			"inputs": [
				{
					"indexed": true,
					"name": "buyer",
					"type": "address"
				},
				{
					"indexed": true,
					"name": "buyId",
					"type": "bytes32"
				},
				{
					"indexed": true,
					"name": "stakeId",
					"type": "bytes32"
				},
				{
					"indexed": false,
					"name": "host",
					"type": "address"
				},
				{
					"indexed": false,
					"name": "denominationAmountSpent",
					"type": "uint256"
				},
				{
					"indexed": false,
					"name": "denomination",
					"type": "bytes8"
				},
				{
					"indexed": false,
					"name": "icoTokenAmountSpent",
					"type": "uint256"
				},
				{
					"indexed": false,
					"name": "icoTokenWeightedIndex",
					"type": "uint256"
				}
			],
			"name": "BuyContent",
			"type": "event"
		},
		{
			"anonymous": false,
			"inputs": [
				{
					"indexed": true,
					"name": "recipient",
					"type": "address"
				},
				{
					"indexed": true,
					"name": "sender",
					"type": "address"
				},
				{
					"indexed": true,
					"name": "buyId",
					"type": "bytes32"
				},
				{
					"indexed": false,
					"name": "stakeId",
					"type": "bytes32"
				},
				{
					"indexed": false,
					"name": "denominationAmount",
					"type": "uint256"
				},
				{
					"indexed": false,
					"name": "denomination",
					"type": "bytes8"
				},
				{
					"indexed": false,
					"name": "profitPercentage",
					"type": "uint256"
				},
				{
					"indexed": false,
					"name": "recipientType",
					"type": "uint8"
				}
			],
			"name": "BuyContentNetworkTokenEarning",
			"type": "event"
		},
		{
			"anonymous": false,
			"inputs": [
				{
					"indexed": true,
					"name": "recipient",
					"type": "address"
				},
				{
					"indexed": true,
					"name": "sender",
					"type": "address"
				},
				{
					"indexed": true,
					"name": "buyId",
					"type": "bytes32"
				},
				{
					"indexed": false,
					"name": "stakeId",
					"type": "bytes32"
				},
				{
					"indexed": false,
					"name": "icoTokenAmount",
					"type": "uint256"
				},
				{
					"indexed": false,
					"name": "icoTokenWeightedIndex",
					"type": "uint256"
				},
				{
					"indexed": false,
					"name": "profitPercentage",
					"type": "uint256"
				},
				{
					"indexed": false,
					"name": "recipientType",
					"type": "uint8"
				}
			],
			"name": "BuyContentPrimordialTokenEarning",
			"type": "event"
		},
		{
			"anonymous": false,
			"inputs": [],
			"name": "EscapeHatch",
			"type": "event"
		},
		{
			"constant": false,
			"inputs": [
				{
					"name": "_paused",
					"type": "bool"
				}
			],
			"name": "setPaused",
			"outputs": [],
			"payable": false,
			"stateMutability": "nonpayable",
			"type": "function"
		},
		{
			"constant": false,
			"inputs": [],
			"name": "escapeHatch",
			"outputs": [],
			"payable": false,
			"stateMutability": "nonpayable",
			"type": "function"
		},
		{
			"constant": false,
			"inputs": [
				{
					"name": "_inflationRate",
					"type": "uint256"
				}
			],
			"name": "setInflationRate",
			"outputs": [],
			"payable": false,
			"stateMutability": "nonpayable",
			"type": "function"
		},
		{
			"constant": false,
			"inputs": [
				{
					"name": "_denominationAmount",
					"type": "uint256"
				},
				{
					"name": "_denomination",
					"type": "bytes8"
				},
				{
					"name": "_icoTokenAmount",
					"type": "uint256"
				},
				{
					"name": "_datKey",
					"type": "string"
				},
				{
					"name": "_fileSize",
					"type": "uint256"
				},
				{
					"name": "_profitPercentage",
					"type": "uint256"
				}
			],
			"name": "stakeContent",
			"outputs": [],
			"payable": false,
			"stateMutability": "nonpayable",
			"type": "function"
		},
		{
			"constant": false,
			"inputs": [
				{
					"name": "_stakeId",
					"type": "bytes32"
				},
				{
					"name": "_profitPercentage",
					"type": "uint256"
				}
			],
			"name": "setProfitPercentage",
			"outputs": [],
			"payable": false,
			"stateMutability": "nonpayable",
			"type": "function"
		},
		{
			"constant": false,
			"inputs": [
				{
					"name": "_stakeId",
					"type": "bytes32"
				}
			],
			"name": "unstakeContent",
			"outputs": [],
			"payable": false,
			"stateMutability": "nonpayable",
			"type": "function"
		},
		{
			"constant": false,
			"inputs": [
				{
					"name": "_stakeId",
					"type": "bytes32"
				},
				{
					"name": "_denominationAmount",
					"type": "uint256"
				},
				{
					"name": "_icoTokenAmount",
					"type": "uint256"
				}
			],
			"name": "unstakePartialContent",
			"outputs": [],
			"payable": false,
			"stateMutability": "nonpayable",
			"type": "function"
		},
		{
			"constant": false,
			"inputs": [
				{
					"name": "_stakeId",
					"type": "bytes32"
				},
				{
					"name": "_denominationAmount",
					"type": "uint256"
				},
				{
					"name": "_denomination",
					"type": "bytes8"
				},
				{
					"name": "_icoTokenAmount",
					"type": "uint256"
				}
			],
			"name": "stakeExistingContent",
			"outputs": [],
			"payable": false,
			"stateMutability": "nonpayable",
			"type": "function"
		},
		{
			"constant": true,
			"inputs": [
				{
					"name": "_stakeId",
					"type": "bytes32"
				}
			],
			"name": "stakedContentById",
			"outputs": [
				{
					"name": "",
					"type": "address"
				},
				{
					"name": "",
					"type": "uint256"
				},
				{
					"name": "",
					"type": "bytes8"
				},
				{
					"name": "",
					"type": "uint256"
				},
				{
					"name": "",
					"type": "uint256"
				},
				{
					"name": "",
					"type": "string"
				},
				{
					"name": "",
					"type": "uint256"
				},
				{
					"name": "",
					"type": "uint256"
				},
				{
					"name": "",
					"type": "bool"
				},
				{
					"name": "",
					"type": "uint256"
				}
			],
			"payable": false,
			"stateMutability": "view",
			"type": "function"
		},
		{
			"constant": false,
			"inputs": [
				{
					"name": "_stakeId",
					"type": "bytes32"
				},
				{
					"name": "_host",
					"type": "address"
				},
				{
					"name": "_denominationAmount",
					"type": "uint256"
				},
				{
					"name": "_denomination",
					"type": "bytes8"
				},
				{
					"name": "_icoTokenAmount",
					"type": "uint256"
				}
			],
			"name": "buyContent",
			"outputs": [],
			"payable": false,
			"stateMutability": "nonpayable",
			"type": "function"
		}
	],
	"bytecode": "0x608060405234801561001057600080fd5b50604051602080612d88833981016040525160008054600160a060020a0319908116331790915560068054600160a060020a0390931692909116919091179055612d298061005f6000396000f3006080604052600436106100f85763ffffffff60e060020a6000350416631554611f81146100fd57806316c38b3c146101145780631f3a0e411461012e578063202352f71461015757806331f9e35b1461017e5780633b6a08da146101935780633c6edb94146101a857806353d6fd59146101d35780635b512648146101f95780635c975abb146102305780638da5cb5b146102455780639b19251a14610276578063b1551b9514610297578063b380b0d4146102af578063caf29765146102ca578063d29d0ba1146102df578063e2499b9814610358578063e6ab96ed14610473578063e9a73ca51461048b578063f2fde38b146104a9575b600080fd5b34801561010957600080fd5b506101126104ca565b005b34801561012057600080fd5b506101126004351515610530565b34801561013a57600080fd5b5061014361055a565b604080519115158252519081900360200190f35b34801561016357600080fd5b5061016c610568565b60408051918252519081900360200190f35b34801561018a57600080fd5b5061016c61056e565b34801561019f57600080fd5b5061016c610574565b3480156101b457600080fd5b50610112600435602435600160c060020a03196044351660643561057a565b3480156101df57600080fd5b50610112600160a060020a03600435166024351515610c4a565b34801561020557600080fd5b50610112600435600160a060020a0360243516604435600160c060020a031960643516608435610c8c565b34801561023c57600080fd5b5061014361101a565b34801561025157600080fd5b5061025a611023565b60408051600160a060020a039092168252519081900360200190f35b34801561028257600080fd5b50610143600160a060020a0360043516611032565b3480156102a357600080fd5b50610112600435611047565b3480156102bb57600080fd5b50610112600435602435611089565b3480156102d657600080fd5b5061016c611153565b3480156102eb57600080fd5b50604080516020601f60643560048181013592830184900484028501840190955281845261011294803594600160c060020a0319602480359190911695604435953695608494930191819084018382808284375094975050843595505050602090920135915061115a9050565b34801561036457600080fd5b506103706004356118c0565b604051808b600160a060020a0316600160a060020a031681526020018a81526020018977ffffffffffffffffffffffffffffffffffffffffffffffff191677ffffffffffffffffffffffffffffffffffffffffffffffff191681526020018881526020018781526020018060200186815260200185815260200184151515158152602001838152602001828103825287818151815260200191508051906020019080838360005b8381101561042f578181015183820152602001610417565b50505050905090810190601f16801561045c5780820380516001836020036101000a031916815260200191505b509b50505050505050505050505060405180910390f35b34801561047f57600080fd5b50610112600435611a90565b34801561049757600080fd5b50610112600435602435604435611ead565b3480156104b557600080fd5b50610112600160a060020a036004351661236c565b600054600160a060020a031633146104e157600080fd5b600254610100900460ff16156104f657600080fd5b6002805461ff0019166101001790556040517f16ed36fbe43aed6ba7426b24d35620696380d398f2f22f918dd74e4d3e0ceef990600090a1565b600054600160a060020a0316331461054757600080fd5b6002805460ff1916911515919091179055565b600254610100900460ff1681565b60045481565b60035481565b60055481565b6002546000908190819060ff1615801561059c5750600254610100900460ff16155b15156105a757600080fd5b600087815260086020526040812054116105c057600080fd5b60008611806105cf5750600084115b15156105da57600080fd5b6000878152600860209081526040808320548352600790915290206001810154909350600160a060020a0316331461061157600080fd5b60008611801561061f575060015b801561062f5750600983015460ff165b801561063f575060008360020154115b8015610649575060015b15610672576003830154600160c060020a031986811660c060020a909202161461067257600080fd5b6006546040805160e460020a6305cbcce70281529051600160a060020a0390921691636e1c831f918391635cbcce70916004808201926020929091908290030181600087803b1580156106c457600080fd5b505af11580156106d8573d6000803e3d6000fd5b505050506040513d60208110156106ee57600080fd5b50516040805160e060020a63ffffffff8516028152600160c060020a031990921660048301525160248083019260209291908290030181600087803b15801561073657600080fd5b505af115801561074a573d6000803e3d6000fd5b505050506040513d602081101561076057600080fd5b505191506000841180156107785750600983015460ff165b8015610788575060008360040154115b15610829576005830154604080517f56307efc0000000000000000000000000000000000000000000000000000000081523360048201529051600160a060020a038516916356307efc9160248083019260209291908290030181600087803b1580156107f357600080fd5b505af1158015610807573d6000803e3d6000fd5b505050506040513d602081101561081d57600080fd5b50511461082957600080fd5b826007015461085d8561085186600401546108518b89600201546123b290919063ffffffff16565b9063ffffffff6123b216565b101561086857600080fd5b6000861115610a68576006546040805160e060020a636e1c831f028152600160c060020a0319881660048201529051600092600160a060020a031691636e1c831f91602480830192602092919082900301818787803b1580156108ca57600080fd5b505af11580156108de573d6000803e3d6000fd5b505050506040513d60208110156108f457600080fd5b5051600160a060020a0316141561090a57600080fd5b600283015461091f908763ffffffff6123b216565b600284015560038301805467ffffffffffffffff191660c060020a87041790556006546040805160e060020a636e1c831f028152600160c060020a0319881660048201529051600160a060020a0390921691636e1c831f916024808201926020929091908290030181600087803b15801561099957600080fd5b505af11580156109ad573d6000803e3d6000fd5b505050506040513d60208110156109c357600080fd5b5051604080517f31a8aeb3000000000000000000000000000000000000000000000000000000008152336004820152602481018990529051919250600160a060020a038316916331a8aeb3916044808201926020929091908290030181600087803b158015610a3157600080fd5b505af1158015610a45573d6000803e3d6000fd5b505050506040513d6020811015610a5b57600080fd5b50511515610a6857600080fd5b6000841115610bc2576004830154610a86908563ffffffff6123b216565b836004018190555081600160a060020a03166356307efc336040518263ffffffff1660e060020a0281526004018082600160a060020a0316600160a060020a03168152602001915050602060405180830381600087803b158015610ae957600080fd5b505af1158015610afd573d6000803e3d6000fd5b505050506040513d6020811015610b1357600080fd5b505160058401819055604080517f9b66da9c00000000000000000000000000000000000000000000000000000000815233600482015260248101879052604481019290925251600160a060020a03841691639b66da9c9160648083019260209291908290030181600087803b158015610b8b57600080fd5b505af1158015610b9f573d6000803e3d6000fd5b505050506040513d6020811015610bb557600080fd5b50511515610bc257600080fd5b60098301805460ff19166001179055600283015460038401546004850154600586015460408051948552600160c060020a031960c060020a90940293909316602085015283830191909152606083015251889133917fd9a6986ea46a3926318afce64cc0445af3f05d540d151425108a8f17a323cb5d9181900360800190a350505050505050565b600054600160a060020a03163314610c6157600080fd5b600160a060020a03919091166000908152600160205260409020805460ff1916911515919091179055565b610c94612c07565b600254600090819060ff16158015610cb45750600254610100900460ff16155b1515610cbf57600080fd5b60008881526008602052604081205411610cd857600080fd5b336000908152600b6020908152604082208a8352905280fd5b815481529060010190602001808311610cf1575050509183525050600782015460208201526008820154604080830191909152600983015460ff1615156060830152600a9092015460809182015282015190820151919450610d5391906123b2565b610d63878663ffffffff6123b216565b1015610d6e57600080fd5b8260200151600160a060020a031687600160a060020a03161480610daf5750600160a060020a0387166000908152600b602090815260408220918a90525260015b1515610dba57600080fd5b6005805460010190819055604080516c0100000000000000000000000030810260208084019190915233919091026034830152604882019390935260688082018c905282518083039091018152608890910191829052805190928291908401908083835b60208310610e3d5780518252601f199092019160209182019101610e1e565b6001836020036101000a0380198251168184511680821785525050505050509050019150506040518091039020915060096000600554815260200190815260200160002090508181600001816000191690555087816001018160001916905550338160020160006101000a815481600160a060020a030219169083600160a060020a03160217905550868160030160006101000a815481600160a060020a030219169083600160a060020a03160217905550428160080181905550600554600a600084600019166000191681526020019081526020016000208190555081600b600033600160a060020a0316600160a060020a0316815260200190815260200160002060008a6000191660001916815260200190815260200160002081600019169055506000861115610f8357610f8333846020015189858c8b8b8a61010001516123c5565b6000841115610fa457610fa433846020015189858c898961010001516127a9565b600781015460408051600160a060020a038a16815260208101899052600160c060020a0319881681830152606081018790526080810192909252518991849133917f2463e2f75ec8b6e6c93cc86c1c54be306fb2f460d02fb27d64b18044ac791e05919081900360a00190a45050505050505050565b60025460ff1681565b600054600160a060020a031681565b60016020526000908152604090205460ff1681565b3360008181526001602081905260409091205460ff16151514806110785750600054600160a060020a038281169116145b151561108357600080fd5b50600355565b60025460009060ff161580156110a75750600254610100900460ff16155b15156110b257600080fd5b620f42408211156110c257600080fd5b600083815260086020526040812054116110db57600080fd5b506000828152600860209081526040808320548352600790915290206001810154600160a060020a0316331461111057600080fd5b60088101829055604080518381529051849133917f6c4a0cfd4af9f173dec0ac350616d6c855be630c8c83b3cd18879ad5a6bf6d299181900360200190a3505050565b620f424081565b60025460009081908190819060ff1615801561117e5750600254610100900460ff16155b151561118957600080fd5b865160001061119757600080fd5b600086116111a457600080fd5b60008a11806111b35750600088115b15156111be57600080fd5b620f42408511156111ce57600080fd5b856111df8b8a63ffffffff6123b216565b10156111ea57600080fd5b60048054600101908190556040516c01000000000000000000000000308181026020808501918252339384026034860152604885018690528c51929593948d936068909101918401908083835b602083106112565780518252601f199092019160209182019101611237565b6001836020036101000a0380198251168184511680821785525050505050509050019450505050506040516020818303038152906040526040518082805190602001908083835b602083106112bc5780518252601f19909201916020918201910161129d565b51815160209384036101000a60001901801990921691161790526040805192909401829003909120600454600090815260078352939093208381556001810180543373ffffffffffffffffffffffffffffffffffffffff199091161790558c51939950975061133694506006880193508b01919050612c62565b5060078301869055600880840186905560098401805460ff1916600117905542600a850155600454600086815260209290925260408220558a1115611559576006546040805160e060020a636e1c831f028152600160c060020a03198c1660048201529051600092600160a060020a031691636e1c831f91602480830192602092919082900301818787803b1580156113ce57600080fd5b505af11580156113e2573d6000803e3d6000fd5b505050506040513d60208110156113f857600080fd5b5051600160a060020a0316141561140e57600080fd5b600283018a905560038301805467ffffffffffffffff191660c060020a8b041790556006546040805160e060020a636e1c831f028152600160c060020a03198c1660048201529051600160a060020a0390921691636e1c831f916024808201926020929091908290030181600087803b15801561148a57600080fd5b505af115801561149e573d6000803e3d6000fd5b505050506040513d60208110156114b457600080fd5b5051604080517f31a8aeb3000000000000000000000000000000000000000000000000000000008152336004820152602481018d90529051919350600160a060020a038416916331a8aeb3916044808201926020929091908290030181600087803b15801561152257600080fd5b505af1158015611536573d6000803e3d6000fd5b505050506040513d602081101561154c57600080fd5b5051151561155957600080fd5b60008811156117965760048084018990556006546040805160e460020a6305cbcce70281529051600160a060020a0390921692636e1c831f928492635cbcce7092818101926020929091908290030181600087803b1580156115ba57600080fd5b505af11580156115ce573d6000803e3d6000fd5b505050506040513d60208110156115e457600080fd5b50516040805160e060020a63ffffffff8516028152600160c060020a031990921660048301525160248083019260209291908290030181600087803b15801561162c57600080fd5b505af1158015611640573d6000803e3d6000fd5b505050506040513d602081101561165657600080fd5b5051604080517f56307efc0000000000000000000000000000000000000000000000000000000081523360048201529051919250600160a060020a038316916356307efc916024808201926020929091908290030181600087803b1580156116bd57600080fd5b505af11580156116d1573d6000803e3d6000fd5b505050506040513d60208110156116e757600080fd5b505160058401819055604080517f9b66da9c000000000000000000000000000000000000000000000000000000008152336004820152602481018b9052604481019290925251600160a060020a03831691639b66da9c9160648083019260209291908290030181600087803b15801561175f57600080fd5b505af1158015611773573d6000803e3d6000fd5b505050506040513d602081101561178957600080fd5b5051151561179657600080fd5b836000191633600160a060020a03167fab3f9f01445906267fe6b0d3ab69a6d0948da9497eeb3ca1de4cc9a32ab022f48c8c8c88600501548d8d8d8c600a0154604051808981526020018877ffffffffffffffffffffffffffffffffffffffffffffffff191677ffffffffffffffffffffffffffffffffffffffffffffffff1916815260200187815260200186815260200180602001858152602001848152602001838152602001828103825286818151815260200191508051906020019080838360005b8381101561187357818101518382015260200161185b565b50505050905090810190601f1680156118a05780820380516001836020036101000a031916815260200191505b50995050505050505050505060405180910390a350505050505050505050565b600080600080600060606000806000806118d8612c07565b60008c815260086020526040812054116118f157600080fd5b60008c8152600860209081526040808320548352600782529182902082516101608101845281548152600180830154600160a060020a031682850152600280840154838701526003840154600160c060020a031960c060020a90910216606084015260048401546080840152600584015460a08401526006840180548751601f948216156101000260001901909116929092049283018690048602820186019096528181529194929360c086019391908301828280156119f25780601f106119c7576101008083540402835291602001916119f2565b820191906000526020600020905b8154815290600101906020018083116119d557829003601f168201915b5050505050815260200160078201548152602001600882015481526020016009820160009054906101000a900460ff16151515158152602001600a82015481525050905080602001518160400151826060015183608001518460a001518560c001518660e001518761010001518861012001518961014001518494509a509a509a509a509a509a509a509a509a509a50509193959799509193959799565b60025460009081908190819081908190819060ff16158015611aba5750600254610100900460ff16155b1515611ac557600080fd5b60008881526008602052604081205411611ade57600080fd5b6000888152600860209081526040808320548352600790915290206001810154909750600160a060020a03163314611b1557600080fd5b600987015460ff1615156001148015611b405750600087600201541180611b40575060008760040154115b1515611b4b57600080fd5b60098701805460ff19169055600287015460001015611cb95760028701805460038901805460009384905567ffffffffffffffff1981169091556006546040805160e060020a636e1c831f02815260c060020a909302600160c060020a0319811660048501529051939a509850600160a060020a031692636e1c831f926024808401936020939083900390910190829087803b158015611bea57600080fd5b505af1158015611bfe573d6000803e3d6000fd5b505050506040513d6020811015611c1457600080fd5b5051604080517f731a3b06000000000000000000000000000000000000000000000000000000008152336004820152602481018990529051919550600160a060020a0386169163731a3b06916044808201926020929091908290030181600087803b158015611c8257600080fd5b505af1158015611c96573d6000803e3d6000fd5b505050506040513d6020811015611cac57600080fd5b50511515611cb957600080fd5b600087600401541115611e77576004808801805460058a018054600093849055908390556006546040805160e460020a6305cbcce70281529051939850919650600160a060020a031693636e1c831f938593635cbcce709380840193602093918390030190829087803b158015611d2f57600080fd5b505af1158015611d43573d6000803e3d6000fd5b505050506040513d6020811015611d5957600080fd5b50516040805160e060020a63ffffffff8516028152600160c060020a031990921660048301525160248083019260209291908290030181600087803b158015611da157600080fd5b505af1158015611db5573d6000803e3d6000fd5b505050506040513d6020811015611dcb57600080fd5b5051604080517f9d8c1eed00000000000000000000000000000000000000000000000000000000815233600482015260248101869052604481018590529051919250600160a060020a03831691639d8c1eed916064808201926020929091908290030181600087803b158015611e4057600080fd5b505af1158015611e54573d6000803e3d6000fd5b505050506040513d6020811015611e6a57600080fd5b50511515611e7757600080fd5b604051889033907eeb6a306a149d2ec8a5e5f228483a31d06863f4cd48237ddf5c1c236805def890600090a35050505050505050565b6002546000908190819060ff16158015611ecf5750600254610100900460ff16155b1515611eda57600080fd5b60008681526008602052604081205411611ef357600080fd5b6000851180611f025750600084115b1515611f0d57600080fd5b6000868152600860209081526040808320548352600790915290206001810154909350600160a060020a03163314611f4457600080fd5b600983015460ff1615156001148015611f6f5750600083600201541180611f6f575060008360040154115b1515611f7a57600080fd5b84836002015410158015611f92575083836004015410155b1515611f9d57600080fd5b60078301546004840154611fd090611fbb908763ffffffff612bb716565b6002860154610851908963ffffffff612bb716565b1015611fdb57600080fd5b6000851115612132576002830154611ff9908663ffffffff612bb716565b600284015560065460038401546040805160e060020a636e1c831f02815260c060020a909202600160c060020a031916600483015251600160a060020a0390921691636e1c831f916024808201926020929091908290030181600087803b15801561206357600080fd5b505af1158015612077573d6000803e3d6000fd5b505050506040513d602081101561208d57600080fd5b5051604080517f731a3b06000000000000000000000000000000000000000000000000000000008152336004820152602481018890529051919350600160a060020a0384169163731a3b06916044808201926020929091908290030181600087803b1580156120fb57600080fd5b505af115801561210f573d6000803e3d6000fd5b505050506040513d602081101561212557600080fd5b5051151561213257600080fd5b60008411156122f6576004830154612150908563ffffffff612bb716565b6004808501919091556006546040805160e460020a6305cbcce70281529051600160a060020a0390921692636e1c831f928492635cbcce7092818101926020929091908290030181600087803b1580156121a957600080fd5b505af11580156121bd573d6000803e3d6000fd5b505050506040513d60208110156121d357600080fd5b50516040805160e060020a63ffffffff8516028152600160c060020a031990921660048301525160248083019260209291908290030181600087803b15801561221b57600080fd5b505af115801561222f573d6000803e3d6000fd5b505050506040513d602081101561224557600080fd5b50516005840154604080517f9d8c1eed00000000000000000000000000000000000000000000000000000000815233600482015260248101889052604481019290925251919250600160a060020a03831691639d8c1eed916064808201926020929091908290030181600087803b1580156122bf57600080fd5b505af11580156122d3573d6000803e3d6000fd5b505050506040513d60208110156122e957600080fd5b505115156122f657600080fd5b60028301546003840154600485015460058601546040805194855260c060020a909302600160c060020a031916602085015283830191909152606083015251879133917fbc9c055fafa18285cbc64414f3530793a52ac01cf6b35eb4396e86f81781e7d8916080908290030190a3505050505050565b600054600160a060020a0316331461238357600080fd5b6000805473ffffffffffffffffffffffffffffffffffffffff1916600160a060020a0392909216919091179055565b818101828110156123bf57fe5b92915050565b6006546040805160e060020a636e1c831f028152600160c060020a0319851660048201529051600092839283928392600160a060020a031691636e1c831f91602480830192602092919082900301818787803b15801561242457600080fd5b505af1158015612438573d6000803e3d6000fd5b505050506040513d602081101561244e57600080fd5b5051600160a060020a0316141561246457600080fd5b6000888152600a602090815260408083205483526009825280832060048082018b905560058201805467ffffffffffffffff191660c060020a8c04179055600654835160e060020a636e1c831f028152600160c060020a03198c16928101929092529251919750600160a060020a0390921693636e1c831f93602480850194919392918390030190829087803b1580156124fd57600080fd5b505af1158015612511573d6000803e3d6000fd5b505050506040513d602081101561252757600080fd5b5051915061254e620f4240612542888763ffffffff612bc916565b9063ffffffff612bf216565b604080517fa144a3e0000000000000000000000000000000000000000000000000000000008152600160a060020a038e811660048301528d811660248301526044820184905291519293509084169163a144a3e0916064808201926020929091908290030181600087803b1580156125c557600080fd5b505af11580156125d9573d6000803e3d6000fd5b505050506040513d60208110156125ef57600080fd5b505115156125fc57600080fd5b6040805188815260208101839052600160c060020a0319871681830152606081018690526000608082015290518991600160a060020a03808f1692908e16917fa71ea6a1d34939d36af6237068a4c00226f933271ad65ce439a4fdfeb603a498919081900360a00190a4600160a060020a03821663a144a3e08c8b6126878a8663ffffffff612bb716565b6040805160e060020a63ffffffff8716028152600160a060020a0394851660048201529290931660248301526044820152905160648083019260209291908290030181600087803b1580156126db57600080fd5b505af11580156126ef573d6000803e3d6000fd5b505050506040513d602081101561270557600080fd5b5051151561271257600080fd5b87600160a060020a03808d16908b167fa71ea6a1d34939d36af6237068a4c00226f933271ad65ce439a4fdfeb603a4988a6127538b8763ffffffff612bb716565b8a612767620f42408c63ffffffff612bb716565b604080519485526020850193909352600160c060020a031990911683830152606083015260016080830152519081900360a00190a45050505050505050505050565b6000848152600a6020908152604080832054835260098252808320600680820187905554825160e460020a6305cbcce702815292519194938493600160a060020a0390921692636e1c831f928492635cbcce709260048084019382900301818987803b15801561281857600080fd5b505af115801561282c573d6000803e3d6000fd5b505050506040513d602081101561284257600080fd5b50516040805160e060020a63ffffffff8516028152600160c060020a031990921660048301525160248083019260209291908290030181600087803b15801561288a57600080fd5b505af115801561289e573d6000803e3d6000fd5b505050506040513d60208110156128b457600080fd5b5051604080517f56307efc000000000000000000000000000000000000000000000000000000008152600160a060020a038d811660048301529151929450908416916356307efc916024808201926020929091908290030181600087803b15801561291e57600080fd5b505af1158015612932573d6000803e3d6000fd5b505050506040513d602081101561294857600080fd5b50516007840155612966620f4240612542878763ffffffff612bc916565b604080517feca74981000000000000000000000000000000000000000000000000000000008152600160a060020a038d811660048301528c811660248301526044820184905291519293509084169163eca74981916064808201926020929091908290030181600087803b1580156129dd57600080fd5b505af11580156129f1573d6000803e3d6000fd5b505050506040513d6020811015612a0757600080fd5b50511515612a1457600080fd5b60078301546040805188815260208101849052808201929092526060820186905260006080830152518891600160a060020a03808e1692908d16917fb49cc4ba9fef9e7f93f1d41105bae8b1193e51a86df976dcfd24abb070e75a2a919081900360a00190a4600160a060020a03821663eca749818b8a612a9b898663ffffffff612bb716565b6040805160e060020a63ffffffff8716028152600160a060020a0394851660048201529290931660248301526044820152905160648083019260209291908290030181600087803b158015612aef57600080fd5b505af1158015612b03573d6000803e3d6000fd5b505050506040513d6020811015612b1957600080fd5b50511515612b2657600080fd5b86600160a060020a03808c16908a167fb49cc4ba9fef9e7f93f1d41105bae8b1193e51a86df976dcfd24abb070e75a2a89612b678a8763ffffffff612bb716565b6007890154612b7f620f42408c63ffffffff612bb716565b60408051948552602085019390935283830191909152606083015260016080830152519081900360a00190a450505050505050505050565b600082821115612bc357fe5b50900390565b6000821515612bda575060006123bf565b50818102818382811515612bea57fe5b04146123bf57fe5b60008183811515612bff57fe5b049392505050565b604080516101608101825260008082526020820181905291810182905260608082018390526080820183905260a0820183905260c082015260e081018290526101008101829052610120810182905261014081019190915290565b828054600181600116156101000203166002900490600052602060002090601f016020900481019282601f10612ca357805160ff1916838001178555612cd0565b82800160010185558215612cd0579182015b82811115612cd0578251825591602001919060010190612cb5565b50612cdc929150612ce0565b5090565b612cfa91905b80821115612cdc5760008155600101612ce6565b905600a165627a7a72305820a4240fe05d53723ee47f9b7ab7dc1b1881598c24aec114ca36f96f744eac88710029",
	"source": "pragma solidity ^0.4.24;\n\nimport './SafeMath.sol';\nimport './owned.sol';\nimport './AOToken.sol';\nimport './AOTreasury.sol';\n\n/**\n * @title AOContent\n *\n * The purpose of this contract is to allow content creator to stake normal ERC20 AO tokens and/or ICO AO Tokens\n * on his/her content\n */\ncontract AOContent is owned {\n\tusing SafeMath for uint256;\n\n\tbool public paused;\n\tbool public killed;\n\tuint256 public inflationRate; // support up to 4 decimals, i.e 12.3456% = 123456\n\tuint256 constant public PERCENTAGE_DIVISOR = 10 ** 6; // 100% = 1000000\n\tuint256 public totalStakedContents;\n\tuint256 public totalBoughtContents;\n\tAOTreasury private _treasury;\n\n\tstruct StakedContent {\n\t\tbytes32 stakeId;\n\t\taddress stakeOwner;\n\t\t/**\n\t\t * denominationAmount is the amount of the normal ERC20 token to stake\n\t\t * For example:\n\t\t * denominationAmount = 1123\n\t\t * denomination = kilo\n\t\t * this actually means 1.123 AOKILO since kilo has 3 decimals\n\t\t */\n\t\tuint256 denominationAmount;\n\t\tbytes8 denomination; // i.e ao, kilo, mega, etc.\n\t\tuint256 icoTokenAmount;\t// icoTokenAmount is the amount of ICO AO Token to stake (always in base denomination)\n\t\tuint256 icoTokenWeightedIndex;\n\t\tstring datKey;\n\t\tuint256 fileSize;\n\t\tuint256 profitPercentage; // support up to 4 decimals, 100% = 1000000\n\t\tbool active; // true if currently staked, false when unstaked\n\t\tuint256 createdOnTimestamp;\n\t}\n\n\tstruct BoughtContent {\n\t\tbytes32 buyId;\n\t\tbytes32 stakeId;\n\t\taddress buyer;\n\t\taddress host; // The host address that holds the data\n\t\t/**\n\t\t * denominationAmount is the amount of the normal ERC20 token to spend\n\t\t * For example:\n\t\t * denominationAmount = 1123\n\t\t * denomination = kilo\n\t\t * this actually means 1.123 AOKILO since kilo has 3 decimals\n\t\t */\n\t\tuint256 denominationAmount;\n\t\tbytes8 denomination; // i.e ao, kilo, mega, etc.\n\t\tuint256 icoTokenAmount;\t// icoTokenAmount is the amount of ICO AO Token to stake (always in base denomination)\n\t\tuint256 icoTokenWeightedIndex;\n\t\tuint256 createdOnTimestamp;\n\t}\n\n\t// Mapping from StakedContent index to the StakedContent object\n\tmapping (uint256 => StakedContent) private stakedContents;\n\n\t// Mapping from stake ID to index of the stakedContents list\n\tmapping (bytes32 => uint256) private stakedContentIndex;\n\n\t// Mapping from BoughtContent index to the BoughtContent object\n\tmapping (uint256 => BoughtContent) private boughtContents;\n\n\t// Mapping from buy ID to index of the boughtContents list\n\tmapping (bytes32 => uint256) private boughtContentIndex;\n\n\t// Mapping from buyer's bought stake ID to the buy ID\n\t// To check whether or not a stakedContent has been bought by buyer\n\tmapping (address => mapping (bytes32 => bytes32)) internal buyerOwnedStakeId;\n\n\t// Event to be broadcasted to public when `stakeOwner` stakes a new content\n\tevent StakeContent(address indexed stakeOwner, bytes32 indexed stakeId, uint256 denominationAmount, bytes8 denomination, uint256 icoTokenAmount, uint256 icoTokenWeightedIndex, string datKey, uint256 fileSize, uint256 profitPercentage, uint256 createdOnTimestamp);\n\n\t// Event to be broadcasted to public when `stakeOwner` updates the staked content's profit percentage\n\tevent SetProfitPercentage(address indexed stakeOwner, bytes32 indexed stakeId, uint256 newProfitPercentage);\n\n\t// Event to be broadcasted to public when `stakeOwner` unstakes all token amount on an existing content\n\tevent UnstakeContent(address indexed stakeOwner, bytes32 indexed stakeId);\n\n\t// Event to be broadcasted to public when `stakeOwner` unstakes partial token amount on an existing content\n\tevent UnstakePartialContent(address indexed stakeOwner, bytes32 indexed stakeId, uint256 remainingDenominationAmount, bytes8 denomination, uint256 remainingIcoTokenAmount, uint256 icoTokenWeightedIndex);\n\n\t// Event to be broadcasted to public when `stakeOwner` re-stakes an existing content\n\tevent StakeExistingContent(address indexed stakeOwner, bytes32 indexed stakeId, uint256 currentDenominationAmount, bytes8 currentDenomination, uint256 currentIcoTokenAmount, uint256 currentIcoTokenWeightedIndex);\n\n\t// Event to be broadcasted to public when `buyer` buys an existing content\n\tevent BuyContent(address indexed buyer, bytes32 indexed buyId, bytes32 indexed stakeId, address host, uint256 denominationAmountSpent, bytes8 denomination, uint256 icoTokenAmountSpent, uint256 icoTokenWeightedIndex);\n\n\t// Event to be broadcasted to public when stake owner (content creator) or host receives profit when someone buys the content\n\t// recipientType:\n\t// 0 => Stake Owner (Content Creator)\n\t// 1 => Node Host\n\tevent BuyContentNetworkTokenEarning(address indexed recipient, address indexed sender, bytes32 indexed buyId, bytes32 stakeId, uint256 denominationAmount, bytes8 denomination, uint256 profitPercentage, uint8 recipientType);\n\tevent BuyContentPrimordialTokenEarning(address indexed recipient, address indexed sender, bytes32 indexed buyId, bytes32 stakeId, uint256 icoTokenAmount, uint256 icoTokenWeightedIndex, uint256 profitPercentage, uint8 recipientType);\n\n\t// Event to be broadcasted to public when emergency mode is triggered\n\tevent EscapeHatch();\n\n\t/**\n\t * @dev Constructor function\n\t * @param _treasuryAddress The address of AOTreasury\n\t */\n\tconstructor(address _treasuryAddress) public {\n\t\t_treasury = AOTreasury(_treasuryAddress);\n\t}\n\n\t/**\n\t * @dev Checks if contract is currently active\n\t */\n\tmodifier isActive {\n\t\trequire (paused == false && killed == false);\n\t\t_;\n\t}\n\n\t/***** OWNER ONLY METHODS *****/\n\t/**\n\t * @dev Owner pauses/unpauses contract\n\t * @param _paused Either to pause contract or not\n\t */\n\tfunction setPaused(bool _paused) public onlyOwner {\n\t\tpaused = _paused;\n\t}\n\n\t/**\n\t * @dev Owner triggers emergency mode.\n\t *\n\t * Allow stake owners to withdraw all existing active staked funds\n\t */\n\tfunction escapeHatch() public onlyOwner {\n\t\trequire (killed == false);\n\t\tkilled = true;\n\t\temit EscapeHatch();\n\t}\n\n\t/**\n\t * @dev Whitelisted address sets inflation rate\n\t * @param _inflationRate The new inflation rate value to be set\n\t */\n\tfunction setInflationRate(uint256 _inflationRate) public inWhitelist(msg.sender) {\n\t\tinflationRate = _inflationRate;\n\t}\n\n\t/***** PUBLIC METHODS *****/\n\t/**\n\t * @dev Stake `_denominationAmount` of normal ERC20 and/or `_icoTokenAmount` ICO Tokens for a content\n\t * @param _denominationAmount The amount of normal ERC20 token to stake\n\t * @param _denomination The denomination of the normal ERC20 token, i.e ao, kilo, mega, etc.\n\t * @param _icoTokenAmount The amount of ICO Token to stake\n\t * @param _datKey The dat key of the file\n\t * @param _fileSize The size of the file\n\t * @param _profitPercentage The percentage of profit the stake owner's media will charge\n\t */\n\tfunction stakeContent(uint256 _denominationAmount, bytes8 _denomination, uint256 _icoTokenAmount, string _datKey, uint256 _fileSize, uint256 _profitPercentage) public isActive {\n\t\trequire (bytes(_datKey).length > 0);\n\t\trequire (_fileSize > 0);\n\t\trequire (_denominationAmount > 0 || _icoTokenAmount > 0);\n\t\trequire (_profitPercentage <= PERCENTAGE_DIVISOR);\n\n\t\t// Make sure the staked token amount can cover the fileSize\n\t\trequire (_denominationAmount.add(_icoTokenAmount) >= _fileSize);\n\n\t\t// Increment totalStakedContents\n\t\ttotalStakedContents++;\n\n\t\t// Generate stakeId\n\t\tbytes32 _stakeId = keccak256(abi.encodePacked(this, msg.sender, totalStakedContents, _datKey));\n\t\tStakedContent storage _stakedContent = stakedContents[totalStakedContents];\n\t\t_stakedContent.stakeId = _stakeId;\n\t\t_stakedContent.stakeOwner = msg.sender;\n\t\t_stakedContent.datKey = _datKey;\n\t\t_stakedContent.fileSize = _fileSize;\n\t\t_stakedContent.profitPercentage = _profitPercentage;\n\t\t_stakedContent.active = true;\n\t\t_stakedContent.createdOnTimestamp = now;\n\n\t\tstakedContentIndex[_stakeId] = totalStakedContents;\n\n\t\tif (_denominationAmount > 0) {\n\t\t\t// Make sure the _denomination is in the available list\n\t\t\trequire (_treasury.denominations(_denomination) != address(0));\n\n\t\t\t_stakedContent.denominationAmount = _denominationAmount;\n\t\t\t_stakedContent.denomination = _denomination;\n\n\t\t\tAOToken _denominationToken = AOToken(_treasury.denominations(_denomination));\n\t\t\trequire (_denominationToken.stakeFrom(msg.sender, _denominationAmount));\n\t\t}\n\t\tif (_icoTokenAmount > 0) {\n\t\t\t_stakedContent.icoTokenAmount = _icoTokenAmount;\n\n\t\t\t// ICO Token is the base AO Token\n\t\t\tAOToken _icoToken = AOToken(_treasury.denominations(_treasury.BASE_DENOMINATION()));\n\t\t\t_stakedContent.icoTokenWeightedIndex = _icoToken.weightedIndexByAddress(msg.sender);\n\t\t\trequire (_icoToken.stakeIcoTokenFrom(msg.sender, _icoTokenAmount, _stakedContent.icoTokenWeightedIndex));\n\t\t}\n\n\t\temit StakeContent(msg.sender, _stakeId, _denominationAmount, _denomination, _icoTokenAmount, _stakedContent.icoTokenWeightedIndex, _datKey, _fileSize, _profitPercentage, _stakedContent.createdOnTimestamp);\n\t}\n\n\t/**\n\t * @dev Set profit percentage on existing staked content\n\t * @param _stakeId The ID of the staked content\n\t * @param _profitPercentage The new value to be set\n\t */\n\tfunction setProfitPercentage(bytes32 _stakeId, uint256 _profitPercentage) public isActive {\n\t\trequire (_profitPercentage <= PERCENTAGE_DIVISOR);\n\n\t\t// Make sure the staked content exist\n\t\trequire (stakedContentIndex[_stakeId] > 0);\n\n\t\tStakedContent storage _stakedContent = stakedContents[stakedContentIndex[_stakeId]];\n\t\t// Make sure the staked content owner is the same as the sender\n\t\trequire (_stakedContent.stakeOwner == msg.sender);\n\n\t\t_stakedContent.profitPercentage = _profitPercentage;\n\n\t\temit SetProfitPercentage(msg.sender, _stakeId, _profitPercentage);\n\t}\n\n\t/**\n\t * @dev Unstake existing staked content and refund the total staked amount to the stake owner\n\t * @param _stakeId The ID of the staked content\n\t */\n\tfunction unstakeContent(bytes32 _stakeId) public isActive {\n\t\t// Make sure the staked content exist\n\t\trequire (stakedContentIndex[_stakeId] > 0);\n\n\t\tStakedContent storage _stakedContent = stakedContents[stakedContentIndex[_stakeId]];\n\t\t// Make sure the staked content owner is the same as the sender\n\t\trequire (_stakedContent.stakeOwner == msg.sender);\n\t\t// Make sure the staked content is currently active (staked) with some amounts\n\t\trequire (_stakedContent.active == true && (_stakedContent.denominationAmount > 0 || _stakedContent.icoTokenAmount > 0));\n\n\t\t_stakedContent.active = false;\n\n\t\t// Refund the staked normal ERC20 tokens to the stake owner\n\t\tif (_stakedContent.denominationAmount > 0) {\n\t\t\tuint256 _denominationAmount = _stakedContent.denominationAmount;\n\t\t\tbytes8 _denomination = _stakedContent.denomination;\n\n\t\t\t// Clear the denomination amount\n\t\t\t_stakedContent.denominationAmount = 0;\n\t\t\t_stakedContent.denomination = '';\n\n\t\t\tAOToken _denominationToken = AOToken(_treasury.denominations(_denomination));\n\t\t\trequire (_denominationToken.unstakeFrom(msg.sender, _denominationAmount));\n\t\t}\n\n\t\t// Refund the staked ICO tokens to the stake owner\n\t\tif (_stakedContent.icoTokenAmount > 0) {\n\t\t\tuint256 _icoTokenAmount = _stakedContent.icoTokenAmount;\n\t\t\tuint256 _icoTokenWeightedIndex = _stakedContent.icoTokenWeightedIndex;\n\n\t\t\t// Clear the ico token amount and the weighted index\n\t\t\t_stakedContent.icoTokenAmount = 0;\n\t\t\t_stakedContent.icoTokenWeightedIndex = 0;\n\n\t\t\tAOToken _icoToken = AOToken(_treasury.denominations(_treasury.BASE_DENOMINATION()));\n\t\t\trequire (_icoToken.unstakeIcoTokenFrom(msg.sender, _icoTokenAmount, _icoTokenWeightedIndex));\n\t\t}\n\n\t\temit UnstakeContent(msg.sender, _stakeId);\n\t}\n\n\t/**\n\t * @dev Unstake existing staked content and refund partial staked amount to the stake owner\n\t *\t\tUse unstakeContent() to unstake all staked token amount. unstakePartialContent() can unstake only up to\n\t *\t\tthe mininum required to cover the fileSize\n\t * @param _stakeId The ID of the staked content\n\t * @param _denominationAmount The amount of normal ERC20 AO token to unstake\n\t * @param _icoTokenAmount The amount of ICO AO token to unstake\n\t */\n\tfunction unstakePartialContent(bytes32 _stakeId, uint256 _denominationAmount, uint256 _icoTokenAmount) public isActive {\n\t\t// Make sure the staked content exist\n\t\trequire (stakedContentIndex[_stakeId] > 0);\n\t\trequire (_denominationAmount > 0 || _icoTokenAmount > 0);\n\n\t\tStakedContent storage _stakedContent = stakedContents[stakedContentIndex[_stakeId]];\n\t\t// Make sure the staked content owner is the same as the sender\n\t\trequire (_stakedContent.stakeOwner == msg.sender);\n\t\t// Make sure the staked content is currently active (staked) with some amounts\n\t\trequire (_stakedContent.active == true && (_stakedContent.denominationAmount > 0 || _stakedContent.icoTokenAmount > 0));\n\t\t// Make sure the staked content has enough balance to unstake\n\t\trequire (_stakedContent.denominationAmount >= _denominationAmount && _stakedContent.icoTokenAmount >= _icoTokenAmount);\n\t\t// Make sure the minimum required staked amount can cover the content file size\n\t\trequire ((_stakedContent.denominationAmount.sub(_denominationAmount)).add(_stakedContent.icoTokenAmount.sub(_icoTokenAmount)) >= _stakedContent.fileSize);\n\n\t\t// Refund `_denominationAmount` of normal ERC20 tokens to the stake owner\n\t\tif (_denominationAmount > 0) {\n\t\t\t_stakedContent.denominationAmount = _stakedContent.denominationAmount.sub(_denominationAmount);\n\n\t\t\tAOToken _denominationToken = AOToken(_treasury.denominations(_stakedContent.denomination));\n\t\t\trequire (_denominationToken.unstakeFrom(msg.sender, _denominationAmount));\n\t\t}\n\n\t\t// Refund `_icoTokenAmount` of staked ICO tokens to the stake owner\n\t\tif (_icoTokenAmount > 0) {\n\t\t\t_stakedContent.icoTokenAmount = _stakedContent.icoTokenAmount.sub(_icoTokenAmount);\n\t\t\tAOToken _icoToken = AOToken(_treasury.denominations(_treasury.BASE_DENOMINATION()));\n\t\t\trequire (_icoToken.unstakeIcoTokenFrom(msg.sender, _icoTokenAmount, _stakedContent.icoTokenWeightedIndex));\n\t\t}\n\n\t\temit UnstakePartialContent(msg.sender, _stakeId, _stakedContent.denominationAmount, _stakedContent.denomination, _stakedContent.icoTokenAmount, _stakedContent.icoTokenWeightedIndex);\n\t}\n\n\t/**\n\t * @dev Stake existing content\n\t *\t\tIf the existing staked content's denomination is not set, then we are going to use the `_denomination` passed in the params.\n\t *\t\tOtherwise, we use the denomination from existing existing staked content.\n\t *\n\t * @param _stakeId The ID of the staked content\n\t * @param _denominationAmount The amount of normal ERC20 token to stake\n\t * @param _denomination The denomination of the normal ERC20 token, i.e ao, kilo, mega, etc.\n\t * @param _icoTokenAmount The amount of ICO Token to stake\n\t */\n\tfunction stakeExistingContent(bytes32 _stakeId, uint256 _denominationAmount, bytes8 _denomination, uint256 _icoTokenAmount) public isActive {\n\t\t// Make sure the staked content exist\n\t\trequire (stakedContentIndex[_stakeId] > 0);\n\t\trequire (_denominationAmount > 0 || _icoTokenAmount > 0);\n\n\t\tStakedContent storage _stakedContent = stakedContents[stakedContentIndex[_stakeId]];\n\t\t// Make sure the staked content owner is the same as the sender\n\t\trequire (_stakedContent.stakeOwner == msg.sender);\n\n\t\t// Make sure the `_denomination` is valid\n\t\t// If we are currently staking an active staked content, then the `_denomination` has to match `_stakedContent.denomination`\n\t\t// i.e, can't replace existing denomination with a new one\n\t\tif (_denominationAmount > 0 && _denomination.length > 0 && _stakedContent.active && _stakedContent.denominationAmount > 0 && _stakedContent.denomination.length > 0) {\n\t\t\trequire (_denomination == _stakedContent.denomination);\n\t\t}\n\n\t\t// Make sure we can stake ICO token\n\t\t// If we are currently staking an active staked content, then the stake owner's weighted index has to match `stakedContent.icoTokenWeightedIndex`\n\t\t// i.e, can't use a combination of different weighted index. Stake owner has to call unstakeContent() to unstake all tokens first\n\t\t// ICO Token is the base AO Token\n\t\tAOToken _icoToken = AOToken(_treasury.denominations(_treasury.BASE_DENOMINATION()));\n\t\tif (_icoTokenAmount > 0 && _stakedContent.active && _stakedContent.icoTokenAmount > 0) {\n\t\t\trequire (_icoToken.weightedIndexByAddress(msg.sender) == _stakedContent.icoTokenWeightedIndex);\n\t\t}\n\n\t\t// Make sure the staked token amount can cover the fileSize\n\t\trequire (_stakedContent.denominationAmount.add(_denominationAmount).add(_stakedContent.icoTokenAmount).add(_icoTokenAmount) >= _stakedContent.fileSize);\n\n\t\tif (_denominationAmount > 0) {\n\t\t\t// Make sure the _denomination is in the available list\n\t\t\trequire (_treasury.denominations(_denomination) != address(0));\n\n\t\t\t_stakedContent.denominationAmount = _stakedContent.denominationAmount.add(_denominationAmount);\n\t\t\t_stakedContent.denomination = _denomination;\n\n\t\t\tAOToken _denominationToken = AOToken(_treasury.denominations(_denomination));\n\t\t\trequire (_denominationToken.stakeFrom(msg.sender, _denominationAmount));\n\t\t}\n\t\tif (_icoTokenAmount > 0) {\n\t\t\t_stakedContent.icoTokenAmount = _stakedContent.icoTokenAmount.add(_icoTokenAmount);\n\t\t\t_stakedContent.icoTokenWeightedIndex = _icoToken.weightedIndexByAddress(msg.sender);\n\t\t\trequire (_icoToken.stakeIcoTokenFrom(msg.sender, _icoTokenAmount, _stakedContent.icoTokenWeightedIndex));\n\t\t}\n\t\t_stakedContent.active = true;\n\t\temit StakeExistingContent(msg.sender, _stakeId, _stakedContent.denominationAmount, _stakedContent.denomination, _stakedContent.icoTokenAmount, _stakedContent.icoTokenWeightedIndex);\n\t}\n\n\t/**\n\t * @dev Return staked content information at a given ID\n\t * @param _stakeId The ID of the staked content\n\t * @return address of the staked content's owner\n\t * @return the denomination amount staked for this content\n\t * @return the token denomination of the staked content\n\t * @return the ICO token amount staked for this content\n\t * @return the ICO token weighted index of the staked content\n\t * @return the dat key of the content\n\t * @return the file size of the content\n\t * @return the profit percentage of the content\n\t * @return status of the staked content\n\t * @return the timestamp when the staked content was created\n\t */\n\tfunction stakedContentById(bytes32 _stakeId) public view returns (address, uint256, bytes8, uint256, uint256, string, uint256, uint256, bool, uint256) {\n\t\t// Make sure the staked content exist\n\t\trequire (stakedContentIndex[_stakeId] > 0);\n\n\t\tStakedContent memory _stakedContent = stakedContents[stakedContentIndex[_stakeId]];\n\t\treturn (\n\t\t\t_stakedContent.stakeOwner,\n\t\t\t_stakedContent.denominationAmount,\n\t\t\t_stakedContent.denomination,\n\t\t\t_stakedContent.icoTokenAmount,\n\t\t\t_stakedContent.icoTokenWeightedIndex,\n\t\t\t_stakedContent.datKey,\n\t\t\t_stakedContent.fileSize,\n\t\t\t_stakedContent.profitPercentage,\n\t\t\t_stakedContent.active,\n\t\t\t_stakedContent.createdOnTimestamp\n\t\t);\n\t}\n\n\t/**\n\t * @dev Buy existing content\n\t * @param _stakeId The ID of the staked content\n\t * @param _host The host address of the content\n\t * @param _denominationAmount The amount of normal ERC20 token to spend\n\t * @param _denomination The denomination of the normal ERC20 token, i.e ao, kilo, mega, etc.\n\t * @param _icoTokenAmount The amount of ICO Token to spend\n\t */\n\tfunction buyContent(bytes32 _stakeId, address _host, uint256 _denominationAmount, bytes8 _denomination, uint256 _icoTokenAmount) public isActive {\n\t\t// Make sure the staked content exist\n\t\trequire (stakedContentIndex[_stakeId] > 0);\n\t\t// Make sure buyer has not bought this content previously\n\t\trequire (buyerOwnedStakeId[msg.sender][_stakeId].length == 0);\n\t\trequire (_denominationAmount > 0 || _icoTokenAmount > 0);\n\n\t\tStakedContent memory _stakedContent = stakedContents[stakedContentIndex[_stakeId]];\n\n\t\t// Make sure the token amount can pay for the content price\n\t\trequire (_denominationAmount.add(_icoTokenAmount) >= _stakedContent.denominationAmount.add(_stakedContent.icoTokenAmount));\n\n\t\t// _host has to be either the stake owner (content creator) or someone who has purchased the content previously\n\t\trequire (_host == _stakedContent.stakeOwner || buyerOwnedStakeId[_host][_stakeId].length > 0);\n\n\t\t// Increment totalBoughtContents;\n\t\ttotalBoughtContents++;\n\n\t\t// Generate buyId\n\t\tbytes32 _buyId = keccak256(abi.encodePacked(this, msg.sender, totalBoughtContents, _stakeId));\n\n\t\tBoughtContent storage _boughtContent = boughtContents[totalBoughtContents];\n\t\t_boughtContent.buyId = _buyId;\n\t\t_boughtContent.stakeId = _stakeId;\n\t\t_boughtContent.buyer = msg.sender;\n\t\t_boughtContent.host = _host;\n\t\t_boughtContent.createdOnTimestamp = now;\n\n\t\tboughtContentIndex[_buyId] = totalBoughtContents;\n\t\tbuyerOwnedStakeId[msg.sender][_stakeId] = _buyId;\n\n\t\tif (_denominationAmount > 0) {\n\t\t\t_rewardBuyContentNetworkEarning(msg.sender, _stakedContent.stakeOwner, _host, _buyId, _stakeId, _denominationAmount, _denomination, _stakedContent.profitPercentage);\n\t\t}\n\t\tif (_icoTokenAmount > 0) {\n\t\t\t_rewardBuyContentPrimordialEarning(msg.sender, _stakedContent.stakeOwner, _host, _buyId, _stakeId, _icoTokenAmount, _stakedContent.profitPercentage);\n\t\t}\n\n\t\t// TODO:\n\t\t// Mint network token and reward Foundation, stake owner and host accordingly\n\n\t\temit BuyContent(msg.sender, _buyId, _stakeId, _host, _denominationAmount, _denomination, _icoTokenAmount, _boughtContent.icoTokenWeightedIndex);\n\t}\n\n\t/***** INTERNAL METHODS *****/\n\tfunction _rewardBuyContentNetworkEarning(address _sender, address _stakeOwner, address _host, bytes32 _buyId, bytes32 _stakeId, uint256 _denominationAmount, bytes8 _denomination, uint256 _profitPercentage) internal {\n\t\t// Make sure the _denomination is in the available list\n\t\trequire (_treasury.denominations(_denomination) != address(0));\n\n\t\tBoughtContent storage _boughtContent = boughtContents[boughtContentIndex[_buyId]];\n\n\t\t_boughtContent.denominationAmount = _denominationAmount;\n\t\t_boughtContent.denomination = _denomination;\n\n\t\tAOToken _denominationToken = AOToken(_treasury.denominations(_denomination));\n\n\t\t// Transfer the profit percentage to stake owner\n\t\tuint256 _contentCreatorProfit = (_denominationAmount.mul(_profitPercentage)).div(PERCENTAGE_DIVISOR);\n\t\trequire (_denominationToken.whitelistTransferFrom(_sender, _stakeOwner, _contentCreatorProfit));\n\t\temit BuyContentNetworkTokenEarning(_stakeOwner, _sender, _buyId, _stakeId, _contentCreatorProfit, _denomination, _profitPercentage, 0);\n\n\t\t// Transfer the profit difference to _host\n\t\trequire (_denominationToken.whitelistTransferFrom(_sender, _host, _denominationAmount.sub(_contentCreatorProfit)));\n\t\temit BuyContentNetworkTokenEarning(_host, _sender, _buyId, _stakeId, _denominationAmount.sub(_contentCreatorProfit), _denomination, PERCENTAGE_DIVISOR.sub(_profitPercentage), 1);\n\t}\n\n\tfunction _rewardBuyContentPrimordialEarning(address _sender, address _stakeOwner, address _host, bytes32 _buyId, bytes32 _stakeId, uint256 _icoTokenAmount, uint256 _profitPercentage) internal {\n\t\tBoughtContent storage _boughtContent = boughtContents[boughtContentIndex[_buyId]];\n\n\t\t_boughtContent.icoTokenAmount = _icoTokenAmount;\n\n\t\t// ICO Token is the base AO Token\n\t\tAOToken _icoToken = AOToken(_treasury.denominations(_treasury.BASE_DENOMINATION()));\n\t\t_boughtContent.icoTokenWeightedIndex = _icoToken.weightedIndexByAddress(_sender);\n\n\t\t// Transfer the profit percentage to stake owner\n\t\tuint256 _contentCreatorIcoProfit = (_icoTokenAmount.mul(_profitPercentage)).div(PERCENTAGE_DIVISOR);\n\t\trequire (_icoToken.whitelistTransferIcoTokenFrom(_sender, _stakeOwner, _contentCreatorIcoProfit));\n\t\temit BuyContentPrimordialTokenEarning(_stakeOwner, _sender, _buyId, _stakeId, _contentCreatorIcoProfit, _boughtContent.icoTokenWeightedIndex, _profitPercentage, 0);\n\n\t\t// Transfer the profit difference to _host\n\t\trequire (_icoToken.whitelistTransferIcoTokenFrom(_sender, _host, _icoTokenAmount.sub(_contentCreatorIcoProfit)));\n\t\temit BuyContentPrimordialTokenEarning(_host, _sender, _buyId, _stakeId, _icoTokenAmount.sub(_contentCreatorIcoProfit), _boughtContent.icoTokenWeightedIndex, PERCENTAGE_DIVISOR.sub(_profitPercentage), 1);\n\t}\n}\n",
	"sourcePath": "/home/jmulyono/ao-contracts/contracts/AOContent.sol",
	"compiler": {
		"name": "solc",
		"version": "0.4.24+commit.e67f0147.Emscripten.clang"
	},
	"schemaVersion": "1.0.1",
	"updatedAt": "2018-08-01T15:02:07.618Z"
}