{
	"contractName": "AOEarning",
	"abi": [
		{
			"constant": true,
			"inputs": [],
			"name": "totalFoundationEarning",
			"outputs": [
				{
					"name": "",
					"type": "uint256"
				}
			],
			"payable": false,
			"stateMutability": "view",
			"type": "function"
		},
		{
			"constant": true,
			"inputs": [],
			"name": "killed",
			"outputs": [
				{
					"name": "",
					"type": "bool"
				}
			],
			"payable": false,
			"stateMutability": "view",
			"type": "function"
		},
		{
			"constant": true,
			"inputs": [],
			"name": "multiplierModifier",
			"outputs": [
				{
					"name": "",
					"type": "uint256"
				}
			],
			"payable": false,
			"stateMutability": "view",
			"type": "function"
		},
		{
			"constant": true,
			"inputs": [],
			"name": "inflationRate",
			"outputs": [
				{
					"name": "",
					"type": "uint256"
				}
			],
			"payable": false,
			"stateMutability": "view",
			"type": "function"
		},
		{
			"constant": true,
			"inputs": [
				{
					"name": "",
					"type": "bytes32"
				}
			],
			"name": "foundationEarnings",
			"outputs": [
				{
					"name": "purchaseId",
					"type": "bytes32"
				},
				{
					"name": "paymentEarning",
					"type": "uint256"
				},
				{
					"name": "inflationBonus",
					"type": "uint256"
				}
			],
			"payable": false,
			"stateMutability": "view",
			"type": "function"
		},
		{
			"constant": true,
			"inputs": [
				{
					"name": "",
					"type": "address"
				}
			],
			"name": "hostContentEarning",
			"outputs": [
				{
					"name": "",
					"type": "uint256"
				}
			],
			"payable": false,
			"stateMutability": "view",
			"type": "function"
		},
		{
			"constant": true,
			"inputs": [],
			"name": "foundationCut",
			"outputs": [
				{
					"name": "",
					"type": "uint256"
				}
			],
			"payable": false,
			"stateMutability": "view",
			"type": "function"
		},
		{
			"constant": true,
			"inputs": [],
			"name": "WEIGHTED_INDEX_DIVISOR",
			"outputs": [
				{
					"name": "",
					"type": "uint256"
				}
			],
			"payable": false,
			"stateMutability": "view",
			"type": "function"
		},
		{
			"constant": false,
			"inputs": [
				{
					"name": "_account",
					"type": "address"
				},
				{
					"name": "_whitelist",
					"type": "bool"
				}
			],
			"name": "setWhitelist",
			"outputs": [],
			"payable": false,
			"stateMutability": "nonpayable",
			"type": "function"
		},
		{
			"constant": true,
			"inputs": [
				{
					"name": "",
					"type": "address"
				}
			],
			"name": "networkPriceEarning",
			"outputs": [
				{
					"name": "",
					"type": "uint256"
				}
			],
			"payable": false,
			"stateMutability": "view",
			"type": "function"
		},
		{
			"constant": true,
			"inputs": [],
			"name": "paused",
			"outputs": [
				{
					"name": "",
					"type": "bool"
				}
			],
			"payable": false,
			"stateMutability": "view",
			"type": "function"
		},
		{
			"constant": true,
			"inputs": [
				{
					"name": "",
					"type": "address"
				},
				{
					"name": "",
					"type": "bytes32"
				}
			],
			"name": "hostEarnings",
			"outputs": [
				{
					"name": "purchaseId",
					"type": "bytes32"
				},
				{
					"name": "paymentEarning",
					"type": "uint256"
				},
				{
					"name": "inflationBonus",
					"type": "uint256"
				}
			],
			"payable": false,
			"stateMutability": "view",
			"type": "function"
		},
		{
			"constant": true,
			"inputs": [
				{
					"name": "",
					"type": "bytes32"
				}
			],
			"name": "totalStakedContentStakeEarning",
			"outputs": [
				{
					"name": "",
					"type": "uint256"
				}
			],
			"payable": false,
			"stateMutability": "view",
			"type": "function"
		},
		{
			"constant": true,
			"inputs": [
				{
					"name": "",
					"type": "address"
				}
			],
			"name": "whitelist",
			"outputs": [
				{
					"name": "",
					"type": "bool"
				}
			],
			"payable": false,
			"stateMutability": "view",
			"type": "function"
		},
		{
			"constant": true,
			"inputs": [
				{
					"name": "",
					"type": "address"
				}
			],
			"name": "contentPriceEarning",
			"outputs": [
				{
					"name": "",
					"type": "uint256"
				}
			],
			"payable": false,
			"stateMutability": "view",
			"type": "function"
		},
		{
			"constant": true,
			"inputs": [
				{
					"name": "",
					"type": "address"
				}
			],
			"name": "inflationBonusAccrued",
			"outputs": [
				{
					"name": "",
					"type": "uint256"
				}
			],
			"payable": false,
			"stateMutability": "view",
			"type": "function"
		},
		{
			"constant": true,
			"inputs": [
				{
					"name": "",
					"type": "bytes32"
				}
			],
			"name": "totalStakedContentHostEarning",
			"outputs": [
				{
					"name": "",
					"type": "uint256"
				}
			],
			"payable": false,
			"stateMutability": "view",
			"type": "function"
		},
		{
			"constant": true,
			"inputs": [
				{
					"name": "",
					"type": "address"
				}
			],
			"name": "stakeContentEarning",
			"outputs": [
				{
					"name": "",
					"type": "uint256"
				}
			],
			"payable": false,
			"stateMutability": "view",
			"type": "function"
		},
		{
			"constant": true,
			"inputs": [],
			"name": "baseDenominationAddress",
			"outputs": [
				{
					"name": "",
					"type": "address"
				}
			],
			"payable": false,
			"stateMutability": "view",
			"type": "function"
		},
		{
			"constant": true,
			"inputs": [],
			"name": "treasuryAddress",
			"outputs": [
				{
					"name": "",
					"type": "address"
				}
			],
			"payable": false,
			"stateMutability": "view",
			"type": "function"
		},
		{
			"constant": true,
			"inputs": [],
			"name": "developer",
			"outputs": [
				{
					"name": "",
					"type": "address"
				}
			],
			"payable": false,
			"stateMutability": "view",
			"type": "function"
		},
		{
			"constant": true,
			"inputs": [],
			"name": "PERCENTAGE_DIVISOR",
			"outputs": [
				{
					"name": "",
					"type": "uint256"
				}
			],
			"payable": false,
			"stateMutability": "view",
			"type": "function"
		},
		{
			"constant": true,
			"inputs": [],
			"name": "totalHostContentEarning",
			"outputs": [
				{
					"name": "",
					"type": "uint256"
				}
			],
			"payable": false,
			"stateMutability": "view",
			"type": "function"
		},
		{
			"constant": true,
			"inputs": [
				{
					"name": "",
					"type": "bytes32"
				}
			],
			"name": "totalStakedContentFoundationEarning",
			"outputs": [
				{
					"name": "",
					"type": "uint256"
				}
			],
			"payable": false,
			"stateMutability": "view",
			"type": "function"
		},
		{
			"constant": true,
			"inputs": [
				{
					"name": "",
					"type": "address"
				},
				{
					"name": "",
					"type": "bytes32"
				}
			],
			"name": "stakeEarnings",
			"outputs": [
				{
					"name": "purchaseId",
					"type": "bytes32"
				},
				{
					"name": "paymentEarning",
					"type": "uint256"
				},
				{
					"name": "inflationBonus",
					"type": "uint256"
				}
			],
			"payable": false,
			"stateMutability": "view",
			"type": "function"
		},
		{
			"constant": true,
			"inputs": [],
			"name": "totalStakeContentEarning",
			"outputs": [
				{
					"name": "",
					"type": "uint256"
				}
			],
			"payable": false,
			"stateMutability": "view",
			"type": "function"
		},
		{
			"constant": false,
			"inputs": [
				{
					"name": "newDeveloper",
					"type": "address"
				}
			],
			"name": "transferOwnership",
			"outputs": [],
			"payable": false,
			"stateMutability": "nonpayable",
			"type": "function"
		},
		{
			"inputs": [
				{
					"name": "_baseDenominationAddress",
					"type": "address"
				},
				{
					"name": "_treasuryAddress",
					"type": "address"
				}
			],
			"payable": false,
			"stateMutability": "nonpayable",
			"type": "constructor"
		},
		{
			"anonymous": false,
			"inputs": [
				{
					"indexed": true,
					"name": "recipient",
					"type": "address"
				},
				{
					"indexed": false,
					"name": "purchaseId",
					"type": "bytes32"
				},
				{
					"indexed": false,
					"name": "totalInflationBonusAmount",
					"type": "uint256"
				},
				{
					"indexed": false,
					"name": "recipientProfitPercentage",
					"type": "uint256"
				},
				{
					"indexed": false,
					"name": "recipientInflationBonus",
					"type": "uint256"
				},
				{
					"indexed": false,
					"name": "recipientType",
					"type": "uint8"
				}
			],
			"name": "InflationBonusEscrowed",
			"type": "event"
		},
		{
			"anonymous": false,
			"inputs": [
				{
					"indexed": true,
					"name": "recipient",
					"type": "address"
				},
				{
					"indexed": false,
					"name": "purchaseId",
					"type": "bytes32"
				},
				{
					"indexed": false,
					"name": "totalPaymentAmount",
					"type": "uint256"
				},
				{
					"indexed": false,
					"name": "recipientProfitPercentage",
					"type": "uint256"
				},
				{
					"indexed": false,
					"name": "recipientPaymentEarning",
					"type": "uint256"
				},
				{
					"indexed": false,
					"name": "recipientType",
					"type": "uint8"
				}
			],
			"name": "PaymentEarningEscrowed",
			"type": "event"
		},
		{
			"anonymous": false,
			"inputs": [
				{
					"indexed": true,
					"name": "recipient",
					"type": "address"
				},
				{
					"indexed": false,
					"name": "purchaseId",
					"type": "bytes32"
				},
				{
					"indexed": false,
					"name": "paymentEarning",
					"type": "uint256"
				},
				{
					"indexed": false,
					"name": "inflationBonus",
					"type": "uint256"
				},
				{
					"indexed": false,
					"name": "recipientType",
					"type": "uint8"
				}
			],
			"name": "EarningUnescrowed",
			"type": "event"
		},
		{
			"anonymous": false,
			"inputs": [],
			"name": "EscapeHatch",
			"type": "event"
		},
		{
			"constant": false,
			"inputs": [
				{
					"name": "_paused",
					"type": "bool"
				}
			],
			"name": "setPaused",
			"outputs": [],
			"payable": false,
			"stateMutability": "nonpayable",
			"type": "function"
		},
		{
			"constant": false,
			"inputs": [
				{
					"name": "_newBaseDenominationAddress",
					"type": "address"
				}
			],
			"name": "setBaseDenominationAddress",
			"outputs": [],
			"payable": false,
			"stateMutability": "nonpayable",
			"type": "function"
		},
		{
			"constant": false,
			"inputs": [
				{
					"name": "_inflationRate",
					"type": "uint256"
				}
			],
			"name": "setInflationRate",
			"outputs": [],
			"payable": false,
			"stateMutability": "nonpayable",
			"type": "function"
		},
		{
			"constant": false,
			"inputs": [
				{
					"name": "_foundationCut",
					"type": "uint256"
				}
			],
			"name": "setFoundationCut",
			"outputs": [],
			"payable": false,
			"stateMutability": "nonpayable",
			"type": "function"
		},
		{
			"constant": false,
			"inputs": [
				{
					"name": "_multiplierModifier",
					"type": "uint256"
				}
			],
			"name": "setMultiplierModifier",
			"outputs": [],
			"payable": false,
			"stateMutability": "nonpayable",
			"type": "function"
		},
		{
			"constant": false,
			"inputs": [],
			"name": "escapeHatch",
			"outputs": [],
			"payable": false,
			"stateMutability": "nonpayable",
			"type": "function"
		},
		{
			"constant": false,
			"inputs": [
				{
					"name": "_buyer",
					"type": "address"
				},
				{
					"name": "_purchaseId",
					"type": "bytes32"
				},
				{
					"name": "_networkAmountStaked",
					"type": "uint256"
				},
				{
					"name": "_primordialAmountStaked",
					"type": "uint256"
				},
				{
					"name": "_primordialWeightedIndexStaked",
					"type": "uint256"
				},
				{
					"name": "_profitPercentage",
					"type": "uint256"
				},
				{
					"name": "_stakeOwner",
					"type": "address"
				},
				{
					"name": "_host",
					"type": "address"
				}
			],
			"name": "calculateEarning",
			"outputs": [
				{
					"name": "",
					"type": "bool"
				}
			],
			"payable": false,
			"stateMutability": "nonpayable",
			"type": "function"
		},
		{
			"constant": false,
			"inputs": [
				{
					"name": "_stakeId",
					"type": "bytes32"
				},
				{
					"name": "_purchaseId",
					"type": "bytes32"
				},
				{
					"name": "_buyerPaidAmount",
					"type": "uint256"
				},
				{
					"name": "_fileSize",
					"type": "uint256"
				},
				{
					"name": "_stakeOwner",
					"type": "address"
				},
				{
					"name": "_host",
					"type": "address"
				}
			],
			"name": "releaseEarning",
			"outputs": [
				{
					"name": "",
					"type": "bool"
				}
			],
			"payable": false,
			"stateMutability": "nonpayable",
			"type": "function"
		}
	],
	"bytecode": "0x608060405234801561001057600080fd5b50604051604080611bc283398101604052805160209091015160008054600160a060020a0319908116331790915560028054600160a060020a038086166201000081026201000060b060020a03199093169290921790925560038054928516928416831790556004805484169091179055600580549092161790556100a0620f42406401000000006100a7810204565b50506100e9565b3360008181526001602081905260409091205460ff16151514806100d85750600054600160a060020a038281169116145b15156100e357600080fd5b50600855565b611aca806100f86000396000f30060806040526004361061019d5763ffffffff60e060020a6000350416630292f88a81146101a2578063067fe001146101c55780630ab1af3b146101ec5780631554611f1461020457806316c38b3c146102195780631f3a0e4114610233578063269cad981461025c57806331f9e35b146102715780633a085fe5146102865780633bac2fac146102b957806341f7e8dc146102ef57806343f8013d1461031057806350d400e51461032557806353d6fd591461033a578063552318e0146103605780635c975abb146103815780636834a857146103965780639587085d146103ba5780639b19251a146103d2578063a7a5f773146103f3578063a832ebda14610414578063aace426d14610435578063b1551b951461044d578063b7f125d614610465578063bfeacddb146104a6578063c44a0795146104c7578063c5f956af146104f8578063ca4b208b1461050d578063caf2976514610325578063cba17a2b14610522578063e957a85b14610537578063e9f4529d1461054f578063edac5f4414610573578063f2fde38b14610588578063f3d3aaa8146105a9575b600080fd5b3480156101ae57600080fd5b506101c3600160a060020a03600435166105c1565b005b3480156101d157600080fd5b506101da610727565b60408051918252519081900360200190f35b3480156101f857600080fd5b506101c360043561072d565b34801561021057600080fd5b506101c361077f565b34801561022557600080fd5b506101c360043515156107e5565b34801561023f57600080fd5b5061024861080f565b604080519115158252519081900360200190f35b34801561026857600080fd5b506101da61081d565b34801561027d57600080fd5b506101da610823565b34801561029257600080fd5b50610248600435602435604435606435600160a060020a0360843581169060a43516610829565b3480156102c557600080fd5b506102d16004356108d9565b60408051938452602084019290925282820152519081900360600190f35b3480156102fb57600080fd5b506101da600160a060020a03600435166108fa565b34801561031c57600080fd5b506101da61090c565b34801561033157600080fd5b506101da610912565b34801561034657600080fd5b506101c3600160a060020a03600435166024351515610919565b34801561036c57600080fd5b506101da600160a060020a036004351661095b565b34801561038d57600080fd5b5061024861096d565b3480156103a257600080fd5b506102d1600160a060020a0360043516602435610976565b3480156103c657600080fd5b506101da6004356109a2565b3480156103de57600080fd5b50610248600160a060020a03600435166109b4565b3480156103ff57600080fd5b506101da600160a060020a03600435166109c9565b34801561042057600080fd5b506101da600160a060020a03600435166109db565b34801561044157600080fd5b506101da6004356109ed565b34801561045957600080fd5b506101c36004356109ff565b34801561047157600080fd5b50610248600160a060020a036004358116906024359060443590606435906084359060a4359060c43581169060e43516610a41565b3480156104b257600080fd5b506101da600160a060020a0360043516610aea565b3480156104d357600080fd5b506104dc610afc565b60408051600160a060020a039092168252519081900360200190f35b34801561050457600080fd5b506104dc610b11565b34801561051957600080fd5b506104dc610b20565b34801561052e57600080fd5b506101da610b2f565b34801561054357600080fd5b506101da600435610b35565b34801561055b57600080fd5b506102d1600160a060020a0360043516602435610b47565b34801561057f57600080fd5b506101da610b73565b34801561059457600080fd5b506101c3600160a060020a0360043516610b79565b3480156105b557600080fd5b506101c3600435610bbf565b600054600160a060020a031633146105d857600080fd5b80600160a060020a0316630aa245466040518163ffffffff1660e060020a028152600401602060405180830381600087803b15801561061657600080fd5b505af115801561062a573d6000803e3d6000fd5b505050506040513d602081101561064057600080fd5b50511580156106ba575080600160a060020a031663ba2f81706040518163ffffffff1660e060020a028152600401602060405180830381600087803b15801561068857600080fd5b505af115801561069c573d6000803e3d6000fd5b505050506040513d60208110156106b257600080fd5b505115156001145b15156106c557600080fd5b6002805475ffffffffffffffffffffffffffffffffffffffff0000191662010000600160a060020a0393841681029190911791829055600480549190920490921673ffffffffffffffffffffffffffffffffffffffff19909216919091179055565b600b5481565b3360008181526001602081905260409091205460ff161515148061075e5750600054600160a060020a038281169116145b151561076957600080fd5b620f424082111561077957600080fd5b50600755565b600054600160a060020a0316331461079657600080fd5b600254610100900460ff16156107ab57600080fd5b6002805461ff0019166101001790556040517f16ed36fbe43aed6ba7426b24d35620696380d398f2f22f918dd74e4d3e0ceef990600090a1565b600054600160a060020a031633146107fc57600080fd5b6002805460ff1916911515919091179055565b600254610100900460ff1681565b60085481565b60065481565b60025460009060ff161580156108475750600254610100900460ff16155b151561085257600080fd5b3360008181526001602081905260409091205460ff16151514806108835750600054600160a060020a038281169116145b151561088e57600080fd5b61089d88888888886000610c01565b6108ac88888888876001610c01565b6000546108cb908990899089908990600160a060020a03166002610c01565b506001979650505050505050565b60136020526000908152604090208054600182015460029092015490919083565b600d6020526000908152604090205481565b60075481565b620f424081565b600054600160a060020a0316331461093057600080fd5b600160a060020a03919091166000908152600160205260409020805460ff1916911515919091179055565b600e6020526000908152604090205481565b60025460ff1681565b601260209081526000928352604080842090915290825290208054600182015460029092015490919083565b60146020526000908152604090205481565b60016020526000908152604090205460ff1681565b600f6020526000908152604090205481565b60106020526000908152604090205481565b60156020526000908152604090205481565b3360008181526001602081905260409091205460ff1615151480610a305750600054600160a060020a038281169116145b1515610a3b57600080fd5b50600655565b60025460009060ff16158015610a5f5750600254610100900460ff16155b1515610a6a57600080fd5b3360008181526001602081905260409091205460ff1615151480610a9b5750600054600160a060020a038281169116145b1515610aa657600080fd5b610ac38a8a610abb8b8b63ffffffff6110cd16565b8888886110e0565b610ada89610ad28a8a8a6113f6565b878787611475565b5060019998505050505050505050565b600c6020526000908152604090205481565b600254620100009004600160a060020a031681565b600354600160a060020a031681565b600054600160a060020a031681565b600a5481565b60166020526000908152604090205481565b601160209081526000928352604080842090915290825290208054600182015460029092015490919083565b60095481565b600054600160a060020a03163314610b9057600080fd5b6000805473ffffffffffffffffffffffffffffffffffffffff1916600160a060020a0392909216919091179055565b3360008181526001602081905260409091205460ff1615151480610bf05750600054600160a060020a038281169116145b1515610bfb57600080fd5b50600855565b60008060008060008060008760ff1610158015610c22575060028760ff1611155b1515610c2d57600080fd5b60ff87161515610de857600160a060020a03881660009081526011602090815260408083208e8452909152812060018101805460028301805492859055939093559197509095509250610c86868663ffffffff6110cd16565b600954909450610c9c908563ffffffff6110cd16565b600955600160a060020a0388166000908152600c6020526040902054610cc8908563ffffffff6110cd16565b600160a060020a0389166000908152600c60209081526040808320939093558e8252601490522054610d00908563ffffffff6110cd16565b60008d815260146020526040902055888a1115610d5e57600160a060020a0388166000908152600f6020526040902054610d40908563ffffffff6110cd16565b600160a060020a0389166000908152600f6020526040902055610da1565b600160a060020a0388166000908152600e6020526040902054610d87908563ffffffff6110cd16565b600160a060020a0389166000908152600e60205260409020555b600160a060020a038816600090815260106020526040902054610dca908663ffffffff6110cd16565b600160a060020a038916600090815260106020526040902055610fc0565b8660ff1660011415610efd57600160a060020a03881660009081526012602090815260408083208e8452909152812060018101805460028301805492859055939093559197509095509150610e43868663ffffffff6110cd16565b600a54909450610e59908563ffffffff6110cd16565b600a55600160a060020a0388166000908152600d6020526040902054610e85908563ffffffff6110cd16565b600160a060020a0389166000908152600d60209081526040808320939093558e8252601590522054610ebd908563ffffffff6110cd16565b60008d815260156020526040902055888a1115610d5e57600160a060020a0388166000908152600f6020526040902054610d40908563ffffffff6110cd16565b5060008a81526013602052604081206001810180546002830180549285905593909355919650909450610f36868663ffffffff6110cd16565b600b54909450610f4c908563ffffffff6110cd16565b600b55600160a060020a038816600090815260106020526040902054610f78908663ffffffff6110cd16565b600160a060020a0389166000908152601060209081526040808320939093558e8252601690522054610fb0908563ffffffff6110cd16565b60008d8152601660205260409020555b60048054604080517f8a066045000000000000000000000000000000000000000000000000000000008152600160a060020a038c8116948201949094526024810188905290519290911691638a066045916044808201926020929091908290030181600087803b15801561103357600080fd5b505af1158015611047573d6000803e3d6000fd5b505050506040513d602081101561105d57600080fd5b5051151561106a57600080fd5b604080518c81526020810188905280820187905260ff891660608201529051600160a060020a038a16917f212de36dcbb73c749ef074ec2565ecd3e461ebb1d28ea6021effdb8be7d44cda919081900360800190a2505050505050505050505050565b818101828110156110da57fe5b92915050565b60008080611107620f42406110fb898963ffffffff61193416565b9063ffffffff61195d16565b92506011600086600160a060020a0316600160a060020a0316815260200190815260200160002060008960001916600019168152602001908152602001600020915087826000018160001916905550828260010181905550600460009054906101000a9004600160a060020a0316600160a060020a03166387d4ca938a8785600101546040518463ffffffff1660e060020a0281526004018084600160a060020a0316600160a060020a0316815260200183600160a060020a0316600160a060020a031681526020018281526020019350505050602060405180830381600087803b1580156111f557600080fd5b505af1158015611209573d6000803e3d6000fd5b505050506040513d602081101561121f57600080fd5b5051151561122c57600080fd5b6001820154604080518a8152602081018a905280820189905260608101929092526000608083015251600160a060020a038716917f2bc2599ff4713444a049b5e4a07d2cde6becf6e7fc7c4e041bc1cf36894f10ee919081900360a00190a250600160a060020a03831660009081526012602090815260408083208a845290915290208781556112c2878463ffffffff61197216565b6001820181905560048054604080517f87d4ca93000000000000000000000000000000000000000000000000000000008152600160a060020a038e81169482019490945288841660248201526044810194909452519116916387d4ca939160648083019260209291908290030181600087803b15801561134157600080fd5b505af1158015611355573d6000803e3d6000fd5b505050506040513d602081101561136b57600080fd5b5051151561137857600080fd5b600160a060020a0384167f2bc2599ff4713444a049b5e4a07d2cde6becf6e7fc7c4e041bc1cf36894f10ee89896113b8620f42408b63ffffffff61197216565b6001808701546040805195865260208601949094528484019290925260608401919091526080830152519081900360a00190a2505050505050505050565b600080600080611418620f42406110fb6006548a61193490919063ffffffff16565b925061142385611984565b9150611458620f42406110fb60065461144c620f42406110fb888d61193490919063ffffffff16565b9063ffffffff61193416565b905061146a838263ffffffff6110cd16565b979650505050505050565b60008060008060008811156118345761149b620f42406110fb8a8a63ffffffff61193416565b600160a060020a0380881660008181526011602090815260408083208f84528252808320600281018790556004805483517f23ceb6d800000000000000000000000000000000000000000000000000000000815291820196909652602481018890529151969a50985092909316936323ceb6d8936044808501949193918390030190829087803b15801561152e57600080fd5b505af1158015611542573d6000803e3d6000fd5b505050506040513d602081101561155857600080fd5b5051151561156557600080fd5b6002830154604080518b8152602081018b90528082018a905260608101929092526000608083015251600160a060020a03881691600080516020611a7f833981519152919081900360a00190a2600160a060020a03851660009081526012602090815260408083208c8452909152902091506115e7888563ffffffff61197216565b6002830181905560048054604080517f23ceb6d8000000000000000000000000000000000000000000000000000000008152600160a060020a038a8116948201949094526024810194909452519116916323ceb6d89160448083019260209291908290030181600087803b15801561165e57600080fd5b505af1158015611672573d6000803e3d6000fd5b505050506040513d602081101561168857600080fd5b5051151561169557600080fd5b600160a060020a038516600080516020611a7f8339815191528a8a6116c3620f42408c63ffffffff61197216565b600287015460408051948552602085019390935283830191909152606083015260016080830152519081900360a00190a250600088815260136020526040902088815560075461172390620f4240906110fb908b9063ffffffff61193416565b600282018190556004805460008054604080517f23ceb6d8000000000000000000000000000000000000000000000000000000008152600160a060020a03928316958101959095526024850195909552935193909116926323ceb6d8926044808201936020939283900390910190829087803b1580156117a257600080fd5b505af11580156117b6573d6000803e3d6000fd5b505050506040513d60208110156117cc57600080fd5b505115156117d957600080fd5b600054600754600280840154604080518e8152602081018e9052808201949094526060840191909152608083019190915251600160a060020a0390921691600080516020611a7f8339815191529181900360a00190a2611929565b604080518a81526000602082018190528183018a90526060820181905260808201529051600160a060020a03881691600080516020611a7f833981519152919081900360a00190a2600160a060020a038516600080516020611a7f8339815191528a60006118ab620f42408c63ffffffff61197216565b604080519384526020840192909252828201526000606083015260016080830152519081900360a00190a260008054600754604080518d815260208101859052808201929092526060820193909352600260808201529151600160a060020a0390911691600080516020611a7f833981519152919081900360a00190a25b505050505050505050565b6000821515611945575060006110da565b5081810281838281151561195557fe5b04146110da57fe5b6000818381151561196a57fe5b049392505050565b60008282111561197e57fe5b50900390565b6000806000611a1b620f4240600460009054906101000a9004600160a060020a0316600160a060020a031663ea67a1716040518163ffffffff1660e060020a028152600401602060405180830381600087803b1580156119e357600080fd5b505af11580156119f7573d6000803e3d6000fd5b505050506040513d6020811015611a0d57600080fd5b50519063ffffffff61193416565b915083821015611a2a57600080fd5b611a45826110fb620f424061144c838963ffffffff61197216565b9050611a76611a66620f42406110fb8460085461193490919063ffffffff16565b620f42409063ffffffff6110cd16565b9493505050505600df9b18b8b292e153b0dfff6e1d71024ca7486117e59c0bbaf074ad370deebd1ca165627a7a72305820548eac68b4c12612ce18c457b9b1fb85cb1b370571061fb4f22761b419b8e35b0029",
	"source": "pragma solidity ^0.4.24;\n\nimport './SafeMath.sol';\nimport './developed.sol';\nimport './AOToken.sol';\nimport './AOTreasury.sol';\n\n/**\n * @title AOEarning\n *\n * This contract stores the earning from staking/hosting content on AO\n */\ncontract AOEarning is developed {\n\tusing SafeMath for uint256;\n\n\tbool public paused;\n\tbool public killed;\n\n\taddress public baseDenominationAddress;\n\taddress public treasuryAddress;\n\n\tAOToken internal _baseAO;\n\tAOTreasury internal _treasury;\n\n\tuint256 public inflationRate; // support up to 4 decimals, i.e 12.3456% = 123456\n\tuint256 public foundationCut; // support up to 4 decimals, i.e 12.3456% = 123456\n\tuint256 public multiplierModifier; // support up to 2 decimals, 100 = 1\n\tuint256 constant public PERCENTAGE_DIVISOR = 10 ** 6; // 100% = 1000000\n\tuint256 constant public WEIGHTED_INDEX_DIVISOR = 10 ** 6; // 1000000 = 1\n\n\t// Total earning from staking content from all nodes\n\tuint256 public totalStakeContentEarning;\n\n\t// Total earning from hosting content from all nodes\n\tuint256 public totalHostContentEarning;\n\n\t// Total foundation earning\n\tuint256 public totalFoundationEarning;\n\n\t// Mapping from address to his/her earning from content that he/she staked\n\tmapping (address => uint256) public stakeContentEarning;\n\n\t// Mapping from address to his/her earning from content that he/she hosted\n\tmapping (address => uint256) public hostContentEarning;\n\n\t// Mapping from address to his/her network price earning\n\t// i.e, when staked amount = filesize\n\tmapping (address => uint256) public networkPriceEarning;\n\n\t// Mapping from address to his/her content price earning\n\t// i.e, when staked amount > filesize\n\tmapping (address => uint256) public contentPriceEarning;\n\n\t// Mapping from address to his/her inflation bonus\n\tmapping (address => uint256) public inflationBonusAccrued;\n\n\tstruct Earning {\n\t\tbytes32 purchaseId;\n\t\tuint256 paymentEarning;\n\t\tuint256 inflationBonus;\n\t}\n\n\t// Mapping from address to earning from staking content of a purchase ID\n\tmapping (address => mapping(bytes32 => Earning)) public stakeEarnings;\n\n\t// Mapping from address to earning from hosting content of a purchase ID\n\tmapping (address => mapping(bytes32 => Earning)) public hostEarnings;\n\n\t// Mapping from purchase ID to earning for Foundation\n\tmapping (bytes32 => Earning) public foundationEarnings;\n\n\t// Mapping from stake ID to it's total earning from staking\n\tmapping (bytes32 => uint256) public totalStakedContentStakeEarning;\n\n\t// Mapping from stake ID to it's total earning from hosting\n\tmapping (bytes32 => uint256) public totalStakedContentHostEarning;\n\n\t// Mapping from stake ID to it's total earning earned by Foundation\n\tmapping (bytes32 => uint256) public totalStakedContentFoundationEarning;\n\n\t// Event to be broadcasted to public when content creator/host/foundation earns inflation bonus in escrow when request node buys the content\n\t// recipientType:\n\t// 0 => Content Creator (Stake Owner)\n\t// 1 => Node Host\n\t// 2 => Foundation\n\tevent InflationBonusEscrowed(address indexed recipient, bytes32 purchaseId, uint256 totalInflationBonusAmount, uint256 recipientProfitPercentage, uint256 recipientInflationBonus, uint8 recipientType);\n\n\t// Event to be broadcasted to public when content creator/host earns the payment split in escrow when request node buys the content\n\t// recipientType:\n\t// 0 => Content Creator (Stake Owner)\n\t// 1 => Node Host\n\tevent PaymentEarningEscrowed(address indexed recipient, bytes32 purchaseId, uint256 totalPaymentAmount, uint256 recipientProfitPercentage, uint256 recipientPaymentEarning, uint8 recipientType);\n\n\t// Event to be broadcasted to public when content creator/host/foundation earning is released from escrow\n\t// recipientType:\n\t// 0 => Content Creator (Stake Owner)\n\t// 1 => Node Host\n\t// 2 => Foundation\n\tevent EarningUnescrowed(address indexed recipient, bytes32 purchaseId, uint256 paymentEarning, uint256 inflationBonus, uint8 recipientType);\n\n\t// Event to be broadcasted to public when emergency mode is triggered\n\tevent EscapeHatch();\n\n\t/**\n\t * @dev Constructor function\n\t * @param _baseDenominationAddress The address of AO base token\n\t * @param _treasuryAddress The address of AOTreasury\n\t */\n\tconstructor(address _baseDenominationAddress, address _treasuryAddress) public {\n\t\tbaseDenominationAddress = _baseDenominationAddress;\n\t\ttreasuryAddress = _treasuryAddress;\n\t\t_baseAO = AOToken(_baseDenominationAddress);\n\t\t_treasury = AOTreasury(_treasuryAddress);\n\t\tsetMultiplierModifier(1000000); // multiplierModifier = 1\n\t}\n\n\t/**\n\t * @dev Checks if contract is currently active\n\t */\n\tmodifier isActive {\n\t\trequire (paused == false && killed == false);\n\t\t_;\n\t}\n\n\t/***** DEVELOPER ONLY METHODS *****/\n\t/**\n\t * @dev Developer pauses/unpauses contract\n\t * @param _paused Either to pause contract or not\n\t */\n\tfunction setPaused(bool _paused) public onlyDeveloper {\n\t\tpaused = _paused;\n\t}\n\n\t/**\n\t * @dev Developer updates base denomination address\n\t * @param _newBaseDenominationAddress The new address\n\t */\n\tfunction setBaseDenominationAddress(address _newBaseDenominationAddress) public onlyDeveloper {\n\t\trequire (AOToken(_newBaseDenominationAddress).powerOfTen() == 0 && AOToken(_newBaseDenominationAddress).networkExchangeContract() == true);\n\t\tbaseDenominationAddress = _newBaseDenominationAddress;\n\t\t_baseAO = AOToken(baseDenominationAddress);\n\t}\n\n\t/**\n\t * @dev Sets inflation rate\n\t * @param _inflationRate The new inflation rate value to be set\n\t */\n\tfunction setInflationRate(uint256 _inflationRate) public inWhitelist(msg.sender) {\n\t\tinflationRate = _inflationRate;\n\t}\n\n\t/**\n\t * @dev Sets foundation cut\n\t * @param _foundationCut The new foundation cut value to be set\n\t */\n\tfunction setFoundationCut(uint256 _foundationCut) public inWhitelist(msg.sender) {\n\t\trequire (_foundationCut <= PERCENTAGE_DIVISOR);\n\t\tfoundationCut = _foundationCut;\n\t}\n\n\t/**\n\t * @dev Sets multiplier modifier\n\t * @param _multiplierModifier The new multiplier modifier value to be set (in 6 decimals)\n\t *\t\t\tso 1000000 = 1\n\t */\n\tfunction setMultiplierModifier(uint256 _multiplierModifier) public inWhitelist(msg.sender) {\n\t\tmultiplierModifier = _multiplierModifier;\n\t}\n\n\t/**\n\t * @dev Developer triggers emergency mode.\n\t *\n\t */\n\tfunction escapeHatch() public onlyDeveloper {\n\t\trequire (killed == false);\n\t\tkilled = true;\n\t\temit EscapeHatch();\n\t}\n\n\t/***** PUBLIC METHODS *****/\n\n\t/**\n\t * @dev Calculate the content creator/host/foundation earning when request node buys the content.\n\t *\t\tAlso at this stage, all of the earnings are stored in escrow\n\t * @param _buyer The request node address that buys the content\n\t * @param _purchaseId The ID of the purchase receipt object\n\t * @param _networkAmountStaked The amount of network tokens at stake\n\t * @param _primordialAmountStaked The amount of primordial tokens at stake\n\t * @param _primordialWeightedIndexStaked The weighted index of primordial tokens at stake\n\t * @param _profitPercentage The content creator's profit percentage\n\t * @param _stakeOwner The address of the stake owner\n\t * @param _host The address of the host\n\t */\n\tfunction calculateEarning(\n\t\taddress _buyer,\n\t\tbytes32 _purchaseId,\n\t\tuint256 _networkAmountStaked,\n\t\tuint256 _primordialAmountStaked,\n\t\tuint256 _primordialWeightedIndexStaked,\n\t\tuint256 _profitPercentage,\n\t\taddress _stakeOwner,\n\t\taddress _host) public isActive inWhitelist(msg.sender) returns (bool) {\n\n\t\t// Split the payment earning between content creator and host and store them in escrow\n\t\t_escrowPaymentEarning(_buyer, _purchaseId, _networkAmountStaked.add(_primordialAmountStaked), _profitPercentage, _stakeOwner, _host);\n\n\t\t// Calculate the inflation bonus earning for content creator/node/foundation in escrow\n\t\t_escrowInflationBonus(_purchaseId, _calculateInflationBonus(_networkAmountStaked, _primordialAmountStaked, _primordialWeightedIndexStaked), _profitPercentage, _stakeOwner, _host);\n\t\treturn true;\n\t}\n\n\t/**\n\t * @dev Release the payment earning and inflation bonus that is in escrow for specific purchase ID\n\t * @param _stakeId The ID of the staked content\n\t * @param _purchaseId The purchase receipt ID to check\n\t * @param _buyerPaidAmount The request node paid amount when buying the content\n\t * @param _fileSize The size of the content\n\t * @param _stakeOwner The address of the stake owner\n\t * @param _host The address of the node that host the file\n\t * @return true on success\n\t */\n\tfunction releaseEarning(bytes32 _stakeId, bytes32 _purchaseId, uint256 _buyerPaidAmount, uint256 _fileSize, address _stakeOwner, address _host) public isActive inWhitelist(msg.sender) returns (bool) {\n\t\t// Release the earning in escrow for stake owner\n\t\t_releaseEarning(_stakeId, _purchaseId, _buyerPaidAmount, _fileSize, _stakeOwner, 0);\n\n\t\t// Release the earning in escrow for host\n\t\t_releaseEarning(_stakeId, _purchaseId, _buyerPaidAmount, _fileSize, _host, 1);\n\n\t\t// Release the earning in escrow for foundation\n\t\t_releaseEarning(_stakeId, _purchaseId, _buyerPaidAmount, _fileSize, developer, 2);\n\t\treturn true;\n\t}\n\n\t/***** INTERNAL METHODS *****/\n\t/**\n\t * @dev Calculate the payment split for content creator/host and store them in escrow\n\t * @param _buyer the request node address that buys the content\n\t * @param _purchaseId The ID of the purchase receipt object\n\t * @param _totalStaked The total staked amount of the content\n\t * @param _profitPercentage The content creator's profit percentage\n\t * @param _stakeOwner The address of the stake owner\n\t * @param _host The address of the host\n\t */\n\tfunction _escrowPaymentEarning(address _buyer, bytes32 _purchaseId, uint256 _totalStaked, uint256 _profitPercentage, address _stakeOwner, address _host) internal {\n\t\t// Store how much the content creator (stake owner) earns in escrow\n\t\tuint256 _stakeOwnerEarning = (_totalStaked.mul(_profitPercentage)).div(PERCENTAGE_DIVISOR);\n\t\tEarning storage _stakeEarning = stakeEarnings[_stakeOwner][_purchaseId];\n\t\t_stakeEarning.purchaseId = _purchaseId;\n\t\t_stakeEarning.paymentEarning = _stakeOwnerEarning;\n\t\trequire (_baseAO.escrowFrom(_buyer, _stakeOwner, _stakeEarning.paymentEarning));\n\t\temit PaymentEarningEscrowed(_stakeOwner, _purchaseId, _totalStaked, _profitPercentage, _stakeEarning.paymentEarning, 0);\n\n\t\t// Store how much the node host earns in escrow\n\t\tEarning storage _hostEarning = hostEarnings[_host][_purchaseId];\n\t\t_hostEarning.purchaseId = _purchaseId;\n\t\t_hostEarning.paymentEarning = _totalStaked.sub(_stakeOwnerEarning);\n\t\trequire (_baseAO.escrowFrom(_buyer, _host, _hostEarning.paymentEarning));\n\t\temit PaymentEarningEscrowed(_host, _purchaseId, _totalStaked, PERCENTAGE_DIVISOR.sub(_profitPercentage), _hostEarning.paymentEarning, 1);\n\t}\n\n\t/**\n\t * @dev Calculate the inflation bonus amount\n\t * @param _networkAmountStaked The amount of network tokens at stake\n\t * @param _primordialAmountStaked The amount of primordial tokens at stake\n\t * @param _primordialWeightedIndexStaked The weighted index of primordial tokens at stake\n\t * @return the bonus network amount\n\t */\n\tfunction _calculateInflationBonus(uint256 _networkAmountStaked, uint256 _primordialAmountStaked, uint256 _primordialWeightedIndexStaked) internal view returns (uint256) {\n\t\tuint256 _networkBonus = _networkAmountStaked.mul(inflationRate).div(PERCENTAGE_DIVISOR);\n\t\tuint256 _multiplier = _calculateMultiplier(_primordialWeightedIndexStaked);\n\t\tuint256 _primordialBonus = _primordialAmountStaked.mul(_multiplier).div(WEIGHTED_INDEX_DIVISOR).mul(inflationRate).div(PERCENTAGE_DIVISOR);\n\t\treturn _networkBonus.add(_primordialBonus);\n\t}\n\n\t/**\n\t * @dev Given a weighted index, we want to calculate the multiplier\n\t * @param _weightedIndex The weighted index of the primordial token\n\t * @return multiplier in 6 decimals\n\t */\n\tfunction _calculateMultiplier(uint256 _weightedIndex) internal view returns (uint256) {\n\t\t/**\n\t\t * Multiplier = 1 + (multiplierModifier * ((lastWeightedIndex - weightedIndex)/lastWeightedIndex))\n\t\t *\n\t\t * Since we are calculating in decimals, so 1 is actually 1000000 or WEIGHTED_INDEX_DIVISOR\n\t\t * Multiplier = WEIGHTED_INDEX_DIVISOR + (multiplierModifier * ((lastWeightedIndex - weightedIndex)/lastWeightedIndex))\n\t\t * Let temp = (lastWeightedIndex - weightedIndex)/lastWeightedIndex\n\t\t * To account for decimal points,\n\t\t * temp = ((lastWeightedIndex - weightedIndex) * WEIGHTED_INDEX_DIVISOR)/lastWeightedIndex\n\t\t * We need to divide temp with WEIGHTED_INDEX_DIVISOR later\n\t\t * Multiplier = WEIGHTED_INDEX_DIVISOR + ((multiplierModifier * temp) / WEIGHTED_INDEX_DIVISOR)\n\t\t */\n\t\tuint256 _lastWeightedIndex = _baseAO.lotIndex().mul(WEIGHTED_INDEX_DIVISOR);\n\t\trequire (_lastWeightedIndex >= _weightedIndex);\n\t\tuint256 _temp = (_lastWeightedIndex.sub(_weightedIndex)).mul(WEIGHTED_INDEX_DIVISOR).div(_lastWeightedIndex);\n\t\treturn WEIGHTED_INDEX_DIVISOR.add(multiplierModifier.mul(_temp).div(WEIGHTED_INDEX_DIVISOR));\n\t}\n\n\t/**\n\t * @dev Mint the inflation bonus for content creator/host/foundation and store them in escrow\n\t * @param _purchaseId The ID of the purchase receipt object\n\t * @param _inflationBonusAmount The amount of inflation bonus earning\n\t * @param _profitPercentage The content creator's profit percentage\n\t * @param _stakeOwner The address of the stake owner\n\t * @param _host The address of the host\n\t */\n\tfunction _escrowInflationBonus(\n\t\tbytes32 _purchaseId,\n\t\tuint256 _inflationBonusAmount,\n\t\tuint256 _profitPercentage,\n\t\taddress _stakeOwner,\n\t\taddress _host\n\t) internal {\n\t\tif (_inflationBonusAmount > 0) {\n\t\t\t// Store how much the content creator earns in escrow\n\t\t\tuint256 _stakeOwnerInflationBonus = (_inflationBonusAmount.mul(_profitPercentage)).div(PERCENTAGE_DIVISOR);\n\t\t\tEarning storage _stakeEarning = stakeEarnings[_stakeOwner][_purchaseId];\n\t\t\t_stakeEarning.inflationBonus = _stakeOwnerInflationBonus;\n\t\t\trequire (_baseAO.mintTokenEscrow(_stakeOwner, _stakeEarning.inflationBonus));\n\t\t\temit InflationBonusEscrowed(_stakeOwner, _purchaseId, _inflationBonusAmount, _profitPercentage, _stakeEarning.inflationBonus, 0);\n\n\t\t\t// Store how much the host earns in escrow\n\t\t\tEarning storage _hostEarning = hostEarnings[_host][_purchaseId];\n\t\t\t_hostEarning.inflationBonus = _inflationBonusAmount.sub(_stakeOwnerInflationBonus);\n\t\t\trequire (_baseAO.mintTokenEscrow(_host, _hostEarning.inflationBonus));\n\t\t\temit InflationBonusEscrowed(_host, _purchaseId, _inflationBonusAmount, PERCENTAGE_DIVISOR.sub(_profitPercentage), _hostEarning.inflationBonus, 1);\n\n\t\t\t// Store how much the foundation earns in escrow\n\t\t\tEarning storage _foundationEarning = foundationEarnings[_purchaseId];\n\t\t\t_foundationEarning.purchaseId = _purchaseId;\n\t\t\t_foundationEarning.inflationBonus = (_inflationBonusAmount.mul(foundationCut)).div(PERCENTAGE_DIVISOR);\n\t\t\trequire (_baseAO.mintTokenEscrow(developer, _foundationEarning.inflationBonus));\n\t\t\temit InflationBonusEscrowed(developer, _purchaseId, _inflationBonusAmount, foundationCut, _foundationEarning.inflationBonus, 2);\n\t\t} else {\n\t\t\temit InflationBonusEscrowed(_stakeOwner, _purchaseId, 0, _profitPercentage, 0, 0);\n\t\t\temit InflationBonusEscrowed(_host, _purchaseId, 0, PERCENTAGE_DIVISOR.sub(_profitPercentage), 0, 1);\n\t\t\temit InflationBonusEscrowed(developer, _purchaseId, 0, foundationCut, 0, 2);\n\t\t}\n\t}\n\n\t/**\n\t * @dev Release the escrowed earning for a specific purchase ID for an account\n\t * @param _stakeId The ID of the staked content\n\t * @param _purchaseId The purchase receipt ID\n\t * @param _buyerPaidAmount The request node paid amount when buying the content\n\t * @param _fileSize The size of the content\n\t * @param _account The address of account that made the earning (content creator/host)\n\t * @param _recipientType The type of the earning recipient (0 => content creator. 1 => host. 2 => foundation)\n\t */\n\tfunction _releaseEarning(bytes32 _stakeId, bytes32 _purchaseId, uint256 _buyerPaidAmount, uint256 _fileSize, address _account, uint8 _recipientType) internal {\n\t\t// Make sure the recipient type is valid\n\t\trequire (_recipientType >= 0 && _recipientType <= 2);\n\n\t\tuint256 _paymentEarning;\n\t\tuint256 _inflationBonus;\n\t\tuint256 _totalEarning;\n\t\tif (_recipientType == 0) {\n\t\t\tEarning storage _stakeEarning = stakeEarnings[_account][_purchaseId];\n\t\t\t_paymentEarning = _stakeEarning.paymentEarning;\n\t\t\t_inflationBonus = _stakeEarning.inflationBonus;\n\t\t\t_stakeEarning.paymentEarning = 0;\n\t\t\t_stakeEarning.inflationBonus = 0;\n\t\t\t_totalEarning = _paymentEarning.add(_inflationBonus);\n\n\t\t\t// Update the global var settings\n\t\t\ttotalStakeContentEarning = totalStakeContentEarning.add(_totalEarning);\n\t\t\tstakeContentEarning[_account] = stakeContentEarning[_account].add(_totalEarning);\n\t\t\ttotalStakedContentStakeEarning[_stakeId] = totalStakedContentStakeEarning[_stakeId].add(_totalEarning);\n\t\t\tif (_buyerPaidAmount > _fileSize) {\n\t\t\t\tcontentPriceEarning[_account] = contentPriceEarning[_account].add(_totalEarning);\n\t\t\t} else {\n\t\t\t\tnetworkPriceEarning[_account] = networkPriceEarning[_account].add(_totalEarning);\n\t\t\t}\n\t\t\tinflationBonusAccrued[_account] = inflationBonusAccrued[_account].add(_inflationBonus);\n\t\t} else if (_recipientType == 1) {\n\t\t\tEarning storage _hostEarning = hostEarnings[_account][_purchaseId];\n\t\t\t_paymentEarning = _hostEarning.paymentEarning;\n\t\t\t_inflationBonus = _hostEarning.inflationBonus;\n\t\t\t_hostEarning.paymentEarning = 0;\n\t\t\t_hostEarning.inflationBonus = 0;\n\t\t\t_totalEarning = _paymentEarning.add(_inflationBonus);\n\n\t\t\t// Update the global var settings\n\t\t\ttotalHostContentEarning = totalHostContentEarning.add(_totalEarning);\n\t\t\thostContentEarning[_account] = hostContentEarning[_account].add(_totalEarning);\n\t\t\ttotalStakedContentHostEarning[_stakeId] = totalStakedContentHostEarning[_stakeId].add(_totalEarning);\n\t\t\tif (_buyerPaidAmount > _fileSize) {\n\t\t\t\tcontentPriceEarning[_account] = contentPriceEarning[_account].add(_totalEarning);\n\t\t\t} else {\n\t\t\t\tnetworkPriceEarning[_account] = networkPriceEarning[_account].add(_totalEarning);\n\t\t\t}\n\t\t\tinflationBonusAccrued[_account] = inflationBonusAccrued[_account].add(_inflationBonus);\n\t\t} else {\n\t\t\tEarning storage _foundationEarning = foundationEarnings[_purchaseId];\n\t\t\t_paymentEarning = _foundationEarning.paymentEarning;\n\t\t\t_inflationBonus = _foundationEarning.inflationBonus;\n\t\t\t_foundationEarning.paymentEarning = 0;\n\t\t\t_foundationEarning.inflationBonus = 0;\n\t\t\t_totalEarning = _paymentEarning.add(_inflationBonus);\n\n\t\t\t// Update the global var settings\n\t\t\ttotalFoundationEarning = totalFoundationEarning.add(_totalEarning);\n\t\t\tinflationBonusAccrued[_account] = inflationBonusAccrued[_account].add(_inflationBonus);\n\t\t\ttotalStakedContentFoundationEarning[_stakeId] = totalStakedContentFoundationEarning[_stakeId].add(_totalEarning);\n\t\t}\n\t\trequire (_baseAO.unescrowFrom(_account, _totalEarning));\n\t\temit EarningUnescrowed(_account, _purchaseId, _paymentEarning, _inflationBonus, _recipientType);\n\t}\n}\n",
	"sourcePath": "/home/jmulyono/ao-contracts/contracts/AOEarning.sol",
	"compiler": {
		"name": "solc",
		"version": "0.4.24+commit.e67f0147.Emscripten.clang"
	},
	"schemaVersion": "2.0.1",
	"updatedAt": "2018-09-20T04:49:46.856Z"
}