{
	"contractName": "AOEarning",
	"abi": [
		{
			"constant": true,
			"inputs": [],
			"name": "aoStakedContentAddress",
			"outputs": [
				{
					"name": "",
					"type": "address"
				}
			],
			"payable": false,
			"stateMutability": "view",
			"type": "function",
			"signature": "0x078753ad"
		},
		{
			"constant": true,
			"inputs": [],
			"name": "totalStakedContentEarning",
			"outputs": [
				{
					"name": "",
					"type": "uint256"
				}
			],
			"payable": false,
			"stateMutability": "view",
			"type": "function",
			"signature": "0x101f6d79"
		},
		{
			"constant": true,
			"inputs": [],
			"name": "aoSettingAddress",
			"outputs": [
				{
					"name": "",
					"type": "address"
				}
			],
			"payable": false,
			"stateMutability": "view",
			"type": "function",
			"signature": "0x1d0138ff"
		},
		{
			"constant": true,
			"inputs": [
				{
					"name": "",
					"type": "bytes32"
				}
			],
			"name": "contentHostEarning",
			"outputs": [
				{
					"name": "",
					"type": "uint256"
				}
			],
			"payable": false,
			"stateMutability": "view",
			"type": "function",
			"signature": "0x1f032c24"
		},
		{
			"constant": true,
			"inputs": [
				{
					"name": "",
					"type": "address"
				}
			],
			"name": "ownerContentPriceEarning",
			"outputs": [
				{
					"name": "",
					"type": "uint256"
				}
			],
			"payable": false,
			"stateMutability": "view",
			"type": "function",
			"signature": "0x1fe7f23c"
		},
		{
			"constant": true,
			"inputs": [
				{
					"name": "",
					"type": "address"
				}
			],
			"name": "ownerStakedContentEarning",
			"outputs": [
				{
					"name": "",
					"type": "uint256"
				}
			],
			"payable": false,
			"stateMutability": "view",
			"type": "function",
			"signature": "0x35385ec8"
		},
		{
			"constant": true,
			"inputs": [],
			"name": "aoIonAddress",
			"outputs": [
				{
					"name": "",
					"type": "address"
				}
			],
			"payable": false,
			"stateMutability": "view",
			"type": "function",
			"signature": "0x3c56b011"
		},
		{
			"constant": true,
			"inputs": [],
			"name": "pathosAddress",
			"outputs": [
				{
					"name": "",
					"type": "address"
				}
			],
			"payable": false,
			"stateMutability": "view",
			"type": "function",
			"signature": "0x4486ab0a"
		},
		{
			"constant": true,
			"inputs": [],
			"name": "nameTAOPositionAddress",
			"outputs": [
				{
					"name": "",
					"type": "address"
				}
			],
			"payable": false,
			"stateMutability": "view",
			"type": "function",
			"signature": "0x4ef033f0"
		},
		{
			"constant": true,
			"inputs": [
				{
					"name": "",
					"type": "bytes32"
				}
			],
			"name": "stakedContentTheAOEarning",
			"outputs": [
				{
					"name": "",
					"type": "uint256"
				}
			],
			"payable": false,
			"stateMutability": "view",
			"type": "function",
			"signature": "0x7658f1d6"
		},
		{
			"constant": true,
			"inputs": [],
			"name": "totalContentHostEarning",
			"outputs": [
				{
					"name": "",
					"type": "uint256"
				}
			],
			"payable": false,
			"stateMutability": "view",
			"type": "function",
			"signature": "0x80504a96"
		},
		{
			"constant": true,
			"inputs": [],
			"name": "aoContentAddress",
			"outputs": [
				{
					"name": "",
					"type": "address"
				}
			],
			"payable": false,
			"stateMutability": "view",
			"type": "function",
			"signature": "0x85cb86c8"
		},
		{
			"constant": true,
			"inputs": [
				{
					"name": "",
					"type": "address"
				},
				{
					"name": "",
					"type": "bytes32"
				}
			],
			"name": "ownerPurchaseReceiptHostEarnings",
			"outputs": [
				{
					"name": "purchaseReceiptId",
					"type": "bytes32"
				},
				{
					"name": "paymentEarning",
					"type": "uint256"
				},
				{
					"name": "inflationBonus",
					"type": "uint256"
				},
				{
					"name": "pathosAmount",
					"type": "uint256"
				},
				{
					"name": "ethosAmount",
					"type": "uint256"
				}
			],
			"payable": false,
			"stateMutability": "view",
			"type": "function",
			"signature": "0x8a9e7fdc"
		},
		{
			"constant": true,
			"inputs": [],
			"name": "ethosAddress",
			"outputs": [
				{
					"name": "",
					"type": "address"
				}
			],
			"payable": false,
			"stateMutability": "view",
			"type": "function",
			"signature": "0x9093a790"
		},
		{
			"constant": true,
			"inputs": [
				{
					"name": "",
					"type": "address"
				},
				{
					"name": "",
					"type": "bytes32"
				}
			],
			"name": "ownerPurchaseReceiptStakeEarnings",
			"outputs": [
				{
					"name": "purchaseReceiptId",
					"type": "bytes32"
				},
				{
					"name": "paymentEarning",
					"type": "uint256"
				},
				{
					"name": "inflationBonus",
					"type": "uint256"
				},
				{
					"name": "pathosAmount",
					"type": "uint256"
				},
				{
					"name": "ethosAmount",
					"type": "uint256"
				}
			],
			"payable": false,
			"stateMutability": "view",
			"type": "function",
			"signature": "0x93ac4c1c"
		},
		{
			"constant": true,
			"inputs": [],
			"name": "aoContentHostAddress",
			"outputs": [
				{
					"name": "",
					"type": "address"
				}
			],
			"payable": false,
			"stateMutability": "view",
			"type": "function",
			"signature": "0x95f04f27"
		},
		{
			"constant": true,
			"inputs": [
				{
					"name": "",
					"type": "address"
				}
			],
			"name": "whitelist",
			"outputs": [
				{
					"name": "",
					"type": "bool"
				}
			],
			"payable": false,
			"stateMutability": "view",
			"type": "function",
			"signature": "0x9b19251a"
		},
		{
			"constant": true,
			"inputs": [],
			"name": "theAO",
			"outputs": [
				{
					"name": "",
					"type": "address"
				}
			],
			"payable": false,
			"stateMutability": "view",
			"type": "function",
			"signature": "0xa9b6b38e"
		},
		{
			"constant": true,
			"inputs": [],
			"name": "nameFactoryAddress",
			"outputs": [
				{
					"name": "",
					"type": "address"
				}
			],
			"payable": false,
			"stateMutability": "view",
			"type": "function",
			"signature": "0xbc406206"
		},
		{
			"constant": true,
			"inputs": [
				{
					"name": "",
					"type": "bytes32"
				}
			],
			"name": "stakedContentStakeEarning",
			"outputs": [
				{
					"name": "",
					"type": "uint256"
				}
			],
			"payable": false,
			"stateMutability": "view",
			"type": "function",
			"signature": "0xbe03a7de"
		},
		{
			"constant": true,
			"inputs": [],
			"name": "totalTheAOEarning",
			"outputs": [
				{
					"name": "",
					"type": "uint256"
				}
			],
			"payable": false,
			"stateMutability": "view",
			"type": "function",
			"signature": "0xc26012cd"
		},
		{
			"constant": true,
			"inputs": [
				{
					"name": "",
					"type": "address"
				}
			],
			"name": "ownerInflationBonusAccrued",
			"outputs": [
				{
					"name": "",
					"type": "uint256"
				}
			],
			"payable": false,
			"stateMutability": "view",
			"type": "function",
			"signature": "0xc7bc27af"
		},
		{
			"constant": true,
			"inputs": [
				{
					"name": "",
					"type": "address"
				}
			],
			"name": "ownerNetworkPriceEarning",
			"outputs": [
				{
					"name": "",
					"type": "uint256"
				}
			],
			"payable": false,
			"stateMutability": "view",
			"type": "function",
			"signature": "0xcd109f4c"
		},
		{
			"constant": true,
			"inputs": [
				{
					"name": "",
					"type": "bytes32"
				}
			],
			"name": "theAOPurchaseReceiptEarnings",
			"outputs": [
				{
					"name": "purchaseReceiptId",
					"type": "bytes32"
				},
				{
					"name": "paymentEarning",
					"type": "uint256"
				},
				{
					"name": "inflationBonus",
					"type": "uint256"
				},
				{
					"name": "pathosAmount",
					"type": "uint256"
				},
				{
					"name": "ethosAmount",
					"type": "uint256"
				}
			],
			"payable": false,
			"stateMutability": "view",
			"type": "function",
			"signature": "0xd3bd1343"
		},
		{
			"constant": true,
			"inputs": [
				{
					"name": "",
					"type": "address"
				}
			],
			"name": "ownerContentHostEarning",
			"outputs": [
				{
					"name": "",
					"type": "uint256"
				}
			],
			"payable": false,
			"stateMutability": "view",
			"type": "function",
			"signature": "0xd7ed73bd"
		},
		{
			"constant": true,
			"inputs": [],
			"name": "namePublicKeyAddress",
			"outputs": [
				{
					"name": "",
					"type": "address"
				}
			],
			"payable": false,
			"stateMutability": "view",
			"type": "function",
			"signature": "0xd8ce52d1"
		},
		{
			"constant": true,
			"inputs": [],
			"name": "aoPurchaseReceiptAddress",
			"outputs": [
				{
					"name": "",
					"type": "address"
				}
			],
			"payable": false,
			"stateMutability": "view",
			"type": "function",
			"signature": "0xe669ecab"
		},
		{
			"constant": true,
			"inputs": [],
			"name": "settingTAOId",
			"outputs": [
				{
					"name": "",
					"type": "address"
				}
			],
			"payable": false,
			"stateMutability": "view",
			"type": "function",
			"signature": "0xe7c50185"
		},
		{
			"constant": true,
			"inputs": [
				{
					"name": "",
					"type": "bytes32"
				}
			],
			"name": "stakedContentHostEarning",
			"outputs": [
				{
					"name": "",
					"type": "uint256"
				}
			],
			"payable": false,
			"stateMutability": "view",
			"type": "function",
			"signature": "0xee9f7427"
		},
		{
			"inputs": [
				{
					"name": "_settingTAOId",
					"type": "address"
				},
				{
					"name": "_aoSettingAddress",
					"type": "address"
				},
				{
					"name": "_aoIonAddress",
					"type": "address"
				},
				{
					"name": "_nameFactoryAddress",
					"type": "address"
				},
				{
					"name": "_pathosAddress",
					"type": "address"
				},
				{
					"name": "_ethosAddress",
					"type": "address"
				},
				{
					"name": "_aoContentAddress",
					"type": "address"
				},
				{
					"name": "_namePublicKeyAddress",
					"type": "address"
				},
				{
					"name": "_nameTAOPositionAddress",
					"type": "address"
				}
			],
			"payable": false,
			"stateMutability": "nonpayable",
			"type": "constructor",
			"signature": "constructor"
		},
		{
			"anonymous": false,
			"inputs": [
				{
					"indexed": true,
					"name": "recipient",
					"type": "address"
				},
				{
					"indexed": true,
					"name": "purchaseReceiptId",
					"type": "bytes32"
				},
				{
					"indexed": false,
					"name": "price",
					"type": "uint256"
				},
				{
					"indexed": false,
					"name": "recipientProfitPercentage",
					"type": "uint256"
				},
				{
					"indexed": false,
					"name": "recipientPaymentEarning",
					"type": "uint256"
				},
				{
					"indexed": false,
					"name": "recipientType",
					"type": "uint8"
				}
			],
			"name": "PaymentEarningEscrowed",
			"type": "event",
			"signature": "0x2bc2599ff4713444a049b5e4a07d2cde6becf6e7fc7c4e041bc1cf36894f10ee"
		},
		{
			"anonymous": false,
			"inputs": [
				{
					"indexed": true,
					"name": "recipient",
					"type": "address"
				},
				{
					"indexed": true,
					"name": "purchaseReceiptId",
					"type": "bytes32"
				},
				{
					"indexed": false,
					"name": "totalInflationBonusAmount",
					"type": "uint256"
				},
				{
					"indexed": false,
					"name": "recipientProfitPercentage",
					"type": "uint256"
				},
				{
					"indexed": false,
					"name": "recipientInflationBonus",
					"type": "uint256"
				},
				{
					"indexed": false,
					"name": "recipientType",
					"type": "uint8"
				}
			],
			"name": "InflationBonusEscrowed",
			"type": "event",
			"signature": "0xdf9b18b8b292e153b0dfff6e1d71024ca7486117e59c0bbaf074ad370deebd1c"
		},
		{
			"anonymous": false,
			"inputs": [
				{
					"indexed": true,
					"name": "recipient",
					"type": "address"
				},
				{
					"indexed": true,
					"name": "purchaseReceiptId",
					"type": "bytes32"
				},
				{
					"indexed": false,
					"name": "paymentEarning",
					"type": "uint256"
				},
				{
					"indexed": false,
					"name": "inflationBonus",
					"type": "uint256"
				},
				{
					"indexed": false,
					"name": "recipientType",
					"type": "uint8"
				}
			],
			"name": "EarningUnescrowed",
			"type": "event",
			"signature": "0x212de36dcbb73c749ef074ec2565ecd3e461ebb1d28ea6021effdb8be7d44cda"
		},
		{
			"anonymous": false,
			"inputs": [
				{
					"indexed": true,
					"name": "nameId",
					"type": "address"
				},
				{
					"indexed": true,
					"name": "purchaseReceiptId",
					"type": "bytes32"
				},
				{
					"indexed": false,
					"name": "amount",
					"type": "uint256"
				}
			],
			"name": "PathosEarned",
			"type": "event",
			"signature": "0x21c3387baaff2d916ae2cd1669d5f94fe9583036b96ef82acb3a4565815cfce8"
		},
		{
			"anonymous": false,
			"inputs": [
				{
					"indexed": true,
					"name": "nameId",
					"type": "address"
				},
				{
					"indexed": true,
					"name": "purchaseReceiptId",
					"type": "bytes32"
				},
				{
					"indexed": false,
					"name": "amount",
					"type": "uint256"
				}
			],
			"name": "EthosEarned",
			"type": "event",
			"signature": "0x2a9470ba36cb39f146ccc29717c9098e046e556211964a2454021d1d9fe9dd55"
		},
		{
			"constant": false,
			"inputs": [
				{
					"name": "_theAO",
					"type": "address"
				}
			],
			"name": "transferOwnership",
			"outputs": [],
			"payable": false,
			"stateMutability": "nonpayable",
			"type": "function",
			"signature": "0xf2fde38b"
		},
		{
			"constant": false,
			"inputs": [
				{
					"name": "_account",
					"type": "address"
				},
				{
					"name": "_whitelist",
					"type": "bool"
				}
			],
			"name": "setWhitelist",
			"outputs": [],
			"payable": false,
			"stateMutability": "nonpayable",
			"type": "function",
			"signature": "0x53d6fd59"
		},
		{
			"constant": false,
			"inputs": [
				{
					"name": "_settingTAOId",
					"type": "address"
				}
			],
			"name": "setSettingTAOId",
			"outputs": [],
			"payable": false,
			"stateMutability": "nonpayable",
			"type": "function",
			"signature": "0xd6830af3"
		},
		{
			"constant": false,
			"inputs": [
				{
					"name": "_aoSettingAddress",
					"type": "address"
				}
			],
			"name": "setAOSettingAddress",
			"outputs": [],
			"payable": false,
			"stateMutability": "nonpayable",
			"type": "function",
			"signature": "0x06fd7088"
		},
		{
			"constant": false,
			"inputs": [
				{
					"name": "_aoIonAddress",
					"type": "address"
				}
			],
			"name": "setAOIonAddress",
			"outputs": [],
			"payable": false,
			"stateMutability": "nonpayable",
			"type": "function",
			"signature": "0xf97106b5"
		},
		{
			"constant": false,
			"inputs": [
				{
					"name": "_nameFactoryAddress",
					"type": "address"
				}
			],
			"name": "setNameFactoryAddress",
			"outputs": [],
			"payable": false,
			"stateMutability": "nonpayable",
			"type": "function",
			"signature": "0x8c924361"
		},
		{
			"constant": false,
			"inputs": [
				{
					"name": "_pathosAddress",
					"type": "address"
				}
			],
			"name": "setPathosAddress",
			"outputs": [],
			"payable": false,
			"stateMutability": "nonpayable",
			"type": "function",
			"signature": "0x793c8228"
		},
		{
			"constant": false,
			"inputs": [
				{
					"name": "_ethosAddress",
					"type": "address"
				}
			],
			"name": "setEthosAddress",
			"outputs": [],
			"payable": false,
			"stateMutability": "nonpayable",
			"type": "function",
			"signature": "0x1add5b98"
		},
		{
			"constant": false,
			"inputs": [
				{
					"name": "_aoContentAddress",
					"type": "address"
				}
			],
			"name": "setAOContentAddress",
			"outputs": [],
			"payable": false,
			"stateMutability": "nonpayable",
			"type": "function",
			"signature": "0x89a83246"
		},
		{
			"constant": false,
			"inputs": [
				{
					"name": "_aoStakedContentAddress",
					"type": "address"
				}
			],
			"name": "setAOStakedContentAddress",
			"outputs": [],
			"payable": false,
			"stateMutability": "nonpayable",
			"type": "function",
			"signature": "0x3e36144f"
		},
		{
			"constant": false,
			"inputs": [
				{
					"name": "_aoContentHostAddress",
					"type": "address"
				}
			],
			"name": "setAOContentHostAddress",
			"outputs": [],
			"payable": false,
			"stateMutability": "nonpayable",
			"type": "function",
			"signature": "0xcd5facb2"
		},
		{
			"constant": false,
			"inputs": [
				{
					"name": "_aoPurchaseReceiptAddress",
					"type": "address"
				}
			],
			"name": "setAOPurchaseReceiptAddress",
			"outputs": [],
			"payable": false,
			"stateMutability": "nonpayable",
			"type": "function",
			"signature": "0xbc6abaa2"
		},
		{
			"constant": false,
			"inputs": [
				{
					"name": "_namePublicKeyAddress",
					"type": "address"
				}
			],
			"name": "setNamePublicKeyAddress",
			"outputs": [],
			"payable": false,
			"stateMutability": "nonpayable",
			"type": "function",
			"signature": "0x6d9aa034"
		},
		{
			"constant": false,
			"inputs": [
				{
					"name": "_nameTAOPositionAddress",
					"type": "address"
				}
			],
			"name": "setNameTAOPositionAddress",
			"outputs": [],
			"payable": false,
			"stateMutability": "nonpayable",
			"type": "function",
			"signature": "0x5cfaf2ef"
		},
		{
			"constant": false,
			"inputs": [
				{
					"name": "_purchaseReceiptId",
					"type": "bytes32"
				}
			],
			"name": "calculateEarning",
			"outputs": [
				{
					"name": "",
					"type": "bool"
				}
			],
			"payable": false,
			"stateMutability": "nonpayable",
			"type": "function",
			"signature": "0xe41800e2"
		},
		{
			"constant": false,
			"inputs": [
				{
					"name": "_purchaseReceiptId",
					"type": "bytes32"
				}
			],
			"name": "releaseEarning",
			"outputs": [
				{
					"name": "",
					"type": "bool"
				}
			],
			"payable": false,
			"stateMutability": "nonpayable",
			"type": "function",
			"signature": "0x4c9e0913"
		},
		{
			"constant": true,
			"inputs": [
				{
					"name": "_stakedContentId",
					"type": "bytes32"
				}
			],
			"name": "getTotalStakedContentEarning",
			"outputs": [
				{
					"name": "",
					"type": "uint256"
				},
				{
					"name": "",
					"type": "uint256"
				},
				{
					"name": "",
					"type": "uint256"
				}
			],
			"payable": false,
			"stateMutability": "view",
			"type": "function",
			"signature": "0x41fddf9d"
		}
	],
	"bytecode": "0x60806040523480156200001157600080fd5b50604051610120806200581d83398101806040526101208110156200003557600080fd5b508051602082015160408301516060840151608085015160a086015160c087015160e08801516101009098015160008054600160a060020a03191633179055969795969495939492939192909190620000978964010000000062000146810204565b620000ab88640100000000620002d9810204565b620000bf87640100000000620003de810204565b620000d386640100000000620004e3810204565b620000e785640100000000620005e8810204565b620000fb84640100000000620006ed810204565b6200010f83640100000000620007f2810204565b6200012382640100000000620008f7810204565b6200013781640100000000620009fc810204565b50505050505050505062000af7565b600054600154604080517ff66afcac000000000000000000000000000000000000000000000000000000008152336004820152600160a060020a0393841660248201529290911660448301525173__AOLibrary_____________________________9163f66afcac916064808301926020929190829003018186803b158015620001cf57600080fd5b505af4158015620001e4573d6000803e3d6000fd5b505050506040513d6020811015620001fb57600080fd5b505115156200020957600080fd5b604080517f2fca5414000000000000000000000000000000000000000000000000000000008152600160a060020a0383166004820152905173__AOLibrary_____________________________91632fca5414916024808301926020929190829003018186803b1580156200027d57600080fd5b505af415801562000292573d6000803e3d6000fd5b505050506040513d6020811015620002a957600080fd5b50511515620002b757600080fd5b60038054600160a060020a031916600160a060020a0392909216919091179055565b600054600154604080517ff66afcac000000000000000000000000000000000000000000000000000000008152336004820152600160a060020a0393841660248201529290911660448301525173__AOLibrary_____________________________9163f66afcac916064808301926020929190829003018186803b1580156200036257600080fd5b505af415801562000377573d6000803e3d6000fd5b505050506040513d60208110156200038e57600080fd5b505115156200039c57600080fd5b600160a060020a0381161515620003b257600080fd5b60048054600160a060020a03909216600160a060020a03199283168117909155600e8054909216179055565b600054600154604080517ff66afcac000000000000000000000000000000000000000000000000000000008152336004820152600160a060020a0393841660248201529290911660448301525173__AOLibrary_____________________________9163f66afcac916064808301926020929190829003018186803b1580156200046757600080fd5b505af41580156200047c573d6000803e3d6000fd5b505050506040513d60208110156200049357600080fd5b50511515620004a157600080fd5b600160a060020a0381161515620004b757600080fd5b60058054600160a060020a03909216600160a060020a03199283168117909155600f8054909216179055565b600054600154604080517ff66afcac000000000000000000000000000000000000000000000000000000008152336004820152600160a060020a0393841660248201529290911660448301525173__AOLibrary_____________________________9163f66afcac916064808301926020929190829003018186803b1580156200056c57600080fd5b505af415801562000581573d6000803e3d6000fd5b505050506040513d60208110156200059857600080fd5b50511515620005a657600080fd5b600160a060020a0381161515620005bc57600080fd5b60068054600160a060020a03909216600160a060020a0319928316811790915560108054909216179055565b600054600154604080517ff66afcac000000000000000000000000000000000000000000000000000000008152336004820152600160a060020a0393841660248201529290911660448301525173__AOLibrary_____________________________9163f66afcac916064808301926020929190829003018186803b1580156200067157600080fd5b505af415801562000686573d6000803e3d6000fd5b505050506040513d60208110156200069d57600080fd5b50511515620006ab57600080fd5b600160a060020a0381161515620006c157600080fd5b60078054600160a060020a03909216600160a060020a0319928316811790915560118054909216179055565b600054600154604080517ff66afcac000000000000000000000000000000000000000000000000000000008152336004820152600160a060020a0393841660248201529290911660448301525173__AOLibrary_____________________________9163f66afcac916064808301926020929190829003018186803b1580156200077657600080fd5b505af41580156200078b573d6000803e3d6000fd5b505050506040513d6020811015620007a257600080fd5b50511515620007b057600080fd5b600160a060020a0381161515620007c657600080fd5b60088054600160a060020a03909216600160a060020a0319928316811790915560128054909216179055565b600054600154604080517ff66afcac000000000000000000000000000000000000000000000000000000008152336004820152600160a060020a0393841660248201529290911660448301525173__AOLibrary_____________________________9163f66afcac916064808301926020929190829003018186803b1580156200087b57600080fd5b505af415801562000890573d6000803e3d6000fd5b505050506040513d6020811015620008a757600080fd5b50511515620008b557600080fd5b600160a060020a0381161515620008cb57600080fd5b60098054600160a060020a03909216600160a060020a0319928316811790915560138054909216179055565b600054600154604080517ff66afcac000000000000000000000000000000000000000000000000000000008152336004820152600160a060020a0393841660248201529290911660448301525173__AOLibrary_____________________________9163f66afcac916064808301926020929190829003018186803b1580156200098057600080fd5b505af415801562000995573d6000803e3d6000fd5b505050506040513d6020811015620009ac57600080fd5b50511515620009ba57600080fd5b600160a060020a0381161515620009d057600080fd5b600d8054600160a060020a03909216600160a060020a0319928316811790915560178054909216179055565b600054600154604080517ff66afcac000000000000000000000000000000000000000000000000000000008152336004820152600160a060020a0393841660248201529290911660448301525173__AOLibrary_____________________________9163f66afcac916064808301926020929190829003018186803b15801562000a8557600080fd5b505af415801562000a9a573d6000803e3d6000fd5b505050506040513d602081101562000ab157600080fd5b5051151562000abf57600080fd5b600160a060020a038116151562000ad557600080fd5b60018054600160a060020a031916600160a060020a0392909216919091179055565b614d168062000b076000396000f3fe608060405234801561001057600080fd5b506004361061028e5760003560e060020a900480638c92436111610160578063cd109f4c116100d2578063e41800e21161008b578063e41800e21461074a578063e669ecab14610767578063e7c501851461076f578063ee9f742714610777578063f2fde38b14610794578063f97106b5146107ba5761028e565b8063cd109f4c1461068d578063cd5facb2146106b3578063d3bd1343146106d9578063d6830af3146106f6578063d7ed73bd1461071c578063d8ce52d1146107425761028e565b8063a9b6b38e11610124578063a9b6b38e1461060c578063bc40620614610614578063bc6abaa21461061c578063be03a7de14610642578063c26012cd1461065f578063c7bc27af146106675761028e565b80638c924361146105845780639093a790146105aa57806393ac4c1c146105b257806395f04f27146105de5780639b19251a146105e65761028e565b80634486ab0a116102045780637658f1d6116101bd5780637658f1d6146104b4578063793c8228146104d157806380504a96146104f757806385cb86c8146104ff57806389a83246146105075780638a9e7fdc1461052d5761028e565b80634486ab0a146103f95780634c9e0913146104015780634ef033f01461043257806353d6fd591461043a5780635cfaf2ef146104685780636d9aa0341461048e5761028e565b80631f032c24116102565780631f032c24146103275780631fe7f23c1461034457806335385ec81461036a5780633c56b011146103905780633e36144f1461039857806341fddf9d146103be5761028e565b806306fd708814610293578063078753ad146102bb578063101f6d79146102df5780631add5b98146102f95780631d0138ff1461031f575b600080fd5b6102b9600480360360208110156102a957600080fd5b5035600160a060020a03166107e0565b005b6102c36108ca565b60408051600160a060020a039092168252519081900360200190f35b6102e76108d9565b60408051918252519081900360200190f35b6102b96004803603602081101561030f57600080fd5b5035600160a060020a03166108df565b6102c36109c9565b6102e76004803603602081101561033d57600080fd5b50356109d8565b6102e76004803603602081101561035a57600080fd5b5035600160a060020a03166109ea565b6102e76004803603602081101561038057600080fd5b5035600160a060020a03166109fb565b6102c3610a0d565b6102b9600480360360208110156103ae57600080fd5b5035600160a060020a0316610a1c565b6103db600480360360208110156103d457600080fd5b5035610b06565b60408051938452602084019290925282820152519081900360600190f35b6102c3610b2f565b61041e6004803603602081101561041757600080fd5b5035610b3e565b604080519115158252519081900360200190f35b6102c36110c5565b6102b96004803603604081101561045057600080fd5b50600160a060020a03813516906020013515156110d4565b6102b96004803603602081101561047e57600080fd5b5035600160a060020a03166111bd565b6102b9600480360360208110156104a457600080fd5b5035600160a060020a031661129d565b6102e7600480360360208110156104ca57600080fd5b5035611387565b6102b9600480360360208110156104e757600080fd5b5035600160a060020a0316611399565b6102e7611483565b6102c3611489565b6102b96004803603602081101561051d57600080fd5b5035600160a060020a0316611498565b6105596004803603604081101561054357600080fd5b50600160a060020a038135169060200135611582565b6040805195865260208601949094528484019290925260608401526080830152519081900360a00190f35b6102b96004803603602081101561059a57600080fd5b5035600160a060020a03166115bc565b6102c36116a6565b610559600480360360408110156105c857600080fd5b50600160a060020a0381351690602001356116b5565b6102c36116ef565b61041e600480360360208110156105fc57600080fd5b5035600160a060020a03166116fe565b6102c3611713565b6102c3611722565b6102b96004803603602081101561063257600080fd5b5035600160a060020a0316611731565b6102e76004803603602081101561065857600080fd5b503561181b565b6102e761182d565b6102e76004803603602081101561067d57600080fd5b5035600160a060020a0316611833565b6102e7600480360360208110156106a357600080fd5b5035600160a060020a0316611845565b6102b9600480360360208110156106c957600080fd5b5035600160a060020a0316611857565b610559600480360360208110156106ef57600080fd5b5035611941565b6102b96004803603602081101561070c57600080fd5b5035600160a060020a0316611970565b6102e76004803603602081101561073257600080fd5b5035600160a060020a0316611ae5565b6102c3611af7565b61041e6004803603602081101561076057600080fd5b5035611b06565b6102c3611c12565b6102c3611c21565b6102e76004803603602081101561078d57600080fd5b5035611c30565b6102b9600480360360208110156107aa57600080fd5b5035600160a060020a0316611c42565b6102b9600480360360208110156107d057600080fd5b5035600160a060020a0316611d22565b6000546001546040805160e260020a633d9abf2b028152336004820152600160a060020a0393841660248201529290911660448301525173__AOLibrary_____________________________9163f66afcac916064808301926020929190829003018186803b15801561085257600080fd5b505af4158015610866573d6000803e3d6000fd5b505050506040513d602081101561087c57600080fd5b5051151561088957600080fd5b600160a060020a038116151561089e57600080fd5b60048054600160a060020a03909216600160a060020a03199283168117909155600e8054909216179055565b600a54600160a060020a031681565b60185481565b6000546001546040805160e260020a633d9abf2b028152336004820152600160a060020a0393841660248201529290911660448301525173__AOLibrary_____________________________9163f66afcac916064808301926020929190829003018186803b15801561095157600080fd5b505af4158015610965573d6000803e3d6000fd5b505050506040513d602081101561097b57600080fd5b5051151561098857600080fd5b600160a060020a038116151561099d57600080fd5b60088054600160a060020a03909216600160a060020a0319928316811790915560128054909216179055565b600454600160a060020a031681565b60286020526000908152604090205481565b602080526000908152604090205481565b601d6020526000908152604090205481565b600554600160a060020a031681565b6000546001546040805160e260020a633d9abf2b028152336004820152600160a060020a0393841660248201529290911660448301525173__AOLibrary_____________________________9163f66afcac916064808301926020929190829003018186803b158015610a8e57600080fd5b505af4158015610aa2573d6000803e3d6000fd5b505050506040513d6020811015610ab857600080fd5b50511515610ac557600080fd5b600160a060020a0381161515610ada57600080fd5b600a8054600160a060020a03909216600160a060020a0319928316811790915560148054909216179055565b600081815260256020908152604080832054602683528184205460279093529220549193909250565b600754600160a060020a031681565b3360009081526002602052604081205460ff161515600114610b5f57600080fd5b601654604080517f762fee18000000000000000000000000000000000000000000000000000000008152600481018590529051600160a060020a039092169163762fee1891602480820192602092909190829003018186803b158015610bc457600080fd5b505afa158015610bd8573d6000803e3d6000fd5b505050506040513d6020811015610bee57600080fd5b50511515610bfb57600080fd5b6000828152601b602052604090205460ff168015610c2857506000828152601c602052604090205460ff16155b1515610c3357600080fd5b6000828152601c6020526040808220805460ff19166001179055601654815160e060020a632dff0d0d028152600481018690529151839283928392600160a060020a0390911691632dff0d0d9160248083019286929190829003018186803b158015610c9e57600080fd5b505afa158015610cb2573d6000803e3d6000fd5b505050506040513d6000823e601f3d908101601f19168201604052610140811015610cdc57600080fd5b8151602083015160408401516060850151608086015160a087015160c088015160e08901805197999698959794969395929491939283019291640100000000811115610d2757600080fd5b82016020810184811115610d3a57600080fd5b8151640100000000811182820187101715610d5457600080fd5b5050929190602001805190602001909291908051906020019092919050505050505050955050509350935093506000601460009054906101000a9004600160a060020a0316600160a060020a0316632dff0d0d856040518263ffffffff1660e060020a028152600401808281526020019150506101006040518083038186803b158015610de057600080fd5b505afa158015610df4573d6000803e3d6000fd5b505050506040513d610100811015610e0b57600080fd5b50602001516015546040805160e060020a632dff0d0d028152600481018990529051929350600092600160a060020a0390921691632dff0d0d916024808201928692909190829003018186803b158015610e6457600080fd5b505afa158015610e78573d6000803e3d6000fd5b505050506040513d6000823e601f3d908101601f1916820160405260a0811015610ea157600080fd5b8151602083015160408401516060850180519395929491939183019291640100000000811115610ed057600080fd5b82016020810184811115610ee357600080fd5b8151640100000000811182820187101715610efd57600080fd5b50509291906020018051640100000000811115610f1957600080fd5b82016020810184811115610f2c57600080fd5b8151640100000000811182820187101715610f4657600080fd5b50506013546040805160e060020a632dff0d0d028152600481018f90529051979a5060009950600160a060020a039091169750632dff0d0d96602480830197508a96509094509084900301915082905086803b158015610fa557600080fd5b505afa158015610fb9573d6000803e3d6000fd5b505050506040513d6000823e601f3d908101601f19168201604052610120811015610fe357600080fd5b8151602083015160408401516060850151608086015160a087015160c088015160e08901516101008a018051989a979996989597949693959294919382019264010000000081111561103457600080fd5b8201602081018481111561104757600080fd5b815164010000000081118282018710171561106157600080fd5b50509291905050505050505050505091505061108486888b848811876000611e0c565b61109586888b848811866001611e0c565b6000546110b690879089908c9085891190600160a060020a03166002611e0c565b50600198975050505050505050565b600154600160a060020a031681565b6000546001546040805160e260020a633d9abf2b028152336004820152600160a060020a0393841660248201529290911660448301525173__AOLibrary_____________________________9163f66afcac916064808301926020929190829003018186803b15801561114657600080fd5b505af415801561115a573d6000803e3d6000fd5b505050506040513d602081101561117057600080fd5b5051151561117d57600080fd5b600160a060020a038216151561119257600080fd5b600160a060020a03919091166000908152600260205260409020805460ff1916911515919091179055565b6000546001546040805160e260020a633d9abf2b028152336004820152600160a060020a0393841660248201529290911660448301525173__AOLibrary_____________________________9163f66afcac916064808301926020929190829003018186803b15801561122f57600080fd5b505af4158015611243573d6000803e3d6000fd5b505050506040513d602081101561125957600080fd5b5051151561126657600080fd5b600160a060020a038116151561127b57600080fd5b60018054600160a060020a031916600160a060020a0392909216919091179055565b6000546001546040805160e260020a633d9abf2b028152336004820152600160a060020a0393841660248201529290911660448301525173__AOLibrary_____________________________9163f66afcac916064808301926020929190829003018186803b15801561130f57600080fd5b505af4158015611323573d6000803e3d6000fd5b505050506040513d602081101561133957600080fd5b5051151561134657600080fd5b600160a060020a038116151561135b57600080fd5b600d8054600160a060020a03909216600160a060020a0319928316811790915560178054909216179055565b60276020526000908152604090205481565b6000546001546040805160e260020a633d9abf2b028152336004820152600160a060020a0393841660248201529290911660448301525173__AOLibrary_____________________________9163f66afcac916064808301926020929190829003018186803b15801561140b57600080fd5b505af415801561141f573d6000803e3d6000fd5b505050506040513d602081101561143557600080fd5b5051151561144257600080fd5b600160a060020a038116151561145757600080fd5b60078054600160a060020a03909216600160a060020a0319928316811790915560118054909216179055565b60195481565b600954600160a060020a031681565b6000546001546040805160e260020a633d9abf2b028152336004820152600160a060020a0393841660248201529290911660448301525173__AOLibrary_____________________________9163f66afcac916064808301926020929190829003018186803b15801561150a57600080fd5b505af415801561151e573d6000803e3d6000fd5b505050506040513d602081101561153457600080fd5b5051151561154157600080fd5b600160a060020a038116151561155657600080fd5b60098054600160a060020a03909216600160a060020a0319928316811790915560138054909216179055565b6023602090815260009283526040808420909152908252902080546001820154600283015460038401546004909401549293919290919085565b6000546001546040805160e260020a633d9abf2b028152336004820152600160a060020a0393841660248201529290911660448301525173__AOLibrary_____________________________9163f66afcac916064808301926020929190829003018186803b15801561162e57600080fd5b505af4158015611642573d6000803e3d6000fd5b505050506040513d602081101561165857600080fd5b5051151561166557600080fd5b600160a060020a038116151561167a57600080fd5b60068054600160a060020a03909216600160a060020a0319928316811790915560108054909216179055565b600854600160a060020a031681565b6022602090815260009283526040808420909152908252902080546001820154600283015460038401546004909401549293919290919085565b600b54600160a060020a031681565b60026020526000908152604090205460ff1681565b600054600160a060020a031681565b600654600160a060020a031681565b6000546001546040805160e260020a633d9abf2b028152336004820152600160a060020a0393841660248201529290911660448301525173__AOLibrary_____________________________9163f66afcac916064808301926020929190829003018186803b1580156117a357600080fd5b505af41580156117b7573d6000803e3d6000fd5b505050506040513d60208110156117cd57600080fd5b505115156117da57600080fd5b600160a060020a03811615156117ef57600080fd5b600c8054600160a060020a03909216600160a060020a0319928316811790915560168054909216179055565b60256020526000908152604090205481565b601a5481565b60216020526000908152604090205481565b601f6020526000908152604090205481565b6000546001546040805160e260020a633d9abf2b028152336004820152600160a060020a0393841660248201529290911660448301525173__AOLibrary_____________________________9163f66afcac916064808301926020929190829003018186803b1580156118c957600080fd5b505af41580156118dd573d6000803e3d6000fd5b505050506040513d60208110156118f357600080fd5b5051151561190057600080fd5b600160a060020a038116151561191557600080fd5b600b8054600160a060020a03909216600160a060020a0319928316811790915560158054909216179055565b602460205260009081526040902080546001820154600283015460038401546004909401549293919290919085565b6000546001546040805160e260020a633d9abf2b028152336004820152600160a060020a0393841660248201529290911660448301525173__AOLibrary_____________________________9163f66afcac916064808301926020929190829003018186803b1580156119e257600080fd5b505af41580156119f6573d6000803e3d6000fd5b505050506040513d6020811015611a0c57600080fd5b50511515611a1957600080fd5b604080517f2fca5414000000000000000000000000000000000000000000000000000000008152600160a060020a0383166004820152905173__AOLibrary_____________________________91632fca5414916024808301926020929190829003018186803b158015611a8c57600080fd5b505af4158015611aa0573d6000803e3d6000fd5b505050506040513d6020811015611ab657600080fd5b50511515611ac357600080fd5b60038054600160a060020a031916600160a060020a0392909216919091179055565b601e6020526000908152604090205481565b600d54600160a060020a031681565b3360009081526002602052604081205460ff161515600114611b2757600080fd5b601654604080517f762fee18000000000000000000000000000000000000000000000000000000008152600481018590529051600160a060020a039092169163762fee1891602480820192602092909190829003018186803b158015611b8c57600080fd5b505afa158015611ba0573d6000803e3d6000fd5b505050506040513d6020811015611bb657600080fd5b50511515611bc357600080fd5b6000828152601b602052604090205460ff1615611bdf57600080fd5b6000828152601b60205260409020805460ff19166001179055611c01826126ed565b611c0a8261271c565b506001919050565b600c54600160a060020a031681565b600354600160a060020a031681565b60266020526000908152604090205481565b6000546001546040805160e260020a633d9abf2b028152336004820152600160a060020a0393841660248201529290911660448301525173__AOLibrary_____________________________9163f66afcac916064808301926020929190829003018186803b158015611cb457600080fd5b505af4158015611cc8573d6000803e3d6000fd5b505050506040513d6020811015611cde57600080fd5b50511515611ceb57600080fd5b600160a060020a0381161515611d0057600080fd5b60008054600160a060020a031916600160a060020a0392909216919091179055565b6000546001546040805160e260020a633d9abf2b028152336004820152600160a060020a0393841660248201529290911660448301525173__AOLibrary_____________________________9163f66afcac916064808301926020929190829003018186803b158015611d9457600080fd5b505af4158015611da8573d6000803e3d6000fd5b505050506040513d6020811015611dbe57600080fd5b50511515611dcb57600080fd5b600160a060020a0381161515611de057600080fd5b60058054600160a060020a03909216600160a060020a03199283168117909155600f8054909216179055565b60008160ff1610158015611e24575060028160ff1611155b1515611e2f57600080fd5b60008080808060ff861615156121ec57600160a060020a03871660009081526022602090815260408083208c8452909152812060018101805460028301805460038501805494879055918690559085905560048401949094559750919550909250611ea0868663ffffffff61322c16565b601854909450611eb6908563ffffffff61322c16565b601855600160a060020a0388166000908152601d6020526040902054611ee2908563ffffffff61322c16565b600160a060020a0389166000908152601d60209081526040808320939093558e8252602590522054611f1a908563ffffffff61322c16565b60008d8152602560205260409020558815611f7457600160a060020a0388166000908152602080526040902054611f57908563ffffffff61322c16565b600160a060020a0389166000908152602080526040902055611fb7565b600160a060020a0388166000908152601f6020526040902054611f9d908563ffffffff61322c16565b600160a060020a0389166000908152601f60205260409020555b600160a060020a038816600090815260216020526040902054611fe0908663ffffffff61322c16565b600160a060020a03808a1660008181526021602090815260408083209590955560115485517f40c10f19000000000000000000000000000000000000000000000000000000008152600481019490945260248401899052945194909316936340c10f19936044808501949193918390030190829087803b15801561206357600080fd5b505af1158015612077573d6000803e3d6000fd5b505050506040513d602081101561208d57600080fd5b5051151561209a57600080fd5b6040805184815290518b91600160a060020a038b16917f21c3387baaff2d916ae2cd1669d5f94fe9583036b96ef82acb3a4565815cfce89181900360200190a3600f546017546040805160e060020a63db536d2f028152600160a060020a038c81166004830152915193821693638a066045939092169163db536d2f91602480820192602092909190829003018186803b15801561213757600080fd5b505afa15801561214b573d6000803e3d6000fd5b505050506040513d602081101561216157600080fd5b50516040805160e060020a63ffffffff8516028152600160a060020a039092166004830152602482018890525160448083019260209291908290030181600087803b1580156121af57600080fd5b505af11580156121c3573d6000803e3d6000fd5b505050506040513d60208110156121d957600080fd5b505115156121e657600080fd5b50612691565b8560ff166001141561251a5750600160a060020a03861660009081526023602090815260408083208b845290915281206001810180546002830180546004850180549487905591869055600385018690559490559650919450612255868663ffffffff61322c16565b60195490945061226b908563ffffffff61322c16565b601955600160a060020a0388166000908152601e6020526040902054612297908563ffffffff61322c16565b600160a060020a0389166000908152601e60209081526040808320939093558e82526026905220546122cf908563ffffffff61322c16565b60008d8152602660209081526040808320939093558d82526028905220546122fd908563ffffffff61322c16565b60008c815260286020526040902055881561235757600160a060020a038816600090815260208052604090205461233a908563ffffffff61322c16565b600160a060020a038916600090815260208052604090205561239a565b600160a060020a0388166000908152601f6020526040902054612380908563ffffffff61322c16565b600160a060020a0389166000908152601f60205260409020555b600160a060020a0388166000908152602160205260409020546123c3908663ffffffff61322c16565b600160a060020a03808a1660008181526021602090815260408083209590955560125485517f40c10f19000000000000000000000000000000000000000000000000000000008152600481019490945260248401889052945194909316936340c10f19936044808501949193918390030190829087803b15801561244657600080fd5b505af115801561245a573d6000803e3d6000fd5b505050506040513d602081101561247057600080fd5b5051151561247d57600080fd5b6040805183815290518b91600160a060020a038b16917f2a9470ba36cb39f146ccc29717c9098e046e556211964a2454021d1d9fe9dd559181900360200190a3600f546017546040805160e060020a63db536d2f028152600160a060020a038c81166004830152915193821693638a066045939092169163db536d2f91602480820192602092909190829003018186803b15801561213757600080fd5b600089815260246020526040812060018101805460028301805492859055849055600383018490556004830193909355919650909450612560868663ffffffff61322c16565b601a54909450612576908563ffffffff61322c16565b601a55600160a060020a0388166000908152602160205260409020546125a2908663ffffffff61322c16565b600160a060020a0389166000908152602160209081526040808320939093558e82526027905220546125da908563ffffffff61322c16565b60008d815260276020908152604080832093909355600f5483517f8a066045000000000000000000000000000000000000000000000000000000008152600160a060020a038d81166004830152602482018a905294519490911693638a06604593604480840194938390030190829087803b15801561265857600080fd5b505af115801561266c573d6000803e3d6000fd5b505050506040513d602081101561268257600080fd5b5051151561268f57600080fd5b505b604080518681526020810186905260ff88168183015290518a91600160a060020a038a16917f212de36dcbb73c749ef074ec2565ecd3e461ebb1d28ea6021effdb8be7d44cda9181900360600190a35050505050505050505050565b6000806126f98361323f565b915091506000612709848461395f565b90506127168483836141dd565b50505050565b60006127266144e9565b509150506000612735836148e1565b90506000806000601660009054906101000a9004600160a060020a0316600160a060020a0316632dff0d0d876040518263ffffffff1660e060020a0281526004018082815260200191505060006040518083038186803b15801561279857600080fd5b505afa1580156127ac573d6000803e3d6000fd5b505050506040513d6000823e601f3d908101601f191682016040526101408110156127d657600080fd5b8151602083015160408401516060850151608086015160a087015160c088015160e0890180519799969895979496939592949193928301929164010000000081111561282157600080fd5b8201602081018481111561283457600080fd5b815164010000000081118282018710171561284e57600080fd5b50506014546040805160e060020a632dff0d0d028152600481018d905290519c9f509a9d50989b5060009a8b9a600160a060020a03909a1699632dff0d0d995060248082019950610100985091965086900301935084925088915050803b1580156128b857600080fd5b505afa1580156128cc573d6000803e3d6000fd5b505050506040513d6101008110156128e357600080fd5b50602081015160a0909101516015546040805160e060020a632dff0d0d028152600481018a90529051939550919350600092600160a060020a0390911691632dff0d0d9160248083019286929190829003018186803b15801561294557600080fd5b505afa158015612959573d6000803e3d6000fd5b505050506040513d6000823e601f3d908101601f1916820160405260a081101561298257600080fd5b81516020830151604084015160608501805193959294919391830192916401000000008111156129b157600080fd5b820160208101848111156129c457600080fd5b81516401000000008111828201871017156129de57600080fd5b505092919060200180516401000000008111156129fa57600080fd5b82016020810184811115612a0d57600080fd5b8151640100000000811182820187101715612a2757600080fd5b5050929190505050505092505050600087111561310957601354604080517f65cf0ace000000000000000000000000000000000000000000000000000000008152600481018790529051600092600160a060020a0316916365cf0ace916024808301926020929190829003018186803b158015612aa357600080fd5b505afa158015612ab7573d6000803e3d6000fd5b505050506040513d6020811015612acd57600080fd5b5051612ada576000612b6c565b612b6c73__AOLibrary_____________________________63caf297656040518163ffffffff1660e060020a02815260040160206040518083038186803b158015612b2457600080fd5b505af4158015612b38573d6000803e3d6000fd5b505050506040513d6020811015612b4e57600080fd5b5051612b608a8663ffffffff614c7a16565b9063ffffffff614ca316565b905060006022600086600160a060020a0316600160a060020a0316815260200190815260200160002060008c81526020019081526020016000209050818160020181905550600f60009054906101000a9004600160a060020a0316600160a060020a031663d6c9e189601760009054906101000a9004600160a060020a0316600160a060020a031663db536d2f886040518263ffffffff1660e060020a0281526004018082600160a060020a0316600160a060020a0316815260200191505060206040518083038186803b158015612c4357600080fd5b505afa158015612c57573d6000803e3d6000fd5b505050506040513d6020811015612c6d57600080fd5b505160028401546040805160e060020a63ffffffff8616028152600160a060020a03909316600484015260248301919091525160448083019260209291908290030181600087803b158015612cc157600080fd5b505af1158015612cd5573d6000803e3d6000fd5b505050506040513d6020811015612ceb57600080fd5b50511515612cf857600080fd5b6002810154604080518b8152602081018790528082019290925260006060830152518c91600160a060020a03881691600080516020614ccb8339815191529181900360800190a3600160a060020a03831660009081526023602090815260408083208e84529091529020612d728a8463ffffffff614cb816565b6002820155600f546017546040805160e060020a63db536d2f028152600160a060020a03888116600483015291519382169363d6c9e189939092169163db536d2f91602480820192602092909190829003018186803b158015612dd457600080fd5b505afa158015612de8573d6000803e3d6000fd5b505050506040513d6020811015612dfe57600080fd5b505160028401546040805160e060020a63ffffffff8616028152600160a060020a03909316600484015260248301919091525160448083019260209291908290030181600087803b158015612e5257600080fd5b505af1158015612e66573d6000803e3d6000fd5b505050506040513d6020811015612e7c57600080fd5b50511515612e8957600080fd5b8b84600160a060020a0316600080516020614ccb8339815191528c612f278973__AOLibrary_____________________________63caf297656040518163ffffffff1660e060020a02815260040160206040518083038186803b158015612eef57600080fd5b505af4158015612f03573d6000803e3d6000fd5b505050506040513d6020811015612f1957600080fd5b50519063ffffffff614cb816565b60028601546040805193845260208401929092528282015260016060830152519081900360800190a36000602460008e81526020019081526020016000209050612fed73__AOLibrary_____________________________63caf297656040518163ffffffff1660e060020a02815260040160206040518083038186803b158015612fb157600080fd5b505af4158015612fc5573d6000803e3d6000fd5b505050506040513d6020811015612fdb57600080fd5b5051612b608d8f63ffffffff614c7a16565b60028201819055600f5460008054604080517fd6c9e189000000000000000000000000000000000000000000000000000000008152600160a060020a03928316600482015260248101959095525192169263d6c9e1899260448083019360209383900390910190829087803b15801561306557600080fd5b505af1158015613079573d6000803e3d6000fd5b505050506040513d602081101561308f57600080fd5b5051151561309c57600080fd5b8c6000809054906101000a9004600160a060020a0316600160a060020a0316600080516020614ccb8339815191528d8f85600201546002604051808581526020018481526020018381526020018260ff16815260200194505050505060405180910390a350505050613221565b60408051600080825260208201859052818301819052606082015290518a91600160a060020a03861691600080516020614ccb8339815191529181900360800190a38881600160a060020a0316600080516020614ccb83398151915260006131b28673__AOLibrary_____________________________63caf297656040518163ffffffff1660e060020a02815260040160206040518083038186803b158015612eef57600080fd5b60408051928352602083019190915260008282015260016060830152519081900360800190a36000805460408051838152602081018c90528082019390935260026060840152518b92600160a060020a0390921691600080516020614ccb833981519152919081900360800190a35b505050505050505050565b8181018281101561323957fe5b92915050565b600080600061324c6144e9565b50509050600080600080601660009054906101000a9004600160a060020a0316600160a060020a0316632dff0d0d896040518263ffffffff1660e060020a0281526004018082815260200191505060006040518083038186803b1580156132b257600080fd5b505afa1580156132c6573d6000803e3d6000fd5b505050506040513d6000823e601f3d908101601f191682016040526101408110156132f057600080fd5b8151602083015160408401516060850151608086015160a087015160c088015160e0890180519799969895979496939592949193928301929164010000000081111561333b57600080fd5b8201602081018481111561334e57600080fd5b815164010000000081118282018710171561336857600080fd5b505092919060200180519060200190929190805190602001909291905050505050505050945094509450945050600080601460009054906101000a9004600160a060020a0316600160a060020a0316632dff0d0d876040518263ffffffff1660e060020a028152600401808281526020019150506101006040518083038186803b1580156133f557600080fd5b505afa158015613409573d6000803e3d6000fd5b505050506040513d61010081101561342057600080fd5b8101908080519060200190929190805190602001909291908051906020019092919080519060200190929190805190602001909291908051906020019092919080519060200190929190805190602001909291905050505050955050505092505060006022600084600160a060020a0316600160a060020a0316815260200190815260200160002060008c815260200190815260200160002090508a8160000181905550601360009054906101000a9004600160a060020a0316600160a060020a03166365cf0ace876040518263ffffffff1660e060020a0281526004018082815260200191505060206040518083038186803b15801561352057600080fd5b505afa158015613534573d6000803e3d6000fd5b505050506040513d602081101561354a57600080fd5b50516135575760006135dd565b6135dd73__AOLibrary_____________________________63caf297656040518163ffffffff1660e060020a02815260040160206040518083038186803b1580156135a157600080fd5b505af41580156135b5573d6000803e3d6000fd5b505050506040513d60208110156135cb57600080fd5b5051612b60868563ffffffff614c7a16565b816001018190555061375273__AOLibrary_____________________________63caf297656040518163ffffffff1660e060020a02815260040160206040518083038186803b15801561362f57600080fd5b505af4158015613643573d6000803e3d6000fd5b505050506040513d602081101561365957600080fd5b50516040805160e060020a63caf297650281529051612b609173__AOLibrary_____________________________9163caf2976591600480820192602092909190829003018186803b1580156136ae57600080fd5b505af41580156136c2573d6000803e3d6000fd5b505050506040513d60208110156136d857600080fd5b50516040805160e060020a63caf297650281529051612b60918e9161374691613739918b9173__AOLibrary_____________________________9163caf2976591600480820192602092909190829003018186803b158015612eef57600080fd5b8b9063ffffffff614c7a16565b9063ffffffff614c7a16565b6003820155600f546017546040805160e060020a63db536d2f028152600160a060020a0389811660048301529151938216936387d4ca93939092169163db536d2f91602480820192602092909190829003018186803b1580156137b457600080fd5b505afa1580156137c8573d6000803e3d6000fd5b505050506040513d60208110156137de57600080fd5b50516017546040805160e060020a63db536d2f028152600160a060020a0389811660048301529151919092169163db536d2f916024808301926020929190829003018186803b15801561383057600080fd5b505afa158015613844573d6000803e3d6000fd5b505050506040513d602081101561385a57600080fd5b505160018501546040805160e060020a63ffffffff8716028152600160a060020a03948516600482015293909216602484015260448301525160648083019260209291908290030181600087803b1580156138b457600080fd5b505af11580156138c8573d6000803e3d6000fd5b505050506040513d60208110156138de57600080fd5b505115156138eb57600080fd5b600181015460408051868152602081018590528082019290925260006060830152518c91600160a060020a038616917f2bc2599ff4713444a049b5e4a07d2cde6becf6e7fc7c4e041bc1cf36894f10ee9181900360800190a380600101548160030154995099505050505050505050915091565b60008061396a6144e9565b50506016546040805160e060020a632dff0d0d0281526004810188905290519293506000928392839283928392600160a060020a031691632dff0d0d9160248083019286929190829003018186803b1580156139c557600080fd5b505afa1580156139d9573d6000803e3d6000fd5b505050506040513d6000823e601f3d908101601f19168201604052610140811015613a0357600080fd5b8151602083015160408401516060850151608086015160a087015160c088015160e08901805197999698959794969395929491939283019291640100000000811115613a4e57600080fd5b82016020810184811115613a6157600080fd5b8151640100000000811182820187101715613a7b57600080fd5b505092919060200180519060200190929190805190602001909291905050505050505050945094509450945094506000601460009054906101000a9004600160a060020a0316600160a060020a0316632dff0d0d866040518263ffffffff1660e060020a028152600401808281526020019150506101006040518083038186803b158015613b0857600080fd5b505afa158015613b1c573d6000803e3d6000fd5b505050506040513d610100811015613b3357600080fd5b5060a001516015546040805160e060020a632dff0d0d028152600481018a90529051929350600092600160a060020a0390921691632dff0d0d916024808201928692909190829003018186803b158015613b8c57600080fd5b505afa158015613ba0573d6000803e3d6000fd5b505050506040513d6000823e601f3d908101601f1916820160405260a0811015613bc957600080fd5b8151602083015160408401516060850180519395929491939183019291640100000000811115613bf857600080fd5b82016020810184811115613c0b57600080fd5b8151640100000000811182820187101715613c2557600080fd5b50509291906020018051640100000000811115613c4157600080fd5b82016020810184811115613c5457600080fd5b8151640100000000811182820187101715613c6e57600080fd5b505092919050505050509250505060006023600083600160a060020a0316600160a060020a0316815260200190815260200160002060008d815260200190815260200160002090508b8160000181905550613cd28b85614cb890919063ffffffff16565b8160010181905550613de373__AOLibrary_____________________________63caf297656040518163ffffffff1660e060020a02815260040160206040518083038186803b158015613d2457600080fd5b505af4158015613d38573d6000803e3d6000fd5b505050506040513d6020811015613d4e57600080fd5b50516040805160e060020a63caf297650281529051612b609173__AOLibrary_____________________________9163caf2976591600480820192602092909190829003018186803b158015613da357600080fd5b505af4158015613db7573d6000803e3d6000fd5b505050506040513d6020811015613dcd57600080fd5b5051612b608d6137468a8a63ffffffff614c7a16565b600480830191909155601354604080517f65cf0ace00000000000000000000000000000000000000000000000000000000815292830189905251600160a060020a03909116916365cf0ace916024808301926020929190829003018186803b158015613e4e57600080fd5b505afa158015613e62573d6000803e3d6000fd5b505050506040513d6020811015613e7857600080fd5b50511561401857600f546017546040805160e060020a63db536d2f028152600160a060020a0389811660048301529151938216936387d4ca93939092169163db536d2f91602480820192602092909190829003018186803b158015613edc57600080fd5b505afa158015613ef0573d6000803e3d6000fd5b505050506040513d6020811015613f0657600080fd5b50516017546040805160e060020a63db536d2f028152600160a060020a0388811660048301529151919092169163db536d2f916024808301926020929190829003018186803b158015613f5857600080fd5b505afa158015613f6c573d6000803e3d6000fd5b505050506040513d6020811015613f8257600080fd5b505160018501546040805160e060020a63ffffffff8716028152600160a060020a03948516600482015293909216602484015260448301525160648083019260209291908290030181600087803b158015613fdc57600080fd5b505af1158015613ff0573d6000803e3d6000fd5b505050506040513d602081101561400657600080fd5b5051151561401357600080fd5b61412a565b600f546017546040805160e060020a63db536d2f028152600160a060020a03868116600483015291519382169363d6c9e189939092169163db536d2f91602480820192602092909190829003018186803b15801561407557600080fd5b505afa158015614089573d6000803e3d6000fd5b505050506040513d602081101561409f57600080fd5b505160018401546040805160e060020a63ffffffff8616028152600160a060020a03909316600484015260248301919091525160448083019260209291908290030181600087803b1580156140f357600080fd5b505af1158015614107573d6000803e3d6000fd5b505050506040513d602081101561411d57600080fd5b5051151561412a57600080fd5b8b82600160a060020a03167f2bc2599ff4713444a049b5e4a07d2cde6becf6e7fc7c4e041bc1cf36894f10ee866141a28773__AOLibrary_____________________________63caf297656040518163ffffffff1660e060020a02815260040160206040518083038186803b158015612eef57600080fd5b600180870154604080519485526020850193909352838301526060830152519081900360800190a3600401549b9a5050505050505050505050565b60006141e76144e9565b6016546040805160e060020a632dff0d0d028152600481018a9052905192955060009450600160a060020a039091169250632dff0d0d9160248083019286929190829003018186803b15801561423c57600080fd5b505afa158015614250573d6000803e3d6000fd5b505050506040513d6000823e601f3d908101601f1916820160405261014081101561427a57600080fd5b8151602083015160408401516060850151608086015160a087015160c088015160e089018051979996989597949693959294919392830192916401000000008111156142c557600080fd5b820160208101848111156142d857600080fd5b81516401000000008111828201871017156142f257600080fd5b50509291906020018051906020019092919080519060200190929190505050505050505094505050505060006024600087815260200190815260200160002090508581600001819055506143d26143c573__AOLibrary_____________________________63caf297656040518163ffffffff1660e060020a02815260040160206040518083038186803b15801561438957600080fd5b505af415801561439d573d6000803e3d6000fd5b505050506040513d60208110156143b357600080fd5b5051612b60878763ffffffff614c7a16565b869063ffffffff61322c16565b60018201819055600f5460008054604080517fd6c9e189000000000000000000000000000000000000000000000000000000008152600160a060020a03928316600482015260248101959095525192169263d6c9e1899260448083019360209383900390910190829087803b15801561444a57600080fd5b505af115801561445e573d6000803e3d6000fd5b505050506040513d602081101561447457600080fd5b5051151561448157600080fd5b6000805460018301546040805186815260208101949094528381019190915260026060840152518892600160a060020a03909216917f2bc2599ff4713444a049b5e4a07d2cde6becf6e7fc7c4e041bc1cf36894f10ee919081900360800190a3505050505050565b600e54600354604080517f7065bedc000000000000000000000000000000000000000000000000000000008152600160a060020a03928316600482015260248101829052600d60448201527f696e666c6174696f6e5261746500000000000000000000000000000000000000606482015290516000938493849384939190921691637065bedc9160848083019286929190829003018186803b15801561458e57600080fd5b505afa1580156145a2573d6000803e3d6000fd5b505050506040513d6000823e601f3d908101601f1916820160405260a08110156145cb57600080fd5b81516020830151604084015160608501516080860180519496939592949193928301929164010000000081111561460157600080fd5b8201602081018481111561461457600080fd5b815164010000000081118282018710171561462e57600080fd5b5050600e54600354604080517f7065bedc000000000000000000000000000000000000000000000000000000008152600160a060020a03928316600482015260248101829052600860448201527f746865414f437574000000000000000000000000000000000000000000000000606482015290519a9b5060009a919092169850637065bedc9750608480830197508a96509094509084900301915082905086803b1580156146dc57600080fd5b505afa1580156146f0573d6000803e3d6000fd5b505050506040513d6000823e601f3d908101601f1916820160405260a081101561471957600080fd5b81516020830151604084015160608501516080860180519496939592949193928301929164010000000081111561474f57600080fd5b8201602081018481111561476257600080fd5b815164010000000081118282018710171561477c57600080fd5b5050600e54600354604080517f7065bedc000000000000000000000000000000000000000000000000000000008152600160a060020a03928316600482015260248101829052601460448201527f746865414f4574686f734561726e656452617465000000000000000000000000606482015290519a9b5060009a919092169850637065bedc9750608480830197508a96509094509084900301915082905086803b15801561482a57600080fd5b505afa15801561483e573d6000803e3d6000fd5b505050506040513d6000823e601f3d908101601f1916820160405260a081101561486757600080fd5b81516020830151604084015160608501516080860180519496939592949193928301929164010000000081111561489d57600080fd5b820160208101848111156148b057600080fd5b81516401000000008111828201871017156148ca57600080fd5b509a9e999d50969b50979950505050505050505050565b6000806148ec6144e9565b50506016546040805160e060020a632dff0d0d028152600481018790529051929350600092600160a060020a0390921691632dff0d0d916024808201928692909190829003018186803b15801561494257600080fd5b505afa158015614956573d6000803e3d6000fd5b505050506040513d6000823e601f3d908101601f1916820160405261014081101561498057600080fd5b8151602083015160408401516060850151608086015160a087015160c088015160e089018051979996989597949693959294919392830192916401000000008111156149cb57600080fd5b820160208101848111156149de57600080fd5b81516401000000008111828201871017156149f857600080fd5b50506014546040805160e060020a632dff0d0d028152600481018d905290519b9d5060009c508c9b8c9b50600160a060020a039092169950632dff0d0d9850602480820198506101009750919550859003019250839150879050803b158015614a6057600080fd5b505afa158015614a74573d6000803e3d6000fd5b505050506040513d610100811015614a8b57600080fd5b506040808201516060830151608090930151825160e060020a63caf297650281529251919650929450919250600091614b369173__AOLibrary_____________________________9163caf2976591600480820192602092909190829003018186803b158015614afa57600080fd5b505af4158015614b0e573d6000803e3d6000fd5b505050506040513d6020811015614b2457600080fd5b5051612b60868963ffffffff614c7a16565b90506000614c5b73__AOLibrary_____________________________63caf297656040518163ffffffff1660e060020a02815260040160206040518083038186803b158015614b8457600080fd5b505af4158015614b98573d6000803e3d6000fd5b505050506040513d6020811015614bae57600080fd5b5051604080517fd661dd310000000000000000000000000000000000000000000000000000000081529051612b60918b916137469173__AOLibrary_____________________________9163d661dd3191600480820192602092909190829003018186803b158015614c1f57600080fd5b505af4158015614c33573d6000803e3d6000fd5b505050506040513d6020811015614c4957600080fd5b5051612b608a8a63ffffffff614c7a16565b9050614c6d828263ffffffff61322c16565b9998505050505050505050565b6000821515614c8b57506000613239565b50818102818382811515614c9b57fe5b041461323957fe5b60008183811515614cb057fe5b049392505050565b600082821115614cc457fe5b5090039056fedf9b18b8b292e153b0dfff6e1d71024ca7486117e59c0bbaf074ad370deebd1ca165627a7a7230582094ac6a833bd6ac0fd4c8ce854e2f2228e88f8decc285e658e03e0e84e71851190029",
	"source": "pragma solidity >=0.5.4 <0.6.0;\n\nimport './SafeMath.sol';\nimport './AOLibrary.sol';\nimport './TheAO.sol';\nimport './IAOEarning.sol';\nimport './IAOSetting.sol';\nimport './AOIon.sol';\nimport './INameFactory.sol';\nimport './Pathos.sol';\nimport './Ethos.sol';\nimport './IAOContent.sol';\nimport './IAOStakedContent.sol';\nimport './IAOContentHost.sol';\nimport './IAOPurchaseReceipt.sol';\nimport './INamePublicKey.sol';\n\n/**\n * @title AOEarning\n *\n * This contract stores the earning from staking/hosting content on AO\n */\ncontract AOEarning is TheAO, IAOEarning {\n\tusing SafeMath for uint256;\n\n\taddress public settingTAOId;\n\taddress public aoSettingAddress;\n\taddress public aoIonAddress;\n\taddress public nameFactoryAddress;\n\taddress public pathosAddress;\n\taddress public ethosAddress;\n\taddress public aoContentAddress;\n\taddress public aoStakedContentAddress;\n\taddress public aoContentHostAddress;\n\taddress public aoPurchaseReceiptAddress;\n\taddress public namePublicKeyAddress;\n\n\tIAOSetting internal _aoSetting;\n\tAOIon internal _aoIon;\n\tINameFactory internal _nameFactory;\n\tPathos internal _pathos;\n\tEthos internal _ethos;\n\tIAOContent internal _aoContent;\n\tIAOStakedContent internal _aoStakedContent;\n\tIAOContentHost internal _aoContentHost;\n\tIAOPurchaseReceipt internal _aoPurchaseReceipt;\n\tINamePublicKey internal _namePublicKey;\n\n\t// Total earning from staking content from all nodes\n\tuint256 public totalStakedContentEarning;\n\n\t// Total earning from hosting content from all nodes\n\tuint256 public totalContentHostEarning;\n\n\t// Total The AO earning\n\tuint256 public totalTheAOEarning;\n\n\t// Mapping from PurchaseReceipt ID to its escrowed earning status\n\tmapping (bytes32 => bool) internal purchaseReceiptEarningEscrowed;\n\n\t// Mapping from PurchaseReceipt ID to its unescrowed earning status\n\tmapping (bytes32 => bool) internal purchaseReceiptEarningUnescrowed;\n\n\t// Mapping from address to his/her earning from content that he/she staked\n\tmapping (address => uint256) public ownerStakedContentEarning;\n\n\t// Mapping from address to his/her earning from content that he/she hosted\n\tmapping (address => uint256) public ownerContentHostEarning;\n\n\t// Mapping from address to his/her network price earning\n\t// i.e, when staked amount = filesize\n\tmapping (address => uint256) public ownerNetworkPriceEarning;\n\n\t// Mapping from address to his/her content price earning\n\t// i.e, when staked amount > filesize\n\tmapping (address => uint256) public ownerContentPriceEarning;\n\n\t// Mapping from address to his/her inflation bonus\n\tmapping (address => uint256) public ownerInflationBonusAccrued;\n\n\tstruct Earning {\n\t\tbytes32 purchaseReceiptId;\n\t\tuint256 paymentEarning;\n\t\tuint256 inflationBonus;\n\t\tuint256 pathosAmount;\n\t\tuint256 ethosAmount;\n\t}\n\n\t// Mapping from address to earning from staking content of a PurchaseReceipt ID\n\tmapping (address => mapping(bytes32 => Earning)) public ownerPurchaseReceiptStakeEarnings;\n\n\t// Mapping from address to earning from hosting content of a PurchaseReceipt ID\n\tmapping (address => mapping(bytes32 => Earning)) public ownerPurchaseReceiptHostEarnings;\n\n\t// Mapping from PurchaaseReceipt ID to earning for The AO\n\tmapping (bytes32 => Earning) public theAOPurchaseReceiptEarnings;\n\n\t// Mapping from StakedContent ID to it's total earning from staking\n\tmapping (bytes32 => uint256) public stakedContentStakeEarning;\n\n\t// Mapping from StakedContent ID to it's total earning from hosting\n\tmapping (bytes32 => uint256) public stakedContentHostEarning;\n\n\t// Mapping from StakedContent ID to it's total earning earned by The AO\n\tmapping (bytes32 => uint256) public stakedContentTheAOEarning;\n\n\t// Mapping from content host ID to it's total earning\n\tmapping (bytes32 => uint256) public contentHostEarning;\n\n\t// Event to be broadcasted to public when content creator/host earns the payment split in escrow when request node buys the content\n\t// recipientType:\n\t// 0 => Content Creator (Stake Owner)\n\t// 1 => Node Host\n\t// 2 => The AO\n\tevent PaymentEarningEscrowed(address indexed recipient, bytes32 indexed purchaseReceiptId, uint256 price, uint256 recipientProfitPercentage, uint256 recipientPaymentEarning, uint8 recipientType);\n\n\t// Event to be broadcasted to public when content creator/host/The AO earns inflation bonus in escrow when request node buys the content\n\t// recipientType:\n\t// 0 => Content Creator (Stake Owner)\n\t// 1 => Node Host\n\t// 2 => The AO\n\tevent InflationBonusEscrowed(address indexed recipient, bytes32 indexed purchaseReceiptId, uint256 totalInflationBonusAmount, uint256 recipientProfitPercentage, uint256 recipientInflationBonus, uint8 recipientType);\n\n\t// Event to be broadcasted to public when content creator/host/The AO earning is released from escrow\n\t// recipientType:\n\t// 0 => Content Creator (Stake Owner)\n\t// 1 => Node Host\n\t// 2 => The AO\n\tevent EarningUnescrowed(address indexed recipient, bytes32 indexed purchaseReceiptId, uint256 paymentEarning, uint256 inflationBonus, uint8 recipientType);\n\n\t// Event to be broadcasted to public when content creator's Name earns Pathos when a node buys a content\n\tevent PathosEarned(address indexed nameId, bytes32 indexed purchaseReceiptId, uint256 amount);\n\n\t// Event to be broadcasted to public when host's Name earns Ethos when a node buys a content\n\tevent EthosEarned(address indexed nameId, bytes32 indexed purchaseReceiptId, uint256 amount);\n\n\t/**\n\t * @dev Constructor function\n\t * @param _settingTAOId The TAO ID that controls the setting\n\t * @param _aoSettingAddress The address of AOSetting\n\t * @param _aoIonAddress The address of AOIon\n\t * @param _nameFactoryAddress The address of NameFactory\n\t * @param _pathosAddress The address of Pathos\n\t * @param _ethosAddress The address of Ethos\n\t * @param _namePublicKeyAddress The address of NamePublicKey\n\t * @param _nameTAOPositionAddress The address of NameTAOPosition\n\t */\n\tconstructor(address _settingTAOId,\n\t\taddress _aoSettingAddress,\n\t\taddress _aoIonAddress,\n\t\taddress _nameFactoryAddress,\n\t\taddress _pathosAddress,\n\t\taddress _ethosAddress,\n\t\taddress _aoContentAddress,\n\t\taddress _namePublicKeyAddress,\n\t\taddress _nameTAOPositionAddress) public {\n\t\tsetSettingTAOId(_settingTAOId);\n\t\tsetAOSettingAddress(_aoSettingAddress);\n\t\tsetAOIonAddress(_aoIonAddress);\n\t\tsetNameFactoryAddress(_nameFactoryAddress);\n\t\tsetPathosAddress(_pathosAddress);\n\t\tsetEthosAddress(_ethosAddress);\n\t\tsetAOContentAddress(_aoContentAddress);\n\t\tsetNamePublicKeyAddress(_namePublicKeyAddress);\n\t\tsetNameTAOPositionAddress(_nameTAOPositionAddress);\n\t}\n\n\t/**\n\t * @dev Checks if the calling contract address is The AO\n\t *\t\tOR\n\t *\t\tIf The AO is set to a Name/TAO, then check if calling address is the Advocate\n\t */\n\tmodifier onlyTheAO {\n\t\trequire (AOLibrary.isTheAO(msg.sender, theAO, nameTAOPositionAddress));\n\t\t_;\n\t}\n\n\t/***** The AO ONLY METHODS *****/\n\t/**\n\t * @dev Transfer ownership of The AO to new address\n\t * @param _theAO The new address to be transferred\n\t */\n\tfunction transferOwnership(address _theAO) public onlyTheAO {\n\t\trequire (_theAO != address(0));\n\t\ttheAO = _theAO;\n\t}\n\n\t/**\n\t * @dev Whitelist `_account` address to transact on behalf of others\n\t * @param _account The address to whitelist\n\t * @param _whitelist Either to whitelist or not\n\t */\n\tfunction setWhitelist(address _account, bool _whitelist) public onlyTheAO {\n\t\trequire (_account != address(0));\n\t\twhitelist[_account] = _whitelist;\n\t}\n\n\t/**\n\t * @dev The AO sets setting TAO ID\n\t * @param _settingTAOId The new setting TAO ID to set\n\t */\n\tfunction setSettingTAOId(address _settingTAOId) public onlyTheAO {\n\t\trequire (AOLibrary.isTAO(_settingTAOId));\n\t\tsettingTAOId = _settingTAOId;\n\t}\n\n\t/**\n\t * @dev The AO sets AO Setting address\n\t * @param _aoSettingAddress The address of AOSetting\n\t */\n\tfunction setAOSettingAddress(address _aoSettingAddress) public onlyTheAO {\n\t\trequire (_aoSettingAddress != address(0));\n\t\taoSettingAddress = _aoSettingAddress;\n\t\t_aoSetting = IAOSetting(_aoSettingAddress);\n\t}\n\n\t/**\n\t * @dev The AO sets AOIon address\n\t * @param _aoIonAddress The address of AOIon\n\t */\n\tfunction setAOIonAddress(address _aoIonAddress) public onlyTheAO {\n\t\trequire (_aoIonAddress != address(0));\n\t\taoIonAddress = _aoIonAddress;\n\t\t_aoIon = AOIon(_aoIonAddress);\n\t}\n\n\t/**\n\t * @dev The AO sets NameFactory address\n\t * @param _nameFactoryAddress The address of NameFactory\n\t */\n\tfunction setNameFactoryAddress(address _nameFactoryAddress) public onlyTheAO {\n\t\trequire (_nameFactoryAddress != address(0));\n\t\tnameFactoryAddress = _nameFactoryAddress;\n\t\t_nameFactory = INameFactory(_nameFactoryAddress);\n\t}\n\n\t/**\n\t * @dev The AO sets Pathos address\n\t * @param _pathosAddress The address of Pathos\n\t */\n\tfunction setPathosAddress(address _pathosAddress) public onlyTheAO {\n\t\trequire (_pathosAddress != address(0));\n\t\tpathosAddress = _pathosAddress;\n\t\t_pathos = Pathos(_pathosAddress);\n\t}\n\n\t/**\n\t * @dev The AO sets Ethos address\n\t * @param _ethosAddress The address of Ethos\n\t */\n\tfunction setEthosAddress(address _ethosAddress) public onlyTheAO {\n\t\trequire (_ethosAddress != address(0));\n\t\tethosAddress = _ethosAddress;\n\t\t_ethos = Ethos(_ethosAddress);\n\t}\n\n\t/**\n\t * @dev The AO sets AOContent address\n\t * @param _aoContentAddress The address of AOContent\n\t */\n\tfunction setAOContentAddress(address _aoContentAddress) public onlyTheAO {\n\t\trequire (_aoContentAddress != address(0));\n\t\taoContentAddress = _aoContentAddress;\n\t\t_aoContent = IAOContent(_aoContentAddress);\n\t}\n\n\t/**\n\t * @dev The AO sets AOStakedContent address\n\t * @param _aoStakedContentAddress The address of AOStakedContent\n\t */\n\tfunction setAOStakedContentAddress(address _aoStakedContentAddress) public onlyTheAO {\n\t\trequire (_aoStakedContentAddress != address(0));\n\t\taoStakedContentAddress = _aoStakedContentAddress;\n\t\t_aoStakedContent = IAOStakedContent(_aoStakedContentAddress);\n\t}\n\n\t/**\n\t * @dev The AO sets AOContentHost address\n\t * @param _aoContentHostAddress The address of AOContentHost\n\t */\n\tfunction setAOContentHostAddress(address _aoContentHostAddress) public onlyTheAO {\n\t\trequire (_aoContentHostAddress != address(0));\n\t\taoContentHostAddress = _aoContentHostAddress;\n\t\t_aoContentHost = IAOContentHost(_aoContentHostAddress);\n\t}\n\n\t/**\n\t * @dev The AO sets AOPurchaseReceipt address\n\t * @param _aoPurchaseReceiptAddress The address of AOPurchaseReceipt\n\t */\n\tfunction setAOPurchaseReceiptAddress(address _aoPurchaseReceiptAddress) public onlyTheAO {\n\t\trequire (_aoPurchaseReceiptAddress != address(0));\n\t\taoPurchaseReceiptAddress = _aoPurchaseReceiptAddress;\n\t\t_aoPurchaseReceipt = IAOPurchaseReceipt(_aoPurchaseReceiptAddress);\n\t}\n\n\t/**\n\t * @dev The AO sets NamePublicKey address\n\t * @param _namePublicKeyAddress The address of NamePublicKey\n\t */\n\tfunction setNamePublicKeyAddress(address _namePublicKeyAddress) public onlyTheAO {\n\t\trequire (_namePublicKeyAddress != address(0));\n\t\tnamePublicKeyAddress = _namePublicKeyAddress;\n\t\t_namePublicKey = INamePublicKey(_namePublicKeyAddress);\n\t}\n\n\t/**\n\t * @dev The AO set the NameTAOPosition Address\n\t * @param _nameTAOPositionAddress The address of NameTAOPosition\n\t */\n\tfunction setNameTAOPositionAddress(address _nameTAOPositionAddress) public onlyTheAO {\n\t\trequire (_nameTAOPositionAddress != address(0));\n\t\tnameTAOPositionAddress = _nameTAOPositionAddress;\n\t}\n\n\t/***** PUBLIC METHODS *****/\n\t/**\n\t * @dev Calculate the content creator/host/The AO earning when request node buys the content.\n\t *\t\tAlso at this stage, all of the earnings are stored in escrow\n\t * @param _purchaseReceiptId The ID of the purchase receipt object\n\t * @return true on success\n\t */\n\tfunction calculateEarning(bytes32 _purchaseReceiptId) external inWhitelist returns (bool) {\n\t\trequire (_aoPurchaseReceipt.isExist(_purchaseReceiptId));\n\t\trequire (!purchaseReceiptEarningEscrowed[_purchaseReceiptId]);\n\t\tpurchaseReceiptEarningEscrowed[_purchaseReceiptId] = true;\n\n\t\t// Split the payment earning between content creator and host and store them in escrow\n\t\t_escrowPaymentEarning(_purchaseReceiptId);\n\n\t\t// Calculate the inflation bonus earning for content creator/node/The AO in escrow\n\t\t_escrowInflationBonus(_purchaseReceiptId);\n\t\treturn true;\n\t}\n\n\t/**\n\t * @dev Release the payment earning and inflation bonus that is in escrow for specific PurchaseReceipt ID\n\t * @param _purchaseReceiptId The purchase receipt ID to check\n\t * @return true on success\n\t */\n\tfunction releaseEarning(bytes32 _purchaseReceiptId) external inWhitelist returns (bool) {\n\t\trequire (_aoPurchaseReceipt.isExist(_purchaseReceiptId));\n\t\trequire (purchaseReceiptEarningEscrowed[_purchaseReceiptId] && !purchaseReceiptEarningUnescrowed[_purchaseReceiptId]);\n\t\tpurchaseReceiptEarningUnescrowed[_purchaseReceiptId] = true;\n\n\t\t(bytes32 _contentHostId, bytes32 _stakedContentId, bytes32 _contentId,,, uint256 _amountPaidByBuyer,,,,) = _aoPurchaseReceipt.getById(_purchaseReceiptId);\n\t\t(, address _stakeOwner,,,,,,) = _aoStakedContent.getById(_stakedContentId);\n\t\t(,, address _host,,) = _aoContentHost.getById(_contentHostId);\n\t\t(, uint256 _fileSize,,,,,,,) = _aoContent.getById(_contentId);\n\n\t\t// Release the earning in escrow for stake owner\n\t\t_releaseEarning(_stakedContentId, _contentHostId, _purchaseReceiptId, _amountPaidByBuyer > _fileSize, _stakeOwner, 0);\n\n\t\t// Release the earning in escrow for host\n\t\t_releaseEarning(_stakedContentId, _contentHostId, _purchaseReceiptId, _amountPaidByBuyer > _fileSize, _host, 1);\n\n\t\t// Release the earning in escrow for The AO\n\t\t_releaseEarning(_stakedContentId, _contentHostId, _purchaseReceiptId, _amountPaidByBuyer > _fileSize, theAO, 2);\n\t\treturn true;\n\t}\n\n\t/**\n\t * @dev Return the earning information of a StakedContent ID\n\t * @param _stakedContentId The ID of the staked content\n\t * @return the total earning from staking this content\n\t * @return the total earning from hosting this content\n\t * @return the total The AO earning of this content\n\t */\n\tfunction getTotalStakedContentEarning(bytes32 _stakedContentId) external view returns (uint256, uint256, uint256) {\n\t\treturn (\n\t\t\tstakedContentStakeEarning[_stakedContentId],\n\t\t\tstakedContentHostEarning[_stakedContentId],\n\t\t\tstakedContentTheAOEarning[_stakedContentId]\n\t\t);\n\t}\n\n\t/***** INTERNAL METHODS *****/\n\t/**\n\t * @dev Calculate the payment split for content creator/host and store them in escrow\n\t * @param _purchaseReceiptId The ID of the purchase receipt object\n\t */\n\tfunction _escrowPaymentEarning(bytes32 _purchaseReceiptId) internal {\n\t\t(uint256 _stakeOwnerEarning, uint256 _pathosAmount) = _escrowStakeOwnerPaymentEarning(_purchaseReceiptId);\n\t\t(uint256 _ethosAmount) = _escrowHostPaymentEarning(_purchaseReceiptId, _stakeOwnerEarning);\n\t\t_escrowTheAOPaymentEarning(_purchaseReceiptId, _pathosAmount, _ethosAmount);\n\t}\n\n\t/**\n\t * @dev Calculate the payment split for content creator and store them in escrow\n\t * @param _purchaseReceiptId The ID of the purchase receipt object\n\t * @return The stake owner's earning amount\n\t * @return The pathos earned from this transaction\n\t */\n\tfunction _escrowStakeOwnerPaymentEarning(bytes32 _purchaseReceiptId) internal returns (uint256, uint256) {\n\t\t(uint256 inflationRate,,) = _getSettingVariables();\n\t\t(, bytes32 _stakedContentId, bytes32 _contentId, address _buyer, uint256 _price,,,,,) = _aoPurchaseReceipt.getById(_purchaseReceiptId);\n\t\t(, address _stakeOwner,,,, uint256 _profitPercentage,,) = _aoStakedContent.getById(_stakedContentId);\n\n\t\tEarning storage _ownerPurchaseReceiptStakeEarning = ownerPurchaseReceiptStakeEarnings[_stakeOwner][_purchaseReceiptId];\n\t\t_ownerPurchaseReceiptStakeEarning.purchaseReceiptId = _purchaseReceiptId;\n\n\t\t// Store how much the content creator (stake owner) earns in escrow\n\t\t// If content is AO Content Usage Type, stake owner earns 0%\n\t\t// and all profit goes to the serving host node\n\t\t_ownerPurchaseReceiptStakeEarning.paymentEarning = _aoContent.isAOContentUsageType(_contentId) ? (_price.mul(_profitPercentage)).div(AOLibrary.PERCENTAGE_DIVISOR()) : 0;\n\t\t// Pathos = Price X Node Share X Inflation Rate\n\t\t_ownerPurchaseReceiptStakeEarning.pathosAmount = _price.mul(AOLibrary.PERCENTAGE_DIVISOR().sub(_profitPercentage)).mul(inflationRate).div(AOLibrary.PERCENTAGE_DIVISOR()).div(AOLibrary.PERCENTAGE_DIVISOR());\n\t\trequire (_aoIon.escrowFrom(_namePublicKey.getDefaultKey(_buyer), _namePublicKey.getDefaultKey(_stakeOwner), _ownerPurchaseReceiptStakeEarning.paymentEarning));\n\t\temit PaymentEarningEscrowed(_stakeOwner, _purchaseReceiptId, _price, _profitPercentage, _ownerPurchaseReceiptStakeEarning.paymentEarning, 0);\n\t\treturn (_ownerPurchaseReceiptStakeEarning.paymentEarning, _ownerPurchaseReceiptStakeEarning.pathosAmount);\n\t}\n\n\t/**\n\t * @dev Calculate the payment split for host node and store them in escrow\n\t * @param _purchaseReceiptId The ID of the purchase receipt object\n\t * @param _stakeOwnerEarning The stake owner's earning amount\n\t * @return The ethos earned from this transaction\n\t */\n\tfunction _escrowHostPaymentEarning(bytes32 _purchaseReceiptId, uint256 _stakeOwnerEarning) internal returns (uint256) {\n\t\t(uint256 inflationRate,,) = _getSettingVariables();\n\t\t(bytes32 _contentHostId, bytes32 _stakedContentId, bytes32 _contentId, address _buyer, uint256 _price,,,,,) = _aoPurchaseReceipt.getById(_purchaseReceiptId);\n\t\t(,,,,, uint256 _profitPercentage,,) = _aoStakedContent.getById(_stakedContentId);\n\t\t(,, address _host,,) = _aoContentHost.getById(_contentHostId);\n\n\t\t// Store how much the node host earns in escrow\n\t\tEarning storage _ownerPurchaseReceiptHostEarning = ownerPurchaseReceiptHostEarnings[_host][_purchaseReceiptId];\n\t\t_ownerPurchaseReceiptHostEarning.purchaseReceiptId = _purchaseReceiptId;\n\t\t_ownerPurchaseReceiptHostEarning.paymentEarning = _price.sub(_stakeOwnerEarning);\n\t\t// Ethos = Price X Creator Share X Inflation Rate\n\t\t_ownerPurchaseReceiptHostEarning.ethosAmount = _price.mul(_profitPercentage).mul(inflationRate).div(AOLibrary.PERCENTAGE_DIVISOR()).div(AOLibrary.PERCENTAGE_DIVISOR());\n\n\t\tif (_aoContent.isAOContentUsageType(_contentId)) {\n\t\t\trequire (_aoIon.escrowFrom(_namePublicKey.getDefaultKey(_buyer), _namePublicKey.getDefaultKey(_host), _ownerPurchaseReceiptHostEarning.paymentEarning));\n\t\t} else {\n\t\t\t// If not AO Content usage type, we want to mint to the host\n\t\t\trequire (_aoIon.mintEscrow(_namePublicKey.getDefaultKey(_host), _ownerPurchaseReceiptHostEarning.paymentEarning));\n\t\t}\n\t\temit PaymentEarningEscrowed(_host, _purchaseReceiptId, _price, AOLibrary.PERCENTAGE_DIVISOR().sub(_profitPercentage), _ownerPurchaseReceiptHostEarning.paymentEarning, 1);\n\t\treturn _ownerPurchaseReceiptHostEarning.ethosAmount;\n\t}\n\n\t/**\n\t * @dev Calculate the earning for The AO and store them in escrow\n\t * @param _purchaseReceiptId The ID of the purchase receipt object\n\t * @param _pathosAmount The amount of pathos earned by stake owner\n\t * @param _ethosAmount The amount of ethos earned by host node\n\t */\n\tfunction _escrowTheAOPaymentEarning(bytes32 _purchaseReceiptId, uint256 _pathosAmount, uint256 _ethosAmount) internal {\n\t\t(,,uint256 theAOEthosEarnedRate) = _getSettingVariables();\n\t\t(,,,, uint256 _price,,,,,) = _aoPurchaseReceipt.getById(_purchaseReceiptId);\n\n\t\t// Store how much The AO earns in escrow\n\t\tEarning storage _theAOPurchaseReceiptEarning = theAOPurchaseReceiptEarnings[_purchaseReceiptId];\n\t\t_theAOPurchaseReceiptEarning.purchaseReceiptId = _purchaseReceiptId;\n\t\t// Pathos + X% of Ethos\n\t\t_theAOPurchaseReceiptEarning.paymentEarning = _pathosAmount.add(_ethosAmount.mul(theAOEthosEarnedRate).div(AOLibrary.PERCENTAGE_DIVISOR()));\n\t\trequire (_aoIon.mintEscrow(theAO, _theAOPurchaseReceiptEarning.paymentEarning));\n\t\temit PaymentEarningEscrowed(theAO, _purchaseReceiptId, _price, 0, _theAOPurchaseReceiptEarning.paymentEarning, 2);\n\t}\n\n\t/**\n\t * @dev Mint the inflation bonus for content creator/host/The AO and store them in escrow\n\t * @param _purchaseReceiptId The ID of the purchase receipt object\n\t */\n\tfunction _escrowInflationBonus(\n\t\tbytes32 _purchaseReceiptId\n\t) internal {\n\t\t(, uint256 theAOCut,) = _getSettingVariables();\n\t\tuint256 _inflationBonusAmount = _calculateInflationBonus(_purchaseReceiptId);\n\t\t(bytes32 _contentHostId, bytes32 _stakedContentId, bytes32 _contentId,,,,,,,) = _aoPurchaseReceipt.getById(_purchaseReceiptId);\n\t\t(, address _stakeOwner,,,, uint256 _profitPercentage,,) = _aoStakedContent.getById(_stakedContentId);\n\t\t(,, address _host,,) = _aoContentHost.getById(_contentHostId);\n\n\t\tif (_inflationBonusAmount > 0) {\n\t\t\t// Store how much the content creator earns in escrow\n\t\t\tuint256 _stakeOwnerInflationBonus = _aoContent.isAOContentUsageType(_contentId) ? (_inflationBonusAmount.mul(_profitPercentage)).div(AOLibrary.PERCENTAGE_DIVISOR()) : 0;\n\t\t\tEarning storage _ownerPurchaseReceiptStakeEarning = ownerPurchaseReceiptStakeEarnings[_stakeOwner][_purchaseReceiptId];\n\t\t\t_ownerPurchaseReceiptStakeEarning.inflationBonus = _stakeOwnerInflationBonus;\n\t\t\trequire (_aoIon.mintEscrow(_namePublicKey.getDefaultKey(_stakeOwner), _ownerPurchaseReceiptStakeEarning.inflationBonus));\n\t\t\temit InflationBonusEscrowed(_stakeOwner, _purchaseReceiptId, _inflationBonusAmount, _profitPercentage, _ownerPurchaseReceiptStakeEarning.inflationBonus, 0);\n\n\t\t\t// Store how much the host earns in escrow\n\t\t\tEarning storage _ownerPurchaseReceiptHostEarning = ownerPurchaseReceiptHostEarnings[_host][_purchaseReceiptId];\n\t\t\t_ownerPurchaseReceiptHostEarning.inflationBonus = _inflationBonusAmount.sub(_stakeOwnerInflationBonus);\n\t\t\trequire (_aoIon.mintEscrow(_namePublicKey.getDefaultKey(_host), _ownerPurchaseReceiptHostEarning.inflationBonus));\n\t\t\temit InflationBonusEscrowed(_host, _purchaseReceiptId, _inflationBonusAmount, AOLibrary.PERCENTAGE_DIVISOR().sub(_profitPercentage), _ownerPurchaseReceiptHostEarning.inflationBonus, 1);\n\n\t\t\t// Store how much the The AO earns in escrow\n\t\t\tEarning storage _theAOPurchaseReceiptEarning = theAOPurchaseReceiptEarnings[_purchaseReceiptId];\n\t\t\t_theAOPurchaseReceiptEarning.inflationBonus = (_inflationBonusAmount.mul(theAOCut)).div(AOLibrary.PERCENTAGE_DIVISOR());\n\t\t\trequire (_aoIon.mintEscrow(theAO, _theAOPurchaseReceiptEarning.inflationBonus));\n\t\t\temit InflationBonusEscrowed(theAO, _purchaseReceiptId, _inflationBonusAmount, theAOCut, _theAOPurchaseReceiptEarning.inflationBonus, 2);\n\t\t} else {\n\t\t\temit InflationBonusEscrowed(_stakeOwner, _purchaseReceiptId, 0, _profitPercentage, 0, 0);\n\t\t\temit InflationBonusEscrowed(_host, _purchaseReceiptId, 0, AOLibrary.PERCENTAGE_DIVISOR().sub(_profitPercentage), 0, 1);\n\t\t\temit InflationBonusEscrowed(theAO, _purchaseReceiptId, 0, theAOCut, 0, 2);\n\t\t}\n\t}\n\n\t/**\n\t * @dev Calculate the inflation bonus amount\n\t * @param _purchaseReceiptId The ID of the PurchaseReceipt\n\t * @return the bonus network amount\n\t */\n\tfunction _calculateInflationBonus(bytes32 _purchaseReceiptId) internal view returns (uint256) {\n\t\t(uint256 inflationRate,,) = _getSettingVariables();\n\t\t(, bytes32 _stakedContentId,,,,,,,,) = _aoPurchaseReceipt.getById(_purchaseReceiptId);\n\t\t(,,uint256 _networkAmount, uint256 _primordialAmount, uint256 _primordialWeightedMultiplier,,,) = _aoStakedContent.getById(_stakedContentId);\n\n\t\tuint256 _networkBonus = _networkAmount.mul(inflationRate).div(AOLibrary.PERCENTAGE_DIVISOR());\n\t\tuint256 _primordialBonus = _primordialAmount.mul(_primordialWeightedMultiplier).div(AOLibrary.MULTIPLIER_DIVISOR()).mul(inflationRate).div(AOLibrary.PERCENTAGE_DIVISOR());\n\t\treturn _networkBonus.add(_primordialBonus);\n\t}\n\n\t/**\n\t * @dev Release the escrowed earning for a specific PurchaseReceipt ID for an account\n\t * @param _stakedContentId The ID of the staked content\n\t * @param _contentHostId The ID of the hosted content\n\t * @param _purchaseReceiptId The purchase receipt ID\n\t * @param _buyerPaidMoreThanFileSize Whether or not the request node paid more than filesize when buying the content\n\t * @param _account The address of account that made the earning (content creator/host)\n\t * @param _recipientType The type of the earning recipient (0 => content creator. 1 => host. 2 => theAO)\n\t */\n\tfunction _releaseEarning(bytes32 _stakedContentId, bytes32 _contentHostId, bytes32 _purchaseReceiptId, bool _buyerPaidMoreThanFileSize, address _account, uint8 _recipientType) internal {\n\t\t// Make sure the recipient type is valid\n\t\trequire (_recipientType >= 0 && _recipientType <= 2);\n\n\t\tuint256 _paymentEarning;\n\t\tuint256 _inflationBonus;\n\t\tuint256 _totalEarning;\n\t\tuint256 _pathosAmount;\n\t\tuint256 _ethosAmount;\n\t\tif (_recipientType == 0) {\n\t\t\tEarning storage _earning = ownerPurchaseReceiptStakeEarnings[_account][_purchaseReceiptId];\n\t\t\t_paymentEarning = _earning.paymentEarning;\n\t\t\t_inflationBonus = _earning.inflationBonus;\n\t\t\t_pathosAmount = _earning.pathosAmount;\n\t\t\t_earning.paymentEarning = 0;\n\t\t\t_earning.inflationBonus = 0;\n\t\t\t_earning.pathosAmount = 0;\n\t\t\t_earning.ethosAmount = 0;\n\t\t\t_totalEarning = _paymentEarning.add(_inflationBonus);\n\n\t\t\t// Update the global var settings\n\t\t\ttotalStakedContentEarning = totalStakedContentEarning.add(_totalEarning);\n\t\t\townerStakedContentEarning[_account] = ownerStakedContentEarning[_account].add(_totalEarning);\n\t\t\tstakedContentStakeEarning[_stakedContentId] = stakedContentStakeEarning[_stakedContentId].add(_totalEarning);\n\t\t\tif (_buyerPaidMoreThanFileSize) {\n\t\t\t\townerContentPriceEarning[_account] = ownerContentPriceEarning[_account].add(_totalEarning);\n\t\t\t} else {\n\t\t\t\townerNetworkPriceEarning[_account] = ownerNetworkPriceEarning[_account].add(_totalEarning);\n\t\t\t}\n\t\t\townerInflationBonusAccrued[_account] = ownerInflationBonusAccrued[_account].add(_inflationBonus);\n\n\t\t\t// Reward the content creator/stake owner with some Pathos\n\t\t\trequire (_pathos.mint(_account, _pathosAmount));\n\t\t\temit PathosEarned(_account, _purchaseReceiptId, _pathosAmount);\n\t\t\trequire (_aoIon.unescrowFrom(_namePublicKey.getDefaultKey(_account), _totalEarning));\n\t\t} else if (_recipientType == 1) {\n\t\t\tEarning storage _earning = ownerPurchaseReceiptHostEarnings[_account][_purchaseReceiptId];\n\t\t\t_paymentEarning = _earning.paymentEarning;\n\t\t\t_inflationBonus = _earning.inflationBonus;\n\t\t\t_ethosAmount = _earning.ethosAmount;\n\t\t\t_earning.paymentEarning = 0;\n\t\t\t_earning.inflationBonus = 0;\n\t\t\t_earning.pathosAmount = 0;\n\t\t\t_earning.ethosAmount = 0;\n\t\t\t_totalEarning = _paymentEarning.add(_inflationBonus);\n\n\t\t\t// Update the global var settings\n\t\t\ttotalContentHostEarning = totalContentHostEarning.add(_totalEarning);\n\t\t\townerContentHostEarning[_account] = ownerContentHostEarning[_account].add(_totalEarning);\n\t\t\tstakedContentHostEarning[_stakedContentId] = stakedContentHostEarning[_stakedContentId].add(_totalEarning);\n\t\t\tcontentHostEarning[_contentHostId] = contentHostEarning[_contentHostId].add(_totalEarning);\n\t\t\tif (_buyerPaidMoreThanFileSize) {\n\t\t\t\townerContentPriceEarning[_account] = ownerContentPriceEarning[_account].add(_totalEarning);\n\t\t\t} else {\n\t\t\t\townerNetworkPriceEarning[_account] = ownerNetworkPriceEarning[_account].add(_totalEarning);\n\t\t\t}\n\t\t\townerInflationBonusAccrued[_account] = ownerInflationBonusAccrued[_account].add(_inflationBonus);\n\n\t\t\t// Reward the host node with some Ethos\n\t\t\trequire (_ethos.mint(_account, _ethosAmount));\n\t\t\temit EthosEarned(_account, _purchaseReceiptId, _ethosAmount);\n\t\t\trequire (_aoIon.unescrowFrom(_namePublicKey.getDefaultKey(_account), _totalEarning));\n\t\t} else {\n\t\t\tEarning storage _earning = theAOPurchaseReceiptEarnings[_purchaseReceiptId];\n\t\t\t_paymentEarning = _earning.paymentEarning;\n\t\t\t_inflationBonus = _earning.inflationBonus;\n\t\t\t_earning.paymentEarning = 0;\n\t\t\t_earning.inflationBonus = 0;\n\t\t\t_earning.pathosAmount = 0;\n\t\t\t_earning.ethosAmount = 0;\n\t\t\t_totalEarning = _paymentEarning.add(_inflationBonus);\n\n\t\t\t// Update the global var settings\n\t\t\ttotalTheAOEarning = totalTheAOEarning.add(_totalEarning);\n\t\t\townerInflationBonusAccrued[_account] = ownerInflationBonusAccrued[_account].add(_inflationBonus);\n\t\t\tstakedContentTheAOEarning[_stakedContentId] = stakedContentTheAOEarning[_stakedContentId].add(_totalEarning);\n\t\t\trequire (_aoIon.unescrowFrom(_account, _totalEarning));\n\t\t}\n\t\temit EarningUnescrowed(_account, _purchaseReceiptId, _paymentEarning, _inflationBonus, _recipientType);\n\t}\n\n\t/**\n\t * @dev Get setting variables\n\t * @return inflationRate The rate to use when calculating inflation bonus\n\t * @return theAOCut The rate to use when calculating the AO earning\n\t * @return theAOEthosEarnedRate The rate to use when calculating the Ethos to AO rate for the AO\n\t */\n\tfunction _getSettingVariables() internal view returns (uint256, uint256, uint256) {\n\t\t(uint256 inflationRate,,,,) = _aoSetting.getSettingValuesByTAOName(settingTAOId, 'inflationRate');\n\t\t(uint256 theAOCut,,,,) = _aoSetting.getSettingValuesByTAOName(settingTAOId, 'theAOCut');\n\t\t(uint256 theAOEthosEarnedRate,,,,) = _aoSetting.getSettingValuesByTAOName(settingTAOId, 'theAOEthosEarnedRate');\n\n\t\treturn (inflationRate, theAOCut, theAOEthosEarnedRate);\n\t}\n}\n",
	"sourcePath": "/home/jmulyono/ao-contracts/contracts/AOEarning.sol",
	"compiler": {
		"name": "solc",
		"version": "0.5.4+commit.9549d8ff.Emscripten.clang"
	},
	"schemaVersion": "3.0.2",
	"updatedAt": "2019-05-15T08:20:36.161Z",
	"devdoc": {
		"methods": {
			"calculateEarning(bytes32)": {
				"details": "Calculate the content creator/host/The AO earning when request node buys the content.\tAlso at this stage, all of the earnings are stored in escrow",
				"params": {
					"_purchaseReceiptId": "The ID of the purchase receipt object"
				},
				"return": "true on success"
			},
			"constructor": {
				"details": "Constructor function",
				"params": {
					"_aoIonAddress": "The address of AOIon",
					"_aoSettingAddress": "The address of AOSetting",
					"_ethosAddress": "The address of Ethos",
					"_nameFactoryAddress": "The address of NameFactory",
					"_namePublicKeyAddress": "The address of NamePublicKey",
					"_nameTAOPositionAddress": "The address of NameTAOPosition",
					"_pathosAddress": "The address of Pathos",
					"_settingTAOId": "The TAO ID that controls the setting"
				}
			},
			"getTotalStakedContentEarning(bytes32)": {
				"details": "Return the earning information of a StakedContent ID",
				"params": {
					"_stakedContentId": "The ID of the staked content"
				},
				"return": "the total earning from staking this contentthe total earning from hosting this contentthe total The AO earning of this content"
			},
			"releaseEarning(bytes32)": {
				"details": "Release the payment earning and inflation bonus that is in escrow for specific PurchaseReceipt ID",
				"params": {
					"_purchaseReceiptId": "The purchase receipt ID to check"
				},
				"return": "true on success"
			},
			"setAOContentAddress(address)": {
				"details": "The AO sets AOContent address",
				"params": {
					"_aoContentAddress": "The address of AOContent"
				}
			},
			"setAOContentHostAddress(address)": {
				"details": "The AO sets AOContentHost address",
				"params": {
					"_aoContentHostAddress": "The address of AOContentHost"
				}
			},
			"setAOIonAddress(address)": {
				"details": "The AO sets AOIon address",
				"params": {
					"_aoIonAddress": "The address of AOIon"
				}
			},
			"setAOPurchaseReceiptAddress(address)": {
				"details": "The AO sets AOPurchaseReceipt address",
				"params": {
					"_aoPurchaseReceiptAddress": "The address of AOPurchaseReceipt"
				}
			},
			"setAOSettingAddress(address)": {
				"details": "The AO sets AO Setting address",
				"params": {
					"_aoSettingAddress": "The address of AOSetting"
				}
			},
			"setAOStakedContentAddress(address)": {
				"details": "The AO sets AOStakedContent address",
				"params": {
					"_aoStakedContentAddress": "The address of AOStakedContent"
				}
			},
			"setEthosAddress(address)": {
				"details": "The AO sets Ethos address",
				"params": {
					"_ethosAddress": "The address of Ethos"
				}
			},
			"setNameFactoryAddress(address)": {
				"details": "The AO sets NameFactory address",
				"params": {
					"_nameFactoryAddress": "The address of NameFactory"
				}
			},
			"setNamePublicKeyAddress(address)": {
				"details": "The AO sets NamePublicKey address",
				"params": {
					"_namePublicKeyAddress": "The address of NamePublicKey"
				}
			},
			"setNameTAOPositionAddress(address)": {
				"details": "The AO set the NameTAOPosition Address",
				"params": {
					"_nameTAOPositionAddress": "The address of NameTAOPosition"
				}
			},
			"setPathosAddress(address)": {
				"details": "The AO sets Pathos address",
				"params": {
					"_pathosAddress": "The address of Pathos"
				}
			},
			"setSettingTAOId(address)": {
				"details": "The AO sets setting TAO ID",
				"params": {
					"_settingTAOId": "The new setting TAO ID to set"
				}
			},
			"setWhitelist(address,bool)": {
				"details": "Whitelist `_account` address to transact on behalf of others",
				"params": {
					"_account": "The address to whitelist",
					"_whitelist": "Either to whitelist or not"
				}
			},
			"transferOwnership(address)": {
				"details": "Transfer ownership of The AO to new address",
				"params": {
					"_theAO": "The new address to be transferred"
				}
			}
		},
		"title": "AOEarning * This contract stores the earning from staking/hosting content on AO"
	},
	"userdoc": {
		"methods": {}
	}
}