{
  "contractName": "AOEarning",
  "abi": [
    {
      "constant": true,
      "inputs": [],
      "name": "aoStakedContentAddress",
      "outputs": [
        {
          "name": "",
          "type": "address"
        }
      ],
      "payable": false,
      "stateMutability": "view",
      "type": "function"
    },
    {
      "constant": true,
      "inputs": [],
      "name": "totalStakedContentEarning",
      "outputs": [
        {
          "name": "",
          "type": "uint256"
        }
      ],
      "payable": false,
      "stateMutability": "view",
      "type": "function"
    },
    {
      "constant": true,
      "inputs": [],
      "name": "aoSettingAddress",
      "outputs": [
        {
          "name": "",
          "type": "address"
        }
      ],
      "payable": false,
      "stateMutability": "view",
      "type": "function"
    },
    {
      "constant": true,
      "inputs": [
        {
          "name": "",
          "type": "bytes32"
        }
      ],
      "name": "contentHostEarning",
      "outputs": [
        {
          "name": "",
          "type": "uint256"
        }
      ],
      "payable": false,
      "stateMutability": "view",
      "type": "function"
    },
    {
      "constant": true,
      "inputs": [
        {
          "name": "",
          "type": "address"
        }
      ],
      "name": "ownerContentPriceEarning",
      "outputs": [
        {
          "name": "",
          "type": "uint256"
        }
      ],
      "payable": false,
      "stateMutability": "view",
      "type": "function"
    },
    {
      "constant": true,
      "inputs": [
        {
          "name": "",
          "type": "address"
        }
      ],
      "name": "ownerStakedContentEarning",
      "outputs": [
        {
          "name": "",
          "type": "uint256"
        }
      ],
      "payable": false,
      "stateMutability": "view",
      "type": "function"
    },
    {
      "constant": true,
      "inputs": [],
      "name": "aoIonAddress",
      "outputs": [
        {
          "name": "",
          "type": "address"
        }
      ],
      "payable": false,
      "stateMutability": "view",
      "type": "function"
    },
    {
      "constant": true,
      "inputs": [],
      "name": "pathosAddress",
      "outputs": [
        {
          "name": "",
          "type": "address"
        }
      ],
      "payable": false,
      "stateMutability": "view",
      "type": "function"
    },
    {
      "constant": true,
      "inputs": [],
      "name": "nameTAOPositionAddress",
      "outputs": [
        {
          "name": "",
          "type": "address"
        }
      ],
      "payable": false,
      "stateMutability": "view",
      "type": "function"
    },
    {
      "constant": true,
      "inputs": [
        {
          "name": "",
          "type": "bytes32"
        }
      ],
      "name": "stakedContentTheAOEarning",
      "outputs": [
        {
          "name": "",
          "type": "uint256"
        }
      ],
      "payable": false,
      "stateMutability": "view",
      "type": "function"
    },
    {
      "constant": true,
      "inputs": [],
      "name": "totalContentHostEarning",
      "outputs": [
        {
          "name": "",
          "type": "uint256"
        }
      ],
      "payable": false,
      "stateMutability": "view",
      "type": "function"
    },
    {
      "constant": true,
      "inputs": [],
      "name": "aoContentAddress",
      "outputs": [
        {
          "name": "",
          "type": "address"
        }
      ],
      "payable": false,
      "stateMutability": "view",
      "type": "function"
    },
    {
      "constant": true,
      "inputs": [
        {
          "name": "",
          "type": "address"
        },
        {
          "name": "",
          "type": "bytes32"
        }
      ],
      "name": "ownerPurchaseReceiptHostEarnings",
      "outputs": [
        {
          "name": "purchaseReceiptId",
          "type": "bytes32"
        },
        {
          "name": "paymentEarning",
          "type": "uint256"
        },
        {
          "name": "inflationBonus",
          "type": "uint256"
        },
        {
          "name": "pathosAmount",
          "type": "uint256"
        },
        {
          "name": "ethosAmount",
          "type": "uint256"
        }
      ],
      "payable": false,
      "stateMutability": "view",
      "type": "function"
    },
    {
      "constant": true,
      "inputs": [],
      "name": "ethosAddress",
      "outputs": [
        {
          "name": "",
          "type": "address"
        }
      ],
      "payable": false,
      "stateMutability": "view",
      "type": "function"
    },
    {
      "constant": true,
      "inputs": [
        {
          "name": "",
          "type": "address"
        },
        {
          "name": "",
          "type": "bytes32"
        }
      ],
      "name": "ownerPurchaseReceiptStakeEarnings",
      "outputs": [
        {
          "name": "purchaseReceiptId",
          "type": "bytes32"
        },
        {
          "name": "paymentEarning",
          "type": "uint256"
        },
        {
          "name": "inflationBonus",
          "type": "uint256"
        },
        {
          "name": "pathosAmount",
          "type": "uint256"
        },
        {
          "name": "ethosAmount",
          "type": "uint256"
        }
      ],
      "payable": false,
      "stateMutability": "view",
      "type": "function"
    },
    {
      "constant": true,
      "inputs": [],
      "name": "aoContentHostAddress",
      "outputs": [
        {
          "name": "",
          "type": "address"
        }
      ],
      "payable": false,
      "stateMutability": "view",
      "type": "function"
    },
    {
      "constant": true,
      "inputs": [
        {
          "name": "",
          "type": "address"
        }
      ],
      "name": "whitelist",
      "outputs": [
        {
          "name": "",
          "type": "bool"
        }
      ],
      "payable": false,
      "stateMutability": "view",
      "type": "function"
    },
    {
      "constant": true,
      "inputs": [],
      "name": "theAO",
      "outputs": [
        {
          "name": "",
          "type": "address"
        }
      ],
      "payable": false,
      "stateMutability": "view",
      "type": "function"
    },
    {
      "constant": true,
      "inputs": [],
      "name": "nameFactoryAddress",
      "outputs": [
        {
          "name": "",
          "type": "address"
        }
      ],
      "payable": false,
      "stateMutability": "view",
      "type": "function"
    },
    {
      "constant": true,
      "inputs": [
        {
          "name": "",
          "type": "bytes32"
        }
      ],
      "name": "stakedContentStakeEarning",
      "outputs": [
        {
          "name": "",
          "type": "uint256"
        }
      ],
      "payable": false,
      "stateMutability": "view",
      "type": "function"
    },
    {
      "constant": true,
      "inputs": [],
      "name": "totalTheAOEarning",
      "outputs": [
        {
          "name": "",
          "type": "uint256"
        }
      ],
      "payable": false,
      "stateMutability": "view",
      "type": "function"
    },
    {
      "constant": true,
      "inputs": [
        {
          "name": "",
          "type": "address"
        }
      ],
      "name": "ownerInflationBonusAccrued",
      "outputs": [
        {
          "name": "",
          "type": "uint256"
        }
      ],
      "payable": false,
      "stateMutability": "view",
      "type": "function"
    },
    {
      "constant": true,
      "inputs": [
        {
          "name": "",
          "type": "address"
        }
      ],
      "name": "ownerNetworkPriceEarning",
      "outputs": [
        {
          "name": "",
          "type": "uint256"
        }
      ],
      "payable": false,
      "stateMutability": "view",
      "type": "function"
    },
    {
      "constant": true,
      "inputs": [
        {
          "name": "",
          "type": "bytes32"
        }
      ],
      "name": "theAOPurchaseReceiptEarnings",
      "outputs": [
        {
          "name": "purchaseReceiptId",
          "type": "bytes32"
        },
        {
          "name": "paymentEarning",
          "type": "uint256"
        },
        {
          "name": "inflationBonus",
          "type": "uint256"
        },
        {
          "name": "pathosAmount",
          "type": "uint256"
        },
        {
          "name": "ethosAmount",
          "type": "uint256"
        }
      ],
      "payable": false,
      "stateMutability": "view",
      "type": "function"
    },
    {
      "constant": true,
      "inputs": [
        {
          "name": "",
          "type": "address"
        }
      ],
      "name": "ownerContentHostEarning",
      "outputs": [
        {
          "name": "",
          "type": "uint256"
        }
      ],
      "payable": false,
      "stateMutability": "view",
      "type": "function"
    },
    {
      "constant": true,
      "inputs": [],
      "name": "aoPurchaseReceiptAddress",
      "outputs": [
        {
          "name": "",
          "type": "address"
        }
      ],
      "payable": false,
      "stateMutability": "view",
      "type": "function"
    },
    {
      "constant": true,
      "inputs": [],
      "name": "settingTAOId",
      "outputs": [
        {
          "name": "",
          "type": "address"
        }
      ],
      "payable": false,
      "stateMutability": "view",
      "type": "function"
    },
    {
      "constant": true,
      "inputs": [
        {
          "name": "",
          "type": "bytes32"
        }
      ],
      "name": "stakedContentHostEarning",
      "outputs": [
        {
          "name": "",
          "type": "uint256"
        }
      ],
      "payable": false,
      "stateMutability": "view",
      "type": "function"
    },
    {
      "inputs": [
        {
          "name": "_settingTAOId",
          "type": "address"
        },
        {
          "name": "_aoSettingAddress",
          "type": "address"
        },
        {
          "name": "_aoIonAddress",
          "type": "address"
        },
        {
          "name": "_nameFactoryAddress",
          "type": "address"
        },
        {
          "name": "_pathosAddress",
          "type": "address"
        },
        {
          "name": "_ethosAddress",
          "type": "address"
        },
        {
          "name": "_aoContentAddress",
          "type": "address"
        },
        {
          "name": "_nameTAOPositionAddress",
          "type": "address"
        }
      ],
      "payable": false,
      "stateMutability": "nonpayable",
      "type": "constructor"
    },
    {
      "anonymous": false,
      "inputs": [
        {
          "indexed": true,
          "name": "recipient",
          "type": "address"
        },
        {
          "indexed": true,
          "name": "purchaseReceiptId",
          "type": "bytes32"
        },
        {
          "indexed": false,
          "name": "price",
          "type": "uint256"
        },
        {
          "indexed": false,
          "name": "recipientProfitPercentage",
          "type": "uint256"
        },
        {
          "indexed": false,
          "name": "recipientPaymentEarning",
          "type": "uint256"
        },
        {
          "indexed": false,
          "name": "recipientType",
          "type": "uint8"
        }
      ],
      "name": "PaymentEarningEscrowed",
      "type": "event"
    },
    {
      "anonymous": false,
      "inputs": [
        {
          "indexed": true,
          "name": "recipient",
          "type": "address"
        },
        {
          "indexed": true,
          "name": "purchaseReceiptId",
          "type": "bytes32"
        },
        {
          "indexed": false,
          "name": "totalInflationBonusAmount",
          "type": "uint256"
        },
        {
          "indexed": false,
          "name": "recipientProfitPercentage",
          "type": "uint256"
        },
        {
          "indexed": false,
          "name": "recipientInflationBonus",
          "type": "uint256"
        },
        {
          "indexed": false,
          "name": "recipientType",
          "type": "uint8"
        }
      ],
      "name": "InflationBonusEscrowed",
      "type": "event"
    },
    {
      "anonymous": false,
      "inputs": [
        {
          "indexed": true,
          "name": "recipient",
          "type": "address"
        },
        {
          "indexed": true,
          "name": "purchaseReceiptId",
          "type": "bytes32"
        },
        {
          "indexed": false,
          "name": "paymentEarning",
          "type": "uint256"
        },
        {
          "indexed": false,
          "name": "inflationBonus",
          "type": "uint256"
        },
        {
          "indexed": false,
          "name": "recipientType",
          "type": "uint8"
        }
      ],
      "name": "EarningUnescrowed",
      "type": "event"
    },
    {
      "anonymous": false,
      "inputs": [
        {
          "indexed": true,
          "name": "nameId",
          "type": "address"
        },
        {
          "indexed": true,
          "name": "purchaseReceiptId",
          "type": "bytes32"
        },
        {
          "indexed": false,
          "name": "amount",
          "type": "uint256"
        }
      ],
      "name": "PathosEarned",
      "type": "event"
    },
    {
      "anonymous": false,
      "inputs": [
        {
          "indexed": true,
          "name": "nameId",
          "type": "address"
        },
        {
          "indexed": true,
          "name": "purchaseReceiptId",
          "type": "bytes32"
        },
        {
          "indexed": false,
          "name": "amount",
          "type": "uint256"
        }
      ],
      "name": "EthosEarned",
      "type": "event"
    },
    {
      "constant": false,
      "inputs": [
        {
          "name": "_theAO",
          "type": "address"
        }
      ],
      "name": "transferOwnership",
      "outputs": [],
      "payable": false,
      "stateMutability": "nonpayable",
      "type": "function"
    },
    {
      "constant": false,
      "inputs": [
        {
          "name": "_account",
          "type": "address"
        },
        {
          "name": "_whitelist",
          "type": "bool"
        }
      ],
      "name": "setWhitelist",
      "outputs": [],
      "payable": false,
      "stateMutability": "nonpayable",
      "type": "function"
    },
    {
      "constant": false,
      "inputs": [
        {
          "name": "_settingTAOId",
          "type": "address"
        }
      ],
      "name": "setSettingTAOId",
      "outputs": [],
      "payable": false,
      "stateMutability": "nonpayable",
      "type": "function"
    },
    {
      "constant": false,
      "inputs": [
        {
          "name": "_aoSettingAddress",
          "type": "address"
        }
      ],
      "name": "setAOSettingAddress",
      "outputs": [],
      "payable": false,
      "stateMutability": "nonpayable",
      "type": "function"
    },
    {
      "constant": false,
      "inputs": [
        {
          "name": "_aoIonAddress",
          "type": "address"
        }
      ],
      "name": "setAOIonAddress",
      "outputs": [],
      "payable": false,
      "stateMutability": "nonpayable",
      "type": "function"
    },
    {
      "constant": false,
      "inputs": [
        {
          "name": "_nameFactoryAddress",
          "type": "address"
        }
      ],
      "name": "setNameFactoryAddress",
      "outputs": [],
      "payable": false,
      "stateMutability": "nonpayable",
      "type": "function"
    },
    {
      "constant": false,
      "inputs": [
        {
          "name": "_pathosAddress",
          "type": "address"
        }
      ],
      "name": "setPathosAddress",
      "outputs": [],
      "payable": false,
      "stateMutability": "nonpayable",
      "type": "function"
    },
    {
      "constant": false,
      "inputs": [
        {
          "name": "_ethosAddress",
          "type": "address"
        }
      ],
      "name": "setEthosAddress",
      "outputs": [],
      "payable": false,
      "stateMutability": "nonpayable",
      "type": "function"
    },
    {
      "constant": false,
      "inputs": [
        {
          "name": "_aoContentAddress",
          "type": "address"
        }
      ],
      "name": "setAOContentAddress",
      "outputs": [],
      "payable": false,
      "stateMutability": "nonpayable",
      "type": "function"
    },
    {
      "constant": false,
      "inputs": [
        {
          "name": "_aoStakedContentAddress",
          "type": "address"
        }
      ],
      "name": "setAOStakedContentAddress",
      "outputs": [],
      "payable": false,
      "stateMutability": "nonpayable",
      "type": "function"
    },
    {
      "constant": false,
      "inputs": [
        {
          "name": "_aoContentHostAddress",
          "type": "address"
        }
      ],
      "name": "setAOContentHostAddress",
      "outputs": [],
      "payable": false,
      "stateMutability": "nonpayable",
      "type": "function"
    },
    {
      "constant": false,
      "inputs": [
        {
          "name": "_aoPurchaseReceiptAddress",
          "type": "address"
        }
      ],
      "name": "setAOPurchaseReceiptAddress",
      "outputs": [],
      "payable": false,
      "stateMutability": "nonpayable",
      "type": "function"
    },
    {
      "constant": false,
      "inputs": [
        {
          "name": "_nameTAOPositionAddress",
          "type": "address"
        }
      ],
      "name": "setNameTAOPositionAddress",
      "outputs": [],
      "payable": false,
      "stateMutability": "nonpayable",
      "type": "function"
    },
    {
      "constant": false,
      "inputs": [
        {
          "name": "_purchaseReceiptId",
          "type": "bytes32"
        }
      ],
      "name": "calculateEarning",
      "outputs": [
        {
          "name": "",
          "type": "bool"
        }
      ],
      "payable": false,
      "stateMutability": "nonpayable",
      "type": "function"
    },
    {
      "constant": false,
      "inputs": [
        {
          "name": "_purchaseReceiptId",
          "type": "bytes32"
        }
      ],
      "name": "releaseEarning",
      "outputs": [
        {
          "name": "",
          "type": "bool"
        }
      ],
      "payable": false,
      "stateMutability": "nonpayable",
      "type": "function"
    },
    {
      "constant": true,
      "inputs": [
        {
          "name": "_stakedContentId",
          "type": "bytes32"
        }
      ],
      "name": "getTotalStakedContentEarning",
      "outputs": [
        {
          "name": "",
          "type": "uint256"
        },
        {
          "name": "",
          "type": "uint256"
        },
        {
          "name": "",
          "type": "uint256"
        }
      ],
      "payable": false,
      "stateMutability": "view",
      "type": "function"
    }
  ],
  "bytecode": "0x60806040523480156200001157600080fd5b50604051610100806200508f83398101806040526101008110156200003557600080fd5b50805160208083015160408401516060850151608086015160a087015160c088015160e090980151600080546001600160a01b031916331790559697949693959294919390926200008c90899062000111811b901c565b6200009d87620002a060201b60201c565b620000ae86620003a160201b60201c565b620000bf85620004a260201b60201c565b620000d084620005a360201b60201c565b620000e183620006a460201b60201c565b620000f282620007a560201b60201c565b6200010381620008a660201b60201c565b50505050505050506200099d565b600054600154604080517ff66afcac0000000000000000000000000000000000000000000000000000000081523360048201526001600160a01b0393841660248201529290911660448301525173__AOLibrary_____________________________9163f66afcac916064808301926020929190829003018186803b1580156200019a57600080fd5b505af4158015620001af573d6000803e3d6000fd5b505050506040513d6020811015620001c657600080fd5b5051620001d257600080fd5b604080517f2fca54140000000000000000000000000000000000000000000000000000000081526001600160a01b0383166004820152905173__AOLibrary_____________________________91632fca5414916024808301926020929190829003018186803b1580156200024657600080fd5b505af41580156200025b573d6000803e3d6000fd5b505050506040513d60208110156200027257600080fd5b50516200027e57600080fd5b600380546001600160a01b0319166001600160a01b0392909216919091179055565b600054600154604080517ff66afcac0000000000000000000000000000000000000000000000000000000081523360048201526001600160a01b0393841660248201529290911660448301525173__AOLibrary_____________________________9163f66afcac916064808301926020929190829003018186803b1580156200032957600080fd5b505af41580156200033e573d6000803e3d6000fd5b505050506040513d60208110156200035557600080fd5b50516200036157600080fd5b6001600160a01b0381166200037557600080fd5b600480546001600160a01b039092166001600160a01b03199283168117909155600d8054909216179055565b600054600154604080517ff66afcac0000000000000000000000000000000000000000000000000000000081523360048201526001600160a01b0393841660248201529290911660448301525173__AOLibrary_____________________________9163f66afcac916064808301926020929190829003018186803b1580156200042a57600080fd5b505af41580156200043f573d6000803e3d6000fd5b505050506040513d60208110156200045657600080fd5b50516200046257600080fd5b6001600160a01b0381166200047657600080fd5b600580546001600160a01b039092166001600160a01b03199283168117909155600e8054909216179055565b600054600154604080517ff66afcac0000000000000000000000000000000000000000000000000000000081523360048201526001600160a01b0393841660248201529290911660448301525173__AOLibrary_____________________________9163f66afcac916064808301926020929190829003018186803b1580156200052b57600080fd5b505af415801562000540573d6000803e3d6000fd5b505050506040513d60208110156200055757600080fd5b50516200056357600080fd5b6001600160a01b0381166200057757600080fd5b600680546001600160a01b039092166001600160a01b03199283168117909155600f8054909216179055565b600054600154604080517ff66afcac0000000000000000000000000000000000000000000000000000000081523360048201526001600160a01b0393841660248201529290911660448301525173__AOLibrary_____________________________9163f66afcac916064808301926020929190829003018186803b1580156200062c57600080fd5b505af415801562000641573d6000803e3d6000fd5b505050506040513d60208110156200065857600080fd5b50516200066457600080fd5b6001600160a01b0381166200067857600080fd5b600780546001600160a01b039092166001600160a01b0319928316811790915560108054909216179055565b600054600154604080517ff66afcac0000000000000000000000000000000000000000000000000000000081523360048201526001600160a01b0393841660248201529290911660448301525173__AOLibrary_____________________________9163f66afcac916064808301926020929190829003018186803b1580156200072d57600080fd5b505af415801562000742573d6000803e3d6000fd5b505050506040513d60208110156200075957600080fd5b50516200076557600080fd5b6001600160a01b0381166200077957600080fd5b600880546001600160a01b039092166001600160a01b0319928316811790915560118054909216179055565b600054600154604080517ff66afcac0000000000000000000000000000000000000000000000000000000081523360048201526001600160a01b0393841660248201529290911660448301525173__AOLibrary_____________________________9163f66afcac916064808301926020929190829003018186803b1580156200082e57600080fd5b505af415801562000843573d6000803e3d6000fd5b505050506040513d60208110156200085a57600080fd5b50516200086657600080fd5b6001600160a01b0381166200087a57600080fd5b600980546001600160a01b039092166001600160a01b0319928316811790915560128054909216179055565b600054600154604080517ff66afcac0000000000000000000000000000000000000000000000000000000081523360048201526001600160a01b0393841660248201529290911660448301525173__AOLibrary_____________________________9163f66afcac916064808301926020929190829003018186803b1580156200092f57600080fd5b505af415801562000944573d6000803e3d6000fd5b505050506040513d60208110156200095b57600080fd5b50516200096757600080fd5b6001600160a01b0381166200097b57600080fd5b600180546001600160a01b0319166001600160a01b0392909216919091179055565b6146e280620009ad6000396000f3fe608060405234801561001057600080fd5b50600436106102745760003560e01c80638c92436111610151578063cd109f4c116100c3578063e41800e211610087578063e41800e214610702578063e669ecab1461071f578063e7c5018514610727578063ee9f74271461072f578063f2fde38b1461074c578063f97106b51461077257610274565b8063cd109f4c1461064d578063cd5facb214610673578063d3bd134314610699578063d6830af3146106b6578063d7ed73bd146106dc57610274565b8063a9b6b38e11610115578063a9b6b38e146105cc578063bc406206146105d4578063bc6abaa2146105dc578063be03a7de14610602578063c26012cd1461061f578063c7bc27af1461062757610274565b80638c924361146105445780639093a7901461056a57806393ac4c1c1461057257806395f04f271461059e5780639b19251a146105a657610274565b80634486ab0a116101ea5780637658f1d6116101ae5780637658f1d614610474578063793c82281461049157806380504a96146104b757806385cb86c8146104bf57806389a83246146104c75780638a9e7fdc146104ed57610274565b80634486ab0a146103df5780634c9e0913146103e75780634ef033f01461041857806353d6fd59146104205780635cfaf2ef1461044e57610274565b80631f032c241161023c5780631f032c241461030d5780631fe7f23c1461032a57806335385ec8146103505780633c56b011146103765780633e36144f1461037e57806341fddf9d146103a457610274565b806306fd708814610279578063078753ad146102a1578063101f6d79146102c55780631add5b98146102df5780631d0138ff14610305575b600080fd5b61029f6004803603602081101561028f57600080fd5b50356001600160a01b0316610798565b005b6102a961087e565b604080516001600160a01b039092168252519081900360200190f35b6102cd61088d565b60408051918252519081900360200190f35b61029f600480360360208110156102f557600080fd5b50356001600160a01b0316610893565b6102a9610979565b6102cd6004803603602081101561032357600080fd5b5035610988565b6102cd6004803603602081101561034057600080fd5b50356001600160a01b031661099a565b6102cd6004803603602081101561036657600080fd5b50356001600160a01b03166109ac565b6102a96109be565b61029f6004803603602081101561039457600080fd5b50356001600160a01b03166109cd565b6103c1600480360360208110156103ba57600080fd5b5035610ab3565b60408051938452602084019290925282820152519081900360600190f35b6102a9610adc565b610404600480360360208110156103fd57600080fd5b5035610aeb565b604080519115158252519081900360200190f35b6102a961104d565b61029f6004803603604081101561043657600080fd5b506001600160a01b038135169060200135151561105c565b61029f6004803603602081101561046457600080fd5b50356001600160a01b0316611141565b6102cd6004803603602081101561048a57600080fd5b503561121d565b61029f600480360360208110156104a757600080fd5b50356001600160a01b031661122f565b6102cd611315565b6102a961131b565b61029f600480360360208110156104dd57600080fd5b50356001600160a01b031661132a565b6105196004803603604081101561050357600080fd5b506001600160a01b038135169060200135611410565b6040805195865260208601949094528484019290925260608401526080830152519081900360a00190f35b61029f6004803603602081101561055a57600080fd5b50356001600160a01b031661144a565b6102a9611530565b6105196004803603604081101561058857600080fd5b506001600160a01b03813516906020013561153f565b6102a9611577565b610404600480360360208110156105bc57600080fd5b50356001600160a01b0316611586565b6102a961159b565b6102a96115aa565b61029f600480360360208110156105f257600080fd5b50356001600160a01b03166115b9565b6102cd6004803603602081101561061857600080fd5b503561169f565b6102cd6116b1565b6102cd6004803603602081101561063d57600080fd5b50356001600160a01b03166116b7565b6102cd6004803603602081101561066357600080fd5b50356001600160a01b03166116c9565b61029f6004803603602081101561068957600080fd5b50356001600160a01b03166116db565b610519600480360360208110156106af57600080fd5b50356117c1565b61029f600480360360208110156106cc57600080fd5b50356001600160a01b03166117f0565b6102cd600480360360208110156106f257600080fd5b50356001600160a01b031661194b565b6104046004803603602081101561071857600080fd5b503561195d565b6102a9611a51565b6102a9611a60565b6102cd6004803603602081101561074557600080fd5b5035611a6f565b61029f6004803603602081101561076257600080fd5b50356001600160a01b0316611a81565b61029f6004803603602081101561078857600080fd5b50356001600160a01b0316611b5d565b60005460015460408051600160e21b633d9abf2b0281523360048201526001600160a01b0393841660248201529290911660448301525173__AOLibrary_____________________________9163f66afcac916064808301926020929190829003018186803b15801561080a57600080fd5b505af415801561081e573d6000803e3d6000fd5b505050506040513d602081101561083457600080fd5b505161083f57600080fd5b6001600160a01b03811661085257600080fd5b600480546001600160a01b039092166001600160a01b03199283168117909155600d8054909216179055565b600a546001600160a01b031681565b60165481565b60005460015460408051600160e21b633d9abf2b0281523360048201526001600160a01b0393841660248201529290911660448301525173__AOLibrary_____________________________9163f66afcac916064808301926020929190829003018186803b15801561090557600080fd5b505af4158015610919573d6000803e3d6000fd5b505050506040513d602081101561092f57600080fd5b505161093a57600080fd5b6001600160a01b03811661094d57600080fd5b600880546001600160a01b039092166001600160a01b0319928316811790915560118054909216179055565b6004546001600160a01b031681565b60266020526000908152604090205481565b601e6020526000908152604090205481565b601b6020526000908152604090205481565b6005546001600160a01b031681565b60005460015460408051600160e21b633d9abf2b0281523360048201526001600160a01b0393841660248201529290911660448301525173__AOLibrary_____________________________9163f66afcac916064808301926020929190829003018186803b158015610a3f57600080fd5b505af4158015610a53573d6000803e3d6000fd5b505050506040513d6020811015610a6957600080fd5b5051610a7457600080fd5b6001600160a01b038116610a8757600080fd5b600a80546001600160a01b039092166001600160a01b0319928316811790915560138054909216179055565b600081815260236020908152604080832054602483528184205460259093529220549193909250565b6007546001600160a01b031681565b3360009081526002602052604081205460ff161515600114610b0c57600080fd5b60155460408051600160e31b630ec5fdc30281526004810185905290516001600160a01b039092169163762fee1891602480820192602092909190829003018186803b158015610b5b57600080fd5b505afa158015610b6f573d6000803e3d6000fd5b505050506040513d6020811015610b8557600080fd5b5051610b9057600080fd5b60008281526019602052604090205460ff168015610bbd57506000828152601a602052604090205460ff16155b610bc657600080fd5b6000828152601a6020526040808220805460ff191660011790556015548151600160e01b632dff0d0d0281526004810186905291518392839283926001600160a01b0390911691632dff0d0d9160248083019286929190829003018186803b158015610c3157600080fd5b505afa158015610c45573d6000803e3d6000fd5b505050506040513d6000823e601f3d908101601f19168201604052610140811015610c6f57600080fd5b8151602083015160408401516060850151608086015160a087015160c088015160e08901805197999698959794969395929491939283019291600160201b811115610cb957600080fd5b82016020810184811115610ccc57600080fd5b8151600160201b811182820187101715610ce557600080fd5b5050929190602001805190602001909291908051906020019092919050505050505050955050509350935093506000601360009054906101000a90046001600160a01b03166001600160a01b0316632dff0d0d856040518263ffffffff1660e01b8152600401808281526020019150506101006040518083038186803b158015610d6e57600080fd5b505afa158015610d82573d6000803e3d6000fd5b505050506040513d610100811015610d9957600080fd5b506020015160145460408051600160e01b632dff0d0d0281526004810189905290519293506000926001600160a01b0390921691632dff0d0d916024808201928692909190829003018186803b158015610df257600080fd5b505afa158015610e06573d6000803e3d6000fd5b505050506040513d6000823e601f3d908101601f1916820160405260a0811015610e2f57600080fd5b8151602083015160408401516060850180519395929491939183019291600160201b811115610e5d57600080fd5b82016020810184811115610e7057600080fd5b8151600160201b811182820187101715610e8957600080fd5b50509291906020018051600160201b811115610ea457600080fd5b82016020810184811115610eb757600080fd5b8151600160201b811182820187101715610ed057600080fd5b505060125460408051600160e01b632dff0d0d028152600481018f90529051979a50600099506001600160a01b039091169750632dff0d0d96602480830197508a96509094509084900301915082905086803b158015610f2f57600080fd5b505afa158015610f43573d6000803e3d6000fd5b505050506040513d6000823e601f3d908101601f19168201604052610120811015610f6d57600080fd5b8151602083015160408401516060850151608086015160a087015160c088015160e08901516101008a018051989a9799969895979496939592949193820192600160201b811115610fbd57600080fd5b82016020810184811115610fd057600080fd5b8151600160201b811182820187101715610fe957600080fd5b50509291905050505050505050505091505061100c86888b848811876000611c43565b61101d86888b848811866001611c43565b60005461103e90879089908c90858911906001600160a01b03166002611c43565b50600198975050505050505050565b6001546001600160a01b031681565b60005460015460408051600160e21b633d9abf2b0281523360048201526001600160a01b0393841660248201529290911660448301525173__AOLibrary_____________________________9163f66afcac916064808301926020929190829003018186803b1580156110ce57600080fd5b505af41580156110e2573d6000803e3d6000fd5b505050506040513d60208110156110f857600080fd5b505161110357600080fd5b6001600160a01b03821661111657600080fd5b6001600160a01b03919091166000908152600260205260409020805460ff1916911515919091179055565b60005460015460408051600160e21b633d9abf2b0281523360048201526001600160a01b0393841660248201529290911660448301525173__AOLibrary_____________________________9163f66afcac916064808301926020929190829003018186803b1580156111b357600080fd5b505af41580156111c7573d6000803e3d6000fd5b505050506040513d60208110156111dd57600080fd5b50516111e857600080fd5b6001600160a01b0381166111fb57600080fd5b600180546001600160a01b0319166001600160a01b0392909216919091179055565b60256020526000908152604090205481565b60005460015460408051600160e21b633d9abf2b0281523360048201526001600160a01b0393841660248201529290911660448301525173__AOLibrary_____________________________9163f66afcac916064808301926020929190829003018186803b1580156112a157600080fd5b505af41580156112b5573d6000803e3d6000fd5b505050506040513d60208110156112cb57600080fd5b50516112d657600080fd5b6001600160a01b0381166112e957600080fd5b600780546001600160a01b039092166001600160a01b0319928316811790915560108054909216179055565b60175481565b6009546001600160a01b031681565b60005460015460408051600160e21b633d9abf2b0281523360048201526001600160a01b0393841660248201529290911660448301525173__AOLibrary_____________________________9163f66afcac916064808301926020929190829003018186803b15801561139c57600080fd5b505af41580156113b0573d6000803e3d6000fd5b505050506040513d60208110156113c657600080fd5b50516113d157600080fd5b6001600160a01b0381166113e457600080fd5b600980546001600160a01b039092166001600160a01b0319928316811790915560128054909216179055565b6021602090815260009283526040808420909152908252902080546001820154600283015460038401546004909401549293919290919085565b60005460015460408051600160e21b633d9abf2b0281523360048201526001600160a01b0393841660248201529290911660448301525173__AOLibrary_____________________________9163f66afcac916064808301926020929190829003018186803b1580156114bc57600080fd5b505af41580156114d0573d6000803e3d6000fd5b505050506040513d60208110156114e657600080fd5b50516114f157600080fd5b6001600160a01b03811661150457600080fd5b600680546001600160a01b039092166001600160a01b03199283168117909155600f8054909216179055565b6008546001600160a01b031681565b602080805260009283526040808420909152908252902080546001820154600283015460038401546004909401549293919290919085565b600b546001600160a01b031681565b60026020526000908152604090205460ff1681565b6000546001600160a01b031681565b6006546001600160a01b031681565b60005460015460408051600160e21b633d9abf2b0281523360048201526001600160a01b0393841660248201529290911660448301525173__AOLibrary_____________________________9163f66afcac916064808301926020929190829003018186803b15801561162b57600080fd5b505af415801561163f573d6000803e3d6000fd5b505050506040513d602081101561165557600080fd5b505161166057600080fd5b6001600160a01b03811661167357600080fd5b600c80546001600160a01b039092166001600160a01b0319928316811790915560158054909216179055565b60236020526000908152604090205481565b60185481565b601f6020526000908152604090205481565b601d6020526000908152604090205481565b60005460015460408051600160e21b633d9abf2b0281523360048201526001600160a01b0393841660248201529290911660448301525173__AOLibrary_____________________________9163f66afcac916064808301926020929190829003018186803b15801561174d57600080fd5b505af4158015611761573d6000803e3d6000fd5b505050506040513d602081101561177757600080fd5b505161178257600080fd5b6001600160a01b03811661179557600080fd5b600b80546001600160a01b039092166001600160a01b0319928316811790915560148054909216179055565b602260205260009081526040902080546001820154600283015460038401546004909401549293919290919085565b60005460015460408051600160e21b633d9abf2b0281523360048201526001600160a01b0393841660248201529290911660448301525173__AOLibrary_____________________________9163f66afcac916064808301926020929190829003018186803b15801561186257600080fd5b505af4158015611876573d6000803e3d6000fd5b505050506040513d602081101561188c57600080fd5b505161189757600080fd5b60408051600160e21b630bf295050281526001600160a01b0383166004820152905173__AOLibrary_____________________________91632fca5414916024808301926020929190829003018186803b1580156118f457600080fd5b505af4158015611908573d6000803e3d6000fd5b505050506040513d602081101561191e57600080fd5b505161192957600080fd5b600380546001600160a01b0319166001600160a01b0392909216919091179055565b601c6020526000908152604090205481565b3360009081526002602052604081205460ff16151560011461197e57600080fd5b60155460408051600160e31b630ec5fdc30281526004810185905290516001600160a01b039092169163762fee1891602480820192602092909190829003018186803b1580156119cd57600080fd5b505afa1580156119e1573d6000803e3d6000fd5b505050506040513d60208110156119f757600080fd5b5051611a0257600080fd5b60008281526019602052604090205460ff1615611a1e57600080fd5b6000828152601960205260409020805460ff19166001179055611a4082612555565b611a4982612584565b506001919050565b600c546001600160a01b031681565b6003546001600160a01b031681565b60246020526000908152604090205481565b60005460015460408051600160e21b633d9abf2b0281523360048201526001600160a01b0393841660248201529290911660448301525173__AOLibrary_____________________________9163f66afcac916064808301926020929190829003018186803b158015611af357600080fd5b505af4158015611b07573d6000803e3d6000fd5b505050506040513d6020811015611b1d57600080fd5b5051611b2857600080fd5b6001600160a01b038116611b3b57600080fd5b600080546001600160a01b0319166001600160a01b0392909216919091179055565b60005460015460408051600160e21b633d9abf2b0281523360048201526001600160a01b0393841660248201529290911660448301525173__AOLibrary_____________________________9163f66afcac916064808301926020929190829003018186803b158015611bcf57600080fd5b505af4158015611be3573d6000803e3d6000fd5b505050506040513d6020811015611bf957600080fd5b5051611c0457600080fd5b6001600160a01b038116611c1757600080fd5b600580546001600160a01b039092166001600160a01b03199283168117909155600e8054909216179055565b60028160ff161115611c5457600080fd5b60008080808060ff8616611fe2576001600160a01b0387166000908152602080805260408083208c8452909152812060018101805460028301805460038501805494879055918690559085905560048401949094559750919550909250611cc1868663ffffffff612f3516565b601654909450611cd7908563ffffffff612f3516565b6016556001600160a01b0388166000908152601b6020526040902054611d03908563ffffffff612f3516565b6001600160a01b0389166000908152601b60209081526040808320939093558e8252602390522054611d3b908563ffffffff612f3516565b60008d8152602360205260409020558815611d97576001600160a01b0388166000908152601e6020526040902054611d79908563ffffffff612f3516565b6001600160a01b0389166000908152601e6020526040902055611dda565b6001600160a01b0388166000908152601d6020526040902054611dc0908563ffffffff612f3516565b6001600160a01b0389166000908152601d60205260409020555b6001600160a01b0388166000908152601f6020526040902054611e03908663ffffffff612f3516565b6001600160a01b03808a166000818152601f602090815260409182902094909455601054600f548251600160e01b63029b7d5302815260048101949094529151908416946340c10f1994929092169263029b7d53926024808301939192829003018186803b158015611e7457600080fd5b505afa158015611e88573d6000803e3d6000fd5b505050506040513d6020811015611e9e57600080fd5b50516040805163ffffffff841660e01b81526001600160a01b039092166004830152602482018790525160448083019260209291908290030181600087803b158015611ee957600080fd5b505af1158015611efd573d6000803e3d6000fd5b505050506040513d6020811015611f1357600080fd5b5051611f1e57600080fd5b600f5460408051600160e01b63029b7d530281526001600160a01b038b8116600483015291518d93929092169163029b7d5391602480820192602092909190829003018186803b158015611f7157600080fd5b505afa158015611f85573d6000803e3d6000fd5b505050506040513d6020811015611f9b57600080fd5b50516040805186815290516001600160a01b03909216917f21c3387baaff2d916ae2cd1669d5f94fe9583036b96ef82acb3a4565815cfce89181900360200190a35061246b565b8560ff166001141561239a57506001600160a01b03861660009081526021602090815260408083208b84529091528120600181018054600283018054600485018054948790559186905560038501869055949055965091945061204b868663ffffffff612f3516565b601754909450612061908563ffffffff612f3516565b6017556001600160a01b0388166000908152601c602052604090205461208d908563ffffffff612f3516565b6001600160a01b0389166000908152601c60209081526040808320939093558e82526024905220546120c5908563ffffffff612f3516565b60008d8152602460209081526040808320939093558d82526026905220546120f3908563ffffffff612f3516565b60008c815260266020526040902055881561214f576001600160a01b0388166000908152601e6020526040902054612131908563ffffffff612f3516565b6001600160a01b0389166000908152601e6020526040902055612192565b6001600160a01b0388166000908152601d6020526040902054612178908563ffffffff612f3516565b6001600160a01b0389166000908152601d60205260409020555b6001600160a01b0388166000908152601f60205260409020546121bb908663ffffffff612f3516565b6001600160a01b03808a166000818152601f602090815260409182902094909455601154600f548251600160e01b63029b7d5302815260048101949094529151908416946340c10f1994929092169263029b7d53926024808301939192829003018186803b15801561222c57600080fd5b505afa158015612240573d6000803e3d6000fd5b505050506040513d602081101561225657600080fd5b50516040805163ffffffff841660e01b81526001600160a01b039092166004830152602482018690525160448083019260209291908290030181600087803b1580156122a157600080fd5b505af11580156122b5573d6000803e3d6000fd5b505050506040513d60208110156122cb57600080fd5b50516122d657600080fd5b600f5460408051600160e01b63029b7d530281526001600160a01b038b8116600483015291518d93929092169163029b7d5391602480820192602092909190829003018186803b15801561232957600080fd5b505afa15801561233d573d6000803e3d6000fd5b505050506040513d602081101561235357600080fd5b50516040805185815290516001600160a01b03909216917f2a9470ba36cb39f146ccc29717c9098e046e556211964a2454021d1d9fe9dd559181900360200190a35061246b565b6000898152602260205260408120600181018054600283018054928590558490556003830184905560048301939093559196509094506123e0868663ffffffff612f3516565b6018549094506123f6908563ffffffff612f3516565b6018556001600160a01b0388166000908152601f6020526040902054612422908663ffffffff612f3516565b6001600160a01b0389166000908152601f60209081526040808320939093558e825260259052205461245a908563ffffffff612f3516565b60008d815260256020526040902055505b600e5460408051600160e01b638a0660450281526001600160a01b038a811660048301526024820187905291519190921691638a0660459160448083019260209291908290030181600087803b1580156124c457600080fd5b505af11580156124d8573d6000803e3d6000fd5b505050506040513d60208110156124ee57600080fd5b50516124f957600080fd5b604080518681526020810186905260ff88168183015290518a916001600160a01b038a16917f212de36dcbb73c749ef074ec2565ecd3e461ebb1d28ea6021effdb8be7d44cda9181900360600190a35050505050505050505050565b60008061256183612f48565b915091506000612571848461355f565b905061257e848383613c42565b50505050565b600061258e613f31565b50915050600061259d836142ce565b90506000806000601560009054906101000a90046001600160a01b03166001600160a01b0316632dff0d0d876040518263ffffffff1660e01b81526004018082815260200191505060006040518083038186803b1580156125fd57600080fd5b505afa158015612611573d6000803e3d6000fd5b505050506040513d6000823e601f3d908101601f1916820160405261014081101561263b57600080fd5b8151602083015160408401516060850151608086015160a087015160c088015160e08901805197999698959794969395929491939283019291600160201b81111561268557600080fd5b8201602081018481111561269857600080fd5b8151600160201b8111828201871017156126b157600080fd5b505060135460408051600160e01b632dff0d0d028152600481018d905290519c9f509a9d50989b5060009a8b9a6001600160a01b03909a1699632dff0d0d995060248082019950610100985091965086900301935084925088915050803b15801561271b57600080fd5b505afa15801561272f573d6000803e3d6000fd5b505050506040513d61010081101561274657600080fd5b50602081015160a09091015160145460408051600160e01b632dff0d0d028152600481018a905290519395509193506000926001600160a01b0390911691632dff0d0d9160248083019286929190829003018186803b1580156127a857600080fd5b505afa1580156127bc573d6000803e3d6000fd5b505050506040513d6000823e601f3d908101601f1916820160405260a08110156127e557600080fd5b8151602083015160408401516060850180519395929491939183019291600160201b81111561281357600080fd5b8201602081018481111561282657600080fd5b8151600160201b81118282018710171561283f57600080fd5b50509291906020018051600160201b81111561285a57600080fd5b8201602081018481111561286d57600080fd5b8151600160201b81118282018710171561288657600080fd5b50959850508d159650612e15955050505050505760125460408051600160e11b6332e785670281526004810187905290516000926001600160a01b0316916365cf0ace916024808301926020929190829003018186803b1580156128e957600080fd5b505afa1580156128fd573d6000803e3d6000fd5b505050506040513d602081101561291357600080fd5b50516129205760006129af565b6129af73__AOLibrary_____________________________63caf297656040518163ffffffff1660e01b815260040160206040518083038186803b15801561296757600080fd5b505af415801561297b573d6000803e3d6000fd5b505050506040513d602081101561299157600080fd5b50516129a38a8663ffffffff61464c16565b9063ffffffff61467116565b9050600060206000866001600160a01b03166001600160a01b0316815260200190815260200160002060008c81526020019081526020016000209050818160020181905550600e60009054906101000a90046001600160a01b03166001600160a01b031663d6c9e1898683600201546040518363ffffffff1660e01b815260040180836001600160a01b03166001600160a01b0316815260200182815260200192505050602060405180830381600087803b158015612a6d57600080fd5b505af1158015612a81573d6000803e3d6000fd5b505050506040513d6020811015612a9757600080fd5b5051612aa257600080fd5b6002810154604080518b8152602081018790528082019290925260006060830152518c916001600160a01b038816916000805160206146978339815191529181900360800190a36001600160a01b03831660009081526021602090815260408083208e84529091529020612b1c8a8463ffffffff61468416565b60028201819055600e5460408051600160e01b63d6c9e1890281526001600160a01b03888116600483015260248201949094529051929091169163d6c9e189916044808201926020929091908290030181600087803b158015612b7e57600080fd5b505af1158015612b92573d6000803e3d6000fd5b505050506040513d6020811015612ba857600080fd5b5051612bb357600080fd5b8b846001600160a01b03166000805160206146978339815191528c612c4e8973__AOLibrary_____________________________63caf297656040518163ffffffff1660e01b815260040160206040518083038186803b158015612c1657600080fd5b505af4158015612c2a573d6000803e3d6000fd5b505050506040513d6020811015612c4057600080fd5b50519063ffffffff61468416565b60028601546040805193845260208401929092528282015260016060830152519081900360800190a36000602260008e81526020019081526020016000209050612d1173__AOLibrary_____________________________63caf297656040518163ffffffff1660e01b815260040160206040518083038186803b158015612cd557600080fd5b505af4158015612ce9573d6000803e3d6000fd5b505050506040513d6020811015612cff57600080fd5b50516129a38d8f63ffffffff61464c16565b60028201819055600e546000805460408051600160e01b63d6c9e1890281526001600160a01b03928316600482015260248101959095525192169263d6c9e1899260448083019360209383900390910190829087803b158015612d7357600080fd5b505af1158015612d87573d6000803e3d6000fd5b505050506040513d6020811015612d9d57600080fd5b5051612da857600080fd5b8c6000809054906101000a90046001600160a01b03166001600160a01b03166000805160206146978339815191528d8f85600201546002604051808581526020018481526020018381526020018260ff16815260200194505050505060405180910390a350505050612f2a565b60408051600080825260208201859052818301819052606082015290518a916001600160a01b038616916000805160206146978339815191529181900360800190a388816001600160a01b03166000805160206146978339815191526000612ebb8673__AOLibrary_____________________________63caf297656040518163ffffffff1660e01b815260040160206040518083038186803b158015612c1657600080fd5b60408051928352602083019190915260008282015260016060830152519081900360800190a36000805460408051838152602081018c90528082019390935260026060840152518b926001600160a01b0390921691600080516020614697833981519152919081900360800190a35b505050505050505050565b81810182811015612f4257fe5b92915050565b6000806000612f55613f31565b50509050600080600080601560009054906101000a90046001600160a01b03166001600160a01b0316632dff0d0d896040518263ffffffff1660e01b81526004018082815260200191505060006040518083038186803b158015612fb857600080fd5b505afa158015612fcc573d6000803e3d6000fd5b505050506040513d6000823e601f3d908101601f19168201604052610140811015612ff657600080fd5b8151602083015160408401516060850151608086015160a087015160c088015160e08901805197999698959794969395929491939283019291600160201b81111561304057600080fd5b8201602081018481111561305357600080fd5b8151600160201b81118282018710171561306c57600080fd5b505092919060200180519060200190929190805190602001909291905050505050505050945094509450945050600080601360009054906101000a90046001600160a01b03166001600160a01b0316632dff0d0d876040518263ffffffff1660e01b8152600401808281526020019150506101006040518083038186803b1580156130f657600080fd5b505afa15801561310a573d6000803e3d6000fd5b505050506040513d61010081101561312157600080fd5b81019080805190602001909291908051906020019092919080519060200190929190805190602001909291908051906020019092919080519060200190929190805190602001909291908051906020019092919050505050509550505050925050600060206000846001600160a01b03166001600160a01b0316815260200190815260200160002060008c815260200190815260200160002090508a8160000181905550601260009054906101000a90046001600160a01b03166001600160a01b03166365cf0ace876040518263ffffffff1660e01b81526004018082815260200191505060206040518083038186803b15801561321e57600080fd5b505afa158015613232573d6000803e3d6000fd5b505050506040513d602081101561324857600080fd5b50516132555760006132d8565b6132d873__AOLibrary_____________________________63caf297656040518163ffffffff1660e01b815260040160206040518083038186803b15801561329c57600080fd5b505af41580156132b0573d6000803e3d6000fd5b505050506040513d60208110156132c657600080fd5b50516129a3868563ffffffff61464c16565b816001018190555061344a73__AOLibrary_____________________________63caf297656040518163ffffffff1660e01b815260040160206040518083038186803b15801561332757600080fd5b505af415801561333b573d6000803e3d6000fd5b505050506040513d602081101561335157600080fd5b505160408051600160e01b63caf2976502815290516129a39173__AOLibrary_____________________________9163caf2976591600480820192602092909190829003018186803b1580156133a657600080fd5b505af41580156133ba573d6000803e3d6000fd5b505050506040513d60208110156133d057600080fd5b505160408051600160e01b63caf2976502815290516129a3918e9161343e91613431918b9173__AOLibrary_____________________________9163caf2976591600480820192602092909190829003018186803b158015612c1657600080fd5b8b9063ffffffff61464c16565b9063ffffffff61464c16565b6003820155600e54600182015460408051600160e01b6387d4ca930281526001600160a01b03898116600483015287811660248301526044820193909352905191909216916387d4ca939160648083019260209291908290030181600087803b1580156134b657600080fd5b505af11580156134ca573d6000803e3d6000fd5b505050506040513d60208110156134e057600080fd5b50516134eb57600080fd5b600181015460408051868152602081018590528082019290925260006060830152518c916001600160a01b038616917f2bc2599ff4713444a049b5e4a07d2cde6becf6e7fc7c4e041bc1cf36894f10ee9181900360800190a380600101548160030154995099505050505050505050915091565b60008061356a613f31565b505060155460408051600160e01b632dff0d0d02815260048101889052905192935060009283928392839283926001600160a01b031691632dff0d0d9160248083019286929190829003018186803b1580156135c557600080fd5b505afa1580156135d9573d6000803e3d6000fd5b505050506040513d6000823e601f3d908101601f1916820160405261014081101561360357600080fd5b8151602083015160408401516060850151608086015160a087015160c088015160e08901805197999698959794969395929491939283019291600160201b81111561364d57600080fd5b8201602081018481111561366057600080fd5b8151600160201b81118282018710171561367957600080fd5b505092919060200180519060200190929190805190602001909291905050505050505050945094509450945094506000601360009054906101000a90046001600160a01b03166001600160a01b0316632dff0d0d866040518263ffffffff1660e01b8152600401808281526020019150506101006040518083038186803b15801561370357600080fd5b505afa158015613717573d6000803e3d6000fd5b505050506040513d61010081101561372e57600080fd5b5060a0015160145460408051600160e01b632dff0d0d028152600481018a905290519293506000926001600160a01b0390921691632dff0d0d916024808201928692909190829003018186803b15801561378757600080fd5b505afa15801561379b573d6000803e3d6000fd5b505050506040513d6000823e601f3d908101601f1916820160405260a08110156137c457600080fd5b8151602083015160408401516060850180519395929491939183019291600160201b8111156137f257600080fd5b8201602081018481111561380557600080fd5b8151600160201b81118282018710171561381e57600080fd5b50509291906020018051600160201b81111561383957600080fd5b8201602081018481111561384c57600080fd5b8151600160201b81118282018710171561386557600080fd5b5050929190505050505092505050600060216000836001600160a01b03166001600160a01b0316815260200190815260200160002060008d815260200190815260200160002090508b81600001819055506138c98b8561468490919063ffffffff16565b81600101819055506139d773__AOLibrary_____________________________63caf297656040518163ffffffff1660e01b815260040160206040518083038186803b15801561391857600080fd5b505af415801561392c573d6000803e3d6000fd5b505050506040513d602081101561394257600080fd5b505160408051600160e01b63caf2976502815290516129a39173__AOLibrary_____________________________9163caf2976591600480820192602092909190829003018186803b15801561399757600080fd5b505af41580156139ab573d6000803e3d6000fd5b505050506040513d60208110156139c157600080fd5b50516129a38d61343e8a8a63ffffffff61464c16565b60048083019190915560125460408051600160e11b6332e78567028152928301899052516001600160a01b03909116916365cf0ace916024808301926020929190829003018186803b158015613a2c57600080fd5b505afa158015613a40573d6000803e3d6000fd5b505050506040513d6020811015613a5657600080fd5b505115613afe57600e54600182015460408051600160e01b6387d4ca930281526001600160a01b03898116600483015286811660248301526044820193909352905191909216916387d4ca939160648083019260209291908290030181600087803b158015613ac457600080fd5b505af1158015613ad8573d6000803e3d6000fd5b505050506040513d6020811015613aee57600080fd5b5051613af957600080fd5b613b92565b600e54600182015460408051600160e01b63d6c9e1890281526001600160a01b03868116600483015260248201939093529051919092169163d6c9e1899160448083019260209291908290030181600087803b158015613b5d57600080fd5b505af1158015613b71573d6000803e3d6000fd5b505050506040513d6020811015613b8757600080fd5b5051613b9257600080fd5b8b826001600160a01b03167f2bc2599ff4713444a049b5e4a07d2cde6becf6e7fc7c4e041bc1cf36894f10ee86613c078773__AOLibrary_____________________________63caf297656040518163ffffffff1660e01b815260040160206040518083038186803b158015612c1657600080fd5b600180870154604080519485526020850193909352838301526060830152519081900360800190a3600401549b9a5050505050505050505050565b6000613c4c613f31565b60155460408051600160e01b632dff0d0d028152600481018a90529051929550600094506001600160a01b039091169250632dff0d0d9160248083019286929190829003018186803b158015613ca157600080fd5b505afa158015613cb5573d6000803e3d6000fd5b505050506040513d6000823e601f3d908101601f19168201604052610140811015613cdf57600080fd5b8151602083015160408401516060850151608086015160a087015160c088015160e08901805197999698959794969395929491939283019291600160201b811115613d2957600080fd5b82016020810184811115613d3c57600080fd5b8151600160201b811182820187101715613d5557600080fd5b5050929190602001805190602001909291908051906020019092919050505050505050509450505050506000602260008781526020019081526020016000209050858160000181905550613e32613e2573__AOLibrary_____________________________63caf297656040518163ffffffff1660e01b815260040160206040518083038186803b158015613de957600080fd5b505af4158015613dfd573d6000803e3d6000fd5b505050506040513d6020811015613e1357600080fd5b50516129a3878763ffffffff61464c16565b869063ffffffff612f3516565b60018201819055600e546000805460408051600160e01b63d6c9e1890281526001600160a01b03928316600482015260248101959095525192169263d6c9e1899260448083019360209383900390910190829087803b158015613e9457600080fd5b505af1158015613ea8573d6000803e3d6000fd5b505050506040513d6020811015613ebe57600080fd5b5051613ec957600080fd5b60008054600183015460408051868152602081019490945283810191909152600260608401525188926001600160a01b03909216917f2bc2599ff4713444a049b5e4a07d2cde6becf6e7fc7c4e041bc1cf36894f10ee919081900360800190a3505050505050565b600d805460035460408051600160e21b631c196fb70281526001600160a01b0392831660048201526024810182905260448101949094527f696e666c6174696f6e5261746500000000000000000000000000000000000000606485015251600093849384938493911691637065bedc9160848083019286929190829003018186803b158015613fbf57600080fd5b505afa158015613fd3573d6000803e3d6000fd5b505050506040513d6000823e601f3d908101601f1916820160405260a0811015613ffc57600080fd5b815160208301516040840151606085015160808601805194969395929491939283019291600160201b81111561403157600080fd5b8201602081018481111561404457600080fd5b8151600160201b81118282018710171561405d57600080fd5b5050600d5460035460408051600160e21b631c196fb70281526001600160a01b0392831660048201526024810182905260086044820152600160c21b671d1a195053d0dd5d02606482015290519a9b5060009a919092169850637065bedc9750608480830197508a96509094509084900301915082905086803b1580156140e357600080fd5b505afa1580156140f7573d6000803e3d6000fd5b505050506040513d6000823e601f3d908101601f1916820160405260a081101561412057600080fd5b815160208301516040840151606085015160808601805194969395929491939283019291600160201b81111561415557600080fd5b8201602081018481111561416857600080fd5b8151600160201b81118282018710171561418157600080fd5b5050600d5460035460408051600160e21b631c196fb70281526001600160a01b03928316600482015260248101829052601460448201527f746865414f4574686f734561726e656452617465000000000000000000000000606482015290519a9b5060009a919092169850637065bedc9750608480830197508a96509094509084900301915082905086803b15801561421957600080fd5b505afa15801561422d573d6000803e3d6000fd5b505050506040513d6000823e601f3d908101601f1916820160405260a081101561425657600080fd5b815160208301516040840151606085015160808601805194969395929491939283019291600160201b81111561428b57600080fd5b8201602081018481111561429e57600080fd5b8151600160201b8111828201871017156142b757600080fd5b509a9e999d50969b50979950505050505050505050565b6000806142d9613f31565b505060155460408051600160e01b632dff0d0d0281526004810187905290519293506000926001600160a01b0390921691632dff0d0d916024808201928692909190829003018186803b15801561432f57600080fd5b505afa158015614343573d6000803e3d6000fd5b505050506040513d6000823e601f3d908101601f1916820160405261014081101561436d57600080fd5b8151602083015160408401516060850151608086015160a087015160c088015160e08901805197999698959794969395929491939283019291600160201b8111156143b757600080fd5b820160208101848111156143ca57600080fd5b8151600160201b8111828201871017156143e357600080fd5b505060135460408051600160e01b632dff0d0d028152600481018d905290519b9d5060009c508c9b8c9b506001600160a01b039092169950632dff0d0d9850602480820198506101009750919550859003019250839150879050803b15801561444b57600080fd5b505afa15801561445f573d6000803e3d6000fd5b505050506040513d61010081101561447657600080fd5b5060408082015160608301516080909301518251600160e01b63caf2976502815292519196509294509192506000916145219173__AOLibrary_____________________________9163caf2976591600480820192602092909190829003018186803b1580156144e557600080fd5b505af41580156144f9573d6000803e3d6000fd5b505050506040513d602081101561450f57600080fd5b50516129a3868963ffffffff61464c16565b9050600061462d73__AOLibrary_____________________________63caf297656040518163ffffffff1660e01b815260040160206040518083038186803b15801561456c57600080fd5b505af4158015614580573d6000803e3d6000fd5b505050506040513d602081101561459657600080fd5b505160408051600160e01b63d661dd3102815290516129a3918b9161343e9173__AOLibrary_____________________________9163d661dd3191600480820192602092909190829003018186803b1580156145f157600080fd5b505af4158015614605573d6000803e3d6000fd5b505050506040513d602081101561461b57600080fd5b50516129a38a8a63ffffffff61464c16565b905061463f828263ffffffff612f3516565b9998505050505050505050565b60008261465b57506000612f42565b508181028183828161466957fe5b0414612f4257fe5b600081838161467c57fe5b049392505050565b60008282111561469057fe5b5090039056fedf9b18b8b292e153b0dfff6e1d71024ca7486117e59c0bbaf074ad370deebd1ca165627a7a72305820ab86c34bb1a10e7af5797b79a31cf5f48badb107390cb4f99448868c59099ac00029",
  "source": "pragma solidity >=0.5.4 <0.6.0;\n\nimport './SafeMath.sol';\nimport './AOLibrary.sol';\nimport './TheAO.sol';\nimport './IAOEarning.sol';\nimport './IAOSetting.sol';\nimport './AOIon.sol';\nimport './INameFactory.sol';\nimport './Pathos.sol';\nimport './Ethos.sol';\nimport './IAOContent.sol';\nimport './IAOStakedContent.sol';\nimport './IAOContentHost.sol';\nimport './IAOPurchaseReceipt.sol';\n\n/**\n * @title AOEarning\n *\n * This contract stores the earning from staking/hosting content on AO\n */\ncontract AOEarning is TheAO, IAOEarning {\n\tusing SafeMath for uint256;\n\n\taddress public settingTAOId;\n\taddress public aoSettingAddress;\n\taddress public aoIonAddress;\n\taddress public nameFactoryAddress;\n\taddress public pathosAddress;\n\taddress public ethosAddress;\n\taddress public aoContentAddress;\n\taddress public aoStakedContentAddress;\n\taddress public aoContentHostAddress;\n\taddress public aoPurchaseReceiptAddress;\n\n\tIAOSetting internal _aoSetting;\n\tAOIon internal _aoIon;\n\tINameFactory internal _nameFactory;\n\tPathos internal _pathos;\n\tEthos internal _ethos;\n\tIAOContent internal _aoContent;\n\tIAOStakedContent internal _aoStakedContent;\n\tIAOContentHost internal _aoContentHost;\n\tIAOPurchaseReceipt internal _aoPurchaseReceipt;\n\n\t// Total earning from staking content from all nodes\n\tuint256 public totalStakedContentEarning;\n\n\t// Total earning from hosting content from all nodes\n\tuint256 public totalContentHostEarning;\n\n\t// Total The AO earning\n\tuint256 public totalTheAOEarning;\n\n\t// Mapping from PurchaseReceipt ID to its escrowed earning status\n\tmapping (bytes32 => bool) internal purchaseReceiptEarningEscrowed;\n\n\t// Mapping from PurchaseReceipt ID to its unescrowed earning status\n\tmapping (bytes32 => bool) internal purchaseReceiptEarningUnescrowed;\n\n\t// Mapping from address to his/her earning from content that he/she staked\n\tmapping (address => uint256) public ownerStakedContentEarning;\n\n\t// Mapping from address to his/her earning from content that he/she hosted\n\tmapping (address => uint256) public ownerContentHostEarning;\n\n\t// Mapping from address to his/her network price earning\n\t// i.e, when staked amount = filesize\n\tmapping (address => uint256) public ownerNetworkPriceEarning;\n\n\t// Mapping from address to his/her content price earning\n\t// i.e, when staked amount > filesize\n\tmapping (address => uint256) public ownerContentPriceEarning;\n\n\t// Mapping from address to his/her inflation bonus\n\tmapping (address => uint256) public ownerInflationBonusAccrued;\n\n\tstruct Earning {\n\t\tbytes32 purchaseReceiptId;\n\t\tuint256 paymentEarning;\n\t\tuint256 inflationBonus;\n\t\tuint256 pathosAmount;\n\t\tuint256 ethosAmount;\n\t}\n\n\t// Mapping from address to earning from staking content of a PurchaseReceipt ID\n\tmapping (address => mapping(bytes32 => Earning)) public ownerPurchaseReceiptStakeEarnings;\n\n\t// Mapping from address to earning from hosting content of a PurchaseReceipt ID\n\tmapping (address => mapping(bytes32 => Earning)) public ownerPurchaseReceiptHostEarnings;\n\n\t// Mapping from PurchaaseReceipt ID to earning for The AO\n\tmapping (bytes32 => Earning) public theAOPurchaseReceiptEarnings;\n\n\t// Mapping from StakedContent ID to it's total earning from staking\n\tmapping (bytes32 => uint256) public stakedContentStakeEarning;\n\n\t// Mapping from StakedContent ID to it's total earning from hosting\n\tmapping (bytes32 => uint256) public stakedContentHostEarning;\n\n\t// Mapping from StakedContent ID to it's total earning earned by The AO\n\tmapping (bytes32 => uint256) public stakedContentTheAOEarning;\n\n\t// Mapping from content host ID to it's total earning\n\tmapping (bytes32 => uint256) public contentHostEarning;\n\n\t// Event to be broadcasted to public when content creator/host earns the payment split in escrow when request node buys the content\n\t// recipientType:\n\t// 0 => Content Creator (Stake Owner)\n\t// 1 => Node Host\n\t// 2 => The AO\n\tevent PaymentEarningEscrowed(address indexed recipient, bytes32 indexed purchaseReceiptId, uint256 price, uint256 recipientProfitPercentage, uint256 recipientPaymentEarning, uint8 recipientType);\n\n\t// Event to be broadcasted to public when content creator/host/The AO earns inflation bonus in escrow when request node buys the content\n\t// recipientType:\n\t// 0 => Content Creator (Stake Owner)\n\t// 1 => Node Host\n\t// 2 => The AO\n\tevent InflationBonusEscrowed(address indexed recipient, bytes32 indexed purchaseReceiptId, uint256 totalInflationBonusAmount, uint256 recipientProfitPercentage, uint256 recipientInflationBonus, uint8 recipientType);\n\n\t// Event to be broadcasted to public when content creator/host/The AO earning is released from escrow\n\t// recipientType:\n\t// 0 => Content Creator (Stake Owner)\n\t// 1 => Node Host\n\t// 2 => The AO\n\tevent EarningUnescrowed(address indexed recipient, bytes32 indexed purchaseReceiptId, uint256 paymentEarning, uint256 inflationBonus, uint8 recipientType);\n\n\t// Event to be broadcasted to public when content creator's Name earns Pathos when a node buys a content\n\tevent PathosEarned(address indexed nameId, bytes32 indexed purchaseReceiptId, uint256 amount);\n\n\t// Event to be broadcasted to public when host's Name earns Ethos when a node buys a content\n\tevent EthosEarned(address indexed nameId, bytes32 indexed purchaseReceiptId, uint256 amount);\n\n\t/**\n\t * @dev Constructor function\n\t * @param _settingTAOId The TAO ID that controls the setting\n\t * @param _aoSettingAddress The address of AOSetting\n\t * @param _aoIonAddress The address of AOIon\n\t * @param _nameFactoryAddress The address of NameFactory\n\t * @param _pathosAddress The address of Pathos\n\t * @param _ethosAddress The address of Ethos\n\t * @param _nameTAOPositionAddress The address of NameTAOPosition\n\t */\n\tconstructor(address _settingTAOId,\n\t\taddress _aoSettingAddress,\n\t\taddress _aoIonAddress,\n\t\taddress _nameFactoryAddress,\n\t\taddress _pathosAddress,\n\t\taddress _ethosAddress,\n\t\taddress _aoContentAddress,\n\t\taddress _nameTAOPositionAddress) public {\n\t\tsetSettingTAOId(_settingTAOId);\n\t\tsetAOSettingAddress(_aoSettingAddress);\n\t\tsetAOIonAddress(_aoIonAddress);\n\t\tsetNameFactoryAddress(_nameFactoryAddress);\n\t\tsetPathosAddress(_pathosAddress);\n\t\tsetEthosAddress(_ethosAddress);\n\t\tsetAOContentAddress(_aoContentAddress);\n\t\tsetNameTAOPositionAddress(_nameTAOPositionAddress);\n\t}\n\n\t/**\n\t * @dev Checks if the calling contract address is The AO\n\t *\t\tOR\n\t *\t\tIf The AO is set to a Name/TAO, then check if calling address is the Advocate\n\t */\n\tmodifier onlyTheAO {\n\t\trequire (AOLibrary.isTheAO(msg.sender, theAO, nameTAOPositionAddress));\n\t\t_;\n\t}\n\n\t/***** The AO ONLY METHODS *****/\n\t/**\n\t * @dev Transfer ownership of The AO to new address\n\t * @param _theAO The new address to be transferred\n\t */\n\tfunction transferOwnership(address _theAO) public onlyTheAO {\n\t\trequire (_theAO != address(0));\n\t\ttheAO = _theAO;\n\t}\n\n\t/**\n\t * @dev Whitelist `_account` address to transact on behalf of others\n\t * @param _account The address to whitelist\n\t * @param _whitelist Either to whitelist or not\n\t */\n\tfunction setWhitelist(address _account, bool _whitelist) public onlyTheAO {\n\t\trequire (_account != address(0));\n\t\twhitelist[_account] = _whitelist;\n\t}\n\n\t/**\n\t * @dev The AO sets setting TAO ID\n\t * @param _settingTAOId The new setting TAO ID to set\n\t */\n\tfunction setSettingTAOId(address _settingTAOId) public onlyTheAO {\n\t\trequire (AOLibrary.isTAO(_settingTAOId));\n\t\tsettingTAOId = _settingTAOId;\n\t}\n\n\t/**\n\t * @dev The AO sets AO Setting address\n\t * @param _aoSettingAddress The address of AOSetting\n\t */\n\tfunction setAOSettingAddress(address _aoSettingAddress) public onlyTheAO {\n\t\trequire (_aoSettingAddress != address(0));\n\t\taoSettingAddress = _aoSettingAddress;\n\t\t_aoSetting = IAOSetting(_aoSettingAddress);\n\t}\n\n\t/**\n\t * @dev The AO sets AOIon address\n\t * @param _aoIonAddress The address of AOIon\n\t */\n\tfunction setAOIonAddress(address _aoIonAddress) public onlyTheAO {\n\t\trequire (_aoIonAddress != address(0));\n\t\taoIonAddress = _aoIonAddress;\n\t\t_aoIon = AOIon(_aoIonAddress);\n\t}\n\n\t/**\n\t * @dev The AO sets NameFactory address\n\t * @param _nameFactoryAddress The address of NameFactory\n\t */\n\tfunction setNameFactoryAddress(address _nameFactoryAddress) public onlyTheAO {\n\t\trequire (_nameFactoryAddress != address(0));\n\t\tnameFactoryAddress = _nameFactoryAddress;\n\t\t_nameFactory = INameFactory(_nameFactoryAddress);\n\t}\n\n\t/**\n\t * @dev The AO sets Pathos address\n\t * @param _pathosAddress The address of Pathos\n\t */\n\tfunction setPathosAddress(address _pathosAddress) public onlyTheAO {\n\t\trequire (_pathosAddress != address(0));\n\t\tpathosAddress = _pathosAddress;\n\t\t_pathos = Pathos(_pathosAddress);\n\t}\n\n\t/**\n\t * @dev The AO sets Ethos address\n\t * @param _ethosAddress The address of Ethos\n\t */\n\tfunction setEthosAddress(address _ethosAddress) public onlyTheAO {\n\t\trequire (_ethosAddress != address(0));\n\t\tethosAddress = _ethosAddress;\n\t\t_ethos = Ethos(_ethosAddress);\n\t}\n\n\t/**\n\t * @dev The AO sets AOContent address\n\t * @param _aoContentAddress The address of AOContent\n\t */\n\tfunction setAOContentAddress(address _aoContentAddress) public onlyTheAO {\n\t\trequire (_aoContentAddress != address(0));\n\t\taoContentAddress = _aoContentAddress;\n\t\t_aoContent = IAOContent(_aoContentAddress);\n\t}\n\n\t/**\n\t * @dev The AO sets AOStakedContent address\n\t * @param _aoStakedContentAddress The address of AOStakedContent\n\t */\n\tfunction setAOStakedContentAddress(address _aoStakedContentAddress) public onlyTheAO {\n\t\trequire (_aoStakedContentAddress != address(0));\n\t\taoStakedContentAddress = _aoStakedContentAddress;\n\t\t_aoStakedContent = IAOStakedContent(_aoStakedContentAddress);\n\t}\n\n\t/**\n\t * @dev The AO sets AOContentHost address\n\t * @param _aoContentHostAddress The address of AOContentHost\n\t */\n\tfunction setAOContentHostAddress(address _aoContentHostAddress) public onlyTheAO {\n\t\trequire (_aoContentHostAddress != address(0));\n\t\taoContentHostAddress = _aoContentHostAddress;\n\t\t_aoContentHost = IAOContentHost(_aoContentHostAddress);\n\t}\n\n\t/**\n\t * @dev The AO sets AOPurchaseReceipt address\n\t * @param _aoPurchaseReceiptAddress The address of AOPurchaseReceipt\n\t */\n\tfunction setAOPurchaseReceiptAddress(address _aoPurchaseReceiptAddress) public onlyTheAO {\n\t\trequire (_aoPurchaseReceiptAddress != address(0));\n\t\taoPurchaseReceiptAddress = _aoPurchaseReceiptAddress;\n\t\t_aoPurchaseReceipt = IAOPurchaseReceipt(_aoPurchaseReceiptAddress);\n\t}\n\n\t/**\n\t * @dev The AO set the NameTAOPosition Address\n\t * @param _nameTAOPositionAddress The address of NameTAOPosition\n\t */\n\tfunction setNameTAOPositionAddress(address _nameTAOPositionAddress) public onlyTheAO {\n\t\trequire (_nameTAOPositionAddress != address(0));\n\t\tnameTAOPositionAddress = _nameTAOPositionAddress;\n\t}\n\n\t/***** PUBLIC METHODS *****/\n\t/**\n\t * @dev Calculate the content creator/host/The AO earning when request node buys the content.\n\t *\t\tAlso at this stage, all of the earnings are stored in escrow\n\t * @param _purchaseReceiptId The ID of the purchase receipt object\n\t * @return true on success\n\t */\n\tfunction calculateEarning(bytes32 _purchaseReceiptId) external inWhitelist returns (bool) {\n\t\trequire (_aoPurchaseReceipt.isExist(_purchaseReceiptId));\n\t\trequire (!purchaseReceiptEarningEscrowed[_purchaseReceiptId]);\n\t\tpurchaseReceiptEarningEscrowed[_purchaseReceiptId] = true;\n\n\t\t// Split the payment earning between content creator and host and store them in escrow\n\t\t_escrowPaymentEarning(_purchaseReceiptId);\n\n\t\t// Calculate the inflation bonus earning for content creator/node/The AO in escrow\n\t\t_escrowInflationBonus(_purchaseReceiptId);\n\t\treturn true;\n\t}\n\n\t/**\n\t * @dev Release the payment earning and inflation bonus that is in escrow for specific PurchaseReceipt ID\n\t * @param _purchaseReceiptId The purchase receipt ID to check\n\t * @return true on success\n\t */\n\tfunction releaseEarning(bytes32 _purchaseReceiptId) external inWhitelist returns (bool) {\n\t\trequire (_aoPurchaseReceipt.isExist(_purchaseReceiptId));\n\t\trequire (purchaseReceiptEarningEscrowed[_purchaseReceiptId] && !purchaseReceiptEarningUnescrowed[_purchaseReceiptId]);\n\t\tpurchaseReceiptEarningUnescrowed[_purchaseReceiptId] = true;\n\n\t\t(bytes32 _contentHostId, bytes32 _stakedContentId, bytes32 _contentId,,, uint256 _amountPaidByBuyer,,,,) = _aoPurchaseReceipt.getById(_purchaseReceiptId);\n\t\t(, address _stakeOwner,,,,,,) = _aoStakedContent.getById(_stakedContentId);\n\t\t(,, address _host,,) = _aoContentHost.getById(_contentHostId);\n\t\t(, uint256 _fileSize,,,,,,,) = _aoContent.getById(_contentId);\n\n\t\t// Release the earning in escrow for stake owner\n\t\t_releaseEarning(_stakedContentId, _contentHostId, _purchaseReceiptId, _amountPaidByBuyer > _fileSize, _stakeOwner, 0);\n\n\t\t// Release the earning in escrow for host\n\t\t_releaseEarning(_stakedContentId, _contentHostId, _purchaseReceiptId, _amountPaidByBuyer > _fileSize, _host, 1);\n\n\t\t// Release the earning in escrow for The AO\n\t\t_releaseEarning(_stakedContentId, _contentHostId, _purchaseReceiptId, _amountPaidByBuyer > _fileSize, theAO, 2);\n\t\treturn true;\n\t}\n\n\t/**\n\t * @dev Return the earning information of a StakedContent ID\n\t * @param _stakedContentId The ID of the staked content\n\t * @return the total earning from staking this content\n\t * @return the total earning from hosting this content\n\t * @return the total The AO earning of this content\n\t */\n\tfunction getTotalStakedContentEarning(bytes32 _stakedContentId) external view returns (uint256, uint256, uint256) {\n\t\treturn (\n\t\t\tstakedContentStakeEarning[_stakedContentId],\n\t\t\tstakedContentHostEarning[_stakedContentId],\n\t\t\tstakedContentTheAOEarning[_stakedContentId]\n\t\t);\n\t}\n\n\t/***** INTERNAL METHODS *****/\n\t/**\n\t * @dev Calculate the payment split for content creator/host and store them in escrow\n\t * @param _purchaseReceiptId The ID of the purchase receipt object\n\t */\n\tfunction _escrowPaymentEarning(bytes32 _purchaseReceiptId) internal {\n\t\t(uint256 _stakeOwnerEarning, uint256 _pathosAmount) = _escrowStakeOwnerPaymentEarning(_purchaseReceiptId);\n\t\t(uint256 _ethosAmount) = _escrowHostPaymentEarning(_purchaseReceiptId, _stakeOwnerEarning);\n\t\t_escrowTheAOPaymentEarning(_purchaseReceiptId, _pathosAmount, _ethosAmount);\n\t}\n\n\t/**\n\t * @dev Calculate the payment split for content creator and store them in escrow\n\t * @param _purchaseReceiptId The ID of the purchase receipt object\n\t * @return The stake owner's earning amount\n\t * @return The pathos earned from this transaction\n\t */\n\tfunction _escrowStakeOwnerPaymentEarning(bytes32 _purchaseReceiptId) internal returns (uint256, uint256) {\n\t\t(uint256 inflationRate,,) = _getSettingVariables();\n\t\t(, bytes32 _stakedContentId, bytes32 _contentId, address _buyer, uint256 _price,,,,,) = _aoPurchaseReceipt.getById(_purchaseReceiptId);\n\t\t(, address _stakeOwner,,,, uint256 _profitPercentage,,) = _aoStakedContent.getById(_stakedContentId);\n\n\t\tEarning storage _ownerPurchaseReceiptStakeEarning = ownerPurchaseReceiptStakeEarnings[_stakeOwner][_purchaseReceiptId];\n\t\t_ownerPurchaseReceiptStakeEarning.purchaseReceiptId = _purchaseReceiptId;\n\n\t\t// Store how much the content creator (stake owner) earns in escrow\n\t\t// If content is AO Content Usage Type, stake owner earns 0%\n\t\t// and all profit goes to the serving host node\n\t\t_ownerPurchaseReceiptStakeEarning.paymentEarning = _aoContent.isAOContentUsageType(_contentId) ? (_price.mul(_profitPercentage)).div(AOLibrary.PERCENTAGE_DIVISOR()) : 0;\n\t\t// Pathos = Price X Node Share X Inflation Rate\n\t\t_ownerPurchaseReceiptStakeEarning.pathosAmount = _price.mul(AOLibrary.PERCENTAGE_DIVISOR().sub(_profitPercentage)).mul(inflationRate).div(AOLibrary.PERCENTAGE_DIVISOR()).div(AOLibrary.PERCENTAGE_DIVISOR());\n\t\trequire (_aoIon.escrowFrom(_buyer, _stakeOwner, _ownerPurchaseReceiptStakeEarning.paymentEarning));\n\t\temit PaymentEarningEscrowed(_stakeOwner, _purchaseReceiptId, _price, _profitPercentage, _ownerPurchaseReceiptStakeEarning.paymentEarning, 0);\n\t\treturn (_ownerPurchaseReceiptStakeEarning.paymentEarning, _ownerPurchaseReceiptStakeEarning.pathosAmount);\n\t}\n\n\t/**\n\t * @dev Calculate the payment split for host node and store them in escrow\n\t * @param _purchaseReceiptId The ID of the purchase receipt object\n\t * @param _stakeOwnerEarning The stake owner's earning amount\n\t * @return The ethos earned from this transaction\n\t */\n\tfunction _escrowHostPaymentEarning(bytes32 _purchaseReceiptId, uint256 _stakeOwnerEarning) internal returns (uint256) {\n\t\t(uint256 inflationRate,,) = _getSettingVariables();\n\t\t(bytes32 _contentHostId, bytes32 _stakedContentId, bytes32 _contentId, address _buyer, uint256 _price,,,,,) = _aoPurchaseReceipt.getById(_purchaseReceiptId);\n\t\t(,,,,, uint256 _profitPercentage,,) = _aoStakedContent.getById(_stakedContentId);\n\t\t(,, address _host,,) = _aoContentHost.getById(_contentHostId);\n\n\t\t// Store how much the node host earns in escrow\n\t\tEarning storage _ownerPurchaseReceiptHostEarning = ownerPurchaseReceiptHostEarnings[_host][_purchaseReceiptId];\n\t\t_ownerPurchaseReceiptHostEarning.purchaseReceiptId = _purchaseReceiptId;\n\t\t_ownerPurchaseReceiptHostEarning.paymentEarning = _price.sub(_stakeOwnerEarning);\n\t\t// Ethos = Price X Creator Share X Inflation Rate\n\t\t_ownerPurchaseReceiptHostEarning.ethosAmount = _price.mul(_profitPercentage).mul(inflationRate).div(AOLibrary.PERCENTAGE_DIVISOR()).div(AOLibrary.PERCENTAGE_DIVISOR());\n\n\t\tif (_aoContent.isAOContentUsageType(_contentId)) {\n\t\t\trequire (_aoIon.escrowFrom(_buyer, _host, _ownerPurchaseReceiptHostEarning.paymentEarning));\n\t\t} else {\n\t\t\t// If not AO Content usage type, we want to mint to the host\n\t\t\trequire (_aoIon.mintEscrow(_host, _ownerPurchaseReceiptHostEarning.paymentEarning));\n\t\t}\n\t\temit PaymentEarningEscrowed(_host, _purchaseReceiptId, _price, AOLibrary.PERCENTAGE_DIVISOR().sub(_profitPercentage), _ownerPurchaseReceiptHostEarning.paymentEarning, 1);\n\t\treturn _ownerPurchaseReceiptHostEarning.ethosAmount;\n\t}\n\n\t/**\n\t * @dev Calculate the earning for The AO and store them in escrow\n\t * @param _purchaseReceiptId The ID of the purchase receipt object\n\t * @param _pathosAmount The amount of pathos earned by stake owner\n\t * @param _ethosAmount The amount of ethos earned by host node\n\t */\n\tfunction _escrowTheAOPaymentEarning(bytes32 _purchaseReceiptId, uint256 _pathosAmount, uint256 _ethosAmount) internal {\n\t\t(,,uint256 theAOEthosEarnedRate) = _getSettingVariables();\n\t\t(,,,, uint256 _price,,,,,) = _aoPurchaseReceipt.getById(_purchaseReceiptId);\n\n\t\t// Store how much The AO earns in escrow\n\t\tEarning storage _theAOPurchaseReceiptEarning = theAOPurchaseReceiptEarnings[_purchaseReceiptId];\n\t\t_theAOPurchaseReceiptEarning.purchaseReceiptId = _purchaseReceiptId;\n\t\t// Pathos + X% of Ethos\n\t\t_theAOPurchaseReceiptEarning.paymentEarning = _pathosAmount.add(_ethosAmount.mul(theAOEthosEarnedRate).div(AOLibrary.PERCENTAGE_DIVISOR()));\n\t\trequire (_aoIon.mintEscrow(theAO, _theAOPurchaseReceiptEarning.paymentEarning));\n\t\temit PaymentEarningEscrowed(theAO, _purchaseReceiptId, _price, 0, _theAOPurchaseReceiptEarning.paymentEarning, 2);\n\t}\n\n\t/**\n\t * @dev Mint the inflation bonus for content creator/host/The AO and store them in escrow\n\t * @param _purchaseReceiptId The ID of the purchase receipt object\n\t */\n\tfunction _escrowInflationBonus(\n\t\tbytes32 _purchaseReceiptId\n\t) internal {\n\t\t(, uint256 theAOCut,) = _getSettingVariables();\n\t\tuint256 _inflationBonusAmount = _calculateInflationBonus(_purchaseReceiptId);\n\t\t(bytes32 _contentHostId, bytes32 _stakedContentId, bytes32 _contentId,,,,,,,) = _aoPurchaseReceipt.getById(_purchaseReceiptId);\n\t\t(, address _stakeOwner,,,, uint256 _profitPercentage,,) = _aoStakedContent.getById(_stakedContentId);\n\t\t(,, address _host,,) = _aoContentHost.getById(_contentHostId);\n\n\t\tif (_inflationBonusAmount > 0) {\n\t\t\t// Store how much the content creator earns in escrow\n\t\t\tuint256 _stakeOwnerInflationBonus = _aoContent.isAOContentUsageType(_contentId) ? (_inflationBonusAmount.mul(_profitPercentage)).div(AOLibrary.PERCENTAGE_DIVISOR()) : 0;\n\t\t\tEarning storage _ownerPurchaseReceiptStakeEarning = ownerPurchaseReceiptStakeEarnings[_stakeOwner][_purchaseReceiptId];\n\t\t\t_ownerPurchaseReceiptStakeEarning.inflationBonus = _stakeOwnerInflationBonus;\n\t\t\trequire (_aoIon.mintEscrow(_stakeOwner, _ownerPurchaseReceiptStakeEarning.inflationBonus));\n\t\t\temit InflationBonusEscrowed(_stakeOwner, _purchaseReceiptId, _inflationBonusAmount, _profitPercentage, _ownerPurchaseReceiptStakeEarning.inflationBonus, 0);\n\n\t\t\t// Store how much the host earns in escrow\n\t\t\tEarning storage _ownerPurchaseReceiptHostEarning = ownerPurchaseReceiptHostEarnings[_host][_purchaseReceiptId];\n\t\t\t_ownerPurchaseReceiptHostEarning.inflationBonus = _inflationBonusAmount.sub(_stakeOwnerInflationBonus);\n\t\t\trequire (_aoIon.mintEscrow(_host, _ownerPurchaseReceiptHostEarning.inflationBonus));\n\t\t\temit InflationBonusEscrowed(_host, _purchaseReceiptId, _inflationBonusAmount, AOLibrary.PERCENTAGE_DIVISOR().sub(_profitPercentage), _ownerPurchaseReceiptHostEarning.inflationBonus, 1);\n\n\t\t\t// Store how much the The AO earns in escrow\n\t\t\tEarning storage _theAOPurchaseReceiptEarning = theAOPurchaseReceiptEarnings[_purchaseReceiptId];\n\t\t\t_theAOPurchaseReceiptEarning.inflationBonus = (_inflationBonusAmount.mul(theAOCut)).div(AOLibrary.PERCENTAGE_DIVISOR());\n\t\t\trequire (_aoIon.mintEscrow(theAO, _theAOPurchaseReceiptEarning.inflationBonus));\n\t\t\temit InflationBonusEscrowed(theAO, _purchaseReceiptId, _inflationBonusAmount, theAOCut, _theAOPurchaseReceiptEarning.inflationBonus, 2);\n\t\t} else {\n\t\t\temit InflationBonusEscrowed(_stakeOwner, _purchaseReceiptId, 0, _profitPercentage, 0, 0);\n\t\t\temit InflationBonusEscrowed(_host, _purchaseReceiptId, 0, AOLibrary.PERCENTAGE_DIVISOR().sub(_profitPercentage), 0, 1);\n\t\t\temit InflationBonusEscrowed(theAO, _purchaseReceiptId, 0, theAOCut, 0, 2);\n\t\t}\n\t}\n\n\t/**\n\t * @dev Calculate the inflation bonus amount\n\t * @param _purchaseReceiptId The ID of the PurchaseReceipt\n\t * @return the bonus network amount\n\t */\n\tfunction _calculateInflationBonus(bytes32 _purchaseReceiptId) internal view returns (uint256) {\n\t\t(uint256 inflationRate,,) = _getSettingVariables();\n\t\t(, bytes32 _stakedContentId,,,,,,,,) = _aoPurchaseReceipt.getById(_purchaseReceiptId);\n\t\t(,,uint256 _networkAmount, uint256 _primordialAmount, uint256 _primordialWeightedMultiplier,,,) = _aoStakedContent.getById(_stakedContentId);\n\n\t\tuint256 _networkBonus = _networkAmount.mul(inflationRate).div(AOLibrary.PERCENTAGE_DIVISOR());\n\t\tuint256 _primordialBonus = _primordialAmount.mul(_primordialWeightedMultiplier).div(AOLibrary.MULTIPLIER_DIVISOR()).mul(inflationRate).div(AOLibrary.PERCENTAGE_DIVISOR());\n\t\treturn _networkBonus.add(_primordialBonus);\n\t}\n\n\t/**\n\t * @dev Release the escrowed earning for a specific PurchaseReceipt ID for an account\n\t * @param _stakedContentId The ID of the staked content\n\t * @param _contentHostId The ID of the hosted content\n\t * @param _purchaseReceiptId The purchase receipt ID\n\t * @param _buyerPaidMoreThanFileSize Whether or not the request node paid more than filesize when buying the content\n\t * @param _account The address of account that made the earning (content creator/host)\n\t * @param _recipientType The type of the earning recipient (0 => content creator. 1 => host. 2 => theAO)\n\t */\n\tfunction _releaseEarning(bytes32 _stakedContentId, bytes32 _contentHostId, bytes32 _purchaseReceiptId, bool _buyerPaidMoreThanFileSize, address _account, uint8 _recipientType) internal {\n\t\t// Make sure the recipient type is valid\n\t\trequire (_recipientType >= 0 && _recipientType <= 2);\n\n\t\tuint256 _paymentEarning;\n\t\tuint256 _inflationBonus;\n\t\tuint256 _totalEarning;\n\t\tuint256 _pathosAmount;\n\t\tuint256 _ethosAmount;\n\t\tif (_recipientType == 0) {\n\t\t\tEarning storage _earning = ownerPurchaseReceiptStakeEarnings[_account][_purchaseReceiptId];\n\t\t\t_paymentEarning = _earning.paymentEarning;\n\t\t\t_inflationBonus = _earning.inflationBonus;\n\t\t\t_pathosAmount = _earning.pathosAmount;\n\t\t\t_earning.paymentEarning = 0;\n\t\t\t_earning.inflationBonus = 0;\n\t\t\t_earning.pathosAmount = 0;\n\t\t\t_earning.ethosAmount = 0;\n\t\t\t_totalEarning = _paymentEarning.add(_inflationBonus);\n\n\t\t\t// Update the global var settings\n\t\t\ttotalStakedContentEarning = totalStakedContentEarning.add(_totalEarning);\n\t\t\townerStakedContentEarning[_account] = ownerStakedContentEarning[_account].add(_totalEarning);\n\t\t\tstakedContentStakeEarning[_stakedContentId] = stakedContentStakeEarning[_stakedContentId].add(_totalEarning);\n\t\t\tif (_buyerPaidMoreThanFileSize) {\n\t\t\t\townerContentPriceEarning[_account] = ownerContentPriceEarning[_account].add(_totalEarning);\n\t\t\t} else {\n\t\t\t\townerNetworkPriceEarning[_account] = ownerNetworkPriceEarning[_account].add(_totalEarning);\n\t\t\t}\n\t\t\townerInflationBonusAccrued[_account] = ownerInflationBonusAccrued[_account].add(_inflationBonus);\n\n\t\t\t// Reward the content creator/stake owner with some Pathos\n\t\t\trequire (_pathos.mint(_nameFactory.ethAddressToNameId(_account), _pathosAmount));\n\t\t\temit PathosEarned(_nameFactory.ethAddressToNameId(_account), _purchaseReceiptId, _pathosAmount);\n\t\t} else if (_recipientType == 1) {\n\t\t\tEarning storage _earning = ownerPurchaseReceiptHostEarnings[_account][_purchaseReceiptId];\n\t\t\t_paymentEarning = _earning.paymentEarning;\n\t\t\t_inflationBonus = _earning.inflationBonus;\n\t\t\t_ethosAmount = _earning.ethosAmount;\n\t\t\t_earning.paymentEarning = 0;\n\t\t\t_earning.inflationBonus = 0;\n\t\t\t_earning.pathosAmount = 0;\n\t\t\t_earning.ethosAmount = 0;\n\t\t\t_totalEarning = _paymentEarning.add(_inflationBonus);\n\n\t\t\t// Update the global var settings\n\t\t\ttotalContentHostEarning = totalContentHostEarning.add(_totalEarning);\n\t\t\townerContentHostEarning[_account] = ownerContentHostEarning[_account].add(_totalEarning);\n\t\t\tstakedContentHostEarning[_stakedContentId] = stakedContentHostEarning[_stakedContentId].add(_totalEarning);\n\t\t\tcontentHostEarning[_contentHostId] = contentHostEarning[_contentHostId].add(_totalEarning);\n\t\t\tif (_buyerPaidMoreThanFileSize) {\n\t\t\t\townerContentPriceEarning[_account] = ownerContentPriceEarning[_account].add(_totalEarning);\n\t\t\t} else {\n\t\t\t\townerNetworkPriceEarning[_account] = ownerNetworkPriceEarning[_account].add(_totalEarning);\n\t\t\t}\n\t\t\townerInflationBonusAccrued[_account] = ownerInflationBonusAccrued[_account].add(_inflationBonus);\n\n\t\t\t// Reward the host node with some Ethos\n\t\t\trequire (_ethos.mint(_nameFactory.ethAddressToNameId(_account), _ethosAmount));\n\t\t\temit EthosEarned(_nameFactory.ethAddressToNameId(_account), _purchaseReceiptId, _ethosAmount);\n\t\t} else {\n\t\t\tEarning storage _earning = theAOPurchaseReceiptEarnings[_purchaseReceiptId];\n\t\t\t_paymentEarning = _earning.paymentEarning;\n\t\t\t_inflationBonus = _earning.inflationBonus;\n\t\t\t_earning.paymentEarning = 0;\n\t\t\t_earning.inflationBonus = 0;\n\t\t\t_earning.pathosAmount = 0;\n\t\t\t_earning.ethosAmount = 0;\n\t\t\t_totalEarning = _paymentEarning.add(_inflationBonus);\n\n\t\t\t// Update the global var settings\n\t\t\ttotalTheAOEarning = totalTheAOEarning.add(_totalEarning);\n\t\t\townerInflationBonusAccrued[_account] = ownerInflationBonusAccrued[_account].add(_inflationBonus);\n\t\t\tstakedContentTheAOEarning[_stakedContentId] = stakedContentTheAOEarning[_stakedContentId].add(_totalEarning);\n\t\t}\n\t\trequire (_aoIon.unescrowFrom(_account, _totalEarning));\n\t\temit EarningUnescrowed(_account, _purchaseReceiptId, _paymentEarning, _inflationBonus, _recipientType);\n\t}\n\n\t/**\n\t * @dev Get setting variables\n\t * @return inflationRate The rate to use when calculating inflation bonus\n\t * @return theAOCut The rate to use when calculating the AO earning\n\t * @return theAOEthosEarnedRate The rate to use when calculating the Ethos to AO rate for the AO\n\t */\n\tfunction _getSettingVariables() internal view returns (uint256, uint256, uint256) {\n\t\t(uint256 inflationRate,,,,) = _aoSetting.getSettingValuesByTAOName(settingTAOId, 'inflationRate');\n\t\t(uint256 theAOCut,,,,) = _aoSetting.getSettingValuesByTAOName(settingTAOId, 'theAOCut');\n\t\t(uint256 theAOEthosEarnedRate,,,,) = _aoSetting.getSettingValuesByTAOName(settingTAOId, 'theAOEthosEarnedRate');\n\n\t\treturn (inflationRate, theAOCut, theAOEthosEarnedRate);\n\t}\n}\n",
  "sourcePath": "/usr/local/ao-contracts/contracts/AOEarning.sol",
  "compiler": {
    "name": "solc",
    "version": "0.5.6+commit.b259423e.Emscripten.clang"
  },
  "schemaVersion": "3.0.2",
  "updatedAt": "2019-03-28T22:28:47.495Z",
  "devdoc": {
    "methods": {
      "calculateEarning(bytes32)": {
        "details": "Calculate the content creator/host/The AO earning when request node buys the content.\tAlso at this stage, all of the earnings are stored in escrow",
        "params": {
          "_purchaseReceiptId": "The ID of the purchase receipt object"
        },
        "return": "true on success"
      },
      "constructor": {
        "details": "Constructor function",
        "params": {
          "_aoIonAddress": "The address of AOIon",
          "_aoSettingAddress": "The address of AOSetting",
          "_ethosAddress": "The address of Ethos",
          "_nameFactoryAddress": "The address of NameFactory",
          "_nameTAOPositionAddress": "The address of NameTAOPosition",
          "_pathosAddress": "The address of Pathos",
          "_settingTAOId": "The TAO ID that controls the setting"
        }
      },
      "getTotalStakedContentEarning(bytes32)": {
        "details": "Return the earning information of a StakedContent ID",
        "params": {
          "_stakedContentId": "The ID of the staked content"
        },
        "return": "the total earning from staking this contentthe total earning from hosting this contentthe total The AO earning of this content"
      },
      "releaseEarning(bytes32)": {
        "details": "Release the payment earning and inflation bonus that is in escrow for specific PurchaseReceipt ID",
        "params": {
          "_purchaseReceiptId": "The purchase receipt ID to check"
        },
        "return": "true on success"
      },
      "setAOContentAddress(address)": {
        "details": "The AO sets AOContent address",
        "params": {
          "_aoContentAddress": "The address of AOContent"
        }
      },
      "setAOContentHostAddress(address)": {
        "details": "The AO sets AOContentHost address",
        "params": {
          "_aoContentHostAddress": "The address of AOContentHost"
        }
      },
      "setAOIonAddress(address)": {
        "details": "The AO sets AOIon address",
        "params": {
          "_aoIonAddress": "The address of AOIon"
        }
      },
      "setAOPurchaseReceiptAddress(address)": {
        "details": "The AO sets AOPurchaseReceipt address",
        "params": {
          "_aoPurchaseReceiptAddress": "The address of AOPurchaseReceipt"
        }
      },
      "setAOSettingAddress(address)": {
        "details": "The AO sets AO Setting address",
        "params": {
          "_aoSettingAddress": "The address of AOSetting"
        }
      },
      "setAOStakedContentAddress(address)": {
        "details": "The AO sets AOStakedContent address",
        "params": {
          "_aoStakedContentAddress": "The address of AOStakedContent"
        }
      },
      "setEthosAddress(address)": {
        "details": "The AO sets Ethos address",
        "params": {
          "_ethosAddress": "The address of Ethos"
        }
      },
      "setNameFactoryAddress(address)": {
        "details": "The AO sets NameFactory address",
        "params": {
          "_nameFactoryAddress": "The address of NameFactory"
        }
      },
      "setNameTAOPositionAddress(address)": {
        "details": "The AO set the NameTAOPosition Address",
        "params": {
          "_nameTAOPositionAddress": "The address of NameTAOPosition"
        }
      },
      "setPathosAddress(address)": {
        "details": "The AO sets Pathos address",
        "params": {
          "_pathosAddress": "The address of Pathos"
        }
      },
      "setSettingTAOId(address)": {
        "details": "The AO sets setting TAO ID",
        "params": {
          "_settingTAOId": "The new setting TAO ID to set"
        }
      },
      "setWhitelist(address,bool)": {
        "details": "Whitelist `_account` address to transact on behalf of others",
        "params": {
          "_account": "The address to whitelist",
          "_whitelist": "Either to whitelist or not"
        }
      },
      "transferOwnership(address)": {
        "details": "Transfer ownership of The AO to new address",
        "params": {
          "_theAO": "The new address to be transferred"
        }
      }
    },
    "title": "AOEarning * This contract stores the earning from staking/hosting content on AO"
  },
  "userdoc": {
    "methods": {}
  }
}