{
	"contractName": "AOEarning",
	"abi": [
		{
			"constant": true,
			"inputs": [],
			"name": "aoSettingAddress",
			"outputs": [
				{
					"name": "",
					"type": "address"
				}
			],
			"payable": false,
			"stateMutability": "view",
			"type": "function"
		},
		{
			"constant": true,
			"inputs": [],
			"name": "killed",
			"outputs": [
				{
					"name": "",
					"type": "bool"
				}
			],
			"payable": false,
			"stateMutability": "view",
			"type": "function"
		},
		{
			"constant": true,
			"inputs": [
				{
					"name": "",
					"type": "address"
				}
			],
			"name": "hostContentEarning",
			"outputs": [
				{
					"name": "",
					"type": "uint256"
				}
			],
			"payable": false,
			"stateMutability": "view",
			"type": "function"
		},
		{
			"constant": true,
			"inputs": [],
			"name": "pathosAddress",
			"outputs": [
				{
					"name": "",
					"type": "address"
				}
			],
			"payable": false,
			"stateMutability": "view",
			"type": "function"
		},
		{
			"constant": true,
			"inputs": [],
			"name": "nameTAOPositionAddress",
			"outputs": [
				{
					"name": "",
					"type": "address"
				}
			],
			"payable": false,
			"stateMutability": "view",
			"type": "function"
		},
		{
			"constant": true,
			"inputs": [
				{
					"name": "",
					"type": "address"
				}
			],
			"name": "networkPriceEarning",
			"outputs": [
				{
					"name": "",
					"type": "uint256"
				}
			],
			"payable": false,
			"stateMutability": "view",
			"type": "function"
		},
		{
			"constant": true,
			"inputs": [],
			"name": "paused",
			"outputs": [
				{
					"name": "",
					"type": "bool"
				}
			],
			"payable": false,
			"stateMutability": "view",
			"type": "function"
		},
		{
			"constant": true,
			"inputs": [
				{
					"name": "",
					"type": "bytes32"
				}
			],
			"name": "totalHostContentEarningById",
			"outputs": [
				{
					"name": "",
					"type": "uint256"
				}
			],
			"payable": false,
			"stateMutability": "view",
			"type": "function"
		},
		{
			"constant": true,
			"inputs": [
				{
					"name": "",
					"type": "address"
				},
				{
					"name": "",
					"type": "bytes32"
				}
			],
			"name": "hostEarnings",
			"outputs": [
				{
					"name": "purchaseId",
					"type": "bytes32"
				},
				{
					"name": "paymentEarning",
					"type": "uint256"
				},
				{
					"name": "inflationBonus",
					"type": "uint256"
				},
				{
					"name": "pathosAmount",
					"type": "uint256"
				},
				{
					"name": "ethosAmount",
					"type": "uint256"
				}
			],
			"payable": false,
			"stateMutability": "view",
			"type": "function"
		},
		{
			"constant": true,
			"inputs": [
				{
					"name": "",
					"type": "bytes32"
				}
			],
			"name": "totalStakedContentTheAOEarning",
			"outputs": [
				{
					"name": "",
					"type": "uint256"
				}
			],
			"payable": false,
			"stateMutability": "view",
			"type": "function"
		},
		{
			"constant": true,
			"inputs": [
				{
					"name": "",
					"type": "bytes32"
				}
			],
			"name": "theAOEarnings",
			"outputs": [
				{
					"name": "purchaseId",
					"type": "bytes32"
				},
				{
					"name": "paymentEarning",
					"type": "uint256"
				},
				{
					"name": "inflationBonus",
					"type": "uint256"
				},
				{
					"name": "pathosAmount",
					"type": "uint256"
				},
				{
					"name": "ethosAmount",
					"type": "uint256"
				}
			],
			"payable": false,
			"stateMutability": "view",
			"type": "function"
		},
		{
			"constant": true,
			"inputs": [],
			"name": "ethosAddress",
			"outputs": [
				{
					"name": "",
					"type": "address"
				}
			],
			"payable": false,
			"stateMutability": "view",
			"type": "function"
		},
		{
			"constant": true,
			"inputs": [
				{
					"name": "",
					"type": "bytes32"
				}
			],
			"name": "totalStakedContentStakeEarning",
			"outputs": [
				{
					"name": "",
					"type": "uint256"
				}
			],
			"payable": false,
			"stateMutability": "view",
			"type": "function"
		},
		{
			"constant": true,
			"inputs": [
				{
					"name": "",
					"type": "address"
				}
			],
			"name": "whitelist",
			"outputs": [
				{
					"name": "",
					"type": "bool"
				}
			],
			"payable": false,
			"stateMutability": "view",
			"type": "function"
		},
		{
			"constant": true,
			"inputs": [
				{
					"name": "",
					"type": "address"
				}
			],
			"name": "contentPriceEarning",
			"outputs": [
				{
					"name": "",
					"type": "uint256"
				}
			],
			"payable": false,
			"stateMutability": "view",
			"type": "function"
		},
		{
			"constant": true,
			"inputs": [
				{
					"name": "",
					"type": "address"
				}
			],
			"name": "inflationBonusAccrued",
			"outputs": [
				{
					"name": "",
					"type": "uint256"
				}
			],
			"payable": false,
			"stateMutability": "view",
			"type": "function"
		},
		{
			"constant": true,
			"inputs": [],
			"name": "theAO",
			"outputs": [
				{
					"name": "",
					"type": "address"
				}
			],
			"payable": false,
			"stateMutability": "view",
			"type": "function"
		},
		{
			"constant": true,
			"inputs": [
				{
					"name": "",
					"type": "bytes32"
				}
			],
			"name": "totalStakedContentHostEarning",
			"outputs": [
				{
					"name": "",
					"type": "uint256"
				}
			],
			"payable": false,
			"stateMutability": "view",
			"type": "function"
		},
		{
			"constant": true,
			"inputs": [],
			"name": "nameFactoryAddress",
			"outputs": [
				{
					"name": "",
					"type": "address"
				}
			],
			"payable": false,
			"stateMutability": "view",
			"type": "function"
		},
		{
			"constant": true,
			"inputs": [
				{
					"name": "",
					"type": "address"
				}
			],
			"name": "stakeContentEarning",
			"outputs": [
				{
					"name": "",
					"type": "uint256"
				}
			],
			"payable": false,
			"stateMutability": "view",
			"type": "function"
		},
		{
			"constant": true,
			"inputs": [],
			"name": "totalTheAOEarning",
			"outputs": [
				{
					"name": "",
					"type": "uint256"
				}
			],
			"payable": false,
			"stateMutability": "view",
			"type": "function"
		},
		{
			"constant": true,
			"inputs": [],
			"name": "baseDenominationAddress",
			"outputs": [
				{
					"name": "",
					"type": "address"
				}
			],
			"payable": false,
			"stateMutability": "view",
			"type": "function"
		},
		{
			"constant": true,
			"inputs": [],
			"name": "treasuryAddress",
			"outputs": [
				{
					"name": "",
					"type": "address"
				}
			],
			"payable": false,
			"stateMutability": "view",
			"type": "function"
		},
		{
			"constant": true,
			"inputs": [],
			"name": "totalHostContentEarning",
			"outputs": [
				{
					"name": "",
					"type": "uint256"
				}
			],
			"payable": false,
			"stateMutability": "view",
			"type": "function"
		},
		{
			"constant": true,
			"inputs": [],
			"name": "settingTAOId",
			"outputs": [
				{
					"name": "",
					"type": "address"
				}
			],
			"payable": false,
			"stateMutability": "view",
			"type": "function"
		},
		{
			"constant": true,
			"inputs": [
				{
					"name": "",
					"type": "address"
				},
				{
					"name": "",
					"type": "bytes32"
				}
			],
			"name": "stakeEarnings",
			"outputs": [
				{
					"name": "purchaseId",
					"type": "bytes32"
				},
				{
					"name": "paymentEarning",
					"type": "uint256"
				},
				{
					"name": "inflationBonus",
					"type": "uint256"
				},
				{
					"name": "pathosAmount",
					"type": "uint256"
				},
				{
					"name": "ethosAmount",
					"type": "uint256"
				}
			],
			"payable": false,
			"stateMutability": "view",
			"type": "function"
		},
		{
			"constant": true,
			"inputs": [],
			"name": "totalStakeContentEarning",
			"outputs": [
				{
					"name": "",
					"type": "uint256"
				}
			],
			"payable": false,
			"stateMutability": "view",
			"type": "function"
		},
		{
			"inputs": [
				{
					"name": "_settingTAOId",
					"type": "address"
				},
				{
					"name": "_aoSettingAddress",
					"type": "address"
				},
				{
					"name": "_baseDenominationAddress",
					"type": "address"
				},
				{
					"name": "_treasuryAddress",
					"type": "address"
				},
				{
					"name": "_nameFactoryAddress",
					"type": "address"
				},
				{
					"name": "_pathosAddress",
					"type": "address"
				},
				{
					"name": "_ethosAddress",
					"type": "address"
				}
			],
			"payable": false,
			"stateMutability": "nonpayable",
			"type": "constructor"
		},
		{
			"anonymous": false,
			"inputs": [
				{
					"indexed": true,
					"name": "recipient",
					"type": "address"
				},
				{
					"indexed": true,
					"name": "purchaseId",
					"type": "bytes32"
				},
				{
					"indexed": false,
					"name": "totalPaymentAmount",
					"type": "uint256"
				},
				{
					"indexed": false,
					"name": "recipientProfitPercentage",
					"type": "uint256"
				},
				{
					"indexed": false,
					"name": "recipientPaymentEarning",
					"type": "uint256"
				},
				{
					"indexed": false,
					"name": "recipientType",
					"type": "uint8"
				}
			],
			"name": "PaymentEarningEscrowed",
			"type": "event"
		},
		{
			"anonymous": false,
			"inputs": [
				{
					"indexed": true,
					"name": "recipient",
					"type": "address"
				},
				{
					"indexed": true,
					"name": "purchaseId",
					"type": "bytes32"
				},
				{
					"indexed": false,
					"name": "totalInflationBonusAmount",
					"type": "uint256"
				},
				{
					"indexed": false,
					"name": "recipientProfitPercentage",
					"type": "uint256"
				},
				{
					"indexed": false,
					"name": "recipientInflationBonus",
					"type": "uint256"
				},
				{
					"indexed": false,
					"name": "recipientType",
					"type": "uint8"
				}
			],
			"name": "InflationBonusEscrowed",
			"type": "event"
		},
		{
			"anonymous": false,
			"inputs": [
				{
					"indexed": true,
					"name": "recipient",
					"type": "address"
				},
				{
					"indexed": true,
					"name": "purchaseId",
					"type": "bytes32"
				},
				{
					"indexed": false,
					"name": "paymentEarning",
					"type": "uint256"
				},
				{
					"indexed": false,
					"name": "inflationBonus",
					"type": "uint256"
				},
				{
					"indexed": false,
					"name": "recipientType",
					"type": "uint8"
				}
			],
			"name": "EarningUnescrowed",
			"type": "event"
		},
		{
			"anonymous": false,
			"inputs": [
				{
					"indexed": true,
					"name": "nameId",
					"type": "address"
				},
				{
					"indexed": true,
					"name": "purchaseId",
					"type": "bytes32"
				},
				{
					"indexed": false,
					"name": "amount",
					"type": "uint256"
				}
			],
			"name": "PathosEarned",
			"type": "event"
		},
		{
			"anonymous": false,
			"inputs": [
				{
					"indexed": true,
					"name": "nameId",
					"type": "address"
				},
				{
					"indexed": true,
					"name": "purchaseId",
					"type": "bytes32"
				},
				{
					"indexed": false,
					"name": "amount",
					"type": "uint256"
				}
			],
			"name": "EthosEarned",
			"type": "event"
		},
		{
			"anonymous": false,
			"inputs": [],
			"name": "EscapeHatch",
			"type": "event"
		},
		{
			"constant": false,
			"inputs": [
				{
					"name": "_nameTAOPositionAddress",
					"type": "address"
				}
			],
			"name": "setNameTAOPositionAddress",
			"outputs": [],
			"payable": false,
			"stateMutability": "nonpayable",
			"type": "function"
		},
		{
			"constant": false,
			"inputs": [
				{
					"name": "_theAO",
					"type": "address"
				}
			],
			"name": "transferOwnership",
			"outputs": [],
			"payable": false,
			"stateMutability": "nonpayable",
			"type": "function"
		},
		{
			"constant": false,
			"inputs": [
				{
					"name": "_account",
					"type": "address"
				},
				{
					"name": "_whitelist",
					"type": "bool"
				}
			],
			"name": "setWhitelist",
			"outputs": [],
			"payable": false,
			"stateMutability": "nonpayable",
			"type": "function"
		},
		{
			"constant": false,
			"inputs": [
				{
					"name": "_paused",
					"type": "bool"
				}
			],
			"name": "setPaused",
			"outputs": [],
			"payable": false,
			"stateMutability": "nonpayable",
			"type": "function"
		},
		{
			"constant": false,
			"inputs": [],
			"name": "escapeHatch",
			"outputs": [],
			"payable": false,
			"stateMutability": "nonpayable",
			"type": "function"
		},
		{
			"constant": false,
			"inputs": [
				{
					"name": "_newBaseDenominationAddress",
					"type": "address"
				}
			],
			"name": "setBaseDenominationAddress",
			"outputs": [],
			"payable": false,
			"stateMutability": "nonpayable",
			"type": "function"
		},
		{
			"constant": false,
			"inputs": [
				{
					"name": "_buyer",
					"type": "address"
				},
				{
					"name": "_purchaseId",
					"type": "bytes32"
				},
				{
					"name": "_networkAmountStaked",
					"type": "uint256"
				},
				{
					"name": "_primordialAmountStaked",
					"type": "uint256"
				},
				{
					"name": "_primordialWeightedMultiplierStaked",
					"type": "uint256"
				},
				{
					"name": "_profitPercentage",
					"type": "uint256"
				},
				{
					"name": "_stakeOwner",
					"type": "address"
				},
				{
					"name": "_host",
					"type": "address"
				},
				{
					"name": "_isAOContentUsageType",
					"type": "bool"
				}
			],
			"name": "calculateEarning",
			"outputs": [
				{
					"name": "",
					"type": "bool"
				}
			],
			"payable": false,
			"stateMutability": "nonpayable",
			"type": "function"
		},
		{
			"constant": false,
			"inputs": [
				{
					"name": "_stakeId",
					"type": "bytes32"
				},
				{
					"name": "_contentHostId",
					"type": "bytes32"
				},
				{
					"name": "_purchaseId",
					"type": "bytes32"
				},
				{
					"name": "_buyerPaidMoreThanFileSize",
					"type": "bool"
				},
				{
					"name": "_stakeOwner",
					"type": "address"
				},
				{
					"name": "_host",
					"type": "address"
				}
			],
			"name": "releaseEarning",
			"outputs": [
				{
					"name": "",
					"type": "bool"
				}
			],
			"payable": false,
			"stateMutability": "nonpayable",
			"type": "function"
		}
	],
	"bytecode": "0x608060405234801561001057600080fd5b5060405160e080612f4583398101604090815281516020830151918301516060840151608085015160a086015160c0909601516000805433600160a060020a0319918216178255600380548216600160a060020a03988916179055600480548216988816988917905560058054821696881696871790556006805482169588169586179055600880548216998816998a1790556009805482169388169384179055600f80548216909817909755600a80548816909517909455600b80548716909317909255600c805486169490911693909317909255600d80548416909417909355600e8054909216179055612e3990819061010c90396000f30060806040526004361061019d5763ffffffff60e060020a6000350416630292f88a81146101a25780631554611f146101c557806316c38b3c146101da57806316e4822b146101f45780631d0138ff1461024f5780631f3a0e411461028057806341f7e8dc146102955780634486ab0a146102c85780634ef033f0146102dd57806353d6fd59146102f2578063552318e0146103185780635c975abb146103395780635cfaf2ef1461034e57806367d3bfe01461036f5780636834a8571461038757806373dbf29a146103d65780638972b031146103ee5780639093a790146104065780639587085d1461041b5780639b19251a14610433578063a7a5f77314610454578063a832ebda14610475578063a9b6b38e14610496578063aace426d146104ab578063bc406206146104c3578063bfeacddb146104d8578063c26012cd146104f9578063c44a07951461050e578063c5f956af14610523578063cba17a2b14610538578063e7c501851461054d578063e9f4529d14610562578063edac5f4414610586578063f2fde38b1461059b578063ff28d625146105bc575b600080fd5b3480156101ae57600080fd5b506101c3600160a060020a03600435166105f1565b005b3480156101d157600080fd5b506101c361074a565b3480156101e657600080fd5b506101c3600435151561085a565b34801561020057600080fd5b5061023b600160a060020a036004358116906024359060443590606435906084359060a4359060c43581169060e43516610104351515610943565b604080519115158252519081900360200190f35b34801561025b57600080fd5b506102646109ed565b60408051600160a060020a039092168252519081900360200190f35b34801561028c57600080fd5b5061023b6109fc565b3480156102a157600080fd5b506102b6600160a060020a0360043516610a0c565b60408051918252519081900360200190f35b3480156102d457600080fd5b50610264610a1e565b3480156102e957600080fd5b50610264610a2d565b3480156102fe57600080fd5b506101c3600160a060020a03600435166024351515610a3c565b34801561032457600080fd5b506102b6600160a060020a0360043516610b25565b34801561034557600080fd5b5061023b610b37565b34801561035a57600080fd5b506101c3600160a060020a0360043516610b58565b34801561037b57600080fd5b506102b6600435610c45565b34801561039357600080fd5b506103ab600160a060020a0360043516602435610c57565b6040805195865260208601949094528484019290925260608401526080830152519081900360a00190f35b3480156103e257600080fd5b506102b6600435610c91565b3480156103fa57600080fd5b506103ab600435610ca3565b34801561041257600080fd5b50610264610cd2565b34801561042757600080fd5b506102b6600435610ce1565b34801561043f57600080fd5b5061023b600160a060020a0360043516610cf3565b34801561046057600080fd5b506102b6600160a060020a0360043516610d08565b34801561048157600080fd5b506102b6600160a060020a0360043516610d1a565b3480156104a257600080fd5b50610264610d2c565b3480156104b757600080fd5b506102b6600435610d3b565b3480156104cf57600080fd5b50610264610d4d565b3480156104e457600080fd5b506102b6600160a060020a0360043516610d5c565b34801561050557600080fd5b506102b6610d6e565b34801561051a57600080fd5b50610264610d74565b34801561052f57600080fd5b50610264610d83565b34801561054457600080fd5b506102b6610d92565b34801561055957600080fd5b50610264610d98565b34801561056e57600080fd5b506103ab600160a060020a0360043516602435610da7565b34801561059257600080fd5b506102b6610de1565b3480156105a757600080fd5b506101c3600160a060020a0360043516610de7565b3480156105c857600080fd5b5061023b6004356024356044356064351515600160a060020a0360843581169060a43516610ed4565b6000546001546040805160e260020a633d9abf2b028152336004820152600160a060020a0393841660248201529290911660448301525173__AOLibrary_____________________________9163f66afcac916064808301926020929190829003018186803b15801561066357600080fd5b505af4158015610677573d6000803e3d6000fd5b505050506040513d602081101561068d57600080fd5b5051151561069a57600080fd5b80600160a060020a0316630aa245466040518163ffffffff1660e060020a028152600401602060405180830381600087803b1580156106d857600080fd5b505af11580156106ec573d6000803e3d6000fd5b505050506040513d602081101561070257600080fd5b50511561070e57600080fd5b6005805473ffffffffffffffffffffffffffffffffffffffff19908116600160a060020a039384161791829055600a8054929093169116179055565b6000546001546040805160e260020a633d9abf2b028152336004820152600160a060020a0393841660248201529290911660448301525173__AOLibrary_____________________________9163f66afcac916064808301926020929190829003018186803b1580156107bc57600080fd5b505af41580156107d0573d6000803e3d6000fd5b505050506040513d60208110156107e657600080fd5b505115156107f357600080fd5b60095460a860020a900460ff161561080a57600080fd5b6009805475ff000000000000000000000000000000000000000000191660a860020a1790556040517f16ed36fbe43aed6ba7426b24d35620696380d398f2f22f918dd74e4d3e0ceef990600090a1565b6000546001546040805160e260020a633d9abf2b028152336004820152600160a060020a0393841660248201529290911660448301525173__AOLibrary_____________________________9163f66afcac916064808301926020929190829003018186803b1580156108cc57600080fd5b505af41580156108e0573d6000803e3d6000fd5b505050506040513d60208110156108f657600080fd5b5051151561090357600080fd5b60098054911515740100000000000000000000000000000000000000000274ff000000000000000000000000000000000000000019909216919091179055565b60095460009074010000000000000000000000000000000000000000900460ff1615801561097b575060095460a860020a900460ff16155b151561098657600080fd5b3360009081526002602052604090205460ff1615156001146109a757600080fd5b6109c58a8a6109bc8b8b63ffffffff610f8216565b88888888610f95565b6109dd896109d48a8a8a610fd5565b878787876111c5565b5060019998505050505050505050565b600454600160a060020a031681565b60095460a860020a900460ff1681565b60146020526000908152604090205481565b600854600160a060020a031681565b600154600160a060020a031681565b6000546001546040805160e260020a633d9abf2b028152336004820152600160a060020a0393841660248201529290911660448301525173__AOLibrary_____________________________9163f66afcac916064808301926020929190829003018186803b158015610aae57600080fd5b505af4158015610ac2573d6000803e3d6000fd5b505050506040513d6020811015610ad857600080fd5b50511515610ae557600080fd5b600160a060020a0382161515610afa57600080fd5b600160a060020a03919091166000908152600260205260409020805460ff1916911515919091179055565b60156020526000908152604090205481565b60095474010000000000000000000000000000000000000000900460ff1681565b6000546001546040805160e260020a633d9abf2b028152336004820152600160a060020a0393841660248201529290911660448301525173__AOLibrary_____________________________9163f66afcac916064808301926020929190829003018186803b158015610bca57600080fd5b505af4158015610bde573d6000803e3d6000fd5b505050506040513d6020811015610bf457600080fd5b50511515610c0157600080fd5b600160a060020a0381161515610c1657600080fd5b6001805473ffffffffffffffffffffffffffffffffffffffff1916600160a060020a0392909216919091179055565b601e6020526000908152604090205481565b6019602090815260009283526040808420909152908252902080546001820154600283015460038401546004909401549293919290919085565b601d6020526000908152604090205481565b601a60205260009081526040902080546001820154600283015460038401546004909401549293919290919085565b600954600160a060020a031681565b601b6020526000908152604090205481565b60026020526000908152604090205460ff1681565b60166020526000908152604090205481565b60176020526000908152604090205481565b600054600160a060020a031681565b601c6020526000908152604090205481565b600754600160a060020a031681565b60136020526000908152604090205481565b60125481565b600554600160a060020a031681565b600654600160a060020a031681565b60115481565b600354600160a060020a031681565b6018602090815260009283526040808420909152908252902080546001820154600283015460038401546004909401549293919290919085565b60105481565b6000546001546040805160e260020a633d9abf2b028152336004820152600160a060020a0393841660248201529290911660448301525173__AOLibrary_____________________________9163f66afcac916064808301926020929190829003018186803b158015610e5957600080fd5b505af4158015610e6d573d6000803e3d6000fd5b505050506040513d6020811015610e8357600080fd5b50511515610e9057600080fd5b600160a060020a0381161515610ea557600080fd5b6000805473ffffffffffffffffffffffffffffffffffffffff1916600160a060020a0392909216919091179055565b60095460009074010000000000000000000000000000000000000000900460ff16158015610f0c575060095460a860020a900460ff16155b1515610f1757600080fd5b3360009081526002602052604090205460ff161515600114610f3857600080fd5b610f47878787878760006117c8565b610f56878787878660016117c8565b600054610f75908890889088908890600160a060020a031660026117c8565b5060019695505050505050565b81810182811015610f8f57fe5b92915050565b6000806000610fa88a8a8a8a8a89612116565b92509250610fbb8a8a8a8a89898961247b565b9050610fc9898984846127e5565b50505050505050505050565b600080600080610fe36129a7565b5050925061107973__AOLibrary_____________________________63caf297656040518163ffffffff1660e060020a02815260040160206040518083038186803b15801561103157600080fd5b505af4158015611045573d6000803e3d6000fd5b505050506040513d602081101561105b57600080fd5b505161106d898663ffffffff612d9d16565b9063ffffffff612dc616565b91506111a873__AOLibrary_____________________________63caf297656040518163ffffffff1660e060020a02815260040160206040518083038186803b1580156110c557600080fd5b505af41580156110d9573d6000803e3d6000fd5b505050506040513d60208110156110ef57600080fd5b5051604080517fd661dd31000000000000000000000000000000000000000000000000000000008152905161106d91879161119c9173__AOLibrary_____________________________9163d661dd3191600480820192602092909190829003018186803b15801561116057600080fd5b505af4158015611174573d6000803e3d6000fd5b505050506040513d602081101561118a57600080fd5b505161106d8c8c63ffffffff612d9d16565b9063ffffffff612d9d16565b90506111ba828263ffffffff610f8216565b979650505050505050565b60008060008060006111d56129a7565b5095505060008a111561169f57856111ee576000611238565b61123873__AOLibrary_____________________________63caf297656040518163ffffffff1660e060020a02815260040160206040518083038186803b15801561116057600080fd5b93506018600089600160a060020a0316600160a060020a0316815260200190815260200160002060008c600019166000191681526020019081526020016000209250838360020181905550600a60009054906101000a9004600160a060020a0316600160a060020a03166323ceb6d88985600201546040518363ffffffff1660e060020a0281526004018083600160a060020a0316600160a060020a0316815260200182815260200192505050602060405180830381600087803b1580156112ff57600080fd5b505af1158015611313573d6000803e3d6000fd5b505050506040513d602081101561132957600080fd5b5051151561133657600080fd5b6002830154604080518c8152602081018c90528082019290925260006060830152518c91600160a060020a038b1691600080516020612dee8339815191529181900360800190a3600160a060020a03871660009081526019602090815260408083208e8452909152902091506113b28a8563ffffffff612ddb16565b60028301819055600a546040805160e360020a630479d6db028152600160a060020a038b811660048301526024820194909452905192909116916323ceb6d8916044808201926020929091908290030181600087803b15801561141457600080fd5b505af1158015611428573d6000803e3d6000fd5b505050506040513d602081101561143e57600080fd5b5051151561144b57600080fd5b8a6000191687600160a060020a0316600080516020612dee8339815191528c6114ed8d73__AOLibrary_____________________________63caf297656040518163ffffffff1660e060020a02815260040160206040518083038186803b1580156114b557600080fd5b505af41580156114c9573d6000803e3d6000fd5b505050506040513d60208110156114df57600080fd5b50519063ffffffff612ddb16565b60028701546040805193845260208401929092528282015260016060830152519081900360800190a35060008a8152601a6020908152604091829020825160e060020a63caf29765028152925190926115b49273__AOLibrary_____________________________9263caf29765926004808201939291829003018186803b15801561157857600080fd5b505af415801561158c573d6000803e3d6000fd5b505050506040513d60208110156115a257600080fd5b505161106d8c8863ffffffff612d9d16565b60028201819055600a54600080546040805160e360020a630479d6db028152600160a060020a0392831660048201526024810195909552519216926323ceb6d89260448083019360209383900390910190829087803b15801561161657600080fd5b505af115801561162a573d6000803e3d6000fd5b505050506040513d602081101561164057600080fd5b5051151561164d57600080fd5b600054600280830154604080518e8152602081018a905280820192909252606082019290925290518d92600160a060020a031691600080516020612dee833981519152919081900360800190a36117bb565b604080516000808252602082018c9052818301819052606082015290518c91600160a060020a038b1691600080516020612dee8339815191529181900360800190a38a6000191687600160a060020a0316600080516020612dee833981519152600061174c8d73__AOLibrary_____________________________63caf297656040518163ffffffff1660e060020a02815260040160206040518083038186803b1580156114b557600080fd5b60408051928352602083019190915260008282015260016060830152519081900360800190a36000805460408051838152602081018990528082019390935260026060840152518d92600160a060020a0390921691600080516020612dee833981519152919081900360800190a35b5050505050505050505050565b60008060008060008060008760ff16101580156117e9575060028760ff1611155b15156117f457600080fd5b60ff87161515611b855750600160a060020a03871660009081526018602090815260408083208c8452909152812060018101805460028301805460038501805494879055918690559085905560048401949094559750919550909250611860868663ffffffff610f8216565b601054909450611876908563ffffffff610f8216565b601055600160a060020a0388166000908152601360205260409020546118a2908563ffffffff610f8216565b600160a060020a0389166000908152601360209081526040808320939093558e8252601b905220546118da908563ffffffff610f8216565b60008d8152601b6020526040902055881561193657600160a060020a038816600090815260166020526040902054611918908563ffffffff610f8216565b600160a060020a038916600090815260166020526040902055611979565b600160a060020a03881660009081526015602052604090205461195f908563ffffffff610f8216565b600160a060020a0389166000908152601560205260409020555b600160a060020a0388166000908152601760205260409020546119a2908663ffffffff610f8216565b600160a060020a03808a16600081815260176020908152604080832095909555600d54600c54865160e060020a63029b7d5302815260048101959095529551908516956379c6506895169363029b7d539360248083019493928390030190829087803b158015611a1157600080fd5b505af1158015611a25573d6000803e3d6000fd5b505050506040513d6020811015611a3b57600080fd5b50516040805160e060020a63ffffffff8516028152600160a060020a039092166004830152602482018790525160448083019260209291908290030181600087803b158015611a8957600080fd5b505af1158015611a9d573d6000803e3d6000fd5b505050506040513d6020811015611ab357600080fd5b50511515611ac057600080fd5b600c546040805160e060020a63029b7d53028152600160a060020a038b8116600483015291518d93929092169163029b7d53916024808201926020929091908290030181600087803b158015611b1557600080fd5b505af1158015611b29573d6000803e3d6000fd5b505050506040513d6020811015611b3f57600080fd5b5051604080518681529051600160a060020a03909216917f21c3387baaff2d916ae2cd1669d5f94fe9583036b96ef82acb3a4565815cfce89181900360200190a3612013565b8660ff1660011415611f42575050600160a060020a03861660009081526019602090815260408083208b845290915281206001810180546002830180546004850180549487905591869055600385018690559490559650919450611bef868663ffffffff610f8216565b601154909450611c05908563ffffffff610f8216565b601155600160a060020a038816600090815260146020526040902054611c31908563ffffffff610f8216565b600160a060020a0389166000908152601460209081526040808320939093558e8252601c90522054611c69908563ffffffff610f8216565b60008d8152601c60209081526040808320939093558d8252601e90522054611c97908563ffffffff610f8216565b60008c8152601e60205260409020558815611cf357600160a060020a038816600090815260166020526040902054611cd5908563ffffffff610f8216565b600160a060020a038916600090815260166020526040902055611d36565b600160a060020a038816600090815260156020526040902054611d1c908563ffffffff610f8216565b600160a060020a0389166000908152601560205260409020555b600160a060020a038816600090815260176020526040902054611d5f908663ffffffff610f8216565b600160a060020a03808a16600081815260176020908152604080832095909555600e54600c54865160e060020a63029b7d5302815260048101959095529551908516956379c6506895169363029b7d539360248083019493928390030190829087803b158015611dce57600080fd5b505af1158015611de2573d6000803e3d6000fd5b505050506040513d6020811015611df857600080fd5b50516040805160e060020a63ffffffff8516028152600160a060020a039092166004830152602482018690525160448083019260209291908290030181600087803b158015611e4657600080fd5b505af1158015611e5a573d6000803e3d6000fd5b505050506040513d6020811015611e7057600080fd5b50511515611e7d57600080fd5b600c546040805160e060020a63029b7d53028152600160a060020a038b8116600483015291518d93929092169163029b7d53916024808201926020929091908290030181600087803b158015611ed257600080fd5b505af1158015611ee6573d6000803e3d6000fd5b505050506040513d6020811015611efc57600080fd5b5051604080518581529051600160a060020a03909216917f2a9470ba36cb39f146ccc29717c9098e046e556211964a2454021d1d9fe9dd559181900360200190a3612013565b506000898152601a6020526040812060018101805460028301805492859055849055600383018490556004830193909355919650909450611f89868663ffffffff610f8216565b601254909450611f9f908563ffffffff610f8216565b601255600160a060020a038816600090815260176020526040902054611fcb908663ffffffff610f8216565b600160a060020a0389166000908152601760209081526040808320939093558e8252601d90522054612003908563ffffffff610f8216565b60008d8152601d60205260409020555b600a54604080517f8a066045000000000000000000000000000000000000000000000000000000008152600160a060020a038b811660048301526024820188905291519190921691638a0660459160448083019260209291908290030181600087803b15801561208257600080fd5b505af1158015612096573d6000803e3d6000fd5b505050506040513d60208110156120ac57600080fd5b505115156120b957600080fd5b604080518781526020810187905260ff89168183015290518b91600160a060020a038b16917f212de36dcbb73c749ef074ec2565ecd3e461ebb1d28ea6021effdb8be7d44cda9181900360600190a3505050505050505050505050565b6000806000806121246129a7565b5050600160a060020a03871660009081526018602090815260408083208d845290915290208a815590925090508461215d5760006121e3565b6121e373__AOLibrary_____________________________63caf297656040518163ffffffff1660e060020a02815260040160206040518083038186803b1580156121a757600080fd5b505af41580156121bb573d6000803e3d6000fd5b505050506040513d60208110156121d157600080fd5b505161106d8a8a63ffffffff612d9d16565b816001018190555061234e73__AOLibrary_____________________________63caf297656040518163ffffffff1660e060020a02815260040160206040518083038186803b15801561223557600080fd5b505af4158015612249573d6000803e3d6000fd5b505050506040513d602081101561225f57600080fd5b50516040805160e060020a63caf29765028152905161106d9173__AOLibrary_____________________________9163caf2976591600480820192602092909190829003018186803b1580156122b457600080fd5b505af41580156122c8573d6000803e3d6000fd5b505050506040513d60208110156122de57600080fd5b810190808051906020019092919050505061106d8661119c6123418e73__AOLibrary_____________________________63caf297656040518163ffffffff1660e060020a02815260040160206040518083038186803b1580156114b557600080fd5b8f9063ffffffff612d9d16565b6003820155600a546001820154604080517f87d4ca93000000000000000000000000000000000000000000000000000000008152600160a060020a038e811660048301528a811660248301526044820193909352905191909216916387d4ca939160648083019260209291908290030181600087803b1580156123d057600080fd5b505af11580156123e4573d6000803e3d6000fd5b505050506040513d60208110156123fa57600080fd5b5051151561240757600080fd5b6001810154604080518a8152602081018a90528082019290925260006060830152518a91600160a060020a038916917f2bc2599ff4713444a049b5e4a07d2cde6becf6e7fc7c4e041bc1cf36894f10ee9181900360800190a380600101548160030154935093505050965096945050505050565b60008060006124886129a7565b5050600160a060020a03871660009081526019602090815260408083208d845290915290208a815590925090506124c5888563ffffffff612ddb16565b81600101819055506125d673__AOLibrary_____________________________63caf297656040518163ffffffff1660e060020a02815260040160206040518083038186803b15801561251757600080fd5b505af415801561252b573d6000803e3d6000fd5b505050506040513d602081101561254157600080fd5b50516040805160e060020a63caf29765028152905161106d9173__AOLibrary_____________________________9163caf2976591600480820192602092909190829003018186803b15801561259657600080fd5b505af41580156125aa573d6000803e3d6000fd5b505050506040513d60208110156125c057600080fd5b505161106d8661119c8e8e63ffffffff612d9d16565b6004820155841561269a57600a546001820154604080517f87d4ca93000000000000000000000000000000000000000000000000000000008152600160a060020a038e811660048301528a811660248301526044820193909352905191909216916387d4ca939160648083019260209291908290030181600087803b15801561265e57600080fd5b505af1158015612672573d6000803e3d6000fd5b505050506040513d602081101561268857600080fd5b5051151561269557600080fd5b612730565b600a5460018201546040805160e360020a630479d6db028152600160a060020a038a811660048301526024820193909352905191909216916323ceb6d89160448083019260209291908290030181600087803b1580156126f957600080fd5b505af115801561270d573d6000803e3d6000fd5b505050506040513d602081101561272357600080fd5b5051151561273057600080fd5b886000191686600160a060020a03167f2bc2599ff4713444a049b5e4a07d2cde6becf6e7fc7c4e041bc1cf36894f10ee8a6127ac8b73__AOLibrary_____________________________63caf297656040518163ffffffff1660e060020a02815260040160206040518083038186803b1580156114b557600080fd5b600180870154604080519485526020850193909352838301526060830152519081900360800190a3600401549998505050505050505050565b6000806127f06129a7565b6000898152601a60209081526040918290208b8155825160e060020a63caf29765028152925193975095506128a69450612899935073__AOLibrary_____________________________9263caf29765926004808201939291829003018186803b15801561285d57600080fd5b505af4158015612871573d6000803e3d6000fd5b505050506040513d602081101561288757600080fd5b505161106d868663ffffffff612d9d16565b859063ffffffff610f8216565b60018201819055600a54600080546040805160e360020a630479d6db028152600160a060020a0392831660048201526024810195909552519216926323ceb6d89260448083019360209383900390910190829087803b15801561290857600080fd5b505af115801561291c573d6000803e3d6000fd5b505050506040513d602081101561293257600080fd5b5051151561293f57600080fd5b6000805460018301546040805189815260208101949094528381019190915260026060840152518892600160a060020a03909216917f2bc2599ff4713444a049b5e4a07d2cde6becf6e7fc7c4e041bc1cf36894f10ee919081900360800190a3505050505050565b600f54600354604080517f7065bedc000000000000000000000000000000000000000000000000000000008152600160a060020a03928316600482015260248101829052600d60448201527f696e666c6174696f6e526174650000000000000000000000000000000000000060648201529051600093849384938493849384931691637065bedc916084808301928692919082900301818387803b158015612a4e57600080fd5b505af1158015612a62573d6000803e3d6000fd5b505050506040513d6000823e601f3d908101601f1916820160405260a0811015612a8b57600080fd5b815160208301516040840151606085015160808601805194969395929491939283019291640100000000811115612ac157600080fd5b82016020810184811115612ad457600080fd5b8151640100000000811182820187101715612aee57600080fd5b5050600f54600354604080517f7065bedc000000000000000000000000000000000000000000000000000000008152600160a060020a03928316600482015260248101829052600860448201527f746865414f437574000000000000000000000000000000000000000000000000606482015290519a9d50911698637065bedc985060848083019850600097509095509085900301925083915084905087803b158015612b9a57600080fd5b505af1158015612bae573d6000803e3d6000fd5b505050506040513d6000823e601f3d908101601f1916820160405260a0811015612bd757600080fd5b815160208301516040840151606085015160808601805194969395929491939283019291640100000000811115612c0d57600080fd5b82016020810184811115612c2057600080fd5b8151640100000000811182820187101715612c3a57600080fd5b5050600f54600354604080517f7065bedc000000000000000000000000000000000000000000000000000000008152600160a060020a03928316600482015260248101829052601460448201527f746865414f4574686f734561726e656452617465000000000000000000000000606482015290519a9c50911698637065bedc985060848083019850600097509095509085900301925083915084905087803b158015612ce657600080fd5b505af1158015612cfa573d6000803e3d6000fd5b505050506040513d6000823e601f3d908101601f1916820160405260a0811015612d2357600080fd5b815160208301516040840151606085015160808601805194969395929491939283019291640100000000811115612d5957600080fd5b82016020810184811115612d6c57600080fd5b8151640100000000811182820187101715612d8657600080fd5b509a9e999d50969b50979950505050505050505050565b6000821515612dae57506000610f8f565b50818102818382811515612dbe57fe5b0414610f8f57fe5b60008183811515612dd357fe5b049392505050565b600082821115612de757fe5b509003905600df9b18b8b292e153b0dfff6e1d71024ca7486117e59c0bbaf074ad370deebd1ca165627a7a723058204481b7f0acf9b51b004389e860cab27e23f940f3abeec44068cfff08773f018f0029",
	"source": "pragma solidity ^0.4.24;\n\nimport './SafeMath.sol';\nimport './TheAO.sol';\nimport './AOToken.sol';\nimport './AOTreasury.sol';\nimport './Pathos.sol';\nimport './Ethos.sol';\nimport './AOSetting.sol';\nimport './AOLibrary.sol';\nimport './NameFactory.sol';\n\n/**\n * @title AOEarning\n *\n * This contract stores the earning from staking/hosting content on AO\n */\ncontract AOEarning is TheAO {\n\tusing SafeMath for uint256;\n\n\taddress public settingTAOId;\n\taddress public aoSettingAddress;\n\taddress public baseDenominationAddress;\n\taddress public treasuryAddress;\n\taddress public nameFactoryAddress;\n\taddress public pathosAddress;\n\taddress public ethosAddress;\n\n\tbool public paused;\n\tbool public killed;\n\n\tAOToken internal _baseAO;\n\tAOTreasury internal _treasury;\n\tNameFactory internal _nameFactory;\n\tPathos internal _pathos;\n\tEthos internal _ethos;\n\tAOSetting internal _aoSetting;\n\n\t// Total earning from staking content from all nodes\n\tuint256 public totalStakeContentEarning;\n\n\t// Total earning from hosting content from all nodes\n\tuint256 public totalHostContentEarning;\n\n\t// Total The AO earning\n\tuint256 public totalTheAOEarning;\n\n\t// Mapping from address to his/her earning from content that he/she staked\n\tmapping (address => uint256) public stakeContentEarning;\n\n\t// Mapping from address to his/her earning from content that he/she hosted\n\tmapping (address => uint256) public hostContentEarning;\n\n\t// Mapping from address to his/her network price earning\n\t// i.e, when staked amount = filesize\n\tmapping (address => uint256) public networkPriceEarning;\n\n\t// Mapping from address to his/her content price earning\n\t// i.e, when staked amount > filesize\n\tmapping (address => uint256) public contentPriceEarning;\n\n\t// Mapping from address to his/her inflation bonus\n\tmapping (address => uint256) public inflationBonusAccrued;\n\n\tstruct Earning {\n\t\tbytes32 purchaseId;\n\t\tuint256 paymentEarning;\n\t\tuint256 inflationBonus;\n\t\tuint256 pathosAmount;\n\t\tuint256 ethosAmount;\n\t}\n\n\t// Mapping from address to earning from staking content of a purchase ID\n\tmapping (address => mapping(bytes32 => Earning)) public stakeEarnings;\n\n\t// Mapping from address to earning from hosting content of a purchase ID\n\tmapping (address => mapping(bytes32 => Earning)) public hostEarnings;\n\n\t// Mapping from purchase ID to earning for The AO\n\tmapping (bytes32 => Earning) public theAOEarnings;\n\n\t// Mapping from stake ID to it's total earning from staking\n\tmapping (bytes32 => uint256) public totalStakedContentStakeEarning;\n\n\t// Mapping from stake ID to it's total earning from hosting\n\tmapping (bytes32 => uint256) public totalStakedContentHostEarning;\n\n\t// Mapping from stake ID to it's total earning earned by The AO\n\tmapping (bytes32 => uint256) public totalStakedContentTheAOEarning;\n\n\t// Mapping from content host ID to it's total earning\n\tmapping (bytes32 => uint256) public totalHostContentEarningById;\n\n\t// Event to be broadcasted to public when content creator/host earns the payment split in escrow when request node buys the content\n\t// recipientType:\n\t// 0 => Content Creator (Stake Owner)\n\t// 1 => Node Host\n\t// 2 => The AO\n\tevent PaymentEarningEscrowed(address indexed recipient, bytes32 indexed purchaseId, uint256 totalPaymentAmount, uint256 recipientProfitPercentage, uint256 recipientPaymentEarning, uint8 recipientType);\n\n\t// Event to be broadcasted to public when content creator/host/The AO earns inflation bonus in escrow when request node buys the content\n\t// recipientType:\n\t// 0 => Content Creator (Stake Owner)\n\t// 1 => Node Host\n\t// 2 => The AO\n\tevent InflationBonusEscrowed(address indexed recipient, bytes32 indexed purchaseId, uint256 totalInflationBonusAmount, uint256 recipientProfitPercentage, uint256 recipientInflationBonus, uint8 recipientType);\n\n\t// Event to be broadcasted to public when content creator/host/The AO earning is released from escrow\n\t// recipientType:\n\t// 0 => Content Creator (Stake Owner)\n\t// 1 => Node Host\n\t// 2 => The AO\n\tevent EarningUnescrowed(address indexed recipient, bytes32 indexed purchaseId, uint256 paymentEarning, uint256 inflationBonus, uint8 recipientType);\n\n\t// Event to be broadcasted to public when content creator's Name earns Pathos when a node buys a content\n\tevent PathosEarned(address indexed nameId, bytes32 indexed purchaseId, uint256 amount);\n\n\t// Event to be broadcasted to public when host's Name earns Ethos when a node buys a content\n\tevent EthosEarned(address indexed nameId, bytes32 indexed purchaseId, uint256 amount);\n\n\t// Event to be broadcasted to public when emergency mode is triggered\n\tevent EscapeHatch();\n\n\t/**\n\t * @dev Constructor function\n\t * @param _settingTAOId The TAO ID that controls the setting\n\t * @param _aoSettingAddress The address of AOSetting\n\t * @param _baseDenominationAddress The address of AO base token\n\t * @param _treasuryAddress The address of AOTreasury\n\t * @param _nameFactoryAddress The address of NameFactory\n\t * @param _pathosAddress The address of Pathos\n\t * @param _ethosAddress The address of Ethos\n\t */\n\tconstructor(address _settingTAOId, address _aoSettingAddress, address _baseDenominationAddress, address _treasuryAddress, address _nameFactoryAddress, address _pathosAddress, address _ethosAddress) public {\n\t\tsettingTAOId = _settingTAOId;\n\t\taoSettingAddress = _aoSettingAddress;\n\t\tbaseDenominationAddress = _baseDenominationAddress;\n\t\ttreasuryAddress = _treasuryAddress;\n\t\tpathosAddress = _pathosAddress;\n\t\tethosAddress = _ethosAddress;\n\n\t\t_aoSetting = AOSetting(_aoSettingAddress);\n\t\t_baseAO = AOToken(_baseDenominationAddress);\n\t\t_treasury = AOTreasury(_treasuryAddress);\n\t\t_nameFactory = NameFactory(_nameFactoryAddress);\n\t\t_pathos = Pathos(_pathosAddress);\n\t\t_ethos = Ethos(_ethosAddress);\n\t}\n\n\t/**\n\t * @dev Checks if the calling contract address is The AO\n\t *\t\tOR\n\t *\t\tIf The AO is set to a Name/TAO, then check if calling address is the Advocate\n\t */\n\tmodifier onlyTheAO {\n\t\trequire (AOLibrary.isTheAO(msg.sender, theAO, nameTAOPositionAddress));\n\t\t_;\n\t}\n\n\t/**\n\t * @dev Checks if contract is currently active\n\t */\n\tmodifier isContractActive {\n\t\trequire (paused == false && killed == false);\n\t\t_;\n\t}\n\n\t/***** The AO ONLY METHODS *****/\n\t/**\n\t * @dev The AO set the NameTAOPosition Address\n\t * @param _nameTAOPositionAddress The address of NameTAOPosition\n\t */\n\tfunction setNameTAOPositionAddress(address _nameTAOPositionAddress) public onlyTheAO {\n\t\trequire (_nameTAOPositionAddress != address(0));\n\t\tnameTAOPositionAddress = _nameTAOPositionAddress;\n\t}\n\n\t/**\n\t * @dev Transfer ownership of The AO to new address\n\t * @param _theAO The new address to be transferred\n\t */\n\tfunction transferOwnership(address _theAO) public onlyTheAO {\n\t\trequire (_theAO != address(0));\n\t\ttheAO = _theAO;\n\t}\n\n\t/**\n\t * @dev Whitelist `_account` address to transact on behalf of others\n\t * @param _account The address to whitelist\n\t * @param _whitelist Either to whitelist or not\n\t */\n\tfunction setWhitelist(address _account, bool _whitelist) public onlyTheAO {\n\t\trequire (_account != address(0));\n\t\twhitelist[_account] = _whitelist;\n\t}\n\n\t/**\n\t * @dev The AO pauses/unpauses contract\n\t * @param _paused Either to pause contract or not\n\t */\n\tfunction setPaused(bool _paused) public onlyTheAO {\n\t\tpaused = _paused;\n\t}\n\n\t/**\n\t * @dev The AO triggers emergency mode.\n\t *\n\t */\n\tfunction escapeHatch() public onlyTheAO {\n\t\trequire (killed == false);\n\t\tkilled = true;\n\t\temit EscapeHatch();\n\t}\n\n\t/**\n\t * @dev The AO updates base denomination address\n\t * @param _newBaseDenominationAddress The new address\n\t */\n\tfunction setBaseDenominationAddress(address _newBaseDenominationAddress) public onlyTheAO {\n\t\trequire (AOToken(_newBaseDenominationAddress).powerOfTen() == 0);\n\t\tbaseDenominationAddress = _newBaseDenominationAddress;\n\t\t_baseAO = AOToken(baseDenominationAddress);\n\t}\n\n\t/***** PUBLIC METHODS *****/\n\t/**\n\t * @dev Calculate the content creator/host/The AO earning when request node buys the content.\n\t *\t\tAlso at this stage, all of the earnings are stored in escrow\n\t * @param _buyer The request node address that buys the content\n\t * @param _purchaseId The ID of the purchase receipt object\n\t * @param _networkAmountStaked The amount of network tokens at stake\n\t * @param _primordialAmountStaked The amount of primordial tokens at stake\n\t * @param _primordialWeightedMultiplierStaked The weighted multiplier of primordial tokens at stake\n\t * @param _profitPercentage The content creator's profit percentage\n\t * @param _stakeOwner The address of the stake owner\n\t * @param _host The address of the host\n\t * @param _isAOContentUsageType whether or not the content is of AO Content Usage Type\n\t */\n\tfunction calculateEarning(\n\t\taddress _buyer,\n\t\tbytes32 _purchaseId,\n\t\tuint256 _networkAmountStaked,\n\t\tuint256 _primordialAmountStaked,\n\t\tuint256 _primordialWeightedMultiplierStaked,\n\t\tuint256 _profitPercentage,\n\t\taddress _stakeOwner,\n\t\taddress _host,\n\t\tbool _isAOContentUsageType\n\t) public isContractActive inWhitelist returns (bool) {\n\t\t// Split the payment earning between content creator and host and store them in escrow\n\t\t_escrowPaymentEarning(_buyer, _purchaseId, _networkAmountStaked.add(_primordialAmountStaked), _profitPercentage, _stakeOwner, _host, _isAOContentUsageType);\n\n\t\t// Calculate the inflation bonus earning for content creator/node/The AO in escrow\n\t\t_escrowInflationBonus(_purchaseId, _calculateInflationBonus(_networkAmountStaked, _primordialAmountStaked, _primordialWeightedMultiplierStaked), _profitPercentage, _stakeOwner, _host, _isAOContentUsageType);\n\n\t\treturn true;\n\t}\n\n\t/**\n\t * @dev Release the payment earning and inflation bonus that is in escrow for specific purchase ID\n\t * @param _stakeId The ID of the staked content\n\t * @param _contentHostId The ID of the hosted content\n\t * @param _purchaseId The purchase receipt ID to check\n\t * @param _buyerPaidMoreThanFileSize Whether or not the request node paid more than filesize when buying the content\n\t * @param _stakeOwner The address of the stake owner\n\t * @param _host The address of the node that host the file\n\t * @return true on success\n\t */\n\tfunction releaseEarning(bytes32 _stakeId, bytes32 _contentHostId, bytes32 _purchaseId, bool _buyerPaidMoreThanFileSize, address _stakeOwner, address _host) public isContractActive inWhitelist returns (bool) {\n\t\t// Release the earning in escrow for stake owner\n\t\t_releaseEarning(_stakeId, _contentHostId, _purchaseId, _buyerPaidMoreThanFileSize, _stakeOwner, 0);\n\n\t\t// Release the earning in escrow for host\n\t\t_releaseEarning(_stakeId, _contentHostId, _purchaseId, _buyerPaidMoreThanFileSize, _host, 1);\n\n\t\t// Release the earning in escrow for The AO\n\t\t_releaseEarning(_stakeId, _contentHostId, _purchaseId, _buyerPaidMoreThanFileSize, theAO, 2);\n\n\t\treturn true;\n\t}\n\n\t/***** INTERNAL METHODS *****/\n\t/**\n\t * @dev Calculate the payment split for content creator/host and store them in escrow\n\t * @param _buyer the request node address that buys the content\n\t * @param _purchaseId The ID of the purchase receipt object\n\t * @param _totalStaked The total staked amount of the content\n\t * @param _profitPercentage The content creator's profit percentage\n\t * @param _stakeOwner The address of the stake owner\n\t * @param _host The address of the host\n\t * @param _isAOContentUsageType whether or not the content is of AO Content Usage Type\n\t */\n\tfunction _escrowPaymentEarning(address _buyer, bytes32 _purchaseId, uint256 _totalStaked, uint256 _profitPercentage, address _stakeOwner, address _host, bool _isAOContentUsageType) internal {\n\t\t(uint256 _stakeOwnerEarning, uint256 _pathosAmount) = _escrowStakeOwnerPaymentEarning(_buyer, _purchaseId, _totalStaked, _profitPercentage, _stakeOwner, _isAOContentUsageType);\n\t\t(uint256 _ethosAmount) = _escrowHostPaymentEarning(_buyer, _purchaseId, _totalStaked, _profitPercentage, _host, _isAOContentUsageType, _stakeOwnerEarning);\n\n\t\t_escrowTheAOPaymentEarning(_purchaseId, _totalStaked, _pathosAmount, _ethosAmount);\n\t}\n\n\t/**\n\t * @dev Calculate the inflation bonus amount\n\t * @param _networkAmountStaked The amount of network tokens at stake\n\t * @param _primordialAmountStaked The amount of primordial tokens at stake\n\t * @param _primordialWeightedMultiplierStaked The weighted multiplier of primordial tokens at stake\n\t * @return the bonus network amount\n\t */\n\tfunction _calculateInflationBonus(uint256 _networkAmountStaked, uint256 _primordialAmountStaked, uint256 _primordialWeightedMultiplierStaked) internal view returns (uint256) {\n\t\t(uint256 inflationRate,,) = _getSettingVariables();\n\n\t\tuint256 _networkBonus = _networkAmountStaked.mul(inflationRate).div(AOLibrary.PERCENTAGE_DIVISOR());\n\t\tuint256 _primordialBonus = _primordialAmountStaked.mul(_primordialWeightedMultiplierStaked).div(AOLibrary.MULTIPLIER_DIVISOR()).mul(inflationRate).div(AOLibrary.PERCENTAGE_DIVISOR());\n\t\treturn _networkBonus.add(_primordialBonus);\n\t}\n\n\t/**\n\t * @dev Mint the inflation bonus for content creator/host/The AO and store them in escrow\n\t * @param _purchaseId The ID of the purchase receipt object\n\t * @param _inflationBonusAmount The amount of inflation bonus earning\n\t * @param _profitPercentage The content creator's profit percentage\n\t * @param _stakeOwner The address of the stake owner\n\t * @param _host The address of the host\n\t * @param _isAOContentUsageType whether or not the content is of AO Content Usage Type\n\t */\n\tfunction _escrowInflationBonus(\n\t\tbytes32 _purchaseId,\n\t\tuint256 _inflationBonusAmount,\n\t\tuint256 _profitPercentage,\n\t\taddress _stakeOwner,\n\t\taddress _host,\n\t\tbool _isAOContentUsageType\n\t) internal {\n\t\t(, uint256 theAOCut,) = _getSettingVariables();\n\n\t\tif (_inflationBonusAmount > 0) {\n\t\t\t// Store how much the content creator earns in escrow\n\t\t\tuint256 _stakeOwnerInflationBonus = _isAOContentUsageType ? (_inflationBonusAmount.mul(_profitPercentage)).div(AOLibrary.PERCENTAGE_DIVISOR()) : 0;\n\t\t\tEarning storage _stakeEarning = stakeEarnings[_stakeOwner][_purchaseId];\n\t\t\t_stakeEarning.inflationBonus = _stakeOwnerInflationBonus;\n\t\t\trequire (_baseAO.mintTokenEscrow(_stakeOwner, _stakeEarning.inflationBonus));\n\t\t\temit InflationBonusEscrowed(_stakeOwner, _purchaseId, _inflationBonusAmount, _profitPercentage, _stakeEarning.inflationBonus, 0);\n\n\t\t\t// Store how much the host earns in escrow\n\t\t\tEarning storage _hostEarning = hostEarnings[_host][_purchaseId];\n\t\t\t_hostEarning.inflationBonus = _inflationBonusAmount.sub(_stakeOwnerInflationBonus);\n\t\t\trequire (_baseAO.mintTokenEscrow(_host, _hostEarning.inflationBonus));\n\t\t\temit InflationBonusEscrowed(_host, _purchaseId, _inflationBonusAmount, AOLibrary.PERCENTAGE_DIVISOR().sub(_profitPercentage), _hostEarning.inflationBonus, 1);\n\n\t\t\t// Store how much the The AO earns in escrow\n\t\t\tEarning storage _theAOEarning = theAOEarnings[_purchaseId];\n\t\t\t_theAOEarning.inflationBonus = (_inflationBonusAmount.mul(theAOCut)).div(AOLibrary.PERCENTAGE_DIVISOR());\n\t\t\trequire (_baseAO.mintTokenEscrow(theAO, _theAOEarning.inflationBonus));\n\t\t\temit InflationBonusEscrowed(theAO, _purchaseId, _inflationBonusAmount, theAOCut, _theAOEarning.inflationBonus, 2);\n\t\t} else {\n\t\t\temit InflationBonusEscrowed(_stakeOwner, _purchaseId, 0, _profitPercentage, 0, 0);\n\t\t\temit InflationBonusEscrowed(_host, _purchaseId, 0, AOLibrary.PERCENTAGE_DIVISOR().sub(_profitPercentage), 0, 1);\n\t\t\temit InflationBonusEscrowed(theAO, _purchaseId, 0, theAOCut, 0, 2);\n\t\t}\n\t}\n\n\t/**\n\t * @dev Release the escrowed earning for a specific purchase ID for an account\n\t * @param _stakeId The ID of the staked content\n\t * @param _contentHostId The ID of the hosted content\n\t * @param _purchaseId The purchase receipt ID\n\t * @param _buyerPaidMoreThanFileSize Whether or not the request node paid more than filesize when buying the content\n\t * @param _account The address of account that made the earning (content creator/host)\n\t * @param _recipientType The type of the earning recipient (0 => content creator. 1 => host. 2 => theAO)\n\t */\n\tfunction _releaseEarning(bytes32 _stakeId, bytes32 _contentHostId, bytes32 _purchaseId, bool _buyerPaidMoreThanFileSize, address _account, uint8 _recipientType) internal {\n\t\t// Make sure the recipient type is valid\n\t\trequire (_recipientType >= 0 && _recipientType <= 2);\n\n\t\tuint256 _paymentEarning;\n\t\tuint256 _inflationBonus;\n\t\tuint256 _totalEarning;\n\t\tuint256 _pathosAmount;\n\t\tuint256 _ethosAmount;\n\t\tif (_recipientType == 0) {\n\t\t\tEarning storage _earning = stakeEarnings[_account][_purchaseId];\n\t\t\t_paymentEarning = _earning.paymentEarning;\n\t\t\t_inflationBonus = _earning.inflationBonus;\n\t\t\t_pathosAmount = _earning.pathosAmount;\n\t\t\t_earning.paymentEarning = 0;\n\t\t\t_earning.inflationBonus = 0;\n\t\t\t_earning.pathosAmount = 0;\n\t\t\t_earning.ethosAmount = 0;\n\t\t\t_totalEarning = _paymentEarning.add(_inflationBonus);\n\n\t\t\t// Update the global var settings\n\t\t\ttotalStakeContentEarning = totalStakeContentEarning.add(_totalEarning);\n\t\t\tstakeContentEarning[_account] = stakeContentEarning[_account].add(_totalEarning);\n\t\t\ttotalStakedContentStakeEarning[_stakeId] = totalStakedContentStakeEarning[_stakeId].add(_totalEarning);\n\t\t\tif (_buyerPaidMoreThanFileSize) {\n\t\t\t\tcontentPriceEarning[_account] = contentPriceEarning[_account].add(_totalEarning);\n\t\t\t} else {\n\t\t\t\tnetworkPriceEarning[_account] = networkPriceEarning[_account].add(_totalEarning);\n\t\t\t}\n\t\t\tinflationBonusAccrued[_account] = inflationBonusAccrued[_account].add(_inflationBonus);\n\n\t\t\t// Reward the content creator/stake owner with some Pathos\n\t\t\trequire (_pathos.mintToken(_nameFactory.ethAddressToNameId(_account), _pathosAmount));\n\t\t\temit PathosEarned(_nameFactory.ethAddressToNameId(_account), _purchaseId, _pathosAmount);\n\t\t} else if (_recipientType == 1) {\n\t\t\t_earning = hostEarnings[_account][_purchaseId];\n\t\t\t_paymentEarning = _earning.paymentEarning;\n\t\t\t_inflationBonus = _earning.inflationBonus;\n\t\t\t_ethosAmount = _earning.ethosAmount;\n\t\t\t_earning.paymentEarning = 0;\n\t\t\t_earning.inflationBonus = 0;\n\t\t\t_earning.pathosAmount = 0;\n\t\t\t_earning.ethosAmount = 0;\n\t\t\t_totalEarning = _paymentEarning.add(_inflationBonus);\n\n\t\t\t// Update the global var settings\n\t\t\ttotalHostContentEarning = totalHostContentEarning.add(_totalEarning);\n\t\t\thostContentEarning[_account] = hostContentEarning[_account].add(_totalEarning);\n\t\t\ttotalStakedContentHostEarning[_stakeId] = totalStakedContentHostEarning[_stakeId].add(_totalEarning);\n\t\t\ttotalHostContentEarningById[_contentHostId] = totalHostContentEarningById[_contentHostId].add(_totalEarning);\n\t\t\tif (_buyerPaidMoreThanFileSize) {\n\t\t\t\tcontentPriceEarning[_account] = contentPriceEarning[_account].add(_totalEarning);\n\t\t\t} else {\n\t\t\t\tnetworkPriceEarning[_account] = networkPriceEarning[_account].add(_totalEarning);\n\t\t\t}\n\t\t\tinflationBonusAccrued[_account] = inflationBonusAccrued[_account].add(_inflationBonus);\n\n\t\t\t// Reward the host node with some Ethos\n\t\t\trequire (_ethos.mintToken(_nameFactory.ethAddressToNameId(_account), _ethosAmount));\n\t\t\temit EthosEarned(_nameFactory.ethAddressToNameId(_account), _purchaseId, _ethosAmount);\n\t\t} else {\n\t\t\t_earning = theAOEarnings[_purchaseId];\n\t\t\t_paymentEarning = _earning.paymentEarning;\n\t\t\t_inflationBonus = _earning.inflationBonus;\n\t\t\t_earning.paymentEarning = 0;\n\t\t\t_earning.inflationBonus = 0;\n\t\t\t_earning.pathosAmount = 0;\n\t\t\t_earning.ethosAmount = 0;\n\t\t\t_totalEarning = _paymentEarning.add(_inflationBonus);\n\n\t\t\t// Update the global var settings\n\t\t\ttotalTheAOEarning = totalTheAOEarning.add(_totalEarning);\n\t\t\tinflationBonusAccrued[_account] = inflationBonusAccrued[_account].add(_inflationBonus);\n\t\t\ttotalStakedContentTheAOEarning[_stakeId] = totalStakedContentTheAOEarning[_stakeId].add(_totalEarning);\n\t\t}\n\t\trequire (_baseAO.unescrowFrom(_account, _totalEarning));\n\t\temit EarningUnescrowed(_account, _purchaseId, _paymentEarning, _inflationBonus, _recipientType);\n\t}\n\n\t/**\n\t * @dev Get setting variables\n\t * @return inflationRate The rate to use when calculating inflation bonus\n\t * @return theAOCut The rate to use when calculating the AO earning\n\t * @return theAOEthosEarnedRate The rate to use when calculating the Ethos to AO rate for the AO\n\t */\n\tfunction _getSettingVariables() internal view returns (uint256, uint256, uint256) {\n\t\t(uint256 inflationRate,,,,) = _aoSetting.getSettingValuesByTAOName(settingTAOId, 'inflationRate');\n\t\t(uint256 theAOCut,,,,) = _aoSetting.getSettingValuesByTAOName(settingTAOId, 'theAOCut');\n\t\t(uint256 theAOEthosEarnedRate,,,,) = _aoSetting.getSettingValuesByTAOName(settingTAOId, 'theAOEthosEarnedRate');\n\n\t\treturn (inflationRate, theAOCut, theAOEthosEarnedRate);\n\t}\n\n\t/**\n\t * @dev Calculate the payment split for content creator and store them in escrow\n\t * @param _buyer the request node address that buys the content\n\t * @param _purchaseId The ID of the purchase receipt object\n\t * @param _totalStaked The total staked amount of the content\n\t * @param _profitPercentage The content creator's profit percentage\n\t * @param _stakeOwner The address of the stake owner\n\t * @param _isAOContentUsageType whether or not the content is of AO Content Usage Type\n\t * @return The stake owner's earning amount\n\t * @return The pathos earned from this transaction\n\t */\n\tfunction _escrowStakeOwnerPaymentEarning(address _buyer, bytes32 _purchaseId, uint256 _totalStaked, uint256 _profitPercentage, address _stakeOwner, bool _isAOContentUsageType) internal returns (uint256, uint256) {\n\t\t(uint256 inflationRate,,) = _getSettingVariables();\n\n\t\tEarning storage _stakeEarning = stakeEarnings[_stakeOwner][_purchaseId];\n\t\t_stakeEarning.purchaseId = _purchaseId;\n\t\t// Store how much the content creator (stake owner) earns in escrow\n\t\t// If content is AO Content Usage Type, stake owner earns 0%\n\t\t// and all profit goes to the serving host node\n\t\t_stakeEarning.paymentEarning = _isAOContentUsageType ? (_totalStaked.mul(_profitPercentage)).div(AOLibrary.PERCENTAGE_DIVISOR()) : 0;\n\t\t// Pathos = Price X Node Share X Inflation Rate\n\t\t_stakeEarning.pathosAmount = _totalStaked.mul(AOLibrary.PERCENTAGE_DIVISOR().sub(_profitPercentage)).mul(inflationRate).div(AOLibrary.PERCENTAGE_DIVISOR()).div(AOLibrary.PERCENTAGE_DIVISOR());\n\t\trequire (_baseAO.escrowFrom(_buyer, _stakeOwner, _stakeEarning.paymentEarning));\n\t\temit PaymentEarningEscrowed(_stakeOwner, _purchaseId, _totalStaked, _profitPercentage, _stakeEarning.paymentEarning, 0);\n\t\treturn (_stakeEarning.paymentEarning, _stakeEarning.pathosAmount);\n\t}\n\n\t/**\n\t * @dev Calculate the payment split for host node and store them in escrow\n\t * @param _buyer the request node address that buys the content\n\t * @param _purchaseId The ID of the purchase receipt object\n\t * @param _totalStaked The total staked amount of the content\n\t * @param _profitPercentage The content creator's profit percentage\n\t * @param _host The address of the host node\n\t * @param _isAOContentUsageType whether or not the content is of AO Content Usage Type\n\t * @param _stakeOwnerEarning The stake owner's earning amount\n\t * @return The ethos earned from this transaction\n\t */\n\tfunction _escrowHostPaymentEarning(address _buyer, bytes32 _purchaseId, uint256 _totalStaked, uint256 _profitPercentage, address _host, bool _isAOContentUsageType, uint256 _stakeOwnerEarning) internal returns (uint256) {\n\t\t(uint256 inflationRate,,) = _getSettingVariables();\n\n\t\t// Store how much the node host earns in escrow\n\t\tEarning storage _hostEarning = hostEarnings[_host][_purchaseId];\n\t\t_hostEarning.purchaseId = _purchaseId;\n\t\t_hostEarning.paymentEarning = _totalStaked.sub(_stakeOwnerEarning);\n\t\t// Ethos = Price X Creator Share X Inflation Rate\n\t\t_hostEarning.ethosAmount = _totalStaked.mul(_profitPercentage).mul(inflationRate).div(AOLibrary.PERCENTAGE_DIVISOR()).div(AOLibrary.PERCENTAGE_DIVISOR());\n\n\t\tif (_isAOContentUsageType) {\n\t\t\trequire (_baseAO.escrowFrom(_buyer, _host, _hostEarning.paymentEarning));\n\t\t} else {\n\t\t\t// If not AO Content usage type, we want to mint to the host\n\t\t\trequire (_baseAO.mintTokenEscrow(_host, _hostEarning.paymentEarning));\n\t\t}\n\t\temit PaymentEarningEscrowed(_host, _purchaseId, _totalStaked, AOLibrary.PERCENTAGE_DIVISOR().sub(_profitPercentage), _hostEarning.paymentEarning, 1);\n\t\treturn _hostEarning.ethosAmount;\n\t}\n\n\t/**\n\t * @dev Calculate the earning for The AO and store them in escrow\n\t * @param _purchaseId The ID of the purchase receipt object\n\t * @param _totalStaked The total staked amount of the content\n\t * @param _pathosAmount The amount of pathos earned by stake owner\n\t * @param _ethosAmount The amount of ethos earned by host node\n\t */\n\tfunction _escrowTheAOPaymentEarning(bytes32 _purchaseId, uint256 _totalStaked, uint256 _pathosAmount, uint256 _ethosAmount) internal {\n\t\t(,,uint256 theAOEthosEarnedRate) = _getSettingVariables();\n\n\t\t// Store how much The AO earns in escrow\n\t\tEarning storage _theAOEarning = theAOEarnings[_purchaseId];\n\t\t_theAOEarning.purchaseId = _purchaseId;\n\t\t// Pathos + X% of Ethos\n\t\t_theAOEarning.paymentEarning = _pathosAmount.add(_ethosAmount.mul(theAOEthosEarnedRate).div(AOLibrary.PERCENTAGE_DIVISOR()));\n\t\trequire (_baseAO.mintTokenEscrow(theAO, _theAOEarning.paymentEarning));\n\t\temit PaymentEarningEscrowed(theAO, _purchaseId, _totalStaked, 0, _theAOEarning.paymentEarning, 2);\n\t}\n}\n",
	"sourcePath": "/Users/johanmulyono/Work/AO/ao-contracts/contracts/AOEarning.sol",
	"compiler": {
		"name": "solc",
		"version": "0.4.24+commit.e67f0147.Emscripten.clang"
	},
	"schemaVersion": "2.0.1",
	"updatedAt": "2019-01-07T04:52:08.532Z"
}