{
	"contractName": "AOEarning",
	"abi": [
		{
			"constant": true,
			"inputs": [],
			"name": "totalFoundationEarning",
			"outputs": [
				{
					"name": "",
					"type": "uint256"
				}
			],
			"payable": false,
			"stateMutability": "view",
			"type": "function"
		},
		{
			"constant": true,
			"inputs": [],
			"name": "aoDevTeam1",
			"outputs": [
				{
					"name": "",
					"type": "address"
				}
			],
			"payable": false,
			"stateMutability": "view",
			"type": "function"
		},
		{
			"constant": true,
			"inputs": [],
			"name": "aoSettingAddress",
			"outputs": [
				{
					"name": "",
					"type": "address"
				}
			],
			"payable": false,
			"stateMutability": "view",
			"type": "function"
		},
		{
			"constant": true,
			"inputs": [],
			"name": "killed",
			"outputs": [
				{
					"name": "",
					"type": "bool"
				}
			],
			"payable": false,
			"stateMutability": "view",
			"type": "function"
		},
		{
			"constant": true,
			"inputs": [
				{
					"name": "",
					"type": "bytes32"
				}
			],
			"name": "foundationEarnings",
			"outputs": [
				{
					"name": "purchaseId",
					"type": "bytes32"
				},
				{
					"name": "paymentEarning",
					"type": "uint256"
				},
				{
					"name": "inflationBonus",
					"type": "uint256"
				}
			],
			"payable": false,
			"stateMutability": "view",
			"type": "function"
		},
		{
			"constant": true,
			"inputs": [
				{
					"name": "",
					"type": "address"
				}
			],
			"name": "hostContentEarning",
			"outputs": [
				{
					"name": "",
					"type": "uint256"
				}
			],
			"payable": false,
			"stateMutability": "view",
			"type": "function"
		},
		{
			"constant": true,
			"inputs": [],
			"name": "pathosAddress",
			"outputs": [
				{
					"name": "",
					"type": "address"
				}
			],
			"payable": false,
			"stateMutability": "view",
			"type": "function"
		},
		{
			"constant": false,
			"inputs": [
				{
					"name": "_account",
					"type": "address"
				},
				{
					"name": "_whitelist",
					"type": "bool"
				}
			],
			"name": "setWhitelist",
			"outputs": [],
			"payable": false,
			"stateMutability": "nonpayable",
			"type": "function"
		},
		{
			"constant": true,
			"inputs": [
				{
					"name": "",
					"type": "address"
				}
			],
			"name": "networkPriceEarning",
			"outputs": [
				{
					"name": "",
					"type": "uint256"
				}
			],
			"payable": false,
			"stateMutability": "view",
			"type": "function"
		},
		{
			"constant": true,
			"inputs": [],
			"name": "paused",
			"outputs": [
				{
					"name": "",
					"type": "bool"
				}
			],
			"payable": false,
			"stateMutability": "view",
			"type": "function"
		},
		{
			"constant": true,
			"inputs": [
				{
					"name": "",
					"type": "bytes32"
				}
			],
			"name": "totalHostContentEarningById",
			"outputs": [
				{
					"name": "",
					"type": "uint256"
				}
			],
			"payable": false,
			"stateMutability": "view",
			"type": "function"
		},
		{
			"constant": true,
			"inputs": [
				{
					"name": "",
					"type": "address"
				},
				{
					"name": "",
					"type": "bytes32"
				}
			],
			"name": "hostEarnings",
			"outputs": [
				{
					"name": "purchaseId",
					"type": "bytes32"
				},
				{
					"name": "paymentEarning",
					"type": "uint256"
				},
				{
					"name": "inflationBonus",
					"type": "uint256"
				}
			],
			"payable": false,
			"stateMutability": "view",
			"type": "function"
		},
		{
			"constant": true,
			"inputs": [
				{
					"name": "",
					"type": "bytes32"
				}
			],
			"name": "totalStakedContentStakeEarning",
			"outputs": [
				{
					"name": "",
					"type": "uint256"
				}
			],
			"payable": false,
			"stateMutability": "view",
			"type": "function"
		},
		{
			"constant": true,
			"inputs": [
				{
					"name": "",
					"type": "address"
				}
			],
			"name": "whitelist",
			"outputs": [
				{
					"name": "",
					"type": "bool"
				}
			],
			"payable": false,
			"stateMutability": "view",
			"type": "function"
		},
		{
			"constant": true,
			"inputs": [
				{
					"name": "",
					"type": "address"
				}
			],
			"name": "contentPriceEarning",
			"outputs": [
				{
					"name": "",
					"type": "uint256"
				}
			],
			"payable": false,
			"stateMutability": "view",
			"type": "function"
		},
		{
			"constant": true,
			"inputs": [
				{
					"name": "",
					"type": "address"
				}
			],
			"name": "inflationBonusAccrued",
			"outputs": [
				{
					"name": "",
					"type": "uint256"
				}
			],
			"payable": false,
			"stateMutability": "view",
			"type": "function"
		},
		{
			"constant": true,
			"inputs": [],
			"name": "aoDevTeam2",
			"outputs": [
				{
					"name": "",
					"type": "address"
				}
			],
			"payable": false,
			"stateMutability": "view",
			"type": "function"
		},
		{
			"constant": true,
			"inputs": [
				{
					"name": "",
					"type": "bytes32"
				}
			],
			"name": "totalStakedContentHostEarning",
			"outputs": [
				{
					"name": "",
					"type": "uint256"
				}
			],
			"payable": false,
			"stateMutability": "view",
			"type": "function"
		},
		{
			"constant": false,
			"inputs": [
				{
					"name": "_aoDevTeam1",
					"type": "address"
				},
				{
					"name": "_aoDevTeam2",
					"type": "address"
				}
			],
			"name": "setAODevTeamAddresses",
			"outputs": [],
			"payable": false,
			"stateMutability": "nonpayable",
			"type": "function"
		},
		{
			"constant": true,
			"inputs": [],
			"name": "nameFactoryAddress",
			"outputs": [
				{
					"name": "",
					"type": "address"
				}
			],
			"payable": false,
			"stateMutability": "view",
			"type": "function"
		},
		{
			"constant": true,
			"inputs": [
				{
					"name": "",
					"type": "address"
				}
			],
			"name": "stakeContentEarning",
			"outputs": [
				{
					"name": "",
					"type": "uint256"
				}
			],
			"payable": false,
			"stateMutability": "view",
			"type": "function"
		},
		{
			"constant": true,
			"inputs": [],
			"name": "baseDenominationAddress",
			"outputs": [
				{
					"name": "",
					"type": "address"
				}
			],
			"payable": false,
			"stateMutability": "view",
			"type": "function"
		},
		{
			"constant": true,
			"inputs": [],
			"name": "treasuryAddress",
			"outputs": [
				{
					"name": "",
					"type": "address"
				}
			],
			"payable": false,
			"stateMutability": "view",
			"type": "function"
		},
		{
			"constant": true,
			"inputs": [],
			"name": "developer",
			"outputs": [
				{
					"name": "",
					"type": "address"
				}
			],
			"payable": false,
			"stateMutability": "view",
			"type": "function"
		},
		{
			"constant": true,
			"inputs": [],
			"name": "totalHostContentEarning",
			"outputs": [
				{
					"name": "",
					"type": "uint256"
				}
			],
			"payable": false,
			"stateMutability": "view",
			"type": "function"
		},
		{
			"constant": true,
			"inputs": [],
			"name": "antiLogosAddress",
			"outputs": [
				{
					"name": "",
					"type": "address"
				}
			],
			"payable": false,
			"stateMutability": "view",
			"type": "function"
		},
		{
			"constant": true,
			"inputs": [],
			"name": "settingTAOId",
			"outputs": [
				{
					"name": "",
					"type": "address"
				}
			],
			"payable": false,
			"stateMutability": "view",
			"type": "function"
		},
		{
			"constant": true,
			"inputs": [
				{
					"name": "",
					"type": "bytes32"
				}
			],
			"name": "totalStakedContentFoundationEarning",
			"outputs": [
				{
					"name": "",
					"type": "uint256"
				}
			],
			"payable": false,
			"stateMutability": "view",
			"type": "function"
		},
		{
			"constant": true,
			"inputs": [
				{
					"name": "",
					"type": "address"
				},
				{
					"name": "",
					"type": "bytes32"
				}
			],
			"name": "stakeEarnings",
			"outputs": [
				{
					"name": "purchaseId",
					"type": "bytes32"
				},
				{
					"name": "paymentEarning",
					"type": "uint256"
				},
				{
					"name": "inflationBonus",
					"type": "uint256"
				}
			],
			"payable": false,
			"stateMutability": "view",
			"type": "function"
		},
		{
			"constant": true,
			"inputs": [],
			"name": "totalStakeContentEarning",
			"outputs": [
				{
					"name": "",
					"type": "uint256"
				}
			],
			"payable": false,
			"stateMutability": "view",
			"type": "function"
		},
		{
			"constant": false,
			"inputs": [
				{
					"name": "newDeveloper",
					"type": "address"
				}
			],
			"name": "transferOwnership",
			"outputs": [],
			"payable": false,
			"stateMutability": "nonpayable",
			"type": "function"
		},
		{
			"inputs": [
				{
					"name": "_settingTAOId",
					"type": "address"
				},
				{
					"name": "_aoSettingAddress",
					"type": "address"
				},
				{
					"name": "_baseDenominationAddress",
					"type": "address"
				},
				{
					"name": "_treasuryAddress",
					"type": "address"
				},
				{
					"name": "_nameFactoryAddress",
					"type": "address"
				},
				{
					"name": "_pathosAddress",
					"type": "address"
				},
				{
					"name": "_antiLogosAddress",
					"type": "address"
				}
			],
			"payable": false,
			"stateMutability": "nonpayable",
			"type": "constructor"
		},
		{
			"anonymous": false,
			"inputs": [
				{
					"indexed": true,
					"name": "recipient",
					"type": "address"
				},
				{
					"indexed": true,
					"name": "purchaseId",
					"type": "bytes32"
				},
				{
					"indexed": false,
					"name": "totalInflationBonusAmount",
					"type": "uint256"
				},
				{
					"indexed": false,
					"name": "recipientProfitPercentage",
					"type": "uint256"
				},
				{
					"indexed": false,
					"name": "recipientInflationBonus",
					"type": "uint256"
				},
				{
					"indexed": false,
					"name": "recipientType",
					"type": "uint8"
				}
			],
			"name": "InflationBonusEscrowed",
			"type": "event"
		},
		{
			"anonymous": false,
			"inputs": [
				{
					"indexed": true,
					"name": "recipient",
					"type": "address"
				},
				{
					"indexed": true,
					"name": "purchaseId",
					"type": "bytes32"
				},
				{
					"indexed": false,
					"name": "totalPaymentAmount",
					"type": "uint256"
				},
				{
					"indexed": false,
					"name": "recipientProfitPercentage",
					"type": "uint256"
				},
				{
					"indexed": false,
					"name": "recipientPaymentEarning",
					"type": "uint256"
				},
				{
					"indexed": false,
					"name": "recipientType",
					"type": "uint8"
				}
			],
			"name": "PaymentEarningEscrowed",
			"type": "event"
		},
		{
			"anonymous": false,
			"inputs": [
				{
					"indexed": true,
					"name": "recipient",
					"type": "address"
				},
				{
					"indexed": true,
					"name": "purchaseId",
					"type": "bytes32"
				},
				{
					"indexed": false,
					"name": "paymentEarning",
					"type": "uint256"
				},
				{
					"indexed": false,
					"name": "inflationBonus",
					"type": "uint256"
				},
				{
					"indexed": false,
					"name": "recipientType",
					"type": "uint8"
				}
			],
			"name": "EarningUnescrowed",
			"type": "event"
		},
		{
			"anonymous": false,
			"inputs": [
				{
					"indexed": true,
					"name": "nameId",
					"type": "address"
				},
				{
					"indexed": true,
					"name": "purchaseId",
					"type": "bytes32"
				},
				{
					"indexed": false,
					"name": "amount",
					"type": "uint256"
				}
			],
			"name": "PathosEarned",
			"type": "event"
		},
		{
			"anonymous": false,
			"inputs": [
				{
					"indexed": true,
					"name": "nameId",
					"type": "address"
				},
				{
					"indexed": true,
					"name": "purchaseId",
					"type": "bytes32"
				},
				{
					"indexed": false,
					"name": "amount",
					"type": "uint256"
				}
			],
			"name": "AntiLogosEarned",
			"type": "event"
		},
		{
			"anonymous": false,
			"inputs": [],
			"name": "EscapeHatch",
			"type": "event"
		},
		{
			"constant": false,
			"inputs": [
				{
					"name": "_paused",
					"type": "bool"
				}
			],
			"name": "setPaused",
			"outputs": [],
			"payable": false,
			"stateMutability": "nonpayable",
			"type": "function"
		},
		{
			"constant": false,
			"inputs": [
				{
					"name": "_newBaseDenominationAddress",
					"type": "address"
				}
			],
			"name": "setBaseDenominationAddress",
			"outputs": [],
			"payable": false,
			"stateMutability": "nonpayable",
			"type": "function"
		},
		{
			"constant": false,
			"inputs": [],
			"name": "escapeHatch",
			"outputs": [],
			"payable": false,
			"stateMutability": "nonpayable",
			"type": "function"
		},
		{
			"constant": false,
			"inputs": [
				{
					"name": "_buyer",
					"type": "address"
				},
				{
					"name": "_purchaseId",
					"type": "bytes32"
				},
				{
					"name": "_networkAmountStaked",
					"type": "uint256"
				},
				{
					"name": "_primordialAmountStaked",
					"type": "uint256"
				},
				{
					"name": "_primordialWeightedMultiplierStaked",
					"type": "uint256"
				},
				{
					"name": "_profitPercentage",
					"type": "uint256"
				},
				{
					"name": "_fileSize",
					"type": "uint256"
				},
				{
					"name": "_stakeOwner",
					"type": "address"
				},
				{
					"name": "_host",
					"type": "address"
				},
				{
					"name": "_isAOContentUsageType",
					"type": "bool"
				}
			],
			"name": "calculateEarning",
			"outputs": [
				{
					"name": "",
					"type": "bool"
				}
			],
			"payable": false,
			"stateMutability": "nonpayable",
			"type": "function"
		},
		{
			"constant": false,
			"inputs": [
				{
					"name": "_stakeId",
					"type": "bytes32"
				},
				{
					"name": "_contentHostId",
					"type": "bytes32"
				},
				{
					"name": "_purchaseId",
					"type": "bytes32"
				},
				{
					"name": "_buyerPaidAmount",
					"type": "uint256"
				},
				{
					"name": "_fileSize",
					"type": "uint256"
				},
				{
					"name": "_stakeOwner",
					"type": "address"
				},
				{
					"name": "_host",
					"type": "address"
				}
			],
			"name": "releaseEarning",
			"outputs": [
				{
					"name": "",
					"type": "bool"
				}
			],
			"payable": false,
			"stateMutability": "nonpayable",
			"type": "function"
		}
	],
	"bytecode": "0x608060405260018054600160a060020a0319908116735c63644d01ba385ebac5bcf2ddc1e6dbc1182b52179091556002805490911673156c79bf4347d1891da834ea30662a14177cbf2817905534801561005857600080fd5b5060405160e08061262183398101604090815281516020830151918301516060840151608085015160a086015160c0909601516000805433600160a060020a0319918216178255600480546201000060b060020a03191662010000600160a060020a03998a1602179055600580548216988816988917905560068054821696881696871790556007805482169588169586179055600980548216998816998a179055600a805482169388169384179055601080548216909817909755600b80548816909517909455600c80548716909317909255600e805486169490911693909317909255600d80548416909417909355600f80549092161790556124be90819061016390396000f3006080604052600436106101a85763ffffffff60e060020a6000350416630292f88a81146101ad578063067fe001146101d057806315227aa7146101f75780631554611f1461022857806316c38b3c1461023d5780631d0138ff146102575780631f3a0e411461026c5780633bac2fac1461029557806341f7e8dc146102cb5780634486ab0a146102ec57806353d6fd5914610301578063552318e0146103275780635c975abb1461034857806367d3bfe01461035d5780636834a85714610375578063715eb5bc146103995780638bca51c9146103cf5780639587085d1461041b5780639b19251a14610433578063a7a5f77314610454578063a832ebda14610475578063a99433a614610496578063aace426d146104ab578063b24626e9146104c3578063bc406206146104ea578063bfeacddb146104ff578063c44a079514610520578063c5f956af14610535578063ca4b208b1461054a578063cba17a2b1461055f578063d4df5eca14610574578063e7c5018514610589578063e957a85b1461059e578063e9f4529d146105b6578063edac5f44146105da578063f2fde38b146105ef575b600080fd5b3480156101b957600080fd5b506101ce600160a060020a0360043516610610565b005b3480156101dc57600080fd5b506101e5610750565b60408051918252519081900360200190f35b34801561020357600080fd5b5061020c610756565b60408051600160a060020a039092168252519081900360200190f35b34801561023457600080fd5b506101ce610765565b34801561024957600080fd5b506101ce60043515156107cb565b34801561026357600080fd5b5061020c6107f5565b34801561027857600080fd5b50610281610804565b604080519115158252519081900360200190f35b3480156102a157600080fd5b506102ad600435610812565b60408051938452602084019290925282820152519081900360600190f35b3480156102d757600080fd5b506101e5600160a060020a0360043516610833565b3480156102f857600080fd5b5061020c610845565b34801561030d57600080fd5b506101ce600160a060020a03600435166024351515610854565b34801561033357600080fd5b506101e5600160a060020a0360043516610896565b34801561035457600080fd5b506102816108a8565b34801561036957600080fd5b506101e56004356108b1565b34801561038157600080fd5b506102ad600160a060020a03600435166024356108c3565b3480156103a557600080fd5b50610281600435602435604435606435608435600160a060020a0360a43581169060c435166108ef565b3480156103db57600080fd5b50610281600160a060020a036004358116906024359060443590606435906084359060a4359060c4359060e43581169061010435166101243515156109a3565b34801561042757600080fd5b506101e5600435610e0d565b34801561043f57600080fd5b50610281600160a060020a0360043516610e1f565b34801561046057600080fd5b506101e5600160a060020a0360043516610e34565b34801561048157600080fd5b506101e5600160a060020a0360043516610e46565b3480156104a257600080fd5b5061020c610e58565b3480156104b757600080fd5b506101e5600435610e67565b3480156104cf57600080fd5b506101ce600160a060020a0360043581169060243516610e79565b3480156104f657600080fd5b5061020c610ecb565b34801561050b57600080fd5b506101e5600160a060020a0360043516610eda565b34801561052c57600080fd5b5061020c610eec565b34801561054157600080fd5b5061020c610efb565b34801561055657600080fd5b5061020c610f0a565b34801561056b57600080fd5b506101e5610f19565b34801561058057600080fd5b5061020c610f1f565b34801561059557600080fd5b5061020c610f2e565b3480156105aa57600080fd5b506101e5600435610f43565b3480156105c257600080fd5b506102ad600160a060020a0360043516602435610f55565b3480156105e657600080fd5b506101e5610f81565b3480156105fb57600080fd5b506101ce600160a060020a0360043516610f87565b600054600160a060020a0316331461062757600080fd5b80600160a060020a0316630aa245466040518163ffffffff1660e060020a028152600401602060405180830381600087803b15801561066557600080fd5b505af1158015610679573d6000803e3d6000fd5b505050506040513d602081101561068f57600080fd5b5051158015610709575080600160a060020a031663ba2f81706040518163ffffffff1660e060020a028152600401602060405180830381600087803b1580156106d757600080fd5b505af11580156106eb573d6000803e3d6000fd5b505050506040513d602081101561070157600080fd5b505115156001145b151561071457600080fd5b6006805473ffffffffffffffffffffffffffffffffffffffff19908116600160a060020a039384161791829055600b8054929093169116179055565b60135481565b600154600160a060020a031681565b600054600160a060020a0316331461077c57600080fd5b600454610100900460ff161561079157600080fd5b6004805461ff0019166101001790556040517f16ed36fbe43aed6ba7426b24d35620696380d398f2f22f918dd74e4d3e0ceef990600090a1565b600054600160a060020a031633146107e257600080fd5b6004805460ff1916911515919091179055565b600554600160a060020a031681565b600454610100900460ff1681565b601b6020526000908152604090208054600182015460029092015490919083565b60156020526000908152604090205481565b600954600160a060020a031681565b600054600160a060020a0316331461086b57600080fd5b600160a060020a03919091166000908152600360205260409020805460ff1916911515919091179055565b60166020526000908152604090205481565b60045460ff1681565b601f6020526000908152604090205481565b601a60209081526000928352604080842090915290825290208054600182015460029092015490919083565b60045460009060ff1615801561090d5750600454610100900460ff16155b151561091857600080fd5b3360008181526003602052604090205460ff161515600114806109485750600054600160a060020a038281169116145b151561095357600080fd5b6109638989898989896000610fcd565b6109738989898989886001610fcd565b600054610994908a908a908a908a908a90600160a060020a03166002610fcd565b50600198975050505050505050565b60045460009060ff161580156109c15750600454610100900460ff16155b15156109cc57600080fd5b3360008181526003602052604090205460ff161515600114806109fc5750600054600160a060020a038281169116145b1515610a0757600080fd5b610a258c8c610a1c8d8d63ffffffff6114b716565b8a8989896114ca565b610a3d8b610a348c8c8c61197a565b89888888611b5d565b600d54600e546040805160e060020a63029b7d53028152600160a060020a0389811660048301529151938216936379c65068939092169163029b7d53916024808201926020929091908290030181600087803b158015610a9c57600080fd5b505af1158015610ab0573d6000803e3d6000fd5b505050506040513d6020811015610ac657600080fd5b5051610ad88d8d63ffffffff6114b716565b6040518363ffffffff1660e060020a0281526004018083600160a060020a0316600160a060020a0316815260200182815260200192505050602060405180830381600087803b158015610b2a57600080fd5b505af1158015610b3e573d6000803e3d6000fd5b505050506040513d6020811015610b5457600080fd5b50511515610b6157600080fd5b600e546040805160e060020a63029b7d53028152600160a060020a03888116600483015291518e93929092169163029b7d53916024808201926020929091908290030181600087803b158015610bb657600080fd5b505af1158015610bca573d6000803e3d6000fd5b505050506040513d6020811015610be057600080fd5b5051600160a060020a03167f21c3387baaff2d916ae2cd1669d5f94fe9583036b96ef82acb3a4565815cfce8610c1c8d8d63ffffffff6114b716565b60408051918252519081900360200190a3600f54600e546040805160e060020a63029b7d53028152600160a060020a0388811660048301529151938216936379c65068939092169163029b7d53916024808201926020929091908290030181600087803b158015610c8c57600080fd5b505af1158015610ca0573d6000803e3d6000fd5b505050506040513d6020811015610cb657600080fd5b50516040805160e060020a63ffffffff8516028152600160a060020a039092166004830152602482018a90525160448083019260209291908290030181600087803b158015610d0457600080fd5b505af1158015610d18573d6000803e3d6000fd5b505050506040513d6020811015610d2e57600080fd5b50511515610d3b57600080fd5b600e546040805160e060020a63029b7d53028152600160a060020a03878116600483015291518e93929092169163029b7d53916024808201926020929091908290030181600087803b158015610d9057600080fd5b505af1158015610da4573d6000803e3d6000fd5b505050506040513d6020811015610dba57600080fd5b5051604080518981529051600160a060020a03909216917f0f01591b2e29fe2fdc2ca7f2ce1f4586e3a4623f9ba5c2df95f01284d921f6d69181900360200190a35060019b9a5050505050505050505050565b601c6020526000908152604090205481565b60036020526000908152604090205460ff1681565b60176020526000908152604090205481565b60186020526000908152604090205481565b600254600160a060020a031681565b601d6020526000908152604090205481565b600054600160a060020a03163314610e9057600080fd5b60018054600160a060020a0393841673ffffffffffffffffffffffffffffffffffffffff199182161790915560028054929093169116179055565b600854600160a060020a031681565b60146020526000908152604090205481565b600654600160a060020a031681565b600754600160a060020a031681565b600054600160a060020a031681565b60125481565b600a54600160a060020a031681565b600454620100009004600160a060020a031681565b601e6020526000908152604090205481565b601960209081526000928352604080842090915290825290208054600182015460029092015490919083565b60115481565b600054600160a060020a03163314610f9e57600080fd5b6000805473ffffffffffffffffffffffffffffffffffffffff1916600160a060020a0392909216919091179055565b60008060008060008560ff1610158015610feb575060028560ff1611155b1515610ff657600080fd5b60ff851615156111b05750600160a060020a03851660009081526019602090815260408083208b84529091528120600181018054600283018054928590559390935591945090925061104e848463ffffffff6114b716565b601154909250611064908363ffffffff6114b716565b601155600160a060020a038616600090815260146020526040902054611090908363ffffffff6114b716565b600160a060020a0387166000908152601460209081526040808320939093558d8252601c905220546110c8908363ffffffff6114b716565b60008c8152601c60205260409020558688111561112657600160a060020a038616600090815260176020526040902054611108908363ffffffff6114b716565b600160a060020a038716600090815260176020526040902055611169565b600160a060020a03861660009081526016602052604090205461114f908363ffffffff6114b716565b600160a060020a0387166000908152601660205260409020555b600160a060020a038616600090815260186020526040902054611192908463ffffffff6114b716565b600160a060020a0387166000908152601860205260409020556113b5565b8460ff16600114156112f25750600160a060020a0385166000908152601a602090815260408083208b84529091528120600181018054600283018054928590559390935591945090925061120a848463ffffffff6114b716565b601254909250611220908363ffffffff6114b716565b601255600160a060020a03861660009081526015602052604090205461124c908363ffffffff6114b716565b600160a060020a0387166000908152601560209081526040808320939093558d8252601d90522054611284908363ffffffff6114b716565b60008c8152601d60209081526040808320939093558c8252601f905220546112b2908363ffffffff6114b716565b60008b8152601f60205260409020558688111561112657600160a060020a038616600090815260176020526040902054611108908363ffffffff6114b716565b506000888152601b60205260408120600181018054600283018054928590559390935591945090925061132b848463ffffffff6114b716565b601354909250611341908363ffffffff6114b716565b601355600160a060020a03861660009081526018602052604090205461136d908463ffffffff6114b716565b600160a060020a0387166000908152601860209081526040808320939093558d8252601e905220546113a5908363ffffffff6114b716565b60008c8152601e60205260409020555b600b54604080517f8a066045000000000000000000000000000000000000000000000000000000008152600160a060020a0389811660048301526024820186905291519190921691638a0660459160448083019260209291908290030181600087803b15801561142457600080fd5b505af1158015611438573d6000803e3d6000fd5b505050506040513d602081101561144e57600080fd5b5051151561145b57600080fd5b604080518581526020810185905260ff87168183015290518a91600160a060020a038916917f212de36dcbb73c749ef074ec2565ecd3e461ebb1d28ea6021effdb8be7d44cda9181900360600190a35050505050505050505050565b818101828110156114c457fe5b92915050565b6000806000836114db57600061156d565b61156d73__AOLibrary_____________________________63caf297656040518163ffffffff1660e060020a02815260040160206040518083038186803b15801561152557600080fd5b505af4158015611539573d6000803e3d6000fd5b505050506040513d602081101561154f57600080fd5b50516115618a8a63ffffffff61216c16565b9063ffffffff61219516565b92506019600087600160a060020a0316600160a060020a0316815260200190815260200160002060008a60001916600019168152602001908152602001600020915088826000018160001916905550828260010181905550600b60009054906101000a9004600160a060020a0316600160a060020a03166387d4ca938b8885600101546040518463ffffffff1660e060020a0281526004018084600160a060020a0316600160a060020a0316815260200183600160a060020a0316600160a060020a031681526020018281526020019350505050602060405180830381600087803b15801561165b57600080fd5b505af115801561166f573d6000803e3d6000fd5b505050506040513d602081101561168557600080fd5b5051151561169257600080fd5b6001820154604080518a8152602081018a90528082019290925260006060830152518a91600160a060020a038916917f2bc2599ff4713444a049b5e4a07d2cde6becf6e7fc7c4e041bc1cf36894f10ee9181900360800190a350600160a060020a0384166000908152601a602090815260408083208b84529091529020888155611722888463ffffffff6121aa16565b600182015583156117e657600b546001820154604080517f87d4ca93000000000000000000000000000000000000000000000000000000008152600160a060020a038e8116600483015289811660248301526044820193909352905191909216916387d4ca939160648083019260209291908290030181600087803b1580156117aa57600080fd5b505af11580156117be573d6000803e3d6000fd5b505050506040513d60208110156117d457600080fd5b505115156117e157600080fd5b611892565b600b546001820154604080517f23ceb6d8000000000000000000000000000000000000000000000000000000008152600160a060020a0389811660048301526024820193909352905191909216916323ceb6d89160448083019260209291908290030181600087803b15801561185b57600080fd5b505af115801561186f573d6000803e3d6000fd5b505050506040513d602081101561188557600080fd5b5051151561189257600080fd5b886000191685600160a060020a03167f2bc2599ff4713444a049b5e4a07d2cde6becf6e7fc7c4e041bc1cf36894f10ee8a6119468b73__AOLibrary_____________________________63caf297656040518163ffffffff1660e060020a02815260040160206040518083038186803b15801561190e57600080fd5b505af4158015611922573d6000803e3d6000fd5b505050506040513d602081101561193857600080fd5b50519063ffffffff6121aa16565b600180870154604080519485526020850193909352838301526060830152519081900360800190a350505050505050505050565b6000806000806119886121bc565b509250611a1173__AOLibrary_____________________________63caf297656040518163ffffffff1660e060020a02815260040160206040518083038186803b1580156119d557600080fd5b505af41580156119e9573d6000803e3d6000fd5b505050506040513d60208110156119ff57600080fd5b5051611561898663ffffffff61216c16565b9150611b4073__AOLibrary_____________________________63caf297656040518163ffffffff1660e060020a02815260040160206040518083038186803b158015611a5d57600080fd5b505af4158015611a71573d6000803e3d6000fd5b505050506040513d6020811015611a8757600080fd5b5051604080517fd661dd310000000000000000000000000000000000000000000000000000000081529051611561918791611b349173__AOLibrary_____________________________9163d661dd3191600480820192602092909190829003018186803b158015611af857600080fd5b505af4158015611b0c573d6000803e3d6000fd5b505050506040513d6020811015611b2257600080fd5b50516115618c8c63ffffffff61216c16565b9063ffffffff61216c16565b9050611b52828263ffffffff6114b716565b979650505050505050565b6000806000806000611b6d6121bc565b95505060008a11156120435785611b85576000611bcf565b611bcf73__AOLibrary_____________________________63caf297656040518163ffffffff1660e060020a02815260040160206040518083038186803b158015611af857600080fd5b93506019600089600160a060020a0316600160a060020a0316815260200190815260200160002060008c600019166000191681526020019081526020016000209250838360020181905550600b60009054906101000a9004600160a060020a0316600160a060020a03166323ceb6d88985600201546040518363ffffffff1660e060020a0281526004018083600160a060020a0316600160a060020a0316815260200182815260200192505050602060405180830381600087803b158015611c9657600080fd5b505af1158015611caa573d6000803e3d6000fd5b505050506040513d6020811015611cc057600080fd5b50511515611ccd57600080fd5b6002830154604080518c8152602081018c90528082019290925260006060830152518c91600160a060020a038b16916000805160206124738339815191529181900360800190a3600160a060020a0387166000908152601a602090815260408083208e845290915290209150611d498a8563ffffffff6121aa16565b60028301819055600b54604080517f23ceb6d8000000000000000000000000000000000000000000000000000000008152600160a060020a038b811660048301526024820194909452905192909116916323ceb6d8916044808201926020929091908290030181600087803b158015611dc157600080fd5b505af1158015611dd5573d6000803e3d6000fd5b505050506040513d6020811015611deb57600080fd5b50511515611df857600080fd5b8a6000191687600160a060020a03166000805160206124738339815191528c611e628d73__AOLibrary_____________________________63caf297656040518163ffffffff1660e060020a02815260040160206040518083038186803b15801561190e57600080fd5b60028701546040805193845260208401929092528282015260016060830152519081900360800190a35060008a8152601b60209081526040918290208c815582517fcaf2976500000000000000000000000000000000000000000000000000000000815292519092611f429273__AOLibrary_____________________________9263caf29765926004808201939291829003018186803b158015611f0657600080fd5b505af4158015611f1a573d6000803e3d6000fd5b505050506040513d6020811015611f3057600080fd5b50516115618c8863ffffffff61216c16565b60028201819055600b5460008054604080517f23ceb6d8000000000000000000000000000000000000000000000000000000008152600160a060020a0392831660048201526024810195909552519216926323ceb6d89260448083019360209383900390910190829087803b158015611fba57600080fd5b505af1158015611fce573d6000803e3d6000fd5b505050506040513d6020811015611fe457600080fd5b50511515611ff157600080fd5b600054600280830154604080518e8152602081018a905280820192909252606082019290925290518d92600160a060020a031691600080516020612473833981519152919081900360800190a361215f565b604080516000808252602082018c9052818301819052606082015290518c91600160a060020a038b16916000805160206124738339815191529181900360800190a38a6000191687600160a060020a031660008051602061247383398151915260006120f08d73__AOLibrary_____________________________63caf297656040518163ffffffff1660e060020a02815260040160206040518083038186803b15801561190e57600080fd5b60408051928352602083019190915260008282015260016060830152519081900360800190a36000805460408051838152602081018990528082019390935260026060840152518d92600160a060020a0390921691600080516020612473833981519152919081900360800190a35b5050505050505050505050565b600082151561217d575060006114c4565b5081810281838281151561218d57fe5b04146114c457fe5b600081838115156121a257fe5b049392505050565b6000828211156121b657fe5b50900390565b60105460048054604080517f7065bedc000000000000000000000000000000000000000000000000000000008152600160a060020a036201000090930483169381019390935260248301819052600d60448401527f696e666c6174696f6e5261746500000000000000000000000000000000000000606484015251600093849384938493921691637065bedc91608480820192869290919082900301818387803b15801561226957600080fd5b505af115801561227d573d6000803e3d6000fd5b505050506040513d6000823e601f3d908101601f1916820160405260a08110156122a657600080fd5b8151602083015160408401516060850151608086018051949693959294919392830192916401000000008111156122dc57600080fd5b820160208101848111156122ef57600080fd5b815164010000000081118282018710171561230957600080fd5b505060105460048054604080517f7065bedc00000000000000000000000000000000000000000000000000000000815262010000909204600160a060020a039081169383019390935260248201819052600d60448301527f666f756e646174696f6e437574000000000000000000000000000000000000006064830152519a9c50911698637065bedc985060848083019850600097509095509085900301925083915084905087803b1580156123be57600080fd5b505af11580156123d2573d6000803e3d6000fd5b505050506040513d6000823e601f3d908101601f1916820160405260a08110156123fb57600080fd5b81516020830151604084015160608501516080860180519496939592949193928301929164010000000081111561243157600080fd5b8201602081018481111561244457600080fd5b815164010000000081118282018710171561245e57600080fd5b50999c979b509699505050505050505050505600df9b18b8b292e153b0dfff6e1d71024ca7486117e59c0bbaf074ad370deebd1ca165627a7a723058205540191a9acab1b35c8547668da801f55060c9bc2ca6fade27f80242c19a274f0029",
	"source": "pragma solidity ^0.4.24;\n\nimport './SafeMath.sol';\nimport './developed.sol';\nimport './AOToken.sol';\nimport './AOTreasury.sol';\nimport './Pathos.sol';\nimport './AntiLogos.sol';\nimport './AOSetting.sol';\nimport './AOLibrary.sol';\nimport './NameFactory.sol';\n\n/**\n * @title AOEarning\n *\n * This contract stores the earning from staking/hosting content on AO\n */\ncontract AOEarning is developed {\n\tusing SafeMath for uint256;\n\n\tbool public paused;\n\tbool public killed;\n\n\taddress public settingTAOId;\n\taddress public aoSettingAddress;\n\taddress public baseDenominationAddress;\n\taddress public treasuryAddress;\n\taddress public nameFactoryAddress;\n\taddress public pathosAddress;\n\taddress public antiLogosAddress;\n\n\tAOToken internal _baseAO;\n\tAOTreasury internal _treasury;\n\tPathos internal _pathos;\n\tNameFactory internal _nameFactory;\n\tAntiLogos internal _antiLogos;\n\tAOSetting internal _aoSetting;\n\n\t// Total earning from staking content from all nodes\n\tuint256 public totalStakeContentEarning;\n\n\t// Total earning from hosting content from all nodes\n\tuint256 public totalHostContentEarning;\n\n\t// Total foundation earning\n\tuint256 public totalFoundationEarning;\n\n\t// Mapping from address to his/her earning from content that he/she staked\n\tmapping (address => uint256) public stakeContentEarning;\n\n\t// Mapping from address to his/her earning from content that he/she hosted\n\tmapping (address => uint256) public hostContentEarning;\n\n\t// Mapping from address to his/her network price earning\n\t// i.e, when staked amount = filesize\n\tmapping (address => uint256) public networkPriceEarning;\n\n\t// Mapping from address to his/her content price earning\n\t// i.e, when staked amount > filesize\n\tmapping (address => uint256) public contentPriceEarning;\n\n\t// Mapping from address to his/her inflation bonus\n\tmapping (address => uint256) public inflationBonusAccrued;\n\n\tstruct Earning {\n\t\tbytes32 purchaseId;\n\t\tuint256 paymentEarning;\n\t\tuint256 inflationBonus;\n\t}\n\n\t// Mapping from address to earning from staking content of a purchase ID\n\tmapping (address => mapping(bytes32 => Earning)) public stakeEarnings;\n\n\t// Mapping from address to earning from hosting content of a purchase ID\n\tmapping (address => mapping(bytes32 => Earning)) public hostEarnings;\n\n\t// Mapping from purchase ID to earning for Foundation\n\tmapping (bytes32 => Earning) public foundationEarnings;\n\n\t// Mapping from stake ID to it's total earning from staking\n\tmapping (bytes32 => uint256) public totalStakedContentStakeEarning;\n\n\t// Mapping from stake ID to it's total earning from hosting\n\tmapping (bytes32 => uint256) public totalStakedContentHostEarning;\n\n\t// Mapping from stake ID to it's total earning earned by Foundation\n\tmapping (bytes32 => uint256) public totalStakedContentFoundationEarning;\n\n\t// Mapping from content host ID to it's total earning\n\tmapping (bytes32 => uint256) public totalHostContentEarningById;\n\n\t// Event to be broadcasted to public when content creator/host/foundation earns inflation bonus in escrow when request node buys the content\n\t// recipientType:\n\t// 0 => Content Creator (Stake Owner)\n\t// 1 => Node Host\n\t// 2 => Foundation\n\tevent InflationBonusEscrowed(address indexed recipient, bytes32 indexed purchaseId, uint256 totalInflationBonusAmount, uint256 recipientProfitPercentage, uint256 recipientInflationBonus, uint8 recipientType);\n\n\t// Event to be broadcasted to public when content creator/host earns the payment split in escrow when request node buys the content\n\t// recipientType:\n\t// 0 => Content Creator (Stake Owner)\n\t// 1 => Node Host\n\tevent PaymentEarningEscrowed(address indexed recipient, bytes32 indexed purchaseId, uint256 totalPaymentAmount, uint256 recipientProfitPercentage, uint256 recipientPaymentEarning, uint8 recipientType);\n\n\t// Event to be broadcasted to public when content creator/host/foundation earning is released from escrow\n\t// recipientType:\n\t// 0 => Content Creator (Stake Owner)\n\t// 1 => Node Host\n\t// 2 => Foundation\n\tevent EarningUnescrowed(address indexed recipient, bytes32 indexed purchaseId, uint256 paymentEarning, uint256 inflationBonus, uint8 recipientType);\n\n\t// Event to be broadcasted to public when content creator's Name earns Pathos when a node buys a content\n\tevent PathosEarned(address indexed nameId, bytes32 indexed purchaseId, uint256 amount);\n\n\t// Event to be broadcasted to public when host's Name earns AntiLogos when a node buys a content\n\tevent AntiLogosEarned(address indexed nameId, bytes32 indexed purchaseId, uint256 amount);\n\n\t// Event to be broadcasted to public when emergency mode is triggered\n\tevent EscapeHatch();\n\n\t/**\n\t * @dev Constructor function\n\t * @param _settingTAOId The TAO ID that controls the setting\n\t * @param _aoSettingAddress The address of AOSetting\n\t * @param _baseDenominationAddress The address of AO base token\n\t * @param _treasuryAddress The address of AOTreasury\n\t * @param _nameFactoryAddress The address of NameFactory\n\t * @param _pathosAddress The address of Pathos\n\t * @param _antiLogosAddress The address of AntiLogos\n\t */\n\tconstructor(address _settingTAOId, address _aoSettingAddress, address _baseDenominationAddress, address _treasuryAddress, address _nameFactoryAddress, address _pathosAddress, address _antiLogosAddress) public {\n\t\tsettingTAOId = _settingTAOId;\n\t\taoSettingAddress = _aoSettingAddress;\n\t\tbaseDenominationAddress = _baseDenominationAddress;\n\t\ttreasuryAddress = _treasuryAddress;\n\t\tpathosAddress = _pathosAddress;\n\t\tantiLogosAddress = _antiLogosAddress;\n\n\t\t_aoSetting = AOSetting(_aoSettingAddress);\n\t\t_baseAO = AOToken(_baseDenominationAddress);\n\t\t_treasury = AOTreasury(_treasuryAddress);\n\t\t_nameFactory = NameFactory(_nameFactoryAddress);\n\t\t_pathos = Pathos(_pathosAddress);\n\t\t_antiLogos = AntiLogos(_antiLogosAddress);\n\t}\n\n\t/**\n\t * @dev Checks if contract is currently active\n\t */\n\tmodifier isActive {\n\t\trequire (paused == false && killed == false);\n\t\t_;\n\t}\n\n\t/***** DEVELOPER ONLY METHODS *****/\n\t/**\n\t * @dev Developer pauses/unpauses contract\n\t * @param _paused Either to pause contract or not\n\t */\n\tfunction setPaused(bool _paused) public onlyDeveloper {\n\t\tpaused = _paused;\n\t}\n\n\t/**\n\t * @dev Developer updates base denomination address\n\t * @param _newBaseDenominationAddress The new address\n\t */\n\tfunction setBaseDenominationAddress(address _newBaseDenominationAddress) public onlyDeveloper {\n\t\trequire (AOToken(_newBaseDenominationAddress).powerOfTen() == 0 && AOToken(_newBaseDenominationAddress).networkExchangeContract() == true);\n\t\tbaseDenominationAddress = _newBaseDenominationAddress;\n\t\t_baseAO = AOToken(baseDenominationAddress);\n\t}\n\n\t/**\n\t * @dev Developer triggers emergency mode.\n\t *\n\t */\n\tfunction escapeHatch() public onlyDeveloper {\n\t\trequire (killed == false);\n\t\tkilled = true;\n\t\temit EscapeHatch();\n\t}\n\n\t/***** PUBLIC METHODS *****/\n\n\t/**\n\t * @dev Calculate the content creator/host/foundation earning when request node buys the content.\n\t *\t\tAlso at this stage, all of the earnings are stored in escrow\n\t * @param _buyer The request node address that buys the content\n\t * @param _purchaseId The ID of the purchase receipt object\n\t * @param _networkAmountStaked The amount of network tokens at stake\n\t * @param _primordialAmountStaked The amount of primordial tokens at stake\n\t * @param _primordialWeightedMultiplierStaked The weighted multiplier of primordial tokens at stake\n\t * @param _profitPercentage The content creator's profit percentage\n\t * @param _fileSize The size of the file\n\t * @param _stakeOwner The address of the stake owner\n\t * @param _host The address of the host\n\t * @param _isAOContentUsageType whether or not the content is of AO Content Usage Type\n\t */\n\tfunction calculateEarning(\n\t\taddress _buyer,\n\t\tbytes32 _purchaseId,\n\t\tuint256 _networkAmountStaked,\n\t\tuint256 _primordialAmountStaked,\n\t\tuint256 _primordialWeightedMultiplierStaked,\n\t\tuint256 _profitPercentage,\n\t\tuint256 _fileSize,\n\t\taddress _stakeOwner,\n\t\taddress _host,\n\t\tbool _isAOContentUsageType\n\t) public isActive inWhitelist(msg.sender) returns (bool) {\n\n\t\t// Split the payment earning between content creator and host and store them in escrow\n\t\t_escrowPaymentEarning(_buyer, _purchaseId, _networkAmountStaked.add(_primordialAmountStaked), _profitPercentage, _stakeOwner, _host, _isAOContentUsageType);\n\n\t\t// Calculate the inflation bonus earning for content creator/node/foundation in escrow\n\t\t_escrowInflationBonus(_purchaseId, _calculateInflationBonus(_networkAmountStaked, _primordialAmountStaked, _primordialWeightedMultiplierStaked), _profitPercentage, _stakeOwner, _host, _isAOContentUsageType);\n\n\t\t// Reward the content creator/stake owner with some Pathos\n\t\trequire (_pathos.mintToken(_nameFactory.ethAddressToNameId(_stakeOwner), _networkAmountStaked.add(_primordialAmountStaked)));\n\t\temit PathosEarned(_nameFactory.ethAddressToNameId(_stakeOwner), _purchaseId, _networkAmountStaked.add(_primordialAmountStaked));\n\n\t\t// Reward the host with some AntiLogos\n\t\trequire (_antiLogos.mintToken(_nameFactory.ethAddressToNameId(_host), _fileSize));\n\t\temit AntiLogosEarned(_nameFactory.ethAddressToNameId(_host), _purchaseId, _fileSize);\n\t\treturn true;\n\t}\n\n\t/**\n\t * @dev Release the payment earning and inflation bonus that is in escrow for specific purchase ID\n\t * @param _stakeId The ID of the staked content\n\t * @param _contentHostId The ID of the hosted content\n\t * @param _purchaseId The purchase receipt ID to check\n\t * @param _buyerPaidAmount The request node paid amount when buying the content\n\t * @param _fileSize The size of the content\n\t * @param _stakeOwner The address of the stake owner\n\t * @param _host The address of the node that host the file\n\t * @return true on success\n\t */\n\tfunction releaseEarning(bytes32 _stakeId, bytes32 _contentHostId, bytes32 _purchaseId, uint256 _buyerPaidAmount, uint256 _fileSize, address _stakeOwner, address _host) public isActive inWhitelist(msg.sender) returns (bool) {\n\t\t// Release the earning in escrow for stake owner\n\t\t_releaseEarning(_stakeId, _contentHostId, _purchaseId, _buyerPaidAmount, _fileSize, _stakeOwner, 0);\n\n\t\t// Release the earning in escrow for host\n\t\t_releaseEarning(_stakeId, _contentHostId, _purchaseId, _buyerPaidAmount, _fileSize, _host, 1);\n\n\t\t// Release the earning in escrow for foundation\n\t\t_releaseEarning(_stakeId, _contentHostId, _purchaseId, _buyerPaidAmount, _fileSize, developer, 2);\n\t\treturn true;\n\t}\n\n\t/***** INTERNAL METHODS *****/\n\t/**\n\t * @dev Calculate the payment split for content creator/host and store them in escrow\n\t * @param _buyer the request node address that buys the content\n\t * @param _purchaseId The ID of the purchase receipt object\n\t * @param _totalStaked The total staked amount of the content\n\t * @param _profitPercentage The content creator's profit percentage\n\t * @param _stakeOwner The address of the stake owner\n\t * @param _host The address of the host\n\t * @param _isAOContentUsageType whether or not the content is of AO Content Usage Type\n\t */\n\tfunction _escrowPaymentEarning(address _buyer, bytes32 _purchaseId, uint256 _totalStaked, uint256 _profitPercentage, address _stakeOwner, address _host, bool _isAOContentUsageType) internal {\n\t\t// Store how much the content creator (stake owner) earns in escrow\n\t\t// If content is AO Content Usage Type, stake owner earns 0%\n\t\t// and all profit goes to the serving host node\n\t\tuint256 _stakeOwnerEarning = _isAOContentUsageType ? (_totalStaked.mul(_profitPercentage)).div(AOLibrary.PERCENTAGE_DIVISOR()) : 0;\n\t\tEarning storage _stakeEarning = stakeEarnings[_stakeOwner][_purchaseId];\n\t\t_stakeEarning.purchaseId = _purchaseId;\n\t\t_stakeEarning.paymentEarning = _stakeOwnerEarning;\n\t\trequire (_baseAO.escrowFrom(_buyer, _stakeOwner, _stakeEarning.paymentEarning));\n\t\temit PaymentEarningEscrowed(_stakeOwner, _purchaseId, _totalStaked, _profitPercentage, _stakeEarning.paymentEarning, 0);\n\n\t\t// Store how much the node host earns in escrow\n\t\tEarning storage _hostEarning = hostEarnings[_host][_purchaseId];\n\t\t_hostEarning.purchaseId = _purchaseId;\n\t\t_hostEarning.paymentEarning = _totalStaked.sub(_stakeOwnerEarning);\n\t\tif (_isAOContentUsageType) {\n\t\t\trequire (_baseAO.escrowFrom(_buyer, _host, _hostEarning.paymentEarning));\n\t\t} else {\n\t\t\t// If not AO Content usage type, we want to mint to the host\n\t\t\trequire (_baseAO.mintTokenEscrow(_host, _hostEarning.paymentEarning));\n\t\t}\n\t\temit PaymentEarningEscrowed(_host, _purchaseId, _totalStaked, AOLibrary.PERCENTAGE_DIVISOR().sub(_profitPercentage), _hostEarning.paymentEarning, 1);\n\t}\n\n\t/**\n\t * @dev Calculate the inflation bonus amount\n\t * @param _networkAmountStaked The amount of network tokens at stake\n\t * @param _primordialAmountStaked The amount of primordial tokens at stake\n\t * @param _primordialWeightedMultiplierStaked The weighted multiplier of primordial tokens at stake\n\t * @return the bonus network amount\n\t */\n\tfunction _calculateInflationBonus(uint256 _networkAmountStaked, uint256 _primordialAmountStaked, uint256 _primordialWeightedMultiplierStaked) internal view returns (uint256) {\n\t\t(uint256 inflationRate,) = _getSettingVariables();\n\n\t\tuint256 _networkBonus = _networkAmountStaked.mul(inflationRate).div(AOLibrary.PERCENTAGE_DIVISOR());\n\t\tuint256 _primordialBonus = _primordialAmountStaked.mul(_primordialWeightedMultiplierStaked).div(AOLibrary.MULTIPLIER_DIVISOR()).mul(inflationRate).div(AOLibrary.PERCENTAGE_DIVISOR());\n\t\treturn _networkBonus.add(_primordialBonus);\n\t}\n\n\t/**\n\t * @dev Mint the inflation bonus for content creator/host/foundation and store them in escrow\n\t * @param _purchaseId The ID of the purchase receipt object\n\t * @param _inflationBonusAmount The amount of inflation bonus earning\n\t * @param _profitPercentage The content creator's profit percentage\n\t * @param _stakeOwner The address of the stake owner\n\t * @param _host The address of the host\n\t * @param _isAOContentUsageType whether or not the content is of AO Content Usage Type\n\t */\n\tfunction _escrowInflationBonus(\n\t\tbytes32 _purchaseId,\n\t\tuint256 _inflationBonusAmount,\n\t\tuint256 _profitPercentage,\n\t\taddress _stakeOwner,\n\t\taddress _host,\n\t\tbool _isAOContentUsageType\n\t) internal {\n\t\t(, uint256 foundationCut) = _getSettingVariables();\n\n\t\tif (_inflationBonusAmount > 0) {\n\t\t\t// Store how much the content creator earns in escrow\n\t\t\tuint256 _stakeOwnerInflationBonus = _isAOContentUsageType ? (_inflationBonusAmount.mul(_profitPercentage)).div(AOLibrary.PERCENTAGE_DIVISOR()) : 0;\n\t\t\tEarning storage _stakeEarning = stakeEarnings[_stakeOwner][_purchaseId];\n\t\t\t_stakeEarning.inflationBonus = _stakeOwnerInflationBonus;\n\t\t\trequire (_baseAO.mintTokenEscrow(_stakeOwner, _stakeEarning.inflationBonus));\n\t\t\temit InflationBonusEscrowed(_stakeOwner, _purchaseId, _inflationBonusAmount, _profitPercentage, _stakeEarning.inflationBonus, 0);\n\n\t\t\t// Store how much the host earns in escrow\n\t\t\tEarning storage _hostEarning = hostEarnings[_host][_purchaseId];\n\t\t\t_hostEarning.inflationBonus = _inflationBonusAmount.sub(_stakeOwnerInflationBonus);\n\t\t\trequire (_baseAO.mintTokenEscrow(_host, _hostEarning.inflationBonus));\n\t\t\temit InflationBonusEscrowed(_host, _purchaseId, _inflationBonusAmount, AOLibrary.PERCENTAGE_DIVISOR().sub(_profitPercentage), _hostEarning.inflationBonus, 1);\n\n\t\t\t// Store how much the foundation earns in escrow\n\t\t\tEarning storage _foundationEarning = foundationEarnings[_purchaseId];\n\t\t\t_foundationEarning.purchaseId = _purchaseId;\n\t\t\t_foundationEarning.inflationBonus = (_inflationBonusAmount.mul(foundationCut)).div(AOLibrary.PERCENTAGE_DIVISOR());\n\t\t\trequire (_baseAO.mintTokenEscrow(developer, _foundationEarning.inflationBonus));\n\t\t\temit InflationBonusEscrowed(developer, _purchaseId, _inflationBonusAmount, foundationCut, _foundationEarning.inflationBonus, 2);\n\t\t} else {\n\t\t\temit InflationBonusEscrowed(_stakeOwner, _purchaseId, 0, _profitPercentage, 0, 0);\n\t\t\temit InflationBonusEscrowed(_host, _purchaseId, 0, AOLibrary.PERCENTAGE_DIVISOR().sub(_profitPercentage), 0, 1);\n\t\t\temit InflationBonusEscrowed(developer, _purchaseId, 0, foundationCut, 0, 2);\n\t\t}\n\t}\n\n\t/**\n\t * @dev Release the escrowed earning for a specific purchase ID for an account\n\t * @param _stakeId The ID of the staked content\n\t * @param _contentHostId The ID of the hosted content\n\t * @param _purchaseId The purchase receipt ID\n\t * @param _buyerPaidAmount The request node paid amount when buying the content\n\t * @param _fileSize The size of the content\n\t * @param _account The address of account that made the earning (content creator/host)\n\t * @param _recipientType The type of the earning recipient (0 => content creator. 1 => host. 2 => foundation)\n\t */\n\tfunction _releaseEarning(bytes32 _stakeId, bytes32 _contentHostId, bytes32 _purchaseId, uint256 _buyerPaidAmount, uint256 _fileSize, address _account, uint8 _recipientType) internal {\n\t\t// Make sure the recipient type is valid\n\t\trequire (_recipientType >= 0 && _recipientType <= 2);\n\n\t\tuint256 _paymentEarning;\n\t\tuint256 _inflationBonus;\n\t\tuint256 _totalEarning;\n\t\tif (_recipientType == 0) {\n\t\t\tEarning storage _earning = stakeEarnings[_account][_purchaseId];\n\t\t\t_paymentEarning = _earning.paymentEarning;\n\t\t\t_inflationBonus = _earning.inflationBonus;\n\t\t\t_earning.paymentEarning = 0;\n\t\t\t_earning.inflationBonus = 0;\n\t\t\t_totalEarning = _paymentEarning.add(_inflationBonus);\n\n\t\t\t// Update the global var settings\n\t\t\ttotalStakeContentEarning = totalStakeContentEarning.add(_totalEarning);\n\t\t\tstakeContentEarning[_account] = stakeContentEarning[_account].add(_totalEarning);\n\t\t\ttotalStakedContentStakeEarning[_stakeId] = totalStakedContentStakeEarning[_stakeId].add(_totalEarning);\n\t\t\tif (_buyerPaidAmount > _fileSize) {\n\t\t\t\tcontentPriceEarning[_account] = contentPriceEarning[_account].add(_totalEarning);\n\t\t\t} else {\n\t\t\t\tnetworkPriceEarning[_account] = networkPriceEarning[_account].add(_totalEarning);\n\t\t\t}\n\t\t\tinflationBonusAccrued[_account] = inflationBonusAccrued[_account].add(_inflationBonus);\n\t\t} else if (_recipientType == 1) {\n\t\t\t_earning = hostEarnings[_account][_purchaseId];\n\t\t\t_paymentEarning = _earning.paymentEarning;\n\t\t\t_inflationBonus = _earning.inflationBonus;\n\t\t\t_earning.paymentEarning = 0;\n\t\t\t_earning.inflationBonus = 0;\n\t\t\t_totalEarning = _paymentEarning.add(_inflationBonus);\n\n\t\t\t// Update the global var settings\n\t\t\ttotalHostContentEarning = totalHostContentEarning.add(_totalEarning);\n\t\t\thostContentEarning[_account] = hostContentEarning[_account].add(_totalEarning);\n\t\t\ttotalStakedContentHostEarning[_stakeId] = totalStakedContentHostEarning[_stakeId].add(_totalEarning);\n\t\t\ttotalHostContentEarningById[_contentHostId] = totalHostContentEarningById[_contentHostId].add(_totalEarning);\n\t\t\tif (_buyerPaidAmount > _fileSize) {\n\t\t\t\tcontentPriceEarning[_account] = contentPriceEarning[_account].add(_totalEarning);\n\t\t\t} else {\n\t\t\t\tnetworkPriceEarning[_account] = networkPriceEarning[_account].add(_totalEarning);\n\t\t\t}\n\t\t\tinflationBonusAccrued[_account] = inflationBonusAccrued[_account].add(_inflationBonus);\n\t\t} else {\n\t\t\t_earning = foundationEarnings[_purchaseId];\n\t\t\t_paymentEarning = _earning.paymentEarning;\n\t\t\t_inflationBonus = _earning.inflationBonus;\n\t\t\t_earning.paymentEarning = 0;\n\t\t\t_earning.inflationBonus = 0;\n\t\t\t_totalEarning = _paymentEarning.add(_inflationBonus);\n\n\t\t\t// Update the global var settings\n\t\t\ttotalFoundationEarning = totalFoundationEarning.add(_totalEarning);\n\t\t\tinflationBonusAccrued[_account] = inflationBonusAccrued[_account].add(_inflationBonus);\n\t\t\ttotalStakedContentFoundationEarning[_stakeId] = totalStakedContentFoundationEarning[_stakeId].add(_totalEarning);\n\t\t}\n\t\trequire (_baseAO.unescrowFrom(_account, _totalEarning));\n\t\temit EarningUnescrowed(_account, _purchaseId, _paymentEarning, _inflationBonus, _recipientType);\n\t}\n\n\t/**\n\t * @dev Get setting variables\n\t * @return inflationRate The rate to use when calculating inflation bonus\n\t * @return foundationCut The rate to use when calculation the foundation earning\n\t */\n\tfunction _getSettingVariables() internal view returns (uint256, uint256) {\n\t\t(uint256 inflationRate,,,,) = _aoSetting.getSettingValuesByTAOName(settingTAOId, 'inflationRate');\n\t\t(uint256 foundationCut,,,,) = _aoSetting.getSettingValuesByTAOName(settingTAOId, 'foundationCut');\n\t\treturn (inflationRate, foundationCut);\n\t}\n}\n",
	"sourcePath": "/Users/neilharlow/development/ao-contracts/contracts/AOEarning.sol",
	"compiler": {
		"name": "solc",
		"version": "0.4.24+commit.e67f0147.Emscripten.clang"
	},
	"schemaVersion": "2.0.1",
	"updatedAt": "2019-01-07T19:52:25.632Z"
}