{
	"contractName": "AOEarning",
	"abi": [
		{
			"constant": true,
			"inputs": [],
			"name": "totalFoundationEarning",
			"outputs": [
				{
					"name": "",
					"type": "uint256"
				}
			],
			"payable": false,
			"stateMutability": "view",
			"type": "function"
		},
		{
			"constant": true,
			"inputs": [],
			"name": "aoDevTeam1",
			"outputs": [
				{
					"name": "",
					"type": "address"
				}
			],
			"payable": false,
			"stateMutability": "view",
			"type": "function"
		},
		{
			"constant": true,
			"inputs": [],
			"name": "aoSettingAddress",
			"outputs": [
				{
					"name": "",
					"type": "address"
				}
			],
			"payable": false,
			"stateMutability": "view",
			"type": "function"
		},
		{
			"constant": true,
			"inputs": [],
			"name": "killed",
			"outputs": [
				{
					"name": "",
					"type": "bool"
				}
			],
			"payable": false,
			"stateMutability": "view",
			"type": "function"
		},
		{
			"constant": true,
			"inputs": [
				{
					"name": "",
					"type": "bytes32"
				}
			],
			"name": "foundationEarnings",
			"outputs": [
				{
					"name": "purchaseId",
					"type": "bytes32"
				},
				{
					"name": "paymentEarning",
					"type": "uint256"
				},
				{
					"name": "inflationBonus",
					"type": "uint256"
				}
			],
			"payable": false,
			"stateMutability": "view",
			"type": "function"
		},
		{
			"constant": true,
			"inputs": [],
			"name": "settingThoughtId",
			"outputs": [
				{
					"name": "",
					"type": "address"
				}
			],
			"payable": false,
			"stateMutability": "view",
			"type": "function"
		},
		{
			"constant": true,
			"inputs": [
				{
					"name": "",
					"type": "address"
				}
			],
			"name": "hostContentEarning",
			"outputs": [
				{
					"name": "",
					"type": "uint256"
				}
			],
			"payable": false,
			"stateMutability": "view",
			"type": "function"
		},
		{
			"constant": true,
			"inputs": [],
			"name": "pathosAddress",
			"outputs": [
				{
					"name": "",
					"type": "address"
				}
			],
			"payable": false,
			"stateMutability": "view",
			"type": "function"
		},
		{
			"constant": false,
			"inputs": [
				{
					"name": "_account",
					"type": "address"
				},
				{
					"name": "_whitelist",
					"type": "bool"
				}
			],
			"name": "setWhitelist",
			"outputs": [],
			"payable": false,
			"stateMutability": "nonpayable",
			"type": "function"
		},
		{
			"constant": true,
			"inputs": [
				{
					"name": "",
					"type": "address"
				}
			],
			"name": "networkPriceEarning",
			"outputs": [
				{
					"name": "",
					"type": "uint256"
				}
			],
			"payable": false,
			"stateMutability": "view",
			"type": "function"
		},
		{
			"constant": true,
			"inputs": [],
			"name": "paused",
			"outputs": [
				{
					"name": "",
					"type": "bool"
				}
			],
			"payable": false,
			"stateMutability": "view",
			"type": "function"
		},
		{
			"constant": true,
			"inputs": [
				{
					"name": "",
					"type": "bytes32"
				}
			],
			"name": "totalHostContentEarningById",
			"outputs": [
				{
					"name": "",
					"type": "uint256"
				}
			],
			"payable": false,
			"stateMutability": "view",
			"type": "function"
		},
		{
			"constant": true,
			"inputs": [
				{
					"name": "",
					"type": "address"
				},
				{
					"name": "",
					"type": "bytes32"
				}
			],
			"name": "hostEarnings",
			"outputs": [
				{
					"name": "purchaseId",
					"type": "bytes32"
				},
				{
					"name": "paymentEarning",
					"type": "uint256"
				},
				{
					"name": "inflationBonus",
					"type": "uint256"
				}
			],
			"payable": false,
			"stateMutability": "view",
			"type": "function"
		},
		{
			"constant": true,
			"inputs": [
				{
					"name": "",
					"type": "bytes32"
				}
			],
			"name": "totalStakedContentStakeEarning",
			"outputs": [
				{
					"name": "",
					"type": "uint256"
				}
			],
			"payable": false,
			"stateMutability": "view",
			"type": "function"
		},
		{
			"constant": true,
			"inputs": [
				{
					"name": "",
					"type": "address"
				}
			],
			"name": "whitelist",
			"outputs": [
				{
					"name": "",
					"type": "bool"
				}
			],
			"payable": false,
			"stateMutability": "view",
			"type": "function"
		},
		{
			"constant": true,
			"inputs": [
				{
					"name": "",
					"type": "address"
				}
			],
			"name": "contentPriceEarning",
			"outputs": [
				{
					"name": "",
					"type": "uint256"
				}
			],
			"payable": false,
			"stateMutability": "view",
			"type": "function"
		},
		{
			"constant": true,
			"inputs": [
				{
					"name": "",
					"type": "address"
				}
			],
			"name": "inflationBonusAccrued",
			"outputs": [
				{
					"name": "",
					"type": "uint256"
				}
			],
			"payable": false,
			"stateMutability": "view",
			"type": "function"
		},
		{
			"constant": true,
			"inputs": [],
			"name": "aoDevTeam2",
			"outputs": [
				{
					"name": "",
					"type": "address"
				}
			],
			"payable": false,
			"stateMutability": "view",
			"type": "function"
		},
		{
			"constant": true,
			"inputs": [
				{
					"name": "",
					"type": "bytes32"
				}
			],
			"name": "totalStakedContentHostEarning",
			"outputs": [
				{
					"name": "",
					"type": "uint256"
				}
			],
			"payable": false,
			"stateMutability": "view",
			"type": "function"
		},
		{
			"constant": false,
			"inputs": [
				{
					"name": "_aoDevTeam1",
					"type": "address"
				},
				{
					"name": "_aoDevTeam2",
					"type": "address"
				}
			],
			"name": "setAODevTeamAddresses",
			"outputs": [],
			"payable": false,
			"stateMutability": "nonpayable",
			"type": "function"
		},
		{
			"constant": true,
			"inputs": [
				{
					"name": "",
					"type": "address"
				}
			],
			"name": "stakeContentEarning",
			"outputs": [
				{
					"name": "",
					"type": "uint256"
				}
			],
			"payable": false,
			"stateMutability": "view",
			"type": "function"
		},
		{
			"constant": true,
			"inputs": [],
			"name": "baseDenominationAddress",
			"outputs": [
				{
					"name": "",
					"type": "address"
				}
			],
			"payable": false,
			"stateMutability": "view",
			"type": "function"
		},
		{
			"constant": true,
			"inputs": [],
			"name": "treasuryAddress",
			"outputs": [
				{
					"name": "",
					"type": "address"
				}
			],
			"payable": false,
			"stateMutability": "view",
			"type": "function"
		},
		{
			"constant": true,
			"inputs": [],
			"name": "developer",
			"outputs": [
				{
					"name": "",
					"type": "address"
				}
			],
			"payable": false,
			"stateMutability": "view",
			"type": "function"
		},
		{
			"constant": true,
			"inputs": [],
			"name": "totalHostContentEarning",
			"outputs": [
				{
					"name": "",
					"type": "uint256"
				}
			],
			"payable": false,
			"stateMutability": "view",
			"type": "function"
		},
		{
			"constant": true,
			"inputs": [],
			"name": "antiLogosAddress",
			"outputs": [
				{
					"name": "",
					"type": "address"
				}
			],
			"payable": false,
			"stateMutability": "view",
			"type": "function"
		},
		{
			"constant": true,
			"inputs": [
				{
					"name": "",
					"type": "bytes32"
				}
			],
			"name": "totalStakedContentFoundationEarning",
			"outputs": [
				{
					"name": "",
					"type": "uint256"
				}
			],
			"payable": false,
			"stateMutability": "view",
			"type": "function"
		},
		{
			"constant": true,
			"inputs": [
				{
					"name": "",
					"type": "address"
				},
				{
					"name": "",
					"type": "bytes32"
				}
			],
			"name": "stakeEarnings",
			"outputs": [
				{
					"name": "purchaseId",
					"type": "bytes32"
				},
				{
					"name": "paymentEarning",
					"type": "uint256"
				},
				{
					"name": "inflationBonus",
					"type": "uint256"
				}
			],
			"payable": false,
			"stateMutability": "view",
			"type": "function"
		},
		{
			"constant": true,
			"inputs": [],
			"name": "totalStakeContentEarning",
			"outputs": [
				{
					"name": "",
					"type": "uint256"
				}
			],
			"payable": false,
			"stateMutability": "view",
			"type": "function"
		},
		{
			"constant": false,
			"inputs": [
				{
					"name": "newDeveloper",
					"type": "address"
				}
			],
			"name": "transferOwnership",
			"outputs": [],
			"payable": false,
			"stateMutability": "nonpayable",
			"type": "function"
		},
		{
			"inputs": [
				{
					"name": "_settingThoughtId",
					"type": "address"
				},
				{
					"name": "_aoSettingAddress",
					"type": "address"
				},
				{
					"name": "_baseDenominationAddress",
					"type": "address"
				},
				{
					"name": "_treasuryAddress",
					"type": "address"
				},
				{
					"name": "_pathosAddress",
					"type": "address"
				},
				{
					"name": "_antiLogosAddress",
					"type": "address"
				}
			],
			"payable": false,
			"stateMutability": "nonpayable",
			"type": "constructor"
		},
		{
			"anonymous": false,
			"inputs": [
				{
					"indexed": true,
					"name": "recipient",
					"type": "address"
				},
				{
					"indexed": true,
					"name": "purchaseId",
					"type": "bytes32"
				},
				{
					"indexed": false,
					"name": "totalInflationBonusAmount",
					"type": "uint256"
				},
				{
					"indexed": false,
					"name": "recipientProfitPercentage",
					"type": "uint256"
				},
				{
					"indexed": false,
					"name": "recipientInflationBonus",
					"type": "uint256"
				},
				{
					"indexed": false,
					"name": "recipientType",
					"type": "uint8"
				}
			],
			"name": "InflationBonusEscrowed",
			"type": "event"
		},
		{
			"anonymous": false,
			"inputs": [
				{
					"indexed": true,
					"name": "recipient",
					"type": "address"
				},
				{
					"indexed": true,
					"name": "purchaseId",
					"type": "bytes32"
				},
				{
					"indexed": false,
					"name": "totalPaymentAmount",
					"type": "uint256"
				},
				{
					"indexed": false,
					"name": "recipientProfitPercentage",
					"type": "uint256"
				},
				{
					"indexed": false,
					"name": "recipientPaymentEarning",
					"type": "uint256"
				},
				{
					"indexed": false,
					"name": "recipientType",
					"type": "uint8"
				}
			],
			"name": "PaymentEarningEscrowed",
			"type": "event"
		},
		{
			"anonymous": false,
			"inputs": [
				{
					"indexed": true,
					"name": "recipient",
					"type": "address"
				},
				{
					"indexed": true,
					"name": "purchaseId",
					"type": "bytes32"
				},
				{
					"indexed": false,
					"name": "paymentEarning",
					"type": "uint256"
				},
				{
					"indexed": false,
					"name": "inflationBonus",
					"type": "uint256"
				},
				{
					"indexed": false,
					"name": "recipientType",
					"type": "uint8"
				}
			],
			"name": "EarningUnescrowed",
			"type": "event"
		},
		{
			"anonymous": false,
			"inputs": [
				{
					"indexed": true,
					"name": "stakeOwner",
					"type": "address"
				},
				{
					"indexed": true,
					"name": "purchaseId",
					"type": "bytes32"
				},
				{
					"indexed": false,
					"name": "amount",
					"type": "uint256"
				}
			],
			"name": "PathosEarned",
			"type": "event"
		},
		{
			"anonymous": false,
			"inputs": [
				{
					"indexed": true,
					"name": "host",
					"type": "address"
				},
				{
					"indexed": true,
					"name": "purchaseId",
					"type": "bytes32"
				},
				{
					"indexed": false,
					"name": "amount",
					"type": "uint256"
				}
			],
			"name": "AntiLogosEarned",
			"type": "event"
		},
		{
			"anonymous": false,
			"inputs": [],
			"name": "EscapeHatch",
			"type": "event"
		},
		{
			"constant": false,
			"inputs": [
				{
					"name": "_paused",
					"type": "bool"
				}
			],
			"name": "setPaused",
			"outputs": [],
			"payable": false,
			"stateMutability": "nonpayable",
			"type": "function"
		},
		{
			"constant": false,
			"inputs": [
				{
					"name": "_newBaseDenominationAddress",
					"type": "address"
				}
			],
			"name": "setBaseDenominationAddress",
			"outputs": [],
			"payable": false,
			"stateMutability": "nonpayable",
			"type": "function"
		},
		{
			"constant": false,
			"inputs": [],
			"name": "escapeHatch",
			"outputs": [],
			"payable": false,
			"stateMutability": "nonpayable",
			"type": "function"
		},
		{
			"constant": false,
			"inputs": [
				{
					"name": "_buyer",
					"type": "address"
				},
				{
					"name": "_purchaseId",
					"type": "bytes32"
				},
				{
					"name": "_networkAmountStaked",
					"type": "uint256"
				},
				{
					"name": "_primordialAmountStaked",
					"type": "uint256"
				},
				{
					"name": "_primordialWeightedMultiplierStaked",
					"type": "uint256"
				},
				{
					"name": "_profitPercentage",
					"type": "uint256"
				},
				{
					"name": "_fileSize",
					"type": "uint256"
				},
				{
					"name": "_stakeOwner",
					"type": "address"
				},
				{
					"name": "_host",
					"type": "address"
				},
				{
					"name": "_isAOContentUsageType",
					"type": "bool"
				}
			],
			"name": "calculateEarning",
			"outputs": [
				{
					"name": "",
					"type": "bool"
				}
			],
			"payable": false,
			"stateMutability": "nonpayable",
			"type": "function"
		},
		{
			"constant": false,
			"inputs": [
				{
					"name": "_stakeId",
					"type": "bytes32"
				},
				{
					"name": "_contentHostId",
					"type": "bytes32"
				},
				{
					"name": "_purchaseId",
					"type": "bytes32"
				},
				{
					"name": "_buyerPaidAmount",
					"type": "uint256"
				},
				{
					"name": "_fileSize",
					"type": "uint256"
				},
				{
					"name": "_stakeOwner",
					"type": "address"
				},
				{
					"name": "_host",
					"type": "address"
				}
			],
			"name": "releaseEarning",
			"outputs": [
				{
					"name": "",
					"type": "bool"
				}
			],
			"payable": false,
			"stateMutability": "nonpayable",
			"type": "function"
		}
	],
	"bytecode": "0x608060405260018054600160a060020a0319908116735c63644d01ba385ebac5bcf2ddc1e6dbc1182b52179091556002805490911673156c79bf4347d1891da834ea30662a14177cbf2817905534801561005857600080fd5b5060405160c0806123fe83398101604090815281516020830151918301516060840151608085015160a0909501516000805433600160a060020a0319918216178255600480546201000060b060020a03191662010000600160a060020a0398891602179055600580548216978716978817905560068054821695871695861790556007805482169487169485179055600880548216988716988917905560098054821696909316958617909255600e80548316909617909555600a80548216909317909255600b805483169091179055600c80548216909417909355600d8054909316179091556122af90819061014f90396000f30060806040526004361061019d5763ffffffff60e060020a6000350416630292f88a81146101a2578063067fe001146101c557806315227aa7146101ec5780631554611f1461021d57806316c38b3c146102325780631d0138ff1461024c5780631f3a0e41146102615780633bac2fac1461028a5780633e198735146102c057806341f7e8dc146102d55780634486ab0a146102f657806353d6fd591461030b578063552318e0146103315780635c975abb1461035257806367d3bfe0146103675780636834a8571461037f578063715eb5bc146103a35780638bca51c9146103d95780639587085d146104255780639b19251a1461043d578063a7a5f7731461045e578063a832ebda1461047f578063a99433a6146104a0578063aace426d146104b5578063b24626e9146104cd578063bfeacddb146104f4578063c44a079514610515578063c5f956af1461052a578063ca4b208b1461053f578063cba17a2b14610554578063d4df5eca14610569578063e957a85b1461057e578063e9f4529d14610596578063edac5f44146105ba578063f2fde38b146105cf575b600080fd5b3480156101ae57600080fd5b506101c3600160a060020a03600435166105f0565b005b3480156101d157600080fd5b506101da610730565b60408051918252519081900360200190f35b3480156101f857600080fd5b50610201610736565b60408051600160a060020a039092168252519081900360200190f35b34801561022957600080fd5b506101c3610745565b34801561023e57600080fd5b506101c360043515156107ab565b34801561025857600080fd5b506102016107d5565b34801561026d57600080fd5b506102766107e4565b604080519115158252519081900360200190f35b34801561029657600080fd5b506102a26004356107f2565b60408051938452602084019290925282820152519081900360600190f35b3480156102cc57600080fd5b50610201610813565b3480156102e157600080fd5b506101da600160a060020a0360043516610828565b34801561030257600080fd5b5061020161083a565b34801561031757600080fd5b506101c3600160a060020a03600435166024351515610849565b34801561033d57600080fd5b506101da600160a060020a036004351661088b565b34801561035e57600080fd5b5061027661089d565b34801561037357600080fd5b506101da6004356108a6565b34801561038b57600080fd5b506102a2600160a060020a03600435166024356108b8565b3480156103af57600080fd5b50610276600435602435604435606435608435600160a060020a0360a43581169060c435166108e4565b3480156103e557600080fd5b50610276600160a060020a036004358116906024359060443590606435906084359060a4359060c4359060e4358116906101043516610124351515610998565b34801561043157600080fd5b506101da600435610c22565b34801561044957600080fd5b50610276600160a060020a0360043516610c34565b34801561046a57600080fd5b506101da600160a060020a0360043516610c49565b34801561048b57600080fd5b506101da600160a060020a0360043516610c5b565b3480156104ac57600080fd5b50610201610c6d565b3480156104c157600080fd5b506101da600435610c7c565b3480156104d957600080fd5b506101c3600160a060020a0360043581169060243516610c8e565b34801561050057600080fd5b506101da600160a060020a0360043516610ce0565b34801561052157600080fd5b50610201610cf2565b34801561053657600080fd5b50610201610d01565b34801561054b57600080fd5b50610201610d10565b34801561056057600080fd5b506101da610d1f565b34801561057557600080fd5b50610201610d25565b34801561058a57600080fd5b506101da600435610d34565b3480156105a257600080fd5b506102a2600160a060020a0360043516602435610d46565b3480156105c657600080fd5b506101da610d72565b3480156105db57600080fd5b506101c3600160a060020a0360043516610d78565b600054600160a060020a0316331461060757600080fd5b80600160a060020a0316630aa245466040518163ffffffff1660e060020a028152600401602060405180830381600087803b15801561064557600080fd5b505af1158015610659573d6000803e3d6000fd5b505050506040513d602081101561066f57600080fd5b50511580156106e9575080600160a060020a031663ba2f81706040518163ffffffff1660e060020a028152600401602060405180830381600087803b1580156106b757600080fd5b505af11580156106cb573d6000803e3d6000fd5b505050506040513d60208110156106e157600080fd5b505115156001145b15156106f457600080fd5b6006805473ffffffffffffffffffffffffffffffffffffffff19908116600160a060020a039384161791829055600a8054929093169116179055565b60115481565b600154600160a060020a031681565b600054600160a060020a0316331461075c57600080fd5b600454610100900460ff161561077157600080fd5b6004805461ff0019166101001790556040517f16ed36fbe43aed6ba7426b24d35620696380d398f2f22f918dd74e4d3e0ceef990600090a1565b600054600160a060020a031633146107c257600080fd5b6004805460ff1916911515919091179055565b600554600160a060020a031681565b600454610100900460ff1681565b60196020526000908152604090208054600182015460029092015490919083565b600454620100009004600160a060020a031681565b60136020526000908152604090205481565b600854600160a060020a031681565b600054600160a060020a0316331461086057600080fd5b600160a060020a03919091166000908152600360205260409020805460ff1916911515919091179055565b60146020526000908152604090205481565b60045460ff1681565b601d6020526000908152604090205481565b601860209081526000928352604080842090915290825290208054600182015460029092015490919083565b60045460009060ff161580156109025750600454610100900460ff16155b151561090d57600080fd5b3360008181526003602052604090205460ff1615156001148061093d5750600054600160a060020a038281169116145b151561094857600080fd5b6109588989898989896000610dbe565b6109688989898989886001610dbe565b600054610989908a908a908a908a908a90600160a060020a03166002610dbe565b50600198975050505050505050565b60045460009060ff161580156109b65750600454610100900460ff16155b15156109c157600080fd5b3360008181526003602052604090205460ff161515600114806109f15750600054600160a060020a038281169116145b15156109fc57600080fd5b610a1a8c8c610a118d8d63ffffffff6112a816565b8a8989896112bb565b610a328b610a298c8c8c61176b565b8988888861194e565b600c54600160a060020a03166379c6506886610a548d8d63ffffffff6112a816565b6040518363ffffffff1660e060020a0281526004018083600160a060020a0316600160a060020a0316815260200182815260200192505050602060405180830381600087803b158015610aa657600080fd5b505af1158015610aba573d6000803e3d6000fd5b505050506040513d6020811015610ad057600080fd5b50511515610add57600080fd5b8a600160a060020a0386167f21c3387baaff2d916ae2cd1669d5f94fe9583036b96ef82acb3a4565815cfce8610b198d8d63ffffffff6112a816565b60408051918252519081900360200190a3600d54604080517f79c65068000000000000000000000000000000000000000000000000000000008152600160a060020a038781166004830152602482018a9052915191909216916379c650689160448083019260209291908290030181600087803b158015610b9957600080fd5b505af1158015610bad573d6000803e3d6000fd5b505050506040513d6020811015610bc357600080fd5b50511515610bd057600080fd5b6040805187815290518c91600160a060020a038716917f0f01591b2e29fe2fdc2ca7f2ce1f4586e3a4623f9ba5c2df95f01284d921f6d69181900360200190a35060019b9a5050505050505050505050565b601a6020526000908152604090205481565b60036020526000908152604090205460ff1681565b60156020526000908152604090205481565b60166020526000908152604090205481565b600254600160a060020a031681565b601b6020526000908152604090205481565b600054600160a060020a03163314610ca557600080fd5b60018054600160a060020a0393841673ffffffffffffffffffffffffffffffffffffffff199182161790915560028054929093169116179055565b60126020526000908152604090205481565b600654600160a060020a031681565b600754600160a060020a031681565b600054600160a060020a031681565b60105481565b600954600160a060020a031681565b601c6020526000908152604090205481565b601760209081526000928352604080842090915290825290208054600182015460029092015490919083565b600f5481565b600054600160a060020a03163314610d8f57600080fd5b6000805473ffffffffffffffffffffffffffffffffffffffff1916600160a060020a0392909216919091179055565b60008060008060008560ff1610158015610ddc575060028560ff1611155b1515610de757600080fd5b60ff85161515610fa15750600160a060020a03851660009081526017602090815260408083208b845290915281206001810180546002830180549285905593909355919450909250610e3f848463ffffffff6112a816565b600f54909250610e55908363ffffffff6112a816565b600f55600160a060020a038616600090815260126020526040902054610e81908363ffffffff6112a816565b600160a060020a0387166000908152601260209081526040808320939093558d8252601a90522054610eb9908363ffffffff6112a816565b60008c8152601a602052604090205586881115610f1757600160a060020a038616600090815260156020526040902054610ef9908363ffffffff6112a816565b600160a060020a038716600090815260156020526040902055610f5a565b600160a060020a038616600090815260146020526040902054610f40908363ffffffff6112a816565b600160a060020a0387166000908152601460205260409020555b600160a060020a038616600090815260166020526040902054610f83908463ffffffff6112a816565b600160a060020a0387166000908152601660205260409020556111a6565b8460ff16600114156110e35750600160a060020a03851660009081526018602090815260408083208b845290915281206001810180546002830180549285905593909355919450909250610ffb848463ffffffff6112a816565b601054909250611011908363ffffffff6112a816565b601055600160a060020a03861660009081526013602052604090205461103d908363ffffffff6112a816565b600160a060020a0387166000908152601360209081526040808320939093558d8252601b90522054611075908363ffffffff6112a816565b60008c8152601b60209081526040808320939093558c8252601d905220546110a3908363ffffffff6112a816565b60008b8152601d602052604090205586881115610f1757600160a060020a038616600090815260156020526040902054610ef9908363ffffffff6112a816565b506000888152601960205260408120600181018054600283018054928590559390935591945090925061111c848463ffffffff6112a816565b601154909250611132908363ffffffff6112a816565b601155600160a060020a03861660009081526016602052604090205461115e908463ffffffff6112a816565b600160a060020a0387166000908152601660209081526040808320939093558d8252601c90522054611196908363ffffffff6112a816565b60008c8152601c60205260409020555b600a54604080517f8a066045000000000000000000000000000000000000000000000000000000008152600160a060020a0389811660048301526024820186905291519190921691638a0660459160448083019260209291908290030181600087803b15801561121557600080fd5b505af1158015611229573d6000803e3d6000fd5b505050506040513d602081101561123f57600080fd5b5051151561124c57600080fd5b604080518581526020810185905260ff87168183015290518a91600160a060020a038916917f212de36dcbb73c749ef074ec2565ecd3e461ebb1d28ea6021effdb8be7d44cda9181900360600190a35050505050505050505050565b818101828110156112b557fe5b92915050565b6000806000836112cc57600061135e565b61135e73__AOLibrary_____________________________63caf297656040518163ffffffff1660e060020a02815260040160206040518083038186803b15801561131657600080fd5b505af415801561132a573d6000803e3d6000fd5b505050506040513d602081101561134057600080fd5b50516113528a8a63ffffffff611f5d16565b9063ffffffff611f8616565b92506017600087600160a060020a0316600160a060020a0316815260200190815260200160002060008a60001916600019168152602001908152602001600020915088826000018160001916905550828260010181905550600a60009054906101000a9004600160a060020a0316600160a060020a03166387d4ca938b8885600101546040518463ffffffff1660e060020a0281526004018084600160a060020a0316600160a060020a0316815260200183600160a060020a0316600160a060020a031681526020018281526020019350505050602060405180830381600087803b15801561144c57600080fd5b505af1158015611460573d6000803e3d6000fd5b505050506040513d602081101561147657600080fd5b5051151561148357600080fd5b6001820154604080518a8152602081018a90528082019290925260006060830152518a91600160a060020a038916917f2bc2599ff4713444a049b5e4a07d2cde6becf6e7fc7c4e041bc1cf36894f10ee9181900360800190a350600160a060020a03841660009081526018602090815260408083208b84529091529020888155611513888463ffffffff611f9b16565b600182015583156115d757600a546001820154604080517f87d4ca93000000000000000000000000000000000000000000000000000000008152600160a060020a038e8116600483015289811660248301526044820193909352905191909216916387d4ca939160648083019260209291908290030181600087803b15801561159b57600080fd5b505af11580156115af573d6000803e3d6000fd5b505050506040513d60208110156115c557600080fd5b505115156115d257600080fd5b611683565b600a546001820154604080517f23ceb6d8000000000000000000000000000000000000000000000000000000008152600160a060020a0389811660048301526024820193909352905191909216916323ceb6d89160448083019260209291908290030181600087803b15801561164c57600080fd5b505af1158015611660573d6000803e3d6000fd5b505050506040513d602081101561167657600080fd5b5051151561168357600080fd5b886000191685600160a060020a03167f2bc2599ff4713444a049b5e4a07d2cde6becf6e7fc7c4e041bc1cf36894f10ee8a6117378b73__AOLibrary_____________________________63caf297656040518163ffffffff1660e060020a02815260040160206040518083038186803b1580156116ff57600080fd5b505af4158015611713573d6000803e3d6000fd5b505050506040513d602081101561172957600080fd5b50519063ffffffff611f9b16565b600180870154604080519485526020850193909352838301526060830152519081900360800190a350505050505050505050565b600080600080611779611fad565b50925061180273__AOLibrary_____________________________63caf297656040518163ffffffff1660e060020a02815260040160206040518083038186803b1580156117c657600080fd5b505af41580156117da573d6000803e3d6000fd5b505050506040513d60208110156117f057600080fd5b5051611352898663ffffffff611f5d16565b915061193173__AOLibrary_____________________________63caf297656040518163ffffffff1660e060020a02815260040160206040518083038186803b15801561184e57600080fd5b505af4158015611862573d6000803e3d6000fd5b505050506040513d602081101561187857600080fd5b5051604080517fd661dd3100000000000000000000000000000000000000000000000000000000815290516113529187916119259173__AOLibrary_____________________________9163d661dd3191600480820192602092909190829003018186803b1580156118e957600080fd5b505af41580156118fd573d6000803e3d6000fd5b505050506040513d602081101561191357600080fd5b50516113528c8c63ffffffff611f5d16565b9063ffffffff611f5d16565b9050611943828263ffffffff6112a816565b979650505050505050565b600080600080600061195e611fad565b95505060008a1115611e3457856119765760006119c0565b6119c073__AOLibrary_____________________________63caf297656040518163ffffffff1660e060020a02815260040160206040518083038186803b1580156118e957600080fd5b93506017600089600160a060020a0316600160a060020a0316815260200190815260200160002060008c600019166000191681526020019081526020016000209250838360020181905550600a60009054906101000a9004600160a060020a0316600160a060020a03166323ceb6d88985600201546040518363ffffffff1660e060020a0281526004018083600160a060020a0316600160a060020a0316815260200182815260200192505050602060405180830381600087803b158015611a8757600080fd5b505af1158015611a9b573d6000803e3d6000fd5b505050506040513d6020811015611ab157600080fd5b50511515611abe57600080fd5b6002830154604080518c8152602081018c90528082019290925260006060830152518c91600160a060020a038b16916000805160206122648339815191529181900360800190a3600160a060020a03871660009081526018602090815260408083208e845290915290209150611b3a8a8563ffffffff611f9b16565b60028301819055600a54604080517f23ceb6d8000000000000000000000000000000000000000000000000000000008152600160a060020a038b811660048301526024820194909452905192909116916323ceb6d8916044808201926020929091908290030181600087803b158015611bb257600080fd5b505af1158015611bc6573d6000803e3d6000fd5b505050506040513d6020811015611bdc57600080fd5b50511515611be957600080fd5b8a6000191687600160a060020a03166000805160206122648339815191528c611c538d73__AOLibrary_____________________________63caf297656040518163ffffffff1660e060020a02815260040160206040518083038186803b1580156116ff57600080fd5b60028701546040805193845260208401929092528282015260016060830152519081900360800190a35060008a8152601960209081526040918290208c815582517fcaf2976500000000000000000000000000000000000000000000000000000000815292519092611d339273__AOLibrary_____________________________9263caf29765926004808201939291829003018186803b158015611cf757600080fd5b505af4158015611d0b573d6000803e3d6000fd5b505050506040513d6020811015611d2157600080fd5b50516113528c8863ffffffff611f5d16565b60028201819055600a5460008054604080517f23ceb6d8000000000000000000000000000000000000000000000000000000008152600160a060020a0392831660048201526024810195909552519216926323ceb6d89260448083019360209383900390910190829087803b158015611dab57600080fd5b505af1158015611dbf573d6000803e3d6000fd5b505050506040513d6020811015611dd557600080fd5b50511515611de257600080fd5b600054600280830154604080518e8152602081018a905280820192909252606082019290925290518d92600160a060020a031691600080516020612264833981519152919081900360800190a3611f50565b604080516000808252602082018c9052818301819052606082015290518c91600160a060020a038b16916000805160206122648339815191529181900360800190a38a6000191687600160a060020a03166000805160206122648339815191526000611ee18d73__AOLibrary_____________________________63caf297656040518163ffffffff1660e060020a02815260040160206040518083038186803b1580156116ff57600080fd5b60408051928352602083019190915260008282015260016060830152519081900360800190a36000805460408051838152602081018990528082019390935260026060840152518d92600160a060020a0390921691600080516020612264833981519152919081900360800190a35b5050505050505050505050565b6000821515611f6e575060006112b5565b50818102818382811515611f7e57fe5b04146112b557fe5b60008183811515611f9357fe5b049392505050565b600082821115611fa757fe5b50900390565b600e5460048054604080517f8965c123000000000000000000000000000000000000000000000000000000008152600160a060020a036201000090930483169381019390935260248301819052600d60448401527f696e666c6174696f6e5261746500000000000000000000000000000000000000606484015251600093849384938493921691638965c12391608480820192869290919082900301818387803b15801561205a57600080fd5b505af115801561206e573d6000803e3d6000fd5b505050506040513d6000823e601f3d908101601f1916820160405260a081101561209757600080fd5b8151602083015160408401516060850151608086018051949693959294919392830192916401000000008111156120cd57600080fd5b820160208101848111156120e057600080fd5b81516401000000008111828201871017156120fa57600080fd5b5050600e5460048054604080517f8965c12300000000000000000000000000000000000000000000000000000000815262010000909204600160a060020a039081169383019390935260248201819052600d60448301527f666f756e646174696f6e437574000000000000000000000000000000000000006064830152519a9c50911698638965c123985060848083019850600097509095509085900301925083915084905087803b1580156121af57600080fd5b505af11580156121c3573d6000803e3d6000fd5b505050506040513d6000823e601f3d908101601f1916820160405260a08110156121ec57600080fd5b81516020830151604084015160608501516080860180519496939592949193928301929164010000000081111561222257600080fd5b8201602081018481111561223557600080fd5b815164010000000081118282018710171561224f57600080fd5b50999c979b509699505050505050505050505600df9b18b8b292e153b0dfff6e1d71024ca7486117e59c0bbaf074ad370deebd1ca165627a7a723058206a81698132893dc0142338e6771054fcf89afdc5b42c00fdde0c26c4810134d80029",
	"source": "pragma solidity ^0.4.24;\n\nimport './SafeMath.sol';\nimport './developed.sol';\nimport './AOToken.sol';\nimport './AOTreasury.sol';\nimport './Pathos.sol';\nimport './AntiLogos.sol';\nimport './AOSetting.sol';\nimport './AOLibrary.sol';\n\n/**\n * @title AOEarning\n *\n * This contract stores the earning from staking/hosting content on AO\n */\ncontract AOEarning is developed {\n\tusing SafeMath for uint256;\n\n\tbool public paused;\n\tbool public killed;\n\n\taddress public settingThoughtId;\n\taddress public aoSettingAddress;\n\taddress public baseDenominationAddress;\n\taddress public treasuryAddress;\n\taddress public pathosAddress;\n\taddress public antiLogosAddress;\n\n\tAOToken internal _baseAO;\n\tAOTreasury internal _treasury;\n\tPathos internal _pathos;\n\tAntiLogos internal _antiLogos;\n\tAOSetting internal _aoSetting;\n\n\t// Total earning from staking content from all nodes\n\tuint256 public totalStakeContentEarning;\n\n\t// Total earning from hosting content from all nodes\n\tuint256 public totalHostContentEarning;\n\n\t// Total foundation earning\n\tuint256 public totalFoundationEarning;\n\n\t// Mapping from address to his/her earning from content that he/she staked\n\tmapping (address => uint256) public stakeContentEarning;\n\n\t// Mapping from address to his/her earning from content that he/she hosted\n\tmapping (address => uint256) public hostContentEarning;\n\n\t// Mapping from address to his/her network price earning\n\t// i.e, when staked amount = filesize\n\tmapping (address => uint256) public networkPriceEarning;\n\n\t// Mapping from address to his/her content price earning\n\t// i.e, when staked amount > filesize\n\tmapping (address => uint256) public contentPriceEarning;\n\n\t// Mapping from address to his/her inflation bonus\n\tmapping (address => uint256) public inflationBonusAccrued;\n\n\tstruct Earning {\n\t\tbytes32 purchaseId;\n\t\tuint256 paymentEarning;\n\t\tuint256 inflationBonus;\n\t}\n\n\t// Mapping from address to earning from staking content of a purchase ID\n\tmapping (address => mapping(bytes32 => Earning)) public stakeEarnings;\n\n\t// Mapping from address to earning from hosting content of a purchase ID\n\tmapping (address => mapping(bytes32 => Earning)) public hostEarnings;\n\n\t// Mapping from purchase ID to earning for Foundation\n\tmapping (bytes32 => Earning) public foundationEarnings;\n\n\t// Mapping from stake ID to it's total earning from staking\n\tmapping (bytes32 => uint256) public totalStakedContentStakeEarning;\n\n\t// Mapping from stake ID to it's total earning from hosting\n\tmapping (bytes32 => uint256) public totalStakedContentHostEarning;\n\n\t// Mapping from stake ID to it's total earning earned by Foundation\n\tmapping (bytes32 => uint256) public totalStakedContentFoundationEarning;\n\n\t// Mapping from content host ID to it's total earning\n\tmapping (bytes32 => uint256) public totalHostContentEarningById;\n\n\t// Event to be broadcasted to public when content creator/host/foundation earns inflation bonus in escrow when request node buys the content\n\t// recipientType:\n\t// 0 => Content Creator (Stake Owner)\n\t// 1 => Node Host\n\t// 2 => Foundation\n\tevent InflationBonusEscrowed(address indexed recipient, bytes32 indexed purchaseId, uint256 totalInflationBonusAmount, uint256 recipientProfitPercentage, uint256 recipientInflationBonus, uint8 recipientType);\n\n\t// Event to be broadcasted to public when content creator/host earns the payment split in escrow when request node buys the content\n\t// recipientType:\n\t// 0 => Content Creator (Stake Owner)\n\t// 1 => Node Host\n\tevent PaymentEarningEscrowed(address indexed recipient, bytes32 indexed purchaseId, uint256 totalPaymentAmount, uint256 recipientProfitPercentage, uint256 recipientPaymentEarning, uint8 recipientType);\n\n\t// Event to be broadcasted to public when content creator/host/foundation earning is released from escrow\n\t// recipientType:\n\t// 0 => Content Creator (Stake Owner)\n\t// 1 => Node Host\n\t// 2 => Foundation\n\tevent EarningUnescrowed(address indexed recipient, bytes32 indexed purchaseId, uint256 paymentEarning, uint256 inflationBonus, uint8 recipientType);\n\n\t// Event to be broadcasted to public when content creator earns Pathos when a node buys a content\n\tevent PathosEarned(address indexed stakeOwner, bytes32 indexed purchaseId, uint256 amount);\n\n\t// Event to be broadcasted to public when host earns AntiLogos when a node buys a content\n\tevent AntiLogosEarned(address indexed host, bytes32 indexed purchaseId, uint256 amount);\n\n\t// Event to be broadcasted to public when emergency mode is triggered\n\tevent EscapeHatch();\n\n\t/**\n\t * @dev Constructor function\n\t * @param _settingThoughtId The Thought ID that controls the setting\n\t * @param _aoSettingAddress The address of AOSetting\n\t * @param _baseDenominationAddress The address of AO base token\n\t * @param _treasuryAddress The address of AOTreasury\n\t */\n\tconstructor(address _settingThoughtId, address _aoSettingAddress, address _baseDenominationAddress, address _treasuryAddress, address _pathosAddress, address _antiLogosAddress) public {\n\t\tsettingThoughtId = _settingThoughtId;\n\t\taoSettingAddress = _aoSettingAddress;\n\t\tbaseDenominationAddress = _baseDenominationAddress;\n\t\ttreasuryAddress = _treasuryAddress;\n\t\tpathosAddress = _pathosAddress;\n\t\tantiLogosAddress = _antiLogosAddress;\n\n\t\t_aoSetting = AOSetting(_aoSettingAddress);\n\t\t_baseAO = AOToken(_baseDenominationAddress);\n\t\t_treasury = AOTreasury(_treasuryAddress);\n\t\t_pathos = Pathos(_pathosAddress);\n\t\t_antiLogos = AntiLogos(_antiLogosAddress);\n\t}\n\n\t/**\n\t * @dev Checks if contract is currently active\n\t */\n\tmodifier isActive {\n\t\trequire (paused == false && killed == false);\n\t\t_;\n\t}\n\n\t/***** DEVELOPER ONLY METHODS *****/\n\t/**\n\t * @dev Developer pauses/unpauses contract\n\t * @param _paused Either to pause contract or not\n\t */\n\tfunction setPaused(bool _paused) public onlyDeveloper {\n\t\tpaused = _paused;\n\t}\n\n\t/**\n\t * @dev Developer updates base denomination address\n\t * @param _newBaseDenominationAddress The new address\n\t */\n\tfunction setBaseDenominationAddress(address _newBaseDenominationAddress) public onlyDeveloper {\n\t\trequire (AOToken(_newBaseDenominationAddress).powerOfTen() == 0 && AOToken(_newBaseDenominationAddress).networkExchangeContract() == true);\n\t\tbaseDenominationAddress = _newBaseDenominationAddress;\n\t\t_baseAO = AOToken(baseDenominationAddress);\n\t}\n\n\t/**\n\t * @dev Developer triggers emergency mode.\n\t *\n\t */\n\tfunction escapeHatch() public onlyDeveloper {\n\t\trequire (killed == false);\n\t\tkilled = true;\n\t\temit EscapeHatch();\n\t}\n\n\t/***** PUBLIC METHODS *****/\n\n\t/**\n\t * @dev Calculate the content creator/host/foundation earning when request node buys the content.\n\t *\t\tAlso at this stage, all of the earnings are stored in escrow\n\t * @param _buyer The request node address that buys the content\n\t * @param _purchaseId The ID of the purchase receipt object\n\t * @param _networkAmountStaked The amount of network tokens at stake\n\t * @param _primordialAmountStaked The amount of primordial tokens at stake\n\t * @param _primordialWeightedMultiplierStaked The weighted multiplier of primordial tokens at stake\n\t * @param _profitPercentage The content creator's profit percentage\n\t * @param _fileSize The size of the file\n\t * @param _stakeOwner The address of the stake owner\n\t * @param _host The address of the host\n\t * @param _isAOContentUsageType whether or not the content is of AO Content Usage Type\n\t */\n\tfunction calculateEarning(\n\t\taddress _buyer,\n\t\tbytes32 _purchaseId,\n\t\tuint256 _networkAmountStaked,\n\t\tuint256 _primordialAmountStaked,\n\t\tuint256 _primordialWeightedMultiplierStaked,\n\t\tuint256 _profitPercentage,\n\t\tuint256 _fileSize,\n\t\taddress _stakeOwner,\n\t\taddress _host,\n\t\tbool _isAOContentUsageType\n\t) public isActive inWhitelist(msg.sender) returns (bool) {\n\n\t\t// Split the payment earning between content creator and host and store them in escrow\n\t\t_escrowPaymentEarning(_buyer, _purchaseId, _networkAmountStaked.add(_primordialAmountStaked), _profitPercentage, _stakeOwner, _host, _isAOContentUsageType);\n\n\t\t// Calculate the inflation bonus earning for content creator/node/foundation in escrow\n\t\t_escrowInflationBonus(_purchaseId, _calculateInflationBonus(_networkAmountStaked, _primordialAmountStaked, _primordialWeightedMultiplierStaked), _profitPercentage, _stakeOwner, _host, _isAOContentUsageType);\n\n\t\t// Reward the content creator/stake owner with some Pathos\n\t\trequire (_pathos.mintToken(_stakeOwner, _networkAmountStaked.add(_primordialAmountStaked)));\n\t\temit PathosEarned(_stakeOwner, _purchaseId, _networkAmountStaked.add(_primordialAmountStaked));\n\n\t\t// Reward the host with some AntiLogos\n\t\trequire (_antiLogos.mintToken(_host, _fileSize));\n\t\temit AntiLogosEarned(_host, _purchaseId, _fileSize);\n\t\treturn true;\n\t}\n\n\t/**\n\t * @dev Release the payment earning and inflation bonus that is in escrow for specific purchase ID\n\t * @param _stakeId The ID of the staked content\n\t * @param _contentHostId The ID of the hosted content\n\t * @param _purchaseId The purchase receipt ID to check\n\t * @param _buyerPaidAmount The request node paid amount when buying the content\n\t * @param _fileSize The size of the content\n\t * @param _stakeOwner The address of the stake owner\n\t * @param _host The address of the node that host the file\n\t * @return true on success\n\t */\n\tfunction releaseEarning(bytes32 _stakeId, bytes32 _contentHostId, bytes32 _purchaseId, uint256 _buyerPaidAmount, uint256 _fileSize, address _stakeOwner, address _host) public isActive inWhitelist(msg.sender) returns (bool) {\n\t\t// Release the earning in escrow for stake owner\n\t\t_releaseEarning(_stakeId, _contentHostId, _purchaseId, _buyerPaidAmount, _fileSize, _stakeOwner, 0);\n\n\t\t// Release the earning in escrow for host\n\t\t_releaseEarning(_stakeId, _contentHostId, _purchaseId, _buyerPaidAmount, _fileSize, _host, 1);\n\n\t\t// Release the earning in escrow for foundation\n\t\t_releaseEarning(_stakeId, _contentHostId, _purchaseId, _buyerPaidAmount, _fileSize, developer, 2);\n\t\treturn true;\n\t}\n\n\t/***** INTERNAL METHODS *****/\n\t/**\n\t * @dev Calculate the payment split for content creator/host and store them in escrow\n\t * @param _buyer the request node address that buys the content\n\t * @param _purchaseId The ID of the purchase receipt object\n\t * @param _totalStaked The total staked amount of the content\n\t * @param _profitPercentage The content creator's profit percentage\n\t * @param _stakeOwner The address of the stake owner\n\t * @param _host The address of the host\n\t * @param _isAOContentUsageType whether or not the content is of AO Content Usage Type\n\t */\n\tfunction _escrowPaymentEarning(address _buyer, bytes32 _purchaseId, uint256 _totalStaked, uint256 _profitPercentage, address _stakeOwner, address _host, bool _isAOContentUsageType) internal {\n\t\t// Store how much the content creator (stake owner) earns in escrow\n\t\t// If content is AO Content Usage Type, stake owner earns 0%\n\t\t// and all profit goes to the serving host node\n\t\tuint256 _stakeOwnerEarning = _isAOContentUsageType ? (_totalStaked.mul(_profitPercentage)).div(AOLibrary.PERCENTAGE_DIVISOR()) : 0;\n\t\tEarning storage _stakeEarning = stakeEarnings[_stakeOwner][_purchaseId];\n\t\t_stakeEarning.purchaseId = _purchaseId;\n\t\t_stakeEarning.paymentEarning = _stakeOwnerEarning;\n\t\trequire (_baseAO.escrowFrom(_buyer, _stakeOwner, _stakeEarning.paymentEarning));\n\t\temit PaymentEarningEscrowed(_stakeOwner, _purchaseId, _totalStaked, _profitPercentage, _stakeEarning.paymentEarning, 0);\n\n\t\t// Store how much the node host earns in escrow\n\t\tEarning storage _hostEarning = hostEarnings[_host][_purchaseId];\n\t\t_hostEarning.purchaseId = _purchaseId;\n\t\t_hostEarning.paymentEarning = _totalStaked.sub(_stakeOwnerEarning);\n\t\tif (_isAOContentUsageType) {\n\t\t\trequire (_baseAO.escrowFrom(_buyer, _host, _hostEarning.paymentEarning));\n\t\t} else {\n\t\t\t// If not AO Content usage type, we want to mint to the host\n\t\t\trequire (_baseAO.mintTokenEscrow(_host, _hostEarning.paymentEarning));\n\t\t}\n\t\temit PaymentEarningEscrowed(_host, _purchaseId, _totalStaked, AOLibrary.PERCENTAGE_DIVISOR().sub(_profitPercentage), _hostEarning.paymentEarning, 1);\n\t}\n\n\t/**\n\t * @dev Calculate the inflation bonus amount\n\t * @param _networkAmountStaked The amount of network tokens at stake\n\t * @param _primordialAmountStaked The amount of primordial tokens at stake\n\t * @param _primordialWeightedMultiplierStaked The weighted multiplier of primordial tokens at stake\n\t * @return the bonus network amount\n\t */\n\tfunction _calculateInflationBonus(uint256 _networkAmountStaked, uint256 _primordialAmountStaked, uint256 _primordialWeightedMultiplierStaked) internal view returns (uint256) {\n\t\t(uint256 inflationRate,) = _getSettingVariables();\n\n\t\tuint256 _networkBonus = _networkAmountStaked.mul(inflationRate).div(AOLibrary.PERCENTAGE_DIVISOR());\n\t\tuint256 _primordialBonus = _primordialAmountStaked.mul(_primordialWeightedMultiplierStaked).div(AOLibrary.MULTIPLIER_DIVISOR()).mul(inflationRate).div(AOLibrary.PERCENTAGE_DIVISOR());\n\t\treturn _networkBonus.add(_primordialBonus);\n\t}\n\n\t/**\n\t * @dev Mint the inflation bonus for content creator/host/foundation and store them in escrow\n\t * @param _purchaseId The ID of the purchase receipt object\n\t * @param _inflationBonusAmount The amount of inflation bonus earning\n\t * @param _profitPercentage The content creator's profit percentage\n\t * @param _stakeOwner The address of the stake owner\n\t * @param _host The address of the host\n\t * @param _isAOContentUsageType whether or not the content is of AO Content Usage Type\n\t */\n\tfunction _escrowInflationBonus(\n\t\tbytes32 _purchaseId,\n\t\tuint256 _inflationBonusAmount,\n\t\tuint256 _profitPercentage,\n\t\taddress _stakeOwner,\n\t\taddress _host,\n\t\tbool _isAOContentUsageType\n\t) internal {\n\t\t(, uint256 foundationCut) = _getSettingVariables();\n\n\t\tif (_inflationBonusAmount > 0) {\n\t\t\t// Store how much the content creator earns in escrow\n\t\t\tuint256 _stakeOwnerInflationBonus = _isAOContentUsageType ? (_inflationBonusAmount.mul(_profitPercentage)).div(AOLibrary.PERCENTAGE_DIVISOR()) : 0;\n\t\t\tEarning storage _stakeEarning = stakeEarnings[_stakeOwner][_purchaseId];\n\t\t\t_stakeEarning.inflationBonus = _stakeOwnerInflationBonus;\n\t\t\trequire (_baseAO.mintTokenEscrow(_stakeOwner, _stakeEarning.inflationBonus));\n\t\t\temit InflationBonusEscrowed(_stakeOwner, _purchaseId, _inflationBonusAmount, _profitPercentage, _stakeEarning.inflationBonus, 0);\n\n\t\t\t// Store how much the host earns in escrow\n\t\t\tEarning storage _hostEarning = hostEarnings[_host][_purchaseId];\n\t\t\t_hostEarning.inflationBonus = _inflationBonusAmount.sub(_stakeOwnerInflationBonus);\n\t\t\trequire (_baseAO.mintTokenEscrow(_host, _hostEarning.inflationBonus));\n\t\t\temit InflationBonusEscrowed(_host, _purchaseId, _inflationBonusAmount, AOLibrary.PERCENTAGE_DIVISOR().sub(_profitPercentage), _hostEarning.inflationBonus, 1);\n\n\t\t\t// Store how much the foundation earns in escrow\n\t\t\tEarning storage _foundationEarning = foundationEarnings[_purchaseId];\n\t\t\t_foundationEarning.purchaseId = _purchaseId;\n\t\t\t_foundationEarning.inflationBonus = (_inflationBonusAmount.mul(foundationCut)).div(AOLibrary.PERCENTAGE_DIVISOR());\n\t\t\trequire (_baseAO.mintTokenEscrow(developer, _foundationEarning.inflationBonus));\n\t\t\temit InflationBonusEscrowed(developer, _purchaseId, _inflationBonusAmount, foundationCut, _foundationEarning.inflationBonus, 2);\n\t\t} else {\n\t\t\temit InflationBonusEscrowed(_stakeOwner, _purchaseId, 0, _profitPercentage, 0, 0);\n\t\t\temit InflationBonusEscrowed(_host, _purchaseId, 0, AOLibrary.PERCENTAGE_DIVISOR().sub(_profitPercentage), 0, 1);\n\t\t\temit InflationBonusEscrowed(developer, _purchaseId, 0, foundationCut, 0, 2);\n\t\t}\n\t}\n\n\t/**\n\t * @dev Release the escrowed earning for a specific purchase ID for an account\n\t * @param _stakeId The ID of the staked content\n\t * @param _contentHostId The ID of the hosted content\n\t * @param _purchaseId The purchase receipt ID\n\t * @param _buyerPaidAmount The request node paid amount when buying the content\n\t * @param _fileSize The size of the content\n\t * @param _account The address of account that made the earning (content creator/host)\n\t * @param _recipientType The type of the earning recipient (0 => content creator. 1 => host. 2 => foundation)\n\t */\n\tfunction _releaseEarning(bytes32 _stakeId, bytes32 _contentHostId, bytes32 _purchaseId, uint256 _buyerPaidAmount, uint256 _fileSize, address _account, uint8 _recipientType) internal {\n\t\t// Make sure the recipient type is valid\n\t\trequire (_recipientType >= 0 && _recipientType <= 2);\n\n\t\tuint256 _paymentEarning;\n\t\tuint256 _inflationBonus;\n\t\tuint256 _totalEarning;\n\t\tif (_recipientType == 0) {\n\t\t\tEarning storage _earning = stakeEarnings[_account][_purchaseId];\n\t\t\t_paymentEarning = _earning.paymentEarning;\n\t\t\t_inflationBonus = _earning.inflationBonus;\n\t\t\t_earning.paymentEarning = 0;\n\t\t\t_earning.inflationBonus = 0;\n\t\t\t_totalEarning = _paymentEarning.add(_inflationBonus);\n\n\t\t\t// Update the global var settings\n\t\t\ttotalStakeContentEarning = totalStakeContentEarning.add(_totalEarning);\n\t\t\tstakeContentEarning[_account] = stakeContentEarning[_account].add(_totalEarning);\n\t\t\ttotalStakedContentStakeEarning[_stakeId] = totalStakedContentStakeEarning[_stakeId].add(_totalEarning);\n\t\t\tif (_buyerPaidAmount > _fileSize) {\n\t\t\t\tcontentPriceEarning[_account] = contentPriceEarning[_account].add(_totalEarning);\n\t\t\t} else {\n\t\t\t\tnetworkPriceEarning[_account] = networkPriceEarning[_account].add(_totalEarning);\n\t\t\t}\n\t\t\tinflationBonusAccrued[_account] = inflationBonusAccrued[_account].add(_inflationBonus);\n\t\t} else if (_recipientType == 1) {\n\t\t\t_earning = hostEarnings[_account][_purchaseId];\n\t\t\t_paymentEarning = _earning.paymentEarning;\n\t\t\t_inflationBonus = _earning.inflationBonus;\n\t\t\t_earning.paymentEarning = 0;\n\t\t\t_earning.inflationBonus = 0;\n\t\t\t_totalEarning = _paymentEarning.add(_inflationBonus);\n\n\t\t\t// Update the global var settings\n\t\t\ttotalHostContentEarning = totalHostContentEarning.add(_totalEarning);\n\t\t\thostContentEarning[_account] = hostContentEarning[_account].add(_totalEarning);\n\t\t\ttotalStakedContentHostEarning[_stakeId] = totalStakedContentHostEarning[_stakeId].add(_totalEarning);\n\t\t\ttotalHostContentEarningById[_contentHostId] = totalHostContentEarningById[_contentHostId].add(_totalEarning);\n\t\t\tif (_buyerPaidAmount > _fileSize) {\n\t\t\t\tcontentPriceEarning[_account] = contentPriceEarning[_account].add(_totalEarning);\n\t\t\t} else {\n\t\t\t\tnetworkPriceEarning[_account] = networkPriceEarning[_account].add(_totalEarning);\n\t\t\t}\n\t\t\tinflationBonusAccrued[_account] = inflationBonusAccrued[_account].add(_inflationBonus);\n\t\t} else {\n\t\t\t_earning = foundationEarnings[_purchaseId];\n\t\t\t_paymentEarning = _earning.paymentEarning;\n\t\t\t_inflationBonus = _earning.inflationBonus;\n\t\t\t_earning.paymentEarning = 0;\n\t\t\t_earning.inflationBonus = 0;\n\t\t\t_totalEarning = _paymentEarning.add(_inflationBonus);\n\n\t\t\t// Update the global var settings\n\t\t\ttotalFoundationEarning = totalFoundationEarning.add(_totalEarning);\n\t\t\tinflationBonusAccrued[_account] = inflationBonusAccrued[_account].add(_inflationBonus);\n\t\t\ttotalStakedContentFoundationEarning[_stakeId] = totalStakedContentFoundationEarning[_stakeId].add(_totalEarning);\n\t\t}\n\t\trequire (_baseAO.unescrowFrom(_account, _totalEarning));\n\t\temit EarningUnescrowed(_account, _purchaseId, _paymentEarning, _inflationBonus, _recipientType);\n\t}\n\n\t/**\n\t * @dev Get setting variables\n\t * @return inflationRate The rate to use when calculating inflation bonus\n\t * @return foundationCut The rate to use when calculation the foundation earning\n\t */\n\tfunction _getSettingVariables() internal view returns (uint256, uint256) {\n\t\t(uint256 inflationRate,,,,) = _aoSetting.getSettingValuesByThoughtName(settingThoughtId, 'inflationRate');\n\t\t(uint256 foundationCut,,,,) = _aoSetting.getSettingValuesByThoughtName(settingThoughtId, 'foundationCut');\n\t\treturn (inflationRate, foundationCut);\n\t}\n}\n",
	"sourcePath": "/home/jmulyono/ao-contracts/contracts/AOEarning.sol",
	"compiler": {
		"name": "solc",
		"version": "0.4.24+commit.e67f0147.Emscripten.clang"
	},
	"schemaVersion": "2.0.1",
	"updatedAt": "2018-12-11T08:43:54.605Z"
}