{
	"contractName": "AOEarning",
	"abi": [
		{
			"constant": true,
			"inputs": [],
			"name": "totalFoundationEarning",
			"outputs": [
				{
					"name": "",
					"type": "uint256"
				}
			],
			"payable": false,
			"stateMutability": "view",
			"type": "function"
		},
		{
			"constant": true,
			"inputs": [],
			"name": "aoDevTeam1",
			"outputs": [
				{
					"name": "",
					"type": "address"
				}
			],
			"payable": false,
			"stateMutability": "view",
			"type": "function"
		},
		{
			"constant": true,
			"inputs": [],
			"name": "killed",
			"outputs": [
				{
					"name": "",
					"type": "bool"
				}
			],
			"payable": false,
			"stateMutability": "view",
			"type": "function"
		},
		{
			"constant": true,
			"inputs": [],
			"name": "inflationRate",
			"outputs": [
				{
					"name": "",
					"type": "uint256"
				}
			],
			"payable": false,
			"stateMutability": "view",
			"type": "function"
		},
		{
			"constant": true,
			"inputs": [
				{
					"name": "",
					"type": "bytes32"
				}
			],
			"name": "foundationEarnings",
			"outputs": [
				{
					"name": "purchaseId",
					"type": "bytes32"
				},
				{
					"name": "paymentEarning",
					"type": "uint256"
				},
				{
					"name": "inflationBonus",
					"type": "uint256"
				}
			],
			"payable": false,
			"stateMutability": "view",
			"type": "function"
		},
		{
			"constant": true,
			"inputs": [
				{
					"name": "",
					"type": "address"
				}
			],
			"name": "hostContentEarning",
			"outputs": [
				{
					"name": "",
					"type": "uint256"
				}
			],
			"payable": false,
			"stateMutability": "view",
			"type": "function"
		},
		{
			"constant": true,
			"inputs": [],
			"name": "foundationCut",
			"outputs": [
				{
					"name": "",
					"type": "uint256"
				}
			],
			"payable": false,
			"stateMutability": "view",
			"type": "function"
		},
		{
			"constant": false,
			"inputs": [
				{
					"name": "_account",
					"type": "address"
				},
				{
					"name": "_whitelist",
					"type": "bool"
				}
			],
			"name": "setWhitelist",
			"outputs": [],
			"payable": false,
			"stateMutability": "nonpayable",
			"type": "function"
		},
		{
			"constant": true,
			"inputs": [
				{
					"name": "",
					"type": "address"
				}
			],
			"name": "networkPriceEarning",
			"outputs": [
				{
					"name": "",
					"type": "uint256"
				}
			],
			"payable": false,
			"stateMutability": "view",
			"type": "function"
		},
		{
			"constant": true,
			"inputs": [],
			"name": "paused",
			"outputs": [
				{
					"name": "",
					"type": "bool"
				}
			],
			"payable": false,
			"stateMutability": "view",
			"type": "function"
		},
		{
			"constant": true,
			"inputs": [
				{
					"name": "",
					"type": "address"
				},
				{
					"name": "",
					"type": "bytes32"
				}
			],
			"name": "hostEarnings",
			"outputs": [
				{
					"name": "purchaseId",
					"type": "bytes32"
				},
				{
					"name": "paymentEarning",
					"type": "uint256"
				},
				{
					"name": "inflationBonus",
					"type": "uint256"
				}
			],
			"payable": false,
			"stateMutability": "view",
			"type": "function"
		},
		{
			"constant": true,
			"inputs": [
				{
					"name": "",
					"type": "bytes32"
				}
			],
			"name": "totalStakedContentStakeEarning",
			"outputs": [
				{
					"name": "",
					"type": "uint256"
				}
			],
			"payable": false,
			"stateMutability": "view",
			"type": "function"
		},
		{
			"constant": true,
			"inputs": [
				{
					"name": "",
					"type": "address"
				}
			],
			"name": "whitelist",
			"outputs": [
				{
					"name": "",
					"type": "bool"
				}
			],
			"payable": false,
			"stateMutability": "view",
			"type": "function"
		},
		{
			"constant": true,
			"inputs": [
				{
					"name": "",
					"type": "address"
				}
			],
			"name": "contentPriceEarning",
			"outputs": [
				{
					"name": "",
					"type": "uint256"
				}
			],
			"payable": false,
			"stateMutability": "view",
			"type": "function"
		},
		{
			"constant": true,
			"inputs": [
				{
					"name": "",
					"type": "address"
				}
			],
			"name": "inflationBonusAccrued",
			"outputs": [
				{
					"name": "",
					"type": "uint256"
				}
			],
			"payable": false,
			"stateMutability": "view",
			"type": "function"
		},
		{
			"constant": true,
			"inputs": [],
			"name": "aoDevTeam2",
			"outputs": [
				{
					"name": "",
					"type": "address"
				}
			],
			"payable": false,
			"stateMutability": "view",
			"type": "function"
		},
		{
			"constant": true,
			"inputs": [
				{
					"name": "",
					"type": "bytes32"
				}
			],
			"name": "totalStakedContentHostEarning",
			"outputs": [
				{
					"name": "",
					"type": "uint256"
				}
			],
			"payable": false,
			"stateMutability": "view",
			"type": "function"
		},
		{
			"constant": false,
			"inputs": [
				{
					"name": "_aoDevTeam1",
					"type": "address"
				},
				{
					"name": "_aoDevTeam2",
					"type": "address"
				}
			],
			"name": "setAODevTeamAddresses",
			"outputs": [],
			"payable": false,
			"stateMutability": "nonpayable",
			"type": "function"
		},
		{
			"constant": true,
			"inputs": [
				{
					"name": "",
					"type": "address"
				}
			],
			"name": "stakeContentEarning",
			"outputs": [
				{
					"name": "",
					"type": "uint256"
				}
			],
			"payable": false,
			"stateMutability": "view",
			"type": "function"
		},
		{
			"constant": true,
			"inputs": [],
			"name": "baseDenominationAddress",
			"outputs": [
				{
					"name": "",
					"type": "address"
				}
			],
			"payable": false,
			"stateMutability": "view",
			"type": "function"
		},
		{
			"constant": true,
			"inputs": [],
			"name": "treasuryAddress",
			"outputs": [
				{
					"name": "",
					"type": "address"
				}
			],
			"payable": false,
			"stateMutability": "view",
			"type": "function"
		},
		{
			"constant": true,
			"inputs": [],
			"name": "developer",
			"outputs": [
				{
					"name": "",
					"type": "address"
				}
			],
			"payable": false,
			"stateMutability": "view",
			"type": "function"
		},
		{
			"constant": true,
			"inputs": [],
			"name": "PERCENTAGE_DIVISOR",
			"outputs": [
				{
					"name": "",
					"type": "uint256"
				}
			],
			"payable": false,
			"stateMutability": "view",
			"type": "function"
		},
		{
			"constant": true,
			"inputs": [],
			"name": "totalHostContentEarning",
			"outputs": [
				{
					"name": "",
					"type": "uint256"
				}
			],
			"payable": false,
			"stateMutability": "view",
			"type": "function"
		},
		{
			"constant": true,
			"inputs": [],
			"name": "MULTIPLIER_DIVISOR",
			"outputs": [
				{
					"name": "",
					"type": "uint256"
				}
			],
			"payable": false,
			"stateMutability": "view",
			"type": "function"
		},
		{
			"constant": true,
			"inputs": [
				{
					"name": "",
					"type": "bytes32"
				}
			],
			"name": "totalStakedContentFoundationEarning",
			"outputs": [
				{
					"name": "",
					"type": "uint256"
				}
			],
			"payable": false,
			"stateMutability": "view",
			"type": "function"
		},
		{
			"constant": true,
			"inputs": [
				{
					"name": "",
					"type": "address"
				},
				{
					"name": "",
					"type": "bytes32"
				}
			],
			"name": "stakeEarnings",
			"outputs": [
				{
					"name": "purchaseId",
					"type": "bytes32"
				},
				{
					"name": "paymentEarning",
					"type": "uint256"
				},
				{
					"name": "inflationBonus",
					"type": "uint256"
				}
			],
			"payable": false,
			"stateMutability": "view",
			"type": "function"
		},
		{
			"constant": true,
			"inputs": [],
			"name": "totalStakeContentEarning",
			"outputs": [
				{
					"name": "",
					"type": "uint256"
				}
			],
			"payable": false,
			"stateMutability": "view",
			"type": "function"
		},
		{
			"constant": false,
			"inputs": [
				{
					"name": "newDeveloper",
					"type": "address"
				}
			],
			"name": "transferOwnership",
			"outputs": [],
			"payable": false,
			"stateMutability": "nonpayable",
			"type": "function"
		},
		{
			"inputs": [
				{
					"name": "_baseDenominationAddress",
					"type": "address"
				},
				{
					"name": "_treasuryAddress",
					"type": "address"
				}
			],
			"payable": false,
			"stateMutability": "nonpayable",
			"type": "constructor"
		},
		{
			"anonymous": false,
			"inputs": [
				{
					"indexed": true,
					"name": "recipient",
					"type": "address"
				},
				{
					"indexed": false,
					"name": "purchaseId",
					"type": "bytes32"
				},
				{
					"indexed": false,
					"name": "totalInflationBonusAmount",
					"type": "uint256"
				},
				{
					"indexed": false,
					"name": "recipientProfitPercentage",
					"type": "uint256"
				},
				{
					"indexed": false,
					"name": "recipientInflationBonus",
					"type": "uint256"
				},
				{
					"indexed": false,
					"name": "recipientType",
					"type": "uint8"
				}
			],
			"name": "InflationBonusEscrowed",
			"type": "event"
		},
		{
			"anonymous": false,
			"inputs": [
				{
					"indexed": true,
					"name": "recipient",
					"type": "address"
				},
				{
					"indexed": false,
					"name": "purchaseId",
					"type": "bytes32"
				},
				{
					"indexed": false,
					"name": "totalPaymentAmount",
					"type": "uint256"
				},
				{
					"indexed": false,
					"name": "recipientProfitPercentage",
					"type": "uint256"
				},
				{
					"indexed": false,
					"name": "recipientPaymentEarning",
					"type": "uint256"
				},
				{
					"indexed": false,
					"name": "recipientType",
					"type": "uint8"
				}
			],
			"name": "PaymentEarningEscrowed",
			"type": "event"
		},
		{
			"anonymous": false,
			"inputs": [
				{
					"indexed": true,
					"name": "recipient",
					"type": "address"
				},
				{
					"indexed": false,
					"name": "purchaseId",
					"type": "bytes32"
				},
				{
					"indexed": false,
					"name": "paymentEarning",
					"type": "uint256"
				},
				{
					"indexed": false,
					"name": "inflationBonus",
					"type": "uint256"
				},
				{
					"indexed": false,
					"name": "recipientType",
					"type": "uint8"
				}
			],
			"name": "EarningUnescrowed",
			"type": "event"
		},
		{
			"anonymous": false,
			"inputs": [],
			"name": "EscapeHatch",
			"type": "event"
		},
		{
			"constant": false,
			"inputs": [
				{
					"name": "_paused",
					"type": "bool"
				}
			],
			"name": "setPaused",
			"outputs": [],
			"payable": false,
			"stateMutability": "nonpayable",
			"type": "function"
		},
		{
			"constant": false,
			"inputs": [
				{
					"name": "_newBaseDenominationAddress",
					"type": "address"
				}
			],
			"name": "setBaseDenominationAddress",
			"outputs": [],
			"payable": false,
			"stateMutability": "nonpayable",
			"type": "function"
		},
		{
			"constant": false,
			"inputs": [
				{
					"name": "_inflationRate",
					"type": "uint256"
				}
			],
			"name": "setInflationRate",
			"outputs": [],
			"payable": false,
			"stateMutability": "nonpayable",
			"type": "function"
		},
		{
			"constant": false,
			"inputs": [
				{
					"name": "_foundationCut",
					"type": "uint256"
				}
			],
			"name": "setFoundationCut",
			"outputs": [],
			"payable": false,
			"stateMutability": "nonpayable",
			"type": "function"
		},
		{
			"constant": false,
			"inputs": [],
			"name": "escapeHatch",
			"outputs": [],
			"payable": false,
			"stateMutability": "nonpayable",
			"type": "function"
		},
		{
			"constant": false,
			"inputs": [
				{
					"name": "_buyer",
					"type": "address"
				},
				{
					"name": "_purchaseId",
					"type": "bytes32"
				},
				{
					"name": "_networkAmountStaked",
					"type": "uint256"
				},
				{
					"name": "_primordialAmountStaked",
					"type": "uint256"
				},
				{
					"name": "_primordialWeightedMultiplierStaked",
					"type": "uint256"
				},
				{
					"name": "_profitPercentage",
					"type": "uint256"
				},
				{
					"name": "_stakeOwner",
					"type": "address"
				},
				{
					"name": "_host",
					"type": "address"
				}
			],
			"name": "calculateEarning",
			"outputs": [
				{
					"name": "",
					"type": "bool"
				}
			],
			"payable": false,
			"stateMutability": "nonpayable",
			"type": "function"
		},
		{
			"constant": false,
			"inputs": [
				{
					"name": "_stakeId",
					"type": "bytes32"
				},
				{
					"name": "_purchaseId",
					"type": "bytes32"
				},
				{
					"name": "_buyerPaidAmount",
					"type": "uint256"
				},
				{
					"name": "_fileSize",
					"type": "uint256"
				},
				{
					"name": "_stakeOwner",
					"type": "address"
				},
				{
					"name": "_host",
					"type": "address"
				}
			],
			"name": "releaseEarning",
			"outputs": [
				{
					"name": "",
					"type": "bool"
				}
			],
			"payable": false,
			"stateMutability": "nonpayable",
			"type": "function"
		}
	],
	"bytecode": "0x608060405260018054600160a060020a0319908116735c63644d01ba385ebac5bcf2ddc1e6dbc1182b52179091556002805490911673156c79bf4347d1891da834ea30662a14177cbf2817905534801561005857600080fd5b50604051604080611af383398101604052805160209091015160008054600160a060020a0319908116331790915560048054600160a060020a039485166201000081026201000060b060020a03199092169190911790915560058054949093169382168417909255600680548216909217909155600780549091169091179055611a0c806100e76000396000f3006080604052600436106101a85763ffffffff60e060020a6000350416630292f88a81146101ad578063067fe001146101d05780630ab1af3b146101f757806315227aa71461020f5780631554611f1461024057806316c38b3c146102555780631f3a0e411461026f57806331f9e35b146102985780633a085fe5146102ad5780633bac2fac146102e057806341f7e8dc1461031657806343f8013d1461033757806353d6fd591461034c578063552318e0146103725780635c975abb146103935780636834a857146103a85780639587085d146103cc5780639b19251a146103e4578063a7a5f77314610405578063a832ebda14610426578063a99433a614610447578063aace426d1461045c578063b1551b9514610474578063b24626e91461048c578063b7f125d6146104b3578063bfeacddb146104f4578063c44a079514610515578063c5f956af1461052a578063ca4b208b1461053f578063caf2976514610554578063cba17a2b14610569578063d661dd3114610554578063e957a85b1461057e578063e9f4529d14610596578063edac5f44146105ba578063f2fde38b146105cf575b600080fd5b3480156101b957600080fd5b506101ce600160a060020a03600435166105f0565b005b3480156101dc57600080fd5b506101e5610756565b60408051918252519081900360200190f35b34801561020357600080fd5b506101ce60043561075c565b34801561021b57600080fd5b506102246107ad565b60408051600160a060020a039092168252519081900360200190f35b34801561024c57600080fd5b506101ce6107bc565b34801561026157600080fd5b506101ce6004351515610822565b34801561027b57600080fd5b5061028461084c565b604080519115158252519081900360200190f35b3480156102a457600080fd5b506101e561085a565b3480156102b957600080fd5b50610284600435602435604435606435600160a060020a0360843581169060a43516610860565b3480156102ec57600080fd5b506102f860043561090f565b60408051938452602084019290925282820152519081900360600190f35b34801561032257600080fd5b506101e5600160a060020a0360043516610930565b34801561034357600080fd5b506101e5610942565b34801561035857600080fd5b506101ce600160a060020a03600435166024351515610948565b34801561037e57600080fd5b506101e5600160a060020a036004351661098a565b34801561039f57600080fd5b5061028461099c565b3480156103b457600080fd5b506102f8600160a060020a03600435166024356109a5565b3480156103d857600080fd5b506101e56004356109d1565b3480156103f057600080fd5b50610284600160a060020a03600435166109e3565b34801561041157600080fd5b506101e5600160a060020a03600435166109f8565b34801561043257600080fd5b506101e5600160a060020a0360043516610a0a565b34801561045357600080fd5b50610224610a1c565b34801561046857600080fd5b506101e5600435610a2b565b34801561048057600080fd5b506101ce600435610a3d565b34801561049857600080fd5b506101ce600160a060020a0360043581169060243516610a7e565b3480156104bf57600080fd5b50610284600160a060020a036004358116906024359060443590606435906084359060a4359060c43581169060e43516610ad0565b34801561050057600080fd5b506101e5600160a060020a0360043516610b78565b34801561052157600080fd5b50610224610b8a565b34801561053657600080fd5b50610224610b9f565b34801561054b57600080fd5b50610224610bae565b34801561056057600080fd5b506101e5610bbd565b34801561057557600080fd5b506101e5610bc4565b34801561058a57600080fd5b506101e5600435610bca565b3480156105a257600080fd5b506102f8600160a060020a0360043516602435610bdc565b3480156105c657600080fd5b506101e5610c08565b3480156105db57600080fd5b506101ce600160a060020a0360043516610c0e565b600054600160a060020a0316331461060757600080fd5b80600160a060020a0316630aa245466040518163ffffffff1660e060020a028152600401602060405180830381600087803b15801561064557600080fd5b505af1158015610659573d6000803e3d6000fd5b505050506040513d602081101561066f57600080fd5b50511580156106e9575080600160a060020a031663ba2f81706040518163ffffffff1660e060020a028152600401602060405180830381600087803b1580156106b757600080fd5b505af11580156106cb573d6000803e3d6000fd5b505050506040513d60208110156106e157600080fd5b505115156001145b15156106f457600080fd5b6004805475ffffffffffffffffffffffffffffffffffffffff0000191662010000600160a060020a0393841681029190911791829055600680549190920490921673ffffffffffffffffffffffffffffffffffffffff19909216919091179055565b600c5481565b3360008181526003602052604090205460ff1615156001148061078c5750600054600160a060020a038281169116145b151561079757600080fd5b620f42408211156107a757600080fd5b50600955565b600154600160a060020a031681565b600054600160a060020a031633146107d357600080fd5b600454610100900460ff16156107e857600080fd5b6004805461ff0019166101001790556040517f16ed36fbe43aed6ba7426b24d35620696380d398f2f22f918dd74e4d3e0ceef990600090a1565b600054600160a060020a0316331461083957600080fd5b6004805460ff1916911515919091179055565b600454610100900460ff1681565b60085481565b60045460009060ff1615801561087e5750600454610100900460ff16155b151561088957600080fd5b3360008181526003602052604090205460ff161515600114806108b95750600054600160a060020a038281169116145b15156108c457600080fd5b6108d388888888886000610c54565b6108e288888888876001610c54565b600054610901908990899089908990600160a060020a03166002610c54565b506001979650505050505050565b60146020526000908152604090208054600182015460029092015490919083565b600e6020526000908152604090205481565b60095481565b600054600160a060020a0316331461095f57600080fd5b600160a060020a03919091166000908152600360205260409020805460ff1916911515919091179055565b600f6020526000908152604090205481565b60045460ff1681565b601360209081526000928352604080842090915290825290208054600182015460029092015490919083565b60156020526000908152604090205481565b60036020526000908152604090205460ff1681565b60106020526000908152604090205481565b60116020526000908152604090205481565b600254600160a060020a031681565b60166020526000908152604090205481565b3360008181526003602052604090205460ff16151560011480610a6d5750600054600160a060020a038281169116145b1515610a7857600080fd5b50600855565b600054600160a060020a03163314610a9557600080fd5b60018054600160a060020a0393841673ffffffffffffffffffffffffffffffffffffffff199182161790915560028054929093169116179055565b60045460009060ff16158015610aee5750600454610100900460ff16155b1515610af957600080fd5b3360008181526003602052604090205460ff16151560011480610b295750600054600160a060020a038281169116145b1515610b3457600080fd5b610b518a8a610b498b8b63ffffffff61111c16565b88888861112f565b610b6889610b608a8a8a611446565b8787876114b8565b5060019998505050505050505050565b600d6020526000908152604090205481565b600454620100009004600160a060020a031681565b600554600160a060020a031681565b600054600160a060020a031681565b620f424081565b600b5481565b60176020526000908152604090205481565b601260209081526000928352604080842090915290825290208054600182015460029092015490919083565b600a5481565b600054600160a060020a03163314610c2557600080fd5b6000805473ffffffffffffffffffffffffffffffffffffffff1916600160a060020a0392909216919091179055565b60008060008060008060008760ff1610158015610c75575060028760ff1611155b1515610c8057600080fd5b60ff87161515610e3b57600160a060020a03881660009081526012602090815260408083208e8452909152812060018101805460028301805492859055939093559197509095509250610cd9868663ffffffff61111c16565b600a54909450610cef908563ffffffff61111c16565b600a55600160a060020a0388166000908152600d6020526040902054610d1b908563ffffffff61111c16565b600160a060020a0389166000908152600d60209081526040808320939093558e8252601590522054610d53908563ffffffff61111c16565b60008d815260156020526040902055888a1115610db157600160a060020a038816600090815260106020526040902054610d93908563ffffffff61111c16565b600160a060020a038916600090815260106020526040902055610df4565b600160a060020a0388166000908152600f6020526040902054610dda908563ffffffff61111c16565b600160a060020a0389166000908152600f60205260409020555b600160a060020a038816600090815260116020526040902054610e1d908663ffffffff61111c16565b600160a060020a038916600090815260116020526040902055611013565b8660ff1660011415610f5057600160a060020a03881660009081526013602090815260408083208e8452909152812060018101805460028301805492859055939093559197509095509150610e96868663ffffffff61111c16565b600b54909450610eac908563ffffffff61111c16565b600b55600160a060020a0388166000908152600e6020526040902054610ed8908563ffffffff61111c16565b600160a060020a0389166000908152600e60209081526040808320939093558e8252601690522054610f10908563ffffffff61111c16565b60008d815260166020526040902055888a1115610db157600160a060020a038816600090815260106020526040902054610d93908563ffffffff61111c16565b5060008a81526014602052604081206001810180546002830180549285905593909355919650909450610f89868663ffffffff61111c16565b600c54909450610f9f908563ffffffff61111c16565b600c55600160a060020a038816600090815260116020526040902054610fcb908663ffffffff61111c16565b600160a060020a0389166000908152601160209081526040808320939093558e8252601790522054611003908563ffffffff61111c16565b60008d8152601760205260409020555b600654604080517f8a066045000000000000000000000000000000000000000000000000000000008152600160a060020a038b811660048301526024820188905291519190921691638a0660459160448083019260209291908290030181600087803b15801561108257600080fd5b505af1158015611096573d6000803e3d6000fd5b505050506040513d60208110156110ac57600080fd5b505115156110b957600080fd5b604080518c81526020810188905280820187905260ff891660608201529051600160a060020a038a16917f212de36dcbb73c749ef074ec2565ecd3e461ebb1d28ea6021effdb8be7d44cda919081900360800190a2505050505050505050505050565b8181018281101561112957fe5b92915050565b60008080611156620f424061114a898963ffffffff61197016565b9063ffffffff61199916565b92506012600086600160a060020a0316600160a060020a0316815260200190815260200160002060008960001916600019168152602001908152602001600020915087826000018160001916905550828260010181905550600660009054906101000a9004600160a060020a0316600160a060020a03166387d4ca938a8785600101546040518463ffffffff1660e060020a0281526004018084600160a060020a0316600160a060020a0316815260200183600160a060020a0316600160a060020a031681526020018281526020019350505050602060405180830381600087803b15801561124457600080fd5b505af1158015611258573d6000803e3d6000fd5b505050506040513d602081101561126e57600080fd5b5051151561127b57600080fd5b6001820154604080518a8152602081018a905280820189905260608101929092526000608083015251600160a060020a038716917f2bc2599ff4713444a049b5e4a07d2cde6becf6e7fc7c4e041bc1cf36894f10ee919081900360a00190a250600160a060020a03831660009081526013602090815260408083208a84529091529020878155611311878463ffffffff6119ae16565b60018201819055600654604080517f87d4ca93000000000000000000000000000000000000000000000000000000008152600160a060020a038d8116600483015288811660248301526044820194909452905192909116916387d4ca93916064808201926020929091908290030181600087803b15801561139157600080fd5b505af11580156113a5573d6000803e3d6000fd5b505050506040513d60208110156113bb57600080fd5b505115156113c857600080fd5b600160a060020a0384167f2bc2599ff4713444a049b5e4a07d2cde6becf6e7fc7c4e041bc1cf36894f10ee8989611408620f42408b63ffffffff6119ae16565b6001808701546040805195865260208601949094528484019290925260608401919091526080830152519081900360a00190a2505050505050505050565b6000806000611467620f424061114a6008548961197090919063ffffffff16565b915061149c620f424061114a600854611490620f424061114a8a8c61197090919063ffffffff16565b9063ffffffff61197016565b90506114ae828263ffffffff61111c16565b9695505050505050565b6000806000806000881115611870576114de620f424061114a8a8a63ffffffff61197016565b600160a060020a0380881660008181526012602090815260408083208f845282528083206002810187905560065482517f23ceb6d80000000000000000000000000000000000000000000000000000000081526004810196909652602486018890529151969a509850909316936323ceb6d8936044808501949193918390030190829087803b15801561157057600080fd5b505af1158015611584573d6000803e3d6000fd5b505050506040513d602081101561159a57600080fd5b505115156115a757600080fd5b6002830154604080518b8152602081018b90528082018a905260608101929092526000608083015251600160a060020a038816916000805160206119c1833981519152919081900360a00190a2600160a060020a03851660009081526013602090815260408083208c845290915290209150611629888563ffffffff6119ae16565b60028301819055600654604080517f23ceb6d8000000000000000000000000000000000000000000000000000000008152600160a060020a0389811660048301526024820194909452905192909116916323ceb6d8916044808201926020929091908290030181600087803b1580156116a157600080fd5b505af11580156116b5573d6000803e3d6000fd5b505050506040513d60208110156116cb57600080fd5b505115156116d857600080fd5b600160a060020a0385166000805160206119c18339815191528a8a611706620f42408c63ffffffff6119ae16565b600287015460408051948552602085019390935283830191909152606083015260016080830152519081900360a00190a250600088815260146020526040902088815560095461176690620f42409061114a908b9063ffffffff61197016565b6002820181905560065460008054604080517f23ceb6d8000000000000000000000000000000000000000000000000000000008152600160a060020a0392831660048201526024810195909552519216926323ceb6d89260448083019360209383900390910190829087803b1580156117de57600080fd5b505af11580156117f2573d6000803e3d6000fd5b505050506040513d602081101561180857600080fd5b5051151561181557600080fd5b600054600954600280840154604080518e8152602081018e9052808201949094526060840191909152608083019190915251600160a060020a03909216916000805160206119c18339815191529181900360a00190a2611965565b604080518a81526000602082018190528183018a90526060820181905260808201529051600160a060020a038816916000805160206119c1833981519152919081900360a00190a2600160a060020a0385166000805160206119c18339815191528a60006118e7620f42408c63ffffffff6119ae16565b604080519384526020840192909252828201526000606083015260016080830152519081900360a00190a260008054600954604080518d815260208101859052808201929092526060820193909352600260808201529151600160a060020a03909116916000805160206119c1833981519152919081900360a00190a25b505050505050505050565b600082151561198157506000611129565b5081810281838281151561199157fe5b041461112957fe5b600081838115156119a657fe5b049392505050565b6000828211156119ba57fe5b509003905600df9b18b8b292e153b0dfff6e1d71024ca7486117e59c0bbaf074ad370deebd1ca165627a7a72305820c9baa6e02536011a3b8d3883b83002b3328e39978e277128b426088da026ea730029",
	"source": "pragma solidity ^0.4.24;\n\nimport './SafeMath.sol';\nimport './developed.sol';\nimport './AOToken.sol';\nimport './AOTreasury.sol';\n\n/**\n * @title AOEarning\n *\n * This contract stores the earning from staking/hosting content on AO\n */\ncontract AOEarning is developed {\n\tusing SafeMath for uint256;\n\n\tbool public paused;\n\tbool public killed;\n\n\taddress public baseDenominationAddress;\n\taddress public treasuryAddress;\n\n\tAOToken internal _baseAO;\n\tAOTreasury internal _treasury;\n\n\tuint256 public inflationRate; // support up to 4 decimals, i.e 12.3456% = 123456\n\tuint256 public foundationCut; // support up to 4 decimals, i.e 12.3456% = 123456\n\tuint256 constant public PERCENTAGE_DIVISOR = 10 ** 6; // 100% = 1000000\n\tuint256 constant public MULTIPLIER_DIVISOR = 10 ** 6; // 1000000 = 1\n\n\t// Total earning from staking content from all nodes\n\tuint256 public totalStakeContentEarning;\n\n\t// Total earning from hosting content from all nodes\n\tuint256 public totalHostContentEarning;\n\n\t// Total foundation earning\n\tuint256 public totalFoundationEarning;\n\n\t// Mapping from address to his/her earning from content that he/she staked\n\tmapping (address => uint256) public stakeContentEarning;\n\n\t// Mapping from address to his/her earning from content that he/she hosted\n\tmapping (address => uint256) public hostContentEarning;\n\n\t// Mapping from address to his/her network price earning\n\t// i.e, when staked amount = filesize\n\tmapping (address => uint256) public networkPriceEarning;\n\n\t// Mapping from address to his/her content price earning\n\t// i.e, when staked amount > filesize\n\tmapping (address => uint256) public contentPriceEarning;\n\n\t// Mapping from address to his/her inflation bonus\n\tmapping (address => uint256) public inflationBonusAccrued;\n\n\tstruct Earning {\n\t\tbytes32 purchaseId;\n\t\tuint256 paymentEarning;\n\t\tuint256 inflationBonus;\n\t}\n\n\t// Mapping from address to earning from staking content of a purchase ID\n\tmapping (address => mapping(bytes32 => Earning)) public stakeEarnings;\n\n\t// Mapping from address to earning from hosting content of a purchase ID\n\tmapping (address => mapping(bytes32 => Earning)) public hostEarnings;\n\n\t// Mapping from purchase ID to earning for Foundation\n\tmapping (bytes32 => Earning) public foundationEarnings;\n\n\t// Mapping from stake ID to it's total earning from staking\n\tmapping (bytes32 => uint256) public totalStakedContentStakeEarning;\n\n\t// Mapping from stake ID to it's total earning from hosting\n\tmapping (bytes32 => uint256) public totalStakedContentHostEarning;\n\n\t// Mapping from stake ID to it's total earning earned by Foundation\n\tmapping (bytes32 => uint256) public totalStakedContentFoundationEarning;\n\n\t// Event to be broadcasted to public when content creator/host/foundation earns inflation bonus in escrow when request node buys the content\n\t// recipientType:\n\t// 0 => Content Creator (Stake Owner)\n\t// 1 => Node Host\n\t// 2 => Foundation\n\tevent InflationBonusEscrowed(address indexed recipient, bytes32 purchaseId, uint256 totalInflationBonusAmount, uint256 recipientProfitPercentage, uint256 recipientInflationBonus, uint8 recipientType);\n\n\t// Event to be broadcasted to public when content creator/host earns the payment split in escrow when request node buys the content\n\t// recipientType:\n\t// 0 => Content Creator (Stake Owner)\n\t// 1 => Node Host\n\tevent PaymentEarningEscrowed(address indexed recipient, bytes32 purchaseId, uint256 totalPaymentAmount, uint256 recipientProfitPercentage, uint256 recipientPaymentEarning, uint8 recipientType);\n\n\t// Event to be broadcasted to public when content creator/host/foundation earning is released from escrow\n\t// recipientType:\n\t// 0 => Content Creator (Stake Owner)\n\t// 1 => Node Host\n\t// 2 => Foundation\n\tevent EarningUnescrowed(address indexed recipient, bytes32 purchaseId, uint256 paymentEarning, uint256 inflationBonus, uint8 recipientType);\n\n\t// Event to be broadcasted to public when emergency mode is triggered\n\tevent EscapeHatch();\n\n\t/**\n\t * @dev Constructor function\n\t * @param _baseDenominationAddress The address of AO base token\n\t * @param _treasuryAddress The address of AOTreasury\n\t */\n\tconstructor(address _baseDenominationAddress, address _treasuryAddress) public {\n\t\tbaseDenominationAddress = _baseDenominationAddress;\n\t\ttreasuryAddress = _treasuryAddress;\n\t\t_baseAO = AOToken(_baseDenominationAddress);\n\t\t_treasury = AOTreasury(_treasuryAddress);\n\t}\n\n\t/**\n\t * @dev Checks if contract is currently active\n\t */\n\tmodifier isActive {\n\t\trequire (paused == false && killed == false);\n\t\t_;\n\t}\n\n\t/***** DEVELOPER ONLY METHODS *****/\n\t/**\n\t * @dev Developer pauses/unpauses contract\n\t * @param _paused Either to pause contract or not\n\t */\n\tfunction setPaused(bool _paused) public onlyDeveloper {\n\t\tpaused = _paused;\n\t}\n\n\t/**\n\t * @dev Developer updates base denomination address\n\t * @param _newBaseDenominationAddress The new address\n\t */\n\tfunction setBaseDenominationAddress(address _newBaseDenominationAddress) public onlyDeveloper {\n\t\trequire (AOToken(_newBaseDenominationAddress).powerOfTen() == 0 && AOToken(_newBaseDenominationAddress).networkExchangeContract() == true);\n\t\tbaseDenominationAddress = _newBaseDenominationAddress;\n\t\t_baseAO = AOToken(baseDenominationAddress);\n\t}\n\n\t/**\n\t * @dev Sets inflation rate\n\t * @param _inflationRate The new inflation rate value to be set\n\t */\n\tfunction setInflationRate(uint256 _inflationRate) public inWhitelist(msg.sender) {\n\t\tinflationRate = _inflationRate;\n\t}\n\n\t/**\n\t * @dev Sets foundation cut\n\t * @param _foundationCut The new foundation cut value to be set\n\t */\n\tfunction setFoundationCut(uint256 _foundationCut) public inWhitelist(msg.sender) {\n\t\trequire (_foundationCut <= PERCENTAGE_DIVISOR);\n\t\tfoundationCut = _foundationCut;\n\t}\n\n\t/**\n\t * @dev Developer triggers emergency mode.\n\t *\n\t */\n\tfunction escapeHatch() public onlyDeveloper {\n\t\trequire (killed == false);\n\t\tkilled = true;\n\t\temit EscapeHatch();\n\t}\n\n\t/***** PUBLIC METHODS *****/\n\n\t/**\n\t * @dev Calculate the content creator/host/foundation earning when request node buys the content.\n\t *\t\tAlso at this stage, all of the earnings are stored in escrow\n\t * @param _buyer The request node address that buys the content\n\t * @param _purchaseId The ID of the purchase receipt object\n\t * @param _networkAmountStaked The amount of network tokens at stake\n\t * @param _primordialAmountStaked The amount of primordial tokens at stake\n\t * @param _primordialWeightedMultiplierStaked The weighted multiplier of primordial tokens at stake\n\t * @param _profitPercentage The content creator's profit percentage\n\t * @param _stakeOwner The address of the stake owner\n\t * @param _host The address of the host\n\t */\n\tfunction calculateEarning(\n\t\taddress _buyer,\n\t\tbytes32 _purchaseId,\n\t\tuint256 _networkAmountStaked,\n\t\tuint256 _primordialAmountStaked,\n\t\tuint256 _primordialWeightedMultiplierStaked,\n\t\tuint256 _profitPercentage,\n\t\taddress _stakeOwner,\n\t\taddress _host) public isActive inWhitelist(msg.sender) returns (bool) {\n\n\t\t// Split the payment earning between content creator and host and store them in escrow\n\t\t_escrowPaymentEarning(_buyer, _purchaseId, _networkAmountStaked.add(_primordialAmountStaked), _profitPercentage, _stakeOwner, _host);\n\n\t\t// Calculate the inflation bonus earning for content creator/node/foundation in escrow\n\t\t_escrowInflationBonus(_purchaseId, _calculateInflationBonus(_networkAmountStaked, _primordialAmountStaked, _primordialWeightedMultiplierStaked), _profitPercentage, _stakeOwner, _host);\n\t\treturn true;\n\t}\n\n\t/**\n\t * @dev Release the payment earning and inflation bonus that is in escrow for specific purchase ID\n\t * @param _stakeId The ID of the staked content\n\t * @param _purchaseId The purchase receipt ID to check\n\t * @param _buyerPaidAmount The request node paid amount when buying the content\n\t * @param _fileSize The size of the content\n\t * @param _stakeOwner The address of the stake owner\n\t * @param _host The address of the node that host the file\n\t * @return true on success\n\t */\n\tfunction releaseEarning(bytes32 _stakeId, bytes32 _purchaseId, uint256 _buyerPaidAmount, uint256 _fileSize, address _stakeOwner, address _host) public isActive inWhitelist(msg.sender) returns (bool) {\n\t\t// Release the earning in escrow for stake owner\n\t\t_releaseEarning(_stakeId, _purchaseId, _buyerPaidAmount, _fileSize, _stakeOwner, 0);\n\n\t\t// Release the earning in escrow for host\n\t\t_releaseEarning(_stakeId, _purchaseId, _buyerPaidAmount, _fileSize, _host, 1);\n\n\t\t// Release the earning in escrow for foundation\n\t\t_releaseEarning(_stakeId, _purchaseId, _buyerPaidAmount, _fileSize, developer, 2);\n\t\treturn true;\n\t}\n\n\t/***** INTERNAL METHODS *****/\n\t/**\n\t * @dev Calculate the payment split for content creator/host and store them in escrow\n\t * @param _buyer the request node address that buys the content\n\t * @param _purchaseId The ID of the purchase receipt object\n\t * @param _totalStaked The total staked amount of the content\n\t * @param _profitPercentage The content creator's profit percentage\n\t * @param _stakeOwner The address of the stake owner\n\t * @param _host The address of the host\n\t */\n\tfunction _escrowPaymentEarning(address _buyer, bytes32 _purchaseId, uint256 _totalStaked, uint256 _profitPercentage, address _stakeOwner, address _host) internal {\n\t\t// Store how much the content creator (stake owner) earns in escrow\n\t\tuint256 _stakeOwnerEarning = (_totalStaked.mul(_profitPercentage)).div(PERCENTAGE_DIVISOR);\n\t\tEarning storage _stakeEarning = stakeEarnings[_stakeOwner][_purchaseId];\n\t\t_stakeEarning.purchaseId = _purchaseId;\n\t\t_stakeEarning.paymentEarning = _stakeOwnerEarning;\n\t\trequire (_baseAO.escrowFrom(_buyer, _stakeOwner, _stakeEarning.paymentEarning));\n\t\temit PaymentEarningEscrowed(_stakeOwner, _purchaseId, _totalStaked, _profitPercentage, _stakeEarning.paymentEarning, 0);\n\n\t\t// Store how much the node host earns in escrow\n\t\tEarning storage _hostEarning = hostEarnings[_host][_purchaseId];\n\t\t_hostEarning.purchaseId = _purchaseId;\n\t\t_hostEarning.paymentEarning = _totalStaked.sub(_stakeOwnerEarning);\n\t\trequire (_baseAO.escrowFrom(_buyer, _host, _hostEarning.paymentEarning));\n\t\temit PaymentEarningEscrowed(_host, _purchaseId, _totalStaked, PERCENTAGE_DIVISOR.sub(_profitPercentage), _hostEarning.paymentEarning, 1);\n\t}\n\n\t/**\n\t * @dev Calculate the inflation bonus amount\n\t * @param _networkAmountStaked The amount of network tokens at stake\n\t * @param _primordialAmountStaked The amount of primordial tokens at stake\n\t * @param _primordialWeightedMultiplierStaked The weighted multiplier of primordial tokens at stake\n\t * @return the bonus network amount\n\t */\n\tfunction _calculateInflationBonus(uint256 _networkAmountStaked, uint256 _primordialAmountStaked, uint256 _primordialWeightedMultiplierStaked) internal view returns (uint256) {\n\t\tuint256 _networkBonus = _networkAmountStaked.mul(inflationRate).div(PERCENTAGE_DIVISOR);\n\t\tuint256 _primordialBonus = _primordialAmountStaked.mul(_primordialWeightedMultiplierStaked).div(MULTIPLIER_DIVISOR).mul(inflationRate).div(PERCENTAGE_DIVISOR);\n\t\treturn _networkBonus.add(_primordialBonus);\n\t}\n\n\t/**\n\t * @dev Mint the inflation bonus for content creator/host/foundation and store them in escrow\n\t * @param _purchaseId The ID of the purchase receipt object\n\t * @param _inflationBonusAmount The amount of inflation bonus earning\n\t * @param _profitPercentage The content creator's profit percentage\n\t * @param _stakeOwner The address of the stake owner\n\t * @param _host The address of the host\n\t */\n\tfunction _escrowInflationBonus(\n\t\tbytes32 _purchaseId,\n\t\tuint256 _inflationBonusAmount,\n\t\tuint256 _profitPercentage,\n\t\taddress _stakeOwner,\n\t\taddress _host\n\t) internal {\n\t\tif (_inflationBonusAmount > 0) {\n\t\t\t// Store how much the content creator earns in escrow\n\t\t\tuint256 _stakeOwnerInflationBonus = (_inflationBonusAmount.mul(_profitPercentage)).div(PERCENTAGE_DIVISOR);\n\t\t\tEarning storage _stakeEarning = stakeEarnings[_stakeOwner][_purchaseId];\n\t\t\t_stakeEarning.inflationBonus = _stakeOwnerInflationBonus;\n\t\t\trequire (_baseAO.mintTokenEscrow(_stakeOwner, _stakeEarning.inflationBonus));\n\t\t\temit InflationBonusEscrowed(_stakeOwner, _purchaseId, _inflationBonusAmount, _profitPercentage, _stakeEarning.inflationBonus, 0);\n\n\t\t\t// Store how much the host earns in escrow\n\t\t\tEarning storage _hostEarning = hostEarnings[_host][_purchaseId];\n\t\t\t_hostEarning.inflationBonus = _inflationBonusAmount.sub(_stakeOwnerInflationBonus);\n\t\t\trequire (_baseAO.mintTokenEscrow(_host, _hostEarning.inflationBonus));\n\t\t\temit InflationBonusEscrowed(_host, _purchaseId, _inflationBonusAmount, PERCENTAGE_DIVISOR.sub(_profitPercentage), _hostEarning.inflationBonus, 1);\n\n\t\t\t// Store how much the foundation earns in escrow\n\t\t\tEarning storage _foundationEarning = foundationEarnings[_purchaseId];\n\t\t\t_foundationEarning.purchaseId = _purchaseId;\n\t\t\t_foundationEarning.inflationBonus = (_inflationBonusAmount.mul(foundationCut)).div(PERCENTAGE_DIVISOR);\n\t\t\trequire (_baseAO.mintTokenEscrow(developer, _foundationEarning.inflationBonus));\n\t\t\temit InflationBonusEscrowed(developer, _purchaseId, _inflationBonusAmount, foundationCut, _foundationEarning.inflationBonus, 2);\n\t\t} else {\n\t\t\temit InflationBonusEscrowed(_stakeOwner, _purchaseId, 0, _profitPercentage, 0, 0);\n\t\t\temit InflationBonusEscrowed(_host, _purchaseId, 0, PERCENTAGE_DIVISOR.sub(_profitPercentage), 0, 1);\n\t\t\temit InflationBonusEscrowed(developer, _purchaseId, 0, foundationCut, 0, 2);\n\t\t}\n\t}\n\n\t/**\n\t * @dev Release the escrowed earning for a specific purchase ID for an account\n\t * @param _stakeId The ID of the staked content\n\t * @param _purchaseId The purchase receipt ID\n\t * @param _buyerPaidAmount The request node paid amount when buying the content\n\t * @param _fileSize The size of the content\n\t * @param _account The address of account that made the earning (content creator/host)\n\t * @param _recipientType The type of the earning recipient (0 => content creator. 1 => host. 2 => foundation)\n\t */\n\tfunction _releaseEarning(bytes32 _stakeId, bytes32 _purchaseId, uint256 _buyerPaidAmount, uint256 _fileSize, address _account, uint8 _recipientType) internal {\n\t\t// Make sure the recipient type is valid\n\t\trequire (_recipientType >= 0 && _recipientType <= 2);\n\n\t\tuint256 _paymentEarning;\n\t\tuint256 _inflationBonus;\n\t\tuint256 _totalEarning;\n\t\tif (_recipientType == 0) {\n\t\t\tEarning storage _stakeEarning = stakeEarnings[_account][_purchaseId];\n\t\t\t_paymentEarning = _stakeEarning.paymentEarning;\n\t\t\t_inflationBonus = _stakeEarning.inflationBonus;\n\t\t\t_stakeEarning.paymentEarning = 0;\n\t\t\t_stakeEarning.inflationBonus = 0;\n\t\t\t_totalEarning = _paymentEarning.add(_inflationBonus);\n\n\t\t\t// Update the global var settings\n\t\t\ttotalStakeContentEarning = totalStakeContentEarning.add(_totalEarning);\n\t\t\tstakeContentEarning[_account] = stakeContentEarning[_account].add(_totalEarning);\n\t\t\ttotalStakedContentStakeEarning[_stakeId] = totalStakedContentStakeEarning[_stakeId].add(_totalEarning);\n\t\t\tif (_buyerPaidAmount > _fileSize) {\n\t\t\t\tcontentPriceEarning[_account] = contentPriceEarning[_account].add(_totalEarning);\n\t\t\t} else {\n\t\t\t\tnetworkPriceEarning[_account] = networkPriceEarning[_account].add(_totalEarning);\n\t\t\t}\n\t\t\tinflationBonusAccrued[_account] = inflationBonusAccrued[_account].add(_inflationBonus);\n\t\t} else if (_recipientType == 1) {\n\t\t\tEarning storage _hostEarning = hostEarnings[_account][_purchaseId];\n\t\t\t_paymentEarning = _hostEarning.paymentEarning;\n\t\t\t_inflationBonus = _hostEarning.inflationBonus;\n\t\t\t_hostEarning.paymentEarning = 0;\n\t\t\t_hostEarning.inflationBonus = 0;\n\t\t\t_totalEarning = _paymentEarning.add(_inflationBonus);\n\n\t\t\t// Update the global var settings\n\t\t\ttotalHostContentEarning = totalHostContentEarning.add(_totalEarning);\n\t\t\thostContentEarning[_account] = hostContentEarning[_account].add(_totalEarning);\n\t\t\ttotalStakedContentHostEarning[_stakeId] = totalStakedContentHostEarning[_stakeId].add(_totalEarning);\n\t\t\tif (_buyerPaidAmount > _fileSize) {\n\t\t\t\tcontentPriceEarning[_account] = contentPriceEarning[_account].add(_totalEarning);\n\t\t\t} else {\n\t\t\t\tnetworkPriceEarning[_account] = networkPriceEarning[_account].add(_totalEarning);\n\t\t\t}\n\t\t\tinflationBonusAccrued[_account] = inflationBonusAccrued[_account].add(_inflationBonus);\n\t\t} else {\n\t\t\tEarning storage _foundationEarning = foundationEarnings[_purchaseId];\n\t\t\t_paymentEarning = _foundationEarning.paymentEarning;\n\t\t\t_inflationBonus = _foundationEarning.inflationBonus;\n\t\t\t_foundationEarning.paymentEarning = 0;\n\t\t\t_foundationEarning.inflationBonus = 0;\n\t\t\t_totalEarning = _paymentEarning.add(_inflationBonus);\n\n\t\t\t// Update the global var settings\n\t\t\ttotalFoundationEarning = totalFoundationEarning.add(_totalEarning);\n\t\t\tinflationBonusAccrued[_account] = inflationBonusAccrued[_account].add(_inflationBonus);\n\t\t\ttotalStakedContentFoundationEarning[_stakeId] = totalStakedContentFoundationEarning[_stakeId].add(_totalEarning);\n\t\t}\n\t\trequire (_baseAO.unescrowFrom(_account, _totalEarning));\n\t\temit EarningUnescrowed(_account, _purchaseId, _paymentEarning, _inflationBonus, _recipientType);\n\t}\n}\n",
	"sourcePath": "/home/jmulyono/ao-contracts/contracts/AOEarning.sol",
	"compiler": {
		"name": "solc",
		"version": "0.4.24+commit.e67f0147.Emscripten.clang"
	},
	"schemaVersion": "2.0.1",
	"updatedAt": "2018-10-11T17:02:46.194Z"
}