{
  "contractName": "AOEarning",
  "abi": [
    {
      "constant": true,
      "inputs": [],
      "name": "aoStakedContentAddress",
      "outputs": [
        {
          "name": "",
          "type": "address"
        }
      ],
      "payable": false,
      "stateMutability": "view",
      "type": "function"
    },
    {
      "constant": true,
      "inputs": [],
      "name": "totalStakedContentEarning",
      "outputs": [
        {
          "name": "",
          "type": "uint256"
        }
      ],
      "payable": false,
      "stateMutability": "view",
      "type": "function"
    },
    {
      "constant": true,
      "inputs": [],
      "name": "aoSettingAddress",
      "outputs": [
        {
          "name": "",
          "type": "address"
        }
      ],
      "payable": false,
      "stateMutability": "view",
      "type": "function"
    },
    {
      "constant": true,
      "inputs": [
        {
          "name": "",
          "type": "bytes32"
        }
      ],
      "name": "contentHostEarning",
      "outputs": [
        {
          "name": "",
          "type": "uint256"
        }
      ],
      "payable": false,
      "stateMutability": "view",
      "type": "function"
    },
    {
      "constant": true,
      "inputs": [
        {
          "name": "",
          "type": "address"
        }
      ],
      "name": "ownerContentPriceEarning",
      "outputs": [
        {
          "name": "",
          "type": "uint256"
        }
      ],
      "payable": false,
      "stateMutability": "view",
      "type": "function"
    },
    {
      "constant": true,
      "inputs": [
        {
          "name": "",
          "type": "address"
        }
      ],
      "name": "ownerStakedContentEarning",
      "outputs": [
        {
          "name": "",
          "type": "uint256"
        }
      ],
      "payable": false,
      "stateMutability": "view",
      "type": "function"
    },
    {
      "constant": true,
      "inputs": [],
      "name": "aoIonAddress",
      "outputs": [
        {
          "name": "",
          "type": "address"
        }
      ],
      "payable": false,
      "stateMutability": "view",
      "type": "function"
    },
    {
      "constant": true,
      "inputs": [],
      "name": "pathosAddress",
      "outputs": [
        {
          "name": "",
          "type": "address"
        }
      ],
      "payable": false,
      "stateMutability": "view",
      "type": "function"
    },
    {
      "constant": true,
      "inputs": [],
      "name": "nameTAOPositionAddress",
      "outputs": [
        {
          "name": "",
          "type": "address"
        }
      ],
      "payable": false,
      "stateMutability": "view",
      "type": "function"
    },
    {
      "constant": true,
      "inputs": [
        {
          "name": "",
          "type": "bytes32"
        }
      ],
      "name": "stakedContentTheAOEarning",
      "outputs": [
        {
          "name": "",
          "type": "uint256"
        }
      ],
      "payable": false,
      "stateMutability": "view",
      "type": "function"
    },
    {
      "constant": true,
      "inputs": [],
      "name": "totalContentHostEarning",
      "outputs": [
        {
          "name": "",
          "type": "uint256"
        }
      ],
      "payable": false,
      "stateMutability": "view",
      "type": "function"
    },
    {
      "constant": true,
      "inputs": [],
      "name": "aoContentAddress",
      "outputs": [
        {
          "name": "",
          "type": "address"
        }
      ],
      "payable": false,
      "stateMutability": "view",
      "type": "function"
    },
    {
      "constant": true,
      "inputs": [
        {
          "name": "",
          "type": "address"
        },
        {
          "name": "",
          "type": "bytes32"
        }
      ],
      "name": "ownerPurchaseReceiptHostEarnings",
      "outputs": [
        {
          "name": "purchaseReceiptId",
          "type": "bytes32"
        },
        {
          "name": "paymentEarning",
          "type": "uint256"
        },
        {
          "name": "inflationBonus",
          "type": "uint256"
        },
        {
          "name": "pathosAmount",
          "type": "uint256"
        },
        {
          "name": "ethosAmount",
          "type": "uint256"
        }
      ],
      "payable": false,
      "stateMutability": "view",
      "type": "function"
    },
    {
      "constant": true,
      "inputs": [],
      "name": "ethosAddress",
      "outputs": [
        {
          "name": "",
          "type": "address"
        }
      ],
      "payable": false,
      "stateMutability": "view",
      "type": "function"
    },
    {
      "constant": true,
      "inputs": [
        {
          "name": "",
          "type": "address"
        },
        {
          "name": "",
          "type": "bytes32"
        }
      ],
      "name": "ownerPurchaseReceiptStakeEarnings",
      "outputs": [
        {
          "name": "purchaseReceiptId",
          "type": "bytes32"
        },
        {
          "name": "paymentEarning",
          "type": "uint256"
        },
        {
          "name": "inflationBonus",
          "type": "uint256"
        },
        {
          "name": "pathosAmount",
          "type": "uint256"
        },
        {
          "name": "ethosAmount",
          "type": "uint256"
        }
      ],
      "payable": false,
      "stateMutability": "view",
      "type": "function"
    },
    {
      "constant": true,
      "inputs": [],
      "name": "aoContentHostAddress",
      "outputs": [
        {
          "name": "",
          "type": "address"
        }
      ],
      "payable": false,
      "stateMutability": "view",
      "type": "function"
    },
    {
      "constant": true,
      "inputs": [
        {
          "name": "",
          "type": "address"
        }
      ],
      "name": "whitelist",
      "outputs": [
        {
          "name": "",
          "type": "bool"
        }
      ],
      "payable": false,
      "stateMutability": "view",
      "type": "function"
    },
    {
      "constant": true,
      "inputs": [],
      "name": "theAO",
      "outputs": [
        {
          "name": "",
          "type": "address"
        }
      ],
      "payable": false,
      "stateMutability": "view",
      "type": "function"
    },
    {
      "constant": true,
      "inputs": [],
      "name": "nameFactoryAddress",
      "outputs": [
        {
          "name": "",
          "type": "address"
        }
      ],
      "payable": false,
      "stateMutability": "view",
      "type": "function"
    },
    {
      "constant": true,
      "inputs": [
        {
          "name": "",
          "type": "bytes32"
        }
      ],
      "name": "stakedContentStakeEarning",
      "outputs": [
        {
          "name": "",
          "type": "uint256"
        }
      ],
      "payable": false,
      "stateMutability": "view",
      "type": "function"
    },
    {
      "constant": true,
      "inputs": [],
      "name": "totalTheAOEarning",
      "outputs": [
        {
          "name": "",
          "type": "uint256"
        }
      ],
      "payable": false,
      "stateMutability": "view",
      "type": "function"
    },
    {
      "constant": true,
      "inputs": [
        {
          "name": "",
          "type": "address"
        }
      ],
      "name": "ownerInflationBonusAccrued",
      "outputs": [
        {
          "name": "",
          "type": "uint256"
        }
      ],
      "payable": false,
      "stateMutability": "view",
      "type": "function"
    },
    {
      "constant": true,
      "inputs": [
        {
          "name": "",
          "type": "address"
        }
      ],
      "name": "ownerNetworkPriceEarning",
      "outputs": [
        {
          "name": "",
          "type": "uint256"
        }
      ],
      "payable": false,
      "stateMutability": "view",
      "type": "function"
    },
    {
      "constant": true,
      "inputs": [
        {
          "name": "",
          "type": "bytes32"
        }
      ],
      "name": "theAOPurchaseReceiptEarnings",
      "outputs": [
        {
          "name": "purchaseReceiptId",
          "type": "bytes32"
        },
        {
          "name": "paymentEarning",
          "type": "uint256"
        },
        {
          "name": "inflationBonus",
          "type": "uint256"
        },
        {
          "name": "pathosAmount",
          "type": "uint256"
        },
        {
          "name": "ethosAmount",
          "type": "uint256"
        }
      ],
      "payable": false,
      "stateMutability": "view",
      "type": "function"
    },
    {
      "constant": true,
      "inputs": [
        {
          "name": "",
          "type": "address"
        }
      ],
      "name": "ownerContentHostEarning",
      "outputs": [
        {
          "name": "",
          "type": "uint256"
        }
      ],
      "payable": false,
      "stateMutability": "view",
      "type": "function"
    },
    {
      "constant": true,
      "inputs": [],
      "name": "aoPurchaseReceiptAddress",
      "outputs": [
        {
          "name": "",
          "type": "address"
        }
      ],
      "payable": false,
      "stateMutability": "view",
      "type": "function"
    },
    {
      "constant": true,
      "inputs": [],
      "name": "settingTAOId",
      "outputs": [
        {
          "name": "",
          "type": "address"
        }
      ],
      "payable": false,
      "stateMutability": "view",
      "type": "function"
    },
    {
      "constant": true,
      "inputs": [
        {
          "name": "",
          "type": "bytes32"
        }
      ],
      "name": "stakedContentHostEarning",
      "outputs": [
        {
          "name": "",
          "type": "uint256"
        }
      ],
      "payable": false,
      "stateMutability": "view",
      "type": "function"
    },
    {
      "inputs": [
        {
          "name": "_settingTAOId",
          "type": "address"
        },
        {
          "name": "_aoSettingAddress",
          "type": "address"
        },
        {
          "name": "_aoIonAddress",
          "type": "address"
        },
        {
          "name": "_nameFactoryAddress",
          "type": "address"
        },
        {
          "name": "_pathosAddress",
          "type": "address"
        },
        {
          "name": "_ethosAddress",
          "type": "address"
        },
        {
          "name": "_aoContentAddress",
          "type": "address"
        },
        {
          "name": "_nameTAOPositionAddress",
          "type": "address"
        }
      ],
      "payable": false,
      "stateMutability": "nonpayable",
      "type": "constructor"
    },
    {
      "anonymous": false,
      "inputs": [
        {
          "indexed": true,
          "name": "recipient",
          "type": "address"
        },
        {
          "indexed": true,
          "name": "purchaseReceiptId",
          "type": "bytes32"
        },
        {
          "indexed": false,
          "name": "price",
          "type": "uint256"
        },
        {
          "indexed": false,
          "name": "recipientProfitPercentage",
          "type": "uint256"
        },
        {
          "indexed": false,
          "name": "recipientPaymentEarning",
          "type": "uint256"
        },
        {
          "indexed": false,
          "name": "recipientType",
          "type": "uint8"
        }
      ],
      "name": "PaymentEarningEscrowed",
      "type": "event"
    },
    {
      "anonymous": false,
      "inputs": [
        {
          "indexed": true,
          "name": "recipient",
          "type": "address"
        },
        {
          "indexed": true,
          "name": "purchaseReceiptId",
          "type": "bytes32"
        },
        {
          "indexed": false,
          "name": "totalInflationBonusAmount",
          "type": "uint256"
        },
        {
          "indexed": false,
          "name": "recipientProfitPercentage",
          "type": "uint256"
        },
        {
          "indexed": false,
          "name": "recipientInflationBonus",
          "type": "uint256"
        },
        {
          "indexed": false,
          "name": "recipientType",
          "type": "uint8"
        }
      ],
      "name": "InflationBonusEscrowed",
      "type": "event"
    },
    {
      "anonymous": false,
      "inputs": [
        {
          "indexed": true,
          "name": "recipient",
          "type": "address"
        },
        {
          "indexed": true,
          "name": "purchaseReceiptId",
          "type": "bytes32"
        },
        {
          "indexed": false,
          "name": "paymentEarning",
          "type": "uint256"
        },
        {
          "indexed": false,
          "name": "inflationBonus",
          "type": "uint256"
        },
        {
          "indexed": false,
          "name": "recipientType",
          "type": "uint8"
        }
      ],
      "name": "EarningUnescrowed",
      "type": "event"
    },
    {
      "anonymous": false,
      "inputs": [
        {
          "indexed": true,
          "name": "nameId",
          "type": "address"
        },
        {
          "indexed": true,
          "name": "purchaseReceiptId",
          "type": "bytes32"
        },
        {
          "indexed": false,
          "name": "amount",
          "type": "uint256"
        }
      ],
      "name": "PathosEarned",
      "type": "event"
    },
    {
      "anonymous": false,
      "inputs": [
        {
          "indexed": true,
          "name": "nameId",
          "type": "address"
        },
        {
          "indexed": true,
          "name": "purchaseReceiptId",
          "type": "bytes32"
        },
        {
          "indexed": false,
          "name": "amount",
          "type": "uint256"
        }
      ],
      "name": "EthosEarned",
      "type": "event"
    },
    {
      "constant": false,
      "inputs": [
        {
          "name": "_theAO",
          "type": "address"
        }
      ],
      "name": "transferOwnership",
      "outputs": [],
      "payable": false,
      "stateMutability": "nonpayable",
      "type": "function"
    },
    {
      "constant": false,
      "inputs": [
        {
          "name": "_account",
          "type": "address"
        },
        {
          "name": "_whitelist",
          "type": "bool"
        }
      ],
      "name": "setWhitelist",
      "outputs": [],
      "payable": false,
      "stateMutability": "nonpayable",
      "type": "function"
    },
    {
      "constant": false,
      "inputs": [
        {
          "name": "_settingTAOId",
          "type": "address"
        }
      ],
      "name": "setSettingTAOId",
      "outputs": [],
      "payable": false,
      "stateMutability": "nonpayable",
      "type": "function"
    },
    {
      "constant": false,
      "inputs": [
        {
          "name": "_aoSettingAddress",
          "type": "address"
        }
      ],
      "name": "setAOSettingAddress",
      "outputs": [],
      "payable": false,
      "stateMutability": "nonpayable",
      "type": "function"
    },
    {
      "constant": false,
      "inputs": [
        {
          "name": "_aoIonAddress",
          "type": "address"
        }
      ],
      "name": "setAOIonAddress",
      "outputs": [],
      "payable": false,
      "stateMutability": "nonpayable",
      "type": "function"
    },
    {
      "constant": false,
      "inputs": [
        {
          "name": "_nameFactoryAddress",
          "type": "address"
        }
      ],
      "name": "setNameFactoryAddress",
      "outputs": [],
      "payable": false,
      "stateMutability": "nonpayable",
      "type": "function"
    },
    {
      "constant": false,
      "inputs": [
        {
          "name": "_pathosAddress",
          "type": "address"
        }
      ],
      "name": "setPathosAddress",
      "outputs": [],
      "payable": false,
      "stateMutability": "nonpayable",
      "type": "function"
    },
    {
      "constant": false,
      "inputs": [
        {
          "name": "_ethosAddress",
          "type": "address"
        }
      ],
      "name": "setEthosAddress",
      "outputs": [],
      "payable": false,
      "stateMutability": "nonpayable",
      "type": "function"
    },
    {
      "constant": false,
      "inputs": [
        {
          "name": "_aoContentAddress",
          "type": "address"
        }
      ],
      "name": "setAOContentAddress",
      "outputs": [],
      "payable": false,
      "stateMutability": "nonpayable",
      "type": "function"
    },
    {
      "constant": false,
      "inputs": [
        {
          "name": "_aoStakedContentAddress",
          "type": "address"
        }
      ],
      "name": "setAOStakedContentAddress",
      "outputs": [],
      "payable": false,
      "stateMutability": "nonpayable",
      "type": "function"
    },
    {
      "constant": false,
      "inputs": [
        {
          "name": "_aoContentHostAddress",
          "type": "address"
        }
      ],
      "name": "setAOContentHostAddress",
      "outputs": [],
      "payable": false,
      "stateMutability": "nonpayable",
      "type": "function"
    },
    {
      "constant": false,
      "inputs": [
        {
          "name": "_aoPurchaseReceiptAddress",
          "type": "address"
        }
      ],
      "name": "setAOPurchaseReceiptAddress",
      "outputs": [],
      "payable": false,
      "stateMutability": "nonpayable",
      "type": "function"
    },
    {
      "constant": false,
      "inputs": [
        {
          "name": "_nameTAOPositionAddress",
          "type": "address"
        }
      ],
      "name": "setNameTAOPositionAddress",
      "outputs": [],
      "payable": false,
      "stateMutability": "nonpayable",
      "type": "function"
    },
    {
      "constant": false,
      "inputs": [
        {
          "name": "_purchaseReceiptId",
          "type": "bytes32"
        }
      ],
      "name": "calculateEarning",
      "outputs": [
        {
          "name": "",
          "type": "bool"
        }
      ],
      "payable": false,
      "stateMutability": "nonpayable",
      "type": "function"
    },
    {
      "constant": false,
      "inputs": [
        {
          "name": "_purchaseReceiptId",
          "type": "bytes32"
        }
      ],
      "name": "releaseEarning",
      "outputs": [
        {
          "name": "",
          "type": "bool"
        }
      ],
      "payable": false,
      "stateMutability": "nonpayable",
      "type": "function"
    },
    {
      "constant": true,
      "inputs": [
        {
          "name": "_stakedContentId",
          "type": "bytes32"
        }
      ],
      "name": "getTotalStakedContentEarning",
      "outputs": [
        {
          "name": "",
          "type": "uint256"
        },
        {
          "name": "",
          "type": "uint256"
        },
        {
          "name": "",
          "type": "uint256"
        }
      ],
      "payable": false,
      "stateMutability": "view",
      "type": "function"
    }
  ],
  "bytecode": "0x60806040523480156200001157600080fd5b5060405161010080620052a883398101806040526101008110156200003557600080fd5b508051602082015160408301516060840151608085015160a086015160c087015160e09097015160008054600160a060020a031916331790559596949593949293919290916200008e8864010000000062000128810204565b620000a287640100000000620002bb810204565b620000b686640100000000620003c0810204565b620000ca85640100000000620004c5810204565b620000de84640100000000620005ca810204565b620000f283640100000000620006cf810204565b6200010682640100000000620007d4810204565b6200011a81640100000000620008d9810204565b5050505050505050620009d4565b600054600154604080517ff66afcac000000000000000000000000000000000000000000000000000000008152336004820152600160a060020a0393841660248201529290911660448301525173__AOLibrary_____________________________9163f66afcac916064808301926020929190829003018186803b158015620001b157600080fd5b505af4158015620001c6573d6000803e3d6000fd5b505050506040513d6020811015620001dd57600080fd5b50511515620001eb57600080fd5b604080517f2fca5414000000000000000000000000000000000000000000000000000000008152600160a060020a0383166004820152905173__AOLibrary_____________________________91632fca5414916024808301926020929190829003018186803b1580156200025f57600080fd5b505af415801562000274573d6000803e3d6000fd5b505050506040513d60208110156200028b57600080fd5b505115156200029957600080fd5b60038054600160a060020a031916600160a060020a0392909216919091179055565b600054600154604080517ff66afcac000000000000000000000000000000000000000000000000000000008152336004820152600160a060020a0393841660248201529290911660448301525173__AOLibrary_____________________________9163f66afcac916064808301926020929190829003018186803b1580156200034457600080fd5b505af415801562000359573d6000803e3d6000fd5b505050506040513d60208110156200037057600080fd5b505115156200037e57600080fd5b600160a060020a03811615156200039457600080fd5b60048054600160a060020a03909216600160a060020a03199283168117909155600d8054909216179055565b600054600154604080517ff66afcac000000000000000000000000000000000000000000000000000000008152336004820152600160a060020a0393841660248201529290911660448301525173__AOLibrary_____________________________9163f66afcac916064808301926020929190829003018186803b1580156200044957600080fd5b505af41580156200045e573d6000803e3d6000fd5b505050506040513d60208110156200047557600080fd5b505115156200048357600080fd5b600160a060020a03811615156200049957600080fd5b60058054600160a060020a03909216600160a060020a03199283168117909155600e8054909216179055565b600054600154604080517ff66afcac000000000000000000000000000000000000000000000000000000008152336004820152600160a060020a0393841660248201529290911660448301525173__AOLibrary_____________________________9163f66afcac916064808301926020929190829003018186803b1580156200054e57600080fd5b505af415801562000563573d6000803e3d6000fd5b505050506040513d60208110156200057a57600080fd5b505115156200058857600080fd5b600160a060020a03811615156200059e57600080fd5b60068054600160a060020a03909216600160a060020a03199283168117909155600f8054909216179055565b600054600154604080517ff66afcac000000000000000000000000000000000000000000000000000000008152336004820152600160a060020a0393841660248201529290911660448301525173__AOLibrary_____________________________9163f66afcac916064808301926020929190829003018186803b1580156200065357600080fd5b505af415801562000668573d6000803e3d6000fd5b505050506040513d60208110156200067f57600080fd5b505115156200068d57600080fd5b600160a060020a0381161515620006a357600080fd5b60078054600160a060020a03909216600160a060020a0319928316811790915560108054909216179055565b600054600154604080517ff66afcac000000000000000000000000000000000000000000000000000000008152336004820152600160a060020a0393841660248201529290911660448301525173__AOLibrary_____________________________9163f66afcac916064808301926020929190829003018186803b1580156200075857600080fd5b505af41580156200076d573d6000803e3d6000fd5b505050506040513d60208110156200078457600080fd5b505115156200079257600080fd5b600160a060020a0381161515620007a857600080fd5b60088054600160a060020a03909216600160a060020a0319928316811790915560118054909216179055565b600054600154604080517ff66afcac000000000000000000000000000000000000000000000000000000008152336004820152600160a060020a0393841660248201529290911660448301525173__AOLibrary_____________________________9163f66afcac916064808301926020929190829003018186803b1580156200085d57600080fd5b505af415801562000872573d6000803e3d6000fd5b505050506040513d60208110156200088957600080fd5b505115156200089757600080fd5b600160a060020a0381161515620008ad57600080fd5b60098054600160a060020a03909216600160a060020a0319928316811790915560128054909216179055565b600054600154604080517ff66afcac000000000000000000000000000000000000000000000000000000008152336004820152600160a060020a0393841660248201529290911660448301525173__AOLibrary_____________________________9163f66afcac916064808301926020929190829003018186803b1580156200096257600080fd5b505af415801562000977573d6000803e3d6000fd5b505050506040513d60208110156200098e57600080fd5b505115156200099c57600080fd5b600160a060020a0381161515620009b257600080fd5b60018054600160a060020a031916600160a060020a0392909216919091179055565b6148c480620009e46000396000f3fe608060405234801561001057600080fd5b50600436106102785760003560e060020a900480638c92436111610155578063cd109f4c116100c7578063e41800e21161008b578063e41800e214610706578063e669ecab14610723578063e7c501851461072b578063ee9f742714610733578063f2fde38b14610750578063f97106b51461077657610278565b8063cd109f4c14610651578063cd5facb214610677578063d3bd13431461069d578063d6830af3146106ba578063d7ed73bd146106e057610278565b8063a9b6b38e11610119578063a9b6b38e146105d0578063bc406206146105d8578063bc6abaa2146105e0578063be03a7de14610606578063c26012cd14610623578063c7bc27af1461062b57610278565b80638c924361146105485780639093a7901461056e57806393ac4c1c1461057657806395f04f27146105a25780639b19251a146105aa57610278565b80634486ab0a116101ee5780637658f1d6116101b25780637658f1d614610478578063793c82281461049557806380504a96146104bb57806385cb86c8146104c357806389a83246146104cb5780638a9e7fdc146104f157610278565b80634486ab0a146103e35780634c9e0913146103eb5780634ef033f01461041c57806353d6fd59146104245780635cfaf2ef1461045257610278565b80631f032c24116102405780631f032c24146103115780631fe7f23c1461032e57806335385ec8146103545780633c56b0111461037a5780633e36144f1461038257806341fddf9d146103a857610278565b806306fd70881461027d578063078753ad146102a5578063101f6d79146102c95780631add5b98146102e35780631d0138ff14610309575b600080fd5b6102a36004803603602081101561029357600080fd5b5035600160a060020a031661079c565b005b6102ad610886565b60408051600160a060020a039092168252519081900360200190f35b6102d1610895565b60408051918252519081900360200190f35b6102a3600480360360208110156102f957600080fd5b5035600160a060020a031661089b565b6102ad610985565b6102d16004803603602081101561032757600080fd5b5035610994565b6102d16004803603602081101561034457600080fd5b5035600160a060020a03166109a6565b6102d16004803603602081101561036a57600080fd5b5035600160a060020a03166109b8565b6102ad6109ca565b6102a36004803603602081101561039857600080fd5b5035600160a060020a03166109d9565b6103c5600480360360208110156103be57600080fd5b5035610ac3565b60408051938452602084019290925282820152519081900360600190f35b6102ad610aec565b6104086004803603602081101561040157600080fd5b5035610afb565b604080519115158252519081900360200190f35b6102ad611082565b6102a36004803603604081101561043a57600080fd5b50600160a060020a0381351690602001351515611091565b6102a36004803603602081101561046857600080fd5b5035600160a060020a031661117a565b6102d16004803603602081101561048e57600080fd5b503561125a565b6102a3600480360360208110156104ab57600080fd5b5035600160a060020a031661126c565b6102d1611356565b6102ad61135c565b6102a3600480360360208110156104e157600080fd5b5035600160a060020a031661136b565b61051d6004803603604081101561050757600080fd5b50600160a060020a038135169060200135611455565b6040805195865260208601949094528484019290925260608401526080830152519081900360a00190f35b6102a36004803603602081101561055e57600080fd5b5035600160a060020a031661148f565b6102ad611579565b61051d6004803603604081101561058c57600080fd5b50600160a060020a038135169060200135611588565b6102ad6115c0565b610408600480360360208110156105c057600080fd5b5035600160a060020a03166115cf565b6102ad6115e4565b6102ad6115f3565b6102a3600480360360208110156105f657600080fd5b5035600160a060020a0316611602565b6102d16004803603602081101561061c57600080fd5b50356116ec565b6102d16116fe565b6102d16004803603602081101561064157600080fd5b5035600160a060020a0316611704565b6102d16004803603602081101561066757600080fd5b5035600160a060020a0316611716565b6102a36004803603602081101561068d57600080fd5b5035600160a060020a0316611728565b61051d600480360360208110156106b357600080fd5b5035611812565b6102a3600480360360208110156106d057600080fd5b5035600160a060020a0316611841565b6102d1600480360360208110156106f657600080fd5b5035600160a060020a03166119b6565b6104086004803603602081101561071c57600080fd5b50356119c8565b6102ad611ad4565b6102ad611ae3565b6102d16004803603602081101561074957600080fd5b5035611af2565b6102a36004803603602081101561076657600080fd5b5035600160a060020a0316611b04565b6102a36004803603602081101561078c57600080fd5b5035600160a060020a0316611be4565b6000546001546040805160e260020a633d9abf2b028152336004820152600160a060020a0393841660248201529290911660448301525173__AOLibrary_____________________________9163f66afcac916064808301926020929190829003018186803b15801561080e57600080fd5b505af4158015610822573d6000803e3d6000fd5b505050506040513d602081101561083857600080fd5b5051151561084557600080fd5b600160a060020a038116151561085a57600080fd5b60048054600160a060020a03909216600160a060020a03199283168117909155600d8054909216179055565b600a54600160a060020a031681565b60165481565b6000546001546040805160e260020a633d9abf2b028152336004820152600160a060020a0393841660248201529290911660448301525173__AOLibrary_____________________________9163f66afcac916064808301926020929190829003018186803b15801561090d57600080fd5b505af4158015610921573d6000803e3d6000fd5b505050506040513d602081101561093757600080fd5b5051151561094457600080fd5b600160a060020a038116151561095957600080fd5b60088054600160a060020a03909216600160a060020a0319928316811790915560118054909216179055565b600454600160a060020a031681565b60266020526000908152604090205481565b601e6020526000908152604090205481565b601b6020526000908152604090205481565b600554600160a060020a031681565b6000546001546040805160e260020a633d9abf2b028152336004820152600160a060020a0393841660248201529290911660448301525173__AOLibrary_____________________________9163f66afcac916064808301926020929190829003018186803b158015610a4b57600080fd5b505af4158015610a5f573d6000803e3d6000fd5b505050506040513d6020811015610a7557600080fd5b50511515610a8257600080fd5b600160a060020a0381161515610a9757600080fd5b600a8054600160a060020a03909216600160a060020a0319928316811790915560138054909216179055565b600081815260236020908152604080832054602483528184205460259093529220549193909250565b600754600160a060020a031681565b3360009081526002602052604081205460ff161515600114610b1c57600080fd5b601554604080517f762fee18000000000000000000000000000000000000000000000000000000008152600481018590529051600160a060020a039092169163762fee1891602480820192602092909190829003018186803b158015610b8157600080fd5b505afa158015610b95573d6000803e3d6000fd5b505050506040513d6020811015610bab57600080fd5b50511515610bb857600080fd5b60008281526019602052604090205460ff168015610be557506000828152601a602052604090205460ff16155b1515610bf057600080fd5b6000828152601a6020526040808220805460ff19166001179055601554815160e060020a632dff0d0d028152600481018690529151839283928392600160a060020a0390911691632dff0d0d9160248083019286929190829003018186803b158015610c5b57600080fd5b505afa158015610c6f573d6000803e3d6000fd5b505050506040513d6000823e601f3d908101601f19168201604052610140811015610c9957600080fd5b8151602083015160408401516060850151608086015160a087015160c088015160e08901805197999698959794969395929491939283019291640100000000811115610ce457600080fd5b82016020810184811115610cf757600080fd5b8151640100000000811182820187101715610d1157600080fd5b5050929190602001805190602001909291908051906020019092919050505050505050955050509350935093506000601360009054906101000a9004600160a060020a0316600160a060020a0316632dff0d0d856040518263ffffffff1660e060020a028152600401808281526020019150506101006040518083038186803b158015610d9d57600080fd5b505afa158015610db1573d6000803e3d6000fd5b505050506040513d610100811015610dc857600080fd5b50602001516014546040805160e060020a632dff0d0d028152600481018990529051929350600092600160a060020a0390921691632dff0d0d916024808201928692909190829003018186803b158015610e2157600080fd5b505afa158015610e35573d6000803e3d6000fd5b505050506040513d6000823e601f3d908101601f1916820160405260a0811015610e5e57600080fd5b8151602083015160408401516060850180519395929491939183019291640100000000811115610e8d57600080fd5b82016020810184811115610ea057600080fd5b8151640100000000811182820187101715610eba57600080fd5b50509291906020018051640100000000811115610ed657600080fd5b82016020810184811115610ee957600080fd5b8151640100000000811182820187101715610f0357600080fd5b50506012546040805160e060020a632dff0d0d028152600481018f90529051979a5060009950600160a060020a039091169750632dff0d0d96602480830197508a96509094509084900301915082905086803b158015610f6257600080fd5b505afa158015610f76573d6000803e3d6000fd5b505050506040513d6000823e601f3d908101601f19168201604052610120811015610fa057600080fd5b8151602083015160408401516060850151608086015160a087015160c088015160e08901516101008a018051989a9799969895979496939592949193820192640100000000811115610ff157600080fd5b8201602081018481111561100457600080fd5b815164010000000081118282018710171561101e57600080fd5b50509291905050505050505050505091505061104186888b848811876000611cce565b61105286888b848811866001611cce565b60005461107390879089908c9085891190600160a060020a03166002611cce565b50600198975050505050505050565b600154600160a060020a031681565b6000546001546040805160e260020a633d9abf2b028152336004820152600160a060020a0393841660248201529290911660448301525173__AOLibrary_____________________________9163f66afcac916064808301926020929190829003018186803b15801561110357600080fd5b505af4158015611117573d6000803e3d6000fd5b505050506040513d602081101561112d57600080fd5b5051151561113a57600080fd5b600160a060020a038216151561114f57600080fd5b600160a060020a03919091166000908152600260205260409020805460ff1916911515919091179055565b6000546001546040805160e260020a633d9abf2b028152336004820152600160a060020a0393841660248201529290911660448301525173__AOLibrary_____________________________9163f66afcac916064808301926020929190829003018186803b1580156111ec57600080fd5b505af4158015611200573d6000803e3d6000fd5b505050506040513d602081101561121657600080fd5b5051151561122357600080fd5b600160a060020a038116151561123857600080fd5b60018054600160a060020a031916600160a060020a0392909216919091179055565b60256020526000908152604090205481565b6000546001546040805160e260020a633d9abf2b028152336004820152600160a060020a0393841660248201529290911660448301525173__AOLibrary_____________________________9163f66afcac916064808301926020929190829003018186803b1580156112de57600080fd5b505af41580156112f2573d6000803e3d6000fd5b505050506040513d602081101561130857600080fd5b5051151561131557600080fd5b600160a060020a038116151561132a57600080fd5b60078054600160a060020a03909216600160a060020a0319928316811790915560108054909216179055565b60175481565b600954600160a060020a031681565b6000546001546040805160e260020a633d9abf2b028152336004820152600160a060020a0393841660248201529290911660448301525173__AOLibrary_____________________________9163f66afcac916064808301926020929190829003018186803b1580156113dd57600080fd5b505af41580156113f1573d6000803e3d6000fd5b505050506040513d602081101561140757600080fd5b5051151561141457600080fd5b600160a060020a038116151561142957600080fd5b60098054600160a060020a03909216600160a060020a0319928316811790915560128054909216179055565b6021602090815260009283526040808420909152908252902080546001820154600283015460038401546004909401549293919290919085565b6000546001546040805160e260020a633d9abf2b028152336004820152600160a060020a0393841660248201529290911660448301525173__AOLibrary_____________________________9163f66afcac916064808301926020929190829003018186803b15801561150157600080fd5b505af4158015611515573d6000803e3d6000fd5b505050506040513d602081101561152b57600080fd5b5051151561153857600080fd5b600160a060020a038116151561154d57600080fd5b60068054600160a060020a03909216600160a060020a03199283168117909155600f8054909216179055565b600854600160a060020a031681565b602080805260009283526040808420909152908252902080546001820154600283015460038401546004909401549293919290919085565b600b54600160a060020a031681565b60026020526000908152604090205460ff1681565b600054600160a060020a031681565b600654600160a060020a031681565b6000546001546040805160e260020a633d9abf2b028152336004820152600160a060020a0393841660248201529290911660448301525173__AOLibrary_____________________________9163f66afcac916064808301926020929190829003018186803b15801561167457600080fd5b505af4158015611688573d6000803e3d6000fd5b505050506040513d602081101561169e57600080fd5b505115156116ab57600080fd5b600160a060020a03811615156116c057600080fd5b600c8054600160a060020a03909216600160a060020a0319928316811790915560158054909216179055565b60236020526000908152604090205481565b60185481565b601f6020526000908152604090205481565b601d6020526000908152604090205481565b6000546001546040805160e260020a633d9abf2b028152336004820152600160a060020a0393841660248201529290911660448301525173__AOLibrary_____________________________9163f66afcac916064808301926020929190829003018186803b15801561179a57600080fd5b505af41580156117ae573d6000803e3d6000fd5b505050506040513d60208110156117c457600080fd5b505115156117d157600080fd5b600160a060020a03811615156117e657600080fd5b600b8054600160a060020a03909216600160a060020a0319928316811790915560148054909216179055565b602260205260009081526040902080546001820154600283015460038401546004909401549293919290919085565b6000546001546040805160e260020a633d9abf2b028152336004820152600160a060020a0393841660248201529290911660448301525173__AOLibrary_____________________________9163f66afcac916064808301926020929190829003018186803b1580156118b357600080fd5b505af41580156118c7573d6000803e3d6000fd5b505050506040513d60208110156118dd57600080fd5b505115156118ea57600080fd5b604080517f2fca5414000000000000000000000000000000000000000000000000000000008152600160a060020a0383166004820152905173__AOLibrary_____________________________91632fca5414916024808301926020929190829003018186803b15801561195d57600080fd5b505af4158015611971573d6000803e3d6000fd5b505050506040513d602081101561198757600080fd5b5051151561199457600080fd5b60038054600160a060020a031916600160a060020a0392909216919091179055565b601c6020526000908152604090205481565b3360009081526002602052604081205460ff1615156001146119e957600080fd5b601554604080517f762fee18000000000000000000000000000000000000000000000000000000008152600481018590529051600160a060020a039092169163762fee1891602480820192602092909190829003018186803b158015611a4e57600080fd5b505afa158015611a62573d6000803e3d6000fd5b505050506040513d6020811015611a7857600080fd5b50511515611a8557600080fd5b60008281526019602052604090205460ff1615611aa157600080fd5b6000828152601960205260409020805460ff19166001179055611ac382612616565b611acc82612645565b506001919050565b600c54600160a060020a031681565b600354600160a060020a031681565b60246020526000908152604090205481565b6000546001546040805160e260020a633d9abf2b028152336004820152600160a060020a0393841660248201529290911660448301525173__AOLibrary_____________________________9163f66afcac916064808301926020929190829003018186803b158015611b7657600080fd5b505af4158015611b8a573d6000803e3d6000fd5b505050506040513d6020811015611ba057600080fd5b50511515611bad57600080fd5b600160a060020a0381161515611bc257600080fd5b60008054600160a060020a031916600160a060020a0392909216919091179055565b6000546001546040805160e260020a633d9abf2b028152336004820152600160a060020a0393841660248201529290911660448301525173__AOLibrary_____________________________9163f66afcac916064808301926020929190829003018186803b158015611c5657600080fd5b505af4158015611c6a573d6000803e3d6000fd5b505050506040513d6020811015611c8057600080fd5b50511515611c8d57600080fd5b600160a060020a0381161515611ca257600080fd5b60058054600160a060020a03909216600160a060020a03199283168117909155600e8054909216179055565b60008160ff1610158015611ce6575060028160ff1611155b1515611cf157600080fd5b60008080808060ff8616151561208657600160a060020a0387166000908152602080805260408083208c8452909152812060018101805460028301805460038501805494879055918690559085905560048401949094559750919550909250611d60868663ffffffff61302d16565b601654909450611d76908563ffffffff61302d16565b601655600160a060020a0388166000908152601b6020526040902054611da2908563ffffffff61302d16565b600160a060020a0389166000908152601b60209081526040808320939093558e8252602390522054611dda908563ffffffff61302d16565b60008d8152602360205260409020558815611e3657600160a060020a0388166000908152601e6020526040902054611e18908563ffffffff61302d16565b600160a060020a0389166000908152601e6020526040902055611e79565b600160a060020a0388166000908152601d6020526040902054611e5f908563ffffffff61302d16565b600160a060020a0389166000908152601d60205260409020555b600160a060020a0388166000908152601f6020526040902054611ea2908663ffffffff61302d16565b600160a060020a03808a166000818152601f602090815260409182902094909455601054600f54825160e060020a63029b7d5302815260048101949094529151908416946340c10f1994929092169263029b7d53926024808301939192829003018186803b158015611f1357600080fd5b505afa158015611f27573d6000803e3d6000fd5b505050506040513d6020811015611f3d57600080fd5b50516040805160e060020a63ffffffff8516028152600160a060020a039092166004830152602482018790525160448083019260209291908290030181600087803b158015611f8b57600080fd5b505af1158015611f9f573d6000803e3d6000fd5b505050506040513d6020811015611fb557600080fd5b50511515611fc257600080fd5b600f546040805160e060020a63029b7d53028152600160a060020a038b8116600483015291518d93929092169163029b7d5391602480820192602092909190829003018186803b15801561201557600080fd5b505afa158015612029573d6000803e3d6000fd5b505050506040513d602081101561203f57600080fd5b5051604080518681529051600160a060020a03909216917f21c3387baaff2d916ae2cd1669d5f94fe9583036b96ef82acb3a4565815cfce89181900360200190a350612514565b8560ff16600114156124435750600160a060020a03861660009081526021602090815260408083208b8452909152812060018101805460028301805460048501805494879055918690556003850186905594905596509194506120ef868663ffffffff61302d16565b601754909450612105908563ffffffff61302d16565b601755600160a060020a0388166000908152601c6020526040902054612131908563ffffffff61302d16565b600160a060020a0389166000908152601c60209081526040808320939093558e8252602490522054612169908563ffffffff61302d16565b60008d8152602460209081526040808320939093558d8252602690522054612197908563ffffffff61302d16565b60008c81526026602052604090205588156121f357600160a060020a0388166000908152601e60205260409020546121d5908563ffffffff61302d16565b600160a060020a0389166000908152601e6020526040902055612236565b600160a060020a0388166000908152601d602052604090205461221c908563ffffffff61302d16565b600160a060020a0389166000908152601d60205260409020555b600160a060020a0388166000908152601f602052604090205461225f908663ffffffff61302d16565b600160a060020a03808a166000818152601f602090815260409182902094909455601154600f54825160e060020a63029b7d5302815260048101949094529151908416946340c10f1994929092169263029b7d53926024808301939192829003018186803b1580156122d057600080fd5b505afa1580156122e4573d6000803e3d6000fd5b505050506040513d60208110156122fa57600080fd5b50516040805160e060020a63ffffffff8516028152600160a060020a039092166004830152602482018690525160448083019260209291908290030181600087803b15801561234857600080fd5b505af115801561235c573d6000803e3d6000fd5b505050506040513d602081101561237257600080fd5b5051151561237f57600080fd5b600f546040805160e060020a63029b7d53028152600160a060020a038b8116600483015291518d93929092169163029b7d5391602480820192602092909190829003018186803b1580156123d257600080fd5b505afa1580156123e6573d6000803e3d6000fd5b505050506040513d60208110156123fc57600080fd5b5051604080518581529051600160a060020a03909216917f2a9470ba36cb39f146ccc29717c9098e046e556211964a2454021d1d9fe9dd559181900360200190a350612514565b600089815260226020526040812060018101805460028301805492859055849055600383018490556004830193909355919650909450612489868663ffffffff61302d16565b60185490945061249f908563ffffffff61302d16565b601855600160a060020a0388166000908152601f60205260409020546124cb908663ffffffff61302d16565b600160a060020a0389166000908152601f60209081526040808320939093558e8252602590522054612503908563ffffffff61302d16565b60008d815260256020526040902055505b600e54604080517f8a066045000000000000000000000000000000000000000000000000000000008152600160a060020a038a811660048301526024820187905291519190921691638a0660459160448083019260209291908290030181600087803b15801561258357600080fd5b505af1158015612597573d6000803e3d6000fd5b505050506040513d60208110156125ad57600080fd5b505115156125ba57600080fd5b604080518681526020810186905260ff88168183015290518a91600160a060020a038a16917f212de36dcbb73c749ef074ec2565ecd3e461ebb1d28ea6021effdb8be7d44cda9181900360600190a35050505050505050505050565b60008061262283613040565b9150915060006126328484613680565b905061263f848383613da2565b50505050565b600061264f614098565b50915050600061265e8361448f565b90506000806000601560009054906101000a9004600160a060020a0316600160a060020a0316632dff0d0d876040518263ffffffff1660e060020a0281526004018082815260200191505060006040518083038186803b1580156126c157600080fd5b505afa1580156126d5573d6000803e3d6000fd5b505050506040513d6000823e601f3d908101601f191682016040526101408110156126ff57600080fd5b8151602083015160408401516060850151608086015160a087015160c088015160e0890180519799969895979496939592949193928301929164010000000081111561274a57600080fd5b8201602081018481111561275d57600080fd5b815164010000000081118282018710171561277757600080fd5b50506013546040805160e060020a632dff0d0d028152600481018d905290519c9f509a9d50989b5060009a8b9a600160a060020a03909a1699632dff0d0d995060248082019950610100985091965086900301935084925088915050803b1580156127e157600080fd5b505afa1580156127f5573d6000803e3d6000fd5b505050506040513d61010081101561280c57600080fd5b50602081015160a0909101516014546040805160e060020a632dff0d0d028152600481018a90529051939550919350600092600160a060020a0390911691632dff0d0d9160248083019286929190829003018186803b15801561286e57600080fd5b505afa158015612882573d6000803e3d6000fd5b505050506040513d6000823e601f3d908101601f1916820160405260a08110156128ab57600080fd5b81516020830151604084015160608501805193959294919391830192916401000000008111156128da57600080fd5b820160208101848111156128ed57600080fd5b815164010000000081118282018710171561290757600080fd5b5050929190602001805164010000000081111561292357600080fd5b8201602081018481111561293657600080fd5b815164010000000081118282018710171561295057600080fd5b50509291905050505050925050506000871115612f0a57601254604080517f65cf0ace000000000000000000000000000000000000000000000000000000008152600481018790529051600092600160a060020a0316916365cf0ace916024808301926020929190829003018186803b1580156129cc57600080fd5b505afa1580156129e0573d6000803e3d6000fd5b505050506040513d60208110156129f657600080fd5b5051612a03576000612a95565b612a9573__AOLibrary_____________________________63caf297656040518163ffffffff1660e060020a02815260040160206040518083038186803b158015612a4d57600080fd5b505af4158015612a61573d6000803e3d6000fd5b505050506040513d6020811015612a7757600080fd5b5051612a898a8663ffffffff61482816565b9063ffffffff61485116565b905060006020600086600160a060020a0316600160a060020a0316815260200190815260200160002060008c81526020019081526020016000209050818160020181905550600e60009054906101000a9004600160a060020a0316600160a060020a031663d6c9e1898683600201546040518363ffffffff1660e060020a0281526004018083600160a060020a0316600160a060020a0316815260200182815260200192505050602060405180830381600087803b158015612b5657600080fd5b505af1158015612b6a573d6000803e3d6000fd5b505050506040513d6020811015612b8057600080fd5b50511515612b8d57600080fd5b6002810154604080518b8152602081018790528082019290925260006060830152518c91600160a060020a038816916000805160206148798339815191529181900360800190a3600160a060020a03831660009081526021602090815260408083208e84529091529020612c078a8463ffffffff61486616565b60028201819055600e546040805160e060020a63d6c9e189028152600160a060020a03888116600483015260248201949094529051929091169163d6c9e189916044808201926020929091908290030181600087803b158015612c6957600080fd5b505af1158015612c7d573d6000803e3d6000fd5b505050506040513d6020811015612c9357600080fd5b50511515612ca057600080fd5b8b84600160a060020a03166000805160206148798339815191528c612d3e8973__AOLibrary_____________________________63caf297656040518163ffffffff1660e060020a02815260040160206040518083038186803b158015612d0657600080fd5b505af4158015612d1a573d6000803e3d6000fd5b505050506040513d6020811015612d3057600080fd5b50519063ffffffff61486616565b60028601546040805193845260208401929092528282015260016060830152519081900360800190a36000602260008e81526020019081526020016000209050612e0473__AOLibrary_____________________________63caf297656040518163ffffffff1660e060020a02815260040160206040518083038186803b158015612dc857600080fd5b505af4158015612ddc573d6000803e3d6000fd5b505050506040513d6020811015612df257600080fd5b5051612a898d8f63ffffffff61482816565b60028201819055600e54600080546040805160e060020a63d6c9e189028152600160a060020a03928316600482015260248101959095525192169263d6c9e1899260448083019360209383900390910190829087803b158015612e6657600080fd5b505af1158015612e7a573d6000803e3d6000fd5b505050506040513d6020811015612e9057600080fd5b50511515612e9d57600080fd5b8c6000809054906101000a9004600160a060020a0316600160a060020a03166000805160206148798339815191528d8f85600201546002604051808581526020018481526020018381526020018260ff16815260200194505050505060405180910390a350505050613022565b60408051600080825260208201859052818301819052606082015290518a91600160a060020a038616916000805160206148798339815191529181900360800190a38881600160a060020a03166000805160206148798339815191526000612fb38673__AOLibrary_____________________________63caf297656040518163ffffffff1660e060020a02815260040160206040518083038186803b158015612d0657600080fd5b60408051928352602083019190915260008282015260016060830152519081900360800190a36000805460408051838152602081018c90528082019390935260026060840152518b92600160a060020a0390921691600080516020614879833981519152919081900360800190a35b505050505050505050565b8181018281101561303a57fe5b92915050565b600080600061304d614098565b50509050600080600080601560009054906101000a9004600160a060020a0316600160a060020a0316632dff0d0d896040518263ffffffff1660e060020a0281526004018082815260200191505060006040518083038186803b1580156130b357600080fd5b505afa1580156130c7573d6000803e3d6000fd5b505050506040513d6000823e601f3d908101601f191682016040526101408110156130f157600080fd5b8151602083015160408401516060850151608086015160a087015160c088015160e0890180519799969895979496939592949193928301929164010000000081111561313c57600080fd5b8201602081018481111561314f57600080fd5b815164010000000081118282018710171561316957600080fd5b505092919060200180519060200190929190805190602001909291905050505050505050945094509450945050600080601360009054906101000a9004600160a060020a0316600160a060020a0316632dff0d0d876040518263ffffffff1660e060020a028152600401808281526020019150506101006040518083038186803b1580156131f657600080fd5b505afa15801561320a573d6000803e3d6000fd5b505050506040513d61010081101561322157600080fd5b8101908080519060200190929190805190602001909291908051906020019092919080519060200190929190805190602001909291908051906020019092919080519060200190929190805190602001909291905050505050955050505092505060006020600084600160a060020a0316600160a060020a0316815260200190815260200160002060008c815260200190815260200160002090508a8160000181905550601260009054906101000a9004600160a060020a0316600160a060020a03166365cf0ace876040518263ffffffff1660e060020a0281526004018082815260200191505060206040518083038186803b15801561332157600080fd5b505afa158015613335573d6000803e3d6000fd5b505050506040513d602081101561334b57600080fd5b50516133585760006133de565b6133de73__AOLibrary_____________________________63caf297656040518163ffffffff1660e060020a02815260040160206040518083038186803b1580156133a257600080fd5b505af41580156133b6573d6000803e3d6000fd5b505050506040513d60208110156133cc57600080fd5b5051612a89868563ffffffff61482816565b816001018190555061355373__AOLibrary_____________________________63caf297656040518163ffffffff1660e060020a02815260040160206040518083038186803b15801561343057600080fd5b505af4158015613444573d6000803e3d6000fd5b505050506040513d602081101561345a57600080fd5b50516040805160e060020a63caf297650281529051612a899173__AOLibrary_____________________________9163caf2976591600480820192602092909190829003018186803b1580156134af57600080fd5b505af41580156134c3573d6000803e3d6000fd5b505050506040513d60208110156134d957600080fd5b50516040805160e060020a63caf297650281529051612a89918e916135479161353a918b9173__AOLibrary_____________________________9163caf2976591600480820192602092909190829003018186803b158015612d0657600080fd5b8b9063ffffffff61482816565b9063ffffffff61482816565b6003820155600e546001820154604080517f87d4ca93000000000000000000000000000000000000000000000000000000008152600160a060020a03898116600483015287811660248301526044820193909352905191909216916387d4ca939160648083019260209291908290030181600087803b1580156135d557600080fd5b505af11580156135e9573d6000803e3d6000fd5b505050506040513d60208110156135ff57600080fd5b5051151561360c57600080fd5b600181015460408051868152602081018590528082019290925260006060830152518c91600160a060020a038616917f2bc2599ff4713444a049b5e4a07d2cde6becf6e7fc7c4e041bc1cf36894f10ee9181900360800190a380600101548160030154995099505050505050505050915091565b60008061368b614098565b50506015546040805160e060020a632dff0d0d0281526004810188905290519293506000928392839283928392600160a060020a031691632dff0d0d9160248083019286929190829003018186803b1580156136e657600080fd5b505afa1580156136fa573d6000803e3d6000fd5b505050506040513d6000823e601f3d908101601f1916820160405261014081101561372457600080fd5b8151602083015160408401516060850151608086015160a087015160c088015160e0890180519799969895979496939592949193928301929164010000000081111561376f57600080fd5b8201602081018481111561378257600080fd5b815164010000000081118282018710171561379c57600080fd5b505092919060200180519060200190929190805190602001909291905050505050505050945094509450945094506000601360009054906101000a9004600160a060020a0316600160a060020a0316632dff0d0d866040518263ffffffff1660e060020a028152600401808281526020019150506101006040518083038186803b15801561382957600080fd5b505afa15801561383d573d6000803e3d6000fd5b505050506040513d61010081101561385457600080fd5b5060a001516014546040805160e060020a632dff0d0d028152600481018a90529051929350600092600160a060020a0390921691632dff0d0d916024808201928692909190829003018186803b1580156138ad57600080fd5b505afa1580156138c1573d6000803e3d6000fd5b505050506040513d6000823e601f3d908101601f1916820160405260a08110156138ea57600080fd5b815160208301516040840151606085018051939592949193918301929164010000000081111561391957600080fd5b8201602081018481111561392c57600080fd5b815164010000000081118282018710171561394657600080fd5b5050929190602001805164010000000081111561396257600080fd5b8201602081018481111561397557600080fd5b815164010000000081118282018710171561398f57600080fd5b505092919050505050509250505060006021600083600160a060020a0316600160a060020a0316815260200190815260200160002060008d815260200190815260200160002090508b81600001819055506139f38b8561486690919063ffffffff16565b8160010181905550613b0473__AOLibrary_____________________________63caf297656040518163ffffffff1660e060020a02815260040160206040518083038186803b158015613a4557600080fd5b505af4158015613a59573d6000803e3d6000fd5b505050506040513d6020811015613a6f57600080fd5b50516040805160e060020a63caf297650281529051612a899173__AOLibrary_____________________________9163caf2976591600480820192602092909190829003018186803b158015613ac457600080fd5b505af4158015613ad8573d6000803e3d6000fd5b505050506040513d6020811015613aee57600080fd5b5051612a898d6135478a8a63ffffffff61482816565b600480830191909155601254604080517f65cf0ace00000000000000000000000000000000000000000000000000000000815292830189905251600160a060020a03909116916365cf0ace916024808301926020929190829003018186803b158015613b6f57600080fd5b505afa158015613b83573d6000803e3d6000fd5b505050506040513d6020811015613b9957600080fd5b505115613c5957600e546001820154604080517f87d4ca93000000000000000000000000000000000000000000000000000000008152600160a060020a03898116600483015286811660248301526044820193909352905191909216916387d4ca939160648083019260209291908290030181600087803b158015613c1d57600080fd5b505af1158015613c31573d6000803e3d6000fd5b505050506040513d6020811015613c4757600080fd5b50511515613c5457600080fd5b613cef565b600e5460018201546040805160e060020a63d6c9e189028152600160a060020a03868116600483015260248201939093529051919092169163d6c9e1899160448083019260209291908290030181600087803b158015613cb857600080fd5b505af1158015613ccc573d6000803e3d6000fd5b505050506040513d6020811015613ce257600080fd5b50511515613cef57600080fd5b8b82600160a060020a03167f2bc2599ff4713444a049b5e4a07d2cde6becf6e7fc7c4e041bc1cf36894f10ee86613d678773__AOLibrary_____________________________63caf297656040518163ffffffff1660e060020a02815260040160206040518083038186803b158015612d0657600080fd5b600180870154604080519485526020850193909352838301526060830152519081900360800190a3600401549b9a5050505050505050505050565b6000613dac614098565b6015546040805160e060020a632dff0d0d028152600481018a9052905192955060009450600160a060020a039091169250632dff0d0d9160248083019286929190829003018186803b158015613e0157600080fd5b505afa158015613e15573d6000803e3d6000fd5b505050506040513d6000823e601f3d908101601f19168201604052610140811015613e3f57600080fd5b8151602083015160408401516060850151608086015160a087015160c088015160e08901805197999698959794969395929491939283019291640100000000811115613e8a57600080fd5b82016020810184811115613e9d57600080fd5b8151640100000000811182820187101715613eb757600080fd5b5050929190602001805190602001909291908051906020019092919050505050505050509450505050506000602260008781526020019081526020016000209050858160000181905550613f97613f8a73__AOLibrary_____________________________63caf297656040518163ffffffff1660e060020a02815260040160206040518083038186803b158015613f4e57600080fd5b505af4158015613f62573d6000803e3d6000fd5b505050506040513d6020811015613f7857600080fd5b5051612a89878763ffffffff61482816565b869063ffffffff61302d16565b60018201819055600e54600080546040805160e060020a63d6c9e189028152600160a060020a03928316600482015260248101959095525192169263d6c9e1899260448083019360209383900390910190829087803b158015613ff957600080fd5b505af115801561400d573d6000803e3d6000fd5b505050506040513d602081101561402357600080fd5b5051151561403057600080fd5b6000805460018301546040805186815260208101949094528381019190915260026060840152518892600160a060020a03909216917f2bc2599ff4713444a049b5e4a07d2cde6becf6e7fc7c4e041bc1cf36894f10ee919081900360800190a3505050505050565b600d8054600354604080517f7065bedc000000000000000000000000000000000000000000000000000000008152600160a060020a0392831660048201526024810182905260448101949094527f696e666c6174696f6e5261746500000000000000000000000000000000000000606485015251600093849384938493911691637065bedc9160848083019286929190829003018186803b15801561413c57600080fd5b505afa158015614150573d6000803e3d6000fd5b505050506040513d6000823e601f3d908101601f1916820160405260a081101561417957600080fd5b8151602083015160408401516060850151608086018051949693959294919392830192916401000000008111156141af57600080fd5b820160208101848111156141c257600080fd5b81516401000000008111828201871017156141dc57600080fd5b5050600d54600354604080517f7065bedc000000000000000000000000000000000000000000000000000000008152600160a060020a03928316600482015260248101829052600860448201527f746865414f437574000000000000000000000000000000000000000000000000606482015290519a9b5060009a919092169850637065bedc9750608480830197508a96509094509084900301915082905086803b15801561428a57600080fd5b505afa15801561429e573d6000803e3d6000fd5b505050506040513d6000823e601f3d908101601f1916820160405260a08110156142c757600080fd5b8151602083015160408401516060850151608086018051949693959294919392830192916401000000008111156142fd57600080fd5b8201602081018481111561431057600080fd5b815164010000000081118282018710171561432a57600080fd5b5050600d54600354604080517f7065bedc000000000000000000000000000000000000000000000000000000008152600160a060020a03928316600482015260248101829052601460448201527f746865414f4574686f734561726e656452617465000000000000000000000000606482015290519a9b5060009a919092169850637065bedc9750608480830197508a96509094509084900301915082905086803b1580156143d857600080fd5b505afa1580156143ec573d6000803e3d6000fd5b505050506040513d6000823e601f3d908101601f1916820160405260a081101561441557600080fd5b81516020830151604084015160608501516080860180519496939592949193928301929164010000000081111561444b57600080fd5b8201602081018481111561445e57600080fd5b815164010000000081118282018710171561447857600080fd5b509a9e999d50969b50979950505050505050505050565b60008061449a614098565b50506015546040805160e060020a632dff0d0d028152600481018790529051929350600092600160a060020a0390921691632dff0d0d916024808201928692909190829003018186803b1580156144f057600080fd5b505afa158015614504573d6000803e3d6000fd5b505050506040513d6000823e601f3d908101601f1916820160405261014081101561452e57600080fd5b8151602083015160408401516060850151608086015160a087015160c088015160e0890180519799969895979496939592949193928301929164010000000081111561457957600080fd5b8201602081018481111561458c57600080fd5b81516401000000008111828201871017156145a657600080fd5b50506013546040805160e060020a632dff0d0d028152600481018d905290519b9d5060009c508c9b8c9b50600160a060020a039092169950632dff0d0d9850602480820198506101009750919550859003019250839150879050803b15801561460e57600080fd5b505afa158015614622573d6000803e3d6000fd5b505050506040513d61010081101561463957600080fd5b506040808201516060830151608090930151825160e060020a63caf2976502815292519196509294509192506000916146e49173__AOLibrary_____________________________9163caf2976591600480820192602092909190829003018186803b1580156146a857600080fd5b505af41580156146bc573d6000803e3d6000fd5b505050506040513d60208110156146d257600080fd5b5051612a89868963ffffffff61482816565b9050600061480973__AOLibrary_____________________________63caf297656040518163ffffffff1660e060020a02815260040160206040518083038186803b15801561473257600080fd5b505af4158015614746573d6000803e3d6000fd5b505050506040513d602081101561475c57600080fd5b5051604080517fd661dd310000000000000000000000000000000000000000000000000000000081529051612a89918b916135479173__AOLibrary_____________________________9163d661dd3191600480820192602092909190829003018186803b1580156147cd57600080fd5b505af41580156147e1573d6000803e3d6000fd5b505050506040513d60208110156147f757600080fd5b5051612a898a8a63ffffffff61482816565b905061481b828263ffffffff61302d16565b9998505050505050505050565b60008215156148395750600061303a565b5081810281838281151561484957fe5b041461303a57fe5b6000818381151561485e57fe5b049392505050565b60008282111561487257fe5b5090039056fedf9b18b8b292e153b0dfff6e1d71024ca7486117e59c0bbaf074ad370deebd1ca165627a7a72305820779ee8570c9229eaffac1ff4e6697e5c0ca1bfd186d853b89ad2db25415bce440029",
  "source": "pragma solidity ^0.5.4;\n\nimport './SafeMath.sol';\nimport './AOLibrary.sol';\nimport './TheAO.sol';\nimport './IAOEarning.sol';\nimport './IAOSetting.sol';\nimport './AOIon.sol';\nimport './INameFactory.sol';\nimport './Pathos.sol';\nimport './Ethos.sol';\nimport './IAOContent.sol';\nimport './IAOStakedContent.sol';\nimport './IAOContentHost.sol';\nimport './IAOPurchaseReceipt.sol';\n\n/**\n * @title AOEarning\n *\n * This contract stores the earning from staking/hosting content on AO\n */\ncontract AOEarning is TheAO, IAOEarning {\n\tusing SafeMath for uint256;\n\n\taddress public settingTAOId;\n\taddress public aoSettingAddress;\n\taddress public aoIonAddress;\n\taddress public nameFactoryAddress;\n\taddress public pathosAddress;\n\taddress public ethosAddress;\n\taddress public aoContentAddress;\n\taddress public aoStakedContentAddress;\n\taddress public aoContentHostAddress;\n\taddress public aoPurchaseReceiptAddress;\n\n\tIAOSetting internal _aoSetting;\n\tAOIon internal _aoIon;\n\tINameFactory internal _nameFactory;\n\tPathos internal _pathos;\n\tEthos internal _ethos;\n\tIAOContent internal _aoContent;\n\tIAOStakedContent internal _aoStakedContent;\n\tIAOContentHost internal _aoContentHost;\n\tIAOPurchaseReceipt internal _aoPurchaseReceipt;\n\n\t// Total earning from staking content from all nodes\n\tuint256 public totalStakedContentEarning;\n\n\t// Total earning from hosting content from all nodes\n\tuint256 public totalContentHostEarning;\n\n\t// Total The AO earning\n\tuint256 public totalTheAOEarning;\n\n\t// Mapping from PurchaseReceipt ID to its escrowed earning status\n\tmapping (bytes32 => bool) internal purchaseReceiptEarningEscrowed;\n\n\t// Mapping from PurchaseReceipt ID to its unescrowed earning status\n\tmapping (bytes32 => bool) internal purchaseReceiptEarningUnescrowed;\n\n\t// Mapping from address to his/her earning from content that he/she staked\n\tmapping (address => uint256) public ownerStakedContentEarning;\n\n\t// Mapping from address to his/her earning from content that he/she hosted\n\tmapping (address => uint256) public ownerContentHostEarning;\n\n\t// Mapping from address to his/her network price earning\n\t// i.e, when staked amount = filesize\n\tmapping (address => uint256) public ownerNetworkPriceEarning;\n\n\t// Mapping from address to his/her content price earning\n\t// i.e, when staked amount > filesize\n\tmapping (address => uint256) public ownerContentPriceEarning;\n\n\t// Mapping from address to his/her inflation bonus\n\tmapping (address => uint256) public ownerInflationBonusAccrued;\n\n\tstruct Earning {\n\t\tbytes32 purchaseReceiptId;\n\t\tuint256 paymentEarning;\n\t\tuint256 inflationBonus;\n\t\tuint256 pathosAmount;\n\t\tuint256 ethosAmount;\n\t}\n\n\t// Mapping from address to earning from staking content of a PurchaseReceipt ID\n\tmapping (address => mapping(bytes32 => Earning)) public ownerPurchaseReceiptStakeEarnings;\n\n\t// Mapping from address to earning from hosting content of a PurchaseReceipt ID\n\tmapping (address => mapping(bytes32 => Earning)) public ownerPurchaseReceiptHostEarnings;\n\n\t// Mapping from PurchaaseReceipt ID to earning for The AO\n\tmapping (bytes32 => Earning) public theAOPurchaseReceiptEarnings;\n\n\t// Mapping from StakedContent ID to it's total earning from staking\n\tmapping (bytes32 => uint256) public stakedContentStakeEarning;\n\n\t// Mapping from StakedContent ID to it's total earning from hosting\n\tmapping (bytes32 => uint256) public stakedContentHostEarning;\n\n\t// Mapping from StakedContent ID to it's total earning earned by The AO\n\tmapping (bytes32 => uint256) public stakedContentTheAOEarning;\n\n\t// Mapping from content host ID to it's total earning\n\tmapping (bytes32 => uint256) public contentHostEarning;\n\n\t// Event to be broadcasted to public when content creator/host earns the payment split in escrow when request node buys the content\n\t// recipientType:\n\t// 0 => Content Creator (Stake Owner)\n\t// 1 => Node Host\n\t// 2 => The AO\n\tevent PaymentEarningEscrowed(address indexed recipient, bytes32 indexed purchaseReceiptId, uint256 price, uint256 recipientProfitPercentage, uint256 recipientPaymentEarning, uint8 recipientType);\n\n\t// Event to be broadcasted to public when content creator/host/The AO earns inflation bonus in escrow when request node buys the content\n\t// recipientType:\n\t// 0 => Content Creator (Stake Owner)\n\t// 1 => Node Host\n\t// 2 => The AO\n\tevent InflationBonusEscrowed(address indexed recipient, bytes32 indexed purchaseReceiptId, uint256 totalInflationBonusAmount, uint256 recipientProfitPercentage, uint256 recipientInflationBonus, uint8 recipientType);\n\n\t// Event to be broadcasted to public when content creator/host/The AO earning is released from escrow\n\t// recipientType:\n\t// 0 => Content Creator (Stake Owner)\n\t// 1 => Node Host\n\t// 2 => The AO\n\tevent EarningUnescrowed(address indexed recipient, bytes32 indexed purchaseReceiptId, uint256 paymentEarning, uint256 inflationBonus, uint8 recipientType);\n\n\t// Event to be broadcasted to public when content creator's Name earns Pathos when a node buys a content\n\tevent PathosEarned(address indexed nameId, bytes32 indexed purchaseReceiptId, uint256 amount);\n\n\t// Event to be broadcasted to public when host's Name earns Ethos when a node buys a content\n\tevent EthosEarned(address indexed nameId, bytes32 indexed purchaseReceiptId, uint256 amount);\n\n\t/**\n\t * @dev Constructor function\n\t * @param _settingTAOId The TAO ID that controls the setting\n\t * @param _aoSettingAddress The address of AOSetting\n\t * @param _aoIonAddress The address of AOIon\n\t * @param _nameFactoryAddress The address of NameFactory\n\t * @param _pathosAddress The address of Pathos\n\t * @param _ethosAddress The address of Ethos\n\t * @param _nameTAOPositionAddress The address of NameTAOPosition\n\t */\n\tconstructor(address _settingTAOId,\n\t\taddress _aoSettingAddress,\n\t\taddress _aoIonAddress,\n\t\taddress _nameFactoryAddress,\n\t\taddress _pathosAddress,\n\t\taddress _ethosAddress,\n\t\taddress _aoContentAddress,\n\t\taddress _nameTAOPositionAddress) public {\n\t\tsetSettingTAOId(_settingTAOId);\n\t\tsetAOSettingAddress(_aoSettingAddress);\n\t\tsetAOIonAddress(_aoIonAddress);\n\t\tsetNameFactoryAddress(_nameFactoryAddress);\n\t\tsetPathosAddress(_pathosAddress);\n\t\tsetEthosAddress(_ethosAddress);\n\t\tsetAOContentAddress(_aoContentAddress);\n\t\tsetNameTAOPositionAddress(_nameTAOPositionAddress);\n\t}\n\n\t/**\n\t * @dev Checks if the calling contract address is The AO\n\t *\t\tOR\n\t *\t\tIf The AO is set to a Name/TAO, then check if calling address is the Advocate\n\t */\n\tmodifier onlyTheAO {\n\t\trequire (AOLibrary.isTheAO(msg.sender, theAO, nameTAOPositionAddress));\n\t\t_;\n\t}\n\n\t/***** The AO ONLY METHODS *****/\n\t/**\n\t * @dev Transfer ownership of The AO to new address\n\t * @param _theAO The new address to be transferred\n\t */\n\tfunction transferOwnership(address _theAO) public onlyTheAO {\n\t\trequire (_theAO != address(0));\n\t\ttheAO = _theAO;\n\t}\n\n\t/**\n\t * @dev Whitelist `_account` address to transact on behalf of others\n\t * @param _account The address to whitelist\n\t * @param _whitelist Either to whitelist or not\n\t */\n\tfunction setWhitelist(address _account, bool _whitelist) public onlyTheAO {\n\t\trequire (_account != address(0));\n\t\twhitelist[_account] = _whitelist;\n\t}\n\n\t/**\n\t * @dev The AO sets setting TAO ID\n\t * @param _settingTAOId The new setting TAO ID to set\n\t */\n\tfunction setSettingTAOId(address _settingTAOId) public onlyTheAO {\n\t\trequire (AOLibrary.isTAO(_settingTAOId));\n\t\tsettingTAOId = _settingTAOId;\n\t}\n\n\t/**\n\t * @dev The AO sets AO Setting address\n\t * @param _aoSettingAddress The address of AOSetting\n\t */\n\tfunction setAOSettingAddress(address _aoSettingAddress) public onlyTheAO {\n\t\trequire (_aoSettingAddress != address(0));\n\t\taoSettingAddress = _aoSettingAddress;\n\t\t_aoSetting = IAOSetting(_aoSettingAddress);\n\t}\n\n\t/**\n\t * @dev The AO sets AOIon address\n\t * @param _aoIonAddress The address of AOIon\n\t */\n\tfunction setAOIonAddress(address _aoIonAddress) public onlyTheAO {\n\t\trequire (_aoIonAddress != address(0));\n\t\taoIonAddress = _aoIonAddress;\n\t\t_aoIon = AOIon(_aoIonAddress);\n\t}\n\n\t/**\n\t * @dev The AO sets NameFactory address\n\t * @param _nameFactoryAddress The address of NameFactory\n\t */\n\tfunction setNameFactoryAddress(address _nameFactoryAddress) public onlyTheAO {\n\t\trequire (_nameFactoryAddress != address(0));\n\t\tnameFactoryAddress = _nameFactoryAddress;\n\t\t_nameFactory = INameFactory(_nameFactoryAddress);\n\t}\n\n\t/**\n\t * @dev The AO sets Pathos address\n\t * @param _pathosAddress The address of Pathos\n\t */\n\tfunction setPathosAddress(address _pathosAddress) public onlyTheAO {\n\t\trequire (_pathosAddress != address(0));\n\t\tpathosAddress = _pathosAddress;\n\t\t_pathos = Pathos(_pathosAddress);\n\t}\n\n\t/**\n\t * @dev The AO sets Ethos address\n\t * @param _ethosAddress The address of Ethos\n\t */\n\tfunction setEthosAddress(address _ethosAddress) public onlyTheAO {\n\t\trequire (_ethosAddress != address(0));\n\t\tethosAddress = _ethosAddress;\n\t\t_ethos = Ethos(_ethosAddress);\n\t}\n\n\t/**\n\t * @dev The AO sets AOContent address\n\t * @param _aoContentAddress The address of AOContent\n\t */\n\tfunction setAOContentAddress(address _aoContentAddress) public onlyTheAO {\n\t\trequire (_aoContentAddress != address(0));\n\t\taoContentAddress = _aoContentAddress;\n\t\t_aoContent = IAOContent(_aoContentAddress);\n\t}\n\n\t/**\n\t * @dev The AO sets AOStakedContent address\n\t * @param _aoStakedContentAddress The address of AOStakedContent\n\t */\n\tfunction setAOStakedContentAddress(address _aoStakedContentAddress) public onlyTheAO {\n\t\trequire (_aoStakedContentAddress != address(0));\n\t\taoStakedContentAddress = _aoStakedContentAddress;\n\t\t_aoStakedContent = IAOStakedContent(_aoStakedContentAddress);\n\t}\n\n\t/**\n\t * @dev The AO sets AOContentHost address\n\t * @param _aoContentHostAddress The address of AOContentHost\n\t */\n\tfunction setAOContentHostAddress(address _aoContentHostAddress) public onlyTheAO {\n\t\trequire (_aoContentHostAddress != address(0));\n\t\taoContentHostAddress = _aoContentHostAddress;\n\t\t_aoContentHost = IAOContentHost(_aoContentHostAddress);\n\t}\n\n\t/**\n\t * @dev The AO sets AOPurchaseReceipt address\n\t * @param _aoPurchaseReceiptAddress The address of AOPurchaseReceipt\n\t */\n\tfunction setAOPurchaseReceiptAddress(address _aoPurchaseReceiptAddress) public onlyTheAO {\n\t\trequire (_aoPurchaseReceiptAddress != address(0));\n\t\taoPurchaseReceiptAddress = _aoPurchaseReceiptAddress;\n\t\t_aoPurchaseReceipt = IAOPurchaseReceipt(_aoPurchaseReceiptAddress);\n\t}\n\n\t/**\n\t * @dev The AO set the NameTAOPosition Address\n\t * @param _nameTAOPositionAddress The address of NameTAOPosition\n\t */\n\tfunction setNameTAOPositionAddress(address _nameTAOPositionAddress) public onlyTheAO {\n\t\trequire (_nameTAOPositionAddress != address(0));\n\t\tnameTAOPositionAddress = _nameTAOPositionAddress;\n\t}\n\n\t/***** PUBLIC METHODS *****/\n\t/**\n\t * @dev Calculate the content creator/host/The AO earning when request node buys the content.\n\t *\t\tAlso at this stage, all of the earnings are stored in escrow\n\t * @param _purchaseReceiptId The ID of the purchase receipt object\n\t * @return true on success\n\t */\n\tfunction calculateEarning(bytes32 _purchaseReceiptId) external inWhitelist returns (bool) {\n\t\trequire (_aoPurchaseReceipt.isExist(_purchaseReceiptId));\n\t\trequire (!purchaseReceiptEarningEscrowed[_purchaseReceiptId]);\n\t\tpurchaseReceiptEarningEscrowed[_purchaseReceiptId] = true;\n\n\t\t// Split the payment earning between content creator and host and store them in escrow\n\t\t_escrowPaymentEarning(_purchaseReceiptId);\n\n\t\t// Calculate the inflation bonus earning for content creator/node/The AO in escrow\n\t\t_escrowInflationBonus(_purchaseReceiptId);\n\t\treturn true;\n\t}\n\n\t/**\n\t * @dev Release the payment earning and inflation bonus that is in escrow for specific PurchaseReceipt ID\n\t * @param _purchaseReceiptId The purchase receipt ID to check\n\t * @return true on success\n\t */\n\tfunction releaseEarning(bytes32 _purchaseReceiptId) external inWhitelist returns (bool) {\n\t\trequire (_aoPurchaseReceipt.isExist(_purchaseReceiptId));\n\t\trequire (purchaseReceiptEarningEscrowed[_purchaseReceiptId] && !purchaseReceiptEarningUnescrowed[_purchaseReceiptId]);\n\t\tpurchaseReceiptEarningUnescrowed[_purchaseReceiptId] = true;\n\n\t\t(bytes32 _contentHostId, bytes32 _stakedContentId, bytes32 _contentId,,, uint256 _amountPaidByBuyer,,,,) = _aoPurchaseReceipt.getById(_purchaseReceiptId);\n\t\t(, address _stakeOwner,,,,,,) = _aoStakedContent.getById(_stakedContentId);\n\t\t(,, address _host,,) = _aoContentHost.getById(_contentHostId);\n\t\t(, uint256 _fileSize,,,,,,,) = _aoContent.getById(_contentId);\n\n\t\t// Release the earning in escrow for stake owner\n\t\t_releaseEarning(_stakedContentId, _contentHostId, _purchaseReceiptId, _amountPaidByBuyer > _fileSize, _stakeOwner, 0);\n\n\t\t// Release the earning in escrow for host\n\t\t_releaseEarning(_stakedContentId, _contentHostId, _purchaseReceiptId, _amountPaidByBuyer > _fileSize, _host, 1);\n\n\t\t// Release the earning in escrow for The AO\n\t\t_releaseEarning(_stakedContentId, _contentHostId, _purchaseReceiptId, _amountPaidByBuyer > _fileSize, theAO, 2);\n\t\treturn true;\n\t}\n\n\t/**\n\t * @dev Return the earning information of a StakedContent ID\n\t * @param _stakedContentId The ID of the staked content\n\t * @return the total earning from staking this content\n\t * @return the total earning from hosting this content\n\t * @return the total The AO earning of this content\n\t */\n\tfunction getTotalStakedContentEarning(bytes32 _stakedContentId) external view returns (uint256, uint256, uint256) {\n\t\treturn (\n\t\t\tstakedContentStakeEarning[_stakedContentId],\n\t\t\tstakedContentHostEarning[_stakedContentId],\n\t\t\tstakedContentTheAOEarning[_stakedContentId]\n\t\t);\n\t}\n\n\t/***** INTERNAL METHODS *****/\n\t/**\n\t * @dev Calculate the payment split for content creator/host and store them in escrow\n\t * @param _purchaseReceiptId The ID of the purchase receipt object\n\t */\n\tfunction _escrowPaymentEarning(bytes32 _purchaseReceiptId) internal {\n\t\t(uint256 _stakeOwnerEarning, uint256 _pathosAmount) = _escrowStakeOwnerPaymentEarning(_purchaseReceiptId);\n\t\t(uint256 _ethosAmount) = _escrowHostPaymentEarning(_purchaseReceiptId, _stakeOwnerEarning);\n\t\t_escrowTheAOPaymentEarning(_purchaseReceiptId, _pathosAmount, _ethosAmount);\n\t}\n\n\t/**\n\t * @dev Calculate the payment split for content creator and store them in escrow\n\t * @param _purchaseReceiptId The ID of the purchase receipt object\n\t * @return The stake owner's earning amount\n\t * @return The pathos earned from this transaction\n\t */\n\tfunction _escrowStakeOwnerPaymentEarning(bytes32 _purchaseReceiptId) internal returns (uint256, uint256) {\n\t\t(uint256 inflationRate,,) = _getSettingVariables();\n\t\t(, bytes32 _stakedContentId, bytes32 _contentId, address _buyer, uint256 _price,,,,,) = _aoPurchaseReceipt.getById(_purchaseReceiptId);\n\t\t(, address _stakeOwner,,,, uint256 _profitPercentage,,) = _aoStakedContent.getById(_stakedContentId);\n\n\t\tEarning storage _ownerPurchaseReceiptStakeEarning = ownerPurchaseReceiptStakeEarnings[_stakeOwner][_purchaseReceiptId];\n\t\t_ownerPurchaseReceiptStakeEarning.purchaseReceiptId = _purchaseReceiptId;\n\n\t\t// Store how much the content creator (stake owner) earns in escrow\n\t\t// If content is AO Content Usage Type, stake owner earns 0%\n\t\t// and all profit goes to the serving host node\n\t\t_ownerPurchaseReceiptStakeEarning.paymentEarning = _aoContent.isAOContentUsageType(_contentId) ? (_price.mul(_profitPercentage)).div(AOLibrary.PERCENTAGE_DIVISOR()) : 0;\n\t\t// Pathos = Price X Node Share X Inflation Rate\n\t\t_ownerPurchaseReceiptStakeEarning.pathosAmount = _price.mul(AOLibrary.PERCENTAGE_DIVISOR().sub(_profitPercentage)).mul(inflationRate).div(AOLibrary.PERCENTAGE_DIVISOR()).div(AOLibrary.PERCENTAGE_DIVISOR());\n\t\trequire (_aoIon.escrowFrom(_buyer, _stakeOwner, _ownerPurchaseReceiptStakeEarning.paymentEarning));\n\t\temit PaymentEarningEscrowed(_stakeOwner, _purchaseReceiptId, _price, _profitPercentage, _ownerPurchaseReceiptStakeEarning.paymentEarning, 0);\n\t\treturn (_ownerPurchaseReceiptStakeEarning.paymentEarning, _ownerPurchaseReceiptStakeEarning.pathosAmount);\n\t}\n\n\t/**\n\t * @dev Calculate the payment split for host node and store them in escrow\n\t * @param _purchaseReceiptId The ID of the purchase receipt object\n\t * @param _stakeOwnerEarning The stake owner's earning amount\n\t * @return The ethos earned from this transaction\n\t */\n\tfunction _escrowHostPaymentEarning(bytes32 _purchaseReceiptId, uint256 _stakeOwnerEarning) internal returns (uint256) {\n\t\t(uint256 inflationRate,,) = _getSettingVariables();\n\t\t(bytes32 _contentHostId, bytes32 _stakedContentId, bytes32 _contentId, address _buyer, uint256 _price,,,,,) = _aoPurchaseReceipt.getById(_purchaseReceiptId);\n\t\t(,,,,, uint256 _profitPercentage,,) = _aoStakedContent.getById(_stakedContentId);\n\t\t(,, address _host,,) = _aoContentHost.getById(_contentHostId);\n\n\t\t// Store how much the node host earns in escrow\n\t\tEarning storage _ownerPurchaseReceiptHostEarning = ownerPurchaseReceiptHostEarnings[_host][_purchaseReceiptId];\n\t\t_ownerPurchaseReceiptHostEarning.purchaseReceiptId = _purchaseReceiptId;\n\t\t_ownerPurchaseReceiptHostEarning.paymentEarning = _price.sub(_stakeOwnerEarning);\n\t\t// Ethos = Price X Creator Share X Inflation Rate\n\t\t_ownerPurchaseReceiptHostEarning.ethosAmount = _price.mul(_profitPercentage).mul(inflationRate).div(AOLibrary.PERCENTAGE_DIVISOR()).div(AOLibrary.PERCENTAGE_DIVISOR());\n\n\t\tif (_aoContent.isAOContentUsageType(_contentId)) {\n\t\t\trequire (_aoIon.escrowFrom(_buyer, _host, _ownerPurchaseReceiptHostEarning.paymentEarning));\n\t\t} else {\n\t\t\t// If not AO Content usage type, we want to mint to the host\n\t\t\trequire (_aoIon.mintEscrow(_host, _ownerPurchaseReceiptHostEarning.paymentEarning));\n\t\t}\n\t\temit PaymentEarningEscrowed(_host, _purchaseReceiptId, _price, AOLibrary.PERCENTAGE_DIVISOR().sub(_profitPercentage), _ownerPurchaseReceiptHostEarning.paymentEarning, 1);\n\t\treturn _ownerPurchaseReceiptHostEarning.ethosAmount;\n\t}\n\n\t/**\n\t * @dev Calculate the earning for The AO and store them in escrow\n\t * @param _purchaseReceiptId The ID of the purchase receipt object\n\t * @param _pathosAmount The amount of pathos earned by stake owner\n\t * @param _ethosAmount The amount of ethos earned by host node\n\t */\n\tfunction _escrowTheAOPaymentEarning(bytes32 _purchaseReceiptId, uint256 _pathosAmount, uint256 _ethosAmount) internal {\n\t\t(,,uint256 theAOEthosEarnedRate) = _getSettingVariables();\n\t\t(,,,, uint256 _price,,,,,) = _aoPurchaseReceipt.getById(_purchaseReceiptId);\n\n\t\t// Store how much The AO earns in escrow\n\t\tEarning storage _theAOPurchaseReceiptEarning = theAOPurchaseReceiptEarnings[_purchaseReceiptId];\n\t\t_theAOPurchaseReceiptEarning.purchaseReceiptId = _purchaseReceiptId;\n\t\t// Pathos + X% of Ethos\n\t\t_theAOPurchaseReceiptEarning.paymentEarning = _pathosAmount.add(_ethosAmount.mul(theAOEthosEarnedRate).div(AOLibrary.PERCENTAGE_DIVISOR()));\n\t\trequire (_aoIon.mintEscrow(theAO, _theAOPurchaseReceiptEarning.paymentEarning));\n\t\temit PaymentEarningEscrowed(theAO, _purchaseReceiptId, _price, 0, _theAOPurchaseReceiptEarning.paymentEarning, 2);\n\t}\n\n\t/**\n\t * @dev Mint the inflation bonus for content creator/host/The AO and store them in escrow\n\t * @param _purchaseReceiptId The ID of the purchase receipt object\n\t */\n\tfunction _escrowInflationBonus(\n\t\tbytes32 _purchaseReceiptId\n\t) internal {\n\t\t(, uint256 theAOCut,) = _getSettingVariables();\n\t\tuint256 _inflationBonusAmount = _calculateInflationBonus(_purchaseReceiptId);\n\t\t(bytes32 _contentHostId, bytes32 _stakedContentId, bytes32 _contentId,,,,,,,) = _aoPurchaseReceipt.getById(_purchaseReceiptId);\n\t\t(, address _stakeOwner,,,, uint256 _profitPercentage,,) = _aoStakedContent.getById(_stakedContentId);\n\t\t(,, address _host,,) = _aoContentHost.getById(_contentHostId);\n\n\t\tif (_inflationBonusAmount > 0) {\n\t\t\t// Store how much the content creator earns in escrow\n\t\t\tuint256 _stakeOwnerInflationBonus = _aoContent.isAOContentUsageType(_contentId) ? (_inflationBonusAmount.mul(_profitPercentage)).div(AOLibrary.PERCENTAGE_DIVISOR()) : 0;\n\t\t\tEarning storage _ownerPurchaseReceiptStakeEarning = ownerPurchaseReceiptStakeEarnings[_stakeOwner][_purchaseReceiptId];\n\t\t\t_ownerPurchaseReceiptStakeEarning.inflationBonus = _stakeOwnerInflationBonus;\n\t\t\trequire (_aoIon.mintEscrow(_stakeOwner, _ownerPurchaseReceiptStakeEarning.inflationBonus));\n\t\t\temit InflationBonusEscrowed(_stakeOwner, _purchaseReceiptId, _inflationBonusAmount, _profitPercentage, _ownerPurchaseReceiptStakeEarning.inflationBonus, 0);\n\n\t\t\t// Store how much the host earns in escrow\n\t\t\tEarning storage _ownerPurchaseReceiptHostEarning = ownerPurchaseReceiptHostEarnings[_host][_purchaseReceiptId];\n\t\t\t_ownerPurchaseReceiptHostEarning.inflationBonus = _inflationBonusAmount.sub(_stakeOwnerInflationBonus);\n\t\t\trequire (_aoIon.mintEscrow(_host, _ownerPurchaseReceiptHostEarning.inflationBonus));\n\t\t\temit InflationBonusEscrowed(_host, _purchaseReceiptId, _inflationBonusAmount, AOLibrary.PERCENTAGE_DIVISOR().sub(_profitPercentage), _ownerPurchaseReceiptHostEarning.inflationBonus, 1);\n\n\t\t\t// Store how much the The AO earns in escrow\n\t\t\tEarning storage _theAOPurchaseReceiptEarning = theAOPurchaseReceiptEarnings[_purchaseReceiptId];\n\t\t\t_theAOPurchaseReceiptEarning.inflationBonus = (_inflationBonusAmount.mul(theAOCut)).div(AOLibrary.PERCENTAGE_DIVISOR());\n\t\t\trequire (_aoIon.mintEscrow(theAO, _theAOPurchaseReceiptEarning.inflationBonus));\n\t\t\temit InflationBonusEscrowed(theAO, _purchaseReceiptId, _inflationBonusAmount, theAOCut, _theAOPurchaseReceiptEarning.inflationBonus, 2);\n\t\t} else {\n\t\t\temit InflationBonusEscrowed(_stakeOwner, _purchaseReceiptId, 0, _profitPercentage, 0, 0);\n\t\t\temit InflationBonusEscrowed(_host, _purchaseReceiptId, 0, AOLibrary.PERCENTAGE_DIVISOR().sub(_profitPercentage), 0, 1);\n\t\t\temit InflationBonusEscrowed(theAO, _purchaseReceiptId, 0, theAOCut, 0, 2);\n\t\t}\n\t}\n\n\t/**\n\t * @dev Calculate the inflation bonus amount\n\t * @param _purchaseReceiptId The ID of the PurchaseReceipt\n\t * @return the bonus network amount\n\t */\n\tfunction _calculateInflationBonus(bytes32 _purchaseReceiptId) internal view returns (uint256) {\n\t\t(uint256 inflationRate,,) = _getSettingVariables();\n\t\t(, bytes32 _stakedContentId,,,,,,,,) = _aoPurchaseReceipt.getById(_purchaseReceiptId);\n\t\t(,,uint256 _networkAmount, uint256 _primordialAmount, uint256 _primordialWeightedMultiplier,,,) = _aoStakedContent.getById(_stakedContentId);\n\n\t\tuint256 _networkBonus = _networkAmount.mul(inflationRate).div(AOLibrary.PERCENTAGE_DIVISOR());\n\t\tuint256 _primordialBonus = _primordialAmount.mul(_primordialWeightedMultiplier).div(AOLibrary.MULTIPLIER_DIVISOR()).mul(inflationRate).div(AOLibrary.PERCENTAGE_DIVISOR());\n\t\treturn _networkBonus.add(_primordialBonus);\n\t}\n\n\t/**\n\t * @dev Release the escrowed earning for a specific PurchaseReceipt ID for an account\n\t * @param _stakedContentId The ID of the staked content\n\t * @param _contentHostId The ID of the hosted content\n\t * @param _purchaseReceiptId The purchase receipt ID\n\t * @param _buyerPaidMoreThanFileSize Whether or not the request node paid more than filesize when buying the content\n\t * @param _account The address of account that made the earning (content creator/host)\n\t * @param _recipientType The type of the earning recipient (0 => content creator. 1 => host. 2 => theAO)\n\t */\n\tfunction _releaseEarning(bytes32 _stakedContentId, bytes32 _contentHostId, bytes32 _purchaseReceiptId, bool _buyerPaidMoreThanFileSize, address _account, uint8 _recipientType) internal {\n\t\t// Make sure the recipient type is valid\n\t\trequire (_recipientType >= 0 && _recipientType <= 2);\n\n\t\tuint256 _paymentEarning;\n\t\tuint256 _inflationBonus;\n\t\tuint256 _totalEarning;\n\t\tuint256 _pathosAmount;\n\t\tuint256 _ethosAmount;\n\t\tif (_recipientType == 0) {\n\t\t\tEarning storage _earning = ownerPurchaseReceiptStakeEarnings[_account][_purchaseReceiptId];\n\t\t\t_paymentEarning = _earning.paymentEarning;\n\t\t\t_inflationBonus = _earning.inflationBonus;\n\t\t\t_pathosAmount = _earning.pathosAmount;\n\t\t\t_earning.paymentEarning = 0;\n\t\t\t_earning.inflationBonus = 0;\n\t\t\t_earning.pathosAmount = 0;\n\t\t\t_earning.ethosAmount = 0;\n\t\t\t_totalEarning = _paymentEarning.add(_inflationBonus);\n\n\t\t\t// Update the global var settings\n\t\t\ttotalStakedContentEarning = totalStakedContentEarning.add(_totalEarning);\n\t\t\townerStakedContentEarning[_account] = ownerStakedContentEarning[_account].add(_totalEarning);\n\t\t\tstakedContentStakeEarning[_stakedContentId] = stakedContentStakeEarning[_stakedContentId].add(_totalEarning);\n\t\t\tif (_buyerPaidMoreThanFileSize) {\n\t\t\t\townerContentPriceEarning[_account] = ownerContentPriceEarning[_account].add(_totalEarning);\n\t\t\t} else {\n\t\t\t\townerNetworkPriceEarning[_account] = ownerNetworkPriceEarning[_account].add(_totalEarning);\n\t\t\t}\n\t\t\townerInflationBonusAccrued[_account] = ownerInflationBonusAccrued[_account].add(_inflationBonus);\n\n\t\t\t// Reward the content creator/stake owner with some Pathos\n\t\t\trequire (_pathos.mint(_nameFactory.ethAddressToNameId(_account), _pathosAmount));\n\t\t\temit PathosEarned(_nameFactory.ethAddressToNameId(_account), _purchaseReceiptId, _pathosAmount);\n\t\t} else if (_recipientType == 1) {\n\t\t\tEarning storage _earning = ownerPurchaseReceiptHostEarnings[_account][_purchaseReceiptId];\n\t\t\t_paymentEarning = _earning.paymentEarning;\n\t\t\t_inflationBonus = _earning.inflationBonus;\n\t\t\t_ethosAmount = _earning.ethosAmount;\n\t\t\t_earning.paymentEarning = 0;\n\t\t\t_earning.inflationBonus = 0;\n\t\t\t_earning.pathosAmount = 0;\n\t\t\t_earning.ethosAmount = 0;\n\t\t\t_totalEarning = _paymentEarning.add(_inflationBonus);\n\n\t\t\t// Update the global var settings\n\t\t\ttotalContentHostEarning = totalContentHostEarning.add(_totalEarning);\n\t\t\townerContentHostEarning[_account] = ownerContentHostEarning[_account].add(_totalEarning);\n\t\t\tstakedContentHostEarning[_stakedContentId] = stakedContentHostEarning[_stakedContentId].add(_totalEarning);\n\t\t\tcontentHostEarning[_contentHostId] = contentHostEarning[_contentHostId].add(_totalEarning);\n\t\t\tif (_buyerPaidMoreThanFileSize) {\n\t\t\t\townerContentPriceEarning[_account] = ownerContentPriceEarning[_account].add(_totalEarning);\n\t\t\t} else {\n\t\t\t\townerNetworkPriceEarning[_account] = ownerNetworkPriceEarning[_account].add(_totalEarning);\n\t\t\t}\n\t\t\townerInflationBonusAccrued[_account] = ownerInflationBonusAccrued[_account].add(_inflationBonus);\n\n\t\t\t// Reward the host node with some Ethos\n\t\t\trequire (_ethos.mint(_nameFactory.ethAddressToNameId(_account), _ethosAmount));\n\t\t\temit EthosEarned(_nameFactory.ethAddressToNameId(_account), _purchaseReceiptId, _ethosAmount);\n\t\t} else {\n\t\t\tEarning storage _earning = theAOPurchaseReceiptEarnings[_purchaseReceiptId];\n\t\t\t_paymentEarning = _earning.paymentEarning;\n\t\t\t_inflationBonus = _earning.inflationBonus;\n\t\t\t_earning.paymentEarning = 0;\n\t\t\t_earning.inflationBonus = 0;\n\t\t\t_earning.pathosAmount = 0;\n\t\t\t_earning.ethosAmount = 0;\n\t\t\t_totalEarning = _paymentEarning.add(_inflationBonus);\n\n\t\t\t// Update the global var settings\n\t\t\ttotalTheAOEarning = totalTheAOEarning.add(_totalEarning);\n\t\t\townerInflationBonusAccrued[_account] = ownerInflationBonusAccrued[_account].add(_inflationBonus);\n\t\t\tstakedContentTheAOEarning[_stakedContentId] = stakedContentTheAOEarning[_stakedContentId].add(_totalEarning);\n\t\t}\n\t\trequire (_aoIon.unescrowFrom(_account, _totalEarning));\n\t\temit EarningUnescrowed(_account, _purchaseReceiptId, _paymentEarning, _inflationBonus, _recipientType);\n\t}\n\n\t/**\n\t * @dev Get setting variables\n\t * @return inflationRate The rate to use when calculating inflation bonus\n\t * @return theAOCut The rate to use when calculating the AO earning\n\t * @return theAOEthosEarnedRate The rate to use when calculating the Ethos to AO rate for the AO\n\t */\n\tfunction _getSettingVariables() internal view returns (uint256, uint256, uint256) {\n\t\t(uint256 inflationRate,,,,) = _aoSetting.getSettingValuesByTAOName(settingTAOId, 'inflationRate');\n\t\t(uint256 theAOCut,,,,) = _aoSetting.getSettingValuesByTAOName(settingTAOId, 'theAOCut');\n\t\t(uint256 theAOEthosEarnedRate,,,,) = _aoSetting.getSettingValuesByTAOName(settingTAOId, 'theAOEthosEarnedRate');\n\n\t\treturn (inflationRate, theAOCut, theAOEthosEarnedRate);\n\t}\n}\n",
  "sourcePath": "/usr/local/ao-contracts/contracts/AOEarning.sol",
  "compiler": {
    "name": "solc",
    "version": "0.5.4+commit.9549d8ff.Emscripten.clang"
  },
  "schemaVersion": "3.0.2",
  "updatedAt": "2019-03-21T02:41:21.587Z",
  "devdoc": {
    "methods": {
      "calculateEarning(bytes32)": {
        "details": "Calculate the content creator/host/The AO earning when request node buys the content.\tAlso at this stage, all of the earnings are stored in escrow",
        "params": {
          "_purchaseReceiptId": "The ID of the purchase receipt object"
        },
        "return": "true on success"
      },
      "constructor": {
        "details": "Constructor function",
        "params": {
          "_aoIonAddress": "The address of AOIon",
          "_aoSettingAddress": "The address of AOSetting",
          "_ethosAddress": "The address of Ethos",
          "_nameFactoryAddress": "The address of NameFactory",
          "_nameTAOPositionAddress": "The address of NameTAOPosition",
          "_pathosAddress": "The address of Pathos",
          "_settingTAOId": "The TAO ID that controls the setting"
        }
      },
      "getTotalStakedContentEarning(bytes32)": {
        "details": "Return the earning information of a StakedContent ID",
        "params": {
          "_stakedContentId": "The ID of the staked content"
        },
        "return": "the total earning from staking this contentthe total earning from hosting this contentthe total The AO earning of this content"
      },
      "releaseEarning(bytes32)": {
        "details": "Release the payment earning and inflation bonus that is in escrow for specific PurchaseReceipt ID",
        "params": {
          "_purchaseReceiptId": "The purchase receipt ID to check"
        },
        "return": "true on success"
      },
      "setAOContentAddress(address)": {
        "details": "The AO sets AOContent address",
        "params": {
          "_aoContentAddress": "The address of AOContent"
        }
      },
      "setAOContentHostAddress(address)": {
        "details": "The AO sets AOContentHost address",
        "params": {
          "_aoContentHostAddress": "The address of AOContentHost"
        }
      },
      "setAOIonAddress(address)": {
        "details": "The AO sets AOIon address",
        "params": {
          "_aoIonAddress": "The address of AOIon"
        }
      },
      "setAOPurchaseReceiptAddress(address)": {
        "details": "The AO sets AOPurchaseReceipt address",
        "params": {
          "_aoPurchaseReceiptAddress": "The address of AOPurchaseReceipt"
        }
      },
      "setAOSettingAddress(address)": {
        "details": "The AO sets AO Setting address",
        "params": {
          "_aoSettingAddress": "The address of AOSetting"
        }
      },
      "setAOStakedContentAddress(address)": {
        "details": "The AO sets AOStakedContent address",
        "params": {
          "_aoStakedContentAddress": "The address of AOStakedContent"
        }
      },
      "setEthosAddress(address)": {
        "details": "The AO sets Ethos address",
        "params": {
          "_ethosAddress": "The address of Ethos"
        }
      },
      "setNameFactoryAddress(address)": {
        "details": "The AO sets NameFactory address",
        "params": {
          "_nameFactoryAddress": "The address of NameFactory"
        }
      },
      "setNameTAOPositionAddress(address)": {
        "details": "The AO set the NameTAOPosition Address",
        "params": {
          "_nameTAOPositionAddress": "The address of NameTAOPosition"
        }
      },
      "setPathosAddress(address)": {
        "details": "The AO sets Pathos address",
        "params": {
          "_pathosAddress": "The address of Pathos"
        }
      },
      "setSettingTAOId(address)": {
        "details": "The AO sets setting TAO ID",
        "params": {
          "_settingTAOId": "The new setting TAO ID to set"
        }
      },
      "setWhitelist(address,bool)": {
        "details": "Whitelist `_account` address to transact on behalf of others",
        "params": {
          "_account": "The address to whitelist",
          "_whitelist": "Either to whitelist or not"
        }
      },
      "transferOwnership(address)": {
        "details": "Transfer ownership of The AO to new address",
        "params": {
          "_theAO": "The new address to be transferred"
        }
      }
    },
    "title": "AOEarning * This contract stores the earning from staking/hosting content on AO"
  },
  "userdoc": {
    "methods": {}
  }
}