{
  "contractName": "AOETH",
  "abi": [
    {
      "constant": true,
      "inputs": [],
      "name": "name",
      "outputs": [
        {
          "name": "",
          "type": "string"
        }
      ],
      "payable": false,
      "stateMutability": "view",
      "type": "function"
    },
    {
      "constant": false,
      "inputs": [
        {
          "name": "_spender",
          "type": "address"
        },
        {
          "name": "_value",
          "type": "uint256"
        }
      ],
      "name": "approve",
      "outputs": [
        {
          "name": "success",
          "type": "bool"
        }
      ],
      "payable": false,
      "stateMutability": "nonpayable",
      "type": "function"
    },
    {
      "constant": true,
      "inputs": [],
      "name": "totalSupply",
      "outputs": [
        {
          "name": "",
          "type": "uint256"
        }
      ],
      "payable": false,
      "stateMutability": "view",
      "type": "function"
    },
    {
      "constant": false,
      "inputs": [
        {
          "name": "_from",
          "type": "address"
        },
        {
          "name": "_to",
          "type": "address"
        },
        {
          "name": "_value",
          "type": "uint256"
        }
      ],
      "name": "transferFrom",
      "outputs": [
        {
          "name": "success",
          "type": "bool"
        }
      ],
      "payable": false,
      "stateMutability": "nonpayable",
      "type": "function"
    },
    {
      "constant": true,
      "inputs": [
        {
          "name": "",
          "type": "address"
        }
      ],
      "name": "totalAddressTokenExchanges",
      "outputs": [
        {
          "name": "",
          "type": "uint256"
        }
      ],
      "payable": false,
      "stateMutability": "view",
      "type": "function"
    },
    {
      "constant": true,
      "inputs": [],
      "name": "decimals",
      "outputs": [
        {
          "name": "",
          "type": "uint8"
        }
      ],
      "payable": false,
      "stateMutability": "view",
      "type": "function"
    },
    {
      "constant": true,
      "inputs": [],
      "name": "aoIonAddress",
      "outputs": [
        {
          "name": "",
          "type": "address"
        }
      ],
      "payable": false,
      "stateMutability": "view",
      "type": "function"
    },
    {
      "constant": false,
      "inputs": [
        {
          "name": "_value",
          "type": "uint256"
        }
      ],
      "name": "burn",
      "outputs": [
        {
          "name": "success",
          "type": "bool"
        }
      ],
      "payable": false,
      "stateMutability": "nonpayable",
      "type": "function"
    },
    {
      "constant": true,
      "inputs": [],
      "name": "nameTAOPositionAddress",
      "outputs": [
        {
          "name": "",
          "type": "address"
        }
      ],
      "payable": false,
      "stateMutability": "view",
      "type": "function"
    },
    {
      "constant": true,
      "inputs": [],
      "name": "totalERC20Tokens",
      "outputs": [
        {
          "name": "",
          "type": "uint256"
        }
      ],
      "payable": false,
      "stateMutability": "view",
      "type": "function"
    },
    {
      "constant": true,
      "inputs": [
        {
          "name": "",
          "type": "address"
        }
      ],
      "name": "balanceOf",
      "outputs": [
        {
          "name": "",
          "type": "uint256"
        }
      ],
      "payable": false,
      "stateMutability": "view",
      "type": "function"
    },
    {
      "constant": false,
      "inputs": [
        {
          "name": "_from",
          "type": "address"
        },
        {
          "name": "_value",
          "type": "uint256"
        }
      ],
      "name": "burnFrom",
      "outputs": [
        {
          "name": "success",
          "type": "bool"
        }
      ],
      "payable": false,
      "stateMutability": "nonpayable",
      "type": "function"
    },
    {
      "constant": true,
      "inputs": [],
      "name": "symbol",
      "outputs": [
        {
          "name": "",
          "type": "string"
        }
      ],
      "payable": false,
      "stateMutability": "view",
      "type": "function"
    },
    {
      "constant": true,
      "inputs": [
        {
          "name": "",
          "type": "address"
        }
      ],
      "name": "whitelist",
      "outputs": [
        {
          "name": "",
          "type": "bool"
        }
      ],
      "payable": false,
      "stateMutability": "view",
      "type": "function"
    },
    {
      "constant": false,
      "inputs": [
        {
          "name": "_to",
          "type": "address"
        },
        {
          "name": "_value",
          "type": "uint256"
        }
      ],
      "name": "transfer",
      "outputs": [
        {
          "name": "success",
          "type": "bool"
        }
      ],
      "payable": false,
      "stateMutability": "nonpayable",
      "type": "function"
    },
    {
      "constant": true,
      "inputs": [],
      "name": "theAO",
      "outputs": [
        {
          "name": "",
          "type": "address"
        }
      ],
      "payable": false,
      "stateMutability": "view",
      "type": "function"
    },
    {
      "constant": false,
      "inputs": [
        {
          "name": "_spender",
          "type": "address"
        },
        {
          "name": "_value",
          "type": "uint256"
        },
        {
          "name": "_extraData",
          "type": "bytes"
        }
      ],
      "name": "approveAndCall",
      "outputs": [
        {
          "name": "success",
          "type": "bool"
        }
      ],
      "payable": false,
      "stateMutability": "nonpayable",
      "type": "function"
    },
    {
      "constant": true,
      "inputs": [
        {
          "name": "",
          "type": "address"
        },
        {
          "name": "",
          "type": "address"
        }
      ],
      "name": "allowance",
      "outputs": [
        {
          "name": "",
          "type": "uint256"
        }
      ],
      "payable": false,
      "stateMutability": "view",
      "type": "function"
    },
    {
      "constant": true,
      "inputs": [],
      "name": "totalTokenExchanges",
      "outputs": [
        {
          "name": "",
          "type": "uint256"
        }
      ],
      "payable": false,
      "stateMutability": "view",
      "type": "function"
    },
    {
      "inputs": [
        {
          "name": "initialSupply",
          "type": "uint256"
        },
        {
          "name": "tokenName",
          "type": "string"
        },
        {
          "name": "tokenSymbol",
          "type": "string"
        },
        {
          "name": "_aoIonAddress",
          "type": "address"
        },
        {
          "name": "_nameTAOPositionAddress",
          "type": "address"
        }
      ],
      "payable": false,
      "stateMutability": "nonpayable",
      "type": "constructor"
    },
    {
      "anonymous": false,
      "inputs": [
        {
          "indexed": true,
          "name": "tokenAddress",
          "type": "address"
        },
        {
          "indexed": false,
          "name": "price",
          "type": "uint256"
        },
        {
          "indexed": false,
          "name": "maxQuantity",
          "type": "uint256"
        }
      ],
      "name": "AddERC20Token",
      "type": "event"
    },
    {
      "anonymous": false,
      "inputs": [
        {
          "indexed": true,
          "name": "tokenAddress",
          "type": "address"
        },
        {
          "indexed": false,
          "name": "price",
          "type": "uint256"
        }
      ],
      "name": "SetPrice",
      "type": "event"
    },
    {
      "anonymous": false,
      "inputs": [
        {
          "indexed": true,
          "name": "tokenAddress",
          "type": "address"
        },
        {
          "indexed": false,
          "name": "maxQuantity",
          "type": "uint256"
        }
      ],
      "name": "SetMaxQuantity",
      "type": "event"
    },
    {
      "anonymous": false,
      "inputs": [
        {
          "indexed": true,
          "name": "tokenAddress",
          "type": "address"
        },
        {
          "indexed": false,
          "name": "active",
          "type": "bool"
        }
      ],
      "name": "SetActive",
      "type": "event"
    },
    {
      "anonymous": false,
      "inputs": [
        {
          "indexed": true,
          "name": "exchangeId",
          "type": "bytes32"
        },
        {
          "indexed": true,
          "name": "from",
          "type": "address"
        },
        {
          "indexed": false,
          "name": "tokenAddress",
          "type": "address"
        },
        {
          "indexed": false,
          "name": "tokenName",
          "type": "string"
        },
        {
          "indexed": false,
          "name": "tokenSymbol",
          "type": "string"
        },
        {
          "indexed": false,
          "name": "sentTokenAmount",
          "type": "uint256"
        },
        {
          "indexed": false,
          "name": "receivedAOETHAmount",
          "type": "uint256"
        },
        {
          "indexed": false,
          "name": "extraData",
          "type": "bytes"
        }
      ],
      "name": "ExchangeToken",
      "type": "event"
    },
    {
      "anonymous": false,
      "inputs": [
        {
          "indexed": true,
          "name": "from",
          "type": "address"
        },
        {
          "indexed": true,
          "name": "to",
          "type": "address"
        },
        {
          "indexed": false,
          "name": "value",
          "type": "uint256"
        }
      ],
      "name": "Transfer",
      "type": "event"
    },
    {
      "anonymous": false,
      "inputs": [
        {
          "indexed": true,
          "name": "_owner",
          "type": "address"
        },
        {
          "indexed": true,
          "name": "_spender",
          "type": "address"
        },
        {
          "indexed": false,
          "name": "_value",
          "type": "uint256"
        }
      ],
      "name": "Approval",
      "type": "event"
    },
    {
      "anonymous": false,
      "inputs": [
        {
          "indexed": true,
          "name": "from",
          "type": "address"
        },
        {
          "indexed": false,
          "name": "value",
          "type": "uint256"
        }
      ],
      "name": "Burn",
      "type": "event"
    },
    {
      "constant": false,
      "inputs": [
        {
          "name": "_theAO",
          "type": "address"
        }
      ],
      "name": "transferOwnership",
      "outputs": [],
      "payable": false,
      "stateMutability": "nonpayable",
      "type": "function"
    },
    {
      "constant": false,
      "inputs": [
        {
          "name": "_account",
          "type": "address"
        },
        {
          "name": "_whitelist",
          "type": "bool"
        }
      ],
      "name": "setWhitelist",
      "outputs": [],
      "payable": false,
      "stateMutability": "nonpayable",
      "type": "function"
    },
    {
      "constant": false,
      "inputs": [
        {
          "name": "_aoIonAddress",
          "type": "address"
        }
      ],
      "name": "setAOIonAddress",
      "outputs": [],
      "payable": false,
      "stateMutability": "nonpayable",
      "type": "function"
    },
    {
      "constant": false,
      "inputs": [
        {
          "name": "_nameTAOPositionAddress",
          "type": "address"
        }
      ],
      "name": "setNameTAOPositionAddress",
      "outputs": [],
      "payable": false,
      "stateMutability": "nonpayable",
      "type": "function"
    },
    {
      "constant": false,
      "inputs": [
        {
          "name": "_erc20TokenAddress",
          "type": "address"
        },
        {
          "name": "_recipient",
          "type": "address"
        },
        {
          "name": "_amount",
          "type": "uint256"
        }
      ],
      "name": "transferERC20",
      "outputs": [],
      "payable": false,
      "stateMutability": "nonpayable",
      "type": "function"
    },
    {
      "constant": false,
      "inputs": [
        {
          "name": "_tokenAddress",
          "type": "address"
        },
        {
          "name": "_price",
          "type": "uint256"
        },
        {
          "name": "_maxQuantity",
          "type": "uint256"
        }
      ],
      "name": "addERC20Token",
      "outputs": [],
      "payable": false,
      "stateMutability": "nonpayable",
      "type": "function"
    },
    {
      "constant": false,
      "inputs": [
        {
          "name": "_tokenAddress",
          "type": "address"
        },
        {
          "name": "_price",
          "type": "uint256"
        }
      ],
      "name": "setPrice",
      "outputs": [],
      "payable": false,
      "stateMutability": "nonpayable",
      "type": "function"
    },
    {
      "constant": false,
      "inputs": [
        {
          "name": "_tokenAddress",
          "type": "address"
        },
        {
          "name": "_maxQuantity",
          "type": "uint256"
        }
      ],
      "name": "setMaxQuantity",
      "outputs": [],
      "payable": false,
      "stateMutability": "nonpayable",
      "type": "function"
    },
    {
      "constant": false,
      "inputs": [
        {
          "name": "_tokenAddress",
          "type": "address"
        },
        {
          "name": "_active",
          "type": "bool"
        }
      ],
      "name": "setActive",
      "outputs": [],
      "payable": false,
      "stateMutability": "nonpayable",
      "type": "function"
    },
    {
      "constant": false,
      "inputs": [
        {
          "name": "_from",
          "type": "address"
        },
        {
          "name": "_to",
          "type": "address"
        },
        {
          "name": "_value",
          "type": "uint256"
        }
      ],
      "name": "whitelistTransferFrom",
      "outputs": [
        {
          "name": "success",
          "type": "bool"
        }
      ],
      "payable": false,
      "stateMutability": "nonpayable",
      "type": "function"
    },
    {
      "constant": true,
      "inputs": [
        {
          "name": "_id",
          "type": "uint256"
        }
      ],
      "name": "getById",
      "outputs": [
        {
          "name": "",
          "type": "address"
        },
        {
          "name": "",
          "type": "string"
        },
        {
          "name": "",
          "type": "string"
        },
        {
          "name": "",
          "type": "uint256"
        },
        {
          "name": "",
          "type": "uint256"
        },
        {
          "name": "",
          "type": "uint256"
        },
        {
          "name": "",
          "type": "bool"
        }
      ],
      "payable": false,
      "stateMutability": "view",
      "type": "function"
    },
    {
      "constant": true,
      "inputs": [
        {
          "name": "_tokenAddress",
          "type": "address"
        }
      ],
      "name": "getByAddress",
      "outputs": [
        {
          "name": "",
          "type": "address"
        },
        {
          "name": "",
          "type": "string"
        },
        {
          "name": "",
          "type": "string"
        },
        {
          "name": "",
          "type": "uint256"
        },
        {
          "name": "",
          "type": "uint256"
        },
        {
          "name": "",
          "type": "uint256"
        },
        {
          "name": "",
          "type": "bool"
        }
      ],
      "payable": false,
      "stateMutability": "view",
      "type": "function"
    },
    {
      "constant": false,
      "inputs": [
        {
          "name": "_from",
          "type": "address"
        },
        {
          "name": "_value",
          "type": "uint256"
        },
        {
          "name": "_token",
          "type": "address"
        },
        {
          "name": "_extraData",
          "type": "bytes"
        }
      ],
      "name": "receiveApproval",
      "outputs": [],
      "payable": false,
      "stateMutability": "nonpayable",
      "type": "function"
    },
    {
      "constant": true,
      "inputs": [
        {
          "name": "_exchangeId",
          "type": "bytes32"
        }
      ],
      "name": "getTokenExchangeById",
      "outputs": [
        {
          "name": "",
          "type": "address"
        },
        {
          "name": "",
          "type": "address"
        },
        {
          "name": "",
          "type": "string"
        },
        {
          "name": "",
          "type": "string"
        },
        {
          "name": "",
          "type": "uint256"
        },
        {
          "name": "",
          "type": "uint256"
        },
        {
          "name": "",
          "type": "uint256"
        },
        {
          "name": "",
          "type": "bytes"
        }
      ],
      "payable": false,
      "stateMutability": "view",
      "type": "function"
    }
  ],
  "bytecode": "0x60806040526005805460ff191660121790553480156200001e57600080fd5b5060405162002f1c38038062002f1c833981018060405260a08110156200004457600080fd5b8151602083018051919392830192916401000000008111156200006657600080fd5b820160208101848111156200007a57600080fd5b81516401000000008111828201871017156200009557600080fd5b50509291906020018051640100000000811115620000b257600080fd5b82016020810184811115620000c657600080fd5b8151640100000000811182820187101715620000e157600080fd5b505060208083015160409384015160008054600160a060020a03191633908117825560055460ff16600a0a8b02600681905590825260078552959020949094558651929550935086918691869162000140916003919085019062000393565b5080516200015690600490602084019062000393565b50505050620001748262000193640100000000026401000000009004565b620001888164010000000062000298810204565b505050505062000438565b600054600154604080517ff66afcac000000000000000000000000000000000000000000000000000000008152336004820152600160a060020a0393841660248201529290911660448301525173__AOLibrary_____________________________9163f66afcac916064808301926020929190829003018186803b1580156200021c57600080fd5b505af415801562000231573d6000803e3d6000fd5b505050506040513d60208110156200024857600080fd5b505115156200025657600080fd5b600160a060020a03811615156200026c57600080fd5b60098054600160a060020a03909216600160a060020a03199283168117909155600a8054909216179055565b600054600154604080517ff66afcac000000000000000000000000000000000000000000000000000000008152336004820152600160a060020a0393841660248201529290911660448301525173__AOLibrary_____________________________9163f66afcac916064808301926020929190829003018186803b1580156200032157600080fd5b505af415801562000336573d6000803e3d6000fd5b505050506040513d60208110156200034d57600080fd5b505115156200035b57600080fd5b600160a060020a03811615156200037157600080fd5b60018054600160a060020a031916600160a060020a0392909216919091179055565b828054600181600116156101000203166002900490600052602060002090601f016020900481019282601f10620003d657805160ff191683800117855562000406565b8280016001018555821562000406579182015b8281111562000406578251825591602001919060010190620003e9565b506200041492915062000418565b5090565b6200043591905b808211156200041457600081556001016200041f565b90565b612ad480620004486000396000f3fe608060405234801561001057600080fd5b50600436106101fe5760003560e060020a9004806379cc67901161011e578063a9059cbb116100b1578063e052571a11610080578063e052571a14610888578063f2fde38b14610890578063f4f4d237146108b6578063f97106b5146108d3578063fe052cb4146108f9576101fe565b8063a9059cbb1461076b578063a9b6b38e14610797578063cae9ca511461079f578063dd62ed3e1461085a576101fe565b806399b3b8b0116100ed57806399b3b8b0146106ad5780639b19251a146106d95780639db5dbe4146106ff578063a144a3e014610735576101fe565b806379cc6790146105b857806388004022146105e45780638f4ffcb11461061657806395d89b41146106a5576101fe565b8063313ce5671161019657806353d6fd591161016557806353d6fd59146105365780635cfaf2ef146105645780636fe1b3331461058a57806370a0823114610592576101fe565b8063313ce567146104cf5780633c56b011146104ed57806342966c68146105115780634ef033f01461052e576101fe565b806323b872dd116101d257806323b872dd146103085780632b376fa51461033e5780632ce962cf1461036457806330257bf714610392576101fe565b8062e4768b1461020357806306fdde0314610231578063095ea7b3146102ae57806318160ddd146102ee575b600080fd5b61022f6004803603604081101561021957600080fd5b50600160a060020a038135169060200135610aa1565b005b610239610be3565b6040805160208082528351818301528351919283929083019185019080838360005b8381101561027357818101518382015260200161025b565b50505050905090810190601f1680156102a05780820380516001836020036101000a031916815260200191505b509250505060405180910390f35b6102da600480360360408110156102c457600080fd5b50600160a060020a038135169060200135610c71565b604080519115158252519081900360200190f35b6102f6610cd7565b60408051918252519081900360200190f35b6102da6004803603606081101561031e57600080fd5b50600160a060020a03813581169160208101359091169060400135610cdd565b6102f66004803603602081101561035457600080fd5b5035600160a060020a0316610d4d565b61022f6004803603604081101561037a57600080fd5b50600160a060020a0381351690602001351515610d5f565b6103b8600480360360208110156103a857600080fd5b5035600160a060020a0316610ea8565b6040518088600160a060020a0316600160a060020a03168152602001806020018060200187815260200186815260200185815260200184151515158152602001838103835289818151815260200191508051906020019080838360005b8381101561042d578181015183820152602001610415565b50505050905090810190601f16801561045a5780820380516001836020036101000a031916815260200191505b5083810382528851815288516020918201918a019080838360005b8381101561048d578181015183820152602001610475565b50505050905090810190601f1680156104ba5780820380516001836020036101000a031916815260200191505b50995050505050505050505060405180910390f35b6104d7610f12565b6040805160ff9092168252519081900360200190f35b6104f5610f1b565b60408051600160a060020a039092168252519081900360200190f35b6102da6004803603602081101561052757600080fd5b5035610f2a565b6104f5610fa2565b61022f6004803603604081101561054c57600080fd5b50600160a060020a0381351690602001351515610fb1565b61022f6004803603602081101561057a57600080fd5b5035600160a060020a031661109a565b6102f6611187565b6102f6600480360360208110156105a857600080fd5b5035600160a060020a031661118d565b6102da600480360360408110156105ce57600080fd5b50600160a060020a03813516906020013561119f565b61022f600480360360608110156105fa57600080fd5b50600160a060020a038135169060208101359060400135611270565b61022f6004803603608081101561062c57600080fd5b600160a060020a03823581169260208101359260408201359092169181019060808101606082013564010000000081111561066657600080fd5b82018360208201111561067857600080fd5b8035906020019184600183028401116401000000008311171561069a57600080fd5b5090925090506114ca565b610239611c55565b61022f600480360360408110156106c357600080fd5b50600160a060020a038135169060200135611cb0565b6102da600480360360208110156106ef57600080fd5b5035600160a060020a0316611dfe565b61022f6004803603606081101561071557600080fd5b50600160a060020a03813581169160208101359091169060400135611e13565b6102da6004803603606081101561074b57600080fd5b50600160a060020a03813581169160208101359091169060400135611f65565b6102da6004803603604081101561078157600080fd5b50600160a060020a038135169060200135611f91565b6104f5611fa7565b6102da600480360360608110156107b557600080fd5b600160a060020a03823516916020810135918101906060810160408201356401000000008111156107e557600080fd5b8201836020820111156107f757600080fd5b8035906020019184600183028401116401000000008311171561081957600080fd5b91908080601f016020809104026020016040519081016040528093929190818152602001838380828437600092019190915250929550611fb6945050505050565b6102f66004803603604081101561087057600080fd5b50600160a060020a03813581169160200135166120d4565b6102f66120f1565b61022f600480360360208110156108a657600080fd5b5035600160a060020a03166120f7565b6103b8600480360360208110156108cc57600080fd5b50356121e4565b61022f600480360360208110156108e957600080fd5b5035600160a060020a0316612442565b6109166004803603602081101561090f57600080fd5b5035612539565b6040518089600160a060020a0316600160a060020a0316815260200188600160a060020a0316600160a060020a0316815260200180602001806020018781526020018681526020018581526020018060200184810384528a818151815260200191508051906020019080838360005b8381101561099d578181015183820152602001610985565b50505050905090810190601f1680156109ca5780820380516001836020036101000a031916815260200191505b5084810383528951815289516020918201918b019080838360005b838110156109fd5781810151838201526020016109e5565b50505050905090810190601f168015610a2a5780820380516001836020036101000a031916815260200191505b50848103825285518152855160209182019187019080838360005b83811015610a5d578181015183820152602001610a45565b50505050905090810190601f168015610a8a5780820380516001836020036101000a031916815260200191505b509b50505050505050505050505060405180910390f35b6000546001546040805160e260020a633d9abf2b028152336004820152600160a060020a0393841660248201529290911660448301525173__AOLibrary_____________________________9163f66afcac916064808301926020929190829003018186803b158015610b1357600080fd5b505af4158015610b27573d6000803e3d6000fd5b505050506040513d6020811015610b3d57600080fd5b50511515610b4a57600080fd5b600160a060020a0382166000908152600e602052604081205411610b6d57600080fd5b60008111610b7a57600080fd5b600160a060020a038083166000908152600e60209081526040808320548352600d82529182902060018101859055805483518681529351919416927f95dce27040c59c8b1c445b284f81a3aaae6eecd7d08d5c7684faee64cdb514a192908290030190a2505050565b6003805460408051602060026001851615610100026000190190941693909304601f81018490048402820184019092528181529291830182828015610c695780601f10610c3e57610100808354040283529160200191610c69565b820191906000526020600020905b815481529060010190602001808311610c4c57829003601f168201915b505050505081565b336000818152600860209081526040808320600160a060020a038716808552908352818420869055815186815291519394909390927f8c5be1e5ebec7d5bd14f71427d1e84f3dd0314c0f7b2291e5b200ac8c7c3b925928290030190a350600192915050565b60065481565b600160a060020a0383166000908152600860209081526040808320338452909152812054821115610d0d57600080fd5b600160a060020a0384166000908152600860209081526040808320338452909152902080548390039055610d42848484612847565b5060015b9392505050565b60116020526000908152604090205481565b6000546001546040805160e260020a633d9abf2b028152336004820152600160a060020a0393841660248201529290911660448301525173__AOLibrary_____________________________9163f66afcac916064808301926020929190829003018186803b158015610dd157600080fd5b505af4158015610de5573d6000803e3d6000fd5b505050506040513d6020811015610dfb57600080fd5b50511515610e0857600080fd5b600160a060020a0382166000908152600e602052604081205411610e2b57600080fd5b600160a060020a038281166000908152600e60209081526040808320548352600d82529182902060048101805460ff191686151517908190558154845160ff909216151582529351919493909316927fcffe4dbbb5826fcea2505272feb0965988b63cea566c7936179fd30ecbc26cf992908290030190a2505050565b600160a060020a0381166000908152600e6020526040812054606090819083908190819081908110610ed957600080fd5b600160a060020a0388166000908152600e6020526040902054610efb906121e4565b959e949d50929b5090995097509550909350915050565b60055460ff1681565b600954600160a060020a031681565b33600090815260076020526040812054821115610f4657600080fd5b3360008181526007602090815260409182902080548690039055600680548690039055815185815291517fcc16f5dbb4873280815c1ee09dbd06736cffcc184412cf7a71a0fdb75d397ca59281900390910190a2506001919050565b600154600160a060020a031681565b6000546001546040805160e260020a633d9abf2b028152336004820152600160a060020a0393841660248201529290911660448301525173__AOLibrary_____________________________9163f66afcac916064808301926020929190829003018186803b15801561102357600080fd5b505af4158015611037573d6000803e3d6000fd5b505050506040513d602081101561104d57600080fd5b5051151561105a57600080fd5b600160a060020a038216151561106f57600080fd5b600160a060020a03919091166000908152600260205260409020805460ff1916911515919091179055565b6000546001546040805160e260020a633d9abf2b028152336004820152600160a060020a0393841660248201529290911660448301525173__AOLibrary_____________________________9163f66afcac916064808301926020929190829003018186803b15801561110c57600080fd5b505af4158015611120573d6000803e3d6000fd5b505050506040513d602081101561113657600080fd5b5051151561114357600080fd5b600160a060020a038116151561115857600080fd5b6001805473ffffffffffffffffffffffffffffffffffffffff1916600160a060020a0392909216919091179055565b600b5481565b60076020526000908152604090205481565b600160a060020a0382166000908152600760205260408120548211156111c457600080fd5b600160a060020a03831660009081526008602090815260408083203384529091529020548211156111f457600080fd5b600160a060020a0383166000818152600760209081526040808320805487900390556008825280832033845282529182902080548690039055600680548690039055815185815291517fcc16f5dbb4873280815c1ee09dbd06736cffcc184412cf7a71a0fdb75d397ca59281900390910190a250600192915050565b6000546001546040805160e260020a633d9abf2b028152336004820152600160a060020a0393841660248201529290911660448301525173__AOLibrary_____________________________9163f66afcac916064808301926020929190829003018186803b1580156112e257600080fd5b505af41580156112f6573d6000803e3d6000fd5b505050506040513d602081101561130c57600080fd5b5051151561131957600080fd5b600160a060020a038316158015906113315750600082115b801561133d5750600081115b151561134857600080fd5b604080517f2b439a94000000000000000000000000000000000000000000000000000000008152600160a060020a0385166004820152905173__AOLibrary_____________________________91632b439a94916024808301926020929190829003018186803b1580156113bb57600080fd5b505af41580156113cf573d6000803e3d6000fd5b505050506040513d60208110156113e557600080fd5b505115156113f257600080fd5b600160a060020a0383166000908152600e60205260409020541561141557600080fd5b600b8054600190810191829055600160a060020a038086166000818152600e60209081526040808320879055958252600d815290859020805473ffffffffffffffffffffffffffffffffffffffff19169092178083558285018890556002830187905560048301805460ff191690951790945584518781529081018690528451919493909216927f0a5340431ac1bf5f1b6a1197ddc2a362b7c4be9a9a09018ed7d83596f5b9df58928290030190a250505050565b600160a060020a03851615156114df57600080fd5b604080517f2b439a94000000000000000000000000000000000000000000000000000000008152600160a060020a0385166004820152905173__AOLibrary_____________________________91632b439a94916024808301926020929190829003018186803b15801561155257600080fd5b505af4158015611566573d6000803e3d6000fd5b505050506040513d602081101561157c57600080fd5b5051151561158957600080fd5b600160a060020a0383166000908152600e6020526040812054116115ac57600080fd5b600160a060020a0383166000908152600e60209081526040808320548352600d9091529020600481015460ff1680156115e9575060008160010154115b80156115fc575080600201548160030154105b151561160757600080fd5b600061162082600101548761294590919063ffffffff16565b90508061163e8360030154846002015461295a90919063ffffffff16565b101561164957600080fd5b600a54604080517ffb6ff16100000000000000000000000000000000000000000000000000000000815290518392600160a060020a03169163fb6ff161916004808301926020929190829003018186803b1580156116a657600080fd5b505afa1580156116ba573d6000803e3d6000fd5b505050506040513d60208110156116d057600080fd5b505110156116dd57600080fd5b604080517f23b872dd000000000000000000000000000000000000000000000000000000008152600160a060020a038981166004830152306024830152604482018990529151918716916323b872dd916064808201926020929091908290030181600087803b15801561174f57600080fd5b505af1158015611763573d6000803e3d6000fd5b505050506040513d602081101561177957600080fd5b5051151561178657600080fd5b600382015461179b908263ffffffff61296c16565b6003830155600160a060020a0387166000908152600760205260409020546117c9908263ffffffff61296c16565b600160a060020a0388166000908152600760205260409020556006546117f5908263ffffffff61296c16565b6006908155600c805460019081018255600160a060020a03808b166000818152601160209081526040808320805487019055955486516c0100000000000000000000000030810282850152850260348201526048808201839052885180830390910181526068909101885280519083012080845260108352878420829055908352600f909152949020848155808401805473ffffffffffffffffffffffffffffffffffffffff199081169093179055600281018054938c1693909216929092179055908501546003820155600481018990556005810184905590916118dd908201878761297f565b50600181015481546002830154604080517f06fdde030000000000000000000000000000000000000000000000000000000081529051600160a060020a03948516947fca687dc8d756a0b92f40bdb8ffd02f4ab4b3a7c00e7d57ab5f2dc8cc5aa8bb1493811692908d16916306fdde0391600480820192600092909190829003018186803b15801561196e57600080fd5b505afa158015611982573d6000803e3d6000fd5b505050506040513d6000823e601f3d908101601f1916820160405260208110156119ab57600080fd5b8101908080516401000000008111156119c357600080fd5b820160208101848111156119d657600080fd5b81516401000000008111828201871017156119f057600080fd5b50509291905050508b600160a060020a03166395d89b416040518163ffffffff1660e060020a02815260040160006040518083038186803b158015611a3457600080fd5b505afa158015611a48573d6000803e3d6000fd5b505050506040513d6000823e601f3d908101601f191682016040526020811015611a7157600080fd5b810190808051640100000000811115611a8957600080fd5b82016020810184811115611a9c57600080fd5b8151640100000000811182820187101715611ab657600080fd5b505092919050505086600401548760050154886006016040518087600160a060020a0316600160a060020a03168152602001806020018060200186815260200185815260200180602001848103845289818151815260200191508051906020019080838360005b83811015611b35578181015183820152602001611b1d565b50505050905090810190601f168015611b625780820380516001836020036101000a031916815260200191505b5084810383528851815288516020918201918a019080838360005b83811015611b95578181015183820152602001611b7d565b50505050905090810190601f168015611bc25780820380516001836020036101000a031916815260200191505b50848103825285546002600019610100600184161502019091160480825260209091019086908015611c355780601f10611c0a57610100808354040283529160200191611c35565b820191906000526020600020905b815481529060010190602001808311611c1857829003601f168201915b5050995050505050505050505060405180910390a3505050505050505050565b6004805460408051602060026001851615610100026000190190941693909304601f81018490048402820184019092528181529291830182828015610c695780601f10610c3e57610100808354040283529160200191610c69565b6000546001546040805160e260020a633d9abf2b028152336004820152600160a060020a0393841660248201529290911660448301525173__AOLibrary_____________________________9163f66afcac916064808301926020929190829003018186803b158015611d2257600080fd5b505af4158015611d36573d6000803e3d6000fd5b505050506040513d6020811015611d4c57600080fd5b50511515611d5957600080fd5b600160a060020a0382166000908152600e602052604081205411611d7c57600080fd5b600160a060020a0382166000908152600e60209081526040808320548352600d909152902060038101548211611db157600080fd5b600281018290558054604080518481529051600160a060020a03909216917f104b11bce76a76d2ca69540c5831aac430a4dba8d5a7a7818aa12ef6c328657d9181900360200190a2505050565b60026020526000908152604090205460ff1681565b6000546001546040805160e260020a633d9abf2b028152336004820152600160a060020a0393841660248201529290911660448301525173__AOLibrary_____________________________9163f66afcac916064808301926020929190829003018186803b158015611e8557600080fd5b505af4158015611e99573d6000803e3d6000fd5b505050506040513d6020811015611eaf57600080fd5b50511515611ebc57600080fd5b604080517fa9059cbb000000000000000000000000000000000000000000000000000000008152600160a060020a038481166004830152602482018490529151859283169163a9059cbb9160448083019260209291908290030181600087803b158015611f2857600080fd5b505af1158015611f3c573d6000803e3d6000fd5b505050506040513d6020811015611f5257600080fd5b50511515611f5f57600080fd5b50505050565b3360009081526002602052604081205460ff161515600114611f8657600080fd5b610d42848484612847565b6000611f9e338484612847565b50600192915050565b600054600160a060020a031681565b600083611fc38185610c71565b156120cc576040517f8f4ffcb10000000000000000000000000000000000000000000000000000000081523360048201818152602483018790523060448401819052608060648501908152875160848601528751600160a060020a03871695638f4ffcb195948b94938b939192909160a490910190602085019080838360005b8381101561205b578181015183820152602001612043565b50505050905090810190601f1680156120885780820380516001836020036101000a031916815260200191505b5095505050505050600060405180830381600087803b1580156120aa57600080fd5b505af11580156120be573d6000803e3d6000fd5b505050506001915050610d46565b509392505050565b600860209081526000928352604080842090915290825290205481565b600c5481565b6000546001546040805160e260020a633d9abf2b028152336004820152600160a060020a0393841660248201529290911660448301525173__AOLibrary_____________________________9163f66afcac916064808301926020929190829003018186803b15801561216957600080fd5b505af415801561217d573d6000803e3d6000fd5b505050506040513d602081101561219357600080fd5b505115156121a057600080fd5b600160a060020a03811615156121b557600080fd5b6000805473ffffffffffffffffffffffffffffffffffffffff1916600160a060020a0392909216919091179055565b6000818152600d602052604081205460609081908390819081908190600160a060020a0316151561221457600080fd5b61221c6129fd565b506000888152600d60209081526040808320815160a0810183528154600160a060020a03168082526001830154948201949094526002820154818401526003820154606082015260049182015460ff161515608082015282517f06fdde030000000000000000000000000000000000000000000000000000000081529251909484936306fdde03938181019391829003018186803b1580156122bd57600080fd5b505afa1580156122d1573d6000803e3d6000fd5b505050506040513d6000823e601f3d908101601f1916820160405260208110156122fa57600080fd5b81019080805164010000000081111561231257600080fd5b8201602081018481111561232557600080fd5b815164010000000081118282018710171561233f57600080fd5b50509291905050508260000151600160a060020a03166395d89b416040518163ffffffff1660e060020a02815260040160006040518083038186803b15801561238757600080fd5b505afa15801561239b573d6000803e3d6000fd5b505050506040513d6000823e601f3d908101601f1916820160405260208110156123c457600080fd5b8101908080516401000000008111156123dc57600080fd5b820160208101848111156123ef57600080fd5b815164010000000081118282018710171561240957600080fd5b5050602087015160408801516060890151608090990151979f50959d50909b509950929750939550919350505050919395979092949650565b6000546001546040805160e260020a633d9abf2b028152336004820152600160a060020a0393841660248201529290911660448301525173__AOLibrary_____________________________9163f66afcac916064808301926020929190829003018186803b1580156124b457600080fd5b505af41580156124c8573d6000803e3d6000fd5b505050506040513d60208110156124de57600080fd5b505115156124eb57600080fd5b600160a060020a038116151561250057600080fd5b60098054600160a060020a0390921673ffffffffffffffffffffffffffffffffffffffff199283168117909155600a8054909216179055565b600080606080600080600060606000601060008b81526020019081526020016000205411151561256857600080fd5b612570612a38565b60008a8152601060209081526040808320548352600f825291829020825160e08101845281548152600180830154600160a060020a0390811683860152600280850154909116838701526003840154606084015260048401546080840152600584015460a084015260068401805487516101009482161594909402600019011691909104601f81018690048602830186019096528582529194929360c0860193919291908301828280156126655780601f1061263a57610100808354040283529160200191612665565b820191906000526020600020905b81548152906001019060200180831161264857829003601f168201915b5050505050815250509050806020015181604001518260400151600160a060020a03166306fdde036040518163ffffffff1660e060020a02815260040160006040518083038186803b1580156126ba57600080fd5b505afa1580156126ce573d6000803e3d6000fd5b505050506040513d6000823e601f3d908101601f1916820160405260208110156126f757600080fd5b81019080805164010000000081111561270f57600080fd5b8201602081018481111561272257600080fd5b815164010000000081118282018710171561273c57600080fd5b50509291905050508360400151600160a060020a03166395d89b416040518163ffffffff1660e060020a02815260040160006040518083038186803b15801561278457600080fd5b505afa158015612798573d6000803e3d6000fd5b505050506040513d6000823e601f3d908101601f1916820160405260208110156127c157600080fd5b8101908080516401000000008111156127d957600080fd5b820160208101848111156127ec57600080fd5b815164010000000081118282018710171561280657600080fd5b5050929190505050846060015185608001518660a001518760c001518595508494508090509850985098509850985098509850985050919395975091939597565b600160a060020a038216151561285c57600080fd5b600160a060020a03831660009081526007602052604090205481111561288157600080fd5b600160a060020a038216600090815260076020526040902054818101116128a757600080fd5b600160a060020a038083166000818152600760209081526040808320805495891680855282852080548981039091559486905281548801909155815187815291519390950194927fddf252ad1be2c89b69c2b068fc378daa952ba7f163c4a11628f55a4df523b3ef929181900390910190a3600160a060020a03808416600090815260076020526040808220549287168252902054018114611f5f57fe5b6000818381151561295257fe5b049392505050565b60008282111561296657fe5b50900390565b8181018281101561297957fe5b92915050565b828054600181600116156101000203166002900490600052602060002090601f016020900481019282601f106129c05782800160ff198235161785556129ed565b828001600101855582156129ed579182015b828111156129ed5782358255916020019190600101906129d2565b506129f9929150612a8b565b5090565b60a0604051908101604052806000600160a060020a031681526020016000815260200160008152602001600081526020016000151581525090565b60e060405190810160405280600080191681526020016000600160a060020a031681526020016000600160a060020a03168152602001600081526020016000815260200160008152602001606081525090565b612aa591905b808211156129f95760008155600101612a91565b9056fea165627a7a7230582010b34ed8d1f1d8ad9fb5a6b188d543d0bb28ffc695a5d02d36fe5cada974ea320029",
  "source": "pragma solidity ^0.5.4;\n\nimport './SafeMath.sol';\nimport './AOLibrary.sol';\nimport './TheAO.sol';\nimport './TokenERC20.sol';\nimport './tokenRecipient.sol';\nimport './AOIon.sol';\n\n/**\n * @title AOETH\n */\ncontract AOETH is TheAO, TokenERC20, tokenRecipient {\n\tusing SafeMath for uint256;\n\n\taddress public aoIonAddress;\n\n\tAOIon internal _aoIon;\n\n\tuint256 public totalERC20Tokens;\n\tuint256 public totalTokenExchanges;\n\n\tstruct ERC20Token {\n\t\taddress tokenAddress;\n\t\tuint256 price;\t\t\t// price of this ERC20 Token to AOETH\n\t\tuint256 maxQuantity;\t// To prevent too much exposure to a given asset\n\t\tuint256 exchangedQuantity;\t// Running total (total AOETH exchanged from this specific ERC20 Token)\n\t\tbool active;\n\t}\n\n\tstruct TokenExchange {\n\t\tbytes32 exchangeId;\n\t\taddress buyer;\t\t\t// The buyer address\n\t\taddress tokenAddress;\t// The address of ERC20 Token\n\t\tuint256 price;\t\t\t// price of ERC20 Token to AOETH\n\t\tuint256 sentAmount;\t\t// Amount of ERC20 Token sent\n\t\tuint256 receivedAmount;\t// Amount of AOETH received\n\t\tbytes extraData; // Extra data\n\t}\n\n\t// Mapping from id to ERC20Token object\n\tmapping (uint256 => ERC20Token) internal erc20Tokens;\n\tmapping (address => uint256) internal erc20TokenIdLookup;\n\n\t// Mapping from id to TokenExchange object\n\tmapping (uint256 => TokenExchange) internal tokenExchanges;\n\tmapping (bytes32 => uint256) internal tokenExchangeIdLookup;\n\tmapping (address => uint256) public totalAddressTokenExchanges;\n\n\t// Event to be broadcasted to public when TheAO adds an ERC20 Token\n\tevent AddERC20Token(address indexed tokenAddress, uint256 price, uint256 maxQuantity);\n\n\t// Event to be broadcasted to public when TheAO sets price for ERC20 Token\n\tevent SetPrice(address indexed tokenAddress, uint256 price);\n\n\t// Event to be broadcasted to public when TheAO sets max quantity for ERC20 Token\n\tevent SetMaxQuantity(address indexed tokenAddress, uint256 maxQuantity);\n\n\t// Event to be broadcasted to public when TheAO sets active status for ERC20 Token\n\tevent SetActive(address indexed tokenAddress, bool active);\n\n\t// Event to be broadcasted to public when user exchanges ERC20 Token for AOETH\n\tevent ExchangeToken(bytes32 indexed exchangeId, address indexed from, address tokenAddress, string tokenName, string tokenSymbol, uint256 sentTokenAmount, uint256 receivedAOETHAmount, bytes extraData);\n\n\t/**\n\t * @dev Constructor function\n\t */\n\tconstructor(uint256 initialSupply, string memory tokenName, string memory tokenSymbol, address _aoIonAddress, address _nameTAOPositionAddress)\n\t\tTokenERC20(initialSupply, tokenName, tokenSymbol) public {\n\t\tsetAOIonAddress(_aoIonAddress);\n\t\tsetNameTAOPositionAddress(_nameTAOPositionAddress);\n\t}\n\n\t/**\n\t * @dev Checks if the calling contract address is The AO\n\t *\t\tOR\n\t *\t\tIf The AO is set to a Name/TAO, then check if calling address is the Advocate\n\t */\n\tmodifier onlyTheAO {\n\t\trequire (AOLibrary.isTheAO(msg.sender, theAO, nameTAOPositionAddress));\n\t\t_;\n\t}\n\n\t/***** The AO ONLY METHODS *****/\n\t/**\n\t * @dev Transfer ownership of The AO to new address\n\t * @param _theAO The new address to be transferred\n\t */\n\tfunction transferOwnership(address _theAO) public onlyTheAO {\n\t\trequire (_theAO != address(0));\n\t\ttheAO = _theAO;\n\t}\n\n\t/**\n\t * @dev Whitelist `_account` address to transact on behalf of others\n\t * @param _account The address to whitelist\n\t * @param _whitelist Either to whitelist or not\n\t */\n\tfunction setWhitelist(address _account, bool _whitelist) public onlyTheAO {\n\t\trequire (_account != address(0));\n\t\twhitelist[_account] = _whitelist;\n\t}\n\n\t/**\n\t * @dev The AO set the AOIon Address\n\t * @param _aoIonAddress The address of AOIon\n\t */\n\tfunction setAOIonAddress(address _aoIonAddress) public onlyTheAO {\n\t\trequire (_aoIonAddress != address(0));\n\t\taoIonAddress = _aoIonAddress;\n\t\t_aoIon = AOIon(_aoIonAddress);\n\t}\n\n\t/**\n\t * @dev The AO set the NameTAOPosition Address\n\t * @param _nameTAOPositionAddress The address of NameTAOPosition\n\t */\n\tfunction setNameTAOPositionAddress(address _nameTAOPositionAddress) public onlyTheAO {\n\t\trequire (_nameTAOPositionAddress != address(0));\n\t\tnameTAOPositionAddress = _nameTAOPositionAddress;\n\t}\n\n\t/**\n\t * @dev Allows TheAO to transfer `_amount` of ERC20 Token from this address to `_recipient`\n\t * @param _erc20TokenAddress The address of ERC20 Token\n\t * @param _recipient The recipient address\n\t * @param _amount The amount to transfer\n\t */\n\tfunction transferERC20(address _erc20TokenAddress, address _recipient, uint256 _amount) public onlyTheAO {\n\t\tTokenERC20 _erc20 = TokenERC20(_erc20TokenAddress);\n\t\trequire (_erc20.transfer(_recipient, _amount));\n\t}\n\n\t/**\n\t * @dev Add an ERC20 Token to the list\n\t * @param _tokenAddress The address of the ERC20 Token\n\t * @param _price The price of this token to AOETH\n\t * @param _maxQuantity Maximum quantity allowed for exchange\n\t */\n\tfunction addERC20Token(address _tokenAddress, uint256 _price, uint256 _maxQuantity) public onlyTheAO {\n\t\trequire (_tokenAddress != address(0) && _price > 0 && _maxQuantity > 0);\n\t\trequire (AOLibrary.isValidERC20TokenAddress(_tokenAddress));\n\t\trequire (erc20TokenIdLookup[_tokenAddress] == 0);\n\n\t\ttotalERC20Tokens++;\n\t\terc20TokenIdLookup[_tokenAddress] = totalERC20Tokens;\n\t\tERC20Token storage _erc20Token = erc20Tokens[totalERC20Tokens];\n\t\t_erc20Token.tokenAddress = _tokenAddress;\n\t\t_erc20Token.price = _price;\n\t\t_erc20Token.maxQuantity = _maxQuantity;\n\t\t_erc20Token.active = true;\n\t\temit AddERC20Token(_erc20Token.tokenAddress, _erc20Token.price, _erc20Token.maxQuantity);\n\t}\n\n\t/**\n\t * @dev Set price for existing ERC20 Token\n\t * @param _tokenAddress The address of the ERC20 Token\n\t * @param _price The price of this token to AOETH\n\t */\n\tfunction setPrice(address _tokenAddress, uint256 _price) public onlyTheAO {\n\t\trequire (erc20TokenIdLookup[_tokenAddress] > 0);\n\t\trequire (_price > 0);\n\n\t\tERC20Token storage _erc20Token = erc20Tokens[erc20TokenIdLookup[_tokenAddress]];\n\t\t_erc20Token.price = _price;\n\t\temit SetPrice(_erc20Token.tokenAddress, _erc20Token.price);\n\t}\n\n\t/**\n\t * @dev Set max quantity for existing ERC20 Token\n\t * @param _tokenAddress The address of the ERC20 Token\n\t * @param _maxQuantity The max exchange quantity for this token\n\t */\n\tfunction setMaxQuantity(address _tokenAddress, uint256 _maxQuantity) public onlyTheAO {\n\t\trequire (erc20TokenIdLookup[_tokenAddress] > 0);\n\n\t\tERC20Token storage _erc20Token = erc20Tokens[erc20TokenIdLookup[_tokenAddress]];\n\t\trequire (_maxQuantity > _erc20Token.exchangedQuantity);\n\t\t_erc20Token.maxQuantity = _maxQuantity;\n\t\temit SetMaxQuantity(_erc20Token.tokenAddress, _erc20Token.maxQuantity);\n\t}\n\n\t/**\n\t * @dev Set active status for existing ERC20 Token\n\t * @param _tokenAddress The address of the ERC20 Token\n\t * @param _active The active status for this token\n\t */\n\tfunction setActive(address _tokenAddress, bool _active) public onlyTheAO {\n\t\trequire (erc20TokenIdLookup[_tokenAddress] > 0);\n\n\t\tERC20Token storage _erc20Token = erc20Tokens[erc20TokenIdLookup[_tokenAddress]];\n\t\t_erc20Token.active = _active;\n\t\temit SetActive(_erc20Token.tokenAddress, _erc20Token.active);\n\t}\n\n\t/**\n\t * @dev Whitelisted address transfer tokens from other address\n\t *\n\t * Send `_value` tokens to `_to` on behalf of `_from`\n\t *\n\t * @param _from The address of the sender\n\t * @param _to The address of the recipient\n\t * @param _value the amount to send\n\t */\n\tfunction whitelistTransferFrom(address _from, address _to, uint256 _value) public inWhitelist returns (bool success) {\n\t\t_transfer(_from, _to, _value);\n\t\treturn true;\n\t}\n\n\t/***** PUBLIC METHODS *****/\n\t/**\n\t * @dev Get an ERC20 Token information given an ID\n\t * @param _id The internal ID of the ERC20 Token\n\t * @return The ERC20 Token address\n\t * @return The name of the token\n\t * @return The symbol of the token\n\t * @return The price of this token to AOETH\n\t * @return The max quantity for exchange\n\t * @return The total AOETH exchanged from this token\n\t * @return The status of this token\n\t */\n\tfunction getById(uint256 _id) public view returns (address, string memory, string memory, uint256, uint256, uint256, bool) {\n\t\trequire (erc20Tokens[_id].tokenAddress != address(0));\n\t\tERC20Token memory _erc20Token = erc20Tokens[_id];\n\t\treturn (\n\t\t\t_erc20Token.tokenAddress,\n\t\t\tTokenERC20(_erc20Token.tokenAddress).name(),\n\t\t\tTokenERC20(_erc20Token.tokenAddress).symbol(),\n\t\t\t_erc20Token.price,\n\t\t\t_erc20Token.maxQuantity,\n\t\t\t_erc20Token.exchangedQuantity,\n\t\t\t_erc20Token.active\n\t\t);\n\t}\n\n\t/**\n\t * @dev Get an ERC20 Token information given an address\n\t * @param _tokenAddress The address of the ERC20 Token\n\t * @return The ERC20 Token address\n\t * @return The name of the token\n\t * @return The symbol of the token\n\t * @return The price of this token to AOETH\n\t * @return The max quantity for exchange\n\t * @return The total AOETH exchanged from this token\n\t * @return The status of this token\n\t */\n\tfunction getByAddress(address _tokenAddress) public view returns (address, string memory, string memory, uint256, uint256, uint256, bool) {\n\t\trequire (erc20TokenIdLookup[_tokenAddress] > 0);\n\t\treturn getById(erc20TokenIdLookup[_tokenAddress]);\n\t}\n\n\t/**\n\t * @dev When a user approves AOETH to spend on his/her behalf (i.e exchange to AOETH)\n\t * @param _from The user address that approved AOETH\n\t * @param _value The amount that the user approved\n\t * @param _token The address of the ERC20 Token\n\t * @param _extraData The extra data sent during the approval\n\t */\n\tfunction receiveApproval(address _from, uint256 _value, address _token, bytes calldata _extraData) external {\n\t\trequire (_from != address(0));\n\t\trequire (AOLibrary.isValidERC20TokenAddress(_token));\n\n\t\t// Check if the token is supported\n\t\trequire (erc20TokenIdLookup[_token] > 0);\n\t\tERC20Token storage _erc20Token = erc20Tokens[erc20TokenIdLookup[_token]];\n\t\trequire (_erc20Token.active && _erc20Token.price > 0 && _erc20Token.exchangedQuantity < _erc20Token.maxQuantity);\n\n\t\tuint256 amountToTransfer = _value.div(_erc20Token.price);\n\t\trequire (_erc20Token.maxQuantity.sub(_erc20Token.exchangedQuantity) >= amountToTransfer);\n\t\trequire (_aoIon.availableETH() >= amountToTransfer);\n\n\t\t// Transfer the ERC20 Token from the `_from` address to here\n\t\trequire (TokenERC20(_token).transferFrom(_from, address(this), _value));\n\n\t\t_erc20Token.exchangedQuantity = _erc20Token.exchangedQuantity.add(amountToTransfer);\n\t\tbalanceOf[_from] = balanceOf[_from].add(amountToTransfer);\n\t\ttotalSupply = totalSupply.add(amountToTransfer);\n\n\t\t// Store the TokenExchange information\n\t\ttotalTokenExchanges++;\n\t\ttotalAddressTokenExchanges[_from]++;\n\t\tbytes32 _exchangeId = keccak256(abi.encodePacked(this, _from, totalTokenExchanges));\n\t\ttokenExchangeIdLookup[_exchangeId] = totalTokenExchanges;\n\n\t\tTokenExchange storage _tokenExchange = tokenExchanges[totalTokenExchanges];\n\t\t_tokenExchange.exchangeId = _exchangeId;\n\t\t_tokenExchange.buyer = _from;\n\t\t_tokenExchange.tokenAddress = _token;\n\t\t_tokenExchange.price = _erc20Token.price;\n\t\t_tokenExchange.sentAmount = _value;\n\t\t_tokenExchange.receivedAmount = amountToTransfer;\n\t\t_tokenExchange.extraData = _extraData;\n\n\t\temit ExchangeToken(_tokenExchange.exchangeId, _tokenExchange.buyer, _tokenExchange.tokenAddress, TokenERC20(_token).name(), TokenERC20(_token).symbol(), _tokenExchange.sentAmount, _tokenExchange.receivedAmount, _tokenExchange.extraData);\n\t}\n\n\t/**\n\t * @dev Get TokenExchange information given an exchange ID\n\t * @param _exchangeId The exchange ID to query\n\t * @return The buyer address\n\t * @return The sent ERC20 Token address\n\t * @return The ERC20 Token name\n\t * @return The ERC20 Token symbol\n\t * @return The price of ERC20 Token to AOETH\n\t * @return The amount of ERC20 Token sent\n\t * @return The amount of AOETH received\n\t * @return Extra data during the transaction\n\t */\n\tfunction getTokenExchangeById(bytes32 _exchangeId) public view returns (address, address, string memory, string memory, uint256, uint256,  uint256, bytes memory) {\n\t\trequire (tokenExchangeIdLookup[_exchangeId] > 0);\n\t\tTokenExchange memory _tokenExchange = tokenExchanges[tokenExchangeIdLookup[_exchangeId]];\n\t\treturn (\n\t\t\t_tokenExchange.buyer,\n\t\t\t_tokenExchange.tokenAddress,\n\t\t\tTokenERC20(_tokenExchange.tokenAddress).name(),\n\t\t\tTokenERC20(_tokenExchange.tokenAddress).symbol(),\n\t\t\t_tokenExchange.price,\n\t\t\t_tokenExchange.sentAmount,\n\t\t\t_tokenExchange.receivedAmount,\n\t\t\t_tokenExchange.extraData\n\t\t);\n\t}\n}\n",
  "sourcePath": "/usr/local/ao-contracts/contracts/AOETH.sol",
  "compiler": {
    "name": "solc",
    "version": "0.5.4+commit.9549d8ff.Emscripten.clang"
  },
  "schemaVersion": "3.0.2",
  "updatedAt": "2019-03-21T02:41:21.254Z",
  "devdoc": {
    "methods": {
      "addERC20Token(address,uint256,uint256)": {
        "details": "Add an ERC20 Token to the list",
        "params": {
          "_maxQuantity": "Maximum quantity allowed for exchange",
          "_price": "The price of this token to AOETH",
          "_tokenAddress": "The address of the ERC20 Token"
        }
      },
      "approve(address,uint256)": {
        "params": {
          "_spender": "The address authorized to spend",
          "_value": "the max amount they can spend"
        }
      },
      "approveAndCall(address,uint256,bytes)": {
        "params": {
          "_extraData": "some extra information to send to the approved contract",
          "_spender": "The address authorized to spend",
          "_value": "the max amount they can spend"
        }
      },
      "burn(uint256)": {
        "params": {
          "_value": "the amount of money to burn"
        }
      },
      "burnFrom(address,uint256)": {
        "params": {
          "_from": "the address of the sender",
          "_value": "the amount of money to burn"
        }
      },
      "constructor": {
        "details": "Constructor function"
      },
      "getByAddress(address)": {
        "details": "Get an ERC20 Token information given an address",
        "params": {
          "_tokenAddress": "The address of the ERC20 Token"
        },
        "return": "The ERC20 Token addressThe name of the tokenThe symbol of the tokenThe price of this token to AOETHThe max quantity for exchangeThe total AOETH exchanged from this tokenThe status of this token"
      },
      "getById(uint256)": {
        "details": "Get an ERC20 Token information given an ID",
        "params": {
          "_id": "The internal ID of the ERC20 Token"
        },
        "return": "The ERC20 Token addressThe name of the tokenThe symbol of the tokenThe price of this token to AOETHThe max quantity for exchangeThe total AOETH exchanged from this tokenThe status of this token"
      },
      "getTokenExchangeById(bytes32)": {
        "details": "Get TokenExchange information given an exchange ID",
        "params": {
          "_exchangeId": "The exchange ID to query"
        },
        "return": "The buyer addressThe sent ERC20 Token addressThe ERC20 Token nameThe ERC20 Token symbolThe price of ERC20 Token to AOETHThe amount of ERC20 Token sentThe amount of AOETH receivedExtra data during the transaction"
      },
      "receiveApproval(address,uint256,address,bytes)": {
        "details": "When a user approves AOETH to spend on his/her behalf (i.e exchange to AOETH)",
        "params": {
          "_extraData": "The extra data sent during the approval",
          "_from": "The user address that approved AOETH",
          "_token": "The address of the ERC20 Token",
          "_value": "The amount that the user approved"
        }
      },
      "setAOIonAddress(address)": {
        "details": "The AO set the AOIon Address",
        "params": {
          "_aoIonAddress": "The address of AOIon"
        }
      },
      "setActive(address,bool)": {
        "details": "Set active status for existing ERC20 Token",
        "params": {
          "_active": "The active status for this token",
          "_tokenAddress": "The address of the ERC20 Token"
        }
      },
      "setMaxQuantity(address,uint256)": {
        "details": "Set max quantity for existing ERC20 Token",
        "params": {
          "_maxQuantity": "The max exchange quantity for this token",
          "_tokenAddress": "The address of the ERC20 Token"
        }
      },
      "setNameTAOPositionAddress(address)": {
        "details": "The AO set the NameTAOPosition Address",
        "params": {
          "_nameTAOPositionAddress": "The address of NameTAOPosition"
        }
      },
      "setPrice(address,uint256)": {
        "details": "Set price for existing ERC20 Token",
        "params": {
          "_price": "The price of this token to AOETH",
          "_tokenAddress": "The address of the ERC20 Token"
        }
      },
      "setWhitelist(address,bool)": {
        "details": "Whitelist `_account` address to transact on behalf of others",
        "params": {
          "_account": "The address to whitelist",
          "_whitelist": "Either to whitelist or not"
        }
      },
      "transfer(address,uint256)": {
        "params": {
          "_to": "The address of the recipient",
          "_value": "the amount to send"
        }
      },
      "transferERC20(address,address,uint256)": {
        "details": "Allows TheAO to transfer `_amount` of ERC20 Token from this address to `_recipient`",
        "params": {
          "_amount": "The amount to transfer",
          "_erc20TokenAddress": "The address of ERC20 Token",
          "_recipient": "The recipient address"
        }
      },
      "transferFrom(address,address,uint256)": {
        "params": {
          "_from": "The address of the sender",
          "_to": "The address of the recipient",
          "_value": "the amount to send"
        }
      },
      "transferOwnership(address)": {
        "details": "Transfer ownership of The AO to new address",
        "params": {
          "_theAO": "The new address to be transferred"
        }
      },
      "whitelistTransferFrom(address,address,uint256)": {
        "details": "Whitelisted address transfer tokens from other address\t * Send `_value` tokens to `_to` on behalf of `_from`",
        "params": {
          "_from": "The address of the sender",
          "_to": "The address of the recipient",
          "_value": "the amount to send"
        }
      }
    },
    "title": "AOETH"
  },
  "userdoc": {
    "methods": {
      "approve(address,uint256)": {
        "notice": "Set allowance for other address\t * Allows `_spender` to spend no more than `_value` tokens in your behalf"
      },
      "approveAndCall(address,uint256,bytes)": {
        "notice": "Set allowance for other address and notify\t * Allows `_spender` to spend no more than `_value` tokens in your behalf, and then ping the contract about it"
      },
      "burn(uint256)": {
        "notice": "Destroy tokens\t * Remove `_value` tokens from the system irreversibly"
      },
      "burnFrom(address,uint256)": {
        "notice": "Destroy tokens from other account\t * Remove `_value` tokens from the system irreversibly on behalf of `_from`."
      },
      "transfer(address,uint256)": {
        "notice": "Transfer tokens\t * Send `_value` tokens to `_to` from your account"
      },
      "transferFrom(address,address,uint256)": {
        "notice": "Transfer tokens from other address\t * Send `_value` tokens to `_to` in behalf of `_from`"
      }
    }
  }
}