{
  "contractName": "AOIonLot",
  "abi": [
    {
      "constant": true,
      "inputs": [],
      "name": "totalConvertLots",
      "outputs": [
        {
          "name": "",
          "type": "uint256"
        }
      ],
      "payable": false,
      "stateMutability": "view",
      "type": "function"
    },
    {
      "constant": true,
      "inputs": [],
      "name": "totalLots",
      "outputs": [
        {
          "name": "",
          "type": "uint256"
        }
      ],
      "payable": false,
      "stateMutability": "view",
      "type": "function"
    },
    {
      "constant": true,
      "inputs": [],
      "name": "aoIonAddress",
      "outputs": [
        {
          "name": "",
          "type": "address"
        }
      ],
      "payable": false,
      "stateMutability": "view",
      "type": "function"
    },
    {
      "constant": true,
      "inputs": [],
      "name": "totalBurnLots",
      "outputs": [
        {
          "name": "",
          "type": "uint256"
        }
      ],
      "payable": false,
      "stateMutability": "view",
      "type": "function"
    },
    {
      "constant": true,
      "inputs": [],
      "name": "nameTAOPositionAddress",
      "outputs": [
        {
          "name": "",
          "type": "address"
        }
      ],
      "payable": false,
      "stateMutability": "view",
      "type": "function"
    },
    {
      "constant": true,
      "inputs": [
        {
          "name": "",
          "type": "address"
        }
      ],
      "name": "whitelist",
      "outputs": [
        {
          "name": "",
          "type": "bool"
        }
      ],
      "payable": false,
      "stateMutability": "view",
      "type": "function"
    },
    {
      "constant": true,
      "inputs": [],
      "name": "theAO",
      "outputs": [
        {
          "name": "",
          "type": "address"
        }
      ],
      "payable": false,
      "stateMutability": "view",
      "type": "function"
    },
    {
      "inputs": [
        {
          "name": "_aoIonAddress",
          "type": "address"
        },
        {
          "name": "_nameTAOPositionAddress",
          "type": "address"
        }
      ],
      "payable": false,
      "stateMutability": "nonpayable",
      "type": "constructor"
    },
    {
      "anonymous": false,
      "inputs": [
        {
          "indexed": true,
          "name": "lotOwner",
          "type": "address"
        },
        {
          "indexed": true,
          "name": "lotId",
          "type": "bytes32"
        },
        {
          "indexed": false,
          "name": "multiplier",
          "type": "uint256"
        },
        {
          "indexed": false,
          "name": "primordialAmount",
          "type": "uint256"
        },
        {
          "indexed": false,
          "name": "networkBonusAmount",
          "type": "uint256"
        }
      ],
      "name": "LotCreation",
      "type": "event"
    },
    {
      "anonymous": false,
      "inputs": [
        {
          "indexed": true,
          "name": "lotOwner",
          "type": "address"
        },
        {
          "indexed": true,
          "name": "burnLotId",
          "type": "bytes32"
        },
        {
          "indexed": false,
          "name": "burnAmount",
          "type": "uint256"
        },
        {
          "indexed": false,
          "name": "multiplierAfterBurn",
          "type": "uint256"
        }
      ],
      "name": "BurnLotCreation",
      "type": "event"
    },
    {
      "anonymous": false,
      "inputs": [
        {
          "indexed": true,
          "name": "lotOwner",
          "type": "address"
        },
        {
          "indexed": true,
          "name": "convertLotId",
          "type": "bytes32"
        },
        {
          "indexed": false,
          "name": "convertAmount",
          "type": "uint256"
        },
        {
          "indexed": false,
          "name": "multiplierAfterConversion",
          "type": "uint256"
        }
      ],
      "name": "ConvertLotCreation",
      "type": "event"
    },
    {
      "constant": false,
      "inputs": [
        {
          "name": "_theAO",
          "type": "address"
        }
      ],
      "name": "transferOwnership",
      "outputs": [],
      "payable": false,
      "stateMutability": "nonpayable",
      "type": "function"
    },
    {
      "constant": false,
      "inputs": [
        {
          "name": "_account",
          "type": "address"
        },
        {
          "name": "_whitelist",
          "type": "bool"
        }
      ],
      "name": "setWhitelist",
      "outputs": [],
      "payable": false,
      "stateMutability": "nonpayable",
      "type": "function"
    },
    {
      "constant": false,
      "inputs": [
        {
          "name": "_aoIonAddress",
          "type": "address"
        }
      ],
      "name": "setAOIonAddress",
      "outputs": [],
      "payable": false,
      "stateMutability": "nonpayable",
      "type": "function"
    },
    {
      "constant": false,
      "inputs": [
        {
          "name": "_nameTAOPositionAddress",
          "type": "address"
        }
      ],
      "name": "setNameTAOPositionAddress",
      "outputs": [],
      "payable": false,
      "stateMutability": "nonpayable",
      "type": "function"
    },
    {
      "constant": false,
      "inputs": [
        {
          "name": "_account",
          "type": "address"
        },
        {
          "name": "_primordialAmount",
          "type": "uint256"
        },
        {
          "name": "_multiplier",
          "type": "uint256"
        },
        {
          "name": "_networkBonusAmount",
          "type": "uint256"
        }
      ],
      "name": "createPrimordialLot",
      "outputs": [
        {
          "name": "",
          "type": "bytes32"
        }
      ],
      "payable": false,
      "stateMutability": "nonpayable",
      "type": "function"
    },
    {
      "constant": false,
      "inputs": [
        {
          "name": "_account",
          "type": "address"
        },
        {
          "name": "_amount",
          "type": "uint256"
        },
        {
          "name": "_weightedMultiplier",
          "type": "uint256"
        }
      ],
      "name": "createWeightedMultiplierLot",
      "outputs": [
        {
          "name": "",
          "type": "bytes32"
        }
      ],
      "payable": false,
      "stateMutability": "nonpayable",
      "type": "function"
    },
    {
      "constant": true,
      "inputs": [
        {
          "name": "_lotId",
          "type": "bytes32"
        }
      ],
      "name": "lotById",
      "outputs": [
        {
          "name": "",
          "type": "bytes32"
        },
        {
          "name": "",
          "type": "address"
        },
        {
          "name": "",
          "type": "uint256"
        },
        {
          "name": "",
          "type": "uint256"
        }
      ],
      "payable": false,
      "stateMutability": "view",
      "type": "function"
    },
    {
      "constant": true,
      "inputs": [
        {
          "name": "_lotOwner",
          "type": "address"
        }
      ],
      "name": "lotIdsByAddress",
      "outputs": [
        {
          "name": "",
          "type": "bytes32[]"
        }
      ],
      "payable": false,
      "stateMutability": "view",
      "type": "function"
    },
    {
      "constant": true,
      "inputs": [
        {
          "name": "_lotOwner",
          "type": "address"
        }
      ],
      "name": "totalLotsByAddress",
      "outputs": [
        {
          "name": "",
          "type": "uint256"
        }
      ],
      "payable": false,
      "stateMutability": "view",
      "type": "function"
    },
    {
      "constant": true,
      "inputs": [
        {
          "name": "_lotOwner",
          "type": "address"
        },
        {
          "name": "_index",
          "type": "uint256"
        }
      ],
      "name": "lotOfOwnerByIndex",
      "outputs": [
        {
          "name": "",
          "type": "bytes32"
        },
        {
          "name": "",
          "type": "address"
        },
        {
          "name": "",
          "type": "uint256"
        },
        {
          "name": "",
          "type": "uint256"
        }
      ],
      "payable": false,
      "stateMutability": "view",
      "type": "function"
    },
    {
      "constant": false,
      "inputs": [
        {
          "name": "_account",
          "type": "address"
        },
        {
          "name": "_amount",
          "type": "uint256"
        },
        {
          "name": "_multiplierAfterBurn",
          "type": "uint256"
        }
      ],
      "name": "createBurnLot",
      "outputs": [
        {
          "name": "",
          "type": "bool"
        }
      ],
      "payable": false,
      "stateMutability": "nonpayable",
      "type": "function"
    },
    {
      "constant": true,
      "inputs": [
        {
          "name": "_lotOwner",
          "type": "address"
        }
      ],
      "name": "burnLotIdsByAddress",
      "outputs": [
        {
          "name": "",
          "type": "bytes32[]"
        }
      ],
      "payable": false,
      "stateMutability": "view",
      "type": "function"
    },
    {
      "constant": true,
      "inputs": [
        {
          "name": "_lotOwner",
          "type": "address"
        }
      ],
      "name": "totalBurnLotsByAddress",
      "outputs": [
        {
          "name": "",
          "type": "uint256"
        }
      ],
      "payable": false,
      "stateMutability": "view",
      "type": "function"
    },
    {
      "constant": true,
      "inputs": [
        {
          "name": "_burnLotId",
          "type": "bytes32"
        }
      ],
      "name": "burnLotById",
      "outputs": [
        {
          "name": "",
          "type": "bytes32"
        },
        {
          "name": "",
          "type": "address"
        },
        {
          "name": "",
          "type": "uint256"
        }
      ],
      "payable": false,
      "stateMutability": "view",
      "type": "function"
    },
    {
      "constant": false,
      "inputs": [
        {
          "name": "_account",
          "type": "address"
        },
        {
          "name": "_amount",
          "type": "uint256"
        },
        {
          "name": "_multiplierAfterConversion",
          "type": "uint256"
        }
      ],
      "name": "createConvertLot",
      "outputs": [
        {
          "name": "",
          "type": "bool"
        }
      ],
      "payable": false,
      "stateMutability": "nonpayable",
      "type": "function"
    },
    {
      "constant": true,
      "inputs": [
        {
          "name": "_lotOwner",
          "type": "address"
        }
      ],
      "name": "convertLotIdsByAddress",
      "outputs": [
        {
          "name": "",
          "type": "bytes32[]"
        }
      ],
      "payable": false,
      "stateMutability": "view",
      "type": "function"
    },
    {
      "constant": true,
      "inputs": [
        {
          "name": "_lotOwner",
          "type": "address"
        }
      ],
      "name": "totalConvertLotsByAddress",
      "outputs": [
        {
          "name": "",
          "type": "uint256"
        }
      ],
      "payable": false,
      "stateMutability": "view",
      "type": "function"
    },
    {
      "constant": true,
      "inputs": [
        {
          "name": "_convertLotId",
          "type": "bytes32"
        }
      ],
      "name": "convertLotById",
      "outputs": [
        {
          "name": "",
          "type": "bytes32"
        },
        {
          "name": "",
          "type": "address"
        },
        {
          "name": "",
          "type": "uint256"
        }
      ],
      "payable": false,
      "stateMutability": "view",
      "type": "function"
    }
  ],
  "bytecode": "0x60806040523480156200001157600080fd5b50604051604080620013bc833981018060405260408110156200003357600080fd5b508051602091820151600080546001600160a01b031916331790559091620000619083906200007a811b901c565b62000072816200017160201b60201c565b505062000268565b600054600154604080517ff66afcac0000000000000000000000000000000000000000000000000000000081523360048201526001600160a01b0393841660248201529290911660448301525173__AOLibrary_____________________________9163f66afcac916064808301926020929190829003018186803b1580156200010357600080fd5b505af415801562000118573d6000803e3d6000fd5b505050506040513d60208110156200012f57600080fd5b50516200013b57600080fd5b6001600160a01b0381166200014f57600080fd5b600380546001600160a01b0319166001600160a01b0392909216919091179055565b600054600154604080517ff66afcac0000000000000000000000000000000000000000000000000000000081523360048201526001600160a01b0393841660248201529290911660448301525173__AOLibrary_____________________________9163f66afcac916064808301926020929190829003018186803b158015620001fa57600080fd5b505af41580156200020f573d6000803e3d6000fd5b505050506040513d60208110156200022657600080fd5b50516200023257600080fd5b6001600160a01b0381166200024657600080fd5b600180546001600160a01b0319166001600160a01b0392909216919091179055565b61114480620002786000396000f3fe608060405234801561001057600080fd5b50600436106101735760003560e01c806353d6fd59116100de578063af339ee411610097578063f2fde38b11610071578063f2fde38b146104f3578063f39cce0114610519578063f5bd48c41461053f578063f97106b51461056557610173565b8063af339ee414610478578063d58e175814610495578063d9c93ccd146104bb57610173565b806353d6fd59146103a257806354f7dd8c146103d25780635cfaf2ef146103fe5780637056d1f4146104245780639b19251a1461044a578063a9b6b38e1461047057610173565b8063360f277b11610130578063360f277b146102f15780633be92863146102f95780633c56b0111461033c57806341682d9714610360578063424cfd21146103685780634ef033f01461039a57610173565b8063080e74f714610178578063178a8f34146101c357806328948e5b146102395780632ffeef771461027d57806330a331d114610285578063324b8ad2146102cb575b600080fd5b6101956004803603602081101561018e57600080fd5b503561058b565b604080519485526001600160a01b039093166020850152838301919091526060830152519081900360800190f35b6101e9600480360360208110156101d957600080fd5b50356001600160a01b03166105ee565b60408051602080825283518183015283519192839290830191858101910280838360005b8381101561022557818101518382015260200161020d565b505050509050019250505060405180910390f35b61026b6004803603606081101561024f57600080fd5b506001600160a01b03813516906020810135906040013561065a565b60408051918252519081900360200190f35b61026b6106a9565b6102b76004803603606081101561029b57600080fd5b506001600160a01b0381351690602081013590604001356106af565b604080519115158252519081900360200190f35b61026b600480360360208110156102e157600080fd5b50356001600160a01b03166107e5565b61026b610800565b6103166004803603602081101561030f57600080fd5b5035610806565b604080519384526001600160a01b03909216602084015282820152519081900360600190f35b61034461085b565b604080516001600160a01b039092168252519081900360200190f35b61026b61086a565b6102b76004803603606081101561037e57600080fd5b506001600160a01b038135169060208101359060400135610870565b6103446109a6565b6103d0600480360360408110156103b857600080fd5b506001600160a01b03813516906020013515156109b5565b005b610195600480360360408110156103e857600080fd5b506001600160a01b038135169060200135610a9a565b6103d06004803603602081101561041457600080fd5b50356001600160a01b0316610b60565b6101e96004803603602081101561043a57600080fd5b50356001600160a01b0316610c3c565b6102b76004803603602081101561046057600080fd5b50356001600160a01b0316610ca6565b610344610cbb565b6103166004803603602081101561048e57600080fd5b5035610cca565b61026b600480360360208110156104ab57600080fd5b50356001600160a01b0316610d1f565b61026b600480360360808110156104d157600080fd5b506001600160a01b038135169060208101359060408101359060600135610d3a565b6103d06004803603602081101561050957600080fd5b50356001600160a01b0316610d69565b6101e96004803603602081101561052f57600080fd5b50356001600160a01b0316610e45565b61026b6004803603602081101561055557600080fd5b50356001600160a01b0316610eaf565b6103d06004803603602081101561057b57600080fd5b50356001600160a01b0316610eca565b6000806000806105996110d1565b505050600092835250506007602090815260409182902082516080810184528154808252600183015493820184905260028301546001600160a01b031694820185905260039092015460609091018190529093565b6001600160a01b0381166000908152600a602090815260409182902080548351818402810184019094528084526060939283018282801561064e57602002820191906000526020600020905b81548152602001906001019080831161063a575b50505050509050919050565b6003546000906001600160a01b0316331461067457600080fd5b6001600160a01b03841661068757600080fd5b6000831161069457600080fd5b6106a18484846000610fa6565b949350505050565b60065481565b6003546000906001600160a01b031633146106c957600080fd5b600580546001908101918290556040805130606090811b6020808401919091526001600160a01b03808b1690921b6034840152604880840196909652835180840390960186526068909201835284519482019490942060008181526008909252919020909101549091161561073d57600080fd5b6000818152600860209081526040808320848155600180820180546001600160a01b0319166001600160a01b038c81169182178355600285018c8155918852600b87528588208054948501815588529686902090920187905582549054915484519081529485018990528351929590949116927f6c5992d9f99885465942ae05b2bcc358a509184bb262ec9bfe242ccdc42d1a0392918290030190a350600195945050505050565b6001600160a01b03166000908152600b602052604090205490565b60045481565b60008060006108136110f8565b505050600091825250600860209081526040918290208251606081018452815480825260018301546001600160a01b0316938201849052600290920154930183905292909190565b6003546001600160a01b031681565b60055481565b6003546000906001600160a01b0316331461088a57600080fd5b600680546001908101918290556040805130606090811b6020808401919091526001600160a01b03808b1690921b603484015260488084019690965283518084039096018652606890920183528451948201949094206000818152600990925291902090910154909116156108fe57600080fd5b6000818152600960209081526040808320848155600180820180546001600160a01b0319166001600160a01b038c81169182178355600285018c8155918852600c87528588208054948501815588529686902090920187905582549054915484519081529485018990528351929590949116927f24f057e925d9fc5c8b912d57da9cf8bbcf393fa8c87db8005d378fe9f828e7ba92918290030190a350600195945050505050565b6001546001600160a01b031681565b60005460015460408051600160e21b633d9abf2b0281523360048201526001600160a01b0393841660248201529290911660448301525173__AOLibrary_____________________________9163f66afcac916064808301926020929190829003018186803b158015610a2757600080fd5b505af4158015610a3b573d6000803e3d6000fd5b505050506040513d6020811015610a5157600080fd5b5051610a5c57600080fd5b6001600160a01b038216610a6f57600080fd5b6001600160a01b03919091166000908152600260205260409020805460ff1916911515919091179055565b6001600160a01b0382166000908152600a60205260408120548190819081908510610ac457600080fd5b610acc6110d1565b6001600160a01b0387166000908152600a602052604081208054600792919089908110610af557fe5b6000918252602080832091909101548352828101939093526040918201902081516080810183528154808252600183015494820185905260028301546001600160a01b03169382018490526003909201546060909101819052909a9199509197509095509350505050565b60005460015460408051600160e21b633d9abf2b0281523360048201526001600160a01b0393841660248201529290911660448301525173__AOLibrary_____________________________9163f66afcac916064808301926020929190829003018186803b158015610bd257600080fd5b505af4158015610be6573d6000803e3d6000fd5b505050506040513d6020811015610bfc57600080fd5b5051610c0757600080fd5b6001600160a01b038116610c1a57600080fd5b600180546001600160a01b0319166001600160a01b0392909216919091179055565b6001600160a01b0381166000908152600b602090815260409182902080548351818402810184019094528084526060939283018282801561064e576020028201919060005260206000209081548152602001906001019080831161063a5750505050509050919050565b60026020526000908152604090205460ff1681565b6000546001600160a01b031681565b6000806000610cd76110f8565b505050600091825250600960209081526040918290208251606081018452815480825260018301546001600160a01b0316938201849052600290920154930183905292909190565b6001600160a01b03166000908152600c602052604090205490565b6003546000906001600160a01b03163314610d5457600080fd5b610d6085858585610fa6565b95945050505050565b60005460015460408051600160e21b633d9abf2b0281523360048201526001600160a01b0393841660248201529290911660448301525173__AOLibrary_____________________________9163f66afcac916064808301926020929190829003018186803b158015610ddb57600080fd5b505af4158015610def573d6000803e3d6000fd5b505050506040513d6020811015610e0557600080fd5b5051610e1057600080fd5b6001600160a01b038116610e2357600080fd5b600080546001600160a01b0319166001600160a01b0392909216919091179055565b6001600160a01b0381166000908152600c602090815260409182902080548351818402810184019094528084526060939283018282801561064e576020028201919060005260206000209081548152602001906001019080831161063a5750505050509050919050565b6001600160a01b03166000908152600a602052604090205490565b60005460015460408051600160e21b633d9abf2b0281523360048201526001600160a01b0393841660248201529290911660448301525173__AOLibrary_____________________________9163f66afcac916064808301926020929190829003018186803b158015610f3c57600080fd5b505af4158015610f50573d6000803e3d6000fd5b505050506040513d6020811015610f6657600080fd5b5051610f7157600080fd5b6001600160a01b038116610f8457600080fd5b600380546001600160a01b0319166001600160a01b0392909216919091179055565b60048054600101908190556040805130606090811b6020808401919091526001600160a01b03808a1690921b6034840152604880840195909552835180840390950185526068909201835283519382019390932060008181526007909252918120600201549092161561101857600080fd5b600081815260076020908152604080832084815560018082018981556002830180546001600160a01b03808f166001600160a01b031990921682178355600386018e8155918952600a88528689208054958601815589529787902090930188905583549054915492548551938452958301959095528184018990529251919492909216917f20dcffcce6f33b394371fed8876a2562e3110ed8dbdc448b593a2680c7330a03919081900360600190a35095945050505050565b60408051608081018252600080825260208201819052918101829052606081019190915290565b60408051606081018252600080825260208201819052918101919091529056fea165627a7a723058207264c852d9e6e2dd5432fd700fe96a869bfd52b96dbc75ef0d11ebc1e019f28c0029",
  "source": "pragma solidity >=0.5.4 <0.6.0;\n\nimport './SafeMath.sol';\nimport './AOLibrary.sol';\nimport './TheAO.sol';\nimport './IAOIonLot.sol';\n\n/**\n * @title AOIonLot\n */\ncontract AOIonLot is TheAO {\n\tusing SafeMath for uint256;\n\n\taddress public aoIonAddress;\n\n\tuint256 public totalLots;\n\tuint256 public totalBurnLots;\n\tuint256 public totalConvertLots;\n\n\t/**\n\t * Stores Lot creation data (during network exchange)\n\t */\n\tstruct Lot {\n\t\tbytes32 lotId;\n\t\tuint256 multiplier;\t// This value is in 10^6, so 1000000 = 1\n\t\taddress lotOwner;\n\t\tuint256 amount;\n\t}\n\n\t/**\n\t * Struct to store info when account burns primordial ion\n\t */\n\tstruct BurnLot {\n\t\tbytes32 burnLotId;\n\t\taddress lotOwner;\n\t\tuint256 amount;\n\t}\n\n\t/**\n\t * Struct to store info when account converts network ion to primordial ion\n\t */\n\tstruct ConvertLot {\n\t\tbytes32 convertLotId;\n\t\taddress lotOwner;\n\t\tuint256 amount;\n\t}\n\n\t// Mapping from Lot ID to Lot object\n\tmapping (bytes32 => Lot) internal lots;\n\n\t// Mapping from Burn Lot ID to BurnLot object\n\tmapping (bytes32 => BurnLot) internal burnLots;\n\n\t// Mapping from Convert Lot ID to ConvertLot object\n\tmapping (bytes32 => ConvertLot) internal convertLots;\n\n\t// Mapping from owner to list of owned lot IDs\n\tmapping (address => bytes32[]) internal ownedLots;\n\n\t// Mapping from owner to list of owned burn lot IDs\n\tmapping (address => bytes32[]) internal ownedBurnLots;\n\n\t// Mapping from owner to list of owned convert lot IDs\n\tmapping (address => bytes32[]) internal ownedConvertLots;\n\n\t// Event to be broadcasted to public when a lot is created\n\t// multiplier value is in 10^6 to account for 6 decimal points\n\tevent LotCreation(address indexed lotOwner, bytes32 indexed lotId, uint256 multiplier, uint256 primordialAmount, uint256 networkBonusAmount);\n\n\t// Event to be broadcasted to public when burn lot is created (when account burns primordial ions)\n\tevent BurnLotCreation(address indexed lotOwner, bytes32 indexed burnLotId, uint256 burnAmount, uint256 multiplierAfterBurn);\n\n\t// Event to be broadcasted to public when convert lot is created (when account convert network ions to primordial ions)\n\tevent ConvertLotCreation(address indexed lotOwner, bytes32 indexed convertLotId, uint256 convertAmount, uint256 multiplierAfterConversion);\n\n\t/**\n\t * @dev Constructor function\n\t */\n\tconstructor(address _aoIonAddress, address _nameTAOPositionAddress) public {\n\t\tsetAOIonAddress(_aoIonAddress);\n\t\tsetNameTAOPositionAddress(_nameTAOPositionAddress);\n\t}\n\n\t/**\n\t * @dev Checks if the calling contract address is The AO\n\t *\t\tOR\n\t *\t\tIf The AO is set to a Name/TAO, then check if calling address is the Advocate\n\t */\n\tmodifier onlyTheAO {\n\t\trequire (AOLibrary.isTheAO(msg.sender, theAO, nameTAOPositionAddress));\n\t\t_;\n\t}\n\n\t/**\n\t * @dev Check if calling address is AOIon\n\t */\n\tmodifier onlyAOIon {\n\t\trequire (msg.sender == aoIonAddress);\n\t\t_;\n\t}\n\n\t/***** The AO ONLY METHODS *****/\n\t/**\n\t * @dev Transfer ownership of The AO to new address\n\t * @param _theAO The new address to be transferred\n\t */\n\tfunction transferOwnership(address _theAO) public onlyTheAO {\n\t\trequire (_theAO != address(0));\n\t\ttheAO = _theAO;\n\t}\n\n\t/**\n\t * @dev Whitelist `_account` address to transact on behalf of others\n\t * @param _account The address to whitelist\n\t * @param _whitelist Either to whitelist or not\n\t */\n\tfunction setWhitelist(address _account, bool _whitelist) public onlyTheAO {\n\t\trequire (_account != address(0));\n\t\twhitelist[_account] = _whitelist;\n\t}\n\n\t/**\n\t * @dev The AO set the AOIon Address\n\t * @param _aoIonAddress The address of AOIon\n\t */\n\tfunction setAOIonAddress(address _aoIonAddress) public onlyTheAO {\n\t\trequire (_aoIonAddress != address(0));\n\t\taoIonAddress = _aoIonAddress;\n\t}\n\n\t/**\n\t * @dev The AO set the NameTAOPosition Address\n\t * @param _nameTAOPositionAddress The address of NameTAOPosition\n\t */\n\tfunction setNameTAOPositionAddress(address _nameTAOPositionAddress) public onlyTheAO {\n\t\trequire (_nameTAOPositionAddress != address(0));\n\t\tnameTAOPositionAddress = _nameTAOPositionAddress;\n\t}\n\n\t/***** PUBLIC METHODS *****/\n\t/**\n\t * @dev Create a lot with `primordialAmount` of primordial ions with `_multiplier` for an `account`\n\t *\t\tduring network exchange, and reward `_networkBonusAmount` if exist\n\t * @param _account Address of the lot owner\n\t * @param _primordialAmount The amount of primordial ions to be stored in the lot\n\t * @param _multiplier The multiplier for this lot in (10 ** 6)\n\t * @param _networkBonusAmount The network ion bonus amount\n\t * @return Created lot Id\n\t */\n\tfunction createPrimordialLot(address _account, uint256 _primordialAmount, uint256 _multiplier, uint256 _networkBonusAmount) external onlyAOIon returns (bytes32) {\n\t\treturn _createWeightedMultiplierLot(_account, _primordialAmount, _multiplier, _networkBonusAmount);\n\t}\n\n\t/**\n\t * @dev Create a lot with `amount` of ions at `weightedMultiplier` for an `account`\n\t * @param _account Address of lot owner\n\t * @param _amount The amount of ions\n\t * @param _weightedMultiplier The multiplier of the lot (in 10^6)\n\t * @return bytes32 of new created lot ID\n\t */\n\tfunction createWeightedMultiplierLot(address _account, uint256 _amount, uint256 _weightedMultiplier) external onlyAOIon returns (bytes32) {\n\t\trequire (_account != address(0));\n\t\trequire (_amount > 0);\n\t\treturn _createWeightedMultiplierLot(_account, _amount, _weightedMultiplier, 0);\n\t}\n\n\t/**\n\t * @dev Return the lot information at a given ID\n\t * @param _lotId The lot ID in question\n\t * @return id of the lot\n\t * @return The lot owner address\n\t * @return multiplier of the lot in (10 ** 6)\n\t * @return Primordial ion amount in the lot\n\t */\n\tfunction lotById(bytes32 _lotId) external view returns (bytes32, address, uint256, uint256) {\n\t\tLot memory _lot = lots[_lotId];\n\t\treturn (_lot.lotId, _lot.lotOwner, _lot.multiplier, _lot.amount);\n\t}\n\n\t/**\n\t * @dev Return all lot IDs owned by an address\n\t * @param _lotOwner The address of the lot owner\n\t * @return array of lot IDs\n\t */\n\tfunction lotIdsByAddress(address _lotOwner) public view returns (bytes32[] memory) {\n\t\treturn ownedLots[_lotOwner];\n\t}\n\n\t/**\n\t * @dev Return the total lots owned by an address\n\t * @param _lotOwner The address of the lot owner\n\t * @return total lots owner by the address\n\t */\n\tfunction totalLotsByAddress(address _lotOwner) external view returns (uint256) {\n\t\treturn ownedLots[_lotOwner].length;\n\t}\n\n\t/**\n\t * @dev Return the lot information at a given index of the lots list of the requested owner\n\t * @param _lotOwner The address owning the lots list to be accessed\n\t * @param _index uint256 representing the index to be accessed of the requested lots list\n\t * @return id of the lot\n\t * @return The address of the lot owner\n\t * @return multiplier of the lot in (10 ** 6)\n\t * @return Primordial ion amount in the lot\n\t */\n\tfunction lotOfOwnerByIndex(address _lotOwner, uint256 _index) public view returns (bytes32, address, uint256, uint256) {\n\t\trequire (_index < ownedLots[_lotOwner].length);\n\t\tLot memory _lot = lots[ownedLots[_lotOwner][_index]];\n\t\treturn (_lot.lotId, _lot.lotOwner, _lot.multiplier, _lot.amount);\n\t}\n\n\t/**\n\t * @dev Store burn lot information\n\t * @param _account The address of the account\n\t * @param _amount The amount of primordial ions to burn\n\t * @param _multiplierAfterBurn The owner's weighted multiplier after burn\n\t * @return true on success\n\t */\n\tfunction createBurnLot(address _account, uint256 _amount, uint256 _multiplierAfterBurn) external onlyAOIon returns (bool) {\n\t\ttotalBurnLots++;\n\n\t\t// Generate burn lot Id\n\t\tbytes32 burnLotId = keccak256(abi.encodePacked(this, _account, totalBurnLots));\n\n\t\t// Make sure no one owns this lot yet\n\t\trequire (burnLots[burnLotId].lotOwner == address(0));\n\n\t\tBurnLot storage burnLot = burnLots[burnLotId];\n\t\tburnLot.burnLotId = burnLotId;\n\t\tburnLot.lotOwner = _account;\n\t\tburnLot.amount = _amount;\n\t\townedBurnLots[_account].push(burnLotId);\n\t\temit BurnLotCreation(burnLot.lotOwner, burnLot.burnLotId, burnLot.amount, _multiplierAfterBurn);\n\t\treturn true;\n\t}\n\n\t/**\n\t * @dev Return all Burn Lot IDs owned by an address\n\t * @param _lotOwner The address of the burn lot owner\n\t * @return array of Burn Lot IDs\n\t */\n\tfunction burnLotIdsByAddress(address _lotOwner) public view returns (bytes32[] memory) {\n\t\treturn ownedBurnLots[_lotOwner];\n\t}\n\n\t/**\n\t * @dev Return the total burn lots owned by an address\n\t * @param _lotOwner The address of the burn lot owner\n\t * @return total burn lots owner by the address\n\t */\n\tfunction totalBurnLotsByAddress(address _lotOwner) public view returns (uint256) {\n\t\treturn ownedBurnLots[_lotOwner].length;\n\t}\n\n\t/**\n\t * @dev Return the burn lot information at a given ID\n\t * @param _burnLotId The burn lot ID in question\n\t * @return id of the lot\n\t * @return The address of the burn lot owner\n\t * @return Primordial ion amount in the burn lot\n\t */\n\tfunction burnLotById(bytes32 _burnLotId) public view returns (bytes32, address, uint256) {\n\t\tBurnLot memory _burnLot = burnLots[_burnLotId];\n\t\treturn (_burnLot.burnLotId, _burnLot.lotOwner, _burnLot.amount);\n\t}\n\n\t/**\n\t * @dev Store convert lot information\n\t * @param _account The address of the account\n\t * @param _amount The amount to convert\n\t * @param _multiplierAfterConversion The owner's weighted multiplier after conversion\n\t * @return true on success\n\t */\n\tfunction createConvertLot(address _account, uint256 _amount, uint256 _multiplierAfterConversion) external onlyAOIon returns (bool) {\n\t\t// Store convert lot info\n\t\ttotalConvertLots++;\n\n\t\t// Generate convert lot Id\n\t\tbytes32 convertLotId = keccak256(abi.encodePacked(this, _account, totalConvertLots));\n\n\t\t// Make sure no one owns this lot yet\n\t\trequire (convertLots[convertLotId].lotOwner == address(0));\n\n\t\tConvertLot storage convertLot = convertLots[convertLotId];\n\t\tconvertLot.convertLotId = convertLotId;\n\t\tconvertLot.lotOwner = _account;\n\t\tconvertLot.amount = _amount;\n\t\townedConvertLots[_account].push(convertLotId);\n\t\temit ConvertLotCreation(convertLot.lotOwner, convertLot.convertLotId, convertLot.amount, _multiplierAfterConversion);\n\t\treturn true;\n\t}\n\n\t/**\n\t * @dev Return all Convert Lot IDs owned by an address\n\t * @param _lotOwner The address of the convert lot owner\n\t * @return array of Convert Lot IDs\n\t */\n\tfunction convertLotIdsByAddress(address _lotOwner) public view returns (bytes32[] memory) {\n\t\treturn ownedConvertLots[_lotOwner];\n\t}\n\n\t/**\n\t * @dev Return the total convert lots owned by an address\n\t * @param _lotOwner The address of the convert lot owner\n\t * @return total convert lots owner by the address\n\t */\n\tfunction totalConvertLotsByAddress(address _lotOwner) public view returns (uint256) {\n\t\treturn ownedConvertLots[_lotOwner].length;\n\t}\n\n\t/**\n\t * @dev Return the convert lot information at a given ID\n\t * @param _convertLotId The convert lot ID in question\n\t * @return id of the lot\n\t * @return The address of the convert lot owner\n\t * @return Primordial ion amount in the convert lot\n\t */\n\tfunction convertLotById(bytes32 _convertLotId) public view returns (bytes32, address, uint256) {\n\t\tConvertLot memory _convertLot = convertLots[_convertLotId];\n\t\treturn (_convertLot.convertLotId, _convertLot.lotOwner, _convertLot.amount);\n\t}\n\n\t/***** INTERNAL METHOD *****/\n\t/**\n\t * @dev Actual creating a lot with `amount` of ions at `weightedMultiplier` for an `account`\n\t * @param _account Address of lot owner\n\t * @param _amount The amount of ions\n\t * @param _weightedMultiplier The multiplier of the lot (in 10^6)\n\t * @param _networkBonusAmount The network ion bonus amount\n\t * @return bytes32 of new created lot ID\n\t */\n\tfunction _createWeightedMultiplierLot(address _account, uint256 _amount, uint256 _weightedMultiplier, uint256 _networkBonusAmount) internal returns (bytes32) {\n\t\ttotalLots++;\n\n\t\t// Generate lotId\n\t\tbytes32 lotId = keccak256(abi.encodePacked(address(this), _account, totalLots));\n\n\t\t// Make sure no one owns this lot yet\n\t\trequire (lots[lotId].lotOwner == address(0));\n\n\t\tLot storage lot = lots[lotId];\n\t\tlot.lotId = lotId;\n\t\tlot.multiplier = _weightedMultiplier;\n\t\tlot.lotOwner = _account;\n\t\tlot.amount = _amount;\n\t\townedLots[_account].push(lotId);\n\n\t\temit LotCreation(lot.lotOwner, lot.lotId, lot.multiplier, lot.amount, _networkBonusAmount);\n\t\treturn lotId;\n\t}\n}\n",
  "sourcePath": "/usr/local/ao-contracts/contracts/AOIonLot.sol",
  "compiler": {
    "name": "solc",
    "version": "0.5.6+commit.b259423e.Emscripten.clang"
  },
  "schemaVersion": "3.0.2",
  "updatedAt": "2019-03-26T16:54:31.006Z",
  "devdoc": {
    "methods": {
      "burnLotById(bytes32)": {
        "details": "Return the burn lot information at a given ID",
        "params": {
          "_burnLotId": "The burn lot ID in question"
        },
        "return": "id of the lotThe address of the burn lot ownerPrimordial ion amount in the burn lot"
      },
      "burnLotIdsByAddress(address)": {
        "details": "Return all Burn Lot IDs owned by an address",
        "params": {
          "_lotOwner": "The address of the burn lot owner"
        },
        "return": "array of Burn Lot IDs"
      },
      "constructor": {
        "details": "Constructor function"
      },
      "convertLotById(bytes32)": {
        "details": "Return the convert lot information at a given ID",
        "params": {
          "_convertLotId": "The convert lot ID in question"
        },
        "return": "id of the lotThe address of the convert lot ownerPrimordial ion amount in the convert lot"
      },
      "convertLotIdsByAddress(address)": {
        "details": "Return all Convert Lot IDs owned by an address",
        "params": {
          "_lotOwner": "The address of the convert lot owner"
        },
        "return": "array of Convert Lot IDs"
      },
      "createBurnLot(address,uint256,uint256)": {
        "details": "Store burn lot information",
        "params": {
          "_account": "The address of the account",
          "_amount": "The amount of primordial ions to burn",
          "_multiplierAfterBurn": "The owner's weighted multiplier after burn"
        },
        "return": "true on success"
      },
      "createConvertLot(address,uint256,uint256)": {
        "details": "Store convert lot information",
        "params": {
          "_account": "The address of the account",
          "_amount": "The amount to convert",
          "_multiplierAfterConversion": "The owner's weighted multiplier after conversion"
        },
        "return": "true on success"
      },
      "createPrimordialLot(address,uint256,uint256,uint256)": {
        "details": "Create a lot with `primordialAmount` of primordial ions with `_multiplier` for an `account`\tduring network exchange, and reward `_networkBonusAmount` if exist",
        "params": {
          "_account": "Address of the lot owner",
          "_multiplier": "The multiplier for this lot in (10 ** 6)",
          "_networkBonusAmount": "The network ion bonus amount",
          "_primordialAmount": "The amount of primordial ions to be stored in the lot"
        },
        "return": "Created lot Id"
      },
      "createWeightedMultiplierLot(address,uint256,uint256)": {
        "details": "Create a lot with `amount` of ions at `weightedMultiplier` for an `account`",
        "params": {
          "_account": "Address of lot owner",
          "_amount": "The amount of ions",
          "_weightedMultiplier": "The multiplier of the lot (in 10^6)"
        },
        "return": "bytes32 of new created lot ID"
      },
      "lotById(bytes32)": {
        "details": "Return the lot information at a given ID",
        "params": {
          "_lotId": "The lot ID in question"
        },
        "return": "id of the lotThe lot owner addressmultiplier of the lot in (10 ** 6)Primordial ion amount in the lot"
      },
      "lotIdsByAddress(address)": {
        "details": "Return all lot IDs owned by an address",
        "params": {
          "_lotOwner": "The address of the lot owner"
        },
        "return": "array of lot IDs"
      },
      "lotOfOwnerByIndex(address,uint256)": {
        "details": "Return the lot information at a given index of the lots list of the requested owner",
        "params": {
          "_index": "uint256 representing the index to be accessed of the requested lots list",
          "_lotOwner": "The address owning the lots list to be accessed"
        },
        "return": "id of the lotThe address of the lot ownermultiplier of the lot in (10 ** 6)Primordial ion amount in the lot"
      },
      "setAOIonAddress(address)": {
        "details": "The AO set the AOIon Address",
        "params": {
          "_aoIonAddress": "The address of AOIon"
        }
      },
      "setNameTAOPositionAddress(address)": {
        "details": "The AO set the NameTAOPosition Address",
        "params": {
          "_nameTAOPositionAddress": "The address of NameTAOPosition"
        }
      },
      "setWhitelist(address,bool)": {
        "details": "Whitelist `_account` address to transact on behalf of others",
        "params": {
          "_account": "The address to whitelist",
          "_whitelist": "Either to whitelist or not"
        }
      },
      "totalBurnLotsByAddress(address)": {
        "details": "Return the total burn lots owned by an address",
        "params": {
          "_lotOwner": "The address of the burn lot owner"
        },
        "return": "total burn lots owner by the address"
      },
      "totalConvertLotsByAddress(address)": {
        "details": "Return the total convert lots owned by an address",
        "params": {
          "_lotOwner": "The address of the convert lot owner"
        },
        "return": "total convert lots owner by the address"
      },
      "totalLotsByAddress(address)": {
        "details": "Return the total lots owned by an address",
        "params": {
          "_lotOwner": "The address of the lot owner"
        },
        "return": "total lots owner by the address"
      },
      "transferOwnership(address)": {
        "details": "Transfer ownership of The AO to new address",
        "params": {
          "_theAO": "The new address to be transferred"
        }
      }
    },
    "title": "AOIonLot"
  },
  "userdoc": {
    "methods": {}
  }
}