{
	"contractName": "AOIon",
	"abi": [
		{
			"constant": false,
			"inputs": [
				{
					"name": "newSellPrice",
					"type": "uint256"
				},
				{
					"name": "newBuyPrice",
					"type": "uint256"
				}
			],
			"name": "setPrices",
			"outputs": [],
			"payable": false,
			"stateMutability": "nonpayable",
			"type": "function"
		},
		{
			"constant": true,
			"inputs": [],
			"name": "name",
			"outputs": [
				{
					"name": "",
					"type": "string"
				}
			],
			"payable": false,
			"stateMutability": "view",
			"type": "function"
		},
		{
			"constant": false,
			"inputs": [
				{
					"name": "_spender",
					"type": "address"
				},
				{
					"name": "_value",
					"type": "uint256"
				}
			],
			"name": "approve",
			"outputs": [
				{
					"name": "success",
					"type": "bool"
				}
			],
			"payable": false,
			"stateMutability": "nonpayable",
			"type": "function"
		},
		{
			"constant": true,
			"inputs": [],
			"name": "powerOfTen",
			"outputs": [
				{
					"name": "",
					"type": "uint256"
				}
			],
			"payable": false,
			"stateMutability": "view",
			"type": "function"
		},
		{
			"constant": true,
			"inputs": [],
			"name": "aoDevTeam1",
			"outputs": [
				{
					"name": "",
					"type": "address"
				}
			],
			"payable": false,
			"stateMutability": "view",
			"type": "function"
		},
		{
			"constant": true,
			"inputs": [
				{
					"name": "",
					"type": "address"
				},
				{
					"name": "",
					"type": "uint256"
				}
			],
			"name": "primordialStakedBalance",
			"outputs": [
				{
					"name": "",
					"type": "uint256"
				}
			],
			"payable": false,
			"stateMutability": "view",
			"type": "function"
		},
		{
			"constant": true,
			"inputs": [],
			"name": "totalSupply",
			"outputs": [
				{
					"name": "",
					"type": "uint256"
				}
			],
			"payable": false,
			"stateMutability": "view",
			"type": "function"
		},
		{
			"constant": true,
			"inputs": [],
			"name": "aoSettingAddress",
			"outputs": [
				{
					"name": "",
					"type": "address"
				}
			],
			"payable": false,
			"stateMutability": "view",
			"type": "function"
		},
		{
			"constant": false,
			"inputs": [
				{
					"name": "_nameAccountRecoveryAddress",
					"type": "address"
				}
			],
			"name": "setNameAccountRecoveryAddress",
			"outputs": [],
			"payable": false,
			"stateMutability": "nonpayable",
			"type": "function"
		},
		{
			"constant": false,
			"inputs": [
				{
					"name": "_from",
					"type": "address"
				},
				{
					"name": "_to",
					"type": "address"
				},
				{
					"name": "_value",
					"type": "uint256"
				}
			],
			"name": "transferFrom",
			"outputs": [
				{
					"name": "success",
					"type": "bool"
				}
			],
			"payable": false,
			"stateMutability": "nonpayable",
			"type": "function"
		},
		{
			"constant": true,
			"inputs": [],
			"name": "primordialSellPrice",
			"outputs": [
				{
					"name": "",
					"type": "uint256"
				}
			],
			"payable": false,
			"stateMutability": "view",
			"type": "function"
		},
		{
			"constant": true,
			"inputs": [],
			"name": "decimals",
			"outputs": [
				{
					"name": "",
					"type": "uint8"
				}
			],
			"payable": false,
			"stateMutability": "view",
			"type": "function"
		},
		{
			"constant": false,
			"inputs": [
				{
					"name": "_from",
					"type": "address"
				},
				{
					"name": "_value",
					"type": "uint256"
				}
			],
			"name": "stakeFrom",
			"outputs": [
				{
					"name": "",
					"type": "bool"
				}
			],
			"payable": false,
			"stateMutability": "nonpayable",
			"type": "function"
		},
		{
			"constant": true,
			"inputs": [],
			"name": "totalRedeemedAOETH",
			"outputs": [
				{
					"name": "",
					"type": "uint256"
				}
			],
			"payable": false,
			"stateMutability": "view",
			"type": "function"
		},
		{
			"constant": false,
			"inputs": [
				{
					"name": "target",
					"type": "address"
				},
				{
					"name": "mintedAmount",
					"type": "uint256"
				}
			],
			"name": "mint",
			"outputs": [
				{
					"name": "",
					"type": "bool"
				}
			],
			"payable": false,
			"stateMutability": "nonpayable",
			"type": "function"
		},
		{
			"constant": false,
			"inputs": [
				{
					"name": "_value",
					"type": "uint256"
				}
			],
			"name": "burn",
			"outputs": [
				{
					"name": "success",
					"type": "bool"
				}
			],
			"payable": false,
			"stateMutability": "nonpayable",
			"type": "function"
		},
		{
			"constant": true,
			"inputs": [],
			"name": "sellPrice",
			"outputs": [
				{
					"name": "",
					"type": "uint256"
				}
			],
			"payable": false,
			"stateMutability": "view",
			"type": "function"
		},
		{
			"constant": true,
			"inputs": [],
			"name": "nameTAOPositionAddress",
			"outputs": [
				{
					"name": "",
					"type": "address"
				}
			],
			"payable": false,
			"stateMutability": "view",
			"type": "function"
		},
		{
			"constant": true,
			"inputs": [
				{
					"name": "",
					"type": "address"
				}
			],
			"name": "escrowedBalance",
			"outputs": [
				{
					"name": "",
					"type": "uint256"
				}
			],
			"payable": false,
			"stateMutability": "view",
			"type": "function"
		},
		{
			"constant": false,
			"inputs": [
				{
					"name": "_account",
					"type": "address"
				},
				{
					"name": "_whitelist",
					"type": "bool"
				}
			],
			"name": "setWhitelist",
			"outputs": [],
			"payable": false,
			"stateMutability": "nonpayable",
			"type": "function"
		},
		{
			"constant": true,
			"inputs": [
				{
					"name": "",
					"type": "address"
				}
			],
			"name": "primordialBalanceOf",
			"outputs": [
				{
					"name": "",
					"type": "uint256"
				}
			],
			"payable": false,
			"stateMutability": "view",
			"type": "function"
		},
		{
			"constant": false,
			"inputs": [
				{
					"name": "_nameTAOPositionAddress",
					"type": "address"
				}
			],
			"name": "setNameTAOPositionAddress",
			"outputs": [],
			"payable": false,
			"stateMutability": "nonpayable",
			"type": "function"
		},
		{
			"constant": true,
			"inputs": [
				{
					"name": "",
					"type": "address"
				}
			],
			"name": "stakedBalance",
			"outputs": [
				{
					"name": "",
					"type": "uint256"
				}
			],
			"payable": false,
			"stateMutability": "view",
			"type": "function"
		},
		{
			"constant": true,
			"inputs": [],
			"name": "TOTAL_PRIMORDIAL_FOR_SALE",
			"outputs": [
				{
					"name": "",
					"type": "uint256"
				}
			],
			"payable": false,
			"stateMutability": "view",
			"type": "function"
		},
		{
			"constant": false,
			"inputs": [
				{
					"name": "_namePublicKeyAddress",
					"type": "address"
				}
			],
			"name": "setNamePublicKeyAddress",
			"outputs": [],
			"payable": false,
			"stateMutability": "nonpayable",
			"type": "function"
		},
		{
			"constant": true,
			"inputs": [
				{
					"name": "",
					"type": "address"
				}
			],
			"name": "balanceOf",
			"outputs": [
				{
					"name": "",
					"type": "uint256"
				}
			],
			"payable": false,
			"stateMutability": "view",
			"type": "function"
		},
		{
			"constant": true,
			"inputs": [],
			"name": "primordialBuyPrice",
			"outputs": [
				{
					"name": "",
					"type": "uint256"
				}
			],
			"payable": false,
			"stateMutability": "view",
			"type": "function"
		},
		{
			"constant": false,
			"inputs": [
				{
					"name": "_from",
					"type": "address"
				},
				{
					"name": "_value",
					"type": "uint256"
				}
			],
			"name": "unstakeFrom",
			"outputs": [
				{
					"name": "",
					"type": "bool"
				}
			],
			"payable": false,
			"stateMutability": "nonpayable",
			"type": "function"
		},
		{
			"constant": false,
			"inputs": [
				{
					"name": "_from",
					"type": "address"
				},
				{
					"name": "_value",
					"type": "uint256"
				}
			],
			"name": "burnFrom",
			"outputs": [
				{
					"name": "success",
					"type": "bool"
				}
			],
			"payable": false,
			"stateMutability": "nonpayable",
			"type": "function"
		},
		{
			"constant": false,
			"inputs": [
				{
					"name": "_nameId",
					"type": "address"
				},
				{
					"name": "_from",
					"type": "address"
				},
				{
					"name": "_to",
					"type": "address"
				},
				{
					"name": "_value",
					"type": "uint256"
				}
			],
			"name": "transferBetweenPublicKeys",
			"outputs": [
				{
					"name": "success",
					"type": "bool"
				}
			],
			"payable": false,
			"stateMutability": "nonpayable",
			"type": "function"
		},
		{
			"constant": true,
			"inputs": [],
			"name": "primordialTotalSupply",
			"outputs": [
				{
					"name": "",
					"type": "uint256"
				}
			],
			"payable": false,
			"stateMutability": "view",
			"type": "function"
		},
		{
			"constant": true,
			"inputs": [],
			"name": "buyPrice",
			"outputs": [
				{
					"name": "",
					"type": "uint256"
				}
			],
			"payable": false,
			"stateMutability": "view",
			"type": "function"
		},
		{
			"constant": false,
			"inputs": [
				{
					"name": "_from",
					"type": "address"
				},
				{
					"name": "_to",
					"type": "address"
				},
				{
					"name": "_value",
					"type": "uint256"
				}
			],
			"name": "escrowFrom",
			"outputs": [
				{
					"name": "",
					"type": "bool"
				}
			],
			"payable": false,
			"stateMutability": "nonpayable",
			"type": "function"
		},
		{
			"constant": false,
			"inputs": [
				{
					"name": "_from",
					"type": "address"
				},
				{
					"name": "_value",
					"type": "uint256"
				}
			],
			"name": "unescrowFrom",
			"outputs": [
				{
					"name": "",
					"type": "bool"
				}
			],
			"payable": false,
			"stateMutability": "nonpayable",
			"type": "function"
		},
		{
			"constant": true,
			"inputs": [],
			"name": "symbol",
			"outputs": [
				{
					"name": "",
					"type": "string"
				}
			],
			"payable": false,
			"stateMutability": "view",
			"type": "function"
		},
		{
			"constant": true,
			"inputs": [
				{
					"name": "",
					"type": "address"
				}
			],
			"name": "whitelist",
			"outputs": [
				{
					"name": "",
					"type": "bool"
				}
			],
			"payable": false,
			"stateMutability": "view",
			"type": "function"
		},
		{
			"constant": false,
			"inputs": [
				{
					"name": "_from",
					"type": "address"
				},
				{
					"name": "_to",
					"type": "address"
				},
				{
					"name": "_value",
					"type": "uint256"
				}
			],
			"name": "whitelistTransferFrom",
			"outputs": [
				{
					"name": "success",
					"type": "bool"
				}
			],
			"payable": false,
			"stateMutability": "nonpayable",
			"type": "function"
		},
		{
			"constant": true,
			"inputs": [],
			"name": "totalEthForPrimordial",
			"outputs": [
				{
					"name": "",
					"type": "uint256"
				}
			],
			"payable": false,
			"stateMutability": "view",
			"type": "function"
		},
		{
			"constant": true,
			"inputs": [],
			"name": "nameAccountRecoveryAddress",
			"outputs": [
				{
					"name": "",
					"type": "address"
				}
			],
			"payable": false,
			"stateMutability": "view",
			"type": "function"
		},
		{
			"constant": true,
			"inputs": [],
			"name": "networkExchangeEnded",
			"outputs": [
				{
					"name": "",
					"type": "bool"
				}
			],
			"payable": false,
			"stateMutability": "view",
			"type": "function"
		},
		{
			"constant": false,
			"inputs": [],
			"name": "buy",
			"outputs": [],
			"payable": true,
			"stateMutability": "payable",
			"type": "function"
		},
		{
			"constant": false,
			"inputs": [
				{
					"name": "_to",
					"type": "address"
				},
				{
					"name": "_value",
					"type": "uint256"
				}
			],
			"name": "transfer",
			"outputs": [
				{
					"name": "success",
					"type": "bool"
				}
			],
			"payable": false,
			"stateMutability": "nonpayable",
			"type": "function"
		},
		{
			"constant": true,
			"inputs": [],
			"name": "aoDevTeam2",
			"outputs": [
				{
					"name": "",
					"type": "address"
				}
			],
			"payable": false,
			"stateMutability": "view",
			"type": "function"
		},
		{
			"constant": true,
			"inputs": [],
			"name": "theAO",
			"outputs": [
				{
					"name": "",
					"type": "address"
				}
			],
			"payable": false,
			"stateMutability": "view",
			"type": "function"
		},
		{
			"constant": true,
			"inputs": [],
			"name": "aoIonLotAddress",
			"outputs": [
				{
					"name": "",
					"type": "address"
				}
			],
			"payable": false,
			"stateMutability": "view",
			"type": "function"
		},
		{
			"constant": true,
			"inputs": [],
			"name": "primordialTotalBought",
			"outputs": [
				{
					"name": "",
					"type": "uint256"
				}
			],
			"payable": false,
			"stateMutability": "view",
			"type": "function"
		},
		{
			"constant": false,
			"inputs": [
				{
					"name": "_from",
					"type": "address"
				},
				{
					"name": "_value",
					"type": "uint256"
				}
			],
			"name": "whitelistBurnFrom",
			"outputs": [
				{
					"name": "success",
					"type": "bool"
				}
			],
			"payable": false,
			"stateMutability": "nonpayable",
			"type": "function"
		},
		{
			"constant": true,
			"inputs": [
				{
					"name": "",
					"type": "address"
				}
			],
			"name": "frozenAccount",
			"outputs": [
				{
					"name": "",
					"type": "bool"
				}
			],
			"payable": false,
			"stateMutability": "view",
			"type": "function"
		},
		{
			"constant": false,
			"inputs": [
				{
					"name": "_spender",
					"type": "address"
				},
				{
					"name": "_value",
					"type": "uint256"
				},
				{
					"name": "_extraData",
					"type": "bytes"
				}
			],
			"name": "approveAndCall",
			"outputs": [
				{
					"name": "success",
					"type": "bool"
				}
			],
			"payable": false,
			"stateMutability": "nonpayable",
			"type": "function"
		},
		{
			"constant": true,
			"inputs": [
				{
					"name": "",
					"type": "address"
				},
				{
					"name": "",
					"type": "address"
				}
			],
			"name": "primordialAllowance",
			"outputs": [
				{
					"name": "",
					"type": "uint256"
				}
			],
			"payable": false,
			"stateMutability": "view",
			"type": "function"
		},
		{
			"constant": false,
			"inputs": [
				{
					"name": "target",
					"type": "address"
				},
				{
					"name": "mintedAmount",
					"type": "uint256"
				}
			],
			"name": "mintEscrow",
			"outputs": [
				{
					"name": "",
					"type": "bool"
				}
			],
			"payable": false,
			"stateMutability": "nonpayable",
			"type": "function"
		},
		{
			"constant": true,
			"inputs": [],
			"name": "namePublicKeyAddress",
			"outputs": [
				{
					"name": "",
					"type": "address"
				}
			],
			"payable": false,
			"stateMutability": "view",
			"type": "function"
		},
		{
			"constant": true,
			"inputs": [
				{
					"name": "",
					"type": "address"
				},
				{
					"name": "",
					"type": "address"
				}
			],
			"name": "allowance",
			"outputs": [
				{
					"name": "",
					"type": "uint256"
				}
			],
			"payable": false,
			"stateMutability": "view",
			"type": "function"
		},
		{
			"constant": false,
			"inputs": [
				{
					"name": "amount",
					"type": "uint256"
				}
			],
			"name": "sell",
			"outputs": [],
			"payable": false,
			"stateMutability": "nonpayable",
			"type": "function"
		},
		{
			"constant": false,
			"inputs": [
				{
					"name": "target",
					"type": "address"
				},
				{
					"name": "freeze",
					"type": "bool"
				}
			],
			"name": "freezeAccount",
			"outputs": [],
			"payable": false,
			"stateMutability": "nonpayable",
			"type": "function"
		},
		{
			"constant": true,
			"inputs": [],
			"name": "settingTAOId",
			"outputs": [
				{
					"name": "",
					"type": "address"
				}
			],
			"payable": false,
			"stateMutability": "view",
			"type": "function"
		},
		{
			"constant": false,
			"inputs": [
				{
					"name": "_recipient",
					"type": "address"
				},
				{
					"name": "_amount",
					"type": "uint256"
				}
			],
			"name": "transferEth",
			"outputs": [],
			"payable": false,
			"stateMutability": "nonpayable",
			"type": "function"
		},
		{
			"constant": false,
			"inputs": [
				{
					"name": "_theAO",
					"type": "address"
				}
			],
			"name": "transferOwnership",
			"outputs": [],
			"payable": false,
			"stateMutability": "nonpayable",
			"type": "function"
		},
		{
			"constant": true,
			"inputs": [],
			"name": "aoethAddress",
			"outputs": [
				{
					"name": "",
					"type": "address"
				}
			],
			"payable": false,
			"stateMutability": "view",
			"type": "function"
		},
		{
			"inputs": [
				{
					"name": "_name",
					"type": "string"
				},
				{
					"name": "_symbol",
					"type": "string"
				},
				{
					"name": "_settingTAOId",
					"type": "address"
				},
				{
					"name": "_aoSettingAddress",
					"type": "address"
				},
				{
					"name": "_nameTAOPositionAddress",
					"type": "address"
				},
				{
					"name": "_namePublicKeyAddress",
					"type": "address"
				},
				{
					"name": "_nameAccountRecoveryAddress",
					"type": "address"
				}
			],
			"payable": false,
			"stateMutability": "nonpayable",
			"type": "constructor"
		},
		{
			"anonymous": false,
			"inputs": [
				{
					"indexed": true,
					"name": "from",
					"type": "address"
				},
				{
					"indexed": true,
					"name": "to",
					"type": "address"
				},
				{
					"indexed": false,
					"name": "value",
					"type": "uint256"
				}
			],
			"name": "PrimordialTransfer",
			"type": "event"
		},
		{
			"anonymous": false,
			"inputs": [
				{
					"indexed": true,
					"name": "_owner",
					"type": "address"
				},
				{
					"indexed": true,
					"name": "_spender",
					"type": "address"
				},
				{
					"indexed": false,
					"name": "_value",
					"type": "uint256"
				}
			],
			"name": "PrimordialApproval",
			"type": "event"
		},
		{
			"anonymous": false,
			"inputs": [
				{
					"indexed": true,
					"name": "from",
					"type": "address"
				},
				{
					"indexed": false,
					"name": "value",
					"type": "uint256"
				}
			],
			"name": "PrimordialBurn",
			"type": "event"
		},
		{
			"anonymous": false,
			"inputs": [
				{
					"indexed": true,
					"name": "from",
					"type": "address"
				},
				{
					"indexed": false,
					"name": "value",
					"type": "uint256"
				},
				{
					"indexed": false,
					"name": "weightedMultiplier",
					"type": "uint256"
				}
			],
			"name": "PrimordialStake",
			"type": "event"
		},
		{
			"anonymous": false,
			"inputs": [
				{
					"indexed": true,
					"name": "from",
					"type": "address"
				},
				{
					"indexed": false,
					"name": "value",
					"type": "uint256"
				},
				{
					"indexed": false,
					"name": "weightedMultiplier",
					"type": "uint256"
				}
			],
			"name": "PrimordialUnstake",
			"type": "event"
		},
		{
			"anonymous": false,
			"inputs": [],
			"name": "NetworkExchangeEnded",
			"type": "event"
		},
		{
			"anonymous": false,
			"inputs": [
				{
					"indexed": true,
					"name": "lotOwner",
					"type": "address"
				},
				{
					"indexed": true,
					"name": "lotId",
					"type": "bytes32"
				},
				{
					"indexed": false,
					"name": "payWith",
					"type": "uint8"
				},
				{
					"indexed": false,
					"name": "sentAmount",
					"type": "uint256"
				},
				{
					"indexed": false,
					"name": "refundedAmount",
					"type": "uint256"
				}
			],
			"name": "BuyPrimordial",
			"type": "event"
		},
		{
			"anonymous": false,
			"inputs": [
				{
					"indexed": false,
					"name": "target",
					"type": "address"
				},
				{
					"indexed": false,
					"name": "frozen",
					"type": "bool"
				}
			],
			"name": "FrozenFunds",
			"type": "event"
		},
		{
			"anonymous": false,
			"inputs": [
				{
					"indexed": true,
					"name": "from",
					"type": "address"
				},
				{
					"indexed": false,
					"name": "value",
					"type": "uint256"
				}
			],
			"name": "Stake",
			"type": "event"
		},
		{
			"anonymous": false,
			"inputs": [
				{
					"indexed": true,
					"name": "from",
					"type": "address"
				},
				{
					"indexed": false,
					"name": "value",
					"type": "uint256"
				}
			],
			"name": "Unstake",
			"type": "event"
		},
		{
			"anonymous": false,
			"inputs": [
				{
					"indexed": true,
					"name": "from",
					"type": "address"
				},
				{
					"indexed": true,
					"name": "to",
					"type": "address"
				},
				{
					"indexed": false,
					"name": "value",
					"type": "uint256"
				}
			],
			"name": "Escrow",
			"type": "event"
		},
		{
			"anonymous": false,
			"inputs": [
				{
					"indexed": true,
					"name": "from",
					"type": "address"
				},
				{
					"indexed": false,
					"name": "value",
					"type": "uint256"
				}
			],
			"name": "Unescrow",
			"type": "event"
		},
		{
			"anonymous": false,
			"inputs": [
				{
					"indexed": true,
					"name": "from",
					"type": "address"
				},
				{
					"indexed": true,
					"name": "to",
					"type": "address"
				},
				{
					"indexed": false,
					"name": "value",
					"type": "uint256"
				}
			],
			"name": "Transfer",
			"type": "event"
		},
		{
			"anonymous": false,
			"inputs": [
				{
					"indexed": true,
					"name": "_owner",
					"type": "address"
				},
				{
					"indexed": true,
					"name": "_spender",
					"type": "address"
				},
				{
					"indexed": false,
					"name": "_value",
					"type": "uint256"
				}
			],
			"name": "Approval",
			"type": "event"
		},
		{
			"anonymous": false,
			"inputs": [
				{
					"indexed": true,
					"name": "from",
					"type": "address"
				},
				{
					"indexed": false,
					"name": "value",
					"type": "uint256"
				}
			],
			"name": "Burn",
			"type": "event"
		},
		{
			"constant": false,
			"inputs": [
				{
					"name": "_aoIonLotAddress",
					"type": "address"
				}
			],
			"name": "setAOIonLotAddress",
			"outputs": [],
			"payable": false,
			"stateMutability": "nonpayable",
			"type": "function"
		},
		{
			"constant": false,
			"inputs": [
				{
					"name": "_settingTAOId",
					"type": "address"
				}
			],
			"name": "setSettingTAOId",
			"outputs": [],
			"payable": false,
			"stateMutability": "nonpayable",
			"type": "function"
		},
		{
			"constant": false,
			"inputs": [
				{
					"name": "_aoSettingAddress",
					"type": "address"
				}
			],
			"name": "setAOSettingAddress",
			"outputs": [],
			"payable": false,
			"stateMutability": "nonpayable",
			"type": "function"
		},
		{
			"constant": false,
			"inputs": [
				{
					"name": "_aoDevTeam1",
					"type": "address"
				},
				{
					"name": "_aoDevTeam2",
					"type": "address"
				}
			],
			"name": "setAODevTeamAddresses",
			"outputs": [],
			"payable": false,
			"stateMutability": "nonpayable",
			"type": "function"
		},
		{
			"constant": false,
			"inputs": [
				{
					"name": "_aoethAddress",
					"type": "address"
				}
			],
			"name": "setAOETHAddress",
			"outputs": [],
			"payable": false,
			"stateMutability": "nonpayable",
			"type": "function"
		},
		{
			"constant": false,
			"inputs": [
				{
					"name": "newPrimordialSellPrice",
					"type": "uint256"
				},
				{
					"name": "newPrimordialBuyPrice",
					"type": "uint256"
				}
			],
			"name": "setPrimordialPrices",
			"outputs": [],
			"payable": false,
			"stateMutability": "nonpayable",
			"type": "function"
		},
		{
			"constant": false,
			"inputs": [],
			"name": "endNetworkExchange",
			"outputs": [],
			"payable": false,
			"stateMutability": "nonpayable",
			"type": "function"
		},
		{
			"constant": false,
			"inputs": [
				{
					"name": "_from",
					"type": "address"
				},
				{
					"name": "_value",
					"type": "uint256"
				},
				{
					"name": "_weightedMultiplier",
					"type": "uint256"
				}
			],
			"name": "stakePrimordialFrom",
			"outputs": [
				{
					"name": "",
					"type": "bool"
				}
			],
			"payable": false,
			"stateMutability": "nonpayable",
			"type": "function"
		},
		{
			"constant": false,
			"inputs": [
				{
					"name": "_from",
					"type": "address"
				},
				{
					"name": "_value",
					"type": "uint256"
				},
				{
					"name": "_weightedMultiplier",
					"type": "uint256"
				}
			],
			"name": "unstakePrimordialFrom",
			"outputs": [
				{
					"name": "",
					"type": "bool"
				}
			],
			"payable": false,
			"stateMutability": "nonpayable",
			"type": "function"
		},
		{
			"constant": false,
			"inputs": [
				{
					"name": "_from",
					"type": "address"
				},
				{
					"name": "_to",
					"type": "address"
				},
				{
					"name": "_value",
					"type": "uint256"
				}
			],
			"name": "whitelistTransferPrimordialFrom",
			"outputs": [
				{
					"name": "",
					"type": "bool"
				}
			],
			"payable": false,
			"stateMutability": "nonpayable",
			"type": "function"
		},
		{
			"constant": false,
			"inputs": [],
			"name": "buyPrimordial",
			"outputs": [],
			"payable": true,
			"stateMutability": "payable",
			"type": "function"
		},
		{
			"constant": false,
			"inputs": [
				{
					"name": "_aoethAmount",
					"type": "uint256"
				}
			],
			"name": "buyPrimordialWithAOETH",
			"outputs": [],
			"payable": false,
			"stateMutability": "nonpayable",
			"type": "function"
		},
		{
			"constant": false,
			"inputs": [
				{
					"name": "_to",
					"type": "address"
				},
				{
					"name": "_value",
					"type": "uint256"
				}
			],
			"name": "transferPrimordial",
			"outputs": [
				{
					"name": "",
					"type": "bool"
				}
			],
			"payable": false,
			"stateMutability": "nonpayable",
			"type": "function"
		},
		{
			"constant": false,
			"inputs": [
				{
					"name": "_from",
					"type": "address"
				},
				{
					"name": "_to",
					"type": "address"
				},
				{
					"name": "_value",
					"type": "uint256"
				}
			],
			"name": "transferPrimordialFrom",
			"outputs": [
				{
					"name": "",
					"type": "bool"
				}
			],
			"payable": false,
			"stateMutability": "nonpayable",
			"type": "function"
		},
		{
			"constant": false,
			"inputs": [
				{
					"name": "_nameId",
					"type": "address"
				},
				{
					"name": "_from",
					"type": "address"
				},
				{
					"name": "_to",
					"type": "address"
				},
				{
					"name": "_value",
					"type": "uint256"
				}
			],
			"name": "transferPrimordialBetweenPublicKeys",
			"outputs": [
				{
					"name": "",
					"type": "bool"
				}
			],
			"payable": false,
			"stateMutability": "nonpayable",
			"type": "function"
		},
		{
			"constant": false,
			"inputs": [
				{
					"name": "_spender",
					"type": "address"
				},
				{
					"name": "_value",
					"type": "uint256"
				}
			],
			"name": "approvePrimordial",
			"outputs": [
				{
					"name": "",
					"type": "bool"
				}
			],
			"payable": false,
			"stateMutability": "nonpayable",
			"type": "function"
		},
		{
			"constant": false,
			"inputs": [
				{
					"name": "_spender",
					"type": "address"
				},
				{
					"name": "_value",
					"type": "uint256"
				},
				{
					"name": "_extraData",
					"type": "bytes"
				}
			],
			"name": "approvePrimordialAndCall",
			"outputs": [
				{
					"name": "",
					"type": "bool"
				}
			],
			"payable": false,
			"stateMutability": "nonpayable",
			"type": "function"
		},
		{
			"constant": false,
			"inputs": [
				{
					"name": "_value",
					"type": "uint256"
				}
			],
			"name": "burnPrimordial",
			"outputs": [
				{
					"name": "",
					"type": "bool"
				}
			],
			"payable": false,
			"stateMutability": "nonpayable",
			"type": "function"
		},
		{
			"constant": false,
			"inputs": [
				{
					"name": "_from",
					"type": "address"
				},
				{
					"name": "_value",
					"type": "uint256"
				}
			],
			"name": "burnPrimordialFrom",
			"outputs": [
				{
					"name": "",
					"type": "bool"
				}
			],
			"payable": false,
			"stateMutability": "nonpayable",
			"type": "function"
		},
		{
			"constant": true,
			"inputs": [
				{
					"name": "_lotOwner",
					"type": "address"
				}
			],
			"name": "weightedMultiplierByAddress",
			"outputs": [
				{
					"name": "",
					"type": "uint256"
				}
			],
			"payable": false,
			"stateMutability": "view",
			"type": "function"
		},
		{
			"constant": true,
			"inputs": [
				{
					"name": "_target",
					"type": "address"
				}
			],
			"name": "maxMultiplierByAddress",
			"outputs": [
				{
					"name": "",
					"type": "uint256"
				}
			],
			"payable": false,
			"stateMutability": "view",
			"type": "function"
		},
		{
			"constant": true,
			"inputs": [
				{
					"name": "_purchaseAmount",
					"type": "uint256"
				}
			],
			"name": "calculateMultiplierAndBonus",
			"outputs": [
				{
					"name": "",
					"type": "uint256"
				},
				{
					"name": "",
					"type": "uint256"
				},
				{
					"name": "",
					"type": "uint256"
				}
			],
			"payable": false,
			"stateMutability": "view",
			"type": "function"
		},
		{
			"constant": true,
			"inputs": [
				{
					"name": "_account",
					"type": "address"
				}
			],
			"name": "calculateMaximumBurnAmount",
			"outputs": [
				{
					"name": "",
					"type": "uint256"
				}
			],
			"payable": false,
			"stateMutability": "view",
			"type": "function"
		},
		{
			"constant": true,
			"inputs": [
				{
					"name": "_account",
					"type": "address"
				},
				{
					"name": "_amountToBurn",
					"type": "uint256"
				}
			],
			"name": "calculateMultiplierAfterBurn",
			"outputs": [
				{
					"name": "",
					"type": "uint256"
				}
			],
			"payable": false,
			"stateMutability": "view",
			"type": "function"
		},
		{
			"constant": true,
			"inputs": [
				{
					"name": "_account",
					"type": "address"
				},
				{
					"name": "_amountToConvert",
					"type": "uint256"
				}
			],
			"name": "calculateMultiplierAfterConversion",
			"outputs": [
				{
					"name": "",
					"type": "uint256"
				}
			],
			"payable": false,
			"stateMutability": "view",
			"type": "function"
		},
		{
			"constant": false,
			"inputs": [
				{
					"name": "_value",
					"type": "uint256"
				}
			],
			"name": "convertToPrimordial",
			"outputs": [
				{
					"name": "",
					"type": "bool"
				}
			],
			"payable": false,
			"stateMutability": "nonpayable",
			"type": "function"
		},
		{
			"constant": true,
			"inputs": [],
			"name": "availablePrimordialForSale",
			"outputs": [
				{
					"name": "",
					"type": "uint256"
				}
			],
			"payable": false,
			"stateMutability": "view",
			"type": "function"
		},
		{
			"constant": true,
			"inputs": [],
			"name": "availablePrimordialForSaleInETH",
			"outputs": [
				{
					"name": "",
					"type": "uint256"
				}
			],
			"payable": false,
			"stateMutability": "view",
			"type": "function"
		},
		{
			"constant": true,
			"inputs": [],
			"name": "availableETH",
			"outputs": [
				{
					"name": "",
					"type": "uint256"
				}
			],
			"payable": false,
			"stateMutability": "view",
			"type": "function"
		}
	],
	"bytecode": "0x608060405260188054600160a060020a0319908116735c63644d01ba385ebac5bcf2ddc1e6dbc1182b52179091556019805490911673156c79bf4347d1891da834ea30662a14177cbf281790553480156200005957600080fd5b506040516200670a3803806200670a833981018060405260e08110156200007f57600080fd5b8101908080516401000000008111156200009857600080fd5b82016020810184811115620000ac57600080fd5b8151640100000000811182820187101715620000c757600080fd5b50509291906020018051640100000000811115620000e457600080fd5b82016020810184811115620000f857600080fd5b81516401000000008111828201871017156200011357600080fd5b5050602082015160408301516060840151608085015160a09095015160008054600160a060020a031916331790559396509194509290918686848484620001638364010000000062000229810204565b620001778264010000000062000331810204565b6200018b8164010000000062000439810204565b8451620001a0906008906020880190620008a7565b508351620001b6906009906020870190620008a7565b50506000600c555050600a805460ff1916905550620001e090508564010000000062000541810204565b620001f484640100000000620006d4810204565b6000600c819055600a805460ff191690556200021c90612710640100000000620007d9810204565b505050505050506200094c565b600054600154604080517ff66afcac000000000000000000000000000000000000000000000000000000008152336004820152600160a060020a0393841660248201529290911660448301525173__AOLibrary_____________________________9163f66afcac916064808301926020929190829003018186803b158015620002b257600080fd5b505af4158015620002c7573d6000803e3d6000fd5b505050506040513d6020811015620002de57600080fd5b50511515620002ec57600080fd5b600160a060020a03811615156200030257600080fd5b60018054600160a060020a0319908116600160a060020a03938416179182905560058054929093169116179055565b600054600154604080517ff66afcac000000000000000000000000000000000000000000000000000000008152336004820152600160a060020a0393841660248201529290911660448301525173__AOLibrary_____________________________9163f66afcac916064808301926020929190829003018186803b158015620003ba57600080fd5b505af4158015620003cf573d6000803e3d6000fd5b505050506040513d6020811015620003e657600080fd5b50511515620003f457600080fd5b600160a060020a03811615156200040a57600080fd5b60038054600160a060020a0319908116600160a060020a03938416179182905560068054929093169116179055565b600054600154604080517ff66afcac000000000000000000000000000000000000000000000000000000008152336004820152600160a060020a0393841660248201529290911660448301525173__AOLibrary_____________________________9163f66afcac916064808301926020929190829003018186803b158015620004c257600080fd5b505af4158015620004d7573d6000803e3d6000fd5b505050506040513d6020811015620004ee57600080fd5b50511515620004fc57600080fd5b600160a060020a03811615156200051257600080fd5b60048054600160a060020a0319908116600160a060020a03938416179182905560078054929093169116179055565b600054600154604080517ff66afcac000000000000000000000000000000000000000000000000000000008152336004820152600160a060020a0393841660248201529290911660448301525173__AOLibrary_____________________________9163f66afcac916064808301926020929190829003018186803b158015620005ca57600080fd5b505af4158015620005df573d6000803e3d6000fd5b505050506040513d6020811015620005f657600080fd5b505115156200060457600080fd5b604080517f2fca5414000000000000000000000000000000000000000000000000000000008152600160a060020a0383166004820152905173__AOLibrary_____________________________91632fca5414916024808301926020929190829003018186803b1580156200067857600080fd5b505af41580156200068d573d6000803e3d6000fd5b505050506040513d6020811015620006a457600080fd5b50511515620006b257600080fd5b60158054600160a060020a031916600160a060020a0392909216919091179055565b600054600154604080517ff66afcac000000000000000000000000000000000000000000000000000000008152336004820152600160a060020a0393841660248201529290911660448301525173__AOLibrary_____________________________9163f66afcac916064808301926020929190829003018186803b1580156200075d57600080fd5b505af415801562000772573d6000803e3d6000fd5b505050506040513d60208110156200078957600080fd5b505115156200079757600080fd5b600160a060020a0381161515620007ad57600080fd5b60168054600160a060020a03909216600160a060020a03199283168117909155601b8054909216179055565b600054600154604080517ff66afcac000000000000000000000000000000000000000000000000000000008152336004820152600160a060020a0393841660248201529290911660448301525173__AOLibrary_____________________________9163f66afcac916064808301926020929190829003018186803b1580156200086257600080fd5b505af415801562000877573d6000803e3d6000fd5b505050506040513d60208110156200088e57600080fd5b505115156200089c57600080fd5b601f91909155602055565b828054600181600116156101000203166002900490600052602060002090601f016020900481019282601f10620008ea57805160ff19168380011785556200091a565b828001600101855582156200091a579182015b828111156200091a578251825591602001919060010190620008fd565b50620009289291506200092c565b5090565b6200094991905b8082111562000928576000815560010162000933565b90565b615dae806200095c6000396000f3fe6080604052600436106104cf5760003560e060020a9004806395d89b411161027a578063cf3e194d11610153578063e7c50185116100c5578063f81eb76d11610089578063f81eb76d146114c3578063f9f4363414611502578063faaad91d1461150a578063fb6ff16114611534578063fdb52e8614611549578063fff17e9e1461155e576104cf565b8063e7c5018514611347578063e9bb84c21461135c578063ecbbd1ca14611395578063ede5e884146113c8578063f2fde38b14611490576104cf565b8063d6830af311610117578063d6830af314611226578063d6c9e18914611259578063d8ce52d114611292578063dd62ed3e146112a7578063e4849b32146112e2578063e724529c1461130c576104cf565b8063cf3e194d14611113578063d1e5a5521461114c578063d318386414611187578063d569aa25146111c0578063d64468bf146111f3576104cf565b8063a99433a6116101ec578063b1e19d45116101b0578063b1e19d4514610f32578063b24626e914610f6b578063b414d4b614610fa6578063b811ae7f14610fd9578063c3c1ac4714611012578063cae9ca511461104b576104cf565b8063a99433a614610e9b578063a9b6b38e14610eb0578063ab13f75114610ec5578063ab7f770614610eda578063adc933cf14610eef576104cf565b8063a2e8760b1161023e578063a2e8760b14610deb578063a4e5fad214610e00578063a545a5d114610e15578063a6f2ae3a14610e2a578063a9059cbb14610e32578063a918887814610e6b576104cf565b806395d89b4114610d085780639b19251a14610d1d5780639d9b739614610d505780639eeead7a14610d65578063a144a3e014610da8576104cf565b80633a9c7d3d116103ac5780636aae86c31161031e57806379cc6790116102e257806379cc679014610be05780637d9e2a2114610c19578063834e9f3114610c625780638620410b14610c7757806387d4ca9314610c8c5780638a06604514610ccf576104cf565b80636aae86c314610b175780636d9aa03414610b2c57806370a0823114610b5f57806372d1146614610b92578063731a3b0614610ba7576104cf565b80634fbd2695116103705780634fbd2695146109fb57806353d6fd5914610a2e57806357946b8e14610a695780635cfaf2ef14610a9c5780636021726714610acf5780636a015bbe14610b02576104cf565b80633a9c7d3d1461093b57806340c10f191461096e57806342966c68146109a75780634b750334146109d15780634ef033f0146109e6576104cf565b8063153d90491161044557806323b872dd1161040957806323b872dd14610837578063281bdaf81461087a5780632b687bb9146108ad578063313ce567146108c257806331a8aeb3146108ed5780633480e25114610926576104cf565b8063153d90491461076257806318160ddd1461079b57806318ff5c51146107b05780631d0138ff146107ef5780631dfde2bd14610804576104cf565b8063095ea7b311610497578063095ea7b3146106475780630aa24546146106805780630ac0b31f146106955780630de8e272146106dd5780630e93571b1461070757806315227aa714610731576104cf565b8063032b7006146104d457806305fefda7146104fb57806306fd70881461052d57806306fdde031461056057806307f09e9a146105ea575b600080fd5b3480156104e057600080fd5b506104e9611597565b60408051918252519081900360200190f35b34801561050757600080fd5b5061052b6004803603604081101561051e57600080fd5b50803590602001356115bb565b005b34801561053957600080fd5b5061052b6004803603602081101561055057600080fd5b5035600160a060020a031661166f565b34801561056c57600080fd5b50610575611759565b6040805160208082528351818301528351919283929083019185019080838360005b838110156105af578181015183820152602001610597565b50505050905090810190601f1680156105dc5780820380516001836020036101000a031916815260200191505b509250505060405180910390f35b3480156105f657600080fd5b506106336004803603608081101561060d57600080fd5b50600160a060020a038135811691602081013582169160408201351690606001356117e7565b604080519115158252519081900360200190f35b34801561065357600080fd5b506106336004803603604081101561066a57600080fd5b50600160a060020a038135169060200135611af5565b34801561068c57600080fd5b506104e9611b5c565b3480156106a157600080fd5b506106bf600480360360208110156106b857600080fd5b5035611b62565b60408051938452602084019290925282820152519081900360600190f35b3480156106e957600080fd5b5061052b6004803603602081101561070057600080fd5b5035611dad565b34801561071357600080fd5b506106336004803603602081101561072a57600080fd5b5035612046565b34801561073d57600080fd5b506107466121c7565b60408051600160a060020a039092168252519081900360200190f35b34801561076e57600080fd5b506104e96004803603604081101561078557600080fd5b50600160a060020a0381351690602001356121d6565b3480156107a757600080fd5b506104e96121f3565b3480156107bc57600080fd5b50610633600480360360608110156107d357600080fd5b50600160a060020a0381351690602081013590604001356121f9565b3480156107fb57600080fd5b50610746612336565b34801561081057600080fd5b5061052b6004803603602081101561082757600080fd5b5035600160a060020a0316612345565b34801561084357600080fd5b506106336004803603606081101561085a57600080fd5b50600160a060020a03813581169160208101359091169060400135612432565b34801561088657600080fd5b506104e96004803603602081101561089d57600080fd5b5035600160a060020a03166124a1565b3480156108b957600080fd5b506104e96124bc565b3480156108ce57600080fd5b506108d76124c2565b6040805160ff9092168252519081900360200190f35b3480156108f957600080fd5b506106336004803603604081101561091057600080fd5b50600160a060020a0381351690602001356124cb565b34801561093257600080fd5b506104e96125ca565b34801561094757600080fd5b506104e96004803603602081101561095e57600080fd5b5035600160a060020a03166125d0565b34801561097a57600080fd5b506106336004803603604081101561099157600080fd5b50600160a060020a03813516906020013561268c565b3480156109b357600080fd5b50610633600480360360208110156109ca57600080fd5b50356126c0565b3480156109dd57600080fd5b506104e9612738565b3480156109f257600080fd5b5061074661273e565b348015610a0757600080fd5b506104e960048036036020811015610a1e57600080fd5b5035600160a060020a031661274d565b348015610a3a57600080fd5b5061052b60048036036040811015610a5157600080fd5b50600160a060020a038135169060200135151561275f565b348015610a7557600080fd5b506104e960048036036020811015610a8c57600080fd5b5035600160a060020a0316612848565b348015610aa857600080fd5b5061052b60048036036020811015610abf57600080fd5b5035600160a060020a031661285a565b348015610adb57600080fd5b506104e960048036036020811015610af257600080fd5b5035600160a060020a0316612947565b348015610b0e57600080fd5b5061052b612959565b348015610b2357600080fd5b506104e9612a4a565b348015610b3857600080fd5b5061052b60048036036020811015610b4f57600080fd5b5035600160a060020a0316612a55565b348015610b6b57600080fd5b506104e960048036036020811015610b8257600080fd5b5035600160a060020a0316612b42565b348015610b9e57600080fd5b506104e9612b54565b348015610bb357600080fd5b5061063360048036036040811015610bca57600080fd5b50600160a060020a038135169060200135612b5a565b348015610bec57600080fd5b5061063360048036036040811015610c0357600080fd5b50600160a060020a038135169060200135612c59565b348015610c2557600080fd5b5061063360048036036080811015610c3c57600080fd5b50600160a060020a03813581169160208101358216916040820135169060600135612d2a565b348015610c6e57600080fd5b506104e961303a565b348015610c8357600080fd5b506104e9613040565b348015610c9857600080fd5b5061063360048036036060811015610caf57600080fd5b50600160a060020a03813581169160208101359091169060400135613046565b348015610cdb57600080fd5b5061063360048036036040811015610cf257600080fd5b50600160a060020a038135169060200135613152565b348015610d1457600080fd5b50610575613251565b348015610d2957600080fd5b5061063360048036036020811015610d4057600080fd5b5035600160a060020a03166132ac565b348015610d5c57600080fd5b506104e96132c1565b348015610d7157600080fd5b5061063360048036036060811015610d8857600080fd5b50600160a060020a038135811691602081013590911690604001356132dd565b348015610db457600080fd5b5061063360048036036060811015610dcb57600080fd5b50600160a060020a03813581169160208101359091169060400135613311565b348015610df757600080fd5b506104e961333d565b348015610e0c57600080fd5b50610746613343565b348015610e2157600080fd5b50610633613352565b61052b61335b565b348015610e3e57600080fd5b5061063360048036036040811015610e5557600080fd5b50600160a060020a038135169060200135613391565b348015610e7757600080fd5b5061052b60048036036040811015610e8e57600080fd5b508035906020013561339e565b348015610ea757600080fd5b50610746613452565b348015610ebc57600080fd5b50610746613461565b348015610ed157600080fd5b50610746613470565b348015610ee657600080fd5b506104e961347f565b348015610efb57600080fd5b5061063360048036036060811015610f1257600080fd5b50600160a060020a03813581169160208101359091169060400135613485565b348015610f3e57600080fd5b5061063360048036036040811015610f5557600080fd5b50600160a060020a038135169060200135613518565b348015610f7757600080fd5b5061052b60048036036040811015610f8e57600080fd5b50600160a060020a03813581169160200135166135fe565b348015610fb257600080fd5b5061063360048036036020811015610fc957600080fd5b5035600160a060020a03166136d5565b348015610fe557600080fd5b5061063360048036036040811015610ffc57600080fd5b50600160a060020a0381351690602001356136ea565b34801561101e57600080fd5b506106336004803603604081101561103557600080fd5b50600160a060020a0381351690602001356136f7565b34801561105757600080fd5b506106336004803603606081101561106e57600080fd5b600160a060020a038235169160208101359181019060608101604082013564010000000081111561109e57600080fd5b8201836020820111156110b057600080fd5b803590602001918460018302840111640100000000831117156110d257600080fd5b91908080601f01602080910402602001604051908101604052809392919081815260200183838082843760009201919091525092955061391b945050505050565b34801561111f57600080fd5b506104e96004803603604081101561113657600080fd5b50600160a060020a038135169060200135613a39565b34801561115857600080fd5b506104e96004803603604081101561116f57600080fd5b50600160a060020a0381358116916020013516613b02565b34801561119357600080fd5b506104e9600480360360408110156111aa57600080fd5b50600160a060020a038135169060200135613b1f565b3480156111cc57600080fd5b5061052b600480360360208110156111e357600080fd5b5035600160a060020a0316613bcd565b3480156111ff57600080fd5b5061052b6004803603602081101561121657600080fd5b5035600160a060020a0316613cb7565b34801561123257600080fd5b5061052b6004803603602081101561124957600080fd5b5035600160a060020a0316613da1565b34801561126557600080fd5b506106336004803603604081101561127c57600080fd5b50600160a060020a038135169060200135613f16565b34801561129e57600080fd5b50610746613fd8565b3480156112b357600080fd5b506104e9600480360360408110156112ca57600080fd5b50600160a060020a0381358116916020013516613fe7565b3480156112ee57600080fd5b5061052b6004803603602081101561130557600080fd5b5035614004565b34801561131857600080fd5b5061052b6004803603604081101561132f57600080fd5b50600160a060020a0381351690602001351515614091565b34801561135357600080fd5b5061074661419e565b34801561136857600080fd5b5061052b6004803603604081101561137f57600080fd5b50600160a060020a0381351690602001356141ad565b3480156113a157600080fd5b506104e9600480360360208110156113b857600080fd5b5035600160a060020a03166142a1565b3480156113d457600080fd5b50610633600480360360608110156113eb57600080fd5b600160a060020a038235169160208101359181019060608101604082013564010000000081111561141b57600080fd5b82018360208201111561142d57600080fd5b8035906020019184600183028401116401000000008311171561144f57600080fd5b91908080601f016020809104026020016040519081016040528093929190818152602001838380828437600092019190915250929550614372945050505050565b34801561149c57600080fd5b5061052b600480360360208110156114b357600080fd5b5035600160a060020a031661437f565b3480156114cf57600080fd5b50610633600480360360608110156114e657600080fd5b50600160a060020a03813516906020810135906040013561445f565b61052b614589565b34801561151657600080fd5b506106336004803603602081101561152d57600080fd5b50356147a7565b34801561154057600080fd5b506104e96148af565b34801561155557600080fd5b506107466149a0565b34801561156a57600080fd5b506106336004803603604081101561158157600080fd5b50600160a060020a0381351690602001356149af565b60006115b5601e546603fffffffffffc614a1590919063ffffffff16565b90505b90565b6000546001546040805160e260020a633d9abf2b028152336004820152600160a060020a0393841660248201529290911660448301525173__AOLibrary_____________________________9163f66afcac916064808301926020929190829003018186803b15801561162d57600080fd5b505af4158015611641573d6000803e3d6000fd5b505050506040513d602081101561165757600080fd5b5051151561166457600080fd5b600d91909155600e55565b6000546001546040805160e260020a633d9abf2b028152336004820152600160a060020a0393841660248201529290911660448301525173__AOLibrary_____________________________9163f66afcac916064808301926020929190829003018186803b1580156116e157600080fd5b505af41580156116f5573d6000803e3d6000fd5b505050506040513d602081101561170b57600080fd5b5051151561171857600080fd5b600160a060020a038116151561172d57600080fd5b60168054600160a060020a03909216600160a060020a03199283168117909155601b8054909216179055565b6008805460408051602060026001851615610100026000190190941693909304601f810184900484028201840190925281815292918301828280156117df5780601f106117b4576101008083540402835291602001916117df565b820191906000526020600020905b8154815290600101906020018083116117c257829003601f168201915b505050505081565b600073__AOLibrary_____________________________632d706a34866040518263ffffffff1660e060020a0281526004018082600160a060020a0316600160a060020a0316815260200191505060206040518083038186803b15801561184d57600080fd5b505af4158015611861573d6000803e3d6000fd5b505050506040513d602081101561187757600080fd5b5051151561188457600080fd5b600554604080517f71ce52ed000000000000000000000000000000000000000000000000000000008152336004820152600160a060020a038881166024830152915191909216916371ce52ed916044808301926020929190829003018186803b1580156118f057600080fd5b505afa158015611904573d6000803e3d6000fd5b505050506040513d602081101561191a57600080fd5b5051151561192757600080fd5b600754604080517f3ebc2ab3000000000000000000000000000000000000000000000000000000008152600160a060020a03888116600483015291519190921691633ebc2ab3916024808301926020929190829003018186803b15801561198d57600080fd5b505afa1580156119a1573d6000803e3d6000fd5b505050506040513d60208110156119b757600080fd5b5051156119c357600080fd5b6006546040805160e260020a632920491f028152600160a060020a03888116600483015287811660248301529151919092169163a481247c916044808301926020929190829003018186803b158015611a1b57600080fd5b505afa158015611a2f573d6000803e3d6000fd5b505050506040513d6020811015611a4557600080fd5b50511515611a5257600080fd5b6006546040805160e260020a632920491f028152600160a060020a03888116600483015286811660248301529151919092169163a481247c916044808301926020929190829003018186803b158015611aaa57600080fd5b505afa158015611abe573d6000803e3d6000fd5b505050506040513d6020811015611ad457600080fd5b50511515611ae157600080fd5b611aec848484614a27565b95945050505050565b336000818152601060209081526040808320600160a060020a038716808552908352818420869055815186815291519394909390927f8c5be1e5ebec7d5bd14f71427d1e84f3dd0314c0f7b2291e5b200ac8c7c3b925928290030190a35060015b92915050565b600c5481565b6000806000806000806000611b75614c19565b935093509350935073__AOLibrary_____________________________63c35f4bbb896603fffffffffffc601e5488886040518663ffffffff1660e060020a028152600401808681526020018581526020018481526020018381526020018281526020019550505050505060206040518083038186803b158015611bf857600080fd5b505af4158015611c0c573d6000803e3d6000fd5b505050506040513d6020811015611c2257600080fd5b5051601e54604080517f7d3c3ac7000000000000000000000000000000000000000000000000000000008152600481018c90526603fffffffffffc6024820152604481019290925260648201859052608482018490525173__AOLibrary_____________________________91637d3c3ac79160a4808301926020929190829003018186803b158015611cb457600080fd5b505af4158015611cc8573d6000803e3d6000fd5b505050506040513d6020811015611cde57600080fd5b5051601e54604080517ff8e26025000000000000000000000000000000000000000000000000000000008152600481018d90526603fffffffffffc6024820152604481019290925260648201869052608482018590525173__AOLibrary_____________________________9163f8e260259160a4808301926020929190829003018186803b158015611d7057600080fd5b505af4158015611d84573d6000803e3d6000fd5b505050506040513d6020811015611d9a57600080fd5b5051919a90995090975095505050505050565b602654819060009060ff16158015611dcd57506603fffffffffffc601e54105b8015611ddb57506000602054115b8015611de75750600082115b8015611dfa57506000611df86132c1565b115b8015611ea65750808015611e1557506000611e136148af565b115b80611ea6575080158015611ea65750601c60009054906101000a9004600160a060020a0316600160a060020a03166318160ddd6040518163ffffffff1660e060020a02815260040160206040518083038186803b158015611e7557600080fd5b505afa158015611e89573d6000803e3d6000fd5b505050506040513d6020811015611e9f57600080fd5b5051602254105b1515611eb157600080fd5b6000806000611ec186600061510f565b9194509250905060008311611ed557600080fd5b8015611f12576026805460ff191660011790556040517ff39a948556de51164a82b6d174bdfa5d3006e0e4c261be48ddd5010c88e66d4090600090a15b6000611f24878463ffffffff614a1516565b602254909150611f3a908263ffffffff61523316565b602255601c54604080517fa144a3e0000000000000000000000000000000000000000000000000000000008152336004820152306024820152604481018490529051600160a060020a039092169163a144a3e0916064808201926020929091908290030181600087803b158015611fb057600080fd5b505af1158015611fc4573d6000803e3d6000fd5b505050506040513d6020811015611fda57600080fd5b50511515611fe757600080fd5b6000611ff38533615240565b6040805160028152602081018b90528082018790529051919250829133917f93e54450ea3b34de5171ce978678ebbda145946c245afccc3cc22161dcf8d4aa919081900360600190a35050505050505050565b3360009081526023602052604081205482111561206257600080fd5b8161206c336142a1565b101561207757600080fd5b6120813383613b1f565b336000908152602760209081526040808320939093556023905220546120ad908363ffffffff614a1516565b33600090815260236020526040902055601d546120d0908363ffffffff614a1516565b601d55601a543360008181526027602090815260408083205481517f30a331d1000000000000000000000000000000000000000000000000000000008152600481019590955260248501889052604485015251600160a060020a03909416936330a331d193606480820194918390030190829087803b15801561215257600080fd5b505af1158015612166573d6000803e3d6000fd5b505050506040513d602081101561217c57600080fd5b5051151561218957600080fd5b60408051838152905133917f8ca2ca4355ea7f1e1880fa3d5f2dc524f82297c88282d5d95badd4041b8a8edb919081900360200190a2506001919050565b601854600160a060020a031681565b602560209081526000928352604080842090915290825290205481565b600b5481565b3360009081526002602052604081205460ff16151560011461221a57600080fd5b600160a060020a03841660009081526023602052604090205483111561223f57600080fd5b600160a060020a038416600090815260276020526040902054821461226357600080fd5b600160a060020a03841660009081526023602052604090205461228c908463ffffffff614a1516565b600160a060020a03851660009081526023602090815260408083209390935560258152828220858352905220546122c9908463ffffffff61523316565b600160a060020a0385166000818152602560209081526040808320878452825291829020939093558051868152928301859052805191927fe62430bd00d68dd82de89addd3b7e4ce6bd50eb278f53dfb7fa7dac47643098d929081900390910190a25060015b9392505050565b601654600160a060020a031681565b6000546001546040805160e260020a633d9abf2b028152336004820152600160a060020a0393841660248201529290911660448301525173__AOLibrary_____________________________9163f66afcac916064808301926020929190829003018186803b1580156123b757600080fd5b505af41580156123cb573d6000803e3d6000fd5b505050506040513d60208110156123e157600080fd5b505115156123ee57600080fd5b600160a060020a038116151561240357600080fd5b60048054600160a060020a0319908116600160a060020a03938416179182905560078054929093169116179055565b600160a060020a038316600090815260106020908152604080832033845290915281205482111561246257600080fd5b600160a060020a03841660009081526010602090815260408083203384529091529020805483900390556124978484846153f5565b5060019392505050565b600160a060020a031660009081526027602052604090205490565b601f5481565b600a5460ff1681565b3360009081526002602052604081205460ff1615156001146124ec57600080fd5b600160a060020a0383166000908152600f602052604090205482111561251157600080fd5b600160a060020a0383166000908152600f602052604090205461253a908363ffffffff614a1516565b600160a060020a0384166000908152600f602090815260408083209390935560129052205461256f908363ffffffff61523316565b600160a060020a038416600081815260126020908152604091829020939093558051858152905191927febedb8b3c678666e7f36970bc8f57abf6d8fa2e828c0da91ea5b75bf68ed101a92918290030190a250600192915050565b60225481565b601a54604080517ff5bd48c4000000000000000000000000000000000000000000000000000000008152600160a060020a03848116600483015291516000938493169163f5bd48c4916024808301926020929190829003018186803b15801561263857600080fd5b505afa15801561264c573d6000803e3d6000fd5b505050506040513d602081101561266257600080fd5b505111612670576000611b56565b50600160a060020a031660009081526028602052604090205490565b3360009081526002602052604081205460ff1615156001146126ad57600080fd5b6126b783836155de565b50600192915050565b336000908152600f60205260408120548211156126dc57600080fd5b336000818152600f602090815260409182902080548690039055600b80548690039055815185815291517fcc16f5dbb4873280815c1ee09dbd06736cffcc184412cf7a71a0fdb75d397ca59281900390910190a2506001919050565b600d5481565b600154600160a060020a031681565b60136020526000908152604090205481565b6000546001546040805160e260020a633d9abf2b028152336004820152600160a060020a0393841660248201529290911660448301525173__AOLibrary_____________________________9163f66afcac916064808301926020929190829003018186803b1580156127d157600080fd5b505af41580156127e5573d6000803e3d6000fd5b505050506040513d60208110156127fb57600080fd5b5051151561280857600080fd5b600160a060020a038216151561281d57600080fd5b600160a060020a03919091166000908152600260205260409020805460ff1916911515919091179055565b60236020526000908152604090205481565b6000546001546040805160e260020a633d9abf2b028152336004820152600160a060020a0393841660248201529290911660448301525173__AOLibrary_____________________________9163f66afcac916064808301926020929190829003018186803b1580156128cc57600080fd5b505af41580156128e0573d6000803e3d6000fd5b505050506040513d60208110156128f657600080fd5b5051151561290357600080fd5b600160a060020a038116151561291857600080fd5b60018054600160a060020a0319908116600160a060020a03938416179182905560058054929093169116179055565b60126020526000908152604090205481565b6000546001546040805160e260020a633d9abf2b028152336004820152600160a060020a0393841660248201529290911660448301525173__AOLibrary_____________________________9163f66afcac916064808301926020929190829003018186803b1580156129cb57600080fd5b505af41580156129df573d6000803e3d6000fd5b505050506040513d60208110156129f557600080fd5b50511515612a0257600080fd5b60265460ff1615612a1257600080fd5b6026805460ff191660011790556040517ff39a948556de51164a82b6d174bdfa5d3006e0e4c261be48ddd5010c88e66d4090600090a1565b6603fffffffffffc81565b6000546001546040805160e260020a633d9abf2b028152336004820152600160a060020a0393841660248201529290911660448301525173__AOLibrary_____________________________9163f66afcac916064808301926020929190829003018186803b158015612ac757600080fd5b505af4158015612adb573d6000803e3d6000fd5b505050506040513d6020811015612af157600080fd5b50511515612afe57600080fd5b600160a060020a0381161515612b1357600080fd5b60038054600160a060020a0319908116600160a060020a03938416179182905560068054929093169116179055565b600f6020526000908152604090205481565b60205481565b3360009081526002602052604081205460ff161515600114612b7b57600080fd5b600160a060020a038316600090815260126020526040902054821115612ba057600080fd5b600160a060020a038316600090815260126020526040902054612bc9908363ffffffff614a1516565b600160a060020a038416600090815260126020908152604080832093909355600f90522054612bfe908363ffffffff61523316565b600160a060020a0384166000818152600f6020908152604091829020939093558051858152905191927f85082129d87b2fe11527cb1b3b7a520aeb5aa6913f88a3d8757fe40d1db02fdd92918290030190a250600192915050565b600160a060020a0382166000908152600f6020526040812054821115612c7e57600080fd5b600160a060020a0383166000908152601060209081526040808320338452909152902054821115612cae57600080fd5b600160a060020a0383166000818152600f60209081526040808320805487900390556010825280832033845282529182902080548690039055600b80548690039055815185815291517fcc16f5dbb4873280815c1ee09dbd06736cffcc184412cf7a71a0fdb75d397ca59281900390910190a250600192915050565b600073__AOLibrary_____________________________632d706a34866040518263ffffffff1660e060020a0281526004018082600160a060020a0316600160a060020a0316815260200191505060206040518083038186803b158015612d9057600080fd5b505af4158015612da4573d6000803e3d6000fd5b505050506040513d6020811015612dba57600080fd5b50511515612dc757600080fd5b600554604080517f71ce52ed000000000000000000000000000000000000000000000000000000008152336004820152600160a060020a038881166024830152915191909216916371ce52ed916044808301926020929190829003018186803b158015612e3357600080fd5b505afa158015612e47573d6000803e3d6000fd5b505050506040513d6020811015612e5d57600080fd5b50511515612e6a57600080fd5b600754604080517f3ebc2ab3000000000000000000000000000000000000000000000000000000008152600160a060020a03888116600483015291519190921691633ebc2ab3916024808301926020929190829003018186803b158015612ed057600080fd5b505afa158015612ee4573d6000803e3d6000fd5b505050506040513d6020811015612efa57600080fd5b505115612f0657600080fd5b6006546040805160e260020a632920491f028152600160a060020a03888116600483015287811660248301529151919092169163a481247c916044808301926020929190829003018186803b158015612f5e57600080fd5b505afa158015612f72573d6000803e3d6000fd5b505050506040513d6020811015612f8857600080fd5b50511515612f9557600080fd5b6006546040805160e260020a632920491f028152600160a060020a03888116600483015286811660248301529151919092169163a481247c916044808301926020929190829003018186803b158015612fed57600080fd5b505afa158015613001573d6000803e3d6000fd5b505050506040513d602081101561301757600080fd5b5051151561302457600080fd5b61302f8484846153f5565b506001949350505050565b601d5481565b600e5481565b3360009081526002602052604081205460ff16151560011461306757600080fd5b600160a060020a0384166000908152600f602052604090205482111561308c57600080fd5b600160a060020a0384166000908152600f60205260409020546130b5908363ffffffff614a1516565b600160a060020a038086166000908152600f60209081526040808320949094559186168152601390915220546130f1908363ffffffff61523316565b600160a060020a0380851660008181526013602090815260409182902094909455805186815290519193928816927f812c3251d8b2cd027716a7651ace6f9167d7fba4db9eb10df2e0cfe8b7fa48c992918290030190a35060019392505050565b3360009081526002602052604081205460ff16151560011461317357600080fd5b600160a060020a03831660009081526013602052604090205482111561319857600080fd5b600160a060020a0383166000908152601360205260409020546131c1908363ffffffff614a1516565b600160a060020a038416600090815260136020908152604080832093909355600f905220546131f6908363ffffffff61523316565b600160a060020a0384166000818152600f6020908152604091829020939093558051858152905191927f85538b0b045118ba300aa14d9701eab875903dd2976d62d855ec959a3e6cffb192918290030190a250600192915050565b6009805460408051602060026001851615610100026000190190941693909304601f810184900484028201840190925281815292918301828280156117df5780601f106117b4576101008083540402835291602001916117df565b60026020526000908152604090205460ff1681565b60006115b56020546132d1611597565b9063ffffffff6156b216565b3360009081526002602052604081205460ff1615156001146132fe57600080fd5b613309848484614a27565b949350505050565b3360009081526002602052604081205460ff16151560011461333257600080fd5b6124978484846153f5565b60215481565b600454600160a060020a031681565b60265460ff1681565b600e5460001061336a57600080fd5b6000613381600e54346156db90919063ffffffff16565b905061338e3033836153f5565b50565b60006126b73384846153f5565b6000546001546040805160e260020a633d9abf2b028152336004820152600160a060020a0393841660248201529290911660448301525173__AOLibrary_____________________________9163f66afcac916064808301926020929190829003018186803b15801561341057600080fd5b505af4158015613424573d6000803e3d6000fd5b505050506040513d602081101561343a57600080fd5b5051151561344757600080fd5b601f91909155602055565b601954600160a060020a031681565b600054600160a060020a031681565b601454600160a060020a031681565b601e5481565b600160a060020a03831660009081526024602090815260408083203384529091528120548211156134b557600080fd5b600160a060020a03841660009081526024602090815260408083203384529091529020546134e9908363ffffffff614a1516565b600160a060020a0385166000908152602460209081526040808320338452909152902055613309848484614a27565b3360009081526002602052604081205460ff16151560011461353957600080fd5b600160a060020a0383166000908152600f602052604090205482111561355e57600080fd5b600160a060020a0383166000908152600f6020526040902054613587908363ffffffff614a1516565b600160a060020a0384166000908152600f6020526040902055600b546135b3908363ffffffff614a1516565b600b55604080518381529051600160a060020a038516917fcc16f5dbb4873280815c1ee09dbd06736cffcc184412cf7a71a0fdb75d397ca5919081900360200190a250600192915050565b6000546001546040805160e260020a633d9abf2b028152336004820152600160a060020a0393841660248201529290911660448301525173__AOLibrary_____________________________9163f66afcac916064808301926020929190829003018186803b15801561367057600080fd5b505af4158015613684573d6000803e3d6000fd5b505050506040513d602081101561369a57600080fd5b505115156136a757600080fd5b60188054600160a060020a03938416600160a060020a03199182161790915560198054929093169116179055565b60116020526000908152604090205460ff1681565b600061232f338484614a27565b600160a060020a03821660009081526023602052604081205482111561371c57600080fd5b600160a060020a038316600090815260246020908152604080832033845290915290205482111561374c57600080fd5b81613756846142a1565b101561376157600080fd5b61376b8383613b1f565b600160a060020a0384166000908152602760209081526040808320939093556023905220546137a0908363ffffffff614a1516565b600160a060020a03841660009081526023602090815260408083209390935560248152828220338352905220546137dd908363ffffffff614a1516565b600160a060020a0384166000908152602460209081526040808320338452909152902055601d54613814908363ffffffff614a1516565b601d55601a54600160a060020a0384811660008181526027602090815260408083205481517f30a331d100000000000000000000000000000000000000000000000000000000815260048101959095526024850189905260448501525193909416936330a331d193606480850194929391928390030190829087803b15801561389c57600080fd5b505af11580156138b0573d6000803e3d6000fd5b505050506040513d60208110156138c657600080fd5b505115156138d357600080fd5b604080518381529051600160a060020a038516917f8ca2ca4355ea7f1e1880fa3d5f2dc524f82297c88282d5d95badd4041b8a8edb919081900360200190a250600192915050565b6000836139288185611af5565b15613a31576040517f8f4ffcb10000000000000000000000000000000000000000000000000000000081523360048201818152602483018790523060448401819052608060648501908152875160848601528751600160a060020a03871695638f4ffcb195948b94938b939192909160a490910190602085019080838360005b838110156139c05781810151838201526020016139a8565b50505050905090810190601f1680156139ed5780820380516001836020036101000a031916815260200191505b5095505050505050600060405180830381600087803b158015613a0f57600080fd5b505af1158015613a23573d6000803e3d6000fd5b50505050600191505061232f565b509392505050565b600160a060020a038216600090815260236020908152604080832054602783528184205482517f7fbc9c550000000000000000000000000000000000000000000000000000000081526004810192909252602482015260448101859052905173__AOLibrary_____________________________92637fbc9c559260648082019391829003018186803b158015613acf57600080fd5b505af4158015613ae3573d6000803e3d6000fd5b505050506040513d6020811015613af957600080fd5b50519392505050565b602460209081526000928352604080842090915290825290205481565b600081613b2b846142a1565b1015613b3657600080fd5b600160a060020a03831660009081526023602090815260408083205460278352928190205481517f32363e0a00000000000000000000000000000000000000000000000000000000815260048101949094526024840152604483018590525173__AOLibrary_____________________________926332363e0a926064808301939192829003018186803b158015613acf57600080fd5b6000546001546040805160e260020a633d9abf2b028152336004820152600160a060020a0393841660248201529290911660448301525173__AOLibrary_____________________________9163f66afcac916064808301926020929190829003018186803b158015613c3f57600080fd5b505af4158015613c53573d6000803e3d6000fd5b505050506040513d6020811015613c6957600080fd5b50511515613c7657600080fd5b600160a060020a0381161515613c8b57600080fd5b60178054600160a060020a03909216600160a060020a03199283168117909155601c8054909216179055565b6000546001546040805160e260020a633d9abf2b028152336004820152600160a060020a0393841660248201529290911660448301525173__AOLibrary_____________________________9163f66afcac916064808301926020929190829003018186803b158015613d2957600080fd5b505af4158015613d3d573d6000803e3d6000fd5b505050506040513d6020811015613d5357600080fd5b50511515613d6057600080fd5b600160a060020a0381161515613d7557600080fd5b60148054600160a060020a03909216600160a060020a03199283168117909155601a8054909216179055565b6000546001546040805160e260020a633d9abf2b028152336004820152600160a060020a0393841660248201529290911660448301525173__AOLibrary_____________________________9163f66afcac916064808301926020929190829003018186803b158015613e1357600080fd5b505af4158015613e27573d6000803e3d6000fd5b505050506040513d6020811015613e3d57600080fd5b50511515613e4a57600080fd5b604080517f2fca5414000000000000000000000000000000000000000000000000000000008152600160a060020a0383166004820152905173__AOLibrary_____________________________91632fca5414916024808301926020929190829003018186803b158015613ebd57600080fd5b505af4158015613ed1573d6000803e3d6000fd5b505050506040513d6020811015613ee757600080fd5b50511515613ef457600080fd5b60158054600160a060020a031916600160a060020a0392909216919091179055565b3360009081526002602052604081205460ff161515600114613f3757600080fd5b600160a060020a038316600090815260136020526040902054613f60908363ffffffff61523316565b600160a060020a038416600090815260136020526040902055600b54613f8c908363ffffffff61523316565b600b55604080518381529051600160a060020a0385169130917f812c3251d8b2cd027716a7651ace6f9167d7fba4db9eb10df2e0cfe8b7fa48c99181900360200190a350600192915050565b600354600160a060020a031681565b601060209081526000928352604080842090915290825290205481565b600d5460001061401357600080fd5b600d54309061402990839063ffffffff6156b216565b600160a060020a03821631101561403f57600080fd5b61404a3330846153f5565b600d5433906108fc9061406490859063ffffffff6156b216565b6040518115909202916000818181858888f1935050505015801561408c573d6000803e3d6000fd5b505050565b6000546001546040805160e260020a633d9abf2b028152336004820152600160a060020a0393841660248201529290911660448301525173__AOLibrary_____________________________9163f66afcac916064808301926020929190829003018186803b15801561410357600080fd5b505af4158015614117573d6000803e3d6000fd5b505050506040513d602081101561412d57600080fd5b5051151561413a57600080fd5b600160a060020a038216600081815260116020908152604091829020805460ff191685151590811790915582519384529083015280517f48335238b4855f35377ed80f164e8c6f3c366e54ac00b96a6402d4a9814a03a59281900390910190a15050565b601554600160a060020a031681565b6000546001546040805160e260020a633d9abf2b028152336004820152600160a060020a0393841660248201529290911660448301525173__AOLibrary_____________________________9163f66afcac916064808301926020929190829003018186803b15801561421f57600080fd5b505af4158015614233573d6000803e3d6000fd5b505050506040513d602081101561424957600080fd5b5051151561425657600080fd5b600160a060020a038216151561426b57600080fd5b604051600160a060020a0383169082156108fc029083906000818181858888f1935050505015801561408c573d6000803e3d6000fd5b600160a060020a0381166000908152602360209081526040808320546027835281842054602884528285205483517f4d5a1173000000000000000000000000000000000000000000000000000000008152600481019390935260248301919091526044820152905173__AOLibrary_____________________________92634d5a11739260648082019391829003018186803b15801561434057600080fd5b505af4158015614354573d6000803e3d6000fd5b505050506040513d602081101561436a57600080fd5b505192915050565b60008361392881856149af565b6000546001546040805160e260020a633d9abf2b028152336004820152600160a060020a0393841660248201529290911660448301525173__AOLibrary_____________________________9163f66afcac916064808301926020929190829003018186803b1580156143f157600080fd5b505af4158015614405573d6000803e3d6000fd5b505050506040513d602081101561441b57600080fd5b5051151561442857600080fd5b600160a060020a038116151561443d57600080fd5b60008054600160a060020a031916600160a060020a0392909216919091179055565b3360009081526002602052604081205460ff16151560011461448057600080fd5b600160a060020a03841660009081526025602090815260408083208584529091529020548311156144b057600080fd5b600160a060020a03841660009081526025602090815260408083208584529091529020546144e4908463ffffffff614a1516565b600160a060020a038516600081815260256020908152604080832087845282528083209490945591815260239091522054614525908463ffffffff61523316565b600160a060020a038516600081815260236020908152604091829020939093558051868152928301859052805191927f7bcdc377a1fa8b0dd654d64d7337143be4ce1250ada31f3b1cdac27dea65d3a3929081900390910190a25060019392505050565b602654349060019060ff161580156145a957506603fffffffffffc601e54105b80156145b757506000602054115b80156145c35750600082115b80156145d6575060006145d46132c1565b115b801561468257508080156145f1575060006145ef6148af565b115b806146825750801580156146825750601c60009054906101000a9004600160a060020a0316600160a060020a03166318160ddd6040518163ffffffff1660e060020a02815260040160206040518083038186803b15801561465157600080fd5b505afa158015614665573d6000803e3d6000fd5b505050506040513d602081101561467b57600080fd5b5051602254105b151561468d57600080fd5b600080600061469d34600161510f565b91945092509050600083116146b157600080fd5b80156146ee576026805460ff191660011790556040517ff39a948556de51164a82b6d174bdfa5d3006e0e4c261be48ddd5010c88e66d4090600090a15b614710614701348463ffffffff614a1516565b6021549063ffffffff61523316565b602155600061471f8433615240565b60408051600181523460208201528082018690529051919250829133917f93e54450ea3b34de5171ce978678ebbda145946c245afccc3cc22161dcf8d4aa919081900360600190a3600083111561479f57604051339084156108fc029085906000818181858888f1935050505015801561479d573d6000803e3d6000fd5b505b505050505050565b336000908152600f60205260408120548211156147c357600080fd5b6147cd3383613a39565b336000908152602760205260409020556147e6826126c0565b506147f133836156f0565b601a543360008181526027602090815260408083205481517f424cfd21000000000000000000000000000000000000000000000000000000008152600481019590955260248501889052604485015251600160a060020a039094169363424cfd2193606480820194918390030190829087803b15801561487057600080fd5b505af1158015614884573d6000803e3d6000fd5b505050506040513d602081101561489a57600080fd5b505115156148a757600080fd5b506001919050565b6000806148ba6132c1565b1115614998576000614968614954602254601c60009054906101000a9004600160a060020a0316600160a060020a03166318160ddd6040518163ffffffff1660e060020a02815260040160206040518083038186803b15801561491c57600080fd5b505afa158015614930573d6000803e3d6000fd5b505050506040513d602081101561494657600080fd5b50519063ffffffff614a1516565b61495c6132c1565b9063ffffffff614a1516565b9050614972611597565b6001148015614982575060205481105b156149915750506020546115b8565b90506115b8565b5060006115b8565b601754600160a060020a031681565b336000818152602460209081526040808320600160a060020a038716808552908352818420869055815186815291519394909390927f199f64ba6278b91ed8e7f45335d9fdbfa2d094b1fdc34465229e79047fcea3ce928290030190a350600192915050565b600082821115614a2157fe5b50900390565b600160a060020a0383166000908152602760205260408120548190614a4f90859085906157c4565b601a54604080517f080e74f7000000000000000000000000000000000000000000000000000000008152600481018490529051929350600092600160a060020a039092169163080e74f791602480820192608092909190829003018186803b158015614aba57600080fd5b505afa158015614ace573d6000803e3d6000fd5b505050506040513d6080811015614ae457600080fd5b50602001519050600160a060020a0380821690861614614b0357600080fd5b600160a060020a038086166000908152602760208181526040808420546023835281852054958c168552928252928390205483517f8cf3313f00000000000000000000000000000000000000000000000000000000815260048101939093526024830194909452604482019390935260648101879052905173__AOLibrary_____________________________92638cf3313f9260848082019391829003018186803b158015614bb257600080fd5b505af4158015614bc6573d6000803e3d6000fd5b505050506040513d6020811015614bdc57600080fd5b5051600160a060020a038616600090815260276020526040902055614c0286868661594c565b1515614c0d57600080fd5b50600195945050505050565b601b546015546040805160e260020a631c196fb7028152600160a060020a03928316600482015260248101829052601c60448201527f7374617274696e675072696d6f726469616c4d756c7469706c696572000000006064820152905160009384938493849384939290921691637065bedc916084808201928692909190829003018186803b158015614cab57600080fd5b505afa158015614cbf573d6000803e3d6000fd5b505050506040513d6000823e601f3d908101601f1916820160405260a0811015614ce857600080fd5b815160208301516040840151606085015160808601805194969395929491939283019291640100000000811115614d1e57600080fd5b82016020810184811115614d3157600080fd5b8151640100000000811182820187101715614d4b57600080fd5b5050601b546015546040805160e260020a631c196fb7028152600160a060020a03928316600482015260248101829052601a60448201527f656e64696e675072696d6f726469616c4d756c7469706c696572000000000000606482015290519a9b5060009a919092169850637065bedc9750608480830197508a96509094509084900301915082905086803b158015614de357600080fd5b505afa158015614df7573d6000803e3d6000fd5b505050506040513d6000823e601f3d908101601f1916820160405260a0811015614e2057600080fd5b815160208301516040840151606085015160808601805194969395929491939283019291640100000000811115614e5657600080fd5b82016020810184811115614e6957600080fd5b8151640100000000811182820187101715614e8357600080fd5b5050601b546015546040805160e260020a631c196fb7028152600160a060020a03928316600482015260248101829052601e60448201527f7374617274696e674e6574776f726b426f6e75734d756c7469706c6965720000606482015290519a9b5060009a919092169850637065bedc9750608480830197508a96509094509084900301915082905086803b158015614f1b57600080fd5b505afa158015614f2f573d6000803e3d6000fd5b505050506040513d6000823e601f3d908101601f1916820160405260a0811015614f5857600080fd5b815160208301516040840151606085015160808601805194969395929491939283019291640100000000811115614f8e57600080fd5b82016020810184811115614fa157600080fd5b8151640100000000811182820187101715614fbb57600080fd5b5050601b546015546040805160e260020a631c196fb7028152600160a060020a03928316600482015260248101829052601c60448201527f656e64696e674e6574776f726b426f6e75734d756c7469706c69657200000000606482015290519a9b5060009a919092169850637065bedc9750608480830197508a96509094509084900301915082905086803b15801561505357600080fd5b505afa158015615067573d6000803e3d6000fd5b505050506040513d6000823e601f3d908101601f1916820160405260a081101561509057600080fd5b8151602083015160408401516060850151608086018051949693959294919392830192916401000000008111156150c657600080fd5b820160208101848111156150d957600080fd5b81516401000000008111828201871017156150f357600080fd5b509b9f50999d50979b5094995050505050505050505090919293565b60008060008061512a602054876156db90919063ffffffff16565b90506000615153615146602054846156b290919063ffffffff16565b889063ffffffff614a1516565b9050600061515f6148af565b905086801561517457506151716148af565b88115b156151b75760205461518d90829063ffffffff6156db16565b92506151b46151a7602054856156b290919063ffffffff16565b899063ffffffff614a1516565b91505b601e546000906603fffffffffffc906151d6908663ffffffff61523316565b1061522457601e546151f6906603fffffffffffc9063ffffffff614a1516565b935060019050615221615214602054866156b290919063ffffffff16565b8a9063ffffffff614a1516565b92505b92989197509195509350505050565b81810182811015611b5657fe5b60008060008061524e614c19565b93509350509250600080600061526389611b62565b92509250925061527e89601e5461523390919063ffffffff16565b601e55600061528f898b8685615b31565b905060006152a3888663ffffffff614a1516565b9050600061534d73__AOLibrary_____________________________63caf297656040518163ffffffff1660e060020a02815260040160206040518083038186803b1580156152f157600080fd5b505af4158015615305573d6000803e3d6000fd5b505050506040513d602081101561531b57600080fd5b50516153418e6132d18b6153358e8c63ffffffff614a1516565b9063ffffffff61523316565b9063ffffffff6156db16565b601854909150600160a060020a03161561539b5760185461539990600160a060020a03166153828e600263ffffffff6156db16565b8461539485600263ffffffff6156db16565b615b31565b505b601954600160a060020a0316156153cf576019546153cd90600160a060020a03166153828e600263ffffffff6156db16565b505b6000546153e590600160a060020a0316826155de565b50909a9950505050505050505050565b600160a060020a038216151561540a57600080fd5b600160a060020a0383166000908152600f602052604090205481111561542f57600080fd5b600160a060020a0382166000908152600f6020526040902054615458818363ffffffff61523316565b101561546357600080fd5b600160a060020a03831660009081526011602052604090205460ff161561548957600080fd5b600160a060020a03821660009081526011602052604090205460ff16156154af57600080fd5b600160a060020a038083166000908152600f602052604080822054928616825281205490916154e4919063ffffffff61523316565b600160a060020a0385166000908152600f6020526040902054909150615510908363ffffffff614a1516565b600160a060020a038086166000908152600f60205260408082209390935590851681522054615545908363ffffffff61523316565b600160a060020a038085166000818152600f602090815260409182902094909455805186815290519193928816927fddf252ad1be2c89b69c2b068fc378daa952ba7f163c4a11628f55a4df523b3ef92918290030190a3600160a060020a038084166000908152600f602052604080822054928716825290205482916155d1919063ffffffff61523316565b146155d857fe5b50505050565b600160a060020a0382166000908152600f6020526040902054615607908263ffffffff61523316565b600160a060020a0383166000908152600f6020526040902055600b54615633908263ffffffff61523316565b600b5560408051828152905130916000917fddf252ad1be2c89b69c2b068fc378daa952ba7f163c4a11628f55a4df523b3ef9181900360200190a3604080518281529051600160a060020a0384169130917fddf252ad1be2c89b69c2b068fc378daa952ba7f163c4a11628f55a4df523b3ef9181900360200190a35050565b60008215156156c357506000611b56565b508181028183828115156156d357fe5b0414611b5657fe5b600081838115156156e857fe5b049392505050565b600160a060020a038216600090815260236020526040902054615719908263ffffffff61523316565b600160a060020a038316600090815260236020526040902055601d54615745908263ffffffff61523316565b601d5560408051828152905130916000917fa906a7bdab67ba77819fbd926440353e67b66c398aaeffd1fd212ddae941bbe29181900360200190a3604080518281529051600160a060020a0384169130917fa906a7bdab67ba77819fbd926440353e67b66c398aaeffd1fd212ddae941bbe29181900360200190a35050565b6000600160a060020a03841615156157db57600080fd5b600083116157e857600080fd5b601a54604080517f28948e5b000000000000000000000000000000000000000000000000000000008152600160a060020a0387811660048301526024820187905260448201869052915160009392909216916328948e5b9160648082019260209290919082900301818787803b15801561586157600080fd5b505af1158015615875573d6000803e3d6000fd5b505050506040513d602081101561588b57600080fd5b5051601a54604080517ff5bd48c4000000000000000000000000000000000000000000000000000000008152600160a060020a038981166004830152915193945091169163f5bd48c491602480820192602092909190829003018186803b1580156158f557600080fd5b505afa158015615909573d6000803e3d6000fd5b505050506040513d602081101561591f57600080fd5b50516001141561330957600160a060020a0385166000908152602860205260409020839055949350505050565b6000600160a060020a038316151561596357600080fd5b600160a060020a03841660009081526023602052604090205482111561598857600080fd5b600160a060020a0383166000908152602360205260409020546159b1818463ffffffff61523316565b10156159bc57600080fd5b600160a060020a03841660009081526011602052604090205460ff16156159e257600080fd5b600160a060020a03831660009081526011602052604090205460ff1615615a0857600080fd5b600160a060020a038084166000908152602360205260408082205492871682528120549091615a3d919063ffffffff61523316565b600160a060020a038616600090815260236020526040902054909150615a69908463ffffffff614a1516565b600160a060020a038087166000908152602360205260408082209390935590861681522054615a9e908463ffffffff61523316565b600160a060020a0380861660008181526023602090815260409182902094909455805187815290519193928916927fa906a7bdab67ba77819fbd926440353e67b66c398aaeffd1fd212ddae941bbe292918290030190a3600160a060020a038085166000908152602360205260408082205492881682529020548291615b2a919063ffffffff61523316565b1461302f57fe5b601a54604080517fd9c93ccd000000000000000000000000000000000000000000000000000000008152600160a060020a03878116600483015260248201879052604482018690526064820185905291516000938493169163d9c93ccd91608480830192602092919082900301818787803b158015615baf57600080fd5b505af1158015615bc3573d6000803e3d6000fd5b505050506040513d6020811015615bd957600080fd5b5051600160a060020a03871660009081526027602090815260408083205460238352928190205481517f8cf3313f0000000000000000000000000000000000000000000000000000000081526004810194909452602484015260448301889052606483018990525192935073__AOLibrary_____________________________92638cf3313f926084808201939291829003018186803b158015615c7c57600080fd5b505af4158015615c90573d6000803e3d6000fd5b505050506040513d6020811015615ca657600080fd5b5051600160a060020a0380881660008181526027602090815260409182902094909455601a5481517ff5bd48c40000000000000000000000000000000000000000000000000000000081526004810193909352905192169263f5bd48c492602480840193829003018186803b158015615d1e57600080fd5b505afa158015615d32573d6000803e3d6000fd5b505050506040513d6020811015615d4857600080fd5b505160011415615d6e57600160a060020a03861660009081526028602052604090208490555b615d7886866156f0565b611aec86846155de56fea165627a7a72305820e54a3a87b19b571782d42166f69218ffd4829b15fd9883984592fd1113ce842c0029",
	"source": "pragma solidity >=0.5.4 <0.6.0;\n\nimport './SafeMath.sol';\nimport './AOLibrary.sol';\nimport './AOIonInterface.sol';\nimport './IAOIonLot.sol';\nimport './tokenRecipient.sol';\nimport './IAOSetting.sol';\nimport './AOETH.sol';\n\n/**\n * @title AOIon\n */\ncontract AOIon is AOIonInterface {\n\tusing SafeMath for uint256;\n\n\taddress public aoIonLotAddress;\n\taddress public settingTAOId;\n\taddress public aoSettingAddress;\n\taddress public aoethAddress;\n\n\t// AO Dev Team addresses to receive Primordial/Network Ions\n\taddress public aoDevTeam1 = 0x5C63644D01Ba385eBAc5bcf2DDc1e6dBC1182b52;\n\taddress public aoDevTeam2 = 0x156C79bf4347D1891da834Ea30662A14177CbF28;\n\n\tIAOIonLot internal _aoIonLot;\n\tIAOSetting internal _aoSetting;\n\tAOETH internal _aoeth;\n\n\t/***** PRIMORDIAL ION VARIABLES *****/\n\tuint256 public primordialTotalSupply;\n\tuint256 public primordialTotalBought;\n\tuint256 public primordialSellPrice;\n\tuint256 public primordialBuyPrice;\n\tuint256 public totalEthForPrimordial;\t// Total ETH sent for Primordial AO+\n\tuint256 public totalRedeemedAOETH;\t\t// Total AOETH redeemed for Primordial AO+\n\n\t// Total available primordial ion for sale 1,125,899,906,842,620 AO+\n\tuint256 constant public TOTAL_PRIMORDIAL_FOR_SALE = 1125899906842620;\n\n\tmapping (address => uint256) public primordialBalanceOf;\n\tmapping (address => mapping (address => uint256)) public primordialAllowance;\n\n\t// Mapping from owner's lot weighted multiplier to the amount of staked ions\n\tmapping (address => mapping (uint256 => uint256)) public primordialStakedBalance;\n\n\tevent PrimordialTransfer(address indexed from, address indexed to, uint256 value);\n\tevent PrimordialApproval(address indexed _owner, address indexed _spender, uint256 _value);\n\tevent PrimordialBurn(address indexed from, uint256 value);\n\tevent PrimordialStake(address indexed from, uint256 value, uint256 weightedMultiplier);\n\tevent PrimordialUnstake(address indexed from, uint256 value, uint256 weightedMultiplier);\n\n\tevent NetworkExchangeEnded();\n\n\tbool public networkExchangeEnded;\n\n\t// Mapping from owner to his/her current weighted multiplier\n\tmapping (address => uint256) internal ownerWeightedMultiplier;\n\n\t// Mapping from owner to his/her max multiplier (multiplier of account's first Lot)\n\tmapping (address => uint256) internal ownerMaxMultiplier;\n\n\t// Event to be broadcasted to public when user buys primordial ion\n\t// payWith 1 == with Ethereum\n\t// payWith 2 == with AOETH\n\tevent BuyPrimordial(address indexed lotOwner, bytes32 indexed lotId, uint8 payWith, uint256 sentAmount, uint256 refundedAmount);\n\n\t/**\n\t * @dev Constructor function\n\t */\n\tconstructor(string memory _name, string memory _symbol, address _settingTAOId, address _aoSettingAddress, address _nameTAOPositionAddress, address _namePublicKeyAddress, address _nameAccountRecoveryAddress)\n\t\tAOIonInterface(_name, _symbol, _nameTAOPositionAddress, _namePublicKeyAddress, _nameAccountRecoveryAddress) public {\n\t\tsetSettingTAOId(_settingTAOId);\n\t\tsetAOSettingAddress(_aoSettingAddress);\n\n\t\tpowerOfTen = 0;\n\t\tdecimals = 0;\n\t\tsetPrimordialPrices(0, 10000); // Set Primordial buy price to 10000 Wei/ion\n\t}\n\n\t/**\n\t * @dev Checks if buyer can buy primordial ion\n\t */\n\tmodifier canBuyPrimordial(uint256 _sentAmount, bool _withETH) {\n\t\trequire (networkExchangeEnded == false &&\n\t\t\tprimordialTotalBought < TOTAL_PRIMORDIAL_FOR_SALE &&\n\t\t\tprimordialBuyPrice > 0 &&\n\t\t\t_sentAmount > 0 &&\n\t\t\tavailablePrimordialForSaleInETH() > 0 &&\n\t\t\t(\n\t\t\t\t(_withETH && availableETH() > 0) ||\n\t\t\t\t(!_withETH && totalRedeemedAOETH < _aoeth.totalSupply())\n\t\t\t)\n\t\t);\n\t\t_;\n\t}\n\n\t/***** The AO ONLY METHODS *****/\n\t/**\n\t * @dev The AO sets AOIonLot address\n\t * @param _aoIonLotAddress The address of AOIonLot\n\t */\n\tfunction setAOIonLotAddress(address _aoIonLotAddress) public onlyTheAO {\n\t\trequire (_aoIonLotAddress != address(0));\n\t\taoIonLotAddress = _aoIonLotAddress;\n\t\t_aoIonLot = IAOIonLot(_aoIonLotAddress);\n\t}\n\n\t/**\n\t * @dev The AO sets setting TAO ID\n\t * @param _settingTAOId The new setting TAO ID to set\n\t */\n\tfunction setSettingTAOId(address _settingTAOId) public onlyTheAO {\n\t\trequire (AOLibrary.isTAO(_settingTAOId));\n\t\tsettingTAOId = _settingTAOId;\n\t}\n\n\t/**\n\t * @dev The AO sets AO Setting address\n\t * @param _aoSettingAddress The address of AOSetting\n\t */\n\tfunction setAOSettingAddress(address _aoSettingAddress) public onlyTheAO {\n\t\trequire (_aoSettingAddress != address(0));\n\t\taoSettingAddress = _aoSettingAddress;\n\t\t_aoSetting = IAOSetting(_aoSettingAddress);\n\t}\n\n\t/**\n\t * @dev Set AO Dev team addresses to receive Primordial/Network ions during network exchange\n\t * @param _aoDevTeam1 The first AO dev team address\n\t * @param _aoDevTeam2 The second AO dev team address\n\t */\n\tfunction setAODevTeamAddresses(address _aoDevTeam1, address _aoDevTeam2) public onlyTheAO {\n\t\taoDevTeam1 = _aoDevTeam1;\n\t\taoDevTeam2 = _aoDevTeam2;\n\t}\n\n\t/**\n\t * @dev Set AOETH address\n\t * @param _aoethAddress The address of AOETH\n\t */\n\tfunction setAOETHAddress(address _aoethAddress) public onlyTheAO {\n\t\trequire (_aoethAddress != address(0));\n\t\taoethAddress = _aoethAddress;\n\t\t_aoeth = AOETH(_aoethAddress);\n\t}\n\n\t/***** PRIMORDIAL ION THE AO ONLY METHODS *****/\n\t/**\n\t * @dev Allow users to buy Primordial ions for `newBuyPrice` eth and sell Primordial ions for `newSellPrice` eth\n\t * @param newPrimordialSellPrice Price users can sell to the contract\n\t * @param newPrimordialBuyPrice Price users can buy from the contract\n\t */\n\tfunction setPrimordialPrices(uint256 newPrimordialSellPrice, uint256 newPrimordialBuyPrice) public onlyTheAO {\n\t\tprimordialSellPrice = newPrimordialSellPrice;\n\t\tprimordialBuyPrice = newPrimordialBuyPrice;\n\t}\n\n\t/**\n\t * @dev Only the AO can force end network exchange\n\t */\n\tfunction endNetworkExchange() public onlyTheAO {\n\t\trequire (!networkExchangeEnded);\n\t\tnetworkExchangeEnded = true;\n\t\temit NetworkExchangeEnded();\n\t}\n\n\t/***** PRIMORDIAL ION WHITELISTED ADDRESS ONLY METHODS *****/\n\t/**\n\t * @dev Stake `_value` Primordial ions at `_weightedMultiplier ` multiplier on behalf of `_from`\n\t * @param _from The address of the target\n\t * @param _value The amount of Primordial ions to stake\n\t * @param _weightedMultiplier The weighted multiplier of the Primordial ions\n\t * @return true on success\n\t */\n\tfunction stakePrimordialFrom(address _from, uint256 _value, uint256 _weightedMultiplier) public inWhitelist returns (bool) {\n\t\t// Check if the targeted balance is enough\n\t\trequire (primordialBalanceOf[_from] >= _value);\n\t\t// Make sure the weighted multiplier is the same as account's current weighted multiplier\n\t\trequire (_weightedMultiplier == ownerWeightedMultiplier[_from]);\n\t\t// Subtract from the targeted balance\n\t\tprimordialBalanceOf[_from] = primordialBalanceOf[_from].sub(_value);\n\t\t// Add to the targeted staked balance\n\t\tprimordialStakedBalance[_from][_weightedMultiplier] = primordialStakedBalance[_from][_weightedMultiplier].add(_value);\n\t\temit PrimordialStake(_from, _value, _weightedMultiplier);\n\t\treturn true;\n\t}\n\n\t/**\n\t * @dev Unstake `_value` Primordial ions at `_weightedMultiplier` on behalf of `_from`\n\t * @param _from The address of the target\n\t * @param _value The amount to unstake\n\t * @param _weightedMultiplier The weighted multiplier of the Primordial ions\n\t * @return true on success\n\t */\n\tfunction unstakePrimordialFrom(address _from, uint256 _value, uint256 _weightedMultiplier) public inWhitelist returns (bool) {\n\t\t// Check if the targeted staked balance is enough\n\t\trequire (primordialStakedBalance[_from][_weightedMultiplier] >= _value);\n\t\t// Subtract from the targeted staked balance\n\t\tprimordialStakedBalance[_from][_weightedMultiplier] = primordialStakedBalance[_from][_weightedMultiplier].sub(_value);\n\t\t// Add to the targeted balance\n\t\tprimordialBalanceOf[_from] = primordialBalanceOf[_from].add(_value);\n\t\temit PrimordialUnstake(_from, _value, _weightedMultiplier);\n\t\treturn true;\n\t}\n\n\t/**\n\t * @dev Send `_value` primordial ions to `_to` on behalf of `_from`\n\t * @param _from The address of the sender\n\t * @param _to The address of the recipient\n\t * @param _value The amount to send\n\t * @return true on success\n\t */\n\tfunction whitelistTransferPrimordialFrom(address _from, address _to, uint256 _value) public inWhitelist returns (bool) {\n\t\treturn _createLotAndTransferPrimordial(_from, _to, _value);\n\t}\n\n\t/***** PUBLIC METHODS *****/\n\t/***** PRIMORDIAL ION PUBLIC METHODS *****/\n\t/**\n\t * @dev Buy Primordial ions from contract by sending ether\n\t */\n\tfunction buyPrimordial() public payable canBuyPrimordial(msg.value, true) {\n\t\t(uint256 amount, uint256 remainderBudget, bool shouldEndNetworkExchange) = _calculateAmountAndRemainderBudget(msg.value, true);\n\t\trequire (amount > 0);\n\n\t\t// Ends network exchange if necessary\n\t\tif (shouldEndNetworkExchange) {\n\t\t\tnetworkExchangeEnded = true;\n\t\t\temit NetworkExchangeEnded();\n\t\t}\n\n\t\t// Update totalEthForPrimordial\n\t\ttotalEthForPrimordial = totalEthForPrimordial.add(msg.value.sub(remainderBudget));\n\n\t\t// Send the primordial ion to buyer and reward AO devs\n\t\tbytes32 _lotId = _sendPrimordialAndRewardDev(amount, msg.sender);\n\n\t\temit BuyPrimordial(msg.sender, _lotId, 1, msg.value, remainderBudget);\n\n\t\t// Send remainder budget back to buyer if exist\n\t\tif (remainderBudget > 0) {\n\t\t\tmsg.sender.transfer(remainderBudget);\n\t\t}\n\t}\n\n\t/**\n\t * @dev Buy Primordial ion from contract by sending AOETH\n\t */\n\tfunction buyPrimordialWithAOETH(uint256 _aoethAmount) public canBuyPrimordial(_aoethAmount, false) {\n\t\t(uint256 amount, uint256 remainderBudget, bool shouldEndNetworkExchange) = _calculateAmountAndRemainderBudget(_aoethAmount, false);\n\t\trequire (amount > 0);\n\n\t\t// Ends network exchange if necessary\n\t\tif (shouldEndNetworkExchange) {\n\t\t\tnetworkExchangeEnded = true;\n\t\t\temit NetworkExchangeEnded();\n\t\t}\n\n\t\t// Calculate the actual AOETH that was charged for this transaction\n\t\tuint256 actualCharge = _aoethAmount.sub(remainderBudget);\n\n\t\t// Update totalRedeemedAOETH\n\t\ttotalRedeemedAOETH = totalRedeemedAOETH.add(actualCharge);\n\n\t\t// Transfer AOETH from buyer to here\n\t\trequire (_aoeth.whitelistTransferFrom(msg.sender, address(this), actualCharge));\n\n\t\t// Send the primordial ion to buyer and reward AO devs\n\t\tbytes32 _lotId = _sendPrimordialAndRewardDev(amount, msg.sender);\n\n\t\temit BuyPrimordial(msg.sender, _lotId, 2, _aoethAmount, remainderBudget);\n\t}\n\n\t/**\n\t * @dev Send `_value` Primordial ions to `_to` from your account\n\t * @param _to The address of the recipient\n\t * @param _value The amount to send\n\t * @return true on success\n\t */\n\tfunction transferPrimordial(address _to, uint256 _value) public returns (bool) {\n\t\treturn _createLotAndTransferPrimordial(msg.sender, _to, _value);\n\t}\n\n\t/**\n\t * @dev Send `_value` Primordial ions to `_to` from `_from`\n\t * @param _from The address of the sender\n\t * @param _to The address of the recipient\n\t * @param _value The amount to send\n\t * @return true on success\n\t */\n\tfunction transferPrimordialFrom(address _from, address _to, uint256 _value) public returns (bool) {\n\t\trequire (_value <= primordialAllowance[_from][msg.sender]);\n\t\tprimordialAllowance[_from][msg.sender] = primordialAllowance[_from][msg.sender].sub(_value);\n\n\t\treturn _createLotAndTransferPrimordial(_from, _to, _value);\n\t}\n\n\t/**\n\t * Transfer primordial ions between public key addresses in a Name\n\t * @param _nameId The ID of the Name\n\t * @param _from The address of the sender\n\t * @param _to The address of the recipient\n\t * @param _value the amount to send\n\t */\n\tfunction transferPrimordialBetweenPublicKeys(address _nameId, address _from, address _to, uint256 _value) public returns (bool) {\n\t\trequire (AOLibrary.isName(_nameId));\n\t\trequire (_nameTAOPosition.senderIsAdvocate(msg.sender, _nameId));\n\t\trequire (!_nameAccountRecovery.isCompromised(_nameId));\n\t\t// Make sure _from exist in the Name's Public Keys\n\t\trequire (_namePublicKey.isKeyExist(_nameId, _from));\n\t\t// Make sure _to exist in the Name's Public Keys\n\t\trequire (_namePublicKey.isKeyExist(_nameId, _to));\n\t\treturn _createLotAndTransferPrimordial(_from, _to, _value);\n\t}\n\n\t/**\n\t * @dev Allows `_spender` to spend no more than `_value` Primordial ions in your behalf\n\t * @param _spender The address authorized to spend\n\t * @param _value The max amount they can spend\n\t * @return true on success\n\t */\n\tfunction approvePrimordial(address _spender, uint256 _value) public returns (bool) {\n\t\tprimordialAllowance[msg.sender][_spender] = _value;\n\t\temit PrimordialApproval(msg.sender, _spender, _value);\n\t\treturn true;\n\t}\n\n\t/**\n\t * @dev Allows `_spender` to spend no more than `_value` Primordial ions in your behalf, and then ping the contract about it\n\t * @param _spender The address authorized to spend\n\t * @param _value The max amount they can spend\n\t * @param _extraData some extra information to send to the approved contract\n\t * @return true on success\n\t */\n\tfunction approvePrimordialAndCall(address _spender, uint256 _value, bytes memory _extraData) public returns (bool) {\n\t\ttokenRecipient spender = tokenRecipient(_spender);\n\t\tif (approvePrimordial(_spender, _value)) {\n\t\t\tspender.receiveApproval(msg.sender, _value, address(this), _extraData);\n\t\t\treturn true;\n\t\t}\n\t}\n\n\t/**\n\t * @dev Remove `_value` Primordial ions from the system irreversibly\n\t *\t\tand re-weight the account's multiplier after burn\n\t * @param _value The amount to burn\n\t * @return true on success\n\t */\n\tfunction burnPrimordial(uint256 _value) public returns (bool) {\n\t\trequire (primordialBalanceOf[msg.sender] >= _value);\n\t\trequire (calculateMaximumBurnAmount(msg.sender) >= _value);\n\n\t\t// Update the account's multiplier\n\t\townerWeightedMultiplier[msg.sender] = calculateMultiplierAfterBurn(msg.sender, _value);\n\t\tprimordialBalanceOf[msg.sender] = primordialBalanceOf[msg.sender].sub(_value);\n\t\tprimordialTotalSupply = primordialTotalSupply.sub(_value);\n\n\t\t// Store burn lot info\n\t\trequire (_aoIonLot.createBurnLot(msg.sender, _value, ownerWeightedMultiplier[msg.sender]));\n\t\temit PrimordialBurn(msg.sender, _value);\n\t\treturn true;\n\t}\n\n\t/**\n\t * @dev Remove `_value` Primordial ions from the system irreversibly on behalf of `_from`\n\t *\t\tand re-weight `_from`'s multiplier after burn\n\t * @param _from The address of sender\n\t * @param _value The amount to burn\n\t * @return true on success\n\t */\n\tfunction burnPrimordialFrom(address _from, uint256 _value) public returns (bool) {\n\t\trequire (primordialBalanceOf[_from] >= _value);\n\t\trequire (primordialAllowance[_from][msg.sender] >= _value);\n\t\trequire (calculateMaximumBurnAmount(_from) >= _value);\n\n\t\t// Update `_from`'s multiplier\n\t\townerWeightedMultiplier[_from] = calculateMultiplierAfterBurn(_from, _value);\n\t\tprimordialBalanceOf[_from] = primordialBalanceOf[_from].sub(_value);\n\t\tprimordialAllowance[_from][msg.sender] = primordialAllowance[_from][msg.sender].sub(_value);\n\t\tprimordialTotalSupply = primordialTotalSupply.sub(_value);\n\n\t\t// Store burn lot info\n\t\trequire (_aoIonLot.createBurnLot(_from, _value, ownerWeightedMultiplier[_from]));\n\t\temit PrimordialBurn(_from, _value);\n\t\treturn true;\n\t}\n\n\t/**\n\t * @dev Return the average weighted multiplier of all lots owned by an address\n\t * @param _lotOwner The address of the lot owner\n\t * @return the weighted multiplier of the address (in 10 ** 6)\n\t */\n\tfunction weightedMultiplierByAddress(address _lotOwner) public view returns (uint256) {\n\t\treturn ownerWeightedMultiplier[_lotOwner];\n\t}\n\n\t/**\n\t * @dev Return the max multiplier of an address\n\t * @param _target The address to query\n\t * @return the max multiplier of the address (in 10 ** 6)\n\t */\n\tfunction maxMultiplierByAddress(address _target) public view returns (uint256) {\n\t\treturn (_aoIonLot.totalLotsByAddress(_target) > 0) ? ownerMaxMultiplier[_target] : 0;\n\t}\n\n\t/**\n\t * @dev Calculate the primordial ion multiplier, bonus network ion percentage, and the\n\t *\t\tbonus network ion amount on a given lot when someone purchases primordial ion\n\t *\t\tduring network exchange\n\t * @param _purchaseAmount The amount of primordial ion intended to be purchased\n\t * @return The multiplier in (10 ** 6)\n\t * @return The bonus percentage\n\t * @return The amount of network ion as bonus\n\t */\n\tfunction calculateMultiplierAndBonus(uint256 _purchaseAmount) public view returns (uint256, uint256, uint256) {\n\t\t(uint256 startingPrimordialMultiplier, uint256 endingPrimordialMultiplier, uint256 startingNetworkBonusMultiplier, uint256 endingNetworkBonusMultiplier) = _getSettingVariables();\n\t\treturn (\n\t\t\tAOLibrary.calculatePrimordialMultiplier(_purchaseAmount, TOTAL_PRIMORDIAL_FOR_SALE, primordialTotalBought, startingPrimordialMultiplier, endingPrimordialMultiplier),\n\t\t\tAOLibrary.calculateNetworkBonusPercentage(_purchaseAmount, TOTAL_PRIMORDIAL_FOR_SALE, primordialTotalBought, startingNetworkBonusMultiplier, endingNetworkBonusMultiplier),\n\t\t\tAOLibrary.calculateNetworkBonusAmount(_purchaseAmount, TOTAL_PRIMORDIAL_FOR_SALE, primordialTotalBought, startingNetworkBonusMultiplier, endingNetworkBonusMultiplier)\n\t\t);\n\t}\n\n\t/**\n\t * @dev Calculate the maximum amount of Primordial an account can burn\n\t * @param _account The address of the account\n\t * @return The maximum primordial ion amount to burn\n\t */\n\tfunction calculateMaximumBurnAmount(address _account) public view returns (uint256) {\n\t\treturn AOLibrary.calculateMaximumBurnAmount(primordialBalanceOf[_account], ownerWeightedMultiplier[_account], ownerMaxMultiplier[_account]);\n\t}\n\n\t/**\n\t * @dev Calculate account's new multiplier after burn `_amountToBurn` primordial ions\n\t * @param _account The address of the account\n\t * @param _amountToBurn The amount of primordial ion to burn\n\t * @return The new multiplier in (10 ** 6)\n\t */\n\tfunction calculateMultiplierAfterBurn(address _account, uint256 _amountToBurn) public view returns (uint256) {\n\t\trequire (calculateMaximumBurnAmount(_account) >= _amountToBurn);\n\t\treturn AOLibrary.calculateMultiplierAfterBurn(primordialBalanceOf[_account], ownerWeightedMultiplier[_account], _amountToBurn);\n\t}\n\n\t/**\n\t * @dev Calculate account's new multiplier after converting `amountToConvert` network ion to primordial ion\n\t * @param _account The address of the account\n\t * @param _amountToConvert The amount of network ion to convert\n\t * @return The new multiplier in (10 ** 6)\n\t */\n\tfunction calculateMultiplierAfterConversion(address _account, uint256 _amountToConvert) public view returns (uint256) {\n\t\treturn AOLibrary.calculateMultiplierAfterConversion(primordialBalanceOf[_account], ownerWeightedMultiplier[_account], _amountToConvert);\n\t}\n\n\t/**\n\t * @dev Convert `_value` of network ions to primordial ions\n\t *\t\tand re-weight the account's multiplier after conversion\n\t * @param _value The amount to convert\n\t * @return true on success\n\t */\n\tfunction convertToPrimordial(uint256 _value) public returns (bool) {\n\t\trequire (balanceOf[msg.sender] >= _value);\n\n\t\t// Update the account's multiplier\n\t\townerWeightedMultiplier[msg.sender] = calculateMultiplierAfterConversion(msg.sender, _value);\n\t\t// Burn network ion\n\t\tburn(_value);\n\t\t// mint primordial ion\n\t\t_mintPrimordial(msg.sender, _value);\n\n\t\trequire (_aoIonLot.createConvertLot(msg.sender, _value, ownerWeightedMultiplier[msg.sender]));\n\t\treturn true;\n\t}\n\n\t/**\n\t * @dev Get quantity of AO+ left in Network Exchange\n\t * @return The quantity of AO+ left in Network Exchange\n\t */\n\tfunction availablePrimordialForSale() public view returns (uint256) {\n\t\treturn TOTAL_PRIMORDIAL_FOR_SALE.sub(primordialTotalBought);\n\t}\n\n\t/**\n\t * @dev Get quantity of AO+ in ETH left in Network Exchange (i.e How much ETH is there total that can be\n\t *\t\texchanged for AO+\n\t * @return The quantity of AO+ in ETH left in Network Exchange\n\t */\n\tfunction availablePrimordialForSaleInETH() public view returns (uint256) {\n\t\treturn availablePrimordialForSale().mul(primordialBuyPrice);\n\t}\n\n\t/**\n\t * @dev Get maximum quantity of AOETH or ETH that can still be sold\n\t * @return The maximum quantity of AOETH or ETH that can still be sold\n\t */\n\tfunction availableETH() public view returns (uint256) {\n\t\tif (availablePrimordialForSaleInETH() > 0) {\n\t\t\tuint256 _availableETH = availablePrimordialForSaleInETH().sub(_aoeth.totalSupply().sub(totalRedeemedAOETH));\n\t\t\tif (availablePrimordialForSale() == 1 && _availableETH < primordialBuyPrice) {\n\t\t\t\treturn primordialBuyPrice;\n\t\t\t} else {\n\t\t\t\treturn _availableETH;\n\t\t\t}\n\t\t} else {\n\t\t\treturn 0;\n\t\t}\n\t}\n\n\t/***** INTERNAL METHODS *****/\n\t/***** PRIMORDIAL ION INTERNAL METHODS *****/\n\t/**\n\t * @dev Calculate the amount of ion the buyer will receive and remaining budget if exist\n\t *\t\twhen he/she buys primordial ion\n\t * @param _budget The amount of ETH sent by buyer\n\t * @param _withETH Whether or not buyer is paying with ETH\n\t * @return uint256 of the amount the buyer will receiver\n\t * @return uint256 of the remaining budget, if exist\n\t * @return bool whether or not the network exchange should end\n\t */\n\tfunction _calculateAmountAndRemainderBudget(uint256 _budget, bool _withETH) internal view returns (uint256, uint256, bool) {\n\t\t// Calculate the amount of ion\n\t\tuint256 amount = _budget.div(primordialBuyPrice);\n\n\t\t// If we need to return ETH to the buyer, in the case\n\t\t// where the buyer sends more ETH than available primordial ion to be purchased\n\t\tuint256 remainderEth = _budget.sub(amount.mul(primordialBuyPrice));\n\n\t\tuint256 _availableETH = availableETH();\n\t\t// If paying with ETH, it can't exceed availableETH\n\t\tif (_withETH && _budget > availableETH()) {\n\t\t\t// Calculate the amount of ions\n\t\t\tamount = _availableETH.div(primordialBuyPrice);\n\t\t\tremainderEth = _budget.sub(amount.mul(primordialBuyPrice));\n\t\t}\n\n\t\t// Make sure primordialTotalBought is not overflowing\n\t\tbool shouldEndNetworkExchange = false;\n\t\tif (primordialTotalBought.add(amount) >= TOTAL_PRIMORDIAL_FOR_SALE) {\n\t\t\tamount = TOTAL_PRIMORDIAL_FOR_SALE.sub(primordialTotalBought);\n\t\t\tshouldEndNetworkExchange = true;\n\t\t\tremainderEth = _budget.sub(amount.mul(primordialBuyPrice));\n\t\t}\n\t\treturn (amount, remainderEth, shouldEndNetworkExchange);\n\t}\n\n\t/**\n\t * @dev Actually sending the primordial ion to buyer and reward AO devs accordingly\n\t * @param amount The amount of primordial ion to be sent to buyer\n\t * @param to The recipient of ion\n\t * @return the lot Id of the buyer\n\t */\n\tfunction _sendPrimordialAndRewardDev(uint256 amount, address to) internal returns (bytes32) {\n\t\t(uint256 startingPrimordialMultiplier,, uint256 startingNetworkBonusMultiplier, uint256 endingNetworkBonusMultiplier) = _getSettingVariables();\n\n\t\t// Update primordialTotalBought\n\t\t(uint256 multiplier, uint256 networkBonusPercentage, uint256 networkBonusAmount) = calculateMultiplierAndBonus(amount);\n\t\tprimordialTotalBought = primordialTotalBought.add(amount);\n\t\tbytes32 _lotId = _createPrimordialLot(to, amount, multiplier, networkBonusAmount);\n\n\t\t// Calculate The AO and AO Dev Team's portion of Primordial and Network ion Bonus\n\t\tuint256 inverseMultiplier = startingPrimordialMultiplier.sub(multiplier); // Inverse of the buyer's multiplier\n\t\tuint256 theAONetworkBonusAmount = (startingNetworkBonusMultiplier.sub(networkBonusPercentage).add(endingNetworkBonusMultiplier)).mul(amount).div(AOLibrary.PERCENTAGE_DIVISOR());\n\t\tif (aoDevTeam1 != address(0)) {\n\t\t\t_createPrimordialLot(aoDevTeam1, amount.div(2), inverseMultiplier, theAONetworkBonusAmount.div(2));\n\t\t}\n\t\tif (aoDevTeam2 != address(0)) {\n\t\t\t_createPrimordialLot(aoDevTeam2, amount.div(2), inverseMultiplier, theAONetworkBonusAmount.div(2));\n\t\t}\n\t\t_mint(theAO, theAONetworkBonusAmount);\n\t\treturn _lotId;\n\t}\n\n\t/**\n\t * @dev Create a lot with `primordialAmount` of primordial ions with `_multiplier` for an `account`\n\t *\t\tduring network exchange, and reward `_networkBonusAmount` if exist\n\t * @param _account Address of the lot owner\n\t * @param _primordialAmount The amount of primordial ions to be stored in the lot\n\t * @param _multiplier The multiplier for this lot in (10 ** 6)\n\t * @param _networkBonusAmount The network ion bonus amount\n\t * @return Created lot Id\n\t */\n\tfunction _createPrimordialLot(address _account, uint256 _primordialAmount, uint256 _multiplier, uint256 _networkBonusAmount) internal returns (bytes32) {\n\t\tbytes32 lotId = _aoIonLot.createPrimordialLot(_account, _primordialAmount, _multiplier, _networkBonusAmount);\n\n\t\townerWeightedMultiplier[_account] = AOLibrary.calculateWeightedMultiplier(ownerWeightedMultiplier[_account], primordialBalanceOf[_account], _multiplier, _primordialAmount);\n\n\t\t// If this is the first lot, set this as the max multiplier of the account\n\t\tif (_aoIonLot.totalLotsByAddress(_account) == 1) {\n\t\t\townerMaxMultiplier[_account] = _multiplier;\n\t\t}\n\t\t_mintPrimordial(_account, _primordialAmount);\n\t\t_mint(_account, _networkBonusAmount);\n\n\t\treturn lotId;\n\t}\n\n\t/**\n\t * @dev Create `mintedAmount` Primordial ions and send it to `target`\n\t * @param target Address to receive the Primordial ions\n\t * @param mintedAmount The amount of Primordial ions it will receive\n\t */\n\tfunction _mintPrimordial(address target, uint256 mintedAmount) internal {\n\t\tprimordialBalanceOf[target] = primordialBalanceOf[target].add(mintedAmount);\n\t\tprimordialTotalSupply = primordialTotalSupply.add(mintedAmount);\n\t\temit PrimordialTransfer(address(0), address(this), mintedAmount);\n\t\temit PrimordialTransfer(address(this), target, mintedAmount);\n\t}\n\n\t/**\n\t * @dev Create a lot with `amount` of ions at `weightedMultiplier` for an `account`\n\t * @param _account Address of lot owner\n\t * @param _amount The amount of ions\n\t * @param _weightedMultiplier The multiplier of the lot (in 10^6)\n\t * @return bytes32 of new created lot ID\n\t */\n\tfunction _createWeightedMultiplierLot(address _account, uint256 _amount, uint256 _weightedMultiplier) internal returns (bytes32) {\n\t\trequire (_account != address(0));\n\t\trequire (_amount > 0);\n\n\t\tbytes32 lotId = _aoIonLot.createWeightedMultiplierLot(_account, _amount, _weightedMultiplier);\n\t\t// If this is the first lot, set this as the max multiplier of the account\n\t\tif (_aoIonLot.totalLotsByAddress(_account) == 1) {\n\t\t\townerMaxMultiplier[_account] = _weightedMultiplier;\n\t\t}\n\t\treturn lotId;\n\t}\n\n\t/**\n\t * @dev Create Lot and send `_value` Primordial ions from `_from` to `_to`\n\t * @param _from The address of sender\n\t * @param _to The address of the recipient\n\t * @param _value The amount to send\n\t * @return true on success\n\t */\n\tfunction _createLotAndTransferPrimordial(address _from, address _to, uint256 _value) internal returns (bool) {\n\t\tbytes32 _createdLotId = _createWeightedMultiplierLot(_to, _value, ownerWeightedMultiplier[_from]);\n\t\t(, address _lotOwner,,) = _aoIonLot.lotById(_createdLotId);\n\n\t\t// Make sure the new lot is created successfully\n\t\trequire (_lotOwner == _to);\n\n\t\t// Update the weighted multiplier of the recipient\n\t\townerWeightedMultiplier[_to] = AOLibrary.calculateWeightedMultiplier(ownerWeightedMultiplier[_to], primordialBalanceOf[_to], ownerWeightedMultiplier[_from], _value);\n\n\t\t// Transfer the Primordial ions\n\t\trequire (_transferPrimordial(_from, _to, _value));\n\t\treturn true;\n\t}\n\n\t/**\n\t * @dev Send `_value` Primordial ions from `_from` to `_to`\n\t * @param _from The address of sender\n\t * @param _to The address of the recipient\n\t * @param _value The amount to send\n\t */\n\tfunction _transferPrimordial(address _from, address _to, uint256 _value) internal returns (bool) {\n\t\trequire (_to != address(0));\t\t\t\t\t\t\t\t\t// Prevent transfer to 0x0 address. Use burn() instead\n\t\trequire (primordialBalanceOf[_from] >= _value);\t\t\t\t\t\t// Check if the sender has enough\n\t\trequire (primordialBalanceOf[_to].add(_value) >= primordialBalanceOf[_to]);\t// Check for overflows\n\t\trequire (!frozenAccount[_from]);\t\t\t\t\t\t\t\t// Check if sender is frozen\n\t\trequire (!frozenAccount[_to]);\t\t\t\t\t\t\t\t\t// Check if recipient is frozen\n\t\tuint256 previousBalances = primordialBalanceOf[_from].add(primordialBalanceOf[_to]);\n\t\tprimordialBalanceOf[_from] = primordialBalanceOf[_from].sub(_value);\t\t\t// Subtract from the sender\n\t\tprimordialBalanceOf[_to] = primordialBalanceOf[_to].add(_value);\t\t\t\t// Add the same to the recipient\n\t\temit PrimordialTransfer(_from, _to, _value);\n\t\tassert(primordialBalanceOf[_from].add(primordialBalanceOf[_to]) == previousBalances);\n\t\treturn true;\n\t}\n\n\t/**\n\t * @dev Get setting variables\n\t * @return startingPrimordialMultiplier The starting multiplier used to calculate primordial ion\n\t * @return endingPrimordialMultiplier The ending multiplier used to calculate primordial ion\n\t * @return startingNetworkBonusMultiplier The starting multiplier used to calculate network ion bonus\n\t * @return endingNetworkBonusMultiplier The ending multiplier used to calculate network ion bonus\n\t */\n\tfunction _getSettingVariables() internal view returns (uint256, uint256, uint256, uint256) {\n\t\t(uint256 startingPrimordialMultiplier,,,,) = _aoSetting.getSettingValuesByTAOName(settingTAOId, 'startingPrimordialMultiplier');\n\t\t(uint256 endingPrimordialMultiplier,,,,) = _aoSetting.getSettingValuesByTAOName(settingTAOId, 'endingPrimordialMultiplier');\n\n\t\t(uint256 startingNetworkBonusMultiplier,,,,) = _aoSetting.getSettingValuesByTAOName(settingTAOId, 'startingNetworkBonusMultiplier');\n\t\t(uint256 endingNetworkBonusMultiplier,,,,) = _aoSetting.getSettingValuesByTAOName(settingTAOId, 'endingNetworkBonusMultiplier');\n\n\t\treturn (startingPrimordialMultiplier, endingPrimordialMultiplier, startingNetworkBonusMultiplier, endingNetworkBonusMultiplier);\n\t}\n}\n",
	"sourcePath": "/home/jmulyono/ao-contracts/contracts/AOIon.sol",
	"compiler": {
		"name": "solc",
		"version": "0.5.4+commit.9549d8ff.Emscripten.clang"
	},
	"schemaVersion": "3.0.9",
	"updatedAt": "2019-05-22T05:15:22.038Z",
	"devdoc": {
		"methods": {
			"approve(address,uint256)": {
				"params": {
					"_spender": "The address authorized to spend",
					"_value": "the max amount they can spend"
				}
			},
			"approveAndCall(address,uint256,bytes)": {
				"params": {
					"_extraData": "some extra information to send to the approved contract",
					"_spender": "The address authorized to spend",
					"_value": "the max amount they can spend"
				}
			},
			"approvePrimordial(address,uint256)": {
				"details": "Allows `_spender` to spend no more than `_value` Primordial ions in your behalf",
				"params": {
					"_spender": "The address authorized to spend",
					"_value": "The max amount they can spend"
				},
				"return": "true on success"
			},
			"approvePrimordialAndCall(address,uint256,bytes)": {
				"details": "Allows `_spender` to spend no more than `_value` Primordial ions in your behalf, and then ping the contract about it",
				"params": {
					"_extraData": "some extra information to send to the approved contract",
					"_spender": "The address authorized to spend",
					"_value": "The max amount they can spend"
				},
				"return": "true on success"
			},
			"availableETH()": {
				"details": "Get maximum quantity of AOETH or ETH that can still be sold",
				"return": "The maximum quantity of AOETH or ETH that can still be sold"
			},
			"availablePrimordialForSale()": {
				"details": "Get quantity of AO+ left in Network Exchange",
				"return": "The quantity of AO+ left in Network Exchange"
			},
			"availablePrimordialForSaleInETH()": {
				"details": "Get quantity of AO+ in ETH left in Network Exchange (i.e How much ETH is there total that can be\texchanged for AO+",
				"return": "The quantity of AO+ in ETH left in Network Exchange"
			},
			"burn(uint256)": {
				"params": {
					"_value": "the amount of money to burn"
				}
			},
			"burnFrom(address,uint256)": {
				"params": {
					"_from": "the address of the sender",
					"_value": "the amount of money to burn"
				}
			},
			"burnPrimordial(uint256)": {
				"details": "Remove `_value` Primordial ions from the system irreversibly\tand re-weight the account's multiplier after burn",
				"params": {
					"_value": "The amount to burn"
				},
				"return": "true on success"
			},
			"burnPrimordialFrom(address,uint256)": {
				"details": "Remove `_value` Primordial ions from the system irreversibly on behalf of `_from`\tand re-weight `_from`'s multiplier after burn",
				"params": {
					"_from": "The address of sender",
					"_value": "The amount to burn"
				},
				"return": "true on success"
			},
			"buy()": {
				"details": "Buy ions from contract by sending ether"
			},
			"buyPrimordial()": {
				"details": "Buy Primordial ions from contract by sending ether"
			},
			"buyPrimordialWithAOETH(uint256)": {
				"details": "Buy Primordial ion from contract by sending AOETH"
			},
			"calculateMaximumBurnAmount(address)": {
				"details": "Calculate the maximum amount of Primordial an account can burn",
				"params": {
					"_account": "The address of the account"
				},
				"return": "The maximum primordial ion amount to burn"
			},
			"calculateMultiplierAfterBurn(address,uint256)": {
				"details": "Calculate account's new multiplier after burn `_amountToBurn` primordial ions",
				"params": {
					"_account": "The address of the account",
					"_amountToBurn": "The amount of primordial ion to burn"
				},
				"return": "The new multiplier in (10 ** 6)"
			},
			"calculateMultiplierAfterConversion(address,uint256)": {
				"details": "Calculate account's new multiplier after converting `amountToConvert` network ion to primordial ion",
				"params": {
					"_account": "The address of the account",
					"_amountToConvert": "The amount of network ion to convert"
				},
				"return": "The new multiplier in (10 ** 6)"
			},
			"calculateMultiplierAndBonus(uint256)": {
				"details": "Calculate the primordial ion multiplier, bonus network ion percentage, and the\tbonus network ion amount on a given lot when someone purchases primordial ion\tduring network exchange",
				"params": {
					"_purchaseAmount": "The amount of primordial ion intended to be purchased"
				},
				"return": "The multiplier in (10 ** 6)The bonus percentageThe amount of network ion as bonus"
			},
			"constructor": {
				"details": "Constructor function"
			},
			"convertToPrimordial(uint256)": {
				"details": "Convert `_value` of network ions to primordial ions\tand re-weight the account's multiplier after conversion",
				"params": {
					"_value": "The amount to convert"
				},
				"return": "true on success"
			},
			"endNetworkExchange()": {
				"details": "Only the AO can force end network exchange"
			},
			"escrowFrom(address,address,uint256)": {
				"details": "Store `_value` from `_from` to `_to` in escrow",
				"params": {
					"_from": "The address of the sender",
					"_to": "The address of the recipient",
					"_value": "The amount of network ions to put in escrow"
				},
				"return": "true on success"
			},
			"freezeAccount(address,bool)": {
				"details": "Prevent/Allow target from sending & receiving ions",
				"params": {
					"freeze": "Either to freeze it or not",
					"target": "Address to be frozen"
				}
			},
			"maxMultiplierByAddress(address)": {
				"details": "Return the max multiplier of an address",
				"params": {
					"_target": "The address to query"
				},
				"return": "the max multiplier of the address (in 10 ** 6)"
			},
			"mint(address,uint256)": {
				"details": "Create `mintedAmount` ions and send it to `target`",
				"params": {
					"mintedAmount": "The amount of ions it will receive",
					"target": "Address to receive the ions"
				},
				"return": "true on success"
			},
			"mintEscrow(address,uint256)": {
				"details": "Create `mintedAmount` ions and send it to `target` escrow balance",
				"params": {
					"mintedAmount": "The amount of ions it will receive in escrow",
					"target": "Address to receive ions"
				}
			},
			"sell(uint256)": {
				"details": "Sell `amount` ions to contract",
				"params": {
					"amount": "The amount of ions to be sold"
				}
			},
			"setAODevTeamAddresses(address,address)": {
				"details": "Set AO Dev team addresses to receive Primordial/Network ions during network exchange",
				"params": {
					"_aoDevTeam1": "The first AO dev team address",
					"_aoDevTeam2": "The second AO dev team address"
				}
			},
			"setAOETHAddress(address)": {
				"details": "Set AOETH address",
				"params": {
					"_aoethAddress": "The address of AOETH"
				}
			},
			"setAOIonLotAddress(address)": {
				"details": "The AO sets AOIonLot address",
				"params": {
					"_aoIonLotAddress": "The address of AOIonLot"
				}
			},
			"setAOSettingAddress(address)": {
				"details": "The AO sets AO Setting address",
				"params": {
					"_aoSettingAddress": "The address of AOSetting"
				}
			},
			"setNameAccountRecoveryAddress(address)": {
				"details": "The AO set the NameAccountRecovery Address",
				"params": {
					"_nameAccountRecoveryAddress": "The address of NameAccountRecovery"
				}
			},
			"setNamePublicKeyAddress(address)": {
				"details": "The AO set the NamePublicKey Address",
				"params": {
					"_namePublicKeyAddress": "The address of NamePublicKey"
				}
			},
			"setNameTAOPositionAddress(address)": {
				"details": "The AO set the NameTAOPosition Address",
				"params": {
					"_nameTAOPositionAddress": "The address of NameTAOPosition"
				}
			},
			"setPrices(uint256,uint256)": {
				"details": "Allow users to buy ions for `newBuyPrice` eth and sell ions for `newSellPrice` eth",
				"params": {
					"newBuyPrice": "Price users can buy from the contract",
					"newSellPrice": "Price users can sell to the contract"
				}
			},
			"setPrimordialPrices(uint256,uint256)": {
				"details": "Allow users to buy Primordial ions for `newBuyPrice` eth and sell Primordial ions for `newSellPrice` eth",
				"params": {
					"newPrimordialBuyPrice": "Price users can buy from the contract",
					"newPrimordialSellPrice": "Price users can sell to the contract"
				}
			},
			"setSettingTAOId(address)": {
				"details": "The AO sets setting TAO ID",
				"params": {
					"_settingTAOId": "The new setting TAO ID to set"
				}
			},
			"setWhitelist(address,bool)": {
				"details": "Whitelist `_account` address to transact on behalf of others",
				"params": {
					"_account": "The address to whitelist",
					"_whitelist": "Either to whitelist or not"
				}
			},
			"stakeFrom(address,uint256)": {
				"details": "Stake `_value` ions on behalf of `_from`",
				"params": {
					"_from": "The address of the target",
					"_value": "The amount to stake"
				},
				"return": "true on success"
			},
			"stakePrimordialFrom(address,uint256,uint256)": {
				"details": "Stake `_value` Primordial ions at `_weightedMultiplier ` multiplier on behalf of `_from`",
				"params": {
					"_from": "The address of the target",
					"_value": "The amount of Primordial ions to stake",
					"_weightedMultiplier": "The weighted multiplier of the Primordial ions"
				},
				"return": "true on success"
			},
			"transfer(address,uint256)": {
				"params": {
					"_to": "The address of the recipient",
					"_value": "the amount to send"
				}
			},
			"transferBetweenPublicKeys(address,address,address,uint256)": {
				"params": {
					"_from": "The address of the sender",
					"_nameId": "The ID of the Name",
					"_to": "The address of the recipient",
					"_value": "the amount to send"
				}
			},
			"transferEth(address,uint256)": {
				"details": "Allows TheAO to transfer `_amount` of ETH from this address to `_recipient`",
				"params": {
					"_amount": "The amount to transfer",
					"_recipient": "The recipient address"
				}
			},
			"transferFrom(address,address,uint256)": {
				"params": {
					"_from": "The address of the sender",
					"_to": "The address of the recipient",
					"_value": "the amount to send"
				}
			},
			"transferOwnership(address)": {
				"details": "Transfer ownership of The AO to new address",
				"params": {
					"_theAO": "The new address to be transferred"
				}
			},
			"transferPrimordial(address,uint256)": {
				"details": "Send `_value` Primordial ions to `_to` from your account",
				"params": {
					"_to": "The address of the recipient",
					"_value": "The amount to send"
				},
				"return": "true on success"
			},
			"transferPrimordialBetweenPublicKeys(address,address,address,uint256)": {
				"params": {
					"_from": "The address of the sender",
					"_nameId": "The ID of the Name",
					"_to": "The address of the recipient",
					"_value": "the amount to send"
				}
			},
			"transferPrimordialFrom(address,address,uint256)": {
				"details": "Send `_value` Primordial ions to `_to` from `_from`",
				"params": {
					"_from": "The address of the sender",
					"_to": "The address of the recipient",
					"_value": "The amount to send"
				},
				"return": "true on success"
			},
			"unescrowFrom(address,uint256)": {
				"details": "Release escrowed `_value` from `_from`",
				"params": {
					"_from": "The address of the sender",
					"_value": "The amount of escrowed network ions to be released"
				},
				"return": "true on success"
			},
			"unstakeFrom(address,uint256)": {
				"details": "Unstake `_value` ions on behalf of `_from`",
				"params": {
					"_from": "The address of the target",
					"_value": "The amount to unstake"
				},
				"return": "true on success"
			},
			"unstakePrimordialFrom(address,uint256,uint256)": {
				"details": "Unstake `_value` Primordial ions at `_weightedMultiplier` on behalf of `_from`",
				"params": {
					"_from": "The address of the target",
					"_value": "The amount to unstake",
					"_weightedMultiplier": "The weighted multiplier of the Primordial ions"
				},
				"return": "true on success"
			},
			"weightedMultiplierByAddress(address)": {
				"details": "Return the average weighted multiplier of all lots owned by an address",
				"params": {
					"_lotOwner": "The address of the lot owner"
				},
				"return": "the weighted multiplier of the address (in 10 ** 6)"
			},
			"whitelistBurnFrom(address,uint256)": {
				"details": "Whitelisted address remove `_value` ions from the system irreversibly on behalf of `_from`.",
				"params": {
					"_from": "the address of the sender",
					"_value": "the amount of money to burn"
				}
			},
			"whitelistTransferFrom(address,address,uint256)": {
				"details": "Whitelisted address transfer ions from other address\t * Send `_value` ions to `_to` on behalf of `_from`",
				"params": {
					"_from": "The address of the sender",
					"_to": "The address of the recipient",
					"_value": "the amount to send"
				}
			},
			"whitelistTransferPrimordialFrom(address,address,uint256)": {
				"details": "Send `_value` primordial ions to `_to` on behalf of `_from`",
				"params": {
					"_from": "The address of the sender",
					"_to": "The address of the recipient",
					"_value": "The amount to send"
				},
				"return": "true on success"
			}
		},
		"title": "AOIon"
	},
	"userdoc": {
		"methods": {
			"approve(address,uint256)": {
				"notice": "Set allowance for other address\t * Allows `_spender` to spend no more than `_value` ions in your behalf"
			},
			"approveAndCall(address,uint256,bytes)": {
				"notice": "Set allowance for other address and notify\t * Allows `_spender` to spend no more than `_value` ions in your behalf, and then ping the contract about it"
			},
			"burn(uint256)": {
				"notice": "Destroy ions\t * Remove `_value` ions from the system irreversibly"
			},
			"burnFrom(address,uint256)": {
				"notice": "Destroy ions from other account\t * Remove `_value` ions from the system irreversibly on behalf of `_from`."
			},
			"transfer(address,uint256)": {
				"notice": "Transfer ions\t * Send `_value` ions to `_to` from your account"
			},
			"transferBetweenPublicKeys(address,address,address,uint256)": {
				"notice": "Transfer ions between public key addresses in a Name"
			},
			"transferFrom(address,address,uint256)": {
				"notice": "Transfer ions from other address\t * Send `_value` ions to `_to` in behalf of `_from`"
			},
			"transferPrimordialBetweenPublicKeys(address,address,address,uint256)": {
				"notice": "Transfer primordial ions between public key addresses in a Name"
			}
		}
	}
}