{
  "contractName": "AOIonLot",
  "abi": [
    {
      "constant": true,
      "inputs": [],
      "name": "totalConvertLots",
      "outputs": [
        {
          "name": "",
          "type": "uint256"
        }
      ],
      "payable": false,
      "stateMutability": "view",
      "type": "function"
    },
    {
      "constant": true,
      "inputs": [],
      "name": "totalLots",
      "outputs": [
        {
          "name": "",
          "type": "uint256"
        }
      ],
      "payable": false,
      "stateMutability": "view",
      "type": "function"
    },
    {
      "constant": true,
      "inputs": [],
      "name": "aoIonAddress",
      "outputs": [
        {
          "name": "",
          "type": "address"
        }
      ],
      "payable": false,
      "stateMutability": "view",
      "type": "function"
    },
    {
      "constant": true,
      "inputs": [],
      "name": "totalBurnLots",
      "outputs": [
        {
          "name": "",
          "type": "uint256"
        }
      ],
      "payable": false,
      "stateMutability": "view",
      "type": "function"
    },
    {
      "constant": true,
      "inputs": [],
      "name": "nameTAOPositionAddress",
      "outputs": [
        {
          "name": "",
          "type": "address"
        }
      ],
      "payable": false,
      "stateMutability": "view",
      "type": "function"
    },
    {
      "constant": true,
      "inputs": [
        {
          "name": "",
          "type": "address"
        }
      ],
      "name": "whitelist",
      "outputs": [
        {
          "name": "",
          "type": "bool"
        }
      ],
      "payable": false,
      "stateMutability": "view",
      "type": "function"
    },
    {
      "constant": true,
      "inputs": [],
      "name": "theAO",
      "outputs": [
        {
          "name": "",
          "type": "address"
        }
      ],
      "payable": false,
      "stateMutability": "view",
      "type": "function"
    },
    {
      "inputs": [
        {
          "name": "_aoIonAddress",
          "type": "address"
        },
        {
          "name": "_nameTAOPositionAddress",
          "type": "address"
        }
      ],
      "payable": false,
      "stateMutability": "nonpayable",
      "type": "constructor"
    },
    {
      "anonymous": false,
      "inputs": [
        {
          "indexed": true,
          "name": "lotOwner",
          "type": "address"
        },
        {
          "indexed": true,
          "name": "lotId",
          "type": "bytes32"
        },
        {
          "indexed": false,
          "name": "multiplier",
          "type": "uint256"
        },
        {
          "indexed": false,
          "name": "primordialAmount",
          "type": "uint256"
        },
        {
          "indexed": false,
          "name": "networkBonusAmount",
          "type": "uint256"
        }
      ],
      "name": "LotCreation",
      "type": "event"
    },
    {
      "anonymous": false,
      "inputs": [
        {
          "indexed": true,
          "name": "lotOwner",
          "type": "address"
        },
        {
          "indexed": true,
          "name": "burnLotId",
          "type": "bytes32"
        },
        {
          "indexed": false,
          "name": "burnAmount",
          "type": "uint256"
        },
        {
          "indexed": false,
          "name": "multiplierAfterBurn",
          "type": "uint256"
        }
      ],
      "name": "BurnLotCreation",
      "type": "event"
    },
    {
      "anonymous": false,
      "inputs": [
        {
          "indexed": true,
          "name": "lotOwner",
          "type": "address"
        },
        {
          "indexed": true,
          "name": "convertLotId",
          "type": "bytes32"
        },
        {
          "indexed": false,
          "name": "convertAmount",
          "type": "uint256"
        },
        {
          "indexed": false,
          "name": "multiplierAfterConversion",
          "type": "uint256"
        }
      ],
      "name": "ConvertLotCreation",
      "type": "event"
    },
    {
      "constant": false,
      "inputs": [
        {
          "name": "_theAO",
          "type": "address"
        }
      ],
      "name": "transferOwnership",
      "outputs": [],
      "payable": false,
      "stateMutability": "nonpayable",
      "type": "function"
    },
    {
      "constant": false,
      "inputs": [
        {
          "name": "_account",
          "type": "address"
        },
        {
          "name": "_whitelist",
          "type": "bool"
        }
      ],
      "name": "setWhitelist",
      "outputs": [],
      "payable": false,
      "stateMutability": "nonpayable",
      "type": "function"
    },
    {
      "constant": false,
      "inputs": [
        {
          "name": "_aoIonAddress",
          "type": "address"
        }
      ],
      "name": "setAOIonAddress",
      "outputs": [],
      "payable": false,
      "stateMutability": "nonpayable",
      "type": "function"
    },
    {
      "constant": false,
      "inputs": [
        {
          "name": "_nameTAOPositionAddress",
          "type": "address"
        }
      ],
      "name": "setNameTAOPositionAddress",
      "outputs": [],
      "payable": false,
      "stateMutability": "nonpayable",
      "type": "function"
    },
    {
      "constant": false,
      "inputs": [
        {
          "name": "_account",
          "type": "address"
        },
        {
          "name": "_primordialAmount",
          "type": "uint256"
        },
        {
          "name": "_multiplier",
          "type": "uint256"
        },
        {
          "name": "_networkBonusAmount",
          "type": "uint256"
        }
      ],
      "name": "createPrimordialLot",
      "outputs": [
        {
          "name": "",
          "type": "bytes32"
        }
      ],
      "payable": false,
      "stateMutability": "nonpayable",
      "type": "function"
    },
    {
      "constant": false,
      "inputs": [
        {
          "name": "_account",
          "type": "address"
        },
        {
          "name": "_amount",
          "type": "uint256"
        },
        {
          "name": "_weightedMultiplier",
          "type": "uint256"
        }
      ],
      "name": "createWeightedMultiplierLot",
      "outputs": [
        {
          "name": "",
          "type": "bytes32"
        }
      ],
      "payable": false,
      "stateMutability": "nonpayable",
      "type": "function"
    },
    {
      "constant": true,
      "inputs": [
        {
          "name": "_lotId",
          "type": "bytes32"
        }
      ],
      "name": "lotById",
      "outputs": [
        {
          "name": "",
          "type": "bytes32"
        },
        {
          "name": "",
          "type": "address"
        },
        {
          "name": "",
          "type": "uint256"
        },
        {
          "name": "",
          "type": "uint256"
        }
      ],
      "payable": false,
      "stateMutability": "view",
      "type": "function"
    },
    {
      "constant": true,
      "inputs": [
        {
          "name": "_lotOwner",
          "type": "address"
        }
      ],
      "name": "lotIdsByAddress",
      "outputs": [
        {
          "name": "",
          "type": "bytes32[]"
        }
      ],
      "payable": false,
      "stateMutability": "view",
      "type": "function"
    },
    {
      "constant": true,
      "inputs": [
        {
          "name": "_lotOwner",
          "type": "address"
        }
      ],
      "name": "totalLotsByAddress",
      "outputs": [
        {
          "name": "",
          "type": "uint256"
        }
      ],
      "payable": false,
      "stateMutability": "view",
      "type": "function"
    },
    {
      "constant": true,
      "inputs": [
        {
          "name": "_lotOwner",
          "type": "address"
        },
        {
          "name": "_index",
          "type": "uint256"
        }
      ],
      "name": "lotOfOwnerByIndex",
      "outputs": [
        {
          "name": "",
          "type": "bytes32"
        },
        {
          "name": "",
          "type": "address"
        },
        {
          "name": "",
          "type": "uint256"
        },
        {
          "name": "",
          "type": "uint256"
        }
      ],
      "payable": false,
      "stateMutability": "view",
      "type": "function"
    },
    {
      "constant": false,
      "inputs": [
        {
          "name": "_account",
          "type": "address"
        },
        {
          "name": "_amount",
          "type": "uint256"
        },
        {
          "name": "_multiplierAfterBurn",
          "type": "uint256"
        }
      ],
      "name": "createBurnLot",
      "outputs": [
        {
          "name": "",
          "type": "bool"
        }
      ],
      "payable": false,
      "stateMutability": "nonpayable",
      "type": "function"
    },
    {
      "constant": true,
      "inputs": [
        {
          "name": "_lotOwner",
          "type": "address"
        }
      ],
      "name": "burnLotIdsByAddress",
      "outputs": [
        {
          "name": "",
          "type": "bytes32[]"
        }
      ],
      "payable": false,
      "stateMutability": "view",
      "type": "function"
    },
    {
      "constant": true,
      "inputs": [
        {
          "name": "_lotOwner",
          "type": "address"
        }
      ],
      "name": "totalBurnLotsByAddress",
      "outputs": [
        {
          "name": "",
          "type": "uint256"
        }
      ],
      "payable": false,
      "stateMutability": "view",
      "type": "function"
    },
    {
      "constant": true,
      "inputs": [
        {
          "name": "_burnLotId",
          "type": "bytes32"
        }
      ],
      "name": "burnLotById",
      "outputs": [
        {
          "name": "",
          "type": "bytes32"
        },
        {
          "name": "",
          "type": "address"
        },
        {
          "name": "",
          "type": "uint256"
        }
      ],
      "payable": false,
      "stateMutability": "view",
      "type": "function"
    },
    {
      "constant": false,
      "inputs": [
        {
          "name": "_account",
          "type": "address"
        },
        {
          "name": "_amount",
          "type": "uint256"
        },
        {
          "name": "_multiplierAfterConversion",
          "type": "uint256"
        }
      ],
      "name": "createConvertLot",
      "outputs": [
        {
          "name": "",
          "type": "bool"
        }
      ],
      "payable": false,
      "stateMutability": "nonpayable",
      "type": "function"
    },
    {
      "constant": true,
      "inputs": [
        {
          "name": "_lotOwner",
          "type": "address"
        }
      ],
      "name": "convertLotIdsByAddress",
      "outputs": [
        {
          "name": "",
          "type": "bytes32[]"
        }
      ],
      "payable": false,
      "stateMutability": "view",
      "type": "function"
    },
    {
      "constant": true,
      "inputs": [
        {
          "name": "_lotOwner",
          "type": "address"
        }
      ],
      "name": "totalConvertLotsByAddress",
      "outputs": [
        {
          "name": "",
          "type": "uint256"
        }
      ],
      "payable": false,
      "stateMutability": "view",
      "type": "function"
    },
    {
      "constant": true,
      "inputs": [
        {
          "name": "_convertLotId",
          "type": "bytes32"
        }
      ],
      "name": "convertLotById",
      "outputs": [
        {
          "name": "",
          "type": "bytes32"
        },
        {
          "name": "",
          "type": "address"
        },
        {
          "name": "",
          "type": "uint256"
        }
      ],
      "payable": false,
      "stateMutability": "view",
      "type": "function"
    }
  ],
  "bytecode": "0x60806040523480156200001157600080fd5b5060405160408062001466833981018060405260408110156200003357600080fd5b50805160209091015160008054600160a060020a0319163317905562000062826401000000006200007e810204565b620000768164010000000062000179810204565b505062000274565b600054600154604080517ff66afcac000000000000000000000000000000000000000000000000000000008152336004820152600160a060020a0393841660248201529290911660448301525173__AOLibrary_____________________________9163f66afcac916064808301926020929190829003018186803b1580156200010757600080fd5b505af41580156200011c573d6000803e3d6000fd5b505050506040513d60208110156200013357600080fd5b505115156200014157600080fd5b600160a060020a03811615156200015757600080fd5b60038054600160a060020a031916600160a060020a0392909216919091179055565b600054600154604080517ff66afcac000000000000000000000000000000000000000000000000000000008152336004820152600160a060020a0393841660248201529290911660448301525173__AOLibrary_____________________________9163f66afcac916064808301926020929190829003018186803b1580156200020257600080fd5b505af415801562000217573d6000803e3d6000fd5b505050506040513d60208110156200022e57600080fd5b505115156200023c57600080fd5b600160a060020a03811615156200025257600080fd5b60018054600160a060020a031916600160a060020a0392909216919091179055565b6111e280620002846000396000f3fe608060405234801561001057600080fd5b5060043610610190576000357c01000000000000000000000000000000000000000000000000000000009004806353d6fd59116100fb578063af339ee4116100b4578063f2fde38b1161008e578063f2fde38b14610510578063f39cce0114610536578063f5bd48c41461055c578063f97106b51461058257610190565b8063af339ee414610495578063d58e1758146104b2578063d9c93ccd146104d857610190565b806353d6fd59146103bf57806354f7dd8c146103ef5780635cfaf2ef1461041b5780637056d1f4146104415780639b19251a14610467578063a9b6b38e1461048d57610190565b8063360f277b1161014d578063360f277b1461030e5780633be92863146103165780633c56b0111461035957806341682d971461037d578063424cfd21146103855780634ef033f0146103b757610190565b8063080e74f714610195578063178a8f34146101e057806328948e5b146102565780632ffeef771461029a57806330a331d1146102a2578063324b8ad2146102e8575b600080fd5b6101b2600480360360208110156101ab57600080fd5b50356105a8565b60408051948552600160a060020a039093166020850152838301919091526060830152519081900360800190f35b610206600480360360208110156101f657600080fd5b5035600160a060020a031661060b565b60408051602080825283518183015283519192839290830191858101910280838360005b8381101561024257818101518382015260200161022a565b505050509050019250505060405180910390f35b6102886004803603606081101561026c57600080fd5b50600160a060020a038135169060208101359060400135610677565b60408051918252519081900360200190f35b6102886106c8565b6102d4600480360360608110156102b857600080fd5b50600160a060020a0381351690602081013590604001356106ce565b604080519115158252519081900360200190f35b610288600480360360208110156102fe57600080fd5b5035600160a060020a031661081c565b610288610837565b6103336004803603602081101561032c57600080fd5b503561083d565b60408051938452600160a060020a03909216602084015282820152519081900360600190f35b610361610892565b60408051600160a060020a039092168252519081900360200190f35b6102886108a1565b6102d46004803603606081101561039b57600080fd5b50600160a060020a0381351690602081013590604001356108a7565b6103616109f5565b6103ed600480360360408110156103d557600080fd5b50600160a060020a0381351690602001351515610a04565b005b6101b26004803603604081101561040557600080fd5b50600160a060020a038135169060200135610aed565b6103ed6004803603602081101561043157600080fd5b5035600160a060020a0316610bb3565b6102066004803603602081101561045757600080fd5b5035600160a060020a0316610ca0565b6102d46004803603602081101561047d57600080fd5b5035600160a060020a0316610d0a565b610361610d1f565b610333600480360360208110156104ab57600080fd5b5035610d2e565b610288600480360360208110156104c857600080fd5b5035600160a060020a0316610d83565b610288600480360360808110156104ee57600080fd5b50600160a060020a038135169060208101359060408101359060600135610d9e565b6103ed6004803603602081101561052657600080fd5b5035600160a060020a0316610dcd565b6102066004803603602081101561054c57600080fd5b5035600160a060020a0316610eba565b6102886004803603602081101561057257600080fd5b5035600160a060020a0316610f24565b6103ed6004803603602081101561059857600080fd5b5035600160a060020a0316610f3f565b6000806000806105b661116f565b50505060009283525050600760209081526040918290208251608081018452815480825260018301549382018490526002830154600160a060020a031694820185905260039092015460609091018190529093565b600160a060020a0381166000908152600a602090815260409182902080548351818402810184019094528084526060939283018282801561066b57602002820191906000526020600020905b815481526020019060010190808311610657575b50505050509050919050565b600354600090600160a060020a0316331461069157600080fd5b600160a060020a03841615156106a657600080fd5b600083116106b357600080fd5b6106c0848484600061102c565b949350505050565b60065481565b600354600090600160a060020a031633146106e857600080fd5b60058054600190810191829055604080516c01000000000000000000000000308102602080840191909152600160a060020a03808b169092026034840152604880840196909652835180840390960186526068909201835284519482019490942060008181526008909252919020909101549091161561076757600080fd5b60008181526008602090815260408083208481556001808201805473ffffffffffffffffffffffffffffffffffffffff1916600160a060020a038c81169182178355600285018c8155918852600b87528588208054948501815588529686902090920187905582549054915484519081529485018990528351929590949116927f6c5992d9f99885465942ae05b2bcc358a509184bb262ec9bfe242ccdc42d1a0392918290030190a350600195945050505050565b600160a060020a03166000908152600b602052604090205490565b60045481565b600080600061084a611196565b50505060009182525060086020908152604091829020825160608101845281548082526001830154600160a060020a0316938201849052600290920154930183905292909190565b600354600160a060020a031681565b60055481565b600354600090600160a060020a031633146108c157600080fd5b60068054600190810191829055604080516c01000000000000000000000000308102602080840191909152600160a060020a03808b169092026034840152604880840196909652835180840390960186526068909201835284519482019490942060008181526009909252919020909101549091161561094057600080fd5b60008181526009602090815260408083208481556001808201805473ffffffffffffffffffffffffffffffffffffffff1916600160a060020a038c81169182178355600285018c8155918852600c87528588208054948501815588529686902090920187905582549054915484519081529485018990528351929590949116927f24f057e925d9fc5c8b912d57da9cf8bbcf393fa8c87db8005d378fe9f828e7ba92918290030190a350600195945050505050565b600154600160a060020a031681565b6000546001546040805160e260020a633d9abf2b028152336004820152600160a060020a0393841660248201529290911660448301525173__AOLibrary_____________________________9163f66afcac916064808301926020929190829003018186803b158015610a7657600080fd5b505af4158015610a8a573d6000803e3d6000fd5b505050506040513d6020811015610aa057600080fd5b50511515610aad57600080fd5b600160a060020a0382161515610ac257600080fd5b600160a060020a03919091166000908152600260205260409020805460ff1916911515919091179055565b600160a060020a0382166000908152600a60205260408120548190819081908510610b1757600080fd5b610b1f61116f565b600160a060020a0387166000908152600a602052604081208054600792919089908110610b4857fe5b600091825260208083209190910154835282810193909352604091820190208151608081018352815480825260018301549482018590526002830154600160a060020a03169382018490526003909201546060909101819052909a9199509197509095509350505050565b6000546001546040805160e260020a633d9abf2b028152336004820152600160a060020a0393841660248201529290911660448301525173__AOLibrary_____________________________9163f66afcac916064808301926020929190829003018186803b158015610c2557600080fd5b505af4158015610c39573d6000803e3d6000fd5b505050506040513d6020811015610c4f57600080fd5b50511515610c5c57600080fd5b600160a060020a0381161515610c7157600080fd5b6001805473ffffffffffffffffffffffffffffffffffffffff1916600160a060020a0392909216919091179055565b600160a060020a0381166000908152600b602090815260409182902080548351818402810184019094528084526060939283018282801561066b57602002820191906000526020600020908154815260200190600101908083116106575750505050509050919050565b60026020526000908152604090205460ff1681565b600054600160a060020a031681565b6000806000610d3b611196565b50505060009182525060096020908152604091829020825160608101845281548082526001830154600160a060020a0316938201849052600290920154930183905292909190565b600160a060020a03166000908152600c602052604090205490565b600354600090600160a060020a03163314610db857600080fd5b610dc48585858561102c565b95945050505050565b6000546001546040805160e260020a633d9abf2b028152336004820152600160a060020a0393841660248201529290911660448301525173__AOLibrary_____________________________9163f66afcac916064808301926020929190829003018186803b158015610e3f57600080fd5b505af4158015610e53573d6000803e3d6000fd5b505050506040513d6020811015610e6957600080fd5b50511515610e7657600080fd5b600160a060020a0381161515610e8b57600080fd5b6000805473ffffffffffffffffffffffffffffffffffffffff1916600160a060020a0392909216919091179055565b600160a060020a0381166000908152600c602090815260409182902080548351818402810184019094528084526060939283018282801561066b57602002820191906000526020600020908154815260200190600101908083116106575750505050509050919050565b600160a060020a03166000908152600a602052604090205490565b6000546001546040805160e260020a633d9abf2b028152336004820152600160a060020a0393841660248201529290911660448301525173__AOLibrary_____________________________9163f66afcac916064808301926020929190829003018186803b158015610fb157600080fd5b505af4158015610fc5573d6000803e3d6000fd5b505050506040513d6020811015610fdb57600080fd5b50511515610fe857600080fd5b600160a060020a0381161515610ffd57600080fd5b6003805473ffffffffffffffffffffffffffffffffffffffff1916600160a060020a0392909216919091179055565b6004805460010190819055604080516c01000000000000000000000000308102602080840191909152600160a060020a03808a16909202603484015260488084019590955283518084039095018552606890920183528351938201939093206000818152600790925291812060020154909216156110a957600080fd5b60008181526007602090815260408083208481556001808201898155600283018054600160a060020a03808f1673ffffffffffffffffffffffffffffffffffffffff1990921682178355600386018e8155918952600a88528689208054958601815589529787902090930188905583549054915492548551938452958301959095528184018990529251919492909216917f20dcffcce6f33b394371fed8876a2562e3110ed8dbdc448b593a2680c7330a03919081900360600190a35095945050505050565b60408051608081018252600080825260208201819052918101829052606081019190915290565b60408051606081018252600080825260208201819052918101919091529056fea165627a7a7230582046fff49f7c5682791c9e1edba62611d0acabc01dbd58644c30b41693c7edb9c20029",
  "source": "pragma solidity ^0.5.4;\n\nimport './SafeMath.sol';\nimport './AOLibrary.sol';\nimport './TheAO.sol';\nimport './IAOIonLot.sol';\n\n/**\n * @title AOIonLot\n */\ncontract AOIonLot is TheAO {\n\tusing SafeMath for uint256;\n\n\taddress public aoIonAddress;\n\n\tuint256 public totalLots;\n\tuint256 public totalBurnLots;\n\tuint256 public totalConvertLots;\n\n\t/**\n\t * Stores Lot creation data (during network exchange)\n\t */\n\tstruct Lot {\n\t\tbytes32 lotId;\n\t\tuint256 multiplier;\t// This value is in 10^6, so 1000000 = 1\n\t\taddress lotOwner;\n\t\tuint256 amount;\n\t}\n\n\t/**\n\t * Struct to store info when account burns primordial ion\n\t */\n\tstruct BurnLot {\n\t\tbytes32 burnLotId;\n\t\taddress lotOwner;\n\t\tuint256 amount;\n\t}\n\n\t/**\n\t * Struct to store info when account converts network ion to primordial ion\n\t */\n\tstruct ConvertLot {\n\t\tbytes32 convertLotId;\n\t\taddress lotOwner;\n\t\tuint256 amount;\n\t}\n\n\t// Mapping from Lot ID to Lot object\n\tmapping (bytes32 => Lot) internal lots;\n\n\t// Mapping from Burn Lot ID to BurnLot object\n\tmapping (bytes32 => BurnLot) internal burnLots;\n\n\t// Mapping from Convert Lot ID to ConvertLot object\n\tmapping (bytes32 => ConvertLot) internal convertLots;\n\n\t// Mapping from owner to list of owned lot IDs\n\tmapping (address => bytes32[]) internal ownedLots;\n\n\t// Mapping from owner to list of owned burn lot IDs\n\tmapping (address => bytes32[]) internal ownedBurnLots;\n\n\t// Mapping from owner to list of owned convert lot IDs\n\tmapping (address => bytes32[]) internal ownedConvertLots;\n\n\t// Event to be broadcasted to public when a lot is created\n\t// multiplier value is in 10^6 to account for 6 decimal points\n\tevent LotCreation(address indexed lotOwner, bytes32 indexed lotId, uint256 multiplier, uint256 primordialAmount, uint256 networkBonusAmount);\n\n\t// Event to be broadcasted to public when burn lot is created (when account burns primordial ions)\n\tevent BurnLotCreation(address indexed lotOwner, bytes32 indexed burnLotId, uint256 burnAmount, uint256 multiplierAfterBurn);\n\n\t// Event to be broadcasted to public when convert lot is created (when account convert network ions to primordial ions)\n\tevent ConvertLotCreation(address indexed lotOwner, bytes32 indexed convertLotId, uint256 convertAmount, uint256 multiplierAfterConversion);\n\n\t/**\n\t * @dev Constructor function\n\t */\n\tconstructor(address _aoIonAddress, address _nameTAOPositionAddress) public {\n\t\tsetAOIonAddress(_aoIonAddress);\n\t\tsetNameTAOPositionAddress(_nameTAOPositionAddress);\n\t}\n\n\t/**\n\t * @dev Checks if the calling contract address is The AO\n\t *\t\tOR\n\t *\t\tIf The AO is set to a Name/TAO, then check if calling address is the Advocate\n\t */\n\tmodifier onlyTheAO {\n\t\trequire (AOLibrary.isTheAO(msg.sender, theAO, nameTAOPositionAddress));\n\t\t_;\n\t}\n\n\t/**\n\t * @dev Check if calling address is AOIon\n\t */\n\tmodifier onlyAOIon {\n\t\trequire (msg.sender == aoIonAddress);\n\t\t_;\n\t}\n\n\t/***** The AO ONLY METHODS *****/\n\t/**\n\t * @dev Transfer ownership of The AO to new address\n\t * @param _theAO The new address to be transferred\n\t */\n\tfunction transferOwnership(address _theAO) public onlyTheAO {\n\t\trequire (_theAO != address(0));\n\t\ttheAO = _theAO;\n\t}\n\n\t/**\n\t * @dev Whitelist `_account` address to transact on behalf of others\n\t * @param _account The address to whitelist\n\t * @param _whitelist Either to whitelist or not\n\t */\n\tfunction setWhitelist(address _account, bool _whitelist) public onlyTheAO {\n\t\trequire (_account != address(0));\n\t\twhitelist[_account] = _whitelist;\n\t}\n\n\t/**\n\t * @dev The AO set the AOIon Address\n\t * @param _aoIonAddress The address of AOIon\n\t */\n\tfunction setAOIonAddress(address _aoIonAddress) public onlyTheAO {\n\t\trequire (_aoIonAddress != address(0));\n\t\taoIonAddress = _aoIonAddress;\n\t}\n\n\t/**\n\t * @dev The AO set the NameTAOPosition Address\n\t * @param _nameTAOPositionAddress The address of NameTAOPosition\n\t */\n\tfunction setNameTAOPositionAddress(address _nameTAOPositionAddress) public onlyTheAO {\n\t\trequire (_nameTAOPositionAddress != address(0));\n\t\tnameTAOPositionAddress = _nameTAOPositionAddress;\n\t}\n\n\t/***** PUBLIC METHODS *****/\n\t/**\n\t * @dev Create a lot with `primordialAmount` of primordial ions with `_multiplier` for an `account`\n\t *\t\tduring network exchange, and reward `_networkBonusAmount` if exist\n\t * @param _account Address of the lot owner\n\t * @param _primordialAmount The amount of primordial ions to be stored in the lot\n\t * @param _multiplier The multiplier for this lot in (10 ** 6)\n\t * @param _networkBonusAmount The network ion bonus amount\n\t * @return Created lot Id\n\t */\n\tfunction createPrimordialLot(address _account, uint256 _primordialAmount, uint256 _multiplier, uint256 _networkBonusAmount) external onlyAOIon returns (bytes32) {\n\t\treturn _createWeightedMultiplierLot(_account, _primordialAmount, _multiplier, _networkBonusAmount);\n\t}\n\n\t/**\n\t * @dev Create a lot with `amount` of ions at `weightedMultiplier` for an `account`\n\t * @param _account Address of lot owner\n\t * @param _amount The amount of ions\n\t * @param _weightedMultiplier The multiplier of the lot (in 10^6)\n\t * @return bytes32 of new created lot ID\n\t */\n\tfunction createWeightedMultiplierLot(address _account, uint256 _amount, uint256 _weightedMultiplier) external onlyAOIon returns (bytes32) {\n\t\trequire (_account != address(0));\n\t\trequire (_amount > 0);\n\t\treturn _createWeightedMultiplierLot(_account, _amount, _weightedMultiplier, 0);\n\t}\n\n\t/**\n\t * @dev Return the lot information at a given ID\n\t * @param _lotId The lot ID in question\n\t * @return id of the lot\n\t * @return The lot owner address\n\t * @return multiplier of the lot in (10 ** 6)\n\t * @return Primordial ion amount in the lot\n\t */\n\tfunction lotById(bytes32 _lotId) external view returns (bytes32, address, uint256, uint256) {\n\t\tLot memory _lot = lots[_lotId];\n\t\treturn (_lot.lotId, _lot.lotOwner, _lot.multiplier, _lot.amount);\n\t}\n\n\t/**\n\t * @dev Return all lot IDs owned by an address\n\t * @param _lotOwner The address of the lot owner\n\t * @return array of lot IDs\n\t */\n\tfunction lotIdsByAddress(address _lotOwner) public view returns (bytes32[] memory) {\n\t\treturn ownedLots[_lotOwner];\n\t}\n\n\t/**\n\t * @dev Return the total lots owned by an address\n\t * @param _lotOwner The address of the lot owner\n\t * @return total lots owner by the address\n\t */\n\tfunction totalLotsByAddress(address _lotOwner) external view returns (uint256) {\n\t\treturn ownedLots[_lotOwner].length;\n\t}\n\n\t/**\n\t * @dev Return the lot information at a given index of the lots list of the requested owner\n\t * @param _lotOwner The address owning the lots list to be accessed\n\t * @param _index uint256 representing the index to be accessed of the requested lots list\n\t * @return id of the lot\n\t * @return The address of the lot owner\n\t * @return multiplier of the lot in (10 ** 6)\n\t * @return Primordial ion amount in the lot\n\t */\n\tfunction lotOfOwnerByIndex(address _lotOwner, uint256 _index) public view returns (bytes32, address, uint256, uint256) {\n\t\trequire (_index < ownedLots[_lotOwner].length);\n\t\tLot memory _lot = lots[ownedLots[_lotOwner][_index]];\n\t\treturn (_lot.lotId, _lot.lotOwner, _lot.multiplier, _lot.amount);\n\t}\n\n\t/**\n\t * @dev Store burn lot information\n\t * @param _account The address of the account\n\t * @param _amount The amount of primordial ions to burn\n\t * @param _multiplierAfterBurn The owner's weighted multiplier after burn\n\t * @return true on success\n\t */\n\tfunction createBurnLot(address _account, uint256 _amount, uint256 _multiplierAfterBurn) external onlyAOIon returns (bool) {\n\t\ttotalBurnLots++;\n\n\t\t// Generate burn lot Id\n\t\tbytes32 burnLotId = keccak256(abi.encodePacked(this, _account, totalBurnLots));\n\n\t\t// Make sure no one owns this lot yet\n\t\trequire (burnLots[burnLotId].lotOwner == address(0));\n\n\t\tBurnLot storage burnLot = burnLots[burnLotId];\n\t\tburnLot.burnLotId = burnLotId;\n\t\tburnLot.lotOwner = _account;\n\t\tburnLot.amount = _amount;\n\t\townedBurnLots[_account].push(burnLotId);\n\t\temit BurnLotCreation(burnLot.lotOwner, burnLot.burnLotId, burnLot.amount, _multiplierAfterBurn);\n\t\treturn true;\n\t}\n\n\t/**\n\t * @dev Return all Burn Lot IDs owned by an address\n\t * @param _lotOwner The address of the burn lot owner\n\t * @return array of Burn Lot IDs\n\t */\n\tfunction burnLotIdsByAddress(address _lotOwner) public view returns (bytes32[] memory) {\n\t\treturn ownedBurnLots[_lotOwner];\n\t}\n\n\t/**\n\t * @dev Return the total burn lots owned by an address\n\t * @param _lotOwner The address of the burn lot owner\n\t * @return total burn lots owner by the address\n\t */\n\tfunction totalBurnLotsByAddress(address _lotOwner) public view returns (uint256) {\n\t\treturn ownedBurnLots[_lotOwner].length;\n\t}\n\n\t/**\n\t * @dev Return the burn lot information at a given ID\n\t * @param _burnLotId The burn lot ID in question\n\t * @return id of the lot\n\t * @return The address of the burn lot owner\n\t * @return Primordial ion amount in the burn lot\n\t */\n\tfunction burnLotById(bytes32 _burnLotId) public view returns (bytes32, address, uint256) {\n\t\tBurnLot memory _burnLot = burnLots[_burnLotId];\n\t\treturn (_burnLot.burnLotId, _burnLot.lotOwner, _burnLot.amount);\n\t}\n\n\t/**\n\t * @dev Store convert lot information\n\t * @param _account The address of the account\n\t * @param _amount The amount to convert\n\t * @param _multiplierAfterConversion The owner's weighted multiplier after conversion\n\t * @return true on success\n\t */\n\tfunction createConvertLot(address _account, uint256 _amount, uint256 _multiplierAfterConversion) external onlyAOIon returns (bool) {\n\t\t// Store convert lot info\n\t\ttotalConvertLots++;\n\n\t\t// Generate convert lot Id\n\t\tbytes32 convertLotId = keccak256(abi.encodePacked(this, _account, totalConvertLots));\n\n\t\t// Make sure no one owns this lot yet\n\t\trequire (convertLots[convertLotId].lotOwner == address(0));\n\n\t\tConvertLot storage convertLot = convertLots[convertLotId];\n\t\tconvertLot.convertLotId = convertLotId;\n\t\tconvertLot.lotOwner = _account;\n\t\tconvertLot.amount = _amount;\n\t\townedConvertLots[_account].push(convertLotId);\n\t\temit ConvertLotCreation(convertLot.lotOwner, convertLot.convertLotId, convertLot.amount, _multiplierAfterConversion);\n\t\treturn true;\n\t}\n\n\t/**\n\t * @dev Return all Convert Lot IDs owned by an address\n\t * @param _lotOwner The address of the convert lot owner\n\t * @return array of Convert Lot IDs\n\t */\n\tfunction convertLotIdsByAddress(address _lotOwner) public view returns (bytes32[] memory) {\n\t\treturn ownedConvertLots[_lotOwner];\n\t}\n\n\t/**\n\t * @dev Return the total convert lots owned by an address\n\t * @param _lotOwner The address of the convert lot owner\n\t * @return total convert lots owner by the address\n\t */\n\tfunction totalConvertLotsByAddress(address _lotOwner) public view returns (uint256) {\n\t\treturn ownedConvertLots[_lotOwner].length;\n\t}\n\n\t/**\n\t * @dev Return the convert lot information at a given ID\n\t * @param _convertLotId The convert lot ID in question\n\t * @return id of the lot\n\t * @return The address of the convert lot owner\n\t * @return Primordial ion amount in the convert lot\n\t */\n\tfunction convertLotById(bytes32 _convertLotId) public view returns (bytes32, address, uint256) {\n\t\tConvertLot memory _convertLot = convertLots[_convertLotId];\n\t\treturn (_convertLot.convertLotId, _convertLot.lotOwner, _convertLot.amount);\n\t}\n\n\t/***** INTERNAL METHOD *****/\n\t/**\n\t * @dev Actual creating a lot with `amount` of ions at `weightedMultiplier` for an `account`\n\t * @param _account Address of lot owner\n\t * @param _amount The amount of ions\n\t * @param _weightedMultiplier The multiplier of the lot (in 10^6)\n\t * @param _networkBonusAmount The network ion bonus amount\n\t * @return bytes32 of new created lot ID\n\t */\n\tfunction _createWeightedMultiplierLot(address _account, uint256 _amount, uint256 _weightedMultiplier, uint256 _networkBonusAmount) internal returns (bytes32) {\n\t\ttotalLots++;\n\n\t\t// Generate lotId\n\t\tbytes32 lotId = keccak256(abi.encodePacked(address(this), _account, totalLots));\n\n\t\t// Make sure no one owns this lot yet\n\t\trequire (lots[lotId].lotOwner == address(0));\n\n\t\tLot storage lot = lots[lotId];\n\t\tlot.lotId = lotId;\n\t\tlot.multiplier = _weightedMultiplier;\n\t\tlot.lotOwner = _account;\n\t\tlot.amount = _amount;\n\t\townedLots[_account].push(lotId);\n\n\t\temit LotCreation(lot.lotOwner, lot.lotId, lot.multiplier, lot.amount, _networkBonusAmount);\n\t\treturn lotId;\n\t}\n}\n",
  "sourcePath": "/usr/local/ao-contracts/contracts/AOIonLot.sol",
  "compiler": {
    "name": "solc",
    "version": "0.5.4+commit.9549d8ff.Emscripten.clang"
  },
  "schemaVersion": "3.0.2",
  "updatedAt": "2019-03-21T02:41:21.125Z",
  "devdoc": {
    "methods": {
      "burnLotById(bytes32)": {
        "details": "Return the burn lot information at a given ID",
        "params": {
          "_burnLotId": "The burn lot ID in question"
        },
        "return": "id of the lotThe address of the burn lot ownerPrimordial ion amount in the burn lot"
      },
      "burnLotIdsByAddress(address)": {
        "details": "Return all Burn Lot IDs owned by an address",
        "params": {
          "_lotOwner": "The address of the burn lot owner"
        },
        "return": "array of Burn Lot IDs"
      },
      "constructor": {
        "details": "Constructor function"
      },
      "convertLotById(bytes32)": {
        "details": "Return the convert lot information at a given ID",
        "params": {
          "_convertLotId": "The convert lot ID in question"
        },
        "return": "id of the lotThe address of the convert lot ownerPrimordial ion amount in the convert lot"
      },
      "convertLotIdsByAddress(address)": {
        "details": "Return all Convert Lot IDs owned by an address",
        "params": {
          "_lotOwner": "The address of the convert lot owner"
        },
        "return": "array of Convert Lot IDs"
      },
      "createBurnLot(address,uint256,uint256)": {
        "details": "Store burn lot information",
        "params": {
          "_account": "The address of the account",
          "_amount": "The amount of primordial ions to burn",
          "_multiplierAfterBurn": "The owner's weighted multiplier after burn"
        },
        "return": "true on success"
      },
      "createConvertLot(address,uint256,uint256)": {
        "details": "Store convert lot information",
        "params": {
          "_account": "The address of the account",
          "_amount": "The amount to convert",
          "_multiplierAfterConversion": "The owner's weighted multiplier after conversion"
        },
        "return": "true on success"
      },
      "createPrimordialLot(address,uint256,uint256,uint256)": {
        "details": "Create a lot with `primordialAmount` of primordial ions with `_multiplier` for an `account`\tduring network exchange, and reward `_networkBonusAmount` if exist",
        "params": {
          "_account": "Address of the lot owner",
          "_multiplier": "The multiplier for this lot in (10 ** 6)",
          "_networkBonusAmount": "The network ion bonus amount",
          "_primordialAmount": "The amount of primordial ions to be stored in the lot"
        },
        "return": "Created lot Id"
      },
      "createWeightedMultiplierLot(address,uint256,uint256)": {
        "details": "Create a lot with `amount` of ions at `weightedMultiplier` for an `account`",
        "params": {
          "_account": "Address of lot owner",
          "_amount": "The amount of ions",
          "_weightedMultiplier": "The multiplier of the lot (in 10^6)"
        },
        "return": "bytes32 of new created lot ID"
      },
      "lotById(bytes32)": {
        "details": "Return the lot information at a given ID",
        "params": {
          "_lotId": "The lot ID in question"
        },
        "return": "id of the lotThe lot owner addressmultiplier of the lot in (10 ** 6)Primordial ion amount in the lot"
      },
      "lotIdsByAddress(address)": {
        "details": "Return all lot IDs owned by an address",
        "params": {
          "_lotOwner": "The address of the lot owner"
        },
        "return": "array of lot IDs"
      },
      "lotOfOwnerByIndex(address,uint256)": {
        "details": "Return the lot information at a given index of the lots list of the requested owner",
        "params": {
          "_index": "uint256 representing the index to be accessed of the requested lots list",
          "_lotOwner": "The address owning the lots list to be accessed"
        },
        "return": "id of the lotThe address of the lot ownermultiplier of the lot in (10 ** 6)Primordial ion amount in the lot"
      },
      "setAOIonAddress(address)": {
        "details": "The AO set the AOIon Address",
        "params": {
          "_aoIonAddress": "The address of AOIon"
        }
      },
      "setNameTAOPositionAddress(address)": {
        "details": "The AO set the NameTAOPosition Address",
        "params": {
          "_nameTAOPositionAddress": "The address of NameTAOPosition"
        }
      },
      "setWhitelist(address,bool)": {
        "details": "Whitelist `_account` address to transact on behalf of others",
        "params": {
          "_account": "The address to whitelist",
          "_whitelist": "Either to whitelist or not"
        }
      },
      "totalBurnLotsByAddress(address)": {
        "details": "Return the total burn lots owned by an address",
        "params": {
          "_lotOwner": "The address of the burn lot owner"
        },
        "return": "total burn lots owner by the address"
      },
      "totalConvertLotsByAddress(address)": {
        "details": "Return the total convert lots owned by an address",
        "params": {
          "_lotOwner": "The address of the convert lot owner"
        },
        "return": "total convert lots owner by the address"
      },
      "totalLotsByAddress(address)": {
        "details": "Return the total lots owned by an address",
        "params": {
          "_lotOwner": "The address of the lot owner"
        },
        "return": "total lots owner by the address"
      },
      "transferOwnership(address)": {
        "details": "Transfer ownership of The AO to new address",
        "params": {
          "_theAO": "The new address to be transferred"
        }
      }
    },
    "title": "AOIonLot"
  },
  "userdoc": {
    "methods": {}
  }
}