{
	"contractName": "AOKilo",
	"abi": [
		{
			"constant": false,
			"inputs": [
				{
					"name": "newSellPrice",
					"type": "uint256"
				},
				{
					"name": "newBuyPrice",
					"type": "uint256"
				}
			],
			"name": "setPrices",
			"outputs": [],
			"payable": false,
			"stateMutability": "nonpayable",
			"type": "function"
		},
		{
			"constant": true,
			"inputs": [],
			"name": "name",
			"outputs": [
				{
					"name": "",
					"type": "string"
				}
			],
			"payable": false,
			"stateMutability": "view",
			"type": "function"
		},
		{
			"constant": true,
			"inputs": [
				{
					"name": "_lotId",
					"type": "bytes32"
				}
			],
			"name": "lotById",
			"outputs": [
				{
					"name": "",
					"type": "bytes32"
				},
				{
					"name": "",
					"type": "address"
				},
				{
					"name": "",
					"type": "uint256"
				},
				{
					"name": "",
					"type": "uint256"
				}
			],
			"payable": false,
			"stateMutability": "view",
			"type": "function"
		},
		{
			"constant": false,
			"inputs": [
				{
					"name": "_spender",
					"type": "address"
				},
				{
					"name": "_value",
					"type": "uint256"
				}
			],
			"name": "approve",
			"outputs": [
				{
					"name": "success",
					"type": "bool"
				}
			],
			"payable": false,
			"stateMutability": "nonpayable",
			"type": "function"
		},
		{
			"constant": true,
			"inputs": [],
			"name": "powerOfTen",
			"outputs": [
				{
					"name": "",
					"type": "uint256"
				}
			],
			"payable": false,
			"stateMutability": "view",
			"type": "function"
		},
		{
			"constant": true,
			"inputs": [
				{
					"name": "_purchaseAmount",
					"type": "uint256"
				}
			],
			"name": "calculateMultiplierAndBonus",
			"outputs": [
				{
					"name": "",
					"type": "uint256"
				},
				{
					"name": "",
					"type": "uint256"
				},
				{
					"name": "",
					"type": "uint256"
				}
			],
			"payable": false,
			"stateMutability": "view",
			"type": "function"
		},
		{
			"constant": true,
			"inputs": [],
			"name": "aoDevTeam1",
			"outputs": [
				{
					"name": "",
					"type": "address"
				}
			],
			"payable": false,
			"stateMutability": "view",
			"type": "function"
		},
		{
			"constant": true,
			"inputs": [
				{
					"name": "",
					"type": "address"
				},
				{
					"name": "",
					"type": "uint256"
				}
			],
			"name": "primordialStakedBalance",
			"outputs": [
				{
					"name": "",
					"type": "uint256"
				}
			],
			"payable": false,
			"stateMutability": "view",
			"type": "function"
		},
		{
			"constant": true,
			"inputs": [
				{
					"name": "_lotOwner",
					"type": "address"
				}
			],
			"name": "lotIdsByAddress",
			"outputs": [
				{
					"name": "",
					"type": "bytes32[]"
				}
			],
			"payable": false,
			"stateMutability": "view",
			"type": "function"
		},
		{
			"constant": true,
			"inputs": [],
			"name": "totalSupply",
			"outputs": [
				{
					"name": "",
					"type": "uint256"
				}
			],
			"payable": false,
			"stateMutability": "view",
			"type": "function"
		},
		{
			"constant": true,
			"inputs": [],
			"name": "aoSettingAddress",
			"outputs": [
				{
					"name": "",
					"type": "address"
				}
			],
			"payable": false,
			"stateMutability": "view",
			"type": "function"
		},
		{
			"constant": false,
			"inputs": [
				{
					"name": "_from",
					"type": "address"
				},
				{
					"name": "_to",
					"type": "address"
				},
				{
					"name": "_value",
					"type": "uint256"
				}
			],
			"name": "transferFrom",
			"outputs": [
				{
					"name": "success",
					"type": "bool"
				}
			],
			"payable": false,
			"stateMutability": "nonpayable",
			"type": "function"
		},
		{
			"constant": false,
			"inputs": [
				{
					"name": "target",
					"type": "address"
				},
				{
					"name": "mintedAmount",
					"type": "uint256"
				}
			],
			"name": "mintTokenEscrow",
			"outputs": [
				{
					"name": "",
					"type": "bool"
				}
			],
			"payable": false,
			"stateMutability": "nonpayable",
			"type": "function"
		},
		{
			"constant": true,
			"inputs": [
				{
					"name": "_lotOwner",
					"type": "address"
				}
			],
			"name": "weightedMultiplierByAddress",
			"outputs": [
				{
					"name": "",
					"type": "uint256"
				}
			],
			"payable": false,
			"stateMutability": "view",
			"type": "function"
		},
		{
			"constant": true,
			"inputs": [],
			"name": "primordialSellPrice",
			"outputs": [
				{
					"name": "",
					"type": "uint256"
				}
			],
			"payable": false,
			"stateMutability": "view",
			"type": "function"
		},
		{
			"constant": true,
			"inputs": [],
			"name": "totalConvertLots",
			"outputs": [
				{
					"name": "",
					"type": "uint256"
				}
			],
			"payable": false,
			"stateMutability": "view",
			"type": "function"
		},
		{
			"constant": true,
			"inputs": [],
			"name": "decimals",
			"outputs": [
				{
					"name": "",
					"type": "uint8"
				}
			],
			"payable": false,
			"stateMutability": "view",
			"type": "function"
		},
		{
			"constant": false,
			"inputs": [
				{
					"name": "_from",
					"type": "address"
				},
				{
					"name": "_value",
					"type": "uint256"
				}
			],
			"name": "stakeFrom",
			"outputs": [
				{
					"name": "",
					"type": "bool"
				}
			],
			"payable": false,
			"stateMutability": "nonpayable",
			"type": "function"
		},
		{
			"constant": true,
			"inputs": [
				{
					"name": "_lotOwner",
					"type": "address"
				}
			],
			"name": "totalBurnLotsByAddress",
			"outputs": [
				{
					"name": "",
					"type": "uint256"
				}
			],
			"payable": false,
			"stateMutability": "view",
			"type": "function"
		},
		{
			"constant": true,
			"inputs": [],
			"name": "totalLots",
			"outputs": [
				{
					"name": "",
					"type": "uint256"
				}
			],
			"payable": false,
			"stateMutability": "view",
			"type": "function"
		},
		{
			"constant": true,
			"inputs": [
				{
					"name": "_target",
					"type": "address"
				}
			],
			"name": "maxMultiplierByAddress",
			"outputs": [
				{
					"name": "",
					"type": "uint256"
				}
			],
			"payable": false,
			"stateMutability": "view",
			"type": "function"
		},
		{
			"constant": false,
			"inputs": [
				{
					"name": "_spender",
					"type": "address"
				},
				{
					"name": "_value",
					"type": "uint256"
				},
				{
					"name": "_primordialValue",
					"type": "uint256"
				},
				{
					"name": "_extraData",
					"type": "bytes"
				}
			],
			"name": "approveTokensAndCall",
			"outputs": [
				{
					"name": "success",
					"type": "bool"
				}
			],
			"payable": false,
			"stateMutability": "nonpayable",
			"type": "function"
		},
		{
			"constant": true,
			"inputs": [
				{
					"name": "_burnLotId",
					"type": "bytes32"
				}
			],
			"name": "burnLotById",
			"outputs": [
				{
					"name": "",
					"type": "bytes32"
				},
				{
					"name": "",
					"type": "address"
				},
				{
					"name": "",
					"type": "uint256"
				}
			],
			"payable": false,
			"stateMutability": "view",
			"type": "function"
		},
		{
			"constant": true,
			"inputs": [],
			"name": "totalBurnLots",
			"outputs": [
				{
					"name": "",
					"type": "uint256"
				}
			],
			"payable": false,
			"stateMutability": "view",
			"type": "function"
		},
		{
			"constant": false,
			"inputs": [
				{
					"name": "_value",
					"type": "uint256"
				}
			],
			"name": "burn",
			"outputs": [
				{
					"name": "success",
					"type": "bool"
				}
			],
			"payable": false,
			"stateMutability": "nonpayable",
			"type": "function"
		},
		{
			"constant": false,
			"inputs": [],
			"name": "buyPrimordialToken",
			"outputs": [],
			"payable": true,
			"stateMutability": "payable",
			"type": "function"
		},
		{
			"constant": true,
			"inputs": [],
			"name": "sellPrice",
			"outputs": [
				{
					"name": "",
					"type": "uint256"
				}
			],
			"payable": false,
			"stateMutability": "view",
			"type": "function"
		},
		{
			"constant": false,
			"inputs": [
				{
					"name": "_value",
					"type": "uint256"
				}
			],
			"name": "burnPrimordialToken",
			"outputs": [
				{
					"name": "success",
					"type": "bool"
				}
			],
			"payable": false,
			"stateMutability": "nonpayable",
			"type": "function"
		},
		{
			"constant": true,
			"inputs": [
				{
					"name": "",
					"type": "address"
				}
			],
			"name": "escrowedBalance",
			"outputs": [
				{
					"name": "",
					"type": "uint256"
				}
			],
			"payable": false,
			"stateMutability": "view",
			"type": "function"
		},
		{
			"constant": false,
			"inputs": [
				{
					"name": "_account",
					"type": "address"
				},
				{
					"name": "_whitelist",
					"type": "bool"
				}
			],
			"name": "setWhitelist",
			"outputs": [],
			"payable": false,
			"stateMutability": "nonpayable",
			"type": "function"
		},
		{
			"constant": true,
			"inputs": [
				{
					"name": "_lotOwner",
					"type": "address"
				},
				{
					"name": "_index",
					"type": "uint256"
				}
			],
			"name": "lotOfOwnerByIndex",
			"outputs": [
				{
					"name": "",
					"type": "bytes32"
				},
				{
					"name": "",
					"type": "address"
				},
				{
					"name": "",
					"type": "uint256"
				},
				{
					"name": "",
					"type": "uint256"
				}
			],
			"payable": false,
			"stateMutability": "view",
			"type": "function"
		},
		{
			"constant": true,
			"inputs": [
				{
					"name": "",
					"type": "address"
				}
			],
			"name": "primordialBalanceOf",
			"outputs": [
				{
					"name": "",
					"type": "uint256"
				}
			],
			"payable": false,
			"stateMutability": "view",
			"type": "function"
		},
		{
			"constant": false,
			"inputs": [
				{
					"name": "_spender",
					"type": "address"
				},
				{
					"name": "_value",
					"type": "uint256"
				},
				{
					"name": "_primordialValue",
					"type": "uint256"
				}
			],
			"name": "approveTokens",
			"outputs": [
				{
					"name": "success",
					"type": "bool"
				}
			],
			"payable": false,
			"stateMutability": "nonpayable",
			"type": "function"
		},
		{
			"constant": true,
			"inputs": [
				{
					"name": "",
					"type": "address"
				}
			],
			"name": "stakedBalance",
			"outputs": [
				{
					"name": "",
					"type": "uint256"
				}
			],
			"payable": false,
			"stateMutability": "view",
			"type": "function"
		},
		{
			"constant": false,
			"inputs": [
				{
					"name": "_from",
					"type": "address"
				},
				{
					"name": "_to",
					"type": "address"
				},
				{
					"name": "_value",
					"type": "uint256"
				}
			],
			"name": "transferPrimordialTokenFrom",
			"outputs": [
				{
					"name": "success",
					"type": "bool"
				}
			],
			"payable": false,
			"stateMutability": "nonpayable",
			"type": "function"
		},
		{
			"constant": true,
			"inputs": [],
			"name": "TOTAL_PRIMORDIAL_FOR_SALE",
			"outputs": [
				{
					"name": "",
					"type": "uint256"
				}
			],
			"payable": false,
			"stateMutability": "view",
			"type": "function"
		},
		{
			"constant": true,
			"inputs": [
				{
					"name": "_lotOwner",
					"type": "address"
				}
			],
			"name": "burnLotIdsByAddress",
			"outputs": [
				{
					"name": "",
					"type": "bytes32[]"
				}
			],
			"payable": false,
			"stateMutability": "view",
			"type": "function"
		},
		{
			"constant": true,
			"inputs": [
				{
					"name": "",
					"type": "address"
				}
			],
			"name": "balanceOf",
			"outputs": [
				{
					"name": "",
					"type": "uint256"
				}
			],
			"payable": false,
			"stateMutability": "view",
			"type": "function"
		},
		{
			"constant": true,
			"inputs": [],
			"name": "primordialBuyPrice",
			"outputs": [
				{
					"name": "",
					"type": "uint256"
				}
			],
			"payable": false,
			"stateMutability": "view",
			"type": "function"
		},
		{
			"constant": false,
			"inputs": [
				{
					"name": "_from",
					"type": "address"
				},
				{
					"name": "_value",
					"type": "uint256"
				}
			],
			"name": "unstakeFrom",
			"outputs": [
				{
					"name": "",
					"type": "bool"
				}
			],
			"payable": false,
			"stateMutability": "nonpayable",
			"type": "function"
		},
		{
			"constant": false,
			"inputs": [
				{
					"name": "_from",
					"type": "address"
				},
				{
					"name": "_value",
					"type": "uint256"
				},
				{
					"name": "_weightedMultiplier",
					"type": "uint256"
				}
			],
			"name": "unstakePrimordialTokenFrom",
			"outputs": [
				{
					"name": "",
					"type": "bool"
				}
			],
			"payable": false,
			"stateMutability": "nonpayable",
			"type": "function"
		},
		{
			"constant": false,
			"inputs": [
				{
					"name": "target",
					"type": "address"
				},
				{
					"name": "mintedAmount",
					"type": "uint256"
				}
			],
			"name": "mintToken",
			"outputs": [
				{
					"name": "",
					"type": "bool"
				}
			],
			"payable": false,
			"stateMutability": "nonpayable",
			"type": "function"
		},
		{
			"constant": false,
			"inputs": [
				{
					"name": "_from",
					"type": "address"
				},
				{
					"name": "_value",
					"type": "uint256"
				}
			],
			"name": "burnFrom",
			"outputs": [
				{
					"name": "success",
					"type": "bool"
				}
			],
			"payable": false,
			"stateMutability": "nonpayable",
			"type": "function"
		},
		{
			"constant": false,
			"inputs": [
				{
					"name": "_from",
					"type": "address"
				},
				{
					"name": "_value",
					"type": "uint256"
				},
				{
					"name": "_weightedMultiplier",
					"type": "uint256"
				}
			],
			"name": "stakePrimordialTokenFrom",
			"outputs": [
				{
					"name": "",
					"type": "bool"
				}
			],
			"payable": false,
			"stateMutability": "nonpayable",
			"type": "function"
		},
		{
			"constant": true,
			"inputs": [],
			"name": "primordialTotalSupply",
			"outputs": [
				{
					"name": "",
					"type": "uint256"
				}
			],
			"payable": false,
			"stateMutability": "view",
			"type": "function"
		},
		{
			"constant": true,
			"inputs": [],
			"name": "buyPrice",
			"outputs": [
				{
					"name": "",
					"type": "uint256"
				}
			],
			"payable": false,
			"stateMutability": "view",
			"type": "function"
		},
		{
			"constant": false,
			"inputs": [
				{
					"name": "_from",
					"type": "address"
				},
				{
					"name": "_to",
					"type": "address"
				},
				{
					"name": "_value",
					"type": "uint256"
				}
			],
			"name": "escrowFrom",
			"outputs": [
				{
					"name": "",
					"type": "bool"
				}
			],
			"payable": false,
			"stateMutability": "nonpayable",
			"type": "function"
		},
		{
			"constant": false,
			"inputs": [
				{
					"name": "_from",
					"type": "address"
				},
				{
					"name": "_value",
					"type": "uint256"
				}
			],
			"name": "unescrowFrom",
			"outputs": [
				{
					"name": "",
					"type": "bool"
				}
			],
			"payable": false,
			"stateMutability": "nonpayable",
			"type": "function"
		},
		{
			"constant": false,
			"inputs": [
				{
					"name": "_value",
					"type": "uint256"
				},
				{
					"name": "_primordialValue",
					"type": "uint256"
				}
			],
			"name": "burnTokens",
			"outputs": [
				{
					"name": "success",
					"type": "bool"
				}
			],
			"payable": false,
			"stateMutability": "nonpayable",
			"type": "function"
		},
		{
			"constant": true,
			"inputs": [],
			"name": "symbol",
			"outputs": [
				{
					"name": "",
					"type": "string"
				}
			],
			"payable": false,
			"stateMutability": "view",
			"type": "function"
		},
		{
			"constant": true,
			"inputs": [
				{
					"name": "",
					"type": "address"
				}
			],
			"name": "whitelist",
			"outputs": [
				{
					"name": "",
					"type": "bool"
				}
			],
			"payable": false,
			"stateMutability": "view",
			"type": "function"
		},
		{
			"constant": false,
			"inputs": [
				{
					"name": "_from",
					"type": "address"
				},
				{
					"name": "_to",
					"type": "address"
				},
				{
					"name": "_value",
					"type": "uint256"
				}
			],
			"name": "whitelistTransferFrom",
			"outputs": [
				{
					"name": "success",
					"type": "bool"
				}
			],
			"payable": false,
			"stateMutability": "nonpayable",
			"type": "function"
		},
		{
			"constant": true,
			"inputs": [],
			"name": "networkExchangeEnded",
			"outputs": [
				{
					"name": "",
					"type": "bool"
				}
			],
			"payable": false,
			"stateMutability": "view",
			"type": "function"
		},
		{
			"constant": false,
			"inputs": [],
			"name": "buy",
			"outputs": [],
			"payable": true,
			"stateMutability": "payable",
			"type": "function"
		},
		{
			"constant": false,
			"inputs": [
				{
					"name": "_to",
					"type": "address"
				},
				{
					"name": "_value",
					"type": "uint256"
				}
			],
			"name": "transfer",
			"outputs": [
				{
					"name": "success",
					"type": "bool"
				}
			],
			"payable": false,
			"stateMutability": "nonpayable",
			"type": "function"
		},
		{
			"constant": false,
			"inputs": [
				{
					"name": "newPrimordialSellPrice",
					"type": "uint256"
				},
				{
					"name": "newPrimordialBuyPrice",
					"type": "uint256"
				}
			],
			"name": "setPrimordialPrices",
			"outputs": [],
			"payable": false,
			"stateMutability": "nonpayable",
			"type": "function"
		},
		{
			"constant": true,
			"inputs": [],
			"name": "aoDevTeam2",
			"outputs": [
				{
					"name": "",
					"type": "address"
				}
			],
			"payable": false,
			"stateMutability": "view",
			"type": "function"
		},
		{
			"constant": false,
			"inputs": [
				{
					"name": "_to",
					"type": "address"
				},
				{
					"name": "_value",
					"type": "uint256"
				},
				{
					"name": "_primordialValue",
					"type": "uint256"
				}
			],
			"name": "transferTokens",
			"outputs": [
				{
					"name": "success",
					"type": "bool"
				}
			],
			"payable": false,
			"stateMutability": "nonpayable",
			"type": "function"
		},
		{
			"constant": false,
			"inputs": [
				{
					"name": "_spender",
					"type": "address"
				},
				{
					"name": "_value",
					"type": "uint256"
				}
			],
			"name": "approvePrimordialToken",
			"outputs": [
				{
					"name": "success",
					"type": "bool"
				}
			],
			"payable": false,
			"stateMutability": "nonpayable",
			"type": "function"
		},
		{
			"constant": true,
			"inputs": [],
			"name": "primordialTotalBought",
			"outputs": [
				{
					"name": "",
					"type": "uint256"
				}
			],
			"payable": false,
			"stateMutability": "view",
			"type": "function"
		},
		{
			"constant": true,
			"inputs": [
				{
					"name": "_convertLotId",
					"type": "bytes32"
				}
			],
			"name": "convertLotById",
			"outputs": [
				{
					"name": "",
					"type": "bytes32"
				},
				{
					"name": "",
					"type": "address"
				},
				{
					"name": "",
					"type": "uint256"
				}
			],
			"payable": false,
			"stateMutability": "view",
			"type": "function"
		},
		{
			"constant": false,
			"inputs": [
				{
					"name": "_from",
					"type": "address"
				},
				{
					"name": "_value",
					"type": "uint256"
				}
			],
			"name": "whitelistBurnFrom",
			"outputs": [
				{
					"name": "success",
					"type": "bool"
				}
			],
			"payable": false,
			"stateMutability": "nonpayable",
			"type": "function"
		},
		{
			"constant": false,
			"inputs": [
				{
					"name": "_aoDevTeam1",
					"type": "address"
				},
				{
					"name": "_aoDevTeam2",
					"type": "address"
				}
			],
			"name": "setAODevTeamAddresses",
			"outputs": [],
			"payable": false,
			"stateMutability": "nonpayable",
			"type": "function"
		},
		{
			"constant": true,
			"inputs": [
				{
					"name": "",
					"type": "address"
				}
			],
			"name": "frozenAccount",
			"outputs": [
				{
					"name": "",
					"type": "bool"
				}
			],
			"payable": false,
			"stateMutability": "view",
			"type": "function"
		},
		{
			"constant": true,
			"inputs": [],
			"name": "networkExchangeContract",
			"outputs": [
				{
					"name": "",
					"type": "bool"
				}
			],
			"payable": false,
			"stateMutability": "view",
			"type": "function"
		},
		{
			"constant": false,
			"inputs": [
				{
					"name": "_from",
					"type": "address"
				},
				{
					"name": "_to",
					"type": "address"
				},
				{
					"name": "_value",
					"type": "uint256"
				},
				{
					"name": "_primordialValue",
					"type": "uint256"
				}
			],
			"name": "transferTokensFrom",
			"outputs": [
				{
					"name": "success",
					"type": "bool"
				}
			],
			"payable": false,
			"stateMutability": "nonpayable",
			"type": "function"
		},
		{
			"constant": false,
			"inputs": [
				{
					"name": "_to",
					"type": "address"
				},
				{
					"name": "_value",
					"type": "uint256"
				}
			],
			"name": "transferPrimordialToken",
			"outputs": [
				{
					"name": "success",
					"type": "bool"
				}
			],
			"payable": false,
			"stateMutability": "nonpayable",
			"type": "function"
		},
		{
			"constant": true,
			"inputs": [],
			"name": "developer",
			"outputs": [
				{
					"name": "",
					"type": "address"
				}
			],
			"payable": false,
			"stateMutability": "view",
			"type": "function"
		},
		{
			"constant": false,
			"inputs": [
				{
					"name": "_spender",
					"type": "address"
				},
				{
					"name": "_value",
					"type": "uint256"
				},
				{
					"name": "_extraData",
					"type": "bytes"
				}
			],
			"name": "approveAndCall",
			"outputs": [
				{
					"name": "success",
					"type": "bool"
				}
			],
			"payable": false,
			"stateMutability": "nonpayable",
			"type": "function"
		},
		{
			"constant": true,
			"inputs": [
				{
					"name": "_account",
					"type": "address"
				},
				{
					"name": "_amountToConvert",
					"type": "uint256"
				}
			],
			"name": "calculateMultiplierAfterConversion",
			"outputs": [
				{
					"name": "",
					"type": "uint256"
				}
			],
			"payable": false,
			"stateMutability": "view",
			"type": "function"
		},
		{
			"constant": true,
			"inputs": [
				{
					"name": "",
					"type": "address"
				},
				{
					"name": "",
					"type": "address"
				}
			],
			"name": "primordialAllowance",
			"outputs": [
				{
					"name": "",
					"type": "uint256"
				}
			],
			"payable": false,
			"stateMutability": "view",
			"type": "function"
		},
		{
			"constant": true,
			"inputs": [
				{
					"name": "_account",
					"type": "address"
				},
				{
					"name": "_amountToBurn",
					"type": "uint256"
				}
			],
			"name": "calculateMultiplierAfterBurn",
			"outputs": [
				{
					"name": "",
					"type": "uint256"
				}
			],
			"payable": false,
			"stateMutability": "view",
			"type": "function"
		},
		{
			"constant": true,
			"inputs": [
				{
					"name": "_lotOwner",
					"type": "address"
				}
			],
			"name": "totalConvertLotsByAddress",
			"outputs": [
				{
					"name": "",
					"type": "uint256"
				}
			],
			"payable": false,
			"stateMutability": "view",
			"type": "function"
		},
		{
			"constant": false,
			"inputs": [
				{
					"name": "_spender",
					"type": "address"
				},
				{
					"name": "_value",
					"type": "uint256"
				},
				{
					"name": "_extraData",
					"type": "bytes"
				}
			],
			"name": "approvePrimordialTokenAndCall",
			"outputs": [
				{
					"name": "success",
					"type": "bool"
				}
			],
			"payable": false,
			"stateMutability": "nonpayable",
			"type": "function"
		},
		{
			"constant": false,
			"inputs": [
				{
					"name": "_from",
					"type": "address"
				},
				{
					"name": "_value",
					"type": "uint256"
				},
				{
					"name": "_primordialValue",
					"type": "uint256"
				}
			],
			"name": "burnTokensFrom",
			"outputs": [
				{
					"name": "success",
					"type": "bool"
				}
			],
			"payable": false,
			"stateMutability": "nonpayable",
			"type": "function"
		},
		{
			"constant": true,
			"inputs": [
				{
					"name": "",
					"type": "address"
				},
				{
					"name": "",
					"type": "address"
				}
			],
			"name": "allowance",
			"outputs": [
				{
					"name": "",
					"type": "uint256"
				}
			],
			"payable": false,
			"stateMutability": "view",
			"type": "function"
		},
		{
			"constant": false,
			"inputs": [
				{
					"name": "_from",
					"type": "address"
				},
				{
					"name": "_value",
					"type": "uint256"
				}
			],
			"name": "burnPrimordialTokenFrom",
			"outputs": [
				{
					"name": "success",
					"type": "bool"
				}
			],
			"payable": false,
			"stateMutability": "nonpayable",
			"type": "function"
		},
		{
			"constant": false,
			"inputs": [
				{
					"name": "amount",
					"type": "uint256"
				}
			],
			"name": "sell",
			"outputs": [],
			"payable": false,
			"stateMutability": "nonpayable",
			"type": "function"
		},
		{
			"constant": false,
			"inputs": [
				{
					"name": "target",
					"type": "address"
				},
				{
					"name": "freeze",
					"type": "bool"
				}
			],
			"name": "freezeAccount",
			"outputs": [],
			"payable": false,
			"stateMutability": "nonpayable",
			"type": "function"
		},
		{
			"constant": true,
			"inputs": [],
			"name": "settingTAOId",
			"outputs": [
				{
					"name": "",
					"type": "address"
				}
			],
			"payable": false,
			"stateMutability": "view",
			"type": "function"
		},
		{
			"constant": true,
			"inputs": [
				{
					"name": "_account",
					"type": "address"
				}
			],
			"name": "calculateMaximumBurnAmount",
			"outputs": [
				{
					"name": "",
					"type": "uint256"
				}
			],
			"payable": false,
			"stateMutability": "view",
			"type": "function"
		},
		{
			"constant": false,
			"inputs": [
				{
					"name": "newDeveloper",
					"type": "address"
				}
			],
			"name": "transferOwnership",
			"outputs": [],
			"payable": false,
			"stateMutability": "nonpayable",
			"type": "function"
		},
		{
			"constant": true,
			"inputs": [
				{
					"name": "_lotOwner",
					"type": "address"
				}
			],
			"name": "convertLotIdsByAddress",
			"outputs": [
				{
					"name": "",
					"type": "bytes32[]"
				}
			],
			"payable": false,
			"stateMutability": "view",
			"type": "function"
		},
		{
			"constant": true,
			"inputs": [
				{
					"name": "_lotOwner",
					"type": "address"
				}
			],
			"name": "totalLotsByAddress",
			"outputs": [
				{
					"name": "",
					"type": "uint256"
				}
			],
			"payable": false,
			"stateMutability": "view",
			"type": "function"
		},
		{
			"constant": false,
			"inputs": [
				{
					"name": "_value",
					"type": "uint256"
				}
			],
			"name": "convertToPrimordial",
			"outputs": [
				{
					"name": "success",
					"type": "bool"
				}
			],
			"payable": false,
			"stateMutability": "nonpayable",
			"type": "function"
		},
		{
			"inputs": [
				{
					"name": "initialSupply",
					"type": "uint256"
				},
				{
					"name": "tokenName",
					"type": "string"
				},
				{
					"name": "tokenSymbol",
					"type": "string"
				},
				{
					"name": "_settingTAOId",
					"type": "address"
				},
				{
					"name": "_aoSettingAddress",
					"type": "address"
				}
			],
			"payable": false,
			"stateMutability": "nonpayable",
			"type": "constructor"
		},
		{
			"anonymous": false,
			"inputs": [
				{
					"indexed": false,
					"name": "target",
					"type": "address"
				},
				{
					"indexed": false,
					"name": "frozen",
					"type": "bool"
				}
			],
			"name": "FrozenFunds",
			"type": "event"
		},
		{
			"anonymous": false,
			"inputs": [
				{
					"indexed": true,
					"name": "from",
					"type": "address"
				},
				{
					"indexed": false,
					"name": "value",
					"type": "uint256"
				}
			],
			"name": "Stake",
			"type": "event"
		},
		{
			"anonymous": false,
			"inputs": [
				{
					"indexed": true,
					"name": "from",
					"type": "address"
				},
				{
					"indexed": false,
					"name": "value",
					"type": "uint256"
				}
			],
			"name": "Unstake",
			"type": "event"
		},
		{
			"anonymous": false,
			"inputs": [
				{
					"indexed": true,
					"name": "from",
					"type": "address"
				},
				{
					"indexed": true,
					"name": "to",
					"type": "address"
				},
				{
					"indexed": false,
					"name": "value",
					"type": "uint256"
				}
			],
			"name": "Escrow",
			"type": "event"
		},
		{
			"anonymous": false,
			"inputs": [
				{
					"indexed": true,
					"name": "from",
					"type": "address"
				},
				{
					"indexed": false,
					"name": "value",
					"type": "uint256"
				}
			],
			"name": "Unescrow",
			"type": "event"
		},
		{
			"anonymous": false,
			"inputs": [
				{
					"indexed": true,
					"name": "from",
					"type": "address"
				},
				{
					"indexed": true,
					"name": "to",
					"type": "address"
				},
				{
					"indexed": false,
					"name": "value",
					"type": "uint256"
				}
			],
			"name": "PrimordialTransfer",
			"type": "event"
		},
		{
			"anonymous": false,
			"inputs": [
				{
					"indexed": true,
					"name": "_owner",
					"type": "address"
				},
				{
					"indexed": true,
					"name": "_spender",
					"type": "address"
				},
				{
					"indexed": false,
					"name": "_value",
					"type": "uint256"
				}
			],
			"name": "PrimordialApproval",
			"type": "event"
		},
		{
			"anonymous": false,
			"inputs": [
				{
					"indexed": true,
					"name": "from",
					"type": "address"
				},
				{
					"indexed": false,
					"name": "value",
					"type": "uint256"
				}
			],
			"name": "PrimordialBurn",
			"type": "event"
		},
		{
			"anonymous": false,
			"inputs": [
				{
					"indexed": true,
					"name": "from",
					"type": "address"
				},
				{
					"indexed": false,
					"name": "value",
					"type": "uint256"
				},
				{
					"indexed": false,
					"name": "weightedMultiplier",
					"type": "uint256"
				}
			],
			"name": "PrimordialStake",
			"type": "event"
		},
		{
			"anonymous": false,
			"inputs": [
				{
					"indexed": true,
					"name": "from",
					"type": "address"
				},
				{
					"indexed": false,
					"name": "value",
					"type": "uint256"
				},
				{
					"indexed": false,
					"name": "weightedMultiplier",
					"type": "uint256"
				}
			],
			"name": "PrimordialUnstake",
			"type": "event"
		},
		{
			"anonymous": false,
			"inputs": [
				{
					"indexed": true,
					"name": "lotOwner",
					"type": "address"
				},
				{
					"indexed": true,
					"name": "lotId",
					"type": "bytes32"
				},
				{
					"indexed": false,
					"name": "multiplier",
					"type": "uint256"
				},
				{
					"indexed": false,
					"name": "primordialTokenAmount",
					"type": "uint256"
				},
				{
					"indexed": false,
					"name": "networkTokenBonusAmount",
					"type": "uint256"
				}
			],
			"name": "LotCreation",
			"type": "event"
		},
		{
			"anonymous": false,
			"inputs": [
				{
					"indexed": true,
					"name": "lotOwner",
					"type": "address"
				},
				{
					"indexed": true,
					"name": "burnLotId",
					"type": "bytes32"
				},
				{
					"indexed": false,
					"name": "burnTokenAmount",
					"type": "uint256"
				},
				{
					"indexed": false,
					"name": "multiplierAfterBurn",
					"type": "uint256"
				}
			],
			"name": "BurnLotCreation",
			"type": "event"
		},
		{
			"anonymous": false,
			"inputs": [
				{
					"indexed": true,
					"name": "lotOwner",
					"type": "address"
				},
				{
					"indexed": true,
					"name": "convertLotId",
					"type": "bytes32"
				},
				{
					"indexed": false,
					"name": "convertTokenAmount",
					"type": "uint256"
				},
				{
					"indexed": false,
					"name": "multiplierAfterBurn",
					"type": "uint256"
				}
			],
			"name": "ConvertLotCreation",
			"type": "event"
		},
		{
			"anonymous": false,
			"inputs": [
				{
					"indexed": true,
					"name": "from",
					"type": "address"
				},
				{
					"indexed": true,
					"name": "to",
					"type": "address"
				},
				{
					"indexed": false,
					"name": "value",
					"type": "uint256"
				}
			],
			"name": "Transfer",
			"type": "event"
		},
		{
			"anonymous": false,
			"inputs": [
				{
					"indexed": true,
					"name": "_owner",
					"type": "address"
				},
				{
					"indexed": true,
					"name": "_spender",
					"type": "address"
				},
				{
					"indexed": false,
					"name": "_value",
					"type": "uint256"
				}
			],
			"name": "Approval",
			"type": "event"
		},
		{
			"anonymous": false,
			"inputs": [
				{
					"indexed": true,
					"name": "from",
					"type": "address"
				},
				{
					"indexed": false,
					"name": "value",
					"type": "uint256"
				}
			],
			"name": "Burn",
			"type": "event"
		}
	],
	"bytecode": "0x608060405260018054600160a060020a0319908116735c63644d01ba385ebac5bcf2ddc1e6dbc1182b52179091556002805490911673156c79bf4347d1891da834ea30662a14177cbf281790556006805460ff191660121790553480156200006657600080fd5b5060405162004e3c38038062004e3c8339810160409081528151602080840151838501516060860151608087015160008054600160a060020a03191633908117825560065460ff16600a0a8802600781905590825260088752979020969096559186018051949690959101939192909186918691869186918691869186918691620000f89160049190850190620001ea565b5080516200010e906005906020840190620001ea565b5050600a8054600160a060020a03808716600160a060020a031992831617909255600b805492861692821683179055600c8054909116909117905550506000600d8190556006805460ff199081169091556017805490911660011790556200018290612710640100000000620001b2810204565b50506003600d8190556006805460ff199081169092179055601780549091169055506200028f9650505050505050565b600054600160a060020a03163314620001ca57600080fd5b60175460ff161515600114620001df57600080fd5b601591909155601655565b828054600181600116156101000203166002900490600052602060002090601f016020900481019282601f106200022d57805160ff19168380011785556200025d565b828001600101855582156200025d579182015b828111156200025d57825182559160200191906001019062000240565b506200026b9291506200026f565b5090565b6200028c91905b808211156200026b576000815560010162000276565b90565b614b9d806200029f6000396000f3006080604052600436106103c35763ffffffff60e060020a60003504166305fefda781146103c857806306fdde03146103e5578063080e74f71461046f578063095ea7b3146104b55780630aa24546146104ed5780630ac0b31f1461051457806315227aa71461054a578063153d90491461057b578063178a8f341461059f57806318160ddd146106105780631d0138ff1461062557806323b872dd1461063a57806323ceb6d814610664578063281bdaf8146106885780632b687bb9146106a95780632ffeef77146106be578063313ce567146106d357806331a8aeb3146106fe578063324b8ad214610722578063360f277b146107435780633a9c7d3d146107585780633bcd6624146107795780633be92863146107e557806341682d971461082357806342966c681461083857806349937e25146108505780634b750334146108585780634f090ab41461086d5780634fbd26951461088557806353d6fd59146108a657806354f7dd8c146108cc57806357946b8e146108f0578063580b72e114610911578063602172671461093857806367cf17c2146109595780636aae86c3146109835780637056d1f41461099857806370a08231146109b957806372d11466146109da578063731a3b06146109ef57806374ead7b714610a1357806379c6506814610a3a57806379cc679014610a5e5780637e904f7b14610a82578063834e9f3114610aa95780638620410b14610abe57806387d4ca9314610ad35780638a06604514610afd5780638e81c64d14610b2157806395d89b4114610b3c5780639b19251a14610b51578063a144a3e014610b72578063a545a5d114610b9c578063a6f2ae3a14610bb1578063a9059cbb14610bb9578063a918887814610bdd578063a99433a614610bf8578063a9f7e66414610c0d578063aaaf8a5214610c34578063ab7f770614610c58578063af339ee414610c6d578063b1e19d4514610c85578063b24626e914610ca9578063b414d4b614610cd0578063ba2f817014610cf1578063bdb9c11f14610d06578063c1b9981114610d33578063ca4b208b14610d57578063cae9ca5114610d6c578063cf3e194d14610dd5578063d1e5a55214610df9578063d318386414610e20578063d58e175814610e44578063d94ca0f914610e65578063dd1a293a14610ece578063dd62ed3e14610ef5578063e352845514610f1c578063e4849b3214610f40578063e724529c14610f58578063e7c5018514610f7e578063ecbbd1ca14610f93578063f2fde38b14610fb4578063f39cce0114610fd5578063f5bd48c414610ff6578063faaad91d14611017575b600080fd5b3480156103d457600080fd5b506103e360043560243561102f565b005b3480156103f157600080fd5b506103fa611051565b6040805160208082528351818301528351919283929083019185019080838360005b8381101561043457818101518382015260200161041c565b50505050905090810190601f1680156104615780820380516001836020036101000a031916815260200191505b509250505060405180910390f35b34801561047b57600080fd5b506104876004356110df565b60408051948552600160a060020a039093166020850152838301919091526060830152519081900360800190f35b3480156104c157600080fd5b506104d9600160a060020a0360043516602435611156565b604080519115158252519081900360200190f35b3480156104f957600080fd5b506105026111bd565b60408051918252519081900360200190f35b34801561052057600080fd5b5061052c6004356111c3565b60408051938452602084019290925282820152519081900360600190f35b34801561055657600080fd5b5061055f611426565b60408051600160a060020a039092168252519081900360200190f35b34801561058757600080fd5b50610502600160a060020a0360043516602435611435565b3480156105ab57600080fd5b506105c0600160a060020a0360043516611452565b60408051602080825283518183015283519192839290830191858101910280838360005b838110156105fc5781810151838201526020016105e4565b505050509050019250505060405180910390f35b34801561061c57600080fd5b506105026114d4565b34801561063157600080fd5b5061055f6114da565b34801561064657600080fd5b506104d9600160a060020a03600435811690602435166044356114e9565b34801561067057600080fd5b506104d9600160a060020a0360043516602435611558565b34801561069457600080fd5b50610502600160a060020a0360043516611638565b3480156106b557600080fd5b5061050261166b565b3480156106ca57600080fd5b50610502611671565b3480156106df57600080fd5b506106e8611677565b6040805160ff9092168252519081900360200190f35b34801561070a57600080fd5b506104d9600160a060020a0360043516602435611680565b34801561072e57600080fd5b50610502600160a060020a036004351661179d565b34801561074f57600080fd5b506105026117d0565b34801561076457600080fd5b50610502600160a060020a03600435166117d6565b34801561078557600080fd5b50604080516020601f6064356004818101359283018490048402850184019095528184526104d994600160a060020a03813516946024803595604435953695608494930191819084018382808284375094975061182e9650505050505050565b3480156107f157600080fd5b506107fd60043561187c565b60408051938452600160a060020a03909216602084015282820152519081900360600190f35b34801561082f57600080fd5b506105026118e3565b34801561084457600080fd5b506104d96004356118e9565b6103e3611961565b34801561086457600080fd5b50610502611a37565b34801561087957600080fd5b506104d9600435611a3d565b34801561089157600080fd5b50610502600160a060020a0360043516611b29565b3480156108b257600080fd5b506103e3600160a060020a03600435166024351515611b3b565b3480156108d857600080fd5b50610487600160a060020a0360043516602435611b7d565b3480156108fc57600080fd5b50610502600160a060020a0360043516611c57565b34801561091d57600080fd5b506104d9600160a060020a0360043516602435604435611c69565b34801561094457600080fd5b50610502600160a060020a0360043516611caa565b34801561096557600080fd5b506104d9600160a060020a0360043581169060243516604435611cbc565b34801561098f57600080fd5b50610502611f4f565b3480156109a457600080fd5b506105c0600160a060020a0360043516611f5a565b3480156109c557600080fd5b50610502600160a060020a0360043516611fda565b3480156109e657600080fd5b50610502611fec565b3480156109fb57600080fd5b506104d9600160a060020a0360043516602435611ff2565b348015610a1f57600080fd5b506104d9600160a060020a036004351660243560443561210f565b348015610a4657600080fd5b506104d9600160a060020a036004351660243561226d565b348015610a6a57600080fd5b506104d9600160a060020a03600435166024356122b5565b348015610a8e57600080fd5b506104d9600160a060020a0360043516602435604435612386565b348015610ab557600080fd5b506105026124f4565b348015610aca57600080fd5b506105026124fa565b348015610adf57600080fd5b506104d9600160a060020a0360043581169060243516604435612500565b348015610b0957600080fd5b506104d9600160a060020a036004351660243561262a565b348015610b2d57600080fd5b506104d9600435602435612747565b348015610b4857600080fd5b506103fa61278f565b348015610b5d57600080fd5b506104d9600160a060020a03600435166127ea565b348015610b7e57600080fd5b506104d9600160a060020a03600435811690602435166044356127ff565b348015610ba857600080fd5b506104d9612848565b6103e3612851565b348015610bc557600080fd5b506104d9600160a060020a0360043516602435612887565b348015610be957600080fd5b506103e3600435602435612894565b348015610c0457600080fd5b5061055f6128ca565b348015610c1957600080fd5b506104d9600160a060020a03600435166024356044356128d9565b348015610c4057600080fd5b506104d9600160a060020a036004351660243561290f565b348015610c6457600080fd5b5061050261298d565b348015610c7957600080fd5b506107fd600435612993565b348015610c9157600080fd5b506104d9600160a060020a03600435166024356129fc565b348015610cb557600080fd5b506103e3600160a060020a0360043581169060243516612b00565b348015610cdc57600080fd5b506104d9600160a060020a0360043516612b52565b348015610cfd57600080fd5b506104d9612b67565b348015610d1257600080fd5b506104d9600160a060020a0360043581169060243516604435606435612b70565b348015610d3f57600080fd5b506104d9600160a060020a0360043516602435612ba8565b348015610d6357600080fd5b5061055f612db3565b348015610d7857600080fd5b50604080516020600460443581810135601f81018490048402850184019095528484526104d9948235600160a060020a0316946024803595369594606494920191908190840183828082843750949750612dc29650505050505050565b348015610de157600080fd5b50610502600160a060020a0360043516602435612ed7565b348015610e0557600080fd5b50610502600160a060020a0360043581169060243516612fb8565b348015610e2c57600080fd5b50610502600160a060020a0360043516602435612fd5565b348015610e5057600080fd5b50610502600160a060020a0360043516613098565b348015610e7157600080fd5b50604080516020600460443581810135601f81018490048402850184019095528484526104d9948235600160a060020a03169460248035953695946064949201919081908401838280828437509497506130cb9650505050505050565b348015610eda57600080fd5b506104d9600160a060020a03600435166024356044356130f0565b348015610f0157600080fd5b50610502600160a060020a0360043581169060243516613126565b348015610f2857600080fd5b506104d9600160a060020a0360043516602435613143565b348015610f4c57600080fd5b506103e36004356132cc565b348015610f6457600080fd5b506103e3600160a060020a0360043516602435151561335d565b348015610f8a57600080fd5b5061055f6133d8565b348015610f9f57600080fd5b50610502600160a060020a03600435166133e7565b348015610fc057600080fd5b506103e3600160a060020a03600435166134d3565b348015610fe157600080fd5b506105c0600160a060020a0360043516613519565b34801561100257600080fd5b50610502600160a060020a0360043516613599565b34801561102357600080fd5b506104d96004356135cc565b600054600160a060020a0316331461104657600080fd5b600e91909155600f55565b6004805460408051602060026001851615610100026000190190941693909304601f810184900484028201840190925281815292918301828280156110d75780601f106110ac576101008083540402835291602001916110d7565b820191906000526020600020905b8154815290600101906020018083116110ba57829003601f168201915b505050505081565b6000806000806110ed614b2a565b60175460ff16151560011461110157600080fd5b50505060009283525050601f60209081526040918290208251608081018452815480825260018301549382018490526002830154600160a060020a031694820185905260039092015460609091018190529093565b336000818152600960209081526040808320600160a060020a038716808552908352818420869055815186815291519394909390927f8c5be1e5ebec7d5bd14f71427d1e84f3dd0314c0f7b2291e5b200ac8c7c3b925928290030190a35060015b92915050565b600d5481565b60175460009081908190819081908190819060ff1615156001146111e657600080fd5b6111ee6137bc565b935093509350935073__AOLibrary_____________________________63c35f4bbb896603fffffffffffc60145488886040518663ffffffff1660e060020a028152600401808681526020018581526020018481526020018381526020018281526020019550505050505060206040518083038186803b15801561127157600080fd5b505af4158015611285573d6000803e3d6000fd5b505050506040513d602081101561129b57600080fd5b5051601454604080517f8f8bd64c000000000000000000000000000000000000000000000000000000008152600481018c90526603fffffffffffc6024820152604481019290925260648201859052608482018490525173__AOLibrary_____________________________91638f8bd64c9160a4808301926020929190829003018186803b15801561132d57600080fd5b505af4158015611341573d6000803e3d6000fd5b505050506040513d602081101561135757600080fd5b5051601454604080517fe9cfa745000000000000000000000000000000000000000000000000000000008152600481018d90526603fffffffffffc6024820152604481019290925260648201869052608482018590525173__AOLibrary_____________________________9163e9cfa7459160a4808301926020929190829003018186803b1580156113e957600080fd5b505af41580156113fd573d6000803e3d6000fd5b505050506040513d602081101561141357600080fd5b5051919a90995090975095505050505050565b600154600160a060020a031681565b601a60209081526000928352604080842090915290825290205481565b60175460609060ff16151560011461146957600080fd5b600160a060020a038216600090815260226020908152604091829020805483518184028101840190945280845290918301828280156114c857602002820191906000526020600020905b815481526001909101906020018083116114b3575b50505050509050919050565b60075481565b600b54600160a060020a031681565b600160a060020a038316600090815260096020908152604080832033845290915281205482111561151957600080fd5b600160a060020a038416600090815260096020908152604080832033845290915290208054839003905561154e848484613d06565b5060019392505050565b3360008181526003602052604081205490919060ff1615156001148061158b5750600054600160a060020a038281169116145b151561159657600080fd5b600160a060020a0384166000908152601260205260409020546115bf908463ffffffff613ee816565b600160a060020a0385166000908152601260205260409020556007546115eb908463ffffffff613ee816565b600755604080518481529051600160a060020a0386169130917f812c3251d8b2cd027716a7651ace6f9167d7fba4db9eb10df2e0cfe8b7fa48c99181900360200190a35060019392505050565b60175460009060ff16151560011461164f57600080fd5b50600160a060020a031660009081526025602052604090205490565b60155481565b601d5481565b60065460ff1681565b3360008181526003602052604081205490919060ff161515600114806116b35750600054600160a060020a038281169116145b15156116be57600080fd5b600160a060020a0384166000908152600860205260409020548311156116e357600080fd5b600160a060020a03841660009081526008602052604090205461170c908463ffffffff613ef516565b600160a060020a038516600090815260086020908152604080832093909355601190522054611741908463ffffffff613ee816565b600160a060020a038516600081815260116020908152604091829020939093558051868152905191927febedb8b3c678666e7f36970bc8f57abf6d8fa2e828c0da91ea5b75bf68ed101a92918290030190a25060019392505050565b60175460009060ff1615156001146117b457600080fd5b50600160a060020a031660009081526023602052604090205490565b601b5481565b60175460009060ff1615156001146117ed57600080fd5b600160a060020a038216600090815260226020526040812054116118125760006111b7565b50600160a060020a031660009081526026602052604090205490565b60175460009060ff16151560011461184557600080fd5b611850858584612dc2565b151561185b57600080fd5b6118668584846130cb565b151561187157600080fd5b506001949350505050565b6000806000611889614b51565b60175460ff16151560011461189d57600080fd5b5050506000918252506020808052604091829020825160608101845281548082526001830154600160a060020a0316938201849052600290920154930183905292909190565b601c5481565b3360009081526008602052604081205482111561190557600080fd5b3360008181526008602090815260409182902080548690039055600780548690039055815185815291517fcc16f5dbb4873280815c1ee09dbd06736cffcc184412cf7a71a0fdb75d397ca59281900390910190a2506001919050565b6017546000908190819060ff16151560011461197c57600080fd5b601e54349060ff1615801561199957506603fffffffffffc601454105b80156119a757506000601654115b80156119b35750600081115b15156119be57600080fd5b6119c734613f07565b91955093509150600084116119db57600080fd5b81156119ef57601e805460ff191660011790555b6119f98433613fa7565b6000831115611a3157604051339084156108fc029085906000818181858888f19350505050158015611a2f573d6000803e3d6000fd5b505b50505050565b600e5481565b60175460009060ff161515600114611a5457600080fd5b33600090815260186020526040902054821115611a7057600080fd5b81611a7a336133e7565b1015611a8557600080fd5b611a8f3383612fd5565b33600090815260256020908152604080832093909355601890522054611abb908363ffffffff613ef516565b33600090815260186020526040902055601354611ade908363ffffffff613ef516565b601355611aeb338361415d565b60408051838152905133917f8ca2ca4355ea7f1e1880fa3d5f2dc524f82297c88282d5d95badd4041b8a8edb919081900360200190a2506001919050565b60126020526000908152604090205481565b600054600160a060020a03163314611b5257600080fd5b600160a060020a03919091166000908152600360205260409020805460ff1916911515919091179055565b600080600080611b8b614b2a565b60175460ff161515600114611b9f57600080fd5b600160a060020a0387166000908152602260205260409020548610611bc357600080fd5b600160a060020a03871660009081526022602052604081208054601f92919089908110611bec57fe5b600091825260208083209190910154835282810193909352604091820190208151608081018352815480825260018301549482018590526002830154600160a060020a03169382018490526003909201546060909101819052909a9199509197509095509350505050565b60186020526000908152604090205481565b60175460009060ff161515600114611c8057600080fd5b611c8a8484611156565b1515611c9557600080fd5b611c9f848361290f565b151561154e57600080fd5b60116020526000908152604090205481565b600080611cc7614b2a565b60175460ff161515600114611cdb57600080fd5b600160a060020a0386166000908152601960209081526040808320338452909152902054841115611d0b57600080fd5b600160a060020a0386166000908152601960209081526040808320338452909152902054611d3f908563ffffffff613ef516565b600160a060020a038716600081815260196020908152604080832033845282528083209490945591815260259091522054611d7d90869086906142f1565b6000818152601f60209081526040918290208251608081018452815481526001820154928101929092526002810154600160a060020a039081169383018490526003909101546060830152929450925090861614611dda57600080fd5b600160a060020a038086166000908152602560208181526040808420546018835281852054958c168552928252928390205483517f8cf3313f00000000000000000000000000000000000000000000000000000000815260048101939093526024830194909452604482019390935260648101879052905173__AOLibrary_____________________________92638cf3313f9260848082019391829003018186803b158015611e8957600080fd5b505af4158015611e9d573d6000803e3d6000fd5b505050506040513d6020811015611eb357600080fd5b5051600160a060020a038616600090815260256020526040902055611ed986868661448e565b1515611ee457600080fd5b80516040808301516020808501516060808701518551928352928201929092526000818501529251600160a060020a03909216927f20dcffcce6f33b394371fed8876a2562e3110ed8dbdc448b593a2680c7330a03929081900390910190a350600195945050505050565b6603fffffffffffc81565b60175460609060ff161515600114611f7157600080fd5b600160a060020a038216600090815260236020908152604091829020805483518184028101840190945280845290918301828280156114c85760200282019190600052602060002090815481526001909101906020018083116114b35750505050509050919050565b60086020526000908152604090205481565b60165481565b3360008181526003602052604081205490919060ff161515600114806120255750600054600160a060020a038281169116145b151561203057600080fd5b600160a060020a03841660009081526011602052604090205483111561205557600080fd5b600160a060020a03841660009081526011602052604090205461207e908463ffffffff613ef516565b600160a060020a0385166000908152601160209081526040808320939093556008905220546120b3908463ffffffff613ee816565b600160a060020a038516600081815260086020908152604091829020939093558051868152905191927f85082129d87b2fe11527cb1b3b7a520aeb5aa6913f88a3d8757fe40d1db02fdd92918290030190a25060019392505050565b3360008181526003602052604081205490919060ff161515600114806121425750600054600160a060020a038281169116145b151561214d57600080fd5b60175460ff16151560011461216157600080fd5b600160a060020a0385166000908152601a6020908152604080832086845290915290205484111561219157600080fd5b600160a060020a0385166000908152601a602090815260408083208684529091529020546121c5908563ffffffff613ef516565b600160a060020a0386166000818152601a6020908152604080832088845282528083209490945591815260189091522054612206908563ffffffff613ee816565b600160a060020a038616600081815260186020908152604091829020939093558051878152928301869052805191927f7bcdc377a1fa8b0dd654d64d7337143be4ce1250ada31f3b1cdac27dea65d3a3929081900390910190a2600191505b509392505050565b3360008181526003602052604081205490919060ff161515600114806122a05750600054600160a060020a038281169116145b15156122ab57600080fd5b61154e8484614671565b600160a060020a0382166000908152600860205260408120548211156122da57600080fd5b600160a060020a038316600090815260096020908152604080832033845290915290205482111561230a57600080fd5b600160a060020a0383166000818152600860209081526040808320805487900390556009825280832033845282529182902080548690039055600780548690039055815185815291517fcc16f5dbb4873280815c1ee09dbd06736cffcc184412cf7a71a0fdb75d397ca59281900390910190a250600192915050565b3360008181526003602052604081205490919060ff161515600114806123b95750600054600160a060020a038281169116145b15156123c457600080fd5b60175460ff1615156001146123d857600080fd5b600160a060020a0385166000908152601860205260409020548411156123fd57600080fd5b600160a060020a038516600090815260256020526040902054831461242157600080fd5b600160a060020a03851660009081526018602052604090205461244a908563ffffffff613ef516565b600160a060020a038616600090815260186020908152604080832093909355601a815282822086835290522054612487908563ffffffff613ee816565b600160a060020a0386166000818152601a60209081526040808320888452825291829020939093558051878152928301869052805191927fe62430bd00d68dd82de89addd3b7e4ce6bd50eb278f53dfb7fa7dac47643098d929081900390910190a2506001949350505050565b60135481565b600f5481565b3360008181526003602052604081205490919060ff161515600114806125335750600054600160a060020a038281169116145b151561253e57600080fd5b600160a060020a03851660009081526008602052604090205483111561256357600080fd5b600160a060020a03851660009081526008602052604090205461258c908463ffffffff613ef516565b600160a060020a038087166000908152600860209081526040808320949094559187168152601290915220546125c8908463ffffffff613ee816565b600160a060020a0380861660008181526012602090815260409182902094909455805187815290519193928916927f812c3251d8b2cd027716a7651ace6f9167d7fba4db9eb10df2e0cfe8b7fa48c992918290030190a3506001949350505050565b3360008181526003602052604081205490919060ff1615156001148061265d5750600054600160a060020a038281169116145b151561266857600080fd5b600160a060020a03841660009081526012602052604090205483111561268d57600080fd5b600160a060020a0384166000908152601260205260409020546126b6908463ffffffff613ef516565b600160a060020a0385166000908152601260209081526040808320939093556008905220546126eb908463ffffffff613ee816565b600160a060020a038516600081815260086020908152604091829020939093558051868152905191927f85538b0b045118ba300aa14d9701eab875903dd2976d62d855ec959a3e6cffb192918290030190a25060019392505050565b60175460009060ff16151560011461275e57600080fd5b612767836118e9565b151561277257600080fd5b61277b82611a3d565b151561278657600080fd5b50600192915050565b6005805460408051602060026001851615610100026000190190941693909304601f810184900484028201840190925281815292918301828280156110d75780601f106110ac576101008083540402835291602001916110d7565b60036020526000908152604090205460ff1681565b3360008181526003602052604081205490919060ff161515600114806128325750600054600160a060020a038281169116145b151561283d57600080fd5b611871858585613d06565b601e5460ff1681565b600080600f5411151561286357600080fd5b600f5461287790349063ffffffff61474516565b9050612884303383613d06565b50565b6000612786338484613d06565b600054600160a060020a031633146128ab57600080fd5b60175460ff1615156001146128bf57600080fd5b601591909155601655565b600254600160a060020a031681565b60175460009060ff1615156001146128f057600080fd5b6128fa8484612887565b151561290557600080fd5b611c9f8483612ba8565b60175460009060ff16151560011461292657600080fd5b336000818152601960209081526040808320600160a060020a03881680855290835292819020869055805186815290519293927f199f64ba6278b91ed8e7f45335d9fdbfa2d094b1fdc34465229e79047fcea3ce929181900390910190a350600192915050565b60145481565b60008060006129a0614b51565b60175460ff1615156001146129b457600080fd5b50505060009182525060216020908152604091829020825160608101845281548082526001830154600160a060020a0316938201849052600290920154930183905292909190565b3360008181526003602052604081205490919060ff16151560011480612a2f5750600054600160a060020a038281169116145b1515612a3a57600080fd5b600160a060020a038416600090815260086020526040902054831115612a5f57600080fd5b600160a060020a038416600090815260086020526040902054612a88908463ffffffff613ef516565b600160a060020a038516600090815260086020526040902055600754612ab4908463ffffffff613ef516565b600755604080518481529051600160a060020a038616917fcc16f5dbb4873280815c1ee09dbd06736cffcc184412cf7a71a0fdb75d397ca5919081900360200190a25060019392505050565b600054600160a060020a03163314612b1757600080fd5b60018054600160a060020a0393841673ffffffffffffffffffffffffffffffffffffffff199182161790915560028054929093169116179055565b60106020526000908152604090205460ff1681565b60175460ff1681565b60175460009060ff161515600114612b8757600080fd5b612b928585856114e9565b1515612b9d57600080fd5b611866858584611cbc565b600080612bb3614b2a565b60175460ff161515600114612bc757600080fd5b33600090815260256020526040902054612be490869086906142f1565b6000818152601f60209081526040918290208251608081018452815481526001820154928101929092526002810154600160a060020a039081169383018490526003909101546060830152929450925090861614612c4157600080fd5b600160a060020a0385166000908152602560208181526040808420546018835281852054338652938352938190205481517f8cf3313f00000000000000000000000000000000000000000000000000000000815260048101959095526024850193909352604484019290925260648301879052905173__AOLibrary_____________________________92638cf3313f926084808301939192829003018186803b158015612cee57600080fd5b505af4158015612d02573d6000803e3d6000fd5b505050506040513d6020811015612d1857600080fd5b5051600160a060020a038616600090815260256020526040902055612d3e33868661448e565b1515612d4957600080fd5b80516040808301516020808501516060808701518551928352928201929092526000818501529251600160a060020a03909216927f20dcffcce6f33b394371fed8876a2562e3110ed8dbdc448b593a2680c7330a03929081900390910190a3506001949350505050565b600054600160a060020a031681565b600083612dcf8185611156565b15612265576040517f8f4ffcb10000000000000000000000000000000000000000000000000000000081523360048201818152602483018790523060448401819052608060648501908152875160848601528751600160a060020a03871695638f4ffcb195948b94938b939192909160a490910190602085019080838360005b83811015612e67578181015183820152602001612e4f565b50505050905090810190601f168015612e945780820380516001836020036101000a031916815260200191505b5095505050505050600060405180830381600087803b158015612eb657600080fd5b505af1158015612eca573d6000803e3d6000fd5b5050505060019150612265565b60175460009060ff161515600114612eee57600080fd5b600160a060020a03831660009081526018602090815260408083205460258352928190205481517f7fbc9c5500000000000000000000000000000000000000000000000000000000815260048101949094526024840152604483018590525173__AOLibrary_____________________________92637fbc9c55926064808301939192829003018186803b158015612f8557600080fd5b505af4158015612f99573d6000803e3d6000fd5b505050506040513d6020811015612faf57600080fd5b50519392505050565b601960209081526000928352604080842090915290825290205481565b60175460009060ff161515600114612fec57600080fd5b81612ff6846133e7565b101561300157600080fd5b600160a060020a03831660009081526018602090815260408083205460258352928190205481517f32363e0a00000000000000000000000000000000000000000000000000000000815260048101949094526024840152604483018590525173__AOLibrary_____________________________926332363e0a926064808301939192829003018186803b158015612f8557600080fd5b60175460009060ff1615156001146130af57600080fd5b50600160a060020a031660009081526024602052604090205490565b601754600090819060ff1615156001146130e457600080fd5b5083612dcf818561290f565b60175460009060ff16151560011461310757600080fd5b61311184846122b5565b151561311c57600080fd5b611c9f8483613143565b600960209081526000928352604080842090915290825290205481565b60175460009060ff16151560011461315a57600080fd5b600160a060020a03831660009081526018602052604090205482111561317f57600080fd5b600160a060020a03831660009081526019602090815260408083203384529091529020548211156131af57600080fd5b816131b9846133e7565b10156131c457600080fd5b6131ce8383612fd5565b600160a060020a038416600090815260256020908152604080832093909355601890522054613203908363ffffffff613ef516565b600160a060020a0384166000908152601860209081526040808320939093556019815282822033835290522054613240908363ffffffff613ef516565b600160a060020a0384166000908152601960209081526040808320338452909152902055601354613277908363ffffffff613ef516565b601355613284838361415d565b604080518381529051600160a060020a038516917f8ca2ca4355ea7f1e1880fa3d5f2dc524f82297c88282d5d95badd4041b8a8edb919081900360200190a250600192915050565b600080600e541115156132de57600080fd5b50600e5430906132f590839063ffffffff61475a16565b600160a060020a03821631101561330b57600080fd5b613316333084613d06565b600e5433906108fc9061333090859063ffffffff61475a16565b6040518115909202916000818181858888f19350505050158015613358573d6000803e3d6000fd5b505050565b600054600160a060020a0316331461337457600080fd5b600160a060020a038216600081815260106020908152604091829020805460ff191685151590811790915582519384529083015280517f48335238b4855f35377ed80f164e8c6f3c366e54ac00b96a6402d4a9814a03a59281900390910190a15050565b600a54600160a060020a031681565b60175460009060ff1615156001146133fe57600080fd5b600160a060020a038216600090815260186020908152604080832054602583528184205460268452938290205482517f4d5a11730000000000000000000000000000000000000000000000000000000081526004810192909252602482019490945260448101939093525173__AOLibrary_____________________________92634d5a1173926064808301939192829003018186803b1580156134a157600080fd5b505af41580156134b5573d6000803e3d6000fd5b505050506040513d60208110156134cb57600080fd5b505192915050565b600054600160a060020a031633146134ea57600080fd5b6000805473ffffffffffffffffffffffffffffffffffffffff1916600160a060020a0392909216919091179055565b60175460609060ff16151560011461353057600080fd5b600160a060020a038216600090815260246020908152604091829020805483518184028101840190945280845290918301828280156114c85760200282019190600052602060002090815481526001909101906020018083116114b35750505050509050919050565b60175460009060ff1615156001146135b057600080fd5b50600160a060020a031660009081526022602052604090205490565b6017546000908190819060ff1615156001146135e757600080fd5b3360009081526008602052604090205484111561360357600080fd5b61360d3385612ed7565b33600090815260256020526040902055613626846118e9565b506136313385614783565b601d805460010190819055604080516c010000000000000000000000003081026020808401919091523391909102603483015260488083019490945282518083039094018452606890910191829052825182918401908083835b602083106136aa5780518252601f19909201916020918201910161368b565b51815160209384036101000a60001901801990921691161790526040805192909401829003909120600081815260219092529290206001015491955050600160a060020a03161591506136fe905057600080fd5b5060008181526021602090815260408083208481556001808201805473ffffffffffffffffffffffffffffffffffffffff1916339081178255600284018a815590875260248652848720805493840181558752858720909201879055825490549154600160a060020a039290921680875260258652958490205484519283529482019490945282519194927f24f057e925d9fc5c8b912d57da9cf8bbcf393fa8c87db8005d378fe9f828e7ba92918290030190a35060019392505050565b600c54600a546040805160e260020a631c196fb7028152600160a060020a03928316600482015260248101829052601c60448201527f7374617274696e675072696d6f726469616c4d756c7469706c696572000000006064820152905160009384938493849384938493849384939190921691637065bedc916084808301928692919082900301818387803b15801561385457600080fd5b505af1158015613868573d6000803e3d6000fd5b505050506040513d6000823e601f3d908101601f1916820160405260a081101561389157600080fd5b8151602083015160408401516060850151608086018051949693959294919392830192916401000000008111156138c757600080fd5b820160208101848111156138da57600080fd5b81516401000000008111828201871017156138f457600080fd5b5050600c54600a546040805160e260020a631c196fb7028152600160a060020a03928316600482015260248101829052601a60448201527f656e64696e675072696d6f726469616c4d756c7469706c696572000000000000606482015290519a9e50911698637065bedc985060848083019850600097509095509085900301925083915084905087803b15801561398a57600080fd5b505af115801561399e573d6000803e3d6000fd5b505050506040513d6000823e601f3d908101601f1916820160405260a08110156139c757600080fd5b8151602083015160408401516060850151608086018051949693959294919392830192916401000000008111156139fd57600080fd5b82016020810184811115613a1057600080fd5b8151640100000000811182820187101715613a2a57600080fd5b5050600c54600a546040805160e260020a631c196fb7028152600160a060020a03928316600482015260248101829052602360448201527f7374617274696e674e6574776f726b546f6b656e426f6e75734d756c7469706c60648201527f6965720000000000000000000000000000000000000000000000000000000000608482015290519a9d50911698637065bedc985060a48083019850600097509095509085900301925083915084905087803b158015613ae657600080fd5b505af1158015613afa573d6000803e3d6000fd5b505050506040513d6000823e601f3d908101601f1916820160405260a0811015613b2357600080fd5b815160208301516040840151606085015160808601805194969395929491939283019291640100000000811115613b5957600080fd5b82016020810184811115613b6c57600080fd5b8151640100000000811182820187101715613b8657600080fd5b5050600c54600a546040805160e260020a631c196fb7028152600160a060020a03928316600482015260248101829052602160448201527f656e64696e674e6574776f726b546f6b656e426f6e75734d756c7469706c696560648201527f7200000000000000000000000000000000000000000000000000000000000000608482015290519a9c50911698637065bedc985060a48083019850600097509095509085900301925083915084905087803b158015613c4257600080fd5b505af1158015613c56573d6000803e3d6000fd5b505050506040513d6000823e601f3d908101601f1916820160405260a0811015613c7f57600080fd5b815160208301516040840151606085015160808601805194969395929491939283019291640100000000811115613cb557600080fd5b82016020810184811115613cc857600080fd5b8151640100000000811182820187101715613ce257600080fd5b50509291905050505050505090508383838397509750975097505050505090919293565b6000600160a060020a0383161515613d1d57600080fd5b600160a060020a038416600090815260086020526040902054821115613d4257600080fd5b600160a060020a038316600090815260086020526040902054613d6b818463ffffffff613ee816565b1015613d7657600080fd5b600160a060020a03841660009081526010602052604090205460ff1615613d9c57600080fd5b600160a060020a03831660009081526010602052604090205460ff1615613dc257600080fd5b600160a060020a03808416600090815260086020526040808220549287168252902054613df49163ffffffff613ee816565b600160a060020a038516600090815260086020526040902054909150613e20908363ffffffff613ef516565b600160a060020a038086166000908152600860205260408082209390935590851681522054613e55908363ffffffff613ee816565b600160a060020a0380851660008181526008602090815260409182902094909455805186815290519193928816927fddf252ad1be2c89b69c2b068fc378daa952ba7f163c4a11628f55a4df523b3ef92918290030190a3600160a060020a038084166000908152600860205260408082205492871682529020548291613ee1919063ffffffff613ee816565b14611a3157fe5b818101828110156111b757fe5b600082821115613f0157fe5b50900390565b600080600080600080613f256016548861474590919063ffffffff16565b925060009150600090506603fffffffffffc613f4c84601454613ee890919063ffffffff16565b10613f9a57601454613f6c906603fffffffffffc9063ffffffff613ef516565b925060019050613f97613f8a6016548561475a90919063ffffffff16565b349063ffffffff613ef516565b91505b9196909550909350915050565b600080600080600080600080613fbb6137bc565b98509850509750613fcb8a6111c3565b945094509450613fe68a601454613ee890919063ffffffff16565b601455613ff5898b8786614857565b614005888663ffffffff613ef516565b91506140b973__AOLibrary_____________________________63caf297656040518163ffffffff1660e060020a02815260040160206040518083038186803b15801561405157600080fd5b505af4158015614065573d6000803e3d6000fd5b505050506040513d602081101561407b57600080fd5b50516140ad8c6140a18a6140958d8b63ffffffff613ef516565b9063ffffffff613ee816565b9063ffffffff61475a16565b9063ffffffff61474516565b600154909150600160a060020a0316156141055760015461410590600160a060020a03166140ee8c600263ffffffff61474516565b8461410085600263ffffffff61474516565b614857565b600254600160a060020a03161561413b576002805461413b91600160a060020a03909116906140ee908d9063ffffffff61474516565b60005461415190600160a060020a031682614671565b50505050505050505050565b601c805460010190819055604080516c01000000000000000000000000308102602080840191909152600160a060020a038716909102603483015260488083019490945282518083039094018452606890910191829052825160009384939092909182918401908083835b602083106141e75780518252601f1990920191602091820191016141c8565b51815160209384036101000a6000190180199092169116179052604080519290940182900390912060008181529180529290206001015491955050600160a060020a0316159150614239905057600080fd5b506000818152602080805260408083208481556001808201805473ffffffffffffffffffffffffffffffffffffffff1916600160a060020a038a81169182178355600285018a815591885260238752858820805494850181558852868820909301889055835491549054921680875260258652958490205484519283529482019490945282519194927f6c5992d9f99885465942ae05b2bcc358a509184bb262ec9bfe242ccdc42d1a0392918290030190a350505050565b60008080600160a060020a038616151561430a57600080fd5b6000851161431757600080fd5b601b805460010190819055604080516c01000000000000000000000000308102602080840191909152600160a060020a038b16909102603483015260488083019490945282518083039094018452606890910191829052825182918401908083835b602083106143985780518252601f199092019160209182019101614379565b51815160209384036101000a600019018019909216911617905260408051929094018290039091206000818152601f9092529290206002015491955050600160a060020a03161591506143ec905057600080fd5b506000818152601f60209081526040808320848155600180820188905560028201805473ffffffffffffffffffffffffffffffffffffffff1916600160a060020a038c16908117909155600383018a905580865260228552928520805480830182558187529486209094018690559190935290541415614485576001810154600160a060020a0387166000908152602660205260409020555b50949350505050565b600080600160a060020a03841615156144a657600080fd5b600160a060020a0385166000908152601860205260409020548311156144cb57600080fd5b600160a060020a0384166000908152601860205260409020546144f4818563ffffffff613ee816565b10156144ff57600080fd5b600160a060020a03851660009081526010602052604090205460ff161561452557600080fd5b600160a060020a03841660009081526010602052604090205460ff161561454b57600080fd5b600160a060020a0380851660009081526018602052604080822054928816825290205461457d9163ffffffff613ee816565b600160a060020a0386166000908152601860205260409020549091506145a9908463ffffffff613ef516565b600160a060020a0380871660009081526018602052604080822093909355908616815220546145de908463ffffffff613ee816565b600160a060020a0380861660008181526018602090815260409182902094909455805187815290519193928916927fa906a7bdab67ba77819fbd926440353e67b66c398aaeffd1fd212ddae941bbe292918290030190a3600160a060020a03808516600090815260186020526040808220549288168252902054829161466a919063ffffffff613ee816565b1461187157fe5b600160a060020a03821660009081526008602052604090205461469a908263ffffffff613ee816565b600160a060020a0383166000908152600860205260409020556007546146c6908263ffffffff613ee816565b60075560408051828152905130916000917fddf252ad1be2c89b69c2b068fc378daa952ba7f163c4a11628f55a4df523b3ef9181900360200190a3604080518281529051600160a060020a0384169130917fddf252ad1be2c89b69c2b068fc378daa952ba7f163c4a11628f55a4df523b3ef9181900360200190a35050565b6000818381151561475257fe5b049392505050565b600082151561476b575060006111b7565b5081810281838281151561477b57fe5b04146111b757fe5b600160a060020a0382166000908152601860205260409020546147ac908263ffffffff613ee816565b600160a060020a0383166000908152601860205260409020556013546147d8908263ffffffff613ee816565b60135560408051828152905130916000917fa906a7bdab67ba77819fbd926440353e67b66c398aaeffd1fd212ddae941bbe29181900360200190a3604080518281529051600160a060020a0384169130917fa906a7bdab67ba77819fbd926440353e67b66c398aaeffd1fd212ddae941bbe29181900360200190a35050565b601b805460010190819055604080516c01000000000000000000000000308102602080840191909152600160a060020a038916909102603483015260488083019490945282518083039094018452606890910191829052825160009384939092909182918401908083835b602083106148e15780518252601f1990920191602091820191016148c2565b51815160209384036101000a600019018019909216911617905260408051929094018290039091206000818152601f9092529290206002015491955050600160a060020a0316159150614935905057600080fd5b506000818152601f60209081526040808320848155600180820188815560028301805473ffffffffffffffffffffffffffffffffffffffff1916600160a060020a038d16908117909155600384018b815581885260228752858820805494850181558852868820909301889055865260258552838620546018865295849020549054915484517f8cf3313f00000000000000000000000000000000000000000000000000000000815260048101979097526024870191909152604486019190915260648501529051909273__AOLibrary_____________________________92638cf3313f92608480840193829003018186803b158015614a3557600080fd5b505af4158015614a49573d6000803e3d6000fd5b505050506040513d6020811015614a5f57600080fd5b5051600160a060020a03871660009081526025602090815260408083209390935560229052205460011415614aad576001810154600160a060020a0387166000908152602660205260409020555b614abb868260030154614783565b614ac58684614671565b805460028201546001830154600384015460408051928352602083019190915281810187905251600160a060020a03909216917f20dcffcce6f33b394371fed8876a2562e3110ed8dbdc448b593a2680c7330a039181900360600190a3505050505050565b60408051608081018252600080825260208201819052918101829052606081019190915290565b6040805160608101825260008082526020820181905291810191909152905600a165627a7a72305820fa1033be20fd3e9ffa11a8b124f012c3e65733475dc4f89f1dbc2c6a52f640d30029",
	"source": "pragma solidity ^0.4.24;\n\nimport \"./AOToken.sol\";\n\ncontract AOKilo is AOToken {\n\t/**\n\t * @dev Constructor function\n\t */\n\tconstructor(uint256 initialSupply, string tokenName, string tokenSymbol, address _settingTAOId, address _aoSettingAddress)\n\t\tAOToken(initialSupply, tokenName, tokenSymbol, _settingTAOId, _aoSettingAddress) public {\n\t\tpowerOfTen = 3;\n\t\tdecimals = 3;\n\t\tnetworkExchangeContract = false;\n\t}\n}\n",
	"sourcePath": "/home/jmulyono/ao-contracts/contracts/AOKilo.sol",
	"compiler": {
		"name": "solc",
		"version": "0.4.24+commit.e67f0147.Emscripten.clang"
	},
	"schemaVersion": "2.0.1",
	"updatedAt": "2018-12-19T05:20:18.443Z"
}