{
	"contractName": "AOKilo",
	"abi": [
		{
			"constant": false,
			"inputs": [
				{
					"name": "newSellPrice",
					"type": "uint256"
				},
				{
					"name": "newBuyPrice",
					"type": "uint256"
				}
			],
			"name": "setPrices",
			"outputs": [],
			"payable": false,
			"stateMutability": "nonpayable",
			"type": "function"
		},
		{
			"constant": true,
			"inputs": [],
			"name": "name",
			"outputs": [
				{
					"name": "",
					"type": "string"
				}
			],
			"payable": false,
			"stateMutability": "view",
			"type": "function"
		},
		{
			"constant": false,
			"inputs": [
				{
					"name": "_spender",
					"type": "address"
				},
				{
					"name": "_value",
					"type": "uint256"
				}
			],
			"name": "approve",
			"outputs": [
				{
					"name": "success",
					"type": "bool"
				}
			],
			"payable": false,
			"stateMutability": "nonpayable",
			"type": "function"
		},
		{
			"constant": true,
			"inputs": [],
			"name": "powerOfTen",
			"outputs": [
				{
					"name": "",
					"type": "uint256"
				}
			],
			"payable": false,
			"stateMutability": "view",
			"type": "function"
		},
		{
			"constant": true,
			"inputs": [],
			"name": "totalSupply",
			"outputs": [
				{
					"name": "",
					"type": "uint256"
				}
			],
			"payable": false,
			"stateMutability": "view",
			"type": "function"
		},
		{
			"constant": false,
			"inputs": [
				{
					"name": "_from",
					"type": "address"
				},
				{
					"name": "_to",
					"type": "address"
				},
				{
					"name": "_value",
					"type": "uint256"
				}
			],
			"name": "transferFrom",
			"outputs": [
				{
					"name": "success",
					"type": "bool"
				}
			],
			"payable": false,
			"stateMutability": "nonpayable",
			"type": "function"
		},
		{
			"constant": false,
			"inputs": [
				{
					"name": "target",
					"type": "address"
				},
				{
					"name": "mintedAmount",
					"type": "uint256"
				}
			],
			"name": "mintTokenEscrow",
			"outputs": [
				{
					"name": "",
					"type": "bool"
				}
			],
			"payable": false,
			"stateMutability": "nonpayable",
			"type": "function"
		},
		{
			"constant": true,
			"inputs": [],
			"name": "decimals",
			"outputs": [
				{
					"name": "",
					"type": "uint8"
				}
			],
			"payable": false,
			"stateMutability": "view",
			"type": "function"
		},
		{
			"constant": false,
			"inputs": [
				{
					"name": "_from",
					"type": "address"
				},
				{
					"name": "_value",
					"type": "uint256"
				}
			],
			"name": "stakeFrom",
			"outputs": [
				{
					"name": "",
					"type": "bool"
				}
			],
			"payable": false,
			"stateMutability": "nonpayable",
			"type": "function"
		},
		{
			"constant": false,
			"inputs": [
				{
					"name": "_value",
					"type": "uint256"
				}
			],
			"name": "burn",
			"outputs": [
				{
					"name": "success",
					"type": "bool"
				}
			],
			"payable": false,
			"stateMutability": "nonpayable",
			"type": "function"
		},
		{
			"constant": true,
			"inputs": [],
			"name": "sellPrice",
			"outputs": [
				{
					"name": "",
					"type": "uint256"
				}
			],
			"payable": false,
			"stateMutability": "view",
			"type": "function"
		},
		{
			"constant": true,
			"inputs": [],
			"name": "nameTAOPositionAddress",
			"outputs": [
				{
					"name": "",
					"type": "address"
				}
			],
			"payable": false,
			"stateMutability": "view",
			"type": "function"
		},
		{
			"constant": true,
			"inputs": [
				{
					"name": "",
					"type": "address"
				}
			],
			"name": "escrowedBalance",
			"outputs": [
				{
					"name": "",
					"type": "uint256"
				}
			],
			"payable": false,
			"stateMutability": "view",
			"type": "function"
		},
		{
			"constant": false,
			"inputs": [
				{
					"name": "_account",
					"type": "address"
				},
				{
					"name": "_whitelist",
					"type": "bool"
				}
			],
			"name": "setWhitelist",
			"outputs": [],
			"payable": false,
			"stateMutability": "nonpayable",
			"type": "function"
		},
		{
			"constant": false,
			"inputs": [
				{
					"name": "_nameTAOPositionAddress",
					"type": "address"
				}
			],
			"name": "setNameTAOPositionAddress",
			"outputs": [],
			"payable": false,
			"stateMutability": "nonpayable",
			"type": "function"
		},
		{
			"constant": true,
			"inputs": [
				{
					"name": "",
					"type": "address"
				}
			],
			"name": "stakedBalance",
			"outputs": [
				{
					"name": "",
					"type": "uint256"
				}
			],
			"payable": false,
			"stateMutability": "view",
			"type": "function"
		},
		{
			"constant": true,
			"inputs": [
				{
					"name": "",
					"type": "address"
				}
			],
			"name": "balanceOf",
			"outputs": [
				{
					"name": "",
					"type": "uint256"
				}
			],
			"payable": false,
			"stateMutability": "view",
			"type": "function"
		},
		{
			"constant": false,
			"inputs": [
				{
					"name": "_from",
					"type": "address"
				},
				{
					"name": "_value",
					"type": "uint256"
				}
			],
			"name": "unstakeFrom",
			"outputs": [
				{
					"name": "",
					"type": "bool"
				}
			],
			"payable": false,
			"stateMutability": "nonpayable",
			"type": "function"
		},
		{
			"constant": false,
			"inputs": [
				{
					"name": "target",
					"type": "address"
				},
				{
					"name": "mintedAmount",
					"type": "uint256"
				}
			],
			"name": "mintToken",
			"outputs": [
				{
					"name": "",
					"type": "bool"
				}
			],
			"payable": false,
			"stateMutability": "nonpayable",
			"type": "function"
		},
		{
			"constant": false,
			"inputs": [
				{
					"name": "_from",
					"type": "address"
				},
				{
					"name": "_value",
					"type": "uint256"
				}
			],
			"name": "burnFrom",
			"outputs": [
				{
					"name": "success",
					"type": "bool"
				}
			],
			"payable": false,
			"stateMutability": "nonpayable",
			"type": "function"
		},
		{
			"constant": true,
			"inputs": [],
			"name": "buyPrice",
			"outputs": [
				{
					"name": "",
					"type": "uint256"
				}
			],
			"payable": false,
			"stateMutability": "view",
			"type": "function"
		},
		{
			"constant": false,
			"inputs": [
				{
					"name": "_from",
					"type": "address"
				},
				{
					"name": "_to",
					"type": "address"
				},
				{
					"name": "_value",
					"type": "uint256"
				}
			],
			"name": "escrowFrom",
			"outputs": [
				{
					"name": "",
					"type": "bool"
				}
			],
			"payable": false,
			"stateMutability": "nonpayable",
			"type": "function"
		},
		{
			"constant": false,
			"inputs": [
				{
					"name": "_from",
					"type": "address"
				},
				{
					"name": "_value",
					"type": "uint256"
				}
			],
			"name": "unescrowFrom",
			"outputs": [
				{
					"name": "",
					"type": "bool"
				}
			],
			"payable": false,
			"stateMutability": "nonpayable",
			"type": "function"
		},
		{
			"constant": true,
			"inputs": [],
			"name": "symbol",
			"outputs": [
				{
					"name": "",
					"type": "string"
				}
			],
			"payable": false,
			"stateMutability": "view",
			"type": "function"
		},
		{
			"constant": true,
			"inputs": [
				{
					"name": "",
					"type": "address"
				}
			],
			"name": "whitelist",
			"outputs": [
				{
					"name": "",
					"type": "bool"
				}
			],
			"payable": false,
			"stateMutability": "view",
			"type": "function"
		},
		{
			"constant": false,
			"inputs": [
				{
					"name": "_from",
					"type": "address"
				},
				{
					"name": "_to",
					"type": "address"
				},
				{
					"name": "_value",
					"type": "uint256"
				}
			],
			"name": "whitelistTransferFrom",
			"outputs": [
				{
					"name": "success",
					"type": "bool"
				}
			],
			"payable": false,
			"stateMutability": "nonpayable",
			"type": "function"
		},
		{
			"constant": false,
			"inputs": [],
			"name": "buy",
			"outputs": [],
			"payable": true,
			"stateMutability": "payable",
			"type": "function"
		},
		{
			"constant": false,
			"inputs": [
				{
					"name": "_to",
					"type": "address"
				},
				{
					"name": "_value",
					"type": "uint256"
				}
			],
			"name": "transfer",
			"outputs": [
				{
					"name": "success",
					"type": "bool"
				}
			],
			"payable": false,
			"stateMutability": "nonpayable",
			"type": "function"
		},
		{
			"constant": true,
			"inputs": [],
			"name": "theAO",
			"outputs": [
				{
					"name": "",
					"type": "address"
				}
			],
			"payable": false,
			"stateMutability": "view",
			"type": "function"
		},
		{
			"constant": false,
			"inputs": [
				{
					"name": "_from",
					"type": "address"
				},
				{
					"name": "_value",
					"type": "uint256"
				}
			],
			"name": "whitelistBurnFrom",
			"outputs": [
				{
					"name": "success",
					"type": "bool"
				}
			],
			"payable": false,
			"stateMutability": "nonpayable",
			"type": "function"
		},
		{
			"constant": true,
			"inputs": [
				{
					"name": "",
					"type": "address"
				}
			],
			"name": "frozenAccount",
			"outputs": [
				{
					"name": "",
					"type": "bool"
				}
			],
			"payable": false,
			"stateMutability": "view",
			"type": "function"
		},
		{
			"constant": false,
			"inputs": [
				{
					"name": "_spender",
					"type": "address"
				},
				{
					"name": "_value",
					"type": "uint256"
				},
				{
					"name": "_extraData",
					"type": "bytes"
				}
			],
			"name": "approveAndCall",
			"outputs": [
				{
					"name": "success",
					"type": "bool"
				}
			],
			"payable": false,
			"stateMutability": "nonpayable",
			"type": "function"
		},
		{
			"constant": true,
			"inputs": [
				{
					"name": "",
					"type": "address"
				},
				{
					"name": "",
					"type": "address"
				}
			],
			"name": "allowance",
			"outputs": [
				{
					"name": "",
					"type": "uint256"
				}
			],
			"payable": false,
			"stateMutability": "view",
			"type": "function"
		},
		{
			"constant": false,
			"inputs": [
				{
					"name": "amount",
					"type": "uint256"
				}
			],
			"name": "sell",
			"outputs": [],
			"payable": false,
			"stateMutability": "nonpayable",
			"type": "function"
		},
		{
			"constant": false,
			"inputs": [
				{
					"name": "target",
					"type": "address"
				},
				{
					"name": "freeze",
					"type": "bool"
				}
			],
			"name": "freezeAccount",
			"outputs": [],
			"payable": false,
			"stateMutability": "nonpayable",
			"type": "function"
		},
		{
			"constant": false,
			"inputs": [
				{
					"name": "_theAO",
					"type": "address"
				}
			],
			"name": "transferOwnership",
			"outputs": [],
			"payable": false,
			"stateMutability": "nonpayable",
			"type": "function"
		},
		{
			"inputs": [
				{
					"name": "initialSupply",
					"type": "uint256"
				},
				{
					"name": "tokenName",
					"type": "string"
				},
				{
					"name": "tokenSymbol",
					"type": "string"
				}
			],
			"payable": false,
			"stateMutability": "nonpayable",
			"type": "constructor"
		},
		{
			"anonymous": false,
			"inputs": [
				{
					"indexed": false,
					"name": "target",
					"type": "address"
				},
				{
					"indexed": false,
					"name": "frozen",
					"type": "bool"
				}
			],
			"name": "FrozenFunds",
			"type": "event"
		},
		{
			"anonymous": false,
			"inputs": [
				{
					"indexed": true,
					"name": "from",
					"type": "address"
				},
				{
					"indexed": false,
					"name": "value",
					"type": "uint256"
				}
			],
			"name": "Stake",
			"type": "event"
		},
		{
			"anonymous": false,
			"inputs": [
				{
					"indexed": true,
					"name": "from",
					"type": "address"
				},
				{
					"indexed": false,
					"name": "value",
					"type": "uint256"
				}
			],
			"name": "Unstake",
			"type": "event"
		},
		{
			"anonymous": false,
			"inputs": [
				{
					"indexed": true,
					"name": "from",
					"type": "address"
				},
				{
					"indexed": true,
					"name": "to",
					"type": "address"
				},
				{
					"indexed": false,
					"name": "value",
					"type": "uint256"
				}
			],
			"name": "Escrow",
			"type": "event"
		},
		{
			"anonymous": false,
			"inputs": [
				{
					"indexed": true,
					"name": "from",
					"type": "address"
				},
				{
					"indexed": false,
					"name": "value",
					"type": "uint256"
				}
			],
			"name": "Unescrow",
			"type": "event"
		},
		{
			"anonymous": false,
			"inputs": [
				{
					"indexed": true,
					"name": "from",
					"type": "address"
				},
				{
					"indexed": true,
					"name": "to",
					"type": "address"
				},
				{
					"indexed": false,
					"name": "value",
					"type": "uint256"
				}
			],
			"name": "Transfer",
			"type": "event"
		},
		{
			"anonymous": false,
			"inputs": [
				{
					"indexed": true,
					"name": "_owner",
					"type": "address"
				},
				{
					"indexed": true,
					"name": "_spender",
					"type": "address"
				},
				{
					"indexed": false,
					"name": "_value",
					"type": "uint256"
				}
			],
			"name": "Approval",
			"type": "event"
		},
		{
			"anonymous": false,
			"inputs": [
				{
					"indexed": true,
					"name": "from",
					"type": "address"
				},
				{
					"indexed": false,
					"name": "value",
					"type": "uint256"
				}
			],
			"name": "Burn",
			"type": "event"
		}
	],
	"bytecode": "0x60806040526005805460ff191660121790553480156200001e57600080fd5b5060405162001c4138038062001c4183398101604090815281516020808401518385015160008054600160a060020a03191633908117825560055460ff16600a0a860260068190559082526007855295902094909455840180519294909301918491849184918491849184916200009c9160039190850190620000d7565b508051620000b2906004906020840190620000d7565b5050600580546003600981905560ff19909116179055506200017c9650505050505050565b828054600181600116156101000203166002900490600052602060002090601f016020900481019282601f106200011a57805160ff19168380011785556200014a565b828001600101855582156200014a579182015b828111156200014a5782518255916020019190600101906200012d565b50620001589291506200015c565b5090565b6200017991905b8082111562000158576000815560010162000163565b90565b611ab5806200018c6000396000f3006080604052600436106101c15763ffffffff7c010000000000000000000000000000000000000000000000000000000060003504166305fefda781146101c657806306fdde03146101e3578063095ea7b31461026d5780630aa24546146102a557806318160ddd146102cc57806323b872dd146102e157806323ceb6d81461030b578063313ce5671461032f57806331a8aeb31461035a57806342966c681461037e5780634b750334146103965780634ef033f0146103ab5780634fbd2695146103dc57806353d6fd59146103fd5780635cfaf2ef14610423578063602172671461044457806370a0823114610465578063731a3b061461048657806379c65068146104aa57806379cc6790146104ce5780638620410b146104f257806387d4ca93146105075780638a0660451461053157806395d89b41146105555780639b19251a1461056a578063a144a3e01461058b578063a6f2ae3a146105b5578063a9059cbb146105bd578063a9b6b38e146105e1578063b1e19d45146105f6578063b414d4b61461061a578063cae9ca511461063b578063dd62ed3e146106a4578063e4849b32146106cb578063e724529c146106e3578063f2fde38b14610709575b600080fd5b3480156101d257600080fd5b506101e160043560243561072a565b005b3480156101ef57600080fd5b506101f86107de565b6040805160208082528351818301528351919283929083019185019080838360005b8381101561023257818101518382015260200161021a565b50505050905090810190601f16801561025f5780820380516001836020036101000a031916815260200191505b509250505060405180910390f35b34801561027957600080fd5b50610291600160a060020a036004351660243561086c565b604080519115158252519081900360200190f35b3480156102b157600080fd5b506102ba6108d3565b60408051918252519081900360200190f35b3480156102d857600080fd5b506102ba6108d9565b3480156102ed57600080fd5b50610291600160a060020a03600435811690602435166044356108df565b34801561031757600080fd5b50610291600160a060020a036004351660243561094e565b34801561033b57600080fd5b50610344610a10565b6040805160ff9092168252519081900360200190f35b34801561036657600080fd5b50610291600160a060020a0360043516602435610a19565b34801561038a57600080fd5b50610291600435610b18565b3480156103a257600080fd5b506102ba610b90565b3480156103b757600080fd5b506103c0610b96565b60408051600160a060020a039092168252519081900360200190f35b3480156103e857600080fd5b506102ba600160a060020a0360043516610ba5565b34801561040957600080fd5b506101e1600160a060020a03600435166024351515610bb7565b34801561042f57600080fd5b506101e1600160a060020a0360043516610ca0565b34801561045057600080fd5b506102ba600160a060020a0360043516610d8d565b34801561047157600080fd5b506102ba600160a060020a0360043516610d9f565b34801561049257600080fd5b50610291600160a060020a0360043516602435610db1565b3480156104b657600080fd5b50610291600160a060020a0360043516602435610eb0565b3480156104da57600080fd5b50610291600160a060020a0360043516602435610ee4565b3480156104fe57600080fd5b506102ba610fb5565b34801561051357600080fd5b50610291600160a060020a0360043581169060243516604435610fbb565b34801561053d57600080fd5b50610291600160a060020a03600435166024356110c7565b34801561056157600080fd5b506101f86111c6565b34801561057657600080fd5b50610291600160a060020a0360043516611221565b34801561059757600080fd5b50610291600160a060020a0360043581169060243516604435611236565b6101e1611262565b3480156105c957600080fd5b50610291600160a060020a0360043516602435611298565b3480156105ed57600080fd5b506103c06112a5565b34801561060257600080fd5b50610291600160a060020a03600435166024356112b4565b34801561062657600080fd5b50610291600160a060020a036004351661139a565b34801561064757600080fd5b50604080516020600460443581810135601f8101849004840285018401909552848452610291948235600160a060020a03169460248035953695946064949201919081908401838280828437509497506113af9650505050505050565b3480156106b057600080fd5b506102ba600160a060020a03600435811690602435166114c8565b3480156106d757600080fd5b506101e16004356114e5565b3480156106ef57600080fd5b506101e1600160a060020a03600435166024351515611576565b34801561071557600080fd5b506101e1600160a060020a0360043516611683565b6000546001546040805160e260020a633d9abf2b028152336004820152600160a060020a0393841660248201529290911660448301525173__AOLibrary_____________________________9163f66afcac916064808301926020929190829003018186803b15801561079c57600080fd5b505af41580156107b0573d6000803e3d6000fd5b505050506040513d60208110156107c657600080fd5b505115156107d357600080fd5b600a91909155600b55565b6003805460408051602060026001851615610100026000190190941693909304601f810184900484028201840190925281815292918301828280156108645780601f1061083957610100808354040283529160200191610864565b820191906000526020600020905b81548152906001019060200180831161084757829003601f168201915b505050505081565b336000818152600860209081526040808320600160a060020a038716808552908352818420869055815186815291519394909390927f8c5be1e5ebec7d5bd14f71427d1e84f3dd0314c0f7b2291e5b200ac8c7c3b925928290030190a35060015b92915050565b60095481565b60065481565b600160a060020a038316600090815260086020908152604080832033845290915281205482111561090f57600080fd5b600160a060020a0384166000908152600860209081526040808320338452909152902080548390039055610944848484611770565b5060019392505050565b3360009081526002602052604081205460ff16151560011461096f57600080fd5b600160a060020a0383166000908152600e6020526040902054610998908363ffffffff61195816565b600160a060020a0384166000908152600e60205260409020556006546109c4908363ffffffff61195816565b600655604080518381529051600160a060020a0385169130917f812c3251d8b2cd027716a7651ace6f9167d7fba4db9eb10df2e0cfe8b7fa48c99181900360200190a350600192915050565b60055460ff1681565b3360009081526002602052604081205460ff161515600114610a3a57600080fd5b600160a060020a038316600090815260076020526040902054821115610a5f57600080fd5b600160a060020a038316600090815260076020526040902054610a88908363ffffffff61196516565b600160a060020a038416600090815260076020908152604080832093909355600d90522054610abd908363ffffffff61195816565b600160a060020a0384166000818152600d6020908152604091829020939093558051858152905191927febedb8b3c678666e7f36970bc8f57abf6d8fa2e828c0da91ea5b75bf68ed101a92918290030190a250600192915050565b33600090815260076020526040812054821115610b3457600080fd5b3360008181526007602090815260409182902080548690039055600680548690039055815185815291517fcc16f5dbb4873280815c1ee09dbd06736cffcc184412cf7a71a0fdb75d397ca59281900390910190a2506001919050565b600a5481565b600154600160a060020a031681565b600e6020526000908152604090205481565b6000546001546040805160e260020a633d9abf2b028152336004820152600160a060020a0393841660248201529290911660448301525173__AOLibrary_____________________________9163f66afcac916064808301926020929190829003018186803b158015610c2957600080fd5b505af4158015610c3d573d6000803e3d6000fd5b505050506040513d6020811015610c5357600080fd5b50511515610c6057600080fd5b600160a060020a0382161515610c7557600080fd5b600160a060020a03919091166000908152600260205260409020805460ff1916911515919091179055565b6000546001546040805160e260020a633d9abf2b028152336004820152600160a060020a0393841660248201529290911660448301525173__AOLibrary_____________________________9163f66afcac916064808301926020929190829003018186803b158015610d1257600080fd5b505af4158015610d26573d6000803e3d6000fd5b505050506040513d6020811015610d3c57600080fd5b50511515610d4957600080fd5b600160a060020a0381161515610d5e57600080fd5b6001805473ffffffffffffffffffffffffffffffffffffffff1916600160a060020a0392909216919091179055565b600d6020526000908152604090205481565b60076020526000908152604090205481565b3360009081526002602052604081205460ff161515600114610dd257600080fd5b600160a060020a0383166000908152600d6020526040902054821115610df757600080fd5b600160a060020a0383166000908152600d6020526040902054610e20908363ffffffff61196516565b600160a060020a0384166000908152600d6020908152604080832093909355600790522054610e55908363ffffffff61195816565b600160a060020a038416600081815260076020908152604091829020939093558051858152905191927f85082129d87b2fe11527cb1b3b7a520aeb5aa6913f88a3d8757fe40d1db02fdd92918290030190a250600192915050565b3360009081526002602052604081205460ff161515600114610ed157600080fd5b610edb8383611977565b50600192915050565b600160a060020a038216600090815260076020526040812054821115610f0957600080fd5b600160a060020a0383166000908152600860209081526040808320338452909152902054821115610f3957600080fd5b600160a060020a0383166000818152600760209081526040808320805487900390556008825280832033845282529182902080548690039055600680548690039055815185815291517fcc16f5dbb4873280815c1ee09dbd06736cffcc184412cf7a71a0fdb75d397ca59281900390910190a250600192915050565b600b5481565b3360009081526002602052604081205460ff161515600114610fdc57600080fd5b600160a060020a03841660009081526007602052604090205482111561100157600080fd5b600160a060020a03841660009081526007602052604090205461102a908363ffffffff61196516565b600160a060020a038086166000908152600760209081526040808320949094559186168152600e9091522054611066908363ffffffff61195816565b600160a060020a038085166000818152600e602090815260409182902094909455805186815290519193928816927f812c3251d8b2cd027716a7651ace6f9167d7fba4db9eb10df2e0cfe8b7fa48c992918290030190a35060019392505050565b3360009081526002602052604081205460ff1615156001146110e857600080fd5b600160a060020a0383166000908152600e602052604090205482111561110d57600080fd5b600160a060020a0383166000908152600e6020526040902054611136908363ffffffff61196516565b600160a060020a0384166000908152600e602090815260408083209390935560079052205461116b908363ffffffff61195816565b600160a060020a038416600081815260076020908152604091829020939093558051858152905191927f85538b0b045118ba300aa14d9701eab875903dd2976d62d855ec959a3e6cffb192918290030190a250600192915050565b6004805460408051602060026001851615610100026000190190941693909304601f810184900484028201840190925281815292918301828280156108645780601f1061083957610100808354040283529160200191610864565b60026020526000908152604090205460ff1681565b3360009081526002602052604081205460ff16151560011461125757600080fd5b610944848484611770565b600080600b5411151561127457600080fd5b600b5461128890349063ffffffff611a4b16565b9050611295303383611770565b50565b6000610edb338484611770565b600054600160a060020a031681565b3360009081526002602052604081205460ff1615156001146112d557600080fd5b600160a060020a0383166000908152600760205260409020548211156112fa57600080fd5b600160a060020a038316600090815260076020526040902054611323908363ffffffff61196516565b600160a060020a03841660009081526007602052604090205560065461134f908363ffffffff61196516565b600655604080518381529051600160a060020a038516917fcc16f5dbb4873280815c1ee09dbd06736cffcc184412cf7a71a0fdb75d397ca5919081900360200190a250600192915050565b600c6020526000908152604090205460ff1681565b6000836113bc818561086c565b156114c0576040517f8f4ffcb10000000000000000000000000000000000000000000000000000000081523360048201818152602483018790523060448401819052608060648501908152875160848601528751600160a060020a03871695638f4ffcb195948b94938b939192909160a490910190602085019080838360005b8381101561145457818101518382015260200161143c565b50505050905090810190601f1680156114815780820380516001836020036101000a031916815260200191505b5095505050505050600060405180830381600087803b1580156114a357600080fd5b505af11580156114b7573d6000803e3d6000fd5b50505050600191505b509392505050565b600860209081526000928352604080842090915290825290205481565b600080600a541115156114f757600080fd5b50600a54309061150e90839063ffffffff611a6016565b600160a060020a03821631101561152457600080fd5b61152f333084611770565b600a5433906108fc9061154990859063ffffffff611a6016565b6040518115909202916000818181858888f19350505050158015611571573d6000803e3d6000fd5b505050565b6000546001546040805160e260020a633d9abf2b028152336004820152600160a060020a0393841660248201529290911660448301525173__AOLibrary_____________________________9163f66afcac916064808301926020929190829003018186803b1580156115e857600080fd5b505af41580156115fc573d6000803e3d6000fd5b505050506040513d602081101561161257600080fd5b5051151561161f57600080fd5b600160a060020a0382166000818152600c6020908152604091829020805460ff191685151590811790915582519384529083015280517f48335238b4855f35377ed80f164e8c6f3c366e54ac00b96a6402d4a9814a03a59281900390910190a15050565b6000546001546040805160e260020a633d9abf2b028152336004820152600160a060020a0393841660248201529290911660448301525173__AOLibrary_____________________________9163f66afcac916064808301926020929190829003018186803b1580156116f557600080fd5b505af4158015611709573d6000803e3d6000fd5b505050506040513d602081101561171f57600080fd5b5051151561172c57600080fd5b600160a060020a038116151561174157600080fd5b6000805473ffffffffffffffffffffffffffffffffffffffff1916600160a060020a0392909216919091179055565b6000600160a060020a038316151561178757600080fd5b600160a060020a0384166000908152600760205260409020548211156117ac57600080fd5b600160a060020a0383166000908152600760205260409020546117d5818463ffffffff61195816565b10156117e057600080fd5b600160a060020a0384166000908152600c602052604090205460ff161561180657600080fd5b600160a060020a0383166000908152600c602052604090205460ff161561182c57600080fd5b600160a060020a0380841660009081526007602052604080822054928716825290205461185e9163ffffffff61195816565b600160a060020a03851660009081526007602052604090205490915061188a908363ffffffff61196516565b600160a060020a0380861660009081526007602052604080822093909355908516815220546118bf908363ffffffff61195816565b600160a060020a0380851660008181526007602090815260409182902094909455805186815290519193928816927fddf252ad1be2c89b69c2b068fc378daa952ba7f163c4a11628f55a4df523b3ef92918290030190a3600160a060020a03808416600090815260076020526040808220549287168252902054829161194b919063ffffffff61195816565b1461195257fe5b50505050565b818101828110156108cd57fe5b60008282111561197157fe5b50900390565b600160a060020a0382166000908152600760205260409020546119a0908263ffffffff61195816565b600160a060020a0383166000908152600760205260409020556006546119cc908263ffffffff61195816565b60065560408051828152905130916000917fddf252ad1be2c89b69c2b068fc378daa952ba7f163c4a11628f55a4df523b3ef9181900360200190a3604080518281529051600160a060020a0384169130917fddf252ad1be2c89b69c2b068fc378daa952ba7f163c4a11628f55a4df523b3ef9181900360200190a35050565b60008183811515611a5857fe5b049392505050565b6000821515611a71575060006108cd565b50818102818382811515611a8157fe5b04146108cd57fe00a165627a7a723058205b1e1a8739989986a91c4d36a34350970cb4f9a4b84d7aeb24757855b9a19a680029",
	"source": "pragma solidity ^0.4.24;\n\nimport \"./AOTokenInterface.sol\";\n\ncontract AOKilo is AOTokenInterface {\n\t/**\n\t * @dev Constructor function\n\t */\n\tconstructor(uint256 initialSupply, string tokenName, string tokenSymbol)\n\t\tAOTokenInterface(initialSupply, tokenName, tokenSymbol) public {\n\t\tpowerOfTen = 3;\n\t\tdecimals = 3;\n\t}\n}\n",
	"sourcePath": "/Users/johanmulyono/Work/AO/ao-contracts/contracts/AOKilo.sol",
	"compiler": {
		"name": "solc",
		"version": "0.4.24+commit.e67f0147.Emscripten.clang"
	},
	"schemaVersion": "2.0.1",
	"updatedAt": "2019-01-07T03:04:12.929Z"
}