{
	"contractName": "AOLibrary",
	"abi": [
		{
			"constant": true,
			"inputs": [],
			"name": "PERCENTAGE_DIVISOR",
			"outputs": [
				{
					"name": "",
					"type": "uint256"
				}
			],
			"payable": false,
			"stateMutability": "view",
			"type": "function"
		},
		{
			"constant": true,
			"inputs": [],
			"name": "MULTIPLIER_DIVISOR",
			"outputs": [
				{
					"name": "",
					"type": "uint256"
				}
			],
			"payable": false,
			"stateMutability": "view",
			"type": "function"
		},
		{
			"constant": true,
			"inputs": [
				{
					"name": "_treasuryAddress",
					"type": "address"
				},
				{
					"name": "_networkIntegerAmount",
					"type": "uint256"
				},
				{
					"name": "_networkFractionAmount",
					"type": "uint256"
				},
				{
					"name": "_denomination",
					"type": "bytes8"
				},
				{
					"name": "_primordialAmount",
					"type": "uint256"
				},
				{
					"name": "_fileSize",
					"type": "uint256"
				}
			],
			"name": "canStake",
			"outputs": [
				{
					"name": "",
					"type": "bool"
				}
			],
			"payable": false,
			"stateMutability": "view",
			"type": "function"
		},
		{
			"constant": true,
			"inputs": [
				{
					"name": "_treasuryAddress",
					"type": "address"
				},
				{
					"name": "_networkIntegerAmount",
					"type": "uint256"
				},
				{
					"name": "_networkFractionAmount",
					"type": "uint256"
				},
				{
					"name": "_denomination",
					"type": "bytes8"
				},
				{
					"name": "_primordialAmount",
					"type": "uint256"
				},
				{
					"name": "_stakedNetworkAmount",
					"type": "uint256"
				},
				{
					"name": "_stakedPrimordialAmount",
					"type": "uint256"
				},
				{
					"name": "_stakedFileSize",
					"type": "uint256"
				}
			],
			"name": "canUnstakePartial",
			"outputs": [
				{
					"name": "",
					"type": "bool"
				}
			],
			"payable": false,
			"stateMutability": "view",
			"type": "function"
		},
		{
			"constant": true,
			"inputs": [
				{
					"name": "_treasuryAddress",
					"type": "address"
				},
				{
					"name": "_fileSize",
					"type": "uint256"
				},
				{
					"name": "_stakedAmount",
					"type": "uint256"
				},
				{
					"name": "_networkIntegerAmount",
					"type": "uint256"
				},
				{
					"name": "_networkFractionAmount",
					"type": "uint256"
				},
				{
					"name": "_denomination",
					"type": "bytes8"
				},
				{
					"name": "_primordialAmount",
					"type": "uint256"
				}
			],
			"name": "canStakeExisting",
			"outputs": [
				{
					"name": "",
					"type": "bool"
				}
			],
			"payable": false,
			"stateMutability": "view",
			"type": "function"
		},
		{
			"constant": true,
			"inputs": [
				{
					"name": "_treasuryAddress",
					"type": "address"
				},
				{
					"name": "_price",
					"type": "uint256"
				},
				{
					"name": "_networkIntegerAmount",
					"type": "uint256"
				},
				{
					"name": "_networkFractionAmount",
					"type": "uint256"
				},
				{
					"name": "_denomination",
					"type": "bytes8"
				}
			],
			"name": "canBuy",
			"outputs": [
				{
					"name": "",
					"type": "bool"
				}
			],
			"payable": false,
			"stateMutability": "view",
			"type": "function"
		},
		{
			"constant": true,
			"inputs": [
				{
					"name": "_currentWeightedMultiplier",
					"type": "uint256"
				},
				{
					"name": "_currentPrimordialBalance",
					"type": "uint256"
				},
				{
					"name": "_additionalWeightedMultiplier",
					"type": "uint256"
				},
				{
					"name": "_additionalPrimordialAmount",
					"type": "uint256"
				}
			],
			"name": "calculateWeightedMultiplier",
			"outputs": [
				{
					"name": "",
					"type": "uint256"
				}
			],
			"payable": false,
			"stateMutability": "pure",
			"type": "function"
		},
		{
			"constant": true,
			"inputs": [
				{
					"name": "_callingContractAddress",
					"type": "address"
				},
				{
					"name": "_message",
					"type": "string"
				}
			],
			"name": "doHash",
			"outputs": [
				{
					"name": "",
					"type": "bytes32"
				}
			],
			"payable": false,
			"stateMutability": "pure",
			"type": "function"
		},
		{
			"constant": true,
			"inputs": [
				{
					"name": "_callingContractAddress",
					"type": "address"
				},
				{
					"name": "_message",
					"type": "string"
				},
				{
					"name": "_v",
					"type": "uint8"
				},
				{
					"name": "_r",
					"type": "bytes32"
				},
				{
					"name": "_s",
					"type": "bytes32"
				}
			],
			"name": "checkSignature",
			"outputs": [
				{
					"name": "",
					"type": "address"
				}
			],
			"payable": false,
			"stateMutability": "pure",
			"type": "function"
		},
		{
			"constant": true,
			"inputs": [
				{
					"name": "_contentAddress",
					"type": "address"
				},
				{
					"name": "_earningAddress",
					"type": "address"
				},
				{
					"name": "_stakeId",
					"type": "bytes32"
				}
			],
			"name": "getContentMetrics",
			"outputs": [
				{
					"name": "",
					"type": "uint256"
				},
				{
					"name": "",
					"type": "uint256"
				},
				{
					"name": "",
					"type": "uint256"
				},
				{
					"name": "",
					"type": "uint256"
				},
				{
					"name": "",
					"type": "uint256"
				},
				{
					"name": "",
					"type": "uint256"
				}
			],
			"payable": false,
			"stateMutability": "view",
			"type": "function"
		},
		{
			"constant": true,
			"inputs": [
				{
					"name": "_contentAddress",
					"type": "address"
				},
				{
					"name": "_stakeId",
					"type": "bytes32"
				}
			],
			"name": "getStakingMetrics",
			"outputs": [
				{
					"name": "",
					"type": "uint256"
				},
				{
					"name": "",
					"type": "uint256"
				},
				{
					"name": "",
					"type": "uint256"
				}
			],
			"payable": false,
			"stateMutability": "view",
			"type": "function"
		},
		{
			"constant": true,
			"inputs": [
				{
					"name": "_earningAddress",
					"type": "address"
				},
				{
					"name": "_stakeId",
					"type": "bytes32"
				}
			],
			"name": "getEarningMetrics",
			"outputs": [
				{
					"name": "",
					"type": "uint256"
				},
				{
					"name": "",
					"type": "uint256"
				},
				{
					"name": "",
					"type": "uint256"
				}
			],
			"payable": false,
			"stateMutability": "view",
			"type": "function"
		},
		{
			"constant": true,
			"inputs": [
				{
					"name": "_purchaseAmount",
					"type": "uint256"
				},
				{
					"name": "_totalPrimordialMintable",
					"type": "uint256"
				},
				{
					"name": "_totalPrimordialMinted",
					"type": "uint256"
				},
				{
					"name": "_startingMultiplier",
					"type": "uint256"
				},
				{
					"name": "_endingMultiplier",
					"type": "uint256"
				}
			],
			"name": "calculatePrimordialMultiplier",
			"outputs": [
				{
					"name": "",
					"type": "uint256"
				}
			],
			"payable": false,
			"stateMutability": "pure",
			"type": "function"
		},
		{
			"constant": true,
			"inputs": [
				{
					"name": "_purchaseAmount",
					"type": "uint256"
				},
				{
					"name": "_totalPrimordialMintable",
					"type": "uint256"
				},
				{
					"name": "_totalPrimordialMinted",
					"type": "uint256"
				},
				{
					"name": "_startingMultiplier",
					"type": "uint256"
				},
				{
					"name": "_endingMultiplier",
					"type": "uint256"
				}
			],
			"name": "calculateNetworkTokenBonusPercentage",
			"outputs": [
				{
					"name": "",
					"type": "uint256"
				}
			],
			"payable": false,
			"stateMutability": "pure",
			"type": "function"
		},
		{
			"constant": true,
			"inputs": [
				{
					"name": "_purchaseAmount",
					"type": "uint256"
				},
				{
					"name": "_totalPrimordialMintable",
					"type": "uint256"
				},
				{
					"name": "_totalPrimordialMinted",
					"type": "uint256"
				},
				{
					"name": "_startingMultiplier",
					"type": "uint256"
				},
				{
					"name": "_endingMultiplier",
					"type": "uint256"
				}
			],
			"name": "calculateNetworkTokenBonusAmount",
			"outputs": [
				{
					"name": "",
					"type": "uint256"
				}
			],
			"payable": false,
			"stateMutability": "pure",
			"type": "function"
		},
		{
			"constant": true,
			"inputs": [
				{
					"name": "_primordialBalance",
					"type": "uint256"
				},
				{
					"name": "_currentWeightedMultiplier",
					"type": "uint256"
				},
				{
					"name": "_maximumMultiplier",
					"type": "uint256"
				}
			],
			"name": "calculateMaximumBurnAmount",
			"outputs": [
				{
					"name": "",
					"type": "uint256"
				}
			],
			"payable": false,
			"stateMutability": "pure",
			"type": "function"
		},
		{
			"constant": true,
			"inputs": [
				{
					"name": "_primordialBalance",
					"type": "uint256"
				},
				{
					"name": "_currentWeightedMultiplier",
					"type": "uint256"
				},
				{
					"name": "_amountToBurn",
					"type": "uint256"
				}
			],
			"name": "calculateMultiplierAfterBurn",
			"outputs": [
				{
					"name": "",
					"type": "uint256"
				}
			],
			"payable": false,
			"stateMutability": "pure",
			"type": "function"
		},
		{
			"constant": true,
			"inputs": [
				{
					"name": "_primordialBalance",
					"type": "uint256"
				},
				{
					"name": "_currentWeightedMultiplier",
					"type": "uint256"
				},
				{
					"name": "_amountToConvert",
					"type": "uint256"
				}
			],
			"name": "calculateMultiplierAfterConversion",
			"outputs": [
				{
					"name": "",
					"type": "uint256"
				}
			],
			"payable": false,
			"stateMutability": "pure",
			"type": "function"
		}
	],
	"bytecode": "0x610fbc610030600b82828239805160001a6073146000811461002057610022565bfe5b5030600052607381538281f30073000000000000000000000000000000000000000030146080604052600436106100f95763ffffffff60e060020a60003504166305c6c87081146100fe5780631acc478a1461013f5780632618ae211461018f57806332363e0a146101bf5780634553c343146101e25780634d5a1173146102175780636c4ef21e14610228578063749b78201461025b57806379f3e0bf146102855780637fbc9c551461030a57806380dc73771461031b5780638cf3313f146103755780638f8bd64c14610389578063c35f4bbb146103a0578063caf29765146103b7578063cf46827e146103bf578063d661dd31146103b7578063e9cfa745146103d6575b600080fd5b61012b600160a060020a0360043516602435604435600160c060020a03196064351660843560a4356103ed565b604080519115158252519081900360200190f35b61015c600160a060020a03600435811690602435166044356104d0565b604080519687526020870195909552858501939093526060850191909152608084015260a0830152519081900360c00190f35b61012b600160a060020a0360043516602435604435606435608435600160c060020a031960a4351660c435610526565b6101d0600435602435604435610611565b60408051918252519081900360200190f35b6101f9600160a060020a036004351660243561064a565b60408051938452602084019290925282820152519081900360600190f35b6101d06004356024356044356107f6565b61012b600160a060020a0360043516602435604435600160c060020a03196064351660843560a43560c43560e43561082b565b61012b600160a060020a0360043516602435604435606435600160c060020a0319608435166109d7565b60408051602060046024803582810135601f81018590048502860185019096528585526102ee958335600160a060020a03169536956044949193909101919081908401838280828437509497505050833560ff1694505050602082013591604001359050610a94565b60408051600160a060020a039092168252519081900360200190f35b6101d0600435602435604435610b13565b60408051602060046024803582810135601f81018590048502860185019096528585526101d0958335600160a060020a0316953695604494919390910191908190840183828082843750949750610b289650505050505050565b6101d0600435602435604435606435610c1f565b6101d0600435602435604435606435608435610c88565b6101d0600435602435604435606435608435610d3d565b6101d0610dc4565b6101f9600160a060020a0360043516602435610dcb565b6101d0600435602435604435606435608435610f08565b6000808611806103fd5750600085115b156104bb576040805160e360020a63042fb71d0281526004810188905260248101879052600160c060020a031986166044820152905183916104a6918691600160a060020a038c169163217db8e8916064808201926020929091908290030181600087803b15801561046e57600080fd5b505af1158015610482573d6000803e3d6000fd5b505050506040513d602081101561049857600080fd5b50519063ffffffff610f3316565b106104b3575060016104c6565b5060006104c6565b8183106104b3575060015b9695505050505050565b6000806000806000806000806000806000806104ec8f8e610dcb565b9550955095506104fc8e8e61064a565b9250925092508585858585859b509b509b509b509b509b5050505050505093975093979195509350565b6000808511806105365750600084115b156105e857866105df876105d3858c600160a060020a031663217db8e88b8b8b6040518463ffffffff1660e060020a028152600401808481526020018381526020018277ffffffffffffffffffffffffffffffffffffffffffffffff191677ffffffffffffffffffffffffffffffffffffffffffffffff191681526020019350505050602060405180830381600087803b15801561046e57600080fd5b9063ffffffff610f3316565b10159050610606565b600082111561060257866105df878463ffffffff610f3316565b5060005b979650505050505050565b6000610642610626858463ffffffff610f4016565b610636868663ffffffff610f5216565b9063ffffffff610f7b16565b949350505050565b600080600084600160a060020a0316639587085d856040518263ffffffff1660e060020a028152600401808260001916600019168152602001915050602060405180830381600087803b1580156106a057600080fd5b505af11580156106b4573d6000803e3d6000fd5b505050506040513d60208110156106ca57600080fd5b5051604080517faace426d000000000000000000000000000000000000000000000000000000008152600481018790529051600160a060020a0388169163aace426d9160248083019260209291908290030181600087803b15801561072e57600080fd5b505af1158015610742573d6000803e3d6000fd5b505050506040513d602081101561075857600080fd5b5051604080517fe957a85b000000000000000000000000000000000000000000000000000000008152600481018890529051600160a060020a0389169163e957a85b9160248083019260209291908290030181600087803b1580156107bc57600080fd5b505af11580156107d0573d6000803e3d6000fd5b505050506040513d60208110156107e657600080fd5b5051919450925090509250925092565b60006106428261063661080f878763ffffffff610f5216565b61081f868963ffffffff610f5216565b9063ffffffff610f4016565b60008088118061083b5750600087115b80156108d457506040805160e360020a63042fb71d028152600481018a905260248101899052600160c060020a0319881660448201529051600160a060020a038b169163217db8e89160648083019260209291908290030181600087803b1580156108a557600080fd5b505af11580156108b9573d6000803e3d6000fd5b505050506040513d60208110156108cf57600080fd5b505184105b806108de57508483105b806109b1575060008811806108f35750600087115b80156109b15750816109af61090e858863ffffffff610f4016565b6040805160e360020a63042fb71d028152600481018d9052602481018c9052600160c060020a03198b16604482015290516105d391600160a060020a038f169163217db8e8916064808201926020929091908290030181600087803b15801561097657600080fd5b505af115801561098a573d6000803e3d6000fd5b505050506040513d60208110156109a057600080fd5b5051889063ffffffff610f4016565b105b806109ba575060005b156109c7575060006109cb565b5060015b98975050505050505050565b6000808411806109e75750600083115b15610a87576040805160e360020a63042fb71d0281526004810186905260248101859052600160c060020a03198416604482015290518691600160a060020a0389169163217db8e8916064808201926020929091908290030181600087803b158015610a5257600080fd5b505af1158015610a66573d6000803e3d6000fd5b505050506040513d6020811015610a7c57600080fd5b505110159050610a8b565b5060005b95945050505050565b600080610aa18787610b28565b604080516000808252602080830180855285905260ff8a16838501526060830189905260808301889052925193945060019360a08084019493601f19830193908390039091019190865af1158015610afd573d6000803e3d6000fd5b5050604051601f19015198975050505050505050565b6000610642610626858463ffffffff610f3316565b600082826040516020018083600160a060020a0316600160a060020a03166c0100000000000000000000000002815260140182805190602001908083835b60208310610b855780518252601f199092019160209182019101610b66565b6001836020036101000a038019825116818451168082178552505050505050905001925050506040516020818303038152906040526040518082805190602001908083835b60208310610be95780518252601f199092019160209182019101610bca565b6001836020036101000a038019825116818451168082178552505050505050905001915050604051809103902090505b92915050565b600080600080871115610c7a57610c4f610c3f868663ffffffff610f5216565b6105d3898963ffffffff610f5216565b9150610c61868563ffffffff610f3316565b9050610c73828263ffffffff610f7b16565b9250610c7e565b8492505b5050949350505050565b60008060008088118015610cab5750610ca7878763ffffffff610f4016565b8811155b15610d2d57610cd1610cc489600263ffffffff610f7b16565b879063ffffffff610f3316565b9150610d23620f4240610636610ced888863ffffffff610f4016565b610d17610d078c610636620f42408a63ffffffff610f5216565b620f42409063ffffffff610f4016565b9063ffffffff610f5216565b9050809250610d32565b600092505b505095945050505050565b60008060008088118015610d605750610d5c878763ffffffff610f4016565b8811155b15610d2d57610d79610cc489600263ffffffff610f7b16565b9150610da8610d8e868663ffffffff610f4016565b610d17610d078a610636620f42408863ffffffff610f5216565b9050610dbd81620f424063ffffffff610f7b16565b9250610d32565b620f424081565b60008060008060008087600160a060020a031663e2499b98886040518263ffffffff1660e060020a028152600401808260001916600019168152602001915050600060405180830381600087803b158015610e2557600080fd5b505af1158015610e39573d6000803e3d6000fd5b505050506040513d6000823e601f3d908101601f19168201604052610120811015610e6357600080fd5b8151602083015160408401516060850151608086015160a087015160c088015160e08901516101008a018051989a9799969895979496939592949193820192640100000000811115610eb457600080fd5b82016020810184811115610ec757600080fd5b8151640100000000811182820187101715610ee157600080fd5b50509291905050505050505094509450945050508282829550955095505050509250925092565b6000806000610f1a8888888888610c88565b91506109cb620f4240610636848b63ffffffff610f5216565b81810182811015610c1957fe5b600082821115610f4c57fe5b50900390565b6000821515610f6357506000610c19565b50818102818382811515610f7357fe5b0414610c1957fe5b60008183811515610f8857fe5b0493925050505600a165627a7a7230582089a9d339d15e9091a5907f0081f11da6b29ebc45ff87ffccdec8f2ae051caaf80029",
	"source": "pragma solidity ^0.4.24;\n\nimport './SafeMath.sol';\nimport './AOTreasury.sol';\nimport './AOContent.sol';\nimport './AOEarning.sol';\n\n/**\n * @title AOLibrary\n */\nlibrary AOLibrary {\n\tusing SafeMath for uint256;\n\n\tuint256 constant public MULTIPLIER_DIVISOR = 10 ** 6; // 1000000 = 1\n\tuint256 constant public PERCENTAGE_DIVISOR = 10 ** 6; // 100% = 1000000\n\n\t/**\n\t * @dev Check whether the network token and/or primordial token is adequate to pay for the filesize\n\t * @param _treasuryAddress AO treasury contract address\n\t * @param _networkIntegerAmount The integer amount of the network token\n\t * @param _networkFractionAmount The fraction amount of the network token\n\t * @param _denomination The denomination of the the network token\n\t * @param _primordialAmount The amount of primordial token\n\t * @param _fileSize The file size of the content\n\t * @return true when the amount is sufficient, false otherwise\n\t */\n\tfunction canStake(address _treasuryAddress, uint256 _networkIntegerAmount, uint256 _networkFractionAmount, bytes8 _denomination, uint256 _primordialAmount, uint256 _fileSize) public view returns (bool) {\n\t\tif (_denomination.length > 0 && (_networkIntegerAmount > 0 || _networkFractionAmount > 0)) {\n\t\t\tif (AOTreasury(_treasuryAddress).toBase(_networkIntegerAmount, _networkFractionAmount, _denomination).add(_primordialAmount) >= _fileSize) {\n\t\t\t\treturn true;\n\t\t\t} else {\n\t\t\t\treturn false;\n\t\t\t}\n\t\t} else if (_primordialAmount >= _fileSize) {\n\t\t\treturn true;\n\t\t} else {\n\t\t\treturn false;\n\t\t}\n\t}\n\n\t/**\n\t * @dev Check whether or the requested unstake amount is valid\n\t * @param _treasuryAddress AO treasury contract address\n\t * @param _networkIntegerAmount The integer amount of the network token\n\t * @param _networkFractionAmount The fraction amount of the network token\n\t * @param _denomination The denomination of the the network token\n\t * @param _primordialAmount The amount of primordial token\n\t * @param _stakedNetworkAmount The current staked network token amount\n\t * @param _stakedPrimordialAmount The current staked primordial token amount\n\t * @param _stakedFileSize The file size of the staked content\n\t * @return true if can unstake, false otherwise\n\t */\n\tfunction canUnstakePartial(\n\t\taddress _treasuryAddress,\n\t\tuint256 _networkIntegerAmount,\n\t\tuint256 _networkFractionAmount,\n\t\tbytes8 _denomination,\n\t\tuint256 _primordialAmount,\n\t\tuint256 _stakedNetworkAmount,\n\t\tuint256 _stakedPrimordialAmount,\n\t\tuint256 _stakedFileSize) public view returns (bool) {\n\t\tif (\n\t\t\t(_denomination.length > 0 &&\n\t\t\t\t(_networkIntegerAmount > 0 || _networkFractionAmount > 0) &&\n\t\t\t\t_stakedNetworkAmount < AOTreasury(_treasuryAddress).toBase(_networkIntegerAmount, _networkFractionAmount, _denomination)\n\t\t\t) ||\n\t\t\t_stakedPrimordialAmount < _primordialAmount ||\n\t\t\t(\n\t\t\t\t_denomination.length > 0\n\t\t\t\t\t&& (_networkIntegerAmount > 0 || _networkFractionAmount > 0)\n\t\t\t\t\t&& (_stakedNetworkAmount.sub(AOTreasury(_treasuryAddress).toBase(_networkIntegerAmount, _networkFractionAmount, _denomination)).add(_stakedPrimordialAmount.sub(_primordialAmount)) < _stakedFileSize)\n\t\t\t) ||\n\t\t\t( _denomination.length == 0 && _networkIntegerAmount == 0 && _networkFractionAmount == 0 && _primordialAmount > 0 && _stakedPrimordialAmount.sub(_primordialAmount) < _stakedFileSize)\n\t\t) {\n\t\t\treturn false;\n\t\t} else {\n\t\t\treturn true;\n\t\t}\n\t}\n\n\t/**\n\t * @dev Check whether the network token and/or primordial token is adequate to pay for existing staked content\n\t * @param _treasuryAddress AO treasury contract address\n\t * @param _fileSize The size of the file\n\t * @param _stakedAmount The total staked amount\n\t * @param _networkIntegerAmount The integer amount of the network token\n\t * @param _networkFractionAmount The fraction amount of the network token\n\t * @param _denomination The denomination of the the network token\n\t * @param _primordialAmount The amount of primordial token\n\t * @return true when the amount is sufficient, false otherwise\n\t */\n\tfunction canStakeExisting(address _treasuryAddress, uint256 _fileSize, uint256 _stakedAmount, uint256 _networkIntegerAmount, uint256 _networkFractionAmount, bytes8 _denomination, uint256 _primordialAmount) public view returns (bool) {\n\t\tif (_denomination.length > 0 && (_networkIntegerAmount > 0 || _networkFractionAmount > 0)) {\n\t\t\treturn AOTreasury(_treasuryAddress).toBase(_networkIntegerAmount, _networkFractionAmount, _denomination).add(_primordialAmount).add(_stakedAmount) >= _fileSize;\n\t\t} else if (_primordialAmount > 0) {\n\t\t\treturn _stakedAmount.add(_primordialAmount) >= _fileSize;\n\t\t} else {\n\t\t\treturn false;\n\t\t}\n\t}\n\n\t/**\n\t * @dev Check whether the network token is adequate to pay for existing staked content\n\t * @param _treasuryAddress AO treasury contract address\n\t * @param _price The price of the content\n\t * @param _networkIntegerAmount The integer amount of the network token\n\t * @param _networkFractionAmount The fraction amount of the network token\n\t * @param _denomination The denomination of the the network token\n\t * @return true when the amount is sufficient, false otherwise\n\t */\n\tfunction canBuy(address _treasuryAddress, uint256 _price, uint256 _networkIntegerAmount, uint256 _networkFractionAmount, bytes8 _denomination) public view returns (bool) {\n\t\tif (_denomination.length > 0 && (_networkIntegerAmount > 0 || _networkFractionAmount > 0)) {\n\t\t\treturn AOTreasury(_treasuryAddress).toBase(_networkIntegerAmount, _networkFractionAmount, _denomination) >= _price;\n\t\t} else {\n\t\t\treturn false;\n\t\t}\n\t}\n\n\t/**\n\t * @dev Calculate the new weighted multiplier when adding `_additionalPrimordialAmount` at `_additionalWeightedMultiplier` to the current `_currentPrimordialBalance` at `_currentWeightedMultiplier`\n\t * @param _currentWeightedMultiplier Account's current weighted multiplier\n\t * @param _currentPrimordialBalance Account's current primordial token balance\n\t * @param _additionalWeightedMultiplier The weighted multiplier to be added\n\t * @param _additionalPrimordialAmount The primordial token amount to be added\n\t * @return the new primordial weighted multiplier\n\t */\n\tfunction calculateWeightedMultiplier(uint256 _currentWeightedMultiplier, uint256 _currentPrimordialBalance, uint256 _additionalWeightedMultiplier, uint256 _additionalPrimordialAmount) public pure returns (uint256) {\n\t\tif (_currentWeightedMultiplier > 0) {\n\t\t\tuint256 _totalWeightedTokens = (_currentWeightedMultiplier.mul(_currentPrimordialBalance)).add(_additionalWeightedMultiplier.mul(_additionalPrimordialAmount));\n\t\t\tuint256 _totalTokens = _currentPrimordialBalance.add(_additionalPrimordialAmount);\n\t\t\treturn _totalWeightedTokens.div(_totalTokens);\n\t\t} else {\n\t\t\treturn _additionalWeightedMultiplier;\n\t\t}\n\t}\n\n\t/**\n\t * @dev Generate hash of the message\n\t * @param _callingContractAddress the address of the calling contract\n\t * @param _message the message to be hashed\n\t * @return hash\n\t */\n\tfunction doHash(address _callingContractAddress, string _message) public pure returns (bytes32) {\n\t\treturn keccak256(abi.encodePacked(_callingContractAddress, _message));\n\t}\n\n\t/**\n\t * @dev Return the address that signed the message\n\t * @param _callingContractAddress the address of the calling contract\n\t * @param _message the message that was signed\n\t * @param _v part of the signature\n\t * @param _r part of the signature\n\t * @param _s part of the signature\n\t * @return the address that signed the message\n\t */\n\tfunction checkSignature(address _callingContractAddress, string _message, uint8 _v, bytes32 _r, bytes32 _s) public pure returns (address) {\n\t\tbytes32 _hash = doHash(_callingContractAddress, _message);\n\t\treturn ecrecover(_hash, _v, _r, _s);\n\t}\n\n\t/**\n\t * @dev Return the staking and earning information of a stake ID\n\t * @param _contentAddress The address of AOContent\n\t * @param _earningAddress The address of AOEarning\n\t * @param _stakeId The ID of the staked content\n\t * @return the network base token amount staked for this content\n\t * @return the primordial token amount staked for this content\n\t * @return the primordial weighted multiplier of the staked content\n\t * @return the total earning from staking this content\n\t * @return the total earning from hosting this content\n\t * @return the total foundation earning of this content\n\t */\n\tfunction getContentMetrics(address _contentAddress, address _earningAddress, bytes32 _stakeId) public view returns (uint256, uint256, uint256, uint256, uint256, uint256) {\n\t\t(uint256 networkAmount, uint256 primordialAmount, uint256 primordialWeightedMultiplier) = getStakingMetrics(_contentAddress, _stakeId);\n\t\t(uint256 totalStakeEarning, uint256 totalHostEarning, uint256 totalFoundationEarning) = getEarningMetrics(_earningAddress, _stakeId);\n\t\treturn (\n\t\t\tnetworkAmount,\n\t\t\tprimordialAmount,\n\t\t\tprimordialWeightedMultiplier,\n\t\t\ttotalStakeEarning,\n\t\t\ttotalHostEarning,\n\t\t\ttotalFoundationEarning\n\t\t);\n\t}\n\n\t/**\n\t * @dev Return the staking information of a stake ID\n\t * @param _contentAddress The address of AOContent\n\t * @param _stakeId The ID of the staked content\n\t * @return the network base token amount staked for this content\n\t * @return the primordial token amount staked for this content\n\t * @return the primordial weighted multiplier of the staked content\n\t */\n\tfunction getStakingMetrics(address _contentAddress, bytes32 _stakeId) public view returns (uint256, uint256, uint256) {\n\t\t(,, uint256 networkAmount, uint256 primordialAmount, uint256 primordialWeightedMultiplier,,,,) = AOContent(_contentAddress).stakedContentById(_stakeId);\n\t\treturn (\n\t\t\tnetworkAmount,\n\t\t\tprimordialAmount,\n\t\t\tprimordialWeightedMultiplier\n\t\t);\n\t}\n\n\t/**\n\t * @dev Return the earning information of a stake ID\n\t * @param _earningAddress The address of AOEarning\n\t * @param _stakeId The ID of the staked content\n\t * @return the total earning from staking this content\n\t * @return the total earning from hosting this content\n\t * @return the total foundation earning of this content\n\t */\n\tfunction getEarningMetrics(address _earningAddress, bytes32 _stakeId) public view returns (uint256, uint256, uint256) {\n\t\treturn (\n\t\t\tAOEarning(_earningAddress).totalStakedContentStakeEarning(_stakeId),\n\t\t\tAOEarning(_earningAddress).totalStakedContentHostEarning(_stakeId),\n\t\t\tAOEarning(_earningAddress).totalStakedContentFoundationEarning(_stakeId)\n\t\t);\n\t}\n\n\t/**\n\t * @dev Calculate the primordial token multiplier on a given lot\n\t *\t\tTotal Primordial Mintable = T\n\t *\t\tTotal Primordial Minted = M\n\t *\t\tStarting Multiplier = S\n\t *\t\tEnding Multiplier = E\n\t *\t\tTo Purchase = P\n\t *\t\tMultiplier for next Lot of Amount = (1 - ((M + P/2) / T)) x (S-E)\n\t *\n\t * @param _purchaseAmount The amount of primordial token intended to be purchased\n\t * @param _totalPrimordialMintable Total Primordial token intable\n\t * @param _totalPrimordialMinted Total Primordial token minted so far\n\t * @param _startingMultiplier The starting multiplier in (10 ** 6)\n\t * @param _endingMultiplier The ending multiplier in (10 ** 6)\n\t * @return The multiplier in (10 ** 6)\n\t */\n\tfunction calculatePrimordialMultiplier(uint256 _purchaseAmount, uint256 _totalPrimordialMintable, uint256 _totalPrimordialMinted, uint256 _startingMultiplier, uint256 _endingMultiplier) public pure returns (uint256) {\n\t\tif (_purchaseAmount > 0 && _purchaseAmount <= _totalPrimordialMintable.sub(_totalPrimordialMinted)) {\n\t\t\t/**\n\t\t\t * Let temp = M + (P/2)\n\t\t\t * Multiplier = (1 - (temp / T)) x (S-E)\n\t\t\t */\n\t\t\tuint256 temp = _totalPrimordialMinted.add(_purchaseAmount.div(2));\n\n\t\t\t/**\n\t\t\t * Multiply multiplier with MULTIPLIER_DIVISOR/MULTIPLIER_DIVISOR to account for 6 decimals\n\t\t\t * so, Multiplier = (MULTIPLIER_DIVISOR/MULTIPLIER_DIVISOR) * (1 - (temp / T)) * (S-E)\n\t\t\t * Multiplier = ((MULTIPLIER_DIVISOR * (1 - (temp / T))) * (S-E)) / MULTIPLIER_DIVISOR\n\t\t\t * Multiplier = ((MULTIPLIER_DIVISOR - ((MULTIPLIER_DIVISOR * temp) / T)) * (S-E)) / MULTIPLIER_DIVISOR\n\t\t\t * Take out the division by MULTIPLIER_DIVISOR for now and include in later calculation\n\t\t\t * Multiplier = (MULTIPLIER_DIVISOR - ((MULTIPLIER_DIVISOR * temp) / T)) * (S-E)\n\t\t\t */\n\t\t\tuint256 multiplier = (MULTIPLIER_DIVISOR.sub(MULTIPLIER_DIVISOR.mul(temp).div(_totalPrimordialMintable))).mul(_startingMultiplier.sub(_endingMultiplier));\n\t\t\t/**\n\t\t\t * Since _startingMultiplier and _endingMultiplier are in 6 decimals\n\t\t\t * Need to divide multiplier by MULTIPLIER_DIVISOR\n\t\t\t */\n\t\t\treturn multiplier.div(MULTIPLIER_DIVISOR);\n\t\t} else {\n\t\t\treturn 0;\n\t\t}\n\t}\n\n\t/**\n\t * @dev Calculate the bonus percentage of network token on a given lot\n\t *\t\tTotal Primordial Mintable = T\n\t *\t\tTotal Primordial Minted = M\n\t *\t\tStarting Network Token Bonus Multiplier = Bs\n\t *\t\tEnding Network Token Bonus Multiplier = Be\n\t *\t\tTo Purchase = P\n\t *\t\tAO Bonus % = B% = (1 - ((M + P/2) / T)) x (Bs-Be)\n\t *\n\t * @param _purchaseAmount The amount of primordial token intended to be purchased\n\t * @param _totalPrimordialMintable Total Primordial token intable\n\t * @param _totalPrimordialMinted Total Primordial token minted so far\n\t * @param _startingMultiplier The starting Network token bonus multiplier\n\t * @param _endingMultiplier The ending Network token bonus multiplier\n\t * @return The bonus percentage\n\t */\n\tfunction calculateNetworkTokenBonusPercentage(uint256 _purchaseAmount, uint256 _totalPrimordialMintable, uint256 _totalPrimordialMinted, uint256 _startingMultiplier, uint256 _endingMultiplier) public pure returns (uint256) {\n\t\tif (_purchaseAmount > 0 && _purchaseAmount <= _totalPrimordialMintable.sub(_totalPrimordialMinted)) {\n\t\t\t/**\n\t\t\t * Let temp = M + (P/2)\n\t\t\t * B% = (1 - (temp / T)) x (Bs-Be)\n\t\t\t */\n\t\t\tuint256 temp = _totalPrimordialMinted.add(_purchaseAmount.div(2));\n\n\t\t\t/**\n\t\t\t * Multiply B% with PERCENTAGE_DIVISOR/PERCENTAGE_DIVISOR to account for 6 decimals\n\t\t\t * so, B% = (PERCENTAGE_DIVISOR/PERCENTAGE_DIVISOR) * (1 - (temp / T)) * (Bs-Be)\n\t\t\t * B% = ((PERCENTAGE_DIVISOR * (1 - (temp / T))) * (Bs-Be)) / PERCENTAGE_DIVISOR\n\t\t\t * B% = ((PERCENTAGE_DIVISOR - ((PERCENTAGE_DIVISOR * temp) / T)) * (Bs-Be)) / PERCENTAGE_DIVISOR\n\t\t\t * Take out the division by PERCENTAGE_DIVISOR for now and include in later calculation\n\t\t\t * B% = (PERCENTAGE_DIVISOR - ((PERCENTAGE_DIVISOR * temp) / T)) * (Bs-Be)\n\t\t\t * But since Bs and Be are in 6 decimals, need to divide by PERCENTAGE_DIVISOR\n\t\t\t * B% = (PERCENTAGE_DIVISOR - ((PERCENTAGE_DIVISOR * temp) / T)) * (Bs-Be) / PERCENTAGE_DIVISOR\n\t\t\t */\n\t\t\tuint256 bonusPercentage = (PERCENTAGE_DIVISOR.sub(PERCENTAGE_DIVISOR.mul(temp).div(_totalPrimordialMintable))).mul(_startingMultiplier.sub(_endingMultiplier)).div(PERCENTAGE_DIVISOR);\n\t\t\treturn bonusPercentage;\n\t\t} else {\n\t\t\treturn 0;\n\t\t}\n\t}\n\n\t/**\n\t * @dev Calculate the bonus amount of network token on a given lot\n\t *\t\tAO Bonus Amount = B% x P\n\t *\n\t * @param _purchaseAmount The amount of primordial token intended to be purchased\n\t * @param _totalPrimordialMintable Total Primordial token intable\n\t * @param _totalPrimordialMinted Total Primordial token minted so far\n\t * @param _startingMultiplier The starting Network token bonus multiplier\n\t * @param _endingMultiplier The ending Network token bonus multiplier\n\t * @return The bonus percentage\n\t */\n\tfunction calculateNetworkTokenBonusAmount(uint256 _purchaseAmount, uint256 _totalPrimordialMintable, uint256 _totalPrimordialMinted, uint256 _startingMultiplier, uint256 _endingMultiplier) public pure returns (uint256) {\n\t\tuint256 bonusPercentage = calculateNetworkTokenBonusPercentage(_purchaseAmount, _totalPrimordialMintable, _totalPrimordialMinted, _startingMultiplier, _endingMultiplier);\n\t\t/**\n\t\t * Since bonusPercentage is in PERCENTAGE_DIVISOR format, need to divide it with PERCENTAGE DIVISOR\n\t\t * when calculating the network token bonus amount\n\t\t */\n\t\tuint256 networkTokenBonus = bonusPercentage.mul(_purchaseAmount).div(PERCENTAGE_DIVISOR);\n\t\treturn networkTokenBonus;\n\t}\n\n\t/**\n\t * @dev Calculate the maximum amount of Primordial an account can burn\n\t *\t\t_primordialBalance = P\n\t *\t\t_currentWeightedMultiplier = M\n\t *\t\t_maximumMultiplier = S\n\t *\t\t_amountToBurn = B\n\t *\t\tB = ((S x P) - (P x M)) / S\n\t *\n\t * @param _primordialBalance Account's primordial token balance\n\t * @param _currentWeightedMultiplier Account's current weighted multiplier\n\t * @param _maximumMultiplier The maximum multiplier of this account\n\t * @return The maximum burn amount\n\t */\n\tfunction calculateMaximumBurnAmount(uint256 _primordialBalance, uint256 _currentWeightedMultiplier, uint256 _maximumMultiplier) public pure returns (uint256) {\n\t\treturn (_maximumMultiplier.mul(_primordialBalance).sub(_primordialBalance.mul(_currentWeightedMultiplier))).div(_maximumMultiplier);\n\t}\n\n\t/**\n\t * @dev Calculate the new multiplier after burning primordial token\n\t *\t\t_primordialBalance = P\n\t *\t\t_currentWeightedMultiplier = M\n\t *\t\t_amountToBurn = B\n\t *\t\t_newMultiplier = E\n\t *\t\tE = (P x M) / (P - B)\n\t *\n\t * @param _primordialBalance Account's primordial token balance\n\t * @param _currentWeightedMultiplier Account's current weighted multiplier\n\t * @param _amountToBurn The amount of primordial token to burn\n\t * @return The new multiplier\n\t */\n\tfunction calculateMultiplierAfterBurn(uint256 _primordialBalance, uint256 _currentWeightedMultiplier, uint256 _amountToBurn) public pure returns (uint256) {\n\t\treturn _primordialBalance.mul(_currentWeightedMultiplier).div(_primordialBalance.sub(_amountToBurn));\n\t}\n\n\t/**\n\t * @dev Calculate the new multiplier after converting network token to primordial token\n\t *\t\t_primordialBalance = P\n\t *\t\t_currentWeightedMultiplier = M\n\t *\t\t_amountToConvert = C\n\t *\t\t_newMultiplier = E\n\t *\t\tE = (P x M) / (P + C)\n\t *\n\t * @param _primordialBalance Account's primordial token balance\n\t * @param _currentWeightedMultiplier Account's current weighted multiplier\n\t * @param _amountToConvert The amount of network token to convert\n\t * @return The new multiplier\n\t */\n\tfunction calculateMultiplierAfterConversion(uint256 _primordialBalance, uint256 _currentWeightedMultiplier, uint256 _amountToConvert) public pure returns (uint256) {\n\t\treturn _primordialBalance.mul(_currentWeightedMultiplier).div(_primordialBalance.add(_amountToConvert));\n\t}\n}\n",
	"sourcePath": "/home/jmulyono/ao-contracts/contracts/AOLibrary.sol",
	"compiler": {
		"name": "solc",
		"version": "0.4.24+commit.e67f0147.Emscripten.clang"
	},
	"schemaVersion": "2.0.1",
	"updatedAt": "2018-10-11T17:02:46.032Z"
}