{
	"contractName": "AOLibrary",
	"abi": [
		{
			"constant": true,
			"inputs": [],
			"name": "PERCENTAGE_DIVISOR",
			"outputs": [
				{
					"name": "",
					"type": "uint256"
				}
			],
			"payable": false,
			"stateMutability": "pure",
			"type": "function"
		},
		{
			"constant": true,
			"inputs": [],
			"name": "MULTIPLIER_DIVISOR",
			"outputs": [
				{
					"name": "",
					"type": "uint256"
				}
			],
			"payable": false,
			"stateMutability": "pure",
			"type": "function"
		},
		{
			"constant": true,
			"inputs": [
				{
					"name": "_treasuryAddress",
					"type": "address"
				},
				{
					"name": "_networkIntegerAmount",
					"type": "uint256"
				},
				{
					"name": "_networkFractionAmount",
					"type": "uint256"
				},
				{
					"name": "_denomination",
					"type": "bytes8"
				},
				{
					"name": "_primordialAmount",
					"type": "uint256"
				},
				{
					"name": "_baseChallenge",
					"type": "string"
				},
				{
					"name": "_encChallenge",
					"type": "string"
				},
				{
					"name": "_contentDatKey",
					"type": "string"
				},
				{
					"name": "_metadataDatKey",
					"type": "string"
				},
				{
					"name": "_fileSize",
					"type": "uint256"
				},
				{
					"name": "_profitPercentage",
					"type": "uint256"
				}
			],
			"name": "canStake",
			"outputs": [
				{
					"name": "",
					"type": "bool"
				}
			],
			"payable": false,
			"stateMutability": "view",
			"type": "function"
		},
		{
			"constant": true,
			"inputs": [
				{
					"name": "_treasuryAddress",
					"type": "address"
				},
				{
					"name": "_networkIntegerAmount",
					"type": "uint256"
				},
				{
					"name": "_networkFractionAmount",
					"type": "uint256"
				},
				{
					"name": "_denomination",
					"type": "bytes8"
				},
				{
					"name": "_primordialAmount",
					"type": "uint256"
				},
				{
					"name": "_stakedNetworkAmount",
					"type": "uint256"
				},
				{
					"name": "_stakedPrimordialAmount",
					"type": "uint256"
				},
				{
					"name": "_stakedFileSize",
					"type": "uint256"
				}
			],
			"name": "canUnstakePartial",
			"outputs": [
				{
					"name": "",
					"type": "bool"
				}
			],
			"payable": false,
			"stateMutability": "view",
			"type": "function"
		},
		{
			"constant": true,
			"inputs": [
				{
					"name": "_treasuryAddress",
					"type": "address"
				},
				{
					"name": "_isAOContentUsageType",
					"type": "bool"
				},
				{
					"name": "_fileSize",
					"type": "uint256"
				},
				{
					"name": "_stakedAmount",
					"type": "uint256"
				},
				{
					"name": "_networkIntegerAmount",
					"type": "uint256"
				},
				{
					"name": "_networkFractionAmount",
					"type": "uint256"
				},
				{
					"name": "_denomination",
					"type": "bytes8"
				},
				{
					"name": "_primordialAmount",
					"type": "uint256"
				}
			],
			"name": "canStakeExisting",
			"outputs": [
				{
					"name": "",
					"type": "bool"
				}
			],
			"payable": false,
			"stateMutability": "view",
			"type": "function"
		},
		{
			"constant": true,
			"inputs": [
				{
					"name": "_treasuryAddress",
					"type": "address"
				},
				{
					"name": "_price",
					"type": "uint256"
				},
				{
					"name": "_networkIntegerAmount",
					"type": "uint256"
				},
				{
					"name": "_networkFractionAmount",
					"type": "uint256"
				},
				{
					"name": "_denomination",
					"type": "bytes8"
				}
			],
			"name": "canBuy",
			"outputs": [
				{
					"name": "",
					"type": "bool"
				}
			],
			"payable": false,
			"stateMutability": "view",
			"type": "function"
		},
		{
			"constant": true,
			"inputs": [
				{
					"name": "_currentWeightedMultiplier",
					"type": "uint256"
				},
				{
					"name": "_currentPrimordialBalance",
					"type": "uint256"
				},
				{
					"name": "_additionalWeightedMultiplier",
					"type": "uint256"
				},
				{
					"name": "_additionalPrimordialAmount",
					"type": "uint256"
				}
			],
			"name": "calculateWeightedMultiplier",
			"outputs": [
				{
					"name": "",
					"type": "uint256"
				}
			],
			"payable": false,
			"stateMutability": "pure",
			"type": "function"
		},
		{
			"constant": true,
			"inputs": [
				{
					"name": "_callingContractAddress",
					"type": "address"
				},
				{
					"name": "_message",
					"type": "string"
				},
				{
					"name": "_v",
					"type": "uint8"
				},
				{
					"name": "_r",
					"type": "bytes32"
				},
				{
					"name": "_s",
					"type": "bytes32"
				}
			],
			"name": "getBecomeHostSignatureAddress",
			"outputs": [
				{
					"name": "",
					"type": "address"
				}
			],
			"payable": false,
			"stateMutability": "pure",
			"type": "function"
		},
		{
			"constant": true,
			"inputs": [
				{
					"name": "_callingContractAddress",
					"type": "address"
				},
				{
					"name": "_contentId",
					"type": "bytes32"
				},
				{
					"name": "_thoughtId",
					"type": "address"
				},
				{
					"name": "_taoContentState",
					"type": "bytes32"
				},
				{
					"name": "_v",
					"type": "uint8"
				},
				{
					"name": "_r",
					"type": "bytes32"
				},
				{
					"name": "_s",
					"type": "bytes32"
				}
			],
			"name": "getUpdateTAOContentStateSignatureAddress",
			"outputs": [
				{
					"name": "",
					"type": "address"
				}
			],
			"payable": false,
			"stateMutability": "pure",
			"type": "function"
		},
		{
			"constant": true,
			"inputs": [
				{
					"name": "_contentAddress",
					"type": "address"
				},
				{
					"name": "_earningAddress",
					"type": "address"
				},
				{
					"name": "_stakeId",
					"type": "bytes32"
				}
			],
			"name": "getContentMetrics",
			"outputs": [
				{
					"name": "",
					"type": "uint256"
				},
				{
					"name": "",
					"type": "uint256"
				},
				{
					"name": "",
					"type": "uint256"
				},
				{
					"name": "",
					"type": "uint256"
				},
				{
					"name": "",
					"type": "uint256"
				},
				{
					"name": "",
					"type": "uint256"
				}
			],
			"payable": false,
			"stateMutability": "view",
			"type": "function"
		},
		{
			"constant": true,
			"inputs": [
				{
					"name": "_contentAddress",
					"type": "address"
				},
				{
					"name": "_stakeId",
					"type": "bytes32"
				}
			],
			"name": "getStakingMetrics",
			"outputs": [
				{
					"name": "",
					"type": "uint256"
				},
				{
					"name": "",
					"type": "uint256"
				},
				{
					"name": "",
					"type": "uint256"
				}
			],
			"payable": false,
			"stateMutability": "view",
			"type": "function"
		},
		{
			"constant": true,
			"inputs": [
				{
					"name": "_earningAddress",
					"type": "address"
				},
				{
					"name": "_stakeId",
					"type": "bytes32"
				}
			],
			"name": "getEarningMetrics",
			"outputs": [
				{
					"name": "",
					"type": "uint256"
				},
				{
					"name": "",
					"type": "uint256"
				},
				{
					"name": "",
					"type": "uint256"
				}
			],
			"payable": false,
			"stateMutability": "view",
			"type": "function"
		},
		{
			"constant": true,
			"inputs": [
				{
					"name": "_purchaseAmount",
					"type": "uint256"
				},
				{
					"name": "_totalPrimordialMintable",
					"type": "uint256"
				},
				{
					"name": "_totalPrimordialMinted",
					"type": "uint256"
				},
				{
					"name": "_startingMultiplier",
					"type": "uint256"
				},
				{
					"name": "_endingMultiplier",
					"type": "uint256"
				}
			],
			"name": "calculatePrimordialMultiplier",
			"outputs": [
				{
					"name": "",
					"type": "uint256"
				}
			],
			"payable": false,
			"stateMutability": "pure",
			"type": "function"
		},
		{
			"constant": true,
			"inputs": [
				{
					"name": "_purchaseAmount",
					"type": "uint256"
				},
				{
					"name": "_totalPrimordialMintable",
					"type": "uint256"
				},
				{
					"name": "_totalPrimordialMinted",
					"type": "uint256"
				},
				{
					"name": "_startingMultiplier",
					"type": "uint256"
				},
				{
					"name": "_endingMultiplier",
					"type": "uint256"
				}
			],
			"name": "calculateNetworkTokenBonusPercentage",
			"outputs": [
				{
					"name": "",
					"type": "uint256"
				}
			],
			"payable": false,
			"stateMutability": "pure",
			"type": "function"
		},
		{
			"constant": true,
			"inputs": [
				{
					"name": "_purchaseAmount",
					"type": "uint256"
				},
				{
					"name": "_totalPrimordialMintable",
					"type": "uint256"
				},
				{
					"name": "_totalPrimordialMinted",
					"type": "uint256"
				},
				{
					"name": "_startingMultiplier",
					"type": "uint256"
				},
				{
					"name": "_endingMultiplier",
					"type": "uint256"
				}
			],
			"name": "calculateNetworkTokenBonusAmount",
			"outputs": [
				{
					"name": "",
					"type": "uint256"
				}
			],
			"payable": false,
			"stateMutability": "pure",
			"type": "function"
		},
		{
			"constant": true,
			"inputs": [
				{
					"name": "_primordialBalance",
					"type": "uint256"
				},
				{
					"name": "_currentWeightedMultiplier",
					"type": "uint256"
				},
				{
					"name": "_maximumMultiplier",
					"type": "uint256"
				}
			],
			"name": "calculateMaximumBurnAmount",
			"outputs": [
				{
					"name": "",
					"type": "uint256"
				}
			],
			"payable": false,
			"stateMutability": "pure",
			"type": "function"
		},
		{
			"constant": true,
			"inputs": [
				{
					"name": "_primordialBalance",
					"type": "uint256"
				},
				{
					"name": "_currentWeightedMultiplier",
					"type": "uint256"
				},
				{
					"name": "_amountToBurn",
					"type": "uint256"
				}
			],
			"name": "calculateMultiplierAfterBurn",
			"outputs": [
				{
					"name": "",
					"type": "uint256"
				}
			],
			"payable": false,
			"stateMutability": "pure",
			"type": "function"
		},
		{
			"constant": true,
			"inputs": [
				{
					"name": "_primordialBalance",
					"type": "uint256"
				},
				{
					"name": "_currentWeightedMultiplier",
					"type": "uint256"
				},
				{
					"name": "_amountToConvert",
					"type": "uint256"
				}
			],
			"name": "calculateMultiplierAfterConversion",
			"outputs": [
				{
					"name": "",
					"type": "uint256"
				}
			],
			"payable": false,
			"stateMutability": "pure",
			"type": "function"
		},
		{
			"constant": true,
			"inputs": [
				{
					"name": "_aoSettingAttributeAddress",
					"type": "address"
				},
				{
					"name": "_aoUintSettingAddress",
					"type": "address"
				},
				{
					"name": "_aoBoolSettingAddress",
					"type": "address"
				},
				{
					"name": "_aoAddressSettingAddress",
					"type": "address"
				},
				{
					"name": "_aoBytesSettingAddress",
					"type": "address"
				},
				{
					"name": "_aoStringSettingAddress",
					"type": "address"
				},
				{
					"name": "_settingId",
					"type": "uint256"
				}
			],
			"name": "getSettingValuesById",
			"outputs": [
				{
					"name": "",
					"type": "uint256"
				},
				{
					"name": "",
					"type": "bool"
				},
				{
					"name": "",
					"type": "address"
				},
				{
					"name": "",
					"type": "bytes32"
				},
				{
					"name": "",
					"type": "string"
				}
			],
			"payable": false,
			"stateMutability": "view",
			"type": "function"
		},
		{
			"constant": true,
			"inputs": [
				{
					"name": "_thoughtId",
					"type": "address"
				}
			],
			"name": "isThought",
			"outputs": [
				{
					"name": "",
					"type": "bool"
				}
			],
			"payable": false,
			"stateMutability": "view",
			"type": "function"
		},
		{
			"constant": true,
			"inputs": [
				{
					"name": "_nameFactoryAddress",
					"type": "address"
				},
				{
					"name": "_from",
					"type": "address"
				},
				{
					"name": "_thoughtId",
					"type": "address"
				}
			],
			"name": "addressIsThoughtAdvocateListenerSpeaker",
			"outputs": [
				{
					"name": "",
					"type": "bool"
				}
			],
			"payable": false,
			"stateMutability": "view",
			"type": "function"
		},
		{
			"constant": true,
			"inputs": [
				{
					"name": "_aoSettingAttributeAddress",
					"type": "address"
				},
				{
					"name": "_settingId",
					"type": "uint256"
				}
			],
			"name": "_settingExist",
			"outputs": [
				{
					"name": "",
					"type": "bool"
				}
			],
			"payable": false,
			"stateMutability": "view",
			"type": "function"
		},
		{
			"constant": true,
			"inputs": [
				{
					"name": "_aoSettingAttributeAddress",
					"type": "address"
				},
				{
					"name": "_settingId",
					"type": "uint256"
				}
			],
			"name": "_getLatestSettingId",
			"outputs": [
				{
					"name": "",
					"type": "uint256"
				}
			],
			"payable": false,
			"stateMutability": "view",
			"type": "function"
		}
	],
	"bytecode": "0x611c27610030600b82828239805160001a6073146000811461002057610022565bfe5b5030600052607381538281f30073000000000000000000000000000000000000000030146080604052600436106101305763ffffffff60e060020a600035041663145a116281146101355780631acc478a1461015e57806332363e0a146101ae5780633d56dca3146101bf5780634553c34314610244578063455eb777146102795780634d5a1173146103c257806354ac2e39146103d35780636c4ef21e146103e7578063749b78201461041a5780637fbc9c55146104445780638cf3313f146104555780638f8bd64c14610469578063b625dd8714610480578063c2349ff4146104ad578063c35f4bbb14610594578063c38de5d5146105ab578063caf29765146105c2578063cf46827e146105ca578063cf7bb192146105e1578063d661dd31146105c2578063e9cfa74514610616578063f6860e731461062d575b600080fd5b61014c600160a060020a036004351660243561064d565b60408051918252519081900360200190f35b61017b600160a060020a0360043581169060243516604435610784565b604080519687526020870195909552858501939093526060850191909152608084015260a0830152519081900360c00190f35b61014c6004356024356044356107da565b60408051602060046024803582810135601f8101859004850286018501909652858552610228958335600160a060020a03169536956044949193909101919081908401838280828437509497505050833560ff1694505050602082013591604001359050610813565b60408051600160a060020a039092168252519081900360200190f35b61025b600160a060020a036004351660243561096b565b60408051938452602084019290925282820152519081900360600190f35b604080516020600460a43581810135601f81018490048402850184019095528484526103ae948235600160a060020a031694602480359560443595606435600160c060020a03191695608435953695929460c494920191819084018382808284375050604080516020601f89358b018035918201839004830284018301909452808352979a99988101979196509182019450925082915084018382808284375050604080516020601f89358b018035918201839004830284018301909452808352979a99988101979196509182019450925082915084018382808284375050604080516020601f89358b018035918201839004830284018301909452808352979a999881019791965091820194509250829150840183828082843750949750508435955050506020909201359150610b179050565b604080519115158252519081900360200190f35b61014c600435602435604435610bab565b6103ae600160a060020a0360043516610be0565b6103ae600160a060020a0360043516602435604435600160c060020a03196064351660843560a43560c43560e435610cf2565b6103ae600160a060020a0360043516602435604435606435600160c060020a031960843516610eaa565b61014c600435602435604435610f49565b61014c600435602435604435606435610f5e565b61014c600435602435604435606435608435610fc7565b610228600160a060020a03600435811690602435906044351660643560ff6084351660a43560c43561107c565b6104e2600160a060020a0360043581169060243581169060443581169060643581169060843581169060a4351660c43561119a565b604051808681526020018515151515815260200184600160a060020a0316600160a060020a03168152602001836000191660001916815260200180602001828103825283818151815260200191508051906020019080838360005b8381101561055557818101518382015260200161053d565b50505050905090810190601f1680156105825780820380516001836020036101000a031916815260200191505b50965050505050505060405180910390f35b61014c600435602435604435606435608435611490565b6103ae600160a060020a0360043516602435611517565b61014c611698565b61025b600160a060020a036004351660243561169f565b6103ae600160a060020a0360043516602435151560443560643560843560a435600160c060020a031960c4351660e435611746565b61014c6004356024356044356064356084356118c7565b6103ae600160a060020a03600435811690602435811690604435166118f2565b600080600084600160a060020a031663eb10b4bd856040518263ffffffff1660e060020a0281526004018082815260200191505061018060405180830381600087803b15801561069c57600080fd5b505af11580156106b0573d6000803e3d6000fd5b505050506040513d6101808110156106c757600080fd5b5060e08101516101209091015190925090505b8180156106e75750600081115b1561077b5780935084600160a060020a031663eb10b4bd856040518263ffffffff1660e060020a0281526004018082815260200191505061018060405180830381600087803b15801561073957600080fd5b505af115801561074d573d6000803e3d6000fd5b505050506040513d61018081101561076457600080fd5b5060e08101516101209091015190925090506106da565b50919392505050565b6000806000806000806000806000806000806107a08f8e61169f565b9550955095506107b08e8e61096b565b9250925092508585858585859b509b509b509b509b509b5050505050505093975093979195509350565b600061080b6107ef858463ffffffff611b2416565b6107ff868663ffffffff611b3616565b9063ffffffff611b5f16565b949350505050565b60008086866040516020018083600160a060020a0316600160a060020a03166c0100000000000000000000000002815260140182805190602001908083835b602083106108715780518252601f199092019160209182019101610852565b6001836020036101000a038019825116818451168082178552505050505050905001925050506040516020818303038152906040526040518082805190602001908083835b602083106108d55780518252601f1990920191602091820191016108b6565b51815160209384036101000a600019018019909216911617905260408051929094018290038220600080845283830180875282905260ff8d1684870152606084018c9052608084018b905294519097506001965060a080840196509194601f19820194509281900390910191865af1158015610955573d6000803e3d6000fd5b5050604051601f19015198975050505050505050565b600080600084600160a060020a0316639587085d856040518263ffffffff1660e060020a028152600401808260001916600019168152602001915050602060405180830381600087803b1580156109c157600080fd5b505af11580156109d5573d6000803e3d6000fd5b505050506040513d60208110156109eb57600080fd5b5051604080517faace426d000000000000000000000000000000000000000000000000000000008152600481018790529051600160a060020a0388169163aace426d9160248083019260209291908290030181600087803b158015610a4f57600080fd5b505af1158015610a63573d6000803e3d6000fd5b505050506040513d6020811015610a7957600080fd5b5051604080517fe957a85b000000000000000000000000000000000000000000000000000000008152600481018890529051600160a060020a0389169163e957a85b9160248083019260209291908290030181600087803b158015610add57600080fd5b505af1158015610af1573d6000803e3d6000fd5b505050506040513d6020811015610b0757600080fd5b5051919450925090509250925092565b6000808751118015610b2a575060008651115b8015610b37575060008551115b8015610b44575060008451115b8015610b505750600083115b8015610b71575060008b1180610b66575060008a115b80610b715750600088115b8015610b8c5750610b868c8c8c8c8c88611b74565b15156001145b8015610b9b5750620f42408211155b9c9b505050505050505050505050565b600061080b826107ff610bc4878763ffffffff611b3616565b610bd4868963ffffffff611b3616565b9063ffffffff611b2416565b6000600160a060020a03821615801590610c7657506000600160a060020a031682600160a060020a03166379bddde86040518163ffffffff1660e060020a028152600401602060405180830381600087803b158015610c3e57600080fd5b505af1158015610c52573d6000803e3d6000fd5b505050506040513d6020811015610c6857600080fd5b5051600160a060020a031614155b8015610cec575081600160a060020a0316636bccedba6040518163ffffffff1660e060020a028152600401602060405180830381600087803b158015610cbb57600080fd5b505af1158015610ccf573d6000803e3d6000fd5b505050506040513d6020811015610ce557600080fd5b505160ff16155b92915050565b600080881180610d025750600087115b8015610d9b57506040805160e360020a63042fb71d028152600481018a905260248101899052600160c060020a0319881660448201529051600160a060020a038b169163217db8e89160648083019260209291908290030181600087803b158015610d6c57600080fd5b505af1158015610d80573d6000803e3d6000fd5b505050506040513d6020811015610d9657600080fd5b505184105b80610da557508483105b80610e8457506000881180610dba5750600087115b8015610e84575081610e82610dd5858863ffffffff611b2416565b6040805160e360020a63042fb71d028152600481018d9052602481018c9052600160c060020a03198b1660448201529051610e7691600160a060020a038f169163217db8e8916064808201926020929091908290030181600087803b158015610e3d57600080fd5b505af1158015610e51573d6000803e3d6000fd5b505050506040513d6020811015610e6757600080fd5b5051889063ffffffff611b2416565b9063ffffffff611bee16565b105b80610e8d575060005b15610e9a57506000610e9e565b5060015b98975050505050505050565b6040805160e360020a63042fb71d0281526004810185905260248101849052600160c060020a03198316604482015290516000918691600160a060020a0389169163217db8e891606480830192602092919082900301818887803b158015610f1157600080fd5b505af1158015610f25573d6000803e3d6000fd5b505050506040513d6020811015610f3b57600080fd5b505110159695505050505050565b600061080b6107ef858463ffffffff611bee16565b600080600080871115610fb957610f8e610f7e868663ffffffff611b3616565b610e76898963ffffffff611b3616565b9150610fa0868563ffffffff611bee16565b9050610fb2828263ffffffff611b5f16565b9250610fbd565b8492505b5050949350505050565b60008060008088118015610fea5750610fe6878763ffffffff611b2416565b8811155b1561106c5761101061100389600263ffffffff611b5f16565b879063ffffffff611bee16565b9150611062620f42406107ff61102c888863ffffffff611b2416565b6110566110468c6107ff620f42408a63ffffffff611b3616565b620f42409063ffffffff611b2416565b9063ffffffff611b3616565b9050809250611071565b600092505b505095945050505050565b60408051600160a060020a038981166c01000000000000000000000000908102602080850191909152603484018b90529189160260548301526068808301889052835180840390910181526088909201928390528151600093849392909182918401908083835b602083106111025780518252601f1990920191602091820191016110e3565b51815160209384036101000a600019018019909216911617905260408051929094018290038220600080845283830180875282905260ff8d1684870152606084018c9052608084018b905294519097506001965060a080840196509194601f19820194509281900390910191865af1158015611182573d6000803e3d6000fd5b5050604051601f1901519a9950505050505050505050565b60008060008060606111ac8c87611517565b15156111b757600080fd5b6111c18c8761064d565b95508a600160a060020a0316639ba535ce876040518263ffffffff1660e060020a02815260040180828152602001915050602060405180830381600087803b15801561120c57600080fd5b505af1158015611220573d6000803e3d6000fd5b505050506040513d602081101561123657600080fd5b50516040805160e160020a634dd29ae7028152600481018990529051600160a060020a038d1691639ba535ce9160248083019260209291908290030181600087803b15801561128457600080fd5b505af1158015611298573d6000803e3d6000fd5b505050506040513d60208110156112ae57600080fd5b50516040805160e160020a634dd29ae7028152600481018a90529051600160a060020a038d1691639ba535ce9160248083019260209291908290030181600087803b1580156112fc57600080fd5b505af1158015611310573d6000803e3d6000fd5b505050506040513d602081101561132657600080fd5b50516040805160e160020a634dd29ae7028152600481018b90529051600160a060020a038d1691639ba535ce9160248083019260209291908290030181600087803b15801561137457600080fd5b505af1158015611388573d6000803e3d6000fd5b505050506040513d602081101561139e57600080fd5b50516040805160e160020a634dd29ae7028152600481018c90529051600160a060020a038d1691639ba535ce91602480830192600092919082900301818387803b1580156113eb57600080fd5b505af11580156113ff573d6000803e3d6000fd5b505050506040513d6000823e601f3d908101601f19168201604052602081101561142857600080fd5b81019080805164010000000081111561144057600080fd5b8201602081018481111561145357600080fd5b815164010000000081118282018710171561146d57600080fd5b50979c50959a509398509196509294505050505097509750975097509792505050565b600080600080881180156114b357506114af878763ffffffff611b2416565b8811155b1561106c576114cc61100389600263ffffffff611b5f16565b91506114fb6114e1868663ffffffff611b2416565b6110566110468a6107ff620f42408863ffffffff611b3616565b905061151081620f424063ffffffff611b5f16565b9250611071565b600080600084600160a060020a03166381f3e897856040518263ffffffff1660e060020a02815260040180828152602001915050600060405180830381600087803b15801561156557600080fd5b505af1158015611579573d6000803e3d6000fd5b505050506040513d6000823e601f3d908101601f191682016040526101408110156115a357600080fd5b8151602083015160408401516060850151608086018051949693959294919392830192916401000000008111156115d957600080fd5b820160208101848111156115ec57600080fd5b815164010000000081118282018710171561160657600080fd5b5050602082015160408301516060840151608085015160a0909501805194979396929591949193929164010000000081111561164157600080fd5b8201602081018481111561165457600080fd5b815164010000000081118282018710171561166e57600080fd5b5050929190505050509850505050505050509150838214801561168f575080155b95945050505050565b620f424090565b60008060008060008087600160a060020a031663e2499b98886040518263ffffffff1660e060020a02815260040180826000191660001916815260200191505061010060405180830381600087803b1580156116fa57600080fd5b505af115801561170e573d6000803e3d6000fd5b505050506040513d61010081101561172557600080fd5b5060408101516060820151608090920151909a919950975095505050505050565b60008715611827578661181e87610e76858d600160a060020a031663217db8e88b8b8b6040518463ffffffff1660e060020a028152600401808481526020018381526020018277ffffffffffffffffffffffffffffffffffffffffffffffff191677ffffffffffffffffffffffffffffffffffffffffffffffff191681526020019350505050602060405180830381600087803b1580156117e657600080fd5b505af11580156117fa573d6000803e3d6000fd5b505050506040513d602081101561181057600080fd5b50519063ffffffff611bee16565b10159050610e9e565b866118bf87610e76858d600160a060020a031663217db8e88b8b8b6040518463ffffffff1660e060020a028152600401808481526020018381526020018277ffffffffffffffffffffffffffffffffffffffffffffffff191677ffffffffffffffffffffffffffffffffffffffffffffffff191681526020019350505050602060405180830381600087803b1580156117e657600080fd5b149050610e9e565b60008060006118d98888888888610fc7565b9150610e9e620f42406107ff848b63ffffffff611b3616565b60008084600160a060020a031663029b7d53856040518263ffffffff1660e060020a0281526004018082600160a060020a0316600160a060020a03168152602001915050602060405180830381600087803b15801561195057600080fd5b505af1158015611964573d6000803e3d6000fd5b505050506040513d602081101561197a57600080fd5b50519050600160a060020a038116151561199357600080fd5b61199c83610be0565b15156119a757600080fd5b82600160a060020a0316632ef193b06040518163ffffffff1660e060020a028152600401602060405180830381600087803b1580156119e557600080fd5b505af11580156119f9573d6000803e3d6000fd5b505050506040513d6020811015611a0f57600080fd5b5051600160a060020a0382811691161480611a9e575082600160a060020a0316636cf99a8f6040518163ffffffff1660e060020a028152600401602060405180830381600087803b158015611a6357600080fd5b505af1158015611a77573d6000803e3d6000fd5b505050506040513d6020811015611a8d57600080fd5b5051600160a060020a038281169116145b8061168f575082600160a060020a031663c996ad256040518163ffffffff1660e060020a028152600401602060405180830381600087803b158015611ae257600080fd5b505af1158015611af6573d6000803e3d6000fd5b505050506040513d6020811015611b0c57600080fd5b5051600160a060020a03908116911614949350505050565b600082821115611b3057fe5b50900390565b6000821515611b4757506000610cec565b50818102818382811515611b5757fe5b0414610cec57fe5b60008183811515611b6c57fe5b049392505050565b6040805160e360020a63042fb71d0281526004810187905260248101869052600160c060020a03198516604482015290516000918391611be1918691600160a060020a038c169163217db8e891606480830192602092919082900301818a87803b1580156117e657600080fd5b1015979650505050505050565b81810182811015610cec57fe00a165627a7a72305820e883df8c9679887711bb34c83a9d61e7aabbf4e15039e0d26d9b5c14c9331b6e0029",
	"source": "pragma solidity ^0.4.24;\n\nimport './SafeMath.sol';\nimport './AOTreasury.sol';\nimport './AOContent.sol';\nimport './AOEarning.sol';\nimport './AOSettingAttribute.sol';\nimport './AOUintSetting.sol';\nimport './AOBoolSetting.sol';\nimport './AOAddressSetting.sol';\nimport './AOBytesSetting.sol';\nimport './AOStringSetting.sol';\nimport './Thought.sol';\nimport './NameFactory.sol';\nimport './AOSetting.sol';\n\n/**\n * @title AOLibrary\n */\nlibrary AOLibrary {\n\tusing SafeMath for uint256;\n\n\tuint256 constant private _MULTIPLIER_DIVISOR = 10 ** 6; // 1000000 = 1\n\tuint256 constant private _PERCENTAGE_DIVISOR = 10 ** 6; // 100% = 1000000\n\n\t/**\n\t * @dev Return the divisor used to correctly calculate percentage.\n\t *\t\tPercentage stored throughout AO contracts covers 4 decimals,\n\t *\t\tso 1% is 10000, 1.25% is 12500, etc\n\t */\n\tfunction PERCENTAGE_DIVISOR() public pure returns (uint256) {\n\t\treturn _PERCENTAGE_DIVISOR;\n\t}\n\n\t/**\n\t * @dev Return the divisor used to correctly calculate multiplier.\n\t *\t\tMultiplier stored throughout AO contracts covers 6 decimals,\n\t *\t\tso 1 is 1000000, 0.023 is 23000, etc\n\t */\n\tfunction MULTIPLIER_DIVISOR() public pure returns (uint256) {\n\t\treturn _MULTIPLIER_DIVISOR;\n\t}\n\n\t/**\n\t * @dev Check whether or not content creator can stake a content based on the provided params\n\t * @param _treasuryAddress AO treasury contract address\n\t * @param _networkIntegerAmount The integer amount of network token to stake\n\t * @param _networkFractionAmount The fraction amount of network token to stake\n\t * @param _denomination The denomination of the network token, i.e ao, kilo, mega, etc.\n\t * @param _primordialAmount The amount of primordial Token to stake\n\t * @param _baseChallenge The base challenge string (PUBLIC KEY) of the content\n\t * @param _encChallenge The encrypted challenge string (PUBLIC KEY) of the content unique to the host\n\t * @param _contentDatKey The dat key of the content\n\t * @param _metadataDatKey The dat key of the content's metadata\n\t * @param _fileSize The size of the file\n\t * @param _profitPercentage The percentage of profit the stake owner's media will charge\n\t * @return true if yes. false otherwise\n\t */\n\tfunction canStake(address _treasuryAddress,\n\t\tuint256 _networkIntegerAmount,\n\t\tuint256 _networkFractionAmount,\n\t\tbytes8 _denomination,\n\t\tuint256 _primordialAmount,\n\t\tstring _baseChallenge,\n\t\tstring _encChallenge,\n\t\tstring _contentDatKey,\n\t\tstring _metadataDatKey,\n\t\tuint256 _fileSize,\n\t\tuint256 _profitPercentage) public view returns (bool) {\n\t\treturn (\n\t\t\tbytes(_baseChallenge).length > 0 &&\n\t\t\tbytes(_encChallenge).length > 0 &&\n\t\t\tbytes(_contentDatKey).length > 0 &&\n\t\t\tbytes(_metadataDatKey).length > 0 &&\n\t\t\t_fileSize > 0 &&\n\t\t\t(_networkIntegerAmount > 0 || _networkFractionAmount > 0 || _primordialAmount > 0) &&\n\t\t\t_stakeAmountValid(_treasuryAddress, _networkIntegerAmount, _networkFractionAmount, _denomination, _primordialAmount, _fileSize) == true &&\n\t\t\t_profitPercentage <= _PERCENTAGE_DIVISOR\n\t\t);\n\t}\n\n\t/**\n\t * @dev Check whether or the requested unstake amount is valid\n\t * @param _treasuryAddress AO treasury contract address\n\t * @param _networkIntegerAmount The integer amount of the network token\n\t * @param _networkFractionAmount The fraction amount of the network token\n\t * @param _denomination The denomination of the the network token\n\t * @param _primordialAmount The amount of primordial token\n\t * @param _stakedNetworkAmount The current staked network token amount\n\t * @param _stakedPrimordialAmount The current staked primordial token amount\n\t * @param _stakedFileSize The file size of the staked content\n\t * @return true if can unstake, false otherwise\n\t */\n\tfunction canUnstakePartial(\n\t\taddress _treasuryAddress,\n\t\tuint256 _networkIntegerAmount,\n\t\tuint256 _networkFractionAmount,\n\t\tbytes8 _denomination,\n\t\tuint256 _primordialAmount,\n\t\tuint256 _stakedNetworkAmount,\n\t\tuint256 _stakedPrimordialAmount,\n\t\tuint256 _stakedFileSize) public view returns (bool) {\n\t\tif (\n\t\t\t(_denomination.length > 0 &&\n\t\t\t\t(_networkIntegerAmount > 0 || _networkFractionAmount > 0) &&\n\t\t\t\t_stakedNetworkAmount < AOTreasury(_treasuryAddress).toBase(_networkIntegerAmount, _networkFractionAmount, _denomination)\n\t\t\t) ||\n\t\t\t_stakedPrimordialAmount < _primordialAmount ||\n\t\t\t(\n\t\t\t\t_denomination.length > 0\n\t\t\t\t\t&& (_networkIntegerAmount > 0 || _networkFractionAmount > 0)\n\t\t\t\t\t&& (_stakedNetworkAmount.sub(AOTreasury(_treasuryAddress).toBase(_networkIntegerAmount, _networkFractionAmount, _denomination)).add(_stakedPrimordialAmount.sub(_primordialAmount)) < _stakedFileSize)\n\t\t\t) ||\n\t\t\t( _denomination.length == 0 && _networkIntegerAmount == 0 && _networkFractionAmount == 0 && _primordialAmount > 0 && _stakedPrimordialAmount.sub(_primordialAmount) < _stakedFileSize)\n\t\t) {\n\t\t\treturn false;\n\t\t} else {\n\t\t\treturn true;\n\t\t}\n\t}\n\n\t/**\n\t * @dev Check whether the network token and/or primordial token is adequate to pay for existing staked content\n\t * @param _treasuryAddress AO treasury contract address\n\t * @param _isAOContentUsageType whether or not the content is of AO Content usage type\n\t * @param _fileSize The size of the file\n\t * @param _stakedAmount The total staked amount\n\t * @param _networkIntegerAmount The integer amount of the network token\n\t * @param _networkFractionAmount The fraction amount of the network token\n\t * @param _denomination The denomination of the the network token\n\t * @param _primordialAmount The amount of primordial token\n\t * @return true when the amount is sufficient, false otherwise\n\t */\n\tfunction canStakeExisting(\n\t\taddress _treasuryAddress,\n\t\tbool _isAOContentUsageType,\n\t\tuint256 _fileSize,\n\t\tuint256 _stakedAmount,\n\t\tuint256 _networkIntegerAmount,\n\t\tuint256 _networkFractionAmount,\n\t\tbytes8 _denomination,\n\t\tuint256 _primordialAmount\n\t) public view returns (bool) {\n\t\tif (_isAOContentUsageType) {\n\t\t\treturn AOTreasury(_treasuryAddress).toBase(_networkIntegerAmount, _networkFractionAmount, _denomination).add(_primordialAmount).add(_stakedAmount) >= _fileSize;\n\t\t} else {\n\t\t\treturn AOTreasury(_treasuryAddress).toBase(_networkIntegerAmount, _networkFractionAmount, _denomination).add(_primordialAmount).add(_stakedAmount) == _fileSize;\n\t\t}\n\t}\n\n\t/**\n\t * @dev Check whether the network token is adequate to pay for existing staked content\n\t * @param _treasuryAddress AO treasury contract address\n\t * @param _price The price of the content\n\t * @param _networkIntegerAmount The integer amount of the network token\n\t * @param _networkFractionAmount The fraction amount of the network token\n\t * @param _denomination The denomination of the the network token\n\t * @return true when the amount is sufficient, false otherwise\n\t */\n\tfunction canBuy(address _treasuryAddress, uint256 _price, uint256 _networkIntegerAmount, uint256 _networkFractionAmount, bytes8 _denomination) public view returns (bool) {\n\t\treturn AOTreasury(_treasuryAddress).toBase(_networkIntegerAmount, _networkFractionAmount, _denomination) >= _price;\n\t}\n\n\t/**\n\t * @dev Calculate the new weighted multiplier when adding `_additionalPrimordialAmount` at `_additionalWeightedMultiplier` to the current `_currentPrimordialBalance` at `_currentWeightedMultiplier`\n\t * @param _currentWeightedMultiplier Account's current weighted multiplier\n\t * @param _currentPrimordialBalance Account's current primordial token balance\n\t * @param _additionalWeightedMultiplier The weighted multiplier to be added\n\t * @param _additionalPrimordialAmount The primordial token amount to be added\n\t * @return the new primordial weighted multiplier\n\t */\n\tfunction calculateWeightedMultiplier(uint256 _currentWeightedMultiplier, uint256 _currentPrimordialBalance, uint256 _additionalWeightedMultiplier, uint256 _additionalPrimordialAmount) public pure returns (uint256) {\n\t\tif (_currentWeightedMultiplier > 0) {\n\t\t\tuint256 _totalWeightedTokens = (_currentWeightedMultiplier.mul(_currentPrimordialBalance)).add(_additionalWeightedMultiplier.mul(_additionalPrimordialAmount));\n\t\t\tuint256 _totalTokens = _currentPrimordialBalance.add(_additionalPrimordialAmount);\n\t\t\treturn _totalWeightedTokens.div(_totalTokens);\n\t\t} else {\n\t\t\treturn _additionalWeightedMultiplier;\n\t\t}\n\t}\n\n\t/**\n\t * @dev Return the address that signed the message when a node wants to become a host\n\t * @param _callingContractAddress the address of the calling contract\n\t * @param _message the message that was signed\n\t * @param _v part of the signature\n\t * @param _r part of the signature\n\t * @param _s part of the signature\n\t * @return the address that signed the message\n\t */\n\tfunction getBecomeHostSignatureAddress(address _callingContractAddress, string _message, uint8 _v, bytes32 _r, bytes32 _s) public pure returns (address) {\n\t\tbytes32 _hash = keccak256(abi.encodePacked(_callingContractAddress, _message));\n\t\treturn ecrecover(_hash, _v, _r, _s);\n\t}\n\n\t/**\n\t * @dev Return the address that signed the TAO content state update\n\t * @param _callingContractAddress the address of the calling contract\n\t * @param _contentId the ID of the content\n\t * @param _thoughtId the ID of the Thought\n\t * @param _taoContentState the TAO Content State value, i.e Submitted, Pending Review, or Accepted to TAO\n\t * @param _v part of the signature\n\t * @param _r part of the signature\n\t * @param _s part of the signature\n\t * @return the address that signed the message\n\t */\n\tfunction getUpdateTAOContentStateSignatureAddress(address _callingContractAddress, bytes32 _contentId, address _thoughtId, bytes32 _taoContentState, uint8 _v, bytes32 _r, bytes32 _s) public pure returns (address) {\n\t\tbytes32 _hash = keccak256(abi.encodePacked(_callingContractAddress, _contentId, _thoughtId, _taoContentState));\n\t\treturn ecrecover(_hash, _v, _r, _s);\n\t}\n\n\t/**\n\t * @dev Return the staking and earning information of a stake ID\n\t * @param _contentAddress The address of AOContent\n\t * @param _earningAddress The address of AOEarning\n\t * @param _stakeId The ID of the staked content\n\t * @return the network base token amount staked for this content\n\t * @return the primordial token amount staked for this content\n\t * @return the primordial weighted multiplier of the staked content\n\t * @return the total earning from staking this content\n\t * @return the total earning from hosting this content\n\t * @return the total foundation earning of this content\n\t */\n\tfunction getContentMetrics(address _contentAddress, address _earningAddress, bytes32 _stakeId) public view returns (uint256, uint256, uint256, uint256, uint256, uint256) {\n\t\t(uint256 networkAmount, uint256 primordialAmount, uint256 primordialWeightedMultiplier) = getStakingMetrics(_contentAddress, _stakeId);\n\t\t(uint256 totalStakeEarning, uint256 totalHostEarning, uint256 totalFoundationEarning) = getEarningMetrics(_earningAddress, _stakeId);\n\t\treturn (\n\t\t\tnetworkAmount,\n\t\t\tprimordialAmount,\n\t\t\tprimordialWeightedMultiplier,\n\t\t\ttotalStakeEarning,\n\t\t\ttotalHostEarning,\n\t\t\ttotalFoundationEarning\n\t\t);\n\t}\n\n\t/**\n\t * @dev Return the staking information of a stake ID\n\t * @param _contentAddress The address of AOContent\n\t * @param _stakeId The ID of the staked content\n\t * @return the network base token amount staked for this content\n\t * @return the primordial token amount staked for this content\n\t * @return the primordial weighted multiplier of the staked content\n\t */\n\tfunction getStakingMetrics(address _contentAddress, bytes32 _stakeId) public view returns (uint256, uint256, uint256) {\n\t\t(,, uint256 networkAmount, uint256 primordialAmount, uint256 primordialWeightedMultiplier,,,) = AOContent(_contentAddress).stakedContentById(_stakeId);\n\t\treturn (\n\t\t\tnetworkAmount,\n\t\t\tprimordialAmount,\n\t\t\tprimordialWeightedMultiplier\n\t\t);\n\t}\n\n\t/**\n\t * @dev Return the earning information of a stake ID\n\t * @param _earningAddress The address of AOEarning\n\t * @param _stakeId The ID of the staked content\n\t * @return the total earning from staking this content\n\t * @return the total earning from hosting this content\n\t * @return the total foundation earning of this content\n\t */\n\tfunction getEarningMetrics(address _earningAddress, bytes32 _stakeId) public view returns (uint256, uint256, uint256) {\n\t\treturn (\n\t\t\tAOEarning(_earningAddress).totalStakedContentStakeEarning(_stakeId),\n\t\t\tAOEarning(_earningAddress).totalStakedContentHostEarning(_stakeId),\n\t\t\tAOEarning(_earningAddress).totalStakedContentFoundationEarning(_stakeId)\n\t\t);\n\t}\n\n\t/**\n\t * @dev Calculate the primordial token multiplier on a given lot\n\t *\t\tTotal Primordial Mintable = T\n\t *\t\tTotal Primordial Minted = M\n\t *\t\tStarting Multiplier = S\n\t *\t\tEnding Multiplier = E\n\t *\t\tTo Purchase = P\n\t *\t\tMultiplier for next Lot of Amount = (1 - ((M + P/2) / T)) x (S-E)\n\t *\n\t * @param _purchaseAmount The amount of primordial token intended to be purchased\n\t * @param _totalPrimordialMintable Total Primordial token intable\n\t * @param _totalPrimordialMinted Total Primordial token minted so far\n\t * @param _startingMultiplier The starting multiplier in (10 ** 6)\n\t * @param _endingMultiplier The ending multiplier in (10 ** 6)\n\t * @return The multiplier in (10 ** 6)\n\t */\n\tfunction calculatePrimordialMultiplier(uint256 _purchaseAmount, uint256 _totalPrimordialMintable, uint256 _totalPrimordialMinted, uint256 _startingMultiplier, uint256 _endingMultiplier) public pure returns (uint256) {\n\t\tif (_purchaseAmount > 0 && _purchaseAmount <= _totalPrimordialMintable.sub(_totalPrimordialMinted)) {\n\t\t\t/**\n\t\t\t * Let temp = M + (P/2)\n\t\t\t * Multiplier = (1 - (temp / T)) x (S-E)\n\t\t\t */\n\t\t\tuint256 temp = _totalPrimordialMinted.add(_purchaseAmount.div(2));\n\n\t\t\t/**\n\t\t\t * Multiply multiplier with _MULTIPLIER_DIVISOR/_MULTIPLIER_DIVISOR to account for 6 decimals\n\t\t\t * so, Multiplier = (_MULTIPLIER_DIVISOR/_MULTIPLIER_DIVISOR) * (1 - (temp / T)) * (S-E)\n\t\t\t * Multiplier = ((_MULTIPLIER_DIVISOR * (1 - (temp / T))) * (S-E)) / _MULTIPLIER_DIVISOR\n\t\t\t * Multiplier = ((_MULTIPLIER_DIVISOR - ((_MULTIPLIER_DIVISOR * temp) / T)) * (S-E)) / _MULTIPLIER_DIVISOR\n\t\t\t * Take out the division by _MULTIPLIER_DIVISOR for now and include in later calculation\n\t\t\t * Multiplier = (_MULTIPLIER_DIVISOR - ((_MULTIPLIER_DIVISOR * temp) / T)) * (S-E)\n\t\t\t */\n\t\t\tuint256 multiplier = (_MULTIPLIER_DIVISOR.sub(_MULTIPLIER_DIVISOR.mul(temp).div(_totalPrimordialMintable))).mul(_startingMultiplier.sub(_endingMultiplier));\n\t\t\t/**\n\t\t\t * Since _startingMultiplier and _endingMultiplier are in 6 decimals\n\t\t\t * Need to divide multiplier by _MULTIPLIER_DIVISOR\n\t\t\t */\n\t\t\treturn multiplier.div(_MULTIPLIER_DIVISOR);\n\t\t} else {\n\t\t\treturn 0;\n\t\t}\n\t}\n\n\t/**\n\t * @dev Calculate the bonus percentage of network token on a given lot\n\t *\t\tTotal Primordial Mintable = T\n\t *\t\tTotal Primordial Minted = M\n\t *\t\tStarting Network Token Bonus Multiplier = Bs\n\t *\t\tEnding Network Token Bonus Multiplier = Be\n\t *\t\tTo Purchase = P\n\t *\t\tAO Bonus % = B% = (1 - ((M + P/2) / T)) x (Bs-Be)\n\t *\n\t * @param _purchaseAmount The amount of primordial token intended to be purchased\n\t * @param _totalPrimordialMintable Total Primordial token intable\n\t * @param _totalPrimordialMinted Total Primordial token minted so far\n\t * @param _startingMultiplier The starting Network token bonus multiplier\n\t * @param _endingMultiplier The ending Network token bonus multiplier\n\t * @return The bonus percentage\n\t */\n\tfunction calculateNetworkTokenBonusPercentage(uint256 _purchaseAmount, uint256 _totalPrimordialMintable, uint256 _totalPrimordialMinted, uint256 _startingMultiplier, uint256 _endingMultiplier) public pure returns (uint256) {\n\t\tif (_purchaseAmount > 0 && _purchaseAmount <= _totalPrimordialMintable.sub(_totalPrimordialMinted)) {\n\t\t\t/**\n\t\t\t * Let temp = M + (P/2)\n\t\t\t * B% = (1 - (temp / T)) x (Bs-Be)\n\t\t\t */\n\t\t\tuint256 temp = _totalPrimordialMinted.add(_purchaseAmount.div(2));\n\n\t\t\t/**\n\t\t\t * Multiply B% with _PERCENTAGE_DIVISOR/_PERCENTAGE_DIVISOR to account for 6 decimals\n\t\t\t * so, B% = (_PERCENTAGE_DIVISOR/_PERCENTAGE_DIVISOR) * (1 - (temp / T)) * (Bs-Be)\n\t\t\t * B% = ((_PERCENTAGE_DIVISOR * (1 - (temp / T))) * (Bs-Be)) / _PERCENTAGE_DIVISOR\n\t\t\t * B% = ((_PERCENTAGE_DIVISOR - ((_PERCENTAGE_DIVISOR * temp) / T)) * (Bs-Be)) / _PERCENTAGE_DIVISOR\n\t\t\t * Take out the division by _PERCENTAGE_DIVISOR for now and include in later calculation\n\t\t\t * B% = (_PERCENTAGE_DIVISOR - ((_PERCENTAGE_DIVISOR * temp) / T)) * (Bs-Be)\n\t\t\t * But since Bs and Be are in 6 decimals, need to divide by _PERCENTAGE_DIVISOR\n\t\t\t * B% = (_PERCENTAGE_DIVISOR - ((_PERCENTAGE_DIVISOR * temp) / T)) * (Bs-Be) / _PERCENTAGE_DIVISOR\n\t\t\t */\n\t\t\tuint256 bonusPercentage = (_PERCENTAGE_DIVISOR.sub(_PERCENTAGE_DIVISOR.mul(temp).div(_totalPrimordialMintable))).mul(_startingMultiplier.sub(_endingMultiplier)).div(_PERCENTAGE_DIVISOR);\n\t\t\treturn bonusPercentage;\n\t\t} else {\n\t\t\treturn 0;\n\t\t}\n\t}\n\n\t/**\n\t * @dev Calculate the bonus amount of network token on a given lot\n\t *\t\tAO Bonus Amount = B% x P\n\t *\n\t * @param _purchaseAmount The amount of primordial token intended to be purchased\n\t * @param _totalPrimordialMintable Total Primordial token intable\n\t * @param _totalPrimordialMinted Total Primordial token minted so far\n\t * @param _startingMultiplier The starting Network token bonus multiplier\n\t * @param _endingMultiplier The ending Network token bonus multiplier\n\t * @return The bonus percentage\n\t */\n\tfunction calculateNetworkTokenBonusAmount(uint256 _purchaseAmount, uint256 _totalPrimordialMintable, uint256 _totalPrimordialMinted, uint256 _startingMultiplier, uint256 _endingMultiplier) public pure returns (uint256) {\n\t\tuint256 bonusPercentage = calculateNetworkTokenBonusPercentage(_purchaseAmount, _totalPrimordialMintable, _totalPrimordialMinted, _startingMultiplier, _endingMultiplier);\n\t\t/**\n\t\t * Since bonusPercentage is in _PERCENTAGE_DIVISOR format, need to divide it with _PERCENTAGE DIVISOR\n\t\t * when calculating the network token bonus amount\n\t\t */\n\t\tuint256 networkTokenBonus = bonusPercentage.mul(_purchaseAmount).div(_PERCENTAGE_DIVISOR);\n\t\treturn networkTokenBonus;\n\t}\n\n\t/**\n\t * @dev Calculate the maximum amount of Primordial an account can burn\n\t *\t\t_primordialBalance = P\n\t *\t\t_currentWeightedMultiplier = M\n\t *\t\t_maximumMultiplier = S\n\t *\t\t_amountToBurn = B\n\t *\t\tB = ((S x P) - (P x M)) / S\n\t *\n\t * @param _primordialBalance Account's primordial token balance\n\t * @param _currentWeightedMultiplier Account's current weighted multiplier\n\t * @param _maximumMultiplier The maximum multiplier of this account\n\t * @return The maximum burn amount\n\t */\n\tfunction calculateMaximumBurnAmount(uint256 _primordialBalance, uint256 _currentWeightedMultiplier, uint256 _maximumMultiplier) public pure returns (uint256) {\n\t\treturn (_maximumMultiplier.mul(_primordialBalance).sub(_primordialBalance.mul(_currentWeightedMultiplier))).div(_maximumMultiplier);\n\t}\n\n\t/**\n\t * @dev Calculate the new multiplier after burning primordial token\n\t *\t\t_primordialBalance = P\n\t *\t\t_currentWeightedMultiplier = M\n\t *\t\t_amountToBurn = B\n\t *\t\t_newMultiplier = E\n\t *\t\tE = (P x M) / (P - B)\n\t *\n\t * @param _primordialBalance Account's primordial token balance\n\t * @param _currentWeightedMultiplier Account's current weighted multiplier\n\t * @param _amountToBurn The amount of primordial token to burn\n\t * @return The new multiplier\n\t */\n\tfunction calculateMultiplierAfterBurn(uint256 _primordialBalance, uint256 _currentWeightedMultiplier, uint256 _amountToBurn) public pure returns (uint256) {\n\t\treturn _primordialBalance.mul(_currentWeightedMultiplier).div(_primordialBalance.sub(_amountToBurn));\n\t}\n\n\t/**\n\t * @dev Calculate the new multiplier after converting network token to primordial token\n\t *\t\t_primordialBalance = P\n\t *\t\t_currentWeightedMultiplier = M\n\t *\t\t_amountToConvert = C\n\t *\t\t_newMultiplier = E\n\t *\t\tE = (P x M) / (P + C)\n\t *\n\t * @param _primordialBalance Account's primordial token balance\n\t * @param _currentWeightedMultiplier Account's current weighted multiplier\n\t * @param _amountToConvert The amount of network token to convert\n\t * @return The new multiplier\n\t */\n\tfunction calculateMultiplierAfterConversion(uint256 _primordialBalance, uint256 _currentWeightedMultiplier, uint256 _amountToConvert) public pure returns (uint256) {\n\t\treturn _primordialBalance.mul(_currentWeightedMultiplier).div(_primordialBalance.add(_amountToConvert));\n\t}\n\n\t/**\n\t * @dev Get setting values by setting ID.\n\t *\t\tWill throw error if the setting is not exist or rejected.\n\t * @param _aoSettingAttributeAddress The address of AOSettingAttribute\n\t * @param _aoUintSettingAddress The address of AOUintSetting\n\t * @param _aoBoolSettingAddress The address of AOBoolSetting\n\t * @param _aoAddressSettingAddress The address of AOAddressSetting\n\t * @param _aoBytesSettingAddress The address of AOBytesSetting\n\t * @param _aoStringSettingAddress The address of AOStringSetting\n\t * @param _settingId The ID of the setting\n\t * @return the uint256 value of this setting ID\n\t * @return the bool value of this setting ID\n\t * @return the address value of this setting ID\n\t * @return the bytes32 value of this setting ID\n\t * @return the string value of this setting ID\n\t */\n\tfunction getSettingValuesById(address _aoSettingAttributeAddress, address _aoUintSettingAddress, address _aoBoolSettingAddress, address _aoAddressSettingAddress, address _aoBytesSettingAddress, address _aoStringSettingAddress, uint256 _settingId) public view returns (uint256, bool, address, bytes32, string) {\n\t\trequire (_settingExist(_aoSettingAttributeAddress, _settingId));\n\n\t\t_settingId = _getLatestSettingId(_aoSettingAttributeAddress, _settingId);\n\t\treturn (\n\t\t\tAOUintSetting(_aoUintSettingAddress).settingValue(_settingId),\n\t\t\tAOBoolSetting(_aoBoolSettingAddress).settingValue(_settingId),\n\t\t\tAOAddressSetting(_aoAddressSettingAddress).settingValue(_settingId),\n\t\t\tAOBytesSetting(_aoBytesSettingAddress).settingValue(_settingId),\n\t\t\tAOStringSetting(_aoStringSettingAddress).settingValue(_settingId)\n\t\t);\n\t}\n\n\t/**\n\t * @dev Check whether or not the given Thought ID is a Thought\n\t * @param _thoughtId The ID of the Thought\n\t * @return true if yes. false otherwise\n\t */\n\tfunction isThought(address _thoughtId) public view returns (bool) {\n\t\treturn (_thoughtId != address(0) && Thought(_thoughtId).originNameId() != address(0) && Thought(_thoughtId).thoughtTypeId() == 0);\n\t}\n\n\t/**\n\t * @dev Check whether or not _from address is Advocate/Listener/Speaker of the Thought\n\t * @param _nameFactoryAddress The address of NameFactory\n\t * @param _from The address that wants to update the TAO Content State\n\t * @param _thoughtId The ID of the Thought\n\t * @return true if yes. false otherwise\n\t */\n\tfunction addressIsThoughtAdvocateListenerSpeaker(address _nameFactoryAddress, address _from, address _thoughtId) public view returns (bool) {\n\t\taddress _nameId = NameFactory(_nameFactoryAddress).ethAddressToNameId(_from);\n\t\trequire (_nameId != address(0));\n\t\trequire (isThought(_thoughtId));\n\t\treturn (_nameId == Thought(_thoughtId).advocateId() || _nameId == Thought(_thoughtId).listenerId() || _nameId == Thought(_thoughtId).speakerId());\n\t}\n\n\t/***** Internal Methods *****/\n\t/**\n\t * @dev Check if a setting exist and not rejected\n\t * @param _aoSettingAttributeAddress The address of AOSettingAttribute\n\t * @param _settingId The ID of the setting\n\t * @return true if exist. false otherwise\n\t */\n\tfunction _settingExist(address _aoSettingAttributeAddress, uint256 _settingId) public view returns (bool) {\n\t\t(uint256 settingId,,,,,,,, bool _rejected,) = AOSettingAttribute(_aoSettingAttributeAddress).getSettingData(_settingId);\n\t\treturn (settingId == _settingId && _rejected == false);\n\t}\n\n\t/**\n\t * @dev Get the latest ID of a deprecated setting, if exist\n\t * @param _aoSettingAttributeAddress The address of AOSettingAttribute\n\t * @param _settingId The ID of the setting\n\t * @return The latest setting ID\n\t */\n\tfunction _getLatestSettingId(address _aoSettingAttributeAddress, uint256 _settingId) public view returns (uint256) {\n\t\t(,,,,,,, bool _migrated,, uint256 _newSettingId,,) = AOSettingAttribute(_aoSettingAttributeAddress).getSettingDeprecation(_settingId);\n\t\twhile (_migrated && _newSettingId > 0) {\n\t\t\t_settingId = _newSettingId;\n\t\t\t(,,,,,,, _migrated,, _newSettingId,,) = AOSettingAttribute(_aoSettingAttributeAddress).getSettingDeprecation(_settingId);\n\t\t}\n\t\treturn _settingId;\n\t}\n\n\t/**\n\t * @dev Check whether the network token and/or primordial token is adequate to pay for the filesize\n\t * @param _treasuryAddress AO treasury contract address\n\t * @param _networkIntegerAmount The integer amount of network token to stake\n\t * @param _networkFractionAmount The fraction amount of network token to stake\n\t * @param _denomination The denomination of the network token, i.e ao, kilo, mega, etc.\n\t * @param _primordialAmount The amount of primordial Token to stake\n\t * @param _fileSize The size of the file\n\t * @return true when the amount is sufficient, false otherwise\n\t */\n\tfunction _stakeAmountValid(address _treasuryAddress, uint256 _networkIntegerAmount, uint256 _networkFractionAmount, bytes8 _denomination, uint256 _primordialAmount, uint256 _fileSize) internal view returns (bool) {\n\t\treturn AOTreasury(_treasuryAddress).toBase(_networkIntegerAmount, _networkFractionAmount, _denomination).add(_primordialAmount) >= _fileSize;\n\t}\n}\n",
	"sourcePath": "/home/jmulyono/ao-contracts/contracts/AOLibrary.sol",
	"compiler": {
		"name": "solc",
		"version": "0.4.24+commit.e67f0147.Emscripten.clang"
	},
	"schemaVersion": "2.0.1",
	"updatedAt": "2018-12-11T08:43:54.383Z"
}