{
	"contractName": "AOLibrary",
	"abi": [
		{
			"constant": true,
			"inputs": [
				{
					"name": "_treasuryAddress",
					"type": "address"
				},
				{
					"name": "_networkIntegerAmount",
					"type": "uint256"
				},
				{
					"name": "_networkFractionAmount",
					"type": "uint256"
				},
				{
					"name": "_denomination",
					"type": "bytes8"
				},
				{
					"name": "_primordialAmount",
					"type": "uint256"
				},
				{
					"name": "_fileSize",
					"type": "uint256"
				}
			],
			"name": "canStake",
			"outputs": [
				{
					"name": "",
					"type": "bool"
				}
			],
			"payable": false,
			"stateMutability": "view",
			"type": "function"
		},
		{
			"constant": true,
			"inputs": [
				{
					"name": "_treasuryAddress",
					"type": "address"
				},
				{
					"name": "_networkIntegerAmount",
					"type": "uint256"
				},
				{
					"name": "_networkFractionAmount",
					"type": "uint256"
				},
				{
					"name": "_denomination",
					"type": "bytes8"
				},
				{
					"name": "_primordialAmount",
					"type": "uint256"
				},
				{
					"name": "_stakedNetworkAmount",
					"type": "uint256"
				},
				{
					"name": "_stakedPrimordialAmount",
					"type": "uint256"
				},
				{
					"name": "_stakedFileSize",
					"type": "uint256"
				}
			],
			"name": "canUnstakePartial",
			"outputs": [
				{
					"name": "",
					"type": "bool"
				}
			],
			"payable": false,
			"stateMutability": "view",
			"type": "function"
		},
		{
			"constant": true,
			"inputs": [
				{
					"name": "_treasuryAddress",
					"type": "address"
				},
				{
					"name": "_fileSize",
					"type": "uint256"
				},
				{
					"name": "_stakedAmount",
					"type": "uint256"
				},
				{
					"name": "_networkIntegerAmount",
					"type": "uint256"
				},
				{
					"name": "_networkFractionAmount",
					"type": "uint256"
				},
				{
					"name": "_denomination",
					"type": "bytes8"
				},
				{
					"name": "_primordialAmount",
					"type": "uint256"
				}
			],
			"name": "canStakeExisting",
			"outputs": [
				{
					"name": "",
					"type": "bool"
				}
			],
			"payable": false,
			"stateMutability": "view",
			"type": "function"
		},
		{
			"constant": true,
			"inputs": [
				{
					"name": "_treasuryAddress",
					"type": "address"
				},
				{
					"name": "_price",
					"type": "uint256"
				},
				{
					"name": "_networkIntegerAmount",
					"type": "uint256"
				},
				{
					"name": "_networkFractionAmount",
					"type": "uint256"
				},
				{
					"name": "_denomination",
					"type": "bytes8"
				}
			],
			"name": "canBuy",
			"outputs": [
				{
					"name": "",
					"type": "bool"
				}
			],
			"payable": false,
			"stateMutability": "view",
			"type": "function"
		},
		{
			"constant": true,
			"inputs": [
				{
					"name": "_currentWeightedIndex",
					"type": "uint256"
				},
				{
					"name": "_currentPrimordialBalance",
					"type": "uint256"
				},
				{
					"name": "_additionalWeightedIndex",
					"type": "uint256"
				},
				{
					"name": "_additionalPrimordialAmount",
					"type": "uint256"
				}
			],
			"name": "calculateWeightedIndex",
			"outputs": [
				{
					"name": "",
					"type": "uint256"
				}
			],
			"payable": false,
			"stateMutability": "pure",
			"type": "function"
		},
		{
			"constant": true,
			"inputs": [
				{
					"name": "_callingContractAddress",
					"type": "address"
				},
				{
					"name": "_message",
					"type": "string"
				}
			],
			"name": "doHash",
			"outputs": [
				{
					"name": "",
					"type": "bytes32"
				}
			],
			"payable": false,
			"stateMutability": "pure",
			"type": "function"
		},
		{
			"constant": true,
			"inputs": [
				{
					"name": "_callingContractAddress",
					"type": "address"
				},
				{
					"name": "_message",
					"type": "string"
				},
				{
					"name": "_v",
					"type": "uint8"
				},
				{
					"name": "_r",
					"type": "bytes32"
				},
				{
					"name": "_s",
					"type": "bytes32"
				}
			],
			"name": "checkSignature",
			"outputs": [
				{
					"name": "",
					"type": "address"
				}
			],
			"payable": false,
			"stateMutability": "pure",
			"type": "function"
		},
		{
			"constant": true,
			"inputs": [
				{
					"name": "_contentAddress",
					"type": "address"
				},
				{
					"name": "_earningAddress",
					"type": "address"
				},
				{
					"name": "_stakeId",
					"type": "bytes32"
				}
			],
			"name": "getContentMetrics",
			"outputs": [
				{
					"name": "",
					"type": "uint256"
				},
				{
					"name": "",
					"type": "uint256"
				},
				{
					"name": "",
					"type": "uint256"
				},
				{
					"name": "",
					"type": "uint256"
				},
				{
					"name": "",
					"type": "uint256"
				},
				{
					"name": "",
					"type": "uint256"
				}
			],
			"payable": false,
			"stateMutability": "view",
			"type": "function"
		},
		{
			"constant": true,
			"inputs": [
				{
					"name": "_contentAddress",
					"type": "address"
				},
				{
					"name": "_stakeId",
					"type": "bytes32"
				}
			],
			"name": "getStakingMetrics",
			"outputs": [
				{
					"name": "",
					"type": "uint256"
				},
				{
					"name": "",
					"type": "uint256"
				},
				{
					"name": "",
					"type": "uint256"
				}
			],
			"payable": false,
			"stateMutability": "view",
			"type": "function"
		},
		{
			"constant": true,
			"inputs": [
				{
					"name": "_earningAddress",
					"type": "address"
				},
				{
					"name": "_stakeId",
					"type": "bytes32"
				}
			],
			"name": "getEarningMetrics",
			"outputs": [
				{
					"name": "",
					"type": "uint256"
				},
				{
					"name": "",
					"type": "uint256"
				},
				{
					"name": "",
					"type": "uint256"
				}
			],
			"payable": false,
			"stateMutability": "view",
			"type": "function"
		}
	],
	"bytecode": "0x610cf3610030600b82828239805160001a6073146000811461002057610022565bfe5b5030600052607381538281f30073000000000000000000000000000000000000000030146080604052600436106100a15763ffffffff60e060020a60003504166305c6c87081146100a65780631acc478a146100e75780632618ae21146101375780634553c343146101675780635d8d94611461019c5780636c4ef21e146101c2578063749b7820146101f557806379f3e0bf1461021f57806380dc7377146102a4578063cf46827e146102fe575b600080fd5b6100d3600160a060020a0360043516602435604435600160c060020a03196064351660843560a435610315565b604080519115158252519081900360200190f35b610104600160a060020a03600435811690602435166044356103f8565b604080519687526020870195909552858501939093526060850191909152608084015260a0830152519081900360c00190f35b6100d3600160a060020a0360043516602435604435606435608435600160c060020a031960a4351660c43561044e565b61017e600160a060020a0360043516602435610539565b60408051938452602084019290925282820152519081900360600190f35b6101b06004356024356044356064356106e5565b60408051918252519081900360200190f35b6100d3600160a060020a0360043516602435604435600160c060020a03196064351660843560a43560c43560e43561074e565b6100d3600160a060020a0360043516602435604435606435600160c060020a0319608435166108fa565b60408051602060046024803582810135601f8101859004850286018501909652858552610288958335600160a060020a03169536956044949193909101919081908401838280828437509497505050833560ff16945050506020820135916040013590506109b7565b60408051600160a060020a039092168252519081900360200190f35b60408051602060046024803582810135601f81018590048502860185019096528585526101b0958335600160a060020a0316953695604494919390910191908190840183828082843750949750610a369650505050505050565b61017e600160a060020a0360043516602435610b2d565b6000808611806103255750600085115b156103e3576040805160e360020a63042fb71d0281526004810188905260248101879052600160c060020a031986166044820152905183916103ce918691600160a060020a038c169163217db8e8916064808201926020929091908290030181600087803b15801561039657600080fd5b505af11580156103aa573d6000803e3d6000fd5b505050506040513d60208110156103c057600080fd5b50519063ffffffff610c6a16565b106103db575060016103ee565b5060006103ee565b8183106103db575060015b9695505050505050565b6000806000806000806000806000806000806104148f8e610b2d565b9550955095506104248e8e610539565b9250925092508585858585859b509b509b509b509b509b5050505050505093975093979195509350565b60008085118061045e5750600084115b156105105786610507876104fb858c600160a060020a031663217db8e88b8b8b6040518463ffffffff1660e060020a028152600401808481526020018381526020018277ffffffffffffffffffffffffffffffffffffffffffffffff191677ffffffffffffffffffffffffffffffffffffffffffffffff191681526020019350505050602060405180830381600087803b15801561039657600080fd5b9063ffffffff610c6a16565b1015905061052e565b600082111561052a5786610507878463ffffffff610c6a16565b5060005b979650505050505050565b600080600084600160a060020a0316639587085d856040518263ffffffff1660e060020a028152600401808260001916600019168152602001915050602060405180830381600087803b15801561058f57600080fd5b505af11580156105a3573d6000803e3d6000fd5b505050506040513d60208110156105b957600080fd5b5051604080517faace426d000000000000000000000000000000000000000000000000000000008152600481018790529051600160a060020a0388169163aace426d9160248083019260209291908290030181600087803b15801561061d57600080fd5b505af1158015610631573d6000803e3d6000fd5b505050506040513d602081101561064757600080fd5b5051604080517fe957a85b000000000000000000000000000000000000000000000000000000008152600481018890529051600160a060020a0389169163e957a85b9160248083019260209291908290030181600087803b1580156106ab57600080fd5b505af11580156106bf573d6000803e3d6000fd5b505050506040513d60208110156106d557600080fd5b5051919450925090509250925092565b60008060008087111561074057610715610705868663ffffffff610c7716565b6104fb898963ffffffff610c7716565b9150610727868563ffffffff610c6a16565b9050610739828263ffffffff610ca016565b9250610744565b8492505b5050949350505050565b60008088118061075e5750600087115b80156107f757506040805160e360020a63042fb71d028152600481018a905260248101899052600160c060020a0319881660448201529051600160a060020a038b169163217db8e89160648083019260209291908290030181600087803b1580156107c857600080fd5b505af11580156107dc573d6000803e3d6000fd5b505050506040513d60208110156107f257600080fd5b505184105b8061080157508483105b806108d4575060008811806108165750600087115b80156108d45750816108d2610831858863ffffffff610cb516565b6040805160e360020a63042fb71d028152600481018d9052602481018c9052600160c060020a03198b16604482015290516104fb91600160a060020a038f169163217db8e8916064808201926020929091908290030181600087803b15801561089957600080fd5b505af11580156108ad573d6000803e3d6000fd5b505050506040513d60208110156108c357600080fd5b5051889063ffffffff610cb516565b105b806108dd575060005b156108ea575060006108ee565b5060015b98975050505050505050565b60008084118061090a5750600083115b156109aa576040805160e360020a63042fb71d0281526004810186905260248101859052600160c060020a03198416604482015290518691600160a060020a0389169163217db8e8916064808201926020929091908290030181600087803b15801561097557600080fd5b505af1158015610989573d6000803e3d6000fd5b505050506040513d602081101561099f57600080fd5b5051101590506109ae565b5060005b95945050505050565b6000806109c48787610a36565b604080516000808252602080830180855285905260ff8a16838501526060830189905260808301889052925193945060019360a08084019493601f19830193908390039091019190865af1158015610a20573d6000803e3d6000fd5b5050604051601f19015198975050505050505050565b600082826040516020018083600160a060020a0316600160a060020a03166c0100000000000000000000000002815260140182805190602001908083835b60208310610a935780518252601f199092019160209182019101610a74565b6001836020036101000a038019825116818451168082178552505050505050905001925050506040516020818303038152906040526040518082805190602001908083835b60208310610af75780518252601f199092019160209182019101610ad8565b6001836020036101000a038019825116818451168082178552505050505050905001915050604051809103902090505b92915050565b60008060008060008087600160a060020a031663e2499b98886040518263ffffffff1660e060020a028152600401808260001916600019168152602001915050600060405180830381600087803b158015610b8757600080fd5b505af1158015610b9b573d6000803e3d6000fd5b505050506040513d6000823e601f3d908101601f19168201604052610120811015610bc557600080fd5b8151602083015160408401516060850151608086015160a087015160c088015160e08901516101008a018051989a9799969895979496939592949193820192640100000000811115610c1657600080fd5b82016020810184811115610c2957600080fd5b8151640100000000811182820187101715610c4357600080fd5b50509291905050505050505094509450945050508282829550955095505050509250925092565b81810182811015610b2757fe5b6000821515610c8857506000610b27565b50818102818382811515610c9857fe5b0414610b2757fe5b60008183811515610cad57fe5b049392505050565b600082821115610cc157fe5b509003905600a165627a7a723058205ff4e889084e88fef67dcc1845e233ca098a9eb968ffc4d9fff42d1c43b71b1e0029",
	"source": "pragma solidity ^0.4.24;\n\nimport './SafeMath.sol';\nimport './AOTreasury.sol';\nimport './AOContent.sol';\nimport './AOEarning.sol';\n\n/**\n * @title AOLibrary\n */\nlibrary AOLibrary {\n\tusing SafeMath for uint256;\n\n\t/**\n\t * @dev Check whether the network token and/or primordial token is adequate to pay for the filesize\n\t * @param _treasuryAddress AO treasury contract address\n\t * @param _networkIntegerAmount The integer amount of the network token\n\t * @param _networkFractionAmount The fraction amount of the network token\n\t * @param _denomination The denomination of the the network token\n\t * @param _primordialAmount The amount of primordial token\n\t * @param _fileSize The file size of the content\n\t * @return true when the amount is sufficient, false otherwise\n\t */\n\tfunction canStake(address _treasuryAddress, uint256 _networkIntegerAmount, uint256 _networkFractionAmount, bytes8 _denomination, uint256 _primordialAmount, uint256 _fileSize) public view returns (bool) {\n\t\tif (_denomination.length > 0 && (_networkIntegerAmount > 0 || _networkFractionAmount > 0)) {\n\t\t\tif (AOTreasury(_treasuryAddress).toBase(_networkIntegerAmount, _networkFractionAmount, _denomination).add(_primordialAmount) >= _fileSize) {\n\t\t\t\treturn true;\n\t\t\t} else {\n\t\t\t\treturn false;\n\t\t\t}\n\t\t} else if (_primordialAmount >= _fileSize) {\n\t\t\treturn true;\n\t\t} else {\n\t\t\treturn false;\n\t\t}\n\t}\n\n\t/**\n\t * @dev Check whether or the requested unstake amount is valid\n\t * @param _treasuryAddress AO treasury contract address\n\t * @param _networkIntegerAmount The integer amount of the network token\n\t * @param _networkFractionAmount The fraction amount of the network token\n\t * @param _denomination The denomination of the the network token\n\t * @param _primordialAmount The amount of primordial token\n\t * @param _stakedNetworkAmount The current staked network token amount\n\t * @param _stakedPrimordialAmount The current staked primordial token amount\n\t * @param _stakedFileSize The file size of the staked content\n\t * @return true if can unstake, false otherwise\n\t */\n\tfunction canUnstakePartial(\n\t\taddress _treasuryAddress,\n\t\tuint256 _networkIntegerAmount,\n\t\tuint256 _networkFractionAmount,\n\t\tbytes8 _denomination,\n\t\tuint256 _primordialAmount,\n\t\tuint256 _stakedNetworkAmount,\n\t\tuint256 _stakedPrimordialAmount,\n\t\tuint256 _stakedFileSize) public view returns (bool) {\n\t\tif (\n\t\t\t(_denomination.length > 0 &&\n\t\t\t\t(_networkIntegerAmount > 0 || _networkFractionAmount > 0) &&\n\t\t\t\t_stakedNetworkAmount < AOTreasury(_treasuryAddress).toBase(_networkIntegerAmount, _networkFractionAmount, _denomination)\n\t\t\t) ||\n\t\t\t_stakedPrimordialAmount < _primordialAmount ||\n\t\t\t(\n\t\t\t\t_denomination.length > 0\n\t\t\t\t\t&& (_networkIntegerAmount > 0 || _networkFractionAmount > 0)\n\t\t\t\t\t&& (_stakedNetworkAmount.sub(AOTreasury(_treasuryAddress).toBase(_networkIntegerAmount, _networkFractionAmount, _denomination)).add(_stakedPrimordialAmount.sub(_primordialAmount)) < _stakedFileSize)\n\t\t\t) ||\n\t\t\t( _denomination.length == 0 && _networkIntegerAmount == 0 && _networkFractionAmount == 0 && _primordialAmount > 0 && _stakedPrimordialAmount.sub(_primordialAmount) < _stakedFileSize)\n\t\t) {\n\t\t\treturn false;\n\t\t} else {\n\t\t\treturn true;\n\t\t}\n\t}\n\n\t/**\n\t * @dev Check whether the network token and/or primordial token is adequate to pay for existing staked content\n\t * @param _treasuryAddress AO treasury contract address\n\t * @param _fileSize The size of the file\n\t * @param _stakedAmount The total staked amount\n\t * @param _networkIntegerAmount The integer amount of the network token\n\t * @param _networkFractionAmount The fraction amount of the network token\n\t * @param _denomination The denomination of the the network token\n\t * @param _primordialAmount The amount of primordial token\n\t * @return true when the amount is sufficient, false otherwise\n\t */\n\tfunction canStakeExisting(address _treasuryAddress, uint256 _fileSize, uint256 _stakedAmount, uint256 _networkIntegerAmount, uint256 _networkFractionAmount, bytes8 _denomination, uint256 _primordialAmount) public view returns (bool) {\n\t\tif (_denomination.length > 0 && (_networkIntegerAmount > 0 || _networkFractionAmount > 0)) {\n\t\t\treturn AOTreasury(_treasuryAddress).toBase(_networkIntegerAmount, _networkFractionAmount, _denomination).add(_primordialAmount).add(_stakedAmount) >= _fileSize;\n\t\t} else if (_primordialAmount > 0) {\n\t\t\treturn _stakedAmount.add(_primordialAmount) >= _fileSize;\n\t\t} else {\n\t\t\treturn false;\n\t\t}\n\t}\n\n\t/**\n\t * @dev Check whether the network token is adequate to pay for existing staked content\n\t * @param _treasuryAddress AO treasury contract address\n\t * @param _price The price of the content\n\t * @param _networkIntegerAmount The integer amount of the network token\n\t * @param _networkFractionAmount The fraction amount of the network token\n\t * @param _denomination The denomination of the the network token\n\t * @return true when the amount is sufficient, false otherwise\n\t */\n\tfunction canBuy(address _treasuryAddress, uint256 _price, uint256 _networkIntegerAmount, uint256 _networkFractionAmount, bytes8 _denomination) public view returns (bool) {\n\t\tif (_denomination.length > 0 && (_networkIntegerAmount > 0 || _networkFractionAmount > 0)) {\n\t\t\treturn AOTreasury(_treasuryAddress).toBase(_networkIntegerAmount, _networkFractionAmount, _denomination) >= _price;\n\t\t} else {\n\t\t\treturn false;\n\t\t}\n\t}\n\n\t/**\n\t * @dev Calculate the new weighted index when adding `_additionalPrimordialAmount` at `_additionalWeightedIdex` to the current `_currentPrimordialBalance` at `_currentWeightedIndex`\n\t * @param _currentWeightedIndex Account's current weighted index\n\t * @param _currentPrimordialBalance Account's current primordial token balance\n\t * @param _additionalWeightedIndex The weighted index to be added\n\t * @param _additionalPrimordialAmount The primordial token amount to be added\n\t * @return the new primordial weighted index\n\t */\n\tfunction calculateWeightedIndex(uint256 _currentWeightedIndex, uint256 _currentPrimordialBalance, uint256 _additionalWeightedIndex, uint256 _additionalPrimordialAmount) public pure returns (uint256) {\n\t\tif (_currentWeightedIndex > 0) {\n\t\t\tuint256 _totalWeightedTokens = (_currentWeightedIndex.mul(_currentPrimordialBalance)).add(_additionalWeightedIndex.mul(_additionalPrimordialAmount));\n\t\t\tuint256 _totalTokens = _currentPrimordialBalance.add(_additionalPrimordialAmount);\n\t\t\treturn _totalWeightedTokens.div(_totalTokens);\n\t\t} else {\n\t\t\treturn _additionalWeightedIndex;\n\t\t}\n\t}\n\n\t/**\n\t * @dev Generate hash of the message\n\t * @param _callingContractAddress the address of the calling contract\n\t * @param _message the message to be hashed\n\t * @return hash\n\t */\n\tfunction doHash(address _callingContractAddress, string _message) public pure returns (bytes32) {\n\t\treturn keccak256(abi.encodePacked(_callingContractAddress, _message));\n\t}\n\n\t/**\n\t * @dev Return the address that signed the message\n\t * @param _callingContractAddress the address of the calling contract\n\t * @param _message the message that was signed\n\t * @param _v part of the signature\n\t * @param _r part of the signature\n\t * @param _s part of the signature\n\t * @return the address that signed the message\n\t */\n\tfunction checkSignature(address _callingContractAddress, string _message, uint8 _v, bytes32 _r, bytes32 _s) public pure returns (address) {\n\t\tbytes32 _hash = doHash(_callingContractAddress, _message);\n\t\treturn ecrecover(_hash, _v, _r, _s);\n\t}\n\n\t/**\n\t * @dev Return the staking and earning information of a stake ID\n\t * @param _contentAddress The address of AOContent\n\t * @param _earningAddress The address of AOEarning\n\t * @param _stakeId The ID of the staked content\n\t * @return the network base token amount staked for this content\n\t * @return the primordial token amount staked for this content\n\t * @return the primordial weighted index of the staked content\n\t * @return the total earning from staking this content\n\t * @return the total earning from hosting this content\n\t * @return the total foundation earning of this content\n\t */\n\tfunction getContentMetrics(address _contentAddress, address _earningAddress, bytes32 _stakeId) public view returns (uint256, uint256, uint256, uint256, uint256, uint256) {\n\t\t(uint256 networkAmount, uint256 primordialAmount, uint256 primordialWeightedIndex) = getStakingMetrics(_contentAddress, _stakeId);\n\t\t(uint256 totalStakeEarning, uint256 totalHostEarning, uint256 totalFoundationEarning) = getEarningMetrics(_earningAddress, _stakeId);\n\t\treturn (\n\t\t\tnetworkAmount,\n\t\t\tprimordialAmount,\n\t\t\tprimordialWeightedIndex,\n\t\t\ttotalStakeEarning,\n\t\t\ttotalHostEarning,\n\t\t\ttotalFoundationEarning\n\t\t);\n\t}\n\n\t/**\n\t * @dev Return the staking information of a stake ID\n\t * @param _contentAddress The address of AOContent\n\t * @param _stakeId The ID of the staked content\n\t * @return the network base token amount staked for this content\n\t * @return the primordial token amount staked for this content\n\t * @return the primordial weighted index of the staked content\n\t */\n\tfunction getStakingMetrics(address _contentAddress, bytes32 _stakeId) public view returns (uint256, uint256, uint256) {\n\t\t(,, uint256 networkAmount, uint256 primordialAmount, uint256 primordialWeightedIndex,,,,) = AOContent(_contentAddress).stakedContentById(_stakeId);\n\t\treturn (\n\t\t\tnetworkAmount,\n\t\t\tprimordialAmount,\n\t\t\tprimordialWeightedIndex\n\t\t);\n\t}\n\n\t/**\n\t * @dev Return the earning information of a stake ID\n\t * @param _earningAddress The address of AOEarning\n\t * @param _stakeId The ID of the staked content\n\t * @return the total earning from staking this content\n\t * @return the total earning from hosting this content\n\t * @return the total foundation earning of this content\n\t */\n\tfunction getEarningMetrics(address _earningAddress, bytes32 _stakeId) public view returns (uint256, uint256, uint256) {\n\t\treturn (\n\t\t\tAOEarning(_earningAddress).totalStakedContentStakeEarning(_stakeId),\n\t\t\tAOEarning(_earningAddress).totalStakedContentHostEarning(_stakeId),\n\t\t\tAOEarning(_earningAddress).totalStakedContentFoundationEarning(_stakeId)\n\t\t);\n\t}\n}\n",
	"sourcePath": "/home/jmulyono/ao-contracts/contracts/AOLibrary.sol",
	"compiler": {
		"name": "solc",
		"version": "0.4.24+commit.e67f0147.Emscripten.clang"
	},
	"schemaVersion": "2.0.1",
	"updatedAt": "2018-09-20T05:10:19.476Z"
}