{
	"contractName": "AOLibrary",
	"abi": [
		{
			"constant": true,
			"inputs": [],
			"name": "PERCENTAGE_DIVISOR",
			"outputs": [
				{
					"name": "",
					"type": "uint256"
				}
			],
			"payable": false,
			"stateMutability": "pure",
			"type": "function"
		},
		{
			"constant": true,
			"inputs": [],
			"name": "MULTIPLIER_DIVISOR",
			"outputs": [
				{
					"name": "",
					"type": "uint256"
				}
			],
			"payable": false,
			"stateMutability": "pure",
			"type": "function"
		},
		{
			"constant": true,
			"inputs": [
				{
					"name": "_treasuryAddress",
					"type": "address"
				},
				{
					"name": "_networkIntegerAmount",
					"type": "uint256"
				},
				{
					"name": "_networkFractionAmount",
					"type": "uint256"
				},
				{
					"name": "_denomination",
					"type": "bytes8"
				},
				{
					"name": "_primordialAmount",
					"type": "uint256"
				},
				{
					"name": "_baseChallenge",
					"type": "string"
				},
				{
					"name": "_encChallenge",
					"type": "string"
				},
				{
					"name": "_contentDatKey",
					"type": "string"
				},
				{
					"name": "_metadataDatKey",
					"type": "string"
				},
				{
					"name": "_fileSize",
					"type": "uint256"
				},
				{
					"name": "_profitPercentage",
					"type": "uint256"
				}
			],
			"name": "canStake",
			"outputs": [
				{
					"name": "",
					"type": "bool"
				}
			],
			"payable": false,
			"stateMutability": "view",
			"type": "function"
		},
		{
			"constant": true,
			"inputs": [
				{
					"name": "_treasuryAddress",
					"type": "address"
				},
				{
					"name": "_networkIntegerAmount",
					"type": "uint256"
				},
				{
					"name": "_networkFractionAmount",
					"type": "uint256"
				},
				{
					"name": "_denomination",
					"type": "bytes8"
				},
				{
					"name": "_primordialAmount",
					"type": "uint256"
				},
				{
					"name": "_stakedNetworkAmount",
					"type": "uint256"
				},
				{
					"name": "_stakedPrimordialAmount",
					"type": "uint256"
				},
				{
					"name": "_stakedFileSize",
					"type": "uint256"
				}
			],
			"name": "canUnstakePartial",
			"outputs": [
				{
					"name": "",
					"type": "bool"
				}
			],
			"payable": false,
			"stateMutability": "view",
			"type": "function"
		},
		{
			"constant": true,
			"inputs": [
				{
					"name": "_treasuryAddress",
					"type": "address"
				},
				{
					"name": "_isAOContentUsageType",
					"type": "bool"
				},
				{
					"name": "_fileSize",
					"type": "uint256"
				},
				{
					"name": "_stakedAmount",
					"type": "uint256"
				},
				{
					"name": "_networkIntegerAmount",
					"type": "uint256"
				},
				{
					"name": "_networkFractionAmount",
					"type": "uint256"
				},
				{
					"name": "_denomination",
					"type": "bytes8"
				},
				{
					"name": "_primordialAmount",
					"type": "uint256"
				}
			],
			"name": "canStakeExisting",
			"outputs": [
				{
					"name": "",
					"type": "bool"
				}
			],
			"payable": false,
			"stateMutability": "view",
			"type": "function"
		},
		{
			"constant": true,
			"inputs": [
				{
					"name": "_treasuryAddress",
					"type": "address"
				},
				{
					"name": "_price",
					"type": "uint256"
				},
				{
					"name": "_networkIntegerAmount",
					"type": "uint256"
				},
				{
					"name": "_networkFractionAmount",
					"type": "uint256"
				},
				{
					"name": "_denomination",
					"type": "bytes8"
				}
			],
			"name": "canBuy",
			"outputs": [
				{
					"name": "",
					"type": "bool"
				}
			],
			"payable": false,
			"stateMutability": "view",
			"type": "function"
		},
		{
			"constant": true,
			"inputs": [
				{
					"name": "_currentWeightedMultiplier",
					"type": "uint256"
				},
				{
					"name": "_currentPrimordialBalance",
					"type": "uint256"
				},
				{
					"name": "_additionalWeightedMultiplier",
					"type": "uint256"
				},
				{
					"name": "_additionalPrimordialAmount",
					"type": "uint256"
				}
			],
			"name": "calculateWeightedMultiplier",
			"outputs": [
				{
					"name": "",
					"type": "uint256"
				}
			],
			"payable": false,
			"stateMutability": "pure",
			"type": "function"
		},
		{
			"constant": true,
			"inputs": [
				{
					"name": "_callingContractAddress",
					"type": "address"
				},
				{
					"name": "_message",
					"type": "string"
				},
				{
					"name": "_v",
					"type": "uint8"
				},
				{
					"name": "_r",
					"type": "bytes32"
				},
				{
					"name": "_s",
					"type": "bytes32"
				}
			],
			"name": "getBecomeHostSignatureAddress",
			"outputs": [
				{
					"name": "",
					"type": "address"
				}
			],
			"payable": false,
			"stateMutability": "pure",
			"type": "function"
		},
		{
			"constant": true,
			"inputs": [
				{
					"name": "_callingContractAddress",
					"type": "address"
				},
				{
					"name": "_contentId",
					"type": "bytes32"
				},
				{
					"name": "_taoId",
					"type": "address"
				},
				{
					"name": "_taoContentState",
					"type": "bytes32"
				},
				{
					"name": "_v",
					"type": "uint8"
				},
				{
					"name": "_r",
					"type": "bytes32"
				},
				{
					"name": "_s",
					"type": "bytes32"
				}
			],
			"name": "getUpdateTAOContentStateSignatureAddress",
			"outputs": [
				{
					"name": "",
					"type": "address"
				}
			],
			"payable": false,
			"stateMutability": "pure",
			"type": "function"
		},
		{
			"constant": true,
			"inputs": [
				{
					"name": "_contentAddress",
					"type": "address"
				},
				{
					"name": "_earningAddress",
					"type": "address"
				},
				{
					"name": "_stakeId",
					"type": "bytes32"
				}
			],
			"name": "getContentMetrics",
			"outputs": [
				{
					"name": "",
					"type": "uint256"
				},
				{
					"name": "",
					"type": "uint256"
				},
				{
					"name": "",
					"type": "uint256"
				},
				{
					"name": "",
					"type": "uint256"
				},
				{
					"name": "",
					"type": "uint256"
				},
				{
					"name": "",
					"type": "uint256"
				}
			],
			"payable": false,
			"stateMutability": "view",
			"type": "function"
		},
		{
			"constant": true,
			"inputs": [
				{
					"name": "_contentAddress",
					"type": "address"
				},
				{
					"name": "_stakeId",
					"type": "bytes32"
				}
			],
			"name": "getStakingMetrics",
			"outputs": [
				{
					"name": "",
					"type": "uint256"
				},
				{
					"name": "",
					"type": "uint256"
				},
				{
					"name": "",
					"type": "uint256"
				}
			],
			"payable": false,
			"stateMutability": "view",
			"type": "function"
		},
		{
			"constant": true,
			"inputs": [
				{
					"name": "_earningAddress",
					"type": "address"
				},
				{
					"name": "_stakeId",
					"type": "bytes32"
				}
			],
			"name": "getEarningMetrics",
			"outputs": [
				{
					"name": "",
					"type": "uint256"
				},
				{
					"name": "",
					"type": "uint256"
				},
				{
					"name": "",
					"type": "uint256"
				}
			],
			"payable": false,
			"stateMutability": "view",
			"type": "function"
		},
		{
			"constant": true,
			"inputs": [
				{
					"name": "_purchaseAmount",
					"type": "uint256"
				},
				{
					"name": "_totalPrimordialMintable",
					"type": "uint256"
				},
				{
					"name": "_totalPrimordialMinted",
					"type": "uint256"
				},
				{
					"name": "_startingMultiplier",
					"type": "uint256"
				},
				{
					"name": "_endingMultiplier",
					"type": "uint256"
				}
			],
			"name": "calculatePrimordialMultiplier",
			"outputs": [
				{
					"name": "",
					"type": "uint256"
				}
			],
			"payable": false,
			"stateMutability": "pure",
			"type": "function"
		},
		{
			"constant": true,
			"inputs": [
				{
					"name": "_purchaseAmount",
					"type": "uint256"
				},
				{
					"name": "_totalPrimordialMintable",
					"type": "uint256"
				},
				{
					"name": "_totalPrimordialMinted",
					"type": "uint256"
				},
				{
					"name": "_startingMultiplier",
					"type": "uint256"
				},
				{
					"name": "_endingMultiplier",
					"type": "uint256"
				}
			],
			"name": "calculateNetworkTokenBonusPercentage",
			"outputs": [
				{
					"name": "",
					"type": "uint256"
				}
			],
			"payable": false,
			"stateMutability": "pure",
			"type": "function"
		},
		{
			"constant": true,
			"inputs": [
				{
					"name": "_purchaseAmount",
					"type": "uint256"
				},
				{
					"name": "_totalPrimordialMintable",
					"type": "uint256"
				},
				{
					"name": "_totalPrimordialMinted",
					"type": "uint256"
				},
				{
					"name": "_startingMultiplier",
					"type": "uint256"
				},
				{
					"name": "_endingMultiplier",
					"type": "uint256"
				}
			],
			"name": "calculateNetworkTokenBonusAmount",
			"outputs": [
				{
					"name": "",
					"type": "uint256"
				}
			],
			"payable": false,
			"stateMutability": "pure",
			"type": "function"
		},
		{
			"constant": true,
			"inputs": [
				{
					"name": "_primordialBalance",
					"type": "uint256"
				},
				{
					"name": "_currentWeightedMultiplier",
					"type": "uint256"
				},
				{
					"name": "_maximumMultiplier",
					"type": "uint256"
				}
			],
			"name": "calculateMaximumBurnAmount",
			"outputs": [
				{
					"name": "",
					"type": "uint256"
				}
			],
			"payable": false,
			"stateMutability": "pure",
			"type": "function"
		},
		{
			"constant": true,
			"inputs": [
				{
					"name": "_primordialBalance",
					"type": "uint256"
				},
				{
					"name": "_currentWeightedMultiplier",
					"type": "uint256"
				},
				{
					"name": "_amountToBurn",
					"type": "uint256"
				}
			],
			"name": "calculateMultiplierAfterBurn",
			"outputs": [
				{
					"name": "",
					"type": "uint256"
				}
			],
			"payable": false,
			"stateMutability": "pure",
			"type": "function"
		},
		{
			"constant": true,
			"inputs": [
				{
					"name": "_primordialBalance",
					"type": "uint256"
				},
				{
					"name": "_currentWeightedMultiplier",
					"type": "uint256"
				},
				{
					"name": "_amountToConvert",
					"type": "uint256"
				}
			],
			"name": "calculateMultiplierAfterConversion",
			"outputs": [
				{
					"name": "",
					"type": "uint256"
				}
			],
			"payable": false,
			"stateMutability": "pure",
			"type": "function"
		},
		{
			"constant": true,
			"inputs": [
				{
					"name": "_aoSettingAttributeAddress",
					"type": "address"
				},
				{
					"name": "_aoUintSettingAddress",
					"type": "address"
				},
				{
					"name": "_aoBoolSettingAddress",
					"type": "address"
				},
				{
					"name": "_aoAddressSettingAddress",
					"type": "address"
				},
				{
					"name": "_aoBytesSettingAddress",
					"type": "address"
				},
				{
					"name": "_aoStringSettingAddress",
					"type": "address"
				},
				{
					"name": "_settingId",
					"type": "uint256"
				}
			],
			"name": "getSettingValuesById",
			"outputs": [
				{
					"name": "",
					"type": "uint256"
				},
				{
					"name": "",
					"type": "bool"
				},
				{
					"name": "",
					"type": "address"
				},
				{
					"name": "",
					"type": "bytes32"
				},
				{
					"name": "",
					"type": "string"
				}
			],
			"payable": false,
			"stateMutability": "view",
			"type": "function"
		},
		{
			"constant": true,
			"inputs": [
				{
					"name": "_taoId",
					"type": "address"
				}
			],
			"name": "isTAO",
			"outputs": [
				{
					"name": "",
					"type": "bool"
				}
			],
			"payable": false,
			"stateMutability": "view",
			"type": "function"
		},
		{
			"constant": true,
			"inputs": [
				{
					"name": "_nameId",
					"type": "address"
				}
			],
			"name": "isName",
			"outputs": [
				{
					"name": "",
					"type": "bool"
				}
			],
			"payable": false,
			"stateMutability": "view",
			"type": "function"
		},
		{
			"constant": true,
			"inputs": [
				{
					"name": "_nameFactoryAddress",
					"type": "address"
				},
				{
					"name": "_from",
					"type": "address"
				},
				{
					"name": "_taoId",
					"type": "address"
				}
			],
			"name": "addressIsTAOAdvocateListenerSpeaker",
			"outputs": [
				{
					"name": "",
					"type": "bool"
				}
			],
			"payable": false,
			"stateMutability": "view",
			"type": "function"
		},
		{
			"constant": true,
			"inputs": [
				{
					"name": "_nameId",
					"type": "address"
				},
				{
					"name": "_logosAddress",
					"type": "address"
				},
				{
					"name": "_ethosAddress",
					"type": "address"
				},
				{
					"name": "_pathosAddress",
					"type": "address"
				}
			],
			"name": "getTAOCurrencyBalances",
			"outputs": [
				{
					"name": "",
					"type": "uint256[]"
				}
			],
			"payable": false,
			"stateMutability": "view",
			"type": "function"
		},
		{
			"constant": true,
			"inputs": [
				{
					"name": "_nameId",
					"type": "address"
				},
				{
					"name": "_antiLogosAddress",
					"type": "address"
				},
				{
					"name": "_antiEthosAddress",
					"type": "address"
				},
				{
					"name": "_antiPathosAddress",
					"type": "address"
				}
			],
			"name": "getAntiTAOCurrencyBalances",
			"outputs": [
				{
					"name": "",
					"type": "uint256[]"
				}
			],
			"payable": false,
			"stateMutability": "view",
			"type": "function"
		},
		{
			"constant": true,
			"inputs": [
				{
					"name": "_nameId",
					"type": "address"
				},
				{
					"name": "_logosAddress",
					"type": "address"
				},
				{
					"name": "_ethosAddress",
					"type": "address"
				},
				{
					"name": "_pathosAddress",
					"type": "address"
				},
				{
					"name": "_antiLogosAddress",
					"type": "address"
				},
				{
					"name": "_antiEthosAddress",
					"type": "address"
				},
				{
					"name": "_antiPathosAddress",
					"type": "address"
				}
			],
			"name": "getAllTAOCurrencyBalances",
			"outputs": [
				{
					"name": "",
					"type": "uint256"
				},
				{
					"name": "",
					"type": "uint256"
				},
				{
					"name": "",
					"type": "uint256"
				},
				{
					"name": "",
					"type": "uint256"
				},
				{
					"name": "",
					"type": "uint256"
				},
				{
					"name": "",
					"type": "uint256"
				}
			],
			"payable": false,
			"stateMutability": "view",
			"type": "function"
		},
		{
			"constant": true,
			"inputs": [
				{
					"name": "_sender",
					"type": "address"
				},
				{
					"name": "_nameId",
					"type": "address"
				}
			],
			"name": "isAdvocateOfName",
			"outputs": [
				{
					"name": "",
					"type": "bool"
				}
			],
			"payable": false,
			"stateMutability": "view",
			"type": "function"
		},
		{
			"constant": true,
			"inputs": [
				{
					"name": "_sender",
					"type": "address"
				},
				{
					"name": "_taoId",
					"type": "address"
				}
			],
			"name": "isAdvocateOfTAO",
			"outputs": [
				{
					"name": "",
					"type": "bool"
				}
			],
			"payable": false,
			"stateMutability": "view",
			"type": "function"
		},
		{
			"constant": true,
			"inputs": [
				{
					"name": "_callingContractAddress",
					"type": "address"
				},
				{
					"name": "_data",
					"type": "string"
				},
				{
					"name": "_nonce",
					"type": "uint256"
				},
				{
					"name": "_v",
					"type": "uint8"
				},
				{
					"name": "_r",
					"type": "bytes32"
				},
				{
					"name": "_s",
					"type": "bytes32"
				}
			],
			"name": "getValidateSignatureAddress",
			"outputs": [
				{
					"name": "",
					"type": "address"
				}
			],
			"payable": false,
			"stateMutability": "pure",
			"type": "function"
		},
		{
			"constant": true,
			"inputs": [
				{
					"name": "_nameFactoryAddress",
					"type": "address"
				},
				{
					"name": "_from",
					"type": "address"
				},
				{
					"name": "_taoId",
					"type": "address"
				}
			],
			"name": "determineAddressPositionInTAO",
			"outputs": [
				{
					"name": "",
					"type": "uint256"
				}
			],
			"payable": false,
			"stateMutability": "view",
			"type": "function"
		},
		{
			"constant": true,
			"inputs": [
				{
					"name": "_aoSettingAttributeAddress",
					"type": "address"
				},
				{
					"name": "_settingId",
					"type": "uint256"
				}
			],
			"name": "_settingExist",
			"outputs": [
				{
					"name": "",
					"type": "bool"
				}
			],
			"payable": false,
			"stateMutability": "view",
			"type": "function"
		},
		{
			"constant": true,
			"inputs": [
				{
					"name": "_aoSettingAttributeAddress",
					"type": "address"
				},
				{
					"name": "_settingId",
					"type": "uint256"
				}
			],
			"name": "_getLatestSettingId",
			"outputs": [
				{
					"name": "",
					"type": "uint256"
				}
			],
			"payable": false,
			"stateMutability": "view",
			"type": "function"
		}
	],
	"bytecode": "0x61269d610030600b82828239805160001a6073146000811461002057610022565bfe5b5030600052607381538281f30073000000000000000000000000000000000000000030146080604052600436106101885763ffffffff60e060020a6000350416630855c5c9811461018d578063145a1162146101c1578063181aa0a5146101ea5780631acc478a14610204578063271b5311146102545780632d706a34146102de5780632fca5414146102f257806332363e0a146103065780633d56dca3146103175780634553c34314610380578063455eb777146103b55780634d5a1173146104ea5780636c4ef21e146104fb578063749b78201461052e5780637fbc9c55146105585780638cf3313f146105695780638f8bd64c1461057d57806391ce53e514610594578063a42f3f9d14610594578063b5d2a3db1461060a578063b625dd871461062a578063c2349ff414610657578063c35f4bbb1461073e578063c38de5d514610755578063caf297651461076c578063cf46827e14610774578063cf7bb1921461078b578063cf86a3e8146107c0578063d661dd311461076c578063e9cfa745146107f8578063f7c03ae81461080f575b600080fd5b6101ad600160a060020a0360043581169060243581169060443516610829565b604080519115158252519081900360200190f35b6101d8600160a060020a0360043516602435610a5f565b60408051918252519081900360200190f35b6101ad600160a060020a0360043581169060243516610b96565b610221600160a060020a0360043581169060243516604435610c1f565b604080519687526020870195909552858501939093526060850191909152608084015260a0830152519081900360c00190f35b60408051602060046024803582810135601f81018590048502860185019096528585526102c2958335600160a060020a03169536956044949193909101919081908401838280828437509497505084359550505050602082013560ff16916040810135915060600135610c75565b60408051600160a060020a039092168252519081900360200190f35b6101ad600160a060020a0360043516610dcc565b6101ad600160a060020a0360043516610edf565b6101d8600435602435604435610ff0565b60408051602060046024803582810135601f81018590048502860185019096528585526102c2958335600160a060020a03169536956044949193909101919081908401838280828437509497505050833560ff1694505050602082013591604001359050611029565b610397600160a060020a0360043516602435611181565b60408051938452602084019290925282820152519081900360600190f35b604080516020600460a43581810135601f81018490048402850184019095528484526101ad948235600160a060020a031694602480359560443595606435600160c060020a03191695608435953695929460c494920191819084018382808284375050604080516020601f89358b018035918201839004830284018301909452808352979a99988101979196509182019450925082915084018382808284375050604080516020601f89358b018035918201839004830284018301909452808352979a99988101979196509182019450925082915084018382808284375050604080516020601f89358b018035918201839004830284018301909452808352979a99988101979196509182019450925082915084018382808284375094975050843595505050602090920135915061132d9050565b6101d86004356024356044356113c1565b6101ad600160a060020a0360043516602435604435600160c060020a03196064351660843560a43560c43560e4356113f6565b6101ad600160a060020a0360043516602435604435606435600160c060020a0319608435166115ae565b6101d860043560243560443561164d565b6101d8600435602435604435606435611662565b6101d86004356024356044356064356084356116cb565b6105ba600160a060020a0360043581169060243581169060443581169060643516611780565b60408051602080825283518183015283519192839290830191858101910280838360005b838110156105f65781810151838201526020016105de565b505050509050019250505060405180910390f35b6101d8600160a060020a036004358116906024358116906044351661199f565b6102c2600160a060020a03600435811690602435906044351660643560ff6084351660a43560c435611b75565b61068c600160a060020a0360043581169060243581169060443581169060643581169060843581169060a4351660c435611c93565b604051808681526020018515151515815260200184600160a060020a0316600160a060020a03168152602001836000191660001916815260200180602001828103825283818151815260200191508051906020019080838360005b838110156106ff5781810151838201526020016106e7565b50505050905090810190601f16801561072c5780820380516001836020036101000a031916815260200191505b50965050505050505060405180910390f35b6101d8600435602435604435606435608435611f89565b6101ad600160a060020a0360043516602435612010565b6101d8612191565b610397600160a060020a0360043516602435612198565b6101ad600160a060020a0360043516602435151560443560643560843560a435600160c060020a031960c4351660e43561223f565b610221600160a060020a0360043581169060243581169060443581169060643581169060843581169060a43581169060c435166123c0565b6101d860043560243560443560643560843561249c565b6101ad600160a060020a03600435811690602435166124c7565b60008084600160a060020a031663029b7d53856040518263ffffffff1660e060020a0281526004018082600160a060020a0316600160a060020a03168152602001915050602060405180830381600087803b15801561088757600080fd5b505af115801561089b573d6000803e3d6000fd5b505050506040513d60208110156108b157600080fd5b50519050600160a060020a03811615156108ca57600080fd5b6108d383610edf565b15156108de57600080fd5b82600160a060020a0316632ef193b06040518163ffffffff1660e060020a028152600401602060405180830381600087803b15801561091c57600080fd5b505af1158015610930573d6000803e3d6000fd5b505050506040513d602081101561094657600080fd5b5051600160a060020a03828116911614806109d5575082600160a060020a0316636cf99a8f6040518163ffffffff1660e060020a028152600401602060405180830381600087803b15801561099a57600080fd5b505af11580156109ae573d6000803e3d6000fd5b505050506040513d60208110156109c457600080fd5b5051600160a060020a038281169116145b80610a54575082600160a060020a031663c996ad256040518163ffffffff1660e060020a028152600401602060405180830381600087803b158015610a1957600080fd5b505af1158015610a2d573d6000803e3d6000fd5b505050506040513d6020811015610a4357600080fd5b5051600160a060020a038281169116145b91505b509392505050565b600080600084600160a060020a031663eb10b4bd856040518263ffffffff1660e060020a0281526004018082815260200191505061018060405180830381600087803b158015610aae57600080fd5b505af1158015610ac2573d6000803e3d6000fd5b505050506040513d610180811015610ad957600080fd5b5060e08101516101209091015190925090505b818015610af95750600081115b15610b8d5780935084600160a060020a031663eb10b4bd856040518263ffffffff1660e060020a0281526004018082815260200191505061018060405180830381600087803b158015610b4b57600080fd5b505af1158015610b5f573d6000803e3d6000fd5b505050506040513d610180811015610b7657600080fd5b5060e0810151610120909101519092509050610aec565b50919392505050565b600082600160a060020a031682600160a060020a03166313866efa6040518163ffffffff1660e060020a028152600401602060405180830381600087803b158015610be057600080fd5b505af1158015610bf4573d6000803e3d6000fd5b505050506040513d6020811015610c0a57600080fd5b5051600160a060020a03161490505b92915050565b600080600080600080600080600080600080610c3b8f8e612198565b955095509550610c4b8e8e611181565b9250925092508585858585859b509b509b509b509b509b5050505050505093975093979195509350565b6000808787876040516020018084600160a060020a0316600160a060020a03166c0100000000000000000000000002815260140183805190602001908083835b60208310610cd45780518252601f199092019160209182019101610cb5565b51815160209384036101000a60001901801990921691161790529201938452506040805180850381529382019081905283519395509350839290850191508083835b60208310610d355780518252601f199092019160209182019101610d16565b51815160209384036101000a600019018019909216911617905260408051929094018290038220600080845283830180875282905260ff8d1684870152606084018c9052608084018b905294519097506001965060a080840196509194601f19820194509281900390910191865af1158015610db5573d6000803e3d6000fd5b5050604051601f1901519998505050505050505050565b6000600160a060020a03821615801590610e6257506000600160a060020a031682600160a060020a03166313866efa6040518163ffffffff1660e060020a028152600401602060405180830381600087803b158015610e2a57600080fd5b505af1158015610e3e573d6000803e3d6000fd5b505050506040513d6020811015610e5457600080fd5b5051600160a060020a031614155b8015610c19575081600160a060020a0316632c4dd5256040518163ffffffff1660e060020a028152600401602060405180830381600087803b158015610ea757600080fd5b505af1158015610ebb573d6000803e3d6000fd5b505050506040513d6020811015610ed157600080fd5b505160ff1660011492915050565b6000600160a060020a03821615801590610f7557506000600160a060020a031682600160a060020a03166313866efa6040518163ffffffff1660e060020a028152600401602060405180830381600087803b158015610f3d57600080fd5b505af1158015610f51573d6000803e3d6000fd5b505050506040513d6020811015610f6757600080fd5b5051600160a060020a031614155b8015610c19575081600160a060020a0316632c4dd5256040518163ffffffff1660e060020a028152600401602060405180830381600087803b158015610fba57600080fd5b505af1158015610fce573d6000803e3d6000fd5b505050506040513d6020811015610fe457600080fd5b505160ff161592915050565b6000611021611005858463ffffffff61259a16565b611015868663ffffffff6125ac16565b9063ffffffff6125d516565b949350505050565b60008086866040516020018083600160a060020a0316600160a060020a03166c0100000000000000000000000002815260140182805190602001908083835b602083106110875780518252601f199092019160209182019101611068565b6001836020036101000a038019825116818451168082178552505050505050905001925050506040516020818303038152906040526040518082805190602001908083835b602083106110eb5780518252601f1990920191602091820191016110cc565b51815160209384036101000a600019018019909216911617905260408051929094018290038220600080845283830180875282905260ff8d1684870152606084018c9052608084018b905294519097506001965060a080840196509194601f19820194509281900390910191865af115801561116b573d6000803e3d6000fd5b5050604051601f19015198975050505050505050565b600080600084600160a060020a0316639587085d856040518263ffffffff1660e060020a028152600401808260001916600019168152602001915050602060405180830381600087803b1580156111d757600080fd5b505af11580156111eb573d6000803e3d6000fd5b505050506040513d602081101561120157600080fd5b5051604080517faace426d000000000000000000000000000000000000000000000000000000008152600481018790529051600160a060020a0388169163aace426d9160248083019260209291908290030181600087803b15801561126557600080fd5b505af1158015611279573d6000803e3d6000fd5b505050506040513d602081101561128f57600080fd5b5051604080517fe957a85b000000000000000000000000000000000000000000000000000000008152600481018890529051600160a060020a0389169163e957a85b9160248083019260209291908290030181600087803b1580156112f357600080fd5b505af1158015611307573d6000803e3d6000fd5b505050506040513d602081101561131d57600080fd5b5051919450925090509250925092565b6000808751118015611340575060008651115b801561134d575060008551115b801561135a575060008451115b80156113665750600083115b8015611387575060008b118061137c575060008a115b806113875750600088115b80156113a2575061139c8c8c8c8c8c886125ea565b15156001145b80156113b15750620f42408211155b9c9b505050505050505050505050565b6000611021826110156113da878763ffffffff6125ac16565b6113ea868963ffffffff6125ac16565b9063ffffffff61259a16565b6000808811806114065750600087115b801561149f57506040805160e360020a63042fb71d028152600481018a905260248101899052600160c060020a0319881660448201529051600160a060020a038b169163217db8e89160648083019260209291908290030181600087803b15801561147057600080fd5b505af1158015611484573d6000803e3d6000fd5b505050506040513d602081101561149a57600080fd5b505184105b806114a957508483105b80611588575060008811806114be5750600087115b80156115885750816115866114d9858863ffffffff61259a16565b6040805160e360020a63042fb71d028152600481018d9052602481018c9052600160c060020a03198b166044820152905161157a91600160a060020a038f169163217db8e8916064808201926020929091908290030181600087803b15801561154157600080fd5b505af1158015611555573d6000803e3d6000fd5b505050506040513d602081101561156b57600080fd5b5051889063ffffffff61259a16565b9063ffffffff61266416565b105b80611591575060005b1561159e575060006115a2565b5060015b98975050505050505050565b6040805160e360020a63042fb71d0281526004810185905260248101849052600160c060020a03198316604482015290516000918691600160a060020a0389169163217db8e891606480830192602092919082900301818887803b15801561161557600080fd5b505af1158015611629573d6000803e3d6000fd5b505050506040513d602081101561163f57600080fd5b505110159695505050505050565b6000611021611005858463ffffffff61266416565b6000806000808711156116bd57611692611682868663ffffffff6125ac16565b61157a898963ffffffff6125ac16565b91506116a4868563ffffffff61266416565b90506116b6828263ffffffff6125d516565b92506116c1565b8492505b5050949350505050565b600080600080881180156116ee57506116ea878763ffffffff61259a16565b8811155b156117705761171461170789600263ffffffff6125d516565b879063ffffffff61266416565b9150611766620f4240611015611730888863ffffffff61259a16565b61175a61174a8c611015620f42408a63ffffffff6125ac16565b620f42409063ffffffff61259a16565b9063ffffffff6125ac16565b9050809250611775565b600092505b505095945050505050565b6040805160038082526080820190925260609182919060208201838038833901905050905084600160a060020a03166370a08231876040518263ffffffff1660e060020a0281526004018082600160a060020a0316600160a060020a03168152602001915050602060405180830381600087803b15801561180057600080fd5b505af1158015611814573d6000803e3d6000fd5b505050506040513d602081101561182a57600080fd5b505181518290600090811061183b57fe5b6020908102909101810191909152604080517f70a08231000000000000000000000000000000000000000000000000000000008152600160a060020a0389811660048301529151918716926370a08231926024808401938290030181600087803b1580156118a857600080fd5b505af11580156118bc573d6000803e3d6000fd5b505050506040513d60208110156118d257600080fd5b50518151829060019081106118e357fe5b6020908102909101810191909152604080517f70a08231000000000000000000000000000000000000000000000000000000008152600160a060020a0389811660048301529151918616926370a08231926024808401938290030181600087803b15801561195057600080fd5b505af1158015611964573d6000803e3d6000fd5b505050506040513d602081101561197a57600080fd5b505181518290600290811061198b57fe5b602090810290910101529050949350505050565b6000806119ad858585610829565b15156119b857600080fd5b84600160a060020a031663029b7d53856040518263ffffffff1660e060020a0281526004018082600160a060020a0316600160a060020a03168152602001915050602060405180830381600087803b158015611a1357600080fd5b505af1158015611a27573d6000803e3d6000fd5b505050506040513d6020811015611a3d57600080fd5b5051604080517f2ef193b00000000000000000000000000000000000000000000000000000000081529051919250600160a060020a03851691632ef193b0916004808201926020929091908290030181600087803b158015611a9e57600080fd5b505af1158015611ab2573d6000803e3d6000fd5b505050506040513d6020811015611ac857600080fd5b5051600160a060020a0382811691161415611ae65760019150610a57565b82600160a060020a0316636cf99a8f6040518163ffffffff1660e060020a028152600401602060405180830381600087803b158015611b2457600080fd5b505af1158015611b38573d6000803e3d6000fd5b505050506040513d6020811015611b4e57600080fd5b5051600160a060020a0382811691161415611b6c5760029150610a57565b60039150610a57565b60408051600160a060020a038981166c01000000000000000000000000908102602080850191909152603484018b90529189160260548301526068808301889052835180840390910181526088909201928390528151600093849392909182918401908083835b60208310611bfb5780518252601f199092019160209182019101611bdc565b51815160209384036101000a600019018019909216911617905260408051929094018290038220600080845283830180875282905260ff8d1684870152606084018c9052608084018b905294519097506001965060a080840196509194601f19820194509281900390910191865af1158015611c7b573d6000803e3d6000fd5b5050604051601f1901519a9950505050505050505050565b6000806000806060611ca58c87612010565b1515611cb057600080fd5b611cba8c87610a5f565b95508a600160a060020a0316639ba535ce876040518263ffffffff1660e060020a02815260040180828152602001915050602060405180830381600087803b158015611d0557600080fd5b505af1158015611d19573d6000803e3d6000fd5b505050506040513d6020811015611d2f57600080fd5b50516040805160e160020a634dd29ae7028152600481018990529051600160a060020a038d1691639ba535ce9160248083019260209291908290030181600087803b158015611d7d57600080fd5b505af1158015611d91573d6000803e3d6000fd5b505050506040513d6020811015611da757600080fd5b50516040805160e160020a634dd29ae7028152600481018a90529051600160a060020a038d1691639ba535ce9160248083019260209291908290030181600087803b158015611df557600080fd5b505af1158015611e09573d6000803e3d6000fd5b505050506040513d6020811015611e1f57600080fd5b50516040805160e160020a634dd29ae7028152600481018b90529051600160a060020a038d1691639ba535ce9160248083019260209291908290030181600087803b158015611e6d57600080fd5b505af1158015611e81573d6000803e3d6000fd5b505050506040513d6020811015611e9757600080fd5b50516040805160e160020a634dd29ae7028152600481018c90529051600160a060020a038d1691639ba535ce91602480830192600092919082900301818387803b158015611ee457600080fd5b505af1158015611ef8573d6000803e3d6000fd5b505050506040513d6000823e601f3d908101601f191682016040526020811015611f2157600080fd5b810190808051640100000000811115611f3957600080fd5b82016020810184811115611f4c57600080fd5b8151640100000000811182820187101715611f6657600080fd5b50979c50959a509398509196509294505050505097509750975097509792505050565b60008060008088118015611fac5750611fa8878763ffffffff61259a16565b8811155b1561177057611fc561170789600263ffffffff6125d516565b9150611ff4611fda868663ffffffff61259a16565b61175a61174a8a611015620f42408863ffffffff6125ac16565b905061200981620f424063ffffffff6125d516565b9250611775565b600080600084600160a060020a03166381f3e897856040518263ffffffff1660e060020a02815260040180828152602001915050600060405180830381600087803b15801561205e57600080fd5b505af1158015612072573d6000803e3d6000fd5b505050506040513d6000823e601f3d908101601f1916820160405261014081101561209c57600080fd5b8151602083015160408401516060850151608086018051949693959294919392830192916401000000008111156120d257600080fd5b820160208101848111156120e557600080fd5b81516401000000008111828201871017156120ff57600080fd5b5050602082015160408301516060840151608085015160a0909501805194979396929591949193929164010000000081111561213a57600080fd5b8201602081018481111561214d57600080fd5b815164010000000081118282018710171561216757600080fd5b50509291905050505098505050505050505091508382148015612188575080155b95945050505050565b620f424090565b60008060008060008087600160a060020a031663e2499b98886040518263ffffffff1660e060020a02815260040180826000191660001916815260200191505061010060405180830381600087803b1580156121f357600080fd5b505af1158015612207573d6000803e3d6000fd5b505050506040513d61010081101561221e57600080fd5b5060408101516060820151608090920151909a919950975095505050505050565b6000871561232057866123178761157a858d600160a060020a031663217db8e88b8b8b6040518463ffffffff1660e060020a028152600401808481526020018381526020018277ffffffffffffffffffffffffffffffffffffffffffffffff191677ffffffffffffffffffffffffffffffffffffffffffffffff191681526020019350505050602060405180830381600087803b1580156122df57600080fd5b505af11580156122f3573d6000803e3d6000fd5b505050506040513d602081101561230957600080fd5b50519063ffffffff61266416565b101590506115a2565b866123b88761157a858d600160a060020a031663217db8e88b8b8b6040518463ffffffff1660e060020a028152600401808481526020018381526020018277ffffffffffffffffffffffffffffffffffffffffffffffff191677ffffffffffffffffffffffffffffffffffffffffffffffff191681526020019350505050602060405180830381600087803b1580156122df57600080fd5b1490506115a2565b6000806000806000806060806123d88f8f8f8f611780565b91506123e68f8c8c8c611780565b90508160008151811015156123f757fe5b9060200190602002015182600181518110151561241057fe5b9060200190602002015183600281518110151561242957fe5b9060200190602002015183600081518110151561244257fe5b9060200190602002015184600181518110151561245b57fe5b9060200190602002015185600281518110151561247457fe5b9060200190602002015197509750975097509750975050509750975097509750975097915050565b60008060006124ae88888888886116cb565b91506115a2620f4240611015848b63ffffffff6125ac16565b600082600160a060020a031682600160a060020a0316632ef193b06040518163ffffffff1660e060020a028152600401602060405180830381600087803b15801561251157600080fd5b505af1158015612525573d6000803e3d6000fd5b505050506040513d602081101561253b57600080fd5b5051604080517f13866efa0000000000000000000000000000000000000000000000000000000081529051600160a060020a03909216916313866efa916004808201926020929091908290030181600087803b158015610be057600080fd5b6000828211156125a657fe5b50900390565b60008215156125bd57506000610c19565b508181028183828115156125cd57fe5b0414610c1957fe5b600081838115156125e257fe5b049392505050565b6040805160e360020a63042fb71d0281526004810187905260248101869052600160c060020a03198516604482015290516000918391612657918691600160a060020a038c169163217db8e891606480830192602092919082900301818a87803b1580156122df57600080fd5b1015979650505050505050565b81810182811015610c1957fe00a165627a7a723058203b97fcae38671f2ced182347dc09878406ce858da2bdbfd89b1ceb28c6989e470029",
	"source": "pragma solidity ^0.4.24;\n\nimport './SafeMath.sol';\nimport './AOTreasury.sol';\nimport './AOContent.sol';\nimport './AOEarning.sol';\nimport './AOSettingAttribute.sol';\nimport './AOUintSetting.sol';\nimport './AOBoolSetting.sol';\nimport './AOAddressSetting.sol';\nimport './AOBytesSetting.sol';\nimport './AOStringSetting.sol';\nimport './Name.sol';\nimport './TAO.sol';\nimport './NameFactory.sol';\nimport './AOSetting.sol';\nimport './TAOCurrency.sol';\n\n/**\n * @title AOLibrary\n */\nlibrary AOLibrary {\n\tusing SafeMath for uint256;\n\n\tuint256 constant private _MULTIPLIER_DIVISOR = 10 ** 6; // 1000000 = 1\n\tuint256 constant private _PERCENTAGE_DIVISOR = 10 ** 6; // 100% = 1000000\n\n\t/**\n\t * @dev Return the divisor used to correctly calculate percentage.\n\t *\t\tPercentage stored throughout AO contracts covers 4 decimals,\n\t *\t\tso 1% is 10000, 1.25% is 12500, etc\n\t */\n\tfunction PERCENTAGE_DIVISOR() public pure returns (uint256) {\n\t\treturn _PERCENTAGE_DIVISOR;\n\t}\n\n\t/**\n\t * @dev Return the divisor used to correctly calculate multiplier.\n\t *\t\tMultiplier stored throughout AO contracts covers 6 decimals,\n\t *\t\tso 1 is 1000000, 0.023 is 23000, etc\n\t */\n\tfunction MULTIPLIER_DIVISOR() public pure returns (uint256) {\n\t\treturn _MULTIPLIER_DIVISOR;\n\t}\n\n\t/**\n\t * @dev Check whether or not content creator can stake a content based on the provided params\n\t * @param _treasuryAddress AO treasury contract address\n\t * @param _networkIntegerAmount The integer amount of network token to stake\n\t * @param _networkFractionAmount The fraction amount of network token to stake\n\t * @param _denomination The denomination of the network token, i.e ao, kilo, mega, etc.\n\t * @param _primordialAmount The amount of primordial Token to stake\n\t * @param _baseChallenge The base challenge string (PUBLIC KEY) of the content\n\t * @param _encChallenge The encrypted challenge string (PUBLIC KEY) of the content unique to the host\n\t * @param _contentDatKey The dat key of the content\n\t * @param _metadataDatKey The dat key of the content's metadata\n\t * @param _fileSize The size of the file\n\t * @param _profitPercentage The percentage of profit the stake owner's media will charge\n\t * @return true if yes. false otherwise\n\t */\n\tfunction canStake(address _treasuryAddress,\n\t\tuint256 _networkIntegerAmount,\n\t\tuint256 _networkFractionAmount,\n\t\tbytes8 _denomination,\n\t\tuint256 _primordialAmount,\n\t\tstring _baseChallenge,\n\t\tstring _encChallenge,\n\t\tstring _contentDatKey,\n\t\tstring _metadataDatKey,\n\t\tuint256 _fileSize,\n\t\tuint256 _profitPercentage) public view returns (bool) {\n\t\treturn (\n\t\t\tbytes(_baseChallenge).length > 0 &&\n\t\t\tbytes(_encChallenge).length > 0 &&\n\t\t\tbytes(_contentDatKey).length > 0 &&\n\t\t\tbytes(_metadataDatKey).length > 0 &&\n\t\t\t_fileSize > 0 &&\n\t\t\t(_networkIntegerAmount > 0 || _networkFractionAmount > 0 || _primordialAmount > 0) &&\n\t\t\t_stakeAmountValid(_treasuryAddress, _networkIntegerAmount, _networkFractionAmount, _denomination, _primordialAmount, _fileSize) == true &&\n\t\t\t_profitPercentage <= _PERCENTAGE_DIVISOR\n\t\t);\n\t}\n\n\t/**\n\t * @dev Check whether or the requested unstake amount is valid\n\t * @param _treasuryAddress AO treasury contract address\n\t * @param _networkIntegerAmount The integer amount of the network token\n\t * @param _networkFractionAmount The fraction amount of the network token\n\t * @param _denomination The denomination of the the network token\n\t * @param _primordialAmount The amount of primordial token\n\t * @param _stakedNetworkAmount The current staked network token amount\n\t * @param _stakedPrimordialAmount The current staked primordial token amount\n\t * @param _stakedFileSize The file size of the staked content\n\t * @return true if can unstake, false otherwise\n\t */\n\tfunction canUnstakePartial(\n\t\taddress _treasuryAddress,\n\t\tuint256 _networkIntegerAmount,\n\t\tuint256 _networkFractionAmount,\n\t\tbytes8 _denomination,\n\t\tuint256 _primordialAmount,\n\t\tuint256 _stakedNetworkAmount,\n\t\tuint256 _stakedPrimordialAmount,\n\t\tuint256 _stakedFileSize) public view returns (bool) {\n\t\tif (\n\t\t\t(_denomination.length > 0 &&\n\t\t\t\t(_networkIntegerAmount > 0 || _networkFractionAmount > 0) &&\n\t\t\t\t_stakedNetworkAmount < AOTreasury(_treasuryAddress).toBase(_networkIntegerAmount, _networkFractionAmount, _denomination)\n\t\t\t) ||\n\t\t\t_stakedPrimordialAmount < _primordialAmount ||\n\t\t\t(\n\t\t\t\t_denomination.length > 0\n\t\t\t\t\t&& (_networkIntegerAmount > 0 || _networkFractionAmount > 0)\n\t\t\t\t\t&& (_stakedNetworkAmount.sub(AOTreasury(_treasuryAddress).toBase(_networkIntegerAmount, _networkFractionAmount, _denomination)).add(_stakedPrimordialAmount.sub(_primordialAmount)) < _stakedFileSize)\n\t\t\t) ||\n\t\t\t( _denomination.length == 0 && _networkIntegerAmount == 0 && _networkFractionAmount == 0 && _primordialAmount > 0 && _stakedPrimordialAmount.sub(_primordialAmount) < _stakedFileSize)\n\t\t) {\n\t\t\treturn false;\n\t\t} else {\n\t\t\treturn true;\n\t\t}\n\t}\n\n\t/**\n\t * @dev Check whether the network token and/or primordial token is adequate to pay for existing staked content\n\t * @param _treasuryAddress AO treasury contract address\n\t * @param _isAOContentUsageType whether or not the content is of AO Content usage type\n\t * @param _fileSize The size of the file\n\t * @param _stakedAmount The total staked amount\n\t * @param _networkIntegerAmount The integer amount of the network token\n\t * @param _networkFractionAmount The fraction amount of the network token\n\t * @param _denomination The denomination of the the network token\n\t * @param _primordialAmount The amount of primordial token\n\t * @return true when the amount is sufficient, false otherwise\n\t */\n\tfunction canStakeExisting(\n\t\taddress _treasuryAddress,\n\t\tbool _isAOContentUsageType,\n\t\tuint256 _fileSize,\n\t\tuint256 _stakedAmount,\n\t\tuint256 _networkIntegerAmount,\n\t\tuint256 _networkFractionAmount,\n\t\tbytes8 _denomination,\n\t\tuint256 _primordialAmount\n\t) public view returns (bool) {\n\t\tif (_isAOContentUsageType) {\n\t\t\treturn AOTreasury(_treasuryAddress).toBase(_networkIntegerAmount, _networkFractionAmount, _denomination).add(_primordialAmount).add(_stakedAmount) >= _fileSize;\n\t\t} else {\n\t\t\treturn AOTreasury(_treasuryAddress).toBase(_networkIntegerAmount, _networkFractionAmount, _denomination).add(_primordialAmount).add(_stakedAmount) == _fileSize;\n\t\t}\n\t}\n\n\t/**\n\t * @dev Check whether the network token is adequate to pay for existing staked content\n\t * @param _treasuryAddress AO treasury contract address\n\t * @param _price The price of the content\n\t * @param _networkIntegerAmount The integer amount of the network token\n\t * @param _networkFractionAmount The fraction amount of the network token\n\t * @param _denomination The denomination of the the network token\n\t * @return true when the amount is sufficient, false otherwise\n\t */\n\tfunction canBuy(address _treasuryAddress, uint256 _price, uint256 _networkIntegerAmount, uint256 _networkFractionAmount, bytes8 _denomination) public view returns (bool) {\n\t\treturn AOTreasury(_treasuryAddress).toBase(_networkIntegerAmount, _networkFractionAmount, _denomination) >= _price;\n\t}\n\n\t/**\n\t * @dev Calculate the new weighted multiplier when adding `_additionalPrimordialAmount` at `_additionalWeightedMultiplier` to the current `_currentPrimordialBalance` at `_currentWeightedMultiplier`\n\t * @param _currentWeightedMultiplier Account's current weighted multiplier\n\t * @param _currentPrimordialBalance Account's current primordial token balance\n\t * @param _additionalWeightedMultiplier The weighted multiplier to be added\n\t * @param _additionalPrimordialAmount The primordial token amount to be added\n\t * @return the new primordial weighted multiplier\n\t */\n\tfunction calculateWeightedMultiplier(uint256 _currentWeightedMultiplier, uint256 _currentPrimordialBalance, uint256 _additionalWeightedMultiplier, uint256 _additionalPrimordialAmount) public pure returns (uint256) {\n\t\tif (_currentWeightedMultiplier > 0) {\n\t\t\tuint256 _totalWeightedTokens = (_currentWeightedMultiplier.mul(_currentPrimordialBalance)).add(_additionalWeightedMultiplier.mul(_additionalPrimordialAmount));\n\t\t\tuint256 _totalTokens = _currentPrimordialBalance.add(_additionalPrimordialAmount);\n\t\t\treturn _totalWeightedTokens.div(_totalTokens);\n\t\t} else {\n\t\t\treturn _additionalWeightedMultiplier;\n\t\t}\n\t}\n\n\t/**\n\t * @dev Return the address that signed the message when a node wants to become a host\n\t * @param _callingContractAddress the address of the calling contract\n\t * @param _message the message that was signed\n\t * @param _v part of the signature\n\t * @param _r part of the signature\n\t * @param _s part of the signature\n\t * @return the address that signed the message\n\t */\n\tfunction getBecomeHostSignatureAddress(address _callingContractAddress, string _message, uint8 _v, bytes32 _r, bytes32 _s) public pure returns (address) {\n\t\tbytes32 _hash = keccak256(abi.encodePacked(_callingContractAddress, _message));\n\t\treturn ecrecover(_hash, _v, _r, _s);\n\t}\n\n\t/**\n\t * @dev Return the address that signed the TAO content state update\n\t * @param _callingContractAddress the address of the calling contract\n\t * @param _contentId the ID of the content\n\t * @param _taoId the ID of the TAO\n\t * @param _taoContentState the TAO Content State value, i.e Submitted, Pending Review, or Accepted to TAO\n\t * @param _v part of the signature\n\t * @param _r part of the signature\n\t * @param _s part of the signature\n\t * @return the address that signed the message\n\t */\n\tfunction getUpdateTAOContentStateSignatureAddress(address _callingContractAddress, bytes32 _contentId, address _taoId, bytes32 _taoContentState, uint8 _v, bytes32 _r, bytes32 _s) public pure returns (address) {\n\t\tbytes32 _hash = keccak256(abi.encodePacked(_callingContractAddress, _contentId, _taoId, _taoContentState));\n\t\treturn ecrecover(_hash, _v, _r, _s);\n\t}\n\n\t/**\n\t * @dev Return the staking and earning information of a stake ID\n\t * @param _contentAddress The address of AOContent\n\t * @param _earningAddress The address of AOEarning\n\t * @param _stakeId The ID of the staked content\n\t * @return the network base token amount staked for this content\n\t * @return the primordial token amount staked for this content\n\t * @return the primordial weighted multiplier of the staked content\n\t * @return the total earning from staking this content\n\t * @return the total earning from hosting this content\n\t * @return the total foundation earning of this content\n\t */\n\tfunction getContentMetrics(address _contentAddress, address _earningAddress, bytes32 _stakeId) public view returns (uint256, uint256, uint256, uint256, uint256, uint256) {\n\t\t(uint256 networkAmount, uint256 primordialAmount, uint256 primordialWeightedMultiplier) = getStakingMetrics(_contentAddress, _stakeId);\n\t\t(uint256 totalStakeEarning, uint256 totalHostEarning, uint256 totalFoundationEarning) = getEarningMetrics(_earningAddress, _stakeId);\n\t\treturn (\n\t\t\tnetworkAmount,\n\t\t\tprimordialAmount,\n\t\t\tprimordialWeightedMultiplier,\n\t\t\ttotalStakeEarning,\n\t\t\ttotalHostEarning,\n\t\t\ttotalFoundationEarning\n\t\t);\n\t}\n\n\t/**\n\t * @dev Return the staking information of a stake ID\n\t * @param _contentAddress The address of AOContent\n\t * @param _stakeId The ID of the staked content\n\t * @return the network base token amount staked for this content\n\t * @return the primordial token amount staked for this content\n\t * @return the primordial weighted multiplier of the staked content\n\t */\n\tfunction getStakingMetrics(address _contentAddress, bytes32 _stakeId) public view returns (uint256, uint256, uint256) {\n\t\t(,, uint256 networkAmount, uint256 primordialAmount, uint256 primordialWeightedMultiplier,,,) = AOContent(_contentAddress).stakedContentById(_stakeId);\n\t\treturn (\n\t\t\tnetworkAmount,\n\t\t\tprimordialAmount,\n\t\t\tprimordialWeightedMultiplier\n\t\t);\n\t}\n\n\t/**\n\t * @dev Return the earning information of a stake ID\n\t * @param _earningAddress The address of AOEarning\n\t * @param _stakeId The ID of the staked content\n\t * @return the total earning from staking this content\n\t * @return the total earning from hosting this content\n\t * @return the total foundation earning of this content\n\t */\n\tfunction getEarningMetrics(address _earningAddress, bytes32 _stakeId) public view returns (uint256, uint256, uint256) {\n\t\treturn (\n\t\t\tAOEarning(_earningAddress).totalStakedContentStakeEarning(_stakeId),\n\t\t\tAOEarning(_earningAddress).totalStakedContentHostEarning(_stakeId),\n\t\t\tAOEarning(_earningAddress).totalStakedContentFoundationEarning(_stakeId)\n\t\t);\n\t}\n\n\t/**\n\t * @dev Calculate the primordial token multiplier on a given lot\n\t *\t\tTotal Primordial Mintable = T\n\t *\t\tTotal Primordial Minted = M\n\t *\t\tStarting Multiplier = S\n\t *\t\tEnding Multiplier = E\n\t *\t\tTo Purchase = P\n\t *\t\tMultiplier for next Lot of Amount = (1 - ((M + P/2) / T)) x (S-E)\n\t *\n\t * @param _purchaseAmount The amount of primordial token intended to be purchased\n\t * @param _totalPrimordialMintable Total Primordial token intable\n\t * @param _totalPrimordialMinted Total Primordial token minted so far\n\t * @param _startingMultiplier The starting multiplier in (10 ** 6)\n\t * @param _endingMultiplier The ending multiplier in (10 ** 6)\n\t * @return The multiplier in (10 ** 6)\n\t */\n\tfunction calculatePrimordialMultiplier(uint256 _purchaseAmount, uint256 _totalPrimordialMintable, uint256 _totalPrimordialMinted, uint256 _startingMultiplier, uint256 _endingMultiplier) public pure returns (uint256) {\n\t\tif (_purchaseAmount > 0 && _purchaseAmount <= _totalPrimordialMintable.sub(_totalPrimordialMinted)) {\n\t\t\t/**\n\t\t\t * Let temp = M + (P/2)\n\t\t\t * Multiplier = (1 - (temp / T)) x (S-E)\n\t\t\t */\n\t\t\tuint256 temp = _totalPrimordialMinted.add(_purchaseAmount.div(2));\n\n\t\t\t/**\n\t\t\t * Multiply multiplier with _MULTIPLIER_DIVISOR/_MULTIPLIER_DIVISOR to account for 6 decimals\n\t\t\t * so, Multiplier = (_MULTIPLIER_DIVISOR/_MULTIPLIER_DIVISOR) * (1 - (temp / T)) * (S-E)\n\t\t\t * Multiplier = ((_MULTIPLIER_DIVISOR * (1 - (temp / T))) * (S-E)) / _MULTIPLIER_DIVISOR\n\t\t\t * Multiplier = ((_MULTIPLIER_DIVISOR - ((_MULTIPLIER_DIVISOR * temp) / T)) * (S-E)) / _MULTIPLIER_DIVISOR\n\t\t\t * Take out the division by _MULTIPLIER_DIVISOR for now and include in later calculation\n\t\t\t * Multiplier = (_MULTIPLIER_DIVISOR - ((_MULTIPLIER_DIVISOR * temp) / T)) * (S-E)\n\t\t\t */\n\t\t\tuint256 multiplier = (_MULTIPLIER_DIVISOR.sub(_MULTIPLIER_DIVISOR.mul(temp).div(_totalPrimordialMintable))).mul(_startingMultiplier.sub(_endingMultiplier));\n\t\t\t/**\n\t\t\t * Since _startingMultiplier and _endingMultiplier are in 6 decimals\n\t\t\t * Need to divide multiplier by _MULTIPLIER_DIVISOR\n\t\t\t */\n\t\t\treturn multiplier.div(_MULTIPLIER_DIVISOR);\n\t\t} else {\n\t\t\treturn 0;\n\t\t}\n\t}\n\n\t/**\n\t * @dev Calculate the bonus percentage of network token on a given lot\n\t *\t\tTotal Primordial Mintable = T\n\t *\t\tTotal Primordial Minted = M\n\t *\t\tStarting Network Token Bonus Multiplier = Bs\n\t *\t\tEnding Network Token Bonus Multiplier = Be\n\t *\t\tTo Purchase = P\n\t *\t\tAO Bonus % = B% = (1 - ((M + P/2) / T)) x (Bs-Be)\n\t *\n\t * @param _purchaseAmount The amount of primordial token intended to be purchased\n\t * @param _totalPrimordialMintable Total Primordial token intable\n\t * @param _totalPrimordialMinted Total Primordial token minted so far\n\t * @param _startingMultiplier The starting Network token bonus multiplier\n\t * @param _endingMultiplier The ending Network token bonus multiplier\n\t * @return The bonus percentage\n\t */\n\tfunction calculateNetworkTokenBonusPercentage(uint256 _purchaseAmount, uint256 _totalPrimordialMintable, uint256 _totalPrimordialMinted, uint256 _startingMultiplier, uint256 _endingMultiplier) public pure returns (uint256) {\n\t\tif (_purchaseAmount > 0 && _purchaseAmount <= _totalPrimordialMintable.sub(_totalPrimordialMinted)) {\n\t\t\t/**\n\t\t\t * Let temp = M + (P/2)\n\t\t\t * B% = (1 - (temp / T)) x (Bs-Be)\n\t\t\t */\n\t\t\tuint256 temp = _totalPrimordialMinted.add(_purchaseAmount.div(2));\n\n\t\t\t/**\n\t\t\t * Multiply B% with _PERCENTAGE_DIVISOR/_PERCENTAGE_DIVISOR to account for 6 decimals\n\t\t\t * so, B% = (_PERCENTAGE_DIVISOR/_PERCENTAGE_DIVISOR) * (1 - (temp / T)) * (Bs-Be)\n\t\t\t * B% = ((_PERCENTAGE_DIVISOR * (1 - (temp / T))) * (Bs-Be)) / _PERCENTAGE_DIVISOR\n\t\t\t * B% = ((_PERCENTAGE_DIVISOR - ((_PERCENTAGE_DIVISOR * temp) / T)) * (Bs-Be)) / _PERCENTAGE_DIVISOR\n\t\t\t * Take out the division by _PERCENTAGE_DIVISOR for now and include in later calculation\n\t\t\t * B% = (_PERCENTAGE_DIVISOR - ((_PERCENTAGE_DIVISOR * temp) / T)) * (Bs-Be)\n\t\t\t * But since Bs and Be are in 6 decimals, need to divide by _PERCENTAGE_DIVISOR\n\t\t\t * B% = (_PERCENTAGE_DIVISOR - ((_PERCENTAGE_DIVISOR * temp) / T)) * (Bs-Be) / _PERCENTAGE_DIVISOR\n\t\t\t */\n\t\t\tuint256 bonusPercentage = (_PERCENTAGE_DIVISOR.sub(_PERCENTAGE_DIVISOR.mul(temp).div(_totalPrimordialMintable))).mul(_startingMultiplier.sub(_endingMultiplier)).div(_PERCENTAGE_DIVISOR);\n\t\t\treturn bonusPercentage;\n\t\t} else {\n\t\t\treturn 0;\n\t\t}\n\t}\n\n\t/**\n\t * @dev Calculate the bonus amount of network token on a given lot\n\t *\t\tAO Bonus Amount = B% x P\n\t *\n\t * @param _purchaseAmount The amount of primordial token intended to be purchased\n\t * @param _totalPrimordialMintable Total Primordial token intable\n\t * @param _totalPrimordialMinted Total Primordial token minted so far\n\t * @param _startingMultiplier The starting Network token bonus multiplier\n\t * @param _endingMultiplier The ending Network token bonus multiplier\n\t * @return The bonus percentage\n\t */\n\tfunction calculateNetworkTokenBonusAmount(uint256 _purchaseAmount, uint256 _totalPrimordialMintable, uint256 _totalPrimordialMinted, uint256 _startingMultiplier, uint256 _endingMultiplier) public pure returns (uint256) {\n\t\tuint256 bonusPercentage = calculateNetworkTokenBonusPercentage(_purchaseAmount, _totalPrimordialMintable, _totalPrimordialMinted, _startingMultiplier, _endingMultiplier);\n\t\t/**\n\t\t * Since bonusPercentage is in _PERCENTAGE_DIVISOR format, need to divide it with _PERCENTAGE DIVISOR\n\t\t * when calculating the network token bonus amount\n\t\t */\n\t\tuint256 networkTokenBonus = bonusPercentage.mul(_purchaseAmount).div(_PERCENTAGE_DIVISOR);\n\t\treturn networkTokenBonus;\n\t}\n\n\t/**\n\t * @dev Calculate the maximum amount of Primordial an account can burn\n\t *\t\t_primordialBalance = P\n\t *\t\t_currentWeightedMultiplier = M\n\t *\t\t_maximumMultiplier = S\n\t *\t\t_amountToBurn = B\n\t *\t\tB = ((S x P) - (P x M)) / S\n\t *\n\t * @param _primordialBalance Account's primordial token balance\n\t * @param _currentWeightedMultiplier Account's current weighted multiplier\n\t * @param _maximumMultiplier The maximum multiplier of this account\n\t * @return The maximum burn amount\n\t */\n\tfunction calculateMaximumBurnAmount(uint256 _primordialBalance, uint256 _currentWeightedMultiplier, uint256 _maximumMultiplier) public pure returns (uint256) {\n\t\treturn (_maximumMultiplier.mul(_primordialBalance).sub(_primordialBalance.mul(_currentWeightedMultiplier))).div(_maximumMultiplier);\n\t}\n\n\t/**\n\t * @dev Calculate the new multiplier after burning primordial token\n\t *\t\t_primordialBalance = P\n\t *\t\t_currentWeightedMultiplier = M\n\t *\t\t_amountToBurn = B\n\t *\t\t_newMultiplier = E\n\t *\t\tE = (P x M) / (P - B)\n\t *\n\t * @param _primordialBalance Account's primordial token balance\n\t * @param _currentWeightedMultiplier Account's current weighted multiplier\n\t * @param _amountToBurn The amount of primordial token to burn\n\t * @return The new multiplier\n\t */\n\tfunction calculateMultiplierAfterBurn(uint256 _primordialBalance, uint256 _currentWeightedMultiplier, uint256 _amountToBurn) public pure returns (uint256) {\n\t\treturn _primordialBalance.mul(_currentWeightedMultiplier).div(_primordialBalance.sub(_amountToBurn));\n\t}\n\n\t/**\n\t * @dev Calculate the new multiplier after converting network token to primordial token\n\t *\t\t_primordialBalance = P\n\t *\t\t_currentWeightedMultiplier = M\n\t *\t\t_amountToConvert = C\n\t *\t\t_newMultiplier = E\n\t *\t\tE = (P x M) / (P + C)\n\t *\n\t * @param _primordialBalance Account's primordial token balance\n\t * @param _currentWeightedMultiplier Account's current weighted multiplier\n\t * @param _amountToConvert The amount of network token to convert\n\t * @return The new multiplier\n\t */\n\tfunction calculateMultiplierAfterConversion(uint256 _primordialBalance, uint256 _currentWeightedMultiplier, uint256 _amountToConvert) public pure returns (uint256) {\n\t\treturn _primordialBalance.mul(_currentWeightedMultiplier).div(_primordialBalance.add(_amountToConvert));\n\t}\n\n\t/**\n\t * @dev Get setting values by setting ID.\n\t *\t\tWill throw error if the setting is not exist or rejected.\n\t * @param _aoSettingAttributeAddress The address of AOSettingAttribute\n\t * @param _aoUintSettingAddress The address of AOUintSetting\n\t * @param _aoBoolSettingAddress The address of AOBoolSetting\n\t * @param _aoAddressSettingAddress The address of AOAddressSetting\n\t * @param _aoBytesSettingAddress The address of AOBytesSetting\n\t * @param _aoStringSettingAddress The address of AOStringSetting\n\t * @param _settingId The ID of the setting\n\t * @return the uint256 value of this setting ID\n\t * @return the bool value of this setting ID\n\t * @return the address value of this setting ID\n\t * @return the bytes32 value of this setting ID\n\t * @return the string value of this setting ID\n\t */\n\tfunction getSettingValuesById(address _aoSettingAttributeAddress, address _aoUintSettingAddress, address _aoBoolSettingAddress, address _aoAddressSettingAddress, address _aoBytesSettingAddress, address _aoStringSettingAddress, uint256 _settingId) public view returns (uint256, bool, address, bytes32, string) {\n\t\trequire (_settingExist(_aoSettingAttributeAddress, _settingId));\n\n\t\t_settingId = _getLatestSettingId(_aoSettingAttributeAddress, _settingId);\n\t\treturn (\n\t\t\tAOUintSetting(_aoUintSettingAddress).settingValue(_settingId),\n\t\t\tAOBoolSetting(_aoBoolSettingAddress).settingValue(_settingId),\n\t\t\tAOAddressSetting(_aoAddressSettingAddress).settingValue(_settingId),\n\t\t\tAOBytesSetting(_aoBytesSettingAddress).settingValue(_settingId),\n\t\t\tAOStringSetting(_aoStringSettingAddress).settingValue(_settingId)\n\t\t);\n\t}\n\n\t/**\n\t * @dev Check whether or not the given TAO ID is a TAO\n\t * @param _taoId The ID of the TAO\n\t * @return true if yes. false otherwise\n\t */\n\tfunction isTAO(address _taoId) public view returns (bool) {\n\t\treturn (_taoId != address(0) && TAO(_taoId).originId() != address(0) && TAO(_taoId).taoTypeId() == 0);\n\t}\n\n\t/**\n\t * @dev Check whether or not the given Name ID is a Name\n\t * @param _nameId The ID of the Name\n\t * @return true if yes. false otherwise\n\t */\n\tfunction isName(address _nameId) public view returns (bool) {\n\t\treturn (_nameId != address(0) && Name(_nameId).originId() != address(0) && Name(_nameId).taoTypeId() == 1);\n\t}\n\n\t/**\n\t * @dev Check whether or not _from address is Advocate/Listener/Speaker of the TAO\n\t * @param _nameFactoryAddress The address of NameFactory\n\t * @param _from The address that wants to update the TAO Content State\n\t * @param _taoId The ID of the TAO\n\t * @return true if yes. false otherwise\n\t */\n\tfunction addressIsTAOAdvocateListenerSpeaker(address _nameFactoryAddress, address _from, address _taoId) public view returns (bool) {\n\t\taddress _nameId = NameFactory(_nameFactoryAddress).ethAddressToNameId(_from);\n\t\trequire (_nameId != address(0));\n\t\trequire (isTAO(_taoId));\n\t\treturn (_nameId == TAO(_taoId).advocateId() || _nameId == TAO(_taoId).listenerId() || _nameId == TAO(_taoId).speakerId());\n\t}\n\n\t/**\n\t * @dev Get TAO Currency Balances given a nameId\n\t * @param _nameId The ID of the Name\n\t * @param _logosAddress The address of Logos\n\t * @param _ethosAddress The address of Ethos\n\t * @param _pathosAddress The address of Pathos\n\t * @return Logos balance of the Name ID\n\t * @return Ethos balance of the Name ID\n\t * @return Pathos balance of the Name ID\n\t */\n\tfunction getTAOCurrencyBalances(\n\t\taddress _nameId,\n\t\taddress _logosAddress,\n\t\taddress _ethosAddress,\n\t\taddress _pathosAddress\n\t) public view returns (uint256[]) {\n\t\tuint256[] memory balances = new uint256[](3);\n\t\tbalances[0] = TAOCurrency(_logosAddress).balanceOf(_nameId);\n\t\tbalances[1] = TAOCurrency(_ethosAddress).balanceOf(_nameId);\n\t\tbalances[2] = TAOCurrency(_pathosAddress).balanceOf(_nameId);\n\t\treturn balances;\n\t}\n\n\t/**\n\t * @dev Get Anti TAO Currency Balances given a nameId\n\t * @param _nameId The ID of the Name\n\t * @param _antiLogosAddress The address of AntiLogos\n\t * @param _antiEthosAddress The address of AntiEthos\n\t * @param _antiPathosAddress The address of AntiPathos\n\t * @return AntiLogos balance of the Name ID\n\t * @return AntiEthos balance of the Name ID\n\t * @return AntiPathos balance of the Name ID\n\t */\n\tfunction getAntiTAOCurrencyBalances(\n\t\taddress _nameId,\n\t\taddress _antiLogosAddress,\n\t\taddress _antiEthosAddress,\n\t\taddress _antiPathosAddress\n\t) public view returns (uint256[]) {\n\t\tuint256[] memory balances = new uint256[](3);\n\t\tbalances[0] = TAOCurrency(_antiLogosAddress).balanceOf(_nameId);\n\t\tbalances[1] = TAOCurrency(_antiEthosAddress).balanceOf(_nameId);\n\t\tbalances[2] = TAOCurrency(_antiPathosAddress).balanceOf(_nameId);\n\t\treturn balances;\n\t}\n\n\t/**\n\t * @dev Get all TAO/AntiTAO Currency Balances given a nameId\n\t * @param _nameId The ID of the Name\n\t * @param _logosAddress The address of Logos\n\t * @param _ethosAddress The address of Ethos\n\t * @param _pathosAddress The address of Pathos\n\t * @param _antiLogosAddress The address of AntiLogos\n\t * @param _antiEthosAddress The address of AntiEthos\n\t * @param _antiPathosAddress The address of AntiPathos\n\t * @return Logos balance of the Name ID\n\t * @return Ethos balance of the Name ID\n\t * @return Pathos balance of the Name ID\n\t * @return AntiLogos balance of the Name ID\n\t * @return AntiEthos balance of the Name ID\n\t * @return AntiPathos balance of the Name ID\n\t */\n\tfunction getAllTAOCurrencyBalances(\n\t\taddress _nameId,\n\t\taddress _logosAddress,\n\t\taddress _ethosAddress,\n\t\taddress _pathosAddress,\n\t\taddress _antiLogosAddress,\n\t\taddress _antiEthosAddress,\n\t\taddress _antiPathosAddress\n\t) public view returns (uint256, uint256, uint256, uint256, uint256, uint256) {\n\t\tuint256[] memory taoCurrencyBalances = getTAOCurrencyBalances(_nameId, _logosAddress, _ethosAddress, _pathosAddress);\n\t\tuint256[] memory antiTAOCurrencyBalances = getAntiTAOCurrencyBalances(_nameId, _antiLogosAddress, _antiEthosAddress, _antiPathosAddress);\n\t\treturn (\n\t\t\ttaoCurrencyBalances[0],\n\t\t\ttaoCurrencyBalances[1],\n\t\t\ttaoCurrencyBalances[2],\n\t\t\tantiTAOCurrencyBalances[0],\n\t\t\tantiTAOCurrencyBalances[1],\n\t\t\tantiTAOCurrencyBalances[2]\n\t\t);\n\t}\n\n\t/**\n\t * @dev Check if `_sender` address is the current advocate of a `_nameId`\n\t *\t\tSince there is no way to change the Advocate of a Name, the Advocate's eth address\n\t *\t\tis the same as the Name's Origin ID\n\t * @param _sender The address to check\n\t * @param _nameId The ID of the Name\n\t * @return true if yes. false otherwise\n\t */\n\tfunction isAdvocateOfName(address _sender, address _nameId) public view returns (bool) {\n\t\treturn (Name(_nameId).originId() == _sender);\n\t}\n\n\t/**\n\t * @dev Check if `_sender` address is the current advocate of a `_taoId`\n\t * @param _sender The address to check\n\t * @param _taoId The ID of the TAO\n\t * @return true if yes. false otherwise\n\t */\n\tfunction isAdvocateOfTAO(address _sender, address _taoId) public view returns (bool) {\n\t\treturn (Name(TAO(_taoId).advocateId()).originId() == _sender);\n\t}\n\n\t/**\n\t * @dev Return the address that signed the data and nonce when validating signature\n\t * @param _callingContractAddress the address of the calling contract\n\t * @param _data the data that was signed\n\t * @param _nonce The signed uint256 nonce\n\t * @param _v part of the signature\n\t * @param _r part of the signature\n\t * @param _s part of the signature\n\t * @return the address that signed the message\n\t */\n\tfunction getValidateSignatureAddress(address _callingContractAddress, string _data, uint256 _nonce, uint8 _v, bytes32 _r, bytes32 _s) public pure returns (address) {\n\t\tbytes32 _hash = keccak256(abi.encodePacked(_callingContractAddress, _data, _nonce));\n\t\treturn ecrecover(_hash, _v, _r, _s);\n\t}\n\n\t/**\n\t * @dev Determine whether or not address is Advocate/Listener/Speaker of the TAO\n\t * @param _nameFactoryAddress The address of NameFactory\n\t * @param _from The ETH address that to check\n\t * @param _taoId The ID of the TAO\n\t * @return 1 if Advocate. 2 if Listener. 3 if Speaker\n\t */\n\tfunction determineAddressPositionInTAO(address _nameFactoryAddress, address _from, address _taoId) public view returns (uint256) {\n\t\trequire (addressIsTAOAdvocateListenerSpeaker(_nameFactoryAddress, _from, _taoId));\n\t\taddress _nameId = NameFactory(_nameFactoryAddress).ethAddressToNameId(_from);\n\t\tif (_nameId == TAO(_taoId).advocateId()) {\n\t\t\treturn 1;\n\t\t} else if (_nameId == TAO(_taoId).listenerId()) {\n\t\t\treturn 2;\n\t\t} else {\n\t\t\treturn 3;\n\t\t}\n\t}\n\n\t/***** Internal Methods *****/\n\t/**\n\t * @dev Check if a setting exist and not rejected\n\t * @param _aoSettingAttributeAddress The address of AOSettingAttribute\n\t * @param _settingId The ID of the setting\n\t * @return true if exist. false otherwise\n\t */\n\tfunction _settingExist(address _aoSettingAttributeAddress, uint256 _settingId) public view returns (bool) {\n\t\t(uint256 settingId,,,,,,,, bool _rejected,) = AOSettingAttribute(_aoSettingAttributeAddress).getSettingData(_settingId);\n\t\treturn (settingId == _settingId && _rejected == false);\n\t}\n\n\t/**\n\t * @dev Get the latest ID of a deprecated setting, if exist\n\t * @param _aoSettingAttributeAddress The address of AOSettingAttribute\n\t * @param _settingId The ID of the setting\n\t * @return The latest setting ID\n\t */\n\tfunction _getLatestSettingId(address _aoSettingAttributeAddress, uint256 _settingId) public view returns (uint256) {\n\t\t(,,,,,,, bool _migrated,, uint256 _newSettingId,,) = AOSettingAttribute(_aoSettingAttributeAddress).getSettingDeprecation(_settingId);\n\t\twhile (_migrated && _newSettingId > 0) {\n\t\t\t_settingId = _newSettingId;\n\t\t\t(,,,,,,, _migrated,, _newSettingId,,) = AOSettingAttribute(_aoSettingAttributeAddress).getSettingDeprecation(_settingId);\n\t\t}\n\t\treturn _settingId;\n\t}\n\n\t/**\n\t * @dev Check whether the network token and/or primordial token is adequate to pay for the filesize\n\t * @param _treasuryAddress AO treasury contract address\n\t * @param _networkIntegerAmount The integer amount of network token to stake\n\t * @param _networkFractionAmount The fraction amount of network token to stake\n\t * @param _denomination The denomination of the network token, i.e ao, kilo, mega, etc.\n\t * @param _primordialAmount The amount of primordial Token to stake\n\t * @param _fileSize The size of the file\n\t * @return true when the amount is sufficient, false otherwise\n\t */\n\tfunction _stakeAmountValid(address _treasuryAddress, uint256 _networkIntegerAmount, uint256 _networkFractionAmount, bytes8 _denomination, uint256 _primordialAmount, uint256 _fileSize) internal view returns (bool) {\n\t\treturn AOTreasury(_treasuryAddress).toBase(_networkIntegerAmount, _networkFractionAmount, _denomination).add(_primordialAmount) >= _fileSize;\n\t}\n}\n",
	"sourcePath": "/Users/neilharlow/development/ao-contracts/contracts/AOLibrary.sol",
	"compiler": {
		"name": "solc",
		"version": "0.4.24+commit.e67f0147.Emscripten.clang"
	},
	"schemaVersion": "2.0.1",
	"updatedAt": "2019-01-07T19:52:25.676Z"
}