{
	"contractName": "AOLibrary",
	"abi": [
		{
			"constant": true,
			"inputs": [
				{
					"name": "_taoId",
					"type": "address"
				}
			],
			"name": "isTAO",
			"outputs": [
				{
					"name": "",
					"type": "bool"
				}
			],
			"payable": false,
			"stateMutability": "view",
			"type": "function"
		},
		{
			"constant": true,
			"inputs": [
				{
					"name": "_nameId",
					"type": "address"
				}
			],
			"name": "isName",
			"outputs": [
				{
					"name": "",
					"type": "bool"
				}
			],
			"payable": false,
			"stateMutability": "view",
			"type": "function"
		},
		{
			"constant": true,
			"inputs": [
				{
					"name": "_tokenAddress",
					"type": "address"
				}
			],
			"name": "isValidERC20TokenAddress",
			"outputs": [
				{
					"name": "",
					"type": "bool"
				}
			],
			"payable": false,
			"stateMutability": "view",
			"type": "function"
		},
		{
			"constant": true,
			"inputs": [
				{
					"name": "_sender",
					"type": "address"
				},
				{
					"name": "_theAO",
					"type": "address"
				},
				{
					"name": "_nameTAOPositionAddress",
					"type": "address"
				}
			],
			"name": "isTheAO",
			"outputs": [
				{
					"name": "",
					"type": "bool"
				}
			],
			"payable": false,
			"stateMutability": "view",
			"type": "function"
		},
		{
			"constant": true,
			"inputs": [],
			"name": "PERCENTAGE_DIVISOR",
			"outputs": [
				{
					"name": "",
					"type": "uint256"
				}
			],
			"payable": false,
			"stateMutability": "pure",
			"type": "function"
		},
		{
			"constant": true,
			"inputs": [],
			"name": "MULTIPLIER_DIVISOR",
			"outputs": [
				{
					"name": "",
					"type": "uint256"
				}
			],
			"payable": false,
			"stateMutability": "pure",
			"type": "function"
		},
		{
			"constant": false,
			"inputs": [
				{
					"name": "_name",
					"type": "string"
				},
				{
					"name": "_originId",
					"type": "address"
				},
				{
					"name": "_datHash",
					"type": "string"
				},
				{
					"name": "_database",
					"type": "string"
				},
				{
					"name": "_keyValue",
					"type": "string"
				},
				{
					"name": "_contentId",
					"type": "bytes32"
				},
				{
					"name": "_nameTAOVaultAddress",
					"type": "address"
				}
			],
			"name": "deployTAO",
			"outputs": [
				{
					"name": "_tao",
					"type": "TAO"
				}
			],
			"payable": false,
			"stateMutability": "nonpayable",
			"type": "function"
		},
		{
			"constant": false,
			"inputs": [
				{
					"name": "_name",
					"type": "string"
				},
				{
					"name": "_originId",
					"type": "address"
				},
				{
					"name": "_datHash",
					"type": "string"
				},
				{
					"name": "_database",
					"type": "string"
				},
				{
					"name": "_keyValue",
					"type": "string"
				},
				{
					"name": "_contentId",
					"type": "bytes32"
				},
				{
					"name": "_nameTAOVaultAddress",
					"type": "address"
				}
			],
			"name": "deployName",
			"outputs": [
				{
					"name": "_myName",
					"type": "Name"
				}
			],
			"payable": false,
			"stateMutability": "nonpayable",
			"type": "function"
		},
		{
			"constant": true,
			"inputs": [
				{
					"name": "_currentWeightedMultiplier",
					"type": "uint256"
				},
				{
					"name": "_currentPrimordialBalance",
					"type": "uint256"
				},
				{
					"name": "_additionalWeightedMultiplier",
					"type": "uint256"
				},
				{
					"name": "_additionalPrimordialAmount",
					"type": "uint256"
				}
			],
			"name": "calculateWeightedMultiplier",
			"outputs": [
				{
					"name": "",
					"type": "uint256"
				}
			],
			"payable": false,
			"stateMutability": "pure",
			"type": "function"
		},
		{
			"constant": true,
			"inputs": [
				{
					"name": "_purchaseAmount",
					"type": "uint256"
				},
				{
					"name": "_totalPrimordialMintable",
					"type": "uint256"
				},
				{
					"name": "_totalPrimordialMinted",
					"type": "uint256"
				},
				{
					"name": "_startingMultiplier",
					"type": "uint256"
				},
				{
					"name": "_endingMultiplier",
					"type": "uint256"
				}
			],
			"name": "calculatePrimordialMultiplier",
			"outputs": [
				{
					"name": "",
					"type": "uint256"
				}
			],
			"payable": false,
			"stateMutability": "pure",
			"type": "function"
		},
		{
			"constant": true,
			"inputs": [
				{
					"name": "_purchaseAmount",
					"type": "uint256"
				},
				{
					"name": "_totalPrimordialMintable",
					"type": "uint256"
				},
				{
					"name": "_totalPrimordialMinted",
					"type": "uint256"
				},
				{
					"name": "_startingMultiplier",
					"type": "uint256"
				},
				{
					"name": "_endingMultiplier",
					"type": "uint256"
				}
			],
			"name": "calculateNetworkBonusPercentage",
			"outputs": [
				{
					"name": "",
					"type": "uint256"
				}
			],
			"payable": false,
			"stateMutability": "pure",
			"type": "function"
		},
		{
			"constant": true,
			"inputs": [
				{
					"name": "_purchaseAmount",
					"type": "uint256"
				},
				{
					"name": "_totalPrimordialMintable",
					"type": "uint256"
				},
				{
					"name": "_totalPrimordialMinted",
					"type": "uint256"
				},
				{
					"name": "_startingMultiplier",
					"type": "uint256"
				},
				{
					"name": "_endingMultiplier",
					"type": "uint256"
				}
			],
			"name": "calculateNetworkBonusAmount",
			"outputs": [
				{
					"name": "",
					"type": "uint256"
				}
			],
			"payable": false,
			"stateMutability": "pure",
			"type": "function"
		},
		{
			"constant": true,
			"inputs": [
				{
					"name": "_primordialBalance",
					"type": "uint256"
				},
				{
					"name": "_currentWeightedMultiplier",
					"type": "uint256"
				},
				{
					"name": "_maximumMultiplier",
					"type": "uint256"
				}
			],
			"name": "calculateMaximumBurnAmount",
			"outputs": [
				{
					"name": "",
					"type": "uint256"
				}
			],
			"payable": false,
			"stateMutability": "pure",
			"type": "function"
		},
		{
			"constant": true,
			"inputs": [
				{
					"name": "_primordialBalance",
					"type": "uint256"
				},
				{
					"name": "_currentWeightedMultiplier",
					"type": "uint256"
				},
				{
					"name": "_amountToBurn",
					"type": "uint256"
				}
			],
			"name": "calculateMultiplierAfterBurn",
			"outputs": [
				{
					"name": "",
					"type": "uint256"
				}
			],
			"payable": false,
			"stateMutability": "pure",
			"type": "function"
		},
		{
			"constant": true,
			"inputs": [
				{
					"name": "_primordialBalance",
					"type": "uint256"
				},
				{
					"name": "_currentWeightedMultiplier",
					"type": "uint256"
				},
				{
					"name": "_amountToConvert",
					"type": "uint256"
				}
			],
			"name": "calculateMultiplierAfterConversion",
			"outputs": [
				{
					"name": "",
					"type": "uint256"
				}
			],
			"payable": false,
			"stateMutability": "pure",
			"type": "function"
		},
		{
			"constant": true,
			"inputs": [
				{
					"name": "number",
					"type": "uint256"
				}
			],
			"name": "numDigits",
			"outputs": [
				{
					"name": "",
					"type": "uint8"
				}
			],
			"payable": false,
			"stateMutability": "pure",
			"type": "function"
		}
	],
	"bytecode": "0x612684610030600b82828239805160001a6073146000811461002057610022565bfe5b5030600052607381538281f3fe7300000000000000000000000000000000000000003014608060405260043610620001255760003560e060020a90048063a1e7975011620000b2578063d661dd31116200007c578063d661dd3114620007fb578063db9d28d51462000805578063f66afcac146200083b578063f8e2602514620008765762000125565b8063a1e7975014620002b9578063b49ec3e1146200054c578063c35f4bbb14620007c3578063caf2976514620007fb5762000125565b80634d5a117311620000f45780634d5a117314620001f75780637d3c3ac714620002235780637fbc9c55146200025b5780638cf3313f14620002875762000125565b80632b439a94146200012a5780632d706a3414620001675780632fca5414146200019057806332363e0a14620001b9575b600080fd5b62000153600480360360208110156200014257600080fd5b5035600160a060020a0316620008ae565b604080519115158252519081900360200190f35b62000153600480360360208110156200017f57600080fd5b5035600160a060020a031662000af9565b6200015360048036036020811015620001a857600080fd5b5035600160a060020a031662000cea565b620001e560048036036060811015620001d157600080fd5b508035906020810135906040013562000ed8565b60408051918252519081900360200190f35b620001e5600480360360608110156200020f57600080fd5b508035906020810135906040013562000f17565b620001e5600480360360a08110156200023b57600080fd5b508035906020810135906040810135906060810135906080013562000f53565b620001e5600480360360608110156200027357600080fd5b508035906020810135906040013562001019565b620001e5600480360360808110156200029f57600080fd5b508035906020810135906040810135906060013562001031565b818015620002c657600080fd5b5062000530600480360360e0811015620002df57600080fd5b810190602081018135640100000000811115620002fb57600080fd5b8201836020820111156200030e57600080fd5b803590602001918460018302840111640100000000831117156200033157600080fd5b91908080601f0160208091040260200160405190810160405280939291908181526020018383808284376000920191909152509295600160a060020a038535169590949093506040810192506020013590506401000000008111156200039657600080fd5b820183602082011115620003a957600080fd5b80359060200191846001830284011164010000000083111715620003cc57600080fd5b91908080601f01602080910402602001604051908101604052809392919081815260200183838082843760009201919091525092959493602081019350359150506401000000008111156200042057600080fd5b8201836020820111156200043357600080fd5b803590602001918460018302840111640100000000831117156200045657600080fd5b91908080601f0160208091040260200160405190810160405280939291908181526020018383808284376000920191909152509295949360208101935035915050640100000000811115620004aa57600080fd5b820183602082011115620004bd57600080fd5b80359060200191846001830284011164010000000083111715620004e057600080fd5b91908080601f0160208091040260200160405190810160405280939291908181526020018383808284376000920191909152509295505082359350505060200135600160a060020a0316620010b0565b60408051600160a060020a039092168252519081900360200190f35b8180156200055957600080fd5b5062000530600480360360e08110156200057257600080fd5b8101906020810181356401000000008111156200058e57600080fd5b820183602082011115620005a157600080fd5b80359060200191846001830284011164010000000083111715620005c457600080fd5b91908080601f0160208091040260200160405190810160405280939291908181526020018383808284376000920191909152509295600160a060020a038535169590949093506040810192506020013590506401000000008111156200062957600080fd5b8201836020820111156200063c57600080fd5b803590602001918460018302840111640100000000831117156200065f57600080fd5b91908080601f0160208091040260200160405190810160405280939291908181526020018383808284376000920191909152509295949360208101935035915050640100000000811115620006b357600080fd5b820183602082011115620006c657600080fd5b80359060200191846001830284011164010000000083111715620006e957600080fd5b91908080601f01602080910402602001604051908101604052809392919081815260200183838082843760009201919091525092959493602081019350359150506401000000008111156200073d57600080fd5b8201836020820111156200075057600080fd5b803590602001918460018302840111640100000000831117156200077357600080fd5b91908080601f0160208091040260200160405190810160405280939291908181526020018383808284376000920191909152509295505082359350505060200135600160a060020a0316620012d4565b620001e5600480360360a0811015620007db57600080fd5b5080359060208101359060408101359060608101359060800135620012eb565b620001e562001386565b62000825600480360360208110156200081d57600080fd5b50356200138d565b6040805160ff9092168252519081900360200190f35b62000153600480360360608110156200085357600080fd5b50600160a060020a038135811691602081013582169160409091013516620013b6565b620001e5600480360360a08110156200088e57600080fd5b5080359060208101359060408101359060608101359060800135620014b0565b6000600160a060020a0382161515620008ca5750600062000af4565b6000829050600081600160a060020a03166318160ddd6040518163ffffffff1660e060020a02815260040160206040518083038186803b1580156200090e57600080fd5b505afa15801562000923573d6000803e3d6000fd5b505050506040513d60208110156200093a57600080fd5b50511080159062000a175750600081600160a060020a03166306fdde036040518163ffffffff1660e060020a02815260040160006040518083038186803b1580156200098557600080fd5b505afa1580156200099a573d6000803e3d6000fd5b505050506040513d6000823e601f3d908101601f191682016040526020811015620009c457600080fd5b810190808051640100000000811115620009dd57600080fd5b82016020810184811115620009f157600080fd5b815164010000000081118282018710171562000a0c57600080fd5b505092919050505051115b801562000af05750600081600160a060020a03166395d89b416040518163ffffffff1660e060020a02815260040160006040518083038186803b15801562000a5e57600080fd5b505afa15801562000a73573d6000803e3d6000fd5b505050506040513d6000823e601f3d908101601f19168201604052602081101562000a9d57600080fd5b81019080805164010000000081111562000ab657600080fd5b8201602081018481111562000aca57600080fd5b815164010000000081118282018710171562000ae557600080fd5b505092919050505051115b9150505b919050565b6000600160a060020a0382161580159062000be05750600082600160a060020a03166306fdde036040518163ffffffff1660e060020a02815260040160006040518083038186803b15801562000b4e57600080fd5b505afa15801562000b63573d6000803e3d6000fd5b505050506040513d6000823e601f3d908101601f19168201604052602081101562000b8d57600080fd5b81019080805164010000000081111562000ba657600080fd5b8201602081018481111562000bba57600080fd5b815164010000000081118282018710171562000bd557600080fd5b505092919050505051115b801562000c6a57506000600160a060020a031682600160a060020a03166313866efa6040518163ffffffff1660e060020a02815260040160206040518083038186803b15801562000c3057600080fd5b505afa15801562000c45573d6000803e3d6000fd5b505050506040513d602081101562000c5c57600080fd5b5051600160a060020a031614155b801562000ce4575081600160a060020a0316638f940f636040518163ffffffff1660e060020a02815260040160206040518083038186803b15801562000caf57600080fd5b505afa15801562000cc4573d6000803e3d6000fd5b505050506040513d602081101562000cdb57600080fd5b505160ff166001145b92915050565b6000600160a060020a0382161580159062000dd15750600082600160a060020a03166306fdde036040518163ffffffff1660e060020a02815260040160006040518083038186803b15801562000d3f57600080fd5b505afa15801562000d54573d6000803e3d6000fd5b505050506040513d6000823e601f3d908101601f19168201604052602081101562000d7e57600080fd5b81019080805164010000000081111562000d9757600080fd5b8201602081018481111562000dab57600080fd5b815164010000000081118282018710171562000dc657600080fd5b505092919050505051115b801562000e5b57506000600160a060020a031682600160a060020a03166313866efa6040518163ffffffff1660e060020a02815260040160206040518083038186803b15801562000e2157600080fd5b505afa15801562000e36573d6000803e3d6000fd5b505050506040513d602081101562000e4d57600080fd5b5051600160a060020a031614155b801562000ce4575081600160a060020a0316638f940f636040518163ffffffff1660e060020a02815260040160206040518083038186803b15801562000ea057600080fd5b505afa15801562000eb5573d6000803e3d6000fd5b505050506040513d602081101562000ecc57600080fd5b505160ff161592915050565b600062000f0f62000ef0858463ffffffff620014ec16565b62000f02868663ffffffff620014ff16565b9063ffffffff6200152c16565b949350505050565b600062000f0f8262000f0262000f34878763ffffffff620014ff16565b62000f46868963ffffffff620014ff16565b9063ffffffff620014ec16565b6000808611801562000f76575062000f72858563ffffffff620014ec16565b8611155b156200100c57600062000fa362000f9588600263ffffffff6200152c16565b869063ffffffff6200154216565b9050600062001001620f424062000f0262000fc5888863ffffffff620014ec16565b62000ff462000fe38c62000f02620f42408a63ffffffff620014ff16565b620f42409063ffffffff620014ec16565b9063ffffffff620014ff16565b925062001010915050565b5060005b95945050505050565b600062000f0f62000ef0858463ffffffff6200154216565b600080851115620010a75760006200107362001054858563ffffffff620014ff16565b62001066888863ffffffff620014ff16565b9063ffffffff6200154216565b9050600062001089868563ffffffff6200154216565b90506200109d828263ffffffff6200152c16565b9250505062000f0f565b50909392505050565b600087878787878787604051620010c79062001550565b808060200188600160a060020a0316600160a060020a0316815260200180602001806020018060200187815260200186600160a060020a0316600160a060020a0316815260200185810385528c818151815260200191508051906020019080838360005b83811015620011455781810151838201526020016200112b565b50505050905090810190601f168015620011735780820380516001836020036101000a031916815260200191505b5085810384528a5181528a516020918201918c019080838360005b83811015620011a85781810151838201526020016200118e565b50505050905090810190601f168015620011d65780820380516001836020036101000a031916815260200191505b5085810383528951815289516020918201918b019080838360005b838110156200120b578181015183820152602001620011f1565b50505050905090810190601f168015620012395780820380516001836020036101000a031916815260200191505b5085810382528851815288516020918201918a019080838360005b838110156200126e57818101518382015260200162001254565b50505050905090810190601f1680156200129c5780820380516001836020036101000a031916815260200191505b509b505050505050505050505050604051809103906000f080158015620012c7573d6000803e3d6000fd5b5098975050505050505050565b600087878787878787604051620010c7906200155e565b600080861180156200130e57506200130a858563ffffffff620014ec16565b8611155b156200100c5760006200132d62000f9588600263ffffffff6200152c16565b905060006200136562001347868663ffffffff620014ec16565b62000ff462000fe38a62000f02620f42408863ffffffff620014ff16565b90506200137c81620f424063ffffffff6200152c16565b9250505062001010565b620f424090565b6000805b821562000ce457620013ab83600a63ffffffff6200152c16565b925060010162001391565b600082600160a060020a031684600160a060020a0316148062000f0f5750620013df8362000cea565b80620013f15750620013f18362000af9565b8015620014065750600160a060020a03821615155b801562000f0f5750604080517f71ce52ed000000000000000000000000000000000000000000000000000000008152600160a060020a03868116600483015285811660248301529151918416916371ce52ed91604480820192602092909190829003018186803b1580156200147a57600080fd5b505afa1580156200148f573d6000803e3d6000fd5b505050506040513d6020811015620014a657600080fd5b5051949350505050565b600080620014c2878787878762000f53565b90506000620014e0620f424062000f02848b63ffffffff620014ff16565b98975050505050505050565b600082821115620014f957fe5b50900390565b6000821515620015125750600062000ce4565b508181028183828115156200152357fe5b041462000ce457fe5b600081838115156200153a57fe5b049392505050565b8181018281101562000ce457fe5b610884806200156d83390190565b6108688062001df18339019056fe608060405234801561001057600080fd5b50604051610884380380610884833981018060405260e081101561003357600080fd5b81019080805164010000000081111561004b57600080fd5b8201602081018481111561005e57600080fd5b815164010000000081118282018710171561007857600080fd5b5050602082015160409092018051919492939164010000000081111561009d57600080fd5b820160208101848111156100b057600080fd5b81516401000000008111828201871017156100ca57600080fd5b505092919060200180516401000000008111156100e657600080fd5b820160208101848111156100f957600080fd5b815164010000000081118282018710171561011357600080fd5b5050929190602001805164010000000081111561012f57600080fd5b8201602081018481111561014257600080fd5b815164010000000081118282018710171561015c57600080fd5b50506020808301516040909301518951929550929350889188918891889188918891889161019091600191908a019061022f565b5060028054600160a060020a031916600160a060020a03881617905584516101bf90600390602088019061022f565b5083516101d390600490602087019061022f565b5082516101e790600590602086019061022f565b506006919091556007805460008054600160a060020a031916600160a060020a039094169390931790925560ff199091166001179055506102ca9a5050505050505050505050565b828054600181600116156101000203166002900490600052602060002090601f016020900481019282601f1061027057805160ff191683800117855561029d565b8280016001018555821561029d579182015b8281111561029d578251825591602001919060010190610282565b506102a99291506102ad565b5090565b6102c791905b808211156102a957600081556001016102b3565b90565b6105ab806102d96000396000f3fe6080604052600436106100ae576000357c0100000000000000000000000000000000000000000000000000000000900480638f940f63116100765780638f940f63146101aa5780639db5dbe4146101d5578063a727be571461022c578063d97aa97714610241578063e9bb84c214610268576100ae565b806305684790146100b057806306fdde031461013a57806313866efa1461014f578063430bf08a14610180578063713b563f14610195575b005b3480156100bc57600080fd5b506100c56102a1565b6040805160208082528351818301528351919283929083019185019080838360005b838110156100ff5781810151838201526020016100e7565b50505050905090810190601f16801561012c5780820380516001836020036101000a031916815260200191505b509250505060405180910390f35b34801561014657600080fd5b506100c561032f565b34801561015b57600080fd5b50610164610389565b60408051600160a060020a039092168252519081900360200190f35b34801561018c57600080fd5b50610164610398565b3480156101a157600080fd5b506100c56103a7565b3480156101b657600080fd5b506101bf610402565b6040805160ff9092168252519081900360200190f35b3480156101e157600080fd5b50610218600480360360608110156101f857600080fd5b50600160a060020a0381358116916020810135909116906040013561040b565b604080519115158252519081900360200190f35b34801561023857600080fd5b506100c56104c6565b34801561024d57600080fd5b50610256610521565b60408051918252519081900360200190f35b34801561027457600080fd5b506102186004803603604081101561028b57600080fd5b50600160a060020a038135169060200135610527565b6003805460408051602060026001851615610100026000190190941693909304601f810184900484028201840190925281815292918301828280156103275780601f106102fc57610100808354040283529160200191610327565b820191906000526020600020905b81548152906001019060200180831161030a57829003601f168201915b505050505081565b60018054604080516020600284861615610100026000190190941693909304601f810184900484028201840190925281815292918301828280156103275780601f106102fc57610100808354040283529160200191610327565b600254600160a060020a031681565b600054600160a060020a031681565b6004805460408051602060026001851615610100026000190190941693909304601f810184900484028201840190925281815292918301828280156103275780601f106102fc57610100808354040283529160200191610327565b60075460ff1681565b60008054600160a060020a0316331461042357600080fd5b604080517fa9059cbb000000000000000000000000000000000000000000000000000000008152600160a060020a038581166004830152602482018590529151869283169163a9059cbb9160448083019260209291908290030181600087803b15801561048f57600080fd5b505af11580156104a3573d6000803e3d6000fd5b505050506040513d60208110156104b957600080fd5b5060019695505050505050565b6005805460408051602060026001851615610100026000190190941693909304601f810184900484028201840190925281815292918301828280156103275780601f106102fc57610100808354040283529160200191610327565b60065481565b60008054600160a060020a0316331461053f57600080fd5b604051600160a060020a0384169083156108fc029084906000818181858888f19350505050158015610575573d6000803e3d6000fd5b506001939250505056fea165627a7a72305820f9609ae5865ebbb2215957cf28e7f9f09d3837bb11775f4f6884d84f5c79febb0029608060405234801561001057600080fd5b50604051610868380380610868833981018060405260e081101561003357600080fd5b81019080805164010000000081111561004b57600080fd5b8201602081018481111561005e57600080fd5b815164010000000081118282018710171561007857600080fd5b5050602082015160409092018051919492939164010000000081111561009d57600080fd5b820160208101848111156100b057600080fd5b81516401000000008111828201871017156100ca57600080fd5b505092919060200180516401000000008111156100e657600080fd5b820160208101848111156100f957600080fd5b815164010000000081118282018710171561011357600080fd5b5050929190602001805164010000000081111561012f57600080fd5b8201602081018481111561014257600080fd5b815164010000000081118282018710171561015c57600080fd5b50506020808301516040909301518951929550929350610181916001918a0190610213565b5060028054600160a060020a031916600160a060020a03881617905584516101b0906003906020880190610213565b5083516101c4906004906020870190610213565b5082516101d8906005906020860190610213565b506006919091556007805460ff1916905560008054600160a060020a031916600160a060020a03909216919091179055506102ae9350505050565b828054600181600116156101000203166002900490600052602060002090601f016020900481019282601f1061025457805160ff1916838001178555610281565b82800160010185558215610281579182015b82811115610281578251825591602001919060010190610266565b5061028d929150610291565b5090565b6102ab91905b8082111561028d5760008155600101610297565b90565b6105ab806102bd6000396000f3fe6080604052600436106100ae576000357c0100000000000000000000000000000000000000000000000000000000900480638f940f63116100765780638f940f63146101aa5780639db5dbe4146101d5578063a727be571461022c578063d97aa97714610241578063e9bb84c214610268576100ae565b806305684790146100b057806306fdde031461013a57806313866efa1461014f578063430bf08a14610180578063713b563f14610195575b005b3480156100bc57600080fd5b506100c56102a1565b6040805160208082528351818301528351919283929083019185019080838360005b838110156100ff5781810151838201526020016100e7565b50505050905090810190601f16801561012c5780820380516001836020036101000a031916815260200191505b509250505060405180910390f35b34801561014657600080fd5b506100c561032f565b34801561015b57600080fd5b50610164610389565b60408051600160a060020a039092168252519081900360200190f35b34801561018c57600080fd5b50610164610398565b3480156101a157600080fd5b506100c56103a7565b3480156101b657600080fd5b506101bf610402565b6040805160ff9092168252519081900360200190f35b3480156101e157600080fd5b50610218600480360360608110156101f857600080fd5b50600160a060020a0381358116916020810135909116906040013561040b565b604080519115158252519081900360200190f35b34801561023857600080fd5b506100c56104c6565b34801561024d57600080fd5b50610256610521565b60408051918252519081900360200190f35b34801561027457600080fd5b506102186004803603604081101561028b57600080fd5b50600160a060020a038135169060200135610527565b6003805460408051602060026001851615610100026000190190941693909304601f810184900484028201840190925281815292918301828280156103275780601f106102fc57610100808354040283529160200191610327565b820191906000526020600020905b81548152906001019060200180831161030a57829003601f168201915b505050505081565b60018054604080516020600284861615610100026000190190941693909304601f810184900484028201840190925281815292918301828280156103275780601f106102fc57610100808354040283529160200191610327565b600254600160a060020a031681565b600054600160a060020a031681565b6004805460408051602060026001851615610100026000190190941693909304601f810184900484028201840190925281815292918301828280156103275780601f106102fc57610100808354040283529160200191610327565b60075460ff1681565b60008054600160a060020a0316331461042357600080fd5b604080517fa9059cbb000000000000000000000000000000000000000000000000000000008152600160a060020a038581166004830152602482018590529151869283169163a9059cbb9160448083019260209291908290030181600087803b15801561048f57600080fd5b505af11580156104a3573d6000803e3d6000fd5b505050506040513d60208110156104b957600080fd5b5060019695505050505050565b6005805460408051602060026001851615610100026000190190941693909304601f810184900484028201840190925281815292918301828280156103275780601f106102fc57610100808354040283529160200191610327565b60065481565b60008054600160a060020a0316331461053f57600080fd5b604051600160a060020a0384169083156108fc029084906000818181858888f19350505050158015610575573d6000803e3d6000fd5b506001939250505056fea165627a7a723058204228c1386aa6932b502b2028e5ca649e21257dbf7d89f0fb66a422a8fa362c550029a165627a7a723058202c5f9f44682e437247213c46152f3995c79b8ca30dd4b0a1c605a11e962164f70029",
	"source": "pragma solidity >=0.5.4 <0.6.0;\n\nimport './SafeMath.sol';\nimport './TAO.sol';\nimport './Name.sol';\nimport './INameTAOPosition.sol';\nimport './TokenERC20.sol';\n\n/**\n * @title AOLibrary\n */\nlibrary AOLibrary {\n\tusing SafeMath for uint256;\n\n\tuint256 constant private _MULTIPLIER_DIVISOR = 10 ** 6; // 1000000 = 1\n\tuint256 constant private _PERCENTAGE_DIVISOR = 10 ** 6; // 100% = 1000000\n\n\t/**\n\t * @dev Check whether or not the given TAO ID is a TAO\n\t * @param _taoId The ID of the TAO\n\t * @return true if yes. false otherwise\n\t */\n\tfunction isTAO(address _taoId) public view returns (bool) {\n\t\treturn (_taoId != address(0) && bytes(TAO(address(uint160(_taoId))).name()).length > 0 && TAO(address(uint160(_taoId))).originId() != address(0) && TAO(address(uint160(_taoId))).typeId() == 0);\n\t}\n\n\t/**\n\t * @dev Check whether or not the given Name ID is a Name\n\t * @param _nameId The ID of the Name\n\t * @return true if yes. false otherwise\n\t */\n\tfunction isName(address _nameId) public view returns (bool) {\n\t\treturn (_nameId != address(0) && bytes(TAO(address(uint160(_nameId))).name()).length > 0 && Name(address(uint160(_nameId))).originId() != address(0) && Name(address(uint160(_nameId))).typeId() == 1);\n\t}\n\n\t/**\n\t * @dev Check if `_tokenAddress` is a valid ERC20 Token address\n\t * @param _tokenAddress The ERC20 Token address to check\n\t */\n\tfunction isValidERC20TokenAddress(address _tokenAddress) public view returns (bool) {\n\t\tif (_tokenAddress == address(0)) {\n\t\t\treturn false;\n\t\t}\n\t\tTokenERC20 _erc20 = TokenERC20(_tokenAddress);\n\t\treturn (_erc20.totalSupply() >= 0 && bytes(_erc20.name()).length > 0 && bytes(_erc20.symbol()).length > 0);\n\t}\n\n\t/**\n\t * @dev Checks if the calling contract address is The AO\n\t *\t\tOR\n\t *\t\tIf The AO is set to a Name/TAO, then check if calling address is the Advocate\n\t * @param _sender The address to check\n\t * @param _theAO The AO address\n\t * @param _nameTAOPositionAddress The address of NameTAOPosition\n\t * @return true if yes, false otherwise\n\t */\n\tfunction isTheAO(address _sender, address _theAO, address _nameTAOPositionAddress) public view returns (bool) {\n\t\treturn (_sender == _theAO ||\n\t\t\t(\n\t\t\t\t(isTAO(_theAO) || isName(_theAO)) &&\n\t\t\t\t_nameTAOPositionAddress != address(0) &&\n\t\t\t\tINameTAOPosition(_nameTAOPositionAddress).senderIsAdvocate(_sender, _theAO)\n\t\t\t)\n\t\t);\n\t}\n\n\t/**\n\t * @dev Return the divisor used to correctly calculate percentage.\n\t *\t\tPercentage stored throughout AO contracts covers 4 decimals,\n\t *\t\tso 1% is 10000, 1.25% is 12500, etc\n\t */\n\tfunction PERCENTAGE_DIVISOR() public pure returns (uint256) {\n\t\treturn _PERCENTAGE_DIVISOR;\n\t}\n\n\t/**\n\t * @dev Return the divisor used to correctly calculate multiplier.\n\t *\t\tMultiplier stored throughout AO contracts covers 6 decimals,\n\t *\t\tso 1 is 1000000, 0.023 is 23000, etc\n\t */\n\tfunction MULTIPLIER_DIVISOR() public pure returns (uint256) {\n\t\treturn _MULTIPLIER_DIVISOR;\n\t}\n\n\t/**\n\t * @dev deploy a TAO\n\t * @param _name The name of the TAO\n\t * @param _originId The Name ID the creates the TAO\n\t * @param _datHash The datHash of this TAO\n\t * @param _database The database for this TAO\n\t * @param _keyValue The key/value pair to be checked on the database\n\t * @param _contentId The contentId related to this TAO\n\t * @param _nameTAOVaultAddress The address of NameTAOVault\n\t */\n\tfunction deployTAO(string memory _name,\n\t\taddress _originId,\n\t\tstring memory _datHash,\n\t\tstring memory _database,\n\t\tstring memory _keyValue,\n\t\tbytes32 _contentId,\n\t\taddress _nameTAOVaultAddress\n\t\t) public returns (TAO _tao) {\n\t\t_tao = new TAO(_name, _originId, _datHash, _database, _keyValue, _contentId, _nameTAOVaultAddress);\n\t}\n\n\t/**\n\t * @dev deploy a Name\n\t * @param _name The name of the Name\n\t * @param _originId The eth address the creates the Name\n\t * @param _datHash The datHash of this Name\n\t * @param _database The database for this Name\n\t * @param _keyValue The key/value pair to be checked on the database\n\t * @param _contentId The contentId related to this Name\n\t * @param _nameTAOVaultAddress The address of NameTAOVault\n\t */\n\tfunction deployName(string memory _name,\n\t\taddress _originId,\n\t\tstring memory _datHash,\n\t\tstring memory _database,\n\t\tstring memory _keyValue,\n\t\tbytes32 _contentId,\n\t\taddress _nameTAOVaultAddress\n\t\t) public returns (Name _myName) {\n\t\t_myName = new Name(_name, _originId, _datHash, _database, _keyValue, _contentId, _nameTAOVaultAddress);\n\t}\n\n\t/**\n\t * @dev Calculate the new weighted multiplier when adding `_additionalPrimordialAmount` at `_additionalWeightedMultiplier` to the current `_currentPrimordialBalance` at `_currentWeightedMultiplier`\n\t * @param _currentWeightedMultiplier Account's current weighted multiplier\n\t * @param _currentPrimordialBalance Account's current primordial ion balance\n\t * @param _additionalWeightedMultiplier The weighted multiplier to be added\n\t * @param _additionalPrimordialAmount The primordial ion amount to be added\n\t * @return the new primordial weighted multiplier\n\t */\n\tfunction calculateWeightedMultiplier(uint256 _currentWeightedMultiplier, uint256 _currentPrimordialBalance, uint256 _additionalWeightedMultiplier, uint256 _additionalPrimordialAmount) public pure returns (uint256) {\n\t\tif (_currentWeightedMultiplier > 0) {\n\t\t\tuint256 _totalWeightedIons = (_currentWeightedMultiplier.mul(_currentPrimordialBalance)).add(_additionalWeightedMultiplier.mul(_additionalPrimordialAmount));\n\t\t\tuint256 _totalIons = _currentPrimordialBalance.add(_additionalPrimordialAmount);\n\t\t\treturn _totalWeightedIons.div(_totalIons);\n\t\t} else {\n\t\t\treturn _additionalWeightedMultiplier;\n\t\t}\n\t}\n\n\t/**\n\t * @dev Calculate the primordial ion multiplier on a given lot\n\t *\t\tTotal Primordial Mintable = T\n\t *\t\tTotal Primordial Minted = M\n\t *\t\tStarting Multiplier = S\n\t *\t\tEnding Multiplier = E\n\t *\t\tTo Purchase = P\n\t *\t\tMultiplier for next Lot of Amount = (1 - ((M + P/2) / T)) x (S-E)\n\t *\n\t * @param _purchaseAmount The amount of primordial ion intended to be purchased\n\t * @param _totalPrimordialMintable Total Primordial ion mintable\n\t * @param _totalPrimordialMinted Total Primordial ion minted so far\n\t * @param _startingMultiplier The starting multiplier in (10 ** 6)\n\t * @param _endingMultiplier The ending multiplier in (10 ** 6)\n\t * @return The multiplier in (10 ** 6)\n\t */\n\tfunction calculatePrimordialMultiplier(uint256 _purchaseAmount, uint256 _totalPrimordialMintable, uint256 _totalPrimordialMinted, uint256 _startingMultiplier, uint256 _endingMultiplier) public pure returns (uint256) {\n\t\tif (_purchaseAmount > 0 && _purchaseAmount <= _totalPrimordialMintable.sub(_totalPrimordialMinted)) {\n\t\t\t/**\n\t\t\t * Let temp = M + (P/2)\n\t\t\t * Multiplier = (1 - (temp / T)) x (S-E)\n\t\t\t */\n\t\t\tuint256 temp = _totalPrimordialMinted.add(_purchaseAmount.div(2));\n\n\t\t\t/**\n\t\t\t * Multiply multiplier with _MULTIPLIER_DIVISOR/_MULTIPLIER_DIVISOR to account for 6 decimals\n\t\t\t * so, Multiplier = (_MULTIPLIER_DIVISOR/_MULTIPLIER_DIVISOR) * (1 - (temp / T)) * (S-E)\n\t\t\t * Multiplier = ((_MULTIPLIER_DIVISOR * (1 - (temp / T))) * (S-E)) / _MULTIPLIER_DIVISOR\n\t\t\t * Multiplier = ((_MULTIPLIER_DIVISOR - ((_MULTIPLIER_DIVISOR * temp) / T)) * (S-E)) / _MULTIPLIER_DIVISOR\n\t\t\t * Take out the division by _MULTIPLIER_DIVISOR for now and include in later calculation\n\t\t\t * Multiplier = (_MULTIPLIER_DIVISOR - ((_MULTIPLIER_DIVISOR * temp) / T)) * (S-E)\n\t\t\t */\n\t\t\tuint256 multiplier = (_MULTIPLIER_DIVISOR.sub(_MULTIPLIER_DIVISOR.mul(temp).div(_totalPrimordialMintable))).mul(_startingMultiplier.sub(_endingMultiplier));\n\t\t\t/**\n\t\t\t * Since _startingMultiplier and _endingMultiplier are in 6 decimals\n\t\t\t * Need to divide multiplier by _MULTIPLIER_DIVISOR\n\t\t\t */\n\t\t\treturn multiplier.div(_MULTIPLIER_DIVISOR);\n\t\t} else {\n\t\t\treturn 0;\n\t\t}\n\t}\n\n\t/**\n\t * @dev Calculate the bonus percentage of network ion on a given lot\n\t *\t\tTotal Primordial Mintable = T\n\t *\t\tTotal Primordial Minted = M\n\t *\t\tStarting Network Bonus Multiplier = Bs\n\t *\t\tEnding Network Bonus Multiplier = Be\n\t *\t\tTo Purchase = P\n\t *\t\tAO Bonus % = B% = (1 - ((M + P/2) / T)) x (Bs-Be)\n\t *\n\t * @param _purchaseAmount The amount of primordial ion intended to be purchased\n\t * @param _totalPrimordialMintable Total Primordial ion intable\n\t * @param _totalPrimordialMinted Total Primordial ion minted so far\n\t * @param _startingMultiplier The starting Network ion bonus multiplier\n\t * @param _endingMultiplier The ending Network ion bonus multiplier\n\t * @return The bonus percentage\n\t */\n\tfunction calculateNetworkBonusPercentage(uint256 _purchaseAmount, uint256 _totalPrimordialMintable, uint256 _totalPrimordialMinted, uint256 _startingMultiplier, uint256 _endingMultiplier) public pure returns (uint256) {\n\t\tif (_purchaseAmount > 0 && _purchaseAmount <= _totalPrimordialMintable.sub(_totalPrimordialMinted)) {\n\t\t\t/**\n\t\t\t * Let temp = M + (P/2)\n\t\t\t * B% = (1 - (temp / T)) x (Bs-Be)\n\t\t\t */\n\t\t\tuint256 temp = _totalPrimordialMinted.add(_purchaseAmount.div(2));\n\n\t\t\t/**\n\t\t\t * Multiply B% with _PERCENTAGE_DIVISOR/_PERCENTAGE_DIVISOR to account for 6 decimals\n\t\t\t * so, B% = (_PERCENTAGE_DIVISOR/_PERCENTAGE_DIVISOR) * (1 - (temp / T)) * (Bs-Be)\n\t\t\t * B% = ((_PERCENTAGE_DIVISOR * (1 - (temp / T))) * (Bs-Be)) / _PERCENTAGE_DIVISOR\n\t\t\t * B% = ((_PERCENTAGE_DIVISOR - ((_PERCENTAGE_DIVISOR * temp) / T)) * (Bs-Be)) / _PERCENTAGE_DIVISOR\n\t\t\t * Take out the division by _PERCENTAGE_DIVISOR for now and include in later calculation\n\t\t\t * B% = (_PERCENTAGE_DIVISOR - ((_PERCENTAGE_DIVISOR * temp) / T)) * (Bs-Be)\n\t\t\t * But since Bs and Be are in 6 decimals, need to divide by _PERCENTAGE_DIVISOR\n\t\t\t * B% = (_PERCENTAGE_DIVISOR - ((_PERCENTAGE_DIVISOR * temp) / T)) * (Bs-Be) / _PERCENTAGE_DIVISOR\n\t\t\t */\n\t\t\tuint256 bonusPercentage = (_PERCENTAGE_DIVISOR.sub(_PERCENTAGE_DIVISOR.mul(temp).div(_totalPrimordialMintable))).mul(_startingMultiplier.sub(_endingMultiplier)).div(_PERCENTAGE_DIVISOR);\n\t\t\treturn bonusPercentage;\n\t\t} else {\n\t\t\treturn 0;\n\t\t}\n\t}\n\n\t/**\n\t * @dev Calculate the bonus amount of network ion on a given lot\n\t *\t\tAO Bonus Amount = B% x P\n\t *\n\t * @param _purchaseAmount The amount of primordial ion intended to be purchased\n\t * @param _totalPrimordialMintable Total Primordial ion intable\n\t * @param _totalPrimordialMinted Total Primordial ion minted so far\n\t * @param _startingMultiplier The starting Network ion bonus multiplier\n\t * @param _endingMultiplier The ending Network ion bonus multiplier\n\t * @return The bonus percentage\n\t */\n\tfunction calculateNetworkBonusAmount(uint256 _purchaseAmount, uint256 _totalPrimordialMintable, uint256 _totalPrimordialMinted, uint256 _startingMultiplier, uint256 _endingMultiplier) public pure returns (uint256) {\n\t\tuint256 bonusPercentage = calculateNetworkBonusPercentage(_purchaseAmount, _totalPrimordialMintable, _totalPrimordialMinted, _startingMultiplier, _endingMultiplier);\n\t\t/**\n\t\t * Since bonusPercentage is in _PERCENTAGE_DIVISOR format, need to divide it with _PERCENTAGE DIVISOR\n\t\t * when calculating the network ion bonus amount\n\t\t */\n\t\tuint256 networkBonus = bonusPercentage.mul(_purchaseAmount).div(_PERCENTAGE_DIVISOR);\n\t\treturn networkBonus;\n\t}\n\n\t/**\n\t * @dev Calculate the maximum amount of Primordial an account can burn\n\t *\t\t_primordialBalance = P\n\t *\t\t_currentWeightedMultiplier = M\n\t *\t\t_maximumMultiplier = S\n\t *\t\t_amountToBurn = B\n\t *\t\tB = ((S x P) - (P x M)) / S\n\t *\n\t * @param _primordialBalance Account's primordial ion balance\n\t * @param _currentWeightedMultiplier Account's current weighted multiplier\n\t * @param _maximumMultiplier The maximum multiplier of this account\n\t * @return The maximum burn amount\n\t */\n\tfunction calculateMaximumBurnAmount(uint256 _primordialBalance, uint256 _currentWeightedMultiplier, uint256 _maximumMultiplier) public pure returns (uint256) {\n\t\treturn (_maximumMultiplier.mul(_primordialBalance).sub(_primordialBalance.mul(_currentWeightedMultiplier))).div(_maximumMultiplier);\n\t}\n\n\t/**\n\t * @dev Calculate the new multiplier after burning primordial ion\n\t *\t\t_primordialBalance = P\n\t *\t\t_currentWeightedMultiplier = M\n\t *\t\t_amountToBurn = B\n\t *\t\t_newMultiplier = E\n\t *\t\tE = (P x M) / (P - B)\n\t *\n\t * @param _primordialBalance Account's primordial ion balance\n\t * @param _currentWeightedMultiplier Account's current weighted multiplier\n\t * @param _amountToBurn The amount of primordial ion to burn\n\t * @return The new multiplier\n\t */\n\tfunction calculateMultiplierAfterBurn(uint256 _primordialBalance, uint256 _currentWeightedMultiplier, uint256 _amountToBurn) public pure returns (uint256) {\n\t\treturn _primordialBalance.mul(_currentWeightedMultiplier).div(_primordialBalance.sub(_amountToBurn));\n\t}\n\n\t/**\n\t * @dev Calculate the new multiplier after converting network ion to primordial ion\n\t *\t\t_primordialBalance = P\n\t *\t\t_currentWeightedMultiplier = M\n\t *\t\t_amountToConvert = C\n\t *\t\t_newMultiplier = E\n\t *\t\tE = (P x M) / (P + C)\n\t *\n\t * @param _primordialBalance Account's primordial ion balance\n\t * @param _currentWeightedMultiplier Account's current weighted multiplier\n\t * @param _amountToConvert The amount of network ion to convert\n\t * @return The new multiplier\n\t */\n\tfunction calculateMultiplierAfterConversion(uint256 _primordialBalance, uint256 _currentWeightedMultiplier, uint256 _amountToConvert) public pure returns (uint256) {\n\t\treturn _primordialBalance.mul(_currentWeightedMultiplier).div(_primordialBalance.add(_amountToConvert));\n\t}\n\n\t/**\n\t * @dev count num of digits\n\t * @param number uint256 of the nuumber to be checked\n\t * @return uint8 num of digits\n\t */\n\tfunction numDigits(uint256 number) public pure returns (uint8) {\n\t\tuint8 digits = 0;\n\t\twhile(number != 0) {\n\t\t\tnumber = number.div(10);\n\t\t\tdigits++;\n\t\t}\n\t\treturn digits;\n\t}\n}\n",
	"sourcePath": "/home/jmulyono/ao-contracts/contracts/AOLibrary.sol",
	"compiler": {
		"name": "solc",
		"version": "0.5.4+commit.9549d8ff.Emscripten.clang"
	},
	"schemaVersion": "3.0.9",
	"updatedAt": "2019-05-21T06:22:07.792Z",
	"devdoc": {
		"methods": {
			"MULTIPLIER_DIVISOR()": {
				"details": "Return the divisor used to correctly calculate multiplier.\tMultiplier stored throughout AO contracts covers 6 decimals,\tso 1 is 1000000, 0.023 is 23000, etc"
			},
			"PERCENTAGE_DIVISOR()": {
				"details": "Return the divisor used to correctly calculate percentage.\tPercentage stored throughout AO contracts covers 4 decimals,\tso 1% is 10000, 1.25% is 12500, etc"
			},
			"calculateMaximumBurnAmount(uint256,uint256,uint256)": {
				"details": "Calculate the maximum amount of Primordial an account can burn\t_primordialBalance = P\t_currentWeightedMultiplier = M\t_maximumMultiplier = S\t_amountToBurn = B\tB = ((S x P) - (P x M)) / S",
				"params": {
					"_currentWeightedMultiplier": "Account's current weighted multiplier",
					"_maximumMultiplier": "The maximum multiplier of this account",
					"_primordialBalance": "Account's primordial ion balance"
				},
				"return": "The maximum burn amount"
			},
			"calculateMultiplierAfterBurn(uint256,uint256,uint256)": {
				"details": "Calculate the new multiplier after burning primordial ion\t_primordialBalance = P\t_currentWeightedMultiplier = M\t_amountToBurn = B\t_newMultiplier = E\tE = (P x M) / (P - B)",
				"params": {
					"_amountToBurn": "The amount of primordial ion to burn",
					"_currentWeightedMultiplier": "Account's current weighted multiplier",
					"_primordialBalance": "Account's primordial ion balance"
				},
				"return": "The new multiplier"
			},
			"calculateMultiplierAfterConversion(uint256,uint256,uint256)": {
				"details": "Calculate the new multiplier after converting network ion to primordial ion\t_primordialBalance = P\t_currentWeightedMultiplier = M\t_amountToConvert = C\t_newMultiplier = E\tE = (P x M) / (P + C)",
				"params": {
					"_amountToConvert": "The amount of network ion to convert",
					"_currentWeightedMultiplier": "Account's current weighted multiplier",
					"_primordialBalance": "Account's primordial ion balance"
				},
				"return": "The new multiplier"
			},
			"calculateNetworkBonusAmount(uint256,uint256,uint256,uint256,uint256)": {
				"details": "Calculate the bonus amount of network ion on a given lot\tAO Bonus Amount = B% x P",
				"params": {
					"_endingMultiplier": "The ending Network ion bonus multiplier",
					"_purchaseAmount": "The amount of primordial ion intended to be purchased",
					"_startingMultiplier": "The starting Network ion bonus multiplier",
					"_totalPrimordialMintable": "Total Primordial ion intable",
					"_totalPrimordialMinted": "Total Primordial ion minted so far"
				},
				"return": "The bonus percentage"
			},
			"calculateNetworkBonusPercentage(uint256,uint256,uint256,uint256,uint256)": {
				"details": "Calculate the bonus percentage of network ion on a given lot\tTotal Primordial Mintable = T\tTotal Primordial Minted = M\tStarting Network Bonus Multiplier = Bs\tEnding Network Bonus Multiplier = Be\tTo Purchase = P\tAO Bonus % = B% = (1 - ((M + P/2) / T)) x (Bs-Be)",
				"params": {
					"_endingMultiplier": "The ending Network ion bonus multiplier",
					"_purchaseAmount": "The amount of primordial ion intended to be purchased",
					"_startingMultiplier": "The starting Network ion bonus multiplier",
					"_totalPrimordialMintable": "Total Primordial ion intable",
					"_totalPrimordialMinted": "Total Primordial ion minted so far"
				},
				"return": "The bonus percentage"
			},
			"calculatePrimordialMultiplier(uint256,uint256,uint256,uint256,uint256)": {
				"details": "Calculate the primordial ion multiplier on a given lot\tTotal Primordial Mintable = T\tTotal Primordial Minted = M\tStarting Multiplier = S\tEnding Multiplier = E\tTo Purchase = P\tMultiplier for next Lot of Amount = (1 - ((M + P/2) / T)) x (S-E)",
				"params": {
					"_endingMultiplier": "The ending multiplier in (10 ** 6)",
					"_purchaseAmount": "The amount of primordial ion intended to be purchased",
					"_startingMultiplier": "The starting multiplier in (10 ** 6)",
					"_totalPrimordialMintable": "Total Primordial ion mintable",
					"_totalPrimordialMinted": "Total Primordial ion minted so far"
				},
				"return": "The multiplier in (10 ** 6)"
			},
			"calculateWeightedMultiplier(uint256,uint256,uint256,uint256)": {
				"details": "Calculate the new weighted multiplier when adding `_additionalPrimordialAmount` at `_additionalWeightedMultiplier` to the current `_currentPrimordialBalance` at `_currentWeightedMultiplier`",
				"params": {
					"_additionalPrimordialAmount": "The primordial ion amount to be added",
					"_additionalWeightedMultiplier": "The weighted multiplier to be added",
					"_currentPrimordialBalance": "Account's current primordial ion balance",
					"_currentWeightedMultiplier": "Account's current weighted multiplier"
				},
				"return": "the new primordial weighted multiplier"
			},
			"deployName(string,address,string,string,string,bytes32,address)": {
				"details": "deploy a Name",
				"params": {
					"_contentId": "The contentId related to this Name",
					"_datHash": "The datHash of this Name",
					"_database": "The database for this Name",
					"_keyValue": "The key/value pair to be checked on the database",
					"_name": "The name of the Name",
					"_nameTAOVaultAddress": "The address of NameTAOVault",
					"_originId": "The eth address the creates the Name"
				}
			},
			"deployTAO(string,address,string,string,string,bytes32,address)": {
				"details": "deploy a TAO",
				"params": {
					"_contentId": "The contentId related to this TAO",
					"_datHash": "The datHash of this TAO",
					"_database": "The database for this TAO",
					"_keyValue": "The key/value pair to be checked on the database",
					"_name": "The name of the TAO",
					"_nameTAOVaultAddress": "The address of NameTAOVault",
					"_originId": "The Name ID the creates the TAO"
				}
			},
			"isName(address)": {
				"details": "Check whether or not the given Name ID is a Name",
				"params": {
					"_nameId": "The ID of the Name"
				},
				"return": "true if yes. false otherwise"
			},
			"isTAO(address)": {
				"details": "Check whether or not the given TAO ID is a TAO",
				"params": {
					"_taoId": "The ID of the TAO"
				},
				"return": "true if yes. false otherwise"
			},
			"isTheAO(address,address,address)": {
				"details": "Checks if the calling contract address is The AO\tOR\tIf The AO is set to a Name/TAO, then check if calling address is the Advocate",
				"params": {
					"_nameTAOPositionAddress": "The address of NameTAOPosition",
					"_sender": "The address to check",
					"_theAO": "The AO address"
				},
				"return": "true if yes, false otherwise"
			},
			"isValidERC20TokenAddress(address)": {
				"details": "Check if `_tokenAddress` is a valid ERC20 Token address",
				"params": {
					"_tokenAddress": "The ERC20 Token address to check"
				}
			},
			"numDigits(uint256)": {
				"details": "count num of digits",
				"params": {
					"number": "uint256 of the nuumber to be checked"
				},
				"return": "uint8 num of digits"
			}
		},
		"title": "AOLibrary"
	},
	"userdoc": {
		"methods": {}
	}
}