{
	"contractName": "AOLibrary",
	"abi": [
		{
			"constant": true,
			"inputs": [
				{
					"name": "_taoId",
					"type": "address"
				}
			],
			"name": "isTAO",
			"outputs": [
				{
					"name": "",
					"type": "bool"
				}
			],
			"payable": false,
			"stateMutability": "view",
			"type": "function"
		},
		{
			"constant": true,
			"inputs": [
				{
					"name": "_nameId",
					"type": "address"
				}
			],
			"name": "isName",
			"outputs": [
				{
					"name": "",
					"type": "bool"
				}
			],
			"payable": false,
			"stateMutability": "view",
			"type": "function"
		},
		{
			"constant": true,
			"inputs": [
				{
					"name": "_tokenAddress",
					"type": "address"
				}
			],
			"name": "isValidERC20TokenAddress",
			"outputs": [
				{
					"name": "",
					"type": "bool"
				}
			],
			"payable": false,
			"stateMutability": "view",
			"type": "function"
		},
		{
			"constant": true,
			"inputs": [
				{
					"name": "_sender",
					"type": "address"
				},
				{
					"name": "_theAO",
					"type": "address"
				},
				{
					"name": "_nameTAOPositionAddress",
					"type": "address"
				}
			],
			"name": "isTheAO",
			"outputs": [
				{
					"name": "",
					"type": "bool"
				}
			],
			"payable": false,
			"stateMutability": "view",
			"type": "function"
		},
		{
			"constant": true,
			"inputs": [],
			"name": "PERCENTAGE_DIVISOR",
			"outputs": [
				{
					"name": "",
					"type": "uint256"
				}
			],
			"payable": false,
			"stateMutability": "pure",
			"type": "function"
		},
		{
			"constant": true,
			"inputs": [],
			"name": "MULTIPLIER_DIVISOR",
			"outputs": [
				{
					"name": "",
					"type": "uint256"
				}
			],
			"payable": false,
			"stateMutability": "pure",
			"type": "function"
		},
		{
			"constant": true,
			"inputs": [
				{
					"name": "_currentWeightedMultiplier",
					"type": "uint256"
				},
				{
					"name": "_currentPrimordialBalance",
					"type": "uint256"
				},
				{
					"name": "_additionalWeightedMultiplier",
					"type": "uint256"
				},
				{
					"name": "_additionalPrimordialAmount",
					"type": "uint256"
				}
			],
			"name": "calculateWeightedMultiplier",
			"outputs": [
				{
					"name": "",
					"type": "uint256"
				}
			],
			"payable": false,
			"stateMutability": "pure",
			"type": "function"
		},
		{
			"constant": true,
			"inputs": [
				{
					"name": "_purchaseAmount",
					"type": "uint256"
				},
				{
					"name": "_totalPrimordialMintable",
					"type": "uint256"
				},
				{
					"name": "_totalPrimordialMinted",
					"type": "uint256"
				},
				{
					"name": "_startingMultiplier",
					"type": "uint256"
				},
				{
					"name": "_endingMultiplier",
					"type": "uint256"
				}
			],
			"name": "calculatePrimordialMultiplier",
			"outputs": [
				{
					"name": "",
					"type": "uint256"
				}
			],
			"payable": false,
			"stateMutability": "pure",
			"type": "function"
		},
		{
			"constant": true,
			"inputs": [
				{
					"name": "_purchaseAmount",
					"type": "uint256"
				},
				{
					"name": "_totalPrimordialMintable",
					"type": "uint256"
				},
				{
					"name": "_totalPrimordialMinted",
					"type": "uint256"
				},
				{
					"name": "_startingMultiplier",
					"type": "uint256"
				},
				{
					"name": "_endingMultiplier",
					"type": "uint256"
				}
			],
			"name": "calculateNetworkBonusPercentage",
			"outputs": [
				{
					"name": "",
					"type": "uint256"
				}
			],
			"payable": false,
			"stateMutability": "pure",
			"type": "function"
		},
		{
			"constant": true,
			"inputs": [
				{
					"name": "_purchaseAmount",
					"type": "uint256"
				},
				{
					"name": "_totalPrimordialMintable",
					"type": "uint256"
				},
				{
					"name": "_totalPrimordialMinted",
					"type": "uint256"
				},
				{
					"name": "_startingMultiplier",
					"type": "uint256"
				},
				{
					"name": "_endingMultiplier",
					"type": "uint256"
				}
			],
			"name": "calculateNetworkBonusAmount",
			"outputs": [
				{
					"name": "",
					"type": "uint256"
				}
			],
			"payable": false,
			"stateMutability": "pure",
			"type": "function"
		},
		{
			"constant": true,
			"inputs": [
				{
					"name": "_primordialBalance",
					"type": "uint256"
				},
				{
					"name": "_currentWeightedMultiplier",
					"type": "uint256"
				},
				{
					"name": "_maximumMultiplier",
					"type": "uint256"
				}
			],
			"name": "calculateMaximumBurnAmount",
			"outputs": [
				{
					"name": "",
					"type": "uint256"
				}
			],
			"payable": false,
			"stateMutability": "pure",
			"type": "function"
		},
		{
			"constant": true,
			"inputs": [
				{
					"name": "_primordialBalance",
					"type": "uint256"
				},
				{
					"name": "_currentWeightedMultiplier",
					"type": "uint256"
				},
				{
					"name": "_amountToBurn",
					"type": "uint256"
				}
			],
			"name": "calculateMultiplierAfterBurn",
			"outputs": [
				{
					"name": "",
					"type": "uint256"
				}
			],
			"payable": false,
			"stateMutability": "pure",
			"type": "function"
		},
		{
			"constant": true,
			"inputs": [
				{
					"name": "_primordialBalance",
					"type": "uint256"
				},
				{
					"name": "_currentWeightedMultiplier",
					"type": "uint256"
				},
				{
					"name": "_amountToConvert",
					"type": "uint256"
				}
			],
			"name": "calculateMultiplierAfterConversion",
			"outputs": [
				{
					"name": "",
					"type": "uint256"
				}
			],
			"payable": false,
			"stateMutability": "pure",
			"type": "function"
		},
		{
			"constant": true,
			"inputs": [
				{
					"name": "number",
					"type": "uint256"
				}
			],
			"name": "numDigits",
			"outputs": [
				{
					"name": "",
					"type": "uint8"
				}
			],
			"payable": false,
			"stateMutability": "pure",
			"type": "function"
		}
	],
	"bytecode": "0x6125c7610026600b82828239805160001a60731461001957fe5b30600052607381538281f3fe7300000000000000000000000000000000000000003014608060405260043610620001215760003560e01c8063a1e7975011620000ae578063d661dd311162000078578063d661dd3114620007e7578063db9d28d514620007f1578063f66afcac1462000827578063f8e2602514620008625762000121565b8063a1e7975014620002b5578063b49ec3e11462000540578063c35f4bbb14620007af578063caf2976514620007e75762000121565b80634d5a117311620000f05780634d5a117314620001f35780637d3c3ac7146200021f5780637fbc9c5514620002575780638cf3313f14620002835762000121565b80632b439a9414620001265780632d706a3414620001635780632fca5414146200018c57806332363e0a14620001b5575b600080fd5b6200014f600480360360208110156200013e57600080fd5b50356001600160a01b03166200089a565b604080519115158252519081900360200190f35b6200014f600480360360208110156200017b57600080fd5b50356001600160a01b031662000ad6565b6200014f60048036036020811015620001a457600080fd5b50356001600160a01b031662000cbc565b620001e160048036036060811015620001cd57600080fd5b508035906020810135906040013562000e9f565b60408051918252519081900360200190f35b620001e1600480360360608110156200020b57600080fd5b508035906020810135906040013562000ede565b620001e1600480360360a08110156200023757600080fd5b508035906020810135906040810135906060810135906080013562000f1a565b620001e1600480360360608110156200026f57600080fd5b508035906020810135906040013562000fe0565b620001e1600480360360808110156200029b57600080fd5b508035906020810135906040810135906060013562000ff8565b818015620002c257600080fd5b5062000524600480360360e0811015620002db57600080fd5b810190602081018135600160201b811115620002f657600080fd5b8201836020820111156200030957600080fd5b803590602001918460018302840111600160201b831117156200032b57600080fd5b91908080601f01602080910402602001604051908101604052809392919081815260200183838082843760009201919091525092956001600160a01b03853516959094909350604081019250602001359050600160201b8111156200038f57600080fd5b820183602082011115620003a257600080fd5b803590602001918460018302840111600160201b83111715620003c457600080fd5b91908080601f0160208091040260200160405190810160405280939291908181526020018383808284376000920191909152509295949360208101935035915050600160201b8111156200041757600080fd5b8201836020820111156200042a57600080fd5b803590602001918460018302840111600160201b831117156200044c57600080fd5b91908080601f0160208091040260200160405190810160405280939291908181526020018383808284376000920191909152509295949360208101935035915050600160201b8111156200049f57600080fd5b820183602082011115620004b257600080fd5b803590602001918460018302840111600160201b83111715620004d457600080fd5b91908080601f01602080910402602001604051908101604052809392919081815260200183838082843760009201919091525092955050823593505050602001356001600160a01b031662001075565b604080516001600160a01b039092168252519081900360200190f35b8180156200054d57600080fd5b5062000524600480360360e08110156200056657600080fd5b810190602081018135600160201b8111156200058157600080fd5b8201836020820111156200059457600080fd5b803590602001918460018302840111600160201b83111715620005b657600080fd5b91908080601f01602080910402602001604051908101604052809392919081815260200183838082843760009201919091525092956001600160a01b03853516959094909350604081019250602001359050600160201b8111156200061a57600080fd5b8201836020820111156200062d57600080fd5b803590602001918460018302840111600160201b831117156200064f57600080fd5b91908080601f0160208091040260200160405190810160405280939291908181526020018383808284376000920191909152509295949360208101935035915050600160201b811115620006a257600080fd5b820183602082011115620006b557600080fd5b803590602001918460018302840111600160201b83111715620006d757600080fd5b91908080601f0160208091040260200160405190810160405280939291908181526020018383808284376000920191909152509295949360208101935035915050600160201b8111156200072a57600080fd5b8201836020820111156200073d57600080fd5b803590602001918460018302840111600160201b831117156200075f57600080fd5b91908080601f01602080910402602001604051908101604052809392919081815260200183838082843760009201919091525092955050823593505050602001356001600160a01b031662001299565b620001e1600480360360a0811015620007c757600080fd5b5080359060208101359060408101359060608101359060800135620012b0565b620001e16200134b565b62000811600480360360208110156200080957600080fd5b503562001352565b6040805160ff9092168252519081900360200190f35b6200014f600480360360608110156200083f57600080fd5b506001600160a01b0381358116916020810135821691604090910135166200137b565b620001e1600480360360a08110156200087a57600080fd5b50803590602081013590604081013590606081013590608001356200145f565b60006001600160a01b038216620008b45750600062000ad1565b60008290506000816001600160a01b03166318160ddd6040518163ffffffff1660e01b815260040160206040518083038186803b158015620008f557600080fd5b505afa1580156200090a573d6000803e3d6000fd5b505050506040513d60208110156200092157600080fd5b505110801590620009f957506000816001600160a01b03166306fdde036040518163ffffffff1660e01b815260040160006040518083038186803b1580156200096957600080fd5b505afa1580156200097e573d6000803e3d6000fd5b505050506040513d6000823e601f3d908101601f191682016040526020811015620009a857600080fd5b810190808051600160201b811115620009c057600080fd5b82016020810184811115620009d457600080fd5b8151600160201b811182820187101715620009ee57600080fd5b505092919050505051115b801562000acd57506000816001600160a01b03166395d89b416040518163ffffffff1660e01b815260040160006040518083038186803b15801562000a3d57600080fd5b505afa15801562000a52573d6000803e3d6000fd5b505050506040513d6000823e601f3d908101601f19168201604052602081101562000a7c57600080fd5b810190808051600160201b81111562000a9457600080fd5b8201602081018481111562000aa857600080fd5b8151600160201b81118282018710171562000ac257600080fd5b505092919050505051115b9150505b919050565b60006001600160a01b0382161580159062000bb857506000826001600160a01b03166306fdde036040518163ffffffff1660e01b815260040160006040518083038186803b15801562000b2857600080fd5b505afa15801562000b3d573d6000803e3d6000fd5b505050506040513d6000823e601f3d908101601f19168201604052602081101562000b6757600080fd5b810190808051600160201b81111562000b7f57600080fd5b8201602081018481111562000b9357600080fd5b8151600160201b81118282018710171562000bad57600080fd5b505092919050505051115b801562000c3f575060006001600160a01b0316826001600160a01b03166313866efa6040518163ffffffff1660e01b815260040160206040518083038186803b15801562000c0557600080fd5b505afa15801562000c1a573d6000803e3d6000fd5b505050506040513d602081101562000c3157600080fd5b50516001600160a01b031614155b801562000cb65750816001600160a01b0316638f940f636040518163ffffffff1660e01b815260040160206040518083038186803b15801562000c8157600080fd5b505afa15801562000c96573d6000803e3d6000fd5b505050506040513d602081101562000cad57600080fd5b505160ff166001145b92915050565b60006001600160a01b0382161580159062000d9e57506000826001600160a01b03166306fdde036040518163ffffffff1660e01b815260040160006040518083038186803b15801562000d0e57600080fd5b505afa15801562000d23573d6000803e3d6000fd5b505050506040513d6000823e601f3d908101601f19168201604052602081101562000d4d57600080fd5b810190808051600160201b81111562000d6557600080fd5b8201602081018481111562000d7957600080fd5b8151600160201b81118282018710171562000d9357600080fd5b505092919050505051115b801562000e25575060006001600160a01b0316826001600160a01b03166313866efa6040518163ffffffff1660e01b815260040160206040518083038186803b15801562000deb57600080fd5b505afa15801562000e00573d6000803e3d6000fd5b505050506040513d602081101562000e1757600080fd5b50516001600160a01b031614155b801562000cb65750816001600160a01b0316638f940f636040518163ffffffff1660e01b815260040160206040518083038186803b15801562000e6757600080fd5b505afa15801562000e7c573d6000803e3d6000fd5b505050506040513d602081101562000e9357600080fd5b505160ff161592915050565b600062000ed662000eb7858463ffffffff6200149b16565b62000ec9868663ffffffff620014ae16565b9063ffffffff620014d716565b949350505050565b600062000ed68262000ec962000efb878763ffffffff620014ae16565b62000f0d868963ffffffff620014ae16565b9063ffffffff6200149b16565b6000808611801562000f3d575062000f39858563ffffffff6200149b16565b8611155b1562000fd357600062000f6a62000f5c88600263ffffffff620014d716565b869063ffffffff620014eb16565b9050600062000fc8620f424062000ec962000f8c888863ffffffff6200149b16565b62000fbb62000faa8c62000ec9620f42408a63ffffffff620014ae16565b620f42409063ffffffff6200149b16565b9063ffffffff620014ae16565b925062000fd7915050565b5060005b95945050505050565b600062000ed662000eb7858463ffffffff620014eb16565b600084156200106c5760006200103862001019858563ffffffff620014ae16565b6200102b888863ffffffff620014ae16565b9063ffffffff620014eb16565b905060006200104e868563ffffffff620014eb16565b905062001062828263ffffffff620014d716565b9250505062000ed6565b50909392505050565b6000878787878787876040516200108c90620014f9565b8080602001886001600160a01b03166001600160a01b03168152602001806020018060200180602001878152602001866001600160a01b03166001600160a01b0316815260200185810385528c818151815260200191508051906020019080838360005b838110156200110a578181015183820152602001620010f0565b50505050905090810190601f168015620011385780820380516001836020036101000a031916815260200191505b5085810384528a5181528a516020918201918c019080838360005b838110156200116d57818101518382015260200162001153565b50505050905090810190601f1680156200119b5780820380516001836020036101000a031916815260200191505b5085810383528951815289516020918201918b019080838360005b83811015620011d0578181015183820152602001620011b6565b50505050905090810190601f168015620011fe5780820380516001836020036101000a031916815260200191505b5085810382528851815288516020918201918a019080838360005b838110156200123357818101518382015260200162001219565b50505050905090810190601f168015620012615780820380516001836020036101000a031916815260200191505b509b505050505050505050505050604051809103906000f0801580156200128c573d6000803e3d6000fd5b5098975050505050505050565b6000878787878787876040516200108c9062001507565b60008086118015620012d35750620012cf858563ffffffff6200149b16565b8611155b1562000fd3576000620012f262000f5c88600263ffffffff620014d716565b905060006200132a6200130c868663ffffffff6200149b16565b62000fbb62000faa8a62000ec9620f42408863ffffffff620014ae16565b90506200134181620f424063ffffffff620014d716565b9250505062000fd7565b620f424090565b6000805b821562000cb6576200137083600a63ffffffff620014d716565b925060010162001356565b6000826001600160a01b0316846001600160a01b0316148062000ed65750620013a48362000cbc565b80620013b65750620013b68362000ad6565b8015620013cb57506001600160a01b03821615155b801562000ed6575060408051600160e01b6371ce52ed0281526001600160a01b03868116600483015285811660248301529151918416916371ce52ed91604480820192602092909190829003018186803b1580156200142957600080fd5b505afa1580156200143e573d6000803e3d6000fd5b505050506040513d60208110156200145557600080fd5b5051949350505050565b60008062001471878787878762000f1a565b905060006200148f620f424062000ec9848b63ffffffff620014ae16565b98975050505050505050565b600082821115620014a857fe5b50900390565b600082620014bf5750600062000cb6565b5081810281838281620014ce57fe5b041462000cb657fe5b6000818381620014e357fe5b049392505050565b8181018281101562000cb657fe5b610851806200151683390190565b6108358062001d678339019056fe608060405234801561001057600080fd5b50604051610851380380610851833981018060405260e081101561003357600080fd5b81019080805164010000000081111561004b57600080fd5b8201602081018481111561005e57600080fd5b815164010000000081118282018710171561007857600080fd5b5050602082015160409092018051919492939164010000000081111561009d57600080fd5b820160208101848111156100b057600080fd5b81516401000000008111828201871017156100ca57600080fd5b505092919060200180516401000000008111156100e657600080fd5b820160208101848111156100f957600080fd5b815164010000000081118282018710171561011357600080fd5b5050929190602001805164010000000081111561012f57600080fd5b8201602081018481111561014257600080fd5b815164010000000081118282018710171561015c57600080fd5b50506020808301516040909301518951929550929350889188918891889188918891889161019091600191908a019061022f565b50600280546001600160a01b0319166001600160a01b03881617905584516101bf90600390602088019061022f565b5083516101d390600490602087019061022f565b5082516101e790600590602086019061022f565b5060069190915560078054600080546001600160a01b0319166001600160a01b039094169390931790925560ff199091166001179055506102ca9a5050505050505050505050565b828054600181600116156101000203166002900490600052602060002090601f016020900481019282601f1061027057805160ff191683800117855561029d565b8280016001018555821561029d579182015b8281111561029d578251825591602001919060010190610282565b506102a99291506102ad565b5090565b6102c791905b808211156102a957600081556001016102b3565b90565b610578806102d96000396000f3fe6080604052600436106100915760003560e01c80638f940f63116100595780638f940f631461018d5780639db5dbe4146101b8578063a727be571461020f578063d97aa97714610224578063e9bb84c21461024b57610091565b8063056847901461009357806306fdde031461011d57806313866efa14610132578063430bf08a14610163578063713b563f14610178575b005b34801561009f57600080fd5b506100a8610284565b6040805160208082528351818301528351919283929083019185019080838360005b838110156100e25781810151838201526020016100ca565b50505050905090810190601f16801561010f5780820380516001836020036101000a031916815260200191505b509250505060405180910390f35b34801561012957600080fd5b506100a8610312565b34801561013e57600080fd5b5061014761036c565b604080516001600160a01b039092168252519081900360200190f35b34801561016f57600080fd5b5061014761037b565b34801561018457600080fd5b506100a861038a565b34801561019957600080fd5b506101a26103e5565b6040805160ff9092168252519081900360200190f35b3480156101c457600080fd5b506101fb600480360360608110156101db57600080fd5b506001600160a01b038135811691602081013590911690604001356103ee565b604080519115158252519081900360200190f35b34801561021b57600080fd5b506100a8610493565b34801561023057600080fd5b506102396104ee565b60408051918252519081900360200190f35b34801561025757600080fd5b506101fb6004803603604081101561026e57600080fd5b506001600160a01b0381351690602001356104f4565b6003805460408051602060026001851615610100026000190190941693909304601f8101849004840282018401909252818152929183018282801561030a5780601f106102df5761010080835404028352916020019161030a565b820191906000526020600020905b8154815290600101906020018083116102ed57829003601f168201915b505050505081565b60018054604080516020600284861615610100026000190190941693909304601f8101849004840282018401909252818152929183018282801561030a5780601f106102df5761010080835404028352916020019161030a565b6002546001600160a01b031681565b6000546001600160a01b031681565b6004805460408051602060026001851615610100026000190190941693909304601f8101849004840282018401909252818152929183018282801561030a5780601f106102df5761010080835404028352916020019161030a565b60075460ff1681565b600080546001600160a01b0316331461040657600080fd5b60408051600160e01b63a9059cbb0281526001600160a01b038581166004830152602482018590529151869283169163a9059cbb9160448083019260209291908290030181600087803b15801561045c57600080fd5b505af1158015610470573d6000803e3d6000fd5b505050506040513d602081101561048657600080fd5b5060019695505050505050565b6005805460408051602060026001851615610100026000190190941693909304601f8101849004840282018401909252818152929183018282801561030a5780601f106102df5761010080835404028352916020019161030a565b60065481565b600080546001600160a01b0316331461050c57600080fd5b6040516001600160a01b0384169083156108fc029084906000818181858888f19350505050158015610542573d6000803e3d6000fd5b506001939250505056fea165627a7a723058202edec7cd19549f155537dc8ce66c4af9ab4386995e4be5edde6c468d6c104a620029608060405234801561001057600080fd5b50604051610835380380610835833981018060405260e081101561003357600080fd5b81019080805164010000000081111561004b57600080fd5b8201602081018481111561005e57600080fd5b815164010000000081118282018710171561007857600080fd5b5050602082015160409092018051919492939164010000000081111561009d57600080fd5b820160208101848111156100b057600080fd5b81516401000000008111828201871017156100ca57600080fd5b505092919060200180516401000000008111156100e657600080fd5b820160208101848111156100f957600080fd5b815164010000000081118282018710171561011357600080fd5b5050929190602001805164010000000081111561012f57600080fd5b8201602081018481111561014257600080fd5b815164010000000081118282018710171561015c57600080fd5b50506020808301516040909301518951929550929350610181916001918a0190610213565b50600280546001600160a01b0319166001600160a01b03881617905584516101b0906003906020880190610213565b5083516101c4906004906020870190610213565b5082516101d8906005906020860190610213565b506006919091556007805460ff19169055600080546001600160a01b0319166001600160a01b03909216919091179055506102ae9350505050565b828054600181600116156101000203166002900490600052602060002090601f016020900481019282601f1061025457805160ff1916838001178555610281565b82800160010185558215610281579182015b82811115610281578251825591602001919060010190610266565b5061028d929150610291565b5090565b6102ab91905b8082111561028d5760008155600101610297565b90565b610578806102bd6000396000f3fe6080604052600436106100915760003560e01c80638f940f63116100595780638f940f631461018d5780639db5dbe4146101b8578063a727be571461020f578063d97aa97714610224578063e9bb84c21461024b57610091565b8063056847901461009357806306fdde031461011d57806313866efa14610132578063430bf08a14610163578063713b563f14610178575b005b34801561009f57600080fd5b506100a8610284565b6040805160208082528351818301528351919283929083019185019080838360005b838110156100e25781810151838201526020016100ca565b50505050905090810190601f16801561010f5780820380516001836020036101000a031916815260200191505b509250505060405180910390f35b34801561012957600080fd5b506100a8610312565b34801561013e57600080fd5b5061014761036c565b604080516001600160a01b039092168252519081900360200190f35b34801561016f57600080fd5b5061014761037b565b34801561018457600080fd5b506100a861038a565b34801561019957600080fd5b506101a26103e5565b6040805160ff9092168252519081900360200190f35b3480156101c457600080fd5b506101fb600480360360608110156101db57600080fd5b506001600160a01b038135811691602081013590911690604001356103ee565b604080519115158252519081900360200190f35b34801561021b57600080fd5b506100a8610493565b34801561023057600080fd5b506102396104ee565b60408051918252519081900360200190f35b34801561025757600080fd5b506101fb6004803603604081101561026e57600080fd5b506001600160a01b0381351690602001356104f4565b6003805460408051602060026001851615610100026000190190941693909304601f8101849004840282018401909252818152929183018282801561030a5780601f106102df5761010080835404028352916020019161030a565b820191906000526020600020905b8154815290600101906020018083116102ed57829003601f168201915b505050505081565b60018054604080516020600284861615610100026000190190941693909304601f8101849004840282018401909252818152929183018282801561030a5780601f106102df5761010080835404028352916020019161030a565b6002546001600160a01b031681565b6000546001600160a01b031681565b6004805460408051602060026001851615610100026000190190941693909304601f8101849004840282018401909252818152929183018282801561030a5780601f106102df5761010080835404028352916020019161030a565b60075460ff1681565b600080546001600160a01b0316331461040657600080fd5b60408051600160e01b63a9059cbb0281526001600160a01b038581166004830152602482018590529151869283169163a9059cbb9160448083019260209291908290030181600087803b15801561045c57600080fd5b505af1158015610470573d6000803e3d6000fd5b505050506040513d602081101561048657600080fd5b5060019695505050505050565b6005805460408051602060026001851615610100026000190190941693909304601f8101849004840282018401909252818152929183018282801561030a5780601f106102df5761010080835404028352916020019161030a565b60065481565b600080546001600160a01b0316331461050c57600080fd5b6040516001600160a01b0384169083156108fc029084906000818181858888f19350505050158015610542573d6000803e3d6000fd5b506001939250505056fea165627a7a72305820af2e65a0cd79f3c31bf41c0feada9a5d82594191489fd32218d55072bb51c7710029a165627a7a723058203777d95dd92b5d95ff3b79a04635b12648cfcd25936cd1cd93bd3e9ac27b007b0029",
	"source": "pragma solidity >=0.5.4 <0.6.0;\n\nimport './SafeMath.sol';\nimport './TAO.sol';\nimport './Name.sol';\nimport './INameTAOPosition.sol';\nimport './TokenERC20.sol';\n\n/**\n * @title AOLibrary\n */\nlibrary AOLibrary {\n\tusing SafeMath for uint256;\n\n\tuint256 constant private _MULTIPLIER_DIVISOR = 10 ** 6; // 1000000 = 1\n\tuint256 constant private _PERCENTAGE_DIVISOR = 10 ** 6; // 100% = 1000000\n\n\t/**\n\t * @dev Check whether or not the given TAO ID is a TAO\n\t * @param _taoId The ID of the TAO\n\t * @return true if yes. false otherwise\n\t */\n\tfunction isTAO(address _taoId) public view returns (bool) {\n\t\treturn (_taoId != address(0) && bytes(TAO(address(uint160(_taoId))).name()).length > 0 && TAO(uint160(_taoId)).originId() != address(0) && TAO(uint160(_taoId)).typeId() == 0);\n\t}\n\n\t/**\n\t * @dev Check whether or not the given Name ID is a Name\n\t * @param _nameId The ID of the Name\n\t * @return true if yes. false otherwise\n\t */\n\tfunction isName(address _nameId) public view returns (bool) {\n\t\treturn (_nameId != address(0) && bytes(TAO(uint160(_nameId)).name()).length > 0 && Name(uint160(_nameId)).originId() != address(0) && Name(uint160(_nameId)).typeId() == 1);\n\t}\n\n\t/**\n\t * @dev Check if `_tokenAddress` is a valid ERC20 Token address\n\t * @param _tokenAddress The ERC20 Token address to check\n\t */\n\tfunction isValidERC20TokenAddress(address _tokenAddress) public view returns (bool) {\n\t\tif (_tokenAddress == address(0)) {\n\t\t\treturn false;\n\t\t}\n\t\tTokenERC20 _erc20 = TokenERC20(_tokenAddress);\n\t\treturn (_erc20.totalSupply() >= 0 && bytes(_erc20.name()).length > 0 && bytes(_erc20.symbol()).length > 0);\n\t}\n\n\t/**\n\t * @dev Checks if the calling contract address is The AO\n\t *\t\tOR\n\t *\t\tIf The AO is set to a Name/TAO, then check if calling address is the Advocate\n\t * @param _sender The address to check\n\t * @param _theAO The AO address\n\t * @param _nameTAOPositionAddress The address of NameTAOPosition\n\t * @return true if yes, false otherwise\n\t */\n\tfunction isTheAO(address _sender, address _theAO, address _nameTAOPositionAddress) public view returns (bool) {\n\t\treturn (_sender == _theAO ||\n\t\t\t(\n\t\t\t\t(isTAO(_theAO) || isName(_theAO)) &&\n\t\t\t\t_nameTAOPositionAddress != address(0) &&\n\t\t\t\tINameTAOPosition(_nameTAOPositionAddress).senderIsAdvocate(_sender, _theAO)\n\t\t\t)\n\t\t);\n\t}\n\n\t/**\n\t * @dev Return the divisor used to correctly calculate percentage.\n\t *\t\tPercentage stored throughout AO contracts covers 4 decimals,\n\t *\t\tso 1% is 10000, 1.25% is 12500, etc\n\t */\n\tfunction PERCENTAGE_DIVISOR() public pure returns (uint256) {\n\t\treturn _PERCENTAGE_DIVISOR;\n\t}\n\n\t/**\n\t * @dev Return the divisor used to correctly calculate multiplier.\n\t *\t\tMultiplier stored throughout AO contracts covers 6 decimals,\n\t *\t\tso 1 is 1000000, 0.023 is 23000, etc\n\t */\n\tfunction MULTIPLIER_DIVISOR() public pure returns (uint256) {\n\t\treturn _MULTIPLIER_DIVISOR;\n\t}\n\n\t/**\n\t * @dev deploy a TAO\n\t * @param _name The name of the TAO\n\t * @param _originId The Name ID the creates the TAO\n\t * @param _datHash The datHash of this TAO\n\t * @param _database The database for this TAO\n\t * @param _keyValue The key/value pair to be checked on the database\n\t * @param _contentId The contentId related to this TAO\n\t * @param _nameTAOVaultAddress The address of NameTAOVault\n\t */\n\tfunction deployTAO(string memory _name,\n\t\taddress _originId,\n\t\tstring memory _datHash,\n\t\tstring memory _database,\n\t\tstring memory _keyValue,\n\t\tbytes32 _contentId,\n\t\taddress _nameTAOVaultAddress\n\t\t) public returns (TAO _tao) {\n\t\t_tao = new TAO(_name, _originId, _datHash, _database, _keyValue, _contentId, _nameTAOVaultAddress);\n\t}\n\n\t/**\n\t * @dev deploy a Name\n\t * @param _name The name of the Name\n\t * @param _originId The eth address the creates the Name\n\t * @param _datHash The datHash of this Name\n\t * @param _database The database for this Name\n\t * @param _keyValue The key/value pair to be checked on the database\n\t * @param _contentId The contentId related to this Name\n\t * @param _nameTAOVaultAddress The address of NameTAOVault\n\t */\n\tfunction deployName(string memory _name,\n\t\taddress _originId,\n\t\tstring memory _datHash,\n\t\tstring memory _database,\n\t\tstring memory _keyValue,\n\t\tbytes32 _contentId,\n\t\taddress _nameTAOVaultAddress\n\t\t) public returns (Name _myName) {\n\t\t_myName = new Name(_name, _originId, _datHash, _database, _keyValue, _contentId, _nameTAOVaultAddress);\n\t}\n\n\t/**\n\t * @dev Calculate the new weighted multiplier when adding `_additionalPrimordialAmount` at `_additionalWeightedMultiplier` to the current `_currentPrimordialBalance` at `_currentWeightedMultiplier`\n\t * @param _currentWeightedMultiplier Account's current weighted multiplier\n\t * @param _currentPrimordialBalance Account's current primordial ion balance\n\t * @param _additionalWeightedMultiplier The weighted multiplier to be added\n\t * @param _additionalPrimordialAmount The primordial ion amount to be added\n\t * @return the new primordial weighted multiplier\n\t */\n\tfunction calculateWeightedMultiplier(uint256 _currentWeightedMultiplier, uint256 _currentPrimordialBalance, uint256 _additionalWeightedMultiplier, uint256 _additionalPrimordialAmount) public pure returns (uint256) {\n\t\tif (_currentWeightedMultiplier > 0) {\n\t\t\tuint256 _totalWeightedIons = (_currentWeightedMultiplier.mul(_currentPrimordialBalance)).add(_additionalWeightedMultiplier.mul(_additionalPrimordialAmount));\n\t\t\tuint256 _totalIons = _currentPrimordialBalance.add(_additionalPrimordialAmount);\n\t\t\treturn _totalWeightedIons.div(_totalIons);\n\t\t} else {\n\t\t\treturn _additionalWeightedMultiplier;\n\t\t}\n\t}\n\n\t/**\n\t * @dev Calculate the primordial ion multiplier on a given lot\n\t *\t\tTotal Primordial Mintable = T\n\t *\t\tTotal Primordial Minted = M\n\t *\t\tStarting Multiplier = S\n\t *\t\tEnding Multiplier = E\n\t *\t\tTo Purchase = P\n\t *\t\tMultiplier for next Lot of Amount = (1 - ((M + P/2) / T)) x (S-E)\n\t *\n\t * @param _purchaseAmount The amount of primordial ion intended to be purchased\n\t * @param _totalPrimordialMintable Total Primordial ion mintable\n\t * @param _totalPrimordialMinted Total Primordial ion minted so far\n\t * @param _startingMultiplier The starting multiplier in (10 ** 6)\n\t * @param _endingMultiplier The ending multiplier in (10 ** 6)\n\t * @return The multiplier in (10 ** 6)\n\t */\n\tfunction calculatePrimordialMultiplier(uint256 _purchaseAmount, uint256 _totalPrimordialMintable, uint256 _totalPrimordialMinted, uint256 _startingMultiplier, uint256 _endingMultiplier) public pure returns (uint256) {\n\t\tif (_purchaseAmount > 0 && _purchaseAmount <= _totalPrimordialMintable.sub(_totalPrimordialMinted)) {\n\t\t\t/**\n\t\t\t * Let temp = M + (P/2)\n\t\t\t * Multiplier = (1 - (temp / T)) x (S-E)\n\t\t\t */\n\t\t\tuint256 temp = _totalPrimordialMinted.add(_purchaseAmount.div(2));\n\n\t\t\t/**\n\t\t\t * Multiply multiplier with _MULTIPLIER_DIVISOR/_MULTIPLIER_DIVISOR to account for 6 decimals\n\t\t\t * so, Multiplier = (_MULTIPLIER_DIVISOR/_MULTIPLIER_DIVISOR) * (1 - (temp / T)) * (S-E)\n\t\t\t * Multiplier = ((_MULTIPLIER_DIVISOR * (1 - (temp / T))) * (S-E)) / _MULTIPLIER_DIVISOR\n\t\t\t * Multiplier = ((_MULTIPLIER_DIVISOR - ((_MULTIPLIER_DIVISOR * temp) / T)) * (S-E)) / _MULTIPLIER_DIVISOR\n\t\t\t * Take out the division by _MULTIPLIER_DIVISOR for now and include in later calculation\n\t\t\t * Multiplier = (_MULTIPLIER_DIVISOR - ((_MULTIPLIER_DIVISOR * temp) / T)) * (S-E)\n\t\t\t */\n\t\t\tuint256 multiplier = (_MULTIPLIER_DIVISOR.sub(_MULTIPLIER_DIVISOR.mul(temp).div(_totalPrimordialMintable))).mul(_startingMultiplier.sub(_endingMultiplier));\n\t\t\t/**\n\t\t\t * Since _startingMultiplier and _endingMultiplier are in 6 decimals\n\t\t\t * Need to divide multiplier by _MULTIPLIER_DIVISOR\n\t\t\t */\n\t\t\treturn multiplier.div(_MULTIPLIER_DIVISOR);\n\t\t} else {\n\t\t\treturn 0;\n\t\t}\n\t}\n\n\t/**\n\t * @dev Calculate the bonus percentage of network ion on a given lot\n\t *\t\tTotal Primordial Mintable = T\n\t *\t\tTotal Primordial Minted = M\n\t *\t\tStarting Network Bonus Multiplier = Bs\n\t *\t\tEnding Network Bonus Multiplier = Be\n\t *\t\tTo Purchase = P\n\t *\t\tAO Bonus % = B% = (1 - ((M + P/2) / T)) x (Bs-Be)\n\t *\n\t * @param _purchaseAmount The amount of primordial ion intended to be purchased\n\t * @param _totalPrimordialMintable Total Primordial ion intable\n\t * @param _totalPrimordialMinted Total Primordial ion minted so far\n\t * @param _startingMultiplier The starting Network ion bonus multiplier\n\t * @param _endingMultiplier The ending Network ion bonus multiplier\n\t * @return The bonus percentage\n\t */\n\tfunction calculateNetworkBonusPercentage(uint256 _purchaseAmount, uint256 _totalPrimordialMintable, uint256 _totalPrimordialMinted, uint256 _startingMultiplier, uint256 _endingMultiplier) public pure returns (uint256) {\n\t\tif (_purchaseAmount > 0 && _purchaseAmount <= _totalPrimordialMintable.sub(_totalPrimordialMinted)) {\n\t\t\t/**\n\t\t\t * Let temp = M + (P/2)\n\t\t\t * B% = (1 - (temp / T)) x (Bs-Be)\n\t\t\t */\n\t\t\tuint256 temp = _totalPrimordialMinted.add(_purchaseAmount.div(2));\n\n\t\t\t/**\n\t\t\t * Multiply B% with _PERCENTAGE_DIVISOR/_PERCENTAGE_DIVISOR to account for 6 decimals\n\t\t\t * so, B% = (_PERCENTAGE_DIVISOR/_PERCENTAGE_DIVISOR) * (1 - (temp / T)) * (Bs-Be)\n\t\t\t * B% = ((_PERCENTAGE_DIVISOR * (1 - (temp / T))) * (Bs-Be)) / _PERCENTAGE_DIVISOR\n\t\t\t * B% = ((_PERCENTAGE_DIVISOR - ((_PERCENTAGE_DIVISOR * temp) / T)) * (Bs-Be)) / _PERCENTAGE_DIVISOR\n\t\t\t * Take out the division by _PERCENTAGE_DIVISOR for now and include in later calculation\n\t\t\t * B% = (_PERCENTAGE_DIVISOR - ((_PERCENTAGE_DIVISOR * temp) / T)) * (Bs-Be)\n\t\t\t * But since Bs and Be are in 6 decimals, need to divide by _PERCENTAGE_DIVISOR\n\t\t\t * B% = (_PERCENTAGE_DIVISOR - ((_PERCENTAGE_DIVISOR * temp) / T)) * (Bs-Be) / _PERCENTAGE_DIVISOR\n\t\t\t */\n\t\t\tuint256 bonusPercentage = (_PERCENTAGE_DIVISOR.sub(_PERCENTAGE_DIVISOR.mul(temp).div(_totalPrimordialMintable))).mul(_startingMultiplier.sub(_endingMultiplier)).div(_PERCENTAGE_DIVISOR);\n\t\t\treturn bonusPercentage;\n\t\t} else {\n\t\t\treturn 0;\n\t\t}\n\t}\n\n\t/**\n\t * @dev Calculate the bonus amount of network ion on a given lot\n\t *\t\tAO Bonus Amount = B% x P\n\t *\n\t * @param _purchaseAmount The amount of primordial ion intended to be purchased\n\t * @param _totalPrimordialMintable Total Primordial ion intable\n\t * @param _totalPrimordialMinted Total Primordial ion minted so far\n\t * @param _startingMultiplier The starting Network ion bonus multiplier\n\t * @param _endingMultiplier The ending Network ion bonus multiplier\n\t * @return The bonus percentage\n\t */\n\tfunction calculateNetworkBonusAmount(uint256 _purchaseAmount, uint256 _totalPrimordialMintable, uint256 _totalPrimordialMinted, uint256 _startingMultiplier, uint256 _endingMultiplier) public pure returns (uint256) {\n\t\tuint256 bonusPercentage = calculateNetworkBonusPercentage(_purchaseAmount, _totalPrimordialMintable, _totalPrimordialMinted, _startingMultiplier, _endingMultiplier);\n\t\t/**\n\t\t * Since bonusPercentage is in _PERCENTAGE_DIVISOR format, need to divide it with _PERCENTAGE DIVISOR\n\t\t * when calculating the network ion bonus amount\n\t\t */\n\t\tuint256 networkBonus = bonusPercentage.mul(_purchaseAmount).div(_PERCENTAGE_DIVISOR);\n\t\treturn networkBonus;\n\t}\n\n\t/**\n\t * @dev Calculate the maximum amount of Primordial an account can burn\n\t *\t\t_primordialBalance = P\n\t *\t\t_currentWeightedMultiplier = M\n\t *\t\t_maximumMultiplier = S\n\t *\t\t_amountToBurn = B\n\t *\t\tB = ((S x P) - (P x M)) / S\n\t *\n\t * @param _primordialBalance Account's primordial ion balance\n\t * @param _currentWeightedMultiplier Account's current weighted multiplier\n\t * @param _maximumMultiplier The maximum multiplier of this account\n\t * @return The maximum burn amount\n\t */\n\tfunction calculateMaximumBurnAmount(uint256 _primordialBalance, uint256 _currentWeightedMultiplier, uint256 _maximumMultiplier) public pure returns (uint256) {\n\t\treturn (_maximumMultiplier.mul(_primordialBalance).sub(_primordialBalance.mul(_currentWeightedMultiplier))).div(_maximumMultiplier);\n\t}\n\n\t/**\n\t * @dev Calculate the new multiplier after burning primordial ion\n\t *\t\t_primordialBalance = P\n\t *\t\t_currentWeightedMultiplier = M\n\t *\t\t_amountToBurn = B\n\t *\t\t_newMultiplier = E\n\t *\t\tE = (P x M) / (P - B)\n\t *\n\t * @param _primordialBalance Account's primordial ion balance\n\t * @param _currentWeightedMultiplier Account's current weighted multiplier\n\t * @param _amountToBurn The amount of primordial ion to burn\n\t * @return The new multiplier\n\t */\n\tfunction calculateMultiplierAfterBurn(uint256 _primordialBalance, uint256 _currentWeightedMultiplier, uint256 _amountToBurn) public pure returns (uint256) {\n\t\treturn _primordialBalance.mul(_currentWeightedMultiplier).div(_primordialBalance.sub(_amountToBurn));\n\t}\n\n\t/**\n\t * @dev Calculate the new multiplier after converting network ion to primordial ion\n\t *\t\t_primordialBalance = P\n\t *\t\t_currentWeightedMultiplier = M\n\t *\t\t_amountToConvert = C\n\t *\t\t_newMultiplier = E\n\t *\t\tE = (P x M) / (P + C)\n\t *\n\t * @param _primordialBalance Account's primordial ion balance\n\t * @param _currentWeightedMultiplier Account's current weighted multiplier\n\t * @param _amountToConvert The amount of network ion to convert\n\t * @return The new multiplier\n\t */\n\tfunction calculateMultiplierAfterConversion(uint256 _primordialBalance, uint256 _currentWeightedMultiplier, uint256 _amountToConvert) public pure returns (uint256) {\n\t\treturn _primordialBalance.mul(_currentWeightedMultiplier).div(_primordialBalance.add(_amountToConvert));\n\t}\n\n\t/**\n\t * @dev count num of digits\n\t * @param number uint256 of the nuumber to be checked\n\t * @return uint8 num of digits\n\t */\n\tfunction numDigits(uint256 number) public pure returns (uint8) {\n\t\tuint8 digits = 0;\n\t\twhile(number != 0) {\n\t\t\tnumber = number.div(10);\n\t\t\tdigits++;\n\t\t}\n\t\treturn digits;\n\t}\n}\n",
	"sourcePath": "/usr/local/ao-contracts/contracts/AOLibrary.sol",
	"compiler": {
		"name": "solc",
		"version": "0.5.6+commit.b259423e.Emscripten.clang"
	},
	"schemaVersion": "3.0.2",
	"updatedAt": "2019-04-09T21:05:06.156Z",
	"devdoc": {
		"methods": {
			"MULTIPLIER_DIVISOR()": {
				"details": "Return the divisor used to correctly calculate multiplier.\tMultiplier stored throughout AO contracts covers 6 decimals,\tso 1 is 1000000, 0.023 is 23000, etc"
			},
			"PERCENTAGE_DIVISOR()": {
				"details": "Return the divisor used to correctly calculate percentage.\tPercentage stored throughout AO contracts covers 4 decimals,\tso 1% is 10000, 1.25% is 12500, etc"
			},
			"calculateMaximumBurnAmount(uint256,uint256,uint256)": {
				"details": "Calculate the maximum amount of Primordial an account can burn\t_primordialBalance = P\t_currentWeightedMultiplier = M\t_maximumMultiplier = S\t_amountToBurn = B\tB = ((S x P) - (P x M)) / S",
				"params": {
					"_currentWeightedMultiplier": "Account's current weighted multiplier",
					"_maximumMultiplier": "The maximum multiplier of this account",
					"_primordialBalance": "Account's primordial ion balance"
				},
				"return": "The maximum burn amount"
			},
			"calculateMultiplierAfterBurn(uint256,uint256,uint256)": {
				"details": "Calculate the new multiplier after burning primordial ion\t_primordialBalance = P\t_currentWeightedMultiplier = M\t_amountToBurn = B\t_newMultiplier = E\tE = (P x M) / (P - B)",
				"params": {
					"_amountToBurn": "The amount of primordial ion to burn",
					"_currentWeightedMultiplier": "Account's current weighted multiplier",
					"_primordialBalance": "Account's primordial ion balance"
				},
				"return": "The new multiplier"
			},
			"calculateMultiplierAfterConversion(uint256,uint256,uint256)": {
				"details": "Calculate the new multiplier after converting network ion to primordial ion\t_primordialBalance = P\t_currentWeightedMultiplier = M\t_amountToConvert = C\t_newMultiplier = E\tE = (P x M) / (P + C)",
				"params": {
					"_amountToConvert": "The amount of network ion to convert",
					"_currentWeightedMultiplier": "Account's current weighted multiplier",
					"_primordialBalance": "Account's primordial ion balance"
				},
				"return": "The new multiplier"
			},
			"calculateNetworkBonusAmount(uint256,uint256,uint256,uint256,uint256)": {
				"details": "Calculate the bonus amount of network ion on a given lot\tAO Bonus Amount = B% x P",
				"params": {
					"_endingMultiplier": "The ending Network ion bonus multiplier",
					"_purchaseAmount": "The amount of primordial ion intended to be purchased",
					"_startingMultiplier": "The starting Network ion bonus multiplier",
					"_totalPrimordialMintable": "Total Primordial ion intable",
					"_totalPrimordialMinted": "Total Primordial ion minted so far"
				},
				"return": "The bonus percentage"
			},
			"calculateNetworkBonusPercentage(uint256,uint256,uint256,uint256,uint256)": {
				"details": "Calculate the bonus percentage of network ion on a given lot\tTotal Primordial Mintable = T\tTotal Primordial Minted = M\tStarting Network Bonus Multiplier = Bs\tEnding Network Bonus Multiplier = Be\tTo Purchase = P\tAO Bonus % = B% = (1 - ((M + P/2) / T)) x (Bs-Be)",
				"params": {
					"_endingMultiplier": "The ending Network ion bonus multiplier",
					"_purchaseAmount": "The amount of primordial ion intended to be purchased",
					"_startingMultiplier": "The starting Network ion bonus multiplier",
					"_totalPrimordialMintable": "Total Primordial ion intable",
					"_totalPrimordialMinted": "Total Primordial ion minted so far"
				},
				"return": "The bonus percentage"
			},
			"calculatePrimordialMultiplier(uint256,uint256,uint256,uint256,uint256)": {
				"details": "Calculate the primordial ion multiplier on a given lot\tTotal Primordial Mintable = T\tTotal Primordial Minted = M\tStarting Multiplier = S\tEnding Multiplier = E\tTo Purchase = P\tMultiplier for next Lot of Amount = (1 - ((M + P/2) / T)) x (S-E)",
				"params": {
					"_endingMultiplier": "The ending multiplier in (10 ** 6)",
					"_purchaseAmount": "The amount of primordial ion intended to be purchased",
					"_startingMultiplier": "The starting multiplier in (10 ** 6)",
					"_totalPrimordialMintable": "Total Primordial ion mintable",
					"_totalPrimordialMinted": "Total Primordial ion minted so far"
				},
				"return": "The multiplier in (10 ** 6)"
			},
			"calculateWeightedMultiplier(uint256,uint256,uint256,uint256)": {
				"details": "Calculate the new weighted multiplier when adding `_additionalPrimordialAmount` at `_additionalWeightedMultiplier` to the current `_currentPrimordialBalance` at `_currentWeightedMultiplier`",
				"params": {
					"_additionalPrimordialAmount": "The primordial ion amount to be added",
					"_additionalWeightedMultiplier": "The weighted multiplier to be added",
					"_currentPrimordialBalance": "Account's current primordial ion balance",
					"_currentWeightedMultiplier": "Account's current weighted multiplier"
				},
				"return": "the new primordial weighted multiplier"
			},
			"deployName(string,address,string,string,string,bytes32,address)": {
				"details": "deploy a Name",
				"params": {
					"_contentId": "The contentId related to this Name",
					"_datHash": "The datHash of this Name",
					"_database": "The database for this Name",
					"_keyValue": "The key/value pair to be checked on the database",
					"_name": "The name of the Name",
					"_nameTAOVaultAddress": "The address of NameTAOVault",
					"_originId": "The eth address the creates the Name"
				}
			},
			"deployTAO(string,address,string,string,string,bytes32,address)": {
				"details": "deploy a TAO",
				"params": {
					"_contentId": "The contentId related to this TAO",
					"_datHash": "The datHash of this TAO",
					"_database": "The database for this TAO",
					"_keyValue": "The key/value pair to be checked on the database",
					"_name": "The name of the TAO",
					"_nameTAOVaultAddress": "The address of NameTAOVault",
					"_originId": "The Name ID the creates the TAO"
				}
			},
			"isName(address)": {
				"details": "Check whether or not the given Name ID is a Name",
				"params": {
					"_nameId": "The ID of the Name"
				},
				"return": "true if yes. false otherwise"
			},
			"isTAO(address)": {
				"details": "Check whether or not the given TAO ID is a TAO",
				"params": {
					"_taoId": "The ID of the TAO"
				},
				"return": "true if yes. false otherwise"
			},
			"isTheAO(address,address,address)": {
				"details": "Checks if the calling contract address is The AO\tOR\tIf The AO is set to a Name/TAO, then check if calling address is the Advocate",
				"params": {
					"_nameTAOPositionAddress": "The address of NameTAOPosition",
					"_sender": "The address to check",
					"_theAO": "The AO address"
				},
				"return": "true if yes, false otherwise"
			},
			"isValidERC20TokenAddress(address)": {
				"details": "Check if `_tokenAddress` is a valid ERC20 Token address",
				"params": {
					"_tokenAddress": "The ERC20 Token address to check"
				}
			},
			"numDigits(uint256)": {
				"details": "count num of digits",
				"params": {
					"number": "uint256 of the nuumber to be checked"
				},
				"return": "uint8 num of digits"
			}
		},
		"title": "AOLibrary"
	},
	"userdoc": {
		"methods": {}
	}
}