{
	"contractName": "AOLibrary",
	"abi": [
		{
			"constant": true,
			"inputs": [
				{
					"name": "_taoId",
					"type": "address"
				}
			],
			"name": "isTAO",
			"outputs": [
				{
					"name": "",
					"type": "bool"
				}
			],
			"payable": false,
			"stateMutability": "view",
			"type": "function"
		},
		{
			"constant": true,
			"inputs": [
				{
					"name": "_nameId",
					"type": "address"
				}
			],
			"name": "isName",
			"outputs": [
				{
					"name": "",
					"type": "bool"
				}
			],
			"payable": false,
			"stateMutability": "view",
			"type": "function"
		},
		{
			"constant": true,
			"inputs": [
				{
					"name": "_sender",
					"type": "address"
				},
				{
					"name": "_theAO",
					"type": "address"
				},
				{
					"name": "_nameTAOPositionAddress",
					"type": "address"
				}
			],
			"name": "isTheAO",
			"outputs": [
				{
					"name": "",
					"type": "bool"
				}
			],
			"payable": false,
			"stateMutability": "view",
			"type": "function"
		},
		{
			"constant": true,
			"inputs": [],
			"name": "PERCENTAGE_DIVISOR",
			"outputs": [
				{
					"name": "",
					"type": "uint256"
				}
			],
			"payable": false,
			"stateMutability": "pure",
			"type": "function"
		},
		{
			"constant": true,
			"inputs": [],
			"name": "MULTIPLIER_DIVISOR",
			"outputs": [
				{
					"name": "",
					"type": "uint256"
				}
			],
			"payable": false,
			"stateMutability": "pure",
			"type": "function"
		},
		{
			"constant": true,
			"inputs": [
				{
					"name": "_treasuryAddress",
					"type": "address"
				},
				{
					"name": "_networkIntegerAmount",
					"type": "uint256"
				},
				{
					"name": "_networkFractionAmount",
					"type": "uint256"
				},
				{
					"name": "_denomination",
					"type": "bytes8"
				},
				{
					"name": "_primordialAmount",
					"type": "uint256"
				},
				{
					"name": "_baseChallenge",
					"type": "string"
				},
				{
					"name": "_encChallenge",
					"type": "string"
				},
				{
					"name": "_contentDatKey",
					"type": "string"
				},
				{
					"name": "_metadataDatKey",
					"type": "string"
				},
				{
					"name": "_fileSize",
					"type": "uint256"
				},
				{
					"name": "_profitPercentage",
					"type": "uint256"
				}
			],
			"name": "canStake",
			"outputs": [
				{
					"name": "",
					"type": "bool"
				}
			],
			"payable": false,
			"stateMutability": "view",
			"type": "function"
		},
		{
			"constant": true,
			"inputs": [
				{
					"name": "_treasuryAddress",
					"type": "address"
				},
				{
					"name": "_networkIntegerAmount",
					"type": "uint256"
				},
				{
					"name": "_networkFractionAmount",
					"type": "uint256"
				},
				{
					"name": "_denomination",
					"type": "bytes8"
				},
				{
					"name": "_primordialAmount",
					"type": "uint256"
				},
				{
					"name": "_stakedNetworkAmount",
					"type": "uint256"
				},
				{
					"name": "_stakedPrimordialAmount",
					"type": "uint256"
				},
				{
					"name": "_stakedFileSize",
					"type": "uint256"
				}
			],
			"name": "canUnstakePartial",
			"outputs": [
				{
					"name": "",
					"type": "bool"
				}
			],
			"payable": false,
			"stateMutability": "view",
			"type": "function"
		},
		{
			"constant": true,
			"inputs": [
				{
					"name": "_treasuryAddress",
					"type": "address"
				},
				{
					"name": "_isAOContentUsageType",
					"type": "bool"
				},
				{
					"name": "_fileSize",
					"type": "uint256"
				},
				{
					"name": "_stakedAmount",
					"type": "uint256"
				},
				{
					"name": "_networkIntegerAmount",
					"type": "uint256"
				},
				{
					"name": "_networkFractionAmount",
					"type": "uint256"
				},
				{
					"name": "_denomination",
					"type": "bytes8"
				},
				{
					"name": "_primordialAmount",
					"type": "uint256"
				}
			],
			"name": "canStakeExisting",
			"outputs": [
				{
					"name": "",
					"type": "bool"
				}
			],
			"payable": false,
			"stateMutability": "view",
			"type": "function"
		},
		{
			"constant": true,
			"inputs": [
				{
					"name": "_treasuryAddress",
					"type": "address"
				},
				{
					"name": "_price",
					"type": "uint256"
				},
				{
					"name": "_networkIntegerAmount",
					"type": "uint256"
				},
				{
					"name": "_networkFractionAmount",
					"type": "uint256"
				},
				{
					"name": "_denomination",
					"type": "bytes8"
				}
			],
			"name": "canBuy",
			"outputs": [
				{
					"name": "",
					"type": "bool"
				}
			],
			"payable": false,
			"stateMutability": "view",
			"type": "function"
		},
		{
			"constant": true,
			"inputs": [
				{
					"name": "_currentWeightedMultiplier",
					"type": "uint256"
				},
				{
					"name": "_currentPrimordialBalance",
					"type": "uint256"
				},
				{
					"name": "_additionalWeightedMultiplier",
					"type": "uint256"
				},
				{
					"name": "_additionalPrimordialAmount",
					"type": "uint256"
				}
			],
			"name": "calculateWeightedMultiplier",
			"outputs": [
				{
					"name": "",
					"type": "uint256"
				}
			],
			"payable": false,
			"stateMutability": "pure",
			"type": "function"
		},
		{
			"constant": true,
			"inputs": [
				{
					"name": "_callingContractAddress",
					"type": "address"
				},
				{
					"name": "_message",
					"type": "string"
				},
				{
					"name": "_v",
					"type": "uint8"
				},
				{
					"name": "_r",
					"type": "bytes32"
				},
				{
					"name": "_s",
					"type": "bytes32"
				}
			],
			"name": "getBecomeHostSignatureAddress",
			"outputs": [
				{
					"name": "",
					"type": "address"
				}
			],
			"payable": false,
			"stateMutability": "pure",
			"type": "function"
		},
		{
			"constant": true,
			"inputs": [
				{
					"name": "_callingContractAddress",
					"type": "address"
				},
				{
					"name": "_contentId",
					"type": "bytes32"
				},
				{
					"name": "_taoId",
					"type": "address"
				},
				{
					"name": "_taoContentState",
					"type": "bytes32"
				},
				{
					"name": "_v",
					"type": "uint8"
				},
				{
					"name": "_r",
					"type": "bytes32"
				},
				{
					"name": "_s",
					"type": "bytes32"
				}
			],
			"name": "getUpdateTAOContentStateSignatureAddress",
			"outputs": [
				{
					"name": "",
					"type": "address"
				}
			],
			"payable": false,
			"stateMutability": "pure",
			"type": "function"
		},
		{
			"constant": true,
			"inputs": [
				{
					"name": "_contentAddress",
					"type": "address"
				},
				{
					"name": "_earningAddress",
					"type": "address"
				},
				{
					"name": "_stakeId",
					"type": "bytes32"
				}
			],
			"name": "getContentMetrics",
			"outputs": [
				{
					"name": "",
					"type": "uint256"
				},
				{
					"name": "",
					"type": "uint256"
				},
				{
					"name": "",
					"type": "uint256"
				},
				{
					"name": "",
					"type": "uint256"
				},
				{
					"name": "",
					"type": "uint256"
				},
				{
					"name": "",
					"type": "uint256"
				}
			],
			"payable": false,
			"stateMutability": "view",
			"type": "function"
		},
		{
			"constant": true,
			"inputs": [
				{
					"name": "_contentAddress",
					"type": "address"
				},
				{
					"name": "_stakeId",
					"type": "bytes32"
				}
			],
			"name": "getStakingMetrics",
			"outputs": [
				{
					"name": "",
					"type": "uint256"
				},
				{
					"name": "",
					"type": "uint256"
				},
				{
					"name": "",
					"type": "uint256"
				}
			],
			"payable": false,
			"stateMutability": "view",
			"type": "function"
		},
		{
			"constant": true,
			"inputs": [
				{
					"name": "_earningAddress",
					"type": "address"
				},
				{
					"name": "_stakeId",
					"type": "bytes32"
				}
			],
			"name": "getEarningMetrics",
			"outputs": [
				{
					"name": "",
					"type": "uint256"
				},
				{
					"name": "",
					"type": "uint256"
				},
				{
					"name": "",
					"type": "uint256"
				}
			],
			"payable": false,
			"stateMutability": "view",
			"type": "function"
		},
		{
			"constant": true,
			"inputs": [
				{
					"name": "_purchaseAmount",
					"type": "uint256"
				},
				{
					"name": "_totalPrimordialMintable",
					"type": "uint256"
				},
				{
					"name": "_totalPrimordialMinted",
					"type": "uint256"
				},
				{
					"name": "_startingMultiplier",
					"type": "uint256"
				},
				{
					"name": "_endingMultiplier",
					"type": "uint256"
				}
			],
			"name": "calculatePrimordialMultiplier",
			"outputs": [
				{
					"name": "",
					"type": "uint256"
				}
			],
			"payable": false,
			"stateMutability": "pure",
			"type": "function"
		},
		{
			"constant": true,
			"inputs": [
				{
					"name": "_purchaseAmount",
					"type": "uint256"
				},
				{
					"name": "_totalPrimordialMintable",
					"type": "uint256"
				},
				{
					"name": "_totalPrimordialMinted",
					"type": "uint256"
				},
				{
					"name": "_startingMultiplier",
					"type": "uint256"
				},
				{
					"name": "_endingMultiplier",
					"type": "uint256"
				}
			],
			"name": "calculateNetworkTokenBonusPercentage",
			"outputs": [
				{
					"name": "",
					"type": "uint256"
				}
			],
			"payable": false,
			"stateMutability": "pure",
			"type": "function"
		},
		{
			"constant": true,
			"inputs": [
				{
					"name": "_purchaseAmount",
					"type": "uint256"
				},
				{
					"name": "_totalPrimordialMintable",
					"type": "uint256"
				},
				{
					"name": "_totalPrimordialMinted",
					"type": "uint256"
				},
				{
					"name": "_startingMultiplier",
					"type": "uint256"
				},
				{
					"name": "_endingMultiplier",
					"type": "uint256"
				}
			],
			"name": "calculateNetworkTokenBonusAmount",
			"outputs": [
				{
					"name": "",
					"type": "uint256"
				}
			],
			"payable": false,
			"stateMutability": "pure",
			"type": "function"
		},
		{
			"constant": true,
			"inputs": [
				{
					"name": "_primordialBalance",
					"type": "uint256"
				},
				{
					"name": "_currentWeightedMultiplier",
					"type": "uint256"
				},
				{
					"name": "_maximumMultiplier",
					"type": "uint256"
				}
			],
			"name": "calculateMaximumBurnAmount",
			"outputs": [
				{
					"name": "",
					"type": "uint256"
				}
			],
			"payable": false,
			"stateMutability": "pure",
			"type": "function"
		},
		{
			"constant": true,
			"inputs": [
				{
					"name": "_primordialBalance",
					"type": "uint256"
				},
				{
					"name": "_currentWeightedMultiplier",
					"type": "uint256"
				},
				{
					"name": "_amountToBurn",
					"type": "uint256"
				}
			],
			"name": "calculateMultiplierAfterBurn",
			"outputs": [
				{
					"name": "",
					"type": "uint256"
				}
			],
			"payable": false,
			"stateMutability": "pure",
			"type": "function"
		},
		{
			"constant": true,
			"inputs": [
				{
					"name": "_primordialBalance",
					"type": "uint256"
				},
				{
					"name": "_currentWeightedMultiplier",
					"type": "uint256"
				},
				{
					"name": "_amountToConvert",
					"type": "uint256"
				}
			],
			"name": "calculateMultiplierAfterConversion",
			"outputs": [
				{
					"name": "",
					"type": "uint256"
				}
			],
			"payable": false,
			"stateMutability": "pure",
			"type": "function"
		},
		{
			"constant": true,
			"inputs": [
				{
					"name": "_nameId",
					"type": "address"
				},
				{
					"name": "_logosAddress",
					"type": "address"
				},
				{
					"name": "_ethosAddress",
					"type": "address"
				},
				{
					"name": "_pathosAddress",
					"type": "address"
				}
			],
			"name": "getTAOCurrencyBalances",
			"outputs": [
				{
					"name": "",
					"type": "uint256"
				},
				{
					"name": "",
					"type": "uint256"
				},
				{
					"name": "",
					"type": "uint256"
				}
			],
			"payable": false,
			"stateMutability": "view",
			"type": "function"
		},
		{
			"constant": true,
			"inputs": [
				{
					"name": "_callingContractAddress",
					"type": "address"
				},
				{
					"name": "_data",
					"type": "string"
				},
				{
					"name": "_nonce",
					"type": "uint256"
				},
				{
					"name": "_v",
					"type": "uint8"
				},
				{
					"name": "_r",
					"type": "bytes32"
				},
				{
					"name": "_s",
					"type": "bytes32"
				}
			],
			"name": "getValidateSignatureAddress",
			"outputs": [
				{
					"name": "",
					"type": "address"
				}
			],
			"payable": false,
			"stateMutability": "pure",
			"type": "function"
		}
	],
	"bytecode": "0x611a9b610030600b82828239805160001a6073146000811461002057610022565bfe5b5030600052607381538281f30073000000000000000000000000000000000000000030146080604052600436106101305763ffffffff60e060020a6000350416631acc478a8114610135578063271b5311146101855780632d706a341461020f5780632fca54141461023757806332363e0a1461024b5780633d56dca31461026e5780634553c343146102d7578063455eb7771461030c5780634d5a1173146104415780636c4ef21e14610452578063749b7820146104855780637fbc9c55146104af5780638cf3313f146104c05780638f8bd64c146104d4578063a42f3f9d146104eb578063b625dd8714610511578063c35f4bbb1461053e578063caf2976514610555578063cf46827e1461055d578063cf7bb19214610574578063d661dd3114610555578063e9cfa745146105a9578063f66afcac146105c0575b600080fd5b610152600160a060020a03600435811690602435166044356105e0565b604080519687526020870195909552858501939093526060850191909152608084015260a0830152519081900360c00190f35b60408051602060046024803582810135601f81018590048502860185019096528585526101f3958335600160a060020a03169536956044949193909101919081908401838280828437509497505084359550505050602082013560ff16916040810135915060600135610636565b60408051600160a060020a039092168252519081900360200190f35b610223600160a060020a036004351661078d565b604080519115158252519081900360200190f35b610223600160a060020a0360043516610975565b61025c600435602435604435610b5a565b60408051918252519081900360200190f35b60408051602060046024803582810135601f81018590048502860185019096528585526101f3958335600160a060020a03169536956044949193909101919081908401838280828437509497505050833560ff1694505050602082013591604001359050610b93565b6102ee600160a060020a0360043516602435610ceb565b60408051938452602084019290925282820152519081900360600190f35b604080516020600460a43581810135601f8101849004840285018401909552848452610223948235600160a060020a031694602480359560443595606435600160c060020a03191695608435953695929460c494920191819084018382808284375050604080516020601f89358b018035918201839004830284018301909452808352979a99988101979196509182019450925082915084018382808284375050604080516020601f89358b018035918201839004830284018301909452808352979a99988101979196509182019450925082915084018382808284375050604080516020601f89358b018035918201839004830284018301909452808352979a999881019791965091820194509250829150840183828082843750949750508435955050506020909201359150610e979050565b61025c600435602435604435610f2b565b610223600160a060020a0360043516602435604435600160c060020a03196064351660843560a43560c43560e435610f60565b610223600160a060020a0360043516602435604435606435600160c060020a031960843516611118565b61025c6004356024356044356111b7565b61025c6004356024356044356064356111cc565b61025c600435602435604435606435608435611235565b6102ee600160a060020a03600435811690602435811690604435811690606435166112ea565b6101f3600160a060020a03600435811690602435906044351660643560ff6084351660a43560c4356114a8565b61025c6004356024356044356064356084356115c6565b61025c61164d565b6102ee600160a060020a0360043516602435611654565b610223600160a060020a0360043516602435151560443560643560843560a435600160c060020a031960c4351660e4356116fb565b61025c60043560243560443560643560843561187c565b610223600160a060020a03600435811690602435811690604435166118a7565b6000806000806000806000806000806000806105fc8f8e611654565b95509550955061060c8e8e610ceb565b9250925092508585858585859b509b509b509b509b509b5050505050505093975093979195509350565b6000808787876040516020018084600160a060020a0316600160a060020a03166c0100000000000000000000000002815260140183805190602001908083835b602083106106955780518252601f199092019160209182019101610676565b51815160209384036101000a60001901801990921691161790529201938452506040805180850381529382019081905283519395509350839290850191508083835b602083106106f65780518252601f1990920191602091820191016106d7565b51815160209384036101000a600019018019909216911617905260408051929094018290038220600080845283830180875282905260ff8d1684870152606084018c9052608084018b905294519097506001965060a080840196509194601f19820194509281900390910191865af1158015610776573d6000803e3d6000fd5b5050604051601f1901519998505050505050505050565b6000600160a060020a0382161580159061086f5750600082600160a060020a03166306fdde036040518163ffffffff1660e060020a028152600401600060405180830381600087803b1580156107e257600080fd5b505af11580156107f6573d6000803e3d6000fd5b505050506040513d6000823e601f3d908101601f19168201604052602081101561081f57600080fd5b81019080805164010000000081111561083757600080fd5b8201602081018481111561084a57600080fd5b815164010000000081118282018710171561086457600080fd5b505092919050505051115b80156108f757506000600160a060020a031682600160a060020a03166313866efa6040518163ffffffff1660e060020a028152600401602060405180830381600087803b1580156108bf57600080fd5b505af11580156108d3573d6000803e3d6000fd5b505050506040513d60208110156108e957600080fd5b5051600160a060020a031614155b801561096f575081600160a060020a0316638f940f636040518163ffffffff1660e060020a028152600401602060405180830381600087803b15801561093c57600080fd5b505af1158015610950573d6000803e3d6000fd5b505050506040513d602081101561096657600080fd5b505160ff166001145b92915050565b6000600160a060020a03821615801590610a575750600082600160a060020a03166306fdde036040518163ffffffff1660e060020a028152600401600060405180830381600087803b1580156109ca57600080fd5b505af11580156109de573d6000803e3d6000fd5b505050506040513d6000823e601f3d908101601f191682016040526020811015610a0757600080fd5b810190808051640100000000811115610a1f57600080fd5b82016020810184811115610a3257600080fd5b8151640100000000811182820187101715610a4c57600080fd5b505092919050505051115b8015610adf57506000600160a060020a031682600160a060020a03166313866efa6040518163ffffffff1660e060020a028152600401602060405180830381600087803b158015610aa757600080fd5b505af1158015610abb573d6000803e3d6000fd5b505050506040513d6020811015610ad157600080fd5b5051600160a060020a031614155b801561096f575081600160a060020a0316638f940f636040518163ffffffff1660e060020a028152600401602060405180830381600087803b158015610b2457600080fd5b505af1158015610b38573d6000803e3d6000fd5b505050506040513d6020811015610b4e57600080fd5b505160ff161592915050565b6000610b8b610b6f858463ffffffff61199816565b610b7f868663ffffffff6119aa16565b9063ffffffff6119d316565b949350505050565b60008086866040516020018083600160a060020a0316600160a060020a03166c0100000000000000000000000002815260140182805190602001908083835b60208310610bf15780518252601f199092019160209182019101610bd2565b6001836020036101000a038019825116818451168082178552505050505050905001925050506040516020818303038152906040526040518082805190602001908083835b60208310610c555780518252601f199092019160209182019101610c36565b51815160209384036101000a600019018019909216911617905260408051929094018290038220600080845283830180875282905260ff8d1684870152606084018c9052608084018b905294519097506001965060a080840196509194601f19820194509281900390910191865af1158015610cd5573d6000803e3d6000fd5b5050604051601f19015198975050505050505050565b600080600084600160a060020a0316639587085d856040518263ffffffff1660e060020a028152600401808260001916600019168152602001915050602060405180830381600087803b158015610d4157600080fd5b505af1158015610d55573d6000803e3d6000fd5b505050506040513d6020811015610d6b57600080fd5b5051604080517faace426d000000000000000000000000000000000000000000000000000000008152600481018790529051600160a060020a0388169163aace426d9160248083019260209291908290030181600087803b158015610dcf57600080fd5b505af1158015610de3573d6000803e3d6000fd5b505050506040513d6020811015610df957600080fd5b5051604080517f73dbf29a000000000000000000000000000000000000000000000000000000008152600481018890529051600160a060020a038916916373dbf29a9160248083019260209291908290030181600087803b158015610e5d57600080fd5b505af1158015610e71573d6000803e3d6000fd5b505050506040513d6020811015610e8757600080fd5b5051919450925090509250925092565b6000808751118015610eaa575060008651115b8015610eb7575060008551115b8015610ec4575060008451115b8015610ed05750600083115b8015610ef1575060008b1180610ee6575060008a115b80610ef15750600088115b8015610f0c5750610f068c8c8c8c8c886119e8565b15156001145b8015610f1b5750620f42408211155b9c9b505050505050505050505050565b6000610b8b82610b7f610f44878763ffffffff6119aa16565b610f54868963ffffffff6119aa16565b9063ffffffff61199816565b600080881180610f705750600087115b801561100957506040805160e360020a63042fb71d028152600481018a905260248101899052600160c060020a0319881660448201529051600160a060020a038b169163217db8e89160648083019260209291908290030181600087803b158015610fda57600080fd5b505af1158015610fee573d6000803e3d6000fd5b505050506040513d602081101561100457600080fd5b505184105b8061101357508483105b806110f2575060008811806110285750600087115b80156110f25750816110f0611043858863ffffffff61199816565b6040805160e360020a63042fb71d028152600481018d9052602481018c9052600160c060020a03198b16604482015290516110e491600160a060020a038f169163217db8e8916064808201926020929091908290030181600087803b1580156110ab57600080fd5b505af11580156110bf573d6000803e3d6000fd5b505050506040513d60208110156110d557600080fd5b5051889063ffffffff61199816565b9063ffffffff611a6216565b105b806110fb575060005b156111085750600061110c565b5060015b98975050505050505050565b6040805160e360020a63042fb71d0281526004810185905260248101849052600160c060020a03198316604482015290516000918691600160a060020a0389169163217db8e891606480830192602092919082900301818887803b15801561117f57600080fd5b505af1158015611193573d6000803e3d6000fd5b505050506040513d60208110156111a957600080fd5b505110159695505050505050565b6000610b8b610b6f858463ffffffff611a6216565b600080600080871115611227576111fc6111ec868663ffffffff6119aa16565b6110e4898963ffffffff6119aa16565b915061120e868563ffffffff611a6216565b9050611220828263ffffffff6119d316565b925061122b565b8492505b5050949350505050565b600080600080881180156112585750611254878763ffffffff61199816565b8811155b156112da5761127e61127189600263ffffffff6119d316565b879063ffffffff611a6216565b91506112d0620f4240610b7f61129a888863ffffffff61199816565b6112c46112b48c610b7f620f42408a63ffffffff6119aa16565b620f42409063ffffffff61199816565b9063ffffffff6119aa16565b90508092506112df565b600092505b505095945050505050565b600080600085600160a060020a031663985e4cd0886040518263ffffffff1660e060020a0281526004018082600160a060020a0316600160a060020a03168152602001915050602060405180830381600087803b15801561134a57600080fd5b505af115801561135e573d6000803e3d6000fd5b505050506040513d602081101561137457600080fd5b5051604080517f70a08231000000000000000000000000000000000000000000000000000000008152600160a060020a038a811660048301529151918816916370a08231916024808201926020929091908290030181600087803b1580156113db57600080fd5b505af11580156113ef573d6000803e3d6000fd5b505050506040513d602081101561140557600080fd5b5051604080517f70a08231000000000000000000000000000000000000000000000000000000008152600160a060020a038b811660048301529151918816916370a08231916024808201926020929091908290030181600087803b15801561146c57600080fd5b505af1158015611480573d6000803e3d6000fd5b505050506040513d602081101561149657600080fd5b50519199909850909650945050505050565b60408051600160a060020a038981166c01000000000000000000000000908102602080850191909152603484018b90529189160260548301526068808301889052835180840390910181526088909201928390528151600093849392909182918401908083835b6020831061152e5780518252601f19909201916020918201910161150f565b51815160209384036101000a600019018019909216911617905260408051929094018290038220600080845283830180875282905260ff8d1684870152606084018c9052608084018b905294519097506001965060a080840196509194601f19820194509281900390910191865af11580156115ae573d6000803e3d6000fd5b5050604051601f1901519a9950505050505050505050565b600080600080881180156115e957506115e5878763ffffffff61199816565b8811155b156112da5761160261127189600263ffffffff6119d316565b9150611631611617868663ffffffff61199816565b6112c46112b48a610b7f620f42408863ffffffff6119aa16565b905061164681620f424063ffffffff6119d316565b92506112df565b620f424090565b60008060008060008087600160a060020a031663e2499b98886040518263ffffffff1660e060020a02815260040180826000191660001916815260200191505061010060405180830381600087803b1580156116af57600080fd5b505af11580156116c3573d6000803e3d6000fd5b505050506040513d6101008110156116da57600080fd5b5060408101516060820151608090920151909a919950975095505050505050565b600087156117dc57866117d3876110e4858d600160a060020a031663217db8e88b8b8b6040518463ffffffff1660e060020a028152600401808481526020018381526020018277ffffffffffffffffffffffffffffffffffffffffffffffff191677ffffffffffffffffffffffffffffffffffffffffffffffff191681526020019350505050602060405180830381600087803b15801561179b57600080fd5b505af11580156117af573d6000803e3d6000fd5b505050506040513d60208110156117c557600080fd5b50519063ffffffff611a6216565b1015905061110c565b86611874876110e4858d600160a060020a031663217db8e88b8b8b6040518463ffffffff1660e060020a028152600401808481526020018381526020018277ffffffffffffffffffffffffffffffffffffffffffffffff191677ffffffffffffffffffffffffffffffffffffffffffffffff191681526020019350505050602060405180830381600087803b15801561179b57600080fd5b14905061110c565b600080600061188e8888888888611235565b915061110c620f4240610b7f848b63ffffffff6119aa16565b600082600160a060020a031684600160a060020a03161480610b8b57506118cd83610975565b806118dc57506118dc8361078d565b80156118f05750600160a060020a03821615155b8015610b8b5750604080517f71ce52ed000000000000000000000000000000000000000000000000000000008152600160a060020a03868116600483015285811660248301529151918416916371ce52ed916044808201926020929091908290030181600087803b15801561196457600080fd5b505af1158015611978573d6000803e3d6000fd5b505050506040513d602081101561198e57600080fd5b5051949350505050565b6000828211156119a457fe5b50900390565b60008215156119bb5750600061096f565b508181028183828115156119cb57fe5b041461096f57fe5b600081838115156119e057fe5b049392505050565b6040805160e360020a63042fb71d0281526004810187905260248101869052600160c060020a03198516604482015290516000918391611a55918691600160a060020a038c169163217db8e891606480830192602092919082900301818a87803b15801561179b57600080fd5b1015979650505050505050565b8181018281101561096f57fe00a165627a7a7230582013a4474ce4ef056fc8750f4d8f5e83ba6e361ba0ef0d22999b0cc98e90a225160029",
	"source": "pragma solidity ^0.4.24;\n\nimport './SafeMath.sol';\nimport './AOTreasury.sol';\nimport './AOContent.sol';\nimport './AOEarning.sol';\nimport './AOSettingAttribute.sol';\nimport './AOUintSetting.sol';\nimport './AOBoolSetting.sol';\nimport './AOAddressSetting.sol';\nimport './AOBytesSetting.sol';\nimport './AOStringSetting.sol';\nimport './Name.sol';\nimport './TAO.sol';\nimport './NameFactory.sol';\nimport './AOSetting.sol';\nimport './TAOCurrency.sol';\nimport './Logos.sol';\nimport './NameTAOPosition.sol';\n\n/**\n * @title AOLibrary\n */\nlibrary AOLibrary {\n\tusing SafeMath for uint256;\n\n\tuint256 constant private _MULTIPLIER_DIVISOR = 10 ** 6; // 1000000 = 1\n\tuint256 constant private _PERCENTAGE_DIVISOR = 10 ** 6; // 100% = 1000000\n\n\t/**\n\t * @dev Check whether or not the given TAO ID is a TAO\n\t * @param _taoId The ID of the TAO\n\t * @return true if yes. false otherwise\n\t */\n\tfunction isTAO(address _taoId) public view returns (bool) {\n\t\treturn (_taoId != address(0) && bytes(TAO(_taoId).name()).length > 0 && TAO(_taoId).originId() != address(0) && TAO(_taoId).typeId() == 0);\n\t}\n\n\t/**\n\t * @dev Check whether or not the given Name ID is a Name\n\t * @param _nameId The ID of the Name\n\t * @return true if yes. false otherwise\n\t */\n\tfunction isName(address _nameId) public view returns (bool) {\n\t\treturn (_nameId != address(0) && bytes(TAO(_nameId).name()).length > 0 && Name(_nameId).originId() != address(0) && Name(_nameId).typeId() == 1);\n\t}\n\n\t/**\n\t * @dev Checks if the calling contract address is The AO\n\t *\t\tOR\n\t *\t\tIf The AO is set to a Name/TAO, then check if calling address is the Advocate\n\t * @param _sender The address to check\n\t * @param _theAO The AO address\n\t * @param _nameTAOPositionAddress The address of NameTAOPosition\n\t * @return true if yes, false otherwise\n\t */\n\tfunction isTheAO(address _sender, address _theAO, address _nameTAOPositionAddress) public view returns (bool) {\n\t\treturn (_sender == _theAO ||\n\t\t\t(\n\t\t\t\t(isTAO(_theAO) || isName(_theAO)) &&\n\t\t\t\t_nameTAOPositionAddress != address(0) &&\n\t\t\t\tNameTAOPosition(_nameTAOPositionAddress).senderIsAdvocate(_sender, _theAO)\n\t\t\t)\n\t\t);\n\t}\n\n\t/**\n\t * @dev Return the divisor used to correctly calculate percentage.\n\t *\t\tPercentage stored throughout AO contracts covers 4 decimals,\n\t *\t\tso 1% is 10000, 1.25% is 12500, etc\n\t */\n\tfunction PERCENTAGE_DIVISOR() public pure returns (uint256) {\n\t\treturn _PERCENTAGE_DIVISOR;\n\t}\n\n\t/**\n\t * @dev Return the divisor used to correctly calculate multiplier.\n\t *\t\tMultiplier stored throughout AO contracts covers 6 decimals,\n\t *\t\tso 1 is 1000000, 0.023 is 23000, etc\n\t */\n\tfunction MULTIPLIER_DIVISOR() public pure returns (uint256) {\n\t\treturn _MULTIPLIER_DIVISOR;\n\t}\n\n\t/**\n\t * @dev Check whether or not content creator can stake a content based on the provided params\n\t * @param _treasuryAddress AO treasury contract address\n\t * @param _networkIntegerAmount The integer amount of network token to stake\n\t * @param _networkFractionAmount The fraction amount of network token to stake\n\t * @param _denomination The denomination of the network token, i.e ao, kilo, mega, etc.\n\t * @param _primordialAmount The amount of primordial Token to stake\n\t * @param _baseChallenge The base challenge string (PUBLIC KEY) of the content\n\t * @param _encChallenge The encrypted challenge string (PUBLIC KEY) of the content unique to the host\n\t * @param _contentDatKey The dat key of the content\n\t * @param _metadataDatKey The dat key of the content's metadata\n\t * @param _fileSize The size of the file\n\t * @param _profitPercentage The percentage of profit the stake owner's media will charge\n\t * @return true if yes. false otherwise\n\t */\n\tfunction canStake(address _treasuryAddress,\n\t\tuint256 _networkIntegerAmount,\n\t\tuint256 _networkFractionAmount,\n\t\tbytes8 _denomination,\n\t\tuint256 _primordialAmount,\n\t\tstring _baseChallenge,\n\t\tstring _encChallenge,\n\t\tstring _contentDatKey,\n\t\tstring _metadataDatKey,\n\t\tuint256 _fileSize,\n\t\tuint256 _profitPercentage) public view returns (bool) {\n\t\treturn (\n\t\t\tbytes(_baseChallenge).length > 0 &&\n\t\t\tbytes(_encChallenge).length > 0 &&\n\t\t\tbytes(_contentDatKey).length > 0 &&\n\t\t\tbytes(_metadataDatKey).length > 0 &&\n\t\t\t_fileSize > 0 &&\n\t\t\t(_networkIntegerAmount > 0 || _networkFractionAmount > 0 || _primordialAmount > 0) &&\n\t\t\t_stakeAmountValid(_treasuryAddress, _networkIntegerAmount, _networkFractionAmount, _denomination, _primordialAmount, _fileSize) == true &&\n\t\t\t_profitPercentage <= _PERCENTAGE_DIVISOR\n\t\t);\n\t}\n\n\t/**\n\t * @dev Check whether or the requested unstake amount is valid\n\t * @param _treasuryAddress AO treasury contract address\n\t * @param _networkIntegerAmount The integer amount of the network token\n\t * @param _networkFractionAmount The fraction amount of the network token\n\t * @param _denomination The denomination of the the network token\n\t * @param _primordialAmount The amount of primordial token\n\t * @param _stakedNetworkAmount The current staked network token amount\n\t * @param _stakedPrimordialAmount The current staked primordial token amount\n\t * @param _stakedFileSize The file size of the staked content\n\t * @return true if can unstake, false otherwise\n\t */\n\tfunction canUnstakePartial(\n\t\taddress _treasuryAddress,\n\t\tuint256 _networkIntegerAmount,\n\t\tuint256 _networkFractionAmount,\n\t\tbytes8 _denomination,\n\t\tuint256 _primordialAmount,\n\t\tuint256 _stakedNetworkAmount,\n\t\tuint256 _stakedPrimordialAmount,\n\t\tuint256 _stakedFileSize) public view returns (bool) {\n\t\tif (\n\t\t\t(_denomination.length > 0 &&\n\t\t\t\t(_networkIntegerAmount > 0 || _networkFractionAmount > 0) &&\n\t\t\t\t_stakedNetworkAmount < AOTreasury(_treasuryAddress).toBase(_networkIntegerAmount, _networkFractionAmount, _denomination)\n\t\t\t) ||\n\t\t\t_stakedPrimordialAmount < _primordialAmount ||\n\t\t\t(\n\t\t\t\t_denomination.length > 0\n\t\t\t\t\t&& (_networkIntegerAmount > 0 || _networkFractionAmount > 0)\n\t\t\t\t\t&& (_stakedNetworkAmount.sub(AOTreasury(_treasuryAddress).toBase(_networkIntegerAmount, _networkFractionAmount, _denomination)).add(_stakedPrimordialAmount.sub(_primordialAmount)) < _stakedFileSize)\n\t\t\t) ||\n\t\t\t( _denomination.length == 0 && _networkIntegerAmount == 0 && _networkFractionAmount == 0 && _primordialAmount > 0 && _stakedPrimordialAmount.sub(_primordialAmount) < _stakedFileSize)\n\t\t) {\n\t\t\treturn false;\n\t\t} else {\n\t\t\treturn true;\n\t\t}\n\t}\n\n\t/**\n\t * @dev Check whether the network token and/or primordial token is adequate to pay for existing staked content\n\t * @param _treasuryAddress AO treasury contract address\n\t * @param _isAOContentUsageType whether or not the content is of AO Content usage type\n\t * @param _fileSize The size of the file\n\t * @param _stakedAmount The total staked amount\n\t * @param _networkIntegerAmount The integer amount of the network token\n\t * @param _networkFractionAmount The fraction amount of the network token\n\t * @param _denomination The denomination of the the network token\n\t * @param _primordialAmount The amount of primordial token\n\t * @return true when the amount is sufficient, false otherwise\n\t */\n\tfunction canStakeExisting(\n\t\taddress _treasuryAddress,\n\t\tbool _isAOContentUsageType,\n\t\tuint256 _fileSize,\n\t\tuint256 _stakedAmount,\n\t\tuint256 _networkIntegerAmount,\n\t\tuint256 _networkFractionAmount,\n\t\tbytes8 _denomination,\n\t\tuint256 _primordialAmount\n\t) public view returns (bool) {\n\t\tif (_isAOContentUsageType) {\n\t\t\treturn AOTreasury(_treasuryAddress).toBase(_networkIntegerAmount, _networkFractionAmount, _denomination).add(_primordialAmount).add(_stakedAmount) >= _fileSize;\n\t\t} else {\n\t\t\treturn AOTreasury(_treasuryAddress).toBase(_networkIntegerAmount, _networkFractionAmount, _denomination).add(_primordialAmount).add(_stakedAmount) == _fileSize;\n\t\t}\n\t}\n\n\t/**\n\t * @dev Check whether the network token is adequate to pay for existing staked content\n\t * @param _treasuryAddress AO treasury contract address\n\t * @param _price The price of the content\n\t * @param _networkIntegerAmount The integer amount of the network token\n\t * @param _networkFractionAmount The fraction amount of the network token\n\t * @param _denomination The denomination of the the network token\n\t * @return true when the amount is sufficient, false otherwise\n\t */\n\tfunction canBuy(address _treasuryAddress, uint256 _price, uint256 _networkIntegerAmount, uint256 _networkFractionAmount, bytes8 _denomination) public view returns (bool) {\n\t\treturn AOTreasury(_treasuryAddress).toBase(_networkIntegerAmount, _networkFractionAmount, _denomination) >= _price;\n\t}\n\n\t/**\n\t * @dev Calculate the new weighted multiplier when adding `_additionalPrimordialAmount` at `_additionalWeightedMultiplier` to the current `_currentPrimordialBalance` at `_currentWeightedMultiplier`\n\t * @param _currentWeightedMultiplier Account's current weighted multiplier\n\t * @param _currentPrimordialBalance Account's current primordial token balance\n\t * @param _additionalWeightedMultiplier The weighted multiplier to be added\n\t * @param _additionalPrimordialAmount The primordial token amount to be added\n\t * @return the new primordial weighted multiplier\n\t */\n\tfunction calculateWeightedMultiplier(uint256 _currentWeightedMultiplier, uint256 _currentPrimordialBalance, uint256 _additionalWeightedMultiplier, uint256 _additionalPrimordialAmount) public pure returns (uint256) {\n\t\tif (_currentWeightedMultiplier > 0) {\n\t\t\tuint256 _totalWeightedTokens = (_currentWeightedMultiplier.mul(_currentPrimordialBalance)).add(_additionalWeightedMultiplier.mul(_additionalPrimordialAmount));\n\t\t\tuint256 _totalTokens = _currentPrimordialBalance.add(_additionalPrimordialAmount);\n\t\t\treturn _totalWeightedTokens.div(_totalTokens);\n\t\t} else {\n\t\t\treturn _additionalWeightedMultiplier;\n\t\t}\n\t}\n\n\t/**\n\t * @dev Return the address that signed the message when a node wants to become a host\n\t * @param _callingContractAddress the address of the calling contract\n\t * @param _message the message that was signed\n\t * @param _v part of the signature\n\t * @param _r part of the signature\n\t * @param _s part of the signature\n\t * @return the address that signed the message\n\t */\n\tfunction getBecomeHostSignatureAddress(address _callingContractAddress, string _message, uint8 _v, bytes32 _r, bytes32 _s) public pure returns (address) {\n\t\tbytes32 _hash = keccak256(abi.encodePacked(_callingContractAddress, _message));\n\t\treturn ecrecover(_hash, _v, _r, _s);\n\t}\n\n\t/**\n\t * @dev Return the address that signed the TAO content state update\n\t * @param _callingContractAddress the address of the calling contract\n\t * @param _contentId the ID of the content\n\t * @param _taoId the ID of the TAO\n\t * @param _taoContentState the TAO Content State value, i.e Submitted, Pending Review, or Accepted to TAO\n\t * @param _v part of the signature\n\t * @param _r part of the signature\n\t * @param _s part of the signature\n\t * @return the address that signed the message\n\t */\n\tfunction getUpdateTAOContentStateSignatureAddress(address _callingContractAddress, bytes32 _contentId, address _taoId, bytes32 _taoContentState, uint8 _v, bytes32 _r, bytes32 _s) public pure returns (address) {\n\t\tbytes32 _hash = keccak256(abi.encodePacked(_callingContractAddress, _contentId, _taoId, _taoContentState));\n\t\treturn ecrecover(_hash, _v, _r, _s);\n\t}\n\n\t/**\n\t * @dev Return the staking and earning information of a stake ID\n\t * @param _contentAddress The address of AOContent\n\t * @param _earningAddress The address of AOEarning\n\t * @param _stakeId The ID of the staked content\n\t * @return the network base token amount staked for this content\n\t * @return the primordial token amount staked for this content\n\t * @return the primordial weighted multiplier of the staked content\n\t * @return the total earning from staking this content\n\t * @return the total earning from hosting this content\n\t * @return the total The AO earning of this content\n\t */\n\tfunction getContentMetrics(address _contentAddress, address _earningAddress, bytes32 _stakeId) public view returns (uint256, uint256, uint256, uint256, uint256, uint256) {\n\t\t(uint256 networkAmount, uint256 primordialAmount, uint256 primordialWeightedMultiplier) = getStakingMetrics(_contentAddress, _stakeId);\n\t\t(uint256 totalStakeEarning, uint256 totalHostEarning, uint256 totalTheAOEarning) = getEarningMetrics(_earningAddress, _stakeId);\n\t\treturn (\n\t\t\tnetworkAmount,\n\t\t\tprimordialAmount,\n\t\t\tprimordialWeightedMultiplier,\n\t\t\ttotalStakeEarning,\n\t\t\ttotalHostEarning,\n\t\t\ttotalTheAOEarning\n\t\t);\n\t}\n\n\t/**\n\t * @dev Return the staking information of a stake ID\n\t * @param _contentAddress The address of AOContent\n\t * @param _stakeId The ID of the staked content\n\t * @return the network base token amount staked for this content\n\t * @return the primordial token amount staked for this content\n\t * @return the primordial weighted multiplier of the staked content\n\t */\n\tfunction getStakingMetrics(address _contentAddress, bytes32 _stakeId) public view returns (uint256, uint256, uint256) {\n\t\t(,, uint256 networkAmount, uint256 primordialAmount, uint256 primordialWeightedMultiplier,,,) = AOContent(_contentAddress).stakedContentById(_stakeId);\n\t\treturn (\n\t\t\tnetworkAmount,\n\t\t\tprimordialAmount,\n\t\t\tprimordialWeightedMultiplier\n\t\t);\n\t}\n\n\t/**\n\t * @dev Return the earning information of a stake ID\n\t * @param _earningAddress The address of AOEarning\n\t * @param _stakeId The ID of the staked content\n\t * @return the total earning from staking this content\n\t * @return the total earning from hosting this content\n\t * @return the total The AO earning of this content\n\t */\n\tfunction getEarningMetrics(address _earningAddress, bytes32 _stakeId) public view returns (uint256, uint256, uint256) {\n\t\treturn (\n\t\t\tAOEarning(_earningAddress).totalStakedContentStakeEarning(_stakeId),\n\t\t\tAOEarning(_earningAddress).totalStakedContentHostEarning(_stakeId),\n\t\t\tAOEarning(_earningAddress).totalStakedContentTheAOEarning(_stakeId)\n\t\t);\n\t}\n\n\t/**\n\t * @dev Calculate the primordial token multiplier on a given lot\n\t *\t\tTotal Primordial Mintable = T\n\t *\t\tTotal Primordial Minted = M\n\t *\t\tStarting Multiplier = S\n\t *\t\tEnding Multiplier = E\n\t *\t\tTo Purchase = P\n\t *\t\tMultiplier for next Lot of Amount = (1 - ((M + P/2) / T)) x (S-E)\n\t *\n\t * @param _purchaseAmount The amount of primordial token intended to be purchased\n\t * @param _totalPrimordialMintable Total Primordial token intable\n\t * @param _totalPrimordialMinted Total Primordial token minted so far\n\t * @param _startingMultiplier The starting multiplier in (10 ** 6)\n\t * @param _endingMultiplier The ending multiplier in (10 ** 6)\n\t * @return The multiplier in (10 ** 6)\n\t */\n\tfunction calculatePrimordialMultiplier(uint256 _purchaseAmount, uint256 _totalPrimordialMintable, uint256 _totalPrimordialMinted, uint256 _startingMultiplier, uint256 _endingMultiplier) public pure returns (uint256) {\n\t\tif (_purchaseAmount > 0 && _purchaseAmount <= _totalPrimordialMintable.sub(_totalPrimordialMinted)) {\n\t\t\t/**\n\t\t\t * Let temp = M + (P/2)\n\t\t\t * Multiplier = (1 - (temp / T)) x (S-E)\n\t\t\t */\n\t\t\tuint256 temp = _totalPrimordialMinted.add(_purchaseAmount.div(2));\n\n\t\t\t/**\n\t\t\t * Multiply multiplier with _MULTIPLIER_DIVISOR/_MULTIPLIER_DIVISOR to account for 6 decimals\n\t\t\t * so, Multiplier = (_MULTIPLIER_DIVISOR/_MULTIPLIER_DIVISOR) * (1 - (temp / T)) * (S-E)\n\t\t\t * Multiplier = ((_MULTIPLIER_DIVISOR * (1 - (temp / T))) * (S-E)) / _MULTIPLIER_DIVISOR\n\t\t\t * Multiplier = ((_MULTIPLIER_DIVISOR - ((_MULTIPLIER_DIVISOR * temp) / T)) * (S-E)) / _MULTIPLIER_DIVISOR\n\t\t\t * Take out the division by _MULTIPLIER_DIVISOR for now and include in later calculation\n\t\t\t * Multiplier = (_MULTIPLIER_DIVISOR - ((_MULTIPLIER_DIVISOR * temp) / T)) * (S-E)\n\t\t\t */\n\t\t\tuint256 multiplier = (_MULTIPLIER_DIVISOR.sub(_MULTIPLIER_DIVISOR.mul(temp).div(_totalPrimordialMintable))).mul(_startingMultiplier.sub(_endingMultiplier));\n\t\t\t/**\n\t\t\t * Since _startingMultiplier and _endingMultiplier are in 6 decimals\n\t\t\t * Need to divide multiplier by _MULTIPLIER_DIVISOR\n\t\t\t */\n\t\t\treturn multiplier.div(_MULTIPLIER_DIVISOR);\n\t\t} else {\n\t\t\treturn 0;\n\t\t}\n\t}\n\n\t/**\n\t * @dev Calculate the bonus percentage of network token on a given lot\n\t *\t\tTotal Primordial Mintable = T\n\t *\t\tTotal Primordial Minted = M\n\t *\t\tStarting Network Token Bonus Multiplier = Bs\n\t *\t\tEnding Network Token Bonus Multiplier = Be\n\t *\t\tTo Purchase = P\n\t *\t\tAO Bonus % = B% = (1 - ((M + P/2) / T)) x (Bs-Be)\n\t *\n\t * @param _purchaseAmount The amount of primordial token intended to be purchased\n\t * @param _totalPrimordialMintable Total Primordial token intable\n\t * @param _totalPrimordialMinted Total Primordial token minted so far\n\t * @param _startingMultiplier The starting Network token bonus multiplier\n\t * @param _endingMultiplier The ending Network token bonus multiplier\n\t * @return The bonus percentage\n\t */\n\tfunction calculateNetworkTokenBonusPercentage(uint256 _purchaseAmount, uint256 _totalPrimordialMintable, uint256 _totalPrimordialMinted, uint256 _startingMultiplier, uint256 _endingMultiplier) public pure returns (uint256) {\n\t\tif (_purchaseAmount > 0 && _purchaseAmount <= _totalPrimordialMintable.sub(_totalPrimordialMinted)) {\n\t\t\t/**\n\t\t\t * Let temp = M + (P/2)\n\t\t\t * B% = (1 - (temp / T)) x (Bs-Be)\n\t\t\t */\n\t\t\tuint256 temp = _totalPrimordialMinted.add(_purchaseAmount.div(2));\n\n\t\t\t/**\n\t\t\t * Multiply B% with _PERCENTAGE_DIVISOR/_PERCENTAGE_DIVISOR to account for 6 decimals\n\t\t\t * so, B% = (_PERCENTAGE_DIVISOR/_PERCENTAGE_DIVISOR) * (1 - (temp / T)) * (Bs-Be)\n\t\t\t * B% = ((_PERCENTAGE_DIVISOR * (1 - (temp / T))) * (Bs-Be)) / _PERCENTAGE_DIVISOR\n\t\t\t * B% = ((_PERCENTAGE_DIVISOR - ((_PERCENTAGE_DIVISOR * temp) / T)) * (Bs-Be)) / _PERCENTAGE_DIVISOR\n\t\t\t * Take out the division by _PERCENTAGE_DIVISOR for now and include in later calculation\n\t\t\t * B% = (_PERCENTAGE_DIVISOR - ((_PERCENTAGE_DIVISOR * temp) / T)) * (Bs-Be)\n\t\t\t * But since Bs and Be are in 6 decimals, need to divide by _PERCENTAGE_DIVISOR\n\t\t\t * B% = (_PERCENTAGE_DIVISOR - ((_PERCENTAGE_DIVISOR * temp) / T)) * (Bs-Be) / _PERCENTAGE_DIVISOR\n\t\t\t */\n\t\t\tuint256 bonusPercentage = (_PERCENTAGE_DIVISOR.sub(_PERCENTAGE_DIVISOR.mul(temp).div(_totalPrimordialMintable))).mul(_startingMultiplier.sub(_endingMultiplier)).div(_PERCENTAGE_DIVISOR);\n\t\t\treturn bonusPercentage;\n\t\t} else {\n\t\t\treturn 0;\n\t\t}\n\t}\n\n\t/**\n\t * @dev Calculate the bonus amount of network token on a given lot\n\t *\t\tAO Bonus Amount = B% x P\n\t *\n\t * @param _purchaseAmount The amount of primordial token intended to be purchased\n\t * @param _totalPrimordialMintable Total Primordial token intable\n\t * @param _totalPrimordialMinted Total Primordial token minted so far\n\t * @param _startingMultiplier The starting Network token bonus multiplier\n\t * @param _endingMultiplier The ending Network token bonus multiplier\n\t * @return The bonus percentage\n\t */\n\tfunction calculateNetworkTokenBonusAmount(uint256 _purchaseAmount, uint256 _totalPrimordialMintable, uint256 _totalPrimordialMinted, uint256 _startingMultiplier, uint256 _endingMultiplier) public pure returns (uint256) {\n\t\tuint256 bonusPercentage = calculateNetworkTokenBonusPercentage(_purchaseAmount, _totalPrimordialMintable, _totalPrimordialMinted, _startingMultiplier, _endingMultiplier);\n\t\t/**\n\t\t * Since bonusPercentage is in _PERCENTAGE_DIVISOR format, need to divide it with _PERCENTAGE DIVISOR\n\t\t * when calculating the network token bonus amount\n\t\t */\n\t\tuint256 networkTokenBonus = bonusPercentage.mul(_purchaseAmount).div(_PERCENTAGE_DIVISOR);\n\t\treturn networkTokenBonus;\n\t}\n\n\t/**\n\t * @dev Calculate the maximum amount of Primordial an account can burn\n\t *\t\t_primordialBalance = P\n\t *\t\t_currentWeightedMultiplier = M\n\t *\t\t_maximumMultiplier = S\n\t *\t\t_amountToBurn = B\n\t *\t\tB = ((S x P) - (P x M)) / S\n\t *\n\t * @param _primordialBalance Account's primordial token balance\n\t * @param _currentWeightedMultiplier Account's current weighted multiplier\n\t * @param _maximumMultiplier The maximum multiplier of this account\n\t * @return The maximum burn amount\n\t */\n\tfunction calculateMaximumBurnAmount(uint256 _primordialBalance, uint256 _currentWeightedMultiplier, uint256 _maximumMultiplier) public pure returns (uint256) {\n\t\treturn (_maximumMultiplier.mul(_primordialBalance).sub(_primordialBalance.mul(_currentWeightedMultiplier))).div(_maximumMultiplier);\n\t}\n\n\t/**\n\t * @dev Calculate the new multiplier after burning primordial token\n\t *\t\t_primordialBalance = P\n\t *\t\t_currentWeightedMultiplier = M\n\t *\t\t_amountToBurn = B\n\t *\t\t_newMultiplier = E\n\t *\t\tE = (P x M) / (P - B)\n\t *\n\t * @param _primordialBalance Account's primordial token balance\n\t * @param _currentWeightedMultiplier Account's current weighted multiplier\n\t * @param _amountToBurn The amount of primordial token to burn\n\t * @return The new multiplier\n\t */\n\tfunction calculateMultiplierAfterBurn(uint256 _primordialBalance, uint256 _currentWeightedMultiplier, uint256 _amountToBurn) public pure returns (uint256) {\n\t\treturn _primordialBalance.mul(_currentWeightedMultiplier).div(_primordialBalance.sub(_amountToBurn));\n\t}\n\n\t/**\n\t * @dev Calculate the new multiplier after converting network token to primordial token\n\t *\t\t_primordialBalance = P\n\t *\t\t_currentWeightedMultiplier = M\n\t *\t\t_amountToConvert = C\n\t *\t\t_newMultiplier = E\n\t *\t\tE = (P x M) / (P + C)\n\t *\n\t * @param _primordialBalance Account's primordial token balance\n\t * @param _currentWeightedMultiplier Account's current weighted multiplier\n\t * @param _amountToConvert The amount of network token to convert\n\t * @return The new multiplier\n\t */\n\tfunction calculateMultiplierAfterConversion(uint256 _primordialBalance, uint256 _currentWeightedMultiplier, uint256 _amountToConvert) public pure returns (uint256) {\n\t\treturn _primordialBalance.mul(_currentWeightedMultiplier).div(_primordialBalance.add(_amountToConvert));\n\t}\n\n\t/**\n\t * @dev Get TAO Currency Balances given a nameId\n\t * @param _nameId The ID of the Name\n\t * @param _logosAddress The address of Logos\n\t * @param _ethosAddress The address of Ethos\n\t * @param _pathosAddress The address of Pathos\n\t * @return sum Logos balance of the Name ID\n\t * @return Ethos balance of the Name ID\n\t * @return Pathos balance of the Name ID\n\t */\n\tfunction getTAOCurrencyBalances(\n\t\taddress _nameId,\n\t\taddress _logosAddress,\n\t\taddress _ethosAddress,\n\t\taddress _pathosAddress\n\t) public view returns (uint256, uint256, uint256) {\n\t\treturn (\n\t\t\tLogos(_logosAddress).sumBalanceOf(_nameId),\n\t\t\tTAOCurrency(_ethosAddress).balanceOf(_nameId),\n\t\t\tTAOCurrency(_pathosAddress).balanceOf(_nameId)\n\t\t);\n\t}\n\n\t/**\n\t * @dev Return the address that signed the data and nonce when validating signature\n\t * @param _callingContractAddress the address of the calling contract\n\t * @param _data the data that was signed\n\t * @param _nonce The signed uint256 nonce\n\t * @param _v part of the signature\n\t * @param _r part of the signature\n\t * @param _s part of the signature\n\t * @return the address that signed the message\n\t */\n\tfunction getValidateSignatureAddress(address _callingContractAddress, string _data, uint256 _nonce, uint8 _v, bytes32 _r, bytes32 _s) public pure returns (address) {\n\t\tbytes32 _hash = keccak256(abi.encodePacked(_callingContractAddress, _data, _nonce));\n\t\treturn ecrecover(_hash, _v, _r, _s);\n\t}\n\n\t/***** Internal Methods *****/\n\t/**\n\t * @dev Check whether the network token and/or primordial token is adequate to pay for the filesize\n\t * @param _treasuryAddress AO treasury contract address\n\t * @param _networkIntegerAmount The integer amount of network token to stake\n\t * @param _networkFractionAmount The fraction amount of network token to stake\n\t * @param _denomination The denomination of the network token, i.e ao, kilo, mega, etc.\n\t * @param _primordialAmount The amount of primordial Token to stake\n\t * @param _fileSize The size of the file\n\t * @return true when the amount is sufficient, false otherwise\n\t */\n\tfunction _stakeAmountValid(address _treasuryAddress, uint256 _networkIntegerAmount, uint256 _networkFractionAmount, bytes8 _denomination, uint256 _primordialAmount, uint256 _fileSize) internal view returns (bool) {\n\t\treturn AOTreasury(_treasuryAddress).toBase(_networkIntegerAmount, _networkFractionAmount, _denomination).add(_primordialAmount) >= _fileSize;\n\t}\n}\n",
	"sourcePath": "/Users/johanmulyono/Work/AO/ao-contracts/contracts/AOLibrary.sol",
	"compiler": {
		"name": "solc",
		"version": "0.4.24+commit.e67f0147.Emscripten.clang"
	},
	"schemaVersion": "2.0.1",
	"updatedAt": "2019-01-07T04:52:08.512Z"
}