{
	"contractName": "AOLibrary",
	"abi": [
		{
			"constant": true,
			"inputs": [
				{
					"name": "_treasuryAddress",
					"type": "address"
				},
				{
					"name": "_networkIntegerAmount",
					"type": "uint256"
				},
				{
					"name": "_networkFractionAmount",
					"type": "uint256"
				},
				{
					"name": "_denomination",
					"type": "bytes8"
				},
				{
					"name": "_primordialAmount",
					"type": "uint256"
				},
				{
					"name": "_fileSize",
					"type": "uint256"
				}
			],
			"name": "canStake",
			"outputs": [
				{
					"name": "",
					"type": "bool"
				}
			],
			"payable": false,
			"stateMutability": "view",
			"type": "function"
		},
		{
			"constant": true,
			"inputs": [
				{
					"name": "_treasuryAddress",
					"type": "address"
				},
				{
					"name": "_networkIntegerAmount",
					"type": "uint256"
				},
				{
					"name": "_networkFractionAmount",
					"type": "uint256"
				},
				{
					"name": "_denomination",
					"type": "bytes8"
				},
				{
					"name": "_primordialAmount",
					"type": "uint256"
				},
				{
					"name": "_stakedNetworkAmount",
					"type": "uint256"
				},
				{
					"name": "_stakedPrimordialAmount",
					"type": "uint256"
				},
				{
					"name": "_stakedFileSize",
					"type": "uint256"
				}
			],
			"name": "canUnstakePartial",
			"outputs": [
				{
					"name": "",
					"type": "bool"
				}
			],
			"payable": false,
			"stateMutability": "view",
			"type": "function"
		},
		{
			"constant": true,
			"inputs": [
				{
					"name": "_treasuryAddress",
					"type": "address"
				},
				{
					"name": "_fileSize",
					"type": "uint256"
				},
				{
					"name": "_stakedAmount",
					"type": "uint256"
				},
				{
					"name": "_networkIntegerAmount",
					"type": "uint256"
				},
				{
					"name": "_networkFractionAmount",
					"type": "uint256"
				},
				{
					"name": "_denomination",
					"type": "bytes8"
				},
				{
					"name": "_primordialAmount",
					"type": "uint256"
				}
			],
			"name": "canStakeExisting",
			"outputs": [
				{
					"name": "",
					"type": "bool"
				}
			],
			"payable": false,
			"stateMutability": "view",
			"type": "function"
		},
		{
			"constant": true,
			"inputs": [
				{
					"name": "_treasuryAddress",
					"type": "address"
				},
				{
					"name": "_price",
					"type": "uint256"
				},
				{
					"name": "_networkIntegerAmount",
					"type": "uint256"
				},
				{
					"name": "_networkFractionAmount",
					"type": "uint256"
				},
				{
					"name": "_denomination",
					"type": "bytes8"
				}
			],
			"name": "canBuy",
			"outputs": [
				{
					"name": "",
					"type": "bool"
				}
			],
			"payable": false,
			"stateMutability": "view",
			"type": "function"
		},
		{
			"constant": true,
			"inputs": [
				{
					"name": "_currentWeightedIndex",
					"type": "uint256"
				},
				{
					"name": "_currentPrimordialBalance",
					"type": "uint256"
				},
				{
					"name": "_additionalWeightedIndex",
					"type": "uint256"
				},
				{
					"name": "_additionalPrimordialAmount",
					"type": "uint256"
				}
			],
			"name": "calculateWeightedIndex",
			"outputs": [
				{
					"name": "",
					"type": "uint256"
				}
			],
			"payable": false,
			"stateMutability": "pure",
			"type": "function"
		},
		{
			"constant": true,
			"inputs": [
				{
					"name": "_callingContractAddress",
					"type": "address"
				},
				{
					"name": "_message",
					"type": "string"
				}
			],
			"name": "doHash",
			"outputs": [
				{
					"name": "",
					"type": "bytes32"
				}
			],
			"payable": false,
			"stateMutability": "pure",
			"type": "function"
		},
		{
			"constant": true,
			"inputs": [
				{
					"name": "_callingContractAddress",
					"type": "address"
				},
				{
					"name": "_message",
					"type": "string"
				},
				{
					"name": "_v",
					"type": "uint8"
				},
				{
					"name": "_r",
					"type": "bytes32"
				},
				{
					"name": "_s",
					"type": "bytes32"
				}
			],
			"name": "checkSignature",
			"outputs": [
				{
					"name": "",
					"type": "address"
				}
			],
			"payable": false,
			"stateMutability": "pure",
			"type": "function"
		}
	],
	"bytecode": "0x610929610030600b82828239805160001a6073146000811461002057610022565bfe5b5030600052607381538281f30073000000000000000000000000000000000000000030146080604052600436106100995763ffffffff7c010000000000000000000000000000000000000000000000000000000060003504166305c6c870811461009e5780632618ae21146100df5780635d8d94611461010f5780636c4ef21e14610135578063749b78201461016857806379f3e0bf1461019257806380dc737714610217575b600080fd5b6100cb600160a060020a0360043516602435604435600160c060020a03196064351660843560a435610271565b604080519115158252519081900360200190f35b6100cb600160a060020a0360043516602435604435606435608435600160c060020a031960a4351660c435610354565b610123600435602435604435606435610458565b60408051918252519081900360200190f35b6100cb600160a060020a0360043516602435604435600160c060020a03196064351660843560a43560c43560e4356104c1565b6100cb600160a060020a0360043516602435604435606435600160c060020a03196084351661066d565b60408051602060046024803582810135601f81018590048502860185019096528585526101fb958335600160a060020a03169536956044949193909101919081908401838280828437509497505050833560ff169450505060208201359160400135905061072a565b60408051600160a060020a039092168252519081900360200190f35b60408051602060046024803582810135601f8101859004850286018501909652858552610123958335600160a060020a03169536956044949193909101919081908401838280828437509497506107a99650505050505050565b6000808611806102815750600085115b1561033f576040805160e360020a63042fb71d0281526004810188905260248101879052600160c060020a0319861660448201529051839161032a918691600160a060020a038c169163217db8e8916064808201926020929091908290030181600087803b1580156102f257600080fd5b505af1158015610306573d6000803e3d6000fd5b505050506040513d602081101561031c57600080fd5b50519063ffffffff6108a016565b106103375750600161034a565b50600061034a565b818310610337575060015b9695505050505050565b6000808511806103645750600084115b1561042f57866104268761041a858c600160a060020a031663217db8e88b8b8b6040518463ffffffff167c0100000000000000000000000000000000000000000000000000000000028152600401808481526020018381526020018277ffffffffffffffffffffffffffffffffffffffffffffffff191677ffffffffffffffffffffffffffffffffffffffffffffffff191681526020019350505050602060405180830381600087803b1580156102f257600080fd5b9063ffffffff6108a016565b1015905061044d565b60008211156104495786610426878463ffffffff6108a016565b5060005b979650505050505050565b6000806000808711156104b357610488610478868663ffffffff6108ad16565b61041a898963ffffffff6108ad16565b915061049a868563ffffffff6108a016565b90506104ac828263ffffffff6108d616565b92506104b7565b8492505b5050949350505050565b6000808811806104d15750600087115b801561056a57506040805160e360020a63042fb71d028152600481018a905260248101899052600160c060020a0319881660448201529051600160a060020a038b169163217db8e89160648083019260209291908290030181600087803b15801561053b57600080fd5b505af115801561054f573d6000803e3d6000fd5b505050506040513d602081101561056557600080fd5b505184105b8061057457508483105b80610647575060008811806105895750600087115b80156106475750816106456105a4858863ffffffff6108eb16565b6040805160e360020a63042fb71d028152600481018d9052602481018c9052600160c060020a03198b166044820152905161041a91600160a060020a038f169163217db8e8916064808201926020929091908290030181600087803b15801561060c57600080fd5b505af1158015610620573d6000803e3d6000fd5b505050506040513d602081101561063657600080fd5b5051889063ffffffff6108eb16565b105b80610650575060005b1561065d57506000610661565b5060015b98975050505050505050565b60008084118061067d5750600083115b1561071d576040805160e360020a63042fb71d0281526004810186905260248101859052600160c060020a03198416604482015290518691600160a060020a0389169163217db8e8916064808201926020929091908290030181600087803b1580156106e857600080fd5b505af11580156106fc573d6000803e3d6000fd5b505050506040513d602081101561071257600080fd5b505110159050610721565b5060005b95945050505050565b60008061073787876107a9565b604080516000808252602080830180855285905260ff8a16838501526060830189905260808301889052925193945060019360a08084019493601f19830193908390039091019190865af1158015610793573d6000803e3d6000fd5b5050604051601f19015198975050505050505050565b600082826040516020018083600160a060020a0316600160a060020a03166c0100000000000000000000000002815260140182805190602001908083835b602083106108065780518252601f1990920191602091820191016107e7565b6001836020036101000a038019825116818451168082178552505050505050905001925050506040516020818303038152906040526040518082805190602001908083835b6020831061086a5780518252601f19909201916020918201910161084b565b6001836020036101000a038019825116818451168082178552505050505050905001915050604051809103902090505b92915050565b8181018281101561089a57fe5b60008215156108be5750600061089a565b508181028183828115156108ce57fe5b041461089a57fe5b600081838115156108e357fe5b049392505050565b6000828211156108f757fe5b509003905600a165627a7a723058207acdb56bca8a5760f22cfc7d445b1f8a93f81ca4955e30d22fac33701149350b0029",
	"source": "pragma solidity ^0.4.24;\n\nimport './SafeMath.sol';\nimport './AOTreasury.sol';\n\n/**\n * @title AOLibrary\n */\nlibrary AOLibrary {\n\tusing SafeMath for uint256;\n\n\t/**\n\t * @dev Check whether the network token and/or primordial token is adequate to pay for the filesize\n\t * @param _treasuryAddress AO treasury contract address\n\t * @param _networkIntegerAmount The integer amount of the network token\n\t * @param _networkFractionAmount The fraction amount of the network token\n\t * @param _denomination The denomination of the the network token\n\t * @param _primordialAmount The amount of primordial token\n\t * @param _fileSize The file size of the content\n\t * @return true when the amount is sufficient, false otherwise\n\t */\n\tfunction canStake(address _treasuryAddress, uint256 _networkIntegerAmount, uint256 _networkFractionAmount, bytes8 _denomination, uint256 _primordialAmount, uint256 _fileSize) public view returns (bool) {\n\t\tif (_denomination.length > 0 && (_networkIntegerAmount > 0 || _networkFractionAmount > 0)) {\n\t\t\tif (AOTreasury(_treasuryAddress).toBase(_networkIntegerAmount, _networkFractionAmount, _denomination).add(_primordialAmount) >= _fileSize) {\n\t\t\t\treturn true;\n\t\t\t} else {\n\t\t\t\treturn false;\n\t\t\t}\n\t\t} else if (_primordialAmount >= _fileSize) {\n\t\t\treturn true;\n\t\t} else {\n\t\t\treturn false;\n\t\t}\n\t}\n\n\t/**\n\t * @dev Check whether or the requested unstake amount is valid\n\t * @param _treasuryAddress AO treasury contract address\n\t * @param _networkIntegerAmount The integer amount of the network token\n\t * @param _networkFractionAmount The fraction amount of the network token\n\t * @param _denomination The denomination of the the network token\n\t * @param _primordialAmount The amount of primordial token\n\t * @param _stakedNetworkAmount The current staked network token amount\n\t * @param _stakedPrimordialAmount The current staked primordial token amount\n\t * @param _stakedFileSize The file size of the staked content\n\t * @return true if can unstake, false otherwise\n\t */\n\tfunction canUnstakePartial(\n\t\taddress _treasuryAddress,\n\t\tuint256 _networkIntegerAmount,\n\t\tuint256 _networkFractionAmount,\n\t\tbytes8 _denomination,\n\t\tuint256 _primordialAmount,\n\t\tuint256 _stakedNetworkAmount,\n\t\tuint256 _stakedPrimordialAmount,\n\t\tuint256 _stakedFileSize) public view returns (bool) {\n\t\tif (\n\t\t\t(_denomination.length > 0 &&\n\t\t\t\t(_networkIntegerAmount > 0 || _networkFractionAmount > 0) &&\n\t\t\t\t_stakedNetworkAmount < AOTreasury(_treasuryAddress).toBase(_networkIntegerAmount, _networkFractionAmount, _denomination)\n\t\t\t) ||\n\t\t\t_stakedPrimordialAmount < _primordialAmount ||\n\t\t\t(\n\t\t\t\t_denomination.length > 0\n\t\t\t\t\t&& (_networkIntegerAmount > 0 || _networkFractionAmount > 0)\n\t\t\t\t\t&& (_stakedNetworkAmount.sub(AOTreasury(_treasuryAddress).toBase(_networkIntegerAmount, _networkFractionAmount, _denomination)).add(_stakedPrimordialAmount.sub(_primordialAmount)) < _stakedFileSize)\n\t\t\t) ||\n\t\t\t( _denomination.length == 0 && _networkIntegerAmount == 0 && _networkFractionAmount == 0 && _primordialAmount > 0 && _stakedPrimordialAmount.sub(_primordialAmount) < _stakedFileSize)\n\t\t) {\n\t\t\treturn false;\n\t\t} else {\n\t\t\treturn true;\n\t\t}\n\t}\n\n\t/**\n\t * @dev Check whether the network token and/or primordial token is adequate to pay for existing staked content\n\t * @param _treasuryAddress AO treasury contract address\n\t * @param _fileSize The size of the file\n\t * @param _stakedAmount The total staked amount\n\t * @param _networkIntegerAmount The integer amount of the network token\n\t * @param _networkFractionAmount The fraction amount of the network token\n\t * @param _denomination The denomination of the the network token\n\t * @param _primordialAmount The amount of primordial token\n\t * @return true when the amount is sufficient, false otherwise\n\t */\n\tfunction canStakeExisting(address _treasuryAddress, uint256 _fileSize, uint256 _stakedAmount, uint256 _networkIntegerAmount, uint256 _networkFractionAmount, bytes8 _denomination, uint256 _primordialAmount) public view returns (bool) {\n\t\tif (_denomination.length > 0 && (_networkIntegerAmount > 0 || _networkFractionAmount > 0)) {\n\t\t\treturn AOTreasury(_treasuryAddress).toBase(_networkIntegerAmount, _networkFractionAmount, _denomination).add(_primordialAmount).add(_stakedAmount) >= _fileSize;\n\t\t} else if (_primordialAmount > 0) {\n\t\t\treturn _stakedAmount.add(_primordialAmount) >= _fileSize;\n\t\t} else {\n\t\t\treturn false;\n\t\t}\n\t}\n\n\t/**\n\t * @dev Check whether the network token is adequate to pay for existing staked content\n\t * @param _treasuryAddress AO treasury contract address\n\t * @param _price The price of the content\n\t * @param _networkIntegerAmount The integer amount of the network token\n\t * @param _networkFractionAmount The fraction amount of the network token\n\t * @param _denomination The denomination of the the network token\n\t * @return true when the amount is sufficient, false otherwise\n\t */\n\tfunction canBuy(address _treasuryAddress, uint256 _price, uint256 _networkIntegerAmount, uint256 _networkFractionAmount, bytes8 _denomination) public view returns (bool) {\n\t\tif (_denomination.length > 0 && (_networkIntegerAmount > 0 || _networkFractionAmount > 0)) {\n\t\t\treturn AOTreasury(_treasuryAddress).toBase(_networkIntegerAmount, _networkFractionAmount, _denomination) >= _price;\n\t\t} else {\n\t\t\treturn false;\n\t\t}\n\t}\n\n\t/**\n\t * @dev Calculate the new weighted index when adding `_additionalPrimordialAmount` at `_additionalWeightedIdex` to the current `_currentPrimordialBalance` at `_currentWeightedIndex`\n\t * @param _currentWeightedIndex Account's current weighted index\n\t * @param _currentPrimordialBalance Account's current primordial token balance\n\t * @param _additionalWeightedIndex The weighted index to be added\n\t * @param _additionalPrimordialAmount The primordial token amount to be added\n\t * @return the new primordial weighted index\n\t */\n\tfunction calculateWeightedIndex(uint256 _currentWeightedIndex, uint256 _currentPrimordialBalance, uint256 _additionalWeightedIndex, uint256 _additionalPrimordialAmount) public pure returns (uint256) {\n\t\tif (_currentWeightedIndex > 0) {\n\t\t\tuint256 _totalWeightedTokens = (_currentWeightedIndex.mul(_currentPrimordialBalance)).add(_additionalWeightedIndex.mul(_additionalPrimordialAmount));\n\t\t\tuint256 _totalTokens = _currentPrimordialBalance.add(_additionalPrimordialAmount);\n\t\t\treturn _totalWeightedTokens.div(_totalTokens);\n\t\t} else {\n\t\t\treturn _additionalWeightedIndex;\n\t\t}\n\t}\n\n\t/**\n\t * @dev Generate hash of the message\n\t * @param _callingContractAddress the address of the calling contract\n\t * @param _message the message to be hashed\n\t * @return hash\n\t */\n\tfunction doHash(address _callingContractAddress, string _message) public pure returns (bytes32) {\n\t\treturn keccak256(abi.encodePacked(_callingContractAddress, _message));\n\t}\n\n\t/**\n\t * @dev Return the address that signed the message\n\t * @param _callingContractAddress the address of the calling contract\n\t * @param _message the message that was signed\n\t * @param _v part of the signature\n\t * @param _r part of the signature\n\t * @param _s part of the signature\n\t * @return the address that signed the message\n\t */\n\tfunction checkSignature(address _callingContractAddress, string _message, uint8 _v, bytes32 _r, bytes32 _s) public pure returns (address) {\n\t\tbytes32 _hash = doHash(_callingContractAddress, _message);\n\t\treturn ecrecover(_hash, _v, _r, _s);\n\t}\n}\n",
	"sourcePath": "/home/jmulyono/ao-contracts/contracts/AOLibrary.sol",
	"compiler": {
		"name": "solc",
		"version": "0.4.24+commit.e67f0147.Emscripten.clang"
	},
	"schemaVersion": "2.0.1",
	"updatedAt": "2018-08-21T11:56:22.045Z"
}