{
	"contractName": "AOPool",
	"abi": [
		{
			"constant": true,
			"inputs": [
				{
					"name": "",
					"type": "uint256"
				}
			],
			"name": "poolERC20TokenBalance",
			"outputs": [
				{
					"name": "",
					"type": "uint256"
				}
			],
			"payable": false,
			"stateMutability": "view",
			"type": "function"
		},
		{
			"constant": true,
			"inputs": [],
			"name": "contractTotalQuantity",
			"outputs": [
				{
					"name": "",
					"type": "uint256"
				}
			],
			"payable": false,
			"stateMutability": "view",
			"type": "function"
		},
		{
			"constant": true,
			"inputs": [],
			"name": "aoDevTeam1",
			"outputs": [
				{
					"name": "",
					"type": "address"
				}
			],
			"payable": false,
			"stateMutability": "view",
			"type": "function"
		},
		{
			"constant": true,
			"inputs": [],
			"name": "contractTotalBuy",
			"outputs": [
				{
					"name": "",
					"type": "uint256"
				}
			],
			"payable": false,
			"stateMutability": "view",
			"type": "function"
		},
		{
			"constant": true,
			"inputs": [],
			"name": "contractTotalSell",
			"outputs": [
				{
					"name": "",
					"type": "uint256"
				}
			],
			"payable": false,
			"stateMutability": "view",
			"type": "function"
		},
		{
			"constant": true,
			"inputs": [
				{
					"name": "",
					"type": "address"
				}
			],
			"name": "totalBought",
			"outputs": [
				{
					"name": "",
					"type": "uint256"
				}
			],
			"payable": false,
			"stateMutability": "view",
			"type": "function"
		},
		{
			"constant": true,
			"inputs": [
				{
					"name": "",
					"type": "uint256"
				}
			],
			"name": "poolTotalQuantity",
			"outputs": [
				{
					"name": "",
					"type": "uint256"
				}
			],
			"payable": false,
			"stateMutability": "view",
			"type": "function"
		},
		{
			"constant": true,
			"inputs": [],
			"name": "contractTotalLot",
			"outputs": [
				{
					"name": "",
					"type": "uint256"
				}
			],
			"payable": false,
			"stateMutability": "view",
			"type": "function"
		},
		{
			"constant": false,
			"inputs": [
				{
					"name": "_account",
					"type": "address"
				},
				{
					"name": "_whitelist",
					"type": "bool"
				}
			],
			"name": "setWhitelist",
			"outputs": [],
			"payable": false,
			"stateMutability": "nonpayable",
			"type": "function"
		},
		{
			"constant": true,
			"inputs": [
				{
					"name": "",
					"type": "uint256"
				}
			],
			"name": "poolTotalBuy",
			"outputs": [
				{
					"name": "",
					"type": "uint256"
				}
			],
			"payable": false,
			"stateMutability": "view",
			"type": "function"
		},
		{
			"constant": true,
			"inputs": [],
			"name": "contractEthereumBalance",
			"outputs": [
				{
					"name": "",
					"type": "uint256"
				}
			],
			"payable": false,
			"stateMutability": "view",
			"type": "function"
		},
		{
			"constant": true,
			"inputs": [
				{
					"name": "",
					"type": "address"
				}
			],
			"name": "whitelist",
			"outputs": [
				{
					"name": "",
					"type": "bool"
				}
			],
			"payable": false,
			"stateMutability": "view",
			"type": "function"
		},
		{
			"constant": true,
			"inputs": [],
			"name": "aoDevTeam2",
			"outputs": [
				{
					"name": "",
					"type": "address"
				}
			],
			"payable": false,
			"stateMutability": "view",
			"type": "function"
		},
		{
			"constant": true,
			"inputs": [
				{
					"name": "",
					"type": "uint256"
				}
			],
			"name": "pools",
			"outputs": [
				{
					"name": "price",
					"type": "uint256"
				},
				{
					"name": "status",
					"type": "bool"
				},
				{
					"name": "sellCapStatus",
					"type": "bool"
				},
				{
					"name": "sellCapAmount",
					"type": "uint256"
				},
				{
					"name": "quantityCapStatus",
					"type": "bool"
				},
				{
					"name": "quantityCapAmount",
					"type": "uint256"
				},
				{
					"name": "erc20CounterAsset",
					"type": "bool"
				},
				{
					"name": "erc20TokenAddress",
					"type": "address"
				},
				{
					"name": "erc20TokenMultiplier",
					"type": "uint256"
				},
				{
					"name": "adminAddress",
					"type": "address"
				}
			],
			"payable": false,
			"stateMutability": "view",
			"type": "function"
		},
		{
			"constant": false,
			"inputs": [
				{
					"name": "_aoDevTeam1",
					"type": "address"
				},
				{
					"name": "_aoDevTeam2",
					"type": "address"
				}
			],
			"name": "setAODevTeamAddresses",
			"outputs": [],
			"payable": false,
			"stateMutability": "nonpayable",
			"type": "function"
		},
		{
			"constant": true,
			"inputs": [
				{
					"name": "",
					"type": "uint256"
				}
			],
			"name": "poolEthereumBalance",
			"outputs": [
				{
					"name": "",
					"type": "uint256"
				}
			],
			"payable": false,
			"stateMutability": "view",
			"type": "function"
		},
		{
			"constant": true,
			"inputs": [
				{
					"name": "",
					"type": "address"
				}
			],
			"name": "totalPutOnSale",
			"outputs": [
				{
					"name": "",
					"type": "uint256"
				}
			],
			"payable": false,
			"stateMutability": "view",
			"type": "function"
		},
		{
			"constant": true,
			"inputs": [
				{
					"name": "",
					"type": "uint256"
				}
			],
			"name": "poolTotalLot",
			"outputs": [
				{
					"name": "",
					"type": "uint256"
				}
			],
			"payable": false,
			"stateMutability": "view",
			"type": "function"
		},
		{
			"constant": true,
			"inputs": [
				{
					"name": "",
					"type": "uint256"
				}
			],
			"name": "poolTotalEthereumWithdrawn",
			"outputs": [
				{
					"name": "",
					"type": "uint256"
				}
			],
			"payable": false,
			"stateMutability": "view",
			"type": "function"
		},
		{
			"constant": true,
			"inputs": [],
			"name": "baseDenominationAddress",
			"outputs": [
				{
					"name": "",
					"type": "address"
				}
			],
			"payable": false,
			"stateMutability": "view",
			"type": "function"
		},
		{
			"constant": true,
			"inputs": [],
			"name": "developer",
			"outputs": [
				{
					"name": "",
					"type": "address"
				}
			],
			"payable": false,
			"stateMutability": "view",
			"type": "function"
		},
		{
			"constant": true,
			"inputs": [
				{
					"name": "",
					"type": "uint256"
				}
			],
			"name": "poolTotalWithdrawn",
			"outputs": [
				{
					"name": "",
					"type": "uint256"
				}
			],
			"payable": false,
			"stateMutability": "view",
			"type": "function"
		},
		{
			"constant": true,
			"inputs": [],
			"name": "contractTotalWithdrawn",
			"outputs": [
				{
					"name": "",
					"type": "uint256"
				}
			],
			"payable": false,
			"stateMutability": "view",
			"type": "function"
		},
		{
			"constant": true,
			"inputs": [
				{
					"name": "",
					"type": "address"
				}
			],
			"name": "totalEthereumWithdrawn",
			"outputs": [
				{
					"name": "",
					"type": "uint256"
				}
			],
			"payable": false,
			"stateMutability": "view",
			"type": "function"
		},
		{
			"constant": true,
			"inputs": [],
			"name": "contractTotalEthereumWithdrawn",
			"outputs": [
				{
					"name": "",
					"type": "uint256"
				}
			],
			"payable": false,
			"stateMutability": "view",
			"type": "function"
		},
		{
			"constant": true,
			"inputs": [
				{
					"name": "",
					"type": "uint256"
				}
			],
			"name": "poolTotalSell",
			"outputs": [
				{
					"name": "",
					"type": "uint256"
				}
			],
			"payable": false,
			"stateMutability": "view",
			"type": "function"
		},
		{
			"constant": true,
			"inputs": [
				{
					"name": "",
					"type": "bytes32"
				}
			],
			"name": "lots",
			"outputs": [
				{
					"name": "lotId",
					"type": "bytes32"
				},
				{
					"name": "seller",
					"type": "address"
				},
				{
					"name": "lotQuantity",
					"type": "uint256"
				},
				{
					"name": "poolId",
					"type": "uint256"
				},
				{
					"name": "poolPreSellSnapshot",
					"type": "uint256"
				},
				{
					"name": "poolSellLotSnapshot",
					"type": "uint256"
				},
				{
					"name": "lotValueInCounterAsset",
					"type": "uint256"
				},
				{
					"name": "counterAssetWithdrawn",
					"type": "uint256"
				},
				{
					"name": "tokenWithdrawn",
					"type": "uint256"
				},
				{
					"name": "timestamp",
					"type": "uint256"
				}
			],
			"payable": false,
			"stateMutability": "view",
			"type": "function"
		},
		{
			"constant": true,
			"inputs": [
				{
					"name": "",
					"type": "address"
				}
			],
			"name": "totalSold",
			"outputs": [
				{
					"name": "",
					"type": "uint256"
				}
			],
			"payable": false,
			"stateMutability": "view",
			"type": "function"
		},
		{
			"constant": true,
			"inputs": [],
			"name": "totalPool",
			"outputs": [
				{
					"name": "",
					"type": "uint256"
				}
			],
			"payable": false,
			"stateMutability": "view",
			"type": "function"
		},
		{
			"constant": false,
			"inputs": [
				{
					"name": "newDeveloper",
					"type": "address"
				}
			],
			"name": "transferOwnership",
			"outputs": [],
			"payable": false,
			"stateMutability": "nonpayable",
			"type": "function"
		},
		{
			"inputs": [
				{
					"name": "_baseDenominationAddress",
					"type": "address"
				}
			],
			"payable": false,
			"stateMutability": "nonpayable",
			"type": "constructor"
		},
		{
			"anonymous": false,
			"inputs": [
				{
					"indexed": true,
					"name": "poolId",
					"type": "uint256"
				},
				{
					"indexed": true,
					"name": "adminAddress",
					"type": "address"
				},
				{
					"indexed": false,
					"name": "price",
					"type": "uint256"
				},
				{
					"indexed": false,
					"name": "status",
					"type": "bool"
				},
				{
					"indexed": false,
					"name": "sellCapStatus",
					"type": "bool"
				},
				{
					"indexed": false,
					"name": "sellCapAmount",
					"type": "uint256"
				},
				{
					"indexed": false,
					"name": "quantityCapStatus",
					"type": "bool"
				},
				{
					"indexed": false,
					"name": "quantityCapAmount",
					"type": "uint256"
				},
				{
					"indexed": false,
					"name": "erc20CounterAsset",
					"type": "bool"
				},
				{
					"indexed": false,
					"name": "erc20TokenAddress",
					"type": "address"
				},
				{
					"indexed": false,
					"name": "erc20TokenMultiplier",
					"type": "uint256"
				}
			],
			"name": "CreatePool",
			"type": "event"
		},
		{
			"anonymous": false,
			"inputs": [
				{
					"indexed": true,
					"name": "poolId",
					"type": "uint256"
				},
				{
					"indexed": false,
					"name": "status",
					"type": "bool"
				}
			],
			"name": "UpdatePoolStatus",
			"type": "event"
		},
		{
			"anonymous": false,
			"inputs": [
				{
					"indexed": true,
					"name": "poolId",
					"type": "uint256"
				},
				{
					"indexed": false,
					"name": "newAdminAddress",
					"type": "address"
				}
			],
			"name": "ChangeAdminAddress",
			"type": "event"
		},
		{
			"anonymous": false,
			"inputs": [
				{
					"indexed": true,
					"name": "poolId",
					"type": "uint256"
				},
				{
					"indexed": true,
					"name": "lotId",
					"type": "bytes32"
				},
				{
					"indexed": true,
					"name": "seller",
					"type": "address"
				},
				{
					"indexed": false,
					"name": "lotQuantity",
					"type": "uint256"
				},
				{
					"indexed": false,
					"name": "price",
					"type": "uint256"
				},
				{
					"indexed": false,
					"name": "poolPreSellSnapshot",
					"type": "uint256"
				},
				{
					"indexed": false,
					"name": "poolSellLotSnapshot",
					"type": "uint256"
				},
				{
					"indexed": false,
					"name": "lotValueInCounterAsset",
					"type": "uint256"
				},
				{
					"indexed": false,
					"name": "erc20CounterAsset",
					"type": "bool"
				},
				{
					"indexed": false,
					"name": "timestamp",
					"type": "uint256"
				}
			],
			"name": "LotCreation",
			"type": "event"
		},
		{
			"anonymous": false,
			"inputs": [
				{
					"indexed": true,
					"name": "poolId",
					"type": "uint256"
				},
				{
					"indexed": true,
					"name": "buyer",
					"type": "address"
				},
				{
					"indexed": false,
					"name": "buyQuantity",
					"type": "uint256"
				},
				{
					"indexed": false,
					"name": "price",
					"type": "uint256"
				},
				{
					"indexed": false,
					"name": "currentPoolTotalBuy",
					"type": "uint256"
				}
			],
			"name": "BuyWithEth",
			"type": "event"
		},
		{
			"anonymous": false,
			"inputs": [
				{
					"indexed": true,
					"name": "seller",
					"type": "address"
				},
				{
					"indexed": true,
					"name": "lotId",
					"type": "bytes32"
				},
				{
					"indexed": true,
					"name": "poolId",
					"type": "uint256"
				},
				{
					"indexed": false,
					"name": "withdrawnAmount",
					"type": "uint256"
				},
				{
					"indexed": false,
					"name": "currentLotValueInCounterAsset",
					"type": "uint256"
				},
				{
					"indexed": false,
					"name": "currentLotCounterAssetWithdrawn",
					"type": "uint256"
				}
			],
			"name": "WithdrawEth",
			"type": "event"
		},
		{
			"anonymous": false,
			"inputs": [
				{
					"indexed": true,
					"name": "seller",
					"type": "address"
				},
				{
					"indexed": true,
					"name": "lotId",
					"type": "bytes32"
				},
				{
					"indexed": true,
					"name": "poolId",
					"type": "uint256"
				},
				{
					"indexed": false,
					"name": "withdrawnAmount",
					"type": "uint256"
				},
				{
					"indexed": false,
					"name": "currentlotValueInCounterAsset",
					"type": "uint256"
				},
				{
					"indexed": false,
					"name": "currentLotTokenWithdrawn",
					"type": "uint256"
				}
			],
			"name": "WithdrawToken",
			"type": "event"
		},
		{
			"constant": false,
			"inputs": [
				{
					"name": "_price",
					"type": "uint256"
				},
				{
					"name": "_status",
					"type": "bool"
				},
				{
					"name": "_sellCapStatus",
					"type": "bool"
				},
				{
					"name": "_sellCapAmount",
					"type": "uint256"
				},
				{
					"name": "_quantityCapStatus",
					"type": "bool"
				},
				{
					"name": "_quantityCapAmount",
					"type": "uint256"
				},
				{
					"name": "_erc20CounterAsset",
					"type": "bool"
				},
				{
					"name": "_erc20TokenAddress",
					"type": "address"
				},
				{
					"name": "_erc20TokenMultiplier",
					"type": "uint256"
				}
			],
			"name": "createPool",
			"outputs": [],
			"payable": false,
			"stateMutability": "nonpayable",
			"type": "function"
		},
		{
			"constant": false,
			"inputs": [
				{
					"name": "_poolId",
					"type": "uint256"
				},
				{
					"name": "_status",
					"type": "bool"
				}
			],
			"name": "updatePoolStatus",
			"outputs": [],
			"payable": false,
			"stateMutability": "nonpayable",
			"type": "function"
		},
		{
			"constant": false,
			"inputs": [
				{
					"name": "_poolId",
					"type": "uint256"
				},
				{
					"name": "_adminAddress",
					"type": "address"
				}
			],
			"name": "changeAdminAddress",
			"outputs": [],
			"payable": false,
			"stateMutability": "nonpayable",
			"type": "function"
		},
		{
			"constant": false,
			"inputs": [
				{
					"name": "_poolId",
					"type": "uint256"
				},
				{
					"name": "_quantity",
					"type": "uint256"
				},
				{
					"name": "_price",
					"type": "uint256"
				}
			],
			"name": "sell",
			"outputs": [],
			"payable": false,
			"stateMutability": "nonpayable",
			"type": "function"
		},
		{
			"constant": true,
			"inputs": [
				{
					"name": "_account",
					"type": "address"
				}
			],
			"name": "ownerTotalLot",
			"outputs": [
				{
					"name": "",
					"type": "uint256"
				}
			],
			"payable": false,
			"stateMutability": "view",
			"type": "function"
		},
		{
			"constant": true,
			"inputs": [
				{
					"name": "_account",
					"type": "address"
				},
				{
					"name": "_from",
					"type": "uint256"
				},
				{
					"name": "_to",
					"type": "uint256"
				}
			],
			"name": "ownerLotIds",
			"outputs": [
				{
					"name": "",
					"type": "bytes32[]"
				}
			],
			"payable": false,
			"stateMutability": "view",
			"type": "function"
		},
		{
			"constant": false,
			"inputs": [
				{
					"name": "_poolId",
					"type": "uint256"
				},
				{
					"name": "_quantity",
					"type": "uint256"
				},
				{
					"name": "_price",
					"type": "uint256"
				}
			],
			"name": "buyWithEth",
			"outputs": [],
			"payable": true,
			"stateMutability": "payable",
			"type": "function"
		},
		{
			"constant": false,
			"inputs": [
				{
					"name": "_lotId",
					"type": "bytes32"
				}
			],
			"name": "withdrawEth",
			"outputs": [],
			"payable": false,
			"stateMutability": "nonpayable",
			"type": "function"
		},
		{
			"constant": true,
			"inputs": [
				{
					"name": "_lotId",
					"type": "bytes32"
				}
			],
			"name": "lotEthAvailableToWithdraw",
			"outputs": [
				{
					"name": "",
					"type": "uint256"
				},
				{
					"name": "",
					"type": "uint256"
				},
				{
					"name": "",
					"type": "uint256"
				}
			],
			"payable": false,
			"stateMutability": "view",
			"type": "function"
		},
		{
			"constant": false,
			"inputs": [
				{
					"name": "_lotId",
					"type": "bytes32"
				},
				{
					"name": "_quantity",
					"type": "uint256"
				}
			],
			"name": "withdrawToken",
			"outputs": [],
			"payable": false,
			"stateMutability": "nonpayable",
			"type": "function"
		},
		{
			"constant": true,
			"inputs": [
				{
					"name": "_lotId",
					"type": "bytes32"
				}
			],
			"name": "totalTokenWithdrawnBeforeLot",
			"outputs": [
				{
					"name": "",
					"type": "uint256"
				}
			],
			"payable": false,
			"stateMutability": "view",
			"type": "function"
		}
	],
	"bytecode": "0x608060405260018054600160a060020a0319908116735c63644d01ba385ebac5bcf2ddc1e6dbc1182b52179091556002805490911673156c79bf4347d1891da834ea30662a14177cbf2817905534801561005857600080fd5b5060405160208061301f833981016040525160008054600160a060020a0319908116331790915560048054600160a060020a0390931692821683179055600580549091169091179055612f6f806100b06000396000f3006080604052600436106101f85763ffffffff7c0100000000000000000000000000000000000000000000000000000000600035041663053db66d81146101fd57806307e6e0b4146102275780630f63acb41461023a57806315227aa71461024f5780632ca3000b146102805780632d9608c114610295578063375cd4f6146102b95780634663b1b2146102ce5780634c835bbf146102ef5780634ce3c8d81461030757806350159a9e1461031f57806353d6fd5914610334578063560e87831461035a5780635d813eb4146103775780637d6b49821461039857806398810147146103b357806399ff470e146103cb5780639b19251a146103e0578063a99433a614610415578063ac4afa381461042a578063b24626e9146104a3578063b760b91a146104ca578063bf205c78146104e2578063c17cdeff14610503578063c33c24bd1461051b578063c44a079514610533578063c513b4a414610548578063ca4b208b1461057e578063ccb47b0b14610593578063ccf14847146105ab578063cd9be6b2146105c0578063d1be4297146105d8578063d3c9727c146105f9578063ddba78e514610617578063ddec1a1a1461062c578063de4796cd14610644578063e19fbbb1146106b4578063e25fb6ee146106f6578063ecfb49a314610717578063f2fde38b1461072c578063f838955a1461074d575b600080fd5b34801561020957600080fd5b506102156004356107c4565b60408051918252519081900360200190f35b6102386004356024356044356107d6565b005b34801561024657600080fd5b50610215610af4565b34801561025b57600080fd5b50610264610afa565b60408051600160a060020a039092168252519081900360200190f35b34801561028c57600080fd5b50610215610b09565b3480156102a157600080fd5b50610238600435600160a060020a0360243516610b0f565b3480156102c557600080fd5b50610215610bec565b3480156102da57600080fd5b50610215600160a060020a0360043516610bf2565b3480156102fb57600080fd5b50610215600435610c04565b34801561031357600080fd5b5061021560043561138b565b34801561032b57600080fd5b5061021561139d565b34801561034057600080fd5b50610238600160a060020a036004351660243515156113a3565b34801561036657600080fd5b5061023860043560243515156113e5565b34801561038357600080fd5b50610215600160a060020a036004351661147f565b3480156103a457600080fd5b5061023860043560243561149a565b3480156103bf57600080fd5b50610215600435611cd4565b3480156103d757600080fd5b50610215611ce6565b3480156103ec57600080fd5b50610401600160a060020a0360043516611cec565b604080519115158252519081900360200190f35b34801561042157600080fd5b50610264611d01565b34801561043657600080fd5b50610442600435611d10565b604080519a8b5298151560208b0152961515898901526060890195909552921515608088015260a0870191909152151560c0860152600160a060020a0390811660e08601526101008501919091521661012083015251908190036101400190f35b3480156104af57600080fd5b50610238600160a060020a0360043581169060243516611d71565b3480156104d657600080fd5b50610215600435611dc3565b3480156104ee57600080fd5b50610215600160a060020a0360043516611dd5565b34801561050f57600080fd5b50610215600435611de7565b34801561052757600080fd5b50610215600435611df9565b34801561053f57600080fd5b50610264611e0b565b34801561055457600080fd5b50610560600435611e1a565b60408051938452602084019290925282820152519081900360600190f35b34801561058a57600080fd5b506102646120b6565b34801561059f57600080fd5b506102156004356120c5565b3480156105b757600080fd5b506102156120d7565b3480156105cc57600080fd5b506102386004356120dd565b3480156105e457600080fd5b50610215600160a060020a0360043516612347565b34801561060557600080fd5b50610238600435602435604435612359565b34801561062357600080fd5b50610215612953565b34801561063857600080fd5b50610215600435612959565b34801561065057600080fd5b5061065c60043561296b565b604080519a8b52600160a060020a0390991660208b0152898901979097526060890195909552608088019390935260a087019190915260c086015260e085015261010084015261012083015251908190036101400190f35b3480156106c057600080fd5b5061023860043560243515156044351515606435608435151560a43560c4351515600160a060020a0360e43516610104356129c6565b34801561070257600080fd5b50610215600160a060020a0360043516612cdd565b34801561072357600080fd5b50610215612cef565b34801561073857600080fd5b50610238600160a060020a0360043516612cf5565b34801561075957600080fd5b50610774600160a060020a0360043516602435604435612d3b565b60408051602080825283518183015283519192839290830191858101910280838360005b838110156107b0578181015183820152602001610798565b505050509050019250505060405180910390f35b60166020526000908152604090205481565b6107de612e8f565b506000838152600e60209081526040918290208251610140810184528154815260018083015460ff8082161515958401869052610100918290048116151596840196909652600284015460608401526003840154861615156080840152600484015460a08401526005840154958616151560c0840152600160a060020a0395819004861660e084015260068401549083015260079092015490931661012084015214801561088c5750805182145b801561089a575060c0810151155b15156108a557600080fd5b6000831180156108c357506000848152601160205260409020548311155b15156108ce57600080fd5b6000341180156108f05750805183906108ee90349063ffffffff612e3016565b145b15156108fb57600080fd5b60008481526011602052604090205461091a908463ffffffff612e4716565b600085815260116020908152604080832093909355601390522054610945908463ffffffff612e5916565b600085815260136020908152604080832093909355601590522054610970903463ffffffff612e5916565b600085815260156020526040902055600a54610992908463ffffffff612e4716565b600a556009546109a8908463ffffffff612e5916565b600955600c546109be903463ffffffff612e5916565b600c55336000908152601a60205260409020546109e1908463ffffffff612e5916565b336000818152601a602090815260408083209490945560055484517fa144a3e00000000000000000000000000000000000000000000000000000000081523060048201526024810194909452604484018890529351600160a060020a039094169363a144a3e093606480820194918390030190829087803b158015610a6557600080fd5b505af1158015610a79573d6000803e3d6000fd5b505050506040513d6020811015610a8f57600080fd5b50511515610a9c57600080fd5b600084815260136020908152604091829020548251868152918201859052818301529051339186917fee2630dc019d6651a8610d35864d3742dabc15df4f306e69d97c350145dc2a839181900360600190a350505050565b600a5481565b600154600160a060020a031681565b60095481565b6000828152600e6020526040812054118015610b5857506000828152600e6020526040902060070154600160a060020a0316331480610b585750600054600160a060020a031633145b1515610b6357600080fd5b600160a060020a0381161515610b7857600080fd5b6000828152600e6020908152604091829020600701805473ffffffffffffffffffffffffffffffffffffffff1916600160a060020a0385169081179091558251908152915184927fb0ea0475d8f544ed781f7384574790a84d3534ae55c4dcfb7c498d583501849c92908290030190a25050565b60085481565b601a6020526000908152604090205481565b6000610c0e612ee3565b506000828152600f60209081526040808320815161014081018352815481526001820154600160a060020a03169381018490526002820154928101929092526003810154606083015260048101546080830152600581015460a0830152600681015460c0830152600781015460e0830152600881015461010083015260090154610120820152919081908190819081908190819081908190819015801590610ce657506000601d60008d60600151815260200190815260200160002060008f6000191660001916815260200190815260200160002054115b1515610cf157600080fd5b60009950601d60008c60600151815260200190815260200160002060008e6000191660001916815260200190815260200160002054985060009750610d42620f42408a612e3090919063ffffffff16565b96506000871115610e2957600195505b868611610dbc5760608b015160009081526024602090815260408083208984529091528120541115610db15760608b01516000908152602460209081526040808320898452909152902054610dae908b9063ffffffff612e5916565b99505b600190950194610d52565b610dcf87620f424063ffffffff612e6616565b975088881415610e135760608b01516000908152601e602090815260408083208c8452909152902054610e09908b9063ffffffff612e4716565b9950899b5061137b565b610e2688620186a063ffffffff612e3016565b97505b610e3c89620186a063ffffffff612e3016565b94506000851115610f2757610e5888600163ffffffff612e5916565b95505b848611610ec55760608b015160009081526023602090815260408083208984529091528120541115610eba5760608b01516000908152602360209081526040808320898452909152902054610eb7908b9063ffffffff612e5916565b99505b600190950194610e5b565b610ed885620186a063ffffffff612e6616565b975088881415610f125760608b01516000908152601e602090815260408083208c8452909152902054610e09908b9063ffffffff612e4716565b610f248861271063ffffffff612e3016565b97505b610f398961271063ffffffff612e3016565b9350600084111561102357610f5588600163ffffffff612e5916565b95505b838611610fc25760608b015160009081526022602090815260408083208984529091528120541115610fb75760608b01516000908152602260209081526040808320898452909152902054610fb4908b9063ffffffff612e5916565b99505b600190950194610f58565b610fd48461271063ffffffff612e6616565b97508888141561100e5760608b01516000908152601e602090815260408083208c8452909152902054610e09908b9063ffffffff612e4716565b611020886103e863ffffffff612e3016565b97505b611035896103e863ffffffff612e3016565b9250600083111561111e5761105188600163ffffffff612e5916565b95505b8286116110be5760608b0151600090815260216020908152604080832089845290915281205411156110b35760608b015160009081526021602090815260408083208984529091529020546110b0908b9063ffffffff612e5916565b99505b600190950194611054565b6110d0836103e863ffffffff612e6616565b97508888141561110a5760608b01516000908152601e602090815260408083208c8452909152902054610e09908b9063ffffffff612e4716565b61111b88606463ffffffff612e3016565b97505b61112f89606463ffffffff612e3016565b915060008211156112135761114b88600163ffffffff612e5916565b95505b8186116111b45760608b015160009081526020808052604080832089845290915281205411156111a95760608b01516000908152602080805260408083208984529091529020546111a6908b9063ffffffff612e5916565b99505b60019095019461114e565b6111c582606463ffffffff612e6616565b9750888814156111ff5760608b01516000908152601e602090815260408083208c8452909152902054610e09908b9063ffffffff612e4716565b61121088600a63ffffffff612e3016565b97505b61122489600a63ffffffff612e3016565b905060008111156112f85761124088600163ffffffff612e5916565b95505b8086116112ad5760608b01516000908152601f6020908152604080832089845290915281205411156112a25760608b01516000908152601f6020908152604080832089845290915290205461129f908b9063ffffffff612e5916565b99505b600190950194611243565b6112be81600a63ffffffff612e6616565b9750888814156112f85760608b01516000908152601e602090815260408083208c8452909152902054610e09908b9063ffffffff612e4716565b61130988600163ffffffff612e5916565b95505b888610156113775760608b01516000908152601e60209081526040808320898452909152812054111561136c5760608b01516000908152601e60209081526040808320898452909152902054611369908b9063ffffffff612e5916565b99505b60019095019461130c565b899b505b5050505050505050505050919050565b60116020526000908152604090205481565b60075481565b600054600160a060020a031633146113ba57600080fd5b600160a060020a03919091166000908152600360205260409020805460ff1916911515919091179055565b6000828152600e602052604081205411801561141a57506000828152600e6020526040902060070154600160a060020a031633145b151561142557600080fd5b6000828152600e6020908152604091829020600101805460ff19168415159081179091558251908152915184927fc30934c85ea89d18c5f239d5ff07fbce315e46d5487f59c32330c42712c6603792908290030190a25050565b600160a060020a03166000908152601c602052604090205490565b60006114a4612e8f565b6000848152600f60205260408120600181015490935081908190819081908190600160a060020a0316331480156114df575060008860060154115b15156114ea57600080fd5b6003808901546000908152600e6020908152604080832081516101408101835281548152600182015460ff8082161515958301959095526101009081900485161515938201939093526002820154606082015294810154831615156080860152600481015460a08601526005810154928316151560c0860152600160a060020a0392829004831660e08601526006810154918501919091526007015416610120830152909750891180156115b35750865160068901546115af9163ffffffff612e3016565b8911155b15156115be57600080fd5b60088801546115d3908a63ffffffff612e5916565b60088901558651611600906115ef908b9063ffffffff612e6616565b60068a01549063ffffffff612e4716565b6006890155600588015461161a908a63ffffffff612e4716565b600589015560038801546000908152601e60209081526040808320601d83528184208e8552835281842054845290915290205461165d908a63ffffffff612e5916565b601e60008a6003015481526020019081526020016000206000601d60008c60030154815260200190815260200160002060008e60001916600019168152602001908152602001600020548152602001908152602001600020819055506116ff620f4240601d60008b60030154815260200190815260200160002060008d6000191660001916815260200190815260200160002054612e3090919063ffffffff16565b955061174261171787620f424063ffffffff612e6616565b60038a01546000908152601d602090815260408083208f84529091529020549063ffffffff612e4716565b1561174e576001909501945b6003880154600090815260246020908152604080832089845290915290205461177d908a63ffffffff612e5916565b60038901805460009081526024602090815260408083208b845282528083209490945591548152601d82528281208d825290915220546117c690620186a063ffffffff612e3016565b94506117de61171786620186a063ffffffff612e6616565b156117ea576001909401935b60038801546000908152602360209081526040808320888452909152902054611819908a63ffffffff612e5916565b60038901805460009081526023602090815260408083208a845282528083209490945591548152601d82528281208d825290915220546118619061271063ffffffff612e3016565b93506118786117178561271063ffffffff612e6616565b15611884576001909301925b600388015460009081526022602090815260408083208784529091529020546118b3908a63ffffffff612e5916565b600389018054600090815260226020908152604080832089845282528083209490945591548152601d82528281208d825290915220546118fb906103e863ffffffff612e3016565b9250611912611717846103e863ffffffff612e6616565b1561191e576001909201915b6003880154600090815260216020908152604080832086845290915290205461194d908a63ffffffff612e5916565b600389018054600090815260216020908152604080832088845282528083209490945591548152601d82528281208d8252909152205461199490606463ffffffff612e3016565b91506119aa61171783606463ffffffff612e6616565b156119b6576001909101905b60038801546000908152602080805260408083208584529091529020546119e3908a63ffffffff612e5916565b60038901805460009081526020808052604080832087845282528083209490945591548152601d82528281208d82529091522054611a2890600a63ffffffff612e3016565b9050611a3e61171782600a63ffffffff612e6616565b15611a47576001015b60038801546000908152601f60209081526040808320848452909152902054611a76908a63ffffffff612e5916565b6003890180546000908152601f602090815260408083208684528252808320949094559154815260119091522054611ab4908a63ffffffff612e4716565b6003890154600090815260116020526040902055600a54611adb908a63ffffffff612e4716565b600a556003880154600090815260146020526040902054611b02908a63ffffffff612e5916565b6003890154600090815260146020526040902055600b54611b29908a63ffffffff612e5916565b600b5533600090815260186020526040902054611b4c908a63ffffffff612e4716565b336000908152601860205260409020556002880154875160078a0154611bb491611b7c919063ffffffff612e3016565b895160068c0154611ba891611b97919063ffffffff612e3016565b60088d01549063ffffffff612e5916565b9063ffffffff612e5916565b14611bbb57fe5b600554604080517fa144a3e0000000000000000000000000000000000000000000000000000000008152306004820152336024820152604481018c90529051600160a060020a039092169163a144a3e0916064808201926020929091908290030181600087803b158015611c2e57600080fd5b505af1158015611c42573d6000803e3d6000fd5b505050506040513d6020811015611c5857600080fd5b50511515611c6557600080fd5b6003880154885460018a015460068b015460088c0154604080518f815260208101939093528281019190915251600160a060020a03909216917f66647d13473bbe15b2c522be043e23fd510d2b7932cc6d3e7b38429673337dc09181900360600190a450505050505050505050565b60136020526000908152604090205481565b600c5481565b60036020526000908152604090205460ff1681565b600254600160a060020a031681565b600e6020526000908152604090208054600182015460028301546003840154600485015460058601546006870154600790970154959660ff80871697610100978890048216979582169591841693600160a060020a0392900482169291168a565b600054600160a060020a03163314611d8857600080fd5b60018054600160a060020a0393841673ffffffffffffffffffffffffffffffffffffffff199182161790915560028054929093169116179055565b60156020526000908152604090205481565b60186020526000908152604090205481565b60106020526000908152604090205481565b60176020526000908152604090205481565b600454600160a060020a031681565b6000806000611e27612ee3565b611e2f612e8f565b6000868152600f60209081526040808320815161014081018352815481526001820154600160a060020a03169381018490526002820154928101929092526003810154606083015260048101546080830152600581015460a0830152600681015460c0830152600781015460e08301526008810154610100830152600901546101208201529350819081901515611ec557600080fd5b6060808601516000908152600e602090815260409182902082516101408101845281548152600182015460ff8082161515948301949094526101009081900484161515948201949094526002820154948101949094526003810154821615156080850152600481015460a0850152600581015491821615801560c0860152600160a060020a0392849004831660e08601526006820154938501939093526007015416610120830152909450611f7957600080fd5b6000925060009150611f8a89610c04565b6080860151909150611fa2908263ffffffff612e4716565b6060860151600090815260136020526040902054118015611fc7575060008560c00151115b156120a15760a0850151611fe1908263ffffffff612e4716565b6060860151600090815260136020526040902054101561203957608085015161203490612014908363ffffffff612e4716565b60608701516000908152601360205260409020549063ffffffff612e4716565b61203f565b84604001515b925060008311156120a157610100850151845160e0870151612088929161207c9161206f9163ffffffff612e3016565b869063ffffffff612e4716565b9063ffffffff612e4716565b845190935061209e90849063ffffffff612e6616565b91505b5060e090930151909792965094509092505050565b600054600160a060020a031681565b60146020526000908152604090205481565b600b5481565b6000818152600f6020526040812060018101549091908190600160a060020a031633148015612110575060008360060154115b151561211b57600080fd5b61212484611e1a565b509150915060008111801561213d575082600601548111155b801561215c575060038301546000908152601560205260409020548111155b801561216a5750600c548111155b151561217557600080fd5b600783015461218a908263ffffffff612e5916565b600784015560068301546121a4908263ffffffff612e4716565b600684015560038301546000908152601560205260409020546121cd908263ffffffff612e4716565b6003840180546000908152601560209081526040808320949094559154815260179091522054612203908263ffffffff612e5916565b6003840154600090815260176020526040902055600c5461222a908263ffffffff612e4716565b600c55600d54612240908263ffffffff612e5916565b600d5533600090815260196020526040902054612263908363ffffffff612e5916565b33600090815260196020908152604080832093909355601b9052205461228f908263ffffffff612e5916565b336000908152601b60205260408082209290925560018501549151600160a060020a03909216916108fc84150291849190818181858888f193505050501580156122dd573d6000803e3d6000fd5b50600383015483546001850154600686015460078701546040805187815260208101939093528281019190915251600160a060020a03909216917f98eae951670f4cb129c5a751fb8b222b287681953d38f006efdd31ae1a0ebccf9181900360600190a450505050565b601b6020526000908152604090205481565b612361612e8f565b506000838152600e602090815260408083208151610140810183528154815260018083015460ff8082161515968401879052610100918290048116151595840195909552600284015460608401526003840154851615156080840152600484015460a08401526005840154948516151560c0840152600160a060020a0394819004851660e084015260068401549083015260079092015490921661012083015290929182911480156124135750825184145b801561241f5750600085115b80156124b95750600554604080517f70a082310000000000000000000000000000000000000000000000000000000081523360048201529051600092600160a060020a0316916370a0823191602480830192602092919082900301818787803b15801561248b57600080fd5b505af115801561249f573d6000803e3d6000fd5b505050506040513d60208110156124b557600080fd5b5051115b80156125565750600554604080517f70a082310000000000000000000000000000000000000000000000000000000081523360048201529051600160a060020a03909216916370a08231916024808201926020929091908290030181600087803b15801561252657600080fd5b505af115801561253a573d6000803e3d6000fd5b505050506040513d602081101561255057600080fd5b50518511155b151561256157600080fd5b604083015115156001141561259f576060830151600087815260126020526040902054612594908763ffffffff612e5916565b111561259f57600080fd5b60808301511515600114156125dd5760a08301516000878152601160205260409020546125d2908763ffffffff612e5916565b11156125dd57600080fd5b60078054600190810182556000888152601060209081526040918290208054909301909255915482516c010000000000000000000000003081028285015233026034820152604880820192909252835180820390920182526068019283905280519092918291908401908083835b6020831061266a5780518252601f19909201916020918201910161264b565b51815160209384036101000a600019018019909216911617905260408051929094018290039091206000818152600f83528481208281556001810180543373ffffffffffffffffffffffffffffffffffffffff19909116179055600281018d9055600381018e90558d8252601290935293909320546004820181905592965094506126fb9350909150879050612e59565b6005820155825161271390869063ffffffff612e6616565b6006820155426009820155600086815260106020908152604080832054601d8352818420868552835281842055338352601c82528083208054600181018255908452828420018590558883526011909152902054612777908663ffffffff612e5916565b6000878152601160209081526040808320939093556012905220546127a2908663ffffffff612e5916565b6000878152601260209081526040808320939093553382526018905220546127d0908663ffffffff612e5916565b33600090815260186020526040902055600a546127f3908663ffffffff612e5916565b600a55600854612809908663ffffffff612e5916565b600855600554604080517fa144a3e0000000000000000000000000000000000000000000000000000000008152336004820152306024820152604481018890529051600160a060020a039092169163a144a3e0916064808201926020929091908290030181600087803b15801561287f57600080fd5b505af1158015612893573d6000803e3d6000fd5b505050506040513d60208110156128a957600080fd5b505115156128b657600080fd5b6001810154815460038301546002840154865160048601546005870154600688015460c0808c015160098b0154604080519889526020890197909752878701959095526060870193909352608086019190915290151560a085015283015251600160a060020a03909416937f981d21149cf54101805c055a2b600bbecb86e0ef13056dc7ee5c12f7fa0c5f4f9181900360e00190a4505050505050565b600d5481565b60126020526000908152604090205481565b600f6020526000908152604090208054600182015460028301546003840154600485015460058601546006870154600788015460088901546009909901549798600160a060020a03909716979596949593949293919290918a565b60008054600160a060020a031633146129de57600080fd5b60008a116129eb57600080fd5b60018815151415612a035760008711612a0357600080fd5b60018615151415612a1b5760008511612a1b57600080fd5b60018415151415612b3757600160a060020a03831615801590612b1f5750600083600160a060020a03166306fdde036040518163ffffffff167c0100000000000000000000000000000000000000000000000000000000028152600401600060405180830381600087803b158015612a9257600080fd5b505af1158015612aa6573d6000803e3d6000fd5b505050506040513d6000823e601f3d908101601f191682016040526020811015612acf57600080fd5b810190808051640100000000811115612ae757600080fd5b82016020810184811115612afa57600080fd5b8151640100000000811182820187101715612b1457600080fd5b505092919050505051115b1515612b2a57600080fd5b60008211612b3757600080fd5b50600680546001908101918290556000918252600e60205260409091208a8155908101805460ff19168a15151761ff0019166101008a1580159190910291909117909155612b8757600281018790555b60038101805460ff19168715801591909117909155612ba857600481018590555b60058101805460ff19168515801591909117909155612bf85760058101805474ffffffffffffffffffffffffffffffffffffffff001916610100600160a060020a03861602179055600681018290555b60078101805473ffffffffffffffffffffffffffffffffffffffff191633179081905560068054835460018501546002860154600387015460048801546005890154968901546040805196875260ff8087161515602089015261010096879004811615158883015260608801959095529284161515608087015260a0860191909152918616151560c085015294829004600160a060020a0390811660e0850152918301529251939092169290917fed37974fd8fdac3b384e60b31da7bc35d93b916f5ceacdff9a326476c982bdd391908190036101200190a350505050505050505050565b60196020526000908152604090205481565b60065481565b600054600160a060020a03163314612d0c57600080fd5b6000805473ffffffffffffffffffffffffffffffffffffffff1916600160a060020a0392909216919091179055565b6060806000808510158015612d505750848410155b8015612d735750600160a060020a0386166000908152601c602052604090205484105b1515612d7e57600080fd5b612d936001611ba8868863ffffffff612e4716565b604051908082528060200260200182016040528015612dbc578160200160208202803883390190505b5091508490505b838111612e2757600160a060020a0386166000908152601c60205260409020805482908110612dee57fe5b60009182526020909120015482612e0b838863ffffffff612e4716565b81518110612e1557fe5b60209081029091010152600101612dc3565b50949350505050565b60008183811515612e3d57fe5b0490505b92915050565b600082821115612e5357fe5b50900390565b81810182811015612e4157fe5b6000821515612e7757506000612e41565b50818102818382811515612e8757fe5b0414612e4157fe5b6040805161014081018252600080825260208201819052918101829052606081018290526080810182905260a0810182905260c0810182905260e08101829052610100810182905261012081019190915290565b61014060405190810160405280600080191681526020016000600160a060020a03168152602001600081526020016000815260200160008152602001600081526020016000815260200160008152602001600081526020016000815250905600a165627a7a72305820dcd0ea01bfe74260063c13a56ad30996c9917c25b848e434b570849b1d7b26130029",
	"source": "pragma solidity ^0.4.24;\n\nimport './SafeMath.sol';\nimport './developed.sol';\nimport './TokenERC20.sol';\nimport './AOToken.sol';\n\n/**\n * @title AOPool\n *\n * This contract acts as the exchange between AO and ETH/ERC-20 compatible tokens\n */\ncontract AOPool is developed {\n\tusing SafeMath for uint256;\n\n\taddress public baseDenominationAddress;\n\tAOToken internal _baseAO;\n\n\tstruct Pool {\n\t\tuint256 price;\t// Flat price of AO\n\n\t\t/**\n\t\t * If true, Pool is live and can be sold into.\n\t\t * Otherwise, Pool cannot be sold into.\n\t\t */\n\t\tbool status;\n\n\t\t/**\n\t\t * If true, has sell cap. Otherwise, no sell cap.\n\t\t */\n\t\tbool sellCapStatus;\n\n\t\t/**\n\t\t * Denominated in AO, creates a cap for the amount of AO that can be\n\t\t * put up for sale in this pool at `price`\n\t\t */\n\t\tuint256 sellCapAmount;\n\n\t\t/**\n\t\t * If true, has quantity cap. Otherwise, no quantity cap.\n\t\t */\n\t\tbool quantityCapStatus;\n\n\t\t/**\n\t\t * Denominated in AO, creates a cap for the amount of AO at any given time\n\t\t * that can be available for sale in this pool\n\t\t */\n\t\tuint256 quantityCapAmount;\n\n\t\t/**\n\t\t * If true, the Pool is priced in an ERC20 compatible token.\n\t\t * Otherwise, the Pool is priced in Ethereum\n\t\t */\n\t\tbool erc20CounterAsset;\n\n\t\taddress erc20TokenAddress;\t\t\t// The address of the ERC20 Token\n\n\t\t/**\n\t\t * Used if ERC20 token needs to deviate from Ethereum in multiplication/division\n\t\t */\n\t\tuint256 erc20TokenMultiplier;\n\n\t\taddress adminAddress;\t\t\t\t// defaults to DAO address, but can be modified\n\t}\n\n\tstruct Lot {\n\t\tbytes32 lotId;\t\t\t\t\t\t// The ID of this Lot\n\t\taddress seller;\t\t\t\t\t\t// Ethereum address of the seller\n\t\tuint256 lotQuantity;\t\t\t\t// Amount of AO being added to the Pool from this Lot\n\t\tuint256 poolId;\t\t\t\t\t\t// Identifier for the Pool this Lot is adding to\n\t\tuint256 poolPreSellSnapshot;\t\t// Amount of contributed to the Pool prior to this Lot Number\n\t\tuint256 poolSellLotSnapshot;\t\t// poolPreSellSnapshot + lotQuantity - tokenWithdrawn\n\t\tuint256 lotValueInCounterAsset;\t\t// Amount of AO x Pool Price\n\t\tuint256 counterAssetWithdrawn;\t\t// Amount of Counter-Asset withdrawn from this Lot\n\t\tuint256 tokenWithdrawn;\t\t\t\t// Amount of AO withdrawn from this Lot\n\t\tuint256 timestamp;\n\t}\n\n\t// Contract variables\n\tuint256 public totalPool;\n\tuint256 public contractTotalLot;\t\t// Total lot from all pools\n\tuint256 public contractTotalSell;\t\t// Quantity of AO that has been contributed to all Pools\n\tuint256 public contractTotalBuy;\t\t// Quantity of AO that has been bought from all Pools\n\tuint256 public contractTotalQuantity;\t// Quantity of AO available to buy from all Pools\n\tuint256 public contractTotalWithdrawn;\t// Quantity of AO that has been withdrawn from all Pools\n\tuint256 public contractEthereumBalance;\t// Total quantity of Ethereum in contract\n\tuint256 public contractTotalEthereumWithdrawn; // Total Ethereum withdrawn from selling AO in contract\n\n\t// Mapping from Pool ID to Pool\n\tmapping (uint256 => Pool) public pools;\n\n\t// Mapping from Lot ID to Lot\n\tmapping (bytes32 => Lot) public lots;\n\n\t// Mapping from Pool ID to total Lots in the Pool\n\tmapping (uint256 => uint256) public poolTotalLot;\n\n\t// Mapping from Pool ID to quantity of AO available to buy at `price`\n\tmapping (uint256 => uint256) public poolTotalQuantity;\n\n\t// Mapping from Pool ID to quantity of AO that has been contributed to the Pool\n\tmapping (uint256 => uint256) public poolTotalSell;\n\n\t// Mapping from Pool ID to quantity of AO that has been bought from the Pool\n\tmapping (uint256 => uint256) public poolTotalBuy;\n\n\t// Mapping from Pool ID to quantity of AO that has been withdrawn from the Pool\n\tmapping (uint256 => uint256) public poolTotalWithdrawn;\n\n\t// Mapping from Pool ID to quantity of Ethereum available to withdraw\n\tmapping (uint256 => uint256) public poolEthereumBalance;\n\n\t// Mapping from Pool ID to quantity of ERC20 token available to withdraw\n\tmapping (uint256 => uint256) public poolERC20TokenBalance;\n\n\t// Mapping from Pool ID to amount of Ethereum withdrawn from selling AO\n\tmapping (uint256 => uint256) public poolTotalEthereumWithdrawn;\n\n\t// Mapping from an address to quantity of AO put on sale from all sell lots\n\tmapping (address => uint256) public totalPutOnSale;\n\n\t// Mapping from an address to quantity of AO sold and redeemed from all sell lots\n\tmapping (address => uint256) public totalSold;\n\n\t// Mapping from an address to quantity of AO bought from all pool\n\tmapping (address => uint256) public totalBought;\n\n\t// Mapping from an address to amount of Ethereum withdrawn from selling AO\n\tmapping (address => uint256) public totalEthereumWithdrawn;\n\n\t// Mapping from an address to its Lots\n\tmapping (address => bytes32[]) internal ownerLots;\n\n\t// Mapping from Pool's Lot ID to Lot internal ID\n\tmapping (uint256 => mapping (bytes32 => uint256)) internal poolLotInternalIdLookup;\n\n\t// Mapping from Pool's Lot internal ID to total token withdrawn\n\tmapping (uint256 => mapping (uint256 => uint256)) internal poolLotTokenWithdrawn;\n\n\t// Mapping from Pool's tenth Lot to total token withdrawn\n\t// This is to help optimize calculating the total token withdrawn before certain Lot\n\tmapping (uint256 => mapping (uint256 => uint256)) internal poolTenthLotTokenWithdrawnSnapshot;\n\n\t// Mapping from Pool's hundredth Lot to total token withdrawn\n\t// This is to help optimize calculating the total token withdrawn before certain Lot\n\tmapping (uint256 => mapping (uint256 => uint256)) internal poolHundredthLotTokenWithdrawnSnapshot;\n\n\t// Mapping from Pool's thousandth Lot to total token withdrawn\n\t// This is to help optimize calculating the total token withdrawn before certain Lot\n\tmapping (uint256 => mapping (uint256 => uint256)) internal poolThousandthLotTokenWithdrawnSnapshot;\n\n\t// Mapping from Pool's ten thousandth Lot to total token withdrawn\n\t// This is to help optimize calculating the total token withdrawn before certain Lot\n\tmapping (uint256 => mapping (uint256 => uint256)) internal poolTenThousandthLotTokenWithdrawnSnapshot;\n\n\t// Mapping from Pool's hundred thousandth Lot to total token withdrawn\n\t// This is to help optimize calculating the total token withdrawn before certain Lot\n\tmapping (uint256 => mapping (uint256 => uint256)) internal poolHundredThousandthLotTokenWithdrawnSnapshot;\n\n\t// Mapping from Pool's millionth Lot to total token withdrawn\n\t// This is to help optimize calculating the total token withdrawn before certain Lot\n\tmapping (uint256 => mapping (uint256 => uint256)) internal poolMillionthLotTokenWithdrawnSnapshot;\n\n\t/**\n\t * @dev Constructor function\n\t */\n\tconstructor(address _baseDenominationAddress) public {\n\t\tbaseDenominationAddress = _baseDenominationAddress;\n\t\t_baseAO = AOToken(_baseDenominationAddress);\n\t}\n\n\t// Event to be broadcasted to public when Pool is created\n\tevent CreatePool(uint256 indexed poolId, address indexed adminAddress, uint256 price, bool status, bool sellCapStatus, uint256 sellCapAmount, bool quantityCapStatus, uint256 quantityCapAmount, bool erc20CounterAsset, address erc20TokenAddress, uint256 erc20TokenMultiplier);\n\n\t// Event to be broadcasted to public when Pool's status is updated\n\t// If status == true, start Pool\n\t// Otherwise, stop Pool\n\tevent UpdatePoolStatus(uint256 indexed poolId, bool status);\n\n\t// Event to be broadcasted to public when Pool's admin address is changed\n\tevent ChangeAdminAddress(uint256 indexed poolId, address newAdminAddress);\n\n\t/**\n\t * Event to be broadcasted to public when a seller sells AO\n\t *\n\t * If erc20CounterAsset is true, the Lot is priced in an ERC20 compatible token.\n\t * Otherwise, the Lot is priced in Ethereum\n\t */\n\tevent LotCreation(uint256 indexed poolId, bytes32 indexed lotId, address indexed seller, uint256 lotQuantity, uint256 price, uint256 poolPreSellSnapshot, uint256 poolSellLotSnapshot, uint256 lotValueInCounterAsset, bool erc20CounterAsset, uint256 timestamp);\n\n\t// Event to be broadcasted to public when a buyer buys AO\n\tevent BuyWithEth(uint256 indexed poolId, address indexed buyer, uint256 buyQuantity, uint256 price, uint256 currentPoolTotalBuy);\n\n\t// Event to be broadcasted to public when a buyer withdraw ETH from Lot\n\tevent WithdrawEth(address indexed seller, bytes32 indexed lotId, uint256 indexed poolId, uint256 withdrawnAmount, uint256 currentLotValueInCounterAsset, uint256 currentLotCounterAssetWithdrawn);\n\n\t// Event to be broadcasted to public when a seller withdraw token from Lot\n\tevent WithdrawToken(address indexed seller, bytes32 indexed lotId, uint256 indexed poolId, uint256 withdrawnAmount, uint256 currentlotValueInCounterAsset, uint256 currentLotTokenWithdrawn);\n\n\t/***** Developer Only Methods *****/\n\t/**\n\t * @dev DAO creates a Pool\n\t * @param _price The flat price of AO\n\t * @param _status The status of the Pool\n\t *\t\t\t\t\ttrue = Pool is live and can be sold into\n\t *\t\t\t\t\tfalse = Pool cannot be sold into\n\t * @param _sellCapStatus Whether or not the Pool has sell cap\n\t *\t\t\t\t\ttrue = has sell cap\n\t *\t\t\t\t\tfalse = no sell cap\n\t * @param _sellCapAmount Cap for the amount of AO that can be put up for sale in this Pool at `_price`\n\t * @param _quantityCapStatus Whether or not the Pool has quantity cap\n\t *\t\t\t\t\ttrue = has quantity cap\n\t *\t\t\t\t\tfalse = no quantity cap\n\t * @param _quantityCapAmount Cap for the amount of AO at any given time that can be available for sale in this Pool\n\t * @param _erc20CounterAsset Type of the Counter-Asset\n\t *\t\t\t\t\ttrue = Pool is priced in ERC20 compatible Token\n\t *\t\t\t\t\tfalse = Pool is priced in Ethereum\n\t * @param _erc20TokenAddress The address of the ERC20 Token\n\t * @param _erc20TokenMultiplier Used if ERC20 Token needs to deviate from Ethereum in multiplication/division\n\t */\n\tfunction createPool(\n\t\tuint256 _price,\n\t\tbool _status,\n\t\tbool _sellCapStatus,\n\t\tuint256 _sellCapAmount,\n\t\tbool _quantityCapStatus,\n\t\tuint256 _quantityCapAmount,\n\t\tbool _erc20CounterAsset,\n\t\taddress _erc20TokenAddress,\n\t\tuint256 _erc20TokenMultiplier) public onlyDeveloper {\n\t\trequire (_price > 0);\n\t\t// Make sure sell cap amount is provided if sell cap is enabled\n\t\tif (_sellCapStatus == true) {\n\t\t\trequire (_sellCapAmount > 0);\n\t\t}\n\t\t// Make sure quantity cap amount is provided if quantity cap is enabled\n\t\tif (_quantityCapStatus == true) {\n\t\t\trequire (_quantityCapAmount > 0);\n\t\t}\n\t\t// Make sure the ERC20 token address and multiplier are provided\n\t\t// if this Pool is priced in ERC20 compatible Token\n\t\tif (_erc20CounterAsset == true) {\n\t\t\trequire (_erc20TokenAddress != address(0) && bytes(TokenERC20(_erc20TokenAddress).name()).length > 0);\n\t\t\trequire (_erc20TokenMultiplier > 0);\n\t\t}\n\n\t\ttotalPool++;\n\t\tPool storage _pool = pools[totalPool];\n\t\t_pool.price = _price;\n\t\t_pool.status = _status;\n\t\t_pool.sellCapStatus = _sellCapStatus;\n\t\tif (_sellCapStatus) {\n\t\t\t_pool.sellCapAmount = _sellCapAmount;\n\t\t}\n\t\t_pool.quantityCapStatus = _quantityCapStatus;\n\t\tif (_quantityCapStatus) {\n\t\t\t_pool.quantityCapAmount = _quantityCapAmount;\n\t\t}\n\t\t_pool.erc20CounterAsset = _erc20CounterAsset;\n\t\tif (_erc20CounterAsset) {\n\t\t\t_pool.erc20TokenAddress = _erc20TokenAddress;\n\t\t\t_pool.erc20TokenMultiplier = _erc20TokenMultiplier;\n\t\t}\n\t\t_pool.adminAddress = msg.sender;\n\n\t\temit CreatePool(totalPool, _pool.adminAddress, _pool.price, _pool.status, _pool.sellCapStatus, _pool.sellCapAmount, _pool.quantityCapStatus, _pool.quantityCapAmount, _pool.erc20CounterAsset, _pool.erc20TokenAddress, _pool.erc20TokenMultiplier);\n\t}\n\n\t/***** Pool's Admin Only Methods *****/\n\t/**\n\t * @dev Start/Stop a Pool\n\t * @param _poolId The ID of the Pool\n\t * @param _status The status to set. true = start. false = stop\n\t */\n\tfunction updatePoolStatus(uint256 _poolId, bool _status) public {\n\t\trequire (pools[_poolId].price > 0 && pools[_poolId].adminAddress == msg.sender);\n\t\tpools[_poolId].status = _status;\n\t\temit UpdatePoolStatus(_poolId, _status);\n\t}\n\n\t/**\n\t * @dev Change Admin Address\n\t * @param _poolId The ID of the Pool\n\t * @param _adminAddress The new admin address to set\n\t */\n\tfunction changeAdminAddress(uint256 _poolId, address _adminAddress) public {\n\t\trequire (pools[_poolId].price > 0 && (pools[_poolId].adminAddress == msg.sender || developer == msg.sender));\n\t\trequire (_adminAddress != address(0));\n\t\tpools[_poolId].adminAddress = _adminAddress;\n\t\temit ChangeAdminAddress(_poolId, _adminAddress);\n\t}\n\n\t/***** Public Methods *****/\n\t/**\n\t * @dev Seller sells AO in Pool `_poolId` - create a Lot to be added to a Pool for a seller.\n\t * @param _poolId The ID of the Pool\n\t * @param _quantity The amount of AO to be sold\n\t * @param _price The price supplied by seller\n\t */\n\tfunction sell(uint256 _poolId, uint256 _quantity, uint256 _price) public {\n\t\tPool memory _pool = pools[_poolId];\n\t\trequire (_pool.status == true && _pool.price == _price && _quantity > 0 && _baseAO.balanceOf(msg.sender) > 0 && _quantity <= _baseAO.balanceOf(msg.sender));\n\n\t\t// If there is a sell cap\n\t\tif (_pool.sellCapStatus == true) {\n\t\t\trequire (poolTotalSell[_poolId].add(_quantity) <= _pool.sellCapAmount);\n\t\t}\n\n\t\t// If there is a quantity cap\n\t\tif (_pool.quantityCapStatus == true) {\n\t\t\trequire (poolTotalQuantity[_poolId].add(_quantity) <= _pool.quantityCapAmount);\n\t\t}\n\n\t\t// Create Lot for this sell transaction\n\t\tcontractTotalLot++;\n\t\tpoolTotalLot[_poolId]++;\n\n\t\t// Generate Lot ID\n\t\tbytes32 _lotId = keccak256(abi.encodePacked(this, msg.sender, contractTotalLot));\n\n\t\tLot storage _lot = lots[_lotId];\n\t\t_lot.lotId = _lotId;\n\t\t_lot.seller = msg.sender;\n\t\t_lot.lotQuantity = _quantity;\n\t\t_lot.poolId = _poolId;\n\t\t_lot.poolPreSellSnapshot = poolTotalSell[_poolId];\n\t\t_lot.poolSellLotSnapshot = poolTotalSell[_poolId].add(_quantity);\n\t\t_lot.lotValueInCounterAsset = _quantity.mul(_pool.price);\n\t\t_lot.timestamp = now;\n\t\tpoolLotInternalIdLookup[_poolId][_lotId] = poolTotalLot[_poolId];\n\t\townerLots[msg.sender].push(_lotId);\n\n\t\t// Update contract variables\n\t\tpoolTotalQuantity[_poolId] = poolTotalQuantity[_poolId].add(_quantity);\n\t\tpoolTotalSell[_poolId] = poolTotalSell[_poolId].add(_quantity);\n\t\ttotalPutOnSale[msg.sender] = totalPutOnSale[msg.sender].add(_quantity);\n\t\tcontractTotalQuantity = contractTotalQuantity.add(_quantity);\n\t\tcontractTotalSell = contractTotalSell.add(_quantity);\n\n\t\trequire (_baseAO.whitelistTransferFrom(msg.sender, this, _quantity));\n\n\t\temit LotCreation(_lot.poolId, _lot.lotId, _lot.seller, _lot.lotQuantity, _pool.price, _lot.poolPreSellSnapshot, _lot.poolSellLotSnapshot, _lot.lotValueInCounterAsset, _pool.erc20CounterAsset, _lot.timestamp);\n\t}\n\n\t/**\n\t * @dev Retrieve number of Lots an `_account` has\n\t * @param _account The address of the Lot's owner\n\t * @return Total Lots the owner has\n\t */\n\tfunction ownerTotalLot(address _account) public view returns (uint256) {\n\t\treturn ownerLots[_account].length;\n\t}\n\n\t/**\n\t * @dev Get list of owner's Lot IDs from `_from` to `_to` index\n\t * @param _account The address of the Lot's owner\n\t * @param _from The starting index, (i.e 0)\n\t * @param _to The ending index, (i.e total - 1)\n\t * @return list of owner's IDs\n\t */\n\tfunction ownerLotIds(address _account, uint256 _from, uint256 _to) public view returns (bytes32[]) {\n\t\trequire (_from >= 0 && _to >= _from && ownerLots[_account].length > _to);\n\t\tbytes32[] memory _lotIds = new bytes32[](_to.sub(_from).add(1));\n\t\tfor (uint256 i = _from; i <= _to; i++) {\n\t\t\t_lotIds[i.sub(_from)] = ownerLots[_account][i];\n\t\t}\n\t\treturn _lotIds;\n\t}\n\n\t/**\n\t * @dev Buyer buys AO from Pool `_poolId` with Ethereum\n\t * @param _poolId The ID of the Pool\n\t * @param _quantity The amount of AO to be bought\n\t * @param _price The price supplied by buyer\n\t */\n\tfunction buyWithEth(uint256 _poolId, uint256 _quantity, uint256 _price) public payable {\n\t\tPool memory _pool = pools[_poolId];\n\t\trequire (_pool.status == true && _pool.price == _price && _pool.erc20CounterAsset == false);\n\t\trequire (_quantity > 0 && _quantity <= poolTotalQuantity[_poolId]);\n\t\trequire (msg.value > 0 && msg.value.div(_pool.price) == _quantity);\n\n\t\t// Update contract variables\n\t\tpoolTotalQuantity[_poolId] = poolTotalQuantity[_poolId].sub(_quantity);\n\t\tpoolTotalBuy[_poolId] = poolTotalBuy[_poolId].add(_quantity);\n\t\tpoolEthereumBalance[_poolId] = poolEthereumBalance[_poolId].add(msg.value);\n\n\t\tcontractTotalQuantity = contractTotalQuantity.sub(_quantity);\n\t\tcontractTotalBuy = contractTotalBuy.add(_quantity);\n\t\tcontractEthereumBalance = contractEthereumBalance.add(msg.value);\n\n\t\ttotalBought[msg.sender] = totalBought[msg.sender].add(_quantity);\n\n\t\trequire (_baseAO.whitelistTransferFrom(this, msg.sender, _quantity));\n\n\t\temit BuyWithEth(_poolId, msg.sender, _quantity, _price, poolTotalBuy[_poolId]);\n\t}\n\n\t/**\n\t * @dev Seller withdraw Ethereum from Lot `_lotId`\n\t * @param _lotId The ID of the Lot\n\t */\n\tfunction withdrawEth(bytes32 _lotId) public {\n\t\tLot storage _lot = lots[_lotId];\n\t\trequire (_lot.seller == msg.sender && _lot.lotValueInCounterAsset > 0);\n\t\t(uint256 soldQuantity, uint256 ethAvailableToWithdraw,) = lotEthAvailableToWithdraw(_lotId);\n\n\t\trequire (ethAvailableToWithdraw > 0 && ethAvailableToWithdraw <= _lot.lotValueInCounterAsset && ethAvailableToWithdraw <= poolEthereumBalance[_lot.poolId] && ethAvailableToWithdraw <= contractEthereumBalance);\n\n\t\t// Update lot variables\n\t\t_lot.counterAssetWithdrawn = _lot.counterAssetWithdrawn.add(ethAvailableToWithdraw);\n\t\t_lot.lotValueInCounterAsset = _lot.lotValueInCounterAsset.sub(ethAvailableToWithdraw);\n\n\t\t// Update contract variables\n\t\tpoolEthereumBalance[_lot.poolId] = poolEthereumBalance[_lot.poolId].sub(ethAvailableToWithdraw);\n\t\tpoolTotalEthereumWithdrawn[_lot.poolId] = poolTotalEthereumWithdrawn[_lot.poolId].add(ethAvailableToWithdraw);\n\t\tcontractEthereumBalance = contractEthereumBalance.sub(ethAvailableToWithdraw);\n\t\tcontractTotalEthereumWithdrawn = contractTotalEthereumWithdrawn.add(ethAvailableToWithdraw);\n\n\t\ttotalSold[msg.sender] = totalSold[msg.sender].add(soldQuantity);\n\t\ttotalEthereumWithdrawn[msg.sender] = totalEthereumWithdrawn[msg.sender].add(ethAvailableToWithdraw);\n\n\t\t// Send eth to seller\n\t\t_lot.seller.transfer(ethAvailableToWithdraw);\n\n\t\temit WithdrawEth(_lot.seller, _lot.lotId, _lot.poolId, ethAvailableToWithdraw, _lot.lotValueInCounterAsset, _lot.counterAssetWithdrawn);\n\t}\n\n\t/**\n\t * @dev Seller gets Lot `_lotId` (priced in ETH) available to withdraw info\n\t * @param _lotId The ID of the Lot\n\t * @return The amount of token sold\n\t * @return Ethereum available to withdraw from the Lot\n\t * @return Current Ethereum withdrawn from the Lot\n\t */\n\tfunction lotEthAvailableToWithdraw(bytes32 _lotId) public view returns (uint256, uint256, uint256) {\n\t\tLot memory _lot = lots[_lotId];\n\t\trequire (_lot.seller != address(0));\n\n\t\tPool memory _pool = pools[_lot.poolId];\n\t\trequire (_pool.erc20CounterAsset == false);\n\n\t\tuint256 soldQuantity = 0;\n\t\tuint256 ethAvailableToWithdraw = 0;\n\n\t\t// Check whether or not there are tokens withdrawn from Lots before this Lot\n\t\tuint256 lotAdjustment = totalTokenWithdrawnBeforeLot(_lotId);\n\n\t\tif (poolTotalBuy[_lot.poolId] > _lot.poolPreSellSnapshot.sub(lotAdjustment) && _lot.lotValueInCounterAsset > 0) {\n\t\t\tsoldQuantity = (poolTotalBuy[_lot.poolId] >= _lot.poolSellLotSnapshot.sub(lotAdjustment)) ? _lot.lotQuantity : poolTotalBuy[_lot.poolId].sub(_lot.poolPreSellSnapshot.sub(lotAdjustment));\n\t\t\tif (soldQuantity > 0) {\n\t\t\t\tsoldQuantity = soldQuantity.sub(_lot.counterAssetWithdrawn.div(_pool.price)).sub(_lot.tokenWithdrawn);\n\t\t\t\tethAvailableToWithdraw = soldQuantity.mul(_pool.price);\n\t\t\t}\n\t\t}\n\t\treturn (soldQuantity, ethAvailableToWithdraw, _lot.counterAssetWithdrawn);\n\t}\n\n\t/**\n\t * @dev Seller withdraw token from Lot `_lotId`\n\t * @param _lotId The ID of the Lot\n\t * @param _quantity The amount of token to withdraw\n\t */\n\tfunction withdrawToken(bytes32 _lotId, uint256 _quantity) public {\n\t\tLot storage _lot = lots[_lotId];\n\t\trequire (_lot.seller == msg.sender && _lot.lotValueInCounterAsset > 0);\n\n\t\tPool memory _pool = pools[_lot.poolId];\n\t\trequire (_quantity > 0 && _quantity <= _lot.lotValueInCounterAsset.div(_pool.price));\n\n\t\t// Update lot variables\n\t\t_lot.tokenWithdrawn = _lot.tokenWithdrawn.add(_quantity);\n\t\t_lot.lotValueInCounterAsset = _lot.lotValueInCounterAsset.sub(_quantity.mul(_pool.price));\n\t\t_lot.poolSellLotSnapshot = _lot.poolSellLotSnapshot.sub(_quantity);\n\t\tpoolLotTokenWithdrawn[_lot.poolId][poolLotInternalIdLookup[_lot.poolId][_lotId]] = poolLotTokenWithdrawn[_lot.poolId][poolLotInternalIdLookup[_lot.poolId][_lotId]].add(_quantity);\n\n\t\t// Store Pool's millionth Lot snapshot\n\t\tuint256 millionth = poolLotInternalIdLookup[_lot.poolId][_lotId].div(1000000);\n\t\tif (poolLotInternalIdLookup[_lot.poolId][_lotId].sub(millionth.mul(1000000)) != 0) {\n\t\t\tmillionth++;\n\t\t}\n\t\tpoolMillionthLotTokenWithdrawnSnapshot[_lot.poolId][millionth] = poolMillionthLotTokenWithdrawnSnapshot[_lot.poolId][millionth].add(_quantity);\n\n\t\t// Store Pool's hundred thousandth Lot snapshot\n\t\tuint256 hundredThousandth = poolLotInternalIdLookup[_lot.poolId][_lotId].div(100000);\n\t\tif (poolLotInternalIdLookup[_lot.poolId][_lotId].sub(hundredThousandth.mul(100000)) != 0) {\n\t\t\thundredThousandth++;\n\t\t}\n\t\tpoolHundredThousandthLotTokenWithdrawnSnapshot[_lot.poolId][hundredThousandth] = poolHundredThousandthLotTokenWithdrawnSnapshot[_lot.poolId][hundredThousandth].add(_quantity);\n\n\t\t// Store Pool's ten thousandth Lot snapshot\n\t\tuint256 tenThousandth = poolLotInternalIdLookup[_lot.poolId][_lotId].div(10000);\n\t\tif (poolLotInternalIdLookup[_lot.poolId][_lotId].sub(tenThousandth.mul(10000)) != 0) {\n\t\t\ttenThousandth++;\n\t\t}\n\t\tpoolTenThousandthLotTokenWithdrawnSnapshot[_lot.poolId][tenThousandth] = poolTenThousandthLotTokenWithdrawnSnapshot[_lot.poolId][tenThousandth].add(_quantity);\n\n\t\t// Store Pool's thousandth Lot snapshot\n\t\tuint256 thousandth = poolLotInternalIdLookup[_lot.poolId][_lotId].div(1000);\n\t\tif (poolLotInternalIdLookup[_lot.poolId][_lotId].sub(thousandth.mul(1000)) != 0) {\n\t\t\tthousandth++;\n\t\t}\n\t\tpoolThousandthLotTokenWithdrawnSnapshot[_lot.poolId][thousandth] = poolThousandthLotTokenWithdrawnSnapshot[_lot.poolId][thousandth].add(_quantity);\n\n\t\t// Store Pool's hundredth Lot snapshot\n\t\tuint256 hundredth = poolLotInternalIdLookup[_lot.poolId][_lotId].div(100);\n\t\tif (poolLotInternalIdLookup[_lot.poolId][_lotId].sub(hundredth.mul(100)) != 0) {\n\t\t\thundredth++;\n\t\t}\n\t\tpoolHundredthLotTokenWithdrawnSnapshot[_lot.poolId][hundredth] = poolHundredthLotTokenWithdrawnSnapshot[_lot.poolId][hundredth].add(_quantity);\n\n\t\t// Store Pool's tenth Lot snapshot\n\t\tuint256 tenth = poolLotInternalIdLookup[_lot.poolId][_lotId].div(10);\n\t\tif (poolLotInternalIdLookup[_lot.poolId][_lotId].sub(tenth.mul(10)) != 0) {\n\t\t\ttenth++;\n\t\t}\n\t\tpoolTenthLotTokenWithdrawnSnapshot[_lot.poolId][tenth] = poolTenthLotTokenWithdrawnSnapshot[_lot.poolId][tenth].add(_quantity);\n\n\t\t// Update contract variables\n\t\tpoolTotalQuantity[_lot.poolId] = poolTotalQuantity[_lot.poolId].sub(_quantity);\n\t\tcontractTotalQuantity = contractTotalQuantity.sub(_quantity);\n\t\tpoolTotalWithdrawn[_lot.poolId] = poolTotalWithdrawn[_lot.poolId].add(_quantity);\n\t\tcontractTotalWithdrawn = contractTotalWithdrawn.add(_quantity);\n\n\t\ttotalPutOnSale[msg.sender] = totalPutOnSale[msg.sender].sub(_quantity);\n\n\t\tassert (_lot.tokenWithdrawn.add(_lot.lotValueInCounterAsset.div(_pool.price)).add(_lot.counterAssetWithdrawn.div(_pool.price)) == _lot.lotQuantity);\n\n\t\trequire (_baseAO.whitelistTransferFrom(this, msg.sender, _quantity));\n\n\t\temit WithdrawToken(_lot.seller, _lot.lotId, _lot.poolId, _quantity, _lot.lotValueInCounterAsset, _lot.tokenWithdrawn);\n\t}\n\n\t/**\n\t * @dev Get total token withdrawn from all Lots before Lot `_lotId`\n\t * @param _lotId The ID of the Lot\n\t * @return Total token withdrawn from all Lots before Lot `_lotId`\n\t */\n\tfunction totalTokenWithdrawnBeforeLot(bytes32 _lotId) public view returns (uint256) {\n\t\tLot memory _lot = lots[_lotId];\n\t\trequire (_lot.seller != address(0) && poolLotInternalIdLookup[_lot.poolId][_lotId] > 0);\n\n\t\tuint256 totalTokenWithdrawn = 0;\n\t\tuint256 lotInternalId = poolLotInternalIdLookup[_lot.poolId][_lotId];\n\t\tuint256 lowerBound = 0;\n\n\t\tuint256 millionth = lotInternalId.div(1000000);\n\t\tif (millionth > 0) {\n\t\t\tfor (uint256 i=1; i<=millionth; i++) {\n\t\t\t\tif (poolMillionthLotTokenWithdrawnSnapshot[_lot.poolId][i] > 0) {\n\t\t\t\t\ttotalTokenWithdrawn = totalTokenWithdrawn.add(poolMillionthLotTokenWithdrawnSnapshot[_lot.poolId][i]);\n\t\t\t\t}\n\t\t\t}\n\t\t\tlowerBound = millionth.mul(1000000);\n\t\t\tif (lowerBound == lotInternalId) {\n\t\t\t\ttotalTokenWithdrawn = totalTokenWithdrawn.sub(poolLotTokenWithdrawn[_lot.poolId][lotInternalId]);\n\t\t\t\treturn totalTokenWithdrawn;\n\t\t\t} else {\n\t\t\t\tlowerBound = lowerBound.div(100000);\n\t\t\t}\n\t\t}\n\n\t\tuint256 hundredThousandth = lotInternalId.div(100000);\n\t\tif (hundredThousandth > 0) {\n\t\t\tfor (i=lowerBound.add(1); i<=hundredThousandth; i++) {\n\t\t\t\tif (poolHundredThousandthLotTokenWithdrawnSnapshot[_lot.poolId][i] > 0) {\n\t\t\t\t\ttotalTokenWithdrawn = totalTokenWithdrawn.add(poolHundredThousandthLotTokenWithdrawnSnapshot[_lot.poolId][i]);\n\t\t\t\t}\n\t\t\t}\n\t\t\tlowerBound = hundredThousandth.mul(100000);\n\t\t\tif (lowerBound == lotInternalId) {\n\t\t\t\ttotalTokenWithdrawn = totalTokenWithdrawn.sub(poolLotTokenWithdrawn[_lot.poolId][lotInternalId]);\n\t\t\t\treturn totalTokenWithdrawn;\n\t\t\t} else {\n\t\t\t\tlowerBound = lowerBound.div(10000);\n\t\t\t}\n\t\t}\n\n\t\tuint256 tenThousandth = lotInternalId.div(10000);\n\t\tif (tenThousandth > 0) {\n\t\t\tfor (i=lowerBound.add(1); i<=tenThousandth; i++) {\n\t\t\t\tif (poolTenThousandthLotTokenWithdrawnSnapshot[_lot.poolId][i] > 0) {\n\t\t\t\t\ttotalTokenWithdrawn = totalTokenWithdrawn.add(poolTenThousandthLotTokenWithdrawnSnapshot[_lot.poolId][i]);\n\t\t\t\t}\n\t\t\t}\n\t\t\tlowerBound = tenThousandth.mul(10000);\n\t\t\tif (lowerBound == lotInternalId) {\n\t\t\t\ttotalTokenWithdrawn = totalTokenWithdrawn.sub(poolLotTokenWithdrawn[_lot.poolId][lotInternalId]);\n\t\t\t\treturn totalTokenWithdrawn;\n\t\t\t} else {\n\t\t\t\tlowerBound = lowerBound.div(1000);\n\t\t\t}\n\t\t}\n\n\t\tuint256 thousandth = lotInternalId.div(1000);\n\t\tif (thousandth > 0) {\n\t\t\tfor (i=lowerBound.add(1); i<=thousandth; i++) {\n\t\t\t\tif (poolThousandthLotTokenWithdrawnSnapshot[_lot.poolId][i] > 0) {\n\t\t\t\t\ttotalTokenWithdrawn = totalTokenWithdrawn.add(poolThousandthLotTokenWithdrawnSnapshot[_lot.poolId][i]);\n\t\t\t\t}\n\t\t\t}\n\t\t\tlowerBound = thousandth.mul(1000);\n\t\t\tif (lowerBound == lotInternalId) {\n\t\t\t\ttotalTokenWithdrawn = totalTokenWithdrawn.sub(poolLotTokenWithdrawn[_lot.poolId][lotInternalId]);\n\t\t\t\treturn totalTokenWithdrawn;\n\t\t\t} else {\n\t\t\t\tlowerBound = lowerBound.div(100);\n\t\t\t}\n\t\t}\n\n\t\tuint256 hundredth = lotInternalId.div(100);\n\t\tif (hundredth > 0) {\n\t\t\tfor (i=lowerBound.add(1); i<=hundredth; i++) {\n\t\t\t\tif (poolHundredthLotTokenWithdrawnSnapshot[_lot.poolId][i] > 0) {\n\t\t\t\t\ttotalTokenWithdrawn = totalTokenWithdrawn.add(poolHundredthLotTokenWithdrawnSnapshot[_lot.poolId][i]);\n\t\t\t\t}\n\t\t\t}\n\t\t\tlowerBound = hundredth.mul(100);\n\t\t\tif (lowerBound == lotInternalId) {\n\t\t\t\ttotalTokenWithdrawn = totalTokenWithdrawn.sub(poolLotTokenWithdrawn[_lot.poolId][lotInternalId]);\n\t\t\t\treturn totalTokenWithdrawn;\n\t\t\t} else {\n\t\t\t\tlowerBound = lowerBound.div(10);\n\t\t\t}\n\t\t}\n\n\t\tuint256 tenth = lotInternalId.div(10);\n\t\tif (tenth > 0) {\n\t\t\tfor (i=lowerBound.add(1); i<=tenth; i++) {\n\t\t\t\tif (poolTenthLotTokenWithdrawnSnapshot[_lot.poolId][i] > 0) {\n\t\t\t\t\ttotalTokenWithdrawn = totalTokenWithdrawn.add(poolTenthLotTokenWithdrawnSnapshot[_lot.poolId][i]);\n\t\t\t\t}\n\t\t\t}\n\t\t\tlowerBound = tenth.mul(10);\n\t\t\tif (lowerBound == lotInternalId) {\n\t\t\t\ttotalTokenWithdrawn = totalTokenWithdrawn.sub(poolLotTokenWithdrawn[_lot.poolId][lotInternalId]);\n\t\t\t\treturn totalTokenWithdrawn;\n\t\t\t}\n\t\t}\n\n\t\tfor (i=lowerBound.add(1); i<lotInternalId; i++) {\n\t\t\tif (poolLotTokenWithdrawn[_lot.poolId][i] > 0) {\n\t\t\t\ttotalTokenWithdrawn = totalTokenWithdrawn.add(poolLotTokenWithdrawn[_lot.poolId][i]);\n\t\t\t}\n\t\t}\n\t\treturn totalTokenWithdrawn;\n\t}\n}\n",
	"sourcePath": "/home/jmulyono/ao-contracts/contracts/AOPool.sol",
	"compiler": {
		"name": "solc",
		"version": "0.4.24+commit.e67f0147.Emscripten.clang"
	},
	"schemaVersion": "2.0.1",
	"updatedAt": "2018-10-22T03:39:06.491Z"
}