{
	"contractName": "AOPurchaseReceipt",
	"abi": [
		{
			"constant": true,
			"inputs": [],
			"name": "aoStakedContentAddress",
			"outputs": [
				{
					"name": "",
					"type": "address"
				}
			],
			"payable": false,
			"stateMutability": "view",
			"type": "function"
		},
		{
			"constant": true,
			"inputs": [],
			"name": "nameTAOPositionAddress",
			"outputs": [
				{
					"name": "",
					"type": "address"
				}
			],
			"payable": false,
			"stateMutability": "view",
			"type": "function"
		},
		{
			"constant": true,
			"inputs": [],
			"name": "aoTreasuryAddress",
			"outputs": [
				{
					"name": "",
					"type": "address"
				}
			],
			"payable": false,
			"stateMutability": "view",
			"type": "function"
		},
		{
			"constant": true,
			"inputs": [],
			"name": "aoContentAddress",
			"outputs": [
				{
					"name": "",
					"type": "address"
				}
			],
			"payable": false,
			"stateMutability": "view",
			"type": "function"
		},
		{
			"constant": true,
			"inputs": [],
			"name": "aoEarningAddress",
			"outputs": [
				{
					"name": "",
					"type": "address"
				}
			],
			"payable": false,
			"stateMutability": "view",
			"type": "function"
		},
		{
			"constant": true,
			"inputs": [],
			"name": "aoContentHostAddress",
			"outputs": [
				{
					"name": "",
					"type": "address"
				}
			],
			"payable": false,
			"stateMutability": "view",
			"type": "function"
		},
		{
			"constant": true,
			"inputs": [
				{
					"name": "",
					"type": "address"
				}
			],
			"name": "whitelist",
			"outputs": [
				{
					"name": "",
					"type": "bool"
				}
			],
			"payable": false,
			"stateMutability": "view",
			"type": "function"
		},
		{
			"constant": true,
			"inputs": [],
			"name": "theAO",
			"outputs": [
				{
					"name": "",
					"type": "address"
				}
			],
			"payable": false,
			"stateMutability": "view",
			"type": "function"
		},
		{
			"constant": true,
			"inputs": [],
			"name": "nameFactoryAddress",
			"outputs": [
				{
					"name": "",
					"type": "address"
				}
			],
			"payable": false,
			"stateMutability": "view",
			"type": "function"
		},
		{
			"constant": true,
			"inputs": [],
			"name": "totalPurchaseReceipts",
			"outputs": [
				{
					"name": "",
					"type": "uint256"
				}
			],
			"payable": false,
			"stateMutability": "view",
			"type": "function"
		},
		{
			"constant": true,
			"inputs": [
				{
					"name": "",
					"type": "address"
				},
				{
					"name": "",
					"type": "bytes32"
				}
			],
			"name": "buyerPurchaseReceipts",
			"outputs": [
				{
					"name": "",
					"type": "bytes32"
				}
			],
			"payable": false,
			"stateMutability": "view",
			"type": "function"
		},
		{
			"inputs": [
				{
					"name": "_aoContentAddress",
					"type": "address"
				},
				{
					"name": "_aoStakedContentAddress",
					"type": "address"
				},
				{
					"name": "_aoTreasuryAddress",
					"type": "address"
				},
				{
					"name": "_aoEarningAddress",
					"type": "address"
				},
				{
					"name": "_nameFactoryAddress",
					"type": "address"
				},
				{
					"name": "_nameTAOPositionAddress",
					"type": "address"
				}
			],
			"payable": false,
			"stateMutability": "nonpayable",
			"type": "constructor"
		},
		{
			"anonymous": false,
			"inputs": [
				{
					"indexed": true,
					"name": "buyer",
					"type": "address"
				},
				{
					"indexed": true,
					"name": "purchaseReceiptId",
					"type": "bytes32"
				},
				{
					"indexed": true,
					"name": "contentHostId",
					"type": "bytes32"
				},
				{
					"indexed": false,
					"name": "stakedContentId",
					"type": "bytes32"
				},
				{
					"indexed": false,
					"name": "contentId",
					"type": "bytes32"
				},
				{
					"indexed": false,
					"name": "price",
					"type": "uint256"
				},
				{
					"indexed": false,
					"name": "amountPaidByAO",
					"type": "uint256"
				},
				{
					"indexed": false,
					"name": "amountPaidByBuyer",
					"type": "uint256"
				},
				{
					"indexed": false,
					"name": "publicKey",
					"type": "string"
				},
				{
					"indexed": false,
					"name": "publicAddress",
					"type": "address"
				},
				{
					"indexed": false,
					"name": "createdOnTimestamp",
					"type": "uint256"
				}
			],
			"name": "BuyContent",
			"type": "event"
		},
		{
			"constant": false,
			"inputs": [
				{
					"name": "_theAO",
					"type": "address"
				}
			],
			"name": "transferOwnership",
			"outputs": [],
			"payable": false,
			"stateMutability": "nonpayable",
			"type": "function"
		},
		{
			"constant": false,
			"inputs": [
				{
					"name": "_account",
					"type": "address"
				},
				{
					"name": "_whitelist",
					"type": "bool"
				}
			],
			"name": "setWhitelist",
			"outputs": [],
			"payable": false,
			"stateMutability": "nonpayable",
			"type": "function"
		},
		{
			"constant": false,
			"inputs": [
				{
					"name": "_aoContentAddress",
					"type": "address"
				}
			],
			"name": "setAOContentAddress",
			"outputs": [],
			"payable": false,
			"stateMutability": "nonpayable",
			"type": "function"
		},
		{
			"constant": false,
			"inputs": [
				{
					"name": "_aoStakedContentAddress",
					"type": "address"
				}
			],
			"name": "setAOStakedContentAddress",
			"outputs": [],
			"payable": false,
			"stateMutability": "nonpayable",
			"type": "function"
		},
		{
			"constant": false,
			"inputs": [
				{
					"name": "_aoContentHostAddress",
					"type": "address"
				}
			],
			"name": "setAOContentHostAddress",
			"outputs": [],
			"payable": false,
			"stateMutability": "nonpayable",
			"type": "function"
		},
		{
			"constant": false,
			"inputs": [
				{
					"name": "_aoTreasuryAddress",
					"type": "address"
				}
			],
			"name": "setAOTreasuryAddress",
			"outputs": [],
			"payable": false,
			"stateMutability": "nonpayable",
			"type": "function"
		},
		{
			"constant": false,
			"inputs": [
				{
					"name": "_aoEarningAddress",
					"type": "address"
				}
			],
			"name": "setAOEarningAddress",
			"outputs": [],
			"payable": false,
			"stateMutability": "nonpayable",
			"type": "function"
		},
		{
			"constant": false,
			"inputs": [
				{
					"name": "_nameFactoryAddress",
					"type": "address"
				}
			],
			"name": "setNameFactoryAddress",
			"outputs": [],
			"payable": false,
			"stateMutability": "nonpayable",
			"type": "function"
		},
		{
			"constant": false,
			"inputs": [
				{
					"name": "_nameTAOPositionAddress",
					"type": "address"
				}
			],
			"name": "setNameTAOPositionAddress",
			"outputs": [],
			"payable": false,
			"stateMutability": "nonpayable",
			"type": "function"
		},
		{
			"constant": false,
			"inputs": [
				{
					"name": "_contentHostId",
					"type": "bytes32"
				},
				{
					"name": "_networkIntegerAmount",
					"type": "uint256"
				},
				{
					"name": "_networkFractionAmount",
					"type": "uint256"
				},
				{
					"name": "_denomination",
					"type": "bytes8"
				},
				{
					"name": "_publicKey",
					"type": "string"
				},
				{
					"name": "_publicAddress",
					"type": "address"
				}
			],
			"name": "buyContent",
			"outputs": [],
			"payable": false,
			"stateMutability": "nonpayable",
			"type": "function"
		},
		{
			"constant": true,
			"inputs": [
				{
					"name": "_purchaseReceiptId",
					"type": "bytes32"
				}
			],
			"name": "getById",
			"outputs": [
				{
					"name": "",
					"type": "bytes32"
				},
				{
					"name": "",
					"type": "bytes32"
				},
				{
					"name": "",
					"type": "bytes32"
				},
				{
					"name": "",
					"type": "address"
				},
				{
					"name": "",
					"type": "uint256"
				},
				{
					"name": "",
					"type": "uint256"
				},
				{
					"name": "",
					"type": "uint256"
				},
				{
					"name": "",
					"type": "string"
				},
				{
					"name": "",
					"type": "address"
				},
				{
					"name": "",
					"type": "uint256"
				}
			],
			"payable": false,
			"stateMutability": "view",
			"type": "function"
		},
		{
			"constant": true,
			"inputs": [
				{
					"name": "_purchaseReceiptId",
					"type": "bytes32"
				},
				{
					"name": "_sender",
					"type": "address"
				}
			],
			"name": "senderIsBuyer",
			"outputs": [
				{
					"name": "",
					"type": "bool"
				}
			],
			"payable": false,
			"stateMutability": "view",
			"type": "function"
		},
		{
			"constant": true,
			"inputs": [
				{
					"name": "_purchaseReceiptId",
					"type": "bytes32"
				}
			],
			"name": "isExist",
			"outputs": [
				{
					"name": "",
					"type": "bool"
				}
			],
			"payable": false,
			"stateMutability": "view",
			"type": "function"
		}
	],
	"bytecode": "0x60806040523480156200001157600080fd5b5060405160c080620025ac833981018060405260c08110156200003357600080fd5b50805160208083015160408401516060850151608086015160a090960151600080546001600160a01b03191633179055949592949193909291906200007e908790620000df811b901c565b6200008f85620001e060201b60201c565b620000a084620002e160201b60201c565b620000b183620003e260201b60201c565b620000c282620004e360201b60201c565b620000d381620005e460201b60201c565b505050505050620006db565b600054600154604080517ff66afcac0000000000000000000000000000000000000000000000000000000081523360048201526001600160a01b0393841660248201529290911660448301525173__AOLibrary_____________________________9163f66afcac916064808301926020929190829003018186803b1580156200016857600080fd5b505af41580156200017d573d6000803e3d6000fd5b505050506040513d60208110156200019457600080fd5b5051620001a057600080fd5b6001600160a01b038116620001b457600080fd5b600480546001600160a01b039092166001600160a01b03199283168117909155600a8054909216179055565b600054600154604080517ff66afcac0000000000000000000000000000000000000000000000000000000081523360048201526001600160a01b0393841660248201529290911660448301525173__AOLibrary_____________________________9163f66afcac916064808301926020929190829003018186803b1580156200026957600080fd5b505af41580156200027e573d6000803e3d6000fd5b505050506040513d60208110156200029557600080fd5b5051620002a157600080fd5b6001600160a01b038116620002b557600080fd5b600580546001600160a01b039092166001600160a01b03199283168117909155600b8054909216179055565b600054600154604080517ff66afcac0000000000000000000000000000000000000000000000000000000081523360048201526001600160a01b0393841660248201529290911660448301525173__AOLibrary_____________________________9163f66afcac916064808301926020929190829003018186803b1580156200036a57600080fd5b505af41580156200037f573d6000803e3d6000fd5b505050506040513d60208110156200039657600080fd5b5051620003a257600080fd5b6001600160a01b038116620003b657600080fd5b600780546001600160a01b039092166001600160a01b03199283168117909155600d8054909216179055565b600054600154604080517ff66afcac0000000000000000000000000000000000000000000000000000000081523360048201526001600160a01b0393841660248201529290911660448301525173__AOLibrary_____________________________9163f66afcac916064808301926020929190829003018186803b1580156200046b57600080fd5b505af415801562000480573d6000803e3d6000fd5b505050506040513d60208110156200049757600080fd5b5051620004a357600080fd5b6001600160a01b038116620004b757600080fd5b600880546001600160a01b039092166001600160a01b03199283168117909155600e8054909216179055565b600054600154604080517ff66afcac0000000000000000000000000000000000000000000000000000000081523360048201526001600160a01b0393841660248201529290911660448301525173__AOLibrary_____________________________9163f66afcac916064808301926020929190829003018186803b1580156200056c57600080fd5b505af415801562000581573d6000803e3d6000fd5b505050506040513d60208110156200059857600080fd5b5051620005a457600080fd5b6001600160a01b038116620005b857600080fd5b600980546001600160a01b039092166001600160a01b03199283168117909155600f8054909216179055565b600054600154604080517ff66afcac0000000000000000000000000000000000000000000000000000000081523360048201526001600160a01b0393841660248201529290911660448301525173__AOLibrary_____________________________9163f66afcac916064808301926020929190829003018186803b1580156200066d57600080fd5b505af415801562000682573d6000803e3d6000fd5b505050506040513d60208110156200069957600080fd5b5051620006a557600080fd5b6001600160a01b038116620006b957600080fd5b600180546001600160a01b0319166001600160a01b0392909216919091179055565b611ec180620006eb6000396000f3fe608060405234801561001057600080fd5b50600436106101585760003560e01c806389a83246116100c3578063bc4062061161007c578063bc406206146104eb578063c7061f97146104f3578063cd5facb214610519578063f2fde38b1461053f578063f4f0bfeb14610565578063fffbd7aa1461057f57610158565b806389a83246146104615780638c924361146104875780638f629222146104ad57806395f04f27146104b55780639b19251a146104bd578063a9b6b38e146104e357610158565b806353d6fd591161011557806353d6fd591461030f5780635cfaf2ef1461033d5780635f7b99ea14610363578063762fee181461036b5780637b4126f41461038857806385cb86c81461045957610158565b8063067108421461015d578063078753ad1461019d57806307a8385e146101c15780632dff0d0d146101e95780633e36144f146102e15780634ef033f014610307575b600080fd5b6101896004803603604081101561017357600080fd5b50803590602001356001600160a01b03166105ab565b604080519115158252519081900360200190f35b6101a5610782565b604080516001600160a01b039092168252519081900360200190f35b6101e7600480360360208110156101d757600080fd5b50356001600160a01b0316610791565b005b610206600480360360208110156101ff57600080fd5b5035610877565b604051808b81526020018a8152602001898152602001886001600160a01b03166001600160a01b0316815260200187815260200186815260200185815260200180602001846001600160a01b03166001600160a01b03168152602001838152602001828103825285818151815260200191508051906020019080838360005b8381101561029d578181015183820152602001610285565b50505050905090810190601f1680156102ca5780820380516001836020036101000a031916815260200191505b509b50505050505050505050505060405180910390f35b6101e7600480360360208110156102f757600080fd5b50356001600160a01b0316610aa9565b6101a5610b8f565b6101e76004803603604081101561032557600080fd5b506001600160a01b0381351690602001351515610b9e565b6101e76004803603602081101561035357600080fd5b50356001600160a01b0316610c83565b6101a5610d5f565b6101896004803603602081101561038157600080fd5b5035610d6e565b6101e7600480360360c081101561039e57600080fd5b8135916020810135916040820135916001600160c01b03196060820135169181019060a081016080820135600160201b8111156103da57600080fd5b8201836020820111156103ec57600080fd5b803590602001918460018302840111600160201b8311171561040d57600080fd5b91908080601f016020809104026020016040519081016040528093929190818152602001838380828437600092019190915250929550505090356001600160a01b03169150610d829050565b6101a561147f565b6101e76004803603602081101561047757600080fd5b50356001600160a01b031661148e565b6101e76004803603602081101561049d57600080fd5b50356001600160a01b0316611574565b6101a561165a565b6101a5611669565b610189600480360360208110156104d357600080fd5b50356001600160a01b0316611678565b6101a561168d565b6101a561169c565b6101e76004803603602081101561050957600080fd5b50356001600160a01b03166116ab565b6101e76004803603602081101561052f57600080fd5b50356001600160a01b0316611791565b6101e76004803603602081101561055557600080fd5b50356001600160a01b0316611877565b61056d611953565b60408051918252519081900360200190f35b61056d6004803603604081101561059557600080fd5b506001600160a01b038135169060200135611959565b6000306001600160a01b031663762fee18846040518263ffffffff1660e01b81526004018082815260200191505060206040518083038186803b1580156105f157600080fd5b505afa158015610605573d6000803e3d6000fd5b505050506040513d602081101561061b57600080fd5b505161062657600080fd5b6001600160a01b03821661063957600080fd5b610641611d9f565b600084815260116020908152604080832054835260108252918290208251610160810184528154815260018083015482850152600280840154838701526003840154606084015260048401546001600160a01b03166080840152600584015460a0840152600684015460c0840152600784015460e084015260088401805487516101009482161585026000190190911692909204601f810187900487028301870190975286825292959394918601939092918301828280156107445780601f1061071957610100808354040283529160200191610744565b820191906000526020600020905b81548152906001019060200180831161072757829003601f168201915b505050918352505060098201546001600160a01b039081166020830152600a9092015460409091015260809091015181169084161491505092915050565b6005546001600160a01b031681565b60005460015460408051600160e21b633d9abf2b0281523360048201526001600160a01b0393841660248201529290911660448301525173__AOLibrary_____________________________9163f66afcac916064808301926020929190829003018186803b15801561080357600080fd5b505af4158015610817573d6000803e3d6000fd5b505050506040513d602081101561082d57600080fd5b505161083857600080fd5b6001600160a01b03811661084b57600080fd5b600780546001600160a01b039092166001600160a01b03199283168117909155600d8054909216179055565b60008060008060008060006060600080306001600160a01b031663762fee188c6040518263ffffffff1660e01b81526004018082815260200191505060206040518083038186803b1580156108cb57600080fd5b505afa1580156108df573d6000803e3d6000fd5b505050506040513d60208110156108f557600080fd5b505161090057600080fd5b610908611d9f565b60008c815260116020908152604080832054835260108252918290208251610160810184528154815260018083015482850152600280840154838701526003840154606084015260048401546001600160a01b03166080840152600584015460a0840152600684015460c0840152600784015460e084015260088401805487516101009482161585026000190190911692909204601f81018790048702830187019097528682529295939491860193909291830182828015610a0b5780601f106109e057610100808354040283529160200191610a0b565b820191906000526020600020905b8154815290600101906020018083116109ee57829003601f168201915b505050505081526020016009820160009054906101000a90046001600160a01b03166001600160a01b03166001600160a01b03168152602001600a82015481525050905080602001518160400151826060015183608001518460a001518560c001518660e001518761010001518861012001518961014001518292509a509a509a509a509a509a509a509a509a509a50509193959799509193959799565b60005460015460408051600160e21b633d9abf2b0281523360048201526001600160a01b0393841660248201529290911660448301525173__AOLibrary_____________________________9163f66afcac916064808301926020929190829003018186803b158015610b1b57600080fd5b505af4158015610b2f573d6000803e3d6000fd5b505050506040513d6020811015610b4557600080fd5b5051610b5057600080fd5b6001600160a01b038116610b6357600080fd5b600580546001600160a01b039092166001600160a01b03199283168117909155600b8054909216179055565b6001546001600160a01b031681565b60005460015460408051600160e21b633d9abf2b0281523360048201526001600160a01b0393841660248201529290911660448301525173__AOLibrary_____________________________9163f66afcac916064808301926020929190829003018186803b158015610c1057600080fd5b505af4158015610c24573d6000803e3d6000fd5b505050506040513d6020811015610c3a57600080fd5b5051610c4557600080fd5b6001600160a01b038216610c5857600080fd5b6001600160a01b03919091166000908152600260205260409020805460ff1916911515919091179055565b60005460015460408051600160e21b633d9abf2b0281523360048201526001600160a01b0393841660248201529290911660448301525173__AOLibrary_____________________________9163f66afcac916064808301926020929190829003018186803b158015610cf557600080fd5b505af4158015610d09573d6000803e3d6000fd5b505050506040513d6020811015610d1f57600080fd5b5051610d2a57600080fd5b6001600160a01b038116610d3d57600080fd5b600180546001600160a01b0319166001600160a01b0392909216919091179055565b6007546001600160a01b031681565b600090815260116020526040902054151590565b600f5460408051600160e01b63029b7d5302815233600482015290516000926001600160a01b03169163029b7d53916024808301926020929190829003018186803b158015610dd057600080fd5b505afa158015610de4573d6000803e3d6000fd5b505050506040513d6020811015610dfa57600080fd5b505190506001600160a01b038116610e1157600080fd5b610e1d81888585611976565b610e2657600080fd5b600c5460408051600160e01b632dff0d0d028152600481018a9052905160009283926001600160a01b0390911691632dff0d0d916024808201928692909190829003018186803b158015610e7957600080fd5b505afa158015610e8d573d6000803e3d6000fd5b505050506040513d6000823e601f3d908101601f1916820160405260a0811015610eb657600080fd5b8151602083015160408401516060850180519395929491939183019291600160201b811115610ee457600080fd5b82016020810184811115610ef757600080fd5b8151600160201b811182820187101715610f1057600080fd5b50509291906020018051600160201b811115610f2b57600080fd5b82016020810184811115610f3e57600080fd5b8151600160201b811182820187101715610f5757600080fd5b5050600a5460408051600160e11b6332e78567028152600481018a90529051999b509799506001600160a01b0316976365cf0ace976024808201985060209750919550859003019250839150879050803b158015610fb457600080fd5b505afa158015610fc8573d6000803e3d6000fd5b505050506040513d6020811015610fde57600080fd5b50511561107257600c5460408051600160e01b63a9e3fd27028152600481018c90529051611069926001600160a01b03169163a9e3fd27916024808301926020929190829003018186803b15801561103557600080fd5b505afa158015611049573d6000803e3d6000fd5b505050506040513d602081101561105f57600080fd5b5051898989611ceb565b61107257600080fd5b60038054600101908190556040805130606090811b6020808401919091526001600160a01b0380891690921b603484015260488084018f9052845180850390910181526068909301845282519281019290922060009485526010909252919092206004810154909116156110e557600080fd5b818155600181018b90556002810184905560038101839055600480820180546001600160a01b0319166001600160a01b0388811691909117909155600c5460408051600160e01b63a9e3fd270281529384018f90525191169163a9e3fd27916024808301926020929190829003018186803b15801561116357600080fd5b505afa158015611177573d6000803e3d6000fd5b505050506040513d602081101561118d57600080fd5b50516005820155600c5460408051600160e11b6343118dcf028152600481018e905290516001600160a01b03909216916386231b9e91602480820192602092909190829003018186803b1580156111e357600080fd5b505afa1580156111f7573d6000803e3d6000fd5b505050506040513d602081101561120d57600080fd5b505160078201819055600582015461122a9163ffffffff611d8d16565b6006820155865161124490600883019060208a0190611dfa565b506009810180546001600160a01b0319166001600160a01b038881169190911790915542600a8301556003546000848152601160209081526040808320939093558884168252601281528282208f83528152828220869055600e548351600160e11b63720c007102815260048101889052935194169363e41800e293602480820194918390030190829087803b1580156112dd57600080fd5b505af11580156112f1573d6000803e3d6000fd5b505050506040513d602081101561130757600080fd5b505161131257600080fd5b806001015481600001548260040160009054906101000a90046001600160a01b03166001600160a01b03167fdf92ee31f72a8dbc51130354d9220988266bb5cd9eaafe7b8914826a0fa794dd84600201548560030154866005015487600701548860060154896008018a60090160009054906101000a90046001600160a01b03168b600a01546040518089815260200188815260200187815260200186815260200185815260200180602001846001600160a01b03166001600160a01b0316815260200183815260200182810382528581815460018160011615610100020316600290048152602001915080546001816001161561010002031660029004801561145d5780601f106114325761010080835404028352916020019161145d565b820191906000526020600020905b81548152906001019060200180831161144057829003601f168201915b5050995050505050505050505060405180910390a45050505050505050505050565b6004546001600160a01b031681565b60005460015460408051600160e21b633d9abf2b0281523360048201526001600160a01b0393841660248201529290911660448301525173__AOLibrary_____________________________9163f66afcac916064808301926020929190829003018186803b15801561150057600080fd5b505af4158015611514573d6000803e3d6000fd5b505050506040513d602081101561152a57600080fd5b505161153557600080fd5b6001600160a01b03811661154857600080fd5b600480546001600160a01b039092166001600160a01b03199283168117909155600a8054909216179055565b60005460015460408051600160e21b633d9abf2b0281523360048201526001600160a01b0393841660248201529290911660448301525173__AOLibrary_____________________________9163f66afcac916064808301926020929190829003018186803b1580156115e657600080fd5b505af41580156115fa573d6000803e3d6000fd5b505050506040513d602081101561161057600080fd5b505161161b57600080fd5b6001600160a01b03811661162e57600080fd5b600980546001600160a01b039092166001600160a01b03199283168117909155600f8054909216179055565b6008546001600160a01b031681565b6006546001600160a01b031681565b60026020526000908152604090205460ff1681565b6000546001600160a01b031681565b6009546001600160a01b031681565b60005460015460408051600160e21b633d9abf2b0281523360048201526001600160a01b0393841660248201529290911660448301525173__AOLibrary_____________________________9163f66afcac916064808301926020929190829003018186803b15801561171d57600080fd5b505af4158015611731573d6000803e3d6000fd5b505050506040513d602081101561174757600080fd5b505161175257600080fd5b6001600160a01b03811661176557600080fd5b600880546001600160a01b039092166001600160a01b03199283168117909155600e8054909216179055565b60005460015460408051600160e21b633d9abf2b0281523360048201526001600160a01b0393841660248201529290911660448301525173__AOLibrary_____________________________9163f66afcac916064808301926020929190829003018186803b15801561180357600080fd5b505af4158015611817573d6000803e3d6000fd5b505050506040513d602081101561182d57600080fd5b505161183857600080fd5b6001600160a01b03811661184b57600080fd5b600680546001600160a01b039092166001600160a01b03199283168117909155600c8054909216179055565b60005460015460408051600160e21b633d9abf2b0281523360048201526001600160a01b0393841660248201529290911660448301525173__AOLibrary_____________________________9163f66afcac916064808301926020929190829003018186803b1580156118e957600080fd5b505af41580156118fd573d6000803e3d6000fd5b505050506040513d602081101561191357600080fd5b505161191e57600080fd5b6001600160a01b03811661193157600080fd5b600080546001600160a01b0319166001600160a01b0392909216919091179055565b60035481565b601260209081526000928352604080842090915290825290205481565b600c5460408051600160e01b632dff0d0d028152600481018690529051600092839283926001600160a01b0390921691632dff0d0d916024808201928692909190829003018186803b1580156119cb57600080fd5b505afa1580156119df573d6000803e3d6000fd5b505050506040513d6000823e601f3d908101601f1916820160405260a0811015611a0857600080fd5b8151602083015160408401516060850180519395929491939183019291600160201b811115611a3657600080fd5b82016020810184811115611a4957600080fd5b8151600160201b811182820187101715611a6257600080fd5b50509291906020018051600160201b811115611a7d57600080fd5b82016020810184811115611a9057600080fd5b8151600160201b811182820187101715611aa957600080fd5b505092919050505050509250509150600c60009054906101000a90046001600160a01b03166001600160a01b031663762fee18876040518263ffffffff1660e01b81526004018082815260200191505060206040518083038186803b158015611b1157600080fd5b505afa158015611b25573d6000803e3d6000fd5b505050506040513d6020811015611b3b57600080fd5b50518015611b5157506001600160a01b03871615155b8015611b6f5750806001600160a01b0316876001600160a01b031614155b8015611c00575060408051600160e21b630b5c1a8d0281526001600160a01b0389166004820152905173__AOLibrary_____________________________91632d706a34916024808301926020929190829003018186803b158015611bd357600080fd5b505af4158015611be7573d6000803e3d6000fd5b505050506040513d6020811015611bfd57600080fd5b50515b8015611c0d575060008551115b8015611c2157506001600160a01b03841615155b8015611ca45750600b5460408051600160e21b63170da4070281526004810185905290516001600160a01b0390921691635c36901c91602480820192602092909190829003018186803b158015611c7757600080fd5b505afa158015611c8b573d6000803e3d6000fd5b505050506040513d6020811015611ca157600080fd5b50515b8015611ce057506001600160a01b0387166000908152601260209081526040808320898452909152812054901a60f81b6001600160f81b031916155b979650505050505050565b600d5460408051600160e31b63042fb71d02815260048101869052602481018590526001600160c01b031984166044820152905160009287926001600160a01b039091169163217db8e891606480820192602092909190829003018186803b158015611d5657600080fd5b505afa158015611d6a573d6000803e3d6000fd5b505050506040513d6020811015611d8057600080fd5b5051101595945050505050565b600082821115611d9957fe5b50900390565b604080516101608101825260008082526020820181905291810182905260608082018390526080820183905260a0820183905260c0820183905260e08201839052610100820152610120810182905261014081019190915290565b828054600181600116156101000203166002900490600052602060002090601f016020900481019282601f10611e3b57805160ff1916838001178555611e68565b82800160010185558215611e68579182015b82811115611e68578251825591602001919060010190611e4d565b50611e74929150611e78565b5090565b611e9291905b80821115611e745760008155600101611e7e565b9056fea165627a7a72305820bb8f2cc4a9880d85734b762f5019cf8084ad0c1f8fa9cb55e100f83d39535cd40029",
	"source": "pragma solidity >=0.5.4 <0.6.0;\n\nimport './SafeMath.sol';\nimport './AOLibrary.sol';\nimport './TheAO.sol';\nimport './IAOPurchaseReceipt.sol';\nimport './IAOContent.sol';\nimport './IAOStakedContent.sol';\nimport './IAOContentHost.sol';\nimport './IAOTreasury.sol';\nimport './IAOEarning.sol';\nimport './INameFactory.sol';\n\n/**\n * @title AOPurchaseReceipt\n */\ncontract AOPurchaseReceipt is TheAO, IAOPurchaseReceipt {\n\tusing SafeMath for uint256;\n\n\tuint256 public totalPurchaseReceipts;\n\taddress public aoContentAddress;\n\taddress public aoStakedContentAddress;\n\taddress public aoContentHostAddress;\n\taddress public aoTreasuryAddress;\n\taddress public aoEarningAddress;\n\taddress public nameFactoryAddress;\n\n\tIAOContent internal _aoContent;\n\tIAOStakedContent internal _aoStakedContent;\n\tIAOContentHost internal _aoContentHost;\n\tIAOTreasury internal _aoTreasury;\n\tIAOEarning internal _aoEarning;\n\tINameFactory internal _nameFactory;\n\n\tstruct PurchaseReceipt {\n\t\tbytes32 purchaseReceiptId;\n\t\tbytes32 contentHostId;\n\t\tbytes32 stakedContentId;\n\t\tbytes32 contentId;\n\t\taddress buyer;\n\t\tuint256 price;\n\t\tuint256 amountPaidByBuyer;\t// total network ion paid in base denomination\n\t\tuint256 amountPaidByAO; // total amount paid by AO\n\t\tstring publicKey; // The public key provided by request node\n\t\taddress publicAddress; // The public address provided by request node\n\t\tuint256 createdOnTimestamp;\n\t}\n\n\t// Mapping from PurchaseReceipt index to the PurchaseReceipt object\n\tmapping (uint256 => PurchaseReceipt) internal purchaseReceipts;\n\n\t// Mapping from purchase receipt ID to index of the purchaseReceipts list\n\tmapping (bytes32 => uint256) internal purchaseReceiptIndex;\n\n\t// Mapping from buyer's content host ID to the buy ID\n\t// To check whether or not buyer has bought/paid for a content\n\tmapping (address => mapping (bytes32 => bytes32)) public buyerPurchaseReceipts;\n\n\t// Event to be broadcasted to public when a request node buys a content\n\tevent BuyContent(\n\t\taddress indexed buyer,\n\t\tbytes32 indexed purchaseReceiptId,\n\t\tbytes32 indexed contentHostId,\n\t\tbytes32 stakedContentId,\n\t\tbytes32 contentId,\n\t\tuint256 price,\n\t\tuint256 amountPaidByAO,\n\t\tuint256 amountPaidByBuyer,\n\t\tstring publicKey,\n\t\taddress publicAddress,\n\t\tuint256 createdOnTimestamp\n\t);\n\n\t/**\n\t * @dev Constructor function\n\t * @param _aoContentAddress The address of AOContent\n\t * @param _aoStakedContentAddress The address of AOStakedContent\n\t * @param _aoTreasuryAddress The address of AOTreasury\n\t * @param _aoEarningAddress The address of AOEarning\n\t * @param _nameFactoryAddress The address of NameFactory\n\t * @param _nameTAOPositionAddress The address of NameTAOPosition\n\t */\n\tconstructor(address _aoContentAddress,\n\t\taddress _aoStakedContentAddress,\n\t\taddress _aoTreasuryAddress,\n\t\taddress _aoEarningAddress,\n\t\taddress _nameFactoryAddress,\n\t\taddress _nameTAOPositionAddress\n\t\t) public {\n\t\tsetAOContentAddress(_aoContentAddress);\n\t\tsetAOStakedContentAddress(_aoStakedContentAddress);\n\t\tsetAOTreasuryAddress(_aoTreasuryAddress);\n\t\tsetAOEarningAddress(_aoEarningAddress);\n\t\tsetNameFactoryAddress(_nameFactoryAddress);\n\t\tsetNameTAOPositionAddress(_nameTAOPositionAddress);\n\t}\n\n\t/**\n\t * @dev Checks if the calling contract address is The AO\n\t *\t\tOR\n\t *\t\tIf The AO is set to a Name/TAO, then check if calling address is the Advocate\n\t */\n\tmodifier onlyTheAO {\n\t\trequire (AOLibrary.isTheAO(msg.sender, theAO, nameTAOPositionAddress));\n\t\t_;\n\t}\n\n\t/***** The AO ONLY METHODS *****/\n\t/**\n\t * @dev Transfer ownership of The AO to new address\n\t * @param _theAO The new address to be transferred\n\t */\n\tfunction transferOwnership(address _theAO) public onlyTheAO {\n\t\trequire (_theAO != address(0));\n\t\ttheAO = _theAO;\n\t}\n\n\t/**\n\t * @dev Whitelist `_account` address to transact on behalf of others\n\t * @param _account The address to whitelist\n\t * @param _whitelist Either to whitelist or not\n\t */\n\tfunction setWhitelist(address _account, bool _whitelist) public onlyTheAO {\n\t\trequire (_account != address(0));\n\t\twhitelist[_account] = _whitelist;\n\t}\n\n\t/**\n\t * @dev The AO sets AOContent address\n\t * @param _aoContentAddress The address of AOContent\n\t */\n\tfunction setAOContentAddress(address _aoContentAddress) public onlyTheAO {\n\t\trequire (_aoContentAddress != address(0));\n\t\taoContentAddress = _aoContentAddress;\n\t\t_aoContent = IAOContent(_aoContentAddress);\n\t}\n\n\t/**\n\t * @dev The AO sets AOStakedContent address\n\t * @param _aoStakedContentAddress The address of AOStakedContent\n\t */\n\tfunction setAOStakedContentAddress(address _aoStakedContentAddress) public onlyTheAO {\n\t\trequire (_aoStakedContentAddress != address(0));\n\t\taoStakedContentAddress = _aoStakedContentAddress;\n\t\t_aoStakedContent = IAOStakedContent(_aoStakedContentAddress);\n\t}\n\n\t/**\n\t * @dev The AO sets AOContentHost address\n\t * @param _aoContentHostAddress The address of AOContentHost\n\t */\n\tfunction setAOContentHostAddress(address _aoContentHostAddress) public onlyTheAO {\n\t\trequire (_aoContentHostAddress != address(0));\n\t\taoContentHostAddress = _aoContentHostAddress;\n\t\t_aoContentHost = IAOContentHost(_aoContentHostAddress);\n\t}\n\n\t/**\n\t * @dev The AO sets AOTreasury address\n\t * @param _aoTreasuryAddress The address of AOTreasury\n\t */\n\tfunction setAOTreasuryAddress(address _aoTreasuryAddress) public onlyTheAO {\n\t\trequire (_aoTreasuryAddress != address(0));\n\t\taoTreasuryAddress = _aoTreasuryAddress;\n\t\t_aoTreasury = IAOTreasury(_aoTreasuryAddress);\n\t}\n\n\t/**\n\t * @dev The AO sets AOEarning address\n\t * @param _aoEarningAddress The address of AOEarning\n\t */\n\tfunction setAOEarningAddress(address _aoEarningAddress) public onlyTheAO {\n\t\trequire (_aoEarningAddress != address(0));\n\t\taoEarningAddress = _aoEarningAddress;\n\t\t_aoEarning = IAOEarning(_aoEarningAddress);\n\t}\n\n\t/**\n\t * @dev The AO sets NameFactory address\n\t * @param _nameFactoryAddress The address of NameFactory\n\t */\n\tfunction setNameFactoryAddress(address _nameFactoryAddress) public onlyTheAO {\n\t\trequire (_nameFactoryAddress != address(0));\n\t\tnameFactoryAddress = _nameFactoryAddress;\n\t\t_nameFactory = INameFactory(_nameFactoryAddress);\n\t}\n\n\t/**\n\t * @dev The AO sets NameTAOPosition address\n\t * @param _nameTAOPositionAddress The address of NameTAOPosition\n\t */\n\tfunction setNameTAOPositionAddress(address _nameTAOPositionAddress) public onlyTheAO {\n\t\trequire (_nameTAOPositionAddress != address(0));\n\t\tnameTAOPositionAddress = _nameTAOPositionAddress;\n\t}\n\n\t/***** PUBLIC METHODS *****/\n\t/**\n\t * @dev Bring content in to the requesting node by sending network ions to the contract to pay for the content\n\t * @param _contentHostId The ID of hosted content\n\t * @param _networkIntegerAmount The integer amount of network ion to pay\n\t * @param _networkFractionAmount The fraction amount of network ion to pay\n\t * @param _denomination The denomination of the network ion, i.e ao, kilo, mega, etc.\n\t * @param _publicKey The public key of the request node\n\t * @param _publicAddress The public address of the request node\n\t */\n\tfunction buyContent(bytes32 _contentHostId,\n\t\tuint256 _networkIntegerAmount,\n\t\tuint256 _networkFractionAmount,\n\t\tbytes8 _denomination,\n\t\tstring memory _publicKey,\n\t\taddress _publicAddress\n\t) public {\n\t\taddress _buyerNameId = _nameFactory.ethAddressToNameId(msg.sender);\n\t\trequire (_buyerNameId != address(0));\n\t\trequire (_canBuy(_buyerNameId, _contentHostId, _publicKey, _publicAddress));\n\n\t\t(bytes32 _stakedContentId, bytes32 _contentId,,,) = _aoContentHost.getById(_contentHostId);\n\n\t\t// Make sure the ion amount can pay for the content price\n\t\tif (_aoContent.isAOContentUsageType(_contentId)) {\n\t\t\trequire (_canBuyAOContent(_aoContentHost.contentHostPrice(_contentHostId), _networkIntegerAmount, _networkFractionAmount, _denomination));\n\t\t}\n\n\t\t// Increment totalPurchaseReceipts;\n\t\ttotalPurchaseReceipts++;\n\n\t\t// Generate purchaseReceiptId\n\t\tbytes32 _purchaseReceiptId = keccak256(abi.encodePacked(this, _buyerNameId, _contentHostId));\n\t\tPurchaseReceipt storage _purchaseReceipt = purchaseReceipts[totalPurchaseReceipts];\n\n\t\t// Make sure the node doesn't buy the same content twice\n\t\trequire (_purchaseReceipt.buyer == address(0));\n\n\t\t_purchaseReceipt.purchaseReceiptId = _purchaseReceiptId;\n\t\t_purchaseReceipt.contentHostId = _contentHostId;\n\t\t_purchaseReceipt.stakedContentId = _stakedContentId;\n\t\t_purchaseReceipt.contentId = _contentId;\n\t\t_purchaseReceipt.buyer = _buyerNameId;\n\t\t// Update the receipt with the correct network amount\n\t\t_purchaseReceipt.price = _aoContentHost.contentHostPrice(_contentHostId);\n\t\t_purchaseReceipt.amountPaidByAO = _aoContentHost.contentHostPaidByAO(_contentHostId);\n\t\t_purchaseReceipt.amountPaidByBuyer = _purchaseReceipt.price.sub(_purchaseReceipt.amountPaidByAO);\n\t\t_purchaseReceipt.publicKey = _publicKey;\n\t\t_purchaseReceipt.publicAddress = _publicAddress;\n\t\t_purchaseReceipt.createdOnTimestamp = now;\n\n\t\tpurchaseReceiptIndex[_purchaseReceiptId] = totalPurchaseReceipts;\n\t\tbuyerPurchaseReceipts[_buyerNameId][_contentHostId] = _purchaseReceiptId;\n\n\t\t// Calculate content creator/host/The AO earning from this purchase and store them in escrow\n\t\trequire (_aoEarning.calculateEarning(_purchaseReceiptId));\n\n\t\temit BuyContent(\n\t\t\t_purchaseReceipt.buyer,\n\t\t\t_purchaseReceipt.purchaseReceiptId,\n\t\t\t_purchaseReceipt.contentHostId,\n\t\t\t_purchaseReceipt.stakedContentId,\n\t\t\t_purchaseReceipt.contentId,\n\t\t\t_purchaseReceipt.price,\n\t\t\t_purchaseReceipt.amountPaidByAO,\n\t\t\t_purchaseReceipt.amountPaidByBuyer,\n\t\t\t_purchaseReceipt.publicKey,\n\t\t\t_purchaseReceipt.publicAddress,\n\t\t\t_purchaseReceipt.createdOnTimestamp\n\t\t);\n\t}\n\n\t/**\n\t * @dev Return purchase receipt info at a given ID\n\t * @param _purchaseReceiptId The ID of the purchased content\n\t * @return The ID of the content host\n\t * @return The ID of the staked content\n\t * @return The ID of the content\n\t * @return address of the buyer\n\t * @return price of the content\n\t * @return amount paid by AO\n\t * @return amount paid by Buyer\n\t * @return request node's public key\n\t * @return request node's public address\n\t * @return created on timestamp\n\t */\n\tfunction getById(bytes32 _purchaseReceiptId) external view returns (bytes32, bytes32, bytes32, address, uint256, uint256, uint256, string memory, address, uint256) {\n\t\t// Make sure the purchase receipt exist\n\t\trequire (this.isExist(_purchaseReceiptId));\n\t\tPurchaseReceipt memory _purchaseReceipt = purchaseReceipts[purchaseReceiptIndex[_purchaseReceiptId]];\n\t\treturn (\n\t\t\t_purchaseReceipt.contentHostId,\n\t\t\t_purchaseReceipt.stakedContentId,\n\t\t\t_purchaseReceipt.contentId,\n\t\t\t_purchaseReceipt.buyer,\n\t\t\t_purchaseReceipt.price,\n\t\t\t_purchaseReceipt.amountPaidByBuyer,\n\t\t\t_purchaseReceipt.amountPaidByAO,\n\t\t\t_purchaseReceipt.publicKey,\n\t\t\t_purchaseReceipt.publicAddress,\n\t\t\t_purchaseReceipt.createdOnTimestamp\n\t\t);\n\t}\n\n\t/**\n\t * @dev Check whether or not sender is the buyer of purchase receipt ID\n\t * @param _purchaseReceiptId The ID of the Purchase Receipt to be checked\n\t * @param _sender The sender address\n\t * @return true if yes, false otherwise\n\t */\n\tfunction senderIsBuyer(bytes32 _purchaseReceiptId, address _sender) external view returns (bool) {\n\t\trequire (this.isExist(_purchaseReceiptId));\n\t\trequire (_sender != address(0));\n\t\tPurchaseReceipt memory _purchaseReceipt = purchaseReceipts[purchaseReceiptIndex[_purchaseReceiptId]];\n\t\treturn (_purchaseReceipt.buyer == _sender);\n\t}\n\n\t/**\n\t * @dev Check whether or not a purchaseReceiptId exist\n\t * @param _purchaseReceiptId The PurchaseReceipt ID to be checked\n\t * @return true if yes, false otherwise\n\t */\n\tfunction isExist(bytes32 _purchaseReceiptId) external view returns (bool) {\n\t\treturn (purchaseReceiptIndex[_purchaseReceiptId] > 0);\n\t}\n\n\t/***** INTERNAL METHODS *****/\n\t/**\n\t * @dev Check whether or not the passed params valid\n\t * @param _buyer The address of the buyer\n\t * @param _contentHostId The ID of hosted content\n\t * @param _publicKey The public key of the request node\n\t * @param _publicAddress The public address of the request node\n\t * @return true if yes, false otherwise\n\t */\n\tfunction _canBuy(address _buyer,\n\t\tbytes32 _contentHostId,\n\t\tstring memory _publicKey,\n\t\taddress _publicAddress\n\t) internal view returns (bool) {\n\t\t(bytes32 _stakedContentId,,address _host,,) = _aoContentHost.getById(_contentHostId);\n\n\t\t// Make sure the content host exist\n\t\treturn (_aoContentHost.isExist(_contentHostId) &&\n\t\t\t_buyer != address(0) &&\n\t\t\t_buyer != _host &&\n\t\t\tAOLibrary.isName(_buyer) &&\n\t\t\tbytes(_publicKey).length > 0 &&\n\t\t\t_publicAddress != address(0) &&\n\t\t\t_aoStakedContent.isActive(_stakedContentId) &&\n\t\t\tbuyerPurchaseReceipts[_buyer][_contentHostId][0] == 0\n\t\t);\n\t}\n\n\t/**\n\t * @dev Check whether the network ion is adequate to pay for existing staked content\n\t * @param _price The price of the content\n\t * @param _networkIntegerAmount The integer amount of the network ion\n\t * @param _networkFractionAmount The fraction amount of the network ion\n\t * @param _denomination The denomination of the the network ion\n\t * @return true when the amount is sufficient, false otherwise\n\t */\n\tfunction _canBuyAOContent(uint256 _price, uint256 _networkIntegerAmount, uint256 _networkFractionAmount, bytes8 _denomination) internal view returns (bool) {\n\t\treturn _aoTreasury.toBase(_networkIntegerAmount, _networkFractionAmount, _denomination) >= _price;\n\t}\n}\n",
	"sourcePath": "/usr/local/ao-contracts/contracts/AOPurchaseReceipt.sol",
	"compiler": {
		"name": "solc",
		"version": "0.5.6+commit.b259423e.Emscripten.clang"
	},
	"schemaVersion": "3.0.2",
	"updatedAt": "2019-04-09T21:05:06.186Z",
	"devdoc": {
		"methods": {
			"buyContent(bytes32,uint256,uint256,bytes8,string,address)": {
				"details": "Bring content in to the requesting node by sending network ions to the contract to pay for the content",
				"params": {
					"_contentHostId": "The ID of hosted content",
					"_denomination": "The denomination of the network ion, i.e ao, kilo, mega, etc.",
					"_networkFractionAmount": "The fraction amount of network ion to pay",
					"_networkIntegerAmount": "The integer amount of network ion to pay",
					"_publicAddress": "The public address of the request node",
					"_publicKey": "The public key of the request node"
				}
			},
			"constructor": {
				"details": "Constructor function",
				"params": {
					"_aoContentAddress": "The address of AOContent",
					"_aoEarningAddress": "The address of AOEarning",
					"_aoStakedContentAddress": "The address of AOStakedContent",
					"_aoTreasuryAddress": "The address of AOTreasury",
					"_nameFactoryAddress": "The address of NameFactory",
					"_nameTAOPositionAddress": "The address of NameTAOPosition"
				}
			},
			"getById(bytes32)": {
				"details": "Return purchase receipt info at a given ID",
				"params": {
					"_purchaseReceiptId": "The ID of the purchased content"
				},
				"return": "The ID of the content hostThe ID of the staked contentThe ID of the contentaddress of the buyerprice of the contentamount paid by AOamount paid by Buyerrequest node's public keyrequest node's public addresscreated on timestamp"
			},
			"isExist(bytes32)": {
				"details": "Check whether or not a purchaseReceiptId exist",
				"params": {
					"_purchaseReceiptId": "The PurchaseReceipt ID to be checked"
				},
				"return": "true if yes, false otherwise"
			},
			"senderIsBuyer(bytes32,address)": {
				"details": "Check whether or not sender is the buyer of purchase receipt ID",
				"params": {
					"_purchaseReceiptId": "The ID of the Purchase Receipt to be checked",
					"_sender": "The sender address"
				},
				"return": "true if yes, false otherwise"
			},
			"setAOContentAddress(address)": {
				"details": "The AO sets AOContent address",
				"params": {
					"_aoContentAddress": "The address of AOContent"
				}
			},
			"setAOContentHostAddress(address)": {
				"details": "The AO sets AOContentHost address",
				"params": {
					"_aoContentHostAddress": "The address of AOContentHost"
				}
			},
			"setAOEarningAddress(address)": {
				"details": "The AO sets AOEarning address",
				"params": {
					"_aoEarningAddress": "The address of AOEarning"
				}
			},
			"setAOStakedContentAddress(address)": {
				"details": "The AO sets AOStakedContent address",
				"params": {
					"_aoStakedContentAddress": "The address of AOStakedContent"
				}
			},
			"setAOTreasuryAddress(address)": {
				"details": "The AO sets AOTreasury address",
				"params": {
					"_aoTreasuryAddress": "The address of AOTreasury"
				}
			},
			"setNameFactoryAddress(address)": {
				"details": "The AO sets NameFactory address",
				"params": {
					"_nameFactoryAddress": "The address of NameFactory"
				}
			},
			"setNameTAOPositionAddress(address)": {
				"details": "The AO sets NameTAOPosition address",
				"params": {
					"_nameTAOPositionAddress": "The address of NameTAOPosition"
				}
			},
			"setWhitelist(address,bool)": {
				"details": "Whitelist `_account` address to transact on behalf of others",
				"params": {
					"_account": "The address to whitelist",
					"_whitelist": "Either to whitelist or not"
				}
			},
			"transferOwnership(address)": {
				"details": "Transfer ownership of The AO to new address",
				"params": {
					"_theAO": "The new address to be transferred"
				}
			}
		},
		"title": "AOPurchaseReceipt"
	},
	"userdoc": {
		"methods": {}
	}
}