{
  "contractName": "AOSettingDeprecation",
  "abi": [
    {
      "constant": true,
      "inputs": [],
      "name": "aoSettingAddress",
      "outputs": [
        {
          "name": "",
          "type": "address"
        }
      ],
      "payable": false,
      "stateMutability": "view",
      "type": "function"
    },
    {
      "constant": true,
      "inputs": [],
      "name": "nameTAOPositionAddress",
      "outputs": [
        {
          "name": "",
          "type": "address"
        }
      ],
      "payable": false,
      "stateMutability": "view",
      "type": "function"
    },
    {
      "constant": true,
      "inputs": [
        {
          "name": "",
          "type": "address"
        }
      ],
      "name": "whitelist",
      "outputs": [
        {
          "name": "",
          "type": "bool"
        }
      ],
      "payable": false,
      "stateMutability": "view",
      "type": "function"
    },
    {
      "constant": true,
      "inputs": [],
      "name": "nameAccountRecoveryAddress",
      "outputs": [
        {
          "name": "",
          "type": "address"
        }
      ],
      "payable": false,
      "stateMutability": "view",
      "type": "function"
    },
    {
      "constant": true,
      "inputs": [],
      "name": "theAO",
      "outputs": [
        {
          "name": "",
          "type": "address"
        }
      ],
      "payable": false,
      "stateMutability": "view",
      "type": "function"
    },
    {
      "constant": true,
      "inputs": [],
      "name": "nameFactoryAddress",
      "outputs": [
        {
          "name": "",
          "type": "address"
        }
      ],
      "payable": false,
      "stateMutability": "view",
      "type": "function"
    },
    {
      "constant": true,
      "inputs": [],
      "name": "aoSettingAttributeAddress",
      "outputs": [
        {
          "name": "",
          "type": "address"
        }
      ],
      "payable": false,
      "stateMutability": "view",
      "type": "function"
    },
    {
      "inputs": [
        {
          "name": "_nameFactoryAddress",
          "type": "address"
        },
        {
          "name": "_nameTAOPositionAddress",
          "type": "address"
        },
        {
          "name": "_nameAccountRecoveryAddress",
          "type": "address"
        },
        {
          "name": "_aoSettingAttributeAddress",
          "type": "address"
        },
        {
          "name": "_aoSettingAddress",
          "type": "address"
        }
      ],
      "payable": false,
      "stateMutability": "nonpayable",
      "type": "constructor"
    },
    {
      "anonymous": false,
      "inputs": [
        {
          "indexed": true,
          "name": "settingId",
          "type": "uint256"
        },
        {
          "indexed": true,
          "name": "creatorNameId",
          "type": "address"
        },
        {
          "indexed": false,
          "name": "creatorTAOId",
          "type": "address"
        },
        {
          "indexed": false,
          "name": "associatedTAOId",
          "type": "address"
        },
        {
          "indexed": false,
          "name": "newSettingId",
          "type": "uint256"
        },
        {
          "indexed": false,
          "name": "newSettingContractAddress",
          "type": "address"
        },
        {
          "indexed": false,
          "name": "associatedTAOSettingDeprecationId",
          "type": "bytes32"
        },
        {
          "indexed": false,
          "name": "creatorTAOSettingDeprecationId",
          "type": "bytes32"
        }
      ],
      "name": "SettingDeprecation",
      "type": "event"
    },
    {
      "anonymous": false,
      "inputs": [
        {
          "indexed": true,
          "name": "settingId",
          "type": "uint256"
        },
        {
          "indexed": false,
          "name": "associatedTAOId",
          "type": "address"
        },
        {
          "indexed": false,
          "name": "associatedTAOAdvocate",
          "type": "address"
        },
        {
          "indexed": false,
          "name": "approved",
          "type": "bool"
        }
      ],
      "name": "ApproveSettingDeprecation",
      "type": "event"
    },
    {
      "anonymous": false,
      "inputs": [
        {
          "indexed": true,
          "name": "settingId",
          "type": "uint256"
        },
        {
          "indexed": false,
          "name": "creatorTAOId",
          "type": "address"
        },
        {
          "indexed": false,
          "name": "creatorTAOAdvocate",
          "type": "address"
        }
      ],
      "name": "FinalizeSettingDeprecation",
      "type": "event"
    },
    {
      "constant": false,
      "inputs": [
        {
          "name": "_theAO",
          "type": "address"
        }
      ],
      "name": "transferOwnership",
      "outputs": [],
      "payable": false,
      "stateMutability": "nonpayable",
      "type": "function"
    },
    {
      "constant": false,
      "inputs": [
        {
          "name": "_account",
          "type": "address"
        },
        {
          "name": "_whitelist",
          "type": "bool"
        }
      ],
      "name": "setWhitelist",
      "outputs": [],
      "payable": false,
      "stateMutability": "nonpayable",
      "type": "function"
    },
    {
      "constant": false,
      "inputs": [
        {
          "name": "_nameFactoryAddress",
          "type": "address"
        }
      ],
      "name": "setNameFactoryAddress",
      "outputs": [],
      "payable": false,
      "stateMutability": "nonpayable",
      "type": "function"
    },
    {
      "constant": false,
      "inputs": [
        {
          "name": "_nameTAOPositionAddress",
          "type": "address"
        }
      ],
      "name": "setNameTAOPositionAddress",
      "outputs": [],
      "payable": false,
      "stateMutability": "nonpayable",
      "type": "function"
    },
    {
      "constant": false,
      "inputs": [
        {
          "name": "_nameAccountRecoveryAddress",
          "type": "address"
        }
      ],
      "name": "setNameAccountRecoveryAddress",
      "outputs": [],
      "payable": false,
      "stateMutability": "nonpayable",
      "type": "function"
    },
    {
      "constant": false,
      "inputs": [
        {
          "name": "_aoSettingAttributeAddress",
          "type": "address"
        }
      ],
      "name": "setAOSettingAttributeAddress",
      "outputs": [],
      "payable": false,
      "stateMutability": "nonpayable",
      "type": "function"
    },
    {
      "constant": false,
      "inputs": [
        {
          "name": "_aoSettingAddress",
          "type": "address"
        }
      ],
      "name": "setAOSettingAddress",
      "outputs": [],
      "payable": false,
      "stateMutability": "nonpayable",
      "type": "function"
    },
    {
      "constant": false,
      "inputs": [
        {
          "name": "_settingId",
          "type": "uint256"
        },
        {
          "name": "_newSettingId",
          "type": "uint256"
        },
        {
          "name": "_newSettingContractAddress",
          "type": "address"
        },
        {
          "name": "_creatorTAOId",
          "type": "address"
        },
        {
          "name": "_associatedTAOId",
          "type": "address"
        }
      ],
      "name": "addSettingDeprecation",
      "outputs": [],
      "payable": false,
      "stateMutability": "nonpayable",
      "type": "function"
    },
    {
      "constant": false,
      "inputs": [
        {
          "name": "_settingId",
          "type": "uint256"
        },
        {
          "name": "_approved",
          "type": "bool"
        }
      ],
      "name": "approveSettingDeprecation",
      "outputs": [],
      "payable": false,
      "stateMutability": "nonpayable",
      "type": "function"
    },
    {
      "constant": false,
      "inputs": [
        {
          "name": "_settingId",
          "type": "uint256"
        }
      ],
      "name": "finalizeSettingDeprecation",
      "outputs": [],
      "payable": false,
      "stateMutability": "nonpayable",
      "type": "function"
    }
  ],
  "bytecode": "0x60806040523480156200001157600080fd5b5060405160a08062001ea9833981018060405260a08110156200003357600080fd5b50805160208083015160408401516060850151608090950151600080546001600160a01b0319163317905593949193909262000075908690620000c4811b901c565b6200008684620001c560201b60201c565b6200009783620002c660201b60201c565b620000a882620003ca60201b60201c565b620000b981620004cb60201b60201c565b5050505050620005cc565b600054600154604080517ff66afcac0000000000000000000000000000000000000000000000000000000081523360048201526001600160a01b0393841660248201529290911660448301525173__AOLibrary_____________________________9163f66afcac916064808301926020929190829003018186803b1580156200014d57600080fd5b505af415801562000162573d6000803e3d6000fd5b505050506040513d60208110156200017957600080fd5b50516200018557600080fd5b6001600160a01b0381166200019957600080fd5b600380546001600160a01b039092166001600160a01b0319928316811790915560078054909216179055565b600054600154604080517ff66afcac0000000000000000000000000000000000000000000000000000000081523360048201526001600160a01b0393841660248201529290911660448301525173__AOLibrary_____________________________9163f66afcac916064808301926020929190829003018186803b1580156200024e57600080fd5b505af415801562000263573d6000803e3d6000fd5b505050506040513d60208110156200027a57600080fd5b50516200028657600080fd5b6001600160a01b0381166200029a57600080fd5b600180546001600160a01b039092166001600160a01b0319928316811790915560088054909216179055565b600054600154604080517ff66afcac0000000000000000000000000000000000000000000000000000000081523360048201526001600160a01b0393841660248201529290911660448301525173__AOLibrary_____________________________9163f66afcac916064808301926020929190829003018186803b1580156200034f57600080fd5b505af415801562000364573d6000803e3d6000fd5b505050506040513d60208110156200037b57600080fd5b50516200038757600080fd5b6001600160a01b0381166200039b57600080fd5b600480546001600160a01b03199081166001600160a01b03938416179182905560098054929093169116179055565b600054600154604080517ff66afcac0000000000000000000000000000000000000000000000000000000081523360048201526001600160a01b0393841660248201529290911660448301525173__AOLibrary_____________________________9163f66afcac916064808301926020929190829003018186803b1580156200045357600080fd5b505af415801562000468573d6000803e3d6000fd5b505050506040513d60208110156200047f57600080fd5b50516200048b57600080fd5b6001600160a01b0381166200049f57600080fd5b600580546001600160a01b039092166001600160a01b03199283168117909155600a8054909216179055565b600054600154604080517ff66afcac0000000000000000000000000000000000000000000000000000000081523360048201526001600160a01b0393841660248201529290911660448301525173__AOLibrary_____________________________9163f66afcac916064808301926020929190829003018186803b1580156200055457600080fd5b505af415801562000569573d6000803e3d6000fd5b505050506040513d60208110156200058057600080fd5b50516200058c57600080fd5b6001600160a01b038116620005a057600080fd5b600680546001600160a01b039092166001600160a01b03199283168117909155600b8054909216179055565b6118cd80620005dc6000396000f3fe608060405234801561001057600080fd5b506004361061010b5760003560e01c80637a713023116100a2578063a4e5fad211610071578063a4e5fad2146102ea578063a9b6b38e146102f2578063bc406206146102fa578063cf8477cf14610302578063f2fde38b1461030a5761010b565b80637a713023146102485780638c924361146102655780639793714f1461028b5780639b19251a146102b05761010b565b806353d6fd59116100de57806353d6fd591461018a5780635cfaf2ef146101b857806361f61867146101de57806372eca635146102225761010b565b806306fd7088146101105780631d0138ff146101385780631dfde2bd1461015c5780634ef033f014610182575b600080fd5b6101366004803603602081101561012657600080fd5b50356001600160a01b0316610330565b005b610140610416565b604080516001600160a01b039092168252519081900360200190f35b6101366004803603602081101561017257600080fd5b50356001600160a01b0316610425565b61014061050e565b610136600480360360408110156101a057600080fd5b506001600160a01b038135169060200135151561051d565b610136600480360360208110156101ce57600080fd5b50356001600160a01b0316610602565b610136600480360360a08110156101f457600080fd5b508035906020810135906001600160a01b0360408201358116916060810135821691608090910135166106e8565b6101366004803603602081101561023857600080fd5b50356001600160a01b0316610dc8565b6101366004803603602081101561025e57600080fd5b5035610eae565b6101366004803603602081101561027b57600080fd5b50356001600160a01b0316611295565b610136600480360360408110156102a157600080fd5b5080359060200135151561137b565b6102d6600480360360208110156102c657600080fd5b50356001600160a01b0316611774565b604080519115158252519081900360200190f35b610140611789565b610140611798565b6101406117a7565b6101406117b6565b6101366004803603602081101561032057600080fd5b50356001600160a01b03166117c5565b60005460015460408051600160e21b633d9abf2b0281523360048201526001600160a01b0393841660248201529290911660448301525173__AOLibrary_____________________________9163f66afcac916064808301926020929190829003018186803b1580156103a257600080fd5b505af41580156103b6573d6000803e3d6000fd5b505050506040513d60208110156103cc57600080fd5b50516103d757600080fd5b6001600160a01b0381166103ea57600080fd5b600680546001600160a01b039092166001600160a01b03199283168117909155600b8054909216179055565b6006546001600160a01b031681565b60005460015460408051600160e21b633d9abf2b0281523360048201526001600160a01b0393841660248201529290911660448301525173__AOLibrary_____________________________9163f66afcac916064808301926020929190829003018186803b15801561049757600080fd5b505af41580156104ab573d6000803e3d6000fd5b505050506040513d60208110156104c157600080fd5b50516104cc57600080fd5b6001600160a01b0381166104df57600080fd5b600480546001600160a01b03199081166001600160a01b03938416179182905560098054929093169116179055565b6001546001600160a01b031681565b60005460015460408051600160e21b633d9abf2b0281523360048201526001600160a01b0393841660248201529290911660448301525173__AOLibrary_____________________________9163f66afcac916064808301926020929190829003018186803b15801561058f57600080fd5b505af41580156105a3573d6000803e3d6000fd5b505050506040513d60208110156105b957600080fd5b50516105c457600080fd5b6001600160a01b0382166105d757600080fd5b6001600160a01b03919091166000908152600260205260409020805460ff1916911515919091179055565b60005460015460408051600160e21b633d9abf2b0281523360048201526001600160a01b0393841660248201529290911660448301525173__AOLibrary_____________________________9163f66afcac916064808301926020929190829003018186803b15801561067457600080fd5b505af4158015610688573d6000803e3d6000fd5b505050506040513d602081101561069e57600080fd5b50516106a957600080fd5b6001600160a01b0381166106bc57600080fd5b600180546001600160a01b039092166001600160a01b0319928316811790915560088054909216179055565b8173__AOLibrary_____________________________632fca5414826040518263ffffffff1660e01b815260040180826001600160a01b03166001600160a01b0316815260200191505060206040518083038186803b15801561074a57600080fd5b505af415801561075e573d6000803e3d6000fd5b505050506040513d602081101561077457600080fd5b505161077f57600080fd5b8173__AOLibrary_____________________________632fca5414826040518263ffffffff1660e01b815260040180826001600160a01b03166001600160a01b0316815260200191505060206040518083038186803b1580156107e157600080fd5b505af41580156107f5573d6000803e3d6000fd5b505050506040513d602081101561080b57600080fd5b505161081657600080fd5b60085460408051600160e01b6371ce52ed0281523360048201526001600160a01b0380881660248301529151879392909216916371ce52ed91604480820192602092909190829003018186803b15801561086f57600080fd5b505afa158015610883573d6000803e3d6000fd5b505050506040513d602081101561089957600080fd5b50516108a457600080fd5b60095460075460408051600160e01b63029b7d5302815233600482015290516001600160a01b0393841693633ebc2ab393169163029b7d53916024808301926020929190829003018186803b1580156108fc57600080fd5b505afa158015610910573d6000803e3d6000fd5b505050506040513d602081101561092657600080fd5b50516040805163ffffffff841660e01b81526001600160a01b039092166004830152516024808301926020929190829003018186803b15801561096857600080fd5b505afa15801561097c573d6000803e3d6000fd5b505050506040513d602081101561099257600080fd5b50511561099e57600080fd5b600b5460408051600160e01b63a62eeead028152600481018b905290516000926001600160a01b03169163a62eeead916024808301926020929190829003018186803b1580156109ed57600080fd5b505afa158015610a01573d6000803e3d6000fd5b505050506040513d6020811015610a1757600080fd5b505160ff16118015610aa45750600b5460408051600160e01b63a62eeead028152600481018a905290516000926001600160a01b03169163a62eeead916024808301926020929190829003018186803b158015610a7357600080fd5b505afa158015610a87573d6000803e3d6000fd5b505050506040513d6020811015610a9d57600080fd5b505160ff16115b610aad57600080fd5b600b5460408051600160e01b63a62eeead028152600481018a905290516001600160a01b039092169163a62eeead91602480820192602092909190829003018186803b158015610afc57600080fd5b505afa158015610b10573d6000803e3d6000fd5b505050506040513d6020811015610b2657600080fd5b5051600b5460408051600160e01b63a62eeead028152600481018c9052905160ff909316926001600160a01b039092169163a62eeead91602480820192602092909190829003018186803b158015610b7d57600080fd5b505afa158015610b91573d6000803e3d6000fd5b505050506040513d6020811015610ba757600080fd5b505160ff1614610bb657600080fd5b600a5460075460408051600160e01b63029b7d53028152336004820152905160009384936001600160a01b039182169363d79964c3938f939092169163029b7d5391602480820192602092909190829003018186803b158015610c1857600080fd5b505afa158015610c2c573d6000803e3d6000fd5b505050506040513d6020811015610c4257600080fd5b50516040805163ffffffff851660e01b815260048101939093526001600160a01b039182166024840152818c166044840152818b166064840152608483018e9052908c1660a4830152805160c4808401938290030181600087803b158015610ca957600080fd5b505af1158015610cbd573d6000803e3d6000fd5b505050506040513d6040811015610cd357600080fd5b50805160209182015160075460408051600160e01b63029b7d5302815233600482015290519396509194506001600160a01b03169263029b7d5392602480840193829003018186803b158015610d2857600080fd5b505afa158015610d3c573d6000803e3d6000fd5b505050506040513d6020811015610d5257600080fd5b5051604080516001600160a01b038a8116825289811660208301528183018d90528b811660608301526080820186905260a08201859052915191909216918c917f5b0aa40d58b997f6865a44dcb51e82305ff4fc4d2f7fed2e10d853de9394ae2a9181900360c00190a350505050505050505050565b60005460015460408051600160e21b633d9abf2b0281523360048201526001600160a01b0393841660248201529290911660448301525173__AOLibrary_____________________________9163f66afcac916064808301926020929190829003018186803b158015610e3a57600080fd5b505af4158015610e4e573d6000803e3d6000fd5b505050506040513d6020811015610e6457600080fd5b5051610e6f57600080fd5b6001600160a01b038116610e8257600080fd5b600580546001600160a01b039092166001600160a01b03199283168117909155600a8054909216179055565b60075460408051600160e01b63029b7d5302815233600482015290516000926001600160a01b03169163029b7d53916024808301926020929190829003018186803b158015610efc57600080fd5b505afa158015610f10573d6000803e3d6000fd5b505050506040513d6020811015610f2657600080fd5b50516001600160a01b03161415610f3c57600080fd5b60095460075460408051600160e01b63029b7d5302815233600482015290516001600160a01b0393841693633ebc2ab393169163029b7d53916024808301926020929190829003018186803b158015610f9457600080fd5b505afa158015610fa8573d6000803e3d6000fd5b505050506040513d6020811015610fbe57600080fd5b50516040805163ffffffff841660e01b81526001600160a01b039092166004830152516024808301926020929190829003018186803b15801561100057600080fd5b505afa158015611014573d6000803e3d6000fd5b505050506040513d602081101561102a57600080fd5b50511561103657600080fd5b600b5460408051600160e01b63a62eeead0281526004810184905290516000926001600160a01b03169163a62eeead916024808301926020929190829003018186803b15801561108557600080fd5b505afa158015611099573d6000803e3d6000fd5b505050506040513d60208110156110af57600080fd5b505160ff16116110be57600080fd5b60075460408051600160e01b63029b7d5302815233600482015290516000926001600160a01b03169163029b7d53916024808301926020929190829003018186803b15801561110c57600080fd5b505afa158015611120573d6000803e3d6000fd5b505050506040513d602081101561113657600080fd5b5051600a5460408051600160e11b63769d6a1f028152600481018690526001600160a01b038085166024830152915193945091169163ed3ad43e916044808201926020929091908290030181600087803b15801561119357600080fd5b505af11580156111a7573d6000803e3d6000fd5b505050506040513d60208110156111bd57600080fd5b50516111c857600080fd5b600a5460408051600160e01b63eb10b4bd0281526004810185905290516000926001600160a01b03169163eb10b4bd91602480830192610180929190829003018186803b15801561121857600080fd5b505afa15801561122c573d6000803e3d6000fd5b505050506040513d61018081101561124357600080fd5b5060409081015181516001600160a01b03808316825285166020820152825191935085927fddce695af8c75c8fab3a9b369527822852b7fca9ca33aa7c48141b1134298f2d92918290030190a2505050565b60005460015460408051600160e21b633d9abf2b0281523360048201526001600160a01b0393841660248201529290911660448301525173__AOLibrary_____________________________9163f66afcac916064808301926020929190829003018186803b15801561130757600080fd5b505af415801561131b573d6000803e3d6000fd5b505050506040513d602081101561133157600080fd5b505161133c57600080fd5b6001600160a01b03811661134f57600080fd5b600380546001600160a01b039092166001600160a01b0319928316811790915560078054909216179055565b60075460408051600160e01b63029b7d5302815233600482015290516000926001600160a01b03169163029b7d53916024808301926020929190829003018186803b1580156113c957600080fd5b505afa1580156113dd573d6000803e3d6000fd5b505050506040513d60208110156113f357600080fd5b50516001600160a01b0316141561140957600080fd5b60095460075460408051600160e01b63029b7d5302815233600482015290516001600160a01b0393841693633ebc2ab393169163029b7d53916024808301926020929190829003018186803b15801561146157600080fd5b505afa158015611475573d6000803e3d6000fd5b505050506040513d602081101561148b57600080fd5b50516040805163ffffffff841660e01b81526001600160a01b039092166004830152516024808301926020929190829003018186803b1580156114cd57600080fd5b505afa1580156114e1573d6000803e3d6000fd5b505050506040513d60208110156114f757600080fd5b50511561150357600080fd5b600b5460408051600160e01b63a62eeead0281526004810185905290516000926001600160a01b03169163a62eeead916024808301926020929190829003018186803b15801561155257600080fd5b505afa158015611566573d6000803e3d6000fd5b505050506040513d602081101561157c57600080fd5b505160ff161161158b57600080fd5b60075460408051600160e01b63029b7d5302815233600482015290516000926001600160a01b03169163029b7d53916024808301926020929190829003018186803b1580156115d957600080fd5b505afa1580156115ed573d6000803e3d6000fd5b505050506040513d602081101561160357600080fd5b5051600a5460408051600160e01b6346082aaf028152600481018790526001600160a01b038085166024830152861515604483015291519394509116916346082aaf916064808201926020929091908290030181600087803b15801561166857600080fd5b505af115801561167c573d6000803e3d6000fd5b505050506040513d602081101561169257600080fd5b505161169d57600080fd5b600a5460408051600160e01b63eb10b4bd0281526004810186905290516000926001600160a01b03169163eb10b4bd91602480830192610180929190829003018186803b1580156116ed57600080fd5b505afa158015611701573d6000803e3d6000fd5b505050506040513d61018081101561171857600080fd5b50606090810151604080516001600160a01b0380841682528616602082015286151581830152905191935086927f68e70a35c7a2d3a84a6d5f1fca218f248ebab3821e88a3b58ead71224623433292918290030190a250505050565b60026020526000908152604090205460ff1681565b6004546001600160a01b031681565b6000546001600160a01b031681565b6003546001600160a01b031681565b6005546001600160a01b031681565b60005460015460408051600160e21b633d9abf2b0281523360048201526001600160a01b0393841660248201529290911660448301525173__AOLibrary_____________________________9163f66afcac916064808301926020929190829003018186803b15801561183757600080fd5b505af415801561184b573d6000803e3d6000fd5b505050506040513d602081101561186157600080fd5b505161186c57600080fd5b6001600160a01b03811661187f57600080fd5b600080546001600160a01b0319166001600160a01b039290921691909117905556fea165627a7a723058201f2cb46b1807f5f203c24e8f246e52f9e623c167e9c70305e3535dcc7e1a03060029",
  "source": "pragma solidity >=0.5.4 <0.6.0;\n\nimport './AOLibrary.sol';\nimport './TheAO.sol';\nimport './IAOSetting.sol';\nimport './INameFactory.sol';\nimport './IAOSettingAttribute.sol';\nimport './INameTAOPosition.sol';\nimport './INameAccountRecovery.sol';\n\n/**\n * @title AOSettingDeprecation\n *\n * This contract responsible for adding setting deprecation\n */\ncontract AOSettingDeprecation is TheAO {\n\taddress public nameFactoryAddress;\n\taddress public nameAccountRecoveryAddress;\n\taddress public aoSettingAttributeAddress;\n\taddress public aoSettingAddress;\n\n\tINameFactory internal _nameFactory;\n\tINameTAOPosition internal _nameTAOPosition;\n\tINameAccountRecovery internal _nameAccountRecovery;\n\tIAOSettingAttribute internal _aoSettingAttribute;\n\tIAOSetting internal _aoSetting;\n\n\t// Event to be broadcasted to public when a setting deprecation is created and waiting for approval\n\tevent SettingDeprecation(uint256 indexed settingId, address indexed creatorNameId, address creatorTAOId, address associatedTAOId, uint256 newSettingId, address newSettingContractAddress, bytes32 associatedTAOSettingDeprecationId, bytes32 creatorTAOSettingDeprecationId);\n\n\t// Event to be broadcasted to public when setting deprecation is approved/rejected by the advocate of associatedTAOId\n\tevent ApproveSettingDeprecation(uint256 indexed settingId, address associatedTAOId, address associatedTAOAdvocate, bool approved);\n\n\t// Event to be broadcasted to public when setting deprecation is finalized by the advocate of creatorTAOId\n\tevent FinalizeSettingDeprecation(uint256 indexed settingId, address creatorTAOId, address creatorTAOAdvocate);\n\n\t/**\n\t * @dev Constructor function\n\t */\n\tconstructor(address _nameFactoryAddress,\n\t\taddress _nameTAOPositionAddress,\n\t\taddress _nameAccountRecoveryAddress,\n\t\taddress _aoSettingAttributeAddress,\n\t\taddress _aoSettingAddress\n\t\t) public {\n\t\tsetNameFactoryAddress(_nameFactoryAddress);\n\t\tsetNameTAOPositionAddress(_nameTAOPositionAddress);\n\t\tsetNameAccountRecoveryAddress(_nameAccountRecoveryAddress);\n\t\tsetAOSettingAttributeAddress(_aoSettingAttributeAddress);\n\t\tsetAOSettingAddress(_aoSettingAddress);\n\t}\n\n\t/**\n\t * @dev Checks if the calling contract address is The AO\n\t *\t\tOR\n\t *\t\tIf The AO is set to a Name/TAO, then check if calling address is the Advocate\n\t */\n\tmodifier onlyTheAO {\n\t\trequire (AOLibrary.isTheAO(msg.sender, theAO, nameTAOPositionAddress));\n\t\t_;\n\t}\n\n\t/**\n\t * @dev Check if `_taoId` is a TAO\n\t */\n\tmodifier isTAO(address _taoId) {\n\t\trequire (AOLibrary.isTAO(_taoId));\n\t\t_;\n\t}\n\n\t/**\n\t * @dev Check if msg.sender is the current advocate of Name ID\n\t */\n\tmodifier onlyAdvocate(address _id) {\n\t\trequire (_nameTAOPosition.senderIsAdvocate(msg.sender, _id));\n\t\t_;\n\t}\n\n\t/**\n\t * @dev Check is msg.sender address is a Name\n\t */\n\t modifier senderIsName() {\n\t\trequire (_nameFactory.ethAddressToNameId(msg.sender) != address(0));\n\t\t_;\n\t }\n\n\t/**\n\t * @dev Only allowed if sender's Name is not compromised\n\t */\n\tmodifier senderNameNotCompromised() {\n\t\trequire (!_nameAccountRecovery.isCompromised(_nameFactory.ethAddressToNameId(msg.sender)));\n\t\t_;\n\t}\n\n\t/***** The AO ONLY METHODS *****/\n\t/**\n\t * @dev Transfer ownership of The AO to new address\n\t * @param _theAO The new address to be transferred\n\t */\n\tfunction transferOwnership(address _theAO) public onlyTheAO {\n\t\trequire (_theAO != address(0));\n\t\ttheAO = _theAO;\n\t}\n\n\t/**\n\t * @dev Whitelist `_account` address to transact on behalf of others\n\t * @param _account The address to whitelist\n\t * @param _whitelist Either to whitelist or not\n\t */\n\tfunction setWhitelist(address _account, bool _whitelist) public onlyTheAO {\n\t\trequire (_account != address(0));\n\t\twhitelist[_account] = _whitelist;\n\t}\n\n\t/**\n\t * @dev The AO sets NameFactory address\n\t * @param _nameFactoryAddress The address of NameFactory\n\t */\n\tfunction setNameFactoryAddress(address _nameFactoryAddress) public onlyTheAO {\n\t\trequire (_nameFactoryAddress != address(0));\n\t\tnameFactoryAddress = _nameFactoryAddress;\n\t\t_nameFactory = INameFactory(_nameFactoryAddress);\n\t}\n\n\t/**\n\t * @dev The AO sets NameTAOPosition address\n\t * @param _nameTAOPositionAddress The address of NameTAOPosition\n\t */\n\tfunction setNameTAOPositionAddress(address _nameTAOPositionAddress) public onlyTheAO {\n\t\trequire (_nameTAOPositionAddress != address(0));\n\t\tnameTAOPositionAddress = _nameTAOPositionAddress;\n\t\t_nameTAOPosition = INameTAOPosition(_nameTAOPositionAddress);\n\t}\n\n\t/**\n\t * @dev The AO set the NameAccountRecovery Address\n\t * @param _nameAccountRecoveryAddress The address of NameAccountRecovery\n\t */\n\tfunction setNameAccountRecoveryAddress(address _nameAccountRecoveryAddress) public onlyTheAO {\n\t\trequire (_nameAccountRecoveryAddress != address(0));\n\t\tnameAccountRecoveryAddress = _nameAccountRecoveryAddress;\n\t\t_nameAccountRecovery = INameAccountRecovery(nameAccountRecoveryAddress);\n\t}\n\n\t/**\n\t * @dev The AO sets AOSettingAttribute address\n\t * @param _aoSettingAttributeAddress The address of AOSettingAttribute\n\t */\n\tfunction setAOSettingAttributeAddress(address _aoSettingAttributeAddress) public onlyTheAO {\n\t\trequire (_aoSettingAttributeAddress != address(0));\n\t\taoSettingAttributeAddress = _aoSettingAttributeAddress;\n\t\t_aoSettingAttribute = IAOSettingAttribute(_aoSettingAttributeAddress);\n\t}\n\n\t/**\n\t * @dev The AO sets AOSetting address\n\t * @param _aoSettingAddress The address of AOSetting\n\t */\n\tfunction setAOSettingAddress(address _aoSettingAddress) public onlyTheAO {\n\t\trequire (_aoSettingAddress != address(0));\n\t\taoSettingAddress = _aoSettingAddress;\n\t\t_aoSetting = IAOSetting(_aoSettingAddress);\n\t}\n\n\t/***** PUBLIC METHODS *****/\n\t/**\n\t * @dev Advocate of _creatorTAOId adds a setting deprecation\n\t * @param _settingId The ID of the setting to be deprecated\n\t * @param _newSettingId The new setting ID to route\n\t * @param _newSettingContractAddress The new setting contract address to route\n\t * @param _creatorTAOId The taoId that created the setting\n\t * @param _associatedTAOId The taoId that the setting affects\n\t */\n\tfunction addSettingDeprecation(\n\t\tuint256 _settingId,\n\t\tuint256 _newSettingId,\n\t\taddress _newSettingContractAddress,\n\t\taddress _creatorTAOId,\n\t\taddress _associatedTAOId)\n\t\tpublic\n\t\tisTAO(_creatorTAOId)\n\t\tisTAO(_associatedTAOId)\n\t\tonlyAdvocate(_creatorTAOId)\n\t\tsenderNameNotCompromised {\n\t\t// Make sure the settings exist\n\t\trequire (_aoSetting.settingTypeLookup(_settingId) > 0 && _aoSetting.settingTypeLookup(_newSettingId) > 0);\n\n\t\t// Make sure it's the same type\n\t\trequire (_aoSetting.settingTypeLookup(_settingId) == _aoSetting.settingTypeLookup(_newSettingId));\n\n\t\t(bytes32 _associatedTAOSettingDeprecationId, bytes32 _creatorTAOSettingDeprecationId) = _aoSettingAttribute.addDeprecation(_settingId, _nameFactory.ethAddressToNameId(msg.sender), _creatorTAOId, _associatedTAOId, _newSettingId, _newSettingContractAddress);\n\n\t\temit SettingDeprecation(_settingId, _nameFactory.ethAddressToNameId(msg.sender), _creatorTAOId, _associatedTAOId, _newSettingId, _newSettingContractAddress, _associatedTAOSettingDeprecationId, _creatorTAOSettingDeprecationId);\n\t}\n\n\t/**\n\t * @dev Advocate of SettingDeprecation's _associatedTAOId approves setting deprecation\n\t * @param _settingId The ID of the setting to approve\n\t * @param _approved Whether to approve or reject\n\t */\n\tfunction approveSettingDeprecation(uint256 _settingId, bool _approved) public senderIsName senderNameNotCompromised {\n\t\t// Make sure setting exist\n\t\trequire (_aoSetting.settingTypeLookup(_settingId) > 0);\n\n\t\taddress _associatedTAOAdvocate = _nameFactory.ethAddressToNameId(msg.sender);\n\t\trequire (_aoSettingAttribute.approveDeprecation(_settingId, _associatedTAOAdvocate, _approved));\n\n\t\t(,,, address _associatedTAOId,,,,,,,,) = _aoSettingAttribute.getSettingDeprecation(_settingId);\n\t\temit ApproveSettingDeprecation(_settingId, _associatedTAOId, _associatedTAOAdvocate, _approved);\n\t}\n\n\t/**\n\t * @dev Advocate of SettingDeprecation's _creatorTAOId finalizes the setting deprecation once the setting deprecation is approved\n\t * @param _settingId The ID of the setting to be finalized\n\t */\n\tfunction finalizeSettingDeprecation(uint256 _settingId) public senderIsName senderNameNotCompromised {\n\t\t// Make sure setting exist\n\t\trequire (_aoSetting.settingTypeLookup(_settingId) > 0);\n\n\t\taddress _creatorTAOAdvocate = _nameFactory.ethAddressToNameId(msg.sender);\n\t\trequire (_aoSettingAttribute.finalizeDeprecation(_settingId, _creatorTAOAdvocate));\n\n\t\t(,, address _creatorTAOId,,,,,,,,,) = _aoSettingAttribute.getSettingDeprecation(_settingId);\n\t\temit FinalizeSettingDeprecation(_settingId, _creatorTAOId, _creatorTAOAdvocate);\n\t}\n}\n",
  "sourcePath": "/usr/local/ao-contracts/contracts/AOSettingDeprecation.sol",
  "compiler": {
    "name": "solc",
    "version": "0.5.6+commit.b259423e.Emscripten.clang"
  },
  "schemaVersion": "3.0.2",
  "updatedAt": "2019-03-28T22:28:46.999Z",
  "devdoc": {
    "methods": {
      "addSettingDeprecation(uint256,uint256,address,address,address)": {
        "details": "Advocate of _creatorTAOId adds a setting deprecation",
        "params": {
          "_associatedTAOId": "The taoId that the setting affects",
          "_creatorTAOId": "The taoId that created the setting",
          "_newSettingContractAddress": "The new setting contract address to route",
          "_newSettingId": "The new setting ID to route",
          "_settingId": "The ID of the setting to be deprecated"
        }
      },
      "approveSettingDeprecation(uint256,bool)": {
        "details": "Advocate of SettingDeprecation's _associatedTAOId approves setting deprecation",
        "params": {
          "_approved": "Whether to approve or reject",
          "_settingId": "The ID of the setting to approve"
        }
      },
      "constructor": {
        "details": "Constructor function"
      },
      "finalizeSettingDeprecation(uint256)": {
        "details": "Advocate of SettingDeprecation's _creatorTAOId finalizes the setting deprecation once the setting deprecation is approved",
        "params": {
          "_settingId": "The ID of the setting to be finalized"
        }
      },
      "setAOSettingAddress(address)": {
        "details": "The AO sets AOSetting address",
        "params": {
          "_aoSettingAddress": "The address of AOSetting"
        }
      },
      "setAOSettingAttributeAddress(address)": {
        "details": "The AO sets AOSettingAttribute address",
        "params": {
          "_aoSettingAttributeAddress": "The address of AOSettingAttribute"
        }
      },
      "setNameAccountRecoveryAddress(address)": {
        "details": "The AO set the NameAccountRecovery Address",
        "params": {
          "_nameAccountRecoveryAddress": "The address of NameAccountRecovery"
        }
      },
      "setNameFactoryAddress(address)": {
        "details": "The AO sets NameFactory address",
        "params": {
          "_nameFactoryAddress": "The address of NameFactory"
        }
      },
      "setNameTAOPositionAddress(address)": {
        "details": "The AO sets NameTAOPosition address",
        "params": {
          "_nameTAOPositionAddress": "The address of NameTAOPosition"
        }
      },
      "setWhitelist(address,bool)": {
        "details": "Whitelist `_account` address to transact on behalf of others",
        "params": {
          "_account": "The address to whitelist",
          "_whitelist": "Either to whitelist or not"
        }
      },
      "transferOwnership(address)": {
        "details": "Transfer ownership of The AO to new address",
        "params": {
          "_theAO": "The new address to be transferred"
        }
      }
    },
    "title": "AOSettingDeprecation * This contract responsible for adding setting deprecation"
  },
  "userdoc": {
    "methods": {}
  }
}