{
  "contractName": "AOSettingValue",
  "abi": [
    {
      "constant": true,
      "inputs": [],
      "name": "nameTAOPositionAddress",
      "outputs": [
        {
          "name": "",
          "type": "address"
        }
      ],
      "payable": false,
      "stateMutability": "view",
      "type": "function"
    },
    {
      "constant": true,
      "inputs": [
        {
          "name": "",
          "type": "address"
        }
      ],
      "name": "whitelist",
      "outputs": [
        {
          "name": "",
          "type": "bool"
        }
      ],
      "payable": false,
      "stateMutability": "view",
      "type": "function"
    },
    {
      "constant": true,
      "inputs": [],
      "name": "theAO",
      "outputs": [
        {
          "name": "",
          "type": "address"
        }
      ],
      "payable": false,
      "stateMutability": "view",
      "type": "function"
    },
    {
      "inputs": [
        {
          "name": "_nameTAOPositionAddress",
          "type": "address"
        }
      ],
      "payable": false,
      "stateMutability": "nonpayable",
      "type": "constructor"
    },
    {
      "constant": false,
      "inputs": [
        {
          "name": "_theAO",
          "type": "address"
        }
      ],
      "name": "transferOwnership",
      "outputs": [],
      "payable": false,
      "stateMutability": "nonpayable",
      "type": "function"
    },
    {
      "constant": false,
      "inputs": [
        {
          "name": "_account",
          "type": "address"
        },
        {
          "name": "_whitelist",
          "type": "bool"
        }
      ],
      "name": "setWhitelist",
      "outputs": [],
      "payable": false,
      "stateMutability": "nonpayable",
      "type": "function"
    },
    {
      "constant": false,
      "inputs": [
        {
          "name": "_nameTAOPositionAddress",
          "type": "address"
        }
      ],
      "name": "setNameTAOPositionAddress",
      "outputs": [],
      "payable": false,
      "stateMutability": "nonpayable",
      "type": "function"
    },
    {
      "constant": false,
      "inputs": [
        {
          "name": "_settingId",
          "type": "uint256"
        },
        {
          "name": "_addressValue",
          "type": "address"
        },
        {
          "name": "_boolValue",
          "type": "bool"
        },
        {
          "name": "_bytesValue",
          "type": "bytes32"
        },
        {
          "name": "_stringValue",
          "type": "string"
        },
        {
          "name": "_uintValue",
          "type": "uint256"
        }
      ],
      "name": "setPendingValue",
      "outputs": [
        {
          "name": "",
          "type": "bool"
        }
      ],
      "payable": false,
      "stateMutability": "nonpayable",
      "type": "function"
    },
    {
      "constant": false,
      "inputs": [
        {
          "name": "_settingId",
          "type": "uint256"
        }
      ],
      "name": "movePendingToSetting",
      "outputs": [
        {
          "name": "",
          "type": "bool"
        }
      ],
      "payable": false,
      "stateMutability": "nonpayable",
      "type": "function"
    },
    {
      "constant": true,
      "inputs": [
        {
          "name": "_settingId",
          "type": "uint256"
        }
      ],
      "name": "settingValue",
      "outputs": [
        {
          "name": "",
          "type": "address"
        },
        {
          "name": "",
          "type": "bool"
        },
        {
          "name": "",
          "type": "bytes32"
        },
        {
          "name": "",
          "type": "string"
        },
        {
          "name": "",
          "type": "uint256"
        }
      ],
      "payable": false,
      "stateMutability": "view",
      "type": "function"
    },
    {
      "constant": true,
      "inputs": [
        {
          "name": "_settingId",
          "type": "uint256"
        }
      ],
      "name": "pendingValue",
      "outputs": [
        {
          "name": "",
          "type": "address"
        },
        {
          "name": "",
          "type": "bool"
        },
        {
          "name": "",
          "type": "bytes32"
        },
        {
          "name": "",
          "type": "string"
        },
        {
          "name": "",
          "type": "uint256"
        }
      ],
      "payable": false,
      "stateMutability": "view",
      "type": "function"
    }
  ],
  "bytecode": "0x608060405234801561001057600080fd5b50604051602080610d198339810180604052602081101561003057600080fd5b5051600080546001600160a01b031916331790556100548161005a602090811b901c565b5061014c565b600054600154604080517ff66afcac0000000000000000000000000000000000000000000000000000000081523360048201526001600160a01b0393841660248201529290911660448301525173__AOLibrary_____________________________9163f66afcac916064808301926020929190829003018186803b1580156100e257600080fd5b505af41580156100f6573d6000803e3d6000fd5b505050506040513d602081101561010c57600080fd5b505161011757600080fd5b6001600160a01b03811661012a57600080fd5b600180546001600160a01b0319166001600160a01b0392909216919091179055565b610bbe8061015b6000396000f3fe608060405234801561001057600080fd5b506004361061009e5760003560e01c80639ba535ce116100665780639ba535ce14610174578063a9b6b38e1461023b578063af9e8b1614610243578063ccdd6afd14610260578063f2fde38b146102f35761009e565b8063088fc1a8146100a35780634ef033f0146100d457806353d6fd59146100f85780635cfaf2ef146101285780639b19251a1461014e575b600080fd5b6100c0600480360360208110156100b957600080fd5b5035610319565b604080519115158252519081900360200190f35b6100dc6104eb565b604080516001600160a01b039092168252519081900360200190f35b6101266004803603604081101561010e57600080fd5b506001600160a01b03813516906020013515156104fa565b005b6101266004803603602081101561013e57600080fd5b50356001600160a01b03166105df565b6100c06004803603602081101561016457600080fd5b50356001600160a01b03166106bb565b6101916004803603602081101561018a57600080fd5b50356106d0565b60405180866001600160a01b03166001600160a01b031681526020018515151515815260200184815260200180602001838152602001828103825284818151815260200191508051906020019080838360005b838110156101fc5781810151838201526020016101e4565b50505050905090810190601f1680156102295780820380516001836020036101000a031916815260200191505b50965050505050505060405180910390f35b6100dc6107ee565b6101916004803603602081101561025957600080fd5b50356107fd565b6100c0600480360360c081101561027657600080fd5b8135916001600160a01b0360208201351691604082013515159160608101359181019060a0810160808201356401000000008111156102b457600080fd5b8201836020820111156102c657600080fd5b803590602001918460018302840111640100000000831117156102e857600080fd5b9193509150356108b3565b6101266004803603602081101561030957600080fd5b50356001600160a01b0316610939565b3360009081526002602052604081205460ff16151560011461033a57600080fd5b610342610a15565b600083815260036020908152604091829020825160a08101845281546001600160a01b0381168252600160a01b900460ff16151581840152600180830154828601526002808401805487516101009482161594909402600019011691909104601f8101869004860283018601909652858252919492936060860193919291908301828280156104125780601f106103e757610100808354040283529160200191610412565b820191906000526020600020905b8154815290600101906020018083116103f557829003601f168201915b50505091835250506003919091015460209182015260008581526004825260409081902083518154858501511515600160a01b02600160a01b60ff02196001600160a01b039093166001600160a01b031990921691909117919091161781559083015160018201556060830151805193945090926104969260028501920190610a42565b50608082015160038083019190915560008581526020919091526040812080546001600160a81b031916815560018101829055906104d76002830182610ac0565b506000600391909101555060019392505050565b6001546001600160a01b031681565b60005460015460408051600160e21b633d9abf2b0281523360048201526001600160a01b0393841660248201529290911660448301525173__AOLibrary_____________________________9163f66afcac916064808301926020929190829003018186803b15801561056c57600080fd5b505af4158015610580573d6000803e3d6000fd5b505050506040513d602081101561059657600080fd5b50516105a157600080fd5b6001600160a01b0382166105b457600080fd5b6001600160a01b03919091166000908152600260205260409020805460ff1916911515919091179055565b60005460015460408051600160e21b633d9abf2b0281523360048201526001600160a01b0393841660248201529290911660448301525173__AOLibrary_____________________________9163f66afcac916064808301926020929190829003018186803b15801561065157600080fd5b505af4158015610665573d6000803e3d6000fd5b505050506040513d602081101561067b57600080fd5b505161068657600080fd5b6001600160a01b03811661069957600080fd5b600180546001600160a01b0319166001600160a01b0392909216919091179055565b60026020526000908152604090205460ff1681565b6000806000606060006106e1610a15565b600087815260046020908152604091829020825160a08101845281546001600160a01b0381168252600160a01b900460ff16151581840152600180830154828601526002808401805487516101009482161594909402600019011691909104601f8101869004860283018601909652858252919492936060860193919291908301828280156107b15780601f10610786576101008083540402835291602001916107b1565b820191906000526020600020905b81548152906001019060200180831161079457829003601f168201915b50505091835250506003919091015460209182015281519082015160408301516060840151608090940151929b919a509850919650945092505050565b6000546001600160a01b031681565b60008060006060600061080e610a15565b600087815260036020908152604091829020825160a08101845281546001600160a01b0381168252600160a01b900460ff16151581840152600180830154828601526002808401805487516101009482161594909402600019011691909104601f8101869004860283018601909652858252919492936060860193919291908301828280156107b15780601f10610786576101008083540402835291602001916107b1565b3360009081526002602052604081205460ff1615156001146108d457600080fd5b600088815260036020526040902080546001600160a01b0319166001600160a01b03891617600160a01b60ff021916600160a01b8815150217815560018101869055610924600282018686610b07565b50600301829055506001979650505050505050565b60005460015460408051600160e21b633d9abf2b0281523360048201526001600160a01b0393841660248201529290911660448301525173__AOLibrary_____________________________9163f66afcac916064808301926020929190829003018186803b1580156109ab57600080fd5b505af41580156109bf573d6000803e3d6000fd5b505050506040513d60208110156109d557600080fd5b50516109e057600080fd5b6001600160a01b0381166109f357600080fd5b600080546001600160a01b0319166001600160a01b0392909216919091179055565b6040805160a081018252600080825260208201819052918101829052606080820152608081019190915290565b828054600181600116156101000203166002900490600052602060002090601f016020900481019282601f10610a8357805160ff1916838001178555610ab0565b82800160010185558215610ab0579182015b82811115610ab0578251825591602001919060010190610a95565b50610abc929150610b75565b5090565b50805460018160011615610100020316600290046000825580601f10610ae65750610b04565b601f016020900490600052602060002090810190610b049190610b75565b50565b828054600181600116156101000203166002900490600052602060002090601f016020900481019282601f10610b485782800160ff19823516178555610ab0565b82800160010185558215610ab0579182015b82811115610ab0578235825591602001919060010190610b5a565b610b8f91905b80821115610abc5760008155600101610b7b565b9056fea165627a7a72305820501c36a63ad95c7771f8928f0df8d74ecc5c4e7ee9fb6113eb2120413a5f829f0029",
  "source": "pragma solidity >=0.5.4 <0.6.0;\n\nimport './AOLibrary.sol';\nimport './TheAO.sol';\nimport './IAOSettingValue.sol';\n\n/**\n * @title AOSettingValue\n *\n */\ncontract AOSettingValue is TheAO, IAOSettingValue {\n\tstruct PendingValue {\n\t\taddress addressValue;\n\t\tbool boolValue;\n\t\tbytes32 bytesValue;\n\t\tstring stringValue;\n\t\tuint256 uintValue;\n\t}\n\n\tstruct SettingValue {\n\t\taddress addressValue;\n\t\tbool boolValue;\n\t\tbytes32 bytesValue;\n\t\tstring stringValue;\n\t\tuint256 uintValue;\n\t}\n\n\t// Mapping from settingId to PendingValue\n\tmapping (uint256 => PendingValue) internal pendingValues;\n\n\t// Mapping from settingId to SettingValue\n\tmapping (uint256 => SettingValue) internal settingValues;\n\n\t/**\n\t * @dev Constructor function\n\t */\n\tconstructor(address _nameTAOPositionAddress) public {\n\t\tsetNameTAOPositionAddress(_nameTAOPositionAddress);\n\t}\n\n\t/**\n\t * @dev Checks if the calling contract address is The AO\n\t *\t\tOR\n\t *\t\tIf The AO is set to a Name/TAO, then check if calling address is the Advocate\n\t */\n\tmodifier onlyTheAO {\n\t\trequire (AOLibrary.isTheAO(msg.sender, theAO, nameTAOPositionAddress));\n\t\t_;\n\t}\n\n\t/***** The AO ONLY METHODS *****/\n\t/**\n\t * @dev Transfer ownership of The AO to new address\n\t * @param _theAO The new address to be transferred\n\t */\n\tfunction transferOwnership(address _theAO) public onlyTheAO {\n\t\trequire (_theAO != address(0));\n\t\ttheAO = _theAO;\n\t}\n\n\t/**\n\t * @dev Whitelist `_account` address to transact on behalf of others\n\t * @param _account The address to whitelist\n\t * @param _whitelist Either to whitelist or not\n\t */\n\tfunction setWhitelist(address _account, bool _whitelist) public onlyTheAO {\n\t\trequire (_account != address(0));\n\t\twhitelist[_account] = _whitelist;\n\t}\n\n\t/**\n\t * @dev The AO set the NameTAOPosition Address\n\t * @param _nameTAOPositionAddress The address of NameTAOPosition\n\t */\n\tfunction setNameTAOPositionAddress(address _nameTAOPositionAddress) public onlyTheAO {\n\t\trequire (_nameTAOPositionAddress != address(0));\n\t\tnameTAOPositionAddress = _nameTAOPositionAddress;\n\t}\n\n\t/***** PUBLIC METHODS *****/\n\t/**\n\t * @dev Set pending value\n\t * @param _settingId The ID of the setting\n\t * @param _addressValue The address value to be set\n\t * @param _boolValue The bool value to be set\n\t * @param _bytesValue The bytes32 value to be set\n\t * @param _stringValue The string value to be set\n\t * @param _uintValue The uint256 value to be set\n\t * @return true on success\n\t */\n\tfunction setPendingValue(uint256 _settingId,\n\t\taddress _addressValue,\n\t\tbool _boolValue,\n\t\tbytes32 _bytesValue,\n\t\tstring calldata _stringValue,\n\t\tuint256 _uintValue) external inWhitelist returns (bool) {\n\t\tPendingValue storage _pendingValue = pendingValues[_settingId];\n\t\t_pendingValue.addressValue = _addressValue;\n\t\t_pendingValue.boolValue = _boolValue;\n\t\t_pendingValue.bytesValue = _bytesValue;\n\t\t_pendingValue.stringValue = _stringValue;\n\t\t_pendingValue.uintValue = _uintValue;\n\t\treturn true;\n\t}\n\n\t/**\n\t * @dev Move value from pending to setting\n\t * @param _settingId The ID of the setting\n\t * @return true on success\n\t */\n\tfunction movePendingToSetting(uint256 _settingId) external inWhitelist returns (bool) {\n\t\tPendingValue memory _pendingValue = pendingValues[_settingId];\n\t\tSettingValue storage _settingValue = settingValues[_settingId];\n\t\t_settingValue.addressValue = _pendingValue.addressValue;\n\t\t_settingValue.boolValue = _pendingValue.boolValue;\n\t\t_settingValue.bytesValue = _pendingValue.bytesValue;\n\t\t_settingValue.stringValue = _pendingValue.stringValue;\n\t\t_settingValue.uintValue = _pendingValue.uintValue;\n\t\tdelete pendingValues[_settingId];\n\t\treturn true;\n\t}\n\n\t/**\n\t * @dev Get setting value given a setting ID\n\t * @return The address setting value\n\t * @return The bool setting value\n\t * @return The bytes32 setting value\n\t * @return The string setting value\n\t * @return The uint256 setting value\n\t */\n\tfunction settingValue(uint256 _settingId) external view returns (address, bool, bytes32, string memory, uint256) {\n\t\tSettingValue memory _settingValue = settingValues[_settingId];\n\t\treturn (\n\t\t\t_settingValue.addressValue,\n\t\t\t_settingValue.boolValue,\n\t\t\t_settingValue.bytesValue,\n\t\t\t_settingValue.stringValue,\n\t\t\t_settingValue.uintValue\n\t\t);\n\t}\n\n\t/**\n\t * @dev Get pending value given a setting ID\n\t * @return The address pending value\n\t * @return The bool pending value\n\t * @return The bytes32 pending value\n\t * @return The string pending value\n\t * @return The uint256 pending value\n\t */\n\tfunction pendingValue(uint256 _settingId) public view returns (address, bool, bytes32, string memory, uint256) {\n\t\tPendingValue memory _pendingValue = pendingValues[_settingId];\n\t\treturn (\n\t\t\t_pendingValue.addressValue,\n\t\t\t_pendingValue.boolValue,\n\t\t\t_pendingValue.bytesValue,\n\t\t\t_pendingValue.stringValue,\n\t\t\t_pendingValue.uintValue\n\t\t);\n\t}\n}\n",
  "sourcePath": "/usr/local/ao-contracts/contracts/AOSettingValue.sol",
  "compiler": {
    "name": "solc",
    "version": "0.5.6+commit.b259423e.Emscripten.clang"
  },
  "schemaVersion": "3.0.2",
  "updatedAt": "2019-03-26T16:54:30.920Z",
  "devdoc": {
    "methods": {
      "constructor": {
        "details": "Constructor function"
      },
      "movePendingToSetting(uint256)": {
        "details": "Move value from pending to setting",
        "params": {
          "_settingId": "The ID of the setting"
        },
        "return": "true on success"
      },
      "pendingValue(uint256)": {
        "details": "Get pending value given a setting ID",
        "return": "The address pending valueThe bool pending valueThe bytes32 pending valueThe string pending valueThe uint256 pending value"
      },
      "setNameTAOPositionAddress(address)": {
        "details": "The AO set the NameTAOPosition Address",
        "params": {
          "_nameTAOPositionAddress": "The address of NameTAOPosition"
        }
      },
      "setPendingValue(uint256,address,bool,bytes32,string,uint256)": {
        "details": "Set pending value",
        "params": {
          "_addressValue": "The address value to be set",
          "_boolValue": "The bool value to be set",
          "_bytesValue": "The bytes32 value to be set",
          "_settingId": "The ID of the setting",
          "_stringValue": "The string value to be set",
          "_uintValue": "The uint256 value to be set"
        },
        "return": "true on success"
      },
      "setWhitelist(address,bool)": {
        "details": "Whitelist `_account` address to transact on behalf of others",
        "params": {
          "_account": "The address to whitelist",
          "_whitelist": "Either to whitelist or not"
        }
      },
      "settingValue(uint256)": {
        "details": "Get setting value given a setting ID",
        "return": "The address setting valueThe bool setting valueThe bytes32 setting valueThe string setting valueThe uint256 setting value"
      },
      "transferOwnership(address)": {
        "details": "Transfer ownership of The AO to new address",
        "params": {
          "_theAO": "The new address to be transferred"
        }
      }
    },
    "title": "AOSettingValue "
  },
  "userdoc": {
    "methods": {}
  }
}