{
	"contractName": "AOSetting",
	"abi": [
		{
			"constant": true,
			"inputs": [
				{
					"name": "",
					"type": "bytes32"
				}
			],
			"name": "updateHashLookup",
			"outputs": [
				{
					"name": "",
					"type": "uint256"
				}
			],
			"payable": false,
			"stateMutability": "view",
			"type": "function"
		},
		{
			"constant": true,
			"inputs": [],
			"name": "aoAddressSettingAddress",
			"outputs": [
				{
					"name": "",
					"type": "address"
				}
			],
			"payable": false,
			"stateMutability": "view",
			"type": "function"
		},
		{
			"constant": true,
			"inputs": [],
			"name": "aoStringSettingAddress",
			"outputs": [
				{
					"name": "",
					"type": "address"
				}
			],
			"payable": false,
			"stateMutability": "view",
			"type": "function"
		},
		{
			"constant": true,
			"inputs": [],
			"name": "aoBytesSettingAddress",
			"outputs": [
				{
					"name": "",
					"type": "address"
				}
			],
			"payable": false,
			"stateMutability": "view",
			"type": "function"
		},
		{
			"constant": true,
			"inputs": [],
			"name": "aoBoolSettingAddress",
			"outputs": [
				{
					"name": "",
					"type": "address"
				}
			],
			"payable": false,
			"stateMutability": "view",
			"type": "function"
		},
		{
			"constant": true,
			"inputs": [],
			"name": "totalSetting",
			"outputs": [
				{
					"name": "",
					"type": "uint256"
				}
			],
			"payable": false,
			"stateMutability": "view",
			"type": "function"
		},
		{
			"constant": true,
			"inputs": [],
			"name": "aoUintSettingAddress",
			"outputs": [
				{
					"name": "",
					"type": "address"
				}
			],
			"payable": false,
			"stateMutability": "view",
			"type": "function"
		},
		{
			"constant": true,
			"inputs": [],
			"name": "aoSettingAttributeAddress",
			"outputs": [
				{
					"name": "",
					"type": "address"
				}
			],
			"payable": false,
			"stateMutability": "view",
			"type": "function"
		},
		{
			"inputs": [
				{
					"name": "_nameFactoryAddress",
					"type": "address"
				},
				{
					"name": "_aoSettingAttributeAddress",
					"type": "address"
				},
				{
					"name": "_aoUintSettingAddress",
					"type": "address"
				},
				{
					"name": "_aoBoolSettingAddress",
					"type": "address"
				},
				{
					"name": "_aoAddressSettingAddress",
					"type": "address"
				},
				{
					"name": "_aoBytesSettingAddress",
					"type": "address"
				},
				{
					"name": "_aoStringSettingAddress",
					"type": "address"
				}
			],
			"payable": false,
			"stateMutability": "nonpayable",
			"type": "constructor"
		},
		{
			"anonymous": false,
			"inputs": [
				{
					"indexed": true,
					"name": "settingId",
					"type": "uint256"
				},
				{
					"indexed": true,
					"name": "creatorNameId",
					"type": "address"
				},
				{
					"indexed": false,
					"name": "creatorTAOId",
					"type": "address"
				},
				{
					"indexed": false,
					"name": "associatedTAOId",
					"type": "address"
				},
				{
					"indexed": false,
					"name": "settingName",
					"type": "string"
				},
				{
					"indexed": false,
					"name": "settingType",
					"type": "uint8"
				},
				{
					"indexed": false,
					"name": "associatedTAOSettingId",
					"type": "bytes32"
				},
				{
					"indexed": false,
					"name": "creatorTAOSettingId",
					"type": "bytes32"
				}
			],
			"name": "SettingCreation",
			"type": "event"
		},
		{
			"anonymous": false,
			"inputs": [
				{
					"indexed": true,
					"name": "settingId",
					"type": "uint256"
				},
				{
					"indexed": false,
					"name": "associatedTAOId",
					"type": "address"
				},
				{
					"indexed": false,
					"name": "associatedTAOAdvocate",
					"type": "address"
				},
				{
					"indexed": false,
					"name": "approved",
					"type": "bool"
				}
			],
			"name": "ApproveSettingCreation",
			"type": "event"
		},
		{
			"anonymous": false,
			"inputs": [
				{
					"indexed": true,
					"name": "settingId",
					"type": "uint256"
				},
				{
					"indexed": false,
					"name": "creatorTAOId",
					"type": "address"
				},
				{
					"indexed": false,
					"name": "creatorTAOAdvocate",
					"type": "address"
				}
			],
			"name": "FinalizeSettingCreation",
			"type": "event"
		},
		{
			"anonymous": false,
			"inputs": [
				{
					"indexed": true,
					"name": "settingId",
					"type": "uint256"
				},
				{
					"indexed": true,
					"name": "updateAdvocateNameId",
					"type": "address"
				},
				{
					"indexed": false,
					"name": "proposalTAOId",
					"type": "address"
				}
			],
			"name": "SettingUpdate",
			"type": "event"
		},
		{
			"anonymous": false,
			"inputs": [
				{
					"indexed": true,
					"name": "settingId",
					"type": "uint256"
				},
				{
					"indexed": false,
					"name": "proposalTAOId",
					"type": "address"
				},
				{
					"indexed": false,
					"name": "proposalTAOAdvocate",
					"type": "address"
				},
				{
					"indexed": false,
					"name": "approved",
					"type": "bool"
				}
			],
			"name": "ApproveSettingUpdate",
			"type": "event"
		},
		{
			"anonymous": false,
			"inputs": [
				{
					"indexed": true,
					"name": "settingId",
					"type": "uint256"
				},
				{
					"indexed": false,
					"name": "associatedTAOId",
					"type": "address"
				},
				{
					"indexed": false,
					"name": "associatedTAOAdvocate",
					"type": "address"
				}
			],
			"name": "FinalizeSettingUpdate",
			"type": "event"
		},
		{
			"anonymous": false,
			"inputs": [
				{
					"indexed": true,
					"name": "settingId",
					"type": "uint256"
				},
				{
					"indexed": true,
					"name": "creatorNameId",
					"type": "address"
				},
				{
					"indexed": false,
					"name": "creatorTAOId",
					"type": "address"
				},
				{
					"indexed": false,
					"name": "associatedTAOId",
					"type": "address"
				},
				{
					"indexed": false,
					"name": "newSettingId",
					"type": "uint256"
				},
				{
					"indexed": false,
					"name": "newSettingContractAddress",
					"type": "address"
				},
				{
					"indexed": false,
					"name": "associatedTAOSettingDeprecationId",
					"type": "bytes32"
				},
				{
					"indexed": false,
					"name": "creatorTAOSettingDeprecationId",
					"type": "bytes32"
				}
			],
			"name": "SettingDeprecation",
			"type": "event"
		},
		{
			"anonymous": false,
			"inputs": [
				{
					"indexed": true,
					"name": "settingId",
					"type": "uint256"
				},
				{
					"indexed": false,
					"name": "associatedTAOId",
					"type": "address"
				},
				{
					"indexed": false,
					"name": "associatedTAOAdvocate",
					"type": "address"
				},
				{
					"indexed": false,
					"name": "approved",
					"type": "bool"
				}
			],
			"name": "ApproveSettingDeprecation",
			"type": "event"
		},
		{
			"anonymous": false,
			"inputs": [
				{
					"indexed": true,
					"name": "settingId",
					"type": "uint256"
				},
				{
					"indexed": false,
					"name": "creatorTAOId",
					"type": "address"
				},
				{
					"indexed": false,
					"name": "creatorTAOAdvocate",
					"type": "address"
				}
			],
			"name": "FinalizeSettingDeprecation",
			"type": "event"
		},
		{
			"constant": true,
			"inputs": [
				{
					"name": "_settingName",
					"type": "string"
				},
				{
					"name": "_associatedTAOId",
					"type": "address"
				}
			],
			"name": "settingNameExist",
			"outputs": [
				{
					"name": "",
					"type": "bool"
				}
			],
			"payable": false,
			"stateMutability": "view",
			"type": "function"
		},
		{
			"constant": false,
			"inputs": [
				{
					"name": "_settingName",
					"type": "string"
				},
				{
					"name": "_value",
					"type": "uint256"
				},
				{
					"name": "_creatorTAOId",
					"type": "address"
				},
				{
					"name": "_associatedTAOId",
					"type": "address"
				},
				{
					"name": "_extraData",
					"type": "string"
				}
			],
			"name": "addUintSetting",
			"outputs": [],
			"payable": false,
			"stateMutability": "nonpayable",
			"type": "function"
		},
		{
			"constant": false,
			"inputs": [
				{
					"name": "_settingName",
					"type": "string"
				},
				{
					"name": "_value",
					"type": "bool"
				},
				{
					"name": "_creatorTAOId",
					"type": "address"
				},
				{
					"name": "_associatedTAOId",
					"type": "address"
				},
				{
					"name": "_extraData",
					"type": "string"
				}
			],
			"name": "addBoolSetting",
			"outputs": [],
			"payable": false,
			"stateMutability": "nonpayable",
			"type": "function"
		},
		{
			"constant": false,
			"inputs": [
				{
					"name": "_settingName",
					"type": "string"
				},
				{
					"name": "_value",
					"type": "address"
				},
				{
					"name": "_creatorTAOId",
					"type": "address"
				},
				{
					"name": "_associatedTAOId",
					"type": "address"
				},
				{
					"name": "_extraData",
					"type": "string"
				}
			],
			"name": "addAddressSetting",
			"outputs": [],
			"payable": false,
			"stateMutability": "nonpayable",
			"type": "function"
		},
		{
			"constant": false,
			"inputs": [
				{
					"name": "_settingName",
					"type": "string"
				},
				{
					"name": "_value",
					"type": "bytes32"
				},
				{
					"name": "_creatorTAOId",
					"type": "address"
				},
				{
					"name": "_associatedTAOId",
					"type": "address"
				},
				{
					"name": "_extraData",
					"type": "string"
				}
			],
			"name": "addBytesSetting",
			"outputs": [],
			"payable": false,
			"stateMutability": "nonpayable",
			"type": "function"
		},
		{
			"constant": false,
			"inputs": [
				{
					"name": "_settingName",
					"type": "string"
				},
				{
					"name": "_value",
					"type": "string"
				},
				{
					"name": "_creatorTAOId",
					"type": "address"
				},
				{
					"name": "_associatedTAOId",
					"type": "address"
				},
				{
					"name": "_extraData",
					"type": "string"
				}
			],
			"name": "addStringSetting",
			"outputs": [],
			"payable": false,
			"stateMutability": "nonpayable",
			"type": "function"
		},
		{
			"constant": false,
			"inputs": [
				{
					"name": "_settingId",
					"type": "uint256"
				},
				{
					"name": "_approved",
					"type": "bool"
				}
			],
			"name": "approveSettingCreation",
			"outputs": [],
			"payable": false,
			"stateMutability": "nonpayable",
			"type": "function"
		},
		{
			"constant": false,
			"inputs": [
				{
					"name": "_settingId",
					"type": "uint256"
				}
			],
			"name": "finalizeSettingCreation",
			"outputs": [],
			"payable": false,
			"stateMutability": "nonpayable",
			"type": "function"
		},
		{
			"constant": false,
			"inputs": [
				{
					"name": "_settingId",
					"type": "uint256"
				},
				{
					"name": "_newValue",
					"type": "uint256"
				},
				{
					"name": "_proposalTAOId",
					"type": "address"
				},
				{
					"name": "_updateSignature",
					"type": "string"
				},
				{
					"name": "_extraData",
					"type": "string"
				}
			],
			"name": "updateUintSetting",
			"outputs": [],
			"payable": false,
			"stateMutability": "nonpayable",
			"type": "function"
		},
		{
			"constant": false,
			"inputs": [
				{
					"name": "_settingId",
					"type": "uint256"
				},
				{
					"name": "_newValue",
					"type": "bool"
				},
				{
					"name": "_proposalTAOId",
					"type": "address"
				},
				{
					"name": "_updateSignature",
					"type": "string"
				},
				{
					"name": "_extraData",
					"type": "string"
				}
			],
			"name": "updateBoolSetting",
			"outputs": [],
			"payable": false,
			"stateMutability": "nonpayable",
			"type": "function"
		},
		{
			"constant": false,
			"inputs": [
				{
					"name": "_settingId",
					"type": "uint256"
				},
				{
					"name": "_newValue",
					"type": "address"
				},
				{
					"name": "_proposalTAOId",
					"type": "address"
				},
				{
					"name": "_updateSignature",
					"type": "string"
				},
				{
					"name": "_extraData",
					"type": "string"
				}
			],
			"name": "updateAddressSetting",
			"outputs": [],
			"payable": false,
			"stateMutability": "nonpayable",
			"type": "function"
		},
		{
			"constant": false,
			"inputs": [
				{
					"name": "_settingId",
					"type": "uint256"
				},
				{
					"name": "_newValue",
					"type": "bytes32"
				},
				{
					"name": "_proposalTAOId",
					"type": "address"
				},
				{
					"name": "_updateSignature",
					"type": "string"
				},
				{
					"name": "_extraData",
					"type": "string"
				}
			],
			"name": "updateBytesSetting",
			"outputs": [],
			"payable": false,
			"stateMutability": "nonpayable",
			"type": "function"
		},
		{
			"constant": false,
			"inputs": [
				{
					"name": "_settingId",
					"type": "uint256"
				},
				{
					"name": "_newValue",
					"type": "string"
				},
				{
					"name": "_proposalTAOId",
					"type": "address"
				},
				{
					"name": "_updateSignature",
					"type": "string"
				},
				{
					"name": "_extraData",
					"type": "string"
				}
			],
			"name": "updateStringSetting",
			"outputs": [],
			"payable": false,
			"stateMutability": "nonpayable",
			"type": "function"
		},
		{
			"constant": false,
			"inputs": [
				{
					"name": "_settingId",
					"type": "uint256"
				},
				{
					"name": "_approved",
					"type": "bool"
				}
			],
			"name": "approveSettingUpdate",
			"outputs": [],
			"payable": false,
			"stateMutability": "nonpayable",
			"type": "function"
		},
		{
			"constant": false,
			"inputs": [
				{
					"name": "_settingId",
					"type": "uint256"
				}
			],
			"name": "finalizeSettingUpdate",
			"outputs": [],
			"payable": false,
			"stateMutability": "nonpayable",
			"type": "function"
		},
		{
			"constant": false,
			"inputs": [
				{
					"name": "_settingId",
					"type": "uint256"
				},
				{
					"name": "_newSettingId",
					"type": "uint256"
				},
				{
					"name": "_newSettingContractAddress",
					"type": "address"
				},
				{
					"name": "_creatorTAOId",
					"type": "address"
				},
				{
					"name": "_associatedTAOId",
					"type": "address"
				}
			],
			"name": "addSettingDeprecation",
			"outputs": [],
			"payable": false,
			"stateMutability": "nonpayable",
			"type": "function"
		},
		{
			"constant": false,
			"inputs": [
				{
					"name": "_settingId",
					"type": "uint256"
				},
				{
					"name": "_approved",
					"type": "bool"
				}
			],
			"name": "approveSettingDeprecation",
			"outputs": [],
			"payable": false,
			"stateMutability": "nonpayable",
			"type": "function"
		},
		{
			"constant": false,
			"inputs": [
				{
					"name": "_settingId",
					"type": "uint256"
				}
			],
			"name": "finalizeSettingDeprecation",
			"outputs": [],
			"payable": false,
			"stateMutability": "nonpayable",
			"type": "function"
		},
		{
			"constant": true,
			"inputs": [
				{
					"name": "_associatedTAOId",
					"type": "address"
				},
				{
					"name": "_settingName",
					"type": "string"
				}
			],
			"name": "getSettingIdByTAOName",
			"outputs": [
				{
					"name": "",
					"type": "uint256"
				}
			],
			"payable": false,
			"stateMutability": "view",
			"type": "function"
		},
		{
			"constant": true,
			"inputs": [
				{
					"name": "_settingId",
					"type": "uint256"
				}
			],
			"name": "getSettingValuesById",
			"outputs": [
				{
					"name": "",
					"type": "uint256"
				},
				{
					"name": "",
					"type": "bool"
				},
				{
					"name": "",
					"type": "address"
				},
				{
					"name": "",
					"type": "bytes32"
				},
				{
					"name": "",
					"type": "string"
				}
			],
			"payable": false,
			"stateMutability": "view",
			"type": "function"
		},
		{
			"constant": true,
			"inputs": [
				{
					"name": "_taoId",
					"type": "address"
				},
				{
					"name": "_settingName",
					"type": "string"
				}
			],
			"name": "getSettingValuesByTAOName",
			"outputs": [
				{
					"name": "",
					"type": "uint256"
				},
				{
					"name": "",
					"type": "bool"
				},
				{
					"name": "",
					"type": "address"
				},
				{
					"name": "",
					"type": "bytes32"
				},
				{
					"name": "",
					"type": "string"
				}
			],
			"payable": false,
			"stateMutability": "view",
			"type": "function"
		}
	],
	"bytecode": "0x608060405234801561001057600080fd5b5060405160e080620056c083398101604090815281516020830151918301516060840151608085015160a086015160c09096015160008054600160a060020a03978816600160a060020a03199182168117909255600180549689169682168717905560028054958916958216861790556003805494891694821685179055600480549989169982168a17905560058054938916938216841790556006805498909716978116979097179095556007805487169095179094556008805486169093179092556009805485169091179055600a805484169091179055600b80548316909317909255600c805490911690911790556155ae80620001126000396000f30060806040526004361061015b5763ffffffff60e060020a600035041663113d893881146101605780631b2dbff6146102165780631f12411614610240578063229906b31461025d57806332f896af146103465780633bc5a0b7146103ad5780633cb603a1146104575780633d694f301461048857806341a76287146104a5578063420911371461054f578063438630451461063f5780634e626011146106f35780634efa45a1146107085780635ef17eff146107c057806361f618671461088a5780637065bedc146108bd578063788e31bf146109245780637a713023146109da5780638f23747d146109f25780639525f38214610a075780639793714f14610a1f5780639a44690e14610a3c5780639aa0597514610a54578063b83c298e14610a69578063bb2445a814610b15578063bdfd625714610b2a578063c3f52e1414610ba2578063c4b62bbb14610bb7578063cf8477cf14610c66575b600080fd5b34801561016c57600080fd5b506040805160206004803580820135601f810184900484028501840190955284845261021494369492936024939284019190819084018382808284375050604080516020601f60608a01358b0180359182018390048302840183018552818452989b8a359b600160a060020a03848d013581169c96870135169a919950975060809094019550919350918201918190840183828082843750949750610c7b9650505050505050565b005b34801561022257600080fd5b5061022e600435610f8b565b60408051918252519081900360200190f35b34801561024c57600080fd5b506102146004356024351515610f9d565b34801561026957600080fd5b5060408051602060046024803582810135601f810185900485028601850190965285855261021495833595369560449491939091019190819084018382808284375050604080516020601f818a01358b0180359182018390048302840183018552818452989b600160a060020a038b35169b909a90999401975091955091820193509150819084018382808284375050604080516020601f89358b018035918201839004830284018301909452808352979a9998810197919650918201945092508291508401838280828437509497506112979650505050505050565b34801561035257600080fd5b5060408051602060046024803582810135601f810185900485028601850190965285855261022e958335600160a060020a031695369560449491939091019190819084018382808284375094975061196d9650505050505050565b3480156103b957600080fd5b50604080516020601f606435600481810135928301849004840285018401909552818452610214948035946024803595600160a060020a0360443516953695608494930191819084018382808284375050604080516020601f89358b018035918201839004830284018301909452808352979a999881019791965091820194509250829150840183828082843750949750611aa39650505050505050565b34801561046357600080fd5b5061046c611eeb565b60408051600160a060020a039092168252519081900360200190f35b34801561049457600080fd5b506102146004356024351515611efa565b3480156104b157600080fd5b50604080516020601f606435600481810135928301849004840285018401909552818452610214948035946024803595600160a060020a0360443516953695608494930191819084018382808284375050604080516020601f89358b018035918201839004830284018301909452808352979a9998810197919650918201945092508291508401838280828437509497506123279650505050505050565b34801561055b57600080fd5b506040805160206004803580820135601f810184900484028501840190955284845261021494369492936024939284019190819084018382808284375050604080516020601f89358b018035918201839004830284018301909452808352979a99988101979196509182019450925082915084018382808284375050604080516020888301358a018035601f8101839004830284018301909452838352979a8935600160a060020a039081169b8b8401359091169a9199909850606090910196509194509081019250819084018382808284375094975061275e9650505050505050565b34801561064b57600080fd5b506040805160206004803580820135601f810184900484028501840190955284845261021494369492936024939284019190819084018382808284375050604080516020601f60608a01358b0180359182018390048302840183018552818452989b8a359b600160a060020a03848d013581169c96870135169a919950975060809094019550919350918201918190840183828082843750949750612ac59650505050505050565b3480156106ff57600080fd5b5061046c612dc9565b34801561071457600080fd5b506040805160206004803580820135601f810184900484028501840190955284845261021494369492936024939284019190819084018382808284375050604080516020601f60608a01358b0180359182018390048302840183018552818452989b600160a060020a038b3581169c848d013582169c968701359091169a919950975060809094019550919350918201918190840183828082843750949750612dd89650505050505050565b3480156107cc57600080fd5b506107d86004356130dd565b604051808681526020018515151515815260200184600160a060020a0316600160a060020a03168152602001836000191660001916815260200180602001828103825283818151815260200191508051906020019080838360005b8381101561084b578181015183820152602001610833565b50505050905090810190601f1680156108785780820380516001836020036101000a031916815260200191505b50965050505050505060405180910390f35b34801561089657600080fd5b50610214600435602435600160a060020a0360443581169060643581169060843516613255565b3480156108c957600080fd5b5060408051602060046024803582810135601f81018590048502860185019096528585526107d8958335600160a060020a03169536956044949193909101919081908401838280828437509497506136409650505050505050565b34801561093057600080fd5b506040805160206004803580820135601f810184900484028501840190955284845261021494369492936024939284019190819084018382808284375050604080516020601f60608a01358b0180359182018390048302840183018552818452989b8a3515159b600160a060020a03848d013581169c96870135169a9199509750608090940195509193509182019181908401838280828437509497506137cd9650505050505050565b3480156109e657600080fd5b50610214600435613ad2565b3480156109fe57600080fd5b5061046c613cdf565b348015610a1357600080fd5b50610214600435613cee565b348015610a2b57600080fd5b506102146004356024351515613fef565b348015610a4857600080fd5b5061021460043561420e565b348015610a6057600080fd5b5061046c61450f565b348015610a7557600080fd5b50604080516020601f6064356004818101359283018490048402850184019095528184526102149480359460248035151595600160a060020a0360443516953695608494930191819084018382808284375050604080516020601f89358b018035918201839004830284018301909452808352979a99988101979196509182019450925082915084018382808284375094975061451e9650505050505050565b348015610b2157600080fd5b5061022e6149a2565b348015610b3657600080fd5b506040805160206004803580820135601f8101849004840285018401909552848452610b8e94369492936024939284019190819084018382808284375094975050509235600160a060020a031693506149a892505050565b604080519115158252519081900360200190f35b348015610bae57600080fd5b5061046c614ace565b348015610bc357600080fd5b50604080516020601f60643560048181013592830184900484028501840190955281845261021494803594600160a060020a036024803582169660443590921695369560849493920191819084018382808284375050604080516020601f89358b018035918201839004830284018301909452808352979a999881019791965091820194509250829150840183828082843750949750614add9650505050505050565b348015610c7257600080fd5b5061046c614f45565b8273__AOLibrary_____________________________632fca5414826040518263ffffffff1660e060020a0281526004018082600160a060020a0316600160a060020a0316815260200191505060206040518083038186803b158015610ce057600080fd5b505af4158015610cf4573d6000803e3d6000fd5b505050506040513d6020811015610d0a57600080fd5b50511515610d1757600080fd5b8273__AOLibrary_____________________________632fca5414826040518263ffffffff1660e060020a0281526004018082600160a060020a0316600160a060020a0316815260200191505060206040518083038186803b158015610d7c57600080fd5b505af4158015610d90573d6000803e3d6000fd5b505050506040513d6020811015610da657600080fd5b50511515610db357600080fd5b8684610dbf82826149a8565b15610dc957600080fd5b6040805160e360020a631ef8075d028152336004820152600160a060020a03891660248201529051889173__AOLibrary_____________________________9163f7c03ae891604480820192602092909190829003018186803b158015610e2f57600080fd5b505af4158015610e43573d6000803e3d6000fd5b505050506040513d6020811015610e5957600080fd5b50511515610e6657600080fd5b600d805460010190819055600b54604080517f316293880000000000000000000000000000000000000000000000000000000081526004810193909352602483018c905251600160a060020a0390911691633162938891604480830192600092919082900301818387803b158015610edd57600080fd5b505af1158015610ef1573d6000803e3d6000fd5b50506006546040805160e060020a63029b7d530281523360048201529051610f7f9450600160a060020a03909216925063029b7d539160248083019260209291908290030181600087803b158015610f4857600080fd5b505af1158015610f5c573d6000803e3d6000fd5b505050506040513d6020811015610f7257600080fd5b505160048c8b8b8b614f54565b50505050505050505050565b600f6020526000908152604090205481565b6006546040805160e060020a63029b7d5302815233600482015290516000928392600160a060020a039091169163029b7d539160248082019260209290919082900301818787803b158015610ff157600080fd5b505af1158015611005573d6000803e3d6000fd5b505050506040513d602081101561101b57600080fd5b5051600754604080517fad58a7d2000000000000000000000000000000000000000000000000000000008152600481018890529051929450600160a060020a039091169163ad58a7d29160248082019260009290919082900301818387803b15801561108657600080fd5b505af115801561109a573d6000803e3d6000fd5b505050506040513d6000823e601f3d908101601f1916820160405260e08110156110c357600080fd5b8151602083015160408401516060850151608086018051949693959294919392830192916401000000008111156110f957600080fd5b8201602081018481111561110c57600080fd5b815164010000000081118282018710171561112657600080fd5b5050602082015160409092018051919492939164010000000081111561114b57600080fd5b8201602081018481111561115e57600080fd5b815164010000000081118282018710171561117857600080fd5b50509291905050505050509350505050600760009054906101000a9004600160a060020a0316600160a060020a0316635f39fd738584866040518463ffffffff1660e060020a0281526004018084815260200183600160a060020a0316600160a060020a03168152602001821515151581526020019350505050602060405180830381600087803b15801561120c57600080fd5b505af1158015611220573d6000803e3d6000fd5b505050506040513d602081101561123657600080fd5b5051151561124357600080fd5b60408051600160a060020a0380841682528416602082015284151581830152905185917fd1ceffc896374df3ec020f7a5b068a38f909c6833edd2c4fec3716074c07dc7d919081900360600190a250505050565b8273__AOLibrary_____________________________632fca5414826040518263ffffffff1660e060020a0281526004018082600160a060020a0316600160a060020a0316815260200191505060206040518083038186803b1580156112fc57600080fd5b505af4158015611310573d6000803e3d6000fd5b505050506040513d602081101561132657600080fd5b5051151561133357600080fd5b6007546006546040805160e060020a63029b7d530281523360048201529051600160a060020a039384169363a57c0919938b93600593919092169163029b7d539160248083019260209291908290030181600087803b15801561139557600080fd5b505af11580156113a9573d6000803e3d6000fd5b505050506040513d60208110156113bf57600080fd5b505160405160e060020a63ffffffff86160281526004810184815260ff84166024830152600160a060020a0380841660448401528b16606483015260c0608483019081528a5160c48401528a518c938c938c939092909160a481019160e490910190602087019080838360005b8381101561144457818101518382015260200161142c565b50505050905090810190601f1680156114715780820380516001836020036101000a031916815260200191505b50838103825284518152845160209182019186019080838360005b838110156114a457818101518382015260200161148c565b50505050905090810190601f1680156114d15780820380516001836020036101000a031916815260200191505b5098505050505050505050602060405180830381600087803b1580156114f657600080fd5b505af115801561150a573d6000803e3d6000fd5b505050506040513d602081101561152057600080fd5b5051151561152d57600080fd5b600c54604080517f0ce648680000000000000000000000000000000000000000000000000000000081526004810189815260248201928352885160448301528851600160a060020a0390941693630ce64868938b938b9392606490910190602085019080838360005b838110156115ae578181015183820152602001611596565b50505050905090810190601f1680156115db5780820380516001836020036101000a031916815260200191505b509350505050600060405180830381600087803b1580156115fb57600080fd5b505af115801561160f573d6000803e3d6000fd5b5050505085600f60003087600c60009054906101000a9004600160a060020a0316600160a060020a0316639ba535ce8c6040518263ffffffff1660e060020a02815260040180828152602001915050600060405180830381600087803b15801561167857600080fd5b505af115801561168c573d6000803e3d6000fd5b505050506040513d6000823e601f3d908101601f1916820160405260208110156116b557600080fd5b8101908080516401000000008111156116cd57600080fd5b820160208101848111156116e057600080fd5b81516401000000008111828201871017156116fa57600080fd5b50509291905050508a888d6040516020018087600160a060020a0316600160a060020a0316606060020a02815260140186600160a060020a0316600160a060020a0316606060020a02815260140185805190602001908083835b602083106117735780518252601f199092019160209182019101611754565b51815160209384036101000a600019018019909216911617905287519190930192870191508083835b602083106117bb5780518252601f19909201916020918201910161179c565b51815160209384036101000a600019018019909216911617905286519190930192860191508083835b602083106118035780518252601f1990920191602091820191016117e4565b51815160209384036101000a600019018019909216911617905292019384525060408051808503815293820190819052835193985096508695508701935090915081905083835b602083106118695780518252601f19909201916020918201910161184a565b51815160209384036101000a60001901801990921691161790526040805192909401829003909120865285810196909652509283016000908120959095555050600654815160e060020a63029b7d530281523360048201529151600160a060020a039091169363029b7d5393602480850194919392918390030190829087803b1580156118f557600080fd5b505af1158015611909573d6000803e3d6000fd5b505050506040513d602081101561191f57600080fd5b505160408051600160a060020a0387811682529151919092169188917f6b669130d0b3ac9bed9420e1b2bfc22364661b81330a9aa01a1deddf3512d2e09181900360200190a3505050505050565b600061197982846149a8565b151561198457600080fd5b600e600084600160a060020a0316600160a060020a03168152602001908152602001600020600030846040516020018083600160a060020a0316600160a060020a0316606060020a02815260140182805190602001908083835b602083106119fd5780518252601f1990920191602091820191016119de565b6001836020036101000a038019825116818451168082178552505050505050905001925050506040516020818303038152906040526040518082805190602001908083835b60208310611a615780518252601f199092019160209182019101611a42565b51815160209384036101000a60001901801990921691161790526040805192909401829003909120865285019590955292909201600020549695505050505050565b8273__AOLibrary_____________________________632fca5414826040518263ffffffff1660e060020a0281526004018082600160a060020a0316600160a060020a0316815260200191505060206040518083038186803b158015611b0857600080fd5b505af4158015611b1c573d6000803e3d6000fd5b505050506040513d6020811015611b3257600080fd5b50511515611b3f57600080fd5b6007546006546040805160e060020a63029b7d53028152336004828101919091529151600160a060020a039485169463a57c0919948c949391169163029b7d53916024808201926020929091908290030181600087803b158015611ba257600080fd5b505af1158015611bb6573d6000803e3d6000fd5b505050506040513d6020811015611bcc57600080fd5b505160405160e060020a63ffffffff86160281526004810184815260ff84166024830152600160a060020a0380841660448401528b16606483015260c0608483019081528a5160c48401528a518c938c938c939092909160a481019160e490910190602087019080838360005b83811015611c51578181015183820152602001611c39565b50505050905090810190601f168015611c7e5780820380516001836020036101000a031916815260200191505b50838103825284518152845160209182019186019080838360005b83811015611cb1578181015183820152602001611c99565b50505050905090810190601f168015611cde5780820380516001836020036101000a031916815260200191505b5098505050505050505050602060405180830381600087803b158015611d0357600080fd5b505af1158015611d17573d6000803e3d6000fd5b505050506040513d6020811015611d2d57600080fd5b50511515611d3a57600080fd5b600b54604080517f3162938800000000000000000000000000000000000000000000000000000000815260048101899052602481018890529051600160a060020a039092169163316293889160448082019260009290919082900301818387803b158015611da757600080fd5b505af1158015611dbb573d6000803e3d6000fd5b5050505085600f60003087600b60009054906101000a9004600160a060020a0316600160a060020a0316639ba535ce8c6040518263ffffffff1660e060020a02815260040180828152602001915050602060405180830381600087803b158015611e2457600080fd5b505af1158015611e38573d6000803e3d6000fd5b505050506040513d6020811015611e4e57600080fd5b81019080805190602001909291905050508a888d6040516020018087600160a060020a0316600160a060020a0316606060020a02815260140186600160a060020a0316600160a060020a0316606060020a028152601401856000191660001916815260200184600019166000191681526020018380519060200190808383602083106118035780518252601f1990920191602091820191016117e4565b600354600160a060020a031681565b6006546040805160e060020a63029b7d5302815233600482015290516000928392606092600160a060020a039092169163029b7d539160248082019260209290919082900301818887803b158015611f5157600080fd5b505af1158015611f65573d6000803e3d6000fd5b505050506040513d6020811015611f7b57600080fd5b5051600754604080517f2a82fdbd00000000000000000000000000000000000000000000000000000000815260048101899052600160a060020a03808516602483015288151560448301529151939650911691632a82fdbd916064808201926020929091908290030181600087803b158015611ff657600080fd5b505af115801561200a573d6000803e3d6000fd5b505050506040513d602081101561202057600080fd5b5051151561202d57600080fd5b600754604080517f81f3e897000000000000000000000000000000000000000000000000000000008152600481018890529051600160a060020a03909216916381f3e8979160248082019260009290919082900301818387803b15801561209357600080fd5b505af11580156120a7573d6000803e3d6000fd5b505050506040513d6000823e601f3d908101601f191682016040526101408110156120d157600080fd5b81516020830151604084015160608501516080860180519496939592949193928301929164010000000081111561210757600080fd5b8201602081018481111561211a57600080fd5b815164010000000081118282018710171561213457600080fd5b5050602082015160408301516060840151608085015160a0909501805194979396929591949193929164010000000081111561216f57600080fd5b8201602081018481111561218257600080fd5b815164010000000081118282018710171561219c57600080fd5b50509291905050505050505050945094505050508315156122d257600e600083600160a060020a0316600160a060020a03168152602001908152602001600020600030836040516020018083600160a060020a0316600160a060020a0316606060020a02815260140182805190602001908083835b602083106122305780518252601f199092019160209182019101612211565b6001836020036101000a038019825116818451168082178552505050505050905001925050506040516020818303038152906040526040518082805190602001908083835b602083106122945780518252601f199092019160209182019101612275565b51815160209384036101000a600019018019909216911617905260408051929094018290039091208652850195909552929092016000908120555050505b60408051600160a060020a0380851682528516602082015285151581830152905186917f88777193beb258cd3af58ac99deaac6fe1e4fd4079ce3085aa04e27c153c241a919081900360600190a25050505050565b8273__AOLibrary_____________________________632fca5414826040518263ffffffff1660e060020a0281526004018082600160a060020a0316600160a060020a0316815260200191505060206040518083038186803b15801561238c57600080fd5b505af41580156123a0573d6000803e3d6000fd5b505050506040513d60208110156123b657600080fd5b505115156123c357600080fd5b6007546006546040805160e060020a63029b7d530281523360048201529051600160a060020a039384169363a57c0919938b93600193919092169163029b7d539160248083019260209291908290030181600087803b15801561242557600080fd5b505af1158015612439573d6000803e3d6000fd5b505050506040513d602081101561244f57600080fd5b505160405160e060020a63ffffffff86160281526004810184815260ff84166024830152600160a060020a0380841660448401528b16606483015260c0608483019081528a5160c48401528a518c938c938c939092909160a481019160e490910190602087019080838360005b838110156124d45781810151838201526020016124bc565b50505050905090810190601f1680156125015780820380516001836020036101000a031916815260200191505b50838103825284518152845160209182019186019080838360005b8381101561253457818101518382015260200161251c565b50505050905090810190601f1680156125615780820380516001836020036101000a031916815260200191505b5098505050505050505050602060405180830381600087803b15801561258657600080fd5b505af115801561259a573d6000803e3d6000fd5b505050506040513d60208110156125b057600080fd5b505115156125bd57600080fd5b600854604080517fb238724b00000000000000000000000000000000000000000000000000000000815260048101899052602481018890529051600160a060020a039092169163b238724b9160448082019260009290919082900301818387803b15801561262a57600080fd5b505af115801561263e573d6000803e3d6000fd5b5050505085600f60003087600860009054906101000a9004600160a060020a0316600160a060020a0316639ba535ce8c6040518263ffffffff1660e060020a02815260040180828152602001915050602060405180830381600087803b1580156126a757600080fd5b505af11580156126bb573d6000803e3d6000fd5b505050506040513d60208110156126d157600080fd5b81019080805190602001909291905050508a888d6040516020018087600160a060020a0316600160a060020a0316606060020a02815260140186600160a060020a0316600160a060020a0316606060020a0281526014018581526020018481526020018380519060200190808383602083106118035780518252601f1990920191602091820191016117e4565b8273__AOLibrary_____________________________632fca5414826040518263ffffffff1660e060020a0281526004018082600160a060020a0316600160a060020a0316815260200191505060206040518083038186803b1580156127c357600080fd5b505af41580156127d7573d6000803e3d6000fd5b505050506040513d60208110156127ed57600080fd5b505115156127fa57600080fd5b8273__AOLibrary_____________________________632fca5414826040518263ffffffff1660e060020a0281526004018082600160a060020a0316600160a060020a0316815260200191505060206040518083038186803b15801561285f57600080fd5b505af4158015612873573d6000803e3d6000fd5b505050506040513d602081101561288957600080fd5b5051151561289657600080fd5b86846128a282826149a8565b156128ac57600080fd5b6040805160e360020a631ef8075d028152336004820152600160a060020a03891660248201529051889173__AOLibrary_____________________________9163f7c03ae891604480820192602092909190829003018186803b15801561291257600080fd5b505af4158015612926573d6000803e3d6000fd5b505050506040513d602081101561293c57600080fd5b5051151561294957600080fd5b600d805460010190819055600c54604080517f0ce6486800000000000000000000000000000000000000000000000000000000815260048101848152602482019283528d5160448301528d51600160a060020a0390941694630ce648689490938f939091606490910190602085019080838360005b838110156129d65781810151838201526020016129be565b50505050905090810190601f168015612a035780820380516001836020036101000a031916815260200191505b509350505050600060405180830381600087803b158015612a2357600080fd5b505af1158015612a37573d6000803e3d6000fd5b50506006546040805160e060020a63029b7d530281523360048201529051610f7f9450600160a060020a03909216925063029b7d539160248083019260209291908290030181600087803b158015612a8e57600080fd5b505af1158015612aa2573d6000803e3d6000fd5b505050506040513d6020811015612ab857600080fd5b505160058c8b8b8b614f54565b8273__AOLibrary_____________________________632fca5414826040518263ffffffff1660e060020a0281526004018082600160a060020a0316600160a060020a0316815260200191505060206040518083038186803b158015612b2a57600080fd5b505af4158015612b3e573d6000803e3d6000fd5b505050506040513d6020811015612b5457600080fd5b50511515612b6157600080fd5b8273__AOLibrary_____________________________632fca5414826040518263ffffffff1660e060020a0281526004018082600160a060020a0316600160a060020a0316815260200191505060206040518083038186803b158015612bc657600080fd5b505af4158015612bda573d6000803e3d6000fd5b505050506040513d6020811015612bf057600080fd5b50511515612bfd57600080fd5b8684612c0982826149a8565b15612c1357600080fd5b6040805160e360020a631ef8075d028152336004820152600160a060020a03891660248201529051889173__AOLibrary_____________________________9163f7c03ae891604480820192602092909190829003018186803b158015612c7957600080fd5b505af4158015612c8d573d6000803e3d6000fd5b505050506040513d6020811015612ca357600080fd5b50511515612cb057600080fd5b600d805460010190819055600854604080517fb238724b0000000000000000000000000000000000000000000000000000000081526004810193909352602483018c905251600160a060020a039091169163b238724b91604480830192600092919082900301818387803b158015612d2757600080fd5b505af1158015612d3b573d6000803e3d6000fd5b50506006546040805160e060020a63029b7d530281523360048201529051610f7f9450600160a060020a03909216925063029b7d539160248083019260209291908290030181600087803b158015612d9257600080fd5b505af1158015612da6573d6000803e3d6000fd5b505050506040513d6020811015612dbc57600080fd5b505160018c8b8b8b614f54565b600554600160a060020a031681565b8273__AOLibrary_____________________________632fca5414826040518263ffffffff1660e060020a0281526004018082600160a060020a0316600160a060020a0316815260200191505060206040518083038186803b158015612e3d57600080fd5b505af4158015612e51573d6000803e3d6000fd5b505050506040513d6020811015612e6757600080fd5b50511515612e7457600080fd5b8273__AOLibrary_____________________________632fca5414826040518263ffffffff1660e060020a0281526004018082600160a060020a0316600160a060020a0316815260200191505060206040518083038186803b158015612ed957600080fd5b505af4158015612eed573d6000803e3d6000fd5b505050506040513d6020811015612f0357600080fd5b50511515612f1057600080fd5b8684612f1c82826149a8565b15612f2657600080fd5b6040805160e360020a631ef8075d028152336004820152600160a060020a03891660248201529051889173__AOLibrary_____________________________9163f7c03ae891604480820192602092909190829003018186803b158015612f8c57600080fd5b505af4158015612fa0573d6000803e3d6000fd5b505050506040513d6020811015612fb657600080fd5b50511515612fc357600080fd5b600d805460010190819055600a54604080517f97e30fc40000000000000000000000000000000000000000000000000000000081526004810193909352600160a060020a038c8116602485015290519116916397e30fc491604480830192600092919082900301818387803b15801561303b57600080fd5b505af115801561304f573d6000803e3d6000fd5b50506006546040805160e060020a63029b7d530281523360048201529051610f7f9450600160a060020a03909216925063029b7d539160248083019260209291908290030181600087803b1580156130a657600080fd5b505af11580156130ba573d6000803e3d6000fd5b505050506040513d60208110156130d057600080fd5b505160038c8b8b8b614f54565b6000805460015460025460035460048054600554604080517fc2349ff4000000000000000000000000000000000000000000000000000000008152600160a060020a03988916948101949094529587166024840152938616604483015291851660648201529084166084820152921660a483015260c482018490525182918291829160609173__AOLibrary_____________________________9163c2349ff49160e48083019287929190829003018186803b15801561319c57600080fd5b505af41580156131b0573d6000803e3d6000fd5b505050506040513d6000823e601f3d908101601f1916820160405260a08110156131d957600080fd5b81516020830151604084015160608501516080860180519496939592949193928301929164010000000081111561320f57600080fd5b8201602081018481111561322257600080fd5b815164010000000081118282018710171561323c57600080fd5b50979e969d50949b509299509297509295505050505050565b6000808373__AOLibrary_____________________________632fca5414826040518263ffffffff1660e060020a0281526004018082600160a060020a0316600160a060020a0316815260200191505060206040518083038186803b1580156132bd57600080fd5b505af41580156132d1573d6000803e3d6000fd5b505050506040513d60208110156132e757600080fd5b505115156132f457600080fd5b8373__AOLibrary_____________________________632fca5414826040518263ffffffff1660e060020a0281526004018082600160a060020a0316600160a060020a0316815260200191505060206040518083038186803b15801561335957600080fd5b505af415801561336d573d6000803e3d6000fd5b505050506040513d602081101561338357600080fd5b5051151561339057600080fd5b6040805160e360020a631ef8075d028152336004820152600160a060020a03881660248201529051879173__AOLibrary_____________________________9163f7c03ae891604480820192602092909190829003018186803b1580156133f657600080fd5b505af415801561340a573d6000803e3d6000fd5b505050506040513d602081101561342057600080fd5b5051151561342d57600080fd5b6007546006546040805160e060020a63029b7d530281523360048201529051600160a060020a039384169363d79964c3938f9391169163029b7d53916024808201926020929091908290030181600087803b15801561348b57600080fd5b505af115801561349f573d6000803e3d6000fd5b505050506040513d60208110156134b557600080fd5b50516040805160e060020a63ffffffff86160281526004810193909352600160a060020a039182166024840152818c166044840152818b166064840152608483018e9052908c1660a4830152805160c4808401938290030181600087803b15801561351f57600080fd5b505af1158015613533573d6000803e3d6000fd5b505050506040513d604081101561354957600080fd5b5080516020918201516006546040805160e060020a63029b7d530281523360048201529051939950919750600160a060020a03169263029b7d53926024808401938290030181600087803b1580156135a057600080fd5b505af11580156135b4573d6000803e3d6000fd5b505050506040513d60208110156135ca57600080fd5b505160408051600160a060020a038a8116825289811660208301528183018d90528b811660608301526080820189905260a08201889052915191909216918c917f5b0aa40d58b997f6865a44dcb51e82305ff4fc4d2f7fed2e10d853de9394ae2a9181900360c00190a350505050505050505050565b6000805460015460025460035460045460055486958695869560609573__AOLibrary_____________________________9563c2349ff495600160a060020a0395861695948516949384169392831692918216911661369f8f8f61196d565b6040805160e060020a63ffffffff8b16028152600160a060020a039889166004820152968816602488015294871660448701529286166064860152908516608485015290931660a483015260c4820192909252905160e4808301926000929190829003018186803b15801561371357600080fd5b505af4158015613727573d6000803e3d6000fd5b505050506040513d6000823e601f3d908101601f1916820160405260a081101561375057600080fd5b81516020830151604084015160608501516080860180519496939592949193928301929164010000000081111561378657600080fd5b8201602081018481111561379957600080fd5b81516401000000008111828201871017156137b357600080fd5b50979f969e50949c50929a50929850929650505050505050565b8273__AOLibrary_____________________________632fca5414826040518263ffffffff1660e060020a0281526004018082600160a060020a0316600160a060020a0316815260200191505060206040518083038186803b15801561383257600080fd5b505af4158015613846573d6000803e3d6000fd5b505050506040513d602081101561385c57600080fd5b5051151561386957600080fd5b8273__AOLibrary_____________________________632fca5414826040518263ffffffff1660e060020a0281526004018082600160a060020a0316600160a060020a0316815260200191505060206040518083038186803b1580156138ce57600080fd5b505af41580156138e2573d6000803e3d6000fd5b505050506040513d60208110156138f857600080fd5b5051151561390557600080fd5b868461391182826149a8565b1561391b57600080fd5b6040805160e360020a631ef8075d028152336004820152600160a060020a03891660248201529051889173__AOLibrary_____________________________9163f7c03ae891604480820192602092909190829003018186803b15801561398157600080fd5b505af4158015613995573d6000803e3d6000fd5b505050506040513d60208110156139ab57600080fd5b505115156139b857600080fd5b600d805460010190819055600954604080517f5802c69500000000000000000000000000000000000000000000000000000000815260048101939093528b1515602484015251600160a060020a0390911691635802c69591604480830192600092919082900301818387803b158015613a3057600080fd5b505af1158015613a44573d6000803e3d6000fd5b50506006546040805160e060020a63029b7d530281523360048201529051610f7f9450600160a060020a03909216925063029b7d539160248083019260209291908290030181600087803b158015613a9b57600080fd5b505af1158015613aaf573d6000803e3d6000fd5b505050506040513d6020811015613ac557600080fd5b505160028c8b8b8b614f54565b6006546040805160e060020a63029b7d5302815233600482015290516000928392600160a060020a039091169163029b7d539160248082019260209290919082900301818787803b158015613b2657600080fd5b505af1158015613b3a573d6000803e3d6000fd5b505050506040513d6020811015613b5057600080fd5b5051600754604080517fed3ad43e00000000000000000000000000000000000000000000000000000000815260048101879052600160a060020a038085166024830152915193955091169163ed3ad43e916044808201926020929091908290030181600087803b158015613bc357600080fd5b505af1158015613bd7573d6000803e3d6000fd5b505050506040513d6020811015613bed57600080fd5b50511515613bfa57600080fd5b600754604080517feb10b4bd000000000000000000000000000000000000000000000000000000008152600481018690529051600160a060020a039092169163eb10b4bd91602480820192610180929091908290030181600087803b158015613c6257600080fd5b505af1158015613c76573d6000803e3d6000fd5b505050506040513d610180811015613c8d57600080fd5b506040908101518151600160a060020a03808316825285166020820152825191935085927fddce695af8c75c8fab3a9b369527822852b7fca9ca33aa7c48141b1134298f2d92918290030190a2505050565b600454600160a060020a031681565b6006546040805160e060020a63029b7d53028152336004820152905160009283928392600160a060020a039092169163029b7d539160248082019260209290919082900301818787803b158015613d4457600080fd5b505af1158015613d58573d6000803e3d6000fd5b505050506040513d6020811015613d6e57600080fd5b5051600754604080517f4a17601700000000000000000000000000000000000000000000000000000000815260048101889052600160a060020a0380851660248301529151939650911691634a176017916044808201926020929091908290030181600087803b158015613de157600080fd5b505af1158015613df5573d6000803e3d6000fd5b505050506040513d6020811015613e0b57600080fd5b50511515613e1857600080fd5b600754604080517f81f3e897000000000000000000000000000000000000000000000000000000008152600481018790529051600160a060020a03909216916381f3e8979160248082019260009290919082900301818387803b158015613e7e57600080fd5b505af1158015613e92573d6000803e3d6000fd5b505050506040513d6000823e601f3d908101601f19168201604052610140811015613ebc57600080fd5b815160208301516040840151606085015160808601805194969395929491939283019291640100000000811115613ef257600080fd5b82016020810184811115613f0557600080fd5b8151640100000000811182820187101715613f1f57600080fd5b5050602082015160408301516060840151608085015160a09095018051949793969295919491939291640100000000811115613f5a57600080fd5b82016020810184811115613f6d57600080fd5b8151640100000000811182820187101715613f8757600080fd5b5050929190505050505050509550505093505050613fa58482615388565b60408051600160a060020a03808516825285166020820152815186927fbb5e0d5e53d5c4edcb39f401558efb469259576f753902721daa75c87b14416c928290030190a250505050565b6006546040805160e060020a63029b7d5302815233600482015290516000928392600160a060020a039091169163029b7d539160248082019260209290919082900301818787803b15801561404357600080fd5b505af1158015614057573d6000803e3d6000fd5b505050506040513d602081101561406d57600080fd5b5051600754604080517f46082aaf00000000000000000000000000000000000000000000000000000000815260048101889052600160a060020a038085166024830152871515604483015291519395509116916346082aaf916064808201926020929091908290030181600087803b1580156140e857600080fd5b505af11580156140fc573d6000803e3d6000fd5b505050506040513d602081101561411257600080fd5b5051151561411f57600080fd5b600754604080517feb10b4bd000000000000000000000000000000000000000000000000000000008152600481018790529051600160a060020a039092169163eb10b4bd91602480820192610180929091908290030181600087803b15801561418757600080fd5b505af115801561419b573d6000803e3d6000fd5b505050506040513d6101808110156141b257600080fd5b5060609081015160408051600160a060020a0380841682528616602082015286151581830152905191935086927f68e70a35c7a2d3a84a6d5f1fca218f248ebab3821e88a3b58ead71224623433292918290030190a250505050565b6006546040805160e060020a63029b7d53028152336004820152905160009283928392600160a060020a039092169163029b7d539160248082019260209290919082900301818787803b15801561426457600080fd5b505af1158015614278573d6000803e3d6000fd5b505050506040513d602081101561428e57600080fd5b5051600754604080517f83fee16d00000000000000000000000000000000000000000000000000000000815260048101889052600160a060020a03808516602483015291519396509116916383fee16d916044808201926020929091908290030181600087803b15801561430157600080fd5b505af1158015614315573d6000803e3d6000fd5b505050506040513d602081101561432b57600080fd5b5051151561433857600080fd5b600754604080517f81f3e897000000000000000000000000000000000000000000000000000000008152600481018790529051600160a060020a03909216916381f3e8979160248082019260009290919082900301818387803b15801561439e57600080fd5b505af11580156143b2573d6000803e3d6000fd5b505050506040513d6000823e601f3d908101601f191682016040526101408110156143dc57600080fd5b81516020830151604084015160608501516080860180519496939592949193928301929164010000000081111561441257600080fd5b8201602081018481111561442557600080fd5b815164010000000081118282018710171561443f57600080fd5b5050602082015160408301516060840151608085015160a0909501805194979396929591949193929164010000000081111561447a57600080fd5b8201602081018481111561448d57600080fd5b81516401000000008111828201871017156144a757600080fd5b50509291905050505050505095505094505050506144c58482615388565b60408051600160a060020a03808516825285166020820152815186927f0b8de7345c8858c1a768f8563f771e787ca936dd91e184518c41598661bcecf6928290030190a250505050565b600254600160a060020a031681565b8273__AOLibrary_____________________________632fca5414826040518263ffffffff1660e060020a0281526004018082600160a060020a0316600160a060020a0316815260200191505060206040518083038186803b15801561458357600080fd5b505af4158015614597573d6000803e3d6000fd5b505050506040513d60208110156145ad57600080fd5b505115156145ba57600080fd5b6007546006546040805160e060020a63029b7d530281523360048201529051600160a060020a039384169363a57c0919938b93600293919092169163029b7d539160248083019260209291908290030181600087803b15801561461c57600080fd5b505af1158015614630573d6000803e3d6000fd5b505050506040513d602081101561464657600080fd5b505160405160e060020a63ffffffff86160281526004810184815260ff84166024830152600160a060020a0380841660448401528b16606483015260c0608483019081528a5160c48401528a518c938c938c939092909160a481019160e490910190602087019080838360005b838110156146cb5781810151838201526020016146b3565b50505050905090810190601f1680156146f85780820380516001836020036101000a031916815260200191505b50838103825284518152845160209182019186019080838360005b8381101561472b578181015183820152602001614713565b50505050905090810190601f1680156147585780820380516001836020036101000a031916815260200191505b5098505050505050505050602060405180830381600087803b15801561477d57600080fd5b505af1158015614791573d6000803e3d6000fd5b505050506040513d60208110156147a757600080fd5b505115156147b457600080fd5b600954604080517f5802c6950000000000000000000000000000000000000000000000000000000081526004810189905287151560248201529051600160a060020a0390921691635802c6959160448082019260009290919082900301818387803b15801561482257600080fd5b505af1158015614836573d6000803e3d6000fd5b5050505085600f60003087600960009054906101000a9004600160a060020a0316600160a060020a0316639ba535ce8c6040518263ffffffff1660e060020a02815260040180828152602001915050602060405180830381600087803b15801561489f57600080fd5b505af11580156148b3573d6000803e3d6000fd5b505050506040513d60208110156148c957600080fd5b81019080805190602001909291905050508a888d6040516020018087600160a060020a0316600160a060020a0316606060020a02815260140186600160a060020a0316600160a060020a0316606060020a02815260140185151515157f010000000000000000000000000000000000000000000000000000000000000002815260010184151515157f01000000000000000000000000000000000000000000000000000000000000000281526001018380519060200190808383602083106118035780518252601f1990920191602091820191016117e4565b600d5481565b600080600e600084600160a060020a0316600160a060020a03168152602001908152602001600020600030866040516020018083600160a060020a0316600160a060020a0316606060020a02815260140182805190602001908083835b60208310614a245780518252601f199092019160209182019101614a05565b6001836020036101000a038019825116818451168082178552505050505050905001925050506040516020818303038152906040526040518082805190602001908083835b60208310614a885780518252601f199092019160209182019101614a69565b51815160209384036101000a6000190180199092169116179052604080519290940182900390912086528501959095529290920160002054939093119695505050505050565b600154600160a060020a031681565b8273__AOLibrary_____________________________632fca5414826040518263ffffffff1660e060020a0281526004018082600160a060020a0316600160a060020a0316815260200191505060206040518083038186803b158015614b4257600080fd5b505af4158015614b56573d6000803e3d6000fd5b505050506040513d6020811015614b6c57600080fd5b50511515614b7957600080fd5b6007546006546040805160e060020a63029b7d530281523360048201529051600160a060020a039384169363a57c0919938b93600393919092169163029b7d539160248083019260209291908290030181600087803b158015614bdb57600080fd5b505af1158015614bef573d6000803e3d6000fd5b505050506040513d6020811015614c0557600080fd5b505160405160e060020a63ffffffff86160281526004810184815260ff84166024830152600160a060020a0380841660448401528b16606483015260c0608483019081528a5160c48401528a518c938c938c939092909160a481019160e490910190602087019080838360005b83811015614c8a578181015183820152602001614c72565b50505050905090810190601f168015614cb75780820380516001836020036101000a031916815260200191505b50838103825284518152845160209182019186019080838360005b83811015614cea578181015183820152602001614cd2565b50505050905090810190601f168015614d175780820380516001836020036101000a031916815260200191505b5098505050505050505050602060405180830381600087803b158015614d3c57600080fd5b505af1158015614d50573d6000803e3d6000fd5b505050506040513d6020811015614d6657600080fd5b50511515614d7357600080fd5b600a54604080517f97e30fc400000000000000000000000000000000000000000000000000000000815260048101899052600160a060020a038881166024830152915191909216916397e30fc491604480830192600092919082900301818387803b158015614de157600080fd5b505af1158015614df5573d6000803e3d6000fd5b5050505085600f60003087600a60009054906101000a9004600160a060020a0316600160a060020a0316639ba535ce8c6040518263ffffffff1660e060020a02815260040180828152602001915050602060405180830381600087803b158015614e5e57600080fd5b505af1158015614e72573d6000803e3d6000fd5b505050506040513d6020811015614e8857600080fd5b81019080805190602001909291905050508a888d6040516020018087600160a060020a0316600160a060020a0316606060020a02815260140186600160a060020a0316600160a060020a0316606060020a02815260140185600160a060020a0316600160a060020a0316606060020a02815260140184600160a060020a0316600160a060020a0316606060020a0281526014018380519060200190808383602083106118035780518252601f1990920191602091820191016117e4565b600054600160a060020a031681565b60008060018760ff1610158015614f6f575060058760ff1611155b1515614f7a57600080fd5b600d54600e600086600160a060020a0316600160a060020a03168152602001908152602001600020600030896040516020018083600160a060020a0316600160a060020a0316606060020a02815260140182805190602001908083835b60208310614ff65780518252601f199092019160209182019101614fd7565b6001836020036101000a038019825116818451168082178552505050505050905001925050506040516020818303038152906040526040518082805190602001908083835b6020831061505a5780518252601f19909201916020918201910161503b565b6001836020036101000a03801982511681845116808217855250505050505090500191505060405180910390206000191660001916815260200190815260200160002081905550600760009054906101000a9004600160a060020a0316600160a060020a0316638ffd2a1b600d548a8a8a8a8a8a6040518863ffffffff1660e060020a0281526004018088815260200187600160a060020a0316600160a060020a031681526020018660ff1660ff1681526020018060200185600160a060020a0316600160a060020a0316815260200184600160a060020a0316600160a060020a0316815260200180602001838103835287818151815260200191508051906020019080838360005b8381101561517b578181015183820152602001615163565b50505050905090810190601f1680156151a85780820380516001836020036101000a031916815260200191505b50838103825284518152845160209182019186019080838360005b838110156151db5781810151838201526020016151c3565b50505050905090810190601f1680156152085780820380516001836020036101000a031916815260200191505b5099505050505050505050506040805180830381600087803b15801561522d57600080fd5b505af1158015615241573d6000803e3d6000fd5b505050506040513d604081101561525757600080fd5b8101908080519060200190929190805190602001909291905050509150915087600160a060020a0316600d547fe70b4fd539cc88a28e2373c3b0ddf295af995ba9a87470977ee56b9059f5665087878a8c88886040518087600160a060020a0316600160a060020a0316815260200186600160a060020a0316600160a060020a03168152602001806020018560ff1660ff16815260200184600019166000191681526020018360001916600019168152602001828103825286818151815260200191508051906020019080838360005b8381101561533f578181015183820152602001615327565b50505050905090810190601f16801561536c5780820380516001836020036101000a031916815260200191505b5097505050505050505060405180910390a35050505050505050565b8060ff1660011415615401576008546040805160e360020a630111f835028152600481018590529051600160a060020a039092169163088fc1a89160248082019260009290919082900301818387803b1580156153e457600080fd5b505af11580156153f8573d6000803e3d6000fd5b5050505061557e565b8060ff166002141561545d576009546040805160e360020a630111f835028152600481018590529051600160a060020a039092169163088fc1a89160248082019260009290919082900301818387803b1580156153e457600080fd5b8060ff16600314156154b957600a546040805160e360020a630111f835028152600481018590529051600160a060020a039092169163088fc1a89160248082019260009290919082900301818387803b1580156153e457600080fd5b8060ff166004141561551557600b546040805160e360020a630111f835028152600481018590529051600160a060020a039092169163088fc1a89160248082019260009290919082900301818387803b1580156153e457600080fd5b600c546040805160e360020a630111f835028152600481018590529051600160a060020a039092169163088fc1a89160248082019260009290919082900301818387803b15801561556557600080fd5b505af1158015615579573d6000803e3d6000fd5b505050505b50505600a165627a7a72305820092847a952c0b81eb991e50781290baa71844b4b8eaaf55f4130684722a7555a0029",
	"source": "pragma solidity ^0.4.24;\n\nimport './NameFactory.sol';\nimport './AOSettingAttribute.sol';\nimport './AOUintSetting.sol';\nimport './AOBoolSetting.sol';\nimport './AOAddressSetting.sol';\nimport './AOBytesSetting.sol';\nimport './AOStringSetting.sol';\nimport './AOLibrary.sol';\n\n/**\n * @title AOSetting\n *\n * This contract stores all AO setting variables\n */\ncontract AOSetting {\n\taddress public aoSettingAttributeAddress;\n\taddress public aoUintSettingAddress;\n\taddress public aoBoolSettingAddress;\n\taddress public aoAddressSettingAddress;\n\taddress public aoBytesSettingAddress;\n\taddress public aoStringSettingAddress;\n\n\tNameFactory internal _nameFactory;\n\tAOSettingAttribute internal _aoSettingAttribute;\n\tAOUintSetting internal _aoUintSetting;\n\tAOBoolSetting internal _aoBoolSetting;\n\tAOAddressSetting internal _aoAddressSetting;\n\tAOBytesSetting internal _aoBytesSetting;\n\tAOStringSetting internal _aoStringSetting;\n\n\tuint256 public totalSetting;\n\n\t/**\n\t * Mapping from associatedTAOId's setting name to Setting ID.\n\t *\n\t * Instead of concatenating the associatedTAOID and setting name to create a unique ID for lookup,\n\t * use nested mapping to achieve the same result.\n\t *\n\t * The setting's name needs to be converted to bytes32 since solidity does not support mapping by string.\n\t */\n\tmapping (address => mapping (bytes32 => uint256)) internal nameSettingLookup;\n\n\t// Mapping from updateHashKey to it's settingId\n\tmapping (bytes32 => uint256) public updateHashLookup;\n\n\t// Event to be broadcasted to public when a setting is created and waiting for approval\n\tevent SettingCreation(uint256 indexed settingId, address indexed creatorNameId, address creatorTAOId, address associatedTAOId, string settingName, uint8 settingType, bytes32 associatedTAOSettingId, bytes32 creatorTAOSettingId);\n\n\t// Event to be broadcasted to public when setting creation is approved/rejected by the advocate of associatedTAOId\n\tevent ApproveSettingCreation(uint256 indexed settingId, address associatedTAOId, address associatedTAOAdvocate, bool approved);\n\t// Event to be broadcasted to public when setting creation is finalized by the advocate of creatorTAOId\n\tevent FinalizeSettingCreation(uint256 indexed settingId, address creatorTAOId, address creatorTAOAdvocate);\n\n\t// Event to be broadcasted to public when a proposed update for a setting is created\n\tevent SettingUpdate(uint256 indexed settingId, address indexed updateAdvocateNameId, address proposalTAOId);\n\n\t// Event to be broadcasted to public when setting update is approved/rejected by the advocate of proposalTAOId\n\tevent ApproveSettingUpdate(uint256 indexed settingId, address proposalTAOId, address proposalTAOAdvocate, bool approved);\n\n\t// Event to be broadcasted to public when setting update is finalized by the advocate of associatedTAOId\n\tevent FinalizeSettingUpdate(uint256 indexed settingId, address associatedTAOId, address associatedTAOAdvocate);\n\n\t// Event to be broadcasted to public when a setting deprecation is created and waiting for approval\n\tevent SettingDeprecation(uint256 indexed settingId, address indexed creatorNameId, address creatorTAOId, address associatedTAOId, uint256 newSettingId, address newSettingContractAddress, bytes32 associatedTAOSettingDeprecationId, bytes32 creatorTAOSettingDeprecationId);\n\n\t// Event to be broadcasted to public when setting deprecation is approved/rejected by the advocate of associatedTAOId\n\tevent ApproveSettingDeprecation(uint256 indexed settingId, address associatedTAOId, address associatedTAOAdvocate, bool approved);\n\n\t// Event to be broadcasted to public when setting deprecation is finalized by the advocate of creatorTAOId\n\tevent FinalizeSettingDeprecation(uint256 indexed settingId, address creatorTAOId, address creatorTAOAdvocate);\n\n\t/**\n\t * @dev Constructor function\n\t */\n\tconstructor(address _nameFactoryAddress,\n\t\taddress _aoSettingAttributeAddress,\n\t\taddress _aoUintSettingAddress,\n\t\taddress _aoBoolSettingAddress,\n\t\taddress _aoAddressSettingAddress,\n\t\taddress _aoBytesSettingAddress,\n\t\taddress _aoStringSettingAddress) public {\n\t\taoSettingAttributeAddress = _aoSettingAttributeAddress;\n\t\taoUintSettingAddress = _aoUintSettingAddress;\n\t\taoBoolSettingAddress = _aoBoolSettingAddress;\n\t\taoAddressSettingAddress = _aoAddressSettingAddress;\n\t\taoBytesSettingAddress = _aoBytesSettingAddress;\n\t\taoStringSettingAddress = _aoStringSettingAddress;\n\t\t_nameFactory = NameFactory(_nameFactoryAddress);\n\t\t_aoSettingAttribute = AOSettingAttribute(_aoSettingAttributeAddress);\n\t\t_aoUintSetting = AOUintSetting(_aoUintSettingAddress);\n\t\t_aoBoolSetting = AOBoolSetting(_aoBoolSettingAddress);\n\t\t_aoAddressSetting = AOAddressSetting(_aoAddressSettingAddress);\n\t\t_aoBytesSetting = AOBytesSetting(_aoBytesSettingAddress);\n\t\t_aoStringSetting = AOStringSetting(_aoStringSettingAddress);\n\t}\n\n\t/**\n\t * @dev Check if `_taoId` is a TAO\n\t */\n\tmodifier isTAO(address _taoId) {\n\t\trequire (AOLibrary.isTAO(_taoId));\n\t\t_;\n\t}\n\n\t/**\n\t * @dev Check if `_settingName` of `_associatedTAOId` is taken\n\t */\n\tmodifier settingNameNotTaken(string _settingName, address _associatedTAOId) {\n\t\trequire (settingNameExist(_settingName, _associatedTAOId) == false);\n\t\t_;\n\t}\n\n\t/**\n\t * @dev Check if sender is the advocate of a TAO\n\t */\n\tmodifier isAdvocateOfTAO(address _taoId) {\n\t\trequire (AOLibrary.isAdvocateOfTAO(msg.sender, _taoId));\n\t\t_;\n\t}\n\n\t/***** Public Methods *****/\n\t/**\n\t * @dev Check whether or not a setting name of an associatedTAOId exist\n\t * @param _settingName The human-readable name of the setting\n\t * @param _associatedTAOId The taoId that the setting affects\n\t * @return true if yes. false otherwise\n\t */\n\tfunction settingNameExist(string _settingName, address _associatedTAOId) public view returns (bool) {\n\t\treturn (nameSettingLookup[_associatedTAOId][keccak256(abi.encodePacked(this, _settingName))] > 0);\n\t}\n\n\t/**\n\t * @dev Advocate of _creatorTAOId adds a uint setting\n\t * @param _settingName The human-readable name of the setting\n\t * @param _value The uint256 value of the setting\n\t * @param _creatorTAOId The taoId that created the setting\n\t * @param _associatedTAOId The taoId that the setting affects\n\t * @param _extraData Catch-all string value to be stored if exist\n\t */\n\tfunction addUintSetting(string _settingName, uint256 _value, address _creatorTAOId, address _associatedTAOId, string _extraData) public isTAO(_creatorTAOId) isTAO(_associatedTAOId) settingNameNotTaken(_settingName, _associatedTAOId) isAdvocateOfTAO(_creatorTAOId) {\n\t\t// Update global variables\n\t\ttotalSetting++;\n\n\t\t// Store the value as pending value\n\t\t_aoUintSetting.setPendingValue(totalSetting, _value);\n\n\t\t// Store setting creation data\n\t\t_storeSettingCreation(_nameFactory.ethAddressToNameId(msg.sender), 1, _settingName, _creatorTAOId, _associatedTAOId, _extraData);\n\t}\n\n\t/**\n\t * @dev Advocate of _creatorTAOId adds a bool setting\n\t * @param _settingName The human-readable name of the setting\n\t * @param _value The bool value of the setting\n\t * @param _creatorTAOId The taoId that created the setting\n\t * @param _associatedTAOId The taoId that the setting affects\n\t * @param _extraData Catch-all string value to be stored if exist\n\t */\n\tfunction addBoolSetting(string _settingName, bool _value, address _creatorTAOId, address _associatedTAOId, string _extraData) public isTAO(_creatorTAOId) isTAO(_associatedTAOId) settingNameNotTaken(_settingName, _associatedTAOId) isAdvocateOfTAO(_creatorTAOId) {\n\t\t// Update global variables\n\t\ttotalSetting++;\n\n\t\t// Store the value as pending value\n\t\t_aoBoolSetting.setPendingValue(totalSetting, _value);\n\n\t\t// Store setting creation data\n\t\t_storeSettingCreation(_nameFactory.ethAddressToNameId(msg.sender), 2, _settingName, _creatorTAOId, _associatedTAOId, _extraData);\n\t}\n\n\t/**\n\t * @dev Advocate of _creatorTAOId adds an address setting\n\t * @param _settingName The human-readable name of the setting\n\t * @param _value The address value of the setting\n\t * @param _creatorTAOId The taoId that created the setting\n\t * @param _associatedTAOId The taoId that the setting affects\n\t * @param _extraData Catch-all string value to be stored if exist\n\t */\n\tfunction addAddressSetting(string _settingName, address _value, address _creatorTAOId, address _associatedTAOId, string _extraData) public isTAO(_creatorTAOId) isTAO(_associatedTAOId) settingNameNotTaken(_settingName, _associatedTAOId) isAdvocateOfTAO(_creatorTAOId) {\n\t\t// Update global variables\n\t\ttotalSetting++;\n\n\t\t// Store the value as pending value\n\t\t_aoAddressSetting.setPendingValue(totalSetting, _value);\n\n\t\t// Store setting creation data\n\t\t_storeSettingCreation(_nameFactory.ethAddressToNameId(msg.sender), 3, _settingName, _creatorTAOId, _associatedTAOId, _extraData);\n\t}\n\n\t/**\n\t * @dev Advocate of _creatorTAOId adds a bytes32 setting\n\t * @param _settingName The human-readable name of the setting\n\t * @param _value The bytes32 value of the setting\n\t * @param _creatorTAOId The taoId that created the setting\n\t * @param _associatedTAOId The taoId that the setting affects\n\t * @param _extraData Catch-all string value to be stored if exist\n\t */\n\tfunction addBytesSetting(string _settingName, bytes32 _value, address _creatorTAOId, address _associatedTAOId, string _extraData) public isTAO(_creatorTAOId) isTAO(_associatedTAOId) settingNameNotTaken(_settingName, _associatedTAOId) isAdvocateOfTAO(_creatorTAOId) {\n\t\t// Update global variables\n\t\ttotalSetting++;\n\n\t\t// Store the value as pending value\n\t\t_aoBytesSetting.setPendingValue(totalSetting, _value);\n\n\t\t// Store setting creation data\n\t\t_storeSettingCreation(_nameFactory.ethAddressToNameId(msg.sender), 4, _settingName, _creatorTAOId, _associatedTAOId, _extraData);\n\t}\n\n\t/**\n\t * @dev Advocate of _creatorTAOId adds a string setting\n\t * @param _settingName The human-readable name of the setting\n\t * @param _value The string value of the setting\n\t * @param _creatorTAOId The taoId that created the setting\n\t * @param _associatedTAOId The taoId that the setting affects\n\t * @param _extraData Catch-all string value to be stored if exist\n\t */\n\tfunction addStringSetting(string _settingName, string _value, address _creatorTAOId, address _associatedTAOId, string _extraData) public isTAO(_creatorTAOId) isTAO(_associatedTAOId) settingNameNotTaken(_settingName, _associatedTAOId) isAdvocateOfTAO(_creatorTAOId) {\n\t\t// Update global variables\n\t\ttotalSetting++;\n\n\t\t// Store the value as pending value\n\t\t_aoStringSetting.setPendingValue(totalSetting, _value);\n\n\t\t// Store setting creation data\n\t\t_storeSettingCreation(_nameFactory.ethAddressToNameId(msg.sender), 5, _settingName, _creatorTAOId, _associatedTAOId, _extraData);\n\t}\n\n\t/**\n\t * @dev Advocate of Setting's _associatedTAOId approves setting creation\n\t * @param _settingId The ID of the setting to approve\n\t * @param _approved Whether to approve or reject\n\t */\n\tfunction approveSettingCreation(uint256 _settingId, bool _approved) public {\n\t\taddress _associatedTAOAdvocate = _nameFactory.ethAddressToNameId(msg.sender);\n\t\trequire (_aoSettingAttribute.approveAdd(_settingId, _associatedTAOAdvocate, _approved));\n\n\t\t(,,,address _associatedTAOId, string memory _settingName,,,,,) = _aoSettingAttribute.getSettingData(_settingId);\n\t\tif (!_approved) {\n\t\t\t// Clear the settingName from nameSettingLookup so it can be added again in the future\n\t\t\tdelete nameSettingLookup[_associatedTAOId][keccak256(abi.encodePacked(this, _settingName))];\n\t\t}\n\t\temit ApproveSettingCreation(_settingId, _associatedTAOId, _associatedTAOAdvocate, _approved);\n\t}\n\n\t/**\n\t * @dev Advocate of Setting's _creatorTAOId finalizes the setting creation once the setting is approved\n\t * @param _settingId The ID of the setting to be finalized\n\t */\n\tfunction finalizeSettingCreation(uint256 _settingId) public {\n\t\taddress _creatorTAOAdvocate = _nameFactory.ethAddressToNameId(msg.sender);\n\t\trequire (_aoSettingAttribute.finalizeAdd(_settingId, _creatorTAOAdvocate));\n\n\t\t(,,address _creatorTAOId,,, uint8 _settingType,,,,) = _aoSettingAttribute.getSettingData(_settingId);\n\n\t\t_movePendingToSetting(_settingId, _settingType);\n\n\t\temit FinalizeSettingCreation(_settingId, _creatorTAOId, _creatorTAOAdvocate);\n\t}\n\n\t/**\n\t * @dev Advocate of Setting's _associatedTAOId submits a uint256 setting update after an update has been proposed\n\t * @param _settingId The ID of the setting to be updated\n\t * @param _newValue The new uint256 value for this setting\n\t * @param _proposalTAOId The child of the associatedTAOId with the update Logos\n\t * @param _updateSignature A signature of the proposalTAOId and update value by associatedTAOId's advocate's name address\n\t * @param _extraData Catch-all string value to be stored if exist\n\t */\n\tfunction updateUintSetting(uint256 _settingId, uint256 _newValue, address _proposalTAOId, string _updateSignature, string _extraData) public isTAO(_proposalTAOId) {\n\t\t// Store the setting state data\n\t\trequire (_aoSettingAttribute.update(_settingId, 1, _nameFactory.ethAddressToNameId(msg.sender), _proposalTAOId, _updateSignature, _extraData));\n\n\t\t// Store the value as pending value\n\t\t_aoUintSetting.setPendingValue(_settingId, _newValue);\n\n\t\t// Store the update hash key lookup\n\t\tupdateHashLookup[keccak256(abi.encodePacked(this, _proposalTAOId, _aoUintSetting.settingValue(_settingId), _newValue, _extraData, _settingId))] = _settingId;\n\n\t\temit SettingUpdate(_settingId, _nameFactory.ethAddressToNameId(msg.sender), _proposalTAOId);\n\t}\n\n\t/**\n\t * @dev Advocate of Setting's _associatedTAOId submits a bool setting update after an update has been proposed\n\t * @param _settingId The ID of the setting to be updated\n\t * @param _newValue The new bool value for this setting\n\t * @param _proposalTAOId The child of the associatedTAOId with the update Logos\n\t * @param _updateSignature A signature of the proposalTAOId and update value by associatedTAOId's advocate's name address\n\t * @param _extraData Catch-all string value to be stored if exist\n\t */\n\tfunction updateBoolSetting(uint256 _settingId, bool _newValue, address _proposalTAOId, string _updateSignature, string _extraData) public isTAO(_proposalTAOId) {\n\t\t// Store the setting state data\n\t\trequire (_aoSettingAttribute.update(_settingId, 2, _nameFactory.ethAddressToNameId(msg.sender), _proposalTAOId, _updateSignature, _extraData));\n\n\t\t// Store the value as pending value\n\t\t_aoBoolSetting.setPendingValue(_settingId, _newValue);\n\n\t\t// Store the update hash key lookup\n\t\tupdateHashLookup[keccak256(abi.encodePacked(this, _proposalTAOId, _aoBoolSetting.settingValue(_settingId), _newValue, _extraData, _settingId))] = _settingId;\n\n\t\temit SettingUpdate(_settingId, _nameFactory.ethAddressToNameId(msg.sender), _proposalTAOId);\n\t}\n\n\t/**\n\t * @dev Advocate of Setting's _associatedTAOId submits an address setting update after an update has been proposed\n\t * @param _settingId The ID of the setting to be updated\n\t * @param _newValue The new address value for this setting\n\t * @param _proposalTAOId The child of the associatedTAOId with the update Logos\n\t * @param _updateSignature A signature of the proposalTAOId and update value by associatedTAOId's advocate's name address\n\t * @param _extraData Catch-all string value to be stored if exist\n\t */\n\tfunction updateAddressSetting(uint256 _settingId, address _newValue, address _proposalTAOId, string _updateSignature, string _extraData) public isTAO(_proposalTAOId) {\n\t\t// Store the setting state data\n\t\trequire (_aoSettingAttribute.update(_settingId, 3, _nameFactory.ethAddressToNameId(msg.sender), _proposalTAOId, _updateSignature, _extraData));\n\n\t\t// Store the value as pending value\n\t\t_aoAddressSetting.setPendingValue(_settingId, _newValue);\n\n\t\t// Store the update hash key lookup\n\t\tupdateHashLookup[keccak256(abi.encodePacked(this, _proposalTAOId, _aoAddressSetting.settingValue(_settingId), _newValue, _extraData, _settingId))] = _settingId;\n\n\t\temit SettingUpdate(_settingId, _nameFactory.ethAddressToNameId(msg.sender), _proposalTAOId);\n\t}\n\n\t/**\n\t * @dev Advocate of Setting's _associatedTAOId submits a bytes32 setting update after an update has been proposed\n\t * @param _settingId The ID of the setting to be updated\n\t * @param _newValue The new bytes32 value for this setting\n\t * @param _proposalTAOId The child of the associatedTAOId with the update Logos\n\t * @param _updateSignature A signature of the proposalTAOId and update value by associatedTAOId's advocate's name address\n\t * @param _extraData Catch-all string value to be stored if exist\n\t */\n\tfunction updateBytesSetting(uint256 _settingId, bytes32 _newValue, address _proposalTAOId, string _updateSignature, string _extraData) public isTAO(_proposalTAOId) {\n\t\t// Store the setting state data\n\t\trequire (_aoSettingAttribute.update(_settingId, 4, _nameFactory.ethAddressToNameId(msg.sender), _proposalTAOId, _updateSignature, _extraData));\n\n\t\t// Store the value as pending value\n\t\t_aoBytesSetting.setPendingValue(_settingId, _newValue);\n\n\t\t// Store the update hash key lookup\n\t\tupdateHashLookup[keccak256(abi.encodePacked(this, _proposalTAOId, _aoBytesSetting.settingValue(_settingId), _newValue, _extraData, _settingId))] = _settingId;\n\n\t\temit SettingUpdate(_settingId, _nameFactory.ethAddressToNameId(msg.sender), _proposalTAOId);\n\t}\n\n\t/**\n\t * @dev Advocate of Setting's _associatedTAOId submits a string setting update after an update has been proposed\n\t * @param _settingId The ID of the setting to be updated\n\t * @param _newValue The new string value for this setting\n\t * @param _proposalTAOId The child of the associatedTAOId with the update Logos\n\t * @param _updateSignature A signature of the proposalTAOId and update value by associatedTAOId's advocate's name address\n\t * @param _extraData Catch-all string value to be stored if exist\n\t */\n\tfunction updateStringSetting(uint256 _settingId, string _newValue, address _proposalTAOId, string _updateSignature, string _extraData) public isTAO(_proposalTAOId) {\n\t\t// Store the setting state data\n\t\trequire (_aoSettingAttribute.update(_settingId, 5, _nameFactory.ethAddressToNameId(msg.sender), _proposalTAOId, _updateSignature, _extraData));\n\n\t\t// Store the value as pending value\n\t\t_aoStringSetting.setPendingValue(_settingId, _newValue);\n\n\t\t// Store the update hash key lookup\n\t\tupdateHashLookup[keccak256(abi.encodePacked(this, _proposalTAOId, _aoStringSetting.settingValue(_settingId), _newValue, _extraData, _settingId))] = _settingId;\n\n\t\temit SettingUpdate(_settingId, _nameFactory.ethAddressToNameId(msg.sender), _proposalTAOId);\n\t}\n\n\t/**\n\t * @dev Advocate of Setting's proposalTAOId approves the setting update\n\t * @param _settingId The ID of the setting to be approved\n\t * @param _approved Whether to approve or reject\n\t */\n\tfunction approveSettingUpdate(uint256 _settingId, bool _approved) public {\n\t\taddress _proposalTAOAdvocate = _nameFactory.ethAddressToNameId(msg.sender);\n\t\t(,,, address _proposalTAOId,,,) = _aoSettingAttribute.getSettingState(_settingId);\n\n\t\trequire (_aoSettingAttribute.approveUpdate(_settingId, _proposalTAOAdvocate, _approved));\n\n\t\temit ApproveSettingUpdate(_settingId, _proposalTAOId, _proposalTAOAdvocate, _approved);\n\t}\n\n\t/**\n\t * @dev Advocate of Setting's _associatedTAOId finalizes the setting update once the setting is approved\n\t * @param _settingId The ID of the setting to be finalized\n\t */\n\tfunction finalizeSettingUpdate(uint256 _settingId) public {\n\t\taddress _associatedTAOAdvocate = _nameFactory.ethAddressToNameId(msg.sender);\n\t\trequire (_aoSettingAttribute.finalizeUpdate(_settingId, _associatedTAOAdvocate));\n\n\t\t(,,, address _associatedTAOId,, uint8 _settingType,,,,) = _aoSettingAttribute.getSettingData(_settingId);\n\n\t\t_movePendingToSetting(_settingId, _settingType);\n\n\t\temit FinalizeSettingUpdate(_settingId, _associatedTAOId, _associatedTAOAdvocate);\n\t}\n\n\t/**\n\t * @dev Advocate of _creatorTAOId adds a setting deprecation\n\t * @param _settingId The ID of the setting to be deprecated\n\t * @param _newSettingId The new setting ID to route\n\t * @param _newSettingContractAddress The new setting contract address to route\n\t * @param _creatorTAOId The taoId that created the setting\n\t * @param _associatedTAOId The taoId that the setting affects\n\t */\n\tfunction addSettingDeprecation(uint256 _settingId, uint256 _newSettingId, address _newSettingContractAddress, address _creatorTAOId, address _associatedTAOId) public isTAO(_creatorTAOId) isTAO(_associatedTAOId) isAdvocateOfTAO(_creatorTAOId) {\n\t\t(bytes32 _associatedTAOSettingDeprecationId, bytes32 _creatorTAOSettingDeprecationId) = _aoSettingAttribute.addDeprecation(_settingId, _nameFactory.ethAddressToNameId(msg.sender), _creatorTAOId, _associatedTAOId, _newSettingId, _newSettingContractAddress);\n\n\t\temit SettingDeprecation(_settingId, _nameFactory.ethAddressToNameId(msg.sender), _creatorTAOId, _associatedTAOId, _newSettingId, _newSettingContractAddress, _associatedTAOSettingDeprecationId, _creatorTAOSettingDeprecationId);\n\t}\n\n\t/**\n\t * @dev Advocate of SettingDeprecation's _associatedTAOId approves setting deprecation\n\t * @param _settingId The ID of the setting to approve\n\t * @param _approved Whether to approve or reject\n\t */\n\tfunction approveSettingDeprecation(uint256 _settingId, bool _approved) public {\n\t\taddress _associatedTAOAdvocate = _nameFactory.ethAddressToNameId(msg.sender);\n\t\trequire (_aoSettingAttribute.approveDeprecation(_settingId, _associatedTAOAdvocate, _approved));\n\n\t\t(,,, address _associatedTAOId,,,,,,,,) = _aoSettingAttribute.getSettingDeprecation(_settingId);\n\t\temit ApproveSettingDeprecation(_settingId, _associatedTAOId, _associatedTAOAdvocate, _approved);\n\t}\n\n\t/**\n\t * @dev Advocate of SettingDeprecation's _creatorTAOId finalizes the setting deprecation once the setting deprecation is approved\n\t * @param _settingId The ID of the setting to be finalized\n\t */\n\tfunction finalizeSettingDeprecation(uint256 _settingId) public {\n\t\taddress _creatorTAOAdvocate = _nameFactory.ethAddressToNameId(msg.sender);\n\t\trequire (_aoSettingAttribute.finalizeDeprecation(_settingId, _creatorTAOAdvocate));\n\n\t\t(,, address _creatorTAOId,,,,,,,,,) = _aoSettingAttribute.getSettingDeprecation(_settingId);\n\t\temit FinalizeSettingDeprecation(_settingId, _creatorTAOId, _creatorTAOAdvocate);\n\t}\n\n\t/**\n\t * @dev Get setting Id given an associatedTAOId and settingName\n\t * @param _associatedTAOId The ID of the AssociatedTAO\n\t * @param _settingName The name of the setting\n\t * @return the ID of the setting\n\t */\n\tfunction getSettingIdByTAOName(address _associatedTAOId, string _settingName) public view returns (uint256) {\n\t\trequire (settingNameExist(_settingName, _associatedTAOId));\n\t\treturn nameSettingLookup[_associatedTAOId][keccak256(abi.encodePacked(this, _settingName))];\n\t}\n\n\t/**\n\t * @dev Get setting values by setting ID.\n\t *\t\tWill throw error if the setting is not exist or rejected.\n\t * @param _settingId The ID of the setting\n\t * @return the uint256 value of this setting ID\n\t * @return the bool value of this setting ID\n\t * @return the address value of this setting ID\n\t * @return the bytes32 value of this setting ID\n\t * @return the string value of this setting ID\n\t */\n\tfunction getSettingValuesById(uint256 _settingId) public view returns (uint256, bool, address, bytes32, string) {\n\t\treturn AOLibrary.getSettingValuesById(aoSettingAttributeAddress, aoUintSettingAddress, aoBoolSettingAddress, aoAddressSettingAddress, aoBytesSettingAddress, aoStringSettingAddress, _settingId);\n\t}\n\n\t/**\n\t * @dev Get setting values by taoId and settingName.\n\t *\t\tWill throw error if the setting is not exist or rejected.\n\t * @param _taoId The ID of the TAO\n\t * @param _settingName The name of the setting\n\t * @return the uint256 value of this setting ID\n\t * @return the bool value of this setting ID\n\t * @return the address value of this setting ID\n\t * @return the bytes32 value of this setting ID\n\t * @return the string value of this setting ID\n\t */\n\tfunction getSettingValuesByTAOName(address _taoId, string _settingName) public view returns (uint256, bool, address, bytes32, string) {\n\t\treturn AOLibrary.getSettingValuesById(aoSettingAttributeAddress, aoUintSettingAddress, aoBoolSettingAddress, aoAddressSettingAddress, aoBytesSettingAddress, aoStringSettingAddress, getSettingIdByTAOName(_taoId, _settingName));\n\t}\n\n\t/***** Internal Method *****/\n\t/**\n\t * @dev Store setting creation data\n\t * @param _creatorNameId The nameId that created the setting\n\t * @param _settingType The type of this setting. 1 => uint256, 2 => bool, 3 => address, 4 => bytes32, 5 => string\n\t * @param _settingName The human-readable name of the setting\n\t * @param _creatorTAOId The taoId that created the setting\n\t * @param _associatedTAOId The taoId that the setting affects\n\t * @param _extraData Catch-all string value to be stored if exist\n\t */\n\tfunction _storeSettingCreation(address _creatorNameId, uint8 _settingType, string _settingName, address _creatorTAOId, address _associatedTAOId, string _extraData) internal {\n\t\t// Make sure _settingType is in supported list\n\t\trequire (_settingType >= 1 && _settingType <= 5);\n\n\t\t// Store nameSettingLookup\n\t\tnameSettingLookup[_associatedTAOId][keccak256(abi.encodePacked(this, _settingName))] = totalSetting;\n\n\t\t// Store setting data/state\n\t\t(bytes32 _associatedTAOSettingId, bytes32 _creatorTAOSettingId) = _aoSettingAttribute.add(totalSetting, _creatorNameId, _settingType, _settingName, _creatorTAOId, _associatedTAOId, _extraData);\n\n\t\temit SettingCreation(totalSetting, _creatorNameId, _creatorTAOId, _associatedTAOId, _settingName, _settingType, _associatedTAOSettingId, _creatorTAOSettingId);\n\t}\n\n\t/**\n\t * @dev Move value of _settingId from pending variable to setting variable\n\t * @param _settingId The ID of the setting\n\t * @param _settingType The type of the setting\n\t */\n\tfunction _movePendingToSetting(uint256 _settingId, uint8 _settingType) internal {\n\t\t// If settingType == uint256\n\t\tif (_settingType == 1) {\n\t\t\t_aoUintSetting.movePendingToSetting(_settingId);\n\t\t} else if (_settingType == 2) {\n\t\t\t// Else if settingType == bool\n\t\t\t_aoBoolSetting.movePendingToSetting(_settingId);\n\t\t} else if (_settingType == 3) {\n\t\t\t// Else if settingType == address\n\t\t\t_aoAddressSetting.movePendingToSetting(_settingId);\n\t\t} else if (_settingType == 4) {\n\t\t\t// Else if settingType == bytes32\n\t\t\t_aoBytesSetting.movePendingToSetting(_settingId);\n\t\t} else {\n\t\t\t// Else if settingType == string\n\t\t\t_aoStringSetting.movePendingToSetting(_settingId);\n\t\t}\n\t}\n}\n",
	"sourcePath": "/home/jmulyono/ao-contracts/contracts/AOSetting.sol",
	"compiler": {
		"name": "solc",
		"version": "0.4.24+commit.e67f0147.Emscripten.clang"
	},
	"schemaVersion": "2.0.1",
	"updatedAt": "2018-12-19T05:20:18.498Z"
}