{
	"contractName": "AOSettingAttribute",
	"abi": [
		{
			"constant": true,
			"inputs": [],
			"name": "nameTAOPositionAddress",
			"outputs": [
				{
					"name": "",
					"type": "address"
				}
			],
			"payable": false,
			"stateMutability": "view",
			"type": "function"
		},
		{
			"constant": true,
			"inputs": [
				{
					"name": "",
					"type": "address"
				}
			],
			"name": "whitelist",
			"outputs": [
				{
					"name": "",
					"type": "bool"
				}
			],
			"payable": false,
			"stateMutability": "view",
			"type": "function"
		},
		{
			"constant": true,
			"inputs": [],
			"name": "theAO",
			"outputs": [
				{
					"name": "",
					"type": "address"
				}
			],
			"payable": false,
			"stateMutability": "view",
			"type": "function"
		},
		{
			"inputs": [
				{
					"name": "_nameTAOPositionAddress",
					"type": "address"
				}
			],
			"payable": false,
			"stateMutability": "nonpayable",
			"type": "constructor"
		},
		{
			"constant": false,
			"inputs": [
				{
					"name": "_theAO",
					"type": "address"
				}
			],
			"name": "transferOwnership",
			"outputs": [],
			"payable": false,
			"stateMutability": "nonpayable",
			"type": "function"
		},
		{
			"constant": false,
			"inputs": [
				{
					"name": "_account",
					"type": "address"
				},
				{
					"name": "_whitelist",
					"type": "bool"
				}
			],
			"name": "setWhitelist",
			"outputs": [],
			"payable": false,
			"stateMutability": "nonpayable",
			"type": "function"
		},
		{
			"constant": false,
			"inputs": [
				{
					"name": "_settingId",
					"type": "uint256"
				},
				{
					"name": "_creatorNameId",
					"type": "address"
				},
				{
					"name": "_settingType",
					"type": "uint8"
				},
				{
					"name": "_settingName",
					"type": "string"
				},
				{
					"name": "_creatorTAOId",
					"type": "address"
				},
				{
					"name": "_associatedTAOId",
					"type": "address"
				},
				{
					"name": "_extraData",
					"type": "string"
				}
			],
			"name": "add",
			"outputs": [
				{
					"name": "",
					"type": "bytes32"
				},
				{
					"name": "",
					"type": "bytes32"
				}
			],
			"payable": false,
			"stateMutability": "nonpayable",
			"type": "function"
		},
		{
			"constant": true,
			"inputs": [
				{
					"name": "_settingId",
					"type": "uint256"
				}
			],
			"name": "getSettingData",
			"outputs": [
				{
					"name": "",
					"type": "uint256"
				},
				{
					"name": "",
					"type": "address"
				},
				{
					"name": "",
					"type": "address"
				},
				{
					"name": "",
					"type": "address"
				},
				{
					"name": "",
					"type": "string"
				},
				{
					"name": "",
					"type": "uint8"
				},
				{
					"name": "",
					"type": "bool"
				},
				{
					"name": "",
					"type": "bool"
				},
				{
					"name": "",
					"type": "bool"
				},
				{
					"name": "",
					"type": "string"
				}
			],
			"payable": false,
			"stateMutability": "view",
			"type": "function"
		},
		{
			"constant": true,
			"inputs": [
				{
					"name": "_associatedTAOSettingId",
					"type": "bytes32"
				}
			],
			"name": "getAssociatedTAOSetting",
			"outputs": [
				{
					"name": "",
					"type": "bytes32"
				},
				{
					"name": "",
					"type": "address"
				},
				{
					"name": "",
					"type": "uint256"
				}
			],
			"payable": false,
			"stateMutability": "view",
			"type": "function"
		},
		{
			"constant": true,
			"inputs": [
				{
					"name": "_creatorTAOSettingId",
					"type": "bytes32"
				}
			],
			"name": "getCreatorTAOSetting",
			"outputs": [
				{
					"name": "",
					"type": "bytes32"
				},
				{
					"name": "",
					"type": "address"
				},
				{
					"name": "",
					"type": "uint256"
				}
			],
			"payable": false,
			"stateMutability": "view",
			"type": "function"
		},
		{
			"constant": false,
			"inputs": [
				{
					"name": "_settingId",
					"type": "uint256"
				},
				{
					"name": "_associatedTAOAdvocate",
					"type": "address"
				},
				{
					"name": "_approved",
					"type": "bool"
				}
			],
			"name": "approveAdd",
			"outputs": [
				{
					"name": "",
					"type": "bool"
				}
			],
			"payable": false,
			"stateMutability": "nonpayable",
			"type": "function"
		},
		{
			"constant": false,
			"inputs": [
				{
					"name": "_settingId",
					"type": "uint256"
				},
				{
					"name": "_creatorTAOAdvocate",
					"type": "address"
				}
			],
			"name": "finalizeAdd",
			"outputs": [
				{
					"name": "",
					"type": "bool"
				}
			],
			"payable": false,
			"stateMutability": "nonpayable",
			"type": "function"
		},
		{
			"constant": false,
			"inputs": [
				{
					"name": "_settingId",
					"type": "uint256"
				},
				{
					"name": "_settingType",
					"type": "uint8"
				},
				{
					"name": "_associatedTAOAdvocate",
					"type": "address"
				},
				{
					"name": "_proposalTAOId",
					"type": "address"
				},
				{
					"name": "_updateSignature",
					"type": "string"
				},
				{
					"name": "_extraData",
					"type": "string"
				}
			],
			"name": "update",
			"outputs": [
				{
					"name": "",
					"type": "bool"
				}
			],
			"payable": false,
			"stateMutability": "nonpayable",
			"type": "function"
		},
		{
			"constant": true,
			"inputs": [
				{
					"name": "_settingId",
					"type": "uint256"
				}
			],
			"name": "getSettingState",
			"outputs": [
				{
					"name": "",
					"type": "uint256"
				},
				{
					"name": "",
					"type": "bool"
				},
				{
					"name": "",
					"type": "address"
				},
				{
					"name": "",
					"type": "address"
				},
				{
					"name": "",
					"type": "string"
				},
				{
					"name": "",
					"type": "address"
				},
				{
					"name": "",
					"type": "string"
				}
			],
			"payable": false,
			"stateMutability": "view",
			"type": "function"
		},
		{
			"constant": false,
			"inputs": [
				{
					"name": "_settingId",
					"type": "uint256"
				},
				{
					"name": "_proposalTAOAdvocate",
					"type": "address"
				},
				{
					"name": "_approved",
					"type": "bool"
				}
			],
			"name": "approveUpdate",
			"outputs": [
				{
					"name": "",
					"type": "bool"
				}
			],
			"payable": false,
			"stateMutability": "nonpayable",
			"type": "function"
		},
		{
			"constant": false,
			"inputs": [
				{
					"name": "_settingId",
					"type": "uint256"
				},
				{
					"name": "_associatedTAOAdvocate",
					"type": "address"
				}
			],
			"name": "finalizeUpdate",
			"outputs": [
				{
					"name": "",
					"type": "bool"
				}
			],
			"payable": false,
			"stateMutability": "nonpayable",
			"type": "function"
		},
		{
			"constant": false,
			"inputs": [
				{
					"name": "_settingId",
					"type": "uint256"
				},
				{
					"name": "_creatorNameId",
					"type": "address"
				},
				{
					"name": "_creatorTAOId",
					"type": "address"
				},
				{
					"name": "_associatedTAOId",
					"type": "address"
				},
				{
					"name": "_newSettingId",
					"type": "uint256"
				},
				{
					"name": "_newSettingContractAddress",
					"type": "address"
				}
			],
			"name": "addDeprecation",
			"outputs": [
				{
					"name": "",
					"type": "bytes32"
				},
				{
					"name": "",
					"type": "bytes32"
				}
			],
			"payable": false,
			"stateMutability": "nonpayable",
			"type": "function"
		},
		{
			"constant": true,
			"inputs": [
				{
					"name": "_settingId",
					"type": "uint256"
				}
			],
			"name": "getSettingDeprecation",
			"outputs": [
				{
					"name": "",
					"type": "uint256"
				},
				{
					"name": "",
					"type": "address"
				},
				{
					"name": "",
					"type": "address"
				},
				{
					"name": "",
					"type": "address"
				},
				{
					"name": "",
					"type": "bool"
				},
				{
					"name": "",
					"type": "bool"
				},
				{
					"name": "",
					"type": "bool"
				},
				{
					"name": "",
					"type": "bool"
				},
				{
					"name": "",
					"type": "uint256"
				},
				{
					"name": "",
					"type": "uint256"
				},
				{
					"name": "",
					"type": "address"
				},
				{
					"name": "",
					"type": "address"
				}
			],
			"payable": false,
			"stateMutability": "view",
			"type": "function"
		},
		{
			"constant": true,
			"inputs": [
				{
					"name": "_associatedTAOSettingDeprecationId",
					"type": "bytes32"
				}
			],
			"name": "getAssociatedTAOSettingDeprecation",
			"outputs": [
				{
					"name": "",
					"type": "bytes32"
				},
				{
					"name": "",
					"type": "address"
				},
				{
					"name": "",
					"type": "uint256"
				}
			],
			"payable": false,
			"stateMutability": "view",
			"type": "function"
		},
		{
			"constant": true,
			"inputs": [
				{
					"name": "_creatorTAOSettingDeprecationId",
					"type": "bytes32"
				}
			],
			"name": "getCreatorTAOSettingDeprecation",
			"outputs": [
				{
					"name": "",
					"type": "bytes32"
				},
				{
					"name": "",
					"type": "address"
				},
				{
					"name": "",
					"type": "uint256"
				}
			],
			"payable": false,
			"stateMutability": "view",
			"type": "function"
		},
		{
			"constant": false,
			"inputs": [
				{
					"name": "_settingId",
					"type": "uint256"
				},
				{
					"name": "_associatedTAOAdvocate",
					"type": "address"
				},
				{
					"name": "_approved",
					"type": "bool"
				}
			],
			"name": "approveDeprecation",
			"outputs": [
				{
					"name": "",
					"type": "bool"
				}
			],
			"payable": false,
			"stateMutability": "nonpayable",
			"type": "function"
		},
		{
			"constant": false,
			"inputs": [
				{
					"name": "_settingId",
					"type": "uint256"
				},
				{
					"name": "_creatorTAOAdvocate",
					"type": "address"
				}
			],
			"name": "finalizeDeprecation",
			"outputs": [
				{
					"name": "",
					"type": "bool"
				}
			],
			"payable": false,
			"stateMutability": "nonpayable",
			"type": "function"
		},
		{
			"constant": true,
			"inputs": [
				{
					"name": "_settingId",
					"type": "uint256"
				}
			],
			"name": "settingExist",
			"outputs": [
				{
					"name": "",
					"type": "bool"
				}
			],
			"payable": false,
			"stateMutability": "view",
			"type": "function"
		},
		{
			"constant": true,
			"inputs": [
				{
					"name": "_settingId",
					"type": "uint256"
				}
			],
			"name": "getLatestSettingId",
			"outputs": [
				{
					"name": "",
					"type": "uint256"
				}
			],
			"payable": false,
			"stateMutability": "view",
			"type": "function"
		}
	],
	"bytecode": "0x608060405234801561001057600080fd5b50604051602080612ddc833981016040525160008054600160a060020a0319908116331790915560018054600160a060020a0390931692821683179055600380549091169091179055612d74806100686000396000f3006080604052600436106101325763ffffffff7c01000000000000000000000000000000000000000000000000000000006000350416632a82fdbd811461013757806346082aaf14610174578063479564d51461019d5780634a176017146101db5780634ef033f0146101ff57806353d6fd591461023057806353db5fdb1461025857806356b8c164146102705780635f39fd73146102885780637b0862e1146102b157806380c96527146102db57806381f3e897146102f357806383fee16d146104455780638ffd2a1b14610469578063982a23761461054d5780639b19251a14610565578063a57c091914610586578063a9b6b38e14610640578063ad58a7d214610655578063d79964c3146107a8578063eb10b4bd146107e2578063ed3ad43e14610868578063f2fde38b1461088c575b600080fd5b34801561014357600080fd5b50610160600435600160a060020a036024351660443515156108ad565b604080519115158252519081900360200190f35b34801561018057600080fd5b50610160600435600160a060020a03602435166044351515610a23565b3480156101a957600080fd5b506101b5600435610be7565b60408051938452600160a060020a03909216602084015282820152519081900360600190f35b3480156101e757600080fd5b50610160600435600160a060020a0360243516610c3c565b34801561020b57600080fd5b50610214610d8f565b60408051600160a060020a039092168252519081900360200190f35b34801561023c57600080fd5b50610256600160a060020a03600435166024351515610d9e565b005b34801561026457600080fd5b506101b5600435610e9d565b34801561027c57600080fd5b506101b5600435610ef2565b34801561029457600080fd5b50610160600435600160a060020a03602435166044351515610f47565b3480156102bd57600080fd5b506102c96004356110f8565b60408051918252519081900360200190f35b3480156102e757600080fd5b506101b5600435611150565b3480156102ff57600080fd5b5061030b6004356111a5565b604080518b8152600160a060020a03808c166020808401919091528b8216938301939093528916606082015260ff871660a082015285151560c082015284151560e082015283151561010082015261014060808201818152895191830191909152885191929091610120840191610160850191908b019080838360005b838110156103a0578181015183820152602001610388565b50505050905090810190601f1680156103cd5780820380516001836020036101000a031916815260200191505b50838103825284518152845160209182019186019080838360005b838110156104005781810151838201526020016103e8565b50505050905090810190601f16801561042d5780820380516001836020036101000a031916815260200191505b509c5050505050505050505050505060405180910390f35b34801561045157600080fd5b50610160600435600160a060020a03602435166113d6565b34801561047557600080fd5b50604080516020601f60643560048181013592830184900484028501840190955281845261053494803594600160a060020a0360248035919091169560ff60443516953695608494930191819084018382808284375050604080516020888301358a018035601f8101839004830284018301909452838352979a8935600160a060020a039081169b8b8401359091169a919990985060609091019650919450908101925081908401838280828437509497506115d39650505050505050565b6040805192835260208301919091528051918290030190f35b34801561055957600080fd5b5061016060043561185e565b34801561057157600080fd5b50610160600160a060020a0360043516611a42565b34801561059257600080fd5b50604080516020600460843581810135601f8101849004840285018401909552848452610160948235946024803560ff1695604435600160a060020a0390811696606435909116953695919460a494909391019190819084018382808284375050604080516020601f89358b018035918201839004830284018301909452808352979a999881019791965091820194509250829150840183828082843750949750611a579650505050505050565b34801561064c57600080fd5b50610214611efa565b34801561066157600080fd5b5061066d600435611f09565b604051808881526020018715151515815260200186600160a060020a0316600160a060020a0316815260200185600160a060020a0316600160a060020a031681526020018060200184600160a060020a0316600160a060020a0316815260200180602001838103835286818151815260200191508051906020019080838360005b838110156107065781810151838201526020016106ee565b50505050905090810190601f1680156107335780820380516001836020036101000a031916815260200191505b50838103825284518152845160209182019186019080838360005b8381101561076657818101518382015260200161074e565b50505050905090810190601f1680156107935780820380516001836020036101000a031916815260200191505b50995050505050505050505060405180910390f35b3480156107b457600080fd5b50610534600435600160a060020a036024358116906044358116906064358116906084359060a435166120e8565b3480156107ee57600080fd5b506107fa600435612399565b604080519c8d52600160a060020a039b8c1660208e0152998b168c8b0152978a1660608c015295151560808b015293151560a08a015291151560c0890152151560e0880152610100870152610120860152831661014085015290911661016083015251908190036101800190f35b34801561087457600080fd5b50610160600435600160a060020a03602435166125b2565b34801561089857600080fd5b50610256600160a060020a03600435166127b0565b33600090815260026020526040812054819060ff1615156001146108d057600080fd5b5060008481526004602052604090208054851480156108fe5750600581015460ff6101009091041615156001145b80156109195750600581015462010000900460ff1615156001145b8015610931575060058101546301000000900460ff16155b80156109455750600160a060020a03841615155b80156109de575060038054908201546040805160e060020a63fd6f4137028152600160a060020a0392831660048201529051919092169163fd6f41379160248083019260209291908290030181600087803b1580156109a357600080fd5b505af11580156109b7573d6000803e3d6000fd5b505050506040513d60208110156109cd57600080fd5b5051600160a060020a038581169116145b15156109e957600080fd5b8215610a025760058101805462ff000019169055610a18565b60058101805463ff00ff00191663010000001790555b506001949350505050565b33600090815260026020526040812054819060ff161515600114610a4657600080fd5b506000848152600660205260409020805485148015610a715750600381015460b860020a900460ff16155b8015610a9e5750600381015474010000000000000000000000000000000000000000900460ff1615156001145b8015610aba5750600381015460a860020a900460ff1615156001145b8015610ad25750600381015460b060020a900460ff16155b8015610ae65750600160a060020a03841615155b8015610b7f575060038054908201546040805160e060020a63fd6f4137028152600160a060020a0392831660048201529051919092169163fd6f41379160248083019260209291908290030181600087803b158015610b4457600080fd5b505af1158015610b58573d6000803e3d6000fd5b505050506040513d6020811015610b6e57600080fd5b5051600160a060020a038581169116145b1515610b8a57600080fd5b8215610bb65760038101805475ff00000000000000000000000000000000000000000019169055610a18565b600301805476ff00ff0000000000000000000000000000000000000000191660b060020a1790555060019392505050565b6000806000610bf4612b78565b50505060009182525060096020908152604091829020825160608101845281548082526001830154600160a060020a0316938201849052600290920154930183905292909190565b33600090815260026020526040812054819060ff161515600114610c5f57600080fd5b506000838152600460205260409020805484148015610c8d5750600581015460ff6101009091041615156001145b8015610ca45750600581015462010000900460ff16155b8015610cbc575060058101546301000000900460ff16155b8015610cd05750600160a060020a03831615155b8015610d69575060035460028201546040805160e060020a63fd6f4137028152600160a060020a0392831660048201529051919092169163fd6f41379160248083019260209291908290030181600087803b158015610d2e57600080fd5b505af1158015610d42573d6000803e3d6000fd5b505050506040513d6020811015610d5857600080fd5b5051600160a060020a038481169116145b1515610d7457600080fd5b600501805462ffff0019166201000017905550600192915050565b600154600160a060020a031681565b600054600154604080517ff66afcac000000000000000000000000000000000000000000000000000000008152336004820152600160a060020a0393841660248201529290911660448301525173__AOLibrary_____________________________9163f66afcac916064808301926020929190829003018186803b158015610e2657600080fd5b505af4158015610e3a573d6000803e3d6000fd5b505050506040513d6020811015610e5057600080fd5b50511515610e5d57600080fd5b600160a060020a0382161515610e7257600080fd5b600160a060020a03919091166000908152600260205260409020805460ff1916911515919091179055565b6000806000610eaa612b78565b505050600091825250600a6020908152604091829020825160608101845281548082526001830154600160a060020a0316938201849052600290920154930183905292909190565b6000806000610eff612b78565b50505060009182525060086020908152604091829020825160608101845281548082526001830154600160a060020a0316938201849052600290920154930183905292909190565b336000908152600260205260408120548190819060ff161515600114610f6c57600080fd5b6000868152600460205260409020805490925086148015610f9757506005820154610100900460ff16155b8015610fb25750600582015462010000900460ff1615156001145b8015610fca575060058201546301000000900460ff16155b1515610fd557600080fd5b506000858152600560205260409020805486148015610ffc575060018082015460ff161515145b80156110105750600160a060020a03851615155b80156110a9575060035460028201546040805160e060020a63fd6f4137028152600160a060020a0392831660048201529051919092169163fd6f41379160248083019260209291908290030181600087803b15801561106e57600080fd5b505af1158015611082573d6000803e3d6000fd5b505050506040513d602081101561109857600080fd5b5051600160a060020a038681169116145b15156110b457600080fd5b83156110cd5760058201805462ff0000191690556110ec565b60018101805460ff19169055600281018054600160a060020a03191690555b50600195945050505050565b600080600061110684612399565b50509950509850505050505050505b8180156111225750600081115b156111485780935061113384612399565b50929b50995061111598505050505050505050565b509192915050565b600080600061115d612b78565b50505060009182525060076020908152604091829020825160608101845281548082526001830154600160a060020a0316938201849052600290920154930183905292909190565b600080600080606060008060008060606111bd612b98565b60008c81526004602081815260409283902083516101408101855281548152600180830154600160a060020a039081168386015260028085015482168489015260038501549091166060840152948301805487516101009382161593909302600019011695909504601f8101859004850282018501909652858152909491936080860193919290918301828280156112965780601f1061126b57610100808354040283529160200191611296565b820191906000526020600020905b81548152906001019060200180831161127957829003601f168201915b5050509183525050600582015460ff808216602080850191909152610100808404831615156040808701919091526201000085048416151560608701526301000000909404909216151560808501526006850180548451600260018316159095026000190190911693909304601f810183900483028401830190945283835260a09094019391929083018282801561136f5780601f106113445761010080835404028352916020019161136f565b820191906000526020600020905b81548152906001019060200180831161135257829003601f168201915b5050505050815250509050806000015181602001518260400151836060015184608001518560a001518660c001518760e001518861010001518961012001518595508090509a509a509a509a509a509a509a509a509a509a50509193959799509193959799565b3360009081526002602052604081205481908190819060ff1615156001146113fd57600080fd5b600086815260046020526040902080549093508614801561142857506005830154610100900460ff16155b801561143f5750600583015462010000900460ff16155b8015611457575060058301546301000000900460ff16155b801561146b5750600160a060020a03851615155b8015611504575060038054908401546040805160e060020a63fd6f4137028152600160a060020a0392831660048201529051919092169163fd6f41379160248083019260209291908290030181600087803b1580156114c957600080fd5b505af11580156114dd573d6000803e3d6000fd5b505050506040513d60208110156114f357600080fd5b5051600160a060020a038681169116145b151561150f57600080fd5b6000868152600560205260409020805490925086148015611538575060018083015460ff161515145b801561155057506002820154600160a060020a031615155b151561155b57600080fd5b5060059190910180546201000062ff0000199091161790556001818101805474ffffffffffffffffffffffffffffffffffffffffff1916610100600160a060020a0396871602179055600282018054600160a060020a0319808216909255600490930180549390951692169190911790925550919050565b336000908152600260205260408120548190819081908190819060ff1615156001146115fe57600080fd5b61160d8d8d8d8d8d8d8d6128a6565b151561161857600080fd5b30888e6040516020018084600160a060020a0316600160a060020a03166c0100000000000000000000000002815260140183600160a060020a0316600160a060020a03166c0100000000000000000000000002815260140182815260200193505050506040516020818303038152906040526040518082805190602001908083835b602083106116b95780518252601f19909201916020918201910161169a565b6001836020036101000a03801982511681845116808217855250505050505090500191505060405180910390209350600760008560001916600019168152602001908152602001600020925083836000018160001916905550878360010160006101000a815481600160a060020a030219169083600160a060020a031602179055508c836002018190555030898e6040516020018084600160a060020a0316600160a060020a03166c0100000000000000000000000002815260140183600160a060020a0316600160a060020a03166c0100000000000000000000000002815260140182815260200193505050506040516020818303038152906040526040518082805190602001908083835b602083106117e55780518252601f1990920191602091820191016117c6565b51815160209384036101000a6000190180199092169116179052604080519290940182900390912060008181526008909252929020828155600181018054600160a060020a031916600160a060020a039f909f169e909e17909d55506002909b019e909e5550929c979b50969950505050505050505050565b6000611868612b98565b60008381526004602081815260409283902083516101408101855281548152600180830154600160a060020a039081168386015260028085015482168489015260038501549091166060840152948301805487516101009382161593909302600019011695909504601f8101859004850282018501909652858152909491936080860193919290918301828280156119415780601f1061191657610100808354040283529160200191611941565b820191906000526020600020905b81548152906001019060200180831161192457829003601f168201915b5050509183525050600582015460ff808216602080850191909152610100808404831615156040808701919091526201000085048416151560608701526301000000909404909216151560808501526006850180548451600260018316159095026000190190911693909304601f810183900483028401830190945283835260a090940193919290830182828015611a1a5780601f106119ef57610100808354040283529160200191611a1a565b820191906000526020600020905b8154815290600101906020018083116119fd57829003601f168201915b5050505050815250509050828160000151148015611a3b5750610100810151155b9392505050565b60026020526000908152604090205460ff1681565b6000611a61612b98565b6000611a6b612bee565b3360009081526002602052604090205460ff161515600114611a8c57600080fd5b60008a81526004602081815260409283902083516101408101855281548152600180830154600160a060020a039081168386015260028085015482168489015260038501549091166060840152948301805487516101009382161593909302600019011695909504601f810185900485028201850190965285815290949193608086019391929091830182828015611b655780601f10611b3a57610100808354040283529160200191611b65565b820191906000526020600020905b815481529060010190602001808311611b4857829003601f168201915b5050509183525050600582015460ff808216602080850191909152610100808404831615156040808701919091526201000085048416151560608701526301000000909404909216151560808501526006850180548451600260018316159095026000190190911693909304601f810183900483028401830190945283835260a090940193919290830182828015611c3e5780601f10611c1357610100808354040283529160200191611c3e565b820191906000526020600020905b815481529060010190602001808311611c2157829003601f168201915b5050505050815250509250898360000151148015611c6557508860ff168360a0015160ff16145b8015611c73575060c0830151155b8015611c85575060e083015115156001145b8015611c945750610100830151155b8015611ca85750600160a060020a03881615155b8015611d41575060035460608401516040805160e060020a63fd6f4137028152600160a060020a0392831660048201529051919092169163fd6f41379160248083019260209291908290030181600087803b158015611d0657600080fd5b505af1158015611d1a573d6000803e3d6000fd5b505050506040513d6020811015611d3057600080fd5b5051600160a060020a038981169116145b8015611d4e575060008651115b1515611d5957600080fd5b60008a8152600560205260409020600181015490925060ff1615611d7c57600080fd5b5060008981526006602081815260409283902083516101808101855281548082526001830154600160a060020a039081169483019490945260028301548416958201959095526003820154808416606083015260ff74010000000000000000000000000000000000000000820481161515608084015260a860020a82048116151560a084015260b060020a82048116151560c084015260b860020a90910416151560e0820152600482015461010082015260058201546101208201529281015482166101408401526007015416610160820152908a1415611e665760e081015115611e6657600080fd5b6001828101805460ff191690911774ffffffffffffffffffffffffffffffffffffffff001916610100600160a060020a038b81169190910291909117909155600283018054600160a060020a0319169189169190911790558551611ed39060038401906020890190612c52565b508451611ee99060058401906020880190612c52565b5060019a9950505050505050505050565b600054600160a060020a031681565b600080600080606060006060611f1d612cd0565b600089815260056020908152604091829020825160e0810184528154815260018083015460ff811615158386015261010090819004600160a060020a039081168488015260028086015490911660608501526003850180548851948116159093026000190190921604601f810186900486028301860190965285825291949293608086019391929190830182828015611ff75780601f10611fcc57610100808354040283529160200191611ff7565b820191906000526020600020905b815481529060010190602001808311611fda57829003601f168201915b50505091835250506004820154600160a060020a031660208083019190915260058301805460408051601f6002600019600186161561010002019094169390930492830185900485028101850182528281529401939283018282801561209e5780601f106120735761010080835404028352916020019161209e565b820191906000526020600020905b81548152906001019060200180831161208157829003601f168201915b5050509190925250508151602083015160408401516060850151608086015160a087015160c0880151959f50939d50919b5099509750955093509091505050919395979092949650565b336000908152600260205260408120548190819081908190819060ff16151560011461211357600080fd5b6121218c8c8c8c8c8c612975565b151561212c57600080fd5b30898d6040516020018084600160a060020a0316600160a060020a03166c0100000000000000000000000002815260140183600160a060020a0316600160a060020a03166c0100000000000000000000000002815260140182815260200193505050506040516020818303038152906040526040518082805190602001908083835b602083106121cd5780518252601f1990920191602091820191016121ae565b6001836020036101000a03801982511681845116808217855250505050505090500191505060405180910390209350600960008560001916600019168152602001908152602001600020925083836000018160001916905550888360010160006101000a815481600160a060020a030219169083600160a060020a031602179055508b8360020181905550308a8d6040516020018084600160a060020a0316600160a060020a03166c0100000000000000000000000002815260140183600160a060020a0316600160a060020a03166c0100000000000000000000000002815260140182815260200193505050506040516020818303038152906040526040518082805190602001908083835b602083106122f95780518252601f1990920191602091820191016122da565b6001836020036101000a03801982511681845116808217855250505050505090500191505060405180910390209150600a60008360001916600019168152602001908152602001600020905081816000018160001916905550898160010160006101000a815481600160a060020a030219169083600160a060020a031602179055508b816002018190555083829550955050505050965096945050505050565b6000806000806000806000806000806000806123b3612bee565b600660008f81526020019081526020016000206101806040519081016040529081600082015481526020016001820160009054906101000a9004600160a060020a0316600160a060020a0316600160a060020a031681526020016002820160009054906101000a9004600160a060020a0316600160a060020a0316600160a060020a031681526020016003820160009054906101000a9004600160a060020a0316600160a060020a0316600160a060020a031681526020016003820160149054906101000a900460ff161515151581526020016003820160159054906101000a900460ff161515151581526020016003820160169054906101000a900460ff161515151581526020016003820160179054906101000a900460ff1615151515815260200160048201548152602001600582015481526020016006820160009054906101000a9004600160a060020a0316600160a060020a0316600160a060020a031681526020016007820160009054906101000a9004600160a060020a0316600160a060020a0316600160a060020a0316815250509050806000015181602001518260400151836060015184608001518560a001518660c001518760e001518861010001518961012001518a61014001518b61016001519c509c509c509c509c509c509c509c509c509c509c509c505091939597999b5091939597999b565b3360009081526002602052604081205481908190819060ff1615156001146125d957600080fd5b60008681526006602052604090208054909350861480156126065750600383015460b860020a900460ff16155b80156126335750600383015474010000000000000000000000000000000000000000900460ff1615156001145b801561264b5750600383015460a860020a900460ff16155b80156126635750600383015460b060020a900460ff16155b80156126775750600160a060020a03851615155b8015612710575060035460028401546040805160e060020a63fd6f4137028152600160a060020a0392831660048201529051919092169163fd6f41379160248083019260209291908290030181600087803b1580156126d557600080fd5b505af11580156126e9573d6000803e3d6000fd5b505050506040513d60208110156126ff57600080fd5b5051600160a060020a038681169116145b151561271b57600080fd5b505060038101805477ff00000000000000000000000000000000000000000000001975ffff00000000000000000000000000000000000000001990911660a860020a171660b860020a17905560048101805460009091556005820155600681018054600160a060020a031980821690925560079092018054909116600160a060020a0390921691909117905550600192915050565b600054600154604080517ff66afcac000000000000000000000000000000000000000000000000000000008152336004820152600160a060020a0393841660248201529290911660448301525173__AOLibrary_____________________________9163f66afcac916064808301926020929190829003018186803b15801561283857600080fd5b505af415801561284c573d6000803e3d6000fd5b505050506040513d602081101561286257600080fd5b5051151561286f57600080fd5b600160a060020a038116151561288457600080fd5b60008054600160a060020a031916600160a060020a0392909216919091179055565b600087815260046020818152604083208a8155600181018054600160a060020a03808d16600160a060020a0319928316179092556002830180548a8416908316179055600383018054928916929091169190911790558751909284926129139291850191908a0190612c52565b506005820180546201000061010060ff1990921660ff8c161761ff0019169190911762ff0000191617905583516129539060068401906020870190612c52565b5050506000888152600560205260409020979097555060019695505050505050565b6000868152600460205260408120600101548190600160a060020a0316158015906129b957506000888152600460205260409020600501546301000000900460ff16155b80156129dc5750600088815260046020526040902060050154610100900460ff16155b15156129e757600080fd5b600088815260066020526040902060010154600160a060020a031615612a0c57600080fd5b600084815260046020526040902060010154600160a060020a031615801590612a4e57506000848152600460205260409020600501546301000000900460ff16155b8015612a715750600084815260046020526040902060050154610100900460ff16155b1515612a7c57600080fd5b6000848152600460205260408082206005908101548b8452919092209091015460ff908116911614612aad57600080fd5b5050600086815260066020819052604090912096875560018088018054600160a060020a0319908116600160a060020a03998a161790915560028901805482169789169790971790965560038801805460a860020a74010000000000000000000000000000000000000000918916978a169790971774ff000000000000000000000000000000000000000019161775ff000000000000000000000000000000000000000000191695909517909455600487019290925594018054909216939092169290921790915590565b604080516060810182526000808252602082018190529181019190915290565b604080516101408101825260008082526020820181905291810182905260608082018390526080820181905260a0820183905260c0820183905260e0820183905261010082019290925261012081019190915290565b6040805161018081018252600080825260208201819052918101829052606081018290526080810182905260a0810182905260c0810182905260e0810182905261010081018290526101208101829052610140810182905261016081019190915290565b828054600181600116156101000203166002900490600052602060002090601f016020900481019282601f10612c9357805160ff1916838001178555612cc0565b82800160010185558215612cc0579182015b82811115612cc0578251825591602001919060010190612ca5565b50612ccc929150612d2b565b5090565b60e060405190810160405280600081526020016000151581526020016000600160a060020a031681526020016000600160a060020a03168152602001606081526020016000600160a060020a03168152602001606081525090565b612d4591905b80821115612ccc5760008155600101612d31565b905600a165627a7a72305820848f334271e87284158bec65309f7940e7ebfbccb24571e7673e93065ad5bedb0029",
	"source": "pragma solidity ^0.4.24;\n\nimport './AOLibrary.sol';\nimport \"./TheAO.sol\";\nimport './NameTAOPosition.sol';\n\n/**\n * @title AOSettingAttribute\n *\n * This contract stores all AO setting data/state\n */\ncontract AOSettingAttribute is TheAO {\n\tNameTAOPosition internal _nameTAOPosition;\n\n\tstruct SettingData {\n\t\tuint256 settingId;\t\t\t\t// Identifier of this setting\n\t\taddress creatorNameId;\t\t\t// The nameId that created the setting\n\t\taddress creatorTAOId;\t\t// The taoId that created the setting\n\t\taddress associatedTAOId;\t// The taoId that the setting affects\n\t\tstring settingName;\t\t\t\t// The human-readable name of the setting\n\t\t/**\n\t\t * 1 => uint256\n\t\t * 2 => bool\n\t\t * 3 => address\n\t\t * 4 => bytes32\n\t\t * 5 => string (catch all)\n\t\t */\n\t\tuint8 settingType;\n\t\tbool pendingCreate;\t\t\t\t// State when associatedTAOId has not accepted setting\n\t\tbool locked;\t\t\t\t\t// State when pending anything (cannot change if locked)\n\t\tbool rejected;\t\t\t\t\t// State when associatedTAOId rejected this setting\n\t\tstring settingDataJSON;\t\t\t// Catch-all\n\t}\n\n\tstruct SettingState {\n\t\tuint256 settingId;\t\t\t\t// Identifier of this setting\n\t\tbool pendingUpdate;\t\t\t\t// State when setting is in process of being updated\n\t\taddress updateAdvocateNameId;\t// The nameId of the Advocate that performed the update\n\n\t\t/**\n\t\t * A child of the associatedTAOId with the update Logos.\n\t\t * This tells the setting contract that there is a proposal TAO that is a Child TAO\n\t\t * of the associated TAO, which will be responsible for deciding if the update to the\n\t\t * setting is accepted or rejected.\n\t\t */\n\t\taddress proposalTAOId;\n\n\t\t/**\n\t\t * Signature of the proposalTAOId and update value by the associatedTAOId\n\t\t * Advocate's Name's address.\n\t\t */\n\t\tstring updateSignature;\n\n\t\t/**\n\t\t * The proposalTAOId moves here when setting value changes successfully\n\t\t */\n\t\taddress lastUpdateTAOId;\n\n\t\tstring settingStateJSON;\t\t// Catch-all\n\t}\n\n\tstruct SettingDeprecation {\n\t\tuint256 settingId;\t\t\t\t// Identifier of this setting\n\t\taddress creatorNameId;\t\t\t// The nameId that created this deprecation\n\t\taddress creatorTAOId;\t\t// The taoId that created this deprecation\n\t\taddress associatedTAOId;\t// The taoId that the setting affects\n\t\tbool pendingDeprecated;\t\t\t// State when associatedTAOId has not accepted setting\n\t\tbool locked;\t\t\t\t\t// State when pending anything (cannot change if locked)\n\t\tbool rejected;\t\t\t\t\t// State when associatedTAOId rejected this setting\n\t\tbool migrated;\t\t\t\t\t// State when this setting is fully migrated\n\n\t\t// holds the pending new settingId value when a deprecation is set\n\t\tuint256 pendingNewSettingId;\n\n\t\t// holds the new settingId that has been approved by associatedTAOId\n\t\tuint256 newSettingId;\n\n\t\t// holds the pending new contract address for this setting\n\t\taddress pendingNewSettingContractAddress;\n\n\t\t// holds the new contract address for this setting\n\t\taddress newSettingContractAddress;\n\t}\n\n\tstruct AssociatedTAOSetting {\n\t\tbytes32 associatedTAOSettingId;\t\t// Identifier\n\t\taddress associatedTAOId;\t\t\t// The TAO ID that the setting is associated to\n\t\tuint256 settingId;\t\t\t\t\t\t// The Setting ID that is associated with the TAO ID\n\t}\n\n\tstruct CreatorTAOSetting {\n\t\tbytes32 creatorTAOSettingId;\t\t// Identifier\n\t\taddress creatorTAOId;\t\t\t\t// The TAO ID that the setting was created from\n\t\tuint256 settingId;\t\t\t\t\t\t// The Setting ID created from the TAO ID\n\t}\n\n\tstruct AssociatedTAOSettingDeprecation {\n\t\tbytes32 associatedTAOSettingDeprecationId;\t\t// Identifier\n\t\taddress associatedTAOId;\t\t\t\t\t\t// The TAO ID that the setting is associated to\n\t\tuint256 settingId;\t\t\t\t\t\t\t\t\t// The Setting ID that is associated with the TAO ID\n\t}\n\n\tstruct CreatorTAOSettingDeprecation {\n\t\tbytes32 creatorTAOSettingDeprecationId;\t\t\t// Identifier\n\t\taddress creatorTAOId;\t\t\t\t\t\t\t// The TAO ID that the setting was created from\n\t\tuint256 settingId;\t\t\t\t\t\t\t\t\t// The Setting ID created from the TAO ID\n\t}\n\n\t// Mapping from settingId to it's data\n\tmapping (uint256 => SettingData) internal settingDatas;\n\n\t// Mapping from settingId to it's state\n\tmapping (uint256 => SettingState) internal settingStates;\n\n\t// Mapping from settingId to it's deprecation info\n\tmapping (uint256 => SettingDeprecation) internal settingDeprecations;\n\n\t// Mapping from associatedTAOSettingId to AssociatedTAOSetting\n\tmapping (bytes32 => AssociatedTAOSetting) internal associatedTAOSettings;\n\n\t// Mapping from creatorTAOSettingId to CreatorTAOSetting\n\tmapping (bytes32 => CreatorTAOSetting) internal creatorTAOSettings;\n\n\t// Mapping from associatedTAOSettingDeprecationId to AssociatedTAOSettingDeprecation\n\tmapping (bytes32 => AssociatedTAOSettingDeprecation) internal associatedTAOSettingDeprecations;\n\n\t// Mapping from creatorTAOSettingDeprecationId to CreatorTAOSettingDeprecation\n\tmapping (bytes32 => CreatorTAOSettingDeprecation) internal creatorTAOSettingDeprecations;\n\n\t/**\n\t * @dev Constructor function\n\t */\n\tconstructor(address _nameTAOPositionAddress) public {\n\t\tnameTAOPositionAddress = _nameTAOPositionAddress;\n\t\t_nameTAOPosition = NameTAOPosition(_nameTAOPositionAddress);\n\t}\n\n\t/**\n\t * @dev Checks if the calling contract address is The AO\n\t *\t\tOR\n\t *\t\tIf The AO is set to a Name/TAO, then check if calling address is the Advocate\n\t */\n\tmodifier onlyTheAO {\n\t\trequire (AOLibrary.isTheAO(msg.sender, theAO, nameTAOPositionAddress));\n\t\t_;\n\t}\n\n\t/***** The AO ONLY METHODS *****/\n\t/**\n\t * @dev Transfer ownership of The AO to new address\n\t * @param _theAO The new address to be transferred\n\t */\n\tfunction transferOwnership(address _theAO) public onlyTheAO {\n\t\trequire (_theAO != address(0));\n\t\ttheAO = _theAO;\n\t}\n\n\t/**\n\t * @dev Whitelist `_account` address to transact on behalf of others\n\t * @param _account The address to whitelist\n\t * @param _whitelist Either to whitelist or not\n\t */\n\tfunction setWhitelist(address _account, bool _whitelist) public onlyTheAO {\n\t\trequire (_account != address(0));\n\t\twhitelist[_account] = _whitelist;\n\t}\n\n\t/**\n\t * @dev Add setting data/state\n\t * @param _settingId The ID of the setting\n\t * @param _creatorNameId The nameId that created the setting\n\t * @param _settingType The type of this setting. 1 => uint256, 2 => bool, 3 => address, 4 => bytes32, 5 => string\n\t * @param _settingName The human-readable name of the setting\n\t * @param _creatorTAOId The taoId that created the setting\n\t * @param _associatedTAOId The taoId that the setting affects\n\t * @param _extraData Catch-all string value to be stored if exist\n\t * @return The ID of the \"Associated\" setting\n\t * @return The ID of the \"Creator\" setting\n\t */\n\tfunction add(uint256 _settingId, address _creatorNameId, uint8 _settingType, string _settingName, address _creatorTAOId, address _associatedTAOId, string _extraData) public inWhitelist returns (bytes32, bytes32) {\n\t\t// Store setting data/state\n\t\trequire (_storeSettingDataState(_settingId, _creatorNameId, _settingType, _settingName, _creatorTAOId, _associatedTAOId, _extraData));\n\n\t\t// Store the associatedTAOSetting info\n\t\tbytes32 _associatedTAOSettingId = keccak256(abi.encodePacked(this, _associatedTAOId, _settingId));\n\t\tAssociatedTAOSetting storage _associatedTAOSetting = associatedTAOSettings[_associatedTAOSettingId];\n\t\t_associatedTAOSetting.associatedTAOSettingId = _associatedTAOSettingId;\n\t\t_associatedTAOSetting.associatedTAOId = _associatedTAOId;\n\t\t_associatedTAOSetting.settingId = _settingId;\n\n\t\t// Store the creatorTAOSetting info\n\t\tbytes32 _creatorTAOSettingId = keccak256(abi.encodePacked(this, _creatorTAOId, _settingId));\n\t\tCreatorTAOSetting storage _creatorTAOSetting = creatorTAOSettings[_creatorTAOSettingId];\n\t\t_creatorTAOSetting.creatorTAOSettingId = _creatorTAOSettingId;\n\t\t_creatorTAOSetting.creatorTAOId = _creatorTAOId;\n\t\t_creatorTAOSetting.settingId = _settingId;\n\n\t\treturn (_associatedTAOSettingId, _creatorTAOSettingId);\n\t}\n\n\t/**\n\t * @dev Get Setting Data of a setting ID\n\t * @param _settingId The ID of the setting\n\t */\n\tfunction getSettingData(uint256 _settingId) public view returns (uint256, address, address, address, string, uint8, bool, bool, bool, string) {\n\t\tSettingData memory _settingData = settingDatas[_settingId];\n\t\treturn (\n\t\t\t_settingData.settingId,\n\t\t\t_settingData.creatorNameId,\n\t\t\t_settingData.creatorTAOId,\n\t\t\t_settingData.associatedTAOId,\n\t\t\t_settingData.settingName,\n\t\t\t_settingData.settingType,\n\t\t\t_settingData.pendingCreate,\n\t\t\t_settingData.locked,\n\t\t\t_settingData.rejected,\n\t\t\t_settingData.settingDataJSON\n\t\t);\n\t}\n\n\t/**\n\t * @dev Get Associated TAO Setting info\n\t * @param _associatedTAOSettingId The ID of the associated tao setting\n\t */\n\tfunction getAssociatedTAOSetting(bytes32 _associatedTAOSettingId) public view returns (bytes32, address, uint256) {\n\t\tAssociatedTAOSetting memory _associatedTAOSetting = associatedTAOSettings[_associatedTAOSettingId];\n\t\treturn (\n\t\t\t_associatedTAOSetting.associatedTAOSettingId,\n\t\t\t_associatedTAOSetting.associatedTAOId,\n\t\t\t_associatedTAOSetting.settingId\n\t\t);\n\t}\n\n\t/**\n\t * @dev Get Creator TAO Setting info\n\t * @param _creatorTAOSettingId The ID of the creator tao setting\n\t */\n\tfunction getCreatorTAOSetting(bytes32 _creatorTAOSettingId) public view returns (bytes32, address, uint256) {\n\t\tCreatorTAOSetting memory _creatorTAOSetting = creatorTAOSettings[_creatorTAOSettingId];\n\t\treturn (\n\t\t\t_creatorTAOSetting.creatorTAOSettingId,\n\t\t\t_creatorTAOSetting.creatorTAOId,\n\t\t\t_creatorTAOSetting.settingId\n\t\t);\n\t}\n\n\t/**\n\t * @dev Advocate of Setting's _associatedTAOId approves setting creation\n\t * @param _settingId The ID of the setting to approve\n\t * @param _associatedTAOAdvocate The advocate of the associated TAO\n\t * @param _approved Whether to approve or reject\n\t * @return true on success\n\t */\n\tfunction approveAdd(uint256 _settingId, address _associatedTAOAdvocate, bool _approved) public inWhitelist returns (bool) {\n\t\t// Make sure setting exists and needs approval\n\t\tSettingData storage _settingData = settingDatas[_settingId];\n\t\trequire (_settingData.settingId == _settingId &&\n\t\t\t_settingData.pendingCreate == true &&\n\t\t\t_settingData.locked == true &&\n\t\t\t_settingData.rejected == false &&\n\t\t\t_associatedTAOAdvocate != address(0) &&\n\t\t\t_associatedTAOAdvocate == _nameTAOPosition.getAdvocate(_settingData.associatedTAOId)\n\t\t);\n\n\t\tif (_approved) {\n\t\t\t// Unlock the setting so that advocate of creatorTAOId can finalize the creation\n\t\t\t_settingData.locked = false;\n\t\t} else {\n\t\t\t// Reject the setting\n\t\t\t_settingData.pendingCreate = false;\n\t\t\t_settingData.rejected = true;\n\t\t}\n\n\t\treturn true;\n\t}\n\n\t/**\n\t * @dev Advocate of Setting's _creatorTAOId finalizes the setting creation once the setting is approved\n\t * @param _settingId The ID of the setting to be finalized\n\t * @param _creatorTAOAdvocate The advocate of the creator TAO\n\t * @return true on success\n\t */\n\tfunction finalizeAdd(uint256 _settingId, address _creatorTAOAdvocate) public inWhitelist returns (bool) {\n\t\t// Make sure setting exists and needs approval\n\t\tSettingData storage _settingData = settingDatas[_settingId];\n\t\trequire (_settingData.settingId == _settingId &&\n\t\t\t_settingData.pendingCreate == true &&\n\t\t\t_settingData.locked == false &&\n\t\t\t_settingData.rejected == false &&\n\t\t\t_creatorTAOAdvocate != address(0) &&\n\t\t\t_creatorTAOAdvocate == _nameTAOPosition.getAdvocate(_settingData.creatorTAOId)\n\t\t);\n\n\t\t// Update the setting data\n\t\t_settingData.pendingCreate = false;\n\t\t_settingData.locked = true;\n\n\t\treturn true;\n\t}\n\n\t/**\n\t * @dev Store setting update data\n\t * @param _settingId The ID of the setting to be updated\n\t * @param _settingType The type of this setting\n\t * @param _associatedTAOAdvocate The setting's associatedTAOId's advocate's name address\n\t * @param _proposalTAOId The child of the associatedTAOId with the update Logos\n\t * @param _updateSignature A signature of the proposalTAOId and update value by _associatedTAOAdvocate\n\t * @param _extraData Catch-all string value to be stored if exist\n\t * @return true on success\n\t */\n\tfunction update(uint256 _settingId, uint8 _settingType, address _associatedTAOAdvocate, address _proposalTAOId, string _updateSignature, string _extraData) public inWhitelist returns (bool) {\n\t\t// Make sure setting is created\n\t\tSettingData memory _settingData = settingDatas[_settingId];\n\t\trequire (_settingData.settingId == _settingId &&\n\t\t\t_settingData.settingType == _settingType &&\n\t\t\t_settingData.pendingCreate == false &&\n\t\t\t_settingData.locked == true &&\n\t\t\t_settingData.rejected == false &&\n\t\t\t_associatedTAOAdvocate != address(0) &&\n\t\t\t_associatedTAOAdvocate == _nameTAOPosition.getAdvocate(_settingData.associatedTAOId) &&\n\t\t\tbytes(_updateSignature).length > 0\n\t\t);\n\n\t\t// Make sure setting is not in the middle of updating\n\t\tSettingState storage _settingState = settingStates[_settingId];\n\t\trequire (_settingState.pendingUpdate == false);\n\n\t\t// Make sure setting is not yet deprecated\n\t\tSettingDeprecation memory _settingDeprecation = settingDeprecations[_settingId];\n\t\tif (_settingDeprecation.settingId == _settingId) {\n\t\t\trequire (_settingDeprecation.migrated == false);\n\t\t}\n\n\t\t// Store the SettingState data\n\t\t_settingState.pendingUpdate = true;\n\t\t_settingState.updateAdvocateNameId = _associatedTAOAdvocate;\n\t\t_settingState.proposalTAOId = _proposalTAOId;\n\t\t_settingState.updateSignature = _updateSignature;\n\t\t_settingState.settingStateJSON = _extraData;\n\n\t\treturn true;\n\t}\n\n\t/**\n\t * @dev Get setting state\n\t * @param _settingId The ID of the setting\n\t */\n\tfunction getSettingState(uint256 _settingId) public view returns (uint256, bool, address, address, string, address, string) {\n\t\tSettingState memory _settingState = settingStates[_settingId];\n\t\treturn (\n\t\t\t_settingState.settingId,\n\t\t\t_settingState.pendingUpdate,\n\t\t\t_settingState.updateAdvocateNameId,\n\t\t\t_settingState.proposalTAOId,\n\t\t\t_settingState.updateSignature,\n\t\t\t_settingState.lastUpdateTAOId,\n\t\t\t_settingState.settingStateJSON\n\t\t);\n\t}\n\n\t/**\n\t * @dev Advocate of Setting's proposalTAOId approves the setting update\n\t * @param _settingId The ID of the setting to be approved\n\t * @param _proposalTAOAdvocate The advocate of the proposal TAO\n\t * @param _approved Whether to approve or reject\n\t * @return true on success\n\t */\n\tfunction approveUpdate(uint256 _settingId, address _proposalTAOAdvocate, bool _approved) public inWhitelist returns (bool) {\n\t\t// Make sure setting is created\n\t\tSettingData storage _settingData = settingDatas[_settingId];\n\t\trequire (_settingData.settingId == _settingId && _settingData.pendingCreate == false && _settingData.locked == true && _settingData.rejected == false);\n\n\t\t// Make sure setting update exists and needs approval\n\t\tSettingState storage _settingState = settingStates[_settingId];\n\t\trequire (_settingState.settingId == _settingId &&\n\t\t\t_settingState.pendingUpdate == true &&\n\t\t\t_proposalTAOAdvocate != address(0) &&\n\t\t\t_proposalTAOAdvocate == _nameTAOPosition.getAdvocate(_settingState.proposalTAOId)\n\t\t);\n\n\t\tif (_approved) {\n\t\t\t// Unlock the setting so that advocate of associatedTAOId can finalize the update\n\t\t\t_settingData.locked = false;\n\t\t} else {\n\t\t\t// Set pendingUpdate to false\n\t\t\t_settingState.pendingUpdate = false;\n\t\t\t_settingState.proposalTAOId = address(0);\n\t\t}\n\t\treturn true;\n\t}\n\n\t/**\n\t * @dev Advocate of Setting's _associatedTAOId finalizes the setting update once the setting is approved\n\t * @param _settingId The ID of the setting to be finalized\n\t * @param _associatedTAOAdvocate The advocate of the associated TAO\n\t * @return true on success\n\t */\n\tfunction finalizeUpdate(uint256 _settingId, address _associatedTAOAdvocate) public inWhitelist returns (bool) {\n\t\t// Make sure setting is created\n\t\tSettingData storage _settingData = settingDatas[_settingId];\n\t\trequire (_settingData.settingId == _settingId &&\n\t\t\t_settingData.pendingCreate == false &&\n\t\t\t_settingData.locked == false &&\n\t\t\t_settingData.rejected == false &&\n\t\t\t_associatedTAOAdvocate != address(0) &&\n\t\t\t_associatedTAOAdvocate == _nameTAOPosition.getAdvocate(_settingData.associatedTAOId)\n\t\t);\n\n\t\t// Make sure setting update exists and needs approval\n\t\tSettingState storage _settingState = settingStates[_settingId];\n\t\trequire (_settingState.settingId == _settingId && _settingState.pendingUpdate == true && _settingState.proposalTAOId != address(0));\n\n\t\t// Update the setting data\n\t\t_settingData.locked = true;\n\n\t\t// Update the setting state\n\t\t_settingState.pendingUpdate = false;\n\t\t_settingState.updateAdvocateNameId = _associatedTAOAdvocate;\n\t\taddress _proposalTAOId = _settingState.proposalTAOId;\n\t\t_settingState.proposalTAOId = address(0);\n\t\t_settingState.lastUpdateTAOId = _proposalTAOId;\n\n\t\treturn true;\n\t}\n\n\t/**\n\t * @dev Add setting deprecation\n\t * @param _settingId The ID of the setting\n\t * @param _creatorNameId The nameId that created the setting\n\t * @param _creatorTAOId The taoId that created the setting\n\t * @param _associatedTAOId The taoId that the setting affects\n\t * @param _newSettingId The new settingId value to route\n\t * @param _newSettingContractAddress The address of the new setting contract to route\n\t * @return The ID of the \"Associated\" setting deprecation\n\t * @return The ID of the \"Creator\" setting deprecation\n\t */\n\tfunction addDeprecation(uint256 _settingId, address _creatorNameId, address _creatorTAOId, address _associatedTAOId, uint256 _newSettingId, address _newSettingContractAddress) public inWhitelist returns (bytes32, bytes32) {\n\t\trequire (_storeSettingDeprecation(_settingId, _creatorNameId, _creatorTAOId, _associatedTAOId, _newSettingId, _newSettingContractAddress));\n\n\t\t// Store the associatedTAOSettingDeprecation info\n\t\tbytes32 _associatedTAOSettingDeprecationId = keccak256(abi.encodePacked(this, _associatedTAOId, _settingId));\n\t\tAssociatedTAOSettingDeprecation storage _associatedTAOSettingDeprecation = associatedTAOSettingDeprecations[_associatedTAOSettingDeprecationId];\n\t\t_associatedTAOSettingDeprecation.associatedTAOSettingDeprecationId = _associatedTAOSettingDeprecationId;\n\t\t_associatedTAOSettingDeprecation.associatedTAOId = _associatedTAOId;\n\t\t_associatedTAOSettingDeprecation.settingId = _settingId;\n\n\t\t// Store the creatorTAOSettingDeprecation info\n\t\tbytes32 _creatorTAOSettingDeprecationId = keccak256(abi.encodePacked(this, _creatorTAOId, _settingId));\n\t\tCreatorTAOSettingDeprecation storage _creatorTAOSettingDeprecation = creatorTAOSettingDeprecations[_creatorTAOSettingDeprecationId];\n\t\t_creatorTAOSettingDeprecation.creatorTAOSettingDeprecationId = _creatorTAOSettingDeprecationId;\n\t\t_creatorTAOSettingDeprecation.creatorTAOId = _creatorTAOId;\n\t\t_creatorTAOSettingDeprecation.settingId = _settingId;\n\n\t\treturn (_associatedTAOSettingDeprecationId, _creatorTAOSettingDeprecationId);\n\t}\n\n\t/**\n\t * @dev Get Setting Deprecation info of a setting ID\n\t * @param _settingId The ID of the setting\n\t */\n\tfunction getSettingDeprecation(uint256 _settingId) public view returns (uint256, address, address, address, bool, bool, bool, bool, uint256, uint256, address, address) {\n\t\tSettingDeprecation memory _settingDeprecation = settingDeprecations[_settingId];\n\t\treturn (\n\t\t\t_settingDeprecation.settingId,\n\t\t\t_settingDeprecation.creatorNameId,\n\t\t\t_settingDeprecation.creatorTAOId,\n\t\t\t_settingDeprecation.associatedTAOId,\n\t\t\t_settingDeprecation.pendingDeprecated,\n\t\t\t_settingDeprecation.locked,\n\t\t\t_settingDeprecation.rejected,\n\t\t\t_settingDeprecation.migrated,\n\t\t\t_settingDeprecation.pendingNewSettingId,\n\t\t\t_settingDeprecation.newSettingId,\n\t\t\t_settingDeprecation.pendingNewSettingContractAddress,\n\t\t\t_settingDeprecation.newSettingContractAddress\n\t\t);\n\t}\n\n\t/**\n\t * @dev Get Associated TAO Setting Deprecation info\n\t * @param _associatedTAOSettingDeprecationId The ID of the associated tao setting deprecation\n\t */\n\tfunction getAssociatedTAOSettingDeprecation(bytes32 _associatedTAOSettingDeprecationId) public view returns (bytes32, address, uint256) {\n\t\tAssociatedTAOSettingDeprecation memory _associatedTAOSettingDeprecation = associatedTAOSettingDeprecations[_associatedTAOSettingDeprecationId];\n\t\treturn (\n\t\t\t_associatedTAOSettingDeprecation.associatedTAOSettingDeprecationId,\n\t\t\t_associatedTAOSettingDeprecation.associatedTAOId,\n\t\t\t_associatedTAOSettingDeprecation.settingId\n\t\t);\n\t}\n\n\t/**\n\t * @dev Get Creator TAO Setting Deprecation info\n\t * @param _creatorTAOSettingDeprecationId The ID of the creator tao setting deprecation\n\t */\n\tfunction getCreatorTAOSettingDeprecation(bytes32 _creatorTAOSettingDeprecationId) public view returns (bytes32, address, uint256) {\n\t\tCreatorTAOSettingDeprecation memory _creatorTAOSettingDeprecation = creatorTAOSettingDeprecations[_creatorTAOSettingDeprecationId];\n\t\treturn (\n\t\t\t_creatorTAOSettingDeprecation.creatorTAOSettingDeprecationId,\n\t\t\t_creatorTAOSettingDeprecation.creatorTAOId,\n\t\t\t_creatorTAOSettingDeprecation.settingId\n\t\t);\n\t}\n\n\t/**\n\t * @dev Advocate of SettingDeprecation's _associatedTAOId approves deprecation\n\t * @param _settingId The ID of the setting to approve\n\t * @param _associatedTAOAdvocate The advocate of the associated TAO\n\t * @param _approved Whether to approve or reject\n\t * @return true on success\n\t */\n\tfunction approveDeprecation(uint256 _settingId, address _associatedTAOAdvocate, bool _approved) public inWhitelist returns (bool) {\n\t\t// Make sure setting exists and needs approval\n\t\tSettingDeprecation storage _settingDeprecation = settingDeprecations[_settingId];\n\t\trequire (_settingDeprecation.settingId == _settingId &&\n\t\t\t_settingDeprecation.migrated == false &&\n\t\t\t_settingDeprecation.pendingDeprecated == true &&\n\t\t\t_settingDeprecation.locked == true &&\n\t\t\t_settingDeprecation.rejected == false &&\n\t\t\t_associatedTAOAdvocate != address(0) &&\n\t\t\t_associatedTAOAdvocate == _nameTAOPosition.getAdvocate(_settingDeprecation.associatedTAOId)\n\t\t);\n\n\t\tif (_approved) {\n\t\t\t// Unlock the setting so that advocate of creatorTAOId can finalize the creation\n\t\t\t_settingDeprecation.locked = false;\n\t\t} else {\n\t\t\t// Reject the setting\n\t\t\t_settingDeprecation.pendingDeprecated = false;\n\t\t\t_settingDeprecation.rejected = true;\n\t\t}\n\t\treturn true;\n\t}\n\n\t/**\n\t * @dev Advocate of SettingDeprecation's _creatorTAOId finalizes the deprecation once the setting deprecation is approved\n\t * @param _settingId The ID of the setting to be finalized\n\t * @param _creatorTAOAdvocate The advocate of the creator TAO\n\t * @return true on success\n\t */\n\tfunction finalizeDeprecation(uint256 _settingId, address _creatorTAOAdvocate) public inWhitelist returns (bool) {\n\t\t// Make sure setting exists and needs approval\n\t\tSettingDeprecation storage _settingDeprecation = settingDeprecations[_settingId];\n\t\trequire (_settingDeprecation.settingId == _settingId &&\n\t\t\t_settingDeprecation.migrated == false &&\n\t\t\t_settingDeprecation.pendingDeprecated == true &&\n\t\t\t_settingDeprecation.locked == false &&\n\t\t\t_settingDeprecation.rejected == false &&\n\t\t\t_creatorTAOAdvocate != address(0) &&\n\t\t\t_creatorTAOAdvocate == _nameTAOPosition.getAdvocate(_settingDeprecation.creatorTAOId)\n\t\t);\n\n\t\t// Update the setting data\n\t\t_settingDeprecation.pendingDeprecated = false;\n\t\t_settingDeprecation.locked = true;\n\t\t_settingDeprecation.migrated = true;\n\t\tuint256 _newSettingId = _settingDeprecation.pendingNewSettingId;\n\t\t_settingDeprecation.pendingNewSettingId = 0;\n\t\t_settingDeprecation.newSettingId = _newSettingId;\n\n\t\taddress _newSettingContractAddress = _settingDeprecation.pendingNewSettingContractAddress;\n\t\t_settingDeprecation.pendingNewSettingContractAddress = address(0);\n\t\t_settingDeprecation.newSettingContractAddress = _newSettingContractAddress;\n\t\treturn true;\n\t}\n\n\t/**\n\t * @dev Check if a setting exist and not rejected\n\t * @param _settingId The ID of the setting\n\t * @return true if exist. false otherwise\n\t */\n\tfunction settingExist(uint256 _settingId) public view returns (bool) {\n\t\tSettingData memory _settingData = settingDatas[_settingId];\n\t\treturn (_settingData.settingId == _settingId && _settingData.rejected == false);\n\t}\n\n\t/**\n\t * @dev Get the latest ID of a deprecated setting, if exist\n\t * @param _settingId The ID of the setting\n\t * @return The latest setting ID\n\t */\n\tfunction getLatestSettingId(uint256 _settingId) public view returns (uint256) {\n\t\t(,,,,,,, bool _migrated,, uint256 _newSettingId,,) = getSettingDeprecation(_settingId);\n\t\twhile (_migrated && _newSettingId > 0) {\n\t\t\t_settingId = _newSettingId;\n\t\t\t(,,,,,,, _migrated,, _newSettingId,,) = getSettingDeprecation(_settingId);\n\t\t}\n\t\treturn _settingId;\n\t}\n\n\t/***** Internal Method *****/\n\t/**\n\t * @dev Store setting data/state\n\t * @param _settingId The ID of the setting\n\t * @param _creatorNameId The nameId that created the setting\n\t * @param _settingType The type of this setting. 1 => uint256, 2 => bool, 3 => address, 4 => bytes32, 5 => string\n\t * @param _settingName The human-readable name of the setting\n\t * @param _creatorTAOId The taoId that created the setting\n\t * @param _associatedTAOId The taoId that the setting affects\n\t * @param _extraData Catch-all string value to be stored if exist\n\t * @return true on success\n\t */\n\tfunction _storeSettingDataState(uint256 _settingId, address _creatorNameId, uint8 _settingType, string _settingName, address _creatorTAOId, address _associatedTAOId, string _extraData) internal returns (bool) {\n\t\t// Store setting data\n\t\tSettingData storage _settingData = settingDatas[_settingId];\n\t\t_settingData.settingId = _settingId;\n\t\t_settingData.creatorNameId = _creatorNameId;\n\t\t_settingData.creatorTAOId = _creatorTAOId;\n\t\t_settingData.associatedTAOId = _associatedTAOId;\n\t\t_settingData.settingName = _settingName;\n\t\t_settingData.settingType = _settingType;\n\t\t_settingData.pendingCreate = true;\n\t\t_settingData.locked = true;\n\t\t_settingData.settingDataJSON = _extraData;\n\n\t\t// Store setting state\n\t\tSettingState storage _settingState = settingStates[_settingId];\n\t\t_settingState.settingId = _settingId;\n\t\treturn true;\n\t}\n\n\t/**\n\t * @dev Store setting deprecation\n\t * @param _settingId The ID of the setting\n\t * @param _creatorNameId The nameId that created the setting\n\t * @param _creatorTAOId The taoId that created the setting\n\t * @param _associatedTAOId The taoId that the setting affects\n\t * @param _newSettingId The new settingId value to route\n\t * @param _newSettingContractAddress The address of the new setting contract to route\n\t * @return true on success\n\t */\n\tfunction _storeSettingDeprecation(uint256 _settingId, address _creatorNameId, address _creatorTAOId, address _associatedTAOId, uint256 _newSettingId, address _newSettingContractAddress) internal returns (bool) {\n\t\t// Make sure this setting exists\n\t\trequire (settingDatas[_settingId].creatorNameId != address(0) && settingDatas[_settingId].rejected == false && settingDatas[_settingId].pendingCreate == false);\n\n\t\t// Make sure deprecation is not yet exist for this setting Id\n\t\trequire (settingDeprecations[_settingId].creatorNameId == address(0));\n\n\t\t// Make sure newSettingId exists\n\t\trequire (settingDatas[_newSettingId].creatorNameId != address(0) && settingDatas[_newSettingId].rejected == false && settingDatas[_newSettingId].pendingCreate == false);\n\n\t\t// Make sure the settingType matches\n\t\trequire (settingDatas[_settingId].settingType == settingDatas[_newSettingId].settingType);\n\n\t\t// Store setting deprecation info\n\t\tSettingDeprecation storage _settingDeprecation = settingDeprecations[_settingId];\n\t\t_settingDeprecation.settingId = _settingId;\n\t\t_settingDeprecation.creatorNameId = _creatorNameId;\n\t\t_settingDeprecation.creatorTAOId = _creatorTAOId;\n\t\t_settingDeprecation.associatedTAOId = _associatedTAOId;\n\t\t_settingDeprecation.pendingDeprecated = true;\n\t\t_settingDeprecation.locked = true;\n\t\t_settingDeprecation.pendingNewSettingId = _newSettingId;\n\t\t_settingDeprecation.pendingNewSettingContractAddress = _newSettingContractAddress;\n\t\treturn true;\n\t}\n}\n",
	"sourcePath": "/Users/johanmulyono/Work/AO/ao-contracts/contracts/AOSettingAttribute.sol",
	"compiler": {
		"name": "solc",
		"version": "0.4.24+commit.e67f0147.Emscripten.clang"
	},
	"schemaVersion": "2.0.1",
	"updatedAt": "2019-01-07T04:52:08.773Z"
}