{
  "contractName": "AOSettingAttribute",
  "abi": [
    {
      "constant": true,
      "inputs": [],
      "name": "nameTAOPositionAddress",
      "outputs": [
        {
          "name": "",
          "type": "address"
        }
      ],
      "payable": false,
      "stateMutability": "view",
      "type": "function"
    },
    {
      "constant": true,
      "inputs": [
        {
          "name": "",
          "type": "address"
        }
      ],
      "name": "whitelist",
      "outputs": [
        {
          "name": "",
          "type": "bool"
        }
      ],
      "payable": false,
      "stateMutability": "view",
      "type": "function"
    },
    {
      "constant": true,
      "inputs": [],
      "name": "theAO",
      "outputs": [
        {
          "name": "",
          "type": "address"
        }
      ],
      "payable": false,
      "stateMutability": "view",
      "type": "function"
    },
    {
      "inputs": [
        {
          "name": "_nameTAOPositionAddress",
          "type": "address"
        }
      ],
      "payable": false,
      "stateMutability": "nonpayable",
      "type": "constructor"
    },
    {
      "constant": false,
      "inputs": [
        {
          "name": "_theAO",
          "type": "address"
        }
      ],
      "name": "transferOwnership",
      "outputs": [],
      "payable": false,
      "stateMutability": "nonpayable",
      "type": "function"
    },
    {
      "constant": false,
      "inputs": [
        {
          "name": "_account",
          "type": "address"
        },
        {
          "name": "_whitelist",
          "type": "bool"
        }
      ],
      "name": "setWhitelist",
      "outputs": [],
      "payable": false,
      "stateMutability": "nonpayable",
      "type": "function"
    },
    {
      "constant": false,
      "inputs": [
        {
          "name": "_nameTAOPositionAddress",
          "type": "address"
        }
      ],
      "name": "setNameTAOPositionAddress",
      "outputs": [],
      "payable": false,
      "stateMutability": "nonpayable",
      "type": "function"
    },
    {
      "constant": false,
      "inputs": [
        {
          "name": "_settingId",
          "type": "uint256"
        },
        {
          "name": "_creatorNameId",
          "type": "address"
        },
        {
          "name": "_settingName",
          "type": "string"
        },
        {
          "name": "_creatorTAOId",
          "type": "address"
        },
        {
          "name": "_associatedTAOId",
          "type": "address"
        },
        {
          "name": "_extraData",
          "type": "string"
        }
      ],
      "name": "add",
      "outputs": [
        {
          "name": "",
          "type": "bytes32"
        },
        {
          "name": "",
          "type": "bytes32"
        }
      ],
      "payable": false,
      "stateMutability": "nonpayable",
      "type": "function"
    },
    {
      "constant": true,
      "inputs": [
        {
          "name": "_settingId",
          "type": "uint256"
        }
      ],
      "name": "getSettingData",
      "outputs": [
        {
          "name": "",
          "type": "uint256"
        },
        {
          "name": "",
          "type": "address"
        },
        {
          "name": "",
          "type": "address"
        },
        {
          "name": "",
          "type": "address"
        },
        {
          "name": "",
          "type": "string"
        },
        {
          "name": "",
          "type": "bool"
        },
        {
          "name": "",
          "type": "bool"
        },
        {
          "name": "",
          "type": "bool"
        },
        {
          "name": "",
          "type": "string"
        }
      ],
      "payable": false,
      "stateMutability": "view",
      "type": "function"
    },
    {
      "constant": true,
      "inputs": [
        {
          "name": "_associatedTAOSettingId",
          "type": "bytes32"
        }
      ],
      "name": "getAssociatedTAOSetting",
      "outputs": [
        {
          "name": "",
          "type": "bytes32"
        },
        {
          "name": "",
          "type": "address"
        },
        {
          "name": "",
          "type": "uint256"
        }
      ],
      "payable": false,
      "stateMutability": "view",
      "type": "function"
    },
    {
      "constant": true,
      "inputs": [
        {
          "name": "_creatorTAOSettingId",
          "type": "bytes32"
        }
      ],
      "name": "getCreatorTAOSetting",
      "outputs": [
        {
          "name": "",
          "type": "bytes32"
        },
        {
          "name": "",
          "type": "address"
        },
        {
          "name": "",
          "type": "uint256"
        }
      ],
      "payable": false,
      "stateMutability": "view",
      "type": "function"
    },
    {
      "constant": false,
      "inputs": [
        {
          "name": "_settingId",
          "type": "uint256"
        },
        {
          "name": "_associatedTAOAdvocate",
          "type": "address"
        },
        {
          "name": "_approved",
          "type": "bool"
        }
      ],
      "name": "approveAdd",
      "outputs": [
        {
          "name": "",
          "type": "bool"
        }
      ],
      "payable": false,
      "stateMutability": "nonpayable",
      "type": "function"
    },
    {
      "constant": false,
      "inputs": [
        {
          "name": "_settingId",
          "type": "uint256"
        },
        {
          "name": "_creatorTAOAdvocate",
          "type": "address"
        }
      ],
      "name": "finalizeAdd",
      "outputs": [
        {
          "name": "",
          "type": "bool"
        }
      ],
      "payable": false,
      "stateMutability": "nonpayable",
      "type": "function"
    },
    {
      "constant": false,
      "inputs": [
        {
          "name": "_settingId",
          "type": "uint256"
        },
        {
          "name": "_associatedTAOAdvocate",
          "type": "address"
        },
        {
          "name": "_proposalTAOId",
          "type": "address"
        },
        {
          "name": "_extraData",
          "type": "string"
        }
      ],
      "name": "update",
      "outputs": [
        {
          "name": "",
          "type": "bool"
        }
      ],
      "payable": false,
      "stateMutability": "nonpayable",
      "type": "function"
    },
    {
      "constant": true,
      "inputs": [
        {
          "name": "_settingId",
          "type": "uint256"
        }
      ],
      "name": "getSettingState",
      "outputs": [
        {
          "name": "",
          "type": "uint256"
        },
        {
          "name": "",
          "type": "bool"
        },
        {
          "name": "",
          "type": "address"
        },
        {
          "name": "",
          "type": "address"
        },
        {
          "name": "",
          "type": "address"
        },
        {
          "name": "",
          "type": "string"
        }
      ],
      "payable": false,
      "stateMutability": "view",
      "type": "function"
    },
    {
      "constant": false,
      "inputs": [
        {
          "name": "_settingId",
          "type": "uint256"
        },
        {
          "name": "_proposalTAOAdvocate",
          "type": "address"
        },
        {
          "name": "_approved",
          "type": "bool"
        }
      ],
      "name": "approveUpdate",
      "outputs": [
        {
          "name": "",
          "type": "bool"
        }
      ],
      "payable": false,
      "stateMutability": "nonpayable",
      "type": "function"
    },
    {
      "constant": false,
      "inputs": [
        {
          "name": "_settingId",
          "type": "uint256"
        },
        {
          "name": "_associatedTAOAdvocate",
          "type": "address"
        }
      ],
      "name": "finalizeUpdate",
      "outputs": [
        {
          "name": "",
          "type": "bool"
        }
      ],
      "payable": false,
      "stateMutability": "nonpayable",
      "type": "function"
    },
    {
      "constant": false,
      "inputs": [
        {
          "name": "_settingId",
          "type": "uint256"
        },
        {
          "name": "_creatorNameId",
          "type": "address"
        },
        {
          "name": "_creatorTAOId",
          "type": "address"
        },
        {
          "name": "_associatedTAOId",
          "type": "address"
        },
        {
          "name": "_newSettingId",
          "type": "uint256"
        },
        {
          "name": "_newSettingContractAddress",
          "type": "address"
        }
      ],
      "name": "addDeprecation",
      "outputs": [
        {
          "name": "",
          "type": "bytes32"
        },
        {
          "name": "",
          "type": "bytes32"
        }
      ],
      "payable": false,
      "stateMutability": "nonpayable",
      "type": "function"
    },
    {
      "constant": true,
      "inputs": [
        {
          "name": "_settingId",
          "type": "uint256"
        }
      ],
      "name": "getSettingDeprecation",
      "outputs": [
        {
          "name": "",
          "type": "uint256"
        },
        {
          "name": "",
          "type": "address"
        },
        {
          "name": "",
          "type": "address"
        },
        {
          "name": "",
          "type": "address"
        },
        {
          "name": "",
          "type": "bool"
        },
        {
          "name": "",
          "type": "bool"
        },
        {
          "name": "",
          "type": "bool"
        },
        {
          "name": "",
          "type": "bool"
        },
        {
          "name": "",
          "type": "uint256"
        },
        {
          "name": "",
          "type": "uint256"
        },
        {
          "name": "",
          "type": "address"
        },
        {
          "name": "",
          "type": "address"
        }
      ],
      "payable": false,
      "stateMutability": "view",
      "type": "function"
    },
    {
      "constant": true,
      "inputs": [
        {
          "name": "_associatedTAOSettingDeprecationId",
          "type": "bytes32"
        }
      ],
      "name": "getAssociatedTAOSettingDeprecation",
      "outputs": [
        {
          "name": "",
          "type": "bytes32"
        },
        {
          "name": "",
          "type": "address"
        },
        {
          "name": "",
          "type": "uint256"
        }
      ],
      "payable": false,
      "stateMutability": "view",
      "type": "function"
    },
    {
      "constant": true,
      "inputs": [
        {
          "name": "_creatorTAOSettingDeprecationId",
          "type": "bytes32"
        }
      ],
      "name": "getCreatorTAOSettingDeprecation",
      "outputs": [
        {
          "name": "",
          "type": "bytes32"
        },
        {
          "name": "",
          "type": "address"
        },
        {
          "name": "",
          "type": "uint256"
        }
      ],
      "payable": false,
      "stateMutability": "view",
      "type": "function"
    },
    {
      "constant": false,
      "inputs": [
        {
          "name": "_settingId",
          "type": "uint256"
        },
        {
          "name": "_associatedTAOAdvocate",
          "type": "address"
        },
        {
          "name": "_approved",
          "type": "bool"
        }
      ],
      "name": "approveDeprecation",
      "outputs": [
        {
          "name": "",
          "type": "bool"
        }
      ],
      "payable": false,
      "stateMutability": "nonpayable",
      "type": "function"
    },
    {
      "constant": false,
      "inputs": [
        {
          "name": "_settingId",
          "type": "uint256"
        },
        {
          "name": "_creatorTAOAdvocate",
          "type": "address"
        }
      ],
      "name": "finalizeDeprecation",
      "outputs": [
        {
          "name": "",
          "type": "bool"
        }
      ],
      "payable": false,
      "stateMutability": "nonpayable",
      "type": "function"
    },
    {
      "constant": true,
      "inputs": [
        {
          "name": "_settingId",
          "type": "uint256"
        }
      ],
      "name": "settingExist",
      "outputs": [
        {
          "name": "",
          "type": "bool"
        }
      ],
      "payable": false,
      "stateMutability": "view",
      "type": "function"
    },
    {
      "constant": true,
      "inputs": [
        {
          "name": "_settingId",
          "type": "uint256"
        }
      ],
      "name": "getLatestSettingId",
      "outputs": [
        {
          "name": "",
          "type": "uint256"
        }
      ],
      "payable": false,
      "stateMutability": "view",
      "type": "function"
    }
  ],
  "bytecode": "0x60806040523480156200001157600080fd5b5060405160208062002cfd833981018060405260208110156200003357600080fd5b5051600080546001600160a01b03191633179055620000598162000060602090811b901c565b5062000161565b600054600154604080517ff66afcac0000000000000000000000000000000000000000000000000000000081523360048201526001600160a01b0393841660248201529290911660448301525173__AOLibrary_____________________________9163f66afcac916064808301926020929190829003018186803b158015620000e957600080fd5b505af4158015620000fe573d6000803e3d6000fd5b505050506040513d60208110156200011557600080fd5b50516200012157600080fd5b6001600160a01b0381166200013557600080fd5b600180546001600160a01b039092166001600160a01b0319928316811790915560038054909216179055565b612b8c80620001716000396000f3fe608060405234801561001057600080fd5b50600436106101585760003560e01c806380c96527116100c3578063ad58a7d21161007c578063ad58a7d21461066a578063c555ca1e1461075c578063d79964c3146107ec578063eb10b4bd14610838578063ed3ad43e146108c3578063f2fde38b146108ef57610158565b806380c965271461046857806381f3e8971461048557806383fee16d146105f3578063982a23761461061f5780639b19251a1461063c578063a9b6b38e1461066257610158565b806353d6fd591161011557806353d6fd591461037557806353db5fdb146103a557806356b8c164146103c25780635cfaf2ef146103df5780635f39fd73146104055780637b0862e11461043957610158565b80632a82fdbd1461015d57806346082aaf146101a5578063479564d5146101d95780634a1760171461021c5780634c5598cd146102485780634ef033f014610351575b600080fd5b6101916004803603606081101561017357600080fd5b508035906001600160a01b0360208201351690604001351515610915565b604080519115158252519081900360200190f35b610191600480360360608110156101bb57600080fd5b508035906001600160a01b0360208201351690604001351515610a7a565b6101f6600480360360208110156101ef57600080fd5b5035610c17565b604080519384526001600160a01b03909216602084015282820152519081900360600190f35b6101916004803603604081101561023257600080fd5b50803590602001356001600160a01b0316610c6c565b610338600480360360c081101561025e57600080fd5b8135916001600160a01b036020820135169181019060608101604082013564010000000081111561028e57600080fd5b8201836020820111156102a057600080fd5b803590602001918460018302840111640100000000831117156102c257600080fd5b919390926001600160a01b03833581169360208101359091169291906060810190604001356401000000008111156102f957600080fd5b82018360208201111561030b57600080fd5b8035906020019184600183028401116401000000008311171561032d57600080fd5b509092509050610dae565b6040805192835260208301919091528051918290030190f35b610359610e78565b604080516001600160a01b039092168252519081900360200190f35b6103a36004803603604081101561038b57600080fd5b506001600160a01b0381351690602001351515610e87565b005b6101f6600480360360208110156103bb57600080fd5b5035610f6c565b6101f6600480360360208110156103d857600080fd5b5035610fc1565b6103a3600480360360208110156103f557600080fd5b50356001600160a01b0316611016565b6101916004803603606081101561041b57600080fd5b508035906001600160a01b03602082013516906040013515156110fc565b6104566004803603602081101561044f57600080fd5b5035611298565b60408051918252519081900360200190f35b6101f66004803603602081101561047e57600080fd5b50356113c9565b6104a26004803603602081101561049b57600080fd5b503561141e565b604051808a8152602001896001600160a01b03166001600160a01b03168152602001886001600160a01b03166001600160a01b03168152602001876001600160a01b03166001600160a01b031681526020018060200186151515158152602001851515151581526020018415151515815260200180602001838103835288818151815260200191508051906020019080838360005b8381101561054f578181015183820152602001610537565b50505050905090810190601f16801561057c5780820380516001836020036101000a031916815260200191505b50838103825284518152845160209182019186019080838360005b838110156105af578181015183820152602001610597565b50505050905090810190601f1680156105dc5780820380516001836020036101000a031916815260200191505b509b50505050505050505050505060405180910390f35b6101916004803603604081101561060957600080fd5b50803590602001356001600160a01b0316611638565b6101916004803603602081101561063557600080fd5b503561180e565b6101916004803603602081101561065257600080fd5b50356001600160a01b03166119e3565b6103596119f8565b6106876004803603602081101561068057600080fd5b5035611a07565b6040518087815260200186151515158152602001856001600160a01b03166001600160a01b03168152602001846001600160a01b03166001600160a01b03168152602001836001600160a01b03166001600160a01b0316815260200180602001828103825283818151815260200191508051906020019080838360005b8381101561071c578181015183820152602001610704565b50505050905090810190601f1680156107495780820380516001836020036101000a031916815260200191505b5097505050505050505060405180910390f35b6101916004803603608081101561077257600080fd5b8135916001600160a01b036020820135811692604083013590911691908101906080810160608201356401000000008111156107ad57600080fd5b8201836020820111156107bf57600080fd5b803590602001918460018302840111640100000000831117156107e157600080fd5b509092509050611b3b565b610338600480360360c081101561080257600080fd5b508035906001600160a01b0360208201358116916040810135821691606082013581169160808101359160a09091013516611f66565b6108556004803603602081101561084e57600080fd5b5035612123565b604080519c8d526001600160a01b039b8c1660208e0152998b168c8b0152978a1660608c015295151560808b015293151560a08a015291151560c0890152151560e0880152610100870152610120860152831661014085015290911661016083015251908190036101800190f35b610191600480360360408110156108d957600080fd5b50803590602001356001600160a01b031661233b565b6103a36004803603602081101561090557600080fd5b50356001600160a01b0316612508565b3360009081526002602052604081205460ff16151560011461093657600080fd5b600084815260046020526040902080548514801561095d5750600581015460ff1615156001145b80156109785750600581015460ff6101009091041615156001145b801561098f5750600581015462010000900460ff16155b80156109a357506001600160a01b03841615155b8015610a3a5750600380549082015460408051600160e01b63fd6f41370281526001600160a01b0392831660048201529051919092169163fd6f4137916024808301926020929190829003018186803b1580156109ff57600080fd5b505afa158015610a13573d6000803e3d6000fd5b505050506040513d6020811015610a2957600080fd5b50516001600160a01b038581169116145b610a4357600080fd5b8215610a5b5760058101805461ff0019169055610a6f565b60058101805462ff00ff1916620100001790555b506001949350505050565b3360009081526002602052604081205460ff161515600114610a9b57600080fd5b6000848152600660205260409020805485148015610ac557506003810154600160b81b900460ff16155b8015610ae157506003810154600160a01b900460ff1615156001145b8015610afd57506003810154600160a81b900460ff1615156001145b8015610b1557506003810154600160b01b900460ff16155b8015610b2957506001600160a01b03841615155b8015610bc05750600380549082015460408051600160e01b63fd6f41370281526001600160a01b0392831660048201529051919092169163fd6f4137916024808301926020929190829003018186803b158015610b8557600080fd5b505afa158015610b99573d6000803e3d6000fd5b505050506040513d6020811015610baf57600080fd5b50516001600160a01b038581169116145b610bc957600080fd5b8215610be657600381018054600160a81b60ff0219169055610a6f565b600301805476ff00ff00000000000000000000000000000000000000001916600160b01b1790555060019392505050565b6000806000610c24612932565b505050600091825250600960209081526040918290208251606081018452815480825260018301546001600160a01b0316938201849052600290920154930183905292909190565b3360009081526002602052604081205460ff161515600114610c8d57600080fd5b6000838152600460205260409020805484148015610cb45750600581015460ff1615156001145b8015610cca57506005810154610100900460ff16155b8015610ce15750600581015462010000900460ff16155b8015610cf557506001600160a01b03831615155b8015610d8c5750600354600282015460408051600160e01b63fd6f41370281526001600160a01b0392831660048201529051919092169163fd6f4137916024808301926020929190829003018186803b158015610d5157600080fd5b505afa158015610d65573d6000803e3d6000fd5b505050506040513d6020811015610d7b57600080fd5b50516001600160a01b038481169116145b610d9557600080fd5b600501805461ffff191661010017905550600192915050565b33600090815260026020526040812054819060ff161515600114610dd157600080fd5b610e4a8a8a8a8a8080601f01602080910402602001604051908101604052809392919081815260200183838082843760009201919091525050604080516020601f8c018190048102820181019092528a81528d93508c9250908b908b90819084018382808284376000920191909152506125e492505050565b610e5357600080fd5b610e5d858b61269f565b610e67878c612719565b915091509850989650505050505050565b6001546001600160a01b031681565b60005460015460408051600160e21b633d9abf2b0281523360048201526001600160a01b0393841660248201529290911660448301525173__AOLibrary_____________________________9163f66afcac916064808301926020929190829003018186803b158015610ef957600080fd5b505af4158015610f0d573d6000803e3d6000fd5b505050506040513d6020811015610f2357600080fd5b5051610f2e57600080fd5b6001600160a01b038216610f4157600080fd5b6001600160a01b03919091166000908152600260205260409020805460ff1916911515919091179055565b6000806000610f79612932565b505050600091825250600a60209081526040918290208251606081018452815480825260018301546001600160a01b0316938201849052600290920154930183905292909190565b6000806000610fce612932565b505050600091825250600860209081526040918290208251606081018452815480825260018301546001600160a01b0316938201849052600290920154930183905292909190565b60005460015460408051600160e21b633d9abf2b0281523360048201526001600160a01b0393841660248201529290911660448301525173__AOLibrary_____________________________9163f66afcac916064808301926020929190829003018186803b15801561108857600080fd5b505af415801561109c573d6000803e3d6000fd5b505050506040513d60208110156110b257600080fd5b50516110bd57600080fd5b6001600160a01b0381166110d057600080fd5b600180546001600160a01b039092166001600160a01b0319928316811790915560038054909216179055565b3360009081526002602052604081205460ff16151560011461111d57600080fd5b60008481526004602052604090208054851480156111405750600581015460ff16155b801561115b5750600581015460ff6101009091041615156001145b80156111725750600581015462010000900460ff16155b61117b57600080fd5b60008581526005602052604090208054861480156111a1575060018082015460ff161515145b80156111b557506001600160a01b03851615155b801561124c5750600354600282015460408051600160e01b63fd6f41370281526001600160a01b0392831660048201529051919092169163fd6f4137916024808301926020929190829003018186803b15801561121157600080fd5b505afa158015611225573d6000803e3d6000fd5b505050506040513d602081101561123b57600080fd5b50516001600160a01b038681169116145b61125557600080fd5b831561126d5760058201805461ff001916905561128c565b60018101805460ff191690556002810180546001600160a01b03191690555b50600195945050505050565b600080829050600080306001600160a01b031663eb10b4bd846040518263ffffffff1660e01b8152600401808281526020019150506101806040518083038186803b1580156112e657600080fd5b505afa1580156112fa573d6000803e3d6000fd5b505050506040513d61018081101561131157600080fd5b5060e08101516101209091015190925090505b8180156113315750600081115b156113c057809250306001600160a01b031663eb10b4bd846040518263ffffffff1660e01b8152600401808281526020019150506101806040518083038186803b15801561137e57600080fd5b505afa158015611392573d6000803e3d6000fd5b505050506040513d6101808110156113a957600080fd5b5060e0810151610120909101519092509050611324565b50909392505050565b60008060006113d6612932565b505050600091825250600760209081526040918290208251606081018452815480825260018301546001600160a01b0316938201849052600290920154930183905292909190565b600080600080606060008060006060611435612952565b60008b815260046020818152604092839020835161012081018552815481526001808301546001600160a01b039081168386015260028085015482168489015260038501549091166060840152948301805487516101009382161593909302600019011695909504601f81018590048502820185019096528581529094919360808601939192909183018282801561150e5780601f106114e35761010080835404028352916020019161150e565b820191906000526020600020905b8154815290600101906020018083116114f157829003601f168201915b5050509183525050600582015460ff80821615156020808501919091526101008084048316151560408087019190915262010000909404909216151560608501526006850180548451600260018316159095026000190190911693909304601f81018390048302840183019094528383526080909401939192908301828280156115d95780601f106115ae576101008083540402835291602001916115d9565b820191906000526020600020905b8154815290600101906020018083116115bc57829003601f168201915b5050505050815250509050806000015181602001518260400151836060015184608001518560a001518660c001518760e00151886101000151849450809050995099509950995099509950995099509950509193959799909294969850565b3360009081526002602052604081205460ff16151560011461165957600080fd5b600083815260046020526040902080548414801561167c5750600581015460ff16155b801561169257506005810154610100900460ff16155b80156116a95750600581015462010000900460ff16155b80156116bd57506001600160a01b03831615155b80156117545750600380549082015460408051600160e01b63fd6f41370281526001600160a01b0392831660048201529051919092169163fd6f4137916024808301926020929190829003018186803b15801561171957600080fd5b505afa15801561172d573d6000803e3d6000fd5b505050506040513d602081101561174357600080fd5b50516001600160a01b038481169116145b61175d57600080fd5b6000848152600560205260409020805485148015611783575060018082015460ff161515145b801561179b575060028101546001600160a01b031615155b6117a457600080fd5b6005909101805461ff001916610100908117909155600182810180546001600160a01b038088169094026001600160a81b03199091161790556002830180546001600160a01b03198082169092556003909401805490911693909216929092179055905092915050565b6000611818612952565b600083815260046020818152604092839020835161012081018552815481526001808301546001600160a01b039081168386015260028085015482168489015260038501549091166060840152948301805487516101009382161593909302600019011695909504601f8101859004850282018501909652858152909491936080860193919290918301828280156118f15780601f106118c6576101008083540402835291602001916118f1565b820191906000526020600020905b8154815290600101906020018083116118d457829003601f168201915b5050509183525050600582015460ff80821615156020808501919091526101008084048316151560408087019190915262010000909404909216151560608501526006850180548451600260018316159095026000190190911693909304601f81018390048302840183019094528383526080909401939192908301828280156119bc5780601f10611991576101008083540402835291602001916119bc565b820191906000526020600020905b81548152906001019060200180831161199f57829003601f168201915b50505050508152505090508281600001511480156119dc575060e0810151155b9392505050565b60026020526000908152604090205460ff1681565b6000546001600160a01b031681565b60008060008060006060611a196129a0565b600088815260056020908152604091829020825160c0810184528154815260018083015460ff8116151583860152610100908190046001600160a01b039081168488015260028086015482166060860152600386015490911660808501526004850180548851948116159093026000190190921604601f81018690048602830186019096528582529194929360a086019391929190830182828015611aff5780601f10611ad457610100808354040283529160200191611aff565b820191906000526020600020905b815481529060010190602001808311611ae257829003601f168201915b5050509190925250508151602083015160408401516060850151608086015160a090960151939e929d50909b5099509297509550909350505050565b3360009081526002602052604081205460ff161515600114611b5c57600080fd5b611b64612952565b600087815260046020818152604092839020835161012081018552815481526001808301546001600160a01b039081168386015260028085015482168489015260038501549091166060840152948301805487516101009382161593909302600019011695909504601f810185900485028201850190965285815290949193608086019391929091830182828015611c3d5780601f10611c1257610100808354040283529160200191611c3d565b820191906000526020600020905b815481529060010190602001808311611c2057829003601f168201915b5050509183525050600582015460ff80821615156020808501919091526101008084048316151560408087019190915262010000909404909216151560608501526006850180548451600260018316159095026000190190911693909304601f8101839004830284018301909452838352608090940193919290830182828015611d085780601f10611cdd57610100808354040283529160200191611d08565b820191906000526020600020905b815481529060010190602001808311611ceb57829003601f168201915b5050505050815250509050868160000151148015611d28575060a0810151155b8015611d3a575060c081015115156001145b8015611d48575060e0810151155b8015611d5c57506001600160a01b03861615155b8015611df35750600354606082015160408051600160e01b63fd6f41370281526001600160a01b0392831660048201529051919092169163fd6f4137916024808301926020929190829003018186803b158015611db857600080fd5b505afa158015611dcc573d6000803e3d6000fd5b505050506040513d6020811015611de257600080fd5b50516001600160a01b038781169116145b611dfc57600080fd5b6000878152600560205260409020600181015460ff1615611e1c57600080fd5b611e246129f3565b50600088815260066020818152604092839020835161018081018552815480825260018301546001600160a01b039081169483019490945260028301548416958201959095526003820154808416606083015260ff600160a01b8204811615156080840152600160a81b82048116151560a0840152600160b01b82048116151560c0840152600160b81b90910416151560e082015260048201546101008201526005820154610120820152928101548216610140840152600701541661016082015290891415611efd5760e081015115611efd57600080fd5b6001828101805460ff1916909117610100600160a81b0319166101006001600160a01b038b811691909102919091179091556002830180546001600160a01b031916918916919091179055611f56600483018787612a57565b5060019998505050505050505050565b33600090815260026020526040812054819060ff161515600114611f8957600080fd5b611f97888888888888612793565b611fa057600080fd5b600030868a60405160200180846001600160a01b03166001600160a01b031660601b8152601401836001600160a01b03166001600160a01b031660601b815260140182815260200193505050506040516020818303038152906040528051906020012090506000600960008381526020019081526020016000209050818160000181905550868160010160006101000a8154816001600160a01b0302191690836001600160a01b03160217905550898160020181905550600030898c60405160200180846001600160a01b03166001600160a01b031660601b8152601401836001600160a01b03166001600160a01b031660601b815260140182815260200193505050506040516020818303038152906040528051906020012090506000600a60008381526020019081526020016000209050818160000181905550898160010160006101000a8154816001600160a01b0302191690836001600160a01b031602179055508b816002018190555083829550955050505050965096945050505050565b60008060008060008060008060008060008061213d6129f3565b600660008f815260200190815260200160002060405180610180016040529081600082015481526020016001820160009054906101000a90046001600160a01b03166001600160a01b03166001600160a01b031681526020016002820160009054906101000a90046001600160a01b03166001600160a01b03166001600160a01b031681526020016003820160009054906101000a90046001600160a01b03166001600160a01b03166001600160a01b031681526020016003820160149054906101000a900460ff161515151581526020016003820160159054906101000a900460ff161515151581526020016003820160169054906101000a900460ff161515151581526020016003820160179054906101000a900460ff1615151515815260200160048201548152602001600582015481526020016006820160009054906101000a90046001600160a01b03166001600160a01b03166001600160a01b031681526020016007820160009054906101000a90046001600160a01b03166001600160a01b03166001600160a01b0316815250509050806000015181602001518260400151836060015184608001518560a001518660c001518760e001518861010001518961012001518a61014001518b61016001519c509c509c509c509c509c509c509c509c509c509c509c505091939597999b5091939597999b565b3360009081526002602052604081205460ff16151560011461235c57600080fd5b600083815260066020526040902080548414801561238657506003810154600160b81b900460ff16155b80156123a257506003810154600160a01b900460ff1615156001145b80156123ba57506003810154600160a81b900460ff16155b80156123d257506003810154600160b01b900460ff16155b80156123e657506001600160a01b03831615155b801561247d5750600354600282015460408051600160e01b63fd6f41370281526001600160a01b0392831660048201529051919092169163fd6f4137916024808301926020929190829003018186803b15801561244257600080fd5b505afa158015612456573d6000803e3d6000fd5b505050506040513d602081101561246c57600080fd5b50516001600160a01b038481169116145b61248657600080fd5b600381018054600160b81b60ff021975ffff000000000000000000000000000000000000000019909116600160a81b1716600160b81b179055600481018054600090915560058201556006810180546001600160a01b0319808216909255600790920180549091166001600160a01b0390921691909117905550600192915050565b60005460015460408051600160e21b633d9abf2b0281523360048201526001600160a01b0393841660248201529290911660448301525173__AOLibrary_____________________________9163f66afcac916064808301926020929190829003018186803b15801561257a57600080fd5b505af415801561258e573d6000803e3d6000fd5b505050506040513d60208110156125a457600080fd5b50516125af57600080fd5b6001600160a01b0381166125c257600080fd5b600080546001600160a01b0319166001600160a01b0392909216919091179055565b600086815260046020818152604083208981556001810180546001600160a01b03808c166001600160a01b0319928316179092556002830180548a8416908316179055600383018054928916929091169190911790558751909261264f929084019190890190612ad5565b5060058101805461ff001960ff1990911660011716610100179055825161267f9060068301906020860190612ad5565b505050600086815260056020526040902086905560019695505050505050565b6040805130606090811b6020808401919091526001600160a01b03959095169081901b60348301526048808301859052835180840390910181526068909201835281519185019190912060008181526007909552919093208181556001810180546001600160a01b03191690941790935560029092015590565b6040805130606090811b6020808401919091526001600160a01b03959095169081901b60348301526048808301859052835180840390910181526068909201835281519185019190912060008181526008909552919093208181556001810180546001600160a01b03191690941790935560029092015590565b6000868152600460205260408120600101546001600160a01b0316158015906127d4575060008781526004602052604090206005015462010000900460ff16155b80156127f2575060008781526004602052604090206005015460ff16155b6127fb57600080fd5b6000878152600660205260409020600101546001600160a01b03161561282057600080fd5b6000838152600460205260409020600101546001600160a01b031615801590612861575060008381526004602052604090206005015462010000900460ff16155b801561287f575060008381526004602052604090206005015460ff16155b61288857600080fd5b506000868152600660208190526040909120968755600180880180546001600160a01b03199081166001600160a01b03998a1617909155600289018054821697891697909717909655600388018054600160a81b600160a01b918916978a169790971774ff0000000000000000000000000000000000000000191617600160a81b60ff02191695909517909455600487019290925594018054909216939092169290921790915590565b604080516060810182526000808252602082018190529181019190915290565b604080516101208101825260008082526020820181905291810182905260608082018390526080820181905260a0820183905260c0820183905260e082019290925261010081019190915290565b6040518060c001604052806000815260200160001515815260200160006001600160a01b0316815260200160006001600160a01b0316815260200160006001600160a01b03168152602001606081525090565b6040805161018081018252600080825260208201819052918101829052606081018290526080810182905260a0810182905260c0810182905260e0810182905261010081018290526101208101829052610140810182905261016081019190915290565b828054600181600116156101000203166002900490600052602060002090601f016020900481019282601f10612a985782800160ff19823516178555612ac5565b82800160010185558215612ac5579182015b82811115612ac5578235825591602001919060010190612aaa565b50612ad1929150612b43565b5090565b828054600181600116156101000203166002900490600052602060002090601f016020900481019282601f10612b1657805160ff1916838001178555612ac5565b82800160010185558215612ac5579182015b82811115612ac5578251825591602001919060010190612b28565b612b5d91905b80821115612ad15760008155600101612b49565b9056fea165627a7a72305820da811549bee417633f768a43235a2a4a04086aab57da11e26dd0057730b0a2ad0029",
  "source": "pragma solidity >=0.5.4 <0.6.0;\n\nimport './AOLibrary.sol';\nimport \"./TheAO.sol\";\nimport './IAOSettingAttribute.sol';\nimport './INameTAOPosition.sol';\n\n/**\n * @title AOSettingAttribute\n *\n * This contract stores all AO setting data/state\n */\ncontract AOSettingAttribute is TheAO, IAOSettingAttribute {\n\tINameTAOPosition internal _nameTAOPosition;\n\n\tstruct SettingData {\n\t\tuint256 settingId;\t\t\t\t// Identifier of this setting\n\t\taddress creatorNameId;\t\t\t// The nameId that created the setting\n\t\taddress creatorTAOId;\t\t// The taoId that created the setting\n\t\taddress associatedTAOId;\t// The taoId that the setting affects\n\t\tstring settingName;\t\t\t\t// The human-readable name of the setting\n\t\tbool pendingCreate;\t\t\t\t// State when associatedTAOId has not accepted setting\n\t\tbool locked;\t\t\t\t\t// State when pending anything (cannot change if locked)\n\t\tbool rejected;\t\t\t\t\t// State when associatedTAOId rejected this setting\n\t\tstring settingDataJSON;\t\t\t// Catch-all\n\t}\n\n\tstruct SettingState {\n\t\tuint256 settingId;\t\t\t\t// Identifier of this setting\n\t\tbool pendingUpdate;\t\t\t\t// State when setting is in process of being updated\n\t\taddress updateAdvocateNameId;\t// The nameId of the Advocate that performed the update\n\n\t\t/**\n\t\t * A child of the associatedTAOId with the update Logos.\n\t\t * This tells the setting contract that there is a proposal TAO that is a Child TAO\n\t\t * of the associated TAO, which will be responsible for deciding if the update to the\n\t\t * setting is accepted or rejected.\n\t\t */\n\t\taddress proposalTAOId;\n\n\t\t/**\n\t\t * The proposalTAOId moves here when setting value changes successfully\n\t\t */\n\t\taddress lastUpdateTAOId;\n\n\t\tstring settingStateJSON;\t\t// Catch-all\n\t}\n\n\tstruct SettingDeprecation {\n\t\tuint256 settingId;\t\t\t\t// Identifier of this setting\n\t\taddress creatorNameId;\t\t\t// The nameId that created this deprecation\n\t\taddress creatorTAOId;\t\t// The taoId that created this deprecation\n\t\taddress associatedTAOId;\t// The taoId that the setting affects\n\t\tbool pendingDeprecated;\t\t\t// State when associatedTAOId has not accepted setting\n\t\tbool locked;\t\t\t\t\t// State when pending anything (cannot change if locked)\n\t\tbool rejected;\t\t\t\t\t// State when associatedTAOId rejected this setting\n\t\tbool migrated;\t\t\t\t\t// State when this setting is fully migrated\n\n\t\t// holds the pending new settingId value when a deprecation is set\n\t\tuint256 pendingNewSettingId;\n\n\t\t// holds the new settingId that has been approved by associatedTAOId\n\t\tuint256 newSettingId;\n\n\t\t// holds the pending new contract address for this setting\n\t\taddress pendingNewSettingContractAddress;\n\n\t\t// holds the new contract address for this setting\n\t\taddress newSettingContractAddress;\n\t}\n\n\tstruct AssociatedTAOSetting {\n\t\tbytes32 associatedTAOSettingId;\t\t// Identifier\n\t\taddress associatedTAOId;\t\t\t// The TAO ID that the setting is associated to\n\t\tuint256 settingId;\t\t\t\t\t\t// The Setting ID that is associated with the TAO ID\n\t}\n\n\tstruct CreatorTAOSetting {\n\t\tbytes32 creatorTAOSettingId;\t\t// Identifier\n\t\taddress creatorTAOId;\t\t\t\t// The TAO ID that the setting was created from\n\t\tuint256 settingId;\t\t\t\t\t\t// The Setting ID created from the TAO ID\n\t}\n\n\tstruct AssociatedTAOSettingDeprecation {\n\t\tbytes32 associatedTAOSettingDeprecationId;\t\t// Identifier\n\t\taddress associatedTAOId;\t\t\t\t\t\t// The TAO ID that the setting is associated to\n\t\tuint256 settingId;\t\t\t\t\t\t\t\t\t// The Setting ID that is associated with the TAO ID\n\t}\n\n\tstruct CreatorTAOSettingDeprecation {\n\t\tbytes32 creatorTAOSettingDeprecationId;\t\t\t// Identifier\n\t\taddress creatorTAOId;\t\t\t\t\t\t\t// The TAO ID that the setting was created from\n\t\tuint256 settingId;\t\t\t\t\t\t\t\t\t// The Setting ID created from the TAO ID\n\t}\n\n\t// Mapping from settingId to it's data\n\tmapping (uint256 => SettingData) internal settingDatas;\n\n\t// Mapping from settingId to it's state\n\tmapping (uint256 => SettingState) internal settingStates;\n\n\t// Mapping from settingId to it's deprecation info\n\tmapping (uint256 => SettingDeprecation) internal settingDeprecations;\n\n\t// Mapping from associatedTAOSettingId to AssociatedTAOSetting\n\tmapping (bytes32 => AssociatedTAOSetting) internal associatedTAOSettings;\n\n\t// Mapping from creatorTAOSettingId to CreatorTAOSetting\n\tmapping (bytes32 => CreatorTAOSetting) internal creatorTAOSettings;\n\n\t// Mapping from associatedTAOSettingDeprecationId to AssociatedTAOSettingDeprecation\n\tmapping (bytes32 => AssociatedTAOSettingDeprecation) internal associatedTAOSettingDeprecations;\n\n\t// Mapping from creatorTAOSettingDeprecationId to CreatorTAOSettingDeprecation\n\tmapping (bytes32 => CreatorTAOSettingDeprecation) internal creatorTAOSettingDeprecations;\n\n\t/**\n\t * @dev Constructor function\n\t */\n\tconstructor(address _nameTAOPositionAddress) public {\n\t\tsetNameTAOPositionAddress(_nameTAOPositionAddress);\n\t}\n\n\t/**\n\t * @dev Checks if the calling contract address is The AO\n\t *\t\tOR\n\t *\t\tIf The AO is set to a Name/TAO, then check if calling address is the Advocate\n\t */\n\tmodifier onlyTheAO {\n\t\trequire (AOLibrary.isTheAO(msg.sender, theAO, nameTAOPositionAddress));\n\t\t_;\n\t}\n\n\t/***** The AO ONLY METHODS *****/\n\t/**\n\t * @dev Transfer ownership of The AO to new address\n\t * @param _theAO The new address to be transferred\n\t */\n\tfunction transferOwnership(address _theAO) public onlyTheAO {\n\t\trequire (_theAO != address(0));\n\t\ttheAO = _theAO;\n\t}\n\n\t/**\n\t * @dev Whitelist `_account` address to transact on behalf of others\n\t * @param _account The address to whitelist\n\t * @param _whitelist Either to whitelist or not\n\t */\n\tfunction setWhitelist(address _account, bool _whitelist) public onlyTheAO {\n\t\trequire (_account != address(0));\n\t\twhitelist[_account] = _whitelist;\n\t}\n\n\t/**\n\t * @dev The AO sets NameTAOPosition address\n\t * @param _nameTAOPositionAddress The address of NameTAOPosition\n\t */\n\tfunction setNameTAOPositionAddress(address _nameTAOPositionAddress) public onlyTheAO {\n\t\trequire (_nameTAOPositionAddress != address(0));\n\t\tnameTAOPositionAddress = _nameTAOPositionAddress;\n\t\t_nameTAOPosition = INameTAOPosition(_nameTAOPositionAddress);\n\t}\n\n\t/***** PUBLIC METHODS *****/\n\t/**\n\t * @dev Add setting data/state\n\t * @param _settingId The ID of the setting\n\t * @param _creatorNameId The nameId that created the setting\n\t * @param _settingName The human-readable name of the setting\n\t * @param _creatorTAOId The taoId that created the setting\n\t * @param _associatedTAOId The taoId that the setting affects\n\t * @param _extraData Catch-all string value to be stored if exist\n\t * @return The ID of the \"Associated\" setting\n\t * @return The ID of the \"Creator\" setting\n\t */\n\tfunction add(uint256 _settingId, address _creatorNameId, string calldata _settingName, address _creatorTAOId, address _associatedTAOId, string calldata _extraData) external inWhitelist returns (bytes32, bytes32) {\n\t\t// Store setting data/state\n\t\trequire (_storeSettingDataState(_settingId, _creatorNameId, _settingName, _creatorTAOId, _associatedTAOId, _extraData));\n\n\t\t// Store the associatedTAOSetting/creatorTAOSetting info\n\t\treturn (\n\t\t\t_storeAssociatedTAOSetting(_associatedTAOId, _settingId),\n\t\t\t_storeCreatorTAOSetting(_creatorTAOId, _settingId)\n\t\t);\n\t}\n\n\t/**\n\t * @dev Get Setting Data of a setting ID\n\t * @param _settingId The ID of the setting\n\t */\n\tfunction getSettingData(uint256 _settingId) external view returns (uint256, address, address, address, string memory, bool, bool, bool, string memory) {\n\t\tSettingData memory _settingData = settingDatas[_settingId];\n\t\treturn (\n\t\t\t_settingData.settingId,\n\t\t\t_settingData.creatorNameId,\n\t\t\t_settingData.creatorTAOId,\n\t\t\t_settingData.associatedTAOId,\n\t\t\t_settingData.settingName,\n\t\t\t_settingData.pendingCreate,\n\t\t\t_settingData.locked,\n\t\t\t_settingData.rejected,\n\t\t\t_settingData.settingDataJSON\n\t\t);\n\t}\n\n\t/**\n\t * @dev Get Associated TAO Setting info\n\t * @param _associatedTAOSettingId The ID of the associated tao setting\n\t */\n\tfunction getAssociatedTAOSetting(bytes32 _associatedTAOSettingId) public view returns (bytes32, address, uint256) {\n\t\tAssociatedTAOSetting memory _associatedTAOSetting = associatedTAOSettings[_associatedTAOSettingId];\n\t\treturn (\n\t\t\t_associatedTAOSetting.associatedTAOSettingId,\n\t\t\t_associatedTAOSetting.associatedTAOId,\n\t\t\t_associatedTAOSetting.settingId\n\t\t);\n\t}\n\n\t/**\n\t * @dev Get Creator TAO Setting info\n\t * @param _creatorTAOSettingId The ID of the creator tao setting\n\t */\n\tfunction getCreatorTAOSetting(bytes32 _creatorTAOSettingId) public view returns (bytes32, address, uint256) {\n\t\tCreatorTAOSetting memory _creatorTAOSetting = creatorTAOSettings[_creatorTAOSettingId];\n\t\treturn (\n\t\t\t_creatorTAOSetting.creatorTAOSettingId,\n\t\t\t_creatorTAOSetting.creatorTAOId,\n\t\t\t_creatorTAOSetting.settingId\n\t\t);\n\t}\n\n\t/**\n\t * @dev Advocate of Setting's _associatedTAOId approves setting creation\n\t * @param _settingId The ID of the setting to approve\n\t * @param _associatedTAOAdvocate The advocate of the associated TAO\n\t * @param _approved Whether to approve or reject\n\t * @return true on success\n\t */\n\tfunction approveAdd(uint256 _settingId, address _associatedTAOAdvocate, bool _approved) external inWhitelist returns (bool) {\n\t\t// Make sure setting exists and needs approval\n\t\tSettingData storage _settingData = settingDatas[_settingId];\n\t\trequire (_settingData.settingId == _settingId &&\n\t\t\t_settingData.pendingCreate == true &&\n\t\t\t_settingData.locked == true &&\n\t\t\t_settingData.rejected == false &&\n\t\t\t_associatedTAOAdvocate != address(0) &&\n\t\t\t_associatedTAOAdvocate == _nameTAOPosition.getAdvocate(_settingData.associatedTAOId)\n\t\t);\n\n\t\tif (_approved) {\n\t\t\t// Unlock the setting so that advocate of creatorTAOId can finalize the creation\n\t\t\t_settingData.locked = false;\n\t\t} else {\n\t\t\t// Reject the setting\n\t\t\t_settingData.pendingCreate = false;\n\t\t\t_settingData.rejected = true;\n\t\t}\n\n\t\treturn true;\n\t}\n\n\t/**\n\t * @dev Advocate of Setting's _creatorTAOId finalizes the setting creation once the setting is approved\n\t * @param _settingId The ID of the setting to be finalized\n\t * @param _creatorTAOAdvocate The advocate of the creator TAO\n\t * @return true on success\n\t */\n\tfunction finalizeAdd(uint256 _settingId, address _creatorTAOAdvocate) external inWhitelist returns (bool) {\n\t\t// Make sure setting exists and needs approval\n\t\tSettingData storage _settingData = settingDatas[_settingId];\n\t\trequire (_settingData.settingId == _settingId &&\n\t\t\t_settingData.pendingCreate == true &&\n\t\t\t_settingData.locked == false &&\n\t\t\t_settingData.rejected == false &&\n\t\t\t_creatorTAOAdvocate != address(0) &&\n\t\t\t_creatorTAOAdvocate == _nameTAOPosition.getAdvocate(_settingData.creatorTAOId)\n\t\t);\n\n\t\t// Update the setting data\n\t\t_settingData.pendingCreate = false;\n\t\t_settingData.locked = true;\n\n\t\treturn true;\n\t}\n\n\t/**\n\t * @dev Store setting update data\n\t * @param _settingId The ID of the setting to be updated\n\t * @param _associatedTAOAdvocate The setting's associatedTAOId's advocate's name address\n\t * @param _proposalTAOId The child of the associatedTAOId with the update Logos\n\t * @param _extraData Catch-all string value to be stored if exist\n\t * @return true on success\n\t */\n\tfunction update(uint256 _settingId, address _associatedTAOAdvocate, address _proposalTAOId, string calldata _extraData) external inWhitelist returns (bool) {\n\t\t// Make sure setting is created\n\t\tSettingData memory _settingData = settingDatas[_settingId];\n\t\trequire (_settingData.settingId == _settingId &&\n\t\t\t_settingData.pendingCreate == false &&\n\t\t\t_settingData.locked == true &&\n\t\t\t_settingData.rejected == false &&\n\t\t\t_associatedTAOAdvocate != address(0) &&\n\t\t\t_associatedTAOAdvocate == _nameTAOPosition.getAdvocate(_settingData.associatedTAOId)\n\t\t);\n\n\t\t// Make sure setting is not in the middle of updating\n\t\tSettingState storage _settingState = settingStates[_settingId];\n\t\trequire (_settingState.pendingUpdate == false);\n\n\t\t// Make sure setting is not yet deprecated\n\t\tSettingDeprecation memory _settingDeprecation = settingDeprecations[_settingId];\n\t\tif (_settingDeprecation.settingId == _settingId) {\n\t\t\trequire (_settingDeprecation.migrated == false);\n\t\t}\n\n\t\t// Store the SettingState data\n\t\t_settingState.pendingUpdate = true;\n\t\t_settingState.updateAdvocateNameId = _associatedTAOAdvocate;\n\t\t_settingState.proposalTAOId = _proposalTAOId;\n\t\t_settingState.settingStateJSON = _extraData;\n\n\t\treturn true;\n\t}\n\n\t/**\n\t * @dev Get setting state\n\t * @param _settingId The ID of the setting\n\t */\n\tfunction getSettingState(uint256 _settingId) external view returns (uint256, bool, address, address, address, string memory) {\n\t\tSettingState memory _settingState = settingStates[_settingId];\n\t\treturn (\n\t\t\t_settingState.settingId,\n\t\t\t_settingState.pendingUpdate,\n\t\t\t_settingState.updateAdvocateNameId,\n\t\t\t_settingState.proposalTAOId,\n\t\t\t_settingState.lastUpdateTAOId,\n\t\t\t_settingState.settingStateJSON\n\t\t);\n\t}\n\n\t/**\n\t * @dev Advocate of Setting's proposalTAOId approves the setting update\n\t * @param _settingId The ID of the setting to be approved\n\t * @param _proposalTAOAdvocate The advocate of the proposal TAO\n\t * @param _approved Whether to approve or reject\n\t * @return true on success\n\t */\n\tfunction approveUpdate(uint256 _settingId, address _proposalTAOAdvocate, bool _approved) external inWhitelist returns (bool) {\n\t\t// Make sure setting is created\n\t\tSettingData storage _settingData = settingDatas[_settingId];\n\t\trequire (_settingData.settingId == _settingId && _settingData.pendingCreate == false && _settingData.locked == true && _settingData.rejected == false);\n\n\t\t// Make sure setting update exists and needs approval\n\t\tSettingState storage _settingState = settingStates[_settingId];\n\t\trequire (_settingState.settingId == _settingId &&\n\t\t\t_settingState.pendingUpdate == true &&\n\t\t\t_proposalTAOAdvocate != address(0) &&\n\t\t\t_proposalTAOAdvocate == _nameTAOPosition.getAdvocate(_settingState.proposalTAOId)\n\t\t);\n\n\t\tif (_approved) {\n\t\t\t// Unlock the setting so that advocate of associatedTAOId can finalize the update\n\t\t\t_settingData.locked = false;\n\t\t} else {\n\t\t\t// Set pendingUpdate to false\n\t\t\t_settingState.pendingUpdate = false;\n\t\t\t_settingState.proposalTAOId = address(0);\n\t\t}\n\t\treturn true;\n\t}\n\n\t/**\n\t * @dev Advocate of Setting's _associatedTAOId finalizes the setting update once the setting is approved\n\t * @param _settingId The ID of the setting to be finalized\n\t * @param _associatedTAOAdvocate The advocate of the associated TAO\n\t * @return true on success\n\t */\n\tfunction finalizeUpdate(uint256 _settingId, address _associatedTAOAdvocate) external inWhitelist returns (bool) {\n\t\t// Make sure setting is created\n\t\tSettingData storage _settingData = settingDatas[_settingId];\n\t\trequire (_settingData.settingId == _settingId &&\n\t\t\t_settingData.pendingCreate == false &&\n\t\t\t_settingData.locked == false &&\n\t\t\t_settingData.rejected == false &&\n\t\t\t_associatedTAOAdvocate != address(0) &&\n\t\t\t_associatedTAOAdvocate == _nameTAOPosition.getAdvocate(_settingData.associatedTAOId)\n\t\t);\n\n\t\t// Make sure setting update exists and needs approval\n\t\tSettingState storage _settingState = settingStates[_settingId];\n\t\trequire (_settingState.settingId == _settingId && _settingState.pendingUpdate == true && _settingState.proposalTAOId != address(0));\n\n\t\t// Update the setting data\n\t\t_settingData.locked = true;\n\n\t\t// Update the setting state\n\t\t_settingState.pendingUpdate = false;\n\t\t_settingState.updateAdvocateNameId = _associatedTAOAdvocate;\n\t\taddress _proposalTAOId = _settingState.proposalTAOId;\n\t\t_settingState.proposalTAOId = address(0);\n\t\t_settingState.lastUpdateTAOId = _proposalTAOId;\n\n\t\treturn true;\n\t}\n\n\t/**\n\t * @dev Add setting deprecation\n\t * @param _settingId The ID of the setting\n\t * @param _creatorNameId The nameId that created the setting\n\t * @param _creatorTAOId The taoId that created the setting\n\t * @param _associatedTAOId The taoId that the setting affects\n\t * @param _newSettingId The new settingId value to route\n\t * @param _newSettingContractAddress The address of the new setting contract to route\n\t * @return The ID of the \"Associated\" setting deprecation\n\t * @return The ID of the \"Creator\" setting deprecation\n\t */\n\tfunction addDeprecation(uint256 _settingId, address _creatorNameId, address _creatorTAOId, address _associatedTAOId, uint256 _newSettingId, address _newSettingContractAddress) external inWhitelist returns (bytes32, bytes32) {\n\t\trequire (_storeSettingDeprecation(_settingId, _creatorNameId, _creatorTAOId, _associatedTAOId, _newSettingId, _newSettingContractAddress));\n\n\t\t// Store the associatedTAOSettingDeprecation info\n\t\tbytes32 _associatedTAOSettingDeprecationId = keccak256(abi.encodePacked(this, _associatedTAOId, _settingId));\n\t\tAssociatedTAOSettingDeprecation storage _associatedTAOSettingDeprecation = associatedTAOSettingDeprecations[_associatedTAOSettingDeprecationId];\n\t\t_associatedTAOSettingDeprecation.associatedTAOSettingDeprecationId = _associatedTAOSettingDeprecationId;\n\t\t_associatedTAOSettingDeprecation.associatedTAOId = _associatedTAOId;\n\t\t_associatedTAOSettingDeprecation.settingId = _settingId;\n\n\t\t// Store the creatorTAOSettingDeprecation info\n\t\tbytes32 _creatorTAOSettingDeprecationId = keccak256(abi.encodePacked(this, _creatorTAOId, _settingId));\n\t\tCreatorTAOSettingDeprecation storage _creatorTAOSettingDeprecation = creatorTAOSettingDeprecations[_creatorTAOSettingDeprecationId];\n\t\t_creatorTAOSettingDeprecation.creatorTAOSettingDeprecationId = _creatorTAOSettingDeprecationId;\n\t\t_creatorTAOSettingDeprecation.creatorTAOId = _creatorTAOId;\n\t\t_creatorTAOSettingDeprecation.settingId = _settingId;\n\n\t\treturn (_associatedTAOSettingDeprecationId, _creatorTAOSettingDeprecationId);\n\t}\n\n\t/**\n\t * @dev Get Setting Deprecation info of a setting ID\n\t * @param _settingId The ID of the setting\n\t */\n\tfunction getSettingDeprecation(uint256 _settingId) external view returns (uint256, address, address, address, bool, bool, bool, bool, uint256, uint256, address, address) {\n\t\tSettingDeprecation memory _settingDeprecation = settingDeprecations[_settingId];\n\t\treturn (\n\t\t\t_settingDeprecation.settingId,\n\t\t\t_settingDeprecation.creatorNameId,\n\t\t\t_settingDeprecation.creatorTAOId,\n\t\t\t_settingDeprecation.associatedTAOId,\n\t\t\t_settingDeprecation.pendingDeprecated,\n\t\t\t_settingDeprecation.locked,\n\t\t\t_settingDeprecation.rejected,\n\t\t\t_settingDeprecation.migrated,\n\t\t\t_settingDeprecation.pendingNewSettingId,\n\t\t\t_settingDeprecation.newSettingId,\n\t\t\t_settingDeprecation.pendingNewSettingContractAddress,\n\t\t\t_settingDeprecation.newSettingContractAddress\n\t\t);\n\t}\n\n\t/**\n\t * @dev Get Associated TAO Setting Deprecation info\n\t * @param _associatedTAOSettingDeprecationId The ID of the associated tao setting deprecation\n\t */\n\tfunction getAssociatedTAOSettingDeprecation(bytes32 _associatedTAOSettingDeprecationId) external view returns (bytes32, address, uint256) {\n\t\tAssociatedTAOSettingDeprecation memory _associatedTAOSettingDeprecation = associatedTAOSettingDeprecations[_associatedTAOSettingDeprecationId];\n\t\treturn (\n\t\t\t_associatedTAOSettingDeprecation.associatedTAOSettingDeprecationId,\n\t\t\t_associatedTAOSettingDeprecation.associatedTAOId,\n\t\t\t_associatedTAOSettingDeprecation.settingId\n\t\t);\n\t}\n\n\t/**\n\t * @dev Get Creator TAO Setting Deprecation info\n\t * @param _creatorTAOSettingDeprecationId The ID of the creator tao setting deprecation\n\t */\n\tfunction getCreatorTAOSettingDeprecation(bytes32 _creatorTAOSettingDeprecationId) public view returns (bytes32, address, uint256) {\n\t\tCreatorTAOSettingDeprecation memory _creatorTAOSettingDeprecation = creatorTAOSettingDeprecations[_creatorTAOSettingDeprecationId];\n\t\treturn (\n\t\t\t_creatorTAOSettingDeprecation.creatorTAOSettingDeprecationId,\n\t\t\t_creatorTAOSettingDeprecation.creatorTAOId,\n\t\t\t_creatorTAOSettingDeprecation.settingId\n\t\t);\n\t}\n\n\t/**\n\t * @dev Advocate of SettingDeprecation's _associatedTAOId approves deprecation\n\t * @param _settingId The ID of the setting to approve\n\t * @param _associatedTAOAdvocate The advocate of the associated TAO\n\t * @param _approved Whether to approve or reject\n\t * @return true on success\n\t */\n\tfunction approveDeprecation(uint256 _settingId, address _associatedTAOAdvocate, bool _approved) external inWhitelist returns (bool) {\n\t\t// Make sure setting exists and needs approval\n\t\tSettingDeprecation storage _settingDeprecation = settingDeprecations[_settingId];\n\t\trequire (_settingDeprecation.settingId == _settingId &&\n\t\t\t_settingDeprecation.migrated == false &&\n\t\t\t_settingDeprecation.pendingDeprecated == true &&\n\t\t\t_settingDeprecation.locked == true &&\n\t\t\t_settingDeprecation.rejected == false &&\n\t\t\t_associatedTAOAdvocate != address(0) &&\n\t\t\t_associatedTAOAdvocate == _nameTAOPosition.getAdvocate(_settingDeprecation.associatedTAOId)\n\t\t);\n\n\t\tif (_approved) {\n\t\t\t// Unlock the setting so that advocate of creatorTAOId can finalize the creation\n\t\t\t_settingDeprecation.locked = false;\n\t\t} else {\n\t\t\t// Reject the setting\n\t\t\t_settingDeprecation.pendingDeprecated = false;\n\t\t\t_settingDeprecation.rejected = true;\n\t\t}\n\t\treturn true;\n\t}\n\n\t/**\n\t * @dev Advocate of SettingDeprecation's _creatorTAOId finalizes the deprecation once the setting deprecation is approved\n\t * @param _settingId The ID of the setting to be finalized\n\t * @param _creatorTAOAdvocate The advocate of the creator TAO\n\t * @return true on success\n\t */\n\tfunction finalizeDeprecation(uint256 _settingId, address _creatorTAOAdvocate) external inWhitelist returns (bool) {\n\t\t// Make sure setting exists and needs approval\n\t\tSettingDeprecation storage _settingDeprecation = settingDeprecations[_settingId];\n\t\trequire (_settingDeprecation.settingId == _settingId &&\n\t\t\t_settingDeprecation.migrated == false &&\n\t\t\t_settingDeprecation.pendingDeprecated == true &&\n\t\t\t_settingDeprecation.locked == false &&\n\t\t\t_settingDeprecation.rejected == false &&\n\t\t\t_creatorTAOAdvocate != address(0) &&\n\t\t\t_creatorTAOAdvocate == _nameTAOPosition.getAdvocate(_settingDeprecation.creatorTAOId)\n\t\t);\n\n\t\t// Update the setting data\n\t\t_settingDeprecation.pendingDeprecated = false;\n\t\t_settingDeprecation.locked = true;\n\t\t_settingDeprecation.migrated = true;\n\t\tuint256 _newSettingId = _settingDeprecation.pendingNewSettingId;\n\t\t_settingDeprecation.pendingNewSettingId = 0;\n\t\t_settingDeprecation.newSettingId = _newSettingId;\n\n\t\taddress _newSettingContractAddress = _settingDeprecation.pendingNewSettingContractAddress;\n\t\t_settingDeprecation.pendingNewSettingContractAddress = address(0);\n\t\t_settingDeprecation.newSettingContractAddress = _newSettingContractAddress;\n\t\treturn true;\n\t}\n\n\t/**\n\t * @dev Check if a setting exist and not rejected\n\t * @param _settingId The ID of the setting\n\t * @return true if exist. false otherwise\n\t */\n\tfunction settingExist(uint256 _settingId) external view returns (bool) {\n\t\tSettingData memory _settingData = settingDatas[_settingId];\n\t\treturn (_settingData.settingId == _settingId && _settingData.rejected == false);\n\t}\n\n\t/**\n\t * @dev Get the latest ID of a deprecated setting, if exist\n\t * @param _settingId The ID of the setting\n\t * @return The latest setting ID\n\t */\n\tfunction getLatestSettingId(uint256 _settingId) external view returns (uint256) {\n\t\tuint256 _latestSettingId = _settingId;\n\t\t(,,,,,,, bool _migrated,, uint256 _newSettingId,,) = this.getSettingDeprecation(_latestSettingId);\n\t\twhile (_migrated && _newSettingId > 0) {\n\t\t\t_latestSettingId = _newSettingId;\n\t\t\t(,,,,,,, _migrated,, _newSettingId,,) = this.getSettingDeprecation(_latestSettingId);\n\t\t}\n\t\treturn _latestSettingId;\n\t}\n\n\t/***** Internal Method *****/\n\t/**\n\t * @dev Store setting data/state\n\t * @param _settingId The ID of the setting\n\t * @param _creatorNameId The nameId that created the setting\n\t * @param _settingName The human-readable name of the setting\n\t * @param _creatorTAOId The taoId that created the setting\n\t * @param _associatedTAOId The taoId that the setting affects\n\t * @param _extraData Catch-all string value to be stored if exist\n\t * @return true on success\n\t */\n\tfunction _storeSettingDataState(uint256 _settingId, address _creatorNameId, string memory _settingName, address _creatorTAOId, address _associatedTAOId, string memory _extraData) internal returns (bool) {\n\t\t// Store setting data\n\t\tSettingData storage _settingData = settingDatas[_settingId];\n\t\t_settingData.settingId = _settingId;\n\t\t_settingData.creatorNameId = _creatorNameId;\n\t\t_settingData.creatorTAOId = _creatorTAOId;\n\t\t_settingData.associatedTAOId = _associatedTAOId;\n\t\t_settingData.settingName = _settingName;\n\t\t_settingData.pendingCreate = true;\n\t\t_settingData.locked = true;\n\t\t_settingData.settingDataJSON = _extraData;\n\n\t\t// Store setting state\n\t\tSettingState storage _settingState = settingStates[_settingId];\n\t\t_settingState.settingId = _settingId;\n\t\treturn true;\n\t}\n\n\t/**\n\t * @dev Store setting deprecation\n\t * @param _settingId The ID of the setting\n\t * @param _creatorNameId The nameId that created the setting\n\t * @param _creatorTAOId The taoId that created the setting\n\t * @param _associatedTAOId The taoId that the setting affects\n\t * @param _newSettingId The new settingId value to route\n\t * @param _newSettingContractAddress The address of the new setting contract to route\n\t * @return true on success\n\t */\n\tfunction _storeSettingDeprecation(uint256 _settingId, address _creatorNameId, address _creatorTAOId, address _associatedTAOId, uint256 _newSettingId, address _newSettingContractAddress) internal returns (bool) {\n\t\t// Make sure this setting exists\n\t\trequire (settingDatas[_settingId].creatorNameId != address(0) && settingDatas[_settingId].rejected == false && settingDatas[_settingId].pendingCreate == false);\n\n\t\t// Make sure deprecation is not yet exist for this setting Id\n\t\trequire (settingDeprecations[_settingId].creatorNameId == address(0));\n\n\t\t// Make sure newSettingId exists\n\t\trequire (settingDatas[_newSettingId].creatorNameId != address(0) && settingDatas[_newSettingId].rejected == false && settingDatas[_newSettingId].pendingCreate == false);\n\n\t\t// Store setting deprecation info\n\t\tSettingDeprecation storage _settingDeprecation = settingDeprecations[_settingId];\n\t\t_settingDeprecation.settingId = _settingId;\n\t\t_settingDeprecation.creatorNameId = _creatorNameId;\n\t\t_settingDeprecation.creatorTAOId = _creatorTAOId;\n\t\t_settingDeprecation.associatedTAOId = _associatedTAOId;\n\t\t_settingDeprecation.pendingDeprecated = true;\n\t\t_settingDeprecation.locked = true;\n\t\t_settingDeprecation.pendingNewSettingId = _newSettingId;\n\t\t_settingDeprecation.pendingNewSettingContractAddress = _newSettingContractAddress;\n\t\treturn true;\n\t}\n\n\t/**\n\t * @dev Store the associated TAO Setting info\n\t * @param _associatedTAOId The Associated TAO ID\n\t * @param _settingId The setting ID\n\t * @return The newly created associated TAO setting ID\n\t */\n\tfunction _storeAssociatedTAOSetting(address _associatedTAOId, uint256 _settingId) internal returns (bytes32) {\n\t\t// Store the associatedTAOSetting info\n\t\tbytes32 _associatedTAOSettingId = keccak256(abi.encodePacked(this, _associatedTAOId, _settingId));\n\t\tAssociatedTAOSetting storage _associatedTAOSetting = associatedTAOSettings[_associatedTAOSettingId];\n\t\t_associatedTAOSetting.associatedTAOSettingId = _associatedTAOSettingId;\n\t\t_associatedTAOSetting.associatedTAOId = _associatedTAOId;\n\t\t_associatedTAOSetting.settingId = _settingId;\n\t\treturn _associatedTAOSettingId;\n\t}\n\n\t/**\n\t * @dev Store the creator TAO Setting info\n\t * @param _creatorTAOId The Creator TAO ID\n\t * @param _settingId The setting ID\n\t * @return The newly created creator TAO setting ID\n\t */\n\tfunction _storeCreatorTAOSetting(address _creatorTAOId, uint256 _settingId) internal returns (bytes32) {\n\t\t// Store the creatorTAOSetting info\n\t\tbytes32 _creatorTAOSettingId = keccak256(abi.encodePacked(this, _creatorTAOId, _settingId));\n\t\tCreatorTAOSetting storage _creatorTAOSetting = creatorTAOSettings[_creatorTAOSettingId];\n\t\t_creatorTAOSetting.creatorTAOSettingId = _creatorTAOSettingId;\n\t\t_creatorTAOSetting.creatorTAOId = _creatorTAOId;\n\t\t_creatorTAOSetting.settingId = _settingId;\n\t\treturn _creatorTAOSettingId;\n\t}\n}\n",
  "sourcePath": "/usr/local/ao-contracts/contracts/AOSettingAttribute.sol",
  "compiler": {
    "name": "solc",
    "version": "0.5.6+commit.b259423e.Emscripten.clang"
  },
  "schemaVersion": "3.0.2",
  "updatedAt": "2019-03-26T16:54:31.438Z",
  "devdoc": {
    "methods": {
      "add(uint256,address,string,address,address,string)": {
        "details": "Add setting data/state",
        "params": {
          "_associatedTAOId": "The taoId that the setting affects",
          "_creatorNameId": "The nameId that created the setting",
          "_creatorTAOId": "The taoId that created the setting",
          "_extraData": "Catch-all string value to be stored if exist",
          "_settingId": "The ID of the setting",
          "_settingName": "The human-readable name of the setting"
        },
        "return": "The ID of the \"Associated\" settingThe ID of the \"Creator\" setting"
      },
      "addDeprecation(uint256,address,address,address,uint256,address)": {
        "details": "Add setting deprecation",
        "params": {
          "_associatedTAOId": "The taoId that the setting affects",
          "_creatorNameId": "The nameId that created the setting",
          "_creatorTAOId": "The taoId that created the setting",
          "_newSettingContractAddress": "The address of the new setting contract to route",
          "_newSettingId": "The new settingId value to route",
          "_settingId": "The ID of the setting"
        },
        "return": "The ID of the \"Associated\" setting deprecationThe ID of the \"Creator\" setting deprecation"
      },
      "approveAdd(uint256,address,bool)": {
        "details": "Advocate of Setting's _associatedTAOId approves setting creation",
        "params": {
          "_approved": "Whether to approve or reject",
          "_associatedTAOAdvocate": "The advocate of the associated TAO",
          "_settingId": "The ID of the setting to approve"
        },
        "return": "true on success"
      },
      "approveDeprecation(uint256,address,bool)": {
        "details": "Advocate of SettingDeprecation's _associatedTAOId approves deprecation",
        "params": {
          "_approved": "Whether to approve or reject",
          "_associatedTAOAdvocate": "The advocate of the associated TAO",
          "_settingId": "The ID of the setting to approve"
        },
        "return": "true on success"
      },
      "approveUpdate(uint256,address,bool)": {
        "details": "Advocate of Setting's proposalTAOId approves the setting update",
        "params": {
          "_approved": "Whether to approve or reject",
          "_proposalTAOAdvocate": "The advocate of the proposal TAO",
          "_settingId": "The ID of the setting to be approved"
        },
        "return": "true on success"
      },
      "constructor": {
        "details": "Constructor function"
      },
      "finalizeAdd(uint256,address)": {
        "details": "Advocate of Setting's _creatorTAOId finalizes the setting creation once the setting is approved",
        "params": {
          "_creatorTAOAdvocate": "The advocate of the creator TAO",
          "_settingId": "The ID of the setting to be finalized"
        },
        "return": "true on success"
      },
      "finalizeDeprecation(uint256,address)": {
        "details": "Advocate of SettingDeprecation's _creatorTAOId finalizes the deprecation once the setting deprecation is approved",
        "params": {
          "_creatorTAOAdvocate": "The advocate of the creator TAO",
          "_settingId": "The ID of the setting to be finalized"
        },
        "return": "true on success"
      },
      "finalizeUpdate(uint256,address)": {
        "details": "Advocate of Setting's _associatedTAOId finalizes the setting update once the setting is approved",
        "params": {
          "_associatedTAOAdvocate": "The advocate of the associated TAO",
          "_settingId": "The ID of the setting to be finalized"
        },
        "return": "true on success"
      },
      "getAssociatedTAOSetting(bytes32)": {
        "details": "Get Associated TAO Setting info",
        "params": {
          "_associatedTAOSettingId": "The ID of the associated tao setting"
        }
      },
      "getAssociatedTAOSettingDeprecation(bytes32)": {
        "details": "Get Associated TAO Setting Deprecation info",
        "params": {
          "_associatedTAOSettingDeprecationId": "The ID of the associated tao setting deprecation"
        }
      },
      "getCreatorTAOSetting(bytes32)": {
        "details": "Get Creator TAO Setting info",
        "params": {
          "_creatorTAOSettingId": "The ID of the creator tao setting"
        }
      },
      "getCreatorTAOSettingDeprecation(bytes32)": {
        "details": "Get Creator TAO Setting Deprecation info",
        "params": {
          "_creatorTAOSettingDeprecationId": "The ID of the creator tao setting deprecation"
        }
      },
      "getLatestSettingId(uint256)": {
        "details": "Get the latest ID of a deprecated setting, if exist",
        "params": {
          "_settingId": "The ID of the setting"
        },
        "return": "The latest setting ID"
      },
      "getSettingData(uint256)": {
        "details": "Get Setting Data of a setting ID",
        "params": {
          "_settingId": "The ID of the setting"
        }
      },
      "getSettingDeprecation(uint256)": {
        "details": "Get Setting Deprecation info of a setting ID",
        "params": {
          "_settingId": "The ID of the setting"
        }
      },
      "getSettingState(uint256)": {
        "details": "Get setting state",
        "params": {
          "_settingId": "The ID of the setting"
        }
      },
      "setNameTAOPositionAddress(address)": {
        "details": "The AO sets NameTAOPosition address",
        "params": {
          "_nameTAOPositionAddress": "The address of NameTAOPosition"
        }
      },
      "setWhitelist(address,bool)": {
        "details": "Whitelist `_account` address to transact on behalf of others",
        "params": {
          "_account": "The address to whitelist",
          "_whitelist": "Either to whitelist or not"
        }
      },
      "settingExist(uint256)": {
        "details": "Check if a setting exist and not rejected",
        "params": {
          "_settingId": "The ID of the setting"
        },
        "return": "true if exist. false otherwise"
      },
      "transferOwnership(address)": {
        "details": "Transfer ownership of The AO to new address",
        "params": {
          "_theAO": "The new address to be transferred"
        }
      },
      "update(uint256,address,address,string)": {
        "details": "Store setting update data",
        "params": {
          "_associatedTAOAdvocate": "The setting's associatedTAOId's advocate's name address",
          "_extraData": "Catch-all string value to be stored if exist",
          "_proposalTAOId": "The child of the associatedTAOId with the update Logos",
          "_settingId": "The ID of the setting to be updated"
        },
        "return": "true on success"
      }
    },
    "title": "AOSettingAttribute * This contract stores all AO setting data/state"
  },
  "userdoc": {
    "methods": {}
  }
}