{
  "contractName": "AOSettingUpdate",
  "abi": [
    {
      "constant": true,
      "inputs": [
        {
          "name": "",
          "type": "bytes32"
        }
      ],
      "name": "updateHashLookup",
      "outputs": [
        {
          "name": "",
          "type": "uint256"
        }
      ],
      "payable": false,
      "stateMutability": "view",
      "type": "function"
    },
    {
      "constant": true,
      "inputs": [
        {
          "name": "",
          "type": "uint256"
        }
      ],
      "name": "updateSignatures",
      "outputs": [
        {
          "name": "signatureV",
          "type": "uint8"
        },
        {
          "name": "signatureR",
          "type": "bytes32"
        },
        {
          "name": "signatureS",
          "type": "bytes32"
        }
      ],
      "payable": false,
      "stateMutability": "view",
      "type": "function"
    },
    {
      "constant": true,
      "inputs": [],
      "name": "aoSettingAddress",
      "outputs": [
        {
          "name": "",
          "type": "address"
        }
      ],
      "payable": false,
      "stateMutability": "view",
      "type": "function"
    },
    {
      "constant": true,
      "inputs": [],
      "name": "nameTAOPositionAddress",
      "outputs": [
        {
          "name": "",
          "type": "address"
        }
      ],
      "payable": false,
      "stateMutability": "view",
      "type": "function"
    },
    {
      "constant": true,
      "inputs": [
        {
          "name": "",
          "type": "address"
        }
      ],
      "name": "whitelist",
      "outputs": [
        {
          "name": "",
          "type": "bool"
        }
      ],
      "payable": false,
      "stateMutability": "view",
      "type": "function"
    },
    {
      "constant": true,
      "inputs": [],
      "name": "nameAccountRecoveryAddress",
      "outputs": [
        {
          "name": "",
          "type": "address"
        }
      ],
      "payable": false,
      "stateMutability": "view",
      "type": "function"
    },
    {
      "constant": true,
      "inputs": [],
      "name": "theAO",
      "outputs": [
        {
          "name": "",
          "type": "address"
        }
      ],
      "payable": false,
      "stateMutability": "view",
      "type": "function"
    },
    {
      "constant": true,
      "inputs": [],
      "name": "nameFactoryAddress",
      "outputs": [
        {
          "name": "",
          "type": "address"
        }
      ],
      "payable": false,
      "stateMutability": "view",
      "type": "function"
    },
    {
      "constant": true,
      "inputs": [],
      "name": "aoSettingAttributeAddress",
      "outputs": [
        {
          "name": "",
          "type": "address"
        }
      ],
      "payable": false,
      "stateMutability": "view",
      "type": "function"
    },
    {
      "constant": true,
      "inputs": [],
      "name": "aoSettingValueAddress",
      "outputs": [
        {
          "name": "",
          "type": "address"
        }
      ],
      "payable": false,
      "stateMutability": "view",
      "type": "function"
    },
    {
      "inputs": [
        {
          "name": "_nameFactoryAddress",
          "type": "address"
        },
        {
          "name": "_nameTAOPositionAddress",
          "type": "address"
        },
        {
          "name": "_nameAccountRecoveryAddress",
          "type": "address"
        },
        {
          "name": "_aoSettingAttributeAddress",
          "type": "address"
        },
        {
          "name": "_aoSettingValueAddress",
          "type": "address"
        },
        {
          "name": "_aoSettingAddress",
          "type": "address"
        }
      ],
      "payable": false,
      "stateMutability": "nonpayable",
      "type": "constructor"
    },
    {
      "anonymous": false,
      "inputs": [
        {
          "indexed": true,
          "name": "settingId",
          "type": "uint256"
        },
        {
          "indexed": true,
          "name": "updateAdvocateNameId",
          "type": "address"
        },
        {
          "indexed": false,
          "name": "proposalTAOId",
          "type": "address"
        }
      ],
      "name": "SettingUpdate",
      "type": "event"
    },
    {
      "anonymous": false,
      "inputs": [
        {
          "indexed": true,
          "name": "settingId",
          "type": "uint256"
        },
        {
          "indexed": false,
          "name": "proposalTAOId",
          "type": "address"
        },
        {
          "indexed": false,
          "name": "proposalTAOAdvocate",
          "type": "address"
        },
        {
          "indexed": false,
          "name": "approved",
          "type": "bool"
        }
      ],
      "name": "ApproveSettingUpdate",
      "type": "event"
    },
    {
      "anonymous": false,
      "inputs": [
        {
          "indexed": true,
          "name": "settingId",
          "type": "uint256"
        },
        {
          "indexed": false,
          "name": "associatedTAOId",
          "type": "address"
        },
        {
          "indexed": false,
          "name": "associatedTAOAdvocate",
          "type": "address"
        }
      ],
      "name": "FinalizeSettingUpdate",
      "type": "event"
    },
    {
      "constant": false,
      "inputs": [
        {
          "name": "_theAO",
          "type": "address"
        }
      ],
      "name": "transferOwnership",
      "outputs": [],
      "payable": false,
      "stateMutability": "nonpayable",
      "type": "function"
    },
    {
      "constant": false,
      "inputs": [
        {
          "name": "_account",
          "type": "address"
        },
        {
          "name": "_whitelist",
          "type": "bool"
        }
      ],
      "name": "setWhitelist",
      "outputs": [],
      "payable": false,
      "stateMutability": "nonpayable",
      "type": "function"
    },
    {
      "constant": false,
      "inputs": [
        {
          "name": "_nameFactoryAddress",
          "type": "address"
        }
      ],
      "name": "setNameFactoryAddress",
      "outputs": [],
      "payable": false,
      "stateMutability": "nonpayable",
      "type": "function"
    },
    {
      "constant": false,
      "inputs": [
        {
          "name": "_nameTAOPositionAddress",
          "type": "address"
        }
      ],
      "name": "setNameTAOPositionAddress",
      "outputs": [],
      "payable": false,
      "stateMutability": "nonpayable",
      "type": "function"
    },
    {
      "constant": false,
      "inputs": [
        {
          "name": "_nameAccountRecoveryAddress",
          "type": "address"
        }
      ],
      "name": "setNameAccountRecoveryAddress",
      "outputs": [],
      "payable": false,
      "stateMutability": "nonpayable",
      "type": "function"
    },
    {
      "constant": false,
      "inputs": [
        {
          "name": "_aoSettingAttributeAddress",
          "type": "address"
        }
      ],
      "name": "setAOSettingAttributeAddress",
      "outputs": [],
      "payable": false,
      "stateMutability": "nonpayable",
      "type": "function"
    },
    {
      "constant": false,
      "inputs": [
        {
          "name": "_aoSettingValueAddress",
          "type": "address"
        }
      ],
      "name": "setAOSettingValueAddress",
      "outputs": [],
      "payable": false,
      "stateMutability": "nonpayable",
      "type": "function"
    },
    {
      "constant": false,
      "inputs": [
        {
          "name": "_aoSettingAddress",
          "type": "address"
        }
      ],
      "name": "setAOSettingAddress",
      "outputs": [],
      "payable": false,
      "stateMutability": "nonpayable",
      "type": "function"
    },
    {
      "constant": false,
      "inputs": [
        {
          "name": "_settingId",
          "type": "uint256"
        },
        {
          "name": "_newValue",
          "type": "address"
        },
        {
          "name": "_proposalTAOId",
          "type": "address"
        },
        {
          "name": "_signatureV",
          "type": "uint8"
        },
        {
          "name": "_signatureR",
          "type": "bytes32"
        },
        {
          "name": "_signatureS",
          "type": "bytes32"
        },
        {
          "name": "_extraData",
          "type": "string"
        }
      ],
      "name": "updateAddressSetting",
      "outputs": [],
      "payable": false,
      "stateMutability": "nonpayable",
      "type": "function"
    },
    {
      "constant": false,
      "inputs": [
        {
          "name": "_settingId",
          "type": "uint256"
        },
        {
          "name": "_newValue",
          "type": "bool"
        },
        {
          "name": "_proposalTAOId",
          "type": "address"
        },
        {
          "name": "_signatureV",
          "type": "uint8"
        },
        {
          "name": "_signatureR",
          "type": "bytes32"
        },
        {
          "name": "_signatureS",
          "type": "bytes32"
        },
        {
          "name": "_extraData",
          "type": "string"
        }
      ],
      "name": "updateBoolSetting",
      "outputs": [],
      "payable": false,
      "stateMutability": "nonpayable",
      "type": "function"
    },
    {
      "constant": false,
      "inputs": [
        {
          "name": "_settingId",
          "type": "uint256"
        },
        {
          "name": "_newValue",
          "type": "bytes32"
        },
        {
          "name": "_proposalTAOId",
          "type": "address"
        },
        {
          "name": "_signatureV",
          "type": "uint8"
        },
        {
          "name": "_signatureR",
          "type": "bytes32"
        },
        {
          "name": "_signatureS",
          "type": "bytes32"
        },
        {
          "name": "_extraData",
          "type": "string"
        }
      ],
      "name": "updateBytesSetting",
      "outputs": [],
      "payable": false,
      "stateMutability": "nonpayable",
      "type": "function"
    },
    {
      "constant": false,
      "inputs": [
        {
          "name": "_settingId",
          "type": "uint256"
        },
        {
          "name": "_newValue",
          "type": "string"
        },
        {
          "name": "_proposalTAOId",
          "type": "address"
        },
        {
          "name": "_signatureV",
          "type": "uint8"
        },
        {
          "name": "_signatureR",
          "type": "bytes32"
        },
        {
          "name": "_signatureS",
          "type": "bytes32"
        },
        {
          "name": "_extraData",
          "type": "string"
        }
      ],
      "name": "updateStringSetting",
      "outputs": [],
      "payable": false,
      "stateMutability": "nonpayable",
      "type": "function"
    },
    {
      "constant": false,
      "inputs": [
        {
          "name": "_settingId",
          "type": "uint256"
        },
        {
          "name": "_newValue",
          "type": "uint256"
        },
        {
          "name": "_proposalTAOId",
          "type": "address"
        },
        {
          "name": "_signatureV",
          "type": "uint8"
        },
        {
          "name": "_signatureR",
          "type": "bytes32"
        },
        {
          "name": "_signatureS",
          "type": "bytes32"
        },
        {
          "name": "_extraData",
          "type": "string"
        }
      ],
      "name": "updateUintSetting",
      "outputs": [],
      "payable": false,
      "stateMutability": "nonpayable",
      "type": "function"
    },
    {
      "constant": false,
      "inputs": [
        {
          "name": "_settingId",
          "type": "uint256"
        },
        {
          "name": "_approved",
          "type": "bool"
        }
      ],
      "name": "approveSettingUpdate",
      "outputs": [],
      "payable": false,
      "stateMutability": "nonpayable",
      "type": "function"
    },
    {
      "constant": false,
      "inputs": [
        {
          "name": "_settingId",
          "type": "uint256"
        }
      ],
      "name": "finalizeSettingUpdate",
      "outputs": [],
      "payable": false,
      "stateMutability": "nonpayable",
      "type": "function"
    },
    {
      "constant": false,
      "inputs": [
        {
          "name": "_settingId",
          "type": "uint256"
        },
        {
          "name": "_newValue",
          "type": "uint256"
        },
        {
          "name": "_proposalTAOId",
          "type": "address"
        },
        {
          "name": "_v",
          "type": "uint8"
        },
        {
          "name": "_r",
          "type": "bytes32"
        },
        {
          "name": "_s",
          "type": "bytes32"
        }
      ],
      "name": "_verifyAndStoreUpdateUintSignature",
      "outputs": [
        {
          "name": "",
          "type": "bool"
        }
      ],
      "payable": false,
      "stateMutability": "nonpayable",
      "type": "function"
    }
  ],
  "bytecode": "0x60806040523480156200001157600080fd5b5060405160c08062004dc6833981018060405260c08110156200003357600080fd5b508051602082015160408301516060840151608085015160a09095015160008054600160a060020a0319163317905593949293919290916200007e86640100000000620000ee810204565b6200009285640100000000620001f3810204565b620000a684640100000000620002f8810204565b620000ba8364010000000062000400810204565b620000ce8264010000000062000505810204565b620000e2816401000000006200060a810204565b5050505050506200070f565b600054600154604080517ff66afcac000000000000000000000000000000000000000000000000000000008152336004820152600160a060020a0393841660248201529290911660448301525173__AOLibrary_____________________________9163f66afcac916064808301926020929190829003018186803b1580156200017757600080fd5b505af41580156200018c573d6000803e3d6000fd5b505050506040513d6020811015620001a357600080fd5b50511515620001b157600080fd5b600160a060020a0381161515620001c757600080fd5b60038054600160a060020a03909216600160a060020a0319928316811790915560088054909216179055565b600054600154604080517ff66afcac000000000000000000000000000000000000000000000000000000008152336004820152600160a060020a0393841660248201529290911660448301525173__AOLibrary_____________________________9163f66afcac916064808301926020929190829003018186803b1580156200027c57600080fd5b505af415801562000291573d6000803e3d6000fd5b505050506040513d6020811015620002a857600080fd5b50511515620002b657600080fd5b600160a060020a0381161515620002cc57600080fd5b60018054600160a060020a03909216600160a060020a0319928316811790915560098054909216179055565b600054600154604080517ff66afcac000000000000000000000000000000000000000000000000000000008152336004820152600160a060020a0393841660248201529290911660448301525173__AOLibrary_____________________________9163f66afcac916064808301926020929190829003018186803b1580156200038157600080fd5b505af415801562000396573d6000803e3d6000fd5b505050506040513d6020811015620003ad57600080fd5b50511515620003bb57600080fd5b600160a060020a0381161515620003d157600080fd5b60048054600160a060020a0319908116600160a060020a039384161791829055600a8054929093169116179055565b600054600154604080517ff66afcac000000000000000000000000000000000000000000000000000000008152336004820152600160a060020a0393841660248201529290911660448301525173__AOLibrary_____________________________9163f66afcac916064808301926020929190829003018186803b1580156200048957600080fd5b505af41580156200049e573d6000803e3d6000fd5b505050506040513d6020811015620004b557600080fd5b50511515620004c357600080fd5b600160a060020a0381161515620004d957600080fd5b60058054600160a060020a03909216600160a060020a03199283168117909155600b8054909216179055565b600054600154604080517ff66afcac000000000000000000000000000000000000000000000000000000008152336004820152600160a060020a0393841660248201529290911660448301525173__AOLibrary_____________________________9163f66afcac916064808301926020929190829003018186803b1580156200058e57600080fd5b505af4158015620005a3573d6000803e3d6000fd5b505050506040513d6020811015620005ba57600080fd5b50511515620005c857600080fd5b600160a060020a0381161515620005de57600080fd5b60068054600160a060020a03909216600160a060020a03199283168117909155600c8054909216179055565b600054600154604080517ff66afcac000000000000000000000000000000000000000000000000000000008152336004820152600160a060020a0393841660248201529290911660448301525173__AOLibrary_____________________________9163f66afcac916064808301926020929190829003018186803b1580156200069357600080fd5b505af4158015620006a8573d6000803e3d6000fd5b505050506040513d6020811015620006bf57600080fd5b50511515620006cd57600080fd5b600160a060020a0381161515620006e357600080fd5b60078054600160a060020a03909216600160a060020a03199283168117909155600d8054909216179055565b6146a7806200071f6000396000f3fe608060405234801561001057600080fd5b50600436106101925760003560e060020a900480638c924361116100e2578063a4e5fad21161009b578063cf8477cf11610075578063cf8477cf146107fc578063dc4c5d5614610804578063ec18d8ce1461080c578063f2fde38b146108e657610192565b8063a4e5fad2146107e4578063a9b6b38e146107ec578063bc406206146107f457610192565b80638c924361146104f257806394bdae77146105185780639a44690e146105735780639b19251a146105905780639d7dd7de146105b6578063a125f7631461070e57610192565b80631dfde2bd1161014f5780634ef033f0116101295780634ef033f01461047057806353d6fd59146104785780635cfaf2ef146104a657806372eca635146104cc57610192565b80631dfde2bd146103ff5780631f124116146104255780633f056cb41461044a57610192565b806306fd70881461019757806309fac510146101bf57806311a137b2146102975780631b2dbff61461036d5780631c89d9ae1461039c5780631d0138ff146103db575b600080fd5b6101bd600480360360208110156101ad57600080fd5b5035600160a060020a031661090c565b005b6101bd600480360360e08110156101d557600080fd5b8135916020810135151591600160a060020a036040830135169160ff6060820135169160808201359160a08101359181019060e0810160c082013564010000000081111561022257600080fd5b82018360208201111561023457600080fd5b8035906020019184600183028401116401000000008311171561025657600080fd5b91908080601f0160208091040260200160405190810160405280939291908181526020018383808284376000920191909152509295506109f6945050505050565b6101bd600480360360e08110156102ad57600080fd5b813591602081013591600160a060020a036040830135169160ff6060820135169160808201359160a08101359181019060e0810160c08201356401000000008111156102f857600080fd5b82018360208201111561030a57600080fd5b8035906020019184600183028401116401000000008311171561032c57600080fd5b91908080601f016020809104026020016040519081016040528093929190818152602001838380828437600092019190915250929550611041945050505050565b61038a6004803603602081101561038357600080fd5b50356115c9565b60408051918252519081900360200190f35b6103b9600480360360208110156103b257600080fd5b50356115db565b6040805160ff9094168452602084019290925282820152519081900360600190f35b6103e3611600565b60408051600160a060020a039092168252519081900360200190f35b6101bd6004803603602081101561041557600080fd5b5035600160a060020a031661160f565b6101bd6004803603604081101561043b57600080fd5b508035906020013515156116fc565b6101bd6004803603602081101561046057600080fd5b5035600160a060020a0316611bb6565b6103e3611ca0565b6101bd6004803603604081101561048e57600080fd5b50600160a060020a0381351690602001351515611caf565b6101bd600480360360208110156104bc57600080fd5b5035600160a060020a0316611d98565b6101bd600480360360208110156104e257600080fd5b5035600160a060020a0316611e82565b6101bd6004803603602081101561050857600080fd5b5035600160a060020a0316611f6c565b61055f600480360360c081101561052e57600080fd5b50803590602081013590600160a060020a036040820135169060ff6060820135169060808101359060a00135612056565b604080519115158252519081900360200190f35b6101bd6004803603602081101561058957600080fd5b50356121d5565b61055f600480360360208110156105a657600080fd5b5035600160a060020a031661275d565b6101bd600480360360e08110156105cc57600080fd5b813591908101906040810160208201356401000000008111156105ee57600080fd5b82018360208201111561060057600080fd5b8035906020019184600183028401116401000000008311171561062257600080fd5b91908080601f0160208091040260200160405190810160405280939291908181526020018383808284376000920191909152509295600160a060020a038535169560ff6020870135169560408101359550606081013594509192509060a08101906080013564010000000081111561069957600080fd5b8201836020820111156106ab57600080fd5b803590602001918460018302840111640100000000831117156106cd57600080fd5b91908080601f016020809104026020016040519081016040528093929190818152602001838380828437600092019190915250929550612772945050505050565b6101bd600480360360e081101561072457600080fd5b813591602081013591600160a060020a036040830135169160ff6060820135169160808201359160a08101359181019060e0810160c082013564010000000081111561076f57600080fd5b82018360208201111561078157600080fd5b803590602001918460018302840111640100000000831117156107a357600080fd5b91908080601f016020809104026020016040519081016040528093929190818152602001838380828437600092019190915250929550612d76945050505050565b6103e36132f7565b6103e3613306565b6103e3613315565b6103e3613324565b6103e3613333565b6101bd600480360360e081101561082257600080fd5b813591600160a060020a03602082013581169260408301359091169160ff6060820135169160808201359160a08101359181019060e0810160c082013564010000000081111561087157600080fd5b82018360208201111561088357600080fd5b803590602001918460018302840111640100000000831117156108a557600080fd5b91908080601f016020809104026020016040519081016040528093929190818152602001838380828437600092019190915250929550613342945050505050565b6101bd600480360360208110156108fc57600080fd5b5035600160a060020a03166138c0565b6000546001546040805160e260020a633d9abf2b028152336004820152600160a060020a0393841660248201529290911660448301525173__AOLibrary_____________________________9163f66afcac916064808301926020929190829003018186803b15801561097e57600080fd5b505af4158015610992573d6000803e3d6000fd5b505050506040513d60208110156109a857600080fd5b505115156109b557600080fd5b600160a060020a03811615156109ca57600080fd5b60078054600160a060020a03909216600160a060020a03199283168117909155600d8054909216179055565b8473__AOLibrary_____________________________632fca5414826040518263ffffffff1660e060020a0281526004018082600160a060020a0316600160a060020a0316815260200191505060206040518083038186803b158015610a5b57600080fd5b505af4158015610a6f573d6000803e3d6000fd5b505050506040513d6020811015610a8557600080fd5b50518015610b1457506008546040805160e060020a63029b7d530281523360048201529051600092600160a060020a03169163029b7d53916024808301926020929190829003018186803b158015610adc57600080fd5b505afa158015610af0573d6000803e3d6000fd5b505050506040513d6020811015610b0657600080fd5b5051600160a060020a031614155b8015610c105750600a546008546040805160e060020a63029b7d530281523360048201529051600160a060020a0393841693633ebc2ab393169163029b7d53916024808301926020929190829003018186803b158015610b7357600080fd5b505afa158015610b87573d6000803e3d6000fd5b505050506040513d6020811015610b9d57600080fd5b50516040805160e060020a63ffffffff8516028152600160a060020a039092166004830152516024808301926020929190829003018186803b158015610be257600080fd5b505afa158015610bf6573d6000803e3d6000fd5b505050506040513d6020811015610c0c57600080fd5b5051155b1515610c1b57600080fd5b876000600d60009054906101000a9004600160a060020a0316600160a060020a03166379d0c71e6040518163ffffffff1660e060020a02815260040160a06040518083038186803b158015610c6f57600080fd5b505afa158015610c83573d6000803e3d6000fd5b505050506040513d60a0811015610c9957600080fd5b50602090810151600d546040805160e060020a63a62eeead02815260048101879052905192945060ff851693600160a060020a039092169263a62eeead92602480840193919291829003018186803b158015610cf457600080fd5b505afa158015610d08573d6000803e3d6000fd5b505050506040513d6020811015610d1e57600080fd5b505160ff1614610d2d57600080fd5b610d3b8a8a8a8a8a8a6139a0565b1515610d4657600080fd5b600b546008546040805160e060020a63029b7d530281523360048201529051600160a060020a039384169363c555ca1e938f9391169163029b7d5391602480820192602092909190829003018186803b158015610da257600080fd5b505afa158015610db6573d6000803e3d6000fd5b505050506040513d6020811015610dcc57600080fd5b505160405160e060020a63ffffffff851602815260048101838152600160a060020a0380841660248401528e1660448301526080606483019081528a5160848401528a518f938c93929160a490910190602085019080838360005b83811015610e3f578181015183820152602001610e27565b50505050905090810190601f168015610e6c5780820380516001836020036101000a031916815260200191505b5095505050505050602060405180830381600087803b158015610e8e57600080fd5b505af1158015610ea2573d6000803e3d6000fd5b505050506040513d6020811015610eb857600080fd5b50511515610ec557600080fd5b600c546040805160e060020a63ccdd6afd028152600481018d90526000602482018190528c1515604483015260a4820181905260c0608483015260c482018190529151600160a060020a039093169263ccdd6afd9261010480840193602093929083900390910190829087803b158015610f3e57600080fd5b505af1158015610f52573d6000803e3d6000fd5b505050506040513d6020811015610f6857600080fd5b50610f7790508a8a8a87613b01565b6008546040805160e060020a63029b7d530281523360048201529051600160a060020a039092169163029b7d5391602480820192602092909190829003018186803b158015610fc557600080fd5b505afa158015610fd9573d6000803e3d6000fd5b505050506040513d6020811015610fef57600080fd5b505160408051600160a060020a038b81168252915191909216918c917f6b669130d0b3ac9bed9420e1b2bfc22364661b81330a9aa01a1deddf3512d2e09181900360200190a350505050505050505050565b8473__AOLibrary_____________________________632fca5414826040518263ffffffff1660e060020a0281526004018082600160a060020a0316600160a060020a0316815260200191505060206040518083038186803b1580156110a657600080fd5b505af41580156110ba573d6000803e3d6000fd5b505050506040513d60208110156110d057600080fd5b5051801561115f57506008546040805160e060020a63029b7d530281523360048201529051600092600160a060020a03169163029b7d53916024808301926020929190829003018186803b15801561112757600080fd5b505afa15801561113b573d6000803e3d6000fd5b505050506040513d602081101561115157600080fd5b5051600160a060020a031614155b801561125b5750600a546008546040805160e060020a63029b7d530281523360048201529051600160a060020a0393841693633ebc2ab393169163029b7d53916024808301926020929190829003018186803b1580156111be57600080fd5b505afa1580156111d2573d6000803e3d6000fd5b505050506040513d60208110156111e857600080fd5b50516040805160e060020a63ffffffff8516028152600160a060020a039092166004830152516024808301926020929190829003018186803b15801561122d57600080fd5b505afa158015611241573d6000803e3d6000fd5b505050506040513d602081101561125757600080fd5b5051155b151561126657600080fd5b876000600d60009054906101000a9004600160a060020a0316600160a060020a03166379d0c71e6040518163ffffffff1660e060020a02815260040160a06040518083038186803b1580156112ba57600080fd5b505afa1580156112ce573d6000803e3d6000fd5b505050506040513d60a08110156112e457600080fd5b50604090810151600d54825160e060020a63a62eeead02815260048101869052925191935060ff841692600160a060020a039091169163a62eeead91602480820192602092909190829003018186803b15801561134057600080fd5b505afa158015611354573d6000803e3d6000fd5b505050506040513d602081101561136a57600080fd5b505160ff161461137957600080fd5b6113878a8a8a8a8a8a612056565b151561139257600080fd5b600b546008546040805160e060020a63029b7d530281523360048201529051600160a060020a039384169363c555ca1e938f9391169163029b7d5391602480820192602092909190829003018186803b1580156113ee57600080fd5b505afa158015611402573d6000803e3d6000fd5b505050506040513d602081101561141857600080fd5b505160405160e060020a63ffffffff851602815260048101838152600160a060020a0380841660248401528e1660448301526080606483019081528a5160848401528a518f938c93929160a490910190602085019080838360005b8381101561148b578181015183820152602001611473565b50505050905090810190601f1680156114b85780820380516001836020036101000a031916815260200191505b5095505050505050602060405180830381600087803b1580156114da57600080fd5b505af11580156114ee573d6000803e3d6000fd5b505050506040513d602081101561150457600080fd5b5051151561151157600080fd5b600c546040805160e060020a63ccdd6afd028152600481018d905260006024820181905260448201819052606482018d905260a4820181905260c0608483015260c482018190529151600160a060020a039093169263ccdd6afd9261010480840193602093929083900390910190829087803b15801561159057600080fd5b505af11580156115a4573d6000803e3d6000fd5b505050506040513d60208110156115ba57600080fd5b50610f7790508a8a8a87613ce8565b600f6020526000908152604090205481565b600e6020526000908152604090208054600182015460029092015460ff909116919083565b600754600160a060020a031681565b6000546001546040805160e260020a633d9abf2b028152336004820152600160a060020a0393841660248201529290911660448301525173__AOLibrary_____________________________9163f66afcac916064808301926020929190829003018186803b15801561168157600080fd5b505af4158015611695573d6000803e3d6000fd5b505050506040513d60208110156116ab57600080fd5b505115156116b857600080fd5b600160a060020a03811615156116cd57600080fd5b60048054600160a060020a0319908116600160a060020a039384161791829055600a8054929093169116179055565b6008546040805160e060020a63029b7d530281523360048201529051600092600160a060020a03169163029b7d53916024808301926020929190829003018186803b15801561174a57600080fd5b505afa15801561175e573d6000803e3d6000fd5b505050506040513d602081101561177457600080fd5b5051600160a060020a0316141561178a57600080fd5b600a546008546040805160e060020a63029b7d530281523360048201529051600160a060020a0393841693633ebc2ab393169163029b7d53916024808301926020929190829003018186803b1580156117e257600080fd5b505afa1580156117f6573d6000803e3d6000fd5b505050506040513d602081101561180c57600080fd5b50516040805160e060020a63ffffffff8516028152600160a060020a039092166004830152516024808301926020929190829003018186803b15801561185157600080fd5b505afa158015611865573d6000803e3d6000fd5b505050506040513d602081101561187b57600080fd5b50511561188757600080fd5b600d546040805160e060020a63a62eeead028152600481018590529051600092600160a060020a03169163a62eeead916024808301926020929190829003018186803b1580156118d657600080fd5b505afa1580156118ea573d6000803e3d6000fd5b505050506040513d602081101561190057600080fd5b505160ff161161190f57600080fd5b6008546040805160e060020a63029b7d530281523360048201529051600092600160a060020a03169163029b7d53916024808301926020929190829003018186803b15801561195d57600080fd5b505afa158015611971573d6000803e3d6000fd5b505050506040513d602081101561198757600080fd5b5051600b54604080517fad58a7d2000000000000000000000000000000000000000000000000000000008152600481018790529051929350600092600160a060020a039092169163ad58a7d2916024808201928692909190829003018186803b1580156119f357600080fd5b505afa158015611a07573d6000803e3d6000fd5b505050506040513d6000823e601f3d908101601f1916820160405260c0811015611a3057600080fd5b8151602083015160408401516060850151608086015160a08701805195979496939592949193820192640100000000811115611a6b57600080fd5b82016020810184811115611a7e57600080fd5b8151640100000000811182820187101715611a9857600080fd5b505092919050505050509350505050600b60009054906101000a9004600160a060020a0316600160a060020a0316635f39fd738584866040518463ffffffff1660e060020a0281526004018084815260200183600160a060020a0316600160a060020a03168152602001821515151581526020019350505050602060405180830381600087803b158015611b2b57600080fd5b505af1158015611b3f573d6000803e3d6000fd5b505050506040513d6020811015611b5557600080fd5b50511515611b6257600080fd5b60408051600160a060020a0380841682528416602082015284151581830152905185917fd1ceffc896374df3ec020f7a5b068a38f909c6833edd2c4fec3716074c07dc7d919081900360600190a250505050565b6000546001546040805160e260020a633d9abf2b028152336004820152600160a060020a0393841660248201529290911660448301525173__AOLibrary_____________________________9163f66afcac916064808301926020929190829003018186803b158015611c2857600080fd5b505af4158015611c3c573d6000803e3d6000fd5b505050506040513d6020811015611c5257600080fd5b50511515611c5f57600080fd5b600160a060020a0381161515611c7457600080fd5b60068054600160a060020a03909216600160a060020a03199283168117909155600c8054909216179055565b600154600160a060020a031681565b6000546001546040805160e260020a633d9abf2b028152336004820152600160a060020a0393841660248201529290911660448301525173__AOLibrary_____________________________9163f66afcac916064808301926020929190829003018186803b158015611d2157600080fd5b505af4158015611d35573d6000803e3d6000fd5b505050506040513d6020811015611d4b57600080fd5b50511515611d5857600080fd5b600160a060020a0382161515611d6d57600080fd5b600160a060020a03919091166000908152600260205260409020805460ff1916911515919091179055565b6000546001546040805160e260020a633d9abf2b028152336004820152600160a060020a0393841660248201529290911660448301525173__AOLibrary_____________________________9163f66afcac916064808301926020929190829003018186803b158015611e0a57600080fd5b505af4158015611e1e573d6000803e3d6000fd5b505050506040513d6020811015611e3457600080fd5b50511515611e4157600080fd5b600160a060020a0381161515611e5657600080fd5b60018054600160a060020a03909216600160a060020a0319928316811790915560098054909216179055565b6000546001546040805160e260020a633d9abf2b028152336004820152600160a060020a0393841660248201529290911660448301525173__AOLibrary_____________________________9163f66afcac916064808301926020929190829003018186803b158015611ef457600080fd5b505af4158015611f08573d6000803e3d6000fd5b505050506040513d6020811015611f1e57600080fd5b50511515611f2b57600080fd5b600160a060020a0381161515611f4057600080fd5b60058054600160a060020a03909216600160a060020a03199283168117909155600b8054909216179055565b6000546001546040805160e260020a633d9abf2b028152336004820152600160a060020a0393841660248201529290911660448301525173__AOLibrary_____________________________9163f66afcac916064808301926020929190829003018186803b158015611fde57600080fd5b505af4158015611ff2573d6000803e3d6000fd5b505050506040513d602081101561200857600080fd5b5051151561201557600080fd5b600160a060020a038116151561202a57600080fd5b60038054600160a060020a03909216600160a060020a0319928316811790915560088054909216179055565b6008546040805160e060020a63029b7d530281523360048201529051600092839230928b928a928c92600160a060020a039092169163029b7d5391602480820192602092909190829003018186803b1580156120b157600080fd5b505afa1580156120c5573d6000803e3d6000fd5b505050506040513d60208110156120db57600080fd5b505160408051606060020a600160a060020a0397881681026020838101919091526034830197909752948716850260548201526068810193909352941690910260888201528251607c818303018152609c8201808552815191840191909120600090915260bc820180855281905260ff891660dc83015260fc820188905261011c82018790529251929350339260019261013c808401939192601f1981019281900390910190855afa158015612195573d6000803e3d6000fd5b50505060206040510351600160a060020a03161415156121b95760009150506121cb565b6121c588868686613e51565b60019150505b9695505050505050565b6008546040805160e060020a63029b7d530281523360048201529051600092600160a060020a03169163029b7d53916024808301926020929190829003018186803b15801561222357600080fd5b505afa158015612237573d6000803e3d6000fd5b505050506040513d602081101561224d57600080fd5b5051600160a060020a0316141561226357600080fd5b600a546008546040805160e060020a63029b7d530281523360048201529051600160a060020a0393841693633ebc2ab393169163029b7d53916024808301926020929190829003018186803b1580156122bb57600080fd5b505afa1580156122cf573d6000803e3d6000fd5b505050506040513d60208110156122e557600080fd5b50516040805160e060020a63ffffffff8516028152600160a060020a039092166004830152516024808301926020929190829003018186803b15801561232a57600080fd5b505afa15801561233e573d6000803e3d6000fd5b505050506040513d602081101561235457600080fd5b50511561236057600080fd5b600d546040805160e060020a63a62eeead028152600481018490529051600092600160a060020a03169163a62eeead916024808301926020929190829003018186803b1580156123af57600080fd5b505afa1580156123c3573d6000803e3d6000fd5b505050506040513d60208110156123d957600080fd5b505160ff16116123e857600080fd5b6008546040805160e060020a63029b7d530281523360048201529051600092600160a060020a03169163029b7d53916024808301926020929190829003018186803b15801561243657600080fd5b505afa15801561244a573d6000803e3d6000fd5b505050506040513d602081101561246057600080fd5b5051600b54604080517f83fee16d00000000000000000000000000000000000000000000000000000000815260048101869052600160a060020a03808516602483015291519394509116916383fee16d916044808201926020929091908290030181600087803b1580156124d357600080fd5b505af11580156124e7573d6000803e3d6000fd5b505050506040513d60208110156124fd57600080fd5b5051151561250a57600080fd5b600b54604080517f81f3e897000000000000000000000000000000000000000000000000000000008152600481018590529051600092600160a060020a0316916381f3e8979160248083019286929190829003018186803b15801561256e57600080fd5b505afa158015612582573d6000803e3d6000fd5b505050506040513d6000823e601f3d908101601f191682016040526101208110156125ac57600080fd5b8151602083015160408401516060850151608086018051949693959294919392830192916401000000008111156125e257600080fd5b820160208101848111156125f557600080fd5b815164010000000081118282018710171561260f57600080fd5b5050602082015160408301516060840151608090940180519396929591949364010000000081111561264057600080fd5b8201602081018481111561265357600080fd5b815164010000000081118282018710171561266d57600080fd5b505092919050505050505050509350505050600c60009054906101000a9004600160a060020a0316600160a060020a031663088fc1a8846040518263ffffffff1660e060020a02815260040180828152602001915050602060405180830381600087803b1580156126dd57600080fd5b505af11580156126f1573d6000803e3d6000fd5b505050506040513d602081101561270757600080fd5b5051151561271457600080fd5b60408051600160a060020a03808416825284166020820152815185927f0b8de7345c8858c1a768f8563f771e787ca936dd91e184518c41598661bcecf6928290030190a2505050565b60026020526000908152604090205460ff1681565b8473__AOLibrary_____________________________632fca5414826040518263ffffffff1660e060020a0281526004018082600160a060020a0316600160a060020a0316815260200191505060206040518083038186803b1580156127d757600080fd5b505af41580156127eb573d6000803e3d6000fd5b505050506040513d602081101561280157600080fd5b5051801561289057506008546040805160e060020a63029b7d530281523360048201529051600092600160a060020a03169163029b7d53916024808301926020929190829003018186803b15801561285857600080fd5b505afa15801561286c573d6000803e3d6000fd5b505050506040513d602081101561288257600080fd5b5051600160a060020a031614155b801561298c5750600a546008546040805160e060020a63029b7d530281523360048201529051600160a060020a0393841693633ebc2ab393169163029b7d53916024808301926020929190829003018186803b1580156128ef57600080fd5b505afa158015612903573d6000803e3d6000fd5b505050506040513d602081101561291957600080fd5b50516040805160e060020a63ffffffff8516028152600160a060020a039092166004830152516024808301926020929190829003018186803b15801561295e57600080fd5b505afa158015612972573d6000803e3d6000fd5b505050506040513d602081101561298857600080fd5b5051155b151561299757600080fd5b876000600d60009054906101000a9004600160a060020a0316600160a060020a03166379d0c71e6040518163ffffffff1660e060020a02815260040160a06040518083038186803b1580156129eb57600080fd5b505afa1580156129ff573d6000803e3d6000fd5b505050506040513d60a0811015612a1557600080fd5b5060600151600d546040805160e060020a63a62eeead02815260048101869052905192935060ff841692600160a060020a039092169163a62eeead91602480820192602092909190829003018186803b158015612a7157600080fd5b505afa158015612a85573d6000803e3d6000fd5b505050506040513d6020811015612a9b57600080fd5b505160ff1614612aaa57600080fd5b612ab88a8a8a8a8a8a613e7d565b1515612ac357600080fd5b600b546008546040805160e060020a63029b7d530281523360048201529051600160a060020a039384169363c555ca1e938f9391169163029b7d5391602480820192602092909190829003018186803b158015612b1f57600080fd5b505afa158015612b33573d6000803e3d6000fd5b505050506040513d6020811015612b4957600080fd5b505160405160e060020a63ffffffff851602815260048101838152600160a060020a0380841660248401528e1660448301526080606483019081528a5160848401528a518f938c93929160a490910190602085019080838360005b83811015612bbc578181015183820152602001612ba4565b50505050905090810190601f168015612be95780820380516001836020036101000a031916815260200191505b5095505050505050602060405180830381600087803b158015612c0b57600080fd5b505af1158015612c1f573d6000803e3d6000fd5b505050506040513d6020811015612c3557600080fd5b50511515612c4257600080fd5b600c60009054906101000a9004600160a060020a0316600160a060020a031663ccdd6afd8b6000808d60006040518663ffffffff1660e060020a0281526004018086815260200185600160a060020a0316600160a060020a031681526020018415151515815260200160200180602001838152602001828103825284818151815260200191508051906020019080838360005b83811015612ced578181015183820152602001612cd5565b50505050905090810190601f168015612d1a5780820380516001836020036101000a031916815260200191505b509650505050505050602060405180830381600087803b158015612d3d57600080fd5b505af1158015612d51573d6000803e3d6000fd5b505050506040513d6020811015612d6757600080fd5b50610f7790508a8a8a87614010565b8473__AOLibrary_____________________________632fca5414826040518263ffffffff1660e060020a0281526004018082600160a060020a0316600160a060020a0316815260200191505060206040518083038186803b158015612ddb57600080fd5b505af4158015612def573d6000803e3d6000fd5b505050506040513d6020811015612e0557600080fd5b50518015612e9457506008546040805160e060020a63029b7d530281523360048201529051600092600160a060020a03169163029b7d53916024808301926020929190829003018186803b158015612e5c57600080fd5b505afa158015612e70573d6000803e3d6000fd5b505050506040513d6020811015612e8657600080fd5b5051600160a060020a031614155b8015612f905750600a546008546040805160e060020a63029b7d530281523360048201529051600160a060020a0393841693633ebc2ab393169163029b7d53916024808301926020929190829003018186803b158015612ef357600080fd5b505afa158015612f07573d6000803e3d6000fd5b505050506040513d6020811015612f1d57600080fd5b50516040805160e060020a63ffffffff8516028152600160a060020a039092166004830152516024808301926020929190829003018186803b158015612f6257600080fd5b505afa158015612f76573d6000803e3d6000fd5b505050506040513d6020811015612f8c57600080fd5b5051155b1515612f9b57600080fd5b876000600d60009054906101000a9004600160a060020a0316600160a060020a03166379d0c71e6040518163ffffffff1660e060020a02815260040160a06040518083038186803b158015612fef57600080fd5b505afa158015613003573d6000803e3d6000fd5b505050506040513d60a081101561301957600080fd5b5060800151600d546040805160e060020a63a62eeead02815260048101869052905192935060ff841692600160a060020a039092169163a62eeead91602480820192602092909190829003018186803b15801561307557600080fd5b505afa158015613089573d6000803e3d6000fd5b505050506040513d602081101561309f57600080fd5b505160ff16146130ae57600080fd5b6130bc8a8a8a8a8a8a612056565b15156130c757600080fd5b600b546008546040805160e060020a63029b7d530281523360048201529051600160a060020a039384169363c555ca1e938f9391169163029b7d5391602480820192602092909190829003018186803b15801561312357600080fd5b505afa158015613137573d6000803e3d6000fd5b505050506040513d602081101561314d57600080fd5b505160405160e060020a63ffffffff851602815260048101838152600160a060020a0380841660248401528e1660448301526080606483019081528a5160848401528a518f938c93929160a490910190602085019080838360005b838110156131c05781810151838201526020016131a8565b50505050905090810190601f1680156131ed5780820380516001836020036101000a031916815260200191505b5095505050505050602060405180830381600087803b15801561320f57600080fd5b505af1158015613223573d6000803e3d6000fd5b505050506040513d602081101561323957600080fd5b5051151561324657600080fd5b600c546040805160e060020a63ccdd6afd028152600481018d90526000602482018190526044820181905260a482018d905260c0608483015260c482018190529151600160a060020a039093169263ccdd6afd9261010480840193602093929083900390910190829087803b1580156132be57600080fd5b505af11580156132d2573d6000803e3d6000fd5b505050506040513d60208110156132e857600080fd5b50610f7790508a8a8a876141fe565b600454600160a060020a031681565b600054600160a060020a031681565b600354600160a060020a031681565b600554600160a060020a031681565b600654600160a060020a031681565b8473__AOLibrary_____________________________632fca5414826040518263ffffffff1660e060020a0281526004018082600160a060020a0316600160a060020a0316815260200191505060206040518083038186803b1580156133a757600080fd5b505af41580156133bb573d6000803e3d6000fd5b505050506040513d60208110156133d157600080fd5b5051801561346057506008546040805160e060020a63029b7d530281523360048201529051600092600160a060020a03169163029b7d53916024808301926020929190829003018186803b15801561342857600080fd5b505afa15801561343c573d6000803e3d6000fd5b505050506040513d602081101561345257600080fd5b5051600160a060020a031614155b801561355c5750600a546008546040805160e060020a63029b7d530281523360048201529051600160a060020a0393841693633ebc2ab393169163029b7d53916024808301926020929190829003018186803b1580156134bf57600080fd5b505afa1580156134d3573d6000803e3d6000fd5b505050506040513d60208110156134e957600080fd5b50516040805160e060020a63ffffffff8516028152600160a060020a039092166004830152516024808301926020929190829003018186803b15801561352e57600080fd5b505afa158015613542573d6000803e3d6000fd5b505050506040513d602081101561355857600080fd5b5051155b151561356757600080fd5b876000600d60009054906101000a9004600160a060020a0316600160a060020a03166379d0c71e6040518163ffffffff1660e060020a02815260040160a06040518083038186803b1580156135bb57600080fd5b505afa1580156135cf573d6000803e3d6000fd5b505050506040513d60a08110156135e557600080fd5b5051600d546040805160e060020a63a62eeead02815260048101869052905192935060ff841692600160a060020a039092169163a62eeead91602480820192602092909190829003018186803b15801561363e57600080fd5b505afa158015613652573d6000803e3d6000fd5b505050506040513d602081101561366857600080fd5b505160ff161461367757600080fd5b6136858a8a8a8a8a8a614384565b151561369057600080fd5b600b546008546040805160e060020a63029b7d530281523360048201529051600160a060020a039384169363c555ca1e938f9391169163029b7d5391602480820192602092909190829003018186803b1580156136ec57600080fd5b505afa158015613700573d6000803e3d6000fd5b505050506040513d602081101561371657600080fd5b505160405160e060020a63ffffffff851602815260048101838152600160a060020a0380841660248401528e1660448301526080606483019081528a5160848401528a518f938c93929160a490910190602085019080838360005b83811015613789578181015183820152602001613771565b50505050905090810190601f1680156137b65780820380516001836020036101000a031916815260200191505b5095505050505050602060405180830381600087803b1580156137d857600080fd5b505af11580156137ec573d6000803e3d6000fd5b505050506040513d602081101561380257600080fd5b5051151561380f57600080fd5b600c546040805160e060020a63ccdd6afd028152600481018d9052600160a060020a038c8116602483015260006044830181905260a4830181905260c0608484015260c48301819052925193169263ccdd6afd9261010480840193602093929083900390910190829087803b15801561388757600080fd5b505af115801561389b573d6000803e3d6000fd5b505050506040513d60208110156138b157600080fd5b50610f7790508a8a8a876144c5565b6000546001546040805160e260020a633d9abf2b028152336004820152600160a060020a0393841660248201529290911660448301525173__AOLibrary_____________________________9163f66afcac916064808301926020929190829003018186803b15801561393257600080fd5b505af4158015613946573d6000803e3d6000fd5b505050506040513d602081101561395c57600080fd5b5051151561396957600080fd5b600160a060020a038116151561397e57600080fd5b60008054600160a060020a031916600160a060020a0392909216919091179055565b6008546040805160e060020a63029b7d530281523360048201529051600092839230928b928a928c92600160a060020a039092169163029b7d5391602480820192602092909190829003018186803b1580156139fb57600080fd5b505afa158015613a0f573d6000803e3d6000fd5b505050506040513d6020811015613a2557600080fd5b505160408051600160a060020a03968716606060020a9081026020808401919091526034830197909752948716850260548201529215157f0100000000000000000000000000000000000000000000000000000000000000026068840152941690910260698201528251808203605d018152607d82018085528151918401919091206000909152609d820180855281905260ff891660bd83015260dd820188905260fd82018790529251929350339260019261011d808401939192601f1981019281900390910190855afa158015612195573d6000803e3d6000fd5b600c546040805160e160020a634dd29ae7028152600481018790529051600092600160a060020a031691639ba535ce9160248083019286929190829003018186803b158015613b4f57600080fd5b505afa158015613b63573d6000803e3d6000fd5b505050506040513d6000823e601f3d908101601f1916820160405260a0811015613b8c57600080fd5b8151602083015160408401516060850180519395929491939183019291640100000000811115613bbb57600080fd5b82016020810184811115613bce57600080fd5b8151640100000000811182820187101715613be857600080fd5b5050604051606060020a308181026020848101918252600160a060020a038f1690930260348501527f01000000000000000000000000000000000000000000000000000000000000008a1515810260488601528f15150260498501528c51999b508f9a50600f99600099509197508d96508b95508e94508c938b939192604a909101918501908083835b60208310613c915780518252601f199092019160209182019101613c72565b51815160209384036101000a60001901801990921691161790529201938452506040805180850381529382018152835193820193909320895288019890985295909501600020969096555050505050505050505050565b600c546040805160e160020a634dd29ae7028152600481018790529051600092600160a060020a031691639ba535ce9160248083019286929190829003018186803b158015613d3657600080fd5b505afa158015613d4a573d6000803e3d6000fd5b505050506040513d6000823e601f3d908101601f1916820160405260a0811015613d7357600080fd5b8151602083015160408401516060850180519395929491939183019291640100000000811115613da257600080fd5b82016020810184811115613db557600080fd5b8151640100000000811182820187101715613dcf57600080fd5b5050604051606060020a308181026020848101918252600160a060020a038f16909302603485015260488401899052606884018f90528c51989b508f9a50600f99506000989197508d96508b95508e94508c938b93919260889091019185019080838360208310613c915780518252601f199092019160209182019101613c72565b6000938452600e6020526040909320805460ff191660ff93909316929092178255600182015560020155565b6008546040805160e060020a63029b7d530281523360048201529051600092839230928b928a928c92600160a060020a039092169163029b7d5391602480820192602092909190829003018186803b158015613ed857600080fd5b505afa158015613eec573d6000803e3d6000fd5b505050506040513d6020811015613f0257600080fd5b5051604051606060020a600160a060020a03808816820260208481019182526034850189905291871690920260548401528451919260680191908501908083835b60208310613f625780518252601f199092019160209182019101613f43565b51815160209384036101000a6000190180199092169116179052600160a060020a0395909516606060020a0292019182525060408051808303600b190181526014830180835281519186019190912060009091526034830180835281905260ff8e166054840152607483018d9052609483018c905290519098503397506001965060b48083019650939450601f19810193918190039091019150855afa158015612195573d6000803e3d6000fd5b600c546040805160e160020a634dd29ae7028152600481018790529051606092600160a060020a031691639ba535ce916024808301926000929190829003018186803b15801561405f57600080fd5b505afa158015614073573d6000803e3d6000fd5b505050506040513d6000823e601f3d908101601f1916820160405260a081101561409c57600080fd5b81516020830151604084015160608501805193959294919391830192916401000000008111156140cb57600080fd5b820160208101848111156140de57600080fd5b81516401000000008111828201871017156140f857600080fd5b5050604051606060020a308181026020848101918252600160a060020a038f1690930260348501528451949b508f9a50600f9950600098509096508c95508a94508d938c938b93604890910191908701908083835b6020831061416c5780518252601f19909201916020918201910161414d565b51815160209384036101000a600019018019909216911617905287519190930192870191508083835b602083106141b45780518252601f199092019160209182019101614195565b51815160001960209485036101000a0190811690199190911617905286519390910192908601915080838360208310613c915780518252601f199092019160209182019101613c72565b600c546040805160e160020a634dd29ae7028152600481018790529051600092600160a060020a031691639ba535ce9160248083019286929190829003018186803b15801561424c57600080fd5b505afa158015614260573d6000803e3d6000fd5b505050506040513d6000823e601f3d908101601f1916820160405260a081101561428957600080fd5b81516020830151604084015160608501805193959294919391830192916401000000008111156142b857600080fd5b820160208101848111156142cb57600080fd5b81516401000000008111828201871017156142e557600080fd5b50509291906020018051906020019092919050505094505050505084600f600030868589888c6040516020018087600160a060020a0316600160a060020a0316606060020a02815260140186600160a060020a0316600160a060020a0316606060020a028152601401858152602001848152602001838051906020019080838360208310613c915780518252601f199092019160209182019101613c72565b6008546040805160e060020a63029b7d530281523360048201529051600092839230928b928a928c92600160a060020a039092169163029b7d5391602480820192602092909190829003018186803b1580156143df57600080fd5b505afa1580156143f3573d6000803e3d6000fd5b505050506040513d602081101561440957600080fd5b505160408051606060020a600160a060020a039788168102602083810191909152603483019790975294871685026054820152928616840260688401529416909102607c8201528251607081830301815260908201808552815191840191909120600090915260b0820180855281905260ff891660d083015260f08201889052610110820187905292519293503392600192610130808401939192601f1981019281900390910190855afa158015612195573d6000803e3d6000fd5b600c546040805160e160020a634dd29ae7028152600481018790529051600092600160a060020a031691639ba535ce9160248083019286929190829003018186803b15801561451357600080fd5b505afa158015614527573d6000803e3d6000fd5b505050506040513d6000823e601f3d908101601f1916820160405260a081101561455057600080fd5b815160208301516040840151606085018051939592949193918301929164010000000081111561457f57600080fd5b8201602081018481111561459257600080fd5b81516401000000008111828201871017156145ac57600080fd5b50509291906020018051906020019092919050505050505050905084600f600030868589888c6040516020018087600160a060020a0316600160a060020a0316606060020a02815260140186600160a060020a0316600160a060020a0316606060020a02815260140185600160a060020a0316600160a060020a0316606060020a02815260140184600160a060020a0316600160a060020a0316606060020a028152601401838051906020019080838360208310613c915780518252601f199092019160209182019101613c7256fea165627a7a72305820ef9933755b212ff225ef2435a30880faacce36c9a613f4282adff54440bf93440029",
  "source": "pragma solidity ^0.5.4;\n\nimport './AOLibrary.sol';\nimport './TheAO.sol';\nimport './IAOSetting.sol';\nimport './INameFactory.sol';\nimport './IAOSettingAttribute.sol';\nimport './IAOSettingValue.sol';\nimport './INameTAOPosition.sol';\nimport './INameAccountRecovery.sol';\n\n/**\n * @title AOSettingUpdate\n *\n * This contract purpose is to update existing Setting Value\n */\ncontract AOSettingUpdate is TheAO {\n\taddress public nameFactoryAddress;\n\taddress public nameAccountRecoveryAddress;\n\taddress public aoSettingAttributeAddress;\n\taddress public aoSettingValueAddress;\n\taddress public aoSettingAddress;\n\n\tINameFactory internal _nameFactory;\n\tINameTAOPosition internal _nameTAOPosition;\n\tINameAccountRecovery internal _nameAccountRecovery;\n\tIAOSettingAttribute internal _aoSettingAttribute;\n\tIAOSettingValue internal _aoSettingValue;\n\tIAOSetting internal _aoSetting;\n\n\tstruct UpdateSignature {\n\t\tuint8 signatureV;\n\t\tbytes32 signatureR;\n\t\tbytes32 signatureS;\n\t}\n\n\t// Mapping from settingId to UpdateSignature\n\tmapping (uint256 => UpdateSignature) public updateSignatures;\n\n\t// Mapping from updateHashKey to it's settingId\n\tmapping (bytes32 => uint256) public updateHashLookup;\n\n\t// Event to be broadcasted to public when a proposed update for a setting is created\n\tevent SettingUpdate(uint256 indexed settingId, address indexed updateAdvocateNameId, address proposalTAOId);\n\n\t// Event to be broadcasted to public when setting update is approved/rejected by the advocate of proposalTAOId\n\tevent ApproveSettingUpdate(uint256 indexed settingId, address proposalTAOId, address proposalTAOAdvocate, bool approved);\n\n\t// Event to be broadcasted to public when setting update is finalized by the advocate of associatedTAOId\n\tevent FinalizeSettingUpdate(uint256 indexed settingId, address associatedTAOId, address associatedTAOAdvocate);\n\n\t/**\n\t * @dev Constructor function\n\t */\n\tconstructor(address _nameFactoryAddress,\n\t\taddress _nameTAOPositionAddress,\n\t\taddress _nameAccountRecoveryAddress,\n\t\taddress _aoSettingAttributeAddress,\n\t\taddress _aoSettingValueAddress,\n\t\taddress _aoSettingAddress\n\t\t) public {\n\t\tsetNameFactoryAddress(_nameFactoryAddress);\n\t\tsetNameTAOPositionAddress(_nameTAOPositionAddress);\n\t\tsetNameAccountRecoveryAddress(_nameAccountRecoveryAddress);\n\t\tsetAOSettingAttributeAddress(_aoSettingAttributeAddress);\n\t\tsetAOSettingValueAddress(_aoSettingValueAddress);\n\t\tsetAOSettingAddress(_aoSettingAddress);\n\t}\n\n\t/**\n\t * @dev Checks if the calling contract address is The AO\n\t *\t\tOR\n\t *\t\tIf The AO is set to a Name/TAO, then check if calling address is the Advocate\n\t */\n\tmodifier onlyTheAO {\n\t\trequire (AOLibrary.isTheAO(msg.sender, theAO, nameTAOPositionAddress));\n\t\t_;\n\t}\n\n\t/**\n\t * @dev Check is msg.sender address is a Name\n\t */\n\t modifier senderIsName() {\n\t\trequire (_nameFactory.ethAddressToNameId(msg.sender) != address(0));\n\t\t_;\n\t }\n\n\t/**\n\t * @dev Only allowed if sender's Name is not compromised\n\t */\n\tmodifier senderNameNotCompromised() {\n\t\trequire (!_nameAccountRecovery.isCompromised(_nameFactory.ethAddressToNameId(msg.sender)));\n\t\t_;\n\t}\n\n\t/**\n\t * @dev Check if sender can update setting\n\t */\n\tmodifier canUpdate(address _proposalTAOId) {\n\t\trequire (\n\t\t\tAOLibrary.isTAO(_proposalTAOId) &&\n\t\t\t_nameFactory.ethAddressToNameId(msg.sender) != address(0) &&\n\t\t\t!_nameAccountRecovery.isCompromised(_nameFactory.ethAddressToNameId(msg.sender))\n\t\t);\n\t\t_;\n\t}\n\n\t/**\n\t * @dev Check whether or not setting is of type address\n\t */\n\tmodifier isAddressSetting(uint256 _settingId) {\n\t\t(uint8 ADDRESS_SETTING_TYPE,,,,) = _aoSetting.getSettingTypes();\n\t\t// Make sure the setting type is address\n\t\trequire (_aoSetting.settingTypeLookup(_settingId) == ADDRESS_SETTING_TYPE);\n\t\t_;\n\t}\n\n\t/**\n\t * @dev Check whether or not setting is of type bool\n\t */\n\tmodifier isBoolSetting(uint256 _settingId) {\n\t\t(, uint8 BOOL_SETTING_TYPE,,,) = _aoSetting.getSettingTypes();\n\t\t// Make sure the setting type is bool\n\t\trequire (_aoSetting.settingTypeLookup(_settingId) == BOOL_SETTING_TYPE);\n\t\t_;\n\t}\n\n\t/**\n\t * @dev Check whether or not setting is of type bytes32\n\t */\n\tmodifier isBytesSetting(uint256 _settingId) {\n\t\t(,, uint8 BYTES_SETTING_TYPE,,) = _aoSetting.getSettingTypes();\n\t\t// Make sure the setting type is bytes32\n\t\trequire (_aoSetting.settingTypeLookup(_settingId) == BYTES_SETTING_TYPE);\n\t\t_;\n\t}\n\n\t/**\n\t * @dev Check whether or not setting is of type string\n\t */\n\tmodifier isStringSetting(uint256 _settingId) {\n\t\t(,,, uint8 STRING_SETTING_TYPE,) = _aoSetting.getSettingTypes();\n\t\t// Make sure the setting type is string\n\t\trequire (_aoSetting.settingTypeLookup(_settingId) == STRING_SETTING_TYPE);\n\t\t_;\n\t}\n\n\t/**\n\t * @dev Check whether or not setting is of type uint256\n\t */\n\tmodifier isUintSetting(uint256 _settingId) {\n\t\t(,,,, uint8 UINT_SETTING_TYPE) = _aoSetting.getSettingTypes();\n\t\t// Make sure the setting type is uint256\n\t\trequire (_aoSetting.settingTypeLookup(_settingId) == UINT_SETTING_TYPE);\n\t\t_;\n\t}\n\n\t/***** The AO ONLY METHODS *****/\n\t/**\n\t * @dev Transfer ownership of The AO to new address\n\t * @param _theAO The new address to be transferred\n\t */\n\tfunction transferOwnership(address _theAO) public onlyTheAO {\n\t\trequire (_theAO != address(0));\n\t\ttheAO = _theAO;\n\t}\n\n\t/**\n\t * @dev Whitelist `_account` address to transact on behalf of others\n\t * @param _account The address to whitelist\n\t * @param _whitelist Either to whitelist or not\n\t */\n\tfunction setWhitelist(address _account, bool _whitelist) public onlyTheAO {\n\t\trequire (_account != address(0));\n\t\twhitelist[_account] = _whitelist;\n\t}\n\n\t/**\n\t * @dev The AO sets NameFactory address\n\t * @param _nameFactoryAddress The address of NameFactory\n\t */\n\tfunction setNameFactoryAddress(address _nameFactoryAddress) public onlyTheAO {\n\t\trequire (_nameFactoryAddress != address(0));\n\t\tnameFactoryAddress = _nameFactoryAddress;\n\t\t_nameFactory = INameFactory(_nameFactoryAddress);\n\t}\n\n\t/**\n\t * @dev The AO sets NameTAOPosition address\n\t * @param _nameTAOPositionAddress The address of NameTAOPosition\n\t */\n\tfunction setNameTAOPositionAddress(address _nameTAOPositionAddress) public onlyTheAO {\n\t\trequire (_nameTAOPositionAddress != address(0));\n\t\tnameTAOPositionAddress = _nameTAOPositionAddress;\n\t\t_nameTAOPosition = INameTAOPosition(_nameTAOPositionAddress);\n\t}\n\n\t/**\n\t * @dev The AO set the NameAccountRecovery Address\n\t * @param _nameAccountRecoveryAddress The address of NameAccountRecovery\n\t */\n\tfunction setNameAccountRecoveryAddress(address _nameAccountRecoveryAddress) public onlyTheAO {\n\t\trequire (_nameAccountRecoveryAddress != address(0));\n\t\tnameAccountRecoveryAddress = _nameAccountRecoveryAddress;\n\t\t_nameAccountRecovery = INameAccountRecovery(nameAccountRecoveryAddress);\n\t}\n\n\t/**\n\t * @dev The AO sets AOSettingAttribute address\n\t * @param _aoSettingAttributeAddress The address of AOSettingAttribute\n\t */\n\tfunction setAOSettingAttributeAddress(address _aoSettingAttributeAddress) public onlyTheAO {\n\t\trequire (_aoSettingAttributeAddress != address(0));\n\t\taoSettingAttributeAddress = _aoSettingAttributeAddress;\n\t\t_aoSettingAttribute = IAOSettingAttribute(_aoSettingAttributeAddress);\n\t}\n\n\t/**\n\t * @dev The AO sets AOSettingValue address\n\t * @param _aoSettingValueAddress The address of AOSettingValue\n\t */\n\tfunction setAOSettingValueAddress(address _aoSettingValueAddress) public onlyTheAO {\n\t\trequire (_aoSettingValueAddress != address(0));\n\t\taoSettingValueAddress = _aoSettingValueAddress;\n\t\t_aoSettingValue = IAOSettingValue(_aoSettingValueAddress);\n\t}\n\n\t/**\n\t * @dev The AO sets AOSetting address\n\t * @param _aoSettingAddress The address of AOSetting\n\t */\n\tfunction setAOSettingAddress(address _aoSettingAddress) public onlyTheAO {\n\t\trequire (_aoSettingAddress != address(0));\n\t\taoSettingAddress = _aoSettingAddress;\n\t\t_aoSetting = IAOSetting(_aoSettingAddress);\n\t}\n\n\t/***** PUBLIC METHODS *****/\n\t/**\n\t * @dev Advocate of Setting's _associatedTAOId submits an address setting update after an update has been proposed\n\t * @param _settingId The ID of the setting to be updated\n\t * @param _newValue The new address value for this setting\n\t * @param _proposalTAOId The child of the associatedTAOId with the update Logos\n\t * @param _signatureV The V part of the signature of proposalTAOId, newValue and associatedTAOId's Advocate\n\t * @param _signatureR The R part of the signature of proposalTAOId, newValue and associatedTAOId's Advocate\n\t * @param _signatureS The S part of the signature of proposalTAOId, newValue and associatedTAOId's Advocate\n\t * @param _extraData Catch-all string value to be stored if exist\n\t */\n\tfunction updateAddressSetting(\n\t\tuint256 _settingId,\n\t\taddress _newValue,\n\t\taddress _proposalTAOId,\n\t\tuint8 _signatureV,\n\t\tbytes32 _signatureR,\n\t\tbytes32 _signatureS,\n\t\tstring memory _extraData)\n\t\tpublic\n\t\tcanUpdate(_proposalTAOId)\n\t\tisAddressSetting(_settingId) {\n\n\t\t// Verify and store update address signature\n\t\trequire (_verifyAndStoreUpdateAddressSignature(_settingId, _newValue, _proposalTAOId, _signatureV, _signatureR, _signatureS));\n\n\t\t// Store the setting state data\n\t\trequire (_aoSettingAttribute.update(_settingId, _nameFactory.ethAddressToNameId(msg.sender), _proposalTAOId, _extraData));\n\n\t\t// Store the value as pending value\n\t\t_aoSettingValue.setPendingValue(_settingId, _newValue, false, '', '', 0);\n\n\t\t// Store the update hash key lookup\n\t\t_storeUpdateAddressHashLookup(_settingId, _newValue, _proposalTAOId, _extraData);\n\n\t\temit SettingUpdate(_settingId, _nameFactory.ethAddressToNameId(msg.sender), _proposalTAOId);\n\t}\n\n\t/**\n\t * @dev Advocate of Setting's _associatedTAOId submits a bool setting update after an update has been proposed\n\t * @param _settingId The ID of the setting to be updated\n\t * @param _newValue The new bool value for this setting\n\t * @param _proposalTAOId The child of the associatedTAOId with the update Logos\n\t * @param _signatureV The V part of the signature of proposalTAOId, newValue and associatedTAOId's Advocate\n\t * @param _signatureR The R part of the signature of proposalTAOId, newValue and associatedTAOId's Advocate\n\t * @param _signatureS The S part of the signature of proposalTAOId, newValue and associatedTAOId's Advocate\n\t * @param _extraData Catch-all string value to be stored if exist\n\t */\n\tfunction updateBoolSetting(\n\t\tuint256 _settingId,\n\t\tbool _newValue,\n\t\taddress _proposalTAOId,\n\t\tuint8 _signatureV,\n\t\tbytes32 _signatureR,\n\t\tbytes32 _signatureS,\n\t\tstring memory _extraData)\n\t\tpublic\n\t\tcanUpdate(_proposalTAOId)\n\t\tisBoolSetting(_settingId) {\n\n\t\t// Verify and store update bool signature\n\t\trequire (_verifyAndStoreUpdateBoolSignature(_settingId, _newValue, _proposalTAOId, _signatureV, _signatureR, _signatureS));\n\n\t\t// Store the setting state data\n\t\trequire (_aoSettingAttribute.update(_settingId, _nameFactory.ethAddressToNameId(msg.sender), _proposalTAOId, _extraData));\n\n\t\t// Store the value as pending value\n\t\t_aoSettingValue.setPendingValue(_settingId, address(0), _newValue, '', '', 0);\n\n\t\t// Store the update hash key lookup\n\t\t_storeUpdateBoolHashLookup(_settingId, _newValue, _proposalTAOId, _extraData);\n\n\t\temit SettingUpdate(_settingId, _nameFactory.ethAddressToNameId(msg.sender), _proposalTAOId);\n\t}\n\n\t/**\n\t * @dev Advocate of Setting's _associatedTAOId submits a bytes32 setting update after an update has been proposed\n\t * @param _settingId The ID of the setting to be updated\n\t * @param _newValue The new bytes32 value for this setting\n\t * @param _proposalTAOId The child of the associatedTAOId with the update Logos\n\t * @param _signatureV The V part of the signature of proposalTAOId, newValue and associatedTAOId's Advocate\n\t * @param _signatureR The R part of the signature of proposalTAOId, newValue and associatedTAOId's Advocate\n\t * @param _signatureS The S part of the signature of proposalTAOId, newValue and associatedTAOId's Advocate\n\t * @param _extraData Catch-all string value to be stored if exist\n\t */\n\tfunction updateBytesSetting(\n\t\tuint256 _settingId,\n\t\tbytes32 _newValue,\n\t\taddress _proposalTAOId,\n\t\tuint8 _signatureV,\n\t\tbytes32 _signatureR,\n\t\tbytes32 _signatureS,\n\t\tstring memory _extraData)\n\t\tpublic\n\t\tcanUpdate(_proposalTAOId)\n\t\tisBytesSetting(_settingId) {\n\n\t\t// Verify and store update bytes32 signature\n\t\trequire (_verifyAndStoreUpdateBytesSignature(_settingId, _newValue, _proposalTAOId, _signatureV, _signatureR, _signatureS));\n\n\t\t// Store the setting state data\n\t\trequire (_aoSettingAttribute.update(_settingId, _nameFactory.ethAddressToNameId(msg.sender), _proposalTAOId, _extraData));\n\n\t\t// Store the value as pending value\n\t\t_aoSettingValue.setPendingValue(_settingId, address(0), false, _newValue, '', 0);\n\n\t\t// Store the update hash key lookup\n\t\t_storeUpdateBytesHashLookup(_settingId, _newValue, _proposalTAOId, _extraData);\n\n\t\temit SettingUpdate(_settingId, _nameFactory.ethAddressToNameId(msg.sender), _proposalTAOId);\n\t}\n\n\t/**\n\t * @dev Advocate of Setting's _associatedTAOId submits a string setting update after an update has been proposed\n\t * @param _settingId The ID of the setting to be updated\n\t * @param _newValue The new string value for this setting\n\t * @param _proposalTAOId The child of the associatedTAOId with the update Logos\n\t * @param _signatureV The V part of the signature of proposalTAOId, newValue and associatedTAOId's Advocate\n\t * @param _signatureR The R part of the signature of proposalTAOId, newValue and associatedTAOId's Advocate\n\t * @param _signatureS The S part of the signature of proposalTAOId, newValue and associatedTAOId's Advocate\n\t * @param _extraData Catch-all string value to be stored if exist\n\t */\n\tfunction updateStringSetting(\n\t\tuint256 _settingId,\n\t\tstring memory _newValue,\n\t\taddress _proposalTAOId,\n\t\tuint8 _signatureV,\n\t\tbytes32 _signatureR,\n\t\tbytes32 _signatureS,\n\t\tstring memory _extraData)\n\t\tpublic\n\t\tcanUpdate(_proposalTAOId)\n\t\tisStringSetting(_settingId) {\n\n\t\t// Verify and store update string signature\n\t\trequire (_verifyAndStoreUpdateStringSignature(_settingId, _newValue, _proposalTAOId, _signatureV, _signatureR, _signatureS));\n\n\t\t// Store the setting state data\n\t\trequire (_aoSettingAttribute.update(_settingId, _nameFactory.ethAddressToNameId(msg.sender), _proposalTAOId, _extraData));\n\n\t\t// Store the value as pending value\n\t\t_aoSettingValue.setPendingValue(_settingId, address(0), false, '', _newValue, 0);\n\n\t\t// Store the update hash key lookup\n\t\t_storeUpdateStringHashLookup(_settingId, _newValue, _proposalTAOId, _extraData);\n\n\t\temit SettingUpdate(_settingId, _nameFactory.ethAddressToNameId(msg.sender), _proposalTAOId);\n\t}\n\n\t/**\n\t * @dev Advocate of Setting's _associatedTAOId submits a uint256 setting update after an update has been proposed\n\t * @param _settingId The ID of the setting to be updated\n\t * @param _newValue The new uint256 value for this setting\n\t * @param _proposalTAOId The child of the associatedTAOId with the update Logos\n\t * @param _signatureV The V part of the signature of proposalTAOId, newValue and associatedTAOId's Advocate\n\t * @param _signatureR The R part of the signature of proposalTAOId, newValue and associatedTAOId's Advocate\n\t * @param _signatureS The S part of the signature of proposalTAOId, newValue and associatedTAOId's Advocate\n\t * @param _extraData Catch-all string value to be stored if exist\n\t */\n\tfunction updateUintSetting(\n\t\tuint256 _settingId,\n\t\tuint256 _newValue,\n\t\taddress _proposalTAOId,\n\t\tuint8 _signatureV,\n\t\tbytes32 _signatureR,\n\t\tbytes32 _signatureS,\n\t\tstring memory _extraData)\n\t\tpublic\n\t\tcanUpdate(_proposalTAOId)\n\t\tisUintSetting(_settingId) {\n\n\t\t// Verify and store update uint256 signature\n\t\trequire (_verifyAndStoreUpdateUintSignature(_settingId, _newValue, _proposalTAOId, _signatureV, _signatureR, _signatureS));\n\n\t\t// Store the setting state data\n\t\trequire (_aoSettingAttribute.update(_settingId, _nameFactory.ethAddressToNameId(msg.sender), _proposalTAOId, _extraData));\n\n\t\t// Store the value as pending value\n\t\t_aoSettingValue.setPendingValue(_settingId, address(0), false, '', '', _newValue);\n\n\t\t// Store the update hash key lookup\n\t\t_storeUpdateUintHashLookup(_settingId, _newValue, _proposalTAOId, _extraData);\n\n\t\temit SettingUpdate(_settingId, _nameFactory.ethAddressToNameId(msg.sender), _proposalTAOId);\n\t}\n\n\t/**\n\t * @dev Advocate of Setting's proposalTAOId approves the setting update\n\t * @param _settingId The ID of the setting to be approved\n\t * @param _approved Whether to approve or reject\n\t */\n\tfunction approveSettingUpdate(uint256 _settingId, bool _approved) public senderIsName senderNameNotCompromised {\n\t\t// Make sure setting exist\n\t\trequire (_aoSetting.settingTypeLookup(_settingId) > 0);\n\n\t\taddress _proposalTAOAdvocate = _nameFactory.ethAddressToNameId(msg.sender);\n\t\t(,,, address _proposalTAOId,,) = _aoSettingAttribute.getSettingState(_settingId);\n\n\t\trequire (_aoSettingAttribute.approveUpdate(_settingId, _proposalTAOAdvocate, _approved));\n\n\t\temit ApproveSettingUpdate(_settingId, _proposalTAOId, _proposalTAOAdvocate, _approved);\n\t}\n\n\t/**\n\t * @dev Advocate of Setting's _associatedTAOId finalizes the setting update once the setting is approved\n\t * @param _settingId The ID of the setting to be finalized\n\t */\n\tfunction finalizeSettingUpdate(uint256 _settingId) public senderIsName senderNameNotCompromised {\n\t\t// Make sure setting exist\n\t\trequire (_aoSetting.settingTypeLookup(_settingId) > 0);\n\n\t\taddress _associatedTAOAdvocate = _nameFactory.ethAddressToNameId(msg.sender);\n\t\trequire (_aoSettingAttribute.finalizeUpdate(_settingId, _associatedTAOAdvocate));\n\n\t\t(,,, address _associatedTAOId,,,,,) = _aoSettingAttribute.getSettingData(_settingId);\n\n\t\trequire (_aoSettingValue.movePendingToSetting(_settingId));\n\n\t\temit FinalizeSettingUpdate(_settingId, _associatedTAOId, _associatedTAOAdvocate);\n\t}\n\n\t/***** Internal Method *****/\n\t/**\n\t * @dev Verify the signature for the address update and store the signature info\n\t * @param _settingId The ID of the setting to be updated\n\t * @param _newValue The new address value for this setting\n\t * @param _proposalTAOId The child of the associatedTAOId with the update Logos\n\t * @param _v The V part of the signature of proposalTAOId, newValue and associatedTAOId's Advocate\n\t * @param _r The R part of the signature of proposalTAOId, newValue and associatedTAOId's Advocate\n\t * @param _s The S part of the signature of proposalTAOId, newValue and associatedTAOId's Advocate\n\t * @return true if valid, false otherwise\n\t */\n\tfunction _verifyAndStoreUpdateAddressSignature(\n\t\tuint256 _settingId,\n\t\taddress _newValue,\n\t\taddress _proposalTAOId,\n\t\tuint8 _v,\n\t\tbytes32 _r,\n\t\tbytes32 _s\n\t\t) internal returns (bool) {\n\t\tbytes32 _hash = keccak256(abi.encodePacked(address(this), _settingId, _proposalTAOId, _newValue, _nameFactory.ethAddressToNameId(msg.sender)));\n\t\tif (ecrecover(_hash, _v, _r, _s) != msg.sender) {\n\t\t\treturn false;\n\t\t}\n\t\t_storeUpdateSignature(_settingId, _v, _r, _s);\n\t\treturn true;\n\t}\n\n\t/**\n\t * @dev Verify the signature for the bool update and store the signature info\n\t * @param _settingId The ID of the setting to be updated\n\t * @param _newValue The new bool value for this setting\n\t * @param _proposalTAOId The child of the associatedTAOId with the update Logos\n\t * @param _v The V part of the signature of proposalTAOId, newValue and associatedTAOId's Advocate\n\t * @param _r The R part of the signature of proposalTAOId, newValue and associatedTAOId's Advocate\n\t * @param _s The S part of the signature of proposalTAOId, newValue and associatedTAOId's Advocate\n\t * @return true if valid, false otherwise\n\t */\n\tfunction _verifyAndStoreUpdateBoolSignature(\n\t\tuint256 _settingId,\n\t\tbool _newValue,\n\t\taddress _proposalTAOId,\n\t\tuint8 _v,\n\t\tbytes32 _r,\n\t\tbytes32 _s\n\t\t) internal returns (bool) {\n\t\tbytes32 _hash = keccak256(abi.encodePacked(address(this), _settingId, _proposalTAOId, _newValue, _nameFactory.ethAddressToNameId(msg.sender)));\n\t\tif (ecrecover(_hash, _v, _r, _s) != msg.sender) {\n\t\t\treturn false;\n\t\t}\n\t\t_storeUpdateSignature(_settingId, _v, _r, _s);\n\t\treturn true;\n\t}\n\n\t/**\n\t * @dev Verify the signature for the bytes32 update and store the signature info\n\t * @param _settingId The ID of the setting to be updated\n\t * @param _newValue The new bytes32 value for this setting\n\t * @param _proposalTAOId The child of the associatedTAOId with the update Logos\n\t * @param _v The V part of the signature of proposalTAOId, newValue and associatedTAOId's Advocate\n\t * @param _r The R part of the signature of proposalTAOId, newValue and associatedTAOId's Advocate\n\t * @param _s The S part of the signature of proposalTAOId, newValue and associatedTAOId's Advocate\n\t * @return true if valid, false otherwise\n\t */\n\tfunction _verifyAndStoreUpdateBytesSignature(\n\t\tuint256 _settingId,\n\t\tbytes32 _newValue,\n\t\taddress _proposalTAOId,\n\t\tuint8 _v,\n\t\tbytes32 _r,\n\t\tbytes32 _s\n\t\t) internal returns (bool) {\n\t\tbytes32 _hash = keccak256(abi.encodePacked(address(this), _settingId, _proposalTAOId, _newValue, _nameFactory.ethAddressToNameId(msg.sender)));\n\t\tif (ecrecover(_hash, _v, _r, _s) != msg.sender) {\n\t\t\treturn false;\n\t\t}\n\t\t_storeUpdateSignature(_settingId, _v, _r, _s);\n\t\treturn true;\n\t}\n\n\t/**\n\t * @dev Verify the signature for the string update and store the signature info\n\t * @param _settingId The ID of the setting to be updated\n\t * @param _newValue The new string value for this setting\n\t * @param _proposalTAOId The child of the associatedTAOId with the update Logos\n\t * @param _v The V part of the signature of proposalTAOId, newValue and associatedTAOId's Advocate\n\t * @param _r The R part of the signature of proposalTAOId, newValue and associatedTAOId's Advocate\n\t * @param _s The S part of the signature of proposalTAOId, newValue and associatedTAOId's Advocate\n\t * @return true if valid, false otherwise\n\t */\n\tfunction _verifyAndStoreUpdateStringSignature(\n\t\tuint256 _settingId,\n\t\tstring memory _newValue,\n\t\taddress _proposalTAOId,\n\t\tuint8 _v,\n\t\tbytes32 _r,\n\t\tbytes32 _s\n\t\t) internal returns (bool) {\n\t\tbytes32 _hash = keccak256(abi.encodePacked(address(this), _settingId, _proposalTAOId, _newValue, _nameFactory.ethAddressToNameId(msg.sender)));\n\t\tif (ecrecover(_hash, _v, _r, _s) != msg.sender) {\n\t\t\treturn false;\n\t\t}\n\t\t_storeUpdateSignature(_settingId, _v, _r, _s);\n\t\treturn true;\n\t}\n\n\t/**\n\t * @dev Verify the signature for the uint256 update and store the signature info\n\t * @param _settingId The ID of the setting to be updated\n\t * @param _newValue The new uint256 value for this setting\n\t * @param _proposalTAOId The child of the associatedTAOId with the update Logos\n\t * @param _v The V part of the signature of proposalTAOId, newValue and associatedTAOId's Advocate\n\t * @param _r The R part of the signature of proposalTAOId, newValue and associatedTAOId's Advocate\n\t * @param _s The S part of the signature of proposalTAOId, newValue and associatedTAOId's Advocate\n\t * @return true if valid, false otherwise\n\t */\n\tfunction _verifyAndStoreUpdateUintSignature(\n\t\tuint256 _settingId,\n\t\tuint256 _newValue,\n\t\taddress _proposalTAOId,\n\t\tuint8 _v,\n\t\tbytes32 _r,\n\t\tbytes32 _s\n\t\t) public returns (bool) {\n\t\tbytes32 _hash = keccak256(abi.encodePacked(address(this), _settingId, _proposalTAOId, _newValue, _nameFactory.ethAddressToNameId(msg.sender)));\n\t\tif (ecrecover(_hash, _v, _r, _s) != msg.sender) {\n\t\t\treturn false;\n\t\t}\n\t\t_storeUpdateSignature(_settingId, _v, _r, _s);\n\t\treturn true;\n\t}\n\n\t/**\n\t * @dev Store the update hash lookup for this address setting\n\t * @param _settingId The ID of the setting to be updated\n\t * @param _newValue The new address value for this setting\n\t * @param _proposalTAOId The child of the associatedTAOId with the update Logos\n\t * @param _extraData Catch-all string value to be stored if exist\n\t */\n\tfunction _storeUpdateAddressHashLookup(\n\t\tuint256 _settingId,\n\t\taddress _newValue,\n\t\taddress _proposalTAOId,\n\t\tstring memory _extraData)\n\t\tinternal {\n\t\t// Store the update hash key lookup\n\t\t(address _addressValue,,,,) = _aoSettingValue.settingValue(_settingId);\n\t\tupdateHashLookup[keccak256(abi.encodePacked(address(this), _proposalTAOId, _addressValue, _newValue, _extraData, _settingId))] = _settingId;\n\t}\n\n\t/**\n\t * @dev Store the update hash lookup for this bool setting\n\t * @param _settingId The ID of the setting to be updated\n\t * @param _newValue The new bool value for this setting\n\t * @param _proposalTAOId The child of the associatedTAOId with the update Logos\n\t * @param _extraData Catch-all string value to be stored if exist\n\t */\n\tfunction _storeUpdateBoolHashLookup(\n\t\tuint256 _settingId,\n\t\tbool _newValue,\n\t\taddress _proposalTAOId,\n\t\tstring memory _extraData)\n\t\tinternal {\n\t\t// Store the update hash key lookup\n\t\t(, bool _boolValue,,,) = _aoSettingValue.settingValue(_settingId);\n\t\tupdateHashLookup[keccak256(abi.encodePacked(address(this), _proposalTAOId, _boolValue, _newValue, _extraData, _settingId))] = _settingId;\n\t}\n\n\t/**\n\t * @dev Store the update hash lookup for this bytes32 setting\n\t * @param _settingId The ID of the setting to be updated\n\t * @param _newValue The new bytes32 value for this setting\n\t * @param _proposalTAOId The child of the associatedTAOId with the update Logos\n\t * @param _extraData Catch-all string value to be stored if exist\n\t */\n\tfunction _storeUpdateBytesHashLookup(\n\t\tuint256 _settingId,\n\t\tbytes32 _newValue,\n\t\taddress _proposalTAOId,\n\t\tstring memory _extraData)\n\t\tinternal {\n\t\t// Store the update hash key lookup\n\t\t(,, bytes32 _bytesValue,,) = _aoSettingValue.settingValue(_settingId);\n\t\tupdateHashLookup[keccak256(abi.encodePacked(address(this), _proposalTAOId, _bytesValue, _newValue, _extraData, _settingId))] = _settingId;\n\t}\n\n\t/**\n\t * @dev Store the update hash lookup for this string setting\n\t * @param _settingId The ID of the setting to be updated\n\t * @param _newValue The new string value for this setting\n\t * @param _proposalTAOId The child of the associatedTAOId with the update Logos\n\t * @param _extraData Catch-all string value to be stored if exist\n\t */\n\tfunction _storeUpdateStringHashLookup(\n\t\tuint256 _settingId,\n\t\tstring memory _newValue,\n\t\taddress _proposalTAOId,\n\t\tstring memory _extraData)\n\t\tinternal {\n\t\t// Store the update hash key lookup\n\t\t(,,, string memory _stringValue,) = _aoSettingValue.settingValue(_settingId);\n\t\tupdateHashLookup[keccak256(abi.encodePacked(address(this), _proposalTAOId, _stringValue, _newValue, _extraData, _settingId))] = _settingId;\n\t}\n\n\t/**\n\t * @dev Store the update hash lookup for this uint256 setting\n\t * @param _settingId The ID of the setting to be updated\n\t * @param _newValue The new address value for this setting\n\t * @param _proposalTAOId The child of the associatedTAOId with the update Logos\n\t * @param _extraData Catch-all string value to be stored if exist\n\t */\n\tfunction _storeUpdateUintHashLookup(\n\t\tuint256 _settingId,\n\t\tuint256 _newValue,\n\t\taddress _proposalTAOId,\n\t\tstring memory _extraData)\n\t\tinternal {\n\t\t// Store the update hash key lookup\n\t\t(,,,, uint256 _uintValue) = _aoSettingValue.settingValue(_settingId);\n\t\tupdateHashLookup[keccak256(abi.encodePacked(address(this), _proposalTAOId, _uintValue, _newValue, _extraData, _settingId))] = _settingId;\n\t}\n\n\t/**\n\t * @dev Actual storing the UpdateSignature info\n\t * @param _settingId The ID of the setting to be updated\n\t * @param _v The V part of the signature of proposalTAOId, newValue and associatedTAOId's Advocate\n\t * @param _r The R part of the signature of proposalTAOId, newValue and associatedTAOId's Advocate\n\t * @param _s The S part of the signature of proposalTAOId, newValue and associatedTAOId's Advocate\n\t */\n\tfunction _storeUpdateSignature(uint256 _settingId, uint8 _v, bytes32 _r, bytes32 _s) internal {\n\t\tUpdateSignature storage _updateSignature = updateSignatures[_settingId];\n\t\t_updateSignature.signatureV = _v;\n\t\t_updateSignature.signatureR = _r;\n\t\t_updateSignature.signatureS = _s;\n\t}\n}\n",
  "sourcePath": "/usr/local/ao-contracts/contracts/AOSettingUpdate.sol",
  "compiler": {
    "name": "solc",
    "version": "0.5.4+commit.9549d8ff.Emscripten.clang"
  },
  "schemaVersion": "3.0.2",
  "updatedAt": "2019-03-21T02:41:21.470Z",
  "devdoc": {
    "methods": {
      "_verifyAndStoreUpdateUintSignature(uint256,uint256,address,uint8,bytes32,bytes32)": {
        "details": "Verify the signature for the uint256 update and store the signature info",
        "params": {
          "_newValue": "The new uint256 value for this setting",
          "_proposalTAOId": "The child of the associatedTAOId with the update Logos",
          "_r": "The R part of the signature of proposalTAOId, newValue and associatedTAOId's Advocate",
          "_s": "The S part of the signature of proposalTAOId, newValue and associatedTAOId's Advocate",
          "_settingId": "The ID of the setting to be updated",
          "_v": "The V part of the signature of proposalTAOId, newValue and associatedTAOId's Advocate"
        },
        "return": "true if valid, false otherwise"
      },
      "approveSettingUpdate(uint256,bool)": {
        "details": "Advocate of Setting's proposalTAOId approves the setting update",
        "params": {
          "_approved": "Whether to approve or reject",
          "_settingId": "The ID of the setting to be approved"
        }
      },
      "constructor": {
        "details": "Constructor function"
      },
      "finalizeSettingUpdate(uint256)": {
        "details": "Advocate of Setting's _associatedTAOId finalizes the setting update once the setting is approved",
        "params": {
          "_settingId": "The ID of the setting to be finalized"
        }
      },
      "setAOSettingAddress(address)": {
        "details": "The AO sets AOSetting address",
        "params": {
          "_aoSettingAddress": "The address of AOSetting"
        }
      },
      "setAOSettingAttributeAddress(address)": {
        "details": "The AO sets AOSettingAttribute address",
        "params": {
          "_aoSettingAttributeAddress": "The address of AOSettingAttribute"
        }
      },
      "setAOSettingValueAddress(address)": {
        "details": "The AO sets AOSettingValue address",
        "params": {
          "_aoSettingValueAddress": "The address of AOSettingValue"
        }
      },
      "setNameAccountRecoveryAddress(address)": {
        "details": "The AO set the NameAccountRecovery Address",
        "params": {
          "_nameAccountRecoveryAddress": "The address of NameAccountRecovery"
        }
      },
      "setNameFactoryAddress(address)": {
        "details": "The AO sets NameFactory address",
        "params": {
          "_nameFactoryAddress": "The address of NameFactory"
        }
      },
      "setNameTAOPositionAddress(address)": {
        "details": "The AO sets NameTAOPosition address",
        "params": {
          "_nameTAOPositionAddress": "The address of NameTAOPosition"
        }
      },
      "setWhitelist(address,bool)": {
        "details": "Whitelist `_account` address to transact on behalf of others",
        "params": {
          "_account": "The address to whitelist",
          "_whitelist": "Either to whitelist or not"
        }
      },
      "transferOwnership(address)": {
        "details": "Transfer ownership of The AO to new address",
        "params": {
          "_theAO": "The new address to be transferred"
        }
      },
      "updateAddressSetting(uint256,address,address,uint8,bytes32,bytes32,string)": {
        "details": "Advocate of Setting's _associatedTAOId submits an address setting update after an update has been proposed",
        "params": {
          "_extraData": "Catch-all string value to be stored if exist",
          "_newValue": "The new address value for this setting",
          "_proposalTAOId": "The child of the associatedTAOId with the update Logos",
          "_settingId": "The ID of the setting to be updated",
          "_signatureR": "The R part of the signature of proposalTAOId, newValue and associatedTAOId's Advocate",
          "_signatureS": "The S part of the signature of proposalTAOId, newValue and associatedTAOId's Advocate",
          "_signatureV": "The V part of the signature of proposalTAOId, newValue and associatedTAOId's Advocate"
        }
      },
      "updateBoolSetting(uint256,bool,address,uint8,bytes32,bytes32,string)": {
        "details": "Advocate of Setting's _associatedTAOId submits a bool setting update after an update has been proposed",
        "params": {
          "_extraData": "Catch-all string value to be stored if exist",
          "_newValue": "The new bool value for this setting",
          "_proposalTAOId": "The child of the associatedTAOId with the update Logos",
          "_settingId": "The ID of the setting to be updated",
          "_signatureR": "The R part of the signature of proposalTAOId, newValue and associatedTAOId's Advocate",
          "_signatureS": "The S part of the signature of proposalTAOId, newValue and associatedTAOId's Advocate",
          "_signatureV": "The V part of the signature of proposalTAOId, newValue and associatedTAOId's Advocate"
        }
      },
      "updateBytesSetting(uint256,bytes32,address,uint8,bytes32,bytes32,string)": {
        "details": "Advocate of Setting's _associatedTAOId submits a bytes32 setting update after an update has been proposed",
        "params": {
          "_extraData": "Catch-all string value to be stored if exist",
          "_newValue": "The new bytes32 value for this setting",
          "_proposalTAOId": "The child of the associatedTAOId with the update Logos",
          "_settingId": "The ID of the setting to be updated",
          "_signatureR": "The R part of the signature of proposalTAOId, newValue and associatedTAOId's Advocate",
          "_signatureS": "The S part of the signature of proposalTAOId, newValue and associatedTAOId's Advocate",
          "_signatureV": "The V part of the signature of proposalTAOId, newValue and associatedTAOId's Advocate"
        }
      },
      "updateStringSetting(uint256,string,address,uint8,bytes32,bytes32,string)": {
        "details": "Advocate of Setting's _associatedTAOId submits a string setting update after an update has been proposed",
        "params": {
          "_extraData": "Catch-all string value to be stored if exist",
          "_newValue": "The new string value for this setting",
          "_proposalTAOId": "The child of the associatedTAOId with the update Logos",
          "_settingId": "The ID of the setting to be updated",
          "_signatureR": "The R part of the signature of proposalTAOId, newValue and associatedTAOId's Advocate",
          "_signatureS": "The S part of the signature of proposalTAOId, newValue and associatedTAOId's Advocate",
          "_signatureV": "The V part of the signature of proposalTAOId, newValue and associatedTAOId's Advocate"
        }
      },
      "updateUintSetting(uint256,uint256,address,uint8,bytes32,bytes32,string)": {
        "details": "Advocate of Setting's _associatedTAOId submits a uint256 setting update after an update has been proposed",
        "params": {
          "_extraData": "Catch-all string value to be stored if exist",
          "_newValue": "The new uint256 value for this setting",
          "_proposalTAOId": "The child of the associatedTAOId with the update Logos",
          "_settingId": "The ID of the setting to be updated",
          "_signatureR": "The R part of the signature of proposalTAOId, newValue and associatedTAOId's Advocate",
          "_signatureS": "The S part of the signature of proposalTAOId, newValue and associatedTAOId's Advocate",
          "_signatureV": "The V part of the signature of proposalTAOId, newValue and associatedTAOId's Advocate"
        }
      }
    },
    "title": "AOSettingUpdate * This contract purpose is to update existing Setting Value"
  },
  "userdoc": {
    "methods": {}
  }
}