{
	"contractName": "AOSetting",
	"abi": [
		{
			"constant": true,
			"inputs": [
				{
					"name": "",
					"type": "bytes32"
				}
			],
			"name": "updateHashLookup",
			"outputs": [
				{
					"name": "",
					"type": "uint256"
				}
			],
			"payable": false,
			"stateMutability": "view",
			"type": "function"
		},
		{
			"constant": true,
			"inputs": [],
			"name": "aoAddressSettingAddress",
			"outputs": [
				{
					"name": "",
					"type": "address"
				}
			],
			"payable": false,
			"stateMutability": "view",
			"type": "function"
		},
		{
			"constant": true,
			"inputs": [],
			"name": "aoStringSettingAddress",
			"outputs": [
				{
					"name": "",
					"type": "address"
				}
			],
			"payable": false,
			"stateMutability": "view",
			"type": "function"
		},
		{
			"constant": true,
			"inputs": [],
			"name": "aoBytesSettingAddress",
			"outputs": [
				{
					"name": "",
					"type": "address"
				}
			],
			"payable": false,
			"stateMutability": "view",
			"type": "function"
		},
		{
			"constant": true,
			"inputs": [],
			"name": "aoBoolSettingAddress",
			"outputs": [
				{
					"name": "",
					"type": "address"
				}
			],
			"payable": false,
			"stateMutability": "view",
			"type": "function"
		},
		{
			"constant": true,
			"inputs": [],
			"name": "totalSetting",
			"outputs": [
				{
					"name": "",
					"type": "uint256"
				}
			],
			"payable": false,
			"stateMutability": "view",
			"type": "function"
		},
		{
			"constant": true,
			"inputs": [],
			"name": "aoUintSettingAddress",
			"outputs": [
				{
					"name": "",
					"type": "address"
				}
			],
			"payable": false,
			"stateMutability": "view",
			"type": "function"
		},
		{
			"constant": true,
			"inputs": [],
			"name": "aoSettingAttributeAddress",
			"outputs": [
				{
					"name": "",
					"type": "address"
				}
			],
			"payable": false,
			"stateMutability": "view",
			"type": "function"
		},
		{
			"inputs": [
				{
					"name": "_nameFactoryAddress",
					"type": "address"
				},
				{
					"name": "_aoSettingAttributeAddress",
					"type": "address"
				},
				{
					"name": "_aoUintSettingAddress",
					"type": "address"
				},
				{
					"name": "_aoBoolSettingAddress",
					"type": "address"
				},
				{
					"name": "_aoAddressSettingAddress",
					"type": "address"
				},
				{
					"name": "_aoBytesSettingAddress",
					"type": "address"
				},
				{
					"name": "_aoStringSettingAddress",
					"type": "address"
				}
			],
			"payable": false,
			"stateMutability": "nonpayable",
			"type": "constructor"
		},
		{
			"anonymous": false,
			"inputs": [
				{
					"indexed": true,
					"name": "settingId",
					"type": "uint256"
				},
				{
					"indexed": true,
					"name": "creatorNameId",
					"type": "address"
				},
				{
					"indexed": false,
					"name": "creatorThoughtId",
					"type": "address"
				},
				{
					"indexed": false,
					"name": "associatedThoughtId",
					"type": "address"
				},
				{
					"indexed": false,
					"name": "settingName",
					"type": "string"
				},
				{
					"indexed": false,
					"name": "settingType",
					"type": "uint8"
				},
				{
					"indexed": false,
					"name": "associatedThoughtSettingId",
					"type": "bytes32"
				},
				{
					"indexed": false,
					"name": "creatorThoughtSettingId",
					"type": "bytes32"
				}
			],
			"name": "SettingCreation",
			"type": "event"
		},
		{
			"anonymous": false,
			"inputs": [
				{
					"indexed": true,
					"name": "settingId",
					"type": "uint256"
				},
				{
					"indexed": false,
					"name": "associatedThoughtId",
					"type": "address"
				},
				{
					"indexed": false,
					"name": "associatedThoughtAdvocate",
					"type": "address"
				},
				{
					"indexed": false,
					"name": "approved",
					"type": "bool"
				}
			],
			"name": "ApproveSettingCreation",
			"type": "event"
		},
		{
			"anonymous": false,
			"inputs": [
				{
					"indexed": true,
					"name": "settingId",
					"type": "uint256"
				},
				{
					"indexed": false,
					"name": "creatorThoughtId",
					"type": "address"
				},
				{
					"indexed": false,
					"name": "creatorThoughtAdvocate",
					"type": "address"
				}
			],
			"name": "FinalizeSettingCreation",
			"type": "event"
		},
		{
			"anonymous": false,
			"inputs": [
				{
					"indexed": true,
					"name": "settingId",
					"type": "uint256"
				},
				{
					"indexed": true,
					"name": "updateAdvocateNameId",
					"type": "address"
				},
				{
					"indexed": false,
					"name": "proposalThoughtId",
					"type": "address"
				}
			],
			"name": "SettingUpdate",
			"type": "event"
		},
		{
			"anonymous": false,
			"inputs": [
				{
					"indexed": true,
					"name": "settingId",
					"type": "uint256"
				},
				{
					"indexed": false,
					"name": "proposalThoughtId",
					"type": "address"
				},
				{
					"indexed": false,
					"name": "proposalThoughtAdvocate",
					"type": "address"
				},
				{
					"indexed": false,
					"name": "approved",
					"type": "bool"
				}
			],
			"name": "ApproveSettingUpdate",
			"type": "event"
		},
		{
			"anonymous": false,
			"inputs": [
				{
					"indexed": true,
					"name": "settingId",
					"type": "uint256"
				},
				{
					"indexed": false,
					"name": "associatedThoughtId",
					"type": "address"
				},
				{
					"indexed": false,
					"name": "associatedThoughtAdvocate",
					"type": "address"
				}
			],
			"name": "FinalizeSettingUpdate",
			"type": "event"
		},
		{
			"anonymous": false,
			"inputs": [
				{
					"indexed": true,
					"name": "settingId",
					"type": "uint256"
				},
				{
					"indexed": true,
					"name": "creatorNameId",
					"type": "address"
				},
				{
					"indexed": false,
					"name": "creatorThoughtId",
					"type": "address"
				},
				{
					"indexed": false,
					"name": "associatedThoughtId",
					"type": "address"
				},
				{
					"indexed": false,
					"name": "newSettingId",
					"type": "uint256"
				},
				{
					"indexed": false,
					"name": "newSettingContractAddress",
					"type": "address"
				},
				{
					"indexed": false,
					"name": "associatedThoughtSettingDeprecationId",
					"type": "bytes32"
				},
				{
					"indexed": false,
					"name": "creatorThoughtSettingDeprecationId",
					"type": "bytes32"
				}
			],
			"name": "SettingDeprecation",
			"type": "event"
		},
		{
			"anonymous": false,
			"inputs": [
				{
					"indexed": true,
					"name": "settingId",
					"type": "uint256"
				},
				{
					"indexed": false,
					"name": "associatedThoughtId",
					"type": "address"
				},
				{
					"indexed": false,
					"name": "associatedThoughtAdvocate",
					"type": "address"
				},
				{
					"indexed": false,
					"name": "approved",
					"type": "bool"
				}
			],
			"name": "ApproveSettingDeprecation",
			"type": "event"
		},
		{
			"anonymous": false,
			"inputs": [
				{
					"indexed": true,
					"name": "settingId",
					"type": "uint256"
				},
				{
					"indexed": false,
					"name": "creatorThoughtId",
					"type": "address"
				},
				{
					"indexed": false,
					"name": "creatorThoughtAdvocate",
					"type": "address"
				}
			],
			"name": "FinalizeSettingDeprecation",
			"type": "event"
		},
		{
			"constant": true,
			"inputs": [
				{
					"name": "_settingName",
					"type": "string"
				},
				{
					"name": "_associatedThoughtId",
					"type": "address"
				}
			],
			"name": "settingNameExist",
			"outputs": [
				{
					"name": "",
					"type": "bool"
				}
			],
			"payable": false,
			"stateMutability": "view",
			"type": "function"
		},
		{
			"constant": false,
			"inputs": [
				{
					"name": "_settingName",
					"type": "string"
				},
				{
					"name": "_value",
					"type": "uint256"
				},
				{
					"name": "_creatorThoughtId",
					"type": "address"
				},
				{
					"name": "_associatedThoughtId",
					"type": "address"
				},
				{
					"name": "_extraData",
					"type": "string"
				}
			],
			"name": "addUintSetting",
			"outputs": [],
			"payable": false,
			"stateMutability": "nonpayable",
			"type": "function"
		},
		{
			"constant": false,
			"inputs": [
				{
					"name": "_settingName",
					"type": "string"
				},
				{
					"name": "_value",
					"type": "bool"
				},
				{
					"name": "_creatorThoughtId",
					"type": "address"
				},
				{
					"name": "_associatedThoughtId",
					"type": "address"
				},
				{
					"name": "_extraData",
					"type": "string"
				}
			],
			"name": "addBoolSetting",
			"outputs": [],
			"payable": false,
			"stateMutability": "nonpayable",
			"type": "function"
		},
		{
			"constant": false,
			"inputs": [
				{
					"name": "_settingName",
					"type": "string"
				},
				{
					"name": "_value",
					"type": "address"
				},
				{
					"name": "_creatorThoughtId",
					"type": "address"
				},
				{
					"name": "_associatedThoughtId",
					"type": "address"
				},
				{
					"name": "_extraData",
					"type": "string"
				}
			],
			"name": "addAddressSetting",
			"outputs": [],
			"payable": false,
			"stateMutability": "nonpayable",
			"type": "function"
		},
		{
			"constant": false,
			"inputs": [
				{
					"name": "_settingName",
					"type": "string"
				},
				{
					"name": "_value",
					"type": "bytes32"
				},
				{
					"name": "_creatorThoughtId",
					"type": "address"
				},
				{
					"name": "_associatedThoughtId",
					"type": "address"
				},
				{
					"name": "_extraData",
					"type": "string"
				}
			],
			"name": "addBytesSetting",
			"outputs": [],
			"payable": false,
			"stateMutability": "nonpayable",
			"type": "function"
		},
		{
			"constant": false,
			"inputs": [
				{
					"name": "_settingName",
					"type": "string"
				},
				{
					"name": "_value",
					"type": "string"
				},
				{
					"name": "_creatorThoughtId",
					"type": "address"
				},
				{
					"name": "_associatedThoughtId",
					"type": "address"
				},
				{
					"name": "_extraData",
					"type": "string"
				}
			],
			"name": "addStringSetting",
			"outputs": [],
			"payable": false,
			"stateMutability": "nonpayable",
			"type": "function"
		},
		{
			"constant": false,
			"inputs": [
				{
					"name": "_settingId",
					"type": "uint256"
				},
				{
					"name": "_approved",
					"type": "bool"
				}
			],
			"name": "approveSettingCreation",
			"outputs": [],
			"payable": false,
			"stateMutability": "nonpayable",
			"type": "function"
		},
		{
			"constant": false,
			"inputs": [
				{
					"name": "_settingId",
					"type": "uint256"
				}
			],
			"name": "finalizeSettingCreation",
			"outputs": [],
			"payable": false,
			"stateMutability": "nonpayable",
			"type": "function"
		},
		{
			"constant": false,
			"inputs": [
				{
					"name": "_settingId",
					"type": "uint256"
				},
				{
					"name": "_newValue",
					"type": "uint256"
				},
				{
					"name": "_proposalThoughtId",
					"type": "address"
				},
				{
					"name": "_updateSignature",
					"type": "string"
				},
				{
					"name": "_extraData",
					"type": "string"
				}
			],
			"name": "updateUintSetting",
			"outputs": [],
			"payable": false,
			"stateMutability": "nonpayable",
			"type": "function"
		},
		{
			"constant": false,
			"inputs": [
				{
					"name": "_settingId",
					"type": "uint256"
				},
				{
					"name": "_newValue",
					"type": "bool"
				},
				{
					"name": "_proposalThoughtId",
					"type": "address"
				},
				{
					"name": "_updateSignature",
					"type": "string"
				},
				{
					"name": "_extraData",
					"type": "string"
				}
			],
			"name": "updateBoolSetting",
			"outputs": [],
			"payable": false,
			"stateMutability": "nonpayable",
			"type": "function"
		},
		{
			"constant": false,
			"inputs": [
				{
					"name": "_settingId",
					"type": "uint256"
				},
				{
					"name": "_newValue",
					"type": "address"
				},
				{
					"name": "_proposalThoughtId",
					"type": "address"
				},
				{
					"name": "_updateSignature",
					"type": "string"
				},
				{
					"name": "_extraData",
					"type": "string"
				}
			],
			"name": "updateAddressSetting",
			"outputs": [],
			"payable": false,
			"stateMutability": "nonpayable",
			"type": "function"
		},
		{
			"constant": false,
			"inputs": [
				{
					"name": "_settingId",
					"type": "uint256"
				},
				{
					"name": "_newValue",
					"type": "bytes32"
				},
				{
					"name": "_proposalThoughtId",
					"type": "address"
				},
				{
					"name": "_updateSignature",
					"type": "string"
				},
				{
					"name": "_extraData",
					"type": "string"
				}
			],
			"name": "updateBytesSetting",
			"outputs": [],
			"payable": false,
			"stateMutability": "nonpayable",
			"type": "function"
		},
		{
			"constant": false,
			"inputs": [
				{
					"name": "_settingId",
					"type": "uint256"
				},
				{
					"name": "_newValue",
					"type": "string"
				},
				{
					"name": "_proposalThoughtId",
					"type": "address"
				},
				{
					"name": "_updateSignature",
					"type": "string"
				},
				{
					"name": "_extraData",
					"type": "string"
				}
			],
			"name": "updateStringSetting",
			"outputs": [],
			"payable": false,
			"stateMutability": "nonpayable",
			"type": "function"
		},
		{
			"constant": false,
			"inputs": [
				{
					"name": "_settingId",
					"type": "uint256"
				},
				{
					"name": "_approved",
					"type": "bool"
				}
			],
			"name": "approveSettingUpdate",
			"outputs": [],
			"payable": false,
			"stateMutability": "nonpayable",
			"type": "function"
		},
		{
			"constant": false,
			"inputs": [
				{
					"name": "_settingId",
					"type": "uint256"
				}
			],
			"name": "finalizeSettingUpdate",
			"outputs": [],
			"payable": false,
			"stateMutability": "nonpayable",
			"type": "function"
		},
		{
			"constant": false,
			"inputs": [
				{
					"name": "_settingId",
					"type": "uint256"
				},
				{
					"name": "_newSettingId",
					"type": "uint256"
				},
				{
					"name": "_newSettingContractAddress",
					"type": "address"
				},
				{
					"name": "_creatorThoughtId",
					"type": "address"
				},
				{
					"name": "_associatedThoughtId",
					"type": "address"
				}
			],
			"name": "addSettingDeprecation",
			"outputs": [],
			"payable": false,
			"stateMutability": "nonpayable",
			"type": "function"
		},
		{
			"constant": false,
			"inputs": [
				{
					"name": "_settingId",
					"type": "uint256"
				},
				{
					"name": "_approved",
					"type": "bool"
				}
			],
			"name": "approveSettingDeprecation",
			"outputs": [],
			"payable": false,
			"stateMutability": "nonpayable",
			"type": "function"
		},
		{
			"constant": false,
			"inputs": [
				{
					"name": "_settingId",
					"type": "uint256"
				}
			],
			"name": "finalizeSettingDeprecation",
			"outputs": [],
			"payable": false,
			"stateMutability": "nonpayable",
			"type": "function"
		},
		{
			"constant": true,
			"inputs": [
				{
					"name": "_associatedThoughtId",
					"type": "address"
				},
				{
					"name": "_settingName",
					"type": "string"
				}
			],
			"name": "getSettingIdByThoughtName",
			"outputs": [
				{
					"name": "",
					"type": "uint256"
				}
			],
			"payable": false,
			"stateMutability": "view",
			"type": "function"
		},
		{
			"constant": true,
			"inputs": [
				{
					"name": "_settingId",
					"type": "uint256"
				}
			],
			"name": "getSettingValuesById",
			"outputs": [
				{
					"name": "",
					"type": "uint256"
				},
				{
					"name": "",
					"type": "bool"
				},
				{
					"name": "",
					"type": "address"
				},
				{
					"name": "",
					"type": "bytes32"
				},
				{
					"name": "",
					"type": "string"
				}
			],
			"payable": false,
			"stateMutability": "view",
			"type": "function"
		},
		{
			"constant": true,
			"inputs": [
				{
					"name": "_thoughtId",
					"type": "address"
				},
				{
					"name": "_settingName",
					"type": "string"
				}
			],
			"name": "getSettingValuesByThoughtName",
			"outputs": [
				{
					"name": "",
					"type": "uint256"
				},
				{
					"name": "",
					"type": "bool"
				},
				{
					"name": "",
					"type": "address"
				},
				{
					"name": "",
					"type": "bytes32"
				},
				{
					"name": "",
					"type": "string"
				}
			],
			"payable": false,
			"stateMutability": "view",
			"type": "function"
		}
	],
	"bytecode": "0x608060405234801561001057600080fd5b5060405160e0806200600d83398101604090815281516020830151918301516060840151608085015160a086015160c09096015160008054600160a060020a03978816600160a060020a03199182168117909255600180549689169682168717905560028054958916958216861790556003805494891694821685179055600480549989169982168a17905560058054938916938216841790556006805498909716978116979097179095556007805487169095179094556008805486169093179092556009805485169091179055600a805484169091179055600b80548316909317909255600c80549091169091179055615efb80620001126000396000f30060806040526004361061015b5763ffffffff60e060020a600035041663113d893881146101605780631b2dbff6146102165780631f12411614610240578063229906b31461025d5780633bc5a0b7146103465780633cb603a1146103f05780633d694f301461042157806341a762871461043e57806342091137146104e857806343863045146105d85780634e6260111461068c5780634efa45a1146106a15780635ef17eff1461075957806361f6186714610823578063788e31bf146108565780637a7130231461090c5780638965c123146109245780638f23747d1461098b5780639525f382146109a05780639793714f146109b85780639a44690e146109d55780639aa05975146109ed578063b83c298e14610a02578063bb2445a814610aae578063bdfd625714610ac3578063c101c5f714610b3b578063c3f52e1414610ba2578063c4b62bbb14610bb7578063cf8477cf14610c66575b600080fd5b34801561016c57600080fd5b506040805160206004803580820135601f810184900484028501840190955284845261021494369492936024939284019190819084018382808284375050604080516020601f60608a01358b0180359182018390048302840183018552818452989b8a359b600160a060020a03848d013581169c96870135169a919950975060809094019550919350918201918190840183828082843750949750610c7b9650505050505050565b005b34801561022257600080fd5b5061022e6004356110ba565b60408051918252519081900360200190f35b34801561024c57600080fd5b5061021460043560243515156110cc565b34801561026957600080fd5b5060408051602060046024803582810135601f810185900485028601850190965285855261021495833595369560449491939091019190819084018382808284375050604080516020601f818a01358b0180359182018390048302840183018552818452989b600160a060020a038b35169b909a90999401975091955091820193509150819084018382808284375050604080516020601f89358b018035918201839004830284018301909452808352979a9998810197919650918201945092508291508401838280828437509497506113c69650505050505050565b34801561035257600080fd5b50604080516020601f606435600481810135928301849004840285018401909552818452610214948035946024803595600160a060020a0360443516953695608494930191819084018382808284375050604080516020601f89358b018035918201839004830284018301909452808352979a999881019791965091820194509250829150840183828082843750949750611b029650505050505050565b3480156103fc57600080fd5b50610405611fb0565b60408051600160a060020a039092168252519081900360200190f35b34801561042d57600080fd5b506102146004356024351515611fbf565b34801561044a57600080fd5b50604080516020601f606435600481810135928301849004840285018401909552818452610214948035946024803595600160a060020a0360443516953695608494930191819084018382808284375050604080516020601f89358b018035918201839004830284018301909452808352979a9998810197919650918201945092508291508401838280828437509497506123ec9650505050505050565b3480156104f457600080fd5b506040805160206004803580820135601f810184900484028501840190955284845261021494369492936024939284019190819084018382808284375050604080516020601f89358b018035918201839004830284018301909452808352979a99988101979196509182019450925082915084018382808284375050604080516020888301358a018035601f8101839004830284018301909452838352979a8935600160a060020a039081169b8b8401359091169a919990985060609091019650919450908101925081908401838280828437509497506128899650505050505050565b3480156105e457600080fd5b506040805160206004803580820135601f810184900484028501840190955284845261021494369492936024939284019190819084018382808284375050604080516020601f60608a01358b0180359182018390048302840183018552818452989b8a359b600160a060020a03848d013581169c96870135169a919950975060809094019550919350918201918190840183828082843750949750612d209650505050505050565b34801561069857600080fd5b50610405613152565b3480156106ad57600080fd5b506040805160206004803580820135601f810184900484028501840190955284845261021494369492936024939284019190819084018382808284375050604080516020601f60608a01358b0180359182018390048302840183018552818452989b600160a060020a038b3581169c848d013582169c968701359091169a9199509750608090940195509193509182019181908401838280828437509497506131619650505050505050565b34801561076557600080fd5b50610771600435613594565b604051808681526020018515151515815260200184600160a060020a0316600160a060020a03168152602001836000191660001916815260200180602001828103825283818151815260200191508051906020019080838360005b838110156107e45781810151838201526020016107cc565b50505050905090810190601f1680156108115780820380516001836020036101000a031916815260200191505b50965050505050505060405180910390f35b34801561082f57600080fd5b50610214600435602435600160a060020a036044358116906064358116906084351661370c565b34801561086257600080fd5b506040805160206004803580820135601f810184900484028501840190955284845261021494369492936024939284019190819084018382808284375050604080516020601f60608a01358b0180359182018390048302840183018552818452989b8a3515159b600160a060020a03848d013581169c96870135169a919950975060809094019550919350918201918190840183828082843750949750613c5d9650505050505050565b34801561091857600080fd5b50610214600435614090565b34801561093057600080fd5b5060408051602060046024803582810135601f8101859004850286018501909652858552610771958335600160a060020a031695369560449491939091019190819084018382808284375094975061429d9650505050505050565b34801561099757600080fd5b5061040561442a565b3480156109ac57600080fd5b50610214600435614439565b3480156109c457600080fd5b50610214600435602435151561473a565b3480156109e157600080fd5b50610214600435614959565b3480156109f957600080fd5b50610405614c5a565b348015610a0e57600080fd5b50604080516020601f6064356004818101359283018490048402850184019095528184526102149480359460248035151595600160a060020a0360443516953695608494930191819084018382808284375050604080516020601f89358b018035918201839004830284018301909452808352979a999881019791965091820194509250829150840183828082843750949750614c699650505050505050565b348015610aba57600080fd5b5061022e615153565b348015610acf57600080fd5b506040805160206004803580820135601f8101849004840285018401909552848452610b2794369492936024939284019190819084018382808284375094975050509235600160a060020a0316935061515992505050565b604080519115158252519081900360200190f35b348015610b4757600080fd5b5060408051602060046024803582810135601f810185900485028601850190965285855261022e958335600160a060020a031695369560449491939091019190819084018382808284375094975061527f9650505050505050565b348015610bae57600080fd5b506104056153b5565b348015610bc357600080fd5b50604080516020601f60643560048181013592830184900484028501840190955281845261021494803594600160a060020a036024803582169660443590921695369560849493920191819084018382808284375050604080516020601f89358b018035918201839004830284018301909452808352979a9998810197919650918201945092508291508401838280828437509497506153c49650505050505050565b348015610c7257600080fd5b50610405615892565b826000600160a060020a031681600160a060020a03166379bddde86040518163ffffffff1660e060020a028152600401602060405180830381600087803b158015610cc557600080fd5b505af1158015610cd9573d6000803e3d6000fd5b505050506040513d6020811015610cef57600080fd5b5051600160a060020a031614801590610d72575080600160a060020a0316636bccedba6040518163ffffffff1660e060020a028152600401602060405180830381600087803b158015610d4157600080fd5b505af1158015610d55573d6000803e3d6000fd5b505050506040513d6020811015610d6b57600080fd5b505160ff16155b1515610d7d57600080fd5b826000600160a060020a031681600160a060020a03166379bddde86040518163ffffffff1660e060020a028152600401602060405180830381600087803b158015610dc757600080fd5b505af1158015610ddb573d6000803e3d6000fd5b505050506040513d6020811015610df157600080fd5b5051600160a060020a031614801590610e74575080600160a060020a0316636bccedba6040518163ffffffff1660e060020a028152600401602060405180830381600087803b158015610e4357600080fd5b505af1158015610e57573d6000803e3d6000fd5b505050506040513d6020811015610e6d57600080fd5b505160ff16155b1515610e7f57600080fd5b8684610e8b8282615159565b15610e9557600080fd5b338780600160a060020a0316632ef193b06040518163ffffffff1660e060020a028152600401602060405180830381600087803b158015610ed557600080fd5b505af1158015610ee9573d6000803e3d6000fd5b505050506040513d6020811015610eff57600080fd5b50516006546040805160e060020a63029b7d530281523360048201529051600160a060020a03938416939092169163029b7d53916024808201926020929091908290030181600087803b158015610f5557600080fd5b505af1158015610f69573d6000803e3d6000fd5b505050506040513d6020811015610f7f57600080fd5b5051600160a060020a031614610f9457600080fd5b600d805460010190819055600b54604080517f316293880000000000000000000000000000000000000000000000000000000081526004810193909352602483018d905251600160a060020a0390911691633162938891604480830192600092919082900301818387803b15801561100b57600080fd5b505af115801561101f573d6000803e3d6000fd5b50506006546040805160e060020a63029b7d5302815233600482015290516110ad9450600160a060020a03909216925063029b7d539160248083019260209291908290030181600087803b15801561107657600080fd5b505af115801561108a573d6000803e3d6000fd5b505050506040513d60208110156110a057600080fd5b505160048d8c8c8c6158a1565b5050505050505050505050565b600f6020526000908152604090205481565b6006546040805160e060020a63029b7d5302815233600482015290516000928392600160a060020a039091169163029b7d539160248082019260209290919082900301818787803b15801561112057600080fd5b505af1158015611134573d6000803e3d6000fd5b505050506040513d602081101561114a57600080fd5b5051600754604080517fad58a7d2000000000000000000000000000000000000000000000000000000008152600481018890529051929450600160a060020a039091169163ad58a7d29160248082019260009290919082900301818387803b1580156111b557600080fd5b505af11580156111c9573d6000803e3d6000fd5b505050506040513d6000823e601f3d908101601f1916820160405260e08110156111f257600080fd5b81516020830151604084015160608501516080860180519496939592949193928301929164010000000081111561122857600080fd5b8201602081018481111561123b57600080fd5b815164010000000081118282018710171561125557600080fd5b5050602082015160409092018051919492939164010000000081111561127a57600080fd5b8201602081018481111561128d57600080fd5b81516401000000008111828201871017156112a757600080fd5b50509291905050505050509350505050600760009054906101000a9004600160a060020a0316600160a060020a0316635f39fd738584866040518463ffffffff1660e060020a0281526004018084815260200183600160a060020a0316600160a060020a03168152602001821515151581526020019350505050602060405180830381600087803b15801561133b57600080fd5b505af115801561134f573d6000803e3d6000fd5b505050506040513d602081101561136557600080fd5b5051151561137257600080fd5b60408051600160a060020a0380841682528416602082015284151581830152905185917fd1ceffc896374df3ec020f7a5b068a38f909c6833edd2c4fec3716074c07dc7d919081900360600190a250505050565b826000600160a060020a031681600160a060020a03166379bddde86040518163ffffffff1660e060020a028152600401602060405180830381600087803b15801561141057600080fd5b505af1158015611424573d6000803e3d6000fd5b505050506040513d602081101561143a57600080fd5b5051600160a060020a0316148015906114bd575080600160a060020a0316636bccedba6040518163ffffffff1660e060020a028152600401602060405180830381600087803b15801561148c57600080fd5b505af11580156114a0573d6000803e3d6000fd5b505050506040513d60208110156114b657600080fd5b505160ff16155b15156114c857600080fd5b6007546006546040805160e060020a63029b7d530281523360048201529051600160a060020a039384169363a57c0919938b93600593919092169163029b7d539160248083019260209291908290030181600087803b15801561152a57600080fd5b505af115801561153e573d6000803e3d6000fd5b505050506040513d602081101561155457600080fd5b505160405160e060020a63ffffffff86160281526004810184815260ff84166024830152600160a060020a0380841660448401528b16606483015260c0608483019081528a5160c48401528a518c938c938c939092909160a481019160e490910190602087019080838360005b838110156115d95781810151838201526020016115c1565b50505050905090810190601f1680156116065780820380516001836020036101000a031916815260200191505b50838103825284518152845160209182019186019080838360005b83811015611639578181015183820152602001611621565b50505050905090810190601f1680156116665780820380516001836020036101000a031916815260200191505b5098505050505050505050602060405180830381600087803b15801561168b57600080fd5b505af115801561169f573d6000803e3d6000fd5b505050506040513d60208110156116b557600080fd5b505115156116c257600080fd5b600c54604080517f0ce648680000000000000000000000000000000000000000000000000000000081526004810189815260248201928352885160448301528851600160a060020a0390941693630ce64868938b938b9392606490910190602085019080838360005b8381101561174357818101518382015260200161172b565b50505050905090810190601f1680156117705780820380516001836020036101000a031916815260200191505b509350505050600060405180830381600087803b15801561179057600080fd5b505af11580156117a4573d6000803e3d6000fd5b5050505085600f60003087600c60009054906101000a9004600160a060020a0316600160a060020a0316639ba535ce8c6040518263ffffffff1660e060020a02815260040180828152602001915050600060405180830381600087803b15801561180d57600080fd5b505af1158015611821573d6000803e3d6000fd5b505050506040513d6000823e601f3d908101601f19168201604052602081101561184a57600080fd5b81019080805164010000000081111561186257600080fd5b8201602081018481111561187557600080fd5b815164010000000081118282018710171561188f57600080fd5b50509291905050508a888d6040516020018087600160a060020a0316600160a060020a0316606060020a02815260140186600160a060020a0316600160a060020a0316606060020a02815260140185805190602001908083835b602083106119085780518252601f1990920191602091820191016118e9565b51815160209384036101000a600019018019909216911617905287519190930192870191508083835b602083106119505780518252601f199092019160209182019101611931565b51815160209384036101000a600019018019909216911617905286519190930192860191508083835b602083106119985780518252601f199092019160209182019101611979565b51815160209384036101000a600019018019909216911617905292019384525060408051808503815293820190819052835193985096508695508701935090915081905083835b602083106119fe5780518252601f1990920191602091820191016119df565b51815160209384036101000a60001901801990921691161790526040805192909401829003909120865285810196909652509283016000908120959095555050600654815160e060020a63029b7d530281523360048201529151600160a060020a039091169363029b7d5393602480850194919392918390030190829087803b158015611a8a57600080fd5b505af1158015611a9e573d6000803e3d6000fd5b505050506040513d6020811015611ab457600080fd5b505160408051600160a060020a0387811682529151919092169188917f6b669130d0b3ac9bed9420e1b2bfc22364661b81330a9aa01a1deddf3512d2e09181900360200190a3505050505050565b826000600160a060020a031681600160a060020a03166379bddde86040518163ffffffff1660e060020a028152600401602060405180830381600087803b158015611b4c57600080fd5b505af1158015611b60573d6000803e3d6000fd5b505050506040513d6020811015611b7657600080fd5b5051600160a060020a031614801590611bf9575080600160a060020a0316636bccedba6040518163ffffffff1660e060020a028152600401602060405180830381600087803b158015611bc857600080fd5b505af1158015611bdc573d6000803e3d6000fd5b505050506040513d6020811015611bf257600080fd5b505160ff16155b1515611c0457600080fd5b6007546006546040805160e060020a63029b7d53028152336004828101919091529151600160a060020a039485169463a57c0919948c949391169163029b7d53916024808201926020929091908290030181600087803b158015611c6757600080fd5b505af1158015611c7b573d6000803e3d6000fd5b505050506040513d6020811015611c9157600080fd5b505160405160e060020a63ffffffff86160281526004810184815260ff84166024830152600160a060020a0380841660448401528b16606483015260c0608483019081528a5160c48401528a518c938c938c939092909160a481019160e490910190602087019080838360005b83811015611d16578181015183820152602001611cfe565b50505050905090810190601f168015611d435780820380516001836020036101000a031916815260200191505b50838103825284518152845160209182019186019080838360005b83811015611d76578181015183820152602001611d5e565b50505050905090810190601f168015611da35780820380516001836020036101000a031916815260200191505b5098505050505050505050602060405180830381600087803b158015611dc857600080fd5b505af1158015611ddc573d6000803e3d6000fd5b505050506040513d6020811015611df257600080fd5b50511515611dff57600080fd5b600b54604080517f3162938800000000000000000000000000000000000000000000000000000000815260048101899052602481018890529051600160a060020a039092169163316293889160448082019260009290919082900301818387803b158015611e6c57600080fd5b505af1158015611e80573d6000803e3d6000fd5b5050505085600f60003087600b60009054906101000a9004600160a060020a0316600160a060020a0316639ba535ce8c6040518263ffffffff1660e060020a02815260040180828152602001915050602060405180830381600087803b158015611ee957600080fd5b505af1158015611efd573d6000803e3d6000fd5b505050506040513d6020811015611f1357600080fd5b81019080805190602001909291905050508a888d6040516020018087600160a060020a0316600160a060020a0316606060020a02815260140186600160a060020a0316600160a060020a0316606060020a028152601401856000191660001916815260200184600019166000191681526020018380519060200190808383602083106119985780518252601f199092019160209182019101611979565b600354600160a060020a031681565b6006546040805160e060020a63029b7d5302815233600482015290516000928392606092600160a060020a039092169163029b7d539160248082019260209290919082900301818887803b15801561201657600080fd5b505af115801561202a573d6000803e3d6000fd5b505050506040513d602081101561204057600080fd5b5051600754604080517f2a82fdbd00000000000000000000000000000000000000000000000000000000815260048101899052600160a060020a03808516602483015288151560448301529151939650911691632a82fdbd916064808201926020929091908290030181600087803b1580156120bb57600080fd5b505af11580156120cf573d6000803e3d6000fd5b505050506040513d60208110156120e557600080fd5b505115156120f257600080fd5b600754604080517f81f3e897000000000000000000000000000000000000000000000000000000008152600481018890529051600160a060020a03909216916381f3e8979160248082019260009290919082900301818387803b15801561215857600080fd5b505af115801561216c573d6000803e3d6000fd5b505050506040513d6000823e601f3d908101601f1916820160405261014081101561219657600080fd5b8151602083015160408401516060850151608086018051949693959294919392830192916401000000008111156121cc57600080fd5b820160208101848111156121df57600080fd5b81516401000000008111828201871017156121f957600080fd5b5050602082015160408301516060840151608085015160a0909501805194979396929591949193929164010000000081111561223457600080fd5b8201602081018481111561224757600080fd5b815164010000000081118282018710171561226157600080fd5b505092919050505050505050509450945050505083151561239757600e600083600160a060020a0316600160a060020a03168152602001908152602001600020600030836040516020018083600160a060020a0316600160a060020a0316606060020a02815260140182805190602001908083835b602083106122f55780518252601f1990920191602091820191016122d6565b6001836020036101000a038019825116818451168082178552505050505050905001925050506040516020818303038152906040526040518082805190602001908083835b602083106123595780518252601f19909201916020918201910161233a565b51815160209384036101000a600019018019909216911617905260408051929094018290039091208652850195909552929092016000908120555050505b60408051600160a060020a0380851682528516602082015285151581830152905186917f88777193beb258cd3af58ac99deaac6fe1e4fd4079ce3085aa04e27c153c241a919081900360600190a25050505050565b826000600160a060020a031681600160a060020a03166379bddde86040518163ffffffff1660e060020a028152600401602060405180830381600087803b15801561243657600080fd5b505af115801561244a573d6000803e3d6000fd5b505050506040513d602081101561246057600080fd5b5051600160a060020a0316148015906124e3575080600160a060020a0316636bccedba6040518163ffffffff1660e060020a028152600401602060405180830381600087803b1580156124b257600080fd5b505af11580156124c6573d6000803e3d6000fd5b505050506040513d60208110156124dc57600080fd5b505160ff16155b15156124ee57600080fd5b6007546006546040805160e060020a63029b7d530281523360048201529051600160a060020a039384169363a57c0919938b93600193919092169163029b7d539160248083019260209291908290030181600087803b15801561255057600080fd5b505af1158015612564573d6000803e3d6000fd5b505050506040513d602081101561257a57600080fd5b505160405160e060020a63ffffffff86160281526004810184815260ff84166024830152600160a060020a0380841660448401528b16606483015260c0608483019081528a5160c48401528a518c938c938c939092909160a481019160e490910190602087019080838360005b838110156125ff5781810151838201526020016125e7565b50505050905090810190601f16801561262c5780820380516001836020036101000a031916815260200191505b50838103825284518152845160209182019186019080838360005b8381101561265f578181015183820152602001612647565b50505050905090810190601f16801561268c5780820380516001836020036101000a031916815260200191505b5098505050505050505050602060405180830381600087803b1580156126b157600080fd5b505af11580156126c5573d6000803e3d6000fd5b505050506040513d60208110156126db57600080fd5b505115156126e857600080fd5b600854604080517fb238724b00000000000000000000000000000000000000000000000000000000815260048101899052602481018890529051600160a060020a039092169163b238724b9160448082019260009290919082900301818387803b15801561275557600080fd5b505af1158015612769573d6000803e3d6000fd5b5050505085600f60003087600860009054906101000a9004600160a060020a0316600160a060020a0316639ba535ce8c6040518263ffffffff1660e060020a02815260040180828152602001915050602060405180830381600087803b1580156127d257600080fd5b505af11580156127e6573d6000803e3d6000fd5b505050506040513d60208110156127fc57600080fd5b81019080805190602001909291905050508a888d6040516020018087600160a060020a0316600160a060020a0316606060020a02815260140186600160a060020a0316600160a060020a0316606060020a0281526014018581526020018481526020018380519060200190808383602083106119985780518252601f199092019160209182019101611979565b826000600160a060020a031681600160a060020a03166379bddde86040518163ffffffff1660e060020a028152600401602060405180830381600087803b1580156128d357600080fd5b505af11580156128e7573d6000803e3d6000fd5b505050506040513d60208110156128fd57600080fd5b5051600160a060020a031614801590612980575080600160a060020a0316636bccedba6040518163ffffffff1660e060020a028152600401602060405180830381600087803b15801561294f57600080fd5b505af1158015612963573d6000803e3d6000fd5b505050506040513d602081101561297957600080fd5b505160ff16155b151561298b57600080fd5b826000600160a060020a031681600160a060020a03166379bddde86040518163ffffffff1660e060020a028152600401602060405180830381600087803b1580156129d557600080fd5b505af11580156129e9573d6000803e3d6000fd5b505050506040513d60208110156129ff57600080fd5b5051600160a060020a031614801590612a82575080600160a060020a0316636bccedba6040518163ffffffff1660e060020a028152600401602060405180830381600087803b158015612a5157600080fd5b505af1158015612a65573d6000803e3d6000fd5b505050506040513d6020811015612a7b57600080fd5b505160ff16155b1515612a8d57600080fd5b8684612a998282615159565b15612aa357600080fd5b338780600160a060020a0316632ef193b06040518163ffffffff1660e060020a028152600401602060405180830381600087803b158015612ae357600080fd5b505af1158015612af7573d6000803e3d6000fd5b505050506040513d6020811015612b0d57600080fd5b50516006546040805160e060020a63029b7d530281523360048201529051600160a060020a03938416939092169163029b7d53916024808201926020929091908290030181600087803b158015612b6357600080fd5b505af1158015612b77573d6000803e3d6000fd5b505050506040513d6020811015612b8d57600080fd5b5051600160a060020a031614612ba257600080fd5b600d60008154809291906001019190505550600c60009054906101000a9004600160a060020a0316600160a060020a0316630ce64868600d548c6040518363ffffffff1660e060020a0281526004018083815260200180602001828103825283818151815260200191508051906020019080838360005b83811015612c31578181015183820152602001612c19565b50505050905090810190601f168015612c5e5780820380516001836020036101000a031916815260200191505b509350505050600060405180830381600087803b158015612c7e57600080fd5b505af1158015612c92573d6000803e3d6000fd5b50506006546040805160e060020a63029b7d5302815233600482015290516110ad9450600160a060020a03909216925063029b7d539160248083019260209291908290030181600087803b158015612ce957600080fd5b505af1158015612cfd573d6000803e3d6000fd5b505050506040513d6020811015612d1357600080fd5b505160058d8c8c8c6158a1565b826000600160a060020a031681600160a060020a03166379bddde86040518163ffffffff1660e060020a028152600401602060405180830381600087803b158015612d6a57600080fd5b505af1158015612d7e573d6000803e3d6000fd5b505050506040513d6020811015612d9457600080fd5b5051600160a060020a031614801590612e17575080600160a060020a0316636bccedba6040518163ffffffff1660e060020a028152600401602060405180830381600087803b158015612de657600080fd5b505af1158015612dfa573d6000803e3d6000fd5b505050506040513d6020811015612e1057600080fd5b505160ff16155b1515612e2257600080fd5b826000600160a060020a031681600160a060020a03166379bddde86040518163ffffffff1660e060020a028152600401602060405180830381600087803b158015612e6c57600080fd5b505af1158015612e80573d6000803e3d6000fd5b505050506040513d6020811015612e9657600080fd5b5051600160a060020a031614801590612f19575080600160a060020a0316636bccedba6040518163ffffffff1660e060020a028152600401602060405180830381600087803b158015612ee857600080fd5b505af1158015612efc573d6000803e3d6000fd5b505050506040513d6020811015612f1257600080fd5b505160ff16155b1515612f2457600080fd5b8684612f308282615159565b15612f3a57600080fd5b338780600160a060020a0316632ef193b06040518163ffffffff1660e060020a028152600401602060405180830381600087803b158015612f7a57600080fd5b505af1158015612f8e573d6000803e3d6000fd5b505050506040513d6020811015612fa457600080fd5b50516006546040805160e060020a63029b7d530281523360048201529051600160a060020a03938416939092169163029b7d53916024808201926020929091908290030181600087803b158015612ffa57600080fd5b505af115801561300e573d6000803e3d6000fd5b505050506040513d602081101561302457600080fd5b5051600160a060020a03161461303957600080fd5b600d805460010190819055600854604080517fb238724b0000000000000000000000000000000000000000000000000000000081526004810193909352602483018d905251600160a060020a039091169163b238724b91604480830192600092919082900301818387803b1580156130b057600080fd5b505af11580156130c4573d6000803e3d6000fd5b50506006546040805160e060020a63029b7d5302815233600482015290516110ad9450600160a060020a03909216925063029b7d539160248083019260209291908290030181600087803b15801561311b57600080fd5b505af115801561312f573d6000803e3d6000fd5b505050506040513d602081101561314557600080fd5b505160018d8c8c8c6158a1565b600554600160a060020a031681565b826000600160a060020a031681600160a060020a03166379bddde86040518163ffffffff1660e060020a028152600401602060405180830381600087803b1580156131ab57600080fd5b505af11580156131bf573d6000803e3d6000fd5b505050506040513d60208110156131d557600080fd5b5051600160a060020a031614801590613258575080600160a060020a0316636bccedba6040518163ffffffff1660e060020a028152600401602060405180830381600087803b15801561322757600080fd5b505af115801561323b573d6000803e3d6000fd5b505050506040513d602081101561325157600080fd5b505160ff16155b151561326357600080fd5b826000600160a060020a031681600160a060020a03166379bddde86040518163ffffffff1660e060020a028152600401602060405180830381600087803b1580156132ad57600080fd5b505af11580156132c1573d6000803e3d6000fd5b505050506040513d60208110156132d757600080fd5b5051600160a060020a03161480159061335a575080600160a060020a0316636bccedba6040518163ffffffff1660e060020a028152600401602060405180830381600087803b15801561332957600080fd5b505af115801561333d573d6000803e3d6000fd5b505050506040513d602081101561335357600080fd5b505160ff16155b151561336557600080fd5b86846133718282615159565b1561337b57600080fd5b338780600160a060020a0316632ef193b06040518163ffffffff1660e060020a028152600401602060405180830381600087803b1580156133bb57600080fd5b505af11580156133cf573d6000803e3d6000fd5b505050506040513d60208110156133e557600080fd5b50516006546040805160e060020a63029b7d530281523360048201529051600160a060020a03938416939092169163029b7d53916024808201926020929091908290030181600087803b15801561343b57600080fd5b505af115801561344f573d6000803e3d6000fd5b505050506040513d602081101561346557600080fd5b5051600160a060020a03161461347a57600080fd5b600d805460010190819055600a54604080517f97e30fc40000000000000000000000000000000000000000000000000000000081526004810193909352600160a060020a038d8116602485015290519116916397e30fc491604480830192600092919082900301818387803b1580156134f257600080fd5b505af1158015613506573d6000803e3d6000fd5b50506006546040805160e060020a63029b7d5302815233600482015290516110ad9450600160a060020a03909216925063029b7d539160248083019260209291908290030181600087803b15801561355d57600080fd5b505af1158015613571573d6000803e3d6000fd5b505050506040513d602081101561358757600080fd5b505160038d8c8c8c6158a1565b6000805460015460025460035460048054600554604080517fc2349ff4000000000000000000000000000000000000000000000000000000008152600160a060020a03988916948101949094529587166024840152938616604483015291851660648201529084166084820152921660a483015260c482018490525182918291829160609173__AOLibrary_____________________________9163c2349ff49160e48083019287929190829003018186803b15801561365357600080fd5b505af4158015613667573d6000803e3d6000fd5b505050506040513d6000823e601f3d908101601f1916820160405260a081101561369057600080fd5b8151602083015160408401516060850151608086018051949693959294919392830192916401000000008111156136c657600080fd5b820160208101848111156136d957600080fd5b81516401000000008111828201871017156136f357600080fd5b50979e969d50949b509299509297509295505050505050565b600080836000600160a060020a031681600160a060020a03166379bddde86040518163ffffffff1660e060020a028152600401602060405180830381600087803b15801561375957600080fd5b505af115801561376d573d6000803e3d6000fd5b505050506040513d602081101561378357600080fd5b5051600160a060020a031614801590613806575080600160a060020a0316636bccedba6040518163ffffffff1660e060020a028152600401602060405180830381600087803b1580156137d557600080fd5b505af11580156137e9573d6000803e3d6000fd5b505050506040513d60208110156137ff57600080fd5b505160ff16155b151561381157600080fd5b836000600160a060020a031681600160a060020a03166379bddde86040518163ffffffff1660e060020a028152600401602060405180830381600087803b15801561385b57600080fd5b505af115801561386f573d6000803e3d6000fd5b505050506040513d602081101561388557600080fd5b5051600160a060020a031614801590613908575080600160a060020a0316636bccedba6040518163ffffffff1660e060020a028152600401602060405180830381600087803b1580156138d757600080fd5b505af11580156138eb573d6000803e3d6000fd5b505050506040513d602081101561390157600080fd5b505160ff16155b151561391357600080fd5b338680600160a060020a0316632ef193b06040518163ffffffff1660e060020a028152600401602060405180830381600087803b15801561395357600080fd5b505af1158015613967573d6000803e3d6000fd5b505050506040513d602081101561397d57600080fd5b50516006546040805160e060020a63029b7d530281523360048201529051600160a060020a03938416939092169163029b7d53916024808201926020929091908290030181600087803b1580156139d357600080fd5b505af11580156139e7573d6000803e3d6000fd5b505050506040513d60208110156139fd57600080fd5b5051600160a060020a031614613a1257600080fd5b600760009054906101000a9004600160a060020a0316600160a060020a031663d79964c38c600660009054906101000a9004600160a060020a0316600160a060020a031663029b7d53336040518263ffffffff1660e060020a0281526004018082600160a060020a0316600160a060020a03168152602001915050602060405180830381600087803b158015613aa757600080fd5b505af1158015613abb573d6000803e3d6000fd5b505050506040513d6020811015613ad157600080fd5b50516040805160e060020a63ffffffff86160281526004810193909352600160a060020a039182166024840152818d166044840152818c166064840152608483018f9052908d1660a4830152805160c4808401938290030181600087803b158015613b3b57600080fd5b505af1158015613b4f573d6000803e3d6000fd5b505050506040513d6040811015613b6557600080fd5b5080516020918201516006546040805160e060020a63029b7d530281523360048201529051939a50919850600160a060020a03169263029b7d53926024808401938290030181600087803b158015613bbc57600080fd5b505af1158015613bd0573d6000803e3d6000fd5b505050506040513d6020811015613be657600080fd5b505160408051600160a060020a038b811682528a811660208301528183018e90528c81166060830152608082018a905260a08201899052915191909216918d917f5b0aa40d58b997f6865a44dcb51e82305ff4fc4d2f7fed2e10d853de9394ae2a9181900360c00190a35050505050505050505050565b826000600160a060020a031681600160a060020a03166379bddde86040518163ffffffff1660e060020a028152600401602060405180830381600087803b158015613ca757600080fd5b505af1158015613cbb573d6000803e3d6000fd5b505050506040513d6020811015613cd157600080fd5b5051600160a060020a031614801590613d54575080600160a060020a0316636bccedba6040518163ffffffff1660e060020a028152600401602060405180830381600087803b158015613d2357600080fd5b505af1158015613d37573d6000803e3d6000fd5b505050506040513d6020811015613d4d57600080fd5b505160ff16155b1515613d5f57600080fd5b826000600160a060020a031681600160a060020a03166379bddde86040518163ffffffff1660e060020a028152600401602060405180830381600087803b158015613da957600080fd5b505af1158015613dbd573d6000803e3d6000fd5b505050506040513d6020811015613dd357600080fd5b5051600160a060020a031614801590613e56575080600160a060020a0316636bccedba6040518163ffffffff1660e060020a028152600401602060405180830381600087803b158015613e2557600080fd5b505af1158015613e39573d6000803e3d6000fd5b505050506040513d6020811015613e4f57600080fd5b505160ff16155b1515613e6157600080fd5b8684613e6d8282615159565b15613e7757600080fd5b338780600160a060020a0316632ef193b06040518163ffffffff1660e060020a028152600401602060405180830381600087803b158015613eb757600080fd5b505af1158015613ecb573d6000803e3d6000fd5b505050506040513d6020811015613ee157600080fd5b50516006546040805160e060020a63029b7d530281523360048201529051600160a060020a03938416939092169163029b7d53916024808201926020929091908290030181600087803b158015613f3757600080fd5b505af1158015613f4b573d6000803e3d6000fd5b505050506040513d6020811015613f6157600080fd5b5051600160a060020a031614613f7657600080fd5b600d805460010190819055600954604080517f5802c69500000000000000000000000000000000000000000000000000000000815260048101939093528c1515602484015251600160a060020a0390911691635802c69591604480830192600092919082900301818387803b158015613fee57600080fd5b505af1158015614002573d6000803e3d6000fd5b50506006546040805160e060020a63029b7d5302815233600482015290516110ad9450600160a060020a03909216925063029b7d539160248083019260209291908290030181600087803b15801561405957600080fd5b505af115801561406d573d6000803e3d6000fd5b505050506040513d602081101561408357600080fd5b505160028d8c8c8c6158a1565b6006546040805160e060020a63029b7d5302815233600482015290516000928392600160a060020a039091169163029b7d539160248082019260209290919082900301818787803b1580156140e457600080fd5b505af11580156140f8573d6000803e3d6000fd5b505050506040513d602081101561410e57600080fd5b5051600754604080517fed3ad43e00000000000000000000000000000000000000000000000000000000815260048101879052600160a060020a038085166024830152915193955091169163ed3ad43e916044808201926020929091908290030181600087803b15801561418157600080fd5b505af1158015614195573d6000803e3d6000fd5b505050506040513d60208110156141ab57600080fd5b505115156141b857600080fd5b600754604080517feb10b4bd000000000000000000000000000000000000000000000000000000008152600481018690529051600160a060020a039092169163eb10b4bd91602480820192610180929091908290030181600087803b15801561422057600080fd5b505af1158015614234573d6000803e3d6000fd5b505050506040513d61018081101561424b57600080fd5b506040908101518151600160a060020a03808316825285166020820152825191935085927fddce695af8c75c8fab3a9b369527822852b7fca9ca33aa7c48141b1134298f2d92918290030190a2505050565b6000805460015460025460035460045460055486958695869560609573__AOLibrary_____________________________9563c2349ff495600160a060020a039586169594851694938416939283169291821691166142fc8f8f61527f565b6040805160e060020a63ffffffff8b16028152600160a060020a039889166004820152968816602488015294871660448701529286166064860152908516608485015290931660a483015260c4820192909252905160e4808301926000929190829003018186803b15801561437057600080fd5b505af4158015614384573d6000803e3d6000fd5b505050506040513d6000823e601f3d908101601f1916820160405260a08110156143ad57600080fd5b8151602083015160408401516060850151608086018051949693959294919392830192916401000000008111156143e357600080fd5b820160208101848111156143f657600080fd5b815164010000000081118282018710171561441057600080fd5b50979f969e50949c50929a50929850929650505050505050565b600454600160a060020a031681565b6006546040805160e060020a63029b7d53028152336004820152905160009283928392600160a060020a039092169163029b7d539160248082019260209290919082900301818787803b15801561448f57600080fd5b505af11580156144a3573d6000803e3d6000fd5b505050506040513d60208110156144b957600080fd5b5051600754604080517f4a17601700000000000000000000000000000000000000000000000000000000815260048101889052600160a060020a0380851660248301529151939650911691634a176017916044808201926020929091908290030181600087803b15801561452c57600080fd5b505af1158015614540573d6000803e3d6000fd5b505050506040513d602081101561455657600080fd5b5051151561456357600080fd5b600754604080517f81f3e897000000000000000000000000000000000000000000000000000000008152600481018790529051600160a060020a03909216916381f3e8979160248082019260009290919082900301818387803b1580156145c957600080fd5b505af11580156145dd573d6000803e3d6000fd5b505050506040513d6000823e601f3d908101601f1916820160405261014081101561460757600080fd5b81516020830151604084015160608501516080860180519496939592949193928301929164010000000081111561463d57600080fd5b8201602081018481111561465057600080fd5b815164010000000081118282018710171561466a57600080fd5b5050602082015160408301516060840151608085015160a090950180519497939692959194919392916401000000008111156146a557600080fd5b820160208101848111156146b857600080fd5b81516401000000008111828201871017156146d257600080fd5b50509291905050505050505095505050935050506146f08482615cd5565b60408051600160a060020a03808516825285166020820152815186927fbb5e0d5e53d5c4edcb39f401558efb469259576f753902721daa75c87b14416c928290030190a250505050565b6006546040805160e060020a63029b7d5302815233600482015290516000928392600160a060020a039091169163029b7d539160248082019260209290919082900301818787803b15801561478e57600080fd5b505af11580156147a2573d6000803e3d6000fd5b505050506040513d60208110156147b857600080fd5b5051600754604080517f46082aaf00000000000000000000000000000000000000000000000000000000815260048101889052600160a060020a038085166024830152871515604483015291519395509116916346082aaf916064808201926020929091908290030181600087803b15801561483357600080fd5b505af1158015614847573d6000803e3d6000fd5b505050506040513d602081101561485d57600080fd5b5051151561486a57600080fd5b600754604080517feb10b4bd000000000000000000000000000000000000000000000000000000008152600481018790529051600160a060020a039092169163eb10b4bd91602480820192610180929091908290030181600087803b1580156148d257600080fd5b505af11580156148e6573d6000803e3d6000fd5b505050506040513d6101808110156148fd57600080fd5b5060609081015160408051600160a060020a0380841682528616602082015286151581830152905191935086927f68e70a35c7a2d3a84a6d5f1fca218f248ebab3821e88a3b58ead71224623433292918290030190a250505050565b6006546040805160e060020a63029b7d53028152336004820152905160009283928392600160a060020a039092169163029b7d539160248082019260209290919082900301818787803b1580156149af57600080fd5b505af11580156149c3573d6000803e3d6000fd5b505050506040513d60208110156149d957600080fd5b5051600754604080517f83fee16d00000000000000000000000000000000000000000000000000000000815260048101889052600160a060020a03808516602483015291519396509116916383fee16d916044808201926020929091908290030181600087803b158015614a4c57600080fd5b505af1158015614a60573d6000803e3d6000fd5b505050506040513d6020811015614a7657600080fd5b50511515614a8357600080fd5b600754604080517f81f3e897000000000000000000000000000000000000000000000000000000008152600481018790529051600160a060020a03909216916381f3e8979160248082019260009290919082900301818387803b158015614ae957600080fd5b505af1158015614afd573d6000803e3d6000fd5b505050506040513d6000823e601f3d908101601f19168201604052610140811015614b2757600080fd5b815160208301516040840151606085015160808601805194969395929491939283019291640100000000811115614b5d57600080fd5b82016020810184811115614b7057600080fd5b8151640100000000811182820187101715614b8a57600080fd5b5050602082015160408301516060840151608085015160a09095018051949793969295919491939291640100000000811115614bc557600080fd5b82016020810184811115614bd857600080fd5b8151640100000000811182820187101715614bf257600080fd5b5050929190505050505050509550509450505050614c108482615cd5565b60408051600160a060020a03808516825285166020820152815186927f0b8de7345c8858c1a768f8563f771e787ca936dd91e184518c41598661bcecf6928290030190a250505050565b600254600160a060020a031681565b826000600160a060020a031681600160a060020a03166379bddde86040518163ffffffff1660e060020a028152600401602060405180830381600087803b158015614cb357600080fd5b505af1158015614cc7573d6000803e3d6000fd5b505050506040513d6020811015614cdd57600080fd5b5051600160a060020a031614801590614d60575080600160a060020a0316636bccedba6040518163ffffffff1660e060020a028152600401602060405180830381600087803b158015614d2f57600080fd5b505af1158015614d43573d6000803e3d6000fd5b505050506040513d6020811015614d5957600080fd5b505160ff16155b1515614d6b57600080fd5b6007546006546040805160e060020a63029b7d530281523360048201529051600160a060020a039384169363a57c0919938b93600293919092169163029b7d539160248083019260209291908290030181600087803b158015614dcd57600080fd5b505af1158015614de1573d6000803e3d6000fd5b505050506040513d6020811015614df757600080fd5b505160405160e060020a63ffffffff86160281526004810184815260ff84166024830152600160a060020a0380841660448401528b16606483015260c0608483019081528a5160c48401528a518c938c938c939092909160a481019160e490910190602087019080838360005b83811015614e7c578181015183820152602001614e64565b50505050905090810190601f168015614ea95780820380516001836020036101000a031916815260200191505b50838103825284518152845160209182019186019080838360005b83811015614edc578181015183820152602001614ec4565b50505050905090810190601f168015614f095780820380516001836020036101000a031916815260200191505b5098505050505050505050602060405180830381600087803b158015614f2e57600080fd5b505af1158015614f42573d6000803e3d6000fd5b505050506040513d6020811015614f5857600080fd5b50511515614f6557600080fd5b600954604080517f5802c6950000000000000000000000000000000000000000000000000000000081526004810189905287151560248201529051600160a060020a0390921691635802c6959160448082019260009290919082900301818387803b158015614fd357600080fd5b505af1158015614fe7573d6000803e3d6000fd5b5050505085600f60003087600960009054906101000a9004600160a060020a0316600160a060020a0316639ba535ce8c6040518263ffffffff1660e060020a02815260040180828152602001915050602060405180830381600087803b15801561505057600080fd5b505af1158015615064573d6000803e3d6000fd5b505050506040513d602081101561507a57600080fd5b81019080805190602001909291905050508a888d6040516020018087600160a060020a0316600160a060020a0316606060020a02815260140186600160a060020a0316600160a060020a0316606060020a02815260140185151515157f010000000000000000000000000000000000000000000000000000000000000002815260010184151515157f01000000000000000000000000000000000000000000000000000000000000000281526001018380519060200190808383602083106119985780518252601f199092019160209182019101611979565b600d5481565b600080600e600084600160a060020a0316600160a060020a03168152602001908152602001600020600030866040516020018083600160a060020a0316600160a060020a0316606060020a02815260140182805190602001908083835b602083106151d55780518252601f1990920191602091820191016151b6565b6001836020036101000a038019825116818451168082178552505050505050905001925050506040516020818303038152906040526040518082805190602001908083835b602083106152395780518252601f19909201916020918201910161521a565b51815160209384036101000a6000190180199092169116179052604080519290940182900390912086528501959095529290920160002054939093119695505050505050565b600061528b8284615159565b151561529657600080fd5b600e600084600160a060020a0316600160a060020a03168152602001908152602001600020600030846040516020018083600160a060020a0316600160a060020a0316606060020a02815260140182805190602001908083835b6020831061530f5780518252601f1990920191602091820191016152f0565b6001836020036101000a038019825116818451168082178552505050505050905001925050506040516020818303038152906040526040518082805190602001908083835b602083106153735780518252601f199092019160209182019101615354565b51815160209384036101000a60001901801990921691161790526040805192909401829003909120865285019590955292909201600020549695505050505050565b600154600160a060020a031681565b826000600160a060020a031681600160a060020a03166379bddde86040518163ffffffff1660e060020a028152600401602060405180830381600087803b15801561540e57600080fd5b505af1158015615422573d6000803e3d6000fd5b505050506040513d602081101561543857600080fd5b5051600160a060020a0316148015906154bb575080600160a060020a0316636bccedba6040518163ffffffff1660e060020a028152600401602060405180830381600087803b15801561548a57600080fd5b505af115801561549e573d6000803e3d6000fd5b505050506040513d60208110156154b457600080fd5b505160ff16155b15156154c657600080fd5b6007546006546040805160e060020a63029b7d530281523360048201529051600160a060020a039384169363a57c0919938b93600393919092169163029b7d539160248083019260209291908290030181600087803b15801561552857600080fd5b505af115801561553c573d6000803e3d6000fd5b505050506040513d602081101561555257600080fd5b505160405160e060020a63ffffffff86160281526004810184815260ff84166024830152600160a060020a0380841660448401528b16606483015260c0608483019081528a5160c48401528a518c938c938c939092909160a481019160e490910190602087019080838360005b838110156155d75781810151838201526020016155bf565b50505050905090810190601f1680156156045780820380516001836020036101000a031916815260200191505b50838103825284518152845160209182019186019080838360005b8381101561563757818101518382015260200161561f565b50505050905090810190601f1680156156645780820380516001836020036101000a031916815260200191505b5098505050505050505050602060405180830381600087803b15801561568957600080fd5b505af115801561569d573d6000803e3d6000fd5b505050506040513d60208110156156b357600080fd5b505115156156c057600080fd5b600a54604080517f97e30fc400000000000000000000000000000000000000000000000000000000815260048101899052600160a060020a038881166024830152915191909216916397e30fc491604480830192600092919082900301818387803b15801561572e57600080fd5b505af1158015615742573d6000803e3d6000fd5b5050505085600f60003087600a60009054906101000a9004600160a060020a0316600160a060020a0316639ba535ce8c6040518263ffffffff1660e060020a02815260040180828152602001915050602060405180830381600087803b1580156157ab57600080fd5b505af11580156157bf573d6000803e3d6000fd5b505050506040513d60208110156157d557600080fd5b81019080805190602001909291905050508a888d6040516020018087600160a060020a0316600160a060020a0316606060020a02815260140186600160a060020a0316600160a060020a0316606060020a02815260140185600160a060020a0316600160a060020a0316606060020a02815260140184600160a060020a0316600160a060020a0316606060020a0281526014018380519060200190808383602083106119985780518252601f199092019160209182019101611979565b600054600160a060020a031681565b60008060018760ff16101580156158bc575060058760ff1611155b15156158c757600080fd5b600d54600e600086600160a060020a0316600160a060020a03168152602001908152602001600020600030896040516020018083600160a060020a0316600160a060020a0316606060020a02815260140182805190602001908083835b602083106159435780518252601f199092019160209182019101615924565b6001836020036101000a038019825116818451168082178552505050505050905001925050506040516020818303038152906040526040518082805190602001908083835b602083106159a75780518252601f199092019160209182019101615988565b6001836020036101000a03801982511681845116808217855250505050505090500191505060405180910390206000191660001916815260200190815260200160002081905550600760009054906101000a9004600160a060020a0316600160a060020a0316638ffd2a1b600d548a8a8a8a8a8a6040518863ffffffff1660e060020a0281526004018088815260200187600160a060020a0316600160a060020a031681526020018660ff1660ff1681526020018060200185600160a060020a0316600160a060020a0316815260200184600160a060020a0316600160a060020a0316815260200180602001838103835287818151815260200191508051906020019080838360005b83811015615ac8578181015183820152602001615ab0565b50505050905090810190601f168015615af55780820380516001836020036101000a031916815260200191505b50838103825284518152845160209182019186019080838360005b83811015615b28578181015183820152602001615b10565b50505050905090810190601f168015615b555780820380516001836020036101000a031916815260200191505b5099505050505050505050506040805180830381600087803b158015615b7a57600080fd5b505af1158015615b8e573d6000803e3d6000fd5b505050506040513d6040811015615ba457600080fd5b8101908080519060200190929190805190602001909291905050509150915087600160a060020a0316600d547fe70b4fd539cc88a28e2373c3b0ddf295af995ba9a87470977ee56b9059f5665087878a8c88886040518087600160a060020a0316600160a060020a0316815260200186600160a060020a0316600160a060020a03168152602001806020018560ff1660ff16815260200184600019166000191681526020018360001916600019168152602001828103825286818151815260200191508051906020019080838360005b83811015615c8c578181015183820152602001615c74565b50505050905090810190601f168015615cb95780820380516001836020036101000a031916815260200191505b5097505050505050505060405180910390a35050505050505050565b8060ff1660011415615d4e576008546040805160e360020a630111f835028152600481018590529051600160a060020a039092169163088fc1a89160248082019260009290919082900301818387803b158015615d3157600080fd5b505af1158015615d45573d6000803e3d6000fd5b50505050615ecb565b8060ff1660021415615daa576009546040805160e360020a630111f835028152600481018590529051600160a060020a039092169163088fc1a89160248082019260009290919082900301818387803b158015615d3157600080fd5b8060ff1660031415615e0657600a546040805160e360020a630111f835028152600481018590529051600160a060020a039092169163088fc1a89160248082019260009290919082900301818387803b158015615d3157600080fd5b8060ff1660041415615e6257600b546040805160e360020a630111f835028152600481018590529051600160a060020a039092169163088fc1a89160248082019260009290919082900301818387803b158015615d3157600080fd5b600c546040805160e360020a630111f835028152600481018590529051600160a060020a039092169163088fc1a89160248082019260009290919082900301818387803b158015615eb257600080fd5b505af1158015615ec6573d6000803e3d6000fd5b505050505b50505600a165627a7a723058200a8ae4e5947c731be9850b362f82df30487fd59ea8cbf62a0adeffef2b50a9d20029",
	"source": "pragma solidity ^0.4.24;\n\nimport './Thought.sol';\nimport './Name.sol';\nimport './NameFactory.sol';\nimport './AOSettingAttribute.sol';\nimport './AOUintSetting.sol';\nimport './AOBoolSetting.sol';\nimport './AOAddressSetting.sol';\nimport './AOBytesSetting.sol';\nimport './AOStringSetting.sol';\nimport './AOLibrary.sol';\n\n/**\n * @title AOSetting\n *\n * This contract stores all AO setting variables\n */\ncontract AOSetting {\n\taddress public aoSettingAttributeAddress;\n\taddress public aoUintSettingAddress;\n\taddress public aoBoolSettingAddress;\n\taddress public aoAddressSettingAddress;\n\taddress public aoBytesSettingAddress;\n\taddress public aoStringSettingAddress;\n\n\tNameFactory internal _nameFactory;\n\tAOSettingAttribute internal _aoSettingAttribute;\n\tAOUintSetting internal _aoUintSetting;\n\tAOBoolSetting internal _aoBoolSetting;\n\tAOAddressSetting internal _aoAddressSetting;\n\tAOBytesSetting internal _aoBytesSetting;\n\tAOStringSetting internal _aoStringSetting;\n\n\tuint256 public totalSetting;\n\n\t/**\n\t * Mapping from associatedThoughtId's setting name to Setting ID.\n\t *\n\t * Instead of concatenating the associatedThoughtID and setting name to create a unique ID for lookup,\n\t * use nested mapping to achieve the same result.\n\t *\n\t * The setting's name needs to be converted to bytes32 since solidity does not support mapping by string.\n\t */\n\tmapping (address => mapping (bytes32 => uint256)) internal nameSettingLookup;\n\n\t// Mapping from updateHashKey to it's settingId\n\tmapping (bytes32 => uint256) public updateHashLookup;\n\n\t// Event to be broadcasted to public when a setting is created and waiting for approval\n\tevent SettingCreation(uint256 indexed settingId, address indexed creatorNameId, address creatorThoughtId, address associatedThoughtId, string settingName, uint8 settingType, bytes32 associatedThoughtSettingId, bytes32 creatorThoughtSettingId);\n\n\t// Event to be broadcasted to public when setting creation is approved/rejected by the advocate of associatedThoughtId\n\tevent ApproveSettingCreation(uint256 indexed settingId, address associatedThoughtId, address associatedThoughtAdvocate, bool approved);\n\t// Event to be broadcasted to public when setting creation is finalized by the advocate of creatorThoughtId\n\tevent FinalizeSettingCreation(uint256 indexed settingId, address creatorThoughtId, address creatorThoughtAdvocate);\n\n\t// Event to be broadcasted to public when a proposed update for a setting is created\n\tevent SettingUpdate(uint256 indexed settingId, address indexed updateAdvocateNameId, address proposalThoughtId);\n\n\t// Event to be broadcasted to public when setting update is approved/rejected by the advocate of proposalThoughtId\n\tevent ApproveSettingUpdate(uint256 indexed settingId, address proposalThoughtId, address proposalThoughtAdvocate, bool approved);\n\n\t// Event to be broadcasted to public when setting update is finalized by the advocate of associatedThoughtId\n\tevent FinalizeSettingUpdate(uint256 indexed settingId, address associatedThoughtId, address associatedThoughtAdvocate);\n\n\t// Event to be broadcasted to public when a setting deprecation is created and waiting for approval\n\tevent SettingDeprecation(uint256 indexed settingId, address indexed creatorNameId, address creatorThoughtId, address associatedThoughtId, uint256 newSettingId, address newSettingContractAddress, bytes32 associatedThoughtSettingDeprecationId, bytes32 creatorThoughtSettingDeprecationId);\n\n\t// Event to be broadcasted to public when setting deprecation is approved/rejected by the advocate of associatedThoughtId\n\tevent ApproveSettingDeprecation(uint256 indexed settingId, address associatedThoughtId, address associatedThoughtAdvocate, bool approved);\n\n\t// Event to be broadcasted to public when setting deprecation is finalized by the advocate of creatorThoughtId\n\tevent FinalizeSettingDeprecation(uint256 indexed settingId, address creatorThoughtId, address creatorThoughtAdvocate);\n\n\t/**\n\t * @dev Constructor function\n\t */\n\tconstructor(address _nameFactoryAddress,\n\t\taddress _aoSettingAttributeAddress,\n\t\taddress _aoUintSettingAddress,\n\t\taddress _aoBoolSettingAddress,\n\t\taddress _aoAddressSettingAddress,\n\t\taddress _aoBytesSettingAddress,\n\t\taddress _aoStringSettingAddress) public {\n\t\taoSettingAttributeAddress = _aoSettingAttributeAddress;\n\t\taoUintSettingAddress = _aoUintSettingAddress;\n\t\taoBoolSettingAddress = _aoBoolSettingAddress;\n\t\taoAddressSettingAddress = _aoAddressSettingAddress;\n\t\taoBytesSettingAddress = _aoBytesSettingAddress;\n\t\taoStringSettingAddress = _aoStringSettingAddress;\n\t\t_nameFactory = NameFactory(_nameFactoryAddress);\n\t\t_aoSettingAttribute = AOSettingAttribute(_aoSettingAttributeAddress);\n\t\t_aoUintSetting = AOUintSetting(_aoUintSettingAddress);\n\t\t_aoBoolSetting = AOBoolSetting(_aoBoolSettingAddress);\n\t\t_aoAddressSetting = AOAddressSetting(_aoAddressSettingAddress);\n\t\t_aoBytesSetting = AOBytesSetting(_aoBytesSettingAddress);\n\t\t_aoStringSetting = AOStringSetting(_aoStringSettingAddress);\n\t}\n\n\t/**\n\t * @dev Check if `_thoughtId` is a Thought\n\t */\n\tmodifier isThought(address _thoughtId) {\n\t\trequire (Thought(_thoughtId).originNameId() != address(0) && Thought(_thoughtId).thoughtTypeId() == 0);\n\t\t_;\n\t}\n\n\t/**\n\t * @dev Check if `_settingName` of `_associatedThoughtId` is taken\n\t */\n\tmodifier settingNameNotTaken(string _settingName, address _associatedThoughtId) {\n\t\trequire (settingNameExist(_settingName, _associatedThoughtId) == false);\n\t\t_;\n\t}\n\n\t/**\n\t * @dev Check if sender is the advocate of a Thought\n\t */\n\tmodifier isAdvocate(address _sender, address _thoughtId) {\n\t\trequire (_nameFactory.ethAddressToNameId(msg.sender) == Thought(_thoughtId).advocateId());\n\t\t_;\n\t}\n\n\t/***** Public Methods *****/\n\t/**\n\t * @dev Check whether or not a setting name of an associatedThoughtId exist\n\t * @param _settingName The human-readable name of the setting\n\t * @param _associatedThoughtId The thoughtId that the setting affects\n\t * @return true if yes. false otherwise\n\t */\n\tfunction settingNameExist(string _settingName, address _associatedThoughtId) public view returns (bool) {\n\t\treturn (nameSettingLookup[_associatedThoughtId][keccak256(abi.encodePacked(this, _settingName))] > 0);\n\t}\n\n\t/**\n\t * @dev Advocate of _creatorThoughtId adds a uint setting\n\t * @param _settingName The human-readable name of the setting\n\t * @param _value The uint256 value of the setting\n\t * @param _creatorThoughtId The thoughtId that created the setting\n\t * @param _associatedThoughtId The thoughtId that the setting affects\n\t * @param _extraData Catch-all string value to be stored if exist\n\t */\n\tfunction addUintSetting(string _settingName, uint256 _value, address _creatorThoughtId, address _associatedThoughtId, string _extraData) public isThought(_creatorThoughtId) isThought(_associatedThoughtId) settingNameNotTaken(_settingName, _associatedThoughtId) isAdvocate(msg.sender, _creatorThoughtId) {\n\t\t// Update global variables\n\t\ttotalSetting++;\n\n\t\t// Store the value as pending value\n\t\t_aoUintSetting.setPendingValue(totalSetting, _value);\n\n\t\t// Store setting creation data\n\t\t_storeSettingCreation(_nameFactory.ethAddressToNameId(msg.sender), 1, _settingName, _creatorThoughtId, _associatedThoughtId, _extraData);\n\t}\n\n\t/**\n\t * @dev Advocate of _creatorThoughtId adds a bool setting\n\t * @param _settingName The human-readable name of the setting\n\t * @param _value The bool value of the setting\n\t * @param _creatorThoughtId The thoughtId that created the setting\n\t * @param _associatedThoughtId The thoughtId that the setting affects\n\t * @param _extraData Catch-all string value to be stored if exist\n\t */\n\tfunction addBoolSetting(string _settingName, bool _value, address _creatorThoughtId, address _associatedThoughtId, string _extraData) public isThought(_creatorThoughtId) isThought(_associatedThoughtId) settingNameNotTaken(_settingName, _associatedThoughtId) isAdvocate(msg.sender, _creatorThoughtId) {\n\t\t// Update global variables\n\t\ttotalSetting++;\n\n\t\t// Store the value as pending value\n\t\t_aoBoolSetting.setPendingValue(totalSetting, _value);\n\n\t\t// Store setting creation data\n\t\t_storeSettingCreation(_nameFactory.ethAddressToNameId(msg.sender), 2, _settingName, _creatorThoughtId, _associatedThoughtId, _extraData);\n\t}\n\n\t/**\n\t * @dev Advocate of _creatorThoughtId adds an address setting\n\t * @param _settingName The human-readable name of the setting\n\t * @param _value The address value of the setting\n\t * @param _creatorThoughtId The thoughtId that created the setting\n\t * @param _associatedThoughtId The thoughtId that the setting affects\n\t * @param _extraData Catch-all string value to be stored if exist\n\t */\n\tfunction addAddressSetting(string _settingName, address _value, address _creatorThoughtId, address _associatedThoughtId, string _extraData) public isThought(_creatorThoughtId) isThought(_associatedThoughtId) settingNameNotTaken(_settingName, _associatedThoughtId) isAdvocate(msg.sender, _creatorThoughtId) {\n\t\t// Update global variables\n\t\ttotalSetting++;\n\n\t\t// Store the value as pending value\n\t\t_aoAddressSetting.setPendingValue(totalSetting, _value);\n\n\t\t// Store setting creation data\n\t\t_storeSettingCreation(_nameFactory.ethAddressToNameId(msg.sender), 3, _settingName, _creatorThoughtId, _associatedThoughtId, _extraData);\n\t}\n\n\t/**\n\t * @dev Advocate of _creatorThoughtId adds a bytes32 setting\n\t * @param _settingName The human-readable name of the setting\n\t * @param _value The bytes32 value of the setting\n\t * @param _creatorThoughtId The thoughtId that created the setting\n\t * @param _associatedThoughtId The thoughtId that the setting affects\n\t * @param _extraData Catch-all string value to be stored if exist\n\t */\n\tfunction addBytesSetting(string _settingName, bytes32 _value, address _creatorThoughtId, address _associatedThoughtId, string _extraData) public isThought(_creatorThoughtId) isThought(_associatedThoughtId) settingNameNotTaken(_settingName, _associatedThoughtId) isAdvocate(msg.sender, _creatorThoughtId) {\n\t\t// Update global variables\n\t\ttotalSetting++;\n\n\t\t// Store the value as pending value\n\t\t_aoBytesSetting.setPendingValue(totalSetting, _value);\n\n\t\t// Store setting creation data\n\t\t_storeSettingCreation(_nameFactory.ethAddressToNameId(msg.sender), 4, _settingName, _creatorThoughtId, _associatedThoughtId, _extraData);\n\t}\n\n\t/**\n\t * @dev Advocate of _creatorThoughtId adds a string setting\n\t * @param _settingName The human-readable name of the setting\n\t * @param _value The string value of the setting\n\t * @param _creatorThoughtId The thoughtId that created the setting\n\t * @param _associatedThoughtId The thoughtId that the setting affects\n\t * @param _extraData Catch-all string value to be stored if exist\n\t */\n\tfunction addStringSetting(string _settingName, string _value, address _creatorThoughtId, address _associatedThoughtId, string _extraData) public isThought(_creatorThoughtId) isThought(_associatedThoughtId) settingNameNotTaken(_settingName, _associatedThoughtId) isAdvocate(msg.sender, _creatorThoughtId) {\n\t\t// Update global variables\n\t\ttotalSetting++;\n\n\t\t// Store the value as pending value\n\t\t_aoStringSetting.setPendingValue(totalSetting, _value);\n\n\t\t// Store setting creation data\n\t\t_storeSettingCreation(_nameFactory.ethAddressToNameId(msg.sender), 5, _settingName, _creatorThoughtId, _associatedThoughtId, _extraData);\n\t}\n\n\t/**\n\t * @dev Advocate of Setting's _associatedThoughtId approves setting creation\n\t * @param _settingId The ID of the setting to approve\n\t * @param _approved Whether to approve or reject\n\t */\n\tfunction approveSettingCreation(uint256 _settingId, bool _approved) public {\n\t\taddress _associatedThoughtAdvocate = _nameFactory.ethAddressToNameId(msg.sender);\n\t\trequire (_aoSettingAttribute.approveAdd(_settingId, _associatedThoughtAdvocate, _approved));\n\n\t\t(,,,address _associatedThoughtId, string memory _settingName,,,,,) = _aoSettingAttribute.getSettingData(_settingId);\n\t\tif (!_approved) {\n\t\t\t// Clear the settingName from nameSettingLookup so it can be added again in the future\n\t\t\tdelete nameSettingLookup[_associatedThoughtId][keccak256(abi.encodePacked(this, _settingName))];\n\t\t}\n\t\temit ApproveSettingCreation(_settingId, _associatedThoughtId, _associatedThoughtAdvocate, _approved);\n\t}\n\n\t/**\n\t * @dev Advocate of Setting's _creatorThoughtId finalizes the setting creation once the setting is approved\n\t * @param _settingId The ID of the setting to be finalized\n\t */\n\tfunction finalizeSettingCreation(uint256 _settingId) public {\n\t\taddress _creatorThoughtAdvocate = _nameFactory.ethAddressToNameId(msg.sender);\n\t\trequire (_aoSettingAttribute.finalizeAdd(_settingId, _creatorThoughtAdvocate));\n\n\t\t(,,address _creatorThoughtId,,, uint8 _settingType,,,,) = _aoSettingAttribute.getSettingData(_settingId);\n\n\t\t_movePendingToSetting(_settingId, _settingType);\n\n\t\temit FinalizeSettingCreation(_settingId, _creatorThoughtId, _creatorThoughtAdvocate);\n\t}\n\n\t/**\n\t * @dev Advocate of Setting's _associatedThoughtId submits a uint256 setting update after an update has been proposed\n\t * @param _settingId The ID of the setting to be updated\n\t * @param _newValue The new uint256 value for this setting\n\t * @param _proposalThoughtId The child of the associatedThoughtId with the update Logos\n\t * @param _updateSignature A signature of the proposalThoughtId and update value by associatedThoughtId's advocate's name address\n\t * @param _extraData Catch-all string value to be stored if exist\n\t */\n\tfunction updateUintSetting(uint256 _settingId, uint256 _newValue, address _proposalThoughtId, string _updateSignature, string _extraData) public isThought(_proposalThoughtId) {\n\t\t// Store the setting state data\n\t\trequire (_aoSettingAttribute.update(_settingId, 1, _nameFactory.ethAddressToNameId(msg.sender), _proposalThoughtId, _updateSignature, _extraData));\n\n\t\t// Store the value as pending value\n\t\t_aoUintSetting.setPendingValue(_settingId, _newValue);\n\n\t\t// Store the update hash key lookup\n\t\tupdateHashLookup[keccak256(abi.encodePacked(this, _proposalThoughtId, _aoUintSetting.settingValue(_settingId), _newValue, _extraData, _settingId))] = _settingId;\n\n\t\temit SettingUpdate(_settingId, _nameFactory.ethAddressToNameId(msg.sender), _proposalThoughtId);\n\t}\n\n\t/**\n\t * @dev Advocate of Setting's _associatedThoughtId submits a bool setting update after an update has been proposed\n\t * @param _settingId The ID of the setting to be updated\n\t * @param _newValue The new bool value for this setting\n\t * @param _proposalThoughtId The child of the associatedThoughtId with the update Logos\n\t * @param _updateSignature A signature of the proposalThoughtId and update value by associatedThoughtId's advocate's name address\n\t * @param _extraData Catch-all string value to be stored if exist\n\t */\n\tfunction updateBoolSetting(uint256 _settingId, bool _newValue, address _proposalThoughtId, string _updateSignature, string _extraData) public isThought(_proposalThoughtId) {\n\t\t// Store the setting state data\n\t\trequire (_aoSettingAttribute.update(_settingId, 2, _nameFactory.ethAddressToNameId(msg.sender), _proposalThoughtId, _updateSignature, _extraData));\n\n\t\t// Store the value as pending value\n\t\t_aoBoolSetting.setPendingValue(_settingId, _newValue);\n\n\t\t// Store the update hash key lookup\n\t\tupdateHashLookup[keccak256(abi.encodePacked(this, _proposalThoughtId, _aoBoolSetting.settingValue(_settingId), _newValue, _extraData, _settingId))] = _settingId;\n\n\t\temit SettingUpdate(_settingId, _nameFactory.ethAddressToNameId(msg.sender), _proposalThoughtId);\n\t}\n\n\t/**\n\t * @dev Advocate of Setting's _associatedThoughtId submits an address setting update after an update has been proposed\n\t * @param _settingId The ID of the setting to be updated\n\t * @param _newValue The new address value for this setting\n\t * @param _proposalThoughtId The child of the associatedThoughtId with the update Logos\n\t * @param _updateSignature A signature of the proposalThoughtId and update value by associatedThoughtId's advocate's name address\n\t * @param _extraData Catch-all string value to be stored if exist\n\t */\n\tfunction updateAddressSetting(uint256 _settingId, address _newValue, address _proposalThoughtId, string _updateSignature, string _extraData) public isThought(_proposalThoughtId) {\n\t\t// Store the setting state data\n\t\trequire (_aoSettingAttribute.update(_settingId, 3, _nameFactory.ethAddressToNameId(msg.sender), _proposalThoughtId, _updateSignature, _extraData));\n\n\t\t// Store the value as pending value\n\t\t_aoAddressSetting.setPendingValue(_settingId, _newValue);\n\n\t\t// Store the update hash key lookup\n\t\tupdateHashLookup[keccak256(abi.encodePacked(this, _proposalThoughtId, _aoAddressSetting.settingValue(_settingId), _newValue, _extraData, _settingId))] = _settingId;\n\n\t\temit SettingUpdate(_settingId, _nameFactory.ethAddressToNameId(msg.sender), _proposalThoughtId);\n\t}\n\n\t/**\n\t * @dev Advocate of Setting's _associatedThoughtId submits a bytes32 setting update after an update has been proposed\n\t * @param _settingId The ID of the setting to be updated\n\t * @param _newValue The new bytes32 value for this setting\n\t * @param _proposalThoughtId The child of the associatedThoughtId with the update Logos\n\t * @param _updateSignature A signature of the proposalThoughtId and update value by associatedThoughtId's advocate's name address\n\t * @param _extraData Catch-all string value to be stored if exist\n\t */\n\tfunction updateBytesSetting(uint256 _settingId, bytes32 _newValue, address _proposalThoughtId, string _updateSignature, string _extraData) public isThought(_proposalThoughtId) {\n\t\t// Store the setting state data\n\t\trequire (_aoSettingAttribute.update(_settingId, 4, _nameFactory.ethAddressToNameId(msg.sender), _proposalThoughtId, _updateSignature, _extraData));\n\n\t\t// Store the value as pending value\n\t\t_aoBytesSetting.setPendingValue(_settingId, _newValue);\n\n\t\t// Store the update hash key lookup\n\t\tupdateHashLookup[keccak256(abi.encodePacked(this, _proposalThoughtId, _aoBytesSetting.settingValue(_settingId), _newValue, _extraData, _settingId))] = _settingId;\n\n\t\temit SettingUpdate(_settingId, _nameFactory.ethAddressToNameId(msg.sender), _proposalThoughtId);\n\t}\n\n\t/**\n\t * @dev Advocate of Setting's _associatedThoughtId submits a string setting update after an update has been proposed\n\t * @param _settingId The ID of the setting to be updated\n\t * @param _newValue The new string value for this setting\n\t * @param _proposalThoughtId The child of the associatedThoughtId with the update Logos\n\t * @param _updateSignature A signature of the proposalThoughtId and update value by associatedThoughtId's advocate's name address\n\t * @param _extraData Catch-all string value to be stored if exist\n\t */\n\tfunction updateStringSetting(uint256 _settingId, string _newValue, address _proposalThoughtId, string _updateSignature, string _extraData) public isThought(_proposalThoughtId) {\n\t\t// Store the setting state data\n\t\trequire (_aoSettingAttribute.update(_settingId, 5, _nameFactory.ethAddressToNameId(msg.sender), _proposalThoughtId, _updateSignature, _extraData));\n\n\t\t// Store the value as pending value\n\t\t_aoStringSetting.setPendingValue(_settingId, _newValue);\n\n\t\t// Store the update hash key lookup\n\t\tupdateHashLookup[keccak256(abi.encodePacked(this, _proposalThoughtId, _aoStringSetting.settingValue(_settingId), _newValue, _extraData, _settingId))] = _settingId;\n\n\t\temit SettingUpdate(_settingId, _nameFactory.ethAddressToNameId(msg.sender), _proposalThoughtId);\n\t}\n\n\t/**\n\t * @dev Advocate of Setting's proposalThoughtId approves the setting update\n\t * @param _settingId The ID of the setting to be approved\n\t * @param _approved Whether to approve or reject\n\t */\n\tfunction approveSettingUpdate(uint256 _settingId, bool _approved) public {\n\t\taddress _proposalThoughtAdvocate = _nameFactory.ethAddressToNameId(msg.sender);\n\t\t(,,, address _proposalThoughtId,,,) = _aoSettingAttribute.getSettingState(_settingId);\n\n\t\trequire (_aoSettingAttribute.approveUpdate(_settingId, _proposalThoughtAdvocate, _approved));\n\n\t\temit ApproveSettingUpdate(_settingId, _proposalThoughtId, _proposalThoughtAdvocate, _approved);\n\t}\n\n\t/**\n\t * @dev Advocate of Setting's _associatedThoughtId finalizes the setting update once the setting is approved\n\t * @param _settingId The ID of the setting to be finalized\n\t */\n\tfunction finalizeSettingUpdate(uint256 _settingId) public {\n\t\taddress _associatedThoughtAdvocate = _nameFactory.ethAddressToNameId(msg.sender);\n\t\trequire (_aoSettingAttribute.finalizeUpdate(_settingId, _associatedThoughtAdvocate));\n\n\t\t(,,, address _associatedThoughtId,, uint8 _settingType,,,,) = _aoSettingAttribute.getSettingData(_settingId);\n\n\t\t_movePendingToSetting(_settingId, _settingType);\n\n\t\temit FinalizeSettingUpdate(_settingId, _associatedThoughtId, _associatedThoughtAdvocate);\n\t}\n\n\t/**\n\t * @dev Advocate of _creatorThoughtId adds a setting deprecation\n\t * @param _settingId The ID of the setting to be deprecated\n\t * @param _newSettingId The new setting ID to route\n\t * @param _newSettingContractAddress The new setting contract address to route\n\t * @param _creatorThoughtId The thoughtId that created the setting\n\t * @param _associatedThoughtId The thoughtId that the setting affects\n\t */\n\tfunction addSettingDeprecation(uint256 _settingId, uint256 _newSettingId, address _newSettingContractAddress, address _creatorThoughtId, address _associatedThoughtId) public isThought(_creatorThoughtId) isThought(_associatedThoughtId) isAdvocate(msg.sender, _creatorThoughtId) {\n\t\t(bytes32 _associatedThoughtSettingDeprecationId, bytes32 _creatorThoughtSettingDeprecationId) = _aoSettingAttribute.addDeprecation(_settingId, _nameFactory.ethAddressToNameId(msg.sender), _creatorThoughtId, _associatedThoughtId, _newSettingId, _newSettingContractAddress);\n\n\t\temit SettingDeprecation(_settingId, _nameFactory.ethAddressToNameId(msg.sender), _creatorThoughtId, _associatedThoughtId, _newSettingId, _newSettingContractAddress, _associatedThoughtSettingDeprecationId, _creatorThoughtSettingDeprecationId);\n\t}\n\n\t/**\n\t * @dev Advocate of SettingDeprecation's _associatedThoughtId approves setting deprecation\n\t * @param _settingId The ID of the setting to approve\n\t * @param _approved Whether to approve or reject\n\t */\n\tfunction approveSettingDeprecation(uint256 _settingId, bool _approved) public {\n\t\taddress _associatedThoughtAdvocate = _nameFactory.ethAddressToNameId(msg.sender);\n\t\trequire (_aoSettingAttribute.approveDeprecation(_settingId, _associatedThoughtAdvocate, _approved));\n\n\t\t(,,, address _associatedThoughtId,,,,,,,,) = _aoSettingAttribute.getSettingDeprecation(_settingId);\n\t\temit ApproveSettingDeprecation(_settingId, _associatedThoughtId, _associatedThoughtAdvocate, _approved);\n\t}\n\n\t/**\n\t * @dev Advocate of SettingDeprecation's _creatorThoughtId finalizes the setting deprecation once the setting deprecation is approved\n\t * @param _settingId The ID of the setting to be finalized\n\t */\n\tfunction finalizeSettingDeprecation(uint256 _settingId) public {\n\t\taddress _creatorThoughtAdvocate = _nameFactory.ethAddressToNameId(msg.sender);\n\t\trequire (_aoSettingAttribute.finalizeDeprecation(_settingId, _creatorThoughtAdvocate));\n\n\t\t(,, address _creatorThoughtId,,,,,,,,,) = _aoSettingAttribute.getSettingDeprecation(_settingId);\n\t\temit FinalizeSettingDeprecation(_settingId, _creatorThoughtId, _creatorThoughtAdvocate);\n\t}\n\n\t/**\n\t * @dev Get setting Id given an associatedThoughtId and settingName\n\t * @param _associatedThoughtId The ID of the AssociatedThought\n\t * @param _settingName The name of the setting\n\t * @return the ID of the setting\n\t */\n\tfunction getSettingIdByThoughtName(address _associatedThoughtId, string _settingName) public view returns (uint256) {\n\t\trequire (settingNameExist(_settingName, _associatedThoughtId));\n\t\treturn nameSettingLookup[_associatedThoughtId][keccak256(abi.encodePacked(this, _settingName))];\n\t}\n\n\t/**\n\t * @dev Get setting values by setting ID.\n\t *\t\tWill throw error if the setting is not exist or rejected.\n\t * @param _settingId The ID of the setting\n\t * @return the uint256 value of this setting ID\n\t * @return the bool value of this setting ID\n\t * @return the address value of this setting ID\n\t * @return the bytes32 value of this setting ID\n\t * @return the string value of this setting ID\n\t */\n\tfunction getSettingValuesById(uint256 _settingId) public view returns (uint256, bool, address, bytes32, string) {\n\t\treturn AOLibrary.getSettingValuesById(aoSettingAttributeAddress, aoUintSettingAddress, aoBoolSettingAddress, aoAddressSettingAddress, aoBytesSettingAddress, aoStringSettingAddress, _settingId);\n\t}\n\n\t/**\n\t * @dev Get setting values by thoughtId and settingName.\n\t *\t\tWill throw error if the setting is not exist or rejected.\n\t * @param _thoughtId The ID of the Thought\n\t * @param _settingName The name of the setting\n\t * @return the uint256 value of this setting ID\n\t * @return the bool value of this setting ID\n\t * @return the address value of this setting ID\n\t * @return the bytes32 value of this setting ID\n\t * @return the string value of this setting ID\n\t */\n\tfunction getSettingValuesByThoughtName(address _thoughtId, string _settingName) public view returns (uint256, bool, address, bytes32, string) {\n\t\treturn AOLibrary.getSettingValuesById(aoSettingAttributeAddress, aoUintSettingAddress, aoBoolSettingAddress, aoAddressSettingAddress, aoBytesSettingAddress, aoStringSettingAddress, getSettingIdByThoughtName(_thoughtId, _settingName));\n\t}\n\n\t/***** Internal Method *****/\n\t/**\n\t * @dev Store setting creation data\n\t * @param _creatorNameId The nameId that created the setting\n\t * @param _settingType The type of this setting. 1 => uint256, 2 => bool, 3 => address, 4 => bytes32, 5 => string\n\t * @param _settingName The human-readable name of the setting\n\t * @param _creatorThoughtId The thoughtId that created the setting\n\t * @param _associatedThoughtId The thoughtId that the setting affects\n\t * @param _extraData Catch-all string value to be stored if exist\n\t */\n\tfunction _storeSettingCreation(address _creatorNameId, uint8 _settingType, string _settingName, address _creatorThoughtId, address _associatedThoughtId, string _extraData) internal {\n\t\t// Make sure _settingType is in supported list\n\t\trequire (_settingType >= 1 && _settingType <= 5);\n\n\t\t// Store nameSettingLookup\n\t\tnameSettingLookup[_associatedThoughtId][keccak256(abi.encodePacked(this, _settingName))] = totalSetting;\n\n\t\t// Store setting data/state\n\t\t(bytes32 _associatedThoughtSettingId, bytes32 _creatorThoughtSettingId) = _aoSettingAttribute.add(totalSetting, _creatorNameId, _settingType, _settingName, _creatorThoughtId, _associatedThoughtId, _extraData);\n\n\t\temit SettingCreation(totalSetting, _creatorNameId, _creatorThoughtId, _associatedThoughtId, _settingName, _settingType, _associatedThoughtSettingId, _creatorThoughtSettingId);\n\t}\n\n\t/**\n\t * @dev Move value of _settingId from pending variable to setting variable\n\t * @param _settingId The ID of the setting\n\t * @param _settingType The type of the setting\n\t */\n\tfunction _movePendingToSetting(uint256 _settingId, uint8 _settingType) internal {\n\t\t// If settingType == uint256\n\t\tif (_settingType == 1) {\n\t\t\t_aoUintSetting.movePendingToSetting(_settingId);\n\t\t} else if (_settingType == 2) {\n\t\t\t// Else if settingType == bool\n\t\t\t_aoBoolSetting.movePendingToSetting(_settingId);\n\t\t} else if (_settingType == 3) {\n\t\t\t// Else if settingType == address\n\t\t\t_aoAddressSetting.movePendingToSetting(_settingId);\n\t\t} else if (_settingType == 4) {\n\t\t\t// Else if settingType == bytes32\n\t\t\t_aoBytesSetting.movePendingToSetting(_settingId);\n\t\t} else {\n\t\t\t// Else if settingType == string\n\t\t\t_aoStringSetting.movePendingToSetting(_settingId);\n\t\t}\n\t}\n}\n",
	"sourcePath": "/home/jmulyono/ao-contracts/contracts/AOSetting.sol",
	"compiler": {
		"name": "solc",
		"version": "0.4.24+commit.e67f0147.Emscripten.clang"
	},
	"schemaVersion": "2.0.1",
	"updatedAt": "2018-12-11T08:43:54.515Z"
}