{
  "contractName": "AOSettingUpdate",
  "abi": [
    {
      "constant": true,
      "inputs": [
        {
          "name": "",
          "type": "bytes32"
        }
      ],
      "name": "updateHashLookup",
      "outputs": [
        {
          "name": "",
          "type": "uint256"
        }
      ],
      "payable": false,
      "stateMutability": "view",
      "type": "function"
    },
    {
      "constant": true,
      "inputs": [
        {
          "name": "",
          "type": "uint256"
        }
      ],
      "name": "updateSignatures",
      "outputs": [
        {
          "name": "signatureV",
          "type": "uint8"
        },
        {
          "name": "signatureR",
          "type": "bytes32"
        },
        {
          "name": "signatureS",
          "type": "bytes32"
        }
      ],
      "payable": false,
      "stateMutability": "view",
      "type": "function"
    },
    {
      "constant": true,
      "inputs": [],
      "name": "aoSettingAddress",
      "outputs": [
        {
          "name": "",
          "type": "address"
        }
      ],
      "payable": false,
      "stateMutability": "view",
      "type": "function"
    },
    {
      "constant": true,
      "inputs": [],
      "name": "nameTAOPositionAddress",
      "outputs": [
        {
          "name": "",
          "type": "address"
        }
      ],
      "payable": false,
      "stateMutability": "view",
      "type": "function"
    },
    {
      "constant": true,
      "inputs": [
        {
          "name": "",
          "type": "address"
        }
      ],
      "name": "whitelist",
      "outputs": [
        {
          "name": "",
          "type": "bool"
        }
      ],
      "payable": false,
      "stateMutability": "view",
      "type": "function"
    },
    {
      "constant": true,
      "inputs": [],
      "name": "nameAccountRecoveryAddress",
      "outputs": [
        {
          "name": "",
          "type": "address"
        }
      ],
      "payable": false,
      "stateMutability": "view",
      "type": "function"
    },
    {
      "constant": true,
      "inputs": [],
      "name": "theAO",
      "outputs": [
        {
          "name": "",
          "type": "address"
        }
      ],
      "payable": false,
      "stateMutability": "view",
      "type": "function"
    },
    {
      "constant": true,
      "inputs": [],
      "name": "nameFactoryAddress",
      "outputs": [
        {
          "name": "",
          "type": "address"
        }
      ],
      "payable": false,
      "stateMutability": "view",
      "type": "function"
    },
    {
      "constant": true,
      "inputs": [],
      "name": "aoSettingAttributeAddress",
      "outputs": [
        {
          "name": "",
          "type": "address"
        }
      ],
      "payable": false,
      "stateMutability": "view",
      "type": "function"
    },
    {
      "constant": true,
      "inputs": [],
      "name": "aoSettingValueAddress",
      "outputs": [
        {
          "name": "",
          "type": "address"
        }
      ],
      "payable": false,
      "stateMutability": "view",
      "type": "function"
    },
    {
      "inputs": [
        {
          "name": "_nameFactoryAddress",
          "type": "address"
        },
        {
          "name": "_nameTAOPositionAddress",
          "type": "address"
        },
        {
          "name": "_nameAccountRecoveryAddress",
          "type": "address"
        },
        {
          "name": "_aoSettingAttributeAddress",
          "type": "address"
        },
        {
          "name": "_aoSettingValueAddress",
          "type": "address"
        },
        {
          "name": "_aoSettingAddress",
          "type": "address"
        }
      ],
      "payable": false,
      "stateMutability": "nonpayable",
      "type": "constructor"
    },
    {
      "anonymous": false,
      "inputs": [
        {
          "indexed": true,
          "name": "settingId",
          "type": "uint256"
        },
        {
          "indexed": true,
          "name": "updateAdvocateNameId",
          "type": "address"
        },
        {
          "indexed": false,
          "name": "proposalTAOId",
          "type": "address"
        }
      ],
      "name": "SettingUpdate",
      "type": "event"
    },
    {
      "anonymous": false,
      "inputs": [
        {
          "indexed": true,
          "name": "settingId",
          "type": "uint256"
        },
        {
          "indexed": false,
          "name": "proposalTAOId",
          "type": "address"
        },
        {
          "indexed": false,
          "name": "proposalTAOAdvocate",
          "type": "address"
        },
        {
          "indexed": false,
          "name": "approved",
          "type": "bool"
        }
      ],
      "name": "ApproveSettingUpdate",
      "type": "event"
    },
    {
      "anonymous": false,
      "inputs": [
        {
          "indexed": true,
          "name": "settingId",
          "type": "uint256"
        },
        {
          "indexed": false,
          "name": "associatedTAOId",
          "type": "address"
        },
        {
          "indexed": false,
          "name": "associatedTAOAdvocate",
          "type": "address"
        }
      ],
      "name": "FinalizeSettingUpdate",
      "type": "event"
    },
    {
      "constant": false,
      "inputs": [
        {
          "name": "_theAO",
          "type": "address"
        }
      ],
      "name": "transferOwnership",
      "outputs": [],
      "payable": false,
      "stateMutability": "nonpayable",
      "type": "function"
    },
    {
      "constant": false,
      "inputs": [
        {
          "name": "_account",
          "type": "address"
        },
        {
          "name": "_whitelist",
          "type": "bool"
        }
      ],
      "name": "setWhitelist",
      "outputs": [],
      "payable": false,
      "stateMutability": "nonpayable",
      "type": "function"
    },
    {
      "constant": false,
      "inputs": [
        {
          "name": "_nameFactoryAddress",
          "type": "address"
        }
      ],
      "name": "setNameFactoryAddress",
      "outputs": [],
      "payable": false,
      "stateMutability": "nonpayable",
      "type": "function"
    },
    {
      "constant": false,
      "inputs": [
        {
          "name": "_nameTAOPositionAddress",
          "type": "address"
        }
      ],
      "name": "setNameTAOPositionAddress",
      "outputs": [],
      "payable": false,
      "stateMutability": "nonpayable",
      "type": "function"
    },
    {
      "constant": false,
      "inputs": [
        {
          "name": "_nameAccountRecoveryAddress",
          "type": "address"
        }
      ],
      "name": "setNameAccountRecoveryAddress",
      "outputs": [],
      "payable": false,
      "stateMutability": "nonpayable",
      "type": "function"
    },
    {
      "constant": false,
      "inputs": [
        {
          "name": "_aoSettingAttributeAddress",
          "type": "address"
        }
      ],
      "name": "setAOSettingAttributeAddress",
      "outputs": [],
      "payable": false,
      "stateMutability": "nonpayable",
      "type": "function"
    },
    {
      "constant": false,
      "inputs": [
        {
          "name": "_aoSettingValueAddress",
          "type": "address"
        }
      ],
      "name": "setAOSettingValueAddress",
      "outputs": [],
      "payable": false,
      "stateMutability": "nonpayable",
      "type": "function"
    },
    {
      "constant": false,
      "inputs": [
        {
          "name": "_aoSettingAddress",
          "type": "address"
        }
      ],
      "name": "setAOSettingAddress",
      "outputs": [],
      "payable": false,
      "stateMutability": "nonpayable",
      "type": "function"
    },
    {
      "constant": false,
      "inputs": [
        {
          "name": "_settingId",
          "type": "uint256"
        },
        {
          "name": "_newValue",
          "type": "address"
        },
        {
          "name": "_proposalTAOId",
          "type": "address"
        },
        {
          "name": "_signatureV",
          "type": "uint8"
        },
        {
          "name": "_signatureR",
          "type": "bytes32"
        },
        {
          "name": "_signatureS",
          "type": "bytes32"
        },
        {
          "name": "_extraData",
          "type": "string"
        }
      ],
      "name": "updateAddressSetting",
      "outputs": [],
      "payable": false,
      "stateMutability": "nonpayable",
      "type": "function"
    },
    {
      "constant": false,
      "inputs": [
        {
          "name": "_settingId",
          "type": "uint256"
        },
        {
          "name": "_newValue",
          "type": "bool"
        },
        {
          "name": "_proposalTAOId",
          "type": "address"
        },
        {
          "name": "_signatureV",
          "type": "uint8"
        },
        {
          "name": "_signatureR",
          "type": "bytes32"
        },
        {
          "name": "_signatureS",
          "type": "bytes32"
        },
        {
          "name": "_extraData",
          "type": "string"
        }
      ],
      "name": "updateBoolSetting",
      "outputs": [],
      "payable": false,
      "stateMutability": "nonpayable",
      "type": "function"
    },
    {
      "constant": false,
      "inputs": [
        {
          "name": "_settingId",
          "type": "uint256"
        },
        {
          "name": "_newValue",
          "type": "bytes32"
        },
        {
          "name": "_proposalTAOId",
          "type": "address"
        },
        {
          "name": "_signatureV",
          "type": "uint8"
        },
        {
          "name": "_signatureR",
          "type": "bytes32"
        },
        {
          "name": "_signatureS",
          "type": "bytes32"
        },
        {
          "name": "_extraData",
          "type": "string"
        }
      ],
      "name": "updateBytesSetting",
      "outputs": [],
      "payable": false,
      "stateMutability": "nonpayable",
      "type": "function"
    },
    {
      "constant": false,
      "inputs": [
        {
          "name": "_settingId",
          "type": "uint256"
        },
        {
          "name": "_newValue",
          "type": "string"
        },
        {
          "name": "_proposalTAOId",
          "type": "address"
        },
        {
          "name": "_signatureV",
          "type": "uint8"
        },
        {
          "name": "_signatureR",
          "type": "bytes32"
        },
        {
          "name": "_signatureS",
          "type": "bytes32"
        },
        {
          "name": "_extraData",
          "type": "string"
        }
      ],
      "name": "updateStringSetting",
      "outputs": [],
      "payable": false,
      "stateMutability": "nonpayable",
      "type": "function"
    },
    {
      "constant": false,
      "inputs": [
        {
          "name": "_settingId",
          "type": "uint256"
        },
        {
          "name": "_newValue",
          "type": "uint256"
        },
        {
          "name": "_proposalTAOId",
          "type": "address"
        },
        {
          "name": "_signatureV",
          "type": "uint8"
        },
        {
          "name": "_signatureR",
          "type": "bytes32"
        },
        {
          "name": "_signatureS",
          "type": "bytes32"
        },
        {
          "name": "_extraData",
          "type": "string"
        }
      ],
      "name": "updateUintSetting",
      "outputs": [],
      "payable": false,
      "stateMutability": "nonpayable",
      "type": "function"
    },
    {
      "constant": false,
      "inputs": [
        {
          "name": "_settingId",
          "type": "uint256"
        },
        {
          "name": "_approved",
          "type": "bool"
        }
      ],
      "name": "approveSettingUpdate",
      "outputs": [],
      "payable": false,
      "stateMutability": "nonpayable",
      "type": "function"
    },
    {
      "constant": false,
      "inputs": [
        {
          "name": "_settingId",
          "type": "uint256"
        }
      ],
      "name": "finalizeSettingUpdate",
      "outputs": [],
      "payable": false,
      "stateMutability": "nonpayable",
      "type": "function"
    },
    {
      "constant": false,
      "inputs": [
        {
          "name": "_settingId",
          "type": "uint256"
        },
        {
          "name": "_newValue",
          "type": "uint256"
        },
        {
          "name": "_proposalTAOId",
          "type": "address"
        },
        {
          "name": "_v",
          "type": "uint8"
        },
        {
          "name": "_r",
          "type": "bytes32"
        },
        {
          "name": "_s",
          "type": "bytes32"
        }
      ],
      "name": "_verifyAndStoreUpdateUintSignature",
      "outputs": [
        {
          "name": "",
          "type": "bool"
        }
      ],
      "payable": false,
      "stateMutability": "nonpayable",
      "type": "function"
    }
  ],
  "bytecode": "0x60806040523480156200001157600080fd5b5060405160c08062004c64833981018060405260c08110156200003357600080fd5b50805160208083015160408401516060850151608086015160a090960151600080546001600160a01b03191633179055949592949193909291906200007e908790620000df811b901c565b6200008f85620001e060201b60201c565b620000a084620002e160201b60201c565b620000b183620003e560201b60201c565b620000c282620004e660201b60201c565b620000d381620005e760201b60201c565b505050505050620006e8565b600054600154604080517ff66afcac0000000000000000000000000000000000000000000000000000000081523360048201526001600160a01b0393841660248201529290911660448301525173__AOLibrary_____________________________9163f66afcac916064808301926020929190829003018186803b1580156200016857600080fd5b505af41580156200017d573d6000803e3d6000fd5b505050506040513d60208110156200019457600080fd5b5051620001a057600080fd5b6001600160a01b038116620001b457600080fd5b600380546001600160a01b039092166001600160a01b0319928316811790915560088054909216179055565b600054600154604080517ff66afcac0000000000000000000000000000000000000000000000000000000081523360048201526001600160a01b0393841660248201529290911660448301525173__AOLibrary_____________________________9163f66afcac916064808301926020929190829003018186803b1580156200026957600080fd5b505af41580156200027e573d6000803e3d6000fd5b505050506040513d60208110156200029557600080fd5b5051620002a157600080fd5b6001600160a01b038116620002b557600080fd5b600180546001600160a01b039092166001600160a01b0319928316811790915560098054909216179055565b600054600154604080517ff66afcac0000000000000000000000000000000000000000000000000000000081523360048201526001600160a01b0393841660248201529290911660448301525173__AOLibrary_____________________________9163f66afcac916064808301926020929190829003018186803b1580156200036a57600080fd5b505af41580156200037f573d6000803e3d6000fd5b505050506040513d60208110156200039657600080fd5b5051620003a257600080fd5b6001600160a01b038116620003b657600080fd5b600480546001600160a01b03199081166001600160a01b039384161791829055600a8054929093169116179055565b600054600154604080517ff66afcac0000000000000000000000000000000000000000000000000000000081523360048201526001600160a01b0393841660248201529290911660448301525173__AOLibrary_____________________________9163f66afcac916064808301926020929190829003018186803b1580156200046e57600080fd5b505af415801562000483573d6000803e3d6000fd5b505050506040513d60208110156200049a57600080fd5b5051620004a657600080fd5b6001600160a01b038116620004ba57600080fd5b600580546001600160a01b039092166001600160a01b03199283168117909155600b8054909216179055565b600054600154604080517ff66afcac0000000000000000000000000000000000000000000000000000000081523360048201526001600160a01b0393841660248201529290911660448301525173__AOLibrary_____________________________9163f66afcac916064808301926020929190829003018186803b1580156200056f57600080fd5b505af415801562000584573d6000803e3d6000fd5b505050506040513d60208110156200059b57600080fd5b5051620005a757600080fd5b6001600160a01b038116620005bb57600080fd5b600680546001600160a01b039092166001600160a01b03199283168117909155600c8054909216179055565b600054600154604080517ff66afcac0000000000000000000000000000000000000000000000000000000081523360048201526001600160a01b0393841660248201529290911660448301525173__AOLibrary_____________________________9163f66afcac916064808301926020929190829003018186803b1580156200067057600080fd5b505af415801562000685573d6000803e3d6000fd5b505050506040513d60208110156200069c57600080fd5b5051620006a857600080fd5b6001600160a01b038116620006bc57600080fd5b600780546001600160a01b039092166001600160a01b03199283168117909155600d8054909216179055565b61456c80620006f86000396000f3fe608060405234801561001057600080fd5b506004361061018e5760003560e01c80638c924361116100de578063a4e5fad211610097578063cf8477cf11610071578063cf8477cf146107ee578063dc4c5d56146107f6578063ec18d8ce146107fe578063f2fde38b146108d65761018e565b8063a4e5fad2146107d6578063a9b6b38e146107de578063bc406206146107e65761018e565b80638c924361146104ea57806394bdae77146105105780639a44690e1461056b5780639b19251a146105885780639d7dd7de146105ae578063a125f763146107025761018e565b80631dfde2bd1161014b5780634ef033f0116101255780634ef033f01461046857806353d6fd59146104705780635cfaf2ef1461049e57806372eca635146104c45761018e565b80631dfde2bd146103f75780631f1241161461041d5780633f056cb4146104425761018e565b806306fd70881461019357806309fac510146101bb57806311a137b2146102915780631b2dbff6146103655780631c89d9ae146103945780631d0138ff146103d3575b600080fd5b6101b9600480360360208110156101a957600080fd5b50356001600160a01b03166108fc565b005b6101b9600480360360e08110156101d157600080fd5b81359160208101351515916001600160a01b036040830135169160ff6060820135169160808201359160a08101359181019060e0810160c0820135600160201b81111561021d57600080fd5b82018360208201111561022f57600080fd5b803590602001918460018302840111600160201b8311171561025057600080fd5b91908080601f0160208091040260200160405190810160405280939291908181526020018383808284376000920191909152509295506109e2945050505050565b6101b9600480360360e08110156102a757600080fd5b8135916020810135916001600160a01b036040830135169160ff6060820135169160808201359160a08101359181019060e0810160c0820135600160201b8111156102f157600080fd5b82018360208201111561030357600080fd5b803590602001918460018302840111600160201b8311171561032457600080fd5b91908080601f01602080910402602001604051908101604052809392919081815260200183838082843760009201919091525092955061101b945050505050565b6103826004803603602081101561037b57600080fd5b5035611591565b60408051918252519081900360200190f35b6103b1600480360360208110156103aa57600080fd5b50356115a3565b6040805160ff9094168452602084019290925282820152519081900360600190f35b6103db6115c8565b604080516001600160a01b039092168252519081900360200190f35b6101b96004803603602081101561040d57600080fd5b50356001600160a01b03166115d7565b6101b96004803603604081101561043357600080fd5b508035906020013515156116c0565b6101b96004803603602081101561045857600080fd5b50356001600160a01b0316611b5a565b6103db611c40565b6101b96004803603604081101561048657600080fd5b506001600160a01b0381351690602001351515611c4f565b6101b9600480360360208110156104b457600080fd5b50356001600160a01b0316611d34565b6101b9600480360360208110156104da57600080fd5b50356001600160a01b0316611e1a565b6101b96004803603602081101561050057600080fd5b50356001600160a01b0316611f00565b610557600480360360c081101561052657600080fd5b508035906020810135906001600160a01b036040820135169060ff6060820135169060808101359060a00135611fe6565b604080519115158252519081900360200190f35b6101b96004803603602081101561058157600080fd5b5035612161565b6105576004803603602081101561059e57600080fd5b50356001600160a01b03166126af565b6101b9600480360360e08110156105c457600080fd5b81359190810190604081016020820135600160201b8111156105e557600080fd5b8201836020820111156105f757600080fd5b803590602001918460018302840111600160201b8311171561061857600080fd5b91908080601f01602080910402602001604051908101604052809392919081815260200183838082843760009201919091525092956001600160a01b038535169560ff6020870135169560408101359550606081013594509192509060a081019060800135600160201b81111561068e57600080fd5b8201836020820111156106a057600080fd5b803590602001918460018302840111600160201b831117156106c157600080fd5b91908080601f0160208091040260200160405190810160405280939291908181526020018383808284376000920191909152509295506126c4945050505050565b6101b9600480360360e081101561071857600080fd5b8135916020810135916001600160a01b036040830135169160ff6060820135169160808201359160a08101359181019060e0810160c0820135600160201b81111561076257600080fd5b82018360208201111561077457600080fd5b803590602001918460018302840111600160201b8311171561079557600080fd5b91908080601f016020809104026020016040519081016040528093929190818152602001838380828437600092019190915250929550612cb3945050505050565b6103db613222565b6103db613231565b6103db613240565b6103db61324f565b6103db61325e565b6101b9600480360360e081101561081457600080fd5b8135916001600160a01b03602082013581169260408301359091169160ff6060820135169160808201359160a08101359181019060e0810160c0820135600160201b81111561086257600080fd5b82018360208201111561087457600080fd5b803590602001918460018302840111600160201b8311171561089557600080fd5b91908080601f01602080910402602001604051908101604052809392919081815260200183838082843760009201919091525092955061326d945050505050565b6101b9600480360360208110156108ec57600080fd5b50356001600160a01b03166137d9565b60005460015460408051600160e21b633d9abf2b0281523360048201526001600160a01b0393841660248201529290911660448301525173__AOLibrary_____________________________9163f66afcac916064808301926020929190829003018186803b15801561096e57600080fd5b505af4158015610982573d6000803e3d6000fd5b505050506040513d602081101561099857600080fd5b50516109a357600080fd5b6001600160a01b0381166109b657600080fd5b600780546001600160a01b039092166001600160a01b03199283168117909155600d8054909216179055565b8473__AOLibrary_____________________________632fca5414826040518263ffffffff1660e01b815260040180826001600160a01b03166001600160a01b0316815260200191505060206040518083038186803b158015610a4457600080fd5b505af4158015610a58573d6000803e3d6000fd5b505050506040513d6020811015610a6e57600080fd5b50518015610afd575060085460408051600160e01b63029b7d5302815233600482015290516000926001600160a01b03169163029b7d53916024808301926020929190829003018186803b158015610ac557600080fd5b505afa158015610ad9573d6000803e3d6000fd5b505050506040513d6020811015610aef57600080fd5b50516001600160a01b031614155b8015610bf65750600a5460085460408051600160e01b63029b7d5302815233600482015290516001600160a01b0393841693633ebc2ab393169163029b7d53916024808301926020929190829003018186803b158015610b5c57600080fd5b505afa158015610b70573d6000803e3d6000fd5b505050506040513d6020811015610b8657600080fd5b50516040805163ffffffff841660e01b81526001600160a01b039092166004830152516024808301926020929190829003018186803b158015610bc857600080fd5b505afa158015610bdc573d6000803e3d6000fd5b505050506040513d6020811015610bf257600080fd5b5051155b610bff57600080fd5b876000600d60009054906101000a90046001600160a01b03166001600160a01b03166379d0c71e6040518163ffffffff1660e01b815260040160a06040518083038186803b158015610c5057600080fd5b505afa158015610c64573d6000803e3d6000fd5b505050506040513d60a0811015610c7a57600080fd5b50602090810151600d5460408051600160e01b63a62eeead02815260048101879052905192945060ff8516936001600160a01b039092169263a62eeead92602480840193919291829003018186803b158015610cd557600080fd5b505afa158015610ce9573d6000803e3d6000fd5b505050506040513d6020811015610cff57600080fd5b505160ff1614610d0e57600080fd5b610d1c8a8a8a8a8a8a6138b5565b610d2557600080fd5b600b5460085460408051600160e01b63029b7d5302815233600482015290516001600160a01b039384169363c555ca1e938f9391169163029b7d5391602480820192602092909190829003018186803b158015610d8157600080fd5b505afa158015610d95573d6000803e3d6000fd5b505050506040513d6020811015610dab57600080fd5b505160405163ffffffff841660e01b8152600481018381526001600160a01b0380841660248401528e1660448301526080606483019081528a5160848401528a518f938c93929160a490910190602085019080838360005b83811015610e1b578181015183820152602001610e03565b50505050905090810190601f168015610e485780820380516001836020036101000a031916815260200191505b5095505050505050602060405180830381600087803b158015610e6a57600080fd5b505af1158015610e7e573d6000803e3d6000fd5b505050506040513d6020811015610e9457600080fd5b5051610e9f57600080fd5b600c5460408051600160e01b63ccdd6afd028152600481018d90526000602482018190528c1515604483015260a4820181905260c0608483015260c4820181905291516001600160a01b039093169263ccdd6afd9261010480840193602093929083900390910190829087803b158015610f1857600080fd5b505af1158015610f2c573d6000803e3d6000fd5b505050506040513d6020811015610f4257600080fd5b50610f5190508a8a8a876139f4565b60085460408051600160e01b63029b7d5302815233600482015290516001600160a01b039092169163029b7d5391602480820192602092909190829003018186803b158015610f9f57600080fd5b505afa158015610fb3573d6000803e3d6000fd5b505050506040513d6020811015610fc957600080fd5b5051604080516001600160a01b038b81168252915191909216918c917f6b669130d0b3ac9bed9420e1b2bfc22364661b81330a9aa01a1deddf3512d2e09181900360200190a350505050505050505050565b8473__AOLibrary_____________________________632fca5414826040518263ffffffff1660e01b815260040180826001600160a01b03166001600160a01b0316815260200191505060206040518083038186803b15801561107d57600080fd5b505af4158015611091573d6000803e3d6000fd5b505050506040513d60208110156110a757600080fd5b50518015611136575060085460408051600160e01b63029b7d5302815233600482015290516000926001600160a01b03169163029b7d53916024808301926020929190829003018186803b1580156110fe57600080fd5b505afa158015611112573d6000803e3d6000fd5b505050506040513d602081101561112857600080fd5b50516001600160a01b031614155b801561122f5750600a5460085460408051600160e01b63029b7d5302815233600482015290516001600160a01b0393841693633ebc2ab393169163029b7d53916024808301926020929190829003018186803b15801561119557600080fd5b505afa1580156111a9573d6000803e3d6000fd5b505050506040513d60208110156111bf57600080fd5b50516040805163ffffffff841660e01b81526001600160a01b039092166004830152516024808301926020929190829003018186803b15801561120157600080fd5b505afa158015611215573d6000803e3d6000fd5b505050506040513d602081101561122b57600080fd5b5051155b61123857600080fd5b876000600d60009054906101000a90046001600160a01b03166001600160a01b03166379d0c71e6040518163ffffffff1660e01b815260040160a06040518083038186803b15801561128957600080fd5b505afa15801561129d573d6000803e3d6000fd5b505050506040513d60a08110156112b357600080fd5b50604090810151600d548251600160e01b63a62eeead02815260048101869052925191935060ff8416926001600160a01b039091169163a62eeead91602480820192602092909190829003018186803b15801561130f57600080fd5b505afa158015611323573d6000803e3d6000fd5b505050506040513d602081101561133957600080fd5b505160ff161461134857600080fd5b6113568a8a8a8a8a8a611fe6565b61135f57600080fd5b600b5460085460408051600160e01b63029b7d5302815233600482015290516001600160a01b039384169363c555ca1e938f9391169163029b7d5391602480820192602092909190829003018186803b1580156113bb57600080fd5b505afa1580156113cf573d6000803e3d6000fd5b505050506040513d60208110156113e557600080fd5b505160405163ffffffff841660e01b8152600481018381526001600160a01b0380841660248401528e1660448301526080606483019081528a5160848401528a518f938c93929160a490910190602085019080838360005b8381101561145557818101518382015260200161143d565b50505050905090810190601f1680156114825780820380516001836020036101000a031916815260200191505b5095505050505050602060405180830381600087803b1580156114a457600080fd5b505af11580156114b8573d6000803e3d6000fd5b505050506040513d60208110156114ce57600080fd5b50516114d957600080fd5b600c5460408051600160e01b63ccdd6afd028152600481018d905260006024820181905260448201819052606482018d905260a4820181905260c0608483015260c4820181905291516001600160a01b039093169263ccdd6afd9261010480840193602093929083900390910190829087803b15801561155857600080fd5b505af115801561156c573d6000803e3d6000fd5b505050506040513d602081101561158257600080fd5b50610f5190508a8a8a87613bba565b600f6020526000908152604090205481565b600e6020526000908152604090208054600182015460029092015460ff909116919083565b6007546001600160a01b031681565b60005460015460408051600160e21b633d9abf2b0281523360048201526001600160a01b0393841660248201529290911660448301525173__AOLibrary_____________________________9163f66afcac916064808301926020929190829003018186803b15801561164957600080fd5b505af415801561165d573d6000803e3d6000fd5b505050506040513d602081101561167357600080fd5b505161167e57600080fd5b6001600160a01b03811661169157600080fd5b600480546001600160a01b03199081166001600160a01b039384161791829055600a8054929093169116179055565b60085460408051600160e01b63029b7d5302815233600482015290516000926001600160a01b03169163029b7d53916024808301926020929190829003018186803b15801561170e57600080fd5b505afa158015611722573d6000803e3d6000fd5b505050506040513d602081101561173857600080fd5b50516001600160a01b0316141561174e57600080fd5b600a5460085460408051600160e01b63029b7d5302815233600482015290516001600160a01b0393841693633ebc2ab393169163029b7d53916024808301926020929190829003018186803b1580156117a657600080fd5b505afa1580156117ba573d6000803e3d6000fd5b505050506040513d60208110156117d057600080fd5b50516040805163ffffffff841660e01b81526001600160a01b039092166004830152516024808301926020929190829003018186803b15801561181257600080fd5b505afa158015611826573d6000803e3d6000fd5b505050506040513d602081101561183c57600080fd5b50511561184857600080fd5b600d5460408051600160e01b63a62eeead0281526004810185905290516000926001600160a01b03169163a62eeead916024808301926020929190829003018186803b15801561189757600080fd5b505afa1580156118ab573d6000803e3d6000fd5b505050506040513d60208110156118c157600080fd5b505160ff16116118d057600080fd5b60085460408051600160e01b63029b7d5302815233600482015290516000926001600160a01b03169163029b7d53916024808301926020929190829003018186803b15801561191e57600080fd5b505afa158015611932573d6000803e3d6000fd5b505050506040513d602081101561194857600080fd5b5051600b5460408051600160e11b6356ac53e90281526004810187905290519293506000926001600160a01b039092169163ad58a7d2916024808201928692909190829003018186803b15801561199e57600080fd5b505afa1580156119b2573d6000803e3d6000fd5b505050506040513d6000823e601f3d908101601f1916820160405260c08110156119db57600080fd5b8151602083015160408401516060850151608086015160a08701805195979496939592949193820192600160201b811115611a1557600080fd5b82016020810184811115611a2857600080fd5b8151600160201b811182820187101715611a4157600080fd5b505092919050505050509350505050600b60009054906101000a90046001600160a01b03166001600160a01b0316635f39fd738584866040518463ffffffff1660e01b815260040180848152602001836001600160a01b03166001600160a01b03168152602001821515151581526020019350505050602060405180830381600087803b158015611ad157600080fd5b505af1158015611ae5573d6000803e3d6000fd5b505050506040513d6020811015611afb57600080fd5b5051611b0657600080fd5b604080516001600160a01b0380841682528416602082015284151581830152905185917fd1ceffc896374df3ec020f7a5b068a38f909c6833edd2c4fec3716074c07dc7d919081900360600190a250505050565b60005460015460408051600160e21b633d9abf2b0281523360048201526001600160a01b0393841660248201529290911660448301525173__AOLibrary_____________________________9163f66afcac916064808301926020929190829003018186803b158015611bcc57600080fd5b505af4158015611be0573d6000803e3d6000fd5b505050506040513d6020811015611bf657600080fd5b5051611c0157600080fd5b6001600160a01b038116611c1457600080fd5b600680546001600160a01b039092166001600160a01b03199283168117909155600c8054909216179055565b6001546001600160a01b031681565b60005460015460408051600160e21b633d9abf2b0281523360048201526001600160a01b0393841660248201529290911660448301525173__AOLibrary_____________________________9163f66afcac916064808301926020929190829003018186803b158015611cc157600080fd5b505af4158015611cd5573d6000803e3d6000fd5b505050506040513d6020811015611ceb57600080fd5b5051611cf657600080fd5b6001600160a01b038216611d0957600080fd5b6001600160a01b03919091166000908152600260205260409020805460ff1916911515919091179055565b60005460015460408051600160e21b633d9abf2b0281523360048201526001600160a01b0393841660248201529290911660448301525173__AOLibrary_____________________________9163f66afcac916064808301926020929190829003018186803b158015611da657600080fd5b505af4158015611dba573d6000803e3d6000fd5b505050506040513d6020811015611dd057600080fd5b5051611ddb57600080fd5b6001600160a01b038116611dee57600080fd5b600180546001600160a01b039092166001600160a01b0319928316811790915560098054909216179055565b60005460015460408051600160e21b633d9abf2b0281523360048201526001600160a01b0393841660248201529290911660448301525173__AOLibrary_____________________________9163f66afcac916064808301926020929190829003018186803b158015611e8c57600080fd5b505af4158015611ea0573d6000803e3d6000fd5b505050506040513d6020811015611eb657600080fd5b5051611ec157600080fd5b6001600160a01b038116611ed457600080fd5b600580546001600160a01b039092166001600160a01b03199283168117909155600b8054909216179055565b60005460015460408051600160e21b633d9abf2b0281523360048201526001600160a01b0393841660248201529290911660448301525173__AOLibrary_____________________________9163f66afcac916064808301926020929190829003018186803b158015611f7257600080fd5b505af4158015611f86573d6000803e3d6000fd5b505050506040513d6020811015611f9c57600080fd5b5051611fa757600080fd5b6001600160a01b038116611fba57600080fd5b600380546001600160a01b039092166001600160a01b0319928316811790915560088054909216179055565b60085460408051600160e01b63029b7d530281523360048201529051600092839230928b928a928c926001600160a01b039092169163029b7d5391602480820192602092909190829003018186803b15801561204157600080fd5b505afa158015612055573d6000803e3d6000fd5b505050506040513d602081101561206b57600080fd5b5051604080516001600160a01b03968716606090811b6020838101919091526034830197909752948716851b60548201526068810193909352941690911b60888201528251607c818303018152609c8201808552815191840191909120600090915260bc820180855281905260ff891660dc83015260fc820188905261011c82018790529251929350339260019261013c808401939192601f1981019281900390910190855afa158015612123573d6000803e3d6000fd5b505050602060405103516001600160a01b031614612145576000915050612157565b61215188868686613d38565b60019150505b9695505050505050565b60085460408051600160e01b63029b7d5302815233600482015290516000926001600160a01b03169163029b7d53916024808301926020929190829003018186803b1580156121af57600080fd5b505afa1580156121c3573d6000803e3d6000fd5b505050506040513d60208110156121d957600080fd5b50516001600160a01b031614156121ef57600080fd5b600a5460085460408051600160e01b63029b7d5302815233600482015290516001600160a01b0393841693633ebc2ab393169163029b7d53916024808301926020929190829003018186803b15801561224757600080fd5b505afa15801561225b573d6000803e3d6000fd5b505050506040513d602081101561227157600080fd5b50516040805163ffffffff841660e01b81526001600160a01b039092166004830152516024808301926020929190829003018186803b1580156122b357600080fd5b505afa1580156122c7573d6000803e3d6000fd5b505050506040513d60208110156122dd57600080fd5b5051156122e957600080fd5b600d5460408051600160e01b63a62eeead0281526004810184905290516000926001600160a01b03169163a62eeead916024808301926020929190829003018186803b15801561233857600080fd5b505afa15801561234c573d6000803e3d6000fd5b505050506040513d602081101561236257600080fd5b505160ff161161237157600080fd5b60085460408051600160e01b63029b7d5302815233600482015290516000926001600160a01b03169163029b7d53916024808301926020929190829003018186803b1580156123bf57600080fd5b505afa1580156123d3573d6000803e3d6000fd5b505050506040513d60208110156123e957600080fd5b5051600b5460408051600160e01b6383fee16d028152600481018690526001600160a01b03808516602483015291519394509116916383fee16d916044808201926020929091908290030181600087803b15801561244657600080fd5b505af115801561245a573d6000803e3d6000fd5b505050506040513d602081101561247057600080fd5b505161247b57600080fd5b600b5460408051600160e01b6381f3e8970281526004810185905290516000926001600160a01b0316916381f3e8979160248083019286929190829003018186803b1580156124c957600080fd5b505afa1580156124dd573d6000803e3d6000fd5b505050506040513d6000823e601f3d908101601f1916820160405261012081101561250757600080fd5b815160208301516040840151606085015160808601805194969395929491939283019291600160201b81111561253c57600080fd5b8201602081018481111561254f57600080fd5b8151600160201b81118282018710171561256857600080fd5b50506020820151604083015160608401516080909401805193969295919493600160201b81111561259857600080fd5b820160208101848111156125ab57600080fd5b8151600160201b8111828201871017156125c457600080fd5b505092919050505050505050509350505050600c60009054906101000a90046001600160a01b03166001600160a01b031663088fc1a8846040518263ffffffff1660e01b815260040180828152602001915050602060405180830381600087803b15801561263157600080fd5b505af1158015612645573d6000803e3d6000fd5b505050506040513d602081101561265b57600080fd5b505161266657600080fd5b604080516001600160a01b03808416825284166020820152815185927f0b8de7345c8858c1a768f8563f771e787ca936dd91e184518c41598661bcecf6928290030190a2505050565b60026020526000908152604090205460ff1681565b8473__AOLibrary_____________________________632fca5414826040518263ffffffff1660e01b815260040180826001600160a01b03166001600160a01b0316815260200191505060206040518083038186803b15801561272657600080fd5b505af415801561273a573d6000803e3d6000fd5b505050506040513d602081101561275057600080fd5b505180156127df575060085460408051600160e01b63029b7d5302815233600482015290516000926001600160a01b03169163029b7d53916024808301926020929190829003018186803b1580156127a757600080fd5b505afa1580156127bb573d6000803e3d6000fd5b505050506040513d60208110156127d157600080fd5b50516001600160a01b031614155b80156128d85750600a5460085460408051600160e01b63029b7d5302815233600482015290516001600160a01b0393841693633ebc2ab393169163029b7d53916024808301926020929190829003018186803b15801561283e57600080fd5b505afa158015612852573d6000803e3d6000fd5b505050506040513d602081101561286857600080fd5b50516040805163ffffffff841660e01b81526001600160a01b039092166004830152516024808301926020929190829003018186803b1580156128aa57600080fd5b505afa1580156128be573d6000803e3d6000fd5b505050506040513d60208110156128d457600080fd5b5051155b6128e157600080fd5b876000600d60009054906101000a90046001600160a01b03166001600160a01b03166379d0c71e6040518163ffffffff1660e01b815260040160a06040518083038186803b15801561293257600080fd5b505afa158015612946573d6000803e3d6000fd5b505050506040513d60a081101561295c57600080fd5b5060600151600d5460408051600160e01b63a62eeead02815260048101869052905192935060ff8416926001600160a01b039092169163a62eeead91602480820192602092909190829003018186803b1580156129b857600080fd5b505afa1580156129cc573d6000803e3d6000fd5b505050506040513d60208110156129e257600080fd5b505160ff16146129f157600080fd5b6129ff8a8a8a8a8a8a613d64565b612a0857600080fd5b600b5460085460408051600160e01b63029b7d5302815233600482015290516001600160a01b039384169363c555ca1e938f9391169163029b7d5391602480820192602092909190829003018186803b158015612a6457600080fd5b505afa158015612a78573d6000803e3d6000fd5b505050506040513d6020811015612a8e57600080fd5b505160405163ffffffff841660e01b8152600481018381526001600160a01b0380841660248401528e1660448301526080606483019081528a5160848401528a518f938c93929160a490910190602085019080838360005b83811015612afe578181015183820152602001612ae6565b50505050905090810190601f168015612b2b5780820380516001836020036101000a031916815260200191505b5095505050505050602060405180830381600087803b158015612b4d57600080fd5b505af1158015612b61573d6000803e3d6000fd5b505050506040513d6020811015612b7757600080fd5b5051612b8257600080fd5b600c60009054906101000a90046001600160a01b03166001600160a01b031663ccdd6afd8b6000808d60006040518663ffffffff1660e01b815260040180868152602001856001600160a01b03166001600160a01b031681526020018415151515815260200160200180602001838152602001828103825284818151815260200191508051906020019080838360005b83811015612c2a578181015183820152602001612c12565b50505050905090810190601f168015612c575780820380516001836020036101000a031916815260200191505b509650505050505050602060405180830381600087803b158015612c7a57600080fd5b505af1158015612c8e573d6000803e3d6000fd5b505050506040513d6020811015612ca457600080fd5b50610f5190508a8a8a87613ef1565b8473__AOLibrary_____________________________632fca5414826040518263ffffffff1660e01b815260040180826001600160a01b03166001600160a01b0316815260200191505060206040518083038186803b158015612d1557600080fd5b505af4158015612d29573d6000803e3d6000fd5b505050506040513d6020811015612d3f57600080fd5b50518015612dce575060085460408051600160e01b63029b7d5302815233600482015290516000926001600160a01b03169163029b7d53916024808301926020929190829003018186803b158015612d9657600080fd5b505afa158015612daa573d6000803e3d6000fd5b505050506040513d6020811015612dc057600080fd5b50516001600160a01b031614155b8015612ec75750600a5460085460408051600160e01b63029b7d5302815233600482015290516001600160a01b0393841693633ebc2ab393169163029b7d53916024808301926020929190829003018186803b158015612e2d57600080fd5b505afa158015612e41573d6000803e3d6000fd5b505050506040513d6020811015612e5757600080fd5b50516040805163ffffffff841660e01b81526001600160a01b039092166004830152516024808301926020929190829003018186803b158015612e9957600080fd5b505afa158015612ead573d6000803e3d6000fd5b505050506040513d6020811015612ec357600080fd5b5051155b612ed057600080fd5b876000600d60009054906101000a90046001600160a01b03166001600160a01b03166379d0c71e6040518163ffffffff1660e01b815260040160a06040518083038186803b158015612f2157600080fd5b505afa158015612f35573d6000803e3d6000fd5b505050506040513d60a0811015612f4b57600080fd5b5060800151600d5460408051600160e01b63a62eeead02815260048101869052905192935060ff8416926001600160a01b039092169163a62eeead91602480820192602092909190829003018186803b158015612fa757600080fd5b505afa158015612fbb573d6000803e3d6000fd5b505050506040513d6020811015612fd157600080fd5b505160ff1614612fe057600080fd5b612fee8a8a8a8a8a8a611fe6565b612ff757600080fd5b600b5460085460408051600160e01b63029b7d5302815233600482015290516001600160a01b039384169363c555ca1e938f9391169163029b7d5391602480820192602092909190829003018186803b15801561305357600080fd5b505afa158015613067573d6000803e3d6000fd5b505050506040513d602081101561307d57600080fd5b505160405163ffffffff841660e01b8152600481018381526001600160a01b0380841660248401528e1660448301526080606483019081528a5160848401528a518f938c93929160a490910190602085019080838360005b838110156130ed5781810151838201526020016130d5565b50505050905090810190601f16801561311a5780820380516001836020036101000a031916815260200191505b5095505050505050602060405180830381600087803b15801561313c57600080fd5b505af1158015613150573d6000803e3d6000fd5b505050506040513d602081101561316657600080fd5b505161317157600080fd5b600c5460408051600160e01b63ccdd6afd028152600481018d90526000602482018190526044820181905260a482018d905260c0608483015260c4820181905291516001600160a01b039093169263ccdd6afd9261010480840193602093929083900390910190829087803b1580156131e957600080fd5b505af11580156131fd573d6000803e3d6000fd5b505050506040513d602081101561321357600080fd5b50610f5190508a8a8a876140db565b6004546001600160a01b031681565b6000546001600160a01b031681565b6003546001600160a01b031681565b6005546001600160a01b031681565b6006546001600160a01b031681565b8473__AOLibrary_____________________________632fca5414826040518263ffffffff1660e01b815260040180826001600160a01b03166001600160a01b0316815260200191505060206040518083038186803b1580156132cf57600080fd5b505af41580156132e3573d6000803e3d6000fd5b505050506040513d60208110156132f957600080fd5b50518015613388575060085460408051600160e01b63029b7d5302815233600482015290516000926001600160a01b03169163029b7d53916024808301926020929190829003018186803b15801561335057600080fd5b505afa158015613364573d6000803e3d6000fd5b505050506040513d602081101561337a57600080fd5b50516001600160a01b031614155b80156134815750600a5460085460408051600160e01b63029b7d5302815233600482015290516001600160a01b0393841693633ebc2ab393169163029b7d53916024808301926020929190829003018186803b1580156133e757600080fd5b505afa1580156133fb573d6000803e3d6000fd5b505050506040513d602081101561341157600080fd5b50516040805163ffffffff841660e01b81526001600160a01b039092166004830152516024808301926020929190829003018186803b15801561345357600080fd5b505afa158015613467573d6000803e3d6000fd5b505050506040513d602081101561347d57600080fd5b5051155b61348a57600080fd5b876000600d60009054906101000a90046001600160a01b03166001600160a01b03166379d0c71e6040518163ffffffff1660e01b815260040160a06040518083038186803b1580156134db57600080fd5b505afa1580156134ef573d6000803e3d6000fd5b505050506040513d60a081101561350557600080fd5b5051600d5460408051600160e01b63a62eeead02815260048101869052905192935060ff8416926001600160a01b039092169163a62eeead91602480820192602092909190829003018186803b15801561355e57600080fd5b505afa158015613572573d6000803e3d6000fd5b505050506040513d602081101561358857600080fd5b505160ff161461359757600080fd5b6135a58a8a8a8a8a8a614259565b6135ae57600080fd5b600b5460085460408051600160e01b63029b7d5302815233600482015290516001600160a01b039384169363c555ca1e938f9391169163029b7d5391602480820192602092909190829003018186803b15801561360a57600080fd5b505afa15801561361e573d6000803e3d6000fd5b505050506040513d602081101561363457600080fd5b505160405163ffffffff841660e01b8152600481018381526001600160a01b0380841660248401528e1660448301526080606483019081528a5160848401528a518f938c93929160a490910190602085019080838360005b838110156136a457818101518382015260200161368c565b50505050905090810190601f1680156136d15780820380516001836020036101000a031916815260200191505b5095505050505050602060405180830381600087803b1580156136f357600080fd5b505af1158015613707573d6000803e3d6000fd5b505050506040513d602081101561371d57600080fd5b505161372857600080fd5b600c5460408051600160e01b63ccdd6afd028152600481018d90526001600160a01b038c8116602483015260006044830181905260a4830181905260c0608484015260c48301819052925193169263ccdd6afd9261010480840193602093929083900390910190829087803b1580156137a057600080fd5b505af11580156137b4573d6000803e3d6000fd5b505050506040513d60208110156137ca57600080fd5b50610f5190508a8a8a87614398565b60005460015460408051600160e21b633d9abf2b0281523360048201526001600160a01b0393841660248201529290911660448301525173__AOLibrary_____________________________9163f66afcac916064808301926020929190829003018186803b15801561384b57600080fd5b505af415801561385f573d6000803e3d6000fd5b505050506040513d602081101561387557600080fd5b505161388057600080fd5b6001600160a01b03811661389357600080fd5b600080546001600160a01b0319166001600160a01b0392909216919091179055565b60085460408051600160e01b63029b7d530281523360048201529051600092839230928b928a928c926001600160a01b039092169163029b7d5391602480820192602092909190829003018186803b15801561391057600080fd5b505afa158015613924573d6000803e3d6000fd5b505050506040513d602081101561393a57600080fd5b5051604080516001600160a01b03968716606090811b6020838101919091526034830197909752948716851b605482015292151560f81b6068840152941690911b60698201528251605d818303018152607d82018085528151918401919091206000909152609d820180855281905260ff891660bd83015260dd820188905260fd82018790529251929350339260019261011d808401939192601f1981019281900390910190855afa158015612123573d6000803e3d6000fd5b600c5460408051600160e11b634dd29ae70281526004810187905290516000926001600160a01b031691639ba535ce9160248083019286929190829003018186803b158015613a4257600080fd5b505afa158015613a56573d6000803e3d6000fd5b505050506040513d6000823e601f3d908101601f1916820160405260a0811015613a7f57600080fd5b8151602083015160408401516060850180519395929491939183019291600160201b811115613aad57600080fd5b82016020810184811115613ac057600080fd5b8151600160201b811182820187101715613ad957600080fd5b505060405130606081811b60208481019182526001600160a01b038f1690921b603485015289151560f890811b60488601528f1515901b60498501528c51999b508f9a50600f99600099509297508d96508b95508e94508c938b939192604a90910191908501908083835b60208310613b635780518252601f199092019160209182019101613b44565b51815160209384036101000a60001901801990921691161790529201938452506040805180850381529382018152835193820193909320895288019890985295909501600020969096555050505050505050505050565b600c5460408051600160e11b634dd29ae70281526004810187905290516000926001600160a01b031691639ba535ce9160248083019286929190829003018186803b158015613c0857600080fd5b505afa158015613c1c573d6000803e3d6000fd5b505050506040513d6000823e601f3d908101601f1916820160405260a0811015613c4557600080fd5b8151602083015160408401516060850180519395929491939183019291600160201b811115613c7357600080fd5b82016020810184811115613c8657600080fd5b8151600160201b811182820187101715613c9f57600080fd5b50509291906020018051906020019092919050505050509250505084600f600030868589888c60405160200180876001600160a01b03166001600160a01b031660601b8152601401866001600160a01b03166001600160a01b031660601b8152601401858152602001848152602001838051906020019080838360208310613b635780518252601f199092019160209182019101613b44565b6000938452600e6020526040909320805460ff191660ff93909316929092178255600182015560020155565b60085460408051600160e01b63029b7d530281523360048201529051600092839230928b928a928c926001600160a01b039092169163029b7d5391602480820192602092909190829003018186803b158015613dbf57600080fd5b505afa158015613dd3573d6000803e3d6000fd5b505050506040513d6020811015613de957600080fd5b50516040516001600160a01b03808716606090811b60208481019182526034850189905292871690911b605484015284519092606801918501908083835b60208310613e465780518252601f199092019160209182019101613e27565b51815160209384036101000a60001901801990921691161790526001600160a01b039590951660601b92019182525060408051808303600b190181526014830180835281519186019190912060009091526034830180835281905260ff8e166054840152607483018d9052609483018c905290519098503397506001965060b48083019650939450601f19810193918190039091019150855afa158015612123573d6000803e3d6000fd5b600c5460408051600160e11b634dd29ae70281526004810187905290516060926001600160a01b031691639ba535ce916024808301926000929190829003018186803b158015613f4057600080fd5b505afa158015613f54573d6000803e3d6000fd5b505050506040513d6000823e601f3d908101601f1916820160405260a0811015613f7d57600080fd5b8151602083015160408401516060850180519395929491939183019291600160201b811115613fab57600080fd5b82016020810184811115613fbe57600080fd5b8151600160201b811182820187101715613fd757600080fd5b505060405130606081811b60208481019182526001600160a01b038f1690921b60348501528451949b508f9a50600f9950600098509196508c95508a94508d938c938b9392604890910191908701908083835b602083106140495780518252601f19909201916020918201910161402a565b51815160209384036101000a600019018019909216911617905287519190930192870191508083835b602083106140915780518252601f199092019160209182019101614072565b51815160001960209485036101000a0190811690199190911617905286519390910192908601915080838360208310613b635780518252601f199092019160209182019101613b44565b600c5460408051600160e11b634dd29ae70281526004810187905290516000926001600160a01b031691639ba535ce9160248083019286929190829003018186803b15801561412957600080fd5b505afa15801561413d573d6000803e3d6000fd5b505050506040513d6000823e601f3d908101601f1916820160405260a081101561416657600080fd5b8151602083015160408401516060850180519395929491939183019291600160201b81111561419457600080fd5b820160208101848111156141a757600080fd5b8151600160201b8111828201871017156141c057600080fd5b50509291906020018051906020019092919050505094505050505084600f600030868589888c60405160200180876001600160a01b03166001600160a01b031660601b8152601401866001600160a01b03166001600160a01b031660601b8152601401858152602001848152602001838051906020019080838360208310613b635780518252601f199092019160209182019101613b44565b60085460408051600160e01b63029b7d530281523360048201529051600092839230928b928a928c926001600160a01b039092169163029b7d5391602480820192602092909190829003018186803b1580156142b457600080fd5b505afa1580156142c8573d6000803e3d6000fd5b505050506040513d60208110156142de57600080fd5b5051604080516001600160a01b03968716606090811b6020838101919091526034830197909752948716851b6054820152928616841b6068840152941690911b607c8201528251607081830301815260908201808552815191840191909120600090915260b0820180855281905260ff891660d083015260f08201889052610110820187905292519293503392600192610130808401939192601f1981019281900390910190855afa158015612123573d6000803e3d6000fd5b600c5460408051600160e11b634dd29ae70281526004810187905290516000926001600160a01b031691639ba535ce9160248083019286929190829003018186803b1580156143e657600080fd5b505afa1580156143fa573d6000803e3d6000fd5b505050506040513d6000823e601f3d908101601f1916820160405260a081101561442357600080fd5b8151602083015160408401516060850180519395929491939183019291600160201b81111561445157600080fd5b8201602081018481111561446457600080fd5b8151600160201b81118282018710171561447d57600080fd5b50509291906020018051906020019092919050505050505050905084600f600030868589888c60405160200180876001600160a01b03166001600160a01b031660601b8152601401866001600160a01b03166001600160a01b031660601b8152601401856001600160a01b03166001600160a01b031660601b8152601401846001600160a01b03166001600160a01b031660601b8152601401838051906020019080838360208310613b635780518252601f199092019160209182019101613b4456fea165627a7a723058204fedbac83062e5905ad3473d3c25f7257a7a6ca66c71e773694554227a538a7a0029",
  "source": "pragma solidity >=0.5.4 <0.6.0;\n\nimport './AOLibrary.sol';\nimport './TheAO.sol';\nimport './IAOSetting.sol';\nimport './INameFactory.sol';\nimport './IAOSettingAttribute.sol';\nimport './IAOSettingValue.sol';\nimport './INameTAOPosition.sol';\nimport './INameAccountRecovery.sol';\n\n/**\n * @title AOSettingUpdate\n *\n * This contract purpose is to update existing Setting Value\n */\ncontract AOSettingUpdate is TheAO {\n\taddress public nameFactoryAddress;\n\taddress public nameAccountRecoveryAddress;\n\taddress public aoSettingAttributeAddress;\n\taddress public aoSettingValueAddress;\n\taddress public aoSettingAddress;\n\n\tINameFactory internal _nameFactory;\n\tINameTAOPosition internal _nameTAOPosition;\n\tINameAccountRecovery internal _nameAccountRecovery;\n\tIAOSettingAttribute internal _aoSettingAttribute;\n\tIAOSettingValue internal _aoSettingValue;\n\tIAOSetting internal _aoSetting;\n\n\tstruct UpdateSignature {\n\t\tuint8 signatureV;\n\t\tbytes32 signatureR;\n\t\tbytes32 signatureS;\n\t}\n\n\t// Mapping from settingId to UpdateSignature\n\tmapping (uint256 => UpdateSignature) public updateSignatures;\n\n\t// Mapping from updateHashKey to it's settingId\n\tmapping (bytes32 => uint256) public updateHashLookup;\n\n\t// Event to be broadcasted to public when a proposed update for a setting is created\n\tevent SettingUpdate(uint256 indexed settingId, address indexed updateAdvocateNameId, address proposalTAOId);\n\n\t// Event to be broadcasted to public when setting update is approved/rejected by the advocate of proposalTAOId\n\tevent ApproveSettingUpdate(uint256 indexed settingId, address proposalTAOId, address proposalTAOAdvocate, bool approved);\n\n\t// Event to be broadcasted to public when setting update is finalized by the advocate of associatedTAOId\n\tevent FinalizeSettingUpdate(uint256 indexed settingId, address associatedTAOId, address associatedTAOAdvocate);\n\n\t/**\n\t * @dev Constructor function\n\t */\n\tconstructor(address _nameFactoryAddress,\n\t\taddress _nameTAOPositionAddress,\n\t\taddress _nameAccountRecoveryAddress,\n\t\taddress _aoSettingAttributeAddress,\n\t\taddress _aoSettingValueAddress,\n\t\taddress _aoSettingAddress\n\t\t) public {\n\t\tsetNameFactoryAddress(_nameFactoryAddress);\n\t\tsetNameTAOPositionAddress(_nameTAOPositionAddress);\n\t\tsetNameAccountRecoveryAddress(_nameAccountRecoveryAddress);\n\t\tsetAOSettingAttributeAddress(_aoSettingAttributeAddress);\n\t\tsetAOSettingValueAddress(_aoSettingValueAddress);\n\t\tsetAOSettingAddress(_aoSettingAddress);\n\t}\n\n\t/**\n\t * @dev Checks if the calling contract address is The AO\n\t *\t\tOR\n\t *\t\tIf The AO is set to a Name/TAO, then check if calling address is the Advocate\n\t */\n\tmodifier onlyTheAO {\n\t\trequire (AOLibrary.isTheAO(msg.sender, theAO, nameTAOPositionAddress));\n\t\t_;\n\t}\n\n\t/**\n\t * @dev Check is msg.sender address is a Name\n\t */\n\t modifier senderIsName() {\n\t\trequire (_nameFactory.ethAddressToNameId(msg.sender) != address(0));\n\t\t_;\n\t }\n\n\t/**\n\t * @dev Only allowed if sender's Name is not compromised\n\t */\n\tmodifier senderNameNotCompromised() {\n\t\trequire (!_nameAccountRecovery.isCompromised(_nameFactory.ethAddressToNameId(msg.sender)));\n\t\t_;\n\t}\n\n\t/**\n\t * @dev Check if sender can update setting\n\t */\n\tmodifier canUpdate(address _proposalTAOId) {\n\t\trequire (\n\t\t\tAOLibrary.isTAO(_proposalTAOId) &&\n\t\t\t_nameFactory.ethAddressToNameId(msg.sender) != address(0) &&\n\t\t\t!_nameAccountRecovery.isCompromised(_nameFactory.ethAddressToNameId(msg.sender))\n\t\t);\n\t\t_;\n\t}\n\n\t/**\n\t * @dev Check whether or not setting is of type address\n\t */\n\tmodifier isAddressSetting(uint256 _settingId) {\n\t\t(uint8 ADDRESS_SETTING_TYPE,,,,) = _aoSetting.getSettingTypes();\n\t\t// Make sure the setting type is address\n\t\trequire (_aoSetting.settingTypeLookup(_settingId) == ADDRESS_SETTING_TYPE);\n\t\t_;\n\t}\n\n\t/**\n\t * @dev Check whether or not setting is of type bool\n\t */\n\tmodifier isBoolSetting(uint256 _settingId) {\n\t\t(, uint8 BOOL_SETTING_TYPE,,,) = _aoSetting.getSettingTypes();\n\t\t// Make sure the setting type is bool\n\t\trequire (_aoSetting.settingTypeLookup(_settingId) == BOOL_SETTING_TYPE);\n\t\t_;\n\t}\n\n\t/**\n\t * @dev Check whether or not setting is of type bytes32\n\t */\n\tmodifier isBytesSetting(uint256 _settingId) {\n\t\t(,, uint8 BYTES_SETTING_TYPE,,) = _aoSetting.getSettingTypes();\n\t\t// Make sure the setting type is bytes32\n\t\trequire (_aoSetting.settingTypeLookup(_settingId) == BYTES_SETTING_TYPE);\n\t\t_;\n\t}\n\n\t/**\n\t * @dev Check whether or not setting is of type string\n\t */\n\tmodifier isStringSetting(uint256 _settingId) {\n\t\t(,,, uint8 STRING_SETTING_TYPE,) = _aoSetting.getSettingTypes();\n\t\t// Make sure the setting type is string\n\t\trequire (_aoSetting.settingTypeLookup(_settingId) == STRING_SETTING_TYPE);\n\t\t_;\n\t}\n\n\t/**\n\t * @dev Check whether or not setting is of type uint256\n\t */\n\tmodifier isUintSetting(uint256 _settingId) {\n\t\t(,,,, uint8 UINT_SETTING_TYPE) = _aoSetting.getSettingTypes();\n\t\t// Make sure the setting type is uint256\n\t\trequire (_aoSetting.settingTypeLookup(_settingId) == UINT_SETTING_TYPE);\n\t\t_;\n\t}\n\n\t/***** The AO ONLY METHODS *****/\n\t/**\n\t * @dev Transfer ownership of The AO to new address\n\t * @param _theAO The new address to be transferred\n\t */\n\tfunction transferOwnership(address _theAO) public onlyTheAO {\n\t\trequire (_theAO != address(0));\n\t\ttheAO = _theAO;\n\t}\n\n\t/**\n\t * @dev Whitelist `_account` address to transact on behalf of others\n\t * @param _account The address to whitelist\n\t * @param _whitelist Either to whitelist or not\n\t */\n\tfunction setWhitelist(address _account, bool _whitelist) public onlyTheAO {\n\t\trequire (_account != address(0));\n\t\twhitelist[_account] = _whitelist;\n\t}\n\n\t/**\n\t * @dev The AO sets NameFactory address\n\t * @param _nameFactoryAddress The address of NameFactory\n\t */\n\tfunction setNameFactoryAddress(address _nameFactoryAddress) public onlyTheAO {\n\t\trequire (_nameFactoryAddress != address(0));\n\t\tnameFactoryAddress = _nameFactoryAddress;\n\t\t_nameFactory = INameFactory(_nameFactoryAddress);\n\t}\n\n\t/**\n\t * @dev The AO sets NameTAOPosition address\n\t * @param _nameTAOPositionAddress The address of NameTAOPosition\n\t */\n\tfunction setNameTAOPositionAddress(address _nameTAOPositionAddress) public onlyTheAO {\n\t\trequire (_nameTAOPositionAddress != address(0));\n\t\tnameTAOPositionAddress = _nameTAOPositionAddress;\n\t\t_nameTAOPosition = INameTAOPosition(_nameTAOPositionAddress);\n\t}\n\n\t/**\n\t * @dev The AO set the NameAccountRecovery Address\n\t * @param _nameAccountRecoveryAddress The address of NameAccountRecovery\n\t */\n\tfunction setNameAccountRecoveryAddress(address _nameAccountRecoveryAddress) public onlyTheAO {\n\t\trequire (_nameAccountRecoveryAddress != address(0));\n\t\tnameAccountRecoveryAddress = _nameAccountRecoveryAddress;\n\t\t_nameAccountRecovery = INameAccountRecovery(nameAccountRecoveryAddress);\n\t}\n\n\t/**\n\t * @dev The AO sets AOSettingAttribute address\n\t * @param _aoSettingAttributeAddress The address of AOSettingAttribute\n\t */\n\tfunction setAOSettingAttributeAddress(address _aoSettingAttributeAddress) public onlyTheAO {\n\t\trequire (_aoSettingAttributeAddress != address(0));\n\t\taoSettingAttributeAddress = _aoSettingAttributeAddress;\n\t\t_aoSettingAttribute = IAOSettingAttribute(_aoSettingAttributeAddress);\n\t}\n\n\t/**\n\t * @dev The AO sets AOSettingValue address\n\t * @param _aoSettingValueAddress The address of AOSettingValue\n\t */\n\tfunction setAOSettingValueAddress(address _aoSettingValueAddress) public onlyTheAO {\n\t\trequire (_aoSettingValueAddress != address(0));\n\t\taoSettingValueAddress = _aoSettingValueAddress;\n\t\t_aoSettingValue = IAOSettingValue(_aoSettingValueAddress);\n\t}\n\n\t/**\n\t * @dev The AO sets AOSetting address\n\t * @param _aoSettingAddress The address of AOSetting\n\t */\n\tfunction setAOSettingAddress(address _aoSettingAddress) public onlyTheAO {\n\t\trequire (_aoSettingAddress != address(0));\n\t\taoSettingAddress = _aoSettingAddress;\n\t\t_aoSetting = IAOSetting(_aoSettingAddress);\n\t}\n\n\t/***** PUBLIC METHODS *****/\n\t/**\n\t * @dev Advocate of Setting's _associatedTAOId submits an address setting update after an update has been proposed\n\t * @param _settingId The ID of the setting to be updated\n\t * @param _newValue The new address value for this setting\n\t * @param _proposalTAOId The child of the associatedTAOId with the update Logos\n\t * @param _signatureV The V part of the signature of proposalTAOId, newValue and associatedTAOId's Advocate\n\t * @param _signatureR The R part of the signature of proposalTAOId, newValue and associatedTAOId's Advocate\n\t * @param _signatureS The S part of the signature of proposalTAOId, newValue and associatedTAOId's Advocate\n\t * @param _extraData Catch-all string value to be stored if exist\n\t */\n\tfunction updateAddressSetting(\n\t\tuint256 _settingId,\n\t\taddress _newValue,\n\t\taddress _proposalTAOId,\n\t\tuint8 _signatureV,\n\t\tbytes32 _signatureR,\n\t\tbytes32 _signatureS,\n\t\tstring memory _extraData)\n\t\tpublic\n\t\tcanUpdate(_proposalTAOId)\n\t\tisAddressSetting(_settingId) {\n\n\t\t// Verify and store update address signature\n\t\trequire (_verifyAndStoreUpdateAddressSignature(_settingId, _newValue, _proposalTAOId, _signatureV, _signatureR, _signatureS));\n\n\t\t// Store the setting state data\n\t\trequire (_aoSettingAttribute.update(_settingId, _nameFactory.ethAddressToNameId(msg.sender), _proposalTAOId, _extraData));\n\n\t\t// Store the value as pending value\n\t\t_aoSettingValue.setPendingValue(_settingId, _newValue, false, '', '', 0);\n\n\t\t// Store the update hash key lookup\n\t\t_storeUpdateAddressHashLookup(_settingId, _newValue, _proposalTAOId, _extraData);\n\n\t\temit SettingUpdate(_settingId, _nameFactory.ethAddressToNameId(msg.sender), _proposalTAOId);\n\t}\n\n\t/**\n\t * @dev Advocate of Setting's _associatedTAOId submits a bool setting update after an update has been proposed\n\t * @param _settingId The ID of the setting to be updated\n\t * @param _newValue The new bool value for this setting\n\t * @param _proposalTAOId The child of the associatedTAOId with the update Logos\n\t * @param _signatureV The V part of the signature of proposalTAOId, newValue and associatedTAOId's Advocate\n\t * @param _signatureR The R part of the signature of proposalTAOId, newValue and associatedTAOId's Advocate\n\t * @param _signatureS The S part of the signature of proposalTAOId, newValue and associatedTAOId's Advocate\n\t * @param _extraData Catch-all string value to be stored if exist\n\t */\n\tfunction updateBoolSetting(\n\t\tuint256 _settingId,\n\t\tbool _newValue,\n\t\taddress _proposalTAOId,\n\t\tuint8 _signatureV,\n\t\tbytes32 _signatureR,\n\t\tbytes32 _signatureS,\n\t\tstring memory _extraData)\n\t\tpublic\n\t\tcanUpdate(_proposalTAOId)\n\t\tisBoolSetting(_settingId) {\n\n\t\t// Verify and store update bool signature\n\t\trequire (_verifyAndStoreUpdateBoolSignature(_settingId, _newValue, _proposalTAOId, _signatureV, _signatureR, _signatureS));\n\n\t\t// Store the setting state data\n\t\trequire (_aoSettingAttribute.update(_settingId, _nameFactory.ethAddressToNameId(msg.sender), _proposalTAOId, _extraData));\n\n\t\t// Store the value as pending value\n\t\t_aoSettingValue.setPendingValue(_settingId, address(0), _newValue, '', '', 0);\n\n\t\t// Store the update hash key lookup\n\t\t_storeUpdateBoolHashLookup(_settingId, _newValue, _proposalTAOId, _extraData);\n\n\t\temit SettingUpdate(_settingId, _nameFactory.ethAddressToNameId(msg.sender), _proposalTAOId);\n\t}\n\n\t/**\n\t * @dev Advocate of Setting's _associatedTAOId submits a bytes32 setting update after an update has been proposed\n\t * @param _settingId The ID of the setting to be updated\n\t * @param _newValue The new bytes32 value for this setting\n\t * @param _proposalTAOId The child of the associatedTAOId with the update Logos\n\t * @param _signatureV The V part of the signature of proposalTAOId, newValue and associatedTAOId's Advocate\n\t * @param _signatureR The R part of the signature of proposalTAOId, newValue and associatedTAOId's Advocate\n\t * @param _signatureS The S part of the signature of proposalTAOId, newValue and associatedTAOId's Advocate\n\t * @param _extraData Catch-all string value to be stored if exist\n\t */\n\tfunction updateBytesSetting(\n\t\tuint256 _settingId,\n\t\tbytes32 _newValue,\n\t\taddress _proposalTAOId,\n\t\tuint8 _signatureV,\n\t\tbytes32 _signatureR,\n\t\tbytes32 _signatureS,\n\t\tstring memory _extraData)\n\t\tpublic\n\t\tcanUpdate(_proposalTAOId)\n\t\tisBytesSetting(_settingId) {\n\n\t\t// Verify and store update bytes32 signature\n\t\trequire (_verifyAndStoreUpdateBytesSignature(_settingId, _newValue, _proposalTAOId, _signatureV, _signatureR, _signatureS));\n\n\t\t// Store the setting state data\n\t\trequire (_aoSettingAttribute.update(_settingId, _nameFactory.ethAddressToNameId(msg.sender), _proposalTAOId, _extraData));\n\n\t\t// Store the value as pending value\n\t\t_aoSettingValue.setPendingValue(_settingId, address(0), false, _newValue, '', 0);\n\n\t\t// Store the update hash key lookup\n\t\t_storeUpdateBytesHashLookup(_settingId, _newValue, _proposalTAOId, _extraData);\n\n\t\temit SettingUpdate(_settingId, _nameFactory.ethAddressToNameId(msg.sender), _proposalTAOId);\n\t}\n\n\t/**\n\t * @dev Advocate of Setting's _associatedTAOId submits a string setting update after an update has been proposed\n\t * @param _settingId The ID of the setting to be updated\n\t * @param _newValue The new string value for this setting\n\t * @param _proposalTAOId The child of the associatedTAOId with the update Logos\n\t * @param _signatureV The V part of the signature of proposalTAOId, newValue and associatedTAOId's Advocate\n\t * @param _signatureR The R part of the signature of proposalTAOId, newValue and associatedTAOId's Advocate\n\t * @param _signatureS The S part of the signature of proposalTAOId, newValue and associatedTAOId's Advocate\n\t * @param _extraData Catch-all string value to be stored if exist\n\t */\n\tfunction updateStringSetting(\n\t\tuint256 _settingId,\n\t\tstring memory _newValue,\n\t\taddress _proposalTAOId,\n\t\tuint8 _signatureV,\n\t\tbytes32 _signatureR,\n\t\tbytes32 _signatureS,\n\t\tstring memory _extraData)\n\t\tpublic\n\t\tcanUpdate(_proposalTAOId)\n\t\tisStringSetting(_settingId) {\n\n\t\t// Verify and store update string signature\n\t\trequire (_verifyAndStoreUpdateStringSignature(_settingId, _newValue, _proposalTAOId, _signatureV, _signatureR, _signatureS));\n\n\t\t// Store the setting state data\n\t\trequire (_aoSettingAttribute.update(_settingId, _nameFactory.ethAddressToNameId(msg.sender), _proposalTAOId, _extraData));\n\n\t\t// Store the value as pending value\n\t\t_aoSettingValue.setPendingValue(_settingId, address(0), false, '', _newValue, 0);\n\n\t\t// Store the update hash key lookup\n\t\t_storeUpdateStringHashLookup(_settingId, _newValue, _proposalTAOId, _extraData);\n\n\t\temit SettingUpdate(_settingId, _nameFactory.ethAddressToNameId(msg.sender), _proposalTAOId);\n\t}\n\n\t/**\n\t * @dev Advocate of Setting's _associatedTAOId submits a uint256 setting update after an update has been proposed\n\t * @param _settingId The ID of the setting to be updated\n\t * @param _newValue The new uint256 value for this setting\n\t * @param _proposalTAOId The child of the associatedTAOId with the update Logos\n\t * @param _signatureV The V part of the signature of proposalTAOId, newValue and associatedTAOId's Advocate\n\t * @param _signatureR The R part of the signature of proposalTAOId, newValue and associatedTAOId's Advocate\n\t * @param _signatureS The S part of the signature of proposalTAOId, newValue and associatedTAOId's Advocate\n\t * @param _extraData Catch-all string value to be stored if exist\n\t */\n\tfunction updateUintSetting(\n\t\tuint256 _settingId,\n\t\tuint256 _newValue,\n\t\taddress _proposalTAOId,\n\t\tuint8 _signatureV,\n\t\tbytes32 _signatureR,\n\t\tbytes32 _signatureS,\n\t\tstring memory _extraData)\n\t\tpublic\n\t\tcanUpdate(_proposalTAOId)\n\t\tisUintSetting(_settingId) {\n\n\t\t// Verify and store update uint256 signature\n\t\trequire (_verifyAndStoreUpdateUintSignature(_settingId, _newValue, _proposalTAOId, _signatureV, _signatureR, _signatureS));\n\n\t\t// Store the setting state data\n\t\trequire (_aoSettingAttribute.update(_settingId, _nameFactory.ethAddressToNameId(msg.sender), _proposalTAOId, _extraData));\n\n\t\t// Store the value as pending value\n\t\t_aoSettingValue.setPendingValue(_settingId, address(0), false, '', '', _newValue);\n\n\t\t// Store the update hash key lookup\n\t\t_storeUpdateUintHashLookup(_settingId, _newValue, _proposalTAOId, _extraData);\n\n\t\temit SettingUpdate(_settingId, _nameFactory.ethAddressToNameId(msg.sender), _proposalTAOId);\n\t}\n\n\t/**\n\t * @dev Advocate of Setting's proposalTAOId approves the setting update\n\t * @param _settingId The ID of the setting to be approved\n\t * @param _approved Whether to approve or reject\n\t */\n\tfunction approveSettingUpdate(uint256 _settingId, bool _approved) public senderIsName senderNameNotCompromised {\n\t\t// Make sure setting exist\n\t\trequire (_aoSetting.settingTypeLookup(_settingId) > 0);\n\n\t\taddress _proposalTAOAdvocate = _nameFactory.ethAddressToNameId(msg.sender);\n\t\t(,,, address _proposalTAOId,,) = _aoSettingAttribute.getSettingState(_settingId);\n\n\t\trequire (_aoSettingAttribute.approveUpdate(_settingId, _proposalTAOAdvocate, _approved));\n\n\t\temit ApproveSettingUpdate(_settingId, _proposalTAOId, _proposalTAOAdvocate, _approved);\n\t}\n\n\t/**\n\t * @dev Advocate of Setting's _associatedTAOId finalizes the setting update once the setting is approved\n\t * @param _settingId The ID of the setting to be finalized\n\t */\n\tfunction finalizeSettingUpdate(uint256 _settingId) public senderIsName senderNameNotCompromised {\n\t\t// Make sure setting exist\n\t\trequire (_aoSetting.settingTypeLookup(_settingId) > 0);\n\n\t\taddress _associatedTAOAdvocate = _nameFactory.ethAddressToNameId(msg.sender);\n\t\trequire (_aoSettingAttribute.finalizeUpdate(_settingId, _associatedTAOAdvocate));\n\n\t\t(,,, address _associatedTAOId,,,,,) = _aoSettingAttribute.getSettingData(_settingId);\n\n\t\trequire (_aoSettingValue.movePendingToSetting(_settingId));\n\n\t\temit FinalizeSettingUpdate(_settingId, _associatedTAOId, _associatedTAOAdvocate);\n\t}\n\n\t/***** Internal Method *****/\n\t/**\n\t * @dev Verify the signature for the address update and store the signature info\n\t * @param _settingId The ID of the setting to be updated\n\t * @param _newValue The new address value for this setting\n\t * @param _proposalTAOId The child of the associatedTAOId with the update Logos\n\t * @param _v The V part of the signature of proposalTAOId, newValue and associatedTAOId's Advocate\n\t * @param _r The R part of the signature of proposalTAOId, newValue and associatedTAOId's Advocate\n\t * @param _s The S part of the signature of proposalTAOId, newValue and associatedTAOId's Advocate\n\t * @return true if valid, false otherwise\n\t */\n\tfunction _verifyAndStoreUpdateAddressSignature(\n\t\tuint256 _settingId,\n\t\taddress _newValue,\n\t\taddress _proposalTAOId,\n\t\tuint8 _v,\n\t\tbytes32 _r,\n\t\tbytes32 _s\n\t\t) internal returns (bool) {\n\t\tbytes32 _hash = keccak256(abi.encodePacked(address(this), _settingId, _proposalTAOId, _newValue, _nameFactory.ethAddressToNameId(msg.sender)));\n\t\tif (ecrecover(_hash, _v, _r, _s) != msg.sender) {\n\t\t\treturn false;\n\t\t}\n\t\t_storeUpdateSignature(_settingId, _v, _r, _s);\n\t\treturn true;\n\t}\n\n\t/**\n\t * @dev Verify the signature for the bool update and store the signature info\n\t * @param _settingId The ID of the setting to be updated\n\t * @param _newValue The new bool value for this setting\n\t * @param _proposalTAOId The child of the associatedTAOId with the update Logos\n\t * @param _v The V part of the signature of proposalTAOId, newValue and associatedTAOId's Advocate\n\t * @param _r The R part of the signature of proposalTAOId, newValue and associatedTAOId's Advocate\n\t * @param _s The S part of the signature of proposalTAOId, newValue and associatedTAOId's Advocate\n\t * @return true if valid, false otherwise\n\t */\n\tfunction _verifyAndStoreUpdateBoolSignature(\n\t\tuint256 _settingId,\n\t\tbool _newValue,\n\t\taddress _proposalTAOId,\n\t\tuint8 _v,\n\t\tbytes32 _r,\n\t\tbytes32 _s\n\t\t) internal returns (bool) {\n\t\tbytes32 _hash = keccak256(abi.encodePacked(address(this), _settingId, _proposalTAOId, _newValue, _nameFactory.ethAddressToNameId(msg.sender)));\n\t\tif (ecrecover(_hash, _v, _r, _s) != msg.sender) {\n\t\t\treturn false;\n\t\t}\n\t\t_storeUpdateSignature(_settingId, _v, _r, _s);\n\t\treturn true;\n\t}\n\n\t/**\n\t * @dev Verify the signature for the bytes32 update and store the signature info\n\t * @param _settingId The ID of the setting to be updated\n\t * @param _newValue The new bytes32 value for this setting\n\t * @param _proposalTAOId The child of the associatedTAOId with the update Logos\n\t * @param _v The V part of the signature of proposalTAOId, newValue and associatedTAOId's Advocate\n\t * @param _r The R part of the signature of proposalTAOId, newValue and associatedTAOId's Advocate\n\t * @param _s The S part of the signature of proposalTAOId, newValue and associatedTAOId's Advocate\n\t * @return true if valid, false otherwise\n\t */\n\tfunction _verifyAndStoreUpdateBytesSignature(\n\t\tuint256 _settingId,\n\t\tbytes32 _newValue,\n\t\taddress _proposalTAOId,\n\t\tuint8 _v,\n\t\tbytes32 _r,\n\t\tbytes32 _s\n\t\t) internal returns (bool) {\n\t\tbytes32 _hash = keccak256(abi.encodePacked(address(this), _settingId, _proposalTAOId, _newValue, _nameFactory.ethAddressToNameId(msg.sender)));\n\t\tif (ecrecover(_hash, _v, _r, _s) != msg.sender) {\n\t\t\treturn false;\n\t\t}\n\t\t_storeUpdateSignature(_settingId, _v, _r, _s);\n\t\treturn true;\n\t}\n\n\t/**\n\t * @dev Verify the signature for the string update and store the signature info\n\t * @param _settingId The ID of the setting to be updated\n\t * @param _newValue The new string value for this setting\n\t * @param _proposalTAOId The child of the associatedTAOId with the update Logos\n\t * @param _v The V part of the signature of proposalTAOId, newValue and associatedTAOId's Advocate\n\t * @param _r The R part of the signature of proposalTAOId, newValue and associatedTAOId's Advocate\n\t * @param _s The S part of the signature of proposalTAOId, newValue and associatedTAOId's Advocate\n\t * @return true if valid, false otherwise\n\t */\n\tfunction _verifyAndStoreUpdateStringSignature(\n\t\tuint256 _settingId,\n\t\tstring memory _newValue,\n\t\taddress _proposalTAOId,\n\t\tuint8 _v,\n\t\tbytes32 _r,\n\t\tbytes32 _s\n\t\t) internal returns (bool) {\n\t\tbytes32 _hash = keccak256(abi.encodePacked(address(this), _settingId, _proposalTAOId, _newValue, _nameFactory.ethAddressToNameId(msg.sender)));\n\t\tif (ecrecover(_hash, _v, _r, _s) != msg.sender) {\n\t\t\treturn false;\n\t\t}\n\t\t_storeUpdateSignature(_settingId, _v, _r, _s);\n\t\treturn true;\n\t}\n\n\t/**\n\t * @dev Verify the signature for the uint256 update and store the signature info\n\t * @param _settingId The ID of the setting to be updated\n\t * @param _newValue The new uint256 value for this setting\n\t * @param _proposalTAOId The child of the associatedTAOId with the update Logos\n\t * @param _v The V part of the signature of proposalTAOId, newValue and associatedTAOId's Advocate\n\t * @param _r The R part of the signature of proposalTAOId, newValue and associatedTAOId's Advocate\n\t * @param _s The S part of the signature of proposalTAOId, newValue and associatedTAOId's Advocate\n\t * @return true if valid, false otherwise\n\t */\n\tfunction _verifyAndStoreUpdateUintSignature(\n\t\tuint256 _settingId,\n\t\tuint256 _newValue,\n\t\taddress _proposalTAOId,\n\t\tuint8 _v,\n\t\tbytes32 _r,\n\t\tbytes32 _s\n\t\t) public returns (bool) {\n\t\tbytes32 _hash = keccak256(abi.encodePacked(address(this), _settingId, _proposalTAOId, _newValue, _nameFactory.ethAddressToNameId(msg.sender)));\n\t\tif (ecrecover(_hash, _v, _r, _s) != msg.sender) {\n\t\t\treturn false;\n\t\t}\n\t\t_storeUpdateSignature(_settingId, _v, _r, _s);\n\t\treturn true;\n\t}\n\n\t/**\n\t * @dev Store the update hash lookup for this address setting\n\t * @param _settingId The ID of the setting to be updated\n\t * @param _newValue The new address value for this setting\n\t * @param _proposalTAOId The child of the associatedTAOId with the update Logos\n\t * @param _extraData Catch-all string value to be stored if exist\n\t */\n\tfunction _storeUpdateAddressHashLookup(\n\t\tuint256 _settingId,\n\t\taddress _newValue,\n\t\taddress _proposalTAOId,\n\t\tstring memory _extraData)\n\t\tinternal {\n\t\t// Store the update hash key lookup\n\t\t(address _addressValue,,,,) = _aoSettingValue.settingValue(_settingId);\n\t\tupdateHashLookup[keccak256(abi.encodePacked(address(this), _proposalTAOId, _addressValue, _newValue, _extraData, _settingId))] = _settingId;\n\t}\n\n\t/**\n\t * @dev Store the update hash lookup for this bool setting\n\t * @param _settingId The ID of the setting to be updated\n\t * @param _newValue The new bool value for this setting\n\t * @param _proposalTAOId The child of the associatedTAOId with the update Logos\n\t * @param _extraData Catch-all string value to be stored if exist\n\t */\n\tfunction _storeUpdateBoolHashLookup(\n\t\tuint256 _settingId,\n\t\tbool _newValue,\n\t\taddress _proposalTAOId,\n\t\tstring memory _extraData)\n\t\tinternal {\n\t\t// Store the update hash key lookup\n\t\t(, bool _boolValue,,,) = _aoSettingValue.settingValue(_settingId);\n\t\tupdateHashLookup[keccak256(abi.encodePacked(address(this), _proposalTAOId, _boolValue, _newValue, _extraData, _settingId))] = _settingId;\n\t}\n\n\t/**\n\t * @dev Store the update hash lookup for this bytes32 setting\n\t * @param _settingId The ID of the setting to be updated\n\t * @param _newValue The new bytes32 value for this setting\n\t * @param _proposalTAOId The child of the associatedTAOId with the update Logos\n\t * @param _extraData Catch-all string value to be stored if exist\n\t */\n\tfunction _storeUpdateBytesHashLookup(\n\t\tuint256 _settingId,\n\t\tbytes32 _newValue,\n\t\taddress _proposalTAOId,\n\t\tstring memory _extraData)\n\t\tinternal {\n\t\t// Store the update hash key lookup\n\t\t(,, bytes32 _bytesValue,,) = _aoSettingValue.settingValue(_settingId);\n\t\tupdateHashLookup[keccak256(abi.encodePacked(address(this), _proposalTAOId, _bytesValue, _newValue, _extraData, _settingId))] = _settingId;\n\t}\n\n\t/**\n\t * @dev Store the update hash lookup for this string setting\n\t * @param _settingId The ID of the setting to be updated\n\t * @param _newValue The new string value for this setting\n\t * @param _proposalTAOId The child of the associatedTAOId with the update Logos\n\t * @param _extraData Catch-all string value to be stored if exist\n\t */\n\tfunction _storeUpdateStringHashLookup(\n\t\tuint256 _settingId,\n\t\tstring memory _newValue,\n\t\taddress _proposalTAOId,\n\t\tstring memory _extraData)\n\t\tinternal {\n\t\t// Store the update hash key lookup\n\t\t(,,, string memory _stringValue,) = _aoSettingValue.settingValue(_settingId);\n\t\tupdateHashLookup[keccak256(abi.encodePacked(address(this), _proposalTAOId, _stringValue, _newValue, _extraData, _settingId))] = _settingId;\n\t}\n\n\t/**\n\t * @dev Store the update hash lookup for this uint256 setting\n\t * @param _settingId The ID of the setting to be updated\n\t * @param _newValue The new address value for this setting\n\t * @param _proposalTAOId The child of the associatedTAOId with the update Logos\n\t * @param _extraData Catch-all string value to be stored if exist\n\t */\n\tfunction _storeUpdateUintHashLookup(\n\t\tuint256 _settingId,\n\t\tuint256 _newValue,\n\t\taddress _proposalTAOId,\n\t\tstring memory _extraData)\n\t\tinternal {\n\t\t// Store the update hash key lookup\n\t\t(,,,, uint256 _uintValue) = _aoSettingValue.settingValue(_settingId);\n\t\tupdateHashLookup[keccak256(abi.encodePacked(address(this), _proposalTAOId, _uintValue, _newValue, _extraData, _settingId))] = _settingId;\n\t}\n\n\t/**\n\t * @dev Actual storing the UpdateSignature info\n\t * @param _settingId The ID of the setting to be updated\n\t * @param _v The V part of the signature of proposalTAOId, newValue and associatedTAOId's Advocate\n\t * @param _r The R part of the signature of proposalTAOId, newValue and associatedTAOId's Advocate\n\t * @param _s The S part of the signature of proposalTAOId, newValue and associatedTAOId's Advocate\n\t */\n\tfunction _storeUpdateSignature(uint256 _settingId, uint8 _v, bytes32 _r, bytes32 _s) internal {\n\t\tUpdateSignature storage _updateSignature = updateSignatures[_settingId];\n\t\t_updateSignature.signatureV = _v;\n\t\t_updateSignature.signatureR = _r;\n\t\t_updateSignature.signatureS = _s;\n\t}\n}\n",
  "sourcePath": "/usr/local/ao-contracts/contracts/AOSettingUpdate.sol",
  "compiler": {
    "name": "solc",
    "version": "0.5.6+commit.b259423e.Emscripten.clang"
  },
  "schemaVersion": "3.0.2",
  "updatedAt": "2019-03-28T22:28:47.400Z",
  "devdoc": {
    "methods": {
      "_verifyAndStoreUpdateUintSignature(uint256,uint256,address,uint8,bytes32,bytes32)": {
        "details": "Verify the signature for the uint256 update and store the signature info",
        "params": {
          "_newValue": "The new uint256 value for this setting",
          "_proposalTAOId": "The child of the associatedTAOId with the update Logos",
          "_r": "The R part of the signature of proposalTAOId, newValue and associatedTAOId's Advocate",
          "_s": "The S part of the signature of proposalTAOId, newValue and associatedTAOId's Advocate",
          "_settingId": "The ID of the setting to be updated",
          "_v": "The V part of the signature of proposalTAOId, newValue and associatedTAOId's Advocate"
        },
        "return": "true if valid, false otherwise"
      },
      "approveSettingUpdate(uint256,bool)": {
        "details": "Advocate of Setting's proposalTAOId approves the setting update",
        "params": {
          "_approved": "Whether to approve or reject",
          "_settingId": "The ID of the setting to be approved"
        }
      },
      "constructor": {
        "details": "Constructor function"
      },
      "finalizeSettingUpdate(uint256)": {
        "details": "Advocate of Setting's _associatedTAOId finalizes the setting update once the setting is approved",
        "params": {
          "_settingId": "The ID of the setting to be finalized"
        }
      },
      "setAOSettingAddress(address)": {
        "details": "The AO sets AOSetting address",
        "params": {
          "_aoSettingAddress": "The address of AOSetting"
        }
      },
      "setAOSettingAttributeAddress(address)": {
        "details": "The AO sets AOSettingAttribute address",
        "params": {
          "_aoSettingAttributeAddress": "The address of AOSettingAttribute"
        }
      },
      "setAOSettingValueAddress(address)": {
        "details": "The AO sets AOSettingValue address",
        "params": {
          "_aoSettingValueAddress": "The address of AOSettingValue"
        }
      },
      "setNameAccountRecoveryAddress(address)": {
        "details": "The AO set the NameAccountRecovery Address",
        "params": {
          "_nameAccountRecoveryAddress": "The address of NameAccountRecovery"
        }
      },
      "setNameFactoryAddress(address)": {
        "details": "The AO sets NameFactory address",
        "params": {
          "_nameFactoryAddress": "The address of NameFactory"
        }
      },
      "setNameTAOPositionAddress(address)": {
        "details": "The AO sets NameTAOPosition address",
        "params": {
          "_nameTAOPositionAddress": "The address of NameTAOPosition"
        }
      },
      "setWhitelist(address,bool)": {
        "details": "Whitelist `_account` address to transact on behalf of others",
        "params": {
          "_account": "The address to whitelist",
          "_whitelist": "Either to whitelist or not"
        }
      },
      "transferOwnership(address)": {
        "details": "Transfer ownership of The AO to new address",
        "params": {
          "_theAO": "The new address to be transferred"
        }
      },
      "updateAddressSetting(uint256,address,address,uint8,bytes32,bytes32,string)": {
        "details": "Advocate of Setting's _associatedTAOId submits an address setting update after an update has been proposed",
        "params": {
          "_extraData": "Catch-all string value to be stored if exist",
          "_newValue": "The new address value for this setting",
          "_proposalTAOId": "The child of the associatedTAOId with the update Logos",
          "_settingId": "The ID of the setting to be updated",
          "_signatureR": "The R part of the signature of proposalTAOId, newValue and associatedTAOId's Advocate",
          "_signatureS": "The S part of the signature of proposalTAOId, newValue and associatedTAOId's Advocate",
          "_signatureV": "The V part of the signature of proposalTAOId, newValue and associatedTAOId's Advocate"
        }
      },
      "updateBoolSetting(uint256,bool,address,uint8,bytes32,bytes32,string)": {
        "details": "Advocate of Setting's _associatedTAOId submits a bool setting update after an update has been proposed",
        "params": {
          "_extraData": "Catch-all string value to be stored if exist",
          "_newValue": "The new bool value for this setting",
          "_proposalTAOId": "The child of the associatedTAOId with the update Logos",
          "_settingId": "The ID of the setting to be updated",
          "_signatureR": "The R part of the signature of proposalTAOId, newValue and associatedTAOId's Advocate",
          "_signatureS": "The S part of the signature of proposalTAOId, newValue and associatedTAOId's Advocate",
          "_signatureV": "The V part of the signature of proposalTAOId, newValue and associatedTAOId's Advocate"
        }
      },
      "updateBytesSetting(uint256,bytes32,address,uint8,bytes32,bytes32,string)": {
        "details": "Advocate of Setting's _associatedTAOId submits a bytes32 setting update after an update has been proposed",
        "params": {
          "_extraData": "Catch-all string value to be stored if exist",
          "_newValue": "The new bytes32 value for this setting",
          "_proposalTAOId": "The child of the associatedTAOId with the update Logos",
          "_settingId": "The ID of the setting to be updated",
          "_signatureR": "The R part of the signature of proposalTAOId, newValue and associatedTAOId's Advocate",
          "_signatureS": "The S part of the signature of proposalTAOId, newValue and associatedTAOId's Advocate",
          "_signatureV": "The V part of the signature of proposalTAOId, newValue and associatedTAOId's Advocate"
        }
      },
      "updateStringSetting(uint256,string,address,uint8,bytes32,bytes32,string)": {
        "details": "Advocate of Setting's _associatedTAOId submits a string setting update after an update has been proposed",
        "params": {
          "_extraData": "Catch-all string value to be stored if exist",
          "_newValue": "The new string value for this setting",
          "_proposalTAOId": "The child of the associatedTAOId with the update Logos",
          "_settingId": "The ID of the setting to be updated",
          "_signatureR": "The R part of the signature of proposalTAOId, newValue and associatedTAOId's Advocate",
          "_signatureS": "The S part of the signature of proposalTAOId, newValue and associatedTAOId's Advocate",
          "_signatureV": "The V part of the signature of proposalTAOId, newValue and associatedTAOId's Advocate"
        }
      },
      "updateUintSetting(uint256,uint256,address,uint8,bytes32,bytes32,string)": {
        "details": "Advocate of Setting's _associatedTAOId submits a uint256 setting update after an update has been proposed",
        "params": {
          "_extraData": "Catch-all string value to be stored if exist",
          "_newValue": "The new uint256 value for this setting",
          "_proposalTAOId": "The child of the associatedTAOId with the update Logos",
          "_settingId": "The ID of the setting to be updated",
          "_signatureR": "The R part of the signature of proposalTAOId, newValue and associatedTAOId's Advocate",
          "_signatureS": "The S part of the signature of proposalTAOId, newValue and associatedTAOId's Advocate",
          "_signatureV": "The V part of the signature of proposalTAOId, newValue and associatedTAOId's Advocate"
        }
      }
    },
    "title": "AOSettingUpdate * This contract purpose is to update existing Setting Value"
  },
  "userdoc": {
    "methods": {}
  }
}