{
  "contractName": "AOSettingAttribute",
  "abi": [
    {
      "constant": true,
      "inputs": [],
      "name": "nameTAOPositionAddress",
      "outputs": [
        {
          "name": "",
          "type": "address"
        }
      ],
      "payable": false,
      "stateMutability": "view",
      "type": "function"
    },
    {
      "constant": true,
      "inputs": [
        {
          "name": "",
          "type": "address"
        }
      ],
      "name": "whitelist",
      "outputs": [
        {
          "name": "",
          "type": "bool"
        }
      ],
      "payable": false,
      "stateMutability": "view",
      "type": "function"
    },
    {
      "constant": true,
      "inputs": [],
      "name": "theAO",
      "outputs": [
        {
          "name": "",
          "type": "address"
        }
      ],
      "payable": false,
      "stateMutability": "view",
      "type": "function"
    },
    {
      "inputs": [
        {
          "name": "_nameTAOPositionAddress",
          "type": "address"
        }
      ],
      "payable": false,
      "stateMutability": "nonpayable",
      "type": "constructor"
    },
    {
      "constant": false,
      "inputs": [
        {
          "name": "_theAO",
          "type": "address"
        }
      ],
      "name": "transferOwnership",
      "outputs": [],
      "payable": false,
      "stateMutability": "nonpayable",
      "type": "function"
    },
    {
      "constant": false,
      "inputs": [
        {
          "name": "_account",
          "type": "address"
        },
        {
          "name": "_whitelist",
          "type": "bool"
        }
      ],
      "name": "setWhitelist",
      "outputs": [],
      "payable": false,
      "stateMutability": "nonpayable",
      "type": "function"
    },
    {
      "constant": false,
      "inputs": [
        {
          "name": "_nameTAOPositionAddress",
          "type": "address"
        }
      ],
      "name": "setNameTAOPositionAddress",
      "outputs": [],
      "payable": false,
      "stateMutability": "nonpayable",
      "type": "function"
    },
    {
      "constant": false,
      "inputs": [
        {
          "name": "_settingId",
          "type": "uint256"
        },
        {
          "name": "_creatorNameId",
          "type": "address"
        },
        {
          "name": "_settingName",
          "type": "string"
        },
        {
          "name": "_creatorTAOId",
          "type": "address"
        },
        {
          "name": "_associatedTAOId",
          "type": "address"
        },
        {
          "name": "_extraData",
          "type": "string"
        }
      ],
      "name": "add",
      "outputs": [
        {
          "name": "",
          "type": "bytes32"
        },
        {
          "name": "",
          "type": "bytes32"
        }
      ],
      "payable": false,
      "stateMutability": "nonpayable",
      "type": "function"
    },
    {
      "constant": true,
      "inputs": [
        {
          "name": "_settingId",
          "type": "uint256"
        }
      ],
      "name": "getSettingData",
      "outputs": [
        {
          "name": "",
          "type": "uint256"
        },
        {
          "name": "",
          "type": "address"
        },
        {
          "name": "",
          "type": "address"
        },
        {
          "name": "",
          "type": "address"
        },
        {
          "name": "",
          "type": "string"
        },
        {
          "name": "",
          "type": "bool"
        },
        {
          "name": "",
          "type": "bool"
        },
        {
          "name": "",
          "type": "bool"
        },
        {
          "name": "",
          "type": "string"
        }
      ],
      "payable": false,
      "stateMutability": "view",
      "type": "function"
    },
    {
      "constant": true,
      "inputs": [
        {
          "name": "_associatedTAOSettingId",
          "type": "bytes32"
        }
      ],
      "name": "getAssociatedTAOSetting",
      "outputs": [
        {
          "name": "",
          "type": "bytes32"
        },
        {
          "name": "",
          "type": "address"
        },
        {
          "name": "",
          "type": "uint256"
        }
      ],
      "payable": false,
      "stateMutability": "view",
      "type": "function"
    },
    {
      "constant": true,
      "inputs": [
        {
          "name": "_creatorTAOSettingId",
          "type": "bytes32"
        }
      ],
      "name": "getCreatorTAOSetting",
      "outputs": [
        {
          "name": "",
          "type": "bytes32"
        },
        {
          "name": "",
          "type": "address"
        },
        {
          "name": "",
          "type": "uint256"
        }
      ],
      "payable": false,
      "stateMutability": "view",
      "type": "function"
    },
    {
      "constant": false,
      "inputs": [
        {
          "name": "_settingId",
          "type": "uint256"
        },
        {
          "name": "_associatedTAOAdvocate",
          "type": "address"
        },
        {
          "name": "_approved",
          "type": "bool"
        }
      ],
      "name": "approveAdd",
      "outputs": [
        {
          "name": "",
          "type": "bool"
        }
      ],
      "payable": false,
      "stateMutability": "nonpayable",
      "type": "function"
    },
    {
      "constant": false,
      "inputs": [
        {
          "name": "_settingId",
          "type": "uint256"
        },
        {
          "name": "_creatorTAOAdvocate",
          "type": "address"
        }
      ],
      "name": "finalizeAdd",
      "outputs": [
        {
          "name": "",
          "type": "bool"
        }
      ],
      "payable": false,
      "stateMutability": "nonpayable",
      "type": "function"
    },
    {
      "constant": false,
      "inputs": [
        {
          "name": "_settingId",
          "type": "uint256"
        },
        {
          "name": "_associatedTAOAdvocate",
          "type": "address"
        },
        {
          "name": "_proposalTAOId",
          "type": "address"
        },
        {
          "name": "_extraData",
          "type": "string"
        }
      ],
      "name": "update",
      "outputs": [
        {
          "name": "",
          "type": "bool"
        }
      ],
      "payable": false,
      "stateMutability": "nonpayable",
      "type": "function"
    },
    {
      "constant": true,
      "inputs": [
        {
          "name": "_settingId",
          "type": "uint256"
        }
      ],
      "name": "getSettingState",
      "outputs": [
        {
          "name": "",
          "type": "uint256"
        },
        {
          "name": "",
          "type": "bool"
        },
        {
          "name": "",
          "type": "address"
        },
        {
          "name": "",
          "type": "address"
        },
        {
          "name": "",
          "type": "address"
        },
        {
          "name": "",
          "type": "string"
        }
      ],
      "payable": false,
      "stateMutability": "view",
      "type": "function"
    },
    {
      "constant": false,
      "inputs": [
        {
          "name": "_settingId",
          "type": "uint256"
        },
        {
          "name": "_proposalTAOAdvocate",
          "type": "address"
        },
        {
          "name": "_approved",
          "type": "bool"
        }
      ],
      "name": "approveUpdate",
      "outputs": [
        {
          "name": "",
          "type": "bool"
        }
      ],
      "payable": false,
      "stateMutability": "nonpayable",
      "type": "function"
    },
    {
      "constant": false,
      "inputs": [
        {
          "name": "_settingId",
          "type": "uint256"
        },
        {
          "name": "_associatedTAOAdvocate",
          "type": "address"
        }
      ],
      "name": "finalizeUpdate",
      "outputs": [
        {
          "name": "",
          "type": "bool"
        }
      ],
      "payable": false,
      "stateMutability": "nonpayable",
      "type": "function"
    },
    {
      "constant": false,
      "inputs": [
        {
          "name": "_settingId",
          "type": "uint256"
        },
        {
          "name": "_creatorNameId",
          "type": "address"
        },
        {
          "name": "_creatorTAOId",
          "type": "address"
        },
        {
          "name": "_associatedTAOId",
          "type": "address"
        },
        {
          "name": "_newSettingId",
          "type": "uint256"
        },
        {
          "name": "_newSettingContractAddress",
          "type": "address"
        }
      ],
      "name": "addDeprecation",
      "outputs": [
        {
          "name": "",
          "type": "bytes32"
        },
        {
          "name": "",
          "type": "bytes32"
        }
      ],
      "payable": false,
      "stateMutability": "nonpayable",
      "type": "function"
    },
    {
      "constant": true,
      "inputs": [
        {
          "name": "_settingId",
          "type": "uint256"
        }
      ],
      "name": "getSettingDeprecation",
      "outputs": [
        {
          "name": "",
          "type": "uint256"
        },
        {
          "name": "",
          "type": "address"
        },
        {
          "name": "",
          "type": "address"
        },
        {
          "name": "",
          "type": "address"
        },
        {
          "name": "",
          "type": "bool"
        },
        {
          "name": "",
          "type": "bool"
        },
        {
          "name": "",
          "type": "bool"
        },
        {
          "name": "",
          "type": "bool"
        },
        {
          "name": "",
          "type": "uint256"
        },
        {
          "name": "",
          "type": "uint256"
        },
        {
          "name": "",
          "type": "address"
        },
        {
          "name": "",
          "type": "address"
        }
      ],
      "payable": false,
      "stateMutability": "view",
      "type": "function"
    },
    {
      "constant": true,
      "inputs": [
        {
          "name": "_associatedTAOSettingDeprecationId",
          "type": "bytes32"
        }
      ],
      "name": "getAssociatedTAOSettingDeprecation",
      "outputs": [
        {
          "name": "",
          "type": "bytes32"
        },
        {
          "name": "",
          "type": "address"
        },
        {
          "name": "",
          "type": "uint256"
        }
      ],
      "payable": false,
      "stateMutability": "view",
      "type": "function"
    },
    {
      "constant": true,
      "inputs": [
        {
          "name": "_creatorTAOSettingDeprecationId",
          "type": "bytes32"
        }
      ],
      "name": "getCreatorTAOSettingDeprecation",
      "outputs": [
        {
          "name": "",
          "type": "bytes32"
        },
        {
          "name": "",
          "type": "address"
        },
        {
          "name": "",
          "type": "uint256"
        }
      ],
      "payable": false,
      "stateMutability": "view",
      "type": "function"
    },
    {
      "constant": false,
      "inputs": [
        {
          "name": "_settingId",
          "type": "uint256"
        },
        {
          "name": "_associatedTAOAdvocate",
          "type": "address"
        },
        {
          "name": "_approved",
          "type": "bool"
        }
      ],
      "name": "approveDeprecation",
      "outputs": [
        {
          "name": "",
          "type": "bool"
        }
      ],
      "payable": false,
      "stateMutability": "nonpayable",
      "type": "function"
    },
    {
      "constant": false,
      "inputs": [
        {
          "name": "_settingId",
          "type": "uint256"
        },
        {
          "name": "_creatorTAOAdvocate",
          "type": "address"
        }
      ],
      "name": "finalizeDeprecation",
      "outputs": [
        {
          "name": "",
          "type": "bool"
        }
      ],
      "payable": false,
      "stateMutability": "nonpayable",
      "type": "function"
    },
    {
      "constant": true,
      "inputs": [
        {
          "name": "_settingId",
          "type": "uint256"
        }
      ],
      "name": "settingExist",
      "outputs": [
        {
          "name": "",
          "type": "bool"
        }
      ],
      "payable": false,
      "stateMutability": "view",
      "type": "function"
    },
    {
      "constant": true,
      "inputs": [
        {
          "name": "_settingId",
          "type": "uint256"
        }
      ],
      "name": "getLatestSettingId",
      "outputs": [
        {
          "name": "",
          "type": "uint256"
        }
      ],
      "payable": false,
      "stateMutability": "view",
      "type": "function"
    }
  ],
  "bytecode": "0x60806040523480156200001157600080fd5b5060405160208062002e2e833981018060405260208110156200003357600080fd5b505160008054600160a060020a031916331790556200005b8164010000000062000062810204565b5062000167565b600054600154604080517ff66afcac000000000000000000000000000000000000000000000000000000008152336004820152600160a060020a0393841660248201529290911660448301525173__AOLibrary_____________________________9163f66afcac916064808301926020929190829003018186803b158015620000eb57600080fd5b505af415801562000100573d6000803e3d6000fd5b505050506040513d60208110156200011757600080fd5b505115156200012557600080fd5b600160a060020a03811615156200013b57600080fd5b60018054600160a060020a03909216600160a060020a0319928316811790915560038054909216179055565b612cb780620001776000396000f3fe608060405234801561001057600080fd5b506004361061015c5760003560e060020a9004806380c96527116100c7578063ad58a7d211610080578063ad58a7d21461066e578063c555ca1e14610760578063d79964c3146107f0578063eb10b4bd1461083c578063ed3ad43e146108c7578063f2fde38b146108f35761015c565b806380c965271461046c57806381f3e8971461048957806383fee16d146105f7578063982a2376146106235780639b19251a14610640578063a9b6b38e146106665761015c565b806353d6fd591161011957806353d6fd591461037957806353db5fdb146103a957806356b8c164146103c65780635cfaf2ef146103e35780635f39fd73146104095780637b0862e11461043d5761015c565b80632a82fdbd1461016157806346082aaf146101a9578063479564d5146101dd5780634a176017146102205780634c5598cd1461024c5780634ef033f014610355575b600080fd5b6101956004803603606081101561017757600080fd5b50803590600160a060020a0360208201351690604001351515610919565b604080519115158252519081900360200190f35b610195600480360360608110156101bf57600080fd5b50803590600160a060020a0360208201351690604001351515610a80565b6101fa600480360360208110156101f357600080fd5b5035610c3f565b60408051938452600160a060020a03909216602084015282820152519081900360600190f35b6101956004803603604081101561023657600080fd5b5080359060200135600160a060020a0316610c94565b61033c600480360360c081101561026257600080fd5b813591600160a060020a036020820135169181019060608101604082013564010000000081111561029257600080fd5b8201836020820111156102a457600080fd5b803590602001918460018302840111640100000000831117156102c657600080fd5b91939092600160a060020a03833581169360208101359091169291906060810190604001356401000000008111156102fd57600080fd5b82018360208201111561030f57600080fd5b8035906020019184600183028401116401000000008311171561033157600080fd5b509092509050610dd8565b6040805192835260208301919091528051918290030190f35b61035d610ea4565b60408051600160a060020a039092168252519081900360200190f35b6103a76004803603604081101561038f57600080fd5b50600160a060020a0381351690602001351515610eb3565b005b6101fa600480360360208110156103bf57600080fd5b5035610fb2565b6101fa600480360360208110156103dc57600080fd5b5035611007565b6103a7600480360360208110156103f957600080fd5b5035600160a060020a031661105c565b6101956004803603606081101561041f57600080fd5b50803590600160a060020a036020820135169060400135151561115c565b61045a6004803603602081101561045357600080fd5b50356112fc565b60408051918252519081900360200190f35b6101fa6004803603602081101561048257600080fd5b5035611433565b6104a66004803603602081101561049f57600080fd5b5035611488565b604051808a815260200189600160a060020a0316600160a060020a0316815260200188600160a060020a0316600160a060020a0316815260200187600160a060020a0316600160a060020a031681526020018060200186151515158152602001851515151581526020018415151515815260200180602001838103835288818151815260200191508051906020019080838360005b8381101561055357818101518382015260200161053b565b50505050905090810190601f1680156105805780820380516001836020036101000a031916815260200191505b50838103825284518152845160209182019186019080838360005b838110156105b357818101518382015260200161059b565b50505050905090810190601f1680156105e05780820380516001836020036101000a031916815260200191505b509b50505050505050505050505060405180910390f35b6101956004803603604081101561060d57600080fd5b5080359060200135600160a060020a03166116a2565b6101956004803603602081101561063957600080fd5b503561188a565b6101956004803603602081101561065657600080fd5b5035600160a060020a0316611a5f565b61035d611a74565b61068b6004803603602081101561068457600080fd5b5035611a83565b604051808781526020018615151515815260200185600160a060020a0316600160a060020a0316815260200184600160a060020a0316600160a060020a0316815260200183600160a060020a0316600160a060020a0316815260200180602001828103825283818151815260200191508051906020019080838360005b83811015610720578181015183820152602001610708565b50505050905090810190601f16801561074d5780820380516001836020036101000a031916815260200191505b5097505050505050505060405180910390f35b6101956004803603608081101561077657600080fd5b813591600160a060020a036020820135811692604083013590911691908101906080810160608201356401000000008111156107b157600080fd5b8201836020820111156107c357600080fd5b803590602001918460018302840111640100000000831117156107e557600080fd5b509092509050611bb7565b61033c600480360360c081101561080657600080fd5b50803590600160a060020a0360208201358116916040810135821691606082013581169160808101359160a09091013516612002565b6108596004803603602081101561085257600080fd5b50356121f1565b604080519c8d52600160a060020a039b8c1660208e0152998b168c8b0152978a1660608c015295151560808b015293151560a08a015291151560c0890152151560e0880152610100870152610120860152831661014085015290911661016083015251908190036101800190f35b610195600480360360408110156108dd57600080fd5b5080359060200135600160a060020a031661240a565b6103a76004803603602081101561090957600080fd5b5035600160a060020a03166125fb565b3360009081526002602052604081205460ff16151560011461093a57600080fd5b60008481526004602052604090208054851480156109615750600581015460ff1615156001145b801561097c5750600581015460ff6101009091041615156001145b80156109935750600581015462010000900460ff16155b80156109a75750600160a060020a03841615155b8015610a3e575060038054908201546040805160e060020a63fd6f4137028152600160a060020a0392831660048201529051919092169163fd6f4137916024808301926020929190829003018186803b158015610a0357600080fd5b505afa158015610a17573d6000803e3d6000fd5b505050506040513d6020811015610a2d57600080fd5b5051600160a060020a038581169116145b1515610a4957600080fd5b8215610a615760058101805461ff0019169055610a75565b60058101805462ff00ff1916620100001790555b506001949350505050565b3360009081526002602052604081205460ff161515600114610aa157600080fd5b6000848152600660205260409020805485148015610acb5750600381015460b860020a900460ff16155b8015610af85750600381015474010000000000000000000000000000000000000000900460ff1615156001145b8015610b145750600381015460a860020a900460ff1615156001145b8015610b2c5750600381015460b060020a900460ff16155b8015610b405750600160a060020a03841615155b8015610bd7575060038054908201546040805160e060020a63fd6f4137028152600160a060020a0392831660048201529051919092169163fd6f4137916024808301926020929190829003018186803b158015610b9c57600080fd5b505afa158015610bb0573d6000803e3d6000fd5b505050506040513d6020811015610bc657600080fd5b5051600160a060020a038581169116145b1515610be257600080fd5b8215610c0e5760038101805475ff00000000000000000000000000000000000000000019169055610a75565b600301805476ff00ff0000000000000000000000000000000000000000191660b060020a1790555060019392505050565b6000806000610c4c612a79565b50505060009182525060096020908152604091829020825160608101845281548082526001830154600160a060020a0316938201849052600290920154930183905292909190565b3360009081526002602052604081205460ff161515600114610cb557600080fd5b6000838152600460205260409020805484148015610cdc5750600581015460ff1615156001145b8015610cf257506005810154610100900460ff16155b8015610d095750600581015462010000900460ff16155b8015610d1d5750600160a060020a03831615155b8015610db4575060035460028201546040805160e060020a63fd6f4137028152600160a060020a0392831660048201529051919092169163fd6f4137916024808301926020929190829003018186803b158015610d7957600080fd5b505afa158015610d8d573d6000803e3d6000fd5b505050506040513d6020811015610da357600080fd5b5051600160a060020a038481169116145b1515610dbf57600080fd5b600501805461ffff191661010017905550600192915050565b33600090815260026020526040812054819060ff161515600114610dfb57600080fd5b610e748a8a8a8a8080601f01602080910402602001604051908101604052809392919081815260200183838082843760009201919091525050604080516020601f8c018190048102820181019092528a81528d93508c9250908b908b90819084018382808284376000920191909152506126f192505050565b1515610e7f57600080fd5b610e89858b6127ac565b610e93878c612831565b915091509850989650505050505050565b600154600160a060020a031681565b600054600154604080517ff66afcac000000000000000000000000000000000000000000000000000000008152336004820152600160a060020a0393841660248201529290911660448301525173__AOLibrary_____________________________9163f66afcac916064808301926020929190829003018186803b158015610f3b57600080fd5b505af4158015610f4f573d6000803e3d6000fd5b505050506040513d6020811015610f6557600080fd5b50511515610f7257600080fd5b600160a060020a0382161515610f8757600080fd5b600160a060020a03919091166000908152600260205260409020805460ff1916911515919091179055565b6000806000610fbf612a79565b505050600091825250600a6020908152604091829020825160608101845281548082526001830154600160a060020a0316938201849052600290920154930183905292909190565b6000806000611014612a79565b50505060009182525060086020908152604091829020825160608101845281548082526001830154600160a060020a0316938201849052600290920154930183905292909190565b600054600154604080517ff66afcac000000000000000000000000000000000000000000000000000000008152336004820152600160a060020a0393841660248201529290911660448301525173__AOLibrary_____________________________9163f66afcac916064808301926020929190829003018186803b1580156110e457600080fd5b505af41580156110f8573d6000803e3d6000fd5b505050506040513d602081101561110e57600080fd5b5051151561111b57600080fd5b600160a060020a038116151561113057600080fd5b60018054600160a060020a03909216600160a060020a0319928316811790915560038054909216179055565b3360009081526002602052604081205460ff16151560011461117d57600080fd5b60008481526004602052604090208054851480156111a05750600581015460ff16155b80156111bb5750600581015460ff6101009091041615156001145b80156111d25750600581015462010000900460ff16155b15156111dd57600080fd5b6000858152600560205260409020805486148015611203575060018082015460ff161515145b80156112175750600160a060020a03851615155b80156112ae575060035460028201546040805160e060020a63fd6f4137028152600160a060020a0392831660048201529051919092169163fd6f4137916024808301926020929190829003018186803b15801561127357600080fd5b505afa158015611287573d6000803e3d6000fd5b505050506040513d602081101561129d57600080fd5b5051600160a060020a038681169116145b15156112b957600080fd5b83156112d15760058201805461ff00191690556112f0565b60018101805460ff19169055600281018054600160a060020a03191690555b50600195945050505050565b60008082905060008030600160a060020a031663eb10b4bd846040518263ffffffff1660e060020a028152600401808281526020019150506101806040518083038186803b15801561134d57600080fd5b505afa158015611361573d6000803e3d6000fd5b505050506040513d61018081101561137857600080fd5b5060e08101516101209091015190925090505b8180156113985750600081115b1561142a5780925030600160a060020a031663eb10b4bd846040518263ffffffff1660e060020a028152600401808281526020019150506101806040518083038186803b1580156113e857600080fd5b505afa1580156113fc573d6000803e3d6000fd5b505050506040513d61018081101561141357600080fd5b5060e081015161012090910151909250905061138b565b50909392505050565b6000806000611440612a79565b50505060009182525060076020908152604091829020825160608101845281548082526001830154600160a060020a0316938201849052600290920154930183905292909190565b60008060008060606000806000606061149f612a99565b60008b81526004602081815260409283902083516101208101855281548152600180830154600160a060020a039081168386015260028085015482168489015260038501549091166060840152948301805487516101009382161593909302600019011695909504601f8101859004850282018501909652858152909491936080860193919290918301828280156115785780601f1061154d57610100808354040283529160200191611578565b820191906000526020600020905b81548152906001019060200180831161155b57829003601f168201915b5050509183525050600582015460ff80821615156020808501919091526101008084048316151560408087019190915262010000909404909216151560608501526006850180548451600260018316159095026000190190911693909304601f81018390048302840183019094528383526080909401939192908301828280156116435780601f1061161857610100808354040283529160200191611643565b820191906000526020600020905b81548152906001019060200180831161162657829003601f168201915b5050505050815250509050806000015181602001518260400151836060015184608001518560a001518660c001518760e00151886101000151849450809050995099509950995099509950995099509950509193959799909294969850565b3360009081526002602052604081205460ff1615156001146116c357600080fd5b60008381526004602052604090208054841480156116e65750600581015460ff16155b80156116fc57506005810154610100900460ff16155b80156117135750600581015462010000900460ff16155b80156117275750600160a060020a03831615155b80156117be575060038054908201546040805160e060020a63fd6f4137028152600160a060020a0392831660048201529051919092169163fd6f4137916024808301926020929190829003018186803b15801561178357600080fd5b505afa158015611797573d6000803e3d6000fd5b505050506040513d60208110156117ad57600080fd5b5051600160a060020a038481169116145b15156117c957600080fd5b60008481526005602052604090208054851480156117ef575060018082015460ff161515145b801561180757506002810154600160a060020a031615155b151561181257600080fd5b6005909101805461ff00191661010090811790915560018281018054600160a060020a0380881690940274ffffffffffffffffffffffffffffffffffffffffff19909116179055600283018054600160a060020a03198082169092556003909401805490911693909216929092179055905092915050565b6000611894612a99565b60008381526004602081815260409283902083516101208101855281548152600180830154600160a060020a039081168386015260028085015482168489015260038501549091166060840152948301805487516101009382161593909302600019011695909504601f81018590048502820185019096528581529094919360808601939192909183018282801561196d5780601f106119425761010080835404028352916020019161196d565b820191906000526020600020905b81548152906001019060200180831161195057829003601f168201915b5050509183525050600582015460ff80821615156020808501919091526101008084048316151560408087019190915262010000909404909216151560608501526006850180548451600260018316159095026000190190911693909304601f8101839004830284018301909452838352608090940193919290830182828015611a385780601f10611a0d57610100808354040283529160200191611a38565b820191906000526020600020905b815481529060010190602001808311611a1b57829003601f168201915b5050505050815250509050828160000151148015611a58575060e0810151155b9392505050565b60026020526000908152604090205460ff1681565b600054600160a060020a031681565b60008060008060006060611a95612ae7565b600088815260056020908152604091829020825160c0810184528154815260018083015460ff811615158386015261010090819004600160a060020a039081168488015260028086015482166060860152600386015490911660808501526004850180548851948116159093026000190190921604601f81018690048602830186019096528582529194929360a086019391929190830182828015611b7b5780601f10611b5057610100808354040283529160200191611b7b565b820191906000526020600020905b815481529060010190602001808311611b5e57829003601f168201915b5050509190925250508151602083015160408401516060850151608086015160a090960151939e929d50909b5099509297509550909350505050565b3360009081526002602052604081205460ff161515600114611bd857600080fd5b611be0612a99565b60008781526004602081815260409283902083516101208101855281548152600180830154600160a060020a039081168386015260028085015482168489015260038501549091166060840152948301805487516101009382161593909302600019011695909504601f810185900485028201850190965285815290949193608086019391929091830182828015611cb95780601f10611c8e57610100808354040283529160200191611cb9565b820191906000526020600020905b815481529060010190602001808311611c9c57829003601f168201915b5050509183525050600582015460ff80821615156020808501919091526101008084048316151560408087019190915262010000909404909216151560608501526006850180548451600260018316159095026000190190911693909304601f8101839004830284018301909452838352608090940193919290830182828015611d845780601f10611d5957610100808354040283529160200191611d84565b820191906000526020600020905b815481529060010190602001808311611d6757829003601f168201915b5050505050815250509050868160000151148015611da4575060a0810151155b8015611db6575060c081015115156001145b8015611dc4575060e0810151155b8015611dd85750600160a060020a03861615155b8015611e6f575060035460608201516040805160e060020a63fd6f4137028152600160a060020a0392831660048201529051919092169163fd6f4137916024808301926020929190829003018186803b158015611e3457600080fd5b505afa158015611e48573d6000803e3d6000fd5b505050506040513d6020811015611e5e57600080fd5b5051600160a060020a038781169116145b1515611e7a57600080fd5b6000878152600560205260409020600181015460ff1615611e9a57600080fd5b611ea2612b1e565b5060008881526006602081815260409283902083516101808101855281548082526001830154600160a060020a039081169483019490945260028301548416958201959095526003820154808416606083015260ff74010000000000000000000000000000000000000000820481161515608084015260a860020a82048116151560a084015260b060020a82048116151560c084015260b860020a90910416151560e082015260048201546101008201526005820154610120820152928101548216610140840152600701541661016082015290891415611f8c5760e081015115611f8c57600080fd5b6001828101805460ff191690911774ffffffffffffffffffffffffffffffffffffffff001916610100600160a060020a038b81169190910291909117909155600283018054600160a060020a031916918916919091179055611ff2600483018787612b82565b5060019998505050505050505050565b33600090815260026020526040812054819060ff16151560011461202557600080fd5b6120338888888888886128b6565b151561203e57600080fd5b600030868a6040516020018084600160a060020a0316600160a060020a03166c0100000000000000000000000002815260140183600160a060020a0316600160a060020a03166c0100000000000000000000000002815260140182815260200193505050506040516020818303038152906040528051906020012090506000600960008381526020019081526020016000209050818160000181905550868160010160006101000a815481600160a060020a030219169083600160a060020a03160217905550898160020181905550600030898c6040516020018084600160a060020a0316600160a060020a03166c0100000000000000000000000002815260140183600160a060020a0316600160a060020a03166c0100000000000000000000000002815260140182815260200193505050506040516020818303038152906040528051906020012090506000600a60008381526020019081526020016000209050818160000181905550898160010160006101000a815481600160a060020a030219169083600160a060020a031602179055508b816002018190555083829550955050505050965096945050505050565b60008060008060008060008060008060008061220b612b1e565b600660008f81526020019081526020016000206101806040519081016040529081600082015481526020016001820160009054906101000a9004600160a060020a0316600160a060020a0316600160a060020a031681526020016002820160009054906101000a9004600160a060020a0316600160a060020a0316600160a060020a031681526020016003820160009054906101000a9004600160a060020a0316600160a060020a0316600160a060020a031681526020016003820160149054906101000a900460ff161515151581526020016003820160159054906101000a900460ff161515151581526020016003820160169054906101000a900460ff161515151581526020016003820160179054906101000a900460ff1615151515815260200160048201548152602001600582015481526020016006820160009054906101000a9004600160a060020a0316600160a060020a0316600160a060020a031681526020016007820160009054906101000a9004600160a060020a0316600160a060020a0316600160a060020a0316815250509050806000015181602001518260400151836060015184608001518560a001518660c001518760e001518861010001518961012001518a61014001518b61016001519c509c509c509c509c509c509c509c509c509c509c509c505091939597999b5091939597999b565b3360009081526002602052604081205460ff16151560011461242b57600080fd5b60008381526006602052604090208054841480156124555750600381015460b860020a900460ff16155b80156124825750600381015474010000000000000000000000000000000000000000900460ff1615156001145b801561249a5750600381015460a860020a900460ff16155b80156124b25750600381015460b060020a900460ff16155b80156124c65750600160a060020a03831615155b801561255d575060035460028201546040805160e060020a63fd6f4137028152600160a060020a0392831660048201529051919092169163fd6f4137916024808301926020929190829003018186803b15801561252257600080fd5b505afa158015612536573d6000803e3d6000fd5b505050506040513d602081101561254c57600080fd5b5051600160a060020a038481169116145b151561256857600080fd5b60038101805477ff00000000000000000000000000000000000000000000001975ffff00000000000000000000000000000000000000001990911660a860020a171660b860020a17905560048101805460009091556005820155600681018054600160a060020a031980821690925560079092018054909116600160a060020a0390921691909117905550600192915050565b600054600154604080517ff66afcac000000000000000000000000000000000000000000000000000000008152336004820152600160a060020a0393841660248201529290911660448301525173__AOLibrary_____________________________9163f66afcac916064808301926020929190829003018186803b15801561268357600080fd5b505af4158015612697573d6000803e3d6000fd5b505050506040513d60208110156126ad57600080fd5b505115156126ba57600080fd5b600160a060020a03811615156126cf57600080fd5b60008054600160a060020a031916600160a060020a0392909216919091179055565b60008681526004602081815260408320898155600181018054600160a060020a03808c16600160a060020a0319928316179092556002830180548a8416908316179055600383018054928916929091169190911790558751909261275c929084019190890190612c00565b5060058101805461ff001960ff1990911660011716610100179055825161278c9060068301906020860190612c00565b505050600086815260056020526040902086905560019695505050505050565b604080516c01000000000000000000000000308102602080840191909152600160a060020a0386169182026034840152604880840186905284518085039091018152606890930184528251928101929092206000818152600790935292909120828155600181018054600160a060020a03191690921790915560020182905592915050565b604080516c01000000000000000000000000308102602080840191909152600160a060020a0386169182026034840152604880840186905284518085039091018152606890930184528251928101929092206000818152600890935292909120828155600181018054600160a060020a03191690921790915560020182905592915050565b600086815260046020526040812060010154600160a060020a0316158015906128f7575060008781526004602052604090206005015462010000900460ff16155b8015612915575060008781526004602052604090206005015460ff16155b151561292057600080fd5b600087815260066020526040902060010154600160a060020a03161561294557600080fd5b600083815260046020526040902060010154600160a060020a031615801590612986575060008381526004602052604090206005015462010000900460ff16155b80156129a4575060008381526004602052604090206005015460ff16155b15156129af57600080fd5b50600086815260066020819052604090912096875560018088018054600160a060020a0319908116600160a060020a03998a161790915560028901805482169789169790971790965560038801805460a860020a74010000000000000000000000000000000000000000918916978a169790971774ff000000000000000000000000000000000000000019161775ff000000000000000000000000000000000000000000191695909517909455600487019290925594018054909216939092169290921790915590565b604080516060810182526000808252602082018190529181019190915290565b604080516101208101825260008082526020820181905291810182905260608082018390526080820181905260a0820183905260c0820183905260e082019290925261010081019190915290565b6040805160c0810182526000808252602082018190529181018290526060808201839052608082019290925260a081019190915290565b6040805161018081018252600080825260208201819052918101829052606081018290526080810182905260a0810182905260c0810182905260e0810182905261010081018290526101208101829052610140810182905261016081019190915290565b828054600181600116156101000203166002900490600052602060002090601f016020900481019282601f10612bc35782800160ff19823516178555612bf0565b82800160010185558215612bf0579182015b82811115612bf0578235825591602001919060010190612bd5565b50612bfc929150612c6e565b5090565b828054600181600116156101000203166002900490600052602060002090601f016020900481019282601f10612c4157805160ff1916838001178555612bf0565b82800160010185558215612bf0579182015b82811115612bf0578251825591602001919060010190612c53565b612c8891905b80821115612bfc5760008155600101612c74565b9056fea165627a7a72305820370895f9f3a22ae609a341665df2c345cc3e58b9df0586c293b191c3fcba0c2f0029",
  "source": "pragma solidity ^0.5.4;\n\nimport './AOLibrary.sol';\nimport \"./TheAO.sol\";\nimport './IAOSettingAttribute.sol';\nimport './INameTAOPosition.sol';\n\n/**\n * @title AOSettingAttribute\n *\n * This contract stores all AO setting data/state\n */\ncontract AOSettingAttribute is TheAO, IAOSettingAttribute {\n\tINameTAOPosition internal _nameTAOPosition;\n\n\tstruct SettingData {\n\t\tuint256 settingId;\t\t\t\t// Identifier of this setting\n\t\taddress creatorNameId;\t\t\t// The nameId that created the setting\n\t\taddress creatorTAOId;\t\t// The taoId that created the setting\n\t\taddress associatedTAOId;\t// The taoId that the setting affects\n\t\tstring settingName;\t\t\t\t// The human-readable name of the setting\n\t\tbool pendingCreate;\t\t\t\t// State when associatedTAOId has not accepted setting\n\t\tbool locked;\t\t\t\t\t// State when pending anything (cannot change if locked)\n\t\tbool rejected;\t\t\t\t\t// State when associatedTAOId rejected this setting\n\t\tstring settingDataJSON;\t\t\t// Catch-all\n\t}\n\n\tstruct SettingState {\n\t\tuint256 settingId;\t\t\t\t// Identifier of this setting\n\t\tbool pendingUpdate;\t\t\t\t// State when setting is in process of being updated\n\t\taddress updateAdvocateNameId;\t// The nameId of the Advocate that performed the update\n\n\t\t/**\n\t\t * A child of the associatedTAOId with the update Logos.\n\t\t * This tells the setting contract that there is a proposal TAO that is a Child TAO\n\t\t * of the associated TAO, which will be responsible for deciding if the update to the\n\t\t * setting is accepted or rejected.\n\t\t */\n\t\taddress proposalTAOId;\n\n\t\t/**\n\t\t * The proposalTAOId moves here when setting value changes successfully\n\t\t */\n\t\taddress lastUpdateTAOId;\n\n\t\tstring settingStateJSON;\t\t// Catch-all\n\t}\n\n\tstruct SettingDeprecation {\n\t\tuint256 settingId;\t\t\t\t// Identifier of this setting\n\t\taddress creatorNameId;\t\t\t// The nameId that created this deprecation\n\t\taddress creatorTAOId;\t\t// The taoId that created this deprecation\n\t\taddress associatedTAOId;\t// The taoId that the setting affects\n\t\tbool pendingDeprecated;\t\t\t// State when associatedTAOId has not accepted setting\n\t\tbool locked;\t\t\t\t\t// State when pending anything (cannot change if locked)\n\t\tbool rejected;\t\t\t\t\t// State when associatedTAOId rejected this setting\n\t\tbool migrated;\t\t\t\t\t// State when this setting is fully migrated\n\n\t\t// holds the pending new settingId value when a deprecation is set\n\t\tuint256 pendingNewSettingId;\n\n\t\t// holds the new settingId that has been approved by associatedTAOId\n\t\tuint256 newSettingId;\n\n\t\t// holds the pending new contract address for this setting\n\t\taddress pendingNewSettingContractAddress;\n\n\t\t// holds the new contract address for this setting\n\t\taddress newSettingContractAddress;\n\t}\n\n\tstruct AssociatedTAOSetting {\n\t\tbytes32 associatedTAOSettingId;\t\t// Identifier\n\t\taddress associatedTAOId;\t\t\t// The TAO ID that the setting is associated to\n\t\tuint256 settingId;\t\t\t\t\t\t// The Setting ID that is associated with the TAO ID\n\t}\n\n\tstruct CreatorTAOSetting {\n\t\tbytes32 creatorTAOSettingId;\t\t// Identifier\n\t\taddress creatorTAOId;\t\t\t\t// The TAO ID that the setting was created from\n\t\tuint256 settingId;\t\t\t\t\t\t// The Setting ID created from the TAO ID\n\t}\n\n\tstruct AssociatedTAOSettingDeprecation {\n\t\tbytes32 associatedTAOSettingDeprecationId;\t\t// Identifier\n\t\taddress associatedTAOId;\t\t\t\t\t\t// The TAO ID that the setting is associated to\n\t\tuint256 settingId;\t\t\t\t\t\t\t\t\t// The Setting ID that is associated with the TAO ID\n\t}\n\n\tstruct CreatorTAOSettingDeprecation {\n\t\tbytes32 creatorTAOSettingDeprecationId;\t\t\t// Identifier\n\t\taddress creatorTAOId;\t\t\t\t\t\t\t// The TAO ID that the setting was created from\n\t\tuint256 settingId;\t\t\t\t\t\t\t\t\t// The Setting ID created from the TAO ID\n\t}\n\n\t// Mapping from settingId to it's data\n\tmapping (uint256 => SettingData) internal settingDatas;\n\n\t// Mapping from settingId to it's state\n\tmapping (uint256 => SettingState) internal settingStates;\n\n\t// Mapping from settingId to it's deprecation info\n\tmapping (uint256 => SettingDeprecation) internal settingDeprecations;\n\n\t// Mapping from associatedTAOSettingId to AssociatedTAOSetting\n\tmapping (bytes32 => AssociatedTAOSetting) internal associatedTAOSettings;\n\n\t// Mapping from creatorTAOSettingId to CreatorTAOSetting\n\tmapping (bytes32 => CreatorTAOSetting) internal creatorTAOSettings;\n\n\t// Mapping from associatedTAOSettingDeprecationId to AssociatedTAOSettingDeprecation\n\tmapping (bytes32 => AssociatedTAOSettingDeprecation) internal associatedTAOSettingDeprecations;\n\n\t// Mapping from creatorTAOSettingDeprecationId to CreatorTAOSettingDeprecation\n\tmapping (bytes32 => CreatorTAOSettingDeprecation) internal creatorTAOSettingDeprecations;\n\n\t/**\n\t * @dev Constructor function\n\t */\n\tconstructor(address _nameTAOPositionAddress) public {\n\t\tsetNameTAOPositionAddress(_nameTAOPositionAddress);\n\t}\n\n\t/**\n\t * @dev Checks if the calling contract address is The AO\n\t *\t\tOR\n\t *\t\tIf The AO is set to a Name/TAO, then check if calling address is the Advocate\n\t */\n\tmodifier onlyTheAO {\n\t\trequire (AOLibrary.isTheAO(msg.sender, theAO, nameTAOPositionAddress));\n\t\t_;\n\t}\n\n\t/***** The AO ONLY METHODS *****/\n\t/**\n\t * @dev Transfer ownership of The AO to new address\n\t * @param _theAO The new address to be transferred\n\t */\n\tfunction transferOwnership(address _theAO) public onlyTheAO {\n\t\trequire (_theAO != address(0));\n\t\ttheAO = _theAO;\n\t}\n\n\t/**\n\t * @dev Whitelist `_account` address to transact on behalf of others\n\t * @param _account The address to whitelist\n\t * @param _whitelist Either to whitelist or not\n\t */\n\tfunction setWhitelist(address _account, bool _whitelist) public onlyTheAO {\n\t\trequire (_account != address(0));\n\t\twhitelist[_account] = _whitelist;\n\t}\n\n\t/**\n\t * @dev The AO sets NameTAOPosition address\n\t * @param _nameTAOPositionAddress The address of NameTAOPosition\n\t */\n\tfunction setNameTAOPositionAddress(address _nameTAOPositionAddress) public onlyTheAO {\n\t\trequire (_nameTAOPositionAddress != address(0));\n\t\tnameTAOPositionAddress = _nameTAOPositionAddress;\n\t\t_nameTAOPosition = INameTAOPosition(_nameTAOPositionAddress);\n\t}\n\n\t/***** PUBLIC METHODS *****/\n\t/**\n\t * @dev Add setting data/state\n\t * @param _settingId The ID of the setting\n\t * @param _creatorNameId The nameId that created the setting\n\t * @param _settingName The human-readable name of the setting\n\t * @param _creatorTAOId The taoId that created the setting\n\t * @param _associatedTAOId The taoId that the setting affects\n\t * @param _extraData Catch-all string value to be stored if exist\n\t * @return The ID of the \"Associated\" setting\n\t * @return The ID of the \"Creator\" setting\n\t */\n\tfunction add(uint256 _settingId, address _creatorNameId, string calldata _settingName, address _creatorTAOId, address _associatedTAOId, string calldata _extraData) external inWhitelist returns (bytes32, bytes32) {\n\t\t// Store setting data/state\n\t\trequire (_storeSettingDataState(_settingId, _creatorNameId, _settingName, _creatorTAOId, _associatedTAOId, _extraData));\n\n\t\t// Store the associatedTAOSetting/creatorTAOSetting info\n\t\treturn (\n\t\t\t_storeAssociatedTAOSetting(_associatedTAOId, _settingId),\n\t\t\t_storeCreatorTAOSetting(_creatorTAOId, _settingId)\n\t\t);\n\t}\n\n\t/**\n\t * @dev Get Setting Data of a setting ID\n\t * @param _settingId The ID of the setting\n\t */\n\tfunction getSettingData(uint256 _settingId) external view returns (uint256, address, address, address, string memory, bool, bool, bool, string memory) {\n\t\tSettingData memory _settingData = settingDatas[_settingId];\n\t\treturn (\n\t\t\t_settingData.settingId,\n\t\t\t_settingData.creatorNameId,\n\t\t\t_settingData.creatorTAOId,\n\t\t\t_settingData.associatedTAOId,\n\t\t\t_settingData.settingName,\n\t\t\t_settingData.pendingCreate,\n\t\t\t_settingData.locked,\n\t\t\t_settingData.rejected,\n\t\t\t_settingData.settingDataJSON\n\t\t);\n\t}\n\n\t/**\n\t * @dev Get Associated TAO Setting info\n\t * @param _associatedTAOSettingId The ID of the associated tao setting\n\t */\n\tfunction getAssociatedTAOSetting(bytes32 _associatedTAOSettingId) public view returns (bytes32, address, uint256) {\n\t\tAssociatedTAOSetting memory _associatedTAOSetting = associatedTAOSettings[_associatedTAOSettingId];\n\t\treturn (\n\t\t\t_associatedTAOSetting.associatedTAOSettingId,\n\t\t\t_associatedTAOSetting.associatedTAOId,\n\t\t\t_associatedTAOSetting.settingId\n\t\t);\n\t}\n\n\t/**\n\t * @dev Get Creator TAO Setting info\n\t * @param _creatorTAOSettingId The ID of the creator tao setting\n\t */\n\tfunction getCreatorTAOSetting(bytes32 _creatorTAOSettingId) public view returns (bytes32, address, uint256) {\n\t\tCreatorTAOSetting memory _creatorTAOSetting = creatorTAOSettings[_creatorTAOSettingId];\n\t\treturn (\n\t\t\t_creatorTAOSetting.creatorTAOSettingId,\n\t\t\t_creatorTAOSetting.creatorTAOId,\n\t\t\t_creatorTAOSetting.settingId\n\t\t);\n\t}\n\n\t/**\n\t * @dev Advocate of Setting's _associatedTAOId approves setting creation\n\t * @param _settingId The ID of the setting to approve\n\t * @param _associatedTAOAdvocate The advocate of the associated TAO\n\t * @param _approved Whether to approve or reject\n\t * @return true on success\n\t */\n\tfunction approveAdd(uint256 _settingId, address _associatedTAOAdvocate, bool _approved) external inWhitelist returns (bool) {\n\t\t// Make sure setting exists and needs approval\n\t\tSettingData storage _settingData = settingDatas[_settingId];\n\t\trequire (_settingData.settingId == _settingId &&\n\t\t\t_settingData.pendingCreate == true &&\n\t\t\t_settingData.locked == true &&\n\t\t\t_settingData.rejected == false &&\n\t\t\t_associatedTAOAdvocate != address(0) &&\n\t\t\t_associatedTAOAdvocate == _nameTAOPosition.getAdvocate(_settingData.associatedTAOId)\n\t\t);\n\n\t\tif (_approved) {\n\t\t\t// Unlock the setting so that advocate of creatorTAOId can finalize the creation\n\t\t\t_settingData.locked = false;\n\t\t} else {\n\t\t\t// Reject the setting\n\t\t\t_settingData.pendingCreate = false;\n\t\t\t_settingData.rejected = true;\n\t\t}\n\n\t\treturn true;\n\t}\n\n\t/**\n\t * @dev Advocate of Setting's _creatorTAOId finalizes the setting creation once the setting is approved\n\t * @param _settingId The ID of the setting to be finalized\n\t * @param _creatorTAOAdvocate The advocate of the creator TAO\n\t * @return true on success\n\t */\n\tfunction finalizeAdd(uint256 _settingId, address _creatorTAOAdvocate) external inWhitelist returns (bool) {\n\t\t// Make sure setting exists and needs approval\n\t\tSettingData storage _settingData = settingDatas[_settingId];\n\t\trequire (_settingData.settingId == _settingId &&\n\t\t\t_settingData.pendingCreate == true &&\n\t\t\t_settingData.locked == false &&\n\t\t\t_settingData.rejected == false &&\n\t\t\t_creatorTAOAdvocate != address(0) &&\n\t\t\t_creatorTAOAdvocate == _nameTAOPosition.getAdvocate(_settingData.creatorTAOId)\n\t\t);\n\n\t\t// Update the setting data\n\t\t_settingData.pendingCreate = false;\n\t\t_settingData.locked = true;\n\n\t\treturn true;\n\t}\n\n\t/**\n\t * @dev Store setting update data\n\t * @param _settingId The ID of the setting to be updated\n\t * @param _associatedTAOAdvocate The setting's associatedTAOId's advocate's name address\n\t * @param _proposalTAOId The child of the associatedTAOId with the update Logos\n\t * @param _extraData Catch-all string value to be stored if exist\n\t * @return true on success\n\t */\n\tfunction update(uint256 _settingId, address _associatedTAOAdvocate, address _proposalTAOId, string calldata _extraData) external inWhitelist returns (bool) {\n\t\t// Make sure setting is created\n\t\tSettingData memory _settingData = settingDatas[_settingId];\n\t\trequire (_settingData.settingId == _settingId &&\n\t\t\t_settingData.pendingCreate == false &&\n\t\t\t_settingData.locked == true &&\n\t\t\t_settingData.rejected == false &&\n\t\t\t_associatedTAOAdvocate != address(0) &&\n\t\t\t_associatedTAOAdvocate == _nameTAOPosition.getAdvocate(_settingData.associatedTAOId)\n\t\t);\n\n\t\t// Make sure setting is not in the middle of updating\n\t\tSettingState storage _settingState = settingStates[_settingId];\n\t\trequire (_settingState.pendingUpdate == false);\n\n\t\t// Make sure setting is not yet deprecated\n\t\tSettingDeprecation memory _settingDeprecation = settingDeprecations[_settingId];\n\t\tif (_settingDeprecation.settingId == _settingId) {\n\t\t\trequire (_settingDeprecation.migrated == false);\n\t\t}\n\n\t\t// Store the SettingState data\n\t\t_settingState.pendingUpdate = true;\n\t\t_settingState.updateAdvocateNameId = _associatedTAOAdvocate;\n\t\t_settingState.proposalTAOId = _proposalTAOId;\n\t\t_settingState.settingStateJSON = _extraData;\n\n\t\treturn true;\n\t}\n\n\t/**\n\t * @dev Get setting state\n\t * @param _settingId The ID of the setting\n\t */\n\tfunction getSettingState(uint256 _settingId) external view returns (uint256, bool, address, address, address, string memory) {\n\t\tSettingState memory _settingState = settingStates[_settingId];\n\t\treturn (\n\t\t\t_settingState.settingId,\n\t\t\t_settingState.pendingUpdate,\n\t\t\t_settingState.updateAdvocateNameId,\n\t\t\t_settingState.proposalTAOId,\n\t\t\t_settingState.lastUpdateTAOId,\n\t\t\t_settingState.settingStateJSON\n\t\t);\n\t}\n\n\t/**\n\t * @dev Advocate of Setting's proposalTAOId approves the setting update\n\t * @param _settingId The ID of the setting to be approved\n\t * @param _proposalTAOAdvocate The advocate of the proposal TAO\n\t * @param _approved Whether to approve or reject\n\t * @return true on success\n\t */\n\tfunction approveUpdate(uint256 _settingId, address _proposalTAOAdvocate, bool _approved) external inWhitelist returns (bool) {\n\t\t// Make sure setting is created\n\t\tSettingData storage _settingData = settingDatas[_settingId];\n\t\trequire (_settingData.settingId == _settingId && _settingData.pendingCreate == false && _settingData.locked == true && _settingData.rejected == false);\n\n\t\t// Make sure setting update exists and needs approval\n\t\tSettingState storage _settingState = settingStates[_settingId];\n\t\trequire (_settingState.settingId == _settingId &&\n\t\t\t_settingState.pendingUpdate == true &&\n\t\t\t_proposalTAOAdvocate != address(0) &&\n\t\t\t_proposalTAOAdvocate == _nameTAOPosition.getAdvocate(_settingState.proposalTAOId)\n\t\t);\n\n\t\tif (_approved) {\n\t\t\t// Unlock the setting so that advocate of associatedTAOId can finalize the update\n\t\t\t_settingData.locked = false;\n\t\t} else {\n\t\t\t// Set pendingUpdate to false\n\t\t\t_settingState.pendingUpdate = false;\n\t\t\t_settingState.proposalTAOId = address(0);\n\t\t}\n\t\treturn true;\n\t}\n\n\t/**\n\t * @dev Advocate of Setting's _associatedTAOId finalizes the setting update once the setting is approved\n\t * @param _settingId The ID of the setting to be finalized\n\t * @param _associatedTAOAdvocate The advocate of the associated TAO\n\t * @return true on success\n\t */\n\tfunction finalizeUpdate(uint256 _settingId, address _associatedTAOAdvocate) external inWhitelist returns (bool) {\n\t\t// Make sure setting is created\n\t\tSettingData storage _settingData = settingDatas[_settingId];\n\t\trequire (_settingData.settingId == _settingId &&\n\t\t\t_settingData.pendingCreate == false &&\n\t\t\t_settingData.locked == false &&\n\t\t\t_settingData.rejected == false &&\n\t\t\t_associatedTAOAdvocate != address(0) &&\n\t\t\t_associatedTAOAdvocate == _nameTAOPosition.getAdvocate(_settingData.associatedTAOId)\n\t\t);\n\n\t\t// Make sure setting update exists and needs approval\n\t\tSettingState storage _settingState = settingStates[_settingId];\n\t\trequire (_settingState.settingId == _settingId && _settingState.pendingUpdate == true && _settingState.proposalTAOId != address(0));\n\n\t\t// Update the setting data\n\t\t_settingData.locked = true;\n\n\t\t// Update the setting state\n\t\t_settingState.pendingUpdate = false;\n\t\t_settingState.updateAdvocateNameId = _associatedTAOAdvocate;\n\t\taddress _proposalTAOId = _settingState.proposalTAOId;\n\t\t_settingState.proposalTAOId = address(0);\n\t\t_settingState.lastUpdateTAOId = _proposalTAOId;\n\n\t\treturn true;\n\t}\n\n\t/**\n\t * @dev Add setting deprecation\n\t * @param _settingId The ID of the setting\n\t * @param _creatorNameId The nameId that created the setting\n\t * @param _creatorTAOId The taoId that created the setting\n\t * @param _associatedTAOId The taoId that the setting affects\n\t * @param _newSettingId The new settingId value to route\n\t * @param _newSettingContractAddress The address of the new setting contract to route\n\t * @return The ID of the \"Associated\" setting deprecation\n\t * @return The ID of the \"Creator\" setting deprecation\n\t */\n\tfunction addDeprecation(uint256 _settingId, address _creatorNameId, address _creatorTAOId, address _associatedTAOId, uint256 _newSettingId, address _newSettingContractAddress) external inWhitelist returns (bytes32, bytes32) {\n\t\trequire (_storeSettingDeprecation(_settingId, _creatorNameId, _creatorTAOId, _associatedTAOId, _newSettingId, _newSettingContractAddress));\n\n\t\t// Store the associatedTAOSettingDeprecation info\n\t\tbytes32 _associatedTAOSettingDeprecationId = keccak256(abi.encodePacked(this, _associatedTAOId, _settingId));\n\t\tAssociatedTAOSettingDeprecation storage _associatedTAOSettingDeprecation = associatedTAOSettingDeprecations[_associatedTAOSettingDeprecationId];\n\t\t_associatedTAOSettingDeprecation.associatedTAOSettingDeprecationId = _associatedTAOSettingDeprecationId;\n\t\t_associatedTAOSettingDeprecation.associatedTAOId = _associatedTAOId;\n\t\t_associatedTAOSettingDeprecation.settingId = _settingId;\n\n\t\t// Store the creatorTAOSettingDeprecation info\n\t\tbytes32 _creatorTAOSettingDeprecationId = keccak256(abi.encodePacked(this, _creatorTAOId, _settingId));\n\t\tCreatorTAOSettingDeprecation storage _creatorTAOSettingDeprecation = creatorTAOSettingDeprecations[_creatorTAOSettingDeprecationId];\n\t\t_creatorTAOSettingDeprecation.creatorTAOSettingDeprecationId = _creatorTAOSettingDeprecationId;\n\t\t_creatorTAOSettingDeprecation.creatorTAOId = _creatorTAOId;\n\t\t_creatorTAOSettingDeprecation.settingId = _settingId;\n\n\t\treturn (_associatedTAOSettingDeprecationId, _creatorTAOSettingDeprecationId);\n\t}\n\n\t/**\n\t * @dev Get Setting Deprecation info of a setting ID\n\t * @param _settingId The ID of the setting\n\t */\n\tfunction getSettingDeprecation(uint256 _settingId) external view returns (uint256, address, address, address, bool, bool, bool, bool, uint256, uint256, address, address) {\n\t\tSettingDeprecation memory _settingDeprecation = settingDeprecations[_settingId];\n\t\treturn (\n\t\t\t_settingDeprecation.settingId,\n\t\t\t_settingDeprecation.creatorNameId,\n\t\t\t_settingDeprecation.creatorTAOId,\n\t\t\t_settingDeprecation.associatedTAOId,\n\t\t\t_settingDeprecation.pendingDeprecated,\n\t\t\t_settingDeprecation.locked,\n\t\t\t_settingDeprecation.rejected,\n\t\t\t_settingDeprecation.migrated,\n\t\t\t_settingDeprecation.pendingNewSettingId,\n\t\t\t_settingDeprecation.newSettingId,\n\t\t\t_settingDeprecation.pendingNewSettingContractAddress,\n\t\t\t_settingDeprecation.newSettingContractAddress\n\t\t);\n\t}\n\n\t/**\n\t * @dev Get Associated TAO Setting Deprecation info\n\t * @param _associatedTAOSettingDeprecationId The ID of the associated tao setting deprecation\n\t */\n\tfunction getAssociatedTAOSettingDeprecation(bytes32 _associatedTAOSettingDeprecationId) external view returns (bytes32, address, uint256) {\n\t\tAssociatedTAOSettingDeprecation memory _associatedTAOSettingDeprecation = associatedTAOSettingDeprecations[_associatedTAOSettingDeprecationId];\n\t\treturn (\n\t\t\t_associatedTAOSettingDeprecation.associatedTAOSettingDeprecationId,\n\t\t\t_associatedTAOSettingDeprecation.associatedTAOId,\n\t\t\t_associatedTAOSettingDeprecation.settingId\n\t\t);\n\t}\n\n\t/**\n\t * @dev Get Creator TAO Setting Deprecation info\n\t * @param _creatorTAOSettingDeprecationId The ID of the creator tao setting deprecation\n\t */\n\tfunction getCreatorTAOSettingDeprecation(bytes32 _creatorTAOSettingDeprecationId) public view returns (bytes32, address, uint256) {\n\t\tCreatorTAOSettingDeprecation memory _creatorTAOSettingDeprecation = creatorTAOSettingDeprecations[_creatorTAOSettingDeprecationId];\n\t\treturn (\n\t\t\t_creatorTAOSettingDeprecation.creatorTAOSettingDeprecationId,\n\t\t\t_creatorTAOSettingDeprecation.creatorTAOId,\n\t\t\t_creatorTAOSettingDeprecation.settingId\n\t\t);\n\t}\n\n\t/**\n\t * @dev Advocate of SettingDeprecation's _associatedTAOId approves deprecation\n\t * @param _settingId The ID of the setting to approve\n\t * @param _associatedTAOAdvocate The advocate of the associated TAO\n\t * @param _approved Whether to approve or reject\n\t * @return true on success\n\t */\n\tfunction approveDeprecation(uint256 _settingId, address _associatedTAOAdvocate, bool _approved) external inWhitelist returns (bool) {\n\t\t// Make sure setting exists and needs approval\n\t\tSettingDeprecation storage _settingDeprecation = settingDeprecations[_settingId];\n\t\trequire (_settingDeprecation.settingId == _settingId &&\n\t\t\t_settingDeprecation.migrated == false &&\n\t\t\t_settingDeprecation.pendingDeprecated == true &&\n\t\t\t_settingDeprecation.locked == true &&\n\t\t\t_settingDeprecation.rejected == false &&\n\t\t\t_associatedTAOAdvocate != address(0) &&\n\t\t\t_associatedTAOAdvocate == _nameTAOPosition.getAdvocate(_settingDeprecation.associatedTAOId)\n\t\t);\n\n\t\tif (_approved) {\n\t\t\t// Unlock the setting so that advocate of creatorTAOId can finalize the creation\n\t\t\t_settingDeprecation.locked = false;\n\t\t} else {\n\t\t\t// Reject the setting\n\t\t\t_settingDeprecation.pendingDeprecated = false;\n\t\t\t_settingDeprecation.rejected = true;\n\t\t}\n\t\treturn true;\n\t}\n\n\t/**\n\t * @dev Advocate of SettingDeprecation's _creatorTAOId finalizes the deprecation once the setting deprecation is approved\n\t * @param _settingId The ID of the setting to be finalized\n\t * @param _creatorTAOAdvocate The advocate of the creator TAO\n\t * @return true on success\n\t */\n\tfunction finalizeDeprecation(uint256 _settingId, address _creatorTAOAdvocate) external inWhitelist returns (bool) {\n\t\t// Make sure setting exists and needs approval\n\t\tSettingDeprecation storage _settingDeprecation = settingDeprecations[_settingId];\n\t\trequire (_settingDeprecation.settingId == _settingId &&\n\t\t\t_settingDeprecation.migrated == false &&\n\t\t\t_settingDeprecation.pendingDeprecated == true &&\n\t\t\t_settingDeprecation.locked == false &&\n\t\t\t_settingDeprecation.rejected == false &&\n\t\t\t_creatorTAOAdvocate != address(0) &&\n\t\t\t_creatorTAOAdvocate == _nameTAOPosition.getAdvocate(_settingDeprecation.creatorTAOId)\n\t\t);\n\n\t\t// Update the setting data\n\t\t_settingDeprecation.pendingDeprecated = false;\n\t\t_settingDeprecation.locked = true;\n\t\t_settingDeprecation.migrated = true;\n\t\tuint256 _newSettingId = _settingDeprecation.pendingNewSettingId;\n\t\t_settingDeprecation.pendingNewSettingId = 0;\n\t\t_settingDeprecation.newSettingId = _newSettingId;\n\n\t\taddress _newSettingContractAddress = _settingDeprecation.pendingNewSettingContractAddress;\n\t\t_settingDeprecation.pendingNewSettingContractAddress = address(0);\n\t\t_settingDeprecation.newSettingContractAddress = _newSettingContractAddress;\n\t\treturn true;\n\t}\n\n\t/**\n\t * @dev Check if a setting exist and not rejected\n\t * @param _settingId The ID of the setting\n\t * @return true if exist. false otherwise\n\t */\n\tfunction settingExist(uint256 _settingId) external view returns (bool) {\n\t\tSettingData memory _settingData = settingDatas[_settingId];\n\t\treturn (_settingData.settingId == _settingId && _settingData.rejected == false);\n\t}\n\n\t/**\n\t * @dev Get the latest ID of a deprecated setting, if exist\n\t * @param _settingId The ID of the setting\n\t * @return The latest setting ID\n\t */\n\tfunction getLatestSettingId(uint256 _settingId) external view returns (uint256) {\n\t\tuint256 _latestSettingId = _settingId;\n\t\t(,,,,,,, bool _migrated,, uint256 _newSettingId,,) = this.getSettingDeprecation(_latestSettingId);\n\t\twhile (_migrated && _newSettingId > 0) {\n\t\t\t_latestSettingId = _newSettingId;\n\t\t\t(,,,,,,, _migrated,, _newSettingId,,) = this.getSettingDeprecation(_latestSettingId);\n\t\t}\n\t\treturn _latestSettingId;\n\t}\n\n\t/***** Internal Method *****/\n\t/**\n\t * @dev Store setting data/state\n\t * @param _settingId The ID of the setting\n\t * @param _creatorNameId The nameId that created the setting\n\t * @param _settingName The human-readable name of the setting\n\t * @param _creatorTAOId The taoId that created the setting\n\t * @param _associatedTAOId The taoId that the setting affects\n\t * @param _extraData Catch-all string value to be stored if exist\n\t * @return true on success\n\t */\n\tfunction _storeSettingDataState(uint256 _settingId, address _creatorNameId, string memory _settingName, address _creatorTAOId, address _associatedTAOId, string memory _extraData) internal returns (bool) {\n\t\t// Store setting data\n\t\tSettingData storage _settingData = settingDatas[_settingId];\n\t\t_settingData.settingId = _settingId;\n\t\t_settingData.creatorNameId = _creatorNameId;\n\t\t_settingData.creatorTAOId = _creatorTAOId;\n\t\t_settingData.associatedTAOId = _associatedTAOId;\n\t\t_settingData.settingName = _settingName;\n\t\t_settingData.pendingCreate = true;\n\t\t_settingData.locked = true;\n\t\t_settingData.settingDataJSON = _extraData;\n\n\t\t// Store setting state\n\t\tSettingState storage _settingState = settingStates[_settingId];\n\t\t_settingState.settingId = _settingId;\n\t\treturn true;\n\t}\n\n\t/**\n\t * @dev Store setting deprecation\n\t * @param _settingId The ID of the setting\n\t * @param _creatorNameId The nameId that created the setting\n\t * @param _creatorTAOId The taoId that created the setting\n\t * @param _associatedTAOId The taoId that the setting affects\n\t * @param _newSettingId The new settingId value to route\n\t * @param _newSettingContractAddress The address of the new setting contract to route\n\t * @return true on success\n\t */\n\tfunction _storeSettingDeprecation(uint256 _settingId, address _creatorNameId, address _creatorTAOId, address _associatedTAOId, uint256 _newSettingId, address _newSettingContractAddress) internal returns (bool) {\n\t\t// Make sure this setting exists\n\t\trequire (settingDatas[_settingId].creatorNameId != address(0) && settingDatas[_settingId].rejected == false && settingDatas[_settingId].pendingCreate == false);\n\n\t\t// Make sure deprecation is not yet exist for this setting Id\n\t\trequire (settingDeprecations[_settingId].creatorNameId == address(0));\n\n\t\t// Make sure newSettingId exists\n\t\trequire (settingDatas[_newSettingId].creatorNameId != address(0) && settingDatas[_newSettingId].rejected == false && settingDatas[_newSettingId].pendingCreate == false);\n\n\t\t// Store setting deprecation info\n\t\tSettingDeprecation storage _settingDeprecation = settingDeprecations[_settingId];\n\t\t_settingDeprecation.settingId = _settingId;\n\t\t_settingDeprecation.creatorNameId = _creatorNameId;\n\t\t_settingDeprecation.creatorTAOId = _creatorTAOId;\n\t\t_settingDeprecation.associatedTAOId = _associatedTAOId;\n\t\t_settingDeprecation.pendingDeprecated = true;\n\t\t_settingDeprecation.locked = true;\n\t\t_settingDeprecation.pendingNewSettingId = _newSettingId;\n\t\t_settingDeprecation.pendingNewSettingContractAddress = _newSettingContractAddress;\n\t\treturn true;\n\t}\n\n\t/**\n\t * @dev Store the associated TAO Setting info\n\t * @param _associatedTAOId The Associated TAO ID\n\t * @param _settingId The setting ID\n\t * @return The newly created associated TAO setting ID\n\t */\n\tfunction _storeAssociatedTAOSetting(address _associatedTAOId, uint256 _settingId) internal returns (bytes32) {\n\t\t// Store the associatedTAOSetting info\n\t\tbytes32 _associatedTAOSettingId = keccak256(abi.encodePacked(this, _associatedTAOId, _settingId));\n\t\tAssociatedTAOSetting storage _associatedTAOSetting = associatedTAOSettings[_associatedTAOSettingId];\n\t\t_associatedTAOSetting.associatedTAOSettingId = _associatedTAOSettingId;\n\t\t_associatedTAOSetting.associatedTAOId = _associatedTAOId;\n\t\t_associatedTAOSetting.settingId = _settingId;\n\t\treturn _associatedTAOSettingId;\n\t}\n\n\t/**\n\t * @dev Store the creator TAO Setting info\n\t * @param _creatorTAOId The Creator TAO ID\n\t * @param _settingId The setting ID\n\t * @return The newly created creator TAO setting ID\n\t */\n\tfunction _storeCreatorTAOSetting(address _creatorTAOId, uint256 _settingId) internal returns (bytes32) {\n\t\t// Store the creatorTAOSetting info\n\t\tbytes32 _creatorTAOSettingId = keccak256(abi.encodePacked(this, _creatorTAOId, _settingId));\n\t\tCreatorTAOSetting storage _creatorTAOSetting = creatorTAOSettings[_creatorTAOSettingId];\n\t\t_creatorTAOSetting.creatorTAOSettingId = _creatorTAOSettingId;\n\t\t_creatorTAOSetting.creatorTAOId = _creatorTAOId;\n\t\t_creatorTAOSetting.settingId = _settingId;\n\t\treturn _creatorTAOSettingId;\n\t}\n}\n",
  "sourcePath": "/usr/local/ao-contracts/contracts/AOSettingAttribute.sol",
  "compiler": {
    "name": "solc",
    "version": "0.5.4+commit.9549d8ff.Emscripten.clang"
  },
  "schemaVersion": "3.0.2",
  "updatedAt": "2019-03-21T02:41:21.541Z",
  "devdoc": {
    "methods": {
      "add(uint256,address,string,address,address,string)": {
        "details": "Add setting data/state",
        "params": {
          "_associatedTAOId": "The taoId that the setting affects",
          "_creatorNameId": "The nameId that created the setting",
          "_creatorTAOId": "The taoId that created the setting",
          "_extraData": "Catch-all string value to be stored if exist",
          "_settingId": "The ID of the setting",
          "_settingName": "The human-readable name of the setting"
        },
        "return": "The ID of the \"Associated\" settingThe ID of the \"Creator\" setting"
      },
      "addDeprecation(uint256,address,address,address,uint256,address)": {
        "details": "Add setting deprecation",
        "params": {
          "_associatedTAOId": "The taoId that the setting affects",
          "_creatorNameId": "The nameId that created the setting",
          "_creatorTAOId": "The taoId that created the setting",
          "_newSettingContractAddress": "The address of the new setting contract to route",
          "_newSettingId": "The new settingId value to route",
          "_settingId": "The ID of the setting"
        },
        "return": "The ID of the \"Associated\" setting deprecationThe ID of the \"Creator\" setting deprecation"
      },
      "approveAdd(uint256,address,bool)": {
        "details": "Advocate of Setting's _associatedTAOId approves setting creation",
        "params": {
          "_approved": "Whether to approve or reject",
          "_associatedTAOAdvocate": "The advocate of the associated TAO",
          "_settingId": "The ID of the setting to approve"
        },
        "return": "true on success"
      },
      "approveDeprecation(uint256,address,bool)": {
        "details": "Advocate of SettingDeprecation's _associatedTAOId approves deprecation",
        "params": {
          "_approved": "Whether to approve or reject",
          "_associatedTAOAdvocate": "The advocate of the associated TAO",
          "_settingId": "The ID of the setting to approve"
        },
        "return": "true on success"
      },
      "approveUpdate(uint256,address,bool)": {
        "details": "Advocate of Setting's proposalTAOId approves the setting update",
        "params": {
          "_approved": "Whether to approve or reject",
          "_proposalTAOAdvocate": "The advocate of the proposal TAO",
          "_settingId": "The ID of the setting to be approved"
        },
        "return": "true on success"
      },
      "constructor": {
        "details": "Constructor function"
      },
      "finalizeAdd(uint256,address)": {
        "details": "Advocate of Setting's _creatorTAOId finalizes the setting creation once the setting is approved",
        "params": {
          "_creatorTAOAdvocate": "The advocate of the creator TAO",
          "_settingId": "The ID of the setting to be finalized"
        },
        "return": "true on success"
      },
      "finalizeDeprecation(uint256,address)": {
        "details": "Advocate of SettingDeprecation's _creatorTAOId finalizes the deprecation once the setting deprecation is approved",
        "params": {
          "_creatorTAOAdvocate": "The advocate of the creator TAO",
          "_settingId": "The ID of the setting to be finalized"
        },
        "return": "true on success"
      },
      "finalizeUpdate(uint256,address)": {
        "details": "Advocate of Setting's _associatedTAOId finalizes the setting update once the setting is approved",
        "params": {
          "_associatedTAOAdvocate": "The advocate of the associated TAO",
          "_settingId": "The ID of the setting to be finalized"
        },
        "return": "true on success"
      },
      "getAssociatedTAOSetting(bytes32)": {
        "details": "Get Associated TAO Setting info",
        "params": {
          "_associatedTAOSettingId": "The ID of the associated tao setting"
        }
      },
      "getAssociatedTAOSettingDeprecation(bytes32)": {
        "details": "Get Associated TAO Setting Deprecation info",
        "params": {
          "_associatedTAOSettingDeprecationId": "The ID of the associated tao setting deprecation"
        }
      },
      "getCreatorTAOSetting(bytes32)": {
        "details": "Get Creator TAO Setting info",
        "params": {
          "_creatorTAOSettingId": "The ID of the creator tao setting"
        }
      },
      "getCreatorTAOSettingDeprecation(bytes32)": {
        "details": "Get Creator TAO Setting Deprecation info",
        "params": {
          "_creatorTAOSettingDeprecationId": "The ID of the creator tao setting deprecation"
        }
      },
      "getLatestSettingId(uint256)": {
        "details": "Get the latest ID of a deprecated setting, if exist",
        "params": {
          "_settingId": "The ID of the setting"
        },
        "return": "The latest setting ID"
      },
      "getSettingData(uint256)": {
        "details": "Get Setting Data of a setting ID",
        "params": {
          "_settingId": "The ID of the setting"
        }
      },
      "getSettingDeprecation(uint256)": {
        "details": "Get Setting Deprecation info of a setting ID",
        "params": {
          "_settingId": "The ID of the setting"
        }
      },
      "getSettingState(uint256)": {
        "details": "Get setting state",
        "params": {
          "_settingId": "The ID of the setting"
        }
      },
      "setNameTAOPositionAddress(address)": {
        "details": "The AO sets NameTAOPosition address",
        "params": {
          "_nameTAOPositionAddress": "The address of NameTAOPosition"
        }
      },
      "setWhitelist(address,bool)": {
        "details": "Whitelist `_account` address to transact on behalf of others",
        "params": {
          "_account": "The address to whitelist",
          "_whitelist": "Either to whitelist or not"
        }
      },
      "settingExist(uint256)": {
        "details": "Check if a setting exist and not rejected",
        "params": {
          "_settingId": "The ID of the setting"
        },
        "return": "true if exist. false otherwise"
      },
      "transferOwnership(address)": {
        "details": "Transfer ownership of The AO to new address",
        "params": {
          "_theAO": "The new address to be transferred"
        }
      },
      "update(uint256,address,address,string)": {
        "details": "Store setting update data",
        "params": {
          "_associatedTAOAdvocate": "The setting's associatedTAOId's advocate's name address",
          "_extraData": "Catch-all string value to be stored if exist",
          "_proposalTAOId": "The child of the associatedTAOId with the update Logos",
          "_settingId": "The ID of the setting to be updated"
        },
        "return": "true on success"
      }
    },
    "title": "AOSettingAttribute * This contract stores all AO setting data/state"
  },
  "userdoc": {
    "methods": {}
  }
}