{
  "contractName": "AOSetting",
  "abi": [
    {
      "constant": true,
      "inputs": [
        {
          "name": "",
          "type": "bytes32"
        }
      ],
      "name": "updateHashLookup",
      "outputs": [
        {
          "name": "",
          "type": "uint256"
        }
      ],
      "payable": false,
      "stateMutability": "view",
      "type": "function"
    },
    {
      "constant": true,
      "inputs": [],
      "name": "nameTAOPositionAddress",
      "outputs": [
        {
          "name": "",
          "type": "address"
        }
      ],
      "payable": false,
      "stateMutability": "view",
      "type": "function"
    },
    {
      "constant": true,
      "inputs": [],
      "name": "STRING_SETTING_TYPE",
      "outputs": [
        {
          "name": "",
          "type": "uint8"
        }
      ],
      "payable": false,
      "stateMutability": "view",
      "type": "function"
    },
    {
      "constant": true,
      "inputs": [],
      "name": "BOOL_SETTING_TYPE",
      "outputs": [
        {
          "name": "",
          "type": "uint8"
        }
      ],
      "payable": false,
      "stateMutability": "view",
      "type": "function"
    },
    {
      "constant": true,
      "inputs": [
        {
          "name": "",
          "type": "address"
        }
      ],
      "name": "whitelist",
      "outputs": [
        {
          "name": "",
          "type": "bool"
        }
      ],
      "payable": false,
      "stateMutability": "view",
      "type": "function"
    },
    {
      "constant": true,
      "inputs": [],
      "name": "nameAccountRecoveryAddress",
      "outputs": [
        {
          "name": "",
          "type": "address"
        }
      ],
      "payable": false,
      "stateMutability": "view",
      "type": "function"
    },
    {
      "constant": true,
      "inputs": [],
      "name": "UINT_SETTING_TYPE",
      "outputs": [
        {
          "name": "",
          "type": "uint8"
        }
      ],
      "payable": false,
      "stateMutability": "view",
      "type": "function"
    },
    {
      "constant": true,
      "inputs": [],
      "name": "theAO",
      "outputs": [
        {
          "name": "",
          "type": "address"
        }
      ],
      "payable": false,
      "stateMutability": "view",
      "type": "function"
    },
    {
      "constant": true,
      "inputs": [],
      "name": "totalSetting",
      "outputs": [
        {
          "name": "",
          "type": "uint256"
        }
      ],
      "payable": false,
      "stateMutability": "view",
      "type": "function"
    },
    {
      "constant": true,
      "inputs": [],
      "name": "BYTES_SETTING_TYPE",
      "outputs": [
        {
          "name": "",
          "type": "uint8"
        }
      ],
      "payable": false,
      "stateMutability": "view",
      "type": "function"
    },
    {
      "constant": true,
      "inputs": [],
      "name": "nameFactoryAddress",
      "outputs": [
        {
          "name": "",
          "type": "address"
        }
      ],
      "payable": false,
      "stateMutability": "view",
      "type": "function"
    },
    {
      "constant": true,
      "inputs": [],
      "name": "aoSettingAttributeAddress",
      "outputs": [
        {
          "name": "",
          "type": "address"
        }
      ],
      "payable": false,
      "stateMutability": "view",
      "type": "function"
    },
    {
      "constant": true,
      "inputs": [],
      "name": "aoSettingValueAddress",
      "outputs": [
        {
          "name": "",
          "type": "address"
        }
      ],
      "payable": false,
      "stateMutability": "view",
      "type": "function"
    },
    {
      "constant": true,
      "inputs": [],
      "name": "ADDRESS_SETTING_TYPE",
      "outputs": [
        {
          "name": "",
          "type": "uint8"
        }
      ],
      "payable": false,
      "stateMutability": "view",
      "type": "function"
    },
    {
      "inputs": [
        {
          "name": "_nameFactoryAddress",
          "type": "address"
        },
        {
          "name": "_nameTAOPositionAddress",
          "type": "address"
        },
        {
          "name": "_nameAccountRecoveryAddress",
          "type": "address"
        },
        {
          "name": "_aoSettingAttributeAddress",
          "type": "address"
        },
        {
          "name": "_aoSettingValueAddress",
          "type": "address"
        }
      ],
      "payable": false,
      "stateMutability": "nonpayable",
      "type": "constructor"
    },
    {
      "anonymous": false,
      "inputs": [
        {
          "indexed": true,
          "name": "settingId",
          "type": "uint256"
        },
        {
          "indexed": true,
          "name": "creatorNameId",
          "type": "address"
        },
        {
          "indexed": false,
          "name": "creatorTAOId",
          "type": "address"
        },
        {
          "indexed": false,
          "name": "associatedTAOId",
          "type": "address"
        },
        {
          "indexed": false,
          "name": "settingName",
          "type": "string"
        },
        {
          "indexed": false,
          "name": "associatedTAOSettingId",
          "type": "bytes32"
        },
        {
          "indexed": false,
          "name": "creatorTAOSettingId",
          "type": "bytes32"
        }
      ],
      "name": "SettingCreation",
      "type": "event"
    },
    {
      "anonymous": false,
      "inputs": [
        {
          "indexed": true,
          "name": "settingId",
          "type": "uint256"
        },
        {
          "indexed": false,
          "name": "associatedTAOId",
          "type": "address"
        },
        {
          "indexed": false,
          "name": "associatedTAOAdvocate",
          "type": "address"
        },
        {
          "indexed": false,
          "name": "approved",
          "type": "bool"
        }
      ],
      "name": "ApproveSettingCreation",
      "type": "event"
    },
    {
      "anonymous": false,
      "inputs": [
        {
          "indexed": true,
          "name": "settingId",
          "type": "uint256"
        },
        {
          "indexed": false,
          "name": "creatorTAOId",
          "type": "address"
        },
        {
          "indexed": false,
          "name": "creatorTAOAdvocate",
          "type": "address"
        }
      ],
      "name": "FinalizeSettingCreation",
      "type": "event"
    },
    {
      "constant": false,
      "inputs": [
        {
          "name": "_theAO",
          "type": "address"
        }
      ],
      "name": "transferOwnership",
      "outputs": [],
      "payable": false,
      "stateMutability": "nonpayable",
      "type": "function"
    },
    {
      "constant": false,
      "inputs": [
        {
          "name": "_account",
          "type": "address"
        },
        {
          "name": "_whitelist",
          "type": "bool"
        }
      ],
      "name": "setWhitelist",
      "outputs": [],
      "payable": false,
      "stateMutability": "nonpayable",
      "type": "function"
    },
    {
      "constant": false,
      "inputs": [
        {
          "name": "_nameFactoryAddress",
          "type": "address"
        }
      ],
      "name": "setNameFactoryAddress",
      "outputs": [],
      "payable": false,
      "stateMutability": "nonpayable",
      "type": "function"
    },
    {
      "constant": false,
      "inputs": [
        {
          "name": "_nameTAOPositionAddress",
          "type": "address"
        }
      ],
      "name": "setNameTAOPositionAddress",
      "outputs": [],
      "payable": false,
      "stateMutability": "nonpayable",
      "type": "function"
    },
    {
      "constant": false,
      "inputs": [
        {
          "name": "_nameAccountRecoveryAddress",
          "type": "address"
        }
      ],
      "name": "setNameAccountRecoveryAddress",
      "outputs": [],
      "payable": false,
      "stateMutability": "nonpayable",
      "type": "function"
    },
    {
      "constant": false,
      "inputs": [
        {
          "name": "_aoSettingAttributeAddress",
          "type": "address"
        }
      ],
      "name": "setAOSettingAttributeAddress",
      "outputs": [],
      "payable": false,
      "stateMutability": "nonpayable",
      "type": "function"
    },
    {
      "constant": false,
      "inputs": [
        {
          "name": "_aoSettingValueAddress",
          "type": "address"
        }
      ],
      "name": "setAOSettingValueAddress",
      "outputs": [],
      "payable": false,
      "stateMutability": "nonpayable",
      "type": "function"
    },
    {
      "constant": true,
      "inputs": [
        {
          "name": "_settingName",
          "type": "string"
        },
        {
          "name": "_associatedTAOId",
          "type": "address"
        }
      ],
      "name": "settingNameExist",
      "outputs": [
        {
          "name": "",
          "type": "bool"
        }
      ],
      "payable": false,
      "stateMutability": "view",
      "type": "function"
    },
    {
      "constant": false,
      "inputs": [
        {
          "name": "_settingName",
          "type": "string"
        },
        {
          "name": "_value",
          "type": "uint256"
        },
        {
          "name": "_creatorTAOId",
          "type": "address"
        },
        {
          "name": "_associatedTAOId",
          "type": "address"
        },
        {
          "name": "_extraData",
          "type": "string"
        }
      ],
      "name": "addUintSetting",
      "outputs": [],
      "payable": false,
      "stateMutability": "nonpayable",
      "type": "function"
    },
    {
      "constant": false,
      "inputs": [
        {
          "name": "_settingName",
          "type": "string"
        },
        {
          "name": "_value",
          "type": "bool"
        },
        {
          "name": "_creatorTAOId",
          "type": "address"
        },
        {
          "name": "_associatedTAOId",
          "type": "address"
        },
        {
          "name": "_extraData",
          "type": "string"
        }
      ],
      "name": "addBoolSetting",
      "outputs": [],
      "payable": false,
      "stateMutability": "nonpayable",
      "type": "function"
    },
    {
      "constant": false,
      "inputs": [
        {
          "name": "_settingName",
          "type": "string"
        },
        {
          "name": "_value",
          "type": "address"
        },
        {
          "name": "_creatorTAOId",
          "type": "address"
        },
        {
          "name": "_associatedTAOId",
          "type": "address"
        },
        {
          "name": "_extraData",
          "type": "string"
        }
      ],
      "name": "addAddressSetting",
      "outputs": [],
      "payable": false,
      "stateMutability": "nonpayable",
      "type": "function"
    },
    {
      "constant": false,
      "inputs": [
        {
          "name": "_settingName",
          "type": "string"
        },
        {
          "name": "_value",
          "type": "bytes32"
        },
        {
          "name": "_creatorTAOId",
          "type": "address"
        },
        {
          "name": "_associatedTAOId",
          "type": "address"
        },
        {
          "name": "_extraData",
          "type": "string"
        }
      ],
      "name": "addBytesSetting",
      "outputs": [],
      "payable": false,
      "stateMutability": "nonpayable",
      "type": "function"
    },
    {
      "constant": false,
      "inputs": [
        {
          "name": "_settingName",
          "type": "string"
        },
        {
          "name": "_value",
          "type": "string"
        },
        {
          "name": "_creatorTAOId",
          "type": "address"
        },
        {
          "name": "_associatedTAOId",
          "type": "address"
        },
        {
          "name": "_extraData",
          "type": "string"
        }
      ],
      "name": "addStringSetting",
      "outputs": [],
      "payable": false,
      "stateMutability": "nonpayable",
      "type": "function"
    },
    {
      "constant": false,
      "inputs": [
        {
          "name": "_settingId",
          "type": "uint256"
        },
        {
          "name": "_approved",
          "type": "bool"
        }
      ],
      "name": "approveSettingCreation",
      "outputs": [],
      "payable": false,
      "stateMutability": "nonpayable",
      "type": "function"
    },
    {
      "constant": false,
      "inputs": [
        {
          "name": "_settingId",
          "type": "uint256"
        }
      ],
      "name": "finalizeSettingCreation",
      "outputs": [],
      "payable": false,
      "stateMutability": "nonpayable",
      "type": "function"
    },
    {
      "constant": true,
      "inputs": [
        {
          "name": "_settingId",
          "type": "uint256"
        }
      ],
      "name": "settingTypeLookup",
      "outputs": [
        {
          "name": "",
          "type": "uint8"
        }
      ],
      "payable": false,
      "stateMutability": "view",
      "type": "function"
    },
    {
      "constant": true,
      "inputs": [
        {
          "name": "_associatedTAOId",
          "type": "address"
        },
        {
          "name": "_settingName",
          "type": "string"
        }
      ],
      "name": "getSettingIdByTAOName",
      "outputs": [
        {
          "name": "",
          "type": "uint256"
        }
      ],
      "payable": false,
      "stateMutability": "view",
      "type": "function"
    },
    {
      "constant": true,
      "inputs": [
        {
          "name": "_settingId",
          "type": "uint256"
        }
      ],
      "name": "getSettingValuesById",
      "outputs": [
        {
          "name": "",
          "type": "uint256"
        },
        {
          "name": "",
          "type": "bool"
        },
        {
          "name": "",
          "type": "address"
        },
        {
          "name": "",
          "type": "bytes32"
        },
        {
          "name": "",
          "type": "string"
        }
      ],
      "payable": false,
      "stateMutability": "view",
      "type": "function"
    },
    {
      "constant": true,
      "inputs": [
        {
          "name": "_taoId",
          "type": "address"
        },
        {
          "name": "_settingName",
          "type": "string"
        }
      ],
      "name": "getSettingValuesByTAOName",
      "outputs": [
        {
          "name": "",
          "type": "uint256"
        },
        {
          "name": "",
          "type": "bool"
        },
        {
          "name": "",
          "type": "address"
        },
        {
          "name": "",
          "type": "bytes32"
        },
        {
          "name": "",
          "type": "string"
        }
      ],
      "payable": false,
      "stateMutability": "view",
      "type": "function"
    },
    {
      "constant": true,
      "inputs": [],
      "name": "getSettingTypes",
      "outputs": [
        {
          "name": "",
          "type": "uint8"
        },
        {
          "name": "",
          "type": "uint8"
        },
        {
          "name": "",
          "type": "uint8"
        },
        {
          "name": "",
          "type": "uint8"
        },
        {
          "name": "",
          "type": "uint8"
        }
      ],
      "payable": false,
      "stateMutability": "view",
      "type": "function"
    }
  ],
  "bytecode": "0x60806040523480156200001157600080fd5b5060405160a080620040fd833981018060405260a08110156200003357600080fd5b50805160208201516040830151606084015160809094015160008054600160a060020a03191633179055929391929091906200007885640100000000620000d3810204565b6200008c84640100000000620001d8810204565b620000a083640100000000620002dd810204565b620000b482640100000000620003e5810204565b620000c881640100000000620004ea810204565b5050505050620005ef565b600054600154604080517ff66afcac000000000000000000000000000000000000000000000000000000008152336004820152600160a060020a0393841660248201529290911660448301525173__AOLibrary_____________________________9163f66afcac916064808301926020929190829003018186803b1580156200015c57600080fd5b505af415801562000171573d6000803e3d6000fd5b505050506040513d60208110156200018857600080fd5b505115156200019657600080fd5b600160a060020a0381161515620001ac57600080fd5b60038054600160a060020a03909216600160a060020a0319928316811790915560078054909216179055565b600054600154604080517ff66afcac000000000000000000000000000000000000000000000000000000008152336004820152600160a060020a0393841660248201529290911660448301525173__AOLibrary_____________________________9163f66afcac916064808301926020929190829003018186803b1580156200026157600080fd5b505af415801562000276573d6000803e3d6000fd5b505050506040513d60208110156200028d57600080fd5b505115156200029b57600080fd5b600160a060020a0381161515620002b157600080fd5b60018054600160a060020a03909216600160a060020a0319928316811790915560088054909216179055565b600054600154604080517ff66afcac000000000000000000000000000000000000000000000000000000008152336004820152600160a060020a0393841660248201529290911660448301525173__AOLibrary_____________________________9163f66afcac916064808301926020929190829003018186803b1580156200036657600080fd5b505af41580156200037b573d6000803e3d6000fd5b505050506040513d60208110156200039257600080fd5b50511515620003a057600080fd5b600160a060020a0381161515620003b657600080fd5b60048054600160a060020a0319908116600160a060020a03938416179182905560098054929093169116179055565b600054600154604080517ff66afcac000000000000000000000000000000000000000000000000000000008152336004820152600160a060020a0393841660248201529290911660448301525173__AOLibrary_____________________________9163f66afcac916064808301926020929190829003018186803b1580156200046e57600080fd5b505af415801562000483573d6000803e3d6000fd5b505050506040513d60208110156200049a57600080fd5b50511515620004a857600080fd5b600160a060020a0381161515620004be57600080fd5b60058054600160a060020a03909216600160a060020a03199283168117909155600a8054909216179055565b600054600154604080517ff66afcac000000000000000000000000000000000000000000000000000000008152336004820152600160a060020a0393841660248201529290911660448301525173__AOLibrary_____________________________9163f66afcac916064808301926020929190829003018186803b1580156200057357600080fd5b505af415801562000588573d6000803e3d6000fd5b505050506040513d60208110156200059f57600080fd5b50511515620005ad57600080fd5b600160a060020a0381161515620005c357600080fd5b60068054600160a060020a03909216600160a060020a03199283168117909155600b8054909216179055565b613afe80620005ff6000396000f3fe608060405234801561001057600080fd5b506004361061020a5760003560e060020a9004806379d0c71e1161011e578063a9b6b38e116100b1578063bdfd625711610080578063bdfd625714610d7c578063cf8477cf14610e2d578063dc4c5d5614610e35578063f2fde38b14610e3d578063ff282aaf14610e635761020a565b8063a9b6b38e14610d5c578063bb2445a814610d64578063bbc8f29b14610d6c578063bc40620614610d745761020a565b80639b19251a116100ed5780639b19251a14610cf5578063a4e5fad214610d2f578063a4ed5eab14610d37578063a62eeead14610d3f5761020a565b806379d0c71e14610c6c57806387e5b07014610caa5780638c92436114610cb25780639525f38214610cd85761020a565b80634ef033f0116101a15780635cfaf2ef116101705780635cfaf2ef1461098b5780635ef17eff146109b15780637065bedc14610a7857806372eca63514610af8578063788e31bf14610b1e5761020a565b80634ef033f0146107cc5780634efa45a1146107f057806353d6fd591461093f5780635885d7bb1461096d5761020a565b80633d694f30116101dd5780633d694f30146104685780633f056cb41461048d57806342091137146104b357806343863045146106805761020a565b8063113d89381461020f5780631b2dbff61461035d5780631dfde2bd1461038c57806332f896af146103b2575b600080fd5b61035b600480360360a081101561022557600080fd5b81019060208101813564010000000081111561024057600080fd5b82018360208201111561025257600080fd5b8035906020019184600183028401116401000000008311171561027457600080fd5b91908080601f0160208091040260200160405190810160405280939291908181526020018383808284376000920191909152509295843595600160a060020a0360208701358116966040810135909116955091935091506080810190606001356401000000008111156102e657600080fd5b8201836020820111156102f857600080fd5b8035906020019184600183028401116401000000008311171561031a57600080fd5b91908080601f016020809104026020016040519081016040528093929190818152602001838380828437600092019190915250929550610e6b945050505050565b005b61037a6004803603602081101561037357600080fd5b50356112a0565b60408051918252519081900360200190f35b61035b600480360360208110156103a257600080fd5b5035600160a060020a03166112b2565b61037a600480360360408110156103c857600080fd5b600160a060020a0382351691908101906040810160208201356401000000008111156103f357600080fd5b82018360208201111561040557600080fd5b8035906020019184600183028401116401000000008311171561042757600080fd5b91908080601f0160208091040260200160405190810160405280939291908181526020018383808284376000920191909152509295506113ac945050505050565b61035b6004803603604081101561047e57600080fd5b50803590602001351515611483565b61035b600480360360208110156104a357600080fd5b5035600160a060020a03166119f3565b61035b600480360360a08110156104c957600080fd5b8101906020810181356401000000008111156104e457600080fd5b8201836020820111156104f657600080fd5b8035906020019184600183028401116401000000008311171561051857600080fd5b91908080601f016020809104026020016040519081016040528093929190818152602001838380828437600092019190915250929594936020810193503591505064010000000081111561056b57600080fd5b82018360208201111561057d57600080fd5b8035906020019184600183028401116401000000008311171561059f57600080fd5b91908080601f0160208091040260200160405190810160405280939291908181526020018383808284376000920191909152509295600160a060020a03853581169660208701359091169591945092506060810191506040013564010000000081111561060b57600080fd5b82018360208201111561061d57600080fd5b8035906020019184600183028401116401000000008311171561063f57600080fd5b91908080601f016020809104026020016040519081016040528093929190818152602001838380828437600092019190915250929550611aea945050505050565b61035b600480360360a081101561069657600080fd5b8101906020810181356401000000008111156106b157600080fd5b8201836020820111156106c357600080fd5b803590602001918460018302840111640100000000831117156106e557600080fd5b91908080601f0160208091040260200160405190810160405280939291908181526020018383808284376000920191909152509295843595600160a060020a03602087013581169660408101359091169550919350915060808101906060013564010000000081111561075757600080fd5b82018360208201111561076957600080fd5b8035906020019184600183028401116401000000008311171561078b57600080fd5b91908080601f016020809104026020016040519081016040528093929190818152602001838380828437600092019190915250929550611f03945050505050565b6107d4612275565b60408051600160a060020a039092168252519081900360200190f35b61035b600480360360a081101561080657600080fd5b81019060208101813564010000000081111561082157600080fd5b82018360208201111561083357600080fd5b8035906020019184600183028401116401000000008311171561085557600080fd5b91908080601f0160208091040260200160405190810160405280939291908181526020018383808284376000920191909152509295600160a060020a0385358116966020870135821696604081013590921695509193509091506080810190606001356401000000008111156108ca57600080fd5b8201836020820111156108dc57600080fd5b803590602001918460018302840111640100000000831117156108fe57600080fd5b91908080601f016020809104026020016040519081016040528093929190818152602001838380828437600092019190915250929550612284945050505050565b61035b6004803603604081101561095557600080fd5b50600160a060020a03813516906020013515156125fc565b6109756126e5565b6040805160ff9092168252519081900360200190f35b61035b600480360360208110156109a157600080fd5b5035600160a060020a03166126ea565b6109ce600480360360208110156109c757600080fd5b50356127e1565b604051808681526020018515151515815260200184600160a060020a0316600160a060020a0316815260200183815260200180602001828103825283818151815260200191508051906020019080838360005b83811015610a39578181015183820152602001610a21565b50505050905090810190601f168015610a665780820380516001836020036101000a031916815260200191505b50965050505050505060405180910390f35b6109ce60048036036040811015610a8e57600080fd5b600160a060020a038235169190810190604081016020820135640100000000811115610ab957600080fd5b820183602082011115610acb57600080fd5b80359060200191846001830284011164010000000083111715610aed57600080fd5b509092509050612a3c565b61035b60048036036020811015610b0e57600080fd5b5035600160a060020a0316612aa0565b61035b600480360360a0811015610b3457600080fd5b810190602081018135640100000000811115610b4f57600080fd5b820183602082011115610b6157600080fd5b80359060200191846001830284011164010000000083111715610b8357600080fd5b91908080601f01602080910402602001604051908101604052809392919081815260200183838082843760009201919091525092958435151595600160a060020a036020870135811696604081013590911695509193509150608081019060600135640100000000811115610bf757600080fd5b820183602082011115610c0957600080fd5b80359060200191846001830284011164010000000083111715610c2b57600080fd5b91908080601f016020809104026020016040519081016040528093929190818152602001838380828437600092019190915250929550612b97945050505050565b610c74612f0a565b6040805160ff96871681529486166020860152928516848401529084166060840152909216608082015290519081900360a00190f35b610975612f1b565b61035b60048036036020811015610cc857600080fd5b5035600160a060020a0316612f20565b61035b60048036036020811015610cee57600080fd5b5035613017565b610d1b60048036036020811015610d0b57600080fd5b5035600160a060020a0316613517565b604080519115158252519081900360200190f35b6107d461352c565b61097561353b565b61097560048036036020811015610d5557600080fd5b5035613540565b6107d4613555565b61037a613564565b61097561356a565b6107d461356f565b610d1b60048036036040811015610d9257600080fd5b810190602081018135640100000000811115610dad57600080fd5b820183602082011115610dbf57600080fd5b80359060200191846001830284011164010000000083111715610de157600080fd5b91908080601f01602080910402602001604051908101604052809392919081815260200183838082843760009201919091525092955050509035600160a060020a0316915061357e9050565b6107d4613657565b6107d4613666565b61035b60048036036020811015610e5357600080fd5b5035600160a060020a0316613675565b610975613762565b8273__AOLibrary_____________________________632fca5414826040518263ffffffff1660e060020a0281526004018082600160a060020a0316600160a060020a0316815260200191505060206040518083038186803b158015610ed057600080fd5b505af4158015610ee4573d6000803e3d6000fd5b505050506040513d6020811015610efa57600080fd5b50511515610f0757600080fd5b8273__AOLibrary_____________________________632fca5414826040518263ffffffff1660e060020a0281526004018082600160a060020a0316600160a060020a0316815260200191505060206040518083038186803b158015610f6c57600080fd5b505af4158015610f80573d6000803e3d6000fd5b505050506040513d6020811015610f9657600080fd5b50511515610fa357600080fd5b8684610faf828261357e565b15610fb957600080fd5b6008546040805160e060020a6371ce52ed028152336004820152600160a060020a03808b16602483015291518a9392909216916371ce52ed91604480820192602092909190829003018186803b15801561101257600080fd5b505afa158015611026573d6000803e3d6000fd5b505050506040513d602081101561103c57600080fd5b5051151561104957600080fd5b6009546007546040805160e060020a63029b7d530281523360048201529051600160a060020a0393841693633ebc2ab393169163029b7d53916024808301926020929190829003018186803b1580156110a157600080fd5b505afa1580156110b5573d6000803e3d6000fd5b505050506040513d60208110156110cb57600080fd5b50516040805160e060020a63ffffffff8516028152600160a060020a039092166004830152516024808301926020929190829003018186803b15801561111057600080fd5b505afa158015611124573d6000803e3d6000fd5b505050506040513d602081101561113a57600080fd5b50511561114657600080fd5b600c80546001018082556000908152600f60209081526040808320805460ff19166003179055600b549354815160e060020a63ccdd6afd02815260048101919091526024810184905260448101849052606481018e905260a4810184905260c0608482015260c481018490529051600160a060020a039094169363ccdd6afd9361010480840194938390030190829087803b1580156111e457600080fd5b505af11580156111f8573d6000803e3d6000fd5b505050506040513d602081101561120e57600080fd5b50506007546040805160e060020a63029b7d53028152336004820152905161129492600160a060020a03169163029b7d53916024808301926020929190829003018186803b15801561125f57600080fd5b505afa158015611273573d6000803e3d6000fd5b505050506040513d602081101561128957600080fd5b50518b8a8a8a613767565b50505050505050505050565b600e6020526000908152604090205481565b6000546001546040805160e260020a633d9abf2b028152336004820152600160a060020a0393841660248201529290911660448301525173__AOLibrary_____________________________9163f66afcac916064808301926020929190829003018186803b15801561132457600080fd5b505af4158015611338573d6000803e3d6000fd5b505050506040513d602081101561134e57600080fd5b5051151561135b57600080fd5b600160a060020a038116151561137057600080fd5b6004805473ffffffffffffffffffffffffffffffffffffffff19908116600160a060020a03938416179182905560098054929093169116179055565b6000600d600084600160a060020a0316600160a060020a03168152602001908152602001600020600030846040516020018083600160a060020a0316600160a060020a03166c0100000000000000000000000002815260140182805190602001908083835b602083106114305780518252601f199092019160209182019101611411565b6001836020036101000a0380198251168184511680821785525050505050509050019250505060405160208183030381529060405280519060200120815260200190815260200160002054905092915050565b6007546040805160e060020a63029b7d530281523360048201529051600092600160a060020a03169163029b7d53916024808301926020929190829003018186803b1580156114d157600080fd5b505afa1580156114e5573d6000803e3d6000fd5b505050506040513d60208110156114fb57600080fd5b5051600160a060020a0316141561151157600080fd5b6009546007546040805160e060020a63029b7d530281523360048201529051600160a060020a0393841693633ebc2ab393169163029b7d53916024808301926020929190829003018186803b15801561156957600080fd5b505afa15801561157d573d6000803e3d6000fd5b505050506040513d602081101561159357600080fd5b50516040805160e060020a63ffffffff8516028152600160a060020a039092166004830152516024808301926020929190829003018186803b1580156115d857600080fd5b505afa1580156115ec573d6000803e3d6000fd5b505050506040513d602081101561160257600080fd5b50511561160e57600080fd5b6007546040805160e060020a63029b7d530281523360048201529051600092600160a060020a03169163029b7d53916024808301926020929190829003018186803b15801561165c57600080fd5b505afa158015611670573d6000803e3d6000fd5b505050506040513d602081101561168657600080fd5b5051600a54604080517f2a82fdbd00000000000000000000000000000000000000000000000000000000815260048101879052600160a060020a03808516602483015286151560448301529151939450911691632a82fdbd916064808201926020929091908290030181600087803b15801561170157600080fd5b505af1158015611715573d6000803e3d6000fd5b505050506040513d602081101561172b57600080fd5b5051151561173857600080fd5b600a54604080517f81f3e897000000000000000000000000000000000000000000000000000000008152600481018690529051600092606092600160a060020a03909116916381f3e897916024808201928792909190829003018186803b1580156117a257600080fd5b505afa1580156117b6573d6000803e3d6000fd5b505050506040513d6000823e601f3d908101601f191682016040526101208110156117e057600080fd5b81516020830151604084015160608501516080860180519496939592949193928301929164010000000081111561181657600080fd5b8201602081018481111561182957600080fd5b815164010000000081118282018710171561184357600080fd5b5050602082015160408301516060840151608090940180519396929591949364010000000081111561187457600080fd5b8201602081018481111561188757600080fd5b81516401000000008111828201871017156118a157600080fd5b5050929190505050505050509450945050505083151561199e57600d600083600160a060020a0316600160a060020a03168152602001908152602001600020600030836040516020018083600160a060020a0316600160a060020a03166c0100000000000000000000000002815260140182805190602001908083835b6020831061193d5780518252601f19909201916020918201910161191e565b51815160209384036101000a60001901801990921691161790526040805192909401828103601f1901835284528151918101919091208752868101979097525093840160009081208190558a8152600f9095525050509020805460ff191690555b60408051600160a060020a0380851682528516602082015285151581830152905186917f88777193beb258cd3af58ac99deaac6fe1e4fd4079ce3085aa04e27c153c241a919081900360600190a25050505050565b6000546001546040805160e260020a633d9abf2b028152336004820152600160a060020a0393841660248201529290911660448301525173__AOLibrary_____________________________9163f66afcac916064808301926020929190829003018186803b158015611a6557600080fd5b505af4158015611a79573d6000803e3d6000fd5b505050506040513d6020811015611a8f57600080fd5b50511515611a9c57600080fd5b600160a060020a0381161515611ab157600080fd5b60068054600160a060020a0390921673ffffffffffffffffffffffffffffffffffffffff199283168117909155600b8054909216179055565b8273__AOLibrary_____________________________632fca5414826040518263ffffffff1660e060020a0281526004018082600160a060020a0316600160a060020a0316815260200191505060206040518083038186803b158015611b4f57600080fd5b505af4158015611b63573d6000803e3d6000fd5b505050506040513d6020811015611b7957600080fd5b50511515611b8657600080fd5b8273__AOLibrary_____________________________632fca5414826040518263ffffffff1660e060020a0281526004018082600160a060020a0316600160a060020a0316815260200191505060206040518083038186803b158015611beb57600080fd5b505af4158015611bff573d6000803e3d6000fd5b505050506040513d6020811015611c1557600080fd5b50511515611c2257600080fd5b8684611c2e828261357e565b15611c3857600080fd5b6008546040805160e060020a6371ce52ed028152336004820152600160a060020a03808b16602483015291518a9392909216916371ce52ed91604480820192602092909190829003018186803b158015611c9157600080fd5b505afa158015611ca5573d6000803e3d6000fd5b505050506040513d6020811015611cbb57600080fd5b50511515611cc857600080fd5b6009546007546040805160e060020a63029b7d530281523360048201529051600160a060020a0393841693633ebc2ab393169163029b7d53916024808301926020929190829003018186803b158015611d2057600080fd5b505afa158015611d34573d6000803e3d6000fd5b505050506040513d6020811015611d4a57600080fd5b50516040805160e060020a63ffffffff8516028152600160a060020a039092166004830152516024808301926020929190829003018186803b158015611d8f57600080fd5b505afa158015611da3573d6000803e3d6000fd5b505050506040513d6020811015611db957600080fd5b505115611dc557600080fd5b600c600081548092919060010191905055506004600f6000600c54815260200190815260200160002060006101000a81548160ff021916908360ff160217905550600b60009054906101000a9004600160a060020a0316600160a060020a031663ccdd6afd600c546000808d60006040518663ffffffff1660e060020a0281526004018086815260200185600160a060020a0316600160a060020a031681526020018415151515815260200160200180602001838152602001828103825284818151815260200191508051906020019080838360005b83811015611eb3578181015183820152602001611e9b565b50505050905090810190601f168015611ee05780820380516001836020036101000a031916815260200191505b509650505050505050602060405180830381600087803b1580156111e457600080fd5b8273__AOLibrary_____________________________632fca5414826040518263ffffffff1660e060020a0281526004018082600160a060020a0316600160a060020a0316815260200191505060206040518083038186803b158015611f6857600080fd5b505af4158015611f7c573d6000803e3d6000fd5b505050506040513d6020811015611f9257600080fd5b50511515611f9f57600080fd5b8273__AOLibrary_____________________________632fca5414826040518263ffffffff1660e060020a0281526004018082600160a060020a0316600160a060020a0316815260200191505060206040518083038186803b15801561200457600080fd5b505af4158015612018573d6000803e3d6000fd5b505050506040513d602081101561202e57600080fd5b5051151561203b57600080fd5b8684612047828261357e565b1561205157600080fd5b6008546040805160e060020a6371ce52ed028152336004820152600160a060020a03808b16602483015291518a9392909216916371ce52ed91604480820192602092909190829003018186803b1580156120aa57600080fd5b505afa1580156120be573d6000803e3d6000fd5b505050506040513d60208110156120d457600080fd5b505115156120e157600080fd5b6009546007546040805160e060020a63029b7d530281523360048201529051600160a060020a0393841693633ebc2ab393169163029b7d53916024808301926020929190829003018186803b15801561213957600080fd5b505afa15801561214d573d6000803e3d6000fd5b505050506040513d602081101561216357600080fd5b50516040805160e060020a63ffffffff8516028152600160a060020a039092166004830152516024808301926020929190829003018186803b1580156121a857600080fd5b505afa1580156121bc573d6000803e3d6000fd5b505050506040513d60208110156121d257600080fd5b5051156121de57600080fd5b600c80546001018082556000908152600f60209081526040808320805460ff19166005179055600b549354815160e060020a63ccdd6afd0281526004810191909152602481018490526044810184905260a481018e905260c0608482015260c481018490529051600160a060020a039094169363ccdd6afd9361010480840194938390030190829087803b1580156111e457600080fd5b600154600160a060020a031681565b8273__AOLibrary_____________________________632fca5414826040518263ffffffff1660e060020a0281526004018082600160a060020a0316600160a060020a0316815260200191505060206040518083038186803b1580156122e957600080fd5b505af41580156122fd573d6000803e3d6000fd5b505050506040513d602081101561231357600080fd5b5051151561232057600080fd5b8273__AOLibrary_____________________________632fca5414826040518263ffffffff1660e060020a0281526004018082600160a060020a0316600160a060020a0316815260200191505060206040518083038186803b15801561238557600080fd5b505af4158015612399573d6000803e3d6000fd5b505050506040513d60208110156123af57600080fd5b505115156123bc57600080fd5b86846123c8828261357e565b156123d257600080fd5b6008546040805160e060020a6371ce52ed028152336004820152600160a060020a03808b16602483015291518a9392909216916371ce52ed91604480820192602092909190829003018186803b15801561242b57600080fd5b505afa15801561243f573d6000803e3d6000fd5b505050506040513d602081101561245557600080fd5b5051151561246257600080fd5b6009546007546040805160e060020a63029b7d530281523360048201529051600160a060020a0393841693633ebc2ab393169163029b7d53916024808301926020929190829003018186803b1580156124ba57600080fd5b505afa1580156124ce573d6000803e3d6000fd5b505050506040513d60208110156124e457600080fd5b50516040805160e060020a63ffffffff8516028152600160a060020a039092166004830152516024808301926020929190829003018186803b15801561252957600080fd5b505afa15801561253d573d6000803e3d6000fd5b505050506040513d602081101561255357600080fd5b50511561255f57600080fd5b600c805460019081018083556000908152600f60209081526040808320805460ff1916909417909355600b549354835160e060020a63ccdd6afd0281526004810191909152600160a060020a038e811660248301526044820184905260a4820184905260c0608483015260c482018490529351939094169363ccdd6afd936101048083019491928390030190829087803b1580156111e457600080fd5b6000546001546040805160e260020a633d9abf2b028152336004820152600160a060020a0393841660248201529290911660448301525173__AOLibrary_____________________________9163f66afcac916064808301926020929190829003018186803b15801561266e57600080fd5b505af4158015612682573d6000803e3d6000fd5b505050506040513d602081101561269857600080fd5b505115156126a557600080fd5b600160a060020a03821615156126ba57600080fd5b600160a060020a03919091166000908152600260205260409020805460ff1916911515919091179055565b600481565b6000546001546040805160e260020a633d9abf2b028152336004820152600160a060020a0393841660248201529290911660448301525173__AOLibrary_____________________________9163f66afcac916064808301926020929190829003018186803b15801561275c57600080fd5b505af4158015612770573d6000803e3d6000fd5b505050506040513d602081101561278657600080fd5b5051151561279357600080fd5b600160a060020a03811615156127a857600080fd5b60018054600160a060020a0390921673ffffffffffffffffffffffffffffffffffffffff19928316811790915560088054909216179055565b6000806000806060600a60009054906101000a9004600160a060020a0316600160a060020a031663982a2376876040518263ffffffff1660e060020a0281526004018082815260200191505060206040518083038186803b15801561284557600080fd5b505afa158015612859573d6000803e3d6000fd5b505050506040513d602081101561286f57600080fd5b5051151561287c57600080fd5b600a54604080517f7b0862e1000000000000000000000000000000000000000000000000000000008152600481018990529051600160a060020a0390921691637b0862e191602480820192602092909190829003018186803b1580156128e157600080fd5b505afa1580156128f5573d6000803e3d6000fd5b505050506040513d602081101561290b57600080fd5b5051600b54604080517f9ba535ce000000000000000000000000000000000000000000000000000000008152600481018490529051929850600092839283926060928492600160a060020a031691639ba535ce9160248083019286929190829003018186803b15801561297d57600080fd5b505afa158015612991573d6000803e3d6000fd5b505050506040513d6000823e601f3d908101601f1916820160405260a08110156129ba57600080fd5b81516020830151604084015160608501805193959294919391830192916401000000008111156129e957600080fd5b820160208101848111156129fc57600080fd5b8151640100000000811182820187101715612a1657600080fd5b50506020909101519f50939d50939b509099509097505050505050505091939590929450565b6000806000806060612a8c612a878989898080601f0160208091040260200160405190810160405280939291908181526020018383808284376000920191909152506113ac92505050565b6127e1565b939c929b5090995097509095509350505050565b6000546001546040805160e260020a633d9abf2b028152336004820152600160a060020a0393841660248201529290911660448301525173__AOLibrary_____________________________9163f66afcac916064808301926020929190829003018186803b158015612b1257600080fd5b505af4158015612b26573d6000803e3d6000fd5b505050506040513d6020811015612b3c57600080fd5b50511515612b4957600080fd5b600160a060020a0381161515612b5e57600080fd5b60058054600160a060020a0390921673ffffffffffffffffffffffffffffffffffffffff199283168117909155600a8054909216179055565b8273__AOLibrary_____________________________632fca5414826040518263ffffffff1660e060020a0281526004018082600160a060020a0316600160a060020a0316815260200191505060206040518083038186803b158015612bfc57600080fd5b505af4158015612c10573d6000803e3d6000fd5b505050506040513d6020811015612c2657600080fd5b50511515612c3357600080fd5b8273__AOLibrary_____________________________632fca5414826040518263ffffffff1660e060020a0281526004018082600160a060020a0316600160a060020a0316815260200191505060206040518083038186803b158015612c9857600080fd5b505af4158015612cac573d6000803e3d6000fd5b505050506040513d6020811015612cc257600080fd5b50511515612ccf57600080fd5b8684612cdb828261357e565b15612ce557600080fd5b6008546040805160e060020a6371ce52ed028152336004820152600160a060020a03808b16602483015291518a9392909216916371ce52ed91604480820192602092909190829003018186803b158015612d3e57600080fd5b505afa158015612d52573d6000803e3d6000fd5b505050506040513d6020811015612d6857600080fd5b50511515612d7557600080fd5b6009546007546040805160e060020a63029b7d530281523360048201529051600160a060020a0393841693633ebc2ab393169163029b7d53916024808301926020929190829003018186803b158015612dcd57600080fd5b505afa158015612de1573d6000803e3d6000fd5b505050506040513d6020811015612df757600080fd5b50516040805160e060020a63ffffffff8516028152600160a060020a039092166004830152516024808301926020929190829003018186803b158015612e3c57600080fd5b505afa158015612e50573d6000803e3d6000fd5b505050506040513d6020811015612e6657600080fd5b505115612e7257600080fd5b600c80546001018082556000908152600f60209081526040808320805460ff19166002179055600b549354815160e060020a63ccdd6afd0281526004810191909152602481018490528d1515604482015260a4810184905260c0608482015260c481018490529051600160a060020a039094169363ccdd6afd9361010480840194938390030190829087803b1580156111e457600080fd5b600160026003600460059091929394565b600281565b6000546001546040805160e260020a633d9abf2b028152336004820152600160a060020a0393841660248201529290911660448301525173__AOLibrary_____________________________9163f66afcac916064808301926020929190829003018186803b158015612f9257600080fd5b505af4158015612fa6573d6000803e3d6000fd5b505050506040513d6020811015612fbc57600080fd5b50511515612fc957600080fd5b600160a060020a0381161515612fde57600080fd5b60038054600160a060020a0390921673ffffffffffffffffffffffffffffffffffffffff19928316811790915560078054909216179055565b6007546040805160e060020a63029b7d530281523360048201529051600092600160a060020a03169163029b7d53916024808301926020929190829003018186803b15801561306557600080fd5b505afa158015613079573d6000803e3d6000fd5b505050506040513d602081101561308f57600080fd5b5051600160a060020a031614156130a557600080fd5b6009546007546040805160e060020a63029b7d530281523360048201529051600160a060020a0393841693633ebc2ab393169163029b7d53916024808301926020929190829003018186803b1580156130fd57600080fd5b505afa158015613111573d6000803e3d6000fd5b505050506040513d602081101561312757600080fd5b50516040805160e060020a63ffffffff8516028152600160a060020a039092166004830152516024808301926020929190829003018186803b15801561316c57600080fd5b505afa158015613180573d6000803e3d6000fd5b505050506040513d602081101561319657600080fd5b5051156131a257600080fd5b6007546040805160e060020a63029b7d530281523360048201529051600092600160a060020a03169163029b7d53916024808301926020929190829003018186803b1580156131f057600080fd5b505afa158015613204573d6000803e3d6000fd5b505050506040513d602081101561321a57600080fd5b5051600a54604080517f4a17601700000000000000000000000000000000000000000000000000000000815260048101869052600160a060020a0380851660248301529151939450911691634a176017916044808201926020929091908290030181600087803b15801561328d57600080fd5b505af11580156132a1573d6000803e3d6000fd5b505050506040513d60208110156132b757600080fd5b505115156132c457600080fd5b600a54604080517f81f3e897000000000000000000000000000000000000000000000000000000008152600481018590529051600092600160a060020a0316916381f3e8979160248083019286929190829003018186803b15801561332857600080fd5b505afa15801561333c573d6000803e3d6000fd5b505050506040513d6000823e601f3d908101601f1916820160405261012081101561336657600080fd5b81516020830151604084015160608501516080860180519496939592949193928301929164010000000081111561339c57600080fd5b820160208101848111156133af57600080fd5b81516401000000008111828201871017156133c957600080fd5b505060208201516040830151606084015160809094018051939692959194936401000000008111156133fa57600080fd5b8201602081018481111561340d57600080fd5b815164010000000081118282018710171561342757600080fd5b505092919050505050505050505092505050600b60009054906101000a9004600160a060020a0316600160a060020a031663088fc1a8846040518263ffffffff1660e060020a02815260040180828152602001915050602060405180830381600087803b15801561349757600080fd5b505af11580156134ab573d6000803e3d6000fd5b505050506040513d60208110156134c157600080fd5b505115156134ce57600080fd5b60408051600160a060020a03808416825284166020820152815185927fbb5e0d5e53d5c4edcb39f401558efb469259576f753902721daa75c87b14416c928290030190a2505050565b60026020526000908152604090205460ff1681565b600454600160a060020a031681565b600581565b6000908152600f602052604090205460ff1690565b600054600160a060020a031681565b600c5481565b600381565b600354600160a060020a031681565b600080600d600084600160a060020a0316600160a060020a03168152602001908152602001600020600030866040516020018083600160a060020a0316600160a060020a03166c0100000000000000000000000002815260140182805190602001908083835b602083106136035780518252601f1990920191602091820191016135e4565b6001836020036101000a038019825116818451168082178552505050505050905001925050506040516020818303038152906040528051906020012081526020019081526020016000205411905092915050565b600554600160a060020a031681565b600654600160a060020a031681565b6000546001546040805160e260020a633d9abf2b028152336004820152600160a060020a0393841660248201529290911660448301525173__AOLibrary_____________________________9163f66afcac916064808301926020929190829003018186803b1580156136e757600080fd5b505af41580156136fb573d6000803e3d6000fd5b505050506040513d602081101561371157600080fd5b5051151561371e57600080fd5b600160a060020a038116151561373357600080fd5b6000805473ffffffffffffffffffffffffffffffffffffffff1916600160a060020a0392909216919091179055565b600181565b600c54600d600084600160a060020a0316600160a060020a03168152602001908152602001600020600030876040516020018083600160a060020a0316600160a060020a03166c0100000000000000000000000002815260140182805190602001908083835b602083106137ec5780518252601f1990920191602091820191016137cd565b6001836020036101000a0380198251168184511680821785525050505050509050019250505060405160208183030381529060405280519060200120815260200190815260200160002081905550600080600a60009054906101000a9004600160a060020a0316600160a060020a0316634c5598cd600c5489898989896040518763ffffffff1660e060020a0281526004018087815260200186600160a060020a0316600160a060020a031681526020018060200185600160a060020a0316600160a060020a0316815260200184600160a060020a0316600160a060020a0316815260200180602001838103835287818151815260200191508051906020019080838360005b8381101561390a5781810151838201526020016138f2565b50505050905090810190601f1680156139375780820380516001836020036101000a031916815260200191505b50838103825284518152845160209182019186019080838360005b8381101561396a578181015183820152602001613952565b50505050905090810190601f1680156139975780820380516001836020036101000a031916815260200191505b50985050505050505050506040805180830381600087803b1580156139bb57600080fd5b505af11580156139cf573d6000803e3d6000fd5b505050506040513d60408110156139e557600080fd5b508051602091820151600c5460408051600160a060020a038b811682528a811682880152606082018690526080820185905260a09282018381528d51938301939093528c51959850939650928c169491937f53322aac567204587b4738d1fb8b8942e91eca09c783083ab113f683fe707367938b938b938e938b938b9390929160c084019187019080838360005b83811015613a8b578181015183820152602001613a73565b50505050905090810190601f168015613ab85780820380516001836020036101000a031916815260200191505b50965050505050505060405180910390a35050505050505056fea165627a7a72305820e968b97a2bc918718efb264537d872a725cc25ab3941848f15ba91eb75d662240029",
  "source": "pragma solidity ^0.5.4;\n\nimport './AOLibrary.sol';\nimport './TheAO.sol';\nimport './IAOSetting.sol';\nimport './INameFactory.sol';\nimport './IAOSettingAttribute.sol';\nimport './IAOSettingValue.sol';\nimport './INameTAOPosition.sol';\nimport './INameAccountRecovery.sol';\n\n/**\n * @title AOSetting\n *\n * This contract stores all AO setting variables\n */\ncontract AOSetting is TheAO, IAOSetting {\n\taddress public nameFactoryAddress;\n\taddress public nameAccountRecoveryAddress;\n\taddress public aoSettingAttributeAddress;\n\taddress public aoSettingValueAddress;\n\n\tINameFactory internal _nameFactory;\n\tINameTAOPosition internal _nameTAOPosition;\n\tINameAccountRecovery internal _nameAccountRecovery;\n\tIAOSettingAttribute internal _aoSettingAttribute;\n\tIAOSettingValue internal _aoSettingValue;\n\n\tuint8 constant public ADDRESS_SETTING_TYPE = 1;\n\tuint8 constant public BOOL_SETTING_TYPE = 2;\n\tuint8 constant public BYTES_SETTING_TYPE = 3;\n\tuint8 constant public STRING_SETTING_TYPE = 4;\n\tuint8 constant public UINT_SETTING_TYPE = 5;\n\n\tuint256 public totalSetting;\n\n\t/**\n\t * Mapping from associatedTAOId's setting name to Setting ID.\n\t *\n\t * Instead of concatenating the associatedTAOID and setting name to create a unique ID for lookup,\n\t * use nested mapping to achieve the same result.\n\t *\n\t * The setting's name needs to be converted to bytes32 since solidity does not support mapping by string.\n\t */\n\tmapping (address => mapping (bytes32 => uint256)) internal nameSettingLookup;\n\n\t// Mapping from updateHashKey to it's settingId\n\tmapping (bytes32 => uint256) public updateHashLookup;\n\n\t// Mapping from setting ID to it's type\n\t// setting type 1 => uint256, 2 => bool, 3 => address, 4 => bytes32, 5 => string\n\tmapping (uint256 => uint8) internal _settingTypeLookup;\n\n\t// Event to be broadcasted to public when a setting is created and waiting for approval\n\tevent SettingCreation(uint256 indexed settingId, address indexed creatorNameId, address creatorTAOId, address associatedTAOId, string settingName, bytes32 associatedTAOSettingId, bytes32 creatorTAOSettingId);\n\n\t// Event to be broadcasted to public when setting creation is approved/rejected by the advocate of associatedTAOId\n\tevent ApproveSettingCreation(uint256 indexed settingId, address associatedTAOId, address associatedTAOAdvocate, bool approved);\n\t// Event to be broadcasted to public when setting creation is finalized by the advocate of creatorTAOId\n\tevent FinalizeSettingCreation(uint256 indexed settingId, address creatorTAOId, address creatorTAOAdvocate);\n\n\t/**\n\t * @dev Constructor function\n\t */\n\tconstructor(address _nameFactoryAddress,\n\t\taddress _nameTAOPositionAddress,\n\t\taddress _nameAccountRecoveryAddress,\n\t\taddress _aoSettingAttributeAddress,\n\t\taddress _aoSettingValueAddress\n\t\t) public {\n\t\tsetNameFactoryAddress(_nameFactoryAddress);\n\t\tsetNameTAOPositionAddress(_nameTAOPositionAddress);\n\t\tsetNameAccountRecoveryAddress(_nameAccountRecoveryAddress);\n\t\tsetAOSettingAttributeAddress(_aoSettingAttributeAddress);\n\t\tsetAOSettingValueAddress(_aoSettingValueAddress);\n\t}\n\n\t/**\n\t * @dev Checks if the calling contract address is The AO\n\t *\t\tOR\n\t *\t\tIf The AO is set to a Name/TAO, then check if calling address is the Advocate\n\t */\n\tmodifier onlyTheAO {\n\t\trequire (AOLibrary.isTheAO(msg.sender, theAO, nameTAOPositionAddress));\n\t\t_;\n\t}\n\n\t/**\n\t * @dev Check if `_taoId` is a TAO\n\t */\n\tmodifier isTAO(address _taoId) {\n\t\trequire (AOLibrary.isTAO(_taoId));\n\t\t_;\n\t}\n\n\t/**\n\t * @dev Check if `_settingName` of `_associatedTAOId` is taken\n\t */\n\tmodifier settingNameNotTaken(string memory _settingName, address _associatedTAOId) {\n\t\trequire (settingNameExist(_settingName, _associatedTAOId) == false);\n\t\t_;\n\t}\n\n\t/**\n\t * @dev Check if msg.sender is the current advocate of Name ID\n\t */\n\tmodifier onlyAdvocate(address _id) {\n\t\trequire (_nameTAOPosition.senderIsAdvocate(msg.sender, _id));\n\t\t_;\n\t}\n\n\t/**\n\t * @dev Check is msg.sender address is a Name\n\t */\n\t modifier senderIsName() {\n\t\trequire (_nameFactory.ethAddressToNameId(msg.sender) != address(0));\n\t\t_;\n\t }\n\n\t/**\n\t * @dev Only allowed if sender's Name is not compromised\n\t */\n\tmodifier senderNameNotCompromised() {\n\t\trequire (!_nameAccountRecovery.isCompromised(_nameFactory.ethAddressToNameId(msg.sender)));\n\t\t_;\n\t}\n\n\t/***** The AO ONLY METHODS *****/\n\t/**\n\t * @dev Transfer ownership of The AO to new address\n\t * @param _theAO The new address to be transferred\n\t */\n\tfunction transferOwnership(address _theAO) public onlyTheAO {\n\t\trequire (_theAO != address(0));\n\t\ttheAO = _theAO;\n\t}\n\n\t/**\n\t * @dev Whitelist `_account` address to transact on behalf of others\n\t * @param _account The address to whitelist\n\t * @param _whitelist Either to whitelist or not\n\t */\n\tfunction setWhitelist(address _account, bool _whitelist) public onlyTheAO {\n\t\trequire (_account != address(0));\n\t\twhitelist[_account] = _whitelist;\n\t}\n\n\t/**\n\t * @dev The AO sets NameFactory address\n\t * @param _nameFactoryAddress The address of NameFactory\n\t */\n\tfunction setNameFactoryAddress(address _nameFactoryAddress) public onlyTheAO {\n\t\trequire (_nameFactoryAddress != address(0));\n\t\tnameFactoryAddress = _nameFactoryAddress;\n\t\t_nameFactory = INameFactory(_nameFactoryAddress);\n\t}\n\n\t/**\n\t * @dev The AO sets NameTAOPosition address\n\t * @param _nameTAOPositionAddress The address of NameTAOPosition\n\t */\n\tfunction setNameTAOPositionAddress(address _nameTAOPositionAddress) public onlyTheAO {\n\t\trequire (_nameTAOPositionAddress != address(0));\n\t\tnameTAOPositionAddress = _nameTAOPositionAddress;\n\t\t_nameTAOPosition = INameTAOPosition(_nameTAOPositionAddress);\n\t}\n\n\t/**\n\t * @dev The AO set the NameAccountRecovery Address\n\t * @param _nameAccountRecoveryAddress The address of NameAccountRecovery\n\t */\n\tfunction setNameAccountRecoveryAddress(address _nameAccountRecoveryAddress) public onlyTheAO {\n\t\trequire (_nameAccountRecoveryAddress != address(0));\n\t\tnameAccountRecoveryAddress = _nameAccountRecoveryAddress;\n\t\t_nameAccountRecovery = INameAccountRecovery(nameAccountRecoveryAddress);\n\t}\n\n\t/**\n\t * @dev The AO sets AOSettingAttribute address\n\t * @param _aoSettingAttributeAddress The address of AOSettingAttribute\n\t */\n\tfunction setAOSettingAttributeAddress(address _aoSettingAttributeAddress) public onlyTheAO {\n\t\trequire (_aoSettingAttributeAddress != address(0));\n\t\taoSettingAttributeAddress = _aoSettingAttributeAddress;\n\t\t_aoSettingAttribute = IAOSettingAttribute(_aoSettingAttributeAddress);\n\t}\n\n\t/**\n\t * @dev The AO sets AOSettingValue address\n\t * @param _aoSettingValueAddress The address of AOSettingValue\n\t */\n\tfunction setAOSettingValueAddress(address _aoSettingValueAddress) public onlyTheAO {\n\t\trequire (_aoSettingValueAddress != address(0));\n\t\taoSettingValueAddress = _aoSettingValueAddress;\n\t\t_aoSettingValue = IAOSettingValue(_aoSettingValueAddress);\n\t}\n\n\t/***** PUBLIC METHODS *****/\n\t/**\n\t * @dev Check whether or not a setting name of an associatedTAOId exist\n\t * @param _settingName The human-readable name of the setting\n\t * @param _associatedTAOId The taoId that the setting affects\n\t * @return true if yes. false otherwise\n\t */\n\tfunction settingNameExist(string memory _settingName, address _associatedTAOId) public view returns (bool) {\n\t\treturn (nameSettingLookup[_associatedTAOId][keccak256(abi.encodePacked(this, _settingName))] > 0);\n\t}\n\n\t/**\n\t * @dev Advocate of _creatorTAOId adds a uint setting\n\t * @param _settingName The human-readable name of the setting\n\t * @param _value The uint256 value of the setting\n\t * @param _creatorTAOId The taoId that created the setting\n\t * @param _associatedTAOId The taoId that the setting affects\n\t * @param _extraData Catch-all string value to be stored if exist\n\t */\n\tfunction addUintSetting(\n\t\tstring memory _settingName,\n\t\tuint256 _value,\n\t\taddress _creatorTAOId,\n\t\taddress _associatedTAOId,\n\t\tstring memory _extraData)\n\t\tpublic\n\t\tisTAO(_creatorTAOId)\n\t\tisTAO(_associatedTAOId)\n\t\tsettingNameNotTaken(_settingName, _associatedTAOId)\n\t\tonlyAdvocate(_creatorTAOId)\n\t\tsenderNameNotCompromised {\n\t\t// Update global variables\n\t\ttotalSetting++;\n\n\t\t_settingTypeLookup[totalSetting] = UINT_SETTING_TYPE;\n\n\t\t// Store the value as pending value\n\t\t_aoSettingValue.setPendingValue(totalSetting, address(0), false, '', '', _value);\n\n\t\t// Store setting creation data\n\t\t_storeSettingCreation(_nameFactory.ethAddressToNameId(msg.sender), _settingName, _creatorTAOId, _associatedTAOId, _extraData);\n\t}\n\n\t/**\n\t * @dev Advocate of _creatorTAOId adds a bool setting\n\t * @param _settingName The human-readable name of the setting\n\t * @param _value The bool value of the setting\n\t * @param _creatorTAOId The taoId that created the setting\n\t * @param _associatedTAOId The taoId that the setting affects\n\t * @param _extraData Catch-all string value to be stored if exist\n\t */\n\tfunction addBoolSetting(\n\t\tstring memory _settingName,\n\t\tbool _value,\n\t\taddress _creatorTAOId,\n\t\taddress _associatedTAOId,\n\t\tstring memory _extraData)\n\t\tpublic\n\t\tisTAO(_creatorTAOId)\n\t\tisTAO(_associatedTAOId)\n\t\tsettingNameNotTaken(_settingName, _associatedTAOId)\n\t\tonlyAdvocate(_creatorTAOId)\n\t\tsenderNameNotCompromised {\n\t\t// Update global variables\n\t\ttotalSetting++;\n\n\t\t_settingTypeLookup[totalSetting] = BOOL_SETTING_TYPE;\n\n\t\t// Store the value as pending value\n\t\t_aoSettingValue.setPendingValue(totalSetting, address(0), _value, '', '', 0);\n\n\t\t// Store setting creation data\n\t\t_storeSettingCreation(_nameFactory.ethAddressToNameId(msg.sender), _settingName, _creatorTAOId, _associatedTAOId, _extraData);\n\t}\n\n\t/**\n\t * @dev Advocate of _creatorTAOId adds an address setting\n\t * @param _settingName The human-readable name of the setting\n\t * @param _value The address value of the setting\n\t * @param _creatorTAOId The taoId that created the setting\n\t * @param _associatedTAOId The taoId that the setting affects\n\t * @param _extraData Catch-all string value to be stored if exist\n\t */\n\tfunction addAddressSetting(\n\t\tstring memory _settingName,\n\t\taddress _value,\n\t\taddress _creatorTAOId,\n\t\taddress _associatedTAOId,\n\t\tstring memory _extraData)\n\t\tpublic\n\t\tisTAO(_creatorTAOId)\n\t\tisTAO(_associatedTAOId)\n\t\tsettingNameNotTaken(_settingName, _associatedTAOId)\n\t\tonlyAdvocate(_creatorTAOId)\n\t\tsenderNameNotCompromised {\n\t\t// Update global variables\n\t\ttotalSetting++;\n\n\t\t_settingTypeLookup[totalSetting] = ADDRESS_SETTING_TYPE;\n\n\t\t// Store the value as pending value\n\t\t_aoSettingValue.setPendingValue(totalSetting, _value, false, '', '', 0);\n\n\t\t// Store setting creation data\n\t\t_storeSettingCreation(_nameFactory.ethAddressToNameId(msg.sender), _settingName, _creatorTAOId, _associatedTAOId, _extraData);\n\t}\n\n\t/**\n\t * @dev Advocate of _creatorTAOId adds a bytes32 setting\n\t * @param _settingName The human-readable name of the setting\n\t * @param _value The bytes32 value of the setting\n\t * @param _creatorTAOId The taoId that created the setting\n\t * @param _associatedTAOId The taoId that the setting affects\n\t * @param _extraData Catch-all string value to be stored if exist\n\t */\n\tfunction addBytesSetting(\n\t\tstring memory _settingName,\n\t\tbytes32 _value,\n\t\taddress _creatorTAOId,\n\t\taddress _associatedTAOId,\n\t\tstring memory _extraData)\n\t\tpublic\n\t\tisTAO(_creatorTAOId)\n\t\tisTAO(_associatedTAOId)\n\t\tsettingNameNotTaken(_settingName, _associatedTAOId)\n\t\tonlyAdvocate(_creatorTAOId)\n\t\tsenderNameNotCompromised {\n\t\t// Update global variables\n\t\ttotalSetting++;\n\n\t\t_settingTypeLookup[totalSetting] = BYTES_SETTING_TYPE;\n\n\t\t// Store the value as pending value\n\t\t_aoSettingValue.setPendingValue(totalSetting, address(0), false, _value, '', 0);\n\n\t\t// Store setting creation data\n\t\t_storeSettingCreation(_nameFactory.ethAddressToNameId(msg.sender), _settingName, _creatorTAOId, _associatedTAOId, _extraData);\n\t}\n\n\t/**\n\t * @dev Advocate of _creatorTAOId adds a string setting\n\t * @param _settingName The human-readable name of the setting\n\t * @param _value The string value of the setting\n\t * @param _creatorTAOId The taoId that created the setting\n\t * @param _associatedTAOId The taoId that the setting affects\n\t * @param _extraData Catch-all string value to be stored if exist\n\t */\n\tfunction addStringSetting(\n\t\tstring memory _settingName,\n\t\tstring memory _value,\n\t\taddress _creatorTAOId,\n\t\taddress _associatedTAOId,\n\t\tstring memory _extraData)\n\t\tpublic\n\t\tisTAO(_creatorTAOId)\n\t\tisTAO(_associatedTAOId)\n\t\tsettingNameNotTaken(_settingName, _associatedTAOId)\n\t\tonlyAdvocate(_creatorTAOId)\n\t\tsenderNameNotCompromised {\n\t\t// Update global variables\n\t\ttotalSetting++;\n\n\t\t_settingTypeLookup[totalSetting] = STRING_SETTING_TYPE;\n\n\t\t// Store the value as pending value\n\t\t_aoSettingValue.setPendingValue(totalSetting, address(0), false, '', _value, 0);\n\n\t\t// Store setting creation data\n\t\t_storeSettingCreation(_nameFactory.ethAddressToNameId(msg.sender), _settingName, _creatorTAOId, _associatedTAOId, _extraData);\n\t}\n\n\t/**\n\t * @dev Advocate of Setting's _associatedTAOId approves setting creation\n\t * @param _settingId The ID of the setting to approve\n\t * @param _approved Whether to approve or reject\n\t */\n\tfunction approveSettingCreation(uint256 _settingId, bool _approved) public senderIsName senderNameNotCompromised {\n\t\taddress _associatedTAOAdvocate = _nameFactory.ethAddressToNameId(msg.sender);\n\t\trequire (_aoSettingAttribute.approveAdd(_settingId, _associatedTAOAdvocate, _approved));\n\t\t(,,, address _associatedTAOId, string memory _settingName,,,,) = _aoSettingAttribute.getSettingData(_settingId);\n\t\tif (!_approved) {\n\t\t\t// Clear the settingName from nameSettingLookup so it can be added again in the future\n\t\t\tdelete nameSettingLookup[_associatedTAOId][keccak256(abi.encodePacked(this, _settingName))];\n\t\t\tdelete _settingTypeLookup[_settingId];\n\t\t}\n\t\temit ApproveSettingCreation(_settingId, _associatedTAOId, _associatedTAOAdvocate, _approved);\n\t}\n\n\t/**\n\t * @dev Advocate of Setting's _creatorTAOId finalizes the setting creation once the setting is approved\n\t * @param _settingId The ID of the setting to be finalized\n\t */\n\tfunction finalizeSettingCreation(uint256 _settingId) public senderIsName senderNameNotCompromised {\n\t\taddress _creatorTAOAdvocate = _nameFactory.ethAddressToNameId(msg.sender);\n\t\trequire (_aoSettingAttribute.finalizeAdd(_settingId, _creatorTAOAdvocate));\n\n\t\t(,,address _creatorTAOId,,,,,,) = _aoSettingAttribute.getSettingData(_settingId);\n\n\t\trequire (_aoSettingValue.movePendingToSetting(_settingId));\n\n\t\temit FinalizeSettingCreation(_settingId, _creatorTAOId, _creatorTAOAdvocate);\n\t}\n\n\t/**\n\t * @dev Get setting type of a setting ID\n\t * @param _settingId The ID of the setting\n\t * @return the setting type value\n\t *\t\t   setting type 1 => uint256, 2 => bool, 3 => address, 4 => bytes32, 5 => string\n\t */\n\tfunction settingTypeLookup(uint256 _settingId) external view returns (uint8) {\n\t\treturn _settingTypeLookup[_settingId];\n\t}\n\n\t/**\n\t * @dev Get setting Id given an associatedTAOId and settingName\n\t * @param _associatedTAOId The ID of the AssociatedTAO\n\t * @param _settingName The name of the setting\n\t * @return the ID of the setting\n\t */\n\tfunction getSettingIdByTAOName(address _associatedTAOId, string memory _settingName) public view returns (uint256) {\n\t\treturn nameSettingLookup[_associatedTAOId][keccak256(abi.encodePacked(this, _settingName))];\n\t}\n\n\t/**\n\t * @dev Get setting values by setting ID.\n\t *\t\tWill throw error if the setting is not exist or rejected.\n\t * @param _settingId The ID of the setting\n\t * @return the uint256 value of this setting ID\n\t * @return the bool value of this setting ID\n\t * @return the address value of this setting ID\n\t * @return the bytes32 value of this setting ID\n\t * @return the string value of this setting ID\n\t */\n\tfunction getSettingValuesById(uint256 _settingId) public view returns (uint256, bool, address, bytes32, string memory) {\n\t\trequire (_aoSettingAttribute.settingExist(_settingId));\n\t\t_settingId = _aoSettingAttribute.getLatestSettingId(_settingId);\n\t\t(address _addressValue, bool _boolValue, bytes32 _bytesValue, string memory _stringValue, uint256 _uintValue) = _aoSettingValue.settingValue(_settingId);\n\t\treturn (_uintValue, _boolValue, _addressValue, _bytesValue, _stringValue);\n\t}\n\n\t/**\n\t * @dev Get setting values by taoId and settingName.\n\t *\t\tWill throw error if the setting is not exist or rejected.\n\t * @param _taoId The ID of the TAO\n\t * @param _settingName The name of the setting\n\t * @return the uint256 value of this setting ID\n\t * @return the bool value of this setting ID\n\t * @return the address value of this setting ID\n\t * @return the bytes32 value of this setting ID\n\t * @return the string value of this setting ID\n\t */\n\tfunction getSettingValuesByTAOName(address _taoId, string calldata _settingName) external view returns (uint256, bool, address, bytes32, string memory) {\n\t\treturn getSettingValuesById(getSettingIdByTAOName(_taoId, _settingName));\n\t}\n\n\t/**\n\t * @dev Return the setting type values\n\t * @return The setting type value for address\n\t * @return The setting type value for bool\n\t * @return The setting type value for bytes\n\t * @return The setting type value for string\n\t * @return The setting type value for uint\n\t */\n\tfunction getSettingTypes() external view returns (uint8, uint8, uint8, uint8, uint8) {\n\t\treturn (\n\t\t\tADDRESS_SETTING_TYPE,\n\t\t\tBOOL_SETTING_TYPE,\n\t\t\tBYTES_SETTING_TYPE,\n\t\t\tSTRING_SETTING_TYPE,\n\t\t\tUINT_SETTING_TYPE\n\t\t);\n\t}\n\n\t/***** Internal Method *****/\n\t/**\n\t * @dev Store setting creation data\n\t * @param _creatorNameId The nameId that created the setting\n\t * @param _settingName The human-readable name of the setting\n\t * @param _creatorTAOId The taoId that created the setting\n\t * @param _associatedTAOId The taoId that the setting affects\n\t * @param _extraData Catch-all string value to be stored if exist\n\t */\n\tfunction _storeSettingCreation(address _creatorNameId, string memory _settingName, address _creatorTAOId, address _associatedTAOId, string memory _extraData) internal {\n\t\t// Store nameSettingLookup\n\t\tnameSettingLookup[_associatedTAOId][keccak256(abi.encodePacked(address(this), _settingName))] = totalSetting;\n\n\t\t// Store setting data/state\n\t\t(bytes32 _associatedTAOSettingId, bytes32 _creatorTAOSettingId) = _aoSettingAttribute.add(totalSetting, _creatorNameId, _settingName, _creatorTAOId, _associatedTAOId, _extraData);\n\n\t\temit SettingCreation(totalSetting, _creatorNameId, _creatorTAOId, _associatedTAOId, _settingName, _associatedTAOSettingId, _creatorTAOSettingId);\n\t}\n}\n",
  "sourcePath": "/usr/local/ao-contracts/contracts/AOSetting.sol",
  "compiler": {
    "name": "solc",
    "version": "0.5.4+commit.9549d8ff.Emscripten.clang"
  },
  "schemaVersion": "3.0.2",
  "updatedAt": "2019-03-21T02:41:21.330Z",
  "devdoc": {
    "methods": {
      "addAddressSetting(string,address,address,address,string)": {
        "details": "Advocate of _creatorTAOId adds an address setting",
        "params": {
          "_associatedTAOId": "The taoId that the setting affects",
          "_creatorTAOId": "The taoId that created the setting",
          "_extraData": "Catch-all string value to be stored if exist",
          "_settingName": "The human-readable name of the setting",
          "_value": "The address value of the setting"
        }
      },
      "addBoolSetting(string,bool,address,address,string)": {
        "details": "Advocate of _creatorTAOId adds a bool setting",
        "params": {
          "_associatedTAOId": "The taoId that the setting affects",
          "_creatorTAOId": "The taoId that created the setting",
          "_extraData": "Catch-all string value to be stored if exist",
          "_settingName": "The human-readable name of the setting",
          "_value": "The bool value of the setting"
        }
      },
      "addBytesSetting(string,bytes32,address,address,string)": {
        "details": "Advocate of _creatorTAOId adds a bytes32 setting",
        "params": {
          "_associatedTAOId": "The taoId that the setting affects",
          "_creatorTAOId": "The taoId that created the setting",
          "_extraData": "Catch-all string value to be stored if exist",
          "_settingName": "The human-readable name of the setting",
          "_value": "The bytes32 value of the setting"
        }
      },
      "addStringSetting(string,string,address,address,string)": {
        "details": "Advocate of _creatorTAOId adds a string setting",
        "params": {
          "_associatedTAOId": "The taoId that the setting affects",
          "_creatorTAOId": "The taoId that created the setting",
          "_extraData": "Catch-all string value to be stored if exist",
          "_settingName": "The human-readable name of the setting",
          "_value": "The string value of the setting"
        }
      },
      "addUintSetting(string,uint256,address,address,string)": {
        "details": "Advocate of _creatorTAOId adds a uint setting",
        "params": {
          "_associatedTAOId": "The taoId that the setting affects",
          "_creatorTAOId": "The taoId that created the setting",
          "_extraData": "Catch-all string value to be stored if exist",
          "_settingName": "The human-readable name of the setting",
          "_value": "The uint256 value of the setting"
        }
      },
      "approveSettingCreation(uint256,bool)": {
        "details": "Advocate of Setting's _associatedTAOId approves setting creation",
        "params": {
          "_approved": "Whether to approve or reject",
          "_settingId": "The ID of the setting to approve"
        }
      },
      "constructor": {
        "details": "Constructor function"
      },
      "finalizeSettingCreation(uint256)": {
        "details": "Advocate of Setting's _creatorTAOId finalizes the setting creation once the setting is approved",
        "params": {
          "_settingId": "The ID of the setting to be finalized"
        }
      },
      "getSettingIdByTAOName(address,string)": {
        "details": "Get setting Id given an associatedTAOId and settingName",
        "params": {
          "_associatedTAOId": "The ID of the AssociatedTAO",
          "_settingName": "The name of the setting"
        },
        "return": "the ID of the setting"
      },
      "getSettingTypes()": {
        "details": "Return the setting type values",
        "return": "The setting type value for addressThe setting type value for boolThe setting type value for bytesThe setting type value for stringThe setting type value for uint"
      },
      "getSettingValuesById(uint256)": {
        "details": "Get setting values by setting ID.\tWill throw error if the setting is not exist or rejected.",
        "params": {
          "_settingId": "The ID of the setting"
        },
        "return": "the uint256 value of this setting IDthe bool value of this setting IDthe address value of this setting IDthe bytes32 value of this setting IDthe string value of this setting ID"
      },
      "getSettingValuesByTAOName(address,string)": {
        "details": "Get setting values by taoId and settingName.\tWill throw error if the setting is not exist or rejected.",
        "params": {
          "_settingName": "The name of the setting",
          "_taoId": "The ID of the TAO"
        },
        "return": "the uint256 value of this setting IDthe bool value of this setting IDthe address value of this setting IDthe bytes32 value of this setting IDthe string value of this setting ID"
      },
      "setAOSettingAttributeAddress(address)": {
        "details": "The AO sets AOSettingAttribute address",
        "params": {
          "_aoSettingAttributeAddress": "The address of AOSettingAttribute"
        }
      },
      "setAOSettingValueAddress(address)": {
        "details": "The AO sets AOSettingValue address",
        "params": {
          "_aoSettingValueAddress": "The address of AOSettingValue"
        }
      },
      "setNameAccountRecoveryAddress(address)": {
        "details": "The AO set the NameAccountRecovery Address",
        "params": {
          "_nameAccountRecoveryAddress": "The address of NameAccountRecovery"
        }
      },
      "setNameFactoryAddress(address)": {
        "details": "The AO sets NameFactory address",
        "params": {
          "_nameFactoryAddress": "The address of NameFactory"
        }
      },
      "setNameTAOPositionAddress(address)": {
        "details": "The AO sets NameTAOPosition address",
        "params": {
          "_nameTAOPositionAddress": "The address of NameTAOPosition"
        }
      },
      "setWhitelist(address,bool)": {
        "details": "Whitelist `_account` address to transact on behalf of others",
        "params": {
          "_account": "The address to whitelist",
          "_whitelist": "Either to whitelist or not"
        }
      },
      "settingNameExist(string,address)": {
        "details": "Check whether or not a setting name of an associatedTAOId exist",
        "params": {
          "_associatedTAOId": "The taoId that the setting affects",
          "_settingName": "The human-readable name of the setting"
        },
        "return": "true if yes. false otherwise"
      },
      "settingTypeLookup(uint256)": {
        "details": "Get setting type of a setting ID",
        "params": {
          "_settingId": "The ID of the setting"
        },
        "return": "the setting type value\t   setting type 1 => uint256, 2 => bool, 3 => address, 4 => bytes32, 5 => string"
      },
      "transferOwnership(address)": {
        "details": "Transfer ownership of The AO to new address",
        "params": {
          "_theAO": "The new address to be transferred"
        }
      }
    },
    "title": "AOSetting * This contract stores all AO setting variables"
  },
  "userdoc": {
    "methods": {}
  }
}