{
  "contractName": "AOSettingValue",
  "abi": [
    {
      "constant": true,
      "inputs": [],
      "name": "nameTAOPositionAddress",
      "outputs": [
        {
          "name": "",
          "type": "address"
        }
      ],
      "payable": false,
      "stateMutability": "view",
      "type": "function"
    },
    {
      "constant": true,
      "inputs": [
        {
          "name": "",
          "type": "address"
        }
      ],
      "name": "whitelist",
      "outputs": [
        {
          "name": "",
          "type": "bool"
        }
      ],
      "payable": false,
      "stateMutability": "view",
      "type": "function"
    },
    {
      "constant": true,
      "inputs": [],
      "name": "theAO",
      "outputs": [
        {
          "name": "",
          "type": "address"
        }
      ],
      "payable": false,
      "stateMutability": "view",
      "type": "function"
    },
    {
      "inputs": [
        {
          "name": "_nameTAOPositionAddress",
          "type": "address"
        }
      ],
      "payable": false,
      "stateMutability": "nonpayable",
      "type": "constructor"
    },
    {
      "constant": false,
      "inputs": [
        {
          "name": "_theAO",
          "type": "address"
        }
      ],
      "name": "transferOwnership",
      "outputs": [],
      "payable": false,
      "stateMutability": "nonpayable",
      "type": "function"
    },
    {
      "constant": false,
      "inputs": [
        {
          "name": "_account",
          "type": "address"
        },
        {
          "name": "_whitelist",
          "type": "bool"
        }
      ],
      "name": "setWhitelist",
      "outputs": [],
      "payable": false,
      "stateMutability": "nonpayable",
      "type": "function"
    },
    {
      "constant": false,
      "inputs": [
        {
          "name": "_nameTAOPositionAddress",
          "type": "address"
        }
      ],
      "name": "setNameTAOPositionAddress",
      "outputs": [],
      "payable": false,
      "stateMutability": "nonpayable",
      "type": "function"
    },
    {
      "constant": false,
      "inputs": [
        {
          "name": "_settingId",
          "type": "uint256"
        },
        {
          "name": "_addressValue",
          "type": "address"
        },
        {
          "name": "_boolValue",
          "type": "bool"
        },
        {
          "name": "_bytesValue",
          "type": "bytes32"
        },
        {
          "name": "_stringValue",
          "type": "string"
        },
        {
          "name": "_uintValue",
          "type": "uint256"
        }
      ],
      "name": "setPendingValue",
      "outputs": [
        {
          "name": "",
          "type": "bool"
        }
      ],
      "payable": false,
      "stateMutability": "nonpayable",
      "type": "function"
    },
    {
      "constant": false,
      "inputs": [
        {
          "name": "_settingId",
          "type": "uint256"
        }
      ],
      "name": "movePendingToSetting",
      "outputs": [
        {
          "name": "",
          "type": "bool"
        }
      ],
      "payable": false,
      "stateMutability": "nonpayable",
      "type": "function"
    },
    {
      "constant": true,
      "inputs": [
        {
          "name": "_settingId",
          "type": "uint256"
        }
      ],
      "name": "settingValue",
      "outputs": [
        {
          "name": "",
          "type": "address"
        },
        {
          "name": "",
          "type": "bool"
        },
        {
          "name": "",
          "type": "bytes32"
        },
        {
          "name": "",
          "type": "string"
        },
        {
          "name": "",
          "type": "uint256"
        }
      ],
      "payable": false,
      "stateMutability": "view",
      "type": "function"
    },
    {
      "constant": true,
      "inputs": [
        {
          "name": "_settingId",
          "type": "uint256"
        }
      ],
      "name": "pendingValue",
      "outputs": [
        {
          "name": "",
          "type": "address"
        },
        {
          "name": "",
          "type": "bool"
        },
        {
          "name": "",
          "type": "bytes32"
        },
        {
          "name": "",
          "type": "string"
        },
        {
          "name": "",
          "type": "uint256"
        }
      ],
      "payable": false,
      "stateMutability": "view",
      "type": "function"
    }
  ],
  "bytecode": "0x608060405234801561001057600080fd5b50604051602080610de88339810180604052602081101561003057600080fd5b505160008054600160a060020a031916331790556100568164010000000061005c810204565b50610152565b600054600154604080517ff66afcac000000000000000000000000000000000000000000000000000000008152336004820152600160a060020a0393841660248201529290911660448301525173__AOLibrary_____________________________9163f66afcac916064808301926020929190829003018186803b1580156100e457600080fd5b505af41580156100f8573d6000803e3d6000fd5b505050506040513d602081101561010e57600080fd5b5051151561011b57600080fd5b600160a060020a038116151561013057600080fd5b60018054600160a060020a031916600160a060020a0392909216919091179055565b610c87806101616000396000f3fe608060405234801561001057600080fd5b50600436106100bb576000357c0100000000000000000000000000000000000000000000000000000000900480639ba535ce116100835780639ba535ce14610191578063a9b6b38e14610258578063af9e8b1614610260578063ccdd6afd1461027d578063f2fde38b14610310576100bb565b8063088fc1a8146100c05780634ef033f0146100f157806353d6fd59146101155780635cfaf2ef146101455780639b19251a1461016b575b600080fd5b6100dd600480360360208110156100d657600080fd5b5035610336565b604080519115158252519081900360200190f35b6100f9610531565b60408051600160a060020a039092168252519081900360200190f35b6101436004803603604081101561012b57600080fd5b50600160a060020a0381351690602001351515610540565b005b6101436004803603602081101561015b57600080fd5b5035600160a060020a031661063f565b6100dd6004803603602081101561018157600080fd5b5035600160a060020a0316610742565b6101ae600480360360208110156101a757600080fd5b5035610757565b6040518086600160a060020a0316600160a060020a031681526020018515151515815260200184815260200180602001838152602001828103825284818151815260200191508051906020019080838360005b83811015610219578181015183820152602001610201565b50505050905090810190601f1680156102465780820380516001836020036101000a031916815260200191505b50965050505050505060405180910390f35b6100f9610875565b6101ae6004803603602081101561027657600080fd5b5035610884565b6100dd600480360360c081101561029357600080fd5b813591600160a060020a0360208201351691604082013515159160608101359181019060a0810160808201356401000000008111156102d157600080fd5b8201836020820111156102e357600080fd5b8035906020019184600183028401116401000000008311171561030557600080fd5b91935091503561093a565b6101436004803603602081101561032657600080fd5b5035600160a060020a03166109db565b3360009081526002602052604081205460ff16151560011461035757600080fd5b61035f610ade565b600083815260036020908152604091829020825160a0810184528154600160a060020a038116825260a060020a900460ff16151581840152600180830154828601526002808401805487516101009482161594909402600019011691909104601f81018690048602830186019096528582529194929360608601939192919083018282801561042f5780601f106104045761010080835404028352916020019161042f565b820191906000526020600020905b81548152906001019060200180831161041257829003601f168201915b5050509183525050600391909101546020918201526000858152600482526040908190208351815485850151151560a060020a0274ff000000000000000000000000000000000000000019600160a060020a0390931673ffffffffffffffffffffffffffffffffffffffff1990921691909117919091161781559083015160018201556060830151805193945090926104ce9260028501920190610b0b565b506080820151600380830191909155600085815260209190915260408120805474ffffffffffffffffffffffffffffffffffffffffff19168155600181018290559061051d6002830182610b89565b506000600391909101555060019392505050565b600154600160a060020a031681565b600054600154604080517ff66afcac000000000000000000000000000000000000000000000000000000008152336004820152600160a060020a0393841660248201529290911660448301525173__AOLibrary_____________________________9163f66afcac916064808301926020929190829003018186803b1580156105c857600080fd5b505af41580156105dc573d6000803e3d6000fd5b505050506040513d60208110156105f257600080fd5b505115156105ff57600080fd5b600160a060020a038216151561061457600080fd5b600160a060020a03919091166000908152600260205260409020805460ff1916911515919091179055565b600054600154604080517ff66afcac000000000000000000000000000000000000000000000000000000008152336004820152600160a060020a0393841660248201529290911660448301525173__AOLibrary_____________________________9163f66afcac916064808301926020929190829003018186803b1580156106c757600080fd5b505af41580156106db573d6000803e3d6000fd5b505050506040513d60208110156106f157600080fd5b505115156106fe57600080fd5b600160a060020a038116151561071357600080fd5b6001805473ffffffffffffffffffffffffffffffffffffffff1916600160a060020a0392909216919091179055565b60026020526000908152604090205460ff1681565b600080600060606000610768610ade565b600087815260046020908152604091829020825160a0810184528154600160a060020a038116825260a060020a900460ff16151581840152600180830154828601526002808401805487516101009482161594909402600019011691909104601f8101869004860283018601909652858252919492936060860193919291908301828280156108385780601f1061080d57610100808354040283529160200191610838565b820191906000526020600020905b81548152906001019060200180831161081b57829003601f168201915b50505091835250506003919091015460209182015281519082015160408301516060840151608090940151929b919a509850919650945092505050565b600054600160a060020a031681565b600080600060606000610895610ade565b600087815260036020908152604091829020825160a0810184528154600160a060020a038116825260a060020a900460ff16151581840152600180830154828601526002808401805487516101009482161594909402600019011691909104601f8101869004860283018601909652858252919492936060860193919291908301828280156108385780601f1061080d57610100808354040283529160200191610838565b3360009081526002602052604081205460ff16151560011461095b57600080fd5b6000888152600360205260409020805473ffffffffffffffffffffffffffffffffffffffff1916600160a060020a0389161774ff0000000000000000000000000000000000000000191660a060020a88151502178155600181018690556109c6600282018686610bd0565b50600301829055506001979650505050505050565b600054600154604080517ff66afcac000000000000000000000000000000000000000000000000000000008152336004820152600160a060020a0393841660248201529290911660448301525173__AOLibrary_____________________________9163f66afcac916064808301926020929190829003018186803b158015610a6357600080fd5b505af4158015610a77573d6000803e3d6000fd5b505050506040513d6020811015610a8d57600080fd5b50511515610a9a57600080fd5b600160a060020a0381161515610aaf57600080fd5b6000805473ffffffffffffffffffffffffffffffffffffffff1916600160a060020a0392909216919091179055565b6040805160a081018252600080825260208201819052918101829052606080820152608081019190915290565b828054600181600116156101000203166002900490600052602060002090601f016020900481019282601f10610b4c57805160ff1916838001178555610b79565b82800160010185558215610b79579182015b82811115610b79578251825591602001919060010190610b5e565b50610b85929150610c3e565b5090565b50805460018160011615610100020316600290046000825580601f10610baf5750610bcd565b601f016020900490600052602060002090810190610bcd9190610c3e565b50565b828054600181600116156101000203166002900490600052602060002090601f016020900481019282601f10610c115782800160ff19823516178555610b79565b82800160010185558215610b79579182015b82811115610b79578235825591602001919060010190610c23565b610c5891905b80821115610b855760008155600101610c44565b9056fea165627a7a72305820717317f4cf20ce102805470b376eeb729aec4f8542d061fe750fc68bfb3541af0029",
  "source": "pragma solidity ^0.5.4;\n\nimport './AOLibrary.sol';\nimport './TheAO.sol';\nimport './IAOSettingValue.sol';\n\n/**\n * @title AOSettingValue\n *\n */\ncontract AOSettingValue is TheAO, IAOSettingValue {\n\tstruct PendingValue {\n\t\taddress addressValue;\n\t\tbool boolValue;\n\t\tbytes32 bytesValue;\n\t\tstring stringValue;\n\t\tuint256 uintValue;\n\t}\n\n\tstruct SettingValue {\n\t\taddress addressValue;\n\t\tbool boolValue;\n\t\tbytes32 bytesValue;\n\t\tstring stringValue;\n\t\tuint256 uintValue;\n\t}\n\n\t// Mapping from settingId to PendingValue\n\tmapping (uint256 => PendingValue) internal pendingValues;\n\n\t// Mapping from settingId to SettingValue\n\tmapping (uint256 => SettingValue) internal settingValues;\n\n\t/**\n\t * @dev Constructor function\n\t */\n\tconstructor(address _nameTAOPositionAddress) public {\n\t\tsetNameTAOPositionAddress(_nameTAOPositionAddress);\n\t}\n\n\t/**\n\t * @dev Checks if the calling contract address is The AO\n\t *\t\tOR\n\t *\t\tIf The AO is set to a Name/TAO, then check if calling address is the Advocate\n\t */\n\tmodifier onlyTheAO {\n\t\trequire (AOLibrary.isTheAO(msg.sender, theAO, nameTAOPositionAddress));\n\t\t_;\n\t}\n\n\t/***** The AO ONLY METHODS *****/\n\t/**\n\t * @dev Transfer ownership of The AO to new address\n\t * @param _theAO The new address to be transferred\n\t */\n\tfunction transferOwnership(address _theAO) public onlyTheAO {\n\t\trequire (_theAO != address(0));\n\t\ttheAO = _theAO;\n\t}\n\n\t/**\n\t * @dev Whitelist `_account` address to transact on behalf of others\n\t * @param _account The address to whitelist\n\t * @param _whitelist Either to whitelist or not\n\t */\n\tfunction setWhitelist(address _account, bool _whitelist) public onlyTheAO {\n\t\trequire (_account != address(0));\n\t\twhitelist[_account] = _whitelist;\n\t}\n\n\t/**\n\t * @dev The AO set the NameTAOPosition Address\n\t * @param _nameTAOPositionAddress The address of NameTAOPosition\n\t */\n\tfunction setNameTAOPositionAddress(address _nameTAOPositionAddress) public onlyTheAO {\n\t\trequire (_nameTAOPositionAddress != address(0));\n\t\tnameTAOPositionAddress = _nameTAOPositionAddress;\n\t}\n\n\t/***** PUBLIC METHODS *****/\n\t/**\n\t * @dev Set pending value\n\t * @param _settingId The ID of the setting\n\t * @param _addressValue The address value to be set\n\t * @param _boolValue The bool value to be set\n\t * @param _bytesValue The bytes32 value to be set\n\t * @param _stringValue The string value to be set\n\t * @param _uintValue The uint256 value to be set\n\t * @return true on success\n\t */\n\tfunction setPendingValue(uint256 _settingId,\n\t\taddress _addressValue,\n\t\tbool _boolValue,\n\t\tbytes32 _bytesValue,\n\t\tstring calldata _stringValue,\n\t\tuint256 _uintValue) external inWhitelist returns (bool) {\n\t\tPendingValue storage _pendingValue = pendingValues[_settingId];\n\t\t_pendingValue.addressValue = _addressValue;\n\t\t_pendingValue.boolValue = _boolValue;\n\t\t_pendingValue.bytesValue = _bytesValue;\n\t\t_pendingValue.stringValue = _stringValue;\n\t\t_pendingValue.uintValue = _uintValue;\n\t\treturn true;\n\t}\n\n\t/**\n\t * @dev Move value from pending to setting\n\t * @param _settingId The ID of the setting\n\t * @return true on success\n\t */\n\tfunction movePendingToSetting(uint256 _settingId) external inWhitelist returns (bool) {\n\t\tPendingValue memory _pendingValue = pendingValues[_settingId];\n\t\tSettingValue storage _settingValue = settingValues[_settingId];\n\t\t_settingValue.addressValue = _pendingValue.addressValue;\n\t\t_settingValue.boolValue = _pendingValue.boolValue;\n\t\t_settingValue.bytesValue = _pendingValue.bytesValue;\n\t\t_settingValue.stringValue = _pendingValue.stringValue;\n\t\t_settingValue.uintValue = _pendingValue.uintValue;\n\t\tdelete pendingValues[_settingId];\n\t\treturn true;\n\t}\n\n\t/**\n\t * @dev Get setting value given a setting ID\n\t * @return The address setting value\n\t * @return The bool setting value\n\t * @return The bytes32 setting value\n\t * @return The string setting value\n\t * @return The uint256 setting value\n\t */\n\tfunction settingValue(uint256 _settingId) external view returns (address, bool, bytes32, string memory, uint256) {\n\t\tSettingValue memory _settingValue = settingValues[_settingId];\n\t\treturn (\n\t\t\t_settingValue.addressValue,\n\t\t\t_settingValue.boolValue,\n\t\t\t_settingValue.bytesValue,\n\t\t\t_settingValue.stringValue,\n\t\t\t_settingValue.uintValue\n\t\t);\n\t}\n\n\t/**\n\t * @dev Get pending value given a setting ID\n\t * @return The address pending value\n\t * @return The bool pending value\n\t * @return The bytes32 pending value\n\t * @return The string pending value\n\t * @return The uint256 pending value\n\t */\n\tfunction pendingValue(uint256 _settingId) public view returns (address, bool, bytes32, string memory, uint256) {\n\t\tPendingValue memory _pendingValue = pendingValues[_settingId];\n\t\treturn (\n\t\t\t_pendingValue.addressValue,\n\t\t\t_pendingValue.boolValue,\n\t\t\t_pendingValue.bytesValue,\n\t\t\t_pendingValue.stringValue,\n\t\t\t_pendingValue.uintValue\n\t\t);\n\t}\n}\n",
  "sourcePath": "/usr/local/ao-contracts/contracts/AOSettingValue.sol",
  "compiler": {
    "name": "solc",
    "version": "0.5.4+commit.9549d8ff.Emscripten.clang"
  },
  "schemaVersion": "3.0.2",
  "updatedAt": "2019-03-21T02:41:21.045Z",
  "devdoc": {
    "methods": {
      "constructor": {
        "details": "Constructor function"
      },
      "movePendingToSetting(uint256)": {
        "details": "Move value from pending to setting",
        "params": {
          "_settingId": "The ID of the setting"
        },
        "return": "true on success"
      },
      "pendingValue(uint256)": {
        "details": "Get pending value given a setting ID",
        "return": "The address pending valueThe bool pending valueThe bytes32 pending valueThe string pending valueThe uint256 pending value"
      },
      "setNameTAOPositionAddress(address)": {
        "details": "The AO set the NameTAOPosition Address",
        "params": {
          "_nameTAOPositionAddress": "The address of NameTAOPosition"
        }
      },
      "setPendingValue(uint256,address,bool,bytes32,string,uint256)": {
        "details": "Set pending value",
        "params": {
          "_addressValue": "The address value to be set",
          "_boolValue": "The bool value to be set",
          "_bytesValue": "The bytes32 value to be set",
          "_settingId": "The ID of the setting",
          "_stringValue": "The string value to be set",
          "_uintValue": "The uint256 value to be set"
        },
        "return": "true on success"
      },
      "setWhitelist(address,bool)": {
        "details": "Whitelist `_account` address to transact on behalf of others",
        "params": {
          "_account": "The address to whitelist",
          "_whitelist": "Either to whitelist or not"
        }
      },
      "settingValue(uint256)": {
        "details": "Get setting value given a setting ID",
        "return": "The address setting valueThe bool setting valueThe bytes32 setting valueThe string setting valueThe uint256 setting value"
      },
      "transferOwnership(address)": {
        "details": "Transfer ownership of The AO to new address",
        "params": {
          "_theAO": "The new address to be transferred"
        }
      }
    },
    "title": "AOSettingValue "
  },
  "userdoc": {
    "methods": {}
  }
}