{
	"contractName": "AOSettingDeprecation",
	"abi": [
		{
			"constant": true,
			"inputs": [],
			"name": "aoSettingAddress",
			"outputs": [
				{
					"name": "",
					"type": "address"
				}
			],
			"payable": false,
			"stateMutability": "view",
			"type": "function",
			"signature": "0x1d0138ff"
		},
		{
			"constant": true,
			"inputs": [],
			"name": "nameTAOPositionAddress",
			"outputs": [
				{
					"name": "",
					"type": "address"
				}
			],
			"payable": false,
			"stateMutability": "view",
			"type": "function",
			"signature": "0x4ef033f0"
		},
		{
			"constant": true,
			"inputs": [
				{
					"name": "",
					"type": "address"
				}
			],
			"name": "whitelist",
			"outputs": [
				{
					"name": "",
					"type": "bool"
				}
			],
			"payable": false,
			"stateMutability": "view",
			"type": "function",
			"signature": "0x9b19251a"
		},
		{
			"constant": true,
			"inputs": [],
			"name": "nameAccountRecoveryAddress",
			"outputs": [
				{
					"name": "",
					"type": "address"
				}
			],
			"payable": false,
			"stateMutability": "view",
			"type": "function",
			"signature": "0xa4e5fad2"
		},
		{
			"constant": true,
			"inputs": [],
			"name": "theAO",
			"outputs": [
				{
					"name": "",
					"type": "address"
				}
			],
			"payable": false,
			"stateMutability": "view",
			"type": "function",
			"signature": "0xa9b6b38e"
		},
		{
			"constant": true,
			"inputs": [],
			"name": "nameFactoryAddress",
			"outputs": [
				{
					"name": "",
					"type": "address"
				}
			],
			"payable": false,
			"stateMutability": "view",
			"type": "function",
			"signature": "0xbc406206"
		},
		{
			"constant": true,
			"inputs": [],
			"name": "aoSettingAttributeAddress",
			"outputs": [
				{
					"name": "",
					"type": "address"
				}
			],
			"payable": false,
			"stateMutability": "view",
			"type": "function",
			"signature": "0xcf8477cf"
		},
		{
			"inputs": [
				{
					"name": "_nameFactoryAddress",
					"type": "address"
				},
				{
					"name": "_nameTAOPositionAddress",
					"type": "address"
				},
				{
					"name": "_nameAccountRecoveryAddress",
					"type": "address"
				},
				{
					"name": "_aoSettingAttributeAddress",
					"type": "address"
				},
				{
					"name": "_aoSettingAddress",
					"type": "address"
				}
			],
			"payable": false,
			"stateMutability": "nonpayable",
			"type": "constructor",
			"signature": "constructor"
		},
		{
			"anonymous": false,
			"inputs": [
				{
					"indexed": true,
					"name": "settingId",
					"type": "uint256"
				},
				{
					"indexed": true,
					"name": "creatorNameId",
					"type": "address"
				},
				{
					"indexed": false,
					"name": "creatorTAOId",
					"type": "address"
				},
				{
					"indexed": false,
					"name": "associatedTAOId",
					"type": "address"
				},
				{
					"indexed": false,
					"name": "newSettingId",
					"type": "uint256"
				},
				{
					"indexed": false,
					"name": "newSettingContractAddress",
					"type": "address"
				},
				{
					"indexed": false,
					"name": "associatedTAOSettingDeprecationId",
					"type": "bytes32"
				},
				{
					"indexed": false,
					"name": "creatorTAOSettingDeprecationId",
					"type": "bytes32"
				}
			],
			"name": "SettingDeprecation",
			"type": "event",
			"signature": "0x5b0aa40d58b997f6865a44dcb51e82305ff4fc4d2f7fed2e10d853de9394ae2a"
		},
		{
			"anonymous": false,
			"inputs": [
				{
					"indexed": true,
					"name": "settingId",
					"type": "uint256"
				},
				{
					"indexed": false,
					"name": "associatedTAOId",
					"type": "address"
				},
				{
					"indexed": false,
					"name": "associatedTAOAdvocate",
					"type": "address"
				},
				{
					"indexed": false,
					"name": "approved",
					"type": "bool"
				}
			],
			"name": "ApproveSettingDeprecation",
			"type": "event",
			"signature": "0x68e70a35c7a2d3a84a6d5f1fca218f248ebab3821e88a3b58ead712246234332"
		},
		{
			"anonymous": false,
			"inputs": [
				{
					"indexed": true,
					"name": "settingId",
					"type": "uint256"
				},
				{
					"indexed": false,
					"name": "creatorTAOId",
					"type": "address"
				},
				{
					"indexed": false,
					"name": "creatorTAOAdvocate",
					"type": "address"
				}
			],
			"name": "FinalizeSettingDeprecation",
			"type": "event",
			"signature": "0xddce695af8c75c8fab3a9b369527822852b7fca9ca33aa7c48141b1134298f2d"
		},
		{
			"constant": false,
			"inputs": [
				{
					"name": "_theAO",
					"type": "address"
				}
			],
			"name": "transferOwnership",
			"outputs": [],
			"payable": false,
			"stateMutability": "nonpayable",
			"type": "function",
			"signature": "0xf2fde38b"
		},
		{
			"constant": false,
			"inputs": [
				{
					"name": "_account",
					"type": "address"
				},
				{
					"name": "_whitelist",
					"type": "bool"
				}
			],
			"name": "setWhitelist",
			"outputs": [],
			"payable": false,
			"stateMutability": "nonpayable",
			"type": "function",
			"signature": "0x53d6fd59"
		},
		{
			"constant": false,
			"inputs": [
				{
					"name": "_nameFactoryAddress",
					"type": "address"
				}
			],
			"name": "setNameFactoryAddress",
			"outputs": [],
			"payable": false,
			"stateMutability": "nonpayable",
			"type": "function",
			"signature": "0x8c924361"
		},
		{
			"constant": false,
			"inputs": [
				{
					"name": "_nameTAOPositionAddress",
					"type": "address"
				}
			],
			"name": "setNameTAOPositionAddress",
			"outputs": [],
			"payable": false,
			"stateMutability": "nonpayable",
			"type": "function",
			"signature": "0x5cfaf2ef"
		},
		{
			"constant": false,
			"inputs": [
				{
					"name": "_nameAccountRecoveryAddress",
					"type": "address"
				}
			],
			"name": "setNameAccountRecoveryAddress",
			"outputs": [],
			"payable": false,
			"stateMutability": "nonpayable",
			"type": "function",
			"signature": "0x1dfde2bd"
		},
		{
			"constant": false,
			"inputs": [
				{
					"name": "_aoSettingAttributeAddress",
					"type": "address"
				}
			],
			"name": "setAOSettingAttributeAddress",
			"outputs": [],
			"payable": false,
			"stateMutability": "nonpayable",
			"type": "function",
			"signature": "0x72eca635"
		},
		{
			"constant": false,
			"inputs": [
				{
					"name": "_aoSettingAddress",
					"type": "address"
				}
			],
			"name": "setAOSettingAddress",
			"outputs": [],
			"payable": false,
			"stateMutability": "nonpayable",
			"type": "function",
			"signature": "0x06fd7088"
		},
		{
			"constant": false,
			"inputs": [
				{
					"name": "_settingId",
					"type": "uint256"
				},
				{
					"name": "_newSettingId",
					"type": "uint256"
				},
				{
					"name": "_newSettingContractAddress",
					"type": "address"
				},
				{
					"name": "_creatorTAOId",
					"type": "address"
				},
				{
					"name": "_associatedTAOId",
					"type": "address"
				}
			],
			"name": "addSettingDeprecation",
			"outputs": [],
			"payable": false,
			"stateMutability": "nonpayable",
			"type": "function",
			"signature": "0x61f61867"
		},
		{
			"constant": false,
			"inputs": [
				{
					"name": "_settingId",
					"type": "uint256"
				},
				{
					"name": "_approved",
					"type": "bool"
				}
			],
			"name": "approveSettingDeprecation",
			"outputs": [],
			"payable": false,
			"stateMutability": "nonpayable",
			"type": "function",
			"signature": "0x9793714f"
		},
		{
			"constant": false,
			"inputs": [
				{
					"name": "_settingId",
					"type": "uint256"
				}
			],
			"name": "finalizeSettingDeprecation",
			"outputs": [],
			"payable": false,
			"stateMutability": "nonpayable",
			"type": "function",
			"signature": "0x7a713023"
		}
	],
	"bytecode": "0x60806040523480156200001157600080fd5b5060405160a08062001fc6833981018060405260a08110156200003357600080fd5b50805160208201516040830151606084015160809094015160008054600160a060020a03191633179055929391929091906200007885640100000000620000d3810204565b6200008c84640100000000620001d8810204565b620000a083640100000000620002dd810204565b620000b482640100000000620003e5810204565b620000c881640100000000620004ea810204565b5050505050620005ef565b600054600154604080517ff66afcac000000000000000000000000000000000000000000000000000000008152336004820152600160a060020a0393841660248201529290911660448301525173__AOLibrary_____________________________9163f66afcac916064808301926020929190829003018186803b1580156200015c57600080fd5b505af415801562000171573d6000803e3d6000fd5b505050506040513d60208110156200018857600080fd5b505115156200019657600080fd5b600160a060020a0381161515620001ac57600080fd5b60038054600160a060020a03909216600160a060020a0319928316811790915560078054909216179055565b600054600154604080517ff66afcac000000000000000000000000000000000000000000000000000000008152336004820152600160a060020a0393841660248201529290911660448301525173__AOLibrary_____________________________9163f66afcac916064808301926020929190829003018186803b1580156200026157600080fd5b505af415801562000276573d6000803e3d6000fd5b505050506040513d60208110156200028d57600080fd5b505115156200029b57600080fd5b600160a060020a0381161515620002b157600080fd5b60018054600160a060020a03909216600160a060020a0319928316811790915560088054909216179055565b600054600154604080517ff66afcac000000000000000000000000000000000000000000000000000000008152336004820152600160a060020a0393841660248201529290911660448301525173__AOLibrary_____________________________9163f66afcac916064808301926020929190829003018186803b1580156200036657600080fd5b505af41580156200037b573d6000803e3d6000fd5b505050506040513d60208110156200039257600080fd5b50511515620003a057600080fd5b600160a060020a0381161515620003b657600080fd5b60048054600160a060020a0319908116600160a060020a03938416179182905560098054929093169116179055565b600054600154604080517ff66afcac000000000000000000000000000000000000000000000000000000008152336004820152600160a060020a0393841660248201529290911660448301525173__AOLibrary_____________________________9163f66afcac916064808301926020929190829003018186803b1580156200046e57600080fd5b505af415801562000483573d6000803e3d6000fd5b505050506040513d60208110156200049a57600080fd5b50511515620004a857600080fd5b600160a060020a0381161515620004be57600080fd5b60058054600160a060020a03909216600160a060020a03199283168117909155600a8054909216179055565b600054600154604080517ff66afcac000000000000000000000000000000000000000000000000000000008152336004820152600160a060020a0393841660248201529290911660448301525173__AOLibrary_____________________________9163f66afcac916064808301926020929190829003018186803b1580156200057357600080fd5b505af415801562000588573d6000803e3d6000fd5b505050506040513d60208110156200059f57600080fd5b50511515620005ad57600080fd5b600160a060020a0381161515620005c357600080fd5b60068054600160a060020a03909216600160a060020a03199283168117909155600b8054909216179055565b6119c780620005ff6000396000f3fe608060405234801561001057600080fd5b506004361061010f5760003560e060020a900480637a713023116100a6578063a4e5fad211610075578063a4e5fad2146102ee578063a9b6b38e146102f6578063bc406206146102fe578063cf8477cf14610306578063f2fde38b1461030e5761010f565b80637a7130231461024c5780638c924361146102695780639793714f1461028f5780639b19251a146102b45761010f565b806353d6fd59116100e257806353d6fd591461018e5780635cfaf2ef146101bc57806361f61867146101e257806372eca635146102265761010f565b806306fd7088146101145780631d0138ff1461013c5780631dfde2bd146101605780634ef033f014610186575b600080fd5b61013a6004803603602081101561012a57600080fd5b5035600160a060020a0316610334565b005b61014461042b565b60408051600160a060020a039092168252519081900360200190f35b61013a6004803603602081101561017657600080fd5b5035600160a060020a031661043a565b610144610534565b61013a600480360360408110156101a457600080fd5b50600160a060020a0381351690602001351515610543565b61013a600480360360208110156101d257600080fd5b5035600160a060020a031661062c565b61013a600480360360a08110156101f857600080fd5b50803590602081013590600160a060020a036040820135811691606081013582169160809091013516610723565b61013a6004803603602081101561023c57600080fd5b5035600160a060020a0316610e2d565b61013a6004803603602081101561026257600080fd5b5035610f24565b61013a6004803603602081101561027f57600080fd5b5035600160a060020a031661133c565b61013a600480360360408110156102a557600080fd5b50803590602001351515611433565b6102da600480360360208110156102ca57600080fd5b5035600160a060020a031661185d565b604080519115158252519081900360200190f35b610144611872565b610144611881565b610144611890565b61014461189f565b61013a6004803603602081101561032457600080fd5b5035600160a060020a03166118ae565b6000546001546040805160e260020a633d9abf2b028152336004820152600160a060020a0393841660248201529290911660448301525173__AOLibrary_____________________________9163f66afcac916064808301926020929190829003018186803b1580156103a657600080fd5b505af41580156103ba573d6000803e3d6000fd5b505050506040513d60208110156103d057600080fd5b505115156103dd57600080fd5b600160a060020a03811615156103f257600080fd5b60068054600160a060020a0390921673ffffffffffffffffffffffffffffffffffffffff199283168117909155600b8054909216179055565b600654600160a060020a031681565b6000546001546040805160e260020a633d9abf2b028152336004820152600160a060020a0393841660248201529290911660448301525173__AOLibrary_____________________________9163f66afcac916064808301926020929190829003018186803b1580156104ac57600080fd5b505af41580156104c0573d6000803e3d6000fd5b505050506040513d60208110156104d657600080fd5b505115156104e357600080fd5b600160a060020a03811615156104f857600080fd5b6004805473ffffffffffffffffffffffffffffffffffffffff19908116600160a060020a03938416179182905560098054929093169116179055565b600154600160a060020a031681565b6000546001546040805160e260020a633d9abf2b028152336004820152600160a060020a0393841660248201529290911660448301525173__AOLibrary_____________________________9163f66afcac916064808301926020929190829003018186803b1580156105b557600080fd5b505af41580156105c9573d6000803e3d6000fd5b505050506040513d60208110156105df57600080fd5b505115156105ec57600080fd5b600160a060020a038216151561060157600080fd5b600160a060020a03919091166000908152600260205260409020805460ff1916911515919091179055565b6000546001546040805160e260020a633d9abf2b028152336004820152600160a060020a0393841660248201529290911660448301525173__AOLibrary_____________________________9163f66afcac916064808301926020929190829003018186803b15801561069e57600080fd5b505af41580156106b2573d6000803e3d6000fd5b505050506040513d60208110156106c857600080fd5b505115156106d557600080fd5b600160a060020a03811615156106ea57600080fd5b60018054600160a060020a0390921673ffffffffffffffffffffffffffffffffffffffff19928316811790915560088054909216179055565b8173__AOLibrary_____________________________632fca5414826040518263ffffffff1660e060020a0281526004018082600160a060020a0316600160a060020a0316815260200191505060206040518083038186803b15801561078857600080fd5b505af415801561079c573d6000803e3d6000fd5b505050506040513d60208110156107b257600080fd5b505115156107bf57600080fd5b8173__AOLibrary_____________________________632fca5414826040518263ffffffff1660e060020a0281526004018082600160a060020a0316600160a060020a0316815260200191505060206040518083038186803b15801561082457600080fd5b505af4158015610838573d6000803e3d6000fd5b505050506040513d602081101561084e57600080fd5b5051151561085b57600080fd5b600854604080517f71ce52ed000000000000000000000000000000000000000000000000000000008152336004820152600160a060020a0380881660248301529151879392909216916371ce52ed91604480820192602092909190829003018186803b1580156108ca57600080fd5b505afa1580156108de573d6000803e3d6000fd5b505050506040513d60208110156108f457600080fd5b5051151561090157600080fd5b6009546007546040805160e060020a63029b7d530281523360048201529051600160a060020a0393841693633ebc2ab393169163029b7d53916024808301926020929190829003018186803b15801561095957600080fd5b505afa15801561096d573d6000803e3d6000fd5b505050506040513d602081101561098357600080fd5b50516040805160e060020a63ffffffff8516028152600160a060020a039092166004830152516024808301926020929190829003018186803b1580156109c857600080fd5b505afa1580156109dc573d6000803e3d6000fd5b505050506040513d60208110156109f257600080fd5b5051156109fe57600080fd5b600b546040805160e060020a63a62eeead028152600481018b90529051600092600160a060020a03169163a62eeead916024808301926020929190829003018186803b158015610a4d57600080fd5b505afa158015610a61573d6000803e3d6000fd5b505050506040513d6020811015610a7757600080fd5b505160ff16118015610b045750600b546040805160e060020a63a62eeead028152600481018a90529051600092600160a060020a03169163a62eeead916024808301926020929190829003018186803b158015610ad357600080fd5b505afa158015610ae7573d6000803e3d6000fd5b505050506040513d6020811015610afd57600080fd5b505160ff16115b1515610b0f57600080fd5b600b546040805160e060020a63a62eeead028152600481018a90529051600160a060020a039092169163a62eeead91602480820192602092909190829003018186803b158015610b5e57600080fd5b505afa158015610b72573d6000803e3d6000fd5b505050506040513d6020811015610b8857600080fd5b5051600b546040805160e060020a63a62eeead028152600481018c9052905160ff90931692600160a060020a039092169163a62eeead91602480820192602092909190829003018186803b158015610bdf57600080fd5b505afa158015610bf3573d6000803e3d6000fd5b505050506040513d6020811015610c0957600080fd5b505160ff1614610c1857600080fd5b600a546007546040805160e060020a63029b7d5302815233600482015290516000938493600160a060020a039182169363d79964c3938f939092169163029b7d5391602480820192602092909190829003018186803b158015610c7a57600080fd5b505afa158015610c8e573d6000803e3d6000fd5b505050506040513d6020811015610ca457600080fd5b50516040805160e060020a63ffffffff86160281526004810193909352600160a060020a039182166024840152818c166044840152818b166064840152608483018e9052908c1660a4830152805160c4808401938290030181600087803b158015610d0e57600080fd5b505af1158015610d22573d6000803e3d6000fd5b505050506040513d6040811015610d3857600080fd5b5080516020918201516007546040805160e060020a63029b7d530281523360048201529051939650919450600160a060020a03169263029b7d5392602480840193829003018186803b158015610d8d57600080fd5b505afa158015610da1573d6000803e3d6000fd5b505050506040513d6020811015610db757600080fd5b505160408051600160a060020a038a8116825289811660208301528183018d90528b811660608301526080820186905260a08201859052915191909216918c917f5b0aa40d58b997f6865a44dcb51e82305ff4fc4d2f7fed2e10d853de9394ae2a9181900360c00190a350505050505050505050565b6000546001546040805160e260020a633d9abf2b028152336004820152600160a060020a0393841660248201529290911660448301525173__AOLibrary_____________________________9163f66afcac916064808301926020929190829003018186803b158015610e9f57600080fd5b505af4158015610eb3573d6000803e3d6000fd5b505050506040513d6020811015610ec957600080fd5b50511515610ed657600080fd5b600160a060020a0381161515610eeb57600080fd5b60058054600160a060020a0390921673ffffffffffffffffffffffffffffffffffffffff199283168117909155600a8054909216179055565b6007546040805160e060020a63029b7d530281523360048201529051600092600160a060020a03169163029b7d53916024808301926020929190829003018186803b158015610f7257600080fd5b505afa158015610f86573d6000803e3d6000fd5b505050506040513d6020811015610f9c57600080fd5b5051600160a060020a03161415610fb257600080fd5b6009546007546040805160e060020a63029b7d530281523360048201529051600160a060020a0393841693633ebc2ab393169163029b7d53916024808301926020929190829003018186803b15801561100a57600080fd5b505afa15801561101e573d6000803e3d6000fd5b505050506040513d602081101561103457600080fd5b50516040805160e060020a63ffffffff8516028152600160a060020a039092166004830152516024808301926020929190829003018186803b15801561107957600080fd5b505afa15801561108d573d6000803e3d6000fd5b505050506040513d60208110156110a357600080fd5b5051156110af57600080fd5b600b546040805160e060020a63a62eeead028152600481018490529051600092600160a060020a03169163a62eeead916024808301926020929190829003018186803b1580156110fe57600080fd5b505afa158015611112573d6000803e3d6000fd5b505050506040513d602081101561112857600080fd5b505160ff161161113757600080fd5b6007546040805160e060020a63029b7d530281523360048201529051600092600160a060020a03169163029b7d53916024808301926020929190829003018186803b15801561118557600080fd5b505afa158015611199573d6000803e3d6000fd5b505050506040513d60208110156111af57600080fd5b5051600a54604080517fed3ad43e00000000000000000000000000000000000000000000000000000000815260048101869052600160a060020a038085166024830152915193945091169163ed3ad43e916044808201926020929091908290030181600087803b15801561122257600080fd5b505af1158015611236573d6000803e3d6000fd5b505050506040513d602081101561124c57600080fd5b5051151561125957600080fd5b600a54604080517feb10b4bd000000000000000000000000000000000000000000000000000000008152600481018590529051600092600160a060020a03169163eb10b4bd91602480830192610180929190829003018186803b1580156112bf57600080fd5b505afa1580156112d3573d6000803e3d6000fd5b505050506040513d6101808110156112ea57600080fd5b506040908101518151600160a060020a03808316825285166020820152825191935085927fddce695af8c75c8fab3a9b369527822852b7fca9ca33aa7c48141b1134298f2d92918290030190a2505050565b6000546001546040805160e260020a633d9abf2b028152336004820152600160a060020a0393841660248201529290911660448301525173__AOLibrary_____________________________9163f66afcac916064808301926020929190829003018186803b1580156113ae57600080fd5b505af41580156113c2573d6000803e3d6000fd5b505050506040513d60208110156113d857600080fd5b505115156113e557600080fd5b600160a060020a03811615156113fa57600080fd5b60038054600160a060020a0390921673ffffffffffffffffffffffffffffffffffffffff19928316811790915560078054909216179055565b6007546040805160e060020a63029b7d530281523360048201529051600092600160a060020a03169163029b7d53916024808301926020929190829003018186803b15801561148157600080fd5b505afa158015611495573d6000803e3d6000fd5b505050506040513d60208110156114ab57600080fd5b5051600160a060020a031614156114c157600080fd5b6009546007546040805160e060020a63029b7d530281523360048201529051600160a060020a0393841693633ebc2ab393169163029b7d53916024808301926020929190829003018186803b15801561151957600080fd5b505afa15801561152d573d6000803e3d6000fd5b505050506040513d602081101561154357600080fd5b50516040805160e060020a63ffffffff8516028152600160a060020a039092166004830152516024808301926020929190829003018186803b15801561158857600080fd5b505afa15801561159c573d6000803e3d6000fd5b505050506040513d60208110156115b257600080fd5b5051156115be57600080fd5b600b546040805160e060020a63a62eeead028152600481018590529051600092600160a060020a03169163a62eeead916024808301926020929190829003018186803b15801561160d57600080fd5b505afa158015611621573d6000803e3d6000fd5b505050506040513d602081101561163757600080fd5b505160ff161161164657600080fd5b6007546040805160e060020a63029b7d530281523360048201529051600092600160a060020a03169163029b7d53916024808301926020929190829003018186803b15801561169457600080fd5b505afa1580156116a8573d6000803e3d6000fd5b505050506040513d60208110156116be57600080fd5b5051600a54604080517f46082aaf00000000000000000000000000000000000000000000000000000000815260048101879052600160a060020a038085166024830152861515604483015291519394509116916346082aaf916064808201926020929091908290030181600087803b15801561173957600080fd5b505af115801561174d573d6000803e3d6000fd5b505050506040513d602081101561176357600080fd5b5051151561177057600080fd5b600a54604080517feb10b4bd000000000000000000000000000000000000000000000000000000008152600481018690529051600092600160a060020a03169163eb10b4bd91602480830192610180929190829003018186803b1580156117d657600080fd5b505afa1580156117ea573d6000803e3d6000fd5b505050506040513d61018081101561180157600080fd5b5060609081015160408051600160a060020a0380841682528616602082015286151581830152905191935086927f68e70a35c7a2d3a84a6d5f1fca218f248ebab3821e88a3b58ead71224623433292918290030190a250505050565b60026020526000908152604090205460ff1681565b600454600160a060020a031681565b600054600160a060020a031681565b600354600160a060020a031681565b600554600160a060020a031681565b6000546001546040805160e260020a633d9abf2b028152336004820152600160a060020a0393841660248201529290911660448301525173__AOLibrary_____________________________9163f66afcac916064808301926020929190829003018186803b15801561192057600080fd5b505af4158015611934573d6000803e3d6000fd5b505050506040513d602081101561194a57600080fd5b5051151561195757600080fd5b600160a060020a038116151561196c57600080fd5b6000805473ffffffffffffffffffffffffffffffffffffffff1916600160a060020a039290921691909117905556fea165627a7a723058209b44ef071d8477dbe0e56f02da61e255b62a58970accd106c5645712ab28fdf70029",
	"source": "pragma solidity >=0.5.4 <0.6.0;\n\nimport './AOLibrary.sol';\nimport './TheAO.sol';\nimport './IAOSetting.sol';\nimport './INameFactory.sol';\nimport './IAOSettingAttribute.sol';\nimport './INameTAOPosition.sol';\nimport './INameAccountRecovery.sol';\n\n/**\n * @title AOSettingDeprecation\n *\n * This contract responsible for adding setting deprecation\n */\ncontract AOSettingDeprecation is TheAO {\n\taddress public nameFactoryAddress;\n\taddress public nameAccountRecoveryAddress;\n\taddress public aoSettingAttributeAddress;\n\taddress public aoSettingAddress;\n\n\tINameFactory internal _nameFactory;\n\tINameTAOPosition internal _nameTAOPosition;\n\tINameAccountRecovery internal _nameAccountRecovery;\n\tIAOSettingAttribute internal _aoSettingAttribute;\n\tIAOSetting internal _aoSetting;\n\n\t// Event to be broadcasted to public when a setting deprecation is created and waiting for approval\n\tevent SettingDeprecation(uint256 indexed settingId, address indexed creatorNameId, address creatorTAOId, address associatedTAOId, uint256 newSettingId, address newSettingContractAddress, bytes32 associatedTAOSettingDeprecationId, bytes32 creatorTAOSettingDeprecationId);\n\n\t// Event to be broadcasted to public when setting deprecation is approved/rejected by the advocate of associatedTAOId\n\tevent ApproveSettingDeprecation(uint256 indexed settingId, address associatedTAOId, address associatedTAOAdvocate, bool approved);\n\n\t// Event to be broadcasted to public when setting deprecation is finalized by the advocate of creatorTAOId\n\tevent FinalizeSettingDeprecation(uint256 indexed settingId, address creatorTAOId, address creatorTAOAdvocate);\n\n\t/**\n\t * @dev Constructor function\n\t */\n\tconstructor(address _nameFactoryAddress,\n\t\taddress _nameTAOPositionAddress,\n\t\taddress _nameAccountRecoveryAddress,\n\t\taddress _aoSettingAttributeAddress,\n\t\taddress _aoSettingAddress\n\t\t) public {\n\t\tsetNameFactoryAddress(_nameFactoryAddress);\n\t\tsetNameTAOPositionAddress(_nameTAOPositionAddress);\n\t\tsetNameAccountRecoveryAddress(_nameAccountRecoveryAddress);\n\t\tsetAOSettingAttributeAddress(_aoSettingAttributeAddress);\n\t\tsetAOSettingAddress(_aoSettingAddress);\n\t}\n\n\t/**\n\t * @dev Checks if the calling contract address is The AO\n\t *\t\tOR\n\t *\t\tIf The AO is set to a Name/TAO, then check if calling address is the Advocate\n\t */\n\tmodifier onlyTheAO {\n\t\trequire (AOLibrary.isTheAO(msg.sender, theAO, nameTAOPositionAddress));\n\t\t_;\n\t}\n\n\t/**\n\t * @dev Check if `_taoId` is a TAO\n\t */\n\tmodifier isTAO(address _taoId) {\n\t\trequire (AOLibrary.isTAO(_taoId));\n\t\t_;\n\t}\n\n\t/**\n\t * @dev Check if msg.sender is the current advocate of Name ID\n\t */\n\tmodifier onlyAdvocate(address _id) {\n\t\trequire (_nameTAOPosition.senderIsAdvocate(msg.sender, _id));\n\t\t_;\n\t}\n\n\t/**\n\t * @dev Check is msg.sender address is a Name\n\t */\n\t modifier senderIsName() {\n\t\trequire (_nameFactory.ethAddressToNameId(msg.sender) != address(0));\n\t\t_;\n\t }\n\n\t/**\n\t * @dev Only allowed if sender's Name is not compromised\n\t */\n\tmodifier senderNameNotCompromised() {\n\t\trequire (!_nameAccountRecovery.isCompromised(_nameFactory.ethAddressToNameId(msg.sender)));\n\t\t_;\n\t}\n\n\t/***** The AO ONLY METHODS *****/\n\t/**\n\t * @dev Transfer ownership of The AO to new address\n\t * @param _theAO The new address to be transferred\n\t */\n\tfunction transferOwnership(address _theAO) public onlyTheAO {\n\t\trequire (_theAO != address(0));\n\t\ttheAO = _theAO;\n\t}\n\n\t/**\n\t * @dev Whitelist `_account` address to transact on behalf of others\n\t * @param _account The address to whitelist\n\t * @param _whitelist Either to whitelist or not\n\t */\n\tfunction setWhitelist(address _account, bool _whitelist) public onlyTheAO {\n\t\trequire (_account != address(0));\n\t\twhitelist[_account] = _whitelist;\n\t}\n\n\t/**\n\t * @dev The AO sets NameFactory address\n\t * @param _nameFactoryAddress The address of NameFactory\n\t */\n\tfunction setNameFactoryAddress(address _nameFactoryAddress) public onlyTheAO {\n\t\trequire (_nameFactoryAddress != address(0));\n\t\tnameFactoryAddress = _nameFactoryAddress;\n\t\t_nameFactory = INameFactory(_nameFactoryAddress);\n\t}\n\n\t/**\n\t * @dev The AO sets NameTAOPosition address\n\t * @param _nameTAOPositionAddress The address of NameTAOPosition\n\t */\n\tfunction setNameTAOPositionAddress(address _nameTAOPositionAddress) public onlyTheAO {\n\t\trequire (_nameTAOPositionAddress != address(0));\n\t\tnameTAOPositionAddress = _nameTAOPositionAddress;\n\t\t_nameTAOPosition = INameTAOPosition(_nameTAOPositionAddress);\n\t}\n\n\t/**\n\t * @dev The AO set the NameAccountRecovery Address\n\t * @param _nameAccountRecoveryAddress The address of NameAccountRecovery\n\t */\n\tfunction setNameAccountRecoveryAddress(address _nameAccountRecoveryAddress) public onlyTheAO {\n\t\trequire (_nameAccountRecoveryAddress != address(0));\n\t\tnameAccountRecoveryAddress = _nameAccountRecoveryAddress;\n\t\t_nameAccountRecovery = INameAccountRecovery(nameAccountRecoveryAddress);\n\t}\n\n\t/**\n\t * @dev The AO sets AOSettingAttribute address\n\t * @param _aoSettingAttributeAddress The address of AOSettingAttribute\n\t */\n\tfunction setAOSettingAttributeAddress(address _aoSettingAttributeAddress) public onlyTheAO {\n\t\trequire (_aoSettingAttributeAddress != address(0));\n\t\taoSettingAttributeAddress = _aoSettingAttributeAddress;\n\t\t_aoSettingAttribute = IAOSettingAttribute(_aoSettingAttributeAddress);\n\t}\n\n\t/**\n\t * @dev The AO sets AOSetting address\n\t * @param _aoSettingAddress The address of AOSetting\n\t */\n\tfunction setAOSettingAddress(address _aoSettingAddress) public onlyTheAO {\n\t\trequire (_aoSettingAddress != address(0));\n\t\taoSettingAddress = _aoSettingAddress;\n\t\t_aoSetting = IAOSetting(_aoSettingAddress);\n\t}\n\n\t/***** PUBLIC METHODS *****/\n\t/**\n\t * @dev Advocate of _creatorTAOId adds a setting deprecation\n\t * @param _settingId The ID of the setting to be deprecated\n\t * @param _newSettingId The new setting ID to route\n\t * @param _newSettingContractAddress The new setting contract address to route\n\t * @param _creatorTAOId The taoId that created the setting\n\t * @param _associatedTAOId The taoId that the setting affects\n\t */\n\tfunction addSettingDeprecation(\n\t\tuint256 _settingId,\n\t\tuint256 _newSettingId,\n\t\taddress _newSettingContractAddress,\n\t\taddress _creatorTAOId,\n\t\taddress _associatedTAOId)\n\t\tpublic\n\t\tisTAO(_creatorTAOId)\n\t\tisTAO(_associatedTAOId)\n\t\tonlyAdvocate(_creatorTAOId)\n\t\tsenderNameNotCompromised {\n\t\t// Make sure the settings exist\n\t\trequire (_aoSetting.settingTypeLookup(_settingId) > 0 && _aoSetting.settingTypeLookup(_newSettingId) > 0);\n\n\t\t// Make sure it's the same type\n\t\trequire (_aoSetting.settingTypeLookup(_settingId) == _aoSetting.settingTypeLookup(_newSettingId));\n\n\t\t(bytes32 _associatedTAOSettingDeprecationId, bytes32 _creatorTAOSettingDeprecationId) = _aoSettingAttribute.addDeprecation(_settingId, _nameFactory.ethAddressToNameId(msg.sender), _creatorTAOId, _associatedTAOId, _newSettingId, _newSettingContractAddress);\n\n\t\temit SettingDeprecation(_settingId, _nameFactory.ethAddressToNameId(msg.sender), _creatorTAOId, _associatedTAOId, _newSettingId, _newSettingContractAddress, _associatedTAOSettingDeprecationId, _creatorTAOSettingDeprecationId);\n\t}\n\n\t/**\n\t * @dev Advocate of SettingDeprecation's _associatedTAOId approves setting deprecation\n\t * @param _settingId The ID of the setting to approve\n\t * @param _approved Whether to approve or reject\n\t */\n\tfunction approveSettingDeprecation(uint256 _settingId, bool _approved) public senderIsName senderNameNotCompromised {\n\t\t// Make sure setting exist\n\t\trequire (_aoSetting.settingTypeLookup(_settingId) > 0);\n\n\t\taddress _associatedTAOAdvocate = _nameFactory.ethAddressToNameId(msg.sender);\n\t\trequire (_aoSettingAttribute.approveDeprecation(_settingId, _associatedTAOAdvocate, _approved));\n\n\t\t(,,, address _associatedTAOId,,,,,,,,) = _aoSettingAttribute.getSettingDeprecation(_settingId);\n\t\temit ApproveSettingDeprecation(_settingId, _associatedTAOId, _associatedTAOAdvocate, _approved);\n\t}\n\n\t/**\n\t * @dev Advocate of SettingDeprecation's _creatorTAOId finalizes the setting deprecation once the setting deprecation is approved\n\t * @param _settingId The ID of the setting to be finalized\n\t */\n\tfunction finalizeSettingDeprecation(uint256 _settingId) public senderIsName senderNameNotCompromised {\n\t\t// Make sure setting exist\n\t\trequire (_aoSetting.settingTypeLookup(_settingId) > 0);\n\n\t\taddress _creatorTAOAdvocate = _nameFactory.ethAddressToNameId(msg.sender);\n\t\trequire (_aoSettingAttribute.finalizeDeprecation(_settingId, _creatorTAOAdvocate));\n\n\t\t(,, address _creatorTAOId,,,,,,,,,) = _aoSettingAttribute.getSettingDeprecation(_settingId);\n\t\temit FinalizeSettingDeprecation(_settingId, _creatorTAOId, _creatorTAOAdvocate);\n\t}\n}\n",
	"sourcePath": "/home/jmulyono/ao-contracts/contracts/AOSettingDeprecation.sol",
	"compiler": {
		"name": "solc",
		"version": "0.5.4+commit.9549d8ff.Emscripten.clang"
	},
	"schemaVersion": "3.0.2",
	"updatedAt": "2019-05-15T08:20:35.344Z",
	"devdoc": {
		"methods": {
			"addSettingDeprecation(uint256,uint256,address,address,address)": {
				"details": "Advocate of _creatorTAOId adds a setting deprecation",
				"params": {
					"_associatedTAOId": "The taoId that the setting affects",
					"_creatorTAOId": "The taoId that created the setting",
					"_newSettingContractAddress": "The new setting contract address to route",
					"_newSettingId": "The new setting ID to route",
					"_settingId": "The ID of the setting to be deprecated"
				}
			},
			"approveSettingDeprecation(uint256,bool)": {
				"details": "Advocate of SettingDeprecation's _associatedTAOId approves setting deprecation",
				"params": {
					"_approved": "Whether to approve or reject",
					"_settingId": "The ID of the setting to approve"
				}
			},
			"constructor": {
				"details": "Constructor function"
			},
			"finalizeSettingDeprecation(uint256)": {
				"details": "Advocate of SettingDeprecation's _creatorTAOId finalizes the setting deprecation once the setting deprecation is approved",
				"params": {
					"_settingId": "The ID of the setting to be finalized"
				}
			},
			"setAOSettingAddress(address)": {
				"details": "The AO sets AOSetting address",
				"params": {
					"_aoSettingAddress": "The address of AOSetting"
				}
			},
			"setAOSettingAttributeAddress(address)": {
				"details": "The AO sets AOSettingAttribute address",
				"params": {
					"_aoSettingAttributeAddress": "The address of AOSettingAttribute"
				}
			},
			"setNameAccountRecoveryAddress(address)": {
				"details": "The AO set the NameAccountRecovery Address",
				"params": {
					"_nameAccountRecoveryAddress": "The address of NameAccountRecovery"
				}
			},
			"setNameFactoryAddress(address)": {
				"details": "The AO sets NameFactory address",
				"params": {
					"_nameFactoryAddress": "The address of NameFactory"
				}
			},
			"setNameTAOPositionAddress(address)": {
				"details": "The AO sets NameTAOPosition address",
				"params": {
					"_nameTAOPositionAddress": "The address of NameTAOPosition"
				}
			},
			"setWhitelist(address,bool)": {
				"details": "Whitelist `_account` address to transact on behalf of others",
				"params": {
					"_account": "The address to whitelist",
					"_whitelist": "Either to whitelist or not"
				}
			},
			"transferOwnership(address)": {
				"details": "Transfer ownership of The AO to new address",
				"params": {
					"_theAO": "The new address to be transferred"
				}
			}
		},
		"title": "AOSettingDeprecation * This contract responsible for adding setting deprecation"
	},
	"userdoc": {
		"methods": {}
	}
}