{
	"contractName": "AOSettingAttribute",
	"abi": [
		{
			"constant": true,
			"inputs": [],
			"name": "aoDevTeam1",
			"outputs": [
				{
					"name": "",
					"type": "address"
				}
			],
			"payable": false,
			"stateMutability": "view",
			"type": "function"
		},
		{
			"constant": false,
			"inputs": [
				{
					"name": "_account",
					"type": "address"
				},
				{
					"name": "_whitelist",
					"type": "bool"
				}
			],
			"name": "setWhitelist",
			"outputs": [],
			"payable": false,
			"stateMutability": "nonpayable",
			"type": "function"
		},
		{
			"constant": true,
			"inputs": [
				{
					"name": "",
					"type": "address"
				}
			],
			"name": "whitelist",
			"outputs": [
				{
					"name": "",
					"type": "bool"
				}
			],
			"payable": false,
			"stateMutability": "view",
			"type": "function"
		},
		{
			"constant": true,
			"inputs": [],
			"name": "aoDevTeam2",
			"outputs": [
				{
					"name": "",
					"type": "address"
				}
			],
			"payable": false,
			"stateMutability": "view",
			"type": "function"
		},
		{
			"constant": false,
			"inputs": [
				{
					"name": "_aoDevTeam1",
					"type": "address"
				},
				{
					"name": "_aoDevTeam2",
					"type": "address"
				}
			],
			"name": "setAODevTeamAddresses",
			"outputs": [],
			"payable": false,
			"stateMutability": "nonpayable",
			"type": "function"
		},
		{
			"constant": true,
			"inputs": [],
			"name": "developer",
			"outputs": [
				{
					"name": "",
					"type": "address"
				}
			],
			"payable": false,
			"stateMutability": "view",
			"type": "function"
		},
		{
			"constant": false,
			"inputs": [
				{
					"name": "newDeveloper",
					"type": "address"
				}
			],
			"name": "transferOwnership",
			"outputs": [],
			"payable": false,
			"stateMutability": "nonpayable",
			"type": "function"
		},
		{
			"inputs": [],
			"payable": false,
			"stateMutability": "nonpayable",
			"type": "constructor"
		},
		{
			"constant": false,
			"inputs": [
				{
					"name": "_settingId",
					"type": "uint256"
				},
				{
					"name": "_creatorNameId",
					"type": "address"
				},
				{
					"name": "_settingType",
					"type": "uint8"
				},
				{
					"name": "_settingName",
					"type": "string"
				},
				{
					"name": "_creatorThoughtId",
					"type": "address"
				},
				{
					"name": "_associatedThoughtId",
					"type": "address"
				},
				{
					"name": "_extraData",
					"type": "string"
				}
			],
			"name": "add",
			"outputs": [
				{
					"name": "",
					"type": "bytes32"
				},
				{
					"name": "",
					"type": "bytes32"
				}
			],
			"payable": false,
			"stateMutability": "nonpayable",
			"type": "function"
		},
		{
			"constant": true,
			"inputs": [
				{
					"name": "_settingId",
					"type": "uint256"
				}
			],
			"name": "getSettingData",
			"outputs": [
				{
					"name": "",
					"type": "uint256"
				},
				{
					"name": "",
					"type": "address"
				},
				{
					"name": "",
					"type": "address"
				},
				{
					"name": "",
					"type": "address"
				},
				{
					"name": "",
					"type": "string"
				},
				{
					"name": "",
					"type": "uint8"
				},
				{
					"name": "",
					"type": "bool"
				},
				{
					"name": "",
					"type": "bool"
				},
				{
					"name": "",
					"type": "bool"
				},
				{
					"name": "",
					"type": "string"
				}
			],
			"payable": false,
			"stateMutability": "view",
			"type": "function"
		},
		{
			"constant": true,
			"inputs": [
				{
					"name": "_associatedThoughtSettingId",
					"type": "bytes32"
				}
			],
			"name": "getAssociatedThoughtSetting",
			"outputs": [
				{
					"name": "",
					"type": "bytes32"
				},
				{
					"name": "",
					"type": "address"
				},
				{
					"name": "",
					"type": "uint256"
				}
			],
			"payable": false,
			"stateMutability": "view",
			"type": "function"
		},
		{
			"constant": true,
			"inputs": [
				{
					"name": "_creatorThoughtSettingId",
					"type": "bytes32"
				}
			],
			"name": "getCreatorThoughtSetting",
			"outputs": [
				{
					"name": "",
					"type": "bytes32"
				},
				{
					"name": "",
					"type": "address"
				},
				{
					"name": "",
					"type": "uint256"
				}
			],
			"payable": false,
			"stateMutability": "view",
			"type": "function"
		},
		{
			"constant": false,
			"inputs": [
				{
					"name": "_settingId",
					"type": "uint256"
				},
				{
					"name": "_associatedThoughtAdvocate",
					"type": "address"
				},
				{
					"name": "_approved",
					"type": "bool"
				}
			],
			"name": "approveAdd",
			"outputs": [
				{
					"name": "",
					"type": "bool"
				}
			],
			"payable": false,
			"stateMutability": "nonpayable",
			"type": "function"
		},
		{
			"constant": false,
			"inputs": [
				{
					"name": "_settingId",
					"type": "uint256"
				},
				{
					"name": "_creatorThoughtAdvocate",
					"type": "address"
				}
			],
			"name": "finalizeAdd",
			"outputs": [
				{
					"name": "",
					"type": "bool"
				}
			],
			"payable": false,
			"stateMutability": "nonpayable",
			"type": "function"
		},
		{
			"constant": false,
			"inputs": [
				{
					"name": "_settingId",
					"type": "uint256"
				},
				{
					"name": "_settingType",
					"type": "uint8"
				},
				{
					"name": "_associatedThoughtAdvocate",
					"type": "address"
				},
				{
					"name": "_proposalThoughtId",
					"type": "address"
				},
				{
					"name": "_updateSignature",
					"type": "string"
				},
				{
					"name": "_extraData",
					"type": "string"
				}
			],
			"name": "update",
			"outputs": [
				{
					"name": "",
					"type": "bool"
				}
			],
			"payable": false,
			"stateMutability": "nonpayable",
			"type": "function"
		},
		{
			"constant": true,
			"inputs": [
				{
					"name": "_settingId",
					"type": "uint256"
				}
			],
			"name": "getSettingState",
			"outputs": [
				{
					"name": "",
					"type": "uint256"
				},
				{
					"name": "",
					"type": "bool"
				},
				{
					"name": "",
					"type": "address"
				},
				{
					"name": "",
					"type": "address"
				},
				{
					"name": "",
					"type": "string"
				},
				{
					"name": "",
					"type": "address"
				},
				{
					"name": "",
					"type": "string"
				}
			],
			"payable": false,
			"stateMutability": "view",
			"type": "function"
		},
		{
			"constant": false,
			"inputs": [
				{
					"name": "_settingId",
					"type": "uint256"
				},
				{
					"name": "_proposalThoughtAdvocate",
					"type": "address"
				},
				{
					"name": "_approved",
					"type": "bool"
				}
			],
			"name": "approveUpdate",
			"outputs": [
				{
					"name": "",
					"type": "bool"
				}
			],
			"payable": false,
			"stateMutability": "nonpayable",
			"type": "function"
		},
		{
			"constant": false,
			"inputs": [
				{
					"name": "_settingId",
					"type": "uint256"
				},
				{
					"name": "_associatedThoughtAdvocate",
					"type": "address"
				}
			],
			"name": "finalizeUpdate",
			"outputs": [
				{
					"name": "",
					"type": "bool"
				}
			],
			"payable": false,
			"stateMutability": "nonpayable",
			"type": "function"
		},
		{
			"constant": false,
			"inputs": [
				{
					"name": "_settingId",
					"type": "uint256"
				},
				{
					"name": "_creatorNameId",
					"type": "address"
				},
				{
					"name": "_creatorThoughtId",
					"type": "address"
				},
				{
					"name": "_associatedThoughtId",
					"type": "address"
				},
				{
					"name": "_newSettingId",
					"type": "uint256"
				},
				{
					"name": "_newSettingContractAddress",
					"type": "address"
				}
			],
			"name": "addDeprecation",
			"outputs": [
				{
					"name": "",
					"type": "bytes32"
				},
				{
					"name": "",
					"type": "bytes32"
				}
			],
			"payable": false,
			"stateMutability": "nonpayable",
			"type": "function"
		},
		{
			"constant": true,
			"inputs": [
				{
					"name": "_settingId",
					"type": "uint256"
				}
			],
			"name": "getSettingDeprecation",
			"outputs": [
				{
					"name": "",
					"type": "uint256"
				},
				{
					"name": "",
					"type": "address"
				},
				{
					"name": "",
					"type": "address"
				},
				{
					"name": "",
					"type": "address"
				},
				{
					"name": "",
					"type": "bool"
				},
				{
					"name": "",
					"type": "bool"
				},
				{
					"name": "",
					"type": "bool"
				},
				{
					"name": "",
					"type": "bool"
				},
				{
					"name": "",
					"type": "uint256"
				},
				{
					"name": "",
					"type": "uint256"
				},
				{
					"name": "",
					"type": "address"
				},
				{
					"name": "",
					"type": "address"
				}
			],
			"payable": false,
			"stateMutability": "view",
			"type": "function"
		},
		{
			"constant": true,
			"inputs": [
				{
					"name": "_associatedThoughtSettingDeprecationId",
					"type": "bytes32"
				}
			],
			"name": "getAssociatedThoughtSettingDeprecation",
			"outputs": [
				{
					"name": "",
					"type": "bytes32"
				},
				{
					"name": "",
					"type": "address"
				},
				{
					"name": "",
					"type": "uint256"
				}
			],
			"payable": false,
			"stateMutability": "view",
			"type": "function"
		},
		{
			"constant": true,
			"inputs": [
				{
					"name": "_creatorThoughtSettingDeprecationId",
					"type": "bytes32"
				}
			],
			"name": "getCreatorThoughtSettingDeprecation",
			"outputs": [
				{
					"name": "",
					"type": "bytes32"
				},
				{
					"name": "",
					"type": "address"
				},
				{
					"name": "",
					"type": "uint256"
				}
			],
			"payable": false,
			"stateMutability": "view",
			"type": "function"
		},
		{
			"constant": false,
			"inputs": [
				{
					"name": "_settingId",
					"type": "uint256"
				},
				{
					"name": "_associatedThoughtAdvocate",
					"type": "address"
				},
				{
					"name": "_approved",
					"type": "bool"
				}
			],
			"name": "approveDeprecation",
			"outputs": [
				{
					"name": "",
					"type": "bool"
				}
			],
			"payable": false,
			"stateMutability": "nonpayable",
			"type": "function"
		},
		{
			"constant": false,
			"inputs": [
				{
					"name": "_settingId",
					"type": "uint256"
				},
				{
					"name": "_creatorThoughtAdvocate",
					"type": "address"
				}
			],
			"name": "finalizeDeprecation",
			"outputs": [
				{
					"name": "",
					"type": "bool"
				}
			],
			"payable": false,
			"stateMutability": "nonpayable",
			"type": "function"
		}
	],
	"bytecode": "0x608060405260018054600160a060020a0319908116735c63644d01ba385ebac5bcf2ddc1e6dbc1182b52179091556002805490911673156c79bf4347d1891da834ea30662a14177cbf2817905534801561005857600080fd5b5060008054600160a060020a03191633179055612b068061007a6000396000f3006080604052600436106101195763ffffffff60e060020a60003504166315227aa7811461011e5780632a82fdbd1461014f5780633105624c1461018c57806346082aaf146101ca5780634a176017146101f35780634aaaa6671461021757806353d6fd591461022f5780635f39fd731461025757806381f3e8971461028057806383fee16d146103d25780638ffd2a1b146103f65780639b19251a146104da578063a57c0919146104fb578063a99433a6146105b5578063ad58a7d2146105ca578063b24626e91461071d578063b846d0f714610744578063bd9360191461075c578063ca4b208b14610774578063d79964c314610789578063eb10b4bd146107c3578063ed3ad43e14610849578063f2fde38b1461086d575b600080fd5b34801561012a57600080fd5b5061013361088e565b60408051600160a060020a039092168252519081900360200190f35b34801561015b57600080fd5b50610178600435600160a060020a0360243516604435151561089d565b604080519115158252519081900360200190f35b34801561019857600080fd5b506101a4600435610a30565b60408051938452600160a060020a03909216602084015282820152519081900360600190f35b3480156101d657600080fd5b50610178600435600160a060020a03602435166044351515610a85565b3480156101ff57600080fd5b50610178600435600160a060020a0360243516610c66565b34801561022357600080fd5b506101a4600435610dd6565b34801561023b57600080fd5b50610255600160a060020a03600435166024351515610e2b565b005b34801561026357600080fd5b50610178600435600160a060020a03602435166044351515610e6d565b34801561028c57600080fd5b5061029860043561103c565b604080518b8152600160a060020a03808c166020808401919091528b8216938301939093528916606082015260ff871660a082015285151560c082015284151560e082015283151561010082015261014060808201818152895191830191909152885191929091610120840191610160850191908b019080838360005b8381101561032d578181015183820152602001610315565b50505050905090810190601f16801561035a5780820380516001836020036101000a031916815260200191505b50838103825284518152845160209182019186019080838360005b8381101561038d578181015183820152602001610375565b50505050905090810190601f1680156103ba5780820380516001836020036101000a031916815260200191505b509c5050505050505050505050505060405180910390f35b3480156103de57600080fd5b50610178600435600160a060020a036024351661126d565b34801561040257600080fd5b50604080516020601f6064356004818101359283018490048402850184019095528184526104c194803594600160a060020a0360248035919091169560ff60443516953695608494930191819084018382808284375050604080516020888301358a018035601f8101839004830284018301909452838352979a8935600160a060020a039081169b8b8401359091169a919990985060609091019650919450908101925081908401838280828437509497506114859650505050505050565b6040805192835260208301919091528051918290030190f35b3480156104e657600080fd5b50610178600160a060020a0360043516611755565b34801561050757600080fd5b50604080516020600460843581810135601f8101849004840285018401909552848452610178948235946024803560ff1695604435600160a060020a0390811696606435909116953695919460a494909391019190819084018382808284375050604080516020601f89358b018035918201839004830284018301909452808352979a99988101979196509182019450925082915084018382808284375094975061176a9650505050505050565b3480156105c157600080fd5b50610133611c13565b3480156105d657600080fd5b506105e2600435611c22565b604051808881526020018715151515815260200186600160a060020a0316600160a060020a0316815260200185600160a060020a0316600160a060020a031681526020018060200184600160a060020a0316600160a060020a0316815260200180602001838103835286818151815260200191508051906020019080838360005b8381101561067b578181015183820152602001610663565b50505050905090810190601f1680156106a85780820380516001836020036101000a031916815260200191505b50838103825284518152845160209182019186019080838360005b838110156106db5781810151838201526020016106c3565b50505050905090810190601f1680156107085780820380516001836020036101000a031916815260200191505b50995050505050505050505060405180910390f35b34801561072957600080fd5b50610255600160a060020a0360043581169060243516611e01565b34801561075057600080fd5b506101a4600435611e46565b34801561076857600080fd5b506101a4600435611e9b565b34801561078057600080fd5b50610133611ef0565b34801561079557600080fd5b506104c1600435600160a060020a036024358116906044358116906064358116906084359060a43516611eff565b3480156107cf57600080fd5b506107db6004356121cd565b604080519c8d52600160a060020a039b8c1660208e0152998b168c8b0152978a1660608c015295151560808b015293151560a08a015291151560c0890152151560e0880152610100870152610120860152831661014085015290911661016083015251908190036101800190f35b34801561085557600080fd5b50610178600435600160a060020a03602435166123e6565b34801561087957600080fd5b50610255600160a060020a03600435166125ff565b600154600160a060020a031681565b336000818152600360205260408120549091829160ff161515600114806108d15750600054600160a060020a038281169116145b15156108dc57600080fd5b600086815260046020526040902080549092508614801561090c5750600582015460ff6101009091041615156001145b80156109275750600582015462010000900460ff1615156001145b801561093f575060058201546301000000900460ff16155b80156109535750600160a060020a03851615155b80156109ea57508160030160009054906101000a9004600160a060020a0316600160a060020a0316632ef193b06040518163ffffffff1660e060020a028152600401602060405180830381600087803b1580156109af57600080fd5b505af11580156109c3573d6000803e3d6000fd5b505050506040513d60208110156109d957600080fd5b5051600160a060020a038681169116145b15156109f557600080fd5b8315610a0e5760058201805462ff000019169055610a24565b60058201805463ff00ff00191663010000001790555b50600195945050505050565b6000806000610a3d61290a565b50505060009182525060076020908152604091829020825160608101845281548082526001830154600160a060020a0316938201849052600290920154930183905292909190565b336000818152600360205260408120549091829160ff16151560011480610ab95750600054600160a060020a038281169116145b1515610ac457600080fd5b6000868152600660205260409020805490925086148015610af15750600382015460b860020a900460ff16155b8015610b1e5750600382015474010000000000000000000000000000000000000000900460ff1615156001145b8015610b3a5750600382015460a860020a900460ff1615156001145b8015610b525750600382015460b060020a900460ff16155b8015610b665750600160a060020a03851615155b8015610bfd57508160030160009054906101000a9004600160a060020a0316600160a060020a0316632ef193b06040518163ffffffff1660e060020a028152600401602060405180830381600087803b158015610bc257600080fd5b505af1158015610bd6573d6000803e3d6000fd5b505050506040513d6020811015610bec57600080fd5b5051600160a060020a038681169116145b1515610c0857600080fd5b8315610c345760038201805475ff00000000000000000000000000000000000000000019169055610a24565b50600301805476ff00ff0000000000000000000000000000000000000000191660b060020a1790555060019392505050565b336000818152600360205260408120549091829160ff16151560011480610c9a5750600054600160a060020a038281169116145b1515610ca557600080fd5b6000858152600460205260409020805490925085148015610cd55750600582015460ff6101009091041615156001145b8015610cec5750600582015462010000900460ff16155b8015610d04575060058201546301000000900460ff16155b8015610d185750600160a060020a03841615155b8015610daf57508160020160009054906101000a9004600160a060020a0316600160a060020a0316632ef193b06040518163ffffffff1660e060020a028152600401602060405180830381600087803b158015610d7457600080fd5b505af1158015610d88573d6000803e3d6000fd5b505050506040513d6020811015610d9e57600080fd5b5051600160a060020a038581169116145b1515610dba57600080fd5b50600501805462ffff0019166201000017905550600192915050565b6000806000610de361290a565b50505060009182525060096020908152604091829020825160608101845281548082526001830154600160a060020a0316938201849052600290920154930183905292909190565b600054600160a060020a03163314610e4257600080fd5b600160a060020a03919091166000908152600360205260409020805460ff1916911515919091179055565b336000818152600360205260408120549091829182919060ff16151560011480610ea45750600054600160a060020a038281169116145b1515610eaf57600080fd5b6000878152600460205260409020805490935087148015610eda57506005830154610100900460ff16155b8015610ef55750600583015462010000900460ff1615156001145b8015610f0d575060058301546301000000900460ff16155b1515610f1857600080fd5b6000878152600560205260409020805490925087148015610f41575060018083015460ff161515145b8015610f555750600160a060020a03861615155b8015610fec57508160020160009054906101000a9004600160a060020a0316600160a060020a0316632ef193b06040518163ffffffff1660e060020a028152600401602060405180830381600087803b158015610fb157600080fd5b505af1158015610fc5573d6000803e3d6000fd5b505050506040513d6020811015610fdb57600080fd5b5051600160a060020a038781169116145b1515610ff757600080fd5b84156110105760058301805462ff00001916905561102f565b60018201805460ff19169055600282018054600160a060020a03191690555b5060019695505050505050565b6000806000806060600080600080606061105461292a565b60008c81526004602081815260409283902083516101408101855281548152600180830154600160a060020a039081168386015260028085015482168489015260038501549091166060840152948301805487516101009382161593909302600019011695909504601f81018590048502820185019096528581529094919360808601939192909183018282801561112d5780601f106111025761010080835404028352916020019161112d565b820191906000526020600020905b81548152906001019060200180831161111057829003601f168201915b5050509183525050600582015460ff808216602080850191909152610100808404831615156040808701919091526201000085048416151560608701526301000000909404909216151560808501526006850180548451600260018316159095026000190190911693909304601f810183900483028401830190945283835260a0909401939192908301828280156112065780601f106111db57610100808354040283529160200191611206565b820191906000526020600020905b8154815290600101906020018083116111e957829003601f168201915b5050505050815250509050806000015181602001518260400151836060015184608001518560a001518660c001518760e001518861010001518961012001518595508090509a509a509a509a509a509a509a509a509a509a50509193959799509193959799565b33600081815260036020526040812054909182918291829160ff161515600114806112a55750600054600160a060020a038281169116145b15156112b057600080fd5b60008781526004602052604090208054909450871480156112db57506005840154610100900460ff16155b80156112f25750600584015462010000900460ff16155b801561130a575060058401546301000000900460ff16155b801561131e5750600160a060020a03861615155b80156113b557508360030160009054906101000a9004600160a060020a0316600160a060020a0316632ef193b06040518163ffffffff1660e060020a028152600401602060405180830381600087803b15801561137a57600080fd5b505af115801561138e573d6000803e3d6000fd5b505050506040513d60208110156113a457600080fd5b5051600160a060020a038781169116145b15156113c057600080fd5b60008781526005602052604090208054909350871480156113e9575060018084015460ff161515145b801561140157506002830154600160a060020a031615155b151561140c57600080fd5b505060059190910180546201000062ff0000199091161790556001818101805474ffffffffffffffffffffffffffffffffffffffffff1916610100600160a060020a0396871602179055600282018054600160a060020a0319808216909255600490930180549390951692169190911790925550919050565b3360008181526003602052604081205490918291829182918291829160ff161515600114806114c15750600054600160a060020a038281169116145b15156114cc57600080fd5b6114db8e8e8e8e8e8e8e612638565b15156114e657600080fd5b30898f6040516020018084600160a060020a0316600160a060020a03166c0100000000000000000000000002815260140183600160a060020a0316600160a060020a03166c0100000000000000000000000002815260140182815260200193505050506040516020818303038152906040526040518082805190602001908083835b602083106115875780518252601f199092019160209182019101611568565b6001836020036101000a03801982511681845116808217855250505050505090500191505060405180910390209450600760008660001916600019168152602001908152602001600020935084846000018160001916905550888460010160006101000a815481600160a060020a030219169083600160a060020a031602179055508d8460020181905550308a8f6040516020018084600160a060020a0316600160a060020a03166c0100000000000000000000000002815260140183600160a060020a0316600160a060020a03166c0100000000000000000000000002815260140182815260200193505050506040516020818303038152906040526040518082805190602001908083835b602083106116b35780518252601f199092019160209182019101611694565b6001836020036101000a03801982511681845116808217855250505050505090500191505060405180910390209250600860008460001916600019168152602001908152602001600020915082826000018160001916905550898260010160006101000a815481600160a060020a030219169083600160a060020a031602179055508d8260020181905550848396509650505050505097509795505050505050565b60036020526000908152604090205460ff1681565b600061177461292a565b600061177e612980565b3360008181526003602052604090205460ff161515600114806117ae5750600054600160a060020a038281169116145b15156117b957600080fd5b60008b81526004602081815260409283902083516101408101855281548152600180830154600160a060020a039081168386015260028085015482168489015260038501549091166060840152948301805487516101009382161593909302600019011695909504601f8101859004850282018501909652858152909491936080860193919290918301828280156118925780601f1061186757610100808354040283529160200191611892565b820191906000526020600020905b81548152906001019060200180831161187557829003601f168201915b5050509183525050600582015460ff808216602080850191909152610100808404831615156040808701919091526201000085048416151560608701526301000000909404909216151560808501526006850180548451600260018316159095026000190190911693909304601f810183900483028401830190945283835260a09094019391929083018282801561196b5780601f106119405761010080835404028352916020019161196b565b820191906000526020600020905b81548152906001019060200180831161194e57829003601f168201915b50505050508152505093508a846000015114801561199257508960ff168460a0015160ff16145b80156119a0575060c0840151155b80156119b2575060e084015115156001145b80156119c15750610100840151155b80156119d55750600160a060020a03891615155b8015611a5957508360600151600160a060020a0316632ef193b06040518163ffffffff1660e060020a028152600401602060405180830381600087803b158015611a1e57600080fd5b505af1158015611a32573d6000803e3d6000fd5b505050506040513d6020811015611a4857600080fd5b5051600160a060020a038a81169116145b8015611a66575060008751115b1515611a7157600080fd5b60008b8152600560205260409020600181015490935060ff1615611a9457600080fd5b60008b81526006602081815260409283902083516101808101855281548082526001830154600160a060020a039081169483019490945260028301548416958201959095526003820154808416606083015260ff74010000000000000000000000000000000000000000820481161515608084015260a860020a82048116151560a084015260b060020a82048116151560c084015260b860020a90910416151560e082015260048201546101008201526005820154610120820152928101548216610140840152600701541661016082015292508b1415611b7e5760e082015115611b7e57600080fd5b6001838101805460ff191690911774ffffffffffffffffffffffffffffffffffffffff001916610100600160a060020a038c81169190910291909117909155600284018054600160a060020a031916918a169190911790558651611beb90600385019060208a01906129e4565b508551611c0190600585019060208901906129e4565b5060019b9a5050505050505050505050565b600254600160a060020a031681565b600080600080606060006060611c36612a62565b600089815260056020908152604091829020825160e0810184528154815260018083015460ff811615158386015261010090819004600160a060020a039081168488015260028086015490911660608501526003850180548851948116159093026000190190921604601f810186900486028301860190965285825291949293608086019391929190830182828015611d105780601f10611ce557610100808354040283529160200191611d10565b820191906000526020600020905b815481529060010190602001808311611cf357829003601f168201915b50505091835250506004820154600160a060020a031660208083019190915260058301805460408051601f60026000196001861615610100020190941693909304928301859004850281018501825282815294019392830182828015611db75780601f10611d8c57610100808354040283529160200191611db7565b820191906000526020600020905b815481529060010190602001808311611d9a57829003601f168201915b5050509190925250508151602083015160408401516060850151608086015160a087015160c0880151959f50939d50919b5099509750955093509091505050919395979092949650565b600054600160a060020a03163314611e1857600080fd5b60018054600160a060020a03938416600160a060020a03199182161790915560028054929093169116179055565b6000806000611e5361290a565b50505060009182525060086020908152604091829020825160608101845281548082526001830154600160a060020a0316938201849052600290920154930183905292909190565b6000806000611ea861290a565b505050600091825250600a6020908152604091829020825160608101845281548082526001830154600160a060020a0316938201849052600290920154930183905292909190565b600054600160a060020a031681565b3360008181526003602052604081205490918291829182918291829160ff16151560011480611f3b5750600054600160a060020a038281169116145b1515611f4657600080fd5b611f548d8d8d8d8d8d612707565b1515611f5f57600080fd5b308a8e6040516020018084600160a060020a0316600160a060020a03166c0100000000000000000000000002815260140183600160a060020a0316600160a060020a03166c0100000000000000000000000002815260140182815260200193505050506040516020818303038152906040526040518082805190602001908083835b602083106120005780518252601f199092019160209182019101611fe1565b6001836020036101000a03801982511681845116808217855250505050505090500191505060405180910390209450600960008660001916600019168152602001908152602001600020935084846000018160001916905550898460010160006101000a815481600160a060020a030219169083600160a060020a031602179055508c8460020181905550308b8e6040516020018084600160a060020a0316600160a060020a03166c0100000000000000000000000002815260140183600160a060020a0316600160a060020a03166c0100000000000000000000000002815260140182815260200193505050506040516020818303038152906040526040518082805190602001908083835b6020831061212c5780518252601f19909201916020918201910161210d565b6001836020036101000a03801982511681845116808217855250505050505090500191505060405180910390209250600a600084600019166000191681526020019081526020016000209150828260000181600019169055508a8260010160006101000a815481600160a060020a030219169083600160a060020a031602179055508c82600201819055508483965096505050505050965096945050505050565b6000806000806000806000806000806000806121e7612980565b600660008f81526020019081526020016000206101806040519081016040529081600082015481526020016001820160009054906101000a9004600160a060020a0316600160a060020a0316600160a060020a031681526020016002820160009054906101000a9004600160a060020a0316600160a060020a0316600160a060020a031681526020016003820160009054906101000a9004600160a060020a0316600160a060020a0316600160a060020a031681526020016003820160149054906101000a900460ff161515151581526020016003820160159054906101000a900460ff161515151581526020016003820160169054906101000a900460ff161515151581526020016003820160179054906101000a900460ff1615151515815260200160048201548152602001600582015481526020016006820160009054906101000a9004600160a060020a0316600160a060020a0316600160a060020a031681526020016007820160009054906101000a9004600160a060020a0316600160a060020a0316600160a060020a0316815250509050806000015181602001518260400151836060015184608001518560a001518660c001518760e001518861010001518961012001518a61014001518b61016001519c509c509c509c509c509c509c509c509c509c509c509c505091939597999b5091939597999b565b33600081815260036020526040812054909182918291829160ff1615156001148061241e5750600054600160a060020a038281169116145b151561242957600080fd5b60008781526006602052604090208054909450871480156124565750600384015460b860020a900460ff16155b80156124835750600384015474010000000000000000000000000000000000000000900460ff1615156001145b801561249b5750600384015460a860020a900460ff16155b80156124b35750600384015460b060020a900460ff16155b80156124c75750600160a060020a03861615155b801561255e57508360020160009054906101000a9004600160a060020a0316600160a060020a0316632ef193b06040518163ffffffff1660e060020a028152600401602060405180830381600087803b15801561252357600080fd5b505af1158015612537573d6000803e3d6000fd5b505050506040513d602081101561254d57600080fd5b5051600160a060020a038781169116145b151561256957600080fd5b50505060038101805477ff00000000000000000000000000000000000000000000001975ffff00000000000000000000000000000000000000001990911660a860020a171660b860020a17905560048101805460009091556005820155600681018054600160a060020a031980821690925560079092018054909116600160a060020a0390921691909117905550600192915050565b600054600160a060020a0316331461261657600080fd5b60008054600160a060020a031916600160a060020a0392909216919091179055565b600087815260046020818152604083208a8155600181018054600160a060020a03808d16600160a060020a0319928316179092556002830180548a8416908316179055600383018054928916929091169190911790558751909284926126a59291850191908a01906129e4565b506005820180546201000061010060ff1990921660ff8c161761ff0019169190911762ff0000191617905583516126e590600684019060208701906129e4565b5050506000888152600560205260409020979097555060019695505050505050565b6000868152600460205260408120600101548190600160a060020a03161580159061274b57506000888152600460205260409020600501546301000000900460ff16155b801561276e5750600088815260046020526040902060050154610100900460ff16155b151561277957600080fd5b600088815260066020526040902060010154600160a060020a03161561279e57600080fd5b600084815260046020526040902060010154600160a060020a0316158015906127e057506000848152600460205260409020600501546301000000900460ff16155b80156128035750600084815260046020526040902060050154610100900460ff16155b151561280e57600080fd5b6000848152600460205260408082206005908101548b8452919092209091015460ff90811691161461283f57600080fd5b5050600086815260066020819052604090912096875560018088018054600160a060020a0319908116600160a060020a03998a161790915560028901805482169789169790971790965560038801805460a860020a74010000000000000000000000000000000000000000918916978a169790971774ff000000000000000000000000000000000000000019161775ff000000000000000000000000000000000000000000191695909517909455600487019290925594018054909216939092169290921790915590565b604080516060810182526000808252602082018190529181019190915290565b604080516101408101825260008082526020820181905291810182905260608082018390526080820181905260a0820183905260c0820183905260e0820183905261010082019290925261012081019190915290565b6040805161018081018252600080825260208201819052918101829052606081018290526080810182905260a0810182905260c0810182905260e0810182905261010081018290526101208101829052610140810182905261016081019190915290565b828054600181600116156101000203166002900490600052602060002090601f016020900481019282601f10612a2557805160ff1916838001178555612a52565b82800160010185558215612a52579182015b82811115612a52578251825591602001919060010190612a37565b50612a5e929150612abd565b5090565b60e060405190810160405280600081526020016000151581526020016000600160a060020a031681526020016000600160a060020a03168152602001606081526020016000600160a060020a03168152602001606081525090565b612ad791905b80821115612a5e5760008155600101612ac3565b905600a165627a7a72305820f0c54f1ef8c5429124d2a1d80bd3db7eaa8647a8d37c5e8bba1b1b04f14686a40029",
	"source": "pragma solidity ^0.4.24;\n\nimport \"./developed.sol\";\nimport './Thought.sol';\n\n/**\n * @title AOSettingAttribute\n *\n * This contract stores all AO setting data/state\n */\ncontract AOSettingAttribute is developed {\n\tstruct SettingData {\n\t\tuint256 settingId;\t\t\t\t// Identifier of this setting\n\t\taddress creatorNameId;\t\t\t// The nameId that created the setting\n\t\taddress creatorThoughtId;\t\t// The thoughtId that created the setting\n\t\taddress associatedThoughtId;\t// The thoughtId that the setting affects\n\t\tstring settingName;\t\t\t\t// The human-readable name of the setting\n\t\t/**\n\t\t * 1 => uint256\n\t\t * 2 => bool\n\t\t * 3 => address\n\t\t * 4 => bytes32\n\t\t * 5 => string (catch all)\n\t\t */\n\t\tuint8 settingType;\n\t\tbool pendingCreate;\t\t\t\t// State when associatedThoughtId has not accepted setting\n\t\tbool locked;\t\t\t\t\t// State when pending anything (cannot change if locked)\n\t\tbool rejected;\t\t\t\t\t// State when associatedThoughtId rejected this setting\n\t\tstring settingDataJSON;\t\t\t// Catch-all\n\t}\n\n\tstruct SettingState {\n\t\tuint256 settingId;\t\t\t\t// Identifier of this setting\n\t\tbool pendingUpdate;\t\t\t\t// State when setting is in process of being updated\n\t\taddress updateAdvocateNameId;\t// The nameId of the Advocate that performed the update\n\n\t\t/**\n\t\t * A child of the associatedThoughtId with the update Logos.\n\t\t * This tells the setting contract that there is a proposal Thought that is a Child Thought\n\t\t * of the associated Thought, which will be responsible for deciding if the update to the\n\t\t * setting is accepted or rejected.\n\t\t */\n\t\taddress proposalThoughtId;\n\n\t\t/**\n\t\t * Signature of the proposalThoughtId and update value by the associatedThoughtId\n\t\t * Advocate's Name's address.\n\t\t */\n\t\tstring updateSignature;\n\n\t\t/**\n\t\t * The proposalThoughtId moves here when setting value changes successfully\n\t\t */\n\t\taddress lastUpdateThoughtId;\n\n\t\tstring settingStateJSON;\t\t// Catch-all\n\t}\n\n\tstruct SettingDeprecation {\n\t\tuint256 settingId;\t\t\t\t// Identifier of this setting\n\t\taddress creatorNameId;\t\t\t// The nameId that created this deprecation\n\t\taddress creatorThoughtId;\t\t// The thoughtId that created this deprecation\n\t\taddress associatedThoughtId;\t// The thoughtId that the setting affects\n\t\tbool pendingDeprecated;\t\t\t// State when associatedThoughtId has not accepted setting\n\t\tbool locked;\t\t\t\t\t// State when pending anything (cannot change if locked)\n\t\tbool rejected;\t\t\t\t\t// State when associatedThoughtId rejected this setting\n\t\tbool migrated;\t\t\t\t\t// State when this setting is fully migrated\n\n\t\t// holds the pending new settingId value when a deprecation is set\n\t\tuint256 pendingNewSettingId;\n\n\t\t// holds the new settingId that has been approved by associatedThoughtId\n\t\tuint256 newSettingId;\n\n\t\t// holds the pending new contract address for this setting\n\t\taddress pendingNewSettingContractAddress;\n\n\t\t// holds the new contract address for this setting\n\t\taddress newSettingContractAddress;\n\t}\n\n\tstruct AssociatedThoughtSetting {\n\t\tbytes32 associatedThoughtSettingId;\t\t// Identifier\n\t\taddress associatedThoughtId;\t\t\t// The Thought ID that the setting is associated to\n\t\tuint256 settingId;\t\t\t\t\t\t// The Setting ID that is associated with the Thought ID\n\t}\n\n\tstruct CreatorThoughtSetting {\n\t\tbytes32 creatorThoughtSettingId;\t\t// Identifier\n\t\taddress creatorThoughtId;\t\t\t\t// The Thought ID that the setting was created from\n\t\tuint256 settingId;\t\t\t\t\t\t// The Setting ID created from the Thought ID\n\t}\n\n\tstruct AssociatedThoughtSettingDeprecation {\n\t\tbytes32 associatedThoughtSettingDeprecationId;\t\t// Identifier\n\t\taddress associatedThoughtId;\t\t\t\t\t\t// The Thought ID that the setting is associated to\n\t\tuint256 settingId;\t\t\t\t\t\t\t\t\t// The Setting ID that is associated with the Thought ID\n\t}\n\n\tstruct CreatorThoughtSettingDeprecation {\n\t\tbytes32 creatorThoughtSettingDeprecationId;\t\t\t// Identifier\n\t\taddress creatorThoughtId;\t\t\t\t\t\t\t// The Thought ID that the setting was created from\n\t\tuint256 settingId;\t\t\t\t\t\t\t\t\t// The Setting ID created from the Thought ID\n\t}\n\n\t// Mapping from settingId to it's data\n\tmapping (uint256 => SettingData) internal settingDatas;\n\n\t// Mapping from settingId to it's state\n\tmapping (uint256 => SettingState) internal settingStates;\n\n\t// Mapping from settingId to it's deprecation info\n\tmapping (uint256 => SettingDeprecation) internal settingDeprecations;\n\n\t// Mapping from associatedThoughtSettingId to AssociatedThoughtSetting\n\tmapping (bytes32 => AssociatedThoughtSetting) internal associatedThoughtSettings;\n\n\t// Mapping from creatorThoughtSettingId to CreatorThoughtSetting\n\tmapping (bytes32 => CreatorThoughtSetting) internal creatorThoughtSettings;\n\n\t// Mapping from associatedThoughtSettingDeprecationId to AssociatedThoughtSettingDeprecation\n\tmapping (bytes32 => AssociatedThoughtSettingDeprecation) internal associatedThoughtSettingDeprecations;\n\n\t// Mapping from creatorThoughtSettingDeprecationId to CreatorThoughtSettingDeprecation\n\tmapping (bytes32 => CreatorThoughtSettingDeprecation) internal creatorThoughtSettingDeprecations;\n\n\t/**\n\t * @dev Constructor function\n\t */\n\tconstructor() public {}\n\n\t/**\n\t * @dev Add setting data/state\n\t * @param _settingId The ID of the setting\n\t * @param _creatorNameId The nameId that created the setting\n\t * @param _settingType The type of this setting. 1 => uint256, 2 => bool, 3 => address, 4 => bytes32, 5 => string\n\t * @param _settingName The human-readable name of the setting\n\t * @param _creatorThoughtId The thoughtId that created the setting\n\t * @param _associatedThoughtId The thoughtId that the setting affects\n\t * @param _extraData Catch-all string value to be stored if exist\n\t * @return The ID of the \"Associated\" setting\n\t * @return The ID of the \"Creator\" setting\n\t */\n\tfunction add(uint256 _settingId, address _creatorNameId, uint8 _settingType, string _settingName, address _creatorThoughtId, address _associatedThoughtId, string _extraData) public inWhitelist(msg.sender) returns (bytes32, bytes32) {\n\t\t// Store setting data/state\n\t\trequire (_storeSettingDataState(_settingId, _creatorNameId, _settingType, _settingName, _creatorThoughtId, _associatedThoughtId, _extraData));\n\n\t\t// Store the associatedThoughtSetting info\n\t\tbytes32 _associatedThoughtSettingId = keccak256(abi.encodePacked(this, _associatedThoughtId, _settingId));\n\t\tAssociatedThoughtSetting storage _associatedThoughtSetting = associatedThoughtSettings[_associatedThoughtSettingId];\n\t\t_associatedThoughtSetting.associatedThoughtSettingId = _associatedThoughtSettingId;\n\t\t_associatedThoughtSetting.associatedThoughtId = _associatedThoughtId;\n\t\t_associatedThoughtSetting.settingId = _settingId;\n\n\t\t// Store the creatorThoughtSetting info\n\t\tbytes32 _creatorThoughtSettingId = keccak256(abi.encodePacked(this, _creatorThoughtId, _settingId));\n\t\tCreatorThoughtSetting storage _creatorThoughtSetting = creatorThoughtSettings[_creatorThoughtSettingId];\n\t\t_creatorThoughtSetting.creatorThoughtSettingId = _creatorThoughtSettingId;\n\t\t_creatorThoughtSetting.creatorThoughtId = _creatorThoughtId;\n\t\t_creatorThoughtSetting.settingId = _settingId;\n\n\t\treturn (_associatedThoughtSettingId, _creatorThoughtSettingId);\n\t}\n\n\t/**\n\t * @dev Get Setting Data of a setting ID\n\t * @param _settingId The ID of the setting\n\t */\n\tfunction getSettingData(uint256 _settingId) public view returns (uint256, address, address, address, string, uint8, bool, bool, bool, string) {\n\t\tSettingData memory _settingData = settingDatas[_settingId];\n\t\treturn (\n\t\t\t_settingData.settingId,\n\t\t\t_settingData.creatorNameId,\n\t\t\t_settingData.creatorThoughtId,\n\t\t\t_settingData.associatedThoughtId,\n\t\t\t_settingData.settingName,\n\t\t\t_settingData.settingType,\n\t\t\t_settingData.pendingCreate,\n\t\t\t_settingData.locked,\n\t\t\t_settingData.rejected,\n\t\t\t_settingData.settingDataJSON\n\t\t);\n\t}\n\n\t/**\n\t * @dev Get Associated Thought Setting info\n\t * @param _associatedThoughtSettingId The ID of the associated thought setting\n\t */\n\tfunction getAssociatedThoughtSetting(bytes32 _associatedThoughtSettingId) public view returns (bytes32, address, uint256) {\n\t\tAssociatedThoughtSetting memory _associatedThoughtSetting = associatedThoughtSettings[_associatedThoughtSettingId];\n\t\treturn (\n\t\t\t_associatedThoughtSetting.associatedThoughtSettingId,\n\t\t\t_associatedThoughtSetting.associatedThoughtId,\n\t\t\t_associatedThoughtSetting.settingId\n\t\t);\n\t}\n\n\t/**\n\t * @dev Get Creator Thought Setting info\n\t * @param _creatorThoughtSettingId The ID of the creator thought setting\n\t */\n\tfunction getCreatorThoughtSetting(bytes32 _creatorThoughtSettingId) public view returns (bytes32, address, uint256) {\n\t\tCreatorThoughtSetting memory _creatorThoughtSetting = creatorThoughtSettings[_creatorThoughtSettingId];\n\t\treturn (\n\t\t\t_creatorThoughtSetting.creatorThoughtSettingId,\n\t\t\t_creatorThoughtSetting.creatorThoughtId,\n\t\t\t_creatorThoughtSetting.settingId\n\t\t);\n\t}\n\n\t/**\n\t * @dev Advocate of Setting's _associatedThoughtId approves setting creation\n\t * @param _settingId The ID of the setting to approve\n\t * @param _associatedThoughtAdvocate The advocate of the associated Thought\n\t * @param _approved Whether to approve or reject\n\t * @return true on success\n\t */\n\tfunction approveAdd(uint256 _settingId, address _associatedThoughtAdvocate, bool _approved) public inWhitelist(msg.sender) returns (bool) {\n\t\t// Make sure setting exists and needs approval\n\t\tSettingData storage _settingData = settingDatas[_settingId];\n\t\trequire (_settingData.settingId == _settingId && _settingData.pendingCreate == true && _settingData.locked == true && _settingData.rejected == false && _associatedThoughtAdvocate != address(0) && _associatedThoughtAdvocate == Thought(_settingData.associatedThoughtId).advocateId());\n\n\t\tif (_approved) {\n\t\t\t// Unlock the setting so that advocate of creatorThoughtId can finalize the creation\n\t\t\t_settingData.locked = false;\n\t\t} else {\n\t\t\t// Reject the setting\n\t\t\t_settingData.pendingCreate = false;\n\t\t\t_settingData.rejected = true;\n\t\t}\n\n\t\treturn true;\n\t}\n\n\t/**\n\t * @dev Advocate of Setting's _creatorThoughtId finalizes the setting creation once the setting is approved\n\t * @param _settingId The ID of the setting to be finalized\n\t * @param _creatorThoughtAdvocate The advocate of the creator Thought\n\t * @return true on success\n\t */\n\tfunction finalizeAdd(uint256 _settingId, address _creatorThoughtAdvocate) public inWhitelist(msg.sender) returns (bool) {\n\t\t// Make sure setting exists and needs approval\n\t\tSettingData storage _settingData = settingDatas[_settingId];\n\t\trequire (_settingData.settingId == _settingId && _settingData.pendingCreate == true && _settingData.locked == false && _settingData.rejected == false && _creatorThoughtAdvocate != address(0) && _creatorThoughtAdvocate == Thought(_settingData.creatorThoughtId).advocateId());\n\n\t\t// Update the setting data\n\t\t_settingData.pendingCreate = false;\n\t\t_settingData.locked = true;\n\n\t\treturn true;\n\t}\n\n\t/**\n\t * @dev Store setting update data\n\t * @param _settingId The ID of the setting to be updated\n\t * @param _settingType The type of this setting\n\t * @param _associatedThoughtAdvocate The setting's associatedThoughtId's advocate's name address\n\t * @param _proposalThoughtId The child of the associatedThoughtId with the update Logos\n\t * @param _updateSignature A signature of the proposalThoughtId and update value by _associatedThoughtAdvocate\n\t * @param _extraData Catch-all string value to be stored if exist\n\t * @return true on success\n\t */\n\tfunction update(uint256 _settingId, uint8 _settingType, address _associatedThoughtAdvocate, address _proposalThoughtId, string _updateSignature, string _extraData) public inWhitelist(msg.sender) returns (bool) {\n\t\t// Make sure setting is created\n\t\tSettingData memory _settingData = settingDatas[_settingId];\n\t\trequire (_settingData.settingId == _settingId && _settingData.settingType == _settingType && _settingData.pendingCreate == false && _settingData.locked == true && _settingData.rejected == false && _associatedThoughtAdvocate != address(0) && _associatedThoughtAdvocate == Thought(_settingData.associatedThoughtId).advocateId() && bytes(_updateSignature).length > 0);\n\n\t\t// Make sure setting is not in the middle of updating\n\t\tSettingState storage _settingState = settingStates[_settingId];\n\t\trequire (_settingState.pendingUpdate == false);\n\n\t\t// Make sure setting is not yet deprecated\n\t\tSettingDeprecation memory _settingDeprecation = settingDeprecations[_settingId];\n\t\tif (_settingDeprecation.settingId == _settingId) {\n\t\t\trequire (_settingDeprecation.migrated == false);\n\t\t}\n\n\t\t// Store the SettingState data\n\t\t_settingState.pendingUpdate = true;\n\t\t_settingState.updateAdvocateNameId = _associatedThoughtAdvocate;\n\t\t_settingState.proposalThoughtId = _proposalThoughtId;\n\t\t_settingState.updateSignature = _updateSignature;\n\t\t_settingState.settingStateJSON = _extraData;\n\n\t\treturn true;\n\t}\n\n\t/**\n\t * @dev Get setting state\n\t * @param _settingId The ID of the setting\n\t */\n\tfunction getSettingState(uint256 _settingId) public view returns (uint256, bool, address, address, string, address, string) {\n\t\tSettingState memory _settingState = settingStates[_settingId];\n\t\treturn (\n\t\t\t_settingState.settingId,\n\t\t\t_settingState.pendingUpdate,\n\t\t\t_settingState.updateAdvocateNameId,\n\t\t\t_settingState.proposalThoughtId,\n\t\t\t_settingState.updateSignature,\n\t\t\t_settingState.lastUpdateThoughtId,\n\t\t\t_settingState.settingStateJSON\n\t\t);\n\t}\n\n\t/**\n\t * @dev Advocate of Setting's proposalThoughtId approves the setting update\n\t * @param _settingId The ID of the setting to be approved\n\t * @param _proposalThoughtAdvocate The advocate of the proposal Thought\n\t * @param _approved Whether to approve or reject\n\t * @return true on success\n\t */\n\tfunction approveUpdate(uint256 _settingId, address _proposalThoughtAdvocate, bool _approved) public inWhitelist(msg.sender) returns (bool) {\n\t\t// Make sure setting is created\n\t\tSettingData storage _settingData = settingDatas[_settingId];\n\t\trequire (_settingData.settingId == _settingId && _settingData.pendingCreate == false && _settingData.locked == true && _settingData.rejected == false);\n\n\t\t// Make sure setting update exists and needs approval\n\t\tSettingState storage _settingState = settingStates[_settingId];\n\t\trequire (_settingState.settingId == _settingId && _settingState.pendingUpdate == true && _proposalThoughtAdvocate != address(0) && _proposalThoughtAdvocate == Thought(_settingState.proposalThoughtId).advocateId());\n\n\t\tif (_approved) {\n\t\t\t// Unlock the setting so that advocate of associatedThoughtId can finalize the update\n\t\t\t_settingData.locked = false;\n\t\t} else {\n\t\t\t// Set pendingUpdate to false\n\t\t\t_settingState.pendingUpdate = false;\n\t\t\t_settingState.proposalThoughtId = address(0);\n\t\t}\n\t\treturn true;\n\t}\n\n\t/**\n\t * @dev Advocate of Setting's _associatedThoughtId finalizes the setting update once the setting is approved\n\t * @param _settingId The ID of the setting to be finalized\n\t * @param _associatedThoughtAdvocate The advocate of the associated Thought\n\t * @return true on success\n\t */\n\tfunction finalizeUpdate(uint256 _settingId, address _associatedThoughtAdvocate) public inWhitelist(msg.sender) returns (bool) {\n\t\t// Make sure setting is created\n\t\tSettingData storage _settingData = settingDatas[_settingId];\n\t\trequire (_settingData.settingId == _settingId && _settingData.pendingCreate == false && _settingData.locked == false && _settingData.rejected == false && _associatedThoughtAdvocate != address(0) && _associatedThoughtAdvocate == Thought(_settingData.associatedThoughtId).advocateId());\n\n\t\t// Make sure setting update exists and needs approval\n\t\tSettingState storage _settingState = settingStates[_settingId];\n\t\trequire (_settingState.settingId == _settingId && _settingState.pendingUpdate == true && _settingState.proposalThoughtId != address(0));\n\n\t\t// Update the setting data\n\t\t_settingData.locked = true;\n\n\t\t// Update the setting state\n\t\t_settingState.pendingUpdate = false;\n\t\t_settingState.updateAdvocateNameId = _associatedThoughtAdvocate;\n\t\taddress _proposalThoughtId = _settingState.proposalThoughtId;\n\t\t_settingState.proposalThoughtId = address(0);\n\t\t_settingState.lastUpdateThoughtId = _proposalThoughtId;\n\n\t\treturn true;\n\t}\n\n\t/**\n\t * @dev Add setting deprecation\n\t * @param _settingId The ID of the setting\n\t * @param _creatorNameId The nameId that created the setting\n\t * @param _creatorThoughtId The thoughtId that created the setting\n\t * @param _associatedThoughtId The thoughtId that the setting affects\n\t * @param _newSettingId The new settingId value to route\n\t * @param _newSettingContractAddress The address of the new setting contract to route\n\t * @return The ID of the \"Associated\" setting deprecation\n\t * @return The ID of the \"Creator\" setting deprecation\n\t */\n\tfunction addDeprecation(uint256 _settingId, address _creatorNameId, address _creatorThoughtId, address _associatedThoughtId, uint256 _newSettingId, address _newSettingContractAddress) public inWhitelist(msg.sender) returns (bytes32, bytes32) {\n\t\trequire (_storeSettingDeprecation(_settingId, _creatorNameId, _creatorThoughtId, _associatedThoughtId, _newSettingId, _newSettingContractAddress));\n\n\t\t// Store the associatedThoughtSettingDeprecation info\n\t\tbytes32 _associatedThoughtSettingDeprecationId = keccak256(abi.encodePacked(this, _associatedThoughtId, _settingId));\n\t\tAssociatedThoughtSettingDeprecation storage _associatedThoughtSettingDeprecation = associatedThoughtSettingDeprecations[_associatedThoughtSettingDeprecationId];\n\t\t_associatedThoughtSettingDeprecation.associatedThoughtSettingDeprecationId = _associatedThoughtSettingDeprecationId;\n\t\t_associatedThoughtSettingDeprecation.associatedThoughtId = _associatedThoughtId;\n\t\t_associatedThoughtSettingDeprecation.settingId = _settingId;\n\n\t\t// Store the creatorThoughtSettingDeprecation info\n\t\tbytes32 _creatorThoughtSettingDeprecationId = keccak256(abi.encodePacked(this, _creatorThoughtId, _settingId));\n\t\tCreatorThoughtSettingDeprecation storage _creatorThoughtSettingDeprecation = creatorThoughtSettingDeprecations[_creatorThoughtSettingDeprecationId];\n\t\t_creatorThoughtSettingDeprecation.creatorThoughtSettingDeprecationId = _creatorThoughtSettingDeprecationId;\n\t\t_creatorThoughtSettingDeprecation.creatorThoughtId = _creatorThoughtId;\n\t\t_creatorThoughtSettingDeprecation.settingId = _settingId;\n\n\t\treturn (_associatedThoughtSettingDeprecationId, _creatorThoughtSettingDeprecationId);\n\t}\n\n\t/**\n\t * @dev Get Setting Deprecation info of a setting ID\n\t * @param _settingId The ID of the setting\n\t */\n\tfunction getSettingDeprecation(uint256 _settingId) public view returns (uint256, address, address, address, bool, bool, bool, bool, uint256, uint256, address, address) {\n\t\tSettingDeprecation memory _settingDeprecation = settingDeprecations[_settingId];\n\t\treturn (\n\t\t\t_settingDeprecation.settingId,\n\t\t\t_settingDeprecation.creatorNameId,\n\t\t\t_settingDeprecation.creatorThoughtId,\n\t\t\t_settingDeprecation.associatedThoughtId,\n\t\t\t_settingDeprecation.pendingDeprecated,\n\t\t\t_settingDeprecation.locked,\n\t\t\t_settingDeprecation.rejected,\n\t\t\t_settingDeprecation.migrated,\n\t\t\t_settingDeprecation.pendingNewSettingId,\n\t\t\t_settingDeprecation.newSettingId,\n\t\t\t_settingDeprecation.pendingNewSettingContractAddress,\n\t\t\t_settingDeprecation.newSettingContractAddress\n\t\t);\n\t}\n\n\t/**\n\t * @dev Get Associated Thought Setting Deprecation info\n\t * @param _associatedThoughtSettingDeprecationId The ID of the associated thought setting deprecation\n\t */\n\tfunction getAssociatedThoughtSettingDeprecation(bytes32 _associatedThoughtSettingDeprecationId) public view returns (bytes32, address, uint256) {\n\t\tAssociatedThoughtSettingDeprecation memory _associatedThoughtSettingDeprecation = associatedThoughtSettingDeprecations[_associatedThoughtSettingDeprecationId];\n\t\treturn (\n\t\t\t_associatedThoughtSettingDeprecation.associatedThoughtSettingDeprecationId,\n\t\t\t_associatedThoughtSettingDeprecation.associatedThoughtId,\n\t\t\t_associatedThoughtSettingDeprecation.settingId\n\t\t);\n\t}\n\n\t/**\n\t * @dev Get Creator Thought Setting Deprecation info\n\t * @param _creatorThoughtSettingDeprecationId The ID of the creator thought setting deprecation\n\t */\n\tfunction getCreatorThoughtSettingDeprecation(bytes32 _creatorThoughtSettingDeprecationId) public view returns (bytes32, address, uint256) {\n\t\tCreatorThoughtSettingDeprecation memory _creatorThoughtSettingDeprecation = creatorThoughtSettingDeprecations[_creatorThoughtSettingDeprecationId];\n\t\treturn (\n\t\t\t_creatorThoughtSettingDeprecation.creatorThoughtSettingDeprecationId,\n\t\t\t_creatorThoughtSettingDeprecation.creatorThoughtId,\n\t\t\t_creatorThoughtSettingDeprecation.settingId\n\t\t);\n\t}\n\n\t/**\n\t * @dev Advocate of SettingDeprecation's _associatedThoughtId approves deprecation\n\t * @param _settingId The ID of the setting to approve\n\t * @param _associatedThoughtAdvocate The advocate of the associated Thought\n\t * @param _approved Whether to approve or reject\n\t * @return true on success\n\t */\n\tfunction approveDeprecation(uint256 _settingId, address _associatedThoughtAdvocate, bool _approved) public inWhitelist(msg.sender) returns (bool) {\n\t\t// Make sure setting exists and needs approval\n\t\tSettingDeprecation storage _settingDeprecation = settingDeprecations[_settingId];\n\t\trequire (_settingDeprecation.settingId == _settingId && _settingDeprecation.migrated == false && _settingDeprecation.pendingDeprecated == true && _settingDeprecation.locked == true && _settingDeprecation.rejected == false && _associatedThoughtAdvocate != address(0) && _associatedThoughtAdvocate == Thought(_settingDeprecation.associatedThoughtId).advocateId());\n\n\t\tif (_approved) {\n\t\t\t// Unlock the setting so that advocate of creatorThoughtId can finalize the creation\n\t\t\t_settingDeprecation.locked = false;\n\t\t} else {\n\t\t\t// Reject the setting\n\t\t\t_settingDeprecation.pendingDeprecated = false;\n\t\t\t_settingDeprecation.rejected = true;\n\t\t}\n\t\treturn true;\n\t}\n\n\t/**\n\t * @dev Advocate of SettingDeprecation's _creatorThoughtId finalizes the deprecation once the setting deprecation is approved\n\t * @param _settingId The ID of the setting to be finalized\n\t * @param _creatorThoughtAdvocate The advocate of the creator Thought\n\t * @return true on success\n\t */\n\tfunction finalizeDeprecation(uint256 _settingId, address _creatorThoughtAdvocate) public inWhitelist(msg.sender) returns (bool) {\n\t\t// Make sure setting exists and needs approval\n\t\tSettingDeprecation storage _settingDeprecation = settingDeprecations[_settingId];\n\t\trequire (_settingDeprecation.settingId == _settingId && _settingDeprecation.migrated == false && _settingDeprecation.pendingDeprecated == true && _settingDeprecation.locked == false && _settingDeprecation.rejected == false && _creatorThoughtAdvocate != address(0) && _creatorThoughtAdvocate == Thought(_settingDeprecation.creatorThoughtId).advocateId());\n\n\t\t// Update the setting data\n\t\t_settingDeprecation.pendingDeprecated = false;\n\t\t_settingDeprecation.locked = true;\n\t\t_settingDeprecation.migrated = true;\n\t\tuint256 _newSettingId = _settingDeprecation.pendingNewSettingId;\n\t\t_settingDeprecation.pendingNewSettingId = 0;\n\t\t_settingDeprecation.newSettingId = _newSettingId;\n\n\t\taddress _newSettingContractAddress = _settingDeprecation.pendingNewSettingContractAddress;\n\t\t_settingDeprecation.pendingNewSettingContractAddress = address(0);\n\t\t_settingDeprecation.newSettingContractAddress = _newSettingContractAddress;\n\t\treturn true;\n\t}\n\n\t/***** Internal Method *****/\n\t/**\n\t * @dev Store setting data/state\n\t * @param _settingId The ID of the setting\n\t * @param _creatorNameId The nameId that created the setting\n\t * @param _settingType The type of this setting. 1 => uint256, 2 => bool, 3 => address, 4 => bytes32, 5 => string\n\t * @param _settingName The human-readable name of the setting\n\t * @param _creatorThoughtId The thoughtId that created the setting\n\t * @param _associatedThoughtId The thoughtId that the setting affects\n\t * @param _extraData Catch-all string value to be stored if exist\n\t * @return true on success\n\t */\n\tfunction _storeSettingDataState(uint256 _settingId, address _creatorNameId, uint8 _settingType, string _settingName, address _creatorThoughtId, address _associatedThoughtId, string _extraData) internal returns (bool) {\n\t\t// Store setting data\n\t\tSettingData storage _settingData = settingDatas[_settingId];\n\t\t_settingData.settingId = _settingId;\n\t\t_settingData.creatorNameId = _creatorNameId;\n\t\t_settingData.creatorThoughtId = _creatorThoughtId;\n\t\t_settingData.associatedThoughtId = _associatedThoughtId;\n\t\t_settingData.settingName = _settingName;\n\t\t_settingData.settingType = _settingType;\n\t\t_settingData.pendingCreate = true;\n\t\t_settingData.locked = true;\n\t\t_settingData.settingDataJSON = _extraData;\n\n\t\t// Store setting state\n\t\tSettingState storage _settingState = settingStates[_settingId];\n\t\t_settingState.settingId = _settingId;\n\t\treturn true;\n\t}\n\n\t/**\n\t * @dev Store setting deprecation\n\t * @param _settingId The ID of the setting\n\t * @param _creatorNameId The nameId that created the setting\n\t * @param _creatorThoughtId The thoughtId that created the setting\n\t * @param _associatedThoughtId The thoughtId that the setting affects\n\t * @param _newSettingId The new settingId value to route\n\t * @param _newSettingContractAddress The address of the new setting contract to route\n\t * @return true on success\n\t */\n\tfunction _storeSettingDeprecation(uint256 _settingId, address _creatorNameId, address _creatorThoughtId, address _associatedThoughtId, uint256 _newSettingId, address _newSettingContractAddress) internal returns (bool) {\n\t\t// Make sure this setting exists\n\t\trequire (settingDatas[_settingId].creatorNameId != address(0) && settingDatas[_settingId].rejected == false && settingDatas[_settingId].pendingCreate == false);\n\n\t\t// Make sure deprecation is not yet exist for this setting Id\n\t\trequire (settingDeprecations[_settingId].creatorNameId == address(0));\n\n\t\t// Make sure newSettingId exists\n\t\trequire (settingDatas[_newSettingId].creatorNameId != address(0) && settingDatas[_newSettingId].rejected == false && settingDatas[_newSettingId].pendingCreate == false);\n\n\t\t// Make sure the settingType matches\n\t\trequire (settingDatas[_settingId].settingType == settingDatas[_newSettingId].settingType);\n\n\t\t// Store setting deprecation info\n\t\tSettingDeprecation storage _settingDeprecation = settingDeprecations[_settingId];\n\t\t_settingDeprecation.settingId = _settingId;\n\t\t_settingDeprecation.creatorNameId = _creatorNameId;\n\t\t_settingDeprecation.creatorThoughtId = _creatorThoughtId;\n\t\t_settingDeprecation.associatedThoughtId = _associatedThoughtId;\n\t\t_settingDeprecation.pendingDeprecated = true;\n\t\t_settingDeprecation.locked = true;\n\t\t_settingDeprecation.pendingNewSettingId = _newSettingId;\n\t\t_settingDeprecation.pendingNewSettingContractAddress = _newSettingContractAddress;\n\t\treturn true;\n\t}\n}\n",
	"sourcePath": "/home/jmulyono/ao-contracts/contracts/AOSettingAttribute.sol",
	"compiler": {
		"name": "solc",
		"version": "0.4.24+commit.e67f0147.Emscripten.clang"
	},
	"schemaVersion": "2.0.1",
	"updatedAt": "2018-12-11T08:43:54.448Z"
}