{
  "contractName": "AOStakedContent",
  "abi": [
    {
      "constant": true,
      "inputs": [],
      "name": "totalStakedContents",
      "outputs": [
        {
          "name": "",
          "type": "uint256"
        }
      ],
      "payable": false,
      "stateMutability": "view",
      "type": "function"
    },
    {
      "constant": true,
      "inputs": [],
      "name": "aoIonAddress",
      "outputs": [
        {
          "name": "",
          "type": "address"
        }
      ],
      "payable": false,
      "stateMutability": "view",
      "type": "function"
    },
    {
      "constant": true,
      "inputs": [],
      "name": "nameTAOPositionAddress",
      "outputs": [
        {
          "name": "",
          "type": "address"
        }
      ],
      "payable": false,
      "stateMutability": "view",
      "type": "function"
    },
    {
      "constant": true,
      "inputs": [],
      "name": "aoTreasuryAddress",
      "outputs": [
        {
          "name": "",
          "type": "address"
        }
      ],
      "payable": false,
      "stateMutability": "view",
      "type": "function"
    },
    {
      "constant": true,
      "inputs": [],
      "name": "aoContentAddress",
      "outputs": [
        {
          "name": "",
          "type": "address"
        }
      ],
      "payable": false,
      "stateMutability": "view",
      "type": "function"
    },
    {
      "constant": true,
      "inputs": [
        {
          "name": "",
          "type": "address"
        }
      ],
      "name": "whitelist",
      "outputs": [
        {
          "name": "",
          "type": "bool"
        }
      ],
      "payable": false,
      "stateMutability": "view",
      "type": "function"
    },
    {
      "constant": true,
      "inputs": [],
      "name": "theAO",
      "outputs": [
        {
          "name": "",
          "type": "address"
        }
      ],
      "payable": false,
      "stateMutability": "view",
      "type": "function"
    },
    {
      "inputs": [
        {
          "name": "_aoIonAddress",
          "type": "address"
        },
        {
          "name": "_aoTreasuryAddress",
          "type": "address"
        },
        {
          "name": "_aoContentAddress",
          "type": "address"
        },
        {
          "name": "_nameTAOPositionAddress",
          "type": "address"
        }
      ],
      "payable": false,
      "stateMutability": "nonpayable",
      "type": "constructor"
    },
    {
      "anonymous": false,
      "inputs": [
        {
          "indexed": true,
          "name": "stakeOwner",
          "type": "address"
        },
        {
          "indexed": true,
          "name": "stakedContentId",
          "type": "bytes32"
        },
        {
          "indexed": true,
          "name": "contentId",
          "type": "bytes32"
        },
        {
          "indexed": false,
          "name": "baseNetworkAmount",
          "type": "uint256"
        },
        {
          "indexed": false,
          "name": "primordialAmount",
          "type": "uint256"
        },
        {
          "indexed": false,
          "name": "primordialWeightedMultiplier",
          "type": "uint256"
        },
        {
          "indexed": false,
          "name": "profitPercentage",
          "type": "uint256"
        },
        {
          "indexed": false,
          "name": "createdOnTimestamp",
          "type": "uint256"
        }
      ],
      "name": "StakeContent",
      "type": "event"
    },
    {
      "anonymous": false,
      "inputs": [
        {
          "indexed": true,
          "name": "stakeOwner",
          "type": "address"
        },
        {
          "indexed": true,
          "name": "stakedContentId",
          "type": "bytes32"
        },
        {
          "indexed": false,
          "name": "newProfitPercentage",
          "type": "uint256"
        }
      ],
      "name": "SetProfitPercentage",
      "type": "event"
    },
    {
      "anonymous": false,
      "inputs": [
        {
          "indexed": true,
          "name": "stakeOwner",
          "type": "address"
        },
        {
          "indexed": true,
          "name": "stakedContentId",
          "type": "bytes32"
        },
        {
          "indexed": true,
          "name": "contentId",
          "type": "bytes32"
        },
        {
          "indexed": false,
          "name": "remainingNetworkAmount",
          "type": "uint256"
        },
        {
          "indexed": false,
          "name": "remainingPrimordialAmount",
          "type": "uint256"
        },
        {
          "indexed": false,
          "name": "primordialWeightedMultiplier",
          "type": "uint256"
        }
      ],
      "name": "UnstakePartialContent",
      "type": "event"
    },
    {
      "anonymous": false,
      "inputs": [
        {
          "indexed": true,
          "name": "stakeOwner",
          "type": "address"
        },
        {
          "indexed": true,
          "name": "stakedContentId",
          "type": "bytes32"
        }
      ],
      "name": "UnstakeContent",
      "type": "event"
    },
    {
      "anonymous": false,
      "inputs": [
        {
          "indexed": true,
          "name": "stakeOwner",
          "type": "address"
        },
        {
          "indexed": true,
          "name": "stakedContentId",
          "type": "bytes32"
        },
        {
          "indexed": true,
          "name": "contentId",
          "type": "bytes32"
        },
        {
          "indexed": false,
          "name": "currentNetworkAmount",
          "type": "uint256"
        },
        {
          "indexed": false,
          "name": "currentPrimordialAmount",
          "type": "uint256"
        },
        {
          "indexed": false,
          "name": "currentPrimordialWeightedMultiplier",
          "type": "uint256"
        }
      ],
      "name": "StakeExistingContent",
      "type": "event"
    },
    {
      "constant": false,
      "inputs": [
        {
          "name": "_theAO",
          "type": "address"
        }
      ],
      "name": "transferOwnership",
      "outputs": [],
      "payable": false,
      "stateMutability": "nonpayable",
      "type": "function"
    },
    {
      "constant": false,
      "inputs": [
        {
          "name": "_account",
          "type": "address"
        },
        {
          "name": "_whitelist",
          "type": "bool"
        }
      ],
      "name": "setWhitelist",
      "outputs": [],
      "payable": false,
      "stateMutability": "nonpayable",
      "type": "function"
    },
    {
      "constant": false,
      "inputs": [
        {
          "name": "_aoIonAddress",
          "type": "address"
        }
      ],
      "name": "setAOIonAddress",
      "outputs": [],
      "payable": false,
      "stateMutability": "nonpayable",
      "type": "function"
    },
    {
      "constant": false,
      "inputs": [
        {
          "name": "_aoTreasuryAddress",
          "type": "address"
        }
      ],
      "name": "setAOTreasuryAddress",
      "outputs": [],
      "payable": false,
      "stateMutability": "nonpayable",
      "type": "function"
    },
    {
      "constant": false,
      "inputs": [
        {
          "name": "_aoContentAddress",
          "type": "address"
        }
      ],
      "name": "setAOContentAddress",
      "outputs": [],
      "payable": false,
      "stateMutability": "nonpayable",
      "type": "function"
    },
    {
      "constant": false,
      "inputs": [
        {
          "name": "_nameTAOPositionAddress",
          "type": "address"
        }
      ],
      "name": "setNameTAOPositionAddress",
      "outputs": [],
      "payable": false,
      "stateMutability": "nonpayable",
      "type": "function"
    },
    {
      "constant": false,
      "inputs": [
        {
          "name": "_stakeOwner",
          "type": "address"
        },
        {
          "name": "_contentId",
          "type": "bytes32"
        },
        {
          "name": "_networkIntegerAmount",
          "type": "uint256"
        },
        {
          "name": "_networkFractionAmount",
          "type": "uint256"
        },
        {
          "name": "_denomination",
          "type": "bytes8"
        },
        {
          "name": "_primordialAmount",
          "type": "uint256"
        },
        {
          "name": "_profitPercentage",
          "type": "uint256"
        }
      ],
      "name": "create",
      "outputs": [
        {
          "name": "",
          "type": "bytes32"
        }
      ],
      "payable": false,
      "stateMutability": "nonpayable",
      "type": "function"
    },
    {
      "constant": false,
      "inputs": [
        {
          "name": "_stakedContentId",
          "type": "bytes32"
        },
        {
          "name": "_profitPercentage",
          "type": "uint256"
        }
      ],
      "name": "setProfitPercentage",
      "outputs": [],
      "payable": false,
      "stateMutability": "nonpayable",
      "type": "function"
    },
    {
      "constant": true,
      "inputs": [
        {
          "name": "_stakedContentId",
          "type": "bytes32"
        }
      ],
      "name": "getById",
      "outputs": [
        {
          "name": "",
          "type": "bytes32"
        },
        {
          "name": "",
          "type": "address"
        },
        {
          "name": "",
          "type": "uint256"
        },
        {
          "name": "",
          "type": "uint256"
        },
        {
          "name": "",
          "type": "uint256"
        },
        {
          "name": "",
          "type": "uint256"
        },
        {
          "name": "",
          "type": "bool"
        },
        {
          "name": "",
          "type": "uint256"
        }
      ],
      "payable": false,
      "stateMutability": "view",
      "type": "function"
    },
    {
      "constant": false,
      "inputs": [
        {
          "name": "_stakedContentId",
          "type": "bytes32"
        },
        {
          "name": "_networkIntegerAmount",
          "type": "uint256"
        },
        {
          "name": "_networkFractionAmount",
          "type": "uint256"
        },
        {
          "name": "_denomination",
          "type": "bytes8"
        },
        {
          "name": "_primordialAmount",
          "type": "uint256"
        }
      ],
      "name": "unstakePartialContent",
      "outputs": [],
      "payable": false,
      "stateMutability": "nonpayable",
      "type": "function"
    },
    {
      "constant": false,
      "inputs": [
        {
          "name": "_stakedContentId",
          "type": "bytes32"
        }
      ],
      "name": "unstakeContent",
      "outputs": [],
      "payable": false,
      "stateMutability": "nonpayable",
      "type": "function"
    },
    {
      "constant": false,
      "inputs": [
        {
          "name": "_stakedContentId",
          "type": "bytes32"
        },
        {
          "name": "_networkIntegerAmount",
          "type": "uint256"
        },
        {
          "name": "_networkFractionAmount",
          "type": "uint256"
        },
        {
          "name": "_denomination",
          "type": "bytes8"
        },
        {
          "name": "_primordialAmount",
          "type": "uint256"
        }
      ],
      "name": "stakeExistingContent",
      "outputs": [],
      "payable": false,
      "stateMutability": "nonpayable",
      "type": "function"
    },
    {
      "constant": true,
      "inputs": [
        {
          "name": "_stakedContentId",
          "type": "bytes32"
        }
      ],
      "name": "isActive",
      "outputs": [
        {
          "name": "",
          "type": "bool"
        }
      ],
      "payable": false,
      "stateMutability": "view",
      "type": "function"
    }
  ],
  "bytecode": "0x60806040523480156200001157600080fd5b5060405160808062002c10833981018060405260808110156200003357600080fd5b5080516020808301516040840151606090940151600080546001600160a01b0319163317905592939092909162000070908590620000ad811b901c565b6200008183620001ae60201b60201c565b6200009282620002af60201b60201c565b620000a381620003b060201b60201c565b50505050620004a7565b600054600154604080517ff66afcac0000000000000000000000000000000000000000000000000000000081523360048201526001600160a01b0393841660248201529290911660448301525173__AOLibrary_____________________________9163f66afcac916064808301926020929190829003018186803b1580156200013657600080fd5b505af41580156200014b573d6000803e3d6000fd5b505050506040513d60208110156200016257600080fd5b50516200016e57600080fd5b6001600160a01b0381166200018257600080fd5b600480546001600160a01b039092166001600160a01b0319928316811790915560078054909216179055565b600054600154604080517ff66afcac0000000000000000000000000000000000000000000000000000000081523360048201526001600160a01b0393841660248201529290911660448301525173__AOLibrary_____________________________9163f66afcac916064808301926020929190829003018186803b1580156200023757600080fd5b505af41580156200024c573d6000803e3d6000fd5b505050506040513d60208110156200026357600080fd5b50516200026f57600080fd5b6001600160a01b0381166200028357600080fd5b600580546001600160a01b039092166001600160a01b0319928316811790915560088054909216179055565b600054600154604080517ff66afcac0000000000000000000000000000000000000000000000000000000081523360048201526001600160a01b0393841660248201529290911660448301525173__AOLibrary_____________________________9163f66afcac916064808301926020929190829003018186803b1580156200033857600080fd5b505af41580156200034d573d6000803e3d6000fd5b505050506040513d60208110156200036457600080fd5b50516200037057600080fd5b6001600160a01b0381166200038457600080fd5b600680546001600160a01b039092166001600160a01b0319928316811790915560098054909216179055565b600054600154604080517ff66afcac0000000000000000000000000000000000000000000000000000000081523360048201526001600160a01b0393841660248201529290911660448301525173__AOLibrary_____________________________9163f66afcac916064808301926020929190829003018186803b1580156200043957600080fd5b505af41580156200044e573d6000803e3d6000fd5b505050506040513d60208110156200046557600080fd5b50516200047157600080fd5b6001600160a01b0381166200048557600080fd5b600180546001600160a01b0319166001600160a01b0392909216919091179055565b61275980620004b76000396000f3fe608060405234801561001057600080fd5b506004361061012c5760003560e01c806385cb86c8116100ad578063b380b0d411610071578063b380b0d414610383578063c3db397f146103a6578063e6ab96ed146103e5578063f2fde38b14610402578063f97106b5146104285761012c565b806385cb86c8146102d357806389a83246146102db5780639789f617146103015780639b19251a14610355578063a9b6b38e1461037b5761012c565b806353d6fd59116100f457806353d6fd59146102075780635c36901c146102355780635cfaf2ef146102665780635f7b99ea1461028c57806370660f7c146102945761012c565b806307a8385e14610131578063202352f7146101595780632dff0d0d146101735780633c56b011146101db5780634ef033f0146101ff575b600080fd5b6101576004803603602081101561014757600080fd5b50356001600160a01b031661044e565b005b610161610534565b60408051918252519081900360200190f35b6101906004803603602081101561018957600080fd5b503561053a565b604080519889526001600160a01b039097166020890152878701959095526060870193909352608086019190915260a0850152151560c084015260e083015251908190036101000190f35b6101e361061c565b604080516001600160a01b039092168252519081900360200190f35b6101e361062b565b6101576004803603604081101561021d57600080fd5b506001600160a01b038135169060200135151561063a565b6102526004803603602081101561024b57600080fd5b503561071f565b604080519115158252519081900360200190f35b6101576004803603602081101561027c57600080fd5b50356001600160a01b0316610805565b6101e36108e1565b610157600480360360a08110156102aa57600080fd5b508035906020810135906040810135906001600160c01b031960608201351690608001356108f0565b6101e3610f8c565b610157600480360360208110156102f157600080fd5b50356001600160a01b0316610f9b565b610161600480360360e081101561031757600080fd5b506001600160a01b03813516906020810135906040810135906060810135906001600160c01b03196080820135169060a08101359060c00135611081565b6102526004803603602081101561036b57600080fd5b50356001600160a01b031661150e565b6101e3611523565b6101576004803603604081101561039957600080fd5b5080359060200135611532565b610157600480360360a08110156103bc57600080fd5b508035906020810135906040810135906001600160c01b031960608201351690608001356116c6565b610157600480360360208110156103fb57600080fd5b5035611bfc565b6101576004803603602081101561041857600080fd5b50356001600160a01b0316611e6d565b6101576004803603602081101561043e57600080fd5b50356001600160a01b0316611f49565b60005460015460408051600160e21b633d9abf2b0281523360048201526001600160a01b0393841660248201529290911660448301525173__AOLibrary_____________________________9163f66afcac916064808301926020929190829003018186803b1580156104c057600080fd5b505af41580156104d4573d6000803e3d6000fd5b505050506040513d60208110156104ea57600080fd5b50516104f557600080fd5b6001600160a01b03811661050857600080fd5b600580546001600160a01b039092166001600160a01b0319928316811790915560088054909216179055565b60035481565b6000806000806000806000806000600b60008b8152602001908152602001600020541161056657600080fd5b61056e6126e1565b50505060009687525050600b60209081526040808720548752600a82529586902086516101208101885281548152600182015492810183905260028201546001600160a01b0316978101889052600382015460608201819052600483015460808301819052600584015460a08401819052600685015460c08501819052600786015460ff16151560e08601819052600890960154610100909501859052959b92995090975095509293509091565b6004546001600160a01b031681565b6001546001600160a01b031681565b60005460015460408051600160e21b633d9abf2b0281523360048201526001600160a01b0393841660248201529290911660448301525173__AOLibrary_____________________________9163f66afcac916064808301926020929190829003018186803b1580156106ac57600080fd5b505af41580156106c0573d6000803e3d6000fd5b505050506040513d60208110156106d657600080fd5b50516106e157600080fd5b6001600160a01b0382166106f457600080fd5b6001600160a01b03919091166000908152600260205260409020805460ff1916911515919091179055565b6000818152600b602052604081205461073757600080fd5b61073f6126e1565b506000828152600b60209081526040808320548352600a825291829020825161012081018452815481526001808301549382019390935260028201546001600160a01b0316938101939093526003810154606084015260048101546080840152600581015460a0840152600681015460c0840152600781015460ff16151560e084018190526008909101546101008401521480156107fe57506000816060015111806107fe5750600081608001511180156107fe575060008160a00151115b9392505050565b60005460015460408051600160e21b633d9abf2b0281523360048201526001600160a01b0393841660248201529290911660448301525173__AOLibrary_____________________________9163f66afcac916064808301926020929190829003018186803b15801561087757600080fd5b505af415801561088b573d6000803e3d6000fd5b505050506040513d60208110156108a157600080fd5b50516108ac57600080fd5b6001600160a01b0381166108bf57600080fd5b600180546001600160a01b0319166001600160a01b0392909216919091179055565b6005546001600160a01b031681565b6000858152600b602052604090205461090857600080fd5b6000858152600b60209081526040808320548352600a90915280822060095460018201548351600160e01b632dff0d0d028152600481019190915292519193926001600160a01b0390911691632dff0d0d916024808201928692909190829003018186803b15801561097957600080fd5b505afa15801561098d573d6000803e3d6000fd5b505050506040513d6000823e601f3d908101601f191682016040526101208110156109b757600080fd5b8151602083015160408401516060850151608086015160a087015160c088015160e08901516101008a018051989a9799969895979496939592949193820192640100000000811115610a0857600080fd5b82016020810184811115610a1b57600080fd5b8151640100000000811182820187101715610a3557600080fd5b50505060028d0154999b505050506001600160a01b039690961633149650610a639550505050505057600080fd5b6000861180610a725750600085115b80610a7d5750600083115b610a8657600080fd5b600954600183015460408051600160e11b6332e78567028152600481019290925251610b2c926001600160a01b0316916365cf0ace916024808301926020929190829003018186803b158015610adb57600080fd5b505afa158015610aef573d6000803e3d6000fd5b505050506040513d6020811015610b0557600080fd5b5051600484015460038501548491610b23919063ffffffff61202f16565b89898989612042565b610b3557600080fd5b600083118015610b495750600782015460ff165b8015610b59575060008260040154115b8015610b69575060008260050154115b15610bf757600582015460075460408051600160e31b6305037b5f02815233600482015290516001600160a01b039092169163281bdaf891602480820192602092909190829003018186803b158015610bc157600080fd5b505afa158015610bd5573d6000803e3d6000fd5b505050506040513d6020811015610beb57600080fd5b505114610bf757600080fd5b60078201805460ff1916600117905560085460408051600160e01b6390358f5d0281526001600160c01b03198716600482015290516001600160a01b03909216916390358f5d91602480820192602092909190829003018186803b158015610c5e57600080fd5b505afa158015610c72573d6000803e3d6000fd5b505050506040513d6020811015610c8857600080fd5b50518015610ca057506000861180610ca05750600085115b15610de95760085460408051600160e31b63042fb71d02815260048101899052602481018890526001600160c01b03198716604482015290516000926001600160a01b03169163217db8e8916064808301926020929190829003018186803b158015610d0b57600080fd5b505afa158015610d1f573d6000803e3d6000fd5b505050506040513d6020811015610d3557600080fd5b50516003840154909150610d4f908263ffffffff61202f16565b6003840155600754600284015460408051600160e01b6331a8aeb30281526001600160a01b03928316600482015260248101859052905191909216916331a8aeb39160448083019260209291908290030181600087803b158015610db257600080fd5b505af1158015610dc6573d6000803e3d6000fd5b505050506040513d6020811015610ddc57600080fd5b5051610de757600080fd5b505b8215610f2c576004820154610e04908463ffffffff61202f16565b600480840191909155600754600284015460408051600160e31b6305037b5f0281526001600160a01b03928316948101949094525191169163281bdaf8916024808301926020929190829003018186803b158015610e6157600080fd5b505afa158015610e75573d6000803e3d6000fd5b505050506040513d6020811015610e8b57600080fd5b505160058301819055600754600284015460408051600160e01b6318ff5c510281526001600160a01b039283166004820152602481018890526044810194909452519116916318ff5c519160648083019260209291908290030181600087803b158015610ef757600080fd5b505af1158015610f0b573d6000803e3d6000fd5b505050506040513d6020811015610f2157600080fd5b5051610f2c57600080fd5b60018201548254600384015460048501546005860154604080519384526020840192909252828201525133917f7fa32f70b286f05be6f001e570ad7f2e82d767dc5ec7f8e0e585414189184224919081900360600190a450505050505050565b6006546001600160a01b031681565b60005460015460408051600160e21b633d9abf2b0281523360048201526001600160a01b0393841660248201529290911660448301525173__AOLibrary_____________________________9163f66afcac916064808301926020929190829003018186803b15801561100d57600080fd5b505af4158015611021573d6000803e3d6000fd5b505050506040513d602081101561103757600080fd5b505161104257600080fd5b6001600160a01b03811661105557600080fd5b600680546001600160a01b039092166001600160a01b0319928316811790915560098054909216179055565b3360009081526002602052604081205460ff1615156001146110a257600080fd5b6110b188888888888888612187565b6110ba57600080fd5b60038054600101908190556040805130606090811b6020808401919091526001600160a01b03808e1690921b603484015260488084018d905284518085039091018152606890930184528251928101929092206000948552600a9092529190922060028101549091161561112d57600080fd5b81815560018082018a90556002820180546001600160a01b0319166001600160a01b038d8116919091179091556006830186905560078301805460ff1916909217909155426008808401919091555460408051600160e01b6390358f5d0281526001600160c01b03198a166004820152905191909216916390358f5d916024808301926020929190829003018186803b1580156111c957600080fd5b505afa1580156111dd573d6000803e3d6000fd5b505050506040513d60208110156111f357600080fd5b5051801561120b5750600088118061120b5750600087115b156113395760085460408051600160e31b63042fb71d028152600481018b9052602481018a90526001600160c01b03198916604482015290516001600160a01b039092169163217db8e891606480820192602092909190829003018186803b15801561127657600080fd5b505afa15801561128a573d6000803e3d6000fd5b505050506040513d60208110156112a057600080fd5b50516003820181905560075460408051600160e01b6331a8aeb30281526001600160a01b038e811660048301526024820194909452905192909116916331a8aeb3916044808201926020929091908290030181600087803b15801561130457600080fd5b505af1158015611318573d6000803e3d6000fd5b505050506040513d602081101561132e57600080fd5b505161133957600080fd5b8415611466576004808201869055600754600283015460408051600160e31b6305037b5f0281526001600160a01b03928316948101949094525191169163281bdaf8916024808301926020929190829003018186803b15801561139b57600080fd5b505afa1580156113af573d6000803e3d6000fd5b505050506040513d60208110156113c557600080fd5b505160058201819055600754600283015460408051600160e01b6318ff5c510281526001600160a01b039283166004820152602481018a90526044810194909452519116916318ff5c519160648083019260209291908290030181600087803b15801561143157600080fd5b505af1158015611445573d6000803e3d6000fd5b505050506040513d602081101561145b57600080fd5b505161146657600080fd5b600380546000848152600b6020908152604091829020929092556001840154845460028601549486015460048701546005880154600689015460088a015487519485529784019290925282860152606082015260808101949094529151909391926001600160a01b03909216917f8e4070fcd0119c9df9d24fa5f6be85f7b7951b6b226bea5b3509e5a97b03b687919081900360a00190a4549150505b979650505050505050565b60026020526000908152604090205460ff1681565b6000546001600160a01b031681565b73__AOLibrary_____________________________63caf297656040518163ffffffff1660e01b815260040160206040518083038186803b15801561157657600080fd5b505af415801561158a573d6000803e3d6000fd5b505050506040513d60208110156115a057600080fd5b50518111156115ae57600080fd5b6000828152600b60205260409020546115c657600080fd5b6000828152600b60209081526040808320548352600a909152902060028101546001600160a01b031633146115fa57600080fd5b600954600182015460408051600160e11b6332e785670281526004810192909252516001600160a01b03909216916365cf0ace91602480820192602092909190829003018186803b15801561164e57600080fd5b505afa158015611662573d6000803e3d6000fd5b505050506040513d602081101561167857600080fd5b505161168357600080fd5b60068101829055604080518381529051849133917f6c4a0cfd4af9f173dec0ac350616d6c855be630c8c83b3cd18879ad5a6bf6d299181900360200190a3505050565b6000858152600b60205260409020546116de57600080fd5b60008411806116ed5750600083115b806116f85750600081115b61170157600080fd5b6000858152600b60209081526040808320548352600a90915280822060095460018201548351600160e01b632dff0d0d028152600481019190915292519193926001600160a01b0390911691632dff0d0d916024808201928692909190829003018186803b15801561177257600080fd5b505afa158015611786573d6000803e3d6000fd5b505050506040513d6000823e601f3d908101601f191682016040526101208110156117b057600080fd5b8151602083015160408401516060850151608086015160a087015160c088015160e08901516101008a018051989a979996989597949693959294919382019264010000000081111561180157600080fd5b8201602081018481111561181457600080fd5b815164010000000081118282018710171561182e57600080fd5b50505060028d0154999b505050506001600160a01b03969096163314965061185c9550505050505057600080fd5b306001600160a01b0316635c36901c886040518263ffffffff1660e01b81526004018082815260200191505060206040518083038186803b1580156118a057600080fd5b505afa1580156118b4573d6000803e3d6000fd5b505050506040513d60208110156118ca57600080fd5b50516118d557600080fd5b6118ec8686868686600301548760040154876124f4565b6118f557600080fd5b60085460408051600160e01b6390358f5d0281526001600160c01b03198716600482015290516001600160a01b03909216916390358f5d91602480820192602092909190829003018186803b15801561194d57600080fd5b505afa158015611961573d6000803e3d6000fd5b505050506040513d602081101561197757600080fd5b5051801561198f5750600086118061198f5750600085115b15611ad15760085460408051600160e31b63042fb71d02815260048101899052602481018890526001600160c01b03198716604482015290516000926001600160a01b03169163217db8e8916064808301926020929190829003018186803b1580156119fa57600080fd5b505afa158015611a0e573d6000803e3d6000fd5b505050506040513d6020811015611a2457600080fd5b50516003840154909150611a3e908263ffffffff6126cf16565b600384015560075460408051600160e11b63398d1d830281523360048201526024810184905290516001600160a01b039092169163731a3b06916044808201926020929091908290030181600087803b158015611a9a57600080fd5b505af1158015611aae573d6000803e3d6000fd5b505050506040513d6020811015611ac457600080fd5b5051611acf57600080fd5b505b8215611b8e576004820154611aec908463ffffffff6126cf16565b600480840191909155600754600584015460408051600160e01b63f81eb76d0281523394810194909452602484018790526044840191909152516001600160a01b039091169163f81eb76d9160648083019260209291908290030181600087803b158015611b5957600080fd5b505af1158015611b6d573d6000803e3d6000fd5b505050506040513d6020811015611b8357600080fd5b5051611b8e57600080fd5b60018201548254600284015460038501546004860154600587015460408051938452602084019290925282820152516001600160a01b03909216917f645f75eb984f0b89f1e9887da267d2025a37764e7bd6537b7d7eff900e8725eb9181900360600190a450505050505050565b6000818152600b6020526040902054611c1457600080fd5b6000818152600b60209081526040808320548352600a909152902060028101546001600160a01b03163314611c4857600080fd5b306001600160a01b0316635c36901c836040518263ffffffff1660e01b81526004018082815260200191505060206040518083038186803b158015611c8c57600080fd5b505afa158015611ca0573d6000803e3d6000fd5b505050506040513d6020811015611cb657600080fd5b5051611cc157600080fd5b60078101805460ff19169055600381015415611d745760038101805460009182905560075460408051600160e11b63398d1d8302815233600482015260248101849052905192936001600160a01b039092169263731a3b0692604480840193602093929083900390910190829087803b158015611d3d57600080fd5b505af1158015611d51573d6000803e3d6000fd5b505050506040513d6020811015611d6757600080fd5b5051611d7257600080fd5b505b600481015415611e3057600480820180546005840180546000938490559083905560075460408051600160e01b63f81eb76d0281523396810196909652602486018490526044860183905251929491936001600160a01b039091169263f81eb76d926064808201936020939283900390910190829087803b158015611df857600080fd5b505af1158015611e0c573d6000803e3d6000fd5b505050506040513d6020811015611e2257600080fd5b5051611e2d57600080fd5b50505b600281015460405183916001600160a01b0316907eeb6a306a149d2ec8a5e5f228483a31d06863f4cd48237ddf5c1c236805def890600090a35050565b60005460015460408051600160e21b633d9abf2b0281523360048201526001600160a01b0393841660248201529290911660448301525173__AOLibrary_____________________________9163f66afcac916064808301926020929190829003018186803b158015611edf57600080fd5b505af4158015611ef3573d6000803e3d6000fd5b505050506040513d6020811015611f0957600080fd5b5051611f1457600080fd5b6001600160a01b038116611f2757600080fd5b600080546001600160a01b0319166001600160a01b0392909216919091179055565b60005460015460408051600160e21b633d9abf2b0281523360048201526001600160a01b0393841660248201529290911660448301525173__AOLibrary_____________________________9163f66afcac916064808301926020929190829003018186803b158015611fbb57600080fd5b505af4158015611fcf573d6000803e3d6000fd5b505050506040513d6020811015611fe557600080fd5b5051611ff057600080fd5b6001600160a01b03811661200357600080fd5b600480546001600160a01b039092166001600160a01b0319928316811790915560078054909216179055565b8181018281101561203c57fe5b92915050565b6000871561210b5760085460408051600160e31b63042fb71d02815260048101889052602481018790526001600160c01b03198616604482015290518992612102928a926120f69288926001600160a01b039091169163217db8e891606480820192602092909190829003018186803b1580156120be57600080fd5b505afa1580156120d2573d6000803e3d6000fd5b505050506040513d60208110156120e857600080fd5b50519063ffffffff61202f16565b9063ffffffff61202f16565b10159050611503565b60085460408051600160e31b63042fb71d02815260048101889052602481018790526001600160c01b0319861660448201529051899261217f928a926120f69288926001600160a01b039091169163217db8e891606480820192602092909190829003018186803b1580156120be57600080fd5b149050611503565b60095460408051600160e01b632dff0d0d028152600481018990529051600092839283926001600160a01b0390921691632dff0d0d916024808201928692909190829003018186803b1580156121dc57600080fd5b505afa1580156121f0573d6000803e3d6000fd5b505050506040513d6000823e601f3d908101601f1916820160405261012081101561221a57600080fd5b8151602083015160408401516060850151608086015160a087015160c088015160e08901516101008a018051989a979996989597949693959294919382019264010000000081111561226b57600080fd5b8201602081018481111561227e57600080fd5b815164010000000081118282018710171561229857600080fd5b5050929190505050505050505050509150915060006001600160a01b03168a6001600160a01b0316141580156122df5750816001600160a01b03168a6001600160a01b0316145b8015612300575060008811806122f55750600087115b806123005750600085115b801561246b575060095460408051600160e11b6332e78567028152600481018c905290516001600160a01b03909216916365cf0ace91602480820192602092909190829003018186803b15801561235657600080fd5b505afa15801561236a573d6000803e3d6000fd5b505050506040513d602081101561238057600080fd5b50516123fa5760085460408051600160e31b63042fb71d028152600481018b9052602481018a90526001600160c01b031989166044820152905183926123f49289926001600160a01b039092169163217db8e891606480820192602092909190829003018186803b1580156120be57600080fd5b1461246b565b60085460408051600160e31b63042fb71d028152600481018b9052602481018a90526001600160c01b031989166044820152905183926124689289926001600160a01b039092169163217db8e891606480820192602092909190829003018186803b1580156120be57600080fd5b10155b80156124e6575073__AOLibrary_____________________________63caf297656040518163ffffffff1660e01b815260040160206040518083038186803b1580156124b657600080fd5b505af41580156124ca573d6000803e3d6000fd5b505050506040513d60208110156124e057600080fd5b50518411155b9a9950505050505050505050565b60008560001a60f81b6001600160f81b0319161580159061251f5750600088118061251f5750600087115b80156125bb575060085460408051600160e31b63042fb71d028152600481018b9052602481018a90526001600160c01b03198916604482015290516001600160a01b039092169163217db8e891606480820192602092909190829003018186803b15801561258c57600080fd5b505afa1580156125a0573d6000803e3d6000fd5b505050506040513d60208110156125b657600080fd5b505184105b806125c557508483105b806126b157508560001a60f81b6001600160f81b031916158015906125f4575060008811806125f45750600087115b80156126b15750816126af61260f858863ffffffff6126cf16565b60085460408051600160e31b63042fb71d028152600481018e9052602481018d90526001600160c01b03198c16604482015290516120f6926001600160a01b03169163217db8e8916064808301926020929190829003018186803b15801561267657600080fd5b505afa15801561268a573d6000803e3d6000fd5b505050506040513d60208110156126a057600080fd5b5051889063ffffffff6126cf16565b105b806126ba575060005b156126c757506000611503565b506001611503565b6000828211156126db57fe5b50900390565b6040805161012081018252600080825260208201819052918101829052606081018290526080810182905260a0810182905260c0810182905260e081018290526101008101919091529056fea165627a7a723058200473217a6c100f89131501e921d1d4ca7de3296ae6f7525a626033a58bb2c42e0029",
  "source": "pragma solidity >=0.5.4 <0.6.0;\n\nimport './SafeMath.sol';\nimport './AOLibrary.sol';\nimport './TheAO.sol';\nimport './IAOStakedContent.sol';\nimport './AOIon.sol';\nimport './IAOTreasury.sol';\nimport './IAOContent.sol';\n\n/**\n * @title AOStakedContent\n */\ncontract AOStakedContent is TheAO, IAOStakedContent {\n\tusing SafeMath for uint256;\n\n\tuint256 public totalStakedContents;\n\taddress public aoIonAddress;\n\taddress public aoTreasuryAddress;\n\taddress public aoContentAddress;\n\n\tAOIon internal _aoIon;\n\tIAOTreasury internal _aoTreasury;\n\tIAOContent internal _aoContent;\n\n\tstruct StakedContent {\n\t\tbytes32 stakedContentId;\n\t\tbytes32 contentId;\n\t\taddress stakeOwner;\n\t\tuint256 networkAmount;\t\t// total network ion staked in base denomination\n\t\tuint256 primordialAmount;\t// the amount of primordial AOIon to stake (always in base denomination)\n\t\tuint256 primordialWeightedMultiplier;\n\t\tuint256 profitPercentage;\t// support up to 4 decimals, 100% = 1000000\n\t\tbool active;\t// true if currently staked, false when unstaked\n\t\tuint256 createdOnTimestamp;\n\t}\n\n\t// Mapping from StakedContent index to the StakedContent object\n\tmapping (uint256 => StakedContent) internal stakedContents;\n\n\t// Mapping from StakedContent ID to index of the stakedContents list\n\tmapping (bytes32 => uint256) internal stakedContentIndex;\n\n\t// Event to be broadcasted to public when `stakeOwner` stakes a new content\n\tevent StakeContent(\n\t\taddress indexed stakeOwner,\n\t\tbytes32 indexed stakedContentId,\n\t\tbytes32 indexed contentId,\n\t\tuint256 baseNetworkAmount,\n\t\tuint256 primordialAmount,\n\t\tuint256 primordialWeightedMultiplier,\n\t\tuint256 profitPercentage,\n\t\tuint256 createdOnTimestamp\n\t);\n\n\t// Event to be broadcasted to public when `stakeOwner` updates the staked content's profit percentage\n\tevent SetProfitPercentage(address indexed stakeOwner, bytes32 indexed stakedContentId, uint256 newProfitPercentage);\n\n\t// Event to be broadcasted to public when `stakeOwner` unstakes some network/primordial ion from an existing content\n\tevent UnstakePartialContent(\n\t\taddress indexed stakeOwner,\n\t\tbytes32 indexed stakedContentId,\n\t\tbytes32 indexed contentId,\n\t\tuint256 remainingNetworkAmount,\n\t\tuint256 remainingPrimordialAmount,\n\t\tuint256 primordialWeightedMultiplier\n\t);\n\n\t// Event to be broadcasted to public when `stakeOwner` unstakes all ion amount on an existing content\n\tevent UnstakeContent(address indexed stakeOwner, bytes32 indexed stakedContentId);\n\n\t// Event to be broadcasted to public when `stakeOwner` re-stakes an existing content\n\tevent StakeExistingContent(\n\t\taddress indexed stakeOwner,\n\t\tbytes32 indexed stakedContentId,\n\t\tbytes32 indexed contentId,\n\t\tuint256 currentNetworkAmount,\n\t\tuint256 currentPrimordialAmount,\n\t\tuint256 currentPrimordialWeightedMultiplier\n\t);\n\n\t/**\n\t * @dev Constructor function\n\t * @param _aoIonAddress The address of AOIon\n\t * @param _aoTreasuryAddress The address of AOTreasury\n\t * @param _aoContentAddress The address of AOContent\n\t * @param _nameTAOPositionAddress The address of NameTAOPosition\n\t */\n\tconstructor(address _aoIonAddress, address _aoTreasuryAddress, address _aoContentAddress, address _nameTAOPositionAddress) public {\n\t\tsetAOIonAddress(_aoIonAddress);\n\t\tsetAOTreasuryAddress(_aoTreasuryAddress);\n\t\tsetAOContentAddress(_aoContentAddress);\n\t\tsetNameTAOPositionAddress(_nameTAOPositionAddress);\n\t}\n\n\t/**\n\t * @dev Checks if the calling contract address is The AO\n\t *\t\tOR\n\t *\t\tIf The AO is set to a Name/TAO, then check if calling address is the Advocate\n\t */\n\tmodifier onlyTheAO {\n\t\trequire (AOLibrary.isTheAO(msg.sender, theAO, nameTAOPositionAddress));\n\t\t_;\n\t}\n\n\t/***** The AO ONLY METHODS *****/\n\t/**\n\t * @dev Transfer ownership of The AO to new address\n\t * @param _theAO The new address to be transferred\n\t */\n\tfunction transferOwnership(address _theAO) public onlyTheAO {\n\t\trequire (_theAO != address(0));\n\t\ttheAO = _theAO;\n\t}\n\n\t/**\n\t * @dev Whitelist `_account` address to transact on behalf of others\n\t * @param _account The address to whitelist\n\t * @param _whitelist Either to whitelist or not\n\t */\n\tfunction setWhitelist(address _account, bool _whitelist) public onlyTheAO {\n\t\trequire (_account != address(0));\n\t\twhitelist[_account] = _whitelist;\n\t}\n\n\t/**\n\t * @dev The AO sets AOIon address\n\t * @param _aoIonAddress The address of AOIon\n\t */\n\tfunction setAOIonAddress(address _aoIonAddress) public onlyTheAO {\n\t\trequire (_aoIonAddress != address(0));\n\t\taoIonAddress = _aoIonAddress;\n\t\t_aoIon = AOIon(_aoIonAddress);\n\t}\n\n\t/**\n\t * @dev The AO sets AOTreasury address\n\t * @param _aoTreasuryAddress The address of AOTreasury\n\t */\n\tfunction setAOTreasuryAddress(address _aoTreasuryAddress) public onlyTheAO {\n\t\trequire (_aoTreasuryAddress != address(0));\n\t\taoTreasuryAddress = _aoTreasuryAddress;\n\t\t_aoTreasury = IAOTreasury(_aoTreasuryAddress);\n\t}\n\n\t/**\n\t * @dev The AO sets AO Content address\n\t * @param _aoContentAddress The address of AOContent\n\t */\n\tfunction setAOContentAddress(address _aoContentAddress) public onlyTheAO {\n\t\trequire (_aoContentAddress != address(0));\n\t\taoContentAddress = _aoContentAddress;\n\t\t_aoContent = IAOContent(_aoContentAddress);\n\t}\n\n\t/**\n\t * @dev The AO sets NameTAOPosition address\n\t * @param _nameTAOPositionAddress The address of NameTAOPosition\n\t */\n\tfunction setNameTAOPositionAddress(address _nameTAOPositionAddress) public onlyTheAO {\n\t\trequire (_nameTAOPositionAddress != address(0));\n\t\tnameTAOPositionAddress = _nameTAOPositionAddress;\n\t}\n\n\t/***** PUBLIC METHODS *****/\n\t/**\n\t * @dev Stake the content\n\t * @param _stakeOwner the address that stake the content\n\t * @param _contentId The ID of the content\n\t * @param _networkIntegerAmount The integer amount of network ion to stake\n\t * @param _networkFractionAmount The fraction amount of network ion to stake\n\t * @param _denomination The denomination of the network ion, i.e ao, kilo, mega, etc.\n\t * @param _primordialAmount The amount of primordial ion to stake\n\t * @param _profitPercentage The percentage of profit the stake owner's media will charge\n\t * @return the newly created staked content ID\n\t */\n\tfunction create(address _stakeOwner,\n\t\tbytes32 _contentId,\n\t\tuint256 _networkIntegerAmount,\n\t\tuint256 _networkFractionAmount,\n\t\tbytes8 _denomination,\n\t\tuint256 _primordialAmount,\n\t\tuint256 _profitPercentage\n\t\t) external inWhitelist returns (bytes32) {\n\t\trequire (_canCreate(_stakeOwner, _contentId, _networkIntegerAmount, _networkFractionAmount, _denomination, _primordialAmount, _profitPercentage));\n\t\t// Increment totalStakedContents\n\t\ttotalStakedContents++;\n\n\t\t// Generate stakedContentId\n\t\tbytes32 _stakedContentId = keccak256(abi.encodePacked(this, _stakeOwner, _contentId));\n\t\tStakedContent storage _stakedContent = stakedContents[totalStakedContents];\n\n\t\t// Make sure the node doesn't stake the same content twice\n\t\trequire (_stakedContent.stakeOwner == address(0));\n\n\t\t_stakedContent.stakedContentId = _stakedContentId;\n\t\t_stakedContent.contentId = _contentId;\n\t\t_stakedContent.stakeOwner = _stakeOwner;\n\t\t_stakedContent.profitPercentage = _profitPercentage;\n\t\t_stakedContent.active = true;\n\t\t_stakedContent.createdOnTimestamp = now;\n\n\t\tif (_aoTreasury.isDenominationExist(_denomination) && (_networkIntegerAmount > 0 || _networkFractionAmount > 0)) {\n\t\t\t_stakedContent.networkAmount = _aoTreasury.toBase(_networkIntegerAmount, _networkFractionAmount, _denomination);\n\t\t\trequire (_aoIon.stakeFrom(_stakeOwner, _stakedContent.networkAmount));\n\t\t}\n\t\tif (_primordialAmount > 0) {\n\t\t\t_stakedContent.primordialAmount = _primordialAmount;\n\n\t\t\t// Primordial ion is the base AO ion\n\t\t\t_stakedContent.primordialWeightedMultiplier = _aoIon.weightedMultiplierByAddress(_stakedContent.stakeOwner);\n\t\t\trequire (_aoIon.stakePrimordialFrom(_stakedContent.stakeOwner, _primordialAmount, _stakedContent.primordialWeightedMultiplier));\n\t\t}\n\n\t\tstakedContentIndex[_stakedContentId] = totalStakedContents;\n\n\t\temit StakeContent(_stakedContent.stakeOwner, _stakedContent.stakedContentId, _stakedContent.contentId, _stakedContent.networkAmount, _stakedContent.primordialAmount, _stakedContent.primordialWeightedMultiplier, _stakedContent.profitPercentage, _stakedContent.createdOnTimestamp);\n\t\treturn _stakedContent.stakedContentId;\n\t}\n\n\t/**\n\t * @dev Set profit percentage on existing staked content\n\t *\t\tWill throw error if this is a Creative Commons/T(AO) Content\n\t * @param _stakedContentId The ID of the staked content\n\t * @param _profitPercentage The new value to be set\n\t */\n\tfunction setProfitPercentage(bytes32 _stakedContentId, uint256 _profitPercentage) public {\n\t\trequire (_profitPercentage <= AOLibrary.PERCENTAGE_DIVISOR());\n\n\t\t// Make sure the staked content exist\n\t\trequire (stakedContentIndex[_stakedContentId] > 0);\n\n\t\tStakedContent storage _stakedContent = stakedContents[stakedContentIndex[_stakedContentId]];\n\t\t// Make sure the staked content owner is the same as the sender\n\t\trequire (_stakedContent.stakeOwner == msg.sender);\n\n\t\t// Make sure we are updating profit percentage for AO Content only\n\t\t// Creative Commons/T(AO) Content has 0 profit percentage\n\t\trequire (_aoContent.isAOContentUsageType(_stakedContent.contentId));\n\n\t\t_stakedContent.profitPercentage = _profitPercentage;\n\n\t\temit SetProfitPercentage(msg.sender, _stakedContentId, _profitPercentage);\n\t}\n\n\t/**\n\t * @dev Return staked content information at a given ID\n\t * @param _stakedContentId The ID of the staked content\n\t * @return The ID of the content being staked\n\t * @return address of the staked content's owner\n\t * @return the network base ion amount staked for this content\n\t * @return the primordial ion amount staked for this content\n\t * @return the primordial weighted multiplier of the staked content\n\t * @return the profit percentage of the content\n\t * @return status of the staked content\n\t * @return the timestamp when the staked content was created\n\t */\n\tfunction getById(bytes32 _stakedContentId) external view returns (bytes32, address, uint256, uint256, uint256, uint256, bool, uint256) {\n\t\t// Make sure the staked content exist\n\t\trequire (stakedContentIndex[_stakedContentId] > 0);\n\n\t\tStakedContent memory _stakedContent = stakedContents[stakedContentIndex[_stakedContentId]];\n\t\treturn (\n\t\t\t_stakedContent.contentId,\n\t\t\t_stakedContent.stakeOwner,\n\t\t\t_stakedContent.networkAmount,\n\t\t\t_stakedContent.primordialAmount,\n\t\t\t_stakedContent.primordialWeightedMultiplier,\n\t\t\t_stakedContent.profitPercentage,\n\t\t\t_stakedContent.active,\n\t\t\t_stakedContent.createdOnTimestamp\n\t\t);\n\t}\n\n\t/**\n\t * @dev Unstake existing staked content and refund partial staked amount to the stake owner\n\t *\t\tUse unstakeContent() to unstake all staked ion amount. unstakePartialContent() can unstake only up to\n\t *\t\tthe mininum required to pay the fileSize\n\t * @param _stakedContentId The ID of the staked content\n\t * @param _networkIntegerAmount The integer amount of network ion to unstake\n\t * @param _networkFractionAmount The fraction amount of network ion to unstake\n\t * @param _denomination The denomination of the network ion, i.e ao, kilo, mega, etc.\n\t * @param _primordialAmount The amount of primordial ion to unstake\n\t */\n\tfunction unstakePartialContent(bytes32 _stakedContentId,\n\t\tuint256 _networkIntegerAmount,\n\t\tuint256 _networkFractionAmount,\n\t\tbytes8 _denomination,\n\t\tuint256 _primordialAmount\n\t\t) public {\n\t\t// Make sure the staked content exist\n\t\trequire (stakedContentIndex[_stakedContentId] > 0);\n\t\trequire (_networkIntegerAmount > 0 || _networkFractionAmount > 0 || _primordialAmount > 0);\n\n\t\tStakedContent storage _stakedContent = stakedContents[stakedContentIndex[_stakedContentId]];\n\t\t(, uint256 _fileSize,,,,,,,) = _aoContent.getById(_stakedContent.contentId);\n\n\t\t// Make sure the staked content owner is the same as the sender\n\t\trequire (_stakedContent.stakeOwner == msg.sender);\n\t\t// Make sure the staked content is currently active (staked) with some amounts\n\t\trequire (this.isActive(_stakedContentId));\n\t\t// Make sure the staked content has enough balance to unstake\n\t\trequire (_canUnstakePartial(_networkIntegerAmount, _networkFractionAmount, _denomination, _primordialAmount, _stakedContent.networkAmount, _stakedContent.primordialAmount, _fileSize));\n\n\t\tif (_aoTreasury.isDenominationExist(_denomination) && (_networkIntegerAmount > 0 || _networkFractionAmount > 0)) {\n\t\t\tuint256 _unstakeNetworkAmount = _aoTreasury.toBase(_networkIntegerAmount, _networkFractionAmount, _denomination);\n\t\t\t_stakedContent.networkAmount = _stakedContent.networkAmount.sub(_unstakeNetworkAmount);\n\t\t\trequire (_aoIon.unstakeFrom(msg.sender, _unstakeNetworkAmount));\n\t\t}\n\t\tif (_primordialAmount > 0) {\n\t\t\t_stakedContent.primordialAmount = _stakedContent.primordialAmount.sub(_primordialAmount);\n\t\t\trequire (_aoIon.unstakePrimordialFrom(msg.sender, _primordialAmount, _stakedContent.primordialWeightedMultiplier));\n\t\t}\n\t\temit UnstakePartialContent(_stakedContent.stakeOwner, _stakedContent.stakedContentId, _stakedContent.contentId, _stakedContent.networkAmount, _stakedContent.primordialAmount, _stakedContent.primordialWeightedMultiplier);\n\t}\n\n\t/**\n\t * @dev Unstake existing staked content and refund the total staked amount to the stake owner\n\t * @param _stakedContentId The ID of the staked content\n\t */\n\tfunction unstakeContent(bytes32 _stakedContentId) public {\n\t\t// Make sure the staked content exist\n\t\trequire (stakedContentIndex[_stakedContentId] > 0);\n\n\t\tStakedContent storage _stakedContent = stakedContents[stakedContentIndex[_stakedContentId]];\n\t\t// Make sure the staked content owner is the same as the sender\n\t\trequire (_stakedContent.stakeOwner == msg.sender);\n\t\t// Make sure the staked content is currently active (staked) with some amounts\n\t\trequire (this.isActive(_stakedContentId));\n\t\t_stakedContent.active = false;\n\n\t\tif (_stakedContent.networkAmount > 0) {\n\t\t\tuint256 _unstakeNetworkAmount = _stakedContent.networkAmount;\n\t\t\t_stakedContent.networkAmount = 0;\n\t\t\trequire (_aoIon.unstakeFrom(msg.sender, _unstakeNetworkAmount));\n\t\t}\n\t\tif (_stakedContent.primordialAmount > 0) {\n\t\t\tuint256 _primordialAmount = _stakedContent.primordialAmount;\n\t\t\tuint256 _primordialWeightedMultiplier = _stakedContent.primordialWeightedMultiplier;\n\t\t\t_stakedContent.primordialAmount = 0;\n\t\t\t_stakedContent.primordialWeightedMultiplier = 0;\n\t\t\trequire (_aoIon.unstakePrimordialFrom(msg.sender, _primordialAmount, _primordialWeightedMultiplier));\n\t\t}\n\t\temit UnstakeContent(_stakedContent.stakeOwner, _stakedContentId);\n\t}\n\n\t/**\n\t * @dev Stake existing content with more ions (this is to increase the price)\n\t *\n\t * @param _stakedContentId The ID of the staked content\n\t * @param _networkIntegerAmount The integer amount of network ion to stake\n\t * @param _networkFractionAmount The fraction amount of network ion to stake\n\t * @param _denomination The denomination of the network ion, i.e ao, kilo, mega, etc.\n\t * @param _primordialAmount The amount of primordial ion to stake. (The primordial weighted multiplier has to match the current staked weighted multiplier)\n\t */\n\tfunction stakeExistingContent(bytes32 _stakedContentId,\n\t\tuint256 _networkIntegerAmount,\n\t\tuint256 _networkFractionAmount,\n\t\tbytes8 _denomination,\n\t\tuint256 _primordialAmount\n\t\t) public {\n\t\t// Make sure the staked content exist\n\t\trequire (stakedContentIndex[_stakedContentId] > 0);\n\n\t\tStakedContent storage _stakedContent = stakedContents[stakedContentIndex[_stakedContentId]];\n\t\t(, uint256 _fileSize,,,,,,,) = _aoContent.getById(_stakedContent.contentId);\n\n\t\t// Make sure the staked content owner is the same as the sender\n\t\trequire (_stakedContent.stakeOwner == msg.sender);\n\t\trequire (_networkIntegerAmount > 0 || _networkFractionAmount > 0 || _primordialAmount > 0);\n\t\trequire (_canStakeExisting(_aoContent.isAOContentUsageType(_stakedContent.contentId), _fileSize, _stakedContent.networkAmount.add(_stakedContent.primordialAmount), _networkIntegerAmount, _networkFractionAmount, _denomination, _primordialAmount));\n\n\t\t// Make sure we can stake primordial ion\n\t\t// If we are currently staking an active staked content, then the stake owner's weighted multiplier has to match `stakedContent.primordialWeightedMultiplier`\n\t\t// i.e, can't use a combination of different weighted multiplier. Stake owner has to call unstakeContent() to unstake all ions first\n\t\tif (_primordialAmount > 0 && _stakedContent.active && _stakedContent.primordialAmount > 0 && _stakedContent.primordialWeightedMultiplier > 0) {\n\t\t\trequire (_aoIon.weightedMultiplierByAddress(msg.sender) == _stakedContent.primordialWeightedMultiplier);\n\t\t}\n\n\t\t_stakedContent.active = true;\n\t\tif (_aoTreasury.isDenominationExist(_denomination) && (_networkIntegerAmount > 0 || _networkFractionAmount > 0)) {\n\t\t\tuint256 _stakeNetworkAmount = _aoTreasury.toBase(_networkIntegerAmount, _networkFractionAmount, _denomination);\n\t\t\t_stakedContent.networkAmount = _stakedContent.networkAmount.add(_stakeNetworkAmount);\n\t\t\trequire (_aoIon.stakeFrom(_stakedContent.stakeOwner, _stakeNetworkAmount));\n\t\t}\n\t\tif (_primordialAmount > 0) {\n\t\t\t_stakedContent.primordialAmount = _stakedContent.primordialAmount.add(_primordialAmount);\n\n\t\t\t// Primordial ion is the base AO ion\n\t\t\t_stakedContent.primordialWeightedMultiplier = _aoIon.weightedMultiplierByAddress(_stakedContent.stakeOwner);\n\t\t\trequire (_aoIon.stakePrimordialFrom(_stakedContent.stakeOwner, _primordialAmount, _stakedContent.primordialWeightedMultiplier));\n\t\t}\n\n\t\temit StakeExistingContent(msg.sender, _stakedContent.stakedContentId, _stakedContent.contentId, _stakedContent.networkAmount, _stakedContent.primordialAmount, _stakedContent.primordialWeightedMultiplier);\n\t}\n\n\t/**\n\t * @dev Check whether or not a staked content is active\n\t * @param _stakedContentId The ID of the staked content\n\t * @return true if yes, false otherwise.\n\t */\n\tfunction isActive(bytes32 _stakedContentId) external view returns (bool) {\n\t\t// Make sure the staked content exist\n\t\trequire (stakedContentIndex[_stakedContentId] > 0);\n\n\t\tStakedContent memory _stakedContent = stakedContents[stakedContentIndex[_stakedContentId]];\n\t\treturn (_stakedContent.active == true && (_stakedContent.networkAmount > 0 || (_stakedContent.primordialAmount > 0 && _stakedContent.primordialWeightedMultiplier > 0)));\n\t}\n\n\t/***** INTERNAL METHODS *****/\n\t/**\n\t * @dev Checks if create params are valid\n\t * @param _stakeOwner the address that stake the content\n\t * @param _contentId The ID of the content\n\t * @param _networkIntegerAmount The integer amount of network ion to stake\n\t * @param _networkFractionAmount The fraction amount of network ion to stake\n\t * @param _denomination The denomination of the network ion, i.e ao, kilo, mega, etc.\n\t * @param _primordialAmount The amount of primordial ion to stake\n\t * @param _profitPercentage The percentage of profit the stake owner's media will charge\n\t * @return true if yes. false otherwise\n\t */\n\tfunction _canCreate(address _stakeOwner,\n\t\tbytes32 _contentId,\n\t\tuint256 _networkIntegerAmount,\n\t\tuint256 _networkFractionAmount,\n\t\tbytes8 _denomination,\n\t\tuint256 _primordialAmount,\n\t\tuint256 _profitPercentage) internal view returns (bool) {\n\t\t(address _contentCreator, uint256 _fileSize,,,,,,,) = _aoContent.getById(_contentId);\n\t\treturn (_stakeOwner != address(0) &&\n\t\t\t_stakeOwner == _contentCreator &&\n\t\t\t(_networkIntegerAmount > 0 || _networkFractionAmount > 0 || _primordialAmount > 0) &&\n\t\t\t(_aoContent.isAOContentUsageType(_contentId) ?\n\t\t\t\t_aoTreasury.toBase(_networkIntegerAmount, _networkFractionAmount, _denomination).add(_primordialAmount) >= _fileSize :\n\t\t\t\t_aoTreasury.toBase(_networkIntegerAmount, _networkFractionAmount, _denomination).add(_primordialAmount) == _fileSize\n\t\t\t) &&\n\t\t\t_profitPercentage <= AOLibrary.PERCENTAGE_DIVISOR()\n\t\t);\n\t}\n\n\t/**\n\t * @dev Check whether or the requested unstake amount is valid\n\t * @param _networkIntegerAmount The integer amount of the network ion\n\t * @param _networkFractionAmount The fraction amount of the network ion\n\t * @param _denomination The denomination of the the network ion\n\t * @param _primordialAmount The amount of primordial ion\n\t * @param _stakedNetworkAmount The current staked network ion amount\n\t * @param _stakedPrimordialAmount The current staked primordial ion amount\n\t * @param _stakedFileSize The file size of the staked content\n\t * @return true if can unstake, false otherwise\n\t */\n\tfunction _canUnstakePartial(\n\t\tuint256 _networkIntegerAmount,\n\t\tuint256 _networkFractionAmount,\n\t\tbytes8 _denomination,\n\t\tuint256 _primordialAmount,\n\t\tuint256 _stakedNetworkAmount,\n\t\tuint256 _stakedPrimordialAmount,\n\t\tuint256 _stakedFileSize\n\t\t) internal view returns (bool) {\n\t\tif (\n\t\t\t(_denomination.length > 0 && _denomination[0] != 0 &&\n\t\t\t\t(_networkIntegerAmount > 0 || _networkFractionAmount > 0) &&\n\t\t\t\t_stakedNetworkAmount < _aoTreasury.toBase(_networkIntegerAmount, _networkFractionAmount, _denomination)\n\t\t\t) ||\n\t\t\t_stakedPrimordialAmount < _primordialAmount ||\n\t\t\t(\n\t\t\t\t_denomination.length > 0 && _denomination[0] != 0\n\t\t\t\t\t&& (_networkIntegerAmount > 0 || _networkFractionAmount > 0)\n\t\t\t\t\t&& (_stakedNetworkAmount.sub(_aoTreasury.toBase(_networkIntegerAmount, _networkFractionAmount, _denomination)).add(_stakedPrimordialAmount.sub(_primordialAmount)) < _stakedFileSize)\n\t\t\t) ||\n\t\t\t( _denomination.length == 0 && _denomination[0] == 0 && _networkIntegerAmount == 0 && _networkFractionAmount == 0 && _primordialAmount > 0 && _stakedPrimordialAmount.sub(_primordialAmount) < _stakedFileSize)\n\t\t) {\n\t\t\treturn false;\n\t\t} else {\n\t\t\treturn true;\n\t\t}\n\t}\n\n\t/**\n\t * @dev Check whether the network ion and/or primordial ion is adequate to pay for existing staked content\n\t * @param _isAOContentUsageType whether or not the content is of AO Content usage type\n\t * @param _fileSize The size of the file\n\t * @param _stakedAmount The total staked amount\n\t * @param _networkIntegerAmount The integer amount of the network ion\n\t * @param _networkFractionAmount The fraction amount of the network ion\n\t * @param _denomination The denomination of the the network ion\n\t * @param _primordialAmount The amount of primordial ion\n\t * @return true when the amount is sufficient, false otherwise\n\t */\n\tfunction _canStakeExisting(\n\t\tbool _isAOContentUsageType,\n\t\tuint256 _fileSize,\n\t\tuint256 _stakedAmount,\n\t\tuint256 _networkIntegerAmount,\n\t\tuint256 _networkFractionAmount,\n\t\tbytes8 _denomination,\n\t\tuint256 _primordialAmount\n\t) internal view returns (bool) {\n\t\tif (_isAOContentUsageType) {\n\t\t\treturn _aoTreasury.toBase(_networkIntegerAmount, _networkFractionAmount, _denomination).add(_primordialAmount).add(_stakedAmount) >= _fileSize;\n\t\t} else {\n\t\t\treturn _aoTreasury.toBase(_networkIntegerAmount, _networkFractionAmount, _denomination).add(_primordialAmount).add(_stakedAmount) == _fileSize;\n\t\t}\n\t}\n}\n",
  "sourcePath": "/usr/local/ao-contracts/contracts/AOStakedContent.sol",
  "compiler": {
    "name": "solc",
    "version": "0.5.6+commit.b259423e.Emscripten.clang"
  },
  "schemaVersion": "3.0.2",
  "updatedAt": "2019-03-28T22:28:47.369Z",
  "devdoc": {
    "methods": {
      "constructor": {
        "details": "Constructor function",
        "params": {
          "_aoContentAddress": "The address of AOContent",
          "_aoIonAddress": "The address of AOIon",
          "_aoTreasuryAddress": "The address of AOTreasury",
          "_nameTAOPositionAddress": "The address of NameTAOPosition"
        }
      },
      "create(address,bytes32,uint256,uint256,bytes8,uint256,uint256)": {
        "details": "Stake the content",
        "params": {
          "_contentId": "The ID of the content",
          "_denomination": "The denomination of the network ion, i.e ao, kilo, mega, etc.",
          "_networkFractionAmount": "The fraction amount of network ion to stake",
          "_networkIntegerAmount": "The integer amount of network ion to stake",
          "_primordialAmount": "The amount of primordial ion to stake",
          "_profitPercentage": "The percentage of profit the stake owner's media will charge",
          "_stakeOwner": "the address that stake the content"
        },
        "return": "the newly created staked content ID"
      },
      "getById(bytes32)": {
        "details": "Return staked content information at a given ID",
        "params": {
          "_stakedContentId": "The ID of the staked content"
        },
        "return": "The ID of the content being stakedaddress of the staked content's ownerthe network base ion amount staked for this contentthe primordial ion amount staked for this contentthe primordial weighted multiplier of the staked contentthe profit percentage of the contentstatus of the staked contentthe timestamp when the staked content was created"
      },
      "isActive(bytes32)": {
        "details": "Check whether or not a staked content is active",
        "params": {
          "_stakedContentId": "The ID of the staked content"
        },
        "return": "true if yes, false otherwise."
      },
      "setAOContentAddress(address)": {
        "details": "The AO sets AO Content address",
        "params": {
          "_aoContentAddress": "The address of AOContent"
        }
      },
      "setAOIonAddress(address)": {
        "details": "The AO sets AOIon address",
        "params": {
          "_aoIonAddress": "The address of AOIon"
        }
      },
      "setAOTreasuryAddress(address)": {
        "details": "The AO sets AOTreasury address",
        "params": {
          "_aoTreasuryAddress": "The address of AOTreasury"
        }
      },
      "setNameTAOPositionAddress(address)": {
        "details": "The AO sets NameTAOPosition address",
        "params": {
          "_nameTAOPositionAddress": "The address of NameTAOPosition"
        }
      },
      "setProfitPercentage(bytes32,uint256)": {
        "details": "Set profit percentage on existing staked content\tWill throw error if this is a Creative Commons/T(AO) Content",
        "params": {
          "_profitPercentage": "The new value to be set",
          "_stakedContentId": "The ID of the staked content"
        }
      },
      "setWhitelist(address,bool)": {
        "details": "Whitelist `_account` address to transact on behalf of others",
        "params": {
          "_account": "The address to whitelist",
          "_whitelist": "Either to whitelist or not"
        }
      },
      "stakeExistingContent(bytes32,uint256,uint256,bytes8,uint256)": {
        "details": "Stake existing content with more ions (this is to increase the price)",
        "params": {
          "_denomination": "The denomination of the network ion, i.e ao, kilo, mega, etc.",
          "_networkFractionAmount": "The fraction amount of network ion to stake",
          "_networkIntegerAmount": "The integer amount of network ion to stake",
          "_primordialAmount": "The amount of primordial ion to stake. (The primordial weighted multiplier has to match the current staked weighted multiplier)",
          "_stakedContentId": "The ID of the staked content"
        }
      },
      "transferOwnership(address)": {
        "details": "Transfer ownership of The AO to new address",
        "params": {
          "_theAO": "The new address to be transferred"
        }
      },
      "unstakeContent(bytes32)": {
        "details": "Unstake existing staked content and refund the total staked amount to the stake owner",
        "params": {
          "_stakedContentId": "The ID of the staked content"
        }
      },
      "unstakePartialContent(bytes32,uint256,uint256,bytes8,uint256)": {
        "details": "Unstake existing staked content and refund partial staked amount to the stake owner\tUse unstakeContent() to unstake all staked ion amount. unstakePartialContent() can unstake only up to\tthe mininum required to pay the fileSize",
        "params": {
          "_denomination": "The denomination of the network ion, i.e ao, kilo, mega, etc.",
          "_networkFractionAmount": "The fraction amount of network ion to unstake",
          "_networkIntegerAmount": "The integer amount of network ion to unstake",
          "_primordialAmount": "The amount of primordial ion to unstake",
          "_stakedContentId": "The ID of the staked content"
        }
      }
    },
    "title": "AOStakedContent"
  },
  "userdoc": {
    "methods": {}
  }
}