{
	"contractName": "AOStringSetting",
	"abi": [
		{
			"constant": true,
			"inputs": [],
			"name": "aoDevTeam1",
			"outputs": [
				{
					"name": "",
					"type": "address"
				}
			],
			"payable": false,
			"stateMutability": "view",
			"type": "function"
		},
		{
			"constant": false,
			"inputs": [
				{
					"name": "_account",
					"type": "address"
				},
				{
					"name": "_whitelist",
					"type": "bool"
				}
			],
			"name": "setWhitelist",
			"outputs": [],
			"payable": false,
			"stateMutability": "nonpayable",
			"type": "function"
		},
		{
			"constant": true,
			"inputs": [
				{
					"name": "",
					"type": "address"
				}
			],
			"name": "whitelist",
			"outputs": [
				{
					"name": "",
					"type": "bool"
				}
			],
			"payable": false,
			"stateMutability": "view",
			"type": "function"
		},
		{
			"constant": true,
			"inputs": [
				{
					"name": "",
					"type": "uint256"
				}
			],
			"name": "settingValue",
			"outputs": [
				{
					"name": "",
					"type": "string"
				}
			],
			"payable": false,
			"stateMutability": "view",
			"type": "function"
		},
		{
			"constant": true,
			"inputs": [],
			"name": "aoDevTeam2",
			"outputs": [
				{
					"name": "",
					"type": "address"
				}
			],
			"payable": false,
			"stateMutability": "view",
			"type": "function"
		},
		{
			"constant": true,
			"inputs": [
				{
					"name": "",
					"type": "uint256"
				}
			],
			"name": "pendingValue",
			"outputs": [
				{
					"name": "",
					"type": "string"
				}
			],
			"payable": false,
			"stateMutability": "view",
			"type": "function"
		},
		{
			"constant": false,
			"inputs": [
				{
					"name": "_aoDevTeam1",
					"type": "address"
				},
				{
					"name": "_aoDevTeam2",
					"type": "address"
				}
			],
			"name": "setAODevTeamAddresses",
			"outputs": [],
			"payable": false,
			"stateMutability": "nonpayable",
			"type": "function"
		},
		{
			"constant": true,
			"inputs": [],
			"name": "developer",
			"outputs": [
				{
					"name": "",
					"type": "address"
				}
			],
			"payable": false,
			"stateMutability": "view",
			"type": "function"
		},
		{
			"constant": false,
			"inputs": [
				{
					"name": "newDeveloper",
					"type": "address"
				}
			],
			"name": "transferOwnership",
			"outputs": [],
			"payable": false,
			"stateMutability": "nonpayable",
			"type": "function"
		},
		{
			"inputs": [],
			"payable": false,
			"stateMutability": "nonpayable",
			"type": "constructor"
		},
		{
			"constant": false,
			"inputs": [
				{
					"name": "_settingId",
					"type": "uint256"
				},
				{
					"name": "_value",
					"type": "string"
				}
			],
			"name": "setPendingValue",
			"outputs": [],
			"payable": false,
			"stateMutability": "nonpayable",
			"type": "function"
		},
		{
			"constant": false,
			"inputs": [
				{
					"name": "_settingId",
					"type": "uint256"
				}
			],
			"name": "movePendingToSetting",
			"outputs": [],
			"payable": false,
			"stateMutability": "nonpayable",
			"type": "function"
		}
	],
	"bytecode": "0x608060405260018054600160a060020a0319908116735c63644d01ba385ebac5bcf2ddc1e6dbc1182b52179091556002805490911673156c79bf4347d1891da834ea30662a14177cbf2817905534801561005857600080fd5b5060008054600160a060020a0319163317905561076d8061007a6000396000f3006080604052600436106100ae5763ffffffff7c0100000000000000000000000000000000000000000000000000000000600035041663088fc1a881146100b35780630ce64868146100cd57806315227aa71461012b57806353d6fd591461015c5780639b19251a146101825780639ba535ce146101b7578063a99433a614610244578063af9e8b1614610259578063b24626e914610271578063ca4b208b14610298578063f2fde38b146102ad575b600080fd5b3480156100bf57600080fd5b506100cb6004356102ce565b005b3480156100d957600080fd5b5060408051602060046024803582810135601f81018590048502860185019096528585526100cb9583359536956044949193909101919081908401838280828437509497506103e69650505050505050565b34801561013757600080fd5b50610140610440565b60408051600160a060020a039092168252519081900360200190f35b34801561016857600080fd5b506100cb600160a060020a0360043516602435151561044f565b34801561018e57600080fd5b506101a3600160a060020a0360043516610491565b604080519115158252519081900360200190f35b3480156101c357600080fd5b506101cf6004356104a6565b6040805160208082528351818301528351919283929083019185019080838360005b838110156102095781810151838201526020016101f1565b50505050905090810190601f1680156102365780820380516001836020036101000a031916815260200191505b509250505060405180910390f35b34801561025057600080fd5b50610140610541565b34801561026557600080fd5b506101cf600435610550565b34801561027d57600080fd5b506100cb600160a060020a03600435811690602435166105b8565b3480156102a457600080fd5b5061014061060a565b3480156102b957600080fd5b506100cb600160a060020a0360043516610619565b336000818152600360205260409020546060919060ff161515600114806103025750600054600160a060020a038281169116145b151561030d57600080fd5b60008381526005602090815260409182902080548351601f6002600019610100600186161502019093169290920491820184900484028101840190945280845290918301828280156103a05780601f10610375576101008083540402835291602001916103a0565b820191906000526020600020905b81548152906001019060200180831161038357829003601f168201915b50505060008681526005602052604081209395506103c1939250905061065f565b600083815260046020908152604090912083516103e0928501906106a6565b50505050565b3360008181526003602052604090205460ff161515600114806104165750600054600160a060020a038281169116145b151561042157600080fd5b600083815260056020908152604090912083516103e0928501906106a6565b600154600160a060020a031681565b600054600160a060020a0316331461046657600080fd5b600160a060020a03919091166000908152600360205260409020805460ff1916911515919091179055565b60036020526000908152604090205460ff1681565b60046020908152600091825260409182902080548351601f6002600019610100600186161502019093169290920491820184900484028101840190945280845290918301828280156105395780601f1061050e57610100808354040283529160200191610539565b820191906000526020600020905b81548152906001019060200180831161051c57829003601f168201915b505050505081565b600254600160a060020a031681565b60056020908152600091825260409182902080548351601f6002600019610100600186161502019093169290920491820184900484028101840190945280845290918301828280156105395780601f1061050e57610100808354040283529160200191610539565b600054600160a060020a031633146105cf57600080fd5b60018054600160a060020a0393841673ffffffffffffffffffffffffffffffffffffffff199182161790915560028054929093169116179055565b600054600160a060020a031681565b600054600160a060020a0316331461063057600080fd5b6000805473ffffffffffffffffffffffffffffffffffffffff1916600160a060020a0392909216919091179055565b50805460018160011615610100020316600290046000825580601f1061068557506106a3565b601f0160209004906000526020600020908101906106a39190610724565b50565b828054600181600116156101000203166002900490600052602060002090601f016020900481019282601f106106e757805160ff1916838001178555610714565b82800160010185558215610714579182015b828111156107145782518255916020019190600101906106f9565b50610720929150610724565b5090565b61073e91905b80821115610720576000815560010161072a565b905600a165627a7a7230582056fb15f79647c01f6c7e5ebef7e87fe9d5ca77d7369fc3092c383ba26a8adae40029",
	"source": "pragma solidity ^0.4.24;\n\nimport './developed.sol';\n\n/**\n * @title AOStringSetting\n *\n * This contract stores all AO string setting variables\n */\ncontract AOStringSetting is developed {\n\t// Mapping from settingId to it's actual string value\n\tmapping (uint256 => string) public settingValue;\n\n\t// Mapping from settingId to it's potential string value that is at pending state\n\tmapping (uint256 => string) public pendingValue;\n\n\t/**\n\t * @dev Constructor function\n\t */\n\tconstructor() public {}\n\n\t/**\n\t * @dev Set pending value\n\t * @param _settingId The ID of the setting\n\t * @param _value The string value to be set\n\t */\n\tfunction setPendingValue(uint256 _settingId, string _value) public inWhitelist(msg.sender) {\n\t\tpendingValue[_settingId] = _value;\n\t}\n\n\t/**\n\t * @dev Move value from pending to setting\n\t * @param _settingId The ID of the setting\n\t */\n\tfunction movePendingToSetting(uint256 _settingId) public inWhitelist(msg.sender) {\n\t\tstring memory _tempValue = pendingValue[_settingId];\n\t\tdelete pendingValue[_settingId];\n\t\tsettingValue[_settingId] = _tempValue;\n\t}\n}\n",
	"sourcePath": "/home/jmulyono/ao-contracts/contracts/AOStringSetting.sol",
	"compiler": {
		"name": "solc",
		"version": "0.4.24+commit.e67f0147.Emscripten.clang"
	},
	"schemaVersion": "2.0.1",
	"updatedAt": "2018-12-19T05:20:18.437Z"
}