{
	"contractName": "AOTera",
	"abi": [
		{
			"constant": false,
			"inputs": [
				{
					"name": "newSellPrice",
					"type": "uint256"
				},
				{
					"name": "newBuyPrice",
					"type": "uint256"
				}
			],
			"name": "setPrices",
			"outputs": [],
			"payable": false,
			"stateMutability": "nonpayable",
			"type": "function"
		},
		{
			"constant": true,
			"inputs": [],
			"name": "name",
			"outputs": [
				{
					"name": "",
					"type": "string"
				}
			],
			"payable": false,
			"stateMutability": "view",
			"type": "function"
		},
		{
			"constant": false,
			"inputs": [
				{
					"name": "_spender",
					"type": "address"
				},
				{
					"name": "_value",
					"type": "uint256"
				}
			],
			"name": "approve",
			"outputs": [
				{
					"name": "success",
					"type": "bool"
				}
			],
			"payable": false,
			"stateMutability": "nonpayable",
			"type": "function"
		},
		{
			"constant": true,
			"inputs": [],
			"name": "powerOfTen",
			"outputs": [
				{
					"name": "",
					"type": "uint256"
				}
			],
			"payable": false,
			"stateMutability": "view",
			"type": "function"
		},
		{
			"constant": true,
			"inputs": [],
			"name": "totalSupply",
			"outputs": [
				{
					"name": "",
					"type": "uint256"
				}
			],
			"payable": false,
			"stateMutability": "view",
			"type": "function"
		},
		{
			"constant": false,
			"inputs": [
				{
					"name": "_nameAccountRecoveryAddress",
					"type": "address"
				}
			],
			"name": "setNameAccountRecoveryAddress",
			"outputs": [],
			"payable": false,
			"stateMutability": "nonpayable",
			"type": "function"
		},
		{
			"constant": false,
			"inputs": [
				{
					"name": "_from",
					"type": "address"
				},
				{
					"name": "_to",
					"type": "address"
				},
				{
					"name": "_value",
					"type": "uint256"
				}
			],
			"name": "transferFrom",
			"outputs": [
				{
					"name": "success",
					"type": "bool"
				}
			],
			"payable": false,
			"stateMutability": "nonpayable",
			"type": "function"
		},
		{
			"constant": true,
			"inputs": [],
			"name": "decimals",
			"outputs": [
				{
					"name": "",
					"type": "uint8"
				}
			],
			"payable": false,
			"stateMutability": "view",
			"type": "function"
		},
		{
			"constant": false,
			"inputs": [
				{
					"name": "_from",
					"type": "address"
				},
				{
					"name": "_value",
					"type": "uint256"
				}
			],
			"name": "stakeFrom",
			"outputs": [
				{
					"name": "",
					"type": "bool"
				}
			],
			"payable": false,
			"stateMutability": "nonpayable",
			"type": "function"
		},
		{
			"constant": false,
			"inputs": [
				{
					"name": "target",
					"type": "address"
				},
				{
					"name": "mintedAmount",
					"type": "uint256"
				}
			],
			"name": "mint",
			"outputs": [
				{
					"name": "",
					"type": "bool"
				}
			],
			"payable": false,
			"stateMutability": "nonpayable",
			"type": "function"
		},
		{
			"constant": false,
			"inputs": [
				{
					"name": "_value",
					"type": "uint256"
				}
			],
			"name": "burn",
			"outputs": [
				{
					"name": "success",
					"type": "bool"
				}
			],
			"payable": false,
			"stateMutability": "nonpayable",
			"type": "function"
		},
		{
			"constant": true,
			"inputs": [],
			"name": "sellPrice",
			"outputs": [
				{
					"name": "",
					"type": "uint256"
				}
			],
			"payable": false,
			"stateMutability": "view",
			"type": "function"
		},
		{
			"constant": true,
			"inputs": [],
			"name": "nameTAOPositionAddress",
			"outputs": [
				{
					"name": "",
					"type": "address"
				}
			],
			"payable": false,
			"stateMutability": "view",
			"type": "function"
		},
		{
			"constant": true,
			"inputs": [
				{
					"name": "",
					"type": "address"
				}
			],
			"name": "escrowedBalance",
			"outputs": [
				{
					"name": "",
					"type": "uint256"
				}
			],
			"payable": false,
			"stateMutability": "view",
			"type": "function"
		},
		{
			"constant": false,
			"inputs": [
				{
					"name": "_account",
					"type": "address"
				},
				{
					"name": "_whitelist",
					"type": "bool"
				}
			],
			"name": "setWhitelist",
			"outputs": [],
			"payable": false,
			"stateMutability": "nonpayable",
			"type": "function"
		},
		{
			"constant": false,
			"inputs": [
				{
					"name": "_nameTAOPositionAddress",
					"type": "address"
				}
			],
			"name": "setNameTAOPositionAddress",
			"outputs": [],
			"payable": false,
			"stateMutability": "nonpayable",
			"type": "function"
		},
		{
			"constant": true,
			"inputs": [
				{
					"name": "",
					"type": "address"
				}
			],
			"name": "stakedBalance",
			"outputs": [
				{
					"name": "",
					"type": "uint256"
				}
			],
			"payable": false,
			"stateMutability": "view",
			"type": "function"
		},
		{
			"constant": false,
			"inputs": [
				{
					"name": "_namePublicKeyAddress",
					"type": "address"
				}
			],
			"name": "setNamePublicKeyAddress",
			"outputs": [],
			"payable": false,
			"stateMutability": "nonpayable",
			"type": "function"
		},
		{
			"constant": true,
			"inputs": [
				{
					"name": "",
					"type": "address"
				}
			],
			"name": "balanceOf",
			"outputs": [
				{
					"name": "",
					"type": "uint256"
				}
			],
			"payable": false,
			"stateMutability": "view",
			"type": "function"
		},
		{
			"constant": false,
			"inputs": [
				{
					"name": "_from",
					"type": "address"
				},
				{
					"name": "_value",
					"type": "uint256"
				}
			],
			"name": "unstakeFrom",
			"outputs": [
				{
					"name": "",
					"type": "bool"
				}
			],
			"payable": false,
			"stateMutability": "nonpayable",
			"type": "function"
		},
		{
			"constant": false,
			"inputs": [
				{
					"name": "_from",
					"type": "address"
				},
				{
					"name": "_value",
					"type": "uint256"
				}
			],
			"name": "burnFrom",
			"outputs": [
				{
					"name": "success",
					"type": "bool"
				}
			],
			"payable": false,
			"stateMutability": "nonpayable",
			"type": "function"
		},
		{
			"constant": false,
			"inputs": [
				{
					"name": "_nameId",
					"type": "address"
				},
				{
					"name": "_from",
					"type": "address"
				},
				{
					"name": "_to",
					"type": "address"
				},
				{
					"name": "_value",
					"type": "uint256"
				}
			],
			"name": "transferBetweenPublicKeys",
			"outputs": [
				{
					"name": "success",
					"type": "bool"
				}
			],
			"payable": false,
			"stateMutability": "nonpayable",
			"type": "function"
		},
		{
			"constant": true,
			"inputs": [],
			"name": "buyPrice",
			"outputs": [
				{
					"name": "",
					"type": "uint256"
				}
			],
			"payable": false,
			"stateMutability": "view",
			"type": "function"
		},
		{
			"constant": false,
			"inputs": [
				{
					"name": "_from",
					"type": "address"
				},
				{
					"name": "_to",
					"type": "address"
				},
				{
					"name": "_value",
					"type": "uint256"
				}
			],
			"name": "escrowFrom",
			"outputs": [
				{
					"name": "",
					"type": "bool"
				}
			],
			"payable": false,
			"stateMutability": "nonpayable",
			"type": "function"
		},
		{
			"constant": false,
			"inputs": [
				{
					"name": "_from",
					"type": "address"
				},
				{
					"name": "_value",
					"type": "uint256"
				}
			],
			"name": "unescrowFrom",
			"outputs": [
				{
					"name": "",
					"type": "bool"
				}
			],
			"payable": false,
			"stateMutability": "nonpayable",
			"type": "function"
		},
		{
			"constant": true,
			"inputs": [],
			"name": "symbol",
			"outputs": [
				{
					"name": "",
					"type": "string"
				}
			],
			"payable": false,
			"stateMutability": "view",
			"type": "function"
		},
		{
			"constant": true,
			"inputs": [
				{
					"name": "",
					"type": "address"
				}
			],
			"name": "whitelist",
			"outputs": [
				{
					"name": "",
					"type": "bool"
				}
			],
			"payable": false,
			"stateMutability": "view",
			"type": "function"
		},
		{
			"constant": false,
			"inputs": [
				{
					"name": "_from",
					"type": "address"
				},
				{
					"name": "_to",
					"type": "address"
				},
				{
					"name": "_value",
					"type": "uint256"
				}
			],
			"name": "whitelistTransferFrom",
			"outputs": [
				{
					"name": "success",
					"type": "bool"
				}
			],
			"payable": false,
			"stateMutability": "nonpayable",
			"type": "function"
		},
		{
			"constant": true,
			"inputs": [],
			"name": "nameAccountRecoveryAddress",
			"outputs": [
				{
					"name": "",
					"type": "address"
				}
			],
			"payable": false,
			"stateMutability": "view",
			"type": "function"
		},
		{
			"constant": false,
			"inputs": [],
			"name": "buy",
			"outputs": [],
			"payable": true,
			"stateMutability": "payable",
			"type": "function"
		},
		{
			"constant": false,
			"inputs": [
				{
					"name": "_to",
					"type": "address"
				},
				{
					"name": "_value",
					"type": "uint256"
				}
			],
			"name": "transfer",
			"outputs": [
				{
					"name": "success",
					"type": "bool"
				}
			],
			"payable": false,
			"stateMutability": "nonpayable",
			"type": "function"
		},
		{
			"constant": true,
			"inputs": [],
			"name": "theAO",
			"outputs": [
				{
					"name": "",
					"type": "address"
				}
			],
			"payable": false,
			"stateMutability": "view",
			"type": "function"
		},
		{
			"constant": false,
			"inputs": [
				{
					"name": "_from",
					"type": "address"
				},
				{
					"name": "_value",
					"type": "uint256"
				}
			],
			"name": "whitelistBurnFrom",
			"outputs": [
				{
					"name": "success",
					"type": "bool"
				}
			],
			"payable": false,
			"stateMutability": "nonpayable",
			"type": "function"
		},
		{
			"constant": true,
			"inputs": [
				{
					"name": "",
					"type": "address"
				}
			],
			"name": "frozenAccount",
			"outputs": [
				{
					"name": "",
					"type": "bool"
				}
			],
			"payable": false,
			"stateMutability": "view",
			"type": "function"
		},
		{
			"constant": false,
			"inputs": [
				{
					"name": "_spender",
					"type": "address"
				},
				{
					"name": "_value",
					"type": "uint256"
				},
				{
					"name": "_extraData",
					"type": "bytes"
				}
			],
			"name": "approveAndCall",
			"outputs": [
				{
					"name": "success",
					"type": "bool"
				}
			],
			"payable": false,
			"stateMutability": "nonpayable",
			"type": "function"
		},
		{
			"constant": false,
			"inputs": [
				{
					"name": "target",
					"type": "address"
				},
				{
					"name": "mintedAmount",
					"type": "uint256"
				}
			],
			"name": "mintEscrow",
			"outputs": [
				{
					"name": "",
					"type": "bool"
				}
			],
			"payable": false,
			"stateMutability": "nonpayable",
			"type": "function"
		},
		{
			"constant": true,
			"inputs": [],
			"name": "namePublicKeyAddress",
			"outputs": [
				{
					"name": "",
					"type": "address"
				}
			],
			"payable": false,
			"stateMutability": "view",
			"type": "function"
		},
		{
			"constant": true,
			"inputs": [
				{
					"name": "",
					"type": "address"
				},
				{
					"name": "",
					"type": "address"
				}
			],
			"name": "allowance",
			"outputs": [
				{
					"name": "",
					"type": "uint256"
				}
			],
			"payable": false,
			"stateMutability": "view",
			"type": "function"
		},
		{
			"constant": false,
			"inputs": [
				{
					"name": "amount",
					"type": "uint256"
				}
			],
			"name": "sell",
			"outputs": [],
			"payable": false,
			"stateMutability": "nonpayable",
			"type": "function"
		},
		{
			"constant": false,
			"inputs": [
				{
					"name": "target",
					"type": "address"
				},
				{
					"name": "freeze",
					"type": "bool"
				}
			],
			"name": "freezeAccount",
			"outputs": [],
			"payable": false,
			"stateMutability": "nonpayable",
			"type": "function"
		},
		{
			"constant": false,
			"inputs": [
				{
					"name": "_recipient",
					"type": "address"
				},
				{
					"name": "_amount",
					"type": "uint256"
				}
			],
			"name": "transferEth",
			"outputs": [],
			"payable": false,
			"stateMutability": "nonpayable",
			"type": "function"
		},
		{
			"constant": false,
			"inputs": [
				{
					"name": "_theAO",
					"type": "address"
				}
			],
			"name": "transferOwnership",
			"outputs": [],
			"payable": false,
			"stateMutability": "nonpayable",
			"type": "function"
		},
		{
			"inputs": [
				{
					"name": "_name",
					"type": "string"
				},
				{
					"name": "_symbol",
					"type": "string"
				},
				{
					"name": "_nameTAOPositionAddress",
					"type": "address"
				},
				{
					"name": "_namePublicKeyAddress",
					"type": "address"
				},
				{
					"name": "_nameAccountRecoveryAddress",
					"type": "address"
				}
			],
			"payable": false,
			"stateMutability": "nonpayable",
			"type": "constructor"
		},
		{
			"anonymous": false,
			"inputs": [
				{
					"indexed": false,
					"name": "target",
					"type": "address"
				},
				{
					"indexed": false,
					"name": "frozen",
					"type": "bool"
				}
			],
			"name": "FrozenFunds",
			"type": "event"
		},
		{
			"anonymous": false,
			"inputs": [
				{
					"indexed": true,
					"name": "from",
					"type": "address"
				},
				{
					"indexed": false,
					"name": "value",
					"type": "uint256"
				}
			],
			"name": "Stake",
			"type": "event"
		},
		{
			"anonymous": false,
			"inputs": [
				{
					"indexed": true,
					"name": "from",
					"type": "address"
				},
				{
					"indexed": false,
					"name": "value",
					"type": "uint256"
				}
			],
			"name": "Unstake",
			"type": "event"
		},
		{
			"anonymous": false,
			"inputs": [
				{
					"indexed": true,
					"name": "from",
					"type": "address"
				},
				{
					"indexed": true,
					"name": "to",
					"type": "address"
				},
				{
					"indexed": false,
					"name": "value",
					"type": "uint256"
				}
			],
			"name": "Escrow",
			"type": "event"
		},
		{
			"anonymous": false,
			"inputs": [
				{
					"indexed": true,
					"name": "from",
					"type": "address"
				},
				{
					"indexed": false,
					"name": "value",
					"type": "uint256"
				}
			],
			"name": "Unescrow",
			"type": "event"
		},
		{
			"anonymous": false,
			"inputs": [
				{
					"indexed": true,
					"name": "from",
					"type": "address"
				},
				{
					"indexed": true,
					"name": "to",
					"type": "address"
				},
				{
					"indexed": false,
					"name": "value",
					"type": "uint256"
				}
			],
			"name": "Transfer",
			"type": "event"
		},
		{
			"anonymous": false,
			"inputs": [
				{
					"indexed": true,
					"name": "_owner",
					"type": "address"
				},
				{
					"indexed": true,
					"name": "_spender",
					"type": "address"
				},
				{
					"indexed": false,
					"name": "_value",
					"type": "uint256"
				}
			],
			"name": "Approval",
			"type": "event"
		},
		{
			"anonymous": false,
			"inputs": [
				{
					"indexed": true,
					"name": "from",
					"type": "address"
				},
				{
					"indexed": false,
					"name": "value",
					"type": "uint256"
				}
			],
			"name": "Burn",
			"type": "event"
		}
	],
	"bytecode": "0x60806040523480156200001157600080fd5b506040516200297638038062002976833981018060405260a08110156200003757600080fd5b8101908080516401000000008111156200005057600080fd5b820160208101848111156200006457600080fd5b81516401000000008111828201871017156200007f57600080fd5b505092919060200180516401000000008111156200009c57600080fd5b82016020810184811115620000b057600080fd5b8151640100000000811182820187101715620000cb57600080fd5b50506020808301516040840151606090940151600080546001600160a01b031916331790559295509350859085908590859085906200011090849062000181811b901c565b62000121826200028560201b60201c565b62000132816200038960201b60201c565b8451620001479060089060208801906200048d565b5083516200015d9060099060208701906200048d565b5050600a8054600c80805560ff199091161790555062000532975050505050505050565b600054600154604080517ff66afcac0000000000000000000000000000000000000000000000000000000081523360048201526001600160a01b0393841660248201529290911660448301525173__AOLibrary_____________________________9163f66afcac916064808301926020929190829003018186803b1580156200020a57600080fd5b505af41580156200021f573d6000803e3d6000fd5b505050506040513d60208110156200023657600080fd5b50516200024257600080fd5b6001600160a01b0381166200025657600080fd5b600180546001600160a01b03199081166001600160a01b03938416179182905560058054929093169116179055565b600054600154604080517ff66afcac0000000000000000000000000000000000000000000000000000000081523360048201526001600160a01b0393841660248201529290911660448301525173__AOLibrary_____________________________9163f66afcac916064808301926020929190829003018186803b1580156200030e57600080fd5b505af415801562000323573d6000803e3d6000fd5b505050506040513d60208110156200033a57600080fd5b50516200034657600080fd5b6001600160a01b0381166200035a57600080fd5b600380546001600160a01b03199081166001600160a01b03938416179182905560068054929093169116179055565b600054600154604080517ff66afcac0000000000000000000000000000000000000000000000000000000081523360048201526001600160a01b0393841660248201529290911660448301525173__AOLibrary_____________________________9163f66afcac916064808301926020929190829003018186803b1580156200041257600080fd5b505af415801562000427573d6000803e3d6000fd5b505050506040513d60208110156200043e57600080fd5b50516200044a57600080fd5b6001600160a01b0381166200045e57600080fd5b600480546001600160a01b03199081166001600160a01b03938416179182905560078054929093169116179055565b828054600181600116156101000203166002900490600052602060002090601f016020900481019282601f10620004d057805160ff191683800117855562000500565b8280016001018555821562000500579182015b8281111562000500578251825591602001919060010190620004e3565b506200050e92915062000512565b5090565b6200052f91905b808211156200050e576000815560010162000519565b90565b61243480620005426000396000f3fe6080604052600436106102515760003560e01c80637d9e2a2111610139578063a9b6b38e116100b6578063d8ce52d11161007a578063d8ce52d114610a07578063dd62ed3e14610a1c578063e4849b3214610a57578063e724529c14610a81578063e9bb84c214610abc578063f2fde38b14610af557610251565b8063a9b6b38e14610885578063b1e19d451461089a578063b414d4b6146108d3578063cae9ca5114610906578063d6c9e189146109ce57610251565b80639b19251a116100fd5780639b19251a146107b9578063a144a3e0146107ec578063a4e5fad21461082f578063a6f2ae3a14610844578063a9059cbb1461084c57610251565b80637d9e2a21146106ca5780638620410b1461071357806387d4ca93146107285780638a0660451461076b57806395d89b41146107a457610251565b806342966c68116101d25780635cfaf2ef116101965780635cfaf2ef1461058c57806360217267146105bf5780636d9aa034146105f257806370a0823114610625578063731a3b061461065857806379cc67901461069157610251565b806342966c68146104ae5780634b750334146104d85780634ef033f0146104ed5780634fbd26951461051e57806353d6fd591461055157610251565b80631dfde2bd116102195780631dfde2bd1461039b57806323b872dd146103ce578063313ce5671461041157806331a8aeb31461043c57806340c10f191461047557610251565b806305fefda71461025657806306fdde0314610288578063095ea7b3146103125780630aa245461461035f57806318160ddd14610386575b600080fd5b34801561026257600080fd5b506102866004803603604081101561027957600080fd5b5080359060200135610b28565b005b34801561029457600080fd5b5061029d610bda565b6040805160208082528351818301528351919283929083019185019080838360005b838110156102d75781810151838201526020016102bf565b50505050905090810190601f1680156103045780820380516001836020036101000a031916815260200191505b509250505060405180910390f35b34801561031e57600080fd5b5061034b6004803603604081101561033557600080fd5b506001600160a01b038135169060200135610c68565b604080519115158252519081900360200190f35b34801561036b57600080fd5b50610374610ccf565b60408051918252519081900360200190f35b34801561039257600080fd5b50610374610cd5565b3480156103a757600080fd5b50610286600480360360208110156103be57600080fd5b50356001600160a01b0316610cdb565b3480156103da57600080fd5b5061034b600480360360608110156103f157600080fd5b506001600160a01b03813581169160208101359091169060400135610dc4565b34801561041d57600080fd5b50610426610e34565b6040805160ff9092168252519081900360200190f35b34801561044857600080fd5b5061034b6004803603604081101561045f57600080fd5b506001600160a01b038135169060200135610e3d565b34801561048157600080fd5b5061034b6004803603604081101561049857600080fd5b506001600160a01b038135169060200135610f3c565b3480156104ba57600080fd5b5061034b600480360360208110156104d157600080fd5b5035610f70565b3480156104e457600080fd5b50610374610fe8565b3480156104f957600080fd5b50610502610fee565b604080516001600160a01b039092168252519081900360200190f35b34801561052a57600080fd5b506103746004803603602081101561054157600080fd5b50356001600160a01b0316610ffd565b34801561055d57600080fd5b506102866004803603604081101561057457600080fd5b506001600160a01b038135169060200135151561100f565b34801561059857600080fd5b50610286600480360360208110156105af57600080fd5b50356001600160a01b03166110f4565b3480156105cb57600080fd5b50610374600480360360208110156105e257600080fd5b50356001600160a01b03166111dd565b3480156105fe57600080fd5b506102866004803603602081101561061557600080fd5b50356001600160a01b03166111ef565b34801561063157600080fd5b506103746004803603602081101561064857600080fd5b50356001600160a01b03166112d8565b34801561066457600080fd5b5061034b6004803603604081101561067b57600080fd5b506001600160a01b0381351690602001356112ea565b34801561069d57600080fd5b5061034b600480360360408110156106b457600080fd5b506001600160a01b0381351690602001356113e9565b3480156106d657600080fd5b5061034b600480360360808110156106ed57600080fd5b506001600160a01b038135811691602081013582169160408201351690606001356114ba565b34801561071f57600080fd5b50610374611793565b34801561073457600080fd5b5061034b6004803603606081101561074b57600080fd5b506001600160a01b03813581169160208101359091169060400135611799565b34801561077757600080fd5b5061034b6004803603604081101561078e57600080fd5b506001600160a01b0381351690602001356118a5565b3480156107b057600080fd5b5061029d6119a4565b3480156107c557600080fd5b5061034b600480360360208110156107dc57600080fd5b50356001600160a01b03166119ff565b3480156107f857600080fd5b5061034b6004803603606081101561080f57600080fd5b506001600160a01b03813581169160208101359091169060400135611a14565b34801561083b57600080fd5b50610502611a40565b610286611a4f565b34801561085857600080fd5b5061034b6004803603604081101561086f57600080fd5b506001600160a01b038135169060200135611a85565b34801561089157600080fd5b50610502611a92565b3480156108a657600080fd5b5061034b600480360360408110156108bd57600080fd5b506001600160a01b038135169060200135611aa1565b3480156108df57600080fd5b5061034b600480360360208110156108f657600080fd5b50356001600160a01b0316611b87565b34801561091257600080fd5b5061034b6004803603606081101561092957600080fd5b6001600160a01b038235169160208101359181019060608101604082013564010000000081111561095957600080fd5b82018360208201111561096b57600080fd5b8035906020019184600183028401116401000000008311171561098d57600080fd5b91908080601f016020809104026020016040519081016040528093929190818152602001838380828437600092019190915250929550611b9c945050505050565b3480156109da57600080fd5b5061034b600480360360408110156109f157600080fd5b506001600160a01b038135169060200135611ca4565b348015610a1357600080fd5b50610502611d66565b348015610a2857600080fd5b5061037460048036036040811015610a3f57600080fd5b506001600160a01b0381358116916020013516611d75565b348015610a6357600080fd5b5061028660048036036020811015610a7a57600080fd5b5035611d92565b348015610a8d57600080fd5b5061028660048036036040811015610aa457600080fd5b506001600160a01b0381351690602001351515611e1f565b348015610ac857600080fd5b5061028660048036036040811015610adf57600080fd5b506001600160a01b038135169060200135611f2a565b348015610b0157600080fd5b5061028660048036036020811015610b1857600080fd5b50356001600160a01b031661201a565b60005460015460408051600160e21b633d9abf2b0281523360048201526001600160a01b0393841660248201529290911660448301525173__AOLibrary_____________________________9163f66afcac916064808301926020929190829003018186803b158015610b9a57600080fd5b505af4158015610bae573d6000803e3d6000fd5b505050506040513d6020811015610bc457600080fd5b5051610bcf57600080fd5b600d91909155600e55565b6008805460408051602060026001851615610100026000190190941693909304601f81018490048402820184019092528181529291830182828015610c605780601f10610c3557610100808354040283529160200191610c60565b820191906000526020600020905b815481529060010190602001808311610c4357829003601f168201915b505050505081565b3360008181526010602090815260408083206001600160a01b038716808552908352818420869055815186815291519394909390927f8c5be1e5ebec7d5bd14f71427d1e84f3dd0314c0f7b2291e5b200ac8c7c3b925928290030190a35060015b92915050565b600c5481565b600b5481565b60005460015460408051600160e21b633d9abf2b0281523360048201526001600160a01b0393841660248201529290911660448301525173__AOLibrary_____________________________9163f66afcac916064808301926020929190829003018186803b158015610d4d57600080fd5b505af4158015610d61573d6000803e3d6000fd5b505050506040513d6020811015610d7757600080fd5b5051610d8257600080fd5b6001600160a01b038116610d9557600080fd5b600480546001600160a01b03199081166001600160a01b03938416179182905560078054929093169116179055565b6001600160a01b0383166000908152601060209081526040808320338452909152812054821115610df457600080fd5b6001600160a01b0384166000908152601060209081526040808320338452909152902080548390039055610e298484846120f6565b5060015b9392505050565b600a5460ff1681565b3360009081526002602052604081205460ff161515600114610e5e57600080fd5b6001600160a01b0383166000908152600f6020526040902054821115610e8357600080fd5b6001600160a01b0383166000908152600f6020526040902054610eac908363ffffffff6122dd16565b6001600160a01b0384166000908152600f6020908152604080832093909355601290522054610ee1908363ffffffff6122ef16565b6001600160a01b038416600081815260126020908152604091829020939093558051858152905191927febedb8b3c678666e7f36970bc8f57abf6d8fa2e828c0da91ea5b75bf68ed101a92918290030190a250600192915050565b3360009081526002602052604081205460ff161515600114610f5d57600080fd5b610f6783836122fc565b50600192915050565b336000908152600f6020526040812054821115610f8c57600080fd5b336000818152600f602090815260409182902080548690039055600b80548690039055815185815291517fcc16f5dbb4873280815c1ee09dbd06736cffcc184412cf7a71a0fdb75d397ca59281900390910190a2506001919050565b600d5481565b6001546001600160a01b031681565b60136020526000908152604090205481565b60005460015460408051600160e21b633d9abf2b0281523360048201526001600160a01b0393841660248201529290911660448301525173__AOLibrary_____________________________9163f66afcac916064808301926020929190829003018186803b15801561108157600080fd5b505af4158015611095573d6000803e3d6000fd5b505050506040513d60208110156110ab57600080fd5b50516110b657600080fd5b6001600160a01b0382166110c957600080fd5b6001600160a01b03919091166000908152600260205260409020805460ff1916911515919091179055565b60005460015460408051600160e21b633d9abf2b0281523360048201526001600160a01b0393841660248201529290911660448301525173__AOLibrary_____________________________9163f66afcac916064808301926020929190829003018186803b15801561116657600080fd5b505af415801561117a573d6000803e3d6000fd5b505050506040513d602081101561119057600080fd5b505161119b57600080fd5b6001600160a01b0381166111ae57600080fd5b600180546001600160a01b03199081166001600160a01b03938416179182905560058054929093169116179055565b60126020526000908152604090205481565b60005460015460408051600160e21b633d9abf2b0281523360048201526001600160a01b0393841660248201529290911660448301525173__AOLibrary_____________________________9163f66afcac916064808301926020929190829003018186803b15801561126157600080fd5b505af4158015611275573d6000803e3d6000fd5b505050506040513d602081101561128b57600080fd5b505161129657600080fd5b6001600160a01b0381166112a957600080fd5b600380546001600160a01b03199081166001600160a01b03938416179182905560068054929093169116179055565b600f6020526000908152604090205481565b3360009081526002602052604081205460ff16151560011461130b57600080fd5b6001600160a01b03831660009081526012602052604090205482111561133057600080fd5b6001600160a01b038316600090815260126020526040902054611359908363ffffffff6122dd16565b6001600160a01b038416600090815260126020908152604080832093909355600f9052205461138e908363ffffffff6122ef16565b6001600160a01b0384166000818152600f6020908152604091829020939093558051858152905191927f85082129d87b2fe11527cb1b3b7a520aeb5aa6913f88a3d8757fe40d1db02fdd92918290030190a250600192915050565b6001600160a01b0382166000908152600f602052604081205482111561140e57600080fd5b6001600160a01b038316600090815260106020908152604080832033845290915290205482111561143e57600080fd5b6001600160a01b0383166000818152600f60209081526040808320805487900390556010825280832033845282529182902080548690039055600b80548690039055815185815291517fcc16f5dbb4873280815c1ee09dbd06736cffcc184412cf7a71a0fdb75d397ca59281900390910190a250600192915050565b600073__AOLibrary_____________________________632d706a34866040518263ffffffff1660e01b815260040180826001600160a01b03166001600160a01b0316815260200191505060206040518083038186803b15801561151d57600080fd5b505af4158015611531573d6000803e3d6000fd5b505050506040513d602081101561154757600080fd5b505161155257600080fd5b60055460408051600160e01b6371ce52ed0281523360048201526001600160a01b038881166024830152915191909216916371ce52ed916044808301926020929190829003018186803b1580156115a857600080fd5b505afa1580156115bc573d6000803e3d6000fd5b505050506040513d60208110156115d257600080fd5b50516115dd57600080fd5b60075460408051600160e01b633ebc2ab30281526001600160a01b03888116600483015291519190921691633ebc2ab3916024808301926020929190829003018186803b15801561162d57600080fd5b505afa158015611641573d6000803e3d6000fd5b505050506040513d602081101561165757600080fd5b50511561166357600080fd5b60065460408051600160e21b632920491f0281526001600160a01b03888116600483015287811660248301529151919092169163a481247c916044808301926020929190829003018186803b1580156116bb57600080fd5b505afa1580156116cf573d6000803e3d6000fd5b505050506040513d60208110156116e557600080fd5b50516116f057600080fd5b60065460408051600160e21b632920491f0281526001600160a01b03888116600483015286811660248301529151919092169163a481247c916044808301926020929190829003018186803b15801561174857600080fd5b505afa15801561175c573d6000803e3d6000fd5b505050506040513d602081101561177257600080fd5b505161177d57600080fd5b6117888484846120f6565b506001949350505050565b600e5481565b3360009081526002602052604081205460ff1615156001146117ba57600080fd5b6001600160a01b0384166000908152600f60205260409020548211156117df57600080fd5b6001600160a01b0384166000908152600f6020526040902054611808908363ffffffff6122dd16565b6001600160a01b038086166000908152600f6020908152604080832094909455918616815260139091522054611844908363ffffffff6122ef16565b6001600160a01b0380851660008181526013602090815260409182902094909455805186815290519193928816927f812c3251d8b2cd027716a7651ace6f9167d7fba4db9eb10df2e0cfe8b7fa48c992918290030190a35060019392505050565b3360009081526002602052604081205460ff1615156001146118c657600080fd5b6001600160a01b0383166000908152601360205260409020548211156118eb57600080fd5b6001600160a01b038316600090815260136020526040902054611914908363ffffffff6122dd16565b6001600160a01b038416600090815260136020908152604080832093909355600f90522054611949908363ffffffff6122ef16565b6001600160a01b0384166000818152600f6020908152604091829020939093558051858152905191927f85538b0b045118ba300aa14d9701eab875903dd2976d62d855ec959a3e6cffb192918290030190a250600192915050565b6009805460408051602060026001851615610100026000190190941693909304601f81018490048402820184019092528181529291830182828015610c605780601f10610c3557610100808354040283529160200191610c60565b60026020526000908152604090205460ff1681565b3360009081526002602052604081205460ff161515600114611a3557600080fd5b610e298484846120f6565b6004546001600160a01b031681565b6000600e5411611a5e57600080fd5b6000611a75600e54346123d090919063ffffffff16565b9050611a823033836120f6565b50565b6000610f673384846120f6565b6000546001600160a01b031681565b3360009081526002602052604081205460ff161515600114611ac257600080fd5b6001600160a01b0383166000908152600f6020526040902054821115611ae757600080fd5b6001600160a01b0383166000908152600f6020526040902054611b10908363ffffffff6122dd16565b6001600160a01b0384166000908152600f6020526040902055600b54611b3c908363ffffffff6122dd16565b600b556040805183815290516001600160a01b038516917fcc16f5dbb4873280815c1ee09dbd06736cffcc184412cf7a71a0fdb75d397ca5919081900360200190a250600192915050565b60116020526000908152604090205460ff1681565b600083611ba98185610c68565b15611c9c57604051600160e01b638f4ffcb102815233600482018181526024830187905230604484018190526080606485019081528751608486015287516001600160a01b03871695638f4ffcb195948b94938b939192909160a490910190602085019080838360005b83811015611c2b578181015183820152602001611c13565b50505050905090810190601f168015611c585780820380516001836020036101000a031916815260200191505b5095505050505050600060405180830381600087803b158015611c7a57600080fd5b505af1158015611c8e573d6000803e3d6000fd5b505050506001915050610e2d565b509392505050565b3360009081526002602052604081205460ff161515600114611cc557600080fd5b6001600160a01b038316600090815260136020526040902054611cee908363ffffffff6122ef16565b6001600160a01b038416600090815260136020526040902055600b54611d1a908363ffffffff6122ef16565b600b556040805183815290516001600160a01b0385169130917f812c3251d8b2cd027716a7651ace6f9167d7fba4db9eb10df2e0cfe8b7fa48c99181900360200190a350600192915050565b6003546001600160a01b031681565b601060209081526000928352604080842090915290825290205481565b6000600d5411611da157600080fd5b600d543090611db790839063ffffffff6123e316565b816001600160a01b0316311015611dcd57600080fd5b611dd83330846120f6565b600d5433906108fc90611df290859063ffffffff6123e316565b6040518115909202916000818181858888f19350505050158015611e1a573d6000803e3d6000fd5b505050565b60005460015460408051600160e21b633d9abf2b0281523360048201526001600160a01b0393841660248201529290911660448301525173__AOLibrary_____________________________9163f66afcac916064808301926020929190829003018186803b158015611e9157600080fd5b505af4158015611ea5573d6000803e3d6000fd5b505050506040513d6020811015611ebb57600080fd5b5051611ec657600080fd5b6001600160a01b038216600081815260116020908152604091829020805460ff191685151590811790915582519384529083015280517f48335238b4855f35377ed80f164e8c6f3c366e54ac00b96a6402d4a9814a03a59281900390910190a15050565b60005460015460408051600160e21b633d9abf2b0281523360048201526001600160a01b0393841660248201529290911660448301525173__AOLibrary_____________________________9163f66afcac916064808301926020929190829003018186803b158015611f9c57600080fd5b505af4158015611fb0573d6000803e3d6000fd5b505050506040513d6020811015611fc657600080fd5b5051611fd157600080fd5b6001600160a01b038216611fe457600080fd5b6040516001600160a01b0383169082156108fc029083906000818181858888f19350505050158015611e1a573d6000803e3d6000fd5b60005460015460408051600160e21b633d9abf2b0281523360048201526001600160a01b0393841660248201529290911660448301525173__AOLibrary_____________________________9163f66afcac916064808301926020929190829003018186803b15801561208c57600080fd5b505af41580156120a0573d6000803e3d6000fd5b505050506040513d60208110156120b657600080fd5b50516120c157600080fd5b6001600160a01b0381166120d457600080fd5b600080546001600160a01b0319166001600160a01b0392909216919091179055565b6001600160a01b03821661210957600080fd5b6001600160a01b0383166000908152600f602052604090205481111561212e57600080fd5b6001600160a01b0382166000908152600f6020526040902054612157818363ffffffff6122ef16565b101561216257600080fd5b6001600160a01b03831660009081526011602052604090205460ff161561218857600080fd5b6001600160a01b03821660009081526011602052604090205460ff16156121ae57600080fd5b6001600160a01b038083166000908152600f602052604080822054928616825281205490916121e3919063ffffffff6122ef16565b6001600160a01b0385166000908152600f602052604090205490915061220f908363ffffffff6122dd16565b6001600160a01b038086166000908152600f60205260408082209390935590851681522054612244908363ffffffff6122ef16565b6001600160a01b038085166000818152600f602090815260409182902094909455805186815290519193928816927fddf252ad1be2c89b69c2b068fc378daa952ba7f163c4a11628f55a4df523b3ef92918290030190a36001600160a01b038084166000908152600f602052604080822054928716825290205482916122d0919063ffffffff6122ef16565b146122d757fe5b50505050565b6000828211156122e957fe5b50900390565b81810182811015610cc957fe5b6001600160a01b0382166000908152600f6020526040902054612325908263ffffffff6122ef16565b6001600160a01b0383166000908152600f6020526040902055600b54612351908263ffffffff6122ef16565b600b5560408051828152905130916000917fddf252ad1be2c89b69c2b068fc378daa952ba7f163c4a11628f55a4df523b3ef9181900360200190a36040805182815290516001600160a01b0384169130917fddf252ad1be2c89b69c2b068fc378daa952ba7f163c4a11628f55a4df523b3ef9181900360200190a35050565b60008183816123db57fe5b049392505050565b6000826123f257506000610cc9565b508181028183828161240057fe5b0414610cc957fefea165627a7a72305820569461b03e6dd770b925e1223643a86d13defd9d60f8d7bde8bab278b32d0f0e0029",
	"source": "pragma solidity >=0.5.4 <0.6.0;\n\nimport \"./AOIonInterface.sol\";\n\ncontract AOTera is AOIonInterface {\n\t/**\n\t * @dev Constructor function\n\t */\n\tconstructor(string memory _name, string memory _symbol, address _nameTAOPositionAddress, address _namePublicKeyAddress, address _nameAccountRecoveryAddress)\n\t\tAOIonInterface(_name, _symbol, _nameTAOPositionAddress, _namePublicKeyAddress, _nameAccountRecoveryAddress) public {\n\t\tpowerOfTen = 12;\n\t\tdecimals = 12;\n\t}\n}\n",
	"sourcePath": "/usr/local/ao-contracts/contracts/AOTera.sol",
	"compiler": {
		"name": "solc",
		"version": "0.5.6+commit.b259423e.Emscripten.clang"
	},
	"schemaVersion": "3.0.2",
	"updatedAt": "2019-04-09T21:05:06.245Z",
	"devdoc": {
		"methods": {
			"approve(address,uint256)": {
				"params": {
					"_spender": "The address authorized to spend",
					"_value": "the max amount they can spend"
				}
			},
			"approveAndCall(address,uint256,bytes)": {
				"params": {
					"_extraData": "some extra information to send to the approved contract",
					"_spender": "The address authorized to spend",
					"_value": "the max amount they can spend"
				}
			},
			"burn(uint256)": {
				"params": {
					"_value": "the amount of money to burn"
				}
			},
			"burnFrom(address,uint256)": {
				"params": {
					"_from": "the address of the sender",
					"_value": "the amount of money to burn"
				}
			},
			"buy()": {
				"details": "Buy ions from contract by sending ether"
			},
			"constructor": {
				"details": "Constructor function"
			},
			"escrowFrom(address,address,uint256)": {
				"details": "Store `_value` from `_from` to `_to` in escrow",
				"params": {
					"_from": "The address of the sender",
					"_to": "The address of the recipient",
					"_value": "The amount of network ions to put in escrow"
				},
				"return": "true on success"
			},
			"freezeAccount(address,bool)": {
				"details": "Prevent/Allow target from sending & receiving ions",
				"params": {
					"freeze": "Either to freeze it or not",
					"target": "Address to be frozen"
				}
			},
			"mint(address,uint256)": {
				"details": "Create `mintedAmount` ions and send it to `target`",
				"params": {
					"mintedAmount": "The amount of ions it will receive",
					"target": "Address to receive the ions"
				},
				"return": "true on success"
			},
			"mintEscrow(address,uint256)": {
				"details": "Create `mintedAmount` ions and send it to `target` escrow balance",
				"params": {
					"mintedAmount": "The amount of ions it will receive in escrow",
					"target": "Address to receive ions"
				}
			},
			"sell(uint256)": {
				"details": "Sell `amount` ions to contract",
				"params": {
					"amount": "The amount of ions to be sold"
				}
			},
			"setNameAccountRecoveryAddress(address)": {
				"details": "The AO set the NameAccountRecovery Address",
				"params": {
					"_nameAccountRecoveryAddress": "The address of NameAccountRecovery"
				}
			},
			"setNamePublicKeyAddress(address)": {
				"details": "The AO set the NamePublicKey Address",
				"params": {
					"_namePublicKeyAddress": "The address of NamePublicKey"
				}
			},
			"setNameTAOPositionAddress(address)": {
				"details": "The AO set the NameTAOPosition Address",
				"params": {
					"_nameTAOPositionAddress": "The address of NameTAOPosition"
				}
			},
			"setPrices(uint256,uint256)": {
				"details": "Allow users to buy ions for `newBuyPrice` eth and sell ions for `newSellPrice` eth",
				"params": {
					"newBuyPrice": "Price users can buy from the contract",
					"newSellPrice": "Price users can sell to the contract"
				}
			},
			"setWhitelist(address,bool)": {
				"details": "Whitelist `_account` address to transact on behalf of others",
				"params": {
					"_account": "The address to whitelist",
					"_whitelist": "Either to whitelist or not"
				}
			},
			"stakeFrom(address,uint256)": {
				"details": "Stake `_value` ions on behalf of `_from`",
				"params": {
					"_from": "The address of the target",
					"_value": "The amount to stake"
				},
				"return": "true on success"
			},
			"transfer(address,uint256)": {
				"params": {
					"_to": "The address of the recipient",
					"_value": "the amount to send"
				}
			},
			"transferBetweenPublicKeys(address,address,address,uint256)": {
				"params": {
					"_from": "The address of the sender",
					"_nameId": "The ID of the Name",
					"_to": "The address of the recipient",
					"_value": "the amount to send"
				}
			},
			"transferEth(address,uint256)": {
				"details": "Allows TheAO to transfer `_amount` of ETH from this address to `_recipient`",
				"params": {
					"_amount": "The amount to transfer",
					"_recipient": "The recipient address"
				}
			},
			"transferFrom(address,address,uint256)": {
				"params": {
					"_from": "The address of the sender",
					"_to": "The address of the recipient",
					"_value": "the amount to send"
				}
			},
			"transferOwnership(address)": {
				"details": "Transfer ownership of The AO to new address",
				"params": {
					"_theAO": "The new address to be transferred"
				}
			},
			"unescrowFrom(address,uint256)": {
				"details": "Release escrowed `_value` from `_from`",
				"params": {
					"_from": "The address of the sender",
					"_value": "The amount of escrowed network ions to be released"
				},
				"return": "true on success"
			},
			"unstakeFrom(address,uint256)": {
				"details": "Unstake `_value` ions on behalf of `_from`",
				"params": {
					"_from": "The address of the target",
					"_value": "The amount to unstake"
				},
				"return": "true on success"
			},
			"whitelistBurnFrom(address,uint256)": {
				"details": "Whitelisted address remove `_value` ions from the system irreversibly on behalf of `_from`.",
				"params": {
					"_from": "the address of the sender",
					"_value": "the amount of money to burn"
				}
			},
			"whitelistTransferFrom(address,address,uint256)": {
				"details": "Whitelisted address transfer ions from other address\t * Send `_value` ions to `_to` on behalf of `_from`",
				"params": {
					"_from": "The address of the sender",
					"_to": "The address of the recipient",
					"_value": "the amount to send"
				}
			}
		}
	},
	"userdoc": {
		"methods": {
			"approve(address,uint256)": {
				"notice": "Set allowance for other address\t * Allows `_spender` to spend no more than `_value` ions in your behalf"
			},
			"approveAndCall(address,uint256,bytes)": {
				"notice": "Set allowance for other address and notify\t * Allows `_spender` to spend no more than `_value` ions in your behalf, and then ping the contract about it"
			},
			"burn(uint256)": {
				"notice": "Destroy ions\t * Remove `_value` ions from the system irreversibly"
			},
			"burnFrom(address,uint256)": {
				"notice": "Destroy ions from other account\t * Remove `_value` ions from the system irreversibly on behalf of `_from`."
			},
			"transfer(address,uint256)": {
				"notice": "Transfer ions\t * Send `_value` ions to `_to` from your account"
			},
			"transferBetweenPublicKeys(address,address,address,uint256)": {
				"notice": "Transfer ions between public key addresses in a Name"
			},
			"transferFrom(address,address,uint256)": {
				"notice": "Transfer ions from other address\t * Send `_value` ions to `_to` in behalf of `_from`"
			}
		}
	}
}