{
	"contractName": "AOTera",
	"abi": [
		{
			"constant": false,
			"inputs": [
				{
					"name": "newSellPrice",
					"type": "uint256"
				},
				{
					"name": "newBuyPrice",
					"type": "uint256"
				}
			],
			"name": "setPrices",
			"outputs": [],
			"payable": false,
			"stateMutability": "nonpayable",
			"type": "function"
		},
		{
			"constant": true,
			"inputs": [],
			"name": "name",
			"outputs": [
				{
					"name": "",
					"type": "string"
				}
			],
			"payable": false,
			"stateMutability": "view",
			"type": "function"
		},
		{
			"constant": true,
			"inputs": [
				{
					"name": "_lotId",
					"type": "bytes32"
				}
			],
			"name": "lotById",
			"outputs": [
				{
					"name": "",
					"type": "bytes32"
				},
				{
					"name": "",
					"type": "uint256"
				},
				{
					"name": "",
					"type": "uint256"
				}
			],
			"payable": false,
			"stateMutability": "view",
			"type": "function"
		},
		{
			"constant": false,
			"inputs": [
				{
					"name": "_spender",
					"type": "address"
				},
				{
					"name": "_value",
					"type": "uint256"
				}
			],
			"name": "approve",
			"outputs": [
				{
					"name": "success",
					"type": "bool"
				}
			],
			"payable": false,
			"stateMutability": "nonpayable",
			"type": "function"
		},
		{
			"constant": true,
			"inputs": [],
			"name": "powerOfTen",
			"outputs": [
				{
					"name": "",
					"type": "uint256"
				}
			],
			"payable": false,
			"stateMutability": "view",
			"type": "function"
		},
		{
			"constant": true,
			"inputs": [
				{
					"name": "",
					"type": "address"
				},
				{
					"name": "",
					"type": "uint256"
				}
			],
			"name": "primordialStakedBalance",
			"outputs": [
				{
					"name": "",
					"type": "uint256"
				}
			],
			"payable": false,
			"stateMutability": "view",
			"type": "function"
		},
		{
			"constant": true,
			"inputs": [],
			"name": "totalSupply",
			"outputs": [
				{
					"name": "",
					"type": "uint256"
				}
			],
			"payable": false,
			"stateMutability": "view",
			"type": "function"
		},
		{
			"constant": false,
			"inputs": [],
			"name": "reserveForFoundation",
			"outputs": [],
			"payable": false,
			"stateMutability": "nonpayable",
			"type": "function"
		},
		{
			"constant": false,
			"inputs": [
				{
					"name": "_from",
					"type": "address"
				},
				{
					"name": "_to",
					"type": "address"
				},
				{
					"name": "_value",
					"type": "uint256"
				}
			],
			"name": "transferFrom",
			"outputs": [
				{
					"name": "success",
					"type": "bool"
				}
			],
			"payable": false,
			"stateMutability": "nonpayable",
			"type": "function"
		},
		{
			"constant": false,
			"inputs": [
				{
					"name": "target",
					"type": "address"
				},
				{
					"name": "mintedAmount",
					"type": "uint256"
				}
			],
			"name": "mintTokenEscrow",
			"outputs": [
				{
					"name": "",
					"type": "bool"
				}
			],
			"payable": false,
			"stateMutability": "nonpayable",
			"type": "function"
		},
		{
			"constant": true,
			"inputs": [],
			"name": "primordialSellPrice",
			"outputs": [
				{
					"name": "",
					"type": "uint256"
				}
			],
			"payable": false,
			"stateMutability": "view",
			"type": "function"
		},
		{
			"constant": true,
			"inputs": [],
			"name": "decimals",
			"outputs": [
				{
					"name": "",
					"type": "uint8"
				}
			],
			"payable": false,
			"stateMutability": "view",
			"type": "function"
		},
		{
			"constant": false,
			"inputs": [
				{
					"name": "_from",
					"type": "address"
				},
				{
					"name": "_value",
					"type": "uint256"
				}
			],
			"name": "stakeFrom",
			"outputs": [
				{
					"name": "",
					"type": "bool"
				}
			],
			"payable": false,
			"stateMutability": "nonpayable",
			"type": "function"
		},
		{
			"constant": true,
			"inputs": [],
			"name": "totalLots",
			"outputs": [
				{
					"name": "",
					"type": "uint256"
				}
			],
			"payable": false,
			"stateMutability": "view",
			"type": "function"
		},
		{
			"constant": false,
			"inputs": [
				{
					"name": "_spender",
					"type": "address"
				},
				{
					"name": "_value",
					"type": "uint256"
				},
				{
					"name": "_primordialValue",
					"type": "uint256"
				},
				{
					"name": "_extraData",
					"type": "bytes"
				}
			],
			"name": "approveTokensAndCall",
			"outputs": [
				{
					"name": "success",
					"type": "bool"
				}
			],
			"payable": false,
			"stateMutability": "nonpayable",
			"type": "function"
		},
		{
			"constant": false,
			"inputs": [
				{
					"name": "_value",
					"type": "uint256"
				}
			],
			"name": "burn",
			"outputs": [
				{
					"name": "success",
					"type": "bool"
				}
			],
			"payable": false,
			"stateMutability": "nonpayable",
			"type": "function"
		},
		{
			"constant": true,
			"inputs": [],
			"name": "MAX_Primordial_SUPPLY",
			"outputs": [
				{
					"name": "",
					"type": "uint256"
				}
			],
			"payable": false,
			"stateMutability": "view",
			"type": "function"
		},
		{
			"constant": true,
			"inputs": [
				{
					"name": "_lotOwner",
					"type": "address"
				}
			],
			"name": "lotsByAddress",
			"outputs": [
				{
					"name": "",
					"type": "bytes32[]"
				}
			],
			"payable": false,
			"stateMutability": "view",
			"type": "function"
		},
		{
			"constant": false,
			"inputs": [],
			"name": "buyPrimordialToken",
			"outputs": [],
			"payable": true,
			"stateMutability": "payable",
			"type": "function"
		},
		{
			"constant": true,
			"inputs": [],
			"name": "sellPrice",
			"outputs": [
				{
					"name": "",
					"type": "uint256"
				}
			],
			"payable": false,
			"stateMutability": "view",
			"type": "function"
		},
		{
			"constant": false,
			"inputs": [
				{
					"name": "_value",
					"type": "uint256"
				}
			],
			"name": "burnPrimordialToken",
			"outputs": [
				{
					"name": "success",
					"type": "bool"
				}
			],
			"payable": false,
			"stateMutability": "nonpayable",
			"type": "function"
		},
		{
			"constant": true,
			"inputs": [
				{
					"name": "",
					"type": "address"
				}
			],
			"name": "escrowedBalance",
			"outputs": [
				{
					"name": "",
					"type": "uint256"
				}
			],
			"payable": false,
			"stateMutability": "view",
			"type": "function"
		},
		{
			"constant": true,
			"inputs": [],
			"name": "WEIGHTED_INDEX_DIVISOR",
			"outputs": [
				{
					"name": "",
					"type": "uint256"
				}
			],
			"payable": false,
			"stateMutability": "view",
			"type": "function"
		},
		{
			"constant": false,
			"inputs": [
				{
					"name": "_account",
					"type": "address"
				},
				{
					"name": "_whitelist",
					"type": "bool"
				}
			],
			"name": "setWhitelist",
			"outputs": [],
			"payable": false,
			"stateMutability": "nonpayable",
			"type": "function"
		},
		{
			"constant": true,
			"inputs": [
				{
					"name": "_lotOwner",
					"type": "address"
				},
				{
					"name": "_index",
					"type": "uint256"
				}
			],
			"name": "lotOfOwnerByIndex",
			"outputs": [
				{
					"name": "",
					"type": "bytes32"
				},
				{
					"name": "",
					"type": "uint256"
				},
				{
					"name": "",
					"type": "uint256"
				}
			],
			"payable": false,
			"stateMutability": "view",
			"type": "function"
		},
		{
			"constant": true,
			"inputs": [
				{
					"name": "_lotOwner",
					"type": "address"
				}
			],
			"name": "weightedIndexByAddress",
			"outputs": [
				{
					"name": "",
					"type": "uint256"
				}
			],
			"payable": false,
			"stateMutability": "view",
			"type": "function"
		},
		{
			"constant": true,
			"inputs": [
				{
					"name": "",
					"type": "address"
				}
			],
			"name": "primordialBalanceOf",
			"outputs": [
				{
					"name": "",
					"type": "uint256"
				}
			],
			"payable": false,
			"stateMutability": "view",
			"type": "function"
		},
		{
			"constant": false,
			"inputs": [
				{
					"name": "_spender",
					"type": "address"
				},
				{
					"name": "_value",
					"type": "uint256"
				},
				{
					"name": "_primordialValue",
					"type": "uint256"
				}
			],
			"name": "approveTokens",
			"outputs": [
				{
					"name": "success",
					"type": "bool"
				}
			],
			"payable": false,
			"stateMutability": "nonpayable",
			"type": "function"
		},
		{
			"constant": true,
			"inputs": [
				{
					"name": "",
					"type": "address"
				}
			],
			"name": "stakedBalance",
			"outputs": [
				{
					"name": "",
					"type": "uint256"
				}
			],
			"payable": false,
			"stateMutability": "view",
			"type": "function"
		},
		{
			"constant": true,
			"inputs": [],
			"name": "Primordial_RESERVED_FOR_FOUNDATION",
			"outputs": [
				{
					"name": "",
					"type": "uint256"
				}
			],
			"payable": false,
			"stateMutability": "view",
			"type": "function"
		},
		{
			"constant": false,
			"inputs": [
				{
					"name": "_from",
					"type": "address"
				},
				{
					"name": "_to",
					"type": "address"
				},
				{
					"name": "_value",
					"type": "uint256"
				}
			],
			"name": "transferPrimordialTokenFrom",
			"outputs": [
				{
					"name": "success",
					"type": "bool"
				}
			],
			"payable": false,
			"stateMutability": "nonpayable",
			"type": "function"
		},
		{
			"constant": true,
			"inputs": [
				{
					"name": "",
					"type": "address"
				}
			],
			"name": "balanceOf",
			"outputs": [
				{
					"name": "",
					"type": "uint256"
				}
			],
			"payable": false,
			"stateMutability": "view",
			"type": "function"
		},
		{
			"constant": true,
			"inputs": [],
			"name": "primordialBuyPrice",
			"outputs": [
				{
					"name": "",
					"type": "uint256"
				}
			],
			"payable": false,
			"stateMutability": "view",
			"type": "function"
		},
		{
			"constant": false,
			"inputs": [
				{
					"name": "_from",
					"type": "address"
				},
				{
					"name": "_value",
					"type": "uint256"
				}
			],
			"name": "unstakeFrom",
			"outputs": [
				{
					"name": "",
					"type": "bool"
				}
			],
			"payable": false,
			"stateMutability": "nonpayable",
			"type": "function"
		},
		{
			"constant": false,
			"inputs": [
				{
					"name": "_from",
					"type": "address"
				},
				{
					"name": "_value",
					"type": "uint256"
				},
				{
					"name": "_weightedIndex",
					"type": "uint256"
				}
			],
			"name": "unstakePrimordialTokenFrom",
			"outputs": [
				{
					"name": "",
					"type": "bool"
				}
			],
			"payable": false,
			"stateMutability": "nonpayable",
			"type": "function"
		},
		{
			"constant": false,
			"inputs": [
				{
					"name": "target",
					"type": "address"
				},
				{
					"name": "mintedAmount",
					"type": "uint256"
				}
			],
			"name": "mintToken",
			"outputs": [
				{
					"name": "",
					"type": "bool"
				}
			],
			"payable": false,
			"stateMutability": "nonpayable",
			"type": "function"
		},
		{
			"constant": false,
			"inputs": [
				{
					"name": "_from",
					"type": "address"
				},
				{
					"name": "_value",
					"type": "uint256"
				}
			],
			"name": "burnFrom",
			"outputs": [
				{
					"name": "success",
					"type": "bool"
				}
			],
			"payable": false,
			"stateMutability": "nonpayable",
			"type": "function"
		},
		{
			"constant": false,
			"inputs": [
				{
					"name": "_from",
					"type": "address"
				},
				{
					"name": "_value",
					"type": "uint256"
				},
				{
					"name": "_weightedIndex",
					"type": "uint256"
				}
			],
			"name": "stakePrimordialTokenFrom",
			"outputs": [
				{
					"name": "",
					"type": "bool"
				}
			],
			"payable": false,
			"stateMutability": "nonpayable",
			"type": "function"
		},
		{
			"constant": true,
			"inputs": [],
			"name": "primordialTotalSupply",
			"outputs": [
				{
					"name": "",
					"type": "uint256"
				}
			],
			"payable": false,
			"stateMutability": "view",
			"type": "function"
		},
		{
			"constant": true,
			"inputs": [],
			"name": "buyPrice",
			"outputs": [
				{
					"name": "",
					"type": "uint256"
				}
			],
			"payable": false,
			"stateMutability": "view",
			"type": "function"
		},
		{
			"constant": false,
			"inputs": [
				{
					"name": "_from",
					"type": "address"
				},
				{
					"name": "_to",
					"type": "address"
				},
				{
					"name": "_value",
					"type": "uint256"
				}
			],
			"name": "escrowFrom",
			"outputs": [
				{
					"name": "",
					"type": "bool"
				}
			],
			"payable": false,
			"stateMutability": "nonpayable",
			"type": "function"
		},
		{
			"constant": false,
			"inputs": [
				{
					"name": "_from",
					"type": "address"
				},
				{
					"name": "_value",
					"type": "uint256"
				}
			],
			"name": "unescrowFrom",
			"outputs": [
				{
					"name": "",
					"type": "bool"
				}
			],
			"payable": false,
			"stateMutability": "nonpayable",
			"type": "function"
		},
		{
			"constant": false,
			"inputs": [
				{
					"name": "_value",
					"type": "uint256"
				},
				{
					"name": "_primordialValue",
					"type": "uint256"
				}
			],
			"name": "burnTokens",
			"outputs": [
				{
					"name": "success",
					"type": "bool"
				}
			],
			"payable": false,
			"stateMutability": "nonpayable",
			"type": "function"
		},
		{
			"constant": true,
			"inputs": [],
			"name": "symbol",
			"outputs": [
				{
					"name": "",
					"type": "string"
				}
			],
			"payable": false,
			"stateMutability": "view",
			"type": "function"
		},
		{
			"constant": true,
			"inputs": [
				{
					"name": "",
					"type": "address"
				}
			],
			"name": "whitelist",
			"outputs": [
				{
					"name": "",
					"type": "bool"
				}
			],
			"payable": false,
			"stateMutability": "view",
			"type": "function"
		},
		{
			"constant": true,
			"inputs": [],
			"name": "networkExchangeEnded",
			"outputs": [
				{
					"name": "",
					"type": "bool"
				}
			],
			"payable": false,
			"stateMutability": "view",
			"type": "function"
		},
		{
			"constant": false,
			"inputs": [],
			"name": "buy",
			"outputs": [],
			"payable": true,
			"stateMutability": "payable",
			"type": "function"
		},
		{
			"constant": false,
			"inputs": [
				{
					"name": "_to",
					"type": "address"
				},
				{
					"name": "_value",
					"type": "uint256"
				}
			],
			"name": "transfer",
			"outputs": [
				{
					"name": "success",
					"type": "bool"
				}
			],
			"payable": false,
			"stateMutability": "nonpayable",
			"type": "function"
		},
		{
			"constant": false,
			"inputs": [
				{
					"name": "newPrimordialSellPrice",
					"type": "uint256"
				},
				{
					"name": "newPrimordialBuyPrice",
					"type": "uint256"
				}
			],
			"name": "setPrimordialPrices",
			"outputs": [],
			"payable": false,
			"stateMutability": "nonpayable",
			"type": "function"
		},
		{
			"constant": false,
			"inputs": [
				{
					"name": "_to",
					"type": "address"
				},
				{
					"name": "_value",
					"type": "uint256"
				},
				{
					"name": "_primordialValue",
					"type": "uint256"
				}
			],
			"name": "transferTokens",
			"outputs": [
				{
					"name": "success",
					"type": "bool"
				}
			],
			"payable": false,
			"stateMutability": "nonpayable",
			"type": "function"
		},
		{
			"constant": false,
			"inputs": [
				{
					"name": "_spender",
					"type": "address"
				},
				{
					"name": "_value",
					"type": "uint256"
				}
			],
			"name": "approvePrimordialToken",
			"outputs": [
				{
					"name": "success",
					"type": "bool"
				}
			],
			"payable": false,
			"stateMutability": "nonpayable",
			"type": "function"
		},
		{
			"constant": false,
			"inputs": [
				{
					"name": "_from",
					"type": "address"
				},
				{
					"name": "_value",
					"type": "uint256"
				}
			],
			"name": "whitelistBurnFrom",
			"outputs": [
				{
					"name": "success",
					"type": "bool"
				}
			],
			"payable": false,
			"stateMutability": "nonpayable",
			"type": "function"
		},
		{
			"constant": true,
			"inputs": [
				{
					"name": "",
					"type": "address"
				}
			],
			"name": "frozenAccount",
			"outputs": [
				{
					"name": "",
					"type": "bool"
				}
			],
			"payable": false,
			"stateMutability": "view",
			"type": "function"
		},
		{
			"constant": true,
			"inputs": [],
			"name": "foundationReserved",
			"outputs": [
				{
					"name": "",
					"type": "bool"
				}
			],
			"payable": false,
			"stateMutability": "view",
			"type": "function"
		},
		{
			"constant": true,
			"inputs": [],
			"name": "networkExchangeContract",
			"outputs": [
				{
					"name": "",
					"type": "bool"
				}
			],
			"payable": false,
			"stateMutability": "view",
			"type": "function"
		},
		{
			"constant": false,
			"inputs": [
				{
					"name": "_from",
					"type": "address"
				},
				{
					"name": "_to",
					"type": "address"
				},
				{
					"name": "_value",
					"type": "uint256"
				},
				{
					"name": "_primordialValue",
					"type": "uint256"
				}
			],
			"name": "transferTokensFrom",
			"outputs": [
				{
					"name": "success",
					"type": "bool"
				}
			],
			"payable": false,
			"stateMutability": "nonpayable",
			"type": "function"
		},
		{
			"constant": false,
			"inputs": [
				{
					"name": "_to",
					"type": "address"
				},
				{
					"name": "_value",
					"type": "uint256"
				}
			],
			"name": "transferPrimordialToken",
			"outputs": [
				{
					"name": "success",
					"type": "bool"
				}
			],
			"payable": false,
			"stateMutability": "nonpayable",
			"type": "function"
		},
		{
			"constant": true,
			"inputs": [],
			"name": "developer",
			"outputs": [
				{
					"name": "",
					"type": "address"
				}
			],
			"payable": false,
			"stateMutability": "view",
			"type": "function"
		},
		{
			"constant": false,
			"inputs": [
				{
					"name": "_spender",
					"type": "address"
				},
				{
					"name": "_value",
					"type": "uint256"
				},
				{
					"name": "_extraData",
					"type": "bytes"
				}
			],
			"name": "approveAndCall",
			"outputs": [
				{
					"name": "success",
					"type": "bool"
				}
			],
			"payable": false,
			"stateMutability": "nonpayable",
			"type": "function"
		},
		{
			"constant": true,
			"inputs": [
				{
					"name": "",
					"type": "address"
				},
				{
					"name": "",
					"type": "address"
				}
			],
			"name": "primordialAllowance",
			"outputs": [
				{
					"name": "",
					"type": "uint256"
				}
			],
			"payable": false,
			"stateMutability": "view",
			"type": "function"
		},
		{
			"constant": false,
			"inputs": [
				{
					"name": "_spender",
					"type": "address"
				},
				{
					"name": "_value",
					"type": "uint256"
				},
				{
					"name": "_extraData",
					"type": "bytes"
				}
			],
			"name": "approvePrimordialTokenAndCall",
			"outputs": [
				{
					"name": "success",
					"type": "bool"
				}
			],
			"payable": false,
			"stateMutability": "nonpayable",
			"type": "function"
		},
		{
			"constant": false,
			"inputs": [
				{
					"name": "_from",
					"type": "address"
				},
				{
					"name": "_value",
					"type": "uint256"
				},
				{
					"name": "_primordialValue",
					"type": "uint256"
				}
			],
			"name": "burnTokensFrom",
			"outputs": [
				{
					"name": "success",
					"type": "bool"
				}
			],
			"payable": false,
			"stateMutability": "nonpayable",
			"type": "function"
		},
		{
			"constant": true,
			"inputs": [
				{
					"name": "",
					"type": "address"
				},
				{
					"name": "",
					"type": "address"
				}
			],
			"name": "allowance",
			"outputs": [
				{
					"name": "",
					"type": "uint256"
				}
			],
			"payable": false,
			"stateMutability": "view",
			"type": "function"
		},
		{
			"constant": false,
			"inputs": [
				{
					"name": "_from",
					"type": "address"
				},
				{
					"name": "_value",
					"type": "uint256"
				}
			],
			"name": "burnPrimordialTokenFrom",
			"outputs": [
				{
					"name": "success",
					"type": "bool"
				}
			],
			"payable": false,
			"stateMutability": "nonpayable",
			"type": "function"
		},
		{
			"constant": false,
			"inputs": [
				{
					"name": "amount",
					"type": "uint256"
				}
			],
			"name": "sell",
			"outputs": [],
			"payable": false,
			"stateMutability": "nonpayable",
			"type": "function"
		},
		{
			"constant": false,
			"inputs": [
				{
					"name": "target",
					"type": "address"
				},
				{
					"name": "freeze",
					"type": "bool"
				}
			],
			"name": "freezeAccount",
			"outputs": [],
			"payable": false,
			"stateMutability": "nonpayable",
			"type": "function"
		},
		{
			"constant": true,
			"inputs": [],
			"name": "lotIndex",
			"outputs": [
				{
					"name": "",
					"type": "uint256"
				}
			],
			"payable": false,
			"stateMutability": "view",
			"type": "function"
		},
		{
			"constant": false,
			"inputs": [
				{
					"name": "newDeveloper",
					"type": "address"
				}
			],
			"name": "transferOwnership",
			"outputs": [],
			"payable": false,
			"stateMutability": "nonpayable",
			"type": "function"
		},
		{
			"constant": true,
			"inputs": [
				{
					"name": "_lotOwner",
					"type": "address"
				}
			],
			"name": "totalLotsByAddress",
			"outputs": [
				{
					"name": "",
					"type": "uint256"
				}
			],
			"payable": false,
			"stateMutability": "view",
			"type": "function"
		},
		{
			"inputs": [
				{
					"name": "initialSupply",
					"type": "uint256"
				},
				{
					"name": "tokenName",
					"type": "string"
				},
				{
					"name": "tokenSymbol",
					"type": "string"
				}
			],
			"payable": false,
			"stateMutability": "nonpayable",
			"type": "constructor"
		},
		{
			"anonymous": false,
			"inputs": [
				{
					"indexed": false,
					"name": "target",
					"type": "address"
				},
				{
					"indexed": false,
					"name": "frozen",
					"type": "bool"
				}
			],
			"name": "FrozenFunds",
			"type": "event"
		},
		{
			"anonymous": false,
			"inputs": [
				{
					"indexed": true,
					"name": "from",
					"type": "address"
				},
				{
					"indexed": false,
					"name": "value",
					"type": "uint256"
				}
			],
			"name": "Stake",
			"type": "event"
		},
		{
			"anonymous": false,
			"inputs": [
				{
					"indexed": true,
					"name": "from",
					"type": "address"
				},
				{
					"indexed": false,
					"name": "value",
					"type": "uint256"
				}
			],
			"name": "Unstake",
			"type": "event"
		},
		{
			"anonymous": false,
			"inputs": [
				{
					"indexed": true,
					"name": "from",
					"type": "address"
				},
				{
					"indexed": true,
					"name": "to",
					"type": "address"
				},
				{
					"indexed": false,
					"name": "value",
					"type": "uint256"
				}
			],
			"name": "Escrow",
			"type": "event"
		},
		{
			"anonymous": false,
			"inputs": [
				{
					"indexed": true,
					"name": "from",
					"type": "address"
				},
				{
					"indexed": false,
					"name": "value",
					"type": "uint256"
				}
			],
			"name": "Unescrow",
			"type": "event"
		},
		{
			"anonymous": false,
			"inputs": [
				{
					"indexed": true,
					"name": "from",
					"type": "address"
				},
				{
					"indexed": true,
					"name": "to",
					"type": "address"
				},
				{
					"indexed": false,
					"name": "value",
					"type": "uint256"
				}
			],
			"name": "PrimordialTransfer",
			"type": "event"
		},
		{
			"anonymous": false,
			"inputs": [
				{
					"indexed": true,
					"name": "_owner",
					"type": "address"
				},
				{
					"indexed": true,
					"name": "_spender",
					"type": "address"
				},
				{
					"indexed": false,
					"name": "_value",
					"type": "uint256"
				}
			],
			"name": "PrimordialApproval",
			"type": "event"
		},
		{
			"anonymous": false,
			"inputs": [
				{
					"indexed": true,
					"name": "from",
					"type": "address"
				},
				{
					"indexed": false,
					"name": "value",
					"type": "uint256"
				}
			],
			"name": "PrimordialBurn",
			"type": "event"
		},
		{
			"anonymous": false,
			"inputs": [
				{
					"indexed": true,
					"name": "from",
					"type": "address"
				},
				{
					"indexed": false,
					"name": "value",
					"type": "uint256"
				},
				{
					"indexed": false,
					"name": "weightedIndex",
					"type": "uint256"
				}
			],
			"name": "PrimordialStake",
			"type": "event"
		},
		{
			"anonymous": false,
			"inputs": [
				{
					"indexed": true,
					"name": "from",
					"type": "address"
				},
				{
					"indexed": false,
					"name": "value",
					"type": "uint256"
				},
				{
					"indexed": false,
					"name": "weightedIndex",
					"type": "uint256"
				}
			],
			"name": "PrimordialUnstake",
			"type": "event"
		},
		{
			"anonymous": false,
			"inputs": [
				{
					"indexed": true,
					"name": "lotOwner",
					"type": "address"
				},
				{
					"indexed": true,
					"name": "lotId",
					"type": "bytes32"
				},
				{
					"indexed": false,
					"name": "index",
					"type": "uint256"
				},
				{
					"indexed": false,
					"name": "tokenAmount",
					"type": "uint256"
				}
			],
			"name": "LotCreation",
			"type": "event"
		},
		{
			"anonymous": false,
			"inputs": [
				{
					"indexed": true,
					"name": "from",
					"type": "address"
				},
				{
					"indexed": true,
					"name": "to",
					"type": "address"
				},
				{
					"indexed": false,
					"name": "value",
					"type": "uint256"
				}
			],
			"name": "Transfer",
			"type": "event"
		},
		{
			"anonymous": false,
			"inputs": [
				{
					"indexed": true,
					"name": "_owner",
					"type": "address"
				},
				{
					"indexed": true,
					"name": "_spender",
					"type": "address"
				},
				{
					"indexed": false,
					"name": "_value",
					"type": "uint256"
				}
			],
			"name": "Approval",
			"type": "event"
		},
		{
			"anonymous": false,
			"inputs": [
				{
					"indexed": true,
					"name": "from",
					"type": "address"
				},
				{
					"indexed": false,
					"name": "value",
					"type": "uint256"
				}
			],
			"name": "Burn",
			"type": "event"
		}
	],
	"bytecode": "0x60806040526004805460ff191660121790553480156200001e57600080fd5b50604051620038833803806200388383398101604090815281516020808401518385015160008054600160a060020a03191633908117825560045460ff16600a0a860260058190559082526006855295902094909455840180519294909301918491849184918491849184916200009c916002919085019062000152565b508051620000b290600390602084019062000152565b5050600060088190556004805460ff19908116909155601180549091166001179055620000ee925090506127106401000000006200011a810204565b5050600c60088190556004805460ff19908116909217905560118054909116905550620001f792505050565b600054600160a060020a031633146200013257600080fd5b60115460ff1615156001146200014757600080fd5b600f91909155601055565b828054600181600116156101000203166002900490600052602060002090601f016020900481019282601f106200019557805160ff1916838001178555620001c5565b82800160010185558215620001c5579182015b82811115620001c5578251825591602001919060010190620001a8565b50620001d3929150620001d7565b5090565b620001f491905b80821115620001d35760008155600101620001de565b90565b61367c80620002076000396000f30060806040526004361061032c5763ffffffff7c010000000000000000000000000000000000000000000000000000000060003504166305fefda7811461033157806306fdde031461034e578063080e74f7146103d8578063095ea7b31461040e5780630aa2454614610446578063153d90491461046d57806318160ddd14610491578063212e28e3146104a657806323b872dd146104bb57806323ceb6d8146104e55780632b687bb914610509578063313ce5671461051e57806331a8aeb314610549578063360f277b1461056d5780633bcd66241461058257806342966c68146105ee57806345ea8a8b1461060657806346878fff1461061b57806349937e251461068c5780634b750334146106945780634f090ab4146106a95780634fbd2695146106c157806350d400e5146106e257806353d6fd59146106f757806354f7dd8c1461071d57806356307efc1461074157806357946b8e14610762578063580b72e11461078357806360217267146107aa578063674813a1146107cb57806367cf17c2146107e057806370a082311461080a57806372d114661461082b578063731a3b061461084057806374ead7b71461086457806379c650681461088b57806379cc6790146108af5780637e904f7b146108d3578063834e9f31146108fa5780638620410b1461090f57806387d4ca93146109245780638a0660451461094e5780638e81c64d1461097257806395d89b411461098d5780639b19251a146109a2578063a545a5d1146109c3578063a6f2ae3a146109d8578063a9059cbb146109e0578063a918887814610a04578063a9f7e66414610a1f578063aaaf8a5214610a46578063b1e19d4514610a6a578063b414d4b614610a8e578063b96d036914610aaf578063ba2f817014610ac4578063bdb9c11f14610ad9578063c1b9981114610b06578063ca4b208b14610b2a578063cae9ca5114610b5b578063d1e5a55214610bc4578063d94ca0f914610beb578063dd1a293a14610c54578063dd62ed3e14610c7b578063e352845514610ca2578063e4849b3214610cc6578063e724529c14610cde578063ea67a17114610d04578063f2fde38b14610d19578063f5bd48c414610d3a575b600080fd5b34801561033d57600080fd5b5061034c600435602435610d5b565b005b34801561035a57600080fd5b50610363610d7d565b6040805160208082528351818301528351919283929083019185019080838360005b8381101561039d578181015183820152602001610385565b50505050905090810190601f1680156103ca5780820380516001836020036101000a031916815260200191505b509250505060405180910390f35b3480156103e457600080fd5b506103f0600435610e08565b60408051938452602084019290925282820152519081900360600190f35b34801561041a57600080fd5b50610432600160a060020a0360043516602435610e81565b604080519115158252519081900360200190f35b34801561045257600080fd5b5061045b610ee8565b60408051918252519081900360200190f35b34801561047957600080fd5b5061045b600160a060020a0360043516602435610eee565b34801561049d57600080fd5b5061045b610f0b565b3480156104b257600080fd5b5061034c610f11565b3480156104c757600080fd5b50610432600160a060020a0360043581169060243516604435610fe8565b3480156104f157600080fd5b50610432600160a060020a0360043516602435611057565b34801561051557600080fd5b5061045b611137565b34801561052a57600080fd5b5061053361113d565b6040805160ff9092168252519081900360200190f35b34801561055557600080fd5b50610432600160a060020a0360043516602435611146565b34801561057957600080fd5b5061045b611263565b34801561058e57600080fd5b50604080516020601f60643560048181013592830184900484028501840190955281845261043294600160a060020a0381351694602480359560443595369560849493019181908401838280828437509497506112699650505050505050565b3480156105fa57600080fd5b506104326004356112b7565b34801561061257600080fd5b5061045b61132f565b34801561062757600080fd5b5061063c600160a060020a036004351661133a565b60408051602080825283518183015283519192839290830191858101910280838360005b83811015610678578181015183820152602001610660565b505050509050019250505060405180910390f35b61034c6113bc565b3480156106a057600080fd5b5061045b6114f2565b3480156106b557600080fd5b506104326004356114f8565b3480156106cd57600080fd5b5061045b600160a060020a03600435166115af565b3480156106ee57600080fd5b5061045b6115c1565b34801561070357600080fd5b5061034c600160a060020a036004351660243515156115c8565b34801561072957600080fd5b506103f0600160a060020a036004351660243561160a565b34801561074d57600080fd5b5061045b600160a060020a03600435166116e0565b34801561076e57600080fd5b5061045b600160a060020a0360043516611713565b34801561078f57600080fd5b50610432600160a060020a0360043516602435604435611725565b3480156107b657600080fd5b5061045b600160a060020a0360043516611766565b3480156107d757600080fd5b5061045b611778565b3480156107ec57600080fd5b50610432600160a060020a0360043581169060243516604435611782565b34801561081657600080fd5b5061045b600160a060020a03600435166119f6565b34801561083757600080fd5b5061045b611a08565b34801561084c57600080fd5b50610432600160a060020a0360043516602435611a0e565b34801561087057600080fd5b50610432600160a060020a0360043516602435604435611b2b565b34801561089757600080fd5b50610432600160a060020a0360043516602435611d48565b3480156108bb57600080fd5b50610432600160a060020a0360043516602435611e60565b3480156108df57600080fd5b50610432600160a060020a0360043516602435604435611f31565b34801561090657600080fd5b5061045b61209f565b34801561091b57600080fd5b5061045b6120a5565b34801561093057600080fd5b50610432600160a060020a03600435811690602435166044356120ab565b34801561095a57600080fd5b50610432600160a060020a03600435166024356121d5565b34801561097e57600080fd5b506104326004356024356122f2565b34801561099957600080fd5b5061036361233a565b3480156109ae57600080fd5b50610432600160a060020a0360043516612395565b3480156109cf57600080fd5b506104326123aa565b61034c6123b8565b3480156109ec57600080fd5b50610432600160a060020a03600435166024356123eb565b348015610a1057600080fd5b5061034c6004356024356123f8565b348015610a2b57600080fd5b50610432600160a060020a036004351660243560443561242e565b348015610a5257600080fd5b50610432600160a060020a0360043516602435612464565b348015610a7657600080fd5b50610432600160a060020a03600435166024356124e2565b348015610a9a57600080fd5b50610432600160a060020a03600435166125e6565b348015610abb57600080fd5b506104326125fb565b348015610ad057600080fd5b50610432612604565b348015610ae557600080fd5b50610432600160a060020a036004358116906024351660443560643561260d565b348015610b1257600080fd5b50610432600160a060020a0360043516602435612645565b348015610b3657600080fd5b50610b3f612831565b60408051600160a060020a039092168252519081900360200190f35b348015610b6757600080fd5b50604080516020600460443581810135601f8101849004840285018401909552848452610432948235600160a060020a03169460248035953695946064949201919081908401838280828437509497506128409650505050505050565b348015610bd057600080fd5b5061045b600160a060020a0360043581169060243516612955565b348015610bf757600080fd5b50604080516020600460443581810135601f8101849004840285018401909552848452610432948235600160a060020a03169460248035953695946064949201919081908401838280828437509497506129729650505050505050565b348015610c6057600080fd5b50610432600160a060020a0360043516602435604435612997565b348015610c8757600080fd5b5061045b600160a060020a03600435811690602435166129cd565b348015610cae57600080fd5b50610432600160a060020a03600435166024356129ea565b348015610cd257600080fd5b5061034c600435612b3e565b348015610cea57600080fd5b5061034c600160a060020a03600435166024351515612bca565b348015610d1057600080fd5b5061045b612c45565b348015610d2557600080fd5b5061034c600160a060020a0360043516612c4b565b348015610d4657600080fd5b5061045b600160a060020a0360043516612c91565b600054600160a060020a03163314610d7257600080fd5b600991909155600a55565b6002805460408051602060018416156101000260001901909316849004601f81018490048402820184019092528181529291830182828015610e005780601f10610dd557610100808354040283529160200191610e00565b820191906000526020600020905b815481529060010190602001808311610de357829003601f168201915b505050505081565b6000806000610e15613629565b60115460ff161515600114610e2957600080fd5b505050600091825250601860209081526040918290208251608081018452815480825260018301549382018490526002830154600160a060020a03169482019490945260039091015460609091018190529192909190565b336000818152600760209081526040808320600160a060020a038716808552908352818420869055815186815291519394909390927f8c5be1e5ebec7d5bd14f71427d1e84f3dd0314c0f7b2291e5b200ac8c7c3b925928290030190a35060015b92915050565b60085481565b601460209081526000928352604080842090915290825290205481565b60055481565b60008054600160a060020a03163314610f2957600080fd5b60115460ff161515600114610f3d57600080fd5b601754610100900460ff1615610f5257600080fd5b60175460ff1615610f6257600080fd5b600e546603fffffffffffc11610f7757600080fd5b506017805460ff19166001179055600e546572815b397ffc906603fffffffffffc90610fa9908363ffffffff612cc416565b10610fdb57600e54610fc9906603fffffffffffc9063ffffffff612cd116565b6017805461ff00191661010017905590505b610fe53382612ce3565b50565b600160a060020a038316600090815260076020908152604080832033845290915281205482111561101857600080fd5b600160a060020a038416600090815260076020908152604080832033845290915290208054839003905561104d848484612fc2565b5060019392505050565b33600081815260016020819052604082205491929160ff161515148061108a5750600054600160a060020a038281169116145b151561109557600080fd5b600160a060020a0384166000908152600d60205260409020546110be908463ffffffff612cc416565b600160a060020a0385166000908152600d60205260409020556005546110ea908463ffffffff612cc416565b600555604080518481529051600160a060020a0386169130917f812c3251d8b2cd027716a7651ace6f9167d7fba4db9eb10df2e0cfe8b7fa48c99181900360200190a35060019392505050565b600f5481565b60045460ff1681565b33600081815260016020819052604082205491929160ff16151514806111795750600054600160a060020a038281169116145b151561118457600080fd5b600160a060020a0384166000908152600660205260409020548311156111a957600080fd5b600160a060020a0384166000908152600660205260409020546111d2908463ffffffff612cd116565b600160a060020a038516600090815260066020908152604080832093909355600c90522054611207908463ffffffff612cc416565b600160a060020a0385166000818152600c6020908152604091829020939093558051868152905191927febedb8b3c678666e7f36970bc8f57abf6d8fa2e828c0da91ea5b75bf68ed101a92918290030190a25060019392505050565b60155481565b60115460009060ff16151560011461128057600080fd5b61128b858584612840565b151561129657600080fd5b6112a1858484612972565b15156112ac57600080fd5b506001949350505050565b336000908152600660205260408120548211156112d357600080fd5b3360008181526006602090815260409182902080548690039055600580548690039055815185815291517fcc16f5dbb4873280815c1ee09dbd06736cffcc184412cf7a71a0fdb75d397ca59281900390910190a2506001919050565b6603fffffffffffc81565b60115460609060ff16151560011461135157600080fd5b600160a060020a038216600090815260196020908152604091829020805483518184028101840190945280845290918301828280156113b057602002820191906000526020600020905b8154815260019091019060200180831161139b575b50505050509050919050565b601154600090819060ff1615156001146113d557600080fd5b601754610100900460ff16156113ea57600080fd5b600e546603fffffffffffc116113ff57600080fd5b60105460001061140e57600080fd5b6000341161141b57600080fd5b60105461142f90349063ffffffff6131aa16565b9150600090506603fffffffffffc61145283600e54612cc490919063ffffffff16565b106114ac57600e54611472906603fffffffffffc9063ffffffff612cd116565b6017805461ff0019166101001790556010549092506114a99061149c90849063ffffffff6131bf16565b349063ffffffff612cd116565b90505b6114b63383612ce3565b60008111156114ee57604051339082156108fc029083906000818181858888f193505050501580156114ec573d6000803e3d6000fd5b505b5050565b60095481565b60115460009060ff16151560011461150f57600080fd5b3360009081526012602052604090205482111561152b57600080fd5b3360009081526012602052604090205461154b908363ffffffff612cd116565b33600090815260126020526040902055600e5461156e908363ffffffff612cd116565b600e5560408051838152905133917f8ca2ca4355ea7f1e1880fa3d5f2dc524f82297c88282d5d95badd4041b8a8edb919081900360200190a2506001919050565b600d6020526000908152604090205481565b620f424081565b600054600160a060020a031633146115df57600080fd5b600160a060020a03919091166000908152600160205260409020805460ff1916911515919091179055565b6000806000611617613629565b60115460ff16151560011461162b57600080fd5b600160a060020a038616600090815260196020526040902054851061164f57600080fd5b600160a060020a0386166000908152601960205260408120805460189291908890811061167857fe5b600091825260208083209190910154835282810193909352604091820190208151608081018352815480825260018301549482018590526002830154600160a060020a0316938201939093526003909101546060909101819052909891975095509350505050565b60115460009060ff1615156001146116f757600080fd5b50600160a060020a03166000908152601b602052604090205490565b60126020526000908152604090205481565b60115460009060ff16151560011461173c57600080fd5b6117468484610e81565b151561175157600080fd5b61175b8483612464565b151561104d57600080fd5b600c6020526000908152604090205481565b6572815b397ffc81565b60008061178d613629565b60115460ff1615156001146117a157600080fd5b600160a060020a03861660009081526013602090815260408083203384529091529020548411156117d157600080fd5b600160a060020a0386166000908152601360209081526040808320338452909152902054611805908563ffffffff612cd116565b600160a060020a0387166000818152601360209081526040808320338452825280832094909455918152601b909152205461184390869086906131e8565b6000818152601860209081526040918290208251608081018452815481526001820154928101929092526002810154600160a060020a0390811693830184905260039091015460608301529294509250908616146118a057600080fd5b600160a060020a038086166000908152601b60208181526040808420546012835281852054958c1685529282529283902054835160e060020a635d8d946102815260048101939093526024830194909452604482019390935260648101879052905173__AOLibrary_____________________________92635d8d94619260848082019391829003018186803b15801561193957600080fd5b505af415801561194d573d6000803e3d6000fd5b505050506040513d602081101561196357600080fd5b5051600160a060020a0386166000908152601b602052604090205561198986868661336d565b151561199457600080fd5b805160408083015160208085015160608601518451918252918101919091528251600160a060020a03909216927f516066f761a431d16b9e8d52e777640dcc66f5231c174577529f12b67d0d415792918290030190a350600195945050505050565b60066020526000908152604090205481565b60105481565b33600081815260016020819052604082205491929160ff1615151480611a415750600054600160a060020a038281169116145b1515611a4c57600080fd5b600160a060020a0384166000908152600c6020526040902054831115611a7157600080fd5b600160a060020a0384166000908152600c6020526040902054611a9a908463ffffffff612cd116565b600160a060020a0385166000908152600c6020908152604080832093909355600690522054611acf908463ffffffff612cc416565b600160a060020a038516600081815260066020908152604091829020939093558051868152905191927f85082129d87b2fe11527cb1b3b7a520aeb5aa6913f88a3d8757fe40d1db02fdd92918290030190a25060019392505050565b33600081815260016020819052604082205491929160ff1615151480611b5e5750600054600160a060020a038281169116145b1515611b6957600080fd5b60115460ff161515600114611b7d57600080fd5b600160a060020a0385166000908152601460209081526040808320868452909152902054841115611bad57600080fd5b600160a060020a0385166000908152601460209081526040808320868452909152902054611be1908563ffffffff612cd116565b600160a060020a0386166000818152601460209081526040808320888452825280832094909455918152601b825282812054601283529083902054835160e060020a635d8d9461028152600481019290925260248201526044810186905260648101879052915173__AOLibrary_____________________________92635d8d9461926084808301939192829003018186803b158015611c8057600080fd5b505af4158015611c94573d6000803e3d6000fd5b505050506040513d6020811015611caa57600080fd5b5051600160a060020a0386166000908152601b6020908152604080832093909355601290522054611ce1908563ffffffff612cc416565b600160a060020a038616600081815260126020908152604091829020939093558051878152928301869052805191927f7bcdc377a1fa8b0dd654d64d7337143be4ce1250ada31f3b1cdac27dea65d3a3929081900390910190a2600191505b509392505050565b33600081815260016020819052604082205491929160ff1615151480611d7b5750600054600160a060020a038281169116145b1515611d8657600080fd5b600160a060020a038416600090815260066020526040902054611daf908463ffffffff612cc416565b600160a060020a038516600090815260066020526040902055600554611ddb908463ffffffff612cc416565b60055560408051848152905130916000917fddf252ad1be2c89b69c2b068fc378daa952ba7f163c4a11628f55a4df523b3ef9181900360200190a3604080518481529051600160a060020a0386169130917fddf252ad1be2c89b69c2b068fc378daa952ba7f163c4a11628f55a4df523b3ef9181900360200190a35060019392505050565b600160a060020a038216600090815260066020526040812054821115611e8557600080fd5b600160a060020a0383166000908152600760209081526040808320338452909152902054821115611eb557600080fd5b600160a060020a0383166000818152600660209081526040808320805487900390556007825280832033845282529182902080548690039055600580548690039055815185815291517fcc16f5dbb4873280815c1ee09dbd06736cffcc184412cf7a71a0fdb75d397ca59281900390910190a250600192915050565b33600081815260016020819052604082205491929160ff1615151480611f645750600054600160a060020a038281169116145b1515611f6f57600080fd5b60115460ff161515600114611f8357600080fd5b600160a060020a038516600090815260126020526040902054841115611fa857600080fd5b600160a060020a0385166000908152601b60205260409020548314611fcc57600080fd5b600160a060020a038516600090815260126020526040902054611ff5908563ffffffff612cd116565b600160a060020a0386166000908152601260209081526040808320939093556014815282822086835290522054612032908563ffffffff612cc416565b600160a060020a0386166000818152601460209081526040808320888452825291829020939093558051878152928301869052805191927fe62430bd00d68dd82de89addd3b7e4ce6bd50eb278f53dfb7fa7dac47643098d929081900390910190a2506001949350505050565b600e5481565b600a5481565b33600081815260016020819052604082205491929160ff16151514806120de5750600054600160a060020a038281169116145b15156120e957600080fd5b600160a060020a03851660009081526006602052604090205483111561210e57600080fd5b600160a060020a038516600090815260066020526040902054612137908463ffffffff612cd116565b600160a060020a038087166000908152600660209081526040808320949094559187168152600d9091522054612173908463ffffffff612cc416565b600160a060020a038086166000818152600d602090815260409182902094909455805187815290519193928916927f812c3251d8b2cd027716a7651ace6f9167d7fba4db9eb10df2e0cfe8b7fa48c992918290030190a3506001949350505050565b33600081815260016020819052604082205491929160ff16151514806122085750600054600160a060020a038281169116145b151561221357600080fd5b600160a060020a0384166000908152600d602052604090205483111561223857600080fd5b600160a060020a0384166000908152600d6020526040902054612261908463ffffffff612cd116565b600160a060020a0385166000908152600d6020908152604080832093909355600690522054612296908463ffffffff612cc416565b600160a060020a038516600081815260066020908152604091829020939093558051868152905191927f85538b0b045118ba300aa14d9701eab875903dd2976d62d855ec959a3e6cffb192918290030190a25060019392505050565b60115460009060ff16151560011461230957600080fd5b612312836112b7565b151561231d57600080fd5b612326826114f8565b151561233157600080fd5b50600192915050565b6003805460408051602060026001851615610100026000190190941693909304601f81018490048402820184019092528181529291830182828015610e005780601f10610dd557610100808354040283529160200191610e00565b60016020526000908152604090205460ff1681565b601754610100900460ff1681565b600080600a541115156123ca57600080fd5b600a546123de90349063ffffffff6131aa16565b9050610fe5303383612fc2565b6000612331338484612fc2565b600054600160a060020a0316331461240f57600080fd5b60115460ff16151560011461242357600080fd5b600f91909155601055565b60115460009060ff16151560011461244557600080fd5b61244f84846123eb565b151561245a57600080fd5b61175b8483612645565b60115460009060ff16151560011461247b57600080fd5b336000818152601360209081526040808320600160a060020a03881680855290835292819020869055805186815290519293927f199f64ba6278b91ed8e7f45335d9fdbfa2d094b1fdc34465229e79047fcea3ce929181900390910190a350600192915050565b33600081815260016020819052604082205491929160ff16151514806125155750600054600160a060020a038281169116145b151561252057600080fd5b600160a060020a03841660009081526006602052604090205483111561254557600080fd5b600160a060020a03841660009081526006602052604090205461256e908463ffffffff612cd116565b600160a060020a03851660009081526006602052604090205560055461259a908463ffffffff612cd116565b600555604080518481529051600160a060020a038616917fcc16f5dbb4873280815c1ee09dbd06736cffcc184412cf7a71a0fdb75d397ca5919081900360200190a25060019392505050565b600b6020526000908152604090205460ff1681565b60175460ff1681565b60115460ff1681565b60115460009060ff16151560011461262457600080fd5b61262f858585610fe8565b151561263a57600080fd5b6112a1858584611782565b600080612650613629565b60115460ff16151560011461266457600080fd5b336000908152601b602052604090205461268190869086906131e8565b6000818152601860209081526040918290208251608081018452815481526001820154928101929092526002810154600160a060020a0390811693830184905260039091015460608301529294509250908616146126de57600080fd5b600160a060020a0385166000908152601b602081815260408084205460128352818520543386529383529381902054815160e060020a635d8d946102815260048101959095526024850193909352604484019290925260648301879052905173__AOLibrary_____________________________92635d8d9461926084808301939192829003018186803b15801561277557600080fd5b505af4158015612789573d6000803e3d6000fd5b505050506040513d602081101561279f57600080fd5b5051600160a060020a0386166000908152601b60205260409020556127c533868661336d565b15156127d057600080fd5b805160408083015160208085015160608601518451918252918101919091528251600160a060020a03909216927f516066f761a431d16b9e8d52e777640dcc66f5231c174577529f12b67d0d415792918290030190a3506001949350505050565b600054600160a060020a031681565b60008361284d8185610e81565b15611d40576040517f8f4ffcb10000000000000000000000000000000000000000000000000000000081523360048201818152602483018790523060448401819052608060648501908152875160848601528751600160a060020a03871695638f4ffcb195948b94938b939192909160a490910190602085019080838360005b838110156128e55781810151838201526020016128cd565b50505050905090810190601f1680156129125780820380516001836020036101000a031916815260200191505b5095505050505050600060405180830381600087803b15801561293457600080fd5b505af1158015612948573d6000803e3d6000fd5b5050505060019150611d40565b601360209081526000928352604080842090915290825290205481565b601154600090819060ff16151560011461298b57600080fd5b508361284d8185612464565b60115460009060ff1615156001146129ae57600080fd5b6129b88484611e60565b15156129c357600080fd5b61175b84836129ea565b600760209081526000928352604080842090915290825290205481565b60115460009060ff161515600114612a0157600080fd5b600160a060020a038316600090815260126020526040902054821115612a2657600080fd5b600160a060020a0383166000908152601360209081526040808320338452909152902054821115612a5657600080fd5b600160a060020a038316600090815260126020526040902054612a7f908363ffffffff612cd116565b600160a060020a0384166000908152601260209081526040808320939093556013815282822033835290522054612abc908363ffffffff612cd116565b600160a060020a0384166000908152601360209081526040808320338452909152902055600e54612af3908363ffffffff612cd116565b600e55604080518381529051600160a060020a038516917f8ca2ca4355ea7f1e1880fa3d5f2dc524f82297c88282d5d95badd4041b8a8edb919081900360200190a250600192915050565b600080600954111515612b5057600080fd5b506009543090612b6790839063ffffffff6131bf16565b600160a060020a038216311015612b7d57600080fd5b612b88333084612fc2565b60095433906108fc90612ba290859063ffffffff6131bf16565b6040518115909202916000818181858888f193505050501580156114ec573d6000803e3d6000fd5b600054600160a060020a03163314612be157600080fd5b600160a060020a0382166000818152600b6020908152604091829020805460ff191685151590811790915582519384529083015280517f48335238b4855f35377ed80f164e8c6f3c366e54ac00b96a6402d4a9814a03a59281900390910190a15050565b60165481565b600054600160a060020a03163314612c6257600080fd5b6000805473ffffffffffffffffffffffffffffffffffffffff1916600160a060020a0392909216919091179055565b60115460009060ff161515600114612ca857600080fd5b50600160a060020a031660009081526019602052604090205490565b81810182811015610ee257fe5b600082821115612cdd57fe5b50900390565b60008080600160a060020a0385161515612cfc57600080fd5b60008411612d0957600080fd5b60158054600190810191829055601680549091019055604080516c01000000000000000000000000308102602080840191909152600160a060020a038a16909102603483015260488083019490945282518083039094018452606890910191829052825182918401908083835b60208310612d955780518252601f199092019160209182019101612d76565b51815160209384036101000a60001901801990921691161790526040805192909401829003909120600081815260189092529290206002015491965050600160a060020a0316159150612de9905057600080fd5b6000838152601860205260409020838155601654909250612e1390620f424063ffffffff6131bf16565b600183810191825560028401805473ffffffffffffffffffffffffffffffffffffffff1916600160a060020a03891690811790915560038501878155600082815260196020908152604080832080549687018155835281832086018a9055848352601a82528083208a84528252808320869055938252601b81528382205460128252918490205495549254845160e060020a635d8d94610281526004810193909352602483019690965260448201929092526064810194909452905191935073__AOLibrary_____________________________92635d8d94619260848083019392829003018186803b158015612f0957600080fd5b505af4158015612f1d573d6000803e3d6000fd5b505050506040513d6020811015612f3357600080fd5b5051600160a060020a0386166000908152601b6020526040902055612f588585613550565b1515612f6357600080fd5b81546002830154600184015460038501546040805192835260208301919091528051600160a060020a03909316927f516066f761a431d16b9e8d52e777640dcc66f5231c174577529f12b67d0d41579281900390910190a35050505050565b6000600160a060020a0383161515612fd957600080fd5b600160a060020a038416600090815260066020526040902054821115612ffe57600080fd5b600160a060020a038316600090815260066020526040902054613027818463ffffffff612cc416565b101561303257600080fd5b600160a060020a0384166000908152600b602052604090205460ff161561305857600080fd5b600160a060020a0383166000908152600b602052604090205460ff161561307e57600080fd5b600160a060020a038084166000908152600660205260408082205492871682529020546130b09163ffffffff612cc416565b600160a060020a0385166000908152600660205260409020549091506130dc908363ffffffff612cd116565b600160a060020a038086166000908152600660205260408082209390935590851681522054613111908363ffffffff612cc416565b600160a060020a0380851660008181526006602090815260409182902094909455805186815290519193928816927fddf252ad1be2c89b69c2b068fc378daa952ba7f163c4a11628f55a4df523b3ef92918290030190a3600160a060020a03808416600090815260066020526040808220549287168252902054829161319d919063ffffffff612cc416565b146131a457fe5b50505050565b600081838115156131b757fe5b049392505050565b60008215156131d057506000610ee2565b508181028183828115156131e057fe5b0414610ee257fe5b6000808080600160a060020a038716151561320257600080fd5b6000861161320f57600080fd5b6015805460010190819055604080516c01000000000000000000000000308102602080840191909152600160a060020a038c16909102603483015260488083019490945282518083039094018452606890910191829052825182918401908083835b602083106132905780518252601f199092019160209182019101613271565b51815160209384036101000a60001901801990921691161790526040805192909401829003909120600081815260189092529290206002015491965050600160a060020a03161591506132e4905057600080fd5b5050600081815260186020908152604080832084815560018082019790975560028101805473ffffffffffffffffffffffffffffffffffffffff1916600160a060020a039a909a16998a17905560030196909655868252601981528582208054958601815582528082208501839055958152601a86528481208282529095529290932055919050565b600080600160a060020a038416151561338557600080fd5b600160a060020a0385166000908152601260205260409020548311156133aa57600080fd5b600160a060020a0384166000908152601260205260409020546133d3818563ffffffff612cc416565b10156133de57600080fd5b600160a060020a0385166000908152600b602052604090205460ff161561340457600080fd5b600160a060020a0384166000908152600b602052604090205460ff161561342a57600080fd5b600160a060020a0380851660009081526012602052604080822054928816825290205461345c9163ffffffff612cc416565b600160a060020a038616600090815260126020526040902054909150613488908463ffffffff612cd116565b600160a060020a0380871660009081526012602052604080822093909355908616815220546134bd908463ffffffff612cc416565b600160a060020a0380861660008181526012602090815260409182902094909455805187815290519193928916927fa906a7bdab67ba77819fbd926440353e67b66c398aaeffd1fd212ddae941bbe292918290030190a3600160a060020a038085166000908152601260205260408082205492881682529020548291613549919063ffffffff612cc416565b146112ac57fe5b600160a060020a038216600090815260126020526040812054613579908363ffffffff612cc416565b600160a060020a038416600090815260126020526040902055600e546135a5908363ffffffff612cc416565b600e5560408051838152905130916000917fa906a7bdab67ba77819fbd926440353e67b66c398aaeffd1fd212ddae941bbe29181900360200190a3604080518381529051600160a060020a0385169130917fa906a7bdab67ba77819fbd926440353e67b66c398aaeffd1fd212ddae941bbe29181900360200190a350600192915050565b604080516080810182526000808252602082018190529181018290526060810191909152905600a165627a7a72305820336aa974a91e51bd4007d3d93029ec837f3c0a7b824ded2cfe75ed3a0b6fcf4d0029",
	"source": "pragma solidity ^0.4.24;\n\nimport \"./AOToken.sol\";\n\ncontract AOTera is AOToken {\n\t/**\n\t * @dev Constructor function\n\t */\n\tconstructor(uint256 initialSupply, string tokenName, string tokenSymbol)\n\t\tAOToken(initialSupply, tokenName, tokenSymbol) public {\n\t\tpowerOfTen = 12;\n\t\tdecimals = 12;\n\t\tnetworkExchangeContract = false;\n\t}\n}\n",
	"sourcePath": "/home/jmulyono/ao-contracts/contracts/AOTera.sol",
	"compiler": {
		"name": "solc",
		"version": "0.4.24+commit.e67f0147.Emscripten.clang"
	},
	"schemaVersion": "2.0.1",
	"updatedAt": "2018-08-21T11:56:22.066Z"
}