{
	"contractName": "AOTera",
	"abi": [
		{
			"constant": false,
			"inputs": [
				{
					"name": "newSellPrice",
					"type": "uint256"
				},
				{
					"name": "newBuyPrice",
					"type": "uint256"
				}
			],
			"name": "setPrices",
			"outputs": [],
			"payable": false,
			"stateMutability": "nonpayable",
			"type": "function"
		},
		{
			"constant": true,
			"inputs": [],
			"name": "name",
			"outputs": [
				{
					"name": "",
					"type": "string"
				}
			],
			"payable": false,
			"stateMutability": "view",
			"type": "function"
		},
		{
			"constant": false,
			"inputs": [
				{
					"name": "_spender",
					"type": "address"
				},
				{
					"name": "_value",
					"type": "uint256"
				}
			],
			"name": "approve",
			"outputs": [
				{
					"name": "success",
					"type": "bool"
				}
			],
			"payable": false,
			"stateMutability": "nonpayable",
			"type": "function"
		},
		{
			"constant": true,
			"inputs": [],
			"name": "powerOfTen",
			"outputs": [
				{
					"name": "",
					"type": "uint256"
				}
			],
			"payable": false,
			"stateMutability": "view",
			"type": "function"
		},
		{
			"constant": true,
			"inputs": [],
			"name": "totalSupply",
			"outputs": [
				{
					"name": "",
					"type": "uint256"
				}
			],
			"payable": false,
			"stateMutability": "view",
			"type": "function"
		},
		{
			"constant": false,
			"inputs": [
				{
					"name": "_nameAccountRecoveryAddress",
					"type": "address"
				}
			],
			"name": "setNameAccountRecoveryAddress",
			"outputs": [],
			"payable": false,
			"stateMutability": "nonpayable",
			"type": "function"
		},
		{
			"constant": false,
			"inputs": [
				{
					"name": "_from",
					"type": "address"
				},
				{
					"name": "_to",
					"type": "address"
				},
				{
					"name": "_value",
					"type": "uint256"
				}
			],
			"name": "transferFrom",
			"outputs": [
				{
					"name": "success",
					"type": "bool"
				}
			],
			"payable": false,
			"stateMutability": "nonpayable",
			"type": "function"
		},
		{
			"constant": true,
			"inputs": [],
			"name": "decimals",
			"outputs": [
				{
					"name": "",
					"type": "uint8"
				}
			],
			"payable": false,
			"stateMutability": "view",
			"type": "function"
		},
		{
			"constant": false,
			"inputs": [
				{
					"name": "_from",
					"type": "address"
				},
				{
					"name": "_value",
					"type": "uint256"
				}
			],
			"name": "stakeFrom",
			"outputs": [
				{
					"name": "",
					"type": "bool"
				}
			],
			"payable": false,
			"stateMutability": "nonpayable",
			"type": "function"
		},
		{
			"constant": false,
			"inputs": [
				{
					"name": "target",
					"type": "address"
				},
				{
					"name": "mintedAmount",
					"type": "uint256"
				}
			],
			"name": "mint",
			"outputs": [
				{
					"name": "",
					"type": "bool"
				}
			],
			"payable": false,
			"stateMutability": "nonpayable",
			"type": "function"
		},
		{
			"constant": false,
			"inputs": [
				{
					"name": "_value",
					"type": "uint256"
				}
			],
			"name": "burn",
			"outputs": [
				{
					"name": "success",
					"type": "bool"
				}
			],
			"payable": false,
			"stateMutability": "nonpayable",
			"type": "function"
		},
		{
			"constant": true,
			"inputs": [],
			"name": "sellPrice",
			"outputs": [
				{
					"name": "",
					"type": "uint256"
				}
			],
			"payable": false,
			"stateMutability": "view",
			"type": "function"
		},
		{
			"constant": true,
			"inputs": [],
			"name": "nameTAOPositionAddress",
			"outputs": [
				{
					"name": "",
					"type": "address"
				}
			],
			"payable": false,
			"stateMutability": "view",
			"type": "function"
		},
		{
			"constant": true,
			"inputs": [
				{
					"name": "",
					"type": "address"
				}
			],
			"name": "escrowedBalance",
			"outputs": [
				{
					"name": "",
					"type": "uint256"
				}
			],
			"payable": false,
			"stateMutability": "view",
			"type": "function"
		},
		{
			"constant": false,
			"inputs": [
				{
					"name": "_account",
					"type": "address"
				},
				{
					"name": "_whitelist",
					"type": "bool"
				}
			],
			"name": "setWhitelist",
			"outputs": [],
			"payable": false,
			"stateMutability": "nonpayable",
			"type": "function"
		},
		{
			"constant": false,
			"inputs": [
				{
					"name": "_nameTAOPositionAddress",
					"type": "address"
				}
			],
			"name": "setNameTAOPositionAddress",
			"outputs": [],
			"payable": false,
			"stateMutability": "nonpayable",
			"type": "function"
		},
		{
			"constant": true,
			"inputs": [
				{
					"name": "",
					"type": "address"
				}
			],
			"name": "stakedBalance",
			"outputs": [
				{
					"name": "",
					"type": "uint256"
				}
			],
			"payable": false,
			"stateMutability": "view",
			"type": "function"
		},
		{
			"constant": false,
			"inputs": [
				{
					"name": "_namePublicKeyAddress",
					"type": "address"
				}
			],
			"name": "setNamePublicKeyAddress",
			"outputs": [],
			"payable": false,
			"stateMutability": "nonpayable",
			"type": "function"
		},
		{
			"constant": true,
			"inputs": [
				{
					"name": "",
					"type": "address"
				}
			],
			"name": "balanceOf",
			"outputs": [
				{
					"name": "",
					"type": "uint256"
				}
			],
			"payable": false,
			"stateMutability": "view",
			"type": "function"
		},
		{
			"constant": false,
			"inputs": [
				{
					"name": "_from",
					"type": "address"
				},
				{
					"name": "_value",
					"type": "uint256"
				}
			],
			"name": "unstakeFrom",
			"outputs": [
				{
					"name": "",
					"type": "bool"
				}
			],
			"payable": false,
			"stateMutability": "nonpayable",
			"type": "function"
		},
		{
			"constant": false,
			"inputs": [
				{
					"name": "_from",
					"type": "address"
				},
				{
					"name": "_value",
					"type": "uint256"
				}
			],
			"name": "burnFrom",
			"outputs": [
				{
					"name": "success",
					"type": "bool"
				}
			],
			"payable": false,
			"stateMutability": "nonpayable",
			"type": "function"
		},
		{
			"constant": false,
			"inputs": [
				{
					"name": "_nameId",
					"type": "address"
				},
				{
					"name": "_from",
					"type": "address"
				},
				{
					"name": "_to",
					"type": "address"
				},
				{
					"name": "_value",
					"type": "uint256"
				}
			],
			"name": "transferBetweenPublicKeys",
			"outputs": [
				{
					"name": "success",
					"type": "bool"
				}
			],
			"payable": false,
			"stateMutability": "nonpayable",
			"type": "function"
		},
		{
			"constant": true,
			"inputs": [],
			"name": "buyPrice",
			"outputs": [
				{
					"name": "",
					"type": "uint256"
				}
			],
			"payable": false,
			"stateMutability": "view",
			"type": "function"
		},
		{
			"constant": false,
			"inputs": [
				{
					"name": "_from",
					"type": "address"
				},
				{
					"name": "_to",
					"type": "address"
				},
				{
					"name": "_value",
					"type": "uint256"
				}
			],
			"name": "escrowFrom",
			"outputs": [
				{
					"name": "",
					"type": "bool"
				}
			],
			"payable": false,
			"stateMutability": "nonpayable",
			"type": "function"
		},
		{
			"constant": false,
			"inputs": [
				{
					"name": "_from",
					"type": "address"
				},
				{
					"name": "_value",
					"type": "uint256"
				}
			],
			"name": "unescrowFrom",
			"outputs": [
				{
					"name": "",
					"type": "bool"
				}
			],
			"payable": false,
			"stateMutability": "nonpayable",
			"type": "function"
		},
		{
			"constant": true,
			"inputs": [],
			"name": "symbol",
			"outputs": [
				{
					"name": "",
					"type": "string"
				}
			],
			"payable": false,
			"stateMutability": "view",
			"type": "function"
		},
		{
			"constant": true,
			"inputs": [
				{
					"name": "",
					"type": "address"
				}
			],
			"name": "whitelist",
			"outputs": [
				{
					"name": "",
					"type": "bool"
				}
			],
			"payable": false,
			"stateMutability": "view",
			"type": "function"
		},
		{
			"constant": false,
			"inputs": [
				{
					"name": "_from",
					"type": "address"
				},
				{
					"name": "_to",
					"type": "address"
				},
				{
					"name": "_value",
					"type": "uint256"
				}
			],
			"name": "whitelistTransferFrom",
			"outputs": [
				{
					"name": "success",
					"type": "bool"
				}
			],
			"payable": false,
			"stateMutability": "nonpayable",
			"type": "function"
		},
		{
			"constant": true,
			"inputs": [],
			"name": "nameAccountRecoveryAddress",
			"outputs": [
				{
					"name": "",
					"type": "address"
				}
			],
			"payable": false,
			"stateMutability": "view",
			"type": "function"
		},
		{
			"constant": false,
			"inputs": [],
			"name": "buy",
			"outputs": [],
			"payable": true,
			"stateMutability": "payable",
			"type": "function"
		},
		{
			"constant": false,
			"inputs": [
				{
					"name": "_to",
					"type": "address"
				},
				{
					"name": "_value",
					"type": "uint256"
				}
			],
			"name": "transfer",
			"outputs": [
				{
					"name": "success",
					"type": "bool"
				}
			],
			"payable": false,
			"stateMutability": "nonpayable",
			"type": "function"
		},
		{
			"constant": true,
			"inputs": [],
			"name": "theAO",
			"outputs": [
				{
					"name": "",
					"type": "address"
				}
			],
			"payable": false,
			"stateMutability": "view",
			"type": "function"
		},
		{
			"constant": false,
			"inputs": [
				{
					"name": "_from",
					"type": "address"
				},
				{
					"name": "_value",
					"type": "uint256"
				}
			],
			"name": "whitelistBurnFrom",
			"outputs": [
				{
					"name": "success",
					"type": "bool"
				}
			],
			"payable": false,
			"stateMutability": "nonpayable",
			"type": "function"
		},
		{
			"constant": true,
			"inputs": [
				{
					"name": "",
					"type": "address"
				}
			],
			"name": "frozenAccount",
			"outputs": [
				{
					"name": "",
					"type": "bool"
				}
			],
			"payable": false,
			"stateMutability": "view",
			"type": "function"
		},
		{
			"constant": false,
			"inputs": [
				{
					"name": "_spender",
					"type": "address"
				},
				{
					"name": "_value",
					"type": "uint256"
				},
				{
					"name": "_extraData",
					"type": "bytes"
				}
			],
			"name": "approveAndCall",
			"outputs": [
				{
					"name": "success",
					"type": "bool"
				}
			],
			"payable": false,
			"stateMutability": "nonpayable",
			"type": "function"
		},
		{
			"constant": false,
			"inputs": [
				{
					"name": "target",
					"type": "address"
				},
				{
					"name": "mintedAmount",
					"type": "uint256"
				}
			],
			"name": "mintEscrow",
			"outputs": [
				{
					"name": "",
					"type": "bool"
				}
			],
			"payable": false,
			"stateMutability": "nonpayable",
			"type": "function"
		},
		{
			"constant": true,
			"inputs": [],
			"name": "namePublicKeyAddress",
			"outputs": [
				{
					"name": "",
					"type": "address"
				}
			],
			"payable": false,
			"stateMutability": "view",
			"type": "function"
		},
		{
			"constant": true,
			"inputs": [
				{
					"name": "",
					"type": "address"
				},
				{
					"name": "",
					"type": "address"
				}
			],
			"name": "allowance",
			"outputs": [
				{
					"name": "",
					"type": "uint256"
				}
			],
			"payable": false,
			"stateMutability": "view",
			"type": "function"
		},
		{
			"constant": false,
			"inputs": [
				{
					"name": "amount",
					"type": "uint256"
				}
			],
			"name": "sell",
			"outputs": [],
			"payable": false,
			"stateMutability": "nonpayable",
			"type": "function"
		},
		{
			"constant": false,
			"inputs": [
				{
					"name": "target",
					"type": "address"
				},
				{
					"name": "freeze",
					"type": "bool"
				}
			],
			"name": "freezeAccount",
			"outputs": [],
			"payable": false,
			"stateMutability": "nonpayable",
			"type": "function"
		},
		{
			"constant": false,
			"inputs": [
				{
					"name": "_recipient",
					"type": "address"
				},
				{
					"name": "_amount",
					"type": "uint256"
				}
			],
			"name": "transferEth",
			"outputs": [],
			"payable": false,
			"stateMutability": "nonpayable",
			"type": "function"
		},
		{
			"constant": false,
			"inputs": [
				{
					"name": "_theAO",
					"type": "address"
				}
			],
			"name": "transferOwnership",
			"outputs": [],
			"payable": false,
			"stateMutability": "nonpayable",
			"type": "function"
		},
		{
			"inputs": [
				{
					"name": "_name",
					"type": "string"
				},
				{
					"name": "_symbol",
					"type": "string"
				},
				{
					"name": "_nameTAOPositionAddress",
					"type": "address"
				},
				{
					"name": "_namePublicKeyAddress",
					"type": "address"
				},
				{
					"name": "_nameAccountRecoveryAddress",
					"type": "address"
				}
			],
			"payable": false,
			"stateMutability": "nonpayable",
			"type": "constructor"
		},
		{
			"anonymous": false,
			"inputs": [
				{
					"indexed": false,
					"name": "target",
					"type": "address"
				},
				{
					"indexed": false,
					"name": "frozen",
					"type": "bool"
				}
			],
			"name": "FrozenFunds",
			"type": "event"
		},
		{
			"anonymous": false,
			"inputs": [
				{
					"indexed": true,
					"name": "from",
					"type": "address"
				},
				{
					"indexed": false,
					"name": "value",
					"type": "uint256"
				}
			],
			"name": "Stake",
			"type": "event"
		},
		{
			"anonymous": false,
			"inputs": [
				{
					"indexed": true,
					"name": "from",
					"type": "address"
				},
				{
					"indexed": false,
					"name": "value",
					"type": "uint256"
				}
			],
			"name": "Unstake",
			"type": "event"
		},
		{
			"anonymous": false,
			"inputs": [
				{
					"indexed": true,
					"name": "from",
					"type": "address"
				},
				{
					"indexed": true,
					"name": "to",
					"type": "address"
				},
				{
					"indexed": false,
					"name": "value",
					"type": "uint256"
				}
			],
			"name": "Escrow",
			"type": "event"
		},
		{
			"anonymous": false,
			"inputs": [
				{
					"indexed": true,
					"name": "from",
					"type": "address"
				},
				{
					"indexed": false,
					"name": "value",
					"type": "uint256"
				}
			],
			"name": "Unescrow",
			"type": "event"
		},
		{
			"anonymous": false,
			"inputs": [
				{
					"indexed": true,
					"name": "from",
					"type": "address"
				},
				{
					"indexed": true,
					"name": "to",
					"type": "address"
				},
				{
					"indexed": false,
					"name": "value",
					"type": "uint256"
				}
			],
			"name": "Transfer",
			"type": "event"
		},
		{
			"anonymous": false,
			"inputs": [
				{
					"indexed": true,
					"name": "_owner",
					"type": "address"
				},
				{
					"indexed": true,
					"name": "_spender",
					"type": "address"
				},
				{
					"indexed": false,
					"name": "_value",
					"type": "uint256"
				}
			],
			"name": "Approval",
			"type": "event"
		},
		{
			"anonymous": false,
			"inputs": [
				{
					"indexed": true,
					"name": "from",
					"type": "address"
				},
				{
					"indexed": false,
					"name": "value",
					"type": "uint256"
				}
			],
			"name": "Burn",
			"type": "event"
		}
	],
	"bytecode": "0x60806040523480156200001157600080fd5b5060405162002a8c38038062002a8c833981018060405260a08110156200003757600080fd5b8101908080516401000000008111156200005057600080fd5b820160208101848111156200006457600080fd5b81516401000000008111828201871017156200007f57600080fd5b505092919060200180516401000000008111156200009c57600080fd5b82016020810184811115620000b057600080fd5b8151640100000000811182820187101715620000cb57600080fd5b50506020820151604083015160609093015160008054600160a060020a03191633179055919450925084848484846200010d8364010000000062000184810204565b62000121826401000000006200028c810204565b620001358164010000000062000394810204565b84516200014a9060089060208801906200049c565b508351620001609060099060208701906200049c565b5050600a8054600c80805560ff199091161790555062000541975050505050505050565b600054600154604080517ff66afcac000000000000000000000000000000000000000000000000000000008152336004820152600160a060020a0393841660248201529290911660448301525173__AOLibrary_____________________________9163f66afcac916064808301926020929190829003018186803b1580156200020d57600080fd5b505af415801562000222573d6000803e3d6000fd5b505050506040513d60208110156200023957600080fd5b505115156200024757600080fd5b600160a060020a03811615156200025d57600080fd5b60018054600160a060020a0319908116600160a060020a03938416179182905560058054929093169116179055565b600054600154604080517ff66afcac000000000000000000000000000000000000000000000000000000008152336004820152600160a060020a0393841660248201529290911660448301525173__AOLibrary_____________________________9163f66afcac916064808301926020929190829003018186803b1580156200031557600080fd5b505af41580156200032a573d6000803e3d6000fd5b505050506040513d60208110156200034157600080fd5b505115156200034f57600080fd5b600160a060020a03811615156200036557600080fd5b60038054600160a060020a0319908116600160a060020a03938416179182905560068054929093169116179055565b600054600154604080517ff66afcac000000000000000000000000000000000000000000000000000000008152336004820152600160a060020a0393841660248201529290911660448301525173__AOLibrary_____________________________9163f66afcac916064808301926020929190829003018186803b1580156200041d57600080fd5b505af415801562000432573d6000803e3d6000fd5b505050506040513d60208110156200044957600080fd5b505115156200045757600080fd5b600160a060020a03811615156200046d57600080fd5b60048054600160a060020a0319908116600160a060020a03938416179182905560078054929093169116179055565b828054600181600116156101000203166002900490600052602060002090601f016020900481019282601f10620004df57805160ff19168380011785556200050f565b828001600101855582156200050f579182015b828111156200050f578251825591602001919060010190620004f2565b506200051d92915062000521565b5090565b6200053e91905b808211156200051d576000815560010162000528565b90565b61253b80620005516000396000f3fe60806040526004361061026e576000357c0100000000000000000000000000000000000000000000000000000000900480637d9e2a2111610156578063a9b6b38e116100d3578063d8ce52d111610097578063d8ce52d114610a24578063dd62ed3e14610a39578063e4849b3214610a74578063e724529c14610a9e578063e9bb84c214610ad9578063f2fde38b14610b125761026e565b8063a9b6b38e146108a2578063b1e19d45146108b7578063b414d4b6146108f0578063cae9ca5114610923578063d6c9e189146109eb5761026e565b80639b19251a1161011a5780639b19251a146107d6578063a144a3e014610809578063a4e5fad21461084c578063a6f2ae3a14610861578063a9059cbb146108695761026e565b80637d9e2a21146106e75780638620410b1461073057806387d4ca93146107455780638a0660451461078857806395d89b41146107c15761026e565b806342966c68116101ef5780635cfaf2ef116101b35780635cfaf2ef146105a957806360217267146105dc5780636d9aa0341461060f57806370a0823114610642578063731a3b061461067557806379cc6790146106ae5761026e565b806342966c68146104cb5780634b750334146104f55780634ef033f01461050a5780634fbd26951461053b57806353d6fd591461056e5761026e565b80631dfde2bd116102365780631dfde2bd146103b857806323b872dd146103eb578063313ce5671461042e57806331a8aeb31461045957806340c10f19146104925761026e565b806305fefda71461027357806306fdde03146102a5578063095ea7b31461032f5780630aa245461461037c57806318160ddd146103a3575b600080fd5b34801561027f57600080fd5b506102a36004803603604081101561029657600080fd5b5080359060200135610b45565b005b3480156102b157600080fd5b506102ba610bf9565b6040805160208082528351818301528351919283929083019185019080838360005b838110156102f45781810151838201526020016102dc565b50505050905090810190601f1680156103215780820380516001836020036101000a031916815260200191505b509250505060405180910390f35b34801561033b57600080fd5b506103686004803603604081101561035257600080fd5b50600160a060020a038135169060200135610c87565b604080519115158252519081900360200190f35b34801561038857600080fd5b50610391610cee565b60408051918252519081900360200190f35b3480156103af57600080fd5b50610391610cf4565b3480156103c457600080fd5b506102a3600480360360208110156103db57600080fd5b5035600160a060020a0316610cfa565b3480156103f757600080fd5b506103686004803603606081101561040e57600080fd5b50600160a060020a03813581169160208101359091169060400135610df4565b34801561043a57600080fd5b50610443610e64565b6040805160ff9092168252519081900360200190f35b34801561046557600080fd5b506103686004803603604081101561047c57600080fd5b50600160a060020a038135169060200135610e6d565b34801561049e57600080fd5b50610368600480360360408110156104b557600080fd5b50600160a060020a038135169060200135610f6c565b3480156104d757600080fd5b50610368600480360360208110156104ee57600080fd5b5035610fa0565b34801561050157600080fd5b50610391611018565b34801561051657600080fd5b5061051f61101e565b60408051600160a060020a039092168252519081900360200190f35b34801561054757600080fd5b506103916004803603602081101561055e57600080fd5b5035600160a060020a031661102d565b34801561057a57600080fd5b506102a36004803603604081101561059157600080fd5b50600160a060020a038135169060200135151561103f565b3480156105b557600080fd5b506102a3600480360360208110156105cc57600080fd5b5035600160a060020a0316611128565b3480156105e857600080fd5b50610391600480360360208110156105ff57600080fd5b5035600160a060020a0316611222565b34801561061b57600080fd5b506102a36004803603602081101561063257600080fd5b5035600160a060020a0316611234565b34801561064e57600080fd5b506103916004803603602081101561066557600080fd5b5035600160a060020a031661132e565b34801561068157600080fd5b506103686004803603604081101561069857600080fd5b50600160a060020a038135169060200135611340565b3480156106ba57600080fd5b50610368600480360360408110156106d157600080fd5b50600160a060020a03813516906020013561143f565b3480156106f357600080fd5b506103686004803603608081101561070a57600080fd5b50600160a060020a03813581169160208101358216916040820135169060600135611510565b34801561073c57600080fd5b50610391611865565b34801561075157600080fd5b506103686004803603606081101561076857600080fd5b50600160a060020a0381358116916020810135909116906040013561186b565b34801561079457600080fd5b50610368600480360360408110156107ab57600080fd5b50600160a060020a038135169060200135611977565b3480156107cd57600080fd5b506102ba611a76565b3480156107e257600080fd5b50610368600480360360208110156107f957600080fd5b5035600160a060020a0316611ad1565b34801561081557600080fd5b506103686004803603606081101561082c57600080fd5b50600160a060020a03813581169160208101359091169060400135611ae6565b34801561085857600080fd5b5061051f611b12565b6102a3611b21565b34801561087557600080fd5b506103686004803603604081101561088c57600080fd5b50600160a060020a038135169060200135611b57565b3480156108ae57600080fd5b5061051f611b64565b3480156108c357600080fd5b50610368600480360360408110156108da57600080fd5b50600160a060020a038135169060200135611b73565b3480156108fc57600080fd5b506103686004803603602081101561091357600080fd5b5035600160a060020a0316611c59565b34801561092f57600080fd5b506103686004803603606081101561094657600080fd5b600160a060020a038235169160208101359181019060608101604082013564010000000081111561097657600080fd5b82018360208201111561098857600080fd5b803590602001918460018302840111640100000000831117156109aa57600080fd5b91908080601f016020809104026020016040519081016040528093929190818152602001838380828437600092019190915250929550611c6e945050505050565b3480156109f757600080fd5b5061036860048036036040811015610a0e57600080fd5b50600160a060020a038135169060200135611d8c565b348015610a3057600080fd5b5061051f611e4e565b348015610a4557600080fd5b5061039160048036036040811015610a5c57600080fd5b50600160a060020a0381358116916020013516611e5d565b348015610a8057600080fd5b506102a360048036036020811015610a9757600080fd5b5035611e7a565b348015610aaa57600080fd5b506102a360048036036040811015610ac157600080fd5b50600160a060020a0381351690602001351515611f07565b348015610ae557600080fd5b506102a360048036036040811015610afc57600080fd5b50600160a060020a038135169060200135612014565b348015610b1e57600080fd5b506102a360048036036020811015610b3557600080fd5b5035600160a060020a0316612108565b6000546001546040805160e260020a633d9abf2b028152336004820152600160a060020a0393841660248201529290911660448301525173__AOLibrary_____________________________9163f66afcac916064808301926020929190829003018186803b158015610bb757600080fd5b505af4158015610bcb573d6000803e3d6000fd5b505050506040513d6020811015610be157600080fd5b50511515610bee57600080fd5b600d91909155600e55565b6008805460408051602060026001851615610100026000190190941693909304601f81018490048402820184019092528181529291830182828015610c7f5780601f10610c5457610100808354040283529160200191610c7f565b820191906000526020600020905b815481529060010190602001808311610c6257829003601f168201915b505050505081565b336000818152601060209081526040808320600160a060020a038716808552908352818420869055815186815291519394909390927f8c5be1e5ebec7d5bd14f71427d1e84f3dd0314c0f7b2291e5b200ac8c7c3b925928290030190a35060015b92915050565b600c5481565b600b5481565b6000546001546040805160e260020a633d9abf2b028152336004820152600160a060020a0393841660248201529290911660448301525173__AOLibrary_____________________________9163f66afcac916064808301926020929190829003018186803b158015610d6c57600080fd5b505af4158015610d80573d6000803e3d6000fd5b505050506040513d6020811015610d9657600080fd5b50511515610da357600080fd5b600160a060020a0381161515610db857600080fd5b6004805473ffffffffffffffffffffffffffffffffffffffff19908116600160a060020a03938416179182905560078054929093169116179055565b600160a060020a0383166000908152601060209081526040808320338452909152812054821115610e2457600080fd5b600160a060020a0384166000908152601060209081526040808320338452909152902080548390039055610e598484846121f5565b5060015b9392505050565b600a5460ff1681565b3360009081526002602052604081205460ff161515600114610e8e57600080fd5b600160a060020a0383166000908152600f6020526040902054821115610eb357600080fd5b600160a060020a0383166000908152600f6020526040902054610edc908363ffffffff6123de16565b600160a060020a0384166000908152600f6020908152604080832093909355601290522054610f11908363ffffffff6123f016565b600160a060020a038416600081815260126020908152604091829020939093558051858152905191927febedb8b3c678666e7f36970bc8f57abf6d8fa2e828c0da91ea5b75bf68ed101a92918290030190a250600192915050565b3360009081526002602052604081205460ff161515600114610f8d57600080fd5b610f9783836123fd565b50600192915050565b336000908152600f6020526040812054821115610fbc57600080fd5b336000818152600f602090815260409182902080548690039055600b80548690039055815185815291517fcc16f5dbb4873280815c1ee09dbd06736cffcc184412cf7a71a0fdb75d397ca59281900390910190a2506001919050565b600d5481565b600154600160a060020a031681565b60136020526000908152604090205481565b6000546001546040805160e260020a633d9abf2b028152336004820152600160a060020a0393841660248201529290911660448301525173__AOLibrary_____________________________9163f66afcac916064808301926020929190829003018186803b1580156110b157600080fd5b505af41580156110c5573d6000803e3d6000fd5b505050506040513d60208110156110db57600080fd5b505115156110e857600080fd5b600160a060020a03821615156110fd57600080fd5b600160a060020a03919091166000908152600260205260409020805460ff1916911515919091179055565b6000546001546040805160e260020a633d9abf2b028152336004820152600160a060020a0393841660248201529290911660448301525173__AOLibrary_____________________________9163f66afcac916064808301926020929190829003018186803b15801561119a57600080fd5b505af41580156111ae573d6000803e3d6000fd5b505050506040513d60208110156111c457600080fd5b505115156111d157600080fd5b600160a060020a03811615156111e657600080fd5b6001805473ffffffffffffffffffffffffffffffffffffffff19908116600160a060020a03938416179182905560058054929093169116179055565b60126020526000908152604090205481565b6000546001546040805160e260020a633d9abf2b028152336004820152600160a060020a0393841660248201529290911660448301525173__AOLibrary_____________________________9163f66afcac916064808301926020929190829003018186803b1580156112a657600080fd5b505af41580156112ba573d6000803e3d6000fd5b505050506040513d60208110156112d057600080fd5b505115156112dd57600080fd5b600160a060020a03811615156112f257600080fd5b6003805473ffffffffffffffffffffffffffffffffffffffff19908116600160a060020a03938416179182905560068054929093169116179055565b600f6020526000908152604090205481565b3360009081526002602052604081205460ff16151560011461136157600080fd5b600160a060020a03831660009081526012602052604090205482111561138657600080fd5b600160a060020a0383166000908152601260205260409020546113af908363ffffffff6123de16565b600160a060020a038416600090815260126020908152604080832093909355600f905220546113e4908363ffffffff6123f016565b600160a060020a0384166000818152600f6020908152604091829020939093558051858152905191927f85082129d87b2fe11527cb1b3b7a520aeb5aa6913f88a3d8757fe40d1db02fdd92918290030190a250600192915050565b600160a060020a0382166000908152600f602052604081205482111561146457600080fd5b600160a060020a038316600090815260106020908152604080832033845290915290205482111561149457600080fd5b600160a060020a0383166000818152600f60209081526040808320805487900390556010825280832033845282529182902080548690039055600b80548690039055815185815291517fcc16f5dbb4873280815c1ee09dbd06736cffcc184412cf7a71a0fdb75d397ca59281900390910190a250600192915050565b600073__AOLibrary_____________________________632d706a34866040518263ffffffff167c01000000000000000000000000000000000000000000000000000000000281526004018082600160a060020a0316600160a060020a0316815260200191505060206040518083038186803b15801561158f57600080fd5b505af41580156115a3573d6000803e3d6000fd5b505050506040513d60208110156115b957600080fd5b505115156115c657600080fd5b600554604080517f71ce52ed000000000000000000000000000000000000000000000000000000008152336004820152600160a060020a038881166024830152915191909216916371ce52ed916044808301926020929190829003018186803b15801561163257600080fd5b505afa158015611646573d6000803e3d6000fd5b505050506040513d602081101561165c57600080fd5b5051151561166957600080fd5b600754604080517f3ebc2ab3000000000000000000000000000000000000000000000000000000008152600160a060020a03888116600483015291519190921691633ebc2ab3916024808301926020929190829003018186803b1580156116cf57600080fd5b505afa1580156116e3573d6000803e3d6000fd5b505050506040513d60208110156116f957600080fd5b50511561170557600080fd5b600654604080517fa481247c000000000000000000000000000000000000000000000000000000008152600160a060020a03888116600483015287811660248301529151919092169163a481247c916044808301926020929190829003018186803b15801561177357600080fd5b505afa158015611787573d6000803e3d6000fd5b505050506040513d602081101561179d57600080fd5b505115156117aa57600080fd5b600654604080517fa481247c000000000000000000000000000000000000000000000000000000008152600160a060020a03888116600483015286811660248301529151919092169163a481247c916044808301926020929190829003018186803b15801561181857600080fd5b505afa15801561182c573d6000803e3d6000fd5b505050506040513d602081101561184257600080fd5b5051151561184f57600080fd5b61185a8484846121f5565b506001949350505050565b600e5481565b3360009081526002602052604081205460ff16151560011461188c57600080fd5b600160a060020a0384166000908152600f60205260409020548211156118b157600080fd5b600160a060020a0384166000908152600f60205260409020546118da908363ffffffff6123de16565b600160a060020a038086166000908152600f6020908152604080832094909455918616815260139091522054611916908363ffffffff6123f016565b600160a060020a0380851660008181526013602090815260409182902094909455805186815290519193928816927f812c3251d8b2cd027716a7651ace6f9167d7fba4db9eb10df2e0cfe8b7fa48c992918290030190a35060019392505050565b3360009081526002602052604081205460ff16151560011461199857600080fd5b600160a060020a0383166000908152601360205260409020548211156119bd57600080fd5b600160a060020a0383166000908152601360205260409020546119e6908363ffffffff6123de16565b600160a060020a038416600090815260136020908152604080832093909355600f90522054611a1b908363ffffffff6123f016565b600160a060020a0384166000818152600f6020908152604091829020939093558051858152905191927f85538b0b045118ba300aa14d9701eab875903dd2976d62d855ec959a3e6cffb192918290030190a250600192915050565b6009805460408051602060026001851615610100026000190190941693909304601f81018490048402820184019092528181529291830182828015610c7f5780601f10610c5457610100808354040283529160200191610c7f565b60026020526000908152604090205460ff1681565b3360009081526002602052604081205460ff161515600114611b0757600080fd5b610e598484846121f5565b600454600160a060020a031681565b600e54600010611b3057600080fd5b6000611b47600e54346124d190919063ffffffff16565b9050611b543033836121f5565b50565b6000610f973384846121f5565b600054600160a060020a031681565b3360009081526002602052604081205460ff161515600114611b9457600080fd5b600160a060020a0383166000908152600f6020526040902054821115611bb957600080fd5b600160a060020a0383166000908152600f6020526040902054611be2908363ffffffff6123de16565b600160a060020a0384166000908152600f6020526040902055600b54611c0e908363ffffffff6123de16565b600b55604080518381529051600160a060020a038516917fcc16f5dbb4873280815c1ee09dbd06736cffcc184412cf7a71a0fdb75d397ca5919081900360200190a250600192915050565b60116020526000908152604090205460ff1681565b600083611c7b8185610c87565b15611d84576040517f8f4ffcb10000000000000000000000000000000000000000000000000000000081523360048201818152602483018790523060448401819052608060648501908152875160848601528751600160a060020a03871695638f4ffcb195948b94938b939192909160a490910190602085019080838360005b83811015611d13578181015183820152602001611cfb565b50505050905090810190601f168015611d405780820380516001836020036101000a031916815260200191505b5095505050505050600060405180830381600087803b158015611d6257600080fd5b505af1158015611d76573d6000803e3d6000fd5b505050506001915050610e5d565b509392505050565b3360009081526002602052604081205460ff161515600114611dad57600080fd5b600160a060020a038316600090815260136020526040902054611dd6908363ffffffff6123f016565b600160a060020a038416600090815260136020526040902055600b54611e02908363ffffffff6123f016565b600b55604080518381529051600160a060020a0385169130917f812c3251d8b2cd027716a7651ace6f9167d7fba4db9eb10df2e0cfe8b7fa48c99181900360200190a350600192915050565b600354600160a060020a031681565b601060209081526000928352604080842090915290825290205481565b600d54600010611e8957600080fd5b600d543090611e9f90839063ffffffff6124e616565b600160a060020a038216311015611eb557600080fd5b611ec03330846121f5565b600d5433906108fc90611eda90859063ffffffff6124e616565b6040518115909202916000818181858888f19350505050158015611f02573d6000803e3d6000fd5b505050565b6000546001546040805160e260020a633d9abf2b028152336004820152600160a060020a0393841660248201529290911660448301525173__AOLibrary_____________________________9163f66afcac916064808301926020929190829003018186803b158015611f7957600080fd5b505af4158015611f8d573d6000803e3d6000fd5b505050506040513d6020811015611fa357600080fd5b50511515611fb057600080fd5b600160a060020a038216600081815260116020908152604091829020805460ff191685151590811790915582519384529083015280517f48335238b4855f35377ed80f164e8c6f3c366e54ac00b96a6402d4a9814a03a59281900390910190a15050565b6000546001546040805160e260020a633d9abf2b028152336004820152600160a060020a0393841660248201529290911660448301525173__AOLibrary_____________________________9163f66afcac916064808301926020929190829003018186803b15801561208657600080fd5b505af415801561209a573d6000803e3d6000fd5b505050506040513d60208110156120b057600080fd5b505115156120bd57600080fd5b600160a060020a03821615156120d257600080fd5b604051600160a060020a0383169082156108fc029083906000818181858888f19350505050158015611f02573d6000803e3d6000fd5b6000546001546040805160e260020a633d9abf2b028152336004820152600160a060020a0393841660248201529290911660448301525173__AOLibrary_____________________________9163f66afcac916064808301926020929190829003018186803b15801561217a57600080fd5b505af415801561218e573d6000803e3d6000fd5b505050506040513d60208110156121a457600080fd5b505115156121b157600080fd5b600160a060020a03811615156121c657600080fd5b6000805473ffffffffffffffffffffffffffffffffffffffff1916600160a060020a0392909216919091179055565b600160a060020a038216151561220a57600080fd5b600160a060020a0383166000908152600f602052604090205481111561222f57600080fd5b600160a060020a0382166000908152600f6020526040902054612258818363ffffffff6123f016565b101561226357600080fd5b600160a060020a03831660009081526011602052604090205460ff161561228957600080fd5b600160a060020a03821660009081526011602052604090205460ff16156122af57600080fd5b600160a060020a038083166000908152600f602052604080822054928616825281205490916122e4919063ffffffff6123f016565b600160a060020a0385166000908152600f6020526040902054909150612310908363ffffffff6123de16565b600160a060020a038086166000908152600f60205260408082209390935590851681522054612345908363ffffffff6123f016565b600160a060020a038085166000818152600f602090815260409182902094909455805186815290519193928816927fddf252ad1be2c89b69c2b068fc378daa952ba7f163c4a11628f55a4df523b3ef92918290030190a3600160a060020a038084166000908152600f602052604080822054928716825290205482916123d1919063ffffffff6123f016565b146123d857fe5b50505050565b6000828211156123ea57fe5b50900390565b81810182811015610ce857fe5b600160a060020a0382166000908152600f6020526040902054612426908263ffffffff6123f016565b600160a060020a0383166000908152600f6020526040902055600b54612452908263ffffffff6123f016565b600b5560408051828152905130916000917fddf252ad1be2c89b69c2b068fc378daa952ba7f163c4a11628f55a4df523b3ef9181900360200190a3604080518281529051600160a060020a0384169130917fddf252ad1be2c89b69c2b068fc378daa952ba7f163c4a11628f55a4df523b3ef9181900360200190a35050565b600081838115156124de57fe5b049392505050565b60008215156124f757506000610ce8565b5081810281838281151561250757fe5b0414610ce857fefea165627a7a7230582098fc89b7aba4e209564a5f926f8a3b62923888b9145b1ee77342e5eaf5c61b1d0029",
	"source": "pragma solidity >=0.5.4 <0.6.0;\n\nimport \"./AOIonInterface.sol\";\n\ncontract AOTera is AOIonInterface {\n\t/**\n\t * @dev Constructor function\n\t */\n\tconstructor(string memory _name, string memory _symbol, address _nameTAOPositionAddress, address _namePublicKeyAddress, address _nameAccountRecoveryAddress)\n\t\tAOIonInterface(_name, _symbol, _nameTAOPositionAddress, _namePublicKeyAddress, _nameAccountRecoveryAddress) public {\n\t\tpowerOfTen = 12;\n\t\tdecimals = 12;\n\t}\n}\n",
	"sourcePath": "/data/jmulyono/ao-contracts/contracts/AOTera.sol",
	"compiler": {
		"name": "solc",
		"version": "0.5.4+commit.9549d8ff.Emscripten.clang"
	},
	"schemaVersion": "3.0.9",
	"updatedAt": "2019-05-22T08:18:36.425Z",
	"devdoc": {
		"methods": {
			"approve(address,uint256)": {
				"params": {
					"_spender": "The address authorized to spend",
					"_value": "the max amount they can spend"
				}
			},
			"approveAndCall(address,uint256,bytes)": {
				"params": {
					"_extraData": "some extra information to send to the approved contract",
					"_spender": "The address authorized to spend",
					"_value": "the max amount they can spend"
				}
			},
			"burn(uint256)": {
				"params": {
					"_value": "the amount of money to burn"
				}
			},
			"burnFrom(address,uint256)": {
				"params": {
					"_from": "the address of the sender",
					"_value": "the amount of money to burn"
				}
			},
			"buy()": {
				"details": "Buy ions from contract by sending ether"
			},
			"constructor": {
				"details": "Constructor function"
			},
			"escrowFrom(address,address,uint256)": {
				"details": "Store `_value` from `_from` to `_to` in escrow",
				"params": {
					"_from": "The address of the sender",
					"_to": "The address of the recipient",
					"_value": "The amount of network ions to put in escrow"
				},
				"return": "true on success"
			},
			"freezeAccount(address,bool)": {
				"details": "Prevent/Allow target from sending & receiving ions",
				"params": {
					"freeze": "Either to freeze it or not",
					"target": "Address to be frozen"
				}
			},
			"mint(address,uint256)": {
				"details": "Create `mintedAmount` ions and send it to `target`",
				"params": {
					"mintedAmount": "The amount of ions it will receive",
					"target": "Address to receive the ions"
				},
				"return": "true on success"
			},
			"mintEscrow(address,uint256)": {
				"details": "Create `mintedAmount` ions and send it to `target` escrow balance",
				"params": {
					"mintedAmount": "The amount of ions it will receive in escrow",
					"target": "Address to receive ions"
				}
			},
			"sell(uint256)": {
				"details": "Sell `amount` ions to contract",
				"params": {
					"amount": "The amount of ions to be sold"
				}
			},
			"setNameAccountRecoveryAddress(address)": {
				"details": "The AO set the NameAccountRecovery Address",
				"params": {
					"_nameAccountRecoveryAddress": "The address of NameAccountRecovery"
				}
			},
			"setNamePublicKeyAddress(address)": {
				"details": "The AO set the NamePublicKey Address",
				"params": {
					"_namePublicKeyAddress": "The address of NamePublicKey"
				}
			},
			"setNameTAOPositionAddress(address)": {
				"details": "The AO set the NameTAOPosition Address",
				"params": {
					"_nameTAOPositionAddress": "The address of NameTAOPosition"
				}
			},
			"setPrices(uint256,uint256)": {
				"details": "Allow users to buy ions for `newBuyPrice` eth and sell ions for `newSellPrice` eth",
				"params": {
					"newBuyPrice": "Price users can buy from the contract",
					"newSellPrice": "Price users can sell to the contract"
				}
			},
			"setWhitelist(address,bool)": {
				"details": "Whitelist `_account` address to transact on behalf of others",
				"params": {
					"_account": "The address to whitelist",
					"_whitelist": "Either to whitelist or not"
				}
			},
			"stakeFrom(address,uint256)": {
				"details": "Stake `_value` ions on behalf of `_from`",
				"params": {
					"_from": "The address of the target",
					"_value": "The amount to stake"
				},
				"return": "true on success"
			},
			"transfer(address,uint256)": {
				"params": {
					"_to": "The address of the recipient",
					"_value": "the amount to send"
				}
			},
			"transferBetweenPublicKeys(address,address,address,uint256)": {
				"params": {
					"_from": "The address of the sender",
					"_nameId": "The ID of the Name",
					"_to": "The address of the recipient",
					"_value": "the amount to send"
				}
			},
			"transferEth(address,uint256)": {
				"details": "Allows TheAO to transfer `_amount` of ETH from this address to `_recipient`",
				"params": {
					"_amount": "The amount to transfer",
					"_recipient": "The recipient address"
				}
			},
			"transferFrom(address,address,uint256)": {
				"params": {
					"_from": "The address of the sender",
					"_to": "The address of the recipient",
					"_value": "the amount to send"
				}
			},
			"transferOwnership(address)": {
				"details": "Transfer ownership of The AO to new address",
				"params": {
					"_theAO": "The new address to be transferred"
				}
			},
			"unescrowFrom(address,uint256)": {
				"details": "Release escrowed `_value` from `_from`",
				"params": {
					"_from": "The address of the sender",
					"_value": "The amount of escrowed network ions to be released"
				},
				"return": "true on success"
			},
			"unstakeFrom(address,uint256)": {
				"details": "Unstake `_value` ions on behalf of `_from`",
				"params": {
					"_from": "The address of the target",
					"_value": "The amount to unstake"
				},
				"return": "true on success"
			},
			"whitelistBurnFrom(address,uint256)": {
				"details": "Whitelisted address remove `_value` ions from the system irreversibly on behalf of `_from`.",
				"params": {
					"_from": "the address of the sender",
					"_value": "the amount of money to burn"
				}
			},
			"whitelistTransferFrom(address,address,uint256)": {
				"details": "Whitelisted address transfer ions from other address\t * Send `_value` ions to `_to` on behalf of `_from`",
				"params": {
					"_from": "The address of the sender",
					"_to": "The address of the recipient",
					"_value": "the amount to send"
				}
			}
		}
	},
	"userdoc": {
		"methods": {
			"approve(address,uint256)": {
				"notice": "Set allowance for other address\t * Allows `_spender` to spend no more than `_value` ions in your behalf"
			},
			"approveAndCall(address,uint256,bytes)": {
				"notice": "Set allowance for other address and notify\t * Allows `_spender` to spend no more than `_value` ions in your behalf, and then ping the contract about it"
			},
			"burn(uint256)": {
				"notice": "Destroy ions\t * Remove `_value` ions from the system irreversibly"
			},
			"burnFrom(address,uint256)": {
				"notice": "Destroy ions from other account\t * Remove `_value` ions from the system irreversibly on behalf of `_from`."
			},
			"transfer(address,uint256)": {
				"notice": "Transfer ions\t * Send `_value` ions to `_to` from your account"
			},
			"transferBetweenPublicKeys(address,address,address,uint256)": {
				"notice": "Transfer ions between public key addresses in a Name"
			},
			"transferFrom(address,address,uint256)": {
				"notice": "Transfer ions from other address\t * Send `_value` ions to `_to` in behalf of `_from`"
			}
		}
	}
}