{
	"contractName": "AOToken",
	"abi": [
		{
			"constant": true,
			"inputs": [],
			"name": "name",
			"outputs": [
				{
					"name": "",
					"type": "string"
				}
			],
			"payable": false,
			"stateMutability": "view",
			"type": "function"
		},
		{
			"constant": false,
			"inputs": [
				{
					"name": "_spender",
					"type": "address"
				},
				{
					"name": "_value",
					"type": "uint256"
				}
			],
			"name": "approve",
			"outputs": [
				{
					"name": "success",
					"type": "bool"
				}
			],
			"payable": false,
			"stateMutability": "nonpayable",
			"type": "function"
		},
		{
			"constant": true,
			"inputs": [],
			"name": "powerOfTen",
			"outputs": [
				{
					"name": "",
					"type": "uint256"
				}
			],
			"payable": false,
			"stateMutability": "view",
			"type": "function"
		},
		{
			"constant": true,
			"inputs": [],
			"name": "totalSupply",
			"outputs": [
				{
					"name": "",
					"type": "uint256"
				}
			],
			"payable": false,
			"stateMutability": "view",
			"type": "function"
		},
		{
			"constant": true,
			"inputs": [],
			"name": "icoSellPrice",
			"outputs": [
				{
					"name": "",
					"type": "uint256"
				}
			],
			"payable": false,
			"stateMutability": "view",
			"type": "function"
		},
		{
			"constant": false,
			"inputs": [
				{
					"name": "_from",
					"type": "address"
				},
				{
					"name": "_to",
					"type": "address"
				},
				{
					"name": "_value",
					"type": "uint256"
				}
			],
			"name": "transferFrom",
			"outputs": [
				{
					"name": "success",
					"type": "bool"
				}
			],
			"payable": false,
			"stateMutability": "nonpayable",
			"type": "function"
		},
		{
			"constant": true,
			"inputs": [],
			"name": "icoTotalSupply",
			"outputs": [
				{
					"name": "",
					"type": "uint256"
				}
			],
			"payable": false,
			"stateMutability": "view",
			"type": "function"
		},
		{
			"constant": true,
			"inputs": [],
			"name": "ICO_RESERVED_FOR_FOUNDATION",
			"outputs": [
				{
					"name": "",
					"type": "uint256"
				}
			],
			"payable": false,
			"stateMutability": "view",
			"type": "function"
		},
		{
			"constant": true,
			"inputs": [],
			"name": "decimals",
			"outputs": [
				{
					"name": "",
					"type": "uint8"
				}
			],
			"payable": false,
			"stateMutability": "view",
			"type": "function"
		},
		{
			"constant": true,
			"inputs": [],
			"name": "totalLots",
			"outputs": [
				{
					"name": "",
					"type": "uint256"
				}
			],
			"payable": false,
			"stateMutability": "view",
			"type": "function"
		},
		{
			"constant": false,
			"inputs": [
				{
					"name": "_value",
					"type": "uint256"
				}
			],
			"name": "burn",
			"outputs": [
				{
					"name": "success",
					"type": "bool"
				}
			],
			"payable": false,
			"stateMutability": "nonpayable",
			"type": "function"
		},
		{
			"constant": true,
			"inputs": [],
			"name": "sellPrice",
			"outputs": [
				{
					"name": "",
					"type": "uint256"
				}
			],
			"payable": false,
			"stateMutability": "view",
			"type": "function"
		},
		{
			"constant": true,
			"inputs": [],
			"name": "WEIGHTED_INDEX_DIVISOR",
			"outputs": [
				{
					"name": "",
					"type": "uint256"
				}
			],
			"payable": false,
			"stateMutability": "view",
			"type": "function"
		},
		{
			"constant": true,
			"inputs": [
				{
					"name": "",
					"type": "address"
				},
				{
					"name": "",
					"type": "address"
				}
			],
			"name": "icoAllowance",
			"outputs": [
				{
					"name": "",
					"type": "uint256"
				}
			],
			"payable": false,
			"stateMutability": "view",
			"type": "function"
		},
		{
			"constant": false,
			"inputs": [
				{
					"name": "_account",
					"type": "address"
				},
				{
					"name": "_whitelist",
					"type": "bool"
				}
			],
			"name": "setWhitelist",
			"outputs": [],
			"payable": false,
			"stateMutability": "nonpayable",
			"type": "function"
		},
		{
			"constant": true,
			"inputs": [],
			"name": "icoBuyPrice",
			"outputs": [
				{
					"name": "",
					"type": "uint256"
				}
			],
			"payable": false,
			"stateMutability": "view",
			"type": "function"
		},
		{
			"constant": true,
			"inputs": [
				{
					"name": "",
					"type": "address"
				}
			],
			"name": "icoBalanceOf",
			"outputs": [
				{
					"name": "",
					"type": "uint256"
				}
			],
			"payable": false,
			"stateMutability": "view",
			"type": "function"
		},
		{
			"constant": true,
			"inputs": [],
			"name": "icoEnded",
			"outputs": [
				{
					"name": "",
					"type": "bool"
				}
			],
			"payable": false,
			"stateMutability": "view",
			"type": "function"
		},
		{
			"constant": true,
			"inputs": [
				{
					"name": "",
					"type": "address"
				}
			],
			"name": "stakedBalance",
			"outputs": [
				{
					"name": "",
					"type": "uint256"
				}
			],
			"payable": false,
			"stateMutability": "view",
			"type": "function"
		},
		{
			"constant": true,
			"inputs": [
				{
					"name": "",
					"type": "address"
				}
			],
			"name": "balanceOf",
			"outputs": [
				{
					"name": "",
					"type": "uint256"
				}
			],
			"payable": false,
			"stateMutability": "view",
			"type": "function"
		},
		{
			"constant": false,
			"inputs": [
				{
					"name": "_from",
					"type": "address"
				},
				{
					"name": "_value",
					"type": "uint256"
				}
			],
			"name": "burnFrom",
			"outputs": [
				{
					"name": "success",
					"type": "bool"
				}
			],
			"payable": false,
			"stateMutability": "nonpayable",
			"type": "function"
		},
		{
			"constant": true,
			"inputs": [],
			"name": "buyPrice",
			"outputs": [
				{
					"name": "",
					"type": "uint256"
				}
			],
			"payable": false,
			"stateMutability": "view",
			"type": "function"
		},
		{
			"constant": true,
			"inputs": [],
			"name": "owner",
			"outputs": [
				{
					"name": "",
					"type": "address"
				}
			],
			"payable": false,
			"stateMutability": "view",
			"type": "function"
		},
		{
			"constant": true,
			"inputs": [],
			"name": "symbol",
			"outputs": [
				{
					"name": "",
					"type": "string"
				}
			],
			"payable": false,
			"stateMutability": "view",
			"type": "function"
		},
		{
			"constant": true,
			"inputs": [
				{
					"name": "",
					"type": "address"
				}
			],
			"name": "whitelist",
			"outputs": [
				{
					"name": "",
					"type": "bool"
				}
			],
			"payable": false,
			"stateMutability": "view",
			"type": "function"
		},
		{
			"constant": true,
			"inputs": [],
			"name": "MAX_ICO_SUPPLY",
			"outputs": [
				{
					"name": "",
					"type": "uint256"
				}
			],
			"payable": false,
			"stateMutability": "view",
			"type": "function"
		},
		{
			"constant": false,
			"inputs": [
				{
					"name": "_to",
					"type": "address"
				},
				{
					"name": "_value",
					"type": "uint256"
				}
			],
			"name": "transfer",
			"outputs": [
				{
					"name": "success",
					"type": "bool"
				}
			],
			"payable": false,
			"stateMutability": "nonpayable",
			"type": "function"
		},
		{
			"constant": true,
			"inputs": [
				{
					"name": "",
					"type": "address"
				}
			],
			"name": "frozenAccount",
			"outputs": [
				{
					"name": "",
					"type": "bool"
				}
			],
			"payable": false,
			"stateMutability": "view",
			"type": "function"
		},
		{
			"constant": true,
			"inputs": [],
			"name": "foundationReserved",
			"outputs": [
				{
					"name": "",
					"type": "bool"
				}
			],
			"payable": false,
			"stateMutability": "view",
			"type": "function"
		},
		{
			"constant": true,
			"inputs": [
				{
					"name": "",
					"type": "address"
				},
				{
					"name": "",
					"type": "uint256"
				}
			],
			"name": "icoStakedBalance",
			"outputs": [
				{
					"name": "",
					"type": "uint256"
				}
			],
			"payable": false,
			"stateMutability": "view",
			"type": "function"
		},
		{
			"constant": true,
			"inputs": [],
			"name": "icoContract",
			"outputs": [
				{
					"name": "",
					"type": "bool"
				}
			],
			"payable": false,
			"stateMutability": "view",
			"type": "function"
		},
		{
			"constant": false,
			"inputs": [
				{
					"name": "_spender",
					"type": "address"
				},
				{
					"name": "_value",
					"type": "uint256"
				},
				{
					"name": "_extraData",
					"type": "bytes"
				}
			],
			"name": "approveAndCall",
			"outputs": [
				{
					"name": "success",
					"type": "bool"
				}
			],
			"payable": false,
			"stateMutability": "nonpayable",
			"type": "function"
		},
		{
			"constant": true,
			"inputs": [
				{
					"name": "",
					"type": "address"
				},
				{
					"name": "",
					"type": "address"
				}
			],
			"name": "allowance",
			"outputs": [
				{
					"name": "",
					"type": "uint256"
				}
			],
			"payable": false,
			"stateMutability": "view",
			"type": "function"
		},
		{
			"constant": true,
			"inputs": [],
			"name": "lotIndex",
			"outputs": [
				{
					"name": "",
					"type": "uint256"
				}
			],
			"payable": false,
			"stateMutability": "view",
			"type": "function"
		},
		{
			"constant": false,
			"inputs": [
				{
					"name": "newOwner",
					"type": "address"
				}
			],
			"name": "transferOwnership",
			"outputs": [],
			"payable": false,
			"stateMutability": "nonpayable",
			"type": "function"
		},
		{
			"inputs": [
				{
					"name": "initialSupply",
					"type": "uint256"
				},
				{
					"name": "tokenName",
					"type": "string"
				},
				{
					"name": "tokenSymbol",
					"type": "string"
				}
			],
			"payable": false,
			"stateMutability": "nonpayable",
			"type": "constructor"
		},
		{
			"anonymous": false,
			"inputs": [
				{
					"indexed": false,
					"name": "target",
					"type": "address"
				},
				{
					"indexed": false,
					"name": "frozen",
					"type": "bool"
				}
			],
			"name": "FrozenFunds",
			"type": "event"
		},
		{
			"anonymous": false,
			"inputs": [
				{
					"indexed": true,
					"name": "from",
					"type": "address"
				},
				{
					"indexed": false,
					"name": "value",
					"type": "uint256"
				}
			],
			"name": "Stake",
			"type": "event"
		},
		{
			"anonymous": false,
			"inputs": [
				{
					"indexed": true,
					"name": "from",
					"type": "address"
				},
				{
					"indexed": false,
					"name": "value",
					"type": "uint256"
				}
			],
			"name": "Unstake",
			"type": "event"
		},
		{
			"anonymous": false,
			"inputs": [
				{
					"indexed": true,
					"name": "from",
					"type": "address"
				},
				{
					"indexed": true,
					"name": "to",
					"type": "address"
				},
				{
					"indexed": false,
					"name": "value",
					"type": "uint256"
				}
			],
			"name": "IcoTransfer",
			"type": "event"
		},
		{
			"anonymous": false,
			"inputs": [
				{
					"indexed": true,
					"name": "_owner",
					"type": "address"
				},
				{
					"indexed": true,
					"name": "_spender",
					"type": "address"
				},
				{
					"indexed": false,
					"name": "_value",
					"type": "uint256"
				}
			],
			"name": "IcoApproval",
			"type": "event"
		},
		{
			"anonymous": false,
			"inputs": [
				{
					"indexed": true,
					"name": "from",
					"type": "address"
				},
				{
					"indexed": false,
					"name": "value",
					"type": "uint256"
				}
			],
			"name": "IcoBurn",
			"type": "event"
		},
		{
			"anonymous": false,
			"inputs": [
				{
					"indexed": true,
					"name": "from",
					"type": "address"
				},
				{
					"indexed": false,
					"name": "value",
					"type": "uint256"
				},
				{
					"indexed": false,
					"name": "weightedIndex",
					"type": "uint256"
				}
			],
			"name": "IcoStake",
			"type": "event"
		},
		{
			"anonymous": false,
			"inputs": [
				{
					"indexed": true,
					"name": "from",
					"type": "address"
				},
				{
					"indexed": false,
					"name": "value",
					"type": "uint256"
				},
				{
					"indexed": false,
					"name": "weightedIndex",
					"type": "uint256"
				}
			],
			"name": "IcoUnstake",
			"type": "event"
		},
		{
			"anonymous": false,
			"inputs": [
				{
					"indexed": true,
					"name": "lotOwner",
					"type": "address"
				},
				{
					"indexed": true,
					"name": "lotId",
					"type": "bytes32"
				},
				{
					"indexed": false,
					"name": "index",
					"type": "uint256"
				},
				{
					"indexed": false,
					"name": "tokenAmount",
					"type": "uint256"
				}
			],
			"name": "LotCreation",
			"type": "event"
		},
		{
			"anonymous": false,
			"inputs": [
				{
					"indexed": true,
					"name": "from",
					"type": "address"
				},
				{
					"indexed": true,
					"name": "to",
					"type": "address"
				},
				{
					"indexed": false,
					"name": "value",
					"type": "uint256"
				}
			],
			"name": "Transfer",
			"type": "event"
		},
		{
			"anonymous": false,
			"inputs": [
				{
					"indexed": true,
					"name": "_owner",
					"type": "address"
				},
				{
					"indexed": true,
					"name": "_spender",
					"type": "address"
				},
				{
					"indexed": false,
					"name": "_value",
					"type": "uint256"
				}
			],
			"name": "Approval",
			"type": "event"
		},
		{
			"anonymous": false,
			"inputs": [
				{
					"indexed": true,
					"name": "from",
					"type": "address"
				},
				{
					"indexed": false,
					"name": "value",
					"type": "uint256"
				}
			],
			"name": "Burn",
			"type": "event"
		},
		{
			"constant": false,
			"inputs": [
				{
					"name": "target",
					"type": "address"
				},
				{
					"name": "freeze",
					"type": "bool"
				}
			],
			"name": "freezeAccount",
			"outputs": [],
			"payable": false,
			"stateMutability": "nonpayable",
			"type": "function"
		},
		{
			"constant": false,
			"inputs": [
				{
					"name": "newSellPrice",
					"type": "uint256"
				},
				{
					"name": "newBuyPrice",
					"type": "uint256"
				}
			],
			"name": "setPrices",
			"outputs": [],
			"payable": false,
			"stateMutability": "nonpayable",
			"type": "function"
		},
		{
			"constant": false,
			"inputs": [
				{
					"name": "target",
					"type": "address"
				},
				{
					"name": "mintedAmount",
					"type": "uint256"
				}
			],
			"name": "mintToken",
			"outputs": [
				{
					"name": "",
					"type": "bool"
				}
			],
			"payable": false,
			"stateMutability": "nonpayable",
			"type": "function"
		},
		{
			"constant": false,
			"inputs": [
				{
					"name": "_from",
					"type": "address"
				},
				{
					"name": "_value",
					"type": "uint256"
				}
			],
			"name": "stakeFrom",
			"outputs": [
				{
					"name": "",
					"type": "bool"
				}
			],
			"payable": false,
			"stateMutability": "nonpayable",
			"type": "function"
		},
		{
			"constant": false,
			"inputs": [
				{
					"name": "_from",
					"type": "address"
				},
				{
					"name": "_value",
					"type": "uint256"
				}
			],
			"name": "unstakeFrom",
			"outputs": [
				{
					"name": "",
					"type": "bool"
				}
			],
			"payable": false,
			"stateMutability": "nonpayable",
			"type": "function"
		},
		{
			"constant": false,
			"inputs": [
				{
					"name": "_from",
					"type": "address"
				},
				{
					"name": "_value",
					"type": "uint256"
				}
			],
			"name": "whitelistBurnFrom",
			"outputs": [
				{
					"name": "success",
					"type": "bool"
				}
			],
			"payable": false,
			"stateMutability": "nonpayable",
			"type": "function"
		},
		{
			"constant": false,
			"inputs": [
				{
					"name": "_from",
					"type": "address"
				},
				{
					"name": "_to",
					"type": "address"
				},
				{
					"name": "_value",
					"type": "uint256"
				}
			],
			"name": "whitelistTransferFrom",
			"outputs": [
				{
					"name": "success",
					"type": "bool"
				}
			],
			"payable": false,
			"stateMutability": "nonpayable",
			"type": "function"
		},
		{
			"constant": false,
			"inputs": [
				{
					"name": "newIcoSellPrice",
					"type": "uint256"
				},
				{
					"name": "newIcoBuyPrice",
					"type": "uint256"
				}
			],
			"name": "setIcoPrices",
			"outputs": [],
			"payable": false,
			"stateMutability": "nonpayable",
			"type": "function"
		},
		{
			"constant": false,
			"inputs": [],
			"name": "reserveForFoundation",
			"outputs": [],
			"payable": false,
			"stateMutability": "nonpayable",
			"type": "function"
		},
		{
			"constant": false,
			"inputs": [
				{
					"name": "_from",
					"type": "address"
				},
				{
					"name": "_value",
					"type": "uint256"
				},
				{
					"name": "_weightedIndex",
					"type": "uint256"
				}
			],
			"name": "stakeIcoTokenFrom",
			"outputs": [
				{
					"name": "",
					"type": "bool"
				}
			],
			"payable": false,
			"stateMutability": "nonpayable",
			"type": "function"
		},
		{
			"constant": false,
			"inputs": [
				{
					"name": "_from",
					"type": "address"
				},
				{
					"name": "_value",
					"type": "uint256"
				},
				{
					"name": "_weightedIndex",
					"type": "uint256"
				}
			],
			"name": "unstakeIcoTokenFrom",
			"outputs": [
				{
					"name": "",
					"type": "bool"
				}
			],
			"payable": false,
			"stateMutability": "nonpayable",
			"type": "function"
		},
		{
			"constant": false,
			"inputs": [
				{
					"name": "_from",
					"type": "address"
				},
				{
					"name": "_to",
					"type": "address"
				},
				{
					"name": "_value",
					"type": "uint256"
				}
			],
			"name": "whitelistTransferIcoTokenFrom",
			"outputs": [
				{
					"name": "success",
					"type": "bool"
				}
			],
			"payable": false,
			"stateMutability": "nonpayable",
			"type": "function"
		},
		{
			"constant": false,
			"inputs": [],
			"name": "buy",
			"outputs": [],
			"payable": true,
			"stateMutability": "payable",
			"type": "function"
		},
		{
			"constant": false,
			"inputs": [
				{
					"name": "amount",
					"type": "uint256"
				}
			],
			"name": "sell",
			"outputs": [],
			"payable": false,
			"stateMutability": "nonpayable",
			"type": "function"
		},
		{
			"constant": false,
			"inputs": [],
			"name": "buyIcoToken",
			"outputs": [],
			"payable": true,
			"stateMutability": "payable",
			"type": "function"
		},
		{
			"constant": false,
			"inputs": [
				{
					"name": "_to",
					"type": "address"
				},
				{
					"name": "_value",
					"type": "uint256"
				}
			],
			"name": "transferIcoToken",
			"outputs": [
				{
					"name": "success",
					"type": "bool"
				}
			],
			"payable": false,
			"stateMutability": "nonpayable",
			"type": "function"
		},
		{
			"constant": false,
			"inputs": [
				{
					"name": "_from",
					"type": "address"
				},
				{
					"name": "_to",
					"type": "address"
				},
				{
					"name": "_value",
					"type": "uint256"
				}
			],
			"name": "transferIcoTokenFrom",
			"outputs": [
				{
					"name": "success",
					"type": "bool"
				}
			],
			"payable": false,
			"stateMutability": "nonpayable",
			"type": "function"
		},
		{
			"constant": false,
			"inputs": [
				{
					"name": "_spender",
					"type": "address"
				},
				{
					"name": "_value",
					"type": "uint256"
				}
			],
			"name": "approveIcoToken",
			"outputs": [
				{
					"name": "success",
					"type": "bool"
				}
			],
			"payable": false,
			"stateMutability": "nonpayable",
			"type": "function"
		},
		{
			"constant": false,
			"inputs": [
				{
					"name": "_spender",
					"type": "address"
				},
				{
					"name": "_value",
					"type": "uint256"
				},
				{
					"name": "_extraData",
					"type": "bytes"
				}
			],
			"name": "approveIcoTokenAndCall",
			"outputs": [
				{
					"name": "success",
					"type": "bool"
				}
			],
			"payable": false,
			"stateMutability": "nonpayable",
			"type": "function"
		},
		{
			"constant": false,
			"inputs": [
				{
					"name": "_value",
					"type": "uint256"
				}
			],
			"name": "burnIcoToken",
			"outputs": [
				{
					"name": "success",
					"type": "bool"
				}
			],
			"payable": false,
			"stateMutability": "nonpayable",
			"type": "function"
		},
		{
			"constant": false,
			"inputs": [
				{
					"name": "_from",
					"type": "address"
				},
				{
					"name": "_value",
					"type": "uint256"
				}
			],
			"name": "burnIcoTokenFrom",
			"outputs": [
				{
					"name": "success",
					"type": "bool"
				}
			],
			"payable": false,
			"stateMutability": "nonpayable",
			"type": "function"
		},
		{
			"constant": true,
			"inputs": [
				{
					"name": "_lotOwner",
					"type": "address"
				}
			],
			"name": "lotsByAddress",
			"outputs": [
				{
					"name": "",
					"type": "bytes32[]"
				}
			],
			"payable": false,
			"stateMutability": "view",
			"type": "function"
		},
		{
			"constant": true,
			"inputs": [
				{
					"name": "_lotOwner",
					"type": "address"
				}
			],
			"name": "totalLotsByAddress",
			"outputs": [
				{
					"name": "",
					"type": "uint256"
				}
			],
			"payable": false,
			"stateMutability": "view",
			"type": "function"
		},
		{
			"constant": true,
			"inputs": [
				{
					"name": "_lotOwner",
					"type": "address"
				},
				{
					"name": "_index",
					"type": "uint256"
				}
			],
			"name": "lotOfOwnerByIndex",
			"outputs": [
				{
					"name": "",
					"type": "bytes32"
				},
				{
					"name": "",
					"type": "uint256"
				},
				{
					"name": "",
					"type": "uint256"
				}
			],
			"payable": false,
			"stateMutability": "view",
			"type": "function"
		},
		{
			"constant": true,
			"inputs": [
				{
					"name": "_lotId",
					"type": "bytes32"
				}
			],
			"name": "lotById",
			"outputs": [
				{
					"name": "",
					"type": "bytes32"
				},
				{
					"name": "",
					"type": "uint256"
				},
				{
					"name": "",
					"type": "uint256"
				}
			],
			"payable": false,
			"stateMutability": "view",
			"type": "function"
		},
		{
			"constant": true,
			"inputs": [
				{
					"name": "_lotOwner",
					"type": "address"
				}
			],
			"name": "weightedIndexByAddress",
			"outputs": [
				{
					"name": "",
					"type": "uint256"
				}
			],
			"payable": false,
			"stateMutability": "view",
			"type": "function"
		},
		{
			"constant": false,
			"inputs": [
				{
					"name": "_to",
					"type": "address"
				},
				{
					"name": "_value",
					"type": "uint256"
				},
				{
					"name": "_icoValue",
					"type": "uint256"
				}
			],
			"name": "transferTokens",
			"outputs": [
				{
					"name": "success",
					"type": "bool"
				}
			],
			"payable": false,
			"stateMutability": "nonpayable",
			"type": "function"
		},
		{
			"constant": false,
			"inputs": [
				{
					"name": "_from",
					"type": "address"
				},
				{
					"name": "_to",
					"type": "address"
				},
				{
					"name": "_value",
					"type": "uint256"
				},
				{
					"name": "_icoValue",
					"type": "uint256"
				}
			],
			"name": "transferTokensFrom",
			"outputs": [
				{
					"name": "success",
					"type": "bool"
				}
			],
			"payable": false,
			"stateMutability": "nonpayable",
			"type": "function"
		},
		{
			"constant": false,
			"inputs": [
				{
					"name": "_spender",
					"type": "address"
				},
				{
					"name": "_value",
					"type": "uint256"
				},
				{
					"name": "_icoValue",
					"type": "uint256"
				}
			],
			"name": "approveTokens",
			"outputs": [
				{
					"name": "success",
					"type": "bool"
				}
			],
			"payable": false,
			"stateMutability": "nonpayable",
			"type": "function"
		},
		{
			"constant": false,
			"inputs": [
				{
					"name": "_spender",
					"type": "address"
				},
				{
					"name": "_value",
					"type": "uint256"
				},
				{
					"name": "_icoValue",
					"type": "uint256"
				},
				{
					"name": "_extraData",
					"type": "bytes"
				}
			],
			"name": "approveTokensAndCall",
			"outputs": [
				{
					"name": "success",
					"type": "bool"
				}
			],
			"payable": false,
			"stateMutability": "nonpayable",
			"type": "function"
		},
		{
			"constant": false,
			"inputs": [
				{
					"name": "_value",
					"type": "uint256"
				},
				{
					"name": "_icoValue",
					"type": "uint256"
				}
			],
			"name": "burnTokens",
			"outputs": [
				{
					"name": "success",
					"type": "bool"
				}
			],
			"payable": false,
			"stateMutability": "nonpayable",
			"type": "function"
		},
		{
			"constant": false,
			"inputs": [
				{
					"name": "_from",
					"type": "address"
				},
				{
					"name": "_value",
					"type": "uint256"
				},
				{
					"name": "_icoValue",
					"type": "uint256"
				}
			],
			"name": "burnTokensFrom",
			"outputs": [
				{
					"name": "success",
					"type": "bool"
				}
			],
			"payable": false,
			"stateMutability": "nonpayable",
			"type": "function"
		}
	],
	"bytecode": "0x60806040526004805460ff191660121790553480156200001e57600080fd5b50604051620034523803806200345283398101604090815281516020808401518385015160008054600160a060020a03191633908117825560045460ff16600a0a86026005819055908252600685529590209490945584018051929490930191849184918491620000959160029185019062000128565b508051620000ab90600390602084019062000128565b5050600060088190556004805460ff19908116909155601080549091166001179055620000e792509050612710640100000000620000f0810204565b505050620001cd565b600054600160a060020a031633146200010857600080fd5b60105460ff1615156001146200011d57600080fd5b600e91909155600f55565b828054600181600116156101000203166002900490600052602060002090601f016020900481019282601f106200016b57805160ff19168380011785556200019b565b828001600101855582156200019b579182015b828111156200019b5782518255916020019190600101906200017e565b50620001a9929150620001ad565b5090565b620001ca91905b80821115620001a95760008155600101620001b4565b90565b61327580620001dd6000396000f3006080604052600436106103165763ffffffff7c01000000000000000000000000000000000000000000000000000000006000350416630387995a811461031b57806305fefda71461035957806306fdde0314610376578063080e74f714610400578063095ea7b3146104365780630aa245461461045a57806318160ddd14610481578063201abe9e14610496578063212e28e3146104ab57806323b872dd146104c0578063247b188b146104ea57806325f552c1146104ff578063313ce5671461051457806331a8aeb31461053f578063342e68ed14610563578063360f277b1461056b5780633bcd66241461058057806342966c68146105ec57806346878fff146106045780634b7503341461067557806350d400e51461068a5780635338125e1461069f57806353d6fd59146106c6578063547ba3cd146106ec57806354f7dd8c1461070157806356307efc1461072557806356d3018114610746578063580b72e114610767578063585ac3e81461078e5780635cdac818146107a3578063602172671461080c57806370a082311461082d578063731a3b061461084e57806379c650681461087257806379cc6790146108965780637af33159146108ba5780638620410b146108d55780638da5cb5b146108ea5780638e81c64d1461091b57806395d89b41146109365780639b19251a1461094b5780639b66da9c1461096c5780639d8c1eed14610993578063a144a3e0146109ba578063a4bbded4146109e4578063a6f2ae3a146109f9578063a9059cbb14610a01578063a9f7e66414610a25578063ab56a02814610a4c578063b1e19d4514610a70578063b414d4b614610a94578063b96d036914610ab5578063bdb9c11f14610aca578063bde3401b14610af7578063bf5d0a2d14610b1b578063c464ed9b14610b33578063c66e409514610b57578063cae9ca5114610b6c578063dd1a293a14610bd5578063dd62ed3e14610bfc578063e4849b3214610c23578063e724529c14610c3b578063ea67a17114610c61578063eca7498114610c76578063f2fde38b14610ca0578063f5bd48c414610cc1578063f6421d8914610ce2575b600080fd5b34801561032757600080fd5b50610345600160a060020a0360043581169060243516604435610d06565b604080519115158252519081900360200190f35b34801561036557600080fd5b50610374600435602435610eb0565b005b34801561038257600080fd5b5061038b610ed2565b6040805160208082528351818301528351919283929083019185019080838360005b838110156103c55781810151838201526020016103ad565b50505050905090810190601f1680156103f25780820380516001836020036101000a031916815260200191505b509250505060405180910390f35b34801561040c57600080fd5b50610418600435610f5d565b60408051938452602084019290925282820152519081900360600190f35b34801561044257600080fd5b50610345600160a060020a0360043516602435610fd6565b34801561046657600080fd5b5061046f61103d565b60408051918252519081900360200190f35b34801561048d57600080fd5b5061046f611043565b3480156104a257600080fd5b5061046f611049565b3480156104b757600080fd5b5061037461104f565b3480156104cc57600080fd5b50610345600160a060020a0360043581169060243516604435611126565b3480156104f657600080fd5b5061046f611195565b34801561050b57600080fd5b5061046f61119b565b34801561052057600080fd5b506105296111a5565b6040805160ff9092168252519081900360200190f35b34801561054b57600080fd5b50610345600160a060020a03600435166024356111ae565b6103746112cb565b34801561057757600080fd5b5061046f611401565b34801561058c57600080fd5b50604080516020601f60643560048181013592830184900484028501840190955281845261034594600160a060020a0381351694602480359560443595369560849493019181908401838280828437509497506114079650505050505050565b3480156105f857600080fd5b50610345600435611455565b34801561061057600080fd5b50610625600160a060020a03600435166114cd565b60408051602080825283518183015283519192839290830191858101910280838360005b83811015610661578181015183820152602001610649565b505050509050019250505060405180910390f35b34801561068157600080fd5b5061046f61154f565b34801561069657600080fd5b5061046f611555565b3480156106ab57600080fd5b5061046f600160a060020a036004358116906024351661155c565b3480156106d257600080fd5b50610374600160a060020a03600435166024351515611579565b3480156106f857600080fd5b5061046f6115bb565b34801561070d57600080fd5b50610418600160a060020a03600435166024356115c1565b34801561073157600080fd5b5061046f600160a060020a0360043516611697565b34801561075257600080fd5b5061046f600160a060020a03600435166116ca565b34801561077357600080fd5b50610345600160a060020a03600435166024356044356116dc565b34801561079a57600080fd5b5061034561171d565b3480156107af57600080fd5b50604080516020600460443581810135601f8101849004840285018401909552848452610345948235600160a060020a031694602480359536959460649492019190819084018382808284375094975061172b9650505050505050565b34801561081857600080fd5b5061046f600160a060020a036004351661185c565b34801561083957600080fd5b5061046f600160a060020a036004351661186e565b34801561085a57600080fd5b50610345600160a060020a0360043516602435611880565b34801561087e57600080fd5b50610345600160a060020a036004351660243561199d565b3480156108a257600080fd5b50610345600160a060020a0360043516602435611ab5565b3480156108c657600080fd5b50610374600435602435611b86565b3480156108e157600080fd5b5061046f611bbc565b3480156108f657600080fd5b506108ff611bc2565b60408051600160a060020a039092168252519081900360200190f35b34801561092757600080fd5b50610345600435602435611bd1565b34801561094257600080fd5b5061038b611c19565b34801561095757600080fd5b50610345600160a060020a0360043516611c74565b34801561097857600080fd5b50610345600160a060020a0360043516602435604435611c89565b34801561099f57600080fd5b50610345600160a060020a0360043516602435604435611df7565b3480156109c657600080fd5b50610345600160a060020a0360043581169060243516604435612003565b3480156109f057600080fd5b5061046f61204c565b610374612057565b348015610a0d57600080fd5b50610345600160a060020a036004351660243561208a565b348015610a3157600080fd5b50610345600160a060020a0360043516602435604435612097565b348015610a5857600080fd5b50610345600160a060020a03600435166024356120c9565b348015610a7c57600080fd5b50610345600160a060020a03600435166024356121ed565b348015610aa057600080fd5b50610345600160a060020a03600435166122f1565b348015610ac157600080fd5b50610345612306565b348015610ad657600080fd5b50610345600160a060020a036004358116906024351660443560643561230f565b348015610b0357600080fd5b5061046f600160a060020a0360043516602435612347565b348015610b2757600080fd5b50610345600435612364565b348015610b3f57600080fd5b50610345600160a060020a036004351660243561241b565b348015610b6357600080fd5b50610345612499565b348015610b7857600080fd5b50604080516020600460443581810135601f8101849004840285018401909552848452610345948235600160a060020a03169460248035953695946064949201919081908401838280828437509497506124a29650505050505050565b348015610be157600080fd5b50610345600160a060020a03600435166024356044356124af565b348015610c0857600080fd5b5061046f600160a060020a03600435811690602435166124e5565b348015610c2f57600080fd5b50610374600435612502565b348015610c4757600080fd5b50610374600160a060020a0360043516602435151561258e565b348015610c6d57600080fd5b5061046f612609565b348015610c8257600080fd5b50610345600160a060020a036004358116906024351660443561260f565b348015610cac57600080fd5b50610374600160a060020a0360043516612654565b348015610ccd57600080fd5b5061046f600160a060020a036004351661269a565b348015610cee57600080fd5b50610345600160a060020a03600435166024356126cd565b600080610d11613222565b60105460ff161515600114610d2557600080fd5b600160a060020a0386166000908152601260209081526040808320338452909152902054841115610d5557600080fd5b600160a060020a0386166000908152601260209081526040808320338452909152902054610d89908563ffffffff61282116565b600160a060020a0387166000818152601260209081526040808320338452825280832094909455918152601a9091522054610dc79086908690612833565b6000818152601760209081526040918290208251608081018452815481526001820154928101929092526002810154600160a060020a039081169383018490526003909101546060830152929450925090861614610e2457600080fd5b610e2f8686866129b8565b1515610e3a57600080fd5b610e4385612b9b565b1515610e4e57600080fd5b805160408083015160208085015160608601518451918252918101919091528251600160a060020a03909216927f516066f761a431d16b9e8d52e777640dcc66f5231c174577529f12b67d0d415792918290030190a350600195945050505050565b600054600160a060020a03163314610ec757600080fd5b600991909155600a55565b6002805460408051602060018416156101000260001901909316849004601f81018490048402820184019092528181529291830182828015610f555780601f10610f2a57610100808354040283529160200191610f55565b820191906000526020600020905b815481529060010190602001808311610f3857829003601f168201915b505050505081565b6000806000610f6a613222565b60105460ff161515600114610f7e57600080fd5b505050600091825250601760209081526040918290208251608081018452815480825260018301549382018490526002830154600160a060020a03169482019490945260039091015460609091018190529192909190565b336000818152600760209081526040808320600160a060020a038716808552908352818420869055815186815291519394909390927f8c5be1e5ebec7d5bd14f71427d1e84f3dd0314c0f7b2291e5b200ac8c7c3b925928290030190a35060015b92915050565b60085481565b60055481565b600e5481565b60008054600160a060020a0316331461106757600080fd5b60105460ff16151560011461107b57600080fd5b601654610100900460ff161561109057600080fd5b60165460ff16156110a057600080fd5b600d546603fffffffffffc116110b557600080fd5b506016805460ff19166001179055600d546572815b397ffc906603fffffffffffc906110e7908363ffffffff612cea16565b1061111957600d54611107906603fffffffffffc9063ffffffff61282116565b6016805461ff00191661010017905590505b6111233382612cf7565b50565b600160a060020a038316600090815260076020908152604080832033845290915281205482111561115657600080fd5b600160a060020a038416600090815260076020908152604080832033845290915290208054839003905561118b848484612f23565b5060019392505050565b600d5481565b6572815b397ffc81565b60045460ff1681565b33600081815260016020819052604082205491929160ff16151514806111e15750600054600160a060020a038281169116145b15156111ec57600080fd5b600160a060020a03841660009081526006602052604090205483111561121157600080fd5b600160a060020a03841660009081526006602052604090205461123a908463ffffffff61282116565b600160a060020a038516600090815260066020908152604080832093909355600c9052205461126f908463ffffffff612cea16565b600160a060020a0385166000818152600c6020908152604091829020939093558051868152905191927febedb8b3c678666e7f36970bc8f57abf6d8fa2e828c0da91ea5b75bf68ed101a92918290030190a25060019392505050565b601054600090819060ff1615156001146112e457600080fd5b601654610100900460ff16156112f957600080fd5b600d546603fffffffffffc1161130e57600080fd5b600f5460001061131d57600080fd5b6000341161132a57600080fd5b600f5461133e90349063ffffffff61310b16565b9150600090506603fffffffffffc61136183600d54612cea90919063ffffffff16565b106113bb57600d54611381906603fffffffffffc9063ffffffff61282116565b6016805461ff001916610100179055600f549092506113b8906113ab90849063ffffffff61312016565b349063ffffffff61282116565b90505b6113c53383612cf7565b60008111156113fd57604051339082156108fc029083906000818181858888f193505050501580156113fb573d6000803e3d6000fd5b505b5050565b60145481565b60105460009060ff16151560011461141e57600080fd5b6114298585846124a2565b151561143457600080fd5b61143f85848461172b565b151561144a57600080fd5b506001949350505050565b3360009081526006602052604081205482111561147157600080fd5b3360008181526006602090815260409182902080548690039055600580548690039055815185815291517fcc16f5dbb4873280815c1ee09dbd06736cffcc184412cf7a71a0fdb75d397ca59281900390910190a2506001919050565b60105460609060ff1615156001146114e457600080fd5b600160a060020a0382166000908152601860209081526040918290208054835181840281018401909452808452909183018282801561154357602002820191906000526020600020905b8154815260019091019060200180831161152e575b50505050509050919050565b60095481565b620f424081565b601260209081526000928352604080842090915290825290205481565b600054600160a060020a0316331461159057600080fd5b600160a060020a03919091166000908152600160205260409020805460ff1916911515919091179055565b600f5481565b60008060006115ce613222565b60105460ff1615156001146115e257600080fd5b600160a060020a038616600090815260186020526040902054851061160657600080fd5b600160a060020a0386166000908152601860205260408120805460179291908890811061162f57fe5b600091825260208083209190910154835282810193909352604091820190208151608081018352815480825260018301549482018590526002830154600160a060020a0316938201939093526003909101546060909101819052909891975095509350505050565b60105460009060ff1615156001146116ae57600080fd5b50600160a060020a03166000908152601a602052604090205490565b60116020526000908152604090205481565b60105460009060ff1615156001146116f357600080fd5b6116fd8484610fd6565b151561170857600080fd5b611712848361241b565b151561118b57600080fd5b601654610100900460ff1681565b601054600090819060ff16151560011461174457600080fd5b5083611750818561241b565b15611854576040517f8f4ffcb10000000000000000000000000000000000000000000000000000000081523360048201818152602483018790523060448401819052608060648501908152875160848601528751600160a060020a03871695638f4ffcb195948b94938b939192909160a490910190602085019080838360005b838110156117e85781810151838201526020016117d0565b50505050905090810190601f1680156118155780820380516001836020036101000a031916815260200191505b5095505050505050600060405180830381600087803b15801561183757600080fd5b505af115801561184b573d6000803e3d6000fd5b50505050600191505b509392505050565b600c6020526000908152604090205481565b60066020526000908152604090205481565b33600081815260016020819052604082205491929160ff16151514806118b35750600054600160a060020a038281169116145b15156118be57600080fd5b600160a060020a0384166000908152600c60205260409020548311156118e357600080fd5b600160a060020a0384166000908152600c602052604090205461190c908463ffffffff61282116565b600160a060020a0385166000908152600c6020908152604080832093909355600690522054611941908463ffffffff612cea16565b600160a060020a038516600081815260066020908152604091829020939093558051868152905191927f85082129d87b2fe11527cb1b3b7a520aeb5aa6913f88a3d8757fe40d1db02fdd92918290030190a25060019392505050565b33600081815260016020819052604082205491929160ff16151514806119d05750600054600160a060020a038281169116145b15156119db57600080fd5b600160a060020a038416600090815260066020526040902054611a04908463ffffffff612cea16565b600160a060020a038516600090815260066020526040902055600554611a30908463ffffffff612cea16565b60055560408051848152905130916000917fddf252ad1be2c89b69c2b068fc378daa952ba7f163c4a11628f55a4df523b3ef9181900360200190a3604080518481529051600160a060020a0386169130917fddf252ad1be2c89b69c2b068fc378daa952ba7f163c4a11628f55a4df523b3ef9181900360200190a35060019392505050565b600160a060020a038216600090815260066020526040812054821115611ada57600080fd5b600160a060020a0383166000908152600760209081526040808320338452909152902054821115611b0a57600080fd5b600160a060020a0383166000818152600660209081526040808320805487900390556007825280832033845282529182902080548690039055600580548690039055815185815291517fcc16f5dbb4873280815c1ee09dbd06736cffcc184412cf7a71a0fdb75d397ca59281900390910190a250600192915050565b600054600160a060020a03163314611b9d57600080fd5b60105460ff161515600114611bb157600080fd5b600e91909155600f55565b600a5481565b600054600160a060020a031681565b60105460009060ff161515600114611be857600080fd5b611bf183611455565b1515611bfc57600080fd5b611c0582612364565b1515611c1057600080fd5b50600192915050565b6003805460408051602060026001851615610100026000190190941693909304601f81018490048402820184019092528181529291830182828015610f555780601f10610f2a57610100808354040283529160200191610f55565b60016020526000908152604090205460ff1681565b33600081815260016020819052604082205491929160ff1615151480611cbc5750600054600160a060020a038281169116145b1515611cc757600080fd5b60105460ff161515600114611cdb57600080fd5b600160a060020a038516600090815260116020526040902054841115611d0057600080fd5b600160a060020a0385166000908152601a60205260409020548314611d2457600080fd5b600160a060020a038516600090815260116020526040902054611d4d908563ffffffff61282116565b600160a060020a0386166000908152601160209081526040808320939093556013815282822086835290522054611d8a908563ffffffff612cea16565b600160a060020a0386166000818152601360209081526040808320888452825291829020939093558051878152928301869052805191927f6f97a5002b2c5b7afa10e6f08007020c0a7b58079f59ccf1be8ccea6f83c5709929081900390910190a2506001949350505050565b33600081815260016020819052604082205491928392839260ff90911615151480611e2f5750600054600160a060020a038281169116145b1515611e3a57600080fd5b60105460ff161515600114611e4e57600080fd5b600160a060020a0387166000908152601360209081526040808320888452909152902054861115611e7e57600080fd5b600160a060020a0387166000908152601360209081526040808320888452909152902054611eb2908763ffffffff61282116565b600160a060020a0388166000908152601360209081526040808320898452909152902055611f29611ee9868863ffffffff61312016565b600160a060020a038916600090815260116020908152604080832054601a90925290912054611f1d9163ffffffff61312016565b9063ffffffff612cea16565b600160a060020a038816600090815260116020526040902054909350611f55908763ffffffff612cea16565b9150611f67838363ffffffff61310b16565b600160a060020a0388166000908152601a6020908152604080832093909355601190522054611f9c908763ffffffff612cea16565b600160a060020a038816600081815260116020908152604091829020939093558051898152928301889052805191927fe1d6b01d4a7f422d40f8cb3586a989adeb8a0ae311657c4554d8552d6b0110df929081900390910190a25060019695505050505050565b33600081815260016020819052604082205491929160ff16151514806120365750600054600160a060020a038281169116145b151561204157600080fd5b61144a858585612f23565b6603fffffffffffc81565b600080600a5411151561206957600080fd5b600a5461207d90349063ffffffff61310b16565b9050611123303383612f23565b6000611c10338484612f23565b60105460009060ff1615156001146120ae57600080fd5b6120b8848461208a565b15156120c357600080fd5b61171284835b6000806120d4613222565b60105460ff1615156001146120e857600080fd5b336000908152601a60205260409020546121059086908690612833565b6000818152601760209081526040918290208251608081018452815481526001820154928101929092526002810154600160a060020a03908116938301849052600390910154606083015292945092509086161461216257600080fd5b61216d3386866129b8565b151561217857600080fd5b61218185612b9b565b151561218c57600080fd5b805160408083015160208085015160608601518451918252918101919091528251600160a060020a03909216927f516066f761a431d16b9e8d52e777640dcc66f5231c174577529f12b67d0d415792918290030190a3506001949350505050565b33600081815260016020819052604082205491929160ff16151514806122205750600054600160a060020a038281169116145b151561222b57600080fd5b600160a060020a03841660009081526006602052604090205483111561225057600080fd5b600160a060020a038416600090815260066020526040902054612279908463ffffffff61282116565b600160a060020a0385166000908152600660205260409020556005546122a5908463ffffffff61282116565b600555604080518481529051600160a060020a038616917fcc16f5dbb4873280815c1ee09dbd06736cffcc184412cf7a71a0fdb75d397ca5919081900360200190a25060019392505050565b600b6020526000908152604090205460ff1681565b60165460ff1681565b60105460009060ff16151560011461232657600080fd5b612331858585611126565b151561233c57600080fd5b61143f858584610d06565b601360209081526000928352604080842090915290825290205481565b60105460009060ff16151560011461237b57600080fd5b3360009081526011602052604090205482111561239757600080fd5b336000908152601160205260409020546123b7908363ffffffff61282116565b33600090815260116020526040902055600d546123da908363ffffffff61282116565b600d5560408051838152905133917fe548a1d04a6c54afbf31ed1c35d34a8c71b5d7d9394afa33675e75b6508d5594919081900360200190a2506001919050565b60105460009060ff16151560011461243257600080fd5b336000818152601260209081526040808320600160a060020a03881680855290835292819020869055805186815290519293927f55a2c3b5068b1175e7b8be05a4369d5ebf80d74f846494792d3920e1d6efad0f929181900390910190a350600192915050565b60105460ff1681565b6000836117508185610fd6565b60105460009060ff1615156001146124c657600080fd5b6124d08484611ab5565b15156124db57600080fd5b61171284836126cd565b600760209081526000928352604080842090915290825290205481565b60008060095411151561251457600080fd5b50600954309061252b90839063ffffffff61312016565b600160a060020a03821631101561254157600080fd5b61254c333084612f23565b60095433906108fc9061256690859063ffffffff61312016565b6040518115909202916000818181858888f193505050501580156113fb573d6000803e3d6000fd5b600054600160a060020a031633146125a557600080fd5b600160a060020a0382166000818152600b6020908152604091829020805460ff191685151590811790915582519384529083015280517f48335238b4855f35377ed80f164e8c6f3c366e54ac00b96a6402d4a9814a03a59281900390910190a15050565b60155481565b60008061261a613222565b60105460ff16151560011461262e57600080fd5b600160a060020a0386166000908152601a6020526040902054610dc79086908690612833565b600054600160a060020a0316331461266b57600080fd5b6000805473ffffffffffffffffffffffffffffffffffffffff1916600160a060020a0392909216919091179055565b60105460009060ff1615156001146126b157600080fd5b50600160a060020a031660009081526018602052604090205490565b60105460009060ff1615156001146126e457600080fd5b600160a060020a03831660009081526011602052604090205482111561270957600080fd5b600160a060020a038316600090815260126020908152604080832033845290915290205482111561273957600080fd5b600160a060020a038316600090815260116020526040902054612762908363ffffffff61282116565b600160a060020a038416600090815260116020908152604080832093909355601281528282203383529052205461279f908363ffffffff61282116565b600160a060020a0384166000908152601260209081526040808320338452909152902055600d546127d6908363ffffffff61282116565b600d55604080518381529051600160a060020a038516917fe548a1d04a6c54afbf31ed1c35d34a8c71b5d7d9394afa33675e75b6508d5594919081900360200190a250600192915050565b60008282111561282d57fe5b50900390565b6000808080600160a060020a038716151561284d57600080fd5b6000861161285a57600080fd5b6014805460010190819055604080516c01000000000000000000000000308102602080840191909152600160a060020a038c16909102603483015260488083019490945282518083039094018452606890910191829052825182918401908083835b602083106128db5780518252601f1990920191602091820191016128bc565b51815160209384036101000a60001901801990921691161790526040805192909401829003909120600081815260179092529290206002015491965050600160a060020a031615915061292f905057600080fd5b5050600081815260176020908152604080832084815560018082019790975560028101805473ffffffffffffffffffffffffffffffffffffffff1916600160a060020a039a909a16998a17905560030196909655868252601881528582208054958601815582528082208501839055958152601986528481208282529095529290932055919050565b600080600160a060020a03841615156129d057600080fd5b600160a060020a0385166000908152601160205260409020548311156129f557600080fd5b600160a060020a038416600090815260116020526040902054612a1e818563ffffffff612cea16565b1015612a2957600080fd5b600160a060020a0385166000908152600b602052604090205460ff1615612a4f57600080fd5b600160a060020a0384166000908152600b602052604090205460ff1615612a7557600080fd5b600160a060020a03808516600090815260116020526040808220549288168252902054612aa79163ffffffff612cea16565b600160a060020a038616600090815260116020526040902054909150612ad3908463ffffffff61282116565b600160a060020a038087166000908152601160205260408082209390935590861681522054612b08908463ffffffff612cea16565b600160a060020a0380861660008181526011602090815260409182902094909455805187815290519193928916927f75cd98db28481472f2c8b6546dd22b971e320f3f8bbefa177a2f521d2433eaad92918290030190a3600160a060020a038085166000908152601160205260408082205492881682529020548291612b94919063ffffffff612cea16565b1461144a57fe5b600080600080612ba9613222565b600160a060020a0386166000908152601860205260408120541115612cde57600091505b600160a060020a038616600090815260186020526040902054821015612cb457600160a060020a03861660009081526018602052604081208054601792919085908110612c1657fe5b60009182526020808320909101548352828101939093526040918201902081516080810183528154815260018201549381018490526002820154600160a060020a0316928101929092526003015460608201819052909250612c8e91612c819163ffffffff61312016565b859063ffffffff612cea16565b9350612ca7816060015184612cea90919063ffffffff16565b9250600190910190612bcd565b612cc4848463ffffffff61310b16565b600160a060020a0387166000908152601a60205260409020555b50600195945050505050565b8181018281101561103757fe5b60008080600160a060020a0385161515612d1057600080fd5b60008411612d1d57600080fd5b60148054600190810191829055601580549091019055604080516c01000000000000000000000000308102602080840191909152600160a060020a038a16909102603483015260488083019490945282518083039094018452606890910191829052825182918401908083835b60208310612da95780518252601f199092019160209182019101612d8a565b51815160209384036101000a60001901801990921691161790526040805192909401829003909120600081815260179092529290206002015491965050600160a060020a0316159150612dfd905057600080fd5b6000838152601760205260409020838155601554909250612e2790620f424063ffffffff61312016565b60018381019190915560028301805473ffffffffffffffffffffffffffffffffffffffff1916600160a060020a0388169081179091556003840186905560008181526018602090815260408083208054958601815583528183208501889055928252601981528282208783529052208190559050612ea58585613149565b1515612eb057600080fd5b612eb985612b9b565b1515612ec457600080fd5b81546002830154600184015460038501546040805192835260208301919091528051600160a060020a03909316927f516066f761a431d16b9e8d52e777640dcc66f5231c174577529f12b67d0d41579281900390910190a35050505050565b6000600160a060020a0383161515612f3a57600080fd5b600160a060020a038416600090815260066020526040902054821115612f5f57600080fd5b600160a060020a038316600090815260066020526040902054612f88818463ffffffff612cea16565b1015612f9357600080fd5b600160a060020a0384166000908152600b602052604090205460ff1615612fb957600080fd5b600160a060020a0383166000908152600b602052604090205460ff1615612fdf57600080fd5b600160a060020a038084166000908152600660205260408082205492871682529020546130119163ffffffff612cea16565b600160a060020a03851660009081526006602052604090205490915061303d908363ffffffff61282116565b600160a060020a038086166000908152600660205260408082209390935590851681522054613072908363ffffffff612cea16565b600160a060020a0380851660008181526006602090815260409182902094909455805186815290519193928816927fddf252ad1be2c89b69c2b068fc378daa952ba7f163c4a11628f55a4df523b3ef92918290030190a3600160a060020a0380841660009081526006602052604080822054928716825290205482916130fe919063ffffffff612cea16565b1461310557fe5b50505050565b6000818381151561311857fe5b049392505050565b600082151561313157506000611037565b5081810281838281151561314157fe5b041461103757fe5b600160a060020a038216600090815260116020526040812054613172908363ffffffff612cea16565b600160a060020a038416600090815260116020526040902055600d5461319e908363ffffffff612cea16565b600d5560408051838152905130916000917f75cd98db28481472f2c8b6546dd22b971e320f3f8bbefa177a2f521d2433eaad9181900360200190a3604080518381529051600160a060020a0385169130917f75cd98db28481472f2c8b6546dd22b971e320f3f8bbefa177a2f521d2433eaad9181900360200190a350600192915050565b604080516080810182526000808252602082018190529181018290526060810191909152905600a165627a7a7230582044aafa3c8a88bde70578d7943e4e63b739987f6acb47f55fbee0f3e5294c74700029",
	"source": "pragma solidity ^0.4.24;\n\nimport './SafeMath.sol';\nimport './owned.sol';\nimport './TokenERC20.sol';\nimport './tokenRecipient.sol';\n\n/**\n * @title AOToken\n */\ncontract AOToken is owned, TokenERC20 {\n\tusing SafeMath for uint256;\n\n\t// To differentiate denomination of AO\n\tuint256 public powerOfTen;\n\n\t/***** NORMAL ERC20 TOKEN VARIABLES *****/\n\tuint256 public sellPrice;\n\tuint256 public buyPrice;\n\n\tmapping (address => bool) public frozenAccount;\n\tmapping (address => uint256) public stakedBalance;\n\n\t// This generates a public event on the blockchain that will notify clients\n\tevent FrozenFunds(address target, bool frozen);\n\tevent Stake(address indexed from, uint256 value);\n\tevent Unstake(address indexed from, uint256 value);\n\n\t/***** ICO TOKEN VARIABLES *****/\n\tuint256 public icoTotalSupply;\n\tuint256 public icoSellPrice;\n\tuint256 public icoBuyPrice;\n\tbool public icoContract;\n\n\tmapping (address => uint256) public icoBalanceOf;\n\tmapping (address => mapping (address => uint256)) public icoAllowance;\n\n\t// Mapping from owner's lot weighted index to the amount of staked tokens\n\tmapping (address => mapping (uint256 => uint256)) public icoStakedBalance;\n\n\tevent IcoTransfer(address indexed from, address indexed to, uint256 value);\n\tevent IcoApproval(address indexed _owner, address indexed _spender, uint256 _value);\n\tevent IcoBurn(address indexed from, uint256 value);\n\tevent IcoStake(address indexed from, uint256 value, uint256 weightedIndex);\n\tevent IcoUnstake(address indexed from, uint256 value, uint256 weightedIndex);\n\n\tuint256 public totalLots;\n\tuint256 public lotIndex;\n\n\t// Max supply of 1,125,899,906,842,620 AOTKN\n\tuint256 constant public MAX_ICO_SUPPLY = 1125899906842620;\n\t// The amount of tokens that we want to reserve for foundation\n\tuint256 constant public ICO_RESERVED_FOR_FOUNDATION = 125899906842620;\n\t// Account for 6 decimal points for weighted index\n\tuint256 constant public WEIGHTED_INDEX_DIVISOR = 10 ** 6; // 1000000 = 1\n\n\tbool public foundationReserved;\n\tbool public icoEnded;\n\n\tstruct Lot {\n\t\tbytes32 lotId;\n\t\tuint256 index;\t// This value is in 10^6, so 1000000 = 1\n\t\taddress lotOwner;\n\t\tuint256 tokenAmount;\n\t}\n\n\t// Mapping from lot ID to the lot object\n\tmapping (bytes32 => Lot) internal lots;\n\n\t// Mapping from owner to list of owned lot IDs\n\tmapping (address => bytes32[]) internal ownedLots;\n\n\t// Mapping from owner's lot ID to index of the owner lots list\n\tmapping (address => mapping (bytes32 => uint256)) internal ownedLotsIndex;\n\n\t// Mapping from owner to his/her current weighted index\n\tmapping (address => uint256) internal ownerWeightedIndex;\n\n\t// Event to be broadcasted to public when a lot is created\n\t// index value is in 10^6 to account for decimal points\n\tevent LotCreation(address indexed lotOwner, bytes32 indexed lotId, uint256 index, uint256 tokenAmount);\n\n\t/**\n\t * @dev Constructor function\n\t */\n\tconstructor(uint256 initialSupply, string tokenName, string tokenSymbol)\n\t\tTokenERC20(initialSupply, tokenName, tokenSymbol) public {\n\t\tpowerOfTen = 0;\n\t\tdecimals = 0;\n\t\ticoContract = true;\n\t\tsetIcoPrices(0, 10000); // Set ICO buy price to 10000 Wei/token\n\t}\n\n\t/**\n\t * @dev Checks if this is the ICO contract\n\t */\n\tmodifier isIco {\n\t\trequire (icoContract == true);\n\t\t_;\n\t}\n\n\t/***** OWNER ONLY METHODS *****/\n\t/***** NORMAL ERC20 OWNER ONLY METHODS *****/\n\t/**\n\t * @dev Prevent/Allow target from sending & receiving tokens\n\t * @param target Address to be frozen\n\t * @param freeze Either to freeze it or not\n\t */\n\tfunction freezeAccount(address target, bool freeze) public onlyOwner {\n\t\tfrozenAccount[target] = freeze;\n\t\temit FrozenFunds(target, freeze);\n\t}\n\n\t/**\n\t * @dev Allow users to buy tokens for `newBuyPrice` eth and sell tokens for `newSellPrice` eth\n\t * @param newSellPrice Price users can sell to the contract\n\t * @param newBuyPrice Price users can buy from the contract\n\t */\n\tfunction setPrices(uint256 newSellPrice, uint256 newBuyPrice) public onlyOwner {\n\t\tsellPrice = newSellPrice;\n\t\tbuyPrice = newBuyPrice;\n\t}\n\n\t/**\n\t * @dev Create `mintedAmount` tokens and send it to `target`\n\t * @param target Address to receive the tokens\n\t * @param mintedAmount The amount of tokens it will receive\n\t */\n\tfunction mintToken(address target, uint256 mintedAmount) public inWhitelist(msg.sender) returns (bool) {\n\t\tbalanceOf[target] = balanceOf[target].add(mintedAmount);\n\t\ttotalSupply = totalSupply.add(mintedAmount);\n\t\temit Transfer(0, this, mintedAmount);\n\t\temit Transfer(this, target, mintedAmount);\n\t\treturn true;\n\t}\n\n\t/**\n\t * @dev Stake `_value` tokens on behalf of `_from`\n\t * @param _from The address of the target\n\t * @param _value The amount to stake\n\t * @return true on success\n\t */\n\tfunction stakeFrom(address _from, uint256 _value) public inWhitelist(msg.sender) returns (bool) {\n\t\trequire (balanceOf[_from] >= _value);\t\t\t\t\t\t// Check if the targeted balance is enough\n\t\tbalanceOf[_from] = balanceOf[_from].sub(_value);\t\t\t// Subtract from the targeted balance\n\t\tstakedBalance[_from] = stakedBalance[_from].add(_value);\t// Add to the targeted staked balance\n\t\temit Stake(_from, _value);\n\t\treturn true;\n\t}\n\n\t/**\n\t * @dev Unstake `_value` tokens on behalf of `_from`\n\t * @param _from The address of the target\n\t * @param _value The amount to unstake\n\t * @return true on success\n\t */\n\tfunction unstakeFrom(address _from, uint256 _value) public inWhitelist(msg.sender) returns (bool) {\n\t\trequire (stakedBalance[_from] >= _value);\t\t\t\t\t// Check if the targeted staked balance is enough\n\t\tstakedBalance[_from] = stakedBalance[_from].sub(_value);\t// Subtract from the targeted staked balance\n\t\tbalanceOf[_from] = balanceOf[_from].add(_value);\t\t\t// Add to the targeted balance\n\t\temit Unstake(_from, _value);\n\t\treturn true;\n\t}\n\n\t/**\n\t *\n\t * @dev Whitelisted address remove `_value` tokens from the system irreversibly on behalf of `_from`.\n\t *\n\t * @param _from the address of the sender\n\t * @param _value the amount of money to burn\n\t */\n\tfunction whitelistBurnFrom(address _from, uint256 _value) public inWhitelist(msg.sender) returns (bool success) {\n\t\trequire(balanceOf[_from] >= _value);                // Check if the targeted balance is enough\n\t\tbalanceOf[_from] = balanceOf[_from].sub(_value);    // Subtract from the targeted balance\n\t\ttotalSupply = totalSupply.sub(_value);              // Update totalSupply\n\t\temit Burn(_from, _value);\n\t\treturn true;\n\t}\n\n\t/**\n\t * @dev Whitelisted address sends `_value` normal ERC20 tokens to `_to` from `_from`\n\t * @param _from The address of the sender\n\t * @param _to The address of the recipient\n\t * @param _value The amount of normal ERC20 tokens to send\n\t * @return true on success\n\t */\n\tfunction whitelistTransferFrom(address _from, address _to, uint256 _value) public inWhitelist(msg.sender) returns (bool success) {\n\t\t_transfer(_from, _to, _value);\n\t\treturn true;\n\t}\n\n\t/***** ICO TOKEN OWNER ONLY METHODS *****/\n\t/**\n\t * @dev Allow users to buy ICO tokens for `newBuyPrice` eth and sell ICO tokens for `newSellPrice` eth\n\t * @param newIcoSellPrice Price users can sell to the contract\n\t * @param newIcoBuyPrice Price users can buy from the contract\n\t */\n\tfunction setIcoPrices(uint256 newIcoSellPrice, uint256 newIcoBuyPrice) public onlyOwner isIco {\n\t\ticoSellPrice = newIcoSellPrice;\n\t\ticoBuyPrice = newIcoBuyPrice;\n\t}\n\n\t/**\n\t * @dev Reserve some tokens for the Foundation\n\t */\n\tfunction reserveForFoundation() public onlyOwner isIco {\n\t\trequire (icoEnded == false);\n\t\trequire (foundationReserved == false);\n\t\trequire (icoTotalSupply < MAX_ICO_SUPPLY);\n\n\t\tfoundationReserved = true;\n\t\tuint256 tokenAmount = ICO_RESERVED_FOR_FOUNDATION;\n\n\t\tif (icoTotalSupply.add(tokenAmount) >= MAX_ICO_SUPPLY) {\n\t\t\ttokenAmount = MAX_ICO_SUPPLY.sub(icoTotalSupply);\n\t\t\ticoEnded = true;\n\t\t}\n\n\t\t_createIcoLot(msg.sender, tokenAmount);\n\t}\n\n\t/**\n\t * @dev Stake `_value` ICO tokens at `_weightedIndex ` index on behalf of `_from`\n\t * @param _from The address of the target\n\t * @param _value The amount of ICO tokens to stake\n\t * @param _weightedIndex The weighted index of the ICO tokens\n\t * @return true on success\n\t */\n\tfunction stakeIcoTokenFrom(address _from, uint256 _value, uint256 _weightedIndex) public inWhitelist(msg.sender) isIco returns (bool) {\n\t\t// Check if the targeted balance is enough\n\t\trequire (icoBalanceOf[_from] >= _value);\n\t\t// Make sure the weighted index is the same as account's current weighted index\n\t\trequire (_weightedIndex == ownerWeightedIndex[_from]);\n\t\t// Subtract from the targeted balance\n\t\ticoBalanceOf[_from] = icoBalanceOf[_from].sub(_value);\n\t\t// Add to the targeted staked balance\n\t\ticoStakedBalance[_from][_weightedIndex] = icoStakedBalance[_from][_weightedIndex].add(_value);\n\t\temit IcoStake(_from, _value, _weightedIndex);\n\t\treturn true;\n\t}\n\n\t/**\n\t * @dev Unstake `_value` ICO tokens at `_weightedIndex` on behalf of `_from`\n\t * @param _from The address of the target\n\t * @param _value The amount to unstake\n\t * @param _weightedIndex The weighted index of the ICO tokens\n\t * @return true on success\n\t */\n\tfunction unstakeIcoTokenFrom(address _from, uint256 _value, uint256 _weightedIndex) public inWhitelist(msg.sender) isIco returns (bool) {\n\t\t// Check if the targeted staked balance is enough\n\t\trequire (icoStakedBalance[_from][_weightedIndex] >= _value);\n\n\t\t// Subtract from the targeted staked balance\n\t\ticoStakedBalance[_from][_weightedIndex] = icoStakedBalance[_from][_weightedIndex].sub(_value);\n\n\t\t// Recalculate owner weighted index\n\t\tuint256 totalWeightedTokens = (ownerWeightedIndex[_from].mul(icoBalanceOf[_from])).add(_weightedIndex.mul(_value));\n\t\tuint256 totalTokens = icoBalanceOf[_from].add(_value);\n\t\townerWeightedIndex[_from] = totalWeightedTokens.div(totalTokens);\n\n\t\t// Add to the targeted balance\n\t\ticoBalanceOf[_from] = icoBalanceOf[_from].add(_value);\n\n\t\temit IcoUnstake(_from, _value, _weightedIndex);\n\t\treturn true;\n\t}\n\n\t/**\n\t * @dev Whitelisted address sends `_value` ICO tokens to `_to` from `_from`\n\t * @param _from The address of the sender\n\t * @param _to The address of the recipient\n\t * @param _value The amount to send\n\t * @return true on success\n\t */\n\tfunction whitelistTransferIcoTokenFrom(address _from, address _to, uint256 _value) public isIco returns (bool success) {\n\t\tbytes32 _createdLotId = _createWeightedIndexLot(_to, _value, ownerWeightedIndex[_from]);\n\t\tLot memory _lot = lots[_createdLotId];\n\n\t\t// Make sure the new lot is created successfully\n\t\trequire (_lot.lotOwner == _to);\n\t\t// Transfer the ICO tokens\n\t\trequire (_transferIcoToken(_from, _to, _value));\n\t\t// Update the weighted index of the recipient\n\t\trequire (_updateWeightedIndex(_to));\n\t\temit LotCreation(_lot.lotOwner, _lot.lotId, _lot.index, _lot.tokenAmount);\n\t\treturn true;\n\t}\n\n\t/***** PUBLIC METHODS *****/\n\t/***** NORMAL ERC20 PUBLIC METHODS *****/\n\t/**\n\t * @dev Buy tokens from contract by sending ether\n\t */\n\tfunction buy() public payable {\n\t\trequire (buyPrice > 0);\n\t\tuint256 amount = msg.value.div(buyPrice);\n\t\t_transfer(this, msg.sender, amount);\n\t}\n\n\t/**\n\t * @dev Sell `amount` tokens to contract\n\t * @param amount The amount of tokens to be sold\n\t */\n\tfunction sell(uint256 amount) public {\n\t\trequire (sellPrice > 0);\n\t\taddress myAddress = this;\n\t\trequire (myAddress.balance >= amount.mul(sellPrice));\n\t\t_transfer(msg.sender, this, amount);\n\t\tmsg.sender.transfer(amount.mul(sellPrice));\n\t}\n\n\t/***** ICO TOKEN PUBLIC METHODS *****/\n\t/**\n\t * @dev Buy ICO tokens from contract by sending ether\n\t */\n\tfunction buyIcoToken() public payable isIco {\n\t\trequire (icoEnded == false);\n\t\trequire (icoTotalSupply < MAX_ICO_SUPPLY);\n\t\trequire (icoBuyPrice > 0);\n\t\trequire (msg.value > 0);\n\n\t\t// Calculate the amount of tokens\n\t\tuint256 tokenAmount = msg.value.div(icoBuyPrice);\n\n\t\tuint256 remainderEth = 0;\n\n\t\t// Make sure icoTotalSupply is not overflowing\n\t\tif (icoTotalSupply.add(tokenAmount) >= MAX_ICO_SUPPLY) {\n\t\t\ttokenAmount = MAX_ICO_SUPPLY.sub(icoTotalSupply);\n\t\t\ticoEnded = true;\n\t\t\tremainderEth = msg.value.sub(tokenAmount.mul(icoBuyPrice));\n\t\t}\n\n\t\t_createIcoLot(msg.sender, tokenAmount);\n\t\tif (remainderEth > 0) {\n\t\t\tmsg.sender.transfer(remainderEth);\n\t\t}\n\t}\n\n\t/**\n\t * @dev Send `_value` ICO tokens to `_to` from your account\n\t * @param _to The address of the recipient\n\t * @param _value The amount to send\n\t * @return true on success\n\t */\n\tfunction transferIcoToken(address _to, uint256 _value) public isIco returns (bool success) {\n\t\tbytes32 _createdLotId = _createWeightedIndexLot(_to, _value, ownerWeightedIndex[msg.sender]);\n\t\tLot memory _lot = lots[_createdLotId];\n\n\t\t// Make sure the new lot is created successfully\n\t\trequire (_lot.lotOwner == _to);\n\t\t// Transfer the ICO tokens\n\t\trequire (_transferIcoToken(msg.sender, _to, _value));\n\t\t// Update the weighted index of the recipient\n\t\trequire (_updateWeightedIndex(_to));\n\t\temit LotCreation(_lot.lotOwner, _lot.lotId, _lot.index, _lot.tokenAmount);\n\t\treturn true;\n\t}\n\n\t/**\n\t * @dev Send `_value` ICO tokens to `_to` from `_from`\n\t * @param _from The address of the sender\n\t * @param _to The address of the recipient\n\t * @param _value The amount to send\n\t * @return true on success\n\t */\n\tfunction transferIcoTokenFrom(address _from, address _to, uint256 _value) public isIco returns (bool success) {\n\t\trequire (_value <= icoAllowance[_from][msg.sender]);\n\t\ticoAllowance[_from][msg.sender] = icoAllowance[_from][msg.sender].sub(_value);\n\n\t\tbytes32 _createdLotId = _createWeightedIndexLot(_to, _value, ownerWeightedIndex[_from]);\n\t\tLot memory _lot = lots[_createdLotId];\n\n\t\t// Make sure the new lot is created successfully\n\t\trequire (_lot.lotOwner == _to);\n\t\t// Transfer the ICO tokens\n\t\trequire (_transferIcoToken(_from, _to, _value));\n\t\t// Update the weighted index of the recipient\n\t\trequire (_updateWeightedIndex(_to));\n\t\temit LotCreation(_lot.lotOwner, _lot.lotId, _lot.index, _lot.tokenAmount);\n\t\treturn true;\n\t}\n\n\t/**\n\t * @dev Allows `_spender` to spend no more than `_value` ICO tokens in your behalf\n\t * @param _spender The address authorized to spend\n\t * @param _value The max amount they can spend\n\t * @return true on success\n\t */\n\tfunction approveIcoToken(address _spender, uint256 _value) public isIco returns (bool success) {\n\t\ticoAllowance[msg.sender][_spender] = _value;\n\t\temit IcoApproval(msg.sender, _spender, _value);\n\t\treturn true;\n\t}\n\n\t/**\n\t * @dev Allows `_spender` to spend no more than `_value` ICO tokens in your behalf, and then ping the contract about it\n\t * @param _spender The address authorized to spend\n\t * @param _value The max amount they can spend\n\t * @param _extraData some extra information to send to the approved contract\n\t * @return true on success\n\t */\n\tfunction approveIcoTokenAndCall(address _spender, uint256 _value, bytes _extraData) public isIco returns (bool success) {\n\t\ttokenRecipient spender = tokenRecipient(_spender);\n\t\tif (approveIcoToken(_spender, _value)) {\n\t\t\tspender.receiveApproval(msg.sender, _value, this, _extraData);\n\t\t\treturn true;\n\t\t}\n\t}\n\n\t/**\n\t * @dev Remove `_value` ICO tokens from the system irreversibly\n\t * @param _value The amount to burn\n\t * @return true on success\n\t */\n\tfunction burnIcoToken(uint256 _value) public isIco returns (bool success) {\n\t\trequire (icoBalanceOf[msg.sender] >= _value);\n\t\ticoBalanceOf[msg.sender] = icoBalanceOf[msg.sender].sub(_value);\n\t\ticoTotalSupply = icoTotalSupply.sub(_value);\n\t\temit IcoBurn(msg.sender, _value);\n\t\treturn true;\n\t}\n\n\t/**\n\t * @dev Remove `_value` ICO tokens from the system irreversibly on behsalf of `_from`\n\t * @param _from The address of sender\n\t * @param _value The amount to burn\n\t * @return true on success\n\t */\n\tfunction burnIcoTokenFrom(address _from, uint256 _value) public isIco returns (bool success) {\n\t\trequire (icoBalanceOf[_from] >= _value);\n\t\trequire (_value <= icoAllowance[_from][msg.sender]);\n\t\ticoBalanceOf[_from] = icoBalanceOf[_from].sub(_value);\n\t\ticoAllowance[_from][msg.sender] = icoAllowance[_from][msg.sender].sub(_value);\n\t\ticoTotalSupply = icoTotalSupply.sub(_value);\n\t\temit IcoBurn(_from, _value);\n\t\treturn true;\n\t}\n\n\t/**\n\t * @dev Return all lot IDs owned by an address\n\t * @param _lotOwner The address of the lot owner\n\t * @return array of lot IDs\n\t */\n\tfunction lotsByAddress(address _lotOwner) public isIco view returns (bytes32[]) {\n\t\treturn ownedLots[_lotOwner];\n\t}\n\n\t/**\n\t * @dev Return the total lots owned by an address\n\t * @param _lotOwner The address of the lot owner\n\t * @return total lots owner by the address\n\t */\n\tfunction totalLotsByAddress(address _lotOwner) public isIco view returns (uint256) {\n\t\treturn ownedLots[_lotOwner].length;\n\t}\n\n\t/**\n\t * @dev Return the lot information at a given index of the lots list of the requested owner\n\t * @param _lotOwner The address owning the lots list to be accessed\n\t * @param _index uint256 representing the index to be accessed of the requested lots list\n\t * @return id of the lot\n\t * @return index of the lot in (10 ** 6)\n\t * @return ICO token amount in the lot\n\t */\n\tfunction lotOfOwnerByIndex(address _lotOwner, uint256 _index) public isIco view returns (bytes32, uint256, uint256) {\n\t\trequire (_index < ownedLots[_lotOwner].length);\n\t\tLot memory _lot = lots[ownedLots[_lotOwner][_index]];\n\t\treturn (_lot.lotId, _lot.index, _lot.tokenAmount);\n\t}\n\n\t/**\n\t * @dev Return the lot information at a given ID\n\t * @param _lotId The lot ID in question\n\t * @return id of the lot\n\t * @return index of the lot in (10 ** 6)\n\t * @return ICO token amount in the lot\n\t */\n\tfunction lotById(bytes32 _lotId) public isIco view returns (bytes32, uint256, uint256) {\n\t\tLot memory _lot = lots[_lotId];\n\t\treturn (_lot.lotId, _lot.index, _lot.tokenAmount);\n\t}\n\n\t/**\n\t * @dev Return the average weighted index of all lots owned by an address\n\t * @param _lotOwner The address of the lot owner\n\t * @return the weighted index of the address (in 10 ** 6)\n\t */\n\tfunction weightedIndexByAddress(address _lotOwner) public isIco view returns (uint256) {\n\t\treturn ownerWeightedIndex[_lotOwner];\n\t}\n\n\t/***** NORMAL ERC20 & ICO TOKEN METHODS *****/\n\t/**\n\t * @dev Send `_value` normal ERC20 and `_icoValue` ICO tokens to `_to` from your account\n\t * @param _to The address of the recipient\n\t * @param _value The amount of normal ERC20 tokens to send\n\t * @param _icoValue The amount of ICO tokens to send\n\t * @return true on success\n\t */\n\tfunction transferTokens(address _to, uint256 _value, uint256 _icoValue) public isIco returns (bool success) {\n\t\trequire (super.transfer(_to, _value));\n\t\trequire (transferIcoToken(_to, _icoValue));\n\t\treturn true;\n\t}\n\n\t/**\n\t * @dev Send `_value` normal ERC20 and `_icoValue` ICO tokens to `_to` from `_from`\n\t * @param _from The address of the sender\n\t * @param _to The address of the recipient\n\t * @param _value The amount of normal ERC20 tokens to send\n\t * @param _icoValue The amount of ICO tokens to send\n\t * @return true on success\n\t */\n\tfunction transferTokensFrom(address _from, address _to, uint256 _value, uint256 _icoValue) public isIco returns (bool success) {\n\t\trequire (super.transferFrom(_from, _to, _value));\n\t\trequire (transferIcoTokenFrom(_from, _to, _icoValue));\n\t\treturn true;\n\t}\n\n\t/**\n\t * @dev Allows `_spender` to spend no more than `_value` normal ERC20 and `_icoValue` ICO tokens in your behalf\n\t * @param _spender The address authorized to spend\n\t * @param _value The max amount of normal ERC20 they can spend\n\t * @param _icoValue The max amount of normal ERC20 they can spend\n\t * @return true on success\n\t */\n\tfunction approveTokens(address _spender, uint256 _value, uint256 _icoValue) public isIco returns (bool success) {\n\t\trequire (super.approve(_spender, _value));\n\t\trequire (approveIcoToken(_spender, _icoValue));\n\t\treturn true;\n\t}\n\n\t/**\n\t * @dev Allows `_spender` to spend no more than `_value` normal ERC20 and `_icoValue` ICO tokens in your behalf, and then ping the contract about it\n\t * @param _spender The address authorized to spend\n\t * @param _value The max amount of normal ERC20 they can spend\n\t * @param _icoValue The max amount of ICO Tokens they can spend\n\t * @param _extraData some extra information to send to the approved contract\n\t * @return true on success\n\t */\n\tfunction approveTokensAndCall(address _spender, uint256 _value, uint256 _icoValue, bytes _extraData) public isIco returns (bool success) {\n\t\trequire (super.approveAndCall(_spender, _value, _extraData));\n\t\trequire (approveIcoTokenAndCall(_spender, _icoValue, _extraData));\n\t\treturn true;\n\t}\n\n\t/**\n\t * @dev Remove `_value` normal ERC20 and `_icoValue` ICO tokens from the system irreversibly\n\t * @param _value The amount of normal ERC20 to burn\n\t * @param _icoValue The amount of ICO tokens to burn\n\t * @return true on success\n\t */\n\tfunction burnTokens(uint256 _value, uint256 _icoValue) public isIco returns (bool success) {\n\t\trequire (super.burn(_value));\n\t\trequire (burnIcoToken(_icoValue));\n\t\treturn true;\n\t}\n\n\t/**\n\t * @dev Remove `_value` normal ERC20 and `_icoValue` ICO tokens from the system irreversibly on behsalf of `_from`\n\t * @param _from The address of sender\n\t * @param _value The amount of normal ERC20 to burn\n\t * @param _icoValue The amount of ICO tokens to burn\n\t * @return true on success\n\t */\n\tfunction burnTokensFrom(address _from, uint256 _value, uint256 _icoValue) public isIco returns (bool success) {\n\t\trequire (super.burnFrom(_from, _value));\n\t\trequire (burnIcoTokenFrom(_from, _icoValue));\n\t\treturn true;\n\t}\n\n\t/***** INTERNAL METHODS *****/\n\t/***** NORMAL ERC20 INTERNAL METHODS *****/\n\t/**\n\t * @dev Send `_value` tokens from `_from` to `_to`\n\t * @param _from The address of sender\n\t * @param _to The address of the recipient\n\t * @param _value The amount to send\n\t */\n\tfunction _transfer(address _from, address _to, uint256 _value) internal {\n\t\trequire (_to != address(0));\t\t\t\t\t\t\t// Prevent transfer to 0x0 address. Use burn() instead\n\t\trequire (balanceOf[_from] >= _value);\t\t\t\t\t// Check if the sender has enough\n\t\trequire (balanceOf[_to].add(_value) >= balanceOf[_to]); // Check for overflows\n\t\trequire (!frozenAccount[_from]);\t\t\t\t\t\t// Check if sender is frozen\n\t\trequire (!frozenAccount[_to]);\t\t\t\t\t\t\t// Check if recipient is frozen\n\t\tuint256 previousBalances = balanceOf[_from].add(balanceOf[_to]);\n\t\tbalanceOf[_from] = balanceOf[_from].sub(_value);        // Subtract from the sender\n\t\tbalanceOf[_to] = balanceOf[_to].add(_value);            // Add the same to the recipient\n\t\temit Transfer(_from, _to, _value);\n\t\tassert(balanceOf[_from].add(balanceOf[_to]) == previousBalances);\n\t}\n\n\t/***** ICO TOKEN INTERNAL METHODS *****/\n\t/**\n\t * @dev Create a lot with `tokenAmount` of tokens for an `account` during ICO\n\t * @param _account Address of the lot owner\n\t * @param _tokenAmount The amount of tokens to be stored in the lot\n\t */\n\tfunction _createIcoLot(address _account, uint256 _tokenAmount) internal {\n\t\trequire (_account != address(0));\n\t\trequire (_tokenAmount > 0);\n\n\t\ttotalLots++;\n\t\tlotIndex++;\n\n\t\t// Generate lotId\n\t\tbytes32 lotId = keccak256(abi.encodePacked(this, _account, totalLots));\n\n\t\t// Make sure no one owns this lot yet\n\t\trequire (lots[lotId].lotOwner == address(0));\n\n\t\tLot storage lot = lots[lotId];\n\t\tlot.lotId = lotId;\n\t\tlot.index = lotIndex.mul(WEIGHTED_INDEX_DIVISOR);\n\t\tlot.lotOwner = _account;\n\t\tlot.tokenAmount = _tokenAmount;\n\t\tuint256 lotIdIndex = ownedLots[_account].length;\n\t\townedLots[_account].push(lotId);\n\t\townedLotsIndex[_account][lotId] = lotIdIndex;\n\t\trequire (_mintIcoToken(_account, _tokenAmount));\n\t\trequire (_updateWeightedIndex(_account));\n\t\temit LotCreation(lot.lotOwner, lot.lotId, lot.index, lot.tokenAmount);\n\t}\n\n\t/**\n\t * @dev Create `mintedAmount` ICO tokens and send it to `target`\n\t * @param target Address to receive the ICO tokens\n\t * @param mintedAmount The amount of ICO tokens it will receive\n\t * @return true on success\n\t */\n\tfunction _mintIcoToken(address target, uint256 mintedAmount) internal returns (bool) {\n\t\ticoBalanceOf[target] = icoBalanceOf[target].add(mintedAmount);\n\t\ticoTotalSupply = icoTotalSupply.add(mintedAmount);\n\t\temit IcoTransfer(0, this, mintedAmount);\n\t\temit IcoTransfer(this, target, mintedAmount);\n\t\treturn true;\n\t}\n\n\t/**\n\t * @dev Calculate and update the weighted index of owner's total ICO tokens\n\t * @param account The account address to be updated\n\t */\n\tfunction _updateWeightedIndex(address account) internal returns (bool) {\n\t\tif (ownedLots[account].length > 0) {\n\t\t\tuint256 totalWeightedTokens;\n\t\t\tuint256 totalTokens;\n\t\t\tfor (uint256 i=0; i < ownedLots[account].length; i++) {\n\t\t\t\tLot memory _lot = lots[ownedLots[account][i]];\n\t\t\t\ttotalWeightedTokens = totalWeightedTokens.add(_lot.index.mul(_lot.tokenAmount));\n\t\t\t\ttotalTokens = totalTokens.add(_lot.tokenAmount);\n\t\t\t}\n\t\t\townerWeightedIndex[account] = totalWeightedTokens.div(totalTokens);\n\t\t}\n\t\treturn true;\n\t}\n\n\t/**\n\t * @dev Create a lot with `tokenAmount` of tokens at `weightedIndex` for an `account`\n\t * @param _account Address of lot owner\n\t * @param _tokenAmount The amount of tokens\n\t * @param _weightedIndex The index of the lot (in 10^6)\n\t * @return bytes32 of new created lot ID\n\t */\n\tfunction _createWeightedIndexLot(address _account, uint256 _tokenAmount, uint256 _weightedIndex) internal returns (bytes32) {\n\t\trequire (_account != address(0));\n\t\trequire (_tokenAmount > 0);\n\n\t\ttotalLots++;\n\n\t\t// Generate lotId\n\t\tbytes32 lotId = keccak256(abi.encodePacked(this, _account, totalLots));\n\n\t\t// Make sure no one owns this lot yet\n\t\trequire (lots[lotId].lotOwner == address(0));\n\n\t\tLot storage lot = lots[lotId];\n\t\tlot.lotId = lotId;\n\t\tlot.index = _weightedIndex;\n\t\tlot.lotOwner = _account;\n\t\tlot.tokenAmount = _tokenAmount;\n\t\tuint256 lotIdIndex = ownedLots[_account].length;\n\t\townedLots[_account].push(lotId);\n\t\townedLotsIndex[_account][lotId] = lotIdIndex;\n\t\treturn lotId;\n\t}\n\n\t/**\n\t * @dev Send `_value` ICO tokens from `_from` to `_to`\n\t * @param _from The address of sender\n\t * @param _to The address of the recipient\n\t * @param _value The amount to send\n\t */\n\tfunction _transferIcoToken(address _from, address _to, uint256 _value) internal returns (bool) {\n\t\trequire (_to != address(0));\t\t\t\t\t\t\t\t\t// Prevent transfer to 0x0 address. Use burn() instead\n\t\trequire (icoBalanceOf[_from] >= _value);\t\t\t\t\t\t// Check if the sender has enough\n\t\trequire (icoBalanceOf[_to].add(_value) >= icoBalanceOf[_to]);\t// Check for overflows\n\t\trequire (!frozenAccount[_from]);\t\t\t\t\t\t\t\t// Check if sender is frozen\n\t\trequire (!frozenAccount[_to]);\t\t\t\t\t\t\t\t\t// Check if recipient is frozen\n\t\tuint256 previousBalances = icoBalanceOf[_from].add(icoBalanceOf[_to]);\n\t\ticoBalanceOf[_from] = icoBalanceOf[_from].sub(_value);\t\t\t// Subtract from the sender\n\t\ticoBalanceOf[_to] = icoBalanceOf[_to].add(_value);\t\t\t\t// Add the same to the recipient\n\t\temit IcoTransfer(_from, _to, _value);\n\t\tassert(icoBalanceOf[_from].add(icoBalanceOf[_to]) == previousBalances);\n\t\treturn true;\n\t}\n}\n",
	"sourcePath": "/home/jmulyono/ao-contracts/contracts/AOToken.sol",
	"compiler": {
		"name": "solc",
		"version": "0.4.24+commit.e67f0147.Emscripten.clang"
	},
	"schemaVersion": "1.0.1",
	"updatedAt": "2018-08-01T15:02:07.585Z"
}