{
	"contractName": "AOToken",
	"abi": [
		{
			"constant": true,
			"inputs": [],
			"name": "name",
			"outputs": [
				{
					"name": "",
					"type": "string"
				}
			],
			"payable": false,
			"stateMutability": "view",
			"type": "function"
		},
		{
			"constant": false,
			"inputs": [
				{
					"name": "_spender",
					"type": "address"
				},
				{
					"name": "_value",
					"type": "uint256"
				}
			],
			"name": "approve",
			"outputs": [
				{
					"name": "success",
					"type": "bool"
				}
			],
			"payable": false,
			"stateMutability": "nonpayable",
			"type": "function"
		},
		{
			"constant": true,
			"inputs": [],
			"name": "powerOfTen",
			"outputs": [
				{
					"name": "",
					"type": "uint256"
				}
			],
			"payable": false,
			"stateMutability": "view",
			"type": "function"
		},
		{
			"constant": true,
			"inputs": [],
			"name": "aoDevTeam1",
			"outputs": [
				{
					"name": "",
					"type": "address"
				}
			],
			"payable": false,
			"stateMutability": "view",
			"type": "function"
		},
		{
			"constant": true,
			"inputs": [
				{
					"name": "",
					"type": "address"
				},
				{
					"name": "",
					"type": "uint256"
				}
			],
			"name": "primordialStakedBalance",
			"outputs": [
				{
					"name": "",
					"type": "uint256"
				}
			],
			"payable": false,
			"stateMutability": "view",
			"type": "function"
		},
		{
			"constant": true,
			"inputs": [],
			"name": "totalSupply",
			"outputs": [
				{
					"name": "",
					"type": "uint256"
				}
			],
			"payable": false,
			"stateMutability": "view",
			"type": "function"
		},
		{
			"constant": false,
			"inputs": [
				{
					"name": "_from",
					"type": "address"
				},
				{
					"name": "_to",
					"type": "address"
				},
				{
					"name": "_value",
					"type": "uint256"
				}
			],
			"name": "transferFrom",
			"outputs": [
				{
					"name": "success",
					"type": "bool"
				}
			],
			"payable": false,
			"stateMutability": "nonpayable",
			"type": "function"
		},
		{
			"constant": true,
			"inputs": [],
			"name": "primordialSellPrice",
			"outputs": [
				{
					"name": "",
					"type": "uint256"
				}
			],
			"payable": false,
			"stateMutability": "view",
			"type": "function"
		},
		{
			"constant": true,
			"inputs": [],
			"name": "totalConvertLots",
			"outputs": [
				{
					"name": "",
					"type": "uint256"
				}
			],
			"payable": false,
			"stateMutability": "view",
			"type": "function"
		},
		{
			"constant": true,
			"inputs": [],
			"name": "decimals",
			"outputs": [
				{
					"name": "",
					"type": "uint8"
				}
			],
			"payable": false,
			"stateMutability": "view",
			"type": "function"
		},
		{
			"constant": true,
			"inputs": [],
			"name": "totalLots",
			"outputs": [
				{
					"name": "",
					"type": "uint256"
				}
			],
			"payable": false,
			"stateMutability": "view",
			"type": "function"
		},
		{
			"constant": true,
			"inputs": [],
			"name": "startingNetworkTokenBonusMultiplier",
			"outputs": [
				{
					"name": "",
					"type": "uint256"
				}
			],
			"payable": false,
			"stateMutability": "view",
			"type": "function"
		},
		{
			"constant": true,
			"inputs": [],
			"name": "totalBurnLots",
			"outputs": [
				{
					"name": "",
					"type": "uint256"
				}
			],
			"payable": false,
			"stateMutability": "view",
			"type": "function"
		},
		{
			"constant": false,
			"inputs": [
				{
					"name": "_value",
					"type": "uint256"
				}
			],
			"name": "burn",
			"outputs": [
				{
					"name": "success",
					"type": "bool"
				}
			],
			"payable": false,
			"stateMutability": "nonpayable",
			"type": "function"
		},
		{
			"constant": true,
			"inputs": [],
			"name": "sellPrice",
			"outputs": [
				{
					"name": "",
					"type": "uint256"
				}
			],
			"payable": false,
			"stateMutability": "view",
			"type": "function"
		},
		{
			"constant": true,
			"inputs": [
				{
					"name": "",
					"type": "address"
				}
			],
			"name": "escrowedBalance",
			"outputs": [
				{
					"name": "",
					"type": "uint256"
				}
			],
			"payable": false,
			"stateMutability": "view",
			"type": "function"
		},
		{
			"constant": false,
			"inputs": [
				{
					"name": "_account",
					"type": "address"
				},
				{
					"name": "_whitelist",
					"type": "bool"
				}
			],
			"name": "setWhitelist",
			"outputs": [],
			"payable": false,
			"stateMutability": "nonpayable",
			"type": "function"
		},
		{
			"constant": true,
			"inputs": [
				{
					"name": "",
					"type": "address"
				}
			],
			"name": "primordialBalanceOf",
			"outputs": [
				{
					"name": "",
					"type": "uint256"
				}
			],
			"payable": false,
			"stateMutability": "view",
			"type": "function"
		},
		{
			"constant": true,
			"inputs": [
				{
					"name": "",
					"type": "address"
				}
			],
			"name": "stakedBalance",
			"outputs": [
				{
					"name": "",
					"type": "uint256"
				}
			],
			"payable": false,
			"stateMutability": "view",
			"type": "function"
		},
		{
			"constant": true,
			"inputs": [],
			"name": "TOTAL_PRIMORDIAL_FOR_SALE",
			"outputs": [
				{
					"name": "",
					"type": "uint256"
				}
			],
			"payable": false,
			"stateMutability": "view",
			"type": "function"
		},
		{
			"constant": true,
			"inputs": [
				{
					"name": "",
					"type": "address"
				}
			],
			"name": "balanceOf",
			"outputs": [
				{
					"name": "",
					"type": "uint256"
				}
			],
			"payable": false,
			"stateMutability": "view",
			"type": "function"
		},
		{
			"constant": true,
			"inputs": [],
			"name": "primordialBuyPrice",
			"outputs": [
				{
					"name": "",
					"type": "uint256"
				}
			],
			"payable": false,
			"stateMutability": "view",
			"type": "function"
		},
		{
			"constant": false,
			"inputs": [
				{
					"name": "_from",
					"type": "address"
				},
				{
					"name": "_value",
					"type": "uint256"
				}
			],
			"name": "burnFrom",
			"outputs": [
				{
					"name": "success",
					"type": "bool"
				}
			],
			"payable": false,
			"stateMutability": "nonpayable",
			"type": "function"
		},
		{
			"constant": true,
			"inputs": [],
			"name": "primordialTotalSupply",
			"outputs": [
				{
					"name": "",
					"type": "uint256"
				}
			],
			"payable": false,
			"stateMutability": "view",
			"type": "function"
		},
		{
			"constant": true,
			"inputs": [],
			"name": "buyPrice",
			"outputs": [
				{
					"name": "",
					"type": "uint256"
				}
			],
			"payable": false,
			"stateMutability": "view",
			"type": "function"
		},
		{
			"constant": true,
			"inputs": [],
			"name": "startingMultiplier",
			"outputs": [
				{
					"name": "",
					"type": "uint256"
				}
			],
			"payable": false,
			"stateMutability": "view",
			"type": "function"
		},
		{
			"constant": true,
			"inputs": [],
			"name": "symbol",
			"outputs": [
				{
					"name": "",
					"type": "string"
				}
			],
			"payable": false,
			"stateMutability": "view",
			"type": "function"
		},
		{
			"constant": true,
			"inputs": [
				{
					"name": "",
					"type": "address"
				}
			],
			"name": "whitelist",
			"outputs": [
				{
					"name": "",
					"type": "bool"
				}
			],
			"payable": false,
			"stateMutability": "view",
			"type": "function"
		},
		{
			"constant": true,
			"inputs": [],
			"name": "networkExchangeEnded",
			"outputs": [
				{
					"name": "",
					"type": "bool"
				}
			],
			"payable": false,
			"stateMutability": "view",
			"type": "function"
		},
		{
			"constant": false,
			"inputs": [
				{
					"name": "_to",
					"type": "address"
				},
				{
					"name": "_value",
					"type": "uint256"
				}
			],
			"name": "transfer",
			"outputs": [
				{
					"name": "success",
					"type": "bool"
				}
			],
			"payable": false,
			"stateMutability": "nonpayable",
			"type": "function"
		},
		{
			"constant": true,
			"inputs": [],
			"name": "aoDevTeam2",
			"outputs": [
				{
					"name": "",
					"type": "address"
				}
			],
			"payable": false,
			"stateMutability": "view",
			"type": "function"
		},
		{
			"constant": true,
			"inputs": [],
			"name": "primordialTotalBought",
			"outputs": [
				{
					"name": "",
					"type": "uint256"
				}
			],
			"payable": false,
			"stateMutability": "view",
			"type": "function"
		},
		{
			"constant": false,
			"inputs": [
				{
					"name": "_aoDevTeam1",
					"type": "address"
				},
				{
					"name": "_aoDevTeam2",
					"type": "address"
				}
			],
			"name": "setAODevTeamAddresses",
			"outputs": [],
			"payable": false,
			"stateMutability": "nonpayable",
			"type": "function"
		},
		{
			"constant": true,
			"inputs": [
				{
					"name": "",
					"type": "address"
				}
			],
			"name": "frozenAccount",
			"outputs": [
				{
					"name": "",
					"type": "bool"
				}
			],
			"payable": false,
			"stateMutability": "view",
			"type": "function"
		},
		{
			"constant": true,
			"inputs": [],
			"name": "networkExchangeContract",
			"outputs": [
				{
					"name": "",
					"type": "bool"
				}
			],
			"payable": false,
			"stateMutability": "view",
			"type": "function"
		},
		{
			"constant": true,
			"inputs": [],
			"name": "endingNetworkTokenBonusMultiplier",
			"outputs": [
				{
					"name": "",
					"type": "uint256"
				}
			],
			"payable": false,
			"stateMutability": "view",
			"type": "function"
		},
		{
			"constant": true,
			"inputs": [],
			"name": "endingMultiplier",
			"outputs": [
				{
					"name": "",
					"type": "uint256"
				}
			],
			"payable": false,
			"stateMutability": "view",
			"type": "function"
		},
		{
			"constant": true,
			"inputs": [],
			"name": "developer",
			"outputs": [
				{
					"name": "",
					"type": "address"
				}
			],
			"payable": false,
			"stateMutability": "view",
			"type": "function"
		},
		{
			"constant": false,
			"inputs": [
				{
					"name": "_spender",
					"type": "address"
				},
				{
					"name": "_value",
					"type": "uint256"
				},
				{
					"name": "_extraData",
					"type": "bytes"
				}
			],
			"name": "approveAndCall",
			"outputs": [
				{
					"name": "success",
					"type": "bool"
				}
			],
			"payable": false,
			"stateMutability": "nonpayable",
			"type": "function"
		},
		{
			"constant": true,
			"inputs": [],
			"name": "PERCENTAGE_DIVISOR",
			"outputs": [
				{
					"name": "",
					"type": "uint256"
				}
			],
			"payable": false,
			"stateMutability": "view",
			"type": "function"
		},
		{
			"constant": true,
			"inputs": [
				{
					"name": "",
					"type": "address"
				},
				{
					"name": "",
					"type": "address"
				}
			],
			"name": "primordialAllowance",
			"outputs": [
				{
					"name": "",
					"type": "uint256"
				}
			],
			"payable": false,
			"stateMutability": "view",
			"type": "function"
		},
		{
			"constant": true,
			"inputs": [],
			"name": "MULTIPLIER_DIVISOR",
			"outputs": [
				{
					"name": "",
					"type": "uint256"
				}
			],
			"payable": false,
			"stateMutability": "view",
			"type": "function"
		},
		{
			"constant": true,
			"inputs": [
				{
					"name": "",
					"type": "address"
				},
				{
					"name": "",
					"type": "address"
				}
			],
			"name": "allowance",
			"outputs": [
				{
					"name": "",
					"type": "uint256"
				}
			],
			"payable": false,
			"stateMutability": "view",
			"type": "function"
		},
		{
			"constant": false,
			"inputs": [
				{
					"name": "newDeveloper",
					"type": "address"
				}
			],
			"name": "transferOwnership",
			"outputs": [],
			"payable": false,
			"stateMutability": "nonpayable",
			"type": "function"
		},
		{
			"inputs": [
				{
					"name": "initialSupply",
					"type": "uint256"
				},
				{
					"name": "tokenName",
					"type": "string"
				},
				{
					"name": "tokenSymbol",
					"type": "string"
				}
			],
			"payable": false,
			"stateMutability": "nonpayable",
			"type": "constructor"
		},
		{
			"anonymous": false,
			"inputs": [
				{
					"indexed": false,
					"name": "target",
					"type": "address"
				},
				{
					"indexed": false,
					"name": "frozen",
					"type": "bool"
				}
			],
			"name": "FrozenFunds",
			"type": "event"
		},
		{
			"anonymous": false,
			"inputs": [
				{
					"indexed": true,
					"name": "from",
					"type": "address"
				},
				{
					"indexed": false,
					"name": "value",
					"type": "uint256"
				}
			],
			"name": "Stake",
			"type": "event"
		},
		{
			"anonymous": false,
			"inputs": [
				{
					"indexed": true,
					"name": "from",
					"type": "address"
				},
				{
					"indexed": false,
					"name": "value",
					"type": "uint256"
				}
			],
			"name": "Unstake",
			"type": "event"
		},
		{
			"anonymous": false,
			"inputs": [
				{
					"indexed": true,
					"name": "from",
					"type": "address"
				},
				{
					"indexed": true,
					"name": "to",
					"type": "address"
				},
				{
					"indexed": false,
					"name": "value",
					"type": "uint256"
				}
			],
			"name": "Escrow",
			"type": "event"
		},
		{
			"anonymous": false,
			"inputs": [
				{
					"indexed": true,
					"name": "from",
					"type": "address"
				},
				{
					"indexed": false,
					"name": "value",
					"type": "uint256"
				}
			],
			"name": "Unescrow",
			"type": "event"
		},
		{
			"anonymous": false,
			"inputs": [
				{
					"indexed": true,
					"name": "from",
					"type": "address"
				},
				{
					"indexed": true,
					"name": "to",
					"type": "address"
				},
				{
					"indexed": false,
					"name": "value",
					"type": "uint256"
				}
			],
			"name": "PrimordialTransfer",
			"type": "event"
		},
		{
			"anonymous": false,
			"inputs": [
				{
					"indexed": true,
					"name": "_owner",
					"type": "address"
				},
				{
					"indexed": true,
					"name": "_spender",
					"type": "address"
				},
				{
					"indexed": false,
					"name": "_value",
					"type": "uint256"
				}
			],
			"name": "PrimordialApproval",
			"type": "event"
		},
		{
			"anonymous": false,
			"inputs": [
				{
					"indexed": true,
					"name": "from",
					"type": "address"
				},
				{
					"indexed": false,
					"name": "value",
					"type": "uint256"
				}
			],
			"name": "PrimordialBurn",
			"type": "event"
		},
		{
			"anonymous": false,
			"inputs": [
				{
					"indexed": true,
					"name": "from",
					"type": "address"
				},
				{
					"indexed": false,
					"name": "value",
					"type": "uint256"
				},
				{
					"indexed": false,
					"name": "weightedMultiplier",
					"type": "uint256"
				}
			],
			"name": "PrimordialStake",
			"type": "event"
		},
		{
			"anonymous": false,
			"inputs": [
				{
					"indexed": true,
					"name": "from",
					"type": "address"
				},
				{
					"indexed": false,
					"name": "value",
					"type": "uint256"
				},
				{
					"indexed": false,
					"name": "weightedMultiplier",
					"type": "uint256"
				}
			],
			"name": "PrimordialUnstake",
			"type": "event"
		},
		{
			"anonymous": false,
			"inputs": [
				{
					"indexed": true,
					"name": "lotOwner",
					"type": "address"
				},
				{
					"indexed": true,
					"name": "lotId",
					"type": "bytes32"
				},
				{
					"indexed": false,
					"name": "multiplier",
					"type": "uint256"
				},
				{
					"indexed": false,
					"name": "primordialTokenAmount",
					"type": "uint256"
				},
				{
					"indexed": false,
					"name": "networkTokenBonusAmount",
					"type": "uint256"
				}
			],
			"name": "LotCreation",
			"type": "event"
		},
		{
			"anonymous": false,
			"inputs": [
				{
					"indexed": true,
					"name": "lotOwner",
					"type": "address"
				},
				{
					"indexed": true,
					"name": "burnLotId",
					"type": "bytes32"
				},
				{
					"indexed": false,
					"name": "burnTokenAmount",
					"type": "uint256"
				},
				{
					"indexed": false,
					"name": "multiplierAfterBurn",
					"type": "uint256"
				}
			],
			"name": "BurnLotCreation",
			"type": "event"
		},
		{
			"anonymous": false,
			"inputs": [
				{
					"indexed": true,
					"name": "lotOwner",
					"type": "address"
				},
				{
					"indexed": true,
					"name": "convertLotId",
					"type": "bytes32"
				},
				{
					"indexed": false,
					"name": "convertTokenAmount",
					"type": "uint256"
				},
				{
					"indexed": false,
					"name": "multiplierAfterBurn",
					"type": "uint256"
				}
			],
			"name": "ConvertLotCreation",
			"type": "event"
		},
		{
			"anonymous": false,
			"inputs": [
				{
					"indexed": true,
					"name": "from",
					"type": "address"
				},
				{
					"indexed": true,
					"name": "to",
					"type": "address"
				},
				{
					"indexed": false,
					"name": "value",
					"type": "uint256"
				}
			],
			"name": "Transfer",
			"type": "event"
		},
		{
			"anonymous": false,
			"inputs": [
				{
					"indexed": true,
					"name": "_owner",
					"type": "address"
				},
				{
					"indexed": true,
					"name": "_spender",
					"type": "address"
				},
				{
					"indexed": false,
					"name": "_value",
					"type": "uint256"
				}
			],
			"name": "Approval",
			"type": "event"
		},
		{
			"anonymous": false,
			"inputs": [
				{
					"indexed": true,
					"name": "from",
					"type": "address"
				},
				{
					"indexed": false,
					"name": "value",
					"type": "uint256"
				}
			],
			"name": "Burn",
			"type": "event"
		},
		{
			"constant": false,
			"inputs": [
				{
					"name": "_startingMultiplier",
					"type": "uint256"
				},
				{
					"name": "_endingMultiplier",
					"type": "uint256"
				}
			],
			"name": "setStartingEndingMultiplier",
			"outputs": [],
			"payable": false,
			"stateMutability": "nonpayable",
			"type": "function"
		},
		{
			"constant": false,
			"inputs": [
				{
					"name": "_startingNetworkTokenBonusMultiplier",
					"type": "uint256"
				},
				{
					"name": "_endingNetworkTokenBonusMultiplier",
					"type": "uint256"
				}
			],
			"name": "setStartingEndingNetworkTokenBonusMultiplier",
			"outputs": [],
			"payable": false,
			"stateMutability": "nonpayable",
			"type": "function"
		},
		{
			"constant": false,
			"inputs": [
				{
					"name": "target",
					"type": "address"
				},
				{
					"name": "freeze",
					"type": "bool"
				}
			],
			"name": "freezeAccount",
			"outputs": [],
			"payable": false,
			"stateMutability": "nonpayable",
			"type": "function"
		},
		{
			"constant": false,
			"inputs": [
				{
					"name": "newSellPrice",
					"type": "uint256"
				},
				{
					"name": "newBuyPrice",
					"type": "uint256"
				}
			],
			"name": "setPrices",
			"outputs": [],
			"payable": false,
			"stateMutability": "nonpayable",
			"type": "function"
		},
		{
			"constant": false,
			"inputs": [
				{
					"name": "target",
					"type": "address"
				},
				{
					"name": "mintedAmount",
					"type": "uint256"
				}
			],
			"name": "mintToken",
			"outputs": [
				{
					"name": "",
					"type": "bool"
				}
			],
			"payable": false,
			"stateMutability": "nonpayable",
			"type": "function"
		},
		{
			"constant": false,
			"inputs": [
				{
					"name": "_from",
					"type": "address"
				},
				{
					"name": "_value",
					"type": "uint256"
				}
			],
			"name": "stakeFrom",
			"outputs": [
				{
					"name": "",
					"type": "bool"
				}
			],
			"payable": false,
			"stateMutability": "nonpayable",
			"type": "function"
		},
		{
			"constant": false,
			"inputs": [
				{
					"name": "_from",
					"type": "address"
				},
				{
					"name": "_value",
					"type": "uint256"
				}
			],
			"name": "unstakeFrom",
			"outputs": [
				{
					"name": "",
					"type": "bool"
				}
			],
			"payable": false,
			"stateMutability": "nonpayable",
			"type": "function"
		},
		{
			"constant": false,
			"inputs": [
				{
					"name": "_from",
					"type": "address"
				},
				{
					"name": "_to",
					"type": "address"
				},
				{
					"name": "_value",
					"type": "uint256"
				}
			],
			"name": "escrowFrom",
			"outputs": [
				{
					"name": "",
					"type": "bool"
				}
			],
			"payable": false,
			"stateMutability": "nonpayable",
			"type": "function"
		},
		{
			"constant": false,
			"inputs": [
				{
					"name": "target",
					"type": "address"
				},
				{
					"name": "mintedAmount",
					"type": "uint256"
				}
			],
			"name": "mintTokenEscrow",
			"outputs": [
				{
					"name": "",
					"type": "bool"
				}
			],
			"payable": false,
			"stateMutability": "nonpayable",
			"type": "function"
		},
		{
			"constant": false,
			"inputs": [
				{
					"name": "_from",
					"type": "address"
				},
				{
					"name": "_value",
					"type": "uint256"
				}
			],
			"name": "unescrowFrom",
			"outputs": [
				{
					"name": "",
					"type": "bool"
				}
			],
			"payable": false,
			"stateMutability": "nonpayable",
			"type": "function"
		},
		{
			"constant": false,
			"inputs": [
				{
					"name": "_from",
					"type": "address"
				},
				{
					"name": "_value",
					"type": "uint256"
				}
			],
			"name": "whitelistBurnFrom",
			"outputs": [
				{
					"name": "success",
					"type": "bool"
				}
			],
			"payable": false,
			"stateMutability": "nonpayable",
			"type": "function"
		},
		{
			"constant": false,
			"inputs": [
				{
					"name": "_from",
					"type": "address"
				},
				{
					"name": "_to",
					"type": "address"
				},
				{
					"name": "_value",
					"type": "uint256"
				}
			],
			"name": "whitelistTransferFrom",
			"outputs": [
				{
					"name": "success",
					"type": "bool"
				}
			],
			"payable": false,
			"stateMutability": "nonpayable",
			"type": "function"
		},
		{
			"constant": false,
			"inputs": [
				{
					"name": "newPrimordialSellPrice",
					"type": "uint256"
				},
				{
					"name": "newPrimordialBuyPrice",
					"type": "uint256"
				}
			],
			"name": "setPrimordialPrices",
			"outputs": [],
			"payable": false,
			"stateMutability": "nonpayable",
			"type": "function"
		},
		{
			"constant": false,
			"inputs": [
				{
					"name": "_from",
					"type": "address"
				},
				{
					"name": "_value",
					"type": "uint256"
				},
				{
					"name": "_weightedMultiplier",
					"type": "uint256"
				}
			],
			"name": "stakePrimordialTokenFrom",
			"outputs": [
				{
					"name": "",
					"type": "bool"
				}
			],
			"payable": false,
			"stateMutability": "nonpayable",
			"type": "function"
		},
		{
			"constant": false,
			"inputs": [
				{
					"name": "_from",
					"type": "address"
				},
				{
					"name": "_value",
					"type": "uint256"
				},
				{
					"name": "_weightedMultiplier",
					"type": "uint256"
				}
			],
			"name": "unstakePrimordialTokenFrom",
			"outputs": [
				{
					"name": "",
					"type": "bool"
				}
			],
			"payable": false,
			"stateMutability": "nonpayable",
			"type": "function"
		},
		{
			"constant": false,
			"inputs": [],
			"name": "buy",
			"outputs": [],
			"payable": true,
			"stateMutability": "payable",
			"type": "function"
		},
		{
			"constant": false,
			"inputs": [
				{
					"name": "amount",
					"type": "uint256"
				}
			],
			"name": "sell",
			"outputs": [],
			"payable": false,
			"stateMutability": "nonpayable",
			"type": "function"
		},
		{
			"constant": false,
			"inputs": [],
			"name": "buyPrimordialToken",
			"outputs": [],
			"payable": true,
			"stateMutability": "payable",
			"type": "function"
		},
		{
			"constant": false,
			"inputs": [
				{
					"name": "_to",
					"type": "address"
				},
				{
					"name": "_value",
					"type": "uint256"
				}
			],
			"name": "transferPrimordialToken",
			"outputs": [
				{
					"name": "success",
					"type": "bool"
				}
			],
			"payable": false,
			"stateMutability": "nonpayable",
			"type": "function"
		},
		{
			"constant": false,
			"inputs": [
				{
					"name": "_from",
					"type": "address"
				},
				{
					"name": "_to",
					"type": "address"
				},
				{
					"name": "_value",
					"type": "uint256"
				}
			],
			"name": "transferPrimordialTokenFrom",
			"outputs": [
				{
					"name": "success",
					"type": "bool"
				}
			],
			"payable": false,
			"stateMutability": "nonpayable",
			"type": "function"
		},
		{
			"constant": false,
			"inputs": [
				{
					"name": "_spender",
					"type": "address"
				},
				{
					"name": "_value",
					"type": "uint256"
				}
			],
			"name": "approvePrimordialToken",
			"outputs": [
				{
					"name": "success",
					"type": "bool"
				}
			],
			"payable": false,
			"stateMutability": "nonpayable",
			"type": "function"
		},
		{
			"constant": false,
			"inputs": [
				{
					"name": "_spender",
					"type": "address"
				},
				{
					"name": "_value",
					"type": "uint256"
				},
				{
					"name": "_extraData",
					"type": "bytes"
				}
			],
			"name": "approvePrimordialTokenAndCall",
			"outputs": [
				{
					"name": "success",
					"type": "bool"
				}
			],
			"payable": false,
			"stateMutability": "nonpayable",
			"type": "function"
		},
		{
			"constant": false,
			"inputs": [
				{
					"name": "_value",
					"type": "uint256"
				}
			],
			"name": "burnPrimordialToken",
			"outputs": [
				{
					"name": "success",
					"type": "bool"
				}
			],
			"payable": false,
			"stateMutability": "nonpayable",
			"type": "function"
		},
		{
			"constant": false,
			"inputs": [
				{
					"name": "_from",
					"type": "address"
				},
				{
					"name": "_value",
					"type": "uint256"
				}
			],
			"name": "burnPrimordialTokenFrom",
			"outputs": [
				{
					"name": "success",
					"type": "bool"
				}
			],
			"payable": false,
			"stateMutability": "nonpayable",
			"type": "function"
		},
		{
			"constant": true,
			"inputs": [
				{
					"name": "_lotOwner",
					"type": "address"
				}
			],
			"name": "lotIdsByAddress",
			"outputs": [
				{
					"name": "",
					"type": "bytes32[]"
				}
			],
			"payable": false,
			"stateMutability": "view",
			"type": "function"
		},
		{
			"constant": true,
			"inputs": [
				{
					"name": "_lotOwner",
					"type": "address"
				}
			],
			"name": "totalLotsByAddress",
			"outputs": [
				{
					"name": "",
					"type": "uint256"
				}
			],
			"payable": false,
			"stateMutability": "view",
			"type": "function"
		},
		{
			"constant": true,
			"inputs": [
				{
					"name": "_lotOwner",
					"type": "address"
				},
				{
					"name": "_index",
					"type": "uint256"
				}
			],
			"name": "lotOfOwnerByIndex",
			"outputs": [
				{
					"name": "",
					"type": "bytes32"
				},
				{
					"name": "",
					"type": "address"
				},
				{
					"name": "",
					"type": "uint256"
				},
				{
					"name": "",
					"type": "uint256"
				}
			],
			"payable": false,
			"stateMutability": "view",
			"type": "function"
		},
		{
			"constant": true,
			"inputs": [
				{
					"name": "_lotId",
					"type": "bytes32"
				}
			],
			"name": "lotById",
			"outputs": [
				{
					"name": "",
					"type": "bytes32"
				},
				{
					"name": "",
					"type": "address"
				},
				{
					"name": "",
					"type": "uint256"
				},
				{
					"name": "",
					"type": "uint256"
				}
			],
			"payable": false,
			"stateMutability": "view",
			"type": "function"
		},
		{
			"constant": true,
			"inputs": [
				{
					"name": "_lotOwner",
					"type": "address"
				}
			],
			"name": "burnLotIdsByAddress",
			"outputs": [
				{
					"name": "",
					"type": "bytes32[]"
				}
			],
			"payable": false,
			"stateMutability": "view",
			"type": "function"
		},
		{
			"constant": true,
			"inputs": [
				{
					"name": "_lotOwner",
					"type": "address"
				}
			],
			"name": "totalBurnLotsByAddress",
			"outputs": [
				{
					"name": "",
					"type": "uint256"
				}
			],
			"payable": false,
			"stateMutability": "view",
			"type": "function"
		},
		{
			"constant": true,
			"inputs": [
				{
					"name": "_burnLotId",
					"type": "bytes32"
				}
			],
			"name": "burnLotById",
			"outputs": [
				{
					"name": "",
					"type": "bytes32"
				},
				{
					"name": "",
					"type": "address"
				},
				{
					"name": "",
					"type": "uint256"
				}
			],
			"payable": false,
			"stateMutability": "view",
			"type": "function"
		},
		{
			"constant": true,
			"inputs": [
				{
					"name": "_lotOwner",
					"type": "address"
				}
			],
			"name": "convertLotIdsByAddress",
			"outputs": [
				{
					"name": "",
					"type": "bytes32[]"
				}
			],
			"payable": false,
			"stateMutability": "view",
			"type": "function"
		},
		{
			"constant": true,
			"inputs": [
				{
					"name": "_lotOwner",
					"type": "address"
				}
			],
			"name": "totalConvertLotsByAddress",
			"outputs": [
				{
					"name": "",
					"type": "uint256"
				}
			],
			"payable": false,
			"stateMutability": "view",
			"type": "function"
		},
		{
			"constant": true,
			"inputs": [
				{
					"name": "_convertLotId",
					"type": "bytes32"
				}
			],
			"name": "convertLotById",
			"outputs": [
				{
					"name": "",
					"type": "bytes32"
				},
				{
					"name": "",
					"type": "address"
				},
				{
					"name": "",
					"type": "uint256"
				}
			],
			"payable": false,
			"stateMutability": "view",
			"type": "function"
		},
		{
			"constant": true,
			"inputs": [
				{
					"name": "_lotOwner",
					"type": "address"
				}
			],
			"name": "weightedMultiplierByAddress",
			"outputs": [
				{
					"name": "",
					"type": "uint256"
				}
			],
			"payable": false,
			"stateMutability": "view",
			"type": "function"
		},
		{
			"constant": true,
			"inputs": [
				{
					"name": "_target",
					"type": "address"
				}
			],
			"name": "maxMultiplierByAddress",
			"outputs": [
				{
					"name": "",
					"type": "uint256"
				}
			],
			"payable": false,
			"stateMutability": "view",
			"type": "function"
		},
		{
			"constant": true,
			"inputs": [
				{
					"name": "_purchaseAmount",
					"type": "uint256"
				}
			],
			"name": "calculateMultiplierAndBonus",
			"outputs": [
				{
					"name": "",
					"type": "uint256"
				},
				{
					"name": "",
					"type": "uint256"
				},
				{
					"name": "",
					"type": "uint256"
				}
			],
			"payable": false,
			"stateMutability": "view",
			"type": "function"
		},
		{
			"constant": true,
			"inputs": [
				{
					"name": "_account",
					"type": "address"
				}
			],
			"name": "calculateMaximumBurnAmount",
			"outputs": [
				{
					"name": "",
					"type": "uint256"
				}
			],
			"payable": false,
			"stateMutability": "view",
			"type": "function"
		},
		{
			"constant": true,
			"inputs": [
				{
					"name": "_account",
					"type": "address"
				},
				{
					"name": "_amountToBurn",
					"type": "uint256"
				}
			],
			"name": "calculateMultiplierAfterBurn",
			"outputs": [
				{
					"name": "",
					"type": "uint256"
				}
			],
			"payable": false,
			"stateMutability": "view",
			"type": "function"
		},
		{
			"constant": true,
			"inputs": [
				{
					"name": "_account",
					"type": "address"
				},
				{
					"name": "_amountToConvert",
					"type": "uint256"
				}
			],
			"name": "calculateMultiplierAfterConversion",
			"outputs": [
				{
					"name": "",
					"type": "uint256"
				}
			],
			"payable": false,
			"stateMutability": "view",
			"type": "function"
		},
		{
			"constant": false,
			"inputs": [
				{
					"name": "_value",
					"type": "uint256"
				}
			],
			"name": "convertToPrimordial",
			"outputs": [
				{
					"name": "success",
					"type": "bool"
				}
			],
			"payable": false,
			"stateMutability": "nonpayable",
			"type": "function"
		},
		{
			"constant": false,
			"inputs": [
				{
					"name": "_to",
					"type": "address"
				},
				{
					"name": "_value",
					"type": "uint256"
				},
				{
					"name": "_primordialValue",
					"type": "uint256"
				}
			],
			"name": "transferTokens",
			"outputs": [
				{
					"name": "success",
					"type": "bool"
				}
			],
			"payable": false,
			"stateMutability": "nonpayable",
			"type": "function"
		},
		{
			"constant": false,
			"inputs": [
				{
					"name": "_from",
					"type": "address"
				},
				{
					"name": "_to",
					"type": "address"
				},
				{
					"name": "_value",
					"type": "uint256"
				},
				{
					"name": "_primordialValue",
					"type": "uint256"
				}
			],
			"name": "transferTokensFrom",
			"outputs": [
				{
					"name": "success",
					"type": "bool"
				}
			],
			"payable": false,
			"stateMutability": "nonpayable",
			"type": "function"
		},
		{
			"constant": false,
			"inputs": [
				{
					"name": "_spender",
					"type": "address"
				},
				{
					"name": "_value",
					"type": "uint256"
				},
				{
					"name": "_primordialValue",
					"type": "uint256"
				}
			],
			"name": "approveTokens",
			"outputs": [
				{
					"name": "success",
					"type": "bool"
				}
			],
			"payable": false,
			"stateMutability": "nonpayable",
			"type": "function"
		},
		{
			"constant": false,
			"inputs": [
				{
					"name": "_spender",
					"type": "address"
				},
				{
					"name": "_value",
					"type": "uint256"
				},
				{
					"name": "_primordialValue",
					"type": "uint256"
				},
				{
					"name": "_extraData",
					"type": "bytes"
				}
			],
			"name": "approveTokensAndCall",
			"outputs": [
				{
					"name": "success",
					"type": "bool"
				}
			],
			"payable": false,
			"stateMutability": "nonpayable",
			"type": "function"
		},
		{
			"constant": false,
			"inputs": [
				{
					"name": "_value",
					"type": "uint256"
				},
				{
					"name": "_primordialValue",
					"type": "uint256"
				}
			],
			"name": "burnTokens",
			"outputs": [
				{
					"name": "success",
					"type": "bool"
				}
			],
			"payable": false,
			"stateMutability": "nonpayable",
			"type": "function"
		},
		{
			"constant": false,
			"inputs": [
				{
					"name": "_from",
					"type": "address"
				},
				{
					"name": "_value",
					"type": "uint256"
				},
				{
					"name": "_primordialValue",
					"type": "uint256"
				}
			],
			"name": "burnTokensFrom",
			"outputs": [
				{
					"name": "success",
					"type": "bool"
				}
			],
			"payable": false,
			"stateMutability": "nonpayable",
			"type": "function"
		}
	],
	"bytecode": "0x608060405260018054600160a060020a0319908116735c63644d01ba385ebac5bcf2ddc1e6dbc1182b52179091556002805490911673156c79bf4347d1891da834ea30662a14177cbf281790556006805460ff191660121790553480156200006657600080fd5b50604051620049093803806200490983398101604090815281516020808401518385015160008054600160a060020a03191633908117825560065460ff16600a0a86026007819055908252600885529590209490945584018051929490930191849184918491620000dd916004918501906200018d565b508051620000f39060059060208401906200018d565b50506000600a8190556006805460ff199081169091556014805490911660011790556200012f9250905061271064010000000062000155810204565b50506302faf08060155550622dc6c0601655620f42406017556203d09060185562000232565b600054600160a060020a031633146200016d57600080fd5b60145460ff1615156001146200018257600080fd5b601291909155601355565b828054600181600116156101000203166002900490600052602060002090601f016020900481019282601f10620001d057805160ff191683800117855562000200565b8280016001018555821562000200579182015b8281111562000200578251825591602001919060010190620001e3565b506200020e92915062000212565b5090565b6200022f91905b808211156200020e576000815560010162000219565b90565b6146c780620002426000396000f30060806040526004361061041e5763ffffffff7c010000000000000000000000000000000000000000000000000000000060003504166305fefda7811461042357806306fdde0314610440578063080e74f7146104ca578063095ea7b3146105105780630aa24546146105485780630ac0b31f1461056f57806315227aa7146105a5578063153d9049146105d6578063178a8f34146105fa57806318160ddd1461066b57806323b872dd1461068057806323ceb6d8146106aa578063281bdaf8146106ce5780632b687bb9146106ef5780632ffeef7714610704578063313ce5671461071957806331a8aeb314610744578063324b8ad214610768578063360f277b1461078957806339446f201461079e5780633a9c7d3d146107b35780633bcd6624146107d45780633be928631461084057806341682d971461087e57806342966c681461089357806349937e25146108ab5780634b750334146108b35780634f090ab4146108c85780634fbd2695146108e057806353d6fd591461090157806354f7dd8c1461092757806357946b8e1461094b578063580b72e11461096c578063602172671461099357806367cf17c2146109b45780636aae86c3146109de5780637056d1f4146109f357806370a0823114610a1457806372d1146614610a35578063731a3b0614610a4a57806374ead7b714610a6e57806379c6506814610a9557806379cc679014610ab95780637d4831f614610add5780637e904f7b14610af8578063834e9f3114610b1f5780638620410b14610b3457806387d4ca9314610b495780638a06604514610b735780638e81c64d14610b975780639581cb2314610bb257806395d89b4114610bc75780639b19251a14610bdc578063a144a3e014610bfd578063a545a5d114610c27578063a6f2ae3a14610c3c578063a9059cbb14610c44578063a918887814610c68578063a99433a614610c83578063a9f7e66414610c98578063aaaf8a5214610cbf578063ab7f770614610ce3578063af339ee414610cf8578063b1e19d4514610d10578063b24626e914610d34578063b414d4b614610d5b578063ba2f817014610d7c578063bdb9c11f14610d91578063bdceba5f14610dbe578063c1b9981114610dd3578063c778edad14610df7578063ca4b208b14610e0c578063cae9ca5114610e21578063caf2976514610e8a578063cf3e194d14610e9f578063d1e5a55214610ec3578063d318386414610eea578063d58e175814610f0e578063d661dd3114610e8a578063d94ca0f914610f2f578063dd1a293a14610f98578063dd62ed3e14610fbf578063e352845514610fe6578063e4849b321461100a578063e724529c14611022578063ecbbd1ca14611048578063f0a668a914611069578063f2fde38b14611084578063f39cce01146110a5578063f5bd48c4146110c6578063faaad91d146110e7575b600080fd5b34801561042f57600080fd5b5061043e6004356024356110ff565b005b34801561044c57600080fd5b50610455611121565b6040805160208082528351818301528351919283929083019185019080838360005b8381101561048f578181015183820152602001610477565b50505050905090810190601f1680156104bc5780820380516001836020036101000a031916815260200191505b509250505060405180910390f35b3480156104d657600080fd5b506104e26004356111af565b60408051948552600160a060020a039093166020850152838301919091526060830152519081900360800190f35b34801561051c57600080fd5b50610534600160a060020a0360043516602435611224565b604080519115158252519081900360200190f35b34801561055457600080fd5b5061055d61128b565b60408051918252519081900360200190f35b34801561057b57600080fd5b50610587600435611291565b60408051938452602084019290925282820152519081900360600190f35b3480156105b157600080fd5b506105ba6114fc565b60408051600160a060020a039092168252519081900360200190f35b3480156105e257600080fd5b5061055d600160a060020a036004351660243561150b565b34801561060657600080fd5b5061061b600160a060020a0360043516611528565b60408051602080825283518183015283519192839290830191858101910280838360005b8381101561065757818101518382015260200161063f565b505050509050019250505060405180910390f35b34801561067757600080fd5b5061055d6115aa565b34801561068c57600080fd5b50610534600160a060020a03600435811690602435166044356115b0565b3480156106b657600080fd5b50610534600160a060020a036004351660243561161f565b3480156106da57600080fd5b5061055d600160a060020a03600435166116ff565b3480156106fb57600080fd5b5061055d611732565b34801561071057600080fd5b5061055d611738565b34801561072557600080fd5b5061072e61173e565b6040805160ff9092168252519081900360200190f35b34801561075057600080fd5b50610534600160a060020a0360043516602435611747565b34801561077457600080fd5b5061055d600160a060020a0360043516611864565b34801561079557600080fd5b5061055d611897565b3480156107aa57600080fd5b5061055d61189d565b3480156107bf57600080fd5b5061055d600160a060020a03600435166118a3565b3480156107e057600080fd5b50604080516020601f60643560048181013592830184900484028501840190955281845261053494600160a060020a0381351694602480359560443595369560849493019181908401838280828437509497506118fb9650505050505050565b34801561084c57600080fd5b50610858600435611949565b60408051938452600160a060020a03909216602084015282820152519081900360600190f35b34801561088a57600080fd5b5061055d6119b2565b34801561089f57600080fd5b506105346004356119b8565b61043e611a30565b3480156108bf57600080fd5b5061055d611c9b565b3480156108d457600080fd5b50610534600435611ca1565b3480156108ec57600080fd5b5061055d600160a060020a0360043516611d8d565b34801561090d57600080fd5b5061043e600160a060020a03600435166024351515611d9f565b34801561093357600080fd5b506104e2600160a060020a0360043516602435611de1565b34801561095757600080fd5b5061055d600160a060020a0360043516611ebb565b34801561097857600080fd5b50610534600160a060020a0360043516602435604435611ecd565b34801561099f57600080fd5b5061055d600160a060020a0360043516611f0e565b3480156109c057600080fd5b50610534600160a060020a0360043581169060243516604435611f20565b3480156109ea57600080fd5b5061055d6121b1565b3480156109ff57600080fd5b5061061b600160a060020a03600435166121bc565b348015610a2057600080fd5b5061055d600160a060020a036004351661223c565b348015610a4157600080fd5b5061055d61224e565b348015610a5657600080fd5b50610534600160a060020a0360043516602435612254565b348015610a7a57600080fd5b50610534600160a060020a0360043516602435604435612371565b348015610aa157600080fd5b50610534600160a060020a03600435166024356124cf565b348015610ac557600080fd5b50610534600160a060020a0360043516602435612517565b348015610ae957600080fd5b5061043e6004356024356125e8565b348015610b0457600080fd5b50610534600160a060020a0360043516602435604435612617565b348015610b2b57600080fd5b5061055d612785565b348015610b4057600080fd5b5061055d61278b565b348015610b5557600080fd5b50610534600160a060020a0360043581169060243516604435612791565b348015610b7f57600080fd5b50610534600160a060020a03600435166024356128bb565b348015610ba357600080fd5b506105346004356024356129d8565b348015610bbe57600080fd5b5061055d612a20565b348015610bd357600080fd5b50610455612a26565b348015610be857600080fd5b50610534600160a060020a0360043516612a81565b348015610c0957600080fd5b50610534600160a060020a0360043581169060243516604435612a96565b348015610c3357600080fd5b50610534612adf565b61043e612ae8565b348015610c5057600080fd5b50610534600160a060020a0360043516602435612b1e565b348015610c7457600080fd5b5061043e600435602435612b2b565b348015610c8f57600080fd5b506105ba612b61565b348015610ca457600080fd5b50610534600160a060020a0360043516602435604435612b70565b348015610ccb57600080fd5b50610534600160a060020a0360043516602435612ba6565b348015610cef57600080fd5b5061055d612c24565b348015610d0457600080fd5b50610858600435612c2a565b348015610d1c57600080fd5b50610534600160a060020a0360043516602435612c93565b348015610d4057600080fd5b5061043e600160a060020a0360043581169060243516612d97565b348015610d6757600080fd5b50610534600160a060020a0360043516612de9565b348015610d8857600080fd5b50610534612dfe565b348015610d9d57600080fd5b50610534600160a060020a0360043581169060243516604435606435612e07565b348015610dca57600080fd5b5061055d612e3f565b348015610ddf57600080fd5b50610534600160a060020a0360043516602435612e45565b348015610e0357600080fd5b5061055d61304e565b348015610e1857600080fd5b506105ba613054565b348015610e2d57600080fd5b50604080516020600460443581810135601f8101849004840285018401909552848452610534948235600160a060020a03169460248035953695946064949201919081908401838280828437509497506130639650505050505050565b348015610e9657600080fd5b5061055d613178565b348015610eab57600080fd5b5061055d600160a060020a036004351660243561317f565b348015610ecf57600080fd5b5061055d600160a060020a0360043581169060243516613260565b348015610ef657600080fd5b5061055d600160a060020a036004351660243561327d565b348015610f1a57600080fd5b5061055d600160a060020a0360043516613340565b348015610f3b57600080fd5b50604080516020600460443581810135601f8101849004840285018401909552848452610534948235600160a060020a03169460248035953695946064949201919081908401838280828437509497506133739650505050505050565b348015610fa457600080fd5b50610534600160a060020a0360043516602435604435613398565b348015610fcb57600080fd5b5061055d600160a060020a03600435811690602435166133ce565b348015610ff257600080fd5b50610534600160a060020a03600435166024356133eb565b34801561101657600080fd5b5061043e600435613574565b34801561102e57600080fd5b5061043e600160a060020a03600435166024351515613605565b34801561105457600080fd5b5061055d600160a060020a0360043516613680565b34801561107557600080fd5b5061043e60043560243561376c565b34801561109057600080fd5b5061043e600160a060020a036004351661379b565b3480156110b157600080fd5b5061061b600160a060020a03600435166137e1565b3480156110d257600080fd5b5061055d600160a060020a0360043516613861565b3480156110f357600080fd5b50610534600435613894565b600054600160a060020a0316331461111657600080fd5b600b91909155600c55565b6004805460408051602060026001851615610100026000190190941693909304601f810184900484028201840190925281815292918301828280156111a75780601f1061117c576101008083540402835291602001916111a7565b820191906000526020600020905b81548152906001019060200180831161118a57829003601f168201915b505050505081565b6000806000806111bd614654565b60145460ff1615156001146111d157600080fd5b5050506000928352505060208080526040918290208251608081018452815480825260018301549382018490526002830154600160a060020a031694820185905260039092015460609091018190529093565b336000818152600960209081526040808320600160a060020a038716808552908352818420869055815186815291519394909390927f8c5be1e5ebec7d5bd14f71427d1e84f3dd0314c0f7b2291e5b200ac8c7c3b925928290030190a35060015b92915050565b600a5481565b6014546000908190819060ff1615156001146112ac57600080fd5b601154601554601654604080517fc35f4bbb000000000000000000000000000000000000000000000000000000008152600481018990526603fffffffffffc60248201526044810194909452606484019290925260848301525173__AOLibrary_____________________________9163c35f4bbb9160a4808301926020929190829003018186803b15801561134157600080fd5b505af4158015611355573d6000803e3d6000fd5b505050506040513d602081101561136b57600080fd5b5051601154601754601854604080517f8f8bd64c000000000000000000000000000000000000000000000000000000008152600481018a90526603fffffffffffc60248201526044810194909452606484019290925260848301525173__AOLibrary_____________________________91638f8bd64c9160a4808301926020929190829003018186803b15801561140257600080fd5b505af4158015611416573d6000803e3d6000fd5b505050506040513d602081101561142c57600080fd5b5051601154601754601854604080517fe9cfa745000000000000000000000000000000000000000000000000000000008152600481018b90526603fffffffffffc60248201526044810194909452606484019290925260848301525173__AOLibrary_____________________________9163e9cfa7459160a4808301926020929190829003018186803b1580156114c357600080fd5b505af41580156114d7573d6000803e3d6000fd5b505050506040513d60208110156114ed57600080fd5b50519196909550909350915050565b600154600160a060020a031681565b601b60209081526000928352604080842090915290825290205481565b60145460609060ff16151560011461153f57600080fd5b600160a060020a0382166000908152602360209081526040918290208054835181840281018401909452808452909183018282801561159e57602002820191906000526020600020905b81548152600190910190602001808311611589575b50505050509050919050565b60075481565b600160a060020a03831660009081526009602090815260408083203384529091528120548211156115e057600080fd5b600160a060020a0384166000908152600960209081526040808320338452909152902080548390039055611615848484613a84565b5060019392505050565b3360008181526003602052604081205490919060ff161515600114806116525750600054600160a060020a038281169116145b151561165d57600080fd5b600160a060020a0384166000908152600f6020526040902054611686908463ffffffff613c6c16565b600160a060020a0385166000908152600f60205260409020556007546116b2908463ffffffff613c6c16565b600755604080518481529051600160a060020a0386169130917f812c3251d8b2cd027716a7651ace6f9167d7fba4db9eb10df2e0cfe8b7fa48c99181900360200190a35060019392505050565b60145460009060ff16151560011461171657600080fd5b50600160a060020a031660009081526026602052604090205490565b60125481565b601e5481565b60065460ff1681565b3360008181526003602052604081205490919060ff1615156001148061177a5750600054600160a060020a038281169116145b151561178557600080fd5b600160a060020a0384166000908152600860205260409020548311156117aa57600080fd5b600160a060020a0384166000908152600860205260409020546117d3908463ffffffff613c7916565b600160a060020a038516600090815260086020908152604080832093909355600e90522054611808908463ffffffff613c6c16565b600160a060020a0385166000818152600e6020908152604091829020939093558051868152905191927febedb8b3c678666e7f36970bc8f57abf6d8fa2e828c0da91ea5b75bf68ed101a92918290030190a25060019392505050565b60145460009060ff16151560011461187b57600080fd5b50600160a060020a031660009081526024602052604090205490565b601c5481565b60175481565b60145460009060ff1615156001146118ba57600080fd5b600160a060020a038216600090815260236020526040812054116118df576000611285565b50600160a060020a031660009081526027602052604090205490565b60145460009060ff16151560011461191257600080fd5b61191d858584613063565b151561192857600080fd5b611933858484613373565b151561193e57600080fd5b506001949350505050565b600080600061195661467b565b60145460ff16151560011461196a57600080fd5b50505060009182525060216020908152604091829020825160608101845281548082526001830154600160a060020a0316938201849052600290920154930183905292909190565b601d5481565b336000908152600860205260408120548211156119d457600080fd5b3360008181526008602090815260409182902080548690039055600780548690039055815185815291517fcc16f5dbb4873280815c1ee09dbd06736cffcc184412cf7a71a0fdb75d397ca59281900390910190a2506001919050565b60145460009081908190819081908190819060ff161515600114611a5357600080fd5b601f5460ff1615611a6357600080fd5b6011546603fffffffffffc11611a7857600080fd5b601354600010611a8757600080fd5b60003411611a9457600080fd5b601354611aa890349063ffffffff613c8b16565b9650600095506603fffffffffffc611acb88601154613c6c90919063ffffffff16565b10611b2357601154611aeb906603fffffffffffc9063ffffffff613c7916565b601f805460ff19166001179055601354909750611b2090611b1390899063ffffffff613ca016565b349063ffffffff613c7916565b95505b60008711611b3057600080fd5b611b3987611291565b945094509450611b5487601154613c6c90919063ffffffff16565b601155611b6333888786613cc9565b601554611b76908663ffffffff613c7916565b9150611bc2620f4240611bb689611baa601854611b9e8a601754613c7990919063ffffffff16565b9063ffffffff613c6c16565b9063ffffffff613ca016565b9063ffffffff613c8b16565b600154909150600160a060020a031615611c0e57600154611c0e90600160a060020a0316611bf789600263ffffffff613c8b16565b84611c0985600263ffffffff613c8b16565b613cc9565b600254600160a060020a031615611c445760028054611c4491600160a060020a0390911690611bf7908a9063ffffffff613c8b16565b600054611c5a90600160a060020a031682613f98565b6000861115611c9257604051339087156108fc029088906000818181858888f19350505050158015611c90573d6000803e3d6000fd5b505b50505050505050565b600b5481565b60145460009060ff161515600114611cb857600080fd5b33600090815260196020526040902054821115611cd457600080fd5b81611cde33613680565b1015611ce957600080fd5b611cf3338361327d565b33600090815260266020908152604080832093909355601990522054611d1f908363ffffffff613c7916565b33600090815260196020526040902055601054611d42908363ffffffff613c7916565b601055611d4f338361406c565b60408051838152905133917f8ca2ca4355ea7f1e1880fa3d5f2dc524f82297c88282d5d95badd4041b8a8edb919081900360200190a2506001919050565b600f6020526000908152604090205481565b600054600160a060020a03163314611db657600080fd5b600160a060020a03919091166000908152600360205260409020805460ff1916911515919091179055565b600080600080611def614654565b60145460ff161515600114611e0357600080fd5b600160a060020a0387166000908152602360205260409020548610611e2757600080fd5b600160a060020a03871660009081526023602090815260408220805491929189908110611e5057fe5b600091825260208083209190910154835282810193909352604091820190208151608081018352815480825260018301549482018590526002830154600160a060020a03169382018490526003909201546060909101819052909a9199509197509095509350505050565b60196020526000908152604090205481565b60145460009060ff161515600114611ee457600080fd5b611eee8484611224565b1515611ef957600080fd5b611f038483612ba6565b151561161557600080fd5b600e6020526000908152604090205481565b600080611f2b614654565b60145460ff161515600114611f3f57600080fd5b600160a060020a0386166000908152601a60209081526040808320338452909152902054841115611f6f57600080fd5b600160a060020a0386166000908152601a60209081526040808320338452909152902054611fa3908563ffffffff613c7916565b600160a060020a0387166000818152601a6020908152604080832033845282528083209490945591815260269091522054611fe19086908690614204565b600081815260208080526040918290208251608081018452815481526001820154928101929092526002810154600160a060020a03908116938301849052600390910154606083015292945092509086161461203c57600080fd5b600160a060020a038086166000908152602660208181526040808420546019835281852054958c168552928252928390205483517f8cf3313f00000000000000000000000000000000000000000000000000000000815260048101939093526024830194909452604482019390935260648101879052905173__AOLibrary_____________________________92638cf3313f9260848082019391829003018186803b1580156120eb57600080fd5b505af41580156120ff573d6000803e3d6000fd5b505050506040513d602081101561211557600080fd5b5051600160a060020a03861660009081526026602052604090205561213b86868661439d565b151561214657600080fd5b80516040808301516020808501516060808701518551928352928201929092526000818501529251600160a060020a03909216927f20dcffcce6f33b394371fed8876a2562e3110ed8dbdc448b593a2680c7330a03929081900390910190a350600195945050505050565b6603fffffffffffc81565b60145460609060ff1615156001146121d357600080fd5b600160a060020a0382166000908152602460209081526040918290208054835181840281018401909452808452909183018282801561159e5760200282019190600052602060002090815481526001909101906020018083116115895750505050509050919050565b60086020526000908152604090205481565b60135481565b3360008181526003602052604081205490919060ff161515600114806122875750600054600160a060020a038281169116145b151561229257600080fd5b600160a060020a0384166000908152600e60205260409020548311156122b757600080fd5b600160a060020a0384166000908152600e60205260409020546122e0908463ffffffff613c7916565b600160a060020a0385166000908152600e6020908152604080832093909355600890522054612315908463ffffffff613c6c16565b600160a060020a038516600081815260086020908152604091829020939093558051868152905191927f85082129d87b2fe11527cb1b3b7a520aeb5aa6913f88a3d8757fe40d1db02fdd92918290030190a25060019392505050565b3360008181526003602052604081205490919060ff161515600114806123a45750600054600160a060020a038281169116145b15156123af57600080fd5b60145460ff1615156001146123c357600080fd5b600160a060020a0385166000908152601b602090815260408083208684529091529020548411156123f357600080fd5b600160a060020a0385166000908152601b60209081526040808320868452909152902054612427908563ffffffff613c7916565b600160a060020a0386166000818152601b6020908152604080832088845282528083209490945591815260199091522054612468908563ffffffff613c6c16565b600160a060020a038616600081815260196020908152604091829020939093558051878152928301869052805191927f7bcdc377a1fa8b0dd654d64d7337143be4ce1250ada31f3b1cdac27dea65d3a3929081900390910190a2600191505b509392505050565b3360008181526003602052604081205490919060ff161515600114806125025750600054600160a060020a038281169116145b151561250d57600080fd5b6116158484613f98565b600160a060020a03821660009081526008602052604081205482111561253c57600080fd5b600160a060020a038316600090815260096020908152604080832033845290915290205482111561256c57600080fd5b600160a060020a0383166000818152600860209081526040808320805487900390556009825280832033845282529182902080548690039055600780548690039055815185815291517fcc16f5dbb4873280815c1ee09dbd06736cffcc184412cf7a71a0fdb75d397ca59281900390910190a250600192915050565b600054600160a060020a031633146125ff57600080fd5b8082101561260c57600080fd5b601591909155601655565b3360008181526003602052604081205490919060ff1615156001148061264a5750600054600160a060020a038281169116145b151561265557600080fd5b60145460ff16151560011461266957600080fd5b600160a060020a03851660009081526019602052604090205484111561268e57600080fd5b600160a060020a03851660009081526026602052604090205483146126b257600080fd5b600160a060020a0385166000908152601960205260409020546126db908563ffffffff613c7916565b600160a060020a038616600090815260196020908152604080832093909355601b815282822086835290522054612718908563ffffffff613c6c16565b600160a060020a0386166000818152601b60209081526040808320888452825291829020939093558051878152928301869052805191927fe62430bd00d68dd82de89addd3b7e4ce6bd50eb278f53dfb7fa7dac47643098d929081900390910190a2506001949350505050565b60105481565b600c5481565b3360008181526003602052604081205490919060ff161515600114806127c45750600054600160a060020a038281169116145b15156127cf57600080fd5b600160a060020a0385166000908152600860205260409020548311156127f457600080fd5b600160a060020a03851660009081526008602052604090205461281d908463ffffffff613c7916565b600160a060020a038087166000908152600860209081526040808320949094559187168152600f9091522054612859908463ffffffff613c6c16565b600160a060020a038086166000818152600f602090815260409182902094909455805187815290519193928916927f812c3251d8b2cd027716a7651ace6f9167d7fba4db9eb10df2e0cfe8b7fa48c992918290030190a3506001949350505050565b3360008181526003602052604081205490919060ff161515600114806128ee5750600054600160a060020a038281169116145b15156128f957600080fd5b600160a060020a0384166000908152600f602052604090205483111561291e57600080fd5b600160a060020a0384166000908152600f6020526040902054612947908463ffffffff613c7916565b600160a060020a0385166000908152600f602090815260408083209390935560089052205461297c908463ffffffff613c6c16565b600160a060020a038516600081815260086020908152604091829020939093558051868152905191927f85538b0b045118ba300aa14d9701eab875903dd2976d62d855ec959a3e6cffb192918290030190a25060019392505050565b60145460009060ff1615156001146129ef57600080fd5b6129f8836119b8565b1515612a0357600080fd5b612a0c82611ca1565b1515612a1757600080fd5b50600192915050565b60155481565b6005805460408051602060026001851615610100026000190190941693909304601f810184900484028201840190925281815292918301828280156111a75780601f1061117c576101008083540402835291602001916111a7565b60036020526000908152604090205460ff1681565b3360008181526003602052604081205490919060ff16151560011480612ac95750600054600160a060020a038281169116145b1515612ad457600080fd5b61193e858585613a84565b601f5460ff1681565b600080600c54111515612afa57600080fd5b600c54612b0e90349063ffffffff613c8b16565b9050612b1b303383613a84565b50565b6000612a17338484613a84565b600054600160a060020a03163314612b4257600080fd5b60145460ff161515600114612b5657600080fd5b601291909155601355565b600254600160a060020a031681565b60145460009060ff161515600114612b8757600080fd5b612b918484612b1e565b1515612b9c57600080fd5b611f038483612e45565b60145460009060ff161515600114612bbd57600080fd5b336000818152601a60209081526040808320600160a060020a03881680855290835292819020869055805186815290519293927f199f64ba6278b91ed8e7f45335d9fdbfa2d094b1fdc34465229e79047fcea3ce929181900390910190a350600192915050565b60115481565b6000806000612c3761467b565b60145460ff161515600114612c4b57600080fd5b50505060009182525060226020908152604091829020825160608101845281548082526001830154600160a060020a0316938201849052600290920154930183905292909190565b3360008181526003602052604081205490919060ff16151560011480612cc65750600054600160a060020a038281169116145b1515612cd157600080fd5b600160a060020a038416600090815260086020526040902054831115612cf657600080fd5b600160a060020a038416600090815260086020526040902054612d1f908463ffffffff613c7916565b600160a060020a038516600090815260086020526040902055600754612d4b908463ffffffff613c7916565b600755604080518481529051600160a060020a038616917fcc16f5dbb4873280815c1ee09dbd06736cffcc184412cf7a71a0fdb75d397ca5919081900360200190a25060019392505050565b600054600160a060020a03163314612dae57600080fd5b60018054600160a060020a0393841673ffffffffffffffffffffffffffffffffffffffff199182161790915560028054929093169116179055565b600d6020526000908152604090205460ff1681565b60145460ff1681565b60145460009060ff161515600114612e1e57600080fd5b612e298585856115b0565b1515612e3457600080fd5b611933858584611f20565b60185481565b600080612e50614654565b60145460ff161515600114612e6457600080fd5b33600090815260266020526040902054612e819086908690614204565b600081815260208080526040918290208251608081018452815481526001820154928101929092526002810154600160a060020a039081169383018490526003909101546060830152929450925090861614612edc57600080fd5b600160a060020a0385166000908152602660208181526040808420546019835281852054338652938352938190205481517f8cf3313f00000000000000000000000000000000000000000000000000000000815260048101959095526024850193909352604484019290925260648301879052905173__AOLibrary_____________________________92638cf3313f926084808301939192829003018186803b158015612f8957600080fd5b505af4158015612f9d573d6000803e3d6000fd5b505050506040513d6020811015612fb357600080fd5b5051600160a060020a038616600090815260266020526040902055612fd933868661439d565b1515612fe457600080fd5b80516040808301516020808501516060808701518551928352928201929092526000818501529251600160a060020a03909216927f20dcffcce6f33b394371fed8876a2562e3110ed8dbdc448b593a2680c7330a03929081900390910190a3506001949350505050565b60165481565b600054600160a060020a031681565b6000836130708185611224565b156124c7576040517f8f4ffcb10000000000000000000000000000000000000000000000000000000081523360048201818152602483018790523060448401819052608060648501908152875160848601528751600160a060020a03871695638f4ffcb195948b94938b939192909160a490910190602085019080838360005b838110156131085781810151838201526020016130f0565b50505050905090810190601f1680156131355780820380516001836020036101000a031916815260200191505b5095505050505050600060405180830381600087803b15801561315757600080fd5b505af115801561316b573d6000803e3d6000fd5b50505050600191506124c7565b620f424081565b60145460009060ff16151560011461319657600080fd5b600160a060020a03831660009081526019602090815260408083205460268352928190205481517f7fbc9c5500000000000000000000000000000000000000000000000000000000815260048101949094526024840152604483018590525173__AOLibrary_____________________________92637fbc9c55926064808301939192829003018186803b15801561322d57600080fd5b505af4158015613241573d6000803e3d6000fd5b505050506040513d602081101561325757600080fd5b50519392505050565b601a60209081526000928352604080842090915290825290205481565b60145460009060ff16151560011461329457600080fd5b8161329e84613680565b10156132a957600080fd5b600160a060020a03831660009081526019602090815260408083205460268352928190205481517f32363e0a00000000000000000000000000000000000000000000000000000000815260048101949094526024840152604483018590525173__AOLibrary_____________________________926332363e0a926064808301939192829003018186803b15801561322d57600080fd5b60145460009060ff16151560011461335757600080fd5b50600160a060020a031660009081526025602052604090205490565b601454600090819060ff16151560011461338c57600080fd5b50836130708185612ba6565b60145460009060ff1615156001146133af57600080fd5b6133b98484612517565b15156133c457600080fd5b611f0384836133eb565b600960209081526000928352604080842090915290825290205481565b60145460009060ff16151560011461340257600080fd5b600160a060020a03831660009081526019602052604090205482111561342757600080fd5b600160a060020a0383166000908152601a6020908152604080832033845290915290205482111561345757600080fd5b8161346184613680565b101561346c57600080fd5b613476838361327d565b600160a060020a0384166000908152602660209081526040808320939093556019905220546134ab908363ffffffff613c7916565b600160a060020a038416600090815260196020908152604080832093909355601a8152828220338352905220546134e8908363ffffffff613c7916565b600160a060020a0384166000908152601a6020908152604080832033845290915290205560105461351f908363ffffffff613c7916565b60105561352c838361406c565b604080518381529051600160a060020a038516917f8ca2ca4355ea7f1e1880fa3d5f2dc524f82297c88282d5d95badd4041b8a8edb919081900360200190a250600192915050565b600080600b5411151561358657600080fd5b50600b54309061359d90839063ffffffff613ca016565b600160a060020a0382163110156135b357600080fd5b6135be333084613a84565b600b5433906108fc906135d890859063ffffffff613ca016565b6040518115909202916000818181858888f19350505050158015613600573d6000803e3d6000fd5b505050565b600054600160a060020a0316331461361c57600080fd5b600160a060020a0382166000818152600d6020908152604091829020805460ff191685151590811790915582519384529083015280517f48335238b4855f35377ed80f164e8c6f3c366e54ac00b96a6402d4a9814a03a59281900390910190a15050565b60145460009060ff16151560011461369757600080fd5b600160a060020a038216600090815260196020908152604080832054602683528184205460278452938290205482517f4d5a11730000000000000000000000000000000000000000000000000000000081526004810192909252602482019490945260448101939093525173__AOLibrary_____________________________92634d5a1173926064808301939192829003018186803b15801561373a57600080fd5b505af415801561374e573d6000803e3d6000fd5b505050506040513d602081101561376457600080fd5b505192915050565b600054600160a060020a0316331461378357600080fd5b8082101561379057600080fd5b601791909155601855565b600054600160a060020a031633146137b257600080fd5b6000805473ffffffffffffffffffffffffffffffffffffffff1916600160a060020a0392909216919091179055565b60145460609060ff1615156001146137f857600080fd5b600160a060020a0382166000908152602560209081526040918290208054835181840281018401909452808452909183018282801561159e5760200282019190600052602060002090815481526001909101906020018083116115895750505050509050919050565b60145460009060ff16151560011461387857600080fd5b50600160a060020a031660009081526023602052604090205490565b6014546000908190819060ff1615156001146138af57600080fd5b336000908152600860205260409020548411156138cb57600080fd5b6138d5338561317f565b336000908152602660205260409020556138ee846119b8565b506138f93385614580565b601e805460010190819055604080516c010000000000000000000000003081026020808401919091523391909102603483015260488083019490945282518083039094018452606890910191829052825182918401908083835b602083106139725780518252601f199092019160209182019101613953565b51815160209384036101000a60001901801990921691161790526040805192909401829003909120600081815260229092529290206001015491955050600160a060020a03161591506139c6905057600080fd5b5060008181526022602090815260408083208481556001808201805473ffffffffffffffffffffffffffffffffffffffff1916339081178255600284018a815590875260258652848720805493840181558752858720909201879055825490549154600160a060020a039290921680875260268652958490205484519283529482019490945282519194927f24f057e925d9fc5c8b912d57da9cf8bbcf393fa8c87db8005d378fe9f828e7ba92918290030190a35060019392505050565b6000600160a060020a0383161515613a9b57600080fd5b600160a060020a038416600090815260086020526040902054821115613ac057600080fd5b600160a060020a038316600090815260086020526040902054613ae9818463ffffffff613c6c16565b1015613af457600080fd5b600160a060020a0384166000908152600d602052604090205460ff1615613b1a57600080fd5b600160a060020a0383166000908152600d602052604090205460ff1615613b4057600080fd5b600160a060020a03808416600090815260086020526040808220549287168252902054613b729163ffffffff613c6c16565b600160a060020a038516600090815260086020526040902054909150613b9e908363ffffffff613c7916565b600160a060020a038086166000908152600860205260408082209390935590851681522054613bd3908363ffffffff613c6c16565b600160a060020a0380851660008181526008602090815260409182902094909455805186815290519193928816927fddf252ad1be2c89b69c2b068fc378daa952ba7f163c4a11628f55a4df523b3ef92918290030190a3600160a060020a038084166000908152600860205260408082205492871682529020548291613c5f919063ffffffff613c6c16565b14613c6657fe5b50505050565b8181018281101561128557fe5b600082821115613c8557fe5b50900390565b60008183811515613c9857fe5b049392505050565b6000821515613cb157506000611285565b50818102818382811515613cc157fe5b041461128557fe5b601c805460010190819055604080516c01000000000000000000000000308102602080840191909152600160a060020a038916909102603483015260488083019490945282518083039094018452606890910191829052825160009384939092909182918401908083835b60208310613d535780518252601f199092019160209182019101613d34565b51815160209384036101000a6000190180199092169116179052604080519290940182900390912060008181529180529290206002015491955050600160a060020a0316159150613da5905057600080fd5b50600081815260208080526040808320848155600180820188815560028301805473ffffffffffffffffffffffffffffffffffffffff1916600160a060020a038d16908117909155600384018b815581885260238752858820805494850181558852868820909301889055865260268552838620546019865295849020549054915484517f8cf3313f00000000000000000000000000000000000000000000000000000000815260048101979097526024870191909152604486019190915260648501529051909273__AOLibrary_____________________________92638cf3313f92608480840193829003018186803b158015613ea357600080fd5b505af4158015613eb7573d6000803e3d6000fd5b505050506040513d6020811015613ecd57600080fd5b5051600160a060020a03871660009081526026602090815260408083209390935560239052205460011415613f1b576001810154600160a060020a0387166000908152602760205260409020555b613f29868260030154614580565b613f338684613f98565b805460028201546001830154600384015460408051928352602083019190915281810187905251600160a060020a03909216917f20dcffcce6f33b394371fed8876a2562e3110ed8dbdc448b593a2680c7330a039181900360600190a3505050505050565b600160a060020a038216600090815260086020526040902054613fc1908263ffffffff613c6c16565b600160a060020a038316600090815260086020526040902055600754613fed908263ffffffff613c6c16565b60075560408051828152905130916000917fddf252ad1be2c89b69c2b068fc378daa952ba7f163c4a11628f55a4df523b3ef9181900360200190a3604080518281529051600160a060020a0384169130917fddf252ad1be2c89b69c2b068fc378daa952ba7f163c4a11628f55a4df523b3ef9181900360200190a35050565b601d805460010190819055604080516c01000000000000000000000000308102602080840191909152600160a060020a038716909102603483015260488083019490945282518083039094018452606890910191829052825160009384939092909182918401908083835b602083106140f65780518252601f1990920191602091820191016140d7565b51815160209384036101000a60001901801990921691161790526040805192909401829003909120600081815260219092529290206001015491955050600160a060020a031615915061414a905057600080fd5b5060008181526021602090815260408083208481556001808201805473ffffffffffffffffffffffffffffffffffffffff1916600160a060020a038a81169182178355600285018a815591885260248752858820805494850181558852868820909301889055835491549054921680875260268652958490205484519283529482019490945282519194927f6c5992d9f99885465942ae05b2bcc358a509184bb262ec9bfe242ccdc42d1a0392918290030190a350505050565b60008080600160a060020a038616151561421d57600080fd5b6000851161422a57600080fd5b601c805460010190819055604080516c01000000000000000000000000308102602080840191909152600160a060020a038b16909102603483015260488083019490945282518083039094018452606890910191829052825182918401908083835b602083106142ab5780518252601f19909201916020918201910161428c565b51815160209384036101000a6000190180199092169116179052604080519290940182900390912060008181529180529290206002015491955050600160a060020a03161591506142fd905057600080fd5b50600081815260208080526040808320848155600180820188905560028201805473ffffffffffffffffffffffffffffffffffffffff1916600160a060020a038c16908117909155600383018a905580865260238552928520805480830182558187529486209094018690559190935290541415614394576001810154600160a060020a0387166000908152602760205260409020555b50949350505050565b600080600160a060020a03841615156143b557600080fd5b600160a060020a0385166000908152601960205260409020548311156143da57600080fd5b600160a060020a038416600090815260196020526040902054614403818563ffffffff613c6c16565b101561440e57600080fd5b600160a060020a0385166000908152600d602052604090205460ff161561443457600080fd5b600160a060020a0384166000908152600d602052604090205460ff161561445a57600080fd5b600160a060020a0380851660009081526019602052604080822054928816825290205461448c9163ffffffff613c6c16565b600160a060020a0386166000908152601960205260409020549091506144b8908463ffffffff613c7916565b600160a060020a0380871660009081526019602052604080822093909355908616815220546144ed908463ffffffff613c6c16565b600160a060020a0380861660008181526019602090815260409182902094909455805187815290519193928916927fa906a7bdab67ba77819fbd926440353e67b66c398aaeffd1fd212ddae941bbe292918290030190a3600160a060020a038085166000908152601960205260408082205492881682529020548291614579919063ffffffff613c6c16565b1461193e57fe5b600160a060020a0382166000908152601960205260409020546145a9908263ffffffff613c6c16565b600160a060020a0383166000908152601960205260409020556010546145d5908263ffffffff613c6c16565b60105560408051828152905130916000917fa906a7bdab67ba77819fbd926440353e67b66c398aaeffd1fd212ddae941bbe29181900360200190a3604080518281529051600160a060020a0384169130917fa906a7bdab67ba77819fbd926440353e67b66c398aaeffd1fd212ddae941bbe29181900360200190a35050565b60408051608081018252600080825260208201819052918101829052606081019190915290565b6040805160608101825260008082526020820181905291810191909152905600a165627a7a7230582037b373fcdb91653c23f25478ef8b338997a7ae9e7c2970337927653f7cfaec4a0029",
	"source": "pragma solidity ^0.4.24;\n\nimport './SafeMath.sol';\nimport './developed.sol';\nimport './TokenERC20.sol';\nimport './tokenRecipient.sol';\nimport './AOLibrary.sol';\n\n/**\n * @title AOToken\n */\ncontract AOToken is developed, TokenERC20 {\n\tusing SafeMath for uint256;\n\n\t// To differentiate denomination of AO\n\tuint256 public powerOfTen;\n\n\t/***** NETWORK TOKEN VARIABLES *****/\n\tuint256 public sellPrice;\n\tuint256 public buyPrice;\n\n\tmapping (address => bool) public frozenAccount;\n\tmapping (address => uint256) public stakedBalance;\n\tmapping (address => uint256) public escrowedBalance;\n\n\t// This generates a public event on the blockchain that will notify clients\n\tevent FrozenFunds(address target, bool frozen);\n\tevent Stake(address indexed from, uint256 value);\n\tevent Unstake(address indexed from, uint256 value);\n\tevent Escrow(address indexed from, address indexed to, uint256 value);\n\tevent Unescrow(address indexed from, uint256 value);\n\n\t/***** PRIMORDIAL TOKEN VARIABLES *****/\n\tuint256 public primordialTotalSupply;\n\tuint256 public primordialTotalBought;\n\tuint256 public primordialSellPrice;\n\tuint256 public primordialBuyPrice;\n\tbool public networkExchangeContract;\n\tuint256 public startingMultiplier;\n\tuint256 public endingMultiplier;\n\tuint256 public startingNetworkTokenBonusMultiplier;\n\tuint256 public endingNetworkTokenBonusMultiplier;\n\n\tmapping (address => uint256) public primordialBalanceOf;\n\tmapping (address => mapping (address => uint256)) public primordialAllowance;\n\n\t// Mapping from owner's lot weighted multiplier to the amount of staked tokens\n\tmapping (address => mapping (uint256 => uint256)) public primordialStakedBalance;\n\n\tevent PrimordialTransfer(address indexed from, address indexed to, uint256 value);\n\tevent PrimordialApproval(address indexed _owner, address indexed _spender, uint256 _value);\n\tevent PrimordialBurn(address indexed from, uint256 value);\n\tevent PrimordialStake(address indexed from, uint256 value, uint256 weightedMultiplier);\n\tevent PrimordialUnstake(address indexed from, uint256 value, uint256 weightedMultiplier);\n\n\tuint256 public totalLots;\n\tuint256 public totalBurnLots;\n\tuint256 public totalConvertLots;\n\n\t// Total available primordial token for sale 1,125,899,906,842,620 AO+\n\tuint256 constant public TOTAL_PRIMORDIAL_FOR_SALE = 1125899906842620;\n\n\t// Account for 6 decimal points for multiplier\n\tuint256 constant public MULTIPLIER_DIVISOR = 10 ** 6; // 1000000 = 1\n\tuint256 constant public PERCENTAGE_DIVISOR = 10 ** 6; // 100% = 1000000\n\n\tbool public networkExchangeEnded;\n\n\t/**\n\t * Stores Lot creation data (during network exchange)\n\t */\n\tstruct Lot {\n\t\tbytes32 lotId;\n\t\tuint256 multiplier;\t// This value is in 10^6, so 1000000 = 1\n\t\taddress lotOwner;\n\t\tuint256 tokenAmount;\n\t}\n\n\t/**\n\t * Struct to store info when account burns primordial token\n\t */\n\tstruct BurnLot {\n\t\tbytes32 burnLotId;\n\t\taddress lotOwner;\n\t\tuint256 tokenAmount;\n\t}\n\n\t/**\n\t * Struct to store info when account converts network token to primordial token\n\t */\n\tstruct ConvertLot {\n\t\tbytes32 convertLotId;\n\t\taddress lotOwner;\n\t\tuint256 tokenAmount;\n\t}\n\n\t// Mapping from Lot ID to Lot object\n\tmapping (bytes32 => Lot) internal lots;\n\n\t// Mapping from Burn Lot ID to BurnLot object\n\tmapping (bytes32 => BurnLot) internal burnLots;\n\n\t// Mapping from Convert Lot ID to ConvertLot object\n\tmapping (bytes32 => ConvertLot) internal convertLots;\n\n\t// Mapping from owner to list of owned lot IDs\n\tmapping (address => bytes32[]) internal ownedLots;\n\n\t// Mapping from owner to list of owned burn lot IDs\n\tmapping (address => bytes32[]) internal ownedBurnLots;\n\n\t// Mapping from owner to list of owned convert lot IDs\n\tmapping (address => bytes32[]) internal ownedConvertLots;\n\n\t// Mapping from owner to his/her current weighted multiplier\n\tmapping (address => uint256) internal ownerWeightedMultiplier;\n\n\t// Mapping from owner to his/her max multiplier (multiplier of account's first Lot)\n\tmapping (address => uint256) internal ownerMaxMultiplier;\n\n\t// Event to be broadcasted to public when a lot is created\n\t// multiplier value is in 10^6 to account for 6 decimal points\n\tevent LotCreation(address indexed lotOwner, bytes32 indexed lotId, uint256 multiplier, uint256 primordialTokenAmount, uint256 networkTokenBonusAmount);\n\n\t// Event to be broadcasted to public when burn lot is created (when account burns primordial tokens)\n\tevent BurnLotCreation(address indexed lotOwner, bytes32 indexed burnLotId, uint256 burnTokenAmount, uint256 multiplierAfterBurn);\n\n\t// Event to be broadcasted to public when convert lot is created (when account convert network tokens to primordial tokens)\n\tevent ConvertLotCreation(address indexed lotOwner, bytes32 indexed convertLotId, uint256 convertTokenAmount, uint256 multiplierAfterBurn);\n\n\t/**\n\t * @dev Constructor function\n\t */\n\tconstructor(uint256 initialSupply, string tokenName, string tokenSymbol)\n\t\tTokenERC20(initialSupply, tokenName, tokenSymbol) public {\n\t\tpowerOfTen = 0;\n\t\tdecimals = 0;\n\t\tnetworkExchangeContract = true;\n\t\tsetPrimordialPrices(0, 10000); // Set Primordial buy price to 10000 Wei/token\n\t\tstartingMultiplier = 50 * MULTIPLIER_DIVISOR;\n\t\tendingMultiplier = 3 * MULTIPLIER_DIVISOR;\n\t\tstartingNetworkTokenBonusMultiplier = 1000000; // 100%\n\t\tendingNetworkTokenBonusMultiplier = 250000; // 25%\n\t}\n\n\t/**\n\t * @dev Checks if this is the Primordial contract\n\t */\n\tmodifier isNetworkExchange {\n\t\trequire (networkExchangeContract == true);\n\t\t_;\n\t}\n\n\t/***** DEVELOPER ONLY METHODS *****/\n\t/**\n\t * @dev Set starting/ending multiplier values that are used to calculate primordial multiplier\n\t * @param _startingMultiplier The new starting multiplier value\n\t * @param _endingMultiplier The new ending multiplier value\n\t */\n\tfunction setStartingEndingMultiplier(uint256 _startingMultiplier, uint256 _endingMultiplier) public onlyDeveloper {\n\t\trequire (_startingMultiplier >= _endingMultiplier);\n\t\tstartingMultiplier = _startingMultiplier;\n\t\tendingMultiplier = _endingMultiplier;\n\t}\n\n\t/**\n\t * @dev Set starting/ending network token bonus multiplier values that are used to calculate network token bonus amount\n\t * @param _startingNetworkTokenBonusMultiplier The new starting network token bonus multiplier value\n\t * @param _endingNetworkTokenBonusMultiplier The new ending network token bonus multiplier value\n\t */\n\tfunction setStartingEndingNetworkTokenBonusMultiplier(uint256 _startingNetworkTokenBonusMultiplier, uint256 _endingNetworkTokenBonusMultiplier) public onlyDeveloper {\n\t\trequire (_startingNetworkTokenBonusMultiplier >= _endingNetworkTokenBonusMultiplier);\n\t\tstartingNetworkTokenBonusMultiplier = _startingNetworkTokenBonusMultiplier;\n\t\tendingNetworkTokenBonusMultiplier = _endingNetworkTokenBonusMultiplier;\n\t}\n\n\t/***** NETWORK TOKEN DEVELOPER ONLY METHODS *****/\n\t/**\n\t * @dev Prevent/Allow target from sending & receiving tokens\n\t * @param target Address to be frozen\n\t * @param freeze Either to freeze it or not\n\t */\n\tfunction freezeAccount(address target, bool freeze) public onlyDeveloper {\n\t\tfrozenAccount[target] = freeze;\n\t\temit FrozenFunds(target, freeze);\n\t}\n\n\t/**\n\t * @dev Allow users to buy tokens for `newBuyPrice` eth and sell tokens for `newSellPrice` eth\n\t * @param newSellPrice Price users can sell to the contract\n\t * @param newBuyPrice Price users can buy from the contract\n\t */\n\tfunction setPrices(uint256 newSellPrice, uint256 newBuyPrice) public onlyDeveloper {\n\t\tsellPrice = newSellPrice;\n\t\tbuyPrice = newBuyPrice;\n\t}\n\n\t/***** NETWORK TOKEN WHITELISTED ADDRESS ONLY METHODS *****/\n\t/**\n\t * @dev Create `mintedAmount` tokens and send it to `target`\n\t * @param target Address to receive the tokens\n\t * @param mintedAmount The amount of tokens it will receive\n\t * @return true on success\n\t */\n\tfunction mintToken(address target, uint256 mintedAmount) public inWhitelist(msg.sender) returns (bool) {\n\t\t_mintToken(target, mintedAmount);\n\t\treturn true;\n\t}\n\n\t/**\n\t * @dev Stake `_value` tokens on behalf of `_from`\n\t * @param _from The address of the target\n\t * @param _value The amount to stake\n\t * @return true on success\n\t */\n\tfunction stakeFrom(address _from, uint256 _value) public inWhitelist(msg.sender) returns (bool) {\n\t\trequire (balanceOf[_from] >= _value);\t\t\t\t\t\t// Check if the targeted balance is enough\n\t\tbalanceOf[_from] = balanceOf[_from].sub(_value);\t\t\t// Subtract from the targeted balance\n\t\tstakedBalance[_from] = stakedBalance[_from].add(_value);\t// Add to the targeted staked balance\n\t\temit Stake(_from, _value);\n\t\treturn true;\n\t}\n\n\t/**\n\t * @dev Unstake `_value` tokens on behalf of `_from`\n\t * @param _from The address of the target\n\t * @param _value The amount to unstake\n\t * @return true on success\n\t */\n\tfunction unstakeFrom(address _from, uint256 _value) public inWhitelist(msg.sender) returns (bool) {\n\t\trequire (stakedBalance[_from] >= _value);\t\t\t\t\t// Check if the targeted staked balance is enough\n\t\tstakedBalance[_from] = stakedBalance[_from].sub(_value);\t// Subtract from the targeted staked balance\n\t\tbalanceOf[_from] = balanceOf[_from].add(_value);\t\t\t// Add to the targeted balance\n\t\temit Unstake(_from, _value);\n\t\treturn true;\n\t}\n\n\t/**\n\t * @dev Store `_value` from `_from` to `_to` in escrow\n\t * @param _from The address of the sender\n\t * @param _to The address of the recipient\n\t * @param _value The amount of network tokens to put in escrow\n\t * @return true on success\n\t */\n\tfunction escrowFrom(address _from, address _to, uint256 _value) public inWhitelist(msg.sender) returns (bool) {\n\t\trequire (balanceOf[_from] >= _value);\t\t\t\t\t\t// Check if the targeted balance is enough\n\t\tbalanceOf[_from] = balanceOf[_from].sub(_value);\t\t\t// Subtract from the targeted balance\n\t\tescrowedBalance[_to] = escrowedBalance[_to].add(_value);\t// Add to the targeted escrowed balance\n\t\temit Escrow(_from, _to, _value);\n\t\treturn true;\n\t}\n\n\t/**\n\t * @dev Create `mintedAmount` tokens and send it to `target` escrow balance\n\t * @param target Address to receive the tokens\n\t * @param mintedAmount The amount of tokens it will receive in escrow\n\t */\n\tfunction mintTokenEscrow(address target, uint256 mintedAmount) public inWhitelist(msg.sender) returns (bool) {\n\t\tescrowedBalance[target] = escrowedBalance[target].add(mintedAmount);\n\t\ttotalSupply = totalSupply.add(mintedAmount);\n\t\temit Escrow(this, target, mintedAmount);\n\t\treturn true;\n\t}\n\n\t/**\n\t * @dev Release escrowed `_value` from `_from`\n\t * @param _from The address of the sender\n\t * @param _value The amount of escrowed network tokens to be released\n\t * @return true on success\n\t */\n\tfunction unescrowFrom(address _from, uint256 _value) public inWhitelist(msg.sender) returns (bool) {\n\t\trequire (escrowedBalance[_from] >= _value);\t\t\t\t\t\t// Check if the targeted escrowed balance is enough\n\t\tescrowedBalance[_from] = escrowedBalance[_from].sub(_value);\t// Subtract from the targeted escrowed balance\n\t\tbalanceOf[_from] = balanceOf[_from].add(_value);\t\t\t\t// Add to the targeted balance\n\t\temit Unescrow(_from, _value);\n\t\treturn true;\n\t}\n\n\t/**\n\t *\n\t * @dev Whitelisted address remove `_value` tokens from the system irreversibly on behalf of `_from`.\n\t *\n\t * @param _from the address of the sender\n\t * @param _value the amount of money to burn\n\t */\n\tfunction whitelistBurnFrom(address _from, uint256 _value) public inWhitelist(msg.sender) returns (bool success) {\n\t\trequire(balanceOf[_from] >= _value);                // Check if the targeted balance is enough\n\t\tbalanceOf[_from] = balanceOf[_from].sub(_value);    // Subtract from the targeted balance\n\t\ttotalSupply = totalSupply.sub(_value);              // Update totalSupply\n\t\temit Burn(_from, _value);\n\t\treturn true;\n\t}\n\n\t/**\n\t * @dev Whitelisted address transfer tokens from other address\n\t *\n\t * Send `_value` tokens to `_to` in behalf of `_from`\n\t *\n\t * @param _from The address of the sender\n\t * @param _to The address of the recipient\n\t * @param _value the amount to send\n\t */\n\tfunction whitelistTransferFrom(address _from, address _to, uint256 _value) public inWhitelist(msg.sender) returns (bool success) {\n\t\t_transfer(_from, _to, _value);\n\t\treturn true;\n\t}\n\n\t/***** PRIMORDIAL TOKEN DEVELOPER ONLY METHODS *****/\n\t/**\n\t * @dev Allow users to buy Primordial tokens for `newBuyPrice` eth and sell Primordial tokens for `newSellPrice` eth\n\t * @param newPrimordialSellPrice Price users can sell to the contract\n\t * @param newPrimordialBuyPrice Price users can buy from the contract\n\t */\n\tfunction setPrimordialPrices(uint256 newPrimordialSellPrice, uint256 newPrimordialBuyPrice) public onlyDeveloper isNetworkExchange {\n\t\tprimordialSellPrice = newPrimordialSellPrice;\n\t\tprimordialBuyPrice = newPrimordialBuyPrice;\n\t}\n\n\t/***** PRIMORDIAL TOKEN WHITELISTED ADDRESS ONLY METHODS *****/\n\t/**\n\t * @dev Stake `_value` Primordial tokens at `_weightedMultiplier ` multiplier on behalf of `_from`\n\t * @param _from The address of the target\n\t * @param _value The amount of Primordial tokens to stake\n\t * @param _weightedMultiplier The weighted multiplier of the Primordial tokens\n\t * @return true on success\n\t */\n\tfunction stakePrimordialTokenFrom(address _from, uint256 _value, uint256 _weightedMultiplier) public inWhitelist(msg.sender) isNetworkExchange returns (bool) {\n\t\t// Check if the targeted balance is enough\n\t\trequire (primordialBalanceOf[_from] >= _value);\n\t\t// Make sure the weighted multiplier is the same as account's current weighted multiplier\n\t\trequire (_weightedMultiplier == ownerWeightedMultiplier[_from]);\n\t\t// Subtract from the targeted balance\n\t\tprimordialBalanceOf[_from] = primordialBalanceOf[_from].sub(_value);\n\t\t// Add to the targeted staked balance\n\t\tprimordialStakedBalance[_from][_weightedMultiplier] = primordialStakedBalance[_from][_weightedMultiplier].add(_value);\n\t\temit PrimordialStake(_from, _value, _weightedMultiplier);\n\t\treturn true;\n\t}\n\n\t/**\n\t * @dev Unstake `_value` Primordial tokens at `_weightedMultiplier` on behalf of `_from`\n\t * @param _from The address of the target\n\t * @param _value The amount to unstake\n\t * @param _weightedMultiplier The weighted multiplier of the Primordial tokens\n\t * @return true on success\n\t */\n\tfunction unstakePrimordialTokenFrom(address _from, uint256 _value, uint256 _weightedMultiplier) public inWhitelist(msg.sender) isNetworkExchange returns (bool) {\n\t\t// Check if the targeted staked balance is enough\n\t\trequire (primordialStakedBalance[_from][_weightedMultiplier] >= _value);\n\t\t// Subtract from the targeted staked balance\n\t\tprimordialStakedBalance[_from][_weightedMultiplier] = primordialStakedBalance[_from][_weightedMultiplier].sub(_value);\n\t\t// Add to the targeted balance\n\t\tprimordialBalanceOf[_from] = primordialBalanceOf[_from].add(_value);\n\t\temit PrimordialUnstake(_from, _value, _weightedMultiplier);\n\t\treturn true;\n\t}\n\n\t/***** PUBLIC METHODS *****/\n\t/***** NETWORK TOKEN PUBLIC METHODS *****/\n\t/**\n\t * @dev Buy tokens from contract by sending ether\n\t */\n\tfunction buy() public payable {\n\t\trequire (buyPrice > 0);\n\t\tuint256 amount = msg.value.div(buyPrice);\n\t\t_transfer(this, msg.sender, amount);\n\t}\n\n\t/**\n\t * @dev Sell `amount` tokens to contract\n\t * @param amount The amount of tokens to be sold\n\t */\n\tfunction sell(uint256 amount) public {\n\t\trequire (sellPrice > 0);\n\t\taddress myAddress = this;\n\t\trequire (myAddress.balance >= amount.mul(sellPrice));\n\t\t_transfer(msg.sender, this, amount);\n\t\tmsg.sender.transfer(amount.mul(sellPrice));\n\t}\n\n\t/***** Primordial TOKEN PUBLIC METHODS *****/\n\t/**\n\t * @dev Buy Primordial tokens from contract by sending ether\n\t */\n\tfunction buyPrimordialToken() public payable isNetworkExchange {\n\t\trequire (networkExchangeEnded == false);\n\t\trequire (primordialTotalBought < TOTAL_PRIMORDIAL_FOR_SALE);\n\t\trequire (primordialBuyPrice > 0);\n\t\trequire (msg.value > 0);\n\n\t\t// Calculate the amount of tokens\n\t\tuint256 tokenAmount = msg.value.div(primordialBuyPrice);\n\n\t\t// If we need to return ETH to the buyer, in the case\n\t\t// where the buyer sends more ETH than available primordial token to be purchased\n\t\tuint256 remainderEth = 0;\n\n\t\t// Make sure primordialTotalBought is not overflowing\n\t\tif (primordialTotalBought.add(tokenAmount) >= TOTAL_PRIMORDIAL_FOR_SALE) {\n\t\t\ttokenAmount = TOTAL_PRIMORDIAL_FOR_SALE.sub(primordialTotalBought);\n\t\t\tnetworkExchangeEnded = true;\n\t\t\tremainderEth = msg.value.sub(tokenAmount.mul(primordialBuyPrice));\n\t\t}\n\t\trequire (tokenAmount > 0);\n\n\t\t// Update primordialTotalBought\n\t\t(uint256 multiplier, uint256 networkTokenBonusPercentage, uint256 networkTokenBonusAmount) = calculateMultiplierAndBonus(tokenAmount);\n\t\tprimordialTotalBought = primordialTotalBought.add(tokenAmount);\n\t\t_createPrimordialLot(msg.sender, tokenAmount, multiplier, networkTokenBonusAmount);\n\n\t\t// Calculate Foundation and AO Dev Team's portion of Primordial and Network Token Bonus\n\t\tuint256 inverseMultiplier = startingMultiplier.sub(multiplier); // Inverse of the buyer's multiplier\n\t\tuint256 foundationNetworkTokenBonusAmount = (startingNetworkTokenBonusMultiplier.sub(networkTokenBonusPercentage).add(endingNetworkTokenBonusMultiplier)).mul(tokenAmount).div(PERCENTAGE_DIVISOR);\n\t\tif (aoDevTeam1 != address(0)) {\n\t\t\t_createPrimordialLot(aoDevTeam1, tokenAmount.div(2), inverseMultiplier, foundationNetworkTokenBonusAmount.div(2));\n\t\t}\n\t\tif (aoDevTeam2 != address(0)) {\n\t\t\t_createPrimordialLot(aoDevTeam2, tokenAmount.div(2), inverseMultiplier, foundationNetworkTokenBonusAmount.div(2));\n\t\t}\n\t\t_mintToken(developer, foundationNetworkTokenBonusAmount);\n\n\t\t// Send remainder ETH back to buyer if exist\n\t\tif (remainderEth > 0) {\n\t\t\tmsg.sender.transfer(remainderEth);\n\t\t}\n\t}\n\n\t/**\n\t * @dev Send `_value` Primordial tokens to `_to` from your account\n\t * @param _to The address of the recipient\n\t * @param _value The amount to send\n\t * @return true on success\n\t */\n\tfunction transferPrimordialToken(address _to, uint256 _value) public isNetworkExchange returns (bool success) {\n\t\tbytes32 _createdLotId = _createWeightedMultiplierLot(_to, _value, ownerWeightedMultiplier[msg.sender]);\n\t\tLot memory _lot = lots[_createdLotId];\n\n\t\t// Make sure the new lot is created successfully\n\t\trequire (_lot.lotOwner == _to);\n\n\t\t// Update the weighted multiplier of the recipient\n\t\townerWeightedMultiplier[_to] = AOLibrary.calculateWeightedMultiplier(ownerWeightedMultiplier[_to], primordialBalanceOf[_to], ownerWeightedMultiplier[msg.sender], _value);\n\n\t\t// Transfer the Primordial tokens\n\t\trequire (_transferPrimordialToken(msg.sender, _to, _value));\n\t\temit LotCreation(_lot.lotOwner, _lot.lotId, _lot.multiplier, _lot.tokenAmount, 0);\n\t\treturn true;\n\t}\n\n\t/**\n\t * @dev Send `_value` Primordial tokens to `_to` from `_from`\n\t * @param _from The address of the sender\n\t * @param _to The address of the recipient\n\t * @param _value The amount to send\n\t * @return true on success\n\t */\n\tfunction transferPrimordialTokenFrom(address _from, address _to, uint256 _value) public isNetworkExchange returns (bool success) {\n\t\trequire (_value <= primordialAllowance[_from][msg.sender]);\n\t\tprimordialAllowance[_from][msg.sender] = primordialAllowance[_from][msg.sender].sub(_value);\n\n\t\tbytes32 _createdLotId = _createWeightedMultiplierLot(_to, _value, ownerWeightedMultiplier[_from]);\n\t\tLot memory _lot = lots[_createdLotId];\n\n\t\t// Make sure the new lot is created successfully\n\t\trequire (_lot.lotOwner == _to);\n\n\t\t// Update the weighted multiplier of the recipient\n\t\townerWeightedMultiplier[_to] = AOLibrary.calculateWeightedMultiplier(ownerWeightedMultiplier[_to], primordialBalanceOf[_to], ownerWeightedMultiplier[_from], _value);\n\n\t\t// Transfer the Primordial tokens\n\t\trequire (_transferPrimordialToken(_from, _to, _value));\n\t\temit LotCreation(_lot.lotOwner, _lot.lotId, _lot.multiplier, _lot.tokenAmount, 0);\n\t\treturn true;\n\t}\n\n\t/**\n\t * @dev Allows `_spender` to spend no more than `_value` Primordial tokens in your behalf\n\t * @param _spender The address authorized to spend\n\t * @param _value The max amount they can spend\n\t * @return true on success\n\t */\n\tfunction approvePrimordialToken(address _spender, uint256 _value) public isNetworkExchange returns (bool success) {\n\t\tprimordialAllowance[msg.sender][_spender] = _value;\n\t\temit PrimordialApproval(msg.sender, _spender, _value);\n\t\treturn true;\n\t}\n\n\t/**\n\t * @dev Allows `_spender` to spend no more than `_value` Primordial tokens in your behalf, and then ping the contract about it\n\t * @param _spender The address authorized to spend\n\t * @param _value The max amount they can spend\n\t * @param _extraData some extra information to send to the approved contract\n\t * @return true on success\n\t */\n\tfunction approvePrimordialTokenAndCall(address _spender, uint256 _value, bytes _extraData) public isNetworkExchange returns (bool success) {\n\t\ttokenRecipient spender = tokenRecipient(_spender);\n\t\tif (approvePrimordialToken(_spender, _value)) {\n\t\t\tspender.receiveApproval(msg.sender, _value, this, _extraData);\n\t\t\treturn true;\n\t\t}\n\t}\n\n\t/**\n\t * @dev Remove `_value` Primordial tokens from the system irreversibly\n\t *\t\tand re-weight the account's multiplier after burn\n\t * @param _value The amount to burn\n\t * @return true on success\n\t */\n\tfunction burnPrimordialToken(uint256 _value) public isNetworkExchange returns (bool success) {\n\t\trequire (primordialBalanceOf[msg.sender] >= _value);\n\t\trequire (calculateMaximumBurnAmount(msg.sender) >= _value);\n\n\t\t// Update the account's multiplier\n\t\townerWeightedMultiplier[msg.sender] = calculateMultiplierAfterBurn(msg.sender, _value);\n\t\tprimordialBalanceOf[msg.sender] = primordialBalanceOf[msg.sender].sub(_value);\n\t\tprimordialTotalSupply = primordialTotalSupply.sub(_value);\n\n\t\t// Store burn lot info\n\t\t_createBurnLot(msg.sender, _value);\n\t\temit PrimordialBurn(msg.sender, _value);\n\t\treturn true;\n\t}\n\n\t/**\n\t * @dev Remove `_value` Primordial tokens from the system irreversibly on behalf of `_from`\n\t *\t\tand re-weight `_from`'s multiplier after burn\n\t * @param _from The address of sender\n\t * @param _value The amount to burn\n\t * @return true on success\n\t */\n\tfunction burnPrimordialTokenFrom(address _from, uint256 _value) public isNetworkExchange returns (bool success) {\n\t\trequire (primordialBalanceOf[_from] >= _value);\n\t\trequire (primordialAllowance[_from][msg.sender] >= _value);\n\t\trequire (calculateMaximumBurnAmount(_from) >= _value);\n\n\t\t// Update `_from`'s multiplier\n\t\townerWeightedMultiplier[_from] = calculateMultiplierAfterBurn(_from, _value);\n\t\tprimordialBalanceOf[_from] = primordialBalanceOf[_from].sub(_value);\n\t\tprimordialAllowance[_from][msg.sender] = primordialAllowance[_from][msg.sender].sub(_value);\n\t\tprimordialTotalSupply = primordialTotalSupply.sub(_value);\n\n\t\t// Store burn lot info\n\t\t_createBurnLot(_from, _value);\n\t\temit PrimordialBurn(_from, _value);\n\t\treturn true;\n\t}\n\n\t/**\n\t * @dev Return all lot IDs owned by an address\n\t * @param _lotOwner The address of the lot owner\n\t * @return array of lot IDs\n\t */\n\tfunction lotIdsByAddress(address _lotOwner) public isNetworkExchange view returns (bytes32[]) {\n\t\treturn ownedLots[_lotOwner];\n\t}\n\n\t/**\n\t * @dev Return the total lots owned by an address\n\t * @param _lotOwner The address of the lot owner\n\t * @return total lots owner by the address\n\t */\n\tfunction totalLotsByAddress(address _lotOwner) public isNetworkExchange view returns (uint256) {\n\t\treturn ownedLots[_lotOwner].length;\n\t}\n\n\t/**\n\t * @dev Return the lot information at a given index of the lots list of the requested owner\n\t * @param _lotOwner The address owning the lots list to be accessed\n\t * @param _index uint256 representing the index to be accessed of the requested lots list\n\t * @return id of the lot\n\t * @return The address of the lot owner\n\t * @return multiplier of the lot in (10 ** 6)\n\t * @return Primordial token amount in the lot\n\t */\n\tfunction lotOfOwnerByIndex(address _lotOwner, uint256 _index) public isNetworkExchange view returns (bytes32, address, uint256, uint256) {\n\t\trequire (_index < ownedLots[_lotOwner].length);\n\t\tLot memory _lot = lots[ownedLots[_lotOwner][_index]];\n\t\treturn (_lot.lotId, _lot.lotOwner, _lot.multiplier, _lot.tokenAmount);\n\t}\n\n\t/**\n\t * @dev Return the lot information at a given ID\n\t * @param _lotId The lot ID in question\n\t * @return id of the lot\n\t * @return The lot owner address\n\t * @return multiplier of the lot in (10 ** 6)\n\t * @return Primordial token amount in the lot\n\t */\n\tfunction lotById(bytes32 _lotId) public isNetworkExchange view returns (bytes32, address, uint256, uint256) {\n\t\tLot memory _lot = lots[_lotId];\n\t\treturn (_lot.lotId, _lot.lotOwner, _lot.multiplier, _lot.tokenAmount);\n\t}\n\n\t/**\n\t * @dev Return all Burn Lot IDs owned by an address\n\t * @param _lotOwner The address of the burn lot owner\n\t * @return array of Burn Lot IDs\n\t */\n\tfunction burnLotIdsByAddress(address _lotOwner) public isNetworkExchange view returns (bytes32[]) {\n\t\treturn ownedBurnLots[_lotOwner];\n\t}\n\n\t/**\n\t * @dev Return the total burn lots owned by an address\n\t * @param _lotOwner The address of the burn lot owner\n\t * @return total burn lots owner by the address\n\t */\n\tfunction totalBurnLotsByAddress(address _lotOwner) public isNetworkExchange view returns (uint256) {\n\t\treturn ownedBurnLots[_lotOwner].length;\n\t}\n\n\t/**\n\t * @dev Return the burn lot information at a given ID\n\t * @param _burnLotId The burn lot ID in question\n\t * @return id of the lot\n\t * @return The address of the burn lot owner\n\t * @return Primordial token amount in the burn lot\n\t */\n\tfunction burnLotById(bytes32 _burnLotId) public isNetworkExchange view returns (bytes32, address, uint256) {\n\t\tBurnLot memory _burnLot = burnLots[_burnLotId];\n\t\treturn (_burnLot.burnLotId, _burnLot.lotOwner, _burnLot.tokenAmount);\n\t}\n\n\t/**\n\t * @dev Return all Convert Lot IDs owned by an address\n\t * @param _lotOwner The address of the convert lot owner\n\t * @return array of Convert Lot IDs\n\t */\n\tfunction convertLotIdsByAddress(address _lotOwner) public isNetworkExchange view returns (bytes32[]) {\n\t\treturn ownedConvertLots[_lotOwner];\n\t}\n\n\t/**\n\t * @dev Return the total convert lots owned by an address\n\t * @param _lotOwner The address of the convert lot owner\n\t * @return total convert lots owner by the address\n\t */\n\tfunction totalConvertLotsByAddress(address _lotOwner) public isNetworkExchange view returns (uint256) {\n\t\treturn ownedConvertLots[_lotOwner].length;\n\t}\n\n\t/**\n\t * @dev Return the convert lot information at a given ID\n\t * @param _convertLotId The convert lot ID in question\n\t * @return id of the lot\n\t * @return The address of the convert lot owner\n\t * @return Primordial token amount in the convert lot\n\t */\n\tfunction convertLotById(bytes32 _convertLotId) public isNetworkExchange view returns (bytes32, address, uint256) {\n\t\tConvertLot memory _convertLot = convertLots[_convertLotId];\n\t\treturn (_convertLot.convertLotId, _convertLot.lotOwner, _convertLot.tokenAmount);\n\t}\n\n\t/**\n\t * @dev Return the average weighted multiplier of all lots owned by an address\n\t * @param _lotOwner The address of the lot owner\n\t * @return the weighted multiplier of the address (in 10 ** 6)\n\t */\n\tfunction weightedMultiplierByAddress(address _lotOwner) public isNetworkExchange view returns (uint256) {\n\t\treturn ownerWeightedMultiplier[_lotOwner];\n\t}\n\n\t/**\n\t * @dev Return the max multiplier of an address\n\t * @param _target The address to query\n\t * @return the max multiplier of the address (in 10 ** 6)\n\t */\n\tfunction maxMultiplierByAddress(address _target) public isNetworkExchange view returns (uint256) {\n\t\treturn (ownedLots[_target].length > 0) ? ownerMaxMultiplier[_target] : 0;\n\t}\n\n\t/**\n\t * @dev Calculate the primordial token multiplier, bonus network token percentage, and the\n\t *\t\tbonus network token amount on a given lot when someone purchases primordial token\n\t *\t\tduring network exchange\n\t * @param _purchaseAmount The amount of primordial token intended to be purchased\n\t * @return The multiplier in (10 ** 6)\n\t * @return The bonus percentage\n\t * @return The amount of network token as bonus\n\t */\n\tfunction calculateMultiplierAndBonus(uint256 _purchaseAmount) public isNetworkExchange view returns (uint256, uint256, uint256) {\n\t\treturn (\n\t\t\tAOLibrary.calculatePrimordialMultiplier(_purchaseAmount, TOTAL_PRIMORDIAL_FOR_SALE, primordialTotalBought, startingMultiplier, endingMultiplier),\n\t\t\tAOLibrary.calculateNetworkTokenBonusPercentage(_purchaseAmount, TOTAL_PRIMORDIAL_FOR_SALE, primordialTotalBought, startingNetworkTokenBonusMultiplier, endingNetworkTokenBonusMultiplier),\n\t\t\tAOLibrary.calculateNetworkTokenBonusAmount(_purchaseAmount, TOTAL_PRIMORDIAL_FOR_SALE, primordialTotalBought, startingNetworkTokenBonusMultiplier, endingNetworkTokenBonusMultiplier)\n\t\t);\n\t}\n\n\t/**\n\t * @dev Calculate the maximum amount of Primordial an account can burn\n\t * @param _account The address of the account\n\t * @return The maximum primordial token amount to burn\n\t */\n\tfunction calculateMaximumBurnAmount(address _account) public isNetworkExchange view returns (uint256) {\n\t\treturn AOLibrary.calculateMaximumBurnAmount(primordialBalanceOf[_account], ownerWeightedMultiplier[_account], ownerMaxMultiplier[_account]);\n\t}\n\n\t/**\n\t * @dev Calculate account's new multiplier after burn `_amountToBurn` primordial tokens\n\t * @param _account The address of the account\n\t * @param _amountToBurn The amount of primordial token to burn\n\t * @return The new multiplier in (10 ** 6)\n\t */\n\tfunction calculateMultiplierAfterBurn(address _account, uint256 _amountToBurn) public isNetworkExchange view returns (uint256) {\n\t\trequire (calculateMaximumBurnAmount(_account) >= _amountToBurn);\n\t\treturn AOLibrary.calculateMultiplierAfterBurn(primordialBalanceOf[_account], ownerWeightedMultiplier[_account], _amountToBurn);\n\t}\n\n\t/**\n\t * @dev Calculate account's new multiplier after converting `amountToConvert` network token to primordial token\n\t * @param _account The address of the account\n\t * @param _amountToConvert The amount of network token to convert\n\t * @return The new multiplier in (10 ** 6)\n\t */\n\tfunction calculateMultiplierAfterConversion(address _account, uint256 _amountToConvert) public isNetworkExchange view returns (uint256) {\n\t\treturn AOLibrary.calculateMultiplierAfterConversion(primordialBalanceOf[_account], ownerWeightedMultiplier[_account], _amountToConvert);\n\t}\n\n\t/**\n\t * @dev Convert `_value` of network tokens to primordial tokens\n\t *\t\tand re-weight the account's multiplier after conversion\n\t * @param _value The amount to convert\n\t * @return true on success\n\t */\n\tfunction convertToPrimordial(uint256 _value) public isNetworkExchange returns (bool success) {\n\t\trequire (balanceOf[msg.sender] >= _value);\n\n\t\t// Update the account's multiplier\n\t\townerWeightedMultiplier[msg.sender] = calculateMultiplierAfterConversion(msg.sender, _value);\n\t\t// Burn network token\n\t\tburn(_value);\n\t\t// mint primordial token\n\t\t_mintPrimordialToken(msg.sender, _value);\n\n\t\t// Store convert lot info\n\t\ttotalConvertLots++;\n\n\t\t// Generate convert lot Id\n\t\tbytes32 convertLotId = keccak256(abi.encodePacked(this, msg.sender, totalConvertLots));\n\n\t\t// Make sure no one owns this lot yet\n\t\trequire (convertLots[convertLotId].lotOwner == address(0));\n\n\t\tConvertLot storage convertLot = convertLots[convertLotId];\n\t\tconvertLot.convertLotId = convertLotId;\n\t\tconvertLot.lotOwner = msg.sender;\n\t\tconvertLot.tokenAmount = _value;\n\t\townedConvertLots[msg.sender].push(convertLotId);\n\t\temit ConvertLotCreation(convertLot.lotOwner, convertLot.convertLotId, convertLot.tokenAmount, ownerWeightedMultiplier[convertLot.lotOwner]);\n\t\treturn true;\n\t}\n\n\t/***** NETWORK TOKEN & PRIMORDIAL TOKEN METHODS *****/\n\t/**\n\t * @dev Send `_value` network tokens and `_primordialValue` primordial tokens to `_to` from your account\n\t * @param _to The address of the recipient\n\t * @param _value The amount of network tokens to send\n\t * @param _primordialValue The amount of Primordial tokens to send\n\t * @return true on success\n\t */\n\tfunction transferTokens(address _to, uint256 _value, uint256 _primordialValue) public isNetworkExchange returns (bool success) {\n\t\trequire (super.transfer(_to, _value));\n\t\trequire (transferPrimordialToken(_to, _primordialValue));\n\t\treturn true;\n\t}\n\n\t/**\n\t * @dev Send `_value` network tokens and `_primordialValue` primordial tokens to `_to` from `_from`\n\t * @param _from The address of the sender\n\t * @param _to The address of the recipient\n\t * @param _value The amount of network tokens tokens to send\n\t * @param _primordialValue The amount of Primordial tokens to send\n\t * @return true on success\n\t */\n\tfunction transferTokensFrom(address _from, address _to, uint256 _value, uint256 _primordialValue) public isNetworkExchange returns (bool success) {\n\t\trequire (super.transferFrom(_from, _to, _value));\n\t\trequire (transferPrimordialTokenFrom(_from, _to, _primordialValue));\n\t\treturn true;\n\t}\n\n\t/**\n\t * @dev Allows `_spender` to spend no more than `_value` network tokens and `_primordialValue` Primordial tokens in your behalf\n\t * @param _spender The address authorized to spend\n\t * @param _value The max amount of network tokens they can spend\n\t * @param _primordialValue The max amount of network tokens they can spend\n\t * @return true on success\n\t */\n\tfunction approveTokens(address _spender, uint256 _value, uint256 _primordialValue) public isNetworkExchange returns (bool success) {\n\t\trequire (super.approve(_spender, _value));\n\t\trequire (approvePrimordialToken(_spender, _primordialValue));\n\t\treturn true;\n\t}\n\n\t/**\n\t * @dev Allows `_spender` to spend no more than `_value` network tokens and `_primordialValue` Primordial tokens in your behalf, and then ping the contract about it\n\t * @param _spender The address authorized to spend\n\t * @param _value The max amount of network tokens they can spend\n\t * @param _primordialValue The max amount of Primordial Tokens they can spend\n\t * @param _extraData some extra information to send to the approved contract\n\t * @return true on success\n\t */\n\tfunction approveTokensAndCall(address _spender, uint256 _value, uint256 _primordialValue, bytes _extraData) public isNetworkExchange returns (bool success) {\n\t\trequire (super.approveAndCall(_spender, _value, _extraData));\n\t\trequire (approvePrimordialTokenAndCall(_spender, _primordialValue, _extraData));\n\t\treturn true;\n\t}\n\n\t/**\n\t * @dev Remove `_value` network tokens and `_primordialValue` Primordial tokens from the system irreversibly\n\t * @param _value The amount of network tokens to burn\n\t * @param _primordialValue The amount of Primordial tokens to burn\n\t * @return true on success\n\t */\n\tfunction burnTokens(uint256 _value, uint256 _primordialValue) public isNetworkExchange returns (bool success) {\n\t\trequire (super.burn(_value));\n\t\trequire (burnPrimordialToken(_primordialValue));\n\t\treturn true;\n\t}\n\n\t/**\n\t * @dev Remove `_value` network tokens and `_primordialValue` Primordial tokens from the system irreversibly on behalf of `_from`\n\t * @param _from The address of sender\n\t * @param _value The amount of network tokens to burn\n\t * @param _primordialValue The amount of Primordial tokens to burn\n\t * @return true on success\n\t */\n\tfunction burnTokensFrom(address _from, uint256 _value, uint256 _primordialValue) public isNetworkExchange returns (bool success) {\n\t\trequire (super.burnFrom(_from, _value));\n\t\trequire (burnPrimordialTokenFrom(_from, _primordialValue));\n\t\treturn true;\n\t}\n\n\t/***** INTERNAL METHODS *****/\n\t/***** NETWORK TOKENS INTERNAL METHODS *****/\n\t/**\n\t * @dev Send `_value` tokens from `_from` to `_to`\n\t * @param _from The address of sender\n\t * @param _to The address of the recipient\n\t * @param _value The amount to send\n\t */\n\tfunction _transfer(address _from, address _to, uint256 _value) internal {\n\t\trequire (_to != address(0));\t\t\t\t\t\t\t// Prevent transfer to 0x0 address. Use burn() instead\n\t\trequire (balanceOf[_from] >= _value);\t\t\t\t\t// Check if the sender has enough\n\t\trequire (balanceOf[_to].add(_value) >= balanceOf[_to]); // Check for overflows\n\t\trequire (!frozenAccount[_from]);\t\t\t\t\t\t// Check if sender is frozen\n\t\trequire (!frozenAccount[_to]);\t\t\t\t\t\t\t// Check if recipient is frozen\n\t\tuint256 previousBalances = balanceOf[_from].add(balanceOf[_to]);\n\t\tbalanceOf[_from] = balanceOf[_from].sub(_value);        // Subtract from the sender\n\t\tbalanceOf[_to] = balanceOf[_to].add(_value);            // Add the same to the recipient\n\t\temit Transfer(_from, _to, _value);\n\t\tassert(balanceOf[_from].add(balanceOf[_to]) == previousBalances);\n\t}\n\n\t/**\n\t * @dev Create `mintedAmount` tokens and send it to `target`\n\t * @param target Address to receive the tokens\n\t * @param mintedAmount The amount of tokens it will receive\n\t */\n\tfunction _mintToken(address target, uint256 mintedAmount) internal {\n\t\tbalanceOf[target] = balanceOf[target].add(mintedAmount);\n\t\ttotalSupply = totalSupply.add(mintedAmount);\n\t\temit Transfer(0, this, mintedAmount);\n\t\temit Transfer(this, target, mintedAmount);\n\t}\n\n\t/***** PRIMORDIAL TOKEN INTERNAL METHODS *****/\n\t/**\n\t * @dev Create a lot with `primordialTokenAmount` of primordial tokens with `_multiplier` for an `account`\n\t *\t\tduring network exchange, and reward `_networkTokenBonusAmount` if exist\n\t * @param _account Address of the lot owner\n\t * @param _primordialTokenAmount The amount of primordial tokens to be stored in the lot\n\t * @param _multiplier The multiplier for this lot in (10 ** 6)\n\t * @param _networkTokenBonusAmount The network token bonus amount\n\t */\n\tfunction _createPrimordialLot(address _account, uint256 _primordialTokenAmount, uint256 _multiplier, uint256 _networkTokenBonusAmount) internal {\n\t\ttotalLots++;\n\n\t\t// Generate lotId\n\t\tbytes32 lotId = keccak256(abi.encodePacked(this, _account, totalLots));\n\n\t\t// Make sure no one owns this lot yet\n\t\trequire (lots[lotId].lotOwner == address(0));\n\n\t\tLot storage lot = lots[lotId];\n\t\tlot.lotId = lotId;\n\t\tlot.multiplier = _multiplier;\n\t\tlot.lotOwner = _account;\n\t\tlot.tokenAmount = _primordialTokenAmount;\n\t\townedLots[_account].push(lotId);\n\t\townerWeightedMultiplier[_account] = AOLibrary.calculateWeightedMultiplier(ownerWeightedMultiplier[_account], primordialBalanceOf[_account], lot.multiplier, lot.tokenAmount);\n\t\t// If this is the first lot, set this as the max multiplier of the account\n\t\tif (ownedLots[_account].length == 1) {\n\t\t\townerMaxMultiplier[_account] = lot.multiplier;\n\t\t}\n\t\t_mintPrimordialToken(_account, lot.tokenAmount);\n\t\t_mintToken(_account, _networkTokenBonusAmount);\n\n\t\temit LotCreation(lot.lotOwner, lot.lotId, lot.multiplier, lot.tokenAmount, _networkTokenBonusAmount);\n\t}\n\n\t/**\n\t * @dev Create `mintedAmount` Primordial tokens and send it to `target`\n\t * @param target Address to receive the Primordial tokens\n\t * @param mintedAmount The amount of Primordial tokens it will receive\n\t */\n\tfunction _mintPrimordialToken(address target, uint256 mintedAmount) internal {\n\t\tprimordialBalanceOf[target] = primordialBalanceOf[target].add(mintedAmount);\n\t\tprimordialTotalSupply = primordialTotalSupply.add(mintedAmount);\n\t\temit PrimordialTransfer(0, this, mintedAmount);\n\t\temit PrimordialTransfer(this, target, mintedAmount);\n\t}\n\n\t/**\n\t * @dev Create a lot with `tokenAmount` of tokens at `weightedMultiplier` for an `account`\n\t * @param _account Address of lot owner\n\t * @param _tokenAmount The amount of tokens\n\t * @param _weightedMultiplier The multiplier of the lot (in 10^6)\n\t * @return bytes32 of new created lot ID\n\t */\n\tfunction _createWeightedMultiplierLot(address _account, uint256 _tokenAmount, uint256 _weightedMultiplier) internal returns (bytes32) {\n\t\trequire (_account != address(0));\n\t\trequire (_tokenAmount > 0);\n\n\t\ttotalLots++;\n\n\t\t// Generate lotId\n\t\tbytes32 lotId = keccak256(abi.encodePacked(this, _account, totalLots));\n\n\t\t// Make sure no one owns this lot yet\n\t\trequire (lots[lotId].lotOwner == address(0));\n\n\t\tLot storage lot = lots[lotId];\n\t\tlot.lotId = lotId;\n\t\tlot.multiplier = _weightedMultiplier;\n\t\tlot.lotOwner = _account;\n\t\tlot.tokenAmount = _tokenAmount;\n\t\townedLots[_account].push(lotId);\n\t\t// If this is the first lot, set this as the max multiplier of the account\n\t\tif (ownedLots[_account].length == 1) {\n\t\t\townerMaxMultiplier[_account] = lot.multiplier;\n\t\t}\n\t\treturn lotId;\n\t}\n\n\t/**\n\t * @dev Send `_value` Primordial tokens from `_from` to `_to`\n\t * @param _from The address of sender\n\t * @param _to The address of the recipient\n\t * @param _value The amount to send\n\t */\n\tfunction _transferPrimordialToken(address _from, address _to, uint256 _value) internal returns (bool) {\n\t\trequire (_to != address(0));\t\t\t\t\t\t\t\t\t// Prevent transfer to 0x0 address. Use burn() instead\n\t\trequire (primordialBalanceOf[_from] >= _value);\t\t\t\t\t\t// Check if the sender has enough\n\t\trequire (primordialBalanceOf[_to].add(_value) >= primordialBalanceOf[_to]);\t// Check for overflows\n\t\trequire (!frozenAccount[_from]);\t\t\t\t\t\t\t\t// Check if sender is frozen\n\t\trequire (!frozenAccount[_to]);\t\t\t\t\t\t\t\t\t// Check if recipient is frozen\n\t\tuint256 previousBalances = primordialBalanceOf[_from].add(primordialBalanceOf[_to]);\n\t\tprimordialBalanceOf[_from] = primordialBalanceOf[_from].sub(_value);\t\t\t// Subtract from the sender\n\t\tprimordialBalanceOf[_to] = primordialBalanceOf[_to].add(_value);\t\t\t\t// Add the same to the recipient\n\t\temit PrimordialTransfer(_from, _to, _value);\n\t\tassert(primordialBalanceOf[_from].add(primordialBalanceOf[_to]) == previousBalances);\n\t\treturn true;\n\t}\n\n\t/**\n\t * @dev Store burn lot information\n\t * @param _account The address of the account\n\t * @param _tokenAmount The amount of primordial tokens to burn\n\t */\n\tfunction _createBurnLot(address _account, uint256 _tokenAmount) internal {\n\t\ttotalBurnLots++;\n\n\t\t// Generate burn lot Id\n\t\tbytes32 burnLotId = keccak256(abi.encodePacked(this, _account, totalBurnLots));\n\n\t\t// Make sure no one owns this lot yet\n\t\trequire (burnLots[burnLotId].lotOwner == address(0));\n\n\t\tBurnLot storage burnLot = burnLots[burnLotId];\n\t\tburnLot.burnLotId = burnLotId;\n\t\tburnLot.lotOwner = _account;\n\t\tburnLot.tokenAmount = _tokenAmount;\n\t\townedBurnLots[_account].push(burnLotId);\n\t\temit BurnLotCreation(burnLot.lotOwner, burnLot.burnLotId, burnLot.tokenAmount, ownerWeightedMultiplier[burnLot.lotOwner]);\n\t}\n}\n",
	"sourcePath": "/home/jmulyono/ao-contracts/contracts/AOToken.sol",
	"compiler": {
		"name": "solc",
		"version": "0.4.24+commit.e67f0147.Emscripten.clang"
	},
	"schemaVersion": "2.0.1",
	"updatedAt": "2018-10-22T05:46:06.346Z"
}