{
	"contractName": "AOToken",
	"abi": [
		{
			"constant": true,
			"inputs": [],
			"name": "name",
			"outputs": [
				{
					"name": "",
					"type": "string"
				}
			],
			"payable": false,
			"stateMutability": "view",
			"type": "function"
		},
		{
			"constant": false,
			"inputs": [
				{
					"name": "_spender",
					"type": "address"
				},
				{
					"name": "_value",
					"type": "uint256"
				}
			],
			"name": "approve",
			"outputs": [
				{
					"name": "success",
					"type": "bool"
				}
			],
			"payable": false,
			"stateMutability": "nonpayable",
			"type": "function"
		},
		{
			"constant": true,
			"inputs": [],
			"name": "powerOfTen",
			"outputs": [
				{
					"name": "",
					"type": "uint256"
				}
			],
			"payable": false,
			"stateMutability": "view",
			"type": "function"
		},
		{
			"constant": true,
			"inputs": [
				{
					"name": "",
					"type": "address"
				},
				{
					"name": "",
					"type": "uint256"
				}
			],
			"name": "primordialStakedBalance",
			"outputs": [
				{
					"name": "",
					"type": "uint256"
				}
			],
			"payable": false,
			"stateMutability": "view",
			"type": "function"
		},
		{
			"constant": true,
			"inputs": [],
			"name": "totalSupply",
			"outputs": [
				{
					"name": "",
					"type": "uint256"
				}
			],
			"payable": false,
			"stateMutability": "view",
			"type": "function"
		},
		{
			"constant": false,
			"inputs": [
				{
					"name": "_from",
					"type": "address"
				},
				{
					"name": "_to",
					"type": "address"
				},
				{
					"name": "_value",
					"type": "uint256"
				}
			],
			"name": "transferFrom",
			"outputs": [
				{
					"name": "success",
					"type": "bool"
				}
			],
			"payable": false,
			"stateMutability": "nonpayable",
			"type": "function"
		},
		{
			"constant": true,
			"inputs": [],
			"name": "primordialSellPrice",
			"outputs": [
				{
					"name": "",
					"type": "uint256"
				}
			],
			"payable": false,
			"stateMutability": "view",
			"type": "function"
		},
		{
			"constant": true,
			"inputs": [],
			"name": "decimals",
			"outputs": [
				{
					"name": "",
					"type": "uint8"
				}
			],
			"payable": false,
			"stateMutability": "view",
			"type": "function"
		},
		{
			"constant": true,
			"inputs": [],
			"name": "totalLots",
			"outputs": [
				{
					"name": "",
					"type": "uint256"
				}
			],
			"payable": false,
			"stateMutability": "view",
			"type": "function"
		},
		{
			"constant": false,
			"inputs": [
				{
					"name": "_value",
					"type": "uint256"
				}
			],
			"name": "burn",
			"outputs": [
				{
					"name": "success",
					"type": "bool"
				}
			],
			"payable": false,
			"stateMutability": "nonpayable",
			"type": "function"
		},
		{
			"constant": true,
			"inputs": [],
			"name": "sellPrice",
			"outputs": [
				{
					"name": "",
					"type": "uint256"
				}
			],
			"payable": false,
			"stateMutability": "view",
			"type": "function"
		},
		{
			"constant": true,
			"inputs": [
				{
					"name": "",
					"type": "address"
				}
			],
			"name": "escrowedBalance",
			"outputs": [
				{
					"name": "",
					"type": "uint256"
				}
			],
			"payable": false,
			"stateMutability": "view",
			"type": "function"
		},
		{
			"constant": true,
			"inputs": [],
			"name": "WEIGHTED_INDEX_DIVISOR",
			"outputs": [
				{
					"name": "",
					"type": "uint256"
				}
			],
			"payable": false,
			"stateMutability": "view",
			"type": "function"
		},
		{
			"constant": false,
			"inputs": [
				{
					"name": "_account",
					"type": "address"
				},
				{
					"name": "_whitelist",
					"type": "bool"
				}
			],
			"name": "setWhitelist",
			"outputs": [],
			"payable": false,
			"stateMutability": "nonpayable",
			"type": "function"
		},
		{
			"constant": true,
			"inputs": [
				{
					"name": "",
					"type": "address"
				}
			],
			"name": "primordialBalanceOf",
			"outputs": [
				{
					"name": "",
					"type": "uint256"
				}
			],
			"payable": false,
			"stateMutability": "view",
			"type": "function"
		},
		{
			"constant": true,
			"inputs": [],
			"name": "TOKENS_RESERVED_FOR_FOUNDATION",
			"outputs": [
				{
					"name": "",
					"type": "uint256"
				}
			],
			"payable": false,
			"stateMutability": "view",
			"type": "function"
		},
		{
			"constant": true,
			"inputs": [
				{
					"name": "",
					"type": "address"
				}
			],
			"name": "stakedBalance",
			"outputs": [
				{
					"name": "",
					"type": "uint256"
				}
			],
			"payable": false,
			"stateMutability": "view",
			"type": "function"
		},
		{
			"constant": true,
			"inputs": [
				{
					"name": "",
					"type": "address"
				}
			],
			"name": "balanceOf",
			"outputs": [
				{
					"name": "",
					"type": "uint256"
				}
			],
			"payable": false,
			"stateMutability": "view",
			"type": "function"
		},
		{
			"constant": true,
			"inputs": [],
			"name": "primordialBuyPrice",
			"outputs": [
				{
					"name": "",
					"type": "uint256"
				}
			],
			"payable": false,
			"stateMutability": "view",
			"type": "function"
		},
		{
			"constant": false,
			"inputs": [
				{
					"name": "_from",
					"type": "address"
				},
				{
					"name": "_value",
					"type": "uint256"
				}
			],
			"name": "burnFrom",
			"outputs": [
				{
					"name": "success",
					"type": "bool"
				}
			],
			"payable": false,
			"stateMutability": "nonpayable",
			"type": "function"
		},
		{
			"constant": true,
			"inputs": [],
			"name": "primordialTotalSupply",
			"outputs": [
				{
					"name": "",
					"type": "uint256"
				}
			],
			"payable": false,
			"stateMutability": "view",
			"type": "function"
		},
		{
			"constant": true,
			"inputs": [],
			"name": "buyPrice",
			"outputs": [
				{
					"name": "",
					"type": "uint256"
				}
			],
			"payable": false,
			"stateMutability": "view",
			"type": "function"
		},
		{
			"constant": true,
			"inputs": [],
			"name": "symbol",
			"outputs": [
				{
					"name": "",
					"type": "string"
				}
			],
			"payable": false,
			"stateMutability": "view",
			"type": "function"
		},
		{
			"constant": true,
			"inputs": [
				{
					"name": "",
					"type": "address"
				}
			],
			"name": "whitelist",
			"outputs": [
				{
					"name": "",
					"type": "bool"
				}
			],
			"payable": false,
			"stateMutability": "view",
			"type": "function"
		},
		{
			"constant": true,
			"inputs": [],
			"name": "MAX_PRIMORDIAL_SUPPLY",
			"outputs": [
				{
					"name": "",
					"type": "uint256"
				}
			],
			"payable": false,
			"stateMutability": "view",
			"type": "function"
		},
		{
			"constant": true,
			"inputs": [],
			"name": "networkExchangeEnded",
			"outputs": [
				{
					"name": "",
					"type": "bool"
				}
			],
			"payable": false,
			"stateMutability": "view",
			"type": "function"
		},
		{
			"constant": false,
			"inputs": [
				{
					"name": "_to",
					"type": "address"
				},
				{
					"name": "_value",
					"type": "uint256"
				}
			],
			"name": "transfer",
			"outputs": [
				{
					"name": "success",
					"type": "bool"
				}
			],
			"payable": false,
			"stateMutability": "nonpayable",
			"type": "function"
		},
		{
			"constant": true,
			"inputs": [
				{
					"name": "",
					"type": "address"
				}
			],
			"name": "frozenAccount",
			"outputs": [
				{
					"name": "",
					"type": "bool"
				}
			],
			"payable": false,
			"stateMutability": "view",
			"type": "function"
		},
		{
			"constant": true,
			"inputs": [],
			"name": "foundationReserved",
			"outputs": [
				{
					"name": "",
					"type": "bool"
				}
			],
			"payable": false,
			"stateMutability": "view",
			"type": "function"
		},
		{
			"constant": true,
			"inputs": [],
			"name": "networkExchangeContract",
			"outputs": [
				{
					"name": "",
					"type": "bool"
				}
			],
			"payable": false,
			"stateMutability": "view",
			"type": "function"
		},
		{
			"constant": true,
			"inputs": [],
			"name": "developer",
			"outputs": [
				{
					"name": "",
					"type": "address"
				}
			],
			"payable": false,
			"stateMutability": "view",
			"type": "function"
		},
		{
			"constant": false,
			"inputs": [
				{
					"name": "_spender",
					"type": "address"
				},
				{
					"name": "_value",
					"type": "uint256"
				},
				{
					"name": "_extraData",
					"type": "bytes"
				}
			],
			"name": "approveAndCall",
			"outputs": [
				{
					"name": "success",
					"type": "bool"
				}
			],
			"payable": false,
			"stateMutability": "nonpayable",
			"type": "function"
		},
		{
			"constant": true,
			"inputs": [
				{
					"name": "",
					"type": "address"
				},
				{
					"name": "",
					"type": "address"
				}
			],
			"name": "primordialAllowance",
			"outputs": [
				{
					"name": "",
					"type": "uint256"
				}
			],
			"payable": false,
			"stateMutability": "view",
			"type": "function"
		},
		{
			"constant": true,
			"inputs": [
				{
					"name": "",
					"type": "address"
				},
				{
					"name": "",
					"type": "address"
				}
			],
			"name": "allowance",
			"outputs": [
				{
					"name": "",
					"type": "uint256"
				}
			],
			"payable": false,
			"stateMutability": "view",
			"type": "function"
		},
		{
			"constant": true,
			"inputs": [],
			"name": "lotIndex",
			"outputs": [
				{
					"name": "",
					"type": "uint256"
				}
			],
			"payable": false,
			"stateMutability": "view",
			"type": "function"
		},
		{
			"constant": false,
			"inputs": [
				{
					"name": "newDeveloper",
					"type": "address"
				}
			],
			"name": "transferOwnership",
			"outputs": [],
			"payable": false,
			"stateMutability": "nonpayable",
			"type": "function"
		},
		{
			"inputs": [
				{
					"name": "initialSupply",
					"type": "uint256"
				},
				{
					"name": "tokenName",
					"type": "string"
				},
				{
					"name": "tokenSymbol",
					"type": "string"
				}
			],
			"payable": false,
			"stateMutability": "nonpayable",
			"type": "constructor"
		},
		{
			"anonymous": false,
			"inputs": [
				{
					"indexed": false,
					"name": "target",
					"type": "address"
				},
				{
					"indexed": false,
					"name": "frozen",
					"type": "bool"
				}
			],
			"name": "FrozenFunds",
			"type": "event"
		},
		{
			"anonymous": false,
			"inputs": [
				{
					"indexed": true,
					"name": "from",
					"type": "address"
				},
				{
					"indexed": false,
					"name": "value",
					"type": "uint256"
				}
			],
			"name": "Stake",
			"type": "event"
		},
		{
			"anonymous": false,
			"inputs": [
				{
					"indexed": true,
					"name": "from",
					"type": "address"
				},
				{
					"indexed": false,
					"name": "value",
					"type": "uint256"
				}
			],
			"name": "Unstake",
			"type": "event"
		},
		{
			"anonymous": false,
			"inputs": [
				{
					"indexed": true,
					"name": "from",
					"type": "address"
				},
				{
					"indexed": true,
					"name": "to",
					"type": "address"
				},
				{
					"indexed": false,
					"name": "value",
					"type": "uint256"
				}
			],
			"name": "Escrow",
			"type": "event"
		},
		{
			"anonymous": false,
			"inputs": [
				{
					"indexed": true,
					"name": "from",
					"type": "address"
				},
				{
					"indexed": false,
					"name": "value",
					"type": "uint256"
				}
			],
			"name": "Unescrow",
			"type": "event"
		},
		{
			"anonymous": false,
			"inputs": [
				{
					"indexed": true,
					"name": "from",
					"type": "address"
				},
				{
					"indexed": true,
					"name": "to",
					"type": "address"
				},
				{
					"indexed": false,
					"name": "value",
					"type": "uint256"
				}
			],
			"name": "PrimordialTransfer",
			"type": "event"
		},
		{
			"anonymous": false,
			"inputs": [
				{
					"indexed": true,
					"name": "_owner",
					"type": "address"
				},
				{
					"indexed": true,
					"name": "_spender",
					"type": "address"
				},
				{
					"indexed": false,
					"name": "_value",
					"type": "uint256"
				}
			],
			"name": "PrimordialApproval",
			"type": "event"
		},
		{
			"anonymous": false,
			"inputs": [
				{
					"indexed": true,
					"name": "from",
					"type": "address"
				},
				{
					"indexed": false,
					"name": "value",
					"type": "uint256"
				}
			],
			"name": "PrimordialBurn",
			"type": "event"
		},
		{
			"anonymous": false,
			"inputs": [
				{
					"indexed": true,
					"name": "from",
					"type": "address"
				},
				{
					"indexed": false,
					"name": "value",
					"type": "uint256"
				},
				{
					"indexed": false,
					"name": "weightedIndex",
					"type": "uint256"
				}
			],
			"name": "PrimordialStake",
			"type": "event"
		},
		{
			"anonymous": false,
			"inputs": [
				{
					"indexed": true,
					"name": "from",
					"type": "address"
				},
				{
					"indexed": false,
					"name": "value",
					"type": "uint256"
				},
				{
					"indexed": false,
					"name": "weightedIndex",
					"type": "uint256"
				}
			],
			"name": "PrimordialUnstake",
			"type": "event"
		},
		{
			"anonymous": false,
			"inputs": [
				{
					"indexed": true,
					"name": "lotOwner",
					"type": "address"
				},
				{
					"indexed": true,
					"name": "lotId",
					"type": "bytes32"
				},
				{
					"indexed": false,
					"name": "index",
					"type": "uint256"
				},
				{
					"indexed": false,
					"name": "tokenAmount",
					"type": "uint256"
				}
			],
			"name": "LotCreation",
			"type": "event"
		},
		{
			"anonymous": false,
			"inputs": [
				{
					"indexed": true,
					"name": "from",
					"type": "address"
				},
				{
					"indexed": true,
					"name": "to",
					"type": "address"
				},
				{
					"indexed": false,
					"name": "value",
					"type": "uint256"
				}
			],
			"name": "Transfer",
			"type": "event"
		},
		{
			"anonymous": false,
			"inputs": [
				{
					"indexed": true,
					"name": "_owner",
					"type": "address"
				},
				{
					"indexed": true,
					"name": "_spender",
					"type": "address"
				},
				{
					"indexed": false,
					"name": "_value",
					"type": "uint256"
				}
			],
			"name": "Approval",
			"type": "event"
		},
		{
			"anonymous": false,
			"inputs": [
				{
					"indexed": true,
					"name": "from",
					"type": "address"
				},
				{
					"indexed": false,
					"name": "value",
					"type": "uint256"
				}
			],
			"name": "Burn",
			"type": "event"
		},
		{
			"constant": false,
			"inputs": [
				{
					"name": "target",
					"type": "address"
				},
				{
					"name": "freeze",
					"type": "bool"
				}
			],
			"name": "freezeAccount",
			"outputs": [],
			"payable": false,
			"stateMutability": "nonpayable",
			"type": "function"
		},
		{
			"constant": false,
			"inputs": [
				{
					"name": "newSellPrice",
					"type": "uint256"
				},
				{
					"name": "newBuyPrice",
					"type": "uint256"
				}
			],
			"name": "setPrices",
			"outputs": [],
			"payable": false,
			"stateMutability": "nonpayable",
			"type": "function"
		},
		{
			"constant": false,
			"inputs": [
				{
					"name": "target",
					"type": "address"
				},
				{
					"name": "mintedAmount",
					"type": "uint256"
				}
			],
			"name": "mintToken",
			"outputs": [
				{
					"name": "",
					"type": "bool"
				}
			],
			"payable": false,
			"stateMutability": "nonpayable",
			"type": "function"
		},
		{
			"constant": false,
			"inputs": [
				{
					"name": "_from",
					"type": "address"
				},
				{
					"name": "_value",
					"type": "uint256"
				}
			],
			"name": "stakeFrom",
			"outputs": [
				{
					"name": "",
					"type": "bool"
				}
			],
			"payable": false,
			"stateMutability": "nonpayable",
			"type": "function"
		},
		{
			"constant": false,
			"inputs": [
				{
					"name": "_from",
					"type": "address"
				},
				{
					"name": "_value",
					"type": "uint256"
				}
			],
			"name": "unstakeFrom",
			"outputs": [
				{
					"name": "",
					"type": "bool"
				}
			],
			"payable": false,
			"stateMutability": "nonpayable",
			"type": "function"
		},
		{
			"constant": false,
			"inputs": [
				{
					"name": "_from",
					"type": "address"
				},
				{
					"name": "_to",
					"type": "address"
				},
				{
					"name": "_value",
					"type": "uint256"
				}
			],
			"name": "escrowFrom",
			"outputs": [
				{
					"name": "",
					"type": "bool"
				}
			],
			"payable": false,
			"stateMutability": "nonpayable",
			"type": "function"
		},
		{
			"constant": false,
			"inputs": [
				{
					"name": "target",
					"type": "address"
				},
				{
					"name": "mintedAmount",
					"type": "uint256"
				}
			],
			"name": "mintTokenEscrow",
			"outputs": [
				{
					"name": "",
					"type": "bool"
				}
			],
			"payable": false,
			"stateMutability": "nonpayable",
			"type": "function"
		},
		{
			"constant": false,
			"inputs": [
				{
					"name": "_from",
					"type": "address"
				},
				{
					"name": "_value",
					"type": "uint256"
				}
			],
			"name": "unescrowFrom",
			"outputs": [
				{
					"name": "",
					"type": "bool"
				}
			],
			"payable": false,
			"stateMutability": "nonpayable",
			"type": "function"
		},
		{
			"constant": false,
			"inputs": [
				{
					"name": "_from",
					"type": "address"
				},
				{
					"name": "_value",
					"type": "uint256"
				}
			],
			"name": "whitelistBurnFrom",
			"outputs": [
				{
					"name": "success",
					"type": "bool"
				}
			],
			"payable": false,
			"stateMutability": "nonpayable",
			"type": "function"
		},
		{
			"constant": false,
			"inputs": [
				{
					"name": "newPrimordialSellPrice",
					"type": "uint256"
				},
				{
					"name": "newPrimordialBuyPrice",
					"type": "uint256"
				}
			],
			"name": "setPrimordialPrices",
			"outputs": [],
			"payable": false,
			"stateMutability": "nonpayable",
			"type": "function"
		},
		{
			"constant": false,
			"inputs": [],
			"name": "reserveForFoundation",
			"outputs": [],
			"payable": false,
			"stateMutability": "nonpayable",
			"type": "function"
		},
		{
			"constant": false,
			"inputs": [
				{
					"name": "_from",
					"type": "address"
				},
				{
					"name": "_value",
					"type": "uint256"
				},
				{
					"name": "_weightedIndex",
					"type": "uint256"
				}
			],
			"name": "stakePrimordialTokenFrom",
			"outputs": [
				{
					"name": "",
					"type": "bool"
				}
			],
			"payable": false,
			"stateMutability": "nonpayable",
			"type": "function"
		},
		{
			"constant": false,
			"inputs": [
				{
					"name": "_from",
					"type": "address"
				},
				{
					"name": "_value",
					"type": "uint256"
				},
				{
					"name": "_weightedIndex",
					"type": "uint256"
				}
			],
			"name": "unstakePrimordialTokenFrom",
			"outputs": [
				{
					"name": "",
					"type": "bool"
				}
			],
			"payable": false,
			"stateMutability": "nonpayable",
			"type": "function"
		},
		{
			"constant": false,
			"inputs": [],
			"name": "buy",
			"outputs": [],
			"payable": true,
			"stateMutability": "payable",
			"type": "function"
		},
		{
			"constant": false,
			"inputs": [
				{
					"name": "amount",
					"type": "uint256"
				}
			],
			"name": "sell",
			"outputs": [],
			"payable": false,
			"stateMutability": "nonpayable",
			"type": "function"
		},
		{
			"constant": false,
			"inputs": [],
			"name": "buyPrimordialToken",
			"outputs": [],
			"payable": true,
			"stateMutability": "payable",
			"type": "function"
		},
		{
			"constant": false,
			"inputs": [
				{
					"name": "_to",
					"type": "address"
				},
				{
					"name": "_value",
					"type": "uint256"
				}
			],
			"name": "transferPrimordialToken",
			"outputs": [
				{
					"name": "success",
					"type": "bool"
				}
			],
			"payable": false,
			"stateMutability": "nonpayable",
			"type": "function"
		},
		{
			"constant": false,
			"inputs": [
				{
					"name": "_from",
					"type": "address"
				},
				{
					"name": "_to",
					"type": "address"
				},
				{
					"name": "_value",
					"type": "uint256"
				}
			],
			"name": "transferPrimordialTokenFrom",
			"outputs": [
				{
					"name": "success",
					"type": "bool"
				}
			],
			"payable": false,
			"stateMutability": "nonpayable",
			"type": "function"
		},
		{
			"constant": false,
			"inputs": [
				{
					"name": "_spender",
					"type": "address"
				},
				{
					"name": "_value",
					"type": "uint256"
				}
			],
			"name": "approvePrimordialToken",
			"outputs": [
				{
					"name": "success",
					"type": "bool"
				}
			],
			"payable": false,
			"stateMutability": "nonpayable",
			"type": "function"
		},
		{
			"constant": false,
			"inputs": [
				{
					"name": "_spender",
					"type": "address"
				},
				{
					"name": "_value",
					"type": "uint256"
				},
				{
					"name": "_extraData",
					"type": "bytes"
				}
			],
			"name": "approvePrimordialTokenAndCall",
			"outputs": [
				{
					"name": "success",
					"type": "bool"
				}
			],
			"payable": false,
			"stateMutability": "nonpayable",
			"type": "function"
		},
		{
			"constant": false,
			"inputs": [
				{
					"name": "_value",
					"type": "uint256"
				}
			],
			"name": "burnPrimordialToken",
			"outputs": [
				{
					"name": "success",
					"type": "bool"
				}
			],
			"payable": false,
			"stateMutability": "nonpayable",
			"type": "function"
		},
		{
			"constant": false,
			"inputs": [
				{
					"name": "_from",
					"type": "address"
				},
				{
					"name": "_value",
					"type": "uint256"
				}
			],
			"name": "burnPrimordialTokenFrom",
			"outputs": [
				{
					"name": "success",
					"type": "bool"
				}
			],
			"payable": false,
			"stateMutability": "nonpayable",
			"type": "function"
		},
		{
			"constant": true,
			"inputs": [
				{
					"name": "_lotOwner",
					"type": "address"
				}
			],
			"name": "lotsByAddress",
			"outputs": [
				{
					"name": "",
					"type": "bytes32[]"
				}
			],
			"payable": false,
			"stateMutability": "view",
			"type": "function"
		},
		{
			"constant": true,
			"inputs": [
				{
					"name": "_lotOwner",
					"type": "address"
				}
			],
			"name": "totalLotsByAddress",
			"outputs": [
				{
					"name": "",
					"type": "uint256"
				}
			],
			"payable": false,
			"stateMutability": "view",
			"type": "function"
		},
		{
			"constant": true,
			"inputs": [
				{
					"name": "_lotOwner",
					"type": "address"
				},
				{
					"name": "_index",
					"type": "uint256"
				}
			],
			"name": "lotOfOwnerByIndex",
			"outputs": [
				{
					"name": "",
					"type": "bytes32"
				},
				{
					"name": "",
					"type": "uint256"
				},
				{
					"name": "",
					"type": "uint256"
				}
			],
			"payable": false,
			"stateMutability": "view",
			"type": "function"
		},
		{
			"constant": true,
			"inputs": [
				{
					"name": "_lotId",
					"type": "bytes32"
				}
			],
			"name": "lotById",
			"outputs": [
				{
					"name": "",
					"type": "bytes32"
				},
				{
					"name": "",
					"type": "uint256"
				},
				{
					"name": "",
					"type": "uint256"
				}
			],
			"payable": false,
			"stateMutability": "view",
			"type": "function"
		},
		{
			"constant": true,
			"inputs": [
				{
					"name": "_lotOwner",
					"type": "address"
				}
			],
			"name": "weightedIndexByAddress",
			"outputs": [
				{
					"name": "",
					"type": "uint256"
				}
			],
			"payable": false,
			"stateMutability": "view",
			"type": "function"
		},
		{
			"constant": false,
			"inputs": [
				{
					"name": "_to",
					"type": "address"
				},
				{
					"name": "_value",
					"type": "uint256"
				},
				{
					"name": "_primordialValue",
					"type": "uint256"
				}
			],
			"name": "transferTokens",
			"outputs": [
				{
					"name": "success",
					"type": "bool"
				}
			],
			"payable": false,
			"stateMutability": "nonpayable",
			"type": "function"
		},
		{
			"constant": false,
			"inputs": [
				{
					"name": "_from",
					"type": "address"
				},
				{
					"name": "_to",
					"type": "address"
				},
				{
					"name": "_value",
					"type": "uint256"
				},
				{
					"name": "_primordialValue",
					"type": "uint256"
				}
			],
			"name": "transferTokensFrom",
			"outputs": [
				{
					"name": "success",
					"type": "bool"
				}
			],
			"payable": false,
			"stateMutability": "nonpayable",
			"type": "function"
		},
		{
			"constant": false,
			"inputs": [
				{
					"name": "_spender",
					"type": "address"
				},
				{
					"name": "_value",
					"type": "uint256"
				},
				{
					"name": "_primordialValue",
					"type": "uint256"
				}
			],
			"name": "approveTokens",
			"outputs": [
				{
					"name": "success",
					"type": "bool"
				}
			],
			"payable": false,
			"stateMutability": "nonpayable",
			"type": "function"
		},
		{
			"constant": false,
			"inputs": [
				{
					"name": "_spender",
					"type": "address"
				},
				{
					"name": "_value",
					"type": "uint256"
				},
				{
					"name": "_primordialValue",
					"type": "uint256"
				},
				{
					"name": "_extraData",
					"type": "bytes"
				}
			],
			"name": "approveTokensAndCall",
			"outputs": [
				{
					"name": "success",
					"type": "bool"
				}
			],
			"payable": false,
			"stateMutability": "nonpayable",
			"type": "function"
		},
		{
			"constant": false,
			"inputs": [
				{
					"name": "_value",
					"type": "uint256"
				},
				{
					"name": "_primordialValue",
					"type": "uint256"
				}
			],
			"name": "burnTokens",
			"outputs": [
				{
					"name": "success",
					"type": "bool"
				}
			],
			"payable": false,
			"stateMutability": "nonpayable",
			"type": "function"
		},
		{
			"constant": false,
			"inputs": [
				{
					"name": "_from",
					"type": "address"
				},
				{
					"name": "_value",
					"type": "uint256"
				},
				{
					"name": "_primordialValue",
					"type": "uint256"
				}
			],
			"name": "burnTokensFrom",
			"outputs": [
				{
					"name": "success",
					"type": "bool"
				}
			],
			"payable": false,
			"stateMutability": "nonpayable",
			"type": "function"
		}
	],
	"bytecode": "0x60806040526004805460ff191660121790553480156200001e57600080fd5b50604051620038713803806200387183398101604090815281516020808401518385015160008054600160a060020a03191633908117825560045460ff16600a0a86026005819055908252600685529590209490945584018051929490930191849184918491620000959160029185019062000128565b508051620000ab90600390602084019062000128565b5050600060088190556004805460ff19908116909155601180549091166001179055620000e792509050612710640100000000620000f0810204565b505050620001cd565b600054600160a060020a031633146200010857600080fd5b60115460ff1615156001146200011d57600080fd5b600f91909155601055565b828054600181600116156101000203166002900490600052602060002090601f016020900481019282601f106200016b57805160ff19168380011785556200019b565b828001600101855582156200019b579182015b828111156200019b5782518255916020019190600101906200017e565b50620001a9929150620001ad565b5090565b620001ca91905b80821115620001a95760008155600101620001b4565b90565b61369480620001dd6000396000f30060806040526004361061032c5763ffffffff7c010000000000000000000000000000000000000000000000000000000060003504166305fefda7811461033157806306fdde031461034e578063080e74f7146103d8578063095ea7b31461040e5780630aa2454614610446578063153d90491461046d57806318160ddd14610491578063212e28e3146104a657806323b872dd146104bb57806323ceb6d8146104e55780632b687bb914610509578063313ce5671461051e57806331a8aeb314610549578063360f277b1461056d5780633bcd66241461058257806342966c68146105ee57806346878fff1461060657806349937e25146106775780634b7503341461067f5780634f090ab4146106945780634fbd2695146106ac57806350d400e5146106cd57806353d6fd59146106e257806354f7dd8c1461070857806356307efc1461072c57806357946b8e1461074d578063580b72e11461076e5780635f2115fa1461079557806360217267146107aa57806367cf17c2146107cb57806370a08231146107f557806372d1146614610816578063731a3b061461082b57806374ead7b71461084f57806379c650681461087657806379cc67901461089a5780637e904f7b146108be578063834e9f31146108e55780638620410b146108fa57806387d4ca931461090f5780638a066045146109395780638e81c64d1461095d57806395d89b41146109785780639b19251a1461098d578063a358eb0f146109ae578063a545a5d1146109c3578063a6f2ae3a146109d8578063a9059cbb146109e0578063a918887814610a04578063a9f7e66414610a1f578063aaaf8a5214610a46578063b1e19d4514610a6a578063b414d4b614610a8e578063b96d036914610aaf578063ba2f817014610ac4578063bdb9c11f14610ad9578063c1b9981114610b06578063ca4b208b14610b2a578063cae9ca5114610b5b578063d1e5a55214610bc4578063d94ca0f914610beb578063dd1a293a14610c54578063dd62ed3e14610c7b578063e352845514610ca2578063e4849b3214610cc6578063e724529c14610cde578063ea67a17114610d04578063f2fde38b14610d19578063f5bd48c414610d3a575b600080fd5b34801561033d57600080fd5b5061034c600435602435610d5b565b005b34801561035a57600080fd5b50610363610d7d565b6040805160208082528351818301528351919283929083019185019080838360005b8381101561039d578181015183820152602001610385565b50505050905090810190601f1680156103ca5780820380516001836020036101000a031916815260200191505b509250505060405180910390f35b3480156103e457600080fd5b506103f0600435610e08565b60408051938452602084019290925282820152519081900360600190f35b34801561041a57600080fd5b50610432600160a060020a0360043516602435610e81565b604080519115158252519081900360200190f35b34801561045257600080fd5b5061045b610ee8565b60408051918252519081900360200190f35b34801561047957600080fd5b5061045b600160a060020a0360043516602435610eee565b34801561049d57600080fd5b5061045b610f0b565b3480156104b257600080fd5b5061034c610f11565b3480156104c757600080fd5b50610432600160a060020a0360043581169060243516604435610ff2565b3480156104f157600080fd5b50610432600160a060020a0360043516602435611061565b34801561051557600080fd5b5061045b611141565b34801561052a57600080fd5b50610533611147565b6040805160ff9092168252519081900360200190f35b34801561055557600080fd5b50610432600160a060020a0360043516602435611150565b34801561057957600080fd5b5061045b61126d565b34801561058e57600080fd5b50604080516020601f60643560048181013592830184900484028501840190955281845261043294600160a060020a0381351694602480359560443595369560849493019181908401838280828437509497506112739650505050505050565b3480156105fa57600080fd5b506104326004356112c1565b34801561061257600080fd5b50610627600160a060020a0360043516611339565b60408051602080825283518183015283519192839290830191858101910280838360005b8381101561066357818101518382015260200161064b565b505050509050019250505060405180910390f35b61034c6113bb565b34801561068b57600080fd5b5061045b6114fb565b3480156106a057600080fd5b50610432600435611501565b3480156106b857600080fd5b5061045b600160a060020a03600435166115b8565b3480156106d957600080fd5b5061045b6115ca565b3480156106ee57600080fd5b5061034c600160a060020a036004351660243515156115d1565b34801561071457600080fd5b506103f0600160a060020a0360043516602435611613565b34801561073857600080fd5b5061045b600160a060020a03600435166116e9565b34801561075957600080fd5b5061045b600160a060020a036004351661171c565b34801561077a57600080fd5b50610432600160a060020a036004351660243560443561172e565b3480156107a157600080fd5b5061045b61176f565b3480156107b657600080fd5b5061045b600160a060020a0360043516611779565b3480156107d757600080fd5b50610432600160a060020a036004358116906024351660443561178b565b34801561080157600080fd5b5061045b600160a060020a03600435166119ff565b34801561082257600080fd5b5061045b611a11565b34801561083757600080fd5b50610432600160a060020a0360043516602435611a17565b34801561085b57600080fd5b50610432600160a060020a0360043516602435604435611b34565b34801561088257600080fd5b50610432600160a060020a0360043516602435611d51565b3480156108a657600080fd5b50610432600160a060020a0360043516602435611d99565b3480156108ca57600080fd5b50610432600160a060020a0360043516602435604435611e6a565b3480156108f157600080fd5b5061045b611fd8565b34801561090657600080fd5b5061045b611fde565b34801561091b57600080fd5b50610432600160a060020a0360043581169060243516604435611fe4565b34801561094557600080fd5b50610432600160a060020a036004351660243561210e565b34801561096957600080fd5b5061043260043560243561222b565b34801561098457600080fd5b50610363612273565b34801561099957600080fd5b50610432600160a060020a03600435166122ce565b3480156109ba57600080fd5b5061045b6122e3565b3480156109cf57600080fd5b506104326122ee565b61034c6122fc565b3480156109ec57600080fd5b50610432600160a060020a036004351660243561232f565b348015610a1057600080fd5b5061034c60043560243561233c565b348015610a2b57600080fd5b50610432600160a060020a0360043516602435604435612372565b348015610a5257600080fd5b50610432600160a060020a03600435166024356123a8565b348015610a7657600080fd5b50610432600160a060020a0360043516602435612426565b348015610a9a57600080fd5b50610432600160a060020a036004351661252a565b348015610abb57600080fd5b5061043261253f565b348015610ad057600080fd5b50610432612548565b348015610ae557600080fd5b50610432600160a060020a0360043581169060243516604435606435612551565b348015610b1257600080fd5b50610432600160a060020a0360043516602435612589565b348015610b3657600080fd5b50610b3f612775565b60408051600160a060020a039092168252519081900360200190f35b348015610b6757600080fd5b50604080516020600460443581810135601f8101849004840285018401909552848452610432948235600160a060020a03169460248035953695946064949201919081908401838280828437509497506127849650505050505050565b348015610bd057600080fd5b5061045b600160a060020a0360043581169060243516612899565b348015610bf757600080fd5b50604080516020600460443581810135601f8101849004840285018401909552848452610432948235600160a060020a03169460248035953695946064949201919081908401838280828437509497506128b69650505050505050565b348015610c6057600080fd5b50610432600160a060020a03600435166024356044356128db565b348015610c8757600080fd5b5061045b600160a060020a0360043581169060243516612911565b348015610cae57600080fd5b50610432600160a060020a036004351660243561292e565b348015610cd257600080fd5b5061034c600435612a82565b348015610cea57600080fd5b5061034c600160a060020a03600435166024351515612b0e565b348015610d1057600080fd5b5061045b612b89565b348015610d2557600080fd5b5061034c600160a060020a0360043516612b8f565b348015610d4657600080fd5b5061045b600160a060020a0360043516612bd5565b600054600160a060020a03163314610d7257600080fd5b600991909155600a55565b6002805460408051602060018416156101000260001901909316849004601f81018490048402820184019092528181529291830182828015610e005780601f10610dd557610100808354040283529160200191610e00565b820191906000526020600020905b815481529060010190602001808311610de357829003601f168201915b505050505081565b6000806000610e15613641565b60115460ff161515600114610e2957600080fd5b505050600091825250601860209081526040918290208251608081018452815480825260018301549382018490526002830154600160a060020a03169482019490945260039091015460609091018190529192909190565b336000818152600760209081526040808320600160a060020a038716808552908352818420869055815186815291519394909390927f8c5be1e5ebec7d5bd14f71427d1e84f3dd0314c0f7b2291e5b200ac8c7c3b925928290030190a35060015b92915050565b60085481565b601460209081526000928352604080842090915290825290205481565b60055481565b60008054600160a060020a03163314610f2957600080fd5b60115460ff161515600114610f3d57600080fd5b601754610100900460ff1615610f5257600080fd5b60175460ff1615610f6257600080fd5b600e546603fffffffffffc11610f7757600080fd5b506017805460ff19166001179055600e546572815b397ffc906603fffffffffffc90610fa9908363ffffffff612c0816565b10610fdb57600e54610fc9906603fffffffffffc9063ffffffff612c1516565b6017805461ff00191661010017905590505b610fe53382612c27565b610fef3382612f06565b50565b600160a060020a038316600090815260076020908152604080832033845290915281205482111561102257600080fd5b600160a060020a0384166000908152600760209081526040808320338452909152902080548390039055611057848484612fda565b5060019392505050565b33600081815260016020819052604082205491929160ff16151514806110945750600054600160a060020a038281169116145b151561109f57600080fd5b600160a060020a0384166000908152600d60205260409020546110c8908463ffffffff612c0816565b600160a060020a0385166000908152600d60205260409020556005546110f4908463ffffffff612c0816565b600555604080518481529051600160a060020a0386169130917f812c3251d8b2cd027716a7651ace6f9167d7fba4db9eb10df2e0cfe8b7fa48c99181900360200190a35060019392505050565b600f5481565b60045460ff1681565b33600081815260016020819052604082205491929160ff16151514806111835750600054600160a060020a038281169116145b151561118e57600080fd5b600160a060020a0384166000908152600660205260409020548311156111b357600080fd5b600160a060020a0384166000908152600660205260409020546111dc908463ffffffff612c1516565b600160a060020a038516600090815260066020908152604080832093909355600c90522054611211908463ffffffff612c0816565b600160a060020a0385166000818152600c6020908152604091829020939093558051868152905191927febedb8b3c678666e7f36970bc8f57abf6d8fa2e828c0da91ea5b75bf68ed101a92918290030190a25060019392505050565b60155481565b60115460009060ff16151560011461128a57600080fd5b611295858584612784565b15156112a057600080fd5b6112ab8584846128b6565b15156112b657600080fd5b506001949350505050565b336000908152600660205260408120548211156112dd57600080fd5b3360008181526006602090815260409182902080548690039055600580548690039055815185815291517fcc16f5dbb4873280815c1ee09dbd06736cffcc184412cf7a71a0fdb75d397ca59281900390910190a2506001919050565b60115460609060ff16151560011461135057600080fd5b600160a060020a038216600090815260196020908152604091829020805483518184028101840190945280845290918301828280156113af57602002820191906000526020600020905b8154815260019091019060200180831161139a575b50505050509050919050565b601154600090819060ff1615156001146113d457600080fd5b601754610100900460ff16156113e957600080fd5b600e546603fffffffffffc116113fe57600080fd5b60105460001061140d57600080fd5b6000341161141a57600080fd5b60105461142e90349063ffffffff6131c216565b9150600090506603fffffffffffc61145183600e54612c0890919063ffffffff16565b106114ab57600e54611471906603fffffffffffc9063ffffffff612c1516565b6017805461ff0019166101001790556010549092506114a89061149b90849063ffffffff6131d716565b349063ffffffff612c1516565b90505b6114b53383612c27565b6114bf3383612f06565b60008111156114f757604051339082156108fc029083906000818181858888f193505050501580156114f5573d6000803e3d6000fd5b505b5050565b60095481565b60115460009060ff16151560011461151857600080fd5b3360009081526012602052604090205482111561153457600080fd5b33600090815260126020526040902054611554908363ffffffff612c1516565b33600090815260126020526040902055600e54611577908363ffffffff612c1516565b600e5560408051838152905133917f8ca2ca4355ea7f1e1880fa3d5f2dc524f82297c88282d5d95badd4041b8a8edb919081900360200190a2506001919050565b600d6020526000908152604090205481565b620f424081565b600054600160a060020a031633146115e857600080fd5b600160a060020a03919091166000908152600160205260409020805460ff1916911515919091179055565b6000806000611620613641565b60115460ff16151560011461163457600080fd5b600160a060020a038616600090815260196020526040902054851061165857600080fd5b600160a060020a0386166000908152601960205260408120805460189291908890811061168157fe5b600091825260208083209190910154835282810193909352604091820190208151608081018352815480825260018301549482018590526002830154600160a060020a0316938201939093526003909101546060909101819052909891975095509350505050565b60115460009060ff16151560011461170057600080fd5b50600160a060020a03166000908152601b602052604090205490565b60126020526000908152604090205481565b60115460009060ff16151560011461174557600080fd5b61174f8484610e81565b151561175a57600080fd5b61176484836123a8565b151561105757600080fd5b6572815b397ffc81565b600c6020526000908152604090205481565b600080611796613641565b60115460ff1615156001146117aa57600080fd5b600160a060020a03861660009081526013602090815260408083203384529091529020548411156117da57600080fd5b600160a060020a038616600090815260136020908152604080832033845290915290205461180e908563ffffffff612c1516565b600160a060020a0387166000818152601360209081526040808320338452825280832094909455918152601b909152205461184c9086908690613200565b6000818152601860209081526040918290208251608081018452815481526001820154928101929092526002810154600160a060020a0390811693830184905260039091015460608301529294509250908616146118a957600080fd5b600160a060020a038086166000908152601b60208181526040808420546012835281852054958c1685529282529283902054835160e060020a635d8d946102815260048101939093526024830194909452604482019390935260648101879052905173__AOLibrary_____________________________92635d8d94619260848082019391829003018186803b15801561194257600080fd5b505af4158015611956573d6000803e3d6000fd5b505050506040513d602081101561196c57600080fd5b5051600160a060020a0386166000908152601b6020526040902055611992868686613385565b151561199d57600080fd5b805160408083015160208085015160608601518451918252918101919091528251600160a060020a03909216927f516066f761a431d16b9e8d52e777640dcc66f5231c174577529f12b67d0d415792918290030190a350600195945050505050565b60066020526000908152604090205481565b60105481565b33600081815260016020819052604082205491929160ff1615151480611a4a5750600054600160a060020a038281169116145b1515611a5557600080fd5b600160a060020a0384166000908152600c6020526040902054831115611a7a57600080fd5b600160a060020a0384166000908152600c6020526040902054611aa3908463ffffffff612c1516565b600160a060020a0385166000908152600c6020908152604080832093909355600690522054611ad8908463ffffffff612c0816565b600160a060020a038516600081815260066020908152604091829020939093558051868152905191927f85082129d87b2fe11527cb1b3b7a520aeb5aa6913f88a3d8757fe40d1db02fdd92918290030190a25060019392505050565b33600081815260016020819052604082205491929160ff1615151480611b675750600054600160a060020a038281169116145b1515611b7257600080fd5b60115460ff161515600114611b8657600080fd5b600160a060020a0385166000908152601460209081526040808320868452909152902054841115611bb657600080fd5b600160a060020a0385166000908152601460209081526040808320868452909152902054611bea908563ffffffff612c1516565b600160a060020a0386166000818152601460209081526040808320888452825280832094909455918152601b825282812054601283529083902054835160e060020a635d8d9461028152600481019290925260248201526044810186905260648101879052915173__AOLibrary_____________________________92635d8d9461926084808301939192829003018186803b158015611c8957600080fd5b505af4158015611c9d573d6000803e3d6000fd5b505050506040513d6020811015611cb357600080fd5b5051600160a060020a0386166000908152601b6020908152604080832093909355601290522054611cea908563ffffffff612c0816565b600160a060020a038616600081815260126020908152604091829020939093558051878152928301869052805191927f7bcdc377a1fa8b0dd654d64d7337143be4ce1250ada31f3b1cdac27dea65d3a3929081900390910190a2600191505b509392505050565b33600081815260016020819052604082205491929160ff1615151480611d845750600054600160a060020a038281169116145b1515611d8f57600080fd5b6110578484612f06565b600160a060020a038216600090815260066020526040812054821115611dbe57600080fd5b600160a060020a0383166000908152600760209081526040808320338452909152902054821115611dee57600080fd5b600160a060020a0383166000818152600660209081526040808320805487900390556007825280832033845282529182902080548690039055600580548690039055815185815291517fcc16f5dbb4873280815c1ee09dbd06736cffcc184412cf7a71a0fdb75d397ca59281900390910190a250600192915050565b33600081815260016020819052604082205491929160ff1615151480611e9d5750600054600160a060020a038281169116145b1515611ea857600080fd5b60115460ff161515600114611ebc57600080fd5b600160a060020a038516600090815260126020526040902054841115611ee157600080fd5b600160a060020a0385166000908152601b60205260409020548314611f0557600080fd5b600160a060020a038516600090815260126020526040902054611f2e908563ffffffff612c1516565b600160a060020a0386166000908152601260209081526040808320939093556014815282822086835290522054611f6b908563ffffffff612c0816565b600160a060020a0386166000818152601460209081526040808320888452825291829020939093558051878152928301869052805191927fe62430bd00d68dd82de89addd3b7e4ce6bd50eb278f53dfb7fa7dac47643098d929081900390910190a2506001949350505050565b600e5481565b600a5481565b33600081815260016020819052604082205491929160ff16151514806120175750600054600160a060020a038281169116145b151561202257600080fd5b600160a060020a03851660009081526006602052604090205483111561204757600080fd5b600160a060020a038516600090815260066020526040902054612070908463ffffffff612c1516565b600160a060020a038087166000908152600660209081526040808320949094559187168152600d90915220546120ac908463ffffffff612c0816565b600160a060020a038086166000818152600d602090815260409182902094909455805187815290519193928916927f812c3251d8b2cd027716a7651ace6f9167d7fba4db9eb10df2e0cfe8b7fa48c992918290030190a3506001949350505050565b33600081815260016020819052604082205491929160ff16151514806121415750600054600160a060020a038281169116145b151561214c57600080fd5b600160a060020a0384166000908152600d602052604090205483111561217157600080fd5b600160a060020a0384166000908152600d602052604090205461219a908463ffffffff612c1516565b600160a060020a0385166000908152600d60209081526040808320939093556006905220546121cf908463ffffffff612c0816565b600160a060020a038516600081815260066020908152604091829020939093558051868152905191927f85538b0b045118ba300aa14d9701eab875903dd2976d62d855ec959a3e6cffb192918290030190a25060019392505050565b60115460009060ff16151560011461224257600080fd5b61224b836112c1565b151561225657600080fd5b61225f82611501565b151561226a57600080fd5b50600192915050565b6003805460408051602060026001851615610100026000190190941693909304601f81018490048402820184019092528181529291830182828015610e005780601f10610dd557610100808354040283529160200191610e00565b60016020526000908152604090205460ff1681565b6603fffffffffffc81565b601754610100900460ff1681565b600080600a5411151561230e57600080fd5b600a5461232290349063ffffffff6131c216565b9050610fef303383612fda565b600061226a338484612fda565b600054600160a060020a0316331461235357600080fd5b60115460ff16151560011461236757600080fd5b600f91909155601055565b60115460009060ff16151560011461238957600080fd5b612393848461232f565b151561239e57600080fd5b6117648483612589565b60115460009060ff1615156001146123bf57600080fd5b336000818152601360209081526040808320600160a060020a03881680855290835292819020869055805186815290519293927f199f64ba6278b91ed8e7f45335d9fdbfa2d094b1fdc34465229e79047fcea3ce929181900390910190a350600192915050565b33600081815260016020819052604082205491929160ff16151514806124595750600054600160a060020a038281169116145b151561246457600080fd5b600160a060020a03841660009081526006602052604090205483111561248957600080fd5b600160a060020a0384166000908152600660205260409020546124b2908463ffffffff612c1516565b600160a060020a0385166000908152600660205260409020556005546124de908463ffffffff612c1516565b600555604080518481529051600160a060020a038616917fcc16f5dbb4873280815c1ee09dbd06736cffcc184412cf7a71a0fdb75d397ca5919081900360200190a25060019392505050565b600b6020526000908152604090205460ff1681565b60175460ff1681565b60115460ff1681565b60115460009060ff16151560011461256857600080fd5b612573858585610ff2565b151561257e57600080fd5b6112ab85858461178b565b600080612594613641565b60115460ff1615156001146125a857600080fd5b336000908152601b60205260409020546125c59086908690613200565b6000818152601860209081526040918290208251608081018452815481526001820154928101929092526002810154600160a060020a03908116938301849052600390910154606083015292945092509086161461262257600080fd5b600160a060020a0385166000908152601b602081815260408084205460128352818520543386529383529381902054815160e060020a635d8d946102815260048101959095526024850193909352604484019290925260648301879052905173__AOLibrary_____________________________92635d8d9461926084808301939192829003018186803b1580156126b957600080fd5b505af41580156126cd573d6000803e3d6000fd5b505050506040513d60208110156126e357600080fd5b5051600160a060020a0386166000908152601b6020526040902055612709338686613385565b151561271457600080fd5b805160408083015160208085015160608601518451918252918101919091528251600160a060020a03909216927f516066f761a431d16b9e8d52e777640dcc66f5231c174577529f12b67d0d415792918290030190a3506001949350505050565b600054600160a060020a031681565b6000836127918185610e81565b15611d49576040517f8f4ffcb10000000000000000000000000000000000000000000000000000000081523360048201818152602483018790523060448401819052608060648501908152875160848601528751600160a060020a03871695638f4ffcb195948b94938b939192909160a490910190602085019080838360005b83811015612829578181015183820152602001612811565b50505050905090810190601f1680156128565780820380516001836020036101000a031916815260200191505b5095505050505050600060405180830381600087803b15801561287857600080fd5b505af115801561288c573d6000803e3d6000fd5b5050505060019150611d49565b601360209081526000928352604080842090915290825290205481565b601154600090819060ff1615156001146128cf57600080fd5b508361279181856123a8565b60115460009060ff1615156001146128f257600080fd5b6128fc8484611d99565b151561290757600080fd5b611764848361292e565b600760209081526000928352604080842090915290825290205481565b60115460009060ff16151560011461294557600080fd5b600160a060020a03831660009081526012602052604090205482111561296a57600080fd5b600160a060020a038316600090815260136020908152604080832033845290915290205482111561299a57600080fd5b600160a060020a0383166000908152601260205260409020546129c3908363ffffffff612c1516565b600160a060020a0384166000908152601260209081526040808320939093556013815282822033835290522054612a00908363ffffffff612c1516565b600160a060020a0384166000908152601360209081526040808320338452909152902055600e54612a37908363ffffffff612c1516565b600e55604080518381529051600160a060020a038516917f8ca2ca4355ea7f1e1880fa3d5f2dc524f82297c88282d5d95badd4041b8a8edb919081900360200190a250600192915050565b600080600954111515612a9457600080fd5b506009543090612aab90839063ffffffff6131d716565b600160a060020a038216311015612ac157600080fd5b612acc333084612fda565b60095433906108fc90612ae690859063ffffffff6131d716565b6040518115909202916000818181858888f193505050501580156114f5573d6000803e3d6000fd5b600054600160a060020a03163314612b2557600080fd5b600160a060020a0382166000818152600b6020908152604091829020805460ff191685151590811790915582519384529083015280517f48335238b4855f35377ed80f164e8c6f3c366e54ac00b96a6402d4a9814a03a59281900390910190a15050565b60165481565b600054600160a060020a03163314612ba657600080fd5b6000805473ffffffffffffffffffffffffffffffffffffffff1916600160a060020a0392909216919091179055565b60115460009060ff161515600114612bec57600080fd5b50600160a060020a031660009081526019602052604090205490565b81810182811015610ee257fe5b600082821115612c2157fe5b50900390565b60008080600160a060020a0385161515612c4057600080fd5b60008411612c4d57600080fd5b60158054600190810191829055601680549091019055604080516c01000000000000000000000000308102602080840191909152600160a060020a038a16909102603483015260488083019490945282518083039094018452606890910191829052825182918401908083835b60208310612cd95780518252601f199092019160209182019101612cba565b51815160209384036101000a60001901801990921691161790526040805192909401829003909120600081815260189092529290206002015491965050600160a060020a0316159150612d2d905057600080fd5b6000838152601860205260409020838155601654909250612d5790620f424063ffffffff6131d716565b600183810191825560028401805473ffffffffffffffffffffffffffffffffffffffff1916600160a060020a03891690811790915560038501878155600082815260196020908152604080832080549687018155835281832086018a9055848352601a82528083208a84528252808320869055938252601b81528382205460128252918490205495549254845160e060020a635d8d94610281526004810193909352602483019690965260448201929092526064810194909452905191935073__AOLibrary_____________________________92635d8d94619260848083019392829003018186803b158015612e4d57600080fd5b505af4158015612e61573d6000803e3d6000fd5b505050506040513d6020811015612e7757600080fd5b5051600160a060020a0386166000908152601b6020526040902055612e9c8585613568565b1515612ea757600080fd5b81546002830154600184015460038501546040805192835260208301919091528051600160a060020a03909316927f516066f761a431d16b9e8d52e777640dcc66f5231c174577529f12b67d0d41579281900390910190a35050505050565b600160a060020a038216600090815260066020526040902054612f2f908263ffffffff612c0816565b600160a060020a038316600090815260066020526040902055600554612f5b908263ffffffff612c0816565b60055560408051828152905130916000917fddf252ad1be2c89b69c2b068fc378daa952ba7f163c4a11628f55a4df523b3ef9181900360200190a3604080518281529051600160a060020a0384169130917fddf252ad1be2c89b69c2b068fc378daa952ba7f163c4a11628f55a4df523b3ef9181900360200190a35050565b6000600160a060020a0383161515612ff157600080fd5b600160a060020a03841660009081526006602052604090205482111561301657600080fd5b600160a060020a03831660009081526006602052604090205461303f818463ffffffff612c0816565b101561304a57600080fd5b600160a060020a0384166000908152600b602052604090205460ff161561307057600080fd5b600160a060020a0383166000908152600b602052604090205460ff161561309657600080fd5b600160a060020a038084166000908152600660205260408082205492871682529020546130c89163ffffffff612c0816565b600160a060020a0385166000908152600660205260409020549091506130f4908363ffffffff612c1516565b600160a060020a038086166000908152600660205260408082209390935590851681522054613129908363ffffffff612c0816565b600160a060020a0380851660008181526006602090815260409182902094909455805186815290519193928816927fddf252ad1be2c89b69c2b068fc378daa952ba7f163c4a11628f55a4df523b3ef92918290030190a3600160a060020a0380841660009081526006602052604080822054928716825290205482916131b5919063ffffffff612c0816565b146131bc57fe5b50505050565b600081838115156131cf57fe5b049392505050565b60008215156131e857506000610ee2565b508181028183828115156131f857fe5b0414610ee257fe5b6000808080600160a060020a038716151561321a57600080fd5b6000861161322757600080fd5b6015805460010190819055604080516c01000000000000000000000000308102602080840191909152600160a060020a038c16909102603483015260488083019490945282518083039094018452606890910191829052825182918401908083835b602083106132a85780518252601f199092019160209182019101613289565b51815160209384036101000a60001901801990921691161790526040805192909401829003909120600081815260189092529290206002015491965050600160a060020a03161591506132fc905057600080fd5b5050600081815260186020908152604080832084815560018082019790975560028101805473ffffffffffffffffffffffffffffffffffffffff1916600160a060020a039a909a16998a17905560030196909655868252601981528582208054958601815582528082208501839055958152601a86528481208282529095529290932055919050565b600080600160a060020a038416151561339d57600080fd5b600160a060020a0385166000908152601260205260409020548311156133c257600080fd5b600160a060020a0384166000908152601260205260409020546133eb818563ffffffff612c0816565b10156133f657600080fd5b600160a060020a0385166000908152600b602052604090205460ff161561341c57600080fd5b600160a060020a0384166000908152600b602052604090205460ff161561344257600080fd5b600160a060020a038085166000908152601260205260408082205492881682529020546134749163ffffffff612c0816565b600160a060020a0386166000908152601260205260409020549091506134a0908463ffffffff612c1516565b600160a060020a0380871660009081526012602052604080822093909355908616815220546134d5908463ffffffff612c0816565b600160a060020a0380861660008181526012602090815260409182902094909455805187815290519193928916927fa906a7bdab67ba77819fbd926440353e67b66c398aaeffd1fd212ddae941bbe292918290030190a3600160a060020a038085166000908152601260205260408082205492881682529020548291613561919063ffffffff612c0816565b146112b657fe5b600160a060020a038216600090815260126020526040812054613591908363ffffffff612c0816565b600160a060020a038416600090815260126020526040902055600e546135bd908363ffffffff612c0816565b600e5560408051838152905130916000917fa906a7bdab67ba77819fbd926440353e67b66c398aaeffd1fd212ddae941bbe29181900360200190a3604080518381529051600160a060020a0385169130917fa906a7bdab67ba77819fbd926440353e67b66c398aaeffd1fd212ddae941bbe29181900360200190a350600192915050565b604080516080810182526000808252602082018190529181018290526060810191909152905600a165627a7a72305820db2dbbd4af4904806d3b4374d47f245d2ee99dc2132a76715b712bbd553889ee0029",
	"source": "pragma solidity ^0.4.24;\n\nimport './SafeMath.sol';\nimport './developed.sol';\nimport './TokenERC20.sol';\nimport './tokenRecipient.sol';\nimport './AOLibrary.sol';\n\n/**\n * @title AOToken\n */\ncontract AOToken is developed, TokenERC20 {\n\tusing SafeMath for uint256;\n\n\t// To differentiate denomination of AO\n\tuint256 public powerOfTen;\n\n\t/***** NETWORK TOKEN VARIABLES *****/\n\tuint256 public sellPrice;\n\tuint256 public buyPrice;\n\n\tmapping (address => bool) public frozenAccount;\n\tmapping (address => uint256) public stakedBalance;\n\tmapping (address => uint256) public escrowedBalance;\n\n\t// This generates a public event on the blockchain that will notify clients\n\tevent FrozenFunds(address target, bool frozen);\n\tevent Stake(address indexed from, uint256 value);\n\tevent Unstake(address indexed from, uint256 value);\n\tevent Escrow(address indexed from, address indexed to, uint256 value);\n\tevent Unescrow(address indexed from, uint256 value);\n\n\t/***** PRIMORDIAL TOKEN VARIABLES *****/\n\tuint256 public primordialTotalSupply;\n\tuint256 public primordialSellPrice;\n\tuint256 public primordialBuyPrice;\n\tbool public networkExchangeContract;\n\n\tmapping (address => uint256) public primordialBalanceOf;\n\tmapping (address => mapping (address => uint256)) public primordialAllowance;\n\n\t// Mapping from owner's lot weighted index to the amount of staked tokens\n\tmapping (address => mapping (uint256 => uint256)) public primordialStakedBalance;\n\n\tevent PrimordialTransfer(address indexed from, address indexed to, uint256 value);\n\tevent PrimordialApproval(address indexed _owner, address indexed _spender, uint256 _value);\n\tevent PrimordialBurn(address indexed from, uint256 value);\n\tevent PrimordialStake(address indexed from, uint256 value, uint256 weightedIndex);\n\tevent PrimordialUnstake(address indexed from, uint256 value, uint256 weightedIndex);\n\n\tuint256 public totalLots;\n\tuint256 public lotIndex;\n\n\t// Max supply of 1,125,899,906,842,620 AOTKN\n\tuint256 constant public MAX_PRIMORDIAL_SUPPLY = 1125899906842620;\n\t// The amount of tokens that we want to reserve for foundation\n\tuint256 constant public TOKENS_RESERVED_FOR_FOUNDATION = 125899906842620;\n\t// Account for 6 decimal points for weighted index\n\tuint256 constant public WEIGHTED_INDEX_DIVISOR = 10 ** 6; // 1000000 = 1\n\n\tbool public foundationReserved;\n\tbool public networkExchangeEnded;\n\n\tstruct Lot {\n\t\tbytes32 lotId;\n\t\tuint256 index;\t// This value is in 10^6, so 1000000 = 1\n\t\taddress lotOwner;\n\t\tuint256 tokenAmount;\n\t}\n\n\t// Mapping from lot ID to the lot object\n\tmapping (bytes32 => Lot) internal lots;\n\n\t// Mapping from owner to list of owned lot IDs\n\tmapping (address => bytes32[]) internal ownedLots;\n\n\t// Mapping from owner's lot ID to index of the owner lots list\n\tmapping (address => mapping (bytes32 => uint256)) internal ownedLotsIndex;\n\n\t// Mapping from owner to his/her current weighted index\n\tmapping (address => uint256) internal ownerWeightedIndex;\n\n\t// Event to be broadcasted to public when a lot is created\n\t// index value is in 10^6 to account for decimal points\n\tevent LotCreation(address indexed lotOwner, bytes32 indexed lotId, uint256 index, uint256 tokenAmount);\n\n\t/**\n\t * @dev Constructor function\n\t */\n\tconstructor(uint256 initialSupply, string tokenName, string tokenSymbol)\n\t\tTokenERC20(initialSupply, tokenName, tokenSymbol) public {\n\t\tpowerOfTen = 0;\n\t\tdecimals = 0;\n\t\tnetworkExchangeContract = true;\n\t\tsetPrimordialPrices(0, 10000); // Set Primordial buy price to 10000 Wei/token\n\t}\n\n\t/**\n\t * @dev Checks if this is the Primordial contract\n\t */\n\tmodifier isNetworkExchange {\n\t\trequire (networkExchangeContract == true);\n\t\t_;\n\t}\n\n\t/***** DEVELOPER ONLY METHODS *****/\n\t/***** NETWORK TOKEN DEVELOPER ONLY METHODS *****/\n\t/**\n\t * @dev Prevent/Allow target from sending & receiving tokens\n\t * @param target Address to be frozen\n\t * @param freeze Either to freeze it or not\n\t */\n\tfunction freezeAccount(address target, bool freeze) public onlyDeveloper {\n\t\tfrozenAccount[target] = freeze;\n\t\temit FrozenFunds(target, freeze);\n\t}\n\n\t/**\n\t * @dev Allow users to buy tokens for `newBuyPrice` eth and sell tokens for `newSellPrice` eth\n\t * @param newSellPrice Price users can sell to the contract\n\t * @param newBuyPrice Price users can buy from the contract\n\t */\n\tfunction setPrices(uint256 newSellPrice, uint256 newBuyPrice) public onlyDeveloper {\n\t\tsellPrice = newSellPrice;\n\t\tbuyPrice = newBuyPrice;\n\t}\n\n\t/**\n\t * @dev Create `mintedAmount` tokens and send it to `target`\n\t * @param target Address to receive the tokens\n\t * @param mintedAmount The amount of tokens it will receive\n\t * @return true on success\n\t */\n\tfunction mintToken(address target, uint256 mintedAmount) public inWhitelist(msg.sender) returns (bool) {\n\t\t_mintToken(target, mintedAmount);\n\t\treturn true;\n\t}\n\n\t/**\n\t * @dev Stake `_value` tokens on behalf of `_from`\n\t * @param _from The address of the target\n\t * @param _value The amount to stake\n\t * @return true on success\n\t */\n\tfunction stakeFrom(address _from, uint256 _value) public inWhitelist(msg.sender) returns (bool) {\n\t\trequire (balanceOf[_from] >= _value);\t\t\t\t\t\t// Check if the targeted balance is enough\n\t\tbalanceOf[_from] = balanceOf[_from].sub(_value);\t\t\t// Subtract from the targeted balance\n\t\tstakedBalance[_from] = stakedBalance[_from].add(_value);\t// Add to the targeted staked balance\n\t\temit Stake(_from, _value);\n\t\treturn true;\n\t}\n\n\t/**\n\t * @dev Unstake `_value` tokens on behalf of `_from`\n\t * @param _from The address of the target\n\t * @param _value The amount to unstake\n\t * @return true on success\n\t */\n\tfunction unstakeFrom(address _from, uint256 _value) public inWhitelist(msg.sender) returns (bool) {\n\t\trequire (stakedBalance[_from] >= _value);\t\t\t\t\t// Check if the targeted staked balance is enough\n\t\tstakedBalance[_from] = stakedBalance[_from].sub(_value);\t// Subtract from the targeted staked balance\n\t\tbalanceOf[_from] = balanceOf[_from].add(_value);\t\t\t// Add to the targeted balance\n\t\temit Unstake(_from, _value);\n\t\treturn true;\n\t}\n\n\t/**\n\t * @dev Store `_value` from `_from` to `_to` in escrow\n\t * @param _from The address of the sender\n\t * @param _to The address of the recipient\n\t * @param _value The amount of network tokens to put in escrow\n\t * @return true on success\n\t */\n\tfunction escrowFrom(address _from, address _to, uint256 _value) public inWhitelist(msg.sender) returns (bool) {\n\t\trequire (balanceOf[_from] >= _value);\t\t\t\t\t\t// Check if the targeted balance is enough\n\t\tbalanceOf[_from] = balanceOf[_from].sub(_value);\t\t\t// Subtract from the targeted balance\n\t\tescrowedBalance[_to] = escrowedBalance[_to].add(_value);\t// Add to the targeted escrowed balance\n\t\temit Escrow(_from, _to, _value);\n\t\treturn true;\n\t}\n\n\t/**\n\t * @dev Create `mintedAmount` tokens and send it to `target` escrow balance\n\t * @param target Address to receive the tokens\n\t * @param mintedAmount The amount of tokens it will receive in escrow\n\t */\n\tfunction mintTokenEscrow(address target, uint256 mintedAmount) public inWhitelist(msg.sender) returns (bool) {\n\t\tescrowedBalance[target] = escrowedBalance[target].add(mintedAmount);\n\t\ttotalSupply = totalSupply.add(mintedAmount);\n\t\temit Escrow(this, target, mintedAmount);\n\t\treturn true;\n\t}\n\n\t/**\n\t * @dev Release escrowed `_value` from `_from`\n\t * @param _from The address of the sender\n\t * @param _value The amount of escrowed network tokens to be released\n\t * @return true on success\n\t */\n\tfunction unescrowFrom(address _from, uint256 _value) public inWhitelist(msg.sender) returns (bool) {\n\t\trequire (escrowedBalance[_from] >= _value);\t\t\t\t\t\t// Check if the targeted escrowed balance is enough\n\t\tescrowedBalance[_from] = escrowedBalance[_from].sub(_value);\t// Subtract from the targeted escrowed balance\n\t\tbalanceOf[_from] = balanceOf[_from].add(_value);\t\t\t\t// Add to the targeted balance\n\t\temit Unescrow(_from, _value);\n\t\treturn true;\n\t}\n\n\t/**\n\t *\n\t * @dev Whitelisted address remove `_value` tokens from the system irreversibly on behalf of `_from`.\n\t *\n\t * @param _from the address of the sender\n\t * @param _value the amount of money to burn\n\t */\n\tfunction whitelistBurnFrom(address _from, uint256 _value) public inWhitelist(msg.sender) returns (bool success) {\n\t\trequire(balanceOf[_from] >= _value);                // Check if the targeted balance is enough\n\t\tbalanceOf[_from] = balanceOf[_from].sub(_value);    // Subtract from the targeted balance\n\t\ttotalSupply = totalSupply.sub(_value);              // Update totalSupply\n\t\temit Burn(_from, _value);\n\t\treturn true;\n\t}\n\n\t/***** PRIMORDIAL TOKEN DEVELOPER ONLY METHODS *****/\n\t/**\n\t * @dev Allow users to buy Primordial tokens for `newBuyPrice` eth and sell Primordial tokens for `newSellPrice` eth\n\t * @param newPrimordialSellPrice Price users can sell to the contract\n\t * @param newPrimordialBuyPrice Price users can buy from the contract\n\t */\n\tfunction setPrimordialPrices(uint256 newPrimordialSellPrice, uint256 newPrimordialBuyPrice) public onlyDeveloper isNetworkExchange {\n\t\tprimordialSellPrice = newPrimordialSellPrice;\n\t\tprimordialBuyPrice = newPrimordialBuyPrice;\n\t}\n\n\t/**\n\t * @dev Reserve some tokens for the Foundation\n\t */\n\tfunction reserveForFoundation() public onlyDeveloper isNetworkExchange {\n\t\trequire (networkExchangeEnded == false);\n\t\trequire (foundationReserved == false);\n\t\trequire (primordialTotalSupply < MAX_PRIMORDIAL_SUPPLY);\n\n\t\tfoundationReserved = true;\n\t\tuint256 tokenAmount = TOKENS_RESERVED_FOR_FOUNDATION;\n\n\t\tif (primordialTotalSupply.add(tokenAmount) >= MAX_PRIMORDIAL_SUPPLY) {\n\t\t\ttokenAmount = MAX_PRIMORDIAL_SUPPLY.sub(primordialTotalSupply);\n\t\t\tnetworkExchangeEnded = true;\n\t\t}\n\n\t\t_createPrimordialLot(msg.sender, tokenAmount);\n\n\t\t// Also mint equal network tokens for the foundation\n\t\t_mintToken(msg.sender, tokenAmount);\n\t}\n\n\t/**\n\t * @dev Stake `_value` Primordial tokens at `_weightedIndex ` index on behalf of `_from`\n\t * @param _from The address of the target\n\t * @param _value The amount of Primordial tokens to stake\n\t * @param _weightedIndex The weighted index of the Primordial tokens\n\t * @return true on success\n\t */\n\tfunction stakePrimordialTokenFrom(address _from, uint256 _value, uint256 _weightedIndex) public inWhitelist(msg.sender) isNetworkExchange returns (bool) {\n\t\t// Check if the targeted balance is enough\n\t\trequire (primordialBalanceOf[_from] >= _value);\n\t\t// Make sure the weighted index is the same as account's current weighted index\n\t\trequire (_weightedIndex == ownerWeightedIndex[_from]);\n\t\t// Subtract from the targeted balance\n\t\tprimordialBalanceOf[_from] = primordialBalanceOf[_from].sub(_value);\n\t\t// Add to the targeted staked balance\n\t\tprimordialStakedBalance[_from][_weightedIndex] = primordialStakedBalance[_from][_weightedIndex].add(_value);\n\t\temit PrimordialStake(_from, _value, _weightedIndex);\n\t\treturn true;\n\t}\n\n\t/**\n\t * @dev Unstake `_value` Primordial tokens at `_weightedIndex` on behalf of `_from`\n\t * @param _from The address of the target\n\t * @param _value The amount to unstake\n\t * @param _weightedIndex The weighted index of the Primordial tokens\n\t * @return true on success\n\t */\n\tfunction unstakePrimordialTokenFrom(address _from, uint256 _value, uint256 _weightedIndex) public inWhitelist(msg.sender) isNetworkExchange returns (bool) {\n\t\t// Check if the targeted staked balance is enough\n\t\trequire (primordialStakedBalance[_from][_weightedIndex] >= _value);\n\n\t\t// Subtract from the targeted staked balance\n\t\tprimordialStakedBalance[_from][_weightedIndex] = primordialStakedBalance[_from][_weightedIndex].sub(_value);\n\n\t\t// Recalculate owner weighted index\n\t\townerWeightedIndex[_from] = AOLibrary.calculateWeightedIndex(ownerWeightedIndex[_from], primordialBalanceOf[_from], _weightedIndex, _value);\n\n\t\t// Add to the targeted balance\n\t\tprimordialBalanceOf[_from] = primordialBalanceOf[_from].add(_value);\n\n\t\temit PrimordialUnstake(_from, _value, _weightedIndex);\n\t\treturn true;\n\t}\n\n\t/***** PUBLIC METHODS *****/\n\t/***** NETWORK TOKEN PUBLIC METHODS *****/\n\t/**\n\t * @dev Buy tokens from contract by sending ether\n\t */\n\tfunction buy() public payable {\n\t\trequire (buyPrice > 0);\n\t\tuint256 amount = msg.value.div(buyPrice);\n\t\t_transfer(this, msg.sender, amount);\n\t}\n\n\t/**\n\t * @dev Sell `amount` tokens to contract\n\t * @param amount The amount of tokens to be sold\n\t */\n\tfunction sell(uint256 amount) public {\n\t\trequire (sellPrice > 0);\n\t\taddress myAddress = this;\n\t\trequire (myAddress.balance >= amount.mul(sellPrice));\n\t\t_transfer(msg.sender, this, amount);\n\t\tmsg.sender.transfer(amount.mul(sellPrice));\n\t}\n\n\t/***** Primordial TOKEN PUBLIC METHODS *****/\n\t/**\n\t * @dev Buy Primordial tokens from contract by sending ether\n\t */\n\tfunction buyPrimordialToken() public payable isNetworkExchange {\n\t\trequire (networkExchangeEnded == false);\n\t\trequire (primordialTotalSupply < MAX_PRIMORDIAL_SUPPLY);\n\t\trequire (primordialBuyPrice > 0);\n\t\trequire (msg.value > 0);\n\n\t\t// Calculate the amount of tokens\n\t\tuint256 tokenAmount = msg.value.div(primordialBuyPrice);\n\n\t\tuint256 remainderEth = 0;\n\n\t\t// Make sure primordialTotalSupply is not overflowing\n\t\tif (primordialTotalSupply.add(tokenAmount) >= MAX_PRIMORDIAL_SUPPLY) {\n\t\t\ttokenAmount = MAX_PRIMORDIAL_SUPPLY.sub(primordialTotalSupply);\n\t\t\tnetworkExchangeEnded = true;\n\t\t\tremainderEth = msg.value.sub(tokenAmount.mul(primordialBuyPrice));\n\t\t}\n\n\t\t_createPrimordialLot(msg.sender, tokenAmount);\n\n\t\t// Also mint equal network tokens for the buyer\n\t\t_mintToken(msg.sender, tokenAmount);\n\n\t\tif (remainderEth > 0) {\n\t\t\tmsg.sender.transfer(remainderEth);\n\t\t}\n\t}\n\n\t/**\n\t * @dev Send `_value` Primordial tokens to `_to` from your account\n\t * @param _to The address of the recipient\n\t * @param _value The amount to send\n\t * @return true on success\n\t */\n\tfunction transferPrimordialToken(address _to, uint256 _value) public isNetworkExchange returns (bool success) {\n\t\tbytes32 _createdLotId = _createWeightedIndexLot(_to, _value, ownerWeightedIndex[msg.sender]);\n\t\tLot memory _lot = lots[_createdLotId];\n\n\t\t// Make sure the new lot is created successfully\n\t\trequire (_lot.lotOwner == _to);\n\n\t\t// Update the weighted index of the recipient\n\t\townerWeightedIndex[_to] = AOLibrary.calculateWeightedIndex(ownerWeightedIndex[_to], primordialBalanceOf[_to], ownerWeightedIndex[msg.sender], _value);\n\n\t\t// Transfer the Primordial tokens\n\t\trequire (_transferPrimordialToken(msg.sender, _to, _value));\n\t\temit LotCreation(_lot.lotOwner, _lot.lotId, _lot.index, _lot.tokenAmount);\n\t\treturn true;\n\t}\n\n\t/**\n\t * @dev Send `_value` Primordial tokens to `_to` from `_from`\n\t * @param _from The address of the sender\n\t * @param _to The address of the recipient\n\t * @param _value The amount to send\n\t * @return true on success\n\t */\n\tfunction transferPrimordialTokenFrom(address _from, address _to, uint256 _value) public isNetworkExchange returns (bool success) {\n\t\trequire (_value <= primordialAllowance[_from][msg.sender]);\n\t\tprimordialAllowance[_from][msg.sender] = primordialAllowance[_from][msg.sender].sub(_value);\n\n\t\tbytes32 _createdLotId = _createWeightedIndexLot(_to, _value, ownerWeightedIndex[_from]);\n\t\tLot memory _lot = lots[_createdLotId];\n\n\t\t// Make sure the new lot is created successfully\n\t\trequire (_lot.lotOwner == _to);\n\n\t\t// Update the weighted index of the recipient\n\t\townerWeightedIndex[_to] = AOLibrary.calculateWeightedIndex(ownerWeightedIndex[_to], primordialBalanceOf[_to], ownerWeightedIndex[_from], _value);\n\n\t\t// Transfer the Primordial tokens\n\t\trequire (_transferPrimordialToken(_from, _to, _value));\n\t\temit LotCreation(_lot.lotOwner, _lot.lotId, _lot.index, _lot.tokenAmount);\n\t\treturn true;\n\t}\n\n\t/**\n\t * @dev Allows `_spender` to spend no more than `_value` Primordial tokens in your behalf\n\t * @param _spender The address authorized to spend\n\t * @param _value The max amount they can spend\n\t * @return true on success\n\t */\n\tfunction approvePrimordialToken(address _spender, uint256 _value) public isNetworkExchange returns (bool success) {\n\t\tprimordialAllowance[msg.sender][_spender] = _value;\n\t\temit PrimordialApproval(msg.sender, _spender, _value);\n\t\treturn true;\n\t}\n\n\t/**\n\t * @dev Allows `_spender` to spend no more than `_value` Primordial tokens in your behalf, and then ping the contract about it\n\t * @param _spender The address authorized to spend\n\t * @param _value The max amount they can spend\n\t * @param _extraData some extra information to send to the approved contract\n\t * @return true on success\n\t */\n\tfunction approvePrimordialTokenAndCall(address _spender, uint256 _value, bytes _extraData) public isNetworkExchange returns (bool success) {\n\t\ttokenRecipient spender = tokenRecipient(_spender);\n\t\tif (approvePrimordialToken(_spender, _value)) {\n\t\t\tspender.receiveApproval(msg.sender, _value, this, _extraData);\n\t\t\treturn true;\n\t\t}\n\t}\n\n\t/**\n\t * @dev Remove `_value` Primordial tokens from the system irreversibly\n\t * @param _value The amount to burn\n\t * @return true on success\n\t */\n\tfunction burnPrimordialToken(uint256 _value) public isNetworkExchange returns (bool success) {\n\t\trequire (primordialBalanceOf[msg.sender] >= _value);\n\t\tprimordialBalanceOf[msg.sender] = primordialBalanceOf[msg.sender].sub(_value);\n\t\tprimordialTotalSupply = primordialTotalSupply.sub(_value);\n\t\temit PrimordialBurn(msg.sender, _value);\n\t\treturn true;\n\t}\n\n\t/**\n\t * @dev Remove `_value` Primordial tokens from the system irreversibly on behsalf of `_from`\n\t * @param _from The address of sender\n\t * @param _value The amount to burn\n\t * @return true on success\n\t */\n\tfunction burnPrimordialTokenFrom(address _from, uint256 _value) public isNetworkExchange returns (bool success) {\n\t\trequire (primordialBalanceOf[_from] >= _value);\n\t\trequire (_value <= primordialAllowance[_from][msg.sender]);\n\t\tprimordialBalanceOf[_from] = primordialBalanceOf[_from].sub(_value);\n\t\tprimordialAllowance[_from][msg.sender] = primordialAllowance[_from][msg.sender].sub(_value);\n\t\tprimordialTotalSupply = primordialTotalSupply.sub(_value);\n\t\temit PrimordialBurn(_from, _value);\n\t\treturn true;\n\t}\n\n\t/**\n\t * @dev Return all lot IDs owned by an address\n\t * @param _lotOwner The address of the lot owner\n\t * @return array of lot IDs\n\t */\n\tfunction lotsByAddress(address _lotOwner) public isNetworkExchange view returns (bytes32[]) {\n\t\treturn ownedLots[_lotOwner];\n\t}\n\n\t/**\n\t * @dev Return the total lots owned by an address\n\t * @param _lotOwner The address of the lot owner\n\t * @return total lots owner by the address\n\t */\n\tfunction totalLotsByAddress(address _lotOwner) public isNetworkExchange view returns (uint256) {\n\t\treturn ownedLots[_lotOwner].length;\n\t}\n\n\t/**\n\t * @dev Return the lot information at a given index of the lots list of the requested owner\n\t * @param _lotOwner The address owning the lots list to be accessed\n\t * @param _index uint256 representing the index to be accessed of the requested lots list\n\t * @return id of the lot\n\t * @return index of the lot in (10 ** 6)\n\t * @return Primordial token amount in the lot\n\t */\n\tfunction lotOfOwnerByIndex(address _lotOwner, uint256 _index) public isNetworkExchange view returns (bytes32, uint256, uint256) {\n\t\trequire (_index < ownedLots[_lotOwner].length);\n\t\tLot memory _lot = lots[ownedLots[_lotOwner][_index]];\n\t\treturn (_lot.lotId, _lot.index, _lot.tokenAmount);\n\t}\n\n\t/**\n\t * @dev Return the lot information at a given ID\n\t * @param _lotId The lot ID in question\n\t * @return id of the lot\n\t * @return index of the lot in (10 ** 6)\n\t * @return Primordial token amount in the lot\n\t */\n\tfunction lotById(bytes32 _lotId) public isNetworkExchange view returns (bytes32, uint256, uint256) {\n\t\tLot memory _lot = lots[_lotId];\n\t\treturn (_lot.lotId, _lot.index, _lot.tokenAmount);\n\t}\n\n\t/**\n\t * @dev Return the average weighted index of all lots owned by an address\n\t * @param _lotOwner The address of the lot owner\n\t * @return the weighted index of the address (in 10 ** 6)\n\t */\n\tfunction weightedIndexByAddress(address _lotOwner) public isNetworkExchange view returns (uint256) {\n\t\treturn ownerWeightedIndex[_lotOwner];\n\t}\n\n\t/***** NETWORK TOKEN & PRIMORDIAL TOKEN METHODS *****/\n\t/**\n\t * @dev Send `_value` network tokens and `_primordialValue` primordial tokens to `_to` from your account\n\t * @param _to The address of the recipient\n\t * @param _value The amount of network tokens to send\n\t * @param _primordialValue The amount of Primordial tokens to send\n\t * @return true on success\n\t */\n\tfunction transferTokens(address _to, uint256 _value, uint256 _primordialValue) public isNetworkExchange returns (bool success) {\n\t\trequire (super.transfer(_to, _value));\n\t\trequire (transferPrimordialToken(_to, _primordialValue));\n\t\treturn true;\n\t}\n\n\t/**\n\t * @dev Send `_value` network tokens and `_primordialValue` primordial tokens to `_to` from `_from`\n\t * @param _from The address of the sender\n\t * @param _to The address of the recipient\n\t * @param _value The amount of network tokens tokens to send\n\t * @param _primordialValue The amount of Primordial tokens to send\n\t * @return true on success\n\t */\n\tfunction transferTokensFrom(address _from, address _to, uint256 _value, uint256 _primordialValue) public isNetworkExchange returns (bool success) {\n\t\trequire (super.transferFrom(_from, _to, _value));\n\t\trequire (transferPrimordialTokenFrom(_from, _to, _primordialValue));\n\t\treturn true;\n\t}\n\n\t/**\n\t * @dev Allows `_spender` to spend no more than `_value` network tokens and `_primordialValue` Primordial tokens in your behalf\n\t * @param _spender The address authorized to spend\n\t * @param _value The max amount of network tokens they can spend\n\t * @param _primordialValue The max amount of network tokens they can spend\n\t * @return true on success\n\t */\n\tfunction approveTokens(address _spender, uint256 _value, uint256 _primordialValue) public isNetworkExchange returns (bool success) {\n\t\trequire (super.approve(_spender, _value));\n\t\trequire (approvePrimordialToken(_spender, _primordialValue));\n\t\treturn true;\n\t}\n\n\t/**\n\t * @dev Allows `_spender` to spend no more than `_value` network tokens and `_primordialValue` Primordial tokens in your behalf, and then ping the contract about it\n\t * @param _spender The address authorized to spend\n\t * @param _value The max amount of network tokens they can spend\n\t * @param _primordialValue The max amount of Primordial Tokens they can spend\n\t * @param _extraData some extra information to send to the approved contract\n\t * @return true on success\n\t */\n\tfunction approveTokensAndCall(address _spender, uint256 _value, uint256 _primordialValue, bytes _extraData) public isNetworkExchange returns (bool success) {\n\t\trequire (super.approveAndCall(_spender, _value, _extraData));\n\t\trequire (approvePrimordialTokenAndCall(_spender, _primordialValue, _extraData));\n\t\treturn true;\n\t}\n\n\t/**\n\t * @dev Remove `_value` network tokens and `_primordialValue` Primordial tokens from the system irreversibly\n\t * @param _value The amount of network tokens to burn\n\t * @param _primordialValue The amount of Primordial tokens to burn\n\t * @return true on success\n\t */\n\tfunction burnTokens(uint256 _value, uint256 _primordialValue) public isNetworkExchange returns (bool success) {\n\t\trequire (super.burn(_value));\n\t\trequire (burnPrimordialToken(_primordialValue));\n\t\treturn true;\n\t}\n\n\t/**\n\t * @dev Remove `_value` network tokens and `_primordialValue` Primordial tokens from the system irreversibly on behsalf of `_from`\n\t * @param _from The address of sender\n\t * @param _value The amount of network tokens to burn\n\t * @param _primordialValue The amount of Primordial tokens to burn\n\t * @return true on success\n\t */\n\tfunction burnTokensFrom(address _from, uint256 _value, uint256 _primordialValue) public isNetworkExchange returns (bool success) {\n\t\trequire (super.burnFrom(_from, _value));\n\t\trequire (burnPrimordialTokenFrom(_from, _primordialValue));\n\t\treturn true;\n\t}\n\n\t/***** INTERNAL METHODS *****/\n\t/***** NETWORK TOKENS INTERNAL METHODS *****/\n\t/**\n\t * @dev Send `_value` tokens from `_from` to `_to`\n\t * @param _from The address of sender\n\t * @param _to The address of the recipient\n\t * @param _value The amount to send\n\t */\n\tfunction _transfer(address _from, address _to, uint256 _value) internal {\n\t\trequire (_to != address(0));\t\t\t\t\t\t\t// Prevent transfer to 0x0 address. Use burn() instead\n\t\trequire (balanceOf[_from] >= _value);\t\t\t\t\t// Check if the sender has enough\n\t\trequire (balanceOf[_to].add(_value) >= balanceOf[_to]); // Check for overflows\n\t\trequire (!frozenAccount[_from]);\t\t\t\t\t\t// Check if sender is frozen\n\t\trequire (!frozenAccount[_to]);\t\t\t\t\t\t\t// Check if recipient is frozen\n\t\tuint256 previousBalances = balanceOf[_from].add(balanceOf[_to]);\n\t\tbalanceOf[_from] = balanceOf[_from].sub(_value);        // Subtract from the sender\n\t\tbalanceOf[_to] = balanceOf[_to].add(_value);            // Add the same to the recipient\n\t\temit Transfer(_from, _to, _value);\n\t\tassert(balanceOf[_from].add(balanceOf[_to]) == previousBalances);\n\t}\n\n\t/**\n\t * @dev Create `mintedAmount` tokens and send it to `target`\n\t * @param target Address to receive the tokens\n\t * @param mintedAmount The amount of tokens it will receive\n\t */\n\tfunction _mintToken(address target, uint256 mintedAmount) internal {\n\t\tbalanceOf[target] = balanceOf[target].add(mintedAmount);\n\t\ttotalSupply = totalSupply.add(mintedAmount);\n\t\temit Transfer(0, this, mintedAmount);\n\t\temit Transfer(this, target, mintedAmount);\n\t}\n\n\t/***** PRIMORDIAL TOKEN INTERNAL METHODS *****/\n\t/**\n\t * @dev Create a lot with `tokenAmount` of tokens for an `account` during Primordial\n\t * @param _account Address of the lot owner\n\t * @param _tokenAmount The amount of tokens to be stored in the lot\n\t */\n\tfunction _createPrimordialLot(address _account, uint256 _tokenAmount) internal {\n\t\trequire (_account != address(0));\n\t\trequire (_tokenAmount > 0);\n\n\t\ttotalLots++;\n\t\tlotIndex++;\n\n\t\t// Generate lotId\n\t\tbytes32 lotId = keccak256(abi.encodePacked(this, _account, totalLots));\n\n\t\t// Make sure no one owns this lot yet\n\t\trequire (lots[lotId].lotOwner == address(0));\n\n\t\tLot storage lot = lots[lotId];\n\t\tlot.lotId = lotId;\n\t\tlot.index = lotIndex.mul(WEIGHTED_INDEX_DIVISOR);\n\t\tlot.lotOwner = _account;\n\t\tlot.tokenAmount = _tokenAmount;\n\t\tuint256 lotIdIndex = ownedLots[_account].length;\n\t\townedLots[_account].push(lotId);\n\t\townedLotsIndex[_account][lotId] = lotIdIndex;\n\t\townerWeightedIndex[_account] = AOLibrary.calculateWeightedIndex(ownerWeightedIndex[_account], primordialBalanceOf[_account], lot.index, lot.tokenAmount);\n\t\trequire (_mintPrimordialToken(_account, _tokenAmount));\n\t\temit LotCreation(lot.lotOwner, lot.lotId, lot.index, lot.tokenAmount);\n\t}\n\n\t/**\n\t * @dev Create `mintedAmount` Primordial tokens and send it to `target`\n\t * @param target Address to receive the Primordial tokens\n\t * @param mintedAmount The amount of Primordial tokens it will receive\n\t * @return true on success\n\t */\n\tfunction _mintPrimordialToken(address target, uint256 mintedAmount) internal returns (bool) {\n\t\tprimordialBalanceOf[target] = primordialBalanceOf[target].add(mintedAmount);\n\t\tprimordialTotalSupply = primordialTotalSupply.add(mintedAmount);\n\t\temit PrimordialTransfer(0, this, mintedAmount);\n\t\temit PrimordialTransfer(this, target, mintedAmount);\n\t\treturn true;\n\t}\n\n\t/**\n\t * @dev Create a lot with `tokenAmount` of tokens at `weightedIndex` for an `account`\n\t * @param _account Address of lot owner\n\t * @param _tokenAmount The amount of tokens\n\t * @param _weightedIndex The index of the lot (in 10^6)\n\t * @return bytes32 of new created lot ID\n\t */\n\tfunction _createWeightedIndexLot(address _account, uint256 _tokenAmount, uint256 _weightedIndex) internal returns (bytes32) {\n\t\trequire (_account != address(0));\n\t\trequire (_tokenAmount > 0);\n\n\t\ttotalLots++;\n\n\t\t// Generate lotId\n\t\tbytes32 lotId = keccak256(abi.encodePacked(this, _account, totalLots));\n\n\t\t// Make sure no one owns this lot yet\n\t\trequire (lots[lotId].lotOwner == address(0));\n\n\t\tLot storage lot = lots[lotId];\n\t\tlot.lotId = lotId;\n\t\tlot.index = _weightedIndex;\n\t\tlot.lotOwner = _account;\n\t\tlot.tokenAmount = _tokenAmount;\n\t\tuint256 lotIdIndex = ownedLots[_account].length;\n\t\townedLots[_account].push(lotId);\n\t\townedLotsIndex[_account][lotId] = lotIdIndex;\n\t\treturn lotId;\n\t}\n\n\t/**\n\t * @dev Send `_value` Primordial tokens from `_from` to `_to`\n\t * @param _from The address of sender\n\t * @param _to The address of the recipient\n\t * @param _value The amount to send\n\t */\n\tfunction _transferPrimordialToken(address _from, address _to, uint256 _value) internal returns (bool) {\n\t\trequire (_to != address(0));\t\t\t\t\t\t\t\t\t// Prevent transfer to 0x0 address. Use burn() instead\n\t\trequire (primordialBalanceOf[_from] >= _value);\t\t\t\t\t\t// Check if the sender has enough\n\t\trequire (primordialBalanceOf[_to].add(_value) >= primordialBalanceOf[_to]);\t// Check for overflows\n\t\trequire (!frozenAccount[_from]);\t\t\t\t\t\t\t\t// Check if sender is frozen\n\t\trequire (!frozenAccount[_to]);\t\t\t\t\t\t\t\t\t// Check if recipient is frozen\n\t\tuint256 previousBalances = primordialBalanceOf[_from].add(primordialBalanceOf[_to]);\n\t\tprimordialBalanceOf[_from] = primordialBalanceOf[_from].sub(_value);\t\t\t// Subtract from the sender\n\t\tprimordialBalanceOf[_to] = primordialBalanceOf[_to].add(_value);\t\t\t\t// Add the same to the recipient\n\t\temit PrimordialTransfer(_from, _to, _value);\n\t\tassert(primordialBalanceOf[_from].add(primordialBalanceOf[_to]) == previousBalances);\n\t\treturn true;\n\t}\n}\n",
	"sourcePath": "/home/jmulyono/ao-contracts/contracts/AOToken.sol",
	"compiler": {
		"name": "solc",
		"version": "0.4.24+commit.e67f0147.Emscripten.clang"
	},
	"schemaVersion": "2.0.1",
	"updatedAt": "2018-09-05T07:40:25.999Z"
}