{
	"contractName": "AOToken",
	"abi": [
		{
			"constant": false,
			"inputs": [
				{
					"name": "newSellPrice",
					"type": "uint256"
				},
				{
					"name": "newBuyPrice",
					"type": "uint256"
				}
			],
			"name": "setPrices",
			"outputs": [],
			"payable": false,
			"stateMutability": "nonpayable",
			"type": "function"
		},
		{
			"constant": true,
			"inputs": [],
			"name": "name",
			"outputs": [
				{
					"name": "",
					"type": "string"
				}
			],
			"payable": false,
			"stateMutability": "view",
			"type": "function"
		},
		{
			"constant": false,
			"inputs": [
				{
					"name": "_spender",
					"type": "address"
				},
				{
					"name": "_value",
					"type": "uint256"
				}
			],
			"name": "approve",
			"outputs": [
				{
					"name": "success",
					"type": "bool"
				}
			],
			"payable": false,
			"stateMutability": "nonpayable",
			"type": "function"
		},
		{
			"constant": true,
			"inputs": [],
			"name": "powerOfTen",
			"outputs": [
				{
					"name": "",
					"type": "uint256"
				}
			],
			"payable": false,
			"stateMutability": "view",
			"type": "function"
		},
		{
			"constant": true,
			"inputs": [],
			"name": "aoDevTeam1",
			"outputs": [
				{
					"name": "",
					"type": "address"
				}
			],
			"payable": false,
			"stateMutability": "view",
			"type": "function"
		},
		{
			"constant": true,
			"inputs": [
				{
					"name": "",
					"type": "address"
				},
				{
					"name": "",
					"type": "uint256"
				}
			],
			"name": "primordialStakedBalance",
			"outputs": [
				{
					"name": "",
					"type": "uint256"
				}
			],
			"payable": false,
			"stateMutability": "view",
			"type": "function"
		},
		{
			"constant": true,
			"inputs": [],
			"name": "totalSupply",
			"outputs": [
				{
					"name": "",
					"type": "uint256"
				}
			],
			"payable": false,
			"stateMutability": "view",
			"type": "function"
		},
		{
			"constant": true,
			"inputs": [],
			"name": "aoSettingAddress",
			"outputs": [
				{
					"name": "",
					"type": "address"
				}
			],
			"payable": false,
			"stateMutability": "view",
			"type": "function"
		},
		{
			"constant": false,
			"inputs": [
				{
					"name": "_from",
					"type": "address"
				},
				{
					"name": "_to",
					"type": "address"
				},
				{
					"name": "_value",
					"type": "uint256"
				}
			],
			"name": "transferFrom",
			"outputs": [
				{
					"name": "success",
					"type": "bool"
				}
			],
			"payable": false,
			"stateMutability": "nonpayable",
			"type": "function"
		},
		{
			"constant": false,
			"inputs": [
				{
					"name": "target",
					"type": "address"
				},
				{
					"name": "mintedAmount",
					"type": "uint256"
				}
			],
			"name": "mintTokenEscrow",
			"outputs": [
				{
					"name": "",
					"type": "bool"
				}
			],
			"payable": false,
			"stateMutability": "nonpayable",
			"type": "function"
		},
		{
			"constant": true,
			"inputs": [],
			"name": "primordialSellPrice",
			"outputs": [
				{
					"name": "",
					"type": "uint256"
				}
			],
			"payable": false,
			"stateMutability": "view",
			"type": "function"
		},
		{
			"constant": true,
			"inputs": [],
			"name": "totalConvertLots",
			"outputs": [
				{
					"name": "",
					"type": "uint256"
				}
			],
			"payable": false,
			"stateMutability": "view",
			"type": "function"
		},
		{
			"constant": true,
			"inputs": [],
			"name": "decimals",
			"outputs": [
				{
					"name": "",
					"type": "uint8"
				}
			],
			"payable": false,
			"stateMutability": "view",
			"type": "function"
		},
		{
			"constant": false,
			"inputs": [
				{
					"name": "_from",
					"type": "address"
				},
				{
					"name": "_value",
					"type": "uint256"
				}
			],
			"name": "stakeFrom",
			"outputs": [
				{
					"name": "",
					"type": "bool"
				}
			],
			"payable": false,
			"stateMutability": "nonpayable",
			"type": "function"
		},
		{
			"constant": true,
			"inputs": [],
			"name": "totalLots",
			"outputs": [
				{
					"name": "",
					"type": "uint256"
				}
			],
			"payable": false,
			"stateMutability": "view",
			"type": "function"
		},
		{
			"constant": true,
			"inputs": [],
			"name": "totalBurnLots",
			"outputs": [
				{
					"name": "",
					"type": "uint256"
				}
			],
			"payable": false,
			"stateMutability": "view",
			"type": "function"
		},
		{
			"constant": false,
			"inputs": [
				{
					"name": "_value",
					"type": "uint256"
				}
			],
			"name": "burn",
			"outputs": [
				{
					"name": "success",
					"type": "bool"
				}
			],
			"payable": false,
			"stateMutability": "nonpayable",
			"type": "function"
		},
		{
			"constant": true,
			"inputs": [],
			"name": "sellPrice",
			"outputs": [
				{
					"name": "",
					"type": "uint256"
				}
			],
			"payable": false,
			"stateMutability": "view",
			"type": "function"
		},
		{
			"constant": true,
			"inputs": [],
			"name": "nameTAOPositionAddress",
			"outputs": [
				{
					"name": "",
					"type": "address"
				}
			],
			"payable": false,
			"stateMutability": "view",
			"type": "function"
		},
		{
			"constant": true,
			"inputs": [
				{
					"name": "",
					"type": "address"
				}
			],
			"name": "escrowedBalance",
			"outputs": [
				{
					"name": "",
					"type": "uint256"
				}
			],
			"payable": false,
			"stateMutability": "view",
			"type": "function"
		},
		{
			"constant": false,
			"inputs": [
				{
					"name": "_account",
					"type": "address"
				},
				{
					"name": "_whitelist",
					"type": "bool"
				}
			],
			"name": "setWhitelist",
			"outputs": [],
			"payable": false,
			"stateMutability": "nonpayable",
			"type": "function"
		},
		{
			"constant": true,
			"inputs": [
				{
					"name": "",
					"type": "address"
				}
			],
			"name": "primordialBalanceOf",
			"outputs": [
				{
					"name": "",
					"type": "uint256"
				}
			],
			"payable": false,
			"stateMutability": "view",
			"type": "function"
		},
		{
			"constant": false,
			"inputs": [
				{
					"name": "_nameTAOPositionAddress",
					"type": "address"
				}
			],
			"name": "setNameTAOPositionAddress",
			"outputs": [],
			"payable": false,
			"stateMutability": "nonpayable",
			"type": "function"
		},
		{
			"constant": true,
			"inputs": [
				{
					"name": "",
					"type": "address"
				}
			],
			"name": "stakedBalance",
			"outputs": [
				{
					"name": "",
					"type": "uint256"
				}
			],
			"payable": false,
			"stateMutability": "view",
			"type": "function"
		},
		{
			"constant": true,
			"inputs": [],
			"name": "TOTAL_PRIMORDIAL_FOR_SALE",
			"outputs": [
				{
					"name": "",
					"type": "uint256"
				}
			],
			"payable": false,
			"stateMutability": "view",
			"type": "function"
		},
		{
			"constant": true,
			"inputs": [
				{
					"name": "",
					"type": "address"
				}
			],
			"name": "balanceOf",
			"outputs": [
				{
					"name": "",
					"type": "uint256"
				}
			],
			"payable": false,
			"stateMutability": "view",
			"type": "function"
		},
		{
			"constant": true,
			"inputs": [],
			"name": "primordialBuyPrice",
			"outputs": [
				{
					"name": "",
					"type": "uint256"
				}
			],
			"payable": false,
			"stateMutability": "view",
			"type": "function"
		},
		{
			"constant": false,
			"inputs": [
				{
					"name": "_from",
					"type": "address"
				},
				{
					"name": "_value",
					"type": "uint256"
				}
			],
			"name": "unstakeFrom",
			"outputs": [
				{
					"name": "",
					"type": "bool"
				}
			],
			"payable": false,
			"stateMutability": "nonpayable",
			"type": "function"
		},
		{
			"constant": false,
			"inputs": [
				{
					"name": "target",
					"type": "address"
				},
				{
					"name": "mintedAmount",
					"type": "uint256"
				}
			],
			"name": "mintToken",
			"outputs": [
				{
					"name": "",
					"type": "bool"
				}
			],
			"payable": false,
			"stateMutability": "nonpayable",
			"type": "function"
		},
		{
			"constant": false,
			"inputs": [
				{
					"name": "_from",
					"type": "address"
				},
				{
					"name": "_value",
					"type": "uint256"
				}
			],
			"name": "burnFrom",
			"outputs": [
				{
					"name": "success",
					"type": "bool"
				}
			],
			"payable": false,
			"stateMutability": "nonpayable",
			"type": "function"
		},
		{
			"constant": true,
			"inputs": [],
			"name": "primordialTotalSupply",
			"outputs": [
				{
					"name": "",
					"type": "uint256"
				}
			],
			"payable": false,
			"stateMutability": "view",
			"type": "function"
		},
		{
			"constant": true,
			"inputs": [],
			"name": "buyPrice",
			"outputs": [
				{
					"name": "",
					"type": "uint256"
				}
			],
			"payable": false,
			"stateMutability": "view",
			"type": "function"
		},
		{
			"constant": false,
			"inputs": [
				{
					"name": "_from",
					"type": "address"
				},
				{
					"name": "_to",
					"type": "address"
				},
				{
					"name": "_value",
					"type": "uint256"
				}
			],
			"name": "escrowFrom",
			"outputs": [
				{
					"name": "",
					"type": "bool"
				}
			],
			"payable": false,
			"stateMutability": "nonpayable",
			"type": "function"
		},
		{
			"constant": false,
			"inputs": [
				{
					"name": "_from",
					"type": "address"
				},
				{
					"name": "_value",
					"type": "uint256"
				}
			],
			"name": "unescrowFrom",
			"outputs": [
				{
					"name": "",
					"type": "bool"
				}
			],
			"payable": false,
			"stateMutability": "nonpayable",
			"type": "function"
		},
		{
			"constant": true,
			"inputs": [],
			"name": "symbol",
			"outputs": [
				{
					"name": "",
					"type": "string"
				}
			],
			"payable": false,
			"stateMutability": "view",
			"type": "function"
		},
		{
			"constant": true,
			"inputs": [
				{
					"name": "",
					"type": "address"
				}
			],
			"name": "whitelist",
			"outputs": [
				{
					"name": "",
					"type": "bool"
				}
			],
			"payable": false,
			"stateMutability": "view",
			"type": "function"
		},
		{
			"constant": false,
			"inputs": [
				{
					"name": "_from",
					"type": "address"
				},
				{
					"name": "_to",
					"type": "address"
				},
				{
					"name": "_value",
					"type": "uint256"
				}
			],
			"name": "whitelistTransferFrom",
			"outputs": [
				{
					"name": "success",
					"type": "bool"
				}
			],
			"payable": false,
			"stateMutability": "nonpayable",
			"type": "function"
		},
		{
			"constant": true,
			"inputs": [],
			"name": "networkExchangeEnded",
			"outputs": [
				{
					"name": "",
					"type": "bool"
				}
			],
			"payable": false,
			"stateMutability": "view",
			"type": "function"
		},
		{
			"constant": false,
			"inputs": [],
			"name": "buy",
			"outputs": [],
			"payable": true,
			"stateMutability": "payable",
			"type": "function"
		},
		{
			"constant": false,
			"inputs": [
				{
					"name": "_to",
					"type": "address"
				},
				{
					"name": "_value",
					"type": "uint256"
				}
			],
			"name": "transfer",
			"outputs": [
				{
					"name": "success",
					"type": "bool"
				}
			],
			"payable": false,
			"stateMutability": "nonpayable",
			"type": "function"
		},
		{
			"constant": true,
			"inputs": [],
			"name": "aoDevTeam2",
			"outputs": [
				{
					"name": "",
					"type": "address"
				}
			],
			"payable": false,
			"stateMutability": "view",
			"type": "function"
		},
		{
			"constant": true,
			"inputs": [],
			"name": "theAO",
			"outputs": [
				{
					"name": "",
					"type": "address"
				}
			],
			"payable": false,
			"stateMutability": "view",
			"type": "function"
		},
		{
			"constant": true,
			"inputs": [],
			"name": "primordialTotalBought",
			"outputs": [
				{
					"name": "",
					"type": "uint256"
				}
			],
			"payable": false,
			"stateMutability": "view",
			"type": "function"
		},
		{
			"constant": false,
			"inputs": [
				{
					"name": "_from",
					"type": "address"
				},
				{
					"name": "_value",
					"type": "uint256"
				}
			],
			"name": "whitelistBurnFrom",
			"outputs": [
				{
					"name": "success",
					"type": "bool"
				}
			],
			"payable": false,
			"stateMutability": "nonpayable",
			"type": "function"
		},
		{
			"constant": true,
			"inputs": [
				{
					"name": "",
					"type": "address"
				}
			],
			"name": "frozenAccount",
			"outputs": [
				{
					"name": "",
					"type": "bool"
				}
			],
			"payable": false,
			"stateMutability": "view",
			"type": "function"
		},
		{
			"constant": false,
			"inputs": [
				{
					"name": "_spender",
					"type": "address"
				},
				{
					"name": "_value",
					"type": "uint256"
				},
				{
					"name": "_extraData",
					"type": "bytes"
				}
			],
			"name": "approveAndCall",
			"outputs": [
				{
					"name": "success",
					"type": "bool"
				}
			],
			"payable": false,
			"stateMutability": "nonpayable",
			"type": "function"
		},
		{
			"constant": true,
			"inputs": [
				{
					"name": "",
					"type": "address"
				},
				{
					"name": "",
					"type": "address"
				}
			],
			"name": "primordialAllowance",
			"outputs": [
				{
					"name": "",
					"type": "uint256"
				}
			],
			"payable": false,
			"stateMutability": "view",
			"type": "function"
		},
		{
			"constant": true,
			"inputs": [
				{
					"name": "",
					"type": "address"
				},
				{
					"name": "",
					"type": "address"
				}
			],
			"name": "allowance",
			"outputs": [
				{
					"name": "",
					"type": "uint256"
				}
			],
			"payable": false,
			"stateMutability": "view",
			"type": "function"
		},
		{
			"constant": false,
			"inputs": [
				{
					"name": "amount",
					"type": "uint256"
				}
			],
			"name": "sell",
			"outputs": [],
			"payable": false,
			"stateMutability": "nonpayable",
			"type": "function"
		},
		{
			"constant": false,
			"inputs": [
				{
					"name": "target",
					"type": "address"
				},
				{
					"name": "freeze",
					"type": "bool"
				}
			],
			"name": "freezeAccount",
			"outputs": [],
			"payable": false,
			"stateMutability": "nonpayable",
			"type": "function"
		},
		{
			"constant": true,
			"inputs": [],
			"name": "settingTAOId",
			"outputs": [
				{
					"name": "",
					"type": "address"
				}
			],
			"payable": false,
			"stateMutability": "view",
			"type": "function"
		},
		{
			"constant": false,
			"inputs": [
				{
					"name": "_theAO",
					"type": "address"
				}
			],
			"name": "transferOwnership",
			"outputs": [],
			"payable": false,
			"stateMutability": "nonpayable",
			"type": "function"
		},
		{
			"inputs": [
				{
					"name": "initialSupply",
					"type": "uint256"
				},
				{
					"name": "tokenName",
					"type": "string"
				},
				{
					"name": "tokenSymbol",
					"type": "string"
				},
				{
					"name": "_settingTAOId",
					"type": "address"
				},
				{
					"name": "_aoSettingAddress",
					"type": "address"
				}
			],
			"payable": false,
			"stateMutability": "nonpayable",
			"type": "constructor"
		},
		{
			"anonymous": false,
			"inputs": [
				{
					"indexed": true,
					"name": "from",
					"type": "address"
				},
				{
					"indexed": true,
					"name": "to",
					"type": "address"
				},
				{
					"indexed": false,
					"name": "value",
					"type": "uint256"
				}
			],
			"name": "PrimordialTransfer",
			"type": "event"
		},
		{
			"anonymous": false,
			"inputs": [
				{
					"indexed": true,
					"name": "_owner",
					"type": "address"
				},
				{
					"indexed": true,
					"name": "_spender",
					"type": "address"
				},
				{
					"indexed": false,
					"name": "_value",
					"type": "uint256"
				}
			],
			"name": "PrimordialApproval",
			"type": "event"
		},
		{
			"anonymous": false,
			"inputs": [
				{
					"indexed": true,
					"name": "from",
					"type": "address"
				},
				{
					"indexed": false,
					"name": "value",
					"type": "uint256"
				}
			],
			"name": "PrimordialBurn",
			"type": "event"
		},
		{
			"anonymous": false,
			"inputs": [
				{
					"indexed": true,
					"name": "from",
					"type": "address"
				},
				{
					"indexed": false,
					"name": "value",
					"type": "uint256"
				},
				{
					"indexed": false,
					"name": "weightedMultiplier",
					"type": "uint256"
				}
			],
			"name": "PrimordialStake",
			"type": "event"
		},
		{
			"anonymous": false,
			"inputs": [
				{
					"indexed": true,
					"name": "from",
					"type": "address"
				},
				{
					"indexed": false,
					"name": "value",
					"type": "uint256"
				},
				{
					"indexed": false,
					"name": "weightedMultiplier",
					"type": "uint256"
				}
			],
			"name": "PrimordialUnstake",
			"type": "event"
		},
		{
			"anonymous": false,
			"inputs": [
				{
					"indexed": true,
					"name": "lotOwner",
					"type": "address"
				},
				{
					"indexed": true,
					"name": "lotId",
					"type": "bytes32"
				},
				{
					"indexed": false,
					"name": "multiplier",
					"type": "uint256"
				},
				{
					"indexed": false,
					"name": "primordialTokenAmount",
					"type": "uint256"
				},
				{
					"indexed": false,
					"name": "networkTokenBonusAmount",
					"type": "uint256"
				}
			],
			"name": "LotCreation",
			"type": "event"
		},
		{
			"anonymous": false,
			"inputs": [
				{
					"indexed": true,
					"name": "lotOwner",
					"type": "address"
				},
				{
					"indexed": true,
					"name": "burnLotId",
					"type": "bytes32"
				},
				{
					"indexed": false,
					"name": "burnTokenAmount",
					"type": "uint256"
				},
				{
					"indexed": false,
					"name": "multiplierAfterBurn",
					"type": "uint256"
				}
			],
			"name": "BurnLotCreation",
			"type": "event"
		},
		{
			"anonymous": false,
			"inputs": [
				{
					"indexed": true,
					"name": "lotOwner",
					"type": "address"
				},
				{
					"indexed": true,
					"name": "convertLotId",
					"type": "bytes32"
				},
				{
					"indexed": false,
					"name": "convertTokenAmount",
					"type": "uint256"
				},
				{
					"indexed": false,
					"name": "multiplierAfterBurn",
					"type": "uint256"
				}
			],
			"name": "ConvertLotCreation",
			"type": "event"
		},
		{
			"anonymous": false,
			"inputs": [
				{
					"indexed": false,
					"name": "target",
					"type": "address"
				},
				{
					"indexed": false,
					"name": "frozen",
					"type": "bool"
				}
			],
			"name": "FrozenFunds",
			"type": "event"
		},
		{
			"anonymous": false,
			"inputs": [
				{
					"indexed": true,
					"name": "from",
					"type": "address"
				},
				{
					"indexed": false,
					"name": "value",
					"type": "uint256"
				}
			],
			"name": "Stake",
			"type": "event"
		},
		{
			"anonymous": false,
			"inputs": [
				{
					"indexed": true,
					"name": "from",
					"type": "address"
				},
				{
					"indexed": false,
					"name": "value",
					"type": "uint256"
				}
			],
			"name": "Unstake",
			"type": "event"
		},
		{
			"anonymous": false,
			"inputs": [
				{
					"indexed": true,
					"name": "from",
					"type": "address"
				},
				{
					"indexed": true,
					"name": "to",
					"type": "address"
				},
				{
					"indexed": false,
					"name": "value",
					"type": "uint256"
				}
			],
			"name": "Escrow",
			"type": "event"
		},
		{
			"anonymous": false,
			"inputs": [
				{
					"indexed": true,
					"name": "from",
					"type": "address"
				},
				{
					"indexed": false,
					"name": "value",
					"type": "uint256"
				}
			],
			"name": "Unescrow",
			"type": "event"
		},
		{
			"anonymous": false,
			"inputs": [
				{
					"indexed": true,
					"name": "from",
					"type": "address"
				},
				{
					"indexed": true,
					"name": "to",
					"type": "address"
				},
				{
					"indexed": false,
					"name": "value",
					"type": "uint256"
				}
			],
			"name": "Transfer",
			"type": "event"
		},
		{
			"anonymous": false,
			"inputs": [
				{
					"indexed": true,
					"name": "_owner",
					"type": "address"
				},
				{
					"indexed": true,
					"name": "_spender",
					"type": "address"
				},
				{
					"indexed": false,
					"name": "_value",
					"type": "uint256"
				}
			],
			"name": "Approval",
			"type": "event"
		},
		{
			"anonymous": false,
			"inputs": [
				{
					"indexed": true,
					"name": "from",
					"type": "address"
				},
				{
					"indexed": false,
					"name": "value",
					"type": "uint256"
				}
			],
			"name": "Burn",
			"type": "event"
		},
		{
			"constant": false,
			"inputs": [
				{
					"name": "_aoDevTeam1",
					"type": "address"
				},
				{
					"name": "_aoDevTeam2",
					"type": "address"
				}
			],
			"name": "setAODevTeamAddresses",
			"outputs": [],
			"payable": false,
			"stateMutability": "nonpayable",
			"type": "function"
		},
		{
			"constant": false,
			"inputs": [
				{
					"name": "newPrimordialSellPrice",
					"type": "uint256"
				},
				{
					"name": "newPrimordialBuyPrice",
					"type": "uint256"
				}
			],
			"name": "setPrimordialPrices",
			"outputs": [],
			"payable": false,
			"stateMutability": "nonpayable",
			"type": "function"
		},
		{
			"constant": false,
			"inputs": [
				{
					"name": "_from",
					"type": "address"
				},
				{
					"name": "_value",
					"type": "uint256"
				},
				{
					"name": "_weightedMultiplier",
					"type": "uint256"
				}
			],
			"name": "stakePrimordialTokenFrom",
			"outputs": [
				{
					"name": "",
					"type": "bool"
				}
			],
			"payable": false,
			"stateMutability": "nonpayable",
			"type": "function"
		},
		{
			"constant": false,
			"inputs": [
				{
					"name": "_from",
					"type": "address"
				},
				{
					"name": "_value",
					"type": "uint256"
				},
				{
					"name": "_weightedMultiplier",
					"type": "uint256"
				}
			],
			"name": "unstakePrimordialTokenFrom",
			"outputs": [
				{
					"name": "",
					"type": "bool"
				}
			],
			"payable": false,
			"stateMutability": "nonpayable",
			"type": "function"
		},
		{
			"constant": false,
			"inputs": [
				{
					"name": "_from",
					"type": "address"
				},
				{
					"name": "_to",
					"type": "address"
				},
				{
					"name": "_value",
					"type": "uint256"
				}
			],
			"name": "whitelistTransferPrimordialTokenFrom",
			"outputs": [
				{
					"name": "",
					"type": "bool"
				}
			],
			"payable": false,
			"stateMutability": "nonpayable",
			"type": "function"
		},
		{
			"constant": false,
			"inputs": [],
			"name": "buyPrimordialToken",
			"outputs": [],
			"payable": true,
			"stateMutability": "payable",
			"type": "function"
		},
		{
			"constant": false,
			"inputs": [
				{
					"name": "_to",
					"type": "address"
				},
				{
					"name": "_value",
					"type": "uint256"
				}
			],
			"name": "transferPrimordialToken",
			"outputs": [
				{
					"name": "success",
					"type": "bool"
				}
			],
			"payable": false,
			"stateMutability": "nonpayable",
			"type": "function"
		},
		{
			"constant": false,
			"inputs": [
				{
					"name": "_from",
					"type": "address"
				},
				{
					"name": "_to",
					"type": "address"
				},
				{
					"name": "_value",
					"type": "uint256"
				}
			],
			"name": "transferPrimordialTokenFrom",
			"outputs": [
				{
					"name": "success",
					"type": "bool"
				}
			],
			"payable": false,
			"stateMutability": "nonpayable",
			"type": "function"
		},
		{
			"constant": false,
			"inputs": [
				{
					"name": "_spender",
					"type": "address"
				},
				{
					"name": "_value",
					"type": "uint256"
				}
			],
			"name": "approvePrimordialToken",
			"outputs": [
				{
					"name": "success",
					"type": "bool"
				}
			],
			"payable": false,
			"stateMutability": "nonpayable",
			"type": "function"
		},
		{
			"constant": false,
			"inputs": [
				{
					"name": "_spender",
					"type": "address"
				},
				{
					"name": "_value",
					"type": "uint256"
				},
				{
					"name": "_extraData",
					"type": "bytes"
				}
			],
			"name": "approvePrimordialTokenAndCall",
			"outputs": [
				{
					"name": "success",
					"type": "bool"
				}
			],
			"payable": false,
			"stateMutability": "nonpayable",
			"type": "function"
		},
		{
			"constant": false,
			"inputs": [
				{
					"name": "_value",
					"type": "uint256"
				}
			],
			"name": "burnPrimordialToken",
			"outputs": [
				{
					"name": "success",
					"type": "bool"
				}
			],
			"payable": false,
			"stateMutability": "nonpayable",
			"type": "function"
		},
		{
			"constant": false,
			"inputs": [
				{
					"name": "_from",
					"type": "address"
				},
				{
					"name": "_value",
					"type": "uint256"
				}
			],
			"name": "burnPrimordialTokenFrom",
			"outputs": [
				{
					"name": "success",
					"type": "bool"
				}
			],
			"payable": false,
			"stateMutability": "nonpayable",
			"type": "function"
		},
		{
			"constant": true,
			"inputs": [
				{
					"name": "_lotOwner",
					"type": "address"
				}
			],
			"name": "lotIdsByAddress",
			"outputs": [
				{
					"name": "",
					"type": "bytes32[]"
				}
			],
			"payable": false,
			"stateMutability": "view",
			"type": "function"
		},
		{
			"constant": true,
			"inputs": [
				{
					"name": "_lotOwner",
					"type": "address"
				}
			],
			"name": "totalLotsByAddress",
			"outputs": [
				{
					"name": "",
					"type": "uint256"
				}
			],
			"payable": false,
			"stateMutability": "view",
			"type": "function"
		},
		{
			"constant": true,
			"inputs": [
				{
					"name": "_lotOwner",
					"type": "address"
				},
				{
					"name": "_index",
					"type": "uint256"
				}
			],
			"name": "lotOfOwnerByIndex",
			"outputs": [
				{
					"name": "",
					"type": "bytes32"
				},
				{
					"name": "",
					"type": "address"
				},
				{
					"name": "",
					"type": "uint256"
				},
				{
					"name": "",
					"type": "uint256"
				}
			],
			"payable": false,
			"stateMutability": "view",
			"type": "function"
		},
		{
			"constant": true,
			"inputs": [
				{
					"name": "_lotId",
					"type": "bytes32"
				}
			],
			"name": "lotById",
			"outputs": [
				{
					"name": "",
					"type": "bytes32"
				},
				{
					"name": "",
					"type": "address"
				},
				{
					"name": "",
					"type": "uint256"
				},
				{
					"name": "",
					"type": "uint256"
				}
			],
			"payable": false,
			"stateMutability": "view",
			"type": "function"
		},
		{
			"constant": true,
			"inputs": [
				{
					"name": "_lotOwner",
					"type": "address"
				}
			],
			"name": "burnLotIdsByAddress",
			"outputs": [
				{
					"name": "",
					"type": "bytes32[]"
				}
			],
			"payable": false,
			"stateMutability": "view",
			"type": "function"
		},
		{
			"constant": true,
			"inputs": [
				{
					"name": "_lotOwner",
					"type": "address"
				}
			],
			"name": "totalBurnLotsByAddress",
			"outputs": [
				{
					"name": "",
					"type": "uint256"
				}
			],
			"payable": false,
			"stateMutability": "view",
			"type": "function"
		},
		{
			"constant": true,
			"inputs": [
				{
					"name": "_burnLotId",
					"type": "bytes32"
				}
			],
			"name": "burnLotById",
			"outputs": [
				{
					"name": "",
					"type": "bytes32"
				},
				{
					"name": "",
					"type": "address"
				},
				{
					"name": "",
					"type": "uint256"
				}
			],
			"payable": false,
			"stateMutability": "view",
			"type": "function"
		},
		{
			"constant": true,
			"inputs": [
				{
					"name": "_lotOwner",
					"type": "address"
				}
			],
			"name": "convertLotIdsByAddress",
			"outputs": [
				{
					"name": "",
					"type": "bytes32[]"
				}
			],
			"payable": false,
			"stateMutability": "view",
			"type": "function"
		},
		{
			"constant": true,
			"inputs": [
				{
					"name": "_lotOwner",
					"type": "address"
				}
			],
			"name": "totalConvertLotsByAddress",
			"outputs": [
				{
					"name": "",
					"type": "uint256"
				}
			],
			"payable": false,
			"stateMutability": "view",
			"type": "function"
		},
		{
			"constant": true,
			"inputs": [
				{
					"name": "_convertLotId",
					"type": "bytes32"
				}
			],
			"name": "convertLotById",
			"outputs": [
				{
					"name": "",
					"type": "bytes32"
				},
				{
					"name": "",
					"type": "address"
				},
				{
					"name": "",
					"type": "uint256"
				}
			],
			"payable": false,
			"stateMutability": "view",
			"type": "function"
		},
		{
			"constant": true,
			"inputs": [
				{
					"name": "_lotOwner",
					"type": "address"
				}
			],
			"name": "weightedMultiplierByAddress",
			"outputs": [
				{
					"name": "",
					"type": "uint256"
				}
			],
			"payable": false,
			"stateMutability": "view",
			"type": "function"
		},
		{
			"constant": true,
			"inputs": [
				{
					"name": "_target",
					"type": "address"
				}
			],
			"name": "maxMultiplierByAddress",
			"outputs": [
				{
					"name": "",
					"type": "uint256"
				}
			],
			"payable": false,
			"stateMutability": "view",
			"type": "function"
		},
		{
			"constant": true,
			"inputs": [
				{
					"name": "_purchaseAmount",
					"type": "uint256"
				}
			],
			"name": "calculateMultiplierAndBonus",
			"outputs": [
				{
					"name": "",
					"type": "uint256"
				},
				{
					"name": "",
					"type": "uint256"
				},
				{
					"name": "",
					"type": "uint256"
				}
			],
			"payable": false,
			"stateMutability": "view",
			"type": "function"
		},
		{
			"constant": true,
			"inputs": [
				{
					"name": "_account",
					"type": "address"
				}
			],
			"name": "calculateMaximumBurnAmount",
			"outputs": [
				{
					"name": "",
					"type": "uint256"
				}
			],
			"payable": false,
			"stateMutability": "view",
			"type": "function"
		},
		{
			"constant": true,
			"inputs": [
				{
					"name": "_account",
					"type": "address"
				},
				{
					"name": "_amountToBurn",
					"type": "uint256"
				}
			],
			"name": "calculateMultiplierAfterBurn",
			"outputs": [
				{
					"name": "",
					"type": "uint256"
				}
			],
			"payable": false,
			"stateMutability": "view",
			"type": "function"
		},
		{
			"constant": true,
			"inputs": [
				{
					"name": "_account",
					"type": "address"
				},
				{
					"name": "_amountToConvert",
					"type": "uint256"
				}
			],
			"name": "calculateMultiplierAfterConversion",
			"outputs": [
				{
					"name": "",
					"type": "uint256"
				}
			],
			"payable": false,
			"stateMutability": "view",
			"type": "function"
		},
		{
			"constant": false,
			"inputs": [
				{
					"name": "_value",
					"type": "uint256"
				}
			],
			"name": "convertToPrimordial",
			"outputs": [
				{
					"name": "success",
					"type": "bool"
				}
			],
			"payable": false,
			"stateMutability": "nonpayable",
			"type": "function"
		},
		{
			"constant": false,
			"inputs": [
				{
					"name": "_to",
					"type": "address"
				},
				{
					"name": "_value",
					"type": "uint256"
				},
				{
					"name": "_primordialValue",
					"type": "uint256"
				}
			],
			"name": "transferTokens",
			"outputs": [
				{
					"name": "success",
					"type": "bool"
				}
			],
			"payable": false,
			"stateMutability": "nonpayable",
			"type": "function"
		},
		{
			"constant": false,
			"inputs": [
				{
					"name": "_from",
					"type": "address"
				},
				{
					"name": "_to",
					"type": "address"
				},
				{
					"name": "_value",
					"type": "uint256"
				},
				{
					"name": "_primordialValue",
					"type": "uint256"
				}
			],
			"name": "transferTokensFrom",
			"outputs": [
				{
					"name": "success",
					"type": "bool"
				}
			],
			"payable": false,
			"stateMutability": "nonpayable",
			"type": "function"
		},
		{
			"constant": false,
			"inputs": [
				{
					"name": "_spender",
					"type": "address"
				},
				{
					"name": "_value",
					"type": "uint256"
				},
				{
					"name": "_primordialValue",
					"type": "uint256"
				}
			],
			"name": "approveTokens",
			"outputs": [
				{
					"name": "success",
					"type": "bool"
				}
			],
			"payable": false,
			"stateMutability": "nonpayable",
			"type": "function"
		},
		{
			"constant": false,
			"inputs": [
				{
					"name": "_spender",
					"type": "address"
				},
				{
					"name": "_value",
					"type": "uint256"
				},
				{
					"name": "_primordialValue",
					"type": "uint256"
				},
				{
					"name": "_extraData",
					"type": "bytes"
				}
			],
			"name": "approveTokensAndCall",
			"outputs": [
				{
					"name": "success",
					"type": "bool"
				}
			],
			"payable": false,
			"stateMutability": "nonpayable",
			"type": "function"
		},
		{
			"constant": false,
			"inputs": [
				{
					"name": "_value",
					"type": "uint256"
				},
				{
					"name": "_primordialValue",
					"type": "uint256"
				}
			],
			"name": "burnTokens",
			"outputs": [
				{
					"name": "success",
					"type": "bool"
				}
			],
			"payable": false,
			"stateMutability": "nonpayable",
			"type": "function"
		},
		{
			"constant": false,
			"inputs": [
				{
					"name": "_from",
					"type": "address"
				},
				{
					"name": "_value",
					"type": "uint256"
				},
				{
					"name": "_primordialValue",
					"type": "uint256"
				}
			],
			"name": "burnTokensFrom",
			"outputs": [
				{
					"name": "success",
					"type": "bool"
				}
			],
			"payable": false,
			"stateMutability": "nonpayable",
			"type": "function"
		}
	],
	"bytecode": "0x60806040526005805460ff1916601290811790915560118054600160a060020a0319908116735c63644d01ba385ebac5bcf2ddc1e6dbc1182b521790915581541673156c79bf4347d1891da834ea30662a14177cbf281790553480156200006557600080fd5b5060405162004f8438038062004f848339810160409081528151602080840151838501516060860151608087015160008054600160a060020a03191633908117825560055460ff16600a0a88026006819055908252600787529790209690965591860180519496909591019391929091869186918691849184918491620000f391600391908501906200024d565b508051620001099060049060208401906200024d565b5050600060098190556005805460ff19169055600f8054600160a060020a03808b16600160a060020a03199283161790925560108054928a169282168317905560138054909116909117905562000174955093506127109250506401000000006200017f8102049050565b5050505050620002f2565b600054600154604080517ff66afcac000000000000000000000000000000000000000000000000000000008152336004820152600160a060020a0393841660248201529290911660448301525173__AOLibrary_____________________________9163f66afcac916064808301926020929190829003018186803b1580156200020857600080fd5b505af41580156200021d573d6000803e3d6000fd5b505050506040513d60208110156200023457600080fd5b505115156200024257600080fd5b601691909155601755565b828054600181600116156101000203166002900490600052602060002090601f016020900481019282601f106200029057805160ff1916838001178555620002c0565b82800160010185558215620002c0579182015b82811115620002c0578251825591602001919060010190620002a3565b50620002ce929150620002d2565b5090565b620002ef91905b80821115620002ce5760008155600101620002d9565b90565b614c8280620003026000396000f3006080604052600436106103d95763ffffffff60e060020a60003504166305fefda781146103de57806306fdde03146103fb578063080e74f714610485578063095ea7b3146104cb5780630aa24546146105035780630ac0b31f1461052a57806315227aa714610560578063153d904914610591578063178a8f34146105b557806318160ddd146106265780631d0138ff1461063b57806323b872dd1461065057806323ceb6d81461067a578063281bdaf81461069e5780632b687bb9146106bf5780632ffeef77146106d4578063313ce567146106e957806331a8aeb314610714578063324b8ad214610738578063360f277b146107595780633a9c7d3d1461076e5780633bcd66241461078f5780633be92863146107fb57806341682d971461083957806342966c681461084e57806349937e25146108665780634b7503341461086e5780634ef033f0146108835780634f090ab4146108985780634fbd2695146108b057806353d6fd59146108d157806354f7dd8c146108f757806357946b8e1461091b578063580b72e11461093c5780635cfaf2ef14610963578063602172671461098457806367cf17c2146109a55780636aae86c3146109cf5780637056d1f4146109e457806370a0823114610a0557806372d1146614610a26578063731a3b0614610a3b57806374ead7b714610a5f57806379c6506814610a8657806379cc679014610aaa5780637e904f7b14610ace578063834e9f3114610af55780638620410b14610b0a57806387d4ca9314610b1f5780638a06604514610b495780638e81c64d14610b6d57806395d89b4114610b885780639b19251a14610b9d578063a144a3e014610bbe578063a545a5d114610be8578063a6f2ae3a14610bfd578063a9059cbb14610c05578063a918887814610c29578063a99433a614610c44578063a9b6b38e14610c59578063a9f7e66414610c6e578063aaaf8a5214610c95578063ab7f770614610cb9578063af339ee414610cce578063b1e19d4514610ce6578063b24626e914610d0a578063b414d4b614610d31578063bdb9c11f14610d52578063c1b9981114610d7f578063cae9ca5114610da3578063cf3e194d14610e0c578063d1e5a55214610e30578063d318386414610e57578063d58e175814610e7b578063d94ca0f914610e9c578063dd1a293a14610f05578063dd62ed3e14610f2c578063e352845514610f53578063e4849b3214610f77578063e724529c14610f8f578063e7c5018514610fb5578063ecbbd1ca14610fca578063f2fde38b14610feb578063f39cce011461100c578063f5bd48c41461102d578063f6cb86db1461104e578063faaad91d14611078575b600080fd5b3480156103ea57600080fd5b506103f9600435602435611090565b005b34801561040757600080fd5b50610410611144565b6040805160208082528351818301528351919283929083019185019080838360005b8381101561044a578181015183820152602001610432565b50505050905090810190601f1680156104775780820380516001836020036101000a031916815260200191505b509250505060405180910390f35b34801561049157600080fd5b5061049d6004356111d2565b60408051948552600160a060020a039093166020850152838301919091526060830152519081900360800190f35b3480156104d757600080fd5b506104ef600160a060020a0360043516602435611235565b604080519115158252519081900360200190f35b34801561050f57600080fd5b5061051861129c565b60408051918252519081900360200190f35b34801561053657600080fd5b506105426004356112a2565b60408051938452602084019290925282820152519081900360600190f35b34801561056c57600080fd5b506105756114ed565b60408051600160a060020a039092168252519081900360200190f35b34801561059d57600080fd5b50610518600160a060020a03600435166024356114fc565b3480156105c157600080fd5b506105d6600160a060020a0360043516611519565b60408051602080825283518183015283519192839290830191858101910280838360005b838110156106125781810151838201526020016105fa565b505050509050019250505060405180910390f35b34801561063257600080fd5b50610518611586565b34801561064757600080fd5b5061057561158c565b34801561065c57600080fd5b506104ef600160a060020a036004358116906024351660443561159b565b34801561068657600080fd5b506104ef600160a060020a036004351660243561160a565b3480156106aa57600080fd5b50610518600160a060020a03600435166116cc565b3480156106cb57600080fd5b506105186116e7565b3480156106e057600080fd5b506105186116ed565b3480156106f557600080fd5b506106fe6116f3565b6040805160ff9092168252519081900360200190f35b34801561072057600080fd5b506104ef600160a060020a03600435166024356116fc565b34801561074457600080fd5b50610518600160a060020a03600435166117fb565b34801561076557600080fd5b50610518611816565b34801561077a57600080fd5b50610518600160a060020a036004351661181c565b34801561079b57600080fd5b50604080516020601f6064356004818101359283018490048402850184019095528184526104ef94600160a060020a03813516946024803595604435953695608494930191819084018382808284375094975061185e9650505050505050565b34801561080757600080fd5b50610813600435611897565b60408051938452600160a060020a03909216602084015282820152519081900360600190f35b34801561084557600080fd5b506105186118ea565b34801561085a57600080fd5b506104ef6004356118f0565b6103f9611968565b34801561087a57600080fd5b50610518611a2a565b34801561088f57600080fd5b50610575611a30565b3480156108a457600080fd5b506104ef600435611a3f565b3480156108bc57600080fd5b50610518600160a060020a0360043516611b14565b3480156108dd57600080fd5b506103f9600160a060020a03600435166024351515611b26565b34801561090357600080fd5b5061049d600160a060020a0360043516602435611c0f565b34801561092757600080fd5b50610518600160a060020a0360043516611cd5565b34801561094857600080fd5b506104ef600160a060020a0360043516602435604435611ce7565b34801561096f57600080fd5b506103f9600160a060020a0360043516611d13565b34801561099057600080fd5b50610518600160a060020a0360043516611df3565b3480156109b157600080fd5b506104ef600160a060020a0360043581169060243516604435611e05565b3480156109db57600080fd5b50610518612084565b3480156109f057600080fd5b506105d6600160a060020a036004351661208f565b348015610a1157600080fd5b50610518600160a060020a03600435166120fa565b348015610a3257600080fd5b5061051861210c565b348015610a4757600080fd5b506104ef600160a060020a0360043516602435612112565b348015610a6b57600080fd5b506104ef600160a060020a0360043516602435604435612211565b348015610a9257600080fd5b506104ef600160a060020a036004351660243561233b565b348015610ab657600080fd5b506104ef600160a060020a036004351660243561236f565b348015610ada57600080fd5b506104ef600160a060020a0360043516602435604435612440565b348015610b0157600080fd5b5061051861257c565b348015610b1657600080fd5b50610518612582565b348015610b2b57600080fd5b506104ef600160a060020a0360043581169060243516604435612588565b348015610b5557600080fd5b506104ef600160a060020a0360043516602435612694565b348015610b7957600080fd5b506104ef600435602435612793565b348015610b9457600080fd5b506104106127bd565b348015610ba957600080fd5b506104ef600160a060020a0360043516612818565b348015610bca57600080fd5b506104ef600160a060020a036004358116906024351660443561282d565b348015610bf457600080fd5b506104ef612859565b6103f9612862565b348015610c1157600080fd5b506104ef600160a060020a0360043516602435612898565b348015610c3557600080fd5b506103f96004356024356128a5565b348015610c5057600080fd5b50610575612959565b348015610c6557600080fd5b50610575612968565b348015610c7a57600080fd5b506104ef600160a060020a0360043516602435604435612977565b348015610ca157600080fd5b506104ef600160a060020a0360043516602435612998565b348015610cc557600080fd5b506105186129fe565b348015610cda57600080fd5b50610813600435612a04565b348015610cf257600080fd5b506104ef600160a060020a0360043516602435612a59565b348015610d1657600080fd5b506103f9600160a060020a0360043581169060243516612b3f565b348015610d3d57600080fd5b506104ef600160a060020a0360043516612c16565b348015610d5e57600080fd5b506104ef600160a060020a0360043581169060243516604435606435612c2b565b348015610d8b57600080fd5b506104ef600160a060020a0360043516602435612c4e565b348015610daf57600080fd5b50604080516020600460443581810135601f81018490048402850184019095528484526104ef948235600160a060020a0316946024803595369594606494920191908190840183828082843750949750612e459650505050505050565b348015610e1857600080fd5b50610518600160a060020a0360043516602435612f5e565b348015610e3c57600080fd5b50610518600160a060020a0360043581169060243516613027565b348015610e6357600080fd5b50610518600160a060020a0360043516602435613044565b348015610e8757600080fd5b50610518600160a060020a03600435166130f2565b348015610ea857600080fd5b50604080516020600460443581810135601f81018490048402850184019095528484526104ef948235600160a060020a031694602480359536959460649492019190819084018382808284375094975061310d9650505050505050565b348015610f1157600080fd5b506104ef600160a060020a036004351660243560443561311a565b348015610f3857600080fd5b50610518600160a060020a036004358116906024351661313b565b348015610f5f57600080fd5b506104ef600160a060020a0360043516602435613158565b348015610f8357600080fd5b506103f96004356132ca565b348015610f9b57600080fd5b506103f9600160a060020a0360043516602435151561335b565b348015610fc157600080fd5b50610575613468565b348015610fd657600080fd5b50610518600160a060020a0360043516613477565b348015610ff757600080fd5b506103f9600160a060020a0360043516613548565b34801561101857600080fd5b506105d6600160a060020a0360043516613628565b34801561103957600080fd5b50610518600160a060020a0360043516613693565b34801561105a57600080fd5b506104ef600160a060020a03600435811690602435166044356136ae565b34801561108457600080fd5b506104ef600435613700565b6000546001546040805160e260020a633d9abf2b028152336004820152600160a060020a0393841660248201529290911660448301525173__AOLibrary_____________________________9163f66afcac916064808301926020929190829003018186803b15801561110257600080fd5b505af4158015611116573d6000803e3d6000fd5b505050506040513d602081101561112c57600080fd5b5051151561113957600080fd5b600a91909155600b55565b6003805460408051602060026001851615610100026000190190941693909304601f810184900484028201840190925281815292918301828280156111ca5780601f1061119f576101008083540402835291602001916111ca565b820191906000526020600020905b8154815290600101906020018083116111ad57829003601f168201915b505050505081565b6000806000806111e0614c0f565b50505060009283525050601f60209081526040918290208251608081018452815480825260018301549382018490526002830154600160a060020a031694820185905260039092015460609091018190529093565b336000818152600860209081526040808320600160a060020a038716808552908352818420869055815186815291519394909390927f8c5be1e5ebec7d5bd14f71427d1e84f3dd0314c0f7b2291e5b200ac8c7c3b925928290030190a35060015b92915050565b60095481565b60008060008060008060006112b56138cc565b935093509350935073__AOLibrary_____________________________63c35f4bbb896603fffffffffffc60155488886040518663ffffffff1660e060020a028152600401808681526020018581526020018481526020018381526020018281526020019550505050505060206040518083038186803b15801561133857600080fd5b505af415801561134c573d6000803e3d6000fd5b505050506040513d602081101561136257600080fd5b5051601554604080517f8f8bd64c000000000000000000000000000000000000000000000000000000008152600481018c90526603fffffffffffc6024820152604481019290925260648201859052608482018490525173__AOLibrary_____________________________91638f8bd64c9160a4808301926020929190829003018186803b1580156113f457600080fd5b505af4158015611408573d6000803e3d6000fd5b505050506040513d602081101561141e57600080fd5b5051601554604080517fe9cfa745000000000000000000000000000000000000000000000000000000008152600481018d90526603fffffffffffc6024820152604481019290925260648201869052608482018590525173__AOLibrary_____________________________9163e9cfa7459160a4808301926020929190829003018186803b1580156114b057600080fd5b505af41580156114c4573d6000803e3d6000fd5b505050506040513d60208110156114da57600080fd5b5051919a90995090975095505050505050565b601154600160a060020a031681565b601a60209081526000928352604080842090915290825290205481565b600160a060020a03811660009081526022602090815260409182902080548351818402810184019094528084526060939283018282801561157a57602002820191906000526020600020905b81548152600190910190602001808311611565575b50505050509050919050565b60065481565b601054600160a060020a031681565b600160a060020a03831660009081526008602090815260408083203384529091528120548211156115cb57600080fd5b600160a060020a0384166000908152600860209081526040808320338452909152902080548390039055611600848484613e16565b5060019392505050565b3360009081526002602052604081205460ff16151560011461162b57600080fd5b600160a060020a0383166000908152600e6020526040902054611654908363ffffffff613ff816565b600160a060020a0384166000908152600e6020526040902055600654611680908363ffffffff613ff816565b600655604080518381529051600160a060020a0385169130917f812c3251d8b2cd027716a7651ace6f9167d7fba4db9eb10df2e0cfe8b7fa48c99181900360200190a350600192915050565b600160a060020a031660009081526025602052604090205490565b60165481565b601d5481565b60055460ff1681565b3360009081526002602052604081205460ff16151560011461171d57600080fd5b600160a060020a03831660009081526007602052604090205482111561174257600080fd5b600160a060020a03831660009081526007602052604090205461176b908363ffffffff61400516565b600160a060020a038416600090815260076020908152604080832093909355600d905220546117a0908363ffffffff613ff816565b600160a060020a0384166000818152600d6020908152604091829020939093558051858152905191927febedb8b3c678666e7f36970bc8f57abf6d8fa2e828c0da91ea5b75bf68ed101a92918290030190a250600192915050565b600160a060020a031660009081526023602052604090205490565b601b5481565b600160a060020a0381166000908152602260205260408120548110611842576000611296565b50600160a060020a031660009081526026602052604090205490565b600061186b858584612e45565b151561187657600080fd5b61188185848461310d565b151561188c57600080fd5b506001949350505050565b60008060006118a4614c36565b5050506000918252506020808052604091829020825160608101845281548082526001830154600160a060020a0316938201849052600290920154930183905292909190565b601c5481565b3360009081526007602052604081205482111561190c57600080fd5b3360008181526007602090815260409182902080548690039055600680548690039055815185815291517fcc16f5dbb4873280815c1ee09dbd06736cffcc184412cf7a71a0fdb75d397ca59281900390910190a2506001919050565b601e5460009081908190349060ff1615801561198c57506603fffffffffffc601554105b801561199a57506000601754115b80156119a65750600081115b15156119b157600080fd5b6119ba34614017565b91955093509150600084116119ce57600080fd5b81156119e257601e805460ff191660011790555b6119ec84336140b7565b6000831115611a2457604051339084156108fc029085906000818181858888f19350505050158015611a22573d6000803e3d6000fd5b505b50505050565b600a5481565b600154600160a060020a031681565b33600090815260186020526040812054821115611a5b57600080fd5b81611a6533613477565b1015611a7057600080fd5b611a7a3383613044565b33600090815260256020908152604080832093909355601890522054611aa6908363ffffffff61400516565b33600090815260186020526040902055601454611ac9908363ffffffff61400516565b601455611ad63383614269565b60408051838152905133917f8ca2ca4355ea7f1e1880fa3d5f2dc524f82297c88282d5d95badd4041b8a8edb919081900360200190a2506001919050565b600e6020526000908152604090205481565b6000546001546040805160e260020a633d9abf2b028152336004820152600160a060020a0393841660248201529290911660448301525173__AOLibrary_____________________________9163f66afcac916064808301926020929190829003018186803b158015611b9857600080fd5b505af4158015611bac573d6000803e3d6000fd5b505050506040513d6020811015611bc257600080fd5b50511515611bcf57600080fd5b600160a060020a0382161515611be457600080fd5b600160a060020a03919091166000908152600260205260409020805460ff1916911515919091179055565b600080600080611c1d614c0f565b600160a060020a0387166000908152602260205260409020548610611c4157600080fd5b600160a060020a03871660009081526022602052604081208054601f92919089908110611c6a57fe5b600091825260208083209190910154835282810193909352604091820190208151608081018352815480825260018301549482018590526002830154600160a060020a03169382018490526003909201546060909101819052909a9199509197509095509350505050565b60186020526000908152604090205481565b6000611cf38484611235565b1515611cfe57600080fd5b611d088483612998565b151561160057600080fd5b6000546001546040805160e260020a633d9abf2b028152336004820152600160a060020a0393841660248201529290911660448301525173__AOLibrary_____________________________9163f66afcac916064808301926020929190829003018186803b158015611d8557600080fd5b505af4158015611d99573d6000803e3d6000fd5b505050506040513d6020811015611daf57600080fd5b50511515611dbc57600080fd5b600160a060020a0381161515611dd157600080fd5b60018054600160a060020a031916600160a060020a0392909216919091179055565b600d6020526000908152604090205481565b600080611e10614c0f565b600160a060020a0386166000908152601960209081526040808320338452909152902054841115611e4057600080fd5b600160a060020a0386166000908152601960209081526040808320338452909152902054611e74908563ffffffff61400516565b600160a060020a038716600081815260196020908152604080832033845282528083209490945591815260259091522054611eb290869086906143f0565b6000818152601f60209081526040918290208251608081018452815481526001820154928101929092526002810154600160a060020a039081169383018490526003909101546060830152929450925090861614611f0f57600080fd5b600160a060020a038086166000908152602560208181526040808420546018835281852054958c168552928252928390205483517f8cf3313f00000000000000000000000000000000000000000000000000000000815260048101939093526024830194909452604482019390935260648101879052905173__AOLibrary_____________________________92638cf3313f9260848082019391829003018186803b158015611fbe57600080fd5b505af4158015611fd2573d6000803e3d6000fd5b505050506040513d6020811015611fe857600080fd5b5051600160a060020a03861660009081526025602052604090205561200e868686614580565b151561201957600080fd5b80516040808301516020808501516060808701518551928352928201929092526000818501529251600160a060020a03909216927f20dcffcce6f33b394371fed8876a2562e3110ed8dbdc448b593a2680c7330a03929081900390910190a350600195945050505050565b6603fffffffffffc81565b600160a060020a03811660009081526023602090815260409182902080548351818402810184019094528084526060939283018282801561157a5760200282019190600052602060002090815481526001909101906020018083116115655750505050509050919050565b60076020526000908152604090205481565b60175481565b3360009081526002602052604081205460ff16151560011461213357600080fd5b600160a060020a0383166000908152600d602052604090205482111561215857600080fd5b600160a060020a0383166000908152600d6020526040902054612181908363ffffffff61400516565b600160a060020a0384166000908152600d60209081526040808320939093556007905220546121b6908363ffffffff613ff816565b600160a060020a038416600081815260076020908152604091829020939093558051858152905191927f85082129d87b2fe11527cb1b3b7a520aeb5aa6913f88a3d8757fe40d1db02fdd92918290030190a250600192915050565b3360009081526002602052604081205460ff16151560011461223257600080fd5b600160a060020a0384166000908152601a6020908152604080832085845290915290205483111561226257600080fd5b600160a060020a0384166000908152601a60209081526040808320858452909152902054612296908463ffffffff61400516565b600160a060020a0385166000818152601a60209081526040808320878452825280832094909455918152601890915220546122d7908463ffffffff613ff816565b600160a060020a038516600081815260186020908152604091829020939093558051868152928301859052805191927f7bcdc377a1fa8b0dd654d64d7337143be4ce1250ada31f3b1cdac27dea65d3a3929081900390910190a25060019392505050565b3360009081526002602052604081205460ff16151560011461235c57600080fd5b6123668383614763565b50600192915050565b600160a060020a03821660009081526007602052604081205482111561239457600080fd5b600160a060020a03831660009081526008602090815260408083203384529091529020548211156123c457600080fd5b600160a060020a0383166000818152600760209081526040808320805487900390556008825280832033845282529182902080548690039055600680548690039055815185815291517fcc16f5dbb4873280815c1ee09dbd06736cffcc184412cf7a71a0fdb75d397ca59281900390910190a250600192915050565b3360009081526002602052604081205460ff16151560011461246157600080fd5b600160a060020a03841660009081526018602052604090205483111561248657600080fd5b600160a060020a03841660009081526025602052604090205482146124aa57600080fd5b600160a060020a0384166000908152601860205260409020546124d3908463ffffffff61400516565b600160a060020a038516600090815260186020908152604080832093909355601a815282822085835290522054612510908463ffffffff613ff816565b600160a060020a0385166000818152601a60209081526040808320878452825291829020939093558051868152928301859052805191927fe62430bd00d68dd82de89addd3b7e4ce6bd50eb278f53dfb7fa7dac47643098d929081900390910190a25060019392505050565b60145481565b600b5481565b3360009081526002602052604081205460ff1615156001146125a957600080fd5b600160a060020a0384166000908152600760205260409020548211156125ce57600080fd5b600160a060020a0384166000908152600760205260409020546125f7908363ffffffff61400516565b600160a060020a038086166000908152600760209081526040808320949094559186168152600e9091522054612633908363ffffffff613ff816565b600160a060020a038085166000818152600e602090815260409182902094909455805186815290519193928816927f812c3251d8b2cd027716a7651ace6f9167d7fba4db9eb10df2e0cfe8b7fa48c992918290030190a35060019392505050565b3360009081526002602052604081205460ff1615156001146126b557600080fd5b600160a060020a0383166000908152600e60205260409020548211156126da57600080fd5b600160a060020a0383166000908152600e6020526040902054612703908363ffffffff61400516565b600160a060020a0384166000908152600e6020908152604080832093909355600790522054612738908363ffffffff613ff816565b600160a060020a038416600081815260076020908152604091829020939093558051858152905191927f85538b0b045118ba300aa14d9701eab875903dd2976d62d855ec959a3e6cffb192918290030190a250600192915050565b600061279e836118f0565b15156127a957600080fd5b6127b282611a3f565b151561236657600080fd5b6004805460408051602060026001851615610100026000190190941693909304601f810184900484028201840190925281815292918301828280156111ca5780601f1061119f576101008083540402835291602001916111ca565b60026020526000908152604090205460ff1681565b3360009081526002602052604081205460ff16151560011461284e57600080fd5b611600848484613e16565b601e5460ff1681565b600080600b5411151561287457600080fd5b600b5461288890349063ffffffff61483716565b9050612895303383613e16565b50565b6000612366338484613e16565b6000546001546040805160e260020a633d9abf2b028152336004820152600160a060020a0393841660248201529290911660448301525173__AOLibrary_____________________________9163f66afcac916064808301926020929190829003018186803b15801561291757600080fd5b505af415801561292b573d6000803e3d6000fd5b505050506040513d602081101561294157600080fd5b5051151561294e57600080fd5b601691909155601755565b601254600160a060020a031681565b600054600160a060020a031681565b60006129838484612898565b151561298e57600080fd5b611d088483612c4e565b336000818152601960209081526040808320600160a060020a038716808552908352818420869055815186815291519394909390927f199f64ba6278b91ed8e7f45335d9fdbfa2d094b1fdc34465229e79047fcea3ce928290030190a350600192915050565b60155481565b6000806000612a11614c36565b50505060009182525060216020908152604091829020825160608101845281548082526001830154600160a060020a0316938201849052600290920154930183905292909190565b3360009081526002602052604081205460ff161515600114612a7a57600080fd5b600160a060020a038316600090815260076020526040902054821115612a9f57600080fd5b600160a060020a038316600090815260076020526040902054612ac8908363ffffffff61400516565b600160a060020a038416600090815260076020526040902055600654612af4908363ffffffff61400516565b600655604080518381529051600160a060020a038516917fcc16f5dbb4873280815c1ee09dbd06736cffcc184412cf7a71a0fdb75d397ca5919081900360200190a250600192915050565b6000546001546040805160e260020a633d9abf2b028152336004820152600160a060020a0393841660248201529290911660448301525173__AOLibrary_____________________________9163f66afcac916064808301926020929190829003018186803b158015612bb157600080fd5b505af4158015612bc5573d6000803e3d6000fd5b505050506040513d6020811015612bdb57600080fd5b50511515612be857600080fd5b60118054600160a060020a03938416600160a060020a03199182161790915560128054929093169116179055565b600c6020526000908152604090205460ff1681565b6000612c3885858561159b565b1515612c4357600080fd5b611881858584611e05565b600080612c59614c0f565b33600090815260256020526040902054612c7690869086906143f0565b6000818152601f60209081526040918290208251608081018452815481526001820154928101929092526002810154600160a060020a039081169383018490526003909101546060830152929450925090861614612cd357600080fd5b600160a060020a0385166000908152602560208181526040808420546018835281852054338652938352938190205481517f8cf3313f00000000000000000000000000000000000000000000000000000000815260048101959095526024850193909352604484019290925260648301879052905173__AOLibrary_____________________________92638cf3313f926084808301939192829003018186803b158015612d8057600080fd5b505af4158015612d94573d6000803e3d6000fd5b505050506040513d6020811015612daa57600080fd5b5051600160a060020a038616600090815260256020526040902055612dd0338686614580565b1515612ddb57600080fd5b80516040808301516020808501516060808701518551928352928201929092526000818501529251600160a060020a03909216927f20dcffcce6f33b394371fed8876a2562e3110ed8dbdc448b593a2680c7330a03929081900390910190a3506001949350505050565b600083612e528185611235565b15612f56576040517f8f4ffcb10000000000000000000000000000000000000000000000000000000081523360048201818152602483018790523060448401819052608060648501908152875160848601528751600160a060020a03871695638f4ffcb195948b94938b939192909160a490910190602085019080838360005b83811015612eea578181015183820152602001612ed2565b50505050905090810190601f168015612f175780820380516001836020036101000a031916815260200191505b5095505050505050600060405180830381600087803b158015612f3957600080fd5b505af1158015612f4d573d6000803e3d6000fd5b50505050600191505b509392505050565b600160a060020a038216600090815260186020908152604080832054602583528184205482517f7fbc9c550000000000000000000000000000000000000000000000000000000081526004810192909252602482015260448101859052905173__AOLibrary_____________________________92637fbc9c559260648082019391829003018186803b158015612ff457600080fd5b505af4158015613008573d6000803e3d6000fd5b505050506040513d602081101561301e57600080fd5b50519392505050565b601960209081526000928352604080842090915290825290205481565b60008161305084613477565b101561305b57600080fd5b600160a060020a03831660009081526018602090815260408083205460258352928190205481517f32363e0a00000000000000000000000000000000000000000000000000000000815260048101949094526024840152604483018590525173__AOLibrary_____________________________926332363e0a926064808301939192829003018186803b158015612ff457600080fd5b600160a060020a031660009081526024602052604090205490565b600083612e528185612998565b6000613126848461236f565b151561313157600080fd5b611d088483613158565b600860209081526000928352604080842090915290825290205481565b600160a060020a03821660009081526018602052604081205482111561317d57600080fd5b600160a060020a03831660009081526019602090815260408083203384529091529020548211156131ad57600080fd5b816131b784613477565b10156131c257600080fd5b6131cc8383613044565b600160a060020a038416600090815260256020908152604080832093909355601890522054613201908363ffffffff61400516565b600160a060020a038416600090815260186020908152604080832093909355601981528282203383529052205461323e908363ffffffff61400516565b600160a060020a0384166000908152601960209081526040808320338452909152902055601454613275908363ffffffff61400516565b6014556132828383614269565b604080518381529051600160a060020a038516917f8ca2ca4355ea7f1e1880fa3d5f2dc524f82297c88282d5d95badd4041b8a8edb919081900360200190a250600192915050565b600080600a541115156132dc57600080fd5b50600a5430906132f390839063ffffffff61484c16565b600160a060020a03821631101561330957600080fd5b613314333084613e16565b600a5433906108fc9061332e90859063ffffffff61484c16565b6040518115909202916000818181858888f19350505050158015613356573d6000803e3d6000fd5b505050565b6000546001546040805160e260020a633d9abf2b028152336004820152600160a060020a0393841660248201529290911660448301525173__AOLibrary_____________________________9163f66afcac916064808301926020929190829003018186803b1580156133cd57600080fd5b505af41580156133e1573d6000803e3d6000fd5b505050506040513d60208110156133f757600080fd5b5051151561340457600080fd5b600160a060020a0382166000818152600c6020908152604091829020805460ff191685151590811790915582519384529083015280517f48335238b4855f35377ed80f164e8c6f3c366e54ac00b96a6402d4a9814a03a59281900390910190a15050565b600f54600160a060020a031681565b600160a060020a0381166000908152601860209081526040808320546025835281842054602684528285205483517f4d5a1173000000000000000000000000000000000000000000000000000000008152600481019390935260248301919091526044820152905173__AOLibrary_____________________________92634d5a11739260648082019391829003018186803b15801561351657600080fd5b505af415801561352a573d6000803e3d6000fd5b505050506040513d602081101561354057600080fd5b505192915050565b6000546001546040805160e260020a633d9abf2b028152336004820152600160a060020a0393841660248201529290911660448301525173__AOLibrary_____________________________9163f66afcac916064808301926020929190829003018186803b1580156135ba57600080fd5b505af41580156135ce573d6000803e3d6000fd5b505050506040513d60208110156135e457600080fd5b505115156135f157600080fd5b600160a060020a038116151561360657600080fd5b60008054600160a060020a031916600160a060020a0392909216919091179055565b600160a060020a03811660009081526024602090815260409182902080548351818402810184019094528084526060939283018282801561157a5760200282019190600052602060002090815481526001909101906020018083116115655750505050509050919050565b600160a060020a031660009081526022602052604090205490565b6000806136b9614c0f565b3360009081526002602052604090205460ff1615156001146136da57600080fd5b600160a060020a038616600090815260256020526040902054611eb290869086906143f0565b336000908152600760205260408120548190819084111561372057600080fd5b61372a3385612f5e565b33600090815260256020526040902055613743846118f0565b5061374e3385614875565b601d805460010190819055604080516c010000000000000000000000003081026020808401919091523391909102603483015260488083019490945282518083039094018452606890910191829052825182918401908083835b602083106137c75780518252601f1990920191602091820191016137a8565b51815160209384036101000a60001901801990921691161790526040805192909401829003909120600081815260219092529290206001015491955050600160a060020a031615915061381b905057600080fd5b50600081815260216020908152604080832084815560018082018054600160a060020a031916339081178255600284018a815590875260248652848720805493840181558752858720909201879055825490549154600160a060020a039290921680875260258652958490205484519283529482019490945282519194927f24f057e925d9fc5c8b912d57da9cf8bbcf393fa8c87db8005d378fe9f828e7ba92918290030190a35060019392505050565b601354600f546040805160e260020a631c196fb7028152600160a060020a03928316600482015260248101829052601c60448201527f7374617274696e675072696d6f726469616c4d756c7469706c696572000000006064820152905160009384938493849384938493849384939190921691637065bedc916084808301928692919082900301818387803b15801561396457600080fd5b505af1158015613978573d6000803e3d6000fd5b505050506040513d6000823e601f3d908101601f1916820160405260a08110156139a157600080fd5b8151602083015160408401516060850151608086018051949693959294919392830192916401000000008111156139d757600080fd5b820160208101848111156139ea57600080fd5b8151640100000000811182820187101715613a0457600080fd5b5050601354600f546040805160e260020a631c196fb7028152600160a060020a03928316600482015260248101829052601a60448201527f656e64696e675072696d6f726469616c4d756c7469706c696572000000000000606482015290519a9e50911698637065bedc985060848083019850600097509095509085900301925083915084905087803b158015613a9a57600080fd5b505af1158015613aae573d6000803e3d6000fd5b505050506040513d6000823e601f3d908101601f1916820160405260a0811015613ad757600080fd5b815160208301516040840151606085015160808601805194969395929491939283019291640100000000811115613b0d57600080fd5b82016020810184811115613b2057600080fd5b8151640100000000811182820187101715613b3a57600080fd5b5050601354600f546040805160e260020a631c196fb7028152600160a060020a03928316600482015260248101829052602360448201527f7374617274696e674e6574776f726b546f6b656e426f6e75734d756c7469706c60648201527f6965720000000000000000000000000000000000000000000000000000000000608482015290519a9d50911698637065bedc985060a48083019850600097509095509085900301925083915084905087803b158015613bf657600080fd5b505af1158015613c0a573d6000803e3d6000fd5b505050506040513d6000823e601f3d908101601f1916820160405260a0811015613c3357600080fd5b815160208301516040840151606085015160808601805194969395929491939283019291640100000000811115613c6957600080fd5b82016020810184811115613c7c57600080fd5b8151640100000000811182820187101715613c9657600080fd5b5050601354600f546040805160e260020a631c196fb7028152600160a060020a03928316600482015260248101829052602160448201527f656e64696e674e6574776f726b546f6b656e426f6e75734d756c7469706c696560648201527f7200000000000000000000000000000000000000000000000000000000000000608482015290519a9c50911698637065bedc985060a48083019850600097509095509085900301925083915084905087803b158015613d5257600080fd5b505af1158015613d66573d6000803e3d6000fd5b505050506040513d6000823e601f3d908101601f1916820160405260a0811015613d8f57600080fd5b815160208301516040840151606085015160808601805194969395929491939283019291640100000000811115613dc557600080fd5b82016020810184811115613dd857600080fd5b8151640100000000811182820187101715613df257600080fd5b50509291905050505050505090508383838397509750975097505050505090919293565b6000600160a060020a0383161515613e2d57600080fd5b600160a060020a038416600090815260076020526040902054821115613e5257600080fd5b600160a060020a038316600090815260076020526040902054613e7b818463ffffffff613ff816565b1015613e8657600080fd5b600160a060020a0384166000908152600c602052604090205460ff1615613eac57600080fd5b600160a060020a0383166000908152600c602052604090205460ff1615613ed257600080fd5b600160a060020a03808416600090815260076020526040808220549287168252902054613f049163ffffffff613ff816565b600160a060020a038516600090815260076020526040902054909150613f30908363ffffffff61400516565b600160a060020a038086166000908152600760205260408082209390935590851681522054613f65908363ffffffff613ff816565b600160a060020a0380851660008181526007602090815260409182902094909455805186815290519193928816927fddf252ad1be2c89b69c2b068fc378daa952ba7f163c4a11628f55a4df523b3ef92918290030190a3600160a060020a038084166000908152600760205260408082205492871682529020548291613ff1919063ffffffff613ff816565b14611a2457fe5b8181018281101561129657fe5b60008282111561401157fe5b50900390565b6000806000806000806140356017548861483790919063ffffffff16565b925060009150600090506603fffffffffffc61405c84601554613ff890919063ffffffff16565b106140aa5760155461407c906603fffffffffffc9063ffffffff61400516565b9250600190506140a761409a6017548561484c90919063ffffffff16565b349063ffffffff61400516565b91505b9196909550909350915050565b6000806000806000806000806140cb6138cc565b985098505097506140db8a6112a2565b9450945094506140f68a601554613ff890919063ffffffff16565b601555614105898b8786614949565b614115888663ffffffff61400516565b91506141c973__AOLibrary_____________________________63caf297656040518163ffffffff1660e060020a02815260040160206040518083038186803b15801561416157600080fd5b505af4158015614175573d6000803e3d6000fd5b505050506040513d602081101561418b57600080fd5b50516141bd8c6141b18a6141a58d8b63ffffffff61400516565b9063ffffffff613ff816565b9063ffffffff61484c16565b9063ffffffff61483716565b601154909150600160a060020a0316156142155760115461421590600160a060020a03166141fe8c600263ffffffff61483716565b8461421085600263ffffffff61483716565b614949565b601254600160a060020a0316156142475760125461424790600160a060020a03166141fe8c600263ffffffff61483716565b60005461425d90600160a060020a031682614763565b50505050505050505050565b601c805460010190819055604080516c01000000000000000000000000308102602080840191909152600160a060020a038716909102603483015260488083019490945282518083039094018452606890910191829052825160009384939092909182918401908083835b602083106142f35780518252601f1990920191602091820191016142d4565b51815160209384036101000a6000190180199092169116179052604080519290940182900390912060008181529180529290206001015491955050600160a060020a0316159150614345905057600080fd5b5060008181526020808052604080832084815560018082018054600160a060020a031916600160a060020a038a81169182178355600285018a815591885260238752858820805494850181558852868820909301889055835491549054921680875260258652958490205484519283529482019490945282519194927f6c5992d9f99885465942ae05b2bcc358a509184bb262ec9bfe242ccdc42d1a0392918290030190a350505050565b60008080600160a060020a038616151561440957600080fd5b6000851161441657600080fd5b601b805460010190819055604080516c01000000000000000000000000308102602080840191909152600160a060020a038b16909102603483015260488083019490945282518083039094018452606890910191829052825182918401908083835b602083106144975780518252601f199092019160209182019101614478565b51815160209384036101000a600019018019909216911617905260408051929094018290039091206000818152601f9092529290206002015491955050600160a060020a03161591506144eb905057600080fd5b506000818152601f602090815260408083208481556001808201889055600282018054600160a060020a031916600160a060020a038c16908117909155600383018a905580865260228552928520805480830182558187529486209094018690559190935290541415614577576001810154600160a060020a0387166000908152602660205260409020555b50949350505050565b600080600160a060020a038416151561459857600080fd5b600160a060020a0385166000908152601860205260409020548311156145bd57600080fd5b600160a060020a0384166000908152601860205260409020546145e6818563ffffffff613ff816565b10156145f157600080fd5b600160a060020a0385166000908152600c602052604090205460ff161561461757600080fd5b600160a060020a0384166000908152600c602052604090205460ff161561463d57600080fd5b600160a060020a0380851660009081526018602052604080822054928816825290205461466f9163ffffffff613ff816565b600160a060020a03861660009081526018602052604090205490915061469b908463ffffffff61400516565b600160a060020a0380871660009081526018602052604080822093909355908616815220546146d0908463ffffffff613ff816565b600160a060020a0380861660008181526018602090815260409182902094909455805187815290519193928916927fa906a7bdab67ba77819fbd926440353e67b66c398aaeffd1fd212ddae941bbe292918290030190a3600160a060020a03808516600090815260186020526040808220549288168252902054829161475c919063ffffffff613ff816565b1461188c57fe5b600160a060020a03821660009081526007602052604090205461478c908263ffffffff613ff816565b600160a060020a0383166000908152600760205260409020556006546147b8908263ffffffff613ff816565b60065560408051828152905130916000917fddf252ad1be2c89b69c2b068fc378daa952ba7f163c4a11628f55a4df523b3ef9181900360200190a3604080518281529051600160a060020a0384169130917fddf252ad1be2c89b69c2b068fc378daa952ba7f163c4a11628f55a4df523b3ef9181900360200190a35050565b6000818381151561484457fe5b049392505050565b600082151561485d57506000611296565b5081810281838281151561486d57fe5b041461129657fe5b600160a060020a03821660009081526018602052604090205461489e908263ffffffff613ff816565b600160a060020a0383166000908152601860205260409020556014546148ca908263ffffffff613ff816565b60145560408051828152905130916000917fa906a7bdab67ba77819fbd926440353e67b66c398aaeffd1fd212ddae941bbe29181900360200190a3604080518281529051600160a060020a0384169130917fa906a7bdab67ba77819fbd926440353e67b66c398aaeffd1fd212ddae941bbe29181900360200190a35050565b601b805460010190819055604080516c01000000000000000000000000308102602080840191909152600160a060020a038916909102603483015260488083019490945282518083039094018452606890910191829052825160009384939092909182918401908083835b602083106149d35780518252601f1990920191602091820191016149b4565b51815160209384036101000a600019018019909216911617905260408051929094018290039091206000818152601f9092529290206002015491955050600160a060020a0316159150614a27905057600080fd5b506000818152601f602090815260408083208481556001808201888155600283018054600160a060020a031916600160a060020a038d16908117909155600384018b815581885260228752858820805494850181558852868820909301889055865260258552838620546018865295849020549054915484517f8cf3313f00000000000000000000000000000000000000000000000000000000815260048101979097526024870191909152604486019190915260648501529051909273__AOLibrary_____________________________92638cf3313f92608480840193829003018186803b158015614b1a57600080fd5b505af4158015614b2e573d6000803e3d6000fd5b505050506040513d6020811015614b4457600080fd5b5051600160a060020a03871660009081526025602090815260408083209390935560229052205460011415614b92576001810154600160a060020a0387166000908152602660205260409020555b614ba0868260030154614875565b614baa8684614763565b805460028201546001830154600384015460408051928352602083019190915281810187905251600160a060020a03909216917f20dcffcce6f33b394371fed8876a2562e3110ed8dbdc448b593a2680c7330a039181900360600190a3505050505050565b60408051608081018252600080825260208201819052918101829052606081019190915290565b6040805160608101825260008082526020820181905291810191909152905600a165627a7a7230582019147c875786f6a86d813a2abd9ef3273b6173ad9c984c66c01d883f15ce29140029",
	"source": "pragma solidity ^0.4.24;\n\nimport './SafeMath.sol';\nimport './AOTokenInterface.sol';\nimport './tokenRecipient.sol';\nimport './AOLibrary.sol';\nimport './AOSetting.sol';\n\n/**\n * @title AOToken\n */\ncontract AOToken is AOTokenInterface {\n\tusing SafeMath for uint256;\n\n\taddress public settingTAOId;\n\taddress public aoSettingAddress;\n\t// AO Dev Team addresses to receive Primordial/Network Tokens\n\taddress public aoDevTeam1 = 0x5C63644D01Ba385eBAc5bcf2DDc1e6dBC1182b52;\n\taddress public aoDevTeam2 = 0x156C79bf4347D1891da834Ea30662A14177CbF28;\n\n\tAOSetting internal _aoSetting;\n\n\t/***** PRIMORDIAL TOKEN VARIABLES *****/\n\tuint256 public primordialTotalSupply;\n\tuint256 public primordialTotalBought;\n\tuint256 public primordialSellPrice;\n\tuint256 public primordialBuyPrice;\n\n\t// Total available primordial token for sale 1,125,899,906,842,620 AO+\n\tuint256 constant public TOTAL_PRIMORDIAL_FOR_SALE = 1125899906842620;\n\n\tmapping (address => uint256) public primordialBalanceOf;\n\tmapping (address => mapping (address => uint256)) public primordialAllowance;\n\n\t// Mapping from owner's lot weighted multiplier to the amount of staked tokens\n\tmapping (address => mapping (uint256 => uint256)) public primordialStakedBalance;\n\n\tevent PrimordialTransfer(address indexed from, address indexed to, uint256 value);\n\tevent PrimordialApproval(address indexed _owner, address indexed _spender, uint256 _value);\n\tevent PrimordialBurn(address indexed from, uint256 value);\n\tevent PrimordialStake(address indexed from, uint256 value, uint256 weightedMultiplier);\n\tevent PrimordialUnstake(address indexed from, uint256 value, uint256 weightedMultiplier);\n\n\tuint256 public totalLots;\n\tuint256 public totalBurnLots;\n\tuint256 public totalConvertLots;\n\n\tbool public networkExchangeEnded;\n\n\t/**\n\t * Stores Lot creation data (during network exchange)\n\t */\n\tstruct Lot {\n\t\tbytes32 lotId;\n\t\tuint256 multiplier;\t// This value is in 10^6, so 1000000 = 1\n\t\taddress lotOwner;\n\t\tuint256 tokenAmount;\n\t}\n\n\t/**\n\t * Struct to store info when account burns primordial token\n\t */\n\tstruct BurnLot {\n\t\tbytes32 burnLotId;\n\t\taddress lotOwner;\n\t\tuint256 tokenAmount;\n\t}\n\n\t/**\n\t * Struct to store info when account converts network token to primordial token\n\t */\n\tstruct ConvertLot {\n\t\tbytes32 convertLotId;\n\t\taddress lotOwner;\n\t\tuint256 tokenAmount;\n\t}\n\n\t// Mapping from Lot ID to Lot object\n\tmapping (bytes32 => Lot) internal lots;\n\n\t// Mapping from Burn Lot ID to BurnLot object\n\tmapping (bytes32 => BurnLot) internal burnLots;\n\n\t// Mapping from Convert Lot ID to ConvertLot object\n\tmapping (bytes32 => ConvertLot) internal convertLots;\n\n\t// Mapping from owner to list of owned lot IDs\n\tmapping (address => bytes32[]) internal ownedLots;\n\n\t// Mapping from owner to list of owned burn lot IDs\n\tmapping (address => bytes32[]) internal ownedBurnLots;\n\n\t// Mapping from owner to list of owned convert lot IDs\n\tmapping (address => bytes32[]) internal ownedConvertLots;\n\n\t// Mapping from owner to his/her current weighted multiplier\n\tmapping (address => uint256) internal ownerWeightedMultiplier;\n\n\t// Mapping from owner to his/her max multiplier (multiplier of account's first Lot)\n\tmapping (address => uint256) internal ownerMaxMultiplier;\n\n\t// Event to be broadcasted to public when a lot is created\n\t// multiplier value is in 10^6 to account for 6 decimal points\n\tevent LotCreation(address indexed lotOwner, bytes32 indexed lotId, uint256 multiplier, uint256 primordialTokenAmount, uint256 networkTokenBonusAmount);\n\n\t// Event to be broadcasted to public when burn lot is created (when account burns primordial tokens)\n\tevent BurnLotCreation(address indexed lotOwner, bytes32 indexed burnLotId, uint256 burnTokenAmount, uint256 multiplierAfterBurn);\n\n\t// Event to be broadcasted to public when convert lot is created (when account convert network tokens to primordial tokens)\n\tevent ConvertLotCreation(address indexed lotOwner, bytes32 indexed convertLotId, uint256 convertTokenAmount, uint256 multiplierAfterBurn);\n\n\t/**\n\t * @dev Constructor function\n\t */\n\tconstructor(uint256 initialSupply, string tokenName, string tokenSymbol, address _settingTAOId, address _aoSettingAddress)\n\t\tAOTokenInterface(initialSupply, tokenName, tokenSymbol) public {\n\t\tsettingTAOId = _settingTAOId;\n\t\taoSettingAddress = _aoSettingAddress;\n\t\t_aoSetting = AOSetting(_aoSettingAddress);\n\n\t\tpowerOfTen = 0;\n\t\tdecimals = 0;\n\t\tsetPrimordialPrices(0, 10000); // Set Primordial buy price to 10000 Wei/token\n\t}\n\n\t/**\n\t * @dev Checks if buyer can buy primordial token\n\t */\n\tmodifier canBuyPrimordial(uint256 _sentAmount) {\n\t\trequire (networkExchangeEnded == false && primordialTotalBought < TOTAL_PRIMORDIAL_FOR_SALE && primordialBuyPrice > 0 && _sentAmount > 0);\n\t\t_;\n\t}\n\n\t/***** The AO ONLY METHODS *****/\n\t/**\n\t * @dev Set AO Dev team addresses to receive Primordial/Network tokens during network exchange\n\t * @param _aoDevTeam1 The first AO dev team address\n\t * @param _aoDevTeam2 The second AO dev team address\n\t */\n\tfunction setAODevTeamAddresses(address _aoDevTeam1, address _aoDevTeam2) public onlyTheAO {\n\t\taoDevTeam1 = _aoDevTeam1;\n\t\taoDevTeam2 = _aoDevTeam2;\n\t}\n\n\t/***** PRIMORDIAL TOKEN The AO ONLY METHODS *****/\n\t/**\n\t * @dev Allow users to buy Primordial tokens for `newBuyPrice` eth and sell Primordial tokens for `newSellPrice` eth\n\t * @param newPrimordialSellPrice Price users can sell to the contract\n\t * @param newPrimordialBuyPrice Price users can buy from the contract\n\t */\n\tfunction setPrimordialPrices(uint256 newPrimordialSellPrice, uint256 newPrimordialBuyPrice) public onlyTheAO {\n\t\tprimordialSellPrice = newPrimordialSellPrice;\n\t\tprimordialBuyPrice = newPrimordialBuyPrice;\n\t}\n\n\t/***** PRIMORDIAL TOKEN WHITELISTED ADDRESS ONLY METHODS *****/\n\t/**\n\t * @dev Stake `_value` Primordial tokens at `_weightedMultiplier ` multiplier on behalf of `_from`\n\t * @param _from The address of the target\n\t * @param _value The amount of Primordial tokens to stake\n\t * @param _weightedMultiplier The weighted multiplier of the Primordial tokens\n\t * @return true on success\n\t */\n\tfunction stakePrimordialTokenFrom(address _from, uint256 _value, uint256 _weightedMultiplier) public inWhitelist returns (bool) {\n\t\t// Check if the targeted balance is enough\n\t\trequire (primordialBalanceOf[_from] >= _value);\n\t\t// Make sure the weighted multiplier is the same as account's current weighted multiplier\n\t\trequire (_weightedMultiplier == ownerWeightedMultiplier[_from]);\n\t\t// Subtract from the targeted balance\n\t\tprimordialBalanceOf[_from] = primordialBalanceOf[_from].sub(_value);\n\t\t// Add to the targeted staked balance\n\t\tprimordialStakedBalance[_from][_weightedMultiplier] = primordialStakedBalance[_from][_weightedMultiplier].add(_value);\n\t\temit PrimordialStake(_from, _value, _weightedMultiplier);\n\t\treturn true;\n\t}\n\n\t/**\n\t * @dev Unstake `_value` Primordial tokens at `_weightedMultiplier` on behalf of `_from`\n\t * @param _from The address of the target\n\t * @param _value The amount to unstake\n\t * @param _weightedMultiplier The weighted multiplier of the Primordial tokens\n\t * @return true on success\n\t */\n\tfunction unstakePrimordialTokenFrom(address _from, uint256 _value, uint256 _weightedMultiplier) public inWhitelist returns (bool) {\n\t\t// Check if the targeted staked balance is enough\n\t\trequire (primordialStakedBalance[_from][_weightedMultiplier] >= _value);\n\t\t// Subtract from the targeted staked balance\n\t\tprimordialStakedBalance[_from][_weightedMultiplier] = primordialStakedBalance[_from][_weightedMultiplier].sub(_value);\n\t\t// Add to the targeted balance\n\t\tprimordialBalanceOf[_from] = primordialBalanceOf[_from].add(_value);\n\t\temit PrimordialUnstake(_from, _value, _weightedMultiplier);\n\t\treturn true;\n\t}\n\n\t/**\n\t * @dev Send `_value` primordial tokens to `_to` on behalf of `_from`\n\t * @param _from The address of the sender\n\t * @param _to The address of the recipient\n\t * @param _value The amount to send\n\t * @return true on success\n\t */\n\tfunction whitelistTransferPrimordialTokenFrom(address _from, address _to, uint256 _value) public inWhitelist returns (bool) {\n\t\tbytes32 _createdLotId = _createWeightedMultiplierLot(_to, _value, ownerWeightedMultiplier[_from]);\n\t\tLot memory _lot = lots[_createdLotId];\n\n\t\t// Make sure the new lot is created successfully\n\t\trequire (_lot.lotOwner == _to);\n\n\t\t// Update the weighted multiplier of the recipient\n\t\townerWeightedMultiplier[_to] = AOLibrary.calculateWeightedMultiplier(ownerWeightedMultiplier[_to], primordialBalanceOf[_to], ownerWeightedMultiplier[_from], _value);\n\n\t\t// Transfer the Primordial tokens\n\t\trequire (_transferPrimordialToken(_from, _to, _value));\n\t\temit LotCreation(_lot.lotOwner, _lot.lotId, _lot.multiplier, _lot.tokenAmount, 0);\n\t\treturn true;\n\t}\n\n\t/***** PUBLIC METHODS *****/\n\t/***** Primordial TOKEN PUBLIC METHODS *****/\n\t/**\n\t * @dev Buy Primordial tokens from contract by sending ether\n\t */\n\tfunction buyPrimordialToken() public payable canBuyPrimordial(msg.value) {\n\t\t(uint256 tokenAmount, uint256 remainderBudget, bool shouldEndNetworkExchange) = _calculateTokenAmountAndRemainderBudget(msg.value);\n\t\trequire (tokenAmount > 0);\n\n\t\t// Ends network exchange if necessary\n\t\tif (shouldEndNetworkExchange) {\n\t\t\tnetworkExchangeEnded = true;\n\t\t}\n\n\t\t// Send the primordial token to buyer and reward AO devs\n\t\t_sendPrimordialTokenAndRewardDev(tokenAmount, msg.sender);\n\n\t\t// Send remainder budget back to buyer if exist\n\t\tif (remainderBudget > 0) {\n\t\t\tmsg.sender.transfer(remainderBudget);\n\t\t}\n\t}\n\n\t/**\n\t * @dev Send `_value` Primordial tokens to `_to` from your account\n\t * @param _to The address of the recipient\n\t * @param _value The amount to send\n\t * @return true on success\n\t */\n\tfunction transferPrimordialToken(address _to, uint256 _value) public returns (bool success) {\n\t\tbytes32 _createdLotId = _createWeightedMultiplierLot(_to, _value, ownerWeightedMultiplier[msg.sender]);\n\t\tLot memory _lot = lots[_createdLotId];\n\n\t\t// Make sure the new lot is created successfully\n\t\trequire (_lot.lotOwner == _to);\n\n\t\t// Update the weighted multiplier of the recipient\n\t\townerWeightedMultiplier[_to] = AOLibrary.calculateWeightedMultiplier(ownerWeightedMultiplier[_to], primordialBalanceOf[_to], ownerWeightedMultiplier[msg.sender], _value);\n\n\t\t// Transfer the Primordial tokens\n\t\trequire (_transferPrimordialToken(msg.sender, _to, _value));\n\t\temit LotCreation(_lot.lotOwner, _lot.lotId, _lot.multiplier, _lot.tokenAmount, 0);\n\t\treturn true;\n\t}\n\n\t/**\n\t * @dev Send `_value` Primordial tokens to `_to` from `_from`\n\t * @param _from The address of the sender\n\t * @param _to The address of the recipient\n\t * @param _value The amount to send\n\t * @return true on success\n\t */\n\tfunction transferPrimordialTokenFrom(address _from, address _to, uint256 _value) public returns (bool success) {\n\t\trequire (_value <= primordialAllowance[_from][msg.sender]);\n\t\tprimordialAllowance[_from][msg.sender] = primordialAllowance[_from][msg.sender].sub(_value);\n\n\t\tbytes32 _createdLotId = _createWeightedMultiplierLot(_to, _value, ownerWeightedMultiplier[_from]);\n\t\tLot memory _lot = lots[_createdLotId];\n\n\t\t// Make sure the new lot is created successfully\n\t\trequire (_lot.lotOwner == _to);\n\n\t\t// Update the weighted multiplier of the recipient\n\t\townerWeightedMultiplier[_to] = AOLibrary.calculateWeightedMultiplier(ownerWeightedMultiplier[_to], primordialBalanceOf[_to], ownerWeightedMultiplier[_from], _value);\n\n\t\t// Transfer the Primordial tokens\n\t\trequire (_transferPrimordialToken(_from, _to, _value));\n\t\temit LotCreation(_lot.lotOwner, _lot.lotId, _lot.multiplier, _lot.tokenAmount, 0);\n\t\treturn true;\n\t}\n\n\t/**\n\t * @dev Allows `_spender` to spend no more than `_value` Primordial tokens in your behalf\n\t * @param _spender The address authorized to spend\n\t * @param _value The max amount they can spend\n\t * @return true on success\n\t */\n\tfunction approvePrimordialToken(address _spender, uint256 _value) public returns (bool success) {\n\t\tprimordialAllowance[msg.sender][_spender] = _value;\n\t\temit PrimordialApproval(msg.sender, _spender, _value);\n\t\treturn true;\n\t}\n\n\t/**\n\t * @dev Allows `_spender` to spend no more than `_value` Primordial tokens in your behalf, and then ping the contract about it\n\t * @param _spender The address authorized to spend\n\t * @param _value The max amount they can spend\n\t * @param _extraData some extra information to send to the approved contract\n\t * @return true on success\n\t */\n\tfunction approvePrimordialTokenAndCall(address _spender, uint256 _value, bytes _extraData) public returns (bool success) {\n\t\ttokenRecipient spender = tokenRecipient(_spender);\n\t\tif (approvePrimordialToken(_spender, _value)) {\n\t\t\tspender.receiveApproval(msg.sender, _value, this, _extraData);\n\t\t\treturn true;\n\t\t}\n\t}\n\n\t/**\n\t * @dev Remove `_value` Primordial tokens from the system irreversibly\n\t *\t\tand re-weight the account's multiplier after burn\n\t * @param _value The amount to burn\n\t * @return true on success\n\t */\n\tfunction burnPrimordialToken(uint256 _value) public returns (bool success) {\n\t\trequire (primordialBalanceOf[msg.sender] >= _value);\n\t\trequire (calculateMaximumBurnAmount(msg.sender) >= _value);\n\n\t\t// Update the account's multiplier\n\t\townerWeightedMultiplier[msg.sender] = calculateMultiplierAfterBurn(msg.sender, _value);\n\t\tprimordialBalanceOf[msg.sender] = primordialBalanceOf[msg.sender].sub(_value);\n\t\tprimordialTotalSupply = primordialTotalSupply.sub(_value);\n\n\t\t// Store burn lot info\n\t\t_createBurnLot(msg.sender, _value);\n\t\temit PrimordialBurn(msg.sender, _value);\n\t\treturn true;\n\t}\n\n\t/**\n\t * @dev Remove `_value` Primordial tokens from the system irreversibly on behalf of `_from`\n\t *\t\tand re-weight `_from`'s multiplier after burn\n\t * @param _from The address of sender\n\t * @param _value The amount to burn\n\t * @return true on success\n\t */\n\tfunction burnPrimordialTokenFrom(address _from, uint256 _value) public returns (bool success) {\n\t\trequire (primordialBalanceOf[_from] >= _value);\n\t\trequire (primordialAllowance[_from][msg.sender] >= _value);\n\t\trequire (calculateMaximumBurnAmount(_from) >= _value);\n\n\t\t// Update `_from`'s multiplier\n\t\townerWeightedMultiplier[_from] = calculateMultiplierAfterBurn(_from, _value);\n\t\tprimordialBalanceOf[_from] = primordialBalanceOf[_from].sub(_value);\n\t\tprimordialAllowance[_from][msg.sender] = primordialAllowance[_from][msg.sender].sub(_value);\n\t\tprimordialTotalSupply = primordialTotalSupply.sub(_value);\n\n\t\t// Store burn lot info\n\t\t_createBurnLot(_from, _value);\n\t\temit PrimordialBurn(_from, _value);\n\t\treturn true;\n\t}\n\n\t/**\n\t * @dev Return all lot IDs owned by an address\n\t * @param _lotOwner The address of the lot owner\n\t * @return array of lot IDs\n\t */\n\tfunction lotIdsByAddress(address _lotOwner) public view returns (bytes32[]) {\n\t\treturn ownedLots[_lotOwner];\n\t}\n\n\t/**\n\t * @dev Return the total lots owned by an address\n\t * @param _lotOwner The address of the lot owner\n\t * @return total lots owner by the address\n\t */\n\tfunction totalLotsByAddress(address _lotOwner) public view returns (uint256) {\n\t\treturn ownedLots[_lotOwner].length;\n\t}\n\n\t/**\n\t * @dev Return the lot information at a given index of the lots list of the requested owner\n\t * @param _lotOwner The address owning the lots list to be accessed\n\t * @param _index uint256 representing the index to be accessed of the requested lots list\n\t * @return id of the lot\n\t * @return The address of the lot owner\n\t * @return multiplier of the lot in (10 ** 6)\n\t * @return Primordial token amount in the lot\n\t */\n\tfunction lotOfOwnerByIndex(address _lotOwner, uint256 _index) public view returns (bytes32, address, uint256, uint256) {\n\t\trequire (_index < ownedLots[_lotOwner].length);\n\t\tLot memory _lot = lots[ownedLots[_lotOwner][_index]];\n\t\treturn (_lot.lotId, _lot.lotOwner, _lot.multiplier, _lot.tokenAmount);\n\t}\n\n\t/**\n\t * @dev Return the lot information at a given ID\n\t * @param _lotId The lot ID in question\n\t * @return id of the lot\n\t * @return The lot owner address\n\t * @return multiplier of the lot in (10 ** 6)\n\t * @return Primordial token amount in the lot\n\t */\n\tfunction lotById(bytes32 _lotId) public view returns (bytes32, address, uint256, uint256) {\n\t\tLot memory _lot = lots[_lotId];\n\t\treturn (_lot.lotId, _lot.lotOwner, _lot.multiplier, _lot.tokenAmount);\n\t}\n\n\t/**\n\t * @dev Return all Burn Lot IDs owned by an address\n\t * @param _lotOwner The address of the burn lot owner\n\t * @return array of Burn Lot IDs\n\t */\n\tfunction burnLotIdsByAddress(address _lotOwner) public view returns (bytes32[]) {\n\t\treturn ownedBurnLots[_lotOwner];\n\t}\n\n\t/**\n\t * @dev Return the total burn lots owned by an address\n\t * @param _lotOwner The address of the burn lot owner\n\t * @return total burn lots owner by the address\n\t */\n\tfunction totalBurnLotsByAddress(address _lotOwner) public view returns (uint256) {\n\t\treturn ownedBurnLots[_lotOwner].length;\n\t}\n\n\t/**\n\t * @dev Return the burn lot information at a given ID\n\t * @param _burnLotId The burn lot ID in question\n\t * @return id of the lot\n\t * @return The address of the burn lot owner\n\t * @return Primordial token amount in the burn lot\n\t */\n\tfunction burnLotById(bytes32 _burnLotId) public view returns (bytes32, address, uint256) {\n\t\tBurnLot memory _burnLot = burnLots[_burnLotId];\n\t\treturn (_burnLot.burnLotId, _burnLot.lotOwner, _burnLot.tokenAmount);\n\t}\n\n\t/**\n\t * @dev Return all Convert Lot IDs owned by an address\n\t * @param _lotOwner The address of the convert lot owner\n\t * @return array of Convert Lot IDs\n\t */\n\tfunction convertLotIdsByAddress(address _lotOwner) public view returns (bytes32[]) {\n\t\treturn ownedConvertLots[_lotOwner];\n\t}\n\n\t/**\n\t * @dev Return the total convert lots owned by an address\n\t * @param _lotOwner The address of the convert lot owner\n\t * @return total convert lots owner by the address\n\t */\n\tfunction totalConvertLotsByAddress(address _lotOwner) public view returns (uint256) {\n\t\treturn ownedConvertLots[_lotOwner].length;\n\t}\n\n\t/**\n\t * @dev Return the convert lot information at a given ID\n\t * @param _convertLotId The convert lot ID in question\n\t * @return id of the lot\n\t * @return The address of the convert lot owner\n\t * @return Primordial token amount in the convert lot\n\t */\n\tfunction convertLotById(bytes32 _convertLotId) public view returns (bytes32, address, uint256) {\n\t\tConvertLot memory _convertLot = convertLots[_convertLotId];\n\t\treturn (_convertLot.convertLotId, _convertLot.lotOwner, _convertLot.tokenAmount);\n\t}\n\n\t/**\n\t * @dev Return the average weighted multiplier of all lots owned by an address\n\t * @param _lotOwner The address of the lot owner\n\t * @return the weighted multiplier of the address (in 10 ** 6)\n\t */\n\tfunction weightedMultiplierByAddress(address _lotOwner) public view returns (uint256) {\n\t\treturn ownerWeightedMultiplier[_lotOwner];\n\t}\n\n\t/**\n\t * @dev Return the max multiplier of an address\n\t * @param _target The address to query\n\t * @return the max multiplier of the address (in 10 ** 6)\n\t */\n\tfunction maxMultiplierByAddress(address _target) public view returns (uint256) {\n\t\treturn (ownedLots[_target].length > 0) ? ownerMaxMultiplier[_target] : 0;\n\t}\n\n\t/**\n\t * @dev Calculate the primordial token multiplier, bonus network token percentage, and the\n\t *\t\tbonus network token amount on a given lot when someone purchases primordial token\n\t *\t\tduring network exchange\n\t * @param _purchaseAmount The amount of primordial token intended to be purchased\n\t * @return The multiplier in (10 ** 6)\n\t * @return The bonus percentage\n\t * @return The amount of network token as bonus\n\t */\n\tfunction calculateMultiplierAndBonus(uint256 _purchaseAmount) public view returns (uint256, uint256, uint256) {\n\t\t(uint256 startingPrimordialMultiplier, uint256 endingPrimordialMultiplier, uint256 startingNetworkTokenBonusMultiplier, uint256 endingNetworkTokenBonusMultiplier) = _getSettingVariables();\n\t\treturn (\n\t\t\tAOLibrary.calculatePrimordialMultiplier(_purchaseAmount, TOTAL_PRIMORDIAL_FOR_SALE, primordialTotalBought, startingPrimordialMultiplier, endingPrimordialMultiplier),\n\t\t\tAOLibrary.calculateNetworkTokenBonusPercentage(_purchaseAmount, TOTAL_PRIMORDIAL_FOR_SALE, primordialTotalBought, startingNetworkTokenBonusMultiplier, endingNetworkTokenBonusMultiplier),\n\t\t\tAOLibrary.calculateNetworkTokenBonusAmount(_purchaseAmount, TOTAL_PRIMORDIAL_FOR_SALE, primordialTotalBought, startingNetworkTokenBonusMultiplier, endingNetworkTokenBonusMultiplier)\n\t\t);\n\t}\n\n\t/**\n\t * @dev Calculate the maximum amount of Primordial an account can burn\n\t * @param _account The address of the account\n\t * @return The maximum primordial token amount to burn\n\t */\n\tfunction calculateMaximumBurnAmount(address _account) public view returns (uint256) {\n\t\treturn AOLibrary.calculateMaximumBurnAmount(primordialBalanceOf[_account], ownerWeightedMultiplier[_account], ownerMaxMultiplier[_account]);\n\t}\n\n\t/**\n\t * @dev Calculate account's new multiplier after burn `_amountToBurn` primordial tokens\n\t * @param _account The address of the account\n\t * @param _amountToBurn The amount of primordial token to burn\n\t * @return The new multiplier in (10 ** 6)\n\t */\n\tfunction calculateMultiplierAfterBurn(address _account, uint256 _amountToBurn) public view returns (uint256) {\n\t\trequire (calculateMaximumBurnAmount(_account) >= _amountToBurn);\n\t\treturn AOLibrary.calculateMultiplierAfterBurn(primordialBalanceOf[_account], ownerWeightedMultiplier[_account], _amountToBurn);\n\t}\n\n\t/**\n\t * @dev Calculate account's new multiplier after converting `amountToConvert` network token to primordial token\n\t * @param _account The address of the account\n\t * @param _amountToConvert The amount of network token to convert\n\t * @return The new multiplier in (10 ** 6)\n\t */\n\tfunction calculateMultiplierAfterConversion(address _account, uint256 _amountToConvert) public view returns (uint256) {\n\t\treturn AOLibrary.calculateMultiplierAfterConversion(primordialBalanceOf[_account], ownerWeightedMultiplier[_account], _amountToConvert);\n\t}\n\n\t/**\n\t * @dev Convert `_value` of network tokens to primordial tokens\n\t *\t\tand re-weight the account's multiplier after conversion\n\t * @param _value The amount to convert\n\t * @return true on success\n\t */\n\tfunction convertToPrimordial(uint256 _value) public returns (bool success) {\n\t\trequire (balanceOf[msg.sender] >= _value);\n\n\t\t// Update the account's multiplier\n\t\townerWeightedMultiplier[msg.sender] = calculateMultiplierAfterConversion(msg.sender, _value);\n\t\t// Burn network token\n\t\tburn(_value);\n\t\t// mint primordial token\n\t\t_mintPrimordialToken(msg.sender, _value);\n\n\t\t// Store convert lot info\n\t\ttotalConvertLots++;\n\n\t\t// Generate convert lot Id\n\t\tbytes32 convertLotId = keccak256(abi.encodePacked(this, msg.sender, totalConvertLots));\n\n\t\t// Make sure no one owns this lot yet\n\t\trequire (convertLots[convertLotId].lotOwner == address(0));\n\n\t\tConvertLot storage convertLot = convertLots[convertLotId];\n\t\tconvertLot.convertLotId = convertLotId;\n\t\tconvertLot.lotOwner = msg.sender;\n\t\tconvertLot.tokenAmount = _value;\n\t\townedConvertLots[msg.sender].push(convertLotId);\n\t\temit ConvertLotCreation(convertLot.lotOwner, convertLot.convertLotId, convertLot.tokenAmount, ownerWeightedMultiplier[convertLot.lotOwner]);\n\t\treturn true;\n\t}\n\n\t/***** NETWORK TOKEN & PRIMORDIAL TOKEN METHODS *****/\n\t/**\n\t * @dev Send `_value` network tokens and `_primordialValue` primordial tokens to `_to` from your account\n\t * @param _to The address of the recipient\n\t * @param _value The amount of network tokens to send\n\t * @param _primordialValue The amount of Primordial tokens to send\n\t * @return true on success\n\t */\n\tfunction transferTokens(address _to, uint256 _value, uint256 _primordialValue) public returns (bool success) {\n\t\trequire (super.transfer(_to, _value));\n\t\trequire (transferPrimordialToken(_to, _primordialValue));\n\t\treturn true;\n\t}\n\n\t/**\n\t * @dev Send `_value` network tokens and `_primordialValue` primordial tokens to `_to` from `_from`\n\t * @param _from The address of the sender\n\t * @param _to The address of the recipient\n\t * @param _value The amount of network tokens tokens to send\n\t * @param _primordialValue The amount of Primordial tokens to send\n\t * @return true on success\n\t */\n\tfunction transferTokensFrom(address _from, address _to, uint256 _value, uint256 _primordialValue) public returns (bool success) {\n\t\trequire (super.transferFrom(_from, _to, _value));\n\t\trequire (transferPrimordialTokenFrom(_from, _to, _primordialValue));\n\t\treturn true;\n\t}\n\n\t/**\n\t * @dev Allows `_spender` to spend no more than `_value` network tokens and `_primordialValue` Primordial tokens in your behalf\n\t * @param _spender The address authorized to spend\n\t * @param _value The max amount of network tokens they can spend\n\t * @param _primordialValue The max amount of network tokens they can spend\n\t * @return true on success\n\t */\n\tfunction approveTokens(address _spender, uint256 _value, uint256 _primordialValue) public returns (bool success) {\n\t\trequire (super.approve(_spender, _value));\n\t\trequire (approvePrimordialToken(_spender, _primordialValue));\n\t\treturn true;\n\t}\n\n\t/**\n\t * @dev Allows `_spender` to spend no more than `_value` network tokens and `_primordialValue` Primordial tokens in your behalf, and then ping the contract about it\n\t * @param _spender The address authorized to spend\n\t * @param _value The max amount of network tokens they can spend\n\t * @param _primordialValue The max amount of Primordial Tokens they can spend\n\t * @param _extraData some extra information to send to the approved contract\n\t * @return true on success\n\t */\n\tfunction approveTokensAndCall(address _spender, uint256 _value, uint256 _primordialValue, bytes _extraData) public returns (bool success) {\n\t\trequire (super.approveAndCall(_spender, _value, _extraData));\n\t\trequire (approvePrimordialTokenAndCall(_spender, _primordialValue, _extraData));\n\t\treturn true;\n\t}\n\n\t/**\n\t * @dev Remove `_value` network tokens and `_primordialValue` Primordial tokens from the system irreversibly\n\t * @param _value The amount of network tokens to burn\n\t * @param _primordialValue The amount of Primordial tokens to burn\n\t * @return true on success\n\t */\n\tfunction burnTokens(uint256 _value, uint256 _primordialValue) public returns (bool success) {\n\t\trequire (super.burn(_value));\n\t\trequire (burnPrimordialToken(_primordialValue));\n\t\treturn true;\n\t}\n\n\t/**\n\t * @dev Remove `_value` network tokens and `_primordialValue` Primordial tokens from the system irreversibly on behalf of `_from`\n\t * @param _from The address of sender\n\t * @param _value The amount of network tokens to burn\n\t * @param _primordialValue The amount of Primordial tokens to burn\n\t * @return true on success\n\t */\n\tfunction burnTokensFrom(address _from, uint256 _value, uint256 _primordialValue) public returns (bool success) {\n\t\trequire (super.burnFrom(_from, _value));\n\t\trequire (burnPrimordialTokenFrom(_from, _primordialValue));\n\t\treturn true;\n\t}\n\n\t/***** INTERNAL METHODS *****/\n\t/***** PRIMORDIAL TOKEN INTERNAL METHODS *****/\n\t/**\n\t * @dev Calculate the amount of token the buyer will receive and remaining budget if exist\n\t *\t\twhen he/she buys primordial token\n\t * @param _budget The amount of ETH sent by buyer\n\t * @return uint256 of the tokenAmount the buyer will receiver\n\t * @return uint256 of the remaining budget, if exist\n\t * @return bool whether or not the network exchange should end\n\t */\n\tfunction _calculateTokenAmountAndRemainderBudget(uint256 _budget) internal view returns (uint256, uint256, bool) {\n\t\t// Calculate the amount of tokens\n\t\tuint256 tokenAmount = _budget.div(primordialBuyPrice);\n\n\t\t// If we need to return ETH to the buyer, in the case\n\t\t// where the buyer sends more ETH than available primordial token to be purchased\n\t\tuint256 remainderEth = 0;\n\n\t\t// Make sure primordialTotalBought is not overflowing\n\t\tbool shouldEndNetworkExchange = false;\n\t\tif (primordialTotalBought.add(tokenAmount) >= TOTAL_PRIMORDIAL_FOR_SALE) {\n\t\t\ttokenAmount = TOTAL_PRIMORDIAL_FOR_SALE.sub(primordialTotalBought);\n\t\t\tshouldEndNetworkExchange = true;\n\t\t\tremainderEth = msg.value.sub(tokenAmount.mul(primordialBuyPrice));\n\t\t}\n\t\treturn (tokenAmount, remainderEth, shouldEndNetworkExchange);\n\t}\n\n\t/**\n\t * @dev Actually sending the primordial token to buyer and reward AO devs accordingly\n\t * @param tokenAmount The amount of primordial token to be sent to buyer\n\t * @param to The recipient of the token\n\t */\n\tfunction _sendPrimordialTokenAndRewardDev(uint256 tokenAmount, address to) internal {\n\t\t(uint256 startingPrimordialMultiplier,, uint256 startingNetworkTokenBonusMultiplier, uint256 endingNetworkTokenBonusMultiplier) = _getSettingVariables();\n\n\t\t// Update primordialTotalBought\n\t\t(uint256 multiplier, uint256 networkTokenBonusPercentage, uint256 networkTokenBonusAmount) = calculateMultiplierAndBonus(tokenAmount);\n\t\tprimordialTotalBought = primordialTotalBought.add(tokenAmount);\n\t\t_createPrimordialLot(to, tokenAmount, multiplier, networkTokenBonusAmount);\n\n\t\t// Calculate The AO and AO Dev Team's portion of Primordial and Network Token Bonus\n\t\tuint256 inverseMultiplier = startingPrimordialMultiplier.sub(multiplier); // Inverse of the buyer's multiplier\n\t\tuint256 theAONetworkTokenBonusAmount = (startingNetworkTokenBonusMultiplier.sub(networkTokenBonusPercentage).add(endingNetworkTokenBonusMultiplier)).mul(tokenAmount).div(AOLibrary.PERCENTAGE_DIVISOR());\n\t\tif (aoDevTeam1 != address(0)) {\n\t\t\t_createPrimordialLot(aoDevTeam1, tokenAmount.div(2), inverseMultiplier, theAONetworkTokenBonusAmount.div(2));\n\t\t}\n\t\tif (aoDevTeam2 != address(0)) {\n\t\t\t_createPrimordialLot(aoDevTeam2, tokenAmount.div(2), inverseMultiplier, theAONetworkTokenBonusAmount.div(2));\n\t\t}\n\t\t_mintToken(theAO, theAONetworkTokenBonusAmount);\n\t}\n\n\t/**\n\t * @dev Create a lot with `primordialTokenAmount` of primordial tokens with `_multiplier` for an `account`\n\t *\t\tduring network exchange, and reward `_networkTokenBonusAmount` if exist\n\t * @param _account Address of the lot owner\n\t * @param _primordialTokenAmount The amount of primordial tokens to be stored in the lot\n\t * @param _multiplier The multiplier for this lot in (10 ** 6)\n\t * @param _networkTokenBonusAmount The network token bonus amount\n\t */\n\tfunction _createPrimordialLot(address _account, uint256 _primordialTokenAmount, uint256 _multiplier, uint256 _networkTokenBonusAmount) internal {\n\t\ttotalLots++;\n\n\t\t// Generate lotId\n\t\tbytes32 lotId = keccak256(abi.encodePacked(this, _account, totalLots));\n\n\t\t// Make sure no one owns this lot yet\n\t\trequire (lots[lotId].lotOwner == address(0));\n\n\t\tLot storage lot = lots[lotId];\n\t\tlot.lotId = lotId;\n\t\tlot.multiplier = _multiplier;\n\t\tlot.lotOwner = _account;\n\t\tlot.tokenAmount = _primordialTokenAmount;\n\t\townedLots[_account].push(lotId);\n\t\townerWeightedMultiplier[_account] = AOLibrary.calculateWeightedMultiplier(ownerWeightedMultiplier[_account], primordialBalanceOf[_account], lot.multiplier, lot.tokenAmount);\n\t\t// If this is the first lot, set this as the max multiplier of the account\n\t\tif (ownedLots[_account].length == 1) {\n\t\t\townerMaxMultiplier[_account] = lot.multiplier;\n\t\t}\n\t\t_mintPrimordialToken(_account, lot.tokenAmount);\n\t\t_mintToken(_account, _networkTokenBonusAmount);\n\n\t\temit LotCreation(lot.lotOwner, lot.lotId, lot.multiplier, lot.tokenAmount, _networkTokenBonusAmount);\n\t}\n\n\t/**\n\t * @dev Create `mintedAmount` Primordial tokens and send it to `target`\n\t * @param target Address to receive the Primordial tokens\n\t * @param mintedAmount The amount of Primordial tokens it will receive\n\t */\n\tfunction _mintPrimordialToken(address target, uint256 mintedAmount) internal {\n\t\tprimordialBalanceOf[target] = primordialBalanceOf[target].add(mintedAmount);\n\t\tprimordialTotalSupply = primordialTotalSupply.add(mintedAmount);\n\t\temit PrimordialTransfer(0, this, mintedAmount);\n\t\temit PrimordialTransfer(this, target, mintedAmount);\n\t}\n\n\t/**\n\t * @dev Create a lot with `tokenAmount` of tokens at `weightedMultiplier` for an `account`\n\t * @param _account Address of lot owner\n\t * @param _tokenAmount The amount of tokens\n\t * @param _weightedMultiplier The multiplier of the lot (in 10^6)\n\t * @return bytes32 of new created lot ID\n\t */\n\tfunction _createWeightedMultiplierLot(address _account, uint256 _tokenAmount, uint256 _weightedMultiplier) internal returns (bytes32) {\n\t\trequire (_account != address(0));\n\t\trequire (_tokenAmount > 0);\n\n\t\ttotalLots++;\n\n\t\t// Generate lotId\n\t\tbytes32 lotId = keccak256(abi.encodePacked(this, _account, totalLots));\n\n\t\t// Make sure no one owns this lot yet\n\t\trequire (lots[lotId].lotOwner == address(0));\n\n\t\tLot storage lot = lots[lotId];\n\t\tlot.lotId = lotId;\n\t\tlot.multiplier = _weightedMultiplier;\n\t\tlot.lotOwner = _account;\n\t\tlot.tokenAmount = _tokenAmount;\n\t\townedLots[_account].push(lotId);\n\t\t// If this is the first lot, set this as the max multiplier of the account\n\t\tif (ownedLots[_account].length == 1) {\n\t\t\townerMaxMultiplier[_account] = lot.multiplier;\n\t\t}\n\t\treturn lotId;\n\t}\n\n\t/**\n\t * @dev Send `_value` Primordial tokens from `_from` to `_to`\n\t * @param _from The address of sender\n\t * @param _to The address of the recipient\n\t * @param _value The amount to send\n\t */\n\tfunction _transferPrimordialToken(address _from, address _to, uint256 _value) internal returns (bool) {\n\t\trequire (_to != address(0));\t\t\t\t\t\t\t\t\t// Prevent transfer to 0x0 address. Use burn() instead\n\t\trequire (primordialBalanceOf[_from] >= _value);\t\t\t\t\t\t// Check if the sender has enough\n\t\trequire (primordialBalanceOf[_to].add(_value) >= primordialBalanceOf[_to]);\t// Check for overflows\n\t\trequire (!frozenAccount[_from]);\t\t\t\t\t\t\t\t// Check if sender is frozen\n\t\trequire (!frozenAccount[_to]);\t\t\t\t\t\t\t\t\t// Check if recipient is frozen\n\t\tuint256 previousBalances = primordialBalanceOf[_from].add(primordialBalanceOf[_to]);\n\t\tprimordialBalanceOf[_from] = primordialBalanceOf[_from].sub(_value);\t\t\t// Subtract from the sender\n\t\tprimordialBalanceOf[_to] = primordialBalanceOf[_to].add(_value);\t\t\t\t// Add the same to the recipient\n\t\temit PrimordialTransfer(_from, _to, _value);\n\t\tassert(primordialBalanceOf[_from].add(primordialBalanceOf[_to]) == previousBalances);\n\t\treturn true;\n\t}\n\n\t/**\n\t * @dev Store burn lot information\n\t * @param _account The address of the account\n\t * @param _tokenAmount The amount of primordial tokens to burn\n\t */\n\tfunction _createBurnLot(address _account, uint256 _tokenAmount) internal {\n\t\ttotalBurnLots++;\n\n\t\t// Generate burn lot Id\n\t\tbytes32 burnLotId = keccak256(abi.encodePacked(this, _account, totalBurnLots));\n\n\t\t// Make sure no one owns this lot yet\n\t\trequire (burnLots[burnLotId].lotOwner == address(0));\n\n\t\tBurnLot storage burnLot = burnLots[burnLotId];\n\t\tburnLot.burnLotId = burnLotId;\n\t\tburnLot.lotOwner = _account;\n\t\tburnLot.tokenAmount = _tokenAmount;\n\t\townedBurnLots[_account].push(burnLotId);\n\t\temit BurnLotCreation(burnLot.lotOwner, burnLot.burnLotId, burnLot.tokenAmount, ownerWeightedMultiplier[burnLot.lotOwner]);\n\t}\n\n\t/**\n\t * @dev Get setting variables\n\t * @return startingPrimordialMultiplier The starting multiplier used to calculate primordial token\n\t * @return endingPrimordialMultiplier The ending multiplier used to calculate primordial token\n\t * @return startingNetworkTokenBonusMultiplier The starting multiplier used to calculate network token bonus\n\t * @return endingNetworkTokenBonusMultiplier The ending multiplier used to calculate network token bonus\n\t */\n\tfunction _getSettingVariables() internal view returns (uint256, uint256, uint256, uint256) {\n\t\t(uint256 startingPrimordialMultiplier,,,,) = _aoSetting.getSettingValuesByTAOName(settingTAOId, 'startingPrimordialMultiplier');\n\t\t(uint256 endingPrimordialMultiplier,,,,) = _aoSetting.getSettingValuesByTAOName(settingTAOId, 'endingPrimordialMultiplier');\n\n\t\t(uint256 startingNetworkTokenBonusMultiplier,,,,) = _aoSetting.getSettingValuesByTAOName(settingTAOId, 'startingNetworkTokenBonusMultiplier');\n\t\t(uint256 endingNetworkTokenBonusMultiplier,,,,) = _aoSetting.getSettingValuesByTAOName(settingTAOId, 'endingNetworkTokenBonusMultiplier');\n\n\t\treturn (startingPrimordialMultiplier, endingPrimordialMultiplier, startingNetworkTokenBonusMultiplier, endingNetworkTokenBonusMultiplier);\n\t}\n}\n",
	"sourcePath": "/Users/johanmulyono/Work/AO/ao-contracts/contracts/AOToken.sol",
	"compiler": {
		"name": "solc",
		"version": "0.4.24+commit.e67f0147.Emscripten.clang"
	},
	"schemaVersion": "2.0.1",
	"updatedAt": "2019-01-07T03:04:12.996Z"
}