{
  "contractName": "AOTreasury",
  "abi": [
    {
      "constant": true,
      "inputs": [],
      "name": "nameTAOPositionAddress",
      "outputs": [
        {
          "name": "",
          "type": "address"
        }
      ],
      "payable": false,
      "stateMutability": "view",
      "type": "function"
    },
    {
      "constant": true,
      "inputs": [],
      "name": "totalDenominations",
      "outputs": [
        {
          "name": "",
          "type": "uint256"
        }
      ],
      "payable": false,
      "stateMutability": "view",
      "type": "function"
    },
    {
      "constant": true,
      "inputs": [
        {
          "name": "",
          "type": "address"
        }
      ],
      "name": "whitelist",
      "outputs": [
        {
          "name": "",
          "type": "bool"
        }
      ],
      "payable": false,
      "stateMutability": "view",
      "type": "function"
    },
    {
      "constant": true,
      "inputs": [],
      "name": "totalDenominationExchanges",
      "outputs": [
        {
          "name": "",
          "type": "uint256"
        }
      ],
      "payable": false,
      "stateMutability": "view",
      "type": "function"
    },
    {
      "constant": true,
      "inputs": [],
      "name": "theAO",
      "outputs": [
        {
          "name": "",
          "type": "address"
        }
      ],
      "payable": false,
      "stateMutability": "view",
      "type": "function"
    },
    {
      "inputs": [
        {
          "name": "_nameTAOPositionAddress",
          "type": "address"
        }
      ],
      "payable": false,
      "stateMutability": "nonpayable",
      "type": "constructor"
    },
    {
      "anonymous": false,
      "inputs": [
        {
          "indexed": true,
          "name": "account",
          "type": "address"
        },
        {
          "indexed": true,
          "name": "exchangeId",
          "type": "bytes32"
        },
        {
          "indexed": false,
          "name": "amount",
          "type": "uint256"
        },
        {
          "indexed": false,
          "name": "fromDenominationAddress",
          "type": "address"
        },
        {
          "indexed": false,
          "name": "fromDenominationSymbol",
          "type": "string"
        },
        {
          "indexed": false,
          "name": "toDenominationAddress",
          "type": "address"
        },
        {
          "indexed": false,
          "name": "toDenominationSymbol",
          "type": "string"
        }
      ],
      "name": "ExchangeDenomination",
      "type": "event"
    },
    {
      "constant": false,
      "inputs": [
        {
          "name": "_theAO",
          "type": "address"
        }
      ],
      "name": "transferOwnership",
      "outputs": [],
      "payable": false,
      "stateMutability": "nonpayable",
      "type": "function"
    },
    {
      "constant": false,
      "inputs": [
        {
          "name": "_account",
          "type": "address"
        },
        {
          "name": "_whitelist",
          "type": "bool"
        }
      ],
      "name": "setWhitelist",
      "outputs": [],
      "payable": false,
      "stateMutability": "nonpayable",
      "type": "function"
    },
    {
      "constant": false,
      "inputs": [
        {
          "name": "_nameTAOPositionAddress",
          "type": "address"
        }
      ],
      "name": "setNameTAOPositionAddress",
      "outputs": [],
      "payable": false,
      "stateMutability": "nonpayable",
      "type": "function"
    },
    {
      "constant": false,
      "inputs": [
        {
          "name": "denominationName",
          "type": "bytes8"
        },
        {
          "name": "denominationAddress",
          "type": "address"
        }
      ],
      "name": "addDenomination",
      "outputs": [
        {
          "name": "",
          "type": "bool"
        }
      ],
      "payable": false,
      "stateMutability": "nonpayable",
      "type": "function"
    },
    {
      "constant": false,
      "inputs": [
        {
          "name": "denominationName",
          "type": "bytes8"
        },
        {
          "name": "denominationAddress",
          "type": "address"
        }
      ],
      "name": "updateDenomination",
      "outputs": [
        {
          "name": "",
          "type": "bool"
        }
      ],
      "payable": false,
      "stateMutability": "nonpayable",
      "type": "function"
    },
    {
      "constant": true,
      "inputs": [
        {
          "name": "denominationName",
          "type": "bytes8"
        }
      ],
      "name": "isDenominationExist",
      "outputs": [
        {
          "name": "",
          "type": "bool"
        }
      ],
      "payable": false,
      "stateMutability": "view",
      "type": "function"
    },
    {
      "constant": true,
      "inputs": [
        {
          "name": "denominationName",
          "type": "bytes8"
        }
      ],
      "name": "getDenominationByName",
      "outputs": [
        {
          "name": "",
          "type": "bytes8"
        },
        {
          "name": "",
          "type": "address"
        },
        {
          "name": "",
          "type": "string"
        },
        {
          "name": "",
          "type": "string"
        },
        {
          "name": "",
          "type": "uint8"
        },
        {
          "name": "",
          "type": "uint256"
        }
      ],
      "payable": false,
      "stateMutability": "view",
      "type": "function"
    },
    {
      "constant": true,
      "inputs": [
        {
          "name": "index",
          "type": "uint256"
        }
      ],
      "name": "getDenominationByIndex",
      "outputs": [
        {
          "name": "",
          "type": "bytes8"
        },
        {
          "name": "",
          "type": "address"
        },
        {
          "name": "",
          "type": "string"
        },
        {
          "name": "",
          "type": "string"
        },
        {
          "name": "",
          "type": "uint8"
        },
        {
          "name": "",
          "type": "uint256"
        }
      ],
      "payable": false,
      "stateMutability": "view",
      "type": "function"
    },
    {
      "constant": true,
      "inputs": [],
      "name": "getBaseDenomination",
      "outputs": [
        {
          "name": "",
          "type": "bytes8"
        },
        {
          "name": "",
          "type": "address"
        },
        {
          "name": "",
          "type": "string"
        },
        {
          "name": "",
          "type": "string"
        },
        {
          "name": "",
          "type": "uint8"
        },
        {
          "name": "",
          "type": "uint256"
        }
      ],
      "payable": false,
      "stateMutability": "view",
      "type": "function"
    },
    {
      "constant": true,
      "inputs": [
        {
          "name": "integerAmount",
          "type": "uint256"
        },
        {
          "name": "fractionAmount",
          "type": "uint256"
        },
        {
          "name": "denominationName",
          "type": "bytes8"
        }
      ],
      "name": "toBase",
      "outputs": [
        {
          "name": "",
          "type": "uint256"
        }
      ],
      "payable": false,
      "stateMutability": "view",
      "type": "function"
    },
    {
      "constant": true,
      "inputs": [
        {
          "name": "integerAmount",
          "type": "uint256"
        },
        {
          "name": "denominationName",
          "type": "bytes8"
        }
      ],
      "name": "fromBase",
      "outputs": [
        {
          "name": "",
          "type": "uint256"
        },
        {
          "name": "",
          "type": "uint256"
        }
      ],
      "payable": false,
      "stateMutability": "view",
      "type": "function"
    },
    {
      "constant": false,
      "inputs": [
        {
          "name": "amount",
          "type": "uint256"
        },
        {
          "name": "fromDenominationName",
          "type": "bytes8"
        },
        {
          "name": "toDenominationName",
          "type": "bytes8"
        }
      ],
      "name": "exchangeDenomination",
      "outputs": [],
      "payable": false,
      "stateMutability": "nonpayable",
      "type": "function"
    },
    {
      "constant": true,
      "inputs": [
        {
          "name": "_exchangeId",
          "type": "bytes32"
        }
      ],
      "name": "getDenominationExchangeById",
      "outputs": [
        {
          "name": "",
          "type": "address"
        },
        {
          "name": "",
          "type": "address"
        },
        {
          "name": "",
          "type": "address"
        },
        {
          "name": "",
          "type": "string"
        },
        {
          "name": "",
          "type": "string"
        },
        {
          "name": "",
          "type": "uint256"
        }
      ],
      "payable": false,
      "stateMutability": "view",
      "type": "function"
    },
    {
      "constant": true,
      "inputs": [
        {
          "name": "amount",
          "type": "uint256"
        }
      ],
      "name": "toHighestDenomination",
      "outputs": [
        {
          "name": "",
          "type": "bytes8"
        },
        {
          "name": "",
          "type": "address"
        },
        {
          "name": "",
          "type": "uint256"
        },
        {
          "name": "",
          "type": "uint256"
        },
        {
          "name": "",
          "type": "string"
        },
        {
          "name": "",
          "type": "string"
        },
        {
          "name": "",
          "type": "uint8"
        },
        {
          "name": "",
          "type": "uint256"
        }
      ],
      "payable": false,
      "stateMutability": "view",
      "type": "function"
    }
  ],
  "bytecode": "0x60806040523480156200001157600080fd5b5060405160208062002b42833981018060405260208110156200003357600080fd5b5051600080546001600160a01b03191633179055620000598162000060602090811b901c565b5062000157565b600054600154604080517ff66afcac0000000000000000000000000000000000000000000000000000000081523360048201526001600160a01b0393841660248201529290911660448301525173__AOLibrary_____________________________9163f66afcac916064808301926020929190829003018186803b158015620000e957600080fd5b505af4158015620000fe573d6000803e3d6000fd5b505050506040513d60208110156200011557600080fd5b50516200012157600080fd5b6001600160a01b0381166200013557600080fd5b600180546001600160a01b0319166001600160a01b0392909216919091179055565b6129db80620001676000396000f3fe608060405234801561001057600080fd5b50600436106101215760003560e01c806390358f5d116100ad578063a9b6b38e11610071578063a9b6b38e146106a4578063aa25c744146106ac578063c1e52775146106d3578063dc689d3c14610709578063f2fde38b1461071157610121565b806390358f5d146104b8578063932fd99f146104df5780639b19251a146106305780639d28d1d014610656578063a46a891e1461065e57610121565b806353d6fd59116100f457806353d6fd59146103265780635768f84d146103565780635cfaf2ef1461035e5780635d990791146103845780636e0069241461048357610121565b8063217db8e8146101265780633d9f923b1461016b578063446ea599146101b55780634ef033f014610302575b600080fd5b6101596004803603606081101561013c57600080fd5b50803590602081013590604001356001600160c01b031916610737565b60408051918252519081900360200190f35b6101a16004803603604081101561018157600080fd5b5080356001600160c01b03191690602001356001600160a01b0316610a41565b604080519115158252519081900360200190f35b6101d2600480360360208110156101cb57600080fd5b5035610e09565b60405180876001600160a01b03166001600160a01b03168152602001866001600160a01b03166001600160a01b03168152602001856001600160a01b03166001600160a01b031681526020018060200180602001848152602001838103835286818151815260200191508051906020019080838360005b83811015610261578181015183820152602001610249565b50505050905090810190601f16801561028e5780820380516001836020036101000a031916815260200191505b50838103825285518152855160209182019187019080838360005b838110156102c15781810151838201526020016102a9565b50505050905090810190601f1680156102ee5780820380516001836020036101000a031916815260200191505b509850505050505050505060405180910390f35b61030a611041565b604080516001600160a01b039092168252519081900360200190f35b6103546004803603604081101561033c57600080fd5b506001600160a01b0381351690602001351515611050565b005b610159611135565b6103546004803603602081101561037457600080fd5b50356001600160a01b031661113b565b6103a16004803603602081101561039a57600080fd5b5035611217565b60405180876001600160c01b0319166001600160c01b0319168152602001866001600160a01b03166001600160a01b0316815260200180602001806020018560ff1660ff168152602001848152602001838103835287818151815260200191508051906020019080838360005b8381101561042657818101518382015260200161040e565b50505050905090810190601f1680156104535780820380516001836020036101000a031916815260200191505b508381038252865181528651602091820191880190808383600083156102c15781810151838201526020016102a9565b6103546004803603606081101561049957600080fd5b508035906001600160c01b0319602082013581169160400135166114f4565b6101a1600480360360208110156104ce57600080fd5b50356001600160c01b031916611bed565b6104fc600480360360208110156104f557600080fd5b5035611c6d565b60405180896001600160c01b0319166001600160c01b0319168152602001886001600160a01b03166001600160a01b0316815260200187815260200186815260200180602001806020018560ff1660ff168152602001848152602001838103835287818151815260200191508051906020019080838360005b8381101561058d578181015183820152602001610575565b50505050905090810190601f1680156105ba5780820380516001836020036101000a031916815260200191505b50838103825286518152865160209182019188019080838360005b838110156105ed5781810151838201526020016105d5565b50505050905090810190601f16801561061a5780820380516001836020036101000a031916815260200191505b509a505050505050505050505060405180910390f35b6101a16004803603602081101561064657600080fd5b50356001600160a01b0316612010565b610159612025565b61068b6004803603604081101561067457600080fd5b50803590602001356001600160c01b03191661202b565b6040805192835260208301919091528051918290030190f35b61030a612227565b6103a1600480360360208110156106c257600080fd5b50356001600160c01b031916612236565b6101a1600480360360408110156106e957600080fd5b5080356001600160c01b03191690602001356001600160a01b0316612577565b6103a1612802565b6103546004803603602081101561072757600080fd5b50356001600160a01b0316612837565b60408051600160e01b6390358f5d0281526001600160c01b0319831660048201529051600091849130916390358f5d916024808301926020929190829003018186803b15801561078657600080fd5b505afa15801561079a573d6000803e3d6000fd5b505050506040513d60208110156107b057600080fd5b505180156107c8575060008511806107c85750600081115b15610a34576107d561296a565b506001600160c01b031983811660009081526006602090815260408083205483526005825280832081518083018352905460c081901b9095168152600160401b9094046001600160a01b03168483018190528151600160e01b63db9d28d502815260048101879052915190939273__AOLibrary_____________________________9263db9d28d59260248083019392829003018186803b15801561087957600080fd5b505af415801561088d573d6000803e3d6000fd5b505050506040513d60208110156108a357600080fd5b505160408051600160e01b63313ce56702815290519192506001600160a01b0384169163313ce56791600480820192602092909190829003018186803b1580156108ec57600080fd5b505afa158015610900573d6000803e3d6000fd5b505050506040513d602081101561091657600080fd5b505160ff908116908216111561092b57600080fd5b60006109a5836001600160a01b0316630aa245466040518163ffffffff1660e01b815260040160206040518083038186803b15801561096957600080fd5b505afa15801561097d573d6000803e3d6000fd5b505050506040513d602081101561099357600080fd5b50518a90600a0a63ffffffff61291316565b9050826001600160a01b031663313ce5676040518163ffffffff1660e01b815260040160206040518083038186803b1580156109e057600080fd5b505afa1580156109f4573d6000803e3d6000fd5b505050506040513d6020811015610a0a57600080fd5b505160ff16610a1857600094505b610a28818663ffffffff61293816565b95505050505050610a3a565b60009150505b9392505050565b6000805460015460408051600160e21b633d9abf2b0281523360048201526001600160a01b0393841660248201529290911660448301525173__AOLibrary_____________________________9163f66afcac916064808301926020929190829003018186803b158015610ab457600080fd5b505af4158015610ac8573d6000803e3d6000fd5b505050506040513d6020811015610ade57600080fd5b5051610ae957600080fd5b60408051600160e01b6390358f5d0281526001600160c01b0319851660048201529051849130916390358f5d91602480820192602092909190829003018186803b158015610b3657600080fd5b505afa158015610b4a573d6000803e3d6000fd5b505050506040513d6020811015610b6057600080fd5b5051610b6b57600080fd5b6001600160a01b038316610b7e57600080fd5b6001600160c01b03198416600090815260066020526040902054836001821115610ca6576000198201600090815260056020908152604091829020548251600160e11b63055122a30281529251600160401b9091046001600160a01b0316928392630aa2454692600480840193829003018186803b158015610bff57600080fd5b505afa158015610c13573d6000803e3d6000fd5b505050506040513d6020811015610c2957600080fd5b505160408051600160e11b63055122a302815290516001600160a01b03851691630aa24546916004808301926020929190829003018186803b158015610c6e57600080fd5b505afa158015610c82573d6000803e3d6000fd5b505050506040513d6020811015610c9857600080fd5b505111610ca457600080fd5b505b600354821015610db257600354600090815260056020908152604091829020548251600160e11b63055122a30281529251600160401b9091046001600160a01b0316928392630aa2454692600480840193829003018186803b158015610d0b57600080fd5b505afa158015610d1f573d6000803e3d6000fd5b505050506040513d6020811015610d3557600080fd5b505160408051600160e11b63055122a302815290516001600160a01b03851691630aa24546916004808301926020929190829003018186803b158015610d7a57600080fd5b505afa158015610d8e573d6000803e3d6000fd5b505050506040513d6020811015610da457600080fd5b505110610db057600080fd5b505b50506001600160c01b0319841660009081526006602090815260408083205483526005909152902080546001600160a01b038516600160401b02600160401b600160e01b0319909116179055600191505092915050565b6000806000606080600080600860008981526020019081526020016000205411610e3257600080fd5b610e3a612981565b50600087815260086020908152604080832054835260078252808320815160a0810183528154815260018201546001600160a01b039081169482018590526002830154811682850181905260038401549091166060830181905260049384015460808401528451600160e01b6395d89b41028152945192969194909385936395d89b419383830193909290829003018186803b158015610ed957600080fd5b505afa158015610eed573d6000803e3d6000fd5b505050506040513d6000823e601f3d908101601f191682016040526020811015610f1657600080fd5b810190808051600160201b811115610f2d57600080fd5b82016020810184811115610f4057600080fd5b8151600160201b811182820187101715610f5957600080fd5b505092919050505084606001516001600160a01b03166395d89b416040518163ffffffff1660e01b815260040160006040518083038186803b158015610f9e57600080fd5b505afa158015610fb2573d6000803e3d6000fd5b505050506040513d6000823e601f3d908101601f191682016040526020811015610fdb57600080fd5b810190808051600160201b811115610ff257600080fd5b8201602081018481111561100557600080fd5b8151600160201b81118282018710171561101e57600080fd5b505060809890980151969f959e50939c50919a5094985092965090945050505050565b6001546001600160a01b031681565b60005460015460408051600160e21b633d9abf2b0281523360048201526001600160a01b0393841660248201529290911660448301525173__AOLibrary_____________________________9163f66afcac916064808301926020929190829003018186803b1580156110c257600080fd5b505af41580156110d6573d6000803e3d6000fd5b505050506040513d60208110156110ec57600080fd5b50516110f757600080fd5b6001600160a01b03821661110a57600080fd5b6001600160a01b03919091166000908152600260205260409020805460ff1916911515919091179055565b60035481565b60005460015460408051600160e21b633d9abf2b0281523360048201526001600160a01b0393841660248201529290911660448301525173__AOLibrary_____________________________9163f66afcac916064808301926020929190829003018186803b1580156111ad57600080fd5b505af41580156111c1573d6000803e3d6000fd5b505050506040513d60208110156111d757600080fd5b50516111e257600080fd5b6001600160a01b0381166111f557600080fd5b600180546001600160a01b0319166001600160a01b0392909216919091179055565b60008060608060008060008711801561123257506003548711155b61123b57600080fd5b600087815260056020526040902054600160401b90046001600160a01b031661126357600080fd5b600087815260056020526040808220548151600160e01b6306fdde0302815291516001600160a01b03600160401b8304169360c09290921b92849283926306fdde03926004808201939291829003018186803b1580156112c257600080fd5b505afa1580156112d6573d6000803e3d6000fd5b505050506040513d6000823e601f3d908101601f1916820160405260208110156112ff57600080fd5b810190808051600160201b81111561131657600080fd5b8201602081018481111561132957600080fd5b8151600160201b81118282018710171561134257600080fd5b5050929190505050836001600160a01b03166395d89b416040518163ffffffff1660e01b815260040160006040518083038186803b15801561138357600080fd5b505afa158015611397573d6000803e3d6000fd5b505050506040513d6000823e601f3d908101601f1916820160405260208110156113c057600080fd5b810190808051600160201b8111156113d757600080fd5b820160208101848111156113ea57600080fd5b8151600160201b81118282018710171561140357600080fd5b5050929190505050846001600160a01b031663313ce5676040518163ffffffff1660e01b815260040160206040518083038186803b15801561144457600080fd5b505afa158015611458573d6000803e3d6000fd5b505050506040513d602081101561146e57600080fd5b505160408051600160e11b63055122a302815290516001600160a01b03881691630aa24546916004808301926020929190829003018186803b1580156114b357600080fd5b505afa1580156114c7573d6000803e3d6000fd5b505050506040513d60208110156114dd57600080fd5b5051949d939c50919a509850965090945092505050565b60408051600160e01b6390358f5d0281526001600160c01b0319841660048201529051839130916390358f5d91602480820192602092909190829003018186803b15801561154157600080fd5b505afa158015611555573d6000803e3d6000fd5b505050506040513d602081101561156b57600080fd5b505161157657600080fd5b60408051600160e01b6390358f5d0281526001600160c01b0319841660048201529051839130916390358f5d91602480820192602092909190829003018186803b1580156115c357600080fd5b505afa1580156115d7573d6000803e3d6000fd5b505050506040513d60208110156115ed57600080fd5b50516115f857600080fd5b6000851161160557600080fd5b61160d61296a565b506001600160c01b03198481166000908152600660209081526040808320548352600582529182902082518084019093525460c081901b9093168252600160401b9092046001600160a01b03169181019190915261166961296a565b506001600160c01b031980851660009081526006602090815260408083205483526005825280832081518083018352905460c081901b90951681526001600160a01b03600160401b9095048516818401819052868401518351600160e01b63b1e19d45028152336004820152602481018e905293519296909591949086169363b1e19d459360448083019491928390030190829087803b15801561170c57600080fd5b505af1158015611720573d6000803e3d6000fd5b505050506040513d602081101561173657600080fd5b505161174157600080fd5b60408051600160e01b6340c10f19028152336004820152602481018b905290516001600160a01b038316916340c10f199160448083019260209291908290030181600087803b15801561179357600080fd5b505af11580156117a7573d6000803e3d6000fd5b505050506040513d60208110156117bd57600080fd5b50516117c857600080fd5b6004600081548092919060010191905055506000303360045460405160200180846001600160a01b03166001600160a01b031660601b8152601401836001600160a01b03166001600160a01b031660601b81526014018281526020019350505050604051602081830303815290604052805190602001209050600454600860008381526020019081526020016000208190555060006007600060045481526020019081526020016000209050818160000181905550338160010160006101000a8154816001600160a01b0302191690836001600160a01b0316021790555085602001518160020160006101000a8154816001600160a01b0302191690836001600160a01b0316021790555084602001518160030160006101000a8154816001600160a01b0302191690836001600160a01b031602179055508a816004018190555081336001600160a01b03167f82cf2552454b8d1e8c4cdb9c621ef4e6cb79e8614fa8044ce1903ae97eb46ff38d89602001518a602001516001600160a01b03166395d89b416040518163ffffffff1660e01b815260040160006040518083038186803b15801561197857600080fd5b505afa15801561198c573d6000803e3d6000fd5b505050506040513d6000823e601f3d908101601f1916820160405260208110156119b557600080fd5b810190808051600160201b8111156119cc57600080fd5b820160208101848111156119df57600080fd5b8151600160201b8111828201871017156119f857600080fd5b50509291905050508a602001518b602001516001600160a01b03166395d89b416040518163ffffffff1660e01b815260040160006040518083038186803b158015611a4257600080fd5b505afa158015611a56573d6000803e3d6000fd5b505050506040513d6000823e601f3d908101601f191682016040526020811015611a7f57600080fd5b810190808051600160201b811115611a9657600080fd5b82016020810184811115611aa957600080fd5b8151600160201b811182820187101715611ac257600080fd5b505092919050505060405180868152602001856001600160a01b03166001600160a01b0316815260200180602001846001600160a01b03166001600160a01b0316815260200180602001838103835286818151815260200191508051906020019080838360005b83811015611b41578181015183820152602001611b29565b50505050905090810190601f168015611b6e5780820380516001836020036101000a031916815260200191505b50838103825284518152845160209182019186019080838360005b83811015611ba1578181015183820152602001611b89565b50505050905090810190601f168015611bce5780820380516001836020036101000a031916815260200191505b5097505050505050505060405180910390a35050505050505050505050565b60008160001a60f81b6001600160f81b03191615801590611c2657506001600160c01b0319821660009081526006602052604090205415155b8015611c6757506001600160c01b0319821660009081526006602090815260408083205483526005909152902054600160401b90046001600160a01b031615155b92915050565b60008060008060608060008060008060008060035490505b8015611d0257611c9361296a565b5060008181526005602090815260409182902082518084019093525460c081901b6001600160c01b031916808452600160401b9091046001600160a01b031691830191909152611ce4908f9061202b565b90955093508415611cf85781925050611d02565b5060001901611c85565b50600081118015611d1557506003548111155b611d1e57600080fd5b6000831180611d2d5750600082115b611d3657600080fd5b600081815260056020526040902054600160401b90046001600160a01b0316611d5e57600080fd5b600081815260056020526040808220548151600160e01b6306fdde0302815291516001600160a01b03600160401b8304169360c09290921b9284928892889285926306fdde0392600480840193829003018186803b158015611dbf57600080fd5b505afa158015611dd3573d6000803e3d6000fd5b505050506040513d6000823e601f3d908101601f191682016040526020811015611dfc57600080fd5b810190808051600160201b811115611e1357600080fd5b82016020810184811115611e2657600080fd5b8151600160201b811182820187101715611e3f57600080fd5b5050929190505050856001600160a01b03166395d89b416040518163ffffffff1660e01b815260040160006040518083038186803b158015611e8057600080fd5b505afa158015611e94573d6000803e3d6000fd5b505050506040513d6000823e601f3d908101601f191682016040526020811015611ebd57600080fd5b810190808051600160201b811115611ed457600080fd5b82016020810184811115611ee757600080fd5b8151600160201b811182820187101715611f0057600080fd5b5050929190505050866001600160a01b031663313ce5676040518163ffffffff1660e01b815260040160206040518083038186803b158015611f4157600080fd5b505afa158015611f55573d6000803e3d6000fd5b505050506040513d6020811015611f6b57600080fd5b505160408051600160e11b63055122a302815290516001600160a01b038a1691630aa24546916004808301926020929190829003018186803b158015611fb057600080fd5b505afa158015611fc4573d6000803e3d6000fd5b505050506040513d6020811015611fda57600080fd5b81019080805190602001909291905050508393508292509b509b509b509b509b509b509b509b5050505050919395975091939597565b60026020526000908152604090205460ff1681565b60045481565b60408051600160e01b6390358f5d0281526001600160c01b0319831660048201529051600091829130916390358f5d916024808301926020929190829003018186803b15801561207a57600080fd5b505afa15801561208e573d6000803e3d6000fd5b505050506040513d60208110156120a457600080fd5b505115612219576120b361296a565b506001600160c01b031983811660009081526006602090815260408083205483526005825280832081518083018352905460c081901b9095168152600160401b9094046001600160a01b03168483018190528151600160e11b63055122a3028152915190939261217e928592630aa2454692600480840193919291829003018186803b15801561214257600080fd5b505afa158015612156573d6000803e3d6000fd5b505050506040513d602081101561216c57600080fd5b50518890600a0a63ffffffff61294516565b9050600061220a6121fd846001600160a01b0316630aa245466040518163ffffffff1660e01b815260040160206040518083038186803b1580156121c157600080fd5b505afa1580156121d5573d6000803e3d6000fd5b505050506040513d60208110156121eb57600080fd5b50518490600a0a63ffffffff61291316565b899063ffffffff61295816565b91955090935061222092505050565b5060009050805b9250929050565b6000546001600160a01b031681565b60008060608060008086306001600160a01b03166390358f5d826040518263ffffffff1660e01b815260040180826001600160c01b0319166001600160c01b031916815260200191505060206040518083038186803b15801561229857600080fd5b505afa1580156122ac573d6000803e3d6000fd5b505050506040513d60208110156122c257600080fd5b50516122cd57600080fd5b6001600160c01b0319881660009081526006602090815260408083205483526005909152808220548151600160e01b6306fdde030281529151600160401b82046001600160a01b03169360c09290921b92849283926306fdde03926004808201939291829003018186803b15801561234457600080fd5b505afa158015612358573d6000803e3d6000fd5b505050506040513d6000823e601f3d908101601f19168201604052602081101561238157600080fd5b810190808051600160201b81111561239857600080fd5b820160208101848111156123ab57600080fd5b8151600160201b8111828201871017156123c457600080fd5b5050929190505050836001600160a01b03166395d89b416040518163ffffffff1660e01b815260040160006040518083038186803b15801561240557600080fd5b505afa158015612419573d6000803e3d6000fd5b505050506040513d6000823e601f3d908101601f19168201604052602081101561244257600080fd5b810190808051600160201b81111561245957600080fd5b8201602081018481111561246c57600080fd5b8151600160201b81118282018710171561248557600080fd5b5050929190505050846001600160a01b031663313ce5676040518163ffffffff1660e01b815260040160206040518083038186803b1580156124c657600080fd5b505afa1580156124da573d6000803e3d6000fd5b505050506040513d60208110156124f057600080fd5b505160408051600160e11b63055122a302815290516001600160a01b03881691630aa24546916004808301926020929190829003018186803b15801561253557600080fd5b505afa158015612549573d6000803e3d6000fd5b505050506040513d602081101561255f57600080fd5b5051949e939d50919b50995097509095509350505050565b6000805460015460408051600160e21b633d9abf2b0281523360048201526001600160a01b0393841660248201529290911660448301525173__AOLibrary_____________________________9163f66afcac916064808301926020929190829003018186803b1580156125ea57600080fd5b505af41580156125fe573d6000803e3d6000fd5b505050506040513d602081101561261457600080fd5b505161261f57600080fd5b8260001a60f81b6001600160f81b03191661263957600080fd5b6001600160a01b03821661264c57600080fd5b6001600160c01b031983166000908152600660205260409020541561267057600080fd5b60038054600190810191829055101561278e5760035460001901600090815260056020908152604091829020548251600160e11b63055122a30281529251600160401b9091046001600160a01b03169285928492630aa24546926004808201939291829003018186803b1580156126e657600080fd5b505afa1580156126fa573d6000803e3d6000fd5b505050506040513d602081101561271057600080fd5b505160408051600160e11b63055122a302815290516001600160a01b03841691630aa24546916004808301926020929190829003018186803b15801561275557600080fd5b505afa158015612769573d6000803e3d6000fd5b505050506040513d602081101561277f57600080fd5b50511161278b57600080fd5b50505b50600380546000908152600560209081526040808320805467ffffffffffffffff191660c088901c179055835483528083208054600160401b600160e01b031916600160401b6001600160a01b0388160217905592546001600160c01b031986168352600690915291902055600192915050565b60008060608060008060006003541161281a57600080fd5b6128246001611217565b949b939a50919850965094509092509050565b60005460015460408051600160e21b633d9abf2b0281523360048201526001600160a01b0393841660248201529290911660448301525173__AOLibrary_____________________________9163f66afcac916064808301926020929190829003018186803b1580156128a957600080fd5b505af41580156128bd573d6000803e3d6000fd5b505050506040513d60208110156128d357600080fd5b50516128de57600080fd5b6001600160a01b0381166128f157600080fd5b600080546001600160a01b0319166001600160a01b0392909216919091179055565b60008261292257506000611c67565b508181028183828161293057fe5b0414611c6757fe5b81810182811015611c6757fe5b600081838161295057fe5b049392505050565b60008282111561296457fe5b50900390565b604080518082019091526000808252602082015290565b6040805160a0810182526000808252602082018190529181018290526060810182905260808101919091529056fea165627a7a7230582064feb8a58381009a17e0a5d911c35a0d713743ceb59e31197beb27b303dbd81f0029",
  "source": "pragma solidity >=0.5.4 <0.6.0;\n\nimport './SafeMath.sol';\nimport './AOLibrary.sol';\nimport './TheAO.sol';\nimport './IAOTreasury.sol';\nimport './AOIonInterface.sol';\n\n/**\n * @title AOTreasury\n *\n * The purpose of this contract is to list all of the valid denominations of AOIon and do the conversion between denominations\n */\ncontract AOTreasury is TheAO, IAOTreasury {\n\tusing SafeMath for uint256;\n\n\tuint256 public totalDenominations;\n\tuint256 public totalDenominationExchanges;\n\n\tstruct Denomination {\n\t\tbytes8 name;\n\t\taddress denominationAddress;\n\t}\n\n\tstruct DenominationExchange {\n\t\tbytes32 exchangeId;\n\t\taddress sender;\t\t\t// The sender address\n\t\taddress fromDenominationAddress;\t// The address of the from denomination\n\t\taddress toDenominationAddress;\t\t// The address of the target denomination\n\t\tuint256 amount;\n\t}\n\n\t// Mapping from denomination index to Denomination object\n\t// The list is in order from lowest denomination to highest denomination\n\t// i.e, denominations[1] is the base denomination\n\tmapping (uint256 => Denomination) internal denominations;\n\n\t// Mapping from denomination ID to index of denominations\n\tmapping (bytes8 => uint256) internal denominationIndex;\n\n\t// Mapping from exchange id to DenominationExchange object\n\tmapping (uint256 => DenominationExchange) internal denominationExchanges;\n\tmapping (bytes32 => uint256) internal denominationExchangeIdLookup;\n\n\t// Event to be broadcasted to public when a exchange between denominations happens\n\tevent ExchangeDenomination(address indexed account, bytes32 indexed exchangeId, uint256 amount, address fromDenominationAddress, string fromDenominationSymbol, address toDenominationAddress, string toDenominationSymbol);\n\n\t/**\n\t * @dev Constructor function\n\t */\n\tconstructor(address _nameTAOPositionAddress) public {\n\t\tsetNameTAOPositionAddress(_nameTAOPositionAddress);\n\t}\n\n\t/**\n\t * @dev Checks if the calling contract address is The AO\n\t *\t\tOR\n\t *\t\tIf The AO is set to a Name/TAO, then check if calling address is the Advocate\n\t */\n\tmodifier onlyTheAO {\n\t\trequire (AOLibrary.isTheAO(msg.sender, theAO, nameTAOPositionAddress));\n\t\t_;\n\t}\n\n\t/**\n\t * @dev Checks if denomination is valid\n\t */\n\tmodifier isValidDenomination(bytes8 denominationName) {\n\t\trequire (this.isDenominationExist(denominationName));\n\t\t_;\n\t}\n\n\t/***** The AO ONLY METHODS *****/\n\t/**\n\t * @dev Transfer ownership of The AO to new address\n\t * @param _theAO The new address to be transferred\n\t */\n\tfunction transferOwnership(address _theAO) public onlyTheAO {\n\t\trequire (_theAO != address(0));\n\t\ttheAO = _theAO;\n\t}\n\n\t/**\n\t * @dev Whitelist `_account` address to transact on behalf of others\n\t * @param _account The address to whitelist\n\t * @param _whitelist Either to whitelist or not\n\t */\n\tfunction setWhitelist(address _account, bool _whitelist) public onlyTheAO {\n\t\trequire (_account != address(0));\n\t\twhitelist[_account] = _whitelist;\n\t}\n\n\t/**\n\t * @dev The AO set the NameTAOPosition Address\n\t * @param _nameTAOPositionAddress The address of NameTAOPosition\n\t */\n\tfunction setNameTAOPositionAddress(address _nameTAOPositionAddress) public onlyTheAO {\n\t\trequire (_nameTAOPositionAddress != address(0));\n\t\tnameTAOPositionAddress = _nameTAOPositionAddress;\n\t}\n\n\t/**\n\t * @dev The AO adds denomination and the contract address associated with it\n\t * @param denominationName The name of the denomination, i.e ao, kilo, mega, etc.\n\t * @param denominationAddress The address of the denomination ion\n\t * @return true on success\n\t */\n\tfunction addDenomination(bytes8 denominationName, address denominationAddress) public onlyTheAO returns (bool) {\n\t\trequire (denominationName.length > 0);\n\t\trequire (denominationName[0] != 0);\n\t\trequire (denominationAddress != address(0));\n\t\trequire (denominationIndex[denominationName] == 0);\n\t\ttotalDenominations++;\n\t\t// Make sure the new denomination is higher than the previous\n\t\tif (totalDenominations > 1) {\n\t\t\tAOIonInterface _lastDenominationIon = AOIonInterface(denominations[totalDenominations - 1].denominationAddress);\n\t\t\tAOIonInterface _newDenominationIon = AOIonInterface(denominationAddress);\n\t\t\trequire (_newDenominationIon.powerOfTen() > _lastDenominationIon.powerOfTen());\n\t\t}\n\t\tdenominations[totalDenominations].name = denominationName;\n\t\tdenominations[totalDenominations].denominationAddress = denominationAddress;\n\t\tdenominationIndex[denominationName] = totalDenominations;\n\t\treturn true;\n\t}\n\n\t/**\n\t * @dev The AO updates denomination address or activates/deactivates the denomination\n\t * @param denominationName The name of the denomination, i.e ao, kilo, mega, etc.\n\t * @param denominationAddress The address of the denomination ion\n\t * @return true on success\n\t */\n\tfunction updateDenomination(bytes8 denominationName, address denominationAddress) public onlyTheAO isValidDenomination(denominationName) returns (bool) {\n\t\trequire (denominationAddress != address(0));\n\t\tuint256 _denominationNameIndex = denominationIndex[denominationName];\n\t\tAOIonInterface _newDenominationIon = AOIonInterface(denominationAddress);\n\t\tif (_denominationNameIndex > 1) {\n\t\t\tAOIonInterface _prevDenominationIon = AOIonInterface(denominations[_denominationNameIndex - 1].denominationAddress);\n\t\t\trequire (_newDenominationIon.powerOfTen() > _prevDenominationIon.powerOfTen());\n\t\t}\n\t\tif (_denominationNameIndex < totalDenominations) {\n\t\t\tAOIonInterface _lastDenominationIon = AOIonInterface(denominations[totalDenominations].denominationAddress);\n\t\t\trequire (_newDenominationIon.powerOfTen() < _lastDenominationIon.powerOfTen());\n\t\t}\n\t\tdenominations[denominationIndex[denominationName]].denominationAddress = denominationAddress;\n\t\treturn true;\n\t}\n\n\t/***** PUBLIC METHODS *****/\n\t/**\n\t * @dev Check if denomination exist given a name\n\t * @param denominationName The denomination name to check\n\t * @return true if yes. false otherwise\n\t */\n\tfunction isDenominationExist(bytes8 denominationName) external view returns (bool) {\n\t\treturn (denominationName.length > 0 &&\n\t\t\tdenominationName[0] != 0 &&\n\t\t\tdenominationIndex[denominationName] > 0 &&\n\t\t\tdenominations[denominationIndex[denominationName]].denominationAddress != address(0)\n\t   );\n\t}\n\n\t/**\n\t * @dev Get denomination info based on name\n\t * @param denominationName The name to be queried\n\t * @return the denomination short name\n\t * @return the denomination address\n\t * @return the denomination public name\n\t * @return the denomination symbol\n\t * @return the denomination num of decimals\n\t * @return the denomination multiplier (power of ten)\n\t */\n\tfunction getDenominationByName(bytes8 denominationName) public isValidDenomination(denominationName) view returns (bytes8, address, string memory, string memory, uint8, uint256) {\n\t\tAOIonInterface _ao = AOIonInterface(denominations[denominationIndex[denominationName]].denominationAddress);\n\t\treturn (\n\t\t\tdenominations[denominationIndex[denominationName]].name,\n\t\t\tdenominations[denominationIndex[denominationName]].denominationAddress,\n\t\t\t_ao.name(),\n\t\t\t_ao.symbol(),\n\t\t\t_ao.decimals(),\n\t\t\t_ao.powerOfTen()\n\t\t);\n\t}\n\n\t/**\n\t * @dev Get denomination info by index\n\t * @param index The index to be queried\n\t * @return the denomination short name\n\t * @return the denomination address\n\t * @return the denomination public name\n\t * @return the denomination symbol\n\t * @return the denomination num of decimals\n\t * @return the denomination multiplier (power of ten)\n\t */\n\tfunction getDenominationByIndex(uint256 index) public view returns (bytes8, address, string memory, string memory, uint8, uint256) {\n\t\trequire (index > 0 && index <= totalDenominations);\n\t\trequire (denominations[index].denominationAddress != address(0));\n\t\tAOIonInterface _ao = AOIonInterface(denominations[index].denominationAddress);\n\t\treturn (\n\t\t\tdenominations[index].name,\n\t\t\tdenominations[index].denominationAddress,\n\t\t\t_ao.name(),\n\t\t\t_ao.symbol(),\n\t\t\t_ao.decimals(),\n\t\t\t_ao.powerOfTen()\n\t\t);\n\t}\n\n\t/**\n\t * @dev Get base denomination info\n\t * @return the denomination short name\n\t * @return the denomination address\n\t * @return the denomination public name\n\t * @return the denomination symbol\n\t * @return the denomination num of decimals\n\t * @return the denomination multiplier (power of ten)\n\t */\n\tfunction getBaseDenomination() public view returns (bytes8, address, string memory, string memory, uint8, uint256) {\n\t\trequire (totalDenominations > 0);\n\t\treturn getDenominationByIndex(1);\n\t}\n\n\t/**\n\t * @dev convert ion from `denominationName` denomination to base denomination,\n\t *\t\tin this case it's similar to web3.toWei() functionality\n\t *\n\t * Example:\n\t * 9.1 Kilo should be entered as 9 integerAmount and 100 fractionAmount\n\t * 9.02 Kilo should be entered as 9 integerAmount and 20 fractionAmount\n\t * 9.001 Kilo should be entered as 9 integerAmount and 1 fractionAmount\n\t *\n\t * @param integerAmount uint256 of the integer amount to be converted\n\t * @param fractionAmount uint256 of the frational amount to be converted\n\t * @param denominationName bytes8 name of the ion denomination\n\t * @return uint256 converted amount in base denomination from target denomination\n\t */\n\tfunction toBase(uint256 integerAmount, uint256 fractionAmount, bytes8 denominationName) external view returns (uint256) {\n\t\tuint256 _fractionAmount = fractionAmount;\n\t\tif (this.isDenominationExist(denominationName) && (integerAmount > 0 || _fractionAmount > 0)) {\n\t\t\tDenomination memory _denomination = denominations[denominationIndex[denominationName]];\n\t\t\tAOIonInterface _denominationIon = AOIonInterface(_denomination.denominationAddress);\n\t\t\tuint8 fractionNumDigits = AOLibrary.numDigits(_fractionAmount);\n\t\t\trequire (fractionNumDigits <= _denominationIon.decimals());\n\t\t\tuint256 baseInteger = integerAmount.mul(10 ** _denominationIon.powerOfTen());\n\t\t\tif (_denominationIon.decimals() == 0) {\n\t\t\t\t_fractionAmount = 0;\n\t\t\t}\n\t\t\treturn baseInteger.add(_fractionAmount);\n\t\t} else {\n\t\t\treturn 0;\n\t\t}\n\t}\n\n\t/**\n\t * @dev convert ion from base denomination to `denominationName` denomination,\n\t *\t\tin this case it's similar to web3.fromWei() functionality\n\t * @param integerAmount uint256 of the base amount to be converted\n\t * @param denominationName bytes8 name of the target ion denomination\n\t * @return uint256 of the converted integer amount in target denomination\n\t * @return uint256 of the converted fraction amount in target denomination\n\t */\n\tfunction fromBase(uint256 integerAmount, bytes8 denominationName) public view returns (uint256, uint256) {\n\t\tif (this.isDenominationExist(denominationName)) {\n\t\t\tDenomination memory _denomination = denominations[denominationIndex[denominationName]];\n\t\t\tAOIonInterface _denominationIon = AOIonInterface(_denomination.denominationAddress);\n\t\t\tuint256 denominationInteger = integerAmount.div(10 ** _denominationIon.powerOfTen());\n\t\t\tuint256 denominationFraction = integerAmount.sub(denominationInteger.mul(10 ** _denominationIon.powerOfTen()));\n\t\t\treturn (denominationInteger, denominationFraction);\n\t\t} else {\n\t\t\treturn (0, 0);\n\t\t}\n\t}\n\n\t/**\n\t * @dev exchange `amount` ion from `fromDenominationName` denomination to ion in `toDenominationName` denomination\n\t * @param amount The amount of ion to exchange\n\t * @param fromDenominationName The origin denomination\n\t * @param toDenominationName The target denomination\n\t */\n\tfunction exchangeDenomination(uint256 amount, bytes8 fromDenominationName, bytes8 toDenominationName) public isValidDenomination(fromDenominationName) isValidDenomination(toDenominationName) {\n\t\trequire (amount > 0);\n\t\tDenomination memory _fromDenomination = denominations[denominationIndex[fromDenominationName]];\n\t\tDenomination memory _toDenomination = denominations[denominationIndex[toDenominationName]];\n\t\tAOIonInterface _fromDenominationIon = AOIonInterface(_fromDenomination.denominationAddress);\n\t\tAOIonInterface _toDenominationIon = AOIonInterface(_toDenomination.denominationAddress);\n\t\trequire (_fromDenominationIon.whitelistBurnFrom(msg.sender, amount));\n\t\trequire (_toDenominationIon.mint(msg.sender, amount));\n\n\t\t// Store the DenominationExchange information\n\t\ttotalDenominationExchanges++;\n\t\tbytes32 _exchangeId = keccak256(abi.encodePacked(this, msg.sender, totalDenominationExchanges));\n\t\tdenominationExchangeIdLookup[_exchangeId] = totalDenominationExchanges;\n\n\t\tDenominationExchange storage _denominationExchange = denominationExchanges[totalDenominationExchanges];\n\t\t_denominationExchange.exchangeId = _exchangeId;\n\t\t_denominationExchange.sender = msg.sender;\n\t\t_denominationExchange.fromDenominationAddress = _fromDenomination.denominationAddress;\n\t\t_denominationExchange.toDenominationAddress = _toDenomination.denominationAddress;\n\t\t_denominationExchange.amount = amount;\n\n\t\temit ExchangeDenomination(msg.sender, _exchangeId, amount, _fromDenomination.denominationAddress, AOIonInterface(_fromDenomination.denominationAddress).symbol(), _toDenomination.denominationAddress, AOIonInterface(_toDenomination.denominationAddress).symbol());\n\t}\n\n\t/**\n\t * @dev Get DenominationExchange information given an exchange ID\n\t * @param _exchangeId The exchange ID to query\n\t * @return The sender address\n\t * @return The from denomination address\n\t * @return The to denomination address\n\t * @return The from denomination symbol\n\t * @return The to denomination symbol\n\t * @return The amount exchanged\n\t */\n\tfunction getDenominationExchangeById(bytes32 _exchangeId) public view returns (address, address, address, string memory, string memory, uint256) {\n\t\trequire (denominationExchangeIdLookup[_exchangeId] > 0);\n\t\tDenominationExchange memory _denominationExchange = denominationExchanges[denominationExchangeIdLookup[_exchangeId]];\n\t\treturn (\n\t\t\t_denominationExchange.sender,\n\t\t\t_denominationExchange.fromDenominationAddress,\n\t\t\t_denominationExchange.toDenominationAddress,\n\t\t\tAOIonInterface(_denominationExchange.fromDenominationAddress).symbol(),\n\t\t\tAOIonInterface(_denominationExchange.toDenominationAddress).symbol(),\n\t\t\t_denominationExchange.amount\n\t\t);\n\t}\n\n\t/**\n\t * @dev Return the highest possible denomination given a base amount\n\t * @param amount The amount to be converted\n\t * @return the denomination short name\n\t * @return the denomination address\n\t * @return the integer amount at the denomination level\n\t * @return the fraction amount at the denomination level\n\t * @return the denomination public name\n\t * @return the denomination symbol\n\t * @return the denomination num of decimals\n\t * @return the denomination multiplier (power of ten)\n\t */\n\tfunction toHighestDenomination(uint256 amount) public view returns (bytes8, address, uint256, uint256, string memory, string memory, uint8, uint256) {\n\t\tuint256 integerAmount;\n\t\tuint256 fractionAmount;\n\t\tuint256 index;\n\t\tfor (uint256 i=totalDenominations; i>0; i--) {\n\t\t\tDenomination memory _denomination = denominations[i];\n\t\t\t(integerAmount, fractionAmount) = fromBase(amount, _denomination.name);\n\t\t\tif (integerAmount > 0) {\n\t\t\t\tindex = i;\n\t\t\t\tbreak;\n\t\t\t}\n\t\t}\n\t\trequire (index > 0 && index <= totalDenominations);\n\t\trequire (integerAmount > 0 || fractionAmount > 0);\n\t\trequire (denominations[index].denominationAddress != address(0));\n\t\tAOIonInterface _ao = AOIonInterface(denominations[index].denominationAddress);\n\t\treturn (\n\t\t\tdenominations[index].name,\n\t\t\tdenominations[index].denominationAddress,\n\t\t\tintegerAmount,\n\t\t\tfractionAmount,\n\t\t\t_ao.name(),\n\t\t\t_ao.symbol(),\n\t\t\t_ao.decimals(),\n\t\t\t_ao.powerOfTen()\n\t\t);\n\t}\n}\n",
  "sourcePath": "/usr/local/ao-contracts/contracts/AOTreasury.sol",
  "compiler": {
    "name": "solc",
    "version": "0.5.6+commit.b259423e.Emscripten.clang"
  },
  "schemaVersion": "3.0.2",
  "updatedAt": "2019-03-28T22:28:47.279Z",
  "devdoc": {
    "methods": {
      "addDenomination(bytes8,address)": {
        "details": "The AO adds denomination and the contract address associated with it",
        "params": {
          "denominationAddress": "The address of the denomination ion",
          "denominationName": "The name of the denomination, i.e ao, kilo, mega, etc."
        },
        "return": "true on success"
      },
      "constructor": {
        "details": "Constructor function"
      },
      "exchangeDenomination(uint256,bytes8,bytes8)": {
        "details": "exchange `amount` ion from `fromDenominationName` denomination to ion in `toDenominationName` denomination",
        "params": {
          "amount": "The amount of ion to exchange",
          "fromDenominationName": "The origin denomination",
          "toDenominationName": "The target denomination"
        }
      },
      "fromBase(uint256,bytes8)": {
        "details": "convert ion from base denomination to `denominationName` denomination,\tin this case it's similar to web3.fromWei() functionality",
        "params": {
          "denominationName": "bytes8 name of the target ion denomination",
          "integerAmount": "uint256 of the base amount to be converted"
        },
        "return": "uint256 of the converted integer amount in target denominationuint256 of the converted fraction amount in target denomination"
      },
      "getBaseDenomination()": {
        "details": "Get base denomination info",
        "return": "the denomination short namethe denomination addressthe denomination public namethe denomination symbolthe denomination num of decimalsthe denomination multiplier (power of ten)"
      },
      "getDenominationByIndex(uint256)": {
        "details": "Get denomination info by index",
        "params": {
          "index": "The index to be queried"
        },
        "return": "the denomination short namethe denomination addressthe denomination public namethe denomination symbolthe denomination num of decimalsthe denomination multiplier (power of ten)"
      },
      "getDenominationByName(bytes8)": {
        "details": "Get denomination info based on name",
        "params": {
          "denominationName": "The name to be queried"
        },
        "return": "the denomination short namethe denomination addressthe denomination public namethe denomination symbolthe denomination num of decimalsthe denomination multiplier (power of ten)"
      },
      "getDenominationExchangeById(bytes32)": {
        "details": "Get DenominationExchange information given an exchange ID",
        "params": {
          "_exchangeId": "The exchange ID to query"
        },
        "return": "The sender addressThe from denomination addressThe to denomination addressThe from denomination symbolThe to denomination symbolThe amount exchanged"
      },
      "isDenominationExist(bytes8)": {
        "details": "Check if denomination exist given a name",
        "params": {
          "denominationName": "The denomination name to check"
        },
        "return": "true if yes. false otherwise"
      },
      "setNameTAOPositionAddress(address)": {
        "details": "The AO set the NameTAOPosition Address",
        "params": {
          "_nameTAOPositionAddress": "The address of NameTAOPosition"
        }
      },
      "setWhitelist(address,bool)": {
        "details": "Whitelist `_account` address to transact on behalf of others",
        "params": {
          "_account": "The address to whitelist",
          "_whitelist": "Either to whitelist or not"
        }
      },
      "toBase(uint256,uint256,bytes8)": {
        "details": "convert ion from `denominationName` denomination to base denomination,\tin this case it's similar to web3.toWei() functionality\t * Example: 9.1 Kilo should be entered as 9 integerAmount and 100 fractionAmount 9.02 Kilo should be entered as 9 integerAmount and 20 fractionAmount 9.001 Kilo should be entered as 9 integerAmount and 1 fractionAmount",
        "params": {
          "denominationName": "bytes8 name of the ion denomination",
          "fractionAmount": "uint256 of the frational amount to be converted",
          "integerAmount": "uint256 of the integer amount to be converted"
        },
        "return": "uint256 converted amount in base denomination from target denomination"
      },
      "toHighestDenomination(uint256)": {
        "details": "Return the highest possible denomination given a base amount",
        "params": {
          "amount": "The amount to be converted"
        },
        "return": "the denomination short namethe denomination addressthe integer amount at the denomination levelthe fraction amount at the denomination levelthe denomination public namethe denomination symbolthe denomination num of decimalsthe denomination multiplier (power of ten)"
      },
      "transferOwnership(address)": {
        "details": "Transfer ownership of The AO to new address",
        "params": {
          "_theAO": "The new address to be transferred"
        }
      },
      "updateDenomination(bytes8,address)": {
        "details": "The AO updates denomination address or activates/deactivates the denomination",
        "params": {
          "denominationAddress": "The address of the denomination ion",
          "denominationName": "The name of the denomination, i.e ao, kilo, mega, etc."
        },
        "return": "true on success"
      }
    },
    "title": "AOTreasury * The purpose of this contract is to list all of the valid denominations of AOIon and do the conversion between denominations"
  },
  "userdoc": {
    "methods": {}
  }
}