{
	"contractName": "AOTreasury",
	"abi": [
		{
			"constant": true,
			"inputs": [],
			"name": "killed",
			"outputs": [
				{
					"name": "",
					"type": "bool"
				}
			],
			"payable": false,
			"stateMutability": "view",
			"type": "function"
		},
		{
			"constant": false,
			"inputs": [
				{
					"name": "_account",
					"type": "address"
				},
				{
					"name": "_whitelist",
					"type": "bool"
				}
			],
			"name": "setWhitelist",
			"outputs": [],
			"payable": false,
			"stateMutability": "nonpayable",
			"type": "function"
		},
		{
			"constant": true,
			"inputs": [],
			"name": "totalDenominations",
			"outputs": [
				{
					"name": "",
					"type": "uint256"
				}
			],
			"payable": false,
			"stateMutability": "view",
			"type": "function"
		},
		{
			"constant": true,
			"inputs": [],
			"name": "paused",
			"outputs": [
				{
					"name": "",
					"type": "bool"
				}
			],
			"payable": false,
			"stateMutability": "view",
			"type": "function"
		},
		{
			"constant": true,
			"inputs": [
				{
					"name": "",
					"type": "address"
				}
			],
			"name": "whitelist",
			"outputs": [
				{
					"name": "",
					"type": "bool"
				}
			],
			"payable": false,
			"stateMutability": "view",
			"type": "function"
		},
		{
			"constant": true,
			"inputs": [],
			"name": "developer",
			"outputs": [
				{
					"name": "",
					"type": "address"
				}
			],
			"payable": false,
			"stateMutability": "view",
			"type": "function"
		},
		{
			"constant": false,
			"inputs": [
				{
					"name": "newDeveloper",
					"type": "address"
				}
			],
			"name": "transferOwnership",
			"outputs": [],
			"payable": false,
			"stateMutability": "nonpayable",
			"type": "function"
		},
		{
			"inputs": [],
			"payable": false,
			"stateMutability": "nonpayable",
			"type": "constructor"
		},
		{
			"anonymous": false,
			"inputs": [
				{
					"indexed": true,
					"name": "account",
					"type": "address"
				},
				{
					"indexed": false,
					"name": "amount",
					"type": "uint256"
				},
				{
					"indexed": false,
					"name": "fromDenominationName",
					"type": "bytes8"
				},
				{
					"indexed": false,
					"name": "toDenominationName",
					"type": "bytes8"
				}
			],
			"name": "Exchange",
			"type": "event"
		},
		{
			"anonymous": false,
			"inputs": [],
			"name": "EscapeHatch",
			"type": "event"
		},
		{
			"constant": false,
			"inputs": [
				{
					"name": "_paused",
					"type": "bool"
				}
			],
			"name": "setPaused",
			"outputs": [],
			"payable": false,
			"stateMutability": "nonpayable",
			"type": "function"
		},
		{
			"constant": false,
			"inputs": [],
			"name": "escapeHatch",
			"outputs": [],
			"payable": false,
			"stateMutability": "nonpayable",
			"type": "function"
		},
		{
			"constant": false,
			"inputs": [
				{
					"name": "denominationName",
					"type": "bytes8"
				},
				{
					"name": "denominationAddress",
					"type": "address"
				}
			],
			"name": "addDenomination",
			"outputs": [
				{
					"name": "",
					"type": "bool"
				}
			],
			"payable": false,
			"stateMutability": "nonpayable",
			"type": "function"
		},
		{
			"constant": false,
			"inputs": [
				{
					"name": "denominationName",
					"type": "bytes8"
				},
				{
					"name": "denominationAddress",
					"type": "address"
				}
			],
			"name": "updateDenomination",
			"outputs": [
				{
					"name": "",
					"type": "bool"
				}
			],
			"payable": false,
			"stateMutability": "nonpayable",
			"type": "function"
		},
		{
			"constant": true,
			"inputs": [
				{
					"name": "denominationName",
					"type": "bytes8"
				}
			],
			"name": "getDenominationByName",
			"outputs": [
				{
					"name": "",
					"type": "bytes8"
				},
				{
					"name": "",
					"type": "address"
				},
				{
					"name": "",
					"type": "string"
				},
				{
					"name": "",
					"type": "string"
				},
				{
					"name": "",
					"type": "uint8"
				},
				{
					"name": "",
					"type": "uint256"
				}
			],
			"payable": false,
			"stateMutability": "view",
			"type": "function"
		},
		{
			"constant": true,
			"inputs": [
				{
					"name": "index",
					"type": "uint256"
				}
			],
			"name": "getDenominationByIndex",
			"outputs": [
				{
					"name": "",
					"type": "bytes8"
				},
				{
					"name": "",
					"type": "address"
				},
				{
					"name": "",
					"type": "string"
				},
				{
					"name": "",
					"type": "string"
				},
				{
					"name": "",
					"type": "uint8"
				},
				{
					"name": "",
					"type": "uint256"
				}
			],
			"payable": false,
			"stateMutability": "view",
			"type": "function"
		},
		{
			"constant": true,
			"inputs": [],
			"name": "getBaseDenomination",
			"outputs": [
				{
					"name": "",
					"type": "bytes8"
				},
				{
					"name": "",
					"type": "address"
				},
				{
					"name": "",
					"type": "string"
				},
				{
					"name": "",
					"type": "string"
				},
				{
					"name": "",
					"type": "uint8"
				},
				{
					"name": "",
					"type": "uint256"
				}
			],
			"payable": false,
			"stateMutability": "view",
			"type": "function"
		},
		{
			"constant": true,
			"inputs": [
				{
					"name": "integerAmount",
					"type": "uint256"
				},
				{
					"name": "fractionAmount",
					"type": "uint256"
				},
				{
					"name": "denominationName",
					"type": "bytes8"
				}
			],
			"name": "toBase",
			"outputs": [
				{
					"name": "",
					"type": "uint256"
				}
			],
			"payable": false,
			"stateMutability": "view",
			"type": "function"
		},
		{
			"constant": true,
			"inputs": [
				{
					"name": "integerAmount",
					"type": "uint256"
				},
				{
					"name": "denominationName",
					"type": "bytes8"
				}
			],
			"name": "fromBase",
			"outputs": [
				{
					"name": "",
					"type": "uint256"
				},
				{
					"name": "",
					"type": "uint256"
				}
			],
			"payable": false,
			"stateMutability": "view",
			"type": "function"
		},
		{
			"constant": false,
			"inputs": [
				{
					"name": "amount",
					"type": "uint256"
				},
				{
					"name": "fromDenominationName",
					"type": "bytes8"
				},
				{
					"name": "toDenominationName",
					"type": "bytes8"
				}
			],
			"name": "exchange",
			"outputs": [],
			"payable": false,
			"stateMutability": "nonpayable",
			"type": "function"
		},
		{
			"constant": true,
			"inputs": [
				{
					"name": "amount",
					"type": "uint256"
				}
			],
			"name": "toHighestDenomination",
			"outputs": [
				{
					"name": "",
					"type": "bytes8"
				},
				{
					"name": "",
					"type": "address"
				},
				{
					"name": "",
					"type": "uint256"
				},
				{
					"name": "",
					"type": "uint256"
				},
				{
					"name": "",
					"type": "string"
				},
				{
					"name": "",
					"type": "string"
				},
				{
					"name": "",
					"type": "uint8"
				},
				{
					"name": "",
					"type": "uint256"
				}
			],
			"payable": false,
			"stateMutability": "view",
			"type": "function"
		}
	],
	"bytecode": "0x608060405234801561001057600080fd5b5060008054600160a060020a03191633179055611e06806100326000396000f3006080604052600436106100e25763ffffffff60e060020a6000350416631554611f81146100e757806316c38b3c146100fe5780631f3a0e4114610118578063217db8e8146101415780633d9f923b1461017b578063451659d9146101a957806353d6fd59146101d45780635768f84d146101fa5780635c975abb1461020f5780635d99079114610224578063932fd99f146103625780639b19251a146104ae578063a46a891e146104cf578063aa25c7441461050d578063c1e527751461052f578063ca4b208b1461055d578063dc689d3c1461058e578063f2fde38b146105a3575b600080fd5b3480156100f357600080fd5b506100fc6105c4565b005b34801561010a57600080fd5b506100fc600435151561062a565b34801561012457600080fd5b5061012d610654565b604080519115158252519081900360200190f35b34801561014d57600080fd5b50610169600435602435600160c060020a031960443516610662565b60408051918252519081900360200190f35b34801561018757600080fd5b5061012d600160c060020a031960043516600160a060020a03602435166108d8565b3480156101b557600080fd5b506100fc600435600160c060020a031960243581169060443516610bf9565b3480156101e057600080fd5b506100fc600160a060020a03600435166024351515611004565b34801561020657600080fd5b50610169611046565b34801561021b57600080fd5b5061012d61104c565b34801561023057600080fd5b5061023c600435611055565b6040518087600160c060020a031916600160c060020a031916815260200186600160a060020a0316600160a060020a0316815260200180602001806020018560ff1660ff168152602001848152602001838103835287818151815260200191508051906020019080838360005b838110156102c15781810151838201526020016102a9565b50505050905090810190601f1680156102ee5780820380516001836020036101000a031916815260200191505b50838103825286518152865160209182019188019080838360005b83811015610321578181015183820152602001610309565b50505050905090810190601f16801561034e5780820380516001836020036101000a031916815260200191505b509850505050505050505060405180910390f35b34801561036e57600080fd5b5061037a60043561136b565b6040518089600160c060020a031916600160c060020a031916815260200188600160a060020a0316600160a060020a0316815260200187815260200186815260200180602001806020018560ff1660ff168152602001848152602001838103835287818151815260200191508051906020019080838360005b8381101561040b5781810151838201526020016103f3565b50505050905090810190601f1680156104385780820380516001836020036101000a031916815260200191505b50838103825286518152865160209182019188019080838360005b8381101561046b578181015183820152602001610453565b50505050905090810190601f1680156104985780820380516001836020036101000a031916815260200191505b509a505050505050505050505060405180910390f35b3480156104ba57600080fd5b5061012d600160a060020a036004351661178c565b3480156104db57600080fd5b506104f4600435600160c060020a0319602435166117a1565b6040805192835260208301919091528051918290030190f35b34801561051957600080fd5b5061023c600160c060020a03196004351661198f565b34801561053b57600080fd5b5061012d600160c060020a031960043516600160a060020a0360243516611a9a565b34801561056957600080fd5b50610572611caf565b60408051600160a060020a039092168252519081900360200190f35b34801561059a57600080fd5b5061023c611cbe565b3480156105af57600080fd5b506100fc600160a060020a0360043516611cf5565b600054600160a060020a031633146105db57600080fd5b600254610100900460ff16156105f057600080fd5b6002805461ff0019166101001790556040517f16ed36fbe43aed6ba7426b24d35620696380d398f2f22f918dd74e4d3e0ceef990600090a1565b600054600160a060020a0316331461064157600080fd5b6002805460ff1916911515919091179055565b600254610100900460ff1681565b600061066c611dc3565b600160c060020a03198316600090815260046020526040812054819081908690821080156106d45750600160c060020a0319811660009081526004602090815260408083205483526003909152902054680100000000000000009004600160a060020a031615155b15156106df57600080fd5b600160c060020a03198781166000908152600460209081526040808320548352600382529182902082518084019093525460c060020a8102909316825268010000000000000000909204600160a060020a03169181018290529550935061074588611d3b565b925083600160a060020a031663313ce5676040518163ffffffff1660e060020a028152600401602060405180830381600087803b15801561078557600080fd5b505af1158015610799573d6000803e3d6000fd5b505050506040513d60208110156107af57600080fd5b505160ff90811690841611156107c457600080fd5b61084184600160a060020a0316630aa245466040518163ffffffff1660e060020a028152600401602060405180830381600087803b15801561080557600080fd5b505af1158015610819573d6000803e3d6000fd5b505050506040513d602081101561082f57600080fd5b50518a90600a0a63ffffffff611d6616565b915083600160a060020a031663313ce5676040518163ffffffff1660e060020a028152600401602060405180830381600087803b15801561088157600080fd5b505af1158015610895573d6000803e3d6000fd5b505050506040513d60208110156108ab57600080fd5b505160ff1615156108bb57600097505b6108cb828963ffffffff611d8f16565b9998505050505050505050565b600080548190819081908190600160a060020a031633146108f857600080fd5b600160c060020a031987166000908152600460205260408120541161091c57600080fd5b600160a060020a038616151561093157600080fd5b600160c060020a0319871660009081526004602052604090205493508592506001841115610a6d576003600060018603815260200190815260200160002060000160089054906101000a9004600160a060020a0316915081600160a060020a0316630aa245466040518163ffffffff1660e060020a028152600401602060405180830381600087803b1580156109c657600080fd5b505af11580156109da573d6000803e3d6000fd5b505050506040513d60208110156109f057600080fd5b50516040805160e160020a63055122a30281529051600160a060020a03861691630aa245469160048083019260209291908290030181600087803b158015610a3757600080fd5b505af1158015610a4b573d6000803e3d6000fd5b505050506040513d6020811015610a6157600080fd5b505111610a6d57600080fd5b600554841015610b8a5760036000600554815260200190815260200160002060000160089054906101000a9004600160a060020a0316905080600160a060020a0316630aa245466040518163ffffffff1660e060020a028152600401602060405180830381600087803b158015610ae357600080fd5b505af1158015610af7573d6000803e3d6000fd5b505050506040513d6020811015610b0d57600080fd5b50516040805160e160020a63055122a30281529051600160a060020a03861691630aa245469160048083019260209291908290030181600087803b158015610b5457600080fd5b505af1158015610b68573d6000803e3d6000fd5b505050506040513d6020811015610b7e57600080fd5b505110610b8a57600080fd5b600160c060020a031987166000908152600460209081526040808320548352600390915290208054600160a060020a03881668010000000000000000027bffffffffffffffffffffffffffffffffffffffff000000000000000019909116179055600194505050505092915050565b610c01611dc3565b610c09611dc3565b600254600090819060ff16158015610c295750600254610100900460ff16155b1515610c3457600080fd5b600160c060020a031986166000908152600460205260408120548791108015610c975750600160c060020a0319811660009081526004602090815260408083205483526003909152902054680100000000000000009004600160a060020a031615155b1515610ca257600080fd5b600160c060020a031986166000908152600460205260408120548791108015610d055750600160c060020a0319811660009081526004602090815260408083205483526003909152902054680100000000000000009004600160a060020a031615155b1515610d1057600080fd5b60008911610d1d57600080fd5b60036000600460008b600160c060020a031916600160c060020a03191681526020019081526020016000205481526020019081526020016000206040805190810160405290816000820160009054906101000a900460c060020a02600160c060020a031916600160c060020a03191681526020016000820160089054906101000a9004600160a060020a0316600160a060020a0316600160a060020a031681525050955060036000600460008a600160c060020a031916600160c060020a03191681526020019081526020016000205481526020019081526020016000206040805190810160405290816000820160009054906101000a900460c060020a02600160c060020a031916600160c060020a03191681526020016000820160089054906101000a9004600160a060020a0316600160a060020a0316600160a060020a0316815250509450856020015193508460200151925083600160a060020a031663b1e19d45338b6040518363ffffffff1660e060020a0281526004018083600160a060020a0316600160a060020a0316815260200182815260200192505050602060405180830381600087803b158015610ed657600080fd5b505af1158015610eea573d6000803e3d6000fd5b505050506040513d6020811015610f0057600080fd5b50511515610f0d57600080fd5b604080517f79c65068000000000000000000000000000000000000000000000000000000008152336004820152602481018b90529051600160a060020a038516916379c650689160448083019260209291908290030181600087803b158015610f7557600080fd5b505af1158015610f89573d6000803e3d6000fd5b505050506040513d6020811015610f9f57600080fd5b50511515610fac57600080fd5b604080518a8152600160c060020a0319808b166020830152891681830152905133917fa9cd29186ae896a4a77376f8eb52122c28b2ee10c2271abebe96135f33d0aee7919081900360600190a2505050505050505050565b600054600160a060020a0316331461101b57600080fd5b600160a060020a03919091166000908152600160205260409020805460ff1916911515919091179055565b60055481565b60025460ff1681565b6000806060806000806000808811801561107157506005548811155b151561107c57600080fd5b600088815260036020526040902054680100000000000000009004600160a060020a031615156110ab57600080fd5b506000878152600360205260408082205481517f06fdde030000000000000000000000000000000000000000000000000000000081529151600160a060020a03680100000000000000008304169360c060020a90920292849283926306fdde0392600480820193929182900301818387803b15801561112957600080fd5b505af115801561113d573d6000803e3d6000fd5b505050506040513d6000823e601f3d908101601f19168201604052602081101561116657600080fd5b81019080805164010000000081111561117e57600080fd5b8201602081018481111561119157600080fd5b81516401000000008111828201871017156111ab57600080fd5b505092919050505083600160a060020a03166395d89b416040518163ffffffff1660e060020a028152600401600060405180830381600087803b1580156111f157600080fd5b505af1158015611205573d6000803e3d6000fd5b505050506040513d6000823e601f3d908101601f19168201604052602081101561122e57600080fd5b81019080805164010000000081111561124657600080fd5b8201602081018481111561125957600080fd5b815164010000000081118282018710171561127357600080fd5b505092919050505084600160a060020a031663313ce5676040518163ffffffff1660e060020a028152600401602060405180830381600087803b1580156112b957600080fd5b505af11580156112cd573d6000803e3d6000fd5b505050506040513d60208110156112e357600080fd5b50516040805160e160020a63055122a30281529051600160a060020a03881691630aa245469160048083019260209291908290030181600087803b15801561132a57600080fd5b505af115801561133e573d6000803e3d6000fd5b505050506040513d602081101561135457600080fd5b5051949d939c50919a509850965090945092505050565b600080600080606080600080600080600080611385611dc3565b600060055492505b600083111561144357600360008481526020019081526020016000206040805190810160405290816000820160009054906101000a900460c060020a02600160c060020a031916600160c060020a03191681526020016000820160089054906101000a9004600160a060020a0316600160a060020a0316600160a060020a03168152505091506114218f83600001516117a1565b9096509450600086111561143757829350611443565b6000199092019161138d565b60008411801561145557506005548411155b151561146057600080fd5b600086118061146f5750600085115b151561147a57600080fd5b600084815260036020526040902054680100000000000000009004600160a060020a031615156114a957600080fd5b506000838152600360205260408082205481517f06fdde030000000000000000000000000000000000000000000000000000000081529151600160a060020a03680100000000000000008304169360c060020a9092029284928a928a9285926306fdde039260048084019382900301818387803b15801561152957600080fd5b505af115801561153d573d6000803e3d6000fd5b505050506040513d6000823e601f3d908101601f19168201604052602081101561156657600080fd5b81019080805164010000000081111561157e57600080fd5b8201602081018481111561159157600080fd5b81516401000000008111828201871017156115ab57600080fd5b505092919050505085600160a060020a03166395d89b416040518163ffffffff1660e060020a028152600401600060405180830381600087803b1580156115f157600080fd5b505af1158015611605573d6000803e3d6000fd5b505050506040513d6000823e601f3d908101601f19168201604052602081101561162e57600080fd5b81019080805164010000000081111561164657600080fd5b8201602081018481111561165957600080fd5b815164010000000081118282018710171561167357600080fd5b505092919050505086600160a060020a031663313ce5676040518163ffffffff1660e060020a028152600401602060405180830381600087803b1580156116b957600080fd5b505af11580156116cd573d6000803e3d6000fd5b505050506040513d60208110156116e357600080fd5b50516040805160e160020a63055122a30281529051600160a060020a038a1691630aa245469160048083019260209291908290030181600087803b15801561172a57600080fd5b505af115801561173e573d6000803e3d6000fd5b505050506040513d602081101561175457600080fd5b81019080805190602001909291905050508393508292509d509d509d509d509d509d509d509d50505050505050919395975091939597565b60016020526000908152604090205460ff1681565b6000806117ac611dc3565b600160c060020a03198416600090815260046020526040812054819081908790821080156118145750600160c060020a0319811660009081526004602090815260408083205483526003909152902054680100000000000000009004600160a060020a031615155b151561181f57600080fd5b600160c060020a031988811660009081526004602081815260408084205484526003825280842081518083018352905460c060020a8102909616815268010000000000000000909504600160a060020a0316858301819052815160e160020a63055122a30281529151959a5098506118f0948994630aa245469483810194938390030190829087803b1580156118b457600080fd5b505af11580156118c8573d6000803e3d6000fd5b505050506040513d60208110156118de57600080fd5b50518a90600a0a63ffffffff611d9c16565b925061197f61197285600160a060020a0316630aa245466040518163ffffffff1660e060020a028152600401602060405180830381600087803b15801561193657600080fd5b505af115801561194a573d6000803e3d6000fd5b505050506040513d602081101561196057600080fd5b50518590600a0a63ffffffff611d6616565b8a9063ffffffff611db116565b9299929850919650505050505050565b600080606080828080600160c060020a03198816600090815260046020526040812054116119bc57600080fd5b600160c060020a0319881660009081526004602090815260408083205483526003909152902054680100000000000000009004600160a060020a03161515611a0357600080fd5b50600160c060020a03198716600090815260046020818152604080842054845260039091528083205481517f06fdde030000000000000000000000000000000000000000000000000000000081529151680100000000000000008204600160a060020a03169460c060020a90920293859384936306fdde039382840193919290919082900301818387803b15801561112957600080fd5b6000805481908190600160a060020a03163314611ab657600080fd5b600160a060020a0384161515611acb57600080fd5b600160c060020a0319851660009081526004602052604090205415611aef57600080fd5b600580546001908101918290551015611c1b5760036000600160055403815260200190815260200160002060000160089054906101000a9004600160a060020a0316915083905081600160a060020a0316630aa245466040518163ffffffff1660e060020a028152600401602060405180830381600087803b158015611b7457600080fd5b505af1158015611b88573d6000803e3d6000fd5b505050506040513d6020811015611b9e57600080fd5b50516040805160e160020a63055122a30281529051600160a060020a03841691630aa245469160048083019260209291908290030181600087803b158015611be557600080fd5b505af1158015611bf9573d6000803e3d6000fd5b505050506040513d6020811015611c0f57600080fd5b505111611c1b57600080fd5b600580546000908152600360209081526040808320805460c060020a8b0467ffffffffffffffff19909116179055835483528083208054600160a060020a038a1668010000000000000000027bffffffffffffffffffffffffffffffffffffffff0000000000000000199091161790559254600160c060020a03198916835260049091529190205560019250505092915050565b600054600160a060020a031681565b6000806060806000806001600554111515611cd857600080fd5b611ce26001611055565b949b939a50919850965094509092509050565b600054600160a060020a03163314611d0c57600080fd5b6000805473ffffffffffffffffffffffffffffffffffffffff1916600160a060020a0392909216919091179055565b6000805b8215611d6057611d5683600a63ffffffff611d9c16565b9250600101611d3f565b92915050565b6000821515611d7757506000611d60565b50818102818382811515611d8757fe5b0414611d6057fe5b81810182811015611d6057fe5b60008183811515611da957fe5b049392505050565b600082821115611dbd57fe5b50900390565b6040805180820190915260008082526020820152905600a165627a7a72305820294a534c266431280f7004a4012525f62363a3555d707c8a1bbaf62ab9c9bcbd0029",
	"source": "pragma solidity ^0.4.24;\n\nimport './SafeMath.sol';\nimport './developed.sol';\nimport './AOToken.sol';\n\n/**\n * @title AOTreasury\n *\n * The purpose of this contract is to list all of the valid denominations of AO Token and do the conversion between denominations\n */\ncontract AOTreasury is developed {\n\tusing SafeMath for uint256;\n\n\tbool public paused;\n\tbool public killed;\n\n\tstruct Denomination {\n\t\tbytes8 name;\n\t\taddress denominationAddress;\n\t}\n\n\t// Mapping from denomination index to Denomination object\n\t// The list is in order from lowest denomination to highest denomination\n\t// i.e, denominations[1] is the base denomination\n\tmapping (uint256 => Denomination) private denominations;\n\n\t// Mapping from denomination ID to index of denominations\n\tmapping (bytes8 => uint256) private denominationIndex;\n\n\tuint256 public totalDenominations;\n\n\t// Event to be broadcasted to public when a token exchange happens\n\tevent Exchange(address indexed account, uint256 amount, bytes8 fromDenominationName, bytes8 toDenominationName);\n\n\t// Event to be broadcasted to public when emergency mode is triggered\n\tevent EscapeHatch();\n\n\t/**\n\t * @dev Constructor function\n\t */\n\tconstructor() public {}\n\n\t/**\n\t * @dev Checks if contract is currently active\n\t */\n\tmodifier isActive {\n\t\trequire (paused == false && killed == false);\n\t\t_;\n\t}\n\n\t/**\n\t * @dev Checks if denomination is valid\n\t */\n\tmodifier isValidDenomination(bytes8 denominationName) {\n\t\trequire (denominationIndex[denominationName] > 0 && denominations[denominationIndex[denominationName]].denominationAddress != address(0));\n\t\t_;\n\t}\n\n\t/***** DEVELOPER ONLY METHODS *****/\n\t/**\n\t * @dev Developer pauses/unpauses contract\n\t * @param _paused Either to pause contract or not\n\t */\n\tfunction setPaused(bool _paused) public onlyDeveloper {\n\t\tpaused = _paused;\n\t}\n\n\t/**\n\t * @dev Developer triggers emergency mode.\n\t *\n\t */\n\tfunction escapeHatch() public onlyDeveloper {\n\t\trequire (killed == false);\n\t\tkilled = true;\n\t\temit EscapeHatch();\n\t}\n\n\t/**\n\t * @dev Developer adds denomination and the contract address associated with it\n\t * @param denominationName The name of the denomination, i.e ao, kilo, mega, etc.\n\t * @param denominationAddress The address of the denomination token\n\t * @return true on success\n\t */\n\tfunction addDenomination(bytes8 denominationName, address denominationAddress) public onlyDeveloper returns (bool) {\n\t\trequire (denominationName.length != 0);\n\t\trequire (denominationAddress != address(0));\n\t\trequire (denominationIndex[denominationName] == 0);\n\t\ttotalDenominations++;\n\t\t// Make sure the new denomination is higher than the previous\n\t\tif (totalDenominations > 1) {\n\t\t\tAOToken _lastDenominationToken = AOToken(denominations[totalDenominations - 1].denominationAddress);\n\t\t\tAOToken _newDenominationToken = AOToken(denominationAddress);\n\t\t\trequire (_newDenominationToken.powerOfTen() > _lastDenominationToken.powerOfTen());\n\t\t}\n\t\tdenominations[totalDenominations].name = denominationName;\n\t\tdenominations[totalDenominations].denominationAddress = denominationAddress;\n\t\tdenominationIndex[denominationName] = totalDenominations;\n\t\treturn true;\n\t}\n\n\t/**\n\t * @dev Developer updates denomination address or activates/deactivates the denomination\n\t * @param denominationName The name of the denomination, i.e ao, kilo, mega, etc.\n\t * @param denominationAddress The address of the denomination token\n\t * @return true on success\n\t */\n\tfunction updateDenomination(bytes8 denominationName, address denominationAddress) public onlyDeveloper returns (bool) {\n\t\trequire (denominationName.length != 0);\n\t\trequire (denominationIndex[denominationName] > 0);\n\t\trequire (denominationAddress != address(0));\n\t\tuint256 _denominationNameIndex = denominationIndex[denominationName];\n\t\tAOToken _newDenominationToken = AOToken(denominationAddress);\n\t\tif (_denominationNameIndex > 1) {\n\t\t\tAOToken _prevDenominationToken = AOToken(denominations[_denominationNameIndex - 1].denominationAddress);\n\t\t\trequire (_newDenominationToken.powerOfTen() > _prevDenominationToken.powerOfTen());\n\t\t}\n\t\tif (_denominationNameIndex < totalDenominations) {\n\t\t\tAOToken _lastDenominationToken = AOToken(denominations[totalDenominations].denominationAddress);\n\t\t\trequire (_newDenominationToken.powerOfTen() < _lastDenominationToken.powerOfTen());\n\t\t}\n\t\tdenominations[denominationIndex[denominationName]].denominationAddress = denominationAddress;\n\t\treturn true;\n\t}\n\n\t/***** PUBLIC METHODS *****/\n\t/**\n\t * @dev Get denomination info based on name\n\t * @param denominationName The name to be queried\n\t * @return the denomination short name\n\t * @return the denomination address\n\t * @return the denomination public name\n\t * @return the denomination symbol\n\t * @return the denomination num of decimals\n\t * @return the denomination multiplier (power of ten)\n\t */\n\tfunction getDenominationByName(bytes8 denominationName) public view returns (bytes8, address, string, string, uint8, uint256) {\n\t\trequire (denominationName.length != 0);\n\t\trequire (denominationIndex[denominationName] > 0);\n\t\trequire (denominations[denominationIndex[denominationName]].denominationAddress != address(0));\n\t\tAOToken _ao = AOToken(denominations[denominationIndex[denominationName]].denominationAddress);\n\t\treturn (\n\t\t\tdenominations[denominationIndex[denominationName]].name,\n\t\t\tdenominations[denominationIndex[denominationName]].denominationAddress,\n\t\t\t_ao.name(),\n\t\t\t_ao.symbol(),\n\t\t\t_ao.decimals(),\n\t\t\t_ao.powerOfTen()\n\t\t);\n\t}\n\n\t/**\n\t * @dev Get denomination info by index\n\t * @param index The index to be queried\n\t * @return the denomination short name\n\t * @return the denomination address\n\t * @return the denomination public name\n\t * @return the denomination symbol\n\t * @return the denomination num of decimals\n\t * @return the denomination multiplier (power of ten)\n\t */\n\tfunction getDenominationByIndex(uint256 index) public view returns (bytes8, address, string, string, uint8, uint256) {\n\t\trequire (index > 0 && index <= totalDenominations);\n\t\trequire (denominations[index].denominationAddress != address(0));\n\t\tAOToken _ao = AOToken(denominations[index].denominationAddress);\n\t\treturn (\n\t\t\tdenominations[index].name,\n\t\t\tdenominations[index].denominationAddress,\n\t\t\t_ao.name(),\n\t\t\t_ao.symbol(),\n\t\t\t_ao.decimals(),\n\t\t\t_ao.powerOfTen()\n\t\t);\n\t}\n\n\t/**\n\t * @dev Get base denomination info\n\t * @return the denomination short name\n\t * @return the denomination address\n\t * @return the denomination public name\n\t * @return the denomination symbol\n\t * @return the denomination num of decimals\n\t * @return the denomination multiplier (power of ten)\n\t */\n\tfunction getBaseDenomination() public view returns (bytes8, address, string, string, uint8, uint256) {\n\t\trequire (totalDenominations > 1);\n\t\treturn getDenominationByIndex(1);\n\t}\n\n\t/**\n\t * @dev convert token from `denominationName` denomination to base denomination,\n\t *\t\tin this case it's similar to web3.toWei() functionality\n\t *\n\t * Example:\n\t * 9.1 Kilo should be entered as 9 integerAmount and 100 fractionAmount\n\t * 9.02 Kilo should be entered as 9 integerAmount and 20 fractionAmount\n\t * 9.001 Kilo should be entered as 9 integerAmount and 1 fractionAmount\n\t *\n\t * @param integerAmount uint256 of the integer amount to be converted\n\t * @param fractionAmount uint256 of the frational amount to be converted\n\t * @param denominationName bytes8 name of the token denomination\n\t * @return uint256 converted amount in base denomination from target denomination\n\t */\n\tfunction toBase(uint256 integerAmount, uint256 fractionAmount, bytes8 denominationName) public isValidDenomination(denominationName) view returns (uint256) {\n\t\tDenomination memory _denomination = denominations[denominationIndex[denominationName]];\n\t\tAOToken _denominationToken = AOToken(_denomination.denominationAddress);\n\t\tuint8 fractionNumDigits = _numDigits(fractionAmount);\n\t\trequire (fractionNumDigits <= _denominationToken.decimals());\n\t\tuint256 baseInteger = integerAmount.mul(10 ** _denominationToken.powerOfTen());\n\t\tif (_denominationToken.decimals() == 0) {\n\t\t\tfractionAmount = 0;\n\t\t}\n\t\treturn baseInteger.add(fractionAmount);\n\t}\n\n\t/**\n\t * @dev convert token from base denomination to `denominationName` denomination,\n\t *\t\tin this case it's similar to web3.fromWei() functionality\n\t * @param integerAmount uint256 of the base amount to be converted\n\t * @param denominationName bytes8 name of the target token denomination\n\t * @return uint256 of the converted integer amount in target denomination\n\t * @return uint256 of the converted fraction amount in target denomination\n\t */\n\tfunction fromBase(uint256 integerAmount, bytes8 denominationName) public isValidDenomination(denominationName) view returns (uint256, uint256) {\n\t\tDenomination memory _denomination = denominations[denominationIndex[denominationName]];\n\t\tAOToken _denominationToken = AOToken(_denomination.denominationAddress);\n\t\tuint256 denominationInteger = integerAmount.div(10 ** _denominationToken.powerOfTen());\n\t\tuint256 denominationFraction = integerAmount.sub(denominationInteger.mul(10 ** _denominationToken.powerOfTen()));\n\t\treturn (denominationInteger, denominationFraction);\n\t}\n\n\t/**\n\t * @dev exchange `amount` token from `fromDenominationName` denomination to token in `toDenominationName` denomination\n\t * @param amount The amount of token to exchange\n\t * @param fromDenominationName The origin denomination\n\t * @param toDenominationName The target denomination\n\t */\n\tfunction exchange(uint256 amount, bytes8 fromDenominationName, bytes8 toDenominationName) public isActive isValidDenomination(fromDenominationName) isValidDenomination(toDenominationName) {\n\t\trequire (amount > 0);\n\t\tDenomination memory _fromDenomination = denominations[denominationIndex[fromDenominationName]];\n\t\tDenomination memory _toDenomination = denominations[denominationIndex[toDenominationName]];\n\t\tAOToken _fromDenominationToken = AOToken(_fromDenomination.denominationAddress);\n\t\tAOToken _toDenominationToken = AOToken(_toDenomination.denominationAddress);\n\t\trequire (_fromDenominationToken.whitelistBurnFrom(msg.sender, amount));\n\t\trequire (_toDenominationToken.mintToken(msg.sender, amount));\n\t\temit Exchange(msg.sender, amount, fromDenominationName, toDenominationName);\n\t}\n\n\t/**\n\t * @dev Return the highest possible denomination given a base amount\n\t * @param amount The amount to be converted\n\t * @return the denomination short name\n\t * @return the denomination address\n\t * @return the integer amount at the denomination level\n\t * @return the fraction amount at the denomination level\n\t * @return the denomination public name\n\t * @return the denomination symbol\n\t * @return the denomination num of decimals\n\t * @return the denomination multiplier (power of ten)\n\t */\n\tfunction toHighestDenomination(uint256 amount) public view returns (bytes8, address, uint256, uint256, string, string, uint8, uint256) {\n\t\tuint256 integerAmount;\n\t\tuint256 fractionAmount;\n\t\tuint256 index;\n\t\tfor (uint256 i=totalDenominations; i>0; i--) {\n\t\t\tDenomination memory _denomination = denominations[i];\n\t\t\t(integerAmount, fractionAmount) = fromBase(amount, _denomination.name);\n\t\t\tif (integerAmount > 0) {\n\t\t\t\tindex = i;\n\t\t\t\tbreak;\n\t\t\t}\n\t\t}\n\t\trequire (index > 0 && index <= totalDenominations);\n\t\trequire (integerAmount > 0 || fractionAmount > 0);\n\t\trequire (denominations[index].denominationAddress != address(0));\n\t\tAOToken _ao = AOToken(denominations[index].denominationAddress);\n\t\treturn (\n\t\t\tdenominations[index].name,\n\t\t\tdenominations[index].denominationAddress,\n\t\t\tintegerAmount,\n\t\t\tfractionAmount,\n\t\t\t_ao.name(),\n\t\t\t_ao.symbol(),\n\t\t\t_ao.decimals(),\n\t\t\t_ao.powerOfTen()\n\t\t);\n\t}\n\n\t/***** Private functions *****/\n\t/**\n\t * @dev count num of digits\n\t * @param number uint256 of the nuumber to be checked\n\t * @return uint8 num of digits\n\t */\n\tfunction _numDigits(uint256 number) private pure returns (uint8) {\n\t\tuint8 digits = 0;\n\t\twhile(number != 0) {\n\t\t\tnumber = number.div(10);\n\t\t\tdigits++;\n\t\t}\n\t\treturn digits;\n\t}\n}\n",
	"sourcePath": "/home/jmulyono/ao-contracts/contracts/AOTreasury.sol",
	"compiler": {
		"name": "solc",
		"version": "0.4.24+commit.e67f0147.Emscripten.clang"
	},
	"schemaVersion": "2.0.1",
	"updatedAt": "2018-09-07T01:59:37.436Z"
}