{
	"contractName": "AOTreasury",
	"abi": [
		{
			"constant": true,
			"inputs": [],
			"name": "aoDevTeam1",
			"outputs": [
				{
					"name": "",
					"type": "address"
				}
			],
			"payable": false,
			"stateMutability": "view",
			"type": "function"
		},
		{
			"constant": true,
			"inputs": [],
			"name": "killed",
			"outputs": [
				{
					"name": "",
					"type": "bool"
				}
			],
			"payable": false,
			"stateMutability": "view",
			"type": "function"
		},
		{
			"constant": false,
			"inputs": [
				{
					"name": "_account",
					"type": "address"
				},
				{
					"name": "_whitelist",
					"type": "bool"
				}
			],
			"name": "setWhitelist",
			"outputs": [],
			"payable": false,
			"stateMutability": "nonpayable",
			"type": "function"
		},
		{
			"constant": true,
			"inputs": [],
			"name": "totalDenominations",
			"outputs": [
				{
					"name": "",
					"type": "uint256"
				}
			],
			"payable": false,
			"stateMutability": "view",
			"type": "function"
		},
		{
			"constant": true,
			"inputs": [],
			"name": "paused",
			"outputs": [
				{
					"name": "",
					"type": "bool"
				}
			],
			"payable": false,
			"stateMutability": "view",
			"type": "function"
		},
		{
			"constant": true,
			"inputs": [
				{
					"name": "",
					"type": "address"
				}
			],
			"name": "whitelist",
			"outputs": [
				{
					"name": "",
					"type": "bool"
				}
			],
			"payable": false,
			"stateMutability": "view",
			"type": "function"
		},
		{
			"constant": true,
			"inputs": [],
			"name": "aoDevTeam2",
			"outputs": [
				{
					"name": "",
					"type": "address"
				}
			],
			"payable": false,
			"stateMutability": "view",
			"type": "function"
		},
		{
			"constant": false,
			"inputs": [
				{
					"name": "_aoDevTeam1",
					"type": "address"
				},
				{
					"name": "_aoDevTeam2",
					"type": "address"
				}
			],
			"name": "setAODevTeamAddresses",
			"outputs": [],
			"payable": false,
			"stateMutability": "nonpayable",
			"type": "function"
		},
		{
			"constant": true,
			"inputs": [],
			"name": "developer",
			"outputs": [
				{
					"name": "",
					"type": "address"
				}
			],
			"payable": false,
			"stateMutability": "view",
			"type": "function"
		},
		{
			"constant": false,
			"inputs": [
				{
					"name": "newDeveloper",
					"type": "address"
				}
			],
			"name": "transferOwnership",
			"outputs": [],
			"payable": false,
			"stateMutability": "nonpayable",
			"type": "function"
		},
		{
			"inputs": [],
			"payable": false,
			"stateMutability": "nonpayable",
			"type": "constructor"
		},
		{
			"anonymous": false,
			"inputs": [
				{
					"indexed": true,
					"name": "account",
					"type": "address"
				},
				{
					"indexed": false,
					"name": "amount",
					"type": "uint256"
				},
				{
					"indexed": false,
					"name": "fromDenominationName",
					"type": "bytes8"
				},
				{
					"indexed": false,
					"name": "toDenominationName",
					"type": "bytes8"
				}
			],
			"name": "Exchange",
			"type": "event"
		},
		{
			"anonymous": false,
			"inputs": [],
			"name": "EscapeHatch",
			"type": "event"
		},
		{
			"constant": false,
			"inputs": [
				{
					"name": "_paused",
					"type": "bool"
				}
			],
			"name": "setPaused",
			"outputs": [],
			"payable": false,
			"stateMutability": "nonpayable",
			"type": "function"
		},
		{
			"constant": false,
			"inputs": [],
			"name": "escapeHatch",
			"outputs": [],
			"payable": false,
			"stateMutability": "nonpayable",
			"type": "function"
		},
		{
			"constant": false,
			"inputs": [
				{
					"name": "denominationName",
					"type": "bytes8"
				},
				{
					"name": "denominationAddress",
					"type": "address"
				}
			],
			"name": "addDenomination",
			"outputs": [
				{
					"name": "",
					"type": "bool"
				}
			],
			"payable": false,
			"stateMutability": "nonpayable",
			"type": "function"
		},
		{
			"constant": false,
			"inputs": [
				{
					"name": "denominationName",
					"type": "bytes8"
				},
				{
					"name": "denominationAddress",
					"type": "address"
				}
			],
			"name": "updateDenomination",
			"outputs": [
				{
					"name": "",
					"type": "bool"
				}
			],
			"payable": false,
			"stateMutability": "nonpayable",
			"type": "function"
		},
		{
			"constant": true,
			"inputs": [
				{
					"name": "denominationName",
					"type": "bytes8"
				}
			],
			"name": "getDenominationByName",
			"outputs": [
				{
					"name": "",
					"type": "bytes8"
				},
				{
					"name": "",
					"type": "address"
				},
				{
					"name": "",
					"type": "string"
				},
				{
					"name": "",
					"type": "string"
				},
				{
					"name": "",
					"type": "uint8"
				},
				{
					"name": "",
					"type": "uint256"
				}
			],
			"payable": false,
			"stateMutability": "view",
			"type": "function"
		},
		{
			"constant": true,
			"inputs": [
				{
					"name": "index",
					"type": "uint256"
				}
			],
			"name": "getDenominationByIndex",
			"outputs": [
				{
					"name": "",
					"type": "bytes8"
				},
				{
					"name": "",
					"type": "address"
				},
				{
					"name": "",
					"type": "string"
				},
				{
					"name": "",
					"type": "string"
				},
				{
					"name": "",
					"type": "uint8"
				},
				{
					"name": "",
					"type": "uint256"
				}
			],
			"payable": false,
			"stateMutability": "view",
			"type": "function"
		},
		{
			"constant": true,
			"inputs": [],
			"name": "getBaseDenomination",
			"outputs": [
				{
					"name": "",
					"type": "bytes8"
				},
				{
					"name": "",
					"type": "address"
				},
				{
					"name": "",
					"type": "string"
				},
				{
					"name": "",
					"type": "string"
				},
				{
					"name": "",
					"type": "uint8"
				},
				{
					"name": "",
					"type": "uint256"
				}
			],
			"payable": false,
			"stateMutability": "view",
			"type": "function"
		},
		{
			"constant": true,
			"inputs": [
				{
					"name": "integerAmount",
					"type": "uint256"
				},
				{
					"name": "fractionAmount",
					"type": "uint256"
				},
				{
					"name": "denominationName",
					"type": "bytes8"
				}
			],
			"name": "toBase",
			"outputs": [
				{
					"name": "",
					"type": "uint256"
				}
			],
			"payable": false,
			"stateMutability": "view",
			"type": "function"
		},
		{
			"constant": true,
			"inputs": [
				{
					"name": "integerAmount",
					"type": "uint256"
				},
				{
					"name": "denominationName",
					"type": "bytes8"
				}
			],
			"name": "fromBase",
			"outputs": [
				{
					"name": "",
					"type": "uint256"
				},
				{
					"name": "",
					"type": "uint256"
				}
			],
			"payable": false,
			"stateMutability": "view",
			"type": "function"
		},
		{
			"constant": false,
			"inputs": [
				{
					"name": "amount",
					"type": "uint256"
				},
				{
					"name": "fromDenominationName",
					"type": "bytes8"
				},
				{
					"name": "toDenominationName",
					"type": "bytes8"
				}
			],
			"name": "exchange",
			"outputs": [],
			"payable": false,
			"stateMutability": "nonpayable",
			"type": "function"
		},
		{
			"constant": true,
			"inputs": [
				{
					"name": "amount",
					"type": "uint256"
				}
			],
			"name": "toHighestDenomination",
			"outputs": [
				{
					"name": "",
					"type": "bytes8"
				},
				{
					"name": "",
					"type": "address"
				},
				{
					"name": "",
					"type": "uint256"
				},
				{
					"name": "",
					"type": "uint256"
				},
				{
					"name": "",
					"type": "string"
				},
				{
					"name": "",
					"type": "string"
				},
				{
					"name": "",
					"type": "uint8"
				},
				{
					"name": "",
					"type": "uint256"
				}
			],
			"payable": false,
			"stateMutability": "view",
			"type": "function"
		}
	],
	"bytecode": "0x608060405260018054600160a060020a0319908116735c63644d01ba385ebac5bcf2ddc1e6dbc1182b52179091556002805490911673156c79bf4347d1891da834ea30662a14177cbf2817905534801561005857600080fd5b5060008054600160a060020a03191633179055611eec8061007a6000396000f3006080604052600436106101035763ffffffff60e060020a60003504166315227aa781146101085780631554611f1461013957806316c38b3c146101505780631f3a0e411461016a578063217db8e8146101935780633d9f923b146101cd578063451659d9146101fb57806353d6fd59146102265780635768f84d1461024c5780635c975abb146102615780635d99079114610276578063932fd99f146103b45780639b19251a14610500578063a46a891e14610521578063a99433a61461055f578063aa25c74414610574578063b24626e914610596578063c1e52775146105bd578063ca4b208b146105eb578063dc689d3c14610600578063f2fde38b14610615575b600080fd5b34801561011457600080fd5b5061011d610636565b60408051600160a060020a039092168252519081900360200190f35b34801561014557600080fd5b5061014e610645565b005b34801561015c57600080fd5b5061014e60043515156106ab565b34801561017657600080fd5b5061017f6106d5565b604080519115158252519081900360200190f35b34801561019f57600080fd5b506101bb600435602435600160c060020a0319604435166106e3565b60408051918252519081900360200190f35b3480156101d957600080fd5b5061017f600160c060020a031960043516600160a060020a0360243516610959565b34801561020757600080fd5b5061014e600435600160c060020a031960243581169060443516610c7a565b34801561023257600080fd5b5061014e600160a060020a03600435166024351515611085565b34801561025857600080fd5b506101bb6110c7565b34801561026d57600080fd5b5061017f6110cd565b34801561028257600080fd5b5061028e6004356110d6565b6040518087600160c060020a031916600160c060020a031916815260200186600160a060020a0316600160a060020a0316815260200180602001806020018560ff1660ff168152602001848152602001838103835287818151815260200191508051906020019080838360005b838110156103135781810151838201526020016102fb565b50505050905090810190601f1680156103405780820380516001836020036101000a031916815260200191505b50838103825286518152865160209182019188019080838360005b8381101561037357818101518382015260200161035b565b50505050905090810190601f1680156103a05780820380516001836020036101000a031916815260200191505b509850505050505050505060405180910390f35b3480156103c057600080fd5b506103cc6004356113ec565b6040518089600160c060020a031916600160c060020a031916815260200188600160a060020a0316600160a060020a0316815260200187815260200186815260200180602001806020018560ff1660ff168152602001848152602001838103835287818151815260200191508051906020019080838360005b8381101561045d578181015183820152602001610445565b50505050905090810190601f16801561048a5780820380516001836020036101000a031916815260200191505b50838103825286518152865160209182019188019080838360005b838110156104bd5781810151838201526020016104a5565b50505050905090810190601f1680156104ea5780820380516001836020036101000a031916815260200191505b509a505050505050505050505060405180910390f35b34801561050c57600080fd5b5061017f600160a060020a036004351661180d565b34801561052d57600080fd5b50610546600435600160c060020a031960243516611822565b6040805192835260208301919091528051918290030190f35b34801561056b57600080fd5b5061011d611a15565b34801561058057600080fd5b5061028e600160c060020a031960043516611a24565b3480156105a257600080fd5b5061014e600160a060020a0360043581169060243516611b2e565b3480156105c957600080fd5b5061017f600160c060020a031960043516600160a060020a0360243516611b80565b3480156105f757600080fd5b5061011d611d95565b34801561060c57600080fd5b5061028e611da4565b34801561062157600080fd5b5061014e600160a060020a0360043516611ddb565b600154600160a060020a031681565b600054600160a060020a0316331461065c57600080fd5b600454610100900460ff161561067157600080fd5b6004805461ff0019166101001790556040517f16ed36fbe43aed6ba7426b24d35620696380d398f2f22f918dd74e4d3e0ceef990600090a1565b600054600160a060020a031633146106c257600080fd5b6004805460ff1916911515919091179055565b600454610100900460ff1681565b60006106ed611ea9565b600160c060020a03198316600090815260066020526040812054819081908690821080156107555750600160c060020a0319811660009081526006602090815260408083205483526005909152902054680100000000000000009004600160a060020a031615155b151561076057600080fd5b600160c060020a03198781166000908152600660209081526040808320548352600582529182902082518084019093525460c060020a8102909316825268010000000000000000909204600160a060020a0316918101829052955093506107c688611e21565b925083600160a060020a031663313ce5676040518163ffffffff1660e060020a028152600401602060405180830381600087803b15801561080657600080fd5b505af115801561081a573d6000803e3d6000fd5b505050506040513d602081101561083057600080fd5b505160ff908116908416111561084557600080fd5b6108c284600160a060020a0316630aa245466040518163ffffffff1660e060020a028152600401602060405180830381600087803b15801561088657600080fd5b505af115801561089a573d6000803e3d6000fd5b505050506040513d60208110156108b057600080fd5b50518a90600a0a63ffffffff611e4c16565b915083600160a060020a031663313ce5676040518163ffffffff1660e060020a028152600401602060405180830381600087803b15801561090257600080fd5b505af1158015610916573d6000803e3d6000fd5b505050506040513d602081101561092c57600080fd5b505160ff16151561093c57600097505b61094c828963ffffffff611e7516565b9998505050505050505050565b600080548190819081908190600160a060020a0316331461097957600080fd5b600160c060020a031987166000908152600660205260408120541161099d57600080fd5b600160a060020a03861615156109b257600080fd5b600160c060020a0319871660009081526006602052604090205493508592506001841115610aee576005600060018603815260200190815260200160002060000160089054906101000a9004600160a060020a0316915081600160a060020a0316630aa245466040518163ffffffff1660e060020a028152600401602060405180830381600087803b158015610a4757600080fd5b505af1158015610a5b573d6000803e3d6000fd5b505050506040513d6020811015610a7157600080fd5b50516040805160e160020a63055122a30281529051600160a060020a03861691630aa245469160048083019260209291908290030181600087803b158015610ab857600080fd5b505af1158015610acc573d6000803e3d6000fd5b505050506040513d6020811015610ae257600080fd5b505111610aee57600080fd5b600754841015610c0b5760056000600754815260200190815260200160002060000160089054906101000a9004600160a060020a0316905080600160a060020a0316630aa245466040518163ffffffff1660e060020a028152600401602060405180830381600087803b158015610b6457600080fd5b505af1158015610b78573d6000803e3d6000fd5b505050506040513d6020811015610b8e57600080fd5b50516040805160e160020a63055122a30281529051600160a060020a03861691630aa245469160048083019260209291908290030181600087803b158015610bd557600080fd5b505af1158015610be9573d6000803e3d6000fd5b505050506040513d6020811015610bff57600080fd5b505110610c0b57600080fd5b600160c060020a031987166000908152600660209081526040808320548352600590915290208054600160a060020a03881668010000000000000000027bffffffffffffffffffffffffffffffffffffffff000000000000000019909116179055600194505050505092915050565b610c82611ea9565b610c8a611ea9565b600454600090819060ff16158015610caa5750600454610100900460ff16155b1515610cb557600080fd5b600160c060020a031986166000908152600660205260408120548791108015610d185750600160c060020a0319811660009081526006602090815260408083205483526005909152902054680100000000000000009004600160a060020a031615155b1515610d2357600080fd5b600160c060020a031986166000908152600660205260408120548791108015610d865750600160c060020a0319811660009081526006602090815260408083205483526005909152902054680100000000000000009004600160a060020a031615155b1515610d9157600080fd5b60008911610d9e57600080fd5b60056000600660008b600160c060020a031916600160c060020a03191681526020019081526020016000205481526020019081526020016000206040805190810160405290816000820160009054906101000a900460c060020a02600160c060020a031916600160c060020a03191681526020016000820160089054906101000a9004600160a060020a0316600160a060020a0316600160a060020a031681525050955060056000600660008a600160c060020a031916600160c060020a03191681526020019081526020016000205481526020019081526020016000206040805190810160405290816000820160009054906101000a900460c060020a02600160c060020a031916600160c060020a03191681526020016000820160089054906101000a9004600160a060020a0316600160a060020a0316600160a060020a0316815250509450856020015193508460200151925083600160a060020a031663b1e19d45338b6040518363ffffffff1660e060020a0281526004018083600160a060020a0316600160a060020a0316815260200182815260200192505050602060405180830381600087803b158015610f5757600080fd5b505af1158015610f6b573d6000803e3d6000fd5b505050506040513d6020811015610f8157600080fd5b50511515610f8e57600080fd5b604080517f79c65068000000000000000000000000000000000000000000000000000000008152336004820152602481018b90529051600160a060020a038516916379c650689160448083019260209291908290030181600087803b158015610ff657600080fd5b505af115801561100a573d6000803e3d6000fd5b505050506040513d602081101561102057600080fd5b5051151561102d57600080fd5b604080518a8152600160c060020a0319808b166020830152891681830152905133917fa9cd29186ae896a4a77376f8eb52122c28b2ee10c2271abebe96135f33d0aee7919081900360600190a2505050505050505050565b600054600160a060020a0316331461109c57600080fd5b600160a060020a03919091166000908152600360205260409020805460ff1916911515919091179055565b60075481565b60045460ff1681565b600080606080600080600080881180156110f257506007548811155b15156110fd57600080fd5b600088815260056020526040902054680100000000000000009004600160a060020a0316151561112c57600080fd5b506000878152600560205260408082205481517f06fdde030000000000000000000000000000000000000000000000000000000081529151600160a060020a03680100000000000000008304169360c060020a90920292849283926306fdde0392600480820193929182900301818387803b1580156111aa57600080fd5b505af11580156111be573d6000803e3d6000fd5b505050506040513d6000823e601f3d908101601f1916820160405260208110156111e757600080fd5b8101908080516401000000008111156111ff57600080fd5b8201602081018481111561121257600080fd5b815164010000000081118282018710171561122c57600080fd5b505092919050505083600160a060020a03166395d89b416040518163ffffffff1660e060020a028152600401600060405180830381600087803b15801561127257600080fd5b505af1158015611286573d6000803e3d6000fd5b505050506040513d6000823e601f3d908101601f1916820160405260208110156112af57600080fd5b8101908080516401000000008111156112c757600080fd5b820160208101848111156112da57600080fd5b81516401000000008111828201871017156112f457600080fd5b505092919050505084600160a060020a031663313ce5676040518163ffffffff1660e060020a028152600401602060405180830381600087803b15801561133a57600080fd5b505af115801561134e573d6000803e3d6000fd5b505050506040513d602081101561136457600080fd5b50516040805160e160020a63055122a30281529051600160a060020a03881691630aa245469160048083019260209291908290030181600087803b1580156113ab57600080fd5b505af11580156113bf573d6000803e3d6000fd5b505050506040513d60208110156113d557600080fd5b5051949d939c50919a509850965090945092505050565b600080600080606080600080600080600080611406611ea9565b600060075492505b60008311156114c457600560008481526020019081526020016000206040805190810160405290816000820160009054906101000a900460c060020a02600160c060020a031916600160c060020a03191681526020016000820160089054906101000a9004600160a060020a0316600160a060020a0316600160a060020a03168152505091506114a28f8360000151611822565b909650945060008611156114b8578293506114c4565b6000199092019161140e565b6000841180156114d657506007548411155b15156114e157600080fd5b60008611806114f05750600085115b15156114fb57600080fd5b600084815260056020526040902054680100000000000000009004600160a060020a0316151561152a57600080fd5b506000838152600560205260408082205481517f06fdde030000000000000000000000000000000000000000000000000000000081529151600160a060020a03680100000000000000008304169360c060020a9092029284928a928a9285926306fdde039260048084019382900301818387803b1580156115aa57600080fd5b505af11580156115be573d6000803e3d6000fd5b505050506040513d6000823e601f3d908101601f1916820160405260208110156115e757600080fd5b8101908080516401000000008111156115ff57600080fd5b8201602081018481111561161257600080fd5b815164010000000081118282018710171561162c57600080fd5b505092919050505085600160a060020a03166395d89b416040518163ffffffff1660e060020a028152600401600060405180830381600087803b15801561167257600080fd5b505af1158015611686573d6000803e3d6000fd5b505050506040513d6000823e601f3d908101601f1916820160405260208110156116af57600080fd5b8101908080516401000000008111156116c757600080fd5b820160208101848111156116da57600080fd5b81516401000000008111828201871017156116f457600080fd5b505092919050505086600160a060020a031663313ce5676040518163ffffffff1660e060020a028152600401602060405180830381600087803b15801561173a57600080fd5b505af115801561174e573d6000803e3d6000fd5b505050506040513d602081101561176457600080fd5b50516040805160e160020a63055122a30281529051600160a060020a038a1691630aa245469160048083019260209291908290030181600087803b1580156117ab57600080fd5b505af11580156117bf573d6000803e3d6000fd5b505050506040513d60208110156117d557600080fd5b81019080805190602001909291905050508393508292509d509d509d509d509d509d509d509d50505050505050919395975091939597565b60036020526000908152604090205460ff1681565b60008061182d611ea9565b600160c060020a03198416600090815260066020526040812054819081908790821080156118955750600160c060020a0319811660009081526006602090815260408083205483526005909152902054680100000000000000009004600160a060020a031615155b15156118a057600080fd5b600160c060020a031988811660009081526006602090815260408083205483526005825280832081518083018352905460c060020a8102909516815268010000000000000000909404600160a060020a0316848301819052815160e160020a63055122a302815291519499509750611976938893630aa2454693600480850194919392918390030190829087803b15801561193a57600080fd5b505af115801561194e573d6000803e3d6000fd5b505050506040513d602081101561196457600080fd5b50518a90600a0a63ffffffff611e8216565b9250611a056119f885600160a060020a0316630aa245466040518163ffffffff1660e060020a028152600401602060405180830381600087803b1580156119bc57600080fd5b505af11580156119d0573d6000803e3d6000fd5b505050506040513d60208110156119e657600080fd5b50518590600a0a63ffffffff611e4c16565b8a9063ffffffff611e9716565b9299929850919650505050505050565b600254600160a060020a031681565b600080606080828080600160c060020a0319881660009081526006602052604081205411611a5157600080fd5b600160c060020a0319881660009081526006602090815260408083205483526005909152902054680100000000000000009004600160a060020a03161515611a9857600080fd5b50600160c060020a03198716600090815260066020908152604080832054835260059091528082205481517f06fdde030000000000000000000000000000000000000000000000000000000081529151680100000000000000008204600160a060020a03169360c060020a90920292849283926306fdde0392600480820193929182900301818387803b1580156111aa57600080fd5b600054600160a060020a03163314611b4557600080fd5b60018054600160a060020a0393841673ffffffffffffffffffffffffffffffffffffffff199182161790915560028054929093169116179055565b6000805481908190600160a060020a03163314611b9c57600080fd5b600160a060020a0384161515611bb157600080fd5b600160c060020a0319851660009081526006602052604090205415611bd557600080fd5b600780546001908101918290551015611d015760056000600160075403815260200190815260200160002060000160089054906101000a9004600160a060020a0316915083905081600160a060020a0316630aa245466040518163ffffffff1660e060020a028152600401602060405180830381600087803b158015611c5a57600080fd5b505af1158015611c6e573d6000803e3d6000fd5b505050506040513d6020811015611c8457600080fd5b50516040805160e160020a63055122a30281529051600160a060020a03841691630aa245469160048083019260209291908290030181600087803b158015611ccb57600080fd5b505af1158015611cdf573d6000803e3d6000fd5b505050506040513d6020811015611cf557600080fd5b505111611d0157600080fd5b600780546000908152600560209081526040808320805460c060020a8b0467ffffffffffffffff19909116179055835483528083208054600160a060020a038a1668010000000000000000027bffffffffffffffffffffffffffffffffffffffff0000000000000000199091161790559254600160c060020a03198916835260069091529190205560019250505092915050565b600054600160a060020a031681565b6000806060806000806001600754111515611dbe57600080fd5b611dc860016110d6565b949b939a50919850965094509092509050565b600054600160a060020a03163314611df257600080fd5b6000805473ffffffffffffffffffffffffffffffffffffffff1916600160a060020a0392909216919091179055565b6000805b8215611e4657611e3c83600a63ffffffff611e8216565b9250600101611e25565b92915050565b6000821515611e5d57506000611e46565b50818102818382811515611e6d57fe5b0414611e4657fe5b81810182811015611e4657fe5b60008183811515611e8f57fe5b049392505050565b600082821115611ea357fe5b50900390565b6040805180820190915260008082526020820152905600a165627a7a72305820e072a08399d97c1d3718d465b738b3c33fff57bac1212b37f525df5014f768eb0029",
	"source": "pragma solidity ^0.4.24;\n\nimport './SafeMath.sol';\nimport './developed.sol';\nimport './AOToken.sol';\n\n/**\n * @title AOTreasury\n *\n * The purpose of this contract is to list all of the valid denominations of AO Token and do the conversion between denominations\n */\ncontract AOTreasury is developed {\n\tusing SafeMath for uint256;\n\n\tbool public paused;\n\tbool public killed;\n\n\tstruct Denomination {\n\t\tbytes8 name;\n\t\taddress denominationAddress;\n\t}\n\n\t// Mapping from denomination index to Denomination object\n\t// The list is in order from lowest denomination to highest denomination\n\t// i.e, denominations[1] is the base denomination\n\tmapping (uint256 => Denomination) private denominations;\n\n\t// Mapping from denomination ID to index of denominations\n\tmapping (bytes8 => uint256) private denominationIndex;\n\n\tuint256 public totalDenominations;\n\n\t// Event to be broadcasted to public when a token exchange happens\n\tevent Exchange(address indexed account, uint256 amount, bytes8 fromDenominationName, bytes8 toDenominationName);\n\n\t// Event to be broadcasted to public when emergency mode is triggered\n\tevent EscapeHatch();\n\n\t/**\n\t * @dev Constructor function\n\t */\n\tconstructor() public {}\n\n\t/**\n\t * @dev Checks if contract is currently active\n\t */\n\tmodifier isActive {\n\t\trequire (paused == false && killed == false);\n\t\t_;\n\t}\n\n\t/**\n\t * @dev Checks if denomination is valid\n\t */\n\tmodifier isValidDenomination(bytes8 denominationName) {\n\t\trequire (denominationIndex[denominationName] > 0 && denominations[denominationIndex[denominationName]].denominationAddress != address(0));\n\t\t_;\n\t}\n\n\t/***** DEVELOPER ONLY METHODS *****/\n\t/**\n\t * @dev Developer pauses/unpauses contract\n\t * @param _paused Either to pause contract or not\n\t */\n\tfunction setPaused(bool _paused) public onlyDeveloper {\n\t\tpaused = _paused;\n\t}\n\n\t/**\n\t * @dev Developer triggers emergency mode.\n\t *\n\t */\n\tfunction escapeHatch() public onlyDeveloper {\n\t\trequire (killed == false);\n\t\tkilled = true;\n\t\temit EscapeHatch();\n\t}\n\n\t/**\n\t * @dev Developer adds denomination and the contract address associated with it\n\t * @param denominationName The name of the denomination, i.e ao, kilo, mega, etc.\n\t * @param denominationAddress The address of the denomination token\n\t * @return true on success\n\t */\n\tfunction addDenomination(bytes8 denominationName, address denominationAddress) public onlyDeveloper returns (bool) {\n\t\trequire (denominationName.length != 0);\n\t\trequire (denominationAddress != address(0));\n\t\trequire (denominationIndex[denominationName] == 0);\n\t\ttotalDenominations++;\n\t\t// Make sure the new denomination is higher than the previous\n\t\tif (totalDenominations > 1) {\n\t\t\tAOToken _lastDenominationToken = AOToken(denominations[totalDenominations - 1].denominationAddress);\n\t\t\tAOToken _newDenominationToken = AOToken(denominationAddress);\n\t\t\trequire (_newDenominationToken.powerOfTen() > _lastDenominationToken.powerOfTen());\n\t\t}\n\t\tdenominations[totalDenominations].name = denominationName;\n\t\tdenominations[totalDenominations].denominationAddress = denominationAddress;\n\t\tdenominationIndex[denominationName] = totalDenominations;\n\t\treturn true;\n\t}\n\n\t/**\n\t * @dev Developer updates denomination address or activates/deactivates the denomination\n\t * @param denominationName The name of the denomination, i.e ao, kilo, mega, etc.\n\t * @param denominationAddress The address of the denomination token\n\t * @return true on success\n\t */\n\tfunction updateDenomination(bytes8 denominationName, address denominationAddress) public onlyDeveloper returns (bool) {\n\t\trequire (denominationName.length != 0);\n\t\trequire (denominationIndex[denominationName] > 0);\n\t\trequire (denominationAddress != address(0));\n\t\tuint256 _denominationNameIndex = denominationIndex[denominationName];\n\t\tAOToken _newDenominationToken = AOToken(denominationAddress);\n\t\tif (_denominationNameIndex > 1) {\n\t\t\tAOToken _prevDenominationToken = AOToken(denominations[_denominationNameIndex - 1].denominationAddress);\n\t\t\trequire (_newDenominationToken.powerOfTen() > _prevDenominationToken.powerOfTen());\n\t\t}\n\t\tif (_denominationNameIndex < totalDenominations) {\n\t\t\tAOToken _lastDenominationToken = AOToken(denominations[totalDenominations].denominationAddress);\n\t\t\trequire (_newDenominationToken.powerOfTen() < _lastDenominationToken.powerOfTen());\n\t\t}\n\t\tdenominations[denominationIndex[denominationName]].denominationAddress = denominationAddress;\n\t\treturn true;\n\t}\n\n\t/***** PUBLIC METHODS *****/\n\t/**\n\t * @dev Get denomination info based on name\n\t * @param denominationName The name to be queried\n\t * @return the denomination short name\n\t * @return the denomination address\n\t * @return the denomination public name\n\t * @return the denomination symbol\n\t * @return the denomination num of decimals\n\t * @return the denomination multiplier (power of ten)\n\t */\n\tfunction getDenominationByName(bytes8 denominationName) public view returns (bytes8, address, string, string, uint8, uint256) {\n\t\trequire (denominationName.length != 0);\n\t\trequire (denominationIndex[denominationName] > 0);\n\t\trequire (denominations[denominationIndex[denominationName]].denominationAddress != address(0));\n\t\tAOToken _ao = AOToken(denominations[denominationIndex[denominationName]].denominationAddress);\n\t\treturn (\n\t\t\tdenominations[denominationIndex[denominationName]].name,\n\t\t\tdenominations[denominationIndex[denominationName]].denominationAddress,\n\t\t\t_ao.name(),\n\t\t\t_ao.symbol(),\n\t\t\t_ao.decimals(),\n\t\t\t_ao.powerOfTen()\n\t\t);\n\t}\n\n\t/**\n\t * @dev Get denomination info by index\n\t * @param index The index to be queried\n\t * @return the denomination short name\n\t * @return the denomination address\n\t * @return the denomination public name\n\t * @return the denomination symbol\n\t * @return the denomination num of decimals\n\t * @return the denomination multiplier (power of ten)\n\t */\n\tfunction getDenominationByIndex(uint256 index) public view returns (bytes8, address, string, string, uint8, uint256) {\n\t\trequire (index > 0 && index <= totalDenominations);\n\t\trequire (denominations[index].denominationAddress != address(0));\n\t\tAOToken _ao = AOToken(denominations[index].denominationAddress);\n\t\treturn (\n\t\t\tdenominations[index].name,\n\t\t\tdenominations[index].denominationAddress,\n\t\t\t_ao.name(),\n\t\t\t_ao.symbol(),\n\t\t\t_ao.decimals(),\n\t\t\t_ao.powerOfTen()\n\t\t);\n\t}\n\n\t/**\n\t * @dev Get base denomination info\n\t * @return the denomination short name\n\t * @return the denomination address\n\t * @return the denomination public name\n\t * @return the denomination symbol\n\t * @return the denomination num of decimals\n\t * @return the denomination multiplier (power of ten)\n\t */\n\tfunction getBaseDenomination() public view returns (bytes8, address, string, string, uint8, uint256) {\n\t\trequire (totalDenominations > 1);\n\t\treturn getDenominationByIndex(1);\n\t}\n\n\t/**\n\t * @dev convert token from `denominationName` denomination to base denomination,\n\t *\t\tin this case it's similar to web3.toWei() functionality\n\t *\n\t * Example:\n\t * 9.1 Kilo should be entered as 9 integerAmount and 100 fractionAmount\n\t * 9.02 Kilo should be entered as 9 integerAmount and 20 fractionAmount\n\t * 9.001 Kilo should be entered as 9 integerAmount and 1 fractionAmount\n\t *\n\t * @param integerAmount uint256 of the integer amount to be converted\n\t * @param fractionAmount uint256 of the frational amount to be converted\n\t * @param denominationName bytes8 name of the token denomination\n\t * @return uint256 converted amount in base denomination from target denomination\n\t */\n\tfunction toBase(uint256 integerAmount, uint256 fractionAmount, bytes8 denominationName) public isValidDenomination(denominationName) view returns (uint256) {\n\t\tDenomination memory _denomination = denominations[denominationIndex[denominationName]];\n\t\tAOToken _denominationToken = AOToken(_denomination.denominationAddress);\n\t\tuint8 fractionNumDigits = _numDigits(fractionAmount);\n\t\trequire (fractionNumDigits <= _denominationToken.decimals());\n\t\tuint256 baseInteger = integerAmount.mul(10 ** _denominationToken.powerOfTen());\n\t\tif (_denominationToken.decimals() == 0) {\n\t\t\tfractionAmount = 0;\n\t\t}\n\t\treturn baseInteger.add(fractionAmount);\n\t}\n\n\t/**\n\t * @dev convert token from base denomination to `denominationName` denomination,\n\t *\t\tin this case it's similar to web3.fromWei() functionality\n\t * @param integerAmount uint256 of the base amount to be converted\n\t * @param denominationName bytes8 name of the target token denomination\n\t * @return uint256 of the converted integer amount in target denomination\n\t * @return uint256 of the converted fraction amount in target denomination\n\t */\n\tfunction fromBase(uint256 integerAmount, bytes8 denominationName) public isValidDenomination(denominationName) view returns (uint256, uint256) {\n\t\tDenomination memory _denomination = denominations[denominationIndex[denominationName]];\n\t\tAOToken _denominationToken = AOToken(_denomination.denominationAddress);\n\t\tuint256 denominationInteger = integerAmount.div(10 ** _denominationToken.powerOfTen());\n\t\tuint256 denominationFraction = integerAmount.sub(denominationInteger.mul(10 ** _denominationToken.powerOfTen()));\n\t\treturn (denominationInteger, denominationFraction);\n\t}\n\n\t/**\n\t * @dev exchange `amount` token from `fromDenominationName` denomination to token in `toDenominationName` denomination\n\t * @param amount The amount of token to exchange\n\t * @param fromDenominationName The origin denomination\n\t * @param toDenominationName The target denomination\n\t */\n\tfunction exchange(uint256 amount, bytes8 fromDenominationName, bytes8 toDenominationName) public isActive isValidDenomination(fromDenominationName) isValidDenomination(toDenominationName) {\n\t\trequire (amount > 0);\n\t\tDenomination memory _fromDenomination = denominations[denominationIndex[fromDenominationName]];\n\t\tDenomination memory _toDenomination = denominations[denominationIndex[toDenominationName]];\n\t\tAOToken _fromDenominationToken = AOToken(_fromDenomination.denominationAddress);\n\t\tAOToken _toDenominationToken = AOToken(_toDenomination.denominationAddress);\n\t\trequire (_fromDenominationToken.whitelistBurnFrom(msg.sender, amount));\n\t\trequire (_toDenominationToken.mintToken(msg.sender, amount));\n\t\temit Exchange(msg.sender, amount, fromDenominationName, toDenominationName);\n\t}\n\n\t/**\n\t * @dev Return the highest possible denomination given a base amount\n\t * @param amount The amount to be converted\n\t * @return the denomination short name\n\t * @return the denomination address\n\t * @return the integer amount at the denomination level\n\t * @return the fraction amount at the denomination level\n\t * @return the denomination public name\n\t * @return the denomination symbol\n\t * @return the denomination num of decimals\n\t * @return the denomination multiplier (power of ten)\n\t */\n\tfunction toHighestDenomination(uint256 amount) public view returns (bytes8, address, uint256, uint256, string, string, uint8, uint256) {\n\t\tuint256 integerAmount;\n\t\tuint256 fractionAmount;\n\t\tuint256 index;\n\t\tfor (uint256 i=totalDenominations; i>0; i--) {\n\t\t\tDenomination memory _denomination = denominations[i];\n\t\t\t(integerAmount, fractionAmount) = fromBase(amount, _denomination.name);\n\t\t\tif (integerAmount > 0) {\n\t\t\t\tindex = i;\n\t\t\t\tbreak;\n\t\t\t}\n\t\t}\n\t\trequire (index > 0 && index <= totalDenominations);\n\t\trequire (integerAmount > 0 || fractionAmount > 0);\n\t\trequire (denominations[index].denominationAddress != address(0));\n\t\tAOToken _ao = AOToken(denominations[index].denominationAddress);\n\t\treturn (\n\t\t\tdenominations[index].name,\n\t\t\tdenominations[index].denominationAddress,\n\t\t\tintegerAmount,\n\t\t\tfractionAmount,\n\t\t\t_ao.name(),\n\t\t\t_ao.symbol(),\n\t\t\t_ao.decimals(),\n\t\t\t_ao.powerOfTen()\n\t\t);\n\t}\n\n\t/***** Private functions *****/\n\t/**\n\t * @dev count num of digits\n\t * @param number uint256 of the nuumber to be checked\n\t * @return uint8 num of digits\n\t */\n\tfunction _numDigits(uint256 number) private pure returns (uint8) {\n\t\tuint8 digits = 0;\n\t\twhile(number != 0) {\n\t\t\tnumber = number.div(10);\n\t\t\tdigits++;\n\t\t}\n\t\treturn digits;\n\t}\n}\n",
	"sourcePath": "/home/jmulyono/ao-contracts/contracts/AOTreasury.sol",
	"compiler": {
		"name": "solc",
		"version": "0.4.24+commit.e67f0147.Emscripten.clang"
	},
	"schemaVersion": "2.0.1",
	"updatedAt": "2018-10-11T17:22:15.511Z"
}