{
	"contractName": "AOTreasury",
	"abi": [
		{
			"constant": false,
			"inputs": [
				{
					"name": "_account",
					"type": "address"
				},
				{
					"name": "_whitelist",
					"type": "bool"
				}
			],
			"name": "setWhitelist",
			"outputs": [],
			"payable": false,
			"stateMutability": "nonpayable",
			"type": "function"
		},
		{
			"constant": true,
			"inputs": [],
			"name": "totalDenominations",
			"outputs": [
				{
					"name": "",
					"type": "uint256"
				}
			],
			"payable": false,
			"stateMutability": "view",
			"type": "function"
		},
		{
			"constant": true,
			"inputs": [
				{
					"name": "",
					"type": "bytes8"
				}
			],
			"name": "denominationIndex",
			"outputs": [
				{
					"name": "",
					"type": "uint256"
				}
			],
			"payable": false,
			"stateMutability": "view",
			"type": "function"
		},
		{
			"constant": true,
			"inputs": [],
			"name": "owner",
			"outputs": [
				{
					"name": "",
					"type": "address"
				}
			],
			"payable": false,
			"stateMutability": "view",
			"type": "function"
		},
		{
			"constant": true,
			"inputs": [
				{
					"name": "",
					"type": "address"
				}
			],
			"name": "whitelist",
			"outputs": [
				{
					"name": "",
					"type": "bool"
				}
			],
			"payable": false,
			"stateMutability": "view",
			"type": "function"
		},
		{
			"constant": false,
			"inputs": [
				{
					"name": "newOwner",
					"type": "address"
				}
			],
			"name": "transferOwnership",
			"outputs": [],
			"payable": false,
			"stateMutability": "nonpayable",
			"type": "function"
		},
		{
			"inputs": [],
			"payable": false,
			"stateMutability": "nonpayable",
			"type": "constructor"
		},
		{
			"anonymous": false,
			"inputs": [
				{
					"indexed": true,
					"name": "account",
					"type": "address"
				},
				{
					"indexed": false,
					"name": "amount",
					"type": "uint256"
				},
				{
					"indexed": false,
					"name": "fromDenominationName",
					"type": "bytes8"
				},
				{
					"indexed": false,
					"name": "toDenominationName",
					"type": "bytes8"
				}
			],
			"name": "Exchange",
			"type": "event"
		},
		{
			"constant": false,
			"inputs": [
				{
					"name": "denominationName",
					"type": "bytes8"
				},
				{
					"name": "denominationAddress",
					"type": "address"
				}
			],
			"name": "addDenomination",
			"outputs": [
				{
					"name": "",
					"type": "bool"
				}
			],
			"payable": false,
			"stateMutability": "nonpayable",
			"type": "function"
		},
		{
			"constant": false,
			"inputs": [
				{
					"name": "denominationName",
					"type": "bytes8"
				},
				{
					"name": "denominationAddress",
					"type": "address"
				},
				{
					"name": "active",
					"type": "bool"
				}
			],
			"name": "updateDenomination",
			"outputs": [
				{
					"name": "",
					"type": "bool"
				}
			],
			"payable": false,
			"stateMutability": "nonpayable",
			"type": "function"
		},
		{
			"constant": true,
			"inputs": [
				{
					"name": "denominationName",
					"type": "bytes8"
				}
			],
			"name": "getDenomination",
			"outputs": [
				{
					"name": "",
					"type": "address"
				},
				{
					"name": "",
					"type": "bool"
				}
			],
			"payable": false,
			"stateMutability": "view",
			"type": "function"
		},
		{
			"constant": true,
			"inputs": [],
			"name": "getBaseDenomination",
			"outputs": [
				{
					"name": "",
					"type": "bytes8"
				},
				{
					"name": "",
					"type": "address"
				},
				{
					"name": "",
					"type": "bool"
				}
			],
			"payable": false,
			"stateMutability": "view",
			"type": "function"
		},
		{
			"constant": true,
			"inputs": [
				{
					"name": "_account",
					"type": "address"
				}
			],
			"name": "totalNetworkBalanceOf",
			"outputs": [
				{
					"name": "",
					"type": "uint256"
				}
			],
			"payable": false,
			"stateMutability": "view",
			"type": "function"
		},
		{
			"constant": true,
			"inputs": [
				{
					"name": "_account",
					"type": "address"
				}
			],
			"name": "totalNetworkStakedBalanceOf",
			"outputs": [
				{
					"name": "",
					"type": "uint256"
				}
			],
			"payable": false,
			"stateMutability": "view",
			"type": "function"
		},
		{
			"constant": true,
			"inputs": [
				{
					"name": "_account",
					"type": "address"
				}
			],
			"name": "totalPrimordialBalanceOf",
			"outputs": [
				{
					"name": "",
					"type": "uint256"
				}
			],
			"payable": false,
			"stateMutability": "view",
			"type": "function"
		},
		{
			"constant": true,
			"inputs": [
				{
					"name": "_account",
					"type": "address"
				},
				{
					"name": "_weightedIndex",
					"type": "uint256"
				}
			],
			"name": "totalPrimordialStakedBalanceOf",
			"outputs": [
				{
					"name": "",
					"type": "uint256"
				}
			],
			"payable": false,
			"stateMutability": "view",
			"type": "function"
		},
		{
			"constant": true,
			"inputs": [
				{
					"name": "sender",
					"type": "address"
				},
				{
					"name": "integerAmount",
					"type": "uint256"
				},
				{
					"name": "fractionAmount",
					"type": "uint256"
				},
				{
					"name": "denominationName",
					"type": "bytes8"
				}
			],
			"name": "determinePayment",
			"outputs": [
				{
					"name": "",
					"type": "address[]"
				},
				{
					"name": "",
					"type": "uint256[]"
				}
			],
			"payable": false,
			"stateMutability": "view",
			"type": "function"
		},
		{
			"constant": true,
			"inputs": [
				{
					"name": "sender",
					"type": "address"
				},
				{
					"name": "integerAmount",
					"type": "uint256"
				},
				{
					"name": "fractionAmount",
					"type": "uint256"
				},
				{
					"name": "denominationName",
					"type": "bytes8"
				}
			],
			"name": "determineUnstake",
			"outputs": [
				{
					"name": "",
					"type": "address[]"
				},
				{
					"name": "",
					"type": "uint256[]"
				}
			],
			"payable": false,
			"stateMutability": "view",
			"type": "function"
		},
		{
			"constant": true,
			"inputs": [
				{
					"name": "integerAmount",
					"type": "uint256"
				},
				{
					"name": "fractionAmount",
					"type": "uint256"
				},
				{
					"name": "denominationName",
					"type": "bytes8"
				}
			],
			"name": "toBase",
			"outputs": [
				{
					"name": "",
					"type": "uint256"
				}
			],
			"payable": false,
			"stateMutability": "view",
			"type": "function"
		},
		{
			"constant": true,
			"inputs": [
				{
					"name": "integerAmount",
					"type": "uint256"
				},
				{
					"name": "denominationName",
					"type": "bytes8"
				}
			],
			"name": "fromBase",
			"outputs": [
				{
					"name": "",
					"type": "uint256"
				},
				{
					"name": "",
					"type": "uint256"
				}
			],
			"payable": false,
			"stateMutability": "view",
			"type": "function"
		},
		{
			"constant": false,
			"inputs": [
				{
					"name": "amount",
					"type": "uint256"
				},
				{
					"name": "fromDenominationName",
					"type": "bytes8"
				},
				{
					"name": "toDenominationName",
					"type": "bytes8"
				}
			],
			"name": "exchange",
			"outputs": [],
			"payable": false,
			"stateMutability": "nonpayable",
			"type": "function"
		}
	],
	"bytecode": "0x608060405234801561001057600080fd5b5060008054600160a060020a03191633179055611e71806100326000396000f3006080604052600436106100ed5763ffffffff60e060020a6000350416630db460bc81146100f2578063217db8e8146101bf578063451659d9146101f957806346eac6ff14610226578063492611431461024a57806353d6fd591461027e5780635768f84d146102a45780635ba6ff10146102b957806367f13388146102fe57806377950cd8146103205780637c543c3a146103415780638da5cb5b146103885780639b19251a146103b9578063a46a891e146103da578063c1e5277514610418578063dc689d3c14610446578063ec9990331461048e578063f2fde38b146104af578063f9ec974e146104d0575b600080fd5b3480156100fe57600080fd5b50610126600160a060020a0360043516602435604435600160c060020a0319606435166104f1565b604051808060200180602001838103835285818151815260200191508051906020019060200280838360005b8381101561016a578181015183820152602001610152565b50505050905001838103825284818151815260200191508051906020019060200280838360005b838110156101a9578181015183820152602001610191565b5050505090500194505050505060405180910390f35b3480156101cb57600080fd5b506101e7600435602435600160c060020a031960443516610802565b60408051918252519081900360200190f35b34801561020557600080fd5b50610224600435600160c060020a031960243581169060443516610a85565b005b34801561023257600080fd5b506101e7600160a060020a0360043516602435610e90565b34801561025657600080fd5b50610126600160a060020a0360043516602435604435600160c060020a031960643516610f36565b34801561028a57600080fd5b50610224600160a060020a036004351660243515156111f1565b3480156102b057600080fd5b506101e7611233565b3480156102c557600080fd5b506102db600160c060020a031960043516611239565b60408051600160a060020a03909316835290151560208301528051918290030190f35b34801561030a57600080fd5b506101e7600160c060020a0319600435166112db565b34801561032c57600080fd5b506101e7600160a060020a03600435166112ed565b34801561034d57600080fd5b50610374600160c060020a031960043516600160a060020a036024351660443515156113cb565b604080519115158252519081900360200190f35b34801561039457600080fd5b5061039d611721565b60408051600160a060020a039092168252519081900360200190f35b3480156103c557600080fd5b50610374600160a060020a0360043516611730565b3480156103e657600080fd5b506103ff600435600160c060020a031960243516611745565b6040805192835260208301919091528051918290030190f35b34801561042457600080fd5b50610374600160c060020a031960043516600160a060020a0360243516611942565b34801561045257600080fd5b5061045b611b7d565b60408051600160c060020a03199094168452600160a060020a039092166020840152151582820152519081900360600190f35b34801561049a57600080fd5b506101e7600160a060020a0360043516611c1c565b3480156104bb57600080fd5b50610224600160a060020a0360043516611cb9565b3480156104dc57600080fd5b506101e7600160a060020a0360043516611cff565b6060806000806060806000610504611e25565b600160c060020a031989166000908152600360205260408120548a90821080156105605750600160c060020a031981166000908152600360209081526040808320548352600290915290205460e060020a900460ff1615156001145b151561056b57600080fd5b6105768d8d8d610802565b9750876105828f611cff565b101561058d57600080fd5b6004546040519080825280602002602001820160405280156105b9578160200160208202803883390190505b5095506004546040519080825280602002602001820160405280156105e8578160200160208202803883390190505b50945060008811156107e65760045493505b60008411156107e6576000848152600260209081526040918290208251606081018452905460c060020a8102600160c060020a0319168252680100000000000000008104600160a060020a03169282019290925260e060020a90910460ff1615159181018290529350600114156107ce578260200151600160a060020a031663602172678f6040518263ffffffff1660e060020a0281526004018082600160a060020a0316600160a060020a03168152602001915050602060405180830381600087803b1580156106ca57600080fd5b505af11580156106de573d6000803e3d6000fd5b505050506040513d60208110156106f457600080fd5b5051915060008211156107ce5787821061075e576020830151865160009998508790600019870190811061072457fe5b600160a060020a03909216602092830290910190910152845187908690600019870190811061074f57fe5b602090810290910101526107e6565b61076e878363ffffffff611d9d16565b9650610780888363ffffffff611db016565b97508260200151866001860381518110151561079857fe5b600160a060020a0390921660209283029091019091015284518290869060001987019081106107c357fe5b602090810290910101525b8715156107da576107e6565b600019909301926105fa565b87156107ee57fe5b50939c929b50919950505050505050505050565b600061080c611e25565b600160c060020a031983166000908152600360205260408120548190819086908210801561086c5750600160c060020a031981166000908152600360209081526040808320548352600290915290205460e060020a900460ff1615156001145b151561087757600080fd5b600160c060020a0319878116600090815260036020908152604080832054835260028252918290208251606081018452905460c060020a81029094168152680100000000000000008404600160a060020a031691810182905260e060020a90930460ff1615159183019190915290955093506108f288611dc2565b925083600160a060020a031663313ce5676040518163ffffffff1660e060020a028152600401602060405180830381600087803b15801561093257600080fd5b505af1158015610946573d6000803e3d6000fd5b505050506040513d602081101561095c57600080fd5b505160ff908116908416111561097157600080fd5b6109ee84600160a060020a0316630aa245466040518163ffffffff1660e060020a028152600401602060405180830381600087803b1580156109b257600080fd5b505af11580156109c6573d6000803e3d6000fd5b505050506040513d60208110156109dc57600080fd5b50518a90600a0a63ffffffff611de716565b915083600160a060020a031663313ce5676040518163ffffffff1660e060020a028152600401602060405180830381600087803b158015610a2e57600080fd5b505af1158015610a42573d6000803e3d6000fd5b505050506040513d6020811015610a5857600080fd5b505160ff161515610a6857600097505b610a78828963ffffffff611d9d16565b9998505050505050505050565b610a8d611e25565b610a95611e25565b600160c060020a031984166000908152600360205260408120548190869082108015610af35750600160c060020a031981166000908152600360209081526040808320548352600290915290205460e060020a900460ff1615156001145b1515610afe57600080fd5b600160c060020a031986166000908152600360205260408120548791108015610b595750600160c060020a031981166000908152600360209081526040808320548352600290915290205460e060020a900460ff1615156001145b1515610b6457600080fd5b60008911610b7157600080fd5b60026000600360008b600160c060020a031916600160c060020a0319168152602001908152602001600020548152602001908152602001600020606060405190810160405290816000820160009054906101000a900460c060020a02600160c060020a031916600160c060020a03191681526020016000820160089054906101000a9004600160a060020a0316600160a060020a0316600160a060020a0316815260200160008201601c9054906101000a900460ff161515151581525050955060026000600360008a600160c060020a031916600160c060020a0319168152602001908152602001600020548152602001908152602001600020606060405190810160405290816000820160009054906101000a900460c060020a02600160c060020a031916600160c060020a03191681526020016000820160089054906101000a9004600160a060020a0316600160a060020a0316600160a060020a0316815260200160008201601c9054906101000a900460ff1615151515815250509450856020015193508460200151925083600160a060020a031663b1e19d45338b6040518363ffffffff1660e060020a0281526004018083600160a060020a0316600160a060020a0316815260200182815260200192505050602060405180830381600087803b158015610d6257600080fd5b505af1158015610d76573d6000803e3d6000fd5b505050506040513d6020811015610d8c57600080fd5b50511515610d9957600080fd5b604080517f79c65068000000000000000000000000000000000000000000000000000000008152336004820152602481018b90529051600160a060020a038516916379c650689160448083019260209291908290030181600087803b158015610e0157600080fd5b505af1158015610e15573d6000803e3d6000fd5b505050506040513d6020811015610e2b57600080fd5b50511515610e3857600080fd5b604080518a8152600160c060020a0319808b166020830152891681830152905133917fa9cd29186ae896a4a77376f8eb52122c28b2ee10c2271abebe96135f33d0aee7919081900360600190a2505050505050505050565b600080610e9b611b7d565b5091505080600160a060020a031663bde3401b85856040518363ffffffff1660e060020a0281526004018083600160a060020a0316600160a060020a0316815260200182815260200192505050602060405180830381600087803b158015610f0257600080fd5b505af1158015610f16573d6000803e3d6000fd5b505050506040513d6020811015610f2c57600080fd5b5051949350505050565b6060806000806060806000610f49611e25565b600160c060020a031989166000908152600360205260408120548a9082108015610fa55750600160c060020a031981166000908152600360209081526040808320548352600290915290205460e060020a900460ff1615156001145b1515610fb057600080fd5b610fbb8d8d8d610802565b975087610fc78f6112ed565b1015610fd257600080fd5b600454604051908082528060200260200182016040528015610ffe578160200160208202803883390190505b50955060045460405190808252806020026020018201604052801561102d578160200160208202803883390190505b50945060008811156107e65760045493505b60008411156107e6576000848152600260209081526040918290208251606081018452905460c060020a8102600160c060020a0319168252680100000000000000008104600160a060020a03169282019290925260e060020a90910460ff1615159181018290529350600114156111d9578260200151600160a060020a03166370a082318f6040518263ffffffff1660e060020a0281526004018082600160a060020a0316600160a060020a03168152602001915050602060405180830381600087803b15801561110f57600080fd5b505af1158015611123573d6000803e3d6000fd5b505050506040513d602081101561113957600080fd5b5051915060008211156111d957878210611169576020830151865160009998508790600019870190811061072457fe5b611179878363ffffffff611d9d16565b965061118b888363ffffffff611db016565b9750826020015186600186038151811015156111a357fe5b600160a060020a0390921660209283029091019091015284518290869060001987019081106111ce57fe5b602090810290910101525b8715156111e5576107e6565b6000199093019261103f565b600054600160a060020a0316331461120857600080fd5b600160a060020a03919091166000908152600160205260409020805460ff1916911515919091179055565b60045481565b600080611244611e25565b600160c060020a031984166000908152600360205260408120541161126857600080fd5b505050600160c060020a0319908116600090815260036020908152604080832054835260028252918290208251606081018452905460c060020a81029094168152680100000000000000008404600160a060020a031691810182905260e060020a90930460ff1615159290910182905291565b60036020526000908152604090205481565b60008060015b60045481116113c45760008181526002602090815260408083205481517f70a08231000000000000000000000000000000000000000000000000000000008152600160a060020a03898116600483015292516113ba9568010000000000000000909304909316936370a082319360248084019492939192918390030190829087803b15801561138157600080fd5b505af1158015611395573d6000803e3d6000fd5b505050506040513d60208110156113ab57600080fd5b5051839063ffffffff611d9d16565b91506001016112f3565b5092915050565b6000805481908190819081908190600160a060020a031633146113ed57600080fd5b600160c060020a031989166000908152600360205260408120541161141157600080fd5b600160a060020a038816151561142657600080fd5b600160c060020a0319891660009081526003602052604090205494508793506001851115611562576002600060018703815260200190815260200160002060000160089054906101000a9004600160a060020a0316925082600160a060020a0316630aa245466040518163ffffffff1660e060020a028152600401602060405180830381600087803b1580156114bb57600080fd5b505af11580156114cf573d6000803e3d6000fd5b505050506040513d60208110156114e557600080fd5b50516040805160e160020a63055122a30281529051600160a060020a03871691630aa245469160048083019260209291908290030181600087803b15801561152c57600080fd5b505af1158015611540573d6000803e3d6000fd5b505050506040513d602081101561155657600080fd5b50511161156257600080fd5b60045485101561167f5760026000600454815260200190815260200160002060000160089054906101000a9004600160a060020a0316915081600160a060020a0316630aa245466040518163ffffffff1660e060020a028152600401602060405180830381600087803b1580156115d857600080fd5b505af11580156115ec573d6000803e3d6000fd5b505050506040513d602081101561160257600080fd5b50516040805160e160020a63055122a30281529051600160a060020a03871691630aa245469160048083019260209291908290030181600087803b15801561164957600080fd5b505af115801561165d573d6000803e3d6000fd5b505050506040513d602081101561167357600080fd5b50511061167f57600080fd5b50600160c060020a03198816600090815260036020908152604080832054835260029091529020805487151560e060020a027cff0000000000000000000000000000000000000000000000000000000019600160a060020a038b1668010000000000000000027bffffffffffffffffffffffffffffffffffffffff00000000000000001990931692909217919091161781556001955050505050509392505050565b600054600160a060020a031681565b60016020526000908152604090205460ff1681565b600080611750611e25565b600160c060020a03198416600090815260036020526040812054819081908790821080156117b05750600160c060020a031981166000908152600360209081526040808320548352600290915290205460e060020a900460ff1615156001145b15156117bb57600080fd5b600160c060020a03198881166000908152600360209081526040808320548352600282528083208151606081018352905460c060020a81029095168152680100000000000000008504600160a060020a031681840181905260e060020a90950460ff16151581830152815160e160020a63055122a302815291519099509397506118a3938893630aa2454693600480850194919392918390030190829087803b15801561186757600080fd5b505af115801561187b573d6000803e3d6000fd5b505050506040513d602081101561189157600080fd5b50518a90600a0a63ffffffff611e1016565b925061193261192585600160a060020a0316630aa245466040518163ffffffff1660e060020a028152600401602060405180830381600087803b1580156118e957600080fd5b505af11580156118fd573d6000803e3d6000fd5b505050506040513d602081101561191357600080fd5b50518590600a0a63ffffffff611de716565b8a9063ffffffff611db016565b9299929850919650505050505050565b60008054819081908190600160a060020a0316331461196057600080fd5b600160a060020a038516151561197557600080fd5b600160c060020a031986166000908152600360205260409020541561199957600080fd5b600480546001908101918290551015611ac55760026000600160045403815260200190815260200160002060000160089054906101000a9004600160a060020a0316925084915082600160a060020a0316630aa245466040518163ffffffff1660e060020a028152600401602060405180830381600087803b158015611a1e57600080fd5b505af1158015611a32573d6000803e3d6000fd5b505050506040513d6020811015611a4857600080fd5b50516040805160e160020a63055122a30281529051600160a060020a03851691630aa245469160048083019260209291908290030181600087803b158015611a8f57600080fd5b505af1158015611aa3573d6000803e3d6000fd5b505050506040513d6020811015611ab957600080fd5b505111611ac557600080fd5b5060048054600090815260026020908152604080832080547cff0000000000000000000000000000000000000000000000000000000019600160a060020a038b1668010000000000000000027bffffffffffffffffffffffffffffffffffffffff00000000000000001960c060020a8e0467ffffffffffffffff199094169390931792909216919091171660e060020a1781559354600160c060020a03198a1684526003909252909120556001935050505092915050565b6000806000611b8a611e25565b600454600110611b9957600080fd5b50506001600052505060026020908152604080516060810182527fe90b7bceb6e7df5418fb78d8ee546e97c83a08bbccc01a0644d599ccd2a7c2e05460c060020a8102600160c060020a031916808352680100000000000000008204600160a060020a031694830185905260e060020a90910460ff161515919092018190529092565b600080611c27611b7d565b5091505080600160a060020a03166356d30181846040518263ffffffff1660e060020a0281526004018082600160a060020a0316600160a060020a03168152602001915050602060405180830381600087803b158015611c8657600080fd5b505af1158015611c9a573d6000803e3d6000fd5b505050506040513d6020811015611cb057600080fd5b50519392505050565b600054600160a060020a03163314611cd057600080fd5b6000805473ffffffffffffffffffffffffffffffffffffffff1916600160a060020a0392909216919091179055565b60008060015b60045481116113c45760008181526002602090815260408083205481517f60217267000000000000000000000000000000000000000000000000000000008152600160a060020a0389811660048301529251611d9395680100000000000000009093049093169363602172679360248084019492939192918390030190829087803b15801561138157600080fd5b9150600101611d05565b81810182811015611daa57fe5b92915050565b600082821115611dbc57fe5b50900390565b6000805b8215611daa57611ddd83600a63ffffffff611e1016565b9250600101611dc6565b6000821515611df857506000611daa565b50818102818382811515611e0857fe5b0414611daa57fe5b60008183811515611e1d57fe5b049392505050565b6040805160608101825260008082526020820181905291810191909152905600a165627a7a72305820d50736c8bb33a6d456b4201f8a45f103158d81e0acef6ce923fe7cb3169a13190029",
	"source": "pragma solidity ^0.4.24;\n\nimport './SafeMath.sol';\nimport './owned.sol';\nimport './AOToken.sol';\n\n/**\n * @title AOTreasury\n *\n * The purpose of this contract is to list all of the valid denominations of AO Token and do the conversion between denominations\n */\ncontract AOTreasury is owned {\n\tusing SafeMath for uint256;\n\n\tstruct Denomination {\n\t\tbytes8 name;\n\t\taddress denominationAddress;\n\t\tbool active;\n\t}\n\n\t// Mapping from denomination index to the Denomination object\n\t// The list is in order from lowest denomination to highest denomination\n\t// i.e, denominations[1] is the base denomination\n\tmapping (uint256 => Denomination) private denominations;\n\n\t// Mapping from denomination ID to index of denominations\n\tmapping (bytes8 => uint256) public denominationIndex;\n\n\tuint256 public totalDenominations;\n\n\t// Event to be broadcasted to public when a token exchange happens\n\tevent Exchange(address indexed account, uint256 amount, bytes8 fromDenominationName, bytes8 toDenominationName);\n\n\t/**\n\t * @dev Constructor function\n\t */\n\tconstructor() public {}\n\n\tmodifier isValidDenomination(bytes8 denominationName) {\n\t\trequire (denominationIndex[denominationName] > 0 && denominations[denominationIndex[denominationName]].active == true);\n\t\t_;\n\t}\n\n\t/***** OWNER ONLY METHODS *****/\n\t/**\n\t * @dev Owner adds denomination and the contract address associated with it\n\t * @param denominationName The name of the denomination, i.e ao, kilo, mega, etc.\n\t * @param denominationAddress The address of the denomination token\n\t * @return true on success\n\t */\n\tfunction addDenomination(bytes8 denominationName, address denominationAddress) public onlyOwner returns (bool) {\n\t\trequire (denominationName.length != 0);\n\t\trequire (denominationAddress != address(0));\n\t\trequire (denominationIndex[denominationName] == 0);\n\t\ttotalDenominations++;\n\t\t// Make sure the new denomination is higher than the previous\n\t\tif (totalDenominations > 1) {\n\t\t\tAOToken _lastDenominationToken = AOToken(denominations[totalDenominations - 1].denominationAddress);\n\t\t\tAOToken _newDenominationToken = AOToken(denominationAddress);\n\t\t\trequire (_newDenominationToken.powerOfTen() > _lastDenominationToken.powerOfTen());\n\t\t}\n\t\tDenomination storage _denomination = denominations[totalDenominations];\n\t\t_denomination.name = denominationName;\n\t\t_denomination.denominationAddress = denominationAddress;\n\t\t_denomination.active = true;\n\t\tdenominationIndex[denominationName] = totalDenominations;\n\t\treturn true;\n\t}\n\n\t/**\n\t * @dev Owner updates denomination address or activates/deactivates the denomination\n\t * @param denominationName The name of the denomination, i.e ao, kilo, mega, etc.\n\t * @param denominationAddress The address of the denomination token\n\t * @param active Either to activate/deactivate\n\t * @return true on success\n\t */\n\tfunction updateDenomination(bytes8 denominationName, address denominationAddress, bool active) public onlyOwner returns (bool) {\n\t\trequire (denominationName.length != 0);\n\t\trequire (denominationIndex[denominationName] > 0);\n\t\trequire (denominationAddress != address(0));\n\t\tuint256 _denominationNameIndex = denominationIndex[denominationName];\n\t\tAOToken _newDenominationToken = AOToken(denominationAddress);\n\t\tif (_denominationNameIndex > 1) {\n\t\t\tAOToken _prevDenominationToken = AOToken(denominations[_denominationNameIndex - 1].denominationAddress);\n\t\t\trequire (_newDenominationToken.powerOfTen() > _prevDenominationToken.powerOfTen());\n\t\t}\n\t\tif (_denominationNameIndex < totalDenominations) {\n\t\t\tAOToken _lastDenominationToken = AOToken(denominations[totalDenominations].denominationAddress);\n\t\t\trequire (_newDenominationToken.powerOfTen() < _lastDenominationToken.powerOfTen());\n\t\t}\n\t\tDenomination storage _denomination = denominations[denominationIndex[denominationName]];\n\t\t_denomination.denominationAddress = denominationAddress;\n\t\t_denomination.active = active;\n\t\treturn true;\n\t}\n\n\t/***** PUBLIC METHODS *****/\n\t/**\n\t * @dev Get denomination info based on name\n\t * @param denominationName The name to be queried\n\t * @return address of the denomination\n\t * @return current status of the denomination (active/inactive)\n\t */\n\tfunction getDenomination(bytes8 denominationName) public view returns (address, bool) {\n\t\trequire (denominationName.length != 0);\n\t\trequire (denominationIndex[denominationName] > 0);\n\t\tDenomination memory _denomination = denominations[denominationIndex[denominationName]];\n\t\treturn (_denomination.denominationAddress, _denomination.active);\n\t}\n\n\t/**\n\t * @dev Get base denomination info\n\t * @return name of the denomination\n\t * @return address of the denomination\n\t * @return current status of the denomination (active/inactive)\n\t */\n\tfunction getBaseDenomination() public view returns (bytes8, address, bool) {\n\t\trequire (totalDenominations > 1);\n\t\tDenomination memory _denomination = denominations[1];\n\t\treturn (_denomination.name, _denomination.denominationAddress, _denomination.active);\n\t}\n\n\t/**\n\t * @dev Return sum of account's total network balance from every denominations in base denomination\n\t * @param _account The address to be check\n\t * @return The total balance in base denomination\n\t */\n\tfunction totalNetworkBalanceOf(address _account) public view returns (uint256) {\n\t\tuint256 totalBalance = 0;\n\t\tfor (uint256 i=1; i <= totalDenominations; i++) {\n\t\t\ttotalBalance = totalBalance.add(AOToken(denominations[i].denominationAddress).balanceOf(_account));\n\t\t}\n\t\treturn totalBalance;\n\t}\n\n\t/**\n\t * @dev Return sum of account's total staked network balance from every denominations in base denomination\n\t * @param _account The address to be check\n\t * @return The total staked balance in base denomination\n\t */\n\tfunction totalNetworkStakedBalanceOf(address _account) public view returns (uint256) {\n\t\tuint256 totalStakedBalance = 0;\n\t\tfor (uint256 i=1; i <= totalDenominations; i++) {\n\t\t\ttotalStakedBalance = totalStakedBalance.add(AOToken(denominations[i].denominationAddress).stakedBalance(_account));\n\t\t}\n\t\treturn totalStakedBalance;\n\t}\n\n\t/**\n\t * @dev Return account's total primordial token balance\n\t * @param _account The address to be check\n\t * @return The total primordial balance\n\t */\n\tfunction totalPrimordialBalanceOf(address _account) public view returns (uint256) {\n\t\t(, address baseDenominationAddress, ) = getBaseDenomination();\n\t\treturn AOToken(baseDenominationAddress).icoBalanceOf(_account);\n\t}\n\n\t/**\n\t * @dev Return account's total primordial staked token balance at weighted index\n\t * @param _account The address to be check\n\t * @param _weightedIndex The weighted index of the primordial token\n\t * @return The total primordial staked balance\n\t */\n\tfunction totalPrimordialStakedBalanceOf(address _account, uint256 _weightedIndex) public view returns (uint256) {\n\t\t(, address baseDenominationAddress, ) = getBaseDenomination();\n\t\treturn AOToken(baseDenominationAddress).icoStakedBalance(_account, _weightedIndex);\n\t}\n\n\t/**\n\t * @dev Given `integerAmount` and `fractionAmount` price at `denominationName`, return list of denominations and the amount to pay the price with\n\t * @param sender The sender address\n\t * @param integerAmount The integer amount of the price\n\t * @param fractionAmount The fraction amount of the price\n\t * @param denominationName The denomination name of the price\n\t * @return A list of denomination addresses as payment\n\t * @return A list of denomination amounts for each denomination address payment\n\t */\n\tfunction determinePayment(address sender, uint256 integerAmount, uint256 fractionAmount, bytes8 denominationName) public isValidDenomination(denominationName) view returns (address[], uint256[]) {\n\t\tuint256 totalPrice = toBase(integerAmount, fractionAmount, denominationName);\n\t\tuint256 totalPayment;\n\t\trequire (totalNetworkBalanceOf(sender) >= totalPrice);\n\t\taddress[] memory denominationAddress = new address[](totalDenominations);\n\t\tuint256[] memory paymentAmount = new uint256[](totalDenominations);\n\n\t\tif (totalPrice > 0) {\n\t\t\tfor (uint256 i=totalDenominations; i>0; i--) {\n\t\t\t\tDenomination memory _denomination = denominations[i];\n\t\t\t\tif (_denomination.active == true) {\n\t\t\t\t\tuint256 tokenBalance = AOToken(_denomination.denominationAddress).balanceOf(sender);\n\t\t\t\t\tif (tokenBalance > 0) {\n\t\t\t\t\t\tif (tokenBalance >= totalPrice) {\n\t\t\t\t\t\t\ttotalPayment = totalPrice;\n\t\t\t\t\t\t\ttotalPrice = 0;\n\t\t\t\t\t\t\t// Since array index starts at 0, we need to subtract i with 1\n\t\t\t\t\t\t\tdenominationAddress[i-1] = _denomination.denominationAddress;\n\t\t\t\t\t\t\tpaymentAmount[i-1] = totalPayment;\n\t\t\t\t\t\t\tbreak;\n\t\t\t\t\t\t} else {\n\t\t\t\t\t\t\ttotalPayment = totalPayment.add(tokenBalance);\n\t\t\t\t\t\t\ttotalPrice = totalPrice.sub(tokenBalance);\n\t\t\t\t\t\t\t// Since array index starts at 0, we need to subtract i with 1\n\t\t\t\t\t\t\tdenominationAddress[i-1] = _denomination.denominationAddress;\n\t\t\t\t\t\t\tpaymentAmount[i-1] = tokenBalance;\n\t\t\t\t\t\t}\n\t\t\t\t\t}\n\t\t\t\t}\n\t\t\t\tif (totalPrice == 0) {\n\t\t\t\t\tbreak;\n\t\t\t\t}\n\t\t\t}\n\t\t}\n\t\tassert (totalPrice == 0);\n\t\treturn (denominationAddress, paymentAmount);\n\t}\n\n\t/**\n\t * @dev Given `integerAmount` and `fractionAmount` price at `denominationName`, return list of denominations and the amount to unstake the price with\n\t * @param sender The sender address\n\t * @param integerAmount The integer amount of the price\n\t * @param fractionAmount The fraction amount of the price\n\t * @param denominationName The denomination name of the price\n\t * @return A list of denomination addresses to unstake\n\t * @return A list of denomination amounts for each denomination address\n\t */\n\tfunction determineUnstake(address sender, uint256 integerAmount, uint256 fractionAmount, bytes8 denominationName) public isValidDenomination(denominationName) view returns (address[], uint256[]) {\n\t\tuint256 totalPrice = toBase(integerAmount, fractionAmount, denominationName);\n\t\tuint256 totalUnstake;\n\t\trequire (totalNetworkStakedBalanceOf(sender) >= totalPrice);\n\t\taddress[] memory denominationAddress = new address[](totalDenominations);\n\t\tuint256[] memory unstakeAmount = new uint256[](totalDenominations);\n\n\t\tif (totalPrice > 0) {\n\t\t\tfor (uint256 i=totalDenominations; i>0; i--) {\n\t\t\t\tDenomination memory _denomination = denominations[i];\n\t\t\t\tif (_denomination.active == true) {\n\t\t\t\t\tuint256 tokenStakedBalance = AOToken(_denomination.denominationAddress).stakedBalance(sender);\n\t\t\t\t\tif (tokenStakedBalance > 0) {\n\t\t\t\t\t\tif (tokenStakedBalance >= totalPrice) {\n\t\t\t\t\t\t\ttotalUnstake = totalPrice;\n\t\t\t\t\t\t\ttotalPrice = 0;\n\t\t\t\t\t\t\t// Since array index starts at 0, we need to subtract i with 1\n\t\t\t\t\t\t\tdenominationAddress[i-1] = _denomination.denominationAddress;\n\t\t\t\t\t\t\tunstakeAmount[i-1] = totalUnstake;\n\t\t\t\t\t\t\tbreak;\n\t\t\t\t\t\t} else {\n\t\t\t\t\t\t\ttotalUnstake = totalUnstake.add(tokenStakedBalance);\n\t\t\t\t\t\t\ttotalPrice = totalPrice.sub(tokenStakedBalance);\n\t\t\t\t\t\t\t// Since array index starts at 0, we need to subtract i with 1\n\t\t\t\t\t\t\tdenominationAddress[i-1] = _denomination.denominationAddress;\n\t\t\t\t\t\t\tunstakeAmount[i-1] = tokenStakedBalance;\n\t\t\t\t\t\t}\n\t\t\t\t\t}\n\t\t\t\t}\n\t\t\t\tif (totalPrice == 0) {\n\t\t\t\t\tbreak;\n\t\t\t\t}\n\t\t\t}\n\t\t}\n\t\tassert (totalPrice == 0);\n\t\treturn (denominationAddress, unstakeAmount);\n\t}\n\n\t/**\n\t * @dev convert token from `denominationName` denomination to base denomination,\n\t *\t\tin this case it's similar to web3.toWei() functionality\n\t *\n\t * Example:\n\t * 9.1 Kilo should be entered as 9 integerAmount and 100 fractionAmount\n\t * 9.02 Kilo should be entered as 9 integerAmount and 20 fractionAmount\n\t * 9.001 Kilo should be entered as 9 integerAmount and 1 fractionAmount\n\t *\n\t * @param integerAmount uint256 of the integer amount to be converted\n\t * @param fractionAmount uint256 of the frational amount to be converted\n\t * @param denominationName bytes8 name of the token denomination\n\t * @return uint256 converted amount in base denomination from target denomination\n\t */\n\tfunction toBase(uint256 integerAmount, uint256 fractionAmount, bytes8 denominationName) public isValidDenomination(denominationName) view returns (uint256) {\n\t\tDenomination memory _denomination = denominations[denominationIndex[denominationName]];\n\t\tAOToken _denominationToken = AOToken(_denomination.denominationAddress);\n\t\tuint8 fractionNumDigits = _numDigits(fractionAmount);\n\t\trequire (fractionNumDigits <= _denominationToken.decimals());\n\t\tuint256 baseInteger = integerAmount.mul(10 ** _denominationToken.powerOfTen());\n\t\tif (_denominationToken.decimals() == 0) {\n\t\t\tfractionAmount = 0;\n\t\t}\n\t\treturn baseInteger.add(fractionAmount);\n\t}\n\n\t/**\n\t * @dev convert token from base denomination to `denominationName` denomination,\n\t *\t\tin this case it's similar to web3.fromWei() functionality\n\t * @param integerAmount uint256 of the base amount to be converted\n\t * @param denominationName bytes8 name of the target token denomination\n\t * @return uint256 of the converted integer amount in target denomination\n\t * @return uint256 of the converted fraction amount in target denomination\n\t */\n\tfunction fromBase(uint256 integerAmount, bytes8 denominationName) public isValidDenomination(denominationName) view returns (uint256, uint256) {\n\t\tDenomination memory _denomination = denominations[denominationIndex[denominationName]];\n\t\tAOToken _denominationToken = AOToken(_denomination.denominationAddress);\n\t\tuint256 denominationInteger = integerAmount.div(10 ** _denominationToken.powerOfTen());\n\t\tuint256 denominationFraction = integerAmount.sub(denominationInteger.mul(10 ** _denominationToken.powerOfTen()));\n\t\treturn (denominationInteger, denominationFraction);\n\t}\n\n\t/**\n\t * @dev exchange `amount` token from `fromDenominationName` denomination to token in `toDenominationName` denomination\n\t * @param amount The amount of token to exchange\n\t * @param fromDenominationName The origin denomination\n\t * @param toDenominationName The target denomination\n\t */\n\tfunction exchange(uint256 amount, bytes8 fromDenominationName, bytes8 toDenominationName) public isValidDenomination(fromDenominationName) isValidDenomination(toDenominationName) {\n\t\trequire (amount > 0);\n\t\tDenomination memory _fromDenomination = denominations[denominationIndex[fromDenominationName]];\n\t\tDenomination memory _toDenomination = denominations[denominationIndex[toDenominationName]];\n\t\tAOToken _fromDenominationToken = AOToken(_fromDenomination.denominationAddress);\n\t\tAOToken _toDenominationToken = AOToken(_toDenomination.denominationAddress);\n\t\trequire (_fromDenominationToken.whitelistBurnFrom(msg.sender, amount));\n\t\trequire (_toDenominationToken.mintToken(msg.sender, amount));\n\t\temit Exchange(msg.sender, amount, fromDenominationName, toDenominationName);\n\t}\n\n\t/***** Private functions *****/\n\t/**\n\t * @dev count num of digits\n\t * @param number uint256 of the nuumber to be checked\n\t * @return uint8 num of digits\n\t */\n\tfunction _numDigits(uint256 number) private pure returns (uint8) {\n\t\tuint8 digits = 0;\n\t\twhile(number != 0) {\n\t\t\tnumber = number.div(10);\n\t\t\tdigits++;\n\t\t}\n\t\treturn digits;\n\t}\n}\n",
	"sourcePath": "/home/jmulyono/ao-contracts/contracts/AOTreasury.sol",
	"compiler": {
		"name": "solc",
		"version": "0.4.24+commit.e67f0147.Emscripten.clang"
	},
	"schemaVersion": "1.0.1",
	"updatedAt": "2018-08-06T14:39:08.754Z"
}