{
	"contractName": "AOTreasury",
	"abi": [
		{
			"constant": true,
			"inputs": [],
			"name": "killed",
			"outputs": [
				{
					"name": "",
					"type": "bool"
				}
			],
			"payable": false,
			"stateMutability": "view",
			"type": "function"
		},
		{
			"constant": true,
			"inputs": [],
			"name": "nameTAOPositionAddress",
			"outputs": [
				{
					"name": "",
					"type": "address"
				}
			],
			"payable": false,
			"stateMutability": "view",
			"type": "function"
		},
		{
			"constant": true,
			"inputs": [],
			"name": "totalDenominations",
			"outputs": [
				{
					"name": "",
					"type": "uint256"
				}
			],
			"payable": false,
			"stateMutability": "view",
			"type": "function"
		},
		{
			"constant": true,
			"inputs": [],
			"name": "paused",
			"outputs": [
				{
					"name": "",
					"type": "bool"
				}
			],
			"payable": false,
			"stateMutability": "view",
			"type": "function"
		},
		{
			"constant": true,
			"inputs": [
				{
					"name": "",
					"type": "address"
				}
			],
			"name": "whitelist",
			"outputs": [
				{
					"name": "",
					"type": "bool"
				}
			],
			"payable": false,
			"stateMutability": "view",
			"type": "function"
		},
		{
			"constant": true,
			"inputs": [],
			"name": "theAO",
			"outputs": [
				{
					"name": "",
					"type": "address"
				}
			],
			"payable": false,
			"stateMutability": "view",
			"type": "function"
		},
		{
			"inputs": [],
			"payable": false,
			"stateMutability": "nonpayable",
			"type": "constructor"
		},
		{
			"anonymous": false,
			"inputs": [
				{
					"indexed": true,
					"name": "account",
					"type": "address"
				},
				{
					"indexed": false,
					"name": "amount",
					"type": "uint256"
				},
				{
					"indexed": false,
					"name": "fromDenominationName",
					"type": "bytes8"
				},
				{
					"indexed": false,
					"name": "toDenominationName",
					"type": "bytes8"
				}
			],
			"name": "Exchange",
			"type": "event"
		},
		{
			"anonymous": false,
			"inputs": [],
			"name": "EscapeHatch",
			"type": "event"
		},
		{
			"constant": false,
			"inputs": [
				{
					"name": "_nameTAOPositionAddress",
					"type": "address"
				}
			],
			"name": "setNameTAOPositionAddress",
			"outputs": [],
			"payable": false,
			"stateMutability": "nonpayable",
			"type": "function"
		},
		{
			"constant": false,
			"inputs": [
				{
					"name": "_theAO",
					"type": "address"
				}
			],
			"name": "transferOwnership",
			"outputs": [],
			"payable": false,
			"stateMutability": "nonpayable",
			"type": "function"
		},
		{
			"constant": false,
			"inputs": [
				{
					"name": "_account",
					"type": "address"
				},
				{
					"name": "_whitelist",
					"type": "bool"
				}
			],
			"name": "setWhitelist",
			"outputs": [],
			"payable": false,
			"stateMutability": "nonpayable",
			"type": "function"
		},
		{
			"constant": false,
			"inputs": [
				{
					"name": "_paused",
					"type": "bool"
				}
			],
			"name": "setPaused",
			"outputs": [],
			"payable": false,
			"stateMutability": "nonpayable",
			"type": "function"
		},
		{
			"constant": false,
			"inputs": [],
			"name": "escapeHatch",
			"outputs": [],
			"payable": false,
			"stateMutability": "nonpayable",
			"type": "function"
		},
		{
			"constant": false,
			"inputs": [
				{
					"name": "denominationName",
					"type": "bytes8"
				},
				{
					"name": "denominationAddress",
					"type": "address"
				}
			],
			"name": "addDenomination",
			"outputs": [
				{
					"name": "",
					"type": "bool"
				}
			],
			"payable": false,
			"stateMutability": "nonpayable",
			"type": "function"
		},
		{
			"constant": false,
			"inputs": [
				{
					"name": "denominationName",
					"type": "bytes8"
				},
				{
					"name": "denominationAddress",
					"type": "address"
				}
			],
			"name": "updateDenomination",
			"outputs": [
				{
					"name": "",
					"type": "bool"
				}
			],
			"payable": false,
			"stateMutability": "nonpayable",
			"type": "function"
		},
		{
			"constant": true,
			"inputs": [
				{
					"name": "denominationName",
					"type": "bytes8"
				}
			],
			"name": "getDenominationByName",
			"outputs": [
				{
					"name": "",
					"type": "bytes8"
				},
				{
					"name": "",
					"type": "address"
				},
				{
					"name": "",
					"type": "string"
				},
				{
					"name": "",
					"type": "string"
				},
				{
					"name": "",
					"type": "uint8"
				},
				{
					"name": "",
					"type": "uint256"
				}
			],
			"payable": false,
			"stateMutability": "view",
			"type": "function"
		},
		{
			"constant": true,
			"inputs": [
				{
					"name": "index",
					"type": "uint256"
				}
			],
			"name": "getDenominationByIndex",
			"outputs": [
				{
					"name": "",
					"type": "bytes8"
				},
				{
					"name": "",
					"type": "address"
				},
				{
					"name": "",
					"type": "string"
				},
				{
					"name": "",
					"type": "string"
				},
				{
					"name": "",
					"type": "uint8"
				},
				{
					"name": "",
					"type": "uint256"
				}
			],
			"payable": false,
			"stateMutability": "view",
			"type": "function"
		},
		{
			"constant": true,
			"inputs": [],
			"name": "getBaseDenomination",
			"outputs": [
				{
					"name": "",
					"type": "bytes8"
				},
				{
					"name": "",
					"type": "address"
				},
				{
					"name": "",
					"type": "string"
				},
				{
					"name": "",
					"type": "string"
				},
				{
					"name": "",
					"type": "uint8"
				},
				{
					"name": "",
					"type": "uint256"
				}
			],
			"payable": false,
			"stateMutability": "view",
			"type": "function"
		},
		{
			"constant": true,
			"inputs": [
				{
					"name": "integerAmount",
					"type": "uint256"
				},
				{
					"name": "fractionAmount",
					"type": "uint256"
				},
				{
					"name": "denominationName",
					"type": "bytes8"
				}
			],
			"name": "toBase",
			"outputs": [
				{
					"name": "",
					"type": "uint256"
				}
			],
			"payable": false,
			"stateMutability": "view",
			"type": "function"
		},
		{
			"constant": true,
			"inputs": [
				{
					"name": "integerAmount",
					"type": "uint256"
				},
				{
					"name": "denominationName",
					"type": "bytes8"
				}
			],
			"name": "fromBase",
			"outputs": [
				{
					"name": "",
					"type": "uint256"
				},
				{
					"name": "",
					"type": "uint256"
				}
			],
			"payable": false,
			"stateMutability": "view",
			"type": "function"
		},
		{
			"constant": false,
			"inputs": [
				{
					"name": "amount",
					"type": "uint256"
				},
				{
					"name": "fromDenominationName",
					"type": "bytes8"
				},
				{
					"name": "toDenominationName",
					"type": "bytes8"
				}
			],
			"name": "exchange",
			"outputs": [],
			"payable": false,
			"stateMutability": "nonpayable",
			"type": "function"
		},
		{
			"constant": true,
			"inputs": [
				{
					"name": "amount",
					"type": "uint256"
				}
			],
			"name": "toHighestDenomination",
			"outputs": [
				{
					"name": "",
					"type": "bytes8"
				},
				{
					"name": "",
					"type": "address"
				},
				{
					"name": "",
					"type": "uint256"
				},
				{
					"name": "",
					"type": "uint256"
				},
				{
					"name": "",
					"type": "string"
				},
				{
					"name": "",
					"type": "string"
				},
				{
					"name": "",
					"type": "uint8"
				},
				{
					"name": "",
					"type": "uint256"
				}
			],
			"payable": false,
			"stateMutability": "view",
			"type": "function"
		}
	],
	"bytecode": "0x608060405234801561001057600080fd5b5060008054600160a060020a031916331790556122b0806100326000396000f3006080604052600436106100f85763ffffffff60e060020a6000350416631554611f81146100fd57806316c38b3c146101145780631f3a0e411461012e578063217db8e8146101575780633d9f923b14610191578063451659d9146101bf5780634ef033f0146101ea57806353d6fd591461021b5780635768f84d146102415780635c975abb146102565780635cfaf2ef1461026b5780635d9907911461028c578063932fd99f146103ca5780639b19251a14610516578063a46a891e14610537578063a9b6b38e14610575578063aa25c7441461058a578063c1e52775146105ac578063dc689d3c146105da578063f2fde38b146105ef575b600080fd5b34801561010957600080fd5b50610112610610565b005b34801561012057600080fd5b506101126004351515610708565b34801561013a57600080fd5b506101436107c4565b604080519115158252519081900360200190f35b34801561016357600080fd5b5061017f600435602435600160c060020a0319604435166107d2565b60408051918252519081900360200190f35b34801561019d57600080fd5b50610143600160c060020a031960043516600160a060020a0360243516610a55565b3480156101cb57600080fd5b50610112600435600160c060020a031960243581169060443516610df4565b3480156101f657600080fd5b506101ff6111f5565b60408051600160a060020a039092168252519081900360200190f35b34801561022757600080fd5b50610112600160a060020a03600435166024351515611204565b34801561024d57600080fd5b5061017f6112ed565b34801561026257600080fd5b506101436112f3565b34801561027757600080fd5b50610112600160a060020a03600435166112fc565b34801561029857600080fd5b506102a46004356113e9565b6040518087600160c060020a031916600160c060020a031916815260200186600160a060020a0316600160a060020a0316815260200180602001806020018560ff1660ff168152602001848152602001838103835287818151815260200191508051906020019080838360005b83811015610329578181015183820152602001610311565b50505050905090810190601f1680156103565780820380516001836020036101000a031916815260200191505b50838103825286518152865160209182019188019080838360005b83811015610389578181015183820152602001610371565b50505050905090810190601f1680156103b65780820380516001836020036101000a031916815260200191505b509850505050505050505060405180910390f35b3480156103d657600080fd5b506103e26004356116f8565b6040518089600160c060020a031916600160c060020a031916815260200188600160a060020a0316600160a060020a0316815260200187815260200186815260200180602001806020018560ff1660ff168152602001848152602001838103835287818151815260200191508051906020019080838360005b8381101561047357818101518382015260200161045b565b50505050905090810190601f1680156104a05780820380516001836020036101000a031916815260200191505b50838103825286518152865160209182019188019080838360005b838110156104d35781810151838201526020016104bb565b50505050905090810190601f1680156105005780820380516001836020036101000a031916815260200191505b509a505050505050505050505060405180910390f35b34801561052257600080fd5b50610143600160a060020a0360043516611b12565b34801561054357600080fd5b5061055c600435600160c060020a031960243516611b27565b6040805192835260208301919091528051918290030190f35b34801561058157600080fd5b506101ff611d0e565b34801561059657600080fd5b506102a4600160c060020a031960043516611d1d565b3480156105b857600080fd5b50610143600160c060020a031960043516600160a060020a0360243516611e1f565b3480156105e657600080fd5b506102a46120c1565b3480156105fb57600080fd5b50610112600160a060020a03600435166120f8565b6000546001546040805160e260020a633d9abf2b028152336004820152600160a060020a0393841660248201529290911660448301525173__AOLibrary_____________________________9163f66afcac916064808301926020929190829003018186803b15801561068257600080fd5b505af4158015610696573d6000803e3d6000fd5b505050506040513d60208110156106ac57600080fd5b505115156106b957600080fd5b600354610100900460ff16156106ce57600080fd5b6003805461ff0019166101001790556040517f16ed36fbe43aed6ba7426b24d35620696380d398f2f22f918dd74e4d3e0ceef990600090a1565b6000546001546040805160e260020a633d9abf2b028152336004820152600160a060020a0393841660248201529290911660448301525173__AOLibrary_____________________________9163f66afcac916064808301926020929190829003018186803b15801561077a57600080fd5b505af415801561078e573d6000803e3d6000fd5b505050506040513d60208110156107a457600080fd5b505115156107b157600080fd5b6003805460ff1916911515919091179055565b600354610100900460ff1681565b60006107dc61226d565b60008080600160c060020a0319861660009081526005602052604081205411801561083c5750600160c060020a0319861660009081526005602090815260408083205483526004909152902054604060020a9004600160a060020a031615155b8015610852575060008811806108525750600087115b15610a4557600160c060020a03198681166000908152600560209081526040808320548352600482529182902082518084019093525460c060020a81029093168252604060020a909204600160a060020a0316918101829052945092506108b8876121e5565b915082600160a060020a031663313ce5676040518163ffffffff1660e060020a028152600401602060405180830381600087803b1580156108f857600080fd5b505af115801561090c573d6000803e3d6000fd5b505050506040513d602081101561092257600080fd5b505160ff908116908316111561093757600080fd5b6109b483600160a060020a0316630aa245466040518163ffffffff1660e060020a028152600401602060405180830381600087803b15801561097857600080fd5b505af115801561098c573d6000803e3d6000fd5b505050506040513d60208110156109a257600080fd5b50518990600a0a63ffffffff61221016565b905082600160a060020a031663313ce5676040518163ffffffff1660e060020a028152600401602060405180830381600087803b1580156109f457600080fd5b505af1158015610a08573d6000803e3d6000fd5b505050506040513d6020811015610a1e57600080fd5b505160ff161515610a2e57600096505b610a3e818863ffffffff61223916565b9450610a4a565b600094505b505050509392505050565b600080546001546040805160e260020a633d9abf2b028152336004820152600160a060020a03938416602482015292909116604483015251829182918291829173__AOLibrary_____________________________9163f66afcac916064808301926020929190829003018186803b158015610ad057600080fd5b505af4158015610ae4573d6000803e3d6000fd5b505050506040513d6020811015610afa57600080fd5b50511515610b0757600080fd5b600160c060020a0319871660009081526005602052604081205411610b2b57600080fd5b600160a060020a0386161515610b4057600080fd5b600160c060020a0319871660009081526005602052604090205493508592506001841115610c6d576000198401600090815260046020818152604080842054815160e160020a63055122a30281529151604060020a909104600160a060020a031696508694630aa245469483810194938390030190829087803b158015610bc657600080fd5b505af1158015610bda573d6000803e3d6000fd5b505050506040513d6020811015610bf057600080fd5b50516040805160e160020a63055122a30281529051600160a060020a03861691630aa245469160048083019260209291908290030181600087803b158015610c3757600080fd5b505af1158015610c4b573d6000803e3d6000fd5b505050506040513d6020811015610c6157600080fd5b505111610c6d57600080fd5b600654841015610d8a5760046000600654815260200190815260200160002060000160089054906101000a9004600160a060020a0316905080600160a060020a0316630aa245466040518163ffffffff1660e060020a028152600401602060405180830381600087803b158015610ce357600080fd5b505af1158015610cf7573d6000803e3d6000fd5b505050506040513d6020811015610d0d57600080fd5b50516040805160e160020a63055122a30281529051600160a060020a03861691630aa245469160048083019260209291908290030181600087803b158015610d5457600080fd5b505af1158015610d68573d6000803e3d6000fd5b505050506040513d6020811015610d7e57600080fd5b505110610d8a57600080fd5b600160c060020a031987166000908152600560209081526040808320548352600490915290208054600160a060020a038816604060020a027bffffffffffffffffffffffffffffffffffffffff000000000000000019909116179055600194505050505092915050565b610dfc61226d565b610e0461226d565b600354600090819060ff16158015610e245750600354610100900460ff16155b1515610e2f57600080fd5b600160c060020a031986166000908152600560205260408120548791108015610e8d5750600160c060020a0319811660009081526005602090815260408083205483526004909152902054604060020a9004600160a060020a031615155b1515610e9857600080fd5b600160c060020a031986166000908152600560205260408120548791108015610ef65750600160c060020a0319811660009081526005602090815260408083205483526004909152902054604060020a9004600160a060020a031615155b1515610f0157600080fd5b60008911610f0e57600080fd5b60046000600560008b600160c060020a031916600160c060020a03191681526020019081526020016000205481526020019081526020016000206040805190810160405290816000820160009054906101000a900460c060020a02600160c060020a031916600160c060020a03191681526020016000820160089054906101000a9004600160a060020a0316600160a060020a0316600160a060020a031681525050955060046000600560008a600160c060020a031916600160c060020a03191681526020019081526020016000205481526020019081526020016000206040805190810160405290816000820160009054906101000a900460c060020a02600160c060020a031916600160c060020a03191681526020016000820160089054906101000a9004600160a060020a0316600160a060020a0316600160a060020a0316815250509450856020015193508460200151925083600160a060020a031663b1e19d45338b6040518363ffffffff1660e060020a0281526004018083600160a060020a0316600160a060020a0316815260200182815260200192505050602060405180830381600087803b1580156110c757600080fd5b505af11580156110db573d6000803e3d6000fd5b505050506040513d60208110156110f157600080fd5b505115156110fe57600080fd5b604080517f79c65068000000000000000000000000000000000000000000000000000000008152336004820152602481018b90529051600160a060020a038516916379c650689160448083019260209291908290030181600087803b15801561116657600080fd5b505af115801561117a573d6000803e3d6000fd5b505050506040513d602081101561119057600080fd5b5051151561119d57600080fd5b604080518a8152600160c060020a0319808b166020830152891681830152905133917fa9cd29186ae896a4a77376f8eb52122c28b2ee10c2271abebe96135f33d0aee7919081900360600190a2505050505050505050565b600154600160a060020a031681565b6000546001546040805160e260020a633d9abf2b028152336004820152600160a060020a0393841660248201529290911660448301525173__AOLibrary_____________________________9163f66afcac916064808301926020929190829003018186803b15801561127657600080fd5b505af415801561128a573d6000803e3d6000fd5b505050506040513d60208110156112a057600080fd5b505115156112ad57600080fd5b600160a060020a03821615156112c257600080fd5b600160a060020a03919091166000908152600260205260409020805460ff1916911515919091179055565b60065481565b60035460ff1681565b6000546001546040805160e260020a633d9abf2b028152336004820152600160a060020a0393841660248201529290911660448301525173__AOLibrary_____________________________9163f66afcac916064808301926020929190829003018186803b15801561136e57600080fd5b505af4158015611382573d6000803e3d6000fd5b505050506040513d602081101561139857600080fd5b505115156113a557600080fd5b600160a060020a03811615156113ba57600080fd5b6001805473ffffffffffffffffffffffffffffffffffffffff1916600160a060020a0392909216919091179055565b6000806060806000806000808811801561140557506006548811155b151561141057600080fd5b600088815260046020526040902054604060020a9004600160a060020a0316151561143a57600080fd5b5060008781526004602081905260408083205481517f06fdde030000000000000000000000000000000000000000000000000000000081529151600160a060020a03604060020a8304169460c060020a90920293859384936306fdde039382840193919290919082900301818387803b1580156114b657600080fd5b505af11580156114ca573d6000803e3d6000fd5b505050506040513d6000823e601f3d908101601f1916820160405260208110156114f357600080fd5b81019080805164010000000081111561150b57600080fd5b8201602081018481111561151e57600080fd5b815164010000000081118282018710171561153857600080fd5b505092919050505083600160a060020a03166395d89b416040518163ffffffff1660e060020a028152600401600060405180830381600087803b15801561157e57600080fd5b505af1158015611592573d6000803e3d6000fd5b505050506040513d6000823e601f3d908101601f1916820160405260208110156115bb57600080fd5b8101908080516401000000008111156115d357600080fd5b820160208101848111156115e657600080fd5b815164010000000081118282018710171561160057600080fd5b505092919050505084600160a060020a031663313ce5676040518163ffffffff1660e060020a028152600401602060405180830381600087803b15801561164657600080fd5b505af115801561165a573d6000803e3d6000fd5b505050506040513d602081101561167057600080fd5b50516040805160e160020a63055122a30281529051600160a060020a03881691630aa245469160048083019260209291908290030181600087803b1580156116b757600080fd5b505af11580156116cb573d6000803e3d6000fd5b505050506040513d60208110156116e157600080fd5b5051949d939c50919a509850965090945092505050565b60008060008060608060008060008060008061171261226d565b600060065492505b60008311156117d057600460008481526020019081526020016000206040805190810160405290816000820160009054906101000a900460c060020a02600160c060020a031916600160c060020a03191681526020016000820160089054906101000a9004600160a060020a0316600160a060020a0316600160a060020a03168152505091506117ae8f8360000151611b27565b909650945060008611156117c4578293506117d0565b6000199092019161171a565b6000841180156117e257506006548411155b15156117ed57600080fd5b60008611806117fc5750600085115b151561180757600080fd5b600084815260046020526040902054604060020a9004600160a060020a0316151561183157600080fd5b5060008381526004602081905260408083205481517f06fdde030000000000000000000000000000000000000000000000000000000081529151600160a060020a03604060020a8304169460c060020a9092029385938b938b9386936306fdde03938082019392919082900301818387803b1580156118af57600080fd5b505af11580156118c3573d6000803e3d6000fd5b505050506040513d6000823e601f3d908101601f1916820160405260208110156118ec57600080fd5b81019080805164010000000081111561190457600080fd5b8201602081018481111561191757600080fd5b815164010000000081118282018710171561193157600080fd5b505092919050505085600160a060020a03166395d89b416040518163ffffffff1660e060020a028152600401600060405180830381600087803b15801561197757600080fd5b505af115801561198b573d6000803e3d6000fd5b505050506040513d6000823e601f3d908101601f1916820160405260208110156119b457600080fd5b8101908080516401000000008111156119cc57600080fd5b820160208101848111156119df57600080fd5b81516401000000008111828201871017156119f957600080fd5b505092919050505086600160a060020a031663313ce5676040518163ffffffff1660e060020a028152600401602060405180830381600087803b158015611a3f57600080fd5b505af1158015611a53573d6000803e3d6000fd5b505050506040513d6020811015611a6957600080fd5b50516040805160e160020a63055122a30281529051600160a060020a038a1691630aa245469160048083019260209291908290030181600087803b158015611ab057600080fd5b505af1158015611ac4573d6000803e3d6000fd5b505050506040513d6020811015611ada57600080fd5b81019080805190602001909291905050508393508292509d509d509d509d509d509d509d509d50505050505050919395975091939597565b60026020526000908152604090205460ff1681565b600080611b3261226d565b600160c060020a0319841660009081526005602052604081205481908190879082108015611b955750600160c060020a0319811660009081526005602090815260408083205483526004909152902054604060020a9004600160a060020a031615155b1515611ba057600080fd5b600160c060020a03198881166000908152600560209081526040808320548352600480835281842082518084018452905460c060020a81029096168152604060020a909504600160a060020a0316858401819052825160e160020a63055122a30281529251959a509850611c6f948994630aa2454694848401949093908390030190829087803b158015611c3357600080fd5b505af1158015611c47573d6000803e3d6000fd5b505050506040513d6020811015611c5d57600080fd5b50518a90600a0a63ffffffff61224616565b9250611cfe611cf185600160a060020a0316630aa245466040518163ffffffff1660e060020a028152600401602060405180830381600087803b158015611cb557600080fd5b505af1158015611cc9573d6000803e3d6000fd5b505050506040513d6020811015611cdf57600080fd5b50518590600a0a63ffffffff61221016565b8a9063ffffffff61225b16565b9299929850919650505050505050565b600054600160a060020a031681565b600080606080828080600160c060020a0319881660009081526005602052604081205411611d4a57600080fd5b600160c060020a0319881660009081526005602090815260408083205483526004909152902054604060020a9004600160a060020a03161515611d8c57600080fd5b50600160c060020a0319871660009081526005602090815260408083205483526004918290528083205481517f06fdde030000000000000000000000000000000000000000000000000000000081529151604060020a8204600160a060020a03169460c060020a90920293859384936306fdde039382840193919290919082900301818387803b1580156114b657600080fd5b600080546001546040805160e260020a633d9abf2b028152336004820152600160a060020a039384166024820152929091166044830152518291829173__AOLibrary_____________________________9163f66afcac916064808301926020929190829003018186803b158015611e9657600080fd5b505af4158015611eaa573d6000803e3d6000fd5b505050506040513d6020811015611ec057600080fd5b50511515611ecd57600080fd5b600160a060020a0384161515611ee257600080fd5b600160c060020a0319851660009081526005602052604090205415611f0657600080fd5b6006805460019081019182905510156120325760046000600160065403815260200190815260200160002060000160089054906101000a9004600160a060020a0316915083905081600160a060020a0316630aa245466040518163ffffffff1660e060020a028152600401602060405180830381600087803b158015611f8b57600080fd5b505af1158015611f9f573d6000803e3d6000fd5b505050506040513d6020811015611fb557600080fd5b50516040805160e160020a63055122a30281529051600160a060020a03841691630aa245469160048083019260209291908290030181600087803b158015611ffc57600080fd5b505af1158015612010573d6000803e3d6000fd5b505050506040513d602081101561202657600080fd5b50511161203257600080fd5b600680546000908152600460209081526040808320805460c060020a8b0467ffffffffffffffff19909116179055835483528083208054600160a060020a038a16604060020a027bffffffffffffffffffffffffffffffffffffffff0000000000000000199091161790559254600160c060020a03198916835260059091529190205560019250505092915050565b60008060608060008060016006541115156120db57600080fd5b6120e560016113e9565b949b939a50919850965094509092509050565b6000546001546040805160e260020a633d9abf2b028152336004820152600160a060020a0393841660248201529290911660448301525173__AOLibrary_____________________________9163f66afcac916064808301926020929190829003018186803b15801561216a57600080fd5b505af415801561217e573d6000803e3d6000fd5b505050506040513d602081101561219457600080fd5b505115156121a157600080fd5b600160a060020a03811615156121b657600080fd5b6000805473ffffffffffffffffffffffffffffffffffffffff1916600160a060020a0392909216919091179055565b6000805b821561220a5761220083600a63ffffffff61224616565b92506001016121e9565b92915050565b60008215156122215750600061220a565b5081810281838281151561223157fe5b041461220a57fe5b8181018281101561220a57fe5b6000818381151561225357fe5b049392505050565b60008282111561226757fe5b50900390565b6040805180820190915260008082526020820152905600a165627a7a72305820ca9594bfdd83214922022fe77f9ad89b9fec9a24a53a0f53219c81d4030d73180029",
	"source": "pragma solidity ^0.4.24;\n\nimport './SafeMath.sol';\nimport './AOLibrary.sol';\nimport './TheAO.sol';\nimport './AOTokenInterface.sol';\n\n/**\n * @title AOTreasury\n *\n * The purpose of this contract is to list all of the valid denominations of AO Token and do the conversion between denominations\n */\ncontract AOTreasury is TheAO {\n\tusing SafeMath for uint256;\n\n\tbool public paused;\n\tbool public killed;\n\n\tstruct Denomination {\n\t\tbytes8 name;\n\t\taddress denominationAddress;\n\t}\n\n\t// Mapping from denomination index to Denomination object\n\t// The list is in order from lowest denomination to highest denomination\n\t// i.e, denominations[1] is the base denomination\n\tmapping (uint256 => Denomination) internal denominations;\n\n\t// Mapping from denomination ID to index of denominations\n\tmapping (bytes8 => uint256) internal denominationIndex;\n\n\tuint256 public totalDenominations;\n\n\t// Event to be broadcasted to public when a token exchange happens\n\tevent Exchange(address indexed account, uint256 amount, bytes8 fromDenominationName, bytes8 toDenominationName);\n\n\t// Event to be broadcasted to public when emergency mode is triggered\n\tevent EscapeHatch();\n\n\t/**\n\t * @dev Constructor function\n\t */\n\tconstructor() public {}\n\n\t/**\n\t * @dev Checks if the calling contract address is The AO\n\t *\t\tOR\n\t *\t\tIf The AO is set to a Name/TAO, then check if calling address is the Advocate\n\t */\n\tmodifier onlyTheAO {\n\t\trequire (AOLibrary.isTheAO(msg.sender, theAO, nameTAOPositionAddress));\n\t\t_;\n\t}\n\n\t/**\n\t * @dev Checks if contract is currently active\n\t */\n\tmodifier isContractActive {\n\t\trequire (paused == false && killed == false);\n\t\t_;\n\t}\n\n\t/**\n\t * @dev Checks if denomination is valid\n\t */\n\tmodifier isValidDenomination(bytes8 denominationName) {\n\t\trequire (denominationIndex[denominationName] > 0 && denominations[denominationIndex[denominationName]].denominationAddress != address(0));\n\t\t_;\n\t}\n\n\t/***** The AO ONLY METHODS *****/\n\t/**\n\t * @dev The AO set the NameTAOPosition Address\n\t * @param _nameTAOPositionAddress The address of NameTAOPosition\n\t */\n\tfunction setNameTAOPositionAddress(address _nameTAOPositionAddress) public onlyTheAO {\n\t\trequire (_nameTAOPositionAddress != address(0));\n\t\tnameTAOPositionAddress = _nameTAOPositionAddress;\n\t}\n\n\t/**\n\t * @dev Transfer ownership of The AO to new address\n\t * @param _theAO The new address to be transferred\n\t */\n\tfunction transferOwnership(address _theAO) public onlyTheAO {\n\t\trequire (_theAO != address(0));\n\t\ttheAO = _theAO;\n\t}\n\n\t/**\n\t * @dev Whitelist `_account` address to transact on behalf of others\n\t * @param _account The address to whitelist\n\t * @param _whitelist Either to whitelist or not\n\t */\n\tfunction setWhitelist(address _account, bool _whitelist) public onlyTheAO {\n\t\trequire (_account != address(0));\n\t\twhitelist[_account] = _whitelist;\n\t}\n\n\t/**\n\t * @dev The AO pauses/unpauses contract\n\t * @param _paused Either to pause contract or not\n\t */\n\tfunction setPaused(bool _paused) public onlyTheAO {\n\t\tpaused = _paused;\n\t}\n\n\t/**\n\t * @dev The AO triggers emergency mode.\n\t *\n\t */\n\tfunction escapeHatch() public onlyTheAO {\n\t\trequire (killed == false);\n\t\tkilled = true;\n\t\temit EscapeHatch();\n\t}\n\n\t/**\n\t * @dev The AO adds denomination and the contract address associated with it\n\t * @param denominationName The name of the denomination, i.e ao, kilo, mega, etc.\n\t * @param denominationAddress The address of the denomination token\n\t * @return true on success\n\t */\n\tfunction addDenomination(bytes8 denominationName, address denominationAddress) public onlyTheAO returns (bool) {\n\t\trequire (denominationName.length != 0);\n\t\trequire (denominationAddress != address(0));\n\t\trequire (denominationIndex[denominationName] == 0);\n\t\ttotalDenominations++;\n\t\t// Make sure the new denomination is higher than the previous\n\t\tif (totalDenominations > 1) {\n\t\t\tAOTokenInterface _lastDenominationToken = AOTokenInterface(denominations[totalDenominations - 1].denominationAddress);\n\t\t\tAOTokenInterface _newDenominationToken = AOTokenInterface(denominationAddress);\n\t\t\trequire (_newDenominationToken.powerOfTen() > _lastDenominationToken.powerOfTen());\n\t\t}\n\t\tdenominations[totalDenominations].name = denominationName;\n\t\tdenominations[totalDenominations].denominationAddress = denominationAddress;\n\t\tdenominationIndex[denominationName] = totalDenominations;\n\t\treturn true;\n\t}\n\n\t/**\n\t * @dev The AO updates denomination address or activates/deactivates the denomination\n\t * @param denominationName The name of the denomination, i.e ao, kilo, mega, etc.\n\t * @param denominationAddress The address of the denomination token\n\t * @return true on success\n\t */\n\tfunction updateDenomination(bytes8 denominationName, address denominationAddress) public onlyTheAO returns (bool) {\n\t\trequire (denominationName.length != 0);\n\t\trequire (denominationIndex[denominationName] > 0);\n\t\trequire (denominationAddress != address(0));\n\t\tuint256 _denominationNameIndex = denominationIndex[denominationName];\n\t\tAOTokenInterface _newDenominationToken = AOTokenInterface(denominationAddress);\n\t\tif (_denominationNameIndex > 1) {\n\t\t\tAOTokenInterface _prevDenominationToken = AOTokenInterface(denominations[_denominationNameIndex - 1].denominationAddress);\n\t\t\trequire (_newDenominationToken.powerOfTen() > _prevDenominationToken.powerOfTen());\n\t\t}\n\t\tif (_denominationNameIndex < totalDenominations) {\n\t\t\tAOTokenInterface _lastDenominationToken = AOTokenInterface(denominations[totalDenominations].denominationAddress);\n\t\t\trequire (_newDenominationToken.powerOfTen() < _lastDenominationToken.powerOfTen());\n\t\t}\n\t\tdenominations[denominationIndex[denominationName]].denominationAddress = denominationAddress;\n\t\treturn true;\n\t}\n\n\t/***** PUBLIC METHODS *****/\n\t/**\n\t * @dev Get denomination info based on name\n\t * @param denominationName The name to be queried\n\t * @return the denomination short name\n\t * @return the denomination address\n\t * @return the denomination public name\n\t * @return the denomination symbol\n\t * @return the denomination num of decimals\n\t * @return the denomination multiplier (power of ten)\n\t */\n\tfunction getDenominationByName(bytes8 denominationName) public view returns (bytes8, address, string, string, uint8, uint256) {\n\t\trequire (denominationName.length != 0);\n\t\trequire (denominationIndex[denominationName] > 0);\n\t\trequire (denominations[denominationIndex[denominationName]].denominationAddress != address(0));\n\t\tAOTokenInterface _ao = AOTokenInterface(denominations[denominationIndex[denominationName]].denominationAddress);\n\t\treturn (\n\t\t\tdenominations[denominationIndex[denominationName]].name,\n\t\t\tdenominations[denominationIndex[denominationName]].denominationAddress,\n\t\t\t_ao.name(),\n\t\t\t_ao.symbol(),\n\t\t\t_ao.decimals(),\n\t\t\t_ao.powerOfTen()\n\t\t);\n\t}\n\n\t/**\n\t * @dev Get denomination info by index\n\t * @param index The index to be queried\n\t * @return the denomination short name\n\t * @return the denomination address\n\t * @return the denomination public name\n\t * @return the denomination symbol\n\t * @return the denomination num of decimals\n\t * @return the denomination multiplier (power of ten)\n\t */\n\tfunction getDenominationByIndex(uint256 index) public view returns (bytes8, address, string, string, uint8, uint256) {\n\t\trequire (index > 0 && index <= totalDenominations);\n\t\trequire (denominations[index].denominationAddress != address(0));\n\t\tAOTokenInterface _ao = AOTokenInterface(denominations[index].denominationAddress);\n\t\treturn (\n\t\t\tdenominations[index].name,\n\t\t\tdenominations[index].denominationAddress,\n\t\t\t_ao.name(),\n\t\t\t_ao.symbol(),\n\t\t\t_ao.decimals(),\n\t\t\t_ao.powerOfTen()\n\t\t);\n\t}\n\n\t/**\n\t * @dev Get base denomination info\n\t * @return the denomination short name\n\t * @return the denomination address\n\t * @return the denomination public name\n\t * @return the denomination symbol\n\t * @return the denomination num of decimals\n\t * @return the denomination multiplier (power of ten)\n\t */\n\tfunction getBaseDenomination() public view returns (bytes8, address, string, string, uint8, uint256) {\n\t\trequire (totalDenominations > 1);\n\t\treturn getDenominationByIndex(1);\n\t}\n\n\t/**\n\t * @dev convert token from `denominationName` denomination to base denomination,\n\t *\t\tin this case it's similar to web3.toWei() functionality\n\t *\n\t * Example:\n\t * 9.1 Kilo should be entered as 9 integerAmount and 100 fractionAmount\n\t * 9.02 Kilo should be entered as 9 integerAmount and 20 fractionAmount\n\t * 9.001 Kilo should be entered as 9 integerAmount and 1 fractionAmount\n\t *\n\t * @param integerAmount uint256 of the integer amount to be converted\n\t * @param fractionAmount uint256 of the frational amount to be converted\n\t * @param denominationName bytes8 name of the token denomination\n\t * @return uint256 converted amount in base denomination from target denomination\n\t */\n\tfunction toBase(uint256 integerAmount, uint256 fractionAmount, bytes8 denominationName) public view returns (uint256) {\n\t\tif (denominationName.length > 0 &&\n\t\t\tdenominationIndex[denominationName] > 0 &&\n\t\t\tdenominations[denominationIndex[denominationName]].denominationAddress != address(0) &&\n\t\t\t(integerAmount > 0 || fractionAmount > 0)) {\n\n\t\t\tDenomination memory _denomination = denominations[denominationIndex[denominationName]];\n\t\t\tAOTokenInterface _denominationToken = AOTokenInterface(_denomination.denominationAddress);\n\t\t\tuint8 fractionNumDigits = _numDigits(fractionAmount);\n\t\t\trequire (fractionNumDigits <= _denominationToken.decimals());\n\t\t\tuint256 baseInteger = integerAmount.mul(10 ** _denominationToken.powerOfTen());\n\t\t\tif (_denominationToken.decimals() == 0) {\n\t\t\t\tfractionAmount = 0;\n\t\t\t}\n\t\t\treturn baseInteger.add(fractionAmount);\n\t\t} else {\n\t\t\treturn 0;\n\t\t}\n\t}\n\n\t/**\n\t * @dev convert token from base denomination to `denominationName` denomination,\n\t *\t\tin this case it's similar to web3.fromWei() functionality\n\t * @param integerAmount uint256 of the base amount to be converted\n\t * @param denominationName bytes8 name of the target token denomination\n\t * @return uint256 of the converted integer amount in target denomination\n\t * @return uint256 of the converted fraction amount in target denomination\n\t */\n\tfunction fromBase(uint256 integerAmount, bytes8 denominationName) public isValidDenomination(denominationName) view returns (uint256, uint256) {\n\t\tDenomination memory _denomination = denominations[denominationIndex[denominationName]];\n\t\tAOTokenInterface _denominationToken = AOTokenInterface(_denomination.denominationAddress);\n\t\tuint256 denominationInteger = integerAmount.div(10 ** _denominationToken.powerOfTen());\n\t\tuint256 denominationFraction = integerAmount.sub(denominationInteger.mul(10 ** _denominationToken.powerOfTen()));\n\t\treturn (denominationInteger, denominationFraction);\n\t}\n\n\t/**\n\t * @dev exchange `amount` token from `fromDenominationName` denomination to token in `toDenominationName` denomination\n\t * @param amount The amount of token to exchange\n\t * @param fromDenominationName The origin denomination\n\t * @param toDenominationName The target denomination\n\t */\n\tfunction exchange(uint256 amount, bytes8 fromDenominationName, bytes8 toDenominationName) public isContractActive isValidDenomination(fromDenominationName) isValidDenomination(toDenominationName) {\n\t\trequire (amount > 0);\n\t\tDenomination memory _fromDenomination = denominations[denominationIndex[fromDenominationName]];\n\t\tDenomination memory _toDenomination = denominations[denominationIndex[toDenominationName]];\n\t\tAOTokenInterface _fromDenominationToken = AOTokenInterface(_fromDenomination.denominationAddress);\n\t\tAOTokenInterface _toDenominationToken = AOTokenInterface(_toDenomination.denominationAddress);\n\t\trequire (_fromDenominationToken.whitelistBurnFrom(msg.sender, amount));\n\t\trequire (_toDenominationToken.mintToken(msg.sender, amount));\n\t\temit Exchange(msg.sender, amount, fromDenominationName, toDenominationName);\n\t}\n\n\t/**\n\t * @dev Return the highest possible denomination given a base amount\n\t * @param amount The amount to be converted\n\t * @return the denomination short name\n\t * @return the denomination address\n\t * @return the integer amount at the denomination level\n\t * @return the fraction amount at the denomination level\n\t * @return the denomination public name\n\t * @return the denomination symbol\n\t * @return the denomination num of decimals\n\t * @return the denomination multiplier (power of ten)\n\t */\n\tfunction toHighestDenomination(uint256 amount) public view returns (bytes8, address, uint256, uint256, string, string, uint8, uint256) {\n\t\tuint256 integerAmount;\n\t\tuint256 fractionAmount;\n\t\tuint256 index;\n\t\tfor (uint256 i=totalDenominations; i>0; i--) {\n\t\t\tDenomination memory _denomination = denominations[i];\n\t\t\t(integerAmount, fractionAmount) = fromBase(amount, _denomination.name);\n\t\t\tif (integerAmount > 0) {\n\t\t\t\tindex = i;\n\t\t\t\tbreak;\n\t\t\t}\n\t\t}\n\t\trequire (index > 0 && index <= totalDenominations);\n\t\trequire (integerAmount > 0 || fractionAmount > 0);\n\t\trequire (denominations[index].denominationAddress != address(0));\n\t\tAOTokenInterface _ao = AOTokenInterface(denominations[index].denominationAddress);\n\t\treturn (\n\t\t\tdenominations[index].name,\n\t\t\tdenominations[index].denominationAddress,\n\t\t\tintegerAmount,\n\t\t\tfractionAmount,\n\t\t\t_ao.name(),\n\t\t\t_ao.symbol(),\n\t\t\t_ao.decimals(),\n\t\t\t_ao.powerOfTen()\n\t\t);\n\t}\n\n\t/***** INTERNAL METHOD *****/\n\t/**\n\t * @dev count num of digits\n\t * @param number uint256 of the nuumber to be checked\n\t * @return uint8 num of digits\n\t */\n\tfunction _numDigits(uint256 number) internal pure returns (uint8) {\n\t\tuint8 digits = 0;\n\t\twhile(number != 0) {\n\t\t\tnumber = number.div(10);\n\t\t\tdigits++;\n\t\t}\n\t\treturn digits;\n\t}\n}\n",
	"sourcePath": "/Users/johanmulyono/Work/AO/ao-contracts/contracts/AOTreasury.sol",
	"compiler": {
		"name": "solc",
		"version": "0.4.24+commit.e67f0147.Emscripten.clang"
	},
	"schemaVersion": "2.0.1",
	"updatedAt": "2019-01-07T03:04:13.025Z"
}