{
	"contractName": "AOTreasury",
	"abi": [
		{
			"constant": false,
			"inputs": [
				{
					"name": "_account",
					"type": "address"
				},
				{
					"name": "_whitelist",
					"type": "bool"
				}
			],
			"name": "setWhitelist",
			"outputs": [],
			"payable": false,
			"stateMutability": "nonpayable",
			"type": "function"
		},
		{
			"constant": true,
			"inputs": [],
			"name": "BASE_DENOMINATION",
			"outputs": [
				{
					"name": "",
					"type": "bytes8"
				}
			],
			"payable": false,
			"stateMutability": "view",
			"type": "function"
		},
		{
			"constant": true,
			"inputs": [
				{
					"name": "",
					"type": "bytes8"
				}
			],
			"name": "denominations",
			"outputs": [
				{
					"name": "",
					"type": "address"
				}
			],
			"payable": false,
			"stateMutability": "view",
			"type": "function"
		},
		{
			"constant": true,
			"inputs": [],
			"name": "owner",
			"outputs": [
				{
					"name": "",
					"type": "address"
				}
			],
			"payable": false,
			"stateMutability": "view",
			"type": "function"
		},
		{
			"constant": true,
			"inputs": [
				{
					"name": "",
					"type": "address"
				}
			],
			"name": "whitelist",
			"outputs": [
				{
					"name": "",
					"type": "bool"
				}
			],
			"payable": false,
			"stateMutability": "view",
			"type": "function"
		},
		{
			"constant": false,
			"inputs": [
				{
					"name": "newOwner",
					"type": "address"
				}
			],
			"name": "transferOwnership",
			"outputs": [],
			"payable": false,
			"stateMutability": "nonpayable",
			"type": "function"
		},
		{
			"inputs": [],
			"payable": false,
			"stateMutability": "nonpayable",
			"type": "constructor"
		},
		{
			"anonymous": false,
			"inputs": [
				{
					"indexed": true,
					"name": "account",
					"type": "address"
				},
				{
					"indexed": false,
					"name": "amount",
					"type": "uint256"
				},
				{
					"indexed": false,
					"name": "fromDenominationName",
					"type": "bytes8"
				},
				{
					"indexed": false,
					"name": "toDenominationName",
					"type": "bytes8"
				}
			],
			"name": "Exchange",
			"type": "event"
		},
		{
			"constant": false,
			"inputs": [
				{
					"name": "denominationName",
					"type": "bytes8"
				},
				{
					"name": "denominationAddress",
					"type": "address"
				}
			],
			"name": "addDenomination",
			"outputs": [
				{
					"name": "",
					"type": "bool"
				}
			],
			"payable": false,
			"stateMutability": "nonpayable",
			"type": "function"
		},
		{
			"constant": false,
			"inputs": [
				{
					"name": "denominationName",
					"type": "bytes8"
				},
				{
					"name": "denominationAddress",
					"type": "address"
				}
			],
			"name": "updateDenomination",
			"outputs": [
				{
					"name": "",
					"type": "bool"
				}
			],
			"payable": false,
			"stateMutability": "nonpayable",
			"type": "function"
		},
		{
			"constant": false,
			"inputs": [
				{
					"name": "denominationName",
					"type": "bytes8"
				}
			],
			"name": "deleteDenomination",
			"outputs": [
				{
					"name": "",
					"type": "bool"
				}
			],
			"payable": false,
			"stateMutability": "nonpayable",
			"type": "function"
		},
		{
			"constant": true,
			"inputs": [
				{
					"name": "integerAmount",
					"type": "uint256"
				},
				{
					"name": "fractionAmount",
					"type": "uint256"
				},
				{
					"name": "denominationName",
					"type": "bytes8"
				}
			],
			"name": "toBase",
			"outputs": [
				{
					"name": "",
					"type": "uint256"
				}
			],
			"payable": false,
			"stateMutability": "view",
			"type": "function"
		},
		{
			"constant": true,
			"inputs": [
				{
					"name": "integerAmount",
					"type": "uint256"
				},
				{
					"name": "denominationName",
					"type": "bytes8"
				}
			],
			"name": "fromBase",
			"outputs": [
				{
					"name": "",
					"type": "uint256"
				},
				{
					"name": "",
					"type": "uint256"
				}
			],
			"payable": false,
			"stateMutability": "view",
			"type": "function"
		},
		{
			"constant": false,
			"inputs": [
				{
					"name": "amount",
					"type": "uint256"
				},
				{
					"name": "fromDenominationName",
					"type": "bytes8"
				},
				{
					"name": "toDenominationName",
					"type": "bytes8"
				}
			],
			"name": "exchange",
			"outputs": [],
			"payable": false,
			"stateMutability": "nonpayable",
			"type": "function"
		}
	],
	"bytecode": "0x608060405234801561001057600080fd5b5060008054600160a060020a03191633179055610bb3806100326000396000f3006080604052600436106100a05763ffffffff60e060020a600035041663217db8e881146100a55780632fb658d4146100df5780633d9f923b14610115578063451659d91461014357806353d6fd59146101705780635cbcce70146101965780636e1c831f146101c85780638da5cb5b146102065780639b19251a1461021b578063a46a891e1461023c578063c1e527751461027a578063f2fde38b146102a8575b600080fd5b3480156100b157600080fd5b506100cd600435602435600160c060020a0319604435166102c9565b60408051918252519081900360200190f35b3480156100eb57600080fd5b50610101600160c060020a0319600435166104e9565b604080519115158252519081900360200190f35b34801561012157600080fd5b50610101600160c060020a031960043516600160a060020a0360243516610568565b34801561014f57600080fd5b5061016e600435600160c060020a03196024358116906044351661060c565b005b34801561017c57600080fd5b5061016e600160a060020a03600435166024351515610835565b3480156101a257600080fd5b506101ab610877565b60408051600160c060020a03199092168252519081900360200190f35b3480156101d457600080fd5b506101ea600160c060020a03196004351661089b565b60408051600160a060020a039092168252519081900360200190f35b34801561021257600080fd5b506101ea6108b6565b34801561022757600080fd5b50610101600160a060020a03600435166108c5565b34801561024857600080fd5b50610261600435600160c060020a0319602435166108da565b6040805192835260208301919091528051918290030190f35b34801561028657600080fd5b50610101600160c060020a031960043516600160a060020a0360243516610a65565b3480156102b457600080fd5b5061016e600160a060020a0360043516610abf565b600160c060020a031981166000908152600260205260408120548190819081908190600160a060020a031615156102ff57600080fd5b600160c060020a03198616600090815260026020526040902054600160a060020a0316935061032d87610b05565b9250600084600160a060020a031663313ce5676040518163ffffffff1660e060020a028152600401602060405180830381600087803b15801561036f57600080fd5b505af1158015610383573d6000803e3d6000fd5b505050506040513d602081101561039957600080fd5b505160ff161180156103ab5750600087115b6103b657600061044c565b61044c8360ff16600a0a61044086600160a060020a031663313ce5676040518163ffffffff1660e060020a028152600401602060405180830381600087803b15801561040157600080fd5b505af1158015610415573d6000803e3d6000fd5b505050506040513d602081101561042b57600080fd5b50518a9060ff16600a0a63ffffffff610b2a16565b9063ffffffff610b5316565b91506104cb84600160a060020a0316630aa245466040518163ffffffff1660e060020a028152600401602060405180830381600087803b15801561048f57600080fd5b505af11580156104a3573d6000803e3d6000fd5b505050506040513d60208110156104b957600080fd5b50518990600a0a63ffffffff610b2a16565b90506104dd818363ffffffff610b6816565b98975050505050505050565b60008054600160a060020a0316331461050157600080fd5b600160c060020a03198216600090815260026020526040902054600160a060020a0316151561052f57600080fd5b50600160c060020a0319166000908152600260205260409020805473ffffffffffffffffffffffffffffffffffffffff19169055600190565b60008054600160a060020a0316331461058057600080fd5b600160c060020a03198316600090815260026020526040902054600160a060020a031615156105ae57600080fd5b600160a060020a03821615156105c357600080fd5b50600160c060020a031982166000908152600260205260409020805473ffffffffffffffffffffffffffffffffffffffff1916600160a060020a03831617905560015b92915050565b60008080851161061b57600080fd5b600160c060020a03198416600090815260026020526040902054600160a060020a0316151561064957600080fd5b600160c060020a03198316600090815260026020526040902054600160a060020a0316151561067757600080fd5b5050600160c060020a031982811660009081526002602090815260408083205493851683528083205481517fb1e19d45000000000000000000000000000000000000000000000000000000008152336004820152602481018990529151600160a060020a039586169590911693859363b1e19d45936044808201949293918390030190829087803b15801561070b57600080fd5b505af115801561071f573d6000803e3d6000fd5b505050506040513d602081101561073557600080fd5b5051151561074257600080fd5b604080517f79c65068000000000000000000000000000000000000000000000000000000008152336004820152602481018790529051600160a060020a038316916379c650689160448083019260209291908290030181600087803b1580156107aa57600080fd5b505af11580156107be573d6000803e3d6000fd5b505050506040513d60208110156107d457600080fd5b505115156107e157600080fd5b60408051868152600160c060020a03198087166020830152851681830152905133917fa9cd29186ae896a4a77376f8eb52122c28b2ee10c2271abebe96135f33d0aee7919081900360600190a25050505050565b600054600160a060020a0316331461084c57600080fd5b600160a060020a03919091166000908152600160205260409020805460ff1916911515919091179055565b7f616f00000000000000000000000000000000000000000000000000000000000081565b600260205260009081526040902054600160a060020a031681565b600054600160a060020a031681565b60016020526000908152604090205460ff1681565b600160c060020a031981166000908152600260205260408120548190819081908190600160a060020a0316151561091057600080fd5b600160c060020a0319861660009081526002602090815260408083205481517f0aa245460000000000000000000000000000000000000000000000000000000081529151600160a060020a0390911696506109c8938793630aa24546936004808201949293918390030190829087803b15801561098c57600080fd5b505af11580156109a0573d6000803e3d6000fd5b505050506040513d60208110156109b657600080fd5b50518890600a0a63ffffffff610b5316565b9150610a57610a4a84600160a060020a0316630aa245466040518163ffffffff1660e060020a028152600401602060405180830381600087803b158015610a0e57600080fd5b505af1158015610a22573d6000803e3d6000fd5b505050506040513d6020811015610a3857600080fd5b50518490600a0a63ffffffff610b2a16565b889063ffffffff610b7516565b919791965090945050505050565b60008054600160a060020a03163314610a7d57600080fd5b600160a060020a0382161515610a9257600080fd5b600160c060020a03198316600090815260026020526040902054600160a060020a0316156105c357600080fd5b600054600160a060020a03163314610ad657600080fd5b6000805473ffffffffffffffffffffffffffffffffffffffff1916600160a060020a0392909216919091179055565b6000805b821561060657610b2083600a63ffffffff610b5316565b9250600101610b09565b6000821515610b3b57506000610606565b50818102818382811515610b4b57fe5b041461060657fe5b60008183811515610b6057fe5b049392505050565b8181018281101561060657fe5b600082821115610b8157fe5b509003905600a165627a7a723058205428cc88f53ccc09940065d6888f1c6d028b7733df33c580d4290572de8861ee0029",
	"source": "pragma solidity ^0.4.24;\n\nimport './SafeMath.sol';\nimport './owned.sol';\nimport './AOToken.sol';\n\n/**\n * @title AOTreasury\n *\n * The purpose of this contract is to list all of the valid denominations of AO Token and do the conversion between denominations\n */\ncontract AOTreasury is owned {\n\tusing SafeMath for uint256;\n\n\t// Mapping from denomination type to the token address\n\tmapping (bytes8 => address) public denominations;\n\tbytes8 constant public BASE_DENOMINATION = 'ao';\n\n\t// Event to be broadcasted to public when a token exchange happens\n\tevent Exchange(address indexed account, uint256 amount, bytes8 fromDenominationName, bytes8 toDenominationName);\n\n\t/**\n\t * @dev Constructor function\n\t */\n\tconstructor() public {}\n\n\t/***** OWNER ONLY METHODS *****/\n\t/**\n\t * @dev Owner adds denomination and the contract address associated with it\n\t * @param denominationName The name of the denomination, i.e ao, kilo, mega, etc.\n\t * @param denominationAddress The address of the denomination token\n\t * @return true on success\n\t */\n\tfunction addDenomination(bytes8 denominationName, address denominationAddress) public onlyOwner returns (bool) {\n\t\trequire (denominationName.length != 0);\n\t\trequire (denominationAddress != address(0));\n\t\trequire (denominations[denominationName] == address(0));\n\t\tdenominations[denominationName] = denominationAddress;\n\t\treturn true;\n\t}\n\n\t/**\n\t * @dev Owner updates denomination and the contract address associated with it\n\t * @param denominationName The name of the denomination, i.e ao, kilo, mega, etc.\n\t * @param denominationAddress The address of the denomination token\n\t * @return true on success\n\t */\n\tfunction updateDenomination(bytes8 denominationName, address denominationAddress) public onlyOwner returns (bool) {\n\t\trequire (denominationName.length != 0);\n\t\trequire (denominations[denominationName] != address(0));\n\t\trequire (denominationAddress != address(0));\n\t\tdenominations[denominationName] = denominationAddress;\n\t\treturn true;\n\t}\n\n\t/**\n\t * @dev Owner deletes denomination from the list\n\t * @param denominationName The name of the denomination, i.e ao, kilo, mega, etc.\n\t * @return true on success\n\t */\n\tfunction deleteDenomination(bytes8 denominationName) public onlyOwner returns (bool) {\n\t\trequire (denominationName.length != 0);\n\t\trequire (denominations[denominationName] != address(0));\n\t\tdenominations[denominationName] = address(0);\n\t\treturn true;\n\t}\n\n\t/***** PUBLIC METHODS *****/\n\t/**\n\t * @dev convert token from `denominationName` denomination to base denomination,\n\t *\t\tin this case it's similar to web3.toWei() functionality\n\t * @param integerAmount uint256 of the integer amount to be converted\n\t * @param fractionAmount uint256 of the frational amount to be converted\n\t * @param denominationName bytes8 name of the token denomination\n\t * @return uint256 converted amount in base denomination from target denomination\n\t */\n\tfunction toBase(uint256 integerAmount, uint256 fractionAmount, bytes8 denominationName) public view returns (uint256) {\n\t\trequire (denominations[denominationName] != address(0));\n\t\tAOToken _denominationToken = AOToken(denominations[denominationName]);\n\t\tuint8 fractionNumDigits = _numDigits(fractionAmount);\n\t\tuint256 baseFraction = _denominationToken.decimals() > 0 && fractionAmount > 0 ? fractionAmount.mul(10 ** uint256(_denominationToken.decimals())).div(10 ** uint256(fractionNumDigits)) : 0;\n\t\tuint256 baseInteger = integerAmount.mul(10 ** _denominationToken.powerOfTen());\n\t\treturn baseInteger.add(baseFraction);\n\t}\n\n\t/**\n\t * @dev convert token from base denomination to `denominationName` denomination,\n\t *\t\tin this case it's similar to web3.fromWei() functionality\n\t * @param integerAmount uint256 of the base amount to be converted\n\t * @param denominationName bytes8 name of the target token denomination\n\t * @return uint256 of the converted integer amount in target denomination\n\t * @return uint256 of the converted fraction amount in target denomination\n\t */\n\tfunction fromBase(uint256 integerAmount, bytes8 denominationName) public view returns (uint256, uint256) {\n\t\trequire (denominations[denominationName] != address(0));\n\t\tAOToken _denominationToken = AOToken(denominations[denominationName]);\n\t\tuint256 denominationInteger = integerAmount.div(10 ** _denominationToken.powerOfTen());\n\t\tuint256 denominationFraction = integerAmount.sub(denominationInteger.mul(10 ** _denominationToken.powerOfTen()));\n\t\treturn (denominationInteger, denominationFraction);\n\t}\n\n\t/**\n\t * @dev exchange `amount` token from `fromDenominationName` denomination to token in `toDenominationName` denomination\n\t * @param amount The amount of token to exchange\n\t * @param fromDenominationName The origin denomination\n\t * @param toDenominationName The target denomination\n\t */\n\tfunction exchange(uint256 amount, bytes8 fromDenominationName, bytes8 toDenominationName) public {\n\t\trequire (amount > 0);\n\t\trequire (denominations[fromDenominationName] != address(0));\n\t\trequire (denominations[toDenominationName] != address(0));\n\t\tAOToken _fromDenominationToken = AOToken(denominations[fromDenominationName]);\n\t\tAOToken _toDenominationToken = AOToken(denominations[toDenominationName]);\n\t\trequire (_fromDenominationToken.whitelistBurnFrom(msg.sender, amount));\n\t\trequire (_toDenominationToken.mintToken(msg.sender, amount));\n\t\temit Exchange(msg.sender, amount, fromDenominationName, toDenominationName);\n\t}\n\n\t/***** Private functions *****/\n\t/**\n\t * @dev count num of digits\n\t * @param number uint256 of the nuumber to be checked\n\t * @return uint8 num of digits\n\t */\n\tfunction _numDigits(uint256 number) private pure returns (uint8) {\n\t\tuint8 digits = 0;\n\t\twhile(number != 0) {\n\t\t\tnumber = number.div(10);\n\t\t\tdigits++;\n\t\t}\n\t\treturn digits;\n\t}\n}\n",
	"sourcePath": "/home/jmulyono/ao-contracts/contracts/AOTreasury.sol",
	"compiler": {
		"name": "solc",
		"version": "0.4.24+commit.e67f0147.Emscripten.clang"
	},
	"schemaVersion": "1.0.1",
	"updatedAt": "2018-08-01T15:02:07.539Z"
}