{
	"contractName": "AOUintSetting",
	"abi": [
		{
			"constant": true,
			"inputs": [],
			"name": "aoDevTeam1",
			"outputs": [
				{
					"name": "",
					"type": "address"
				}
			],
			"payable": false,
			"stateMutability": "view",
			"type": "function"
		},
		{
			"constant": false,
			"inputs": [
				{
					"name": "_account",
					"type": "address"
				},
				{
					"name": "_whitelist",
					"type": "bool"
				}
			],
			"name": "setWhitelist",
			"outputs": [],
			"payable": false,
			"stateMutability": "nonpayable",
			"type": "function"
		},
		{
			"constant": true,
			"inputs": [
				{
					"name": "",
					"type": "address"
				}
			],
			"name": "whitelist",
			"outputs": [
				{
					"name": "",
					"type": "bool"
				}
			],
			"payable": false,
			"stateMutability": "view",
			"type": "function"
		},
		{
			"constant": true,
			"inputs": [
				{
					"name": "",
					"type": "uint256"
				}
			],
			"name": "settingValue",
			"outputs": [
				{
					"name": "",
					"type": "uint256"
				}
			],
			"payable": false,
			"stateMutability": "view",
			"type": "function"
		},
		{
			"constant": true,
			"inputs": [],
			"name": "aoDevTeam2",
			"outputs": [
				{
					"name": "",
					"type": "address"
				}
			],
			"payable": false,
			"stateMutability": "view",
			"type": "function"
		},
		{
			"constant": true,
			"inputs": [
				{
					"name": "",
					"type": "uint256"
				}
			],
			"name": "pendingValue",
			"outputs": [
				{
					"name": "",
					"type": "uint256"
				}
			],
			"payable": false,
			"stateMutability": "view",
			"type": "function"
		},
		{
			"constant": false,
			"inputs": [
				{
					"name": "_aoDevTeam1",
					"type": "address"
				},
				{
					"name": "_aoDevTeam2",
					"type": "address"
				}
			],
			"name": "setAODevTeamAddresses",
			"outputs": [],
			"payable": false,
			"stateMutability": "nonpayable",
			"type": "function"
		},
		{
			"constant": true,
			"inputs": [],
			"name": "developer",
			"outputs": [
				{
					"name": "",
					"type": "address"
				}
			],
			"payable": false,
			"stateMutability": "view",
			"type": "function"
		},
		{
			"constant": false,
			"inputs": [
				{
					"name": "newDeveloper",
					"type": "address"
				}
			],
			"name": "transferOwnership",
			"outputs": [],
			"payable": false,
			"stateMutability": "nonpayable",
			"type": "function"
		},
		{
			"inputs": [],
			"payable": false,
			"stateMutability": "nonpayable",
			"type": "constructor"
		},
		{
			"constant": false,
			"inputs": [
				{
					"name": "_settingId",
					"type": "uint256"
				},
				{
					"name": "_value",
					"type": "uint256"
				}
			],
			"name": "setPendingValue",
			"outputs": [],
			"payable": false,
			"stateMutability": "nonpayable",
			"type": "function"
		},
		{
			"constant": false,
			"inputs": [
				{
					"name": "_settingId",
					"type": "uint256"
				}
			],
			"name": "movePendingToSetting",
			"outputs": [],
			"payable": false,
			"stateMutability": "nonpayable",
			"type": "function"
		}
	],
	"bytecode": "0x608060405260018054600160a060020a0319908116735c63644d01ba385ebac5bcf2ddc1e6dbc1182b52179091556002805490911673156c79bf4347d1891da834ea30662a14177cbf2817905534801561005857600080fd5b5060008054600160a060020a031916331790556104448061007a6000396000f3006080604052600436106100ae5763ffffffff7c0100000000000000000000000000000000000000000000000000000000600035041663088fc1a881146100b357806315227aa7146100cd57806353d6fd59146100fe5780639b19251a146101245780639ba535ce14610159578063a99433a614610183578063af9e8b1614610198578063b238724b146101b0578063b24626e9146101cb578063ca4b208b146101f2578063f2fde38b14610207575b600080fd5b3480156100bf57600080fd5b506100cb600435610228565b005b3480156100d957600080fd5b506100e261028a565b60408051600160a060020a039092168252519081900360200190f35b34801561010a57600080fd5b506100cb600160a060020a03600435166024351515610299565b34801561013057600080fd5b50610145600160a060020a03600435166102db565b604080519115158252519081900360200190f35b34801561016557600080fd5b506101716004356102f0565b60408051918252519081900360200190f35b34801561018f57600080fd5b506100e2610302565b3480156101a457600080fd5b50610171600435610311565b3480156101bc57600080fd5b506100cb600435602435610323565b3480156101d757600080fd5b506100cb600160a060020a0360043581169060243516610371565b3480156101fe57600080fd5b506100e26103c3565b34801561021357600080fd5b506100cb600160a060020a03600435166103d2565b3360008181526003602052604081205490919060ff1615156001148061025b5750600054600160a060020a038281169116145b151561026657600080fd5b50506000908152600560209081526040808320805490849055600490925290912055565b600154600160a060020a031681565b600054600160a060020a031633146102b057600080fd5b600160a060020a03919091166000908152600360205260409020805460ff1916911515919091179055565b60036020526000908152604090205460ff1681565b60046020526000908152604090205481565b600254600160a060020a031681565b60056020526000908152604090205481565b3360008181526003602052604090205460ff161515600114806103535750600054600160a060020a038281169116145b151561035e57600080fd5b5060009182526005602052604090912055565b600054600160a060020a0316331461038857600080fd5b60018054600160a060020a0393841673ffffffffffffffffffffffffffffffffffffffff199182161790915560028054929093169116179055565b600054600160a060020a031681565b600054600160a060020a031633146103e957600080fd5b6000805473ffffffffffffffffffffffffffffffffffffffff1916600160a060020a03929092169190911790555600a165627a7a72305820d518664815eff2874ded29123772b33e19881a0dba7ccab535e88663f3185c010029",
	"source": "pragma solidity ^0.4.24;\n\nimport './developed.sol';\n\n/**\n * @title AOUintSetting\n *\n * This contract stores all AO uint256 setting variables\n */\ncontract AOUintSetting is developed {\n\t// Mapping from settingId to it's actual uint256 value\n\tmapping (uint256 => uint256) public settingValue;\n\n\t// Mapping from settingId to it's potential uint256 value that is at pending state\n\tmapping (uint256 => uint256) public pendingValue;\n\n\t/**\n\t * @dev Constructor function\n\t */\n\tconstructor() public {}\n\n\t/**\n\t * @dev Set pending value\n\t * @param _settingId The ID of the setting\n\t * @param _value The uint256 value to be set\n\t */\n\tfunction setPendingValue(uint256 _settingId, uint256 _value) public inWhitelist(msg.sender) {\n\t\tpendingValue[_settingId] = _value;\n\t}\n\n\t/**\n\t * @dev Move value from pending to setting\n\t * @param _settingId The ID of the setting\n\t */\n\tfunction movePendingToSetting(uint256 _settingId) public inWhitelist(msg.sender) {\n\t\tuint256 _tempValue = pendingValue[_settingId];\n\t\tdelete pendingValue[_settingId];\n\t\tsettingValue[_settingId] = _tempValue;\n\t}\n}\n",
	"sourcePath": "/home/jmulyono/ao-contracts/contracts/AOUintSetting.sol",
	"compiler": {
		"name": "solc",
		"version": "0.4.24+commit.e67f0147.Emscripten.clang"
	},
	"schemaVersion": "2.0.1",
	"updatedAt": "2018-12-11T08:43:54.393Z"
}