{
	"contractName": "AOXona",
	"abi": [
		{
			"constant": false,
			"inputs": [
				{
					"name": "newSellPrice",
					"type": "uint256"
				},
				{
					"name": "newBuyPrice",
					"type": "uint256"
				}
			],
			"name": "setPrices",
			"outputs": [],
			"payable": false,
			"stateMutability": "nonpayable",
			"type": "function"
		},
		{
			"constant": true,
			"inputs": [],
			"name": "name",
			"outputs": [
				{
					"name": "",
					"type": "string"
				}
			],
			"payable": false,
			"stateMutability": "view",
			"type": "function"
		},
		{
			"constant": true,
			"inputs": [
				{
					"name": "_lotId",
					"type": "bytes32"
				}
			],
			"name": "lotById",
			"outputs": [
				{
					"name": "",
					"type": "bytes32"
				},
				{
					"name": "",
					"type": "address"
				},
				{
					"name": "",
					"type": "uint256"
				},
				{
					"name": "",
					"type": "uint256"
				}
			],
			"payable": false,
			"stateMutability": "view",
			"type": "function"
		},
		{
			"constant": false,
			"inputs": [
				{
					"name": "_spender",
					"type": "address"
				},
				{
					"name": "_value",
					"type": "uint256"
				}
			],
			"name": "approve",
			"outputs": [
				{
					"name": "success",
					"type": "bool"
				}
			],
			"payable": false,
			"stateMutability": "nonpayable",
			"type": "function"
		},
		{
			"constant": true,
			"inputs": [],
			"name": "powerOfTen",
			"outputs": [
				{
					"name": "",
					"type": "uint256"
				}
			],
			"payable": false,
			"stateMutability": "view",
			"type": "function"
		},
		{
			"constant": true,
			"inputs": [
				{
					"name": "_purchaseAmount",
					"type": "uint256"
				}
			],
			"name": "calculateMultiplierAndBonus",
			"outputs": [
				{
					"name": "",
					"type": "uint256"
				},
				{
					"name": "",
					"type": "uint256"
				},
				{
					"name": "",
					"type": "uint256"
				}
			],
			"payable": false,
			"stateMutability": "view",
			"type": "function"
		},
		{
			"constant": true,
			"inputs": [],
			"name": "aoDevTeam1",
			"outputs": [
				{
					"name": "",
					"type": "address"
				}
			],
			"payable": false,
			"stateMutability": "view",
			"type": "function"
		},
		{
			"constant": true,
			"inputs": [
				{
					"name": "",
					"type": "address"
				},
				{
					"name": "",
					"type": "uint256"
				}
			],
			"name": "primordialStakedBalance",
			"outputs": [
				{
					"name": "",
					"type": "uint256"
				}
			],
			"payable": false,
			"stateMutability": "view",
			"type": "function"
		},
		{
			"constant": true,
			"inputs": [
				{
					"name": "_lotOwner",
					"type": "address"
				}
			],
			"name": "lotIdsByAddress",
			"outputs": [
				{
					"name": "",
					"type": "bytes32[]"
				}
			],
			"payable": false,
			"stateMutability": "view",
			"type": "function"
		},
		{
			"constant": true,
			"inputs": [],
			"name": "totalSupply",
			"outputs": [
				{
					"name": "",
					"type": "uint256"
				}
			],
			"payable": false,
			"stateMutability": "view",
			"type": "function"
		},
		{
			"constant": true,
			"inputs": [],
			"name": "aoSettingAddress",
			"outputs": [
				{
					"name": "",
					"type": "address"
				}
			],
			"payable": false,
			"stateMutability": "view",
			"type": "function"
		},
		{
			"constant": false,
			"inputs": [
				{
					"name": "_from",
					"type": "address"
				},
				{
					"name": "_to",
					"type": "address"
				},
				{
					"name": "_value",
					"type": "uint256"
				}
			],
			"name": "transferFrom",
			"outputs": [
				{
					"name": "success",
					"type": "bool"
				}
			],
			"payable": false,
			"stateMutability": "nonpayable",
			"type": "function"
		},
		{
			"constant": false,
			"inputs": [
				{
					"name": "target",
					"type": "address"
				},
				{
					"name": "mintedAmount",
					"type": "uint256"
				}
			],
			"name": "mintTokenEscrow",
			"outputs": [
				{
					"name": "",
					"type": "bool"
				}
			],
			"payable": false,
			"stateMutability": "nonpayable",
			"type": "function"
		},
		{
			"constant": true,
			"inputs": [
				{
					"name": "_lotOwner",
					"type": "address"
				}
			],
			"name": "weightedMultiplierByAddress",
			"outputs": [
				{
					"name": "",
					"type": "uint256"
				}
			],
			"payable": false,
			"stateMutability": "view",
			"type": "function"
		},
		{
			"constant": true,
			"inputs": [],
			"name": "primordialSellPrice",
			"outputs": [
				{
					"name": "",
					"type": "uint256"
				}
			],
			"payable": false,
			"stateMutability": "view",
			"type": "function"
		},
		{
			"constant": true,
			"inputs": [],
			"name": "totalConvertLots",
			"outputs": [
				{
					"name": "",
					"type": "uint256"
				}
			],
			"payable": false,
			"stateMutability": "view",
			"type": "function"
		},
		{
			"constant": true,
			"inputs": [],
			"name": "decimals",
			"outputs": [
				{
					"name": "",
					"type": "uint8"
				}
			],
			"payable": false,
			"stateMutability": "view",
			"type": "function"
		},
		{
			"constant": false,
			"inputs": [
				{
					"name": "_from",
					"type": "address"
				},
				{
					"name": "_value",
					"type": "uint256"
				}
			],
			"name": "stakeFrom",
			"outputs": [
				{
					"name": "",
					"type": "bool"
				}
			],
			"payable": false,
			"stateMutability": "nonpayable",
			"type": "function"
		},
		{
			"constant": true,
			"inputs": [
				{
					"name": "_lotOwner",
					"type": "address"
				}
			],
			"name": "totalBurnLotsByAddress",
			"outputs": [
				{
					"name": "",
					"type": "uint256"
				}
			],
			"payable": false,
			"stateMutability": "view",
			"type": "function"
		},
		{
			"constant": true,
			"inputs": [],
			"name": "totalLots",
			"outputs": [
				{
					"name": "",
					"type": "uint256"
				}
			],
			"payable": false,
			"stateMutability": "view",
			"type": "function"
		},
		{
			"constant": true,
			"inputs": [
				{
					"name": "_target",
					"type": "address"
				}
			],
			"name": "maxMultiplierByAddress",
			"outputs": [
				{
					"name": "",
					"type": "uint256"
				}
			],
			"payable": false,
			"stateMutability": "view",
			"type": "function"
		},
		{
			"constant": false,
			"inputs": [
				{
					"name": "_spender",
					"type": "address"
				},
				{
					"name": "_value",
					"type": "uint256"
				},
				{
					"name": "_primordialValue",
					"type": "uint256"
				},
				{
					"name": "_extraData",
					"type": "bytes"
				}
			],
			"name": "approveTokensAndCall",
			"outputs": [
				{
					"name": "success",
					"type": "bool"
				}
			],
			"payable": false,
			"stateMutability": "nonpayable",
			"type": "function"
		},
		{
			"constant": true,
			"inputs": [
				{
					"name": "_burnLotId",
					"type": "bytes32"
				}
			],
			"name": "burnLotById",
			"outputs": [
				{
					"name": "",
					"type": "bytes32"
				},
				{
					"name": "",
					"type": "address"
				},
				{
					"name": "",
					"type": "uint256"
				}
			],
			"payable": false,
			"stateMutability": "view",
			"type": "function"
		},
		{
			"constant": true,
			"inputs": [],
			"name": "settingThoughtId",
			"outputs": [
				{
					"name": "",
					"type": "address"
				}
			],
			"payable": false,
			"stateMutability": "view",
			"type": "function"
		},
		{
			"constant": true,
			"inputs": [],
			"name": "totalBurnLots",
			"outputs": [
				{
					"name": "",
					"type": "uint256"
				}
			],
			"payable": false,
			"stateMutability": "view",
			"type": "function"
		},
		{
			"constant": false,
			"inputs": [
				{
					"name": "_value",
					"type": "uint256"
				}
			],
			"name": "burn",
			"outputs": [
				{
					"name": "success",
					"type": "bool"
				}
			],
			"payable": false,
			"stateMutability": "nonpayable",
			"type": "function"
		},
		{
			"constant": false,
			"inputs": [],
			"name": "buyPrimordialToken",
			"outputs": [],
			"payable": true,
			"stateMutability": "payable",
			"type": "function"
		},
		{
			"constant": true,
			"inputs": [],
			"name": "sellPrice",
			"outputs": [
				{
					"name": "",
					"type": "uint256"
				}
			],
			"payable": false,
			"stateMutability": "view",
			"type": "function"
		},
		{
			"constant": false,
			"inputs": [
				{
					"name": "_value",
					"type": "uint256"
				}
			],
			"name": "burnPrimordialToken",
			"outputs": [
				{
					"name": "success",
					"type": "bool"
				}
			],
			"payable": false,
			"stateMutability": "nonpayable",
			"type": "function"
		},
		{
			"constant": true,
			"inputs": [
				{
					"name": "",
					"type": "address"
				}
			],
			"name": "escrowedBalance",
			"outputs": [
				{
					"name": "",
					"type": "uint256"
				}
			],
			"payable": false,
			"stateMutability": "view",
			"type": "function"
		},
		{
			"constant": false,
			"inputs": [
				{
					"name": "_account",
					"type": "address"
				},
				{
					"name": "_whitelist",
					"type": "bool"
				}
			],
			"name": "setWhitelist",
			"outputs": [],
			"payable": false,
			"stateMutability": "nonpayable",
			"type": "function"
		},
		{
			"constant": true,
			"inputs": [
				{
					"name": "_lotOwner",
					"type": "address"
				},
				{
					"name": "_index",
					"type": "uint256"
				}
			],
			"name": "lotOfOwnerByIndex",
			"outputs": [
				{
					"name": "",
					"type": "bytes32"
				},
				{
					"name": "",
					"type": "address"
				},
				{
					"name": "",
					"type": "uint256"
				},
				{
					"name": "",
					"type": "uint256"
				}
			],
			"payable": false,
			"stateMutability": "view",
			"type": "function"
		},
		{
			"constant": true,
			"inputs": [
				{
					"name": "",
					"type": "address"
				}
			],
			"name": "primordialBalanceOf",
			"outputs": [
				{
					"name": "",
					"type": "uint256"
				}
			],
			"payable": false,
			"stateMutability": "view",
			"type": "function"
		},
		{
			"constant": false,
			"inputs": [
				{
					"name": "_spender",
					"type": "address"
				},
				{
					"name": "_value",
					"type": "uint256"
				},
				{
					"name": "_primordialValue",
					"type": "uint256"
				}
			],
			"name": "approveTokens",
			"outputs": [
				{
					"name": "success",
					"type": "bool"
				}
			],
			"payable": false,
			"stateMutability": "nonpayable",
			"type": "function"
		},
		{
			"constant": true,
			"inputs": [
				{
					"name": "",
					"type": "address"
				}
			],
			"name": "stakedBalance",
			"outputs": [
				{
					"name": "",
					"type": "uint256"
				}
			],
			"payable": false,
			"stateMutability": "view",
			"type": "function"
		},
		{
			"constant": false,
			"inputs": [
				{
					"name": "_from",
					"type": "address"
				},
				{
					"name": "_to",
					"type": "address"
				},
				{
					"name": "_value",
					"type": "uint256"
				}
			],
			"name": "transferPrimordialTokenFrom",
			"outputs": [
				{
					"name": "success",
					"type": "bool"
				}
			],
			"payable": false,
			"stateMutability": "nonpayable",
			"type": "function"
		},
		{
			"constant": true,
			"inputs": [],
			"name": "TOTAL_PRIMORDIAL_FOR_SALE",
			"outputs": [
				{
					"name": "",
					"type": "uint256"
				}
			],
			"payable": false,
			"stateMutability": "view",
			"type": "function"
		},
		{
			"constant": true,
			"inputs": [
				{
					"name": "_lotOwner",
					"type": "address"
				}
			],
			"name": "burnLotIdsByAddress",
			"outputs": [
				{
					"name": "",
					"type": "bytes32[]"
				}
			],
			"payable": false,
			"stateMutability": "view",
			"type": "function"
		},
		{
			"constant": true,
			"inputs": [
				{
					"name": "",
					"type": "address"
				}
			],
			"name": "balanceOf",
			"outputs": [
				{
					"name": "",
					"type": "uint256"
				}
			],
			"payable": false,
			"stateMutability": "view",
			"type": "function"
		},
		{
			"constant": true,
			"inputs": [],
			"name": "primordialBuyPrice",
			"outputs": [
				{
					"name": "",
					"type": "uint256"
				}
			],
			"payable": false,
			"stateMutability": "view",
			"type": "function"
		},
		{
			"constant": false,
			"inputs": [
				{
					"name": "_from",
					"type": "address"
				},
				{
					"name": "_value",
					"type": "uint256"
				}
			],
			"name": "unstakeFrom",
			"outputs": [
				{
					"name": "",
					"type": "bool"
				}
			],
			"payable": false,
			"stateMutability": "nonpayable",
			"type": "function"
		},
		{
			"constant": false,
			"inputs": [
				{
					"name": "_from",
					"type": "address"
				},
				{
					"name": "_value",
					"type": "uint256"
				},
				{
					"name": "_weightedMultiplier",
					"type": "uint256"
				}
			],
			"name": "unstakePrimordialTokenFrom",
			"outputs": [
				{
					"name": "",
					"type": "bool"
				}
			],
			"payable": false,
			"stateMutability": "nonpayable",
			"type": "function"
		},
		{
			"constant": false,
			"inputs": [
				{
					"name": "target",
					"type": "address"
				},
				{
					"name": "mintedAmount",
					"type": "uint256"
				}
			],
			"name": "mintToken",
			"outputs": [
				{
					"name": "",
					"type": "bool"
				}
			],
			"payable": false,
			"stateMutability": "nonpayable",
			"type": "function"
		},
		{
			"constant": false,
			"inputs": [
				{
					"name": "_from",
					"type": "address"
				},
				{
					"name": "_value",
					"type": "uint256"
				}
			],
			"name": "burnFrom",
			"outputs": [
				{
					"name": "success",
					"type": "bool"
				}
			],
			"payable": false,
			"stateMutability": "nonpayable",
			"type": "function"
		},
		{
			"constant": false,
			"inputs": [
				{
					"name": "_from",
					"type": "address"
				},
				{
					"name": "_value",
					"type": "uint256"
				},
				{
					"name": "_weightedMultiplier",
					"type": "uint256"
				}
			],
			"name": "stakePrimordialTokenFrom",
			"outputs": [
				{
					"name": "",
					"type": "bool"
				}
			],
			"payable": false,
			"stateMutability": "nonpayable",
			"type": "function"
		},
		{
			"constant": true,
			"inputs": [],
			"name": "primordialTotalSupply",
			"outputs": [
				{
					"name": "",
					"type": "uint256"
				}
			],
			"payable": false,
			"stateMutability": "view",
			"type": "function"
		},
		{
			"constant": true,
			"inputs": [],
			"name": "buyPrice",
			"outputs": [
				{
					"name": "",
					"type": "uint256"
				}
			],
			"payable": false,
			"stateMutability": "view",
			"type": "function"
		},
		{
			"constant": false,
			"inputs": [
				{
					"name": "_from",
					"type": "address"
				},
				{
					"name": "_to",
					"type": "address"
				},
				{
					"name": "_value",
					"type": "uint256"
				}
			],
			"name": "escrowFrom",
			"outputs": [
				{
					"name": "",
					"type": "bool"
				}
			],
			"payable": false,
			"stateMutability": "nonpayable",
			"type": "function"
		},
		{
			"constant": false,
			"inputs": [
				{
					"name": "_from",
					"type": "address"
				},
				{
					"name": "_value",
					"type": "uint256"
				}
			],
			"name": "unescrowFrom",
			"outputs": [
				{
					"name": "",
					"type": "bool"
				}
			],
			"payable": false,
			"stateMutability": "nonpayable",
			"type": "function"
		},
		{
			"constant": false,
			"inputs": [
				{
					"name": "_value",
					"type": "uint256"
				},
				{
					"name": "_primordialValue",
					"type": "uint256"
				}
			],
			"name": "burnTokens",
			"outputs": [
				{
					"name": "success",
					"type": "bool"
				}
			],
			"payable": false,
			"stateMutability": "nonpayable",
			"type": "function"
		},
		{
			"constant": true,
			"inputs": [],
			"name": "symbol",
			"outputs": [
				{
					"name": "",
					"type": "string"
				}
			],
			"payable": false,
			"stateMutability": "view",
			"type": "function"
		},
		{
			"constant": true,
			"inputs": [
				{
					"name": "",
					"type": "address"
				}
			],
			"name": "whitelist",
			"outputs": [
				{
					"name": "",
					"type": "bool"
				}
			],
			"payable": false,
			"stateMutability": "view",
			"type": "function"
		},
		{
			"constant": false,
			"inputs": [
				{
					"name": "_from",
					"type": "address"
				},
				{
					"name": "_to",
					"type": "address"
				},
				{
					"name": "_value",
					"type": "uint256"
				}
			],
			"name": "whitelistTransferFrom",
			"outputs": [
				{
					"name": "success",
					"type": "bool"
				}
			],
			"payable": false,
			"stateMutability": "nonpayable",
			"type": "function"
		},
		{
			"constant": true,
			"inputs": [],
			"name": "networkExchangeEnded",
			"outputs": [
				{
					"name": "",
					"type": "bool"
				}
			],
			"payable": false,
			"stateMutability": "view",
			"type": "function"
		},
		{
			"constant": false,
			"inputs": [],
			"name": "buy",
			"outputs": [],
			"payable": true,
			"stateMutability": "payable",
			"type": "function"
		},
		{
			"constant": false,
			"inputs": [
				{
					"name": "_to",
					"type": "address"
				},
				{
					"name": "_value",
					"type": "uint256"
				}
			],
			"name": "transfer",
			"outputs": [
				{
					"name": "success",
					"type": "bool"
				}
			],
			"payable": false,
			"stateMutability": "nonpayable",
			"type": "function"
		},
		{
			"constant": false,
			"inputs": [
				{
					"name": "newPrimordialSellPrice",
					"type": "uint256"
				},
				{
					"name": "newPrimordialBuyPrice",
					"type": "uint256"
				}
			],
			"name": "setPrimordialPrices",
			"outputs": [],
			"payable": false,
			"stateMutability": "nonpayable",
			"type": "function"
		},
		{
			"constant": true,
			"inputs": [],
			"name": "aoDevTeam2",
			"outputs": [
				{
					"name": "",
					"type": "address"
				}
			],
			"payable": false,
			"stateMutability": "view",
			"type": "function"
		},
		{
			"constant": false,
			"inputs": [
				{
					"name": "_to",
					"type": "address"
				},
				{
					"name": "_value",
					"type": "uint256"
				},
				{
					"name": "_primordialValue",
					"type": "uint256"
				}
			],
			"name": "transferTokens",
			"outputs": [
				{
					"name": "success",
					"type": "bool"
				}
			],
			"payable": false,
			"stateMutability": "nonpayable",
			"type": "function"
		},
		{
			"constant": false,
			"inputs": [
				{
					"name": "_spender",
					"type": "address"
				},
				{
					"name": "_value",
					"type": "uint256"
				}
			],
			"name": "approvePrimordialToken",
			"outputs": [
				{
					"name": "success",
					"type": "bool"
				}
			],
			"payable": false,
			"stateMutability": "nonpayable",
			"type": "function"
		},
		{
			"constant": true,
			"inputs": [],
			"name": "primordialTotalBought",
			"outputs": [
				{
					"name": "",
					"type": "uint256"
				}
			],
			"payable": false,
			"stateMutability": "view",
			"type": "function"
		},
		{
			"constant": true,
			"inputs": [
				{
					"name": "_convertLotId",
					"type": "bytes32"
				}
			],
			"name": "convertLotById",
			"outputs": [
				{
					"name": "",
					"type": "bytes32"
				},
				{
					"name": "",
					"type": "address"
				},
				{
					"name": "",
					"type": "uint256"
				}
			],
			"payable": false,
			"stateMutability": "view",
			"type": "function"
		},
		{
			"constant": false,
			"inputs": [
				{
					"name": "_from",
					"type": "address"
				},
				{
					"name": "_value",
					"type": "uint256"
				}
			],
			"name": "whitelistBurnFrom",
			"outputs": [
				{
					"name": "success",
					"type": "bool"
				}
			],
			"payable": false,
			"stateMutability": "nonpayable",
			"type": "function"
		},
		{
			"constant": false,
			"inputs": [
				{
					"name": "_aoDevTeam1",
					"type": "address"
				},
				{
					"name": "_aoDevTeam2",
					"type": "address"
				}
			],
			"name": "setAODevTeamAddresses",
			"outputs": [],
			"payable": false,
			"stateMutability": "nonpayable",
			"type": "function"
		},
		{
			"constant": true,
			"inputs": [
				{
					"name": "",
					"type": "address"
				}
			],
			"name": "frozenAccount",
			"outputs": [
				{
					"name": "",
					"type": "bool"
				}
			],
			"payable": false,
			"stateMutability": "view",
			"type": "function"
		},
		{
			"constant": true,
			"inputs": [],
			"name": "networkExchangeContract",
			"outputs": [
				{
					"name": "",
					"type": "bool"
				}
			],
			"payable": false,
			"stateMutability": "view",
			"type": "function"
		},
		{
			"constant": false,
			"inputs": [
				{
					"name": "_from",
					"type": "address"
				},
				{
					"name": "_to",
					"type": "address"
				},
				{
					"name": "_value",
					"type": "uint256"
				},
				{
					"name": "_primordialValue",
					"type": "uint256"
				}
			],
			"name": "transferTokensFrom",
			"outputs": [
				{
					"name": "success",
					"type": "bool"
				}
			],
			"payable": false,
			"stateMutability": "nonpayable",
			"type": "function"
		},
		{
			"constant": false,
			"inputs": [
				{
					"name": "_to",
					"type": "address"
				},
				{
					"name": "_value",
					"type": "uint256"
				}
			],
			"name": "transferPrimordialToken",
			"outputs": [
				{
					"name": "success",
					"type": "bool"
				}
			],
			"payable": false,
			"stateMutability": "nonpayable",
			"type": "function"
		},
		{
			"constant": true,
			"inputs": [],
			"name": "developer",
			"outputs": [
				{
					"name": "",
					"type": "address"
				}
			],
			"payable": false,
			"stateMutability": "view",
			"type": "function"
		},
		{
			"constant": false,
			"inputs": [
				{
					"name": "_spender",
					"type": "address"
				},
				{
					"name": "_value",
					"type": "uint256"
				},
				{
					"name": "_extraData",
					"type": "bytes"
				}
			],
			"name": "approveAndCall",
			"outputs": [
				{
					"name": "success",
					"type": "bool"
				}
			],
			"payable": false,
			"stateMutability": "nonpayable",
			"type": "function"
		},
		{
			"constant": true,
			"inputs": [
				{
					"name": "_account",
					"type": "address"
				},
				{
					"name": "_amountToConvert",
					"type": "uint256"
				}
			],
			"name": "calculateMultiplierAfterConversion",
			"outputs": [
				{
					"name": "",
					"type": "uint256"
				}
			],
			"payable": false,
			"stateMutability": "view",
			"type": "function"
		},
		{
			"constant": true,
			"inputs": [
				{
					"name": "",
					"type": "address"
				},
				{
					"name": "",
					"type": "address"
				}
			],
			"name": "primordialAllowance",
			"outputs": [
				{
					"name": "",
					"type": "uint256"
				}
			],
			"payable": false,
			"stateMutability": "view",
			"type": "function"
		},
		{
			"constant": true,
			"inputs": [
				{
					"name": "_account",
					"type": "address"
				},
				{
					"name": "_amountToBurn",
					"type": "uint256"
				}
			],
			"name": "calculateMultiplierAfterBurn",
			"outputs": [
				{
					"name": "",
					"type": "uint256"
				}
			],
			"payable": false,
			"stateMutability": "view",
			"type": "function"
		},
		{
			"constant": true,
			"inputs": [
				{
					"name": "_lotOwner",
					"type": "address"
				}
			],
			"name": "totalConvertLotsByAddress",
			"outputs": [
				{
					"name": "",
					"type": "uint256"
				}
			],
			"payable": false,
			"stateMutability": "view",
			"type": "function"
		},
		{
			"constant": false,
			"inputs": [
				{
					"name": "_spender",
					"type": "address"
				},
				{
					"name": "_value",
					"type": "uint256"
				},
				{
					"name": "_extraData",
					"type": "bytes"
				}
			],
			"name": "approvePrimordialTokenAndCall",
			"outputs": [
				{
					"name": "success",
					"type": "bool"
				}
			],
			"payable": false,
			"stateMutability": "nonpayable",
			"type": "function"
		},
		{
			"constant": false,
			"inputs": [
				{
					"name": "_from",
					"type": "address"
				},
				{
					"name": "_value",
					"type": "uint256"
				},
				{
					"name": "_primordialValue",
					"type": "uint256"
				}
			],
			"name": "burnTokensFrom",
			"outputs": [
				{
					"name": "success",
					"type": "bool"
				}
			],
			"payable": false,
			"stateMutability": "nonpayable",
			"type": "function"
		},
		{
			"constant": true,
			"inputs": [
				{
					"name": "",
					"type": "address"
				},
				{
					"name": "",
					"type": "address"
				}
			],
			"name": "allowance",
			"outputs": [
				{
					"name": "",
					"type": "uint256"
				}
			],
			"payable": false,
			"stateMutability": "view",
			"type": "function"
		},
		{
			"constant": false,
			"inputs": [
				{
					"name": "_from",
					"type": "address"
				},
				{
					"name": "_value",
					"type": "uint256"
				}
			],
			"name": "burnPrimordialTokenFrom",
			"outputs": [
				{
					"name": "success",
					"type": "bool"
				}
			],
			"payable": false,
			"stateMutability": "nonpayable",
			"type": "function"
		},
		{
			"constant": false,
			"inputs": [
				{
					"name": "amount",
					"type": "uint256"
				}
			],
			"name": "sell",
			"outputs": [],
			"payable": false,
			"stateMutability": "nonpayable",
			"type": "function"
		},
		{
			"constant": false,
			"inputs": [
				{
					"name": "target",
					"type": "address"
				},
				{
					"name": "freeze",
					"type": "bool"
				}
			],
			"name": "freezeAccount",
			"outputs": [],
			"payable": false,
			"stateMutability": "nonpayable",
			"type": "function"
		},
		{
			"constant": true,
			"inputs": [
				{
					"name": "_account",
					"type": "address"
				}
			],
			"name": "calculateMaximumBurnAmount",
			"outputs": [
				{
					"name": "",
					"type": "uint256"
				}
			],
			"payable": false,
			"stateMutability": "view",
			"type": "function"
		},
		{
			"constant": false,
			"inputs": [
				{
					"name": "newDeveloper",
					"type": "address"
				}
			],
			"name": "transferOwnership",
			"outputs": [],
			"payable": false,
			"stateMutability": "nonpayable",
			"type": "function"
		},
		{
			"constant": true,
			"inputs": [
				{
					"name": "_lotOwner",
					"type": "address"
				}
			],
			"name": "convertLotIdsByAddress",
			"outputs": [
				{
					"name": "",
					"type": "bytes32[]"
				}
			],
			"payable": false,
			"stateMutability": "view",
			"type": "function"
		},
		{
			"constant": true,
			"inputs": [
				{
					"name": "_lotOwner",
					"type": "address"
				}
			],
			"name": "totalLotsByAddress",
			"outputs": [
				{
					"name": "",
					"type": "uint256"
				}
			],
			"payable": false,
			"stateMutability": "view",
			"type": "function"
		},
		{
			"constant": false,
			"inputs": [
				{
					"name": "_value",
					"type": "uint256"
				}
			],
			"name": "convertToPrimordial",
			"outputs": [
				{
					"name": "success",
					"type": "bool"
				}
			],
			"payable": false,
			"stateMutability": "nonpayable",
			"type": "function"
		},
		{
			"inputs": [
				{
					"name": "initialSupply",
					"type": "uint256"
				},
				{
					"name": "tokenName",
					"type": "string"
				},
				{
					"name": "tokenSymbol",
					"type": "string"
				},
				{
					"name": "_settingThoughtId",
					"type": "address"
				},
				{
					"name": "_aoSettingAddress",
					"type": "address"
				}
			],
			"payable": false,
			"stateMutability": "nonpayable",
			"type": "constructor"
		},
		{
			"anonymous": false,
			"inputs": [
				{
					"indexed": false,
					"name": "target",
					"type": "address"
				},
				{
					"indexed": false,
					"name": "frozen",
					"type": "bool"
				}
			],
			"name": "FrozenFunds",
			"type": "event"
		},
		{
			"anonymous": false,
			"inputs": [
				{
					"indexed": true,
					"name": "from",
					"type": "address"
				},
				{
					"indexed": false,
					"name": "value",
					"type": "uint256"
				}
			],
			"name": "Stake",
			"type": "event"
		},
		{
			"anonymous": false,
			"inputs": [
				{
					"indexed": true,
					"name": "from",
					"type": "address"
				},
				{
					"indexed": false,
					"name": "value",
					"type": "uint256"
				}
			],
			"name": "Unstake",
			"type": "event"
		},
		{
			"anonymous": false,
			"inputs": [
				{
					"indexed": true,
					"name": "from",
					"type": "address"
				},
				{
					"indexed": true,
					"name": "to",
					"type": "address"
				},
				{
					"indexed": false,
					"name": "value",
					"type": "uint256"
				}
			],
			"name": "Escrow",
			"type": "event"
		},
		{
			"anonymous": false,
			"inputs": [
				{
					"indexed": true,
					"name": "from",
					"type": "address"
				},
				{
					"indexed": false,
					"name": "value",
					"type": "uint256"
				}
			],
			"name": "Unescrow",
			"type": "event"
		},
		{
			"anonymous": false,
			"inputs": [
				{
					"indexed": true,
					"name": "from",
					"type": "address"
				},
				{
					"indexed": true,
					"name": "to",
					"type": "address"
				},
				{
					"indexed": false,
					"name": "value",
					"type": "uint256"
				}
			],
			"name": "PrimordialTransfer",
			"type": "event"
		},
		{
			"anonymous": false,
			"inputs": [
				{
					"indexed": true,
					"name": "_owner",
					"type": "address"
				},
				{
					"indexed": true,
					"name": "_spender",
					"type": "address"
				},
				{
					"indexed": false,
					"name": "_value",
					"type": "uint256"
				}
			],
			"name": "PrimordialApproval",
			"type": "event"
		},
		{
			"anonymous": false,
			"inputs": [
				{
					"indexed": true,
					"name": "from",
					"type": "address"
				},
				{
					"indexed": false,
					"name": "value",
					"type": "uint256"
				}
			],
			"name": "PrimordialBurn",
			"type": "event"
		},
		{
			"anonymous": false,
			"inputs": [
				{
					"indexed": true,
					"name": "from",
					"type": "address"
				},
				{
					"indexed": false,
					"name": "value",
					"type": "uint256"
				},
				{
					"indexed": false,
					"name": "weightedMultiplier",
					"type": "uint256"
				}
			],
			"name": "PrimordialStake",
			"type": "event"
		},
		{
			"anonymous": false,
			"inputs": [
				{
					"indexed": true,
					"name": "from",
					"type": "address"
				},
				{
					"indexed": false,
					"name": "value",
					"type": "uint256"
				},
				{
					"indexed": false,
					"name": "weightedMultiplier",
					"type": "uint256"
				}
			],
			"name": "PrimordialUnstake",
			"type": "event"
		},
		{
			"anonymous": false,
			"inputs": [
				{
					"indexed": true,
					"name": "lotOwner",
					"type": "address"
				},
				{
					"indexed": true,
					"name": "lotId",
					"type": "bytes32"
				},
				{
					"indexed": false,
					"name": "multiplier",
					"type": "uint256"
				},
				{
					"indexed": false,
					"name": "primordialTokenAmount",
					"type": "uint256"
				},
				{
					"indexed": false,
					"name": "networkTokenBonusAmount",
					"type": "uint256"
				}
			],
			"name": "LotCreation",
			"type": "event"
		},
		{
			"anonymous": false,
			"inputs": [
				{
					"indexed": true,
					"name": "lotOwner",
					"type": "address"
				},
				{
					"indexed": true,
					"name": "burnLotId",
					"type": "bytes32"
				},
				{
					"indexed": false,
					"name": "burnTokenAmount",
					"type": "uint256"
				},
				{
					"indexed": false,
					"name": "multiplierAfterBurn",
					"type": "uint256"
				}
			],
			"name": "BurnLotCreation",
			"type": "event"
		},
		{
			"anonymous": false,
			"inputs": [
				{
					"indexed": true,
					"name": "lotOwner",
					"type": "address"
				},
				{
					"indexed": true,
					"name": "convertLotId",
					"type": "bytes32"
				},
				{
					"indexed": false,
					"name": "convertTokenAmount",
					"type": "uint256"
				},
				{
					"indexed": false,
					"name": "multiplierAfterBurn",
					"type": "uint256"
				}
			],
			"name": "ConvertLotCreation",
			"type": "event"
		},
		{
			"anonymous": false,
			"inputs": [
				{
					"indexed": true,
					"name": "from",
					"type": "address"
				},
				{
					"indexed": true,
					"name": "to",
					"type": "address"
				},
				{
					"indexed": false,
					"name": "value",
					"type": "uint256"
				}
			],
			"name": "Transfer",
			"type": "event"
		},
		{
			"anonymous": false,
			"inputs": [
				{
					"indexed": true,
					"name": "_owner",
					"type": "address"
				},
				{
					"indexed": true,
					"name": "_spender",
					"type": "address"
				},
				{
					"indexed": false,
					"name": "_value",
					"type": "uint256"
				}
			],
			"name": "Approval",
			"type": "event"
		},
		{
			"anonymous": false,
			"inputs": [
				{
					"indexed": true,
					"name": "from",
					"type": "address"
				},
				{
					"indexed": false,
					"name": "value",
					"type": "uint256"
				}
			],
			"name": "Burn",
			"type": "event"
		}
	],
	"bytecode": "0x608060405260018054600160a060020a0319908116735c63644d01ba385ebac5bcf2ddc1e6dbc1182b52179091556002805490911673156c79bf4347d1891da834ea30662a14177cbf281790556006805460ff191660121790553480156200006657600080fd5b5060405162004e3c38038062004e3c8339810160409081528151602080840151838501516060860151608087015160008054600160a060020a03191633908117825560065460ff16600a0a8802600781905590825260088752979020969096559186018051949690959101939192909186918691869186918691869186918691620000f89160049190850190620001ea565b5080516200010e906005906020840190620001ea565b5050600a8054600160a060020a03808716600160a060020a031992831617909255600b805492861692821683179055600c8054909116909117905550506000600d8190556006805460ff199081169091556017805490911660011790556200018290612710640100000000620001b2810204565b5050601b600d8190556006805460ff199081169092179055601780549091169055506200028f9650505050505050565b600054600160a060020a03163314620001ca57600080fd5b60175460ff161515600114620001df57600080fd5b601591909155601655565b828054600181600116156101000203166002900490600052602060002090601f016020900481019282601f106200022d57805160ff19168380011785556200025d565b828001600101855582156200025d579182015b828111156200025d57825182559160200191906001019062000240565b506200026b9291506200026f565b5090565b6200028c91905b808211156200026b576000815560010162000276565b90565b614b9d806200029f6000396000f3006080604052600436106103c35763ffffffff60e060020a60003504166305fefda781146103c857806306fdde03146103e5578063080e74f71461046f578063095ea7b3146104b55780630aa24546146104ed5780630ac0b31f1461051457806315227aa71461054a578063153d90491461057b578063178a8f341461059f57806318160ddd146106105780631d0138ff1461062557806323b872dd1461063a57806323ceb6d814610664578063281bdaf8146106885780632b687bb9146106a95780632ffeef77146106be578063313ce567146106d357806331a8aeb3146106fe578063324b8ad214610722578063360f277b146107435780633a9c7d3d146107585780633bcd6624146107795780633be92863146107e55780633e1987351461082357806341682d971461083857806342966c681461084d57806349937e25146108655780634b7503341461086d5780634f090ab4146108825780634fbd26951461089a57806353d6fd59146108bb57806354f7dd8c146108e157806357946b8e14610905578063580b72e114610926578063602172671461094d57806367cf17c21461096e5780636aae86c3146109985780637056d1f4146109ad57806370a08231146109ce57806372d11466146109ef578063731a3b0614610a0457806374ead7b714610a2857806379c6506814610a4f57806379cc679014610a735780637e904f7b14610a97578063834e9f3114610abe5780638620410b14610ad357806387d4ca9314610ae85780638a06604514610b125780638e81c64d14610b3657806395d89b4114610b515780639b19251a14610b66578063a144a3e014610b87578063a545a5d114610bb1578063a6f2ae3a14610bc6578063a9059cbb14610bce578063a918887814610bf2578063a99433a614610c0d578063a9f7e66414610c22578063aaaf8a5214610c49578063ab7f770614610c6d578063af339ee414610c82578063b1e19d4514610c9a578063b24626e914610cbe578063b414d4b614610ce5578063ba2f817014610d06578063bdb9c11f14610d1b578063c1b9981114610d48578063ca4b208b14610d6c578063cae9ca5114610d81578063cf3e194d14610dea578063d1e5a55214610e0e578063d318386414610e35578063d58e175814610e59578063d94ca0f914610e7a578063dd1a293a14610ee3578063dd62ed3e14610f0a578063e352845514610f31578063e4849b3214610f55578063e724529c14610f6d578063ecbbd1ca14610f93578063f2fde38b14610fb4578063f39cce0114610fd5578063f5bd48c414610ff6578063faaad91d14611017575b600080fd5b3480156103d457600080fd5b506103e360043560243561102f565b005b3480156103f157600080fd5b506103fa611051565b6040805160208082528351818301528351919283929083019185019080838360005b8381101561043457818101518382015260200161041c565b50505050905090810190601f1680156104615780820380516001836020036101000a031916815260200191505b509250505060405180910390f35b34801561047b57600080fd5b506104876004356110df565b60408051948552600160a060020a039093166020850152838301919091526060830152519081900360800190f35b3480156104c157600080fd5b506104d9600160a060020a0360043516602435611156565b604080519115158252519081900360200190f35b3480156104f957600080fd5b506105026111bd565b60408051918252519081900360200190f35b34801561052057600080fd5b5061052c6004356111c3565b60408051938452602084019290925282820152519081900360600190f35b34801561055657600080fd5b5061055f611426565b60408051600160a060020a039092168252519081900360200190f35b34801561058757600080fd5b50610502600160a060020a0360043516602435611435565b3480156105ab57600080fd5b506105c0600160a060020a0360043516611452565b60408051602080825283518183015283519192839290830191858101910280838360005b838110156105fc5781810151838201526020016105e4565b505050509050019250505060405180910390f35b34801561061c57600080fd5b506105026114d4565b34801561063157600080fd5b5061055f6114da565b34801561064657600080fd5b506104d9600160a060020a03600435811690602435166044356114e9565b34801561067057600080fd5b506104d9600160a060020a0360043516602435611558565b34801561069457600080fd5b50610502600160a060020a0360043516611638565b3480156106b557600080fd5b5061050261166b565b3480156106ca57600080fd5b50610502611671565b3480156106df57600080fd5b506106e8611677565b6040805160ff9092168252519081900360200190f35b34801561070a57600080fd5b506104d9600160a060020a0360043516602435611680565b34801561072e57600080fd5b50610502600160a060020a036004351661179d565b34801561074f57600080fd5b506105026117d0565b34801561076457600080fd5b50610502600160a060020a03600435166117d6565b34801561078557600080fd5b50604080516020601f6064356004818101359283018490048402850184019095528184526104d994600160a060020a03813516946024803595604435953695608494930191819084018382808284375094975061182e9650505050505050565b3480156107f157600080fd5b506107fd60043561187c565b60408051938452600160a060020a03909216602084015282820152519081900360600190f35b34801561082f57600080fd5b5061055f6118e3565b34801561084457600080fd5b506105026118f2565b34801561085957600080fd5b506104d96004356118f8565b6103e3611970565b34801561087957600080fd5b50610502611a46565b34801561088e57600080fd5b506104d9600435611a4c565b3480156108a657600080fd5b50610502600160a060020a0360043516611b38565b3480156108c757600080fd5b506103e3600160a060020a03600435166024351515611b4a565b3480156108ed57600080fd5b50610487600160a060020a0360043516602435611b8c565b34801561091157600080fd5b50610502600160a060020a0360043516611c66565b34801561093257600080fd5b506104d9600160a060020a0360043516602435604435611c78565b34801561095957600080fd5b50610502600160a060020a0360043516611cb9565b34801561097a57600080fd5b506104d9600160a060020a0360043581169060243516604435611ccb565b3480156109a457600080fd5b50610502611f5e565b3480156109b957600080fd5b506105c0600160a060020a0360043516611f69565b3480156109da57600080fd5b50610502600160a060020a0360043516611fe9565b3480156109fb57600080fd5b50610502611ffb565b348015610a1057600080fd5b506104d9600160a060020a0360043516602435612001565b348015610a3457600080fd5b506104d9600160a060020a036004351660243560443561211e565b348015610a5b57600080fd5b506104d9600160a060020a036004351660243561227c565b348015610a7f57600080fd5b506104d9600160a060020a03600435166024356122c4565b348015610aa357600080fd5b506104d9600160a060020a0360043516602435604435612395565b348015610aca57600080fd5b50610502612503565b348015610adf57600080fd5b50610502612509565b348015610af457600080fd5b506104d9600160a060020a036004358116906024351660443561250f565b348015610b1e57600080fd5b506104d9600160a060020a0360043516602435612639565b348015610b4257600080fd5b506104d9600435602435612756565b348015610b5d57600080fd5b506103fa61279e565b348015610b7257600080fd5b506104d9600160a060020a03600435166127f9565b348015610b9357600080fd5b506104d9600160a060020a036004358116906024351660443561280e565b348015610bbd57600080fd5b506104d9612857565b6103e3612860565b348015610bda57600080fd5b506104d9600160a060020a0360043516602435612896565b348015610bfe57600080fd5b506103e36004356024356128a3565b348015610c1957600080fd5b5061055f6128d9565b348015610c2e57600080fd5b506104d9600160a060020a03600435166024356044356128e8565b348015610c5557600080fd5b506104d9600160a060020a036004351660243561291e565b348015610c7957600080fd5b5061050261299c565b348015610c8e57600080fd5b506107fd6004356129a2565b348015610ca657600080fd5b506104d9600160a060020a0360043516602435612a0b565b348015610cca57600080fd5b506103e3600160a060020a0360043581169060243516612b0f565b348015610cf157600080fd5b506104d9600160a060020a0360043516612b61565b348015610d1257600080fd5b506104d9612b76565b348015610d2757600080fd5b506104d9600160a060020a0360043581169060243516604435606435612b7f565b348015610d5457600080fd5b506104d9600160a060020a0360043516602435612bb7565b348015610d7857600080fd5b5061055f612dc2565b348015610d8d57600080fd5b50604080516020600460443581810135601f81018490048402850184019095528484526104d9948235600160a060020a0316946024803595369594606494920191908190840183828082843750949750612dd19650505050505050565b348015610df657600080fd5b50610502600160a060020a0360043516602435612ee6565b348015610e1a57600080fd5b50610502600160a060020a0360043581169060243516612fc7565b348015610e4157600080fd5b50610502600160a060020a0360043516602435612fe4565b348015610e6557600080fd5b50610502600160a060020a03600435166130a7565b348015610e8657600080fd5b50604080516020600460443581810135601f81018490048402850184019095528484526104d9948235600160a060020a03169460248035953695946064949201919081908401838280828437509497506130da9650505050505050565b348015610eef57600080fd5b506104d9600160a060020a03600435166024356044356130ff565b348015610f1657600080fd5b50610502600160a060020a0360043581169060243516613135565b348015610f3d57600080fd5b506104d9600160a060020a0360043516602435613152565b348015610f6157600080fd5b506103e36004356132db565b348015610f7957600080fd5b506103e3600160a060020a0360043516602435151561336c565b348015610f9f57600080fd5b50610502600160a060020a03600435166133e7565b348015610fc057600080fd5b506103e3600160a060020a03600435166134d3565b348015610fe157600080fd5b506105c0600160a060020a0360043516613519565b34801561100257600080fd5b50610502600160a060020a0360043516613599565b34801561102357600080fd5b506104d96004356135cc565b600054600160a060020a0316331461104657600080fd5b600e91909155600f55565b6004805460408051602060026001851615610100026000190190941693909304601f810184900484028201840190925281815292918301828280156110d75780601f106110ac576101008083540402835291602001916110d7565b820191906000526020600020905b8154815290600101906020018083116110ba57829003601f168201915b505050505081565b6000806000806110ed614b2a565b60175460ff16151560011461110157600080fd5b50505060009283525050601f60209081526040918290208251608081018452815480825260018301549382018490526002830154600160a060020a031694820185905260039092015460609091018190529093565b336000818152600960209081526040808320600160a060020a038716808552908352818420869055815186815291519394909390927f8c5be1e5ebec7d5bd14f71427d1e84f3dd0314c0f7b2291e5b200ac8c7c3b925928290030190a35060015b92915050565b600d5481565b60175460009081908190819081908190819060ff1615156001146111e657600080fd5b6111ee6137bc565b935093509350935073__AOLibrary_____________________________63c35f4bbb896603fffffffffffc60145488886040518663ffffffff1660e060020a028152600401808681526020018581526020018481526020018381526020018281526020019550505050505060206040518083038186803b15801561127157600080fd5b505af4158015611285573d6000803e3d6000fd5b505050506040513d602081101561129b57600080fd5b5051601454604080517f8f8bd64c000000000000000000000000000000000000000000000000000000008152600481018c90526603fffffffffffc6024820152604481019290925260648201859052608482018490525173__AOLibrary_____________________________91638f8bd64c9160a4808301926020929190829003018186803b15801561132d57600080fd5b505af4158015611341573d6000803e3d6000fd5b505050506040513d602081101561135757600080fd5b5051601454604080517fe9cfa745000000000000000000000000000000000000000000000000000000008152600481018d90526603fffffffffffc6024820152604481019290925260648201869052608482018590525173__AOLibrary_____________________________9163e9cfa7459160a4808301926020929190829003018186803b1580156113e957600080fd5b505af41580156113fd573d6000803e3d6000fd5b505050506040513d602081101561141357600080fd5b5051919a90995090975095505050505050565b600154600160a060020a031681565b601a60209081526000928352604080842090915290825290205481565b60175460609060ff16151560011461146957600080fd5b600160a060020a038216600090815260226020908152604091829020805483518184028101840190945280845290918301828280156114c857602002820191906000526020600020905b815481526001909101906020018083116114b3575b50505050509050919050565b60075481565b600b54600160a060020a031681565b600160a060020a038316600090815260096020908152604080832033845290915281205482111561151957600080fd5b600160a060020a038416600090815260096020908152604080832033845290915290208054839003905561154e848484613d06565b5060019392505050565b3360008181526003602052604081205490919060ff1615156001148061158b5750600054600160a060020a038281169116145b151561159657600080fd5b600160a060020a0384166000908152601260205260409020546115bf908463ffffffff613ee816565b600160a060020a0385166000908152601260205260409020556007546115eb908463ffffffff613ee816565b600755604080518481529051600160a060020a0386169130917f812c3251d8b2cd027716a7651ace6f9167d7fba4db9eb10df2e0cfe8b7fa48c99181900360200190a35060019392505050565b60175460009060ff16151560011461164f57600080fd5b50600160a060020a031660009081526025602052604090205490565b60155481565b601d5481565b60065460ff1681565b3360008181526003602052604081205490919060ff161515600114806116b35750600054600160a060020a038281169116145b15156116be57600080fd5b600160a060020a0384166000908152600860205260409020548311156116e357600080fd5b600160a060020a03841660009081526008602052604090205461170c908463ffffffff613ef516565b600160a060020a038516600090815260086020908152604080832093909355601190522054611741908463ffffffff613ee816565b600160a060020a038516600081815260116020908152604091829020939093558051868152905191927febedb8b3c678666e7f36970bc8f57abf6d8fa2e828c0da91ea5b75bf68ed101a92918290030190a25060019392505050565b60175460009060ff1615156001146117b457600080fd5b50600160a060020a031660009081526023602052604090205490565b601b5481565b60175460009060ff1615156001146117ed57600080fd5b600160a060020a038216600090815260226020526040812054116118125760006111b7565b50600160a060020a031660009081526026602052604090205490565b60175460009060ff16151560011461184557600080fd5b611850858584612dd1565b151561185b57600080fd5b6118668584846130da565b151561187157600080fd5b506001949350505050565b6000806000611889614b51565b60175460ff16151560011461189d57600080fd5b5050506000918252506020808052604091829020825160608101845281548082526001830154600160a060020a0316938201849052600290920154930183905292909190565b600a54600160a060020a031681565b601c5481565b3360009081526008602052604081205482111561191457600080fd5b3360008181526008602090815260409182902080548690039055600780548690039055815185815291517fcc16f5dbb4873280815c1ee09dbd06736cffcc184412cf7a71a0fdb75d397ca59281900390910190a2506001919050565b6017546000908190819060ff16151560011461198b57600080fd5b601e54349060ff161580156119a857506603fffffffffffc601454105b80156119b657506000601654115b80156119c25750600081115b15156119cd57600080fd5b6119d634613f07565b91955093509150600084116119ea57600080fd5b81156119fe57601e805460ff191660011790555b611a088433613fa7565b6000831115611a4057604051339084156108fc029085906000818181858888f19350505050158015611a3e573d6000803e3d6000fd5b505b50505050565b600e5481565b60175460009060ff161515600114611a6357600080fd5b33600090815260186020526040902054821115611a7f57600080fd5b81611a89336133e7565b1015611a9457600080fd5b611a9e3383612fe4565b33600090815260256020908152604080832093909355601890522054611aca908363ffffffff613ef516565b33600090815260186020526040902055601354611aed908363ffffffff613ef516565b601355611afa338361415d565b60408051838152905133917f8ca2ca4355ea7f1e1880fa3d5f2dc524f82297c88282d5d95badd4041b8a8edb919081900360200190a2506001919050565b60126020526000908152604090205481565b600054600160a060020a03163314611b6157600080fd5b600160a060020a03919091166000908152600360205260409020805460ff1916911515919091179055565b600080600080611b9a614b2a565b60175460ff161515600114611bae57600080fd5b600160a060020a0387166000908152602260205260409020548610611bd257600080fd5b600160a060020a03871660009081526022602052604081208054601f92919089908110611bfb57fe5b600091825260208083209190910154835282810193909352604091820190208151608081018352815480825260018301549482018590526002830154600160a060020a03169382018490526003909201546060909101819052909a9199509197509095509350505050565b60186020526000908152604090205481565b60175460009060ff161515600114611c8f57600080fd5b611c998484611156565b1515611ca457600080fd5b611cae848361291e565b151561154e57600080fd5b60116020526000908152604090205481565b600080611cd6614b2a565b60175460ff161515600114611cea57600080fd5b600160a060020a0386166000908152601960209081526040808320338452909152902054841115611d1a57600080fd5b600160a060020a0386166000908152601960209081526040808320338452909152902054611d4e908563ffffffff613ef516565b600160a060020a038716600081815260196020908152604080832033845282528083209490945591815260259091522054611d8c90869086906142f1565b6000818152601f60209081526040918290208251608081018452815481526001820154928101929092526002810154600160a060020a039081169383018490526003909101546060830152929450925090861614611de957600080fd5b600160a060020a038086166000908152602560208181526040808420546018835281852054958c168552928252928390205483517f8cf3313f00000000000000000000000000000000000000000000000000000000815260048101939093526024830194909452604482019390935260648101879052905173__AOLibrary_____________________________92638cf3313f9260848082019391829003018186803b158015611e9857600080fd5b505af4158015611eac573d6000803e3d6000fd5b505050506040513d6020811015611ec257600080fd5b5051600160a060020a038616600090815260256020526040902055611ee886868661448e565b1515611ef357600080fd5b80516040808301516020808501516060808701518551928352928201929092526000818501529251600160a060020a03909216927f20dcffcce6f33b394371fed8876a2562e3110ed8dbdc448b593a2680c7330a03929081900390910190a350600195945050505050565b6603fffffffffffc81565b60175460609060ff161515600114611f8057600080fd5b600160a060020a038216600090815260236020908152604091829020805483518184028101840190945280845290918301828280156114c85760200282019190600052602060002090815481526001909101906020018083116114b35750505050509050919050565b60086020526000908152604090205481565b60165481565b3360008181526003602052604081205490919060ff161515600114806120345750600054600160a060020a038281169116145b151561203f57600080fd5b600160a060020a03841660009081526011602052604090205483111561206457600080fd5b600160a060020a03841660009081526011602052604090205461208d908463ffffffff613ef516565b600160a060020a0385166000908152601160209081526040808320939093556008905220546120c2908463ffffffff613ee816565b600160a060020a038516600081815260086020908152604091829020939093558051868152905191927f85082129d87b2fe11527cb1b3b7a520aeb5aa6913f88a3d8757fe40d1db02fdd92918290030190a25060019392505050565b3360008181526003602052604081205490919060ff161515600114806121515750600054600160a060020a038281169116145b151561215c57600080fd5b60175460ff16151560011461217057600080fd5b600160a060020a0385166000908152601a602090815260408083208684529091529020548411156121a057600080fd5b600160a060020a0385166000908152601a602090815260408083208684529091529020546121d4908563ffffffff613ef516565b600160a060020a0386166000818152601a6020908152604080832088845282528083209490945591815260189091522054612215908563ffffffff613ee816565b600160a060020a038616600081815260186020908152604091829020939093558051878152928301869052805191927f7bcdc377a1fa8b0dd654d64d7337143be4ce1250ada31f3b1cdac27dea65d3a3929081900390910190a2600191505b509392505050565b3360008181526003602052604081205490919060ff161515600114806122af5750600054600160a060020a038281169116145b15156122ba57600080fd5b61154e8484614671565b600160a060020a0382166000908152600860205260408120548211156122e957600080fd5b600160a060020a038316600090815260096020908152604080832033845290915290205482111561231957600080fd5b600160a060020a0383166000818152600860209081526040808320805487900390556009825280832033845282529182902080548690039055600780548690039055815185815291517fcc16f5dbb4873280815c1ee09dbd06736cffcc184412cf7a71a0fdb75d397ca59281900390910190a250600192915050565b3360008181526003602052604081205490919060ff161515600114806123c85750600054600160a060020a038281169116145b15156123d357600080fd5b60175460ff1615156001146123e757600080fd5b600160a060020a03851660009081526018602052604090205484111561240c57600080fd5b600160a060020a038516600090815260256020526040902054831461243057600080fd5b600160a060020a038516600090815260186020526040902054612459908563ffffffff613ef516565b600160a060020a038616600090815260186020908152604080832093909355601a815282822086835290522054612496908563ffffffff613ee816565b600160a060020a0386166000818152601a60209081526040808320888452825291829020939093558051878152928301869052805191927fe62430bd00d68dd82de89addd3b7e4ce6bd50eb278f53dfb7fa7dac47643098d929081900390910190a2506001949350505050565b60135481565b600f5481565b3360008181526003602052604081205490919060ff161515600114806125425750600054600160a060020a038281169116145b151561254d57600080fd5b600160a060020a03851660009081526008602052604090205483111561257257600080fd5b600160a060020a03851660009081526008602052604090205461259b908463ffffffff613ef516565b600160a060020a038087166000908152600860209081526040808320949094559187168152601290915220546125d7908463ffffffff613ee816565b600160a060020a0380861660008181526012602090815260409182902094909455805187815290519193928916927f812c3251d8b2cd027716a7651ace6f9167d7fba4db9eb10df2e0cfe8b7fa48c992918290030190a3506001949350505050565b3360008181526003602052604081205490919060ff1615156001148061266c5750600054600160a060020a038281169116145b151561267757600080fd5b600160a060020a03841660009081526012602052604090205483111561269c57600080fd5b600160a060020a0384166000908152601260205260409020546126c5908463ffffffff613ef516565b600160a060020a0385166000908152601260209081526040808320939093556008905220546126fa908463ffffffff613ee816565b600160a060020a038516600081815260086020908152604091829020939093558051868152905191927f85538b0b045118ba300aa14d9701eab875903dd2976d62d855ec959a3e6cffb192918290030190a25060019392505050565b60175460009060ff16151560011461276d57600080fd5b612776836118f8565b151561278157600080fd5b61278a82611a4c565b151561279557600080fd5b50600192915050565b6005805460408051602060026001851615610100026000190190941693909304601f810184900484028201840190925281815292918301828280156110d75780601f106110ac576101008083540402835291602001916110d7565b60036020526000908152604090205460ff1681565b3360008181526003602052604081205490919060ff161515600114806128415750600054600160a060020a038281169116145b151561284c57600080fd5b611871858585613d06565b601e5460ff1681565b600080600f5411151561287257600080fd5b600f5461288690349063ffffffff61474516565b9050612893303383613d06565b50565b6000612795338484613d06565b600054600160a060020a031633146128ba57600080fd5b60175460ff1615156001146128ce57600080fd5b601591909155601655565b600254600160a060020a031681565b60175460009060ff1615156001146128ff57600080fd5b6129098484612896565b151561291457600080fd5b611cae8483612bb7565b60175460009060ff16151560011461293557600080fd5b336000818152601960209081526040808320600160a060020a03881680855290835292819020869055805186815290519293927f199f64ba6278b91ed8e7f45335d9fdbfa2d094b1fdc34465229e79047fcea3ce929181900390910190a350600192915050565b60145481565b60008060006129af614b51565b60175460ff1615156001146129c357600080fd5b50505060009182525060216020908152604091829020825160608101845281548082526001830154600160a060020a0316938201849052600290920154930183905292909190565b3360008181526003602052604081205490919060ff16151560011480612a3e5750600054600160a060020a038281169116145b1515612a4957600080fd5b600160a060020a038416600090815260086020526040902054831115612a6e57600080fd5b600160a060020a038416600090815260086020526040902054612a97908463ffffffff613ef516565b600160a060020a038516600090815260086020526040902055600754612ac3908463ffffffff613ef516565b600755604080518481529051600160a060020a038616917fcc16f5dbb4873280815c1ee09dbd06736cffcc184412cf7a71a0fdb75d397ca5919081900360200190a25060019392505050565b600054600160a060020a03163314612b2657600080fd5b60018054600160a060020a0393841673ffffffffffffffffffffffffffffffffffffffff199182161790915560028054929093169116179055565b60106020526000908152604090205460ff1681565b60175460ff1681565b60175460009060ff161515600114612b9657600080fd5b612ba18585856114e9565b1515612bac57600080fd5b611866858584611ccb565b600080612bc2614b2a565b60175460ff161515600114612bd657600080fd5b33600090815260256020526040902054612bf390869086906142f1565b6000818152601f60209081526040918290208251608081018452815481526001820154928101929092526002810154600160a060020a039081169383018490526003909101546060830152929450925090861614612c5057600080fd5b600160a060020a0385166000908152602560208181526040808420546018835281852054338652938352938190205481517f8cf3313f00000000000000000000000000000000000000000000000000000000815260048101959095526024850193909352604484019290925260648301879052905173__AOLibrary_____________________________92638cf3313f926084808301939192829003018186803b158015612cfd57600080fd5b505af4158015612d11573d6000803e3d6000fd5b505050506040513d6020811015612d2757600080fd5b5051600160a060020a038616600090815260256020526040902055612d4d33868661448e565b1515612d5857600080fd5b80516040808301516020808501516060808701518551928352928201929092526000818501529251600160a060020a03909216927f20dcffcce6f33b394371fed8876a2562e3110ed8dbdc448b593a2680c7330a03929081900390910190a3506001949350505050565b600054600160a060020a031681565b600083612dde8185611156565b15612274576040517f8f4ffcb10000000000000000000000000000000000000000000000000000000081523360048201818152602483018790523060448401819052608060648501908152875160848601528751600160a060020a03871695638f4ffcb195948b94938b939192909160a490910190602085019080838360005b83811015612e76578181015183820152602001612e5e565b50505050905090810190601f168015612ea35780820380516001836020036101000a031916815260200191505b5095505050505050600060405180830381600087803b158015612ec557600080fd5b505af1158015612ed9573d6000803e3d6000fd5b5050505060019150612274565b60175460009060ff161515600114612efd57600080fd5b600160a060020a03831660009081526018602090815260408083205460258352928190205481517f7fbc9c5500000000000000000000000000000000000000000000000000000000815260048101949094526024840152604483018590525173__AOLibrary_____________________________92637fbc9c55926064808301939192829003018186803b158015612f9457600080fd5b505af4158015612fa8573d6000803e3d6000fd5b505050506040513d6020811015612fbe57600080fd5b50519392505050565b601960209081526000928352604080842090915290825290205481565b60175460009060ff161515600114612ffb57600080fd5b81613005846133e7565b101561301057600080fd5b600160a060020a03831660009081526018602090815260408083205460258352928190205481517f32363e0a00000000000000000000000000000000000000000000000000000000815260048101949094526024840152604483018590525173__AOLibrary_____________________________926332363e0a926064808301939192829003018186803b158015612f9457600080fd5b60175460009060ff1615156001146130be57600080fd5b50600160a060020a031660009081526024602052604090205490565b601754600090819060ff1615156001146130f357600080fd5b5083612dde818561291e565b60175460009060ff16151560011461311657600080fd5b61312084846122c4565b151561312b57600080fd5b611cae8483613152565b600960209081526000928352604080842090915290825290205481565b60175460009060ff16151560011461316957600080fd5b600160a060020a03831660009081526018602052604090205482111561318e57600080fd5b600160a060020a03831660009081526019602090815260408083203384529091529020548211156131be57600080fd5b816131c8846133e7565b10156131d357600080fd5b6131dd8383612fe4565b600160a060020a038416600090815260256020908152604080832093909355601890522054613212908363ffffffff613ef516565b600160a060020a038416600090815260186020908152604080832093909355601981528282203383529052205461324f908363ffffffff613ef516565b600160a060020a0384166000908152601960209081526040808320338452909152902055601354613286908363ffffffff613ef516565b601355613293838361415d565b604080518381529051600160a060020a038516917f8ca2ca4355ea7f1e1880fa3d5f2dc524f82297c88282d5d95badd4041b8a8edb919081900360200190a250600192915050565b600080600e541115156132ed57600080fd5b50600e54309061330490839063ffffffff61475a16565b600160a060020a03821631101561331a57600080fd5b613325333084613d06565b600e5433906108fc9061333f90859063ffffffff61475a16565b6040518115909202916000818181858888f19350505050158015613367573d6000803e3d6000fd5b505050565b600054600160a060020a0316331461338357600080fd5b600160a060020a038216600081815260106020908152604091829020805460ff191685151590811790915582519384529083015280517f48335238b4855f35377ed80f164e8c6f3c366e54ac00b96a6402d4a9814a03a59281900390910190a15050565b60175460009060ff1615156001146133fe57600080fd5b600160a060020a038216600090815260186020908152604080832054602583528184205460268452938290205482517f4d5a11730000000000000000000000000000000000000000000000000000000081526004810192909252602482019490945260448101939093525173__AOLibrary_____________________________92634d5a1173926064808301939192829003018186803b1580156134a157600080fd5b505af41580156134b5573d6000803e3d6000fd5b505050506040513d60208110156134cb57600080fd5b505192915050565b600054600160a060020a031633146134ea57600080fd5b6000805473ffffffffffffffffffffffffffffffffffffffff1916600160a060020a0392909216919091179055565b60175460609060ff16151560011461353057600080fd5b600160a060020a038216600090815260246020908152604091829020805483518184028101840190945280845290918301828280156114c85760200282019190600052602060002090815481526001909101906020018083116114b35750505050509050919050565b60175460009060ff1615156001146135b057600080fd5b50600160a060020a031660009081526022602052604090205490565b6017546000908190819060ff1615156001146135e757600080fd5b3360009081526008602052604090205484111561360357600080fd5b61360d3385612ee6565b33600090815260256020526040902055613626846118f8565b506136313385614783565b601d805460010190819055604080516c010000000000000000000000003081026020808401919091523391909102603483015260488083019490945282518083039094018452606890910191829052825182918401908083835b602083106136aa5780518252601f19909201916020918201910161368b565b51815160209384036101000a60001901801990921691161790526040805192909401829003909120600081815260219092529290206001015491955050600160a060020a03161591506136fe905057600080fd5b5060008181526021602090815260408083208481556001808201805473ffffffffffffffffffffffffffffffffffffffff1916339081178255600284018a815590875260248652848720805493840181558752858720909201879055825490549154600160a060020a039290921680875260258652958490205484519283529482019490945282519194927f24f057e925d9fc5c8b912d57da9cf8bbcf393fa8c87db8005d378fe9f828e7ba92918290030190a35060019392505050565b600c54600a546040805160e060020a638965c123028152600160a060020a03928316600482015260248101829052601c60448201527f7374617274696e675072696d6f726469616c4d756c7469706c696572000000006064820152905160009384938493849384938493849384939190921691638965c123916084808301928692919082900301818387803b15801561385457600080fd5b505af1158015613868573d6000803e3d6000fd5b505050506040513d6000823e601f3d908101601f1916820160405260a081101561389157600080fd5b8151602083015160408401516060850151608086018051949693959294919392830192916401000000008111156138c757600080fd5b820160208101848111156138da57600080fd5b81516401000000008111828201871017156138f457600080fd5b5050600c54600a546040805160e060020a638965c123028152600160a060020a03928316600482015260248101829052601a60448201527f656e64696e675072696d6f726469616c4d756c7469706c696572000000000000606482015290519a9e50911698638965c123985060848083019850600097509095509085900301925083915084905087803b15801561398a57600080fd5b505af115801561399e573d6000803e3d6000fd5b505050506040513d6000823e601f3d908101601f1916820160405260a08110156139c757600080fd5b8151602083015160408401516060850151608086018051949693959294919392830192916401000000008111156139fd57600080fd5b82016020810184811115613a1057600080fd5b8151640100000000811182820187101715613a2a57600080fd5b5050600c54600a546040805160e060020a638965c123028152600160a060020a03928316600482015260248101829052602360448201527f7374617274696e674e6574776f726b546f6b656e426f6e75734d756c7469706c60648201527f6965720000000000000000000000000000000000000000000000000000000000608482015290519a9d50911698638965c123985060a48083019850600097509095509085900301925083915084905087803b158015613ae657600080fd5b505af1158015613afa573d6000803e3d6000fd5b505050506040513d6000823e601f3d908101601f1916820160405260a0811015613b2357600080fd5b815160208301516040840151606085015160808601805194969395929491939283019291640100000000811115613b5957600080fd5b82016020810184811115613b6c57600080fd5b8151640100000000811182820187101715613b8657600080fd5b5050600c54600a546040805160e060020a638965c123028152600160a060020a03928316600482015260248101829052602160448201527f656e64696e674e6574776f726b546f6b656e426f6e75734d756c7469706c696560648201527f7200000000000000000000000000000000000000000000000000000000000000608482015290519a9c50911698638965c123985060a48083019850600097509095509085900301925083915084905087803b158015613c4257600080fd5b505af1158015613c56573d6000803e3d6000fd5b505050506040513d6000823e601f3d908101601f1916820160405260a0811015613c7f57600080fd5b815160208301516040840151606085015160808601805194969395929491939283019291640100000000811115613cb557600080fd5b82016020810184811115613cc857600080fd5b8151640100000000811182820187101715613ce257600080fd5b50509291905050505050505090508383838397509750975097505050505090919293565b6000600160a060020a0383161515613d1d57600080fd5b600160a060020a038416600090815260086020526040902054821115613d4257600080fd5b600160a060020a038316600090815260086020526040902054613d6b818463ffffffff613ee816565b1015613d7657600080fd5b600160a060020a03841660009081526010602052604090205460ff1615613d9c57600080fd5b600160a060020a03831660009081526010602052604090205460ff1615613dc257600080fd5b600160a060020a03808416600090815260086020526040808220549287168252902054613df49163ffffffff613ee816565b600160a060020a038516600090815260086020526040902054909150613e20908363ffffffff613ef516565b600160a060020a038086166000908152600860205260408082209390935590851681522054613e55908363ffffffff613ee816565b600160a060020a0380851660008181526008602090815260409182902094909455805186815290519193928816927fddf252ad1be2c89b69c2b068fc378daa952ba7f163c4a11628f55a4df523b3ef92918290030190a3600160a060020a038084166000908152600860205260408082205492871682529020548291613ee1919063ffffffff613ee816565b14611a4057fe5b818101828110156111b757fe5b600082821115613f0157fe5b50900390565b600080600080600080613f256016548861474590919063ffffffff16565b925060009150600090506603fffffffffffc613f4c84601454613ee890919063ffffffff16565b10613f9a57601454613f6c906603fffffffffffc9063ffffffff613ef516565b925060019050613f97613f8a6016548561475a90919063ffffffff16565b349063ffffffff613ef516565b91505b9196909550909350915050565b600080600080600080600080613fbb6137bc565b98509850509750613fcb8a6111c3565b945094509450613fe68a601454613ee890919063ffffffff16565b601455613ff5898b8786614857565b614005888663ffffffff613ef516565b91506140b973__AOLibrary_____________________________63caf297656040518163ffffffff1660e060020a02815260040160206040518083038186803b15801561405157600080fd5b505af4158015614065573d6000803e3d6000fd5b505050506040513d602081101561407b57600080fd5b50516140ad8c6140a18a6140958d8b63ffffffff613ef516565b9063ffffffff613ee816565b9063ffffffff61475a16565b9063ffffffff61474516565b600154909150600160a060020a0316156141055760015461410590600160a060020a03166140ee8c600263ffffffff61474516565b8461410085600263ffffffff61474516565b614857565b600254600160a060020a03161561413b576002805461413b91600160a060020a03909116906140ee908d9063ffffffff61474516565b60005461415190600160a060020a031682614671565b50505050505050505050565b601c805460010190819055604080516c01000000000000000000000000308102602080840191909152600160a060020a038716909102603483015260488083019490945282518083039094018452606890910191829052825160009384939092909182918401908083835b602083106141e75780518252601f1990920191602091820191016141c8565b51815160209384036101000a6000190180199092169116179052604080519290940182900390912060008181529180529290206001015491955050600160a060020a0316159150614239905057600080fd5b506000818152602080805260408083208481556001808201805473ffffffffffffffffffffffffffffffffffffffff1916600160a060020a038a81169182178355600285018a815591885260238752858820805494850181558852868820909301889055835491549054921680875260258652958490205484519283529482019490945282519194927f6c5992d9f99885465942ae05b2bcc358a509184bb262ec9bfe242ccdc42d1a0392918290030190a350505050565b60008080600160a060020a038616151561430a57600080fd5b6000851161431757600080fd5b601b805460010190819055604080516c01000000000000000000000000308102602080840191909152600160a060020a038b16909102603483015260488083019490945282518083039094018452606890910191829052825182918401908083835b602083106143985780518252601f199092019160209182019101614379565b51815160209384036101000a600019018019909216911617905260408051929094018290039091206000818152601f9092529290206002015491955050600160a060020a03161591506143ec905057600080fd5b506000818152601f60209081526040808320848155600180820188905560028201805473ffffffffffffffffffffffffffffffffffffffff1916600160a060020a038c16908117909155600383018a905580865260228552928520805480830182558187529486209094018690559190935290541415614485576001810154600160a060020a0387166000908152602660205260409020555b50949350505050565b600080600160a060020a03841615156144a657600080fd5b600160a060020a0385166000908152601860205260409020548311156144cb57600080fd5b600160a060020a0384166000908152601860205260409020546144f4818563ffffffff613ee816565b10156144ff57600080fd5b600160a060020a03851660009081526010602052604090205460ff161561452557600080fd5b600160a060020a03841660009081526010602052604090205460ff161561454b57600080fd5b600160a060020a0380851660009081526018602052604080822054928816825290205461457d9163ffffffff613ee816565b600160a060020a0386166000908152601860205260409020549091506145a9908463ffffffff613ef516565b600160a060020a0380871660009081526018602052604080822093909355908616815220546145de908463ffffffff613ee816565b600160a060020a0380861660008181526018602090815260409182902094909455805187815290519193928916927fa906a7bdab67ba77819fbd926440353e67b66c398aaeffd1fd212ddae941bbe292918290030190a3600160a060020a03808516600090815260186020526040808220549288168252902054829161466a919063ffffffff613ee816565b1461187157fe5b600160a060020a03821660009081526008602052604090205461469a908263ffffffff613ee816565b600160a060020a0383166000908152600860205260409020556007546146c6908263ffffffff613ee816565b60075560408051828152905130916000917fddf252ad1be2c89b69c2b068fc378daa952ba7f163c4a11628f55a4df523b3ef9181900360200190a3604080518281529051600160a060020a0384169130917fddf252ad1be2c89b69c2b068fc378daa952ba7f163c4a11628f55a4df523b3ef9181900360200190a35050565b6000818381151561475257fe5b049392505050565b600082151561476b575060006111b7565b5081810281838281151561477b57fe5b04146111b757fe5b600160a060020a0382166000908152601860205260409020546147ac908263ffffffff613ee816565b600160a060020a0383166000908152601860205260409020556013546147d8908263ffffffff613ee816565b60135560408051828152905130916000917fa906a7bdab67ba77819fbd926440353e67b66c398aaeffd1fd212ddae941bbe29181900360200190a3604080518281529051600160a060020a0384169130917fa906a7bdab67ba77819fbd926440353e67b66c398aaeffd1fd212ddae941bbe29181900360200190a35050565b601b805460010190819055604080516c01000000000000000000000000308102602080840191909152600160a060020a038916909102603483015260488083019490945282518083039094018452606890910191829052825160009384939092909182918401908083835b602083106148e15780518252601f1990920191602091820191016148c2565b51815160209384036101000a600019018019909216911617905260408051929094018290039091206000818152601f9092529290206002015491955050600160a060020a0316159150614935905057600080fd5b506000818152601f60209081526040808320848155600180820188815560028301805473ffffffffffffffffffffffffffffffffffffffff1916600160a060020a038d16908117909155600384018b815581885260228752858820805494850181558852868820909301889055865260258552838620546018865295849020549054915484517f8cf3313f00000000000000000000000000000000000000000000000000000000815260048101979097526024870191909152604486019190915260648501529051909273__AOLibrary_____________________________92638cf3313f92608480840193829003018186803b158015614a3557600080fd5b505af4158015614a49573d6000803e3d6000fd5b505050506040513d6020811015614a5f57600080fd5b5051600160a060020a03871660009081526025602090815260408083209390935560229052205460011415614aad576001810154600160a060020a0387166000908152602660205260409020555b614abb868260030154614783565b614ac58684614671565b805460028201546001830154600384015460408051928352602083019190915281810187905251600160a060020a03909216917f20dcffcce6f33b394371fed8876a2562e3110ed8dbdc448b593a2680c7330a039181900360600190a3505050505050565b60408051608081018252600080825260208201819052918101829052606081019190915290565b6040805160608101825260008082526020820181905291810191909152905600a165627a7a72305820d019522e512e3a33aea7a4efe72d9a1c57df40e2bd934ae12b4bff97ee3d3f800029",
	"source": "pragma solidity ^0.4.24;\n\nimport \"./AOToken.sol\";\n\ncontract AOXona is AOToken {\n\t/**\n\t * @dev Constructor function\n\t */\n\tconstructor(uint256 initialSupply, string tokenName, string tokenSymbol, address _settingThoughtId, address _aoSettingAddress)\n\t\tAOToken(initialSupply, tokenName, tokenSymbol, _settingThoughtId, _aoSettingAddress) public {\n\t\tpowerOfTen = 27;\n\t\tdecimals = 27;\n\t\tnetworkExchangeContract = false;\n\t}\n}\n",
	"sourcePath": "/home/jmulyono/ao-contracts/contracts/AOXona.sol",
	"compiler": {
		"name": "solc",
		"version": "0.4.24+commit.e67f0147.Emscripten.clang"
	},
	"schemaVersion": "2.0.1",
	"updatedAt": "2018-12-11T08:43:54.544Z"
}