{
	"contractName": "AOZetta",
	"abi": [
		{
			"constant": false,
			"inputs": [
				{
					"name": "newSellPrice",
					"type": "uint256"
				},
				{
					"name": "newBuyPrice",
					"type": "uint256"
				}
			],
			"name": "setPrices",
			"outputs": [],
			"payable": false,
			"stateMutability": "nonpayable",
			"type": "function"
		},
		{
			"constant": true,
			"inputs": [],
			"name": "name",
			"outputs": [
				{
					"name": "",
					"type": "string"
				}
			],
			"payable": false,
			"stateMutability": "view",
			"type": "function"
		},
		{
			"constant": true,
			"inputs": [
				{
					"name": "_lotId",
					"type": "bytes32"
				}
			],
			"name": "lotById",
			"outputs": [
				{
					"name": "",
					"type": "bytes32"
				},
				{
					"name": "",
					"type": "address"
				},
				{
					"name": "",
					"type": "uint256"
				},
				{
					"name": "",
					"type": "uint256"
				}
			],
			"payable": false,
			"stateMutability": "view",
			"type": "function"
		},
		{
			"constant": false,
			"inputs": [
				{
					"name": "_spender",
					"type": "address"
				},
				{
					"name": "_value",
					"type": "uint256"
				}
			],
			"name": "approve",
			"outputs": [
				{
					"name": "success",
					"type": "bool"
				}
			],
			"payable": false,
			"stateMutability": "nonpayable",
			"type": "function"
		},
		{
			"constant": true,
			"inputs": [],
			"name": "powerOfTen",
			"outputs": [
				{
					"name": "",
					"type": "uint256"
				}
			],
			"payable": false,
			"stateMutability": "view",
			"type": "function"
		},
		{
			"constant": true,
			"inputs": [
				{
					"name": "_purchaseAmount",
					"type": "uint256"
				}
			],
			"name": "calculateMultiplierAndBonus",
			"outputs": [
				{
					"name": "",
					"type": "uint256"
				},
				{
					"name": "",
					"type": "uint256"
				},
				{
					"name": "",
					"type": "uint256"
				}
			],
			"payable": false,
			"stateMutability": "view",
			"type": "function"
		},
		{
			"constant": true,
			"inputs": [],
			"name": "aoDevTeam1",
			"outputs": [
				{
					"name": "",
					"type": "address"
				}
			],
			"payable": false,
			"stateMutability": "view",
			"type": "function"
		},
		{
			"constant": true,
			"inputs": [
				{
					"name": "",
					"type": "address"
				},
				{
					"name": "",
					"type": "uint256"
				}
			],
			"name": "primordialStakedBalance",
			"outputs": [
				{
					"name": "",
					"type": "uint256"
				}
			],
			"payable": false,
			"stateMutability": "view",
			"type": "function"
		},
		{
			"constant": true,
			"inputs": [
				{
					"name": "_lotOwner",
					"type": "address"
				}
			],
			"name": "lotIdsByAddress",
			"outputs": [
				{
					"name": "",
					"type": "bytes32[]"
				}
			],
			"payable": false,
			"stateMutability": "view",
			"type": "function"
		},
		{
			"constant": true,
			"inputs": [],
			"name": "totalSupply",
			"outputs": [
				{
					"name": "",
					"type": "uint256"
				}
			],
			"payable": false,
			"stateMutability": "view",
			"type": "function"
		},
		{
			"constant": false,
			"inputs": [
				{
					"name": "_from",
					"type": "address"
				},
				{
					"name": "_to",
					"type": "address"
				},
				{
					"name": "_value",
					"type": "uint256"
				}
			],
			"name": "transferFrom",
			"outputs": [
				{
					"name": "success",
					"type": "bool"
				}
			],
			"payable": false,
			"stateMutability": "nonpayable",
			"type": "function"
		},
		{
			"constant": false,
			"inputs": [
				{
					"name": "target",
					"type": "address"
				},
				{
					"name": "mintedAmount",
					"type": "uint256"
				}
			],
			"name": "mintTokenEscrow",
			"outputs": [
				{
					"name": "",
					"type": "bool"
				}
			],
			"payable": false,
			"stateMutability": "nonpayable",
			"type": "function"
		},
		{
			"constant": true,
			"inputs": [
				{
					"name": "_lotOwner",
					"type": "address"
				}
			],
			"name": "weightedMultiplierByAddress",
			"outputs": [
				{
					"name": "",
					"type": "uint256"
				}
			],
			"payable": false,
			"stateMutability": "view",
			"type": "function"
		},
		{
			"constant": true,
			"inputs": [],
			"name": "primordialSellPrice",
			"outputs": [
				{
					"name": "",
					"type": "uint256"
				}
			],
			"payable": false,
			"stateMutability": "view",
			"type": "function"
		},
		{
			"constant": true,
			"inputs": [],
			"name": "totalConvertLots",
			"outputs": [
				{
					"name": "",
					"type": "uint256"
				}
			],
			"payable": false,
			"stateMutability": "view",
			"type": "function"
		},
		{
			"constant": true,
			"inputs": [],
			"name": "decimals",
			"outputs": [
				{
					"name": "",
					"type": "uint8"
				}
			],
			"payable": false,
			"stateMutability": "view",
			"type": "function"
		},
		{
			"constant": false,
			"inputs": [
				{
					"name": "_from",
					"type": "address"
				},
				{
					"name": "_value",
					"type": "uint256"
				}
			],
			"name": "stakeFrom",
			"outputs": [
				{
					"name": "",
					"type": "bool"
				}
			],
			"payable": false,
			"stateMutability": "nonpayable",
			"type": "function"
		},
		{
			"constant": true,
			"inputs": [
				{
					"name": "_lotOwner",
					"type": "address"
				}
			],
			"name": "totalBurnLotsByAddress",
			"outputs": [
				{
					"name": "",
					"type": "uint256"
				}
			],
			"payable": false,
			"stateMutability": "view",
			"type": "function"
		},
		{
			"constant": true,
			"inputs": [],
			"name": "totalLots",
			"outputs": [
				{
					"name": "",
					"type": "uint256"
				}
			],
			"payable": false,
			"stateMutability": "view",
			"type": "function"
		},
		{
			"constant": true,
			"inputs": [],
			"name": "startingNetworkTokenBonusMultiplier",
			"outputs": [
				{
					"name": "",
					"type": "uint256"
				}
			],
			"payable": false,
			"stateMutability": "view",
			"type": "function"
		},
		{
			"constant": true,
			"inputs": [
				{
					"name": "_target",
					"type": "address"
				}
			],
			"name": "maxMultiplierByAddress",
			"outputs": [
				{
					"name": "",
					"type": "uint256"
				}
			],
			"payable": false,
			"stateMutability": "view",
			"type": "function"
		},
		{
			"constant": false,
			"inputs": [
				{
					"name": "_spender",
					"type": "address"
				},
				{
					"name": "_value",
					"type": "uint256"
				},
				{
					"name": "_primordialValue",
					"type": "uint256"
				},
				{
					"name": "_extraData",
					"type": "bytes"
				}
			],
			"name": "approveTokensAndCall",
			"outputs": [
				{
					"name": "success",
					"type": "bool"
				}
			],
			"payable": false,
			"stateMutability": "nonpayable",
			"type": "function"
		},
		{
			"constant": true,
			"inputs": [
				{
					"name": "_burnLotId",
					"type": "bytes32"
				}
			],
			"name": "burnLotById",
			"outputs": [
				{
					"name": "",
					"type": "bytes32"
				},
				{
					"name": "",
					"type": "address"
				},
				{
					"name": "",
					"type": "uint256"
				}
			],
			"payable": false,
			"stateMutability": "view",
			"type": "function"
		},
		{
			"constant": true,
			"inputs": [],
			"name": "totalBurnLots",
			"outputs": [
				{
					"name": "",
					"type": "uint256"
				}
			],
			"payable": false,
			"stateMutability": "view",
			"type": "function"
		},
		{
			"constant": false,
			"inputs": [
				{
					"name": "_value",
					"type": "uint256"
				}
			],
			"name": "burn",
			"outputs": [
				{
					"name": "success",
					"type": "bool"
				}
			],
			"payable": false,
			"stateMutability": "nonpayable",
			"type": "function"
		},
		{
			"constant": false,
			"inputs": [],
			"name": "buyPrimordialToken",
			"outputs": [],
			"payable": true,
			"stateMutability": "payable",
			"type": "function"
		},
		{
			"constant": true,
			"inputs": [],
			"name": "sellPrice",
			"outputs": [
				{
					"name": "",
					"type": "uint256"
				}
			],
			"payable": false,
			"stateMutability": "view",
			"type": "function"
		},
		{
			"constant": false,
			"inputs": [
				{
					"name": "_value",
					"type": "uint256"
				}
			],
			"name": "burnPrimordialToken",
			"outputs": [
				{
					"name": "success",
					"type": "bool"
				}
			],
			"payable": false,
			"stateMutability": "nonpayable",
			"type": "function"
		},
		{
			"constant": true,
			"inputs": [
				{
					"name": "",
					"type": "address"
				}
			],
			"name": "escrowedBalance",
			"outputs": [
				{
					"name": "",
					"type": "uint256"
				}
			],
			"payable": false,
			"stateMutability": "view",
			"type": "function"
		},
		{
			"constant": false,
			"inputs": [
				{
					"name": "_account",
					"type": "address"
				},
				{
					"name": "_whitelist",
					"type": "bool"
				}
			],
			"name": "setWhitelist",
			"outputs": [],
			"payable": false,
			"stateMutability": "nonpayable",
			"type": "function"
		},
		{
			"constant": true,
			"inputs": [
				{
					"name": "_lotOwner",
					"type": "address"
				},
				{
					"name": "_index",
					"type": "uint256"
				}
			],
			"name": "lotOfOwnerByIndex",
			"outputs": [
				{
					"name": "",
					"type": "bytes32"
				},
				{
					"name": "",
					"type": "address"
				},
				{
					"name": "",
					"type": "uint256"
				},
				{
					"name": "",
					"type": "uint256"
				}
			],
			"payable": false,
			"stateMutability": "view",
			"type": "function"
		},
		{
			"constant": true,
			"inputs": [
				{
					"name": "",
					"type": "address"
				}
			],
			"name": "primordialBalanceOf",
			"outputs": [
				{
					"name": "",
					"type": "uint256"
				}
			],
			"payable": false,
			"stateMutability": "view",
			"type": "function"
		},
		{
			"constant": false,
			"inputs": [
				{
					"name": "_spender",
					"type": "address"
				},
				{
					"name": "_value",
					"type": "uint256"
				},
				{
					"name": "_primordialValue",
					"type": "uint256"
				}
			],
			"name": "approveTokens",
			"outputs": [
				{
					"name": "success",
					"type": "bool"
				}
			],
			"payable": false,
			"stateMutability": "nonpayable",
			"type": "function"
		},
		{
			"constant": true,
			"inputs": [
				{
					"name": "",
					"type": "address"
				}
			],
			"name": "stakedBalance",
			"outputs": [
				{
					"name": "",
					"type": "uint256"
				}
			],
			"payable": false,
			"stateMutability": "view",
			"type": "function"
		},
		{
			"constant": false,
			"inputs": [
				{
					"name": "_from",
					"type": "address"
				},
				{
					"name": "_to",
					"type": "address"
				},
				{
					"name": "_value",
					"type": "uint256"
				}
			],
			"name": "transferPrimordialTokenFrom",
			"outputs": [
				{
					"name": "success",
					"type": "bool"
				}
			],
			"payable": false,
			"stateMutability": "nonpayable",
			"type": "function"
		},
		{
			"constant": true,
			"inputs": [],
			"name": "TOTAL_PRIMORDIAL_FOR_SALE",
			"outputs": [
				{
					"name": "",
					"type": "uint256"
				}
			],
			"payable": false,
			"stateMutability": "view",
			"type": "function"
		},
		{
			"constant": true,
			"inputs": [
				{
					"name": "_lotOwner",
					"type": "address"
				}
			],
			"name": "burnLotIdsByAddress",
			"outputs": [
				{
					"name": "",
					"type": "bytes32[]"
				}
			],
			"payable": false,
			"stateMutability": "view",
			"type": "function"
		},
		{
			"constant": true,
			"inputs": [
				{
					"name": "",
					"type": "address"
				}
			],
			"name": "balanceOf",
			"outputs": [
				{
					"name": "",
					"type": "uint256"
				}
			],
			"payable": false,
			"stateMutability": "view",
			"type": "function"
		},
		{
			"constant": true,
			"inputs": [],
			"name": "primordialBuyPrice",
			"outputs": [
				{
					"name": "",
					"type": "uint256"
				}
			],
			"payable": false,
			"stateMutability": "view",
			"type": "function"
		},
		{
			"constant": false,
			"inputs": [
				{
					"name": "_from",
					"type": "address"
				},
				{
					"name": "_value",
					"type": "uint256"
				}
			],
			"name": "unstakeFrom",
			"outputs": [
				{
					"name": "",
					"type": "bool"
				}
			],
			"payable": false,
			"stateMutability": "nonpayable",
			"type": "function"
		},
		{
			"constant": false,
			"inputs": [
				{
					"name": "_from",
					"type": "address"
				},
				{
					"name": "_value",
					"type": "uint256"
				},
				{
					"name": "_weightedMultiplier",
					"type": "uint256"
				}
			],
			"name": "unstakePrimordialTokenFrom",
			"outputs": [
				{
					"name": "",
					"type": "bool"
				}
			],
			"payable": false,
			"stateMutability": "nonpayable",
			"type": "function"
		},
		{
			"constant": false,
			"inputs": [
				{
					"name": "target",
					"type": "address"
				},
				{
					"name": "mintedAmount",
					"type": "uint256"
				}
			],
			"name": "mintToken",
			"outputs": [
				{
					"name": "",
					"type": "bool"
				}
			],
			"payable": false,
			"stateMutability": "nonpayable",
			"type": "function"
		},
		{
			"constant": false,
			"inputs": [
				{
					"name": "_from",
					"type": "address"
				},
				{
					"name": "_value",
					"type": "uint256"
				}
			],
			"name": "burnFrom",
			"outputs": [
				{
					"name": "success",
					"type": "bool"
				}
			],
			"payable": false,
			"stateMutability": "nonpayable",
			"type": "function"
		},
		{
			"constant": false,
			"inputs": [
				{
					"name": "_startingMultiplier",
					"type": "uint256"
				},
				{
					"name": "_endingMultiplier",
					"type": "uint256"
				}
			],
			"name": "setStartingEndingMultiplier",
			"outputs": [],
			"payable": false,
			"stateMutability": "nonpayable",
			"type": "function"
		},
		{
			"constant": false,
			"inputs": [
				{
					"name": "_from",
					"type": "address"
				},
				{
					"name": "_value",
					"type": "uint256"
				},
				{
					"name": "_weightedMultiplier",
					"type": "uint256"
				}
			],
			"name": "stakePrimordialTokenFrom",
			"outputs": [
				{
					"name": "",
					"type": "bool"
				}
			],
			"payable": false,
			"stateMutability": "nonpayable",
			"type": "function"
		},
		{
			"constant": true,
			"inputs": [],
			"name": "primordialTotalSupply",
			"outputs": [
				{
					"name": "",
					"type": "uint256"
				}
			],
			"payable": false,
			"stateMutability": "view",
			"type": "function"
		},
		{
			"constant": true,
			"inputs": [],
			"name": "buyPrice",
			"outputs": [
				{
					"name": "",
					"type": "uint256"
				}
			],
			"payable": false,
			"stateMutability": "view",
			"type": "function"
		},
		{
			"constant": false,
			"inputs": [
				{
					"name": "_from",
					"type": "address"
				},
				{
					"name": "_to",
					"type": "address"
				},
				{
					"name": "_value",
					"type": "uint256"
				}
			],
			"name": "escrowFrom",
			"outputs": [
				{
					"name": "",
					"type": "bool"
				}
			],
			"payable": false,
			"stateMutability": "nonpayable",
			"type": "function"
		},
		{
			"constant": false,
			"inputs": [
				{
					"name": "_from",
					"type": "address"
				},
				{
					"name": "_value",
					"type": "uint256"
				}
			],
			"name": "unescrowFrom",
			"outputs": [
				{
					"name": "",
					"type": "bool"
				}
			],
			"payable": false,
			"stateMutability": "nonpayable",
			"type": "function"
		},
		{
			"constant": false,
			"inputs": [
				{
					"name": "_value",
					"type": "uint256"
				},
				{
					"name": "_primordialValue",
					"type": "uint256"
				}
			],
			"name": "burnTokens",
			"outputs": [
				{
					"name": "success",
					"type": "bool"
				}
			],
			"payable": false,
			"stateMutability": "nonpayable",
			"type": "function"
		},
		{
			"constant": true,
			"inputs": [],
			"name": "startingMultiplier",
			"outputs": [
				{
					"name": "",
					"type": "uint256"
				}
			],
			"payable": false,
			"stateMutability": "view",
			"type": "function"
		},
		{
			"constant": true,
			"inputs": [],
			"name": "symbol",
			"outputs": [
				{
					"name": "",
					"type": "string"
				}
			],
			"payable": false,
			"stateMutability": "view",
			"type": "function"
		},
		{
			"constant": true,
			"inputs": [
				{
					"name": "",
					"type": "address"
				}
			],
			"name": "whitelist",
			"outputs": [
				{
					"name": "",
					"type": "bool"
				}
			],
			"payable": false,
			"stateMutability": "view",
			"type": "function"
		},
		{
			"constant": true,
			"inputs": [],
			"name": "networkExchangeEnded",
			"outputs": [
				{
					"name": "",
					"type": "bool"
				}
			],
			"payable": false,
			"stateMutability": "view",
			"type": "function"
		},
		{
			"constant": false,
			"inputs": [],
			"name": "buy",
			"outputs": [],
			"payable": true,
			"stateMutability": "payable",
			"type": "function"
		},
		{
			"constant": false,
			"inputs": [
				{
					"name": "_to",
					"type": "address"
				},
				{
					"name": "_value",
					"type": "uint256"
				}
			],
			"name": "transfer",
			"outputs": [
				{
					"name": "success",
					"type": "bool"
				}
			],
			"payable": false,
			"stateMutability": "nonpayable",
			"type": "function"
		},
		{
			"constant": false,
			"inputs": [
				{
					"name": "newPrimordialSellPrice",
					"type": "uint256"
				},
				{
					"name": "newPrimordialBuyPrice",
					"type": "uint256"
				}
			],
			"name": "setPrimordialPrices",
			"outputs": [],
			"payable": false,
			"stateMutability": "nonpayable",
			"type": "function"
		},
		{
			"constant": true,
			"inputs": [],
			"name": "aoDevTeam2",
			"outputs": [
				{
					"name": "",
					"type": "address"
				}
			],
			"payable": false,
			"stateMutability": "view",
			"type": "function"
		},
		{
			"constant": false,
			"inputs": [
				{
					"name": "_to",
					"type": "address"
				},
				{
					"name": "_value",
					"type": "uint256"
				},
				{
					"name": "_primordialValue",
					"type": "uint256"
				}
			],
			"name": "transferTokens",
			"outputs": [
				{
					"name": "success",
					"type": "bool"
				}
			],
			"payable": false,
			"stateMutability": "nonpayable",
			"type": "function"
		},
		{
			"constant": false,
			"inputs": [
				{
					"name": "_spender",
					"type": "address"
				},
				{
					"name": "_value",
					"type": "uint256"
				}
			],
			"name": "approvePrimordialToken",
			"outputs": [
				{
					"name": "success",
					"type": "bool"
				}
			],
			"payable": false,
			"stateMutability": "nonpayable",
			"type": "function"
		},
		{
			"constant": true,
			"inputs": [],
			"name": "primordialTotalBought",
			"outputs": [
				{
					"name": "",
					"type": "uint256"
				}
			],
			"payable": false,
			"stateMutability": "view",
			"type": "function"
		},
		{
			"constant": true,
			"inputs": [
				{
					"name": "_convertLotId",
					"type": "bytes32"
				}
			],
			"name": "convertLotById",
			"outputs": [
				{
					"name": "",
					"type": "bytes32"
				},
				{
					"name": "",
					"type": "address"
				},
				{
					"name": "",
					"type": "uint256"
				}
			],
			"payable": false,
			"stateMutability": "view",
			"type": "function"
		},
		{
			"constant": false,
			"inputs": [
				{
					"name": "_from",
					"type": "address"
				},
				{
					"name": "_value",
					"type": "uint256"
				}
			],
			"name": "whitelistBurnFrom",
			"outputs": [
				{
					"name": "success",
					"type": "bool"
				}
			],
			"payable": false,
			"stateMutability": "nonpayable",
			"type": "function"
		},
		{
			"constant": false,
			"inputs": [
				{
					"name": "_aoDevTeam1",
					"type": "address"
				},
				{
					"name": "_aoDevTeam2",
					"type": "address"
				}
			],
			"name": "setAODevTeamAddresses",
			"outputs": [],
			"payable": false,
			"stateMutability": "nonpayable",
			"type": "function"
		},
		{
			"constant": true,
			"inputs": [
				{
					"name": "",
					"type": "address"
				}
			],
			"name": "frozenAccount",
			"outputs": [
				{
					"name": "",
					"type": "bool"
				}
			],
			"payable": false,
			"stateMutability": "view",
			"type": "function"
		},
		{
			"constant": true,
			"inputs": [],
			"name": "networkExchangeContract",
			"outputs": [
				{
					"name": "",
					"type": "bool"
				}
			],
			"payable": false,
			"stateMutability": "view",
			"type": "function"
		},
		{
			"constant": false,
			"inputs": [
				{
					"name": "_from",
					"type": "address"
				},
				{
					"name": "_to",
					"type": "address"
				},
				{
					"name": "_value",
					"type": "uint256"
				},
				{
					"name": "_primordialValue",
					"type": "uint256"
				}
			],
			"name": "transferTokensFrom",
			"outputs": [
				{
					"name": "success",
					"type": "bool"
				}
			],
			"payable": false,
			"stateMutability": "nonpayable",
			"type": "function"
		},
		{
			"constant": true,
			"inputs": [],
			"name": "endingNetworkTokenBonusMultiplier",
			"outputs": [
				{
					"name": "",
					"type": "uint256"
				}
			],
			"payable": false,
			"stateMutability": "view",
			"type": "function"
		},
		{
			"constant": false,
			"inputs": [
				{
					"name": "_to",
					"type": "address"
				},
				{
					"name": "_value",
					"type": "uint256"
				}
			],
			"name": "transferPrimordialToken",
			"outputs": [
				{
					"name": "success",
					"type": "bool"
				}
			],
			"payable": false,
			"stateMutability": "nonpayable",
			"type": "function"
		},
		{
			"constant": true,
			"inputs": [],
			"name": "endingMultiplier",
			"outputs": [
				{
					"name": "",
					"type": "uint256"
				}
			],
			"payable": false,
			"stateMutability": "view",
			"type": "function"
		},
		{
			"constant": true,
			"inputs": [],
			"name": "developer",
			"outputs": [
				{
					"name": "",
					"type": "address"
				}
			],
			"payable": false,
			"stateMutability": "view",
			"type": "function"
		},
		{
			"constant": false,
			"inputs": [
				{
					"name": "_spender",
					"type": "address"
				},
				{
					"name": "_value",
					"type": "uint256"
				},
				{
					"name": "_extraData",
					"type": "bytes"
				}
			],
			"name": "approveAndCall",
			"outputs": [
				{
					"name": "success",
					"type": "bool"
				}
			],
			"payable": false,
			"stateMutability": "nonpayable",
			"type": "function"
		},
		{
			"constant": true,
			"inputs": [],
			"name": "PERCENTAGE_DIVISOR",
			"outputs": [
				{
					"name": "",
					"type": "uint256"
				}
			],
			"payable": false,
			"stateMutability": "view",
			"type": "function"
		},
		{
			"constant": true,
			"inputs": [
				{
					"name": "_account",
					"type": "address"
				},
				{
					"name": "_amountToConvert",
					"type": "uint256"
				}
			],
			"name": "calculateMultiplierAfterConversion",
			"outputs": [
				{
					"name": "",
					"type": "uint256"
				}
			],
			"payable": false,
			"stateMutability": "view",
			"type": "function"
		},
		{
			"constant": true,
			"inputs": [
				{
					"name": "",
					"type": "address"
				},
				{
					"name": "",
					"type": "address"
				}
			],
			"name": "primordialAllowance",
			"outputs": [
				{
					"name": "",
					"type": "uint256"
				}
			],
			"payable": false,
			"stateMutability": "view",
			"type": "function"
		},
		{
			"constant": true,
			"inputs": [
				{
					"name": "_account",
					"type": "address"
				},
				{
					"name": "_amountToBurn",
					"type": "uint256"
				}
			],
			"name": "calculateMultiplierAfterBurn",
			"outputs": [
				{
					"name": "",
					"type": "uint256"
				}
			],
			"payable": false,
			"stateMutability": "view",
			"type": "function"
		},
		{
			"constant": true,
			"inputs": [
				{
					"name": "_lotOwner",
					"type": "address"
				}
			],
			"name": "totalConvertLotsByAddress",
			"outputs": [
				{
					"name": "",
					"type": "uint256"
				}
			],
			"payable": false,
			"stateMutability": "view",
			"type": "function"
		},
		{
			"constant": true,
			"inputs": [],
			"name": "MULTIPLIER_DIVISOR",
			"outputs": [
				{
					"name": "",
					"type": "uint256"
				}
			],
			"payable": false,
			"stateMutability": "view",
			"type": "function"
		},
		{
			"constant": false,
			"inputs": [
				{
					"name": "_spender",
					"type": "address"
				},
				{
					"name": "_value",
					"type": "uint256"
				},
				{
					"name": "_extraData",
					"type": "bytes"
				}
			],
			"name": "approvePrimordialTokenAndCall",
			"outputs": [
				{
					"name": "success",
					"type": "bool"
				}
			],
			"payable": false,
			"stateMutability": "nonpayable",
			"type": "function"
		},
		{
			"constant": false,
			"inputs": [
				{
					"name": "_from",
					"type": "address"
				},
				{
					"name": "_value",
					"type": "uint256"
				},
				{
					"name": "_primordialValue",
					"type": "uint256"
				}
			],
			"name": "burnTokensFrom",
			"outputs": [
				{
					"name": "success",
					"type": "bool"
				}
			],
			"payable": false,
			"stateMutability": "nonpayable",
			"type": "function"
		},
		{
			"constant": true,
			"inputs": [
				{
					"name": "",
					"type": "address"
				},
				{
					"name": "",
					"type": "address"
				}
			],
			"name": "allowance",
			"outputs": [
				{
					"name": "",
					"type": "uint256"
				}
			],
			"payable": false,
			"stateMutability": "view",
			"type": "function"
		},
		{
			"constant": false,
			"inputs": [
				{
					"name": "_from",
					"type": "address"
				},
				{
					"name": "_value",
					"type": "uint256"
				}
			],
			"name": "burnPrimordialTokenFrom",
			"outputs": [
				{
					"name": "success",
					"type": "bool"
				}
			],
			"payable": false,
			"stateMutability": "nonpayable",
			"type": "function"
		},
		{
			"constant": false,
			"inputs": [
				{
					"name": "amount",
					"type": "uint256"
				}
			],
			"name": "sell",
			"outputs": [],
			"payable": false,
			"stateMutability": "nonpayable",
			"type": "function"
		},
		{
			"constant": false,
			"inputs": [
				{
					"name": "target",
					"type": "address"
				},
				{
					"name": "freeze",
					"type": "bool"
				}
			],
			"name": "freezeAccount",
			"outputs": [],
			"payable": false,
			"stateMutability": "nonpayable",
			"type": "function"
		},
		{
			"constant": true,
			"inputs": [
				{
					"name": "_account",
					"type": "address"
				}
			],
			"name": "calculateMaximumBurnAmount",
			"outputs": [
				{
					"name": "",
					"type": "uint256"
				}
			],
			"payable": false,
			"stateMutability": "view",
			"type": "function"
		},
		{
			"constant": false,
			"inputs": [
				{
					"name": "_startingNetworkTokenBonusMultiplier",
					"type": "uint256"
				},
				{
					"name": "_endingNetworkTokenBonusMultiplier",
					"type": "uint256"
				}
			],
			"name": "setStartingEndingNetworkTokenBonusMultiplier",
			"outputs": [],
			"payable": false,
			"stateMutability": "nonpayable",
			"type": "function"
		},
		{
			"constant": false,
			"inputs": [
				{
					"name": "newDeveloper",
					"type": "address"
				}
			],
			"name": "transferOwnership",
			"outputs": [],
			"payable": false,
			"stateMutability": "nonpayable",
			"type": "function"
		},
		{
			"constant": true,
			"inputs": [
				{
					"name": "_lotOwner",
					"type": "address"
				}
			],
			"name": "convertLotIdsByAddress",
			"outputs": [
				{
					"name": "",
					"type": "bytes32[]"
				}
			],
			"payable": false,
			"stateMutability": "view",
			"type": "function"
		},
		{
			"constant": true,
			"inputs": [
				{
					"name": "_lotOwner",
					"type": "address"
				}
			],
			"name": "totalLotsByAddress",
			"outputs": [
				{
					"name": "",
					"type": "uint256"
				}
			],
			"payable": false,
			"stateMutability": "view",
			"type": "function"
		},
		{
			"constant": false,
			"inputs": [
				{
					"name": "_value",
					"type": "uint256"
				}
			],
			"name": "convertToPrimordial",
			"outputs": [
				{
					"name": "success",
					"type": "bool"
				}
			],
			"payable": false,
			"stateMutability": "nonpayable",
			"type": "function"
		},
		{
			"inputs": [
				{
					"name": "initialSupply",
					"type": "uint256"
				},
				{
					"name": "tokenName",
					"type": "string"
				},
				{
					"name": "tokenSymbol",
					"type": "string"
				}
			],
			"payable": false,
			"stateMutability": "nonpayable",
			"type": "constructor"
		},
		{
			"anonymous": false,
			"inputs": [
				{
					"indexed": false,
					"name": "target",
					"type": "address"
				},
				{
					"indexed": false,
					"name": "frozen",
					"type": "bool"
				}
			],
			"name": "FrozenFunds",
			"type": "event"
		},
		{
			"anonymous": false,
			"inputs": [
				{
					"indexed": true,
					"name": "from",
					"type": "address"
				},
				{
					"indexed": false,
					"name": "value",
					"type": "uint256"
				}
			],
			"name": "Stake",
			"type": "event"
		},
		{
			"anonymous": false,
			"inputs": [
				{
					"indexed": true,
					"name": "from",
					"type": "address"
				},
				{
					"indexed": false,
					"name": "value",
					"type": "uint256"
				}
			],
			"name": "Unstake",
			"type": "event"
		},
		{
			"anonymous": false,
			"inputs": [
				{
					"indexed": true,
					"name": "from",
					"type": "address"
				},
				{
					"indexed": true,
					"name": "to",
					"type": "address"
				},
				{
					"indexed": false,
					"name": "value",
					"type": "uint256"
				}
			],
			"name": "Escrow",
			"type": "event"
		},
		{
			"anonymous": false,
			"inputs": [
				{
					"indexed": true,
					"name": "from",
					"type": "address"
				},
				{
					"indexed": false,
					"name": "value",
					"type": "uint256"
				}
			],
			"name": "Unescrow",
			"type": "event"
		},
		{
			"anonymous": false,
			"inputs": [
				{
					"indexed": true,
					"name": "from",
					"type": "address"
				},
				{
					"indexed": true,
					"name": "to",
					"type": "address"
				},
				{
					"indexed": false,
					"name": "value",
					"type": "uint256"
				}
			],
			"name": "PrimordialTransfer",
			"type": "event"
		},
		{
			"anonymous": false,
			"inputs": [
				{
					"indexed": true,
					"name": "_owner",
					"type": "address"
				},
				{
					"indexed": true,
					"name": "_spender",
					"type": "address"
				},
				{
					"indexed": false,
					"name": "_value",
					"type": "uint256"
				}
			],
			"name": "PrimordialApproval",
			"type": "event"
		},
		{
			"anonymous": false,
			"inputs": [
				{
					"indexed": true,
					"name": "from",
					"type": "address"
				},
				{
					"indexed": false,
					"name": "value",
					"type": "uint256"
				}
			],
			"name": "PrimordialBurn",
			"type": "event"
		},
		{
			"anonymous": false,
			"inputs": [
				{
					"indexed": true,
					"name": "from",
					"type": "address"
				},
				{
					"indexed": false,
					"name": "value",
					"type": "uint256"
				},
				{
					"indexed": false,
					"name": "weightedMultiplier",
					"type": "uint256"
				}
			],
			"name": "PrimordialStake",
			"type": "event"
		},
		{
			"anonymous": false,
			"inputs": [
				{
					"indexed": true,
					"name": "from",
					"type": "address"
				},
				{
					"indexed": false,
					"name": "value",
					"type": "uint256"
				},
				{
					"indexed": false,
					"name": "weightedMultiplier",
					"type": "uint256"
				}
			],
			"name": "PrimordialUnstake",
			"type": "event"
		},
		{
			"anonymous": false,
			"inputs": [
				{
					"indexed": true,
					"name": "lotOwner",
					"type": "address"
				},
				{
					"indexed": true,
					"name": "lotId",
					"type": "bytes32"
				},
				{
					"indexed": false,
					"name": "multiplier",
					"type": "uint256"
				},
				{
					"indexed": false,
					"name": "primordialTokenAmount",
					"type": "uint256"
				},
				{
					"indexed": false,
					"name": "networkTokenBonusAmount",
					"type": "uint256"
				}
			],
			"name": "LotCreation",
			"type": "event"
		},
		{
			"anonymous": false,
			"inputs": [
				{
					"indexed": true,
					"name": "lotOwner",
					"type": "address"
				},
				{
					"indexed": true,
					"name": "burnLotId",
					"type": "bytes32"
				},
				{
					"indexed": false,
					"name": "burnTokenAmount",
					"type": "uint256"
				},
				{
					"indexed": false,
					"name": "multiplierAfterBurn",
					"type": "uint256"
				}
			],
			"name": "BurnLotCreation",
			"type": "event"
		},
		{
			"anonymous": false,
			"inputs": [
				{
					"indexed": true,
					"name": "lotOwner",
					"type": "address"
				},
				{
					"indexed": true,
					"name": "convertLotId",
					"type": "bytes32"
				},
				{
					"indexed": false,
					"name": "convertTokenAmount",
					"type": "uint256"
				},
				{
					"indexed": false,
					"name": "multiplierAfterBurn",
					"type": "uint256"
				}
			],
			"name": "ConvertLotCreation",
			"type": "event"
		},
		{
			"anonymous": false,
			"inputs": [
				{
					"indexed": true,
					"name": "from",
					"type": "address"
				},
				{
					"indexed": true,
					"name": "to",
					"type": "address"
				},
				{
					"indexed": false,
					"name": "value",
					"type": "uint256"
				}
			],
			"name": "Transfer",
			"type": "event"
		},
		{
			"anonymous": false,
			"inputs": [
				{
					"indexed": true,
					"name": "_owner",
					"type": "address"
				},
				{
					"indexed": true,
					"name": "_spender",
					"type": "address"
				},
				{
					"indexed": false,
					"name": "_value",
					"type": "uint256"
				}
			],
			"name": "Approval",
			"type": "event"
		},
		{
			"anonymous": false,
			"inputs": [
				{
					"indexed": true,
					"name": "from",
					"type": "address"
				},
				{
					"indexed": false,
					"name": "value",
					"type": "uint256"
				}
			],
			"name": "Burn",
			"type": "event"
		}
	],
	"bytecode": "0x608060405260018054600160a060020a0319908116735c63644d01ba385ebac5bcf2ddc1e6dbc1182b52179091556002805490911673156c79bf4347d1891da834ea30662a14177cbf281790556006805460ff191660121790553480156200006657600080fd5b50604051620048b5380380620048b583398101604090815281516020808401518385015160008054600160a060020a03191633908117825560065460ff16600a0a86026007819055908252600885529590209490945584018051929490930191849184918491849184918491620000e49160049190850190620001b7565b508051620000fa906005906020840190620001b7565b50506000600a8190556006805460ff1990811690915560148054909116600117905562000136925090506127106401000000006200017f810204565b50506302faf0806015908155622dc6c0601655620f42406017556203d090601855600a8190556006805460ff199081169092179055601480549091169055506200025c92505050565b600054600160a060020a031633146200019757600080fd5b60145460ff161515600114620001ac57600080fd5b601291909155601355565b828054600181600116156101000203166002900490600052602060002090601f016020900481019282601f10620001fa57805160ff19168380011785556200022a565b828001600101855582156200022a579182015b828111156200022a5782518255916020019190600101906200020d565b50620002389291506200023c565b5090565b6200025991905b8082111562000238576000815560010162000243565b90565b614649806200026c6000396000f3006080604052600436106104135763ffffffff7c010000000000000000000000000000000000000000000000000000000060003504166305fefda7811461041857806306fdde0314610435578063080e74f7146104bf578063095ea7b3146105055780630aa245461461053d5780630ac0b31f1461056457806315227aa71461059a578063153d9049146105cb578063178a8f34146105ef57806318160ddd1461066057806323b872dd1461067557806323ceb6d81461069f578063281bdaf8146106c35780632b687bb9146106e45780632ffeef77146106f9578063313ce5671461070e57806331a8aeb314610739578063324b8ad21461075d578063360f277b1461077e57806339446f20146107935780633a9c7d3d146107a85780633bcd6624146107c95780633be928631461083557806341682d971461087357806342966c681461088857806349937e25146108a05780634b750334146108a85780634f090ab4146108bd5780634fbd2695146108d557806353d6fd59146108f657806354f7dd8c1461091c57806357946b8e14610940578063580b72e114610961578063602172671461098857806367cf17c2146109a95780636aae86c3146109d35780637056d1f4146109e857806370a0823114610a0957806372d1146614610a2a578063731a3b0614610a3f57806374ead7b714610a6357806379c6506814610a8a57806379cc679014610aae5780637d4831f614610ad25780637e904f7b14610aed578063834e9f3114610b145780638620410b14610b2957806387d4ca9314610b3e5780638a06604514610b685780638e81c64d14610b8c5780639581cb2314610ba757806395d89b4114610bbc5780639b19251a14610bd1578063a545a5d114610bf2578063a6f2ae3a14610c07578063a9059cbb14610c0f578063a918887814610c33578063a99433a614610c4e578063a9f7e66414610c63578063aaaf8a5214610c8a578063ab7f770614610cae578063af339ee414610cc3578063b1e19d4514610cdb578063b24626e914610cff578063b414d4b614610d26578063ba2f817014610d47578063bdb9c11f14610d5c578063bdceba5f14610d89578063c1b9981114610d9e578063c778edad14610dc2578063ca4b208b14610dd7578063cae9ca5114610dec578063caf2976514610e55578063cf3e194d14610e6a578063d1e5a55214610e8e578063d318386414610eb5578063d58e175814610ed9578063d661dd3114610e55578063d94ca0f914610efa578063dd1a293a14610f63578063dd62ed3e14610f8a578063e352845514610fb1578063e4849b3214610fd5578063e724529c14610fed578063ecbbd1ca14611013578063f0a668a914611034578063f2fde38b1461104f578063f39cce0114611070578063f5bd48c414611091578063faaad91d146110b2575b600080fd5b34801561042457600080fd5b506104336004356024356110ca565b005b34801561044157600080fd5b5061044a6110ec565b6040805160208082528351818301528351919283929083019185019080838360005b8381101561048457818101518382015260200161046c565b50505050905090810190601f1680156104b15780820380516001836020036101000a031916815260200191505b509250505060405180910390f35b3480156104cb57600080fd5b506104d760043561117a565b60408051948552600160a060020a039093166020850152838301919091526060830152519081900360800190f35b34801561051157600080fd5b50610529600160a060020a03600435166024356111ef565b604080519115158252519081900360200190f35b34801561054957600080fd5b50610552611256565b60408051918252519081900360200190f35b34801561057057600080fd5b5061057c60043561125c565b60408051938452602084019290925282820152519081900360600190f35b3480156105a657600080fd5b506105af6114c7565b60408051600160a060020a039092168252519081900360200190f35b3480156105d757600080fd5b50610552600160a060020a03600435166024356114d6565b3480156105fb57600080fd5b50610610600160a060020a03600435166114f3565b60408051602080825283518183015283519192839290830191858101910280838360005b8381101561064c578181015183820152602001610634565b505050509050019250505060405180910390f35b34801561066c57600080fd5b50610552611575565b34801561068157600080fd5b50610529600160a060020a036004358116906024351660443561157b565b3480156106ab57600080fd5b50610529600160a060020a03600435166024356115ea565b3480156106cf57600080fd5b50610552600160a060020a03600435166116ca565b3480156106f057600080fd5b506105526116fd565b34801561070557600080fd5b50610552611703565b34801561071a57600080fd5b50610723611709565b6040805160ff9092168252519081900360200190f35b34801561074557600080fd5b50610529600160a060020a0360043516602435611712565b34801561076957600080fd5b50610552600160a060020a036004351661182f565b34801561078a57600080fd5b50610552611862565b34801561079f57600080fd5b50610552611868565b3480156107b457600080fd5b50610552600160a060020a036004351661186e565b3480156107d557600080fd5b50604080516020601f60643560048181013592830184900484028501840190955281845261052994600160a060020a0381351694602480359560443595369560849493019181908401838280828437509497506118c69650505050505050565b34801561084157600080fd5b5061084d600435611914565b60408051938452600160a060020a03909216602084015282820152519081900360600190f35b34801561087f57600080fd5b5061055261197d565b34801561089457600080fd5b50610529600435611983565b6104336119fb565b3480156108b457600080fd5b50610552611c66565b3480156108c957600080fd5b50610529600435611c6c565b3480156108e157600080fd5b50610552600160a060020a0360043516611d58565b34801561090257600080fd5b50610433600160a060020a03600435166024351515611d6a565b34801561092857600080fd5b506104d7600160a060020a0360043516602435611dac565b34801561094c57600080fd5b50610552600160a060020a0360043516611e86565b34801561096d57600080fd5b50610529600160a060020a0360043516602435604435611e98565b34801561099457600080fd5b50610552600160a060020a0360043516611ed9565b3480156109b557600080fd5b50610529600160a060020a0360043581169060243516604435611eeb565b3480156109df57600080fd5b5061055261217c565b3480156109f457600080fd5b50610610600160a060020a0360043516612187565b348015610a1557600080fd5b50610552600160a060020a0360043516612207565b348015610a3657600080fd5b50610552612219565b348015610a4b57600080fd5b50610529600160a060020a036004351660243561221f565b348015610a6f57600080fd5b50610529600160a060020a036004351660243560443561233c565b348015610a9657600080fd5b50610529600160a060020a036004351660243561249a565b348015610aba57600080fd5b50610529600160a060020a03600435166024356124e2565b348015610ade57600080fd5b506104336004356024356125b3565b348015610af957600080fd5b50610529600160a060020a03600435166024356044356125e2565b348015610b2057600080fd5b50610552612750565b348015610b3557600080fd5b50610552612756565b348015610b4a57600080fd5b50610529600160a060020a036004358116906024351660443561275c565b348015610b7457600080fd5b50610529600160a060020a0360043516602435612886565b348015610b9857600080fd5b506105296004356024356129a3565b348015610bb357600080fd5b506105526129eb565b348015610bc857600080fd5b5061044a6129f1565b348015610bdd57600080fd5b50610529600160a060020a0360043516612a4c565b348015610bfe57600080fd5b50610529612a61565b610433612a6a565b348015610c1b57600080fd5b50610529600160a060020a0360043516602435612aa0565b348015610c3f57600080fd5b50610433600435602435612aad565b348015610c5a57600080fd5b506105af612ae3565b348015610c6f57600080fd5b50610529600160a060020a0360043516602435604435612af2565b348015610c9657600080fd5b50610529600160a060020a0360043516602435612b28565b348015610cba57600080fd5b50610552612ba6565b348015610ccf57600080fd5b5061084d600435612bac565b348015610ce757600080fd5b50610529600160a060020a0360043516602435612c15565b348015610d0b57600080fd5b50610433600160a060020a0360043581169060243516612d19565b348015610d3257600080fd5b50610529600160a060020a0360043516612d6b565b348015610d5357600080fd5b50610529612d80565b348015610d6857600080fd5b50610529600160a060020a0360043581169060243516604435606435612d89565b348015610d9557600080fd5b50610552612dc1565b348015610daa57600080fd5b50610529600160a060020a0360043516602435612dc7565b348015610dce57600080fd5b50610552612fd0565b348015610de357600080fd5b506105af612fd6565b348015610df857600080fd5b50604080516020600460443581810135601f8101849004840285018401909552848452610529948235600160a060020a0316946024803595369594606494920191908190840183828082843750949750612fe59650505050505050565b348015610e6157600080fd5b506105526130fa565b348015610e7657600080fd5b50610552600160a060020a0360043516602435613101565b348015610e9a57600080fd5b50610552600160a060020a03600435811690602435166131e2565b348015610ec157600080fd5b50610552600160a060020a03600435166024356131ff565b348015610ee557600080fd5b50610552600160a060020a03600435166132c2565b348015610f0657600080fd5b50604080516020600460443581810135601f8101849004840285018401909552848452610529948235600160a060020a03169460248035953695946064949201919081908401838280828437509497506132f59650505050505050565b348015610f6f57600080fd5b50610529600160a060020a036004351660243560443561331a565b348015610f9657600080fd5b50610552600160a060020a0360043581169060243516613350565b348015610fbd57600080fd5b50610529600160a060020a036004351660243561336d565b348015610fe157600080fd5b506104336004356134f6565b348015610ff957600080fd5b50610433600160a060020a03600435166024351515613587565b34801561101f57600080fd5b50610552600160a060020a0360043516613602565b34801561104057600080fd5b506104336004356024356136ee565b34801561105b57600080fd5b50610433600160a060020a036004351661371d565b34801561107c57600080fd5b50610610600160a060020a0360043516613763565b34801561109d57600080fd5b50610552600160a060020a03600435166137e3565b3480156110be57600080fd5b50610529600435613816565b600054600160a060020a031633146110e157600080fd5b600b91909155600c55565b6004805460408051602060026001851615610100026000190190941693909304601f810184900484028201840190925281815292918301828280156111725780601f1061114757610100808354040283529160200191611172565b820191906000526020600020905b81548152906001019060200180831161115557829003601f168201915b505050505081565b6000806000806111886145d6565b60145460ff16151560011461119c57600080fd5b5050506000928352505060208080526040918290208251608081018452815480825260018301549382018490526002830154600160a060020a031694820185905260039092015460609091018190529093565b336000818152600960209081526040808320600160a060020a038716808552908352818420869055815186815291519394909390927f8c5be1e5ebec7d5bd14f71427d1e84f3dd0314c0f7b2291e5b200ac8c7c3b925928290030190a35060015b92915050565b600a5481565b6014546000908190819060ff16151560011461127757600080fd5b601154601554601654604080517fc35f4bbb000000000000000000000000000000000000000000000000000000008152600481018990526603fffffffffffc60248201526044810194909452606484019290925260848301525173__AOLibrary_____________________________9163c35f4bbb9160a4808301926020929190829003018186803b15801561130c57600080fd5b505af4158015611320573d6000803e3d6000fd5b505050506040513d602081101561133657600080fd5b5051601154601754601854604080517f8f8bd64c000000000000000000000000000000000000000000000000000000008152600481018a90526603fffffffffffc60248201526044810194909452606484019290925260848301525173__AOLibrary_____________________________91638f8bd64c9160a4808301926020929190829003018186803b1580156113cd57600080fd5b505af41580156113e1573d6000803e3d6000fd5b505050506040513d60208110156113f757600080fd5b5051601154601754601854604080517fe9cfa745000000000000000000000000000000000000000000000000000000008152600481018b90526603fffffffffffc60248201526044810194909452606484019290925260848301525173__AOLibrary_____________________________9163e9cfa7459160a4808301926020929190829003018186803b15801561148e57600080fd5b505af41580156114a2573d6000803e3d6000fd5b505050506040513d60208110156114b857600080fd5b50519196909550909350915050565b600154600160a060020a031681565b601b60209081526000928352604080842090915290825290205481565b60145460609060ff16151560011461150a57600080fd5b600160a060020a0382166000908152602360209081526040918290208054835181840281018401909452808452909183018282801561156957602002820191906000526020600020905b81548152600190910190602001808311611554575b50505050509050919050565b60075481565b600160a060020a03831660009081526009602090815260408083203384529091528120548211156115ab57600080fd5b600160a060020a03841660009081526009602090815260408083203384529091529020805483900390556115e0848484613a06565b5060019392505050565b3360008181526003602052604081205490919060ff1615156001148061161d5750600054600160a060020a038281169116145b151561162857600080fd5b600160a060020a0384166000908152600f6020526040902054611651908463ffffffff613bee16565b600160a060020a0385166000908152600f602052604090205560075461167d908463ffffffff613bee16565b600755604080518481529051600160a060020a0386169130917f812c3251d8b2cd027716a7651ace6f9167d7fba4db9eb10df2e0cfe8b7fa48c99181900360200190a35060019392505050565b60145460009060ff1615156001146116e157600080fd5b50600160a060020a031660009081526026602052604090205490565b60125481565b601e5481565b60065460ff1681565b3360008181526003602052604081205490919060ff161515600114806117455750600054600160a060020a038281169116145b151561175057600080fd5b600160a060020a03841660009081526008602052604090205483111561177557600080fd5b600160a060020a03841660009081526008602052604090205461179e908463ffffffff613bfb16565b600160a060020a038516600090815260086020908152604080832093909355600e905220546117d3908463ffffffff613bee16565b600160a060020a0385166000818152600e6020908152604091829020939093558051868152905191927febedb8b3c678666e7f36970bc8f57abf6d8fa2e828c0da91ea5b75bf68ed101a92918290030190a25060019392505050565b60145460009060ff16151560011461184657600080fd5b50600160a060020a031660009081526024602052604090205490565b601c5481565b60175481565b60145460009060ff16151560011461188557600080fd5b600160a060020a038216600090815260236020526040812054116118aa576000611250565b50600160a060020a031660009081526027602052604090205490565b60145460009060ff1615156001146118dd57600080fd5b6118e8858584612fe5565b15156118f357600080fd5b6118fe8584846132f5565b151561190957600080fd5b506001949350505050565b60008060006119216145fd565b60145460ff16151560011461193557600080fd5b50505060009182525060216020908152604091829020825160608101845281548082526001830154600160a060020a0316938201849052600290920154930183905292909190565b601d5481565b3360009081526008602052604081205482111561199f57600080fd5b3360008181526008602090815260409182902080548690039055600780548690039055815185815291517fcc16f5dbb4873280815c1ee09dbd06736cffcc184412cf7a71a0fdb75d397ca59281900390910190a2506001919050565b60145460009081908190819081908190819060ff161515600114611a1e57600080fd5b601f5460ff1615611a2e57600080fd5b6011546603fffffffffffc11611a4357600080fd5b601354600010611a5257600080fd5b60003411611a5f57600080fd5b601354611a7390349063ffffffff613c0d16565b9650600095506603fffffffffffc611a9688601154613bee90919063ffffffff16565b10611aee57601154611ab6906603fffffffffffc9063ffffffff613bfb16565b601f805460ff19166001179055601354909750611aeb90611ade90899063ffffffff613c2216565b349063ffffffff613bfb16565b95505b60008711611afb57600080fd5b611b048761125c565b945094509450611b1f87601154613bee90919063ffffffff16565b601155611b2e33888786613c4b565b601554611b41908663ffffffff613bfb16565b9150611b8d620f4240611b8189611b75601854611b698a601754613bfb90919063ffffffff16565b9063ffffffff613bee16565b9063ffffffff613c2216565b9063ffffffff613c0d16565b600154909150600160a060020a031615611bd957600154611bd990600160a060020a0316611bc289600263ffffffff613c0d16565b84611bd485600263ffffffff613c0d16565b613c4b565b600254600160a060020a031615611c0f5760028054611c0f91600160a060020a0390911690611bc2908a9063ffffffff613c0d16565b600054611c2590600160a060020a031682613f1a565b6000861115611c5d57604051339087156108fc029088906000818181858888f19350505050158015611c5b573d6000803e3d6000fd5b505b50505050505050565b600b5481565b60145460009060ff161515600114611c8357600080fd5b33600090815260196020526040902054821115611c9f57600080fd5b81611ca933613602565b1015611cb457600080fd5b611cbe33836131ff565b33600090815260266020908152604080832093909355601990522054611cea908363ffffffff613bfb16565b33600090815260196020526040902055601054611d0d908363ffffffff613bfb16565b601055611d1a3383613fee565b60408051838152905133917f8ca2ca4355ea7f1e1880fa3d5f2dc524f82297c88282d5d95badd4041b8a8edb919081900360200190a2506001919050565b600f6020526000908152604090205481565b600054600160a060020a03163314611d8157600080fd5b600160a060020a03919091166000908152600360205260409020805460ff1916911515919091179055565b600080600080611dba6145d6565b60145460ff161515600114611dce57600080fd5b600160a060020a0387166000908152602360205260409020548610611df257600080fd5b600160a060020a03871660009081526023602090815260408220805491929189908110611e1b57fe5b600091825260208083209190910154835282810193909352604091820190208151608081018352815480825260018301549482018590526002830154600160a060020a03169382018490526003909201546060909101819052909a9199509197509095509350505050565b60196020526000908152604090205481565b60145460009060ff161515600114611eaf57600080fd5b611eb984846111ef565b1515611ec457600080fd5b611ece8483612b28565b15156115e057600080fd5b600e6020526000908152604090205481565b600080611ef66145d6565b60145460ff161515600114611f0a57600080fd5b600160a060020a0386166000908152601a60209081526040808320338452909152902054841115611f3a57600080fd5b600160a060020a0386166000908152601a60209081526040808320338452909152902054611f6e908563ffffffff613bfb16565b600160a060020a0387166000818152601a6020908152604080832033845282528083209490945591815260269091522054611fac9086908690614186565b600081815260208080526040918290208251608081018452815481526001820154928101929092526002810154600160a060020a03908116938301849052600390910154606083015292945092509086161461200757600080fd5b600160a060020a038086166000908152602660208181526040808420546019835281852054958c168552928252928390205483517f8cf3313f00000000000000000000000000000000000000000000000000000000815260048101939093526024830194909452604482019390935260648101879052905173__AOLibrary_____________________________92638cf3313f9260848082019391829003018186803b1580156120b657600080fd5b505af41580156120ca573d6000803e3d6000fd5b505050506040513d60208110156120e057600080fd5b5051600160a060020a03861660009081526026602052604090205561210686868661431f565b151561211157600080fd5b80516040808301516020808501516060808701518551928352928201929092526000818501529251600160a060020a03909216927f20dcffcce6f33b394371fed8876a2562e3110ed8dbdc448b593a2680c7330a03929081900390910190a350600195945050505050565b6603fffffffffffc81565b60145460609060ff16151560011461219e57600080fd5b600160a060020a038216600090815260246020908152604091829020805483518184028101840190945280845290918301828280156115695760200282019190600052602060002090815481526001909101906020018083116115545750505050509050919050565b60086020526000908152604090205481565b60135481565b3360008181526003602052604081205490919060ff161515600114806122525750600054600160a060020a038281169116145b151561225d57600080fd5b600160a060020a0384166000908152600e602052604090205483111561228257600080fd5b600160a060020a0384166000908152600e60205260409020546122ab908463ffffffff613bfb16565b600160a060020a0385166000908152600e60209081526040808320939093556008905220546122e0908463ffffffff613bee16565b600160a060020a038516600081815260086020908152604091829020939093558051868152905191927f85082129d87b2fe11527cb1b3b7a520aeb5aa6913f88a3d8757fe40d1db02fdd92918290030190a25060019392505050565b3360008181526003602052604081205490919060ff1615156001148061236f5750600054600160a060020a038281169116145b151561237a57600080fd5b60145460ff16151560011461238e57600080fd5b600160a060020a0385166000908152601b602090815260408083208684529091529020548411156123be57600080fd5b600160a060020a0385166000908152601b602090815260408083208684529091529020546123f2908563ffffffff613bfb16565b600160a060020a0386166000818152601b6020908152604080832088845282528083209490945591815260199091522054612433908563ffffffff613bee16565b600160a060020a038616600081815260196020908152604091829020939093558051878152928301869052805191927f7bcdc377a1fa8b0dd654d64d7337143be4ce1250ada31f3b1cdac27dea65d3a3929081900390910190a2600191505b509392505050565b3360008181526003602052604081205490919060ff161515600114806124cd5750600054600160a060020a038281169116145b15156124d857600080fd5b6115e08484613f1a565b600160a060020a03821660009081526008602052604081205482111561250757600080fd5b600160a060020a038316600090815260096020908152604080832033845290915290205482111561253757600080fd5b600160a060020a0383166000818152600860209081526040808320805487900390556009825280832033845282529182902080548690039055600780548690039055815185815291517fcc16f5dbb4873280815c1ee09dbd06736cffcc184412cf7a71a0fdb75d397ca59281900390910190a250600192915050565b600054600160a060020a031633146125ca57600080fd5b808210156125d757600080fd5b601591909155601655565b3360008181526003602052604081205490919060ff161515600114806126155750600054600160a060020a038281169116145b151561262057600080fd5b60145460ff16151560011461263457600080fd5b600160a060020a03851660009081526019602052604090205484111561265957600080fd5b600160a060020a038516600090815260266020526040902054831461267d57600080fd5b600160a060020a0385166000908152601960205260409020546126a6908563ffffffff613bfb16565b600160a060020a038616600090815260196020908152604080832093909355601b8152828220868352905220546126e3908563ffffffff613bee16565b600160a060020a0386166000818152601b60209081526040808320888452825291829020939093558051878152928301869052805191927fe62430bd00d68dd82de89addd3b7e4ce6bd50eb278f53dfb7fa7dac47643098d929081900390910190a2506001949350505050565b60105481565b600c5481565b3360008181526003602052604081205490919060ff1615156001148061278f5750600054600160a060020a038281169116145b151561279a57600080fd5b600160a060020a0385166000908152600860205260409020548311156127bf57600080fd5b600160a060020a0385166000908152600860205260409020546127e8908463ffffffff613bfb16565b600160a060020a038087166000908152600860209081526040808320949094559187168152600f9091522054612824908463ffffffff613bee16565b600160a060020a038086166000818152600f602090815260409182902094909455805187815290519193928916927f812c3251d8b2cd027716a7651ace6f9167d7fba4db9eb10df2e0cfe8b7fa48c992918290030190a3506001949350505050565b3360008181526003602052604081205490919060ff161515600114806128b95750600054600160a060020a038281169116145b15156128c457600080fd5b600160a060020a0384166000908152600f60205260409020548311156128e957600080fd5b600160a060020a0384166000908152600f6020526040902054612912908463ffffffff613bfb16565b600160a060020a0385166000908152600f6020908152604080832093909355600890522054612947908463ffffffff613bee16565b600160a060020a038516600081815260086020908152604091829020939093558051868152905191927f85538b0b045118ba300aa14d9701eab875903dd2976d62d855ec959a3e6cffb192918290030190a25060019392505050565b60145460009060ff1615156001146129ba57600080fd5b6129c383611983565b15156129ce57600080fd5b6129d782611c6c565b15156129e257600080fd5b50600192915050565b60155481565b6005805460408051602060026001851615610100026000190190941693909304601f810184900484028201840190925281815292918301828280156111725780601f1061114757610100808354040283529160200191611172565b60036020526000908152604090205460ff1681565b601f5460ff1681565b600080600c54111515612a7c57600080fd5b600c54612a9090349063ffffffff613c0d16565b9050612a9d303383613a06565b50565b60006129e2338484613a06565b600054600160a060020a03163314612ac457600080fd5b60145460ff161515600114612ad857600080fd5b601291909155601355565b600254600160a060020a031681565b60145460009060ff161515600114612b0957600080fd5b612b138484612aa0565b1515612b1e57600080fd5b611ece8483612dc7565b60145460009060ff161515600114612b3f57600080fd5b336000818152601a60209081526040808320600160a060020a03881680855290835292819020869055805186815290519293927f199f64ba6278b91ed8e7f45335d9fdbfa2d094b1fdc34465229e79047fcea3ce929181900390910190a350600192915050565b60115481565b6000806000612bb96145fd565b60145460ff161515600114612bcd57600080fd5b50505060009182525060226020908152604091829020825160608101845281548082526001830154600160a060020a0316938201849052600290920154930183905292909190565b3360008181526003602052604081205490919060ff16151560011480612c485750600054600160a060020a038281169116145b1515612c5357600080fd5b600160a060020a038416600090815260086020526040902054831115612c7857600080fd5b600160a060020a038416600090815260086020526040902054612ca1908463ffffffff613bfb16565b600160a060020a038516600090815260086020526040902055600754612ccd908463ffffffff613bfb16565b600755604080518481529051600160a060020a038616917fcc16f5dbb4873280815c1ee09dbd06736cffcc184412cf7a71a0fdb75d397ca5919081900360200190a25060019392505050565b600054600160a060020a03163314612d3057600080fd5b60018054600160a060020a0393841673ffffffffffffffffffffffffffffffffffffffff199182161790915560028054929093169116179055565b600d6020526000908152604090205460ff1681565b60145460ff1681565b60145460009060ff161515600114612da057600080fd5b612dab85858561157b565b1515612db657600080fd5b6118fe858584611eeb565b60185481565b600080612dd26145d6565b60145460ff161515600114612de657600080fd5b33600090815260266020526040902054612e039086908690614186565b600081815260208080526040918290208251608081018452815481526001820154928101929092526002810154600160a060020a039081169383018490526003909101546060830152929450925090861614612e5e57600080fd5b600160a060020a0385166000908152602660208181526040808420546019835281852054338652938352938190205481517f8cf3313f00000000000000000000000000000000000000000000000000000000815260048101959095526024850193909352604484019290925260648301879052905173__AOLibrary_____________________________92638cf3313f926084808301939192829003018186803b158015612f0b57600080fd5b505af4158015612f1f573d6000803e3d6000fd5b505050506040513d6020811015612f3557600080fd5b5051600160a060020a038616600090815260266020526040902055612f5b33868661431f565b1515612f6657600080fd5b80516040808301516020808501516060808701518551928352928201929092526000818501529251600160a060020a03909216927f20dcffcce6f33b394371fed8876a2562e3110ed8dbdc448b593a2680c7330a03929081900390910190a3506001949350505050565b60165481565b600054600160a060020a031681565b600083612ff281856111ef565b15612492576040517f8f4ffcb10000000000000000000000000000000000000000000000000000000081523360048201818152602483018790523060448401819052608060648501908152875160848601528751600160a060020a03871695638f4ffcb195948b94938b939192909160a490910190602085019080838360005b8381101561308a578181015183820152602001613072565b50505050905090810190601f1680156130b75780820380516001836020036101000a031916815260200191505b5095505050505050600060405180830381600087803b1580156130d957600080fd5b505af11580156130ed573d6000803e3d6000fd5b5050505060019150612492565b620f424081565b60145460009060ff16151560011461311857600080fd5b600160a060020a03831660009081526019602090815260408083205460268352928190205481517f7fbc9c5500000000000000000000000000000000000000000000000000000000815260048101949094526024840152604483018590525173__AOLibrary_____________________________92637fbc9c55926064808301939192829003018186803b1580156131af57600080fd5b505af41580156131c3573d6000803e3d6000fd5b505050506040513d60208110156131d957600080fd5b50519392505050565b601a60209081526000928352604080842090915290825290205481565b60145460009060ff16151560011461321657600080fd5b8161322084613602565b101561322b57600080fd5b600160a060020a03831660009081526019602090815260408083205460268352928190205481517f32363e0a00000000000000000000000000000000000000000000000000000000815260048101949094526024840152604483018590525173__AOLibrary_____________________________926332363e0a926064808301939192829003018186803b1580156131af57600080fd5b60145460009060ff1615156001146132d957600080fd5b50600160a060020a031660009081526025602052604090205490565b601454600090819060ff16151560011461330e57600080fd5b5083612ff28185612b28565b60145460009060ff16151560011461333157600080fd5b61333b84846124e2565b151561334657600080fd5b611ece848361336d565b600960209081526000928352604080842090915290825290205481565b60145460009060ff16151560011461338457600080fd5b600160a060020a0383166000908152601960205260409020548211156133a957600080fd5b600160a060020a0383166000908152601a602090815260408083203384529091529020548211156133d957600080fd5b816133e384613602565b10156133ee57600080fd5b6133f883836131ff565b600160a060020a03841660009081526026602090815260408083209390935560199052205461342d908363ffffffff613bfb16565b600160a060020a038416600090815260196020908152604080832093909355601a81528282203383529052205461346a908363ffffffff613bfb16565b600160a060020a0384166000908152601a602090815260408083203384529091529020556010546134a1908363ffffffff613bfb16565b6010556134ae8383613fee565b604080518381529051600160a060020a038516917f8ca2ca4355ea7f1e1880fa3d5f2dc524f82297c88282d5d95badd4041b8a8edb919081900360200190a250600192915050565b600080600b5411151561350857600080fd5b50600b54309061351f90839063ffffffff613c2216565b600160a060020a03821631101561353557600080fd5b613540333084613a06565b600b5433906108fc9061355a90859063ffffffff613c2216565b6040518115909202916000818181858888f19350505050158015613582573d6000803e3d6000fd5b505050565b600054600160a060020a0316331461359e57600080fd5b600160a060020a0382166000818152600d6020908152604091829020805460ff191685151590811790915582519384529083015280517f48335238b4855f35377ed80f164e8c6f3c366e54ac00b96a6402d4a9814a03a59281900390910190a15050565b60145460009060ff16151560011461361957600080fd5b600160a060020a038216600090815260196020908152604080832054602683528184205460278452938290205482517f4d5a11730000000000000000000000000000000000000000000000000000000081526004810192909252602482019490945260448101939093525173__AOLibrary_____________________________92634d5a1173926064808301939192829003018186803b1580156136bc57600080fd5b505af41580156136d0573d6000803e3d6000fd5b505050506040513d60208110156136e657600080fd5b505192915050565b600054600160a060020a0316331461370557600080fd5b8082101561371257600080fd5b601791909155601855565b600054600160a060020a0316331461373457600080fd5b6000805473ffffffffffffffffffffffffffffffffffffffff1916600160a060020a0392909216919091179055565b60145460609060ff16151560011461377a57600080fd5b600160a060020a038216600090815260256020908152604091829020805483518184028101840190945280845290918301828280156115695760200282019190600052602060002090815481526001909101906020018083116115545750505050509050919050565b60145460009060ff1615156001146137fa57600080fd5b50600160a060020a031660009081526023602052604090205490565b6014546000908190819060ff16151560011461383157600080fd5b3360009081526008602052604090205484111561384d57600080fd5b6138573385613101565b3360009081526026602052604090205561387084611983565b5061387b3385614502565b601e805460010190819055604080516c010000000000000000000000003081026020808401919091523391909102603483015260488083019490945282518083039094018452606890910191829052825182918401908083835b602083106138f45780518252601f1990920191602091820191016138d5565b51815160209384036101000a60001901801990921691161790526040805192909401829003909120600081815260229092529290206001015491955050600160a060020a0316159150613948905057600080fd5b5060008181526022602090815260408083208481556001808201805473ffffffffffffffffffffffffffffffffffffffff1916339081178255600284018a815590875260258652848720805493840181558752858720909201879055825490549154600160a060020a039290921680875260268652958490205484519283529482019490945282519194927f24f057e925d9fc5c8b912d57da9cf8bbcf393fa8c87db8005d378fe9f828e7ba92918290030190a35060019392505050565b6000600160a060020a0383161515613a1d57600080fd5b600160a060020a038416600090815260086020526040902054821115613a4257600080fd5b600160a060020a038316600090815260086020526040902054613a6b818463ffffffff613bee16565b1015613a7657600080fd5b600160a060020a0384166000908152600d602052604090205460ff1615613a9c57600080fd5b600160a060020a0383166000908152600d602052604090205460ff1615613ac257600080fd5b600160a060020a03808416600090815260086020526040808220549287168252902054613af49163ffffffff613bee16565b600160a060020a038516600090815260086020526040902054909150613b20908363ffffffff613bfb16565b600160a060020a038086166000908152600860205260408082209390935590851681522054613b55908363ffffffff613bee16565b600160a060020a0380851660008181526008602090815260409182902094909455805186815290519193928816927fddf252ad1be2c89b69c2b068fc378daa952ba7f163c4a11628f55a4df523b3ef92918290030190a3600160a060020a038084166000908152600860205260408082205492871682529020548291613be1919063ffffffff613bee16565b14613be857fe5b50505050565b8181018281101561125057fe5b600082821115613c0757fe5b50900390565b60008183811515613c1a57fe5b049392505050565b6000821515613c3357506000611250565b50818102818382811515613c4357fe5b041461125057fe5b601c805460010190819055604080516c01000000000000000000000000308102602080840191909152600160a060020a038916909102603483015260488083019490945282518083039094018452606890910191829052825160009384939092909182918401908083835b60208310613cd55780518252601f199092019160209182019101613cb6565b51815160209384036101000a6000190180199092169116179052604080519290940182900390912060008181529180529290206002015491955050600160a060020a0316159150613d27905057600080fd5b50600081815260208080526040808320848155600180820188815560028301805473ffffffffffffffffffffffffffffffffffffffff1916600160a060020a038d16908117909155600384018b815581885260238752858820805494850181558852868820909301889055865260268552838620546019865295849020549054915484517f8cf3313f00000000000000000000000000000000000000000000000000000000815260048101979097526024870191909152604486019190915260648501529051909273__AOLibrary_____________________________92638cf3313f92608480840193829003018186803b158015613e2557600080fd5b505af4158015613e39573d6000803e3d6000fd5b505050506040513d6020811015613e4f57600080fd5b5051600160a060020a03871660009081526026602090815260408083209390935560239052205460011415613e9d576001810154600160a060020a0387166000908152602760205260409020555b613eab868260030154614502565b613eb58684613f1a565b805460028201546001830154600384015460408051928352602083019190915281810187905251600160a060020a03909216917f20dcffcce6f33b394371fed8876a2562e3110ed8dbdc448b593a2680c7330a039181900360600190a3505050505050565b600160a060020a038216600090815260086020526040902054613f43908263ffffffff613bee16565b600160a060020a038316600090815260086020526040902055600754613f6f908263ffffffff613bee16565b60075560408051828152905130916000917fddf252ad1be2c89b69c2b068fc378daa952ba7f163c4a11628f55a4df523b3ef9181900360200190a3604080518281529051600160a060020a0384169130917fddf252ad1be2c89b69c2b068fc378daa952ba7f163c4a11628f55a4df523b3ef9181900360200190a35050565b601d805460010190819055604080516c01000000000000000000000000308102602080840191909152600160a060020a038716909102603483015260488083019490945282518083039094018452606890910191829052825160009384939092909182918401908083835b602083106140785780518252601f199092019160209182019101614059565b51815160209384036101000a60001901801990921691161790526040805192909401829003909120600081815260219092529290206001015491955050600160a060020a03161591506140cc905057600080fd5b5060008181526021602090815260408083208481556001808201805473ffffffffffffffffffffffffffffffffffffffff1916600160a060020a038a81169182178355600285018a815591885260248752858820805494850181558852868820909301889055835491549054921680875260268652958490205484519283529482019490945282519194927f6c5992d9f99885465942ae05b2bcc358a509184bb262ec9bfe242ccdc42d1a0392918290030190a350505050565b60008080600160a060020a038616151561419f57600080fd5b600085116141ac57600080fd5b601c805460010190819055604080516c01000000000000000000000000308102602080840191909152600160a060020a038b16909102603483015260488083019490945282518083039094018452606890910191829052825182918401908083835b6020831061422d5780518252601f19909201916020918201910161420e565b51815160209384036101000a6000190180199092169116179052604080519290940182900390912060008181529180529290206002015491955050600160a060020a031615915061427f905057600080fd5b50600081815260208080526040808320848155600180820188905560028201805473ffffffffffffffffffffffffffffffffffffffff1916600160a060020a038c16908117909155600383018a905580865260238552928520805480830182558187529486209094018690559190935290541415614316576001810154600160a060020a0387166000908152602760205260409020555b50949350505050565b600080600160a060020a038416151561433757600080fd5b600160a060020a03851660009081526019602052604090205483111561435c57600080fd5b600160a060020a038416600090815260196020526040902054614385818563ffffffff613bee16565b101561439057600080fd5b600160a060020a0385166000908152600d602052604090205460ff16156143b657600080fd5b600160a060020a0384166000908152600d602052604090205460ff16156143dc57600080fd5b600160a060020a0380851660009081526019602052604080822054928816825290205461440e9163ffffffff613bee16565b600160a060020a03861660009081526019602052604090205490915061443a908463ffffffff613bfb16565b600160a060020a03808716600090815260196020526040808220939093559086168152205461446f908463ffffffff613bee16565b600160a060020a0380861660008181526019602090815260409182902094909455805187815290519193928916927fa906a7bdab67ba77819fbd926440353e67b66c398aaeffd1fd212ddae941bbe292918290030190a3600160a060020a0380851660009081526019602052604080822054928816825290205482916144fb919063ffffffff613bee16565b1461190957fe5b600160a060020a03821660009081526019602052604090205461452b908263ffffffff613bee16565b600160a060020a038316600090815260196020526040902055601054614557908263ffffffff613bee16565b60105560408051828152905130916000917fa906a7bdab67ba77819fbd926440353e67b66c398aaeffd1fd212ddae941bbe29181900360200190a3604080518281529051600160a060020a0384169130917fa906a7bdab67ba77819fbd926440353e67b66c398aaeffd1fd212ddae941bbe29181900360200190a35050565b60408051608081018252600080825260208201819052918101829052606081019190915290565b6040805160608101825260008082526020820181905291810191909152905600a165627a7a72305820456020d6bf1389db7a31694e03caa2293c3e4bec246d792052898b0d67d0af630029",
	"source": "pragma solidity ^0.4.24;\n\nimport \"./AOToken.sol\";\n\ncontract AOZetta is AOToken {\n\t/**\n\t * @dev Constructor function\n\t */\n\tconstructor(uint256 initialSupply, string tokenName, string tokenSymbol)\n\t\tAOToken(initialSupply, tokenName, tokenSymbol) public {\n\t\tpowerOfTen = 21;\n\t\tdecimals = 21;\n\t\tnetworkExchangeContract = false;\n\t}\n}\n",
	"sourcePath": "/home/jmulyono/ao-contracts/contracts/AOZetta.sol",
	"compiler": {
		"name": "solc",
		"version": "0.4.24+commit.e67f0147.Emscripten.clang"
	},
	"schemaVersion": "2.0.1",
	"updatedAt": "2018-10-11T17:22:15.240Z"
}