{
	"contractName": "AOZetta",
	"abi": [
		{
			"constant": false,
			"inputs": [
				{
					"name": "_from",
					"type": "address"
				},
				{
					"name": "_to",
					"type": "address"
				},
				{
					"name": "_value",
					"type": "uint256"
				}
			],
			"name": "transferIcoTokenFrom",
			"outputs": [
				{
					"name": "success",
					"type": "bool"
				}
			],
			"payable": false,
			"stateMutability": "nonpayable",
			"type": "function"
		},
		{
			"constant": false,
			"inputs": [
				{
					"name": "newSellPrice",
					"type": "uint256"
				},
				{
					"name": "newBuyPrice",
					"type": "uint256"
				}
			],
			"name": "setPrices",
			"outputs": [],
			"payable": false,
			"stateMutability": "nonpayable",
			"type": "function"
		},
		{
			"constant": true,
			"inputs": [],
			"name": "name",
			"outputs": [
				{
					"name": "",
					"type": "string"
				}
			],
			"payable": false,
			"stateMutability": "view",
			"type": "function"
		},
		{
			"constant": true,
			"inputs": [
				{
					"name": "_lotId",
					"type": "bytes32"
				}
			],
			"name": "lotById",
			"outputs": [
				{
					"name": "",
					"type": "bytes32"
				},
				{
					"name": "",
					"type": "uint256"
				},
				{
					"name": "",
					"type": "uint256"
				}
			],
			"payable": false,
			"stateMutability": "view",
			"type": "function"
		},
		{
			"constant": false,
			"inputs": [
				{
					"name": "_spender",
					"type": "address"
				},
				{
					"name": "_value",
					"type": "uint256"
				}
			],
			"name": "approve",
			"outputs": [
				{
					"name": "success",
					"type": "bool"
				}
			],
			"payable": false,
			"stateMutability": "nonpayable",
			"type": "function"
		},
		{
			"constant": true,
			"inputs": [],
			"name": "powerOfTen",
			"outputs": [
				{
					"name": "",
					"type": "uint256"
				}
			],
			"payable": false,
			"stateMutability": "view",
			"type": "function"
		},
		{
			"constant": true,
			"inputs": [],
			"name": "totalSupply",
			"outputs": [
				{
					"name": "",
					"type": "uint256"
				}
			],
			"payable": false,
			"stateMutability": "view",
			"type": "function"
		},
		{
			"constant": true,
			"inputs": [],
			"name": "icoSellPrice",
			"outputs": [
				{
					"name": "",
					"type": "uint256"
				}
			],
			"payable": false,
			"stateMutability": "view",
			"type": "function"
		},
		{
			"constant": false,
			"inputs": [],
			"name": "reserveForFoundation",
			"outputs": [],
			"payable": false,
			"stateMutability": "nonpayable",
			"type": "function"
		},
		{
			"constant": false,
			"inputs": [
				{
					"name": "_from",
					"type": "address"
				},
				{
					"name": "_to",
					"type": "address"
				},
				{
					"name": "_value",
					"type": "uint256"
				}
			],
			"name": "transferFrom",
			"outputs": [
				{
					"name": "success",
					"type": "bool"
				}
			],
			"payable": false,
			"stateMutability": "nonpayable",
			"type": "function"
		},
		{
			"constant": true,
			"inputs": [],
			"name": "icoTotalSupply",
			"outputs": [
				{
					"name": "",
					"type": "uint256"
				}
			],
			"payable": false,
			"stateMutability": "view",
			"type": "function"
		},
		{
			"constant": true,
			"inputs": [],
			"name": "ICO_RESERVED_FOR_FOUNDATION",
			"outputs": [
				{
					"name": "",
					"type": "uint256"
				}
			],
			"payable": false,
			"stateMutability": "view",
			"type": "function"
		},
		{
			"constant": true,
			"inputs": [],
			"name": "decimals",
			"outputs": [
				{
					"name": "",
					"type": "uint8"
				}
			],
			"payable": false,
			"stateMutability": "view",
			"type": "function"
		},
		{
			"constant": false,
			"inputs": [
				{
					"name": "_from",
					"type": "address"
				},
				{
					"name": "_value",
					"type": "uint256"
				}
			],
			"name": "stakeFrom",
			"outputs": [
				{
					"name": "",
					"type": "bool"
				}
			],
			"payable": false,
			"stateMutability": "nonpayable",
			"type": "function"
		},
		{
			"constant": false,
			"inputs": [],
			"name": "buyIcoToken",
			"outputs": [],
			"payable": true,
			"stateMutability": "payable",
			"type": "function"
		},
		{
			"constant": true,
			"inputs": [],
			"name": "totalLots",
			"outputs": [
				{
					"name": "",
					"type": "uint256"
				}
			],
			"payable": false,
			"stateMutability": "view",
			"type": "function"
		},
		{
			"constant": false,
			"inputs": [
				{
					"name": "_spender",
					"type": "address"
				},
				{
					"name": "_value",
					"type": "uint256"
				},
				{
					"name": "_icoValue",
					"type": "uint256"
				},
				{
					"name": "_extraData",
					"type": "bytes"
				}
			],
			"name": "approveTokensAndCall",
			"outputs": [
				{
					"name": "success",
					"type": "bool"
				}
			],
			"payable": false,
			"stateMutability": "nonpayable",
			"type": "function"
		},
		{
			"constant": false,
			"inputs": [
				{
					"name": "_value",
					"type": "uint256"
				}
			],
			"name": "burn",
			"outputs": [
				{
					"name": "success",
					"type": "bool"
				}
			],
			"payable": false,
			"stateMutability": "nonpayable",
			"type": "function"
		},
		{
			"constant": true,
			"inputs": [
				{
					"name": "_lotOwner",
					"type": "address"
				}
			],
			"name": "lotsByAddress",
			"outputs": [
				{
					"name": "",
					"type": "bytes32[]"
				}
			],
			"payable": false,
			"stateMutability": "view",
			"type": "function"
		},
		{
			"constant": true,
			"inputs": [],
			"name": "sellPrice",
			"outputs": [
				{
					"name": "",
					"type": "uint256"
				}
			],
			"payable": false,
			"stateMutability": "view",
			"type": "function"
		},
		{
			"constant": true,
			"inputs": [],
			"name": "WEIGHTED_INDEX_DIVISOR",
			"outputs": [
				{
					"name": "",
					"type": "uint256"
				}
			],
			"payable": false,
			"stateMutability": "view",
			"type": "function"
		},
		{
			"constant": true,
			"inputs": [
				{
					"name": "",
					"type": "address"
				},
				{
					"name": "",
					"type": "address"
				}
			],
			"name": "icoAllowance",
			"outputs": [
				{
					"name": "",
					"type": "uint256"
				}
			],
			"payable": false,
			"stateMutability": "view",
			"type": "function"
		},
		{
			"constant": false,
			"inputs": [
				{
					"name": "_account",
					"type": "address"
				},
				{
					"name": "_whitelist",
					"type": "bool"
				}
			],
			"name": "setWhitelist",
			"outputs": [],
			"payable": false,
			"stateMutability": "nonpayable",
			"type": "function"
		},
		{
			"constant": true,
			"inputs": [],
			"name": "icoBuyPrice",
			"outputs": [
				{
					"name": "",
					"type": "uint256"
				}
			],
			"payable": false,
			"stateMutability": "view",
			"type": "function"
		},
		{
			"constant": true,
			"inputs": [
				{
					"name": "_lotOwner",
					"type": "address"
				},
				{
					"name": "_index",
					"type": "uint256"
				}
			],
			"name": "lotOfOwnerByIndex",
			"outputs": [
				{
					"name": "",
					"type": "bytes32"
				},
				{
					"name": "",
					"type": "uint256"
				},
				{
					"name": "",
					"type": "uint256"
				}
			],
			"payable": false,
			"stateMutability": "view",
			"type": "function"
		},
		{
			"constant": true,
			"inputs": [
				{
					"name": "_lotOwner",
					"type": "address"
				}
			],
			"name": "weightedIndexByAddress",
			"outputs": [
				{
					"name": "",
					"type": "uint256"
				}
			],
			"payable": false,
			"stateMutability": "view",
			"type": "function"
		},
		{
			"constant": true,
			"inputs": [
				{
					"name": "",
					"type": "address"
				}
			],
			"name": "icoBalanceOf",
			"outputs": [
				{
					"name": "",
					"type": "uint256"
				}
			],
			"payable": false,
			"stateMutability": "view",
			"type": "function"
		},
		{
			"constant": false,
			"inputs": [
				{
					"name": "_spender",
					"type": "address"
				},
				{
					"name": "_value",
					"type": "uint256"
				},
				{
					"name": "_icoValue",
					"type": "uint256"
				}
			],
			"name": "approveTokens",
			"outputs": [
				{
					"name": "success",
					"type": "bool"
				}
			],
			"payable": false,
			"stateMutability": "nonpayable",
			"type": "function"
		},
		{
			"constant": true,
			"inputs": [],
			"name": "icoEnded",
			"outputs": [
				{
					"name": "",
					"type": "bool"
				}
			],
			"payable": false,
			"stateMutability": "view",
			"type": "function"
		},
		{
			"constant": false,
			"inputs": [
				{
					"name": "_spender",
					"type": "address"
				},
				{
					"name": "_value",
					"type": "uint256"
				},
				{
					"name": "_extraData",
					"type": "bytes"
				}
			],
			"name": "approveIcoTokenAndCall",
			"outputs": [
				{
					"name": "success",
					"type": "bool"
				}
			],
			"payable": false,
			"stateMutability": "nonpayable",
			"type": "function"
		},
		{
			"constant": true,
			"inputs": [
				{
					"name": "",
					"type": "address"
				}
			],
			"name": "stakedBalance",
			"outputs": [
				{
					"name": "",
					"type": "uint256"
				}
			],
			"payable": false,
			"stateMutability": "view",
			"type": "function"
		},
		{
			"constant": true,
			"inputs": [
				{
					"name": "",
					"type": "address"
				}
			],
			"name": "balanceOf",
			"outputs": [
				{
					"name": "",
					"type": "uint256"
				}
			],
			"payable": false,
			"stateMutability": "view",
			"type": "function"
		},
		{
			"constant": false,
			"inputs": [
				{
					"name": "_from",
					"type": "address"
				},
				{
					"name": "_value",
					"type": "uint256"
				}
			],
			"name": "unstakeFrom",
			"outputs": [
				{
					"name": "",
					"type": "bool"
				}
			],
			"payable": false,
			"stateMutability": "nonpayable",
			"type": "function"
		},
		{
			"constant": false,
			"inputs": [
				{
					"name": "target",
					"type": "address"
				},
				{
					"name": "mintedAmount",
					"type": "uint256"
				}
			],
			"name": "mintToken",
			"outputs": [
				{
					"name": "",
					"type": "bool"
				}
			],
			"payable": false,
			"stateMutability": "nonpayable",
			"type": "function"
		},
		{
			"constant": false,
			"inputs": [
				{
					"name": "_from",
					"type": "address"
				},
				{
					"name": "_value",
					"type": "uint256"
				}
			],
			"name": "burnFrom",
			"outputs": [
				{
					"name": "success",
					"type": "bool"
				}
			],
			"payable": false,
			"stateMutability": "nonpayable",
			"type": "function"
		},
		{
			"constant": false,
			"inputs": [
				{
					"name": "newIcoSellPrice",
					"type": "uint256"
				},
				{
					"name": "newIcoBuyPrice",
					"type": "uint256"
				}
			],
			"name": "setIcoPrices",
			"outputs": [],
			"payable": false,
			"stateMutability": "nonpayable",
			"type": "function"
		},
		{
			"constant": true,
			"inputs": [],
			"name": "buyPrice",
			"outputs": [
				{
					"name": "",
					"type": "uint256"
				}
			],
			"payable": false,
			"stateMutability": "view",
			"type": "function"
		},
		{
			"constant": true,
			"inputs": [],
			"name": "owner",
			"outputs": [
				{
					"name": "",
					"type": "address"
				}
			],
			"payable": false,
			"stateMutability": "view",
			"type": "function"
		},
		{
			"constant": false,
			"inputs": [
				{
					"name": "_value",
					"type": "uint256"
				},
				{
					"name": "_icoValue",
					"type": "uint256"
				}
			],
			"name": "burnTokens",
			"outputs": [
				{
					"name": "success",
					"type": "bool"
				}
			],
			"payable": false,
			"stateMutability": "nonpayable",
			"type": "function"
		},
		{
			"constant": true,
			"inputs": [],
			"name": "symbol",
			"outputs": [
				{
					"name": "",
					"type": "string"
				}
			],
			"payable": false,
			"stateMutability": "view",
			"type": "function"
		},
		{
			"constant": true,
			"inputs": [
				{
					"name": "",
					"type": "address"
				}
			],
			"name": "whitelist",
			"outputs": [
				{
					"name": "",
					"type": "bool"
				}
			],
			"payable": false,
			"stateMutability": "view",
			"type": "function"
		},
		{
			"constant": false,
			"inputs": [
				{
					"name": "_from",
					"type": "address"
				},
				{
					"name": "_value",
					"type": "uint256"
				},
				{
					"name": "_weightedIndex",
					"type": "uint256"
				}
			],
			"name": "stakeIcoTokenFrom",
			"outputs": [
				{
					"name": "",
					"type": "bool"
				}
			],
			"payable": false,
			"stateMutability": "nonpayable",
			"type": "function"
		},
		{
			"constant": false,
			"inputs": [
				{
					"name": "_from",
					"type": "address"
				},
				{
					"name": "_value",
					"type": "uint256"
				},
				{
					"name": "_weightedIndex",
					"type": "uint256"
				}
			],
			"name": "unstakeIcoTokenFrom",
			"outputs": [
				{
					"name": "",
					"type": "bool"
				}
			],
			"payable": false,
			"stateMutability": "nonpayable",
			"type": "function"
		},
		{
			"constant": false,
			"inputs": [
				{
					"name": "_from",
					"type": "address"
				},
				{
					"name": "_to",
					"type": "address"
				},
				{
					"name": "_value",
					"type": "uint256"
				}
			],
			"name": "whitelistTransferFrom",
			"outputs": [
				{
					"name": "success",
					"type": "bool"
				}
			],
			"payable": false,
			"stateMutability": "nonpayable",
			"type": "function"
		},
		{
			"constant": true,
			"inputs": [],
			"name": "MAX_ICO_SUPPLY",
			"outputs": [
				{
					"name": "",
					"type": "uint256"
				}
			],
			"payable": false,
			"stateMutability": "view",
			"type": "function"
		},
		{
			"constant": false,
			"inputs": [],
			"name": "buy",
			"outputs": [],
			"payable": true,
			"stateMutability": "payable",
			"type": "function"
		},
		{
			"constant": false,
			"inputs": [
				{
					"name": "_to",
					"type": "address"
				},
				{
					"name": "_value",
					"type": "uint256"
				}
			],
			"name": "transfer",
			"outputs": [
				{
					"name": "success",
					"type": "bool"
				}
			],
			"payable": false,
			"stateMutability": "nonpayable",
			"type": "function"
		},
		{
			"constant": false,
			"inputs": [
				{
					"name": "_to",
					"type": "address"
				},
				{
					"name": "_value",
					"type": "uint256"
				},
				{
					"name": "_icoValue",
					"type": "uint256"
				}
			],
			"name": "transferTokens",
			"outputs": [
				{
					"name": "success",
					"type": "bool"
				}
			],
			"payable": false,
			"stateMutability": "nonpayable",
			"type": "function"
		},
		{
			"constant": false,
			"inputs": [
				{
					"name": "_to",
					"type": "address"
				},
				{
					"name": "_value",
					"type": "uint256"
				}
			],
			"name": "transferIcoToken",
			"outputs": [
				{
					"name": "success",
					"type": "bool"
				}
			],
			"payable": false,
			"stateMutability": "nonpayable",
			"type": "function"
		},
		{
			"constant": false,
			"inputs": [
				{
					"name": "_from",
					"type": "address"
				},
				{
					"name": "_value",
					"type": "uint256"
				}
			],
			"name": "whitelistBurnFrom",
			"outputs": [
				{
					"name": "success",
					"type": "bool"
				}
			],
			"payable": false,
			"stateMutability": "nonpayable",
			"type": "function"
		},
		{
			"constant": true,
			"inputs": [
				{
					"name": "",
					"type": "address"
				}
			],
			"name": "frozenAccount",
			"outputs": [
				{
					"name": "",
					"type": "bool"
				}
			],
			"payable": false,
			"stateMutability": "view",
			"type": "function"
		},
		{
			"constant": true,
			"inputs": [],
			"name": "foundationReserved",
			"outputs": [
				{
					"name": "",
					"type": "bool"
				}
			],
			"payable": false,
			"stateMutability": "view",
			"type": "function"
		},
		{
			"constant": false,
			"inputs": [
				{
					"name": "_from",
					"type": "address"
				},
				{
					"name": "_to",
					"type": "address"
				},
				{
					"name": "_value",
					"type": "uint256"
				},
				{
					"name": "_icoValue",
					"type": "uint256"
				}
			],
			"name": "transferTokensFrom",
			"outputs": [
				{
					"name": "success",
					"type": "bool"
				}
			],
			"payable": false,
			"stateMutability": "nonpayable",
			"type": "function"
		},
		{
			"constant": true,
			"inputs": [
				{
					"name": "",
					"type": "address"
				},
				{
					"name": "",
					"type": "uint256"
				}
			],
			"name": "icoStakedBalance",
			"outputs": [
				{
					"name": "",
					"type": "uint256"
				}
			],
			"payable": false,
			"stateMutability": "view",
			"type": "function"
		},
		{
			"constant": false,
			"inputs": [
				{
					"name": "_value",
					"type": "uint256"
				}
			],
			"name": "burnIcoToken",
			"outputs": [
				{
					"name": "success",
					"type": "bool"
				}
			],
			"payable": false,
			"stateMutability": "nonpayable",
			"type": "function"
		},
		{
			"constant": false,
			"inputs": [
				{
					"name": "_spender",
					"type": "address"
				},
				{
					"name": "_value",
					"type": "uint256"
				}
			],
			"name": "approveIcoToken",
			"outputs": [
				{
					"name": "success",
					"type": "bool"
				}
			],
			"payable": false,
			"stateMutability": "nonpayable",
			"type": "function"
		},
		{
			"constant": true,
			"inputs": [],
			"name": "icoContract",
			"outputs": [
				{
					"name": "",
					"type": "bool"
				}
			],
			"payable": false,
			"stateMutability": "view",
			"type": "function"
		},
		{
			"constant": false,
			"inputs": [
				{
					"name": "_spender",
					"type": "address"
				},
				{
					"name": "_value",
					"type": "uint256"
				},
				{
					"name": "_extraData",
					"type": "bytes"
				}
			],
			"name": "approveAndCall",
			"outputs": [
				{
					"name": "success",
					"type": "bool"
				}
			],
			"payable": false,
			"stateMutability": "nonpayable",
			"type": "function"
		},
		{
			"constant": false,
			"inputs": [
				{
					"name": "_from",
					"type": "address"
				},
				{
					"name": "_value",
					"type": "uint256"
				},
				{
					"name": "_icoValue",
					"type": "uint256"
				}
			],
			"name": "burnTokensFrom",
			"outputs": [
				{
					"name": "success",
					"type": "bool"
				}
			],
			"payable": false,
			"stateMutability": "nonpayable",
			"type": "function"
		},
		{
			"constant": true,
			"inputs": [
				{
					"name": "",
					"type": "address"
				},
				{
					"name": "",
					"type": "address"
				}
			],
			"name": "allowance",
			"outputs": [
				{
					"name": "",
					"type": "uint256"
				}
			],
			"payable": false,
			"stateMutability": "view",
			"type": "function"
		},
		{
			"constant": false,
			"inputs": [
				{
					"name": "amount",
					"type": "uint256"
				}
			],
			"name": "sell",
			"outputs": [],
			"payable": false,
			"stateMutability": "nonpayable",
			"type": "function"
		},
		{
			"constant": false,
			"inputs": [
				{
					"name": "target",
					"type": "address"
				},
				{
					"name": "freeze",
					"type": "bool"
				}
			],
			"name": "freezeAccount",
			"outputs": [],
			"payable": false,
			"stateMutability": "nonpayable",
			"type": "function"
		},
		{
			"constant": true,
			"inputs": [],
			"name": "lotIndex",
			"outputs": [
				{
					"name": "",
					"type": "uint256"
				}
			],
			"payable": false,
			"stateMutability": "view",
			"type": "function"
		},
		{
			"constant": false,
			"inputs": [
				{
					"name": "_from",
					"type": "address"
				},
				{
					"name": "_to",
					"type": "address"
				},
				{
					"name": "_value",
					"type": "uint256"
				}
			],
			"name": "whitelistTransferIcoTokenFrom",
			"outputs": [
				{
					"name": "success",
					"type": "bool"
				}
			],
			"payable": false,
			"stateMutability": "nonpayable",
			"type": "function"
		},
		{
			"constant": false,
			"inputs": [
				{
					"name": "newOwner",
					"type": "address"
				}
			],
			"name": "transferOwnership",
			"outputs": [],
			"payable": false,
			"stateMutability": "nonpayable",
			"type": "function"
		},
		{
			"constant": true,
			"inputs": [
				{
					"name": "_lotOwner",
					"type": "address"
				}
			],
			"name": "totalLotsByAddress",
			"outputs": [
				{
					"name": "",
					"type": "uint256"
				}
			],
			"payable": false,
			"stateMutability": "view",
			"type": "function"
		},
		{
			"constant": false,
			"inputs": [
				{
					"name": "_from",
					"type": "address"
				},
				{
					"name": "_value",
					"type": "uint256"
				}
			],
			"name": "burnIcoTokenFrom",
			"outputs": [
				{
					"name": "success",
					"type": "bool"
				}
			],
			"payable": false,
			"stateMutability": "nonpayable",
			"type": "function"
		},
		{
			"inputs": [
				{
					"name": "initialSupply",
					"type": "uint256"
				},
				{
					"name": "tokenName",
					"type": "string"
				},
				{
					"name": "tokenSymbol",
					"type": "string"
				}
			],
			"payable": false,
			"stateMutability": "nonpayable",
			"type": "constructor"
		},
		{
			"anonymous": false,
			"inputs": [
				{
					"indexed": false,
					"name": "target",
					"type": "address"
				},
				{
					"indexed": false,
					"name": "frozen",
					"type": "bool"
				}
			],
			"name": "FrozenFunds",
			"type": "event"
		},
		{
			"anonymous": false,
			"inputs": [
				{
					"indexed": true,
					"name": "from",
					"type": "address"
				},
				{
					"indexed": false,
					"name": "value",
					"type": "uint256"
				}
			],
			"name": "Stake",
			"type": "event"
		},
		{
			"anonymous": false,
			"inputs": [
				{
					"indexed": true,
					"name": "from",
					"type": "address"
				},
				{
					"indexed": false,
					"name": "value",
					"type": "uint256"
				}
			],
			"name": "Unstake",
			"type": "event"
		},
		{
			"anonymous": false,
			"inputs": [
				{
					"indexed": true,
					"name": "from",
					"type": "address"
				},
				{
					"indexed": true,
					"name": "to",
					"type": "address"
				},
				{
					"indexed": false,
					"name": "value",
					"type": "uint256"
				}
			],
			"name": "IcoTransfer",
			"type": "event"
		},
		{
			"anonymous": false,
			"inputs": [
				{
					"indexed": true,
					"name": "_owner",
					"type": "address"
				},
				{
					"indexed": true,
					"name": "_spender",
					"type": "address"
				},
				{
					"indexed": false,
					"name": "_value",
					"type": "uint256"
				}
			],
			"name": "IcoApproval",
			"type": "event"
		},
		{
			"anonymous": false,
			"inputs": [
				{
					"indexed": true,
					"name": "from",
					"type": "address"
				},
				{
					"indexed": false,
					"name": "value",
					"type": "uint256"
				}
			],
			"name": "IcoBurn",
			"type": "event"
		},
		{
			"anonymous": false,
			"inputs": [
				{
					"indexed": true,
					"name": "from",
					"type": "address"
				},
				{
					"indexed": false,
					"name": "value",
					"type": "uint256"
				},
				{
					"indexed": false,
					"name": "weightedIndex",
					"type": "uint256"
				}
			],
			"name": "IcoStake",
			"type": "event"
		},
		{
			"anonymous": false,
			"inputs": [
				{
					"indexed": true,
					"name": "from",
					"type": "address"
				},
				{
					"indexed": false,
					"name": "value",
					"type": "uint256"
				},
				{
					"indexed": false,
					"name": "weightedIndex",
					"type": "uint256"
				}
			],
			"name": "IcoUnstake",
			"type": "event"
		},
		{
			"anonymous": false,
			"inputs": [
				{
					"indexed": true,
					"name": "lotOwner",
					"type": "address"
				},
				{
					"indexed": true,
					"name": "lotId",
					"type": "bytes32"
				},
				{
					"indexed": false,
					"name": "index",
					"type": "uint256"
				},
				{
					"indexed": false,
					"name": "tokenAmount",
					"type": "uint256"
				}
			],
			"name": "LotCreation",
			"type": "event"
		},
		{
			"anonymous": false,
			"inputs": [
				{
					"indexed": true,
					"name": "from",
					"type": "address"
				},
				{
					"indexed": true,
					"name": "to",
					"type": "address"
				},
				{
					"indexed": false,
					"name": "value",
					"type": "uint256"
				}
			],
			"name": "Transfer",
			"type": "event"
		},
		{
			"anonymous": false,
			"inputs": [
				{
					"indexed": true,
					"name": "_owner",
					"type": "address"
				},
				{
					"indexed": true,
					"name": "_spender",
					"type": "address"
				},
				{
					"indexed": false,
					"name": "_value",
					"type": "uint256"
				}
			],
			"name": "Approval",
			"type": "event"
		},
		{
			"anonymous": false,
			"inputs": [
				{
					"indexed": true,
					"name": "from",
					"type": "address"
				},
				{
					"indexed": false,
					"name": "value",
					"type": "uint256"
				}
			],
			"name": "Burn",
			"type": "event"
		}
	],
	"bytecode": "0x60806040526004805460ff191660121790553480156200001e57600080fd5b506040516200347c3803806200347c83398101604090815281516020808401518385015160008054600160a060020a03191633908117825560045460ff16600a0a860260058190559082526006855295902094909455840180519294909301918491849184918491849184916200009c916002919085019062000152565b508051620000b290600390602084019062000152565b5050600060088190556004805460ff19908116909155601080549091166001179055620000ee925090506127106401000000006200011a810204565b5050601560088190556004805460ff19908116909217905560108054909116905550620001f792505050565b600054600160a060020a031633146200013257600080fd5b60105460ff1615156001146200014757600080fd5b600e91909155600f55565b828054600181600116156101000203166002900490600052602060002090601f016020900481019282601f106200019557805160ff1916838001178555620001c5565b82800160010185558215620001c5579182015b82811115620001c5578251825591602001919060010190620001a8565b50620001d3929150620001d7565b5090565b620001f491905b80821115620001d35760008155600101620001de565b90565b61327580620002076000396000f3006080604052600436106103165763ffffffff7c01000000000000000000000000000000000000000000000000000000006000350416630387995a811461031b57806305fefda71461035957806306fdde0314610376578063080e74f714610400578063095ea7b3146104365780630aa245461461045a57806318160ddd14610481578063201abe9e14610496578063212e28e3146104ab57806323b872dd146104c0578063247b188b146104ea57806325f552c1146104ff578063313ce5671461051457806331a8aeb31461053f578063342e68ed14610563578063360f277b1461056b5780633bcd66241461058057806342966c68146105ec57806346878fff146106045780634b7503341461067557806350d400e51461068a5780635338125e1461069f57806353d6fd59146106c6578063547ba3cd146106ec57806354f7dd8c1461070157806356307efc1461072557806356d3018114610746578063580b72e114610767578063585ac3e81461078e5780635cdac818146107a3578063602172671461080c57806370a082311461082d578063731a3b061461084e57806379c650681461087257806379cc6790146108965780637af33159146108ba5780638620410b146108d55780638da5cb5b146108ea5780638e81c64d1461091b57806395d89b41146109365780639b19251a1461094b5780639b66da9c1461096c5780639d8c1eed14610993578063a144a3e0146109ba578063a4bbded4146109e4578063a6f2ae3a146109f9578063a9059cbb14610a01578063a9f7e66414610a25578063ab56a02814610a4c578063b1e19d4514610a70578063b414d4b614610a94578063b96d036914610ab5578063bdb9c11f14610aca578063bde3401b14610af7578063bf5d0a2d14610b1b578063c464ed9b14610b33578063c66e409514610b57578063cae9ca5114610b6c578063dd1a293a14610bd5578063dd62ed3e14610bfc578063e4849b3214610c23578063e724529c14610c3b578063ea67a17114610c61578063eca7498114610c76578063f2fde38b14610ca0578063f5bd48c414610cc1578063f6421d8914610ce2575b600080fd5b34801561032757600080fd5b50610345600160a060020a0360043581169060243516604435610d06565b604080519115158252519081900360200190f35b34801561036557600080fd5b50610374600435602435610eb0565b005b34801561038257600080fd5b5061038b610ed2565b6040805160208082528351818301528351919283929083019185019080838360005b838110156103c55781810151838201526020016103ad565b50505050905090810190601f1680156103f25780820380516001836020036101000a031916815260200191505b509250505060405180910390f35b34801561040c57600080fd5b50610418600435610f5d565b60408051938452602084019290925282820152519081900360600190f35b34801561044257600080fd5b50610345600160a060020a0360043516602435610fd6565b34801561046657600080fd5b5061046f61103d565b60408051918252519081900360200190f35b34801561048d57600080fd5b5061046f611043565b3480156104a257600080fd5b5061046f611049565b3480156104b757600080fd5b5061037461104f565b3480156104cc57600080fd5b50610345600160a060020a0360043581169060243516604435611126565b3480156104f657600080fd5b5061046f611195565b34801561050b57600080fd5b5061046f61119b565b34801561052057600080fd5b506105296111a5565b6040805160ff9092168252519081900360200190f35b34801561054b57600080fd5b50610345600160a060020a03600435166024356111ae565b6103746112cb565b34801561057757600080fd5b5061046f611401565b34801561058c57600080fd5b50604080516020601f60643560048181013592830184900484028501840190955281845261034594600160a060020a0381351694602480359560443595369560849493019181908401838280828437509497506114079650505050505050565b3480156105f857600080fd5b50610345600435611455565b34801561061057600080fd5b50610625600160a060020a03600435166114cd565b60408051602080825283518183015283519192839290830191858101910280838360005b83811015610661578181015183820152602001610649565b505050509050019250505060405180910390f35b34801561068157600080fd5b5061046f61154f565b34801561069657600080fd5b5061046f611555565b3480156106ab57600080fd5b5061046f600160a060020a036004358116906024351661155c565b3480156106d257600080fd5b50610374600160a060020a03600435166024351515611579565b3480156106f857600080fd5b5061046f6115bb565b34801561070d57600080fd5b50610418600160a060020a03600435166024356115c1565b34801561073157600080fd5b5061046f600160a060020a0360043516611697565b34801561075257600080fd5b5061046f600160a060020a03600435166116ca565b34801561077357600080fd5b50610345600160a060020a03600435166024356044356116dc565b34801561079a57600080fd5b5061034561171d565b3480156107af57600080fd5b50604080516020600460443581810135601f8101849004840285018401909552848452610345948235600160a060020a031694602480359536959460649492019190819084018382808284375094975061172b9650505050505050565b34801561081857600080fd5b5061046f600160a060020a036004351661185c565b34801561083957600080fd5b5061046f600160a060020a036004351661186e565b34801561085a57600080fd5b50610345600160a060020a0360043516602435611880565b34801561087e57600080fd5b50610345600160a060020a036004351660243561199d565b3480156108a257600080fd5b50610345600160a060020a0360043516602435611ab5565b3480156108c657600080fd5b50610374600435602435611b86565b3480156108e157600080fd5b5061046f611bbc565b3480156108f657600080fd5b506108ff611bc2565b60408051600160a060020a039092168252519081900360200190f35b34801561092757600080fd5b50610345600435602435611bd1565b34801561094257600080fd5b5061038b611c19565b34801561095757600080fd5b50610345600160a060020a0360043516611c74565b34801561097857600080fd5b50610345600160a060020a0360043516602435604435611c89565b34801561099f57600080fd5b50610345600160a060020a0360043516602435604435611df7565b3480156109c657600080fd5b50610345600160a060020a0360043581169060243516604435612003565b3480156109f057600080fd5b5061046f61204c565b610374612057565b348015610a0d57600080fd5b50610345600160a060020a036004351660243561208a565b348015610a3157600080fd5b50610345600160a060020a0360043516602435604435612097565b348015610a5857600080fd5b50610345600160a060020a03600435166024356120c9565b348015610a7c57600080fd5b50610345600160a060020a03600435166024356121ed565b348015610aa057600080fd5b50610345600160a060020a03600435166122f1565b348015610ac157600080fd5b50610345612306565b348015610ad657600080fd5b50610345600160a060020a036004358116906024351660443560643561230f565b348015610b0357600080fd5b5061046f600160a060020a0360043516602435612347565b348015610b2757600080fd5b50610345600435612364565b348015610b3f57600080fd5b50610345600160a060020a036004351660243561241b565b348015610b6357600080fd5b50610345612499565b348015610b7857600080fd5b50604080516020600460443581810135601f8101849004840285018401909552848452610345948235600160a060020a03169460248035953695946064949201919081908401838280828437509497506124a29650505050505050565b348015610be157600080fd5b50610345600160a060020a03600435166024356044356124af565b348015610c0857600080fd5b5061046f600160a060020a03600435811690602435166124e5565b348015610c2f57600080fd5b50610374600435612502565b348015610c4757600080fd5b50610374600160a060020a0360043516602435151561258e565b348015610c6d57600080fd5b5061046f612609565b348015610c8257600080fd5b50610345600160a060020a036004358116906024351660443561260f565b348015610cac57600080fd5b50610374600160a060020a0360043516612654565b348015610ccd57600080fd5b5061046f600160a060020a036004351661269a565b348015610cee57600080fd5b50610345600160a060020a03600435166024356126cd565b600080610d11613222565b60105460ff161515600114610d2557600080fd5b600160a060020a0386166000908152601260209081526040808320338452909152902054841115610d5557600080fd5b600160a060020a0386166000908152601260209081526040808320338452909152902054610d89908563ffffffff61282116565b600160a060020a0387166000818152601260209081526040808320338452825280832094909455918152601a9091522054610dc79086908690612833565b6000818152601760209081526040918290208251608081018452815481526001820154928101929092526002810154600160a060020a039081169383018490526003909101546060830152929450925090861614610e2457600080fd5b610e2f8686866129b8565b1515610e3a57600080fd5b610e4385612b9b565b1515610e4e57600080fd5b805160408083015160208085015160608601518451918252918101919091528251600160a060020a03909216927f516066f761a431d16b9e8d52e777640dcc66f5231c174577529f12b67d0d415792918290030190a350600195945050505050565b600054600160a060020a03163314610ec757600080fd5b600991909155600a55565b6002805460408051602060018416156101000260001901909316849004601f81018490048402820184019092528181529291830182828015610f555780601f10610f2a57610100808354040283529160200191610f55565b820191906000526020600020905b815481529060010190602001808311610f3857829003601f168201915b505050505081565b6000806000610f6a613222565b60105460ff161515600114610f7e57600080fd5b505050600091825250601760209081526040918290208251608081018452815480825260018301549382018490526002830154600160a060020a03169482019490945260039091015460609091018190529192909190565b336000818152600760209081526040808320600160a060020a038716808552908352818420869055815186815291519394909390927f8c5be1e5ebec7d5bd14f71427d1e84f3dd0314c0f7b2291e5b200ac8c7c3b925928290030190a35060015b92915050565b60085481565b60055481565b600e5481565b60008054600160a060020a0316331461106757600080fd5b60105460ff16151560011461107b57600080fd5b601654610100900460ff161561109057600080fd5b60165460ff16156110a057600080fd5b600d546603fffffffffffc116110b557600080fd5b506016805460ff19166001179055600d546572815b397ffc906603fffffffffffc906110e7908363ffffffff612cea16565b1061111957600d54611107906603fffffffffffc9063ffffffff61282116565b6016805461ff00191661010017905590505b6111233382612cf7565b50565b600160a060020a038316600090815260076020908152604080832033845290915281205482111561115657600080fd5b600160a060020a038416600090815260076020908152604080832033845290915290208054839003905561118b848484612f23565b5060019392505050565b600d5481565b6572815b397ffc81565b60045460ff1681565b33600081815260016020819052604082205491929160ff16151514806111e15750600054600160a060020a038281169116145b15156111ec57600080fd5b600160a060020a03841660009081526006602052604090205483111561121157600080fd5b600160a060020a03841660009081526006602052604090205461123a908463ffffffff61282116565b600160a060020a038516600090815260066020908152604080832093909355600c9052205461126f908463ffffffff612cea16565b600160a060020a0385166000818152600c6020908152604091829020939093558051868152905191927febedb8b3c678666e7f36970bc8f57abf6d8fa2e828c0da91ea5b75bf68ed101a92918290030190a25060019392505050565b601054600090819060ff1615156001146112e457600080fd5b601654610100900460ff16156112f957600080fd5b600d546603fffffffffffc1161130e57600080fd5b600f5460001061131d57600080fd5b6000341161132a57600080fd5b600f5461133e90349063ffffffff61310b16565b9150600090506603fffffffffffc61136183600d54612cea90919063ffffffff16565b106113bb57600d54611381906603fffffffffffc9063ffffffff61282116565b6016805461ff001916610100179055600f549092506113b8906113ab90849063ffffffff61312016565b349063ffffffff61282116565b90505b6113c53383612cf7565b60008111156113fd57604051339082156108fc029083906000818181858888f193505050501580156113fb573d6000803e3d6000fd5b505b5050565b60145481565b60105460009060ff16151560011461141e57600080fd5b6114298585846124a2565b151561143457600080fd5b61143f85848461172b565b151561144a57600080fd5b506001949350505050565b3360009081526006602052604081205482111561147157600080fd5b3360008181526006602090815260409182902080548690039055600580548690039055815185815291517fcc16f5dbb4873280815c1ee09dbd06736cffcc184412cf7a71a0fdb75d397ca59281900390910190a2506001919050565b60105460609060ff1615156001146114e457600080fd5b600160a060020a0382166000908152601860209081526040918290208054835181840281018401909452808452909183018282801561154357602002820191906000526020600020905b8154815260019091019060200180831161152e575b50505050509050919050565b60095481565b620f424081565b601260209081526000928352604080842090915290825290205481565b600054600160a060020a0316331461159057600080fd5b600160a060020a03919091166000908152600160205260409020805460ff1916911515919091179055565b600f5481565b60008060006115ce613222565b60105460ff1615156001146115e257600080fd5b600160a060020a038616600090815260186020526040902054851061160657600080fd5b600160a060020a0386166000908152601860205260408120805460179291908890811061162f57fe5b600091825260208083209190910154835282810193909352604091820190208151608081018352815480825260018301549482018590526002830154600160a060020a0316938201939093526003909101546060909101819052909891975095509350505050565b60105460009060ff1615156001146116ae57600080fd5b50600160a060020a03166000908152601a602052604090205490565b60116020526000908152604090205481565b60105460009060ff1615156001146116f357600080fd5b6116fd8484610fd6565b151561170857600080fd5b611712848361241b565b151561118b57600080fd5b601654610100900460ff1681565b601054600090819060ff16151560011461174457600080fd5b5083611750818561241b565b15611854576040517f8f4ffcb10000000000000000000000000000000000000000000000000000000081523360048201818152602483018790523060448401819052608060648501908152875160848601528751600160a060020a03871695638f4ffcb195948b94938b939192909160a490910190602085019080838360005b838110156117e85781810151838201526020016117d0565b50505050905090810190601f1680156118155780820380516001836020036101000a031916815260200191505b5095505050505050600060405180830381600087803b15801561183757600080fd5b505af115801561184b573d6000803e3d6000fd5b50505050600191505b509392505050565b600c6020526000908152604090205481565b60066020526000908152604090205481565b33600081815260016020819052604082205491929160ff16151514806118b35750600054600160a060020a038281169116145b15156118be57600080fd5b600160a060020a0384166000908152600c60205260409020548311156118e357600080fd5b600160a060020a0384166000908152600c602052604090205461190c908463ffffffff61282116565b600160a060020a0385166000908152600c6020908152604080832093909355600690522054611941908463ffffffff612cea16565b600160a060020a038516600081815260066020908152604091829020939093558051868152905191927f85082129d87b2fe11527cb1b3b7a520aeb5aa6913f88a3d8757fe40d1db02fdd92918290030190a25060019392505050565b33600081815260016020819052604082205491929160ff16151514806119d05750600054600160a060020a038281169116145b15156119db57600080fd5b600160a060020a038416600090815260066020526040902054611a04908463ffffffff612cea16565b600160a060020a038516600090815260066020526040902055600554611a30908463ffffffff612cea16565b60055560408051848152905130916000917fddf252ad1be2c89b69c2b068fc378daa952ba7f163c4a11628f55a4df523b3ef9181900360200190a3604080518481529051600160a060020a0386169130917fddf252ad1be2c89b69c2b068fc378daa952ba7f163c4a11628f55a4df523b3ef9181900360200190a35060019392505050565b600160a060020a038216600090815260066020526040812054821115611ada57600080fd5b600160a060020a0383166000908152600760209081526040808320338452909152902054821115611b0a57600080fd5b600160a060020a0383166000818152600660209081526040808320805487900390556007825280832033845282529182902080548690039055600580548690039055815185815291517fcc16f5dbb4873280815c1ee09dbd06736cffcc184412cf7a71a0fdb75d397ca59281900390910190a250600192915050565b600054600160a060020a03163314611b9d57600080fd5b60105460ff161515600114611bb157600080fd5b600e91909155600f55565b600a5481565b600054600160a060020a031681565b60105460009060ff161515600114611be857600080fd5b611bf183611455565b1515611bfc57600080fd5b611c0582612364565b1515611c1057600080fd5b50600192915050565b6003805460408051602060026001851615610100026000190190941693909304601f81018490048402820184019092528181529291830182828015610f555780601f10610f2a57610100808354040283529160200191610f55565b60016020526000908152604090205460ff1681565b33600081815260016020819052604082205491929160ff1615151480611cbc5750600054600160a060020a038281169116145b1515611cc757600080fd5b60105460ff161515600114611cdb57600080fd5b600160a060020a038516600090815260116020526040902054841115611d0057600080fd5b600160a060020a0385166000908152601a60205260409020548314611d2457600080fd5b600160a060020a038516600090815260116020526040902054611d4d908563ffffffff61282116565b600160a060020a0386166000908152601160209081526040808320939093556013815282822086835290522054611d8a908563ffffffff612cea16565b600160a060020a0386166000818152601360209081526040808320888452825291829020939093558051878152928301869052805191927f6f97a5002b2c5b7afa10e6f08007020c0a7b58079f59ccf1be8ccea6f83c5709929081900390910190a2506001949350505050565b33600081815260016020819052604082205491928392839260ff90911615151480611e2f5750600054600160a060020a038281169116145b1515611e3a57600080fd5b60105460ff161515600114611e4e57600080fd5b600160a060020a0387166000908152601360209081526040808320888452909152902054861115611e7e57600080fd5b600160a060020a0387166000908152601360209081526040808320888452909152902054611eb2908763ffffffff61282116565b600160a060020a0388166000908152601360209081526040808320898452909152902055611f29611ee9868863ffffffff61312016565b600160a060020a038916600090815260116020908152604080832054601a90925290912054611f1d9163ffffffff61312016565b9063ffffffff612cea16565b600160a060020a038816600090815260116020526040902054909350611f55908763ffffffff612cea16565b9150611f67838363ffffffff61310b16565b600160a060020a0388166000908152601a6020908152604080832093909355601190522054611f9c908763ffffffff612cea16565b600160a060020a038816600081815260116020908152604091829020939093558051898152928301889052805191927fe1d6b01d4a7f422d40f8cb3586a989adeb8a0ae311657c4554d8552d6b0110df929081900390910190a25060019695505050505050565b33600081815260016020819052604082205491929160ff16151514806120365750600054600160a060020a038281169116145b151561204157600080fd5b61144a858585612f23565b6603fffffffffffc81565b600080600a5411151561206957600080fd5b600a5461207d90349063ffffffff61310b16565b9050611123303383612f23565b6000611c10338484612f23565b60105460009060ff1615156001146120ae57600080fd5b6120b8848461208a565b15156120c357600080fd5b61171284835b6000806120d4613222565b60105460ff1615156001146120e857600080fd5b336000908152601a60205260409020546121059086908690612833565b6000818152601760209081526040918290208251608081018452815481526001820154928101929092526002810154600160a060020a03908116938301849052600390910154606083015292945092509086161461216257600080fd5b61216d3386866129b8565b151561217857600080fd5b61218185612b9b565b151561218c57600080fd5b805160408083015160208085015160608601518451918252918101919091528251600160a060020a03909216927f516066f761a431d16b9e8d52e777640dcc66f5231c174577529f12b67d0d415792918290030190a3506001949350505050565b33600081815260016020819052604082205491929160ff16151514806122205750600054600160a060020a038281169116145b151561222b57600080fd5b600160a060020a03841660009081526006602052604090205483111561225057600080fd5b600160a060020a038416600090815260066020526040902054612279908463ffffffff61282116565b600160a060020a0385166000908152600660205260409020556005546122a5908463ffffffff61282116565b600555604080518481529051600160a060020a038616917fcc16f5dbb4873280815c1ee09dbd06736cffcc184412cf7a71a0fdb75d397ca5919081900360200190a25060019392505050565b600b6020526000908152604090205460ff1681565b60165460ff1681565b60105460009060ff16151560011461232657600080fd5b612331858585611126565b151561233c57600080fd5b61143f858584610d06565b601360209081526000928352604080842090915290825290205481565b60105460009060ff16151560011461237b57600080fd5b3360009081526011602052604090205482111561239757600080fd5b336000908152601160205260409020546123b7908363ffffffff61282116565b33600090815260116020526040902055600d546123da908363ffffffff61282116565b600d5560408051838152905133917fe548a1d04a6c54afbf31ed1c35d34a8c71b5d7d9394afa33675e75b6508d5594919081900360200190a2506001919050565b60105460009060ff16151560011461243257600080fd5b336000818152601260209081526040808320600160a060020a03881680855290835292819020869055805186815290519293927f55a2c3b5068b1175e7b8be05a4369d5ebf80d74f846494792d3920e1d6efad0f929181900390910190a350600192915050565b60105460ff1681565b6000836117508185610fd6565b60105460009060ff1615156001146124c657600080fd5b6124d08484611ab5565b15156124db57600080fd5b61171284836126cd565b600760209081526000928352604080842090915290825290205481565b60008060095411151561251457600080fd5b50600954309061252b90839063ffffffff61312016565b600160a060020a03821631101561254157600080fd5b61254c333084612f23565b60095433906108fc9061256690859063ffffffff61312016565b6040518115909202916000818181858888f193505050501580156113fb573d6000803e3d6000fd5b600054600160a060020a031633146125a557600080fd5b600160a060020a0382166000818152600b6020908152604091829020805460ff191685151590811790915582519384529083015280517f48335238b4855f35377ed80f164e8c6f3c366e54ac00b96a6402d4a9814a03a59281900390910190a15050565b60155481565b60008061261a613222565b60105460ff16151560011461262e57600080fd5b600160a060020a0386166000908152601a6020526040902054610dc79086908690612833565b600054600160a060020a0316331461266b57600080fd5b6000805473ffffffffffffffffffffffffffffffffffffffff1916600160a060020a0392909216919091179055565b60105460009060ff1615156001146126b157600080fd5b50600160a060020a031660009081526018602052604090205490565b60105460009060ff1615156001146126e457600080fd5b600160a060020a03831660009081526011602052604090205482111561270957600080fd5b600160a060020a038316600090815260126020908152604080832033845290915290205482111561273957600080fd5b600160a060020a038316600090815260116020526040902054612762908363ffffffff61282116565b600160a060020a038416600090815260116020908152604080832093909355601281528282203383529052205461279f908363ffffffff61282116565b600160a060020a0384166000908152601260209081526040808320338452909152902055600d546127d6908363ffffffff61282116565b600d55604080518381529051600160a060020a038516917fe548a1d04a6c54afbf31ed1c35d34a8c71b5d7d9394afa33675e75b6508d5594919081900360200190a250600192915050565b60008282111561282d57fe5b50900390565b6000808080600160a060020a038716151561284d57600080fd5b6000861161285a57600080fd5b6014805460010190819055604080516c01000000000000000000000000308102602080840191909152600160a060020a038c16909102603483015260488083019490945282518083039094018452606890910191829052825182918401908083835b602083106128db5780518252601f1990920191602091820191016128bc565b51815160209384036101000a60001901801990921691161790526040805192909401829003909120600081815260179092529290206002015491965050600160a060020a031615915061292f905057600080fd5b5050600081815260176020908152604080832084815560018082019790975560028101805473ffffffffffffffffffffffffffffffffffffffff1916600160a060020a039a909a16998a17905560030196909655868252601881528582208054958601815582528082208501839055958152601986528481208282529095529290932055919050565b600080600160a060020a03841615156129d057600080fd5b600160a060020a0385166000908152601160205260409020548311156129f557600080fd5b600160a060020a038416600090815260116020526040902054612a1e818563ffffffff612cea16565b1015612a2957600080fd5b600160a060020a0385166000908152600b602052604090205460ff1615612a4f57600080fd5b600160a060020a0384166000908152600b602052604090205460ff1615612a7557600080fd5b600160a060020a03808516600090815260116020526040808220549288168252902054612aa79163ffffffff612cea16565b600160a060020a038616600090815260116020526040902054909150612ad3908463ffffffff61282116565b600160a060020a038087166000908152601160205260408082209390935590861681522054612b08908463ffffffff612cea16565b600160a060020a0380861660008181526011602090815260409182902094909455805187815290519193928916927f75cd98db28481472f2c8b6546dd22b971e320f3f8bbefa177a2f521d2433eaad92918290030190a3600160a060020a038085166000908152601160205260408082205492881682529020548291612b94919063ffffffff612cea16565b1461144a57fe5b600080600080612ba9613222565b600160a060020a0386166000908152601860205260408120541115612cde57600091505b600160a060020a038616600090815260186020526040902054821015612cb457600160a060020a03861660009081526018602052604081208054601792919085908110612c1657fe5b60009182526020808320909101548352828101939093526040918201902081516080810183528154815260018201549381018490526002820154600160a060020a0316928101929092526003015460608201819052909250612c8e91612c819163ffffffff61312016565b859063ffffffff612cea16565b9350612ca7816060015184612cea90919063ffffffff16565b9250600190910190612bcd565b612cc4848463ffffffff61310b16565b600160a060020a0387166000908152601a60205260409020555b50600195945050505050565b8181018281101561103757fe5b60008080600160a060020a0385161515612d1057600080fd5b60008411612d1d57600080fd5b60148054600190810191829055601580549091019055604080516c01000000000000000000000000308102602080840191909152600160a060020a038a16909102603483015260488083019490945282518083039094018452606890910191829052825182918401908083835b60208310612da95780518252601f199092019160209182019101612d8a565b51815160209384036101000a60001901801990921691161790526040805192909401829003909120600081815260179092529290206002015491965050600160a060020a0316159150612dfd905057600080fd5b6000838152601760205260409020838155601554909250612e2790620f424063ffffffff61312016565b60018381019190915560028301805473ffffffffffffffffffffffffffffffffffffffff1916600160a060020a0388169081179091556003840186905560008181526018602090815260408083208054958601815583528183208501889055928252601981528282208783529052208190559050612ea58585613149565b1515612eb057600080fd5b612eb985612b9b565b1515612ec457600080fd5b81546002830154600184015460038501546040805192835260208301919091528051600160a060020a03909316927f516066f761a431d16b9e8d52e777640dcc66f5231c174577529f12b67d0d41579281900390910190a35050505050565b6000600160a060020a0383161515612f3a57600080fd5b600160a060020a038416600090815260066020526040902054821115612f5f57600080fd5b600160a060020a038316600090815260066020526040902054612f88818463ffffffff612cea16565b1015612f9357600080fd5b600160a060020a0384166000908152600b602052604090205460ff1615612fb957600080fd5b600160a060020a0383166000908152600b602052604090205460ff1615612fdf57600080fd5b600160a060020a038084166000908152600660205260408082205492871682529020546130119163ffffffff612cea16565b600160a060020a03851660009081526006602052604090205490915061303d908363ffffffff61282116565b600160a060020a038086166000908152600660205260408082209390935590851681522054613072908363ffffffff612cea16565b600160a060020a0380851660008181526006602090815260409182902094909455805186815290519193928816927fddf252ad1be2c89b69c2b068fc378daa952ba7f163c4a11628f55a4df523b3ef92918290030190a3600160a060020a0380841660009081526006602052604080822054928716825290205482916130fe919063ffffffff612cea16565b1461310557fe5b50505050565b6000818381151561311857fe5b049392505050565b600082151561313157506000611037565b5081810281838281151561314157fe5b041461103757fe5b600160a060020a038216600090815260116020526040812054613172908363ffffffff612cea16565b600160a060020a038416600090815260116020526040902055600d5461319e908363ffffffff612cea16565b600d5560408051838152905130916000917f75cd98db28481472f2c8b6546dd22b971e320f3f8bbefa177a2f521d2433eaad9181900360200190a3604080518381529051600160a060020a0385169130917f75cd98db28481472f2c8b6546dd22b971e320f3f8bbefa177a2f521d2433eaad9181900360200190a350600192915050565b604080516080810182526000808252602082018190529181018290526060810191909152905600a165627a7a72305820c2b76e6211805f44c09b8d5adf26417a4479ed13537b8394ee086634fd51af470029",
	"source": "pragma solidity ^0.4.24;\n\nimport \"./AOToken.sol\";\n\ncontract AOZetta is AOToken {\n\t/**\n\t * @dev Constructor function\n\t */\n\tconstructor(uint256 initialSupply, string tokenName, string tokenSymbol)\n\t\tAOToken(initialSupply, tokenName, tokenSymbol) public {\n\t\tpowerOfTen = 21;\n\t\tdecimals = 21;\n\t\ticoContract = false;\n\t}\n}\n",
	"sourcePath": "/home/jmulyono/ao-contracts/contracts/AOZetta.sol",
	"compiler": {
		"name": "solc",
		"version": "0.4.24+commit.e67f0147.Emscripten.clang"
	},
	"schemaVersion": "1.0.1",
	"updatedAt": "2018-08-01T15:02:07.521Z"
}