{
	"contractName": "developed",
	"abi": [
		{
			"constant": true,
			"inputs": [],
			"name": "aoDevTeam1",
			"outputs": [
				{
					"name": "",
					"type": "address"
				}
			],
			"payable": false,
			"stateMutability": "view",
			"type": "function"
		},
		{
			"constant": true,
			"inputs": [
				{
					"name": "",
					"type": "address"
				}
			],
			"name": "whitelist",
			"outputs": [
				{
					"name": "",
					"type": "bool"
				}
			],
			"payable": false,
			"stateMutability": "view",
			"type": "function"
		},
		{
			"constant": true,
			"inputs": [],
			"name": "aoDevTeam2",
			"outputs": [
				{
					"name": "",
					"type": "address"
				}
			],
			"payable": false,
			"stateMutability": "view",
			"type": "function"
		},
		{
			"constant": true,
			"inputs": [],
			"name": "developer",
			"outputs": [
				{
					"name": "",
					"type": "address"
				}
			],
			"payable": false,
			"stateMutability": "view",
			"type": "function"
		},
		{
			"inputs": [],
			"payable": false,
			"stateMutability": "nonpayable",
			"type": "constructor"
		},
		{
			"constant": false,
			"inputs": [
				{
					"name": "newDeveloper",
					"type": "address"
				}
			],
			"name": "transferOwnership",
			"outputs": [],
			"payable": false,
			"stateMutability": "nonpayable",
			"type": "function"
		},
		{
			"constant": false,
			"inputs": [
				{
					"name": "_account",
					"type": "address"
				},
				{
					"name": "_whitelist",
					"type": "bool"
				}
			],
			"name": "setWhitelist",
			"outputs": [],
			"payable": false,
			"stateMutability": "nonpayable",
			"type": "function"
		},
		{
			"constant": false,
			"inputs": [
				{
					"name": "_aoDevTeam1",
					"type": "address"
				},
				{
					"name": "_aoDevTeam2",
					"type": "address"
				}
			],
			"name": "setAODevTeamAddresses",
			"outputs": [],
			"payable": false,
			"stateMutability": "nonpayable",
			"type": "function"
		}
	],
	"bytecode": "0x608060405260018054600160a060020a0319908116735c63644d01ba385ebac5bcf2ddc1e6dbc1182b52179091556002805490911673156c79bf4347d1891da834ea30662a14177cbf2817905534801561005857600080fd5b5060008054600160a060020a031916331790556102cf8061007a6000396000f3006080604052600436106100825763ffffffff7c010000000000000000000000000000000000000000000000000000000060003504166315227aa7811461008757806353d6fd59146100b85780639b19251a146100e0578063a99433a614610115578063b24626e91461012a578063ca4b208b14610151578063f2fde38b14610166575b600080fd5b34801561009357600080fd5b5061009c610187565b60408051600160a060020a039092168252519081900360200190f35b3480156100c457600080fd5b506100de600160a060020a03600435166024351515610196565b005b3480156100ec57600080fd5b50610101600160a060020a03600435166101d8565b604080519115158252519081900360200190f35b34801561012157600080fd5b5061009c6101ed565b34801561013657600080fd5b506100de600160a060020a03600435811690602435166101fc565b34801561015d57600080fd5b5061009c61024e565b34801561017257600080fd5b506100de600160a060020a036004351661025d565b600154600160a060020a031681565b600054600160a060020a031633146101ad57600080fd5b600160a060020a03919091166000908152600360205260409020805460ff1916911515919091179055565b60036020526000908152604090205460ff1681565b600254600160a060020a031681565b600054600160a060020a0316331461021357600080fd5b60018054600160a060020a0393841673ffffffffffffffffffffffffffffffffffffffff199182161790915560028054929093169116179055565b600054600160a060020a031681565b600054600160a060020a0316331461027457600080fd5b6000805473ffffffffffffffffffffffffffffffffffffffff1916600160a060020a03929092169190911790555600a165627a7a7230582064fb2e6b954b3041a0fa591802e331b58d72f27d1cf78ddf729412918a31c61f0029",
	"source": "pragma solidity ^0.4.24;\n\ncontract developed {\n\taddress public developer;\n\n\t// AO Dev Team addresses to receive Primordial/Network Tokens\n\taddress public aoDevTeam1 = 0x5C63644D01Ba385eBAc5bcf2DDc1e6dBC1182b52;\n\taddress public aoDevTeam2 = 0x156C79bf4347D1891da834Ea30662A14177CbF28;\n\n\t// Check whether an address is whitelisted and granted access to transact\n\t// on behalf of others\n\tmapping (address => bool) public whitelist;\n\n\tconstructor() public {\n\t\tdeveloper = msg.sender;\n\t}\n\n\tmodifier onlyDeveloper {\n\t\trequire(msg.sender == developer);\n\t\t_;\n\t}\n\n\t/**\n\t * @dev Checks if `_account` is in whitelist.\n\t *\t\ti.e, `_account` is granted access to transact on behalf of others\n\t */\n\tmodifier inWhitelist(address _account) {\n\t\trequire (whitelist[_account] == true || _account == developer);\n\t\t_;\n\t}\n\n\tfunction transferOwnership(address newDeveloper) onlyDeveloper public {\n\t\tdeveloper = newDeveloper;\n\t}\n\n\t/**\n\t * @dev Whitelist `_account` address to transact on behalf of others\n\t * @param _account The address to whitelist\n\t * @param _whitelist Either to whitelist or not\n\t */\n\tfunction setWhitelist(address _account, bool _whitelist) public onlyDeveloper {\n\t\twhitelist[_account] = _whitelist;\n\t}\n\n\t/**\n\t * @dev Set AO Dev team addresses to receive Primordial/Network tokens during network exchange\n\t * @param _aoDevTeam1 The first AO dev team address\n\t * @param _aoDevTeam2 The second AO dev team address\n\t */\n\tfunction setAODevTeamAddresses(address _aoDevTeam1, address _aoDevTeam2) public onlyDeveloper {\n\t\taoDevTeam1 = _aoDevTeam1;\n\t\taoDevTeam2 = _aoDevTeam2;\n\t}\n}\n",
	"sourcePath": "/home/jmulyono/ao-contracts/contracts/developed.sol",
	"compiler": {
		"name": "solc",
		"version": "0.4.24+commit.e67f0147.Emscripten.clang"
	},
	"schemaVersion": "2.0.1",
	"updatedAt": "2018-10-11T16:47:23.938Z"
}