{
	"contractName": "developed",
	"abi": [
		{
			"constant": true,
			"inputs": [
				{
					"name": "",
					"type": "address"
				}
			],
			"name": "whitelist",
			"outputs": [
				{
					"name": "",
					"type": "bool"
				}
			],
			"payable": false,
			"stateMutability": "view",
			"type": "function"
		},
		{
			"constant": true,
			"inputs": [],
			"name": "developer",
			"outputs": [
				{
					"name": "",
					"type": "address"
				}
			],
			"payable": false,
			"stateMutability": "view",
			"type": "function"
		},
		{
			"inputs": [],
			"payable": false,
			"stateMutability": "nonpayable",
			"type": "constructor"
		},
		{
			"constant": false,
			"inputs": [
				{
					"name": "newDeveloper",
					"type": "address"
				}
			],
			"name": "transferOwnership",
			"outputs": [],
			"payable": false,
			"stateMutability": "nonpayable",
			"type": "function"
		},
		{
			"constant": false,
			"inputs": [
				{
					"name": "_account",
					"type": "address"
				},
				{
					"name": "_whitelist",
					"type": "bool"
				}
			],
			"name": "setWhitelist",
			"outputs": [],
			"payable": false,
			"stateMutability": "nonpayable",
			"type": "function"
		}
	],
	"bytecode": "0x608060405234801561001057600080fd5b5060008054600160a060020a031916331790556101ed806100326000396000f3006080604052600436106100615763ffffffff7c010000000000000000000000000000000000000000000000000000000060003504166353d6fd5981146100665780639b19251a1461008e578063ca4b208b146100c3578063f2fde38b146100f4575b600080fd5b34801561007257600080fd5b5061008c600160a060020a03600435166024351515610115565b005b34801561009a57600080fd5b506100af600160a060020a0360043516610157565b604080519115158252519081900360200190f35b3480156100cf57600080fd5b506100d861016c565b60408051600160a060020a039092168252519081900360200190f35b34801561010057600080fd5b5061008c600160a060020a036004351661017b565b600054600160a060020a0316331461012c57600080fd5b600160a060020a03919091166000908152600160205260409020805460ff1916911515919091179055565b60016020526000908152604090205460ff1681565b600054600160a060020a031681565b600054600160a060020a0316331461019257600080fd5b6000805473ffffffffffffffffffffffffffffffffffffffff1916600160a060020a03929092169190911790555600a165627a7a723058200d253a8d42d1a3de2644dcd3e86a4710c9d216233e857a6103c4c8badadd837d0029",
	"source": "pragma solidity ^0.4.24;\n\ncontract developed {\n\taddress public developer;\n\n\t// Check whether an address is whitelisted and granted access to transact\n\t// on behalf of others\n\tmapping (address => bool) public whitelist;\n\n\tconstructor() public {\n\t\tdeveloper = msg.sender;\n\t}\n\n\tmodifier onlyDeveloper {\n\t\trequire(msg.sender == developer);\n\t\t_;\n\t}\n\n\t/**\n\t * @dev Checks if `_account` is in whitelist.\n\t *\t\ti.e, `_account` is granted access to transact on behalf of others\n\t */\n\tmodifier inWhitelist(address _account) {\n\t\trequire (whitelist[_account] == true || _account == developer);\n\t\t_;\n\t}\n\n\tfunction transferOwnership(address newDeveloper) onlyDeveloper public {\n\t\tdeveloper = newDeveloper;\n\t}\n\n\t/**\n\t * @dev Whitelist `_account` address to transact on behalf of others\n\t * @param _account The address to whitelist\n\t * @param _whitelist Either to whitelist or not\n\t */\n\tfunction setWhitelist(address _account, bool _whitelist) public onlyDeveloper {\n\t\twhitelist[_account] = _whitelist;\n\t}\n}\n",
	"sourcePath": "/home/jmulyono/ao-contracts/contracts/developed.sol",
	"compiler": {
		"name": "solc",
		"version": "0.4.24+commit.e67f0147.Emscripten.clang"
	},
	"schemaVersion": "2.0.1",
	"updatedAt": "2018-09-20T04:52:54.163Z"
}