{
	"contractName": "Epiphany",
	"abi": [
		{
			"constant": true,
			"inputs": [],
			"name": "nameTAOPositionAddress",
			"outputs": [
				{
					"name": "",
					"type": "address"
				}
			],
			"payable": false,
			"stateMutability": "view",
			"type": "function"
		},
		{
			"constant": true,
			"inputs": [
				{
					"name": "",
					"type": "address"
				}
			],
			"name": "whitelist",
			"outputs": [
				{
					"name": "",
					"type": "bool"
				}
			],
			"payable": false,
			"stateMutability": "view",
			"type": "function"
		},
		{
			"constant": true,
			"inputs": [],
			"name": "where",
			"outputs": [
				{
					"name": "",
					"type": "address"
				}
			],
			"payable": false,
			"stateMutability": "view",
			"type": "function"
		},
		{
			"constant": true,
			"inputs": [],
			"name": "theAO",
			"outputs": [
				{
					"name": "",
					"type": "address"
				}
			],
			"payable": false,
			"stateMutability": "view",
			"type": "function"
		},
		{
			"constant": true,
			"inputs": [],
			"name": "why",
			"outputs": [
				{
					"name": "",
					"type": "string"
				}
			],
			"payable": false,
			"stateMutability": "view",
			"type": "function"
		},
		{
			"constant": true,
			"inputs": [],
			"name": "what",
			"outputs": [
				{
					"name": "",
					"type": "string"
				}
			],
			"payable": false,
			"stateMutability": "view",
			"type": "function"
		},
		{
			"constant": true,
			"inputs": [],
			"name": "logos",
			"outputs": [
				{
					"name": "",
					"type": "string"
				}
			],
			"payable": false,
			"stateMutability": "view",
			"type": "function"
		},
		{
			"constant": true,
			"inputs": [],
			"name": "who",
			"outputs": [
				{
					"name": "",
					"type": "string"
				}
			],
			"payable": false,
			"stateMutability": "view",
			"type": "function"
		},
		{
			"constant": true,
			"inputs": [],
			"name": "aSign",
			"outputs": [
				{
					"name": "",
					"type": "string"
				}
			],
			"payable": false,
			"stateMutability": "view",
			"type": "function"
		},
		{
			"constant": true,
			"inputs": [],
			"name": "when",
			"outputs": [
				{
					"name": "",
					"type": "string"
				}
			],
			"payable": false,
			"stateMutability": "view",
			"type": "function"
		},
		{
			"inputs": [],
			"payable": false,
			"stateMutability": "nonpayable",
			"type": "constructor"
		},
		{
			"constant": false,
			"inputs": [
				{
					"name": "_nameTAOPositionAddress",
					"type": "address"
				}
			],
			"name": "setNameTAOPositionAddress",
			"outputs": [],
			"payable": false,
			"stateMutability": "nonpayable",
			"type": "function"
		},
		{
			"constant": false,
			"inputs": [
				{
					"name": "_theAO",
					"type": "address"
				}
			],
			"name": "transferOwnership",
			"outputs": [],
			"payable": false,
			"stateMutability": "nonpayable",
			"type": "function"
		},
		{
			"constant": false,
			"inputs": [
				{
					"name": "_account",
					"type": "address"
				},
				{
					"name": "_whitelist",
					"type": "bool"
				}
			],
			"name": "setWhitelist",
			"outputs": [],
			"payable": false,
			"stateMutability": "nonpayable",
			"type": "function"
		},
		{
			"constant": false,
			"inputs": [
				{
					"name": "_where",
					"type": "address"
				}
			],
			"name": "setWhere",
			"outputs": [],
			"payable": false,
			"stateMutability": "nonpayable",
			"type": "function"
		}
	],
	"bytecode": "0x60806040523480156200001157600080fd5b5060008054600160a060020a031916331790556040805180820190915260068082527f54686520414f000000000000000000000000000000000000000000000000000060209092019182526200006a9160039162000163565b5060c06040519081016040528060a0815260200162000b8d60a0913980516200009c9160049160209091019062000163565b506060604051908101604052806032815260200162000b37603291398051620000ce9160059160209091019062000163565b506060604051908101604052806024815260200162000b69602491398051620001009160069160209091019062000163565b50604080516060810182528181529062000c2d602083013980516200012e9160089160209091019062000163565b50604080516060810182528181529062000c6d602083013980516200015c9160099160209091019062000163565b5062000208565b828054600181600116156101000203166002900490600052602060002090601f016020900481019282601f10620001a657805160ff1916838001178555620001d6565b82800160010185558215620001d6579182015b82811115620001d6578251825591602001919060010190620001b9565b50620001e4929150620001e8565b5090565b6200020591905b80821115620001e45760008155600101620001ef565b90565b61091f80620002186000396000f3fe608060405234801561001057600080fd5b5060043610610107576000357c010000000000000000000000000000000000000000000000000000000090048063af35b3f1116100a9578063d6d21dfd11610083578063d6d21dfd14610283578063da421f7f1461028b578063e2b0caef14610293578063f2fde38b1461029b57610107565b8063af35b3f1146101f6578063b24bb84514610273578063cd6f8d441461027b57610107565b80635cfaf2ef116100e55780635cfaf2ef146101865780639b19251a146101ac5780639b9bef43146101e6578063a9b6b38e146101ee57610107565b8063289cd94f1461010c5780634ef033f01461013457806353d6fd5914610158575b600080fd5b6101326004803603602081101561012257600080fd5b5035600160a060020a03166102c1565b005b61013c610399565b60408051600160a060020a039092168252519081900360200190f35b6101326004803603604081101561016e57600080fd5b50600160a060020a03813516906020013515156103a8565b6101326004803603602081101561019c57600080fd5b5035600160a060020a0316610491565b6101d2600480360360208110156101c257600080fd5b5035600160a060020a031661057e565b604080519115158252519081900360200190f35b61013c610593565b61013c6105a2565b6101fe6105b1565b6040805160208082528351818301528351919283929083019185019080838360005b83811015610238578181015183820152602001610220565b50505050905090810190601f1680156102655780820380516001836020036101000a031916815260200191505b509250505060405180910390f35b6101fe61063f565b6101fe61069a565b6101fe6106f5565b6101fe610750565b6101fe6107ab565b610132600480360360208110156102b157600080fd5b5035600160a060020a0316610806565b6000546001546040805160e260020a633d9abf2b028152336004820152600160a060020a0393841660248201529290911660448301525173__AOLibrary_____________________________9163f66afcac916064808301926020929190829003018186803b15801561033357600080fd5b505af4158015610347573d6000803e3d6000fd5b505050506040513d602081101561035d57600080fd5b5051151561036a57600080fd5b6007805473ffffffffffffffffffffffffffffffffffffffff1916600160a060020a0392909216919091179055565b600154600160a060020a031681565b6000546001546040805160e260020a633d9abf2b028152336004820152600160a060020a0393841660248201529290911660448301525173__AOLibrary_____________________________9163f66afcac916064808301926020929190829003018186803b15801561041a57600080fd5b505af415801561042e573d6000803e3d6000fd5b505050506040513d602081101561044457600080fd5b5051151561045157600080fd5b600160a060020a038216151561046657600080fd5b600160a060020a03919091166000908152600260205260409020805460ff1916911515919091179055565b6000546001546040805160e260020a633d9abf2b028152336004820152600160a060020a0393841660248201529290911660448301525173__AOLibrary_____________________________9163f66afcac916064808301926020929190829003018186803b15801561050357600080fd5b505af4158015610517573d6000803e3d6000fd5b505050506040513d602081101561052d57600080fd5b5051151561053a57600080fd5b600160a060020a038116151561054f57600080fd5b6001805473ffffffffffffffffffffffffffffffffffffffff1916600160a060020a0392909216919091179055565b60026020526000908152604090205460ff1681565b600754600160a060020a031681565b600054600160a060020a031681565b6005805460408051602060026001851615610100026000190190941693909304601f810184900484028201840190925281815292918301828280156106375780601f1061060c57610100808354040283529160200191610637565b820191906000526020600020905b81548152906001019060200180831161061a57829003601f168201915b505050505081565b6003805460408051602060026001851615610100026000190190941693909304601f810184900484028201840190925281815292918301828280156106375780601f1061060c57610100808354040283529160200191610637565b6009805460408051602060026001851615610100026000190190941693909304601f810184900484028201840190925281815292918301828280156106375780601f1061060c57610100808354040283529160200191610637565b6006805460408051602060026001851615610100026000190190941693909304601f810184900484028201840190925281815292918301828280156106375780601f1061060c57610100808354040283529160200191610637565b6008805460408051602060026001851615610100026000190190941693909304601f810184900484028201840190925281815292918301828280156106375780601f1061060c57610100808354040283529160200191610637565b6004805460408051602060026001851615610100026000190190941693909304601f810184900484028201840190925281815292918301828280156106375780601f1061060c57610100808354040283529160200191610637565b6000546001546040805160e260020a633d9abf2b028152336004820152600160a060020a0393841660248201529290911660448301525173__AOLibrary_____________________________9163f66afcac916064808301926020929190829003018186803b15801561087857600080fd5b505af415801561088c573d6000803e3d6000fd5b505050506040513d60208110156108a257600080fd5b505115156108af57600080fd5b600160a060020a03811615156108c457600080fd5b6000805473ffffffffffffffffffffffffffffffffffffffff1916600160a060020a039290921691909117905556fea165627a7a72305820f5ef96b2bc9dc1843180976edf22dde177eeb5976d73641ca0a28e90360e71550029546f20486561722c205365652c20616e6420537065616b207468652048756d616e20696e736964652048756d616e6974792e596f752e20205365742074686520776f726c642c20467265652e20e280932054727574684a616e75617279203674682c203230313920612e642c2079656172203120612e632e204570697068616e792e20416e20617070656172616e6365206f72206d616e69666573746174696f6e20657370656369616c6c79206f66206120646976696e65206265696e672e20416e20696c6c756d696e6174696e6720646973636f766572792c207265616c697a6174696f6e2c206f7220646973636c6f737572652e3038653263346531636366336263636662336238656566313436373962323834343236343961326137333339363036363132313061306230306439633933626630393230633661623138343864663833613333326132316538633965633161333933653639346333393662383732616565303533373232643032336532613332",
	"source": "pragma solidity >=0.5.4 <0.6.0;\n\nimport './TheAO.sol';\nimport './AOLibrary.sol';\n\ncontract Epiphany is TheAO {\n\tstring public what;\n\tstring public when;\n\tstring public why;\n\tstring public who;\n\taddress public where;\n\tstring public aSign;\n\tstring public logos;\n\n\tconstructor() public {\n\t\twhat = 'The AO';\n\t\twhen = 'January 6th, 2019 a.d, year 1 a.c. Epiphany. An appearance or manifestation especially of a divine being. An illuminating discovery, realization, or disclosure.';\n\t\twhy = 'To Hear, See, and Speak the Human inside Humanity.';\n\t\twho = 'You.  Set the world, Free. – Truth';\n\t\taSign = '08e2c4e1ccf3bccfb3b8eef14679b28442649a2a733960661210a0b00d9c93bf';\n\t\tlogos = '0920c6ab1848df83a332a21e8c9ec1a393e694c396b872aee053722d023e2a32';\n\t}\n\n\t/**\n\t * @dev Checks if the calling contract address is The AO\n\t *\t\tOR\n\t *\t\tIf The AO is set to a Name/TAO, then check if calling address is the Advocate\n\t */\n\tmodifier onlyTheAO {\n\t\trequire (AOLibrary.isTheAO(msg.sender, theAO, nameTAOPositionAddress));\n\t\t_;\n\t}\n\n\t/***** The AO ONLY METHODS *****/\n\t/**\n\t * @dev The AO set the NameTAOPosition Address\n\t * @param _nameTAOPositionAddress The address of NameTAOPosition\n\t */\n\tfunction setNameTAOPositionAddress(address _nameTAOPositionAddress) public onlyTheAO {\n\t\trequire (_nameTAOPositionAddress != address(0));\n\t\tnameTAOPositionAddress = _nameTAOPositionAddress;\n\t}\n\n\t/**\n\t * @dev Transfer ownership of The AO to new address\n\t * @param _theAO The new address to be transferred\n\t */\n\tfunction transferOwnership(address _theAO) public onlyTheAO {\n\t\trequire (_theAO != address(0));\n\t\ttheAO = _theAO;\n\t}\n\n\t/**\n\t * @dev Whitelist `_account` address to transact on behalf of others\n\t * @param _account The address to whitelist\n\t * @param _whitelist Either to whitelist or not\n\t */\n\tfunction setWhitelist(address _account, bool _whitelist) public onlyTheAO {\n\t\trequire (_account != address(0));\n\t\twhitelist[_account] = _whitelist;\n\t}\n\n\t/**\n\t * @dev Set `where` value\n\t * @param _where The new value to be set\n\t */\n\tfunction setWhere(address _where) public onlyTheAO {\n\t\twhere = _where;\n\t}\n}\n",
	"sourcePath": "/data/jmulyono/ao-contracts/contracts/Epiphany.sol",
	"compiler": {
		"name": "solc",
		"version": "0.5.4+commit.9549d8ff.Emscripten.clang"
	},
	"schemaVersion": "3.0.9",
	"updatedAt": "2019-06-03T18:58:48.383Z",
	"devdoc": {
		"methods": {
			"setNameTAOPositionAddress(address)": {
				"details": "The AO set the NameTAOPosition Address",
				"params": {
					"_nameTAOPositionAddress": "The address of NameTAOPosition"
				}
			},
			"setWhere(address)": {
				"details": "Set `where` value",
				"params": {
					"_where": "The new value to be set"
				}
			},
			"setWhitelist(address,bool)": {
				"details": "Whitelist `_account` address to transact on behalf of others",
				"params": {
					"_account": "The address to whitelist",
					"_whitelist": "Either to whitelist or not"
				}
			},
			"transferOwnership(address)": {
				"details": "Transfer ownership of The AO to new address",
				"params": {
					"_theAO": "The new address to be transferred"
				}
			}
		}
	},
	"userdoc": {
		"methods": {}
	}
}