{
  "contractName": "Epiphany",
  "abi": [
    {
      "constant": true,
      "inputs": [],
      "name": "nameTAOPositionAddress",
      "outputs": [
        {
          "name": "",
          "type": "address"
        }
      ],
      "payable": false,
      "stateMutability": "view",
      "type": "function",
      "signature": "0x4ef033f0"
    },
    {
      "constant": true,
      "inputs": [
        {
          "name": "",
          "type": "address"
        }
      ],
      "name": "whitelist",
      "outputs": [
        {
          "name": "",
          "type": "bool"
        }
      ],
      "payable": false,
      "stateMutability": "view",
      "type": "function",
      "signature": "0x9b19251a"
    },
    {
      "constant": true,
      "inputs": [],
      "name": "where",
      "outputs": [
        {
          "name": "",
          "type": "address"
        }
      ],
      "payable": false,
      "stateMutability": "view",
      "type": "function",
      "signature": "0x9b9bef43"
    },
    {
      "constant": true,
      "inputs": [],
      "name": "theAO",
      "outputs": [
        {
          "name": "",
          "type": "address"
        }
      ],
      "payable": false,
      "stateMutability": "view",
      "type": "function",
      "signature": "0xa9b6b38e"
    },
    {
      "constant": true,
      "inputs": [],
      "name": "why",
      "outputs": [
        {
          "name": "",
          "type": "string"
        }
      ],
      "payable": false,
      "stateMutability": "view",
      "type": "function",
      "signature": "0xaf35b3f1"
    },
    {
      "constant": true,
      "inputs": [],
      "name": "what",
      "outputs": [
        {
          "name": "",
          "type": "string"
        }
      ],
      "payable": false,
      "stateMutability": "view",
      "type": "function",
      "signature": "0xb24bb845"
    },
    {
      "constant": true,
      "inputs": [],
      "name": "logos",
      "outputs": [
        {
          "name": "",
          "type": "string"
        }
      ],
      "payable": false,
      "stateMutability": "view",
      "type": "function",
      "signature": "0xcd6f8d44"
    },
    {
      "constant": true,
      "inputs": [],
      "name": "who",
      "outputs": [
        {
          "name": "",
          "type": "string"
        }
      ],
      "payable": false,
      "stateMutability": "view",
      "type": "function",
      "signature": "0xd6d21dfd"
    },
    {
      "constant": true,
      "inputs": [],
      "name": "aSign",
      "outputs": [
        {
          "name": "",
          "type": "string"
        }
      ],
      "payable": false,
      "stateMutability": "view",
      "type": "function",
      "signature": "0xda421f7f"
    },
    {
      "constant": true,
      "inputs": [],
      "name": "when",
      "outputs": [
        {
          "name": "",
          "type": "string"
        }
      ],
      "payable": false,
      "stateMutability": "view",
      "type": "function",
      "signature": "0xe2b0caef"
    },
    {
      "inputs": [],
      "payable": false,
      "stateMutability": "nonpayable",
      "type": "constructor",
      "signature": "constructor"
    },
    {
      "constant": false,
      "inputs": [
        {
          "name": "_nameTAOPositionAddress",
          "type": "address"
        }
      ],
      "name": "setNameTAOPositionAddress",
      "outputs": [],
      "payable": false,
      "stateMutability": "nonpayable",
      "type": "function",
      "signature": "0x5cfaf2ef"
    },
    {
      "constant": false,
      "inputs": [
        {
          "name": "_theAO",
          "type": "address"
        }
      ],
      "name": "transferOwnership",
      "outputs": [],
      "payable": false,
      "stateMutability": "nonpayable",
      "type": "function",
      "signature": "0xf2fde38b"
    },
    {
      "constant": false,
      "inputs": [
        {
          "name": "_account",
          "type": "address"
        },
        {
          "name": "_whitelist",
          "type": "bool"
        }
      ],
      "name": "setWhitelist",
      "outputs": [],
      "payable": false,
      "stateMutability": "nonpayable",
      "type": "function",
      "signature": "0x53d6fd59"
    },
    {
      "constant": false,
      "inputs": [
        {
          "name": "_where",
          "type": "address"
        }
      ],
      "name": "setWhere",
      "outputs": [],
      "payable": false,
      "stateMutability": "nonpayable",
      "type": "function",
      "signature": "0x289cd94f"
    }
  ],
  "bytecode": "0x60806040523480156200001157600080fd5b50600080546001600160a01b031916331790556040805180820190915260068082527f54686520414f000000000000000000000000000000000000000000000000000060209092019182526200006a9160039162000166565b506040518060c0016040528060a0815260200162000b3e60a0913980516200009b9160049160209091019062000166565b5060405180606001604052806032815260200162000ae8603291398051620000cc9160059160209091019062000166565b5060405180606001604052806024815260200162000b1a602491398051620000fd9160069160209091019062000166565b5060405180606001604052806040815260200162000bde6040913980516200012e9160089160209091019062000166565b5060405180606001604052806040815260200162000c1e6040913980516200015f9160099160209091019062000166565b506200020b565b828054600181600116156101000203166002900490600052602060002090601f016020900481019282601f10620001a957805160ff1916838001178555620001d9565b82800160010185558215620001d9579182015b82811115620001d9578251825591602001919060010190620001bc565b50620001e7929150620001eb565b5090565b6200020891905b80821115620001e75760008155600101620001f2565b90565b6108cd806200021b6000396000f3fe608060405234801561001057600080fd5b50600436106100ea5760003560e01c8063af35b3f11161008c578063d6d21dfd11610066578063d6d21dfd14610266578063da421f7f1461026e578063e2b0caef14610276578063f2fde38b1461027e576100ea565b8063af35b3f1146101d9578063b24bb84514610256578063cd6f8d441461025e576100ea565b80635cfaf2ef116100c85780635cfaf2ef146101695780639b19251a1461018f5780639b9bef43146101c9578063a9b6b38e146101d1576100ea565b8063289cd94f146100ef5780634ef033f01461011757806353d6fd591461013b575b600080fd5b6101156004803603602081101561010557600080fd5b50356001600160a01b03166102a4565b005b61011f61036d565b604080516001600160a01b039092168252519081900360200190f35b6101156004803603604081101561015157600080fd5b506001600160a01b038135169060200135151561037c565b6101156004803603602081101561017f57600080fd5b50356001600160a01b0316610461565b6101b5600480360360208110156101a557600080fd5b50356001600160a01b031661053d565b604080519115158252519081900360200190f35b61011f610552565b61011f610561565b6101e1610570565b6040805160208082528351818301528351919283929083019185019080838360005b8381101561021b578181015183820152602001610203565b50505050905090810190601f1680156102485780820380516001836020036101000a031916815260200191505b509250505060405180910390f35b6101e16105fe565b6101e1610659565b6101e16106b4565b6101e161070f565b6101e161076a565b6101156004803603602081101561029457600080fd5b50356001600160a01b03166107c5565b60005460015460408051600160e21b633d9abf2b0281523360048201526001600160a01b0393841660248201529290911660448301525173__AOLibrary_____________________________9163f66afcac916064808301926020929190829003018186803b15801561031657600080fd5b505af415801561032a573d6000803e3d6000fd5b505050506040513d602081101561034057600080fd5b505161034b57600080fd5b600780546001600160a01b0319166001600160a01b0392909216919091179055565b6001546001600160a01b031681565b60005460015460408051600160e21b633d9abf2b0281523360048201526001600160a01b0393841660248201529290911660448301525173__AOLibrary_____________________________9163f66afcac916064808301926020929190829003018186803b1580156103ee57600080fd5b505af4158015610402573d6000803e3d6000fd5b505050506040513d602081101561041857600080fd5b505161042357600080fd5b6001600160a01b03821661043657600080fd5b6001600160a01b03919091166000908152600260205260409020805460ff1916911515919091179055565b60005460015460408051600160e21b633d9abf2b0281523360048201526001600160a01b0393841660248201529290911660448301525173__AOLibrary_____________________________9163f66afcac916064808301926020929190829003018186803b1580156104d357600080fd5b505af41580156104e7573d6000803e3d6000fd5b505050506040513d60208110156104fd57600080fd5b505161050857600080fd5b6001600160a01b03811661051b57600080fd5b600180546001600160a01b0319166001600160a01b0392909216919091179055565b60026020526000908152604090205460ff1681565b6007546001600160a01b031681565b6000546001600160a01b031681565b6005805460408051602060026001851615610100026000190190941693909304601f810184900484028201840190925281815292918301828280156105f65780601f106105cb576101008083540402835291602001916105f6565b820191906000526020600020905b8154815290600101906020018083116105d957829003601f168201915b505050505081565b6003805460408051602060026001851615610100026000190190941693909304601f810184900484028201840190925281815292918301828280156105f65780601f106105cb576101008083540402835291602001916105f6565b6009805460408051602060026001851615610100026000190190941693909304601f810184900484028201840190925281815292918301828280156105f65780601f106105cb576101008083540402835291602001916105f6565b6006805460408051602060026001851615610100026000190190941693909304601f810184900484028201840190925281815292918301828280156105f65780601f106105cb576101008083540402835291602001916105f6565b6008805460408051602060026001851615610100026000190190941693909304601f810184900484028201840190925281815292918301828280156105f65780601f106105cb576101008083540402835291602001916105f6565b6004805460408051602060026001851615610100026000190190941693909304601f810184900484028201840190925281815292918301828280156105f65780601f106105cb576101008083540402835291602001916105f6565b60005460015460408051600160e21b633d9abf2b0281523360048201526001600160a01b0393841660248201529290911660448301525173__AOLibrary_____________________________9163f66afcac916064808301926020929190829003018186803b15801561083757600080fd5b505af415801561084b573d6000803e3d6000fd5b505050506040513d602081101561086157600080fd5b505161086c57600080fd5b6001600160a01b03811661087f57600080fd5b600080546001600160a01b0319166001600160a01b039290921691909117905556fea165627a7a723058207c5c5a91f11048f21cfe3f925170b9c15a2728d52769b63fb65bfc8f9d611c5f0029546f20486561722c205365652c20616e6420537065616b207468652048756d616e20696e736964652048756d616e6974792e596f752e20205365742074686520776f726c642c20467265652e20e280932054727574684a616e75617279203674682c203230313920612e642c2079656172203120612e632e204570697068616e792e20416e20617070656172616e6365206f72206d616e69666573746174696f6e20657370656369616c6c79206f66206120646976696e65206265696e672e20416e20696c6c756d696e6174696e6720646973636f766572792c207265616c697a6174696f6e2c206f7220646973636c6f737572652e3038653263346531636366336263636662336238656566313436373962323834343236343961326137333339363036363132313061306230306439633933626630393230633661623138343864663833613333326132316538633965633161333933653639346333393662383732616565303533373232643032336532613332",
  "source": "pragma solidity >=0.5.4 <0.6.0;\n\nimport './TheAO.sol';\nimport './AOLibrary.sol';\n\ncontract Epiphany is TheAO {\n\tstring public what;\n\tstring public when;\n\tstring public why;\n\tstring public who;\n\taddress public where;\n\tstring public aSign;\n\tstring public logos;\n\n\tconstructor() public {\n\t\twhat = 'The AO';\n\t\twhen = 'January 6th, 2019 a.d, year 1 a.c. Epiphany. An appearance or manifestation especially of a divine being. An illuminating discovery, realization, or disclosure.';\n\t\twhy = 'To Hear, See, and Speak the Human inside Humanity.';\n\t\twho = 'You.  Set the world, Free. – Truth';\n\t\taSign = '08e2c4e1ccf3bccfb3b8eef14679b28442649a2a733960661210a0b00d9c93bf';\n\t\tlogos = '0920c6ab1848df83a332a21e8c9ec1a393e694c396b872aee053722d023e2a32';\n\t}\n\n\t/**\n\t * @dev Checks if the calling contract address is The AO\n\t *\t\tOR\n\t *\t\tIf The AO is set to a Name/TAO, then check if calling address is the Advocate\n\t */\n\tmodifier onlyTheAO {\n\t\trequire (AOLibrary.isTheAO(msg.sender, theAO, nameTAOPositionAddress));\n\t\t_;\n\t}\n\n\t/***** The AO ONLY METHODS *****/\n\t/**\n\t * @dev The AO set the NameTAOPosition Address\n\t * @param _nameTAOPositionAddress The address of NameTAOPosition\n\t */\n\tfunction setNameTAOPositionAddress(address _nameTAOPositionAddress) public onlyTheAO {\n\t\trequire (_nameTAOPositionAddress != address(0));\n\t\tnameTAOPositionAddress = _nameTAOPositionAddress;\n\t}\n\n\t/**\n\t * @dev Transfer ownership of The AO to new address\n\t * @param _theAO The new address to be transferred\n\t */\n\tfunction transferOwnership(address _theAO) public onlyTheAO {\n\t\trequire (_theAO != address(0));\n\t\ttheAO = _theAO;\n\t}\n\n\t/**\n\t * @dev Whitelist `_account` address to transact on behalf of others\n\t * @param _account The address to whitelist\n\t * @param _whitelist Either to whitelist or not\n\t */\n\tfunction setWhitelist(address _account, bool _whitelist) public onlyTheAO {\n\t\trequire (_account != address(0));\n\t\twhitelist[_account] = _whitelist;\n\t}\n\n\t/**\n\t * @dev Set `where` value\n\t * @param _where The new value to be set\n\t */\n\tfunction setWhere(address _where) public onlyTheAO {\n\t\twhere = _where;\n\t}\n}\n",
  "sourcePath": "/usr/local/ao-contracts/contracts/Epiphany.sol",
  "compiler": {
    "name": "solc",
    "version": "0.5.6+commit.b259423e.Emscripten.clang"
  },
  "schemaVersion": "3.0.2",
  "updatedAt": "2019-04-11T01:08:24.723Z",
  "devdoc": {
    "methods": {
      "setNameTAOPositionAddress(address)": {
        "details": "The AO set the NameTAOPosition Address",
        "params": {
          "_nameTAOPositionAddress": "The address of NameTAOPosition"
        }
      },
      "setWhere(address)": {
        "details": "Set `where` value",
        "params": {
          "_where": "The new value to be set"
        }
      },
      "setWhitelist(address,bool)": {
        "details": "Whitelist `_account` address to transact on behalf of others",
        "params": {
          "_account": "The address to whitelist",
          "_whitelist": "Either to whitelist or not"
        }
      },
      "transferOwnership(address)": {
        "details": "Transfer ownership of The AO to new address",
        "params": {
          "_theAO": "The new address to be transferred"
        }
      }
    }
  },
  "userdoc": {
    "methods": {}
  }
}