{
	"contractName": "EthosGiga",
	"abi": [
		{
			"constant": true,
			"inputs": [],
			"name": "name",
			"outputs": [
				{
					"name": "",
					"type": "string"
				}
			],
			"payable": false,
			"stateMutability": "view",
			"type": "function"
		},
		{
			"constant": true,
			"inputs": [],
			"name": "powerOfTen",
			"outputs": [
				{
					"name": "",
					"type": "uint256"
				}
			],
			"payable": false,
			"stateMutability": "view",
			"type": "function"
		},
		{
			"constant": true,
			"inputs": [],
			"name": "totalSupply",
			"outputs": [
				{
					"name": "",
					"type": "uint256"
				}
			],
			"payable": false,
			"stateMutability": "view",
			"type": "function"
		},
		{
			"constant": false,
			"inputs": [
				{
					"name": "_from",
					"type": "address"
				},
				{
					"name": "_to",
					"type": "address"
				},
				{
					"name": "_value",
					"type": "uint256"
				}
			],
			"name": "transferFrom",
			"outputs": [
				{
					"name": "",
					"type": "bool"
				}
			],
			"payable": false,
			"stateMutability": "nonpayable",
			"type": "function"
		},
		{
			"constant": true,
			"inputs": [],
			"name": "decimals",
			"outputs": [
				{
					"name": "",
					"type": "uint8"
				}
			],
			"payable": false,
			"stateMutability": "view",
			"type": "function"
		},
		{
			"constant": true,
			"inputs": [],
			"name": "nameTAOPositionAddress",
			"outputs": [
				{
					"name": "",
					"type": "address"
				}
			],
			"payable": false,
			"stateMutability": "view",
			"type": "function"
		},
		{
			"constant": false,
			"inputs": [
				{
					"name": "_account",
					"type": "address"
				},
				{
					"name": "_whitelist",
					"type": "bool"
				}
			],
			"name": "setWhitelist",
			"outputs": [],
			"payable": false,
			"stateMutability": "nonpayable",
			"type": "function"
		},
		{
			"constant": false,
			"inputs": [
				{
					"name": "_nameTAOPositionAddress",
					"type": "address"
				}
			],
			"name": "setNameTAOPositionAddress",
			"outputs": [],
			"payable": false,
			"stateMutability": "nonpayable",
			"type": "function"
		},
		{
			"constant": true,
			"inputs": [
				{
					"name": "",
					"type": "address"
				}
			],
			"name": "balanceOf",
			"outputs": [
				{
					"name": "",
					"type": "uint256"
				}
			],
			"payable": false,
			"stateMutability": "view",
			"type": "function"
		},
		{
			"constant": false,
			"inputs": [
				{
					"name": "target",
					"type": "address"
				},
				{
					"name": "mintedAmount",
					"type": "uint256"
				}
			],
			"name": "mintToken",
			"outputs": [
				{
					"name": "",
					"type": "bool"
				}
			],
			"payable": false,
			"stateMutability": "nonpayable",
			"type": "function"
		},
		{
			"constant": true,
			"inputs": [],
			"name": "symbol",
			"outputs": [
				{
					"name": "",
					"type": "string"
				}
			],
			"payable": false,
			"stateMutability": "view",
			"type": "function"
		},
		{
			"constant": true,
			"inputs": [
				{
					"name": "",
					"type": "address"
				}
			],
			"name": "whitelist",
			"outputs": [
				{
					"name": "",
					"type": "bool"
				}
			],
			"payable": false,
			"stateMutability": "view",
			"type": "function"
		},
		{
			"constant": true,
			"inputs": [],
			"name": "theAO",
			"outputs": [
				{
					"name": "",
					"type": "address"
				}
			],
			"payable": false,
			"stateMutability": "view",
			"type": "function"
		},
		{
			"constant": false,
			"inputs": [
				{
					"name": "_from",
					"type": "address"
				},
				{
					"name": "_value",
					"type": "uint256"
				}
			],
			"name": "whitelistBurnFrom",
			"outputs": [
				{
					"name": "success",
					"type": "bool"
				}
			],
			"payable": false,
			"stateMutability": "nonpayable",
			"type": "function"
		},
		{
			"constant": false,
			"inputs": [
				{
					"name": "_theAO",
					"type": "address"
				}
			],
			"name": "transferOwnership",
			"outputs": [],
			"payable": false,
			"stateMutability": "nonpayable",
			"type": "function"
		},
		{
			"inputs": [
				{
					"name": "initialSupply",
					"type": "uint256"
				},
				{
					"name": "tokenName",
					"type": "string"
				},
				{
					"name": "tokenSymbol",
					"type": "string"
				}
			],
			"payable": false,
			"stateMutability": "nonpayable",
			"type": "constructor"
		},
		{
			"anonymous": false,
			"inputs": [
				{
					"indexed": true,
					"name": "from",
					"type": "address"
				},
				{
					"indexed": true,
					"name": "to",
					"type": "address"
				},
				{
					"indexed": false,
					"name": "value",
					"type": "uint256"
				}
			],
			"name": "Transfer",
			"type": "event"
		},
		{
			"anonymous": false,
			"inputs": [
				{
					"indexed": true,
					"name": "from",
					"type": "address"
				},
				{
					"indexed": false,
					"name": "value",
					"type": "uint256"
				}
			],
			"name": "Burn",
			"type": "event"
		}
	],
	"bytecode": "0x60806040523480156200001157600080fd5b50604051620010d9380380620010d983398101604090815281516020808401518385015160008054600160a060020a03191633908117825560078690558152600884529490942083905584018051929490930191849184918491849184918491620000839160039190850190620000be565b50805162000099906004906020840190620000be565b5050600580546009600681905560ff1990911617905550620001639650505050505050565b828054600181600116156101000203166002900490600052602060002090601f016020900481019282601f106200010157805160ff191683800117855562000131565b8280016001018555821562000131579182015b828111156200013157825182559160200191906001019062000114565b506200013f92915062000143565b5090565b6200016091905b808211156200013f57600081556001016200014a565b90565b610f6680620001736000396000f3006080604052600436106100c15763ffffffff60e060020a60003504166306fdde0381146100c65780630aa245461461015057806318160ddd1461017757806323b872dd1461018c578063313ce567146101ca5780634ef033f0146101f557806353d6fd59146102265780635cfaf2ef1461024e57806370a082311461026f57806379c650681461029057806395d89b41146102b45780639b19251a146102c9578063a9b6b38e146102ea578063b1e19d45146102ff578063f2fde38b14610323575b600080fd5b3480156100d257600080fd5b506100db610344565b6040805160208082528351818301528351919283929083019185019080838360005b838110156101155781810151838201526020016100fd565b50505050905090810190601f1680156101425780820380516001836020036101000a031916815260200191505b509250505060405180910390f35b34801561015c57600080fd5b506101656103d2565b60408051918252519081900360200190f35b34801561018357600080fd5b506101656103d8565b34801561019857600080fd5b506101b6600160a060020a03600435811690602435166044356103de565b604080519115158252519081900360200190f35b3480156101d657600080fd5b506101df61069a565b6040805160ff9092168252519081900360200190f35b34801561020157600080fd5b5061020a6106a3565b60408051600160a060020a039092168252519081900360200190f35b34801561023257600080fd5b5061024c600160a060020a036004351660243515156106b2565b005b34801561025a57600080fd5b5061024c600160a060020a03600435166107b1565b34801561027b57600080fd5b50610165600160a060020a03600435166108b4565b34801561029c57600080fd5b506101b6600160a060020a03600435166024356108c6565b3480156102c057600080fd5b506100db610a3d565b3480156102d557600080fd5b506101b6600160a060020a0360043516610a98565b3480156102f657600080fd5b5061020a610aad565b34801561030b57600080fd5b506101b6600160a060020a0360043516602435610abc565b34801561032f57600080fd5b5061024c600160a060020a0360043516610ba2565b6003805460408051602060026001851615610100026000190190941693909304601f810184900484028201840190925281815292918301828280156103ca5780601f1061039f576101008083540402835291602001916103ca565b820191906000526020600020905b8154815290600101906020018083116103ad57829003601f168201915b505050505081565b60065481565b60075481565b3360009081526002602052604081205460ff1615156001146103ff57600080fd5b8373__AOLibrary_____________________________632d706a34826040518263ffffffff1660e060020a0281526004018082600160a060020a0316600160a060020a0316815260200191505060206040518083038186803b15801561046457600080fd5b505af4158015610478573d6000803e3d6000fd5b505050506040513d602081101561048e57600080fd5b5051806105365750604080517f2fca5414000000000000000000000000000000000000000000000000000000008152600160a060020a0383166004820152905173__AOLibrary_____________________________91632fca5414916024808301926020929190829003018186803b15801561050957600080fd5b505af415801561051d573d6000803e3d6000fd5b505050506040513d602081101561053357600080fd5b50515b151561054157600080fd5b8373__AOLibrary_____________________________632d706a34826040518263ffffffff1660e060020a0281526004018082600160a060020a0316600160a060020a0316815260200191505060206040518083038186803b1580156105a657600080fd5b505af41580156105ba573d6000803e3d6000fd5b505050506040513d60208110156105d057600080fd5b5051806106785750604080517f2fca5414000000000000000000000000000000000000000000000000000000008152600160a060020a0383166004820152905173__AOLibrary_____________________________91632fca5414916024808301926020929190829003018186803b15801561064b57600080fd5b505af415801561065f573d6000803e3d6000fd5b505050506040513d602081101561067557600080fd5b50515b151561068357600080fd5b61068e868686610ca5565b50600195945050505050565b60055460ff1681565b600154600160a060020a031681565b600054600154604080517ff66afcac000000000000000000000000000000000000000000000000000000008152336004820152600160a060020a0393841660248201529290911660448301525173__AOLibrary_____________________________9163f66afcac916064808301926020929190829003018186803b15801561073a57600080fd5b505af415801561074e573d6000803e3d6000fd5b505050506040513d602081101561076457600080fd5b5051151561077157600080fd5b600160a060020a038216151561078657600080fd5b600160a060020a03919091166000908152600260205260409020805460ff1916911515919091179055565b600054600154604080517ff66afcac000000000000000000000000000000000000000000000000000000008152336004820152600160a060020a0393841660248201529290911660448301525173__AOLibrary_____________________________9163f66afcac916064808301926020929190829003018186803b15801561083957600080fd5b505af415801561084d573d6000803e3d6000fd5b505050506040513d602081101561086357600080fd5b5051151561087057600080fd5b600160a060020a038116151561088557600080fd5b6001805473ffffffffffffffffffffffffffffffffffffffff1916600160a060020a0392909216919091179055565b60086020526000908152604090205481565b3360009081526002602052604081205460ff1615156001146108e757600080fd5b8273__AOLibrary_____________________________632d706a34826040518263ffffffff1660e060020a0281526004018082600160a060020a0316600160a060020a0316815260200191505060206040518083038186803b15801561094c57600080fd5b505af4158015610960573d6000803e3d6000fd5b505050506040513d602081101561097657600080fd5b505180610a1e5750604080517f2fca5414000000000000000000000000000000000000000000000000000000008152600160a060020a0383166004820152905173__AOLibrary_____________________________91632fca5414916024808301926020929190829003018186803b1580156109f157600080fd5b505af4158015610a05573d6000803e3d6000fd5b505050506040513d6020811015610a1b57600080fd5b50515b1515610a2957600080fd5b610a338484610e41565b5060019392505050565b6004805460408051602060026001851615610100026000190190941693909304601f810184900484028201840190925281815292918301828280156103ca5780601f1061039f576101008083540402835291602001916103ca565b60026020526000908152604090205460ff1681565b600054600160a060020a031681565b3360009081526002602052604081205460ff161515600114610add57600080fd5b600160a060020a038316600090815260086020526040902054821115610b0257600080fd5b600160a060020a038316600090815260086020526040902054610b2b908363ffffffff610f1516565b600160a060020a038416600090815260086020526040902055600754610b57908363ffffffff610f1516565b600755604080518381529051600160a060020a038516917fcc16f5dbb4873280815c1ee09dbd06736cffcc184412cf7a71a0fdb75d397ca5919081900360200190a250600192915050565b600054600154604080517ff66afcac000000000000000000000000000000000000000000000000000000008152336004820152600160a060020a0393841660248201529290911660448301525173__AOLibrary_____________________________9163f66afcac916064808301926020929190829003018186803b158015610c2a57600080fd5b505af4158015610c3e573d6000803e3d6000fd5b505050506040513d6020811015610c5457600080fd5b50511515610c6157600080fd5b600160a060020a0381161515610c7657600080fd5b6000805473ffffffffffffffffffffffffffffffffffffffff1916600160a060020a0392909216919091179055565b6000600160a060020a0383161515610cbc57600080fd5b600160a060020a038416600090815260086020526040902054821115610ce157600080fd5b600160a060020a038316600090815260086020526040902054610d0a818463ffffffff610f2716565b1015610d1557600080fd5b600160a060020a03808416600090815260086020526040808220549287168252902054610d479163ffffffff610f2716565b600160a060020a038516600090815260086020526040902054909150610d73908363ffffffff610f1516565b600160a060020a038086166000908152600860205260408082209390935590851681522054610da8908363ffffffff610f2716565b600160a060020a0380851660008181526008602090815260409182902094909455805186815290519193928816927fddf252ad1be2c89b69c2b068fc378daa952ba7f163c4a11628f55a4df523b3ef92918290030190a3600160a060020a038084166000908152600860205260408082205492871682529020548291610e34919063ffffffff610f2716565b14610e3b57fe5b50505050565b600160a060020a038216600090815260086020526040902054610e6a908263ffffffff610f2716565b600160a060020a038316600090815260086020526040902055600754610e96908263ffffffff610f2716565b60075560408051828152905130916000917fddf252ad1be2c89b69c2b068fc378daa952ba7f163c4a11628f55a4df523b3ef9181900360200190a3604080518281529051600160a060020a0384169130917fddf252ad1be2c89b69c2b068fc378daa952ba7f163c4a11628f55a4df523b3ef9181900360200190a35050565b600082821115610f2157fe5b50900390565b81810182811015610f3457fe5b929150505600a165627a7a723058203c3c1488700b2a98f9cac2e08911eadfa57c4ad15abe00d90a616e2e0c3186f40029",
	"source": "pragma solidity ^0.4.24;\n\nimport \"./Ethos.sol\";\n\ncontract EthosGiga is Ethos {\n\t/**\n\t * @dev Constructor function\n\t */\n\tconstructor(uint256 initialSupply, string tokenName, string tokenSymbol)\n\t\tEthos(initialSupply, tokenName, tokenSymbol) public {\n\t\tpowerOfTen = 9;\n\t\tdecimals = 9;\n\t}\n}\n",
	"sourcePath": "/Users/johanmulyono/Work/AO/ao-contracts/contracts/EthosGiga.sol",
	"compiler": {
		"name": "solc",
		"version": "0.4.24+commit.e67f0147.Emscripten.clang"
	},
	"schemaVersion": "2.0.1",
	"updatedAt": "2019-01-07T03:04:13.033Z"
}