{
	"contractName": "LogosTreasury",
	"abi": [
		{
			"constant": false,
			"inputs": [],
			"name": "escapeHatch",
			"outputs": [],
			"payable": false,
			"stateMutability": "nonpayable",
			"type": "function"
		},
		{
			"constant": false,
			"inputs": [
				{
					"name": "_paused",
					"type": "bool"
				}
			],
			"name": "setPaused",
			"outputs": [],
			"payable": false,
			"stateMutability": "nonpayable",
			"type": "function"
		},
		{
			"constant": true,
			"inputs": [],
			"name": "killed",
			"outputs": [
				{
					"name": "",
					"type": "bool"
				}
			],
			"payable": false,
			"stateMutability": "view",
			"type": "function"
		},
		{
			"constant": true,
			"inputs": [
				{
					"name": "integerAmount",
					"type": "uint256"
				},
				{
					"name": "fractionAmount",
					"type": "uint256"
				},
				{
					"name": "denominationName",
					"type": "bytes8"
				}
			],
			"name": "toBase",
			"outputs": [
				{
					"name": "",
					"type": "uint256"
				}
			],
			"payable": false,
			"stateMutability": "view",
			"type": "function"
		},
		{
			"constant": false,
			"inputs": [
				{
					"name": "denominationName",
					"type": "bytes8"
				},
				{
					"name": "denominationAddress",
					"type": "address"
				}
			],
			"name": "updateDenomination",
			"outputs": [
				{
					"name": "",
					"type": "bool"
				}
			],
			"payable": false,
			"stateMutability": "nonpayable",
			"type": "function"
		},
		{
			"constant": false,
			"inputs": [
				{
					"name": "amount",
					"type": "uint256"
				},
				{
					"name": "fromDenominationName",
					"type": "bytes8"
				},
				{
					"name": "toDenominationName",
					"type": "bytes8"
				}
			],
			"name": "exchange",
			"outputs": [],
			"payable": false,
			"stateMutability": "nonpayable",
			"type": "function"
		},
		{
			"constant": true,
			"inputs": [],
			"name": "nameTAOPositionAddress",
			"outputs": [
				{
					"name": "",
					"type": "address"
				}
			],
			"payable": false,
			"stateMutability": "view",
			"type": "function"
		},
		{
			"constant": false,
			"inputs": [
				{
					"name": "_account",
					"type": "address"
				},
				{
					"name": "_whitelist",
					"type": "bool"
				}
			],
			"name": "setWhitelist",
			"outputs": [],
			"payable": false,
			"stateMutability": "nonpayable",
			"type": "function"
		},
		{
			"constant": true,
			"inputs": [],
			"name": "totalDenominations",
			"outputs": [
				{
					"name": "",
					"type": "uint256"
				}
			],
			"payable": false,
			"stateMutability": "view",
			"type": "function"
		},
		{
			"constant": true,
			"inputs": [],
			"name": "paused",
			"outputs": [
				{
					"name": "",
					"type": "bool"
				}
			],
			"payable": false,
			"stateMutability": "view",
			"type": "function"
		},
		{
			"constant": false,
			"inputs": [
				{
					"name": "_nameTAOPositionAddress",
					"type": "address"
				}
			],
			"name": "setNameTAOPositionAddress",
			"outputs": [],
			"payable": false,
			"stateMutability": "nonpayable",
			"type": "function"
		},
		{
			"constant": true,
			"inputs": [
				{
					"name": "index",
					"type": "uint256"
				}
			],
			"name": "getDenominationByIndex",
			"outputs": [
				{
					"name": "",
					"type": "bytes8"
				},
				{
					"name": "",
					"type": "address"
				},
				{
					"name": "",
					"type": "string"
				},
				{
					"name": "",
					"type": "string"
				},
				{
					"name": "",
					"type": "uint8"
				},
				{
					"name": "",
					"type": "uint256"
				}
			],
			"payable": false,
			"stateMutability": "view",
			"type": "function"
		},
		{
			"constant": true,
			"inputs": [
				{
					"name": "amount",
					"type": "uint256"
				}
			],
			"name": "toHighestDenomination",
			"outputs": [
				{
					"name": "",
					"type": "bytes8"
				},
				{
					"name": "",
					"type": "address"
				},
				{
					"name": "",
					"type": "uint256"
				},
				{
					"name": "",
					"type": "uint256"
				},
				{
					"name": "",
					"type": "string"
				},
				{
					"name": "",
					"type": "string"
				},
				{
					"name": "",
					"type": "uint8"
				},
				{
					"name": "",
					"type": "uint256"
				}
			],
			"payable": false,
			"stateMutability": "view",
			"type": "function"
		},
		{
			"constant": true,
			"inputs": [
				{
					"name": "",
					"type": "address"
				}
			],
			"name": "whitelist",
			"outputs": [
				{
					"name": "",
					"type": "bool"
				}
			],
			"payable": false,
			"stateMutability": "view",
			"type": "function"
		},
		{
			"constant": true,
			"inputs": [
				{
					"name": "integerAmount",
					"type": "uint256"
				},
				{
					"name": "denominationName",
					"type": "bytes8"
				}
			],
			"name": "fromBase",
			"outputs": [
				{
					"name": "",
					"type": "uint256"
				},
				{
					"name": "",
					"type": "uint256"
				}
			],
			"payable": false,
			"stateMutability": "view",
			"type": "function"
		},
		{
			"constant": true,
			"inputs": [],
			"name": "theAO",
			"outputs": [
				{
					"name": "",
					"type": "address"
				}
			],
			"payable": false,
			"stateMutability": "view",
			"type": "function"
		},
		{
			"constant": true,
			"inputs": [
				{
					"name": "denominationName",
					"type": "bytes8"
				}
			],
			"name": "getDenominationByName",
			"outputs": [
				{
					"name": "",
					"type": "bytes8"
				},
				{
					"name": "",
					"type": "address"
				},
				{
					"name": "",
					"type": "string"
				},
				{
					"name": "",
					"type": "string"
				},
				{
					"name": "",
					"type": "uint8"
				},
				{
					"name": "",
					"type": "uint256"
				}
			],
			"payable": false,
			"stateMutability": "view",
			"type": "function"
		},
		{
			"constant": false,
			"inputs": [
				{
					"name": "denominationName",
					"type": "bytes8"
				},
				{
					"name": "denominationAddress",
					"type": "address"
				}
			],
			"name": "addDenomination",
			"outputs": [
				{
					"name": "",
					"type": "bool"
				}
			],
			"payable": false,
			"stateMutability": "nonpayable",
			"type": "function"
		},
		{
			"constant": true,
			"inputs": [],
			"name": "getBaseDenomination",
			"outputs": [
				{
					"name": "",
					"type": "bytes8"
				},
				{
					"name": "",
					"type": "address"
				},
				{
					"name": "",
					"type": "string"
				},
				{
					"name": "",
					"type": "string"
				},
				{
					"name": "",
					"type": "uint8"
				},
				{
					"name": "",
					"type": "uint256"
				}
			],
			"payable": false,
			"stateMutability": "view",
			"type": "function"
		},
		{
			"constant": false,
			"inputs": [
				{
					"name": "_theAO",
					"type": "address"
				}
			],
			"name": "transferOwnership",
			"outputs": [],
			"payable": false,
			"stateMutability": "nonpayable",
			"type": "function"
		},
		{
			"inputs": [
				{
					"name": "_nameFactoryAddress",
					"type": "address"
				}
			],
			"payable": false,
			"stateMutability": "nonpayable",
			"type": "constructor"
		},
		{
			"anonymous": false,
			"inputs": [
				{
					"indexed": true,
					"name": "nameId",
					"type": "address"
				},
				{
					"indexed": false,
					"name": "amount",
					"type": "uint256"
				},
				{
					"indexed": false,
					"name": "fromDenominationName",
					"type": "bytes8"
				},
				{
					"indexed": false,
					"name": "toDenominationName",
					"type": "bytes8"
				}
			],
			"name": "Exchange",
			"type": "event"
		},
		{
			"anonymous": false,
			"inputs": [],
			"name": "EscapeHatch",
			"type": "event"
		}
	],
	"bytecode": "0x608060405234801561001057600080fd5b506040516020806123d0833981016040525160008054600160a060020a0319163317905560038054600160a060020a0390921662010000026201000060b060020a03199092169190911790556123658061006b6000396000f3006080604052600436106100f85763ffffffff60e060020a6000350416631554611f81146100fd57806316c38b3c146101145780631f3a0e411461012e578063217db8e8146101575780633d9f923b14610191578063451659d9146101bf5780634ef033f0146101ea57806353d6fd591461021b5780635768f84d146102415780635c975abb146102565780635cfaf2ef1461026b5780635d9907911461028c578063932fd99f146103ca5780639b19251a14610516578063a46a891e14610537578063a9b6b38e14610575578063aa25c7441461058a578063c1e52775146105ac578063dc689d3c146105da578063f2fde38b146105ef575b600080fd5b34801561010957600080fd5b50610112610610565b005b34801561012057600080fd5b506101126004351515610708565b34801561013a57600080fd5b506101436107c4565b604080519115158252519081900360200190f35b34801561016357600080fd5b5061017f600435602435600160c060020a0319604435166107d2565b60408051918252519081900360200190f35b34801561019d57600080fd5b50610143600160c060020a031960043516600160a060020a0360243516610a55565b3480156101cb57600080fd5b50610112600435600160c060020a031960243581169060443516610df4565b3480156101f657600080fd5b506101ff6112aa565b60408051600160a060020a039092168252519081900360200190f35b34801561022757600080fd5b50610112600160a060020a036004351660243515156112b9565b34801561024d57600080fd5b5061017f6113a2565b34801561026257600080fd5b506101436113a8565b34801561027757600080fd5b50610112600160a060020a03600435166113b1565b34801561029857600080fd5b506102a460043561149e565b6040518087600160c060020a031916600160c060020a031916815260200186600160a060020a0316600160a060020a0316815260200180602001806020018560ff1660ff168152602001848152602001838103835287818151815260200191508051906020019080838360005b83811015610329578181015183820152602001610311565b50505050905090810190601f1680156103565780820380516001836020036101000a031916815260200191505b50838103825286518152865160209182019188019080838360005b83811015610389578181015183820152602001610371565b50505050905090810190601f1680156103b65780820380516001836020036101000a031916815260200191505b509850505050505050505060405180910390f35b3480156103d657600080fd5b506103e26004356117ad565b6040518089600160c060020a031916600160c060020a031916815260200188600160a060020a0316600160a060020a0316815260200187815260200186815260200180602001806020018560ff1660ff168152602001848152602001838103835287818151815260200191508051906020019080838360005b8381101561047357818101518382015260200161045b565b50505050905090810190601f1680156104a05780820380516001836020036101000a031916815260200191505b50838103825286518152865160209182019188019080838360005b838110156104d35781810151838201526020016104bb565b50505050905090810190601f1680156105005780820380516001836020036101000a031916815260200191505b509a505050505050505050505060405180910390f35b34801561052257600080fd5b50610143600160a060020a0360043516611bc7565b34801561054357600080fd5b5061055c600435600160c060020a031960243516611bdc565b6040805192835260208301919091528051918290030190f35b34801561058157600080fd5b506101ff611dc3565b34801561059657600080fd5b506102a4600160c060020a031960043516611dd2565b3480156105b857600080fd5b50610143600160c060020a031960043516600160a060020a0360243516611ed4565b3480156105e657600080fd5b506102a4612176565b3480156105fb57600080fd5b50610112600160a060020a03600435166121ad565b6000546001546040805160e260020a633d9abf2b028152336004820152600160a060020a0393841660248201529290911660448301525173__AOLibrary_____________________________9163f66afcac916064808301926020929190829003018186803b15801561068257600080fd5b505af4158015610696573d6000803e3d6000fd5b505050506040513d60208110156106ac57600080fd5b505115156106b957600080fd5b600354610100900460ff16156106ce57600080fd5b6003805461ff0019166101001790556040517f16ed36fbe43aed6ba7426b24d35620696380d398f2f22f918dd74e4d3e0ceef990600090a1565b6000546001546040805160e260020a633d9abf2b028152336004820152600160a060020a0393841660248201529290911660448301525173__AOLibrary_____________________________9163f66afcac916064808301926020929190829003018186803b15801561077a57600080fd5b505af415801561078e573d6000803e3d6000fd5b505050506040513d60208110156107a457600080fd5b505115156107b157600080fd5b6003805460ff1916911515919091179055565b600354610100900460ff1681565b60006107dc612322565b60008080600160c060020a0319861660009081526005602052604081205411801561083c5750600160c060020a0319861660009081526005602090815260408083205483526004909152902054604060020a9004600160a060020a031615155b8015610852575060008811806108525750600087115b15610a4557600160c060020a03198681166000908152600560209081526040808320548352600482529182902082518084019093525460c060020a81029093168252604060020a909204600160a060020a0316918101829052945092506108b88761229a565b915082600160a060020a031663313ce5676040518163ffffffff1660e060020a028152600401602060405180830381600087803b1580156108f857600080fd5b505af115801561090c573d6000803e3d6000fd5b505050506040513d602081101561092257600080fd5b505160ff908116908316111561093757600080fd5b6109b483600160a060020a0316630aa245466040518163ffffffff1660e060020a028152600401602060405180830381600087803b15801561097857600080fd5b505af115801561098c573d6000803e3d6000fd5b505050506040513d60208110156109a257600080fd5b50518990600a0a63ffffffff6122c516565b905082600160a060020a031663313ce5676040518163ffffffff1660e060020a028152600401602060405180830381600087803b1580156109f457600080fd5b505af1158015610a08573d6000803e3d6000fd5b505050506040513d6020811015610a1e57600080fd5b505160ff161515610a2e57600096505b610a3e818863ffffffff6122ee16565b9450610a4a565b600094505b505050509392505050565b600080546001546040805160e260020a633d9abf2b028152336004820152600160a060020a03938416602482015292909116604483015251829182918291829173__AOLibrary_____________________________9163f66afcac916064808301926020929190829003018186803b158015610ad057600080fd5b505af4158015610ae4573d6000803e3d6000fd5b505050506040513d6020811015610afa57600080fd5b50511515610b0757600080fd5b600160c060020a0319871660009081526005602052604081205411610b2b57600080fd5b600160a060020a0386161515610b4057600080fd5b600160c060020a0319871660009081526005602052604090205493508592506001841115610c6d576000198401600090815260046020818152604080842054815160e160020a63055122a30281529151604060020a909104600160a060020a031696508694630aa245469483810194938390030190829087803b158015610bc657600080fd5b505af1158015610bda573d6000803e3d6000fd5b505050506040513d6020811015610bf057600080fd5b50516040805160e160020a63055122a30281529051600160a060020a03861691630aa245469160048083019260209291908290030181600087803b158015610c3757600080fd5b505af1158015610c4b573d6000803e3d6000fd5b505050506040513d6020811015610c6157600080fd5b505111610c6d57600080fd5b600654841015610d8a5760046000600654815260200190815260200160002060000160089054906101000a9004600160a060020a0316905080600160a060020a0316630aa245466040518163ffffffff1660e060020a028152600401602060405180830381600087803b158015610ce357600080fd5b505af1158015610cf7573d6000803e3d6000fd5b505050506040513d6020811015610d0d57600080fd5b50516040805160e160020a63055122a30281529051600160a060020a03861691630aa245469160048083019260209291908290030181600087803b158015610d5457600080fd5b505af1158015610d68573d6000803e3d6000fd5b505050506040513d6020811015610d7e57600080fd5b505110610d8a57600080fd5b600160c060020a031987166000908152600560209081526040808320548352600490915290208054600160a060020a038816604060020a027bffffffffffffffffffffffffffffffffffffffff000000000000000019909116179055600194505050505092915050565b6000610dfe612322565b610e06612322565b600354600090819060ff16158015610e265750600354610100900460ff16155b1515610e3157600080fd5b600160c060020a031987166000908152600560205260408120548891108015610e8f5750600160c060020a0319811660009081526005602090815260408083205483526004909152902054604060020a9004600160a060020a031615155b1515610e9a57600080fd5b600160c060020a031987166000908152600560205260408120548891108015610ef85750600160c060020a0319811660009081526005602090815260408083205483526004909152902054604060020a9004600160a060020a031615155b1515610f0357600080fd5b600354604080517f029b7d53000000000000000000000000000000000000000000000000000000008152336004820152905162010000909204600160a060020a03169163029b7d53916024808201926020929091908290030181600087803b158015610f6e57600080fd5b505af1158015610f82573d6000803e3d6000fd5b505050506040513d6020811015610f9857600080fd5b50519650600160a060020a0387161515610fb157600080fd5b60008a11610fbe57600080fd5b60046000600560008c600160c060020a031916600160c060020a03191681526020019081526020016000205481526020019081526020016000206040805190810160405290816000820160009054906101000a900460c060020a02600160c060020a031916600160c060020a03191681526020016000820160089054906101000a9004600160a060020a0316600160a060020a0316600160a060020a031681525050955060046000600560008b600160c060020a031916600160c060020a03191681526020019081526020016000205481526020019081526020016000206040805190810160405290816000820160009054906101000a900460c060020a02600160c060020a031916600160c060020a03191681526020016000820160089054906101000a9004600160a060020a0316600160a060020a0316600160a060020a0316815250509450856020015193508460200151925083600160a060020a031663b1e19d45888c6040518363ffffffff1660e060020a0281526004018083600160a060020a0316600160a060020a0316815260200182815260200192505050602060405180830381600087803b15801561117757600080fd5b505af115801561118b573d6000803e3d6000fd5b505050506040513d60208110156111a157600080fd5b505115156111ae57600080fd5b82600160a060020a03166379c65068888c6040518363ffffffff1660e060020a0281526004018083600160a060020a0316600160a060020a0316815260200182815260200192505050602060405180830381600087803b15801561121157600080fd5b505af1158015611225573d6000803e3d6000fd5b505050506040513d602081101561123b57600080fd5b5051151561124857600080fd5b604080518b8152600160c060020a0319808c1660208301528a16818301529051600160a060020a038916917fa9cd29186ae896a4a77376f8eb52122c28b2ee10c2271abebe96135f33d0aee7919081900360600190a250505050505050505050565b600154600160a060020a031681565b6000546001546040805160e260020a633d9abf2b028152336004820152600160a060020a0393841660248201529290911660448301525173__AOLibrary_____________________________9163f66afcac916064808301926020929190829003018186803b15801561132b57600080fd5b505af415801561133f573d6000803e3d6000fd5b505050506040513d602081101561135557600080fd5b5051151561136257600080fd5b600160a060020a038216151561137757600080fd5b600160a060020a03919091166000908152600260205260409020805460ff1916911515919091179055565b60065481565b60035460ff1681565b6000546001546040805160e260020a633d9abf2b028152336004820152600160a060020a0393841660248201529290911660448301525173__AOLibrary_____________________________9163f66afcac916064808301926020929190829003018186803b15801561142357600080fd5b505af4158015611437573d6000803e3d6000fd5b505050506040513d602081101561144d57600080fd5b5051151561145a57600080fd5b600160a060020a038116151561146f57600080fd5b6001805473ffffffffffffffffffffffffffffffffffffffff1916600160a060020a0392909216919091179055565b600080606080600080600080881180156114ba57506006548811155b15156114c557600080fd5b600088815260046020526040902054604060020a9004600160a060020a031615156114ef57600080fd5b5060008781526004602081905260408083205481517f06fdde030000000000000000000000000000000000000000000000000000000081529151600160a060020a03604060020a8304169460c060020a90920293859384936306fdde039382840193919290919082900301818387803b15801561156b57600080fd5b505af115801561157f573d6000803e3d6000fd5b505050506040513d6000823e601f3d908101601f1916820160405260208110156115a857600080fd5b8101908080516401000000008111156115c057600080fd5b820160208101848111156115d357600080fd5b81516401000000008111828201871017156115ed57600080fd5b505092919050505083600160a060020a03166395d89b416040518163ffffffff1660e060020a028152600401600060405180830381600087803b15801561163357600080fd5b505af1158015611647573d6000803e3d6000fd5b505050506040513d6000823e601f3d908101601f19168201604052602081101561167057600080fd5b81019080805164010000000081111561168857600080fd5b8201602081018481111561169b57600080fd5b81516401000000008111828201871017156116b557600080fd5b505092919050505084600160a060020a031663313ce5676040518163ffffffff1660e060020a028152600401602060405180830381600087803b1580156116fb57600080fd5b505af115801561170f573d6000803e3d6000fd5b505050506040513d602081101561172557600080fd5b50516040805160e160020a63055122a30281529051600160a060020a03881691630aa245469160048083019260209291908290030181600087803b15801561176c57600080fd5b505af1158015611780573d6000803e3d6000fd5b505050506040513d602081101561179657600080fd5b5051949d939c50919a509850965090945092505050565b6000806000806060806000806000806000806117c7612322565b600060065492505b600083111561188557600460008481526020019081526020016000206040805190810160405290816000820160009054906101000a900460c060020a02600160c060020a031916600160c060020a03191681526020016000820160089054906101000a9004600160a060020a0316600160a060020a0316600160a060020a03168152505091506118638f8360000151611bdc565b9096509450600086111561187957829350611885565b600019909201916117cf565b60008411801561189757506006548411155b15156118a257600080fd5b60008611806118b15750600085115b15156118bc57600080fd5b600084815260046020526040902054604060020a9004600160a060020a031615156118e657600080fd5b5060008381526004602081905260408083205481517f06fdde030000000000000000000000000000000000000000000000000000000081529151600160a060020a03604060020a8304169460c060020a9092029385938b938b9386936306fdde03938082019392919082900301818387803b15801561196457600080fd5b505af1158015611978573d6000803e3d6000fd5b505050506040513d6000823e601f3d908101601f1916820160405260208110156119a157600080fd5b8101908080516401000000008111156119b957600080fd5b820160208101848111156119cc57600080fd5b81516401000000008111828201871017156119e657600080fd5b505092919050505085600160a060020a03166395d89b416040518163ffffffff1660e060020a028152600401600060405180830381600087803b158015611a2c57600080fd5b505af1158015611a40573d6000803e3d6000fd5b505050506040513d6000823e601f3d908101601f191682016040526020811015611a6957600080fd5b810190808051640100000000811115611a8157600080fd5b82016020810184811115611a9457600080fd5b8151640100000000811182820187101715611aae57600080fd5b505092919050505086600160a060020a031663313ce5676040518163ffffffff1660e060020a028152600401602060405180830381600087803b158015611af457600080fd5b505af1158015611b08573d6000803e3d6000fd5b505050506040513d6020811015611b1e57600080fd5b50516040805160e160020a63055122a30281529051600160a060020a038a1691630aa245469160048083019260209291908290030181600087803b158015611b6557600080fd5b505af1158015611b79573d6000803e3d6000fd5b505050506040513d6020811015611b8f57600080fd5b81019080805190602001909291905050508393508292509d509d509d509d509d509d509d509d50505050505050919395975091939597565b60026020526000908152604090205460ff1681565b600080611be7612322565b600160c060020a0319841660009081526005602052604081205481908190879082108015611c4a5750600160c060020a0319811660009081526005602090815260408083205483526004909152902054604060020a9004600160a060020a031615155b1515611c5557600080fd5b600160c060020a03198881166000908152600560209081526040808320548352600480835281842082518084018452905460c060020a81029096168152604060020a909504600160a060020a0316858401819052825160e160020a63055122a30281529251959a509850611d24948994630aa2454694848401949093908390030190829087803b158015611ce857600080fd5b505af1158015611cfc573d6000803e3d6000fd5b505050506040513d6020811015611d1257600080fd5b50518a90600a0a63ffffffff6122fb16565b9250611db3611da685600160a060020a0316630aa245466040518163ffffffff1660e060020a028152600401602060405180830381600087803b158015611d6a57600080fd5b505af1158015611d7e573d6000803e3d6000fd5b505050506040513d6020811015611d9457600080fd5b50518590600a0a63ffffffff6122c516565b8a9063ffffffff61231016565b9299929850919650505050505050565b600054600160a060020a031681565b600080606080828080600160c060020a0319881660009081526005602052604081205411611dff57600080fd5b600160c060020a0319881660009081526005602090815260408083205483526004909152902054604060020a9004600160a060020a03161515611e4157600080fd5b50600160c060020a0319871660009081526005602090815260408083205483526004918290528083205481517f06fdde030000000000000000000000000000000000000000000000000000000081529151604060020a8204600160a060020a03169460c060020a90920293859384936306fdde039382840193919290919082900301818387803b15801561156b57600080fd5b600080546001546040805160e260020a633d9abf2b028152336004820152600160a060020a039384166024820152929091166044830152518291829173__AOLibrary_____________________________9163f66afcac916064808301926020929190829003018186803b158015611f4b57600080fd5b505af4158015611f5f573d6000803e3d6000fd5b505050506040513d6020811015611f7557600080fd5b50511515611f8257600080fd5b600160a060020a0384161515611f9757600080fd5b600160c060020a0319851660009081526005602052604090205415611fbb57600080fd5b6006805460019081019182905510156120e75760046000600160065403815260200190815260200160002060000160089054906101000a9004600160a060020a0316915083905081600160a060020a0316630aa245466040518163ffffffff1660e060020a028152600401602060405180830381600087803b15801561204057600080fd5b505af1158015612054573d6000803e3d6000fd5b505050506040513d602081101561206a57600080fd5b50516040805160e160020a63055122a30281529051600160a060020a03841691630aa245469160048083019260209291908290030181600087803b1580156120b157600080fd5b505af11580156120c5573d6000803e3d6000fd5b505050506040513d60208110156120db57600080fd5b5051116120e757600080fd5b600680546000908152600460209081526040808320805460c060020a8b0467ffffffffffffffff19909116179055835483528083208054600160a060020a038a16604060020a027bffffffffffffffffffffffffffffffffffffffff0000000000000000199091161790559254600160c060020a03198916835260059091529190205560019250505092915050565b600080606080600080600160065411151561219057600080fd5b61219a600161149e565b949b939a50919850965094509092509050565b6000546001546040805160e260020a633d9abf2b028152336004820152600160a060020a0393841660248201529290911660448301525173__AOLibrary_____________________________9163f66afcac916064808301926020929190829003018186803b15801561221f57600080fd5b505af4158015612233573d6000803e3d6000fd5b505050506040513d602081101561224957600080fd5b5051151561225657600080fd5b600160a060020a038116151561226b57600080fd5b6000805473ffffffffffffffffffffffffffffffffffffffff1916600160a060020a0392909216919091179055565b6000805b82156122bf576122b583600a63ffffffff6122fb16565b925060010161229e565b92915050565b60008215156122d6575060006122bf565b508181028183828115156122e657fe5b04146122bf57fe5b818101828110156122bf57fe5b6000818381151561230857fe5b049392505050565b60008282111561231c57fe5b50900390565b6040805180820190915260008082526020820152905600a165627a7a72305820b9280f3866b8d1208bcaa6fc5150cd59a9049e49c446e2541359f7664fad9ebd0029",
	"source": "pragma solidity ^0.4.24;\n\nimport './TAOCurrencyTreasury.sol';\n\n/**\n * @title LogosTreasury\n *\n * The purpose of this contract is to list all of the valid denominations of Logos and do the conversion between denominations\n */\ncontract LogosTreasury is TAOCurrencyTreasury {\n\t/**\n\t * @dev Constructor function\n\t */\n\tconstructor(address _nameFactoryAddress) TAOCurrencyTreasury(_nameFactoryAddress) public {}\n}\n",
	"sourcePath": "/Users/johanmulyono/Work/AO/ao-contracts/contracts/LogosTreasury.sol",
	"compiler": {
		"name": "solc",
		"version": "0.4.24+commit.e67f0147.Emscripten.clang"
	},
	"schemaVersion": "2.0.1",
	"updatedAt": "2019-01-07T03:04:13.043Z"
}