{
  "contractName": "LogosTreasury",
  "abi": [
    {
      "constant": true,
      "inputs": [
        {
          "name": "integerAmount",
          "type": "uint256"
        },
        {
          "name": "fractionAmount",
          "type": "uint256"
        },
        {
          "name": "denominationName",
          "type": "bytes8"
        }
      ],
      "name": "toBase",
      "outputs": [
        {
          "name": "",
          "type": "uint256"
        }
      ],
      "payable": false,
      "stateMutability": "view",
      "type": "function"
    },
    {
      "constant": false,
      "inputs": [
        {
          "name": "denominationName",
          "type": "bytes8"
        },
        {
          "name": "denominationAddress",
          "type": "address"
        }
      ],
      "name": "updateDenomination",
      "outputs": [
        {
          "name": "",
          "type": "bool"
        }
      ],
      "payable": false,
      "stateMutability": "nonpayable",
      "type": "function"
    },
    {
      "constant": true,
      "inputs": [
        {
          "name": "_exchangeId",
          "type": "bytes32"
        }
      ],
      "name": "getDenominationExchangeById",
      "outputs": [
        {
          "name": "",
          "type": "address"
        },
        {
          "name": "",
          "type": "address"
        },
        {
          "name": "",
          "type": "address"
        },
        {
          "name": "",
          "type": "string"
        },
        {
          "name": "",
          "type": "string"
        },
        {
          "name": "",
          "type": "uint256"
        }
      ],
      "payable": false,
      "stateMutability": "view",
      "type": "function"
    },
    {
      "constant": true,
      "inputs": [],
      "name": "nameTAOPositionAddress",
      "outputs": [
        {
          "name": "",
          "type": "address"
        }
      ],
      "payable": false,
      "stateMutability": "view",
      "type": "function"
    },
    {
      "constant": false,
      "inputs": [
        {
          "name": "_account",
          "type": "address"
        },
        {
          "name": "_whitelist",
          "type": "bool"
        }
      ],
      "name": "setWhitelist",
      "outputs": [],
      "payable": false,
      "stateMutability": "nonpayable",
      "type": "function"
    },
    {
      "constant": true,
      "inputs": [],
      "name": "totalDenominations",
      "outputs": [
        {
          "name": "",
          "type": "uint256"
        }
      ],
      "payable": false,
      "stateMutability": "view",
      "type": "function"
    },
    {
      "constant": false,
      "inputs": [
        {
          "name": "_nameTAOPositionAddress",
          "type": "address"
        }
      ],
      "name": "setNameTAOPositionAddress",
      "outputs": [],
      "payable": false,
      "stateMutability": "nonpayable",
      "type": "function"
    },
    {
      "constant": true,
      "inputs": [
        {
          "name": "index",
          "type": "uint256"
        }
      ],
      "name": "getDenominationByIndex",
      "outputs": [
        {
          "name": "",
          "type": "bytes8"
        },
        {
          "name": "",
          "type": "address"
        },
        {
          "name": "",
          "type": "string"
        },
        {
          "name": "",
          "type": "string"
        },
        {
          "name": "",
          "type": "uint8"
        },
        {
          "name": "",
          "type": "uint256"
        }
      ],
      "payable": false,
      "stateMutability": "view",
      "type": "function"
    },
    {
      "constant": false,
      "inputs": [
        {
          "name": "amount",
          "type": "uint256"
        },
        {
          "name": "fromDenominationName",
          "type": "bytes8"
        },
        {
          "name": "toDenominationName",
          "type": "bytes8"
        }
      ],
      "name": "exchangeDenomination",
      "outputs": [],
      "payable": false,
      "stateMutability": "nonpayable",
      "type": "function"
    },
    {
      "constant": false,
      "inputs": [
        {
          "name": "_nameFactoryAddress",
          "type": "address"
        }
      ],
      "name": "setNameFactoryAddress",
      "outputs": [],
      "payable": false,
      "stateMutability": "nonpayable",
      "type": "function"
    },
    {
      "constant": true,
      "inputs": [
        {
          "name": "denominationName",
          "type": "bytes8"
        }
      ],
      "name": "isDenominationExist",
      "outputs": [
        {
          "name": "",
          "type": "bool"
        }
      ],
      "payable": false,
      "stateMutability": "view",
      "type": "function"
    },
    {
      "constant": true,
      "inputs": [
        {
          "name": "amount",
          "type": "uint256"
        }
      ],
      "name": "toHighestDenomination",
      "outputs": [
        {
          "name": "",
          "type": "bytes8"
        },
        {
          "name": "",
          "type": "address"
        },
        {
          "name": "",
          "type": "uint256"
        },
        {
          "name": "",
          "type": "uint256"
        },
        {
          "name": "",
          "type": "string"
        },
        {
          "name": "",
          "type": "string"
        },
        {
          "name": "",
          "type": "uint8"
        },
        {
          "name": "",
          "type": "uint256"
        }
      ],
      "payable": false,
      "stateMutability": "view",
      "type": "function"
    },
    {
      "constant": true,
      "inputs": [
        {
          "name": "",
          "type": "address"
        }
      ],
      "name": "whitelist",
      "outputs": [
        {
          "name": "",
          "type": "bool"
        }
      ],
      "payable": false,
      "stateMutability": "view",
      "type": "function"
    },
    {
      "constant": true,
      "inputs": [],
      "name": "totalDenominationExchanges",
      "outputs": [
        {
          "name": "",
          "type": "uint256"
        }
      ],
      "payable": false,
      "stateMutability": "view",
      "type": "function"
    },
    {
      "constant": true,
      "inputs": [
        {
          "name": "integerAmount",
          "type": "uint256"
        },
        {
          "name": "denominationName",
          "type": "bytes8"
        }
      ],
      "name": "fromBase",
      "outputs": [
        {
          "name": "",
          "type": "uint256"
        },
        {
          "name": "",
          "type": "uint256"
        }
      ],
      "payable": false,
      "stateMutability": "view",
      "type": "function"
    },
    {
      "constant": true,
      "inputs": [],
      "name": "theAO",
      "outputs": [
        {
          "name": "",
          "type": "address"
        }
      ],
      "payable": false,
      "stateMutability": "view",
      "type": "function"
    },
    {
      "constant": true,
      "inputs": [
        {
          "name": "denominationName",
          "type": "bytes8"
        }
      ],
      "name": "getDenominationByName",
      "outputs": [
        {
          "name": "",
          "type": "bytes8"
        },
        {
          "name": "",
          "type": "address"
        },
        {
          "name": "",
          "type": "string"
        },
        {
          "name": "",
          "type": "string"
        },
        {
          "name": "",
          "type": "uint8"
        },
        {
          "name": "",
          "type": "uint256"
        }
      ],
      "payable": false,
      "stateMutability": "view",
      "type": "function"
    },
    {
      "constant": true,
      "inputs": [],
      "name": "nameFactoryAddress",
      "outputs": [
        {
          "name": "",
          "type": "address"
        }
      ],
      "payable": false,
      "stateMutability": "view",
      "type": "function"
    },
    {
      "constant": false,
      "inputs": [
        {
          "name": "denominationName",
          "type": "bytes8"
        },
        {
          "name": "denominationAddress",
          "type": "address"
        }
      ],
      "name": "addDenomination",
      "outputs": [
        {
          "name": "",
          "type": "bool"
        }
      ],
      "payable": false,
      "stateMutability": "nonpayable",
      "type": "function"
    },
    {
      "constant": true,
      "inputs": [],
      "name": "getBaseDenomination",
      "outputs": [
        {
          "name": "",
          "type": "bytes8"
        },
        {
          "name": "",
          "type": "address"
        },
        {
          "name": "",
          "type": "string"
        },
        {
          "name": "",
          "type": "string"
        },
        {
          "name": "",
          "type": "uint8"
        },
        {
          "name": "",
          "type": "uint256"
        }
      ],
      "payable": false,
      "stateMutability": "view",
      "type": "function"
    },
    {
      "constant": false,
      "inputs": [
        {
          "name": "_theAO",
          "type": "address"
        }
      ],
      "name": "transferOwnership",
      "outputs": [],
      "payable": false,
      "stateMutability": "nonpayable",
      "type": "function"
    },
    {
      "inputs": [
        {
          "name": "_nameFactoryAddress",
          "type": "address"
        },
        {
          "name": "_nameTAOPositionAddress",
          "type": "address"
        }
      ],
      "payable": false,
      "stateMutability": "nonpayable",
      "type": "constructor"
    },
    {
      "anonymous": false,
      "inputs": [
        {
          "indexed": true,
          "name": "nameId",
          "type": "address"
        },
        {
          "indexed": true,
          "name": "exchangeId",
          "type": "bytes32"
        },
        {
          "indexed": false,
          "name": "amount",
          "type": "uint256"
        },
        {
          "indexed": false,
          "name": "fromDenominationAddress",
          "type": "address"
        },
        {
          "indexed": false,
          "name": "fromDenominationSymbol",
          "type": "string"
        },
        {
          "indexed": false,
          "name": "toDenominationAddress",
          "type": "address"
        },
        {
          "indexed": false,
          "name": "toDenominationSymbol",
          "type": "string"
        }
      ],
      "name": "ExchangeDenomination",
      "type": "event"
    }
  ],
  "bytecode": "0x60806040523480156200001157600080fd5b506040516040806200305a833981018060405260408110156200003357600080fd5b50805160209091015160008054600160a060020a031916331790558181620000648264010000000062000082810204565b620000788164010000000062000187810204565b5050505062000282565b600054600154604080517ff66afcac000000000000000000000000000000000000000000000000000000008152336004820152600160a060020a0393841660248201529290911660448301525173__AOLibrary_____________________________9163f66afcac916064808301926020929190829003018186803b1580156200010b57600080fd5b505af415801562000120573d6000803e3d6000fd5b505050506040513d60208110156200013757600080fd5b505115156200014557600080fd5b600160a060020a03811615156200015b57600080fd5b60058054600160a060020a03909216600160a060020a0319928316811790915560068054909216179055565b600054600154604080517ff66afcac000000000000000000000000000000000000000000000000000000008152336004820152600160a060020a0393841660248201529290911660448301525173__AOLibrary_____________________________9163f66afcac916064808301926020929190829003018186803b1580156200021057600080fd5b505af415801562000225573d6000803e3d6000fd5b505050506040513d60208110156200023c57600080fd5b505115156200024a57600080fd5b600160a060020a03811615156200026057600080fd5b60018054600160a060020a031916600160a060020a0392909216919091179055565b612dc880620002926000396000f3fe608060405234801561001057600080fd5b506004361061013b5760003560e060020a9004806390358f5d116100bc578063a9b6b38e11610080578063a9b6b38e146106e6578063aa25c744146106ee578063bc40620614610715578063c1e527751461071d578063dc689d3c14610753578063f2fde38b1461075b5761013b565b806390358f5d146104fa578063932fd99f146105215780639b19251a146106725780639d28d1d014610698578063a46a891e146106a05761013b565b80635768f84d116101035780635768f84d146103705780635cfaf2ef146103785780635d9907911461039e5780636e0069241461049f5780638c924361146104d45761013b565b8063217db8e8146101405780633d9f923b14610185578063446ea599146101cf5780634ef033f01461031c57806353d6fd5914610340575b600080fd5b6101736004803603606081101561015657600080fd5b5080359060208101359060400135600160c060020a031916610781565b60408051918252519081900360200190f35b6101bb6004803603604081101561019b57600080fd5b508035600160c060020a0319169060200135600160a060020a0316610ac1565b604080519115158252519081900360200190f35b6101ec600480360360208110156101e557600080fd5b5035610ea1565b6040518087600160a060020a0316600160a060020a0316815260200186600160a060020a0316600160a060020a0316815260200185600160a060020a0316600160a060020a031681526020018060200180602001848152602001838103835286818151815260200191508051906020019080838360005b8381101561027b578181015183820152602001610263565b50505050905090810190601f1680156102a85780820380516001836020036101000a031916815260200191505b50838103825285518152855160209182019187019080838360005b838110156102db5781810151838201526020016102c3565b50505050905090810190601f1680156103085780820380516001836020036101000a031916815260200191505b509850505050505050505060405180910390f35b6103246110f2565b60408051600160a060020a039092168252519081900360200190f35b61036e6004803603604081101561035657600080fd5b50600160a060020a0381351690602001351515611101565b005b6101736111ea565b61036e6004803603602081101561038e57600080fd5b5035600160a060020a03166111f0565b6103bb600480360360208110156103b457600080fd5b50356112dd565b6040518087600160c060020a031916600160c060020a031916815260200186600160a060020a0316600160a060020a0316815260200180602001806020018560ff1660ff168152602001848152602001838103835287818151815260200191508051906020019080838360005b83811015610440578181015183820152602001610428565b50505050905090810190601f16801561046d5780820380516001836020036101000a031916815260200191505b5083810382528651815286516020918201918801908083836000838110156102db5781810151838201526020016102c3565b61036e600480360360608110156104b557600080fd5b50803590600160c060020a0319602082013581169160400135166115e0565b61036e600480360360208110156104ea57600080fd5b5035600160a060020a0316611dd8565b6101bb6004803603602081101561051057600080fd5b5035600160c060020a031916611ecf565b61053e6004803603602081101561053757600080fd5b5035611f84565b6040518089600160c060020a031916600160c060020a031916815260200188600160a060020a0316600160a060020a0316815260200187815260200186815260200180602001806020018560ff1660ff168152602001848152602001838103835287818151815260200191508051906020019080838360005b838110156105cf5781810151838201526020016105b7565b50505050905090810190601f1680156105fc5780820380516001836020036101000a031916815260200191505b50838103825286518152865160209182019188019080838360005b8381101561062f578181015183820152602001610617565b50505050905090810190601f16801561065c5780820380516001836020036101000a031916815260200191505b509a505050505050505050505060405180910390f35b6101bb6004803603602081101561068857600080fd5b5035600160a060020a0316612357565b61017361236c565b6106cd600480360360408110156106b657600080fd5b5080359060200135600160c060020a031916612372565b6040805192835260208301919091528051918290030190f35b610324612573565b6103bb6004803603602081101561070457600080fd5b5035600160c060020a031916612582565b6103246128ea565b6101bb6004803603604081101561073357600080fd5b508035600160c060020a0319169060200135600160a060020a03166128f9565b6103bb612bd6565b61036e6004803603602081101561077157600080fd5b5035600160a060020a0316612c0d565b6040805160e060020a6390358f5d028152600160c060020a0319831660048201529051600091849130916390358f5d916024808301926020929190829003018186803b1580156107d057600080fd5b505afa1580156107e4573d6000803e3d6000fd5b505050506040513d60208110156107fa57600080fd5b50518015610812575060008511806108125750600081115b15610ab45761081f612d57565b50600160c060020a031983811660009081526008602090815260408083205483526007825280832081518083018352905460c060020a81029095168152604060020a909404600160a060020a031684830181905281517fdb9d28d500000000000000000000000000000000000000000000000000000000815260048101879052915190939273__AOLibrary_____________________________9263db9d28d59260248083019392829003018186803b1580156108db57600080fd5b505af41580156108ef573d6000803e3d6000fd5b505050506040513d602081101561090557600080fd5b5051604080517f313ce5670000000000000000000000000000000000000000000000000000000081529051919250600160a060020a0384169163313ce56791600480820192602092909190829003018186803b15801561096457600080fd5b505afa158015610978573d6000803e3d6000fd5b505050506040513d602081101561098e57600080fd5b505160ff90811690821611156109a357600080fd5b6000610a2083600160a060020a0316630aa245466040518163ffffffff1660e060020a02815260040160206040518083038186803b1580156109e457600080fd5b505afa1580156109f8573d6000803e3d6000fd5b505050506040513d6020811015610a0e57600080fd5b50518a90600a0a63ffffffff612cfa16565b905082600160a060020a031663313ce5676040518163ffffffff1660e060020a02815260040160206040518083038186803b158015610a5e57600080fd5b505afa158015610a72573d6000803e3d6000fd5b505050506040513d6020811015610a8857600080fd5b505160ff161515610a9857600094505b610aa8818663ffffffff612d2316565b95505050505050610aba565b60009150505b9392505050565b600080546001546040805160e260020a633d9abf2b028152336004820152600160a060020a0393841660248201529290911660448301525173__AOLibrary_____________________________9163f66afcac916064808301926020929190829003018186803b158015610b3457600080fd5b505af4158015610b48573d6000803e3d6000fd5b505050506040513d6020811015610b5e57600080fd5b50511515610b6b57600080fd5b6040805160e060020a6390358f5d028152600160c060020a0319851660048201529051849130916390358f5d91602480820192602092909190829003018186803b158015610bb857600080fd5b505afa158015610bcc573d6000803e3d6000fd5b505050506040513d6020811015610be257600080fd5b50511515610bef57600080fd5b600160a060020a0383161515610c0457600080fd5b600160c060020a03198416600090815260086020526040902054836001821115610d2c57600019820160009081526007602090815260409182902054825160e160020a63055122a30281529251604060020a909104600160a060020a0316928392630aa2454692600480840193829003018186803b158015610c8557600080fd5b505afa158015610c99573d6000803e3d6000fd5b505050506040513d6020811015610caf57600080fd5b50516040805160e160020a63055122a30281529051600160a060020a03851691630aa24546916004808301926020929190829003018186803b158015610cf457600080fd5b505afa158015610d08573d6000803e3d6000fd5b505050506040513d6020811015610d1e57600080fd5b505111610d2a57600080fd5b505b600354821015610e385760035460009081526007602090815260409182902054825160e160020a63055122a30281529251604060020a909104600160a060020a0316928392630aa2454692600480840193829003018186803b158015610d9157600080fd5b505afa158015610da5573d6000803e3d6000fd5b505050506040513d6020811015610dbb57600080fd5b50516040805160e160020a63055122a30281529051600160a060020a03851691630aa24546916004808301926020929190829003018186803b158015610e0057600080fd5b505afa158015610e14573d6000803e3d6000fd5b505050506040513d6020811015610e2a57600080fd5b505110610e3657600080fd5b505b5050600160c060020a031984166000908152600860209081526040808320548352600790915290208054600160a060020a038516604060020a027bffffffffffffffffffffffffffffffffffffffff000000000000000019909116179055600191505092915050565b6000818152600a602052604081205481908190606090819083908110610ec657600080fd5b610ece612d6e565b506000878152600a6020908152604080832054835260098252808320815160a081018352815481526001820154600160a060020a0390811694820185905260028301548116828501819052600384015490911660608301819052600493840154608084015284517f95d89b41000000000000000000000000000000000000000000000000000000008152945192969194909385936395d89b419383830193909290829003018186803b158015610f8357600080fd5b505afa158015610f97573d6000803e3d6000fd5b505050506040513d6000823e601f3d908101601f191682016040526020811015610fc057600080fd5b810190808051640100000000811115610fd857600080fd5b82016020810184811115610feb57600080fd5b815164010000000081118282018710171561100557600080fd5b50509291905050508460600151600160a060020a03166395d89b416040518163ffffffff1660e060020a02815260040160006040518083038186803b15801561104d57600080fd5b505afa158015611061573d6000803e3d6000fd5b505050506040513d6000823e601f3d908101601f19168201604052602081101561108a57600080fd5b8101908080516401000000008111156110a257600080fd5b820160208101848111156110b557600080fd5b81516401000000008111828201871017156110cf57600080fd5b505060809890980151969f959e50939c50919a5094985092965090945050505050565b600154600160a060020a031681565b6000546001546040805160e260020a633d9abf2b028152336004820152600160a060020a0393841660248201529290911660448301525173__AOLibrary_____________________________9163f66afcac916064808301926020929190829003018186803b15801561117357600080fd5b505af4158015611187573d6000803e3d6000fd5b505050506040513d602081101561119d57600080fd5b505115156111aa57600080fd5b600160a060020a03821615156111bf57600080fd5b600160a060020a03919091166000908152600260205260409020805460ff1916911515919091179055565b60035481565b6000546001546040805160e260020a633d9abf2b028152336004820152600160a060020a0393841660248201529290911660448301525173__AOLibrary_____________________________9163f66afcac916064808301926020929190829003018186803b15801561126257600080fd5b505af4158015611276573d6000803e3d6000fd5b505050506040513d602081101561128c57600080fd5b5051151561129957600080fd5b600160a060020a03811615156112ae57600080fd5b6001805473ffffffffffffffffffffffffffffffffffffffff1916600160a060020a0392909216919091179055565b6000806060806000806000871180156112f857506003548711155b151561130357600080fd5b600087815260076020526040902054604060020a9004600160a060020a0316151561132d57600080fd5b6000878152600760205260408082205481517f06fdde030000000000000000000000000000000000000000000000000000000081529151600160a060020a03604060020a8304169360c060020a90920292849283926306fdde03926004808201939291829003018186803b1580156113a457600080fd5b505afa1580156113b8573d6000803e3d6000fd5b505050506040513d6000823e601f3d908101601f1916820160405260208110156113e157600080fd5b8101908080516401000000008111156113f957600080fd5b8201602081018481111561140c57600080fd5b815164010000000081118282018710171561142657600080fd5b505092919050505083600160a060020a03166395d89b416040518163ffffffff1660e060020a02815260040160006040518083038186803b15801561146a57600080fd5b505afa15801561147e573d6000803e3d6000fd5b505050506040513d6000823e601f3d908101601f1916820160405260208110156114a757600080fd5b8101908080516401000000008111156114bf57600080fd5b820160208101848111156114d257600080fd5b81516401000000008111828201871017156114ec57600080fd5b505092919050505084600160a060020a031663313ce5676040518163ffffffff1660e060020a02815260040160206040518083038186803b15801561153057600080fd5b505afa158015611544573d6000803e3d6000fd5b505050506040513d602081101561155a57600080fd5b50516040805160e160020a63055122a30281529051600160a060020a03881691630aa24546916004808301926020929190829003018186803b15801561159f57600080fd5b505afa1580156115b3573d6000803e3d6000fd5b505050506040513d60208110156115c957600080fd5b5051949d939c50919a509850965090945092505050565b6040805160e060020a6390358f5d028152600160c060020a0319841660048201529051839130916390358f5d91602480820192602092909190829003018186803b15801561162d57600080fd5b505afa158015611641573d6000803e3d6000fd5b505050506040513d602081101561165757600080fd5b5051151561166457600080fd5b6040805160e060020a6390358f5d028152600160c060020a0319841660048201529051839130916390358f5d91602480820192602092909190829003018186803b1580156116b157600080fd5b505afa1580156116c5573d6000803e3d6000fd5b505050506040513d60208110156116db57600080fd5b505115156116e857600080fd5b600654604080517f029b7d530000000000000000000000000000000000000000000000000000000081523360048201529051600092600160a060020a03169163029b7d53916024808301926020929190829003018186803b15801561174c57600080fd5b505afa158015611760573d6000803e3d6000fd5b505050506040513d602081101561177657600080fd5b50519050600160a060020a038116151561178f57600080fd5b6000861161179c57600080fd5b6117a4612d57565b50600160c060020a03198581166000908152600860209081526040808320548352600782529182902082518084019093525460c060020a81029093168252604060020a909204600160a060020a031691810191909152611802612d57565b50600160c060020a031980861660009081526008602090815260408083205483526007825280832081518083018352905460c060020a81029095168152600160a060020a03604060020a90950485168184018190528684015183517fb1e19d450000000000000000000000000000000000000000000000000000000081528988166004820152602481018f905293519296909591949086169363b1e19d459360448083019491928390030190829087803b1580156118bf57600080fd5b505af11580156118d3573d6000803e3d6000fd5b505050506040513d60208110156118e957600080fd5b505115156118f657600080fd5b80600160a060020a03166340c10f19868c6040518363ffffffff1660e060020a0281526004018083600160a060020a0316600160a060020a0316815260200182815260200192505050602060405180830381600087803b15801561195957600080fd5b505af115801561196d573d6000803e3d6000fd5b505050506040513d602081101561198357600080fd5b5051151561199057600080fd5b600460008154809291906001019190505550600030866004546040516020018084600160a060020a0316600160a060020a03166c0100000000000000000000000002815260140183600160a060020a0316600160a060020a03166c010000000000000000000000000281526014018281526020019350505050604051602081830303815290604052805190602001209050600454600a60008381526020019081526020016000208190555060006009600060045481526020019081526020016000209050818160000181905550868160010160006101000a815481600160a060020a030219169083600160a060020a0316021790555085602001518160020160006101000a815481600160a060020a030219169083600160a060020a0316021790555084602001518160030160006101000a815481600160a060020a030219169083600160a060020a031602179055508b81600401819055508187600160a060020a03167f82cf2552454b8d1e8c4cdb9c621ef4e6cb79e8614fa8044ce1903ae97eb46ff38e89602001518a60200151600160a060020a03166395d89b416040518163ffffffff1660e060020a02815260040160006040518083038186803b158015611b5b57600080fd5b505afa158015611b6f573d6000803e3d6000fd5b505050506040513d6000823e601f3d908101601f191682016040526020811015611b9857600080fd5b810190808051640100000000811115611bb057600080fd5b82016020810184811115611bc357600080fd5b8151640100000000811182820187101715611bdd57600080fd5b50509291905050508a602001518b60200151600160a060020a03166395d89b416040518163ffffffff1660e060020a02815260040160006040518083038186803b158015611c2a57600080fd5b505afa158015611c3e573d6000803e3d6000fd5b505050506040513d6000823e601f3d908101601f191682016040526020811015611c6757600080fd5b810190808051640100000000811115611c7f57600080fd5b82016020810184811115611c9257600080fd5b8151640100000000811182820187101715611cac57600080fd5b50509291905050506040518086815260200185600160a060020a0316600160a060020a031681526020018060200184600160a060020a0316600160a060020a0316815260200180602001838103835286818151815260200191508051906020019080838360005b83811015611d2b578181015183820152602001611d13565b50505050905090810190601f168015611d585780820380516001836020036101000a031916815260200191505b50838103825284518152845160209182019186019080838360005b83811015611d8b578181015183820152602001611d73565b50505050905090810190601f168015611db85780820380516001836020036101000a031916815260200191505b5097505050505050505060405180910390a3505050505050505050505050565b6000546001546040805160e260020a633d9abf2b028152336004820152600160a060020a0393841660248201529290911660448301525173__AOLibrary_____________________________9163f66afcac916064808301926020929190829003018186803b158015611e4a57600080fd5b505af4158015611e5e573d6000803e3d6000fd5b505050506040513d6020811015611e7457600080fd5b50511515611e8157600080fd5b600160a060020a0381161515611e9657600080fd5b60058054600160a060020a0390921673ffffffffffffffffffffffffffffffffffffffff19928316811790915560068054909216179055565b60007fff000000000000000000000000000000000000000000000000000000000000007f010000000000000000000000000000000000000000000000000000000000000083831a021615801590611f3d5750600160c060020a03198216600090815260086020526040812054115b8015611f7e5750600160c060020a0319821660009081526008602090815260408083205483526007909152902054604060020a9004600160a060020a031615155b92915050565b60008060008060608060008060008060008060035490505b600081111561202157611fad612d57565b5060008181526007602090815260409182902082518084019093525460c060020a8102600160c060020a031916808452604060020a909104600160a060020a031691830191909152612000908f90612372565b909550935060008511156120175781925050612021565b5060001901611f9c565b5060008111801561203457506003548111155b151561203f57600080fd5b600083118061204e5750600082115b151561205957600080fd5b600081815260076020526040902054604060020a9004600160a060020a0316151561208357600080fd5b6000818152600760205260408082205481517f06fdde030000000000000000000000000000000000000000000000000000000081529151600160a060020a03604060020a8304169360c060020a9092029284928892889285926306fdde0392600480840193829003018186803b1580156120fc57600080fd5b505afa158015612110573d6000803e3d6000fd5b505050506040513d6000823e601f3d908101601f19168201604052602081101561213957600080fd5b81019080805164010000000081111561215157600080fd5b8201602081018481111561216457600080fd5b815164010000000081118282018710171561217e57600080fd5b505092919050505085600160a060020a03166395d89b416040518163ffffffff1660e060020a02815260040160006040518083038186803b1580156121c257600080fd5b505afa1580156121d6573d6000803e3d6000fd5b505050506040513d6000823e601f3d908101601f1916820160405260208110156121ff57600080fd5b81019080805164010000000081111561221757600080fd5b8201602081018481111561222a57600080fd5b815164010000000081118282018710171561224457600080fd5b505092919050505086600160a060020a031663313ce5676040518163ffffffff1660e060020a02815260040160206040518083038186803b15801561228857600080fd5b505afa15801561229c573d6000803e3d6000fd5b505050506040513d60208110156122b257600080fd5b50516040805160e160020a63055122a30281529051600160a060020a038a1691630aa24546916004808301926020929190829003018186803b1580156122f757600080fd5b505afa15801561230b573d6000803e3d6000fd5b505050506040513d602081101561232157600080fd5b81019080805190602001909291905050508393508292509b509b509b509b509b509b509b509b5050505050919395975091939597565b60026020526000908152604090205460ff1681565b60045481565b6040805160e060020a6390358f5d028152600160c060020a0319831660048201529051600091829130916390358f5d916024808301926020929190829003018186803b1580156123c157600080fd5b505afa1580156123d5573d6000803e3d6000fd5b505050506040513d60208110156123eb57600080fd5b505115612565576123fa612d57565b50600160c060020a031983811660009081526008602090815260408083205483526007825280832081518083018352905460c060020a81029095168152604060020a909404600160a060020a0316848301819052815160e160020a63055122a302815291519093926124c7928592630aa2454692600480840193919291829003018186803b15801561248b57600080fd5b505afa15801561249f573d6000803e3d6000fd5b505050506040513d60208110156124b557600080fd5b50518890600a0a63ffffffff612d3016565b9050600061255661254984600160a060020a0316630aa245466040518163ffffffff1660e060020a02815260040160206040518083038186803b15801561250d57600080fd5b505afa158015612521573d6000803e3d6000fd5b505050506040513d602081101561253757600080fd5b50518490600a0a63ffffffff612cfa16565b899063ffffffff612d4516565b91955090935061256c92505050565b5060009050805b9250929050565b600054600160a060020a031681565b6000806060806000808630600160a060020a03166390358f5d826040518263ffffffff1660e060020a0281526004018082600160c060020a031916600160c060020a031916815260200191505060206040518083038186803b1580156125e757600080fd5b505afa1580156125fb573d6000803e3d6000fd5b505050506040513d602081101561261157600080fd5b5051151561261e57600080fd5b600160c060020a03198816600090815260086020908152604080832054835260079091528082205481517f06fdde030000000000000000000000000000000000000000000000000000000081529151604060020a8204600160a060020a03169360c060020a90920292849283926306fdde03926004808201939291829003018186803b1580156126ad57600080fd5b505afa1580156126c1573d6000803e3d6000fd5b505050506040513d6000823e601f3d908101601f1916820160405260208110156126ea57600080fd5b81019080805164010000000081111561270257600080fd5b8201602081018481111561271557600080fd5b815164010000000081118282018710171561272f57600080fd5b505092919050505083600160a060020a03166395d89b416040518163ffffffff1660e060020a02815260040160006040518083038186803b15801561277357600080fd5b505afa158015612787573d6000803e3d6000fd5b505050506040513d6000823e601f3d908101601f1916820160405260208110156127b057600080fd5b8101908080516401000000008111156127c857600080fd5b820160208101848111156127db57600080fd5b81516401000000008111828201871017156127f557600080fd5b505092919050505084600160a060020a031663313ce5676040518163ffffffff1660e060020a02815260040160206040518083038186803b15801561283957600080fd5b505afa15801561284d573d6000803e3d6000fd5b505050506040513d602081101561286357600080fd5b50516040805160e160020a63055122a30281529051600160a060020a03881691630aa24546916004808301926020929190829003018186803b1580156128a857600080fd5b505afa1580156128bc573d6000803e3d6000fd5b505050506040513d60208110156128d257600080fd5b5051949e939d50919b50995097509095509350505050565b600554600160a060020a031681565b600080546001546040805160e260020a633d9abf2b028152336004820152600160a060020a0393841660248201529290911660448301525173__AOLibrary_____________________________9163f66afcac916064808301926020929190829003018186803b15801561296c57600080fd5b505af4158015612980573d6000803e3d6000fd5b505050506040513d602081101561299657600080fd5b505115156129a357600080fd5b7fff000000000000000000000000000000000000000000000000000000000000007f0100000000000000000000000000000000000000000000000000000000000000600085901a021615156129f757600080fd5b600160a060020a0382161515612a0c57600080fd5b600160c060020a0319831660009081526008602052604090205415612a3057600080fd5b600380546001908101918290551015612b4e576003546000190160009081526007602090815260409182902054825160e160020a63055122a30281529251604060020a909104600160a060020a03169285928492630aa24546926004808201939291829003018186803b158015612aa657600080fd5b505afa158015612aba573d6000803e3d6000fd5b505050506040513d6020811015612ad057600080fd5b50516040805160e160020a63055122a30281529051600160a060020a03841691630aa24546916004808301926020929190829003018186803b158015612b1557600080fd5b505afa158015612b29573d6000803e3d6000fd5b505050506040513d6020811015612b3f57600080fd5b505111612b4b57600080fd5b50505b50600380546000908152600760209081526040808320805467ffffffffffffffff191660c060020a88041790558354835280832080547bffffffffffffffffffffffffffffffffffffffff00000000000000001916604060020a600160a060020a038816021790559254600160c060020a031986168352600890915291902055600192915050565b6000806060806000806000600354111515612bf057600080fd5b612bfa60016112dd565b949b939a50919850965094509092509050565b6000546001546040805160e260020a633d9abf2b028152336004820152600160a060020a0393841660248201529290911660448301525173__AOLibrary_____________________________9163f66afcac916064808301926020929190829003018186803b158015612c7f57600080fd5b505af4158015612c93573d6000803e3d6000fd5b505050506040513d6020811015612ca957600080fd5b50511515612cb657600080fd5b600160a060020a0381161515612ccb57600080fd5b6000805473ffffffffffffffffffffffffffffffffffffffff1916600160a060020a0392909216919091179055565b6000821515612d0b57506000611f7e565b50818102818382811515612d1b57fe5b0414611f7e57fe5b81810182811015611f7e57fe5b60008183811515612d3d57fe5b049392505050565b600082821115612d5157fe5b50900390565b604080518082019091526000808252602082015290565b6040805160a0810182526000808252602082018190529181018290526060810182905260808101919091529056fea165627a7a7230582047b08543f30eb5d306ceee622f1f930647471045ddfb91e8d936f2ae96fc13720029",
  "source": "pragma solidity ^0.5.4;\n\nimport './TAOCurrencyTreasury.sol';\n\n/**\n * @title LogosTreasury\n *\n * The purpose of this contract is to list all of the valid denominations of Logos and do the conversion between denominations\n */\ncontract LogosTreasury is TAOCurrencyTreasury {\n\t/**\n\t * @dev Constructor function\n\t */\n\tconstructor(address _nameFactoryAddress, address _nameTAOPositionAddress)\n\t\tTAOCurrencyTreasury(_nameFactoryAddress, _nameTAOPositionAddress) public {}\n}\n",
  "sourcePath": "/usr/local/ao-contracts/contracts/LogosTreasury.sol",
  "compiler": {
    "name": "solc",
    "version": "0.5.4+commit.9549d8ff.Emscripten.clang"
  },
  "schemaVersion": "3.0.2",
  "updatedAt": "2019-03-21T02:41:21.014Z",
  "devdoc": {
    "methods": {
      "addDenomination(bytes8,address)": {
        "details": "The AO adds denomination and the contract address associated with it",
        "params": {
          "denominationAddress": "The address of the denomination TAOCurrency",
          "denominationName": "The name of the denomination, i.e ao, kilo, mega, etc."
        },
        "return": "true on success"
      },
      "constructor": {
        "details": "Constructor function"
      },
      "exchangeDenomination(uint256,bytes8,bytes8)": {
        "details": "exchange `amount` TAOCurrency from `fromDenominationName` denomination to TAOCurrency in `toDenominationName` denomination",
        "params": {
          "amount": "The amount of TAOCurrency to exchange",
          "fromDenominationName": "The origin denomination",
          "toDenominationName": "The target denomination"
        }
      },
      "fromBase(uint256,bytes8)": {
        "details": "convert TAOCurrency from base denomination to `denominationName` denomination,\tin this case it's similar to web3.fromWei() functionality",
        "params": {
          "denominationName": "bytes8 name of the target TAOCurrency denomination",
          "integerAmount": "uint256 of the base amount to be converted"
        },
        "return": "uint256 of the converted integer amount in target denominationuint256 of the converted fraction amount in target denomination"
      },
      "getBaseDenomination()": {
        "details": "Get base denomination info",
        "return": "the denomination short namethe denomination addressthe denomination public namethe denomination symbolthe denomination num of decimalsthe denomination multiplier (power of ten)"
      },
      "getDenominationByIndex(uint256)": {
        "details": "Get denomination info by index",
        "params": {
          "index": "The index to be queried"
        },
        "return": "the denomination short namethe denomination addressthe denomination public namethe denomination symbolthe denomination num of decimalsthe denomination multiplier (power of ten)"
      },
      "getDenominationByName(bytes8)": {
        "details": "Get denomination info based on name",
        "params": {
          "denominationName": "The name to be queried"
        },
        "return": "the denomination short namethe denomination addressthe denomination public namethe denomination symbolthe denomination num of decimalsthe denomination multiplier (power of ten)"
      },
      "getDenominationExchangeById(bytes32)": {
        "details": "Get DenominationExchange information given an exchange ID",
        "params": {
          "_exchangeId": "The exchange ID to query"
        },
        "return": "The name ID that performed the exchangeThe from denomination addressThe to denomination addressThe from denomination symbolThe to denomination symbolThe amount exchanged"
      },
      "isDenominationExist(bytes8)": {
        "details": "Check if denomination exist given a name",
        "params": {
          "denominationName": "The denomination name to check"
        },
        "return": "true if yes. false otherwise"
      },
      "setNameFactoryAddress(address)": {
        "details": "The AO set the NameFactory Address",
        "params": {
          "_nameFactoryAddress": "The address of NameFactory"
        }
      },
      "setNameTAOPositionAddress(address)": {
        "details": "The AO set the NameTAOPosition Address",
        "params": {
          "_nameTAOPositionAddress": "The address of NameTAOPosition"
        }
      },
      "setWhitelist(address,bool)": {
        "details": "Whitelist `_account` address to transact on behalf of others",
        "params": {
          "_account": "The address to whitelist",
          "_whitelist": "Either to whitelist or not"
        }
      },
      "toBase(uint256,uint256,bytes8)": {
        "details": "convert TAOCurrency from `denominationName` denomination to base denomination,\tin this case it's similar to web3.toWei() functionality\t * Example: 9.1 Kilo should be entered as 9 integerAmount and 100 fractionAmount 9.02 Kilo should be entered as 9 integerAmount and 20 fractionAmount 9.001 Kilo should be entered as 9 integerAmount and 1 fractionAmount",
        "params": {
          "denominationName": "bytes8 name of the TAOCurrency denomination",
          "fractionAmount": "uint256 of the frational amount to be converted",
          "integerAmount": "uint256 of the integer amount to be converted"
        },
        "return": "uint256 converted amount in base denomination from target denomination"
      },
      "toHighestDenomination(uint256)": {
        "details": "Return the highest possible denomination given a base amount",
        "params": {
          "amount": "The amount to be converted"
        },
        "return": "the denomination short namethe denomination addressthe integer amount at the denomination levelthe fraction amount at the denomination levelthe denomination public namethe denomination symbolthe denomination num of decimalsthe denomination multiplier (power of ten)"
      },
      "transferOwnership(address)": {
        "details": "Transfer ownership of The AO to new address",
        "params": {
          "_theAO": "The new address to be transferred"
        }
      },
      "updateDenomination(bytes8,address)": {
        "details": "The AO updates denomination address or activates/deactivates the denomination",
        "params": {
          "denominationAddress": "The address of the denomination TAOCurrency",
          "denominationName": "The name of the denomination, i.e ao, kilo, mega, etc."
        },
        "return": "true on success"
      }
    },
    "title": "LogosTreasury * The purpose of this contract is to list all of the valid denominations of Logos and do the conversion between denominations"
  },
  "userdoc": {
    "methods": {}
  }
}