{
  "contractName": "Logos",
  "abi": [
    {
      "constant": true,
      "inputs": [],
      "name": "name",
      "outputs": [
        {
          "name": "",
          "type": "string"
        }
      ],
      "payable": false,
      "stateMutability": "view",
      "type": "function"
    },
    {
      "constant": true,
      "inputs": [],
      "name": "powerOfTen",
      "outputs": [
        {
          "name": "",
          "type": "uint256"
        }
      ],
      "payable": false,
      "stateMutability": "view",
      "type": "function"
    },
    {
      "constant": true,
      "inputs": [],
      "name": "totalSupply",
      "outputs": [
        {
          "name": "",
          "type": "uint256"
        }
      ],
      "payable": false,
      "stateMutability": "view",
      "type": "function"
    },
    {
      "constant": false,
      "inputs": [
        {
          "name": "_from",
          "type": "address"
        },
        {
          "name": "_to",
          "type": "address"
        },
        {
          "name": "_value",
          "type": "uint256"
        }
      ],
      "name": "transferFrom",
      "outputs": [
        {
          "name": "",
          "type": "bool"
        }
      ],
      "payable": false,
      "stateMutability": "nonpayable",
      "type": "function"
    },
    {
      "constant": true,
      "inputs": [],
      "name": "decimals",
      "outputs": [
        {
          "name": "",
          "type": "uint8"
        }
      ],
      "payable": false,
      "stateMutability": "view",
      "type": "function"
    },
    {
      "constant": false,
      "inputs": [
        {
          "name": "target",
          "type": "address"
        },
        {
          "name": "mintedAmount",
          "type": "uint256"
        }
      ],
      "name": "mint",
      "outputs": [
        {
          "name": "",
          "type": "bool"
        }
      ],
      "payable": false,
      "stateMutability": "nonpayable",
      "type": "function"
    },
    {
      "constant": true,
      "inputs": [],
      "name": "nameTAOPositionAddress",
      "outputs": [
        {
          "name": "",
          "type": "address"
        }
      ],
      "payable": false,
      "stateMutability": "view",
      "type": "function"
    },
    {
      "constant": false,
      "inputs": [
        {
          "name": "_account",
          "type": "address"
        },
        {
          "name": "_whitelist",
          "type": "bool"
        }
      ],
      "name": "setWhitelist",
      "outputs": [],
      "payable": false,
      "stateMutability": "nonpayable",
      "type": "function"
    },
    {
      "constant": true,
      "inputs": [
        {
          "name": "",
          "type": "address"
        }
      ],
      "name": "totalAdvocatedTAOLogos",
      "outputs": [
        {
          "name": "",
          "type": "uint256"
        }
      ],
      "payable": false,
      "stateMutability": "view",
      "type": "function"
    },
    {
      "constant": true,
      "inputs": [
        {
          "name": "",
          "type": "address"
        }
      ],
      "name": "balanceOf",
      "outputs": [
        {
          "name": "",
          "type": "uint256"
        }
      ],
      "payable": false,
      "stateMutability": "view",
      "type": "function"
    },
    {
      "constant": true,
      "inputs": [
        {
          "name": "",
          "type": "address"
        }
      ],
      "name": "totalPositionOnOthers",
      "outputs": [
        {
          "name": "",
          "type": "uint256"
        }
      ],
      "payable": false,
      "stateMutability": "view",
      "type": "function"
    },
    {
      "constant": true,
      "inputs": [
        {
          "name": "",
          "type": "address"
        }
      ],
      "name": "positionFromOthers",
      "outputs": [
        {
          "name": "",
          "type": "uint256"
        }
      ],
      "payable": false,
      "stateMutability": "view",
      "type": "function"
    },
    {
      "constant": true,
      "inputs": [
        {
          "name": "",
          "type": "address"
        },
        {
          "name": "",
          "type": "address"
        }
      ],
      "name": "positionOnOthers",
      "outputs": [
        {
          "name": "",
          "type": "uint256"
        }
      ],
      "payable": false,
      "stateMutability": "view",
      "type": "function"
    },
    {
      "constant": true,
      "inputs": [
        {
          "name": "",
          "type": "address"
        },
        {
          "name": "",
          "type": "address"
        }
      ],
      "name": "advocatedTAOLogos",
      "outputs": [
        {
          "name": "",
          "type": "uint256"
        }
      ],
      "payable": false,
      "stateMutability": "view",
      "type": "function"
    },
    {
      "constant": true,
      "inputs": [],
      "name": "symbol",
      "outputs": [
        {
          "name": "",
          "type": "string"
        }
      ],
      "payable": false,
      "stateMutability": "view",
      "type": "function"
    },
    {
      "constant": true,
      "inputs": [
        {
          "name": "",
          "type": "address"
        }
      ],
      "name": "whitelist",
      "outputs": [
        {
          "name": "",
          "type": "bool"
        }
      ],
      "payable": false,
      "stateMutability": "view",
      "type": "function"
    },
    {
      "constant": true,
      "inputs": [],
      "name": "nameAccountRecoveryAddress",
      "outputs": [
        {
          "name": "",
          "type": "address"
        }
      ],
      "payable": false,
      "stateMutability": "view",
      "type": "function"
    },
    {
      "constant": true,
      "inputs": [],
      "name": "theAO",
      "outputs": [
        {
          "name": "",
          "type": "address"
        }
      ],
      "payable": false,
      "stateMutability": "view",
      "type": "function"
    },
    {
      "constant": false,
      "inputs": [
        {
          "name": "_from",
          "type": "address"
        },
        {
          "name": "_value",
          "type": "uint256"
        }
      ],
      "name": "whitelistBurnFrom",
      "outputs": [
        {
          "name": "success",
          "type": "bool"
        }
      ],
      "payable": false,
      "stateMutability": "nonpayable",
      "type": "function"
    },
    {
      "constant": true,
      "inputs": [],
      "name": "nameFactoryAddress",
      "outputs": [
        {
          "name": "",
          "type": "address"
        }
      ],
      "payable": false,
      "stateMutability": "view",
      "type": "function"
    },
    {
      "constant": false,
      "inputs": [
        {
          "name": "_theAO",
          "type": "address"
        }
      ],
      "name": "transferOwnership",
      "outputs": [],
      "payable": false,
      "stateMutability": "nonpayable",
      "type": "function"
    },
    {
      "inputs": [
        {
          "name": "_name",
          "type": "string"
        },
        {
          "name": "_symbol",
          "type": "string"
        },
        {
          "name": "_nameFactoryAddress",
          "type": "address"
        },
        {
          "name": "_nameTAOPositionAddress",
          "type": "address"
        }
      ],
      "payable": false,
      "stateMutability": "nonpayable",
      "type": "constructor"
    },
    {
      "anonymous": false,
      "inputs": [
        {
          "indexed": true,
          "name": "from",
          "type": "address"
        },
        {
          "indexed": true,
          "name": "to",
          "type": "address"
        },
        {
          "indexed": false,
          "name": "value",
          "type": "uint256"
        }
      ],
      "name": "PositionFrom",
      "type": "event"
    },
    {
      "anonymous": false,
      "inputs": [
        {
          "indexed": true,
          "name": "from",
          "type": "address"
        },
        {
          "indexed": true,
          "name": "to",
          "type": "address"
        },
        {
          "indexed": false,
          "name": "value",
          "type": "uint256"
        }
      ],
      "name": "UnpositionFrom",
      "type": "event"
    },
    {
      "anonymous": false,
      "inputs": [
        {
          "indexed": true,
          "name": "nameId",
          "type": "address"
        },
        {
          "indexed": true,
          "name": "taoId",
          "type": "address"
        },
        {
          "indexed": false,
          "name": "amount",
          "type": "uint256"
        }
      ],
      "name": "AddAdvocatedTAOLogos",
      "type": "event"
    },
    {
      "anonymous": false,
      "inputs": [
        {
          "indexed": true,
          "name": "fromNameId",
          "type": "address"
        },
        {
          "indexed": true,
          "name": "toNameId",
          "type": "address"
        },
        {
          "indexed": true,
          "name": "taoId",
          "type": "address"
        },
        {
          "indexed": false,
          "name": "amount",
          "type": "uint256"
        }
      ],
      "name": "TransferAdvocatedTAOLogos",
      "type": "event"
    },
    {
      "anonymous": false,
      "inputs": [
        {
          "indexed": true,
          "name": "from",
          "type": "address"
        },
        {
          "indexed": true,
          "name": "to",
          "type": "address"
        },
        {
          "indexed": false,
          "name": "value",
          "type": "uint256"
        }
      ],
      "name": "Transfer",
      "type": "event"
    },
    {
      "anonymous": false,
      "inputs": [
        {
          "indexed": true,
          "name": "from",
          "type": "address"
        },
        {
          "indexed": false,
          "name": "value",
          "type": "uint256"
        }
      ],
      "name": "Burn",
      "type": "event"
    },
    {
      "constant": false,
      "inputs": [
        {
          "name": "_nameFactoryAddress",
          "type": "address"
        }
      ],
      "name": "setNameFactoryAddress",
      "outputs": [],
      "payable": false,
      "stateMutability": "nonpayable",
      "type": "function"
    },
    {
      "constant": false,
      "inputs": [
        {
          "name": "_nameTAOPositionAddress",
          "type": "address"
        }
      ],
      "name": "setNameTAOPositionAddress",
      "outputs": [],
      "payable": false,
      "stateMutability": "nonpayable",
      "type": "function"
    },
    {
      "constant": false,
      "inputs": [
        {
          "name": "_nameAccountRecoveryAddress",
          "type": "address"
        }
      ],
      "name": "setNameAccountRecoveryAddress",
      "outputs": [],
      "payable": false,
      "stateMutability": "nonpayable",
      "type": "function"
    },
    {
      "constant": true,
      "inputs": [
        {
          "name": "_target",
          "type": "address"
        }
      ],
      "name": "sumBalanceOf",
      "outputs": [
        {
          "name": "",
          "type": "uint256"
        }
      ],
      "payable": false,
      "stateMutability": "view",
      "type": "function"
    },
    {
      "constant": true,
      "inputs": [
        {
          "name": "_sender",
          "type": "address"
        }
      ],
      "name": "availableToPositionAmount",
      "outputs": [
        {
          "name": "",
          "type": "uint256"
        }
      ],
      "payable": false,
      "stateMutability": "view",
      "type": "function"
    },
    {
      "constant": false,
      "inputs": [
        {
          "name": "_from",
          "type": "address"
        },
        {
          "name": "_to",
          "type": "address"
        },
        {
          "name": "_value",
          "type": "uint256"
        }
      ],
      "name": "positionFrom",
      "outputs": [
        {
          "name": "",
          "type": "bool"
        }
      ],
      "payable": false,
      "stateMutability": "nonpayable",
      "type": "function"
    },
    {
      "constant": false,
      "inputs": [
        {
          "name": "_from",
          "type": "address"
        },
        {
          "name": "_to",
          "type": "address"
        },
        {
          "name": "_value",
          "type": "uint256"
        }
      ],
      "name": "unpositionFrom",
      "outputs": [
        {
          "name": "",
          "type": "bool"
        }
      ],
      "payable": false,
      "stateMutability": "nonpayable",
      "type": "function"
    },
    {
      "constant": false,
      "inputs": [
        {
          "name": "_taoId",
          "type": "address"
        },
        {
          "name": "_amount",
          "type": "uint256"
        }
      ],
      "name": "addAdvocatedTAOLogos",
      "outputs": [
        {
          "name": "",
          "type": "bool"
        }
      ],
      "payable": false,
      "stateMutability": "nonpayable",
      "type": "function"
    },
    {
      "constant": false,
      "inputs": [
        {
          "name": "_fromNameId",
          "type": "address"
        },
        {
          "name": "_taoId",
          "type": "address"
        }
      ],
      "name": "transferAdvocatedTAOLogos",
      "outputs": [
        {
          "name": "",
          "type": "bool"
        }
      ],
      "payable": false,
      "stateMutability": "nonpayable",
      "type": "function"
    }
  ],
  "bytecode": "0x60806040523480156200001157600080fd5b5060405162002b6638038062002b66833981018060405260808110156200003757600080fd5b8101908080516401000000008111156200005057600080fd5b820160208101848111156200006457600080fd5b81516401000000008111828201871017156200007f57600080fd5b505092919060200180516401000000008111156200009c57600080fd5b82016020810184811115620000b057600080fd5b8151640100000000811182820187101715620000cb57600080fd5b5050602080830151604090930151600080546001600160a01b0319163317905586519295509293508591859184916200010b916003919086019062000374565b5081516200012190600490602085019062000374565b5060006006556005805460ff19169055620001438162000172602090811b901c565b50505062000157826200027360201b60201c565b62000168816200017260201b60201c565b5050505062000419565b600054600154604080517ff66afcac0000000000000000000000000000000000000000000000000000000081523360048201526001600160a01b0393841660248201529290911660448301525173__AOLibrary_____________________________9163f66afcac916064808301926020929190829003018186803b158015620001fb57600080fd5b505af415801562000210573d6000803e3d6000fd5b505050506040513d60208110156200022757600080fd5b50516200023357600080fd5b6001600160a01b0381166200024757600080fd5b600180546001600160a01b039092166001600160a01b03199283168117909155600c8054909216179055565b600054600154604080517ff66afcac0000000000000000000000000000000000000000000000000000000081523360048201526001600160a01b0393841660248201529290911660448301525173__AOLibrary_____________________________9163f66afcac916064808301926020929190829003018186803b158015620002fc57600080fd5b505af415801562000311573d6000803e3d6000fd5b505050506040513d60208110156200032857600080fd5b50516200033457600080fd5b6001600160a01b0381166200034857600080fd5b600980546001600160a01b039092166001600160a01b03199283168117909155600b8054909216179055565b828054600181600116156101000203166002900490600052602060002090601f016020900481019282601f10620003b757805160ff1916838001178555620003e7565b82800160010185558215620003e7579182015b82811115620003e7578251825591602001919060010190620003ca565b50620003f5929150620003f9565b5090565b6200041691905b80821115620003f5576000815560010162000400565b90565b61273d80620004296000396000f3fe608060405234801561001057600080fd5b50600436106101da5760003560e01c80638c924361116101045780639b6503d3116100a2578063b7f6e74d11610071578063b7f6e74d146105dc578063bc40620614610612578063d5e45a831461061a578063f2fde38b14610650576101da565b80639b6503d31461057a578063a4e5fad2146105a0578063a9b6b38e146105a8578063b1e19d45146105b0576101da565b806395d89b41116100de57806395d89b41146104fa57806397fe5ea314610502578063985e4cd01461052e5780639b19251a14610554576101da565b80638c92436114610478578063918b7aa11461049e5780639579b1a8146104cc576101da565b80634ef033f01161017c57806370a082311161014b57806370a08231146103d857806372f19b8f146103fe5780637787f39c1461042457806381c3af291461044a576101da565b80634ef033f01461033a57806353d6fd591461035e5780635cfaf2ef1461038c5780636387b19a146103b2576101da565b80631dfde2bd116101b85780631dfde2bd1461027e57806323b872dd146102a6578063313ce567146102f057806340c10f191461030e576101da565b806306fdde03146101df5780630aa245461461025c57806318160ddd14610276575b600080fd5b6101e7610676565b6040805160208082528351818301528351919283929083019185019080838360005b83811015610221578181015183820152602001610209565b50505050905090810190601f16801561024e5780820380516001836020036101000a031916815260200191505b509250505060405180910390f35b610264610704565b60408051918252519081900360200190f35b61026461070a565b6102a46004803603602081101561029457600080fd5b50356001600160a01b0316610710565b005b6102dc600480360360608110156102bc57600080fd5b506001600160a01b038135811691602081013590911690604001356107f9565b604080519115158252519081900360200190f35b6102f8610a7f565b6040805160ff9092168252519081900360200190f35b6102dc6004803603604081101561032457600080fd5b506001600160a01b038135169060200135610a88565b610342610be4565b604080516001600160a01b039092168252519081900360200190f35b6102a46004803603604081101561037457600080fd5b506001600160a01b0381351690602001351515610bf3565b6102a4600480360360208110156103a257600080fd5b50356001600160a01b0316610cd8565b610264600480360360208110156103c857600080fd5b50356001600160a01b0316610dbe565b610264600480360360208110156103ee57600080fd5b50356001600160a01b0316610dd0565b6102646004803603602081101561041457600080fd5b50356001600160a01b0316610de2565b6102646004803603602081101561043a57600080fd5b50356001600160a01b0316610df4565b6102646004803603604081101561046057600080fd5b506001600160a01b0381358116916020013516610e06565b6102a46004803603602081101561048e57600080fd5b50356001600160a01b0316610e23565b610264600480360360408110156104b457600080fd5b506001600160a01b0381358116916020013516610f09565b6102dc600480360360408110156104e257600080fd5b506001600160a01b0381358116916020013516610f26565b6101e761128b565b6102dc6004803603604081101561051857600080fd5b506001600160a01b0381351690602001356112e6565b6102646004803603602081101561054457600080fd5b50356001600160a01b031661150e565b6102dc6004803603602081101561056a57600080fd5b50356001600160a01b03166115fb565b6102646004803603602081101561059057600080fd5b50356001600160a01b0316611610565b6103426116dd565b6103426116ec565b6102dc600480360360408110156105c657600080fd5b506001600160a01b0381351690602001356116fb565b6102dc600480360360608110156105f257600080fd5b506001600160a01b03813581169160208101359091169060400135611909565b610342611e42565b6102dc6004803603606081101561063057600080fd5b506001600160a01b03813581169160208101359091169060400135611e51565b6102a46004803603602081101561066657600080fd5b50356001600160a01b03166123a1565b6003805460408051602060026001851615610100026000190190941693909304601f810184900484028201840190925281815292918301828280156106fc5780601f106106d1576101008083540402835291602001916106fc565b820191906000526020600020905b8154815290600101906020018083116106df57829003601f168201915b505050505081565b60065481565b60075481565b60005460015460408051600160e21b633d9abf2b0281523360048201526001600160a01b0393841660248201529290911660448301525173__AOLibrary_____________________________9163f66afcac916064808301926020929190829003018186803b15801561078257600080fd5b505af4158015610796573d6000803e3d6000fd5b505050506040513d60208110156107ac57600080fd5b50516107b757600080fd5b6001600160a01b0381166107ca57600080fd5b600a80546001600160a01b03199081166001600160a01b039384161791829055600d8054929093169116179055565b3360009081526002602052604081205460ff16151560011461081a57600080fd5b8373__AOLibrary_____________________________632d706a34826040518263ffffffff1660e01b815260040180826001600160a01b03166001600160a01b0316815260200191505060206040518083038186803b15801561087c57600080fd5b505af4158015610890573d6000803e3d6000fd5b505050506040513d60208110156108a657600080fd5b505180610938575060408051600160e21b630bf295050281526001600160a01b0383166004820152905173__AOLibrary_____________________________91632fca5414916024808301926020929190829003018186803b15801561090b57600080fd5b505af415801561091f573d6000803e3d6000fd5b505050506040513d602081101561093557600080fd5b50515b61094157600080fd5b8373__AOLibrary_____________________________632d706a34826040518263ffffffff1660e01b815260040180826001600160a01b03166001600160a01b0316815260200191505060206040518083038186803b1580156109a357600080fd5b505af41580156109b7573d6000803e3d6000fd5b505050506040513d60208110156109cd57600080fd5b505180610a5f575060408051600160e21b630bf295050281526001600160a01b0383166004820152905173__AOLibrary_____________________________91632fca5414916024808301926020929190829003018186803b158015610a3257600080fd5b505af4158015610a46573d6000803e3d6000fd5b505050506040513d6020811015610a5c57600080fd5b50515b610a6857600080fd5b610a7386868661247d565b50600195945050505050565b60055460ff1681565b3360009081526002602052604081205460ff161515600114610aa957600080fd5b8273__AOLibrary_____________________________632d706a34826040518263ffffffff1660e01b815260040180826001600160a01b03166001600160a01b0316815260200191505060206040518083038186803b158015610b0b57600080fd5b505af4158015610b1f573d6000803e3d6000fd5b505050506040513d6020811015610b3557600080fd5b505180610bc7575060408051600160e21b630bf295050281526001600160a01b0383166004820152905173__AOLibrary_____________________________91632fca5414916024808301926020929190829003018186803b158015610b9a57600080fd5b505af4158015610bae573d6000803e3d6000fd5b505050506040513d6020811015610bc457600080fd5b50515b610bd057600080fd5b610bda8484612618565b5060019392505050565b6001546001600160a01b031681565b60005460015460408051600160e21b633d9abf2b0281523360048201526001600160a01b0393841660248201529290911660448301525173__AOLibrary_____________________________9163f66afcac916064808301926020929190829003018186803b158015610c6557600080fd5b505af4158015610c79573d6000803e3d6000fd5b505050506040513d6020811015610c8f57600080fd5b5051610c9a57600080fd5b6001600160a01b038216610cad57600080fd5b6001600160a01b03919091166000908152600260205260409020805460ff1916911515919091179055565b60005460015460408051600160e21b633d9abf2b0281523360048201526001600160a01b0393841660248201529290911660448301525173__AOLibrary_____________________________9163f66afcac916064808301926020929190829003018186803b158015610d4a57600080fd5b505af4158015610d5e573d6000803e3d6000fd5b505050506040513d6020811015610d7457600080fd5b5051610d7f57600080fd5b6001600160a01b038116610d9257600080fd5b600180546001600160a01b039092166001600160a01b03199283168117909155600c8054909216179055565b60126020526000908152604090205481565b60086020526000908152604090205481565b60106020526000908152604090205481565b600e6020526000908152604090205481565b600f60209081526000928352604080842090915290825290205481565b60005460015460408051600160e21b633d9abf2b0281523360048201526001600160a01b0393841660248201529290911660448301525173__AOLibrary_____________________________9163f66afcac916064808301926020929190829003018186803b158015610e9557600080fd5b505af4158015610ea9573d6000803e3d6000fd5b505050506040513d6020811015610ebf57600080fd5b5051610eca57600080fd5b6001600160a01b038116610edd57600080fd5b600980546001600160a01b039092166001600160a01b03199283168117909155600b8054909216179055565b601160209081526000928352604080842090915290825290205481565b3360009081526002602052604081205460ff161515600114610f4757600080fd5b8273__AOLibrary_____________________________632d706a34826040518263ffffffff1660e01b815260040180826001600160a01b03166001600160a01b0316815260200191505060206040518083038186803b158015610fa957600080fd5b505af4158015610fbd573d6000803e3d6000fd5b505050506040513d6020811015610fd357600080fd5b5051610fde57600080fd5b8273__AOLibrary_____________________________632fca5414826040518263ffffffff1660e01b815260040180826001600160a01b03166001600160a01b0316815260200191505060206040518083038186803b15801561104057600080fd5b505af4158015611054573d6000803e3d6000fd5b505050506040513d602081101561106a57600080fd5b505161107557600080fd5b600c5460408051600160e01b63fd6f41370281526001600160a01b0387811660048301529151600093929092169163fd6f413791602480820192602092909190829003018186803b1580156110c957600080fd5b505afa1580156110dd573d6000803e3d6000fd5b505050506040513d60208110156110f357600080fd5b505190506001600160a01b03868116908216141561111057600080fd5b6001600160a01b038087166000818152601160209081526040808320948a16835293815283822054928252601290529190912054101561114f57600080fd5b6001600160a01b038087166000818152601160209081526040808320948a168352938152838220805490839055928252601290529190912054611198908263ffffffff6126ec16565b6001600160a01b03808916600090815260126020908152604080832094909455858316825260118152838220928a1682529190915220546111df908263ffffffff6126fe16565b6001600160a01b038084166000818152601160209081526040808320948c168352938152838220949094559081526012909252902054611225908263ffffffff6126fe16565b6001600160a01b0380841660008181526012602090815260409182902094909455805185815290518a84169492938c16927f8b4613e05fc7236bc627dca2e0fadecd777022c54627f6a5212ccc5ac02e7158928290030190a45060019695505050505050565b6004805460408051602060026001851615610100026000190190941693909304601f810184900484028201840190925281815292918301828280156106fc5780601f106106d1576101008083540402835291602001916106fc565b3360009081526002602052604081205460ff16151560011461130757600080fd5b8273__AOLibrary_____________________________632fca5414826040518263ffffffff1660e01b815260040180826001600160a01b03166001600160a01b0316815260200191505060206040518083038186803b15801561136957600080fd5b505af415801561137d573d6000803e3d6000fd5b505050506040513d602081101561139357600080fd5b505161139e57600080fd5b600083116113ab57600080fd5b600c5460408051600160e01b63fd6f41370281526001600160a01b0387811660048301529151600093929092169163fd6f413791602480820192602092909190829003018186803b1580156113ff57600080fd5b505afa158015611413573d6000803e3d6000fd5b505050506040513d602081101561142957600080fd5b50516001600160a01b038082166000908152601160209081526040808320938a1683529290522054909150611464908563ffffffff6126fe16565b6001600160a01b038083166000818152601160209081526040808320948b1683529381528382209490945590815260129092529020546114aa908563ffffffff6126fe16565b6001600160a01b0380831660008181526012602090815260409182902094909455805188815290519289169391927ffbb909cfb1cebddaa90dc958d2d9d96a684866cda33bfd311711fd76f88def0a929181900390910190a3506001949350505050565b60008173__AOLibrary_____________________________632d706a34826040518263ffffffff1660e01b815260040180826001600160a01b03166001600160a01b0316815260200191505060206040518083038186803b15801561157257600080fd5b505af4158015611586573d6000803e3d6000fd5b505050506040513d602081101561159c57600080fd5b50516115a757600080fd5b6001600160a01b038316600090815260126020908152604080832054600e83528184205460089093529220546115f492916115e8919063ffffffff6126fe16565b9063ffffffff6126fe16565b9392505050565b60026020526000908152604090205460ff1681565b60008173__AOLibrary_____________________________632d706a34826040518263ffffffff1660e01b815260040180826001600160a01b03166001600160a01b0316815260200191505060206040518083038186803b15801561167457600080fd5b505af4158015611688573d6000803e3d6000fd5b505050506040513d602081101561169e57600080fd5b50516116a957600080fd5b6001600160a01b0383166000908152601060209081526040808320546008909252909120546115f49163ffffffff6126ec16565b600a546001600160a01b031681565b6000546001600160a01b031681565b3360009081526002602052604081205460ff16151560011461171c57600080fd5b8273__AOLibrary_____________________________632d706a34826040518263ffffffff1660e01b815260040180826001600160a01b03166001600160a01b0316815260200191505060206040518083038186803b15801561177e57600080fd5b505af4158015611792573d6000803e3d6000fd5b505050506040513d60208110156117a857600080fd5b50518061183a575060408051600160e21b630bf295050281526001600160a01b0383166004820152905173__AOLibrary_____________________________91632fca5414916024808301926020929190829003018186803b15801561180d57600080fd5b505af4158015611821573d6000803e3d6000fd5b505050506040513d602081101561183757600080fd5b50515b61184357600080fd5b6001600160a01b03841660009081526008602052604090205483111561186857600080fd5b6001600160a01b038416600090815260086020526040902054611891908463ffffffff6126ec16565b6001600160a01b0385166000908152600860205260409020556007546118bd908463ffffffff6126ec16565b6007556040805184815290516001600160a01b038616917fcc16f5dbb4873280815c1ee09dbd06736cffcc184412cf7a71a0fdb75d397ca5919081900360200190a25060019392505050565b60008373__AOLibrary_____________________________632d706a34826040518263ffffffff1660e01b815260040180826001600160a01b03166001600160a01b0316815260200191505060206040518083038186803b15801561196d57600080fd5b505af4158015611981573d6000803e3d6000fd5b505050506040513d602081101561199757600080fd5b50516119a257600080fd5b8373__AOLibrary_____________________________632d706a34826040518263ffffffff1660e01b815260040180826001600160a01b03166001600160a01b0316815260200191505060206040518083038186803b158015611a0457600080fd5b505af4158015611a18573d6000803e3d6000fd5b505050506040513d6020811015611a2e57600080fd5b5051611a3957600080fd5b600d5460408051600160e01b633ebc2ab30281526001600160a01b03808a166004830152915189939290921691633ebc2ab391602480820192602092909190829003018186803b158015611a8c57600080fd5b505afa158015611aa0573d6000803e3d6000fd5b505050506040513d6020811015611ab657600080fd5b505115611ac257600080fd5b600d5460408051600160e01b633ebc2ab30281526001600160a01b03808a166004830152915189939290921691633ebc2ab391602480820192602092909190829003018186803b158015611b1557600080fd5b505afa158015611b29573d6000803e3d6000fd5b505050506040513d6020811015611b3f57600080fd5b505115611b4b57600080fd5b600c5460408051600160e01b6371ce52ed0281523360048201526001600160a01b03808c16602483015291518b9392909216916371ce52ed91604480820192602092909190829003018186803b158015611ba457600080fd5b505afa158015611bb8573d6000803e3d6000fd5b505050506040513d6020811015611bce57600080fd5b5051611bd957600080fd5b600d54600b5460408051600160e01b63029b7d5302815233600482015290516001600160a01b0393841693633ebc2ab393169163029b7d53916024808301926020929190829003018186803b158015611c3157600080fd5b505afa158015611c45573d6000803e3d6000fd5b505050506040513d6020811015611c5b57600080fd5b50516040805163ffffffff841660e01b81526001600160a01b039092166004830152516024808301926020929190829003018186803b158015611c9d57600080fd5b505afa158015611cb1573d6000803e3d6000fd5b505050506040513d6020811015611cc757600080fd5b505115611cd357600080fd5b876001600160a01b0316896001600160a01b03161415611cf257600080fd5b6001600160a01b03808a166000908152600f60209081526040808320938c1683529290522054871115611d2457600080fd5b6001600160a01b03808a166000908152600f60209081526040808320938c1683529290522054611d5a908863ffffffff6126ec16565b6001600160a01b03808b166000818152600f60209081526040808320948e168352938152838220949094559081526010909252902054611da0908863ffffffff6126ec16565b6001600160a01b03808b16600090815260106020908152604080832094909455918b168152600e9091522054611ddc908863ffffffff6126ec16565b6001600160a01b03808a166000818152600e60209081526040918290209490945580518b815290519193928d16927f4062ffbe4dc631454bf05254af9c69f7be3ad81eea47c870de77ad1d5f60192b92918290030190a350600198975050505050505050565b6009546001600160a01b031681565b60008373__AOLibrary_____________________________632d706a34826040518263ffffffff1660e01b815260040180826001600160a01b03166001600160a01b0316815260200191505060206040518083038186803b158015611eb557600080fd5b505af4158015611ec9573d6000803e3d6000fd5b505050506040513d6020811015611edf57600080fd5b5051611eea57600080fd5b8373__AOLibrary_____________________________632d706a34826040518263ffffffff1660e01b815260040180826001600160a01b03166001600160a01b0316815260200191505060206040518083038186803b158015611f4c57600080fd5b505af4158015611f60573d6000803e3d6000fd5b505050506040513d6020811015611f7657600080fd5b5051611f8157600080fd5b600d5460408051600160e01b633ebc2ab30281526001600160a01b03808a166004830152915189939290921691633ebc2ab391602480820192602092909190829003018186803b158015611fd457600080fd5b505afa158015611fe8573d6000803e3d6000fd5b505050506040513d6020811015611ffe57600080fd5b50511561200a57600080fd5b600d5460408051600160e01b633ebc2ab30281526001600160a01b03808a166004830152915189939290921691633ebc2ab391602480820192602092909190829003018186803b15801561205d57600080fd5b505afa158015612071573d6000803e3d6000fd5b505050506040513d602081101561208757600080fd5b50511561209357600080fd5b600c5460408051600160e01b6371ce52ed0281523360048201526001600160a01b03808c16602483015291518b9392909216916371ce52ed91604480820192602092909190829003018186803b1580156120ec57600080fd5b505afa158015612100573d6000803e3d6000fd5b505050506040513d602081101561211657600080fd5b505161212157600080fd5b600d54600b5460408051600160e01b63029b7d5302815233600482015290516001600160a01b0393841693633ebc2ab393169163029b7d53916024808301926020929190829003018186803b15801561217957600080fd5b505afa15801561218d573d6000803e3d6000fd5b505050506040513d60208110156121a357600080fd5b50516040805163ffffffff841660e01b81526001600160a01b039092166004830152516024808301926020929190829003018186803b1580156121e557600080fd5b505afa1580156121f9573d6000803e3d6000fd5b505050506040513d602081101561220f57600080fd5b50511561221b57600080fd5b876001600160a01b0316896001600160a01b0316141561223a57600080fd5b866122448a611610565b101561224f57600080fd5b6001600160a01b0388166000908152600e6020526040902054612278818963ffffffff6126fe16565b101561228357600080fd5b6001600160a01b03808a166000908152600f60209081526040808320938c16835292905220546122b9908863ffffffff6126fe16565b6001600160a01b03808b166000818152600f60209081526040808320948e1683529381528382209490945590815260109092529020546122ff908863ffffffff6126fe16565b6001600160a01b03808b16600090815260106020908152604080832094909455918b168152600e909152205461233b908863ffffffff6126fe16565b6001600160a01b03808a166000818152600e60209081526040918290209490945580518b815290519193928d16927faa8842001e980c78016b1aeb01672b78a6e676667f9f43b8d3c78ac8b7233b6392918290030190a350600198975050505050505050565b60005460015460408051600160e21b633d9abf2b0281523360048201526001600160a01b0393841660248201529290911660448301525173__AOLibrary_____________________________9163f66afcac916064808301926020929190829003018186803b15801561241357600080fd5b505af4158015612427573d6000803e3d6000fd5b505050506040513d602081101561243d57600080fd5b505161244857600080fd5b6001600160a01b03811661245b57600080fd5b600080546001600160a01b0319166001600160a01b0392909216919091179055565b6001600160a01b03821661249057600080fd5b6001600160a01b0383166000908152600860205260409020548111156124b557600080fd5b6001600160a01b0382166000908152600860205260409020546124de818363ffffffff6126fe16565b10156124e957600080fd5b6001600160a01b03808316600090815260086020526040808220549286168252812054909161251e919063ffffffff6126fe16565b6001600160a01b03851660009081526008602052604090205490915061254a908363ffffffff6126ec16565b6001600160a01b03808616600090815260086020526040808220939093559085168152205461257f908363ffffffff6126fe16565b6001600160a01b0380851660008181526008602090815260409182902094909455805186815290519193928816927fddf252ad1be2c89b69c2b068fc378daa952ba7f163c4a11628f55a4df523b3ef92918290030190a36001600160a01b03808416600090815260086020526040808220549287168252902054829161260b919063ffffffff6126fe16565b1461261257fe5b50505050565b6001600160a01b038216600090815260086020526040902054612641908263ffffffff6126fe16565b6001600160a01b03831660009081526008602052604090205560075461266d908263ffffffff6126fe16565b60075560408051828152905130916000917fddf252ad1be2c89b69c2b068fc378daa952ba7f163c4a11628f55a4df523b3ef9181900360200190a36040805182815290516001600160a01b0384169130917fddf252ad1be2c89b69c2b068fc378daa952ba7f163c4a11628f55a4df523b3ef9181900360200190a35050565b6000828211156126f857fe5b50900390565b8181018281101561270b57fe5b9291505056fea165627a7a7230582060e0cb43687d77898508149d102693420c764f9412108269f1073af899c49a290029",
  "source": "pragma solidity >=0.5.4 <0.6.0;\n\nimport \"./TAOCurrency.sol\";\nimport \"./INameFactory.sol\";\nimport \"./INameTAOPosition.sol\";\nimport './INameAccountRecovery.sol';\n\ncontract Logos is TAOCurrency {\n\taddress public nameFactoryAddress;\n\taddress public nameAccountRecoveryAddress;\n\n\tINameFactory internal _nameFactory;\n\tINameTAOPosition internal _nameTAOPosition;\n\tINameAccountRecovery internal _nameAccountRecovery;\n\n\t// Mapping of a Name ID to the amount of Logos positioned by others to itself\n\t// address is the address of nameId, not the eth public address\n\tmapping (address => uint256) public positionFromOthers;\n\n\t// Mapping of Name ID to other Name ID and the amount of Logos positioned by itself\n\tmapping (address => mapping(address => uint256)) public positionOnOthers;\n\n\t// Mapping of a Name ID to the total amount of Logos positioned by itself on others\n\tmapping (address => uint256) public totalPositionOnOthers;\n\n\t// Mapping of Name ID to it's advocated TAO ID and the amount of Logos earned\n\tmapping (address => mapping(address => uint256)) public advocatedTAOLogos;\n\n\t// Mapping of a Name ID to the total amount of Logos earned from advocated TAO\n\tmapping (address => uint256) public totalAdvocatedTAOLogos;\n\n\t// Event broadcasted to public when `from` address position `value` Logos to `to`\n\tevent PositionFrom(address indexed from, address indexed to, uint256 value);\n\n\t// Event broadcasted to public when `from` address unposition `value` Logos from `to`\n\tevent UnpositionFrom(address indexed from, address indexed to, uint256 value);\n\n\t// Event broadcasted to public when `nameId` receives `amount` of Logos from advocating `taoId`\n\tevent AddAdvocatedTAOLogos(address indexed nameId, address indexed taoId, uint256 amount);\n\n\t// Event broadcasted to public when Logos from advocating `taoId` is transferred from `fromNameId` to `toNameId`\n\tevent TransferAdvocatedTAOLogos(address indexed fromNameId, address indexed toNameId, address indexed taoId, uint256 amount);\n\n\t/**\n\t * @dev Constructor function\n\t */\n\tconstructor(string memory _name, string memory _symbol, address _nameFactoryAddress, address _nameTAOPositionAddress)\n\t\tTAOCurrency(_name, _symbol, _nameTAOPositionAddress) public {\n\t\tsetNameFactoryAddress(_nameFactoryAddress);\n\t\tsetNameTAOPositionAddress(_nameTAOPositionAddress);\n\t}\n\n\t/**\n\t * @dev Check if `_taoId` is a TAO\n\t */\n\tmodifier isTAO(address _taoId) {\n\t\trequire (AOLibrary.isTAO(_taoId));\n\t\t_;\n\t}\n\n\t/**\n\t * @dev Check if `_nameId` is a Name\n\t */\n\tmodifier isName(address _nameId) {\n\t\trequire (AOLibrary.isName(_nameId));\n\t\t_;\n\t}\n\n\t/**\n\t * @dev Check if msg.sender is the current advocate of _id\n\t */\n\tmodifier onlyAdvocate(address _id) {\n\t\trequire (_nameTAOPosition.senderIsAdvocate(msg.sender, _id));\n\t\t_;\n\t}\n\n\t/**\n\t * @dev Only allowed if Name is not compromised\n\t */\n\tmodifier nameNotCompromised(address _id) {\n\t\trequire (!_nameAccountRecovery.isCompromised(_id));\n\t\t_;\n\t}\n\n\t/**\n\t * @dev Only allowed if sender's Name is not compromised\n\t */\n\tmodifier senderNameNotCompromised() {\n\t\trequire (!_nameAccountRecovery.isCompromised(_nameFactory.ethAddressToNameId(msg.sender)));\n\t\t_;\n\t}\n\n\t/***** THE AO ONLY METHODS *****/\n\t/**\n\t * @dev The AO sets NameFactory address\n\t * @param _nameFactoryAddress The address of NameFactory\n\t */\n\tfunction setNameFactoryAddress(address _nameFactoryAddress) public onlyTheAO {\n\t\trequire (_nameFactoryAddress != address(0));\n\t\tnameFactoryAddress = _nameFactoryAddress;\n\t\t_nameFactory = INameFactory(_nameFactoryAddress);\n\t}\n\n\t/**\n\t * @dev The AO set the NameTAOPosition Address\n\t * @param _nameTAOPositionAddress The address of NameTAOPosition\n\t */\n\tfunction setNameTAOPositionAddress(address _nameTAOPositionAddress) public onlyTheAO {\n\t\trequire (_nameTAOPositionAddress != address(0));\n\t\tnameTAOPositionAddress = _nameTAOPositionAddress;\n\t\t_nameTAOPosition = INameTAOPosition(_nameTAOPositionAddress);\n\t}\n\n\t/**\n\t * @dev The AO set the NameAccountRecovery Address\n\t * @param _nameAccountRecoveryAddress The address of NameAccountRecovery\n\t */\n\tfunction setNameAccountRecoveryAddress(address _nameAccountRecoveryAddress) public onlyTheAO {\n\t\trequire (_nameAccountRecoveryAddress != address(0));\n\t\tnameAccountRecoveryAddress = _nameAccountRecoveryAddress;\n\t\t_nameAccountRecovery = INameAccountRecovery(nameAccountRecoveryAddress);\n\t}\n\n\t/***** PUBLIC METHODS *****/\n\t/**\n\t * @dev Get the total sum of Logos for an address\n\t * @param _target The address to check\n\t * @return The total sum of Logos (own + positioned + advocated TAOs)\n\t */\n\tfunction sumBalanceOf(address _target) public isName(_target) view returns (uint256) {\n\t\treturn balanceOf[_target].add(positionFromOthers[_target]).add(totalAdvocatedTAOLogos[_target]);\n\t}\n\n\t/**\n\t * @dev Return the amount of Logos that are available to be positioned on other\n\t * @param _sender The sender address to check\n\t * @return The amount of Logos that are available to be positioned on other\n\t */\n\tfunction availableToPositionAmount(address _sender) public isName(_sender) view returns (uint256) {\n\t\treturn balanceOf[_sender].sub(totalPositionOnOthers[_sender]);\n\t}\n\n\t/**\n\t * @dev `_from` Name position `_value` Logos onto `_to` Name\n\t *\n\t * @param _from The address of the sender\n\t * @param _to The address of the recipient\n\t * @param _value the amount to position\n\t * @return true on success\n\t */\n\tfunction positionFrom(address _from, address _to, uint256 _value) public isName(_from) isName(_to) nameNotCompromised(_from) nameNotCompromised(_to) onlyAdvocate(_from) senderNameNotCompromised returns (bool) {\n\t\trequire (_from != _to);\t// Can't position Logos to itself\n\t\trequire (availableToPositionAmount(_from) >= _value); // should have enough balance to position\n\t\trequire (positionFromOthers[_to].add(_value) >= positionFromOthers[_to]); // check for overflows\n\n\t\tpositionOnOthers[_from][_to] = positionOnOthers[_from][_to].add(_value);\n\t\ttotalPositionOnOthers[_from] = totalPositionOnOthers[_from].add(_value);\n\t\tpositionFromOthers[_to] = positionFromOthers[_to].add(_value);\n\n\t\temit PositionFrom(_from, _to, _value);\n\t\treturn true;\n\t}\n\n\t/**\n\t * @dev `_from` Name unposition `_value` Logos from `_to` Name\n\t *\n\t * @param _from The address of the sender\n\t * @param _to The address of the recipient\n\t * @param _value the amount to unposition\n\t * @return true on success\n\t */\n\tfunction unpositionFrom(address _from, address _to, uint256 _value) public isName(_from) isName(_to) nameNotCompromised(_from) nameNotCompromised(_to) onlyAdvocate(_from) senderNameNotCompromised returns (bool) {\n\t\trequire (_from != _to);\t// Can't unposition Logos to itself\n\t\trequire (positionOnOthers[_from][_to] >= _value);\n\n\t\tpositionOnOthers[_from][_to] = positionOnOthers[_from][_to].sub(_value);\n\t\ttotalPositionOnOthers[_from] = totalPositionOnOthers[_from].sub(_value);\n\t\tpositionFromOthers[_to] = positionFromOthers[_to].sub(_value);\n\n\t\temit UnpositionFrom(_from, _to, _value);\n\t\treturn true;\n\t}\n\n\t/**\n\t * @dev Add `_amount` logos earned from advocating a TAO `_taoId` to its Advocate\n\t * @param _taoId The ID of the advocated TAO\n\t * @param _amount the amount to reward\n\t * @return true on success\n\t */\n\tfunction addAdvocatedTAOLogos(address _taoId, uint256 _amount) public inWhitelist isTAO(_taoId) returns (bool) {\n\t\trequire (_amount > 0);\n\t\taddress _nameId = _nameTAOPosition.getAdvocate(_taoId);\n\n\t\tadvocatedTAOLogos[_nameId][_taoId] = advocatedTAOLogos[_nameId][_taoId].add(_amount);\n\t\ttotalAdvocatedTAOLogos[_nameId] = totalAdvocatedTAOLogos[_nameId].add(_amount);\n\n\t\temit AddAdvocatedTAOLogos(_nameId, _taoId, _amount);\n\t\treturn true;\n\t}\n\n\t/**\n\t * @dev Transfer logos earned from advocating a TAO `_taoId` from `_fromNameId` to the Advocate of `_taoId`\n\t * @param _fromNameId The ID of the Name that sends the Logos\n\t * @param _taoId The ID of the advocated TAO\n\t * @return true on success\n\t */\n\tfunction transferAdvocatedTAOLogos(address _fromNameId, address _taoId) public inWhitelist isName(_fromNameId) isTAO(_taoId) returns (bool) {\n\t\taddress _toNameId = _nameTAOPosition.getAdvocate(_taoId);\n\t\trequire (_fromNameId != _toNameId);\n\t\trequire (totalAdvocatedTAOLogos[_fromNameId] >= advocatedTAOLogos[_fromNameId][_taoId]);\n\n\t\tuint256 _amount = advocatedTAOLogos[_fromNameId][_taoId];\n\t\tadvocatedTAOLogos[_fromNameId][_taoId] = 0;\n\t\ttotalAdvocatedTAOLogos[_fromNameId] = totalAdvocatedTAOLogos[_fromNameId].sub(_amount);\n\t\tadvocatedTAOLogos[_toNameId][_taoId] = advocatedTAOLogos[_toNameId][_taoId].add(_amount);\n\t\ttotalAdvocatedTAOLogos[_toNameId] = totalAdvocatedTAOLogos[_toNameId].add(_amount);\n\n\t\temit TransferAdvocatedTAOLogos(_fromNameId, _toNameId, _taoId, _amount);\n\t\treturn true;\n\t}\n}\n",
  "sourcePath": "/usr/local/ao-contracts/contracts/Logos.sol",
  "compiler": {
    "name": "solc",
    "version": "0.5.6+commit.b259423e.Emscripten.clang"
  },
  "schemaVersion": "3.0.2",
  "updatedAt": "2019-03-28T22:28:47.025Z",
  "devdoc": {
    "methods": {
      "addAdvocatedTAOLogos(address,uint256)": {
        "details": "Add `_amount` logos earned from advocating a TAO `_taoId` to its Advocate",
        "params": {
          "_amount": "the amount to reward",
          "_taoId": "The ID of the advocated TAO"
        },
        "return": "true on success"
      },
      "availableToPositionAmount(address)": {
        "details": "Return the amount of Logos that are available to be positioned on other",
        "params": {
          "_sender": "The sender address to check"
        },
        "return": "The amount of Logos that are available to be positioned on other"
      },
      "constructor": {
        "details": "Constructor function"
      },
      "mint(address,uint256)": {
        "details": "Create `mintedAmount` TAOCurrency and send it to `target`",
        "params": {
          "mintedAmount": "The amount of TAOCurrency it will receive",
          "target": "Address to receive TAOCurrency"
        },
        "return": "true on success"
      },
      "positionFrom(address,address,uint256)": {
        "details": "`_from` Name position `_value` Logos onto `_to` Name",
        "params": {
          "_from": "The address of the sender",
          "_to": "The address of the recipient",
          "_value": "the amount to position"
        },
        "return": "true on success"
      },
      "setNameAccountRecoveryAddress(address)": {
        "details": "The AO set the NameAccountRecovery Address",
        "params": {
          "_nameAccountRecoveryAddress": "The address of NameAccountRecovery"
        }
      },
      "setNameFactoryAddress(address)": {
        "details": "The AO sets NameFactory address",
        "params": {
          "_nameFactoryAddress": "The address of NameFactory"
        }
      },
      "setNameTAOPositionAddress(address)": {
        "details": "The AO set the NameTAOPosition Address",
        "params": {
          "_nameTAOPositionAddress": "The address of NameTAOPosition"
        }
      },
      "setWhitelist(address,bool)": {
        "details": "Whitelist `_account` address to transact on behalf of others",
        "params": {
          "_account": "The address to whitelist",
          "_whitelist": "Either to whitelist or not"
        }
      },
      "sumBalanceOf(address)": {
        "details": "Get the total sum of Logos for an address",
        "params": {
          "_target": "The address to check"
        },
        "return": "The total sum of Logos (own + positioned + advocated TAOs)"
      },
      "transferAdvocatedTAOLogos(address,address)": {
        "details": "Transfer logos earned from advocating a TAO `_taoId` from `_fromNameId` to the Advocate of `_taoId`",
        "params": {
          "_fromNameId": "The ID of the Name that sends the Logos",
          "_taoId": "The ID of the advocated TAO"
        },
        "return": "true on success"
      },
      "transferFrom(address,address,uint256)": {
        "details": "transfer TAOCurrency from other address\t * Send `_value` TAOCurrency to `_to` in behalf of `_from`",
        "params": {
          "_from": "The address of the sender",
          "_to": "The address of the recipient",
          "_value": "the amount to send"
        }
      },
      "transferOwnership(address)": {
        "details": "Transfer ownership of The AO to new address",
        "params": {
          "_theAO": "The new address to be transferred"
        }
      },
      "unpositionFrom(address,address,uint256)": {
        "details": "`_from` Name unposition `_value` Logos from `_to` Name",
        "params": {
          "_from": "The address of the sender",
          "_to": "The address of the recipient",
          "_value": "the amount to unposition"
        },
        "return": "true on success"
      },
      "whitelistBurnFrom(address,uint256)": {
        "details": "Whitelisted address remove `_value` TAOCurrency from the system irreversibly on behalf of `_from`.",
        "params": {
          "_from": "the address of the sender",
          "_value": "the amount of money to burn"
        }
      }
    }
  },
  "userdoc": {
    "methods": {}
  }
}