{
  "contractName": "Logos",
  "abi": [
    {
      "constant": true,
      "inputs": [],
      "name": "name",
      "outputs": [
        {
          "name": "",
          "type": "string"
        }
      ],
      "payable": false,
      "stateMutability": "view",
      "type": "function"
    },
    {
      "constant": true,
      "inputs": [],
      "name": "powerOfTen",
      "outputs": [
        {
          "name": "",
          "type": "uint256"
        }
      ],
      "payable": false,
      "stateMutability": "view",
      "type": "function"
    },
    {
      "constant": true,
      "inputs": [],
      "name": "totalSupply",
      "outputs": [
        {
          "name": "",
          "type": "uint256"
        }
      ],
      "payable": false,
      "stateMutability": "view",
      "type": "function"
    },
    {
      "constant": false,
      "inputs": [
        {
          "name": "_from",
          "type": "address"
        },
        {
          "name": "_to",
          "type": "address"
        },
        {
          "name": "_value",
          "type": "uint256"
        }
      ],
      "name": "transferFrom",
      "outputs": [
        {
          "name": "",
          "type": "bool"
        }
      ],
      "payable": false,
      "stateMutability": "nonpayable",
      "type": "function"
    },
    {
      "constant": true,
      "inputs": [],
      "name": "decimals",
      "outputs": [
        {
          "name": "",
          "type": "uint8"
        }
      ],
      "payable": false,
      "stateMutability": "view",
      "type": "function"
    },
    {
      "constant": false,
      "inputs": [
        {
          "name": "target",
          "type": "address"
        },
        {
          "name": "mintedAmount",
          "type": "uint256"
        }
      ],
      "name": "mint",
      "outputs": [
        {
          "name": "",
          "type": "bool"
        }
      ],
      "payable": false,
      "stateMutability": "nonpayable",
      "type": "function"
    },
    {
      "constant": true,
      "inputs": [],
      "name": "nameTAOPositionAddress",
      "outputs": [
        {
          "name": "",
          "type": "address"
        }
      ],
      "payable": false,
      "stateMutability": "view",
      "type": "function"
    },
    {
      "constant": false,
      "inputs": [
        {
          "name": "_account",
          "type": "address"
        },
        {
          "name": "_whitelist",
          "type": "bool"
        }
      ],
      "name": "setWhitelist",
      "outputs": [],
      "payable": false,
      "stateMutability": "nonpayable",
      "type": "function"
    },
    {
      "constant": true,
      "inputs": [
        {
          "name": "",
          "type": "address"
        }
      ],
      "name": "totalAdvocatedTAOLogos",
      "outputs": [
        {
          "name": "",
          "type": "uint256"
        }
      ],
      "payable": false,
      "stateMutability": "view",
      "type": "function"
    },
    {
      "constant": true,
      "inputs": [
        {
          "name": "",
          "type": "address"
        }
      ],
      "name": "balanceOf",
      "outputs": [
        {
          "name": "",
          "type": "uint256"
        }
      ],
      "payable": false,
      "stateMutability": "view",
      "type": "function"
    },
    {
      "constant": true,
      "inputs": [
        {
          "name": "",
          "type": "address"
        }
      ],
      "name": "totalPositionOnOthers",
      "outputs": [
        {
          "name": "",
          "type": "uint256"
        }
      ],
      "payable": false,
      "stateMutability": "view",
      "type": "function"
    },
    {
      "constant": true,
      "inputs": [
        {
          "name": "",
          "type": "address"
        }
      ],
      "name": "positionFromOthers",
      "outputs": [
        {
          "name": "",
          "type": "uint256"
        }
      ],
      "payable": false,
      "stateMutability": "view",
      "type": "function"
    },
    {
      "constant": true,
      "inputs": [
        {
          "name": "",
          "type": "address"
        },
        {
          "name": "",
          "type": "address"
        }
      ],
      "name": "positionOnOthers",
      "outputs": [
        {
          "name": "",
          "type": "uint256"
        }
      ],
      "payable": false,
      "stateMutability": "view",
      "type": "function"
    },
    {
      "constant": true,
      "inputs": [
        {
          "name": "",
          "type": "address"
        },
        {
          "name": "",
          "type": "address"
        }
      ],
      "name": "advocatedTAOLogos",
      "outputs": [
        {
          "name": "",
          "type": "uint256"
        }
      ],
      "payable": false,
      "stateMutability": "view",
      "type": "function"
    },
    {
      "constant": true,
      "inputs": [],
      "name": "symbol",
      "outputs": [
        {
          "name": "",
          "type": "string"
        }
      ],
      "payable": false,
      "stateMutability": "view",
      "type": "function"
    },
    {
      "constant": true,
      "inputs": [
        {
          "name": "",
          "type": "address"
        }
      ],
      "name": "whitelist",
      "outputs": [
        {
          "name": "",
          "type": "bool"
        }
      ],
      "payable": false,
      "stateMutability": "view",
      "type": "function"
    },
    {
      "constant": true,
      "inputs": [],
      "name": "nameAccountRecoveryAddress",
      "outputs": [
        {
          "name": "",
          "type": "address"
        }
      ],
      "payable": false,
      "stateMutability": "view",
      "type": "function"
    },
    {
      "constant": true,
      "inputs": [],
      "name": "theAO",
      "outputs": [
        {
          "name": "",
          "type": "address"
        }
      ],
      "payable": false,
      "stateMutability": "view",
      "type": "function"
    },
    {
      "constant": false,
      "inputs": [
        {
          "name": "_from",
          "type": "address"
        },
        {
          "name": "_value",
          "type": "uint256"
        }
      ],
      "name": "whitelistBurnFrom",
      "outputs": [
        {
          "name": "success",
          "type": "bool"
        }
      ],
      "payable": false,
      "stateMutability": "nonpayable",
      "type": "function"
    },
    {
      "constant": true,
      "inputs": [],
      "name": "nameFactoryAddress",
      "outputs": [
        {
          "name": "",
          "type": "address"
        }
      ],
      "payable": false,
      "stateMutability": "view",
      "type": "function"
    },
    {
      "constant": false,
      "inputs": [
        {
          "name": "_theAO",
          "type": "address"
        }
      ],
      "name": "transferOwnership",
      "outputs": [],
      "payable": false,
      "stateMutability": "nonpayable",
      "type": "function"
    },
    {
      "inputs": [
        {
          "name": "_name",
          "type": "string"
        },
        {
          "name": "_symbol",
          "type": "string"
        },
        {
          "name": "_nameFactoryAddress",
          "type": "address"
        },
        {
          "name": "_nameTAOPositionAddress",
          "type": "address"
        }
      ],
      "payable": false,
      "stateMutability": "nonpayable",
      "type": "constructor"
    },
    {
      "anonymous": false,
      "inputs": [
        {
          "indexed": true,
          "name": "from",
          "type": "address"
        },
        {
          "indexed": true,
          "name": "to",
          "type": "address"
        },
        {
          "indexed": false,
          "name": "value",
          "type": "uint256"
        }
      ],
      "name": "PositionFrom",
      "type": "event"
    },
    {
      "anonymous": false,
      "inputs": [
        {
          "indexed": true,
          "name": "from",
          "type": "address"
        },
        {
          "indexed": true,
          "name": "to",
          "type": "address"
        },
        {
          "indexed": false,
          "name": "value",
          "type": "uint256"
        }
      ],
      "name": "UnpositionFrom",
      "type": "event"
    },
    {
      "anonymous": false,
      "inputs": [
        {
          "indexed": true,
          "name": "nameId",
          "type": "address"
        },
        {
          "indexed": true,
          "name": "taoId",
          "type": "address"
        },
        {
          "indexed": false,
          "name": "amount",
          "type": "uint256"
        }
      ],
      "name": "AddAdvocatedTAOLogos",
      "type": "event"
    },
    {
      "anonymous": false,
      "inputs": [
        {
          "indexed": true,
          "name": "fromNameId",
          "type": "address"
        },
        {
          "indexed": true,
          "name": "toNameId",
          "type": "address"
        },
        {
          "indexed": true,
          "name": "taoId",
          "type": "address"
        },
        {
          "indexed": false,
          "name": "amount",
          "type": "uint256"
        }
      ],
      "name": "TransferAdvocatedTAOLogos",
      "type": "event"
    },
    {
      "anonymous": false,
      "inputs": [
        {
          "indexed": true,
          "name": "from",
          "type": "address"
        },
        {
          "indexed": true,
          "name": "to",
          "type": "address"
        },
        {
          "indexed": false,
          "name": "value",
          "type": "uint256"
        }
      ],
      "name": "Transfer",
      "type": "event"
    },
    {
      "anonymous": false,
      "inputs": [
        {
          "indexed": true,
          "name": "from",
          "type": "address"
        },
        {
          "indexed": false,
          "name": "value",
          "type": "uint256"
        }
      ],
      "name": "Burn",
      "type": "event"
    },
    {
      "constant": false,
      "inputs": [
        {
          "name": "_nameFactoryAddress",
          "type": "address"
        }
      ],
      "name": "setNameFactoryAddress",
      "outputs": [],
      "payable": false,
      "stateMutability": "nonpayable",
      "type": "function"
    },
    {
      "constant": false,
      "inputs": [
        {
          "name": "_nameTAOPositionAddress",
          "type": "address"
        }
      ],
      "name": "setNameTAOPositionAddress",
      "outputs": [],
      "payable": false,
      "stateMutability": "nonpayable",
      "type": "function"
    },
    {
      "constant": false,
      "inputs": [
        {
          "name": "_nameAccountRecoveryAddress",
          "type": "address"
        }
      ],
      "name": "setNameAccountRecoveryAddress",
      "outputs": [],
      "payable": false,
      "stateMutability": "nonpayable",
      "type": "function"
    },
    {
      "constant": true,
      "inputs": [
        {
          "name": "_target",
          "type": "address"
        }
      ],
      "name": "sumBalanceOf",
      "outputs": [
        {
          "name": "",
          "type": "uint256"
        }
      ],
      "payable": false,
      "stateMutability": "view",
      "type": "function"
    },
    {
      "constant": true,
      "inputs": [
        {
          "name": "_sender",
          "type": "address"
        }
      ],
      "name": "availableToPositionAmount",
      "outputs": [
        {
          "name": "",
          "type": "uint256"
        }
      ],
      "payable": false,
      "stateMutability": "view",
      "type": "function"
    },
    {
      "constant": false,
      "inputs": [
        {
          "name": "_from",
          "type": "address"
        },
        {
          "name": "_to",
          "type": "address"
        },
        {
          "name": "_value",
          "type": "uint256"
        }
      ],
      "name": "positionFrom",
      "outputs": [
        {
          "name": "",
          "type": "bool"
        }
      ],
      "payable": false,
      "stateMutability": "nonpayable",
      "type": "function"
    },
    {
      "constant": false,
      "inputs": [
        {
          "name": "_from",
          "type": "address"
        },
        {
          "name": "_to",
          "type": "address"
        },
        {
          "name": "_value",
          "type": "uint256"
        }
      ],
      "name": "unpositionFrom",
      "outputs": [
        {
          "name": "",
          "type": "bool"
        }
      ],
      "payable": false,
      "stateMutability": "nonpayable",
      "type": "function"
    },
    {
      "constant": false,
      "inputs": [
        {
          "name": "_taoId",
          "type": "address"
        },
        {
          "name": "_amount",
          "type": "uint256"
        }
      ],
      "name": "addAdvocatedTAOLogos",
      "outputs": [
        {
          "name": "",
          "type": "bool"
        }
      ],
      "payable": false,
      "stateMutability": "nonpayable",
      "type": "function"
    },
    {
      "constant": false,
      "inputs": [
        {
          "name": "_fromNameId",
          "type": "address"
        },
        {
          "name": "_taoId",
          "type": "address"
        }
      ],
      "name": "transferAdvocatedTAOLogos",
      "outputs": [
        {
          "name": "",
          "type": "bool"
        }
      ],
      "payable": false,
      "stateMutability": "nonpayable",
      "type": "function"
    }
  ],
  "bytecode": "0x60806040523480156200001157600080fd5b5060405162002c8d38038062002c8d833981018060405260808110156200003757600080fd5b8101908080516401000000008111156200005057600080fd5b820160208101848111156200006457600080fd5b81516401000000008111828201871017156200007f57600080fd5b505092919060200180516401000000008111156200009c57600080fd5b82016020810184811115620000b057600080fd5b8151640100000000811182820187101715620000cb57600080fd5b505060208083015160409093015160008054600160a060020a0319163317905586519295509293508591859184916200010b91600391908601906200038a565b508151620001219060049060208501906200038a565b5060006006556005805460ff19169055620001458164010000000062000180810204565b505050620001628262000285640100000000026401000000009004565b620001768164010000000062000180810204565b505050506200042f565b600054600154604080517ff66afcac000000000000000000000000000000000000000000000000000000008152336004820152600160a060020a0393841660248201529290911660448301525173__AOLibrary_____________________________9163f66afcac916064808301926020929190829003018186803b1580156200020957600080fd5b505af41580156200021e573d6000803e3d6000fd5b505050506040513d60208110156200023557600080fd5b505115156200024357600080fd5b600160a060020a03811615156200025957600080fd5b60018054600160a060020a03909216600160a060020a03199283168117909155600c8054909216179055565b600054600154604080517ff66afcac000000000000000000000000000000000000000000000000000000008152336004820152600160a060020a0393841660248201529290911660448301525173__AOLibrary_____________________________9163f66afcac916064808301926020929190829003018186803b1580156200030e57600080fd5b505af415801562000323573d6000803e3d6000fd5b505050506040513d60208110156200033a57600080fd5b505115156200034857600080fd5b600160a060020a03811615156200035e57600080fd5b60098054600160a060020a03909216600160a060020a03199283168117909155600b8054909216179055565b828054600181600116156101000203166002900490600052602060002090601f016020900481019282601f10620003cd57805160ff1916838001178555620003fd565b82800160010185558215620003fd579182015b82811115620003fd578251825591602001919060010190620003e0565b506200040b9291506200040f565b5090565b6200042c91905b808211156200040b576000815560010162000416565b90565b61284e806200043f6000396000f3fe608060405234801561001057600080fd5b50600436106101de5760003560e060020a900480638c924361116101085780639b6503d3116100a6578063b7f6e74d11610075578063b7f6e74d146105e0578063bc40620614610616578063d5e45a831461061e578063f2fde38b14610654576101de565b80639b6503d31461057e578063a4e5fad2146105a4578063a9b6b38e146105ac578063b1e19d45146105b4576101de565b806395d89b41116100e257806395d89b41146104fe57806397fe5ea314610506578063985e4cd0146105325780639b19251a14610558576101de565b80638c9243611461047c578063918b7aa1146104a25780639579b1a8146104d0576101de565b80634ef033f01161018057806370a082311161014f57806370a08231146103dc57806372f19b8f146104025780637787f39c1461042857806381c3af291461044e576101de565b80634ef033f01461033e57806353d6fd59146103625780635cfaf2ef146103905780636387b19a146103b6576101de565b80631dfde2bd116101bc5780631dfde2bd1461028257806323b872dd146102aa578063313ce567146102f457806340c10f1914610312576101de565b806306fdde03146101e35780630aa245461461026057806318160ddd1461027a575b600080fd5b6101eb61067a565b6040805160208082528351818301528351919283929083019185019080838360005b8381101561022557818101518382015260200161020d565b50505050905090810190601f1680156102525780820380516001836020036101000a031916815260200191505b509250505060405180910390f35b610268610708565b60408051918252519081900360200190f35b61026861070e565b6102a86004803603602081101561029857600080fd5b5035600160a060020a0316610714565b005b6102e0600480360360608110156102c057600080fd5b50600160a060020a0381358116916020810135909116906040013561080e565b604080519115158252519081900360200190f35b6102fc610a9e565b6040805160ff9092168252519081900360200190f35b6102e06004803603604081101561032857600080fd5b50600160a060020a038135169060200135610aa7565b610346610c08565b60408051600160a060020a039092168252519081900360200190f35b6102a86004803603604081101561037857600080fd5b50600160a060020a0381351690602001351515610c17565b6102a8600480360360208110156103a657600080fd5b5035600160a060020a0316610d00565b610268600480360360208110156103cc57600080fd5b5035600160a060020a0316610df7565b610268600480360360208110156103f257600080fd5b5035600160a060020a0316610e09565b6102686004803603602081101561041857600080fd5b5035600160a060020a0316610e1b565b6102686004803603602081101561043e57600080fd5b5035600160a060020a0316610e2d565b6102686004803603604081101561046457600080fd5b50600160a060020a0381358116916020013516610e3f565b6102a86004803603602081101561049257600080fd5b5035600160a060020a0316610e5c565b610268600480360360408110156104b857600080fd5b50600160a060020a0381358116916020013516610f53565b6102e0600480360360408110156104e657600080fd5b50600160a060020a0381358116916020013516610f70565b6101eb6112f5565b6102e06004803603604081101561051c57600080fd5b50600160a060020a038135169060200135611350565b6102686004803603602081101561054857600080fd5b5035600160a060020a0316611593565b6102e06004803603602081101561056e57600080fd5b5035600160a060020a0316611685565b6102686004803603602081101561059457600080fd5b5035600160a060020a031661169a565b61034661176c565b61034661177b565b6102e0600480360360408110156105ca57600080fd5b50600160a060020a03813516906020013561178a565b6102e0600480360360608110156105f657600080fd5b50600160a060020a0381358116916020810135909116906040013561199d565b610346611f0b565b6102e06004803603606081101561063457600080fd5b50600160a060020a03813581169160208101359091169060400135611f1a565b6102a86004803603602081101561066a57600080fd5b5035600160a060020a031661249f565b6003805460408051602060026001851615610100026000190190941693909304601f810184900484028201840190925281815292918301828280156107005780601f106106d557610100808354040283529160200191610700565b820191906000526020600020905b8154815290600101906020018083116106e357829003601f168201915b505050505081565b60065481565b60075481565b6000546001546040805160e260020a633d9abf2b028152336004820152600160a060020a0393841660248201529290911660448301525173__AOLibrary_____________________________9163f66afcac916064808301926020929190829003018186803b15801561078657600080fd5b505af415801561079a573d6000803e3d6000fd5b505050506040513d60208110156107b057600080fd5b505115156107bd57600080fd5b600160a060020a03811615156107d257600080fd5b600a805473ffffffffffffffffffffffffffffffffffffffff19908116600160a060020a039384161791829055600d8054929093169116179055565b3360009081526002602052604081205460ff16151560011461082f57600080fd5b8373__AOLibrary_____________________________632d706a34826040518263ffffffff1660e060020a0281526004018082600160a060020a0316600160a060020a0316815260200191505060206040518083038186803b15801561089457600080fd5b505af41580156108a8573d6000803e3d6000fd5b505050506040513d60208110156108be57600080fd5b50518061095057506040805160e260020a630bf29505028152600160a060020a0383166004820152905173__AOLibrary_____________________________91632fca5414916024808301926020929190829003018186803b15801561092357600080fd5b505af4158015610937573d6000803e3d6000fd5b505050506040513d602081101561094d57600080fd5b50515b151561095b57600080fd5b8373__AOLibrary_____________________________632d706a34826040518263ffffffff1660e060020a0281526004018082600160a060020a0316600160a060020a0316815260200191505060206040518083038186803b1580156109c057600080fd5b505af41580156109d4573d6000803e3d6000fd5b505050506040513d60208110156109ea57600080fd5b505180610a7c57506040805160e260020a630bf29505028152600160a060020a0383166004820152905173__AOLibrary_____________________________91632fca5414916024808301926020929190829003018186803b158015610a4f57600080fd5b505af4158015610a63573d6000803e3d6000fd5b505050506040513d6020811015610a7957600080fd5b50515b1515610a8757600080fd5b610a9286868661258c565b50600195945050505050565b60055460ff1681565b3360009081526002602052604081205460ff161515600114610ac857600080fd5b8273__AOLibrary_____________________________632d706a34826040518263ffffffff1660e060020a0281526004018082600160a060020a0316600160a060020a0316815260200191505060206040518083038186803b158015610b2d57600080fd5b505af4158015610b41573d6000803e3d6000fd5b505050506040513d6020811015610b5757600080fd5b505180610be957506040805160e260020a630bf29505028152600160a060020a0383166004820152905173__AOLibrary_____________________________91632fca5414916024808301926020929190829003018186803b158015610bbc57600080fd5b505af4158015610bd0573d6000803e3d6000fd5b505050506040513d6020811015610be657600080fd5b50515b1515610bf457600080fd5b610bfe8484612729565b5060019392505050565b600154600160a060020a031681565b6000546001546040805160e260020a633d9abf2b028152336004820152600160a060020a0393841660248201529290911660448301525173__AOLibrary_____________________________9163f66afcac916064808301926020929190829003018186803b158015610c8957600080fd5b505af4158015610c9d573d6000803e3d6000fd5b505050506040513d6020811015610cb357600080fd5b50511515610cc057600080fd5b600160a060020a0382161515610cd557600080fd5b600160a060020a03919091166000908152600260205260409020805460ff1916911515919091179055565b6000546001546040805160e260020a633d9abf2b028152336004820152600160a060020a0393841660248201529290911660448301525173__AOLibrary_____________________________9163f66afcac916064808301926020929190829003018186803b158015610d7257600080fd5b505af4158015610d86573d6000803e3d6000fd5b505050506040513d6020811015610d9c57600080fd5b50511515610da957600080fd5b600160a060020a0381161515610dbe57600080fd5b60018054600160a060020a0390921673ffffffffffffffffffffffffffffffffffffffff199283168117909155600c8054909216179055565b60126020526000908152604090205481565b60086020526000908152604090205481565b60106020526000908152604090205481565b600e6020526000908152604090205481565b600f60209081526000928352604080842090915290825290205481565b6000546001546040805160e260020a633d9abf2b028152336004820152600160a060020a0393841660248201529290911660448301525173__AOLibrary_____________________________9163f66afcac916064808301926020929190829003018186803b158015610ece57600080fd5b505af4158015610ee2573d6000803e3d6000fd5b505050506040513d6020811015610ef857600080fd5b50511515610f0557600080fd5b600160a060020a0381161515610f1a57600080fd5b60098054600160a060020a0390921673ffffffffffffffffffffffffffffffffffffffff199283168117909155600b8054909216179055565b601160209081526000928352604080842090915290825290205481565b3360009081526002602052604081205460ff161515600114610f9157600080fd5b8273__AOLibrary_____________________________632d706a34826040518263ffffffff1660e060020a0281526004018082600160a060020a0316600160a060020a0316815260200191505060206040518083038186803b158015610ff657600080fd5b505af415801561100a573d6000803e3d6000fd5b505050506040513d602081101561102057600080fd5b5051151561102d57600080fd5b8273__AOLibrary_____________________________632fca5414826040518263ffffffff1660e060020a0281526004018082600160a060020a0316600160a060020a0316815260200191505060206040518083038186803b15801561109257600080fd5b505af41580156110a6573d6000803e3d6000fd5b505050506040513d60208110156110bc57600080fd5b505115156110c957600080fd5b600c54604080517ffd6f4137000000000000000000000000000000000000000000000000000000008152600160a060020a0387811660048301529151600093929092169163fd6f413791602480820192602092909190829003018186803b15801561113357600080fd5b505afa158015611147573d6000803e3d6000fd5b505050506040513d602081101561115d57600080fd5b50519050600160a060020a03868116908216141561117a57600080fd5b600160a060020a038087166000818152601160209081526040808320948a1683529381528382205492825260129052919091205410156111b957600080fd5b600160a060020a038087166000818152601160209081526040808320948a168352938152838220805490839055928252601290529190912054611202908263ffffffff6127fd16565b600160a060020a03808916600090815260126020908152604080832094909455858316825260118152838220928a168252919091522054611249908263ffffffff61280f16565b600160a060020a038084166000818152601160209081526040808320948c16835293815283822094909455908152601290925290205461128f908263ffffffff61280f16565b600160a060020a0380841660008181526012602090815260409182902094909455805185815290518a84169492938c16927f8b4613e05fc7236bc627dca2e0fadecd777022c54627f6a5212ccc5ac02e7158928290030190a45060019695505050505050565b6004805460408051602060026001851615610100026000190190941693909304601f810184900484028201840190925281815292918301828280156107005780601f106106d557610100808354040283529160200191610700565b3360009081526002602052604081205460ff16151560011461137157600080fd5b8273__AOLibrary_____________________________632fca5414826040518263ffffffff1660e060020a0281526004018082600160a060020a0316600160a060020a0316815260200191505060206040518083038186803b1580156113d657600080fd5b505af41580156113ea573d6000803e3d6000fd5b505050506040513d602081101561140057600080fd5b5051151561140d57600080fd5b6000831161141a57600080fd5b600c54604080517ffd6f4137000000000000000000000000000000000000000000000000000000008152600160a060020a0387811660048301529151600093929092169163fd6f413791602480820192602092909190829003018186803b15801561148457600080fd5b505afa158015611498573d6000803e3d6000fd5b505050506040513d60208110156114ae57600080fd5b5051600160a060020a038082166000908152601160209081526040808320938a16835292905220549091506114e9908563ffffffff61280f16565b600160a060020a038083166000818152601160209081526040808320948b16835293815283822094909455908152601290925290205461152f908563ffffffff61280f16565b600160a060020a0380831660008181526012602090815260409182902094909455805188815290519289169391927ffbb909cfb1cebddaa90dc958d2d9d96a684866cda33bfd311711fd76f88def0a929181900390910190a3506001949350505050565b60008173__AOLibrary_____________________________632d706a34826040518263ffffffff1660e060020a0281526004018082600160a060020a0316600160a060020a0316815260200191505060206040518083038186803b1580156115fa57600080fd5b505af415801561160e573d6000803e3d6000fd5b505050506040513d602081101561162457600080fd5b5051151561163157600080fd5b600160a060020a038316600090815260126020908152604080832054600e835281842054600890935292205461167e9291611672919063ffffffff61280f16565b9063ffffffff61280f16565b9392505050565b60026020526000908152604090205460ff1681565b60008173__AOLibrary_____________________________632d706a34826040518263ffffffff1660e060020a0281526004018082600160a060020a0316600160a060020a0316815260200191505060206040518083038186803b15801561170157600080fd5b505af4158015611715573d6000803e3d6000fd5b505050506040513d602081101561172b57600080fd5b5051151561173857600080fd5b600160a060020a03831660009081526010602090815260408083205460089092529091205461167e9163ffffffff6127fd16565b600a54600160a060020a031681565b600054600160a060020a031681565b3360009081526002602052604081205460ff1615156001146117ab57600080fd5b8273__AOLibrary_____________________________632d706a34826040518263ffffffff1660e060020a0281526004018082600160a060020a0316600160a060020a0316815260200191505060206040518083038186803b15801561181057600080fd5b505af4158015611824573d6000803e3d6000fd5b505050506040513d602081101561183a57600080fd5b5051806118cc57506040805160e260020a630bf29505028152600160a060020a0383166004820152905173__AOLibrary_____________________________91632fca5414916024808301926020929190829003018186803b15801561189f57600080fd5b505af41580156118b3573d6000803e3d6000fd5b505050506040513d60208110156118c957600080fd5b50515b15156118d757600080fd5b600160a060020a0384166000908152600860205260409020548311156118fc57600080fd5b600160a060020a038416600090815260086020526040902054611925908463ffffffff6127fd16565b600160a060020a038516600090815260086020526040902055600754611951908463ffffffff6127fd16565b600755604080518481529051600160a060020a038616917fcc16f5dbb4873280815c1ee09dbd06736cffcc184412cf7a71a0fdb75d397ca5919081900360200190a25060019392505050565b60008373__AOLibrary_____________________________632d706a34826040518263ffffffff1660e060020a0281526004018082600160a060020a0316600160a060020a0316815260200191505060206040518083038186803b158015611a0457600080fd5b505af4158015611a18573d6000803e3d6000fd5b505050506040513d6020811015611a2e57600080fd5b50511515611a3b57600080fd5b8373__AOLibrary_____________________________632d706a34826040518263ffffffff1660e060020a0281526004018082600160a060020a0316600160a060020a0316815260200191505060206040518083038186803b158015611aa057600080fd5b505af4158015611ab4573d6000803e3d6000fd5b505050506040513d6020811015611aca57600080fd5b50511515611ad757600080fd5b600d546040805160e060020a633ebc2ab3028152600160a060020a03808a166004830152915189939290921691633ebc2ab391602480820192602092909190829003018186803b158015611b2a57600080fd5b505afa158015611b3e573d6000803e3d6000fd5b505050506040513d6020811015611b5457600080fd5b505115611b6057600080fd5b600d546040805160e060020a633ebc2ab3028152600160a060020a03808a166004830152915189939290921691633ebc2ab391602480820192602092909190829003018186803b158015611bb357600080fd5b505afa158015611bc7573d6000803e3d6000fd5b505050506040513d6020811015611bdd57600080fd5b505115611be957600080fd5b600c54604080517f71ce52ed000000000000000000000000000000000000000000000000000000008152336004820152600160a060020a03808c16602483015291518b9392909216916371ce52ed91604480820192602092909190829003018186803b158015611c5857600080fd5b505afa158015611c6c573d6000803e3d6000fd5b505050506040513d6020811015611c8257600080fd5b50511515611c8f57600080fd5b600d54600b54604080517f029b7d530000000000000000000000000000000000000000000000000000000081523360048201529051600160a060020a0393841693633ebc2ab393169163029b7d53916024808301926020929190829003018186803b158015611cfd57600080fd5b505afa158015611d11573d6000803e3d6000fd5b505050506040513d6020811015611d2757600080fd5b50516040805160e060020a63ffffffff8516028152600160a060020a039092166004830152516024808301926020929190829003018186803b158015611d6c57600080fd5b505afa158015611d80573d6000803e3d6000fd5b505050506040513d6020811015611d9657600080fd5b505115611da257600080fd5b600160a060020a038981169089161415611dbb57600080fd5b600160a060020a03808a166000908152600f60209081526040808320938c1683529290522054871115611ded57600080fd5b600160a060020a03808a166000908152600f60209081526040808320938c1683529290522054611e23908863ffffffff6127fd16565b600160a060020a03808b166000818152600f60209081526040808320948e168352938152838220949094559081526010909252902054611e69908863ffffffff6127fd16565b600160a060020a03808b16600090815260106020908152604080832094909455918b168152600e9091522054611ea5908863ffffffff6127fd16565b600160a060020a03808a166000818152600e60209081526040918290209490945580518b815290519193928d16927f4062ffbe4dc631454bf05254af9c69f7be3ad81eea47c870de77ad1d5f60192b92918290030190a350600198975050505050505050565b600954600160a060020a031681565b60008373__AOLibrary_____________________________632d706a34826040518263ffffffff1660e060020a0281526004018082600160a060020a0316600160a060020a0316815260200191505060206040518083038186803b158015611f8157600080fd5b505af4158015611f95573d6000803e3d6000fd5b505050506040513d6020811015611fab57600080fd5b50511515611fb857600080fd5b8373__AOLibrary_____________________________632d706a34826040518263ffffffff1660e060020a0281526004018082600160a060020a0316600160a060020a0316815260200191505060206040518083038186803b15801561201d57600080fd5b505af4158015612031573d6000803e3d6000fd5b505050506040513d602081101561204757600080fd5b5051151561205457600080fd5b600d546040805160e060020a633ebc2ab3028152600160a060020a03808a166004830152915189939290921691633ebc2ab391602480820192602092909190829003018186803b1580156120a757600080fd5b505afa1580156120bb573d6000803e3d6000fd5b505050506040513d60208110156120d157600080fd5b5051156120dd57600080fd5b600d546040805160e060020a633ebc2ab3028152600160a060020a03808a166004830152915189939290921691633ebc2ab391602480820192602092909190829003018186803b15801561213057600080fd5b505afa158015612144573d6000803e3d6000fd5b505050506040513d602081101561215a57600080fd5b50511561216657600080fd5b600c54604080517f71ce52ed000000000000000000000000000000000000000000000000000000008152336004820152600160a060020a03808c16602483015291518b9392909216916371ce52ed91604480820192602092909190829003018186803b1580156121d557600080fd5b505afa1580156121e9573d6000803e3d6000fd5b505050506040513d60208110156121ff57600080fd5b5051151561220c57600080fd5b600d54600b54604080517f029b7d530000000000000000000000000000000000000000000000000000000081523360048201529051600160a060020a0393841693633ebc2ab393169163029b7d53916024808301926020929190829003018186803b15801561227a57600080fd5b505afa15801561228e573d6000803e3d6000fd5b505050506040513d60208110156122a457600080fd5b50516040805160e060020a63ffffffff8516028152600160a060020a039092166004830152516024808301926020929190829003018186803b1580156122e957600080fd5b505afa1580156122fd573d6000803e3d6000fd5b505050506040513d602081101561231357600080fd5b50511561231f57600080fd5b600160a060020a03898116908916141561233857600080fd5b866123428a61169a565b101561234d57600080fd5b600160a060020a0388166000908152600e6020526040902054612376818963ffffffff61280f16565b101561238157600080fd5b600160a060020a03808a166000908152600f60209081526040808320938c16835292905220546123b7908863ffffffff61280f16565b600160a060020a03808b166000818152600f60209081526040808320948e1683529381528382209490945590815260109092529020546123fd908863ffffffff61280f16565b600160a060020a03808b16600090815260106020908152604080832094909455918b168152600e9091522054612439908863ffffffff61280f16565b600160a060020a03808a166000818152600e60209081526040918290209490945580518b815290519193928d16927faa8842001e980c78016b1aeb01672b78a6e676667f9f43b8d3c78ac8b7233b6392918290030190a350600198975050505050505050565b6000546001546040805160e260020a633d9abf2b028152336004820152600160a060020a0393841660248201529290911660448301525173__AOLibrary_____________________________9163f66afcac916064808301926020929190829003018186803b15801561251157600080fd5b505af4158015612525573d6000803e3d6000fd5b505050506040513d602081101561253b57600080fd5b5051151561254857600080fd5b600160a060020a038116151561255d57600080fd5b6000805473ffffffffffffffffffffffffffffffffffffffff1916600160a060020a0392909216919091179055565b600160a060020a03821615156125a157600080fd5b600160a060020a0383166000908152600860205260409020548111156125c657600080fd5b600160a060020a0382166000908152600860205260409020546125ef818363ffffffff61280f16565b10156125fa57600080fd5b600160a060020a03808316600090815260086020526040808220549286168252812054909161262f919063ffffffff61280f16565b600160a060020a03851660009081526008602052604090205490915061265b908363ffffffff6127fd16565b600160a060020a038086166000908152600860205260408082209390935590851681522054612690908363ffffffff61280f16565b600160a060020a0380851660008181526008602090815260409182902094909455805186815290519193928816927fddf252ad1be2c89b69c2b068fc378daa952ba7f163c4a11628f55a4df523b3ef92918290030190a3600160a060020a03808416600090815260086020526040808220549287168252902054829161271c919063ffffffff61280f16565b1461272357fe5b50505050565b600160a060020a038216600090815260086020526040902054612752908263ffffffff61280f16565b600160a060020a03831660009081526008602052604090205560075461277e908263ffffffff61280f16565b60075560408051828152905130916000917fddf252ad1be2c89b69c2b068fc378daa952ba7f163c4a11628f55a4df523b3ef9181900360200190a3604080518281529051600160a060020a0384169130917fddf252ad1be2c89b69c2b068fc378daa952ba7f163c4a11628f55a4df523b3ef9181900360200190a35050565b60008282111561280957fe5b50900390565b8181018281101561281c57fe5b9291505056fea165627a7a723058200ea7430431d0b7377617f87182f8c3605cba575d920d65620b191d0825310b270029",
  "source": "pragma solidity ^0.5.4;\n\nimport \"./TAOCurrency.sol\";\nimport \"./INameFactory.sol\";\nimport \"./INameTAOPosition.sol\";\nimport './INameAccountRecovery.sol';\n\ncontract Logos is TAOCurrency {\n\taddress public nameFactoryAddress;\n\taddress public nameAccountRecoveryAddress;\n\n\tINameFactory internal _nameFactory;\n\tINameTAOPosition internal _nameTAOPosition;\n\tINameAccountRecovery internal _nameAccountRecovery;\n\n\t// Mapping of a Name ID to the amount of Logos positioned by others to itself\n\t// address is the address of nameId, not the eth public address\n\tmapping (address => uint256) public positionFromOthers;\n\n\t// Mapping of Name ID to other Name ID and the amount of Logos positioned by itself\n\tmapping (address => mapping(address => uint256)) public positionOnOthers;\n\n\t// Mapping of a Name ID to the total amount of Logos positioned by itself on others\n\tmapping (address => uint256) public totalPositionOnOthers;\n\n\t// Mapping of Name ID to it's advocated TAO ID and the amount of Logos earned\n\tmapping (address => mapping(address => uint256)) public advocatedTAOLogos;\n\n\t// Mapping of a Name ID to the total amount of Logos earned from advocated TAO\n\tmapping (address => uint256) public totalAdvocatedTAOLogos;\n\n\t// Event broadcasted to public when `from` address position `value` Logos to `to`\n\tevent PositionFrom(address indexed from, address indexed to, uint256 value);\n\n\t// Event broadcasted to public when `from` address unposition `value` Logos from `to`\n\tevent UnpositionFrom(address indexed from, address indexed to, uint256 value);\n\n\t// Event broadcasted to public when `nameId` receives `amount` of Logos from advocating `taoId`\n\tevent AddAdvocatedTAOLogos(address indexed nameId, address indexed taoId, uint256 amount);\n\n\t// Event broadcasted to public when Logos from advocating `taoId` is transferred from `fromNameId` to `toNameId`\n\tevent TransferAdvocatedTAOLogos(address indexed fromNameId, address indexed toNameId, address indexed taoId, uint256 amount);\n\n\t/**\n\t * @dev Constructor function\n\t */\n\tconstructor(string memory _name, string memory _symbol, address _nameFactoryAddress, address _nameTAOPositionAddress)\n\t\tTAOCurrency(_name, _symbol, _nameTAOPositionAddress) public {\n\t\tsetNameFactoryAddress(_nameFactoryAddress);\n\t\tsetNameTAOPositionAddress(_nameTAOPositionAddress);\n\t}\n\n\t/**\n\t * @dev Check if `_taoId` is a TAO\n\t */\n\tmodifier isTAO(address _taoId) {\n\t\trequire (AOLibrary.isTAO(_taoId));\n\t\t_;\n\t}\n\n\t/**\n\t * @dev Check if `_nameId` is a Name\n\t */\n\tmodifier isName(address _nameId) {\n\t\trequire (AOLibrary.isName(_nameId));\n\t\t_;\n\t}\n\n\t/**\n\t * @dev Check if msg.sender is the current advocate of _id\n\t */\n\tmodifier onlyAdvocate(address _id) {\n\t\trequire (_nameTAOPosition.senderIsAdvocate(msg.sender, _id));\n\t\t_;\n\t}\n\n\t/**\n\t * @dev Only allowed if Name is not compromised\n\t */\n\tmodifier nameNotCompromised(address _id) {\n\t\trequire (!_nameAccountRecovery.isCompromised(_id));\n\t\t_;\n\t}\n\n\t/**\n\t * @dev Only allowed if sender's Name is not compromised\n\t */\n\tmodifier senderNameNotCompromised() {\n\t\trequire (!_nameAccountRecovery.isCompromised(_nameFactory.ethAddressToNameId(msg.sender)));\n\t\t_;\n\t}\n\n\t/***** THE AO ONLY METHODS *****/\n\t/**\n\t * @dev The AO sets NameFactory address\n\t * @param _nameFactoryAddress The address of NameFactory\n\t */\n\tfunction setNameFactoryAddress(address _nameFactoryAddress) public onlyTheAO {\n\t\trequire (_nameFactoryAddress != address(0));\n\t\tnameFactoryAddress = _nameFactoryAddress;\n\t\t_nameFactory = INameFactory(_nameFactoryAddress);\n\t}\n\n\t/**\n\t * @dev The AO set the NameTAOPosition Address\n\t * @param _nameTAOPositionAddress The address of NameTAOPosition\n\t */\n\tfunction setNameTAOPositionAddress(address _nameTAOPositionAddress) public onlyTheAO {\n\t\trequire (_nameTAOPositionAddress != address(0));\n\t\tnameTAOPositionAddress = _nameTAOPositionAddress;\n\t\t_nameTAOPosition = INameTAOPosition(_nameTAOPositionAddress);\n\t}\n\n\t/**\n\t * @dev The AO set the NameAccountRecovery Address\n\t * @param _nameAccountRecoveryAddress The address of NameAccountRecovery\n\t */\n\tfunction setNameAccountRecoveryAddress(address _nameAccountRecoveryAddress) public onlyTheAO {\n\t\trequire (_nameAccountRecoveryAddress != address(0));\n\t\tnameAccountRecoveryAddress = _nameAccountRecoveryAddress;\n\t\t_nameAccountRecovery = INameAccountRecovery(nameAccountRecoveryAddress);\n\t}\n\n\t/***** PUBLIC METHODS *****/\n\t/**\n\t * @dev Get the total sum of Logos for an address\n\t * @param _target The address to check\n\t * @return The total sum of Logos (own + positioned + advocated TAOs)\n\t */\n\tfunction sumBalanceOf(address _target) public isName(_target) view returns (uint256) {\n\t\treturn balanceOf[_target].add(positionFromOthers[_target]).add(totalAdvocatedTAOLogos[_target]);\n\t}\n\n\t/**\n\t * @dev Return the amount of Logos that are available to be positioned on other\n\t * @param _sender The sender address to check\n\t * @return The amount of Logos that are available to be positioned on other\n\t */\n\tfunction availableToPositionAmount(address _sender) public isName(_sender) view returns (uint256) {\n\t\treturn balanceOf[_sender].sub(totalPositionOnOthers[_sender]);\n\t}\n\n\t/**\n\t * @dev `_from` Name position `_value` Logos onto `_to` Name\n\t *\n\t * @param _from The address of the sender\n\t * @param _to The address of the recipient\n\t * @param _value the amount to position\n\t * @return true on success\n\t */\n\tfunction positionFrom(address _from, address _to, uint256 _value) public isName(_from) isName(_to) nameNotCompromised(_from) nameNotCompromised(_to) onlyAdvocate(_from) senderNameNotCompromised returns (bool) {\n\t\trequire (_from != _to);\t// Can't position Logos to itself\n\t\trequire (availableToPositionAmount(_from) >= _value); // should have enough balance to position\n\t\trequire (positionFromOthers[_to].add(_value) >= positionFromOthers[_to]); // check for overflows\n\n\t\tpositionOnOthers[_from][_to] = positionOnOthers[_from][_to].add(_value);\n\t\ttotalPositionOnOthers[_from] = totalPositionOnOthers[_from].add(_value);\n\t\tpositionFromOthers[_to] = positionFromOthers[_to].add(_value);\n\n\t\temit PositionFrom(_from, _to, _value);\n\t\treturn true;\n\t}\n\n\t/**\n\t * @dev `_from` Name unposition `_value` Logos from `_to` Name\n\t *\n\t * @param _from The address of the sender\n\t * @param _to The address of the recipient\n\t * @param _value the amount to unposition\n\t * @return true on success\n\t */\n\tfunction unpositionFrom(address _from, address _to, uint256 _value) public isName(_from) isName(_to) nameNotCompromised(_from) nameNotCompromised(_to) onlyAdvocate(_from) senderNameNotCompromised returns (bool) {\n\t\trequire (_from != _to);\t// Can't unposition Logos to itself\n\t\trequire (positionOnOthers[_from][_to] >= _value);\n\n\t\tpositionOnOthers[_from][_to] = positionOnOthers[_from][_to].sub(_value);\n\t\ttotalPositionOnOthers[_from] = totalPositionOnOthers[_from].sub(_value);\n\t\tpositionFromOthers[_to] = positionFromOthers[_to].sub(_value);\n\n\t\temit UnpositionFrom(_from, _to, _value);\n\t\treturn true;\n\t}\n\n\t/**\n\t * @dev Add `_amount` logos earned from advocating a TAO `_taoId` to its Advocate\n\t * @param _taoId The ID of the advocated TAO\n\t * @param _amount the amount to reward\n\t * @return true on success\n\t */\n\tfunction addAdvocatedTAOLogos(address _taoId, uint256 _amount) public inWhitelist isTAO(_taoId) returns (bool) {\n\t\trequire (_amount > 0);\n\t\taddress _nameId = _nameTAOPosition.getAdvocate(_taoId);\n\n\t\tadvocatedTAOLogos[_nameId][_taoId] = advocatedTAOLogos[_nameId][_taoId].add(_amount);\n\t\ttotalAdvocatedTAOLogos[_nameId] = totalAdvocatedTAOLogos[_nameId].add(_amount);\n\n\t\temit AddAdvocatedTAOLogos(_nameId, _taoId, _amount);\n\t\treturn true;\n\t}\n\n\t/**\n\t * @dev Transfer logos earned from advocating a TAO `_taoId` from `_fromNameId` to the Advocate of `_taoId`\n\t * @param _fromNameId The ID of the Name that sends the Logos\n\t * @param _taoId The ID of the advocated TAO\n\t * @return true on success\n\t */\n\tfunction transferAdvocatedTAOLogos(address _fromNameId, address _taoId) public inWhitelist isName(_fromNameId) isTAO(_taoId) returns (bool) {\n\t\taddress _toNameId = _nameTAOPosition.getAdvocate(_taoId);\n\t\trequire (_fromNameId != _toNameId);\n\t\trequire (totalAdvocatedTAOLogos[_fromNameId] >= advocatedTAOLogos[_fromNameId][_taoId]);\n\n\t\tuint256 _amount = advocatedTAOLogos[_fromNameId][_taoId];\n\t\tadvocatedTAOLogos[_fromNameId][_taoId] = 0;\n\t\ttotalAdvocatedTAOLogos[_fromNameId] = totalAdvocatedTAOLogos[_fromNameId].sub(_amount);\n\t\tadvocatedTAOLogos[_toNameId][_taoId] = advocatedTAOLogos[_toNameId][_taoId].add(_amount);\n\t\ttotalAdvocatedTAOLogos[_toNameId] = totalAdvocatedTAOLogos[_toNameId].add(_amount);\n\n\t\temit TransferAdvocatedTAOLogos(_fromNameId, _toNameId, _taoId, _amount);\n\t\treturn true;\n\t}\n}\n",
  "sourcePath": "/usr/local/ao-contracts/contracts/Logos.sol",
  "compiler": {
    "name": "solc",
    "version": "0.5.4+commit.9549d8ff.Emscripten.clang"
  },
  "schemaVersion": "3.0.2",
  "updatedAt": "2019-03-21T02:41:21.113Z",
  "devdoc": {
    "methods": {
      "addAdvocatedTAOLogos(address,uint256)": {
        "details": "Add `_amount` logos earned from advocating a TAO `_taoId` to its Advocate",
        "params": {
          "_amount": "the amount to reward",
          "_taoId": "The ID of the advocated TAO"
        },
        "return": "true on success"
      },
      "availableToPositionAmount(address)": {
        "details": "Return the amount of Logos that are available to be positioned on other",
        "params": {
          "_sender": "The sender address to check"
        },
        "return": "The amount of Logos that are available to be positioned on other"
      },
      "constructor": {
        "details": "Constructor function"
      },
      "mint(address,uint256)": {
        "details": "Create `mintedAmount` TAOCurrency and send it to `target`",
        "params": {
          "mintedAmount": "The amount of TAOCurrency it will receive",
          "target": "Address to receive TAOCurrency"
        },
        "return": "true on success"
      },
      "positionFrom(address,address,uint256)": {
        "details": "`_from` Name position `_value` Logos onto `_to` Name",
        "params": {
          "_from": "The address of the sender",
          "_to": "The address of the recipient",
          "_value": "the amount to position"
        },
        "return": "true on success"
      },
      "setNameAccountRecoveryAddress(address)": {
        "details": "The AO set the NameAccountRecovery Address",
        "params": {
          "_nameAccountRecoveryAddress": "The address of NameAccountRecovery"
        }
      },
      "setNameFactoryAddress(address)": {
        "details": "The AO sets NameFactory address",
        "params": {
          "_nameFactoryAddress": "The address of NameFactory"
        }
      },
      "setNameTAOPositionAddress(address)": {
        "details": "The AO set the NameTAOPosition Address",
        "params": {
          "_nameTAOPositionAddress": "The address of NameTAOPosition"
        }
      },
      "setWhitelist(address,bool)": {
        "details": "Whitelist `_account` address to transact on behalf of others",
        "params": {
          "_account": "The address to whitelist",
          "_whitelist": "Either to whitelist or not"
        }
      },
      "sumBalanceOf(address)": {
        "details": "Get the total sum of Logos for an address",
        "params": {
          "_target": "The address to check"
        },
        "return": "The total sum of Logos (own + positioned + advocated TAOs)"
      },
      "transferAdvocatedTAOLogos(address,address)": {
        "details": "Transfer logos earned from advocating a TAO `_taoId` from `_fromNameId` to the Advocate of `_taoId`",
        "params": {
          "_fromNameId": "The ID of the Name that sends the Logos",
          "_taoId": "The ID of the advocated TAO"
        },
        "return": "true on success"
      },
      "transferFrom(address,address,uint256)": {
        "details": "transfer TAOCurrency from other address\t * Send `_value` TAOCurrency to `_to` in behalf of `_from`",
        "params": {
          "_from": "The address of the sender",
          "_to": "The address of the recipient",
          "_value": "the amount to send"
        }
      },
      "transferOwnership(address)": {
        "details": "Transfer ownership of The AO to new address",
        "params": {
          "_theAO": "The new address to be transferred"
        }
      },
      "unpositionFrom(address,address,uint256)": {
        "details": "`_from` Name unposition `_value` Logos from `_to` Name",
        "params": {
          "_from": "The address of the sender",
          "_to": "The address of the recipient",
          "_value": "the amount to unposition"
        },
        "return": "true on success"
      },
      "whitelistBurnFrom(address,uint256)": {
        "details": "Whitelisted address remove `_value` TAOCurrency from the system irreversibly on behalf of `_from`.",
        "params": {
          "_from": "the address of the sender",
          "_value": "the amount of money to burn"
        }
      }
    }
  },
  "userdoc": {
    "methods": {}
  }
}