{
	"contractName": "LogosGiga",
	"abi": [
		{
			"constant": true,
			"inputs": [],
			"name": "name",
			"outputs": [
				{
					"name": "",
					"type": "string"
				}
			],
			"payable": false,
			"stateMutability": "view",
			"type": "function"
		},
		{
			"constant": true,
			"inputs": [],
			"name": "powerOfTen",
			"outputs": [
				{
					"name": "",
					"type": "uint256"
				}
			],
			"payable": false,
			"stateMutability": "view",
			"type": "function"
		},
		{
			"constant": true,
			"inputs": [
				{
					"name": "",
					"type": "address"
				},
				{
					"name": "",
					"type": "address"
				}
			],
			"name": "positionToOthers",
			"outputs": [
				{
					"name": "",
					"type": "uint256"
				}
			],
			"payable": false,
			"stateMutability": "view",
			"type": "function"
		},
		{
			"constant": true,
			"inputs": [],
			"name": "totalSupply",
			"outputs": [
				{
					"name": "",
					"type": "uint256"
				}
			],
			"payable": false,
			"stateMutability": "view",
			"type": "function"
		},
		{
			"constant": false,
			"inputs": [
				{
					"name": "_from",
					"type": "address"
				},
				{
					"name": "_to",
					"type": "address"
				},
				{
					"name": "_value",
					"type": "uint256"
				}
			],
			"name": "transferFrom",
			"outputs": [
				{
					"name": "",
					"type": "bool"
				}
			],
			"payable": false,
			"stateMutability": "nonpayable",
			"type": "function"
		},
		{
			"constant": true,
			"inputs": [],
			"name": "decimals",
			"outputs": [
				{
					"name": "",
					"type": "uint8"
				}
			],
			"payable": false,
			"stateMutability": "view",
			"type": "function"
		},
		{
			"constant": true,
			"inputs": [],
			"name": "nameTAOPositionAddress",
			"outputs": [
				{
					"name": "",
					"type": "address"
				}
			],
			"payable": false,
			"stateMutability": "view",
			"type": "function"
		},
		{
			"constant": false,
			"inputs": [
				{
					"name": "_account",
					"type": "address"
				},
				{
					"name": "_whitelist",
					"type": "bool"
				}
			],
			"name": "setWhitelist",
			"outputs": [],
			"payable": false,
			"stateMutability": "nonpayable",
			"type": "function"
		},
		{
			"constant": false,
			"inputs": [
				{
					"name": "_nameTAOPositionAddress",
					"type": "address"
				}
			],
			"name": "setNameTAOPositionAddress",
			"outputs": [],
			"payable": false,
			"stateMutability": "nonpayable",
			"type": "function"
		},
		{
			"constant": true,
			"inputs": [
				{
					"name": "",
					"type": "address"
				}
			],
			"name": "totalAdvocatedTAOLogos",
			"outputs": [
				{
					"name": "",
					"type": "uint256"
				}
			],
			"payable": false,
			"stateMutability": "view",
			"type": "function"
		},
		{
			"constant": true,
			"inputs": [
				{
					"name": "",
					"type": "address"
				}
			],
			"name": "balanceOf",
			"outputs": [
				{
					"name": "",
					"type": "uint256"
				}
			],
			"payable": false,
			"stateMutability": "view",
			"type": "function"
		},
		{
			"constant": true,
			"inputs": [
				{
					"name": "",
					"type": "address"
				}
			],
			"name": "positionFromOthers",
			"outputs": [
				{
					"name": "",
					"type": "uint256"
				}
			],
			"payable": false,
			"stateMutability": "view",
			"type": "function"
		},
		{
			"constant": false,
			"inputs": [
				{
					"name": "target",
					"type": "address"
				},
				{
					"name": "mintedAmount",
					"type": "uint256"
				}
			],
			"name": "mintToken",
			"outputs": [
				{
					"name": "",
					"type": "bool"
				}
			],
			"payable": false,
			"stateMutability": "nonpayable",
			"type": "function"
		},
		{
			"constant": true,
			"inputs": [
				{
					"name": "",
					"type": "address"
				},
				{
					"name": "",
					"type": "address"
				}
			],
			"name": "advocatedTAOLogos",
			"outputs": [
				{
					"name": "",
					"type": "uint256"
				}
			],
			"payable": false,
			"stateMutability": "view",
			"type": "function"
		},
		{
			"constant": true,
			"inputs": [],
			"name": "symbol",
			"outputs": [
				{
					"name": "",
					"type": "string"
				}
			],
			"payable": false,
			"stateMutability": "view",
			"type": "function"
		},
		{
			"constant": false,
			"inputs": [
				{
					"name": "_taoId",
					"type": "address"
				},
				{
					"name": "_amount",
					"type": "uint256"
				}
			],
			"name": "addAdvocatedTAOLogos",
			"outputs": [
				{
					"name": "",
					"type": "bool"
				}
			],
			"payable": false,
			"stateMutability": "nonpayable",
			"type": "function"
		},
		{
			"constant": true,
			"inputs": [
				{
					"name": "_target",
					"type": "address"
				}
			],
			"name": "sumBalanceOf",
			"outputs": [
				{
					"name": "",
					"type": "uint256"
				}
			],
			"payable": false,
			"stateMutability": "view",
			"type": "function"
		},
		{
			"constant": true,
			"inputs": [
				{
					"name": "",
					"type": "address"
				}
			],
			"name": "whitelist",
			"outputs": [
				{
					"name": "",
					"type": "bool"
				}
			],
			"payable": false,
			"stateMutability": "view",
			"type": "function"
		},
		{
			"constant": true,
			"inputs": [],
			"name": "theAO",
			"outputs": [
				{
					"name": "",
					"type": "address"
				}
			],
			"payable": false,
			"stateMutability": "view",
			"type": "function"
		},
		{
			"constant": false,
			"inputs": [
				{
					"name": "_from",
					"type": "address"
				},
				{
					"name": "_value",
					"type": "uint256"
				}
			],
			"name": "whitelistBurnFrom",
			"outputs": [
				{
					"name": "success",
					"type": "bool"
				}
			],
			"payable": false,
			"stateMutability": "nonpayable",
			"type": "function"
		},
		{
			"constant": false,
			"inputs": [
				{
					"name": "_from",
					"type": "address"
				},
				{
					"name": "_to",
					"type": "address"
				},
				{
					"name": "_value",
					"type": "uint256"
				}
			],
			"name": "unpositionFrom",
			"outputs": [
				{
					"name": "",
					"type": "bool"
				}
			],
			"payable": false,
			"stateMutability": "nonpayable",
			"type": "function"
		},
		{
			"constant": true,
			"inputs": [
				{
					"name": "",
					"type": "address"
				}
			],
			"name": "totalPositionToOthers",
			"outputs": [
				{
					"name": "",
					"type": "uint256"
				}
			],
			"payable": false,
			"stateMutability": "view",
			"type": "function"
		},
		{
			"constant": false,
			"inputs": [
				{
					"name": "_fromNameId",
					"type": "address"
				},
				{
					"name": "_toNameId",
					"type": "address"
				},
				{
					"name": "_taoId",
					"type": "address"
				}
			],
			"name": "transferAdvocatedTAOLogos",
			"outputs": [
				{
					"name": "",
					"type": "bool"
				}
			],
			"payable": false,
			"stateMutability": "nonpayable",
			"type": "function"
		},
		{
			"constant": false,
			"inputs": [
				{
					"name": "_from",
					"type": "address"
				},
				{
					"name": "_to",
					"type": "address"
				},
				{
					"name": "_value",
					"type": "uint256"
				}
			],
			"name": "positionFrom",
			"outputs": [
				{
					"name": "",
					"type": "bool"
				}
			],
			"payable": false,
			"stateMutability": "nonpayable",
			"type": "function"
		},
		{
			"constant": false,
			"inputs": [
				{
					"name": "_theAO",
					"type": "address"
				}
			],
			"name": "transferOwnership",
			"outputs": [],
			"payable": false,
			"stateMutability": "nonpayable",
			"type": "function"
		},
		{
			"inputs": [
				{
					"name": "initialSupply",
					"type": "uint256"
				},
				{
					"name": "tokenName",
					"type": "string"
				},
				{
					"name": "tokenSymbol",
					"type": "string"
				},
				{
					"name": "_nameTAOPositionAddress",
					"type": "address"
				}
			],
			"payable": false,
			"stateMutability": "nonpayable",
			"type": "constructor"
		},
		{
			"anonymous": false,
			"inputs": [
				{
					"indexed": true,
					"name": "from",
					"type": "address"
				},
				{
					"indexed": true,
					"name": "to",
					"type": "address"
				},
				{
					"indexed": false,
					"name": "value",
					"type": "uint256"
				}
			],
			"name": "PositionFrom",
			"type": "event"
		},
		{
			"anonymous": false,
			"inputs": [
				{
					"indexed": true,
					"name": "from",
					"type": "address"
				},
				{
					"indexed": true,
					"name": "to",
					"type": "address"
				},
				{
					"indexed": false,
					"name": "value",
					"type": "uint256"
				}
			],
			"name": "UnpositionFrom",
			"type": "event"
		},
		{
			"anonymous": false,
			"inputs": [
				{
					"indexed": true,
					"name": "nameId",
					"type": "address"
				},
				{
					"indexed": true,
					"name": "taoId",
					"type": "address"
				},
				{
					"indexed": false,
					"name": "amount",
					"type": "uint256"
				}
			],
			"name": "AddAdvocatedTAOLogos",
			"type": "event"
		},
		{
			"anonymous": false,
			"inputs": [
				{
					"indexed": true,
					"name": "fromNameId",
					"type": "address"
				},
				{
					"indexed": true,
					"name": "toNameId",
					"type": "address"
				},
				{
					"indexed": true,
					"name": "taoId",
					"type": "address"
				},
				{
					"indexed": false,
					"name": "amount",
					"type": "uint256"
				}
			],
			"name": "TransferAdvocatedTAOLogos",
			"type": "event"
		},
		{
			"anonymous": false,
			"inputs": [
				{
					"indexed": true,
					"name": "from",
					"type": "address"
				},
				{
					"indexed": true,
					"name": "to",
					"type": "address"
				},
				{
					"indexed": false,
					"name": "value",
					"type": "uint256"
				}
			],
			"name": "Transfer",
			"type": "event"
		},
		{
			"anonymous": false,
			"inputs": [
				{
					"indexed": true,
					"name": "from",
					"type": "address"
				},
				{
					"indexed": false,
					"name": "value",
					"type": "uint256"
				}
			],
			"name": "Burn",
			"type": "event"
		}
	],
	"bytecode": "0x60806040523480156200001157600080fd5b506040516200241638038062002416833981016040908152815160208084015183850151606086015160008054600160a060020a031916339081178255600787905581526008855295909520849055908501805193959094910192909185918591859185918591859185916200008e9160039190850190620000f4565b508051620000a4906004906020840190620000f4565b50506005805460018054600160a060020a03909616600160a060020a0319968716811790915560098054909616178555600685905560ff1916939093179092555062000199975050505050505050565b828054600181600116156101000203166002900490600052602060002090601f016020900481019282601f106200013757805160ff191683800117855562000167565b8280016001018555821562000167579182015b82811115620001675782518255916020019190600101906200014a565b506200017592915062000179565b5090565b6200019691905b8082111562000175576000815560010162000180565b90565b61226d80620001a96000396000f30060806040526004361061012f5763ffffffff60e060020a60003504166306fdde0381146101345780630aa24546146101be57806316b15b39146101e557806318160ddd1461020c57806323b872dd14610221578063313ce5671461025f5780634ef033f01461028a57806353d6fd59146102bb5780635cfaf2ef146102e35780636387b19a1461030457806370a08231146103255780637787f39c1461034657806379c6506814610367578063918b7aa11461038b57806395d89b41146103b257806397fe5ea3146103c7578063985e4cd0146103eb5780639b19251a1461040c578063a9b6b38e1461042d578063b1e19d4514610442578063b7f6e74d14610466578063d33562b314610490578063d5778f07146104b1578063d5e45a83146104de578063f2fde38b14610508575b600080fd5b34801561014057600080fd5b50610149610529565b6040805160208082528351818301528351919283929083019185019080838360005b8381101561018357818101518382015260200161016b565b50505050905090810190601f1680156101b05780820380516001836020036101000a031916815260200191505b509250505060405180910390f35b3480156101ca57600080fd5b506101d36105b7565b60408051918252519081900360200190f35b3480156101f157600080fd5b506101d3600160a060020a03600435811690602435166105bd565b34801561021857600080fd5b506101d36105da565b34801561022d57600080fd5b5061024b600160a060020a03600435811690602435166044356105e0565b604080519115158252519081900360200190f35b34801561026b57600080fd5b50610274610870565b6040805160ff9092168252519081900360200190f35b34801561029657600080fd5b5061029f610879565b60408051600160a060020a039092168252519081900360200190f35b3480156102c757600080fd5b506102e1600160a060020a03600435166024351515610888565b005b3480156102ef57600080fd5b506102e1600160a060020a0360043516610987565b34801561031057600080fd5b506101d3600160a060020a0360043516610a8a565b34801561033157600080fd5b506101d3600160a060020a0360043516610a9c565b34801561035257600080fd5b506101d3600160a060020a0360043516610aae565b34801561037357600080fd5b5061024b600160a060020a0360043516602435610ac0565b34801561039757600080fd5b506101d3600160a060020a0360043581169060243516610c21565b3480156103be57600080fd5b50610149610c3e565b3480156103d357600080fd5b5061024b600160a060020a0360043516602435610c99565b3480156103f757600080fd5b506101d3600160a060020a0360043516610edc565b34801561041857600080fd5b5061024b600160a060020a036004351661105e565b34801561043957600080fd5b5061029f611073565b34801561044e57600080fd5b5061024b600160a060020a0360043516602435611082565b34801561047257600080fd5b5061024b600160a060020a0360043581169060243516604435611168565b34801561049c57600080fd5b506101d3600160a060020a03600435166115a8565b3480156104bd57600080fd5b5061024b600160a060020a03600435811690602435811690604435166115ba565b3480156104ea57600080fd5b5061024b600160a060020a0360043581169060243516604435611a35565b34801561051457600080fd5b506102e1600160a060020a0360043516611ea9565b6003805460408051602060026001851615610100026000190190941693909304601f810184900484028201840190925281815292918301828280156105af5780601f10610584576101008083540402835291602001916105af565b820191906000526020600020905b81548152906001019060200180831161059257829003601f168201915b505050505081565b60065481565b600b60209081526000928352604080842090915290825290205481565b60075481565b3360009081526002602052604081205460ff16151560011461060157600080fd5b8373__AOLibrary_____________________________632d706a34826040518263ffffffff1660e060020a0281526004018082600160a060020a0316600160a060020a0316815260200191505060206040518083038186803b15801561066657600080fd5b505af415801561067a573d6000803e3d6000fd5b505050506040513d602081101561069057600080fd5b50518061072257506040805160e260020a630bf29505028152600160a060020a0383166004820152905173__AOLibrary_____________________________91632fca5414916024808301926020929190829003018186803b1580156106f557600080fd5b505af4158015610709573d6000803e3d6000fd5b505050506040513d602081101561071f57600080fd5b50515b151561072d57600080fd5b8373__AOLibrary_____________________________632d706a34826040518263ffffffff1660e060020a0281526004018082600160a060020a0316600160a060020a0316815260200191505060206040518083038186803b15801561079257600080fd5b505af41580156107a6573d6000803e3d6000fd5b505050506040513d60208110156107bc57600080fd5b50518061084e57506040805160e260020a630bf29505028152600160a060020a0383166004820152905173__AOLibrary_____________________________91632fca5414916024808301926020929190829003018186803b15801561082157600080fd5b505af4158015610835573d6000803e3d6000fd5b505050506040513d602081101561084b57600080fd5b50515b151561085957600080fd5b610864868686611fac565b50600195945050505050565b60055460ff1681565b600154600160a060020a031681565b600054600154604080517ff66afcac000000000000000000000000000000000000000000000000000000008152336004820152600160a060020a0393841660248201529290911660448301525173__AOLibrary_____________________________9163f66afcac916064808301926020929190829003018186803b15801561091057600080fd5b505af4158015610924573d6000803e3d6000fd5b505050506040513d602081101561093a57600080fd5b5051151561094757600080fd5b600160a060020a038216151561095c57600080fd5b600160a060020a03919091166000908152600260205260409020805460ff1916911515919091179055565b600054600154604080517ff66afcac000000000000000000000000000000000000000000000000000000008152336004820152600160a060020a0393841660248201529290911660448301525173__AOLibrary_____________________________9163f66afcac916064808301926020929190829003018186803b158015610a0f57600080fd5b505af4158015610a23573d6000803e3d6000fd5b505050506040513d6020811015610a3957600080fd5b50511515610a4657600080fd5b600160a060020a0381161515610a5b57600080fd5b6001805473ffffffffffffffffffffffffffffffffffffffff1916600160a060020a0392909216919091179055565b600e6020526000908152604090205481565b60086020526000908152604090205481565b600a6020526000908152604090205481565b3360009081526002602052604081205460ff161515600114610ae157600080fd5b8273__AOLibrary_____________________________632d706a34826040518263ffffffff1660e060020a0281526004018082600160a060020a0316600160a060020a0316815260200191505060206040518083038186803b158015610b4657600080fd5b505af4158015610b5a573d6000803e3d6000fd5b505050506040513d6020811015610b7057600080fd5b505180610c0257506040805160e260020a630bf29505028152600160a060020a0383166004820152905173__AOLibrary_____________________________91632fca5414916024808301926020929190829003018186803b158015610bd557600080fd5b505af4158015610be9573d6000803e3d6000fd5b505050506040513d6020811015610bff57600080fd5b50515b1515610c0d57600080fd5b610c178484612148565b5060019392505050565b600d60209081526000928352604080842090915290825290205481565b6004805460408051602060026001851615610100026000190190941693909304601f810184900484028201840190925281815292918301828280156105af5780601f10610584576101008083540402835291602001916105af565b33600090815260026020526040812054819060ff161515600114610cbc57600080fd5b8373__AOLibrary_____________________________632fca5414826040518263ffffffff1660e060020a0281526004018082600160a060020a0316600160a060020a0316815260200191505060206040518083038186803b158015610d2157600080fd5b505af4158015610d35573d6000803e3d6000fd5b505050506040513d6020811015610d4b57600080fd5b50511515610d5857600080fd5b60008411610d6557600080fd5b600954604080517ffd6f4137000000000000000000000000000000000000000000000000000000008152600160a060020a0388811660048301529151919092169163fd6f41379160248083019260209291908290030181600087803b158015610dcd57600080fd5b505af1158015610de1573d6000803e3d6000fd5b505050506040513d6020811015610df757600080fd5b5051600160a060020a038082166000908152600d60209081526040808320938a1683529290522054909250610e32908563ffffffff61221c16565b600160a060020a038084166000818152600d60209081526040808320948b16835293815283822094909455908152600e909252902054610e78908563ffffffff61221c16565b600160a060020a038084166000818152600e602090815260409182902094909455805188815290519289169391927ffbb909cfb1cebddaa90dc958d2d9d96a684866cda33bfd311711fd76f88def0a929181900390910190a3506001949350505050565b60008173__AOLibrary_____________________________632d706a34826040518263ffffffff1660e060020a0281526004018082600160a060020a0316600160a060020a0316815260200191505060206040518083038186803b158015610f4357600080fd5b505af4158015610f57573d6000803e3d6000fd5b505050506040513d6020811015610f6d57600080fd5b505180610fff57506040805160e260020a630bf29505028152600160a060020a0383166004820152905173__AOLibrary_____________________________91632fca5414916024808301926020929190829003018186803b158015610fd257600080fd5b505af4158015610fe6573d6000803e3d6000fd5b505050506040513d6020811015610ffc57600080fd5b50515b151561100a57600080fd5b600160a060020a0383166000908152600e6020908152604080832054600a8352818420546008909352922054611057929161104b919063ffffffff61221c16565b9063ffffffff61221c16565b9392505050565b60026020526000908152604090205460ff1681565b600054600160a060020a031681565b3360009081526002602052604081205460ff1615156001146110a357600080fd5b600160a060020a0383166000908152600860205260409020548211156110c857600080fd5b600160a060020a0383166000908152600860205260409020546110f1908363ffffffff61222f16565b600160a060020a03841660009081526008602052604090205560075461111d908363ffffffff61222f16565b600755604080518381529051600160a060020a038516917fcc16f5dbb4873280815c1ee09dbd06736cffcc184412cf7a71a0fdb75d397ca5919081900360200190a250600192915050565b6000806000808673__AOLibrary_____________________________632d706a34826040518263ffffffff1660e060020a0281526004018082600160a060020a0316600160a060020a0316815260200191505060206040518083038186803b1580156111d357600080fd5b505af41580156111e7573d6000803e3d6000fd5b505050506040513d60208110156111fd57600080fd5b5051151561120a57600080fd5b8673__AOLibrary_____________________________632d706a34826040518263ffffffff1660e060020a0281526004018082600160a060020a0316600160a060020a0316815260200191505060206040518083038186803b15801561126f57600080fd5b505af4158015611283573d6000803e3d6000fd5b505050506040513d602081101561129957600080fd5b505115156112a657600080fd5b600954604080517f71ce52ed000000000000000000000000000000000000000000000000000000008152336004820152600160a060020a03808d16602483015291518c9392909216916371ce52ed916044808201926020929091908290030181600087803b15801561131757600080fd5b505af115801561132b573d6000803e3d6000fd5b505050506040513d602081101561134157600080fd5b5051151561134e57600080fd5b600160a060020a038a8116908a16141561136757600080fd5b600160a060020a03808b166000908152600b60209081526040808320938d168352929052205488111561139957600080fd5b600160a060020a03808b166000818152600c6020908152604080832054948e168352600a825280832054938352600890915290205491975095506113e3908763ffffffff61222f16565b600160a060020a03808c166000908152600b60209081526040808320938e168352929052205490945061141c908963ffffffff61222f16565b600160a060020a03808c166000818152600b60209081526040808320948f16835293815283822094909455908152600c909252902054611462908963ffffffff61222f16565b600160a060020a03808c166000908152600c6020908152604080832094909455918c168152600a909152205461149e908963ffffffff61222f16565b600160a060020a03808b166000818152600a60209081526040918290209490945580518c815290519193928e16927f4062ffbe4dc631454bf05254af9c69f7be3ad81eea47c870de77ad1d5f60192b92918290030190a3600160a060020a038a166000908152600c60205260409020548690611520908a63ffffffff61221c16565b1461152757fe5b600160a060020a0389166000908152600a60205260409020548590611552908a63ffffffff61221c16565b1461155957fe5b600160a060020a038a166000908152600c60209081526040808320546008909252909120548591611590919063ffffffff61222f16565b101561159857fe5b5060019998505050505050505050565b600c6020526000908152604090205481565b33600090815260026020526040812054819060ff1615156001146115dd57600080fd5b8473__AOLibrary_____________________________632d706a34826040518263ffffffff1660e060020a0281526004018082600160a060020a0316600160a060020a0316815260200191505060206040518083038186803b15801561164257600080fd5b505af4158015611656573d6000803e3d6000fd5b505050506040513d602081101561166c57600080fd5b5051151561167957600080fd5b8473__AOLibrary_____________________________632d706a34826040518263ffffffff1660e060020a0281526004018082600160a060020a0316600160a060020a0316815260200191505060206040518083038186803b1580156116de57600080fd5b505af41580156116f2573d6000803e3d6000fd5b505050506040513d602081101561170857600080fd5b5051151561171557600080fd5b8473__AOLibrary_____________________________632fca5414826040518263ffffffff1660e060020a0281526004018082600160a060020a0316600160a060020a0316815260200191505060206040518083038186803b15801561177a57600080fd5b505af415801561178e573d6000803e3d6000fd5b505050506040513d60208110156117a457600080fd5b505115156117b157600080fd5b600954604080517f058af982000000000000000000000000000000000000000000000000000000008152600160a060020a038a8116600483015289811660248301529151919092169163058af9829160448083019260209291908290030181600087803b15801561182157600080fd5b505af1158015611835573d6000803e3d6000fd5b505050506040513d602081101561184b57600080fd5b5051151561185857600080fd5b600160a060020a038089166000908152600d60209081526040808320938a168352929052908120541161188a57600080fd5b600160a060020a038089166000818152600d60209081526040808320948b16835293815283822054928252600e9052919091205410156118c957600080fd5b600160a060020a038881166000908152600d60209081526040808320938a168352929052205493506118fb848061222f565b600160a060020a03808a166000818152600d60209081526040808320948c16835293815283822094909455908152600e909252902054611941908563ffffffff61222f16565b600160a060020a03808a166000908152600e60209081526040808320949094558a83168252600d8152838220928a168252919091522054611988908563ffffffff61221c16565b600160a060020a038089166000818152600d60209081526040808320948c16835293815283822094909455908152600e9092529020546119ce908563ffffffff61221c16565b600160a060020a038089166000818152600e602090815260409182902094909455805188815290518a84169492938d16927f8b4613e05fc7236bc627dca2e0fadecd777022c54627f6a5212ccc5ac02e7158928290030190a4506001979650505050505050565b6000806000808673__AOLibrary_____________________________632d706a34826040518263ffffffff1660e060020a0281526004018082600160a060020a0316600160a060020a0316815260200191505060206040518083038186803b158015611aa057600080fd5b505af4158015611ab4573d6000803e3d6000fd5b505050506040513d6020811015611aca57600080fd5b50511515611ad757600080fd5b8673__AOLibrary_____________________________632d706a34826040518263ffffffff1660e060020a0281526004018082600160a060020a0316600160a060020a0316815260200191505060206040518083038186803b158015611b3c57600080fd5b505af4158015611b50573d6000803e3d6000fd5b505050506040513d6020811015611b6657600080fd5b50511515611b7357600080fd5b600954604080517f71ce52ed000000000000000000000000000000000000000000000000000000008152336004820152600160a060020a03808d16602483015291518c9392909216916371ce52ed916044808201926020929091908290030181600087803b158015611be457600080fd5b505af1158015611bf8573d6000803e3d6000fd5b505050506040513d6020811015611c0e57600080fd5b50511515611c1b57600080fd5b600160a060020a038a8116908a161415611c3457600080fd5b600160a060020a038a166000908152600c60209081526040808320546008909252909120548991611c6b919063ffffffff61222f16565b1015611c7657600080fd5b600160a060020a0389166000908152600a6020526040902054611c9f818a63ffffffff61221c16565b1015611caa57600080fd5b600160a060020a03808b166000818152600c6020908152604080832054948e168352600a82528083205493835260089091529020549197509550611cf4908763ffffffff61222f16565b600160a060020a03808c166000908152600b60209081526040808320938e1683529290522054909450611d2d908963ffffffff61221c16565b600160a060020a03808c166000818152600b60209081526040808320948f16835293815283822094909455908152600c909252902054611d73908963ffffffff61221c16565b600160a060020a03808c166000908152600c6020908152604080832094909455918c168152600a9091522054611daf908963ffffffff61221c16565b600160a060020a03808b166000818152600a60209081526040918290209490945580518c815290519193928e16927faa8842001e980c78016b1aeb01672b78a6e676667f9f43b8d3c78ac8b7233b6392918290030190a3600160a060020a038a166000908152600c60205260409020548690611e31908a63ffffffff61222f16565b14611e3857fe5b600160a060020a0389166000908152600a60205260409020548590611e63908a63ffffffff61222f16565b14611e6a57fe5b600160a060020a038a166000908152600c60209081526040808320546008909252909120548591611ea1919063ffffffff61222f16565b111561159857fe5b600054600154604080517ff66afcac000000000000000000000000000000000000000000000000000000008152336004820152600160a060020a0393841660248201529290911660448301525173__AOLibrary_____________________________9163f66afcac916064808301926020929190829003018186803b158015611f3157600080fd5b505af4158015611f45573d6000803e3d6000fd5b505050506040513d6020811015611f5b57600080fd5b50511515611f6857600080fd5b600160a060020a0381161515611f7d57600080fd5b6000805473ffffffffffffffffffffffffffffffffffffffff1916600160a060020a0392909216919091179055565b6000600160a060020a0383161515611fc357600080fd5b600160a060020a038416600090815260086020526040902054821115611fe857600080fd5b600160a060020a038316600090815260086020526040902054612011818463ffffffff61221c16565b101561201c57600080fd5b600160a060020a0380841660009081526008602052604080822054928716825290205461204e9163ffffffff61221c16565b600160a060020a03851660009081526008602052604090205490915061207a908363ffffffff61222f16565b600160a060020a0380861660009081526008602052604080822093909355908516815220546120af908363ffffffff61221c16565b600160a060020a0380851660008181526008602090815260409182902094909455805186815290519193928816927fddf252ad1be2c89b69c2b068fc378daa952ba7f163c4a11628f55a4df523b3ef92918290030190a3600160a060020a03808416600090815260086020526040808220549287168252902054829161213b919063ffffffff61221c16565b1461214257fe5b50505050565b600160a060020a038216600090815260086020526040902054612171908263ffffffff61221c16565b600160a060020a03831660009081526008602052604090205560075461219d908263ffffffff61221c16565b60075560408051828152905130916000917fddf252ad1be2c89b69c2b068fc378daa952ba7f163c4a11628f55a4df523b3ef9181900360200190a3604080518281529051600160a060020a0384169130917fddf252ad1be2c89b69c2b068fc378daa952ba7f163c4a11628f55a4df523b3ef9181900360200190a35050565b8181018281101561222957fe5b92915050565b60008282111561223b57fe5b509003905600a165627a7a72305820742aa94fff32c7cf03404a8975e1cc49f3d4b96b427ba7ef4b4c8a18d064f75c0029",
	"source": "pragma solidity ^0.4.24;\n\nimport \"./Logos.sol\";\n\ncontract LogosGiga is Logos {\n\t/**\n\t * @dev Constructor function\n\t */\n\tconstructor(uint256 initialSupply, string tokenName, string tokenSymbol, address _nameTAOPositionAddress)\n\t\tLogos(initialSupply, tokenName, tokenSymbol, _nameTAOPositionAddress) public {\n\t\tpowerOfTen = 9;\n\t\tdecimals = 9;\n\t}\n}\n",
	"sourcePath": "/Users/johanmulyono/Work/AO/ao-contracts/contracts/LogosGiga.sol",
	"compiler": {
		"name": "solc",
		"version": "0.4.24+commit.e67f0147.Emscripten.clang"
	},
	"schemaVersion": "2.0.1",
	"updatedAt": "2019-01-07T03:04:13.041Z"
}