{
	"contractName": "NameTAOPosition",
	"abi": [
		{
			"constant": true,
			"inputs": [],
			"name": "nameTAOPositionAddress",
			"outputs": [
				{
					"name": "",
					"type": "address"
				}
			],
			"payable": false,
			"stateMutability": "view",
			"type": "function"
		},
		{
			"constant": true,
			"inputs": [
				{
					"name": "",
					"type": "address"
				}
			],
			"name": "whitelist",
			"outputs": [
				{
					"name": "",
					"type": "bool"
				}
			],
			"payable": false,
			"stateMutability": "view",
			"type": "function"
		},
		{
			"constant": true,
			"inputs": [],
			"name": "theAO",
			"outputs": [
				{
					"name": "",
					"type": "address"
				}
			],
			"payable": false,
			"stateMutability": "view",
			"type": "function"
		},
		{
			"constant": true,
			"inputs": [],
			"name": "nameFactoryAddress",
			"outputs": [
				{
					"name": "",
					"type": "address"
				}
			],
			"payable": false,
			"stateMutability": "view",
			"type": "function"
		},
		{
			"constant": true,
			"inputs": [],
			"name": "taoFactoryAddress",
			"outputs": [
				{
					"name": "",
					"type": "address"
				}
			],
			"payable": false,
			"stateMutability": "view",
			"type": "function"
		},
		{
			"inputs": [
				{
					"name": "_nameFactoryAddress",
					"type": "address"
				}
			],
			"payable": false,
			"stateMutability": "nonpayable",
			"type": "constructor"
		},
		{
			"anonymous": false,
			"inputs": [
				{
					"indexed": true,
					"name": "taoId",
					"type": "address"
				},
				{
					"indexed": false,
					"name": "oldAdvocateId",
					"type": "address"
				},
				{
					"indexed": false,
					"name": "newAdvocateId",
					"type": "address"
				},
				{
					"indexed": false,
					"name": "nonce",
					"type": "uint256"
				}
			],
			"name": "SetAdvocate",
			"type": "event"
		},
		{
			"anonymous": false,
			"inputs": [
				{
					"indexed": true,
					"name": "taoId",
					"type": "address"
				},
				{
					"indexed": false,
					"name": "oldListenerId",
					"type": "address"
				},
				{
					"indexed": false,
					"name": "newListenerId",
					"type": "address"
				},
				{
					"indexed": false,
					"name": "nonce",
					"type": "uint256"
				}
			],
			"name": "SetListener",
			"type": "event"
		},
		{
			"anonymous": false,
			"inputs": [
				{
					"indexed": true,
					"name": "taoId",
					"type": "address"
				},
				{
					"indexed": false,
					"name": "oldSpeakerId",
					"type": "address"
				},
				{
					"indexed": false,
					"name": "newSpeakerId",
					"type": "address"
				},
				{
					"indexed": false,
					"name": "nonce",
					"type": "uint256"
				}
			],
			"name": "SetSpeaker",
			"type": "event"
		},
		{
			"constant": false,
			"inputs": [
				{
					"name": "_theAO",
					"type": "address"
				}
			],
			"name": "transferOwnership",
			"outputs": [],
			"payable": false,
			"stateMutability": "nonpayable",
			"type": "function"
		},
		{
			"constant": false,
			"inputs": [
				{
					"name": "_account",
					"type": "address"
				},
				{
					"name": "_whitelist",
					"type": "bool"
				}
			],
			"name": "setWhitelist",
			"outputs": [],
			"payable": false,
			"stateMutability": "nonpayable",
			"type": "function"
		},
		{
			"constant": false,
			"inputs": [
				{
					"name": "_taoFactoryAddress",
					"type": "address"
				}
			],
			"name": "setTAOFactoryAddress",
			"outputs": [],
			"payable": false,
			"stateMutability": "nonpayable",
			"type": "function"
		},
		{
			"constant": true,
			"inputs": [
				{
					"name": "_id",
					"type": "address"
				}
			],
			"name": "isExist",
			"outputs": [
				{
					"name": "",
					"type": "bool"
				}
			],
			"payable": false,
			"stateMutability": "view",
			"type": "function"
		},
		{
			"constant": true,
			"inputs": [
				{
					"name": "_sender",
					"type": "address"
				},
				{
					"name": "_id",
					"type": "address"
				}
			],
			"name": "senderIsAdvocate",
			"outputs": [
				{
					"name": "",
					"type": "bool"
				}
			],
			"payable": false,
			"stateMutability": "view",
			"type": "function"
		},
		{
			"constant": true,
			"inputs": [
				{
					"name": "_sender",
					"type": "address"
				},
				{
					"name": "_id",
					"type": "address"
				}
			],
			"name": "senderIsPosition",
			"outputs": [
				{
					"name": "",
					"type": "bool"
				}
			],
			"payable": false,
			"stateMutability": "view",
			"type": "function"
		},
		{
			"constant": true,
			"inputs": [
				{
					"name": "_nameId",
					"type": "address"
				},
				{
					"name": "_id",
					"type": "address"
				}
			],
			"name": "nameIsAdvocate",
			"outputs": [
				{
					"name": "",
					"type": "bool"
				}
			],
			"payable": false,
			"stateMutability": "view",
			"type": "function"
		},
		{
			"constant": true,
			"inputs": [
				{
					"name": "_sender",
					"type": "address"
				},
				{
					"name": "_id",
					"type": "address"
				}
			],
			"name": "determinePosition",
			"outputs": [
				{
					"name": "",
					"type": "uint256"
				}
			],
			"payable": false,
			"stateMutability": "view",
			"type": "function"
		},
		{
			"constant": false,
			"inputs": [
				{
					"name": "_id",
					"type": "address"
				},
				{
					"name": "_advocateId",
					"type": "address"
				},
				{
					"name": "_listenerId",
					"type": "address"
				},
				{
					"name": "_speakerId",
					"type": "address"
				}
			],
			"name": "add",
			"outputs": [
				{
					"name": "",
					"type": "bool"
				}
			],
			"payable": false,
			"stateMutability": "nonpayable",
			"type": "function"
		},
		{
			"constant": true,
			"inputs": [
				{
					"name": "_id",
					"type": "address"
				}
			],
			"name": "getPositionById",
			"outputs": [
				{
					"name": "",
					"type": "address"
				},
				{
					"name": "",
					"type": "address"
				},
				{
					"name": "",
					"type": "address"
				}
			],
			"payable": false,
			"stateMutability": "view",
			"type": "function"
		},
		{
			"constant": true,
			"inputs": [
				{
					"name": "_id",
					"type": "address"
				}
			],
			"name": "getAdvocate",
			"outputs": [
				{
					"name": "",
					"type": "address"
				}
			],
			"payable": false,
			"stateMutability": "view",
			"type": "function"
		},
		{
			"constant": true,
			"inputs": [
				{
					"name": "_id",
					"type": "address"
				}
			],
			"name": "getListener",
			"outputs": [
				{
					"name": "",
					"type": "address"
				}
			],
			"payable": false,
			"stateMutability": "view",
			"type": "function"
		},
		{
			"constant": true,
			"inputs": [
				{
					"name": "_id",
					"type": "address"
				}
			],
			"name": "getSpeaker",
			"outputs": [
				{
					"name": "",
					"type": "address"
				}
			],
			"payable": false,
			"stateMutability": "view",
			"type": "function"
		},
		{
			"constant": false,
			"inputs": [
				{
					"name": "_taoId",
					"type": "address"
				},
				{
					"name": "_newAdvocateId",
					"type": "address"
				}
			],
			"name": "setAdvocate",
			"outputs": [],
			"payable": false,
			"stateMutability": "nonpayable",
			"type": "function"
		},
		{
			"constant": false,
			"inputs": [
				{
					"name": "_id",
					"type": "address"
				},
				{
					"name": "_newListenerId",
					"type": "address"
				}
			],
			"name": "setListener",
			"outputs": [],
			"payable": false,
			"stateMutability": "nonpayable",
			"type": "function"
		},
		{
			"constant": false,
			"inputs": [
				{
					"name": "_id",
					"type": "address"
				},
				{
					"name": "_newSpeakerId",
					"type": "address"
				}
			],
			"name": "setSpeaker",
			"outputs": [],
			"payable": false,
			"stateMutability": "nonpayable",
			"type": "function"
		}
	],
	"bytecode": "0x608060405234801561001057600080fd5b506040516020806121db833981016040525160008054600160a060020a0319908116331790915560038054600160a060020a03909316928216831790556005805482169092179091556001805490911630179055612168806100736000396000f3006080604052600436106101025763ffffffff60e060020a60003504166213eb4b8114610107578063058af9821461013c5780632191207a1461016357806329981db4146101865780632cfed9f0146101ad5780634926248f146101d45780634ef033f0146101fb57806353d6fd591461022c5780635baf039f146102525780636fb487fc1461028557806371ce52ed146102a65780637a1d66dd146102cd5780639b19251a14610306578063a9b6b38e14610327578063bc4062061461033c578063d8a0aa6c14610351578063e2c8e54a1461039d578063f203c857146103c4578063f2fde38b146103e5578063fd6f413714610406578063ff0374b514610427575b600080fd5b34801561011357600080fd5b50610128600160a060020a036004351661043c565b604080519115158252519081900360200190f35b34801561014857600080fd5b50610128600160a060020a0360043581169060243516610464565b34801561016f57600080fd5b50610184600160a060020a03600435166104b9565b005b34801561019257600080fd5b50610184600160a060020a03600435811690602435166105c6565b3480156101b957600080fd5b50610184600160a060020a03600435811690602435166108c3565b3480156101e057600080fd5b50610184600160a060020a0360043581169060243516610e9f565b34801561020757600080fd5b5061021061147b565b60408051600160a060020a039092168252519081900360200190f35b34801561023857600080fd5b50610184600160a060020a0360043516602435151561148a565b34801561025e57600080fd5b50610128600160a060020a0360043581169060243581169060443581169060643516611589565b34801561029157600080fd5b50610210600160a060020a0360043516611a7a565b3480156102b257600080fd5b50610128600160a060020a0360043581169060243516611af8565b3480156102d957600080fd5b506102f4600160a060020a0360043581169060243516611bca565b60408051918252519081900360200190f35b34801561031257600080fd5b50610128600160a060020a0360043516611d05565b34801561033357600080fd5b50610210611d1a565b34801561034857600080fd5b50610210611d29565b34801561035d57600080fd5b50610372600160a060020a0360043516611d38565b60408051600160a060020a039485168152928416602084015292168183015290519081900360600190f35b3480156103a957600080fd5b50610128600160a060020a0360043581169060243516611dbf565b3480156103d057600080fd5b50610210600160a060020a0360043516611f04565b3480156103f157600080fd5b50610184600160a060020a0360043516611f83565b34801561041257600080fd5b50610210600160a060020a0360043516612086565b34801561043357600080fd5b50610210612106565b600160a060020a031660009081526007602052604090206002015460a060020a900460ff1690565b600160a060020a03811660009081526007602052604081206002015460a060020a900460ff1680156104b25750600160a060020a038281166000908152600760205260409020548116908416145b9392505050565b600054600154604080517ff66afcac000000000000000000000000000000000000000000000000000000008152336004820152600160a060020a0393841660248201529290911660448301525173__AOLibrary_____________________________9163f66afcac916064808301926020929190829003018186803b15801561054157600080fd5b505af4158015610555573d6000803e3d6000fd5b505050506040513d602081101561056b57600080fd5b5051151561057857600080fd5b600160a060020a038116151561058d57600080fd5b60048054600160a060020a0390921673ffffffffffffffffffffffffffffffffffffffff19928316811790915560068054909216179055565b60008060008473__AOLibrary_____________________________632fca5414826040518263ffffffff1660e060020a0281526004018082600160a060020a0316600160a060020a0316815260200191505060206040518083038186803b15801561063057600080fd5b505af4158015610644573d6000803e3d6000fd5b505050506040513d602081101561065a57600080fd5b5051151561066757600080fd5b8473__AOLibrary_____________________________632d706a34826040518263ffffffff1660e060020a0281526004018082600160a060020a0316600160a060020a0316815260200191505060206040518083038186803b1580156106cc57600080fd5b505af41580156106e0573d6000803e3d6000fd5b505050506040513d60208110156106f657600080fd5b5051151561070357600080fd5b6005546040805160e060020a63029b7d530281523360048201529051600092600160a060020a03169163029b7d5391602480830192602092919082900301818787803b15801561075257600080fd5b505af1158015610766573d6000803e3d6000fd5b505050506040513d602081101561077c57600080fd5b5051600160a060020a0316141561079257600080fd5b8661079d3382611af8565b15156107a857600080fd5b600160a060020a03808916600081815260076020908152604080832080548d871673ffffffffffffffffffffffffffffffffffffffff198216178255600654835160e260020a633d5d0f1302815260048101979097529251919c5086169a5094169363f5743c4c93602480820194918390030190829087803b15801561082d57600080fd5b505af1158015610841573d6000803e3d6000fd5b505050506040513d602081101561085757600080fd5b505193506000841161086857600080fd5b855460408051600160a060020a03888116825292831660208201528082018790529051918a16917f7883860d48d58f44441bf70d860a25ba5bb7f97cddbb6f0d85a3e1fe0f7f184e9181900360600190a25050505050505050565b6000806000808573__AOLibrary_____________________________632d706a34826040518263ffffffff1660e060020a0281526004018082600160a060020a0316600160a060020a0316815260200191505060206040518083038186803b15801561092e57600080fd5b505af4158015610942573d6000803e3d6000fd5b505050506040513d602081101561095857600080fd5b5051806109ea57506040805160e260020a630bf29505028152600160a060020a0383166004820152905173__AOLibrary_____________________________91632fca5414916024808301926020929190829003018186803b1580156109bd57600080fd5b505af41580156109d1573d6000803e3d6000fd5b505050506040513d60208110156109e757600080fd5b50515b15156109f557600080fd5b8573__AOLibrary_____________________________632d706a34826040518263ffffffff1660e060020a0281526004018082600160a060020a0316600160a060020a0316815260200191505060206040518083038186803b158015610a5a57600080fd5b505af4158015610a6e573d6000803e3d6000fd5b505050506040513d6020811015610a8457600080fd5b505180610b1657506040805160e260020a630bf29505028152600160a060020a0383166004820152905173__AOLibrary_____________________________91632fca5414916024808301926020929190829003018186803b158015610ae957600080fd5b505af4158015610afd573d6000803e3d6000fd5b505050506040513d6020811015610b1357600080fd5b50515b1515610b2157600080fd5b6005546040805160e060020a63029b7d530281523360048201529051600092600160a060020a03169163029b7d5391602480830192602092919082900301818787803b158015610b7057600080fd5b505af1158015610b84573d6000803e3d6000fd5b505050506040513d6020811015610b9a57600080fd5b5051600160a060020a03161415610bb057600080fd5b87610bbb3382611af8565b1515610bc657600080fd5b6040805160e260020a630b5c1a8d028152600160a060020a038b16600482015290516000985073__AOLibrary_____________________________91632d706a34916024808301926020929190829003018186803b158015610c2757600080fd5b505af4158015610c3b573d6000803e3d6000fd5b505050506040513d6020811015610c5157600080fd5b505115610cf0576040805160e260020a630b5c1a8d028152600160a060020a038a16600482015290516001985073__AOLibrary_____________________________91632d706a34916024808301926020929190829003018186803b158015610cb957600080fd5b505af4158015610ccd573d6000803e3d6000fd5b505050506040513d6020811015610ce357600080fd5b50511515610cf057600080fd5b600160a060020a03808a1660009081526007602052604090206002810180548b841673ffffffffffffffffffffffffffffffffffffffff198216179091559097501694508615610dbf576005546040805160e260020a633d5d0f13028152600160a060020a038c811660048301529151919092169163f5743c4c9160248083019260209291908290030181600087803b158015610d8c57600080fd5b505af1158015610da0573d6000803e3d6000fd5b505050506040513d6020811015610db657600080fd5b50519350610e40565b6006546040805160e260020a633d5d0f13028152600160a060020a038c811660048301529151919092169163f5743c4c9160248083019260209291908290030181600087803b158015610e1157600080fd5b505af1158015610e25573d6000803e3d6000fd5b505050506040513d6020811015610e3b57600080fd5b505193505b600286015460408051600160a060020a03888116825292831660208201528082018790529051918b16917fe60c26cbb956b589a247aabcdf98ec9be5509ac7ee76c3508b41647fa1457eca9181900360600190a2505050505050505050565b6000806000808573__AOLibrary_____________________________632d706a34826040518263ffffffff1660e060020a0281526004018082600160a060020a0316600160a060020a0316815260200191505060206040518083038186803b158015610f0a57600080fd5b505af4158015610f1e573d6000803e3d6000fd5b505050506040513d6020811015610f3457600080fd5b505180610fc657506040805160e260020a630bf29505028152600160a060020a0383166004820152905173__AOLibrary_____________________________91632fca5414916024808301926020929190829003018186803b158015610f9957600080fd5b505af4158015610fad573d6000803e3d6000fd5b505050506040513d6020811015610fc357600080fd5b50515b1515610fd157600080fd5b8573__AOLibrary_____________________________632d706a34826040518263ffffffff1660e060020a0281526004018082600160a060020a0316600160a060020a0316815260200191505060206040518083038186803b15801561103657600080fd5b505af415801561104a573d6000803e3d6000fd5b505050506040513d602081101561106057600080fd5b5051806110f257506040805160e260020a630bf29505028152600160a060020a0383166004820152905173__AOLibrary_____________________________91632fca5414916024808301926020929190829003018186803b1580156110c557600080fd5b505af41580156110d9573d6000803e3d6000fd5b505050506040513d60208110156110ef57600080fd5b50515b15156110fd57600080fd5b6005546040805160e060020a63029b7d530281523360048201529051600092600160a060020a03169163029b7d5391602480830192602092919082900301818787803b15801561114c57600080fd5b505af1158015611160573d6000803e3d6000fd5b505050506040513d602081101561117657600080fd5b5051600160a060020a0316141561118c57600080fd5b876111973382611af8565b15156111a257600080fd5b6040805160e260020a630b5c1a8d028152600160a060020a038b16600482015290516000985073__AOLibrary_____________________________91632d706a34916024808301926020929190829003018186803b15801561120357600080fd5b505af4158015611217573d6000803e3d6000fd5b505050506040513d602081101561122d57600080fd5b5051156112cc576040805160e260020a630b5c1a8d028152600160a060020a038a16600482015290516001985073__AOLibrary_____________________________91632d706a34916024808301926020929190829003018186803b15801561129557600080fd5b505af41580156112a9573d6000803e3d6000fd5b505050506040513d60208110156112bf57600080fd5b505115156112cc57600080fd5b600160a060020a03808a1660009081526007602052604090206001810180548b841673ffffffffffffffffffffffffffffffffffffffff19821617909155909750169450861561139b576005546040805160e260020a633d5d0f13028152600160a060020a038c811660048301529151919092169163f5743c4c9160248083019260209291908290030181600087803b15801561136857600080fd5b505af115801561137c573d6000803e3d6000fd5b505050506040513d602081101561139257600080fd5b5051935061141c565b6006546040805160e260020a633d5d0f13028152600160a060020a038c811660048301529151919092169163f5743c4c9160248083019260209291908290030181600087803b1580156113ed57600080fd5b505af1158015611401573d6000803e3d6000fd5b505050506040513d602081101561141757600080fd5b505193505b600186015460408051600160a060020a03888116825292831660208201528082018790529051918b16917f2e81a908b9dece3c9a64e14f5daaa72174a5403092f82ab988ba4cc14b1390029181900360600190a2505050505050505050565b600154600160a060020a031681565b600054600154604080517ff66afcac000000000000000000000000000000000000000000000000000000008152336004820152600160a060020a0393841660248201529290911660448301525173__AOLibrary_____________________________9163f66afcac916064808301926020929190829003018186803b15801561151257600080fd5b505af4158015611526573d6000803e3d6000fd5b505050506040513d602081101561153c57600080fd5b5051151561154957600080fd5b600160a060020a038216151561155e57600080fd5b600160a060020a03919091166000908152600260205260409020805460ff1916911515919091179055565b6000808573__AOLibrary_____________________________632d706a34826040518263ffffffff1660e060020a0281526004018082600160a060020a0316600160a060020a0316815260200191505060206040518083038186803b1580156115f157600080fd5b505af4158015611605573d6000803e3d6000fd5b505050506040513d602081101561161b57600080fd5b5051806116ad57506040805160e260020a630bf29505028152600160a060020a0383166004820152905173__AOLibrary_____________________________91632fca5414916024808301926020929190829003018186803b15801561168057600080fd5b505af4158015611694573d6000803e3d6000fd5b505050506040513d60208110156116aa57600080fd5b50515b15156116b857600080fd5b8573__AOLibrary_____________________________632d706a34826040518263ffffffff1660e060020a0281526004018082600160a060020a0316600160a060020a0316815260200191505060206040518083038186803b15801561171d57600080fd5b505af4158015611731573d6000803e3d6000fd5b505050506040513d602081101561174757600080fd5b5051151561175457600080fd5b8573__AOLibrary_____________________________632d706a34826040518263ffffffff1660e060020a0281526004018082600160a060020a0316600160a060020a0316815260200191505060206040518083038186803b1580156117b957600080fd5b505af41580156117cd573d6000803e3d6000fd5b505050506040513d60208110156117e357600080fd5b50518061187557506040805160e260020a630bf29505028152600160a060020a0383166004820152905173__AOLibrary_____________________________91632fca5414916024808301926020929190829003018186803b15801561184857600080fd5b505af415801561185c573d6000803e3d6000fd5b505050506040513d602081101561187257600080fd5b50515b151561188057600080fd5b8573__AOLibrary_____________________________632d706a34826040518263ffffffff1660e060020a0281526004018082600160a060020a0316600160a060020a0316815260200191505060206040518083038186803b1580156118e557600080fd5b505af41580156118f9573d6000803e3d6000fd5b505050506040513d602081101561190f57600080fd5b5051806119a157506040805160e260020a630bf29505028152600160a060020a0383166004820152905173__AOLibrary_____________________________91632fca5414916024808301926020929190829003018186803b15801561197457600080fd5b505af4158015611988573d6000803e3d6000fd5b505050506040513d602081101561199e57600080fd5b50515b15156119ac57600080fd5b600354600160a060020a03163314806119cf5750600454600160a060020a031633145b15156119da57600080fd5b6119e38a61043c565b156119ed57600080fd5b50505050600160a060020a039586166000908152600760205260409020805473ffffffffffffffffffffffffffffffffffffffff1990811696881696909617815560018082018054881696891696909617909555600201805460a060020a9616939096169290921774ff000000000000000000000000000000000000000019169390931790935592915050565b6000611a84612115565b611a8d8361043c565b1515611a9857600080fd5b5050600160a060020a039081166000908152600760209081526040918290208251608081018452815485168152600182015485169281018390526002909101549384169281019290925260a060020a90920460ff16151560609091015290565b600160a060020a03811660009081526007602052604081206002015460a060020a900460ff1680156104b257506005546040805160e060020a63029b7d53028152600160a060020a0386811660048301529151919092169163029b7d539160248083019260209291908290030181600087803b158015611b7757600080fd5b505af1158015611b8b573d6000803e3d6000fd5b505050506040513d6020811015611ba157600080fd5b5051600160a060020a038381166000908152600760205260409020548116911614905092915050565b6000611bd4612115565b6000611be08585611dbf565b1515611beb57600080fd5b600160a060020a038481166000908152600760209081526040808320815160808101835281548616815260018201548616818501526002909101548086168284015260a060020a900460ff1615156060820152600554825160e060020a63029b7d530281528b8716600482015292519197509094169363029b7d5393602480840194938390030190829087803b158015611c8457600080fd5b505af1158015611c98573d6000803e3d6000fd5b505050506040513d6020811015611cae57600080fd5b50518251909150600160a060020a0380831691161415611cd15760019250611cfd565b8160200151600160a060020a031681600160a060020a03161415611cf85760029250611cfd565b600392505b505092915050565b60026020526000908152604090205460ff1681565b600054600160a060020a031681565b600354600160a060020a031681565b6000806000611d45612115565b611d4e8561043c565b1515611d5957600080fd5b50505050600160a060020a039081166000908152600760209081526040918290208251608081018452815485168082526001830154861693820184905260029092015494851693810184905260a060020a90940460ff1615156060909401939093529192565b6005546040805160e060020a63029b7d53028152600160a060020a03858116600483015291516000938493169163029b7d5391602480830192602092919082900301818787803b158015611e1257600080fd5b505af1158015611e26573d6000803e3d6000fd5b505050506040513d6020811015611e3c57600080fd5b50519050600160a060020a0381161515611e595760009150611efd565b600160a060020a03831660009081526007602052604090206002015460a060020a900460ff168015611efa5750600160a060020a0383811660009081526007602052604090205481169082161480611ed05750600160a060020a038381166000908152600760205260409020600101548116908216145b80611efa5750600160a060020a038381166000908152600760205260409020600201548116908216145b91505b5092915050565b6000611f0e612115565b611f178361043c565b1515611f2257600080fd5b5050600160a060020a03908116600090815260076020908152604091829020825160808101845281548516815260018201548516928101929092526002015492831691810182905260a060020a90920460ff16151560609092019190915290565b600054600154604080517ff66afcac000000000000000000000000000000000000000000000000000000008152336004820152600160a060020a0393841660248201529290911660448301525173__AOLibrary_____________________________9163f66afcac916064808301926020929190829003018186803b15801561200b57600080fd5b505af415801561201f573d6000803e3d6000fd5b505050506040513d602081101561203557600080fd5b5051151561204257600080fd5b600160a060020a038116151561205757600080fd5b6000805473ffffffffffffffffffffffffffffffffffffffff1916600160a060020a0392909216919091179055565b6000612090612115565b6120998361043c565b15156120a457600080fd5b5050600160a060020a0390811660009081526007602090815260409182902082516080810184528154851680825260018301548616938201939093526002909101549384169281019290925260a060020a90920460ff16151560609091015290565b600454600160a060020a031681565b604080516080810182526000808252602082018190529181018290526060810191909152905600a165627a7a72305820bb292c771c05b8ada531fe74a7221a9d7730354ecf38be4b92bde88ed43a199f0029",
	"source": "pragma solidity ^0.4.24;\n\nimport './TheAO.sol';\nimport './AOLibrary.sol';\nimport './NameFactory.sol';\nimport './TAOFactory.sol';\n\n/**\n * @title NameTAOPosition\n */\ncontract NameTAOPosition is TheAO {\n\taddress public nameFactoryAddress;\n\taddress public taoFactoryAddress;\n\n\tNameFactory internal _nameFactory;\n\tTAOFactory internal _taoFactory;\n\n\tstruct PositionDetail {\n\t\taddress advocateId;\n\t\taddress listenerId;\n\t\taddress speakerId;\n\t\tbool created;\n\t}\n\n\tmapping (address => PositionDetail) internal positionDetails;\n\n\t// Event to be broadcasted to public when current Advocate of TAO sets New Advocate\n\tevent SetAdvocate(address indexed taoId, address oldAdvocateId, address newAdvocateId, uint256 nonce);\n\n\t// Event to be broadcasted to public when current Advocate of Name/TAO sets New Listener\n\tevent SetListener(address indexed taoId, address oldListenerId, address newListenerId, uint256 nonce);\n\n\t// Event to be broadcasted to public when current Advocate of Name/TAO sets New Speaker\n\tevent SetSpeaker(address indexed taoId, address oldSpeakerId, address newSpeakerId, uint256 nonce);\n\n\t/**\n\t * @dev Constructor function\n\t */\n\tconstructor(address _nameFactoryAddress) public {\n\t\tnameFactoryAddress = _nameFactoryAddress;\n\t\t_nameFactory = NameFactory(_nameFactoryAddress);\n\t\tnameTAOPositionAddress = address(this);\n\t}\n\n\t/**\n\t * @dev Checks if the calling contract address is The AO\n\t *\t\tOR\n\t *\t\tIf The AO is set to a Name/TAO, then check if calling address is the Advocate\n\t */\n\tmodifier onlyTheAO {\n\t\trequire (AOLibrary.isTheAO(msg.sender, theAO, nameTAOPositionAddress));\n\t\t_;\n\t}\n\n\t/**\n\t * @dev Check if calling address is Factory\n\t */\n\tmodifier onlyFactory {\n\t\trequire (msg.sender == nameFactoryAddress || msg.sender == taoFactoryAddress);\n\t\t_;\n\t}\n\n\t/**\n\t * @dev Check if `_taoId` is a TAO\n\t */\n\tmodifier isTAO(address _taoId) {\n\t\trequire (AOLibrary.isTAO(_taoId));\n\t\t_;\n\t}\n\n\t/**\n\t * @dev Check if `_nameId` is a Name\n\t */\n\tmodifier isName(address _nameId) {\n\t\trequire (AOLibrary.isName(_nameId));\n\t\t_;\n\t}\n\n\t/**\n\t * @dev Check if `_id` is a Name or a TAO\n\t */\n\tmodifier isNameOrTAO(address _id) {\n\t\trequire (AOLibrary.isName(_id) || AOLibrary.isTAO(_id));\n\t\t_;\n\t}\n\n\t/**\n\t * @dev Check is msg.sender address is a Name\n\t */\n\t modifier senderIsName() {\n\t\trequire (_nameFactory.ethAddressToNameId(msg.sender) != address(0));\n\t\t_;\n\t }\n\n\t/**\n\t * @dev Check if msg.sender is the current advocate of a Name/TAO ID\n\t */\n\tmodifier onlyAdvocate(address _id) {\n\t\trequire (senderIsAdvocate(msg.sender, _id));\n\t\t_;\n\t}\n\n\t/***** The AO ONLY METHODS *****/\n\t/**\n\t * @dev Transfer ownership of The AO to new address\n\t * @param _theAO The new address to be transferred\n\t */\n\tfunction transferOwnership(address _theAO) public onlyTheAO {\n\t\trequire (_theAO != address(0));\n\t\ttheAO = _theAO;\n\t}\n\n\t/**\n\t * @dev Whitelist `_account` address to transact on behalf of others\n\t * @param _account The address to whitelist\n\t * @param _whitelist Either to whitelist or not\n\t */\n\tfunction setWhitelist(address _account, bool _whitelist) public onlyTheAO {\n\t\trequire (_account != address(0));\n\t\twhitelist[_account] = _whitelist;\n\t}\n\n\t/**\n\t * @dev The AO set the taoFactoryAddress Address\n\t * @param _taoFactoryAddress The address of TAOFactory\n\t */\n\tfunction setTAOFactoryAddress(address _taoFactoryAddress) public onlyTheAO {\n\t\trequire (_taoFactoryAddress != address(0));\n\t\ttaoFactoryAddress = _taoFactoryAddress;\n\t\t_taoFactory = TAOFactory(_taoFactoryAddress);\n\t}\n\n\t/***** PUBLIC METHODS *****/\n\t/**\n\t * @dev Check whether or not a Name/TAO ID exist in the list\n\t * @param _id The ID to be checked\n\t * @return true if yes, false otherwise\n\t */\n\tfunction isExist(address _id) public view returns (bool) {\n\t\treturn positionDetails[_id].created;\n\t}\n\n\t/**\n\t * @dev Check whether or not eth address is advocate of _id\n\t * @param _sender The eth address to check\n\t * @param _id The ID to be checked\n\t * @return true if yes, false otherwise\n\t */\n\tfunction senderIsAdvocate(address _sender, address _id) public view returns (bool) {\n\t\treturn (positionDetails[_id].created && positionDetails[_id].advocateId == _nameFactory.ethAddressToNameId(_sender));\n\t}\n\n\t/**\n\t * @dev Check whether or not eth address is either Advocate/Listener/Speaker of _id\n\t * @param _sender The eth address to check\n\t * @param _id The ID to be checked\n\t * @return true if yes, false otherwise\n\t */\n\tfunction senderIsPosition(address _sender, address _id) public view returns (bool) {\n\t\taddress _nameId = _nameFactory.ethAddressToNameId(_sender);\n\t\tif (_nameId == address(0)) {\n\t\t\treturn false;\n\t\t} else {\n\t\t\treturn (positionDetails[_id].created &&\n\t\t\t\t(positionDetails[_id].advocateId == _nameId ||\n\t\t\t\t positionDetails[_id].listenerId == _nameId ||\n\t\t\t\t positionDetails[_id].speakerId == _nameId\n\t\t\t\t)\n\t\t\t);\n\t\t}\n\t}\n\n\t/**\n\t * @dev Check whether or not _nameId is advocate of _id\n\t * @param _nameId The name ID to be checked\n\t * @param _id The ID to be checked\n\t * @return true if yes, false otherwise\n\t */\n\tfunction nameIsAdvocate(address _nameId, address _id) public view returns (bool) {\n\t\treturn (positionDetails[_id].created && positionDetails[_id].advocateId == _nameId);\n\t}\n\n\t/**\n\t * @dev Determine whether or not `_sender` is Advocate/Listener/Speaker of the Name/TAO\n\t * @param _sender The ETH address that to check\n\t * @param _id The ID of the Name/TAO\n\t * @return 1 if Advocate. 2 if Listener. 3 if Speaker\n\t */\n\tfunction determinePosition(address _sender, address _id) public view returns (uint256) {\n\t\trequire (senderIsPosition(_sender, _id));\n\t\tPositionDetail memory _positionDetail = positionDetails[_id];\n\t\taddress _nameId = _nameFactory.ethAddressToNameId(_sender);\n\t\tif (_nameId == _positionDetail.advocateId) {\n\t\t\treturn 1;\n\t\t} else if (_nameId == _positionDetail.listenerId) {\n\t\t\treturn 2;\n\t\t} else {\n\t\t\treturn 3;\n\t\t}\n\t}\n\n\t/**\n\t * @dev Add Position for a Name/TAO\n\t * @param _id The ID of the Name/TAO\n\t * @param _advocateId The Advocate ID of the Name/TAO\n\t * @param _listenerId The Listener ID of the Name/TAO\n\t * @param _speakerId The Speaker ID of the Name/TAO\n\t * @return true on success\n\t */\n\tfunction add(address _id, address _advocateId, address _listenerId, address _speakerId)\n\t\tpublic\n\t\tisNameOrTAO(_id)\n\t\tisName(_advocateId)\n\t\tisNameOrTAO(_listenerId)\n\t\tisNameOrTAO(_speakerId)\n\t\tonlyFactory returns (bool) {\n\t\trequire (!isExist(_id));\n\n\t\tPositionDetail storage _positionDetail = positionDetails[_id];\n\t\t_positionDetail.advocateId = _advocateId;\n\t\t_positionDetail.listenerId = _listenerId;\n\t\t_positionDetail.speakerId = _speakerId;\n\t\t_positionDetail.created = true;\n\t\treturn true;\n\t}\n\n\t/**\n\t * @dev Get Name/TAO's Position info\n\t * @param _id The ID of the Name/TAO\n\t * @return the Advocate ID of Name/TAO\n\t * @return the Listener ID of Name/TAO\n\t * @return the Speaker ID of Name/TAO\n\t */\n\tfunction getPositionById(address _id) public view returns (address, address, address) {\n\t\trequire (isExist(_id));\n\t\tPositionDetail memory _positionDetail = positionDetails[_id];\n\t\treturn (\n\t\t\t_positionDetail.advocateId,\n\t\t\t_positionDetail.listenerId,\n\t\t\t_positionDetail.speakerId\n\t\t);\n\t}\n\n\t/**\n\t * @dev Get Name/TAO's Advocate\n\t * @param _id The ID of the Name/TAO\n\t * @return the Advocate ID of Name/TAO\n\t */\n\tfunction getAdvocate(address _id) public view returns (address) {\n\t\trequire (isExist(_id));\n\t\tPositionDetail memory _positionDetail = positionDetails[_id];\n\t\treturn _positionDetail.advocateId;\n\t}\n\n\t/**\n\t * @dev Get Name/TAO's Listener\n\t * @param _id The ID of the Name/TAO\n\t * @return the Listener ID of Name/TAO\n\t */\n\tfunction getListener(address _id) public view returns (address) {\n\t\trequire (isExist(_id));\n\t\tPositionDetail memory _positionDetail = positionDetails[_id];\n\t\treturn _positionDetail.listenerId;\n\t}\n\n\t/**\n\t * @dev Get Name/TAO's Speaker\n\t * @param _id The ID of the Name/TAO\n\t * @return the Speaker ID of Name/TAO\n\t */\n\tfunction getSpeaker(address _id) public view returns (address) {\n\t\trequire (isExist(_id));\n\t\tPositionDetail memory _positionDetail = positionDetails[_id];\n\t\treturn _positionDetail.speakerId;\n\t}\n\n\t/**\n\t * @dev Set Advocate for a TAO\n\t * @param _taoId The ID of the TAO\n\t * @param _newAdvocateId The new advocate ID to be set\n\t */\n\tfunction setAdvocate(address _taoId, address _newAdvocateId)\n\t\tpublic\n\t\tisTAO(_taoId)\n\t\tisName(_newAdvocateId)\n\t\tsenderIsName()\n\t\tonlyAdvocate(_taoId) {\n\n\t\tPositionDetail storage _positionDetail = positionDetails[_taoId];\n\t\taddress _currentAdvocateId = _positionDetail.advocateId;\n\t\t_positionDetail.advocateId = _newAdvocateId;\n\n\t\tuint256 _nonce = _taoFactory.incrementNonce(_taoId);\n\t\trequire (_nonce > 0);\n\t\temit SetAdvocate(_taoId, _currentAdvocateId, _positionDetail.advocateId, _nonce);\n\t}\n\n\t/**\n\t * @dev Set Listener for a Name/TAO\n\t * @param _id The ID of the Name/TAO\n\t * @param _newListenerId The new listener ID to be set\n\t */\n\tfunction setListener(address _id, address _newListenerId)\n\t\tpublic\n\t\tisNameOrTAO(_id)\n\t\tisNameOrTAO(_newListenerId)\n\t\tsenderIsName()\n\t\tonlyAdvocate(_id) {\n\n\t\t// If _id is a Name, then new Listener can only be a Name\n\t\t// If _id is a TAO, then new Listener can be a TAO/Name\n\t\tbool _isName = false;\n\t\tif (AOLibrary.isName(_id)) {\n\t\t\t_isName = true;\n\t\t\trequire (AOLibrary.isName(_newListenerId));\n\t\t}\n\n\t\tPositionDetail storage _positionDetail = positionDetails[_id];\n\t\taddress _currentListenerId = _positionDetail.listenerId;\n\t\t_positionDetail.listenerId = _newListenerId;\n\n\t\tif (_isName) {\n\t\t\tuint256 _nonce = _nameFactory.incrementNonce(_id);\n\t\t} else {\n\t\t\t_nonce = _taoFactory.incrementNonce(_id);\n\t\t}\n\t\temit SetListener(_id, _currentListenerId, _positionDetail.listenerId, _nonce);\n\t}\n\n\t/**\n\t * @dev Set Speaker for a Name/TAO\n\t * @param _id The ID of the Name/TAO\n\t * @param _newSpeakerId The new speaker ID to be set\n\t */\n\tfunction setSpeaker(address _id, address _newSpeakerId)\n\t\tpublic\n\t\tisNameOrTAO(_id)\n\t\tisNameOrTAO(_newSpeakerId)\n\t\tsenderIsName()\n\t\tonlyAdvocate(_id) {\n\n\t\t// If _id is a Name, then new Speaker can only be a Name\n\t\t// If _id is a TAO, then new Speaker can be a TAO/Name\n\t\tbool _isName = false;\n\t\tif (AOLibrary.isName(_id)) {\n\t\t\t_isName = true;\n\t\t\trequire (AOLibrary.isName(_newSpeakerId));\n\t\t}\n\n\t\tPositionDetail storage _positionDetail = positionDetails[_id];\n\t\taddress _currentSpeakerId = _positionDetail.speakerId;\n\t\t_positionDetail.speakerId = _newSpeakerId;\n\n\t\tif (_isName) {\n\t\t\tuint256 _nonce = _nameFactory.incrementNonce(_id);\n\t\t} else {\n\t\t\t_nonce = _taoFactory.incrementNonce(_id);\n\t\t}\n\t\temit SetSpeaker(_id, _currentSpeakerId, _positionDetail.speakerId, _nonce);\n\t}\n}\n",
	"sourcePath": "/Users/johanmulyono/Work/AO/ao-contracts/contracts/NameTAOPosition.sol",
	"compiler": {
		"name": "solc",
		"version": "0.4.24+commit.e67f0147.Emscripten.clang"
	},
	"schemaVersion": "2.0.1",
	"updatedAt": "2019-01-07T04:52:08.788Z"
}