{
	"contractName": "NamePublicKey",
	"abi": [
		{
			"constant": true,
			"inputs": [],
			"name": "nameTAOPositionAddress",
			"outputs": [
				{
					"name": "",
					"type": "address"
				}
			],
			"payable": false,
			"stateMutability": "view",
			"type": "function"
		},
		{
			"constant": true,
			"inputs": [
				{
					"name": "",
					"type": "address"
				}
			],
			"name": "whitelist",
			"outputs": [
				{
					"name": "",
					"type": "bool"
				}
			],
			"payable": false,
			"stateMutability": "view",
			"type": "function"
		},
		{
			"constant": true,
			"inputs": [],
			"name": "nameAccountRecoveryAddress",
			"outputs": [
				{
					"name": "",
					"type": "address"
				}
			],
			"payable": false,
			"stateMutability": "view",
			"type": "function"
		},
		{
			"constant": true,
			"inputs": [],
			"name": "theAO",
			"outputs": [
				{
					"name": "",
					"type": "address"
				}
			],
			"payable": false,
			"stateMutability": "view",
			"type": "function"
		},
		{
			"constant": true,
			"inputs": [],
			"name": "nameFactoryAddress",
			"outputs": [
				{
					"name": "",
					"type": "address"
				}
			],
			"payable": false,
			"stateMutability": "view",
			"type": "function"
		},
		{
			"constant": true,
			"inputs": [
				{
					"name": "",
					"type": "address"
				}
			],
			"name": "keyToNameId",
			"outputs": [
				{
					"name": "",
					"type": "address"
				}
			],
			"payable": false,
			"stateMutability": "view",
			"type": "function"
		},
		{
			"inputs": [
				{
					"name": "_nameFactoryAddress",
					"type": "address"
				},
				{
					"name": "_nameTAOPositionAddress",
					"type": "address"
				}
			],
			"payable": false,
			"stateMutability": "nonpayable",
			"type": "constructor"
		},
		{
			"anonymous": false,
			"inputs": [
				{
					"indexed": true,
					"name": "nameId",
					"type": "address"
				},
				{
					"indexed": false,
					"name": "publicKey",
					"type": "address"
				},
				{
					"indexed": false,
					"name": "nonce",
					"type": "uint256"
				}
			],
			"name": "AddKey",
			"type": "event"
		},
		{
			"anonymous": false,
			"inputs": [
				{
					"indexed": true,
					"name": "nameId",
					"type": "address"
				},
				{
					"indexed": false,
					"name": "publicKey",
					"type": "address"
				},
				{
					"indexed": false,
					"name": "nonce",
					"type": "uint256"
				}
			],
			"name": "RemoveKey",
			"type": "event"
		},
		{
			"anonymous": false,
			"inputs": [
				{
					"indexed": true,
					"name": "nameId",
					"type": "address"
				},
				{
					"indexed": false,
					"name": "publicKey",
					"type": "address"
				},
				{
					"indexed": false,
					"name": "nonce",
					"type": "uint256"
				}
			],
			"name": "SetDefaultKey",
			"type": "event"
		},
		{
			"anonymous": false,
			"inputs": [
				{
					"indexed": true,
					"name": "nameId",
					"type": "address"
				},
				{
					"indexed": false,
					"name": "publicKey",
					"type": "address"
				},
				{
					"indexed": false,
					"name": "nonce",
					"type": "uint256"
				}
			],
			"name": "SetWriterKey",
			"type": "event"
		},
		{
			"constant": false,
			"inputs": [
				{
					"name": "_theAO",
					"type": "address"
				}
			],
			"name": "transferOwnership",
			"outputs": [],
			"payable": false,
			"stateMutability": "nonpayable",
			"type": "function"
		},
		{
			"constant": false,
			"inputs": [
				{
					"name": "_account",
					"type": "address"
				},
				{
					"name": "_whitelist",
					"type": "bool"
				}
			],
			"name": "setWhitelist",
			"outputs": [],
			"payable": false,
			"stateMutability": "nonpayable",
			"type": "function"
		},
		{
			"constant": false,
			"inputs": [
				{
					"name": "_nameFactoryAddress",
					"type": "address"
				}
			],
			"name": "setNameFactoryAddress",
			"outputs": [],
			"payable": false,
			"stateMutability": "nonpayable",
			"type": "function"
		},
		{
			"constant": false,
			"inputs": [
				{
					"name": "_nameTAOPositionAddress",
					"type": "address"
				}
			],
			"name": "setNameTAOPositionAddress",
			"outputs": [],
			"payable": false,
			"stateMutability": "nonpayable",
			"type": "function"
		},
		{
			"constant": false,
			"inputs": [
				{
					"name": "_nameAccountRecoveryAddress",
					"type": "address"
				}
			],
			"name": "setNameAccountRecoveryAddress",
			"outputs": [],
			"payable": false,
			"stateMutability": "nonpayable",
			"type": "function"
		},
		{
			"constant": false,
			"inputs": [
				{
					"name": "_id",
					"type": "address"
				},
				{
					"name": "_key",
					"type": "address"
				}
			],
			"name": "whitelistAddKey",
			"outputs": [
				{
					"name": "",
					"type": "bool"
				}
			],
			"payable": false,
			"stateMutability": "nonpayable",
			"type": "function"
		},
		{
			"constant": true,
			"inputs": [
				{
					"name": "_id",
					"type": "address"
				}
			],
			"name": "isExist",
			"outputs": [
				{
					"name": "",
					"type": "bool"
				}
			],
			"payable": false,
			"stateMutability": "view",
			"type": "function"
		},
		{
			"constant": false,
			"inputs": [
				{
					"name": "_id",
					"type": "address"
				},
				{
					"name": "_defaultKey",
					"type": "address"
				},
				{
					"name": "_writerKey",
					"type": "address"
				}
			],
			"name": "initialize",
			"outputs": [
				{
					"name": "",
					"type": "bool"
				}
			],
			"payable": false,
			"stateMutability": "nonpayable",
			"type": "function"
		},
		{
			"constant": true,
			"inputs": [
				{
					"name": "_id",
					"type": "address"
				}
			],
			"name": "getTotalPublicKeysCount",
			"outputs": [
				{
					"name": "",
					"type": "uint256"
				}
			],
			"payable": false,
			"stateMutability": "view",
			"type": "function"
		},
		{
			"constant": true,
			"inputs": [
				{
					"name": "_id",
					"type": "address"
				},
				{
					"name": "_key",
					"type": "address"
				}
			],
			"name": "isKeyExist",
			"outputs": [
				{
					"name": "",
					"type": "bool"
				}
			],
			"payable": false,
			"stateMutability": "view",
			"type": "function"
		},
		{
			"constant": false,
			"inputs": [
				{
					"name": "_id",
					"type": "address"
				},
				{
					"name": "_key",
					"type": "address"
				},
				{
					"name": "_nonce",
					"type": "uint256"
				},
				{
					"name": "_signatureV",
					"type": "uint8"
				},
				{
					"name": "_signatureR",
					"type": "bytes32"
				},
				{
					"name": "_signatureS",
					"type": "bytes32"
				}
			],
			"name": "addKey",
			"outputs": [],
			"payable": false,
			"stateMutability": "nonpayable",
			"type": "function"
		},
		{
			"constant": true,
			"inputs": [
				{
					"name": "_id",
					"type": "address"
				}
			],
			"name": "getDefaultKey",
			"outputs": [
				{
					"name": "",
					"type": "address"
				}
			],
			"payable": false,
			"stateMutability": "view",
			"type": "function"
		},
		{
			"constant": true,
			"inputs": [
				{
					"name": "_id",
					"type": "address"
				}
			],
			"name": "getWriterKey",
			"outputs": [
				{
					"name": "",
					"type": "address"
				}
			],
			"payable": false,
			"stateMutability": "view",
			"type": "function"
		},
		{
			"constant": true,
			"inputs": [
				{
					"name": "_id",
					"type": "address"
				},
				{
					"name": "_key",
					"type": "address"
				}
			],
			"name": "isNameWriterKey",
			"outputs": [
				{
					"name": "",
					"type": "bool"
				}
			],
			"payable": false,
			"stateMutability": "view",
			"type": "function"
		},
		{
			"constant": true,
			"inputs": [
				{
					"name": "_id",
					"type": "address"
				},
				{
					"name": "_from",
					"type": "uint256"
				},
				{
					"name": "_to",
					"type": "uint256"
				}
			],
			"name": "getKeys",
			"outputs": [
				{
					"name": "",
					"type": "address[]"
				}
			],
			"payable": false,
			"stateMutability": "view",
			"type": "function"
		},
		{
			"constant": false,
			"inputs": [
				{
					"name": "_id",
					"type": "address"
				},
				{
					"name": "_key",
					"type": "address"
				}
			],
			"name": "removeKey",
			"outputs": [],
			"payable": false,
			"stateMutability": "nonpayable",
			"type": "function"
		},
		{
			"constant": false,
			"inputs": [
				{
					"name": "_id",
					"type": "address"
				},
				{
					"name": "_defaultKey",
					"type": "address"
				},
				{
					"name": "_signatureV",
					"type": "uint8"
				},
				{
					"name": "_signatureR",
					"type": "bytes32"
				},
				{
					"name": "_signatureS",
					"type": "bytes32"
				}
			],
			"name": "setDefaultKey",
			"outputs": [],
			"payable": false,
			"stateMutability": "nonpayable",
			"type": "function"
		},
		{
			"constant": false,
			"inputs": [
				{
					"name": "_id",
					"type": "address"
				},
				{
					"name": "_writerKey",
					"type": "address"
				},
				{
					"name": "_signatureV",
					"type": "uint8"
				},
				{
					"name": "_signatureR",
					"type": "bytes32"
				},
				{
					"name": "_signatureS",
					"type": "bytes32"
				}
			],
			"name": "setWriterKey",
			"outputs": [],
			"payable": false,
			"stateMutability": "nonpayable",
			"type": "function"
		},
		{
			"constant": false,
			"inputs": [
				{
					"name": "_id",
					"type": "address"
				},
				{
					"name": "_key",
					"type": "address"
				},
				{
					"name": "_nonce",
					"type": "uint256"
				},
				{
					"name": "_signatureV",
					"type": "uint8"
				},
				{
					"name": "_signatureR",
					"type": "bytes32"
				},
				{
					"name": "_signatureS",
					"type": "bytes32"
				}
			],
			"name": "addSetWriterKey",
			"outputs": [],
			"payable": false,
			"stateMutability": "nonpayable",
			"type": "function"
		}
	],
	"bytecode": "0x60806040523480156200001157600080fd5b50604051604080620031e983398101604052805160209091015160008054600160a060020a0319163317905562000051826401000000006200006d810204565b620000658164010000000062000172810204565b505062000277565b600054600154604080517ff66afcac000000000000000000000000000000000000000000000000000000008152336004820152600160a060020a0393841660248201529290911660448301525173__AOLibrary_____________________________9163f66afcac916064808301926020929190829003018186803b158015620000f657600080fd5b505af41580156200010b573d6000803e3d6000fd5b505050506040513d60208110156200012257600080fd5b505115156200013057600080fd5b600160a060020a03811615156200014657600080fd5b60038054600160a060020a03909216600160a060020a0319928316811790915560058054909216179055565b600054600154604080517ff66afcac000000000000000000000000000000000000000000000000000000008152336004820152600160a060020a0393841660248201529290911660448301525173__AOLibrary_____________________________9163f66afcac916064808301926020929190829003018186803b158015620001fb57600080fd5b505af415801562000210573d6000803e3d6000fd5b505050506040513d60208110156200022757600080fd5b505115156200023557600080fd5b600160a060020a03811615156200024b57600080fd5b60018054600160a060020a03909216600160a060020a0319928316811790915560068054909216179055565b612f6280620002876000396000f30060806040526004361061012e5763ffffffff60e060020a60003504166213eb4b8114610133578063181a916b146101685780631dfde2bd146101df57806321b7f533146102025780632cc37f6f1461023f5780634ef033f01461027557806353d6fd591461028a5780635cfaf2ef146102b0578063722e1677146102d15780638ab3e33f146103045780638c9243611461032b5780639b19251a1461034c578063a481247c1461036d578063a4e5fad214610394578063a9b6b38e146103a9578063b469641c146103be578063bc406206146103e5578063c0c53b8b146103fa578063c395c24014610427578063c59c11441461045a578063c920a51a1461048d578063d6846782146104ae578063db536d2f146104e4578063f0f2fd0414610505578063f2fde38b1461052c575b600080fd5b34801561013f57600080fd5b50610154600160a060020a036004351661054d565b604080519115158252519081900360200190f35b34801561017457600080fd5b5061018f600160a060020a036004351660243560443561056b565b60408051602080825283518183015283519192839290830191858101910280838360005b838110156101cb5781810151838201526020016101b3565b505050509050019250505060405180910390f35b3480156101eb57600080fd5b50610200600160a060020a03600435166107f6565b005b34801561020e57600080fd5b50610223600160a060020a03600435166108e3565b60408051600160a060020a039092168252519081900360200190f35b34801561024b57600080fd5b50610200600160a060020a036004358116906024351660443560ff6064351660843560a4356109b8565b34801561028157600080fd5b50610223610e5b565b34801561029657600080fd5b50610200600160a060020a03600435166024351515610e6a565b3480156102bc57600080fd5b50610200600160a060020a0360043516610f53565b3480156102dd57600080fd5b506102f2600160a060020a036004351661103d565b60408051918252519081900360200190f35b34801561031057600080fd5b50610200600160a060020a036004358116906024351661110f565b34801561033757600080fd5b50610200600160a060020a0360043516611631565b34801561035857600080fd5b50610154600160a060020a036004351661171b565b34801561037957600080fd5b50610154600160a060020a0360043581169060243516611730565b3480156103a057600080fd5b5061022361181b565b3480156103b557600080fd5b5061022361182a565b3480156103ca57600080fd5b50610154600160a060020a0360043581169060243516611839565b3480156103f157600080fd5b50610223611927565b34801561040657600080fd5b50610154600160a060020a0360043581169060243581169060443516611936565b34801561043357600080fd5b50610200600160a060020a036004358116906024351660ff60443516606435608435611ba3565b34801561046657600080fd5b50610200600160a060020a036004358116906024351660ff60443516606435608435611f0b565b34801561049957600080fd5b50610223600160a060020a0360043516612426565b3480156104ba57600080fd5b50610200600160a060020a036004358116906024351660443560ff6064351660843560a435612441565b3480156104f057600080fd5b50610223600160a060020a0360043516612880565b34801561051157600080fd5b50610154600160a060020a0360043581169060243516612957565b34801561053857600080fd5b50610200600160a060020a0360043516612a72565b600160a060020a031660009081526008602052604090205460ff1690565b6060610575612ec6565b606060008673__AOLibrary_____________________________632d706a34826040518263ffffffff1660e060020a0281526004018082600160a060020a0316600160a060020a0316815260200191505060206040518083038186803b1580156105de57600080fd5b505af41580156105f2573d6000803e3d6000fd5b505050506040513d602081101561060857600080fd5b5051151561061557600080fd5b61061e8861054d565b151561062957600080fd5b6000871015801561063a5750868610155b151561064557600080fd5b600160a060020a038089166000908152600860209081526040918290208251608081018452815460ff8116151582526101009004851681840152600182015490941684840152600281018054845181850281018501909552808552919360608601939092908301828280156106e357602002820191906000526020600020905b8154600160a060020a031681526001909101906020018083116106c5575b5050505050815250509350600084606001515111151561070257600080fd5b60608401515161071990600163ffffffff612b5216565b86111561073a5760608401515161073790600163ffffffff612b5216565b95505b61075b600161074f888a63ffffffff612b5216565b9063ffffffff612b6416565b604051908082528060200260200182016040528015610784578160200160208202803883390190505b5092508691505b8582116107ea5760608401518051839081106107a357fe5b60209081029091010151836107be848a63ffffffff612b5216565b815181106107c857fe5b600160a060020a0390921660209283029091019091015260019091019061078b565b50909695505050505050565b6000546001546040805160e260020a633d9abf2b028152336004820152600160a060020a0393841660248201529290911660448301525173__AOLibrary_____________________________9163f66afcac916064808301926020929190829003018186803b15801561086857600080fd5b505af415801561087c573d6000803e3d6000fd5b505050506040513d602081101561089257600080fd5b5051151561089f57600080fd5b600160a060020a03811615156108b457600080fd5b60048054600160a060020a0319908116600160a060020a03938416179182905560078054929093169116179055565b60008173__AOLibrary_____________________________632d706a34826040518263ffffffff1660e060020a0281526004018082600160a060020a0316600160a060020a0316815260200191505060206040518083038186803b15801561094a57600080fd5b505af415801561095e573d6000803e3d6000fd5b505050506040513d602081101561097457600080fd5b5051151561098157600080fd5b61098a8361054d565b151561099557600080fd5b5050600160a060020a039081166000908152600860205260409020600101541690565b60008673__AOLibrary_____________________________632d706a34826040518263ffffffff1660e060020a0281526004018082600160a060020a0316600160a060020a0316815260200191505060206040518083038186803b158015610a1f57600080fd5b505af4158015610a33573d6000803e3d6000fd5b505050506040513d6020811015610a4957600080fd5b50511515610a5657600080fd5b6006546040805160e060020a6371ce52ed028152336004820152600160a060020a03808c16602483015291518b9392909216916371ce52ed916044808201926020929091908290030181600087803b158015610ab157600080fd5b505af1158015610ac5573d6000803e3d6000fd5b505050506040513d6020811015610adb57600080fd5b50511515610ae857600080fd5b87600160a060020a03811615801590610b195750600160a060020a0381811660009081526009602052604090205416155b1515610b2457600080fd5b6007546005546040805160e060020a63029b7d530281523360048201529051600160a060020a0393841693633ebc2ab393169163029b7d539160248083019260209291908290030181600087803b158015610b7e57600080fd5b505af1158015610b92573d6000803e3d6000fd5b505050506040513d6020811015610ba857600080fd5b50516040805160e060020a63ffffffff8516028152600160a060020a0390921660048301525160248083019260209291908290030181600087803b158015610bef57600080fd5b505af1158015610c03573d6000803e3d6000fd5b505050506040513d6020811015610c1957600080fd5b505115610c2557600080fd5b600554604080517f7ecebe00000000000000000000000000000000000000000000000000000000008152600160a060020a038d811660048301529151610cc9936001931691637ecebe009160248083019260209291908290030181600087803b158015610c9157600080fd5b505af1158015610ca5573d6000803e3d6000fd5b505050506040513d6020811015610cbb57600080fd5b50519063ffffffff612b6416565b8814610cd457600080fd5b604080516c01000000000000000000000000308102602080840191909152600160a060020a03808f16830260348501528d169091026048830152605c8083018c905283518084039091018152607c90920192839052815191929182918401908083835b60208310610d565780518252601f199092019160209182019101610d37565b6001836020036101000a0380198251168184511680821785525050505050509050019150506040518091039020935088600160a060020a0316600185898989604051600081526020016040526040518085600019166000191681526020018460ff1660ff1681526020018360001916600019168152602001826000191660001916815260200194505050505060206040516020810390808403906000865af1158015610e06573d6000803e3d6000fd5b50505060206040510351600160a060020a0316141515610e2557600080fd5b610e2f8a8a612b77565b1515610e3a57600080fd5b610e448a8a612d32565b1515610e4f57600080fd5b50505050505050505050565b600154600160a060020a031681565b6000546001546040805160e260020a633d9abf2b028152336004820152600160a060020a0393841660248201529290911660448301525173__AOLibrary_____________________________9163f66afcac916064808301926020929190829003018186803b158015610edc57600080fd5b505af4158015610ef0573d6000803e3d6000fd5b505050506040513d6020811015610f0657600080fd5b50511515610f1357600080fd5b600160a060020a0382161515610f2857600080fd5b600160a060020a03919091166000908152600260205260409020805460ff1916911515919091179055565b6000546001546040805160e260020a633d9abf2b028152336004820152600160a060020a0393841660248201529290911660448301525173__AOLibrary_____________________________9163f66afcac916064808301926020929190829003018186803b158015610fc557600080fd5b505af4158015610fd9573d6000803e3d6000fd5b505050506040513d6020811015610fef57600080fd5b50511515610ffc57600080fd5b600160a060020a038116151561101157600080fd5b60018054600160a060020a03909216600160a060020a0319928316811790915560068054909216179055565b60008173__AOLibrary_____________________________632d706a34826040518263ffffffff1660e060020a0281526004018082600160a060020a0316600160a060020a0316815260200191505060206040518083038186803b1580156110a457600080fd5b505af41580156110b8573d6000803e3d6000fd5b505050506040513d60208110156110ce57600080fd5b505115156110db57600080fd5b6110e48361054d565b15156110ef57600080fd5b5050600160a060020a031660009081526008602052604090206002015490565b6000806000808573__AOLibrary_____________________________632d706a34826040518263ffffffff1660e060020a0281526004018082600160a060020a0316600160a060020a0316815260200191505060206040518083038186803b15801561117a57600080fd5b505af415801561118e573d6000803e3d6000fd5b505050506040513d60208110156111a457600080fd5b505115156111b157600080fd5b6006546040805160e060020a6371ce52ed028152336004820152600160a060020a03808b16602483015291518a9392909216916371ce52ed916044808201926020929091908290030181600087803b15801561120c57600080fd5b505af1158015611220573d6000803e3d6000fd5b505050506040513d602081101561123657600080fd5b5051151561124357600080fd5b6007546005546040805160e060020a63029b7d530281523360048201529051600160a060020a0393841693633ebc2ab393169163029b7d539160248083019260209291908290030181600087803b15801561129d57600080fd5b505af11580156112b1573d6000803e3d6000fd5b505050506040513d60208110156112c757600080fd5b50516040805160e060020a63ffffffff8516028152600160a060020a0390921660048301525160248083019260209291908290030181600087803b15801561130e57600080fd5b505af1158015611322573d6000803e3d6000fd5b505050506040513d602081101561133857600080fd5b50511561134457600080fd5b6040805160e260020a632920491f028152600160a060020a038a81166004830152891660248201529051309163a481247c9160448083019260209291908290030181600087803b15801561139757600080fd5b505af11580156113ab573d6000803e3d6000fd5b505050506040513d60208110156113c157600080fd5b505115156113ce57600080fd5b600160a060020a038881166000908152600860205260409020805490975061010090048116908816141561140157600080fd5b6001860154600160a060020a038881169116141561141e57600080fd5b600286015460011061142f57600080fd5b600160a060020a03871660009081526009602052604081208054600160a060020a031916905593505b60028601548410156114ad5786600160a060020a0316866002018581548110151561147f57fe5b600091825260209091200154600160a060020a031614156114a2578394506114ad565b600190930192611458565b8493505b60028601546114c790600163ffffffff612b5216565b84101561153e57600286018054600186019081106114e157fe5b600091825260209091200154600287018054600160a060020a03909216918690811061150957fe5b60009182526020909120018054600160a060020a031916600160a060020a0392909216919091179055600193909301926114b1565b60028601805490611553906000198301612eec565b506005546040805160e260020a633d5d0f13028152600160a060020a038b811660048301529151919092169163f5743c4c9160248083019260209291908290030181600087803b1580156115a657600080fd5b505af11580156115ba573d6000803e3d6000fd5b505050506040513d60208110156115d057600080fd5b50519250600083116115e157600080fd5b60408051600160a060020a038981168252602082018690528251908b16927faec0509ffc1f2fe28ada93894c552d532d94e3c32821ce0939b2064d95686642928290030190a25050505050505050565b6000546001546040805160e260020a633d9abf2b028152336004820152600160a060020a0393841660248201529290911660448301525173__AOLibrary_____________________________9163f66afcac916064808301926020929190829003018186803b1580156116a357600080fd5b505af41580156116b7573d6000803e3d6000fd5b505050506040513d60208110156116cd57600080fd5b505115156116da57600080fd5b600160a060020a03811615156116ef57600080fd5b60038054600160a060020a03909216600160a060020a0319928316811790915560058054909216179055565b60026020526000908152604090205460ff1681565b60008273__AOLibrary_____________________________632d706a34826040518263ffffffff1660e060020a0281526004018082600160a060020a0316600160a060020a0316815260200191505060206040518083038186803b15801561179757600080fd5b505af41580156117ab573d6000803e3d6000fd5b505050506040513d60208110156117c157600080fd5b505115156117ce57600080fd5b6117d78461054d565b15156117e257600080fd5b600160a060020a03831615156117f757600080fd5b5050600160a060020a03908116600090815260096020526040902054811691161490565b600454600160a060020a031681565b600054600160a060020a031681565b60008273__AOLibrary_____________________________632d706a34826040518263ffffffff1660e060020a0281526004018082600160a060020a0316600160a060020a0316815260200191505060206040518083038186803b1580156118a057600080fd5b505af41580156118b4573d6000803e3d6000fd5b505050506040513d60208110156118ca57600080fd5b505115156118d757600080fd5b6118e08461054d565b15156118eb57600080fd5b600160a060020a038316151561190057600080fd5b5050600160a060020a03918216600090815260086020526040902060010154821691161490565b600354600160a060020a031681565b6000808473__AOLibrary_____________________________632d706a34826040518263ffffffff1660e060020a0281526004018082600160a060020a0316600160a060020a0316815260200191505060206040518083038186803b15801561199e57600080fd5b505af41580156119b2573d6000803e3d6000fd5b505050506040513d60208110156119c857600080fd5b505115156119d557600080fd5b84600160a060020a03811615801590611a065750600160a060020a0381811660009081526009602052604090205416155b1515611a1157600080fd5b84600160a060020a03811615801590611a425750600160a060020a0381811660009081526009602052604090205416155b1515611a4d57600080fd5b600354600160a060020a03163314611a6457600080fd5b611a6d8861054d565b15611a7757600080fd5b600160a060020a0387811660008181526009602052604090208054600160a060020a0319168b841617905590871614611ad957600160a060020a0386811660009081526009602052604090208054600160a060020a031916918a169190911790555b600160a060020a038089166000908152600860209081526040822080548b8516610100810274ffffffffffffffffffffffffffffffffffffffff001960ff199093166001908117939093161783558183018054968d16600160a060020a031997881681179091556002840180549384018155865293909420018054909416831790935591955014611b955760028401805460018101825560009182526020909120018054600160a060020a031916600160a060020a0388161790555b506001979650505050505050565b60008573__AOLibrary_____________________________632d706a34826040518263ffffffff1660e060020a0281526004018082600160a060020a0316600160a060020a0316815260200191505060206040518083038186803b158015611c0a57600080fd5b505af4158015611c1e573d6000803e3d6000fd5b505050506040513d6020811015611c3457600080fd5b50511515611c4157600080fd5b6006546040805160e060020a6371ce52ed028152336004820152600160a060020a03808b16602483015291518a9392909216916371ce52ed916044808201926020929091908290030181600087803b158015611c9c57600080fd5b505af1158015611cb0573d6000803e3d6000fd5b505050506040513d6020811015611cc657600080fd5b50511515611cd357600080fd5b6007546005546040805160e060020a63029b7d530281523360048201529051600160a060020a0393841693633ebc2ab393169163029b7d539160248083019260209291908290030181600087803b158015611d2d57600080fd5b505af1158015611d41573d6000803e3d6000fd5b505050506040513d6020811015611d5757600080fd5b50516040805160e060020a63ffffffff8516028152600160a060020a0390921660048301525160248083019260209291908290030181600087803b158015611d9e57600080fd5b505af1158015611db2573d6000803e3d6000fd5b505050506040513d6020811015611dc857600080fd5b505115611dd457600080fd5b604080516c01000000000000000000000000308102602080840191909152600160a060020a03808d16830260348501528b1690910260488301528251603c818403018152605c90920192839052815191929182918401908083835b60208310611e4e5780518252601f199092019160209182019101611e2f565b51815160209384036101000a600019018019909216911617905260408051929094018290038220600080845283830180875282905260ff8e1684870152606084018d9052608084018c905294519099503396506001955060a080840195929450601f198201938290030191865af1158015611ecd573d6000803e3d6000fd5b50505060206040510351600160a060020a0316141515611eec57600080fd5b611ef68888612d32565b1515611f0157600080fd5b5050505050505050565b60008060008773__AOLibrary_____________________________632d706a34826040518263ffffffff1660e060020a0281526004018082600160a060020a0316600160a060020a0316815260200191505060206040518083038186803b158015611f7557600080fd5b505af4158015611f89573d6000803e3d6000fd5b505050506040513d6020811015611f9f57600080fd5b50511515611fac57600080fd5b6006546040805160e060020a6371ce52ed028152336004820152600160a060020a03808d16602483015291518c9392909216916371ce52ed916044808201926020929091908290030181600087803b15801561200757600080fd5b505af115801561201b573d6000803e3d6000fd5b505050506040513d602081101561203157600080fd5b5051151561203e57600080fd5b6007546005546040805160e060020a63029b7d530281523360048201529051600160a060020a0393841693633ebc2ab393169163029b7d539160248083019260209291908290030181600087803b15801561209857600080fd5b505af11580156120ac573d6000803e3d6000fd5b505050506040513d60208110156120c257600080fd5b50516040805160e060020a63ffffffff8516028152600160a060020a0390921660048301525160248083019260209291908290030181600087803b15801561210957600080fd5b505af115801561211d573d6000803e3d6000fd5b505050506040513d602081101561213357600080fd5b50511561213f57600080fd5b6040805160e260020a632920491f028152600160a060020a038c811660048301528b1660248201529051309163a481247c9160448083019260209291908290030181600087803b15801561219257600080fd5b505af11580156121a6573d6000803e3d6000fd5b505050506040513d60208110156121bc57600080fd5b505115156121c957600080fd5b604080516c01000000000000000000000000308102602080840191909152600160a060020a03808f16830260348501528d1690910260488301528251603c818403018152605c90920192839052815191929182918401908083835b602083106122435780518252601f199092019160209182019101612224565b6001836020036101000a0380198251168184511680821785525050505050509050019150506040518091039020945033600160a060020a03166001868a8a8a604051600081526020016040526040518085600019166000191681526020018460ff1660ff1681526020018360001916600019168152602001826000191660001916815260200194505050505060206040516020810390808403906000865af11580156122f3573d6000803e3d6000fd5b50505060206040510351600160a060020a031614151561231257600080fd5b600160a060020a03808b16600081815260086020908152604080832080548f87166101000274ffffffffffffffffffffffffffffffffffffffff0019909116178155600554825160e260020a633d5d0f130281526004810196909652915190995094169363f5743c4c93602480820194918390030190829087803b15801561239957600080fd5b505af11580156123ad573d6000803e3d6000fd5b505050506040513d60208110156123c357600080fd5b50519250600083116123d457600080fd5b60408051600160a060020a038b81168252602082018690528251908d16927fd77f210e9f1b29555f577c8e8794a9470fa9198f423fc077f55168838ba679a9928290030190a250505050505050505050565b600960205260009081526040902054600160a060020a031681565b60008673__AOLibrary_____________________________632d706a34826040518263ffffffff1660e060020a0281526004018082600160a060020a0316600160a060020a0316815260200191505060206040518083038186803b1580156124a857600080fd5b505af41580156124bc573d6000803e3d6000fd5b505050506040513d60208110156124d257600080fd5b505115156124df57600080fd5b6006546040805160e060020a6371ce52ed028152336004820152600160a060020a03808c16602483015291518b9392909216916371ce52ed916044808201926020929091908290030181600087803b15801561253a57600080fd5b505af115801561254e573d6000803e3d6000fd5b505050506040513d602081101561256457600080fd5b5051151561257157600080fd5b87600160a060020a038116158015906125a25750600160a060020a0381811660009081526009602052604090205416155b15156125ad57600080fd5b6007546005546040805160e060020a63029b7d530281523360048201529051600160a060020a0393841693633ebc2ab393169163029b7d539160248083019260209291908290030181600087803b15801561260757600080fd5b505af115801561261b573d6000803e3d6000fd5b505050506040513d602081101561263157600080fd5b50516040805160e060020a63ffffffff8516028152600160a060020a0390921660048301525160248083019260209291908290030181600087803b15801561267857600080fd5b505af115801561268c573d6000803e3d6000fd5b505050506040513d60208110156126a257600080fd5b5051156126ae57600080fd5b600554604080517f7ecebe00000000000000000000000000000000000000000000000000000000008152600160a060020a038d81166004830152915161271a936001931691637ecebe009160248083019260209291908290030181600087803b158015610c9157600080fd5b881461272557600080fd5b604080516c01000000000000000000000000308102602080840191909152600160a060020a03808f16830260348501528d169091026048830152605c8083018c905283518084039091018152607c90920192839052815191929182918401908083835b602083106127a75780518252601f199092019160209182019101612788565b6001836020036101000a0380198251168184511680821785525050505050509050019150506040518091039020935088600160a060020a0316600185898989604051600081526020016040526040518085600019166000191681526020018460ff1660ff1681526020018360001916600019168152602001826000191660001916815260200194505050505060206040516020810390808403906000865af1158015612857573d6000803e3d6000fd5b50505060206040510351600160a060020a031614151561287657600080fd5b610e448a8a612b77565b60008173__AOLibrary_____________________________632d706a34826040518263ffffffff1660e060020a0281526004018082600160a060020a0316600160a060020a0316815260200191505060206040518083038186803b1580156128e757600080fd5b505af41580156128fb573d6000803e3d6000fd5b505050506040513d602081101561291157600080fd5b5051151561291e57600080fd5b6129278361054d565b151561293257600080fd5b5050600160a060020a0390811660009081526008602052604090205461010090041690565b60008273__AOLibrary_____________________________632d706a34826040518263ffffffff1660e060020a0281526004018082600160a060020a0316600160a060020a0316815260200191505060206040518083038186803b1580156129be57600080fd5b505af41580156129d2573d6000803e3d6000fd5b505050506040513d60208110156129e857600080fd5b505115156129f557600080fd5b82600160a060020a03811615801590612a265750600160a060020a0381811660009081526009602052604090205416155b1515612a3157600080fd5b3360009081526002602052604090205460ff161515600114612a5257600080fd5b612a5c8585612b77565b1515612a6757600080fd5b506001949350505050565b6000546001546040805160e260020a633d9abf2b028152336004820152600160a060020a0393841660248201529290911660448301525173__AOLibrary_____________________________9163f66afcac916064808301926020929190829003018186803b158015612ae457600080fd5b505af4158015612af8573d6000803e3d6000fd5b505050506040513d6020811015612b0e57600080fd5b50511515612b1b57600080fd5b600160a060020a0381161515612b3057600080fd5b60008054600160a060020a031916600160a060020a0392909216919091179055565b600082821115612b5e57fe5b50900390565b81810182811015612b7157fe5b92915050565b6040805160e260020a632920491f028152600160a060020a03848116600483015283166024820152905160009182918291309163a481247c9160448082019260209290919082900301818787803b158015612bd157600080fd5b505af1158015612be5573d6000803e3d6000fd5b505050506040513d6020811015612bfb57600080fd5b505115612c0757600080fd5b600160a060020a0380851660008181526009602090815260408083208054868c16600160a060020a03199182168117909255818552600884528285206002810180546001810182559087528587200180549092169096179055600554825160e260020a633d5d0f130281526004810192909252915194975094169363f5743c4c9360248083019491928390030190829087803b158015612ca657600080fd5b505af1158015612cba573d6000803e3d6000fd5b505050506040513d6020811015612cd057600080fd5b5051905060008111612ce157600080fd5b60408051600160a060020a038681168252602082018490528251908816927f4487b0a9ffea124fa087f0b52b2e9ce94d4cc7863686b6d07b61569b2652b153928290030190a2506001949350505050565b6040805160e260020a632920491f028152600160a060020a03848116600483015283166024820152905160009182918291309163a481247c9160448082019260209290919082900301818787803b158015612d8c57600080fd5b505af1158015612da0573d6000803e3d6000fd5b505050506040513d6020811015612db657600080fd5b50511515612dc357600080fd5b600160a060020a038581166000818152600860209081526040808320600181018054600160a060020a0319168b8816179055600554825160e260020a633d5d0f130281526004810196909652915190975094169363f5743c4c93602480820194918390030190829087803b158015612e3a57600080fd5b505af1158015612e4e573d6000803e3d6000fd5b505050506040513d6020811015612e6457600080fd5b5051905060008111612e7557600080fd5b60408051600160a060020a038681168252602082018490528251908816927f469fd8b44dc9f92cf425126828b67f1062a61ebe2c7f0bd5192008a0d1a5ba1d928290030190a2506001949350505050565b604080516080810182526000808252602082018190529181019190915260608082015290565b815481835581811115612f1057600083815260209020612f10918101908301612f15565b505050565b612f3391905b80821115612f2f5760008155600101612f1b565b5090565b905600a165627a7a723058200eb3ec89ebf87ce716676d9253d711393dc3acc7424c8937e2cb85a7ff04f66e0029",
	"source": "pragma solidity ^0.4.24;\n\nimport './SafeMath.sol';\nimport './AOLibrary.sol';\nimport './TheAO.sol';\nimport './INamePublicKey.sol';\nimport './INameFactory.sol';\nimport './INameTAOPosition.sol';\nimport './INameAccountRecovery.sol';\n\n/**\n * @title NamePublicKey\n */\ncontract NamePublicKey is TheAO, INamePublicKey {\n\tusing SafeMath for uint256;\n\n\taddress public nameFactoryAddress;\n\taddress public nameAccountRecoveryAddress;\n\n\tINameFactory internal _nameFactory;\n\tINameTAOPosition internal _nameTAOPosition;\n\tINameAccountRecovery internal _nameAccountRecovery;\n\n\tstruct PublicKey {\n\t\tbool created;\n\t\taddress defaultKey;\n\t\taddress writerKey;\n\t\taddress[] keys;\n\t}\n\n\t// Mapping from nameId to its PublicKey\n\tmapping (address => PublicKey) internal publicKeys;\n\n\t// Mapping from key to nameId\n\tmapping (address => address) public keyToNameId;\n\n\t// Event to be broadcasted to public when a publicKey is added to a Name\n\tevent AddKey(address indexed nameId, address publicKey, uint256 nonce);\n\n\t// Event to be broadcasted to public when a publicKey is removed from a Name\n\tevent RemoveKey(address indexed nameId, address publicKey, uint256 nonce);\n\n\t// Event to be broadcasted to public when a publicKey is set as default for a Name\n\tevent SetDefaultKey(address indexed nameId, address publicKey, uint256 nonce);\n\n\t// Event to be broadcasted to public when a publicKey is set as writer for a Name\n\tevent SetWriterKey(address indexed nameId, address publicKey, uint256 nonce);\n\n\t/**\n\t * @dev Constructor function\n\t */\n\tconstructor(address _nameFactoryAddress, address _nameTAOPositionAddress) public {\n\t\tsetNameFactoryAddress(_nameFactoryAddress);\n\t\tsetNameTAOPositionAddress(_nameTAOPositionAddress);\n\t}\n\n\t/**\n\t * @dev Checks if the calling contract address is The AO\n\t *\t\tOR\n\t *\t\tIf The AO is set to a Name/TAO, then check if calling address is the Advocate\n\t */\n\tmodifier onlyTheAO {\n\t\trequire (AOLibrary.isTheAO(msg.sender, theAO, nameTAOPositionAddress));\n\t\t_;\n\t}\n\n\t/**\n\t * @dev Check if calling address is Factory\n\t */\n\tmodifier onlyFactory {\n\t\trequire (msg.sender == nameFactoryAddress);\n\t\t_;\n\t}\n\n\t/**\n\t * @dev Check if `_nameId` is a Name\n\t */\n\tmodifier isName(address _nameId) {\n\t\trequire (AOLibrary.isName(_nameId));\n\t\t_;\n\t}\n\n\t/**\n\t * @dev Check if msg.sender is the current advocate of Name ID\n\t */\n\tmodifier onlyAdvocate(address _id) {\n\t\trequire (_nameTAOPosition.senderIsAdvocate(msg.sender, _id));\n\t\t_;\n\t}\n\n\t/**\n\t * @dev Only allowed if sender's Name is not compromised\n\t */\n\tmodifier senderNameNotCompromised() {\n\t\trequire (!_nameAccountRecovery.isCompromised(_nameFactory.ethAddressToNameId(msg.sender)));\n\t\t_;\n\t}\n\n\t/**\n\t * @dev Check if `_key` is not yet taken\n\t */\n\tmodifier keyNotTaken(address _key) {\n\t\trequire (_key != address(0) && keyToNameId[_key] == address(0));\n\t\t_;\n\t}\n\n\t/***** The AO ONLY METHODS *****/\n\t/**\n\t * @dev Transfer ownership of The AO to new address\n\t * @param _theAO The new address to be transferred\n\t */\n\tfunction transferOwnership(address _theAO) public onlyTheAO {\n\t\trequire (_theAO != address(0));\n\t\ttheAO = _theAO;\n\t}\n\n\t/**\n\t * @dev Whitelist `_account` address to transact on behalf of others\n\t * @param _account The address to whitelist\n\t * @param _whitelist Either to whitelist or not\n\t */\n\tfunction setWhitelist(address _account, bool _whitelist) public onlyTheAO {\n\t\trequire (_account != address(0));\n\t\twhitelist[_account] = _whitelist;\n\t}\n\n\t/**\n\t * @dev The AO sets NameFactory address\n\t * @param _nameFactoryAddress The address of NameFactory\n\t */\n\tfunction setNameFactoryAddress(address _nameFactoryAddress) public onlyTheAO {\n\t\trequire (_nameFactoryAddress != address(0));\n\t\tnameFactoryAddress = _nameFactoryAddress;\n\t\t_nameFactory = INameFactory(_nameFactoryAddress);\n\t}\n\n\t/**\n\t * @dev The AO sets NameTAOPosition address\n\t * @param _nameTAOPositionAddress The address of NameTAOPosition\n\t */\n\tfunction setNameTAOPositionAddress(address _nameTAOPositionAddress) public onlyTheAO {\n\t\trequire (_nameTAOPositionAddress != address(0));\n\t\tnameTAOPositionAddress = _nameTAOPositionAddress;\n\t\t_nameTAOPosition = INameTAOPosition(_nameTAOPositionAddress);\n\t}\n\n\t/**\n\t * @dev The AO set the NameAccountRecovery Address\n\t * @param _nameAccountRecoveryAddress The address of NameAccountRecovery\n\t */\n\tfunction setNameAccountRecoveryAddress(address _nameAccountRecoveryAddress) public onlyTheAO {\n\t\trequire (_nameAccountRecoveryAddress != address(0));\n\t\tnameAccountRecoveryAddress = _nameAccountRecoveryAddress;\n\t\t_nameAccountRecovery = INameAccountRecovery(nameAccountRecoveryAddress);\n\t}\n\n\t/**\n\t * @dev Whitelisted address add publicKey to list for a Name\n\t * @param _id The ID of the Name\n\t * @param _key The publicKey to be added\n\t * @return true on success\n\t */\n\tfunction whitelistAddKey(address _id, address _key) external isName(_id) keyNotTaken(_key) inWhitelist returns (bool) {\n\t\trequire (_addKey(_id, _key));\n\t\treturn true;\n\t}\n\n\t/***** PUBLIC METHODS *****/\n\t/**\n\t * @dev Check whether or not a Name ID exist in the list of Public Keys\n\t * @param _id The ID to be checked\n\t * @return true if yes, false otherwise\n\t */\n\tfunction isExist(address _id) public view returns (bool) {\n\t\treturn publicKeys[_id].created;\n\t}\n\n\t/**\n\t * @dev Store the PublicKey info for a Name\n\t * @param _id The ID of the Name\n\t * @param _defaultKey The default public key for this Name\n\t * @param _writerKey The writer public key for this Name\n\t * @return true on success\n\t */\n\tfunction initialize(address _id, address _defaultKey, address _writerKey)\n\t\texternal\n\t\tisName(_id)\n\t\tkeyNotTaken(_defaultKey)\n\t\tkeyNotTaken(_writerKey)\n\t\tonlyFactory returns (bool) {\n\t\trequire (!isExist(_id));\n\n\t\tkeyToNameId[_defaultKey] = _id;\n\t\tif (_defaultKey != _writerKey) {\n\t\t\tkeyToNameId[_writerKey] = _id;\n\t\t}\n\t\tPublicKey storage _publicKey = publicKeys[_id];\n\t\t_publicKey.created = true;\n\t\t_publicKey.defaultKey = _defaultKey;\n\t\t_publicKey.writerKey = _writerKey;\n\t\t_publicKey.keys.push(_defaultKey);\n\t\tif (_defaultKey != _writerKey) {\n\t\t\t_publicKey.keys.push(_writerKey);\n\t\t}\n\t\treturn true;\n\t}\n\n\t/**\n\t * @dev Get total publicKeys count for a Name\n\t * @param _id The ID of the Name\n\t * @return total publicKeys count\n\t */\n\tfunction getTotalPublicKeysCount(address _id) public isName(_id) view returns (uint256) {\n\t\trequire (isExist(_id));\n\t\treturn publicKeys[_id].keys.length;\n\t}\n\n\t/**\n\t * @dev Check whether or not a publicKey exist in the list for a Name\n\t * @param _id The ID of the Name\n\t * @param _key The publicKey to check\n\t * @return true if yes. false otherwise\n\t */\n\tfunction isKeyExist(address _id, address _key) isName(_id) external view returns (bool) {\n\t\trequire (isExist(_id));\n\t\trequire (_key != address(0));\n\t\treturn keyToNameId[_key] == _id;\n\t}\n\n\t/**\n\t * @dev Add publicKey to list for a Name\n\t * @param _id The ID of the Name\n\t * @param _key The publicKey to be added\n\t * @param _nonce The signed uint256 nonce (should be Name's current nonce + 1)\n\t * @param _signatureV The V part of the signature\n\t * @param _signatureR The R part of the signature\n\t * @param _signatureS The S part of the signature\n\t */\n\tfunction addKey(address _id,\n\t\taddress _key,\n\t\tuint256 _nonce,\n\t\tuint8 _signatureV,\n\t\tbytes32 _signatureR,\n\t\tbytes32 _signatureS\n\t) public isName(_id) onlyAdvocate(_id) keyNotTaken(_key) senderNameNotCompromised {\n\t\trequire (_nonce == _nameFactory.nonces(_id).add(1));\n\t\tbytes32 _hash = keccak256(abi.encodePacked(address(this), _id, _key, _nonce));\n\t\trequire (ecrecover(_hash, _signatureV, _signatureR, _signatureS) == _key);\n\t\trequire (_addKey(_id, _key));\n\t}\n\n\t/**\n\t * @dev Get default public key of a Name\n\t * @param _id The ID of the Name\n\t * @return the default public key\n\t */\n\tfunction getDefaultKey(address _id) external isName(_id) view returns (address) {\n\t\trequire (isExist(_id));\n\t\treturn publicKeys[_id].defaultKey;\n\t}\n\n\t/**\n\t * @dev Get writer public key of a Name\n\t * @param _id The ID of the Name\n\t * @return the writer public key\n\t */\n\tfunction getWriterKey(address _id) external isName(_id) view returns (address) {\n\t\trequire (isExist(_id));\n\t\treturn publicKeys[_id].writerKey;\n\t}\n\n\t/**\n\t * @dev Check whether or not a key is Name's writerKey\n\t * @param _id The ID of the Name\n\t * @param _key The key to be checked\n\t * @return true if yes, false otherwise\n\t */\n\tfunction isNameWriterKey(address _id, address _key) public isName(_id) view returns (bool) {\n\t\trequire (isExist(_id));\n\t\trequire (_key != address(0));\n\t\treturn publicKeys[_id].writerKey == _key;\n\t}\n\n\t/**\n\t * @dev Get list of publicKeys of a Name\n\t * @param _id The ID of the Name\n\t * @param _from The starting index\n\t * @param _to The ending index\n\t * @return list of publicKeys\n\t */\n\tfunction getKeys(address _id, uint256 _from, uint256 _to) public isName(_id) view returns (address[]) {\n\t\trequire (isExist(_id));\n\t\trequire (_from >= 0 && _to >= _from);\n\n\t\tPublicKey memory _publicKey = publicKeys[_id];\n\t\trequire (_publicKey.keys.length > 0);\n\n\t\tif (_to >  _publicKey.keys.length.sub(1)) {\n\t\t\t_to = _publicKey.keys.length.sub(1);\n\t\t}\n\t\taddress[] memory _keys = new address[](_to.sub(_from).add(1));\n\n\t\tfor (uint256 i = _from; i <= _to; i++) {\n\t\t\t_keys[i.sub(_from)] = _publicKey.keys[i];\n\t\t}\n\t\treturn _keys;\n\t}\n\n\t/**\n\t * @dev Remove publicKey from the list\n\t * @param _id The ID of the Name\n\t * @param _key The publicKey to be removed\n\t */\n\tfunction removeKey(address _id, address _key) public isName(_id) onlyAdvocate(_id) senderNameNotCompromised {\n\t\trequire (this.isKeyExist(_id, _key));\n\n\t\tPublicKey storage _publicKey = publicKeys[_id];\n\n\t\t// Can't remove default key\n\t\trequire (_key != _publicKey.defaultKey);\n\t\t// Can't remove writer key\n\t\trequire (_key != _publicKey.writerKey);\n\t\t// Has to have at least defaultKey/writerKey\n\t\trequire (_publicKey.keys.length > 1);\n\n\t\tkeyToNameId[_key] = address(0);\n\n\t\tuint256 index;\n\t\tfor (uint256 i = 0; i < _publicKey.keys.length; i++) {\n\t\t\tif (_publicKey.keys[i] == _key) {\n\t\t\t\tindex = i;\n\t\t\t\tbreak;\n\t\t\t}\n\t\t}\n\n\t\tfor (i = index; i < _publicKey.keys.length.sub(1); i++) {\n\t\t\t_publicKey.keys[i] = _publicKey.keys[i+1];\n\t\t}\n\t\t_publicKey.keys.length--;\n\n\t\tuint256 _nonce = _nameFactory.incrementNonce(_id);\n\t\trequire (_nonce > 0);\n\n\t\temit RemoveKey(_id, _key, _nonce);\n\t}\n\n\t/**\n\t * @dev Set a publicKey as the default for a Name\n\t * @param _id The ID of the Name\n\t * @param _defaultKey The defaultKey to be set\n\t * @param _signatureV The V part of the signature for this update\n\t * @param _signatureR The R part of the signature for this update\n\t * @param _signatureS The S part of the signature for this update\n\t */\n\tfunction setDefaultKey(address _id, address _defaultKey, uint8 _signatureV, bytes32 _signatureR, bytes32 _signatureS) public isName(_id) onlyAdvocate(_id) senderNameNotCompromised {\n\t\trequire (this.isKeyExist(_id, _defaultKey));\n\n\t\tbytes32 _hash = keccak256(abi.encodePacked(address(this), _id, _defaultKey));\n\t\trequire (ecrecover(_hash, _signatureV, _signatureR, _signatureS) == msg.sender);\n\n\t\tPublicKey storage _publicKey = publicKeys[_id];\n\t\t_publicKey.defaultKey = _defaultKey;\n\n\t\tuint256 _nonce = _nameFactory.incrementNonce(_id);\n\t\trequire (_nonce > 0);\n\t\temit SetDefaultKey(_id, _defaultKey, _nonce);\n\t}\n\n\t/**\n\t * @dev Set a publicKey as the writer for a Name\n\t * @param _id The ID of the Name\n\t * @param _writerKey The writerKey to be set\n\t * @param _signatureV The V part of the signature for this update\n\t * @param _signatureR The R part of the signature for this update\n\t * @param _signatureS The S part of the signature for this update\n\t */\n\tfunction setWriterKey(address _id, address _writerKey, uint8 _signatureV, bytes32 _signatureR, bytes32 _signatureS) public isName(_id) onlyAdvocate(_id) senderNameNotCompromised {\n\t\tbytes32 _hash = keccak256(abi.encodePacked(address(this), _id, _writerKey));\n\t\trequire (ecrecover(_hash, _signatureV, _signatureR, _signatureS) == msg.sender);\n\t\trequire (_setWriterKey(_id, _writerKey));\n\t}\n\n\t/**\n\t * @dev Add key and set as writerKey for a Name\n\t * @param _id The ID of the Name\n\t * @param _key The writerKey to be added\n\t * @param _nonce The signed uint256 nonce (should be Name's current nonce + 1)\n\t * @param _signatureV The V part of the signature\n\t * @param _signatureR The R part of the signature\n\t * @param _signatureS The S part of the signature\n\t */\n\tfunction addSetWriterKey(address _id,\n\t\taddress _key,\n\t\tuint256 _nonce,\n\t\tuint8 _signatureV,\n\t\tbytes32 _signatureR,\n\t\tbytes32 _signatureS\n\t) public isName(_id) onlyAdvocate(_id) keyNotTaken(_key) senderNameNotCompromised {\n\t\trequire (_nonce == _nameFactory.nonces(_id).add(1));\n\t\tbytes32 _hash = keccak256(abi.encodePacked(address(this), _id, _key, _nonce));\n\t\trequire (ecrecover(_hash, _signatureV, _signatureR, _signatureS) == _key);\n\t\trequire (_addKey(_id, _key));\n\t\trequire (_setWriterKey(_id, _key));\n\t}\n\n\t/***** INTERNAL METHOD *****/\n\t/**\n\t * @dev Actual adding the publicKey to list for a Name\n\t * @param _id The ID of the Name\n\t * @param _key The publicKey to be added\n\t * @return true on success\n\t */\n\tfunction _addKey(address _id, address _key) internal returns (bool) {\n\t\trequire (!this.isKeyExist(_id, _key));\n\n\t\tkeyToNameId[_key] = _id;\n\n\t\tPublicKey storage _publicKey = publicKeys[_id];\n\t\t_publicKey.keys.push(_key);\n\n\t\tuint256 _nonce = _nameFactory.incrementNonce(_id);\n\t\trequire (_nonce > 0);\n\n\t\temit AddKey(_id, _key, _nonce);\n\t\treturn true;\n\t}\n\n\t/**\n\t * @dev Actual setting the writerKey for a Name\n\t * @param _id The ID of the Name\n\t * @param _writerKey The writerKey to be set\n\t * @return true on success\n\t */\n\tfunction _setWriterKey(address _id, address _writerKey) internal returns (bool) {\n\t\trequire (this.isKeyExist(_id, _writerKey));\n\n\t\tPublicKey storage _publicKey = publicKeys[_id];\n\t\t_publicKey.writerKey = _writerKey;\n\n\t\tuint256 _nonce = _nameFactory.incrementNonce(_id);\n\t\trequire (_nonce > 0);\n\t\temit SetWriterKey(_id, _writerKey, _nonce);\n\t\treturn true;\n\t}\n}\n",
	"sourcePath": "/data/jmulyono/ao-contracts/contracts/NamePublicKey.sol",
	"compiler": {
		"name": "solc",
		"version": "0.4.24+commit.e67f0147.Emscripten.clang"
	},
	"schemaVersion": "2.0.1",
	"updatedAt": "2019-04-29T06:34:58.812Z"
}