{
	"contractName": "NameTAOLookup",
	"abi": [
		{
			"constant": true,
			"inputs": [],
			"name": "nameTAOPositionAddress",
			"outputs": [
				{
					"name": "",
					"type": "address"
				}
			],
			"payable": false,
			"stateMutability": "view",
			"type": "function"
		},
		{
			"constant": true,
			"inputs": [
				{
					"name": "",
					"type": "address"
				}
			],
			"name": "whitelist",
			"outputs": [
				{
					"name": "",
					"type": "bool"
				}
			],
			"payable": false,
			"stateMutability": "view",
			"type": "function"
		},
		{
			"constant": true,
			"inputs": [],
			"name": "totalNames",
			"outputs": [
				{
					"name": "",
					"type": "uint256"
				}
			],
			"payable": false,
			"stateMutability": "view",
			"type": "function"
		},
		{
			"constant": true,
			"inputs": [],
			"name": "theAO",
			"outputs": [
				{
					"name": "",
					"type": "address"
				}
			],
			"payable": false,
			"stateMutability": "view",
			"type": "function"
		},
		{
			"constant": true,
			"inputs": [],
			"name": "nameFactoryAddress",
			"outputs": [
				{
					"name": "",
					"type": "address"
				}
			],
			"payable": false,
			"stateMutability": "view",
			"type": "function"
		},
		{
			"constant": true,
			"inputs": [],
			"name": "totalTAOs",
			"outputs": [
				{
					"name": "",
					"type": "uint256"
				}
			],
			"payable": false,
			"stateMutability": "view",
			"type": "function"
		},
		{
			"constant": true,
			"inputs": [],
			"name": "taoFactoryAddress",
			"outputs": [
				{
					"name": "",
					"type": "address"
				}
			],
			"payable": false,
			"stateMutability": "view",
			"type": "function"
		},
		{
			"inputs": [
				{
					"name": "_nameFactoryAddress",
					"type": "address"
				},
				{
					"name": "_taoFactoryAddress",
					"type": "address"
				},
				{
					"name": "_nameTAOPositionAddress",
					"type": "address"
				}
			],
			"payable": false,
			"stateMutability": "nonpayable",
			"type": "constructor"
		},
		{
			"constant": false,
			"inputs": [
				{
					"name": "_theAO",
					"type": "address"
				}
			],
			"name": "transferOwnership",
			"outputs": [],
			"payable": false,
			"stateMutability": "nonpayable",
			"type": "function"
		},
		{
			"constant": false,
			"inputs": [
				{
					"name": "_account",
					"type": "address"
				},
				{
					"name": "_whitelist",
					"type": "bool"
				}
			],
			"name": "setWhitelist",
			"outputs": [],
			"payable": false,
			"stateMutability": "nonpayable",
			"type": "function"
		},
		{
			"constant": false,
			"inputs": [
				{
					"name": "_nameFactoryAddress",
					"type": "address"
				}
			],
			"name": "setNameFactoryAddress",
			"outputs": [],
			"payable": false,
			"stateMutability": "nonpayable",
			"type": "function"
		},
		{
			"constant": false,
			"inputs": [
				{
					"name": "_taoFactoryAddress",
					"type": "address"
				}
			],
			"name": "setTAOFactoryAddress",
			"outputs": [],
			"payable": false,
			"stateMutability": "nonpayable",
			"type": "function"
		},
		{
			"constant": false,
			"inputs": [
				{
					"name": "_nameTAOPositionAddress",
					"type": "address"
				}
			],
			"name": "setNameTAOPositionAddress",
			"outputs": [],
			"payable": false,
			"stateMutability": "nonpayable",
			"type": "function"
		},
		{
			"constant": true,
			"inputs": [
				{
					"name": "_name",
					"type": "string"
				}
			],
			"name": "isExist",
			"outputs": [
				{
					"name": "",
					"type": "bool"
				}
			],
			"payable": false,
			"stateMutability": "view",
			"type": "function"
		},
		{
			"constant": false,
			"inputs": [
				{
					"name": "_name",
					"type": "string"
				},
				{
					"name": "_nameTAOId",
					"type": "address"
				},
				{
					"name": "_typeId",
					"type": "uint256"
				},
				{
					"name": "_parentName",
					"type": "string"
				},
				{
					"name": "_parentId",
					"type": "address"
				},
				{
					"name": "_parentTypeId",
					"type": "uint256"
				}
			],
			"name": "initialize",
			"outputs": [
				{
					"name": "",
					"type": "bool"
				}
			],
			"payable": false,
			"stateMutability": "nonpayable",
			"type": "function"
		},
		{
			"constant": true,
			"inputs": [
				{
					"name": "_name",
					"type": "string"
				}
			],
			"name": "getByName",
			"outputs": [
				{
					"name": "",
					"type": "string"
				},
				{
					"name": "",
					"type": "address"
				},
				{
					"name": "",
					"type": "uint256"
				},
				{
					"name": "",
					"type": "string"
				},
				{
					"name": "",
					"type": "address"
				},
				{
					"name": "",
					"type": "uint256"
				}
			],
			"payable": false,
			"stateMutability": "view",
			"type": "function"
		},
		{
			"constant": true,
			"inputs": [
				{
					"name": "_id",
					"type": "address"
				}
			],
			"name": "getById",
			"outputs": [
				{
					"name": "",
					"type": "string"
				},
				{
					"name": "",
					"type": "address"
				},
				{
					"name": "",
					"type": "uint256"
				},
				{
					"name": "",
					"type": "string"
				},
				{
					"name": "",
					"type": "address"
				},
				{
					"name": "",
					"type": "uint256"
				}
			],
			"payable": false,
			"stateMutability": "view",
			"type": "function"
		},
		{
			"constant": true,
			"inputs": [
				{
					"name": "_name",
					"type": "string"
				}
			],
			"name": "getIdByName",
			"outputs": [
				{
					"name": "",
					"type": "address"
				}
			],
			"payable": false,
			"stateMutability": "view",
			"type": "function"
		}
	],
	"bytecode": "0x60806040523480156200001157600080fd5b5060405160608062001927833981018060405260608110156200003357600080fd5b508051602082015160409092015160008054600160a060020a031916331790559091906200006a836401000000006200009b810204565b6200007e8264010000000062000196810204565b620000928164010000000062000291810204565b5050506200038c565b600054600154604080517ff66afcac000000000000000000000000000000000000000000000000000000008152336004820152600160a060020a0393841660248201529290911660448301525173__AOLibrary_____________________________9163f66afcac916064808301926020929190829003018186803b1580156200012457600080fd5b505af415801562000139573d6000803e3d6000fd5b505050506040513d60208110156200015057600080fd5b505115156200015e57600080fd5b600160a060020a03811615156200017457600080fd5b60038054600160a060020a031916600160a060020a0392909216919091179055565b600054600154604080517ff66afcac000000000000000000000000000000000000000000000000000000008152336004820152600160a060020a0393841660248201529290911660448301525173__AOLibrary_____________________________9163f66afcac916064808301926020929190829003018186803b1580156200021f57600080fd5b505af415801562000234573d6000803e3d6000fd5b505050506040513d60208110156200024b57600080fd5b505115156200025957600080fd5b600160a060020a03811615156200026f57600080fd5b60048054600160a060020a031916600160a060020a0392909216919091179055565b600054600154604080517ff66afcac000000000000000000000000000000000000000000000000000000008152336004820152600160a060020a0393841660248201529290911660448301525173__AOLibrary_____________________________9163f66afcac916064808301926020929190829003018186803b1580156200031a57600080fd5b505af41580156200032f573d6000803e3d6000fd5b505050506040513d60208110156200034657600080fd5b505115156200035457600080fd5b600160a060020a03811615156200036a57600080fd5b60018054600160a060020a031916600160a060020a0392909216919091179055565b61158b806200039c6000396000f3fe608060405234801561001057600080fd5b5060043610610128576000357c0100000000000000000000000000000000000000000000000000000000900480639b19251a116100bf578063b336ad831161008e578063b336ad8314610559578063bc406206146105ff578063c93c271d14610607578063f2fde38b1461060f578063ff0374b51461063557610128565b80639b19251a1461042b578063a38cb6c114610451578063a9b6b38e1461046b578063aaa9165a1461047357610128565b80634ef033f0116100fb5780634ef033f0146103a957806353d6fd59146103b15780635cfaf2ef146103df5780638c9243611461040557610128565b806303d1e5dd1461012d5780631367944b146102715780632191207a146102fd5780634d3d096b14610325575b600080fd5b6101536004803603602081101561014357600080fd5b5035600160a060020a031661063d565b604051808060200187600160a060020a0316600160a060020a031681526020018681526020018060200185600160a060020a0316600160a060020a03168152602001848152602001838103835289818151815260200191508051906020019080838360005b838110156101d05781810151838201526020016101b8565b50505050905090810190601f1680156101fd5780820380516001836020036101000a031916815260200191505b50838103825286518152865160209182019188019080838360005b83811015610230578181015183820152602001610218565b50505050905090810190601f16801561025d5780820380516001836020036101000a031916815260200191505b509850505050505050505060405180910390f35b6102e16004803603602081101561028757600080fd5b8101906020810181356401000000008111156102a257600080fd5b8201836020820111156102b457600080fd5b803590602001918460018302840111640100000000831117156102d657600080fd5b509092509050610832565b60408051600160a060020a039092168252519081900360200190f35b6103236004803603602081101561031357600080fd5b5035600160a060020a0316610883565b005b6103956004803603602081101561033b57600080fd5b81019060208101813564010000000081111561035657600080fd5b82018360208201111561036857600080fd5b8035906020019184600183028401116401000000008311171561038a57600080fd5b509092509050610970565b604080519115158252519081900360200190f35b6102e16109c3565b610323600480360360408110156103c757600080fd5b50600160a060020a03813516906020013515156109d2565b610323600480360360208110156103f557600080fd5b5035600160a060020a0316610abb565b6103236004803603602081101561041b57600080fd5b5035600160a060020a0316610ba8565b6103956004803603602081101561044157600080fd5b5035600160a060020a0316610c95565b610459610caa565b60408051918252519081900360200190f35b6102e1610cb0565b610395600480360360c081101561048957600080fd5b8101906020810181356401000000008111156104a457600080fd5b8201836020820111156104b657600080fd5b803590602001918460018302840111640100000000831117156104d857600080fd5b91939092600160a060020a0383351692602081013592919060608101906040013564010000000081111561050b57600080fd5b82018360208201111561051d57600080fd5b8035906020019184600183028401116401000000008311171561053f57600080fd5b9193509150600160a060020a038135169060200135610cbf565b6101536004803603602081101561056f57600080fd5b81019060208101813564010000000081111561058a57600080fd5b82018360208201111561059c57600080fd5b803590602001918460018302840111640100000000831117156105be57600080fd5b91908080601f01602080910402602001604051908101604052809392919081815260200183838082843760009201919091525092955061102a945050505050565b6102e161136a565b610459611379565b6103236004803603602081101561062557600080fd5b5035600160a060020a031661137f565b6102e161146c565b600160a060020a03818116600090815260076020526040812060010154606092829184918391829116151561067157600080fd5b61067961147b565b600160a060020a0388166000908152600760209081526040918290208251815460026001821615610100026000190190911604601f8101849004909302810160e090810190945260c081018381529093919284928491908401828280156107215780601f106106f657610100808354040283529160200191610721565b820191906000526020600020905b81548152906001019060200180831161070457829003601f168201915b5050509183525050600182810154600160a060020a031660208084019190915260028085015460408086019190915260038601805482516101009682161596909602600019011692909204601f810184900484028501840190915280845260609094019390918301828280156107d85780601f106107ad576101008083540402835291602001916107d8565b820191906000526020600020905b8154815290600101906020018083116107bb57829003601f168201915b50505091835250506004820154600160a060020a0316602080830191909152600590920154604091820152825191830151908301516060840151608085015160a090950151939d929c50909a509850919650945092505050565b6000808383604051602001808383808284376040805191909301818103601f1901825283528051602091820120600090815260089091529190912054600160a060020a031698975050505050505050565b6000546001546040805160e260020a633d9abf2b028152336004820152600160a060020a0393841660248201529290911660448301525173__AOLibrary_____________________________9163f66afcac916064808301926020929190829003018186803b1580156108f557600080fd5b505af4158015610909573d6000803e3d6000fd5b505050506040513d602081101561091f57600080fd5b5051151561092c57600080fd5b600160a060020a038116151561094157600080fd5b6004805473ffffffffffffffffffffffffffffffffffffffff1916600160a060020a0392909216919091179055565b6000808383604051602001808383808284376040805191909301818103601f1901825283528051602091820120600090815260089091529190912054600160a060020a0316151598975050505050505050565b600154600160a060020a031681565b6000546001546040805160e260020a633d9abf2b028152336004820152600160a060020a0393841660248201529290911660448301525173__AOLibrary_____________________________9163f66afcac916064808301926020929190829003018186803b158015610a4457600080fd5b505af4158015610a58573d6000803e3d6000fd5b505050506040513d6020811015610a6e57600080fd5b50511515610a7b57600080fd5b600160a060020a0382161515610a9057600080fd5b600160a060020a03919091166000908152600260205260409020805460ff1916911515919091179055565b6000546001546040805160e260020a633d9abf2b028152336004820152600160a060020a0393841660248201529290911660448301525173__AOLibrary_____________________________9163f66afcac916064808301926020929190829003018186803b158015610b2d57600080fd5b505af4158015610b41573d6000803e3d6000fd5b505050506040513d6020811015610b5757600080fd5b50511515610b6457600080fd5b600160a060020a0381161515610b7957600080fd5b6001805473ffffffffffffffffffffffffffffffffffffffff1916600160a060020a0392909216919091179055565b6000546001546040805160e260020a633d9abf2b028152336004820152600160a060020a0393841660248201529290911660448301525173__AOLibrary_____________________________9163f66afcac916064808301926020929190829003018186803b158015610c1a57600080fd5b505af4158015610c2e573d6000803e3d6000fd5b505050506040513d6020811015610c4457600080fd5b50511515610c5157600080fd5b600160a060020a0381161515610c6657600080fd5b6003805473ffffffffffffffffffffffffffffffffffffffff1916600160a060020a0392909216919091179055565b60026020526000908152604090205460ff1681565b60055481565b600054600160a060020a031681565b600354600090600160a060020a0316331480610ce55750600454600160a060020a031633145b1515610cf057600080fd5b60008811610cfd57600080fd5b600160a060020a0387161515610d1257600080fd5b851580610d1f5750856001145b1515610d2a57600080fd5b60008411610d3757600080fd5b600160a060020a0383161515610d4c57600080fd5b60008210158015610d5e575060028211155b1515610d6957600080fd5b6040517f4d3d096b000000000000000000000000000000000000000000000000000000008152602060048201908152602482018a90523091634d3d096b918c918c91908190604401848480828437600083820152604051601f909101601f191690920195506020945090925050508083038186803b158015610dea57600080fd5b505afa158015610dfe573d6000803e3d6000fd5b505050506040513d6020811015610e1457600080fd5b505115610e2057600080fd5b60028214610ee0576040517f4d3d096b000000000000000000000000000000000000000000000000000000008152602060048201908152602482018690523091634d3d096b9188918891908190604401848480828437600083820152604051601f909101601f191690920195506020945090925050508083038186803b158015610ea957600080fd5b505afa158015610ebd573d6000803e3d6000fd5b505050506040513d6020811015610ed357600080fd5b50511515610ee057600080fd5b60008989604051602001808383808284378083019250505092505050604051602081830303815290604052805190602001209050876008600083815260200190815260200160002060006101000a815481600160a060020a030219169083600160a060020a031602179055506000600760008a600160a060020a0316600160a060020a0316815260200190815260200160002090508a8a826000019190610f889291906114c4565b5060018101805473ffffffffffffffffffffffffffffffffffffffff1916600160a060020a038b1617905560028101889055610fc86003820188886114c4565b5060048101805473ffffffffffffffffffffffffffffffffffffffff1916600160a060020a0387161790556005810184905587151561100f57600680546001019055611019565b6005805460010190555b5060019a9950505050505050505050565b6060600080606060008030600160a060020a0316634d3d096b886040518263ffffffff167c01000000000000000000000000000000000000000000000000000000000281526004018080602001828103825283818151815260200191508051906020019080838360005b838110156110ac578181015183820152602001611094565b50505050905090810190601f1680156110d95780820380516001836020036101000a031916815260200191505b509250505060206040518083038186803b1580156110f657600080fd5b505afa15801561110a573d6000803e3d6000fd5b505050506040513d602081101561112057600080fd5b5051151561112d57600080fd5b6000876040516020018082805190602001908083835b602083106111625780518252601f199092019160209182019101611143565b6001836020036101000a0380198251168184511680821785525050505050509050019150506040516020818303038152906040528051906020012090506111a761147b565b600082815260086020908152604080832054600160a060020a0316835260078252918290208251815460026101006001831615026000190190911604601f8101849004909302810160e090810190945260c081018381529093919284928491908401828280156112585780601f1061122d57610100808354040283529160200191611258565b820191906000526020600020905b81548152906001019060200180831161123b57829003601f168201915b5050509183525050600182810154600160a060020a031660208084019190915260028085015460408086019190915260038601805482516101009682161596909602600019011692909204601f8101849004840285018401909152808452606090940193909183018282801561130f5780601f106112e45761010080835404028352916020019161130f565b820191906000526020600020905b8154815290600101906020018083116112f257829003601f168201915b50505091835250506004820154600160a060020a0316602080830191909152600590920154604091820152825191830151908301516060840151608085015160a090950151939e929d50909b50995091975095509350505050565b600354600160a060020a031681565b60065481565b6000546001546040805160e260020a633d9abf2b028152336004820152600160a060020a0393841660248201529290911660448301525173__AOLibrary_____________________________9163f66afcac916064808301926020929190829003018186803b1580156113f157600080fd5b505af4158015611405573d6000803e3d6000fd5b505050506040513d602081101561141b57600080fd5b5051151561142857600080fd5b600160a060020a038116151561143d57600080fd5b6000805473ffffffffffffffffffffffffffffffffffffffff1916600160a060020a0392909216919091179055565b600454600160a060020a031681565b60c060405190810160405280606081526020016000600160a060020a0316815260200160008152602001606081526020016000600160a060020a03168152602001600081525090565b828054600181600116156101000203166002900490600052602060002090601f016020900481019282601f106115055782800160ff19823516178555611532565b82800160010185558215611532579182015b82811115611532578235825591602001919060010190611517565b5061153e929150611542565b5090565b61155c91905b8082111561153e5760008155600101611548565b9056fea165627a7a7230582083e40f46295618331e2491a71eefc9e2242991cf80a14fb8c4f235d8738720910029",
	"source": "pragma solidity >=0.5.4 <0.6.0;\n\nimport './TheAO.sol';\nimport './AOLibrary.sol';\nimport './INameTAOLookup.sol';\n\n/**\n * @title NameTAOLookup\n *\n */\ncontract NameTAOLookup is TheAO, INameTAOLookup {\n\taddress public nameFactoryAddress;\n\taddress public taoFactoryAddress;\n\n\tstruct NameTAOInfo {\n\t\tstring name;\n\t\taddress nameTAOId;\n\t\tuint256 typeId; // 0 = TAO. 1 = Name\n\t\tstring parentName;\n\t\taddress parentId; // Can be a Name ID/TAO ID/ETH address\n\t\tuint256 parentTypeId; // 0 = TAO. 1 = Name. 2 = ETH address\n\t}\n\n\tuint256 public totalNames;\n\tuint256 public totalTAOs;\n\n\t// Mapping from Name/TAO ID to NameTAOInfo\n\tmapping (address => NameTAOInfo) internal nameTAOInfos;\n\n\t// Mapping from name to Name/TAO ID\n\tmapping (bytes32 => address) internal nameToNameTAOIdLookup;\n\n\t/**\n\t * @dev Constructor function\n\t */\n\tconstructor(address _nameFactoryAddress, address _taoFactoryAddress, address _nameTAOPositionAddress) public {\n\t\tsetNameFactoryAddress(_nameFactoryAddress);\n\t\tsetTAOFactoryAddress(_taoFactoryAddress);\n\t\tsetNameTAOPositionAddress(_nameTAOPositionAddress);\n\t}\n\n\t/**\n\t * @dev Checks if the calling contract address is The AO\n\t *\t\tOR\n\t *\t\tIf The AO is set to a Name/TAO, then check if calling address is the Advocate\n\t */\n\tmodifier onlyTheAO {\n\t\trequire (AOLibrary.isTheAO(msg.sender, theAO, nameTAOPositionAddress));\n\t\t_;\n\t}\n\n\t/**\n\t * @dev Check if calling address is Factory\n\t */\n\tmodifier onlyFactory {\n\t\trequire (msg.sender == nameFactoryAddress || msg.sender == taoFactoryAddress);\n\t\t_;\n\t}\n\n\t/***** The AO ONLY METHODS *****/\n\t/**\n\t * @dev Transfer ownership of The AO to new address\n\t * @param _theAO The new address to be transferred\n\t */\n\tfunction transferOwnership(address _theAO) public onlyTheAO {\n\t\trequire (_theAO != address(0));\n\t\ttheAO = _theAO;\n\t}\n\n\t/**\n\t * @dev Whitelist `_account` address to transact on behalf of others\n\t * @param _account The address to whitelist\n\t * @param _whitelist Either to whitelist or not\n\t */\n\tfunction setWhitelist(address _account, bool _whitelist) public onlyTheAO {\n\t\trequire (_account != address(0));\n\t\twhitelist[_account] = _whitelist;\n\t}\n\n\t/**\n\t * @dev The AO set the nameFactoryAddress Address\n\t * @param _nameFactoryAddress The address of NameFactory\n\t */\n\tfunction setNameFactoryAddress(address _nameFactoryAddress) public onlyTheAO {\n\t\trequire (_nameFactoryAddress != address(0));\n\t\tnameFactoryAddress = _nameFactoryAddress;\n\t}\n\n\t/**\n\t * @dev The AO set the taoFactoryAddress Address\n\t * @param _taoFactoryAddress The address of TAOFactory\n\t */\n\tfunction setTAOFactoryAddress(address _taoFactoryAddress) public onlyTheAO {\n\t\trequire (_taoFactoryAddress != address(0));\n\t\ttaoFactoryAddress = _taoFactoryAddress;\n\t}\n\n\t/**\n\t * @dev The AO set the NameTAOPosition Address\n\t * @param _nameTAOPositionAddress The address of NameTAOPosition\n\t */\n\tfunction setNameTAOPositionAddress(address _nameTAOPositionAddress) public onlyTheAO {\n\t\trequire (_nameTAOPositionAddress != address(0));\n\t\tnameTAOPositionAddress = _nameTAOPositionAddress;\n\t}\n\n\t/***** PUBLIC METHODS *****/\n\t/**\n\t * @dev Check whether or not a name exist in the list\n\t * @param _name The name to be checked\n\t * @return true if yes, false otherwise\n\t */\n\tfunction isExist(string calldata _name) external view returns (bool) {\n\t\tbytes32 _nameKey = keccak256(abi.encodePacked(_name));\n\t\treturn (nameToNameTAOIdLookup[_nameKey] != address(0));\n\t}\n\n\t/**\n\t * @dev Add a new NameTAOInfo\n\t * @param _name The name of the Name/TAO\n\t * @param _nameTAOId The address of the Name/TAO\n\t * @param _typeId If TAO = 0. Name = 1\n\t * @param _parentName The parent name of the Name/TAO\n\t * @param _parentId The address of the parent. Can be a Name ID/TAO ID/ETH address\n\t * @param _parentTypeId If TAO = 0. Name = 1. 2 = ETH address\n\t * @return true on success\n\t */\n\tfunction initialize(string calldata _name, address _nameTAOId, uint256 _typeId, string calldata _parentName, address _parentId, uint256 _parentTypeId) external onlyFactory returns (bool) {\n\t\trequire (bytes(_name).length > 0);\n\t\trequire (_nameTAOId != address(0));\n\t\trequire (_typeId == 0 || _typeId == 1);\n\t\trequire (bytes(_parentName).length > 0);\n\t\trequire (_parentId != address(0));\n\t\trequire (_parentTypeId >= 0 && _parentTypeId <= 2);\n\t\trequire (!this.isExist(_name));\n\t\tif (_parentTypeId != 2) {\n\t\t\trequire (this.isExist(_parentName));\n\t\t}\n\n\t\tbytes32 _nameKey = keccak256(abi.encodePacked(_name));\n\t\tnameToNameTAOIdLookup[_nameKey] = _nameTAOId;\n\n\t\tNameTAOInfo storage _nameTAOInfo = nameTAOInfos[_nameTAOId];\n\t\t_nameTAOInfo.name = _name;\n\t\t_nameTAOInfo.nameTAOId = _nameTAOId;\n\t\t_nameTAOInfo.typeId = _typeId;\n\t\t_nameTAOInfo.parentName = _parentName;\n\t\t_nameTAOInfo.parentId = _parentId;\n\t\t_nameTAOInfo.parentTypeId = _parentTypeId;\n\n\t\tif (_typeId == 0) {\n\t\t\ttotalTAOs++;\n\t\t} else {\n\t\t\ttotalNames++;\n\t\t}\n\t\treturn true;\n\t}\n\n\t/**\n\t * @dev Get the NameTAOInfo given a name\n\t * @param _name The name to be queried\n\t * @return the name of Name/TAO\n\t * @return the address of Name/TAO\n\t * @return type ID. 0 = TAO. 1 = Name\n\t * @return the parent name of Name/TAO\n\t * @return the address of the parent. Can be a Name ID/TAO ID/ETH address\n\t * @return the parent typeId. If TAO = 0. Name = 1. 2 = ETH address\n\t */\n\tfunction getByName(string memory _name) public view returns (string memory, address, uint256, string memory, address, uint256) {\n\t\trequire (this.isExist(_name));\n\t\tbytes32 _nameKey = keccak256(abi.encodePacked(_name));\n\t\tNameTAOInfo memory _nameTAOInfo = nameTAOInfos[nameToNameTAOIdLookup[_nameKey]];\n\t\treturn (\n\t\t\t_nameTAOInfo.name,\n\t\t\t_nameTAOInfo.nameTAOId,\n\t\t\t_nameTAOInfo.typeId,\n\t\t\t_nameTAOInfo.parentName,\n\t\t\t_nameTAOInfo.parentId,\n\t\t\t_nameTAOInfo.parentTypeId\n\t\t);\n\t}\n\n\t/**\n\t * @dev Get the NameTAOInfo given a Name/TAO ID\n\t * @param _id The Name/TAO ID to be queried\n\t * @return the name of Name/TAO\n\t * @return the address of Name/TAO\n\t * @return type ID. 0 = TAO. 1 = Name\n\t * @return the parent name of Name/TAO\n\t * @return the address of the parent. Can be a Name ID/TAO ID/ETH address\n\t * @return the parent typeId. If TAO = 0. Name = 1. 2 = ETH address\n\t */\n\tfunction getById(address _id) external view returns (string memory, address, uint256, string memory, address, uint256) {\n\t\trequire (nameTAOInfos[_id].nameTAOId != address(0));\n\t\tNameTAOInfo memory _nameTAOInfo = nameTAOInfos[_id];\n\t\treturn (\n\t\t\t_nameTAOInfo.name,\n\t\t\t_nameTAOInfo.nameTAOId,\n\t\t\t_nameTAOInfo.typeId,\n\t\t\t_nameTAOInfo.parentName,\n\t\t\t_nameTAOInfo.parentId,\n\t\t\t_nameTAOInfo.parentTypeId\n\t\t);\n\t}\n\n\t/**\n\t * @dev Return the Name/TAO ID given a _name\n\t * @param _name The name to be queried\n\t * @return the nameTAOId of the name\n\t */\n\tfunction getIdByName(string calldata _name) external view returns (address) {\n\t\tbytes32 _nameKey = keccak256(abi.encodePacked(_name));\n\t\treturn nameToNameTAOIdLookup[_nameKey];\n\t}\n}\n",
	"sourcePath": "/Users/johanmulyono/Work/AO/ao-contracts/contracts/NameTAOLookup.sol",
	"compiler": {
		"name": "solc",
		"version": "0.5.4+commit.9549d8ff.Emscripten.clang"
	},
	"schemaVersion": "3.0.9",
	"updatedAt": "2019-05-28T07:16:22.149Z",
	"devdoc": {
		"methods": {
			"constructor": {
				"details": "Constructor function"
			},
			"getById(address)": {
				"details": "Get the NameTAOInfo given a Name/TAO ID",
				"params": {
					"_id": "The Name/TAO ID to be queried"
				},
				"return": "the name of Name/TAOthe address of Name/TAOtype ID. 0 = TAO. 1 = Namethe parent name of Name/TAOthe address of the parent. Can be a Name ID/TAO ID/ETH addressthe parent typeId. If TAO = 0. Name = 1. 2 = ETH address"
			},
			"getByName(string)": {
				"details": "Get the NameTAOInfo given a name",
				"params": {
					"_name": "The name to be queried"
				},
				"return": "the name of Name/TAOthe address of Name/TAOtype ID. 0 = TAO. 1 = Namethe parent name of Name/TAOthe address of the parent. Can be a Name ID/TAO ID/ETH addressthe parent typeId. If TAO = 0. Name = 1. 2 = ETH address"
			},
			"getIdByName(string)": {
				"details": "Return the Name/TAO ID given a _name",
				"params": {
					"_name": "The name to be queried"
				},
				"return": "the nameTAOId of the name"
			},
			"initialize(string,address,uint256,string,address,uint256)": {
				"details": "Add a new NameTAOInfo",
				"params": {
					"_name": "The name of the Name/TAO",
					"_nameTAOId": "The address of the Name/TAO",
					"_parentId": "The address of the parent. Can be a Name ID/TAO ID/ETH address",
					"_parentName": "The parent name of the Name/TAO",
					"_parentTypeId": "If TAO = 0. Name = 1. 2 = ETH address",
					"_typeId": "If TAO = 0. Name = 1"
				},
				"return": "true on success"
			},
			"isExist(string)": {
				"details": "Check whether or not a name exist in the list",
				"params": {
					"_name": "The name to be checked"
				},
				"return": "true if yes, false otherwise"
			},
			"setNameFactoryAddress(address)": {
				"details": "The AO set the nameFactoryAddress Address",
				"params": {
					"_nameFactoryAddress": "The address of NameFactory"
				}
			},
			"setNameTAOPositionAddress(address)": {
				"details": "The AO set the NameTAOPosition Address",
				"params": {
					"_nameTAOPositionAddress": "The address of NameTAOPosition"
				}
			},
			"setTAOFactoryAddress(address)": {
				"details": "The AO set the taoFactoryAddress Address",
				"params": {
					"_taoFactoryAddress": "The address of TAOFactory"
				}
			},
			"setWhitelist(address,bool)": {
				"details": "Whitelist `_account` address to transact on behalf of others",
				"params": {
					"_account": "The address to whitelist",
					"_whitelist": "Either to whitelist or not"
				}
			},
			"transferOwnership(address)": {
				"details": "Transfer ownership of The AO to new address",
				"params": {
					"_theAO": "The new address to be transferred"
				}
			}
		},
		"title": "NameTAOLookup "
	},
	"userdoc": {
		"methods": {}
	}
}