{
	"contractName": "NameAccountRecovery",
	"abi": [
		{
			"constant": true,
			"inputs": [],
			"name": "aoSettingAddress",
			"outputs": [
				{
					"name": "",
					"type": "address"
				}
			],
			"payable": false,
			"stateMutability": "view",
			"type": "function"
		},
		{
			"constant": true,
			"inputs": [],
			"name": "nameTAOPositionAddress",
			"outputs": [
				{
					"name": "",
					"type": "address"
				}
			],
			"payable": false,
			"stateMutability": "view",
			"type": "function"
		},
		{
			"constant": true,
			"inputs": [
				{
					"name": "",
					"type": "address"
				}
			],
			"name": "whitelist",
			"outputs": [
				{
					"name": "",
					"type": "bool"
				}
			],
			"payable": false,
			"stateMutability": "view",
			"type": "function"
		},
		{
			"constant": true,
			"inputs": [],
			"name": "theAO",
			"outputs": [
				{
					"name": "",
					"type": "address"
				}
			],
			"payable": false,
			"stateMutability": "view",
			"type": "function"
		},
		{
			"constant": true,
			"inputs": [],
			"name": "nameFactoryAddress",
			"outputs": [
				{
					"name": "",
					"type": "address"
				}
			],
			"payable": false,
			"stateMutability": "view",
			"type": "function"
		},
		{
			"constant": true,
			"inputs": [],
			"name": "namePublicKeyAddress",
			"outputs": [
				{
					"name": "",
					"type": "address"
				}
			],
			"payable": false,
			"stateMutability": "view",
			"type": "function"
		},
		{
			"constant": true,
			"inputs": [],
			"name": "settingTAOId",
			"outputs": [
				{
					"name": "",
					"type": "address"
				}
			],
			"payable": false,
			"stateMutability": "view",
			"type": "function"
		},
		{
			"inputs": [
				{
					"name": "_nameFactoryAddress",
					"type": "address"
				},
				{
					"name": "_nameTAOPositionAddress",
					"type": "address"
				}
			],
			"payable": false,
			"stateMutability": "nonpayable",
			"type": "constructor"
		},
		{
			"anonymous": false,
			"inputs": [
				{
					"indexed": true,
					"name": "nameId",
					"type": "address"
				},
				{
					"indexed": false,
					"name": "listenerId",
					"type": "address"
				},
				{
					"indexed": false,
					"name": "compromised",
					"type": "bool"
				},
				{
					"indexed": false,
					"name": "submittedTimestamp",
					"type": "uint256"
				},
				{
					"indexed": false,
					"name": "lockedUntilTimestamp",
					"type": "uint256"
				},
				{
					"indexed": false,
					"name": "nonce",
					"type": "uint256"
				}
			],
			"name": "SubmitAccountRecovery",
			"type": "event"
		},
		{
			"anonymous": false,
			"inputs": [
				{
					"indexed": true,
					"name": "nameId",
					"type": "address"
				},
				{
					"indexed": false,
					"name": "speakerId",
					"type": "address"
				},
				{
					"indexed": false,
					"name": "newAddress",
					"type": "address"
				},
				{
					"indexed": false,
					"name": "timestamp",
					"type": "uint256"
				},
				{
					"indexed": false,
					"name": "nonce",
					"type": "uint256"
				}
			],
			"name": "SetNameNewAddress",
			"type": "event"
		},
		{
			"constant": false,
			"inputs": [
				{
					"name": "_theAO",
					"type": "address"
				}
			],
			"name": "transferOwnership",
			"outputs": [],
			"payable": false,
			"stateMutability": "nonpayable",
			"type": "function"
		},
		{
			"constant": false,
			"inputs": [
				{
					"name": "_account",
					"type": "address"
				},
				{
					"name": "_whitelist",
					"type": "bool"
				}
			],
			"name": "setWhitelist",
			"outputs": [],
			"payable": false,
			"stateMutability": "nonpayable",
			"type": "function"
		},
		{
			"constant": false,
			"inputs": [
				{
					"name": "_nameFactoryAddress",
					"type": "address"
				}
			],
			"name": "setNameFactoryAddress",
			"outputs": [],
			"payable": false,
			"stateMutability": "nonpayable",
			"type": "function"
		},
		{
			"constant": false,
			"inputs": [
				{
					"name": "_nameTAOPositionAddress",
					"type": "address"
				}
			],
			"name": "setNameTAOPositionAddress",
			"outputs": [],
			"payable": false,
			"stateMutability": "nonpayable",
			"type": "function"
		},
		{
			"constant": false,
			"inputs": [
				{
					"name": "_namePublicKeyAddress",
					"type": "address"
				}
			],
			"name": "setNamePublicKeyAddress",
			"outputs": [],
			"payable": false,
			"stateMutability": "nonpayable",
			"type": "function"
		},
		{
			"constant": false,
			"inputs": [
				{
					"name": "_settingTAOId",
					"type": "address"
				}
			],
			"name": "setSettingTAOId",
			"outputs": [],
			"payable": false,
			"stateMutability": "nonpayable",
			"type": "function"
		},
		{
			"constant": false,
			"inputs": [
				{
					"name": "_aoSettingAddress",
					"type": "address"
				}
			],
			"name": "setAOSettingAddress",
			"outputs": [],
			"payable": false,
			"stateMutability": "nonpayable",
			"type": "function"
		},
		{
			"constant": true,
			"inputs": [
				{
					"name": "_id",
					"type": "address"
				}
			],
			"name": "getAccountRecovery",
			"outputs": [
				{
					"name": "",
					"type": "bool"
				},
				{
					"name": "",
					"type": "uint256"
				},
				{
					"name": "",
					"type": "uint256"
				}
			],
			"payable": false,
			"stateMutability": "view",
			"type": "function"
		},
		{
			"constant": false,
			"inputs": [
				{
					"name": "_id",
					"type": "address"
				}
			],
			"name": "submitAccountRecovery",
			"outputs": [],
			"payable": false,
			"stateMutability": "nonpayable",
			"type": "function"
		},
		{
			"constant": true,
			"inputs": [
				{
					"name": "_id",
					"type": "address"
				}
			],
			"name": "isCompromised",
			"outputs": [
				{
					"name": "",
					"type": "bool"
				}
			],
			"payable": false,
			"stateMutability": "view",
			"type": "function"
		},
		{
			"constant": false,
			"inputs": [
				{
					"name": "_id",
					"type": "address"
				},
				{
					"name": "_newAddress",
					"type": "address"
				}
			],
			"name": "setNameNewAddress",
			"outputs": [],
			"payable": false,
			"stateMutability": "nonpayable",
			"type": "function"
		}
	],
	"bytecode": "0x60806040523480156200001157600080fd5b5060405160408062001e49833981018060405260408110156200003357600080fd5b50805160209091015160008054600160a060020a0319163317905562000062826401000000006200007e810204565b620000768164010000000062000183810204565b505062000288565b600054600554604080517ff66afcac000000000000000000000000000000000000000000000000000000008152336004820152600160a060020a0393841660248201529290911660448301525173__AOLibrary_____________________________9163f66afcac916064808301926020929190829003018186803b1580156200010757600080fd5b505af41580156200011c573d6000803e3d6000fd5b505050506040513d60208110156200013357600080fd5b505115156200014157600080fd5b600160a060020a03811615156200015757600080fd5b60048054600160a060020a03909216600160a060020a0319928316811790915560088054909216179055565b600054600554604080517ff66afcac000000000000000000000000000000000000000000000000000000008152336004820152600160a060020a0393841660248201529290911660448301525173__AOLibrary_____________________________9163f66afcac916064808301926020929190829003018186803b1580156200020c57600080fd5b505af415801562000221573d6000803e3d6000fd5b505050506040513d60208110156200023857600080fd5b505115156200024657600080fd5b600160a060020a03811615156200025c57600080fd5b60058054600160a060020a03909216600160a060020a0319928316811790915560098054909216179055565b611bb180620002986000396000f3fe608060405234801561001057600080fd5b506004361061011a5760003560e060020a900480638c924361116100a6578063d6830af311610075578063d6830af3146102d7578063d8ce52d1146102fd578063e7c5018514610305578063f2fde38b1461030d578063f42037a7146103335761011a565b80638c9243611461027b5780639b19251a146102a1578063a9b6b38e146102c7578063bc406206146102cf5761011a565b80634ef033f0116100ed5780634ef033f0146101d357806353d6fd59146101db5780635cfaf2ef146102095780636c98d7fc1461022f5780636d9aa034146102555761011a565b806306fd70881461011f5780631d0138ff146101475780632b3fd4a01461016b5780633ebc2ab314610199575b600080fd5b6101456004803603602081101561013557600080fd5b5035600160a060020a0316610379565b005b61014f610470565b60408051600160a060020a039092168252519081900360200190f35b6101456004803603604081101561018157600080fd5b50600160a060020a038135811691602001351661047f565b6101bf600480360360208110156101af57600080fd5b5035600160a060020a0316610c14565b604080519115158252519081900360200190f35b61014f610d19565b610145600480360360408110156101f157600080fd5b50600160a060020a0381351690602001351515610d28565b6101456004803603602081101561021f57600080fd5b5035600160a060020a0316610e11565b6101456004803603602081101561024557600080fd5b5035600160a060020a0316610f08565b6101456004803603602081101561026b57600080fd5b5035600160a060020a0316611459565b6101456004803603602081101561029157600080fd5b5035600160a060020a0316611550565b6101bf600480360360208110156102b757600080fd5b5035600160a060020a0316611647565b61014f61165c565b61014f61166b565b610145600480360360208110156102ed57600080fd5b5035600160a060020a031661167a565b61014f6117fc565b61014f61180b565b6101456004803603602081101561032357600080fd5b5035600160a060020a031661181a565b6103596004803603602081101561034957600080fd5b5035600160a060020a0316611907565b604080519315158452602084019290925282820152519081900360600190f35b6000546005546040805160e260020a633d9abf2b028152336004820152600160a060020a0393841660248201529290911660448301525173__AOLibrary_____________________________9163f66afcac916064808301926020929190829003018186803b1580156103eb57600080fd5b505af41580156103ff573d6000803e3d6000fd5b505050506040513d602081101561041557600080fd5b5051151561042257600080fd5b600160a060020a038116151561043757600080fd5b60078054600160a060020a0390921673ffffffffffffffffffffffffffffffffffffffff199283168117909155600b8054909216179055565b600754600160a060020a031681565b8173__AOLibrary_____________________________632d706a34826040518263ffffffff1660e060020a0281526004018082600160a060020a0316600160a060020a0316815260200191505060206040518083038186803b1580156104e457600080fd5b505af41580156104f8573d6000803e3d6000fd5b505050506040513d602081101561050e57600080fd5b5051151561051b57600080fd5b6008546040805160e060020a63029b7d530281523360048201529051600092600160a060020a03169163029b7d53916024808301926020929190829003018186803b15801561056957600080fd5b505afa15801561057d573d6000803e3d6000fd5b505050506040513d602081101561059357600080fd5b5051600160a060020a031614156105a957600080fd5b600160a060020a03821615156105be57600080fd5b600954604080517f20082c69000000000000000000000000000000000000000000000000000000008152336004820152600160a060020a038681166024830152915191909216916320082c69916044808301926020929190829003018186803b15801561062a57600080fd5b505afa15801561063e573d6000803e3d6000fd5b505050506040513d602081101561065457600080fd5b5051151561066157600080fd5b6008546040805160e060020a63029b7d5302815233600482015290513092633ebc2ab392600160a060020a039091169163029b7d5391602480820192602092909190829003018186803b1580156106b757600080fd5b505afa1580156106cb573d6000803e3d6000fd5b505050506040513d60208110156106e157600080fd5b50516040805160e060020a63ffffffff8516028152600160a060020a039092166004830152516024808301926020929190829003018186803b15801561072657600080fd5b505afa15801561073a573d6000803e3d6000fd5b505050506040513d602081101561075057600080fd5b50511561075c57600080fd5b604080517f3ebc2ab3000000000000000000000000000000000000000000000000000000008152600160a060020a038516600482015290513091633ebc2ab3916024808301926020929190829003018186803b1580156107bb57600080fd5b505afa1580156107cf573d6000803e3d6000fd5b505050506040513d60208110156107e557600080fd5b505115156107f257600080fd5b6008546040805160e060020a63029b7d53028152600160a060020a03858116600483015291516000939092169163029b7d5391602480820192602092909190829003018186803b15801561084557600080fd5b505afa158015610859573d6000803e3d6000fd5b505050506040513d602081101561086f57600080fd5b5051600160a060020a03161461088457600080fd5b600160a060020a038084166000818152600c60209081526040808320805460ff19168155600181018490556002810184905560085482517f2b3fd4a000000000000000000000000000000000000000000000000000000000815260048101969096528887166024870152915190959190911693632b3fd4a09360448083019493928390030190829087803b15801561091b57600080fd5b505af115801561092f573d6000803e3d6000fd5b505050506040513d602081101561094557600080fd5b5051151561095257600080fd5b600a54604080517fa481247c000000000000000000000000000000000000000000000000000000008152600160a060020a03878116600483015286811660248301529151919092169163a481247c916044808301926020929190829003018186803b1580156109c057600080fd5b505afa1580156109d4573d6000803e3d6000fd5b505050506040513d60208110156109ea57600080fd5b50511515610a9957600a54604080517ff0f2fd04000000000000000000000000000000000000000000000000000000008152600160a060020a03878116600483015286811660248301529151919092169163f0f2fd049160448083019260209291908290030181600087803b158015610a6257600080fd5b505af1158015610a76573d6000803e3d6000fd5b505050506040513d6020811015610a8c57600080fd5b50511515610a9957600080fd5b600854604080517ff5743c4c000000000000000000000000000000000000000000000000000000008152600160a060020a0387811660048301529151600093929092169163f5743c4c9160248082019260209290919082900301818787803b158015610b0457600080fd5b505af1158015610b18573d6000803e3d6000fd5b505050506040513d6020811015610b2e57600080fd5b5051905060008111610b3f57600080fd5b6008546040805160e060020a63029b7d530281523360048201529051600160a060020a03808916937fa2ba799ab310a8972c43fac2fe72f0e89beeb1807531fea8bcec1311328090119391169163029b7d5391602480820192602092909190829003018186803b158015610bb257600080fd5b505afa158015610bc6573d6000803e3d6000fd5b505050506040513d6020811015610bdc57600080fd5b505160408051600160a060020a0392831681529188166020830152428282015260016060830152519081900360800190a25050505050565b60008173__AOLibrary_____________________________632d706a34826040518263ffffffff1660e060020a0281526004018082600160a060020a0316600160a060020a0316815260200191505060206040518083038186803b158015610c7b57600080fd5b505af4158015610c8f573d6000803e3d6000fd5b505050506040513d6020811015610ca557600080fd5b50511515610cb257600080fd5b610cba611b61565b50600160a060020a0383166000908152600c60209081526040918290208251606081018452815460ff1615801580835260018401549483019490945260029092015493810193909352610d11575080604001514211155b949350505050565b600554600160a060020a031681565b6000546005546040805160e260020a633d9abf2b028152336004820152600160a060020a0393841660248201529290911660448301525173__AOLibrary_____________________________9163f66afcac916064808301926020929190829003018186803b158015610d9a57600080fd5b505af4158015610dae573d6000803e3d6000fd5b505050506040513d6020811015610dc457600080fd5b50511515610dd157600080fd5b600160a060020a0382161515610de657600080fd5b600160a060020a03919091166000908152600260205260409020805460ff1916911515919091179055565b6000546005546040805160e260020a633d9abf2b028152336004820152600160a060020a0393841660248201529290911660448301525173__AOLibrary_____________________________9163f66afcac916064808301926020929190829003018186803b158015610e8357600080fd5b505af4158015610e97573d6000803e3d6000fd5b505050506040513d6020811015610ead57600080fd5b50511515610eba57600080fd5b600160a060020a0381161515610ecf57600080fd5b60058054600160a060020a0390921673ffffffffffffffffffffffffffffffffffffffff19928316811790915560098054909216179055565b8073__AOLibrary_____________________________632d706a34826040518263ffffffff1660e060020a0281526004018082600160a060020a0316600160a060020a0316815260200191505060206040518083038186803b158015610f6d57600080fd5b505af4158015610f81573d6000803e3d6000fd5b505050506040513d6020811015610f9757600080fd5b50511515610fa457600080fd5b6008546040805160e060020a63029b7d530281523360048201529051600092600160a060020a03169163029b7d53916024808301926020929190829003018186803b158015610ff257600080fd5b505afa158015611006573d6000803e3d6000fd5b505050506040513d602081101561101c57600080fd5b5051600160a060020a0316141561103257600080fd5b600954604080517fdaacb9ce000000000000000000000000000000000000000000000000000000008152336004820152600160a060020a0385811660248301529151919092169163daacb9ce916044808301926020929190829003018186803b15801561109e57600080fd5b505afa1580156110b2573d6000803e3d6000fd5b505050506040513d60208110156110c857600080fd5b505115156110d557600080fd5b600954604080517f71ce52ed000000000000000000000000000000000000000000000000000000008152336004820152600160a060020a038581166024830152915191909216916371ce52ed916044808301926020929190829003018186803b15801561114157600080fd5b505afa158015611155573d6000803e3d6000fd5b505050506040513d602081101561116b57600080fd5b50511561117757600080fd5b6008546040805160e060020a63029b7d5302815233600482015290513092633ebc2ab392600160a060020a039091169163029b7d5391602480820192602092909190829003018186803b1580156111cd57600080fd5b505afa1580156111e1573d6000803e3d6000fd5b505050506040513d60208110156111f757600080fd5b50516040805160e060020a63ffffffff8516028152600160a060020a039092166004830152516024808301926020929190829003018186803b15801561123c57600080fd5b505afa158015611250573d6000803e3d6000fd5b505050506040513d602081101561126657600080fd5b50511561127257600080fd5b600160a060020a0382166000908152600c602052604090206002810154421161129a57600080fd5b805460ff19166001908117825542908201556112c86112b7611a00565b60018301549063ffffffff611b4e16565b6002820155600854604080517ff5743c4c000000000000000000000000000000000000000000000000000000008152600160a060020a0386811660048301529151600093929092169163f5743c4c9160248082019260209290919082900301818787803b15801561133857600080fd5b505af115801561134c573d6000803e3d6000fd5b505050506040513d602081101561136257600080fd5b505190506000811161137357600080fd5b6008546040805160e060020a63029b7d530281523360048201529051600160a060020a03808816937f47deb83140ae2c85e9af08db49e64191bda9b547269f4167e02ef7d15836048a9391169163029b7d5391602480820192602092909190829003018186803b1580156113e657600080fd5b505afa1580156113fa573d6000803e3d6000fd5b505050506040513d602081101561141057600080fd5b5051600185810154600287015460408051600160a060020a039095168552602085019390935283830191909152606083015260808201859052519081900360a00190a250505050565b6000546005546040805160e260020a633d9abf2b028152336004820152600160a060020a0393841660248201529290911660448301525173__AOLibrary_____________________________9163f66afcac916064808301926020929190829003018186803b1580156114cb57600080fd5b505af41580156114df573d6000803e3d6000fd5b505050506040513d60208110156114f557600080fd5b5051151561150257600080fd5b600160a060020a038116151561151757600080fd5b60068054600160a060020a0390921673ffffffffffffffffffffffffffffffffffffffff199283168117909155600a8054909216179055565b6000546005546040805160e260020a633d9abf2b028152336004820152600160a060020a0393841660248201529290911660448301525173__AOLibrary_____________________________9163f66afcac916064808301926020929190829003018186803b1580156115c257600080fd5b505af41580156115d6573d6000803e3d6000fd5b505050506040513d60208110156115ec57600080fd5b505115156115f957600080fd5b600160a060020a038116151561160e57600080fd5b60048054600160a060020a0390921673ffffffffffffffffffffffffffffffffffffffff19928316811790915560088054909216179055565b60026020526000908152604090205460ff1681565b600054600160a060020a031681565b600454600160a060020a031681565b6000546005546040805160e260020a633d9abf2b028152336004820152600160a060020a0393841660248201529290911660448301525173__AOLibrary_____________________________9163f66afcac916064808301926020929190829003018186803b1580156116ec57600080fd5b505af4158015611700573d6000803e3d6000fd5b505050506040513d602081101561171657600080fd5b5051151561172357600080fd5b604080517f2fca5414000000000000000000000000000000000000000000000000000000008152600160a060020a0383166004820152905173__AOLibrary_____________________________91632fca5414916024808301926020929190829003018186803b15801561179657600080fd5b505af41580156117aa573d6000803e3d6000fd5b505050506040513d60208110156117c057600080fd5b505115156117cd57600080fd5b6003805473ffffffffffffffffffffffffffffffffffffffff1916600160a060020a0392909216919091179055565b600654600160a060020a031681565b600354600160a060020a031681565b6000546005546040805160e260020a633d9abf2b028152336004820152600160a060020a0393841660248201529290911660448301525173__AOLibrary_____________________________9163f66afcac916064808301926020929190829003018186803b15801561188c57600080fd5b505af41580156118a0573d6000803e3d6000fd5b505050506040513d60208110156118b657600080fd5b505115156118c357600080fd5b600160a060020a03811615156118d857600080fd5b6000805473ffffffffffffffffffffffffffffffffffffffff1916600160a060020a0392909216919091179055565b60008060008373__AOLibrary_____________________________632d706a34826040518263ffffffff1660e060020a0281526004018082600160a060020a0316600160a060020a0316815260200191505060206040518083038186803b15801561197157600080fd5b505af4158015611985573d6000803e3d6000fd5b505050506040513d602081101561199b57600080fd5b505115156119a857600080fd5b6119b0611b61565b50505050600160a060020a03919091166000908152600c60209081526040918290208251606081018452815460ff1615158082526001830154938201849052600290920154930183905293909250565b600b54600354604080517f7065bedc000000000000000000000000000000000000000000000000000000008152600160a060020a03928316600482015260248101829052601b60448201527f6163636f756e745265636f766572794c6f636b4475726174696f6e00000000006064820152905160009384931691637065bedc9160848083019286929190829003018186803b158015611a9e57600080fd5b505afa158015611ab2573d6000803e3d6000fd5b505050506040513d6000823e601f3d908101601f1916820160405260a0811015611adb57600080fd5b815160208301516040840151606085015160808601805194969395929491939283019291640100000000811115611b1157600080fd5b82016020810184811115611b2457600080fd5b8151640100000000811182820187101715611b3e57600080fd5b5097995050505050505050505090565b81810182811015611b5b57fe5b92915050565b6060604051908101604052806000151581526020016000815260200160008152509056fea165627a7a72305820466914c4a6fa11d2d1f96fc84f226aad3d2c8bd31a9a3b45467251e949a7ede70029",
	"source": "pragma solidity >=0.5.4 <0.6.0;\n\nimport './SafeMath.sol';\nimport './AOLibrary.sol';\nimport './TheAO.sol';\nimport './INameAccountRecovery.sol';\nimport './INameFactory.sol';\nimport './INameTAOPosition.sol';\nimport './INamePublicKey.sol';\nimport './IAOSetting.sol';\n\n/**\n * @title NameAccountRecovery\n */\ncontract NameAccountRecovery is TheAO {\n\tusing SafeMath for uint256;\n\n\taddress public settingTAOId;\n\taddress public nameFactoryAddress;\n\taddress public nameTAOPositionAddress;\n\taddress public namePublicKeyAddress;\n\taddress public aoSettingAddress;\n\n\tINameFactory internal _nameFactory;\n\tINameTAOPosition internal _nameTAOPosition;\n\tINamePublicKey internal _namePublicKey;\n\tIAOSetting internal _aoSetting;\n\n\tstruct AccountRecovery {\n\t\t// If submitted, then Name is locked until lockedUntilTimestamp\n\t\t// and if no action is taken by the Speaker, then the current\n\t\t// eth address associated with the Name can resume operation\n\t\tbool submitted;\n\t\tuint256 submittedTimestamp;\t\t// Timestamp when this account recovery is submitted\n\t\tuint256 lockedUntilTimestamp;\t// The deadline for the current Speaker of Name to respond and replace the new eth address\n\t}\n\n\tmapping (address => AccountRecovery) internal accountRecoveries;\n\n\t// Event to be broadcasted to public when current Listener of Name submitted account recovery for a Name\n\tevent SubmitAccountRecovery(address indexed nameId, address listenerId, bool compromised, uint256 submittedTimestamp, uint256 lockedUntilTimestamp, uint256 nonce);\n\n\t// Event to be broadcasted to public when current Speaker of Name set new ETH Address for a Name\n\tevent SetNameNewAddress(address indexed nameId, address speakerId, address newAddress, uint256 timestamp, uint256 nonce);\n\n\t/**\n\t * @dev Constructor function\n\t */\n\tconstructor(address _nameFactoryAddress, address _nameTAOPositionAddress) public {\n\t\tsetNameFactoryAddress(_nameFactoryAddress);\n\t\tsetNameTAOPositionAddress(_nameTAOPositionAddress);\n\t}\n\n\t/**\n\t * @dev Checks if the calling contract address is The AO\n\t *\t\tOR\n\t *\t\tIf The AO is set to a Name/TAO, then check if calling address is the Advocate\n\t */\n\tmodifier onlyTheAO {\n\t\trequire (AOLibrary.isTheAO(msg.sender, theAO, nameTAOPositionAddress));\n\t\t_;\n\t}\n\n\t/**\n\t * @dev Check if calling address is Factory\n\t */\n\tmodifier onlyFactory {\n\t\trequire (msg.sender == nameFactoryAddress);\n\t\t_;\n\t}\n\n\t/**\n\t * @dev Check is msg.sender address is a Name\n\t */\n\t modifier senderIsName() {\n\t\trequire (_nameFactory.ethAddressToNameId(msg.sender) != address(0));\n\t\t_;\n\t }\n\n\t/**\n\t * @dev Check if `_nameId` is a Name\n\t */\n\tmodifier isName(address _nameId) {\n\t\trequire (AOLibrary.isName(_nameId));\n\t\t_;\n\t}\n\n\t/***** The AO ONLY METHODS *****/\n\t/**\n\t * @dev Transfer ownership of The AO to new address\n\t * @param _theAO The new address to be transferred\n\t */\n\tfunction transferOwnership(address _theAO) public onlyTheAO {\n\t\trequire (_theAO != address(0));\n\t\ttheAO = _theAO;\n\t}\n\n\t/**\n\t * @dev Whitelist `_account` address to transact on behalf of others\n\t * @param _account The address to whitelist\n\t * @param _whitelist Either to whitelist or not\n\t */\n\tfunction setWhitelist(address _account, bool _whitelist) public onlyTheAO {\n\t\trequire (_account != address(0));\n\t\twhitelist[_account] = _whitelist;\n\t}\n\n\t/**\n\t * @dev The AO set the NameFactory Address\n\t * @param _nameFactoryAddress The address of NameFactory\n\t */\n\tfunction setNameFactoryAddress(address _nameFactoryAddress) public onlyTheAO {\n\t\trequire (_nameFactoryAddress != address(0));\n\t\tnameFactoryAddress = _nameFactoryAddress;\n\t\t_nameFactory = INameFactory(_nameFactoryAddress);\n\t}\n\n\t/**\n\t * @dev The AO set the NameTAOPosition Address\n\t * @param _nameTAOPositionAddress The address of NameTAOPosition\n\t */\n\tfunction setNameTAOPositionAddress(address _nameTAOPositionAddress) public onlyTheAO {\n\t\trequire (_nameTAOPositionAddress != address(0));\n\t\tnameTAOPositionAddress = _nameTAOPositionAddress;\n\t\t_nameTAOPosition = INameTAOPosition(_nameTAOPositionAddress);\n\t}\n\n\t/**\n\t * @dev The AO set the NamePublicKey Address\n\t * @param _namePublicKeyAddress The address of NamePublicKey\n\t */\n\tfunction setNamePublicKeyAddress(address _namePublicKeyAddress) public onlyTheAO {\n\t\trequire (_namePublicKeyAddress != address(0));\n\t\tnamePublicKeyAddress = _namePublicKeyAddress;\n\t\t_namePublicKey = INamePublicKey(_namePublicKeyAddress);\n\t}\n\n\t/**\n\t * @dev The AO sets setting TAO ID\n\t * @param _settingTAOId The new setting TAO ID to set\n\t */\n\tfunction setSettingTAOId(address _settingTAOId) public onlyTheAO {\n\t\trequire (AOLibrary.isTAO(_settingTAOId));\n\t\tsettingTAOId = _settingTAOId;\n\t}\n\n\t/**\n\t * @dev The AO sets AO Setting address\n\t * @param _aoSettingAddress The address of AOSetting\n\t */\n\tfunction setAOSettingAddress(address _aoSettingAddress) public onlyTheAO {\n\t\trequire (_aoSettingAddress != address(0));\n\t\taoSettingAddress = _aoSettingAddress;\n\t\t_aoSetting = IAOSetting(_aoSettingAddress);\n\t}\n\n\t/***** PUBLIC METHODS *****/\n\t/**\n\t * @dev Get AccountRecovery information given a Name ID\n\t * @param _id The ID of the Name\n\t * @return the submit status of the account recovery\n\t * @return submittedTimestamp - Timestamp when this account recovery is submitted\n\t * @return lockedUntilTimestamp - The deadline for the current Speaker of Name to respond and replace the new eth address\n\t */\n\tfunction getAccountRecovery(address _id) public isName(_id) view returns (bool, uint256, uint256) {\n\t\tAccountRecovery memory _accountRecovery = accountRecoveries[_id];\n\t\treturn (\n\t\t\t_accountRecovery.submitted,\n\t\t\t_accountRecovery.submittedTimestamp,\n\t\t\t_accountRecovery.lockedUntilTimestamp\n\t\t);\n\t}\n\n\t/**\n\t * @dev Listener of Name submits an account recovery for the Name\n\t * @param _id The ID of the Name\n\t */\n\tfunction submitAccountRecovery(address _id) public isName(_id) senderIsName {\n\t\trequire (_nameTAOPosition.senderIsListener(msg.sender, _id));\n\n\t\t// Can't submit account recovery for itself\n\t\trequire (!_nameTAOPosition.senderIsAdvocate(msg.sender, _id));\n\n\t\t// Make sure Listener is not currenty compromised\n\t\trequire (!this.isCompromised(_nameFactory.ethAddressToNameId(msg.sender)));\n\n\t\tAccountRecovery storage _accountRecovery = accountRecoveries[_id];\n\n\t\t// Make sure currently it's not currently locked\n\t\trequire (now > _accountRecovery.lockedUntilTimestamp);\n\n\t\t_accountRecovery.submitted = true;\n\t\t_accountRecovery.submittedTimestamp = now;\n\t\t_accountRecovery.lockedUntilTimestamp = _accountRecovery.submittedTimestamp.add(_getAccountRecoveryLockDuration());\n\n\t\tuint256 _nonce = _nameFactory.incrementNonce(_id);\n\t\trequire (_nonce > 0);\n\n\t\temit SubmitAccountRecovery(_id, _nameFactory.ethAddressToNameId(msg.sender), true, _accountRecovery.submittedTimestamp, _accountRecovery.lockedUntilTimestamp, _nonce);\n\t}\n\n\t/**\n\t * @dev Check whether or not current Name is compromised,\n\t *\t\ti.e an account recovery has been submitted and waiting for\n\t *\t\taction from Speaker\n\t * @param _id The ID of the Name\n\t * @return true if yes. false otherwise\n\t */\n\tfunction isCompromised(address _id) external isName(_id) view returns (bool) {\n\t\tAccountRecovery memory _accountRecovery = accountRecoveries[_id];\n\t\treturn (_accountRecovery.submitted && now <= _accountRecovery.lockedUntilTimestamp);\n\t}\n\n\t/**\n\t * @dev Speaker of Name respond to AccountRecovery and submits a new eth address for Name\n\t * @param _id The ID of the Name\n\t * @param _newAddress The new replacement eth address\n\t */\n\tfunction setNameNewAddress(address _id, address _newAddress) public isName(_id) senderIsName {\n\t\trequire (_newAddress != address(0));\n\n\t\t// Only Speaker can do this action\n\t\trequire (_nameTAOPosition.senderIsSpeaker(msg.sender, _id));\n\n\t\t// Make sure Speaker is not currenty compromised\n\t\trequire (!this.isCompromised(_nameFactory.ethAddressToNameId(msg.sender)));\n\n\t\t// Make sure this Name is currently compromised and needs action\n\t\trequire (this.isCompromised(_id));\n\n\t\t// Make sure the newAddress is not yet assigned to a Name\n\t\trequire (_nameFactory.ethAddressToNameId(_newAddress) == address(0));\n\n\t\tAccountRecovery storage _accountRecovery = accountRecoveries[_id];\n\t\t_accountRecovery.submitted = false;\n\t\t_accountRecovery.submittedTimestamp = 0;\n\t\t_accountRecovery.lockedUntilTimestamp = 0;\n\n\t\t// Replace the existing eth address with new address\n\t\trequire (_nameFactory.setNameNewAddress(_id, _newAddress));\n\n\t\t// Add this _newAddress to Name's publicKey if needed\n\t\tif (!_namePublicKey.isKeyExist(_id, _newAddress)) {\n\t\t\trequire (_namePublicKey.whitelistAddKey(_id, _newAddress));\n\t\t}\n\n\t\tuint256 _nonce = _nameFactory.incrementNonce(_id);\n\t\trequire (_nonce > 0);\n\n\t\temit SetNameNewAddress(_id, _nameFactory.ethAddressToNameId(msg.sender), _newAddress, now, 1);\n\t}\n\n\t/***** INTERNAL METHOD *****/\n\t/**\n\t * @dev Get accountRecoveryLockDuration setting\n\t * @return accountRecoveryLockDuration = The amount of time for current Speaker of Name to response and replace the eth address associated with the Name\n\t */\n\tfunction _getAccountRecoveryLockDuration() internal view returns (uint256) {\n\t\t(uint256 accountRecoveryLockDuration,,,,) = _aoSetting.getSettingValuesByTAOName(settingTAOId, 'accountRecoveryLockDuration');\n\t\treturn accountRecoveryLockDuration;\n\t}\n}\n",
	"sourcePath": "/Users/johanmulyono/Work/AO/ao-contracts/contracts/NameAccountRecovery.sol",
	"compiler": {
		"name": "solc",
		"version": "0.5.4+commit.9549d8ff.Emscripten.clang"
	},
	"schemaVersion": "3.0.9",
	"updatedAt": "2019-05-28T07:16:22.233Z",
	"devdoc": {
		"methods": {
			"constructor": {
				"details": "Constructor function"
			},
			"getAccountRecovery(address)": {
				"details": "Get AccountRecovery information given a Name ID",
				"params": {
					"_id": "The ID of the Name"
				},
				"return": "the submit status of the account recoverysubmittedTimestamp - Timestamp when this account recovery is submittedlockedUntilTimestamp - The deadline for the current Speaker of Name to respond and replace the new eth address"
			},
			"isCompromised(address)": {
				"details": "Check whether or not current Name is compromised,\ti.e an account recovery has been submitted and waiting for\taction from Speaker",
				"params": {
					"_id": "The ID of the Name"
				},
				"return": "true if yes. false otherwise"
			},
			"setAOSettingAddress(address)": {
				"details": "The AO sets AO Setting address",
				"params": {
					"_aoSettingAddress": "The address of AOSetting"
				}
			},
			"setNameFactoryAddress(address)": {
				"details": "The AO set the NameFactory Address",
				"params": {
					"_nameFactoryAddress": "The address of NameFactory"
				}
			},
			"setNameNewAddress(address,address)": {
				"details": "Speaker of Name respond to AccountRecovery and submits a new eth address for Name",
				"params": {
					"_id": "The ID of the Name",
					"_newAddress": "The new replacement eth address"
				}
			},
			"setNamePublicKeyAddress(address)": {
				"details": "The AO set the NamePublicKey Address",
				"params": {
					"_namePublicKeyAddress": "The address of NamePublicKey"
				}
			},
			"setNameTAOPositionAddress(address)": {
				"details": "The AO set the NameTAOPosition Address",
				"params": {
					"_nameTAOPositionAddress": "The address of NameTAOPosition"
				}
			},
			"setSettingTAOId(address)": {
				"details": "The AO sets setting TAO ID",
				"params": {
					"_settingTAOId": "The new setting TAO ID to set"
				}
			},
			"setWhitelist(address,bool)": {
				"details": "Whitelist `_account` address to transact on behalf of others",
				"params": {
					"_account": "The address to whitelist",
					"_whitelist": "Either to whitelist or not"
				}
			},
			"submitAccountRecovery(address)": {
				"details": "Listener of Name submits an account recovery for the Name",
				"params": {
					"_id": "The ID of the Name"
				}
			},
			"transferOwnership(address)": {
				"details": "Transfer ownership of The AO to new address",
				"params": {
					"_theAO": "The new address to be transferred"
				}
			}
		},
		"title": "NameAccountRecovery"
	},
	"userdoc": {
		"methods": {}
	}
}