{
	"contractName": "NamePublicKey",
	"abi": [
		{
			"constant": true,
			"inputs": [],
			"name": "nameTAOPositionAddress",
			"outputs": [
				{
					"name": "",
					"type": "address"
				}
			],
			"payable": false,
			"stateMutability": "view",
			"type": "function"
		},
		{
			"constant": true,
			"inputs": [
				{
					"name": "",
					"type": "address"
				}
			],
			"name": "whitelist",
			"outputs": [
				{
					"name": "",
					"type": "bool"
				}
			],
			"payable": false,
			"stateMutability": "view",
			"type": "function"
		},
		{
			"constant": true,
			"inputs": [],
			"name": "nameAccountRecoveryAddress",
			"outputs": [
				{
					"name": "",
					"type": "address"
				}
			],
			"payable": false,
			"stateMutability": "view",
			"type": "function"
		},
		{
			"constant": true,
			"inputs": [],
			"name": "theAO",
			"outputs": [
				{
					"name": "",
					"type": "address"
				}
			],
			"payable": false,
			"stateMutability": "view",
			"type": "function"
		},
		{
			"constant": true,
			"inputs": [],
			"name": "nameFactoryAddress",
			"outputs": [
				{
					"name": "",
					"type": "address"
				}
			],
			"payable": false,
			"stateMutability": "view",
			"type": "function"
		},
		{
			"inputs": [
				{
					"name": "_nameFactoryAddress",
					"type": "address"
				},
				{
					"name": "_nameTAOPositionAddress",
					"type": "address"
				}
			],
			"payable": false,
			"stateMutability": "nonpayable",
			"type": "constructor"
		},
		{
			"anonymous": false,
			"inputs": [
				{
					"indexed": true,
					"name": "nameId",
					"type": "address"
				},
				{
					"indexed": false,
					"name": "publicKey",
					"type": "address"
				},
				{
					"indexed": false,
					"name": "nonce",
					"type": "uint256"
				}
			],
			"name": "AddKey",
			"type": "event"
		},
		{
			"anonymous": false,
			"inputs": [
				{
					"indexed": true,
					"name": "nameId",
					"type": "address"
				},
				{
					"indexed": false,
					"name": "publicKey",
					"type": "address"
				},
				{
					"indexed": false,
					"name": "nonce",
					"type": "uint256"
				}
			],
			"name": "RemoveKey",
			"type": "event"
		},
		{
			"anonymous": false,
			"inputs": [
				{
					"indexed": true,
					"name": "nameId",
					"type": "address"
				},
				{
					"indexed": false,
					"name": "publicKey",
					"type": "address"
				},
				{
					"indexed": false,
					"name": "nonce",
					"type": "uint256"
				}
			],
			"name": "SetDefaultKey",
			"type": "event"
		},
		{
			"constant": false,
			"inputs": [
				{
					"name": "_theAO",
					"type": "address"
				}
			],
			"name": "transferOwnership",
			"outputs": [],
			"payable": false,
			"stateMutability": "nonpayable",
			"type": "function"
		},
		{
			"constant": false,
			"inputs": [
				{
					"name": "_account",
					"type": "address"
				},
				{
					"name": "_whitelist",
					"type": "bool"
				}
			],
			"name": "setWhitelist",
			"outputs": [],
			"payable": false,
			"stateMutability": "nonpayable",
			"type": "function"
		},
		{
			"constant": false,
			"inputs": [
				{
					"name": "_nameFactoryAddress",
					"type": "address"
				}
			],
			"name": "setNameFactoryAddress",
			"outputs": [],
			"payable": false,
			"stateMutability": "nonpayable",
			"type": "function"
		},
		{
			"constant": false,
			"inputs": [
				{
					"name": "_nameTAOPositionAddress",
					"type": "address"
				}
			],
			"name": "setNameTAOPositionAddress",
			"outputs": [],
			"payable": false,
			"stateMutability": "nonpayable",
			"type": "function"
		},
		{
			"constant": false,
			"inputs": [
				{
					"name": "_nameAccountRecoveryAddress",
					"type": "address"
				}
			],
			"name": "setNameAccountRecoveryAddress",
			"outputs": [],
			"payable": false,
			"stateMutability": "nonpayable",
			"type": "function"
		},
		{
			"constant": false,
			"inputs": [
				{
					"name": "_id",
					"type": "address"
				},
				{
					"name": "_key",
					"type": "address"
				}
			],
			"name": "whitelistAddKey",
			"outputs": [
				{
					"name": "",
					"type": "bool"
				}
			],
			"payable": false,
			"stateMutability": "nonpayable",
			"type": "function"
		},
		{
			"constant": true,
			"inputs": [
				{
					"name": "_id",
					"type": "address"
				}
			],
			"name": "isExist",
			"outputs": [
				{
					"name": "",
					"type": "bool"
				}
			],
			"payable": false,
			"stateMutability": "view",
			"type": "function"
		},
		{
			"constant": false,
			"inputs": [
				{
					"name": "_id",
					"type": "address"
				},
				{
					"name": "_defaultKey",
					"type": "address"
				}
			],
			"name": "initialize",
			"outputs": [
				{
					"name": "",
					"type": "bool"
				}
			],
			"payable": false,
			"stateMutability": "nonpayable",
			"type": "function"
		},
		{
			"constant": true,
			"inputs": [
				{
					"name": "_id",
					"type": "address"
				}
			],
			"name": "getTotalPublicKeysCount",
			"outputs": [
				{
					"name": "",
					"type": "uint256"
				}
			],
			"payable": false,
			"stateMutability": "view",
			"type": "function"
		},
		{
			"constant": true,
			"inputs": [
				{
					"name": "_id",
					"type": "address"
				},
				{
					"name": "_key",
					"type": "address"
				}
			],
			"name": "isKeyExist",
			"outputs": [
				{
					"name": "",
					"type": "bool"
				}
			],
			"payable": false,
			"stateMutability": "view",
			"type": "function"
		},
		{
			"constant": false,
			"inputs": [
				{
					"name": "_id",
					"type": "address"
				},
				{
					"name": "_key",
					"type": "address"
				},
				{
					"name": "_nonce",
					"type": "uint256"
				},
				{
					"name": "_signatureV",
					"type": "uint8"
				},
				{
					"name": "_signatureR",
					"type": "bytes32"
				},
				{
					"name": "_signatureS",
					"type": "bytes32"
				}
			],
			"name": "addKey",
			"outputs": [],
			"payable": false,
			"stateMutability": "nonpayable",
			"type": "function"
		},
		{
			"constant": true,
			"inputs": [
				{
					"name": "_id",
					"type": "address"
				}
			],
			"name": "getDefaultKey",
			"outputs": [
				{
					"name": "",
					"type": "address"
				}
			],
			"payable": false,
			"stateMutability": "view",
			"type": "function"
		},
		{
			"constant": true,
			"inputs": [
				{
					"name": "_id",
					"type": "address"
				},
				{
					"name": "_from",
					"type": "uint256"
				},
				{
					"name": "_to",
					"type": "uint256"
				}
			],
			"name": "getKeys",
			"outputs": [
				{
					"name": "",
					"type": "address[]"
				}
			],
			"payable": false,
			"stateMutability": "view",
			"type": "function"
		},
		{
			"constant": false,
			"inputs": [
				{
					"name": "_id",
					"type": "address"
				},
				{
					"name": "_key",
					"type": "address"
				}
			],
			"name": "removeKey",
			"outputs": [],
			"payable": false,
			"stateMutability": "nonpayable",
			"type": "function"
		},
		{
			"constant": false,
			"inputs": [
				{
					"name": "_id",
					"type": "address"
				},
				{
					"name": "_defaultKey",
					"type": "address"
				},
				{
					"name": "_signatureV",
					"type": "uint8"
				},
				{
					"name": "_signatureR",
					"type": "bytes32"
				},
				{
					"name": "_signatureS",
					"type": "bytes32"
				}
			],
			"name": "setDefaultKey",
			"outputs": [],
			"payable": false,
			"stateMutability": "nonpayable",
			"type": "function"
		}
	],
	"bytecode": "0x60806040523480156200001157600080fd5b5060405160408062002329833981018060405260408110156200003357600080fd5b508051602091820151600080546001600160a01b031916331790559091620000619083906200007a811b901c565b62000072816200017b60201b60201c565b50506200027c565b600054600154604080517ff66afcac0000000000000000000000000000000000000000000000000000000081523360048201526001600160a01b0393841660248201529290911660448301525173__AOLibrary_____________________________9163f66afcac916064808301926020929190829003018186803b1580156200010357600080fd5b505af415801562000118573d6000803e3d6000fd5b505050506040513d60208110156200012f57600080fd5b50516200013b57600080fd5b6001600160a01b0381166200014f57600080fd5b600380546001600160a01b039092166001600160a01b0319928316811790915560058054909216179055565b600054600154604080517ff66afcac0000000000000000000000000000000000000000000000000000000081523360048201526001600160a01b0393841660248201529290911660448301525173__AOLibrary_____________________________9163f66afcac916064808301926020929190829003018186803b1580156200020457600080fd5b505af415801562000219573d6000803e3d6000fd5b505050506040513d60208110156200023057600080fd5b50516200023c57600080fd5b6001600160a01b0381166200025057600080fd5b600180546001600160a01b039092166001600160a01b0319928316811790915560068054909216179055565b61209d806200028c6000396000f3fe608060405234801561001057600080fd5b506004361061012b5760003560e01c80639b19251a116100ad578063c59c114411610071578063c59c1144146103b2578063d6846782146103f7578063db536d2f14610442578063f0f2fd0414610468578063f2fde38b146104965761012b565b80639b19251a14610346578063a481247c1461036c578063a4e5fad21461039a578063a9b6b38e146103a2578063bc406206146103aa5761012b565b806353d6fd59116100f457806353d6fd59146102665780635cfaf2ef14610294578063722e1677146102ba5780638ab3e33f146102f25780638c924361146103205761012b565b806213eb4b14610130578063181a916b1461016a5780631dfde2bd146101ec578063485cc955146102145780634ef033f014610242575b600080fd5b6101566004803603602081101561014657600080fd5b50356001600160a01b03166104bc565b604080519115158252519081900360200190f35b61019c6004803603606081101561018057600080fd5b506001600160a01b0381351690602081013590604001356104da565b60408051602080825283518183015283519192839290830191858101910280838360005b838110156101d85781810151838201526020016101c0565b505050509050019250505060405180910390f35b6102126004803603602081101561020257600080fd5b50356001600160a01b0316610735565b005b6101566004803603604081101561022a57600080fd5b506001600160a01b038135811691602001351661081e565b61024a610960565b604080516001600160a01b039092168252519081900360200190f35b6102126004803603604081101561027c57600080fd5b506001600160a01b038135169060200135151561096f565b610212600480360360208110156102aa57600080fd5b50356001600160a01b0316610a54565b6102e0600480360360208110156102d057600080fd5b50356001600160a01b0316610b3a565b60408051918252519081900360200190f35b6102126004803603604081101561030857600080fd5b506001600160a01b0381358116916020013516610c05565b6102126004803603602081101561033657600080fd5b50356001600160a01b03166110cf565b6101566004803603602081101561035c57600080fd5b50356001600160a01b03166111b5565b6101566004803603604081101561038257600080fd5b506001600160a01b03813581169160200135166111ca565b61024a61138b565b61024a61139a565b61024a6113a9565b610212600480360360a08110156103c857600080fd5b506001600160a01b03813581169160208101359091169060ff60408201351690606081013590608001356113b8565b610212600480360360c081101561040d57600080fd5b506001600160a01b03813581169160208101359091169060408101359060ff6060820135169060808101359060a00135611832565b61024a6004803603602081101561045857600080fd5b50356001600160a01b0316611bc2565b6101566004803603604081101561047e57600080fd5b506001600160a01b0381358116916020013516611c92565b610212600480360360208110156104ac57600080fd5b50356001600160a01b0316611d60565b6001600160a01b031660009081526008602052604090205460ff1690565b60608373__AOLibrary_____________________________632d706a34826040518263ffffffff1660e01b815260040180826001600160a01b03166001600160a01b0316815260200191505060206040518083038186803b15801561053e57600080fd5b505af4158015610552573d6000803e3d6000fd5b505050506040513d602081101561056857600080fd5b505161057357600080fd5b61057c856104bc565b61058557600080fd5b8383101561059257600080fd5b61059a612008565b6001600160a01b038087166000908152600860209081526040918290208251606081018452815460ff8116151582526101009004909416848301526001810180548451818502810185018652818152929486019383018282801561062757602002820191906000526020600020905b81546001600160a01b03168152600190910190602001808311610609575b505050505081525050905060008160400151511161064457600080fd5b60408101515161065b90600163ffffffff611e3c16565b84111561067c5760408101515161067990600163ffffffff611e3c16565b93505b606061069f6001610693878963ffffffff611e3c16565b9063ffffffff611e4e16565b6040519080825280602002602001820160405280156106c8578160200160208202803883390190505b509050855b85811161072a57826040015181815181106106e457fe5b6020026020010151826107008984611e3c90919063ffffffff16565b8151811061070a57fe5b6001600160a01b03909216602092830291909101909101526001016106cd565b509695505050505050565b60005460015460408051600160e21b633d9abf2b0281523360048201526001600160a01b0393841660248201529290911660448301525173__AOLibrary_____________________________9163f66afcac916064808301926020929190829003018186803b1580156107a757600080fd5b505af41580156107bb573d6000803e3d6000fd5b505050506040513d60208110156107d157600080fd5b50516107dc57600080fd5b6001600160a01b0381166107ef57600080fd5b600480546001600160a01b03199081166001600160a01b03938416179182905560078054929093169116179055565b60008273__AOLibrary_____________________________632d706a34826040518263ffffffff1660e01b815260040180826001600160a01b03166001600160a01b0316815260200191505060206040518083038186803b15801561088257600080fd5b505af4158015610896573d6000803e3d6000fd5b505050506040513d60208110156108ac57600080fd5b50516108b757600080fd5b6003546001600160a01b031633146108ce57600080fd5b6108d7846104bc565b156108e157600080fd5b6001600160a01b0383166108f457600080fd5b6001600160a01b03848116600090815260086020908152604082208054600160ff199091168117610100600160a81b03191661010095891695860217825590810180548083018255908452919092200180546001600160a01b03191690921790915591505b5092915050565b6001546001600160a01b031681565b60005460015460408051600160e21b633d9abf2b0281523360048201526001600160a01b0393841660248201529290911660448301525173__AOLibrary_____________________________9163f66afcac916064808301926020929190829003018186803b1580156109e157600080fd5b505af41580156109f5573d6000803e3d6000fd5b505050506040513d6020811015610a0b57600080fd5b5051610a1657600080fd5b6001600160a01b038216610a2957600080fd5b6001600160a01b03919091166000908152600260205260409020805460ff1916911515919091179055565b60005460015460408051600160e21b633d9abf2b0281523360048201526001600160a01b0393841660248201529290911660448301525173__AOLibrary_____________________________9163f66afcac916064808301926020929190829003018186803b158015610ac657600080fd5b505af4158015610ada573d6000803e3d6000fd5b505050506040513d6020811015610af057600080fd5b5051610afb57600080fd5b6001600160a01b038116610b0e57600080fd5b600180546001600160a01b039092166001600160a01b0319928316811790915560068054909216179055565b60008173__AOLibrary_____________________________632d706a34826040518263ffffffff1660e01b815260040180826001600160a01b03166001600160a01b0316815260200191505060206040518083038186803b158015610b9e57600080fd5b505af4158015610bb2573d6000803e3d6000fd5b505050506040513d6020811015610bc857600080fd5b5051610bd357600080fd5b610bdc836104bc565b610be557600080fd5b50506001600160a01b031660009081526008602052604090206001015490565b8173__AOLibrary_____________________________632d706a34826040518263ffffffff1660e01b815260040180826001600160a01b03166001600160a01b0316815260200191505060206040518083038186803b158015610c6757600080fd5b505af4158015610c7b573d6000803e3d6000fd5b505050506040513d6020811015610c9157600080fd5b5051610c9c57600080fd5b60065460408051600160e01b6371ce52ed0281523360048201526001600160a01b0380871660248301529151869392909216916371ce52ed91604480820192602092909190829003018186803b158015610cf557600080fd5b505afa158015610d09573d6000803e3d6000fd5b505050506040513d6020811015610d1f57600080fd5b5051610d2a57600080fd5b60075460055460408051600160e01b63029b7d5302815233600482015290516001600160a01b0393841693633ebc2ab393169163029b7d53916024808301926020929190829003018186803b158015610d8257600080fd5b505afa158015610d96573d6000803e3d6000fd5b505050506040513d6020811015610dac57600080fd5b50516040805163ffffffff841660e01b81526001600160a01b039092166004830152516024808301926020929190829003018186803b158015610dee57600080fd5b505afa158015610e02573d6000803e3d6000fd5b505050506040513d6020811015610e1857600080fd5b505115610e2457600080fd5b610e2d846104bc565b610e3657600080fd5b60408051600160e21b632920491f0281526001600160a01b038681166004830152851660248201529051309163a481247c916044808301926020929190829003018186803b158015610e8757600080fd5b505afa158015610e9b573d6000803e3d6000fd5b505050506040513d6020811015610eb157600080fd5b5051610ebc57600080fd5b6001600160a01b03808516600090815260086020526040902080549091858116610100909204161415610eee57600080fd5b60018181015411610efe57600080fd5b6000805b6001830154811015610f5257856001600160a01b0316836001018281548110610f2757fe5b6000918252602090912001546001600160a01b03161415610f4a57809150610f52565b600101610f02565b50805b600183810154610f6a9163ffffffff611e3c16565b811015610fdc57826001018160010181548110610f8357fe5b6000918252602090912001546001840180546001600160a01b039092169183908110610fab57fe5b600091825260209091200180546001600160a01b0319166001600160a01b0392909216919091179055600101610f55565b5060018201805490610ff2906000198301612027565b5060055460408051600160e21b633d5d0f130281526001600160a01b0389811660048301529151600093929092169163f5743c4c9160248082019260209290919082900301818787803b15801561104857600080fd5b505af115801561105c573d6000803e3d6000fd5b505050506040513d602081101561107257600080fd5b505190508061108057600080fd5b604080516001600160a01b038881168252602082018490528251908a16927faec0509ffc1f2fe28ada93894c552d532d94e3c32821ce0939b2064d95686642928290030190a250505050505050565b60005460015460408051600160e21b633d9abf2b0281523360048201526001600160a01b0393841660248201529290911660448301525173__AOLibrary_____________________________9163f66afcac916064808301926020929190829003018186803b15801561114157600080fd5b505af4158015611155573d6000803e3d6000fd5b505050506040513d602081101561116b57600080fd5b505161117657600080fd5b6001600160a01b03811661118957600080fd5b600380546001600160a01b039092166001600160a01b0319928316811790915560058054909216179055565b60026020526000908152604090205460ff1681565b60008273__AOLibrary_____________________________632d706a34826040518263ffffffff1660e01b815260040180826001600160a01b03166001600160a01b0316815260200191505060206040518083038186803b15801561122e57600080fd5b505af4158015611242573d6000803e3d6000fd5b505050506040513d602081101561125857600080fd5b505161126357600080fd5b61126c846104bc565b61127557600080fd5b6001600160a01b03831661128857600080fd5b611290612008565b6001600160a01b038086166000908152600860209081526040918290208251606081018452815460ff8116151582526101009004909416848301526001810180548451818502810185018652818152929486019383018282801561131d57602002820191906000526020600020905b81546001600160a01b031681526001909101906020018083116112ff575b505050505081525050905060008090505b81604001515181101561137f57846001600160a01b03168260400151828151811061135557fe5b60200260200101516001600160a01b0316141561137757600193505050610959565b60010161132e565b50600095945050505050565b6004546001600160a01b031681565b6000546001600160a01b031681565b6003546001600160a01b031681565b8473__AOLibrary_____________________________632d706a34826040518263ffffffff1660e01b815260040180826001600160a01b03166001600160a01b0316815260200191505060206040518083038186803b15801561141a57600080fd5b505af415801561142e573d6000803e3d6000fd5b505050506040513d602081101561144457600080fd5b505161144f57600080fd5b60065460408051600160e01b6371ce52ed0281523360048201526001600160a01b03808a1660248301529151899392909216916371ce52ed91604480820192602092909190829003018186803b1580156114a857600080fd5b505afa1580156114bc573d6000803e3d6000fd5b505050506040513d60208110156114d257600080fd5b50516114dd57600080fd5b60075460055460408051600160e01b63029b7d5302815233600482015290516001600160a01b0393841693633ebc2ab393169163029b7d53916024808301926020929190829003018186803b15801561153557600080fd5b505afa158015611549573d6000803e3d6000fd5b505050506040513d602081101561155f57600080fd5b50516040805163ffffffff841660e01b81526001600160a01b039092166004830152516024808301926020929190829003018186803b1580156115a157600080fd5b505afa1580156115b5573d6000803e3d6000fd5b505050506040513d60208110156115cb57600080fd5b5051156115d757600080fd5b6115e0876104bc565b6115e957600080fd5b60408051600160e21b632920491f0281526001600160a01b038981166004830152881660248201529051309163a481247c916044808301926020929190829003018186803b15801561163a57600080fd5b505afa15801561164e573d6000803e3d6000fd5b505050506040513d602081101561166457600080fd5b505161166f57600080fd5b6040805130606090811b6020808401919091526001600160a01b03808c16831b60348501528a1690911b60488301528251603c818403018152605c83018085528151918301919091206000909152607c830180855281905260ff8916609c84015260bc830188905260dc83018790529251339260019260fc808301939192601f198301929081900390910190855afa15801561170f573d6000803e3d6000fd5b505050602060405103516001600160a01b03161461172c57600080fd5b6001600160a01b0388811660008181526008602090815260408083208054610100600160a81b0319166101008e8816021781556005548251600160e21b633d5d0f130281526004810196909652915190959394919093169263f5743c4c9260248084019391929182900301818787803b1580156117a857600080fd5b505af11580156117bc573d6000803e3d6000fd5b505050506040513d60208110156117d257600080fd5b50519050806117e057600080fd5b604080516001600160a01b038b81168252602082018490528251908d16927fd77f210e9f1b29555f577c8e8794a9470fa9198f423fc077f55168838ba679a9928290030190a250505050505050505050565b8573__AOLibrary_____________________________632d706a34826040518263ffffffff1660e01b815260040180826001600160a01b03166001600160a01b0316815260200191505060206040518083038186803b15801561189457600080fd5b505af41580156118a8573d6000803e3d6000fd5b505050506040513d60208110156118be57600080fd5b50516118c957600080fd5b60065460408051600160e01b6371ce52ed0281523360048201526001600160a01b03808b16602483015291518a9392909216916371ce52ed91604480820192602092909190829003018186803b15801561192257600080fd5b505afa158015611936573d6000803e3d6000fd5b505050506040513d602081101561194c57600080fd5b505161195757600080fd5b60075460055460408051600160e01b63029b7d5302815233600482015290516001600160a01b0393841693633ebc2ab393169163029b7d53916024808301926020929190829003018186803b1580156119af57600080fd5b505afa1580156119c3573d6000803e3d6000fd5b505050506040513d60208110156119d957600080fd5b50516040805163ffffffff841660e01b81526001600160a01b039092166004830152516024808301926020929190829003018186803b158015611a1b57600080fd5b505afa158015611a2f573d6000803e3d6000fd5b505050506040513d6020811015611a4557600080fd5b505115611a5157600080fd5b60055460408051600160e91b623f675f0281526001600160a01b038b811660048301529151611adc936001931691637ecebe00916024808301926020929190829003018186803b158015611aa457600080fd5b505afa158015611ab8573d6000803e3d6000fd5b505050506040513d6020811015611ace57600080fd5b50519063ffffffff611e4e16565b8614611ae757600080fd5b6040805130606090811b6020808401919091526001600160a01b03808d16831b60348501528b169182901b6048840152605c8084018b905284518085039091018152607c84018086528151918301919091206000909152609c840180865281905260ff8a1660bc85015260dc840189905260fc84018890529351919260019261011c8083019392601f198301929081900390910190855afa158015611b90573d6000803e3d6000fd5b505050602060405103516001600160a01b031614611bad57600080fd5b611bb78989611e61565b505050505050505050565b60008173__AOLibrary_____________________________632d706a34826040518263ffffffff1660e01b815260040180826001600160a01b03166001600160a01b0316815260200191505060206040518083038186803b158015611c2657600080fd5b505af4158015611c3a573d6000803e3d6000fd5b505050506040513d6020811015611c5057600080fd5b5051611c5b57600080fd5b611c64836104bc565b611c6d57600080fd5b50506001600160a01b0390811660009081526008602052604090205461010090041690565b60008273__AOLibrary_____________________________632d706a34826040518263ffffffff1660e01b815260040180826001600160a01b03166001600160a01b0316815260200191505060206040518083038186803b158015611cf657600080fd5b505af4158015611d0a573d6000803e3d6000fd5b505050506040513d6020811015611d2057600080fd5b5051611d2b57600080fd5b3360009081526002602052604090205460ff161515600114611d4c57600080fd5b611d568484611e61565b5060019392505050565b60005460015460408051600160e21b633d9abf2b0281523360048201526001600160a01b0393841660248201529290911660448301525173__AOLibrary_____________________________9163f66afcac916064808301926020929190829003018186803b158015611dd257600080fd5b505af4158015611de6573d6000803e3d6000fd5b505050506040513d6020811015611dfc57600080fd5b5051611e0757600080fd5b6001600160a01b038116611e1a57600080fd5b600080546001600160a01b0319166001600160a01b0392909216919091179055565b600082821115611e4857fe5b50900390565b81810182811015611e5b57fe5b92915050565b60408051600160e21b632920491f0281526001600160a01b038481166004830152831660248201529051309163a481247c916044808301926020929190829003018186803b158015611eb257600080fd5b505afa158015611ec6573d6000803e3d6000fd5b505050506040513d6020811015611edc57600080fd5b505115611ee857600080fd5b6001600160a01b038116611efb57600080fd5b6001600160a01b03828116600081815260086020908152604080832060018082018054918201815585528385200180546001600160a01b0319168888161790556005548251600160e21b633d5d0f130281526004810196909652915190959394919093169263f5743c4c9260248084019391929182900301818787803b158015611f8457600080fd5b505af1158015611f98573d6000803e3d6000fd5b505050506040513d6020811015611fae57600080fd5b5051905080611fbc57600080fd5b604080516001600160a01b038581168252602082018490528251908716927f4487b0a9ffea124fa087f0b52b2e9ce94d4cc7863686b6d07b61569b2652b153928290030190a250505050565b6040805160608082018352600080835260208301529181019190915290565b81548183558181111561204b5760008381526020902061204b918101908301612050565b505050565b61206e91905b8082111561206a5760008155600101612056565b5090565b9056fea165627a7a723058206ef8889c3bc323d052b5a91c4ac983413f6d3a544af864851f7dcc07b4f1aa750029",
	"source": "pragma solidity >=0.5.4 <0.6.0;\n\nimport './SafeMath.sol';\nimport './AOLibrary.sol';\nimport './TheAO.sol';\nimport './INamePublicKey.sol';\nimport './INameFactory.sol';\nimport './INameTAOPosition.sol';\nimport './INameAccountRecovery.sol';\n\n/**\n * @title NamePublicKey\n */\ncontract NamePublicKey is TheAO, INamePublicKey {\n\tusing SafeMath for uint256;\n\n\taddress public nameFactoryAddress;\n\taddress public nameAccountRecoveryAddress;\n\n\tINameFactory internal _nameFactory;\n\tINameTAOPosition internal _nameTAOPosition;\n\tINameAccountRecovery internal _nameAccountRecovery;\n\n\tstruct PublicKey {\n\t\tbool created;\n\t\taddress defaultKey;\n\t\taddress[] keys;\n\t}\n\n\t// Mapping from nameId to its PublicKey\n\tmapping (address => PublicKey) internal publicKeys;\n\n\t// Event to be broadcasted to public when a publicKey is added to a Name\n\tevent AddKey(address indexed nameId, address publicKey, uint256 nonce);\n\n\t// Event to be broadcasted to public when a publicKey is removed from a Name\n\tevent RemoveKey(address indexed nameId, address publicKey, uint256 nonce);\n\n\t// Event to be broadcasted to public when a publicKey is set as default for a Name\n\tevent SetDefaultKey(address indexed nameId, address publicKey, uint256 nonce);\n\n\t/**\n\t * @dev Constructor function\n\t */\n\tconstructor(address _nameFactoryAddress, address _nameTAOPositionAddress) public {\n\t\tsetNameFactoryAddress(_nameFactoryAddress);\n\t\tsetNameTAOPositionAddress(_nameTAOPositionAddress);\n\t}\n\n\t/**\n\t * @dev Checks if the calling contract address is The AO\n\t *\t\tOR\n\t *\t\tIf The AO is set to a Name/TAO, then check if calling address is the Advocate\n\t */\n\tmodifier onlyTheAO {\n\t\trequire (AOLibrary.isTheAO(msg.sender, theAO, nameTAOPositionAddress));\n\t\t_;\n\t}\n\n\t/**\n\t * @dev Check if calling address is Factory\n\t */\n\tmodifier onlyFactory {\n\t\trequire (msg.sender == nameFactoryAddress);\n\t\t_;\n\t}\n\n\t/**\n\t * @dev Check if `_nameId` is a Name\n\t */\n\tmodifier isName(address _nameId) {\n\t\trequire (AOLibrary.isName(_nameId));\n\t\t_;\n\t}\n\n\t/**\n\t * @dev Check if msg.sender is the current advocate of Name ID\n\t */\n\tmodifier onlyAdvocate(address _id) {\n\t\trequire (_nameTAOPosition.senderIsAdvocate(msg.sender, _id));\n\t\t_;\n\t}\n\n\t/**\n\t * @dev Only allowed if sender's Name is not compromised\n\t */\n\tmodifier senderNameNotCompromised() {\n\t\trequire (!_nameAccountRecovery.isCompromised(_nameFactory.ethAddressToNameId(msg.sender)));\n\t\t_;\n\t}\n\n\t/***** The AO ONLY METHODS *****/\n\t/**\n\t * @dev Transfer ownership of The AO to new address\n\t * @param _theAO The new address to be transferred\n\t */\n\tfunction transferOwnership(address _theAO) public onlyTheAO {\n\t\trequire (_theAO != address(0));\n\t\ttheAO = _theAO;\n\t}\n\n\t/**\n\t * @dev Whitelist `_account` address to transact on behalf of others\n\t * @param _account The address to whitelist\n\t * @param _whitelist Either to whitelist or not\n\t */\n\tfunction setWhitelist(address _account, bool _whitelist) public onlyTheAO {\n\t\trequire (_account != address(0));\n\t\twhitelist[_account] = _whitelist;\n\t}\n\n\t/**\n\t * @dev The AO sets NameFactory address\n\t * @param _nameFactoryAddress The address of NameFactory\n\t */\n\tfunction setNameFactoryAddress(address _nameFactoryAddress) public onlyTheAO {\n\t\trequire (_nameFactoryAddress != address(0));\n\t\tnameFactoryAddress = _nameFactoryAddress;\n\t\t_nameFactory = INameFactory(_nameFactoryAddress);\n\t}\n\n\t/**\n\t * @dev The AO sets NameTAOPosition address\n\t * @param _nameTAOPositionAddress The address of NameTAOPosition\n\t */\n\tfunction setNameTAOPositionAddress(address _nameTAOPositionAddress) public onlyTheAO {\n\t\trequire (_nameTAOPositionAddress != address(0));\n\t\tnameTAOPositionAddress = _nameTAOPositionAddress;\n\t\t_nameTAOPosition = INameTAOPosition(_nameTAOPositionAddress);\n\t}\n\n\t/**\n\t * @dev The AO set the NameAccountRecovery Address\n\t * @param _nameAccountRecoveryAddress The address of NameAccountRecovery\n\t */\n\tfunction setNameAccountRecoveryAddress(address _nameAccountRecoveryAddress) public onlyTheAO {\n\t\trequire (_nameAccountRecoveryAddress != address(0));\n\t\tnameAccountRecoveryAddress = _nameAccountRecoveryAddress;\n\t\t_nameAccountRecovery = INameAccountRecovery(nameAccountRecoveryAddress);\n\t}\n\n\t/**\n\t * @dev Whitelisted address add publicKey to list for a Name\n\t * @param _id The ID of the Name\n\t * @param _key The publicKey to be added\n\t * @return true on success\n\t */\n\tfunction whitelistAddKey(address _id, address _key) external isName(_id) inWhitelist returns (bool) {\n\t\t_addKey(_id, _key);\n\t\treturn true;\n\t}\n\n\t/***** PUBLIC METHODS *****/\n\t/**\n\t * @dev Check whether or not a Name ID exist in the list of Public Keys\n\t * @param _id The ID to be checked\n\t * @return true if yes, false otherwise\n\t */\n\tfunction isExist(address _id) public view returns (bool) {\n\t\treturn publicKeys[_id].created;\n\t}\n\n\t/**\n\t * @dev Store the PublicKey info for a Name\n\t * @param _id The ID of the Name\n\t * @param _defaultKey The default public key for this Name\n\t * @return true on success\n\t */\n\tfunction initialize(address _id, address _defaultKey)\n\t\texternal\n\t\tisName(_id)\n\t\tonlyFactory returns (bool) {\n\t\trequire (!isExist(_id));\n\t\trequire (_defaultKey != address(0));\n\n\t\tPublicKey storage _publicKey = publicKeys[_id];\n\t\t_publicKey.created = true;\n\t\t_publicKey.defaultKey = _defaultKey;\n\t\t_publicKey.keys.push(_defaultKey);\n\t\treturn true;\n\t}\n\n\t/**\n\t * @dev Get total publicKeys count for a Name\n\t * @param _id The ID of the Name\n\t * @return total publicKeys count\n\t */\n\tfunction getTotalPublicKeysCount(address _id) public isName(_id) view returns (uint256) {\n\t\trequire (isExist(_id));\n\t\treturn publicKeys[_id].keys.length;\n\t}\n\n\t/**\n\t * @dev Check whether or not a publicKey exist in the list for a Name\n\t * @param _id The ID of the Name\n\t * @param _key The publicKey to check\n\t * @return true if yes. false otherwise\n\t */\n\tfunction isKeyExist(address _id, address _key) isName(_id) external view returns (bool) {\n\t\trequire (isExist(_id));\n\t\trequire (_key != address(0));\n\n\t\tPublicKey memory _publicKey = publicKeys[_id];\n\t\tfor (uint256 i = 0; i < _publicKey.keys.length; i++) {\n\t\t\tif (_publicKey.keys[i] == _key) {\n\t\t\t\treturn true;\n\t\t\t}\n\t\t}\n\t\treturn false;\n\t}\n\n\t/**\n\t * @dev Add publicKey to list for a Name\n\t * @param _id The ID of the Name\n\t * @param _key The publicKey to be added\n\t * @param _nonce The signed uint256 nonce (should be Name's current nonce + 1)\n\t * @param _signatureV The V part of the signature\n\t * @param _signatureR The R part of the signature\n\t * @param _signatureS The S part of the signature\n\t */\n\tfunction addKey(address _id,\n\t\taddress _key,\n\t\tuint256 _nonce,\n\t\tuint8 _signatureV,\n\t\tbytes32 _signatureR,\n\t\tbytes32 _signatureS\n\t) public isName(_id) onlyAdvocate(_id) senderNameNotCompromised {\n\t\trequire (_nonce == _nameFactory.nonces(_id).add(1));\n\t\tbytes32 _hash = keccak256(abi.encodePacked(address(this), _id, _key, _nonce));\n\t\trequire (ecrecover(_hash, _signatureV, _signatureR, _signatureS) == _key);\n\t\t_addKey(_id, _key);\n\t}\n\n\t/**\n\t * @dev Get default public key of a Name\n\t * @param _id The ID of the Name\n\t * @return the default public key\n\t */\n\tfunction getDefaultKey(address _id) external isName(_id) view returns (address) {\n\t\trequire (isExist(_id));\n\t\treturn publicKeys[_id].defaultKey;\n\t}\n\n\t/**\n\t * @dev Get list of publicKeys of a Name\n\t * @param _id The ID of the Name\n\t * @param _from The starting index\n\t * @param _to The ending index\n\t * @return list of publicKeys\n\t */\n\tfunction getKeys(address _id, uint256 _from, uint256 _to) public isName(_id) view returns (address[] memory) {\n\t\trequire (isExist(_id));\n\t\trequire (_from >= 0 && _to >= _from);\n\n\t\tPublicKey memory _publicKey = publicKeys[_id];\n\t\trequire (_publicKey.keys.length > 0);\n\n\t\tif (_to >  _publicKey.keys.length.sub(1)) {\n\t\t\t_to = _publicKey.keys.length.sub(1);\n\t\t}\n\t\taddress[] memory _keys = new address[](_to.sub(_from).add(1));\n\n\t\tfor (uint256 i = _from; i <= _to; i++) {\n\t\t\t_keys[i.sub(_from)] = _publicKey.keys[i];\n\t\t}\n\t\treturn _keys;\n\t}\n\n\t/**\n\t * @dev Remove publicKey from the list\n\t * @param _id The ID of the Name\n\t * @param _key The publicKey to be removed\n\t */\n\tfunction removeKey(address _id, address _key) public isName(_id) onlyAdvocate(_id) senderNameNotCompromised {\n\t\trequire (isExist(_id));\n\t\trequire (this.isKeyExist(_id, _key));\n\n\t\tPublicKey storage _publicKey = publicKeys[_id];\n\n\t\t// Can't remove default key\n\t\trequire (_key != _publicKey.defaultKey);\n\t\trequire (_publicKey.keys.length > 1);\n\n\t\tuint256 index;\n\t\tfor (uint256 i = 0; i < _publicKey.keys.length; i++) {\n\t\t\tif (_publicKey.keys[i] == _key) {\n\t\t\t\tindex = i;\n\t\t\t\tbreak;\n\t\t\t}\n\t\t}\n\n\t\tfor (uint256 i = index; i < _publicKey.keys.length.sub(1); i++) {\n\t\t\t_publicKey.keys[i] = _publicKey.keys[i+1];\n\t\t}\n\t\t_publicKey.keys.length--;\n\n\t\tuint256 _nonce = _nameFactory.incrementNonce(_id);\n\t\trequire (_nonce > 0);\n\n\t\temit RemoveKey(_id, _key, _nonce);\n\t}\n\n\t/**\n\t * @dev Set a publicKey as the default for a Name\n\t * @param _id The ID of the Name\n\t * @param _defaultKey The defaultKey to be set\n\t * @param _signatureV The V part of the signature for this update\n\t * @param _signatureR The R part of the signature for this update\n\t * @param _signatureS The S part of the signature for this update\n\t */\n\tfunction setDefaultKey(address _id, address _defaultKey, uint8 _signatureV, bytes32 _signatureR, bytes32 _signatureS) public isName(_id) onlyAdvocate(_id) senderNameNotCompromised {\n\t\trequire (isExist(_id));\n\t\trequire (this.isKeyExist(_id, _defaultKey));\n\n\t\tbytes32 _hash = keccak256(abi.encodePacked(address(this), _id, _defaultKey));\n\t\trequire (ecrecover(_hash, _signatureV, _signatureR, _signatureS) == msg.sender);\n\n\t\tPublicKey storage _publicKey = publicKeys[_id];\n\t\t_publicKey.defaultKey = _defaultKey;\n\n\t\tuint256 _nonce = _nameFactory.incrementNonce(_id);\n\t\trequire (_nonce > 0);\n\t\temit SetDefaultKey(_id, _defaultKey, _nonce);\n\t}\n\n\t/***** INTERNAL METHOD *****/\n\t/**\n\t * @dev Actual adding the publicKey to list for a Name\n\t * @param _id The ID of the Name\n\t * @param _key The publicKey to be added\n\t */\n\tfunction _addKey(address _id, address _key) internal {\n\t\trequire (!this.isKeyExist(_id, _key));\n\t\trequire (_key != address(0));\n\n\t\tPublicKey storage _publicKey = publicKeys[_id];\n\t\t_publicKey.keys.push(_key);\n\n\t\tuint256 _nonce = _nameFactory.incrementNonce(_id);\n\t\trequire (_nonce > 0);\n\n\t\temit AddKey(_id, _key, _nonce);\n\t}\n}\n",
	"sourcePath": "/usr/local/ao-contracts/contracts/NamePublicKey.sol",
	"compiler": {
		"name": "solc",
		"version": "0.5.6+commit.b259423e.Emscripten.clang"
	},
	"schemaVersion": "3.0.2",
	"updatedAt": "2019-04-09T21:05:06.292Z",
	"devdoc": {
		"methods": {
			"addKey(address,address,uint256,uint8,bytes32,bytes32)": {
				"details": "Add publicKey to list for a Name",
				"params": {
					"_id": "The ID of the Name",
					"_key": "The publicKey to be added",
					"_nonce": "The signed uint256 nonce (should be Name's current nonce + 1)",
					"_signatureR": "The R part of the signature",
					"_signatureS": "The S part of the signature",
					"_signatureV": "The V part of the signature"
				}
			},
			"constructor": {
				"details": "Constructor function"
			},
			"getDefaultKey(address)": {
				"details": "Get default public key of a Name",
				"params": {
					"_id": "The ID of the Name"
				},
				"return": "the default public key"
			},
			"getKeys(address,uint256,uint256)": {
				"details": "Get list of publicKeys of a Name",
				"params": {
					"_from": "The starting index",
					"_id": "The ID of the Name",
					"_to": "The ending index"
				},
				"return": "list of publicKeys"
			},
			"getTotalPublicKeysCount(address)": {
				"details": "Get total publicKeys count for a Name",
				"params": {
					"_id": "The ID of the Name"
				},
				"return": "total publicKeys count"
			},
			"initialize(address,address)": {
				"details": "Store the PublicKey info for a Name",
				"params": {
					"_defaultKey": "The default public key for this Name",
					"_id": "The ID of the Name"
				},
				"return": "true on success"
			},
			"isExist(address)": {
				"details": "Check whether or not a Name ID exist in the list of Public Keys",
				"params": {
					"_id": "The ID to be checked"
				},
				"return": "true if yes, false otherwise"
			},
			"isKeyExist(address,address)": {
				"details": "Check whether or not a publicKey exist in the list for a Name",
				"params": {
					"_id": "The ID of the Name",
					"_key": "The publicKey to check"
				},
				"return": "true if yes. false otherwise"
			},
			"removeKey(address,address)": {
				"details": "Remove publicKey from the list",
				"params": {
					"_id": "The ID of the Name",
					"_key": "The publicKey to be removed"
				}
			},
			"setDefaultKey(address,address,uint8,bytes32,bytes32)": {
				"details": "Set a publicKey as the default for a Name",
				"params": {
					"_defaultKey": "The defaultKey to be set",
					"_id": "The ID of the Name",
					"_signatureR": "The R part of the signature for this update",
					"_signatureS": "The S part of the signature for this update",
					"_signatureV": "The V part of the signature for this update"
				}
			},
			"setNameAccountRecoveryAddress(address)": {
				"details": "The AO set the NameAccountRecovery Address",
				"params": {
					"_nameAccountRecoveryAddress": "The address of NameAccountRecovery"
				}
			},
			"setNameFactoryAddress(address)": {
				"details": "The AO sets NameFactory address",
				"params": {
					"_nameFactoryAddress": "The address of NameFactory"
				}
			},
			"setNameTAOPositionAddress(address)": {
				"details": "The AO sets NameTAOPosition address",
				"params": {
					"_nameTAOPositionAddress": "The address of NameTAOPosition"
				}
			},
			"setWhitelist(address,bool)": {
				"details": "Whitelist `_account` address to transact on behalf of others",
				"params": {
					"_account": "The address to whitelist",
					"_whitelist": "Either to whitelist or not"
				}
			},
			"transferOwnership(address)": {
				"details": "Transfer ownership of The AO to new address",
				"params": {
					"_theAO": "The new address to be transferred"
				}
			},
			"whitelistAddKey(address,address)": {
				"details": "Whitelisted address add publicKey to list for a Name",
				"params": {
					"_id": "The ID of the Name",
					"_key": "The publicKey to be added"
				},
				"return": "true on success"
			}
		},
		"title": "NamePublicKey"
	},
	"userdoc": {
		"methods": {}
	}
}