{
	"contractName": "Name",
	"abi": [
		{
			"constant": true,
			"inputs": [],
			"name": "datHash",
			"outputs": [
				{
					"name": "",
					"type": "string"
				}
			],
			"payable": false,
			"stateMutability": "view",
			"type": "function"
		},
		{
			"constant": true,
			"inputs": [],
			"name": "originName",
			"outputs": [
				{
					"name": "",
					"type": "string"
				}
			],
			"payable": false,
			"stateMutability": "view",
			"type": "function"
		},
		{
			"constant": true,
			"inputs": [
				{
					"name": "",
					"type": "uint256"
				}
			],
			"name": "subThoughts",
			"outputs": [
				{
					"name": "thoughtId",
					"type": "address"
				},
				{
					"name": "child",
					"type": "bool"
				},
				{
					"name": "connected",
					"type": "bool"
				}
			],
			"payable": false,
			"stateMutability": "view",
			"type": "function"
		},
		{
			"constant": false,
			"inputs": [
				{
					"name": "_speakerId",
					"type": "address"
				}
			],
			"name": "setSpeaker",
			"outputs": [
				{
					"name": "",
					"type": "bool"
				}
			],
			"payable": false,
			"stateMutability": "nonpayable",
			"type": "function"
		},
		{
			"constant": true,
			"inputs": [
				{
					"name": "_from",
					"type": "uint256"
				},
				{
					"name": "_to",
					"type": "uint256"
				}
			],
			"name": "getSubThoughtIds",
			"outputs": [
				{
					"name": "",
					"type": "address[]"
				}
			],
			"payable": false,
			"stateMutability": "view",
			"type": "function"
		},
		{
			"constant": false,
			"inputs": [
				{
					"name": "_locked",
					"type": "bool"
				}
			],
			"name": "setLocked",
			"outputs": [
				{
					"name": "",
					"type": "bool"
				}
			],
			"payable": false,
			"stateMutability": "nonpayable",
			"type": "function"
		},
		{
			"constant": true,
			"inputs": [],
			"name": "fromId",
			"outputs": [
				{
					"name": "",
					"type": "address"
				}
			],
			"payable": false,
			"stateMutability": "view",
			"type": "function"
		},
		{
			"constant": true,
			"inputs": [],
			"name": "advocateId",
			"outputs": [
				{
					"name": "",
					"type": "address"
				}
			],
			"payable": false,
			"stateMutability": "view",
			"type": "function"
		},
		{
			"constant": false,
			"inputs": [],
			"name": "closeThought",
			"outputs": [
				{
					"name": "",
					"type": "bool"
				}
			],
			"payable": false,
			"stateMutability": "nonpayable",
			"type": "function"
		},
		{
			"constant": true,
			"inputs": [
				{
					"name": "_orphanThoughtId",
					"type": "address"
				}
			],
			"name": "isOrphanThought",
			"outputs": [
				{
					"name": "",
					"type": "bool"
				}
			],
			"payable": false,
			"stateMutability": "view",
			"type": "function"
		},
		{
			"constant": false,
			"inputs": [
				{
					"name": "_orphanThoughtId",
					"type": "address"
				}
			],
			"name": "approveOrphanThought",
			"outputs": [
				{
					"name": "",
					"type": "bool"
				}
			],
			"payable": false,
			"stateMutability": "nonpayable",
			"type": "function"
		},
		{
			"constant": false,
			"inputs": [
				{
					"name": "_thoughtId",
					"type": "address"
				},
				{
					"name": "_child",
					"type": "bool"
				}
			],
			"name": "addSubThought",
			"outputs": [
				{
					"name": "",
					"type": "bool"
				}
			],
			"payable": false,
			"stateMutability": "nonpayable",
			"type": "function"
		},
		{
			"constant": true,
			"inputs": [],
			"name": "closed",
			"outputs": [
				{
					"name": "",
					"type": "bool"
				}
			],
			"payable": false,
			"stateMutability": "view",
			"type": "function"
		},
		{
			"constant": true,
			"inputs": [],
			"name": "throughId",
			"outputs": [
				{
					"name": "",
					"type": "address"
				}
			],
			"payable": false,
			"stateMutability": "view",
			"type": "function"
		},
		{
			"constant": true,
			"inputs": [],
			"name": "thoughtTypeId",
			"outputs": [
				{
					"name": "",
					"type": "uint8"
				}
			],
			"payable": false,
			"stateMutability": "view",
			"type": "function"
		},
		{
			"constant": true,
			"inputs": [
				{
					"name": "_childThoughtId",
					"type": "address"
				}
			],
			"name": "isChildThought",
			"outputs": [
				{
					"name": "",
					"type": "bool"
				}
			],
			"payable": false,
			"stateMutability": "view",
			"type": "function"
		},
		{
			"constant": true,
			"inputs": [],
			"name": "listenerId",
			"outputs": [
				{
					"name": "",
					"type": "address"
				}
			],
			"payable": false,
			"stateMutability": "view",
			"type": "function"
		},
		{
			"constant": true,
			"inputs": [],
			"name": "database",
			"outputs": [
				{
					"name": "",
					"type": "string"
				}
			],
			"payable": false,
			"stateMutability": "view",
			"type": "function"
		},
		{
			"constant": true,
			"inputs": [],
			"name": "totalOrphanThoughts",
			"outputs": [
				{
					"name": "",
					"type": "uint256"
				}
			],
			"payable": false,
			"stateMutability": "view",
			"type": "function"
		},
		{
			"constant": true,
			"inputs": [],
			"name": "originNameId",
			"outputs": [
				{
					"name": "",
					"type": "address"
				}
			],
			"payable": false,
			"stateMutability": "view",
			"type": "function"
		},
		{
			"constant": true,
			"inputs": [],
			"name": "totalSubThoughts",
			"outputs": [
				{
					"name": "",
					"type": "uint256"
				}
			],
			"payable": false,
			"stateMutability": "view",
			"type": "function"
		},
		{
			"constant": true,
			"inputs": [],
			"name": "totalChildThoughts",
			"outputs": [
				{
					"name": "",
					"type": "uint256"
				}
			],
			"payable": false,
			"stateMutability": "view",
			"type": "function"
		},
		{
			"constant": true,
			"inputs": [],
			"name": "factoryAddress",
			"outputs": [
				{
					"name": "",
					"type": "address"
				}
			],
			"payable": false,
			"stateMutability": "view",
			"type": "function"
		},
		{
			"constant": true,
			"inputs": [],
			"name": "keyValue",
			"outputs": [
				{
					"name": "",
					"type": "string"
				}
			],
			"payable": false,
			"stateMutability": "view",
			"type": "function"
		},
		{
			"constant": false,
			"inputs": [
				{
					"name": "_listenerId",
					"type": "address"
				}
			],
			"name": "setListener",
			"outputs": [
				{
					"name": "",
					"type": "bool"
				}
			],
			"payable": false,
			"stateMutability": "nonpayable",
			"type": "function"
		},
		{
			"constant": false,
			"inputs": [
				{
					"name": "_advocateId",
					"type": "address"
				}
			],
			"name": "setAdvocate",
			"outputs": [
				{
					"name": "",
					"type": "bool"
				}
			],
			"payable": false,
			"stateMutability": "nonpayable",
			"type": "function"
		},
		{
			"constant": true,
			"inputs": [],
			"name": "toId",
			"outputs": [
				{
					"name": "",
					"type": "address"
				}
			],
			"payable": false,
			"stateMutability": "view",
			"type": "function"
		},
		{
			"constant": true,
			"inputs": [],
			"name": "balance",
			"outputs": [
				{
					"name": "",
					"type": "uint256"
				}
			],
			"payable": false,
			"stateMutability": "view",
			"type": "function"
		},
		{
			"constant": true,
			"inputs": [],
			"name": "speakerId",
			"outputs": [
				{
					"name": "",
					"type": "address"
				}
			],
			"payable": false,
			"stateMutability": "view",
			"type": "function"
		},
		{
			"constant": true,
			"inputs": [],
			"name": "locked",
			"outputs": [
				{
					"name": "",
					"type": "bool"
				}
			],
			"payable": false,
			"stateMutability": "view",
			"type": "function"
		},
		{
			"constant": true,
			"inputs": [],
			"name": "contentId",
			"outputs": [
				{
					"name": "",
					"type": "bytes32"
				}
			],
			"payable": false,
			"stateMutability": "view",
			"type": "function"
		},
		{
			"constant": true,
			"inputs": [
				{
					"name": "",
					"type": "address"
				}
			],
			"name": "subThoughtInternalIdLookup",
			"outputs": [
				{
					"name": "",
					"type": "uint256"
				}
			],
			"payable": false,
			"stateMutability": "view",
			"type": "function"
		},
		{
			"inputs": [
				{
					"name": "_originName",
					"type": "string"
				},
				{
					"name": "_originNameId",
					"type": "address"
				},
				{
					"name": "_datHash",
					"type": "string"
				},
				{
					"name": "_database",
					"type": "string"
				},
				{
					"name": "_keyValue",
					"type": "string"
				},
				{
					"name": "_contentId",
					"type": "bytes32"
				}
			],
			"payable": false,
			"stateMutability": "nonpayable",
			"type": "constructor"
		},
		{
			"payable": true,
			"stateMutability": "payable",
			"type": "fallback"
		}
	],
	"bytecode": "0x60806040523480156200001157600080fd5b50604051620011a1380380620011a18339810160409081528151602080840151928401516060850151608086015160a0870151600080546201000060b060020a03191633620100000217815595880180519098948501969385019592909401939092889288928892889288928892879290916200009591600191908b019062000194565b5060028054600160a060020a038916600160a060020a031991821681179092556003805490911690911790558551620000d690600690602089019062000194565b508451620000ec90600790602088019062000194565b5083516200010290600890602087019062000194565b50600992909255600a8054600c8054600160a060020a0319908116600160a060020a039687161790915560038054600480546005805461010060a860020a0319909716610100998b16999099029890981760ff19166001179096553082851617928390559187169616938216841782168617905590811690911716909117905550620002399950505050505050505050565b828054600181600116156101000203166002900490600052602060002090601f016020900481019282601f10620001d757805160ff191683800117855562000207565b8280016001018555821562000207579182015b8281111562000207578251825591602001919060010190620001ea565b506200021592915062000219565b5090565b6200023691905b8082111562000215576000815560010162000220565b90565b610f5880620002496000396000f3006080604052600436106101955763ffffffff7c01000000000000000000000000000000000000000000000000000000006000350416630568479081146101d35780630785581c1461025d5780630d723dc5146102725780630d9c8bca146102b45780630e54d785146102e9578063211e28b6146103545780632a9719a41461036e5780632ef193b01461039f57806332511d5b146103b457806344b194bd146103c95780634e9d1a23146103ea578063573d7b891461040b578063597e1fb51461043157806368dcb66b146104465780636bccedba1461045b5780636c3e3213146104865780636cf99a8f146104a7578063713b563f146104bc57806375305ee4146104d157806379bddde8146104f85780638005e7781461050d5780638c5c3e2314610522578063966dae0e14610537578063a727be571461054c578063adcd905b14610561578063b000fba314610582578063b0759d08146105a3578063b69ef8a8146105b8578063c996ad25146105cd578063cf309012146105e2578063d97aa977146105f7578063f9302dfd1461060c575b60005460ff161580156101b05750600054610100900460ff16155b15156101bb57600080fd5b6010546101ce903463ffffffff61062d16565b601055005b3480156101df57600080fd5b506101e8610640565b6040805160208082528351818301528351919283929083019185019080838360005b8381101561022257818101518382015260200161020a565b50505050905090810190601f16801561024f5780820380516001836020036101000a031916815260200191505b509250505060405180910390f35b34801561026957600080fd5b506101e86106ce565b34801561027e57600080fd5b5061028a600435610728565b60408051600160a060020a0390941684529115156020840152151582820152519081900360600190f35b3480156102c057600080fd5b506102d5600160a060020a0360043516610759565b604080519115158252519081900360200190f35b3480156102f557600080fd5b506103046004356024356107e4565b60408051602080825283518183015283519192839290830191858101910280838360005b83811015610340578181015183820152602001610328565b505050509050019250505060405180910390f35b34801561036057600080fd5b506102d560043515156108ea565b34801561037a57600080fd5b50610383610934565b60408051600160a060020a039092168252519081900360200190f35b3480156103ab57600080fd5b50610383610948565b3480156103c057600080fd5b506102d5610957565b3480156103d557600080fd5b506102d5600160a060020a036004351661099f565b3480156103f657600080fd5b506102d5600160a060020a0360043516610a2d565b34801561041757600080fd5b506102d5600160a060020a03600435166024351515610ad4565b34801561043d57600080fd5b506102d5610c12565b34801561045257600080fd5b50610383610c20565b34801561046757600080fd5b50610470610c2f565b6040805160ff9092168252519081900360200190f35b34801561049257600080fd5b506102d5600160a060020a0360043516610c38565b3480156104b357600080fd5b50610383610cc4565b3480156104c857600080fd5b506101e8610cd3565b3480156104dd57600080fd5b506104e6610d2e565b60408051918252519081900360200190f35b34801561050457600080fd5b50610383610d34565b34801561051957600080fd5b506104e6610d43565b34801561052e57600080fd5b506104e6610d49565b34801561054357600080fd5b50610383610d4f565b34801561055857600080fd5b506101e8610d64565b34801561056d57600080fd5b506102d5600160a060020a0360043516610dbf565b34801561058e57600080fd5b506102d5600160a060020a0360043516610e4a565b3480156105af57600080fd5b50610383610ed5565b3480156105c457600080fd5b506104e6610ee4565b3480156105d957600080fd5b50610383610eea565b3480156105ee57600080fd5b506102d5610ef9565b34801561060357600080fd5b506104e6610f02565b34801561061857600080fd5b506104e6600160a060020a0360043516610f08565b8181018281101561063a57fe5b92915050565b6006805460408051602060026001851615610100026000190190941693909304601f810184900484028201840190925281815292918301828280156106c65780601f1061069b576101008083540402835291602001916106c6565b820191906000526020600020905b8154815290600101906020018083116106a957829003601f168201915b505050505081565b60018054604080516020600284861615610100026000190190941693909304601f810184900484028201840190925281815292918301828280156106c65780601f1061069b576101008083540402835291602001916106c6565b601160205260009081526040902054600160a060020a0381169060ff60a060020a820481169160a860020a90041683565b6000805460ff161580156107755750600054610100900460ff16155b151561078057600080fd5b600054620100009004600160a060020a0316331461079d57600080fd5b600160a060020a03821615156107b257600080fd5b5060058054600160a060020a03831673ffffffffffffffffffffffffffffffffffffffff199091161790556001919050565b6060806000600185101580156107fa5750848410155b8015610808575083600f5410155b151561081357600080fd5b6108346001610828868863ffffffff610f1a16565b9063ffffffff61062d16565b60405190808252806020026020018201604052801561085d578160200160208202803883390190505b5091508490505b8381116108e25760008181526011602052604090205460a860020a900460ff1661088f5760006108a8565b600081815260116020526040902054600160a060020a03165b826108b9838863ffffffff610f1a16565b815181106108c357fe5b600160a060020a03909216602092830290910190910152600101610864565b509392505050565b60008054620100009004600160a060020a0316331461090857600080fd5b600054610100900460ff161561091d57600080fd5b506000805460ff1916911515919091179055600190565b600a546101009004600160a060020a031681565b600354600160a060020a031681565b60008054620100009004600160a060020a0316331461097557600080fd5b600054610100900460ff161561098a57600080fd5b506000805461ff001916610100179055600190565b600160a060020a038116600090815260126020526040812054811080156109f35750600160a060020a0382166000908152601260209081526040808320548352601190915290205460a060020a900460ff16155b801561063a575050600160a060020a03166000908152601260209081526040808320548352601190915290205460a860020a900460ff1690565b60008054819060ff16158015610a4b5750600054610100900460ff16155b1515610a5657600080fd5b600054620100009004600160a060020a03163314610a7357600080fd5b5050600160a060020a0316600090815260126020908152604080832054835260119091529020805474ff0000000000000000000000000000000000000000191660a060020a179055600d80546001908101909155600e805460001901905590565b60008054819060ff16158015610af25750600054610100900460ff16155b1515610afd57600080fd5b600054620100009004600160a060020a03163314610b1a57600080fd5b600160a060020a0384161515610b2f57600080fd5b600160a060020a03841660009081526012602052604090205415610b5257600080fd5b600f805460010190558215610b6f57600d80546001019055610b79565b600e805460010190555b5050600f54600160a060020a039290921660008181526012602090815260408083208690559482526011905292909220805475ff0000000000000000000000000000000000000000001992151560a060020a0274ff00000000000000000000000000000000000000001973ffffffffffffffffffffffffffffffffffffffff1990921690941716929092171660a860020a179055600190565b600054610100900460ff1681565b600b54600160a060020a031681565b600a5460ff1681565b600160a060020a038116600090815260126020526040812054811080156109f35750600160a060020a0382166000908152601260209081526040808320548352601190915290205460a060020a900460ff16801561063a575050600160a060020a03166000908152601260209081526040808320548352601190915290205460a860020a900460ff1690565b600454600160a060020a031681565b6007805460408051602060026001851615610100026000190190941693909304601f810184900484028201840190925281815292918301828280156106c65780601f1061069b576101008083540402835291602001916106c6565b600e5481565b600254600160a060020a031681565b600f5481565b600d5481565b600054620100009004600160a060020a031681565b6008805460408051602060026001851615610100026000190190941693909304601f810184900484028201840190925281815292918301828280156106c65780601f1061069b576101008083540402835291602001916106c6565b6000805460ff16158015610ddb5750600054610100900460ff16155b1515610de657600080fd5b600054620100009004600160a060020a03163314610e0357600080fd5b600160a060020a0382161515610e1857600080fd5b5060048054600160a060020a03831673ffffffffffffffffffffffffffffffffffffffff199091161790556001919050565b6000805460ff16158015610e665750600054610100900460ff16155b1515610e7157600080fd5b600054620100009004600160a060020a03163314610e8e57600080fd5b600160a060020a0382161515610ea357600080fd5b5060038054600160a060020a03831673ffffffffffffffffffffffffffffffffffffffff199091161790556001919050565b600c54600160a060020a031681565b60105481565b600554600160a060020a031681565b60005460ff1681565b60095481565b60126020526000908152604090205481565b600082821115610f2657fe5b509003905600a165627a7a723058208992d78bb8649d40817f620ab7cbf75b2e2150732c5b0da22f5abe4ca8a473220029",
	"source": "pragma solidity ^0.4.24;\n\nimport './Thought.sol';\nimport './SafeMath.sol';\n\n/**\n * @title Name\n */\ncontract Name is Thought {\n\tusing SafeMath for uint256;\n\n\t/**\n\t * @dev Constructor function\n\t */\n\tconstructor (string _originName, address _originNameId, string _datHash, string _database, string _keyValue, bytes32 _contentId)\n\t\tThought (_originName, _originNameId, _datHash, _database, _keyValue, _contentId, _originNameId, address(0)) public {\n\t\t// Creating Name\n\t\tthoughtTypeId = 1;\n\n\t\tadvocateId = address(this);\n\t\tlistenerId = advocateId;\n\t\tspeakerId = advocateId;\n\t}\n}\n",
	"sourcePath": "/home/jmulyono/ao-contracts/contracts/Name.sol",
	"compiler": {
		"name": "solc",
		"version": "0.4.24+commit.e67f0147.Emscripten.clang"
	},
	"schemaVersion": "2.0.1",
	"updatedAt": "2018-12-11T07:35:34.187Z"
}