{
  "contractName": "NameAccountRecovery",
  "abi": [
    {
      "constant": true,
      "inputs": [],
      "name": "aoSettingAddress",
      "outputs": [
        {
          "name": "",
          "type": "address"
        }
      ],
      "payable": false,
      "stateMutability": "view",
      "type": "function"
    },
    {
      "constant": true,
      "inputs": [],
      "name": "nameTAOPositionAddress",
      "outputs": [
        {
          "name": "",
          "type": "address"
        }
      ],
      "payable": false,
      "stateMutability": "view",
      "type": "function"
    },
    {
      "constant": true,
      "inputs": [
        {
          "name": "",
          "type": "address"
        }
      ],
      "name": "whitelist",
      "outputs": [
        {
          "name": "",
          "type": "bool"
        }
      ],
      "payable": false,
      "stateMutability": "view",
      "type": "function"
    },
    {
      "constant": true,
      "inputs": [],
      "name": "theAO",
      "outputs": [
        {
          "name": "",
          "type": "address"
        }
      ],
      "payable": false,
      "stateMutability": "view",
      "type": "function"
    },
    {
      "constant": true,
      "inputs": [],
      "name": "nameFactoryAddress",
      "outputs": [
        {
          "name": "",
          "type": "address"
        }
      ],
      "payable": false,
      "stateMutability": "view",
      "type": "function"
    },
    {
      "constant": true,
      "inputs": [],
      "name": "namePublicKeyAddress",
      "outputs": [
        {
          "name": "",
          "type": "address"
        }
      ],
      "payable": false,
      "stateMutability": "view",
      "type": "function"
    },
    {
      "constant": true,
      "inputs": [],
      "name": "settingTAOId",
      "outputs": [
        {
          "name": "",
          "type": "address"
        }
      ],
      "payable": false,
      "stateMutability": "view",
      "type": "function"
    },
    {
      "inputs": [
        {
          "name": "_nameFactoryAddress",
          "type": "address"
        },
        {
          "name": "_nameTAOPositionAddress",
          "type": "address"
        }
      ],
      "payable": false,
      "stateMutability": "nonpayable",
      "type": "constructor"
    },
    {
      "anonymous": false,
      "inputs": [
        {
          "indexed": true,
          "name": "nameId",
          "type": "address"
        },
        {
          "indexed": false,
          "name": "listenerId",
          "type": "address"
        },
        {
          "indexed": false,
          "name": "compromised",
          "type": "bool"
        },
        {
          "indexed": false,
          "name": "submittedTimestamp",
          "type": "uint256"
        },
        {
          "indexed": false,
          "name": "lockedUntilTimestamp",
          "type": "uint256"
        },
        {
          "indexed": false,
          "name": "nonce",
          "type": "uint256"
        }
      ],
      "name": "SubmitAccountRecovery",
      "type": "event"
    },
    {
      "anonymous": false,
      "inputs": [
        {
          "indexed": true,
          "name": "nameId",
          "type": "address"
        },
        {
          "indexed": false,
          "name": "speakerId",
          "type": "address"
        },
        {
          "indexed": false,
          "name": "newAddress",
          "type": "address"
        },
        {
          "indexed": false,
          "name": "timestamp",
          "type": "uint256"
        },
        {
          "indexed": false,
          "name": "nonce",
          "type": "uint256"
        }
      ],
      "name": "SetNameNewAddress",
      "type": "event"
    },
    {
      "constant": false,
      "inputs": [
        {
          "name": "_theAO",
          "type": "address"
        }
      ],
      "name": "transferOwnership",
      "outputs": [],
      "payable": false,
      "stateMutability": "nonpayable",
      "type": "function"
    },
    {
      "constant": false,
      "inputs": [
        {
          "name": "_account",
          "type": "address"
        },
        {
          "name": "_whitelist",
          "type": "bool"
        }
      ],
      "name": "setWhitelist",
      "outputs": [],
      "payable": false,
      "stateMutability": "nonpayable",
      "type": "function"
    },
    {
      "constant": false,
      "inputs": [
        {
          "name": "_nameFactoryAddress",
          "type": "address"
        }
      ],
      "name": "setNameFactoryAddress",
      "outputs": [],
      "payable": false,
      "stateMutability": "nonpayable",
      "type": "function"
    },
    {
      "constant": false,
      "inputs": [
        {
          "name": "_nameTAOPositionAddress",
          "type": "address"
        }
      ],
      "name": "setNameTAOPositionAddress",
      "outputs": [],
      "payable": false,
      "stateMutability": "nonpayable",
      "type": "function"
    },
    {
      "constant": false,
      "inputs": [
        {
          "name": "_namePublicKeyAddress",
          "type": "address"
        }
      ],
      "name": "setNamePublicKeyAddress",
      "outputs": [],
      "payable": false,
      "stateMutability": "nonpayable",
      "type": "function"
    },
    {
      "constant": false,
      "inputs": [
        {
          "name": "_settingTAOId",
          "type": "address"
        }
      ],
      "name": "setSettingTAOId",
      "outputs": [],
      "payable": false,
      "stateMutability": "nonpayable",
      "type": "function"
    },
    {
      "constant": false,
      "inputs": [
        {
          "name": "_aoSettingAddress",
          "type": "address"
        }
      ],
      "name": "setAOSettingAddress",
      "outputs": [],
      "payable": false,
      "stateMutability": "nonpayable",
      "type": "function"
    },
    {
      "constant": true,
      "inputs": [
        {
          "name": "_id",
          "type": "address"
        }
      ],
      "name": "getAccountRecovery",
      "outputs": [
        {
          "name": "",
          "type": "bool"
        },
        {
          "name": "",
          "type": "uint256"
        },
        {
          "name": "",
          "type": "uint256"
        }
      ],
      "payable": false,
      "stateMutability": "view",
      "type": "function"
    },
    {
      "constant": false,
      "inputs": [
        {
          "name": "_id",
          "type": "address"
        }
      ],
      "name": "submitAccountRecovery",
      "outputs": [],
      "payable": false,
      "stateMutability": "nonpayable",
      "type": "function"
    },
    {
      "constant": true,
      "inputs": [
        {
          "name": "_id",
          "type": "address"
        }
      ],
      "name": "isCompromised",
      "outputs": [
        {
          "name": "",
          "type": "bool"
        }
      ],
      "payable": false,
      "stateMutability": "view",
      "type": "function"
    },
    {
      "constant": false,
      "inputs": [
        {
          "name": "_id",
          "type": "address"
        },
        {
          "name": "_newAddress",
          "type": "address"
        }
      ],
      "name": "setNameNewAddress",
      "outputs": [],
      "payable": false,
      "stateMutability": "nonpayable",
      "type": "function"
    }
  ],
  "bytecode": "0x60806040523480156200001157600080fd5b5060405160408062001cae833981018060405260408110156200003357600080fd5b508051602091820151600080546001600160a01b031916331790559091620000619083906200007a811b901c565b62000072816200017b60201b60201c565b50506200027c565b600054600554604080517ff66afcac0000000000000000000000000000000000000000000000000000000081523360048201526001600160a01b0393841660248201529290911660448301525173__AOLibrary_____________________________9163f66afcac916064808301926020929190829003018186803b1580156200010357600080fd5b505af415801562000118573d6000803e3d6000fd5b505050506040513d60208110156200012f57600080fd5b50516200013b57600080fd5b6001600160a01b0381166200014f57600080fd5b600480546001600160a01b039092166001600160a01b0319928316811790915560088054909216179055565b600054600554604080517ff66afcac0000000000000000000000000000000000000000000000000000000081523360048201526001600160a01b0393841660248201529290911660448301525173__AOLibrary_____________________________9163f66afcac916064808301926020929190829003018186803b1580156200020457600080fd5b505af415801562000219573d6000803e3d6000fd5b505050506040513d60208110156200023057600080fd5b50516200023c57600080fd5b6001600160a01b0381166200025057600080fd5b600580546001600160a01b039092166001600160a01b0319928316811790915560098054909216179055565b611a22806200028c6000396000f3fe608060405234801561001057600080fd5b50600436106101165760003560e01c80638c924361116100a2578063d6830af311610071578063d6830af3146102d3578063d8ce52d1146102f9578063e7c5018514610301578063f2fde38b14610309578063f42037a71461032f57610116565b80638c924361146102775780639b19251a1461029d578063a9b6b38e146102c3578063bc406206146102cb57610116565b80634ef033f0116100e95780634ef033f0146101cf57806353d6fd59146101d75780635cfaf2ef146102055780636c98d7fc1461022b5780636d9aa0341461025157610116565b806306fd70881461011b5780631d0138ff146101435780632b3fd4a0146101675780633ebc2ab314610195575b600080fd5b6101416004803603602081101561013157600080fd5b50356001600160a01b0316610375565b005b61014b61045b565b604080516001600160a01b039092168252519081900360200190f35b6101416004803603604081101561017d57600080fd5b506001600160a01b038135811691602001351661046a565b6101bb600480360360208110156101ab57600080fd5b50356001600160a01b0316610b64565b604080519115158252519081900360200190f35b61014b610c64565b610141600480360360408110156101ed57600080fd5b506001600160a01b0381351690602001351515610c73565b6101416004803603602081101561021b57600080fd5b50356001600160a01b0316610d58565b6101416004803603602081101561024157600080fd5b50356001600160a01b0316610e3e565b6101416004803603602081101561026757600080fd5b50356001600160a01b0316611340565b6101416004803603602081101561028d57600080fd5b50356001600160a01b0316611426565b6101bb600480360360208110156102b357600080fd5b50356001600160a01b031661150c565b61014b611521565b61014b611530565b610141600480360360208110156102e957600080fd5b50356001600160a01b031661153f565b61014b61169a565b61014b6116a9565b6101416004803603602081101561031f57600080fd5b50356001600160a01b03166116b8565b6103556004803603602081101561034557600080fd5b50356001600160a01b0316611794565b604080519315158452602084019290925282820152519081900360600190f35b60005460055460408051600160e21b633d9abf2b0281523360048201526001600160a01b0393841660248201529290911660448301525173__AOLibrary_____________________________9163f66afcac916064808301926020929190829003018186803b1580156103e757600080fd5b505af41580156103fb573d6000803e3d6000fd5b505050506040513d602081101561041157600080fd5b505161041c57600080fd5b6001600160a01b03811661042f57600080fd5b600780546001600160a01b039092166001600160a01b03199283168117909155600b8054909216179055565b6007546001600160a01b031681565b8173__AOLibrary_____________________________632d706a34826040518263ffffffff1660e01b815260040180826001600160a01b03166001600160a01b0316815260200191505060206040518083038186803b1580156104cc57600080fd5b505af41580156104e0573d6000803e3d6000fd5b505050506040513d60208110156104f657600080fd5b505161050157600080fd5b60085460408051600160e01b63029b7d5302815233600482015290516000926001600160a01b03169163029b7d53916024808301926020929190829003018186803b15801561054f57600080fd5b505afa158015610563573d6000803e3d6000fd5b505050506040513d602081101561057957600080fd5b50516001600160a01b0316141561058f57600080fd5b6001600160a01b0382166105a257600080fd5b60095460408051600160e01b6320082c690281523360048201526001600160a01b038681166024830152915191909216916320082c69916044808301926020929190829003018186803b1580156105f857600080fd5b505afa15801561060c573d6000803e3d6000fd5b505050506040513d602081101561062257600080fd5b505161062d57600080fd5b60085460408051600160e01b63029b7d5302815233600482015290513092633ebc2ab3926001600160a01b039091169163029b7d5391602480820192602092909190829003018186803b15801561068357600080fd5b505afa158015610697573d6000803e3d6000fd5b505050506040513d60208110156106ad57600080fd5b50516040805163ffffffff841660e01b81526001600160a01b039092166004830152516024808301926020929190829003018186803b1580156106ef57600080fd5b505afa158015610703573d6000803e3d6000fd5b505050506040513d602081101561071957600080fd5b50511561072557600080fd5b60408051600160e01b633ebc2ab30281526001600160a01b038516600482015290513091633ebc2ab3916024808301926020929190829003018186803b15801561076e57600080fd5b505afa158015610782573d6000803e3d6000fd5b505050506040513d602081101561079857600080fd5b50516107a357600080fd5b60085460408051600160e01b63029b7d530281526001600160a01b03858116600483015291516000939092169163029b7d5391602480820192602092909190829003018186803b1580156107f657600080fd5b505afa15801561080a573d6000803e3d6000fd5b505050506040513d602081101561082057600080fd5b50516001600160a01b03161461083557600080fd5b6001600160a01b038084166000818152600c60209081526040808320805460ff1916815560018101849055600281018490556008548251600160e51b630159fea502815260048101969096528887166024870152915190959190911693632b3fd4a09360448083019493928390030190829087803b1580156108b657600080fd5b505af11580156108ca573d6000803e3d6000fd5b505050506040513d60208110156108e057600080fd5b50516108eb57600080fd5b600a5460408051600160e21b632920491f0281526001600160a01b03878116600483015286811660248301529151919092169163a481247c916044808301926020929190829003018186803b15801561094357600080fd5b505afa158015610957573d6000803e3d6000fd5b505050506040513d602081101561096d57600080fd5b5051610a0257600a5460408051600160e21b633c3cbf410281526001600160a01b03878116600483015286811660248301529151919092169163f0f2fd049160448083019260209291908290030181600087803b1580156109cd57600080fd5b505af11580156109e1573d6000803e3d6000fd5b505050506040513d60208110156109f757600080fd5b5051610a0257600080fd5b60085460408051600160e21b633d5d0f130281526001600160a01b0387811660048301529151600093929092169163f5743c4c9160248082019260209290919082900301818787803b158015610a5757600080fd5b505af1158015610a6b573d6000803e3d6000fd5b505050506040513d6020811015610a8157600080fd5b5051905080610a8f57600080fd5b60085460408051600160e01b63029b7d5302815233600482015290516001600160a01b03808916937fa2ba799ab310a8972c43fac2fe72f0e89beeb1807531fea8bcec1311328090119391169163029b7d5391602480820192602092909190829003018186803b158015610b0257600080fd5b505afa158015610b16573d6000803e3d6000fd5b505050506040513d6020811015610b2c57600080fd5b5051604080516001600160a01b0392831681529188166020830152428282015260016060830152519081900360800190a25050505050565b60008173__AOLibrary_____________________________632d706a34826040518263ffffffff1660e01b815260040180826001600160a01b03166001600160a01b0316815260200191505060206040518083038186803b158015610bc857600080fd5b505af4158015610bdc573d6000803e3d6000fd5b505050506040513d6020811015610bf257600080fd5b5051610bfd57600080fd5b610c056119d3565b506001600160a01b0383166000908152600c60209081526040918290208251606081018452815460ff1615801580835260018401549483019490945260029092015493810193909352610c5c575080604001514211155b949350505050565b6005546001600160a01b031681565b60005460055460408051600160e21b633d9abf2b0281523360048201526001600160a01b0393841660248201529290911660448301525173__AOLibrary_____________________________9163f66afcac916064808301926020929190829003018186803b158015610ce557600080fd5b505af4158015610cf9573d6000803e3d6000fd5b505050506040513d6020811015610d0f57600080fd5b5051610d1a57600080fd5b6001600160a01b038216610d2d57600080fd5b6001600160a01b03919091166000908152600260205260409020805460ff1916911515919091179055565b60005460055460408051600160e21b633d9abf2b0281523360048201526001600160a01b0393841660248201529290911660448301525173__AOLibrary_____________________________9163f66afcac916064808301926020929190829003018186803b158015610dca57600080fd5b505af4158015610dde573d6000803e3d6000fd5b505050506040513d6020811015610df457600080fd5b5051610dff57600080fd5b6001600160a01b038116610e1257600080fd5b600580546001600160a01b039092166001600160a01b0319928316811790915560098054909216179055565b8073__AOLibrary_____________________________632d706a34826040518263ffffffff1660e01b815260040180826001600160a01b03166001600160a01b0316815260200191505060206040518083038186803b158015610ea057600080fd5b505af4158015610eb4573d6000803e3d6000fd5b505050506040513d6020811015610eca57600080fd5b5051610ed557600080fd5b60085460408051600160e01b63029b7d5302815233600482015290516000926001600160a01b03169163029b7d53916024808301926020929190829003018186803b158015610f2357600080fd5b505afa158015610f37573d6000803e3d6000fd5b505050506040513d6020811015610f4d57600080fd5b50516001600160a01b03161415610f6357600080fd5b60095460408051600160e11b636d565ce70281523360048201526001600160a01b0385811660248301529151919092169163daacb9ce916044808301926020929190829003018186803b158015610fb957600080fd5b505afa158015610fcd573d6000803e3d6000fd5b505050506040513d6020811015610fe357600080fd5b5051610fee57600080fd5b60095460408051600160e01b6371ce52ed0281523360048201526001600160a01b038581166024830152915191909216916371ce52ed916044808301926020929190829003018186803b15801561104457600080fd5b505afa158015611058573d6000803e3d6000fd5b505050506040513d602081101561106e57600080fd5b50511561107a57600080fd5b60085460408051600160e01b63029b7d5302815233600482015290513092633ebc2ab3926001600160a01b039091169163029b7d5391602480820192602092909190829003018186803b1580156110d057600080fd5b505afa1580156110e4573d6000803e3d6000fd5b505050506040513d60208110156110fa57600080fd5b50516040805163ffffffff841660e01b81526001600160a01b039092166004830152516024808301926020929190829003018186803b15801561113c57600080fd5b505afa158015611150573d6000803e3d6000fd5b505050506040513d602081101561116657600080fd5b50511561117257600080fd5b6001600160a01b0382166000908152600c602052604090206002810154421161119a57600080fd5b805460ff19166001908117825542908201556111c86111b7611888565b60018301549063ffffffff6119c016565b600282015560085460408051600160e21b633d5d0f130281526001600160a01b0386811660048301529151600093929092169163f5743c4c9160248082019260209290919082900301818787803b15801561122257600080fd5b505af1158015611236573d6000803e3d6000fd5b505050506040513d602081101561124c57600080fd5b505190508061125a57600080fd5b60085460408051600160e01b63029b7d5302815233600482015290516001600160a01b03808816937f47deb83140ae2c85e9af08db49e64191bda9b547269f4167e02ef7d15836048a9391169163029b7d5391602480820192602092909190829003018186803b1580156112cd57600080fd5b505afa1580156112e1573d6000803e3d6000fd5b505050506040513d60208110156112f757600080fd5b50516001858101546002870154604080516001600160a01b039095168552602085019390935283830191909152606083015260808201859052519081900360a00190a250505050565b60005460055460408051600160e21b633d9abf2b0281523360048201526001600160a01b0393841660248201529290911660448301525173__AOLibrary_____________________________9163f66afcac916064808301926020929190829003018186803b1580156113b257600080fd5b505af41580156113c6573d6000803e3d6000fd5b505050506040513d60208110156113dc57600080fd5b50516113e757600080fd5b6001600160a01b0381166113fa57600080fd5b600680546001600160a01b039092166001600160a01b03199283168117909155600a8054909216179055565b60005460055460408051600160e21b633d9abf2b0281523360048201526001600160a01b0393841660248201529290911660448301525173__AOLibrary_____________________________9163f66afcac916064808301926020929190829003018186803b15801561149857600080fd5b505af41580156114ac573d6000803e3d6000fd5b505050506040513d60208110156114c257600080fd5b50516114cd57600080fd5b6001600160a01b0381166114e057600080fd5b600480546001600160a01b039092166001600160a01b0319928316811790915560088054909216179055565b60026020526000908152604090205460ff1681565b6000546001600160a01b031681565b6004546001600160a01b031681565b60005460055460408051600160e21b633d9abf2b0281523360048201526001600160a01b0393841660248201529290911660448301525173__AOLibrary_____________________________9163f66afcac916064808301926020929190829003018186803b1580156115b157600080fd5b505af41580156115c5573d6000803e3d6000fd5b505050506040513d60208110156115db57600080fd5b50516115e657600080fd5b60408051600160e21b630bf295050281526001600160a01b0383166004820152905173__AOLibrary_____________________________91632fca5414916024808301926020929190829003018186803b15801561164357600080fd5b505af4158015611657573d6000803e3d6000fd5b505050506040513d602081101561166d57600080fd5b505161167857600080fd5b600380546001600160a01b0319166001600160a01b0392909216919091179055565b6006546001600160a01b031681565b6003546001600160a01b031681565b60005460055460408051600160e21b633d9abf2b0281523360048201526001600160a01b0393841660248201529290911660448301525173__AOLibrary_____________________________9163f66afcac916064808301926020929190829003018186803b15801561172a57600080fd5b505af415801561173e573d6000803e3d6000fd5b505050506040513d602081101561175457600080fd5b505161175f57600080fd5b6001600160a01b03811661177257600080fd5b600080546001600160a01b0319166001600160a01b0392909216919091179055565b60008060008373__AOLibrary_____________________________632d706a34826040518263ffffffff1660e01b815260040180826001600160a01b03166001600160a01b0316815260200191505060206040518083038186803b1580156117fb57600080fd5b505af415801561180f573d6000803e3d6000fd5b505050506040513d602081101561182557600080fd5b505161183057600080fd5b6118386119d3565b505050506001600160a01b03919091166000908152600c60209081526040918290208251606081018452815460ff1615158082526001830154938201849052600290920154930183905293909250565b600b5460035460408051600160e21b631c196fb70281526001600160a01b03928316600482015260248101829052601b60448201527f6163636f756e745265636f766572794c6f636b4475726174696f6e00000000006064820152905160009384931691637065bedc9160848083019286929190829003018186803b15801561191057600080fd5b505afa158015611924573d6000803e3d6000fd5b505050506040513d6000823e601f3d908101601f1916820160405260a081101561194d57600080fd5b81516020830151604084015160608501516080860180519496939592949193928301929164010000000081111561198357600080fd5b8201602081018481111561199657600080fd5b81516401000000008111828201871017156119b057600080fd5b5097995050505050505050505090565b818101828110156119cd57fe5b92915050565b60405180606001604052806000151581526020016000815260200160008152509056fea165627a7a72305820c22cdd4bfc4072ee92c48eb8b790b78ab4983c3040b3853f07a2dd5b5c1691730029",
  "source": "pragma solidity >=0.5.4 <0.6.0;\n\nimport './SafeMath.sol';\nimport './AOLibrary.sol';\nimport './TheAO.sol';\nimport './INameAccountRecovery.sol';\nimport './INameFactory.sol';\nimport './INameTAOPosition.sol';\nimport './INamePublicKey.sol';\nimport './IAOSetting.sol';\n\n/**\n * @title NameAccountRecovery\n */\ncontract NameAccountRecovery is TheAO {\n\tusing SafeMath for uint256;\n\n\taddress public settingTAOId;\n\taddress public nameFactoryAddress;\n\taddress public nameTAOPositionAddress;\n\taddress public namePublicKeyAddress;\n\taddress public aoSettingAddress;\n\n\tINameFactory internal _nameFactory;\n\tINameTAOPosition internal _nameTAOPosition;\n\tINamePublicKey internal _namePublicKey;\n\tIAOSetting internal _aoSetting;\n\n\tstruct AccountRecovery {\n\t\t// If submitted, then Name is locked until lockedUntilTimestamp\n\t\t// and if no action is taken by the Speaker, then the current\n\t\t// eth address associated with the Name can resume operation\n\t\tbool submitted;\n\t\tuint256 submittedTimestamp;\t\t// Timestamp when this account recovery is submitted\n\t\tuint256 lockedUntilTimestamp;\t// The deadline for the current Speaker of Name to respond and replace the new eth address\n\t}\n\n\tmapping (address => AccountRecovery) internal accountRecoveries;\n\n\t// Event to be broadcasted to public when current Listener of Name submitted account recovery for a Name\n\tevent SubmitAccountRecovery(address indexed nameId, address listenerId, bool compromised, uint256 submittedTimestamp, uint256 lockedUntilTimestamp, uint256 nonce);\n\n\t// Event to be broadcasted to public when current Speaker of Name set new ETH Address for a Name\n\tevent SetNameNewAddress(address indexed nameId, address speakerId, address newAddress, uint256 timestamp, uint256 nonce);\n\n\t/**\n\t * @dev Constructor function\n\t */\n\tconstructor(address _nameFactoryAddress, address _nameTAOPositionAddress) public {\n\t\tsetNameFactoryAddress(_nameFactoryAddress);\n\t\tsetNameTAOPositionAddress(_nameTAOPositionAddress);\n\t}\n\n\t/**\n\t * @dev Checks if the calling contract address is The AO\n\t *\t\tOR\n\t *\t\tIf The AO is set to a Name/TAO, then check if calling address is the Advocate\n\t */\n\tmodifier onlyTheAO {\n\t\trequire (AOLibrary.isTheAO(msg.sender, theAO, nameTAOPositionAddress));\n\t\t_;\n\t}\n\n\t/**\n\t * @dev Check if calling address is Factory\n\t */\n\tmodifier onlyFactory {\n\t\trequire (msg.sender == nameFactoryAddress);\n\t\t_;\n\t}\n\n\t/**\n\t * @dev Check is msg.sender address is a Name\n\t */\n\t modifier senderIsName() {\n\t\trequire (_nameFactory.ethAddressToNameId(msg.sender) != address(0));\n\t\t_;\n\t }\n\n\t/**\n\t * @dev Check if `_nameId` is a Name\n\t */\n\tmodifier isName(address _nameId) {\n\t\trequire (AOLibrary.isName(_nameId));\n\t\t_;\n\t}\n\n\t/***** The AO ONLY METHODS *****/\n\t/**\n\t * @dev Transfer ownership of The AO to new address\n\t * @param _theAO The new address to be transferred\n\t */\n\tfunction transferOwnership(address _theAO) public onlyTheAO {\n\t\trequire (_theAO != address(0));\n\t\ttheAO = _theAO;\n\t}\n\n\t/**\n\t * @dev Whitelist `_account` address to transact on behalf of others\n\t * @param _account The address to whitelist\n\t * @param _whitelist Either to whitelist or not\n\t */\n\tfunction setWhitelist(address _account, bool _whitelist) public onlyTheAO {\n\t\trequire (_account != address(0));\n\t\twhitelist[_account] = _whitelist;\n\t}\n\n\t/**\n\t * @dev The AO set the NameFactory Address\n\t * @param _nameFactoryAddress The address of NameFactory\n\t */\n\tfunction setNameFactoryAddress(address _nameFactoryAddress) public onlyTheAO {\n\t\trequire (_nameFactoryAddress != address(0));\n\t\tnameFactoryAddress = _nameFactoryAddress;\n\t\t_nameFactory = INameFactory(_nameFactoryAddress);\n\t}\n\n\t/**\n\t * @dev The AO set the NameTAOPosition Address\n\t * @param _nameTAOPositionAddress The address of NameTAOPosition\n\t */\n\tfunction setNameTAOPositionAddress(address _nameTAOPositionAddress) public onlyTheAO {\n\t\trequire (_nameTAOPositionAddress != address(0));\n\t\tnameTAOPositionAddress = _nameTAOPositionAddress;\n\t\t_nameTAOPosition = INameTAOPosition(_nameTAOPositionAddress);\n\t}\n\n\t/**\n\t * @dev The AO set the NamePublicKey Address\n\t * @param _namePublicKeyAddress The address of NamePublicKey\n\t */\n\tfunction setNamePublicKeyAddress(address _namePublicKeyAddress) public onlyTheAO {\n\t\trequire (_namePublicKeyAddress != address(0));\n\t\tnamePublicKeyAddress = _namePublicKeyAddress;\n\t\t_namePublicKey = INamePublicKey(_namePublicKeyAddress);\n\t}\n\n\t/**\n\t * @dev The AO sets setting TAO ID\n\t * @param _settingTAOId The new setting TAO ID to set\n\t */\n\tfunction setSettingTAOId(address _settingTAOId) public onlyTheAO {\n\t\trequire (AOLibrary.isTAO(_settingTAOId));\n\t\tsettingTAOId = _settingTAOId;\n\t}\n\n\t/**\n\t * @dev The AO sets AO Setting address\n\t * @param _aoSettingAddress The address of AOSetting\n\t */\n\tfunction setAOSettingAddress(address _aoSettingAddress) public onlyTheAO {\n\t\trequire (_aoSettingAddress != address(0));\n\t\taoSettingAddress = _aoSettingAddress;\n\t\t_aoSetting = IAOSetting(_aoSettingAddress);\n\t}\n\n\t/***** PUBLIC METHODS *****/\n\t/**\n\t * @dev Get AccountRecovery information given a Name ID\n\t * @param _id The ID of the Name\n\t * @return the submit status of the account recovery\n\t * @return submittedTimestamp - Timestamp when this account recovery is submitted\n\t * @return lockedUntilTimestamp - The deadline for the current Speaker of Name to respond and replace the new eth address\n\t */\n\tfunction getAccountRecovery(address _id) public isName(_id) view returns (bool, uint256, uint256) {\n\t\tAccountRecovery memory _accountRecovery = accountRecoveries[_id];\n\t\treturn (\n\t\t\t_accountRecovery.submitted,\n\t\t\t_accountRecovery.submittedTimestamp,\n\t\t\t_accountRecovery.lockedUntilTimestamp\n\t\t);\n\t}\n\n\t/**\n\t * @dev Listener of Name submits an account recovery for the Name\n\t * @param _id The ID of the Name\n\t */\n\tfunction submitAccountRecovery(address _id) public isName(_id) senderIsName {\n\t\trequire (_nameTAOPosition.senderIsListener(msg.sender, _id));\n\n\t\t// Can't submit account recovery for itself\n\t\trequire (!_nameTAOPosition.senderIsAdvocate(msg.sender, _id));\n\n\t\t// Make sure Listener is not currenty compromised\n\t\trequire (!this.isCompromised(_nameFactory.ethAddressToNameId(msg.sender)));\n\n\t\tAccountRecovery storage _accountRecovery = accountRecoveries[_id];\n\n\t\t// Make sure currently it's not currently locked\n\t\trequire (now > _accountRecovery.lockedUntilTimestamp);\n\n\t\t_accountRecovery.submitted = true;\n\t\t_accountRecovery.submittedTimestamp = now;\n\t\t_accountRecovery.lockedUntilTimestamp = _accountRecovery.submittedTimestamp.add(_getAccountRecoveryLockDuration());\n\n\t\tuint256 _nonce = _nameFactory.incrementNonce(_id);\n\t\trequire (_nonce > 0);\n\n\t\temit SubmitAccountRecovery(_id, _nameFactory.ethAddressToNameId(msg.sender), true, _accountRecovery.submittedTimestamp, _accountRecovery.lockedUntilTimestamp, _nonce);\n\t}\n\n\t/**\n\t * @dev Check whether or not current Name is compromised,\n\t *\t\ti.e an account recovery has been submitted and waiting for\n\t *\t\taction from Speaker\n\t * @param _id The ID of the Name\n\t * @return true if yes. false otherwise\n\t */\n\tfunction isCompromised(address _id) external isName(_id) view returns (bool) {\n\t\tAccountRecovery memory _accountRecovery = accountRecoveries[_id];\n\t\treturn (_accountRecovery.submitted && now <= _accountRecovery.lockedUntilTimestamp);\n\t}\n\n\t/**\n\t * @dev Speaker of Name respond to AccountRecovery and submits a new eth address for Name\n\t * @param _id The ID of the Name\n\t * @param _newAddress The new replacement eth address\n\t */\n\tfunction setNameNewAddress(address _id, address _newAddress) public isName(_id) senderIsName {\n\t\trequire (_newAddress != address(0));\n\n\t\t// Only Speaker can do this action\n\t\trequire (_nameTAOPosition.senderIsSpeaker(msg.sender, _id));\n\n\t\t// Make sure Speaker is not currenty compromised\n\t\trequire (!this.isCompromised(_nameFactory.ethAddressToNameId(msg.sender)));\n\n\t\t// Make sure this Name is currently compromised and needs action\n\t\trequire (this.isCompromised(_id));\n\n\t\t// Make sure the newAddress is not yet assigned to a Name\n\t\trequire (_nameFactory.ethAddressToNameId(_newAddress) == address(0));\n\n\t\tAccountRecovery storage _accountRecovery = accountRecoveries[_id];\n\t\t_accountRecovery.submitted = false;\n\t\t_accountRecovery.submittedTimestamp = 0;\n\t\t_accountRecovery.lockedUntilTimestamp = 0;\n\n\t\t// Replace the existing eth address with new address\n\t\trequire (_nameFactory.setNameNewAddress(_id, _newAddress));\n\n\t\t// Add this _newAddress to Name's publicKey if needed\n\t\tif (!_namePublicKey.isKeyExist(_id, _newAddress)) {\n\t\t\trequire (_namePublicKey.whitelistAddKey(_id, _newAddress));\n\t\t}\n\n\t\tuint256 _nonce = _nameFactory.incrementNonce(_id);\n\t\trequire (_nonce > 0);\n\n\t\temit SetNameNewAddress(_id, _nameFactory.ethAddressToNameId(msg.sender), _newAddress, now, 1);\n\t}\n\n\t/***** INTERNAL METHOD *****/\n\t/**\n\t * @dev Get accountRecoveryLockDuration setting\n\t * @return accountRecoveryLockDuration = The amount of time for current Speaker of Name to response and replace the eth address associated with the Name\n\t */\n\tfunction _getAccountRecoveryLockDuration() internal view returns (uint256) {\n\t\t(uint256 accountRecoveryLockDuration,,,,) = _aoSetting.getSettingValuesByTAOName(settingTAOId, 'accountRecoveryLockDuration');\n\t\treturn accountRecoveryLockDuration;\n\t}\n}\n",
  "sourcePath": "/usr/local/ao-contracts/contracts/NameAccountRecovery.sol",
  "compiler": {
    "name": "solc",
    "version": "0.5.6+commit.b259423e.Emscripten.clang"
  },
  "schemaVersion": "3.0.2",
  "updatedAt": "2019-03-28T22:28:47.011Z",
  "devdoc": {
    "methods": {
      "constructor": {
        "details": "Constructor function"
      },
      "getAccountRecovery(address)": {
        "details": "Get AccountRecovery information given a Name ID",
        "params": {
          "_id": "The ID of the Name"
        },
        "return": "the submit status of the account recoverysubmittedTimestamp - Timestamp when this account recovery is submittedlockedUntilTimestamp - The deadline for the current Speaker of Name to respond and replace the new eth address"
      },
      "isCompromised(address)": {
        "details": "Check whether or not current Name is compromised,\ti.e an account recovery has been submitted and waiting for\taction from Speaker",
        "params": {
          "_id": "The ID of the Name"
        },
        "return": "true if yes. false otherwise"
      },
      "setAOSettingAddress(address)": {
        "details": "The AO sets AO Setting address",
        "params": {
          "_aoSettingAddress": "The address of AOSetting"
        }
      },
      "setNameFactoryAddress(address)": {
        "details": "The AO set the NameFactory Address",
        "params": {
          "_nameFactoryAddress": "The address of NameFactory"
        }
      },
      "setNameNewAddress(address,address)": {
        "details": "Speaker of Name respond to AccountRecovery and submits a new eth address for Name",
        "params": {
          "_id": "The ID of the Name",
          "_newAddress": "The new replacement eth address"
        }
      },
      "setNamePublicKeyAddress(address)": {
        "details": "The AO set the NamePublicKey Address",
        "params": {
          "_namePublicKeyAddress": "The address of NamePublicKey"
        }
      },
      "setNameTAOPositionAddress(address)": {
        "details": "The AO set the NameTAOPosition Address",
        "params": {
          "_nameTAOPositionAddress": "The address of NameTAOPosition"
        }
      },
      "setSettingTAOId(address)": {
        "details": "The AO sets setting TAO ID",
        "params": {
          "_settingTAOId": "The new setting TAO ID to set"
        }
      },
      "setWhitelist(address,bool)": {
        "details": "Whitelist `_account` address to transact on behalf of others",
        "params": {
          "_account": "The address to whitelist",
          "_whitelist": "Either to whitelist or not"
        }
      },
      "submitAccountRecovery(address)": {
        "details": "Listener of Name submits an account recovery for the Name",
        "params": {
          "_id": "The ID of the Name"
        }
      },
      "transferOwnership(address)": {
        "details": "Transfer ownership of The AO to new address",
        "params": {
          "_theAO": "The new address to be transferred"
        }
      }
    },
    "title": "NameAccountRecovery"
  },
  "userdoc": {
    "methods": {}
  }
}