{
	"contractName": "NameTAOVault",
	"abi": [
		{
			"constant": true,
			"inputs": [],
			"name": "nameTAOPositionAddress",
			"outputs": [
				{
					"name": "",
					"type": "address"
				}
			],
			"payable": false,
			"stateMutability": "view",
			"type": "function"
		},
		{
			"constant": true,
			"inputs": [
				{
					"name": "",
					"type": "address"
				}
			],
			"name": "whitelist",
			"outputs": [
				{
					"name": "",
					"type": "bool"
				}
			],
			"payable": false,
			"stateMutability": "view",
			"type": "function"
		},
		{
			"constant": true,
			"inputs": [],
			"name": "theAO",
			"outputs": [
				{
					"name": "",
					"type": "address"
				}
			],
			"payable": false,
			"stateMutability": "view",
			"type": "function"
		},
		{
			"inputs": [],
			"payable": false,
			"stateMutability": "nonpayable",
			"type": "constructor"
		},
		{
			"anonymous": false,
			"inputs": [
				{
					"indexed": true,
					"name": "advocateId",
					"type": "address"
				},
				{
					"indexed": false,
					"name": "from",
					"type": "address"
				},
				{
					"indexed": false,
					"name": "to",
					"type": "address"
				},
				{
					"indexed": false,
					"name": "amount",
					"type": "uint256"
				}
			],
			"name": "TransferEth",
			"type": "event"
		},
		{
			"anonymous": false,
			"inputs": [
				{
					"indexed": true,
					"name": "advocateId",
					"type": "address"
				},
				{
					"indexed": false,
					"name": "from",
					"type": "address"
				},
				{
					"indexed": false,
					"name": "to",
					"type": "address"
				},
				{
					"indexed": false,
					"name": "amount",
					"type": "uint256"
				},
				{
					"indexed": false,
					"name": "erc20TokenAddress",
					"type": "address"
				},
				{
					"indexed": false,
					"name": "erc20Name",
					"type": "string"
				},
				{
					"indexed": false,
					"name": "erc20Symbol",
					"type": "string"
				}
			],
			"name": "TransferERC20",
			"type": "event"
		},
		{
			"anonymous": false,
			"inputs": [
				{
					"indexed": true,
					"name": "advocateId",
					"type": "address"
				},
				{
					"indexed": false,
					"name": "from",
					"type": "address"
				},
				{
					"indexed": false,
					"name": "to",
					"type": "address"
				},
				{
					"indexed": false,
					"name": "amount",
					"type": "uint256"
				}
			],
			"name": "TransferAO",
			"type": "event"
		},
		{
			"anonymous": false,
			"inputs": [
				{
					"indexed": true,
					"name": "advocateId",
					"type": "address"
				},
				{
					"indexed": false,
					"name": "from",
					"type": "address"
				},
				{
					"indexed": false,
					"name": "to",
					"type": "address"
				},
				{
					"indexed": false,
					"name": "amount",
					"type": "uint256"
				}
			],
			"name": "TransferPrimordialAO",
			"type": "event"
		},
		{
			"constant": false,
			"inputs": [
				{
					"name": "_nameFactoryAddress",
					"type": "address"
				}
			],
			"name": "setNameFactoryAddress",
			"outputs": [],
			"payable": false,
			"stateMutability": "nonpayable",
			"type": "function"
		},
		{
			"constant": false,
			"inputs": [
				{
					"name": "_nameTAOPositionAddress",
					"type": "address"
				}
			],
			"name": "setNameTAOPositionAddress",
			"outputs": [],
			"payable": false,
			"stateMutability": "nonpayable",
			"type": "function"
		},
		{
			"constant": false,
			"inputs": [
				{
					"name": "_theAO",
					"type": "address"
				}
			],
			"name": "transferOwnership",
			"outputs": [],
			"payable": false,
			"stateMutability": "nonpayable",
			"type": "function"
		},
		{
			"constant": false,
			"inputs": [
				{
					"name": "_account",
					"type": "address"
				},
				{
					"name": "_whitelist",
					"type": "bool"
				}
			],
			"name": "setWhitelist",
			"outputs": [],
			"payable": false,
			"stateMutability": "nonpayable",
			"type": "function"
		},
		{
			"constant": false,
			"inputs": [
				{
					"name": "_aoTokenAddress",
					"type": "address"
				}
			],
			"name": "setAOTokenAddress",
			"outputs": [],
			"payable": false,
			"stateMutability": "nonpayable",
			"type": "function"
		},
		{
			"constant": true,
			"inputs": [
				{
					"name": "_id",
					"type": "address"
				}
			],
			"name": "ethBalanceOf",
			"outputs": [
				{
					"name": "",
					"type": "uint256"
				}
			],
			"payable": false,
			"stateMutability": "view",
			"type": "function"
		},
		{
			"constant": true,
			"inputs": [
				{
					"name": "_erc20TokenAddress",
					"type": "address"
				},
				{
					"name": "_id",
					"type": "address"
				}
			],
			"name": "erc20BalanceOf",
			"outputs": [
				{
					"name": "",
					"type": "uint256"
				}
			],
			"payable": false,
			"stateMutability": "view",
			"type": "function"
		},
		{
			"constant": true,
			"inputs": [
				{
					"name": "_id",
					"type": "address"
				}
			],
			"name": "AOBalanceOf",
			"outputs": [
				{
					"name": "",
					"type": "uint256"
				}
			],
			"payable": false,
			"stateMutability": "view",
			"type": "function"
		},
		{
			"constant": true,
			"inputs": [
				{
					"name": "_id",
					"type": "address"
				}
			],
			"name": "primordialAOBalanceOf",
			"outputs": [
				{
					"name": "",
					"type": "uint256"
				}
			],
			"payable": false,
			"stateMutability": "view",
			"type": "function"
		},
		{
			"constant": false,
			"inputs": [
				{
					"name": "_from",
					"type": "address"
				},
				{
					"name": "_to",
					"type": "address"
				},
				{
					"name": "_amount",
					"type": "uint256"
				}
			],
			"name": "transferEth",
			"outputs": [],
			"payable": false,
			"stateMutability": "nonpayable",
			"type": "function"
		},
		{
			"constant": false,
			"inputs": [
				{
					"name": "_erc20TokenAddress",
					"type": "address"
				},
				{
					"name": "_from",
					"type": "address"
				},
				{
					"name": "_to",
					"type": "address"
				},
				{
					"name": "_amount",
					"type": "uint256"
				}
			],
			"name": "transferERC20",
			"outputs": [],
			"payable": false,
			"stateMutability": "nonpayable",
			"type": "function"
		},
		{
			"constant": false,
			"inputs": [
				{
					"name": "_from",
					"type": "address"
				},
				{
					"name": "_to",
					"type": "address"
				},
				{
					"name": "_amount",
					"type": "uint256"
				}
			],
			"name": "transferAO",
			"outputs": [],
			"payable": false,
			"stateMutability": "nonpayable",
			"type": "function"
		},
		{
			"constant": false,
			"inputs": [
				{
					"name": "_from",
					"type": "address"
				},
				{
					"name": "_to",
					"type": "address"
				},
				{
					"name": "_amount",
					"type": "uint256"
				}
			],
			"name": "transferPrimordialAO",
			"outputs": [],
			"payable": false,
			"stateMutability": "nonpayable",
			"type": "function"
		}
	],
	"bytecode": "0x608060405234801561001057600080fd5b5060008054600160a060020a031916331790556121cd806100326000396000f3006080604052600436106100cc5763ffffffff60e060020a600035041663178cdaef81146100d15780634ef033f0146100f457806353d6fd59146101255780635cfaf2ef1461014b5780637252bbf21461016c57806380f3659c1461019f5780638c924361146101c05780639937ae95146101e15780639b19251a1461020b578063a9b6b38e14610240578063c5f9817714610255578063ce6c91381461027f578063d765925d146102a0578063da3e8ce4146102ca578063e1c6fb66146102fa578063f2fde38b14610321575b600080fd5b3480156100dd57600080fd5b506100f2600160a060020a0360043516610342565b005b34801561010057600080fd5b5061010961042f565b60408051600160a060020a039092168252519081900360200190f35b34801561013157600080fd5b506100f2600160a060020a0360043516602435151561043e565b34801561015757600080fd5b506100f2600160a060020a0360043516610527565b34801561017857600080fd5b5061018d600160a060020a036004351661061e565b60408051918252519081900360200190f35b3480156101ab57600080fd5b5061018d600160a060020a036004351661075b565b3480156101cc57600080fd5b506100f2600160a060020a0360043516610924565b3480156101ed57600080fd5b506100f2600160a060020a0360043581169060243516604435610a11565b34801561021757600080fd5b5061022c600160a060020a0360043516610e39565b604080519115158252519081900360200190f35b34801561024c57600080fd5b50610109610e4e565b34801561026157600080fd5b506100f2600160a060020a0360043581169060243516604435610e5d565b34801561028b57600080fd5b5061018d600160a060020a0360043516611285565b3480156102ac57600080fd5b506100f2600160a060020a036004358116906024351660443561141b565b3480156102d657600080fd5b506100f2600160a060020a03600435811690602435811690604435166064356117a4565b34801561030657600080fd5b5061018d600160a060020a0360043581169060243516611ef7565b34801561032d57600080fd5b506100f2600160a060020a03600435166120b4565b6000546001546040805160e260020a633d9abf2b028152336004820152600160a060020a0393841660248201529290911660448301525173__AOLibrary_____________________________9163f66afcac916064808301926020929190829003018186803b1580156103b457600080fd5b505af41580156103c8573d6000803e3d6000fd5b505050506040513d60208110156103de57600080fd5b505115156103eb57600080fd5b600160a060020a038116151561040057600080fd5b6005805473ffffffffffffffffffffffffffffffffffffffff1916600160a060020a0392909216919091179055565b600154600160a060020a031681565b6000546001546040805160e260020a633d9abf2b028152336004820152600160a060020a0393841660248201529290911660448301525173__AOLibrary_____________________________9163f66afcac916064808301926020929190829003018186803b1580156104b057600080fd5b505af41580156104c4573d6000803e3d6000fd5b505050506040513d60208110156104da57600080fd5b505115156104e757600080fd5b600160a060020a03821615156104fc57600080fd5b600160a060020a03919091166000908152600260205260409020805460ff1916911515919091179055565b6000546001546040805160e260020a633d9abf2b028152336004820152600160a060020a0393841660248201529290911660448301525173__AOLibrary_____________________________9163f66afcac916064808301926020929190829003018186803b15801561059957600080fd5b505af41580156105ad573d6000803e3d6000fd5b505050506040513d60208110156105c357600080fd5b505115156105d057600080fd5b600160a060020a03811615156105e557600080fd5b60018054600160a060020a0390921673ffffffffffffffffffffffffffffffffffffffff19928316811790915560048054909216179055565b60008173__AOLibrary_____________________________632d706a34826040518263ffffffff1660e060020a0281526004018082600160a060020a0316600160a060020a0316815260200191505060206040518083038186803b15801561068557600080fd5b505af4158015610699573d6000803e3d6000fd5b505050506040513d60208110156106af57600080fd5b50518061074157506040805160e260020a630bf29505028152600160a060020a0383166004820152905173__AOLibrary_____________________________91632fca5414916024808301926020929190829003018186803b15801561071457600080fd5b505af4158015610728573d6000803e3d6000fd5b505050506040513d602081101561073e57600080fd5b50515b151561074c57600080fd5b5050600160a060020a03163190565b60008173__AOLibrary_____________________________632d706a34826040518263ffffffff1660e060020a0281526004018082600160a060020a0316600160a060020a0316815260200191505060206040518083038186803b1580156107c257600080fd5b505af41580156107d6573d6000803e3d6000fd5b505050506040513d60208110156107ec57600080fd5b50518061087e57506040805160e260020a630bf29505028152600160a060020a0383166004820152905173__AOLibrary_____________________________91632fca5414916024808301926020929190829003018186803b15801561085157600080fd5b505af4158015610865573d6000803e3d6000fd5b505050506040513d602081101561087b57600080fd5b50515b151561088957600080fd5b600554604080517f57946b8e000000000000000000000000000000000000000000000000000000008152600160a060020a038681166004830152915191909216916357946b8e9160248083019260209291908290030181600087803b1580156108f157600080fd5b505af1158015610905573d6000803e3d6000fd5b505050506040513d602081101561091b57600080fd5b50519392505050565b6000546001546040805160e260020a633d9abf2b028152336004820152600160a060020a0393841660248201529290911660448301525173__AOLibrary_____________________________9163f66afcac916064808301926020929190829003018186803b15801561099657600080fd5b505af41580156109aa573d6000803e3d6000fd5b505050506040513d60208110156109c057600080fd5b505115156109cd57600080fd5b600160a060020a03811615156109e257600080fd5b6003805473ffffffffffffffffffffffffffffffffffffffff1916600160a060020a0392909216919091179055565b8273__AOLibrary_____________________________632d706a34826040518263ffffffff1660e060020a0281526004018082600160a060020a0316600160a060020a0316815260200191505060206040518083038186803b158015610a7657600080fd5b505af4158015610a8a573d6000803e3d6000fd5b505050506040513d6020811015610aa057600080fd5b505180610b3257506040805160e260020a630bf29505028152600160a060020a0383166004820152905173__AOLibrary_____________________________91632fca5414916024808301926020929190829003018186803b158015610b0557600080fd5b505af4158015610b19573d6000803e3d6000fd5b505050506040513d6020811015610b2f57600080fd5b50515b1515610b3d57600080fd5b600480546040805160e060020a6371ce52ed0281523393810193909352600160a060020a0380881660248501529051879391909216916371ce52ed916044808201926020929091908290030181600087803b158015610b9b57600080fd5b505af1158015610baf573d6000803e3d6000fd5b505050506040513d6020811015610bc557600080fd5b50511515610bd257600080fd5b600083118015610c775750600554604080517f70a08231000000000000000000000000000000000000000000000000000000008152600160a060020a0388811660048301529151869392909216916370a08231916024808201926020929091908290030181600087803b158015610c4857600080fd5b505af1158015610c5c573d6000803e3d6000fd5b505050506040513d6020811015610c7257600080fd5b505110155b1515610c8257600080fd5b600160a060020a03841615801590610cac575083600160a060020a031685600160a060020a031614155b1515610cb757600080fd5b600554604080517fa144a3e0000000000000000000000000000000000000000000000000000000008152600160a060020a0388811660048301528781166024830152604482018790529151919092169163a144a3e09160648083019260209291908290030181600087803b158015610d2e57600080fd5b505af1158015610d42573d6000803e3d6000fd5b505050506040513d6020811015610d5857600080fd5b50511515610d6557600080fd5b6003546040805160e060020a63029b7d530281523360048201529051600160a060020a039092169163029b7d53916024808201926020929091908290030181600087803b158015610db557600080fd5b505af1158015610dc9573d6000803e3d6000fd5b505050506040513d6020811015610ddf57600080fd5b505160408051600160a060020a0388811682528781166020830152818301879052915191909216917f658cf4630baa0314cfa2427dcb40dd2eb2fa2cb15dfa6b4fb9af7fb84a1eeefd919081900360600190a25050505050565b60026020526000908152604090205460ff1681565b600054600160a060020a031681565b8273__AOLibrary_____________________________632d706a34826040518263ffffffff1660e060020a0281526004018082600160a060020a0316600160a060020a0316815260200191505060206040518083038186803b158015610ec257600080fd5b505af4158015610ed6573d6000803e3d6000fd5b505050506040513d6020811015610eec57600080fd5b505180610f7e57506040805160e260020a630bf29505028152600160a060020a0383166004820152905173__AOLibrary_____________________________91632fca5414916024808301926020929190829003018186803b158015610f5157600080fd5b505af4158015610f65573d6000803e3d6000fd5b505050506040513d6020811015610f7b57600080fd5b50515b1515610f8957600080fd5b600480546040805160e060020a6371ce52ed0281523393810193909352600160a060020a0380881660248501529051879391909216916371ce52ed916044808201926020929091908290030181600087803b158015610fe757600080fd5b505af1158015610ffb573d6000803e3d6000fd5b505050506040513d602081101561101157600080fd5b5051151561101e57600080fd5b6000831180156110c35750600554604080517f57946b8e000000000000000000000000000000000000000000000000000000008152600160a060020a0388811660048301529151869392909216916357946b8e916024808201926020929091908290030181600087803b15801561109457600080fd5b505af11580156110a8573d6000803e3d6000fd5b505050506040513d60208110156110be57600080fd5b505110155b15156110ce57600080fd5b600160a060020a038416158015906110f8575083600160a060020a031685600160a060020a031614155b151561110357600080fd5b600554604080517ff6cb86db000000000000000000000000000000000000000000000000000000008152600160a060020a0388811660048301528781166024830152604482018790529151919092169163f6cb86db9160648083019260209291908290030181600087803b15801561117a57600080fd5b505af115801561118e573d6000803e3d6000fd5b505050506040513d60208110156111a457600080fd5b505115156111b157600080fd5b6003546040805160e060020a63029b7d530281523360048201529051600160a060020a039092169163029b7d53916024808201926020929091908290030181600087803b15801561120157600080fd5b505af1158015611215573d6000803e3d6000fd5b505050506040513d602081101561122b57600080fd5b505160408051600160a060020a0388811682528781166020830152818301879052915191909216917f18b5b019bd18c19ea9e68f05645b493bd5e0494f7f566a89b360ffc076423de9919081900360600190a25050505050565b60008173__AOLibrary_____________________________632d706a34826040518263ffffffff1660e060020a0281526004018082600160a060020a0316600160a060020a0316815260200191505060206040518083038186803b1580156112ec57600080fd5b505af4158015611300573d6000803e3d6000fd5b505050506040513d602081101561131657600080fd5b5051806113a857506040805160e260020a630bf29505028152600160a060020a0383166004820152905173__AOLibrary_____________________________91632fca5414916024808301926020929190829003018186803b15801561137b57600080fd5b505af415801561138f573d6000803e3d6000fd5b505050506040513d60208110156113a557600080fd5b50515b15156113b357600080fd5b600554604080517f70a08231000000000000000000000000000000000000000000000000000000008152600160a060020a038681166004830152915191909216916370a082319160248083019260209291908290030181600087803b1580156108f157600080fd5b8273__AOLibrary_____________________________632d706a34826040518263ffffffff1660e060020a0281526004018082600160a060020a0316600160a060020a0316815260200191505060206040518083038186803b15801561148057600080fd5b505af4158015611494573d6000803e3d6000fd5b505050506040513d60208110156114aa57600080fd5b50518061153c57506040805160e260020a630bf29505028152600160a060020a0383166004820152905173__AOLibrary_____________________________91632fca5414916024808301926020929190829003018186803b15801561150f57600080fd5b505af4158015611523573d6000803e3d6000fd5b505050506040513d602081101561153957600080fd5b50515b151561154757600080fd5b600480546040805160e060020a6371ce52ed0281523393810193909352600160a060020a0380881660248501529051879391909216916371ce52ed916044808201926020929091908290030181600087803b1580156115a557600080fd5b505af11580156115b9573d6000803e3d6000fd5b505050506040513d60208110156115cf57600080fd5b505115156115dc57600080fd5b6000831180156115f657508285600160a060020a03163110155b151561160157600080fd5b600160a060020a0384161580159061162b575083600160a060020a031685600160a060020a031614155b151561163657600080fd5b84600160a060020a031663e9bb84c285856040518363ffffffff1660e060020a0281526004018083600160a060020a0316600160a060020a0316815260200182815260200192505050602060405180830381600087803b15801561169957600080fd5b505af11580156116ad573d6000803e3d6000fd5b505050506040513d60208110156116c357600080fd5b505115156116d057600080fd5b6003546040805160e060020a63029b7d530281523360048201529051600160a060020a039092169163029b7d53916024808201926020929091908290030181600087803b15801561172057600080fd5b505af1158015611734573d6000803e3d6000fd5b505050506040513d602081101561174a57600080fd5b505160408051600160a060020a0388811682528781166020830152818301879052915191909216917f465b2f4afe4365933cc5ead3aec00111a21a453e8d71bf1453b1d59ff4693081919081900360600190a25050505050565b60008373__AOLibrary_____________________________632d706a34826040518263ffffffff1660e060020a0281526004018082600160a060020a0316600160a060020a0316815260200191505060206040518083038186803b15801561180b57600080fd5b505af415801561181f573d6000803e3d6000fd5b505050506040513d602081101561183557600080fd5b5051806118c757506040805160e260020a630bf29505028152600160a060020a0383166004820152905173__AOLibrary_____________________________91632fca5414916024808301926020929190829003018186803b15801561189a57600080fd5b505af41580156118ae573d6000803e3d6000fd5b505050506040513d60208110156118c457600080fd5b50515b15156118d257600080fd5b600480546040805160e060020a6371ce52ed0281523393810193909352600160a060020a0380891660248501529051889391909216916371ce52ed916044808201926020929091908290030181600087803b15801561193057600080fd5b505af1158015611944573d6000803e3d6000fd5b505050506040513d602081101561195a57600080fd5b5051151561196757600080fd5b600160a060020a038716151561197c57600080fd5b869250600083600160a060020a03166318160ddd6040518163ffffffff1660e060020a028152600401602060405180830381600087803b1580156119bf57600080fd5b505af11580156119d3573d6000803e3d6000fd5b505050506040513d60208110156119e957600080fd5b5051116119f557600080fd5b600084118015611a8b57508383600160a060020a03166370a08231886040518263ffffffff1660e060020a0281526004018082600160a060020a0316600160a060020a03168152602001915050602060405180830381600087803b158015611a5c57600080fd5b505af1158015611a70573d6000803e3d6000fd5b505050506040513d6020811015611a8657600080fd5b505110155b1515611a9657600080fd5b600160a060020a03851615801590611ac0575084600160a060020a031686600160a060020a031614155b1515611acb57600080fd5b604080517f9db5dbe4000000000000000000000000000000000000000000000000000000008152600160a060020a038981166004830152878116602483015260448201879052915191881691639db5dbe4916064808201926020929091908290030181600087803b158015611b3f57600080fd5b505af1158015611b53573d6000803e3d6000fd5b505050506040513d6020811015611b6957600080fd5b50511515611b7657600080fd5b6003546040805160e060020a63029b7d530281523360048201529051600160a060020a039092169163029b7d53916024808201926020929091908290030181600087803b158015611bc657600080fd5b505af1158015611bda573d6000803e3d6000fd5b505050506040513d6020811015611bf057600080fd5b8101908080519060200190929190505050600160a060020a03167fc0f0c797c493e6d182b6024333a29a628896a4efd7c18d491c8f717407aa93c98787878b88600160a060020a03166306fdde036040518163ffffffff1660e060020a028152600401600060405180830381600087803b158015611c6d57600080fd5b505af1158015611c81573d6000803e3d6000fd5b505050506040513d6000823e601f3d908101601f191682016040526020811015611caa57600080fd5b810190808051640100000000811115611cc257600080fd5b82016020810184811115611cd557600080fd5b8151640100000000811182820187101715611cef57600080fd5b505092919050505089600160a060020a03166395d89b416040518163ffffffff1660e060020a028152600401600060405180830381600087803b158015611d3557600080fd5b505af1158015611d49573d6000803e3d6000fd5b505050506040513d6000823e601f3d908101601f191682016040526020811015611d7257600080fd5b810190808051640100000000811115611d8a57600080fd5b82016020810184811115611d9d57600080fd5b8151640100000000811182820187101715611db757600080fd5b50509291905050506040518087600160a060020a0316600160a060020a0316815260200186600160a060020a0316600160a060020a0316815260200185815260200184600160a060020a0316600160a060020a031681526020018060200180602001838103835285818151815260200191508051906020019080838360005b83811015611e4e578181015183820152602001611e36565b50505050905090810190601f168015611e7b5780820380516001836020036101000a031916815260200191505b50838103825284518152845160209182019186019080838360005b83811015611eae578181015183820152602001611e96565b50505050905090810190601f168015611edb5780820380516001836020036101000a031916815260200191505b509850505050505050505060405180910390a250505050505050565b60008173__AOLibrary_____________________________632d706a34826040518263ffffffff1660e060020a0281526004018082600160a060020a0316600160a060020a0316815260200191505060206040518083038186803b158015611f5e57600080fd5b505af4158015611f72573d6000803e3d6000fd5b505050506040513d6020811015611f8857600080fd5b50518061201a57506040805160e260020a630bf29505028152600160a060020a0383166004820152905173__AOLibrary_____________________________91632fca5414916024808301926020929190829003018186803b158015611fed57600080fd5b505af4158015612001573d6000803e3d6000fd5b505050506040513d602081101561201757600080fd5b50515b151561202557600080fd5b83600160a060020a03166370a08231846040518263ffffffff1660e060020a0281526004018082600160a060020a0316600160a060020a03168152602001915050602060405180830381600087803b15801561208057600080fd5b505af1158015612094573d6000803e3d6000fd5b505050506040513d60208110156120aa57600080fd5b5051949350505050565b6000546001546040805160e260020a633d9abf2b028152336004820152600160a060020a0393841660248201529290911660448301525173__AOLibrary_____________________________9163f66afcac916064808301926020929190829003018186803b15801561212657600080fd5b505af415801561213a573d6000803e3d6000fd5b505050506040513d602081101561215057600080fd5b5051151561215d57600080fd5b600160a060020a038116151561217257600080fd5b6000805473ffffffffffffffffffffffffffffffffffffffff1916600160a060020a03929092169190911790555600a165627a7a72305820cb57a927658791156855cf22ded882678ed1f3efce3ee707cfc7de3d28c565570029",
	"source": "pragma solidity ^0.4.24;\n\nimport './SafeMath.sol';\nimport './TheAO.sol';\nimport './AOLibrary.sol';\nimport './NameFactory.sol';\nimport './NameTAOPosition.sol';\nimport './TokenERC20.sol';\nimport './AOToken.sol';\n\n/**\n * @title NameTAOVault\n */\ncontract NameTAOVault is TheAO {\n\tusing SafeMath for uint256;\n\n\tNameFactory internal _nameFactory;\n\tNameTAOPosition internal _nameTAOPosition;\n\tAOToken internal _ao;\n\n\t// Event to be broadcasted to public when Advocate of `from` Name/TAO transfer ETH\n\t// `from` is a Name/TAO\n\tevent TransferEth(address indexed advocateId, address from, address to, uint256 amount);\n\n\t// Event to be broadcasted to public when Advocate of `from` Name/TAO transfer ERC20 Token\n\t// `from` is a Name/TAO\n\tevent TransferERC20(address indexed advocateId, address from, address to, uint256 amount, address erc20TokenAddress, string erc20Name, string erc20Symbol);\n\n\t// Event to be broadcasted to public when Advocate of `from` Name/TAO transfer AO\n\t// `from` is a Name/TAO\n\tevent TransferAO(address indexed advocateId, address from, address to, uint256 amount);\n\n\t// Event to be broadcasted to public when Advocate of `from` Name/TAO transfer AO+\n\t// `from` is a Name/TAO\n\tevent TransferPrimordialAO(address indexed advocateId, address from, address to, uint256 amount);\n\n\t/**\n\t * @dev Constructor function\n\t */\n\tconstructor() public {}\n\n\t/**\n\t * @dev Checks if the calling contract address is The AO\n\t *\t\tOR\n\t *\t\tIf The AO is set to a Name/TAO, then check if calling address is the Advocate\n\t */\n\tmodifier onlyTheAO {\n\t\trequire (AOLibrary.isTheAO(msg.sender, theAO, nameTAOPositionAddress));\n\t\t_;\n\t}\n\n\t/**\n\t * @dev Check if `_id` is a Name or a TAO\n\t */\n\tmodifier isNameOrTAO(address _id) {\n\t\trequire (AOLibrary.isName(_id) || AOLibrary.isTAO(_id));\n\t\t_;\n\t}\n\n\t/**\n\t * @dev Check if msg.sender is the current advocate of Name ID\n\t */\n\tmodifier onlyAdvocate(address _id) {\n\t\trequire (_nameTAOPosition.senderIsAdvocate(msg.sender, _id));\n\t\t_;\n\t}\n\n\t/***** THE AO ONLY METHODS *****/\n\t/**\n\t * @dev The AO sets NameFactory address\n\t * @param _nameFactoryAddress The address of NameFactory\n\t */\n\tfunction setNameFactoryAddress(address _nameFactoryAddress) public onlyTheAO {\n\t\trequire (_nameFactoryAddress != address(0));\n\t\t_nameFactory = NameFactory(_nameFactoryAddress);\n\t}\n\n\t/**\n\t * @dev The AO sets NameTAOPosition address\n\t * @param _nameTAOPositionAddress The address of NameTAOPosition\n\t */\n\tfunction setNameTAOPositionAddress(address _nameTAOPositionAddress) public onlyTheAO {\n\t\trequire (_nameTAOPositionAddress != address(0));\n\t\tnameTAOPositionAddress = _nameTAOPositionAddress;\n\t\t_nameTAOPosition = NameTAOPosition(_nameTAOPositionAddress);\n\t}\n\n\t/**\n\t * @dev Transfer ownership of The AO to new address\n\t * @param _theAO The new address to be transferred\n\t */\n\tfunction transferOwnership(address _theAO) public onlyTheAO {\n\t\trequire (_theAO != address(0));\n\t\ttheAO = _theAO;\n\t}\n\n\t/**\n\t * @dev Whitelist `_account` address to transact on behalf of others\n\t * @param _account The address to whitelist\n\t * @param _whitelist Either to whitelist or not\n\t */\n\tfunction setWhitelist(address _account, bool _whitelist) public onlyTheAO {\n\t\trequire (_account != address(0));\n\t\twhitelist[_account] = _whitelist;\n\t}\n\n\t/**\n\t * @dev The AO sets AOToken (base denomination of AO) address\n\t * @param _aoTokenAddress The address of AOToken\n\t */\n\tfunction setAOTokenAddress(address _aoTokenAddress) public onlyTheAO {\n\t\trequire (_aoTokenAddress != address(0));\n\t\t_ao = AOToken(_aoTokenAddress);\n\t}\n\n\t/***** PUBLIC METHODS *****/\n\t/**\n\t * @dev Get Ethereum balance of `_id`\n\t * @param _id The ID to check\n\t * @return The ethereum balance\n\t */\n\tfunction ethBalanceOf(address _id) public isNameOrTAO(_id) view returns (uint256) {\n\t\treturn address(_id).balance;\n\t}\n\n\t/**\n\t * @dev Get ERC20 token balance of `_id`\n\t * @param _erc20TokenAddress The address of the ERC20 Token\n\t * @param _id The ID to check\n\t * @return The ERC20 Token balance\n\t */\n\tfunction erc20BalanceOf(address _erc20TokenAddress, address _id) public isNameOrTAO(_id) view returns (uint256) {\n\t\treturn TokenERC20(_erc20TokenAddress).balanceOf(_id);\n\t}\n\n\t/**\n\t * @dev Get AO balance of `_id`\n\t * @param _id The ID to check\n\t * @return The AO balance\n\t */\n\tfunction AOBalanceOf(address _id) public isNameOrTAO(_id) view returns (uint256) {\n\t\treturn _ao.balanceOf(_id);\n\t}\n\n\t/**\n\t * @dev Get AO+ balance of `_id`\n\t * @param _id The ID to check\n\t * @return The AO+ balance\n\t */\n\tfunction primordialAOBalanceOf(address _id) public isNameOrTAO(_id) view returns (uint256) {\n\t\treturn _ao.primordialBalanceOf(_id);\n\t}\n\n\t/**\n\t * @dev Transfer `_amount` of ETH from `_from` to `_to`\n\t * @param _from The sender address\n\t * @param _to The recipient address\n\t * @param _amount The amount to transfer\n\t */\n\tfunction transferEth(address _from, address _to, uint256 _amount) public isNameOrTAO(_from) onlyAdvocate(_from) {\n\t\trequire (_amount > 0 && address(_from).balance >= _amount);\n\t\trequire (_to != address(0) && _from != _to);\n\t\trequire (TAO(_from).transferEth(_to, _amount));\n\t\temit TransferEth(_nameFactory.ethAddressToNameId(msg.sender), _from, _to, _amount);\n\t}\n\n\t/**\n\t * @dev Transfer `_amount` of ERC20 Token from `_from` to `_to`\n\t * @param _erc20TokenAddress The ERC20 Token Address\n\t * @param _from The sender address\n\t * @param _to The recipient address\n\t * @param _amount The amount to transfer\n\t */\n\tfunction transferERC20(address _erc20TokenAddress, address _from, address _to, uint256 _amount) public isNameOrTAO(_from) onlyAdvocate(_from) {\n\t\trequire (_erc20TokenAddress != address(0));\n\t\tTokenERC20 _erc20 = TokenERC20(_erc20TokenAddress);\n\t\t// Make sure it's a valid ERC20 Token Address\n\t\trequire (_erc20.totalSupply() > 0);\n\t\trequire (_amount > 0 && _erc20.balanceOf(_from) >= _amount);\n\t\trequire (_to != address(0) && _from != _to);\n\t\trequire (TAO(_from).transferERC20(_erc20TokenAddress, _to, _amount));\n\t\temit TransferERC20(_nameFactory.ethAddressToNameId(msg.sender), _from, _to, _amount, _erc20TokenAddress, _erc20.name(), _erc20.symbol());\n\t}\n\n\t/**\n\t * @dev Transfer `_amount` of AO from `_from` to `_to`\n\t * @param _from The sender address\n\t * @param _to The recipient address\n\t * @param _amount The amount to transfer\n\t */\n\tfunction transferAO(address _from, address _to, uint256 _amount) public isNameOrTAO(_from) onlyAdvocate(_from) {\n\t\trequire (_amount > 0 && _ao.balanceOf(_from) >= _amount);\n\t\trequire (_to != address(0) && _from != _to);\n\t\trequire (_ao.whitelistTransferFrom(_from, _to, _amount));\n\t\temit TransferAO(_nameFactory.ethAddressToNameId(msg.sender), _from, _to, _amount);\n\t}\n\n\t/**\n\t * @dev Transfer `_amount` of AO+ (Primordial) from `_from` to `_to`\n\t * @param _from The sender address\n\t * @param _to The recipient address\n\t * @param _amount The amount to transfer\n\t */\n\tfunction transferPrimordialAO(address _from, address _to, uint256 _amount) public isNameOrTAO(_from) onlyAdvocate(_from) {\n\t\trequire (_amount > 0 && _ao.primordialBalanceOf(_from) >= _amount);\n\t\trequire (_to != address(0) && _from != _to);\n\t\trequire (_ao.whitelistTransferPrimordialTokenFrom(_from, _to, _amount));\n\t\temit TransferPrimordialAO(_nameFactory.ethAddressToNameId(msg.sender), _from, _to, _amount);\n\t}\n}\n",
	"sourcePath": "/Users/johanmulyono/Work/AO/ao-contracts/contracts/NameTAOVault.sol",
	"compiler": {
		"name": "solc",
		"version": "0.4.24+commit.e67f0147.Emscripten.clang"
	},
	"schemaVersion": "2.0.1",
	"updatedAt": "2019-01-07T03:04:13.059Z"
}