{
  "contractName": "NamePublicKey",
  "abi": [
    {
      "constant": true,
      "inputs": [],
      "name": "nameTAOPositionAddress",
      "outputs": [
        {
          "name": "",
          "type": "address"
        }
      ],
      "payable": false,
      "stateMutability": "view",
      "type": "function"
    },
    {
      "constant": true,
      "inputs": [
        {
          "name": "",
          "type": "address"
        }
      ],
      "name": "whitelist",
      "outputs": [
        {
          "name": "",
          "type": "bool"
        }
      ],
      "payable": false,
      "stateMutability": "view",
      "type": "function"
    },
    {
      "constant": true,
      "inputs": [],
      "name": "nameAccountRecoveryAddress",
      "outputs": [
        {
          "name": "",
          "type": "address"
        }
      ],
      "payable": false,
      "stateMutability": "view",
      "type": "function"
    },
    {
      "constant": true,
      "inputs": [],
      "name": "theAO",
      "outputs": [
        {
          "name": "",
          "type": "address"
        }
      ],
      "payable": false,
      "stateMutability": "view",
      "type": "function"
    },
    {
      "constant": true,
      "inputs": [],
      "name": "nameFactoryAddress",
      "outputs": [
        {
          "name": "",
          "type": "address"
        }
      ],
      "payable": false,
      "stateMutability": "view",
      "type": "function"
    },
    {
      "inputs": [
        {
          "name": "_nameFactoryAddress",
          "type": "address"
        },
        {
          "name": "_nameTAOPositionAddress",
          "type": "address"
        }
      ],
      "payable": false,
      "stateMutability": "nonpayable",
      "type": "constructor"
    },
    {
      "anonymous": false,
      "inputs": [
        {
          "indexed": true,
          "name": "nameId",
          "type": "address"
        },
        {
          "indexed": false,
          "name": "publicKey",
          "type": "address"
        },
        {
          "indexed": false,
          "name": "nonce",
          "type": "uint256"
        }
      ],
      "name": "AddKey",
      "type": "event"
    },
    {
      "anonymous": false,
      "inputs": [
        {
          "indexed": true,
          "name": "nameId",
          "type": "address"
        },
        {
          "indexed": false,
          "name": "publicKey",
          "type": "address"
        },
        {
          "indexed": false,
          "name": "nonce",
          "type": "uint256"
        }
      ],
      "name": "RemoveKey",
      "type": "event"
    },
    {
      "anonymous": false,
      "inputs": [
        {
          "indexed": true,
          "name": "nameId",
          "type": "address"
        },
        {
          "indexed": false,
          "name": "publicKey",
          "type": "address"
        },
        {
          "indexed": false,
          "name": "nonce",
          "type": "uint256"
        }
      ],
      "name": "SetDefaultKey",
      "type": "event"
    },
    {
      "constant": false,
      "inputs": [
        {
          "name": "_theAO",
          "type": "address"
        }
      ],
      "name": "transferOwnership",
      "outputs": [],
      "payable": false,
      "stateMutability": "nonpayable",
      "type": "function"
    },
    {
      "constant": false,
      "inputs": [
        {
          "name": "_account",
          "type": "address"
        },
        {
          "name": "_whitelist",
          "type": "bool"
        }
      ],
      "name": "setWhitelist",
      "outputs": [],
      "payable": false,
      "stateMutability": "nonpayable",
      "type": "function"
    },
    {
      "constant": false,
      "inputs": [
        {
          "name": "_nameFactoryAddress",
          "type": "address"
        }
      ],
      "name": "setNameFactoryAddress",
      "outputs": [],
      "payable": false,
      "stateMutability": "nonpayable",
      "type": "function"
    },
    {
      "constant": false,
      "inputs": [
        {
          "name": "_nameTAOPositionAddress",
          "type": "address"
        }
      ],
      "name": "setNameTAOPositionAddress",
      "outputs": [],
      "payable": false,
      "stateMutability": "nonpayable",
      "type": "function"
    },
    {
      "constant": false,
      "inputs": [
        {
          "name": "_nameAccountRecoveryAddress",
          "type": "address"
        }
      ],
      "name": "setNameAccountRecoveryAddress",
      "outputs": [],
      "payable": false,
      "stateMutability": "nonpayable",
      "type": "function"
    },
    {
      "constant": false,
      "inputs": [
        {
          "name": "_id",
          "type": "address"
        },
        {
          "name": "_key",
          "type": "address"
        }
      ],
      "name": "whitelistAddKey",
      "outputs": [
        {
          "name": "",
          "type": "bool"
        }
      ],
      "payable": false,
      "stateMutability": "nonpayable",
      "type": "function"
    },
    {
      "constant": true,
      "inputs": [
        {
          "name": "_id",
          "type": "address"
        }
      ],
      "name": "isExist",
      "outputs": [
        {
          "name": "",
          "type": "bool"
        }
      ],
      "payable": false,
      "stateMutability": "view",
      "type": "function"
    },
    {
      "constant": false,
      "inputs": [
        {
          "name": "_id",
          "type": "address"
        },
        {
          "name": "_defaultKey",
          "type": "address"
        }
      ],
      "name": "initialize",
      "outputs": [
        {
          "name": "",
          "type": "bool"
        }
      ],
      "payable": false,
      "stateMutability": "nonpayable",
      "type": "function"
    },
    {
      "constant": true,
      "inputs": [
        {
          "name": "_id",
          "type": "address"
        }
      ],
      "name": "getTotalPublicKeysCount",
      "outputs": [
        {
          "name": "",
          "type": "uint256"
        }
      ],
      "payable": false,
      "stateMutability": "view",
      "type": "function"
    },
    {
      "constant": true,
      "inputs": [
        {
          "name": "_id",
          "type": "address"
        },
        {
          "name": "_key",
          "type": "address"
        }
      ],
      "name": "isKeyExist",
      "outputs": [
        {
          "name": "",
          "type": "bool"
        }
      ],
      "payable": false,
      "stateMutability": "view",
      "type": "function"
    },
    {
      "constant": false,
      "inputs": [
        {
          "name": "_id",
          "type": "address"
        },
        {
          "name": "_key",
          "type": "address"
        },
        {
          "name": "_nonce",
          "type": "uint256"
        },
        {
          "name": "_signatureV",
          "type": "uint8"
        },
        {
          "name": "_signatureR",
          "type": "bytes32"
        },
        {
          "name": "_signatureS",
          "type": "bytes32"
        }
      ],
      "name": "addKey",
      "outputs": [],
      "payable": false,
      "stateMutability": "nonpayable",
      "type": "function"
    },
    {
      "constant": true,
      "inputs": [
        {
          "name": "_id",
          "type": "address"
        }
      ],
      "name": "getDefaultKey",
      "outputs": [
        {
          "name": "",
          "type": "address"
        }
      ],
      "payable": false,
      "stateMutability": "view",
      "type": "function"
    },
    {
      "constant": true,
      "inputs": [
        {
          "name": "_id",
          "type": "address"
        },
        {
          "name": "_from",
          "type": "uint256"
        },
        {
          "name": "_to",
          "type": "uint256"
        }
      ],
      "name": "getKeys",
      "outputs": [
        {
          "name": "",
          "type": "address[]"
        }
      ],
      "payable": false,
      "stateMutability": "view",
      "type": "function"
    },
    {
      "constant": false,
      "inputs": [
        {
          "name": "_id",
          "type": "address"
        },
        {
          "name": "_key",
          "type": "address"
        }
      ],
      "name": "removeKey",
      "outputs": [],
      "payable": false,
      "stateMutability": "nonpayable",
      "type": "function"
    },
    {
      "constant": false,
      "inputs": [
        {
          "name": "_id",
          "type": "address"
        },
        {
          "name": "_defaultKey",
          "type": "address"
        },
        {
          "name": "_signatureV",
          "type": "uint8"
        },
        {
          "name": "_signatureR",
          "type": "bytes32"
        },
        {
          "name": "_signatureS",
          "type": "bytes32"
        }
      ],
      "name": "setDefaultKey",
      "outputs": [],
      "payable": false,
      "stateMutability": "nonpayable",
      "type": "function"
    }
  ],
  "bytecode": "0x60806040523480156200001157600080fd5b5060405160408062002512833981018060405260408110156200003357600080fd5b50805160209091015160008054600160a060020a0319163317905562000062826401000000006200007e810204565b620000768164010000000062000183810204565b505062000288565b600054600154604080517ff66afcac000000000000000000000000000000000000000000000000000000008152336004820152600160a060020a0393841660248201529290911660448301525173__AOLibrary_____________________________9163f66afcac916064808301926020929190829003018186803b1580156200010757600080fd5b505af41580156200011c573d6000803e3d6000fd5b505050506040513d60208110156200013357600080fd5b505115156200014157600080fd5b600160a060020a03811615156200015757600080fd5b60038054600160a060020a03909216600160a060020a0319928316811790915560058054909216179055565b600054600154604080517ff66afcac000000000000000000000000000000000000000000000000000000008152336004820152600160a060020a0393841660248201529290911660448301525173__AOLibrary_____________________________9163f66afcac916064808301926020929190829003018186803b1580156200020c57600080fd5b505af415801562000221573d6000803e3d6000fd5b505050506040513d60208110156200023857600080fd5b505115156200024657600080fd5b600160a060020a03811615156200025c57600080fd5b60018054600160a060020a03909216600160a060020a0319928316811790915560068054909216179055565b61227a80620002986000396000f3fe608060405234801561001057600080fd5b506004361061012f5760003560e060020a900480639b19251a116100b1578063c59c114411610075578063c59c1144146103b6578063d6846782146103fb578063db536d2f14610446578063f0f2fd041461046c578063f2fde38b1461049a5761012f565b80639b19251a1461034a578063a481247c14610370578063a4e5fad21461039e578063a9b6b38e146103a6578063bc406206146103ae5761012f565b806353d6fd59116100f857806353d6fd591461026a5780635cfaf2ef14610298578063722e1677146102be5780638ab3e33f146102f65780638c924361146103245761012f565b806213eb4b14610134578063181a916b1461016e5780631dfde2bd146101f0578063485cc955146102185780634ef033f014610246575b600080fd5b61015a6004803603602081101561014a57600080fd5b5035600160a060020a03166104c0565b604080519115158252519081900360200190f35b6101a06004803603606081101561018457600080fd5b50600160a060020a0381351690602081013590604001356104de565b60408051602080825283518183015283519192839290830191858101910280838360005b838110156101dc5781810151838201526020016101c4565b505050509050019250505060405180910390f35b6102166004803603602081101561020657600080fd5b5035600160a060020a0316610750565b005b61015a6004803603604081101561022e57600080fd5b50600160a060020a038135811691602001351661083d565b61024e610993565b60408051600160a060020a039092168252519081900360200190f35b6102166004803603604081101561028057600080fd5b50600160a060020a03813516906020013515156109a2565b610216600480360360208110156102ae57600080fd5b5035600160a060020a0316610a8b565b6102e4600480360360208110156102d457600080fd5b5035600160a060020a0316610b75565b60408051918252519081900360200190f35b6102166004803603604081101561030c57600080fd5b50600160a060020a0381358116916020013516610c47565b6102166004803603602081101561033a57600080fd5b5035600160a060020a031661117e565b61015a6004803603602081101561036057600080fd5b5035600160a060020a0316611268565b61015a6004803603604081101561038657600080fd5b50600160a060020a038135811691602001351661127d565b61024e61144b565b61024e61145a565b61024e611469565b610216600480360360a08110156103cc57600080fd5b50600160a060020a03813581169160208101359091169060ff6040820135169060608101359060800135611478565b610216600480360360c081101561041157600080fd5b50600160a060020a03813581169160208101359091169060408101359060ff6060820135169060808101359060a00135611975565b61024e6004803603602081101561045c57600080fd5b5035600160a060020a0316611d5e565b61015a6004803603604081101561048257600080fd5b50600160a060020a0381358116916020013516611e35565b610216600480360360208110156104b057600080fd5b5035600160a060020a0316611f08565b600160a060020a031660009081526008602052604090205460ff1690565b60608373__AOLibrary_____________________________632d706a34826040518263ffffffff1660e060020a0281526004018082600160a060020a0316600160a060020a0316815260200191505060206040518083038186803b15801561054557600080fd5b505af4158015610559573d6000803e3d6000fd5b505050506040513d602081101561056f57600080fd5b5051151561057c57600080fd5b610585856104c0565b151561059057600080fd5b600084101580156105a15750838310155b15156105ac57600080fd5b6105b46121e5565b600160a060020a038087166000908152600860209081526040918290208251606081018452815460ff8116151582526101009004909416848301526001810180548451818502810185018652818152929486019383018282801561064157602002820191906000526020600020905b8154600160a060020a03168152600190910190602001808311610623575b5050505050815250509050600081604001515111151561066057600080fd5b60408101515161067790600163ffffffff611fe816565b8411156106985760408101515161069590600163ffffffff611fe816565b93505b60606106bb60016106af878963ffffffff611fe816565b9063ffffffff611ffa16565b6040519080825280602002602001820160405280156106e4578160200160208202803883390190505b509050855b85811161074557604083015180518290811061070157fe5b602090810290910101518261071c838a63ffffffff611fe816565b8151811061072657fe5b600160a060020a039092166020928302909101909101526001016106e9565b509695505050505050565b6000546001546040805160e260020a633d9abf2b028152336004820152600160a060020a0393841660248201529290911660448301525173__AOLibrary_____________________________9163f66afcac916064808301926020929190829003018186803b1580156107c257600080fd5b505af41580156107d6573d6000803e3d6000fd5b505050506040513d60208110156107ec57600080fd5b505115156107f957600080fd5b600160a060020a038116151561080e57600080fd5b60048054600160a060020a0319908116600160a060020a03938416179182905560078054929093169116179055565b60008273__AOLibrary_____________________________632d706a34826040518263ffffffff1660e060020a0281526004018082600160a060020a0316600160a060020a0316815260200191505060206040518083038186803b1580156108a457600080fd5b505af41580156108b8573d6000803e3d6000fd5b505050506040513d60208110156108ce57600080fd5b505115156108db57600080fd5b600354600160a060020a031633146108f257600080fd5b6108fb846104c0565b1561090557600080fd5b600160a060020a038316151561091a57600080fd5b600160a060020a03848116600090815260086020908152604082208054600160ff19909116811774ffffffffffffffffffffffffffffffffffffffff0019166101009589169586021782559081018054808301825590845291909220018054600160a060020a03191690921790915591505b5092915050565b600154600160a060020a031681565b6000546001546040805160e260020a633d9abf2b028152336004820152600160a060020a0393841660248201529290911660448301525173__AOLibrary_____________________________9163f66afcac916064808301926020929190829003018186803b158015610a1457600080fd5b505af4158015610a28573d6000803e3d6000fd5b505050506040513d6020811015610a3e57600080fd5b50511515610a4b57600080fd5b600160a060020a0382161515610a6057600080fd5b600160a060020a03919091166000908152600260205260409020805460ff1916911515919091179055565b6000546001546040805160e260020a633d9abf2b028152336004820152600160a060020a0393841660248201529290911660448301525173__AOLibrary_____________________________9163f66afcac916064808301926020929190829003018186803b158015610afd57600080fd5b505af4158015610b11573d6000803e3d6000fd5b505050506040513d6020811015610b2757600080fd5b50511515610b3457600080fd5b600160a060020a0381161515610b4957600080fd5b60018054600160a060020a03909216600160a060020a0319928316811790915560068054909216179055565b60008173__AOLibrary_____________________________632d706a34826040518263ffffffff1660e060020a0281526004018082600160a060020a0316600160a060020a0316815260200191505060206040518083038186803b158015610bdc57600080fd5b505af4158015610bf0573d6000803e3d6000fd5b505050506040513d6020811015610c0657600080fd5b50511515610c1357600080fd5b610c1c836104c0565b1515610c2757600080fd5b5050600160a060020a031660009081526008602052604090206001015490565b8173__AOLibrary_____________________________632d706a34826040518263ffffffff1660e060020a0281526004018082600160a060020a0316600160a060020a0316815260200191505060206040518083038186803b158015610cac57600080fd5b505af4158015610cc0573d6000803e3d6000fd5b505050506040513d6020811015610cd657600080fd5b50511515610ce357600080fd5b600654604080517f71ce52ed000000000000000000000000000000000000000000000000000000008152336004820152600160a060020a0380871660248301529151869392909216916371ce52ed91604480820192602092909190829003018186803b158015610d5257600080fd5b505afa158015610d66573d6000803e3d6000fd5b505050506040513d6020811015610d7c57600080fd5b50511515610d8957600080fd5b600754600554604080517f029b7d530000000000000000000000000000000000000000000000000000000081523360048201529051600160a060020a0393841693633ebc2ab393169163029b7d53916024808301926020929190829003018186803b158015610df757600080fd5b505afa158015610e0b573d6000803e3d6000fd5b505050506040513d6020811015610e2157600080fd5b50516040805160e060020a63ffffffff8516028152600160a060020a039092166004830152516024808301926020929190829003018186803b158015610e6657600080fd5b505afa158015610e7a573d6000803e3d6000fd5b505050506040513d6020811015610e9057600080fd5b505115610e9c57600080fd5b610ea5846104c0565b1515610eb057600080fd5b604080517fa481247c000000000000000000000000000000000000000000000000000000008152600160a060020a038681166004830152851660248201529051309163a481247c916044808301926020929190829003018186803b158015610f1757600080fd5b505afa158015610f2b573d6000803e3d6000fd5b505050506040513d6020811015610f4157600080fd5b50511515610f4e57600080fd5b600160a060020a03808516600090815260086020526040902080549091858116610100909204161415610f8057600080fd5b60018181015411610f9057600080fd5b6000805b6001830154811015610fe65785600160a060020a03168360010182815481101515610fbb57fe5b600091825260209091200154600160a060020a03161415610fde57809150610fe6565b600101610f94565b50805b600183810154610ffe9163ffffffff611fe816565b81101561107257826001018160010181548110151561101957fe5b600091825260209091200154600184018054600160a060020a03909216918390811061104157fe5b60009182526020909120018054600160a060020a031916600160a060020a0392909216919091179055600101610fe9565b5060018201805490611088906000198301612204565b50600554604080517ff5743c4c000000000000000000000000000000000000000000000000000000008152600160a060020a0389811660048301529151600093929092169163f5743c4c9160248082019260209290919082900301818787803b1580156110f457600080fd5b505af1158015611108573d6000803e3d6000fd5b505050506040513d602081101561111e57600080fd5b505190506000811161112f57600080fd5b60408051600160a060020a038881168252602082018490528251908a16927faec0509ffc1f2fe28ada93894c552d532d94e3c32821ce0939b2064d95686642928290030190a250505050505050565b6000546001546040805160e260020a633d9abf2b028152336004820152600160a060020a0393841660248201529290911660448301525173__AOLibrary_____________________________9163f66afcac916064808301926020929190829003018186803b1580156111f057600080fd5b505af4158015611204573d6000803e3d6000fd5b505050506040513d602081101561121a57600080fd5b5051151561122757600080fd5b600160a060020a038116151561123c57600080fd5b60038054600160a060020a03909216600160a060020a0319928316811790915560058054909216179055565b60026020526000908152604090205460ff1681565b60008273__AOLibrary_____________________________632d706a34826040518263ffffffff1660e060020a0281526004018082600160a060020a0316600160a060020a0316815260200191505060206040518083038186803b1580156112e457600080fd5b505af41580156112f8573d6000803e3d6000fd5b505050506040513d602081101561130e57600080fd5b5051151561131b57600080fd5b611324846104c0565b151561132f57600080fd5b600160a060020a038316151561134457600080fd5b61134c6121e5565b600160a060020a038086166000908152600860209081526040918290208251606081018452815460ff811615158252610100900490941684830152600181018054845181850281018501865281815292948601938301828280156113d957602002820191906000526020600020905b8154600160a060020a031681526001909101906020018083116113bb575b505050505081525050905060008090505b81604001515181101561143f5784600160a060020a031682604001518281518110151561141357fe5b90602001906020020151600160a060020a031614156114375760019350505061098c565b6001016113ea565b50600095945050505050565b600454600160a060020a031681565b600054600160a060020a031681565b600354600160a060020a031681565b8473__AOLibrary_____________________________632d706a34826040518263ffffffff1660e060020a0281526004018082600160a060020a0316600160a060020a0316815260200191505060206040518083038186803b1580156114dd57600080fd5b505af41580156114f1573d6000803e3d6000fd5b505050506040513d602081101561150757600080fd5b5051151561151457600080fd5b600654604080517f71ce52ed000000000000000000000000000000000000000000000000000000008152336004820152600160a060020a03808a1660248301529151899392909216916371ce52ed91604480820192602092909190829003018186803b15801561158357600080fd5b505afa158015611597573d6000803e3d6000fd5b505050506040513d60208110156115ad57600080fd5b505115156115ba57600080fd5b600754600554604080517f029b7d530000000000000000000000000000000000000000000000000000000081523360048201529051600160a060020a0393841693633ebc2ab393169163029b7d53916024808301926020929190829003018186803b15801561162857600080fd5b505afa15801561163c573d6000803e3d6000fd5b505050506040513d602081101561165257600080fd5b50516040805160e060020a63ffffffff8516028152600160a060020a039092166004830152516024808301926020929190829003018186803b15801561169757600080fd5b505afa1580156116ab573d6000803e3d6000fd5b505050506040513d60208110156116c157600080fd5b5051156116cd57600080fd5b6116d6876104c0565b15156116e157600080fd5b604080517fa481247c000000000000000000000000000000000000000000000000000000008152600160a060020a038981166004830152881660248201529051309163a481247c916044808301926020929190829003018186803b15801561174857600080fd5b505afa15801561175c573d6000803e3d6000fd5b505050506040513d602081101561177257600080fd5b5051151561177f57600080fd5b604080516c01000000000000000000000000308102602080840191909152600160a060020a03808c16830260348501528a1690910260488301528251603c818403018152605c83018085528151918301919091206000909152607c830180855281905260ff8916609c84015260bc830188905260dc83018790529251339260019260fc808301939192601f198301929081900390910190855afa15801561182a573d6000803e3d6000fd5b50505060206040510351600160a060020a031614151561184957600080fd5b600160a060020a038881166000818152600860209081526040808320805474ffffffffffffffffffffffffffffffffffffffff0019166101008e88160217815560055482517ff5743c4c0000000000000000000000000000000000000000000000000000000081526004810196909652915190959394919093169263f5743c4c9260248084019391929182900301818787803b1580156118e857600080fd5b505af11580156118fc573d6000803e3d6000fd5b505050506040513d602081101561191257600080fd5b505190506000811161192357600080fd5b60408051600160a060020a038b81168252602082018490528251908d16927fd77f210e9f1b29555f577c8e8794a9470fa9198f423fc077f55168838ba679a9928290030190a250505050505050505050565b8573__AOLibrary_____________________________632d706a34826040518263ffffffff1660e060020a0281526004018082600160a060020a0316600160a060020a0316815260200191505060206040518083038186803b1580156119da57600080fd5b505af41580156119ee573d6000803e3d6000fd5b505050506040513d6020811015611a0457600080fd5b50511515611a1157600080fd5b600654604080517f71ce52ed000000000000000000000000000000000000000000000000000000008152336004820152600160a060020a03808b16602483015291518a9392909216916371ce52ed91604480820192602092909190829003018186803b158015611a8057600080fd5b505afa158015611a94573d6000803e3d6000fd5b505050506040513d6020811015611aaa57600080fd5b50511515611ab757600080fd5b600754600554604080517f029b7d530000000000000000000000000000000000000000000000000000000081523360048201529051600160a060020a0393841693633ebc2ab393169163029b7d53916024808301926020929190829003018186803b158015611b2557600080fd5b505afa158015611b39573d6000803e3d6000fd5b505050506040513d6020811015611b4f57600080fd5b50516040805160e060020a63ffffffff8516028152600160a060020a039092166004830152516024808301926020929190829003018186803b158015611b9457600080fd5b505afa158015611ba8573d6000803e3d6000fd5b505050506040513d6020811015611bbe57600080fd5b505115611bca57600080fd5b600554604080517f7ecebe00000000000000000000000000000000000000000000000000000000008152600160a060020a038b811660048301529151611c6c936001931691637ecebe00916024808301926020929190829003018186803b158015611c3457600080fd5b505afa158015611c48573d6000803e3d6000fd5b505050506040513d6020811015611c5e57600080fd5b50519063ffffffff611ffa16565b8614611c7757600080fd5b604080516c01000000000000000000000000308102602080840191909152600160a060020a03808d16830260348501528b169182026048840152605c8084018b905284518085039091018152607c84018086528151918301919091206000909152609c840180865281905260ff8a1660bc85015260dc840189905260fc84018890529351919260019261011c8083019392601f198301929081900390910190855afa158015611d2a573d6000803e3d6000fd5b50505060206040510351600160a060020a0316141515611d4957600080fd5b611d53898961200d565b505050505050505050565b60008173__AOLibrary_____________________________632d706a34826040518263ffffffff1660e060020a0281526004018082600160a060020a0316600160a060020a0316815260200191505060206040518083038186803b158015611dc557600080fd5b505af4158015611dd9573d6000803e3d6000fd5b505050506040513d6020811015611def57600080fd5b50511515611dfc57600080fd5b611e05836104c0565b1515611e1057600080fd5b5050600160a060020a0390811660009081526008602052604090205461010090041690565b60008273__AOLibrary_____________________________632d706a34826040518263ffffffff1660e060020a0281526004018082600160a060020a0316600160a060020a0316815260200191505060206040518083038186803b158015611e9c57600080fd5b505af4158015611eb0573d6000803e3d6000fd5b505050506040513d6020811015611ec657600080fd5b50511515611ed357600080fd5b3360009081526002602052604090205460ff161515600114611ef457600080fd5b611efe848461200d565b5060019392505050565b6000546001546040805160e260020a633d9abf2b028152336004820152600160a060020a0393841660248201529290911660448301525173__AOLibrary_____________________________9163f66afcac916064808301926020929190829003018186803b158015611f7a57600080fd5b505af4158015611f8e573d6000803e3d6000fd5b505050506040513d6020811015611fa457600080fd5b50511515611fb157600080fd5b600160a060020a0381161515611fc657600080fd5b60008054600160a060020a031916600160a060020a0392909216919091179055565b600082821115611ff457fe5b50900390565b8181018281101561200757fe5b92915050565b604080517fa481247c000000000000000000000000000000000000000000000000000000008152600160a060020a038481166004830152831660248201529051309163a481247c916044808301926020929190829003018186803b15801561207457600080fd5b505afa158015612088573d6000803e3d6000fd5b505050506040513d602081101561209e57600080fd5b5051156120aa57600080fd5b600160a060020a03811615156120bf57600080fd5b600160a060020a0382811660008181526008602090815260408083206001808201805491820181558552838520018054600160a060020a03191688881617905560055482517ff5743c4c0000000000000000000000000000000000000000000000000000000081526004810196909652915190959394919093169263f5743c4c9260248084019391929182900301818787803b15801561215e57600080fd5b505af1158015612172573d6000803e3d6000fd5b505050506040513d602081101561218857600080fd5b505190506000811161219957600080fd5b60408051600160a060020a038581168252602082018490528251908716927f4487b0a9ffea124fa087f0b52b2e9ce94d4cc7863686b6d07b61569b2652b153928290030190a250505050565b6040805160608181018352600080835260208301529181019190915290565b8154818355818111156122285760008381526020902061222891810190830161222d565b505050565b61224b91905b808211156122475760008155600101612233565b5090565b9056fea165627a7a7230582009672d106a54564886bc8f389bc8bd825404580b5ba591d934faf94fffcc2c6f0029",
  "source": "pragma solidity ^0.5.4;\n\nimport './SafeMath.sol';\nimport './AOLibrary.sol';\nimport './TheAO.sol';\nimport './INamePublicKey.sol';\nimport './INameFactory.sol';\nimport './INameTAOPosition.sol';\nimport './INameAccountRecovery.sol';\n\n/**\n * @title NamePublicKey\n */\ncontract NamePublicKey is TheAO, INamePublicKey {\n\tusing SafeMath for uint256;\n\n\taddress public nameFactoryAddress;\n\taddress public nameAccountRecoveryAddress;\n\n\tINameFactory internal _nameFactory;\n\tINameTAOPosition internal _nameTAOPosition;\n\tINameAccountRecovery internal _nameAccountRecovery;\n\n\tstruct PublicKey {\n\t\tbool created;\n\t\taddress defaultKey;\n\t\taddress[] keys;\n\t}\n\n\t// Mapping from nameId to its PublicKey\n\tmapping (address => PublicKey) internal publicKeys;\n\n\t// Event to be broadcasted to public when a publicKey is added to a Name\n\tevent AddKey(address indexed nameId, address publicKey, uint256 nonce);\n\n\t// Event to be broadcasted to public when a publicKey is removed from a Name\n\tevent RemoveKey(address indexed nameId, address publicKey, uint256 nonce);\n\n\t// Event to be broadcasted to public when a publicKey is set as default for a Name\n\tevent SetDefaultKey(address indexed nameId, address publicKey, uint256 nonce);\n\n\t/**\n\t * @dev Constructor function\n\t */\n\tconstructor(address _nameFactoryAddress, address _nameTAOPositionAddress) public {\n\t\tsetNameFactoryAddress(_nameFactoryAddress);\n\t\tsetNameTAOPositionAddress(_nameTAOPositionAddress);\n\t}\n\n\t/**\n\t * @dev Checks if the calling contract address is The AO\n\t *\t\tOR\n\t *\t\tIf The AO is set to a Name/TAO, then check if calling address is the Advocate\n\t */\n\tmodifier onlyTheAO {\n\t\trequire (AOLibrary.isTheAO(msg.sender, theAO, nameTAOPositionAddress));\n\t\t_;\n\t}\n\n\t/**\n\t * @dev Check if calling address is Factory\n\t */\n\tmodifier onlyFactory {\n\t\trequire (msg.sender == nameFactoryAddress);\n\t\t_;\n\t}\n\n\t/**\n\t * @dev Check if `_nameId` is a Name\n\t */\n\tmodifier isName(address _nameId) {\n\t\trequire (AOLibrary.isName(_nameId));\n\t\t_;\n\t}\n\n\t/**\n\t * @dev Check if msg.sender is the current advocate of Name ID\n\t */\n\tmodifier onlyAdvocate(address _id) {\n\t\trequire (_nameTAOPosition.senderIsAdvocate(msg.sender, _id));\n\t\t_;\n\t}\n\n\t/**\n\t * @dev Only allowed if sender's Name is not compromised\n\t */\n\tmodifier senderNameNotCompromised() {\n\t\trequire (!_nameAccountRecovery.isCompromised(_nameFactory.ethAddressToNameId(msg.sender)));\n\t\t_;\n\t}\n\n\t/***** The AO ONLY METHODS *****/\n\t/**\n\t * @dev Transfer ownership of The AO to new address\n\t * @param _theAO The new address to be transferred\n\t */\n\tfunction transferOwnership(address _theAO) public onlyTheAO {\n\t\trequire (_theAO != address(0));\n\t\ttheAO = _theAO;\n\t}\n\n\t/**\n\t * @dev Whitelist `_account` address to transact on behalf of others\n\t * @param _account The address to whitelist\n\t * @param _whitelist Either to whitelist or not\n\t */\n\tfunction setWhitelist(address _account, bool _whitelist) public onlyTheAO {\n\t\trequire (_account != address(0));\n\t\twhitelist[_account] = _whitelist;\n\t}\n\n\t/**\n\t * @dev The AO sets NameFactory address\n\t * @param _nameFactoryAddress The address of NameFactory\n\t */\n\tfunction setNameFactoryAddress(address _nameFactoryAddress) public onlyTheAO {\n\t\trequire (_nameFactoryAddress != address(0));\n\t\tnameFactoryAddress = _nameFactoryAddress;\n\t\t_nameFactory = INameFactory(_nameFactoryAddress);\n\t}\n\n\t/**\n\t * @dev The AO sets NameTAOPosition address\n\t * @param _nameTAOPositionAddress The address of NameTAOPosition\n\t */\n\tfunction setNameTAOPositionAddress(address _nameTAOPositionAddress) public onlyTheAO {\n\t\trequire (_nameTAOPositionAddress != address(0));\n\t\tnameTAOPositionAddress = _nameTAOPositionAddress;\n\t\t_nameTAOPosition = INameTAOPosition(_nameTAOPositionAddress);\n\t}\n\n\t/**\n\t * @dev The AO set the NameAccountRecovery Address\n\t * @param _nameAccountRecoveryAddress The address of NameAccountRecovery\n\t */\n\tfunction setNameAccountRecoveryAddress(address _nameAccountRecoveryAddress) public onlyTheAO {\n\t\trequire (_nameAccountRecoveryAddress != address(0));\n\t\tnameAccountRecoveryAddress = _nameAccountRecoveryAddress;\n\t\t_nameAccountRecovery = INameAccountRecovery(nameAccountRecoveryAddress);\n\t}\n\n\t/**\n\t * @dev Whitelisted address add publicKey to list for a Name\n\t * @param _id The ID of the Name\n\t * @param _key The publicKey to be added\n\t * @return true on success\n\t */\n\tfunction whitelistAddKey(address _id, address _key) external isName(_id) inWhitelist returns (bool) {\n\t\t_addKey(_id, _key);\n\t\treturn true;\n\t}\n\n\t/***** PUBLIC METHODS *****/\n\t/**\n\t * @dev Check whether or not a Name ID exist in the list of Public Keys\n\t * @param _id The ID to be checked\n\t * @return true if yes, false otherwise\n\t */\n\tfunction isExist(address _id) public view returns (bool) {\n\t\treturn publicKeys[_id].created;\n\t}\n\n\t/**\n\t * @dev Store the PublicKey info for a Name\n\t * @param _id The ID of the Name\n\t * @param _defaultKey The default public key for this Name\n\t * @return true on success\n\t */\n\tfunction initialize(address _id, address _defaultKey)\n\t\texternal\n\t\tisName(_id)\n\t\tonlyFactory returns (bool) {\n\t\trequire (!isExist(_id));\n\t\trequire (_defaultKey != address(0));\n\n\t\tPublicKey storage _publicKey = publicKeys[_id];\n\t\t_publicKey.created = true;\n\t\t_publicKey.defaultKey = _defaultKey;\n\t\t_publicKey.keys.push(_defaultKey);\n\t\treturn true;\n\t}\n\n\t/**\n\t * @dev Get total publicKeys count for a Name\n\t * @param _id The ID of the Name\n\t * @return total publicKeys count\n\t */\n\tfunction getTotalPublicKeysCount(address _id) public isName(_id) view returns (uint256) {\n\t\trequire (isExist(_id));\n\t\treturn publicKeys[_id].keys.length;\n\t}\n\n\t/**\n\t * @dev Check whether or not a publicKey exist in the list for a Name\n\t * @param _id The ID of the Name\n\t * @param _key The publicKey to check\n\t * @return true if yes. false otherwise\n\t */\n\tfunction isKeyExist(address _id, address _key) isName(_id) external view returns (bool) {\n\t\trequire (isExist(_id));\n\t\trequire (_key != address(0));\n\n\t\tPublicKey memory _publicKey = publicKeys[_id];\n\t\tfor (uint256 i = 0; i < _publicKey.keys.length; i++) {\n\t\t\tif (_publicKey.keys[i] == _key) {\n\t\t\t\treturn true;\n\t\t\t}\n\t\t}\n\t\treturn false;\n\t}\n\n\t/**\n\t * @dev Add publicKey to list for a Name\n\t * @param _id The ID of the Name\n\t * @param _key The publicKey to be added\n\t * @param _nonce The signed uint256 nonce (should be Name's current nonce + 1)\n\t * @param _signatureV The V part of the signature\n\t * @param _signatureR The R part of the signature\n\t * @param _signatureS The S part of the signature\n\t */\n\tfunction addKey(address _id,\n\t\taddress _key,\n\t\tuint256 _nonce,\n\t\tuint8 _signatureV,\n\t\tbytes32 _signatureR,\n\t\tbytes32 _signatureS\n\t) public isName(_id) onlyAdvocate(_id) senderNameNotCompromised {\n\t\trequire (_nonce == _nameFactory.nonces(_id).add(1));\n\t\tbytes32 _hash = keccak256(abi.encodePacked(address(this), _id, _key, _nonce));\n\t\trequire (ecrecover(_hash, _signatureV, _signatureR, _signatureS) == _key);\n\t\t_addKey(_id, _key);\n\t}\n\n\t/**\n\t * @dev Get default public key of a Name\n\t * @param _id The ID of the Name\n\t * @return the default public key\n\t */\n\tfunction getDefaultKey(address _id) external isName(_id) view returns (address) {\n\t\trequire (isExist(_id));\n\t\treturn publicKeys[_id].defaultKey;\n\t}\n\n\t/**\n\t * @dev Get list of publicKeys of a Name\n\t * @param _id The ID of the Name\n\t * @param _from The starting index\n\t * @param _to The ending index\n\t * @return list of publicKeys\n\t */\n\tfunction getKeys(address _id, uint256 _from, uint256 _to) public isName(_id) view returns (address[] memory) {\n\t\trequire (isExist(_id));\n\t\trequire (_from >= 0 && _to >= _from);\n\n\t\tPublicKey memory _publicKey = publicKeys[_id];\n\t\trequire (_publicKey.keys.length > 0);\n\n\t\tif (_to >  _publicKey.keys.length.sub(1)) {\n\t\t\t_to = _publicKey.keys.length.sub(1);\n\t\t}\n\t\taddress[] memory _keys = new address[](_to.sub(_from).add(1));\n\n\t\tfor (uint256 i = _from; i <= _to; i++) {\n\t\t\t_keys[i.sub(_from)] = _publicKey.keys[i];\n\t\t}\n\t\treturn _keys;\n\t}\n\n\t/**\n\t * @dev Remove publicKey from the list\n\t * @param _id The ID of the Name\n\t * @param _key The publicKey to be removed\n\t */\n\tfunction removeKey(address _id, address _key) public isName(_id) onlyAdvocate(_id) senderNameNotCompromised {\n\t\trequire (isExist(_id));\n\t\trequire (this.isKeyExist(_id, _key));\n\n\t\tPublicKey storage _publicKey = publicKeys[_id];\n\n\t\t// Can't remove default key\n\t\trequire (_key != _publicKey.defaultKey);\n\t\trequire (_publicKey.keys.length > 1);\n\n\t\tuint256 index;\n\t\tfor (uint256 i = 0; i < _publicKey.keys.length; i++) {\n\t\t\tif (_publicKey.keys[i] == _key) {\n\t\t\t\tindex = i;\n\t\t\t\tbreak;\n\t\t\t}\n\t\t}\n\n\t\tfor (uint256 i = index; i < _publicKey.keys.length.sub(1); i++) {\n\t\t\t_publicKey.keys[i] = _publicKey.keys[i+1];\n\t\t}\n\t\t_publicKey.keys.length--;\n\n\t\tuint256 _nonce = _nameFactory.incrementNonce(_id);\n\t\trequire (_nonce > 0);\n\n\t\temit RemoveKey(_id, _key, _nonce);\n\t}\n\n\t/**\n\t * @dev Set a publicKey as the default for a Name\n\t * @param _id The ID of the Name\n\t * @param _defaultKey The defaultKey to be set\n\t * @param _signatureV The V part of the signature for this update\n\t * @param _signatureR The R part of the signature for this update\n\t * @param _signatureS The S part of the signature for this update\n\t */\n\tfunction setDefaultKey(address _id, address _defaultKey, uint8 _signatureV, bytes32 _signatureR, bytes32 _signatureS) public isName(_id) onlyAdvocate(_id) senderNameNotCompromised {\n\t\trequire (isExist(_id));\n\t\trequire (this.isKeyExist(_id, _defaultKey));\n\n\t\tbytes32 _hash = keccak256(abi.encodePacked(address(this), _id, _defaultKey));\n\t\trequire (ecrecover(_hash, _signatureV, _signatureR, _signatureS) == msg.sender);\n\n\t\tPublicKey storage _publicKey = publicKeys[_id];\n\t\t_publicKey.defaultKey = _defaultKey;\n\n\t\tuint256 _nonce = _nameFactory.incrementNonce(_id);\n\t\trequire (_nonce > 0);\n\t\temit SetDefaultKey(_id, _defaultKey, _nonce);\n\t}\n\n\t/***** INTERNAL METHOD *****/\n\t/**\n\t * @dev Actual adding the publicKey to list for a Name\n\t * @param _id The ID of the Name\n\t * @param _key The publicKey to be added\n\t */\n\tfunction _addKey(address _id, address _key) internal {\n\t\trequire (!this.isKeyExist(_id, _key));\n\t\trequire (_key != address(0));\n\n\t\tPublicKey storage _publicKey = publicKeys[_id];\n\t\t_publicKey.keys.push(_key);\n\n\t\tuint256 _nonce = _nameFactory.incrementNonce(_id);\n\t\trequire (_nonce > 0);\n\n\t\temit AddKey(_id, _key, _nonce);\n\t}\n}\n",
  "sourcePath": "/usr/local/ao-contracts/contracts/NamePublicKey.sol",
  "compiler": {
    "name": "solc",
    "version": "0.5.4+commit.9549d8ff.Emscripten.clang"
  },
  "schemaVersion": "3.0.2",
  "updatedAt": "2019-03-21T02:41:21.266Z",
  "devdoc": {
    "methods": {
      "addKey(address,address,uint256,uint8,bytes32,bytes32)": {
        "details": "Add publicKey to list for a Name",
        "params": {
          "_id": "The ID of the Name",
          "_key": "The publicKey to be added",
          "_nonce": "The signed uint256 nonce (should be Name's current nonce + 1)",
          "_signatureR": "The R part of the signature",
          "_signatureS": "The S part of the signature",
          "_signatureV": "The V part of the signature"
        }
      },
      "constructor": {
        "details": "Constructor function"
      },
      "getDefaultKey(address)": {
        "details": "Get default public key of a Name",
        "params": {
          "_id": "The ID of the Name"
        },
        "return": "the default public key"
      },
      "getKeys(address,uint256,uint256)": {
        "details": "Get list of publicKeys of a Name",
        "params": {
          "_from": "The starting index",
          "_id": "The ID of the Name",
          "_to": "The ending index"
        },
        "return": "list of publicKeys"
      },
      "getTotalPublicKeysCount(address)": {
        "details": "Get total publicKeys count for a Name",
        "params": {
          "_id": "The ID of the Name"
        },
        "return": "total publicKeys count"
      },
      "initialize(address,address)": {
        "details": "Store the PublicKey info for a Name",
        "params": {
          "_defaultKey": "The default public key for this Name",
          "_id": "The ID of the Name"
        },
        "return": "true on success"
      },
      "isExist(address)": {
        "details": "Check whether or not a Name ID exist in the list of Public Keys",
        "params": {
          "_id": "The ID to be checked"
        },
        "return": "true if yes, false otherwise"
      },
      "isKeyExist(address,address)": {
        "details": "Check whether or not a publicKey exist in the list for a Name",
        "params": {
          "_id": "The ID of the Name",
          "_key": "The publicKey to check"
        },
        "return": "true if yes. false otherwise"
      },
      "removeKey(address,address)": {
        "details": "Remove publicKey from the list",
        "params": {
          "_id": "The ID of the Name",
          "_key": "The publicKey to be removed"
        }
      },
      "setDefaultKey(address,address,uint8,bytes32,bytes32)": {
        "details": "Set a publicKey as the default for a Name",
        "params": {
          "_defaultKey": "The defaultKey to be set",
          "_id": "The ID of the Name",
          "_signatureR": "The R part of the signature for this update",
          "_signatureS": "The S part of the signature for this update",
          "_signatureV": "The V part of the signature for this update"
        }
      },
      "setNameAccountRecoveryAddress(address)": {
        "details": "The AO set the NameAccountRecovery Address",
        "params": {
          "_nameAccountRecoveryAddress": "The address of NameAccountRecovery"
        }
      },
      "setNameFactoryAddress(address)": {
        "details": "The AO sets NameFactory address",
        "params": {
          "_nameFactoryAddress": "The address of NameFactory"
        }
      },
      "setNameTAOPositionAddress(address)": {
        "details": "The AO sets NameTAOPosition address",
        "params": {
          "_nameTAOPositionAddress": "The address of NameTAOPosition"
        }
      },
      "setWhitelist(address,bool)": {
        "details": "Whitelist `_account` address to transact on behalf of others",
        "params": {
          "_account": "The address to whitelist",
          "_whitelist": "Either to whitelist or not"
        }
      },
      "transferOwnership(address)": {
        "details": "Transfer ownership of The AO to new address",
        "params": {
          "_theAO": "The new address to be transferred"
        }
      },
      "whitelistAddKey(address,address)": {
        "details": "Whitelisted address add publicKey to list for a Name",
        "params": {
          "_id": "The ID of the Name",
          "_key": "The publicKey to be added"
        },
        "return": "true on success"
      }
    },
    "title": "NamePublicKey"
  },
  "userdoc": {
    "methods": {}
  }
}