{
  "contractName": "NameTAOPosition",
  "abi": [
    {
      "constant": true,
      "inputs": [],
      "name": "aoSettingAddress",
      "outputs": [
        {
          "name": "",
          "type": "address"
        }
      ],
      "payable": false,
      "stateMutability": "view",
      "type": "function"
    },
    {
      "constant": true,
      "inputs": [],
      "name": "totalTAOAdvocateChallenges",
      "outputs": [
        {
          "name": "",
          "type": "uint256"
        }
      ],
      "payable": false,
      "stateMutability": "view",
      "type": "function"
    },
    {
      "constant": true,
      "inputs": [],
      "name": "logosAddress",
      "outputs": [
        {
          "name": "",
          "type": "address"
        }
      ],
      "payable": false,
      "stateMutability": "view",
      "type": "function"
    },
    {
      "constant": true,
      "inputs": [],
      "name": "nameTAOPositionAddress",
      "outputs": [
        {
          "name": "",
          "type": "address"
        }
      ],
      "payable": false,
      "stateMutability": "view",
      "type": "function"
    },
    {
      "constant": true,
      "inputs": [
        {
          "name": "",
          "type": "address"
        }
      ],
      "name": "whitelist",
      "outputs": [
        {
          "name": "",
          "type": "bool"
        }
      ],
      "payable": false,
      "stateMutability": "view",
      "type": "function"
    },
    {
      "constant": true,
      "inputs": [],
      "name": "nameAccountRecoveryAddress",
      "outputs": [
        {
          "name": "",
          "type": "address"
        }
      ],
      "payable": false,
      "stateMutability": "view",
      "type": "function"
    },
    {
      "constant": true,
      "inputs": [],
      "name": "theAO",
      "outputs": [
        {
          "name": "",
          "type": "address"
        }
      ],
      "payable": false,
      "stateMutability": "view",
      "type": "function"
    },
    {
      "constant": true,
      "inputs": [],
      "name": "taoAncestryAddress",
      "outputs": [
        {
          "name": "",
          "type": "address"
        }
      ],
      "payable": false,
      "stateMutability": "view",
      "type": "function"
    },
    {
      "constant": true,
      "inputs": [],
      "name": "nameFactoryAddress",
      "outputs": [
        {
          "name": "",
          "type": "address"
        }
      ],
      "payable": false,
      "stateMutability": "view",
      "type": "function"
    },
    {
      "constant": true,
      "inputs": [],
      "name": "settingTAOId",
      "outputs": [
        {
          "name": "",
          "type": "address"
        }
      ],
      "payable": false,
      "stateMutability": "view",
      "type": "function"
    },
    {
      "constant": true,
      "inputs": [],
      "name": "taoFactoryAddress",
      "outputs": [
        {
          "name": "",
          "type": "address"
        }
      ],
      "payable": false,
      "stateMutability": "view",
      "type": "function"
    },
    {
      "inputs": [
        {
          "name": "_nameFactoryAddress",
          "type": "address"
        },
        {
          "name": "_taoFactoryAddress",
          "type": "address"
        }
      ],
      "payable": false,
      "stateMutability": "nonpayable",
      "type": "constructor"
    },
    {
      "anonymous": false,
      "inputs": [
        {
          "indexed": true,
          "name": "taoId",
          "type": "address"
        },
        {
          "indexed": false,
          "name": "oldAdvocateId",
          "type": "address"
        },
        {
          "indexed": false,
          "name": "newAdvocateId",
          "type": "address"
        },
        {
          "indexed": false,
          "name": "nonce",
          "type": "uint256"
        }
      ],
      "name": "SetAdvocate",
      "type": "event"
    },
    {
      "anonymous": false,
      "inputs": [
        {
          "indexed": true,
          "name": "taoId",
          "type": "address"
        },
        {
          "indexed": false,
          "name": "oldListenerId",
          "type": "address"
        },
        {
          "indexed": false,
          "name": "newListenerId",
          "type": "address"
        },
        {
          "indexed": false,
          "name": "nonce",
          "type": "uint256"
        }
      ],
      "name": "SetListener",
      "type": "event"
    },
    {
      "anonymous": false,
      "inputs": [
        {
          "indexed": true,
          "name": "taoId",
          "type": "address"
        },
        {
          "indexed": false,
          "name": "oldSpeakerId",
          "type": "address"
        },
        {
          "indexed": false,
          "name": "newSpeakerId",
          "type": "address"
        },
        {
          "indexed": false,
          "name": "nonce",
          "type": "uint256"
        }
      ],
      "name": "SetSpeaker",
      "type": "event"
    },
    {
      "anonymous": false,
      "inputs": [
        {
          "indexed": true,
          "name": "taoId",
          "type": "address"
        },
        {
          "indexed": true,
          "name": "challengeId",
          "type": "bytes32"
        },
        {
          "indexed": false,
          "name": "currentAdvocateId",
          "type": "address"
        },
        {
          "indexed": false,
          "name": "challengerAdvocateId",
          "type": "address"
        },
        {
          "indexed": false,
          "name": "createdTimestamp",
          "type": "uint256"
        },
        {
          "indexed": false,
          "name": "lockedUntilTimestamp",
          "type": "uint256"
        },
        {
          "indexed": false,
          "name": "completeBeforeTimestamp",
          "type": "uint256"
        }
      ],
      "name": "ChallengeTAOAdvocate",
      "type": "event"
    },
    {
      "anonymous": false,
      "inputs": [
        {
          "indexed": true,
          "name": "taoId",
          "type": "address"
        },
        {
          "indexed": true,
          "name": "challengeId",
          "type": "bytes32"
        }
      ],
      "name": "CompleteTAOAdvocateChallenge",
      "type": "event"
    },
    {
      "constant": false,
      "inputs": [
        {
          "name": "_theAO",
          "type": "address"
        }
      ],
      "name": "transferOwnership",
      "outputs": [],
      "payable": false,
      "stateMutability": "nonpayable",
      "type": "function"
    },
    {
      "constant": false,
      "inputs": [
        {
          "name": "_account",
          "type": "address"
        },
        {
          "name": "_whitelist",
          "type": "bool"
        }
      ],
      "name": "setWhitelist",
      "outputs": [],
      "payable": false,
      "stateMutability": "nonpayable",
      "type": "function"
    },
    {
      "constant": false,
      "inputs": [
        {
          "name": "_nameFactoryAddress",
          "type": "address"
        }
      ],
      "name": "setNameFactoryAddress",
      "outputs": [],
      "payable": false,
      "stateMutability": "nonpayable",
      "type": "function"
    },
    {
      "constant": false,
      "inputs": [
        {
          "name": "_nameAccountRecoveryAddress",
          "type": "address"
        }
      ],
      "name": "setNameAccountRecoveryAddress",
      "outputs": [],
      "payable": false,
      "stateMutability": "nonpayable",
      "type": "function"
    },
    {
      "constant": false,
      "inputs": [
        {
          "name": "_taoFactoryAddress",
          "type": "address"
        }
      ],
      "name": "setTAOFactoryAddress",
      "outputs": [],
      "payable": false,
      "stateMutability": "nonpayable",
      "type": "function"
    },
    {
      "constant": false,
      "inputs": [
        {
          "name": "_settingTAOId",
          "type": "address"
        }
      ],
      "name": "setSettingTAOId",
      "outputs": [],
      "payable": false,
      "stateMutability": "nonpayable",
      "type": "function"
    },
    {
      "constant": false,
      "inputs": [
        {
          "name": "_aoSettingAddress",
          "type": "address"
        }
      ],
      "name": "setAOSettingAddress",
      "outputs": [],
      "payable": false,
      "stateMutability": "nonpayable",
      "type": "function"
    },
    {
      "constant": false,
      "inputs": [
        {
          "name": "_taoAncestryAddress",
          "type": "address"
        }
      ],
      "name": "setTAOAncestryAddress",
      "outputs": [],
      "payable": false,
      "stateMutability": "nonpayable",
      "type": "function"
    },
    {
      "constant": false,
      "inputs": [
        {
          "name": "_logosAddress",
          "type": "address"
        }
      ],
      "name": "setLogosAddress",
      "outputs": [],
      "payable": false,
      "stateMutability": "nonpayable",
      "type": "function"
    },
    {
      "constant": true,
      "inputs": [
        {
          "name": "_id",
          "type": "address"
        }
      ],
      "name": "isExist",
      "outputs": [
        {
          "name": "",
          "type": "bool"
        }
      ],
      "payable": false,
      "stateMutability": "view",
      "type": "function"
    },
    {
      "constant": true,
      "inputs": [
        {
          "name": "_sender",
          "type": "address"
        },
        {
          "name": "_id",
          "type": "address"
        }
      ],
      "name": "senderIsAdvocate",
      "outputs": [
        {
          "name": "",
          "type": "bool"
        }
      ],
      "payable": false,
      "stateMutability": "view",
      "type": "function"
    },
    {
      "constant": true,
      "inputs": [
        {
          "name": "_sender",
          "type": "address"
        },
        {
          "name": "_id",
          "type": "address"
        }
      ],
      "name": "senderIsListener",
      "outputs": [
        {
          "name": "",
          "type": "bool"
        }
      ],
      "payable": false,
      "stateMutability": "view",
      "type": "function"
    },
    {
      "constant": true,
      "inputs": [
        {
          "name": "_sender",
          "type": "address"
        },
        {
          "name": "_id",
          "type": "address"
        }
      ],
      "name": "senderIsSpeaker",
      "outputs": [
        {
          "name": "",
          "type": "bool"
        }
      ],
      "payable": false,
      "stateMutability": "view",
      "type": "function"
    },
    {
      "constant": true,
      "inputs": [
        {
          "name": "_sender",
          "type": "address"
        },
        {
          "name": "_id",
          "type": "address"
        }
      ],
      "name": "senderIsAdvocateOfParent",
      "outputs": [
        {
          "name": "",
          "type": "bool"
        }
      ],
      "payable": false,
      "stateMutability": "view",
      "type": "function"
    },
    {
      "constant": true,
      "inputs": [
        {
          "name": "_sender",
          "type": "address"
        },
        {
          "name": "_id",
          "type": "address"
        }
      ],
      "name": "senderIsPosition",
      "outputs": [
        {
          "name": "",
          "type": "bool"
        }
      ],
      "payable": false,
      "stateMutability": "view",
      "type": "function"
    },
    {
      "constant": true,
      "inputs": [
        {
          "name": "_nameId",
          "type": "address"
        },
        {
          "name": "_id",
          "type": "address"
        }
      ],
      "name": "nameIsAdvocate",
      "outputs": [
        {
          "name": "",
          "type": "bool"
        }
      ],
      "payable": false,
      "stateMutability": "view",
      "type": "function"
    },
    {
      "constant": true,
      "inputs": [
        {
          "name": "_sender",
          "type": "address"
        },
        {
          "name": "_id",
          "type": "address"
        }
      ],
      "name": "determinePosition",
      "outputs": [
        {
          "name": "",
          "type": "uint256"
        }
      ],
      "payable": false,
      "stateMutability": "view",
      "type": "function"
    },
    {
      "constant": false,
      "inputs": [
        {
          "name": "_id",
          "type": "address"
        },
        {
          "name": "_advocateId",
          "type": "address"
        },
        {
          "name": "_listenerId",
          "type": "address"
        },
        {
          "name": "_speakerId",
          "type": "address"
        }
      ],
      "name": "initialize",
      "outputs": [
        {
          "name": "",
          "type": "bool"
        }
      ],
      "payable": false,
      "stateMutability": "nonpayable",
      "type": "function"
    },
    {
      "constant": true,
      "inputs": [
        {
          "name": "_id",
          "type": "address"
        }
      ],
      "name": "getPositionById",
      "outputs": [
        {
          "name": "",
          "type": "string"
        },
        {
          "name": "",
          "type": "address"
        },
        {
          "name": "",
          "type": "string"
        },
        {
          "name": "",
          "type": "address"
        },
        {
          "name": "",
          "type": "string"
        },
        {
          "name": "",
          "type": "address"
        }
      ],
      "payable": false,
      "stateMutability": "view",
      "type": "function"
    },
    {
      "constant": true,
      "inputs": [
        {
          "name": "_id",
          "type": "address"
        }
      ],
      "name": "getAdvocate",
      "outputs": [
        {
          "name": "",
          "type": "address"
        }
      ],
      "payable": false,
      "stateMutability": "view",
      "type": "function"
    },
    {
      "constant": true,
      "inputs": [
        {
          "name": "_id",
          "type": "address"
        }
      ],
      "name": "getListener",
      "outputs": [
        {
          "name": "",
          "type": "address"
        }
      ],
      "payable": false,
      "stateMutability": "view",
      "type": "function"
    },
    {
      "constant": true,
      "inputs": [
        {
          "name": "_id",
          "type": "address"
        }
      ],
      "name": "getSpeaker",
      "outputs": [
        {
          "name": "",
          "type": "address"
        }
      ],
      "payable": false,
      "stateMutability": "view",
      "type": "function"
    },
    {
      "constant": false,
      "inputs": [
        {
          "name": "_taoId",
          "type": "address"
        },
        {
          "name": "_newAdvocateId",
          "type": "address"
        }
      ],
      "name": "setAdvocate",
      "outputs": [],
      "payable": false,
      "stateMutability": "nonpayable",
      "type": "function"
    },
    {
      "constant": false,
      "inputs": [
        {
          "name": "_taoId",
          "type": "address"
        }
      ],
      "name": "parentReplaceChildAdvocate",
      "outputs": [],
      "payable": false,
      "stateMutability": "nonpayable",
      "type": "function"
    },
    {
      "constant": false,
      "inputs": [
        {
          "name": "_taoId",
          "type": "address"
        }
      ],
      "name": "challengeTAOAdvocate",
      "outputs": [],
      "payable": false,
      "stateMutability": "nonpayable",
      "type": "function"
    },
    {
      "constant": true,
      "inputs": [
        {
          "name": "_challengeId",
          "type": "bytes32"
        },
        {
          "name": "_sender",
          "type": "address"
        }
      ],
      "name": "getChallengeStatus",
      "outputs": [
        {
          "name": "",
          "type": "uint8"
        }
      ],
      "payable": false,
      "stateMutability": "view",
      "type": "function"
    },
    {
      "constant": false,
      "inputs": [
        {
          "name": "_challengeId",
          "type": "bytes32"
        }
      ],
      "name": "completeTAOAdvocateChallenge",
      "outputs": [],
      "payable": false,
      "stateMutability": "nonpayable",
      "type": "function"
    },
    {
      "constant": true,
      "inputs": [
        {
          "name": "_challengeId",
          "type": "bytes32"
        }
      ],
      "name": "getTAOAdvocateChallengeById",
      "outputs": [
        {
          "name": "",
          "type": "address"
        },
        {
          "name": "",
          "type": "address"
        },
        {
          "name": "",
          "type": "bool"
        },
        {
          "name": "",
          "type": "uint256"
        },
        {
          "name": "",
          "type": "uint256"
        },
        {
          "name": "",
          "type": "uint256"
        }
      ],
      "payable": false,
      "stateMutability": "view",
      "type": "function"
    },
    {
      "constant": false,
      "inputs": [
        {
          "name": "_id",
          "type": "address"
        },
        {
          "name": "_newListenerId",
          "type": "address"
        }
      ],
      "name": "setListener",
      "outputs": [],
      "payable": false,
      "stateMutability": "nonpayable",
      "type": "function"
    },
    {
      "constant": false,
      "inputs": [
        {
          "name": "_id",
          "type": "address"
        },
        {
          "name": "_newSpeakerId",
          "type": "address"
        }
      ],
      "name": "setSpeaker",
      "outputs": [],
      "payable": false,
      "stateMutability": "nonpayable",
      "type": "function"
    }
  ],
  "bytecode": "0x60806040523480156200001157600080fd5b506040516040806200522a833981018060405260408110156200003357600080fd5b50805160209091015160008054600160a060020a03191633179055620000628264010000000062000090810204565b620000768164010000000062000195810204565b505060018054600160a060020a031916301790556200029a565b600054600154604080517ff66afcac000000000000000000000000000000000000000000000000000000008152336004820152600160a060020a0393841660248201529290911660448301525173__AOLibrary_____________________________9163f66afcac916064808301926020929190829003018186803b1580156200011957600080fd5b505af41580156200012e573d6000803e3d6000fd5b505050506040513d60208110156200014557600080fd5b505115156200015357600080fd5b600160a060020a03811615156200016957600080fd5b60048054600160a060020a03909216600160a060020a03199283168117909155600b8054909216179055565b600054600154604080517ff66afcac000000000000000000000000000000000000000000000000000000008152336004820152600160a060020a0393841660248201529290911660448301525173__AOLibrary_____________________________9163f66afcac916064808301926020929190829003018186803b1580156200021e57600080fd5b505af415801562000233573d6000803e3d6000fd5b505050506040513d60208110156200024a57600080fd5b505115156200025857600080fd5b600160a060020a03811615156200026e57600080fd5b60068054600160a060020a03909216600160a060020a03199283168117909155600d8054909216179055565b614f8080620002aa6000396000f3fe608060405234801561001057600080fd5b50600436106102565760003560e060020a900480637a1d66dd1161014a578063daacb9ce116100c7578063f203c8571161008b578063f203c857146108f3578063f2fde38b14610919578063f8c8765e1461093f578063fd6f41371461097d578063ff0374b5146109a3578063ff3781c6146109ab57610256565b8063daacb9ce1461084c578063e2c8e54a1461087a578063e7c50185146108a8578063eb342f79146108b0578063ef44fe24146108cd57610256565b8063a9b6b38e1161010e578063a9b6b38e14610659578063af6ddc1014610661578063bc40620614610669578063d6830af314610671578063d8a0aa6c1461069757610256565b80637a1d66dd14610595578063897e359a146105c35780638c924361146106055780639b19251a1461062b578063a4e5fad21461065157610256565b8063339c5c06116101d85780634ef033f01161019c5780634ef033f0146104e557806353d6fd59146104ed5780636fb487fc1461051b57806371ce52ed146105415780637767d0341461056f57610256565b8063339c5c06146103ff57806338da7de7146104255780633b6682d51461042d5780634926248f146104895780634b670418146104b757610256565b806320082c691161021f57806320082c69146103355780632191207a1461036357806323f48bc91461038957806329981db4146103a35780632cfed9f0146103d157610256565b806213eb4b1461025b578063058af9821461029557806306fd7088146102c35780631d0138ff146102eb5780631dfde2bd1461030f575b600080fd5b6102816004803603602081101561027157600080fd5b5035600160a060020a03166109d1565b604080519115158252519081900360200190f35b610281600480360360408110156102ab57600080fd5b50600160a060020a03813581169160200135166109f9565b6102e9600480360360208110156102d957600080fd5b5035600160a060020a0316610a50565b005b6102f3610b3a565b60408051600160a060020a039092168252519081900360200190f35b6102e96004803603602081101561032557600080fd5b5035600160a060020a0316610b49565b6102816004803603604081101561034b57600080fd5b50600160a060020a0381358116916020013516610c36565b6102e96004803603602081101561037957600080fd5b5035600160a060020a0316610d09565b610391610df3565b60408051918252519081900360200190f35b6102e9600480360360408110156103b957600080fd5b50600160a060020a0381358116916020013516610df9565b6102e9600480360360408110156103e757600080fd5b50600160a060020a03813581169160200135166111f0565b6102e96004803603602081101561041557600080fd5b5035600160a060020a0316611a63565b6102f3611f4c565b61044a6004803603602081101561044357600080fd5b5035611f5b565b60408051600160a060020a039788168152959096166020860152921515848601526060840191909152608083015260a082015290519081900360c00190f35b6102e96004803603604081101561049f57600080fd5b50600160a060020a038135811691602001351661201e565b610281600480360360408110156104cd57600080fd5b50600160a060020a0381358116916020013516612891565b6102f3612b86565b6102e96004803603604081101561050357600080fd5b50600160a060020a0381351690602001351515612b95565b6102f36004803603602081101561053157600080fd5b5035600160a060020a0316612c7e565b6102816004803603604081101561055757600080fd5b50600160a060020a0381358116916020013516612cfc565b6102e96004803603602081101561058557600080fd5b5035600160a060020a0316612dcc565b610391600480360360408110156105ab57600080fd5b50600160a060020a0381358116916020013516612eb9565b6105ef600480360360408110156105d957600080fd5b5080359060200135600160a060020a031661307b565b6040805160ff9092168252519081900360200190f35b6102e96004803603602081101561061b57600080fd5b5035600160a060020a031661331f565b6102816004803603602081101561064157600080fd5b5035600160a060020a0316613409565b6102f361341e565b6102f361342d565b6102f361343c565b6102f361344b565b6102e96004803603602081101561068757600080fd5b5035600160a060020a031661345a565b6106bd600480360360208110156106ad57600080fd5b5035600160a060020a03166135b9565b604051808060200187600160a060020a0316600160a060020a031681526020018060200186600160a060020a0316600160a060020a031681526020018060200185600160a060020a0316600160a060020a0316815260200184810384528a818151815260200191508051906020019080838360005b8381101561074a578181015183820152602001610732565b50505050905090810190601f1680156107775780820380516001836020036101000a031916815260200191505b5084810383528851815288516020918201918a019080838360005b838110156107aa578181015183820152602001610792565b50505050905090810190601f1680156107d75780820380516001836020036101000a031916815260200191505b50848103825286518152865160209182019188019080838360005b8381101561080a5781810151838201526020016107f2565b50505050905090810190601f1680156108375780820380516001836020036101000a031916815260200191505b50995050505050505050505060405180910390f35b6102816004803603604081101561086257600080fd5b50600160a060020a03813581169160200135166138c6565b6102816004803603604081101561089057600080fd5b50600160a060020a0381358116916020013516613999565b6102f3613adc565b6102e9600480360360208110156108c657600080fd5b5035613aeb565b6102e9600480360360208110156108e357600080fd5b5035600160a060020a0316613d20565b6102f36004803603602081101561090957600080fd5b5035600160a060020a03166142cc565b6102e96004803603602081101561092f57600080fd5b5035600160a060020a031661434b565b6102816004803603608081101561095557600080fd5b50600160a060020a03813581169160208101358216916040820135811691606001351661442b565b6102f36004803603602081101561099357600080fd5b5035600160a060020a031661490a565b6102f361498a565b6102e9600480360360208110156109c157600080fd5b5035600160a060020a0316614999565b600160a060020a031660009081526011602052604090206002015460a060020a900460ff1690565b600160a060020a03811660009081526011602052604081206002015460a060020a900460ff168015610a475750600160a060020a038281166000908152601160205260409020548116908416145b90505b92915050565b6000546001546040805160e260020a633d9abf2b028152336004820152600160a060020a0393841660248201529290911660448301525173__AOLibrary_____________________________9163f66afcac916064808301926020929190829003018186803b158015610ac257600080fd5b505af4158015610ad6573d6000803e3d6000fd5b505050506040513d6020811015610aec57600080fd5b50511515610af957600080fd5b600160a060020a0381161515610b0e57600080fd5b60078054600160a060020a03909216600160a060020a03199283168117909155600e8054909216179055565b600754600160a060020a031681565b6000546001546040805160e260020a633d9abf2b028152336004820152600160a060020a0393841660248201529290911660448301525173__AOLibrary_____________________________9163f66afcac916064808301926020929190829003018186803b158015610bbb57600080fd5b505af4158015610bcf573d6000803e3d6000fd5b505050506040513d6020811015610be557600080fd5b50511515610bf257600080fd5b600160a060020a0381161515610c0757600080fd5b60058054600160a060020a0319908116600160a060020a039384161791829055600c8054929093169116179055565b600160a060020a03811660009081526011602052604081206002015460a060020a900460ff168015610a475750600b546040805160e060020a63029b7d53028152600160a060020a0386811660048301529151919092169163029b7d53916024808301926020929190829003018186803b158015610cb357600080fd5b505afa158015610cc7573d6000803e3d6000fd5b505050506040513d6020811015610cdd57600080fd5b5051600160a060020a038381166000908152601160205260409020600201548116911614905092915050565b6000546001546040805160e260020a633d9abf2b028152336004820152600160a060020a0393841660248201529290911660448301525173__AOLibrary_____________________________9163f66afcac916064808301926020929190829003018186803b158015610d7b57600080fd5b505af4158015610d8f573d6000803e3d6000fd5b505050506040513d6020811015610da557600080fd5b50511515610db257600080fd5b600160a060020a0381161515610dc757600080fd5b60068054600160a060020a03909216600160a060020a03199283168117909155600d8054909216179055565b600a5481565b8173__AOLibrary_____________________________632fca5414826040518263ffffffff1660e060020a0281526004018082600160a060020a0316600160a060020a0316815260200191505060206040518083038186803b158015610e5e57600080fd5b505af4158015610e72573d6000803e3d6000fd5b505050506040513d6020811015610e8857600080fd5b50511515610e9557600080fd5b8173__AOLibrary_____________________________632d706a34826040518263ffffffff1660e060020a0281526004018082600160a060020a0316600160a060020a0316815260200191505060206040518083038186803b158015610efa57600080fd5b505af4158015610f0e573d6000803e3d6000fd5b505050506040513d6020811015610f2457600080fd5b50511515610f3157600080fd5b6040805160e060020a6371ce52ed028152336004820152600160a060020a03861660248201529051859130916371ce52ed91604480820192602092909190829003018186803b158015610f8357600080fd5b505afa158015610f97573d6000803e3d6000fd5b505050506040513d6020811015610fad57600080fd5b50511515610fba57600080fd5b600b546040805160e060020a63029b7d530281523360048201529051600092600160a060020a03169163029b7d53916024808301926020929190829003018186803b15801561100857600080fd5b505afa15801561101c573d6000803e3d6000fd5b505050506040513d602081101561103257600080fd5b5051600160a060020a0316141561104857600080fd5b600c54600b546040805160e060020a63029b7d530281523360048201529051600160a060020a0393841693633ebc2ab393169163029b7d53916024808301926020929190829003018186803b1580156110a057600080fd5b505afa1580156110b4573d6000803e3d6000fd5b505050506040513d60208110156110ca57600080fd5b50516040805160e060020a63ffffffff8516028152600160a060020a039092166004830152516024808301926020929190829003018186803b15801561110f57600080fd5b505afa158015611123573d6000803e3d6000fd5b505050506040513d602081101561113957600080fd5b50511561114557600080fd5b61114e856109d1565b151561115957600080fd5b600c546040805160e060020a633ebc2ab3028152600160a060020a03878116600483015291519190921691633ebc2ab3916024808301926020929190829003018186803b1580156111a957600080fd5b505afa1580156111bd573d6000803e3d6000fd5b505050506040513d60208110156111d357600080fd5b5051156111df57600080fd5b6111e98585614a83565b5050505050565b8173__AOLibrary_____________________________632d706a34826040518263ffffffff1660e060020a0281526004018082600160a060020a0316600160a060020a0316815260200191505060206040518083038186803b15801561125557600080fd5b505af4158015611269573d6000803e3d6000fd5b505050506040513d602081101561127f57600080fd5b50518061131157506040805160e260020a630bf29505028152600160a060020a0383166004820152905173__AOLibrary_____________________________91632fca5414916024808301926020929190829003018186803b1580156112e457600080fd5b505af41580156112f8573d6000803e3d6000fd5b505050506040513d602081101561130e57600080fd5b50515b151561131c57600080fd5b8173__AOLibrary_____________________________632d706a34826040518263ffffffff1660e060020a0281526004018082600160a060020a0316600160a060020a0316815260200191505060206040518083038186803b15801561138157600080fd5b505af4158015611395573d6000803e3d6000fd5b505050506040513d60208110156113ab57600080fd5b50518061143d57506040805160e260020a630bf29505028152600160a060020a0383166004820152905173__AOLibrary_____________________________91632fca5414916024808301926020929190829003018186803b15801561141057600080fd5b505af4158015611424573d6000803e3d6000fd5b505050506040513d602081101561143a57600080fd5b50515b151561144857600080fd5b600b546040805160e060020a63029b7d530281523360048201529051600092600160a060020a03169163029b7d53916024808301926020929190829003018186803b15801561149657600080fd5b505afa1580156114aa573d6000803e3d6000fd5b505050506040513d60208110156114c057600080fd5b5051600160a060020a031614156114d657600080fd5b600c54600b546040805160e060020a63029b7d530281523360048201529051600160a060020a0393841693633ebc2ab393169163029b7d53916024808301926020929190829003018186803b15801561152e57600080fd5b505afa158015611542573d6000803e3d6000fd5b505050506040513d602081101561155857600080fd5b50516040805160e060020a63ffffffff8516028152600160a060020a039092166004830152516024808301926020929190829003018186803b15801561159d57600080fd5b505afa1580156115b1573d6000803e3d6000fd5b505050506040513d60208110156115c757600080fd5b5051156115d357600080fd5b6040805160e060020a6371ce52ed028152336004820152600160a060020a03861660248201529051859130916371ce52ed91604480820192602092909190829003018186803b15801561162557600080fd5b505afa158015611639573d6000803e3d6000fd5b505050506040513d602081101561164f57600080fd5b5051151561165c57600080fd5b611665856109d1565b151561167057600080fd5b604080517f2d706a34000000000000000000000000000000000000000000000000000000008152600160a060020a0387166004820152905160009173__AOLibrary_____________________________91632d706a3491602480820192602092909190829003018186803b1580156116e757600080fd5b505af41580156116fb573d6000803e3d6000fd5b505050506040513d602081101561171157600080fd5b5051156118c3576001905073__AOLibrary_____________________________632d706a34866040518263ffffffff1660e060020a0281526004018082600160a060020a0316600160a060020a0316815260200191505060206040518083038186803b15801561178057600080fd5b505af4158015611794573d6000803e3d6000fd5b505050506040513d60208110156117aa57600080fd5b505115156117b757600080fd5b600c546040805160e060020a633ebc2ab3028152600160a060020a03898116600483015291519190921691633ebc2ab3916024808301926020929190829003018186803b15801561180757600080fd5b505afa15801561181b573d6000803e3d6000fd5b505050506040513d602081101561183157600080fd5b50511561183d57600080fd5b600c546040805160e060020a633ebc2ab3028152600160a060020a03888116600483015291519190921691633ebc2ab3916024808301926020929190829003018186803b15801561188d57600080fd5b505afa1580156118a1573d6000803e3d6000fd5b505050506040513d60208110156118b757600080fd5b5051156118c357600080fd5b600160a060020a038087166000908152601160205260408120600281018054898516600160a060020a031982161790915590921690831561198357600b546040805160e260020a633d5d0f13028152600160a060020a038c811660048301529151919092169163f5743c4c9160248083019260209291908290030181600087803b15801561195057600080fd5b505af1158015611964573d6000803e3d6000fd5b505050506040513d602081101561197a57600080fd5b50519050611a04565b600d546040805160e260020a633d5d0f13028152600160a060020a038c811660048301529151919092169163f5743c4c9160248083019260209291908290030181600087803b1580156119d557600080fd5b505af11580156119e9573d6000803e3d6000fd5b505050506040513d60208110156119ff57600080fd5b505190505b600283015460408051600160a060020a03858116825292831660208201528082018490529051918b16917fe60c26cbb956b589a247aabcdf98ec9be5509ac7ee76c3508b41647fa1457eca9181900360600190a2505050505050505050565b8073__AOLibrary_____________________________632fca5414826040518263ffffffff1660e060020a0281526004018082600160a060020a0316600160a060020a0316815260200191505060206040518083038186803b158015611ac857600080fd5b505af4158015611adc573d6000803e3d6000fd5b505050506040513d6020811015611af257600080fd5b50511515611aff57600080fd5b600b546040805160e060020a63029b7d530281523360048201529051600092600160a060020a03169163029b7d53916024808301926020929190829003018186803b158015611b4d57600080fd5b505afa158015611b61573d6000803e3d6000fd5b505050506040513d6020811015611b7757600080fd5b5051600160a060020a03161415611b8d57600080fd5b600c54600b546040805160e060020a63029b7d530281523360048201529051600160a060020a0393841693633ebc2ab393169163029b7d53916024808301926020929190829003018186803b158015611be557600080fd5b505afa158015611bf9573d6000803e3d6000fd5b505050506040513d6020811015611c0f57600080fd5b50516040805160e060020a63ffffffff8516028152600160a060020a039092166004830152516024808301926020929190829003018186803b158015611c5457600080fd5b505afa158015611c68573d6000803e3d6000fd5b505050506040513d6020811015611c7e57600080fd5b505115611c8a57600080fd5b611c93826109d1565b1515611c9e57600080fd5b611ca83383612891565b1515611cb357600080fd5b600b546040805160e060020a63029b7d530281523360048201529051600092600160a060020a03169163029b7d53916024808301926020929190829003018186803b158015611d0157600080fd5b505afa158015611d15573d6000803e3d6000fd5b505050506040513d6020811015611d2b57600080fd5b50516040805160e060020a63fd6f4137028152600160a060020a03861660048201529051919250600091309163fd6f4137916024808301926020929190829003018186803b158015611d7c57600080fd5b505afa158015611d90573d6000803e3d6000fd5b505050506040513d6020811015611da657600080fd5b50519050600160a060020a038281169082161415611dc357600080fd5b6010546040805160e060020a63fd6f4137028152600160a060020a0387811660048301529151919092169163985e4cd091309163fd6f4137916024808301926020929190829003018186803b158015611e1b57600080fd5b505afa158015611e2f573d6000803e3d6000fd5b505050506040513d6020811015611e4557600080fd5b50516040805160e060020a63ffffffff8516028152600160a060020a039092166004830152516024808301926020929190829003018186803b158015611e8a57600080fd5b505afa158015611e9e573d6000803e3d6000fd5b505050506040513d6020811015611eb457600080fd5b50516010546040805160e460020a630985e4cd028152600160a060020a0386811660048301529151919092169163985e4cd0916024808301926020929190829003018186803b158015611f0657600080fd5b505afa158015611f1a573d6000803e3d6000fd5b505050506040513d6020811015611f3057600080fd5b505111611f3c57600080fd5b611f468483614a83565b50505050565b600954600160a060020a031681565b600080600080600080611f6c614ecd565b50600087815260126020908152604091829020825160e081018452815481526001820154600160a060020a0390811693820193909352600282015492831693810184905260a060020a90920460ff161515606083015260038101546080830152600481015460a08301526005015460c0820152901515611feb57600080fd5b602081015160408201516060830151608084015160a085015160c090950151939c929b5090995097509195509350915050565b8173__AOLibrary_____________________________632d706a34826040518263ffffffff1660e060020a0281526004018082600160a060020a0316600160a060020a0316815260200191505060206040518083038186803b15801561208357600080fd5b505af4158015612097573d6000803e3d6000fd5b505050506040513d60208110156120ad57600080fd5b50518061213f57506040805160e260020a630bf29505028152600160a060020a0383166004820152905173__AOLibrary_____________________________91632fca5414916024808301926020929190829003018186803b15801561211257600080fd5b505af4158015612126573d6000803e3d6000fd5b505050506040513d602081101561213c57600080fd5b50515b151561214a57600080fd5b8173__AOLibrary_____________________________632d706a34826040518263ffffffff1660e060020a0281526004018082600160a060020a0316600160a060020a0316815260200191505060206040518083038186803b1580156121af57600080fd5b505af41580156121c3573d6000803e3d6000fd5b505050506040513d60208110156121d957600080fd5b50518061226b57506040805160e260020a630bf29505028152600160a060020a0383166004820152905173__AOLibrary_____________________________91632fca5414916024808301926020929190829003018186803b15801561223e57600080fd5b505af4158015612252573d6000803e3d6000fd5b505050506040513d602081101561226857600080fd5b50515b151561227657600080fd5b600b546040805160e060020a63029b7d530281523360048201529051600092600160a060020a03169163029b7d53916024808301926020929190829003018186803b1580156122c457600080fd5b505afa1580156122d8573d6000803e3d6000fd5b505050506040513d60208110156122ee57600080fd5b5051600160a060020a0316141561230457600080fd5b600c54600b546040805160e060020a63029b7d530281523360048201529051600160a060020a0393841693633ebc2ab393169163029b7d53916024808301926020929190829003018186803b15801561235c57600080fd5b505afa158015612370573d6000803e3d6000fd5b505050506040513d602081101561238657600080fd5b50516040805160e060020a63ffffffff8516028152600160a060020a039092166004830152516024808301926020929190829003018186803b1580156123cb57600080fd5b505afa1580156123df573d6000803e3d6000fd5b505050506040513d60208110156123f557600080fd5b50511561240157600080fd5b6040805160e060020a6371ce52ed028152336004820152600160a060020a03861660248201529051859130916371ce52ed91604480820192602092909190829003018186803b15801561245357600080fd5b505afa158015612467573d6000803e3d6000fd5b505050506040513d602081101561247d57600080fd5b5051151561248a57600080fd5b612493856109d1565b151561249e57600080fd5b604080517f2d706a34000000000000000000000000000000000000000000000000000000008152600160a060020a0387166004820152905160009173__AOLibrary_____________________________91632d706a3491602480820192602092909190829003018186803b15801561251557600080fd5b505af4158015612529573d6000803e3d6000fd5b505050506040513d602081101561253f57600080fd5b5051156126f1576001905073__AOLibrary_____________________________632d706a34866040518263ffffffff1660e060020a0281526004018082600160a060020a0316600160a060020a0316815260200191505060206040518083038186803b1580156125ae57600080fd5b505af41580156125c2573d6000803e3d6000fd5b505050506040513d60208110156125d857600080fd5b505115156125e557600080fd5b600c546040805160e060020a633ebc2ab3028152600160a060020a03898116600483015291519190921691633ebc2ab3916024808301926020929190829003018186803b15801561263557600080fd5b505afa158015612649573d6000803e3d6000fd5b505050506040513d602081101561265f57600080fd5b50511561266b57600080fd5b600c546040805160e060020a633ebc2ab3028152600160a060020a03888116600483015291519190921691633ebc2ab3916024808301926020929190829003018186803b1580156126bb57600080fd5b505afa1580156126cf573d6000803e3d6000fd5b505050506040513d60208110156126e557600080fd5b5051156126f157600080fd5b600160a060020a038087166000908152601160205260408120600181018054898516600160a060020a03198216179091559092169083156127b157600b546040805160e260020a633d5d0f13028152600160a060020a038c811660048301529151919092169163f5743c4c9160248083019260209291908290030181600087803b15801561277e57600080fd5b505af1158015612792573d6000803e3d6000fd5b505050506040513d60208110156127a857600080fd5b50519050612832565b600d546040805160e260020a633d5d0f13028152600160a060020a038c811660048301529151919092169163f5743c4c9160248083019260209291908290030181600087803b15801561280357600080fd5b505af1158015612817573d6000803e3d6000fd5b505050506040513d602081101561282d57600080fd5b505190505b600183015460408051600160a060020a03858116825292831660208201528082018490529051918b16917f2e81a908b9dece3c9a64e14f5daaa72174a5403092f82ab988ba4cc14b1390029181900360600190a2505050505050505050565b600f54604080517f7b23a437000000000000000000000000000000000000000000000000000000008152600160a060020a038481166004830152915160009384931691637b23a437916024808301926060929190829003018186803b1580156128f957600080fd5b505afa15801561290d573d6000803e3d6000fd5b505050506040513d606081101561292357600080fd5b5051604080517f2d706a34000000000000000000000000000000000000000000000000000000008152600160a060020a0383166004820152905191925073__AOLibrary_____________________________91632d706a3491602480820192602092909190829003018186803b15801561299c57600080fd5b505af41580156129b0573d6000803e3d6000fd5b505050506040513d60208110156129c657600080fd5b505180612af957506040805160e260020a630bf29505028152600160a060020a0383166004820152905173__AOLibrary_____________________________91632fca5414916024808301926020929190829003018186803b158015612a2b57600080fd5b505af4158015612a3f573d6000803e3d6000fd5b505050506040513d6020811015612a5557600080fd5b50518015612af95750600f54604080517f56dbc007000000000000000000000000000000000000000000000000000000008152600160a060020a0384811660048301528681166024830152915191909216916356dbc007916044808301926020929190829003018186803b158015612acc57600080fd5b505afa158015612ae0573d6000803e3d6000fd5b505050506040513d6020811015612af657600080fd5b50515b8015612b7e57506040805160e060020a6371ce52ed028152600160a060020a03868116600483015283166024820152905130916371ce52ed916044808301926020929190829003018186803b158015612b5157600080fd5b505afa158015612b65573d6000803e3d6000fd5b505050506040513d6020811015612b7b57600080fd5b50515b949350505050565b600154600160a060020a031681565b6000546001546040805160e260020a633d9abf2b028152336004820152600160a060020a0393841660248201529290911660448301525173__AOLibrary_____________________________9163f66afcac916064808301926020929190829003018186803b158015612c0757600080fd5b505af4158015612c1b573d6000803e3d6000fd5b505050506040513d6020811015612c3157600080fd5b50511515612c3e57600080fd5b600160a060020a0382161515612c5357600080fd5b600160a060020a03919091166000908152600260205260409020805460ff1916911515919091179055565b6000612c89826109d1565b1515612c9457600080fd5b612c9c614f09565b5050600160a060020a039081166000908152601160209081526040918290208251608081018452815485168152600182015485169281018390526002909101549384169281019290925260a060020a90920460ff16151560609091015290565b600160a060020a03811660009081526011602052604081206002015460a060020a900460ff168015610a475750600b546040805160e060020a63029b7d53028152600160a060020a0386811660048301529151919092169163029b7d53916024808301926020929190829003018186803b158015612d7957600080fd5b505afa158015612d8d573d6000803e3d6000fd5b505050506040513d6020811015612da357600080fd5b5051600160a060020a038381166000908152601160205260409020548116911614905092915050565b6000546001546040805160e260020a633d9abf2b028152336004820152600160a060020a0393841660248201529290911660448301525173__AOLibrary_____________________________9163f66afcac916064808301926020929190829003018186803b158015612e3e57600080fd5b505af4158015612e52573d6000803e3d6000fd5b505050506040513d6020811015612e6857600080fd5b50511515612e7557600080fd5b600160a060020a0381161515612e8a57600080fd5b60088054600160a060020a0319908116600160a060020a039384161791829055600f8054929093169116179055565b604080517fe2c8e54a000000000000000000000000000000000000000000000000000000008152600160a060020a038481166004830152831660248201529051600091309163e2c8e54a91604480820192602092909190829003018186803b158015612f2457600080fd5b505afa158015612f38573d6000803e3d6000fd5b505050506040513d6020811015612f4e57600080fd5b50511515612f5b57600080fd5b612f63614f09565b50600160a060020a038281166000908152601160209081526040808320815160808101835281548616815260018201548616818501526002909101548086168284015260a060020a900460ff1615156060820152600b54825160e060020a63029b7d53028152898716600482015292519195169263029b7d539260248082019391829003018186803b158015612ff857600080fd5b505afa15801561300c573d6000803e3d6000fd5b505050506040513d602081101561302257600080fd5b50518251909150600160a060020a038083169116141561304757600192505050610a4a565b8160200151600160a060020a031681600160a060020a0316141561307057600292505050610a4a565b600392505050610a4a565b600b546040805160e060020a63029b7d53028152600160a060020a03848116600483015291516000938493169163029b7d53916024808301926020929190829003018186803b1580156130cd57600080fd5b505afa1580156130e1573d6000803e3d6000fd5b505050506040513d60208110156130f757600080fd5b50516000858152601260205260409020600281015491925090600160a060020a0316151561312a57600292505050610a4a565b6001810154600160a060020a0383811691161461314c57600392505050610a4a565b80600401544210806131615750806005015442115b1561317157600492505050610a4a565b600281015460a060020a900460ff161561319057600592505050610a4a565b60105460028201546040805160e060020a63fd6f4137028152600160a060020a0392831660048201529051919092169163985e4cd091309163fd6f4137916024808301926020929190829003018186803b1580156131ed57600080fd5b505afa158015613201573d6000803e3d6000fd5b505050506040513d602081101561321757600080fd5b50516040805160e060020a63ffffffff8516028152600160a060020a039092166004830152516024808301926020929190829003018186803b15801561325c57600080fd5b505afa158015613270573d6000803e3d6000fd5b505050506040513d602081101561328657600080fd5b50516010546040805160e460020a630985e4cd028152600160a060020a0386811660048301529151919092169163985e4cd0916024808301926020929190829003018186803b1580156132d857600080fd5b505afa1580156132ec573d6000803e3d6000fd5b505050506040513d602081101561330257600080fd5b50511161331457600692505050610a4a565b600192505050610a4a565b6000546001546040805160e260020a633d9abf2b028152336004820152600160a060020a0393841660248201529290911660448301525173__AOLibrary_____________________________9163f66afcac916064808301926020929190829003018186803b15801561339157600080fd5b505af41580156133a5573d6000803e3d6000fd5b505050506040513d60208110156133bb57600080fd5b505115156133c857600080fd5b600160a060020a03811615156133dd57600080fd5b60048054600160a060020a03909216600160a060020a03199283168117909155600b8054909216179055565b60026020526000908152604090205460ff1681565b600554600160a060020a031681565b600054600160a060020a031681565b600854600160a060020a031681565b600454600160a060020a031681565b6000546001546040805160e260020a633d9abf2b028152336004820152600160a060020a0393841660248201529290911660448301525173__AOLibrary_____________________________9163f66afcac916064808301926020929190829003018186803b1580156134cc57600080fd5b505af41580156134e0573d6000803e3d6000fd5b505050506040513d60208110156134f657600080fd5b5051151561350357600080fd5b6040805160e260020a630bf29505028152600160a060020a0383166004820152905173__AOLibrary_____________________________91632fca5414916024808301926020929190829003018186803b15801561356057600080fd5b505af4158015613574573d6000803e3d6000fd5b505050506040513d602081101561358a57600080fd5b5051151561359757600080fd5b60038054600160a060020a031916600160a060020a0392909216919091179055565b6060600060606000606060006135ce876109d1565b15156135d957600080fd5b6135e1614f09565b50600160a060020a03878116600090815260116020908152604080832081516080810183528154861680825260018301548716948201949094526002909101549485168183015260a060020a90940460ff161515606085015280517f06fdde03000000000000000000000000000000000000000000000000000000008152905191926306fdde0392600480840193829003018186803b15801561368357600080fd5b505afa158015613697573d6000803e3d6000fd5b505050506040513d6000823e601f3d908101601f1916820160405260208110156136c057600080fd5b8101908080516401000000008111156136d857600080fd5b820160208101848111156136eb57600080fd5b815164010000000081118282018710171561370557600080fd5b505092919050505081600001518260200151600160a060020a03166306fdde036040518163ffffffff1660e060020a02815260040160006040518083038186803b15801561375257600080fd5b505afa158015613766573d6000803e3d6000fd5b505050506040513d6000823e601f3d908101601f19168201604052602081101561378f57600080fd5b8101908080516401000000008111156137a757600080fd5b820160208101848111156137ba57600080fd5b81516401000000008111828201871017156137d457600080fd5b505092919050505083602001518460400151600160a060020a03166306fdde036040518163ffffffff1660e060020a02815260040160006040518083038186803b15801561382157600080fd5b505afa158015613835573d6000803e3d6000fd5b505050506040513d6000823e601f3d908101601f19168201604052602081101561385e57600080fd5b81019080805164010000000081111561387657600080fd5b8201602081018481111561388957600080fd5b81516401000000008111828201871017156138a357600080fd5b505060409890980151969f959e50939c50919a5094985092965090945050505050565b600160a060020a03811660009081526011602052604081206002015460a060020a900460ff168015610a475750600b546040805160e060020a63029b7d53028152600160a060020a0386811660048301529151919092169163029b7d53916024808301926020929190829003018186803b15801561394357600080fd5b505afa158015613957573d6000803e3d6000fd5b505050506040513d602081101561396d57600080fd5b5051600160a060020a038381166000908152601160205260409020600101548116911614905092915050565b600b546040805160e060020a63029b7d53028152600160a060020a03858116600483015291516000938493169163029b7d53916024808301926020929190829003018186803b1580156139eb57600080fd5b505afa1580156139ff573d6000803e3d6000fd5b505050506040513d6020811015613a1557600080fd5b50519050600160a060020a0381161515613a33576000915050610a4a565b600160a060020a03831660009081526011602052604090206002015460a060020a900460ff168015613ad45750600160a060020a0383811660009081526011602052604090205481169082161480613aaa5750600160a060020a038381166000908152601160205260409020600101548116908216145b80613ad45750600160a060020a038381166000908152601160205260409020600201548116908216145b915050610a4a565b600354600160a060020a031681565b600b546040805160e060020a63029b7d530281523360048201529051600092600160a060020a03169163029b7d53916024808301926020929190829003018186803b158015613b3957600080fd5b505afa158015613b4d573d6000803e3d6000fd5b505050506040513d6020811015613b6357600080fd5b5051600160a060020a03161415613b7957600080fd5b600c54600b546040805160e060020a63029b7d530281523360048201529051600160a060020a0393841693633ebc2ab393169163029b7d53916024808301926020929190829003018186803b158015613bd157600080fd5b505afa158015613be5573d6000803e3d6000fd5b505050506040513d6020811015613bfb57600080fd5b50516040805160e060020a63ffffffff8516028152600160a060020a039092166004830152516024808301926020929190829003018186803b158015613c4057600080fd5b505afa158015613c54573d6000803e3d6000fd5b505050506040513d6020811015613c6a57600080fd5b505115613c7657600080fd5b6000818152601260205260409020613c8e823361307b565b60ff166001141515613c9f57600080fd5b60028101805474ff0000000000000000000000000000000000000000191660a060020a17908190556001820154613ce291600160a060020a039081169116614a83565b60028101546040518391600160a060020a0316907fa06cbfd9ebd454fc08633c987fb3cca83ac8f69dc24ae471a3c5be82ffff7d1290600090a35050565b8073__AOLibrary_____________________________632fca5414826040518263ffffffff1660e060020a0281526004018082600160a060020a0316600160a060020a0316815260200191505060206040518083038186803b158015613d8557600080fd5b505af4158015613d99573d6000803e3d6000fd5b505050506040513d6020811015613daf57600080fd5b50511515613dbc57600080fd5b600b546040805160e060020a63029b7d530281523360048201529051600092600160a060020a03169163029b7d53916024808301926020929190829003018186803b158015613e0a57600080fd5b505afa158015613e1e573d6000803e3d6000fd5b505050506040513d6020811015613e3457600080fd5b5051600160a060020a03161415613e4a57600080fd5b600c54600b546040805160e060020a63029b7d530281523360048201529051600160a060020a0393841693633ebc2ab393169163029b7d53916024808301926020929190829003018186803b158015613ea257600080fd5b505afa158015613eb6573d6000803e3d6000fd5b505050506040513d6020811015613ecc57600080fd5b50516040805160e060020a63ffffffff8516028152600160a060020a039092166004830152516024808301926020929190829003018186803b158015613f1157600080fd5b505afa158015613f25573d6000803e3d6000fd5b505050506040513d6020811015613f3b57600080fd5b505115613f4757600080fd5b613f50826109d1565b1515613f5b57600080fd5b600b546040805160e060020a63029b7d530281523360048201529051600092600160a060020a03169163029b7d53916024808301926020929190829003018186803b158015613fa957600080fd5b505afa158015613fbd573d6000803e3d6000fd5b505050506040513d6020811015613fd357600080fd5b50516040805160e060020a63fd6f4137028152600160a060020a03861660048201529051919250600091309163fd6f4137916024808301926020929190829003018186803b15801561402457600080fd5b505afa158015614038573d6000803e3d6000fd5b505050506040513d602081101561404e57600080fd5b50519050600160a060020a03828116908216141561406b57600080fd5b6010546040805160e460020a630985e4cd028152600160a060020a0384811660048301529151919092169163985e4cd0916024808301926020929190829003018186803b1580156140bb57600080fd5b505afa1580156140cf573d6000803e3d6000fd5b505050506040513d60208110156140e557600080fd5b50516010546040805160e460020a630985e4cd028152600160a060020a0386811660048301529151919092169163985e4cd0916024808301926020929190829003018186803b15801561413757600080fd5b505afa15801561414b573d6000803e3d6000fd5b505050506040513d602081101561416157600080fd5b50511161416d57600080fd5b600080614178614c33565b600a8054600190810191829055604080516c01000000000000000000000000308102602080840191909152600160a060020a03808f168084026034860152908d169283026048850152605c8085019790975284518085039097018752607c909301845285519581019590952060008181526012909652929094208281559283018054600160a060020a0319908116909517905560028301805490941617909255426003820181905593955091935091614237908563ffffffff614ec016565b6004820181905561424e908463ffffffff614ec016565b600582018190556003820154600483015460408051600160a060020a038a811682528b81166020830152818301949094526060810192909252608082019390935291518492918b16917f981571316fc5090cfcb298ad4ce178e523677e724c0ae1ec87fd70743b2c3f6b919081900360a00190a35050505050505050565b60006142d7826109d1565b15156142e257600080fd5b6142ea614f09565b5050600160a060020a03908116600090815260116020908152604091829020825160808101845281548516815260018201548516928101929092526002015492831691810182905260a060020a90920460ff16151560609092019190915290565b6000546001546040805160e260020a633d9abf2b028152336004820152600160a060020a0393841660248201529290911660448301525173__AOLibrary_____________________________9163f66afcac916064808301926020929190829003018186803b1580156143bd57600080fd5b505af41580156143d1573d6000803e3d6000fd5b505050506040513d60208110156143e757600080fd5b505115156143f457600080fd5b600160a060020a038116151561440957600080fd5b60008054600160a060020a031916600160a060020a0392909216919091179055565b60008473__AOLibrary_____________________________632d706a34826040518263ffffffff1660e060020a0281526004018082600160a060020a0316600160a060020a0316815260200191505060206040518083038186803b15801561449257600080fd5b505af41580156144a6573d6000803e3d6000fd5b505050506040513d60208110156144bc57600080fd5b50518061454e57506040805160e260020a630bf29505028152600160a060020a0383166004820152905173__AOLibrary_____________________________91632fca5414916024808301926020929190829003018186803b15801561452157600080fd5b505af4158015614535573d6000803e3d6000fd5b505050506040513d602081101561454b57600080fd5b50515b151561455957600080fd5b8473__AOLibrary_____________________________632d706a34826040518263ffffffff1660e060020a0281526004018082600160a060020a0316600160a060020a0316815260200191505060206040518083038186803b1580156145be57600080fd5b505af41580156145d2573d6000803e3d6000fd5b505050506040513d60208110156145e857600080fd5b505115156145f557600080fd5b8473__AOLibrary_____________________________632d706a34826040518263ffffffff1660e060020a0281526004018082600160a060020a0316600160a060020a0316815260200191505060206040518083038186803b15801561465a57600080fd5b505af415801561466e573d6000803e3d6000fd5b505050506040513d602081101561468457600080fd5b50518061471657506040805160e260020a630bf29505028152600160a060020a0383166004820152905173__AOLibrary_____________________________91632fca5414916024808301926020929190829003018186803b1580156146e957600080fd5b505af41580156146fd573d6000803e3d6000fd5b505050506040513d602081101561471357600080fd5b50515b151561472157600080fd5b8473__AOLibrary_____________________________632d706a34826040518263ffffffff1660e060020a0281526004018082600160a060020a0316600160a060020a0316815260200191505060206040518083038186803b15801561478657600080fd5b505af415801561479a573d6000803e3d6000fd5b505050506040513d60208110156147b057600080fd5b50518061484257506040805160e260020a630bf29505028152600160a060020a0383166004820152905173__AOLibrary_____________________________91632fca5414916024808301926020929190829003018186803b15801561481557600080fd5b505af4158015614829573d6000803e3d6000fd5b505050506040513d602081101561483f57600080fd5b50515b151561484d57600080fd5b600454600160a060020a03163314806148705750600654600160a060020a031633145b151561487b57600080fd5b614884896109d1565b1561488e57600080fd5b50505050600160a060020a0394851660009081526011602052604090208054948616600160a060020a03199586161781556001808201805495881695871695909517909455600201805474ff0000000000000000000000000000000000000000199390961695909416949094171660a060020a17909155919050565b6000614915826109d1565b151561492057600080fd5b614928614f09565b5050600160a060020a0390811660009081526011602090815260409182902082516080810184528154851680825260018301548616938201939093526002909101549384169281019290925260a060020a90920460ff16151560609091015290565b600654600160a060020a031681565b6000546001546040805160e260020a633d9abf2b028152336004820152600160a060020a0393841660248201529290911660448301525173__AOLibrary_____________________________9163f66afcac916064808301926020929190829003018186803b158015614a0b57600080fd5b505af4158015614a1f573d6000803e3d6000fd5b505050506040513d6020811015614a3557600080fd5b50511515614a4257600080fd5b600160a060020a0381161515614a5757600080fd5b60098054600160a060020a03909216600160a060020a0319928316811790915560108054909216179055565b600160a060020a0380831660008181526011602090815260408083208054878716600160a060020a03198216178255600d54835160e260020a633d5d0f130281526004810197909752925191969081169592169263f5743c4c926024808201939182900301818787803b158015614af957600080fd5b505af1158015614b0d573d6000803e3d6000fd5b505050506040513d6020811015614b2357600080fd5b5051905060008111614b3457600080fd5b601054604080517f9579b1a8000000000000000000000000000000000000000000000000000000008152600160a060020a038581166004830152888116602483015291519190921691639579b1a89160448083019260209291908290030181600087803b158015614ba457600080fd5b505af1158015614bb8573d6000803e3d6000fd5b505050506040513d6020811015614bce57600080fd5b50511515614bdb57600080fd5b825460408051600160a060020a03858116825292831660208201528082018490529051918716917f7883860d48d58f44441bf70d860a25ba5bb7f97cddbb6f0d85a3e1fe0f7f184e9181900360600190a25050505050565b600e54600354604080517f7065bedc000000000000000000000000000000000000000000000000000000008152600160a060020a03928316600482015260248101829052602060448201527f6368616c6c656e676554414f4164766f636174654c6f636b4475726174696f6e6064820152905160009384938493911691637065bedc916084808201928692909190829003018186803b158015614cd557600080fd5b505afa158015614ce9573d6000803e3d6000fd5b505050506040513d6000823e601f3d908101601f1916820160405260a0811015614d1257600080fd5b815160208301516040840151606085015160808601805194969395929491939283019291640100000000811115614d4857600080fd5b82016020810184811115614d5b57600080fd5b8151640100000000811182820187101715614d7557600080fd5b5050600e54600354604080517f7065bedc000000000000000000000000000000000000000000000000000000008152600160a060020a03928316600482018181526024808401948552604484018190529d9e5060009d949095169b50637065bedc9a5098509296509450606490910192509050614f3182396040019250505060006040518083038186803b158015614e0c57600080fd5b505afa158015614e20573d6000803e3d6000fd5b505050506040513d6000823e601f3d908101601f1916820160405260a0811015614e4957600080fd5b815160208301516040840151606085015160808601805194969395929491939283019291640100000000811115614e7f57600080fd5b82016020810184811115614e9257600080fd5b8151640100000000811182820187101715614eac57600080fd5b50999b509699505050505050505050509091565b81810182811015610a4a57fe5b6040805160e081018252600080825260208201819052918101829052606081018290526080810182905260a0810182905260c081019190915290565b6040805160808101825260008082526020820181905291810182905260608101919091529056fe6368616c6c656e676554414f4164766f63617465436f6d706c6574654475726174696f6ea165627a7a72305820ab91fea3287ae2354e401f3f355e88fd82767e4f15b47da13fdeba5e5332bd800029",
  "source": "pragma solidity ^0.5.4;\n\nimport './SafeMath.sol';\nimport './AOLibrary.sol';\nimport './TheAO.sol';\nimport './INameTAOPosition.sol';\nimport './INameFactory.sol';\nimport './INameAccountRecovery.sol';\nimport './ITAOFactory.sol';\nimport './ITAOAncestry.sol';\nimport './IAOSetting.sol';\nimport './Logos.sol';\nimport './TAO.sol';\n\n/**\n * @title NameTAOPosition\n */\ncontract NameTAOPosition is TheAO, INameTAOPosition {\n\tusing SafeMath for uint256;\n\n\taddress public settingTAOId;\n\taddress public nameFactoryAddress;\n\taddress public nameAccountRecoveryAddress;\n\taddress public taoFactoryAddress;\n\taddress public aoSettingAddress;\n\taddress public taoAncestryAddress;\n\taddress public logosAddress;\n\n\tuint256 public totalTAOAdvocateChallenges;\n\n\tINameFactory internal _nameFactory;\n\tINameAccountRecovery internal _nameAccountRecovery;\n\tITAOFactory internal _taoFactory;\n\tIAOSetting internal _aoSetting;\n\tITAOAncestry internal _taoAncestry;\n\tLogos internal _logos;\n\n\tstruct PositionDetail {\n\t\taddress advocateId;\n\t\taddress listenerId;\n\t\taddress speakerId;\n\t\tbool created;\n\t}\n\n\tstruct TAOAdvocateChallenge {\n\t\tbytes32 challengeId;\n\t\taddress newAdvocateId;\t\t// The Name ID that wants to be the new Advocate\n\t\taddress taoId;\t\t\t\t// The TAO ID being challenged\n\t\tbool completed;\t\t\t\t// Status of the challenge\n\t\tuint256 createdTimestamp;\t// Timestamp when this challenge is created\n\t\tuint256 lockedUntilTimestamp;\t// The deadline for current Advocate to respond\n\t\tuint256 completeBeforeTimestamp; // The deadline for the challenger to respond and complete the challenge\n\t}\n\n\t// Mapping from Name/TAO ID to its PositionDetail info\n\tmapping (address => PositionDetail) internal positionDetails;\n\n\t// Mapping from challengeId to TAOAdvocateChallenge info\n\tmapping (bytes32 => TAOAdvocateChallenge) internal taoAdvocateChallenges;\n\n\t// Event to be broadcasted to public when current Advocate of TAO sets New Advocate\n\tevent SetAdvocate(address indexed taoId, address oldAdvocateId, address newAdvocateId, uint256 nonce);\n\n\t// Event to be broadcasted to public when current Advocate of Name/TAO sets New Listener\n\tevent SetListener(address indexed taoId, address oldListenerId, address newListenerId, uint256 nonce);\n\n\t// Event to be broadcasted to public when current Advocate of Name/TAO sets New Speaker\n\tevent SetSpeaker(address indexed taoId, address oldSpeakerId, address newSpeakerId, uint256 nonce);\n\n\t// Event to be broadcasted to public when a Name challenges to become TAO's new Advocate\n\tevent ChallengeTAOAdvocate(address indexed taoId, bytes32 indexed challengeId, address currentAdvocateId, address challengerAdvocateId, uint256 createdTimestamp, uint256 lockedUntilTimestamp, uint256 completeBeforeTimestamp);\n\n\t// Event to be broadcasted to public when Challenger completes the TAO Advocate challenge\n\tevent CompleteTAOAdvocateChallenge(address indexed taoId, bytes32 indexed challengeId);\n\n\t/**\n\t * @dev Constructor function\n\t */\n\tconstructor(address _nameFactoryAddress, address _taoFactoryAddress) public {\n\t\tsetNameFactoryAddress(_nameFactoryAddress);\n\t\tsetTAOFactoryAddress(_taoFactoryAddress);\n\n\t\tnameTAOPositionAddress = address(this);\n\t}\n\n\t/**\n\t * @dev Checks if the calling contract address is The AO\n\t *\t\tOR\n\t *\t\tIf The AO is set to a Name/TAO, then check if calling address is the Advocate\n\t */\n\tmodifier onlyTheAO {\n\t\trequire (AOLibrary.isTheAO(msg.sender, theAO, nameTAOPositionAddress));\n\t\t_;\n\t}\n\n\t/**\n\t * @dev Check if calling address is Factory\n\t */\n\tmodifier onlyFactory {\n\t\trequire (msg.sender == nameFactoryAddress || msg.sender == taoFactoryAddress);\n\t\t_;\n\t}\n\n\t/**\n\t * @dev Check if `_taoId` is a TAO\n\t */\n\tmodifier isTAO(address _taoId) {\n\t\trequire (AOLibrary.isTAO(_taoId));\n\t\t_;\n\t}\n\n\t/**\n\t * @dev Check if `_nameId` is a Name\n\t */\n\tmodifier isName(address _nameId) {\n\t\trequire (AOLibrary.isName(_nameId));\n\t\t_;\n\t}\n\n\t/**\n\t * @dev Check if `_id` is a Name or a TAO\n\t */\n\tmodifier isNameOrTAO(address _id) {\n\t\trequire (AOLibrary.isName(_id) || AOLibrary.isTAO(_id));\n\t\t_;\n\t}\n\n\t/**\n\t * @dev Check is msg.sender address is a Name\n\t */\n\t modifier senderIsName() {\n\t\trequire (_nameFactory.ethAddressToNameId(msg.sender) != address(0));\n\t\t_;\n\t }\n\n\t/**\n\t * @dev Check if msg.sender is the current advocate of a Name/TAO ID\n\t */\n\tmodifier onlyAdvocate(address _id) {\n\t\trequire (this.senderIsAdvocate(msg.sender, _id));\n\t\t_;\n\t}\n\n\t/**\n\t * @dev Only allowed if sender's Name is not compromised\n\t */\n\tmodifier senderNameNotCompromised() {\n\t\trequire (!_nameAccountRecovery.isCompromised(_nameFactory.ethAddressToNameId(msg.sender)));\n\t\t_;\n\t}\n\n\t/***** The AO ONLY METHODS *****/\n\t/**\n\t * @dev Transfer ownership of The AO to new address\n\t * @param _theAO The new address to be transferred\n\t */\n\tfunction transferOwnership(address _theAO) public onlyTheAO {\n\t\trequire (_theAO != address(0));\n\t\ttheAO = _theAO;\n\t}\n\n\t/**\n\t * @dev Whitelist `_account` address to transact on behalf of others\n\t * @param _account The address to whitelist\n\t * @param _whitelist Either to whitelist or not\n\t */\n\tfunction setWhitelist(address _account, bool _whitelist) public onlyTheAO {\n\t\trequire (_account != address(0));\n\t\twhitelist[_account] = _whitelist;\n\t}\n\n\t/**\n\t * @dev The AO set the NameFactory Address\n\t * @param _nameFactoryAddress The address of NameFactory\n\t */\n\tfunction setNameFactoryAddress(address _nameFactoryAddress) public onlyTheAO {\n\t\trequire (_nameFactoryAddress != address(0));\n\t\tnameFactoryAddress = _nameFactoryAddress;\n\t\t_nameFactory = INameFactory(_nameFactoryAddress);\n\t}\n\n\t/**\n\t * @dev The AO set the NameAccountRecovery Address\n\t * @param _nameAccountRecoveryAddress The address of NameAccountRecovery\n\t */\n\tfunction setNameAccountRecoveryAddress(address _nameAccountRecoveryAddress) public onlyTheAO {\n\t\trequire (_nameAccountRecoveryAddress != address(0));\n\t\tnameAccountRecoveryAddress = _nameAccountRecoveryAddress;\n\t\t_nameAccountRecovery = INameAccountRecovery(nameAccountRecoveryAddress);\n\t}\n\n\t/**\n\t * @dev The AO set the TAOFactory Address\n\t * @param _taoFactoryAddress The address of TAOFactory\n\t */\n\tfunction setTAOFactoryAddress(address _taoFactoryAddress) public onlyTheAO {\n\t\trequire (_taoFactoryAddress != address(0));\n\t\ttaoFactoryAddress = _taoFactoryAddress;\n\t\t_taoFactory = ITAOFactory(_taoFactoryAddress);\n\t}\n\n\t/**\n\t * @dev The AO sets setting TAO ID\n\t * @param _settingTAOId The new setting TAO ID to set\n\t */\n\tfunction setSettingTAOId(address _settingTAOId) public onlyTheAO {\n\t\trequire (AOLibrary.isTAO(_settingTAOId));\n\t\tsettingTAOId = _settingTAOId;\n\t}\n\n\t/**\n\t * @dev The AO sets AO Setting address\n\t * @param _aoSettingAddress The address of AOSetting\n\t */\n\tfunction setAOSettingAddress(address _aoSettingAddress) public onlyTheAO {\n\t\trequire (_aoSettingAddress != address(0));\n\t\taoSettingAddress = _aoSettingAddress;\n\t\t_aoSetting = IAOSetting(_aoSettingAddress);\n\t}\n\n\t/**\n\t * @dev The AO set the TAOAncestry Address\n\t * @param _taoAncestryAddress The address of TAOAncestry\n\t */\n\tfunction setTAOAncestryAddress(address _taoAncestryAddress) public onlyTheAO {\n\t\trequire (_taoAncestryAddress != address(0));\n\t\ttaoAncestryAddress = _taoAncestryAddress;\n\t\t_taoAncestry = ITAOAncestry(taoAncestryAddress);\n\t}\n\n\t/**\n\t * @dev The AO set the logosAddress Address\n\t * @param _logosAddress The address of Logos\n\t */\n\tfunction setLogosAddress(address _logosAddress) public onlyTheAO {\n\t\trequire (_logosAddress != address(0));\n\t\tlogosAddress = _logosAddress;\n\t\t_logos = Logos(_logosAddress);\n\t}\n\n\t/***** PUBLIC METHODS *****/\n\t/**\n\t * @dev Check whether or not a Name/TAO ID exist in the list\n\t * @param _id The ID to be checked\n\t * @return true if yes, false otherwise\n\t */\n\tfunction isExist(address _id) public view returns (bool) {\n\t\treturn positionDetails[_id].created;\n\t}\n\n\t/**\n\t * @dev Check whether or not `_sender` eth address is Advocate of _id\n\t * @param _sender The eth address to check\n\t * @param _id The ID to be checked\n\t * @return true if yes, false otherwise\n\t */\n\tfunction senderIsAdvocate(address _sender, address _id) external view returns (bool) {\n\t\treturn (positionDetails[_id].created && positionDetails[_id].advocateId == _nameFactory.ethAddressToNameId(_sender));\n\t}\n\n\t/**\n\t * @dev Check whether or not `_sender` eth address is Listener of _id\n\t * @param _sender The eth address to check\n\t * @param _id The ID to be checked\n\t * @return true if yes, false otherwise\n\t */\n\tfunction senderIsListener(address _sender, address _id) external view returns (bool) {\n\t\treturn (positionDetails[_id].created && positionDetails[_id].listenerId == _nameFactory.ethAddressToNameId(_sender));\n\t}\n\n\t/**\n\t * @dev Check whether or not `_sender` eth address is Speaker of _id\n\t * @param _sender The eth address to check\n\t * @param _id The ID to be checked\n\t * @return true if yes, false otherwise\n\t */\n\tfunction senderIsSpeaker(address _sender, address _id) external view returns (bool) {\n\t\treturn (positionDetails[_id].created && positionDetails[_id].speakerId == _nameFactory.ethAddressToNameId(_sender));\n\t}\n\n\t/**\n\t * @dev Check whether or not `_sender` eth address is Advocate of Parent of _id\n\t * @param _sender The eth address to check\n\t * @param _id The ID to be checked\n\t * @return true if yes, false otherwise\n\t */\n\tfunction senderIsAdvocateOfParent(address _sender, address _id) public view returns (bool) {\n\t\t(address _parentId,,) = _taoAncestry.getAncestryById(_id);\n\t\t return ((AOLibrary.isName(_parentId) || (AOLibrary.isTAO(_parentId) && _taoAncestry.isChild(_parentId, _id))) && this.senderIsAdvocate(_sender, _parentId));\n\t}\n\n\t/**\n\t * @dev Check whether or not eth address is either Advocate/Listener/Speaker of _id\n\t * @param _sender The eth address to check\n\t * @param _id The ID to be checked\n\t * @return true if yes, false otherwise\n\t */\n\tfunction senderIsPosition(address _sender, address _id) external view returns (bool) {\n\t\taddress _nameId = _nameFactory.ethAddressToNameId(_sender);\n\t\tif (_nameId == address(0)) {\n\t\t\treturn false;\n\t\t} else {\n\t\t\treturn (positionDetails[_id].created &&\n\t\t\t\t(positionDetails[_id].advocateId == _nameId ||\n\t\t\t\t positionDetails[_id].listenerId == _nameId ||\n\t\t\t\t positionDetails[_id].speakerId == _nameId\n\t\t\t\t)\n\t\t\t);\n\t\t}\n\t}\n\n\t/**\n\t * @dev Check whether or not _nameId is advocate of _id\n\t * @param _nameId The name ID to be checked\n\t * @param _id The ID to be checked\n\t * @return true if yes, false otherwise\n\t */\n\tfunction nameIsAdvocate(address _nameId, address _id) external view returns (bool) {\n\t\treturn (positionDetails[_id].created && positionDetails[_id].advocateId == _nameId);\n\t}\n\n\t/**\n\t * @dev Determine whether or not `_sender` is Advocate/Listener/Speaker of the Name/TAO\n\t * @param _sender The ETH address that to check\n\t * @param _id The ID of the Name/TAO\n\t * @return 1 if Advocate. 2 if Listener. 3 if Speaker\n\t */\n\tfunction determinePosition(address _sender, address _id) external view returns (uint256) {\n\t\trequire (this.senderIsPosition(_sender, _id));\n\t\tPositionDetail memory _positionDetail = positionDetails[_id];\n\t\taddress _nameId = _nameFactory.ethAddressToNameId(_sender);\n\t\tif (_nameId == _positionDetail.advocateId) {\n\t\t\treturn 1;\n\t\t} else if (_nameId == _positionDetail.listenerId) {\n\t\t\treturn 2;\n\t\t} else {\n\t\t\treturn 3;\n\t\t}\n\t}\n\n\t/**\n\t * @dev Initialize Position for a Name/TAO\n\t * @param _id The ID of the Name/TAO\n\t * @param _advocateId The Advocate ID of the Name/TAO\n\t * @param _listenerId The Listener ID of the Name/TAO\n\t * @param _speakerId The Speaker ID of the Name/TAO\n\t * @return true on success\n\t */\n\tfunction initialize(address _id, address _advocateId, address _listenerId, address _speakerId)\n\t\texternal\n\t\tisNameOrTAO(_id)\n\t\tisName(_advocateId)\n\t\tisNameOrTAO(_listenerId)\n\t\tisNameOrTAO(_speakerId)\n\t\tonlyFactory returns (bool) {\n\t\trequire (!isExist(_id));\n\n\t\tPositionDetail storage _positionDetail = positionDetails[_id];\n\t\t_positionDetail.advocateId = _advocateId;\n\t\t_positionDetail.listenerId = _listenerId;\n\t\t_positionDetail.speakerId = _speakerId;\n\t\t_positionDetail.created = true;\n\t\treturn true;\n\t}\n\n\t/**\n\t * @dev Get Name/TAO's Position info\n\t * @param _id The ID of the Name/TAO\n\t * @return the Advocate name\n\t * @return the Advocate ID of Name/TAO\n\t * @return the Listener name\n\t * @return the Listener ID of Name/TAO\n\t * @return the Speaker name\n\t * @return the Speaker ID of Name/TAO\n\t */\n\tfunction getPositionById(address _id) public view returns (string memory, address, string memory, address, string memory, address) {\n\t\trequire (isExist(_id));\n\t\tPositionDetail memory _positionDetail = positionDetails[_id];\n\t\treturn (\n\t\t\tTAO(address(uint160(_positionDetail.advocateId))).name(),\n\t\t\t_positionDetail.advocateId,\n\t\t\tTAO(address(uint160(_positionDetail.listenerId))).name(),\n\t\t\t_positionDetail.listenerId,\n\t\t\tTAO(address(uint160(_positionDetail.speakerId))).name(),\n\t\t\t_positionDetail.speakerId\n\t\t);\n\t}\n\n\t/**\n\t * @dev Get Name/TAO's Advocate\n\t * @param _id The ID of the Name/TAO\n\t * @return the Advocate ID of Name/TAO\n\t */\n\tfunction getAdvocate(address _id) external view returns (address) {\n\t\trequire (isExist(_id));\n\t\tPositionDetail memory _positionDetail = positionDetails[_id];\n\t\treturn _positionDetail.advocateId;\n\t}\n\n\t/**\n\t * @dev Get Name/TAO's Listener\n\t * @param _id The ID of the Name/TAO\n\t * @return the Listener ID of Name/TAO\n\t */\n\tfunction getListener(address _id) public view returns (address) {\n\t\trequire (isExist(_id));\n\t\tPositionDetail memory _positionDetail = positionDetails[_id];\n\t\treturn _positionDetail.listenerId;\n\t}\n\n\t/**\n\t * @dev Get Name/TAO's Speaker\n\t * @param _id The ID of the Name/TAO\n\t * @return the Speaker ID of Name/TAO\n\t */\n\tfunction getSpeaker(address _id) public view returns (address) {\n\t\trequire (isExist(_id));\n\t\tPositionDetail memory _positionDetail = positionDetails[_id];\n\t\treturn _positionDetail.speakerId;\n\t}\n\n\t/**\n\t * @dev Set Advocate for a TAO\n\t * @param _taoId The ID of the TAO\n\t * @param _newAdvocateId The new advocate ID to be set\n\t */\n\tfunction setAdvocate(address _taoId, address _newAdvocateId)\n\t\tpublic\n\t\tisTAO(_taoId)\n\t\tisName(_newAdvocateId)\n\t\tonlyAdvocate(_taoId)\n\t\tsenderIsName\n\t\tsenderNameNotCompromised {\n\t\trequire (isExist(_taoId));\n\t\t// Make sure the newAdvocate is not compromised\n\t\trequire (!_nameAccountRecovery.isCompromised(_newAdvocateId));\n\t\t_setAdvocate(_taoId, _newAdvocateId);\n\t}\n\n\t/**\n\t * Only Advocate of Parent of `_taoId` can replace child `_taoId` 's Advocate with himself\n\t * @param _taoId The ID of the TAO\n\t */\n\tfunction parentReplaceChildAdvocate(address _taoId)\n\t\tpublic\n\t\tisTAO(_taoId)\n\t\tsenderIsName\n\t\tsenderNameNotCompromised {\n\t\trequire (isExist(_taoId));\n\t\trequire (senderIsAdvocateOfParent(msg.sender, _taoId));\n\t\taddress _parentNameId = _nameFactory.ethAddressToNameId(msg.sender);\n\t\taddress _currentAdvocateId = this.getAdvocate(_taoId);\n\n\t\t// Make sure it's not replacing itself\n\t\trequire (_parentNameId != _currentAdvocateId);\n\n\t\t// Parent has to have more Logos than current Advocate\n\t\trequire (_logos.sumBalanceOf(_parentNameId) > _logos.sumBalanceOf(this.getAdvocate(_taoId)));\n\n\t\t_setAdvocate(_taoId, _parentNameId);\n\t}\n\n\t/**\n\t * A Name challenges current TAO's Advocate to be its new Advocate\n\t * @param _taoId The ID of the TAO\n\t */\n\tfunction challengeTAOAdvocate(address _taoId)\n\t\tpublic\n\t\tisTAO(_taoId)\n\t\tsenderIsName\n\t\tsenderNameNotCompromised {\n\t\trequire (isExist(_taoId));\n\t\taddress _newAdvocateId = _nameFactory.ethAddressToNameId(msg.sender);\n\t\taddress _currentAdvocateId = this.getAdvocate(_taoId);\n\n\t\t// Make sure it's not challenging itself\n\t\trequire (_newAdvocateId != _currentAdvocateId);\n\n\t\t// New Advocate has to have more Logos than current Advocate\n\t\trequire (_logos.sumBalanceOf(_newAdvocateId) > _logos.sumBalanceOf(_currentAdvocateId));\n\n\t\t(uint256 _lockDuration, uint256 _completeDuration) = _getSettingVariables();\n\n\t\ttotalTAOAdvocateChallenges++;\n\t\tbytes32 _challengeId = keccak256(abi.encodePacked(this, _taoId, _newAdvocateId, totalTAOAdvocateChallenges));\n\t\tTAOAdvocateChallenge storage _taoAdvocateChallenge = taoAdvocateChallenges[_challengeId];\n\t\t_taoAdvocateChallenge.challengeId = _challengeId;\n\t\t_taoAdvocateChallenge.newAdvocateId = _newAdvocateId;\n\t\t_taoAdvocateChallenge.taoId = _taoId;\n\t\t_taoAdvocateChallenge.createdTimestamp = now;\n\t\t_taoAdvocateChallenge.lockedUntilTimestamp = _taoAdvocateChallenge.createdTimestamp.add(_lockDuration);\n\t\t_taoAdvocateChallenge.completeBeforeTimestamp = _taoAdvocateChallenge.lockedUntilTimestamp.add(_completeDuration);\n\n\t\temit ChallengeTAOAdvocate(_taoId, _challengeId, _currentAdvocateId, _newAdvocateId, _taoAdvocateChallenge.createdTimestamp, _taoAdvocateChallenge.lockedUntilTimestamp, _taoAdvocateChallenge.completeBeforeTimestamp);\n\t}\n\n\t/**\n\t * Get status of a TAOAdvocateChallenge given a `_challengeId` and a `_sender` eth address\n\t * @param _challengeId The ID of TAOAdvocateChallenge\n\t * @param _sender The sender address\n\t * @return status of the challenge\n\t *\t\t1 = Can complete challenge\n\t *\t\t2 = Challenge not exist\n\t *\t\t3 = Sender is not the creator of the challenge\n\t *\t\t4 = Transaction is not in the allowed period of time\n\t *\t\t5 = Challenge has been completed\n\t *\t\t6 = Challenger has less Logos than current Advocate of TAO\n\t */\n\tfunction getChallengeStatus(bytes32 _challengeId, address _sender) public view returns (uint8) {\n\t\taddress _challengerNameId = _nameFactory.ethAddressToNameId(_sender);\n\t\tTAOAdvocateChallenge storage _taoAdvocateChallenge = taoAdvocateChallenges[_challengeId];\n\n\t\t// If the challenge does not exist\n\t\tif (_taoAdvocateChallenge.taoId == address(0)) {\n\t\t\treturn 2;\n\t\t} else if (_challengerNameId != _taoAdvocateChallenge.newAdvocateId) {\n\t\t\t// If the calling address is not the creator of the challenge\n\t\t\treturn 3;\n\t\t} else if (now < _taoAdvocateChallenge.lockedUntilTimestamp || now > _taoAdvocateChallenge.completeBeforeTimestamp) {\n\t\t\t// If this transaction is not in the allowed period of time\n\t\t\treturn 4;\n\t\t} else if (_taoAdvocateChallenge.completed) {\n\t\t\t// If the challenge has been completed\n\t\t\treturn 5;\n\t\t} else if (_logos.sumBalanceOf(_challengerNameId) <= _logos.sumBalanceOf(this.getAdvocate(_taoAdvocateChallenge.taoId))) {\n\t\t\t// If challenger has less Logos than current Advocate of TAO\n\t\t\treturn 6;\n\t\t} else {\n\t\t\t// Can complete!\n\t\t\treturn 1;\n\t\t}\n\t}\n\n\t/**\n\t * Only owner of challenge can respond and complete of the challenge\n\t * @param _challengeId The ID of the TAOAdvocateChallenge\n\t */\n\tfunction completeTAOAdvocateChallenge(bytes32 _challengeId)\n\t\tpublic\n\t\tsenderIsName\n\t\tsenderNameNotCompromised {\n\t\tTAOAdvocateChallenge storage _taoAdvocateChallenge = taoAdvocateChallenges[_challengeId];\n\n\t\t// Make sure the challenger can complete this challenge\n\t\trequire (getChallengeStatus(_challengeId, msg.sender) == 1);\n\n\t\t_taoAdvocateChallenge.completed = true;\n\n\t\t_setAdvocate(_taoAdvocateChallenge.taoId, _taoAdvocateChallenge.newAdvocateId);\n\n\t\temit CompleteTAOAdvocateChallenge(_taoAdvocateChallenge.taoId, _challengeId);\n\t}\n\n\t/**\n\t * @dev Get TAOAdvocateChallenge info given an ID\n\t * @param _challengeId The ID of TAOAdvocateChallenge\n\t * @return the new Advocate ID in the challenge\n\t * @return the ID of Name/TAO\n\t * @return the completion status of the challenge\n\t * @return the created timestamp\n\t * @return the lockedUntil timestamp (The deadline for current Advocate to respond)\n\t * @return the completeBefore timestamp (The deadline for the challenger to respond and complete the challenge)\n\t */\n\tfunction getTAOAdvocateChallengeById(bytes32 _challengeId) public view returns (address, address, bool, uint256, uint256, uint256) {\n\t\tTAOAdvocateChallenge memory _taoAdvocateChallenge = taoAdvocateChallenges[_challengeId];\n\t\trequire (_taoAdvocateChallenge.taoId != address(0));\n\t\treturn (\n\t\t\t_taoAdvocateChallenge.newAdvocateId,\n\t\t\t_taoAdvocateChallenge.taoId,\n\t\t\t_taoAdvocateChallenge.completed,\n\t\t\t_taoAdvocateChallenge.createdTimestamp,\n\t\t\t_taoAdvocateChallenge.lockedUntilTimestamp,\n\t\t\t_taoAdvocateChallenge.completeBeforeTimestamp\n\t\t);\n\t}\n\n\t/**\n\t * @dev Set Listener for a Name/TAO\n\t * @param _id The ID of the Name/TAO\n\t * @param _newListenerId The new listener ID to be set\n\t */\n\tfunction setListener(address _id, address _newListenerId)\n\t\tpublic\n\t\tisNameOrTAO(_id)\n\t\tisNameOrTAO(_newListenerId)\n\t\tsenderIsName\n\t\tsenderNameNotCompromised\n\t\tonlyAdvocate(_id) {\n\t\trequire (isExist(_id));\n\n\t\t// If _id is a Name, then new Listener can only be a Name\n\t\t// If _id is a TAO, then new Listener can be a TAO/Name\n\t\tbool _isName = false;\n\t\tif (AOLibrary.isName(_id)) {\n\t\t\t_isName = true;\n\t\t\trequire (AOLibrary.isName(_newListenerId));\n\t\t\trequire (!_nameAccountRecovery.isCompromised(_id));\n\t\t\trequire (!_nameAccountRecovery.isCompromised(_newListenerId));\n\t\t}\n\n\t\tPositionDetail storage _positionDetail = positionDetails[_id];\n\t\taddress _currentListenerId = _positionDetail.listenerId;\n\t\t_positionDetail.listenerId = _newListenerId;\n\n\t\tuint256 _nonce;\n\t\tif (_isName) {\n\t\t\t_nonce = _nameFactory.incrementNonce(_id);\n\t\t} else {\n\t\t\t_nonce = _taoFactory.incrementNonce(_id);\n\t\t}\n\t\temit SetListener(_id, _currentListenerId, _positionDetail.listenerId, _nonce);\n\t}\n\n\t/**\n\t * @dev Set Speaker for a Name/TAO\n\t * @param _id The ID of the Name/TAO\n\t * @param _newSpeakerId The new speaker ID to be set\n\t */\n\tfunction setSpeaker(address _id, address _newSpeakerId)\n\t\tpublic\n\t\tisNameOrTAO(_id)\n\t\tisNameOrTAO(_newSpeakerId)\n\t\tsenderIsName\n\t\tsenderNameNotCompromised\n\t\tonlyAdvocate(_id) {\n\t\trequire (isExist(_id));\n\n\t\t// If _id is a Name, then new Speaker can only be a Name\n\t\t// If _id is a TAO, then new Speaker can be a TAO/Name\n\t\tbool _isName = false;\n\t\tif (AOLibrary.isName(_id)) {\n\t\t\t_isName = true;\n\t\t\trequire (AOLibrary.isName(_newSpeakerId));\n\t\t\trequire (!_nameAccountRecovery.isCompromised(_id));\n\t\t\trequire (!_nameAccountRecovery.isCompromised(_newSpeakerId));\n\t\t}\n\n\t\tPositionDetail storage _positionDetail = positionDetails[_id];\n\t\taddress _currentSpeakerId = _positionDetail.speakerId;\n\t\t_positionDetail.speakerId = _newSpeakerId;\n\n\t\tuint256 _nonce;\n\t\tif (_isName) {\n\t\t\t_nonce = _nameFactory.incrementNonce(_id);\n\t\t} else {\n\t\t\t_nonce = _taoFactory.incrementNonce(_id);\n\t\t}\n\t\temit SetSpeaker(_id, _currentSpeakerId, _positionDetail.speakerId, _nonce);\n\t}\n\n\t/***** INTERNAL METHOD *****/\n\t/**\n\t * @dev Actually setting Advocate for a TAO\n\t * @param _taoId The ID of the TAO\n\t * @param _newAdvocateId The new advocate ID to be set\n\t */\n\tfunction _setAdvocate(address _taoId, address _newAdvocateId) internal {\n\t\tPositionDetail storage _positionDetail = positionDetails[_taoId];\n\t\taddress _currentAdvocateId = _positionDetail.advocateId;\n\t\t_positionDetail.advocateId = _newAdvocateId;\n\n\t\tuint256 _nonce = _taoFactory.incrementNonce(_taoId);\n\t\trequire (_nonce > 0);\n\n\t\t// Transfer Advocated TAO Logos to the new Advocate\n\t\trequire (_logos.transferAdvocatedTAOLogos(_currentAdvocateId, _taoId));\n\n\t\temit SetAdvocate(_taoId, _currentAdvocateId, _positionDetail.advocateId, _nonce);\n\t}\n\n\t/**\n\t * @dev Get setting variables\n\t * @return challengeTAOAdvocateLockDuration = The amount of time for current Advocate to respond to TAO Advocate challenge from another Name\n\t * @return challengeTAOAdvocateCompleteDuration = The amount of time for challenger Advocate to respond and complete the challenge after the lock period ends\n\t */\n\tfunction _getSettingVariables() internal view returns (uint256, uint256) {\n\t\t(uint256 challengeTAOAdvocateLockDuration,,,,) = _aoSetting.getSettingValuesByTAOName(settingTAOId, 'challengeTAOAdvocateLockDuration');\n\t\t(uint256 challengeTAOAdvocateCompleteDuration,,,,) = _aoSetting.getSettingValuesByTAOName(settingTAOId, 'challengeTAOAdvocateCompleteDuration');\n\n\t\treturn (\n\t\t\tchallengeTAOAdvocateLockDuration,\n\t\t\tchallengeTAOAdvocateCompleteDuration\n\t\t);\n\t}\n}\n",
  "sourcePath": "/usr/local/ao-contracts/contracts/NameTAOPosition.sol",
  "compiler": {
    "name": "solc",
    "version": "0.5.4+commit.9549d8ff.Emscripten.clang"
  },
  "schemaVersion": "3.0.2",
  "updatedAt": "2019-03-21T02:41:21.520Z",
  "devdoc": {
    "methods": {
      "challengeTAOAdvocate(address)": {
        "params": {
          "_taoId": "The ID of the TAO"
        }
      },
      "completeTAOAdvocateChallenge(bytes32)": {
        "params": {
          "_challengeId": "The ID of the TAOAdvocateChallenge"
        }
      },
      "constructor": {
        "details": "Constructor function"
      },
      "determinePosition(address,address)": {
        "details": "Determine whether or not `_sender` is Advocate/Listener/Speaker of the Name/TAO",
        "params": {
          "_id": "The ID of the Name/TAO",
          "_sender": "The ETH address that to check"
        },
        "return": "1 if Advocate. 2 if Listener. 3 if Speaker"
      },
      "getAdvocate(address)": {
        "details": "Get Name/TAO's Advocate",
        "params": {
          "_id": "The ID of the Name/TAO"
        },
        "return": "the Advocate ID of Name/TAO"
      },
      "getChallengeStatus(bytes32,address)": {
        "params": {
          "_challengeId": "The ID of TAOAdvocateChallenge",
          "_sender": "The sender address"
        },
        "return": "status of the challenge\t1 = Can complete challenge\t2 = Challenge not exist\t3 = Sender is not the creator of the challenge\t4 = Transaction is not in the allowed period of time\t5 = Challenge has been completed\t6 = Challenger has less Logos than current Advocate of TAO"
      },
      "getListener(address)": {
        "details": "Get Name/TAO's Listener",
        "params": {
          "_id": "The ID of the Name/TAO"
        },
        "return": "the Listener ID of Name/TAO"
      },
      "getPositionById(address)": {
        "details": "Get Name/TAO's Position info",
        "params": {
          "_id": "The ID of the Name/TAO"
        },
        "return": "the Advocate namethe Advocate ID of Name/TAOthe Listener namethe Listener ID of Name/TAOthe Speaker namethe Speaker ID of Name/TAO"
      },
      "getSpeaker(address)": {
        "details": "Get Name/TAO's Speaker",
        "params": {
          "_id": "The ID of the Name/TAO"
        },
        "return": "the Speaker ID of Name/TAO"
      },
      "getTAOAdvocateChallengeById(bytes32)": {
        "details": "Get TAOAdvocateChallenge info given an ID",
        "params": {
          "_challengeId": "The ID of TAOAdvocateChallenge"
        },
        "return": "the new Advocate ID in the challengethe ID of Name/TAOthe completion status of the challengethe created timestampthe lockedUntil timestamp (The deadline for current Advocate to respond)the completeBefore timestamp (The deadline for the challenger to respond and complete the challenge)"
      },
      "initialize(address,address,address,address)": {
        "details": "Initialize Position for a Name/TAO",
        "params": {
          "_advocateId": "The Advocate ID of the Name/TAO",
          "_id": "The ID of the Name/TAO",
          "_listenerId": "The Listener ID of the Name/TAO",
          "_speakerId": "The Speaker ID of the Name/TAO"
        },
        "return": "true on success"
      },
      "isExist(address)": {
        "details": "Check whether or not a Name/TAO ID exist in the list",
        "params": {
          "_id": "The ID to be checked"
        },
        "return": "true if yes, false otherwise"
      },
      "nameIsAdvocate(address,address)": {
        "details": "Check whether or not _nameId is advocate of _id",
        "params": {
          "_id": "The ID to be checked",
          "_nameId": "The name ID to be checked"
        },
        "return": "true if yes, false otherwise"
      },
      "parentReplaceChildAdvocate(address)": {
        "params": {
          "_taoId": "The ID of the TAO"
        }
      },
      "senderIsAdvocate(address,address)": {
        "details": "Check whether or not `_sender` eth address is Advocate of _id",
        "params": {
          "_id": "The ID to be checked",
          "_sender": "The eth address to check"
        },
        "return": "true if yes, false otherwise"
      },
      "senderIsAdvocateOfParent(address,address)": {
        "details": "Check whether or not `_sender` eth address is Advocate of Parent of _id",
        "params": {
          "_id": "The ID to be checked",
          "_sender": "The eth address to check"
        },
        "return": "true if yes, false otherwise"
      },
      "senderIsListener(address,address)": {
        "details": "Check whether or not `_sender` eth address is Listener of _id",
        "params": {
          "_id": "The ID to be checked",
          "_sender": "The eth address to check"
        },
        "return": "true if yes, false otherwise"
      },
      "senderIsPosition(address,address)": {
        "details": "Check whether or not eth address is either Advocate/Listener/Speaker of _id",
        "params": {
          "_id": "The ID to be checked",
          "_sender": "The eth address to check"
        },
        "return": "true if yes, false otherwise"
      },
      "senderIsSpeaker(address,address)": {
        "details": "Check whether or not `_sender` eth address is Speaker of _id",
        "params": {
          "_id": "The ID to be checked",
          "_sender": "The eth address to check"
        },
        "return": "true if yes, false otherwise"
      },
      "setAOSettingAddress(address)": {
        "details": "The AO sets AO Setting address",
        "params": {
          "_aoSettingAddress": "The address of AOSetting"
        }
      },
      "setAdvocate(address,address)": {
        "details": "Set Advocate for a TAO",
        "params": {
          "_newAdvocateId": "The new advocate ID to be set",
          "_taoId": "The ID of the TAO"
        }
      },
      "setListener(address,address)": {
        "details": "Set Listener for a Name/TAO",
        "params": {
          "_id": "The ID of the Name/TAO",
          "_newListenerId": "The new listener ID to be set"
        }
      },
      "setLogosAddress(address)": {
        "details": "The AO set the logosAddress Address",
        "params": {
          "_logosAddress": "The address of Logos"
        }
      },
      "setNameAccountRecoveryAddress(address)": {
        "details": "The AO set the NameAccountRecovery Address",
        "params": {
          "_nameAccountRecoveryAddress": "The address of NameAccountRecovery"
        }
      },
      "setNameFactoryAddress(address)": {
        "details": "The AO set the NameFactory Address",
        "params": {
          "_nameFactoryAddress": "The address of NameFactory"
        }
      },
      "setSettingTAOId(address)": {
        "details": "The AO sets setting TAO ID",
        "params": {
          "_settingTAOId": "The new setting TAO ID to set"
        }
      },
      "setSpeaker(address,address)": {
        "details": "Set Speaker for a Name/TAO",
        "params": {
          "_id": "The ID of the Name/TAO",
          "_newSpeakerId": "The new speaker ID to be set"
        }
      },
      "setTAOAncestryAddress(address)": {
        "details": "The AO set the TAOAncestry Address",
        "params": {
          "_taoAncestryAddress": "The address of TAOAncestry"
        }
      },
      "setTAOFactoryAddress(address)": {
        "details": "The AO set the TAOFactory Address",
        "params": {
          "_taoFactoryAddress": "The address of TAOFactory"
        }
      },
      "setWhitelist(address,bool)": {
        "details": "Whitelist `_account` address to transact on behalf of others",
        "params": {
          "_account": "The address to whitelist",
          "_whitelist": "Either to whitelist or not"
        }
      },
      "transferOwnership(address)": {
        "details": "Transfer ownership of The AO to new address",
        "params": {
          "_theAO": "The new address to be transferred"
        }
      }
    },
    "title": "NameTAOPosition"
  },
  "userdoc": {
    "methods": {
      "challengeTAOAdvocate(address)": {
        "notice": "A Name challenges current TAO's Advocate to be its new Advocate"
      },
      "completeTAOAdvocateChallenge(bytes32)": {
        "notice": "Only owner of challenge can respond and complete of the challenge"
      },
      "getChallengeStatus(bytes32,address)": {
        "notice": "Get status of a TAOAdvocateChallenge given a `_challengeId` and a `_sender` eth address"
      },
      "parentReplaceChildAdvocate(address)": {
        "notice": "Only Advocate of Parent of `_taoId` can replace child `_taoId` 's Advocate with himself"
      }
    }
  }
}