{
	"contractName": "NameFactory",
	"abi": [
		{
			"constant": true,
			"inputs": [
				{
					"name": "",
					"type": "address"
				}
			],
			"name": "ethAddressToNameId",
			"outputs": [
				{
					"name": "",
					"type": "address"
				}
			],
			"payable": false,
			"stateMutability": "view",
			"type": "function"
		},
		{
			"constant": true,
			"inputs": [],
			"name": "aoDevTeam1",
			"outputs": [
				{
					"name": "",
					"type": "address"
				}
			],
			"payable": false,
			"stateMutability": "view",
			"type": "function"
		},
		{
			"constant": false,
			"inputs": [
				{
					"name": "_account",
					"type": "address"
				},
				{
					"name": "_whitelist",
					"type": "bool"
				}
			],
			"name": "setWhitelist",
			"outputs": [],
			"payable": false,
			"stateMutability": "nonpayable",
			"type": "function"
		},
		{
			"constant": true,
			"inputs": [],
			"name": "positionAddress",
			"outputs": [
				{
					"name": "",
					"type": "address"
				}
			],
			"payable": false,
			"stateMutability": "view",
			"type": "function"
		},
		{
			"constant": true,
			"inputs": [
				{
					"name": "",
					"type": "address"
				}
			],
			"name": "whitelist",
			"outputs": [
				{
					"name": "",
					"type": "bool"
				}
			],
			"payable": false,
			"stateMutability": "view",
			"type": "function"
		},
		{
			"constant": true,
			"inputs": [],
			"name": "aoDevTeam2",
			"outputs": [
				{
					"name": "",
					"type": "address"
				}
			],
			"payable": false,
			"stateMutability": "view",
			"type": "function"
		},
		{
			"constant": false,
			"inputs": [
				{
					"name": "_aoDevTeam1",
					"type": "address"
				},
				{
					"name": "_aoDevTeam2",
					"type": "address"
				}
			],
			"name": "setAODevTeamAddresses",
			"outputs": [],
			"payable": false,
			"stateMutability": "nonpayable",
			"type": "function"
		},
		{
			"constant": true,
			"inputs": [],
			"name": "developer",
			"outputs": [
				{
					"name": "",
					"type": "address"
				}
			],
			"payable": false,
			"stateMutability": "view",
			"type": "function"
		},
		{
			"constant": false,
			"inputs": [
				{
					"name": "newDeveloper",
					"type": "address"
				}
			],
			"name": "transferOwnership",
			"outputs": [],
			"payable": false,
			"stateMutability": "nonpayable",
			"type": "function"
		},
		{
			"constant": true,
			"inputs": [],
			"name": "taoFactoryAddress",
			"outputs": [
				{
					"name": "",
					"type": "address"
				}
			],
			"payable": false,
			"stateMutability": "view",
			"type": "function"
		},
		{
			"inputs": [
				{
					"name": "_positionAddress",
					"type": "address"
				}
			],
			"payable": false,
			"stateMutability": "nonpayable",
			"type": "constructor"
		},
		{
			"anonymous": false,
			"inputs": [
				{
					"indexed": true,
					"name": "ethAddress",
					"type": "address"
				},
				{
					"indexed": false,
					"name": "nameId",
					"type": "address"
				},
				{
					"indexed": false,
					"name": "index",
					"type": "uint256"
				},
				{
					"indexed": false,
					"name": "username",
					"type": "string"
				}
			],
			"name": "CreateName",
			"type": "event"
		},
		{
			"anonymous": false,
			"inputs": [
				{
					"indexed": true,
					"name": "nameId",
					"type": "address"
				},
				{
					"indexed": false,
					"name": "oldListenerId",
					"type": "address"
				},
				{
					"indexed": false,
					"name": "newListenerId",
					"type": "address"
				},
				{
					"indexed": false,
					"name": "nonce",
					"type": "uint256"
				}
			],
			"name": "SetNameListener",
			"type": "event"
		},
		{
			"anonymous": false,
			"inputs": [
				{
					"indexed": true,
					"name": "nameId",
					"type": "address"
				},
				{
					"indexed": false,
					"name": "oldSpeakerId",
					"type": "address"
				},
				{
					"indexed": false,
					"name": "newSpeakerId",
					"type": "address"
				},
				{
					"indexed": false,
					"name": "nonce",
					"type": "uint256"
				}
			],
			"name": "SetNameSpeaker",
			"type": "event"
		},
		{
			"anonymous": false,
			"inputs": [
				{
					"indexed": true,
					"name": "nameId",
					"type": "address"
				},
				{
					"indexed": false,
					"name": "publicKey",
					"type": "address"
				},
				{
					"indexed": false,
					"name": "nonce",
					"type": "uint256"
				}
			],
			"name": "AddNamePublicKey",
			"type": "event"
		},
		{
			"anonymous": false,
			"inputs": [
				{
					"indexed": true,
					"name": "nameId",
					"type": "address"
				},
				{
					"indexed": false,
					"name": "publicKey",
					"type": "address"
				},
				{
					"indexed": false,
					"name": "nonce",
					"type": "uint256"
				}
			],
			"name": "DeleteNamePublicKey",
			"type": "event"
		},
		{
			"anonymous": false,
			"inputs": [
				{
					"indexed": true,
					"name": "nameId",
					"type": "address"
				},
				{
					"indexed": false,
					"name": "publicKey",
					"type": "address"
				},
				{
					"indexed": false,
					"name": "nonce",
					"type": "uint256"
				}
			],
			"name": "SetNameDefaultPublicKey",
			"type": "event"
		},
		{
			"constant": false,
			"inputs": [
				{
					"name": "_taoFactoryAddress",
					"type": "address"
				}
			],
			"name": "setTAOFactoryAddress",
			"outputs": [],
			"payable": false,
			"stateMutability": "nonpayable",
			"type": "function"
		},
		{
			"constant": true,
			"inputs": [
				{
					"name": "_username",
					"type": "string"
				}
			],
			"name": "isUsernameExist",
			"outputs": [
				{
					"name": "",
					"type": "bool"
				}
			],
			"payable": false,
			"stateMutability": "view",
			"type": "function"
		},
		{
			"constant": false,
			"inputs": [
				{
					"name": "_username",
					"type": "string"
				},
				{
					"name": "_datHash",
					"type": "string"
				},
				{
					"name": "_database",
					"type": "string"
				},
				{
					"name": "_keyValue",
					"type": "string"
				},
				{
					"name": "_contentId",
					"type": "bytes32"
				}
			],
			"name": "createName",
			"outputs": [],
			"payable": false,
			"stateMutability": "nonpayable",
			"type": "function"
		},
		{
			"constant": true,
			"inputs": [
				{
					"name": "_nameId",
					"type": "address"
				}
			],
			"name": "getName",
			"outputs": [
				{
					"name": "",
					"type": "string"
				},
				{
					"name": "",
					"type": "address"
				},
				{
					"name": "",
					"type": "string"
				},
				{
					"name": "",
					"type": "string"
				},
				{
					"name": "",
					"type": "string"
				},
				{
					"name": "",
					"type": "bytes32"
				},
				{
					"name": "",
					"type": "uint8"
				},
				{
					"name": "",
					"type": "address"
				},
				{
					"name": "",
					"type": "uint256"
				}
			],
			"payable": false,
			"stateMutability": "view",
			"type": "function"
		},
		{
			"constant": true,
			"inputs": [
				{
					"name": "_nameId",
					"type": "address"
				}
			],
			"name": "getNamePosition",
			"outputs": [
				{
					"name": "",
					"type": "address"
				},
				{
					"name": "",
					"type": "address"
				},
				{
					"name": "",
					"type": "address"
				}
			],
			"payable": false,
			"stateMutability": "view",
			"type": "function"
		},
		{
			"constant": true,
			"inputs": [
				{
					"name": "_username",
					"type": "string"
				}
			],
			"name": "getNameIdByUsername",
			"outputs": [
				{
					"name": "",
					"type": "address"
				}
			],
			"payable": false,
			"stateMutability": "view",
			"type": "function"
		},
		{
			"constant": true,
			"inputs": [],
			"name": "getTotalNamesCount",
			"outputs": [
				{
					"name": "",
					"type": "uint256"
				}
			],
			"payable": false,
			"stateMutability": "view",
			"type": "function"
		},
		{
			"constant": true,
			"inputs": [
				{
					"name": "_from",
					"type": "uint256"
				},
				{
					"name": "_to",
					"type": "uint256"
				}
			],
			"name": "getNameIds",
			"outputs": [
				{
					"name": "",
					"type": "address[]"
				}
			],
			"payable": false,
			"stateMutability": "view",
			"type": "function"
		},
		{
			"constant": false,
			"inputs": [
				{
					"name": "_nameId",
					"type": "address"
				},
				{
					"name": "_newListenerId",
					"type": "address"
				}
			],
			"name": "setNameListener",
			"outputs": [],
			"payable": false,
			"stateMutability": "nonpayable",
			"type": "function"
		},
		{
			"constant": false,
			"inputs": [
				{
					"name": "_nameId",
					"type": "address"
				},
				{
					"name": "_newSpeakerId",
					"type": "address"
				}
			],
			"name": "setNameSpeaker",
			"outputs": [],
			"payable": false,
			"stateMutability": "nonpayable",
			"type": "function"
		},
		{
			"constant": true,
			"inputs": [
				{
					"name": "_nameId",
					"type": "address"
				}
			],
			"name": "getNameRelationship",
			"outputs": [
				{
					"name": "",
					"type": "address"
				},
				{
					"name": "",
					"type": "address"
				},
				{
					"name": "",
					"type": "address"
				}
			],
			"payable": false,
			"stateMutability": "view",
			"type": "function"
		},
		{
			"constant": true,
			"inputs": [
				{
					"name": "_nameId",
					"type": "address"
				}
			],
			"name": "getNameTotalPublicKeysCount",
			"outputs": [
				{
					"name": "",
					"type": "uint256"
				}
			],
			"payable": false,
			"stateMutability": "view",
			"type": "function"
		},
		{
			"constant": true,
			"inputs": [
				{
					"name": "_nameId",
					"type": "address"
				},
				{
					"name": "_from",
					"type": "uint256"
				},
				{
					"name": "_to",
					"type": "uint256"
				}
			],
			"name": "getNamePublicKeys",
			"outputs": [
				{
					"name": "",
					"type": "address[]"
				}
			],
			"payable": false,
			"stateMutability": "view",
			"type": "function"
		},
		{
			"constant": true,
			"inputs": [
				{
					"name": "_nameId",
					"type": "address"
				},
				{
					"name": "_publicKey",
					"type": "address"
				}
			],
			"name": "isNamePublicKeyExist",
			"outputs": [
				{
					"name": "",
					"type": "bool"
				}
			],
			"payable": false,
			"stateMutability": "view",
			"type": "function"
		},
		{
			"constant": false,
			"inputs": [
				{
					"name": "_nameId",
					"type": "address"
				},
				{
					"name": "_publicKey",
					"type": "address"
				}
			],
			"name": "addNamePublicKey",
			"outputs": [],
			"payable": false,
			"stateMutability": "nonpayable",
			"type": "function"
		},
		{
			"constant": false,
			"inputs": [
				{
					"name": "_nameId",
					"type": "address"
				},
				{
					"name": "_publicKey",
					"type": "address"
				}
			],
			"name": "deleteNamePublicKey",
			"outputs": [],
			"payable": false,
			"stateMutability": "nonpayable",
			"type": "function"
		},
		{
			"constant": false,
			"inputs": [
				{
					"name": "_nameId",
					"type": "address"
				},
				{
					"name": "_publicKey",
					"type": "address"
				},
				{
					"name": "_signatureV",
					"type": "uint8"
				},
				{
					"name": "_signatureR",
					"type": "bytes32"
				},
				{
					"name": "_signatureS",
					"type": "bytes32"
				}
			],
			"name": "setNameDefaultPublicKey",
			"outputs": [],
			"payable": false,
			"stateMutability": "nonpayable",
			"type": "function"
		},
		{
			"constant": true,
			"inputs": [
				{
					"name": "_data",
					"type": "string"
				},
				{
					"name": "_nonce",
					"type": "uint256"
				},
				{
					"name": "_validateAddress",
					"type": "address"
				},
				{
					"name": "_username",
					"type": "string"
				},
				{
					"name": "_signatureV",
					"type": "uint8"
				},
				{
					"name": "_signatureR",
					"type": "bytes32"
				},
				{
					"name": "_signatureS",
					"type": "bytes32"
				}
			],
			"name": "validateNameSignature",
			"outputs": [
				{
					"name": "",
					"type": "bool"
				}
			],
			"payable": false,
			"stateMutability": "view",
			"type": "function"
		}
	],
	"bytecode": "0x608060405260018054600160a060020a0319908116735c63644d01ba385ebac5bcf2ddc1e6dbc1182b52179091556002805490911673156c79bf4347d1891da834ea30662a14177cbf2817905534801561005857600080fd5b50604051602080614dfc83398101604052516000805433600160a060020a0319918216178255600480548216600160a060020a0394851617908190556006805491909416911617909155614d4a9081906100b290396000f3006080604052600436106200016d5763ffffffff60e060020a600035041663029b7d5381146200017257806315227aa714620001b25780631742107c14620001ca5780632191207a146200022657806329ead541146200024c5780632d1bf69e14620002765780632f59d16914620002a057806333535f8414620002ca5780633acb82891462000346578063419e6e5c14620003955780634c4351cf14620003bf57806353d6fd5914620003e35780635fd4b08a146200040c578063636a8bd7146200063b5780636ea74a761462000653578063743ab53814620006c35780638850694014620007825780638b4031af14620007b85780639b19251a14620007e2578063a7eb2f681462000806578063a99433a6146200082a578063b24626e91462000842578063c92a252f146200086c578063ca4b208b1462000896578063e9233a6514620008ae578063f2fde38b14620008cc578063f46da08414620008f0578063ff0374b51462000a08575b600080fd5b3480156200017f57600080fd5b5062000196600160a060020a036004351662000a20565b60408051600160a060020a039092168252519081900360200190f35b348015620001bf57600080fd5b506200019662000a3b565b348015620001d757600080fd5b506040805160206004803580820135601f81018490048402850184019095528484526200019694369492936024939284019190819084018382808284375094975062000a4a9650505050505050565b3480156200023357600080fd5b506200024a600160a060020a036004351662000b34565b005b3480156200025957600080fd5b506200024a600160a060020a036004358116906024351662000b9e565b3480156200028357600080fd5b506200024a600160a060020a036004358116906024351662000dc8565b348015620002ad57600080fd5b506200024a600160a060020a03600435811690602435166200111e565b348015620002d757600080fd5b50620002f4600160a060020a036004351660243560443562001348565b60408051602080825283518183015283519192839290830191858101910280838360005b838110156200033257818101518382015260200162000318565b505050509050019250505060405180910390f35b3480156200035357600080fd5b506200036a600160a060020a0360043516620014d5565b60408051600160a060020a039485168152928416602084015292168183015290519081900360600190f35b348015620003a257600080fd5b50620003ad6200166d565b60408051918252519081900360200190f35b348015620003cc57600080fd5b506200036a600160a060020a036004351662001673565b348015620003f057600080fd5b506200024a600160a060020a03600435166024351515620017cf565b3480156200041957600080fd5b5062000430600160a060020a036004351662001812565b60405180806020018a600160a060020a0316600160a060020a0316815260200180602001806020018060200189600019166000191681526020018860ff1660ff16815260200187600160a060020a0316600160a060020a0316815260200186815260200185810385528e818151815260200191508051906020019080838360005b83811015620004cb578181015183820152602001620004b1565b50505050905090810190601f168015620004f95780820380516001836020036101000a031916815260200191505b5085810384528c5181528c516020918201918e019080838360005b838110156200052e57818101518382015260200162000514565b50505050905090810190601f1680156200055c5780820380516001836020036101000a031916815260200191505b5085810383528b5181528b516020918201918d019080838360005b838110156200059157818101518382015260200162000577565b50505050905090810190601f168015620005bf5780820380516001836020036101000a031916815260200191505b5085810382528a5181528a516020918201918c019080838360005b83811015620005f4578181015183820152602001620005da565b50505050905090810190601f168015620006225780820380516001836020036101000a031916815260200191505b509d505050505050505050505050505060405180910390f35b3480156200064857600080fd5b506200019662001e2d565b3480156200066057600080fd5b506040805160206004803580820135601f8101849004840285018401909552848452620006af94369492936024939284019190819084018382808284375094975062001e3c9650505050505050565b604080519115158252519081900360200190f35b348015620006d057600080fd5b506040805160206004803580820135601f8101849004840285018401909552848452620006af94369492936024939284019190819084018382808284375050604080516020888301358a018035601f8101839004830284018301909452838352979a89359a8a830135600160a060020a03169a919990985060609091019650919450908101925081908401838280828437509497505050833560ff169450505060208201359160400135905062002040565b3480156200078f57600080fd5b506200024a600160a060020a036004358116906024351660ff60443516606435608435620024b5565b348015620007c557600080fd5b50620006af600160a060020a036004358116906024351662002800565b348015620007ef57600080fd5b50620006af600160a060020a036004351662002934565b3480156200081357600080fd5b50620003ad600160a060020a036004351662002949565b3480156200083757600080fd5b506200019662002a5f565b3480156200084f57600080fd5b506200024a600160a060020a036004358116906024351662002a6e565b3480156200087957600080fd5b506200024a600160a060020a036004358116906024351662002ac1565b348015620008a357600080fd5b506200019662002e17565b348015620008bb57600080fd5b50620002f460043560243562002e26565b348015620008d957600080fd5b506200024a600160a060020a036004351662002f57565b348015620008fd57600080fd5b506040805160206004803580820135601f81018490048402850184019095528484526200024a94369492936024939284019190819084018382808284375050604080516020601f89358b018035918201839004830284018301909452808352979a99988101979196509182019450925082915084018382808284375050604080516020601f89358b018035918201839004830284018301909452808352979a99988101979196509182019450925082915084018382808284375050604080516020601f89358b018035918201839004830284018301909452808352979a999881019791965091820194509250829150840183828082843750949750509335945062002f9e9350505050565b34801562000a1557600080fd5b5062000196620034cd565b600a60205260009081526040902054600160a060020a031681565b600154600160a060020a031681565b600060096000836040516020018082805190602001908083835b6020831062000a855780518252601f19909201916020918201910162000a64565b6001836020036101000a0380198251168184511680821785525050505050509050019150506040516020818303038152906040526040518082805190602001908083835b6020831062000aea5780518252601f19909201916020918201910162000ac9565b51815160209384036101000a6000190180199092169116179052604080519290940182900390912086528501959095529290920160002054600160a060020a031695945050505050565b600054600160a060020a0316331462000b4c57600080fd5b600160a060020a038116151562000b6257600080fd5b6005805473ffffffffffffffffffffffffffffffffffffffff19908116600160a060020a03938416179182905560078054929093169116179055565b60008273__AOLibrary_____________________________632d706a34826040518263ffffffff1660e060020a0281526004018082600160a060020a0316600160a060020a0316815260200191505060206040518083038186803b15801562000c0657600080fd5b505af415801562000c1b573d6000803e3d6000fd5b505050506040513d602081101562000c3257600080fd5b5051151562000c4057600080fd5b6040805160e060020a63181aa0a5028152336004820152600160a060020a03861660248201529051859173__AOLibrary_____________________________9163181aa0a591604480820192602092909190829003018186803b15801562000ca757600080fd5b505af415801562000cbc573d6000803e3d6000fd5b505050506040513d602081101562000cd357600080fd5b5051151562000ce157600080fd5b84600160a060020a0316631bf9b325856040518263ffffffff1660e060020a0281526004018082600160a060020a0316600160a060020a03168152602001915050602060405180830381600087803b15801562000d3d57600080fd5b505af115801562000d52573d6000803e3d6000fd5b505050506040513d602081101562000d6957600080fd5b505192506000831162000d7b57600080fd5b60408051600160a060020a038681168252602082018690528251908816927f508acdc46e7aa9e66ea8ffd6535a7849d6aa89da22590c8ff50eedc2908e2149928290030190a25050505050565b60008060008473__AOLibrary_____________________________632d706a34826040518263ffffffff1660e060020a0281526004018082600160a060020a0316600160a060020a0316815260200191505060206040518083038186803b15801562000e3357600080fd5b505af415801562000e48573d6000803e3d6000fd5b505050506040513d602081101562000e5f57600080fd5b5051151562000e6d57600080fd5b8473__AOLibrary_____________________________632d706a34826040518263ffffffff1660e060020a0281526004018082600160a060020a0316600160a060020a0316815260200191505060206040518083038186803b15801562000ed357600080fd5b505af415801562000ee8573d6000803e3d6000fd5b505050506040513d602081101562000eff57600080fd5b5051151562000f0d57600080fd5b6040805160e060020a63181aa0a5028152336004820152600160a060020a03891660248201529051889173__AOLibrary_____________________________9163181aa0a591604480820192602092909190829003018186803b15801562000f7457600080fd5b505af415801562000f89573d6000803e3d6000fd5b505050506040513d602081101562000fa057600080fd5b5051151562000fae57600080fd5b87955085600160a060020a031663c996ad256040518163ffffffff1660e060020a028152600401602060405180830381600087803b15801562000ff057600080fd5b505af115801562001005573d6000803e3d6000fd5b505050506040513d60208110156200101c57600080fd5b5051604080517f0d9c8bca000000000000000000000000000000000000000000000000000000008152600160a060020a038a81166004830152915192975090881691630d9c8bca916024808201926020929091908290030181600087803b1580156200108757600080fd5b505af11580156200109c573d6000803e3d6000fd5b505050506040513d6020811015620010b357600080fd5b5051935060008411620010c557600080fd5b60408051600160a060020a03878116825289811660208301528183018790529151918a16917f504240fd07ccdd857eb27ee726c03864d1df46d12d8e41a5ef362de01125438f9181900360600190a25050505050505050565b60008273__AOLibrary_____________________________632d706a34826040518263ffffffff1660e060020a0281526004018082600160a060020a0316600160a060020a0316815260200191505060206040518083038186803b1580156200118657600080fd5b505af41580156200119b573d6000803e3d6000fd5b505050506040513d6020811015620011b257600080fd5b50511515620011c057600080fd5b6040805160e060020a63181aa0a5028152336004820152600160a060020a03861660248201529051859173__AOLibrary_____________________________9163181aa0a591604480820192602092909190829003018186803b1580156200122757600080fd5b505af41580156200123c573d6000803e3d6000fd5b505050506040513d60208110156200125357600080fd5b505115156200126157600080fd5b84600160a060020a031663d5838ca7856040518263ffffffff1660e060020a0281526004018082600160a060020a0316600160a060020a03168152602001915050602060405180830381600087803b158015620012bd57600080fd5b505af1158015620012d2573d6000803e3d6000fd5b505050506040513d6020811015620012e957600080fd5b5051925060008311620012fb57600080fd5b60408051600160a060020a038681168252602082018690528251908816927fbc9326b33cd8071c1ec259bdba1e65b6c75e5242c8c0440ad8f239a73b1a8eb6928290030190a25050505050565b60608373__AOLibrary_____________________________632d706a34826040518263ffffffff1660e060020a0281526004018082600160a060020a0316600160a060020a0316815260200191505060206040518083038186803b158015620013b057600080fd5b505af4158015620013c5573d6000803e3d6000fd5b505050506040513d6020811015620013dc57600080fd5b50511515620013ea57600080fd5b84600160a060020a031663d5fce73585856040518363ffffffff1660e060020a0281526004018083815260200182815260200192505050600060405180830381600087803b1580156200143c57600080fd5b505af115801562001451573d6000803e3d6000fd5b505050506040513d6000823e601f3d908101601f1916820160405260208110156200147b57600080fd5b8101908080516401000000008111156200149457600080fd5b82016020810184811115620014a857600080fd5b8151856020820283011164010000000082111715620014c657600080fd5b50909998505050505050505050565b60008060008084905080600160a060020a0316632ef193b06040518163ffffffff1660e060020a028152600401602060405180830381600087803b1580156200151d57600080fd5b505af115801562001532573d6000803e3d6000fd5b505050506040513d60208110156200154957600080fd5b5051604080517f6cf99a8f0000000000000000000000000000000000000000000000000000000081529051600160a060020a03841691636cf99a8f9160048083019260209291908290030181600087803b158015620015a757600080fd5b505af1158015620015bc573d6000803e3d6000fd5b505050506040513d6020811015620015d357600080fd5b5051604080517fc996ad250000000000000000000000000000000000000000000000000000000081529051600160a060020a0385169163c996ad259160048083019260209291908290030181600087803b1580156200163157600080fd5b505af115801562001646573d6000803e3d6000fd5b505050506040513d60208110156200165d57600080fd5b5051919790965090945092505050565b60085490565b60008060008084905080600160a060020a0316632a9719a46040518163ffffffff1660e060020a028152600401602060405180830381600087803b158015620016bb57600080fd5b505af1158015620016d0573d6000803e3d6000fd5b505050506040513d6020811015620016e757600080fd5b5051604080517f68dcb66b0000000000000000000000000000000000000000000000000000000081529051600160a060020a038416916368dcb66b9160048083019260209291908290030181600087803b1580156200174557600080fd5b505af11580156200175a573d6000803e3d6000fd5b505050506040513d60208110156200177157600080fd5b5051604080517fb0759d080000000000000000000000000000000000000000000000000000000081529051600160a060020a0385169163b0759d089160048083019260209291908290030181600087803b1580156200163157600080fd5b600054600160a060020a03163314620017e757600080fd5b600160a060020a03919091166000908152600360205260409020805460ff1916911515919091179055565b60606000606080606060008060008060008a905080600160a060020a03166361fac54d6040518163ffffffff1660e060020a028152600401600060405180830381600087803b1580156200186557600080fd5b505af11580156200187a573d6000803e3d6000fd5b505050506040513d6000823e601f3d908101601f191682016040526020811015620018a457600080fd5b810190808051640100000000811115620018bd57600080fd5b82016020810184811115620018d157600080fd5b8151640100000000811182820187101715620018ec57600080fd5b505092919050505081600160a060020a03166313866efa6040518163ffffffff1660e060020a028152600401602060405180830381600087803b1580156200193357600080fd5b505af115801562001948573d6000803e3d6000fd5b505050506040513d60208110156200195f57600080fd5b5051604080517f056847900000000000000000000000000000000000000000000000000000000081529051600160a060020a03851691630568479091600480830192600092919082900301818387803b158015620019bc57600080fd5b505af1158015620019d1573d6000803e3d6000fd5b505050506040513d6000823e601f3d908101601f191682016040526020811015620019fb57600080fd5b81019080805164010000000081111562001a1457600080fd5b8201602081018481111562001a2857600080fd5b815164010000000081118282018710171562001a4357600080fd5b505092919050505083600160a060020a031663713b563f6040518163ffffffff1660e060020a028152600401600060405180830381600087803b15801562001a8a57600080fd5b505af115801562001a9f573d6000803e3d6000fd5b505050506040513d6000823e601f3d908101601f19168201604052602081101562001ac957600080fd5b81019080805164010000000081111562001ae257600080fd5b8201602081018481111562001af657600080fd5b815164010000000081118282018710171562001b1157600080fd5b505092919050505084600160a060020a031663a727be576040518163ffffffff1660e060020a028152600401600060405180830381600087803b15801562001b5857600080fd5b505af115801562001b6d573d6000803e3d6000fd5b505050506040513d6000823e601f3d908101601f19168201604052602081101562001b9757600080fd5b81019080805164010000000081111562001bb057600080fd5b8201602081018481111562001bc457600080fd5b815164010000000081118282018710171562001bdf57600080fd5b505092919050505085600160a060020a031663d97aa9776040518163ffffffff1660e060020a028152600401602060405180830381600087803b15801562001c2657600080fd5b505af115801562001c3b573d6000803e3d6000fd5b505050506040513d602081101562001c5257600080fd5b5051604080517f2c4dd5250000000000000000000000000000000000000000000000000000000081529051600160a060020a03891691632c4dd5259160048083019260209291908290030181600087803b15801562001cb057600080fd5b505af115801562001cc5573d6000803e3d6000fd5b505050506040513d602081101562001cdc57600080fd5b5051604080517f10ce6dd50000000000000000000000000000000000000000000000000000000081529051600160a060020a038a16916310ce6dd59160048083019260209291908290030181600087803b15801562001d3a57600080fd5b505af115801562001d4f573d6000803e3d6000fd5b505050506040513d602081101562001d6657600080fd5b5051604080517faffed0e00000000000000000000000000000000000000000000000000000000081529051600160a060020a038b169163affed0e09160048083019260209291908290030181600087803b15801562001dc457600080fd5b505af115801562001dd9573d6000803e3d6000fd5b505050506040513d602081101562001df057600080fd5b8101908080519060200190929190505050889850869650859550849450995099509950995099509950995099509950509193959799909294969850565b600454600160a060020a031681565b600080600160a060020a031660096000846040516020018082805190602001908083835b6020831062001e815780518252601f19909201916020918201910162001e60565b6001836020036101000a0380198251168184511680821785525050505050509050019150506040516020818303038152906040526040518082805190602001908083835b6020831062001ee65780518252601f19909201916020918201910162001ec5565b51815160209384036101000a6000190180199092169116179052604080519290940182900390912086528501959095529290920160002054600160a060020a0316939093141592508291506200203a905057506007546040517fba230bce000000000000000000000000000000000000000000000000000000008152602060048201818152855160248401528551600094600160a060020a03169363ba230bce938893928392604401918501908083838b5b8381101562001fb257818101518382015260200162001f98565b50505050905090810190601f16801562001fe05780820380516001836020036101000a031916815260200191505b5092505050602060405180830381600087803b1580156200200057600080fd5b505af115801562002015573d6000803e3d6000fd5b505050506040513d60208110156200202c57600080fd5b5051600160a060020a031614155b92915050565b600080600080620020518862001e3c565b15156200205d57600080fd5b60096000896040516020018082805190602001908083835b60208310620020965780518252601f19909201916020918201910162002075565b6001836020036101000a0380198251168184511680821785525050505050509050019150506040516020818303038152906040526040518082805190602001908083835b60208310620020fb5780518252601f199092019160209182019101620020da565b6001836020036101000a03801982511681845116808217855250505050505090500191505060405180910390206000191660001916815260200190815260200160002060009054906101000a9004600160a060020a0316925082915073__AOLibrary_____________________________63271b5311308d8d8b8b8b6040518763ffffffff1660e060020a0281526004018087600160a060020a0316600160a060020a03168152602001806020018681526020018560ff1660ff16815260200184600019166000191681526020018360001916600019168152602001828103825287818151815260200191508051906020019080838360005b838110156200220e578181015183820152602001620021f4565b50505050905090810190601f1680156200223c5780820380516001836020036101000a031916815260200191505b5097505050505050505060206040518083038186803b1580156200225f57600080fd5b505af415801562002274573d6000803e3d6000fd5b505050506040513d60208110156200228b57600080fd5b50519050600160a060020a03891615620023da576200231f600183600160a060020a031663affed0e06040518163ffffffff1660e060020a028152600401602060405180830381600087803b158015620022e457600080fd5b505af1158015620022f9573d6000803e3d6000fd5b505050506040513d60208110156200231057600080fd5b50519063ffffffff620034dc16565b8a1480156200233f575088600160a060020a031681600160a060020a0316145b8015620023d2575081600160a060020a031663706390ca8a6040518263ffffffff1660e060020a0281526004018082600160a060020a0316600160a060020a03168152602001915050602060405180830381600087803b158015620023a357600080fd5b505af1158015620023b8573d6000803e3d6000fd5b505050506040513d6020811015620023cf57600080fd5b50515b9350620024a7565b6200241f600183600160a060020a031663affed0e06040518163ffffffff1660e060020a028152600401602060405180830381600087803b158015620022e457600080fd5b8a148015620023d2575081600160a060020a03166310ce6dd56040518163ffffffff1660e060020a028152600401602060405180830381600087803b1580156200246857600080fd5b505af11580156200247d573d6000803e3d6000fd5b505050506040513d60208110156200249457600080fd5b5051600160a060020a0382811691161493505b505050979650505050505050565b6000808673__AOLibrary_____________________________632d706a34826040518263ffffffff1660e060020a0281526004018082600160a060020a0316600160a060020a0316815260200191505060206040518083038186803b1580156200251e57600080fd5b505af415801562002533573d6000803e3d6000fd5b505050506040513d60208110156200254a57600080fd5b505115156200255857600080fd5b6040805160e060020a63181aa0a5028152336004820152600160a060020a038a1660248201529051899173__AOLibrary_____________________________9163181aa0a591604480820192602092909190829003018186803b158015620025bf57600080fd5b505af4158015620025d4573d6000803e3d6000fd5b505050506040513d6020811015620025eb57600080fd5b50511515620025f957600080fd5b604080516c01000000000000000000000000308102602080840191909152600160a060020a03808e16830260348501528c1690910260488301528251603c818403018152605c90920192839052815191929182918401908083835b60208310620026755780518252601f19909201916020918201910162002654565b51815160209384036101000a600019018019909216911617905260408051929094018290038220600080845283830180875282905260ff8f1684870152606084018e9052608084018d90529451909a503396506001955060a080840195929450601f198201938290030191865af1158015620026f5573d6000803e3d6000fd5b50505060206040510351600160a060020a03161415156200271557600080fd5b88600160a060020a03166393ac5215896040518263ffffffff1660e060020a0281526004018082600160a060020a0316600160a060020a03168152602001915050602060405180830381600087803b1580156200277157600080fd5b505af115801562002786573d6000803e3d6000fd5b505050506040513d60208110156200279d57600080fd5b5051925060008311620027af57600080fd5b60408051600160a060020a038a81168252602082018690528251908c16927fccd83e6ea13fdeab9c73e85cf475c62c1a4107c8d74c26af76e963e3fca167c6928290030190a2505050505050505050565b60008273__AOLibrary_____________________________632d706a34826040518263ffffffff1660e060020a0281526004018082600160a060020a0316600160a060020a0316815260200191505060206040518083038186803b1580156200286857600080fd5b505af41580156200287d573d6000803e3d6000fd5b505050506040513d60208110156200289457600080fd5b50511515620028a257600080fd5b83600160a060020a031663706390ca846040518263ffffffff1660e060020a0281526004018082600160a060020a0316600160a060020a03168152602001915050602060405180830381600087803b158015620028fe57600080fd5b505af115801562002913573d6000803e3d6000fd5b505050506040513d60208110156200292a57600080fd5b5051949350505050565b60036020526000908152604090205460ff1681565b60008173__AOLibrary_____________________________632d706a34826040518263ffffffff1660e060020a0281526004018082600160a060020a0316600160a060020a0316815260200191505060206040518083038186803b158015620029b157600080fd5b505af4158015620029c6573d6000803e3d6000fd5b505050506040513d6020811015620029dd57600080fd5b50511515620029eb57600080fd5b82600160a060020a03166349cd990f6040518163ffffffff1660e060020a028152600401602060405180830381600087803b15801562002a2a57600080fd5b505af115801562002a3f573d6000803e3d6000fd5b505050506040513d602081101562002a5657600080fd5b50519392505050565b600254600160a060020a031681565b600054600160a060020a0316331462002a8657600080fd5b60018054600160a060020a0393841673ffffffffffffffffffffffffffffffffffffffff199182161790915560028054929093169116179055565b60008060008473__AOLibrary_____________________________632d706a34826040518263ffffffff1660e060020a0281526004018082600160a060020a0316600160a060020a0316815260200191505060206040518083038186803b15801562002b2c57600080fd5b505af415801562002b41573d6000803e3d6000fd5b505050506040513d602081101562002b5857600080fd5b5051151562002b6657600080fd5b8473__AOLibrary_____________________________632d706a34826040518263ffffffff1660e060020a0281526004018082600160a060020a0316600160a060020a0316815260200191505060206040518083038186803b15801562002bcc57600080fd5b505af415801562002be1573d6000803e3d6000fd5b505050506040513d602081101562002bf857600080fd5b5051151562002c0657600080fd5b6040805160e060020a63181aa0a5028152336004820152600160a060020a03891660248201529051889173__AOLibrary_____________________________9163181aa0a591604480820192602092909190829003018186803b15801562002c6d57600080fd5b505af415801562002c82573d6000803e3d6000fd5b505050506040513d602081101562002c9957600080fd5b5051151562002ca757600080fd5b87955085600160a060020a0316636cf99a8f6040518163ffffffff1660e060020a028152600401602060405180830381600087803b15801562002ce957600080fd5b505af115801562002cfe573d6000803e3d6000fd5b505050506040513d602081101562002d1557600080fd5b5051604080517fadcd905b000000000000000000000000000000000000000000000000000000008152600160a060020a038a8116600483015291519297509088169163adcd905b916024808201926020929091908290030181600087803b15801562002d8057600080fd5b505af115801562002d95573d6000803e3d6000fd5b505050506040513d602081101562002dac57600080fd5b505193506000841162002dbe57600080fd5b60408051600160a060020a03878116825289811660208301528183018790529151918a16917f2f55692329c4ba59b7950453a70f80ad96f0d064977beb02b5596e33d2d1f2db9181900360600190a25050505050505050565b600054600160a060020a031681565b606080600080851015801562002e3c5750848410155b151562002e4857600080fd5b60085460001062002e5857600080fd5b62002e7d600162002e70868863ffffffff620034ea16565b9063ffffffff620034dc16565b60405190808252806020026020018201604052801562002ea7578160200160208202803883390190505b5060085490925062002ec190600163ffffffff620034ea16565b84111562002ee25760085462002edf90600163ffffffff620034ea16565b93505b50835b83811162002f4f57600880548290811062002efc57fe5b600091825260209091200154600160a060020a03168262002f24838863ffffffff620034ea16565b8151811062002f2f57fe5b600160a060020a0390921660209283029091019091015260010162002ee5565b509392505050565b600054600160a060020a0316331462002f6f57600080fd5b6000805473ffffffffffffffffffffffffffffffffffffffff1916600160a060020a0392909216919091179055565b600080865111151562002fb057600080fd5b62002fbb8662001e3c565b1562002fc657600080fd5b336000908152600a6020526040902054600160a060020a03161562002fea57600080fd5b85338686868662002ffa620034fd565b600160a060020a03861660208083019190915260a0820183905260c08083528851908301528751829160408301916060840191608085019160e08601918d019080838360005b838110156200305a57818101518382015260200162003040565b50505050905090810190601f168015620030885780820380516001836020036101000a031916815260200191505b5085810384528951815289516020918201918b019080838360005b83811015620030bd578181015183820152602001620030a3565b50505050905090810190601f168015620030eb5780820380516001836020036101000a031916815260200191505b5085810383528851815288516020918201918a019080838360005b838110156200312057818101518382015260200162003106565b50505050905090810190601f1680156200314e5780820380516001836020036101000a031916815260200191505b50858103825287518152875160209182019189019080838360005b838110156200318357818101518382015260200162003169565b50505050905090810190601f168015620031b15780820380516001836020036101000a031916815260200191505b509a5050505050505050505050604051809103906000f080158015620031db573d6000803e3d6000fd5b50336000908152600a60209081526040808320805473ffffffffffffffffffffffffffffffffffffffff1916600160a060020a0386161790555189519394508493600993928b9281019182918401908083835b602083106200324f5780518252601f1990920191602091820191016200322e565b6001836020036101000a0380198251168184511680821785525050505050509050019150506040516020818303038152906040526040518082805190602001908083835b60208310620032b45780518252601f19909201916020918201910162003293565b51815160001960209485036101000a0190811690199190911617905260408051949092018490039093208652858301969096525092840160009081208054600160a060020a0397881673ffffffffffffffffffffffffffffffffffffffff1991821617909155600880546001810182559083527ff3f7a9fe364faab93b216da50a3214154f22a0a2b415b23a84c8169e8b636ee301805489891692168217905560065486517f01173a740000000000000000000000000000000000000000000000000000000081526004810192909252955195909616956301173a74956024808301969550909350908390030190829087803b158015620033b457600080fd5b505af1158015620033c9573d6000803e3d6000fd5b505050506040513d6020811015620033e057600080fd5b50511515620033ee57600080fd5b60085433907fdd445519212181802441b3ea8a0080462d25346f8279d9de28b7a64365d5f2fa9083906200342a90600163ffffffff620034ea16565b896040518084600160a060020a0316600160a060020a0316815260200183815260200180602001828103825283818151815260200191508051906020019080838360005b83811015620034885781810151838201526020016200346e565b50505050905090810190601f168015620034b65780820380516001836020036101000a031916815260200191505b5094505050505060405180910390a2505050505050565b600554600160a060020a031681565b818101828110156200203a57fe5b600082821115620034f757fe5b50900390565b604051611810806200350f83390190560060806040523480156200001157600080fd5b5060405162001810380380620018108339810160409081528151602080840151928401516060850151608086015160a0870151600080546201000060b060020a03191633620100000217815595880180519098948501969385019592909401939092889283928992899289928992899287926200009591600191908b0190620001fa565b508751620000ab9060029060208b0190620001fa565b5060038054600160a060020a038916600160a060020a031991821681179092556004805490911690911790558551620000ec906007906020890190620001fa565b50845162000102906008906020880190620001fa565b50835162000118906009906020870190620001fa565b50600a92909255600b8054600d8054600160a060020a0319908116600160a060020a03968716179091556004805460058054600680546001601281905561010060a860020a03199098166101009a8c169a909a029990991760ff1916871790975530838616179384905592881691881692841683178416821790559482161781169093179091556015805491820181556000527f55f448fdea98c4d29eb340757ef0a66cd03dbb9538908a6a81d96026b71ec47501805482169d9092169c8d1790915560168054909116909b17909a55506200029f9950505050505050505050565b828054600181600116156101000203166002900490600052602060002090601f016020900481019282601f106200023d57805160ff19168380011785556200026d565b828001600101855582156200026d579182015b828111156200026d57825182559160200191906001019062000250565b506200027b9291506200027f565b5090565b6200029c91905b808211156200027b576000815560010162000286565b90565b61156180620002af6000396000f3006080604052600436106101f85763ffffffff7c01000000000000000000000000000000000000000000000000000000006000350416630568479081146102365780630cb8eb3a146102c05780630d9c8bca146102f357806310ce6dd51461031457806313866efa146103455780631bf9b3251461035a578063211e28b61461037b5780632a9719a4146103955780632c4dd525146103aa5780632ef193b0146103d5578063346b584e146103ea57806343d726d61461042c57806349cd990f146104415780634ed5aca1146104565780635745bb6c1461046b578063597e1fb5146104805780635db6fd63146104a957806361fac54d146104be57806368dcb66b146104d35780636cf99a8f146104e8578063706390ca146104fd578063713b563f1461051e578063806f8bfc1461053357806393ac521514610554578063966dae0e146105755780639fd0b0e71461058a578063a727be57146105b0578063ac7a4203146105c5578063adcd905b146105e6578063affed0e014610607578063b000fba31461061c578063b0759d081461063d578063b69ef8a814610652578063c86cc85a14610667578063c996ad25146106d2578063cf309012146106e7578063d5838ca7146106fc578063d5fce7351461071d578063d97aa97714610738578063e746dc9f1461074d578063f00b1dc01461076e575b60005460ff161580156102135750600054610100900460ff16155b151561021e57600080fd5b601154610231903463ffffffff61078316565b601155005b34801561024257600080fd5b5061024b610796565b6040805160208082528351818301528351919283929083019185019080838360005b8381101561028557818101518382015260200161026d565b50505050905090810190601f1680156102b25780820380516001836020036101000a031916815260200191505b509250505060405180910390f35b3480156102cc57600080fd5b506102e1600160a060020a0360043516610824565b60408051918252519081900360200190f35b3480156102ff57600080fd5b506102e1600160a060020a03600435166108dc565b34801561032057600080fd5b50610329610963565b60408051600160a060020a039092168252519081900360200190f35b34801561035157600080fd5b50610329610972565b34801561036657600080fd5b506102e1600160a060020a0360043516610981565b34801561038757600080fd5b506102e16004351515610a9c565b3480156103a157600080fd5b50610329610aef565b3480156103b657600080fd5b506103bf610b03565b6040805160ff9092168252519081900360200190f35b3480156103e157600080fd5b50610329610b0c565b3480156103f657600080fd5b50610402600435610b1b565b60408051600160a060020a0390941684529115156020840152151582820152519081900360600190f35b34801561043857600080fd5b506102e1610b4c565b34801561044d57600080fd5b506102e1610b9e565b34801561046257600080fd5b506102e1610ba4565b34801561047757600080fd5b5061024b610baa565b34801561048c57600080fd5b50610495610c02565b604080519115158252519081900360200190f35b3480156104b557600080fd5b506102e1610c10565b3480156104ca57600080fd5b5061024b610c16565b3480156104df57600080fd5b50610329610c70565b3480156104f457600080fd5b50610329610c7f565b34801561050957600080fd5b50610495600160a060020a0360043516610c8e565b34801561052a57600080fd5b5061024b610d02565b34801561053f57600080fd5b50610495600160a060020a0360043516610d5d565b34801561056057600080fd5b506102e1600160a060020a0360043516610dea565b34801561058157600080fd5b50610329610e70565b34801561059657600080fd5b506102e1600160a060020a03600435166024351515610e85565b3480156105bc57600080fd5b5061024b610fbf565b3480156105d157600080fd5b50610495600160a060020a036004351661101a565b3480156105f257600080fd5b506102e1600160a060020a03600435166110a7565b34801561061357600080fd5b506102e161112e565b34801561062857600080fd5b506102e1600160a060020a0360043516611134565b34801561064957600080fd5b506103296111cb565b34801561065e57600080fd5b506102e16111da565b34801561067357600080fd5b506106826004356024356111e0565b60408051602080825283518183015283519192839290830191858101910280838360005b838110156106be5781810151838201526020016106a6565b505050509050019250505060405180910390f35b3480156106de57600080fd5b506103296112e6565b3480156106f357600080fd5b506104956112f5565b34801561070857600080fd5b506102e1600160a060020a03600435166112fe565b34801561072957600080fd5b506106826004356024356113b4565b34801561074457600080fd5b506102e16114be565b34801561075957600080fd5b506102e1600160a060020a03600435166114c4565b34801561077a57600080fd5b506102e16114d6565b8181018281101561079057fe5b92915050565b6007805460408051602060026001851615610100026000190190941693909304601f8101849004840282018401909252818152929183018282801561081c5780601f106107f15761010080835404028352916020019161081c565b820191906000526020600020905b8154815290600101906020018083116107ff57829003601f168201915b505050505081565b60008054819060ff161580156108425750600054610100900460ff16155b151561084d57600080fd5b600054620100009004600160a060020a0316331461086a57600080fd5b5050600160a060020a038116600090815260146020908152604080832054835260139091529020805474ff0000000000000000000000000000000000000000191660a060020a178155600e80546001908101909155600f80546000190190556012805490910190819055905b50919050565b6000805460ff161580156108f85750600054610100900460ff16155b151561090357600080fd5b600054620100009004600160a060020a0316331461092057600080fd5b600160a060020a038216151561093557600080fd5b5060068054600160a060020a038316600160a060020a03199091161790556012805460010190819055919050565b601654600160a060020a031681565b600354600160a060020a031681565b600080548190819060ff161580156109a15750600054610100900460ff16155b15156109ac57600080fd5b600054620100009004600160a060020a031633146109c957600080fd5b6015546001106109d857600080fd5b6109e184610c8e565b15156109ec57600080fd5b505060125460005b601554811015610a835783600160a060020a0316601582815481101515610a1757fe5b600091825260209091200154600160a060020a03161415610a7b576015805482908110610a4057fe5b60009182526020909120018054600160a060020a03191690556015805490610a6c9060001983016114ee565b50601280546001019055610a83565b6001016109f4565b6012548210610a9157600080fd5b505060125492915050565b60008054620100009004600160a060020a03163314610aba57600080fd5b600054610100900460ff1615610acf57600080fd5b506000805460ff1916911515919091179055601280546001019081905590565b600b546101009004600160a060020a031681565b600b5460ff1681565b600454600160a060020a031681565b601360205260009081526040902054600160a060020a0381169060ff60a060020a820481169160a860020a90041683565b60008054620100009004600160a060020a03163314610b6a57600080fd5b600054610100900460ff1615610b7f57600080fd5b506000805461ff00191661010017905560128054600101908190555b90565b60155490565b600e5481565b6002805460408051602060018416156101000260001901909316849004601f8101849004840282018401909252818152929183018282801561081c5780601f106107f15761010080835404028352916020019161081c565b600054610100900460ff1681565b600f5481565b60018054604080516020600284861615610100026000190190941693909304601f8101849004840282018401909252818152929183018282801561081c5780601f106107f15761010080835404028352916020019161081c565b600c54600160a060020a031681565b600554600160a060020a031681565b600080600160a060020a0383161515610ca657600080fd5b5060005b601554811015610cf95782600160a060020a0316601582815481101515610ccd57fe5b600091825260209091200154600160a060020a03161415610cf157600191506108d6565b600101610caa565b50600092915050565b6008805460408051602060026001851615610100026000190190941693909304601f8101849004840282018401909252818152929183018282801561081c5780601f106107f15761010080835404028352916020019161081c565b600160a060020a03811660009081526014602052604081205481108015610db05750600160a060020a0382166000908152601460209081526040808320548352601390915290205460a060020a900460ff165b8015610790575050600160a060020a03166000908152601460209081526040808320548352601390915290205460a860020a900460ff1690565b6000805460ff16158015610e065750600054610100900460ff16155b1515610e1157600080fd5b600054620100009004600160a060020a03163314610e2e57600080fd5b610e3782610c8e565b1515610e4257600080fd5b5060168054600160a060020a038316600160a060020a03199091161790556012805460010190819055919050565b600054620100009004600160a060020a031681565b60008054819060ff16158015610ea35750600054610100900460ff16155b1515610eae57600080fd5b600054620100009004600160a060020a03163314610ecb57600080fd5b600160a060020a0384161515610ee057600080fd5b600160a060020a03841660009081526014602052604090205415610f0357600080fd5b6010805460010190558215610f2057600e80546001019055610f2a565b600f805460010190555b5050601054600160a060020a039290921660008181526014602090815260408083208690559482526013905292909220805475ff0000000000000000000000000000000000000000001992151560a060020a0274ff000000000000000000000000000000000000000019600160a060020a031990921690941716929092171660a860020a179055601280546001019081905590565b6009805460408051602060026001851615610100026000190190941693909304601f8101849004840282018401909252818152929183018282801561081c5780601f106107f15761010080835404028352916020019161081c565b600160a060020a03811660009081526014602052604081205481108015610db05750600160a060020a0382166000908152601460209081526040808320548352601390915290205460a060020a900460ff16158015610790575050600160a060020a03166000908152601460209081526040808320548352601390915290205460a860020a900460ff1690565b6000805460ff161580156110c35750600054610100900460ff16155b15156110ce57600080fd5b600054620100009004600160a060020a031633146110eb57600080fd5b600160a060020a038216151561110057600080fd5b5060058054600160a060020a038316600160a060020a03199091161790556012805460010190819055919050565b60125481565b6000805460ff161580156111505750600054610100900460ff16155b151561115b57600080fd5b600054620100009004600160a060020a0316331461117857600080fd5b600160a060020a038216151561118d57600080fd5b600b5460ff161561119d57600080fd5b5060048054600160a060020a038316600160a060020a03199091161790556012805460010190819055919050565b600d54600160a060020a031681565b60115481565b6060806000600185101580156111f65750848410155b801561120457508360105410155b151561120f57600080fd5b6112306001611224868863ffffffff6114dc16565b9063ffffffff61078316565b604051908082528060200260200182016040528015611259578160200160208202803883390190505b5091508490505b8381116112de5760008181526013602052604090205460a860020a900460ff1661128b5760006112a4565b600081815260136020526040902054600160a060020a03165b826112b5838863ffffffff6114dc16565b815181106112bf57fe5b600160a060020a03909216602092830290910190910152600101611260565b509392505050565b600654600160a060020a031681565b60005460ff1681565b6000805460ff1615801561131a5750600054610100900460ff16155b151561132557600080fd5b600054620100009004600160a060020a0316331461134257600080fd5b61134b82610c8e565b1561135557600080fd5b5060158054600181810183556000929092527f55f448fdea98c4d29eb340757ef0a66cd03dbb9538908a6a81d96026b71ec475018054600160a060020a038416600160a060020a03199091161790556012805490910190819055919050565b60608060008085101580156113c95750848410155b15156113d457600080fd5b6015546000106113e357600080fd5b6113f86001611224868863ffffffff6114dc16565b604051908082528060200260200182016040528015611421578160200160208202803883390190505b5060155490925061143990600163ffffffff6114dc16565b8411156114575760155461145490600163ffffffff6114dc16565b93505b50835b8381116112de57601580548290811061146f57fe5b600091825260209091200154600160a060020a031682611495838863ffffffff6114dc16565b8151811061149f57fe5b600160a060020a0390921660209283029091019091015260010161145a565b600a5481565b60146020526000908152604090205481565b60105481565b6000828211156114e857fe5b50900390565b81548183558181111561151257600083815260209020611512918101908301611517565b505050565b610b9b91905b80821115611531576000815560010161151d565b50905600a165627a7a72305820cebe15e8d38fba29457a3a0fa5ed4e335221b2cad695d0669e13f02f25d4acfe0029a165627a7a72305820975486ba78e561e0877ac0ceda07a0985542b0b376c9509d4943c075f82a5a4e0029",
	"source": "pragma solidity ^0.4.24;\n\nimport './developed.sol';\nimport './SafeMath.sol';\nimport './AOLibrary.sol';\nimport './Position.sol';\nimport './Name.sol';\nimport './TAOFactory.sol';\n\n/**\n * @title NameFactory\n *\n * The purpose of this contract is to allow node to create Name\n */\ncontract NameFactory is developed {\n\tusing SafeMath for uint256;\n\n\taddress public positionAddress;\n\taddress public taoFactoryAddress;\n\n\tPosition internal _position;\n\tTAOFactory internal _taoFactory;\n\n\taddress[] internal names;\n\n\tmapping (bytes32 => address) internal usernamesLookup;\n\tmapping (address => address) public ethAddressToNameId;\n\n\t// Event to be broadcasted to public when a Name is created\n\tevent CreateName(address indexed ethAddress, address nameId, uint256 index, string username);\n\n\t// Event to be broadcasted to public when current Advocate sets New Listener for a Name\n\tevent SetNameListener(address indexed nameId, address oldListenerId, address newListenerId, uint256 nonce);\n\n\t// Event to be broadcasted to public when current Advocate sets New Speaker for a Name\n\tevent SetNameSpeaker(address indexed nameId, address oldSpeakerId, address newSpeakerId, uint256 nonce);\n\n\t// Event to be broadcasted to public when a publicKey is added to a Name\n\tevent AddNamePublicKey(address indexed nameId, address publicKey, uint256 nonce);\n\n\t// Event to be broadcasted to public when a publicKey is deleted from a Name\n\tevent DeleteNamePublicKey(address indexed nameId, address publicKey, uint256 nonce);\n\n\t// Event to be broadcasted to public when a publicKey is set as default for a Name\n\tevent SetNameDefaultPublicKey(address indexed nameId, address publicKey, uint256 nonce);\n\n\t/**\n\t * @dev Constructor function\n\t */\n\tconstructor(address _positionAddress) public {\n\t\tpositionAddress = _positionAddress;\n\t\t_position = Position(positionAddress);\n\t}\n\n\t/**\n\t * @dev Check if `_nameId` is a Name\n\t */\n\tmodifier isName(address _nameId) {\n\t\trequire (AOLibrary.isName(_nameId));\n\t\t_;\n\t}\n\n\t/**\n\t * @dev Check if msg.sender address is the current advocate of a `_nameId`.\n\t *\t\tSince there is no way to change the Advocate of a Name, the Advocate's eth address\n\t *\t\tis the same as the Name's Origin ID\n\t */\n\tmodifier onlyAdvocateOfName(address _nameId) {\n\t\trequire (AOLibrary.isAdvocateOfName(msg.sender, _nameId));\n\t\t_;\n\t}\n\n\t/**\n\t * @dev Check is msg.sender address is a Name\n\t */\n\t modifier senderIsName() {\n\t\trequire (ethAddressToNameId[msg.sender] != address(0));\n\t\t_;\n\t }\n\n\t/***** DEVELOPER ONLY METHODS *****/\n\t/**\n\t * @dev Developer set the TAO Factory Address\n\t * @param _taoFactoryAddress The address of TAOFactory\n\t */\n\tfunction setTAOFactoryAddress(address _taoFactoryAddress) public onlyDeveloper {\n\t\trequire (_taoFactoryAddress != address(0));\n\t\ttaoFactoryAddress = _taoFactoryAddress;\n\t\t_taoFactory = TAOFactory(taoFactoryAddress);\n\t}\n\n\t/***** PUBLIC METHODS *****/\n\t/**\n\t * @dev Check whether or not username exist. Should be unique to both Names and TAOS\n\t * @param _username The value to be checked\n\t * @return true if exist, false otherwise\n\t */\n\tfunction isUsernameExist(string _username) public view returns (bool) {\n\t\treturn (\n\t\t\tusernamesLookup[keccak256(abi.encodePacked(_username))] != address(0) ||\n\t\t\t_taoFactory.getTAOIdByName(_username) != address(0)\n\t\t);\n\t}\n\n\t/**\n\t * @dev Create a Name\n\t * @param _username The username of the Name\n\t * @param _datHash The datHash to this Name's profile\n\t * @param _database The database for this Name\n\t * @param _keyValue The key/value pair to be checked on the database\n\t * @param _contentId The contentId related to this Name\n\t */\n\tfunction createName(string _username, string _datHash, string _database, string _keyValue, bytes32 _contentId) public {\n\t\trequire (bytes(_username).length > 0);\n\t\trequire (!isUsernameExist(_username));\n\t\t// Only one Name per ETH address\n\t\trequire (ethAddressToNameId[msg.sender] == address(0));\n\n\t\t// The address is the Name ID (which is also a TAO ID)\n\t\taddress nameId = new Name(_username, msg.sender, _datHash, _database, _keyValue, _contentId);\n\t\tethAddressToNameId[msg.sender] = nameId;\n\t\tusernamesLookup[keccak256(abi.encodePacked(_username))] = nameId;\n\t\tnames.push(nameId);\n\n\t\t// Need to mint Position token for this Name\n\t\trequire (_position.mintToken(nameId));\n\n\t\temit CreateName(msg.sender, nameId, names.length.sub(1), _username);\n\t}\n\n\t/**\n\t * @dev Get Name information\n\t * @param _nameId The ID of the Name to be queried\n\t * @return The name of the Name\n\t * @return The nameId of the Name (in this case, it's the creator node's ETH address)\n\t * @return The datHash of the Name\n\t * @return The database of the Name\n\t * @return The keyValue of the Name\n\t * @return The contentId of the Name\n\t * @return The taoTypeId of the Name\n\t * @return The defaultPublicKey of the Name\n\t * @return The current nonce of the Name\n\t */\n\tfunction getName(address _nameId) public view returns (string, address, string, string, string, bytes32, uint8, address, uint256) {\n\t\tName _name = Name(_nameId);\n\t\treturn (\n\t\t\t_name.username(),\n\t\t\t_name.originId(),\n\t\t\t_name.datHash(),\n\t\t\t_name.database(),\n\t\t\t_name.keyValue(),\n\t\t\t_name.contentId(),\n\t\t\t_name.taoTypeId(),\n\t\t\t_name.defaultPublicKey(),\n\t\t\t_name.nonce()\n\t\t);\n\t}\n\n\t/**\n\t * @dev Given a Name ID, wants to get the Name's Position, i.e Advocate/Listener/Speaker\n\t * @param _nameId The ID of the Name\n\t * @return The advocateId of the Name\n\t * @return The listenerId of the Name\n\t * @return The speakerId of the Name\n\t */\n\tfunction getNamePosition(address _nameId) public view returns (address, address, address) {\n\t\tName _name = Name(_nameId);\n\t\treturn (\n\t\t\t_name.advocateId(),\n\t\t\t_name.listenerId(),\n\t\t\t_name.speakerId()\n\t\t);\n\t}\n\n\t/**\n\t * @dev Get the nameId given a username\n\t * @param _username The username to check\n\t * @return nameId of the username\n\t */\n\tfunction getNameIdByUsername(string _username) public view returns (address) {\n\t\treturn usernamesLookup[keccak256(abi.encodePacked(_username))];\n\t}\n\n\t/**\n\t * @dev Get total Names count\n\t * @return total Names count\n\t */\n\tfunction getTotalNamesCount() public view returns (uint256) {\n\t\treturn names.length;\n\t}\n\n\t/**\n\t * @dev Get list of Name IDs\n\t * @param _from The starting index\n\t * @param _to The ending index\n\t * @return list of Name IDs\n\t */\n\tfunction getNameIds(uint256 _from, uint256 _to) public view returns (address[]) {\n\t\trequire (_from >= 0 && _to >= _from);\n\t\trequire (names.length > 0);\n\n\t\taddress[] memory _names = new address[](_to.sub(_from).add(1));\n\t\tif (_to > names.length.sub(1)) {\n\t\t\t_to = names.length.sub(1);\n\t\t}\n\t\tfor (uint256 i = _from; i <= _to; i++) {\n\t\t\t_names[i.sub(_from)] = names[i];\n\t\t}\n\t\treturn _names;\n\t}\n\n\t/**\n\t * @dev Set Name's listener\n\t * @param _nameId The ID of the Name\n\t * @param _newListenerId The new listener ID to be set\n\t */\n\tfunction setNameListener(address _nameId, address _newListenerId) public isName(_nameId) isName(_newListenerId) onlyAdvocateOfName(_nameId) {\n\t\tName _name = Name(_nameId);\n\t\t// Set the new listener\n\t\taddress _currentListenerId = _name.listenerId();\n\t\tuint256 _nonce = _name.setListener(_newListenerId);\n\t\trequire (_nonce > 0);\n\n\t\temit SetNameListener(_nameId, _currentListenerId, _newListenerId, _nonce);\n\t}\n\n\t/**\n\t * @dev Set Name's speaker\n\t * @param _nameId The ID of the Name\n\t * @param _newSpeakerId The new speaker ID to be set\n\t */\n\tfunction setNameSpeaker(address _nameId, address _newSpeakerId) public isName(_nameId) isName(_newSpeakerId) onlyAdvocateOfName(_nameId) {\n\t\tName _name = Name(_nameId);\n\t\t// Set the new speaker\n\t\taddress _currentSpeakerId = _name.speakerId();\n\t\tuint256 _nonce = _name.setSpeaker(_newSpeakerId);\n\t\trequire (_nonce > 0);\n\n\t\temit SetNameSpeaker(_nameId, _currentSpeakerId, _newSpeakerId, _nonce);\n\t}\n\n\t/**\n\t * @dev Get Name's relationship\n\t * @param _nameId The ID of the Name\n\t * @return fromId (Origin of the Name)\n\t * @return throughId\n\t * @return toId (Destination of the Name)\n\t */\n\tfunction getNameRelationship(address _nameId) public view returns (address, address, address) {\n\t\tName _name = Name(_nameId);\n\t\treturn (\n\t\t\t_name.fromId(),\n\t\t\t_name.throughId(),\n\t\t\t_name.toId()\n\t\t);\n\t}\n\n\t/**\n\t * @dev Get Name's publicKeys total count\n\t * @param _nameId The ID of the Name\n\t * @return total publicKeys count\n\t */\n\tfunction getNameTotalPublicKeysCount(address _nameId) public isName(_nameId) view returns (uint256) {\n\t\treturn Name(_nameId).getTotalPublicKeysCount();\n\t}\n\n\t/**\n\t * @dev Get list of publicKeys of a Name\n\t * @param _nameId The ID of the Name\n\t * @param _from The starting index\n\t * @param _to The ending index\n\t * @return list of publicKeys\n\t */\n\tfunction getNamePublicKeys(address _nameId, uint256 _from, uint256 _to) public isName(_nameId) view returns (address[]) {\n\t\treturn Name(_nameId).getPublicKeys(_from, _to);\n\t}\n\n\t/**\n\t * @dev Check whether or not a publicKey exist in a Name\n\t * @param _nameId The ID of the Name\n\t * @param _publicKey The publicKey to check\n\t * @return true if yes. false otherwise\n\t */\n\tfunction isNamePublicKeyExist(address _nameId, address _publicKey) public isName(_nameId) view returns (bool) {\n\t\treturn Name(_nameId).isPublicKeyExist(_publicKey);\n\t}\n\n\t/**\n\t * @dev Add publicKey for a Name\n\t * @param _nameId The ID of the Name\n\t * @param _publicKey The publicKey to be added\n\t */\n\tfunction addNamePublicKey(address _nameId, address _publicKey) public isName(_nameId) onlyAdvocateOfName(_nameId) {\n\t\tuint256 _nonce = Name(_nameId).addPublicKey(_publicKey);\n\t\trequire (_nonce > 0);\n\t\temit AddNamePublicKey(_nameId, _publicKey, _nonce);\n\t}\n\n\t/**\n\t * @dev Delete publicKey from a Name\n\t * @param _nameId The ID of the Name\n\t * @param _publicKey The publicKey to be deleted\n\t */\n\tfunction deleteNamePublicKey(address _nameId, address _publicKey) public isName(_nameId) onlyAdvocateOfName(_nameId) {\n\t\tuint256 _nonce = Name(_nameId).deletePublicKey(_publicKey);\n\t\trequire (_nonce > 0);\n\t\temit DeleteNamePublicKey(_nameId, _publicKey, _nonce);\n\t}\n\n\t/**\n\t * @dev Set a publicKey as the default for a Name\n\t * @param _nameId The ID of the Name\n\t * @param _publicKey The publicKey to be set\n\t * @param _signatureV The V part of the signature for this update\n\t * @param _signatureR The R part of the signature for this update\n\t * @param _signatureS The S part of the signature for this update\n\t */\n\tfunction setNameDefaultPublicKey(address _nameId, address _publicKey, uint8 _signatureV, bytes32 _signatureR, bytes32 _signatureS) public isName(_nameId) onlyAdvocateOfName(_nameId) {\n\t\tbytes32 _hash = keccak256(abi.encodePacked(address(this), _nameId, _publicKey));\n\t\trequire (ecrecover(_hash, _signatureV, _signatureR, _signatureS) == msg.sender);\n\t\tuint256 _nonce = Name(_nameId).setDefaultPublicKey(_publicKey);\n\t\trequire (_nonce > 0);\n\t\temit SetNameDefaultPublicKey(_nameId, _publicKey, _nonce);\n\t}\n\n\t/**\n\t * @dev Check whether or not the signature is valid\n\t * @param _data The signed string data\n\t * @param _nonce The signed uint256 nonce (should be Name's current nonce + 1)\n\t * @param _validateAddress The ETH address to be validated (optional)\n\t * @param _username The username of the Name\n\t * @param _signatureV The V part of the signature\n\t * @param _signatureR The R part of the signature\n\t * @param _signatureS The S part of the signature\n\t * @return true if valid. false otherwise\n\t */\n\tfunction validateNameSignature(\n\t\tstring _data,\n\t\tuint256 _nonce,\n\t\taddress _validateAddress,\n\t\tstring _username,\n\t\tuint8 _signatureV,\n\t\tbytes32 _signatureR,\n\t\tbytes32 _signatureS\n\t) public view returns (bool) {\n\t\trequire (isUsernameExist(_username));\n\t\taddress _nameId = usernamesLookup[keccak256(abi.encodePacked(_username))];\n\t\tName _name = Name(_nameId);\n\t\taddress _signatureAddress = AOLibrary.getValidateSignatureAddress(address(this), _data, _nonce, _signatureV, _signatureR, _signatureS);\n\t\tif (_validateAddress != address(0)) {\n\t\t\treturn (\n\t\t\t\t_nonce == _name.nonce().add(1) &&\n\t\t\t\t_signatureAddress == _validateAddress &&\n\t\t\t\t_name.isPublicKeyExist(_validateAddress)\n\t\t\t);\n\t\t} else {\n\t\t\treturn (\n\t\t\t\t_nonce == _name.nonce().add(1) &&\n\t\t\t\t_signatureAddress == _name.defaultPublicKey()\n\t\t\t);\n\t\t}\n\t}\n}\n",
	"sourcePath": "/Users/neilharlow/development/ao-contracts/contracts/NameFactory.sol",
	"compiler": {
		"name": "solc",
		"version": "0.4.24+commit.e67f0147.Emscripten.clang"
	},
	"schemaVersion": "2.0.1",
	"updatedAt": "2019-01-07T19:52:25.596Z"
}