{
	"contractName": "NameFactory",
	"abi": [
		{
			"constant": true,
			"inputs": [
				{
					"name": "",
					"type": "address"
				}
			],
			"name": "ethAddressToNameId",
			"outputs": [
				{
					"name": "",
					"type": "address"
				}
			],
			"payable": false,
			"stateMutability": "view",
			"type": "function"
		},
		{
			"constant": true,
			"inputs": [],
			"name": "positionAddress",
			"outputs": [
				{
					"name": "",
					"type": "address"
				}
			],
			"payable": false,
			"stateMutability": "view",
			"type": "function"
		},
		{
			"inputs": [
				{
					"name": "_positionAddress",
					"type": "address"
				}
			],
			"payable": false,
			"stateMutability": "nonpayable",
			"type": "constructor"
		},
		{
			"anonymous": false,
			"inputs": [
				{
					"indexed": false,
					"name": "ethAddress",
					"type": "address"
				},
				{
					"indexed": false,
					"name": "nameId",
					"type": "address"
				},
				{
					"indexed": false,
					"name": "index",
					"type": "uint256"
				},
				{
					"indexed": false,
					"name": "name",
					"type": "string"
				}
			],
			"name": "CreateName",
			"type": "event"
		},
		{
			"anonymous": false,
			"inputs": [
				{
					"indexed": false,
					"name": "nameId",
					"type": "address"
				},
				{
					"indexed": false,
					"name": "oldListenerId",
					"type": "address"
				},
				{
					"indexed": false,
					"name": "newListenerId",
					"type": "address"
				}
			],
			"name": "SetNameListener",
			"type": "event"
		},
		{
			"anonymous": false,
			"inputs": [
				{
					"indexed": false,
					"name": "nameId",
					"type": "address"
				},
				{
					"indexed": false,
					"name": "oldSpeakerId",
					"type": "address"
				},
				{
					"indexed": false,
					"name": "newSpeakerId",
					"type": "address"
				}
			],
			"name": "SetNameSpeaker",
			"type": "event"
		},
		{
			"constant": true,
			"inputs": [
				{
					"name": "_name",
					"type": "string"
				}
			],
			"name": "isNameTaken",
			"outputs": [
				{
					"name": "",
					"type": "bool"
				}
			],
			"payable": false,
			"stateMutability": "view",
			"type": "function"
		},
		{
			"constant": false,
			"inputs": [
				{
					"name": "_name",
					"type": "string"
				},
				{
					"name": "_datHash",
					"type": "string"
				},
				{
					"name": "_database",
					"type": "string"
				},
				{
					"name": "_keyValue",
					"type": "string"
				},
				{
					"name": "_contentId",
					"type": "bytes32"
				}
			],
			"name": "createName",
			"outputs": [],
			"payable": false,
			"stateMutability": "nonpayable",
			"type": "function"
		},
		{
			"constant": true,
			"inputs": [
				{
					"name": "_nameId",
					"type": "address"
				}
			],
			"name": "getName",
			"outputs": [
				{
					"name": "",
					"type": "string"
				},
				{
					"name": "",
					"type": "address"
				},
				{
					"name": "",
					"type": "address"
				},
				{
					"name": "",
					"type": "address"
				},
				{
					"name": "",
					"type": "address"
				},
				{
					"name": "",
					"type": "string"
				},
				{
					"name": "",
					"type": "string"
				},
				{
					"name": "",
					"type": "string"
				},
				{
					"name": "",
					"type": "bytes32"
				},
				{
					"name": "",
					"type": "uint8"
				}
			],
			"payable": false,
			"stateMutability": "view",
			"type": "function"
		},
		{
			"constant": true,
			"inputs": [],
			"name": "getTotalNamesCount",
			"outputs": [
				{
					"name": "",
					"type": "uint256"
				}
			],
			"payable": false,
			"stateMutability": "view",
			"type": "function"
		},
		{
			"constant": true,
			"inputs": [
				{
					"name": "_from",
					"type": "uint256"
				},
				{
					"name": "_to",
					"type": "uint256"
				}
			],
			"name": "getNameIds",
			"outputs": [
				{
					"name": "",
					"type": "address[]"
				}
			],
			"payable": false,
			"stateMutability": "view",
			"type": "function"
		},
		{
			"constant": false,
			"inputs": [
				{
					"name": "_nameId",
					"type": "address"
				},
				{
					"name": "_newListenerId",
					"type": "address"
				}
			],
			"name": "setNameListener",
			"outputs": [],
			"payable": false,
			"stateMutability": "nonpayable",
			"type": "function"
		},
		{
			"constant": false,
			"inputs": [
				{
					"name": "_nameId",
					"type": "address"
				},
				{
					"name": "_newSpeakerId",
					"type": "address"
				}
			],
			"name": "setNameSpeaker",
			"outputs": [],
			"payable": false,
			"stateMutability": "nonpayable",
			"type": "function"
		},
		{
			"constant": true,
			"inputs": [
				{
					"name": "_nameId",
					"type": "address"
				}
			],
			"name": "getNameRelationship",
			"outputs": [
				{
					"name": "",
					"type": "address"
				},
				{
					"name": "",
					"type": "address"
				},
				{
					"name": "",
					"type": "address"
				}
			],
			"payable": false,
			"stateMutability": "view",
			"type": "function"
		}
	],
	"bytecode": "0x608060405234801561001057600080fd5b50604051602080613197833981016040525160008054600160a060020a03928316600160a060020a0319918216179182905560018054909116919092161790556131388061005f6000396000f300608060405260043610620000955763ffffffff60e060020a600035041663029b7d5381146200009a5780632d1bf69e14620000da578063419e6e5c14620001065780634c4351cf14620001305780635fd4b08a146200017f578063636a8bd714620003d9578063b3da4e3414620003f1578063c92a252f1462000461578063e9233a65146200048b578063f46da08414620004fb575b600080fd5b348015620000a757600080fd5b50620000be600160a060020a036004351662000613565b60408051600160a060020a039092168252519081900360200190f35b348015620000e757600080fd5b5062000104600160a060020a03600435811690602435166200062e565b005b3480156200011357600080fd5b506200011e62000aee565b60408051918252519081900360200190f35b3480156200013d57600080fd5b5062000154600160a060020a036004351662000af4565b60408051600160a060020a039485168152928416602084015292168183015290519081900360600190f35b3480156200018c57600080fd5b50620001a3600160a060020a036004351662000c8c565b60405180806020018b600160a060020a0316600160a060020a031681526020018a600160a060020a0316600160a060020a0316815260200189600160a060020a0316600160a060020a0316815260200188600160a060020a0316600160a060020a0316815260200180602001806020018060200187600019166000191681526020018660ff1660ff16815260200185810385528f818151815260200191508051906020019080838360005b83811015620002685781810151838201526020016200024e565b50505050905090810190601f168015620002965780820380516001836020036101000a031916815260200191505b5085810384528a5181528a516020918201918c019080838360005b83811015620002cb578181015183820152602001620002b1565b50505050905090810190601f168015620002f95780820380516001836020036101000a031916815260200191505b5085810383528951815289516020918201918b019080838360005b838110156200032e57818101518382015260200162000314565b50505050905090810190601f1680156200035c5780820380516001836020036101000a031916815260200191505b5085810382528851815288516020918201918a019080838360005b838110156200039157818101518382015260200162000377565b50505050905090810190601f168015620003bf5780820380516001836020036101000a031916815260200191505b509e50505050505050505050505050505060405180910390f35b348015620003e657600080fd5b50620000be62001334565b348015620003fe57600080fd5b506040805160206004803580820135601f81018490048402850184019095528484526200044d943694929360249392840191908190840183828082843750949750620013439650505050505050565b604080519115158252519081900360200190f35b3480156200046e57600080fd5b5062000104600160a060020a036004358116906024351662001427565b3480156200049857600080fd5b50620004a9600435602435620018e7565b60408051602080825283518183015283519192839290830191858101910280838360005b83811015620004e7578181015183820152602001620004cd565b505050509050019250505060405180910390f35b3480156200050857600080fd5b506040805160206004803580820135601f81018490048402850184019095528484526200010494369492936024939284019190819084018382808284375050604080516020601f89358b018035918201839004830284018301909452808352979a99988101979196509182019450925082915084018382808284375050604080516020601f89358b018035918201839004830284018301909452808352979a99988101979196509182019450925082915084018382808284375050604080516020601f89358b018035918201839004830284018301909452808352979a999881019791965091820194509250829150840183828082843750949750509335945062001a189350505050565b600460205260009081526040902054600160a060020a031681565b60008060008492506000600160a060020a031683600160a060020a03166379bddde86040518163ffffffff1660e060020a028152600401602060405180830381600087803b1580156200068057600080fd5b505af115801562000695573d6000803e3d6000fd5b505050506040513d6020811015620006ac57600080fd5b5051600160a060020a03161480159062000735575082600160a060020a0316636bccedba6040518163ffffffff1660e060020a028152600401602060405180830381600087803b1580156200070057600080fd5b505af115801562000715573d6000803e3d6000fd5b505050506040513d60208110156200072c57600080fd5b505160ff166001145b15156200074157600080fd5b8391506000600160a060020a031682600160a060020a03166379bddde86040518163ffffffff1660e060020a028152600401602060405180830381600087803b1580156200078e57600080fd5b505af1158015620007a3573d6000803e3d6000fd5b505050506040513d6020811015620007ba57600080fd5b5051600160a060020a03161480159062000843575081600160a060020a0316636bccedba6040518163ffffffff1660e060020a028152600401602060405180830381600087803b1580156200080e57600080fd5b505af115801562000823573d6000803e3d6000fd5b505050506040513d60208110156200083a57600080fd5b505160ff166001145b15156200084f57600080fd5b33600090815260046020526040902054600160a060020a03161580159062000980575033600160a060020a031683600160a060020a0316632ef193b06040518163ffffffff1660e060020a028152600401602060405180830381600087803b158015620008bb57600080fd5b505af1158015620008d0573d6000803e3d6000fd5b505050506040513d6020811015620008e757600080fd5b5051604080517f79bddde80000000000000000000000000000000000000000000000000000000081529051600160a060020a03909216916379bddde8916004808201926020929091908290030181600087803b1580156200094757600080fd5b505af11580156200095c573d6000803e3d6000fd5b505050506040513d60208110156200097357600080fd5b5051600160a060020a0316145b15156200098c57600080fd5b82600160a060020a031663c996ad256040518163ffffffff1660e060020a028152600401602060405180830381600087803b158015620009cb57600080fd5b505af1158015620009e0573d6000803e3d6000fd5b505050506040513d6020811015620009f757600080fd5b5051604080517f0d9c8bca000000000000000000000000000000000000000000000000000000008152600160a060020a038781166004830152915192935090851691630d9c8bca916024808201926020929091908290030181600087803b15801562000a6257600080fd5b505af115801562000a77573d6000803e3d6000fd5b505050506040513d602081101562000a8e57600080fd5b5051151562000a9c57600080fd5b60408051600160a060020a038088168252808416602083015286168183015290517f741b5c309e11f1b7e1c94b7e00ab1d7a936e44332f29668bcb32eb2b0f2168cd9181900360600190a15050505050565b60025490565b60008060008084905080600160a060020a0316632a9719a46040518163ffffffff1660e060020a028152600401602060405180830381600087803b15801562000b3c57600080fd5b505af115801562000b51573d6000803e3d6000fd5b505050506040513d602081101562000b6857600080fd5b5051604080517f68dcb66b0000000000000000000000000000000000000000000000000000000081529051600160a060020a038416916368dcb66b9160048083019260209291908290030181600087803b15801562000bc657600080fd5b505af115801562000bdb573d6000803e3d6000fd5b505050506040513d602081101562000bf257600080fd5b5051604080517fb0759d080000000000000000000000000000000000000000000000000000000081529051600160a060020a0385169163b0759d089160048083019260209291908290030181600087803b15801562000c5057600080fd5b505af115801562000c65573d6000803e3d6000fd5b505050506040513d602081101562000c7c57600080fd5b5051919790965090945092505050565b6060600080600080606080606060008060008b905080600160a060020a0316630785581c6040518163ffffffff1660e060020a028152600401600060405180830381600087803b15801562000ce057600080fd5b505af115801562000cf5573d6000803e3d6000fd5b505050506040513d6000823e601f3d908101601f19168201604052602081101562000d1f57600080fd5b81019080805164010000000081111562000d3857600080fd5b8201602081018481111562000d4c57600080fd5b815164010000000081118282018710171562000d6757600080fd5b505092919050505081600160a060020a03166379bddde86040518163ffffffff1660e060020a028152600401602060405180830381600087803b15801562000dae57600080fd5b505af115801562000dc3573d6000803e3d6000fd5b505050506040513d602081101562000dda57600080fd5b5051604080517f2ef193b00000000000000000000000000000000000000000000000000000000081529051600160a060020a03851691632ef193b09160048083019260209291908290030181600087803b15801562000e3857600080fd5b505af115801562000e4d573d6000803e3d6000fd5b505050506040513d602081101562000e6457600080fd5b5051604080517f6cf99a8f0000000000000000000000000000000000000000000000000000000081529051600160a060020a03861691636cf99a8f9160048083019260209291908290030181600087803b15801562000ec257600080fd5b505af115801562000ed7573d6000803e3d6000fd5b505050506040513d602081101562000eee57600080fd5b5051604080517fc996ad250000000000000000000000000000000000000000000000000000000081529051600160a060020a0387169163c996ad259160048083019260209291908290030181600087803b15801562000f4c57600080fd5b505af115801562000f61573d6000803e3d6000fd5b505050506040513d602081101562000f7857600080fd5b5051604080517f056847900000000000000000000000000000000000000000000000000000000081529051600160a060020a03881691630568479091600480830192600092919082900301818387803b15801562000fd557600080fd5b505af115801562000fea573d6000803e3d6000fd5b505050506040513d6000823e601f3d908101601f1916820160405260208110156200101457600080fd5b8101908080516401000000008111156200102d57600080fd5b820160208101848111156200104157600080fd5b81516401000000008111828201871017156200105c57600080fd5b505092919050505086600160a060020a031663713b563f6040518163ffffffff1660e060020a028152600401600060405180830381600087803b158015620010a357600080fd5b505af1158015620010b8573d6000803e3d6000fd5b505050506040513d6000823e601f3d908101601f191682016040526020811015620010e257600080fd5b810190808051640100000000811115620010fb57600080fd5b820160208101848111156200110f57600080fd5b81516401000000008111828201871017156200112a57600080fd5b505092919050505087600160a060020a031663a727be576040518163ffffffff1660e060020a028152600401600060405180830381600087803b1580156200117157600080fd5b505af115801562001186573d6000803e3d6000fd5b505050506040513d6000823e601f3d908101601f191682016040526020811015620011b057600080fd5b810190808051640100000000811115620011c957600080fd5b82016020810184811115620011dd57600080fd5b8151640100000000811182820187101715620011f857600080fd5b505092919050505088600160a060020a031663d97aa9776040518163ffffffff1660e060020a028152600401602060405180830381600087803b1580156200123f57600080fd5b505af115801562001254573d6000803e3d6000fd5b505050506040513d60208110156200126b57600080fd5b5051604080517f6bccedba0000000000000000000000000000000000000000000000000000000081529051600160a060020a038c1691636bccedba9160048083019260209291908290030181600087803b158015620012c957600080fd5b505af1158015620012de573d6000803e3d6000fd5b505050506040513d6020811015620012f557600080fd5b81019080805190602001909291905050508999508494508393508292509a509a509a509a509a509a509a509a509a509a50509193959799509193959799565b600054600160a060020a031681565b600060036000836040516020018082805190602001908083835b602083106200137e5780518252601f1990920191602091820191016200135d565b6001836020036101000a0380198251168184511680821785525050505050509050019150506040516020818303038152906040526040518082805190602001908083835b60208310620013e35780518252601f199092019160209182019101620013c2565b51815160209384036101000a600019018019909216911617905260408051929094018290039091208652850195909552929092016000205460ff1695945050505050565b60008060008492506000600160a060020a031683600160a060020a03166379bddde86040518163ffffffff1660e060020a028152600401602060405180830381600087803b1580156200147957600080fd5b505af11580156200148e573d6000803e3d6000fd5b505050506040513d6020811015620014a557600080fd5b5051600160a060020a0316148015906200152e575082600160a060020a0316636bccedba6040518163ffffffff1660e060020a028152600401602060405180830381600087803b158015620014f957600080fd5b505af11580156200150e573d6000803e3d6000fd5b505050506040513d60208110156200152557600080fd5b505160ff166001145b15156200153a57600080fd5b8391506000600160a060020a031682600160a060020a03166379bddde86040518163ffffffff1660e060020a028152600401602060405180830381600087803b1580156200158757600080fd5b505af11580156200159c573d6000803e3d6000fd5b505050506040513d6020811015620015b357600080fd5b5051600160a060020a0316148015906200163c575081600160a060020a0316636bccedba6040518163ffffffff1660e060020a028152600401602060405180830381600087803b1580156200160757600080fd5b505af11580156200161c573d6000803e3d6000fd5b505050506040513d60208110156200163357600080fd5b505160ff166001145b15156200164857600080fd5b33600090815260046020526040902054600160a060020a03161580159062001779575033600160a060020a031683600160a060020a0316632ef193b06040518163ffffffff1660e060020a028152600401602060405180830381600087803b158015620016b457600080fd5b505af1158015620016c9573d6000803e3d6000fd5b505050506040513d6020811015620016e057600080fd5b5051604080517f79bddde80000000000000000000000000000000000000000000000000000000081529051600160a060020a03909216916379bddde8916004808201926020929091908290030181600087803b1580156200174057600080fd5b505af115801562001755573d6000803e3d6000fd5b505050506040513d60208110156200176c57600080fd5b5051600160a060020a0316145b15156200178557600080fd5b82600160a060020a0316636cf99a8f6040518163ffffffff1660e060020a028152600401602060405180830381600087803b158015620017c457600080fd5b505af1158015620017d9573d6000803e3d6000fd5b505050506040513d6020811015620017f057600080fd5b5051604080517fadcd905b000000000000000000000000000000000000000000000000000000008152600160a060020a03878116600483015291519293509085169163adcd905b916024808201926020929091908290030181600087803b1580156200185b57600080fd5b505af115801562001870573d6000803e3d6000fd5b505050506040513d60208110156200188757600080fd5b505115156200189557600080fd5b60408051600160a060020a038088168252808416602083015286168183015290517f84ae88f98aa412589fd7e65aec0395dc89581f7a780af36bcb3d39e7e5d07e309181900360600190a15050505050565b6060806000808510158015620018fd5750848410155b15156200190957600080fd5b6002546000106200191957600080fd5b6200193e600162001931868863ffffffff62001f3316565b9063ffffffff62001f4616565b60405190808252806020026020018201604052801562001968578160200160208202803883390190505b506002549092506200198290600163ffffffff62001f3316565b841115620019a357600254620019a090600163ffffffff62001f3316565b93505b50835b83811162001a10576002805482908110620019bd57fe5b600091825260209091200154600160a060020a031682620019e5838863ffffffff62001f3316565b81518110620019f057fe5b600160a060020a03909216602092830290910190910152600101620019a6565b509392505050565b600062001a258662001343565b1562001a3057600080fd5b33600090815260046020526040902054600160a060020a03161562001a5457600080fd5b600160036000886040516020018082805190602001908083835b6020831062001a8f5780518252601f19909201916020918201910162001a6e565b6001836020036101000a0380198251168184511680821785525050505050509050019150506040516020818303038152906040526040518082805190602001908083835b6020831062001af45780518252601f19909201916020918201910162001ad3565b51815160209384036101000a60001901801990921691161790526040805192909401829003909120865285019590955292909201600020805460ff191694151594909417909355508791503390508686868662001b5062001f5a565b600160a060020a03861660208083019190915260a0820183905260c08083528851908301528751829160408301916060840191608085019160e08601918d019080838360005b8381101562001bb057818101518382015260200162001b96565b50505050905090810190601f16801562001bde5780820380516001836020036101000a031916815260200191505b5085810384528951815289516020918201918b019080838360005b8381101562001c1357818101518382015260200162001bf9565b50505050905090810190601f16801562001c415780820380516001836020036101000a031916815260200191505b5085810383528851815288516020918201918a019080838360005b8381101562001c7657818101518382015260200162001c5c565b50505050905090810190601f16801562001ca45780820380516001836020036101000a031916815260200191505b50858103825287518152875160209182019189019080838360005b8381101562001cd957818101518382015260200162001cbf565b50505050905090810190601f16801562001d075780820380516001836020036101000a031916815260200191505b509a5050505050505050505050604051809103906000f08015801562001d31573d6000803e3d6000fd5b503360009081526004602081815260408084208054600160a060020a0380881673ffffffffffffffffffffffffffffffffffffffff19928316811790935560028054600181810183559189527f405787fa12a823e0f2b7631cc41b3ba8828b3321ca811111fa75cd3aa3bb5ace0180549093168417909255905483517f01173a7400000000000000000000000000000000000000000000000000000000815295860192909252915195965016936301173a74936024808501948390030190829087803b15801562001e0157600080fd5b505af115801562001e16573d6000803e3d6000fd5b505050506040513d602081101562001e2d57600080fd5b5051151562001e3b57600080fd5b6002547fdd445519212181802441b3ea8a0080462d25346f8279d9de28b7a64365d5f2fa903390839062001e7790600163ffffffff62001f3316565b896040518085600160a060020a0316600160a060020a0316815260200184600160a060020a0316600160a060020a0316815260200183815260200180602001828103825283818151815260200191508051906020019080838360005b8381101562001eed57818101518382015260200162001ed3565b50505050905090810190601f16801562001f1b5780820380516001836020036101000a031916815260200191505b509550505050505060405180910390a1505050505050565b60008282111562001f4057fe5b50900390565b8181018281101562001f5457fe5b92915050565b6040516111a18062001f6c83390190560060806040523480156200001157600080fd5b50604051620011a1380380620011a18339810160409081528151602080840151928401516060850151608086015160a0870151600080546201000060b060020a03191633620100000217815595880180519098948501969385019592909401939092889288928892889288928892879290916200009591600191908b019062000194565b5060028054600160a060020a038916600160a060020a031991821681179092556003805490911690911790558551620000d690600690602089019062000194565b508451620000ec90600790602088019062000194565b5083516200010290600890602087019062000194565b50600992909255600a8054600c8054600160a060020a0319908116600160a060020a039687161790915560038054600480546005805461010060a860020a0319909716610100998b16999099029890981760ff19166001179096553082851617928390559187169616938216841782168617905590811690911716909117905550620002399950505050505050505050565b828054600181600116156101000203166002900490600052602060002090601f016020900481019282601f10620001d757805160ff191683800117855562000207565b8280016001018555821562000207579182015b8281111562000207578251825591602001919060010190620001ea565b506200021592915062000219565b5090565b6200023691905b8082111562000215576000815560010162000220565b90565b610f5880620002496000396000f3006080604052600436106101955763ffffffff7c01000000000000000000000000000000000000000000000000000000006000350416630568479081146101d35780630785581c1461025d5780630d723dc5146102725780630d9c8bca146102b45780630e54d785146102e9578063211e28b6146103545780632a9719a41461036e5780632ef193b01461039f57806332511d5b146103b457806344b194bd146103c95780634e9d1a23146103ea578063573d7b891461040b578063597e1fb51461043157806368dcb66b146104465780636bccedba1461045b5780636c3e3213146104865780636cf99a8f146104a7578063713b563f146104bc57806375305ee4146104d157806379bddde8146104f85780638005e7781461050d5780638c5c3e2314610522578063966dae0e14610537578063a727be571461054c578063adcd905b14610561578063b000fba314610582578063b0759d08146105a3578063b69ef8a8146105b8578063c996ad25146105cd578063cf309012146105e2578063d97aa977146105f7578063f9302dfd1461060c575b60005460ff161580156101b05750600054610100900460ff16155b15156101bb57600080fd5b6010546101ce903463ffffffff61062d16565b601055005b3480156101df57600080fd5b506101e8610640565b6040805160208082528351818301528351919283929083019185019080838360005b8381101561022257818101518382015260200161020a565b50505050905090810190601f16801561024f5780820380516001836020036101000a031916815260200191505b509250505060405180910390f35b34801561026957600080fd5b506101e86106ce565b34801561027e57600080fd5b5061028a600435610728565b60408051600160a060020a0390941684529115156020840152151582820152519081900360600190f35b3480156102c057600080fd5b506102d5600160a060020a0360043516610759565b604080519115158252519081900360200190f35b3480156102f557600080fd5b506103046004356024356107e4565b60408051602080825283518183015283519192839290830191858101910280838360005b83811015610340578181015183820152602001610328565b505050509050019250505060405180910390f35b34801561036057600080fd5b506102d560043515156108ea565b34801561037a57600080fd5b50610383610934565b60408051600160a060020a039092168252519081900360200190f35b3480156103ab57600080fd5b50610383610948565b3480156103c057600080fd5b506102d5610957565b3480156103d557600080fd5b506102d5600160a060020a036004351661099f565b3480156103f657600080fd5b506102d5600160a060020a0360043516610a2d565b34801561041757600080fd5b506102d5600160a060020a03600435166024351515610ad4565b34801561043d57600080fd5b506102d5610c12565b34801561045257600080fd5b50610383610c20565b34801561046757600080fd5b50610470610c2f565b6040805160ff9092168252519081900360200190f35b34801561049257600080fd5b506102d5600160a060020a0360043516610c38565b3480156104b357600080fd5b50610383610cc4565b3480156104c857600080fd5b506101e8610cd3565b3480156104dd57600080fd5b506104e6610d2e565b60408051918252519081900360200190f35b34801561050457600080fd5b50610383610d34565b34801561051957600080fd5b506104e6610d43565b34801561052e57600080fd5b506104e6610d49565b34801561054357600080fd5b50610383610d4f565b34801561055857600080fd5b506101e8610d64565b34801561056d57600080fd5b506102d5600160a060020a0360043516610dbf565b34801561058e57600080fd5b506102d5600160a060020a0360043516610e4a565b3480156105af57600080fd5b50610383610ed5565b3480156105c457600080fd5b506104e6610ee4565b3480156105d957600080fd5b50610383610eea565b3480156105ee57600080fd5b506102d5610ef9565b34801561060357600080fd5b506104e6610f02565b34801561061857600080fd5b506104e6600160a060020a0360043516610f08565b8181018281101561063a57fe5b92915050565b6006805460408051602060026001851615610100026000190190941693909304601f810184900484028201840190925281815292918301828280156106c65780601f1061069b576101008083540402835291602001916106c6565b820191906000526020600020905b8154815290600101906020018083116106a957829003601f168201915b505050505081565b60018054604080516020600284861615610100026000190190941693909304601f810184900484028201840190925281815292918301828280156106c65780601f1061069b576101008083540402835291602001916106c6565b601160205260009081526040902054600160a060020a0381169060ff60a060020a820481169160a860020a90041683565b6000805460ff161580156107755750600054610100900460ff16155b151561078057600080fd5b600054620100009004600160a060020a0316331461079d57600080fd5b600160a060020a03821615156107b257600080fd5b5060058054600160a060020a03831673ffffffffffffffffffffffffffffffffffffffff199091161790556001919050565b6060806000600185101580156107fa5750848410155b8015610808575083600f5410155b151561081357600080fd5b6108346001610828868863ffffffff610f1a16565b9063ffffffff61062d16565b60405190808252806020026020018201604052801561085d578160200160208202803883390190505b5091508490505b8381116108e25760008181526011602052604090205460a860020a900460ff1661088f5760006108a8565b600081815260116020526040902054600160a060020a03165b826108b9838863ffffffff610f1a16565b815181106108c357fe5b600160a060020a03909216602092830290910190910152600101610864565b509392505050565b60008054620100009004600160a060020a0316331461090857600080fd5b600054610100900460ff161561091d57600080fd5b506000805460ff1916911515919091179055600190565b600a546101009004600160a060020a031681565b600354600160a060020a031681565b60008054620100009004600160a060020a0316331461097557600080fd5b600054610100900460ff161561098a57600080fd5b506000805461ff001916610100179055600190565b600160a060020a038116600090815260126020526040812054811080156109f35750600160a060020a0382166000908152601260209081526040808320548352601190915290205460a060020a900460ff16155b801561063a575050600160a060020a03166000908152601260209081526040808320548352601190915290205460a860020a900460ff1690565b60008054819060ff16158015610a4b5750600054610100900460ff16155b1515610a5657600080fd5b600054620100009004600160a060020a03163314610a7357600080fd5b5050600160a060020a0316600090815260126020908152604080832054835260119091529020805474ff0000000000000000000000000000000000000000191660a060020a179055600d80546001908101909155600e805460001901905590565b60008054819060ff16158015610af25750600054610100900460ff16155b1515610afd57600080fd5b600054620100009004600160a060020a03163314610b1a57600080fd5b600160a060020a0384161515610b2f57600080fd5b600160a060020a03841660009081526012602052604090205415610b5257600080fd5b600f805460010190558215610b6f57600d80546001019055610b79565b600e805460010190555b5050600f54600160a060020a039290921660008181526012602090815260408083208690559482526011905292909220805475ff0000000000000000000000000000000000000000001992151560a060020a0274ff00000000000000000000000000000000000000001973ffffffffffffffffffffffffffffffffffffffff1990921690941716929092171660a860020a179055600190565b600054610100900460ff1681565b600b54600160a060020a031681565b600a5460ff1681565b600160a060020a038116600090815260126020526040812054811080156109f35750600160a060020a0382166000908152601260209081526040808320548352601190915290205460a060020a900460ff16801561063a575050600160a060020a03166000908152601260209081526040808320548352601190915290205460a860020a900460ff1690565b600454600160a060020a031681565b6007805460408051602060026001851615610100026000190190941693909304601f810184900484028201840190925281815292918301828280156106c65780601f1061069b576101008083540402835291602001916106c6565b600e5481565b600254600160a060020a031681565b600f5481565b600d5481565b600054620100009004600160a060020a031681565b6008805460408051602060026001851615610100026000190190941693909304601f810184900484028201840190925281815292918301828280156106c65780601f1061069b576101008083540402835291602001916106c6565b6000805460ff16158015610ddb5750600054610100900460ff16155b1515610de657600080fd5b600054620100009004600160a060020a03163314610e0357600080fd5b600160a060020a0382161515610e1857600080fd5b5060048054600160a060020a03831673ffffffffffffffffffffffffffffffffffffffff199091161790556001919050565b6000805460ff16158015610e665750600054610100900460ff16155b1515610e7157600080fd5b600054620100009004600160a060020a03163314610e8e57600080fd5b600160a060020a0382161515610ea357600080fd5b5060038054600160a060020a03831673ffffffffffffffffffffffffffffffffffffffff199091161790556001919050565b600c54600160a060020a031681565b60105481565b600554600160a060020a031681565b60005460ff1681565b60095481565b60126020526000908152604090205481565b600082821115610f2657fe5b509003905600a165627a7a723058208992d78bb8649d40817f620ab7cbf75b2e2150732c5b0da22f5abe4ca8a473220029a165627a7a72305820941f6a32e07f464009444c86197738226f6cd8c7da89427bbf571995269fa58c0029",
	"source": "pragma solidity ^0.4.24;\n\nimport './Name.sol';\nimport './SafeMath.sol';\nimport './Position.sol';\n\n/**\n * @title NameFactory\n *\n * The purpose of this contract is to allow node to create Name\n */\ncontract NameFactory {\n\tusing SafeMath for uint256;\n\n\taddress public positionAddress;\n\n\tPosition internal _position;\n\n\taddress[] internal names;\n\n\tmapping (bytes32 => bool) internal originNames;\n\tmapping (address => address) public ethAddressToNameId;\n\n\t// Event to be broadcasted to public when a Name is created\n\tevent CreateName(address ethAddress, address nameId, uint256 index, string name);\n\n\t// Event to be broadcasted to public when current Advocate sets New Listener for a Name\n\tevent SetNameListener(address nameId, address oldListenerId, address newListenerId);\n\n\t// Event to be broadcasted to public when current Advocate sets New Speaker for a Name\n\tevent SetNameSpeaker(address nameId, address oldSpeakerId, address newSpeakerId);\n\n\t/**\n\t * @dev Constructor function\n\t */\n\tconstructor(address _positionAddress) public {\n\t\tpositionAddress = _positionAddress;\n\t\t_position = Position(positionAddress);\n\t}\n\n\t/**\n\t * @dev Check whether or not `_name` is taken\n\t * @param _name The value to be checked\n\t * @return true if taken, false otherwise\n\t */\n\tfunction isNameTaken(string _name) public view returns (bool) {\n\t\treturn originNames[keccak256(abi.encodePacked(_name))];\n\t}\n\n\t/**\n\t * @dev Create a Name\n\t * @param _name The name of the Name\n\t * @param _datHash The datHash to this Name's profile\n\t * @param _database The database for this Name\n\t * @param _keyValue The key/value pair to be checked on the database\n\t * @param _contentId The contentId related to this Name\n\t */\n\tfunction createName(string _name, string _datHash, string _database, string _keyValue, bytes32 _contentId) public {\n\t\trequire (isNameTaken(_name) == false);\n\t\t// Only one Name per ETH address\n\t\trequire (ethAddressToNameId[msg.sender] == address(0));\n\n\t\toriginNames[keccak256(abi.encodePacked(_name))] = true;\n\n\t\t// The address is the Name ID (which is also a Thought ID)\n\t\taddress nameId = new Name(_name, msg.sender, _datHash, _database, _keyValue, _contentId);\n\t\tethAddressToNameId[msg.sender] = nameId;\n\t\tnames.push(nameId);\n\n\t\t// Need to mint Position token for this Name\n\t\trequire (_position.mintToken(nameId));\n\n\t\temit CreateName(msg.sender, nameId, names.length.sub(1), _name);\n\t}\n\n\t/**\n\t * @dev Get Name information\n\t * @param _nameId The ID of the Name to be queried\n\t * @return The name of the Name\n\t * @return The nameId of the Name (in this case, it's the creator node's ETH address)\n\t * @return The advocateId of the Name\n\t * @return The listenerId of the Name\n\t * @return The speakerId of the Name\n\t * @return The datHash of the Name\n\t * @return The database of the Name\n\t * @return The keyValue of the Name\n\t * @return The contentId of the Name\n\t * @return The thoughtTypeId of the Name\n\t */\n\tfunction getName(address _nameId) public view returns (string, address, address, address, address, string, string, string, bytes32, uint8) {\n\t\tName _name = Name(_nameId);\n\t\treturn (\n\t\t\t_name.originName(),\n\t\t\t_name.originNameId(),\n\t\t\t_name.advocateId(),\n\t\t\t_name.listenerId(),\n\t\t\t_name.speakerId(),\n\t\t\t_name.datHash(),\n\t\t\t_name.database(),\n\t\t\t_name.keyValue(),\n\t\t\t_name.contentId(),\n\t\t\t_name.thoughtTypeId()\n\t\t);\n\t}\n\n\t/**\n\t * @dev Get total Names count\n\t * @return total Names count\n\t */\n\tfunction getTotalNamesCount() public view returns (uint256) {\n\t\treturn names.length;\n\t}\n\n\t/**\n\t * @dev Get list of Name IDs (or Thought IDs)\n\t * @param _from The starting index\n\t * @param _to The ending index\n\t * @return list of Name IDs\n\t */\n\tfunction getNameIds(uint256 _from, uint256 _to) public view returns (address[]) {\n\t\trequire (_from >= 0 && _to >= _from);\n\t\trequire (names.length > 0);\n\n\t\taddress[] memory _names = new address[](_to.sub(_from).add(1));\n\t\tif (_to > names.length.sub(1)) {\n\t\t\t_to = names.length.sub(1);\n\t\t}\n\t\tfor (uint256 i = _from; i <= _to; i++) {\n\t\t\t_names[i.sub(_from)] = names[i];\n\t\t}\n\t\treturn _names;\n\t}\n\n\t/**\n\t * @dev Set Name's listener\n\t * @param _nameId The ID of the Name\n\t * @param _newListenerId The new listener ID to be set\n\t */\n\tfunction setNameListener(address _nameId, address _newListenerId) public {\n\t\tName _name = Name(_nameId);\n\n\t\t// Make sure the Name exist\n\t\trequire (_name.originNameId() != address(0) && _name.thoughtTypeId() == 1);\n\n\t\t// Make sure the new Listener ID is a Name\n\t\tName _newListener = Name(_newListenerId);\n\t\trequire (_newListener.originNameId() != address(0) && _newListener.thoughtTypeId() == 1);\n\n\t\t// Only Name's current advocate can set new advocate\n\t\trequire (ethAddressToNameId[msg.sender] != address(0) && Name(_name.advocateId()).originNameId() == msg.sender);\n\n\t\t// Set the new listener\n\t\taddress _currentListenerId = _name.listenerId();\n\t\trequire (_name.setListener(_newListenerId));\n\n\t\temit SetNameListener(_nameId, _currentListenerId, _newListenerId);\n\t}\n\n\t/**\n\t * @dev Set Name's speaker\n\t * @param _nameId The ID of the Name\n\t * @param _newSpeakerId The new speaker ID to be set\n\t */\n\tfunction setNameSpeaker(address _nameId, address _newSpeakerId) public {\n\t\tName _name = Name(_nameId);\n\n\t\t// Make sure the Name exist\n\t\trequire (_name.originNameId() != address(0) && _name.thoughtTypeId() == 1);\n\n\t\t// Make sure the new Speaker ID is a Name\n\t\tName _newSpeaker = Name(_newSpeakerId);\n\t\trequire (_newSpeaker.originNameId() != address(0) && _newSpeaker.thoughtTypeId() == 1);\n\n\t\t// Only Name's current advocate can set new advocate\n\t\trequire (ethAddressToNameId[msg.sender] != address(0) && Name(_name.advocateId()).originNameId() == msg.sender);\n\n\t\t// Set the new speaker\n\t\taddress _currentSpeakerId = _name.speakerId();\n\t\trequire (_name.setSpeaker(_newSpeakerId));\n\n\t\temit SetNameSpeaker(_nameId, _currentSpeakerId, _newSpeakerId);\n\t}\n\n\t/**\n\t * @dev Get Name's relationship\n\t * @param _nameId The ID of the Name\n\t * @return fromId (Origin of the Name)\n\t * @return throughId\n\t * @return toId (Destination of the Name)\n\t */\n\tfunction getNameRelationship(address _nameId) public view returns (address, address, address) {\n\t\tName _name = Name(_nameId);\n\t\treturn (\n\t\t\t_name.fromId(),\n\t\t\t_name.throughId(),\n\t\t\t_name.toId()\n\t\t);\n\t}\n}\n",
	"sourcePath": "/home/jmulyono/ao-contracts/contracts/NameFactory.sol",
	"compiler": {
		"name": "solc",
		"version": "0.4.24+commit.e67f0147.Emscripten.clang"
	},
	"schemaVersion": "2.0.1",
	"updatedAt": "2018-12-11T08:43:54.367Z"
}