{
	"contractName": "NameTAOLookup",
	"abi": [
		{
			"constant": true,
			"inputs": [],
			"name": "internalId",
			"outputs": [
				{
					"name": "",
					"type": "uint256"
				}
			],
			"payable": false,
			"stateMutability": "view",
			"type": "function"
		},
		{
			"constant": true,
			"inputs": [],
			"name": "nameTAOPositionAddress",
			"outputs": [
				{
					"name": "",
					"type": "address"
				}
			],
			"payable": false,
			"stateMutability": "view",
			"type": "function"
		},
		{
			"constant": true,
			"inputs": [
				{
					"name": "",
					"type": "address"
				}
			],
			"name": "whitelist",
			"outputs": [
				{
					"name": "",
					"type": "bool"
				}
			],
			"payable": false,
			"stateMutability": "view",
			"type": "function"
		},
		{
			"constant": true,
			"inputs": [],
			"name": "totalNames",
			"outputs": [
				{
					"name": "",
					"type": "uint256"
				}
			],
			"payable": false,
			"stateMutability": "view",
			"type": "function"
		},
		{
			"constant": true,
			"inputs": [],
			"name": "theAO",
			"outputs": [
				{
					"name": "",
					"type": "address"
				}
			],
			"payable": false,
			"stateMutability": "view",
			"type": "function"
		},
		{
			"constant": true,
			"inputs": [],
			"name": "nameFactoryAddress",
			"outputs": [
				{
					"name": "",
					"type": "address"
				}
			],
			"payable": false,
			"stateMutability": "view",
			"type": "function"
		},
		{
			"constant": true,
			"inputs": [],
			"name": "totalTAOs",
			"outputs": [
				{
					"name": "",
					"type": "uint256"
				}
			],
			"payable": false,
			"stateMutability": "view",
			"type": "function"
		},
		{
			"constant": true,
			"inputs": [],
			"name": "taoFactoryAddress",
			"outputs": [
				{
					"name": "",
					"type": "address"
				}
			],
			"payable": false,
			"stateMutability": "view",
			"type": "function"
		},
		{
			"inputs": [
				{
					"name": "_nameFactoryAddress",
					"type": "address"
				}
			],
			"payable": false,
			"stateMutability": "nonpayable",
			"type": "constructor"
		},
		{
			"constant": false,
			"inputs": [
				{
					"name": "_nameTAOPositionAddress",
					"type": "address"
				}
			],
			"name": "setNameTAOPositionAddress",
			"outputs": [],
			"payable": false,
			"stateMutability": "nonpayable",
			"type": "function"
		},
		{
			"constant": false,
			"inputs": [
				{
					"name": "_theAO",
					"type": "address"
				}
			],
			"name": "transferOwnership",
			"outputs": [],
			"payable": false,
			"stateMutability": "nonpayable",
			"type": "function"
		},
		{
			"constant": false,
			"inputs": [
				{
					"name": "_account",
					"type": "address"
				},
				{
					"name": "_whitelist",
					"type": "bool"
				}
			],
			"name": "setWhitelist",
			"outputs": [],
			"payable": false,
			"stateMutability": "nonpayable",
			"type": "function"
		},
		{
			"constant": false,
			"inputs": [
				{
					"name": "_taoFactoryAddress",
					"type": "address"
				}
			],
			"name": "setTAOFactoryAddress",
			"outputs": [],
			"payable": false,
			"stateMutability": "nonpayable",
			"type": "function"
		},
		{
			"constant": true,
			"inputs": [
				{
					"name": "_name",
					"type": "string"
				}
			],
			"name": "isExist",
			"outputs": [
				{
					"name": "",
					"type": "bool"
				}
			],
			"payable": false,
			"stateMutability": "view",
			"type": "function"
		},
		{
			"constant": false,
			"inputs": [
				{
					"name": "_name",
					"type": "string"
				},
				{
					"name": "_nameTAOAddress",
					"type": "address"
				},
				{
					"name": "_parentName",
					"type": "string"
				},
				{
					"name": "_typeId",
					"type": "uint256"
				}
			],
			"name": "add",
			"outputs": [
				{
					"name": "",
					"type": "bool"
				}
			],
			"payable": false,
			"stateMutability": "nonpayable",
			"type": "function"
		},
		{
			"constant": true,
			"inputs": [
				{
					"name": "_name",
					"type": "string"
				}
			],
			"name": "getByName",
			"outputs": [
				{
					"name": "",
					"type": "string"
				},
				{
					"name": "",
					"type": "address"
				},
				{
					"name": "",
					"type": "string"
				},
				{
					"name": "",
					"type": "uint256"
				}
			],
			"payable": false,
			"stateMutability": "view",
			"type": "function"
		},
		{
			"constant": true,
			"inputs": [
				{
					"name": "_internalId",
					"type": "uint256"
				}
			],
			"name": "getByInternalId",
			"outputs": [
				{
					"name": "",
					"type": "string"
				},
				{
					"name": "",
					"type": "address"
				},
				{
					"name": "",
					"type": "string"
				},
				{
					"name": "",
					"type": "uint256"
				}
			],
			"payable": false,
			"stateMutability": "view",
			"type": "function"
		},
		{
			"constant": true,
			"inputs": [
				{
					"name": "_name",
					"type": "string"
				}
			],
			"name": "getAddressByName",
			"outputs": [
				{
					"name": "",
					"type": "address"
				}
			],
			"payable": false,
			"stateMutability": "view",
			"type": "function"
		}
	],
	"bytecode": "0x608060405234801561001057600080fd5b50604051602080611409833981016040525160008054600160a060020a0319908116331790915560038054600160a060020a03909316929091169190911790556113aa8061005f6000396000f3006080604052600436106100f05763ffffffff7c01000000000000000000000000000000000000000000000000000000006000350416632191207a81146100f5578063463f0f29146101185780634d3d096b1461013f5780634ef033f0146101ac57806353d6fd59146101dd5780635cfaf2ef14610203578063847d97ab146102245780639a65ddec146102cc5780639b19251a146103255780639ff33fd114610346578063a38cb6c11461045c578063a9b6b38e14610471578063b336ad8314610486578063bc406206146104df578063c93c271d146104f4578063f2fde38b14610509578063ff0374b51461052a575b600080fd5b34801561010157600080fd5b50610116600160a060020a036004351661053f565b005b34801561012457600080fd5b5061012d61062c565b60408051918252519081900360200190f35b34801561014b57600080fd5b506040805160206004803580820135601f81018490048402850184019095528484526101989436949293602493928401919081908401838280828437509497506106329650505050505050565b604080519115158252519081900360200190f35b3480156101b857600080fd5b506101c161070f565b60408051600160a060020a039092168252519081900360200190f35b3480156101e957600080fd5b50610116600160a060020a0360043516602435151561071e565b34801561020f57600080fd5b50610116600160a060020a0360043516610807565b34801561023057600080fd5b506040805160206004803580820135601f810184900484028501840190955284845261019894369492936024939284019190819084018382808284375050604080516020601f818a01358b0180359182018390048302840183018552818452989b600160a060020a038b35169b909a90999401975091955091820193509150819084018382808284375094975050933594506108f49350505050565b3480156102d857600080fd5b506040805160206004803580820135601f81018490048402850184019095528484526101c1943694929360249392840191908190840183828082843750949750610af89650505050505050565b34801561033157600080fd5b50610198600160a060020a0360043516610d4e565b34801561035257600080fd5b5061035e600435610d63565b604051808060200185600160a060020a0316600160a060020a0316815260200180602001848152602001838103835287818151815260200191508051906020019080838360005b838110156103bd5781810151838201526020016103a5565b50505050905090810190601f1680156103ea5780820380516001836020036101000a031916815260200191505b50838103825285518152855160209182019187019080838360005b8381101561041d578181015183820152602001610405565b50505050905090810190601f16801561044a5780820380516001836020036101000a031916815260200191505b50965050505050505060405180910390f35b34801561046857600080fd5b5061012d610f17565b34801561047d57600080fd5b506101c1610f1d565b34801561049257600080fd5b506040805160206004803580820135601f810184900484028501840190955284845261035e943694929360249392840191908190840183828082843750949750610f2c9650505050505050565b3480156104eb57600080fd5b506101c16111a0565b34801561050057600080fd5b5061012d6111af565b34801561051557600080fd5b50610116600160a060020a03600435166111b5565b34801561053657600080fd5b506101c16112a2565b6000546001546040805160e260020a633d9abf2b028152336004820152600160a060020a0393841660248201529290911660448301525173__AOLibrary_____________________________9163f66afcac916064808301926020929190829003018186803b1580156105b157600080fd5b505af41580156105c5573d6000803e3d6000fd5b505050506040513d60208110156105db57600080fd5b505115156105e857600080fd5b600160a060020a03811615156105fd57600080fd5b6004805473ffffffffffffffffffffffffffffffffffffffff1916600160a060020a0392909216919091179055565b60055481565b600080826040516020018082805190602001908083835b602083106106685780518252601f199092019160209182019101610649565b6001836020036101000a0380198251168184511680821785525050505050509050019150506040516020818303038152906040526040518082805190602001908083835b602083106106cb5780518252601f1990920191602091820191016106ac565b51815160209384036101000a600019018019909216911617905260408051929094018290039091206000908152600990915291822054919091119695505050505050565b600154600160a060020a031681565b6000546001546040805160e260020a633d9abf2b028152336004820152600160a060020a0393841660248201529290911660448301525173__AOLibrary_____________________________9163f66afcac916064808301926020929190829003018186803b15801561079057600080fd5b505af41580156107a4573d6000803e3d6000fd5b505050506040513d60208110156107ba57600080fd5b505115156107c757600080fd5b600160a060020a03821615156107dc57600080fd5b600160a060020a03919091166000908152600260205260409020805460ff1916911515919091179055565b6000546001546040805160e260020a633d9abf2b028152336004820152600160a060020a0393841660248201529290911660448301525173__AOLibrary_____________________________9163f66afcac916064808301926020929190829003018186803b15801561087957600080fd5b505af415801561088d573d6000803e3d6000fd5b505050506040513d60208110156108a357600080fd5b505115156108b057600080fd5b600160a060020a03811615156108c557600080fd5b6001805473ffffffffffffffffffffffffffffffffffffffff1916600160a060020a0392909216919091179055565b60035460009081908190600160a060020a031633148061091e5750600454600160a060020a031633145b151561092957600080fd5b865160001061093757600080fd5b600160a060020a038616151561094c57600080fd5b845160001061095a57600080fd5b8315806109675750836001145b151561097257600080fd5b61097b87610632565b1561098557600080fd5b6005805460010190556040518751889160209081019182918401908083835b602083106109c35780518252601f1990920191602091820191016109a4565b6001836020036101000a0380198251168184511680821785525050505050509050019150506040516020818303038152906040526040518082805190602001908083835b60208310610a265780518252601f199092019160209182019101610a07565b51815160209384036101000a6000190180199092169116179052604080519290940182900390912060055460008281526009845285812082905590815260088352939093208c519397509550610a8494508593508b019190506112b1565b5060018101805473ffffffffffffffffffffffffffffffffffffffff1916600160a060020a0388161790558451610ac490600283019060208801906112b1565b5060038101849055831515610ae157600780546001019055610aeb565b6006805460010190555b5060019695505050505050565b600080610b0361132f565b610b0c84610632565b1515610b1757600080fd5b836040516020018082805190602001908083835b60208310610b4a5780518252601f199092019160209182019101610b2b565b6001836020036101000a0380198251168184511680821785525050505050509050019150506040516020818303038152906040526040518082805190602001908083835b60208310610bad5780518252601f199092019160209182019101610b8e565b518151600019602094850361010090810a8201928316921993909316919091179092526040805196909401869003862060008181526009855285812054815260088552859020805460a0601f6002600184161590960290960190911693909304938401859004909402870182019094526080860182815293995094965090945085939192508491840182828015610c855780601f10610c5a57610100808354040283529160200191610c85565b820191906000526020600020905b815481529060010190602001808311610c6857829003601f168201915b5050509183525050600182810154600160a060020a0316602080840191909152600280850180546040805161010096831615969096026000190190911692909204601f81018490048402850184018352808552919094019391830182828015610d2f5780601f10610d0457610100808354040283529160200191610d2f565b820191906000526020600020905b815481529060010190602001808311610d1257829003601f168201915b5050509183525050600391909101546020918201520151949350505050565b60026020526000908152604090205460ff1681565b6060600060606000610d7361132f565b600086815260086020526040902060010154600160a060020a03161515610d9957600080fd5b6000868152600860209081526040918290208251815460026001821615610100026000190190911604601f8101849004909302810160a090810190945260808101838152909391928492849190840182828015610e375780601f10610e0c57610100808354040283529160200191610e37565b820191906000526020600020905b815481529060010190602001808311610e1a57829003601f168201915b5050509183525050600182810154600160a060020a0316602080840191909152600280850180546040805161010096831615969096026000190190911692909204601f81018490048402850184018352808552919094019391830182828015610ee15780601f10610eb657610100808354040283529160200191610ee1565b820191906000526020600020905b815481529060010190602001808311610ec457829003601f168201915b50505091835250506003919091015460209182015281519082015160408301516060909301519199909850919650945092505050565b60065481565b600054600160a060020a031681565b606060006060600080610f3d61132f565b610f4687610632565b1515610f5157600080fd5b866040516020018082805190602001908083835b60208310610f845780518252601f199092019160209182019101610f65565b6001836020036101000a0380198251168184511680821785525050505050509050019150506040516020818303038152906040526040518082805190602001908083835b60208310610fe75780518252601f199092019160209182019101610fc8565b518151600019602094850361010090810a8201928316921993909316919091179092526040805196909401869003862060008181526009855285812054815260088552859020805460a0601f60026001841615909602909601909116939093049384018590049094028701820190945260808601828152939950949650909450859391925084918401828280156110bf5780601f10611094576101008083540402835291602001916110bf565b820191906000526020600020905b8154815290600101906020018083116110a257829003601f168201915b5050509183525050600182810154600160a060020a0316602080840191909152600280850180546040805161010096831615969096026000190190911692909204601f810184900484028501840183528085529190940193918301828280156111695780601f1061113e57610100808354040283529160200191611169565b820191906000526020600020905b81548152906001019060200180831161114c57829003601f168201915b5050509183525050600391909101546020918201528151908201516040830151606090930151919a90995091975095509350505050565b600354600160a060020a031681565b60075481565b6000546001546040805160e260020a633d9abf2b028152336004820152600160a060020a0393841660248201529290911660448301525173__AOLibrary_____________________________9163f66afcac916064808301926020929190829003018186803b15801561122757600080fd5b505af415801561123b573d6000803e3d6000fd5b505050506040513d602081101561125157600080fd5b5051151561125e57600080fd5b600160a060020a038116151561127357600080fd5b6000805473ffffffffffffffffffffffffffffffffffffffff1916600160a060020a0392909216919091179055565b600454600160a060020a031681565b828054600181600116156101000203166002900490600052602060002090601f016020900481019282601f106112f257805160ff191683800117855561131f565b8280016001018555821561131f579182015b8281111561131f578251825591602001919060010190611304565b5061132b929150611361565b5090565b608060405190810160405280606081526020016000600160a060020a0316815260200160608152602001600081525090565b61137b91905b8082111561132b5760008155600101611367565b905600a165627a7a72305820bbca623db49801adb2ce376b65544ec7da2b2827842188aac489d25315100ff60029",
	"source": "pragma solidity ^0.4.24;\n\nimport './TheAO.sol';\nimport './AOLibrary.sol';\n\n/**\n * @title NameTAOLookup\n *\n */\ncontract NameTAOLookup is TheAO {\n\taddress public nameFactoryAddress;\n\taddress public taoFactoryAddress;\n\n\tstruct NameTAOInfo {\n\t\tstring name;\n\t\taddress nameTAOAddress;\n\t\tstring parentName;\n\t\tuint256 typeId; // 0 = TAO. 1 = Name\n\t}\n\n\tuint256 public internalId;\n\tuint256 public totalNames;\n\tuint256 public totalTAOs;\n\n\tmapping (uint256 => NameTAOInfo) internal nameTAOInfos;\n\tmapping (bytes32 => uint256) internal internalIdLookup;\n\n\t/**\n\t * @dev Constructor function\n\t */\n\tconstructor(address _nameFactoryAddress) public {\n\t\tnameFactoryAddress = _nameFactoryAddress;\n\t}\n\n\t/**\n\t * @dev Checks if the calling contract address is The AO\n\t *\t\tOR\n\t *\t\tIf The AO is set to a Name/TAO, then check if calling address is the Advocate\n\t */\n\tmodifier onlyTheAO {\n\t\trequire (AOLibrary.isTheAO(msg.sender, theAO, nameTAOPositionAddress));\n\t\t_;\n\t}\n\n\t/**\n\t * @dev Check if calling address is Factory\n\t */\n\tmodifier onlyFactory {\n\t\trequire (msg.sender == nameFactoryAddress || msg.sender == taoFactoryAddress);\n\t\t_;\n\t}\n\n\t/***** The AO ONLY METHODS *****/\n\t/**\n\t * @dev The AO set the NameTAOPosition Address\n\t * @param _nameTAOPositionAddress The address of NameTAOPosition\n\t */\n\tfunction setNameTAOPositionAddress(address _nameTAOPositionAddress) public onlyTheAO {\n\t\trequire (_nameTAOPositionAddress != address(0));\n\t\tnameTAOPositionAddress = _nameTAOPositionAddress;\n\t}\n\n\t/**\n\t * @dev Transfer ownership of The AO to new address\n\t * @param _theAO The new address to be transferred\n\t */\n\tfunction transferOwnership(address _theAO) public onlyTheAO {\n\t\trequire (_theAO != address(0));\n\t\ttheAO = _theAO;\n\t}\n\n\t/**\n\t * @dev Whitelist `_account` address to transact on behalf of others\n\t * @param _account The address to whitelist\n\t * @param _whitelist Either to whitelist or not\n\t */\n\tfunction setWhitelist(address _account, bool _whitelist) public onlyTheAO {\n\t\trequire (_account != address(0));\n\t\twhitelist[_account] = _whitelist;\n\t}\n\n\t/**\n\t * @dev The AO set the taoFactoryAddress Address\n\t * @param _taoFactoryAddress The address of TAOFactory\n\t */\n\tfunction setTAOFactoryAddress(address _taoFactoryAddress) public onlyTheAO {\n\t\trequire (_taoFactoryAddress != address(0));\n\t\ttaoFactoryAddress = _taoFactoryAddress;\n\t}\n\n\t/***** PUBLIC METHODS *****/\n\t/**\n\t * @dev Check whether or not a name exist in the list\n\t * @param _name The name to be checked\n\t * @return true if yes, false otherwise\n\t */\n\tfunction isExist(string _name) public view returns (bool) {\n\t\tbytes32 _nameKey = keccak256(abi.encodePacked(_name));\n\t\treturn (internalIdLookup[_nameKey] > 0);\n\t}\n\n\t/**\n\t * @dev Add a new NameTAOInfo\n\t * @param _name The name of the Name/TAO\n\t * @param _nameTAOAddress The address of the Name/TAO\n\t * @param _parentName The parent name of the Name/TAO\n\t * @param _typeId If TAO = 0. Name = 1\n\t * @return true on success\n\t */\n\tfunction add(string _name, address _nameTAOAddress, string _parentName, uint256 _typeId) public onlyFactory returns (bool) {\n\t\trequire (bytes(_name).length > 0);\n\t\trequire (_nameTAOAddress != address(0));\n\t\trequire (bytes(_parentName).length > 0);\n\t\trequire (_typeId == 0 || _typeId == 1);\n\t\trequire (!isExist(_name));\n\n\t\tinternalId++;\n\t\tbytes32 _nameKey = keccak256(abi.encodePacked(_name));\n\t\tinternalIdLookup[_nameKey] = internalId;\n\t\tNameTAOInfo storage _nameTAOInfo = nameTAOInfos[internalId];\n\t\t_nameTAOInfo.name = _name;\n\t\t_nameTAOInfo.nameTAOAddress = _nameTAOAddress;\n\t\t_nameTAOInfo.parentName = _parentName;\n\t\t_nameTAOInfo.typeId = _typeId;\n\n\t\tif (_typeId == 0) {\n\t\t\ttotalTAOs++;\n\t\t} else {\n\t\t\ttotalNames++;\n\t\t}\n\t\treturn true;\n\t}\n\n\t/**\n\t * @dev Get the NameTAOInfo given a name\n\t * @param _name The name to be queried\n\t * @return the name of Name/TAO\n\t * @return the address of Name/TAO\n\t * @return the parent name of Name/TAO\n\t * @return type ID. 0 = TAO. 1 = Name\n\t */\n\tfunction getByName(string _name) public view returns (string, address, string, uint256) {\n\t\trequire (isExist(_name));\n\t\tbytes32 _nameKey = keccak256(abi.encodePacked(_name));\n\t\tNameTAOInfo memory _nameTAOInfo = nameTAOInfos[internalIdLookup[_nameKey]];\n\t\treturn (\n\t\t\t_nameTAOInfo.name,\n\t\t\t_nameTAOInfo.nameTAOAddress,\n\t\t\t_nameTAOInfo.parentName,\n\t\t\t_nameTAOInfo.typeId\n\t\t);\n\t}\n\n\t/**\n\t * @dev Get the NameTAOInfo given an ID\n\t * @param _internalId The internal ID to be queried\n\t * @return the name of Name/TAO\n\t * @return the address of Name/TAO\n\t * @return the parent name of Name/TAO\n\t * @return type ID. 0 = TAO. 1 = Name\n\t */\n\tfunction getByInternalId(uint256 _internalId) public view returns (string, address, string, uint256) {\n\t\trequire (nameTAOInfos[_internalId].nameTAOAddress != address(0));\n\t\tNameTAOInfo memory _nameTAOInfo = nameTAOInfos[_internalId];\n\t\treturn (\n\t\t\t_nameTAOInfo.name,\n\t\t\t_nameTAOInfo.nameTAOAddress,\n\t\t\t_nameTAOInfo.parentName,\n\t\t\t_nameTAOInfo.typeId\n\t\t);\n\t}\n\n\t/**\n\t * @dev Return the nameTAOAddress given a _name\n\t * @param _name The name to be queried\n\t * @return the nameTAOAddress of the name\n\t */\n\tfunction getAddressByName(string _name) public view returns (address) {\n\t\trequire (isExist(_name));\n\t\tbytes32 _nameKey = keccak256(abi.encodePacked(_name));\n\t\tNameTAOInfo memory _nameTAOInfo = nameTAOInfos[internalIdLookup[_nameKey]];\n\t\treturn _nameTAOInfo.nameTAOAddress;\n\t}\n}\n",
	"sourcePath": "/Users/johanmulyono/Work/AO/ao-contracts/contracts/NameTAOLookup.sol",
	"compiler": {
		"name": "solc",
		"version": "0.4.24+commit.e67f0147.Emscripten.clang"
	},
	"schemaVersion": "2.0.1",
	"updatedAt": "2019-01-07T04:52:08.798Z"
}