{
  "contractName": "NameTAOVault",
  "abi": [
    {
      "constant": true,
      "inputs": [],
      "name": "aoIonAddress",
      "outputs": [
        {
          "name": "",
          "type": "address"
        }
      ],
      "payable": false,
      "stateMutability": "view",
      "type": "function",
      "signature": "0x3c56b011"
    },
    {
      "constant": true,
      "inputs": [],
      "name": "nameTAOPositionAddress",
      "outputs": [
        {
          "name": "",
          "type": "address"
        }
      ],
      "payable": false,
      "stateMutability": "view",
      "type": "function",
      "signature": "0x4ef033f0"
    },
    {
      "constant": true,
      "inputs": [
        {
          "name": "",
          "type": "address"
        }
      ],
      "name": "whitelist",
      "outputs": [
        {
          "name": "",
          "type": "bool"
        }
      ],
      "payable": false,
      "stateMutability": "view",
      "type": "function",
      "signature": "0x9b19251a"
    },
    {
      "constant": true,
      "inputs": [],
      "name": "nameAccountRecoveryAddress",
      "outputs": [
        {
          "name": "",
          "type": "address"
        }
      ],
      "payable": false,
      "stateMutability": "view",
      "type": "function",
      "signature": "0xa4e5fad2"
    },
    {
      "constant": true,
      "inputs": [],
      "name": "theAO",
      "outputs": [
        {
          "name": "",
          "type": "address"
        }
      ],
      "payable": false,
      "stateMutability": "view",
      "type": "function",
      "signature": "0xa9b6b38e"
    },
    {
      "constant": true,
      "inputs": [],
      "name": "nameFactoryAddress",
      "outputs": [
        {
          "name": "",
          "type": "address"
        }
      ],
      "payable": false,
      "stateMutability": "view",
      "type": "function",
      "signature": "0xbc406206"
    },
    {
      "inputs": [
        {
          "name": "_nameFactoryAddress",
          "type": "address"
        },
        {
          "name": "_nameTAOPositionAddress",
          "type": "address"
        }
      ],
      "payable": false,
      "stateMutability": "nonpayable",
      "type": "constructor",
      "signature": "constructor"
    },
    {
      "anonymous": false,
      "inputs": [
        {
          "indexed": true,
          "name": "advocateId",
          "type": "address"
        },
        {
          "indexed": false,
          "name": "from",
          "type": "address"
        },
        {
          "indexed": false,
          "name": "to",
          "type": "address"
        },
        {
          "indexed": false,
          "name": "amount",
          "type": "uint256"
        }
      ],
      "name": "TransferEth",
      "type": "event",
      "signature": "0x465b2f4afe4365933cc5ead3aec00111a21a453e8d71bf1453b1d59ff4693081"
    },
    {
      "anonymous": false,
      "inputs": [
        {
          "indexed": true,
          "name": "advocateId",
          "type": "address"
        },
        {
          "indexed": false,
          "name": "from",
          "type": "address"
        },
        {
          "indexed": false,
          "name": "to",
          "type": "address"
        },
        {
          "indexed": false,
          "name": "amount",
          "type": "uint256"
        },
        {
          "indexed": false,
          "name": "erc20TokenAddress",
          "type": "address"
        },
        {
          "indexed": false,
          "name": "erc20Name",
          "type": "string"
        },
        {
          "indexed": false,
          "name": "erc20Symbol",
          "type": "string"
        }
      ],
      "name": "TransferERC20",
      "type": "event",
      "signature": "0xc0f0c797c493e6d182b6024333a29a628896a4efd7c18d491c8f717407aa93c9"
    },
    {
      "anonymous": false,
      "inputs": [
        {
          "indexed": true,
          "name": "advocateId",
          "type": "address"
        },
        {
          "indexed": false,
          "name": "from",
          "type": "address"
        },
        {
          "indexed": false,
          "name": "to",
          "type": "address"
        },
        {
          "indexed": false,
          "name": "amount",
          "type": "uint256"
        }
      ],
      "name": "TransferAO",
      "type": "event",
      "signature": "0x658cf4630baa0314cfa2427dcb40dd2eb2fa2cb15dfa6b4fb9af7fb84a1eeefd"
    },
    {
      "anonymous": false,
      "inputs": [
        {
          "indexed": true,
          "name": "advocateId",
          "type": "address"
        },
        {
          "indexed": false,
          "name": "from",
          "type": "address"
        },
        {
          "indexed": false,
          "name": "to",
          "type": "address"
        },
        {
          "indexed": false,
          "name": "amount",
          "type": "uint256"
        }
      ],
      "name": "TransferPrimordialAO",
      "type": "event",
      "signature": "0x18b5b019bd18c19ea9e68f05645b493bd5e0494f7f566a89b360ffc076423de9"
    },
    {
      "constant": false,
      "inputs": [
        {
          "name": "_theAO",
          "type": "address"
        }
      ],
      "name": "transferOwnership",
      "outputs": [],
      "payable": false,
      "stateMutability": "nonpayable",
      "type": "function",
      "signature": "0xf2fde38b"
    },
    {
      "constant": false,
      "inputs": [
        {
          "name": "_account",
          "type": "address"
        },
        {
          "name": "_whitelist",
          "type": "bool"
        }
      ],
      "name": "setWhitelist",
      "outputs": [],
      "payable": false,
      "stateMutability": "nonpayable",
      "type": "function",
      "signature": "0x53d6fd59"
    },
    {
      "constant": false,
      "inputs": [
        {
          "name": "_nameFactoryAddress",
          "type": "address"
        }
      ],
      "name": "setNameFactoryAddress",
      "outputs": [],
      "payable": false,
      "stateMutability": "nonpayable",
      "type": "function",
      "signature": "0x8c924361"
    },
    {
      "constant": false,
      "inputs": [
        {
          "name": "_nameTAOPositionAddress",
          "type": "address"
        }
      ],
      "name": "setNameTAOPositionAddress",
      "outputs": [],
      "payable": false,
      "stateMutability": "nonpayable",
      "type": "function",
      "signature": "0x5cfaf2ef"
    },
    {
      "constant": false,
      "inputs": [
        {
          "name": "_nameAccountRecoveryAddress",
          "type": "address"
        }
      ],
      "name": "setNameAccountRecoveryAddress",
      "outputs": [],
      "payable": false,
      "stateMutability": "nonpayable",
      "type": "function",
      "signature": "0x1dfde2bd"
    },
    {
      "constant": false,
      "inputs": [
        {
          "name": "_aoIonAddress",
          "type": "address"
        }
      ],
      "name": "setAOIonAddress",
      "outputs": [],
      "payable": false,
      "stateMutability": "nonpayable",
      "type": "function",
      "signature": "0xf97106b5"
    },
    {
      "constant": true,
      "inputs": [
        {
          "name": "_id",
          "type": "address"
        }
      ],
      "name": "ethBalanceOf",
      "outputs": [
        {
          "name": "",
          "type": "uint256"
        }
      ],
      "payable": false,
      "stateMutability": "view",
      "type": "function",
      "signature": "0x7252bbf2"
    },
    {
      "constant": true,
      "inputs": [
        {
          "name": "_erc20TokenAddress",
          "type": "address"
        },
        {
          "name": "_id",
          "type": "address"
        }
      ],
      "name": "erc20BalanceOf",
      "outputs": [
        {
          "name": "",
          "type": "uint256"
        }
      ],
      "payable": false,
      "stateMutability": "view",
      "type": "function",
      "signature": "0xe1c6fb66"
    },
    {
      "constant": true,
      "inputs": [
        {
          "name": "_id",
          "type": "address"
        }
      ],
      "name": "AOBalanceOf",
      "outputs": [
        {
          "name": "",
          "type": "uint256"
        }
      ],
      "payable": false,
      "stateMutability": "view",
      "type": "function",
      "signature": "0xce6c9138"
    },
    {
      "constant": true,
      "inputs": [
        {
          "name": "_id",
          "type": "address"
        }
      ],
      "name": "primordialAOBalanceOf",
      "outputs": [
        {
          "name": "",
          "type": "uint256"
        }
      ],
      "payable": false,
      "stateMutability": "view",
      "type": "function",
      "signature": "0x80f3659c"
    },
    {
      "constant": false,
      "inputs": [
        {
          "name": "_from",
          "type": "address"
        },
        {
          "name": "_to",
          "type": "address"
        },
        {
          "name": "_amount",
          "type": "uint256"
        }
      ],
      "name": "transferEth",
      "outputs": [],
      "payable": false,
      "stateMutability": "nonpayable",
      "type": "function",
      "signature": "0xd765925d"
    },
    {
      "constant": false,
      "inputs": [
        {
          "name": "_erc20TokenAddress",
          "type": "address"
        },
        {
          "name": "_from",
          "type": "address"
        },
        {
          "name": "_to",
          "type": "address"
        },
        {
          "name": "_amount",
          "type": "uint256"
        }
      ],
      "name": "transferERC20",
      "outputs": [],
      "payable": false,
      "stateMutability": "nonpayable",
      "type": "function",
      "signature": "0xda3e8ce4"
    },
    {
      "constant": false,
      "inputs": [
        {
          "name": "_from",
          "type": "address"
        },
        {
          "name": "_to",
          "type": "address"
        },
        {
          "name": "_amount",
          "type": "uint256"
        }
      ],
      "name": "transferAO",
      "outputs": [],
      "payable": false,
      "stateMutability": "nonpayable",
      "type": "function",
      "signature": "0x9937ae95"
    },
    {
      "constant": false,
      "inputs": [
        {
          "name": "_from",
          "type": "address"
        },
        {
          "name": "_to",
          "type": "address"
        },
        {
          "name": "_amount",
          "type": "uint256"
        }
      ],
      "name": "transferPrimordialAO",
      "outputs": [],
      "payable": false,
      "stateMutability": "nonpayable",
      "type": "function",
      "signature": "0xc5f98177"
    }
  ],
  "bytecode": "0x60806040523480156200001157600080fd5b506040516040806200318b833981018060405260408110156200003357600080fd5b508051602091820151600080546001600160a01b031916331790559091620000619083906200007a811b901c565b62000072816200017b60201b60201c565b50506200027c565b600054600154604080517ff66afcac0000000000000000000000000000000000000000000000000000000081523360048201526001600160a01b0393841660248201529290911660448301525173__AOLibrary_____________________________9163f66afcac916064808301926020929190829003018186803b1580156200010357600080fd5b505af415801562000118573d6000803e3d6000fd5b505050506040513d60208110156200012f57600080fd5b50516200013b57600080fd5b6001600160a01b0381166200014f57600080fd5b600380546001600160a01b039092166001600160a01b0319928316811790915560068054909216179055565b600054600154604080517ff66afcac0000000000000000000000000000000000000000000000000000000081523360048201526001600160a01b0393841660248201529290911660448301525173__AOLibrary_____________________________9163f66afcac916064808301926020929190829003018186803b1580156200020457600080fd5b505af415801562000219573d6000803e3d6000fd5b505050506040513d60208110156200023057600080fd5b50516200023c57600080fd5b6001600160a01b0381166200025057600080fd5b600180546001600160a01b039092166001600160a01b0319928316811790915560078054909216179055565b612eff806200028c6000396000f3fe608060405234801561001057600080fd5b506004361061012c5760003560e01c8063a4e5fad2116100ad578063d765925d11610071578063d765925d14610341578063da3e8ce414610377578063e1c6fb66146103b3578063f2fde38b146103e1578063f97106b5146104075761012c565b8063a4e5fad2146102cd578063a9b6b38e146102d5578063bc406206146102dd578063c5f98177146102e5578063ce6c91381461031b5761012c565b80637252bbf2116100f45780637252bbf2146101d957806380f3659c146102115780638c924361146102375780639937ae951461025d5780639b19251a146102935761012c565b80631dfde2bd146101315780633c56b011146101595780634ef033f01461017d57806353d6fd59146101855780635cfaf2ef146101b3575b600080fd5b6101576004803603602081101561014757600080fd5b50356001600160a01b031661042d565b005b610161610516565b604080516001600160a01b039092168252519081900360200190f35b610161610525565b6101576004803603604081101561019b57600080fd5b506001600160a01b0381351690602001351515610534565b610157600480360360208110156101c957600080fd5b50356001600160a01b0316610619565b6101ff600480360360208110156101ef57600080fd5b50356001600160a01b03166106ff565b60408051918252519081900360200190f35b6101ff6004803603602081101561022757600080fd5b50356001600160a01b0316610837565b6101576004803603602081101561024d57600080fd5b50356001600160a01b03166109e3565b6101576004803603606081101561027357600080fd5b506001600160a01b03813581169160208101359091169060400135610ac9565b6102b9600480360360208110156102a957600080fd5b50356001600160a01b03166111cf565b604080519115158252519081900360200190f35b6101616111e4565b6101616111f3565b610161611202565b610157600480360360608110156102fb57600080fd5b506001600160a01b03813581169160208101359091169060400135611211565b6101ff6004803603602081101561033157600080fd5b50356001600160a01b0316611917565b6101576004803603606081101561035757600080fd5b506001600160a01b03813581169160208101359091169060400135611a90565b6101576004803603608081101561038d57600080fd5b506001600160a01b03813581169160208101358216916040820135169060600135612122565b6101ff600480360360408110156103c957600080fd5b506001600160a01b0381358116916020013516612b5e565b610157600480360360208110156103f757600080fd5b50356001600160a01b0316612d11565b6101576004803603602081101561041d57600080fd5b50356001600160a01b0316612ded565b60005460015460408051600160e21b633d9abf2b0281523360048201526001600160a01b0393841660248201529290911660448301525173__AOLibrary_____________________________9163f66afcac916064808301926020929190829003018186803b15801561049f57600080fd5b505af41580156104b3573d6000803e3d6000fd5b505050506040513d60208110156104c957600080fd5b50516104d457600080fd5b6001600160a01b0381166104e757600080fd5b600480546001600160a01b03199081166001600160a01b03938416179182905560088054929093169116179055565b6005546001600160a01b031681565b6001546001600160a01b031681565b60005460015460408051600160e21b633d9abf2b0281523360048201526001600160a01b0393841660248201529290911660448301525173__AOLibrary_____________________________9163f66afcac916064808301926020929190829003018186803b1580156105a657600080fd5b505af41580156105ba573d6000803e3d6000fd5b505050506040513d60208110156105d057600080fd5b50516105db57600080fd5b6001600160a01b0382166105ee57600080fd5b6001600160a01b03919091166000908152600260205260409020805460ff1916911515919091179055565b60005460015460408051600160e21b633d9abf2b0281523360048201526001600160a01b0393841660248201529290911660448301525173__AOLibrary_____________________________9163f66afcac916064808301926020929190829003018186803b15801561068b57600080fd5b505af415801561069f573d6000803e3d6000fd5b505050506040513d60208110156106b557600080fd5b50516106c057600080fd5b6001600160a01b0381166106d357600080fd5b600180546001600160a01b039092166001600160a01b0319928316811790915560078054909216179055565b60008173__AOLibrary_____________________________632d706a34826040518263ffffffff1660e01b815260040180826001600160a01b03166001600160a01b0316815260200191505060206040518083038186803b15801561076357600080fd5b505af4158015610777573d6000803e3d6000fd5b505050506040513d602081101561078d57600080fd5b50518061081f575060408051600160e21b630bf295050281526001600160a01b0383166004820152905173__AOLibrary_____________________________91632fca5414916024808301926020929190829003018186803b1580156107f257600080fd5b505af4158015610806573d6000803e3d6000fd5b505050506040513d602081101561081c57600080fd5b50515b61082857600080fd5b50506001600160a01b03163190565b60008173__AOLibrary_____________________________632d706a34826040518263ffffffff1660e01b815260040180826001600160a01b03166001600160a01b0316815260200191505060206040518083038186803b15801561089b57600080fd5b505af41580156108af573d6000803e3d6000fd5b505050506040513d60208110156108c557600080fd5b505180610957575060408051600160e21b630bf295050281526001600160a01b0383166004820152905173__AOLibrary_____________________________91632fca5414916024808301926020929190829003018186803b15801561092a57600080fd5b505af415801561093e573d6000803e3d6000fd5b505050506040513d602081101561095457600080fd5b50515b61096057600080fd5b60095460408051600160e11b632bca35c70281526001600160a01b038681166004830152915191909216916357946b8e916024808301926020929190829003018186803b1580156109b057600080fd5b505afa1580156109c4573d6000803e3d6000fd5b505050506040513d60208110156109da57600080fd5b50519392505050565b60005460015460408051600160e21b633d9abf2b0281523360048201526001600160a01b0393841660248201529290911660448301525173__AOLibrary_____________________________9163f66afcac916064808301926020929190829003018186803b158015610a5557600080fd5b505af4158015610a69573d6000803e3d6000fd5b505050506040513d6020811015610a7f57600080fd5b5051610a8a57600080fd5b6001600160a01b038116610a9d57600080fd5b600380546001600160a01b039092166001600160a01b0319928316811790915560068054909216179055565b8273__AOLibrary_____________________________632d706a34826040518263ffffffff1660e01b815260040180826001600160a01b03166001600160a01b0316815260200191505060206040518083038186803b158015610b2b57600080fd5b505af4158015610b3f573d6000803e3d6000fd5b505050506040513d6020811015610b5557600080fd5b505180610be7575060408051600160e21b630bf295050281526001600160a01b0383166004820152905173__AOLibrary_____________________________91632fca5414916024808301926020929190829003018186803b158015610bba57600080fd5b505af4158015610bce573d6000803e3d6000fd5b505050506040513d6020811015610be457600080fd5b50515b610bf057600080fd5b60075460408051600160e01b6371ce52ed0281523360048201526001600160a01b0380881660248301529151879392909216916371ce52ed91604480820192602092909190829003018186803b158015610c4957600080fd5b505afa158015610c5d573d6000803e3d6000fd5b505050506040513d6020811015610c7357600080fd5b5051610c7e57600080fd5b60085460065460408051600160e01b63029b7d5302815233600482015290516001600160a01b0393841693633ebc2ab393169163029b7d53916024808301926020929190829003018186803b158015610cd657600080fd5b505afa158015610cea573d6000803e3d6000fd5b505050506040513d6020811015610d0057600080fd5b50516040805163ffffffff841660e01b81526001600160a01b039092166004830152516024808301926020929190829003018186803b158015610d4257600080fd5b505afa158015610d56573d6000803e3d6000fd5b505050506040513d6020811015610d6c57600080fd5b505115610d7857600080fd5b600083118015610e05575060095460408051600160e01b6370a082310281526001600160a01b0388811660048301529151869392909216916370a0823191602480820192602092909190829003018186803b158015610dd657600080fd5b505afa158015610dea573d6000803e3d6000fd5b505050506040513d6020811015610e0057600080fd5b505110155b610e0e57600080fd5b6001600160a01b03841615801590610e385750836001600160a01b0316856001600160a01b031614155b610e4157600080fd5b60065460408051600160e21b6338815cd10281526001600160a01b03888116600483015291516000939092169163e205734491602480820192602092909190829003018186803b158015610e9457600080fd5b505afa158015610ea8573d6000803e3d6000fd5b505050506040513d6020811015610ebe57600080fd5b50516001600160a01b031614610f545760085460408051600160e01b633ebc2ab30281526001600160a01b03888116600483015291519190921691633ebc2ab3916024808301926020929190829003018186803b158015610f1e57600080fd5b505afa158015610f32573d6000803e3d6000fd5b505050506040513d6020811015610f4857600080fd5b505115610f5457600080fd5b60065460408051600160e21b6338815cd10281526001600160a01b03878116600483015291516000939092169163e205734491602480820192602092909190829003018186803b158015610fa757600080fd5b505afa158015610fbb573d6000803e3d6000fd5b505050506040513d6020811015610fd157600080fd5b50516001600160a01b0316146110675760085460408051600160e01b633ebc2ab30281526001600160a01b03878116600483015291519190921691633ebc2ab3916024808301926020929190829003018186803b15801561103157600080fd5b505afa158015611045573d6000803e3d6000fd5b505050506040513d602081101561105b57600080fd5b50511561106757600080fd5b60095460408051600160e51b63050a251f0281526001600160a01b0388811660048301528781166024830152604482018790529151919092169163a144a3e09160648083019260209291908290030181600087803b1580156110c857600080fd5b505af11580156110dc573d6000803e3d6000fd5b505050506040513d60208110156110f257600080fd5b50516110fd57600080fd5b60065460408051600160e01b63029b7d5302815233600482015290516001600160a01b039092169163029b7d5391602480820192602092909190829003018186803b15801561114b57600080fd5b505afa15801561115f573d6000803e3d6000fd5b505050506040513d602081101561117557600080fd5b5051604080516001600160a01b0388811682528781166020830152818301879052915191909216917f658cf4630baa0314cfa2427dcb40dd2eb2fa2cb15dfa6b4fb9af7fb84a1eeefd919081900360600190a25050505050565b60026020526000908152604090205460ff1681565b6004546001600160a01b031681565b6000546001600160a01b031681565b6003546001600160a01b031681565b8273__AOLibrary_____________________________632d706a34826040518263ffffffff1660e01b815260040180826001600160a01b03166001600160a01b0316815260200191505060206040518083038186803b15801561127357600080fd5b505af4158015611287573d6000803e3d6000fd5b505050506040513d602081101561129d57600080fd5b50518061132f575060408051600160e21b630bf295050281526001600160a01b0383166004820152905173__AOLibrary_____________________________91632fca5414916024808301926020929190829003018186803b15801561130257600080fd5b505af4158015611316573d6000803e3d6000fd5b505050506040513d602081101561132c57600080fd5b50515b61133857600080fd5b60075460408051600160e01b6371ce52ed0281523360048201526001600160a01b0380881660248301529151879392909216916371ce52ed91604480820192602092909190829003018186803b15801561139157600080fd5b505afa1580156113a5573d6000803e3d6000fd5b505050506040513d60208110156113bb57600080fd5b50516113c657600080fd5b60085460065460408051600160e01b63029b7d5302815233600482015290516001600160a01b0393841693633ebc2ab393169163029b7d53916024808301926020929190829003018186803b15801561141e57600080fd5b505afa158015611432573d6000803e3d6000fd5b505050506040513d602081101561144857600080fd5b50516040805163ffffffff841660e01b81526001600160a01b039092166004830152516024808301926020929190829003018186803b15801561148a57600080fd5b505afa15801561149e573d6000803e3d6000fd5b505050506040513d60208110156114b457600080fd5b5051156114c057600080fd5b60008311801561154d575060095460408051600160e11b632bca35c70281526001600160a01b0388811660048301529151869392909216916357946b8e91602480820192602092909190829003018186803b15801561151e57600080fd5b505afa158015611532573d6000803e3d6000fd5b505050506040513d602081101561154857600080fd5b505110155b61155657600080fd5b6001600160a01b038416158015906115805750836001600160a01b0316856001600160a01b031614155b61158957600080fd5b60065460408051600160e21b6338815cd10281526001600160a01b03888116600483015291516000939092169163e205734491602480820192602092909190829003018186803b1580156115dc57600080fd5b505afa1580156115f0573d6000803e3d6000fd5b505050506040513d602081101561160657600080fd5b50516001600160a01b03161461169c5760085460408051600160e01b633ebc2ab30281526001600160a01b03888116600483015291519190921691633ebc2ab3916024808301926020929190829003018186803b15801561166657600080fd5b505afa15801561167a573d6000803e3d6000fd5b505050506040513d602081101561169057600080fd5b50511561169c57600080fd5b60065460408051600160e21b6338815cd10281526001600160a01b03878116600483015291516000939092169163e205734491602480820192602092909190829003018186803b1580156116ef57600080fd5b505afa158015611703573d6000803e3d6000fd5b505050506040513d602081101561171957600080fd5b50516001600160a01b0316146117af5760085460408051600160e01b633ebc2ab30281526001600160a01b03878116600483015291519190921691633ebc2ab3916024808301926020929190829003018186803b15801561177957600080fd5b505afa15801561178d573d6000803e3d6000fd5b505050506040513d60208110156117a357600080fd5b5051156117af57600080fd5b60095460408051600160e11b634f7756bd0281526001600160a01b03888116600483015287811660248301526044820187905291519190921691639eeead7a9160648083019260209291908290030181600087803b15801561181057600080fd5b505af1158015611824573d6000803e3d6000fd5b505050506040513d602081101561183a57600080fd5b505161184557600080fd5b60065460408051600160e01b63029b7d5302815233600482015290516001600160a01b039092169163029b7d5391602480820192602092909190829003018186803b15801561189357600080fd5b505afa1580156118a7573d6000803e3d6000fd5b505050506040513d60208110156118bd57600080fd5b5051604080516001600160a01b0388811682528781166020830152818301879052915191909216917f18b5b019bd18c19ea9e68f05645b493bd5e0494f7f566a89b360ffc076423de9919081900360600190a25050505050565b60008173__AOLibrary_____________________________632d706a34826040518263ffffffff1660e01b815260040180826001600160a01b03166001600160a01b0316815260200191505060206040518083038186803b15801561197b57600080fd5b505af415801561198f573d6000803e3d6000fd5b505050506040513d60208110156119a557600080fd5b505180611a37575060408051600160e21b630bf295050281526001600160a01b0383166004820152905173__AOLibrary_____________________________91632fca5414916024808301926020929190829003018186803b158015611a0a57600080fd5b505af4158015611a1e573d6000803e3d6000fd5b505050506040513d6020811015611a3457600080fd5b50515b611a4057600080fd5b60095460408051600160e01b6370a082310281526001600160a01b038681166004830152915191909216916370a08231916024808301926020929190829003018186803b1580156109b057600080fd5b8273__AOLibrary_____________________________632d706a34826040518263ffffffff1660e01b815260040180826001600160a01b03166001600160a01b0316815260200191505060206040518083038186803b158015611af257600080fd5b505af4158015611b06573d6000803e3d6000fd5b505050506040513d6020811015611b1c57600080fd5b505180611bae575060408051600160e21b630bf295050281526001600160a01b0383166004820152905173__AOLibrary_____________________________91632fca5414916024808301926020929190829003018186803b158015611b8157600080fd5b505af4158015611b95573d6000803e3d6000fd5b505050506040513d6020811015611bab57600080fd5b50515b611bb757600080fd5b60075460408051600160e01b6371ce52ed0281523360048201526001600160a01b0380881660248301529151879392909216916371ce52ed91604480820192602092909190829003018186803b158015611c1057600080fd5b505afa158015611c24573d6000803e3d6000fd5b505050506040513d6020811015611c3a57600080fd5b5051611c4557600080fd5b60085460065460408051600160e01b63029b7d5302815233600482015290516001600160a01b0393841693633ebc2ab393169163029b7d53916024808301926020929190829003018186803b158015611c9d57600080fd5b505afa158015611cb1573d6000803e3d6000fd5b505050506040513d6020811015611cc757600080fd5b50516040805163ffffffff841660e01b81526001600160a01b039092166004830152516024808301926020929190829003018186803b158015611d0957600080fd5b505afa158015611d1d573d6000803e3d6000fd5b505050506040513d6020811015611d3357600080fd5b505115611d3f57600080fd5b600083118015611d59575082856001600160a01b03163110155b611d6257600080fd5b6001600160a01b03841615801590611d8c5750836001600160a01b0316856001600160a01b031614155b611d9557600080fd5b60065460408051600160e21b6338815cd10281526001600160a01b03888116600483015291516000939092169163e205734491602480820192602092909190829003018186803b158015611de857600080fd5b505afa158015611dfc573d6000803e3d6000fd5b505050506040513d6020811015611e1257600080fd5b50516001600160a01b031614611ea85760085460408051600160e01b633ebc2ab30281526001600160a01b03888116600483015291519190921691633ebc2ab3916024808301926020929190829003018186803b158015611e7257600080fd5b505afa158015611e86573d6000803e3d6000fd5b505050506040513d6020811015611e9c57600080fd5b505115611ea857600080fd5b60065460408051600160e21b6338815cd10281526001600160a01b03878116600483015291516000939092169163e205734491602480820192602092909190829003018186803b158015611efb57600080fd5b505afa158015611f0f573d6000803e3d6000fd5b505050506040513d6020811015611f2557600080fd5b50516001600160a01b031614611fbb5760085460408051600160e01b633ebc2ab30281526001600160a01b03878116600483015291519190921691633ebc2ab3916024808301926020929190829003018186803b158015611f8557600080fd5b505afa158015611f99573d6000803e3d6000fd5b505050506040513d6020811015611faf57600080fd5b505115611fbb57600080fd5b846001600160a01b031663e9bb84c285856040518363ffffffff1660e01b815260040180836001600160a01b03166001600160a01b0316815260200182815260200192505050602060405180830381600087803b15801561201b57600080fd5b505af115801561202f573d6000803e3d6000fd5b505050506040513d602081101561204557600080fd5b505161205057600080fd5b60065460408051600160e01b63029b7d5302815233600482015290516001600160a01b039092169163029b7d5391602480820192602092909190829003018186803b15801561209e57600080fd5b505afa1580156120b2573d6000803e3d6000fd5b505050506040513d60208110156120c857600080fd5b5051604080516001600160a01b0388811682528781166020830152818301879052915191909216917f465b2f4afe4365933cc5ead3aec00111a21a453e8d71bf1453b1d59ff4693081919081900360600190a25050505050565b8273__AOLibrary_____________________________632d706a34826040518263ffffffff1660e01b815260040180826001600160a01b03166001600160a01b0316815260200191505060206040518083038186803b15801561218457600080fd5b505af4158015612198573d6000803e3d6000fd5b505050506040513d60208110156121ae57600080fd5b505180612240575060408051600160e21b630bf295050281526001600160a01b0383166004820152905173__AOLibrary_____________________________91632fca5414916024808301926020929190829003018186803b15801561221357600080fd5b505af4158015612227573d6000803e3d6000fd5b505050506040513d602081101561223d57600080fd5b50515b61224957600080fd5b60075460408051600160e01b6371ce52ed0281523360048201526001600160a01b0380881660248301529151879392909216916371ce52ed91604480820192602092909190829003018186803b1580156122a257600080fd5b505afa1580156122b6573d6000803e3d6000fd5b505050506040513d60208110156122cc57600080fd5b50516122d757600080fd5b60085460065460408051600160e01b63029b7d5302815233600482015290516001600160a01b0393841693633ebc2ab393169163029b7d53916024808301926020929190829003018186803b15801561232f57600080fd5b505afa158015612343573d6000803e3d6000fd5b505050506040513d602081101561235957600080fd5b50516040805163ffffffff841660e01b81526001600160a01b039092166004830152516024808301926020929190829003018186803b15801561239b57600080fd5b505afa1580156123af573d6000803e3d6000fd5b505050506040513d60208110156123c557600080fd5b5051156123d157600080fd5b60408051600160e21b630ad0e6a50281526001600160a01b0388166004820152905173__AOLibrary_____________________________91632b439a94916024808301926020929190829003018186803b15801561242e57600080fd5b505af4158015612442573d6000803e3d6000fd5b505050506040513d602081101561245857600080fd5b505161246357600080fd5b8583158015906124f4575083816001600160a01b03166370a08231886040518263ffffffff1660e01b815260040180826001600160a01b03166001600160a01b0316815260200191505060206040518083038186803b1580156124c557600080fd5b505afa1580156124d9573d6000803e3d6000fd5b505050506040513d60208110156124ef57600080fd5b505110155b6124fd57600080fd5b6001600160a01b038516158015906125275750846001600160a01b0316866001600160a01b031614155b61253057600080fd5b60065460408051600160e21b6338815cd10281526001600160a01b03898116600483015291516000939092169163e205734491602480820192602092909190829003018186803b15801561258357600080fd5b505afa158015612597573d6000803e3d6000fd5b505050506040513d60208110156125ad57600080fd5b50516001600160a01b0316146126435760085460408051600160e01b633ebc2ab30281526001600160a01b03898116600483015291519190921691633ebc2ab3916024808301926020929190829003018186803b15801561260d57600080fd5b505afa158015612621573d6000803e3d6000fd5b505050506040513d602081101561263757600080fd5b50511561264357600080fd5b60065460408051600160e21b6338815cd10281526001600160a01b03888116600483015291516000939092169163e205734491602480820192602092909190829003018186803b15801561269657600080fd5b505afa1580156126aa573d6000803e3d6000fd5b505050506040513d60208110156126c057600080fd5b50516001600160a01b0316146127565760085460408051600160e01b633ebc2ab30281526001600160a01b03888116600483015291519190921691633ebc2ab3916024808301926020929190829003018186803b15801561272057600080fd5b505afa158015612734573d6000803e3d6000fd5b505050506040513d602081101561274a57600080fd5b50511561275657600080fd5b60408051600160e21b63276d76f90281526001600160a01b038981166004830152878116602483015260448201879052915191881691639db5dbe4916064808201926020929091908290030181600087803b1580156127b457600080fd5b505af11580156127c8573d6000803e3d6000fd5b505050506040513d60208110156127de57600080fd5b50516127e957600080fd5b60065460408051600160e01b63029b7d5302815233600482015290516001600160a01b039092169163029b7d5391602480820192602092909190829003018186803b15801561283757600080fd5b505afa15801561284b573d6000803e3d6000fd5b505050506040513d602081101561286157600080fd5b81019080805190602001909291905050506001600160a01b03167fc0f0c797c493e6d182b6024333a29a628896a4efd7c18d491c8f717407aa93c98787878b866001600160a01b03166306fdde036040518163ffffffff1660e01b815260040160006040518083038186803b1580156128d957600080fd5b505afa1580156128ed573d6000803e3d6000fd5b505050506040513d6000823e601f3d908101601f19168201604052602081101561291657600080fd5b81019080805164010000000081111561292e57600080fd5b8201602081018481111561294157600080fd5b815164010000000081118282018710171561295b57600080fd5b5050929190505050876001600160a01b03166395d89b416040518163ffffffff1660e01b815260040160006040518083038186803b15801561299c57600080fd5b505afa1580156129b0573d6000803e3d6000fd5b505050506040513d6000823e601f3d908101601f1916820160405260208110156129d957600080fd5b8101908080516401000000008111156129f157600080fd5b82016020810184811115612a0457600080fd5b8151640100000000811182820187101715612a1e57600080fd5b505092919050505060405180876001600160a01b03166001600160a01b03168152602001866001600160a01b03166001600160a01b03168152602001858152602001846001600160a01b03166001600160a01b031681526020018060200180602001838103835285818151815260200191508051906020019080838360005b83811015612ab5578181015183820152602001612a9d565b50505050905090810190601f168015612ae25780820380516001836020036101000a031916815260200191505b50838103825284518152845160209182019186019080838360005b83811015612b15578181015183820152602001612afd565b50505050905090810190601f168015612b425780820380516001836020036101000a031916815260200191505b509850505050505050505060405180910390a250505050505050565b60008173__AOLibrary_____________________________632d706a34826040518263ffffffff1660e01b815260040180826001600160a01b03166001600160a01b0316815260200191505060206040518083038186803b158015612bc257600080fd5b505af4158015612bd6573d6000803e3d6000fd5b505050506040513d6020811015612bec57600080fd5b505180612c7e575060408051600160e21b630bf295050281526001600160a01b0383166004820152905173__AOLibrary_____________________________91632fca5414916024808301926020929190829003018186803b158015612c5157600080fd5b505af4158015612c65573d6000803e3d6000fd5b505050506040513d6020811015612c7b57600080fd5b50515b612c8757600080fd5b836001600160a01b03166370a08231846040518263ffffffff1660e01b815260040180826001600160a01b03166001600160a01b0316815260200191505060206040518083038186803b158015612cdd57600080fd5b505afa158015612cf1573d6000803e3d6000fd5b505050506040513d6020811015612d0757600080fd5b5051949350505050565b60005460015460408051600160e21b633d9abf2b0281523360048201526001600160a01b0393841660248201529290911660448301525173__AOLibrary_____________________________9163f66afcac916064808301926020929190829003018186803b158015612d8357600080fd5b505af4158015612d97573d6000803e3d6000fd5b505050506040513d6020811015612dad57600080fd5b5051612db857600080fd5b6001600160a01b038116612dcb57600080fd5b600080546001600160a01b0319166001600160a01b0392909216919091179055565b60005460015460408051600160e21b633d9abf2b0281523360048201526001600160a01b0393841660248201529290911660448301525173__AOLibrary_____________________________9163f66afcac916064808301926020929190829003018186803b158015612e5f57600080fd5b505af4158015612e73573d6000803e3d6000fd5b505050506040513d6020811015612e8957600080fd5b5051612e9457600080fd5b6001600160a01b038116612ea757600080fd5b600580546001600160a01b039092166001600160a01b031992831681179091556009805490921617905556fea165627a7a723058202227660799a409beaa61b2b47aee4884a5beea7e122cc30b52bbe54522339ffe0029",
  "source": "pragma solidity >=0.5.4 <0.6.0;\n\nimport './SafeMath.sol';\nimport './AOLibrary.sol';\nimport './TheAO.sol';\nimport './INameFactory.sol';\nimport './INameTAOPosition.sol';\nimport './INameAccountRecovery.sol';\nimport './TokenERC20.sol';\nimport './AOIon.sol';\n\n/**\n * @title NameTAOVault\n */\ncontract NameTAOVault is TheAO {\n\tusing SafeMath for uint256;\n\n\taddress public nameFactoryAddress;\n\taddress public nameAccountRecoveryAddress;\n\taddress public aoIonAddress;\n\n\tINameFactory internal _nameFactory;\n\tINameTAOPosition internal _nameTAOPosition;\n\tINameAccountRecovery internal _nameAccountRecovery;\n\tAOIon internal _aoIon;\n\n\t// Event to be broadcasted to public when Advocate of `from` Name/TAO transfer ETH\n\t// `from` is a Name/TAO\n\tevent TransferEth(address indexed advocateId, address from, address to, uint256 amount);\n\n\t// Event to be broadcasted to public when Advocate of `from` Name/TAO transfer ERC20 Token\n\t// `from` is a Name/TAO\n\tevent TransferERC20(address indexed advocateId, address from, address to, uint256 amount, address erc20TokenAddress, string erc20Name, string erc20Symbol);\n\n\t// Event to be broadcasted to public when Advocate of `from` Name/TAO transfer AO\n\t// `from` is a Name/TAO\n\tevent TransferAO(address indexed advocateId, address from, address to, uint256 amount);\n\n\t// Event to be broadcasted to public when Advocate of `from` Name/TAO transfer AO+\n\t// `from` is a Name/TAO\n\tevent TransferPrimordialAO(address indexed advocateId, address from, address to, uint256 amount);\n\n\t/**\n\t * @dev Constructor function\n\t */\n\tconstructor(address _nameFactoryAddress, address _nameTAOPositionAddress) public {\n\t\tsetNameFactoryAddress(_nameFactoryAddress);\n\t\tsetNameTAOPositionAddress(_nameTAOPositionAddress);\n\t}\n\n\t/**\n\t * @dev Checks if the calling contract address is The AO\n\t *\t\tOR\n\t *\t\tIf The AO is set to a Name/TAO, then check if calling address is the Advocate\n\t */\n\tmodifier onlyTheAO {\n\t\trequire (AOLibrary.isTheAO(msg.sender, theAO, nameTAOPositionAddress));\n\t\t_;\n\t}\n\n\t/**\n\t * @dev Check if `_id` is a Name or a TAO\n\t */\n\tmodifier isNameOrTAO(address _id) {\n\t\trequire (AOLibrary.isName(_id) || AOLibrary.isTAO(_id));\n\t\t_;\n\t}\n\n\t/**\n\t * @dev Check if msg.sender is the current advocate of Name ID\n\t */\n\tmodifier onlyAdvocate(address _id) {\n\t\trequire (_nameTAOPosition.senderIsAdvocate(msg.sender, _id));\n\t\t_;\n\t}\n\n\t/**\n\t * @dev Only allowed if sender's Name is not compromised\n\t */\n\tmodifier senderNameNotCompromised() {\n\t\trequire (!_nameAccountRecovery.isCompromised(_nameFactory.ethAddressToNameId(msg.sender)));\n\t\t_;\n\t}\n\n\t/***** THE AO ONLY METHODS *****/\n\t/**\n\t * @dev Transfer ownership of The AO to new address\n\t * @param _theAO The new address to be transferred\n\t */\n\tfunction transferOwnership(address _theAO) public onlyTheAO {\n\t\trequire (_theAO != address(0));\n\t\ttheAO = _theAO;\n\t}\n\n\t/**\n\t * @dev Whitelist `_account` address to transact on behalf of others\n\t * @param _account The address to whitelist\n\t * @param _whitelist Either to whitelist or not\n\t */\n\tfunction setWhitelist(address _account, bool _whitelist) public onlyTheAO {\n\t\trequire (_account != address(0));\n\t\twhitelist[_account] = _whitelist;\n\t}\n\n\t/**\n\t * @dev The AO sets NameFactory address\n\t * @param _nameFactoryAddress The address of NameFactory\n\t */\n\tfunction setNameFactoryAddress(address _nameFactoryAddress) public onlyTheAO {\n\t\trequire (_nameFactoryAddress != address(0));\n\t\tnameFactoryAddress = _nameFactoryAddress;\n\t\t_nameFactory = INameFactory(_nameFactoryAddress);\n\t}\n\n\t/**\n\t * @dev The AO sets NameTAOPosition address\n\t * @param _nameTAOPositionAddress The address of NameTAOPosition\n\t */\n\tfunction setNameTAOPositionAddress(address _nameTAOPositionAddress) public onlyTheAO {\n\t\trequire (_nameTAOPositionAddress != address(0));\n\t\tnameTAOPositionAddress = _nameTAOPositionAddress;\n\t\t_nameTAOPosition = INameTAOPosition(_nameTAOPositionAddress);\n\t}\n\n\t/**\n\t * @dev The AO set the NameAccountRecovery Address\n\t * @param _nameAccountRecoveryAddress The address of NameAccountRecovery\n\t */\n\tfunction setNameAccountRecoveryAddress(address _nameAccountRecoveryAddress) public onlyTheAO {\n\t\trequire (_nameAccountRecoveryAddress != address(0));\n\t\tnameAccountRecoveryAddress = _nameAccountRecoveryAddress;\n\t\t_nameAccountRecovery = INameAccountRecovery(nameAccountRecoveryAddress);\n\t}\n\n\t/**\n\t * @dev The AO sets AOIon (base denomination of AO) address\n\t * @param _aoIonAddress The address of AOIon\n\t */\n\tfunction setAOIonAddress(address _aoIonAddress) public onlyTheAO {\n\t\trequire (_aoIonAddress != address(0));\n\t\taoIonAddress = _aoIonAddress;\n\t\t_aoIon = AOIon(_aoIonAddress);\n\t}\n\n\t/***** PUBLIC METHODS *****/\n\t/**\n\t * @dev Get Ethereum balance of `_id`\n\t * @param _id The ID to check\n\t * @return The ethereum balance\n\t */\n\tfunction ethBalanceOf(address _id) public isNameOrTAO(_id) view returns (uint256) {\n\t\treturn address(_id).balance;\n\t}\n\n\t/**\n\t * @dev Get ERC20 token balance of `_id`\n\t * @param _erc20TokenAddress The address of the ERC20 Token\n\t * @param _id The ID to check\n\t * @return The ERC20 Token balance\n\t */\n\tfunction erc20BalanceOf(address _erc20TokenAddress, address _id) public isNameOrTAO(_id) view returns (uint256) {\n\t\treturn TokenERC20(_erc20TokenAddress).balanceOf(_id);\n\t}\n\n\t/**\n\t * @dev Get AO balance of `_id`\n\t * @param _id The ID to check\n\t * @return The AO balance\n\t */\n\tfunction AOBalanceOf(address _id) public isNameOrTAO(_id) view returns (uint256) {\n\t\treturn _aoIon.balanceOf(_id);\n\t}\n\n\t/**\n\t * @dev Get AO+ balance of `_id`\n\t * @param _id The ID to check\n\t * @return The AO+ balance\n\t */\n\tfunction primordialAOBalanceOf(address _id) public isNameOrTAO(_id) view returns (uint256) {\n\t\treturn _aoIon.primordialBalanceOf(_id);\n\t}\n\n\t/**\n\t * @dev Transfer `_amount` of ETH from `_from` to `_to`\n\t * @param _from The sender address\n\t * @param _to The recipient address\n\t * @param _amount The amount to transfer\n\t */\n\tfunction transferEth(address _from, address _to, uint256 _amount) public isNameOrTAO(_from) onlyAdvocate(_from) senderNameNotCompromised {\n\t\trequire (_amount > 0 && address(_from).balance >= _amount);\n\t\trequire (_to != address(0) && _from != _to);\n\t\tif (_nameFactory.nameIdToEthAddress(_from) != address(0)) {\n\t\t\trequire (!_nameAccountRecovery.isCompromised(_from));\n\t\t}\n\t\tif (_nameFactory.nameIdToEthAddress(_to) != address(0)) {\n\t\t\trequire (!_nameAccountRecovery.isCompromised(_to));\n\t\t}\n\t\trequire (TAO(address(uint160(_from))).transferEth(address(uint160(_to)), _amount));\n\t\temit TransferEth(_nameFactory.ethAddressToNameId(msg.sender), _from, _to, _amount);\n\t}\n\n\t/**\n\t * @dev Transfer `_amount` of ERC20 Token from `_from` to `_to`\n\t * @param _erc20TokenAddress The ERC20 Token Address\n\t * @param _from The sender address\n\t * @param _to The recipient address\n\t * @param _amount The amount to transfer\n\t */\n\tfunction transferERC20(address _erc20TokenAddress, address _from, address _to, uint256 _amount) public isNameOrTAO(_from) onlyAdvocate(_from) senderNameNotCompromised {\n\t\trequire (AOLibrary.isValidERC20TokenAddress(_erc20TokenAddress));\n\t\tTokenERC20 _erc20 = TokenERC20(_erc20TokenAddress);\n\t\trequire (_amount > 0 && _erc20.balanceOf(_from) >= _amount);\n\t\trequire (_to != address(0) && _from != _to);\n\t\tif (_nameFactory.nameIdToEthAddress(_from) != address(0)) {\n\t\t\trequire (!_nameAccountRecovery.isCompromised(_from));\n\t\t}\n\t\tif (_nameFactory.nameIdToEthAddress(_to) != address(0)) {\n\t\t\trequire (!_nameAccountRecovery.isCompromised(_to));\n\t\t}\n\t\trequire (TAO(address(uint160(_from))).transferERC20(_erc20TokenAddress, address(uint160(_to)), _amount));\n\t\temit TransferERC20(_nameFactory.ethAddressToNameId(msg.sender), _from, _to, _amount, _erc20TokenAddress, _erc20.name(), _erc20.symbol());\n\t}\n\n\t/**\n\t * @dev Transfer `_amount` of AO from `_from` to `_to`\n\t * @param _from The sender address\n\t * @param _to The recipient address\n\t * @param _amount The amount to transfer\n\t */\n\tfunction transferAO(address _from, address _to, uint256 _amount) public isNameOrTAO(_from) onlyAdvocate(_from) senderNameNotCompromised {\n\t\trequire (_amount > 0 && _aoIon.balanceOf(_from) >= _amount);\n\t\trequire (_to != address(0) && _from != _to);\n\t\tif (_nameFactory.nameIdToEthAddress(_from) != address(0)) {\n\t\t\trequire (!_nameAccountRecovery.isCompromised(_from));\n\t\t}\n\t\tif (_nameFactory.nameIdToEthAddress(_to) != address(0)) {\n\t\t\trequire (!_nameAccountRecovery.isCompromised(_to));\n\t\t}\n\t\trequire (_aoIon.whitelistTransferFrom(_from, _to, _amount));\n\t\temit TransferAO(_nameFactory.ethAddressToNameId(msg.sender), _from, _to, _amount);\n\t}\n\n\t/**\n\t * @dev Transfer `_amount` of AO+ (Primordial) from `_from` to `_to`\n\t * @param _from The sender address\n\t * @param _to The recipient address\n\t * @param _amount The amount to transfer\n\t */\n\tfunction transferPrimordialAO(address _from, address _to, uint256 _amount) public isNameOrTAO(_from) onlyAdvocate(_from) senderNameNotCompromised {\n\t\trequire (_amount > 0 && _aoIon.primordialBalanceOf(_from) >= _amount);\n\t\trequire (_to != address(0) && _from != _to);\n\t\tif (_nameFactory.nameIdToEthAddress(_from) != address(0)) {\n\t\t\trequire (!_nameAccountRecovery.isCompromised(_from));\n\t\t}\n\t\tif (_nameFactory.nameIdToEthAddress(_to) != address(0)) {\n\t\t\trequire (!_nameAccountRecovery.isCompromised(_to));\n\t\t}\n\t\trequire (_aoIon.whitelistTransferPrimordialFrom(_from, _to, _amount));\n\t\temit TransferPrimordialAO(_nameFactory.ethAddressToNameId(msg.sender), _from, _to, _amount);\n\t}\n}\n",
  "sourcePath": "/usr/local/ao-contracts/contracts/NameTAOVault.sol",
  "compiler": {
    "name": "solc",
    "version": "0.5.6+commit.b259423e.Emscripten.clang"
  },
  "schemaVersion": "3.0.2",
  "updatedAt": "2019-04-12T01:21:03.911Z",
  "devdoc": {
    "methods": {
      "AOBalanceOf(address)": {
        "details": "Get AO balance of `_id`",
        "params": {
          "_id": "The ID to check"
        },
        "return": "The AO balance"
      },
      "constructor": {
        "details": "Constructor function"
      },
      "erc20BalanceOf(address,address)": {
        "details": "Get ERC20 token balance of `_id`",
        "params": {
          "_erc20TokenAddress": "The address of the ERC20 Token",
          "_id": "The ID to check"
        },
        "return": "The ERC20 Token balance"
      },
      "ethBalanceOf(address)": {
        "details": "Get Ethereum balance of `_id`",
        "params": {
          "_id": "The ID to check"
        },
        "return": "The ethereum balance"
      },
      "primordialAOBalanceOf(address)": {
        "details": "Get AO+ balance of `_id`",
        "params": {
          "_id": "The ID to check"
        },
        "return": "The AO+ balance"
      },
      "setAOIonAddress(address)": {
        "details": "The AO sets AOIon (base denomination of AO) address",
        "params": {
          "_aoIonAddress": "The address of AOIon"
        }
      },
      "setNameAccountRecoveryAddress(address)": {
        "details": "The AO set the NameAccountRecovery Address",
        "params": {
          "_nameAccountRecoveryAddress": "The address of NameAccountRecovery"
        }
      },
      "setNameFactoryAddress(address)": {
        "details": "The AO sets NameFactory address",
        "params": {
          "_nameFactoryAddress": "The address of NameFactory"
        }
      },
      "setNameTAOPositionAddress(address)": {
        "details": "The AO sets NameTAOPosition address",
        "params": {
          "_nameTAOPositionAddress": "The address of NameTAOPosition"
        }
      },
      "setWhitelist(address,bool)": {
        "details": "Whitelist `_account` address to transact on behalf of others",
        "params": {
          "_account": "The address to whitelist",
          "_whitelist": "Either to whitelist or not"
        }
      },
      "transferAO(address,address,uint256)": {
        "details": "Transfer `_amount` of AO from `_from` to `_to`",
        "params": {
          "_amount": "The amount to transfer",
          "_from": "The sender address",
          "_to": "The recipient address"
        }
      },
      "transferERC20(address,address,address,uint256)": {
        "details": "Transfer `_amount` of ERC20 Token from `_from` to `_to`",
        "params": {
          "_amount": "The amount to transfer",
          "_erc20TokenAddress": "The ERC20 Token Address",
          "_from": "The sender address",
          "_to": "The recipient address"
        }
      },
      "transferEth(address,address,uint256)": {
        "details": "Transfer `_amount` of ETH from `_from` to `_to`",
        "params": {
          "_amount": "The amount to transfer",
          "_from": "The sender address",
          "_to": "The recipient address"
        }
      },
      "transferOwnership(address)": {
        "details": "Transfer ownership of The AO to new address",
        "params": {
          "_theAO": "The new address to be transferred"
        }
      },
      "transferPrimordialAO(address,address,uint256)": {
        "details": "Transfer `_amount` of AO+ (Primordial) from `_from` to `_to`",
        "params": {
          "_amount": "The amount to transfer",
          "_from": "The sender address",
          "_to": "The recipient address"
        }
      }
    },
    "title": "NameTAOVault"
  },
  "userdoc": {
    "methods": {}
  }
}