{
  "contractName": "NameTAOPosition",
  "abi": [
    {
      "constant": true,
      "inputs": [],
      "name": "aoSettingAddress",
      "outputs": [
        {
          "name": "",
          "type": "address"
        }
      ],
      "payable": false,
      "stateMutability": "view",
      "type": "function"
    },
    {
      "constant": true,
      "inputs": [],
      "name": "totalTAOAdvocateChallenges",
      "outputs": [
        {
          "name": "",
          "type": "uint256"
        }
      ],
      "payable": false,
      "stateMutability": "view",
      "type": "function"
    },
    {
      "constant": true,
      "inputs": [],
      "name": "logosAddress",
      "outputs": [
        {
          "name": "",
          "type": "address"
        }
      ],
      "payable": false,
      "stateMutability": "view",
      "type": "function"
    },
    {
      "constant": true,
      "inputs": [],
      "name": "nameTAOPositionAddress",
      "outputs": [
        {
          "name": "",
          "type": "address"
        }
      ],
      "payable": false,
      "stateMutability": "view",
      "type": "function"
    },
    {
      "constant": true,
      "inputs": [
        {
          "name": "",
          "type": "address"
        }
      ],
      "name": "whitelist",
      "outputs": [
        {
          "name": "",
          "type": "bool"
        }
      ],
      "payable": false,
      "stateMutability": "view",
      "type": "function"
    },
    {
      "constant": true,
      "inputs": [],
      "name": "nameAccountRecoveryAddress",
      "outputs": [
        {
          "name": "",
          "type": "address"
        }
      ],
      "payable": false,
      "stateMutability": "view",
      "type": "function"
    },
    {
      "constant": true,
      "inputs": [],
      "name": "theAO",
      "outputs": [
        {
          "name": "",
          "type": "address"
        }
      ],
      "payable": false,
      "stateMutability": "view",
      "type": "function"
    },
    {
      "constant": true,
      "inputs": [],
      "name": "taoAncestryAddress",
      "outputs": [
        {
          "name": "",
          "type": "address"
        }
      ],
      "payable": false,
      "stateMutability": "view",
      "type": "function"
    },
    {
      "constant": true,
      "inputs": [],
      "name": "nameFactoryAddress",
      "outputs": [
        {
          "name": "",
          "type": "address"
        }
      ],
      "payable": false,
      "stateMutability": "view",
      "type": "function"
    },
    {
      "constant": true,
      "inputs": [],
      "name": "settingTAOId",
      "outputs": [
        {
          "name": "",
          "type": "address"
        }
      ],
      "payable": false,
      "stateMutability": "view",
      "type": "function"
    },
    {
      "constant": true,
      "inputs": [],
      "name": "taoFactoryAddress",
      "outputs": [
        {
          "name": "",
          "type": "address"
        }
      ],
      "payable": false,
      "stateMutability": "view",
      "type": "function"
    },
    {
      "inputs": [
        {
          "name": "_nameFactoryAddress",
          "type": "address"
        },
        {
          "name": "_taoFactoryAddress",
          "type": "address"
        }
      ],
      "payable": false,
      "stateMutability": "nonpayable",
      "type": "constructor"
    },
    {
      "anonymous": false,
      "inputs": [
        {
          "indexed": true,
          "name": "taoId",
          "type": "address"
        },
        {
          "indexed": false,
          "name": "oldAdvocateId",
          "type": "address"
        },
        {
          "indexed": false,
          "name": "newAdvocateId",
          "type": "address"
        },
        {
          "indexed": false,
          "name": "nonce",
          "type": "uint256"
        }
      ],
      "name": "SetAdvocate",
      "type": "event"
    },
    {
      "anonymous": false,
      "inputs": [
        {
          "indexed": true,
          "name": "taoId",
          "type": "address"
        },
        {
          "indexed": false,
          "name": "oldListenerId",
          "type": "address"
        },
        {
          "indexed": false,
          "name": "newListenerId",
          "type": "address"
        },
        {
          "indexed": false,
          "name": "nonce",
          "type": "uint256"
        }
      ],
      "name": "SetListener",
      "type": "event"
    },
    {
      "anonymous": false,
      "inputs": [
        {
          "indexed": true,
          "name": "taoId",
          "type": "address"
        },
        {
          "indexed": false,
          "name": "oldSpeakerId",
          "type": "address"
        },
        {
          "indexed": false,
          "name": "newSpeakerId",
          "type": "address"
        },
        {
          "indexed": false,
          "name": "nonce",
          "type": "uint256"
        }
      ],
      "name": "SetSpeaker",
      "type": "event"
    },
    {
      "anonymous": false,
      "inputs": [
        {
          "indexed": true,
          "name": "taoId",
          "type": "address"
        },
        {
          "indexed": true,
          "name": "challengeId",
          "type": "bytes32"
        },
        {
          "indexed": false,
          "name": "currentAdvocateId",
          "type": "address"
        },
        {
          "indexed": false,
          "name": "challengerAdvocateId",
          "type": "address"
        },
        {
          "indexed": false,
          "name": "createdTimestamp",
          "type": "uint256"
        },
        {
          "indexed": false,
          "name": "lockedUntilTimestamp",
          "type": "uint256"
        },
        {
          "indexed": false,
          "name": "completeBeforeTimestamp",
          "type": "uint256"
        }
      ],
      "name": "ChallengeTAOAdvocate",
      "type": "event"
    },
    {
      "anonymous": false,
      "inputs": [
        {
          "indexed": true,
          "name": "taoId",
          "type": "address"
        },
        {
          "indexed": true,
          "name": "challengeId",
          "type": "bytes32"
        }
      ],
      "name": "CompleteTAOAdvocateChallenge",
      "type": "event"
    },
    {
      "constant": false,
      "inputs": [
        {
          "name": "_theAO",
          "type": "address"
        }
      ],
      "name": "transferOwnership",
      "outputs": [],
      "payable": false,
      "stateMutability": "nonpayable",
      "type": "function"
    },
    {
      "constant": false,
      "inputs": [
        {
          "name": "_account",
          "type": "address"
        },
        {
          "name": "_whitelist",
          "type": "bool"
        }
      ],
      "name": "setWhitelist",
      "outputs": [],
      "payable": false,
      "stateMutability": "nonpayable",
      "type": "function"
    },
    {
      "constant": false,
      "inputs": [
        {
          "name": "_nameFactoryAddress",
          "type": "address"
        }
      ],
      "name": "setNameFactoryAddress",
      "outputs": [],
      "payable": false,
      "stateMutability": "nonpayable",
      "type": "function"
    },
    {
      "constant": false,
      "inputs": [
        {
          "name": "_nameAccountRecoveryAddress",
          "type": "address"
        }
      ],
      "name": "setNameAccountRecoveryAddress",
      "outputs": [],
      "payable": false,
      "stateMutability": "nonpayable",
      "type": "function"
    },
    {
      "constant": false,
      "inputs": [
        {
          "name": "_taoFactoryAddress",
          "type": "address"
        }
      ],
      "name": "setTAOFactoryAddress",
      "outputs": [],
      "payable": false,
      "stateMutability": "nonpayable",
      "type": "function"
    },
    {
      "constant": false,
      "inputs": [
        {
          "name": "_settingTAOId",
          "type": "address"
        }
      ],
      "name": "setSettingTAOId",
      "outputs": [],
      "payable": false,
      "stateMutability": "nonpayable",
      "type": "function"
    },
    {
      "constant": false,
      "inputs": [
        {
          "name": "_aoSettingAddress",
          "type": "address"
        }
      ],
      "name": "setAOSettingAddress",
      "outputs": [],
      "payable": false,
      "stateMutability": "nonpayable",
      "type": "function"
    },
    {
      "constant": false,
      "inputs": [
        {
          "name": "_taoAncestryAddress",
          "type": "address"
        }
      ],
      "name": "setTAOAncestryAddress",
      "outputs": [],
      "payable": false,
      "stateMutability": "nonpayable",
      "type": "function"
    },
    {
      "constant": false,
      "inputs": [
        {
          "name": "_logosAddress",
          "type": "address"
        }
      ],
      "name": "setLogosAddress",
      "outputs": [],
      "payable": false,
      "stateMutability": "nonpayable",
      "type": "function"
    },
    {
      "constant": true,
      "inputs": [
        {
          "name": "_id",
          "type": "address"
        }
      ],
      "name": "isExist",
      "outputs": [
        {
          "name": "",
          "type": "bool"
        }
      ],
      "payable": false,
      "stateMutability": "view",
      "type": "function"
    },
    {
      "constant": true,
      "inputs": [
        {
          "name": "_sender",
          "type": "address"
        },
        {
          "name": "_id",
          "type": "address"
        }
      ],
      "name": "senderIsAdvocate",
      "outputs": [
        {
          "name": "",
          "type": "bool"
        }
      ],
      "payable": false,
      "stateMutability": "view",
      "type": "function"
    },
    {
      "constant": true,
      "inputs": [
        {
          "name": "_sender",
          "type": "address"
        },
        {
          "name": "_id",
          "type": "address"
        }
      ],
      "name": "senderIsListener",
      "outputs": [
        {
          "name": "",
          "type": "bool"
        }
      ],
      "payable": false,
      "stateMutability": "view",
      "type": "function"
    },
    {
      "constant": true,
      "inputs": [
        {
          "name": "_sender",
          "type": "address"
        },
        {
          "name": "_id",
          "type": "address"
        }
      ],
      "name": "senderIsSpeaker",
      "outputs": [
        {
          "name": "",
          "type": "bool"
        }
      ],
      "payable": false,
      "stateMutability": "view",
      "type": "function"
    },
    {
      "constant": true,
      "inputs": [
        {
          "name": "_sender",
          "type": "address"
        },
        {
          "name": "_id",
          "type": "address"
        }
      ],
      "name": "senderIsAdvocateOfParent",
      "outputs": [
        {
          "name": "",
          "type": "bool"
        }
      ],
      "payable": false,
      "stateMutability": "view",
      "type": "function"
    },
    {
      "constant": true,
      "inputs": [
        {
          "name": "_sender",
          "type": "address"
        },
        {
          "name": "_id",
          "type": "address"
        }
      ],
      "name": "senderIsPosition",
      "outputs": [
        {
          "name": "",
          "type": "bool"
        }
      ],
      "payable": false,
      "stateMutability": "view",
      "type": "function"
    },
    {
      "constant": true,
      "inputs": [
        {
          "name": "_nameId",
          "type": "address"
        },
        {
          "name": "_id",
          "type": "address"
        }
      ],
      "name": "nameIsAdvocate",
      "outputs": [
        {
          "name": "",
          "type": "bool"
        }
      ],
      "payable": false,
      "stateMutability": "view",
      "type": "function"
    },
    {
      "constant": true,
      "inputs": [
        {
          "name": "_sender",
          "type": "address"
        },
        {
          "name": "_id",
          "type": "address"
        }
      ],
      "name": "determinePosition",
      "outputs": [
        {
          "name": "",
          "type": "uint256"
        }
      ],
      "payable": false,
      "stateMutability": "view",
      "type": "function"
    },
    {
      "constant": false,
      "inputs": [
        {
          "name": "_id",
          "type": "address"
        },
        {
          "name": "_advocateId",
          "type": "address"
        },
        {
          "name": "_listenerId",
          "type": "address"
        },
        {
          "name": "_speakerId",
          "type": "address"
        }
      ],
      "name": "initialize",
      "outputs": [
        {
          "name": "",
          "type": "bool"
        }
      ],
      "payable": false,
      "stateMutability": "nonpayable",
      "type": "function"
    },
    {
      "constant": true,
      "inputs": [
        {
          "name": "_id",
          "type": "address"
        }
      ],
      "name": "getPositionById",
      "outputs": [
        {
          "name": "",
          "type": "string"
        },
        {
          "name": "",
          "type": "address"
        },
        {
          "name": "",
          "type": "string"
        },
        {
          "name": "",
          "type": "address"
        },
        {
          "name": "",
          "type": "string"
        },
        {
          "name": "",
          "type": "address"
        }
      ],
      "payable": false,
      "stateMutability": "view",
      "type": "function"
    },
    {
      "constant": true,
      "inputs": [
        {
          "name": "_id",
          "type": "address"
        }
      ],
      "name": "getAdvocate",
      "outputs": [
        {
          "name": "",
          "type": "address"
        }
      ],
      "payable": false,
      "stateMutability": "view",
      "type": "function"
    },
    {
      "constant": true,
      "inputs": [
        {
          "name": "_id",
          "type": "address"
        }
      ],
      "name": "getListener",
      "outputs": [
        {
          "name": "",
          "type": "address"
        }
      ],
      "payable": false,
      "stateMutability": "view",
      "type": "function"
    },
    {
      "constant": true,
      "inputs": [
        {
          "name": "_id",
          "type": "address"
        }
      ],
      "name": "getSpeaker",
      "outputs": [
        {
          "name": "",
          "type": "address"
        }
      ],
      "payable": false,
      "stateMutability": "view",
      "type": "function"
    },
    {
      "constant": false,
      "inputs": [
        {
          "name": "_taoId",
          "type": "address"
        },
        {
          "name": "_newAdvocateId",
          "type": "address"
        }
      ],
      "name": "setAdvocate",
      "outputs": [],
      "payable": false,
      "stateMutability": "nonpayable",
      "type": "function"
    },
    {
      "constant": false,
      "inputs": [
        {
          "name": "_taoId",
          "type": "address"
        }
      ],
      "name": "parentReplaceChildAdvocate",
      "outputs": [],
      "payable": false,
      "stateMutability": "nonpayable",
      "type": "function"
    },
    {
      "constant": false,
      "inputs": [
        {
          "name": "_taoId",
          "type": "address"
        }
      ],
      "name": "challengeTAOAdvocate",
      "outputs": [],
      "payable": false,
      "stateMutability": "nonpayable",
      "type": "function"
    },
    {
      "constant": true,
      "inputs": [
        {
          "name": "_challengeId",
          "type": "bytes32"
        },
        {
          "name": "_sender",
          "type": "address"
        }
      ],
      "name": "getChallengeStatus",
      "outputs": [
        {
          "name": "",
          "type": "uint8"
        }
      ],
      "payable": false,
      "stateMutability": "view",
      "type": "function"
    },
    {
      "constant": false,
      "inputs": [
        {
          "name": "_challengeId",
          "type": "bytes32"
        }
      ],
      "name": "completeTAOAdvocateChallenge",
      "outputs": [],
      "payable": false,
      "stateMutability": "nonpayable",
      "type": "function"
    },
    {
      "constant": true,
      "inputs": [
        {
          "name": "_challengeId",
          "type": "bytes32"
        }
      ],
      "name": "getTAOAdvocateChallengeById",
      "outputs": [
        {
          "name": "",
          "type": "address"
        },
        {
          "name": "",
          "type": "address"
        },
        {
          "name": "",
          "type": "bool"
        },
        {
          "name": "",
          "type": "uint256"
        },
        {
          "name": "",
          "type": "uint256"
        },
        {
          "name": "",
          "type": "uint256"
        }
      ],
      "payable": false,
      "stateMutability": "view",
      "type": "function"
    },
    {
      "constant": false,
      "inputs": [
        {
          "name": "_id",
          "type": "address"
        },
        {
          "name": "_newListenerId",
          "type": "address"
        }
      ],
      "name": "setListener",
      "outputs": [],
      "payable": false,
      "stateMutability": "nonpayable",
      "type": "function"
    },
    {
      "constant": false,
      "inputs": [
        {
          "name": "_id",
          "type": "address"
        },
        {
          "name": "_newSpeakerId",
          "type": "address"
        }
      ],
      "name": "setSpeaker",
      "outputs": [],
      "payable": false,
      "stateMutability": "nonpayable",
      "type": "function"
    }
  ],
  "bytecode": "0x60806040523480156200001157600080fd5b506040516040806200505b833981018060405260408110156200003357600080fd5b508051602091820151600080546001600160a01b031916331790559091620000619083906200008c811b901c565b62000072816200018d60201b60201c565b5050600180546001600160a01b031916301790556200028e565b600054600154604080517ff66afcac0000000000000000000000000000000000000000000000000000000081523360048201526001600160a01b0393841660248201529290911660448301525173__AOLibrary_____________________________9163f66afcac916064808301926020929190829003018186803b1580156200011557600080fd5b505af41580156200012a573d6000803e3d6000fd5b505050506040513d60208110156200014157600080fd5b50516200014d57600080fd5b6001600160a01b0381166200016157600080fd5b600480546001600160a01b039092166001600160a01b03199283168117909155600b8054909216179055565b600054600154604080517ff66afcac0000000000000000000000000000000000000000000000000000000081523360048201526001600160a01b0393841660248201529290911660448301525173__AOLibrary_____________________________9163f66afcac916064808301926020929190829003018186803b1580156200021657600080fd5b505af41580156200022b573d6000803e3d6000fd5b505050506040513d60208110156200024257600080fd5b50516200024e57600080fd5b6001600160a01b0381166200026257600080fd5b600680546001600160a01b039092166001600160a01b03199283168117909155600d8054909216179055565b614dbd806200029e6000396000f3fe608060405234801561001057600080fd5b50600436106102525760003560e01c80637a1d66dd11610146578063daacb9ce116100c3578063f203c85711610087578063f203c857146108ef578063f2fde38b14610915578063f8c8765e1461093b578063fd6f413714610979578063ff0374b51461099f578063ff3781c6146109a757610252565b8063daacb9ce14610848578063e2c8e54a14610876578063e7c50185146108a4578063eb342f79146108ac578063ef44fe24146108c957610252565b8063a9b6b38e1161010a578063a9b6b38e14610655578063af6ddc101461065d578063bc40620614610665578063d6830af31461066d578063d8a0aa6c1461069357610252565b80637a1d66dd14610591578063897e359a146105bf5780638c924361146106015780639b19251a14610627578063a4e5fad21461064d57610252565b8063339c5c06116101d45780634ef033f0116101985780634ef033f0146104e157806353d6fd59146104e95780636fb487fc1461051757806371ce52ed1461053d5780637767d0341461056b57610252565b8063339c5c06146103fb57806338da7de7146104215780633b6682d5146104295780634926248f146104855780634b670418146104b357610252565b806320082c691161021b57806320082c69146103315780632191207a1461035f57806323f48bc91461038557806329981db41461039f5780632cfed9f0146103cd57610252565b806213eb4b14610257578063058af9821461029157806306fd7088146102bf5780631d0138ff146102e75780631dfde2bd1461030b575b600080fd5b61027d6004803603602081101561026d57600080fd5b50356001600160a01b03166109cd565b604080519115158252519081900360200190f35b61027d600480360360408110156102a757600080fd5b506001600160a01b03813581169160200135166109f5565b6102e5600480360360208110156102d557600080fd5b50356001600160a01b0316610a4c565b005b6102ef610b32565b604080516001600160a01b039092168252519081900360200190f35b6102e56004803603602081101561032157600080fd5b50356001600160a01b0316610b41565b61027d6004803603604081101561034757600080fd5b506001600160a01b0381358116916020013516610c2a565b6102e56004803603602081101561037557600080fd5b50356001600160a01b0316610cfd565b61038d610de3565b60408051918252519081900360200190f35b6102e5600480360360408110156103b557600080fd5b506001600160a01b0381358116916020013516610de9565b6102e5600480360360408110156103e357600080fd5b506001600160a01b03813581169160200135166111cf565b6102e56004803603602081101561041157600080fd5b50356001600160a01b0316611a16565b6102ef611ef0565b6104466004803603602081101561043f57600080fd5b5035611eff565b604080516001600160a01b039788168152959096166020860152921515848601526060840191909152608083015260a082015290519081900360c00190f35b6102e56004803603604081101561049b57600080fd5b506001600160a01b0381358116916020013516611fc0565b61027d600480360360408110156104c957600080fd5b506001600160a01b0381358116916020013516612807565b6102ef612aba565b6102e5600480360360408110156104ff57600080fd5b506001600160a01b0381351690602001351515612ac9565b6102ef6004803603602081101561052d57600080fd5b50356001600160a01b0316612bae565b61027d6004803603604081101561055357600080fd5b506001600160a01b0381358116916020013516612c2a565b6102e56004803603602081101561058157600080fd5b50356001600160a01b0316612cfa565b61038d600480360360408110156105a757600080fd5b506001600160a01b0381358116916020013516612de3565b6105eb600480360360408110156105d557600080fd5b50803590602001356001600160a01b0316612f8d565b6040805160ff9092168252519081900360200190f35b6102e56004803603602081101561061757600080fd5b50356001600160a01b031661322c565b61027d6004803603602081101561063d57600080fd5b50356001600160a01b0316613312565b6102ef613327565b6102ef613336565b6102ef613345565b6102ef613354565b6102e56004803603602081101561068357600080fd5b50356001600160a01b0316613363565b6106b9600480360360208110156106a957600080fd5b50356001600160a01b03166134be565b6040518080602001876001600160a01b03166001600160a01b0316815260200180602001866001600160a01b03166001600160a01b0316815260200180602001856001600160a01b03166001600160a01b0316815260200184810384528a818151815260200191508051906020019080838360005b8381101561074657818101518382015260200161072e565b50505050905090810190601f1680156107735780820380516001836020036101000a031916815260200191505b5084810383528851815288516020918201918a019080838360005b838110156107a657818101518382015260200161078e565b50505050905090810190601f1680156107d35780820380516001836020036101000a031916815260200191505b50848103825286518152865160209182019188019080838360005b838110156108065781810151838201526020016107ee565b50505050905090810190601f1680156108335780820380516001836020036101000a031916815260200191505b50995050505050505050505060405180910390f35b61027d6004803603604081101561085e57600080fd5b506001600160a01b03813581169160200135166137a7565b61027d6004803603604081101561088c57600080fd5b506001600160a01b038135811691602001351661387a565b6102ef6139bb565b6102e5600480360360208110156108c257600080fd5b50356139ca565b6102e5600480360360208110156108df57600080fd5b50356001600160a01b0316613bec565b6102ef6004803603602081101561090557600080fd5b50356001600160a01b0316614184565b6102e56004803603602081101561092b57600080fd5b50356001600160a01b0316614201565b61027d6004803603608081101561095157600080fd5b506001600160a01b0381358116916020810135821691604082013581169160600135166142dd565b6102ef6004803603602081101561098f57600080fd5b50356001600160a01b0316614798565b6102ef614816565b6102e5600480360360208110156109bd57600080fd5b50356001600160a01b0316614825565b6001600160a01b0316600090815260116020526040902060020154600160a01b900460ff1690565b6001600160a01b038116600090815260116020526040812060020154600160a01b900460ff168015610a4357506001600160a01b038281166000908152601160205260409020548116908416145b90505b92915050565b60005460015460408051600160e21b633d9abf2b0281523360048201526001600160a01b0393841660248201529290911660448301525173__AOLibrary_____________________________9163f66afcac916064808301926020929190829003018186803b158015610abe57600080fd5b505af4158015610ad2573d6000803e3d6000fd5b505050506040513d6020811015610ae857600080fd5b5051610af357600080fd5b6001600160a01b038116610b0657600080fd5b600780546001600160a01b039092166001600160a01b03199283168117909155600e8054909216179055565b6007546001600160a01b031681565b60005460015460408051600160e21b633d9abf2b0281523360048201526001600160a01b0393841660248201529290911660448301525173__AOLibrary_____________________________9163f66afcac916064808301926020929190829003018186803b158015610bb357600080fd5b505af4158015610bc7573d6000803e3d6000fd5b505050506040513d6020811015610bdd57600080fd5b5051610be857600080fd5b6001600160a01b038116610bfb57600080fd5b600580546001600160a01b03199081166001600160a01b039384161791829055600c8054929093169116179055565b6001600160a01b038116600090815260116020526040812060020154600160a01b900460ff168015610a435750600b5460408051600160e01b63029b7d530281526001600160a01b0386811660048301529151919092169163029b7d53916024808301926020929190829003018186803b158015610ca757600080fd5b505afa158015610cbb573d6000803e3d6000fd5b505050506040513d6020811015610cd157600080fd5b50516001600160a01b038381166000908152601160205260409020600201548116911614905092915050565b60005460015460408051600160e21b633d9abf2b0281523360048201526001600160a01b0393841660248201529290911660448301525173__AOLibrary_____________________________9163f66afcac916064808301926020929190829003018186803b158015610d6f57600080fd5b505af4158015610d83573d6000803e3d6000fd5b505050506040513d6020811015610d9957600080fd5b5051610da457600080fd5b6001600160a01b038116610db757600080fd5b600680546001600160a01b039092166001600160a01b03199283168117909155600d8054909216179055565b600a5481565b8173__AOLibrary_____________________________632fca5414826040518263ffffffff1660e01b815260040180826001600160a01b03166001600160a01b0316815260200191505060206040518083038186803b158015610e4b57600080fd5b505af4158015610e5f573d6000803e3d6000fd5b505050506040513d6020811015610e7557600080fd5b5051610e8057600080fd5b8173__AOLibrary_____________________________632d706a34826040518263ffffffff1660e01b815260040180826001600160a01b03166001600160a01b0316815260200191505060206040518083038186803b158015610ee257600080fd5b505af4158015610ef6573d6000803e3d6000fd5b505050506040513d6020811015610f0c57600080fd5b5051610f1757600080fd5b60408051600160e01b6371ce52ed0281523360048201526001600160a01b03861660248201529051859130916371ce52ed91604480820192602092909190829003018186803b158015610f6957600080fd5b505afa158015610f7d573d6000803e3d6000fd5b505050506040513d6020811015610f9357600080fd5b5051610f9e57600080fd5b600b5460408051600160e01b63029b7d5302815233600482015290516000926001600160a01b03169163029b7d53916024808301926020929190829003018186803b158015610fec57600080fd5b505afa158015611000573d6000803e3d6000fd5b505050506040513d602081101561101657600080fd5b50516001600160a01b0316141561102c57600080fd5b600c54600b5460408051600160e01b63029b7d5302815233600482015290516001600160a01b0393841693633ebc2ab393169163029b7d53916024808301926020929190829003018186803b15801561108457600080fd5b505afa158015611098573d6000803e3d6000fd5b505050506040513d60208110156110ae57600080fd5b50516040805163ffffffff841660e01b81526001600160a01b039092166004830152516024808301926020929190829003018186803b1580156110f057600080fd5b505afa158015611104573d6000803e3d6000fd5b505050506040513d602081101561111a57600080fd5b50511561112657600080fd5b61112f856109cd565b61113857600080fd5b600c5460408051600160e01b633ebc2ab30281526001600160a01b03878116600483015291519190921691633ebc2ab3916024808301926020929190829003018186803b15801561118857600080fd5b505afa15801561119c573d6000803e3d6000fd5b505050506040513d60208110156111b257600080fd5b5051156111be57600080fd5b6111c8858561490b565b5050505050565b8173__AOLibrary_____________________________632d706a34826040518263ffffffff1660e01b815260040180826001600160a01b03166001600160a01b0316815260200191505060206040518083038186803b15801561123157600080fd5b505af4158015611245573d6000803e3d6000fd5b505050506040513d602081101561125b57600080fd5b5051806112ed575060408051600160e21b630bf295050281526001600160a01b0383166004820152905173__AOLibrary_____________________________91632fca5414916024808301926020929190829003018186803b1580156112c057600080fd5b505af41580156112d4573d6000803e3d6000fd5b505050506040513d60208110156112ea57600080fd5b50515b6112f657600080fd5b8173__AOLibrary_____________________________632d706a34826040518263ffffffff1660e01b815260040180826001600160a01b03166001600160a01b0316815260200191505060206040518083038186803b15801561135857600080fd5b505af415801561136c573d6000803e3d6000fd5b505050506040513d602081101561138257600080fd5b505180611414575060408051600160e21b630bf295050281526001600160a01b0383166004820152905173__AOLibrary_____________________________91632fca5414916024808301926020929190829003018186803b1580156113e757600080fd5b505af41580156113fb573d6000803e3d6000fd5b505050506040513d602081101561141157600080fd5b50515b61141d57600080fd5b600b5460408051600160e01b63029b7d5302815233600482015290516000926001600160a01b03169163029b7d53916024808301926020929190829003018186803b15801561146b57600080fd5b505afa15801561147f573d6000803e3d6000fd5b505050506040513d602081101561149557600080fd5b50516001600160a01b031614156114ab57600080fd5b600c54600b5460408051600160e01b63029b7d5302815233600482015290516001600160a01b0393841693633ebc2ab393169163029b7d53916024808301926020929190829003018186803b15801561150357600080fd5b505afa158015611517573d6000803e3d6000fd5b505050506040513d602081101561152d57600080fd5b50516040805163ffffffff841660e01b81526001600160a01b039092166004830152516024808301926020929190829003018186803b15801561156f57600080fd5b505afa158015611583573d6000803e3d6000fd5b505050506040513d602081101561159957600080fd5b5051156115a557600080fd5b60408051600160e01b6371ce52ed0281523360048201526001600160a01b03861660248201529051859130916371ce52ed91604480820192602092909190829003018186803b1580156115f757600080fd5b505afa15801561160b573d6000803e3d6000fd5b505050506040513d602081101561162157600080fd5b505161162c57600080fd5b611635856109cd565b61163e57600080fd5b60408051600160e21b630b5c1a8d0281526001600160a01b0387166004820152905160009173__AOLibrary_____________________________91632d706a3491602480820192602092909190829003018186803b15801561169f57600080fd5b505af41580156116b3573d6000803e3d6000fd5b505050506040513d60208110156116c957600080fd5b505115611876576001905073__AOLibrary_____________________________632d706a34866040518263ffffffff1660e01b815260040180826001600160a01b03166001600160a01b0316815260200191505060206040518083038186803b15801561173557600080fd5b505af4158015611749573d6000803e3d6000fd5b505050506040513d602081101561175f57600080fd5b505161176a57600080fd5b600c5460408051600160e01b633ebc2ab30281526001600160a01b03898116600483015291519190921691633ebc2ab3916024808301926020929190829003018186803b1580156117ba57600080fd5b505afa1580156117ce573d6000803e3d6000fd5b505050506040513d60208110156117e457600080fd5b5051156117f057600080fd5b600c5460408051600160e01b633ebc2ab30281526001600160a01b03888116600483015291519190921691633ebc2ab3916024808301926020929190829003018186803b15801561184057600080fd5b505afa158015611854573d6000803e3d6000fd5b505050506040513d602081101561186a57600080fd5b50511561187657600080fd5b6001600160a01b0380871660009081526011602052604081206002810180548985166001600160a01b031982161790915590921690831561193657600b5460408051600160e21b633d5d0f130281526001600160a01b038c811660048301529151919092169163f5743c4c9160248083019260209291908290030181600087803b15801561190357600080fd5b505af1158015611917573d6000803e3d6000fd5b505050506040513d602081101561192d57600080fd5b505190506119b7565b600d5460408051600160e21b633d5d0f130281526001600160a01b038c811660048301529151919092169163f5743c4c9160248083019260209291908290030181600087803b15801561198857600080fd5b505af115801561199c573d6000803e3d6000fd5b505050506040513d60208110156119b257600080fd5b505190505b6002830154604080516001600160a01b03858116825292831660208201528082018490529051918b16917fe60c26cbb956b589a247aabcdf98ec9be5509ac7ee76c3508b41647fa1457eca9181900360600190a2505050505050505050565b8073__AOLibrary_____________________________632fca5414826040518263ffffffff1660e01b815260040180826001600160a01b03166001600160a01b0316815260200191505060206040518083038186803b158015611a7857600080fd5b505af4158015611a8c573d6000803e3d6000fd5b505050506040513d6020811015611aa257600080fd5b5051611aad57600080fd5b600b5460408051600160e01b63029b7d5302815233600482015290516000926001600160a01b03169163029b7d53916024808301926020929190829003018186803b158015611afb57600080fd5b505afa158015611b0f573d6000803e3d6000fd5b505050506040513d6020811015611b2557600080fd5b50516001600160a01b03161415611b3b57600080fd5b600c54600b5460408051600160e01b63029b7d5302815233600482015290516001600160a01b0393841693633ebc2ab393169163029b7d53916024808301926020929190829003018186803b158015611b9357600080fd5b505afa158015611ba7573d6000803e3d6000fd5b505050506040513d6020811015611bbd57600080fd5b50516040805163ffffffff841660e01b81526001600160a01b039092166004830152516024808301926020929190829003018186803b158015611bff57600080fd5b505afa158015611c13573d6000803e3d6000fd5b505050506040513d6020811015611c2957600080fd5b505115611c3557600080fd5b611c3e826109cd565b611c4757600080fd5b611c513383612807565b611c5a57600080fd5b600b5460408051600160e01b63029b7d5302815233600482015290516000926001600160a01b03169163029b7d53916024808301926020929190829003018186803b158015611ca857600080fd5b505afa158015611cbc573d6000803e3d6000fd5b505050506040513d6020811015611cd257600080fd5b505160408051600160e01b63fd6f41370281526001600160a01b03861660048201529051919250600091309163fd6f4137916024808301926020929190829003018186803b158015611d2357600080fd5b505afa158015611d37573d6000803e3d6000fd5b505050506040513d6020811015611d4d57600080fd5b505190506001600160a01b038281169082161415611d6a57600080fd5b60105460408051600160e01b63fd6f41370281526001600160a01b0387811660048301529151919092169163985e4cd091309163fd6f4137916024808301926020929190829003018186803b158015611dc257600080fd5b505afa158015611dd6573d6000803e3d6000fd5b505050506040513d6020811015611dec57600080fd5b50516040805163ffffffff841660e01b81526001600160a01b039092166004830152516024808301926020929190829003018186803b158015611e2e57600080fd5b505afa158015611e42573d6000803e3d6000fd5b505050506040513d6020811015611e5857600080fd5b505160105460408051600160e41b630985e4cd0281526001600160a01b0386811660048301529151919092169163985e4cd0916024808301926020929190829003018186803b158015611eaa57600080fd5b505afa158015611ebe573d6000803e3d6000fd5b505050506040513d6020811015611ed457600080fd5b505111611ee057600080fd5b611eea848361490b565b50505050565b6009546001600160a01b031681565b600080600080600080611f10614d0a565b50600087815260126020908152604091829020825160e0810184528154815260018201546001600160a01b03908116938201939093526002820154928316938101849052600160a01b90920460ff161515606083015260038101546080830152600481015460a08301526005015460c082015290611f8d57600080fd5b602081015160408201516060830151608084015160a085015160c090950151939c929b5090995097509195509350915050565b8173__AOLibrary_____________________________632d706a34826040518263ffffffff1660e01b815260040180826001600160a01b03166001600160a01b0316815260200191505060206040518083038186803b15801561202257600080fd5b505af4158015612036573d6000803e3d6000fd5b505050506040513d602081101561204c57600080fd5b5051806120de575060408051600160e21b630bf295050281526001600160a01b0383166004820152905173__AOLibrary_____________________________91632fca5414916024808301926020929190829003018186803b1580156120b157600080fd5b505af41580156120c5573d6000803e3d6000fd5b505050506040513d60208110156120db57600080fd5b50515b6120e757600080fd5b8173__AOLibrary_____________________________632d706a34826040518263ffffffff1660e01b815260040180826001600160a01b03166001600160a01b0316815260200191505060206040518083038186803b15801561214957600080fd5b505af415801561215d573d6000803e3d6000fd5b505050506040513d602081101561217357600080fd5b505180612205575060408051600160e21b630bf295050281526001600160a01b0383166004820152905173__AOLibrary_____________________________91632fca5414916024808301926020929190829003018186803b1580156121d857600080fd5b505af41580156121ec573d6000803e3d6000fd5b505050506040513d602081101561220257600080fd5b50515b61220e57600080fd5b600b5460408051600160e01b63029b7d5302815233600482015290516000926001600160a01b03169163029b7d53916024808301926020929190829003018186803b15801561225c57600080fd5b505afa158015612270573d6000803e3d6000fd5b505050506040513d602081101561228657600080fd5b50516001600160a01b0316141561229c57600080fd5b600c54600b5460408051600160e01b63029b7d5302815233600482015290516001600160a01b0393841693633ebc2ab393169163029b7d53916024808301926020929190829003018186803b1580156122f457600080fd5b505afa158015612308573d6000803e3d6000fd5b505050506040513d602081101561231e57600080fd5b50516040805163ffffffff841660e01b81526001600160a01b039092166004830152516024808301926020929190829003018186803b15801561236057600080fd5b505afa158015612374573d6000803e3d6000fd5b505050506040513d602081101561238a57600080fd5b50511561239657600080fd5b60408051600160e01b6371ce52ed0281523360048201526001600160a01b03861660248201529051859130916371ce52ed91604480820192602092909190829003018186803b1580156123e857600080fd5b505afa1580156123fc573d6000803e3d6000fd5b505050506040513d602081101561241257600080fd5b505161241d57600080fd5b612426856109cd565b61242f57600080fd5b60408051600160e21b630b5c1a8d0281526001600160a01b0387166004820152905160009173__AOLibrary_____________________________91632d706a3491602480820192602092909190829003018186803b15801561249057600080fd5b505af41580156124a4573d6000803e3d6000fd5b505050506040513d60208110156124ba57600080fd5b505115612667576001905073__AOLibrary_____________________________632d706a34866040518263ffffffff1660e01b815260040180826001600160a01b03166001600160a01b0316815260200191505060206040518083038186803b15801561252657600080fd5b505af415801561253a573d6000803e3d6000fd5b505050506040513d602081101561255057600080fd5b505161255b57600080fd5b600c5460408051600160e01b633ebc2ab30281526001600160a01b03898116600483015291519190921691633ebc2ab3916024808301926020929190829003018186803b1580156125ab57600080fd5b505afa1580156125bf573d6000803e3d6000fd5b505050506040513d60208110156125d557600080fd5b5051156125e157600080fd5b600c5460408051600160e01b633ebc2ab30281526001600160a01b03888116600483015291519190921691633ebc2ab3916024808301926020929190829003018186803b15801561263157600080fd5b505afa158015612645573d6000803e3d6000fd5b505050506040513d602081101561265b57600080fd5b50511561266757600080fd5b6001600160a01b0380871660009081526011602052604081206001810180548985166001600160a01b031982161790915590921690831561272757600b5460408051600160e21b633d5d0f130281526001600160a01b038c811660048301529151919092169163f5743c4c9160248083019260209291908290030181600087803b1580156126f457600080fd5b505af1158015612708573d6000803e3d6000fd5b505050506040513d602081101561271e57600080fd5b505190506127a8565b600d5460408051600160e21b633d5d0f130281526001600160a01b038c811660048301529151919092169163f5743c4c9160248083019260209291908290030181600087803b15801561277957600080fd5b505af115801561278d573d6000803e3d6000fd5b505050506040513d60208110156127a357600080fd5b505190505b6001830154604080516001600160a01b03858116825292831660208201528082018490529051918b16917f2e81a908b9dece3c9a64e14f5daaa72174a5403092f82ab988ba4cc14b1390029181900360600190a2505050505050505050565b600f5460408051600160e01b637b23a4370281526001600160a01b038481166004830152915160009384931691637b23a437916024808301926060929190829003018186803b15801561285957600080fd5b505afa15801561286d573d6000803e3d6000fd5b505050506040513d606081101561288357600080fd5b505160408051600160e21b630b5c1a8d0281526001600160a01b0383166004820152905191925073__AOLibrary_____________________________91632d706a3491602480820192602092909190829003018186803b1580156128e657600080fd5b505af41580156128fa573d6000803e3d6000fd5b505050506040513d602081101561291057600080fd5b505180612a2d575060408051600160e21b630bf295050281526001600160a01b0383166004820152905173__AOLibrary_____________________________91632fca5414916024808301926020929190829003018186803b15801561297557600080fd5b505af4158015612989573d6000803e3d6000fd5b505050506040513d602081101561299f57600080fd5b50518015612a2d5750600f5460408051600160e01b6356dbc0070281526001600160a01b0384811660048301528681166024830152915191909216916356dbc007916044808301926020929190829003018186803b158015612a0057600080fd5b505afa158015612a14573d6000803e3d6000fd5b505050506040513d6020811015612a2a57600080fd5b50515b8015612ab2575060408051600160e01b6371ce52ed0281526001600160a01b03868116600483015283166024820152905130916371ce52ed916044808301926020929190829003018186803b158015612a8557600080fd5b505afa158015612a99573d6000803e3d6000fd5b505050506040513d6020811015612aaf57600080fd5b50515b949350505050565b6001546001600160a01b031681565b60005460015460408051600160e21b633d9abf2b0281523360048201526001600160a01b0393841660248201529290911660448301525173__AOLibrary_____________________________9163f66afcac916064808301926020929190829003018186803b158015612b3b57600080fd5b505af4158015612b4f573d6000803e3d6000fd5b505050506040513d6020811015612b6557600080fd5b5051612b7057600080fd5b6001600160a01b038216612b8357600080fd5b6001600160a01b03919091166000908152600260205260409020805460ff1916911515919091179055565b6000612bb9826109cd565b612bc257600080fd5b612bca614d46565b50506001600160a01b0390811660009081526011602090815260409182902082516080810184528154851681526001820154851692810183905260029091015493841692810192909252600160a01b90920460ff16151560609091015290565b6001600160a01b038116600090815260116020526040812060020154600160a01b900460ff168015610a435750600b5460408051600160e01b63029b7d530281526001600160a01b0386811660048301529151919092169163029b7d53916024808301926020929190829003018186803b158015612ca757600080fd5b505afa158015612cbb573d6000803e3d6000fd5b505050506040513d6020811015612cd157600080fd5b50516001600160a01b038381166000908152601160205260409020548116911614905092915050565b60005460015460408051600160e21b633d9abf2b0281523360048201526001600160a01b0393841660248201529290911660448301525173__AOLibrary_____________________________9163f66afcac916064808301926020929190829003018186803b158015612d6c57600080fd5b505af4158015612d80573d6000803e3d6000fd5b505050506040513d6020811015612d9657600080fd5b5051612da157600080fd5b6001600160a01b038116612db457600080fd5b600880546001600160a01b03199081166001600160a01b039384161791829055600f8054929093169116179055565b60408051600160e11b63716472a50281526001600160a01b038481166004830152831660248201529051600091309163e2c8e54a91604480820192602092909190829003018186803b158015612e3857600080fd5b505afa158015612e4c573d6000803e3d6000fd5b505050506040513d6020811015612e6257600080fd5b5051612e6d57600080fd5b612e75614d46565b506001600160a01b0382811660009081526011602090815260408083208151608081018352815486168152600182015486168185015260029091015480861682840152600160a01b900460ff1615156060820152600b548251600160e01b63029b7d53028152898716600482015292519195169263029b7d539260248082019391829003018186803b158015612f0a57600080fd5b505afa158015612f1e573d6000803e3d6000fd5b505050506040513d6020811015612f3457600080fd5b505182519091506001600160a01b0380831691161415612f5957600192505050610a46565b81602001516001600160a01b0316816001600160a01b03161415612f8257600292505050610a46565b600392505050610a46565b600b5460408051600160e01b63029b7d530281526001600160a01b03848116600483015291516000938493169163029b7d53916024808301926020929190829003018186803b158015612fdf57600080fd5b505afa158015612ff3573d6000803e3d6000fd5b505050506040513d602081101561300957600080fd5b505160008581526012602052604090206002810154919250906001600160a01b031661303a57600292505050610a46565b60018101546001600160a01b0383811691161461305c57600392505050610a46565b80600401544210806130715750806005015442115b1561308157600492505050610a46565b6002810154600160a01b900460ff16156130a057600592505050610a46565b601054600282015460408051600160e01b63fd6f41370281526001600160a01b0392831660048201529051919092169163985e4cd091309163fd6f4137916024808301926020929190829003018186803b1580156130fd57600080fd5b505afa158015613111573d6000803e3d6000fd5b505050506040513d602081101561312757600080fd5b50516040805163ffffffff841660e01b81526001600160a01b039092166004830152516024808301926020929190829003018186803b15801561316957600080fd5b505afa15801561317d573d6000803e3d6000fd5b505050506040513d602081101561319357600080fd5b505160105460408051600160e41b630985e4cd0281526001600160a01b0386811660048301529151919092169163985e4cd0916024808301926020929190829003018186803b1580156131e557600080fd5b505afa1580156131f9573d6000803e3d6000fd5b505050506040513d602081101561320f57600080fd5b50511161322157600692505050610a46565b600192505050610a46565b60005460015460408051600160e21b633d9abf2b0281523360048201526001600160a01b0393841660248201529290911660448301525173__AOLibrary_____________________________9163f66afcac916064808301926020929190829003018186803b15801561329e57600080fd5b505af41580156132b2573d6000803e3d6000fd5b505050506040513d60208110156132c857600080fd5b50516132d357600080fd5b6001600160a01b0381166132e657600080fd5b600480546001600160a01b039092166001600160a01b03199283168117909155600b8054909216179055565b60026020526000908152604090205460ff1681565b6005546001600160a01b031681565b6000546001600160a01b031681565b6008546001600160a01b031681565b6004546001600160a01b031681565b60005460015460408051600160e21b633d9abf2b0281523360048201526001600160a01b0393841660248201529290911660448301525173__AOLibrary_____________________________9163f66afcac916064808301926020929190829003018186803b1580156133d557600080fd5b505af41580156133e9573d6000803e3d6000fd5b505050506040513d60208110156133ff57600080fd5b505161340a57600080fd5b60408051600160e21b630bf295050281526001600160a01b0383166004820152905173__AOLibrary_____________________________91632fca5414916024808301926020929190829003018186803b15801561346757600080fd5b505af415801561347b573d6000803e3d6000fd5b505050506040513d602081101561349157600080fd5b505161349c57600080fd5b600380546001600160a01b0319166001600160a01b0392909216919091179055565b6060600060606000606060006134d3876109cd565b6134dc57600080fd5b6134e4614d46565b506001600160a01b038781166000908152601160209081526040808320815160808101835281548616808252600183015487169482019490945260029091015494851681830152600160a01b90940460ff16151560608501528051600160e01b6306fdde03028152905191926306fdde0392600480840193829003018186803b15801561357057600080fd5b505afa158015613584573d6000803e3d6000fd5b505050506040513d6000823e601f3d908101601f1916820160405260208110156135ad57600080fd5b810190808051600160201b8111156135c457600080fd5b820160208101848111156135d757600080fd5b8151600160201b8111828201871017156135f057600080fd5b5050929190505050816000015182602001516001600160a01b03166306fdde036040518163ffffffff1660e01b815260040160006040518083038186803b15801561363a57600080fd5b505afa15801561364e573d6000803e3d6000fd5b505050506040513d6000823e601f3d908101601f19168201604052602081101561367757600080fd5b810190808051600160201b81111561368e57600080fd5b820160208101848111156136a157600080fd5b8151600160201b8111828201871017156136ba57600080fd5b5050929190505050836020015184604001516001600160a01b03166306fdde036040518163ffffffff1660e01b815260040160006040518083038186803b15801561370457600080fd5b505afa158015613718573d6000803e3d6000fd5b505050506040513d6000823e601f3d908101601f19168201604052602081101561374157600080fd5b810190808051600160201b81111561375857600080fd5b8201602081018481111561376b57600080fd5b8151600160201b81118282018710171561378457600080fd5b505060409890980151969f959e50939c50919a5094985092965090945050505050565b6001600160a01b038116600090815260116020526040812060020154600160a01b900460ff168015610a435750600b5460408051600160e01b63029b7d530281526001600160a01b0386811660048301529151919092169163029b7d53916024808301926020929190829003018186803b15801561382457600080fd5b505afa158015613838573d6000803e3d6000fd5b505050506040513d602081101561384e57600080fd5b50516001600160a01b038381166000908152601160205260409020600101548116911614905092915050565b600b5460408051600160e01b63029b7d530281526001600160a01b03858116600483015291516000938493169163029b7d53916024808301926020929190829003018186803b1580156138cc57600080fd5b505afa1580156138e0573d6000803e3d6000fd5b505050506040513d60208110156138f657600080fd5b505190506001600160a01b038116613912576000915050610a46565b6001600160a01b038316600090815260116020526040902060020154600160a01b900460ff1680156139b357506001600160a01b038381166000908152601160205260409020548116908216148061398957506001600160a01b038381166000908152601160205260409020600101548116908216145b806139b357506001600160a01b038381166000908152601160205260409020600201548116908216145b915050610a46565b6003546001600160a01b031681565b600b5460408051600160e01b63029b7d5302815233600482015290516000926001600160a01b03169163029b7d53916024808301926020929190829003018186803b158015613a1857600080fd5b505afa158015613a2c573d6000803e3d6000fd5b505050506040513d6020811015613a4257600080fd5b50516001600160a01b03161415613a5857600080fd5b600c54600b5460408051600160e01b63029b7d5302815233600482015290516001600160a01b0393841693633ebc2ab393169163029b7d53916024808301926020929190829003018186803b158015613ab057600080fd5b505afa158015613ac4573d6000803e3d6000fd5b505050506040513d6020811015613ada57600080fd5b50516040805163ffffffff841660e01b81526001600160a01b039092166004830152516024808301926020929190829003018186803b158015613b1c57600080fd5b505afa158015613b30573d6000803e3d6000fd5b505050506040513d6020811015613b4657600080fd5b505115613b5257600080fd5b6000818152601260205260409020613b6a8233612f8d565b60ff16600114613b7957600080fd5b600281018054600160a01b60ff021916600160a01b17908190556001820154613bae916001600160a01b03908116911661490b565b600281015460405183916001600160a01b0316907fa06cbfd9ebd454fc08633c987fb3cca83ac8f69dc24ae471a3c5be82ffff7d1290600090a35050565b8073__AOLibrary_____________________________632fca5414826040518263ffffffff1660e01b815260040180826001600160a01b03166001600160a01b0316815260200191505060206040518083038186803b158015613c4e57600080fd5b505af4158015613c62573d6000803e3d6000fd5b505050506040513d6020811015613c7857600080fd5b5051613c8357600080fd5b600b5460408051600160e01b63029b7d5302815233600482015290516000926001600160a01b03169163029b7d53916024808301926020929190829003018186803b158015613cd157600080fd5b505afa158015613ce5573d6000803e3d6000fd5b505050506040513d6020811015613cfb57600080fd5b50516001600160a01b03161415613d1157600080fd5b600c54600b5460408051600160e01b63029b7d5302815233600482015290516001600160a01b0393841693633ebc2ab393169163029b7d53916024808301926020929190829003018186803b158015613d6957600080fd5b505afa158015613d7d573d6000803e3d6000fd5b505050506040513d6020811015613d9357600080fd5b50516040805163ffffffff841660e01b81526001600160a01b039092166004830152516024808301926020929190829003018186803b158015613dd557600080fd5b505afa158015613de9573d6000803e3d6000fd5b505050506040513d6020811015613dff57600080fd5b505115613e0b57600080fd5b613e14826109cd565b613e1d57600080fd5b600b5460408051600160e01b63029b7d5302815233600482015290516000926001600160a01b03169163029b7d53916024808301926020929190829003018186803b158015613e6b57600080fd5b505afa158015613e7f573d6000803e3d6000fd5b505050506040513d6020811015613e9557600080fd5b505160408051600160e01b63fd6f41370281526001600160a01b03861660048201529051919250600091309163fd6f4137916024808301926020929190829003018186803b158015613ee657600080fd5b505afa158015613efa573d6000803e3d6000fd5b505050506040513d6020811015613f1057600080fd5b505190506001600160a01b038281169082161415613f2d57600080fd5b60105460408051600160e41b630985e4cd0281526001600160a01b0384811660048301529151919092169163985e4cd0916024808301926020929190829003018186803b158015613f7d57600080fd5b505afa158015613f91573d6000803e3d6000fd5b505050506040513d6020811015613fa757600080fd5b505160105460408051600160e41b630985e4cd0281526001600160a01b0386811660048301529151919092169163985e4cd0916024808301926020929190829003018186803b158015613ff957600080fd5b505afa15801561400d573d6000803e3d6000fd5b505050506040513d602081101561402357600080fd5b50511161402f57600080fd5b60008061403a614aa0565b600a80546001908101918290556040805130606090811b6020808401919091526001600160a01b03808f1680841b6034860152908d169283901b6048850152605c8085019790975284518085039097018752607c9093018452855195810195909520600081815260129096529290942082815592830180546001600160a01b03199081169095179055600283018054909416179092554260038201819055939550919350916140ef908563ffffffff614cfd16565b60048201819055614106908463ffffffff614cfd16565b6005820181905560038201546004830154604080516001600160a01b038a811682528b81166020830152818301949094526060810192909252608082019390935291518492918b16917f981571316fc5090cfcb298ad4ce178e523677e724c0ae1ec87fd70743b2c3f6b919081900360a00190a35050505050505050565b600061418f826109cd565b61419857600080fd5b6141a0614d46565b50506001600160a01b039081166000908152601160209081526040918290208251608081018452815485168152600182015485169281019290925260020154928316918101829052600160a01b90920460ff16151560609092019190915290565b60005460015460408051600160e21b633d9abf2b0281523360048201526001600160a01b0393841660248201529290911660448301525173__AOLibrary_____________________________9163f66afcac916064808301926020929190829003018186803b15801561427357600080fd5b505af4158015614287573d6000803e3d6000fd5b505050506040513d602081101561429d57600080fd5b50516142a857600080fd5b6001600160a01b0381166142bb57600080fd5b600080546001600160a01b0319166001600160a01b0392909216919091179055565b60008473__AOLibrary_____________________________632d706a34826040518263ffffffff1660e01b815260040180826001600160a01b03166001600160a01b0316815260200191505060206040518083038186803b15801561434157600080fd5b505af4158015614355573d6000803e3d6000fd5b505050506040513d602081101561436b57600080fd5b5051806143fd575060408051600160e21b630bf295050281526001600160a01b0383166004820152905173__AOLibrary_____________________________91632fca5414916024808301926020929190829003018186803b1580156143d057600080fd5b505af41580156143e4573d6000803e3d6000fd5b505050506040513d60208110156143fa57600080fd5b50515b61440657600080fd5b8473__AOLibrary_____________________________632d706a34826040518263ffffffff1660e01b815260040180826001600160a01b03166001600160a01b0316815260200191505060206040518083038186803b15801561446857600080fd5b505af415801561447c573d6000803e3d6000fd5b505050506040513d602081101561449257600080fd5b505161449d57600080fd5b8473__AOLibrary_____________________________632d706a34826040518263ffffffff1660e01b815260040180826001600160a01b03166001600160a01b0316815260200191505060206040518083038186803b1580156144ff57600080fd5b505af4158015614513573d6000803e3d6000fd5b505050506040513d602081101561452957600080fd5b5051806145bb575060408051600160e21b630bf295050281526001600160a01b0383166004820152905173__AOLibrary_____________________________91632fca5414916024808301926020929190829003018186803b15801561458e57600080fd5b505af41580156145a2573d6000803e3d6000fd5b505050506040513d60208110156145b857600080fd5b50515b6145c457600080fd5b8473__AOLibrary_____________________________632d706a34826040518263ffffffff1660e01b815260040180826001600160a01b03166001600160a01b0316815260200191505060206040518083038186803b15801561462657600080fd5b505af415801561463a573d6000803e3d6000fd5b505050506040513d602081101561465057600080fd5b5051806146e2575060408051600160e21b630bf295050281526001600160a01b0383166004820152905173__AOLibrary_____________________________91632fca5414916024808301926020929190829003018186803b1580156146b557600080fd5b505af41580156146c9573d6000803e3d6000fd5b505050506040513d60208110156146df57600080fd5b50515b6146eb57600080fd5b6004546001600160a01b031633148061470e57506006546001600160a01b031633145b61471757600080fd5b614720896109cd565b1561472a57600080fd5b505050506001600160a01b03948516600090815260116020526040902080549486166001600160a01b031995861617815560018082018054958816958716959095179094556002018054600160a01b60ff021993909616959094169490941716600160a01b17909155919050565b60006147a3826109cd565b6147ac57600080fd5b6147b4614d46565b50506001600160a01b03908116600090815260116020908152604091829020825160808101845281548516808252600183015486169382019390935260029091015493841692810192909252600160a01b90920460ff16151560609091015290565b6006546001600160a01b031681565b60005460015460408051600160e21b633d9abf2b0281523360048201526001600160a01b0393841660248201529290911660448301525173__AOLibrary_____________________________9163f66afcac916064808301926020929190829003018186803b15801561489757600080fd5b505af41580156148ab573d6000803e3d6000fd5b505050506040513d60208110156148c157600080fd5b50516148cc57600080fd5b6001600160a01b0381166148df57600080fd5b600980546001600160a01b039092166001600160a01b0319928316811790915560108054909216179055565b6001600160a01b03808316600081815260116020908152604080832080548787166001600160a01b03198216178255600d548351600160e21b633d5d0f130281526004810197909752925191969081169592169263f5743c4c926024808201939182900301818787803b15801561498157600080fd5b505af1158015614995573d6000803e3d6000fd5b505050506040513d60208110156149ab57600080fd5b50519050806149b957600080fd5b60105460408051600160e31b6312af36350281526001600160a01b038581166004830152888116602483015291519190921691639579b1a89160448083019260209291908290030181600087803b158015614a1357600080fd5b505af1158015614a27573d6000803e3d6000fd5b505050506040513d6020811015614a3d57600080fd5b5051614a4857600080fd5b8254604080516001600160a01b03858116825292831660208201528082018490529051918716917f7883860d48d58f44441bf70d860a25ba5bb7f97cddbb6f0d85a3e1fe0f7f184e9181900360600190a25050505050565b600e5460035460408051600160e21b631c196fb70281526001600160a01b03928316600482015260248101829052602060448201527f6368616c6c656e676554414f4164766f636174654c6f636b4475726174696f6e6064820152905160009384938493911691637065bedc916084808201928692909190829003018186803b158015614b2c57600080fd5b505afa158015614b40573d6000803e3d6000fd5b505050506040513d6000823e601f3d908101601f1916820160405260a0811015614b6957600080fd5b815160208301516040840151606085015160808601805194969395929491939283019291600160201b811115614b9e57600080fd5b82016020810184811115614bb157600080fd5b8151600160201b811182820187101715614bca57600080fd5b5050600e5460035460408051600160e21b631c196fb70281526001600160a01b03928316600482018181526024808401948552604484018190529d9e5060009d949095169b50637065bedc9a5098509296509450606490910192509050614d6e82396040019250505060006040518083038186803b158015614c4b57600080fd5b505afa158015614c5f573d6000803e3d6000fd5b505050506040513d6000823e601f3d908101601f1916820160405260a0811015614c8857600080fd5b815160208301516040840151606085015160808601805194969395929491939283019291600160201b811115614cbd57600080fd5b82016020810184811115614cd057600080fd5b8151600160201b811182820187101715614ce957600080fd5b50999b509699505050505050505050509091565b81810182811015610a4657fe5b6040805160e081018252600080825260208201819052918101829052606081018290526080810182905260a0810182905260c081019190915290565b6040805160808101825260008082526020820181905291810182905260608101919091529056fe6368616c6c656e676554414f4164766f63617465436f6d706c6574654475726174696f6ea165627a7a7230582096a1e0c7233a9165173ed2c135142cd078acb6aebc32997d09a9d2595de645be0029",
  "source": "pragma solidity >=0.5.4 <0.6.0;\n\nimport './SafeMath.sol';\nimport './AOLibrary.sol';\nimport './TheAO.sol';\nimport './INameTAOPosition.sol';\nimport './INameFactory.sol';\nimport './INameAccountRecovery.sol';\nimport './ITAOFactory.sol';\nimport './ITAOAncestry.sol';\nimport './IAOSetting.sol';\nimport './Logos.sol';\nimport './TAO.sol';\n\n/**\n * @title NameTAOPosition\n */\ncontract NameTAOPosition is TheAO, INameTAOPosition {\n\tusing SafeMath for uint256;\n\n\taddress public settingTAOId;\n\taddress public nameFactoryAddress;\n\taddress public nameAccountRecoveryAddress;\n\taddress public taoFactoryAddress;\n\taddress public aoSettingAddress;\n\taddress public taoAncestryAddress;\n\taddress public logosAddress;\n\n\tuint256 public totalTAOAdvocateChallenges;\n\n\tINameFactory internal _nameFactory;\n\tINameAccountRecovery internal _nameAccountRecovery;\n\tITAOFactory internal _taoFactory;\n\tIAOSetting internal _aoSetting;\n\tITAOAncestry internal _taoAncestry;\n\tLogos internal _logos;\n\n\tstruct PositionDetail {\n\t\taddress advocateId;\n\t\taddress listenerId;\n\t\taddress speakerId;\n\t\tbool created;\n\t}\n\n\tstruct TAOAdvocateChallenge {\n\t\tbytes32 challengeId;\n\t\taddress newAdvocateId;\t\t// The Name ID that wants to be the new Advocate\n\t\taddress taoId;\t\t\t\t// The TAO ID being challenged\n\t\tbool completed;\t\t\t\t// Status of the challenge\n\t\tuint256 createdTimestamp;\t// Timestamp when this challenge is created\n\t\tuint256 lockedUntilTimestamp;\t// The deadline for current Advocate to respond\n\t\tuint256 completeBeforeTimestamp; // The deadline for the challenger to respond and complete the challenge\n\t}\n\n\t// Mapping from Name/TAO ID to its PositionDetail info\n\tmapping (address => PositionDetail) internal positionDetails;\n\n\t// Mapping from challengeId to TAOAdvocateChallenge info\n\tmapping (bytes32 => TAOAdvocateChallenge) internal taoAdvocateChallenges;\n\n\t// Event to be broadcasted to public when current Advocate of TAO sets New Advocate\n\tevent SetAdvocate(address indexed taoId, address oldAdvocateId, address newAdvocateId, uint256 nonce);\n\n\t// Event to be broadcasted to public when current Advocate of Name/TAO sets New Listener\n\tevent SetListener(address indexed taoId, address oldListenerId, address newListenerId, uint256 nonce);\n\n\t// Event to be broadcasted to public when current Advocate of Name/TAO sets New Speaker\n\tevent SetSpeaker(address indexed taoId, address oldSpeakerId, address newSpeakerId, uint256 nonce);\n\n\t// Event to be broadcasted to public when a Name challenges to become TAO's new Advocate\n\tevent ChallengeTAOAdvocate(address indexed taoId, bytes32 indexed challengeId, address currentAdvocateId, address challengerAdvocateId, uint256 createdTimestamp, uint256 lockedUntilTimestamp, uint256 completeBeforeTimestamp);\n\n\t// Event to be broadcasted to public when Challenger completes the TAO Advocate challenge\n\tevent CompleteTAOAdvocateChallenge(address indexed taoId, bytes32 indexed challengeId);\n\n\t/**\n\t * @dev Constructor function\n\t */\n\tconstructor(address _nameFactoryAddress, address _taoFactoryAddress) public {\n\t\tsetNameFactoryAddress(_nameFactoryAddress);\n\t\tsetTAOFactoryAddress(_taoFactoryAddress);\n\n\t\tnameTAOPositionAddress = address(this);\n\t}\n\n\t/**\n\t * @dev Checks if the calling contract address is The AO\n\t *\t\tOR\n\t *\t\tIf The AO is set to a Name/TAO, then check if calling address is the Advocate\n\t */\n\tmodifier onlyTheAO {\n\t\trequire (AOLibrary.isTheAO(msg.sender, theAO, nameTAOPositionAddress));\n\t\t_;\n\t}\n\n\t/**\n\t * @dev Check if calling address is Factory\n\t */\n\tmodifier onlyFactory {\n\t\trequire (msg.sender == nameFactoryAddress || msg.sender == taoFactoryAddress);\n\t\t_;\n\t}\n\n\t/**\n\t * @dev Check if `_taoId` is a TAO\n\t */\n\tmodifier isTAO(address _taoId) {\n\t\trequire (AOLibrary.isTAO(_taoId));\n\t\t_;\n\t}\n\n\t/**\n\t * @dev Check if `_nameId` is a Name\n\t */\n\tmodifier isName(address _nameId) {\n\t\trequire (AOLibrary.isName(_nameId));\n\t\t_;\n\t}\n\n\t/**\n\t * @dev Check if `_id` is a Name or a TAO\n\t */\n\tmodifier isNameOrTAO(address _id) {\n\t\trequire (AOLibrary.isName(_id) || AOLibrary.isTAO(_id));\n\t\t_;\n\t}\n\n\t/**\n\t * @dev Check is msg.sender address is a Name\n\t */\n\t modifier senderIsName() {\n\t\trequire (_nameFactory.ethAddressToNameId(msg.sender) != address(0));\n\t\t_;\n\t }\n\n\t/**\n\t * @dev Check if msg.sender is the current advocate of a Name/TAO ID\n\t */\n\tmodifier onlyAdvocate(address _id) {\n\t\trequire (this.senderIsAdvocate(msg.sender, _id));\n\t\t_;\n\t}\n\n\t/**\n\t * @dev Only allowed if sender's Name is not compromised\n\t */\n\tmodifier senderNameNotCompromised() {\n\t\trequire (!_nameAccountRecovery.isCompromised(_nameFactory.ethAddressToNameId(msg.sender)));\n\t\t_;\n\t}\n\n\t/***** The AO ONLY METHODS *****/\n\t/**\n\t * @dev Transfer ownership of The AO to new address\n\t * @param _theAO The new address to be transferred\n\t */\n\tfunction transferOwnership(address _theAO) public onlyTheAO {\n\t\trequire (_theAO != address(0));\n\t\ttheAO = _theAO;\n\t}\n\n\t/**\n\t * @dev Whitelist `_account` address to transact on behalf of others\n\t * @param _account The address to whitelist\n\t * @param _whitelist Either to whitelist or not\n\t */\n\tfunction setWhitelist(address _account, bool _whitelist) public onlyTheAO {\n\t\trequire (_account != address(0));\n\t\twhitelist[_account] = _whitelist;\n\t}\n\n\t/**\n\t * @dev The AO set the NameFactory Address\n\t * @param _nameFactoryAddress The address of NameFactory\n\t */\n\tfunction setNameFactoryAddress(address _nameFactoryAddress) public onlyTheAO {\n\t\trequire (_nameFactoryAddress != address(0));\n\t\tnameFactoryAddress = _nameFactoryAddress;\n\t\t_nameFactory = INameFactory(_nameFactoryAddress);\n\t}\n\n\t/**\n\t * @dev The AO set the NameAccountRecovery Address\n\t * @param _nameAccountRecoveryAddress The address of NameAccountRecovery\n\t */\n\tfunction setNameAccountRecoveryAddress(address _nameAccountRecoveryAddress) public onlyTheAO {\n\t\trequire (_nameAccountRecoveryAddress != address(0));\n\t\tnameAccountRecoveryAddress = _nameAccountRecoveryAddress;\n\t\t_nameAccountRecovery = INameAccountRecovery(nameAccountRecoveryAddress);\n\t}\n\n\t/**\n\t * @dev The AO set the TAOFactory Address\n\t * @param _taoFactoryAddress The address of TAOFactory\n\t */\n\tfunction setTAOFactoryAddress(address _taoFactoryAddress) public onlyTheAO {\n\t\trequire (_taoFactoryAddress != address(0));\n\t\ttaoFactoryAddress = _taoFactoryAddress;\n\t\t_taoFactory = ITAOFactory(_taoFactoryAddress);\n\t}\n\n\t/**\n\t * @dev The AO sets setting TAO ID\n\t * @param _settingTAOId The new setting TAO ID to set\n\t */\n\tfunction setSettingTAOId(address _settingTAOId) public onlyTheAO {\n\t\trequire (AOLibrary.isTAO(_settingTAOId));\n\t\tsettingTAOId = _settingTAOId;\n\t}\n\n\t/**\n\t * @dev The AO sets AO Setting address\n\t * @param _aoSettingAddress The address of AOSetting\n\t */\n\tfunction setAOSettingAddress(address _aoSettingAddress) public onlyTheAO {\n\t\trequire (_aoSettingAddress != address(0));\n\t\taoSettingAddress = _aoSettingAddress;\n\t\t_aoSetting = IAOSetting(_aoSettingAddress);\n\t}\n\n\t/**\n\t * @dev The AO set the TAOAncestry Address\n\t * @param _taoAncestryAddress The address of TAOAncestry\n\t */\n\tfunction setTAOAncestryAddress(address _taoAncestryAddress) public onlyTheAO {\n\t\trequire (_taoAncestryAddress != address(0));\n\t\ttaoAncestryAddress = _taoAncestryAddress;\n\t\t_taoAncestry = ITAOAncestry(taoAncestryAddress);\n\t}\n\n\t/**\n\t * @dev The AO set the logosAddress Address\n\t * @param _logosAddress The address of Logos\n\t */\n\tfunction setLogosAddress(address _logosAddress) public onlyTheAO {\n\t\trequire (_logosAddress != address(0));\n\t\tlogosAddress = _logosAddress;\n\t\t_logos = Logos(_logosAddress);\n\t}\n\n\t/***** PUBLIC METHODS *****/\n\t/**\n\t * @dev Check whether or not a Name/TAO ID exist in the list\n\t * @param _id The ID to be checked\n\t * @return true if yes, false otherwise\n\t */\n\tfunction isExist(address _id) public view returns (bool) {\n\t\treturn positionDetails[_id].created;\n\t}\n\n\t/**\n\t * @dev Check whether or not `_sender` eth address is Advocate of _id\n\t * @param _sender The eth address to check\n\t * @param _id The ID to be checked\n\t * @return true if yes, false otherwise\n\t */\n\tfunction senderIsAdvocate(address _sender, address _id) external view returns (bool) {\n\t\treturn (positionDetails[_id].created && positionDetails[_id].advocateId == _nameFactory.ethAddressToNameId(_sender));\n\t}\n\n\t/**\n\t * @dev Check whether or not `_sender` eth address is Listener of _id\n\t * @param _sender The eth address to check\n\t * @param _id The ID to be checked\n\t * @return true if yes, false otherwise\n\t */\n\tfunction senderIsListener(address _sender, address _id) external view returns (bool) {\n\t\treturn (positionDetails[_id].created && positionDetails[_id].listenerId == _nameFactory.ethAddressToNameId(_sender));\n\t}\n\n\t/**\n\t * @dev Check whether or not `_sender` eth address is Speaker of _id\n\t * @param _sender The eth address to check\n\t * @param _id The ID to be checked\n\t * @return true if yes, false otherwise\n\t */\n\tfunction senderIsSpeaker(address _sender, address _id) external view returns (bool) {\n\t\treturn (positionDetails[_id].created && positionDetails[_id].speakerId == _nameFactory.ethAddressToNameId(_sender));\n\t}\n\n\t/**\n\t * @dev Check whether or not `_sender` eth address is Advocate of Parent of _id\n\t * @param _sender The eth address to check\n\t * @param _id The ID to be checked\n\t * @return true if yes, false otherwise\n\t */\n\tfunction senderIsAdvocateOfParent(address _sender, address _id) public view returns (bool) {\n\t\t(address _parentId,,) = _taoAncestry.getAncestryById(_id);\n\t\t return ((AOLibrary.isName(_parentId) || (AOLibrary.isTAO(_parentId) && _taoAncestry.isChild(_parentId, _id))) && this.senderIsAdvocate(_sender, _parentId));\n\t}\n\n\t/**\n\t * @dev Check whether or not eth address is either Advocate/Listener/Speaker of _id\n\t * @param _sender The eth address to check\n\t * @param _id The ID to be checked\n\t * @return true if yes, false otherwise\n\t */\n\tfunction senderIsPosition(address _sender, address _id) external view returns (bool) {\n\t\taddress _nameId = _nameFactory.ethAddressToNameId(_sender);\n\t\tif (_nameId == address(0)) {\n\t\t\treturn false;\n\t\t} else {\n\t\t\treturn (positionDetails[_id].created &&\n\t\t\t\t(positionDetails[_id].advocateId == _nameId ||\n\t\t\t\t positionDetails[_id].listenerId == _nameId ||\n\t\t\t\t positionDetails[_id].speakerId == _nameId\n\t\t\t\t)\n\t\t\t);\n\t\t}\n\t}\n\n\t/**\n\t * @dev Check whether or not _nameId is advocate of _id\n\t * @param _nameId The name ID to be checked\n\t * @param _id The ID to be checked\n\t * @return true if yes, false otherwise\n\t */\n\tfunction nameIsAdvocate(address _nameId, address _id) external view returns (bool) {\n\t\treturn (positionDetails[_id].created && positionDetails[_id].advocateId == _nameId);\n\t}\n\n\t/**\n\t * @dev Determine whether or not `_sender` is Advocate/Listener/Speaker of the Name/TAO\n\t * @param _sender The ETH address that to check\n\t * @param _id The ID of the Name/TAO\n\t * @return 1 if Advocate. 2 if Listener. 3 if Speaker\n\t */\n\tfunction determinePosition(address _sender, address _id) external view returns (uint256) {\n\t\trequire (this.senderIsPosition(_sender, _id));\n\t\tPositionDetail memory _positionDetail = positionDetails[_id];\n\t\taddress _nameId = _nameFactory.ethAddressToNameId(_sender);\n\t\tif (_nameId == _positionDetail.advocateId) {\n\t\t\treturn 1;\n\t\t} else if (_nameId == _positionDetail.listenerId) {\n\t\t\treturn 2;\n\t\t} else {\n\t\t\treturn 3;\n\t\t}\n\t}\n\n\t/**\n\t * @dev Initialize Position for a Name/TAO\n\t * @param _id The ID of the Name/TAO\n\t * @param _advocateId The Advocate ID of the Name/TAO\n\t * @param _listenerId The Listener ID of the Name/TAO\n\t * @param _speakerId The Speaker ID of the Name/TAO\n\t * @return true on success\n\t */\n\tfunction initialize(address _id, address _advocateId, address _listenerId, address _speakerId)\n\t\texternal\n\t\tisNameOrTAO(_id)\n\t\tisName(_advocateId)\n\t\tisNameOrTAO(_listenerId)\n\t\tisNameOrTAO(_speakerId)\n\t\tonlyFactory returns (bool) {\n\t\trequire (!isExist(_id));\n\n\t\tPositionDetail storage _positionDetail = positionDetails[_id];\n\t\t_positionDetail.advocateId = _advocateId;\n\t\t_positionDetail.listenerId = _listenerId;\n\t\t_positionDetail.speakerId = _speakerId;\n\t\t_positionDetail.created = true;\n\t\treturn true;\n\t}\n\n\t/**\n\t * @dev Get Name/TAO's Position info\n\t * @param _id The ID of the Name/TAO\n\t * @return the Advocate name\n\t * @return the Advocate ID of Name/TAO\n\t * @return the Listener name\n\t * @return the Listener ID of Name/TAO\n\t * @return the Speaker name\n\t * @return the Speaker ID of Name/TAO\n\t */\n\tfunction getPositionById(address _id) public view returns (string memory, address, string memory, address, string memory, address) {\n\t\trequire (isExist(_id));\n\t\tPositionDetail memory _positionDetail = positionDetails[_id];\n\t\treturn (\n\t\t\tTAO(address(uint160(_positionDetail.advocateId))).name(),\n\t\t\t_positionDetail.advocateId,\n\t\t\tTAO(address(uint160(_positionDetail.listenerId))).name(),\n\t\t\t_positionDetail.listenerId,\n\t\t\tTAO(address(uint160(_positionDetail.speakerId))).name(),\n\t\t\t_positionDetail.speakerId\n\t\t);\n\t}\n\n\t/**\n\t * @dev Get Name/TAO's Advocate\n\t * @param _id The ID of the Name/TAO\n\t * @return the Advocate ID of Name/TAO\n\t */\n\tfunction getAdvocate(address _id) external view returns (address) {\n\t\trequire (isExist(_id));\n\t\tPositionDetail memory _positionDetail = positionDetails[_id];\n\t\treturn _positionDetail.advocateId;\n\t}\n\n\t/**\n\t * @dev Get Name/TAO's Listener\n\t * @param _id The ID of the Name/TAO\n\t * @return the Listener ID of Name/TAO\n\t */\n\tfunction getListener(address _id) public view returns (address) {\n\t\trequire (isExist(_id));\n\t\tPositionDetail memory _positionDetail = positionDetails[_id];\n\t\treturn _positionDetail.listenerId;\n\t}\n\n\t/**\n\t * @dev Get Name/TAO's Speaker\n\t * @param _id The ID of the Name/TAO\n\t * @return the Speaker ID of Name/TAO\n\t */\n\tfunction getSpeaker(address _id) public view returns (address) {\n\t\trequire (isExist(_id));\n\t\tPositionDetail memory _positionDetail = positionDetails[_id];\n\t\treturn _positionDetail.speakerId;\n\t}\n\n\t/**\n\t * @dev Set Advocate for a TAO\n\t * @param _taoId The ID of the TAO\n\t * @param _newAdvocateId The new advocate ID to be set\n\t */\n\tfunction setAdvocate(address _taoId, address _newAdvocateId)\n\t\tpublic\n\t\tisTAO(_taoId)\n\t\tisName(_newAdvocateId)\n\t\tonlyAdvocate(_taoId)\n\t\tsenderIsName\n\t\tsenderNameNotCompromised {\n\t\trequire (isExist(_taoId));\n\t\t// Make sure the newAdvocate is not compromised\n\t\trequire (!_nameAccountRecovery.isCompromised(_newAdvocateId));\n\t\t_setAdvocate(_taoId, _newAdvocateId);\n\t}\n\n\t/**\n\t * Only Advocate of Parent of `_taoId` can replace child `_taoId` 's Advocate with himself\n\t * @param _taoId The ID of the TAO\n\t */\n\tfunction parentReplaceChildAdvocate(address _taoId)\n\t\tpublic\n\t\tisTAO(_taoId)\n\t\tsenderIsName\n\t\tsenderNameNotCompromised {\n\t\trequire (isExist(_taoId));\n\t\trequire (senderIsAdvocateOfParent(msg.sender, _taoId));\n\t\taddress _parentNameId = _nameFactory.ethAddressToNameId(msg.sender);\n\t\taddress _currentAdvocateId = this.getAdvocate(_taoId);\n\n\t\t// Make sure it's not replacing itself\n\t\trequire (_parentNameId != _currentAdvocateId);\n\n\t\t// Parent has to have more Logos than current Advocate\n\t\trequire (_logos.sumBalanceOf(_parentNameId) > _logos.sumBalanceOf(this.getAdvocate(_taoId)));\n\n\t\t_setAdvocate(_taoId, _parentNameId);\n\t}\n\n\t/**\n\t * A Name challenges current TAO's Advocate to be its new Advocate\n\t * @param _taoId The ID of the TAO\n\t */\n\tfunction challengeTAOAdvocate(address _taoId)\n\t\tpublic\n\t\tisTAO(_taoId)\n\t\tsenderIsName\n\t\tsenderNameNotCompromised {\n\t\trequire (isExist(_taoId));\n\t\taddress _newAdvocateId = _nameFactory.ethAddressToNameId(msg.sender);\n\t\taddress _currentAdvocateId = this.getAdvocate(_taoId);\n\n\t\t// Make sure it's not challenging itself\n\t\trequire (_newAdvocateId != _currentAdvocateId);\n\n\t\t// New Advocate has to have more Logos than current Advocate\n\t\trequire (_logos.sumBalanceOf(_newAdvocateId) > _logos.sumBalanceOf(_currentAdvocateId));\n\n\t\t(uint256 _lockDuration, uint256 _completeDuration) = _getSettingVariables();\n\n\t\ttotalTAOAdvocateChallenges++;\n\t\tbytes32 _challengeId = keccak256(abi.encodePacked(this, _taoId, _newAdvocateId, totalTAOAdvocateChallenges));\n\t\tTAOAdvocateChallenge storage _taoAdvocateChallenge = taoAdvocateChallenges[_challengeId];\n\t\t_taoAdvocateChallenge.challengeId = _challengeId;\n\t\t_taoAdvocateChallenge.newAdvocateId = _newAdvocateId;\n\t\t_taoAdvocateChallenge.taoId = _taoId;\n\t\t_taoAdvocateChallenge.createdTimestamp = now;\n\t\t_taoAdvocateChallenge.lockedUntilTimestamp = _taoAdvocateChallenge.createdTimestamp.add(_lockDuration);\n\t\t_taoAdvocateChallenge.completeBeforeTimestamp = _taoAdvocateChallenge.lockedUntilTimestamp.add(_completeDuration);\n\n\t\temit ChallengeTAOAdvocate(_taoId, _challengeId, _currentAdvocateId, _newAdvocateId, _taoAdvocateChallenge.createdTimestamp, _taoAdvocateChallenge.lockedUntilTimestamp, _taoAdvocateChallenge.completeBeforeTimestamp);\n\t}\n\n\t/**\n\t * Get status of a TAOAdvocateChallenge given a `_challengeId` and a `_sender` eth address\n\t * @param _challengeId The ID of TAOAdvocateChallenge\n\t * @param _sender The sender address\n\t * @return status of the challenge\n\t *\t\t1 = Can complete challenge\n\t *\t\t2 = Challenge not exist\n\t *\t\t3 = Sender is not the creator of the challenge\n\t *\t\t4 = Transaction is not in the allowed period of time\n\t *\t\t5 = Challenge has been completed\n\t *\t\t6 = Challenger has less Logos than current Advocate of TAO\n\t */\n\tfunction getChallengeStatus(bytes32 _challengeId, address _sender) public view returns (uint8) {\n\t\taddress _challengerNameId = _nameFactory.ethAddressToNameId(_sender);\n\t\tTAOAdvocateChallenge storage _taoAdvocateChallenge = taoAdvocateChallenges[_challengeId];\n\n\t\t// If the challenge does not exist\n\t\tif (_taoAdvocateChallenge.taoId == address(0)) {\n\t\t\treturn 2;\n\t\t} else if (_challengerNameId != _taoAdvocateChallenge.newAdvocateId) {\n\t\t\t// If the calling address is not the creator of the challenge\n\t\t\treturn 3;\n\t\t} else if (now < _taoAdvocateChallenge.lockedUntilTimestamp || now > _taoAdvocateChallenge.completeBeforeTimestamp) {\n\t\t\t// If this transaction is not in the allowed period of time\n\t\t\treturn 4;\n\t\t} else if (_taoAdvocateChallenge.completed) {\n\t\t\t// If the challenge has been completed\n\t\t\treturn 5;\n\t\t} else if (_logos.sumBalanceOf(_challengerNameId) <= _logos.sumBalanceOf(this.getAdvocate(_taoAdvocateChallenge.taoId))) {\n\t\t\t// If challenger has less Logos than current Advocate of TAO\n\t\t\treturn 6;\n\t\t} else {\n\t\t\t// Can complete!\n\t\t\treturn 1;\n\t\t}\n\t}\n\n\t/**\n\t * Only owner of challenge can respond and complete of the challenge\n\t * @param _challengeId The ID of the TAOAdvocateChallenge\n\t */\n\tfunction completeTAOAdvocateChallenge(bytes32 _challengeId)\n\t\tpublic\n\t\tsenderIsName\n\t\tsenderNameNotCompromised {\n\t\tTAOAdvocateChallenge storage _taoAdvocateChallenge = taoAdvocateChallenges[_challengeId];\n\n\t\t// Make sure the challenger can complete this challenge\n\t\trequire (getChallengeStatus(_challengeId, msg.sender) == 1);\n\n\t\t_taoAdvocateChallenge.completed = true;\n\n\t\t_setAdvocate(_taoAdvocateChallenge.taoId, _taoAdvocateChallenge.newAdvocateId);\n\n\t\temit CompleteTAOAdvocateChallenge(_taoAdvocateChallenge.taoId, _challengeId);\n\t}\n\n\t/**\n\t * @dev Get TAOAdvocateChallenge info given an ID\n\t * @param _challengeId The ID of TAOAdvocateChallenge\n\t * @return the new Advocate ID in the challenge\n\t * @return the ID of Name/TAO\n\t * @return the completion status of the challenge\n\t * @return the created timestamp\n\t * @return the lockedUntil timestamp (The deadline for current Advocate to respond)\n\t * @return the completeBefore timestamp (The deadline for the challenger to respond and complete the challenge)\n\t */\n\tfunction getTAOAdvocateChallengeById(bytes32 _challengeId) public view returns (address, address, bool, uint256, uint256, uint256) {\n\t\tTAOAdvocateChallenge memory _taoAdvocateChallenge = taoAdvocateChallenges[_challengeId];\n\t\trequire (_taoAdvocateChallenge.taoId != address(0));\n\t\treturn (\n\t\t\t_taoAdvocateChallenge.newAdvocateId,\n\t\t\t_taoAdvocateChallenge.taoId,\n\t\t\t_taoAdvocateChallenge.completed,\n\t\t\t_taoAdvocateChallenge.createdTimestamp,\n\t\t\t_taoAdvocateChallenge.lockedUntilTimestamp,\n\t\t\t_taoAdvocateChallenge.completeBeforeTimestamp\n\t\t);\n\t}\n\n\t/**\n\t * @dev Set Listener for a Name/TAO\n\t * @param _id The ID of the Name/TAO\n\t * @param _newListenerId The new listener ID to be set\n\t */\n\tfunction setListener(address _id, address _newListenerId)\n\t\tpublic\n\t\tisNameOrTAO(_id)\n\t\tisNameOrTAO(_newListenerId)\n\t\tsenderIsName\n\t\tsenderNameNotCompromised\n\t\tonlyAdvocate(_id) {\n\t\trequire (isExist(_id));\n\n\t\t// If _id is a Name, then new Listener can only be a Name\n\t\t// If _id is a TAO, then new Listener can be a TAO/Name\n\t\tbool _isName = false;\n\t\tif (AOLibrary.isName(_id)) {\n\t\t\t_isName = true;\n\t\t\trequire (AOLibrary.isName(_newListenerId));\n\t\t\trequire (!_nameAccountRecovery.isCompromised(_id));\n\t\t\trequire (!_nameAccountRecovery.isCompromised(_newListenerId));\n\t\t}\n\n\t\tPositionDetail storage _positionDetail = positionDetails[_id];\n\t\taddress _currentListenerId = _positionDetail.listenerId;\n\t\t_positionDetail.listenerId = _newListenerId;\n\n\t\tuint256 _nonce;\n\t\tif (_isName) {\n\t\t\t_nonce = _nameFactory.incrementNonce(_id);\n\t\t} else {\n\t\t\t_nonce = _taoFactory.incrementNonce(_id);\n\t\t}\n\t\temit SetListener(_id, _currentListenerId, _positionDetail.listenerId, _nonce);\n\t}\n\n\t/**\n\t * @dev Set Speaker for a Name/TAO\n\t * @param _id The ID of the Name/TAO\n\t * @param _newSpeakerId The new speaker ID to be set\n\t */\n\tfunction setSpeaker(address _id, address _newSpeakerId)\n\t\tpublic\n\t\tisNameOrTAO(_id)\n\t\tisNameOrTAO(_newSpeakerId)\n\t\tsenderIsName\n\t\tsenderNameNotCompromised\n\t\tonlyAdvocate(_id) {\n\t\trequire (isExist(_id));\n\n\t\t// If _id is a Name, then new Speaker can only be a Name\n\t\t// If _id is a TAO, then new Speaker can be a TAO/Name\n\t\tbool _isName = false;\n\t\tif (AOLibrary.isName(_id)) {\n\t\t\t_isName = true;\n\t\t\trequire (AOLibrary.isName(_newSpeakerId));\n\t\t\trequire (!_nameAccountRecovery.isCompromised(_id));\n\t\t\trequire (!_nameAccountRecovery.isCompromised(_newSpeakerId));\n\t\t}\n\n\t\tPositionDetail storage _positionDetail = positionDetails[_id];\n\t\taddress _currentSpeakerId = _positionDetail.speakerId;\n\t\t_positionDetail.speakerId = _newSpeakerId;\n\n\t\tuint256 _nonce;\n\t\tif (_isName) {\n\t\t\t_nonce = _nameFactory.incrementNonce(_id);\n\t\t} else {\n\t\t\t_nonce = _taoFactory.incrementNonce(_id);\n\t\t}\n\t\temit SetSpeaker(_id, _currentSpeakerId, _positionDetail.speakerId, _nonce);\n\t}\n\n\t/***** INTERNAL METHOD *****/\n\t/**\n\t * @dev Actually setting Advocate for a TAO\n\t * @param _taoId The ID of the TAO\n\t * @param _newAdvocateId The new advocate ID to be set\n\t */\n\tfunction _setAdvocate(address _taoId, address _newAdvocateId) internal {\n\t\tPositionDetail storage _positionDetail = positionDetails[_taoId];\n\t\taddress _currentAdvocateId = _positionDetail.advocateId;\n\t\t_positionDetail.advocateId = _newAdvocateId;\n\n\t\tuint256 _nonce = _taoFactory.incrementNonce(_taoId);\n\t\trequire (_nonce > 0);\n\n\t\t// Transfer Advocated TAO Logos to the new Advocate\n\t\trequire (_logos.transferAdvocatedTAOLogos(_currentAdvocateId, _taoId));\n\n\t\temit SetAdvocate(_taoId, _currentAdvocateId, _positionDetail.advocateId, _nonce);\n\t}\n\n\t/**\n\t * @dev Get setting variables\n\t * @return challengeTAOAdvocateLockDuration = The amount of time for current Advocate to respond to TAO Advocate challenge from another Name\n\t * @return challengeTAOAdvocateCompleteDuration = The amount of time for challenger Advocate to respond and complete the challenge after the lock period ends\n\t */\n\tfunction _getSettingVariables() internal view returns (uint256, uint256) {\n\t\t(uint256 challengeTAOAdvocateLockDuration,,,,) = _aoSetting.getSettingValuesByTAOName(settingTAOId, 'challengeTAOAdvocateLockDuration');\n\t\t(uint256 challengeTAOAdvocateCompleteDuration,,,,) = _aoSetting.getSettingValuesByTAOName(settingTAOId, 'challengeTAOAdvocateCompleteDuration');\n\n\t\treturn (\n\t\t\tchallengeTAOAdvocateLockDuration,\n\t\t\tchallengeTAOAdvocateCompleteDuration\n\t\t);\n\t}\n}\n",
  "sourcePath": "/usr/local/ao-contracts/contracts/NameTAOPosition.sol",
  "compiler": {
    "name": "solc",
    "version": "0.5.6+commit.b259423e.Emscripten.clang"
  },
  "schemaVersion": "3.0.2",
  "updatedAt": "2019-03-26T16:54:31.473Z",
  "devdoc": {
    "methods": {
      "challengeTAOAdvocate(address)": {
        "params": {
          "_taoId": "The ID of the TAO"
        }
      },
      "completeTAOAdvocateChallenge(bytes32)": {
        "params": {
          "_challengeId": "The ID of the TAOAdvocateChallenge"
        }
      },
      "constructor": {
        "details": "Constructor function"
      },
      "determinePosition(address,address)": {
        "details": "Determine whether or not `_sender` is Advocate/Listener/Speaker of the Name/TAO",
        "params": {
          "_id": "The ID of the Name/TAO",
          "_sender": "The ETH address that to check"
        },
        "return": "1 if Advocate. 2 if Listener. 3 if Speaker"
      },
      "getAdvocate(address)": {
        "details": "Get Name/TAO's Advocate",
        "params": {
          "_id": "The ID of the Name/TAO"
        },
        "return": "the Advocate ID of Name/TAO"
      },
      "getChallengeStatus(bytes32,address)": {
        "params": {
          "_challengeId": "The ID of TAOAdvocateChallenge",
          "_sender": "The sender address"
        },
        "return": "status of the challenge\t1 = Can complete challenge\t2 = Challenge not exist\t3 = Sender is not the creator of the challenge\t4 = Transaction is not in the allowed period of time\t5 = Challenge has been completed\t6 = Challenger has less Logos than current Advocate of TAO"
      },
      "getListener(address)": {
        "details": "Get Name/TAO's Listener",
        "params": {
          "_id": "The ID of the Name/TAO"
        },
        "return": "the Listener ID of Name/TAO"
      },
      "getPositionById(address)": {
        "details": "Get Name/TAO's Position info",
        "params": {
          "_id": "The ID of the Name/TAO"
        },
        "return": "the Advocate namethe Advocate ID of Name/TAOthe Listener namethe Listener ID of Name/TAOthe Speaker namethe Speaker ID of Name/TAO"
      },
      "getSpeaker(address)": {
        "details": "Get Name/TAO's Speaker",
        "params": {
          "_id": "The ID of the Name/TAO"
        },
        "return": "the Speaker ID of Name/TAO"
      },
      "getTAOAdvocateChallengeById(bytes32)": {
        "details": "Get TAOAdvocateChallenge info given an ID",
        "params": {
          "_challengeId": "The ID of TAOAdvocateChallenge"
        },
        "return": "the new Advocate ID in the challengethe ID of Name/TAOthe completion status of the challengethe created timestampthe lockedUntil timestamp (The deadline for current Advocate to respond)the completeBefore timestamp (The deadline for the challenger to respond and complete the challenge)"
      },
      "initialize(address,address,address,address)": {
        "details": "Initialize Position for a Name/TAO",
        "params": {
          "_advocateId": "The Advocate ID of the Name/TAO",
          "_id": "The ID of the Name/TAO",
          "_listenerId": "The Listener ID of the Name/TAO",
          "_speakerId": "The Speaker ID of the Name/TAO"
        },
        "return": "true on success"
      },
      "isExist(address)": {
        "details": "Check whether or not a Name/TAO ID exist in the list",
        "params": {
          "_id": "The ID to be checked"
        },
        "return": "true if yes, false otherwise"
      },
      "nameIsAdvocate(address,address)": {
        "details": "Check whether or not _nameId is advocate of _id",
        "params": {
          "_id": "The ID to be checked",
          "_nameId": "The name ID to be checked"
        },
        "return": "true if yes, false otherwise"
      },
      "parentReplaceChildAdvocate(address)": {
        "params": {
          "_taoId": "The ID of the TAO"
        }
      },
      "senderIsAdvocate(address,address)": {
        "details": "Check whether or not `_sender` eth address is Advocate of _id",
        "params": {
          "_id": "The ID to be checked",
          "_sender": "The eth address to check"
        },
        "return": "true if yes, false otherwise"
      },
      "senderIsAdvocateOfParent(address,address)": {
        "details": "Check whether or not `_sender` eth address is Advocate of Parent of _id",
        "params": {
          "_id": "The ID to be checked",
          "_sender": "The eth address to check"
        },
        "return": "true if yes, false otherwise"
      },
      "senderIsListener(address,address)": {
        "details": "Check whether or not `_sender` eth address is Listener of _id",
        "params": {
          "_id": "The ID to be checked",
          "_sender": "The eth address to check"
        },
        "return": "true if yes, false otherwise"
      },
      "senderIsPosition(address,address)": {
        "details": "Check whether or not eth address is either Advocate/Listener/Speaker of _id",
        "params": {
          "_id": "The ID to be checked",
          "_sender": "The eth address to check"
        },
        "return": "true if yes, false otherwise"
      },
      "senderIsSpeaker(address,address)": {
        "details": "Check whether or not `_sender` eth address is Speaker of _id",
        "params": {
          "_id": "The ID to be checked",
          "_sender": "The eth address to check"
        },
        "return": "true if yes, false otherwise"
      },
      "setAOSettingAddress(address)": {
        "details": "The AO sets AO Setting address",
        "params": {
          "_aoSettingAddress": "The address of AOSetting"
        }
      },
      "setAdvocate(address,address)": {
        "details": "Set Advocate for a TAO",
        "params": {
          "_newAdvocateId": "The new advocate ID to be set",
          "_taoId": "The ID of the TAO"
        }
      },
      "setListener(address,address)": {
        "details": "Set Listener for a Name/TAO",
        "params": {
          "_id": "The ID of the Name/TAO",
          "_newListenerId": "The new listener ID to be set"
        }
      },
      "setLogosAddress(address)": {
        "details": "The AO set the logosAddress Address",
        "params": {
          "_logosAddress": "The address of Logos"
        }
      },
      "setNameAccountRecoveryAddress(address)": {
        "details": "The AO set the NameAccountRecovery Address",
        "params": {
          "_nameAccountRecoveryAddress": "The address of NameAccountRecovery"
        }
      },
      "setNameFactoryAddress(address)": {
        "details": "The AO set the NameFactory Address",
        "params": {
          "_nameFactoryAddress": "The address of NameFactory"
        }
      },
      "setSettingTAOId(address)": {
        "details": "The AO sets setting TAO ID",
        "params": {
          "_settingTAOId": "The new setting TAO ID to set"
        }
      },
      "setSpeaker(address,address)": {
        "details": "Set Speaker for a Name/TAO",
        "params": {
          "_id": "The ID of the Name/TAO",
          "_newSpeakerId": "The new speaker ID to be set"
        }
      },
      "setTAOAncestryAddress(address)": {
        "details": "The AO set the TAOAncestry Address",
        "params": {
          "_taoAncestryAddress": "The address of TAOAncestry"
        }
      },
      "setTAOFactoryAddress(address)": {
        "details": "The AO set the TAOFactory Address",
        "params": {
          "_taoFactoryAddress": "The address of TAOFactory"
        }
      },
      "setWhitelist(address,bool)": {
        "details": "Whitelist `_account` address to transact on behalf of others",
        "params": {
          "_account": "The address to whitelist",
          "_whitelist": "Either to whitelist or not"
        }
      },
      "transferOwnership(address)": {
        "details": "Transfer ownership of The AO to new address",
        "params": {
          "_theAO": "The new address to be transferred"
        }
      }
    },
    "title": "NameTAOPosition"
  },
  "userdoc": {
    "methods": {
      "challengeTAOAdvocate(address)": {
        "notice": "A Name challenges current TAO's Advocate to be its new Advocate"
      },
      "completeTAOAdvocateChallenge(bytes32)": {
        "notice": "Only owner of challenge can respond and complete of the challenge"
      },
      "getChallengeStatus(bytes32,address)": {
        "notice": "Get status of a TAOAdvocateChallenge given a `_challengeId` and a `_sender` eth address"
      },
      "parentReplaceChildAdvocate(address)": {
        "notice": "Only Advocate of Parent of `_taoId` can replace child `_taoId` 's Advocate with himself"
      }
    }
  }
}