{
	"contractName": "NameTAOVault",
	"abi": [
		{
			"constant": true,
			"inputs": [],
			"name": "aoIonAddress",
			"outputs": [
				{
					"name": "",
					"type": "address"
				}
			],
			"payable": false,
			"stateMutability": "view",
			"type": "function"
		},
		{
			"constant": true,
			"inputs": [],
			"name": "nameTAOPositionAddress",
			"outputs": [
				{
					"name": "",
					"type": "address"
				}
			],
			"payable": false,
			"stateMutability": "view",
			"type": "function"
		},
		{
			"constant": true,
			"inputs": [
				{
					"name": "",
					"type": "address"
				}
			],
			"name": "whitelist",
			"outputs": [
				{
					"name": "",
					"type": "bool"
				}
			],
			"payable": false,
			"stateMutability": "view",
			"type": "function"
		},
		{
			"constant": true,
			"inputs": [],
			"name": "nameAccountRecoveryAddress",
			"outputs": [
				{
					"name": "",
					"type": "address"
				}
			],
			"payable": false,
			"stateMutability": "view",
			"type": "function"
		},
		{
			"constant": true,
			"inputs": [],
			"name": "theAO",
			"outputs": [
				{
					"name": "",
					"type": "address"
				}
			],
			"payable": false,
			"stateMutability": "view",
			"type": "function"
		},
		{
			"constant": true,
			"inputs": [],
			"name": "nameFactoryAddress",
			"outputs": [
				{
					"name": "",
					"type": "address"
				}
			],
			"payable": false,
			"stateMutability": "view",
			"type": "function"
		},
		{
			"inputs": [
				{
					"name": "_nameFactoryAddress",
					"type": "address"
				},
				{
					"name": "_nameTAOPositionAddress",
					"type": "address"
				}
			],
			"payable": false,
			"stateMutability": "nonpayable",
			"type": "constructor"
		},
		{
			"anonymous": false,
			"inputs": [
				{
					"indexed": true,
					"name": "advocateId",
					"type": "address"
				},
				{
					"indexed": false,
					"name": "from",
					"type": "address"
				},
				{
					"indexed": false,
					"name": "to",
					"type": "address"
				},
				{
					"indexed": false,
					"name": "amount",
					"type": "uint256"
				}
			],
			"name": "TransferEth",
			"type": "event"
		},
		{
			"anonymous": false,
			"inputs": [
				{
					"indexed": true,
					"name": "advocateId",
					"type": "address"
				},
				{
					"indexed": false,
					"name": "from",
					"type": "address"
				},
				{
					"indexed": false,
					"name": "to",
					"type": "address"
				},
				{
					"indexed": false,
					"name": "amount",
					"type": "uint256"
				},
				{
					"indexed": false,
					"name": "erc20TokenAddress",
					"type": "address"
				},
				{
					"indexed": false,
					"name": "erc20Name",
					"type": "string"
				},
				{
					"indexed": false,
					"name": "erc20Symbol",
					"type": "string"
				}
			],
			"name": "TransferERC20",
			"type": "event"
		},
		{
			"anonymous": false,
			"inputs": [
				{
					"indexed": true,
					"name": "advocateId",
					"type": "address"
				},
				{
					"indexed": false,
					"name": "from",
					"type": "address"
				},
				{
					"indexed": false,
					"name": "to",
					"type": "address"
				},
				{
					"indexed": false,
					"name": "amount",
					"type": "uint256"
				}
			],
			"name": "TransferAO",
			"type": "event"
		},
		{
			"anonymous": false,
			"inputs": [
				{
					"indexed": true,
					"name": "advocateId",
					"type": "address"
				},
				{
					"indexed": false,
					"name": "from",
					"type": "address"
				},
				{
					"indexed": false,
					"name": "to",
					"type": "address"
				},
				{
					"indexed": false,
					"name": "amount",
					"type": "uint256"
				}
			],
			"name": "TransferPrimordialAO",
			"type": "event"
		},
		{
			"constant": false,
			"inputs": [
				{
					"name": "_theAO",
					"type": "address"
				}
			],
			"name": "transferOwnership",
			"outputs": [],
			"payable": false,
			"stateMutability": "nonpayable",
			"type": "function"
		},
		{
			"constant": false,
			"inputs": [
				{
					"name": "_account",
					"type": "address"
				},
				{
					"name": "_whitelist",
					"type": "bool"
				}
			],
			"name": "setWhitelist",
			"outputs": [],
			"payable": false,
			"stateMutability": "nonpayable",
			"type": "function"
		},
		{
			"constant": false,
			"inputs": [
				{
					"name": "_nameFactoryAddress",
					"type": "address"
				}
			],
			"name": "setNameFactoryAddress",
			"outputs": [],
			"payable": false,
			"stateMutability": "nonpayable",
			"type": "function"
		},
		{
			"constant": false,
			"inputs": [
				{
					"name": "_nameTAOPositionAddress",
					"type": "address"
				}
			],
			"name": "setNameTAOPositionAddress",
			"outputs": [],
			"payable": false,
			"stateMutability": "nonpayable",
			"type": "function"
		},
		{
			"constant": false,
			"inputs": [
				{
					"name": "_nameAccountRecoveryAddress",
					"type": "address"
				}
			],
			"name": "setNameAccountRecoveryAddress",
			"outputs": [],
			"payable": false,
			"stateMutability": "nonpayable",
			"type": "function"
		},
		{
			"constant": false,
			"inputs": [
				{
					"name": "_aoIonAddress",
					"type": "address"
				}
			],
			"name": "setAOIonAddress",
			"outputs": [],
			"payable": false,
			"stateMutability": "nonpayable",
			"type": "function"
		},
		{
			"constant": true,
			"inputs": [
				{
					"name": "_id",
					"type": "address"
				}
			],
			"name": "ethBalanceOf",
			"outputs": [
				{
					"name": "",
					"type": "uint256"
				}
			],
			"payable": false,
			"stateMutability": "view",
			"type": "function"
		},
		{
			"constant": true,
			"inputs": [
				{
					"name": "_erc20TokenAddress",
					"type": "address"
				},
				{
					"name": "_id",
					"type": "address"
				}
			],
			"name": "erc20BalanceOf",
			"outputs": [
				{
					"name": "",
					"type": "uint256"
				}
			],
			"payable": false,
			"stateMutability": "view",
			"type": "function"
		},
		{
			"constant": true,
			"inputs": [
				{
					"name": "_id",
					"type": "address"
				}
			],
			"name": "AOBalanceOf",
			"outputs": [
				{
					"name": "",
					"type": "uint256"
				}
			],
			"payable": false,
			"stateMutability": "view",
			"type": "function"
		},
		{
			"constant": true,
			"inputs": [
				{
					"name": "_id",
					"type": "address"
				}
			],
			"name": "primordialAOBalanceOf",
			"outputs": [
				{
					"name": "",
					"type": "uint256"
				}
			],
			"payable": false,
			"stateMutability": "view",
			"type": "function"
		},
		{
			"constant": false,
			"inputs": [
				{
					"name": "_from",
					"type": "address"
				},
				{
					"name": "_to",
					"type": "address"
				},
				{
					"name": "_amount",
					"type": "uint256"
				}
			],
			"name": "transferEth",
			"outputs": [],
			"payable": false,
			"stateMutability": "nonpayable",
			"type": "function"
		},
		{
			"constant": false,
			"inputs": [
				{
					"name": "_erc20TokenAddress",
					"type": "address"
				},
				{
					"name": "_from",
					"type": "address"
				},
				{
					"name": "_to",
					"type": "address"
				},
				{
					"name": "_amount",
					"type": "uint256"
				}
			],
			"name": "transferERC20",
			"outputs": [],
			"payable": false,
			"stateMutability": "nonpayable",
			"type": "function"
		},
		{
			"constant": false,
			"inputs": [
				{
					"name": "_from",
					"type": "address"
				},
				{
					"name": "_to",
					"type": "address"
				},
				{
					"name": "_amount",
					"type": "uint256"
				}
			],
			"name": "transferAO",
			"outputs": [],
			"payable": false,
			"stateMutability": "nonpayable",
			"type": "function"
		},
		{
			"constant": false,
			"inputs": [
				{
					"name": "_from",
					"type": "address"
				},
				{
					"name": "_to",
					"type": "address"
				},
				{
					"name": "_amount",
					"type": "uint256"
				}
			],
			"name": "transferPrimordialAO",
			"outputs": [],
			"payable": false,
			"stateMutability": "nonpayable",
			"type": "function"
		}
	],
	"bytecode": "0x60806040523480156200001157600080fd5b506040516040806200330a833981018060405260408110156200003357600080fd5b50805160209091015160008054600160a060020a0319163317905562000062826401000000006200007e810204565b620000768164010000000062000183810204565b505062000288565b600054600154604080517ff66afcac000000000000000000000000000000000000000000000000000000008152336004820152600160a060020a0393841660248201529290911660448301525173__AOLibrary_____________________________9163f66afcac916064808301926020929190829003018186803b1580156200010757600080fd5b505af41580156200011c573d6000803e3d6000fd5b505050506040513d60208110156200013357600080fd5b505115156200014157600080fd5b600160a060020a03811615156200015757600080fd5b60038054600160a060020a03909216600160a060020a0319928316811790915560068054909216179055565b600054600154604080517ff66afcac000000000000000000000000000000000000000000000000000000008152336004820152600160a060020a0393841660248201529290911660448301525173__AOLibrary_____________________________9163f66afcac916064808301926020929190829003018186803b1580156200020c57600080fd5b505af415801562000221573d6000803e3d6000fd5b505050506040513d60208110156200023857600080fd5b505115156200024657600080fd5b600160a060020a03811615156200025c57600080fd5b60018054600160a060020a03909216600160a060020a0319928316811790915560078054909216179055565b61307280620002986000396000f3fe608060405234801561001057600080fd5b50600436106101305760003560e060020a90048063a4e5fad2116100b1578063d765925d11610075578063d765925d14610345578063da3e8ce41461037b578063e1c6fb66146103b7578063f2fde38b146103e5578063f97106b51461040b57610130565b8063a4e5fad2146102d1578063a9b6b38e146102d9578063bc406206146102e1578063c5f98177146102e9578063ce6c91381461031f57610130565b80637252bbf2116100f85780637252bbf2146101dd57806380f3659c146102155780638c9243611461023b5780639937ae95146102615780639b19251a1461029757610130565b80631dfde2bd146101355780633c56b0111461015d5780634ef033f01461018157806353d6fd59146101895780635cfaf2ef146101b7575b600080fd5b61015b6004803603602081101561014b57600080fd5b5035600160a060020a0316610431565b005b61016561052b565b60408051600160a060020a039092168252519081900360200190f35b61016561053a565b61015b6004803603604081101561019f57600080fd5b50600160a060020a0381351690602001351515610549565b61015b600480360360208110156101cd57600080fd5b5035600160a060020a0316610632565b610203600480360360208110156101f357600080fd5b5035600160a060020a0316610729565b60408051918252519081900360200190f35b6102036004803603602081101561022b57600080fd5b5035600160a060020a0316610866565b61015b6004803603602081101561025157600080fd5b5035600160a060020a0316610a2d565b61015b6004803603606081101561027757600080fd5b50600160a060020a03813581169160208101359091169060400135610b24565b6102bd600480360360208110156102ad57600080fd5b5035600160a060020a0316611266565b604080519115158252519081900360200190f35b61016561127b565b61016561128a565b610165611299565b61015b600480360360608110156102ff57600080fd5b50600160a060020a038135811691602081013590911690604001356112a8565b6102036004803603602081101561033557600080fd5b5035600160a060020a03166119ea565b61015b6004803603606081101561035b57600080fd5b50600160a060020a03813581169160208101359091169060400135611b7e565b61015b6004803603608081101561039157600080fd5b50600160a060020a03813581169160208101358216916040820135169060600135612223565b610203600480360360408110156103cd57600080fd5b50600160a060020a0381358116916020013516612ca7565b61015b600480360360208110156103fb57600080fd5b5035600160a060020a0316612e62565b61015b6004803603602081101561042157600080fd5b5035600160a060020a0316612f4f565b6000546001546040805160e260020a633d9abf2b028152336004820152600160a060020a0393841660248201529290911660448301525173__AOLibrary_____________________________9163f66afcac916064808301926020929190829003018186803b1580156104a357600080fd5b505af41580156104b7573d6000803e3d6000fd5b505050506040513d60208110156104cd57600080fd5b505115156104da57600080fd5b600160a060020a03811615156104ef57600080fd5b6004805473ffffffffffffffffffffffffffffffffffffffff19908116600160a060020a03938416179182905560088054929093169116179055565b600554600160a060020a031681565b600154600160a060020a031681565b6000546001546040805160e260020a633d9abf2b028152336004820152600160a060020a0393841660248201529290911660448301525173__AOLibrary_____________________________9163f66afcac916064808301926020929190829003018186803b1580156105bb57600080fd5b505af41580156105cf573d6000803e3d6000fd5b505050506040513d60208110156105e557600080fd5b505115156105f257600080fd5b600160a060020a038216151561060757600080fd5b600160a060020a03919091166000908152600260205260409020805460ff1916911515919091179055565b6000546001546040805160e260020a633d9abf2b028152336004820152600160a060020a0393841660248201529290911660448301525173__AOLibrary_____________________________9163f66afcac916064808301926020929190829003018186803b1580156106a457600080fd5b505af41580156106b8573d6000803e3d6000fd5b505050506040513d60208110156106ce57600080fd5b505115156106db57600080fd5b600160a060020a03811615156106f057600080fd5b60018054600160a060020a0390921673ffffffffffffffffffffffffffffffffffffffff19928316811790915560078054909216179055565b60008173__AOLibrary_____________________________632d706a34826040518263ffffffff1660e060020a0281526004018082600160a060020a0316600160a060020a0316815260200191505060206040518083038186803b15801561079057600080fd5b505af41580156107a4573d6000803e3d6000fd5b505050506040513d60208110156107ba57600080fd5b50518061084c57506040805160e260020a630bf29505028152600160a060020a0383166004820152905173__AOLibrary_____________________________91632fca5414916024808301926020929190829003018186803b15801561081f57600080fd5b505af4158015610833573d6000803e3d6000fd5b505050506040513d602081101561084957600080fd5b50515b151561085757600080fd5b5050600160a060020a03163190565b60008173__AOLibrary_____________________________632d706a34826040518263ffffffff1660e060020a0281526004018082600160a060020a0316600160a060020a0316815260200191505060206040518083038186803b1580156108cd57600080fd5b505af41580156108e1573d6000803e3d6000fd5b505050506040513d60208110156108f757600080fd5b50518061098957506040805160e260020a630bf29505028152600160a060020a0383166004820152905173__AOLibrary_____________________________91632fca5414916024808301926020929190829003018186803b15801561095c57600080fd5b505af4158015610970573d6000803e3d6000fd5b505050506040513d602081101561098657600080fd5b50515b151561099457600080fd5b600954604080517f57946b8e000000000000000000000000000000000000000000000000000000008152600160a060020a038681166004830152915191909216916357946b8e916024808301926020929190829003018186803b1580156109fa57600080fd5b505afa158015610a0e573d6000803e3d6000fd5b505050506040513d6020811015610a2457600080fd5b50519392505050565b6000546001546040805160e260020a633d9abf2b028152336004820152600160a060020a0393841660248201529290911660448301525173__AOLibrary_____________________________9163f66afcac916064808301926020929190829003018186803b158015610a9f57600080fd5b505af4158015610ab3573d6000803e3d6000fd5b505050506040513d6020811015610ac957600080fd5b50511515610ad657600080fd5b600160a060020a0381161515610aeb57600080fd5b60038054600160a060020a0390921673ffffffffffffffffffffffffffffffffffffffff19928316811790915560068054909216179055565b8273__AOLibrary_____________________________632d706a34826040518263ffffffff1660e060020a0281526004018082600160a060020a0316600160a060020a0316815260200191505060206040518083038186803b158015610b8957600080fd5b505af4158015610b9d573d6000803e3d6000fd5b505050506040513d6020811015610bb357600080fd5b505180610c4557506040805160e260020a630bf29505028152600160a060020a0383166004820152905173__AOLibrary_____________________________91632fca5414916024808301926020929190829003018186803b158015610c1857600080fd5b505af4158015610c2c573d6000803e3d6000fd5b505050506040513d6020811015610c4257600080fd5b50515b1515610c5057600080fd5b6007546040805160e060020a6371ce52ed028152336004820152600160a060020a0380881660248301529151879392909216916371ce52ed91604480820192602092909190829003018186803b158015610ca957600080fd5b505afa158015610cbd573d6000803e3d6000fd5b505050506040513d6020811015610cd357600080fd5b50511515610ce057600080fd5b6008546006546040805160e060020a63029b7d530281523360048201529051600160a060020a0393841693633ebc2ab393169163029b7d53916024808301926020929190829003018186803b158015610d3857600080fd5b505afa158015610d4c573d6000803e3d6000fd5b505050506040513d6020811015610d6257600080fd5b50516040805160e060020a63ffffffff8516028152600160a060020a039092166004830152516024808301926020929190829003018186803b158015610da757600080fd5b505afa158015610dbb573d6000803e3d6000fd5b505050506040513d6020811015610dd157600080fd5b505115610ddd57600080fd5b600083118015610e805750600954604080517f70a08231000000000000000000000000000000000000000000000000000000008152600160a060020a0388811660048301529151869392909216916370a0823191602480820192602092909190829003018186803b158015610e5157600080fd5b505afa158015610e65573d6000803e3d6000fd5b505050506040513d6020811015610e7b57600080fd5b505110155b1515610e8b57600080fd5b600160a060020a03841615801590610eb5575083600160a060020a031685600160a060020a031614155b1515610ec057600080fd5b6006546040805160e260020a6338815cd1028152600160a060020a03888116600483015291516000939092169163e205734491602480820192602092909190829003018186803b158015610f1357600080fd5b505afa158015610f27573d6000803e3d6000fd5b505050506040513d6020811015610f3d57600080fd5b5051600160a060020a031614610fd3576008546040805160e060020a633ebc2ab3028152600160a060020a03888116600483015291519190921691633ebc2ab3916024808301926020929190829003018186803b158015610f9d57600080fd5b505afa158015610fb1573d6000803e3d6000fd5b505050506040513d6020811015610fc757600080fd5b505115610fd357600080fd5b6006546040805160e260020a6338815cd1028152600160a060020a03878116600483015291516000939092169163e205734491602480820192602092909190829003018186803b15801561102657600080fd5b505afa15801561103a573d6000803e3d6000fd5b505050506040513d602081101561105057600080fd5b5051600160a060020a0316146110e6576008546040805160e060020a633ebc2ab3028152600160a060020a03878116600483015291519190921691633ebc2ab3916024808301926020929190829003018186803b1580156110b057600080fd5b505afa1580156110c4573d6000803e3d6000fd5b505050506040513d60208110156110da57600080fd5b5051156110e657600080fd5b600954604080517fa144a3e0000000000000000000000000000000000000000000000000000000008152600160a060020a0388811660048301528781166024830152604482018790529151919092169163a144a3e09160648083019260209291908290030181600087803b15801561115d57600080fd5b505af1158015611171573d6000803e3d6000fd5b505050506040513d602081101561118757600080fd5b5051151561119457600080fd5b6006546040805160e060020a63029b7d530281523360048201529051600160a060020a039092169163029b7d5391602480820192602092909190829003018186803b1580156111e257600080fd5b505afa1580156111f6573d6000803e3d6000fd5b505050506040513d602081101561120c57600080fd5b505160408051600160a060020a0388811682528781166020830152818301879052915191909216917f658cf4630baa0314cfa2427dcb40dd2eb2fa2cb15dfa6b4fb9af7fb84a1eeefd919081900360600190a25050505050565b60026020526000908152604090205460ff1681565b600454600160a060020a031681565b600054600160a060020a031681565b600354600160a060020a031681565b8273__AOLibrary_____________________________632d706a34826040518263ffffffff1660e060020a0281526004018082600160a060020a0316600160a060020a0316815260200191505060206040518083038186803b15801561130d57600080fd5b505af4158015611321573d6000803e3d6000fd5b505050506040513d602081101561133757600080fd5b5051806113c957506040805160e260020a630bf29505028152600160a060020a0383166004820152905173__AOLibrary_____________________________91632fca5414916024808301926020929190829003018186803b15801561139c57600080fd5b505af41580156113b0573d6000803e3d6000fd5b505050506040513d60208110156113c657600080fd5b50515b15156113d457600080fd5b6007546040805160e060020a6371ce52ed028152336004820152600160a060020a0380881660248301529151879392909216916371ce52ed91604480820192602092909190829003018186803b15801561142d57600080fd5b505afa158015611441573d6000803e3d6000fd5b505050506040513d602081101561145757600080fd5b5051151561146457600080fd5b6008546006546040805160e060020a63029b7d530281523360048201529051600160a060020a0393841693633ebc2ab393169163029b7d53916024808301926020929190829003018186803b1580156114bc57600080fd5b505afa1580156114d0573d6000803e3d6000fd5b505050506040513d60208110156114e657600080fd5b50516040805160e060020a63ffffffff8516028152600160a060020a039092166004830152516024808301926020929190829003018186803b15801561152b57600080fd5b505afa15801561153f573d6000803e3d6000fd5b505050506040513d602081101561155557600080fd5b50511561156157600080fd5b6000831180156116045750600954604080517f57946b8e000000000000000000000000000000000000000000000000000000008152600160a060020a0388811660048301529151869392909216916357946b8e91602480820192602092909190829003018186803b1580156115d557600080fd5b505afa1580156115e9573d6000803e3d6000fd5b505050506040513d60208110156115ff57600080fd5b505110155b151561160f57600080fd5b600160a060020a03841615801590611639575083600160a060020a031685600160a060020a031614155b151561164457600080fd5b6006546040805160e260020a6338815cd1028152600160a060020a03888116600483015291516000939092169163e205734491602480820192602092909190829003018186803b15801561169757600080fd5b505afa1580156116ab573d6000803e3d6000fd5b505050506040513d60208110156116c157600080fd5b5051600160a060020a031614611757576008546040805160e060020a633ebc2ab3028152600160a060020a03888116600483015291519190921691633ebc2ab3916024808301926020929190829003018186803b15801561172157600080fd5b505afa158015611735573d6000803e3d6000fd5b505050506040513d602081101561174b57600080fd5b50511561175757600080fd5b6006546040805160e260020a6338815cd1028152600160a060020a03878116600483015291516000939092169163e205734491602480820192602092909190829003018186803b1580156117aa57600080fd5b505afa1580156117be573d6000803e3d6000fd5b505050506040513d60208110156117d457600080fd5b5051600160a060020a03161461186a576008546040805160e060020a633ebc2ab3028152600160a060020a03878116600483015291519190921691633ebc2ab3916024808301926020929190829003018186803b15801561183457600080fd5b505afa158015611848573d6000803e3d6000fd5b505050506040513d602081101561185e57600080fd5b50511561186a57600080fd5b600954604080517f9eeead7a000000000000000000000000000000000000000000000000000000008152600160a060020a03888116600483015287811660248301526044820187905291519190921691639eeead7a9160648083019260209291908290030181600087803b1580156118e157600080fd5b505af11580156118f5573d6000803e3d6000fd5b505050506040513d602081101561190b57600080fd5b5051151561191857600080fd5b6006546040805160e060020a63029b7d530281523360048201529051600160a060020a039092169163029b7d5391602480820192602092909190829003018186803b15801561196657600080fd5b505afa15801561197a573d6000803e3d6000fd5b505050506040513d602081101561199057600080fd5b505160408051600160a060020a0388811682528781166020830152818301879052915191909216917f18b5b019bd18c19ea9e68f05645b493bd5e0494f7f566a89b360ffc076423de9919081900360600190a25050505050565b60008173__AOLibrary_____________________________632d706a34826040518263ffffffff1660e060020a0281526004018082600160a060020a0316600160a060020a0316815260200191505060206040518083038186803b158015611a5157600080fd5b505af4158015611a65573d6000803e3d6000fd5b505050506040513d6020811015611a7b57600080fd5b505180611b0d57506040805160e260020a630bf29505028152600160a060020a0383166004820152905173__AOLibrary_____________________________91632fca5414916024808301926020929190829003018186803b158015611ae057600080fd5b505af4158015611af4573d6000803e3d6000fd5b505050506040513d6020811015611b0a57600080fd5b50515b1515611b1857600080fd5b600954604080517f70a08231000000000000000000000000000000000000000000000000000000008152600160a060020a038681166004830152915191909216916370a08231916024808301926020929190829003018186803b1580156109fa57600080fd5b8273__AOLibrary_____________________________632d706a34826040518263ffffffff1660e060020a0281526004018082600160a060020a0316600160a060020a0316815260200191505060206040518083038186803b158015611be357600080fd5b505af4158015611bf7573d6000803e3d6000fd5b505050506040513d6020811015611c0d57600080fd5b505180611c9f57506040805160e260020a630bf29505028152600160a060020a0383166004820152905173__AOLibrary_____________________________91632fca5414916024808301926020929190829003018186803b158015611c7257600080fd5b505af4158015611c86573d6000803e3d6000fd5b505050506040513d6020811015611c9c57600080fd5b50515b1515611caa57600080fd5b6007546040805160e060020a6371ce52ed028152336004820152600160a060020a0380881660248301529151879392909216916371ce52ed91604480820192602092909190829003018186803b158015611d0357600080fd5b505afa158015611d17573d6000803e3d6000fd5b505050506040513d6020811015611d2d57600080fd5b50511515611d3a57600080fd5b6008546006546040805160e060020a63029b7d530281523360048201529051600160a060020a0393841693633ebc2ab393169163029b7d53916024808301926020929190829003018186803b158015611d9257600080fd5b505afa158015611da6573d6000803e3d6000fd5b505050506040513d6020811015611dbc57600080fd5b50516040805160e060020a63ffffffff8516028152600160a060020a039092166004830152516024808301926020929190829003018186803b158015611e0157600080fd5b505afa158015611e15573d6000803e3d6000fd5b505050506040513d6020811015611e2b57600080fd5b505115611e3757600080fd5b600083118015611e5157508285600160a060020a03163110155b1515611e5c57600080fd5b600160a060020a03841615801590611e86575083600160a060020a031685600160a060020a031614155b1515611e9157600080fd5b6006546040805160e260020a6338815cd1028152600160a060020a03888116600483015291516000939092169163e205734491602480820192602092909190829003018186803b158015611ee457600080fd5b505afa158015611ef8573d6000803e3d6000fd5b505050506040513d6020811015611f0e57600080fd5b5051600160a060020a031614611fa4576008546040805160e060020a633ebc2ab3028152600160a060020a03888116600483015291519190921691633ebc2ab3916024808301926020929190829003018186803b158015611f6e57600080fd5b505afa158015611f82573d6000803e3d6000fd5b505050506040513d6020811015611f9857600080fd5b505115611fa457600080fd5b6006546040805160e260020a6338815cd1028152600160a060020a03878116600483015291516000939092169163e205734491602480820192602092909190829003018186803b158015611ff757600080fd5b505afa15801561200b573d6000803e3d6000fd5b505050506040513d602081101561202157600080fd5b5051600160a060020a0316146120b7576008546040805160e060020a633ebc2ab3028152600160a060020a03878116600483015291519190921691633ebc2ab3916024808301926020929190829003018186803b15801561208157600080fd5b505afa158015612095573d6000803e3d6000fd5b505050506040513d60208110156120ab57600080fd5b5051156120b757600080fd5b84600160a060020a031663e9bb84c285856040518363ffffffff1660e060020a0281526004018083600160a060020a0316600160a060020a0316815260200182815260200192505050602060405180830381600087803b15801561211a57600080fd5b505af115801561212e573d6000803e3d6000fd5b505050506040513d602081101561214457600080fd5b5051151561215157600080fd5b6006546040805160e060020a63029b7d530281523360048201529051600160a060020a039092169163029b7d5391602480820192602092909190829003018186803b15801561219f57600080fd5b505afa1580156121b3573d6000803e3d6000fd5b505050506040513d60208110156121c957600080fd5b505160408051600160a060020a0388811682528781166020830152818301879052915191909216917f465b2f4afe4365933cc5ead3aec00111a21a453e8d71bf1453b1d59ff4693081919081900360600190a25050505050565b8273__AOLibrary_____________________________632d706a34826040518263ffffffff1660e060020a0281526004018082600160a060020a0316600160a060020a0316815260200191505060206040518083038186803b15801561228857600080fd5b505af415801561229c573d6000803e3d6000fd5b505050506040513d60208110156122b257600080fd5b50518061234457506040805160e260020a630bf29505028152600160a060020a0383166004820152905173__AOLibrary_____________________________91632fca5414916024808301926020929190829003018186803b15801561231757600080fd5b505af415801561232b573d6000803e3d6000fd5b505050506040513d602081101561234157600080fd5b50515b151561234f57600080fd5b6007546040805160e060020a6371ce52ed028152336004820152600160a060020a0380881660248301529151879392909216916371ce52ed91604480820192602092909190829003018186803b1580156123a857600080fd5b505afa1580156123bc573d6000803e3d6000fd5b505050506040513d60208110156123d257600080fd5b505115156123df57600080fd5b6008546006546040805160e060020a63029b7d530281523360048201529051600160a060020a0393841693633ebc2ab393169163029b7d53916024808301926020929190829003018186803b15801561243757600080fd5b505afa15801561244b573d6000803e3d6000fd5b505050506040513d602081101561246157600080fd5b50516040805160e060020a63ffffffff8516028152600160a060020a039092166004830152516024808301926020929190829003018186803b1580156124a657600080fd5b505afa1580156124ba573d6000803e3d6000fd5b505050506040513d60208110156124d057600080fd5b5051156124dc57600080fd5b604080517f2b439a94000000000000000000000000000000000000000000000000000000008152600160a060020a0388166004820152905173__AOLibrary_____________________________91632b439a94916024808301926020929190829003018186803b15801561254f57600080fd5b505af4158015612563573d6000803e3d6000fd5b505050506040513d602081101561257957600080fd5b5051151561258657600080fd5b8560008411801561261b57508381600160a060020a03166370a08231886040518263ffffffff1660e060020a0281526004018082600160a060020a0316600160a060020a0316815260200191505060206040518083038186803b1580156125ec57600080fd5b505afa158015612600573d6000803e3d6000fd5b505050506040513d602081101561261657600080fd5b505110155b151561262657600080fd5b600160a060020a03851615801590612650575084600160a060020a031686600160a060020a031614155b151561265b57600080fd5b6006546040805160e260020a6338815cd1028152600160a060020a03898116600483015291516000939092169163e205734491602480820192602092909190829003018186803b1580156126ae57600080fd5b505afa1580156126c2573d6000803e3d6000fd5b505050506040513d60208110156126d857600080fd5b5051600160a060020a03161461276e576008546040805160e060020a633ebc2ab3028152600160a060020a03898116600483015291519190921691633ebc2ab3916024808301926020929190829003018186803b15801561273857600080fd5b505afa15801561274c573d6000803e3d6000fd5b505050506040513d602081101561276257600080fd5b50511561276e57600080fd5b6006546040805160e260020a6338815cd1028152600160a060020a03888116600483015291516000939092169163e205734491602480820192602092909190829003018186803b1580156127c157600080fd5b505afa1580156127d5573d6000803e3d6000fd5b505050506040513d60208110156127eb57600080fd5b5051600160a060020a031614612881576008546040805160e060020a633ebc2ab3028152600160a060020a03888116600483015291519190921691633ebc2ab3916024808301926020929190829003018186803b15801561284b57600080fd5b505afa15801561285f573d6000803e3d6000fd5b505050506040513d602081101561287557600080fd5b50511561288157600080fd5b604080517f9db5dbe4000000000000000000000000000000000000000000000000000000008152600160a060020a038981166004830152878116602483015260448201879052915191881691639db5dbe4916064808201926020929091908290030181600087803b1580156128f557600080fd5b505af1158015612909573d6000803e3d6000fd5b505050506040513d602081101561291f57600080fd5b5051151561292c57600080fd5b6006546040805160e060020a63029b7d530281523360048201529051600160a060020a039092169163029b7d5391602480820192602092909190829003018186803b15801561297a57600080fd5b505afa15801561298e573d6000803e3d6000fd5b505050506040513d60208110156129a457600080fd5b8101908080519060200190929190505050600160a060020a03167fc0f0c797c493e6d182b6024333a29a628896a4efd7c18d491c8f717407aa93c98787878b86600160a060020a03166306fdde036040518163ffffffff1660e060020a02815260040160006040518083038186803b158015612a1f57600080fd5b505afa158015612a33573d6000803e3d6000fd5b505050506040513d6000823e601f3d908101601f191682016040526020811015612a5c57600080fd5b810190808051640100000000811115612a7457600080fd5b82016020810184811115612a8757600080fd5b8151640100000000811182820187101715612aa157600080fd5b505092919050505087600160a060020a03166395d89b416040518163ffffffff1660e060020a02815260040160006040518083038186803b158015612ae557600080fd5b505afa158015612af9573d6000803e3d6000fd5b505050506040513d6000823e601f3d908101601f191682016040526020811015612b2257600080fd5b810190808051640100000000811115612b3a57600080fd5b82016020810184811115612b4d57600080fd5b8151640100000000811182820187101715612b6757600080fd5b50509291905050506040518087600160a060020a0316600160a060020a0316815260200186600160a060020a0316600160a060020a0316815260200185815260200184600160a060020a0316600160a060020a031681526020018060200180602001838103835285818151815260200191508051906020019080838360005b83811015612bfe578181015183820152602001612be6565b50505050905090810190601f168015612c2b5780820380516001836020036101000a031916815260200191505b50838103825284518152845160209182019186019080838360005b83811015612c5e578181015183820152602001612c46565b50505050905090810190601f168015612c8b5780820380516001836020036101000a031916815260200191505b509850505050505050505060405180910390a250505050505050565b60008173__AOLibrary_____________________________632d706a34826040518263ffffffff1660e060020a0281526004018082600160a060020a0316600160a060020a0316815260200191505060206040518083038186803b158015612d0e57600080fd5b505af4158015612d22573d6000803e3d6000fd5b505050506040513d6020811015612d3857600080fd5b505180612dca57506040805160e260020a630bf29505028152600160a060020a0383166004820152905173__AOLibrary_____________________________91632fca5414916024808301926020929190829003018186803b158015612d9d57600080fd5b505af4158015612db1573d6000803e3d6000fd5b505050506040513d6020811015612dc757600080fd5b50515b1515612dd557600080fd5b83600160a060020a03166370a08231846040518263ffffffff1660e060020a0281526004018082600160a060020a0316600160a060020a0316815260200191505060206040518083038186803b158015612e2e57600080fd5b505afa158015612e42573d6000803e3d6000fd5b505050506040513d6020811015612e5857600080fd5b5051949350505050565b6000546001546040805160e260020a633d9abf2b028152336004820152600160a060020a0393841660248201529290911660448301525173__AOLibrary_____________________________9163f66afcac916064808301926020929190829003018186803b158015612ed457600080fd5b505af4158015612ee8573d6000803e3d6000fd5b505050506040513d6020811015612efe57600080fd5b50511515612f0b57600080fd5b600160a060020a0381161515612f2057600080fd5b6000805473ffffffffffffffffffffffffffffffffffffffff1916600160a060020a0392909216919091179055565b6000546001546040805160e260020a633d9abf2b028152336004820152600160a060020a0393841660248201529290911660448301525173__AOLibrary_____________________________9163f66afcac916064808301926020929190829003018186803b158015612fc157600080fd5b505af4158015612fd5573d6000803e3d6000fd5b505050506040513d6020811015612feb57600080fd5b50511515612ff857600080fd5b600160a060020a038116151561300d57600080fd5b60058054600160a060020a0390921673ffffffffffffffffffffffffffffffffffffffff1992831681179091556009805490921617905556fea165627a7a72305820b9f04bc8c985f5fe85963983b4044e449c3db2d9eb2f679098cad16f3548779f0029",
	"source": "pragma solidity >=0.5.4 <0.6.0;\n\nimport './SafeMath.sol';\nimport './AOLibrary.sol';\nimport './TheAO.sol';\nimport './INameFactory.sol';\nimport './INameTAOPosition.sol';\nimport './INameAccountRecovery.sol';\nimport './TokenERC20.sol';\nimport './AOIon.sol';\n\n/**\n * @title NameTAOVault\n */\ncontract NameTAOVault is TheAO {\n\tusing SafeMath for uint256;\n\n\taddress public nameFactoryAddress;\n\taddress public nameAccountRecoveryAddress;\n\taddress public aoIonAddress;\n\n\tINameFactory internal _nameFactory;\n\tINameTAOPosition internal _nameTAOPosition;\n\tINameAccountRecovery internal _nameAccountRecovery;\n\tAOIon internal _aoIon;\n\n\t// Event to be broadcasted to public when Advocate of `from` Name/TAO transfer ETH\n\t// `from` is a Name/TAO\n\tevent TransferEth(address indexed advocateId, address from, address to, uint256 amount);\n\n\t// Event to be broadcasted to public when Advocate of `from` Name/TAO transfer ERC20 Token\n\t// `from` is a Name/TAO\n\tevent TransferERC20(address indexed advocateId, address from, address to, uint256 amount, address erc20TokenAddress, string erc20Name, string erc20Symbol);\n\n\t// Event to be broadcasted to public when Advocate of `from` Name/TAO transfer AO\n\t// `from` is a Name/TAO\n\tevent TransferAO(address indexed advocateId, address from, address to, uint256 amount);\n\n\t// Event to be broadcasted to public when Advocate of `from` Name/TAO transfer AO+\n\t// `from` is a Name/TAO\n\tevent TransferPrimordialAO(address indexed advocateId, address from, address to, uint256 amount);\n\n\t/**\n\t * @dev Constructor function\n\t */\n\tconstructor(address _nameFactoryAddress, address _nameTAOPositionAddress) public {\n\t\tsetNameFactoryAddress(_nameFactoryAddress);\n\t\tsetNameTAOPositionAddress(_nameTAOPositionAddress);\n\t}\n\n\t/**\n\t * @dev Checks if the calling contract address is The AO\n\t *\t\tOR\n\t *\t\tIf The AO is set to a Name/TAO, then check if calling address is the Advocate\n\t */\n\tmodifier onlyTheAO {\n\t\trequire (AOLibrary.isTheAO(msg.sender, theAO, nameTAOPositionAddress));\n\t\t_;\n\t}\n\n\t/**\n\t * @dev Check if `_id` is a Name or a TAO\n\t */\n\tmodifier isNameOrTAO(address _id) {\n\t\trequire (AOLibrary.isName(_id) || AOLibrary.isTAO(_id));\n\t\t_;\n\t}\n\n\t/**\n\t * @dev Check if msg.sender is the current advocate of Name ID\n\t */\n\tmodifier onlyAdvocate(address _id) {\n\t\trequire (_nameTAOPosition.senderIsAdvocate(msg.sender, _id));\n\t\t_;\n\t}\n\n\t/**\n\t * @dev Only allowed if sender's Name is not compromised\n\t */\n\tmodifier senderNameNotCompromised() {\n\t\trequire (!_nameAccountRecovery.isCompromised(_nameFactory.ethAddressToNameId(msg.sender)));\n\t\t_;\n\t}\n\n\t/***** THE AO ONLY METHODS *****/\n\t/**\n\t * @dev Transfer ownership of The AO to new address\n\t * @param _theAO The new address to be transferred\n\t */\n\tfunction transferOwnership(address _theAO) public onlyTheAO {\n\t\trequire (_theAO != address(0));\n\t\ttheAO = _theAO;\n\t}\n\n\t/**\n\t * @dev Whitelist `_account` address to transact on behalf of others\n\t * @param _account The address to whitelist\n\t * @param _whitelist Either to whitelist or not\n\t */\n\tfunction setWhitelist(address _account, bool _whitelist) public onlyTheAO {\n\t\trequire (_account != address(0));\n\t\twhitelist[_account] = _whitelist;\n\t}\n\n\t/**\n\t * @dev The AO sets NameFactory address\n\t * @param _nameFactoryAddress The address of NameFactory\n\t */\n\tfunction setNameFactoryAddress(address _nameFactoryAddress) public onlyTheAO {\n\t\trequire (_nameFactoryAddress != address(0));\n\t\tnameFactoryAddress = _nameFactoryAddress;\n\t\t_nameFactory = INameFactory(_nameFactoryAddress);\n\t}\n\n\t/**\n\t * @dev The AO sets NameTAOPosition address\n\t * @param _nameTAOPositionAddress The address of NameTAOPosition\n\t */\n\tfunction setNameTAOPositionAddress(address _nameTAOPositionAddress) public onlyTheAO {\n\t\trequire (_nameTAOPositionAddress != address(0));\n\t\tnameTAOPositionAddress = _nameTAOPositionAddress;\n\t\t_nameTAOPosition = INameTAOPosition(_nameTAOPositionAddress);\n\t}\n\n\t/**\n\t * @dev The AO set the NameAccountRecovery Address\n\t * @param _nameAccountRecoveryAddress The address of NameAccountRecovery\n\t */\n\tfunction setNameAccountRecoveryAddress(address _nameAccountRecoveryAddress) public onlyTheAO {\n\t\trequire (_nameAccountRecoveryAddress != address(0));\n\t\tnameAccountRecoveryAddress = _nameAccountRecoveryAddress;\n\t\t_nameAccountRecovery = INameAccountRecovery(nameAccountRecoveryAddress);\n\t}\n\n\t/**\n\t * @dev The AO sets AOIon (base denomination of AO) address\n\t * @param _aoIonAddress The address of AOIon\n\t */\n\tfunction setAOIonAddress(address _aoIonAddress) public onlyTheAO {\n\t\trequire (_aoIonAddress != address(0));\n\t\taoIonAddress = _aoIonAddress;\n\t\t_aoIon = AOIon(_aoIonAddress);\n\t}\n\n\t/***** PUBLIC METHODS *****/\n\t/**\n\t * @dev Get Ethereum balance of `_id`\n\t * @param _id The ID to check\n\t * @return The ethereum balance\n\t */\n\tfunction ethBalanceOf(address _id) public isNameOrTAO(_id) view returns (uint256) {\n\t\treturn address(_id).balance;\n\t}\n\n\t/**\n\t * @dev Get ERC20 token balance of `_id`\n\t * @param _erc20TokenAddress The address of the ERC20 Token\n\t * @param _id The ID to check\n\t * @return The ERC20 Token balance\n\t */\n\tfunction erc20BalanceOf(address _erc20TokenAddress, address _id) public isNameOrTAO(_id) view returns (uint256) {\n\t\treturn TokenERC20(_erc20TokenAddress).balanceOf(_id);\n\t}\n\n\t/**\n\t * @dev Get AO balance of `_id`\n\t * @param _id The ID to check\n\t * @return The AO balance\n\t */\n\tfunction AOBalanceOf(address _id) public isNameOrTAO(_id) view returns (uint256) {\n\t\treturn _aoIon.balanceOf(_id);\n\t}\n\n\t/**\n\t * @dev Get AO+ balance of `_id`\n\t * @param _id The ID to check\n\t * @return The AO+ balance\n\t */\n\tfunction primordialAOBalanceOf(address _id) public isNameOrTAO(_id) view returns (uint256) {\n\t\treturn _aoIon.primordialBalanceOf(_id);\n\t}\n\n\t/**\n\t * @dev Transfer `_amount` of ETH from `_from` to `_to`\n\t * @param _from The sender address\n\t * @param _to The recipient address\n\t * @param _amount The amount to transfer\n\t */\n\tfunction transferEth(address _from, address _to, uint256 _amount) public isNameOrTAO(_from) onlyAdvocate(_from) senderNameNotCompromised {\n\t\trequire (_amount > 0 && address(_from).balance >= _amount);\n\t\trequire (_to != address(0) && _from != _to);\n\t\tif (_nameFactory.nameIdToEthAddress(_from) != address(0)) {\n\t\t\trequire (!_nameAccountRecovery.isCompromised(_from));\n\t\t}\n\t\tif (_nameFactory.nameIdToEthAddress(_to) != address(0)) {\n\t\t\trequire (!_nameAccountRecovery.isCompromised(_to));\n\t\t}\n\t\trequire (TAO(address(uint160(_from))).transferEth(address(uint160(_to)), _amount));\n\t\temit TransferEth(_nameFactory.ethAddressToNameId(msg.sender), _from, _to, _amount);\n\t}\n\n\t/**\n\t * @dev Transfer `_amount` of ERC20 Token from `_from` to `_to`\n\t * @param _erc20TokenAddress The ERC20 Token Address\n\t * @param _from The sender address\n\t * @param _to The recipient address\n\t * @param _amount The amount to transfer\n\t */\n\tfunction transferERC20(address _erc20TokenAddress, address _from, address _to, uint256 _amount) public isNameOrTAO(_from) onlyAdvocate(_from) senderNameNotCompromised {\n\t\trequire (AOLibrary.isValidERC20TokenAddress(_erc20TokenAddress));\n\t\tTokenERC20 _erc20 = TokenERC20(_erc20TokenAddress);\n\t\trequire (_amount > 0 && _erc20.balanceOf(_from) >= _amount);\n\t\trequire (_to != address(0) && _from != _to);\n\t\tif (_nameFactory.nameIdToEthAddress(_from) != address(0)) {\n\t\t\trequire (!_nameAccountRecovery.isCompromised(_from));\n\t\t}\n\t\tif (_nameFactory.nameIdToEthAddress(_to) != address(0)) {\n\t\t\trequire (!_nameAccountRecovery.isCompromised(_to));\n\t\t}\n\t\trequire (TAO(address(uint160(_from))).transferERC20(_erc20TokenAddress, address(uint160(_to)), _amount));\n\t\temit TransferERC20(_nameFactory.ethAddressToNameId(msg.sender), _from, _to, _amount, _erc20TokenAddress, _erc20.name(), _erc20.symbol());\n\t}\n\n\t/**\n\t * @dev Transfer `_amount` of AO from `_from` to `_to`\n\t * @param _from The sender address\n\t * @param _to The recipient address\n\t * @param _amount The amount to transfer\n\t */\n\tfunction transferAO(address _from, address _to, uint256 _amount) public isNameOrTAO(_from) onlyAdvocate(_from) senderNameNotCompromised {\n\t\trequire (_amount > 0 && _aoIon.balanceOf(_from) >= _amount);\n\t\trequire (_to != address(0) && _from != _to);\n\t\tif (_nameFactory.nameIdToEthAddress(_from) != address(0)) {\n\t\t\trequire (!_nameAccountRecovery.isCompromised(_from));\n\t\t}\n\t\tif (_nameFactory.nameIdToEthAddress(_to) != address(0)) {\n\t\t\trequire (!_nameAccountRecovery.isCompromised(_to));\n\t\t}\n\t\trequire (_aoIon.whitelistTransferFrom(_from, _to, _amount));\n\t\temit TransferAO(_nameFactory.ethAddressToNameId(msg.sender), _from, _to, _amount);\n\t}\n\n\t/**\n\t * @dev Transfer `_amount` of AO+ (Primordial) from `_from` to `_to`\n\t * @param _from The sender address\n\t * @param _to The recipient address\n\t * @param _amount The amount to transfer\n\t */\n\tfunction transferPrimordialAO(address _from, address _to, uint256 _amount) public isNameOrTAO(_from) onlyAdvocate(_from) senderNameNotCompromised {\n\t\trequire (_amount > 0 && _aoIon.primordialBalanceOf(_from) >= _amount);\n\t\trequire (_to != address(0) && _from != _to);\n\t\tif (_nameFactory.nameIdToEthAddress(_from) != address(0)) {\n\t\t\trequire (!_nameAccountRecovery.isCompromised(_from));\n\t\t}\n\t\tif (_nameFactory.nameIdToEthAddress(_to) != address(0)) {\n\t\t\trequire (!_nameAccountRecovery.isCompromised(_to));\n\t\t}\n\t\trequire (_aoIon.whitelistTransferPrimordialFrom(_from, _to, _amount));\n\t\temit TransferPrimordialAO(_nameFactory.ethAddressToNameId(msg.sender), _from, _to, _amount);\n\t}\n}\n",
	"sourcePath": "/home/jmulyono/ao-contracts/contracts/NameTAOVault.sol",
	"compiler": {
		"name": "solc",
		"version": "0.5.4+commit.9549d8ff.Emscripten.clang"
	},
	"schemaVersion": "3.0.9",
	"updatedAt": "2019-05-22T05:15:21.422Z",
	"devdoc": {
		"methods": {
			"AOBalanceOf(address)": {
				"details": "Get AO balance of `_id`",
				"params": {
					"_id": "The ID to check"
				},
				"return": "The AO balance"
			},
			"constructor": {
				"details": "Constructor function"
			},
			"erc20BalanceOf(address,address)": {
				"details": "Get ERC20 token balance of `_id`",
				"params": {
					"_erc20TokenAddress": "The address of the ERC20 Token",
					"_id": "The ID to check"
				},
				"return": "The ERC20 Token balance"
			},
			"ethBalanceOf(address)": {
				"details": "Get Ethereum balance of `_id`",
				"params": {
					"_id": "The ID to check"
				},
				"return": "The ethereum balance"
			},
			"primordialAOBalanceOf(address)": {
				"details": "Get AO+ balance of `_id`",
				"params": {
					"_id": "The ID to check"
				},
				"return": "The AO+ balance"
			},
			"setAOIonAddress(address)": {
				"details": "The AO sets AOIon (base denomination of AO) address",
				"params": {
					"_aoIonAddress": "The address of AOIon"
				}
			},
			"setNameAccountRecoveryAddress(address)": {
				"details": "The AO set the NameAccountRecovery Address",
				"params": {
					"_nameAccountRecoveryAddress": "The address of NameAccountRecovery"
				}
			},
			"setNameFactoryAddress(address)": {
				"details": "The AO sets NameFactory address",
				"params": {
					"_nameFactoryAddress": "The address of NameFactory"
				}
			},
			"setNameTAOPositionAddress(address)": {
				"details": "The AO sets NameTAOPosition address",
				"params": {
					"_nameTAOPositionAddress": "The address of NameTAOPosition"
				}
			},
			"setWhitelist(address,bool)": {
				"details": "Whitelist `_account` address to transact on behalf of others",
				"params": {
					"_account": "The address to whitelist",
					"_whitelist": "Either to whitelist or not"
				}
			},
			"transferAO(address,address,uint256)": {
				"details": "Transfer `_amount` of AO from `_from` to `_to`",
				"params": {
					"_amount": "The amount to transfer",
					"_from": "The sender address",
					"_to": "The recipient address"
				}
			},
			"transferERC20(address,address,address,uint256)": {
				"details": "Transfer `_amount` of ERC20 Token from `_from` to `_to`",
				"params": {
					"_amount": "The amount to transfer",
					"_erc20TokenAddress": "The ERC20 Token Address",
					"_from": "The sender address",
					"_to": "The recipient address"
				}
			},
			"transferEth(address,address,uint256)": {
				"details": "Transfer `_amount` of ETH from `_from` to `_to`",
				"params": {
					"_amount": "The amount to transfer",
					"_from": "The sender address",
					"_to": "The recipient address"
				}
			},
			"transferOwnership(address)": {
				"details": "Transfer ownership of The AO to new address",
				"params": {
					"_theAO": "The new address to be transferred"
				}
			},
			"transferPrimordialAO(address,address,uint256)": {
				"details": "Transfer `_amount` of AO+ (Primordial) from `_from` to `_to`",
				"params": {
					"_amount": "The amount to transfer",
					"_from": "The sender address",
					"_to": "The recipient address"
				}
			}
		},
		"title": "NameTAOVault"
	},
	"userdoc": {
		"methods": {}
	}
}