{
	"contractName": "NamePublicKey",
	"abi": [
		{
			"constant": true,
			"inputs": [],
			"name": "nameFactoryAddress",
			"outputs": [
				{
					"name": "",
					"type": "address"
				}
			],
			"payable": false,
			"stateMutability": "view",
			"type": "function"
		},
		{
			"inputs": [
				{
					"name": "_nameFactoryAddress",
					"type": "address"
				},
				{
					"name": "_nameTAOPositionAddress",
					"type": "address"
				}
			],
			"payable": false,
			"stateMutability": "nonpayable",
			"type": "constructor"
		},
		{
			"anonymous": false,
			"inputs": [
				{
					"indexed": true,
					"name": "nameId",
					"type": "address"
				},
				{
					"indexed": false,
					"name": "publicKey",
					"type": "address"
				},
				{
					"indexed": false,
					"name": "nonce",
					"type": "uint256"
				}
			],
			"name": "AddKey",
			"type": "event"
		},
		{
			"anonymous": false,
			"inputs": [
				{
					"indexed": true,
					"name": "nameId",
					"type": "address"
				},
				{
					"indexed": false,
					"name": "publicKey",
					"type": "address"
				},
				{
					"indexed": false,
					"name": "nonce",
					"type": "uint256"
				}
			],
			"name": "RemoveKey",
			"type": "event"
		},
		{
			"anonymous": false,
			"inputs": [
				{
					"indexed": true,
					"name": "nameId",
					"type": "address"
				},
				{
					"indexed": false,
					"name": "publicKey",
					"type": "address"
				},
				{
					"indexed": false,
					"name": "nonce",
					"type": "uint256"
				}
			],
			"name": "SetDefaultKey",
			"type": "event"
		},
		{
			"constant": true,
			"inputs": [
				{
					"name": "_id",
					"type": "address"
				}
			],
			"name": "isExist",
			"outputs": [
				{
					"name": "",
					"type": "bool"
				}
			],
			"payable": false,
			"stateMutability": "view",
			"type": "function"
		},
		{
			"constant": false,
			"inputs": [
				{
					"name": "_id",
					"type": "address"
				},
				{
					"name": "_defaultKey",
					"type": "address"
				}
			],
			"name": "add",
			"outputs": [
				{
					"name": "",
					"type": "bool"
				}
			],
			"payable": false,
			"stateMutability": "nonpayable",
			"type": "function"
		},
		{
			"constant": true,
			"inputs": [
				{
					"name": "_id",
					"type": "address"
				}
			],
			"name": "getTotalPublicKeysCount",
			"outputs": [
				{
					"name": "",
					"type": "uint256"
				}
			],
			"payable": false,
			"stateMutability": "view",
			"type": "function"
		},
		{
			"constant": true,
			"inputs": [
				{
					"name": "_id",
					"type": "address"
				},
				{
					"name": "_key",
					"type": "address"
				}
			],
			"name": "isKeyExist",
			"outputs": [
				{
					"name": "",
					"type": "bool"
				}
			],
			"payable": false,
			"stateMutability": "view",
			"type": "function"
		},
		{
			"constant": false,
			"inputs": [
				{
					"name": "_id",
					"type": "address"
				},
				{
					"name": "_key",
					"type": "address"
				}
			],
			"name": "addKey",
			"outputs": [],
			"payable": false,
			"stateMutability": "nonpayable",
			"type": "function"
		},
		{
			"constant": true,
			"inputs": [
				{
					"name": "_id",
					"type": "address"
				}
			],
			"name": "getDefaultKey",
			"outputs": [
				{
					"name": "",
					"type": "address"
				}
			],
			"payable": false,
			"stateMutability": "view",
			"type": "function"
		},
		{
			"constant": true,
			"inputs": [
				{
					"name": "_id",
					"type": "address"
				},
				{
					"name": "_from",
					"type": "uint256"
				},
				{
					"name": "_to",
					"type": "uint256"
				}
			],
			"name": "getKeys",
			"outputs": [
				{
					"name": "",
					"type": "address[]"
				}
			],
			"payable": false,
			"stateMutability": "view",
			"type": "function"
		},
		{
			"constant": false,
			"inputs": [
				{
					"name": "_id",
					"type": "address"
				},
				{
					"name": "_key",
					"type": "address"
				}
			],
			"name": "removeKey",
			"outputs": [],
			"payable": false,
			"stateMutability": "nonpayable",
			"type": "function"
		},
		{
			"constant": false,
			"inputs": [
				{
					"name": "_id",
					"type": "address"
				},
				{
					"name": "_defaultKey",
					"type": "address"
				},
				{
					"name": "_signatureV",
					"type": "uint8"
				},
				{
					"name": "_signatureR",
					"type": "bytes32"
				},
				{
					"name": "_signatureS",
					"type": "bytes32"
				}
			],
			"name": "setDefaultKey",
			"outputs": [],
			"payable": false,
			"stateMutability": "nonpayable",
			"type": "function"
		}
	],
	"bytecode": "0x608060405234801561001057600080fd5b506040516040806114fb83398101604052805160209091015160008054600160a060020a03938416600160a060020a0319918216811790925560018054821690921790915560028054939092169216919091179055611487806100746000396000f3006080604052600436106100895763ffffffff60e060020a60003504166213eb4b811461008e578063181a916b146100c357806352c28fab1461013a578063722e1677146101615780638ab3e33f14610194578063a481247c146101bd578063bc406206146101e4578063c59c114414610215578063db536d2f14610248578063ea6dee8014610269575b600080fd5b34801561009a57600080fd5b506100af600160a060020a0360043516610290565b604080519115158252519081900360200190f35b3480156100cf57600080fd5b506100ea600160a060020a03600435166024356044356102ae565b60408051602080825283518183015283519192839290830191858101910280838360005b8381101561012657818101518382015260200161010e565b505050509050019250505060405180910390f35b34801561014657600080fd5b506100af600160a060020a0360043581169060243516610529565b34801561016d57600080fd5b50610182600160a060020a0360043516610689565b60408051918252519081900360200190f35b3480156101a057600080fd5b506101bb600160a060020a036004358116906024351661075b565b005b3480156101c957600080fd5b506100af600160a060020a0360043581169060243516610aa5565b3480156101f057600080fd5b506101f9610c77565b60408051600160a060020a039092168252519081900360200190f35b34801561022157600080fd5b506101bb600160a060020a036004358116906024351660ff60443516606435608435610c86565b34801561025457600080fd5b506101f9600160a060020a036004351661106b565b34801561027557600080fd5b506101bb600160a060020a0360043581169060243516611142565b600160a060020a031660009081526003602052604090205460ff1690565b60606102b86113f2565b606060008673__AOLibrary_____________________________632d706a34826040518263ffffffff1660e060020a0281526004018082600160a060020a0316600160a060020a0316815260200191505060206040518083038186803b15801561032157600080fd5b505af4158015610335573d6000803e3d6000fd5b505050506040513d602081101561034b57600080fd5b5051151561035857600080fd5b61036188610290565b151561036c57600080fd5b6000871015801561037d5750868610155b151561038857600080fd5b600160a060020a038089166000908152600360209081526040918290208251606081018452815460ff8116151582526101009004909416848301526001810180548451818502810185018652818152929486019383018282801561041557602002820191906000526020600020905b8154600160a060020a031681526001909101906020018083116103f7575b5050505050815250509350600084604001515111151561043457600080fd5b6104556001610449888a63ffffffff6113cd16565b9063ffffffff6113df16565b60405190808252806020026020018201604052801561047e578160200160208202803883390190505b5060408501515190935061049990600163ffffffff6113cd16565b8611156104ba576040840151516104b790600163ffffffff6113cd16565b95505b8691505b85821161051d5760408401518051839081106104d657fe5b60209081029091010151836104f1848a63ffffffff6113cd16565b815181106104fb57fe5b600160a060020a039092166020928302909101909101526001909101906104be565b50909695505050505050565b6000808373__AOLibrary_____________________________632d706a34826040518263ffffffff1660e060020a0281526004018082600160a060020a0316600160a060020a0316815260200191505060206040518083038186803b15801561059157600080fd5b505af41580156105a5573d6000803e3d6000fd5b505050506040513d60208110156105bb57600080fd5b505115156105c857600080fd5b600054600160a060020a031633146105df57600080fd5b6105e885610290565b156105f257600080fd5b600160a060020a038416151561060757600080fd5b505050600160a060020a03918216600090815260036020908152604082208054600160ff19909116811774ffffffffffffffffffffffffffffffffffffffff00191661010095909616948502959095178155840180548086018255908352912001805473ffffffffffffffffffffffffffffffffffffffff1916909117905590565b60008173__AOLibrary_____________________________632d706a34826040518263ffffffff1660e060020a0281526004018082600160a060020a0316600160a060020a0316815260200191505060206040518083038186803b1580156106f057600080fd5b505af4158015610704573d6000803e3d6000fd5b505050506040513d602081101561071a57600080fd5b5051151561072757600080fd5b61073083610290565b151561073b57600080fd5b5050600160a060020a031660009081526003602052604090206001015490565b60008060008473__AOLibrary_____________________________632d706a34826040518263ffffffff1660e060020a0281526004018082600160a060020a0316600160a060020a0316815260200191505060206040518083038186803b1580156107c557600080fd5b505af41580156107d9573d6000803e3d6000fd5b505050506040513d60208110156107ef57600080fd5b505115156107fc57600080fd5b600254604080517f71ce52ed000000000000000000000000000000000000000000000000000000008152336004820152600160a060020a03808a1660248301529151899392909216916371ce52ed916044808201926020929091908290030181600087803b15801561086d57600080fd5b505af1158015610881573d6000803e3d6000fd5b505050506040513d602081101561089757600080fd5b505115156108a457600080fd5b6108ad87610290565b15156108b857600080fd5b6108c28787610aa5565b15156108cd57600080fd5b600160a060020a038781166000908152600360205260409020805490965061010090048116908716141561090057600080fd5b6001858101541161091057600080fd5b600093505b6001850154841015610a495785600160a060020a0316856001018581548110151561093c57fe5b600091825260209091200154600160a060020a03161415610a3e576001850180548590811061096757fe5b6000918252602090912001805473ffffffffffffffffffffffffffffffffffffffff19169055600185018054906109a2906000198301611411565b50600154604080517ff5743c4c000000000000000000000000000000000000000000000000000000008152600160a060020a038a811660048301529151919092169163f5743c4c9160248083019260209291908290030181600087803b158015610a0b57600080fd5b505af1158015610a1f573d6000803e3d6000fd5b505050506040513d6020811015610a3557600080fd5b50519250610a49565b600190930192610915565b60008311610a5657600080fd5b60408051600160a060020a038881168252602082018690528251908a16927faec0509ffc1f2fe28ada93894c552d532d94e3c32821ce0939b2064d95686642928290030190a250505050505050565b6000610aaf6113f2565b60008473__AOLibrary_____________________________632d706a34826040518263ffffffff1660e060020a0281526004018082600160a060020a0316600160a060020a0316815260200191505060206040518083038186803b158015610b1657600080fd5b505af4158015610b2a573d6000803e3d6000fd5b505050506040513d6020811015610b4057600080fd5b50511515610b4d57600080fd5b610b5686610290565b1515610b6157600080fd5b600160a060020a0385161515610b7657600080fd5b600160a060020a038087166000908152600360209081526040918290208251606081018452815460ff81161515825261010090049094168483015260018101805484518185028101850186528181529294860193830182828015610c0357602002820191906000526020600020905b8154600160a060020a03168152600190910190602001808311610be5575b5050505050815250509250600091505b826040015151821015610c695784600160a060020a0316836040015183815181101515610c3c57fe5b90602001906020020151600160a060020a03161415610c5e5760019350610c6e565b600190910190610c13565b600093505b50505092915050565b600054600160a060020a031681565b60008060008773__AOLibrary_____________________________632d706a34826040518263ffffffff1660e060020a0281526004018082600160a060020a0316600160a060020a0316815260200191505060206040518083038186803b158015610cf057600080fd5b505af4158015610d04573d6000803e3d6000fd5b505050506040513d6020811015610d1a57600080fd5b50511515610d2757600080fd5b600254604080517f71ce52ed000000000000000000000000000000000000000000000000000000008152336004820152600160a060020a03808d16602483015291518c9392909216916371ce52ed916044808201926020929091908290030181600087803b158015610d9857600080fd5b505af1158015610dac573d6000803e3d6000fd5b505050506040513d6020811015610dc257600080fd5b50511515610dcf57600080fd5b610dd88a610290565b1515610de357600080fd5b610ded8a8a610aa5565b1515610df857600080fd5b604080516c01000000000000000000000000308102602080840191909152600160a060020a03808f16830260348501528d1690910260488301528251603c818403018152605c90920192839052815191929182918401908083835b60208310610e725780518252601f199092019160209182019101610e53565b6001836020036101000a0380198251168184511680821785525050505050509050019150506040518091039020945033600160a060020a03166001868a8a8a604051600081526020016040526040518085600019166000191681526020018460ff1660ff1681526020018360001916600019168152602001826000191660001916815260200194505050505060206040516020810390808403906000865af1158015610f22573d6000803e3d6000fd5b50505060206040510351600160a060020a0316141515610f4157600080fd5b600160a060020a03808b16600081815260036020908152604080832080548f87166101000274ffffffffffffffffffffffffffffffffffffffff001990911617815560015482517ff5743c4c0000000000000000000000000000000000000000000000000000000081526004810196909652915190995094169363f5743c4c93602480820194918390030190829087803b158015610fde57600080fd5b505af1158015610ff2573d6000803e3d6000fd5b505050506040513d602081101561100857600080fd5b505192506000831161101957600080fd5b60408051600160a060020a038b81168252602082018690528251908d16927fd77f210e9f1b29555f577c8e8794a9470fa9198f423fc077f55168838ba679a9928290030190a250505050505050505050565b60008173__AOLibrary_____________________________632d706a34826040518263ffffffff1660e060020a0281526004018082600160a060020a0316600160a060020a0316815260200191505060206040518083038186803b1580156110d257600080fd5b505af41580156110e6573d6000803e3d6000fd5b505050506040513d60208110156110fc57600080fd5b5051151561110957600080fd5b61111283610290565b151561111d57600080fd5b5050600160a060020a0390811660009081526003602052604090205461010090041690565b6000808373__AOLibrary_____________________________632d706a34826040518263ffffffff1660e060020a0281526004018082600160a060020a0316600160a060020a0316815260200191505060206040518083038186803b1580156111aa57600080fd5b505af41580156111be573d6000803e3d6000fd5b505050506040513d60208110156111d457600080fd5b505115156111e157600080fd5b600254604080517f71ce52ed000000000000000000000000000000000000000000000000000000008152336004820152600160a060020a0380891660248301529151889392909216916371ce52ed916044808201926020929091908290030181600087803b15801561125257600080fd5b505af1158015611266573d6000803e3d6000fd5b505050506040513d602081101561127c57600080fd5b5051151561128957600080fd5b6112938686610aa5565b1561129d57600080fd5b600160a060020a03868116600081815260036020908152604080832060018082018054808301825590865284862001805473ffffffffffffffffffffffffffffffffffffffff19168d89161790555482517ff5743c4c0000000000000000000000000000000000000000000000000000000081526004810196909652915190995094169363f5743c4c93602480820194918390030190829087803b15801561134457600080fd5b505af1158015611358573d6000803e3d6000fd5b505050506040513d602081101561136e57600080fd5b505192506000831161137f57600080fd5b60408051600160a060020a038781168252602082018690528251908916927f4487b0a9ffea124fa087f0b52b2e9ce94d4cc7863686b6d07b61569b2652b153928290030190a2505050505050565b6000828211156113d957fe5b50900390565b818101828110156113ec57fe5b92915050565b6040805160608181018352600080835260208301529181019190915290565b8154818355818111156114355760008381526020902061143591810190830161143a565b505050565b61145891905b808211156114545760008155600101611440565b5090565b905600a165627a7a723058208ed787fba60c9baf0e7beba70609e605ac11dbaf4b6fa3fe705e8bc0bbdcfba50029",
	"source": "pragma solidity ^0.4.24;\n\nimport './SafeMath.sol';\nimport './AOLibrary.sol';\nimport './NameFactory.sol';\nimport './NameTAOPosition.sol';\n\n/**\n * @title NamePublicKey\n */\ncontract NamePublicKey {\n\tusing SafeMath for uint256;\n\n\taddress public nameFactoryAddress;\n\n\tNameFactory internal _nameFactory;\n\tNameTAOPosition internal _nameTAOPosition;\n\n\tstruct PublicKey {\n\t\tbool created;\n\t\taddress defaultKey;\n\t\taddress[] keys;\n\t}\n\n\t// Mapping from nameId to its PublicKey\n\tmapping (address => PublicKey) internal publicKeys;\n\n\t// Event to be broadcasted to public when a publicKey is added to a Name\n\tevent AddKey(address indexed nameId, address publicKey, uint256 nonce);\n\n\t// Event to be broadcasted to public when a publicKey is removed from a Name\n\tevent RemoveKey(address indexed nameId, address publicKey, uint256 nonce);\n\n\t// Event to be broadcasted to public when a publicKey is set as default for a Name\n\tevent SetDefaultKey(address indexed nameId, address publicKey, uint256 nonce);\n\n\t/**\n\t * @dev Constructor function\n\t */\n\tconstructor(address _nameFactoryAddress, address _nameTAOPositionAddress) public {\n\t\tnameFactoryAddress = _nameFactoryAddress;\n\n\t\t_nameFactory = NameFactory(_nameFactoryAddress);\n\t\t_nameTAOPosition = NameTAOPosition(_nameTAOPositionAddress);\n\t}\n\n\t/**\n\t * @dev Check if calling address is Factory\n\t */\n\tmodifier onlyFactory {\n\t\trequire (msg.sender == nameFactoryAddress);\n\t\t_;\n\t}\n\n\t/**\n\t * @dev Check if `_nameId` is a Name\n\t */\n\tmodifier isName(address _nameId) {\n\t\trequire (AOLibrary.isName(_nameId));\n\t\t_;\n\t}\n\n\t/**\n\t * @dev Check if msg.sender is the current advocate of Name ID\n\t */\n\tmodifier onlyAdvocate(address _id) {\n\t\trequire (_nameTAOPosition.senderIsAdvocate(msg.sender, _id));\n\t\t_;\n\t}\n\n\t/***** PUBLIC METHODS *****/\n\t/**\n\t * @dev Check whether or not a Name ID exist in the list of Public Keys\n\t * @param _id The ID to be checked\n\t * @return true if yes, false otherwise\n\t */\n\tfunction isExist(address _id) public view returns (bool) {\n\t\treturn publicKeys[_id].created;\n\t}\n\n\t/**\n\t * @dev Store the PublicKey info for a Name\n\t * @param _id The ID of the Name\n\t * @param _defaultKey The default public key for this Name\n\t * @return true on success\n\t */\n\tfunction add(address _id, address _defaultKey)\n\t\tpublic\n\t\tisName(_id)\n\t\tonlyFactory returns (bool) {\n\t\trequire (!isExist(_id));\n\t\trequire (_defaultKey != address(0));\n\n\t\tPublicKey storage _publicKey = publicKeys[_id];\n\t\t_publicKey.created = true;\n\t\t_publicKey.defaultKey = _defaultKey;\n\t\t_publicKey.keys.push(_defaultKey);\n\t\treturn true;\n\t}\n\n\t/**\n\t * @dev Get total publicKeys count for a Name\n\t * @param _id The ID of the Name\n\t * @return total publicKeys count\n\t */\n\tfunction getTotalPublicKeysCount(address _id) public isName(_id) view returns (uint256) {\n\t\trequire (isExist(_id));\n\t\treturn publicKeys[_id].keys.length;\n\t}\n\n\t/**\n\t * @dev Check whether or not a publicKey exist in the list for a Name\n\t * @param _id The ID of the Name\n\t * @param _key The publicKey to check\n\t * @return true if yes. false otherwise\n\t */\n\tfunction isKeyExist(address _id, address _key) isName(_id) public view returns (bool) {\n\t\trequire (isExist(_id));\n\t\trequire (_key != address(0));\n\n\t\tPublicKey memory _publicKey = publicKeys[_id];\n\t\tfor (uint256 i = 0; i < _publicKey.keys.length; i++) {\n\t\t\tif (_publicKey.keys[i] == _key) {\n\t\t\t\treturn true;\n\t\t\t}\n\t\t}\n\t\treturn false;\n\t}\n\n\t/**\n\t * @dev Add publicKey to list for a Name\n\t * @param _id The ID of the Name\n\t * @param _key The publicKey to be added\n\t */\n\tfunction addKey(address _id, address _key) public isName(_id) onlyAdvocate(_id) {\n\t\trequire (!isKeyExist(_id, _key));\n\n\t\tPublicKey storage _publicKey = publicKeys[_id];\n\t\t_publicKey.keys.push(_key);\n\n\t\tuint256 _nonce = _nameFactory.incrementNonce(_id);\n\t\trequire (_nonce > 0);\n\n\t\temit AddKey(_id, _key, _nonce);\n\t}\n\n\t/**\n\t * @dev Get default public key of a Name\n\t * @param _id The ID of the Name\n\t * @return the default public key\n\t */\n\tfunction getDefaultKey(address _id) public isName(_id) view returns (address) {\n\t\trequire (isExist(_id));\n\t\treturn publicKeys[_id].defaultKey;\n\t}\n\n\t/**\n\t * @dev Get list of publicKeys of a Name\n\t * @param _id The ID of the Name\n\t * @param _from The starting index\n\t * @param _to The ending index\n\t * @return list of publicKeys\n\t */\n\tfunction getKeys(address _id, uint256 _from, uint256 _to) public isName(_id) view returns (address[]) {\n\t\trequire (isExist(_id));\n\t\trequire (_from >= 0 && _to >= _from);\n\n\t\tPublicKey memory _publicKey = publicKeys[_id];\n\t\trequire (_publicKey.keys.length > 0);\n\n\t\taddress[] memory _keys = new address[](_to.sub(_from).add(1));\n\t\tif (_to > _publicKey.keys.length.sub(1)) {\n\t\t\t_to = _publicKey.keys.length.sub(1);\n\t\t}\n\t\tfor (uint256 i = _from; i <= _to; i++) {\n\t\t\t_keys[i.sub(_from)] = _publicKey.keys[i];\n\t\t}\n\t\treturn _keys;\n\t}\n\n\t/**\n\t * @dev Remove publicKey from the list\n\t * @param _id The ID of the Name\n\t * @param _key The publicKey to be removed\n\t */\n\tfunction removeKey(address _id, address _key) public isName(_id) onlyAdvocate(_id) {\n\t\trequire (isExist(_id));\n\t\trequire (isKeyExist(_id, _key));\n\n\t\tPublicKey storage _publicKey = publicKeys[_id];\n\n\t\t// Can't remove default key\n\t\trequire (_key != _publicKey.defaultKey);\n\t\trequire (_publicKey.keys.length > 1);\n\n\t\tfor (uint256 i = 0; i < _publicKey.keys.length; i++) {\n\t\t\tif (_publicKey.keys[i] == _key) {\n\t\t\t\tdelete _publicKey.keys[i];\n\t\t\t\t_publicKey.keys.length--;\n\n\t\t\t\tuint256 _nonce = _nameFactory.incrementNonce(_id);\n\t\t\t\tbreak;\n\t\t\t}\n\t\t}\n\t\trequire (_nonce > 0);\n\n\t\temit RemoveKey(_id, _key, _nonce);\n\t}\n\n\t/**\n\t * @dev Set a publicKey as the default for a Name\n\t * @param _id The ID of the Name\n\t * @param _defaultKey The defaultKey to be set\n\t * @param _signatureV The V part of the signature for this update\n\t * @param _signatureR The R part of the signature for this update\n\t * @param _signatureS The S part of the signature for this update\n\t */\n\tfunction setDefaultKey(address _id, address _defaultKey, uint8 _signatureV, bytes32 _signatureR, bytes32 _signatureS) public isName(_id) onlyAdvocate(_id) {\n\t\trequire (isExist(_id));\n\t\trequire (isKeyExist(_id, _defaultKey));\n\n\t\tbytes32 _hash = keccak256(abi.encodePacked(address(this), _id, _defaultKey));\n\t\trequire (ecrecover(_hash, _signatureV, _signatureR, _signatureS) == msg.sender);\n\n\t\tPublicKey storage _publicKey = publicKeys[_id];\n\t\t_publicKey.defaultKey = _defaultKey;\n\n\t\tuint256 _nonce = _nameFactory.incrementNonce(_id);\n\t\trequire (_nonce > 0);\n\t\temit SetDefaultKey(_id, _defaultKey, _nonce);\n\t}\n}\n",
	"sourcePath": "/Users/johanmulyono/Work/AO/ao-contracts/contracts/NamePublicKey.sol",
	"compiler": {
		"name": "solc",
		"version": "0.4.24+commit.e67f0147.Emscripten.clang"
	},
	"schemaVersion": "2.0.1",
	"updatedAt": "2019-01-07T03:04:13.048Z"
}