{
	"contractName": "Name",
	"abi": [
		{
			"constant": true,
			"inputs": [],
			"name": "datHash",
			"outputs": [
				{
					"name": "",
					"type": "string"
				}
			],
			"payable": false,
			"stateMutability": "view",
			"type": "function"
		},
		{
			"constant": false,
			"inputs": [
				{
					"name": "_orphanTAOId",
					"type": "address"
				}
			],
			"name": "approveOrphanTAO",
			"outputs": [
				{
					"name": "",
					"type": "uint256"
				}
			],
			"payable": false,
			"stateMutability": "nonpayable",
			"type": "function"
		},
		{
			"constant": false,
			"inputs": [
				{
					"name": "_speakerId",
					"type": "address"
				}
			],
			"name": "setSpeaker",
			"outputs": [
				{
					"name": "",
					"type": "uint256"
				}
			],
			"payable": false,
			"stateMutability": "nonpayable",
			"type": "function"
		},
		{
			"constant": true,
			"inputs": [],
			"name": "defaultPublicKey",
			"outputs": [
				{
					"name": "",
					"type": "address"
				}
			],
			"payable": false,
			"stateMutability": "view",
			"type": "function"
		},
		{
			"constant": true,
			"inputs": [],
			"name": "originId",
			"outputs": [
				{
					"name": "",
					"type": "address"
				}
			],
			"payable": false,
			"stateMutability": "view",
			"type": "function"
		},
		{
			"constant": false,
			"inputs": [
				{
					"name": "_locked",
					"type": "bool"
				}
			],
			"name": "setLocked",
			"outputs": [
				{
					"name": "",
					"type": "uint256"
				}
			],
			"payable": false,
			"stateMutability": "nonpayable",
			"type": "function"
		},
		{
			"constant": true,
			"inputs": [],
			"name": "fromId",
			"outputs": [
				{
					"name": "",
					"type": "address"
				}
			],
			"payable": false,
			"stateMutability": "view",
			"type": "function"
		},
		{
			"constant": true,
			"inputs": [],
			"name": "taoTypeId",
			"outputs": [
				{
					"name": "",
					"type": "uint8"
				}
			],
			"payable": false,
			"stateMutability": "view",
			"type": "function"
		},
		{
			"constant": true,
			"inputs": [],
			"name": "advocateId",
			"outputs": [
				{
					"name": "",
					"type": "address"
				}
			],
			"payable": false,
			"stateMutability": "view",
			"type": "function"
		},
		{
			"constant": true,
			"inputs": [
				{
					"name": "",
					"type": "uint256"
				}
			],
			"name": "subTAOs",
			"outputs": [
				{
					"name": "taoId",
					"type": "address"
				},
				{
					"name": "child",
					"type": "bool"
				},
				{
					"name": "connected",
					"type": "bool"
				}
			],
			"payable": false,
			"stateMutability": "view",
			"type": "function"
		},
		{
			"constant": false,
			"inputs": [],
			"name": "close",
			"outputs": [
				{
					"name": "",
					"type": "uint256"
				}
			],
			"payable": false,
			"stateMutability": "nonpayable",
			"type": "function"
		},
		{
			"constant": true,
			"inputs": [],
			"name": "totalChildTAOs",
			"outputs": [
				{
					"name": "",
					"type": "uint256"
				}
			],
			"payable": false,
			"stateMutability": "view",
			"type": "function"
		},
		{
			"constant": true,
			"inputs": [],
			"name": "taoName",
			"outputs": [
				{
					"name": "",
					"type": "string"
				}
			],
			"payable": false,
			"stateMutability": "view",
			"type": "function"
		},
		{
			"constant": true,
			"inputs": [],
			"name": "closed",
			"outputs": [
				{
					"name": "",
					"type": "bool"
				}
			],
			"payable": false,
			"stateMutability": "view",
			"type": "function"
		},
		{
			"constant": true,
			"inputs": [],
			"name": "totalOrphanTAOs",
			"outputs": [
				{
					"name": "",
					"type": "uint256"
				}
			],
			"payable": false,
			"stateMutability": "view",
			"type": "function"
		},
		{
			"constant": true,
			"inputs": [],
			"name": "username",
			"outputs": [
				{
					"name": "",
					"type": "string"
				}
			],
			"payable": false,
			"stateMutability": "view",
			"type": "function"
		},
		{
			"constant": true,
			"inputs": [],
			"name": "throughId",
			"outputs": [
				{
					"name": "",
					"type": "address"
				}
			],
			"payable": false,
			"stateMutability": "view",
			"type": "function"
		},
		{
			"constant": true,
			"inputs": [],
			"name": "listenerId",
			"outputs": [
				{
					"name": "",
					"type": "address"
				}
			],
			"payable": false,
			"stateMutability": "view",
			"type": "function"
		},
		{
			"constant": true,
			"inputs": [],
			"name": "database",
			"outputs": [
				{
					"name": "",
					"type": "string"
				}
			],
			"payable": false,
			"stateMutability": "view",
			"type": "function"
		},
		{
			"constant": true,
			"inputs": [
				{
					"name": "_childTAOId",
					"type": "address"
				}
			],
			"name": "isChildTAO",
			"outputs": [
				{
					"name": "",
					"type": "bool"
				}
			],
			"payable": false,
			"stateMutability": "view",
			"type": "function"
		},
		{
			"constant": true,
			"inputs": [],
			"name": "factoryAddress",
			"outputs": [
				{
					"name": "",
					"type": "address"
				}
			],
			"payable": false,
			"stateMutability": "view",
			"type": "function"
		},
		{
			"constant": false,
			"inputs": [
				{
					"name": "_taoId",
					"type": "address"
				},
				{
					"name": "_child",
					"type": "bool"
				}
			],
			"name": "addSubTAO",
			"outputs": [
				{
					"name": "",
					"type": "uint256"
				}
			],
			"payable": false,
			"stateMutability": "nonpayable",
			"type": "function"
		},
		{
			"constant": true,
			"inputs": [],
			"name": "keyValue",
			"outputs": [
				{
					"name": "",
					"type": "string"
				}
			],
			"payable": false,
			"stateMutability": "view",
			"type": "function"
		},
		{
			"constant": true,
			"inputs": [
				{
					"name": "_orphanTAOId",
					"type": "address"
				}
			],
			"name": "isOrphanTAO",
			"outputs": [
				{
					"name": "",
					"type": "bool"
				}
			],
			"payable": false,
			"stateMutability": "view",
			"type": "function"
		},
		{
			"constant": false,
			"inputs": [
				{
					"name": "_listenerId",
					"type": "address"
				}
			],
			"name": "setListener",
			"outputs": [
				{
					"name": "",
					"type": "uint256"
				}
			],
			"payable": false,
			"stateMutability": "nonpayable",
			"type": "function"
		},
		{
			"constant": true,
			"inputs": [],
			"name": "nonce",
			"outputs": [
				{
					"name": "",
					"type": "uint256"
				}
			],
			"payable": false,
			"stateMutability": "view",
			"type": "function"
		},
		{
			"constant": false,
			"inputs": [
				{
					"name": "_advocateId",
					"type": "address"
				}
			],
			"name": "setAdvocate",
			"outputs": [
				{
					"name": "",
					"type": "uint256"
				}
			],
			"payable": false,
			"stateMutability": "nonpayable",
			"type": "function"
		},
		{
			"constant": true,
			"inputs": [],
			"name": "toId",
			"outputs": [
				{
					"name": "",
					"type": "address"
				}
			],
			"payable": false,
			"stateMutability": "view",
			"type": "function"
		},
		{
			"constant": true,
			"inputs": [],
			"name": "balance",
			"outputs": [
				{
					"name": "",
					"type": "uint256"
				}
			],
			"payable": false,
			"stateMutability": "view",
			"type": "function"
		},
		{
			"constant": true,
			"inputs": [
				{
					"name": "_from",
					"type": "uint256"
				},
				{
					"name": "_to",
					"type": "uint256"
				}
			],
			"name": "getSubTAOIds",
			"outputs": [
				{
					"name": "",
					"type": "address[]"
				}
			],
			"payable": false,
			"stateMutability": "view",
			"type": "function"
		},
		{
			"constant": true,
			"inputs": [],
			"name": "speakerId",
			"outputs": [
				{
					"name": "",
					"type": "address"
				}
			],
			"payable": false,
			"stateMutability": "view",
			"type": "function"
		},
		{
			"constant": true,
			"inputs": [],
			"name": "locked",
			"outputs": [
				{
					"name": "",
					"type": "bool"
				}
			],
			"payable": false,
			"stateMutability": "view",
			"type": "function"
		},
		{
			"constant": true,
			"inputs": [],
			"name": "contentId",
			"outputs": [
				{
					"name": "",
					"type": "bytes32"
				}
			],
			"payable": false,
			"stateMutability": "view",
			"type": "function"
		},
		{
			"constant": true,
			"inputs": [
				{
					"name": "",
					"type": "address"
				}
			],
			"name": "subTAOInternalIdLookup",
			"outputs": [
				{
					"name": "",
					"type": "uint256"
				}
			],
			"payable": false,
			"stateMutability": "view",
			"type": "function"
		},
		{
			"constant": true,
			"inputs": [],
			"name": "totalSubTAOs",
			"outputs": [
				{
					"name": "",
					"type": "uint256"
				}
			],
			"payable": false,
			"stateMutability": "view",
			"type": "function"
		},
		{
			"inputs": [
				{
					"name": "_username",
					"type": "string"
				},
				{
					"name": "_originId",
					"type": "address"
				},
				{
					"name": "_datHash",
					"type": "string"
				},
				{
					"name": "_database",
					"type": "string"
				},
				{
					"name": "_keyValue",
					"type": "string"
				},
				{
					"name": "_contentId",
					"type": "bytes32"
				}
			],
			"payable": false,
			"stateMutability": "nonpayable",
			"type": "constructor"
		},
		{
			"payable": true,
			"stateMutability": "payable",
			"type": "fallback"
		},
		{
			"constant": true,
			"inputs": [],
			"name": "getTotalPublicKeysCount",
			"outputs": [
				{
					"name": "",
					"type": "uint256"
				}
			],
			"payable": false,
			"stateMutability": "view",
			"type": "function"
		},
		{
			"constant": true,
			"inputs": [
				{
					"name": "_from",
					"type": "uint256"
				},
				{
					"name": "_to",
					"type": "uint256"
				}
			],
			"name": "getPublicKeys",
			"outputs": [
				{
					"name": "",
					"type": "address[]"
				}
			],
			"payable": false,
			"stateMutability": "view",
			"type": "function"
		},
		{
			"constant": true,
			"inputs": [
				{
					"name": "_publicKey",
					"type": "address"
				}
			],
			"name": "isPublicKeyExist",
			"outputs": [
				{
					"name": "",
					"type": "bool"
				}
			],
			"payable": false,
			"stateMutability": "view",
			"type": "function"
		},
		{
			"constant": false,
			"inputs": [
				{
					"name": "_publicKey",
					"type": "address"
				}
			],
			"name": "addPublicKey",
			"outputs": [
				{
					"name": "",
					"type": "uint256"
				}
			],
			"payable": false,
			"stateMutability": "nonpayable",
			"type": "function"
		},
		{
			"constant": false,
			"inputs": [
				{
					"name": "_publicKey",
					"type": "address"
				}
			],
			"name": "deletePublicKey",
			"outputs": [
				{
					"name": "",
					"type": "uint256"
				}
			],
			"payable": false,
			"stateMutability": "nonpayable",
			"type": "function"
		},
		{
			"constant": false,
			"inputs": [
				{
					"name": "_publicKey",
					"type": "address"
				}
			],
			"name": "setDefaultPublicKey",
			"outputs": [
				{
					"name": "",
					"type": "uint256"
				}
			],
			"payable": false,
			"stateMutability": "nonpayable",
			"type": "function"
		}
	],
	"bytecode": "0x60806040523480156200001157600080fd5b5060405162001810380380620018108339810160409081528151602080840151928401516060850151608086015160a0870151600080546201000060b060020a03191633620100000217815595880180519098948501969385019592909401939092889283928992899289928992899287926200009591600191908b0190620001fa565b508751620000ab9060029060208b0190620001fa565b5060038054600160a060020a038916600160a060020a031991821681179092556004805490911690911790558551620000ec906007906020890190620001fa565b50845162000102906008906020880190620001fa565b50835162000118906009906020870190620001fa565b50600a92909255600b8054600d8054600160a060020a0319908116600160a060020a03968716179091556004805460058054600680546001601281905561010060a860020a03199098166101009a8c169a909a029990991760ff1916871790975530838616179384905592881691881692841683178416821790559482161781169093179091556015805491820181556000527f55f448fdea98c4d29eb340757ef0a66cd03dbb9538908a6a81d96026b71ec47501805482169d9092169c8d1790915560168054909116909b17909a55506200029f9950505050505050505050565b828054600181600116156101000203166002900490600052602060002090601f016020900481019282601f106200023d57805160ff19168380011785556200026d565b828001600101855582156200026d579182015b828111156200026d57825182559160200191906001019062000250565b506200027b9291506200027f565b5090565b6200029c91905b808211156200027b576000815560010162000286565b90565b61156180620002af6000396000f3006080604052600436106101f85763ffffffff7c01000000000000000000000000000000000000000000000000000000006000350416630568479081146102365780630cb8eb3a146102c05780630d9c8bca146102f357806310ce6dd51461031457806313866efa146103455780631bf9b3251461035a578063211e28b61461037b5780632a9719a4146103955780632c4dd525146103aa5780632ef193b0146103d5578063346b584e146103ea57806343d726d61461042c57806349cd990f146104415780634ed5aca1146104565780635745bb6c1461046b578063597e1fb5146104805780635db6fd63146104a957806361fac54d146104be57806368dcb66b146104d35780636cf99a8f146104e8578063706390ca146104fd578063713b563f1461051e578063806f8bfc1461053357806393ac521514610554578063966dae0e146105755780639fd0b0e71461058a578063a727be57146105b0578063ac7a4203146105c5578063adcd905b146105e6578063affed0e014610607578063b000fba31461061c578063b0759d081461063d578063b69ef8a814610652578063c86cc85a14610667578063c996ad25146106d2578063cf309012146106e7578063d5838ca7146106fc578063d5fce7351461071d578063d97aa97714610738578063e746dc9f1461074d578063f00b1dc01461076e575b60005460ff161580156102135750600054610100900460ff16155b151561021e57600080fd5b601154610231903463ffffffff61078316565b601155005b34801561024257600080fd5b5061024b610796565b6040805160208082528351818301528351919283929083019185019080838360005b8381101561028557818101518382015260200161026d565b50505050905090810190601f1680156102b25780820380516001836020036101000a031916815260200191505b509250505060405180910390f35b3480156102cc57600080fd5b506102e1600160a060020a0360043516610824565b60408051918252519081900360200190f35b3480156102ff57600080fd5b506102e1600160a060020a03600435166108dc565b34801561032057600080fd5b50610329610963565b60408051600160a060020a039092168252519081900360200190f35b34801561035157600080fd5b50610329610972565b34801561036657600080fd5b506102e1600160a060020a0360043516610981565b34801561038757600080fd5b506102e16004351515610a9c565b3480156103a157600080fd5b50610329610aef565b3480156103b657600080fd5b506103bf610b03565b6040805160ff9092168252519081900360200190f35b3480156103e157600080fd5b50610329610b0c565b3480156103f657600080fd5b50610402600435610b1b565b60408051600160a060020a0390941684529115156020840152151582820152519081900360600190f35b34801561043857600080fd5b506102e1610b4c565b34801561044d57600080fd5b506102e1610b9e565b34801561046257600080fd5b506102e1610ba4565b34801561047757600080fd5b5061024b610baa565b34801561048c57600080fd5b50610495610c02565b604080519115158252519081900360200190f35b3480156104b557600080fd5b506102e1610c10565b3480156104ca57600080fd5b5061024b610c16565b3480156104df57600080fd5b50610329610c70565b3480156104f457600080fd5b50610329610c7f565b34801561050957600080fd5b50610495600160a060020a0360043516610c8e565b34801561052a57600080fd5b5061024b610d02565b34801561053f57600080fd5b50610495600160a060020a0360043516610d5d565b34801561056057600080fd5b506102e1600160a060020a0360043516610dea565b34801561058157600080fd5b50610329610e70565b34801561059657600080fd5b506102e1600160a060020a03600435166024351515610e85565b3480156105bc57600080fd5b5061024b610fbf565b3480156105d157600080fd5b50610495600160a060020a036004351661101a565b3480156105f257600080fd5b506102e1600160a060020a03600435166110a7565b34801561061357600080fd5b506102e161112e565b34801561062857600080fd5b506102e1600160a060020a0360043516611134565b34801561064957600080fd5b506103296111cb565b34801561065e57600080fd5b506102e16111da565b34801561067357600080fd5b506106826004356024356111e0565b60408051602080825283518183015283519192839290830191858101910280838360005b838110156106be5781810151838201526020016106a6565b505050509050019250505060405180910390f35b3480156106de57600080fd5b506103296112e6565b3480156106f357600080fd5b506104956112f5565b34801561070857600080fd5b506102e1600160a060020a03600435166112fe565b34801561072957600080fd5b506106826004356024356113b4565b34801561074457600080fd5b506102e16114be565b34801561075957600080fd5b506102e1600160a060020a03600435166114c4565b34801561077a57600080fd5b506102e16114d6565b8181018281101561079057fe5b92915050565b6007805460408051602060026001851615610100026000190190941693909304601f8101849004840282018401909252818152929183018282801561081c5780601f106107f15761010080835404028352916020019161081c565b820191906000526020600020905b8154815290600101906020018083116107ff57829003601f168201915b505050505081565b60008054819060ff161580156108425750600054610100900460ff16155b151561084d57600080fd5b600054620100009004600160a060020a0316331461086a57600080fd5b5050600160a060020a038116600090815260146020908152604080832054835260139091529020805474ff0000000000000000000000000000000000000000191660a060020a178155600e80546001908101909155600f80546000190190556012805490910190819055905b50919050565b6000805460ff161580156108f85750600054610100900460ff16155b151561090357600080fd5b600054620100009004600160a060020a0316331461092057600080fd5b600160a060020a038216151561093557600080fd5b5060068054600160a060020a038316600160a060020a03199091161790556012805460010190819055919050565b601654600160a060020a031681565b600354600160a060020a031681565b600080548190819060ff161580156109a15750600054610100900460ff16155b15156109ac57600080fd5b600054620100009004600160a060020a031633146109c957600080fd5b6015546001106109d857600080fd5b6109e184610c8e565b15156109ec57600080fd5b505060125460005b601554811015610a835783600160a060020a0316601582815481101515610a1757fe5b600091825260209091200154600160a060020a03161415610a7b576015805482908110610a4057fe5b60009182526020909120018054600160a060020a03191690556015805490610a6c9060001983016114ee565b50601280546001019055610a83565b6001016109f4565b6012548210610a9157600080fd5b505060125492915050565b60008054620100009004600160a060020a03163314610aba57600080fd5b600054610100900460ff1615610acf57600080fd5b506000805460ff1916911515919091179055601280546001019081905590565b600b546101009004600160a060020a031681565b600b5460ff1681565b600454600160a060020a031681565b601360205260009081526040902054600160a060020a0381169060ff60a060020a820481169160a860020a90041683565b60008054620100009004600160a060020a03163314610b6a57600080fd5b600054610100900460ff1615610b7f57600080fd5b506000805461ff00191661010017905560128054600101908190555b90565b60155490565b600e5481565b6002805460408051602060018416156101000260001901909316849004601f8101849004840282018401909252818152929183018282801561081c5780601f106107f15761010080835404028352916020019161081c565b600054610100900460ff1681565b600f5481565b60018054604080516020600284861615610100026000190190941693909304601f8101849004840282018401909252818152929183018282801561081c5780601f106107f15761010080835404028352916020019161081c565b600c54600160a060020a031681565b600554600160a060020a031681565b600080600160a060020a0383161515610ca657600080fd5b5060005b601554811015610cf95782600160a060020a0316601582815481101515610ccd57fe5b600091825260209091200154600160a060020a03161415610cf157600191506108d6565b600101610caa565b50600092915050565b6008805460408051602060026001851615610100026000190190941693909304601f8101849004840282018401909252818152929183018282801561081c5780601f106107f15761010080835404028352916020019161081c565b600160a060020a03811660009081526014602052604081205481108015610db05750600160a060020a0382166000908152601460209081526040808320548352601390915290205460a060020a900460ff165b8015610790575050600160a060020a03166000908152601460209081526040808320548352601390915290205460a860020a900460ff1690565b6000805460ff16158015610e065750600054610100900460ff16155b1515610e1157600080fd5b600054620100009004600160a060020a03163314610e2e57600080fd5b610e3782610c8e565b1515610e4257600080fd5b5060168054600160a060020a038316600160a060020a03199091161790556012805460010190819055919050565b600054620100009004600160a060020a031681565b60008054819060ff16158015610ea35750600054610100900460ff16155b1515610eae57600080fd5b600054620100009004600160a060020a03163314610ecb57600080fd5b600160a060020a0384161515610ee057600080fd5b600160a060020a03841660009081526014602052604090205415610f0357600080fd5b6010805460010190558215610f2057600e80546001019055610f2a565b600f805460010190555b5050601054600160a060020a039290921660008181526014602090815260408083208690559482526013905292909220805475ff0000000000000000000000000000000000000000001992151560a060020a0274ff000000000000000000000000000000000000000019600160a060020a031990921690941716929092171660a860020a179055601280546001019081905590565b6009805460408051602060026001851615610100026000190190941693909304601f8101849004840282018401909252818152929183018282801561081c5780601f106107f15761010080835404028352916020019161081c565b600160a060020a03811660009081526014602052604081205481108015610db05750600160a060020a0382166000908152601460209081526040808320548352601390915290205460a060020a900460ff16158015610790575050600160a060020a03166000908152601460209081526040808320548352601390915290205460a860020a900460ff1690565b6000805460ff161580156110c35750600054610100900460ff16155b15156110ce57600080fd5b600054620100009004600160a060020a031633146110eb57600080fd5b600160a060020a038216151561110057600080fd5b5060058054600160a060020a038316600160a060020a03199091161790556012805460010190819055919050565b60125481565b6000805460ff161580156111505750600054610100900460ff16155b151561115b57600080fd5b600054620100009004600160a060020a0316331461117857600080fd5b600160a060020a038216151561118d57600080fd5b600b5460ff161561119d57600080fd5b5060048054600160a060020a038316600160a060020a03199091161790556012805460010190819055919050565b600d54600160a060020a031681565b60115481565b6060806000600185101580156111f65750848410155b801561120457508360105410155b151561120f57600080fd5b6112306001611224868863ffffffff6114dc16565b9063ffffffff61078316565b604051908082528060200260200182016040528015611259578160200160208202803883390190505b5091508490505b8381116112de5760008181526013602052604090205460a860020a900460ff1661128b5760006112a4565b600081815260136020526040902054600160a060020a03165b826112b5838863ffffffff6114dc16565b815181106112bf57fe5b600160a060020a03909216602092830290910190910152600101611260565b509392505050565b600654600160a060020a031681565b60005460ff1681565b6000805460ff1615801561131a5750600054610100900460ff16155b151561132557600080fd5b600054620100009004600160a060020a0316331461134257600080fd5b61134b82610c8e565b1561135557600080fd5b5060158054600181810183556000929092527f55f448fdea98c4d29eb340757ef0a66cd03dbb9538908a6a81d96026b71ec475018054600160a060020a038416600160a060020a03199091161790556012805490910190819055919050565b60608060008085101580156113c95750848410155b15156113d457600080fd5b6015546000106113e357600080fd5b6113f86001611224868863ffffffff6114dc16565b604051908082528060200260200182016040528015611421578160200160208202803883390190505b5060155490925061143990600163ffffffff6114dc16565b8411156114575760155461145490600163ffffffff6114dc16565b93505b50835b8381116112de57601580548290811061146f57fe5b600091825260209091200154600160a060020a031682611495838863ffffffff6114dc16565b8151811061149f57fe5b600160a060020a0390921660209283029091019091015260010161145a565b600a5481565b60146020526000908152604090205481565b60105481565b6000828211156114e857fe5b50900390565b81548183558181111561151257600083815260209020611512918101908301611517565b505050565b610b9b91905b80821115611531576000815560010161151d565b50905600a165627a7a7230582022c23a769b31d015c55fa8d6374fc6b270a0ac4907d91320e08f046212ddb0b00029",
	"source": "pragma solidity ^0.4.24;\n\nimport './TAO.sol';\nimport './SafeMath.sol';\n\n/**\n * @title Name\n */\ncontract Name is TAO {\n\tusing SafeMath for uint256;\n\n\taddress[] internal publicKeys;\n\taddress public defaultPublicKey;\n\n\t/**\n\t * @dev Constructor function\n\t */\n\tconstructor (string _username, address _originId, string _datHash, string _database, string _keyValue, bytes32 _contentId)\n\t\tTAO (_username, _username, _originId, _datHash, _database, _keyValue, _contentId, _originId, address(0)) public {\n\t\t// Creating Name\n\t\ttaoTypeId = 1;\n\n\t\tadvocateId = address(this);\n\t\tlistenerId = advocateId;\n\t\tspeakerId = advocateId;\n\n\t\t// Store the publicKey\n\t\tpublicKeys.push(_originId);\n\t\tdefaultPublicKey = _originId;\n\t}\n\n\t/**\n\t * @dev Get total publicKeys count\n\t * @return total publicKeys count\n\t */\n\tfunction getTotalPublicKeysCount() public view returns (uint256) {\n\t\treturn publicKeys.length;\n\t}\n\n\t/**\n\t * @dev Get list of publicKeys\n\t * @param _from The starting index\n\t * @param _to The ending index\n\t * @return list of publicKeys\n\t */\n\tfunction getPublicKeys(uint256 _from, uint256 _to) public view returns (address[]) {\n\t\trequire (_from >= 0 && _to >= _from);\n\t\trequire (publicKeys.length > 0);\n\n\t\taddress[] memory _publicKeys = new address[](_to.sub(_from).add(1));\n\t\tif (_to > publicKeys.length.sub(1)) {\n\t\t\t_to = publicKeys.length.sub(1);\n\t\t}\n\t\tfor (uint256 i = _from; i <= _to; i++) {\n\t\t\t_publicKeys[i.sub(_from)] = publicKeys[i];\n\t\t}\n\t\treturn _publicKeys;\n\t}\n\n\t/**\n\t * @dev Check whether or not a publicKey exist in the list\n\t * @param _publicKey The publicKey to check\n\t * @return true if yes. false otherwise\n\t */\n\tfunction isPublicKeyExist(address _publicKey) public view returns (bool) {\n\t\trequire (_publicKey != address(0));\n\t\tfor (uint256 i = 0; i < publicKeys.length; i++) {\n\t\t\tif (publicKeys[i] == _publicKey) {\n\t\t\t\treturn true;\n\t\t\t}\n\t\t}\n\t\treturn false;\n\t}\n\n\t/**\n\t * @dev Add publicKey to list\n\t * @param _publicKey The publicKey to be added\n\t * @return the nonce for this transaction\n\t */\n\tfunction addPublicKey(address _publicKey) public isActive onlyFactory returns (uint256) {\n\t\trequire (!isPublicKeyExist(_publicKey));\n\t\tpublicKeys.push(_publicKey);\n\t\tnonce++;\n\t\treturn nonce;\n\t}\n\n\t/**\n\t * @dev Delete publicKey from the list\n\t * @param _publicKey The publicKey to be deleted\n\t * @return the nonce for this transaction\n\t */\n\tfunction deletePublicKey(address _publicKey) public isActive onlyFactory returns (uint256) {\n\t\trequire (publicKeys.length > 1);\n\t\trequire (isPublicKeyExist(_publicKey));\n\t\tuint256 _nonce = nonce;\n\t\tfor (uint256 i = 0; i < publicKeys.length; i++) {\n\t\t\tif (publicKeys[i] == _publicKey) {\n\t\t\t\tdelete publicKeys[i];\n\t\t\t\tpublicKeys.length--;\n\t\t\t\tnonce++;\n\t\t\t\tbreak;\n\t\t\t}\n\t\t}\n\t\trequire (nonce > _nonce);\n\t\treturn nonce;\n\t}\n\n\t/**\n\t * @dev Set a publicKey as the default\n\t * @param _publicKey The publicKey to be set\n\t * @return the nonce for this transaction\n\t */\n\tfunction setDefaultPublicKey(address _publicKey) public isActive onlyFactory returns (uint256) {\n\t\trequire (isPublicKeyExist(_publicKey));\n\t\tdefaultPublicKey = _publicKey;\n\t\tnonce++;\n\t\treturn nonce;\n\t}\n}\n",
	"sourcePath": "/home/jmulyono/ao-contracts/contracts/Name.sol",
	"compiler": {
		"name": "solc",
		"version": "0.4.24+commit.e67f0147.Emscripten.clang"
	},
	"schemaVersion": "2.0.1",
	"updatedAt": "2018-12-19T04:35:19.210Z"
}