{
	"contractName": "NameFactory",
	"abi": [
		{
			"constant": true,
			"inputs": [],
			"name": "voiceAddress",
			"outputs": [
				{
					"name": "",
					"type": "address"
				}
			],
			"payable": false,
			"stateMutability": "view",
			"type": "function"
		},
		{
			"constant": true,
			"inputs": [],
			"name": "nameTAOPositionAddress",
			"outputs": [
				{
					"name": "",
					"type": "address"
				}
			],
			"payable": false,
			"stateMutability": "view",
			"type": "function"
		},
		{
			"constant": true,
			"inputs": [
				{
					"name": "",
					"type": "address"
				}
			],
			"name": "whitelist",
			"outputs": [
				{
					"name": "",
					"type": "bool"
				}
			],
			"payable": false,
			"stateMutability": "view",
			"type": "function"
		},
		{
			"constant": true,
			"inputs": [],
			"name": "nameAccountRecoveryAddress",
			"outputs": [
				{
					"name": "",
					"type": "address"
				}
			],
			"payable": false,
			"stateMutability": "view",
			"type": "function"
		},
		{
			"constant": true,
			"inputs": [],
			"name": "theAO",
			"outputs": [
				{
					"name": "",
					"type": "address"
				}
			],
			"payable": false,
			"stateMutability": "view",
			"type": "function"
		},
		{
			"constant": true,
			"inputs": [],
			"name": "nameTAOVaultAddress",
			"outputs": [
				{
					"name": "",
					"type": "address"
				}
			],
			"payable": false,
			"stateMutability": "view",
			"type": "function"
		},
		{
			"constant": true,
			"inputs": [],
			"name": "namePublicKeyAddress",
			"outputs": [
				{
					"name": "",
					"type": "address"
				}
			],
			"payable": false,
			"stateMutability": "view",
			"type": "function"
		},
		{
			"constant": true,
			"inputs": [],
			"name": "nameTAOLookupAddress",
			"outputs": [
				{
					"name": "",
					"type": "address"
				}
			],
			"payable": false,
			"stateMutability": "view",
			"type": "function"
		},
		{
			"inputs": [
				{
					"name": "_voiceAddress",
					"type": "address"
				}
			],
			"payable": false,
			"stateMutability": "nonpayable",
			"type": "constructor"
		},
		{
			"anonymous": false,
			"inputs": [
				{
					"indexed": true,
					"name": "ethAddress",
					"type": "address"
				},
				{
					"indexed": false,
					"name": "nameId",
					"type": "address"
				},
				{
					"indexed": false,
					"name": "index",
					"type": "uint256"
				},
				{
					"indexed": false,
					"name": "name",
					"type": "string"
				}
			],
			"name": "CreateName",
			"type": "event"
		},
		{
			"constant": false,
			"inputs": [
				{
					"name": "_theAO",
					"type": "address"
				}
			],
			"name": "transferOwnership",
			"outputs": [],
			"payable": false,
			"stateMutability": "nonpayable",
			"type": "function"
		},
		{
			"constant": false,
			"inputs": [
				{
					"name": "_account",
					"type": "address"
				},
				{
					"name": "_whitelist",
					"type": "bool"
				}
			],
			"name": "setWhitelist",
			"outputs": [],
			"payable": false,
			"stateMutability": "nonpayable",
			"type": "function"
		},
		{
			"constant": false,
			"inputs": [
				{
					"name": "_voiceAddress",
					"type": "address"
				}
			],
			"name": "setVoiceAddress",
			"outputs": [],
			"payable": false,
			"stateMutability": "nonpayable",
			"type": "function"
		},
		{
			"constant": false,
			"inputs": [
				{
					"name": "_nameTAOVaultAddress",
					"type": "address"
				}
			],
			"name": "setNameTAOVaultAddress",
			"outputs": [],
			"payable": false,
			"stateMutability": "nonpayable",
			"type": "function"
		},
		{
			"constant": false,
			"inputs": [
				{
					"name": "_nameTAOLookupAddress",
					"type": "address"
				}
			],
			"name": "setNameTAOLookupAddress",
			"outputs": [],
			"payable": false,
			"stateMutability": "nonpayable",
			"type": "function"
		},
		{
			"constant": false,
			"inputs": [
				{
					"name": "_nameTAOPositionAddress",
					"type": "address"
				}
			],
			"name": "setNameTAOPositionAddress",
			"outputs": [],
			"payable": false,
			"stateMutability": "nonpayable",
			"type": "function"
		},
		{
			"constant": false,
			"inputs": [
				{
					"name": "_namePublicKeyAddress",
					"type": "address"
				}
			],
			"name": "setNamePublicKeyAddress",
			"outputs": [],
			"payable": false,
			"stateMutability": "nonpayable",
			"type": "function"
		},
		{
			"constant": false,
			"inputs": [
				{
					"name": "_nameAccountRecoveryAddress",
					"type": "address"
				}
			],
			"name": "setNameAccountRecoveryAddress",
			"outputs": [],
			"payable": false,
			"stateMutability": "nonpayable",
			"type": "function"
		},
		{
			"constant": false,
			"inputs": [
				{
					"name": "_id",
					"type": "address"
				},
				{
					"name": "_newAddress",
					"type": "address"
				}
			],
			"name": "setNameNewAddress",
			"outputs": [
				{
					"name": "",
					"type": "bool"
				}
			],
			"payable": false,
			"stateMutability": "nonpayable",
			"type": "function"
		},
		{
			"constant": true,
			"inputs": [
				{
					"name": "_nameId",
					"type": "address"
				}
			],
			"name": "nonces",
			"outputs": [
				{
					"name": "",
					"type": "uint256"
				}
			],
			"payable": false,
			"stateMutability": "view",
			"type": "function"
		},
		{
			"constant": false,
			"inputs": [
				{
					"name": "_nameId",
					"type": "address"
				}
			],
			"name": "incrementNonce",
			"outputs": [
				{
					"name": "",
					"type": "uint256"
				}
			],
			"payable": false,
			"stateMutability": "nonpayable",
			"type": "function"
		},
		{
			"constant": false,
			"inputs": [
				{
					"name": "_name",
					"type": "string"
				},
				{
					"name": "_datHash",
					"type": "string"
				},
				{
					"name": "_database",
					"type": "string"
				},
				{
					"name": "_keyValue",
					"type": "string"
				},
				{
					"name": "_contentId",
					"type": "bytes32"
				},
				{
					"name": "_writerKey",
					"type": "address"
				}
			],
			"name": "createName",
			"outputs": [],
			"payable": false,
			"stateMutability": "nonpayable",
			"type": "function"
		},
		{
			"constant": true,
			"inputs": [
				{
					"name": "_ethAddress",
					"type": "address"
				}
			],
			"name": "ethAddressToNameId",
			"outputs": [
				{
					"name": "",
					"type": "address"
				}
			],
			"payable": false,
			"stateMutability": "view",
			"type": "function"
		},
		{
			"constant": true,
			"inputs": [
				{
					"name": "_nameId",
					"type": "address"
				}
			],
			"name": "nameIdToEthAddress",
			"outputs": [
				{
					"name": "",
					"type": "address"
				}
			],
			"payable": false,
			"stateMutability": "view",
			"type": "function"
		},
		{
			"constant": true,
			"inputs": [
				{
					"name": "_nameId",
					"type": "address"
				}
			],
			"name": "getName",
			"outputs": [
				{
					"name": "",
					"type": "string"
				},
				{
					"name": "",
					"type": "address"
				},
				{
					"name": "",
					"type": "string"
				},
				{
					"name": "",
					"type": "string"
				},
				{
					"name": "",
					"type": "string"
				},
				{
					"name": "",
					"type": "bytes32"
				},
				{
					"name": "",
					"type": "uint8"
				}
			],
			"payable": false,
			"stateMutability": "view",
			"type": "function"
		},
		{
			"constant": true,
			"inputs": [],
			"name": "getTotalNamesCount",
			"outputs": [
				{
					"name": "",
					"type": "uint256"
				}
			],
			"payable": false,
			"stateMutability": "view",
			"type": "function"
		},
		{
			"constant": true,
			"inputs": [
				{
					"name": "_from",
					"type": "uint256"
				},
				{
					"name": "_to",
					"type": "uint256"
				}
			],
			"name": "getNameIds",
			"outputs": [
				{
					"name": "",
					"type": "address[]"
				}
			],
			"payable": false,
			"stateMutability": "view",
			"type": "function"
		},
		{
			"constant": true,
			"inputs": [
				{
					"name": "_data",
					"type": "string"
				},
				{
					"name": "_nonce",
					"type": "uint256"
				},
				{
					"name": "_validateAddress",
					"type": "address"
				},
				{
					"name": "_name",
					"type": "string"
				},
				{
					"name": "_signatureV",
					"type": "uint8"
				},
				{
					"name": "_signatureR",
					"type": "bytes32"
				},
				{
					"name": "_signatureS",
					"type": "bytes32"
				}
			],
			"name": "validateNameSignature",
			"outputs": [
				{
					"name": "",
					"type": "bool"
				}
			],
			"payable": false,
			"stateMutability": "view",
			"type": "function"
		}
	],
	"bytecode": "0x60806040523480156200001157600080fd5b5060405160208062002a14833981018060405260208110156200003357600080fd5b505160008054600160a060020a031916331790556200005b8164010000000062000062810204565b506200016a565b600054600154604080517ff66afcac000000000000000000000000000000000000000000000000000000008152336004820152600160a060020a0393841660248201529290911660448301525173__AOLibrary_____________________________9163f66afcac916064808301926020929190829003018186803b158015620000eb57600080fd5b505af415801562000100573d6000803e3d6000fd5b505050506040513d60208110156200011757600080fd5b505115156200012557600080fd5b600160a060020a03811615156200013b57600080fd5b60038054600160a060020a0319908116600160a060020a03938416179182905560088054929093169116179055565b61289a806200017a6000396000f3fe608060405234801561001057600080fd5b50600436106101925760003560e060020a900480637ecebe00116100e2578063d8ce52d11161009b578063e9233a6511610075578063e9233a6514610963578063f2fde38b146109d6578063f5743c4c146109fc578063fc86202714610a2257610192565b8063d8ce52d11461092d578063df2721f014610935578063e20573441461093d57610192565b80637ecebe00146106805780639b19251a146106a6578063a4e5fad2146106cc578063a9b6b38e146106d4578063aea15246146106dc578063afb2dd871461092557610192565b8063419e6e5c1161014f5780635cfaf2ef116101295780635cfaf2ef146102e75780635fd4b08a1461030d5780636d9aa0341461050a578063743ab5381461053057610192565b8063419e6e5c146102975780634ef033f0146102b157806353d6fd59146102b957610192565b8063029b7d531461019757806319d4cc31146101d95780631dfde2bd146102015780632b3fd4a0146102275780632d2f45b9146102695780633670832e14610271575b600080fd5b6101bd600480360360208110156101ad57600080fd5b5035600160a060020a0316610a48565b60408051600160a060020a039092168252519081900360200190f35b6101ff600480360360208110156101ef57600080fd5b5035600160a060020a0316610a66565b005b6101ff6004803603602081101561021757600080fd5b5035600160a060020a0316610b53565b6102556004803603604081101561023d57600080fd5b50600160a060020a0381358116916020013516610c40565b604080519115158252519081900360200190f35b6101bd610dc4565b6101ff6004803603602081101561028757600080fd5b5035600160a060020a0316610dd3565b61029f610eb3565b60408051918252519081900360200190f35b6101bd610eb9565b6101ff600480360360408110156102cf57600080fd5b50600160a060020a0381351690602001351515610ec8565b6101ff600480360360208110156102fd57600080fd5b5035600160a060020a0316610fb1565b6103336004803603602081101561032357600080fd5b5035600160a060020a031661109e565b604051808060200188600160a060020a0316600160a060020a031681526020018060200180602001806020018781526020018660ff1660ff16815260200185810385528c818151815260200191508051906020019080838360005b838110156103a657818101518382015260200161038e565b50505050905090810190601f1680156103d35780820380516001836020036101000a031916815260200191505b5085810384528a5181528a516020918201918c019080838360005b838110156104065781810151838201526020016103ee565b50505050905090810190601f1680156104335780820380516001836020036101000a031916815260200191505b5085810383528951815289516020918201918b019080838360005b8381101561046657818101518382015260200161044e565b50505050905090810190601f1680156104935780820380516001836020036101000a031916815260200191505b5085810382528851815288516020918201918a019080838360005b838110156104c65781810151838201526020016104ae565b50505050905090810190601f1680156104f35780820380516001836020036101000a031916815260200191505b509b50505050505050505050505060405180910390f35b6101ff6004803603602081101561052057600080fd5b5035600160a060020a0316611551565b610255600480360360e081101561054657600080fd5b81019060208101813564010000000081111561056157600080fd5b82018360208201111561057357600080fd5b8035906020019184600183028401116401000000008311171561059557600080fd5b91908080601f0160208091040260200160405190810160405280939291908181526020018383808284376000920191909152509295843595600160a060020a03602087013516959194509250606081019150604001356401000000008111156105fd57600080fd5b82018360208201111561060f57600080fd5b8035906020019184600183028401116401000000008311171561063157600080fd5b91908080601f0160208091040260200160405190810160405280939291908181526020018383808284376000920191909152509295505060ff833516935050506020810135906040013561163e565b61029f6004803603602081101561069657600080fd5b5035600160a060020a0316611a1b565b610255600480360360208110156106bc57600080fd5b5035600160a060020a0316611a36565b6101bd611a4b565b6101bd611a5a565b6101ff600480360360c08110156106f257600080fd5b81019060208101813564010000000081111561070d57600080fd5b82018360208201111561071f57600080fd5b8035906020019184600183028401116401000000008311171561074157600080fd5b91908080601f016020809104026020016040519081016040528093929190818152602001838380828437600092019190915250929594936020810193503591505064010000000081111561079457600080fd5b8201836020820111156107a657600080fd5b803590602001918460018302840111640100000000831117156107c857600080fd5b91908080601f016020809104026020016040519081016040528093929190818152602001838380828437600092019190915250929594936020810193503591505064010000000081111561081b57600080fd5b82018360208201111561082d57600080fd5b8035906020019184600183028401116401000000008311171561084f57600080fd5b91908080601f01602080910402602001604051908101604052809392919081815260200183838082843760009201919091525092959493602081019350359150506401000000008111156108a257600080fd5b8201836020820111156108b457600080fd5b803590602001918460018302840111640100000000831117156108d657600080fd5b91908080601f0160208091040260200160405190810160405280939291908181526020018383808284376000920191909152509295505082359350505060200135600160a060020a0316611a69565b6101bd612381565b6101bd612390565b6101bd61239f565b6101bd6004803603602081101561095357600080fd5b5035600160a060020a03166123ae565b6109866004803603604081101561097957600080fd5b50803590602001356123cc565b60408051602080825283518183015283519192839290830191858101910280838360005b838110156109c25781810151838201526020016109aa565b505050509050019250505060405180910390f35b6101ff600480360360208110156109ec57600080fd5b5035600160a060020a03166124e9565b61029f60048036036020811015610a1257600080fd5b5035600160a060020a03166125c9565b6101ff60048036036020811015610a3857600080fd5b5035600160a060020a0316612656565b600160a060020a039081166000908152600e60205260409020541690565b6000546001546040805160e260020a633d9abf2b028152336004820152600160a060020a0393841660248201529290911660448301525173__AOLibrary_____________________________9163f66afcac916064808301926020929190829003018186803b158015610ad857600080fd5b505af4158015610aec573d6000803e3d6000fd5b505050506040513d6020811015610b0257600080fd5b50511515610b0f57600080fd5b600160a060020a0381161515610b2457600080fd5b60038054600160a060020a0319908116600160a060020a03938416179182905560088054929093169116179055565b6000546001546040805160e260020a633d9abf2b028152336004820152600160a060020a0393841660248201529290911660448301525173__AOLibrary_____________________________9163f66afcac916064808301926020929190829003018186803b158015610bc557600080fd5b505af4158015610bd9573d6000803e3d6000fd5b505050506040513d6020811015610bef57600080fd5b50511515610bfc57600080fd5b600160a060020a0381161515610c1157600080fd5b60078054600160a060020a0319908116600160a060020a039384161791829055600c8054929093169116179055565b600754600090600160a060020a03163314610c5a57600080fd5b604080517f2d706a34000000000000000000000000000000000000000000000000000000008152600160a060020a0385166004820152905173__AOLibrary_____________________________91632d706a34916024808301926020929190829003018186803b158015610ccd57600080fd5b505af4158015610ce1573d6000803e3d6000fd5b505050506040513d6020811015610cf757600080fd5b50511515610d0457600080fd5b600160a060020a0382161515610d1957600080fd5b600160a060020a038281166000908152600e60205260409020541615610d3e57600080fd5b600160a060020a038381166000908152600f6020526040902054161515610d6457600080fd5b50600160a060020a039182166000818152600f60208181526040808420805488168552600e83528185208054600160a060020a03199081169091559690971680855290842080548716861790559390925290528254909116179055600190565b600354600160a060020a031681565b6000546001546040805160e260020a633d9abf2b028152336004820152600160a060020a0393841660248201529290911660448301525173__AOLibrary_____________________________9163f66afcac916064808301926020929190829003018186803b158015610e4557600080fd5b505af4158015610e59573d6000803e3d6000fd5b505050506040513d6020811015610e6f57600080fd5b50511515610e7c57600080fd5b600160a060020a0381161515610e9157600080fd5b60048054600160a060020a031916600160a060020a0392909216919091179055565b600d5490565b600154600160a060020a031681565b6000546001546040805160e260020a633d9abf2b028152336004820152600160a060020a0393841660248201529290911660448301525173__AOLibrary_____________________________9163f66afcac916064808301926020929190829003018186803b158015610f3a57600080fd5b505af4158015610f4e573d6000803e3d6000fd5b505050506040513d6020811015610f6457600080fd5b50511515610f7157600080fd5b600160a060020a0382161515610f8657600080fd5b600160a060020a03919091166000908152600260205260409020805460ff1916911515919091179055565b6000546001546040805160e260020a633d9abf2b028152336004820152600160a060020a0393841660248201529290911660448301525173__AOLibrary_____________________________9163f66afcac916064808301926020929190829003018186803b15801561102357600080fd5b505af4158015611037573d6000803e3d6000fd5b505050506040513d602081101561104d57600080fd5b5051151561105a57600080fd5b600160a060020a038116151561106f57600080fd5b60018054600160a060020a0319908116600160a060020a039384161791829055600a8054929093169116179055565b606060006060806060600080600088905080600160a060020a03166306fdde036040518163ffffffff1660e060020a02815260040160006040518083038186803b1580156110eb57600080fd5b505afa1580156110ff573d6000803e3d6000fd5b505050506040513d6000823e601f3d908101601f19168201604052602081101561112857600080fd5b81019080805164010000000081111561114057600080fd5b8201602081018481111561115357600080fd5b815164010000000081118282018710171561116d57600080fd5b505092919050505081600160a060020a03166313866efa6040518163ffffffff1660e060020a02815260040160206040518083038186803b1580156111b157600080fd5b505afa1580156111c5573d6000803e3d6000fd5b505050506040513d60208110156111db57600080fd5b5051604080517f056847900000000000000000000000000000000000000000000000000000000081529051600160a060020a038516916305684790916004808301926000929190829003018186803b15801561123657600080fd5b505afa15801561124a573d6000803e3d6000fd5b505050506040513d6000823e601f3d908101601f19168201604052602081101561127357600080fd5b81019080805164010000000081111561128b57600080fd5b8201602081018481111561129e57600080fd5b81516401000000008111828201871017156112b857600080fd5b505092919050505083600160a060020a031663713b563f6040518163ffffffff1660e060020a02815260040160006040518083038186803b1580156112fc57600080fd5b505afa158015611310573d6000803e3d6000fd5b505050506040513d6000823e601f3d908101601f19168201604052602081101561133957600080fd5b81019080805164010000000081111561135157600080fd5b8201602081018481111561136457600080fd5b815164010000000081118282018710171561137e57600080fd5b505092919050505084600160a060020a031663a727be576040518163ffffffff1660e060020a02815260040160006040518083038186803b1580156113c257600080fd5b505afa1580156113d6573d6000803e3d6000fd5b505050506040513d6000823e601f3d908101601f1916820160405260208110156113ff57600080fd5b81019080805164010000000081111561141757600080fd5b8201602081018481111561142a57600080fd5b815164010000000081118282018710171561144457600080fd5b505092919050505085600160a060020a031663d97aa9776040518163ffffffff1660e060020a02815260040160206040518083038186803b15801561148857600080fd5b505afa15801561149c573d6000803e3d6000fd5b505050506040513d60208110156114b257600080fd5b5051604080517f8f940f630000000000000000000000000000000000000000000000000000000081529051600160a060020a03891691638f940f63916004808301926020929190829003018186803b15801561150d57600080fd5b505afa158015611521573d6000803e3d6000fd5b505050506040513d602081101561153757600080fd5b5051959f949e50929c50909a509850965090945092505050565b6000546001546040805160e260020a633d9abf2b028152336004820152600160a060020a0393841660248201529290911660448301525173__AOLibrary_____________________________9163f66afcac916064808301926020929190829003018186803b1580156115c357600080fd5b505af41580156115d7573d6000803e3d6000fd5b505050506040513d60208110156115ed57600080fd5b505115156115fa57600080fd5b600160a060020a038116151561160f57600080fd5b60068054600160a060020a0319908116600160a060020a039384161791829055600b8054929093169116179055565b6009546040517f4d3d096b000000000000000000000000000000000000000000000000000000008152602060048201818152875160248401528751600094600160a060020a031693634d3d096b938a93928392604401918501908083838b5b838110156116b557818101518382015260200161169d565b50505050905090810190601f1680156116e25780820380516001836020036101000a031916815260200191505b509250505060206040518083038186803b1580156116ff57600080fd5b505afa158015611713573d6000803e3d6000fd5b505050506040513d602081101561172957600080fd5b5051151561173657600080fd5b6009546040517f1367944b000000000000000000000000000000000000000000000000000000008152602060048201818152885160248401528851600094600160a060020a031693631367944b938b93928392604401918501908083838b5b838110156117ad578181015183820152602001611795565b50505050905090810190601f1680156117da5780820380516001836020036101000a031916815260200191505b509250505060206040518083038186803b1580156117f757600080fd5b505afa15801561180b573d6000803e3d6000fd5b505050506040513d602081101561182157600080fd5b5051905060006118348a8a888888612743565b9050600160a060020a0388161561193957600160a060020a03821660009081526010602052604090205461186f90600163ffffffff61284916565b8914801561188e575087600160a060020a031681600160a060020a0316145b80156119305750600b54604080517fa481247c000000000000000000000000000000000000000000000000000000008152600160a060020a0385811660048301528b811660248301529151919092169163a481247c916044808301926020929190829003018186803b15801561190357600080fd5b505afa158015611917573d6000803e3d6000fd5b505050506040513d602081101561192d57600080fd5b50515b92505050611a10565b600160a060020a03821660009081526010602052604090205461196390600163ffffffff61284916565b891480156119305750600b54604080517fdb536d2f000000000000000000000000000000000000000000000000000000008152600160a060020a0385811660048301529151919092169163db536d2f916024808301926020929190829003018186803b1580156119d257600080fd5b505afa1580156119e6573d6000803e3d6000fd5b505050506040513d60208110156119fc57600080fd5b5051600160a060020a039081169116149150505b979650505050505050565b600160a060020a031660009081526010602052604090205490565b60026020526000908152604090205460ff1681565b600754600160a060020a031681565b600054600160a060020a031681565b8551600010611a7757600080fd5b6009546040517f4d3d096b000000000000000000000000000000000000000000000000000000008152602060048201818152895160248401528951600160a060020a0390941693634d3d096b938b9383926044909201919085019080838360005b83811015611af0578181015183820152602001611ad8565b50505050905090810190601f168015611b1d5780820380516001836020036101000a031916815260200191505b509250505060206040518083038186803b158015611b3a57600080fd5b505afa158015611b4e573d6000803e3d6000fd5b505050506040513d6020811015611b6457600080fd5b505115611b7057600080fd5b336000908152600e6020526040902054600160a060020a031615611b9357600080fd5b600073__AOLibrary_____________________________63a1e79750883389898989600460009054906101000a9004600160a060020a03166040518863ffffffff1660e060020a028152600401808060200188600160a060020a0316600160a060020a0316815260200180602001806020018060200187815260200186600160a060020a0316600160a060020a0316815260200185810385528c818151815260200191508051906020019080838360005b83811015611c5c578181015183820152602001611c44565b50505050905090810190601f168015611c895780820380516001836020036101000a031916815260200191505b5085810384528a5181528a516020918201918c019080838360005b83811015611cbc578181015183820152602001611ca4565b50505050905090810190601f168015611ce95780820380516001836020036101000a031916815260200191505b5085810383528951815289516020918201918b019080838360005b83811015611d1c578181015183820152602001611d04565b50505050905090810190601f168015611d495780820380516001836020036101000a031916815260200191505b5085810382528851815288516020918201918a019080838360005b83811015611d7c578181015183820152602001611d64565b50505050905090810190601f168015611da95780820380516001836020036101000a031916815260200191505b509b50505050505050505050505060206040518083038186803b158015611dcf57600080fd5b505af4158015611de3573d6000803e3d6000fd5b505050506040513d6020811015611df957600080fd5b5051600160a060020a038082166000908152600f60205260409020549192501615611e2357600080fd5b6010600082600160a060020a0316600160a060020a031681526020019081526020016000206000815480929190600101919050555080600e600033600160a060020a0316600160a060020a0316815260200190815260200160002060006101000a815481600160a060020a030219169083600160a060020a0316021790555033600f600083600160a060020a0316600160a060020a0316815260200190815260200160002060006101000a815481600160a060020a030219169083600160a060020a03160217905550600960009054906101000a9004600160a060020a0316600160a060020a031663aaa9165a888360013360026040518663ffffffff1660e060020a028152600401808060200186600160a060020a0316600160a060020a031681526020018581526020018060200185600160a060020a0316600160a060020a03168152602001848152602001838103835288818151815260200191508051906020019080838360005b83811015611fa6578181015183820152602001611f8e565b50505050905090810190601f168015611fd35780820380516001836020036101000a031916815260200191505b50838103825260058152602001807f68756d616e000000000000000000000000000000000000000000000000000000815250602001975050505050505050602060405180830381600087803b15801561202b57600080fd5b505af115801561203f573d6000803e3d6000fd5b505050506040513d602081101561205557600080fd5b5051151561206257600080fd5b600a54604080517ff8c8765e000000000000000000000000000000000000000000000000000000008152600160a060020a0384811660048301819052602483018190526044830181905260648301529151919092169163f8c8765e9160848083019260209291908290030181600087803b1580156120df57600080fd5b505af11580156120f3573d6000803e3d6000fd5b505050506040513d602081101561210957600080fd5b5051151561211657600080fd5b600b54604080517fc0c53b8b000000000000000000000000000000000000000000000000000000008152600160a060020a03848116600483015233602483015285811660448301529151919092169163c0c53b8b9160648083019260209291908290030181600087803b15801561218c57600080fd5b505af11580156121a0573d6000803e3d6000fd5b505050506040513d60208110156121b657600080fd5b505115156121c357600080fd5b600d805460018101825560009182527fd7b6990105719101dabeb77144f2a3385c8033acd3af97e9423a695e81ad1eb5018054600160a060020a031916600160a060020a03848116918217909255600854604080517f6a627842000000000000000000000000000000000000000000000000000000008152600481019390935251921692636a627842926024808401936020939083900390910190829087803b15801561226f57600080fd5b505af1158015612283573d6000803e3d6000fd5b505050506040513d602081101561229957600080fd5b505115156122a657600080fd5b600d5433907fdd445519212181802441b3ea8a0080462d25346f8279d9de28b7a64365d5f2fa9083906122e090600163ffffffff61285c16565b8a6040518084600160a060020a0316600160a060020a0316815260200183815260200180602001828103825283818151815260200191508051906020019080838360005b8381101561233c578181015183820152602001612324565b50505050905090810190601f1680156123695780820380516001836020036101000a031916815260200191505b5094505050505060405180910390a250505050505050565b600454600160a060020a031681565b600654600160a060020a031681565b600554600160a060020a031681565b600160a060020a039081166000908152600f60205260409020541690565b6060600083101580156123df5750828210155b15156123ea57600080fd5b600d546000106123f957600080fd5b606061241c6001612410858763ffffffff61285c16565b9063ffffffff61284916565b604051908082528060200260200182016040528015612445578160200160208202803883390190505b50600d5490915061245d90600163ffffffff61285c16565b83111561247b57600d5461247890600163ffffffff61285c16565b92505b835b8381116124e157600d80548290811061249257fe5b600091825260209091200154600160a060020a0316826124b8838863ffffffff61285c16565b815181106124c257fe5b600160a060020a0390921660209283029091019091015260010161247d565b509392505050565b6000546001546040805160e260020a633d9abf2b028152336004820152600160a060020a0393841660248201529290911660448301525173__AOLibrary_____________________________9163f66afcac916064808301926020929190829003018186803b15801561255b57600080fd5b505af415801561256f573d6000803e3d6000fd5b505050506040513d602081101561258557600080fd5b5051151561259257600080fd5b600160a060020a03811615156125a757600080fd5b60008054600160a060020a031916600160a060020a0392909216919091179055565b600154600090600160a060020a03163314806125ef5750600654600160a060020a031633145b806126045750600754600160a060020a031633145b151561260f57600080fd5b600160a060020a0382166000908152601060205260408120541161263257600080fd5b50600160a060020a0316600090815260106020526040902080546001019081905590565b6000546001546040805160e260020a633d9abf2b028152336004820152600160a060020a0393841660248201529290911660448301525173__AOLibrary_____________________________9163f66afcac916064808301926020929190829003018186803b1580156126c857600080fd5b505af41580156126dc573d6000803e3d6000fd5b505050506040513d60208110156126f257600080fd5b505115156126ff57600080fd5b600160a060020a038116151561271457600080fd5b60058054600160a060020a0319908116600160a060020a03938416179182905560098054929093169116179055565b6000803087876040516020018084600160a060020a0316600160a060020a03166c0100000000000000000000000002815260140183805190602001908083835b602083106127a25780518252601f199092019160209182019101612783565b51815160209384036101000a6000190180199092169116179052920193845250604080518085038152848301808352815191840191909120600090915281850180835281905260ff8c166060860152608085018b905260a085018a905290519096506001955060c080850195509193601f198201935081900390910190855afa158015612833573d6000803e3d6000fd5b5050604051601f19015198975050505050505050565b8181018281101561285657fe5b92915050565b60008282111561286857fe5b5090039056fea165627a7a72305820d5f80cc67ffd6bb88f94e52cc49016091daeae37c20431071b02fe95d2d4d9820029",
	"source": "pragma solidity >=0.5.4 <0.6.0;\n\nimport './SafeMath.sol';\nimport './AOLibrary.sol';\nimport './TheAO.sol';\nimport './INameFactory.sol';\nimport './Name.sol';\nimport './Voice.sol';\nimport './INameTAOLookup.sol';\nimport './INameTAOPosition.sol';\nimport './INamePublicKey.sol';\nimport './INameAccountRecovery.sol';\n\n/**\n * @title NameFactory\n *\n * The purpose of this contract is to allow node to create Name\n */\ncontract NameFactory is TheAO, INameFactory {\n\tusing SafeMath for uint256;\n\n\taddress public voiceAddress;\n\taddress public nameTAOVaultAddress;\n\taddress public nameTAOLookupAddress;\n\taddress public namePublicKeyAddress;\n\taddress public nameAccountRecoveryAddress;\n\n\tVoice internal _voice;\n\tINameTAOLookup internal _nameTAOLookup;\n\tINameTAOPosition internal _nameTAOPosition;\n\tINamePublicKey internal _namePublicKey;\n\tINameAccountRecovery internal _nameAccountRecovery;\n\n\taddress[] internal names;\n\n\t// Mapping from eth address to Name ID\n\tmapping (address => address) internal _ethAddressToNameId;\n\n\t// Mapping from Name ID to eth address\n\tmapping (address => address) internal _nameIdToEthAddress;\n\n\t// Mapping from Name ID to its nonce\n\tmapping (address => uint256) internal _nonces;\n\n\t// Event to be broadcasted to public when a Name is created\n\tevent CreateName(address indexed ethAddress, address nameId, uint256 index, string name);\n\n\t/**\n\t * @dev Constructor function\n\t */\n\tconstructor(address _voiceAddress) public {\n\t\tsetVoiceAddress(_voiceAddress);\n\t}\n\n\t/**\n\t * @dev Checks if the calling contract address is The AO\n\t *\t\tOR\n\t *\t\tIf The AO is set to a Name/TAO, then check if calling address is the Advocate\n\t */\n\tmodifier onlyTheAO {\n\t\trequire (AOLibrary.isTheAO(msg.sender, theAO, nameTAOPositionAddress));\n\t\t_;\n\t}\n\n\t/**\n\t * @dev Checks if calling address can update Name's nonce\n\t */\n\tmodifier canUpdateNonce {\n\t\trequire (msg.sender == nameTAOPositionAddress || msg.sender == namePublicKeyAddress || msg.sender == nameAccountRecoveryAddress);\n\t\t_;\n\t}\n\n\t/***** The AO ONLY METHODS *****/\n\t/**\n\t * @dev Transfer ownership of The AO to new address\n\t * @param _theAO The new address to be transferred\n\t */\n\tfunction transferOwnership(address _theAO) public onlyTheAO {\n\t\trequire (_theAO != address(0));\n\t\ttheAO = _theAO;\n\t}\n\n\t/**\n\t * @dev Whitelist `_account` address to transact on behalf of others\n\t * @param _account The address to whitelist\n\t * @param _whitelist Either to whitelist or not\n\t */\n\tfunction setWhitelist(address _account, bool _whitelist) public onlyTheAO {\n\t\trequire (_account != address(0));\n\t\twhitelist[_account] = _whitelist;\n\t}\n\n\t/**\n\t * @dev The AO set the Voice Address\n\t * @param _voiceAddress The address of Voice\n\t */\n\tfunction setVoiceAddress(address _voiceAddress) public onlyTheAO {\n\t\trequire (_voiceAddress != address(0));\n\t\tvoiceAddress = _voiceAddress;\n\t\t_voice = Voice(voiceAddress);\n\t}\n\n\t/**\n\t * @dev The AO set the NameTAOVault Address\n\t * @param _nameTAOVaultAddress The address of NameTAOVault\n\t */\n\tfunction setNameTAOVaultAddress(address _nameTAOVaultAddress) public onlyTheAO {\n\t\trequire (_nameTAOVaultAddress != address(0));\n\t\tnameTAOVaultAddress = _nameTAOVaultAddress;\n\t}\n\n\t/**\n\t * @dev The AO set the NameTAOLookup Address\n\t * @param _nameTAOLookupAddress The address of NameTAOLookup\n\t */\n\tfunction setNameTAOLookupAddress(address _nameTAOLookupAddress) public onlyTheAO {\n\t\trequire (_nameTAOLookupAddress != address(0));\n\t\tnameTAOLookupAddress = _nameTAOLookupAddress;\n\t\t_nameTAOLookup = INameTAOLookup(nameTAOLookupAddress);\n\t}\n\n\t/**\n\t * @dev The AO set the NameTAOPosition Address\n\t * @param _nameTAOPositionAddress The address of NameTAOPosition\n\t */\n\tfunction setNameTAOPositionAddress(address _nameTAOPositionAddress) public onlyTheAO {\n\t\trequire (_nameTAOPositionAddress != address(0));\n\t\tnameTAOPositionAddress = _nameTAOPositionAddress;\n\t\t_nameTAOPosition = INameTAOPosition(nameTAOPositionAddress);\n\t}\n\n\t/**\n\t * @dev The AO set the NamePublicKey Address\n\t * @param _namePublicKeyAddress The address of NamePublicKey\n\t */\n\tfunction setNamePublicKeyAddress(address _namePublicKeyAddress) public onlyTheAO {\n\t\trequire (_namePublicKeyAddress != address(0));\n\t\tnamePublicKeyAddress = _namePublicKeyAddress;\n\t\t_namePublicKey = INamePublicKey(namePublicKeyAddress);\n\t}\n\n\t/**\n\t * @dev The AO set the NameAccountRecovery Address\n\t * @param _nameAccountRecoveryAddress The address of NameAccountRecovery\n\t */\n\tfunction setNameAccountRecoveryAddress(address _nameAccountRecoveryAddress) public onlyTheAO {\n\t\trequire (_nameAccountRecoveryAddress != address(0));\n\t\tnameAccountRecoveryAddress = _nameAccountRecoveryAddress;\n\t\t_nameAccountRecovery = INameAccountRecovery(nameAccountRecoveryAddress);\n\t}\n\n\t/**\n\t * @dev NameAccountRecovery contract replaces eth address associated with a Name\n\t * @param _id The ID of the Name\n\t * @param _newAddress The new eth address\n\t * @return true on success\n\t */\n\tfunction setNameNewAddress(address _id, address _newAddress) external returns (bool) {\n\t\trequire (msg.sender == nameAccountRecoveryAddress);\n\t\trequire (AOLibrary.isName(_id));\n\t\trequire (_newAddress != address(0));\n\t\trequire (_ethAddressToNameId[_newAddress] == address(0));\n\t\trequire (_nameIdToEthAddress[_id] != address(0));\n\n\t\taddress _currentEthAddress = _nameIdToEthAddress[_id];\n\t\t_ethAddressToNameId[_currentEthAddress] = address(0);\n\t\t_ethAddressToNameId[_newAddress] = _id;\n\t\t_nameIdToEthAddress[_id] = _newAddress;\n\t\treturn true;\n\t}\n\n\t/***** PUBLIC METHODS *****/\n\t/**\n\t * @dev Get the nonce given a Name ID\n\t * @param _nameId The Name ID to check\n\t * @return The nonce of the Name\n\t */\n\tfunction nonces(address _nameId) external view returns (uint256) {\n\t\treturn _nonces[_nameId];\n\t}\n\n\t/**\n\t * @dev Increment the nonce of a Name\n\t * @param _nameId The ID of the Name\n\t * @return current nonce\n\t */\n\tfunction incrementNonce(address _nameId) external canUpdateNonce returns (uint256) {\n\t\t// Check if _nameId exist\n\t\trequire (_nonces[_nameId] > 0);\n\t\t_nonces[_nameId]++;\n\t\treturn _nonces[_nameId];\n\t}\n\n\t/**\n\t * @dev Create a Name\n\t * @param _name The name of the Name\n\t * @param _datHash The datHash to this Name's profile\n\t * @param _database The database for this Name\n\t * @param _keyValue The key/value pair to be checked on the database\n\t * @param _contentId The contentId related to this Name\n\t * @param _writerKey The writer public key for this Name\n\t */\n\tfunction createName(string memory _name, string memory _datHash, string memory _database, string memory _keyValue, bytes32 _contentId, address _writerKey) public {\n\t\trequire (bytes(_name).length > 0);\n\t\trequire (!_nameTAOLookup.isExist(_name));\n\n\t\t// Only one Name per ETH address\n\t\trequire (_ethAddressToNameId[msg.sender] == address(0));\n\n\t\t// The address is the Name ID (which is also a TAO ID)\n\t\taddress nameId = address(AOLibrary.deployName(_name, msg.sender, _datHash, _database, _keyValue, _contentId, nameTAOVaultAddress));\n\n\t\t// Only one ETH address per Name\n\t\trequire (_nameIdToEthAddress[nameId] == address(0));\n\n\t\t// Increment the nonce\n\t\t_nonces[nameId]++;\n\n\t\t_ethAddressToNameId[msg.sender] = nameId;\n\t\t_nameIdToEthAddress[nameId] = msg.sender;\n\n\t\t// Store the name lookup information\n\t\trequire (_nameTAOLookup.initialize(_name, nameId, 1, 'human', msg.sender, 2));\n\n\t\t// Store the Advocate/Listener/Speaker information\n\t\trequire (_nameTAOPosition.initialize(nameId, nameId, nameId, nameId));\n\n\t\t// Store the public key information\n\t\trequire (_namePublicKey.initialize(nameId, msg.sender, _writerKey));\n\n\t\tnames.push(nameId);\n\n\t\t// Need to mint Voice for this Name\n\t\trequire (_voice.mint(nameId));\n\n\t\temit CreateName(msg.sender, nameId, names.length.sub(1), _name);\n\t}\n\n\t/**\n\t * @dev Get the Name ID given an ETH address\n\t * @param _ethAddress The ETH address to check\n\t * @return The Name ID\n\t */\n\tfunction ethAddressToNameId(address _ethAddress) external view returns (address) {\n\t\treturn _ethAddressToNameId[_ethAddress];\n\t}\n\n\t/**\n\t * @dev Get the ETH address given a Name ID\n\t * @param _nameId The Name ID to check\n\t * @return The ETH address\n\t */\n\tfunction nameIdToEthAddress(address _nameId) external view returns (address) {\n\t\treturn _nameIdToEthAddress[_nameId];\n\t}\n\n\t/**\n\t * @dev Get Name information\n\t * @param _nameId The ID of the Name to be queried\n\t * @return The name of the Name\n\t * @return The originId of the Name (in this case, it's the creator node's ETH address)\n\t * @return The datHash of the Name\n\t * @return The database of the Name\n\t * @return The keyValue of the Name\n\t * @return The contentId of the Name\n\t * @return The typeId of the Name\n\t */\n\tfunction getName(address _nameId) public view returns (string memory, address, string memory, string memory, string memory, bytes32, uint8) {\n\t\tName _name = Name(address(uint160(_nameId)));\n\t\treturn (\n\t\t\t_name.name(),\n\t\t\t_name.originId(),\n\t\t\t_name.datHash(),\n\t\t\t_name.database(),\n\t\t\t_name.keyValue(),\n\t\t\t_name.contentId(),\n\t\t\t_name.typeId()\n\t\t);\n\t}\n\n\t/**\n\t * @dev Get total Names count\n\t * @return total Names count\n\t */\n\tfunction getTotalNamesCount() public view returns (uint256) {\n\t\treturn names.length;\n\t}\n\n\t/**\n\t * @dev Get list of Name IDs\n\t * @param _from The starting index\n\t * @param _to The ending index\n\t * @return list of Name IDs\n\t */\n\tfunction getNameIds(uint256 _from, uint256 _to) public view returns (address[] memory) {\n\t\trequire (_from >= 0 && _to >= _from);\n\t\trequire (names.length > 0);\n\n\t\taddress[] memory _names = new address[](_to.sub(_from).add(1));\n\t\tif (_to > names.length.sub(1)) {\n\t\t\t_to = names.length.sub(1);\n\t\t}\n\t\tfor (uint256 i = _from; i <= _to; i++) {\n\t\t\t_names[i.sub(_from)] = names[i];\n\t\t}\n\t\treturn _names;\n\t}\n\n\t/**\n\t * @dev Check whether or not the signature is valid\n\t * @param _data The signed string data\n\t * @param _nonce The signed uint256 nonce (should be Name's current nonce + 1)\n\t * @param _validateAddress The ETH address to be validated (optional)\n\t * @param _name The name of the Name\n\t * @param _signatureV The V part of the signature\n\t * @param _signatureR The R part of the signature\n\t * @param _signatureS The S part of the signature\n\t * @return true if valid. false otherwise\n\t */\n\tfunction validateNameSignature(\n\t\tstring memory _data,\n\t\tuint256 _nonce,\n\t\taddress _validateAddress,\n\t\tstring memory _name,\n\t\tuint8 _signatureV,\n\t\tbytes32 _signatureR,\n\t\tbytes32 _signatureS\n\t) public view returns (bool) {\n\t\trequire (_nameTAOLookup.isExist(_name));\n\t\taddress _nameId = _nameTAOLookup.getIdByName(_name);\n\t\taddress _signatureAddress = _getValidateSignatureAddress(_data, _nonce, _signatureV, _signatureR, _signatureS);\n\t\tif (_validateAddress != address(0)) {\n\t\t\treturn (\n\t\t\t\t_nonce == _nonces[_nameId].add(1) &&\n\t\t\t\t_signatureAddress == _validateAddress &&\n\t\t\t\t_namePublicKey.isKeyExist(_nameId, _validateAddress)\n\t\t\t);\n\t\t} else {\n\t\t\treturn (\n\t\t\t\t_nonce == _nonces[_nameId].add(1) &&\n\t\t\t\t_signatureAddress == _namePublicKey.getDefaultKey(_nameId)\n\t\t\t);\n\t\t}\n\t}\n\n\t/***** INTERNAL METHODS *****/\n\t/**\n\t * @dev Return the address that signed the data and nonce when validating signature\n\t * @param _data the data that was signed\n\t * @param _nonce The signed uint256 nonce\n\t * @param _v part of the signature\n\t * @param _r part of the signature\n\t * @param _s part of the signature\n\t * @return the address that signed the message\n\t */\n\tfunction _getValidateSignatureAddress(string memory _data, uint256 _nonce, uint8 _v, bytes32 _r, bytes32 _s) internal view returns (address) {\n\t\tbytes32 _hash = keccak256(abi.encodePacked(address(this), _data, _nonce));\n\t\treturn ecrecover(_hash, _v, _r, _s);\n\t}\n}\n",
	"sourcePath": "/home/jmulyono/ao-contracts/contracts/NameFactory.sol",
	"compiler": {
		"name": "solc",
		"version": "0.5.4+commit.9549d8ff.Emscripten.clang"
	},
	"schemaVersion": "3.0.9",
	"updatedAt": "2019-05-21T06:22:07.866Z",
	"devdoc": {
		"methods": {
			"constructor": {
				"details": "Constructor function"
			},
			"createName(string,string,string,string,bytes32,address)": {
				"details": "Create a Name",
				"params": {
					"_contentId": "The contentId related to this Name",
					"_datHash": "The datHash to this Name's profile",
					"_database": "The database for this Name",
					"_keyValue": "The key/value pair to be checked on the database",
					"_name": "The name of the Name",
					"_writerKey": "The writer public key for this Name"
				}
			},
			"ethAddressToNameId(address)": {
				"details": "Get the Name ID given an ETH address",
				"params": {
					"_ethAddress": "The ETH address to check"
				},
				"return": "The Name ID"
			},
			"getName(address)": {
				"details": "Get Name information",
				"params": {
					"_nameId": "The ID of the Name to be queried"
				},
				"return": "The name of the NameThe originId of the Name (in this case, it's the creator node's ETH address)The datHash of the NameThe database of the NameThe keyValue of the NameThe contentId of the NameThe typeId of the Name"
			},
			"getNameIds(uint256,uint256)": {
				"details": "Get list of Name IDs",
				"params": {
					"_from": "The starting index",
					"_to": "The ending index"
				},
				"return": "list of Name IDs"
			},
			"getTotalNamesCount()": {
				"details": "Get total Names count",
				"return": "total Names count"
			},
			"incrementNonce(address)": {
				"details": "Increment the nonce of a Name",
				"params": {
					"_nameId": "The ID of the Name"
				},
				"return": "current nonce"
			},
			"nameIdToEthAddress(address)": {
				"details": "Get the ETH address given a Name ID",
				"params": {
					"_nameId": "The Name ID to check"
				},
				"return": "The ETH address"
			},
			"nonces(address)": {
				"details": "Get the nonce given a Name ID",
				"params": {
					"_nameId": "The Name ID to check"
				},
				"return": "The nonce of the Name"
			},
			"setNameAccountRecoveryAddress(address)": {
				"details": "The AO set the NameAccountRecovery Address",
				"params": {
					"_nameAccountRecoveryAddress": "The address of NameAccountRecovery"
				}
			},
			"setNameNewAddress(address,address)": {
				"details": "NameAccountRecovery contract replaces eth address associated with a Name",
				"params": {
					"_id": "The ID of the Name",
					"_newAddress": "The new eth address"
				},
				"return": "true on success"
			},
			"setNamePublicKeyAddress(address)": {
				"details": "The AO set the NamePublicKey Address",
				"params": {
					"_namePublicKeyAddress": "The address of NamePublicKey"
				}
			},
			"setNameTAOLookupAddress(address)": {
				"details": "The AO set the NameTAOLookup Address",
				"params": {
					"_nameTAOLookupAddress": "The address of NameTAOLookup"
				}
			},
			"setNameTAOPositionAddress(address)": {
				"details": "The AO set the NameTAOPosition Address",
				"params": {
					"_nameTAOPositionAddress": "The address of NameTAOPosition"
				}
			},
			"setNameTAOVaultAddress(address)": {
				"details": "The AO set the NameTAOVault Address",
				"params": {
					"_nameTAOVaultAddress": "The address of NameTAOVault"
				}
			},
			"setVoiceAddress(address)": {
				"details": "The AO set the Voice Address",
				"params": {
					"_voiceAddress": "The address of Voice"
				}
			},
			"setWhitelist(address,bool)": {
				"details": "Whitelist `_account` address to transact on behalf of others",
				"params": {
					"_account": "The address to whitelist",
					"_whitelist": "Either to whitelist or not"
				}
			},
			"transferOwnership(address)": {
				"details": "Transfer ownership of The AO to new address",
				"params": {
					"_theAO": "The new address to be transferred"
				}
			},
			"validateNameSignature(string,uint256,address,string,uint8,bytes32,bytes32)": {
				"details": "Check whether or not the signature is valid",
				"params": {
					"_data": "The signed string data",
					"_name": "The name of the Name",
					"_nonce": "The signed uint256 nonce (should be Name's current nonce + 1)",
					"_signatureR": "The R part of the signature",
					"_signatureS": "The S part of the signature",
					"_signatureV": "The V part of the signature",
					"_validateAddress": "The ETH address to be validated (optional)"
				},
				"return": "true if valid. false otherwise"
			}
		},
		"title": "NameFactory * The purpose of this contract is to allow node to create Name"
	},
	"userdoc": {
		"methods": {}
	}
}