{
	"contractName": "NameFactory",
	"abi": [
		{
			"constant": true,
			"inputs": [
				{
					"name": "",
					"type": "address"
				}
			],
			"name": "ethAddressToNameId",
			"outputs": [
				{
					"name": "",
					"type": "address"
				}
			],
			"payable": false,
			"stateMutability": "view",
			"type": "function"
		},
		{
			"constant": true,
			"inputs": [],
			"name": "nameTAOPositionAddress",
			"outputs": [
				{
					"name": "",
					"type": "address"
				}
			],
			"payable": false,
			"stateMutability": "view",
			"type": "function"
		},
		{
			"constant": true,
			"inputs": [],
			"name": "positionAddress",
			"outputs": [
				{
					"name": "",
					"type": "address"
				}
			],
			"payable": false,
			"stateMutability": "view",
			"type": "function"
		},
		{
			"constant": true,
			"inputs": [
				{
					"name": "",
					"type": "address"
				}
			],
			"name": "nonces",
			"outputs": [
				{
					"name": "",
					"type": "uint256"
				}
			],
			"payable": false,
			"stateMutability": "view",
			"type": "function"
		},
		{
			"constant": true,
			"inputs": [
				{
					"name": "",
					"type": "address"
				}
			],
			"name": "whitelist",
			"outputs": [
				{
					"name": "",
					"type": "bool"
				}
			],
			"payable": false,
			"stateMutability": "view",
			"type": "function"
		},
		{
			"constant": true,
			"inputs": [],
			"name": "theAO",
			"outputs": [
				{
					"name": "",
					"type": "address"
				}
			],
			"payable": false,
			"stateMutability": "view",
			"type": "function"
		},
		{
			"constant": true,
			"inputs": [],
			"name": "nameTAOVaultAddress",
			"outputs": [
				{
					"name": "",
					"type": "address"
				}
			],
			"payable": false,
			"stateMutability": "view",
			"type": "function"
		},
		{
			"constant": true,
			"inputs": [],
			"name": "namePublicKeyAddress",
			"outputs": [
				{
					"name": "",
					"type": "address"
				}
			],
			"payable": false,
			"stateMutability": "view",
			"type": "function"
		},
		{
			"constant": true,
			"inputs": [],
			"name": "nameTAOLookupAddress",
			"outputs": [
				{
					"name": "",
					"type": "address"
				}
			],
			"payable": false,
			"stateMutability": "view",
			"type": "function"
		},
		{
			"inputs": [
				{
					"name": "_positionAddress",
					"type": "address"
				},
				{
					"name": "_nameTAOVaultAddress",
					"type": "address"
				}
			],
			"payable": false,
			"stateMutability": "nonpayable",
			"type": "constructor"
		},
		{
			"anonymous": false,
			"inputs": [
				{
					"indexed": true,
					"name": "ethAddress",
					"type": "address"
				},
				{
					"indexed": false,
					"name": "nameId",
					"type": "address"
				},
				{
					"indexed": false,
					"name": "index",
					"type": "uint256"
				},
				{
					"indexed": false,
					"name": "name",
					"type": "string"
				}
			],
			"name": "CreateName",
			"type": "event"
		},
		{
			"constant": false,
			"inputs": [
				{
					"name": "_theAO",
					"type": "address"
				}
			],
			"name": "transferOwnership",
			"outputs": [],
			"payable": false,
			"stateMutability": "nonpayable",
			"type": "function"
		},
		{
			"constant": false,
			"inputs": [
				{
					"name": "_account",
					"type": "address"
				},
				{
					"name": "_whitelist",
					"type": "bool"
				}
			],
			"name": "setWhitelist",
			"outputs": [],
			"payable": false,
			"stateMutability": "nonpayable",
			"type": "function"
		},
		{
			"constant": false,
			"inputs": [
				{
					"name": "_nameTAOLookupAddress",
					"type": "address"
				}
			],
			"name": "setNameTAOLookupAddress",
			"outputs": [],
			"payable": false,
			"stateMutability": "nonpayable",
			"type": "function"
		},
		{
			"constant": false,
			"inputs": [
				{
					"name": "_nameTAOPositionAddress",
					"type": "address"
				}
			],
			"name": "setNameTAOPositionAddress",
			"outputs": [],
			"payable": false,
			"stateMutability": "nonpayable",
			"type": "function"
		},
		{
			"constant": false,
			"inputs": [
				{
					"name": "_namePublicKeyAddress",
					"type": "address"
				}
			],
			"name": "setNamePublicKeyAddress",
			"outputs": [],
			"payable": false,
			"stateMutability": "nonpayable",
			"type": "function"
		},
		{
			"constant": false,
			"inputs": [
				{
					"name": "_nameId",
					"type": "address"
				}
			],
			"name": "incrementNonce",
			"outputs": [
				{
					"name": "",
					"type": "uint256"
				}
			],
			"payable": false,
			"stateMutability": "nonpayable",
			"type": "function"
		},
		{
			"constant": false,
			"inputs": [
				{
					"name": "_name",
					"type": "string"
				},
				{
					"name": "_datHash",
					"type": "string"
				},
				{
					"name": "_database",
					"type": "string"
				},
				{
					"name": "_keyValue",
					"type": "string"
				},
				{
					"name": "_contentId",
					"type": "bytes32"
				}
			],
			"name": "createName",
			"outputs": [],
			"payable": false,
			"stateMutability": "nonpayable",
			"type": "function"
		},
		{
			"constant": true,
			"inputs": [
				{
					"name": "_nameId",
					"type": "address"
				}
			],
			"name": "getName",
			"outputs": [
				{
					"name": "",
					"type": "string"
				},
				{
					"name": "",
					"type": "address"
				},
				{
					"name": "",
					"type": "string"
				},
				{
					"name": "",
					"type": "string"
				},
				{
					"name": "",
					"type": "string"
				},
				{
					"name": "",
					"type": "bytes32"
				},
				{
					"name": "",
					"type": "uint8"
				}
			],
			"payable": false,
			"stateMutability": "view",
			"type": "function"
		},
		{
			"constant": true,
			"inputs": [],
			"name": "getTotalNamesCount",
			"outputs": [
				{
					"name": "",
					"type": "uint256"
				}
			],
			"payable": false,
			"stateMutability": "view",
			"type": "function"
		},
		{
			"constant": true,
			"inputs": [
				{
					"name": "_from",
					"type": "uint256"
				},
				{
					"name": "_to",
					"type": "uint256"
				}
			],
			"name": "getNameIds",
			"outputs": [
				{
					"name": "",
					"type": "address[]"
				}
			],
			"payable": false,
			"stateMutability": "view",
			"type": "function"
		},
		{
			"constant": true,
			"inputs": [
				{
					"name": "_data",
					"type": "string"
				},
				{
					"name": "_nonce",
					"type": "uint256"
				},
				{
					"name": "_validateAddress",
					"type": "address"
				},
				{
					"name": "_name",
					"type": "string"
				},
				{
					"name": "_signatureV",
					"type": "uint8"
				},
				{
					"name": "_signatureR",
					"type": "bytes32"
				},
				{
					"name": "_signatureS",
					"type": "bytes32"
				}
			],
			"name": "validateNameSignature",
			"outputs": [
				{
					"name": "",
					"type": "bool"
				}
			],
			"payable": false,
			"stateMutability": "view",
			"type": "function"
		}
	],
	"bytecode": "0x608060405234801561001057600080fd5b5060405160408061291783398101604052805160209091015160008054600160a060020a0319908116331790915560038054600160a060020a03948516908316179081905560048054938516938316939093179092556007805490911691909216179055612894806100836000396000f3006080604052600436106200010d5763ffffffff60e060020a600035041663029b7d53811462000112578063419e6e5c14620001525780634ef033f0146200017c57806353d6fd5914620001945780635cfaf2ef14620001bf5780635fd4b08a14620001e3578063636a8bd714620003e55780636d9aa03414620003fd578063743ab53814620004215780637ecebe0014620004f45780639b19251a1462000518578063a9b6b38e146200053c578063afb2dd871462000554578063d8ce52d1146200056c578063df2721f01462000584578063e9233a65146200059c578063f2fde38b146200060c578063f46da0841462000630578063f5743c4c1462000748578063fc862027146200076c575b600080fd5b3480156200011f57600080fd5b5062000136600160a060020a036004351662000790565b60408051600160a060020a039092168252519081900360200190f35b3480156200015f57600080fd5b506200016a620007ab565b60408051918252519081900360200190f35b3480156200018957600080fd5b5062000136620007b1565b348015620001a157600080fd5b50620001bd600160a060020a03600435166024351515620007c0565b005b348015620001cc57600080fd5b50620001bd600160a060020a0360043516620008ae565b348015620001f057600080fd5b5062000207600160a060020a0360043516620009ad565b60408051600160a060020a03881660208083019190915260a0820185905260ff841660c083015260e08083528a51908301528951919283929083019160608401916080850191610100860191908e019080838360005b83811015620002775781810151838201526020016200025d565b50505050905090810190601f168015620002a55780820380516001836020036101000a031916815260200191505b5085810384528a5181528a516020918201918c019080838360005b83811015620002da578181015183820152602001620002c0565b50505050905090810190601f168015620003085780820380516001836020036101000a031916815260200191505b5085810383528951815289516020918201918b019080838360005b838110156200033d57818101518382015260200162000323565b50505050905090810190601f1680156200036b5780820380516001836020036101000a031916815260200191505b5085810382528851815288516020918201918a019080838360005b83811015620003a057818101518382015260200162000386565b50505050905090810190601f168015620003ce5780820380516001836020036101000a031916815260200191505b509b50505050505050505050505060405180910390f35b348015620003f257600080fd5b506200013662000e8e565b3480156200040a57600080fd5b50620001bd600160a060020a036004351662000e9d565b3480156200042e57600080fd5b506040805160206004803580820135601f8101849004840285018401909552848452620004e094369492936024939284019190819084018382808284375050604080516020888301358a018035601f8101839004830284018301909452838352979a89359a8a830135600160a060020a03169a919990985060609091019650919450908101925081908401838280828437509497505050833560ff169450505060208201359160400135905062000f9c565b604080519115158252519081900360200190f35b3480156200050157600080fd5b506200016a600160a060020a0360043516620014de565b3480156200052557600080fd5b50620004e0600160a060020a0360043516620014f0565b3480156200054957600080fd5b506200013662001505565b3480156200056157600080fd5b506200013662001514565b3480156200057957600080fd5b506200013662001523565b3480156200059157600080fd5b506200013662001532565b348015620005a957600080fd5b50620005ba60043560243562001541565b60408051602080825283518183015283519192839290830191858101910280838360005b83811015620005f8578181015183820152602001620005de565b505050509050019250505060405180910390f35b3480156200061957600080fd5b50620001bd600160a060020a036004351662001672565b3480156200063d57600080fd5b506040805160206004803580820135601f8101849004840285018401909552848452620001bd94369492936024939284019190819084018382808284375050604080516020601f89358b018035918201839004830284018301909452808352979a99988101979196509182019450925082915084018382808284375050604080516020601f89358b018035918201839004830284018301909452808352979a99988101979196509182019450925082915084018382808284375050604080516020601f89358b018035918201839004830284018301909452808352979a9998810197919650918201945092508291508401838280828437509497505093359450620017649350505050565b3480156200075557600080fd5b506200016a600160a060020a036004351662001f7a565b3480156200077957600080fd5b50620001bd600160a060020a036004351662001ff5565b600c60205260009081526040902054600160a060020a031681565b600b5490565b600154600160a060020a031681565b6000546001546040805160e260020a633d9abf2b028152336004820152600160a060020a0393841660248201529290911660448301525173__AOLibrary_____________________________9163f66afcac916064808301926020929190829003018186803b1580156200083357600080fd5b505af415801562000848573d6000803e3d6000fd5b505050506040513d60208110156200085f57600080fd5b505115156200086d57600080fd5b600160a060020a03821615156200088357600080fd5b600160a060020a03919091166000908152600260205260409020805460ff1916911515919091179055565b6000546001546040805160e260020a633d9abf2b028152336004820152600160a060020a0393841660248201529290911660448301525173__AOLibrary_____________________________9163f66afcac916064808301926020929190829003018186803b1580156200092157600080fd5b505af415801562000936573d6000803e3d6000fd5b505050506040513d60208110156200094d57600080fd5b505115156200095b57600080fd5b600160a060020a03811615156200097157600080fd5b6001805473ffffffffffffffffffffffffffffffffffffffff19908116600160a060020a03938416179182905560098054929093169116179055565b606060006060806060600080600088905080600160a060020a03166306fdde036040518163ffffffff1660e060020a028152600401600060405180830381600087803b158015620009fd57600080fd5b505af115801562000a12573d6000803e3d6000fd5b505050506040513d6000823e601f3d908101601f19168201604052602081101562000a3c57600080fd5b81019080805164010000000081111562000a5557600080fd5b8201602081018481111562000a6957600080fd5b815164010000000081118282018710171562000a8457600080fd5b505092919050505081600160a060020a03166313866efa6040518163ffffffff1660e060020a028152600401602060405180830381600087803b15801562000acb57600080fd5b505af115801562000ae0573d6000803e3d6000fd5b505050506040513d602081101562000af757600080fd5b5051604080517f056847900000000000000000000000000000000000000000000000000000000081529051600160a060020a03851691630568479091600480830192600092919082900301818387803b15801562000b5457600080fd5b505af115801562000b69573d6000803e3d6000fd5b505050506040513d6000823e601f3d908101601f19168201604052602081101562000b9357600080fd5b81019080805164010000000081111562000bac57600080fd5b8201602081018481111562000bc057600080fd5b815164010000000081118282018710171562000bdb57600080fd5b505092919050505083600160a060020a031663713b563f6040518163ffffffff1660e060020a028152600401600060405180830381600087803b15801562000c2257600080fd5b505af115801562000c37573d6000803e3d6000fd5b505050506040513d6000823e601f3d908101601f19168201604052602081101562000c6157600080fd5b81019080805164010000000081111562000c7a57600080fd5b8201602081018481111562000c8e57600080fd5b815164010000000081118282018710171562000ca957600080fd5b505092919050505084600160a060020a031663a727be576040518163ffffffff1660e060020a028152600401600060405180830381600087803b15801562000cf057600080fd5b505af115801562000d05573d6000803e3d6000fd5b505050506040513d6000823e601f3d908101601f19168201604052602081101562000d2f57600080fd5b81019080805164010000000081111562000d4857600080fd5b8201602081018481111562000d5c57600080fd5b815164010000000081118282018710171562000d7757600080fd5b505092919050505085600160a060020a031663d97aa9776040518163ffffffff1660e060020a028152600401602060405180830381600087803b15801562000dbe57600080fd5b505af115801562000dd3573d6000803e3d6000fd5b505050506040513d602081101562000dea57600080fd5b5051604080517f8f940f630000000000000000000000000000000000000000000000000000000081529051600160a060020a03891691638f940f639160048083019260209291908290030181600087803b15801562000e4857600080fd5b505af115801562000e5d573d6000803e3d6000fd5b505050506040513d602081101562000e7457600080fd5b5051959f949e50929c50909a509850965090945092505050565b600354600160a060020a031681565b6000546001546040805160e260020a633d9abf2b028152336004820152600160a060020a0393841660248201529290911660448301525173__AOLibrary_____________________________9163f66afcac916064808301926020929190829003018186803b15801562000f1057600080fd5b505af415801562000f25573d6000803e3d6000fd5b505050506040513d602081101562000f3c57600080fd5b5051151562000f4a57600080fd5b600160a060020a038116151562000f6057600080fd5b6006805473ffffffffffffffffffffffffffffffffffffffff19908116600160a060020a039384161791829055600a8054929093169116179055565b6008546040517f4d3d096b00000000000000000000000000000000000000000000000000000000815260206004820181815287516024840152875160009485948594600160a060020a0390921693634d3d096b938c9391928392604490910191908501908083838b5b838110156200101f57818101518382015260200162001005565b50505050905090810190601f1680156200104d5780820380516001836020036101000a031916815260200191505b5092505050602060405180830381600087803b1580156200106d57600080fd5b505af115801562001082573d6000803e3d6000fd5b505050506040513d60208110156200109957600080fd5b50511515620010a757600080fd5b6008546040517f9a65ddec0000000000000000000000000000000000000000000000000000000081526020600482018181528a5160248401528a51600160a060020a0390941693639a65ddec938c9383926044909201919085019080838360005b838110156200112257818101518382015260200162001108565b50505050905090810190601f168015620011505780820380516001836020036101000a031916815260200191505b5092505050602060405180830381600087803b1580156200117057600080fd5b505af115801562001185573d6000803e3d6000fd5b505050506040513d60208110156200119c57600080fd5b8101908080519060200190929190505050915073__AOLibrary_____________________________63271b5311308c8c8a8a8a6040518763ffffffff1660e060020a0281526004018087600160a060020a0316600160a060020a03168152602001806020018681526020018560ff1660ff16815260200184600019166000191681526020018360001916600019168152602001828103825287818151815260200191508051906020019080838360005b83811015620012665781810151838201526020016200124c565b50505050905090810190601f168015620012945780820380516001836020036101000a031916815260200191505b5097505050505050505060206040518083038186803b158015620012b757600080fd5b505af4158015620012cc573d6000803e3d6000fd5b505050506040513d6020811015620012e357600080fd5b50519050600160a060020a03881615620013f357600160a060020a0382166000908152600d60205260409020546200132390600163ffffffff620020f416565b8914801562001343575087600160a060020a031681600160a060020a0316145b8015620013eb5750600a54604080517fa481247c000000000000000000000000000000000000000000000000000000008152600160a060020a0385811660048301528b811660248301529151919092169163a481247c9160448083019260209291908290030181600087803b158015620013bc57600080fd5b505af1158015620013d1573d6000803e3d6000fd5b505050506040513d6020811015620013e857600080fd5b50515b9250620014d1565b600160a060020a0382166000908152600d60205260409020546200141f90600163ffffffff620020f416565b89148015620013eb5750600a54604080517fdb536d2f000000000000000000000000000000000000000000000000000000008152600160a060020a0385811660048301529151919092169163db536d2f9160248083019260209291908290030181600087803b1580156200149257600080fd5b505af1158015620014a7573d6000803e3d6000fd5b505050506040513d6020811015620014be57600080fd5b5051600160a060020a0382811691161492505b5050979650505050505050565b600d6020526000908152604090205481565b60026020526000908152604090205460ff1681565b600054600160a060020a031681565b600454600160a060020a031681565b600654600160a060020a031681565b600554600160a060020a031681565b6060806000808510158015620015575750848410155b15156200156357600080fd5b600b546000106200157357600080fd5b6200159860016200158b868863ffffffff6200210816565b9063ffffffff620020f416565b604051908082528060200260200182016040528015620015c2578160200160208202803883390190505b50600b54909250620015dc90600163ffffffff6200210816565b841115620015fd57600b54620015fa90600163ffffffff6200210816565b93505b50835b8381116200166a57600b8054829081106200161757fe5b600091825260209091200154600160a060020a0316826200163f838863ffffffff6200210816565b815181106200164a57fe5b600160a060020a0390921660209283029091019091015260010162001600565b509392505050565b6000546001546040805160e260020a633d9abf2b028152336004820152600160a060020a0393841660248201529290911660448301525173__AOLibrary_____________________________9163f66afcac916064808301926020929190829003018186803b158015620016e557600080fd5b505af4158015620016fa573d6000803e3d6000fd5b505050506040513d60208110156200171157600080fd5b505115156200171f57600080fd5b600160a060020a03811615156200173557600080fd5b6000805473ffffffffffffffffffffffffffffffffffffffff1916600160a060020a0392909216919091179055565b60008086511115156200177657600080fd5b6008546040517f4d3d096b000000000000000000000000000000000000000000000000000000008152602060048201818152895160248401528951600160a060020a0390941693634d3d096b938b9383926044909201919085019080838360005b83811015620017f1578181015183820152602001620017d7565b50505050905090810190601f1680156200181f5780820380516001836020036101000a031916815260200191505b5092505050602060405180830381600087803b1580156200183f57600080fd5b505af115801562001854573d6000803e3d6000fd5b505050506040513d60208110156200186b57600080fd5b5051156200187857600080fd5b336000908152600c6020526040902054600160a060020a0316156200189c57600080fd5b600454869033908790879087908790600160a060020a0316620018be6200211b565b600160a060020a0380881660208084019190915260a0830185905290831660c083015260e0808352895190830152885182916040830191606084019160808501916101008601918e019080838360005b83811015620019285781810151838201526020016200190e565b50505050905090810190601f168015620019565780820380516001836020036101000a031916815260200191505b5085810384528a5181528a516020918201918c019080838360005b838110156200198b57818101518382015260200162001971565b50505050905090810190601f168015620019b95780820380516001836020036101000a031916815260200191505b5085810383528951815289516020918201918b019080838360005b83811015620019ee578181015183820152602001620019d4565b50505050905090810190601f16801562001a1c5780820380516001836020036101000a031916815260200191505b5085810382528851815288516020918201918a019080838360005b8381101562001a5157818101518382015260200162001a37565b50505050905090810190601f16801562001a7f5780820380516001836020036101000a031916815260200191505b509b505050505050505050505050604051809103906000f08015801562001aaa573d6000803e3d6000fd5b50600160a060020a038082166000818152600d6020908152604080832080546001908101909155338452600c8352818420805473ffffffffffffffffffffffffffffffffffffffff19168617905560085491517f847d97ab0000000000000000000000000000000000000000000000000000000081526024810195909552606485018190526080600486019081528d5160848701528d51979850919095169563847d97ab958d95899591948493604483019360a490930192918901918190849084905b8381101562001b8757818101518382015260200162001b6d565b50505050905090810190601f16801562001bb55780820380516001836020036101000a031916815260200191505b50838103825260058152602001807f68756d616e00000000000000000000000000000000000000000000000000000081525060200195505050505050602060405180830381600087803b15801562001c0c57600080fd5b505af115801562001c21573d6000803e3d6000fd5b505050506040513d602081101562001c3857600080fd5b5051151562001c4657600080fd5b600954604080517f5baf039f000000000000000000000000000000000000000000000000000000008152600160a060020a03848116600483018190526024830181905260448301819052606483015291519190921691635baf039f9160848083019260209291908290030181600087803b15801562001cc457600080fd5b505af115801562001cd9573d6000803e3d6000fd5b505050506040513d602081101562001cf057600080fd5b5051151562001cfe57600080fd5b600a54604080517f52c28fab000000000000000000000000000000000000000000000000000000008152600160a060020a038481166004830152336024830152915191909216916352c28fab9160448083019260209291908290030181600087803b15801562001d6d57600080fd5b505af115801562001d82573d6000803e3d6000fd5b505050506040513d602081101562001d9957600080fd5b5051151562001da757600080fd5b600b805460018101825560009182527f0175b7a638427703f0dbe7bb9bbf987a2551717b34e79f33b5b1008d1fa01db901805473ffffffffffffffffffffffffffffffffffffffff1916600160a060020a03848116918217909255600754604080517f01173a740000000000000000000000000000000000000000000000000000000081526004810193909352519216926301173a74926024808401936020939083900390910190829087803b15801562001e6157600080fd5b505af115801562001e76573d6000803e3d6000fd5b505050506040513d602081101562001e8d57600080fd5b5051151562001e9b57600080fd5b600b5433907fdd445519212181802441b3ea8a0080462d25346f8279d9de28b7a64365d5f2fa90839062001ed790600163ffffffff6200210816565b896040518084600160a060020a0316600160a060020a0316815260200183815260200180602001828103825283818151815260200191508051906020019080838360005b8381101562001f3557818101518382015260200162001f1b565b50505050905090810190601f16801562001f635780820380516001836020036101000a031916815260200191505b5094505050505060405180910390a2505050505050565b600154600090600160a060020a031633148062001fa15750600654600160a060020a031633145b151562001fad57600080fd5b600160a060020a0382166000908152600d60205260408120541162001fd157600080fd5b50600160a060020a03166000908152600d6020526040902080546001019081905590565b6000546001546040805160e260020a633d9abf2b028152336004820152600160a060020a0393841660248201529290911660448301525173__AOLibrary_____________________________9163f66afcac916064808301926020929190829003018186803b1580156200206857600080fd5b505af41580156200207d573d6000803e3d6000fd5b505050506040513d60208110156200209457600080fd5b50511515620020a257600080fd5b600160a060020a0381161515620020b857600080fd5b6005805473ffffffffffffffffffffffffffffffffffffffff19908116600160a060020a03938416179182905560088054929093169116179055565b818101828110156200210257fe5b92915050565b6000828211156200211557fe5b50900390565b60405161073c806200212d833901905600608060405234801561001057600080fd5b5060405161073c38038061073c8339810160409081528151602080840151928401516060850151608086015160a087015160c08801519588018051909894850196938501959290940193909291889188918891889188918891889161007b91600191908a019061011a565b5060028054600160a060020a031916600160a060020a03881617905584516100aa90600390602088019061011a565b5083516100be90600490602087019061011a565b5082516100d290600590602086019061011a565b506006919091556007805460008054600160a060020a031916600160a060020a039094169390931790925560ff199091166001179055506101b59a5050505050505050505050565b828054600181600116156101000203166002900490600052602060002090601f016020900481019282601f1061015b57805160ff1916838001178555610188565b82800160010185558215610188579182015b8281111561018857825182559160200191906001019061016d565b50610194929150610198565b5090565b6101b291905b80821115610194576000815560010161019e565b90565b610578806101c46000396000f3006080604052600436106100a35763ffffffff7c01000000000000000000000000000000000000000000000000000000006000350416630568479081146100a857806306fdde031461013257806313866efa14610147578063430bf08a14610178578063713b563f1461018d5780638f940f63146101a25780639db5dbe4146101cd578063a727be571461020b578063d97aa97714610220578063e9bb84c214610247575b600080fd5b3480156100b457600080fd5b506100bd61026b565b6040805160208082528351818301528351919283929083019185019080838360005b838110156100f75781810151838201526020016100df565b50505050905090810190601f1680156101245780820380516001836020036101000a031916815260200191505b509250505060405180910390f35b34801561013e57600080fd5b506100bd6102f9565b34801561015357600080fd5b5061015c610353565b60408051600160a060020a039092168252519081900360200190f35b34801561018457600080fd5b5061015c610362565b34801561019957600080fd5b506100bd610371565b3480156101ae57600080fd5b506101b76103cc565b6040805160ff9092168252519081900360200190f35b3480156101d957600080fd5b506101f7600160a060020a03600435811690602435166044356103d5565b604080519115158252519081900360200190f35b34801561021757600080fd5b506100bd610493565b34801561022c57600080fd5b506102356104ee565b60408051918252519081900360200190f35b34801561025357600080fd5b506101f7600160a060020a03600435166024356104f4565b6003805460408051602060026001851615610100026000190190941693909304601f810184900484028201840190925281815292918301828280156102f15780601f106102c6576101008083540402835291602001916102f1565b820191906000526020600020905b8154815290600101906020018083116102d457829003601f168201915b505050505081565b60018054604080516020600284861615610100026000190190941693909304601f810184900484028201840190925281815292918301828280156102f15780601f106102c6576101008083540402835291602001916102f1565b600254600160a060020a031681565b600054600160a060020a031681565b6004805460408051602060026001851615610100026000190190941693909304601f810184900484028201840190925281815292918301828280156102f15780601f106102c6576101008083540402835291602001916102f1565b60075460ff1681565b600080548190600160a060020a031633146103ef57600080fd5b50604080517fa9059cbb000000000000000000000000000000000000000000000000000000008152600160a060020a038581166004830152602482018590529151869283169163a9059cbb9160448083019260209291908290030181600087803b15801561045c57600080fd5b505af1158015610470573d6000803e3d6000fd5b505050506040513d602081101561048657600080fd5b5060019695505050505050565b6005805460408051602060026001851615610100026000190190941693909304601f810184900484028201840190925281815292918301828280156102f15780601f106102c6576101008083540402835291602001916102f1565b60065481565b60008054600160a060020a0316331461050c57600080fd5b604051600160a060020a0384169083156108fc029084906000818181858888f19350505050158015610542573d6000803e3d6000fd5b50600193925050505600a165627a7a72305820f5390f23f02f1fb5f329584705e7871717daf1d10a0a2a61465d1b32dbb9006d0029a165627a7a723058200d4ae2a98786807a0b58ad750b945dc8508ea70aee7de77b73bd1b11ea5c3f0b0029",
	"source": "pragma solidity ^0.4.24;\n\nimport './TheAO.sol';\nimport './SafeMath.sol';\nimport './AOLibrary.sol';\nimport './Name.sol';\nimport './Position.sol';\nimport './NameTAOLookup.sol';\nimport './NameTAOPosition.sol';\nimport './NamePublicKey.sol';\n\n/**\n * @title NameFactory\n *\n * The purpose of this contract is to allow node to create Name\n */\ncontract NameFactory is TheAO {\n\tusing SafeMath for uint256;\n\n\taddress public positionAddress;\n\taddress public nameTAOVaultAddress;\n\taddress public nameTAOLookupAddress;\n\taddress public namePublicKeyAddress;\n\n\tPosition internal _position;\n\tNameTAOLookup internal _nameTAOLookup;\n\tNameTAOPosition internal _nameTAOPosition;\n\tNamePublicKey internal _namePublicKey;\n\n\taddress[] internal names;\n\n\t// Mapping from eth address to Name ID\n\tmapping (address => address) public ethAddressToNameId;\n\n\t// Mapping from Name ID to its nonce\n\tmapping (address => uint256) public nonces;\n\n\t// Event to be broadcasted to public when a Name is created\n\tevent CreateName(address indexed ethAddress, address nameId, uint256 index, string name);\n\n\t/**\n\t * @dev Constructor function\n\t */\n\tconstructor(address _positionAddress, address _nameTAOVaultAddress) public {\n\t\tpositionAddress = _positionAddress;\n\t\tnameTAOVaultAddress = _nameTAOVaultAddress;\n\t\t_position = Position(positionAddress);\n\t}\n\n\t/**\n\t * @dev Checks if the calling contract address is The AO\n\t *\t\tOR\n\t *\t\tIf The AO is set to a Name/TAO, then check if calling address is the Advocate\n\t */\n\tmodifier onlyTheAO {\n\t\trequire (AOLibrary.isTheAO(msg.sender, theAO, nameTAOPositionAddress));\n\t\t_;\n\t}\n\n\t/**\n\t * @dev Checks if calling address can update Name's nonce\n\t */\n\tmodifier canUpdateNonce {\n\t\trequire (msg.sender == nameTAOPositionAddress || msg.sender == namePublicKeyAddress);\n\t\t_;\n\t}\n\n\t/***** The AO ONLY METHODS *****/\n\t/**\n\t * @dev Transfer ownership of The AO to new address\n\t * @param _theAO The new address to be transferred\n\t */\n\tfunction transferOwnership(address _theAO) public onlyTheAO {\n\t\trequire (_theAO != address(0));\n\t\ttheAO = _theAO;\n\t}\n\n\t/**\n\t * @dev Whitelist `_account` address to transact on behalf of others\n\t * @param _account The address to whitelist\n\t * @param _whitelist Either to whitelist or not\n\t */\n\tfunction setWhitelist(address _account, bool _whitelist) public onlyTheAO {\n\t\trequire (_account != address(0));\n\t\twhitelist[_account] = _whitelist;\n\t}\n\n\t/**\n\t * @dev The AO set the NameTAOLookup Address\n\t * @param _nameTAOLookupAddress The address of NameTAOLookup\n\t */\n\tfunction setNameTAOLookupAddress(address _nameTAOLookupAddress) public onlyTheAO {\n\t\trequire (_nameTAOLookupAddress != address(0));\n\t\tnameTAOLookupAddress = _nameTAOLookupAddress;\n\t\t_nameTAOLookup = NameTAOLookup(nameTAOLookupAddress);\n\t}\n\n\t/**\n\t * @dev The AO set the NameTAOPosition Address\n\t * @param _nameTAOPositionAddress The address of NameTAOPosition\n\t */\n\tfunction setNameTAOPositionAddress(address _nameTAOPositionAddress) public onlyTheAO {\n\t\trequire (_nameTAOPositionAddress != address(0));\n\t\tnameTAOPositionAddress = _nameTAOPositionAddress;\n\t\t_nameTAOPosition = NameTAOPosition(nameTAOPositionAddress);\n\t}\n\n\t/**\n\t * @dev The AO set the NamePublicKey Address\n\t * @param _namePublicKeyAddress The address of NamePublicKey\n\t */\n\tfunction setNamePublicKeyAddress(address _namePublicKeyAddress) public onlyTheAO {\n\t\trequire (_namePublicKeyAddress != address(0));\n\t\tnamePublicKeyAddress = _namePublicKeyAddress;\n\t\t_namePublicKey = NamePublicKey(namePublicKeyAddress);\n\t}\n\n\t/***** PUBLIC METHODS *****/\n\t/**\n\t * @dev Increment the nonce of a Name\n\t * @param _nameId The ID of the Name\n\t * @return current nonce\n\t */\n\tfunction incrementNonce(address _nameId) public canUpdateNonce returns (uint256) {\n\t\t// Check if _nameId exist\n\t\trequire (nonces[_nameId] > 0);\n\t\tnonces[_nameId]++;\n\t\treturn nonces[_nameId];\n\t}\n\n\t/**\n\t * @dev Create a Name\n\t * @param _name The name of the Name\n\t * @param _datHash The datHash to this Name's profile\n\t * @param _database The database for this Name\n\t * @param _keyValue The key/value pair to be checked on the database\n\t * @param _contentId The contentId related to this Name\n\t */\n\tfunction createName(string _name, string _datHash, string _database, string _keyValue, bytes32 _contentId) public {\n\t\trequire (bytes(_name).length > 0);\n\t\trequire (!_nameTAOLookup.isExist(_name));\n\n\t\t// Only one Name per ETH address\n\t\trequire (ethAddressToNameId[msg.sender] == address(0));\n\n\t\t// The address is the Name ID (which is also a TAO ID)\n\t\taddress nameId = new Name(_name, msg.sender, _datHash, _database, _keyValue, _contentId, nameTAOVaultAddress);\n\n\t\t// Increment the nonce\n\t\tnonces[nameId]++;\n\n\t\tethAddressToNameId[msg.sender] = nameId;\n\n\t\t// Store the name lookup information\n\t\trequire (_nameTAOLookup.add(_name, nameId, 'human', 1));\n\n\t\t// Store the Advocate/Listener/Speaker information\n\t\trequire (_nameTAOPosition.add(nameId, nameId, nameId, nameId));\n\n\t\t// Store the public key information\n\t\trequire (_namePublicKey.add(nameId, msg.sender));\n\n\t\tnames.push(nameId);\n\n\t\t// Need to mint Position token for this Name\n\t\trequire (_position.mintToken(nameId));\n\n\t\temit CreateName(msg.sender, nameId, names.length.sub(1), _name);\n\t}\n\n\t/**\n\t * @dev Get Name information\n\t * @param _nameId The ID of the Name to be queried\n\t * @return The name of the Name\n\t * @return The originId of the Name (in this case, it's the creator node's ETH address)\n\t * @return The datHash of the Name\n\t * @return The database of the Name\n\t * @return The keyValue of the Name\n\t * @return The contentId of the Name\n\t * @return The typeId of the Name\n\t */\n\tfunction getName(address _nameId) public view returns (string, address, string, string, string, bytes32, uint8) {\n\t\tName _name = Name(_nameId);\n\t\treturn (\n\t\t\t_name.name(),\n\t\t\t_name.originId(),\n\t\t\t_name.datHash(),\n\t\t\t_name.database(),\n\t\t\t_name.keyValue(),\n\t\t\t_name.contentId(),\n\t\t\t_name.typeId()\n\t\t);\n\t}\n\n\t/**\n\t * @dev Get total Names count\n\t * @return total Names count\n\t */\n\tfunction getTotalNamesCount() public view returns (uint256) {\n\t\treturn names.length;\n\t}\n\n\t/**\n\t * @dev Get list of Name IDs\n\t * @param _from The starting index\n\t * @param _to The ending index\n\t * @return list of Name IDs\n\t */\n\tfunction getNameIds(uint256 _from, uint256 _to) public view returns (address[]) {\n\t\trequire (_from >= 0 && _to >= _from);\n\t\trequire (names.length > 0);\n\n\t\taddress[] memory _names = new address[](_to.sub(_from).add(1));\n\t\tif (_to > names.length.sub(1)) {\n\t\t\t_to = names.length.sub(1);\n\t\t}\n\t\tfor (uint256 i = _from; i <= _to; i++) {\n\t\t\t_names[i.sub(_from)] = names[i];\n\t\t}\n\t\treturn _names;\n\t}\n\n\t/**\n\t * @dev Check whether or not the signature is valid\n\t * @param _data The signed string data\n\t * @param _nonce The signed uint256 nonce (should be Name's current nonce + 1)\n\t * @param _validateAddress The ETH address to be validated (optional)\n\t * @param _name The name of the Name\n\t * @param _signatureV The V part of the signature\n\t * @param _signatureR The R part of the signature\n\t * @param _signatureS The S part of the signature\n\t * @return true if valid. false otherwise\n\t */\n\tfunction validateNameSignature(\n\t\tstring _data,\n\t\tuint256 _nonce,\n\t\taddress _validateAddress,\n\t\tstring _name,\n\t\tuint8 _signatureV,\n\t\tbytes32 _signatureR,\n\t\tbytes32 _signatureS\n\t) public view returns (bool) {\n\t\trequire (_nameTAOLookup.isExist(_name));\n\t\taddress _nameId = _nameTAOLookup.getAddressByName(_name);\n\t\taddress _signatureAddress = AOLibrary.getValidateSignatureAddress(address(this), _data, _nonce, _signatureV, _signatureR, _signatureS);\n\t\tif (_validateAddress != address(0)) {\n\t\t\treturn (\n\t\t\t\t_nonce == nonces[_nameId].add(1) &&\n\t\t\t\t_signatureAddress == _validateAddress &&\n\t\t\t\t_namePublicKey.isKeyExist(_nameId, _validateAddress)\n\t\t\t);\n\t\t} else {\n\t\t\treturn (\n\t\t\t\t_nonce == nonces[_nameId].add(1) &&\n\t\t\t\t_signatureAddress == _namePublicKey.getDefaultKey(_nameId)\n\t\t\t);\n\t\t}\n\t}\n}\n",
	"sourcePath": "/Users/johanmulyono/Work/AO/ao-contracts/contracts/NameFactory.sol",
	"compiler": {
		"name": "solc",
		"version": "0.4.24+commit.e67f0147.Emscripten.clang"
	},
	"schemaVersion": "2.0.1",
	"updatedAt": "2019-01-07T04:52:08.747Z"
}