{
	"contractName": "owned",
	"abi": [
		{
			"constant": true,
			"inputs": [],
			"name": "owner",
			"outputs": [
				{
					"name": "",
					"type": "address"
				}
			],
			"payable": false,
			"stateMutability": "view",
			"type": "function"
		},
		{
			"constant": true,
			"inputs": [
				{
					"name": "",
					"type": "address"
				}
			],
			"name": "whitelist",
			"outputs": [
				{
					"name": "",
					"type": "bool"
				}
			],
			"payable": false,
			"stateMutability": "view",
			"type": "function"
		},
		{
			"inputs": [],
			"payable": false,
			"stateMutability": "nonpayable",
			"type": "constructor"
		},
		{
			"constant": false,
			"inputs": [
				{
					"name": "newOwner",
					"type": "address"
				}
			],
			"name": "transferOwnership",
			"outputs": [],
			"payable": false,
			"stateMutability": "nonpayable",
			"type": "function"
		},
		{
			"constant": false,
			"inputs": [
				{
					"name": "_account",
					"type": "address"
				},
				{
					"name": "_whitelist",
					"type": "bool"
				}
			],
			"name": "setWhitelist",
			"outputs": [],
			"payable": false,
			"stateMutability": "nonpayable",
			"type": "function"
		}
	],
	"bytecode": "0x608060405234801561001057600080fd5b5060008054600160a060020a031916331790556101ed806100326000396000f3006080604052600436106100615763ffffffff7c010000000000000000000000000000000000000000000000000000000060003504166353d6fd5981146100665780638da5cb5b1461008e5780639b19251a146100bf578063f2fde38b146100f4575b600080fd5b34801561007257600080fd5b5061008c600160a060020a03600435166024351515610115565b005b34801561009a57600080fd5b506100a3610157565b60408051600160a060020a039092168252519081900360200190f35b3480156100cb57600080fd5b506100e0600160a060020a0360043516610166565b604080519115158252519081900360200190f35b34801561010057600080fd5b5061008c600160a060020a036004351661017b565b600054600160a060020a0316331461012c57600080fd5b600160a060020a03919091166000908152600160205260409020805460ff1916911515919091179055565b600054600160a060020a031681565b60016020526000908152604090205460ff1681565b600054600160a060020a0316331461019257600080fd5b6000805473ffffffffffffffffffffffffffffffffffffffff1916600160a060020a03929092169190911790555600a165627a7a72305820ddd068151bd5173e635b89068f4738cedc4db426ccda8a23513650979cb4e0aa0029",
	"source": "pragma solidity ^0.4.24;\n\ncontract owned {\n\taddress public owner;\n\n\t// Check whether an address is whitelisted and granted access to transact\n\t// on behalf of others\n\tmapping (address => bool) public whitelist;\n\n\tconstructor() public {\n\t\towner = msg.sender;\n\t}\n\n\tmodifier onlyOwner {\n\t\trequire(msg.sender == owner);\n\t\t_;\n\t}\n\n\t/**\n\t * @dev Checks if `_account` is in whitelist.\n\t *\t\ti.e, `_account` is granted access to transact on behalf of others\n\t */\n\tmodifier inWhitelist(address _account) {\n\t\trequire (whitelist[_account] == true || _account == owner);\n\t\t_;\n\t}\n\n\tfunction transferOwnership(address newOwner) onlyOwner public {\n\t\towner = newOwner;\n\t}\n\n\t/**\n\t * @dev Whitelist `_account` address to transact on behalf of others\n\t * @param _account The address to whitelist\n\t * @param _whitelist Either to whitelist or not\n\t */\n\tfunction setWhitelist(address _account, bool _whitelist) public onlyOwner {\n\t\twhitelist[_account] = _whitelist;\n\t}\n}\n",
	"sourcePath": "/home/jmulyono/ao-contracts/contracts/owned.sol",
	"compiler": {
		"name": "solc",
		"version": "0.4.24+commit.e67f0147.Emscripten.clang"
	},
	"schemaVersion": "2.0.1",
	"updatedAt": "2018-08-01T14:42:31.304Z"
}