{
	"contractName": "Position",
	"abi": [
		{
			"constant": true,
			"inputs": [],
			"name": "name",
			"outputs": [
				{
					"name": "",
					"type": "string"
				}
			],
			"payable": false,
			"stateMutability": "view",
			"type": "function"
		},
		{
			"constant": true,
			"inputs": [],
			"name": "aoDevTeam1",
			"outputs": [
				{
					"name": "",
					"type": "address"
				}
			],
			"payable": false,
			"stateMutability": "view",
			"type": "function"
		},
		{
			"constant": true,
			"inputs": [],
			"name": "totalSupply",
			"outputs": [
				{
					"name": "",
					"type": "uint256"
				}
			],
			"payable": false,
			"stateMutability": "view",
			"type": "function"
		},
		{
			"constant": true,
			"inputs": [],
			"name": "decimals",
			"outputs": [
				{
					"name": "",
					"type": "uint8"
				}
			],
			"payable": false,
			"stateMutability": "view",
			"type": "function"
		},
		{
			"constant": false,
			"inputs": [
				{
					"name": "_account",
					"type": "address"
				},
				{
					"name": "_whitelist",
					"type": "bool"
				}
			],
			"name": "setWhitelist",
			"outputs": [],
			"payable": false,
			"stateMutability": "nonpayable",
			"type": "function"
		},
		{
			"constant": true,
			"inputs": [
				{
					"name": "",
					"type": "address"
				}
			],
			"name": "balanceOf",
			"outputs": [
				{
					"name": "",
					"type": "uint256"
				}
			],
			"payable": false,
			"stateMutability": "view",
			"type": "function"
		},
		{
			"constant": true,
			"inputs": [],
			"name": "MAX_SUPPLY_PER_NAME",
			"outputs": [
				{
					"name": "",
					"type": "uint256"
				}
			],
			"payable": false,
			"stateMutability": "view",
			"type": "function"
		},
		{
			"constant": true,
			"inputs": [
				{
					"name": "",
					"type": "address"
				}
			],
			"name": "receivedToken",
			"outputs": [
				{
					"name": "",
					"type": "bool"
				}
			],
			"payable": false,
			"stateMutability": "view",
			"type": "function"
		},
		{
			"constant": true,
			"inputs": [
				{
					"name": "",
					"type": "address"
				},
				{
					"name": "",
					"type": "address"
				}
			],
			"name": "thoughtStakedBalance",
			"outputs": [
				{
					"name": "",
					"type": "uint256"
				}
			],
			"payable": false,
			"stateMutability": "view",
			"type": "function"
		},
		{
			"constant": true,
			"inputs": [],
			"name": "symbol",
			"outputs": [
				{
					"name": "",
					"type": "string"
				}
			],
			"payable": false,
			"stateMutability": "view",
			"type": "function"
		},
		{
			"constant": true,
			"inputs": [
				{
					"name": "",
					"type": "address"
				}
			],
			"name": "totalThoughtStakedBalance",
			"outputs": [
				{
					"name": "",
					"type": "uint256"
				}
			],
			"payable": false,
			"stateMutability": "view",
			"type": "function"
		},
		{
			"constant": true,
			"inputs": [
				{
					"name": "",
					"type": "address"
				}
			],
			"name": "whitelist",
			"outputs": [
				{
					"name": "",
					"type": "bool"
				}
			],
			"payable": false,
			"stateMutability": "view",
			"type": "function"
		},
		{
			"constant": true,
			"inputs": [],
			"name": "aoDevTeam2",
			"outputs": [
				{
					"name": "",
					"type": "address"
				}
			],
			"payable": false,
			"stateMutability": "view",
			"type": "function"
		},
		{
			"constant": false,
			"inputs": [
				{
					"name": "_aoDevTeam1",
					"type": "address"
				},
				{
					"name": "_aoDevTeam2",
					"type": "address"
				}
			],
			"name": "setAODevTeamAddresses",
			"outputs": [],
			"payable": false,
			"stateMutability": "nonpayable",
			"type": "function"
		},
		{
			"constant": true,
			"inputs": [],
			"name": "developer",
			"outputs": [
				{
					"name": "",
					"type": "address"
				}
			],
			"payable": false,
			"stateMutability": "view",
			"type": "function"
		},
		{
			"constant": false,
			"inputs": [
				{
					"name": "newDeveloper",
					"type": "address"
				}
			],
			"name": "transferOwnership",
			"outputs": [],
			"payable": false,
			"stateMutability": "nonpayable",
			"type": "function"
		},
		{
			"inputs": [
				{
					"name": "initialSupply",
					"type": "uint256"
				},
				{
					"name": "tokenName",
					"type": "string"
				},
				{
					"name": "tokenSymbol",
					"type": "string"
				}
			],
			"payable": false,
			"stateMutability": "nonpayable",
			"type": "constructor"
		},
		{
			"anonymous": false,
			"inputs": [
				{
					"indexed": true,
					"name": "nameId",
					"type": "address"
				},
				{
					"indexed": false,
					"name": "value",
					"type": "uint256"
				}
			],
			"name": "Mint",
			"type": "event"
		},
		{
			"anonymous": false,
			"inputs": [
				{
					"indexed": true,
					"name": "nameId",
					"type": "address"
				},
				{
					"indexed": true,
					"name": "thoughtId",
					"type": "address"
				},
				{
					"indexed": false,
					"name": "value",
					"type": "uint256"
				}
			],
			"name": "Stake",
			"type": "event"
		},
		{
			"anonymous": false,
			"inputs": [
				{
					"indexed": true,
					"name": "nameId",
					"type": "address"
				},
				{
					"indexed": true,
					"name": "thoughtId",
					"type": "address"
				},
				{
					"indexed": false,
					"name": "value",
					"type": "uint256"
				}
			],
			"name": "Unstake",
			"type": "event"
		},
		{
			"constant": false,
			"inputs": [
				{
					"name": "_nameId",
					"type": "address"
				}
			],
			"name": "mintToken",
			"outputs": [
				{
					"name": "",
					"type": "bool"
				}
			],
			"payable": false,
			"stateMutability": "nonpayable",
			"type": "function"
		},
		{
			"constant": true,
			"inputs": [
				{
					"name": "_nameId",
					"type": "address"
				}
			],
			"name": "stakedBalance",
			"outputs": [
				{
					"name": "",
					"type": "uint256"
				}
			],
			"payable": false,
			"stateMutability": "view",
			"type": "function"
		},
		{
			"constant": false,
			"inputs": [
				{
					"name": "_nameId",
					"type": "address"
				},
				{
					"name": "_thoughtId",
					"type": "address"
				},
				{
					"name": "_value",
					"type": "uint256"
				}
			],
			"name": "stake",
			"outputs": [
				{
					"name": "",
					"type": "bool"
				}
			],
			"payable": false,
			"stateMutability": "nonpayable",
			"type": "function"
		},
		{
			"constant": false,
			"inputs": [
				{
					"name": "_nameId",
					"type": "address"
				},
				{
					"name": "_thoughtId",
					"type": "address"
				},
				{
					"name": "_value",
					"type": "uint256"
				}
			],
			"name": "unstake",
			"outputs": [
				{
					"name": "",
					"type": "bool"
				}
			],
			"payable": false,
			"stateMutability": "nonpayable",
			"type": "function"
		}
	],
	"bytecode": "0x608060405260018054600160a060020a0319908116735c63644d01ba385ebac5bcf2ddc1e6dbc1182b52179091556002805490911673156c79bf4347d1891da834ea30662a14177cbf281790556006805460ff1916600417905534801561006557600080fd5b50604051610d38380380610d3883398101604090815281516020808401518385015160008054600160a060020a031916339081178255600786905581526009845294909420839055840180519294909301916100c791600491908501906100e4565b5080516100db9060059060208401906100e4565b5050505061017f565b828054600181600116156101000203166002900490600052602060002090601f016020900481019282601f1061012557805160ff1916838001178555610152565b82800160010185558215610152579182015b82811115610152578251825591602001919060010190610137565b5061015e929150610162565b5090565b61017c91905b8082111561015e5760008155600101610168565b90565b610baa8061018e6000396000f3006080604052600436106101115763ffffffff7c010000000000000000000000000000000000000000000000000000000060003504166301173a74811461011657806306fdde031461014b57806315227aa7146101d557806318160ddd14610206578063313ce5671461022d57806353d6fd5914610258578063602172671461028057806360829f8a146102a157806370a08231146102cb5780637c291a0e146102ec578063938115a914610301578063945d1c2d1461032257806395d89b41146103495780639a25f5111461035e5780639b19251a1461037f578063a99433a6146103a0578063b24626e9146103b5578063bf6eac2f146103dc578063ca4b208b14610406578063f2fde38b1461041b575b600080fd5b34801561012257600080fd5b50610137600160a060020a036004351661043c565b604080519115158252519081900360200190f35b34801561015757600080fd5b5061016061055e565b6040805160208082528351818301528351919283929083019185019080838360005b8381101561019a578181015183820152602001610182565b50505050905090810190601f1680156101c75780820380516001836020036101000a031916815260200191505b509250505060405180910390f35b3480156101e157600080fd5b506101ea6105ec565b60408051600160a060020a039092168252519081900360200190f35b34801561021257600080fd5b5061021b6105fb565b60408051918252519081900360200190f35b34801561023957600080fd5b50610242610601565b6040805160ff9092168252519081900360200190f35b34801561026457600080fd5b5061027e600160a060020a0360043516602435151561060a565b005b34801561028c57600080fd5b5061021b600160a060020a036004351661064c565b3480156102ad57600080fd5b50610137600160a060020a036004358116906024351660443561067f565b3480156102d757600080fd5b5061021b600160a060020a036004351661084b565b3480156102f857600080fd5b5061021b61085d565b34801561030d57600080fd5b50610137600160a060020a0360043516610864565b34801561032e57600080fd5b5061021b600160a060020a0360043581169060243516610879565b34801561035557600080fd5b50610160610896565b34801561036a57600080fd5b5061021b600160a060020a03600435166108f1565b34801561038b57600080fd5b50610137600160a060020a0360043516610903565b3480156103ac57600080fd5b506101ea610918565b3480156103c157600080fd5b5061027e600160a060020a0360043581169060243516610927565b3480156103e857600080fd5b50610137600160a060020a0360043581169060243516604435610979565b34801561041257600080fd5b506101ea610b0a565b34801561042757600080fd5b5061027e600160a060020a0360043516610b19565b3360008181526003602052604081205490919060ff1615156001148061046f5750600054600160a060020a038281169116145b151561047a57600080fd5b600160a060020a03831660009081526008602052604090205460ff16156104a057600080fd5b600160a060020a0383166000908152600860209081526040808320805460ff1916600117905560099091529020546104e190620f424063ffffffff610b5f16565b600160a060020a03841660009081526009602052604090205560075461051090620f424063ffffffff610b5f16565b60075560408051620f424081529051600160a060020a038516917f0f6798a560793a54c3bcfe86a93cde1e73087d944c0ea20544137d4121396885919081900360200190a250600192915050565b6004805460408051602060026001851615610100026000190190941693909304601f810184900484028201840190925281815292918301828280156105e45780601f106105b9576101008083540402835291602001916105e4565b820191906000526020600020905b8154815290600101906020018083116105c757829003601f168201915b505050505081565b600154600160a060020a031681565b60075481565b60065460ff1681565b600054600160a060020a0316331461062157600080fd5b600160a060020a03919091166000908152600360205260409020805460ff1916911515919091179055565b600160a060020a03811660009081526009602052604081205461067990620f42409063ffffffff610b6c16565b92915050565b3360008181526003602052604081205490919060ff161515600114806106b25750600054600160a060020a038281169116145b15156106bd57600080fd5b6000831180156106d05750620f42408311155b15156106db57600080fd5b600160a060020a038086166000908152600a602090815260408083209388168352929052205483111561070d57600080fd5b600160a060020a0384166000908152600b602052604090205483111561073257600080fd5b600160a060020a038086166000908152600a6020908152604080832093881683529290522054610768908463ffffffff610b6c16565b600160a060020a038087166000908152600a60209081526040808320938916835292815282822093909355600b9092529020546107ab908463ffffffff610b6c16565b600160a060020a038086166000908152600b60209081526040808320949094559188168152600990915220546107e7908463ffffffff610b5f16565b600160a060020a0380871660008181526009602090815260409182902094909455805187815290519288169391927f390b1276974b9463e5d66ab10df69b6f3d7b930eb066a0e66df327edd2cc811c929181900390910190a3506001949350505050565b60096020526000908152604090205481565b620f424081565b60086020526000908152604090205460ff1681565b600a60209081526000928352604080842090915290825290205481565b6005805460408051602060026001851615610100026000190190941693909304601f810184900484028201840190925281815292918301828280156105e45780601f106105b9576101008083540402835291602001916105e4565b600b6020526000908152604090205481565b60036020526000908152604090205460ff1681565b600254600160a060020a031681565b600054600160a060020a0316331461093e57600080fd5b60018054600160a060020a0393841673ffffffffffffffffffffffffffffffffffffffff199182161790915560028054929093169116179055565b3360008181526003602052604081205490919060ff161515600114806109ac5750600054600160a060020a038281169116145b15156109b757600080fd5b6000831180156109ca5750620f42408311155b15156109d557600080fd5b600160a060020a0385166000908152600960205260409020548311156109fa57600080fd5b600160a060020a038516600090815260096020526040902054610a23908463ffffffff610b6c16565b600160a060020a03808716600090815260096020908152604080832094909455600a81528382209288168252919091522054610a65908463ffffffff610b5f16565b600160a060020a038087166000908152600a60209081526040808320938916835292815282822093909355600b909252902054610aa8908463ffffffff610b5f16565b600160a060020a038086166000818152600b602090815260409182902094909455805187815290519193928916927f99039fcf0a98f484616c5196ee8b2ecfa971babf0b519848289ea4db381f85f792918290030190a3506001949350505050565b600054600160a060020a031681565b600054600160a060020a03163314610b3057600080fd5b6000805473ffffffffffffffffffffffffffffffffffffffff1916600160a060020a0392909216919091179055565b8181018281101561067957fe5b600082821115610b7857fe5b509003905600a165627a7a72305820f4001f044f4577ef3d50b5e4f6f6dd84964cdd6da3e14b0725f0cc66466e5e620029",
	"source": "pragma solidity ^0.4.24;\n\nimport './SafeMath.sol';\nimport './developed.sol';\n\n/**\n * @title Position\n */\ncontract Position is developed {\n\tusing SafeMath for uint256;\n\n\t// Public variables of the token\n\tstring public name;\n\tstring public symbol;\n\tuint8 public decimals = 4;\n\n\tuint256 constant public MAX_SUPPLY_PER_NAME = 100 * (10 ** 4);\n\n\tuint256 public totalSupply;\n\n\t// Mapping from Name ID to bool value whether or not it has received Position Token\n\tmapping (address => bool) public receivedToken;\n\n\t// Mapping from Name ID to its total available balance\n\tmapping (address => uint256) public balanceOf;\n\n\t// Mapping from Name's Thought ID to its staked amount\n\tmapping (address => mapping(address => uint256)) public thoughtStakedBalance;\n\n\t// Mapping from Thought ID to its total staked amount\n\tmapping (address => uint256) public totalThoughtStakedBalance;\n\n\t// This generates a public event on the blockchain that will notify clients\n\tevent Mint(address indexed nameId, uint256 value);\n\tevent Stake(address indexed nameId, address indexed thoughtId, uint256 value);\n\tevent Unstake(address indexed nameId, address indexed thoughtId, uint256 value);\n\n\t/**\n\t * Constructor function\n\t *\n\t * Initializes contract with initial supply tokens to the creator of the contract\n\t */\n\tconstructor (uint256 initialSupply, string tokenName, string tokenSymbol) public {\n\t\ttotalSupply = initialSupply;\t\t\t// Update total supply\n\t\tbalanceOf[msg.sender] = totalSupply;\t// Give the creator all initial tokens\n\t\tname = tokenName;\t\t\t\t\t\t// Set the name for display purposes\n\t\tsymbol = tokenSymbol;\t\t\t\t\t// Set the symbol for display purposes\n\t}\n\n\t/***** PUBLIC METHODS *****/\n\t/**\n\t * @dev Create `MAX_SUPPLY_PER_NAME` tokens and send it to `_nameId`\n\t * @param _nameId Address to receive the tokens\n\t * @return true on success\n\t */\n\tfunction mintToken(address _nameId) public inWhitelist(msg.sender) returns (bool) {\n\t\t// Make sure _nameId has not received Position Token\n\t\trequire (receivedToken[_nameId] == false);\n\n\t\treceivedToken[_nameId] = true;\n\t\tbalanceOf[_nameId] = balanceOf[_nameId].add(MAX_SUPPLY_PER_NAME);\n\t\ttotalSupply = totalSupply.add(MAX_SUPPLY_PER_NAME);\n\t\temit Mint(_nameId, MAX_SUPPLY_PER_NAME);\n\t\treturn true;\n\t}\n\n\t/**\n\t * @dev Get staked balance of `_nameId`\n\t * @param _nameId The Name ID to be queried\n\t * @return total staked balance\n\t */\n\tfunction stakedBalance(address _nameId) public view returns (uint256) {\n\t\treturn MAX_SUPPLY_PER_NAME.sub(balanceOf[_nameId]);\n\t}\n\n\t/**\n\t * @dev Stake `_value` tokens on `_thoughtId` from `_nameId`\n\t * @param _nameId The Name ID that wants to stake\n\t * @param _thoughtId The Thought ID to stake\n\t * @param _value The amount to stake\n\t * @return true on success\n\t */\n\tfunction stake(address _nameId, address _thoughtId, uint256 _value) public inWhitelist(msg.sender) returns (bool) {\n\t\trequire (_value > 0 && _value <= MAX_SUPPLY_PER_NAME);\n\t\trequire (balanceOf[_nameId] >= _value);\t\t\t\t\t\t\t// Check if the targeted balance is enough\n\t\tbalanceOf[_nameId] = balanceOf[_nameId].sub(_value);\t\t\t// Subtract from the targeted balance\n\t\tthoughtStakedBalance[_nameId][_thoughtId] = thoughtStakedBalance[_nameId][_thoughtId].add(_value);\t// Add to the targeted staked balance\n\t\ttotalThoughtStakedBalance[_thoughtId] = totalThoughtStakedBalance[_thoughtId].add(_value);\n\t\temit Stake(_nameId, _thoughtId, _value);\n\t\treturn true;\n\t}\n\n\t/**\n\t * @dev Unstake `_value` tokens from `_nameId`'s `_thoughtId`\n\t * @param _nameId The Name ID that wants to unstake\n\t * @param _thoughtId The Thought ID to unstake\n\t * @param _value The amount to unstake\n\t * @return true on success\n\t */\n\tfunction unstake(address _nameId, address _thoughtId, uint256 _value) public inWhitelist(msg.sender) returns (bool) {\n\t\trequire (_value > 0 && _value <= MAX_SUPPLY_PER_NAME);\n\t\trequire (thoughtStakedBalance[_nameId][_thoughtId] >= _value);\t// Check if the targeted staked balance is enough\n\t\trequire (totalThoughtStakedBalance[_thoughtId] >= _value);\t// Check if the total targeted staked balance is enough\n\t\tthoughtStakedBalance[_nameId][_thoughtId] = thoughtStakedBalance[_nameId][_thoughtId].sub(_value);\t// Subtract from the targeted staked balance\n\t\ttotalThoughtStakedBalance[_thoughtId] = totalThoughtStakedBalance[_thoughtId].sub(_value);\n\t\tbalanceOf[_nameId] = balanceOf[_nameId].add(_value);\t\t\t// Add to the targeted balance\n\t\temit Unstake(_nameId, _thoughtId, _value);\n\t\treturn true;\n\t}\n}\n",
	"sourcePath": "/home/jmulyono/ao-contracts/contracts/Position.sol",
	"compiler": {
		"name": "solc",
		"version": "0.4.24+commit.e67f0147.Emscripten.clang"
	},
	"schemaVersion": "2.0.1",
	"updatedAt": "2018-12-11T08:43:54.358Z"
}