{
	"contractName": "Position",
	"abi": [
		{
			"constant": true,
			"inputs": [],
			"name": "name",
			"outputs": [
				{
					"name": "",
					"type": "string"
				}
			],
			"payable": false,
			"stateMutability": "view",
			"type": "function"
		},
		{
			"constant": true,
			"inputs": [],
			"name": "totalSupply",
			"outputs": [
				{
					"name": "",
					"type": "uint256"
				}
			],
			"payable": false,
			"stateMutability": "view",
			"type": "function"
		},
		{
			"constant": true,
			"inputs": [],
			"name": "decimals",
			"outputs": [
				{
					"name": "",
					"type": "uint8"
				}
			],
			"payable": false,
			"stateMutability": "view",
			"type": "function"
		},
		{
			"constant": true,
			"inputs": [
				{
					"name": "",
					"type": "address"
				},
				{
					"name": "",
					"type": "address"
				}
			],
			"name": "taoStakedBalance",
			"outputs": [
				{
					"name": "",
					"type": "uint256"
				}
			],
			"payable": false,
			"stateMutability": "view",
			"type": "function"
		},
		{
			"constant": true,
			"inputs": [],
			"name": "nameTAOPositionAddress",
			"outputs": [
				{
					"name": "",
					"type": "address"
				}
			],
			"payable": false,
			"stateMutability": "view",
			"type": "function"
		},
		{
			"constant": true,
			"inputs": [
				{
					"name": "",
					"type": "address"
				}
			],
			"name": "totalTAOStakedBalance",
			"outputs": [
				{
					"name": "",
					"type": "uint256"
				}
			],
			"payable": false,
			"stateMutability": "view",
			"type": "function"
		},
		{
			"constant": true,
			"inputs": [
				{
					"name": "",
					"type": "address"
				}
			],
			"name": "balanceOf",
			"outputs": [
				{
					"name": "",
					"type": "uint256"
				}
			],
			"payable": false,
			"stateMutability": "view",
			"type": "function"
		},
		{
			"constant": true,
			"inputs": [],
			"name": "MAX_SUPPLY_PER_NAME",
			"outputs": [
				{
					"name": "",
					"type": "uint256"
				}
			],
			"payable": false,
			"stateMutability": "view",
			"type": "function"
		},
		{
			"constant": true,
			"inputs": [
				{
					"name": "",
					"type": "address"
				}
			],
			"name": "receivedToken",
			"outputs": [
				{
					"name": "",
					"type": "bool"
				}
			],
			"payable": false,
			"stateMutability": "view",
			"type": "function"
		},
		{
			"constant": true,
			"inputs": [],
			"name": "symbol",
			"outputs": [
				{
					"name": "",
					"type": "string"
				}
			],
			"payable": false,
			"stateMutability": "view",
			"type": "function"
		},
		{
			"constant": true,
			"inputs": [
				{
					"name": "",
					"type": "address"
				}
			],
			"name": "whitelist",
			"outputs": [
				{
					"name": "",
					"type": "bool"
				}
			],
			"payable": false,
			"stateMutability": "view",
			"type": "function"
		},
		{
			"constant": true,
			"inputs": [],
			"name": "theAO",
			"outputs": [
				{
					"name": "",
					"type": "address"
				}
			],
			"payable": false,
			"stateMutability": "view",
			"type": "function"
		},
		{
			"inputs": [
				{
					"name": "initialSupply",
					"type": "uint256"
				},
				{
					"name": "tokenName",
					"type": "string"
				},
				{
					"name": "tokenSymbol",
					"type": "string"
				}
			],
			"payable": false,
			"stateMutability": "nonpayable",
			"type": "constructor"
		},
		{
			"anonymous": false,
			"inputs": [
				{
					"indexed": true,
					"name": "nameId",
					"type": "address"
				},
				{
					"indexed": false,
					"name": "value",
					"type": "uint256"
				}
			],
			"name": "Mint",
			"type": "event"
		},
		{
			"anonymous": false,
			"inputs": [
				{
					"indexed": true,
					"name": "nameId",
					"type": "address"
				},
				{
					"indexed": true,
					"name": "taoId",
					"type": "address"
				},
				{
					"indexed": false,
					"name": "value",
					"type": "uint256"
				}
			],
			"name": "Stake",
			"type": "event"
		},
		{
			"anonymous": false,
			"inputs": [
				{
					"indexed": true,
					"name": "nameId",
					"type": "address"
				},
				{
					"indexed": true,
					"name": "taoId",
					"type": "address"
				},
				{
					"indexed": false,
					"name": "value",
					"type": "uint256"
				}
			],
			"name": "Unstake",
			"type": "event"
		},
		{
			"constant": false,
			"inputs": [
				{
					"name": "_nameTAOPositionAddress",
					"type": "address"
				}
			],
			"name": "setNameTAOPositionAddress",
			"outputs": [],
			"payable": false,
			"stateMutability": "nonpayable",
			"type": "function"
		},
		{
			"constant": false,
			"inputs": [
				{
					"name": "_theAO",
					"type": "address"
				}
			],
			"name": "transferOwnership",
			"outputs": [],
			"payable": false,
			"stateMutability": "nonpayable",
			"type": "function"
		},
		{
			"constant": false,
			"inputs": [
				{
					"name": "_account",
					"type": "address"
				},
				{
					"name": "_whitelist",
					"type": "bool"
				}
			],
			"name": "setWhitelist",
			"outputs": [],
			"payable": false,
			"stateMutability": "nonpayable",
			"type": "function"
		},
		{
			"constant": false,
			"inputs": [
				{
					"name": "_nameId",
					"type": "address"
				}
			],
			"name": "mintToken",
			"outputs": [
				{
					"name": "",
					"type": "bool"
				}
			],
			"payable": false,
			"stateMutability": "nonpayable",
			"type": "function"
		},
		{
			"constant": true,
			"inputs": [
				{
					"name": "_nameId",
					"type": "address"
				}
			],
			"name": "stakedBalance",
			"outputs": [
				{
					"name": "",
					"type": "uint256"
				}
			],
			"payable": false,
			"stateMutability": "view",
			"type": "function"
		},
		{
			"constant": false,
			"inputs": [
				{
					"name": "_nameId",
					"type": "address"
				},
				{
					"name": "_taoId",
					"type": "address"
				},
				{
					"name": "_value",
					"type": "uint256"
				}
			],
			"name": "stake",
			"outputs": [
				{
					"name": "",
					"type": "bool"
				}
			],
			"payable": false,
			"stateMutability": "nonpayable",
			"type": "function"
		},
		{
			"constant": false,
			"inputs": [
				{
					"name": "_nameId",
					"type": "address"
				},
				{
					"name": "_taoId",
					"type": "address"
				},
				{
					"name": "_value",
					"type": "uint256"
				}
			],
			"name": "unstake",
			"outputs": [
				{
					"name": "",
					"type": "bool"
				}
			],
			"payable": false,
			"stateMutability": "nonpayable",
			"type": "function"
		}
	],
	"bytecode": "0x60806040526005805460ff1916600417905534801561001d57600080fd5b50604051610e8c380380610e8c83398101604090815281516020808401518385015160008054600160a060020a0319163390811782556006869055815260088452949094208390558401805192949093019161007f916003919085019061009c565b50805161009390600490602084019061009c565b50505050610137565b828054600181600116156101000203166002900490600052602060002090601f016020900481019282601f106100dd57805160ff191683800117855561010a565b8280016001018555821561010a579182015b8281111561010a5782518255916020019190600101906100ef565b5061011692915061011a565b5090565b61013491905b808211156101165760008155600101610120565b90565b610d46806101466000396000f3006080604052600436106101065763ffffffff7c010000000000000000000000000000000000000000000000000000000060003504166301173a74811461010b57806306fdde031461014057806318160ddd146101ca578063313ce567146101f157806331d5e94d1461021c5780634ef033f0146102435780634fd131131461027457806353d6fd59146102955780635cfaf2ef146102bd57806360217267146102de57806360829f8a146102ff57806370a08231146103295780637c291a0e1461034a578063938115a91461035f57806395d89b41146103805780639b19251a14610395578063a9b6b38e146103b6578063bf6eac2f146103cb578063f2fde38b146103f5575b600080fd5b34801561011757600080fd5b5061012c600160a060020a0360043516610416565b604080519115158252519081900360200190f35b34801561014c57600080fd5b5061015561051a565b6040805160208082528351818301528351919283929083019185019080838360005b8381101561018f578181015183820152602001610177565b50505050905090810190601f1680156101bc5780820380516001836020036101000a031916815260200191505b509250505060405180910390f35b3480156101d657600080fd5b506101df6105a8565b60408051918252519081900360200190f35b3480156101fd57600080fd5b506102066105ae565b6040805160ff9092168252519081900360200190f35b34801561022857600080fd5b506101df600160a060020a03600435811690602435166105b7565b34801561024f57600080fd5b506102586105d4565b60408051600160a060020a039092168252519081900360200190f35b34801561028057600080fd5b506101df600160a060020a03600435166105e3565b3480156102a157600080fd5b506102bb600160a060020a036004351660243515156105f5565b005b3480156102c957600080fd5b506102bb600160a060020a03600435166106f4565b3480156102ea57600080fd5b506101df600160a060020a03600435166107f7565b34801561030b57600080fd5b5061012c600160a060020a036004358116906024351660443561082a565b34801561033557600080fd5b506101df600160a060020a03600435166109d8565b34801561035657600080fd5b506101df6109ea565b34801561036b57600080fd5b5061012c600160a060020a03600435166109f1565b34801561038c57600080fd5b50610155610a06565b3480156103a157600080fd5b5061012c600160a060020a0360043516610a61565b3480156103c257600080fd5b50610258610a76565b3480156103d757600080fd5b5061012c600160a060020a0360043581169060243516604435610a85565b34801561040157600080fd5b506102bb600160a060020a0360043516610bf8565b3360009081526002602052604081205460ff16151560011461043757600080fd5b600160a060020a03821660009081526007602052604090205460ff161561045d57600080fd5b600160a060020a0382166000908152600760209081526040808320805460ff19166001179055600890915290205461049e90620f424063ffffffff610cfb16565b600160a060020a0383166000908152600860205260409020556006546104cd90620f424063ffffffff610cfb16565b60065560408051620f424081529051600160a060020a038416917f0f6798a560793a54c3bcfe86a93cde1e73087d944c0ea20544137d4121396885919081900360200190a2506001919050565b6003805460408051602060026001851615610100026000190190941693909304601f810184900484028201840190925281815292918301828280156105a05780601f10610575576101008083540402835291602001916105a0565b820191906000526020600020905b81548152906001019060200180831161058357829003601f168201915b505050505081565b60065481565b60055460ff1681565b600960209081526000928352604080842090915290825290205481565b600154600160a060020a031681565b600a6020526000908152604090205481565b600054600154604080517ff66afcac000000000000000000000000000000000000000000000000000000008152336004820152600160a060020a0393841660248201529290911660448301525173__AOLibrary_____________________________9163f66afcac916064808301926020929190829003018186803b15801561067d57600080fd5b505af4158015610691573d6000803e3d6000fd5b505050506040513d60208110156106a757600080fd5b505115156106b457600080fd5b600160a060020a03821615156106c957600080fd5b600160a060020a03919091166000908152600260205260409020805460ff1916911515919091179055565b600054600154604080517ff66afcac000000000000000000000000000000000000000000000000000000008152336004820152600160a060020a0393841660248201529290911660448301525173__AOLibrary_____________________________9163f66afcac916064808301926020929190829003018186803b15801561077c57600080fd5b505af4158015610790573d6000803e3d6000fd5b505050506040513d60208110156107a657600080fd5b505115156107b357600080fd5b600160a060020a03811615156107c857600080fd5b6001805473ffffffffffffffffffffffffffffffffffffffff1916600160a060020a0392909216919091179055565b600160a060020a03811660009081526008602052604081205461082490620f42409063ffffffff610d0816565b92915050565b3360009081526002602052604081205460ff16151560011461084b57600080fd5b60008211801561085e5750620f42408211155b151561086957600080fd5b600160a060020a0380851660009081526009602090815260408083209387168352929052205482111561089b57600080fd5b600160a060020a0383166000908152600a60205260409020548211156108c057600080fd5b600160a060020a038085166000908152600960209081526040808320938716835292905220546108f6908363ffffffff610d0816565b600160a060020a038086166000908152600960209081526040808320938816835292815282822093909355600a909252902054610939908363ffffffff610d0816565b600160a060020a038085166000908152600a6020908152604080832094909455918716815260089091522054610975908363ffffffff610cfb16565b600160a060020a0380861660008181526008602090815260409182902094909455805186815290519287169391927f390b1276974b9463e5d66ab10df69b6f3d7b930eb066a0e66df327edd2cc811c929181900390910190a35060019392505050565b60086020526000908152604090205481565b620f424081565b60076020526000908152604090205460ff1681565b6004805460408051602060026001851615610100026000190190941693909304601f810184900484028201840190925281815292918301828280156105a05780601f10610575576101008083540402835291602001916105a0565b60026020526000908152604090205460ff1681565b600054600160a060020a031681565b3360009081526002602052604081205460ff161515600114610aa657600080fd5b600082118015610ab95750620f42408211155b1515610ac457600080fd5b600160a060020a038416600090815260086020526040902054821115610ae957600080fd5b600160a060020a038416600090815260086020526040902054610b12908363ffffffff610d0816565b600160a060020a03808616600090815260086020908152604080832094909455600981528382209287168252919091522054610b54908363ffffffff610cfb16565b600160a060020a038086166000908152600960209081526040808320938816835292815282822093909355600a909252902054610b97908363ffffffff610cfb16565b600160a060020a038085166000818152600a602090815260409182902094909455805186815290519193928816927f99039fcf0a98f484616c5196ee8b2ecfa971babf0b519848289ea4db381f85f792918290030190a35060019392505050565b600054600154604080517ff66afcac000000000000000000000000000000000000000000000000000000008152336004820152600160a060020a0393841660248201529290911660448301525173__AOLibrary_____________________________9163f66afcac916064808301926020929190829003018186803b158015610c8057600080fd5b505af4158015610c94573d6000803e3d6000fd5b505050506040513d6020811015610caa57600080fd5b50511515610cb757600080fd5b600160a060020a0381161515610ccc57600080fd5b6000805473ffffffffffffffffffffffffffffffffffffffff1916600160a060020a0392909216919091179055565b8181018281101561082457fe5b600082821115610d1457fe5b509003905600a165627a7a723058204a5e6ccdfc715b5dd82069e556675264d14d666e06598ef8bd9eeea9d43a97da0029",
	"source": "pragma solidity ^0.4.24;\n\nimport './SafeMath.sol';\nimport './TheAO.sol';\nimport './AOLibrary.sol';\n\n/**\n * @title Position\n */\ncontract Position is TheAO {\n\tusing SafeMath for uint256;\n\n\t// Public variables of the token\n\tstring public name;\n\tstring public symbol;\n\tuint8 public decimals = 4;\n\n\tuint256 constant public MAX_SUPPLY_PER_NAME = 100 * (10 ** 4);\n\n\tuint256 public totalSupply;\n\n\t// Mapping from Name ID to bool value whether or not it has received Position Token\n\tmapping (address => bool) public receivedToken;\n\n\t// Mapping from Name ID to its total available balance\n\tmapping (address => uint256) public balanceOf;\n\n\t// Mapping from Name's TAO ID to its staked amount\n\tmapping (address => mapping(address => uint256)) public taoStakedBalance;\n\n\t// Mapping from TAO ID to its total staked amount\n\tmapping (address => uint256) public totalTAOStakedBalance;\n\n\t// This generates a public event on the blockchain that will notify clients\n\tevent Mint(address indexed nameId, uint256 value);\n\tevent Stake(address indexed nameId, address indexed taoId, uint256 value);\n\tevent Unstake(address indexed nameId, address indexed taoId, uint256 value);\n\n\t/**\n\t * Constructor function\n\t *\n\t * Initializes contract with initial supply tokens to the creator of the contract\n\t */\n\tconstructor (uint256 initialSupply, string tokenName, string tokenSymbol) public {\n\t\ttotalSupply = initialSupply;\t\t\t// Update total supply\n\t\tbalanceOf[msg.sender] = totalSupply;\t// Give the creator all initial tokens\n\t\tname = tokenName;\t\t\t\t\t\t// Set the name for display purposes\n\t\tsymbol = tokenSymbol;\t\t\t\t\t// Set the symbol for display purposes\n\t}\n\n\t/**\n\t * @dev Checks if the calling contract address is The AO\n\t *\t\tOR\n\t *\t\tIf The AO is set to a Name/TAO, then check if calling address is the Advocate\n\t */\n\tmodifier onlyTheAO {\n\t\trequire (AOLibrary.isTheAO(msg.sender, theAO, nameTAOPositionAddress));\n\t\t_;\n\t}\n\n\t/***** The AO ONLY METHODS *****/\n\t/**\n\t * @dev The AO set the NameTAOPosition Address\n\t * @param _nameTAOPositionAddress The address of NameTAOPosition\n\t */\n\tfunction setNameTAOPositionAddress(address _nameTAOPositionAddress) public onlyTheAO {\n\t\trequire (_nameTAOPositionAddress != address(0));\n\t\tnameTAOPositionAddress = _nameTAOPositionAddress;\n\t}\n\n\t/**\n\t * @dev Transfer ownership of The AO to new address\n\t * @param _theAO The new address to be transferred\n\t */\n\tfunction transferOwnership(address _theAO) public onlyTheAO {\n\t\trequire (_theAO != address(0));\n\t\ttheAO = _theAO;\n\t}\n\n\t/**\n\t * @dev Whitelist `_account` address to transact on behalf of others\n\t * @param _account The address to whitelist\n\t * @param _whitelist Either to whitelist or not\n\t */\n\tfunction setWhitelist(address _account, bool _whitelist) public onlyTheAO {\n\t\trequire (_account != address(0));\n\t\twhitelist[_account] = _whitelist;\n\t}\n\n\t/***** PUBLIC METHODS *****/\n\t/**\n\t * @dev Create `MAX_SUPPLY_PER_NAME` tokens and send it to `_nameId`\n\t * @param _nameId Address to receive the tokens\n\t * @return true on success\n\t */\n\tfunction mintToken(address _nameId) public inWhitelist returns (bool) {\n\t\t// Make sure _nameId has not received Position Token\n\t\trequire (receivedToken[_nameId] == false);\n\n\t\treceivedToken[_nameId] = true;\n\t\tbalanceOf[_nameId] = balanceOf[_nameId].add(MAX_SUPPLY_PER_NAME);\n\t\ttotalSupply = totalSupply.add(MAX_SUPPLY_PER_NAME);\n\t\temit Mint(_nameId, MAX_SUPPLY_PER_NAME);\n\t\treturn true;\n\t}\n\n\t/**\n\t * @dev Get staked balance of `_nameId`\n\t * @param _nameId The Name ID to be queried\n\t * @return total staked balance\n\t */\n\tfunction stakedBalance(address _nameId) public view returns (uint256) {\n\t\treturn MAX_SUPPLY_PER_NAME.sub(balanceOf[_nameId]);\n\t}\n\n\t/**\n\t * @dev Stake `_value` tokens on `_taoId` from `_nameId`\n\t * @param _nameId The Name ID that wants to stake\n\t * @param _taoId The TAO ID to stake\n\t * @param _value The amount to stake\n\t * @return true on success\n\t */\n\tfunction stake(address _nameId, address _taoId, uint256 _value) public inWhitelist returns (bool) {\n\t\trequire (_value > 0 && _value <= MAX_SUPPLY_PER_NAME);\n\t\trequire (balanceOf[_nameId] >= _value);\t\t\t\t\t\t\t// Check if the targeted balance is enough\n\t\tbalanceOf[_nameId] = balanceOf[_nameId].sub(_value);\t\t\t// Subtract from the targeted balance\n\t\ttaoStakedBalance[_nameId][_taoId] = taoStakedBalance[_nameId][_taoId].add(_value);\t// Add to the targeted staked balance\n\t\ttotalTAOStakedBalance[_taoId] = totalTAOStakedBalance[_taoId].add(_value);\n\t\temit Stake(_nameId, _taoId, _value);\n\t\treturn true;\n\t}\n\n\t/**\n\t * @dev Unstake `_value` tokens from `_nameId`'s `_taoId`\n\t * @param _nameId The Name ID that wants to unstake\n\t * @param _taoId The TAO ID to unstake\n\t * @param _value The amount to unstake\n\t * @return true on success\n\t */\n\tfunction unstake(address _nameId, address _taoId, uint256 _value) public inWhitelist returns (bool) {\n\t\trequire (_value > 0 && _value <= MAX_SUPPLY_PER_NAME);\n\t\trequire (taoStakedBalance[_nameId][_taoId] >= _value);\t// Check if the targeted staked balance is enough\n\t\trequire (totalTAOStakedBalance[_taoId] >= _value);\t// Check if the total targeted staked balance is enough\n\t\ttaoStakedBalance[_nameId][_taoId] = taoStakedBalance[_nameId][_taoId].sub(_value);\t// Subtract from the targeted staked balance\n\t\ttotalTAOStakedBalance[_taoId] = totalTAOStakedBalance[_taoId].sub(_value);\n\t\tbalanceOf[_nameId] = balanceOf[_nameId].add(_value);\t\t\t// Add to the targeted balance\n\t\temit Unstake(_nameId, _taoId, _value);\n\t\treturn true;\n\t}\n}\n",
	"sourcePath": "/Users/johanmulyono/Work/AO/ao-contracts/contracts/Position.sol",
	"compiler": {
		"name": "solc",
		"version": "0.4.24+commit.e67f0147.Emscripten.clang"
	},
	"schemaVersion": "2.0.1",
	"updatedAt": "2019-01-07T03:04:13.065Z"
}