{
	"contractName": "TAO",
	"abi": [
		{
			"constant": true,
			"inputs": [],
			"name": "datHash",
			"outputs": [
				{
					"name": "",
					"type": "string"
				}
			],
			"payable": false,
			"stateMutability": "view",
			"type": "function"
		},
		{
			"constant": true,
			"inputs": [],
			"name": "name",
			"outputs": [
				{
					"name": "",
					"type": "string"
				}
			],
			"payable": false,
			"stateMutability": "view",
			"type": "function"
		},
		{
			"constant": true,
			"inputs": [],
			"name": "originId",
			"outputs": [
				{
					"name": "",
					"type": "address"
				}
			],
			"payable": false,
			"stateMutability": "view",
			"type": "function"
		},
		{
			"constant": true,
			"inputs": [],
			"name": "vaultAddress",
			"outputs": [
				{
					"name": "",
					"type": "address"
				}
			],
			"payable": false,
			"stateMutability": "view",
			"type": "function"
		},
		{
			"constant": true,
			"inputs": [],
			"name": "database",
			"outputs": [
				{
					"name": "",
					"type": "string"
				}
			],
			"payable": false,
			"stateMutability": "view",
			"type": "function"
		},
		{
			"constant": true,
			"inputs": [],
			"name": "typeId",
			"outputs": [
				{
					"name": "",
					"type": "uint8"
				}
			],
			"payable": false,
			"stateMutability": "view",
			"type": "function"
		},
		{
			"constant": true,
			"inputs": [],
			"name": "keyValue",
			"outputs": [
				{
					"name": "",
					"type": "string"
				}
			],
			"payable": false,
			"stateMutability": "view",
			"type": "function"
		},
		{
			"constant": true,
			"inputs": [],
			"name": "contentId",
			"outputs": [
				{
					"name": "",
					"type": "bytes32"
				}
			],
			"payable": false,
			"stateMutability": "view",
			"type": "function"
		},
		{
			"inputs": [
				{
					"name": "_name",
					"type": "string"
				},
				{
					"name": "_originId",
					"type": "address"
				},
				{
					"name": "_datHash",
					"type": "string"
				},
				{
					"name": "_database",
					"type": "string"
				},
				{
					"name": "_keyValue",
					"type": "string"
				},
				{
					"name": "_contentId",
					"type": "bytes32"
				},
				{
					"name": "_vaultAddress",
					"type": "address"
				}
			],
			"payable": false,
			"stateMutability": "nonpayable",
			"type": "constructor"
		},
		{
			"payable": true,
			"stateMutability": "payable",
			"type": "fallback"
		},
		{
			"constant": false,
			"inputs": [
				{
					"name": "_recipient",
					"type": "address"
				},
				{
					"name": "_amount",
					"type": "uint256"
				}
			],
			"name": "transferEth",
			"outputs": [
				{
					"name": "",
					"type": "bool"
				}
			],
			"payable": false,
			"stateMutability": "nonpayable",
			"type": "function"
		},
		{
			"constant": false,
			"inputs": [
				{
					"name": "_erc20TokenAddress",
					"type": "address"
				},
				{
					"name": "_recipient",
					"type": "address"
				},
				{
					"name": "_amount",
					"type": "uint256"
				}
			],
			"name": "transferERC20",
			"outputs": [
				{
					"name": "",
					"type": "bool"
				}
			],
			"payable": false,
			"stateMutability": "nonpayable",
			"type": "function"
		}
	],
	"bytecode": "0x608060405234801561001057600080fd5b50604051610868380380610868833981018060405260e081101561003357600080fd5b81019080805164010000000081111561004b57600080fd5b8201602081018481111561005e57600080fd5b815164010000000081118282018710171561007857600080fd5b5050602082015160409092018051919492939164010000000081111561009d57600080fd5b820160208101848111156100b057600080fd5b81516401000000008111828201871017156100ca57600080fd5b505092919060200180516401000000008111156100e657600080fd5b820160208101848111156100f957600080fd5b815164010000000081118282018710171561011357600080fd5b5050929190602001805164010000000081111561012f57600080fd5b8201602081018481111561014257600080fd5b815164010000000081118282018710171561015c57600080fd5b50506020808301516040909301518951929550929350610181916001918a0190610213565b5060028054600160a060020a031916600160a060020a03881617905584516101b0906003906020880190610213565b5083516101c4906004906020870190610213565b5082516101d8906005906020860190610213565b506006919091556007805460ff1916905560008054600160a060020a031916600160a060020a03909216919091179055506102ae9350505050565b828054600181600116156101000203166002900490600052602060002090601f016020900481019282601f1061025457805160ff1916838001178555610281565b82800160010185558215610281579182015b82811115610281578251825591602001919060010190610266565b5061028d929150610291565b5090565b6102ab91905b8082111561028d5760008155600101610297565b90565b6105ab806102bd6000396000f3fe6080604052600436106100ae576000357c0100000000000000000000000000000000000000000000000000000000900480638f940f63116100765780638f940f63146101aa5780639db5dbe4146101d5578063a727be571461022c578063d97aa97714610241578063e9bb84c214610268576100ae565b806305684790146100b057806306fdde031461013a57806313866efa1461014f578063430bf08a14610180578063713b563f14610195575b005b3480156100bc57600080fd5b506100c56102a1565b6040805160208082528351818301528351919283929083019185019080838360005b838110156100ff5781810151838201526020016100e7565b50505050905090810190601f16801561012c5780820380516001836020036101000a031916815260200191505b509250505060405180910390f35b34801561014657600080fd5b506100c561032f565b34801561015b57600080fd5b50610164610389565b60408051600160a060020a039092168252519081900360200190f35b34801561018c57600080fd5b50610164610398565b3480156101a157600080fd5b506100c56103a7565b3480156101b657600080fd5b506101bf610402565b6040805160ff9092168252519081900360200190f35b3480156101e157600080fd5b50610218600480360360608110156101f857600080fd5b50600160a060020a0381358116916020810135909116906040013561040b565b604080519115158252519081900360200190f35b34801561023857600080fd5b506100c56104c6565b34801561024d57600080fd5b50610256610521565b60408051918252519081900360200190f35b34801561027457600080fd5b506102186004803603604081101561028b57600080fd5b50600160a060020a038135169060200135610527565b6003805460408051602060026001851615610100026000190190941693909304601f810184900484028201840190925281815292918301828280156103275780601f106102fc57610100808354040283529160200191610327565b820191906000526020600020905b81548152906001019060200180831161030a57829003601f168201915b505050505081565b60018054604080516020600284861615610100026000190190941693909304601f810184900484028201840190925281815292918301828280156103275780601f106102fc57610100808354040283529160200191610327565b600254600160a060020a031681565b600054600160a060020a031681565b6004805460408051602060026001851615610100026000190190941693909304601f810184900484028201840190925281815292918301828280156103275780601f106102fc57610100808354040283529160200191610327565b60075460ff1681565b60008054600160a060020a0316331461042357600080fd5b604080517fa9059cbb000000000000000000000000000000000000000000000000000000008152600160a060020a038581166004830152602482018590529151869283169163a9059cbb9160448083019260209291908290030181600087803b15801561048f57600080fd5b505af11580156104a3573d6000803e3d6000fd5b505050506040513d60208110156104b957600080fd5b5060019695505050505050565b6005805460408051602060026001851615610100026000190190941693909304601f810184900484028201840190925281815292918301828280156103275780601f106102fc57610100808354040283529160200191610327565b60065481565b60008054600160a060020a0316331461053f57600080fd5b604051600160a060020a0384169083156108fc029084906000818181858888f19350505050158015610575573d6000803e3d6000fd5b506001939250505056fea165627a7a72305820cca5641373fee80c1dea97694dbc889b1bf27e854cbf8eb8df6fc429c3929bb40029",
	"source": "pragma solidity >=0.5.4 <0.6.0;\n\nimport './SafeMath.sol';\nimport './TokenERC20.sol';\n\n/**\n * @title TAO\n */\ncontract TAO {\n\tusing SafeMath for uint256;\n\n\taddress public vaultAddress;\n\tstring public name;\t\t\t\t// the name for this TAO\n\taddress public originId;\t\t// the ID of the Name that created this TAO. If Name, it's the eth address\n\n\t// TAO's data\n\tstring public datHash;\n\tstring public database;\n\tstring public keyValue;\n\tbytes32 public contentId;\n\n\t/**\n\t * 0 = TAO\n\t * 1 = Name\n\t */\n\tuint8 public typeId;\n\n\t/**\n\t * @dev Constructor function\n\t */\n\tconstructor (string memory _name,\n\t\taddress _originId,\n\t\tstring memory _datHash,\n\t\tstring memory _database,\n\t\tstring memory _keyValue,\n\t\tbytes32 _contentId,\n\t\taddress _vaultAddress\n\t) public {\n\t\tname = _name;\n\t\toriginId = _originId;\n\t\tdatHash = _datHash;\n\t\tdatabase = _database;\n\t\tkeyValue = _keyValue;\n\t\tcontentId = _contentId;\n\n\t\t// Creating TAO\n\t\ttypeId = 0;\n\n\t\tvaultAddress = _vaultAddress;\n\t}\n\n\t/**\n\t * @dev Checks if calling address is Vault contract\n\t */\n\tmodifier onlyVault {\n\t\trequire (msg.sender == vaultAddress);\n\t\t_;\n\t}\n\n\t/**\n\t * Will receive any ETH sent\n\t */\n\tfunction () external payable {\n\t}\n\n\t/**\n\t * @dev Allows Vault to transfer `_amount` of ETH from this TAO to `_recipient`\n\t * @param _recipient The recipient address\n\t * @param _amount The amount to transfer\n\t * @return true on success\n\t */\n\tfunction transferEth(address payable _recipient, uint256 _amount) public onlyVault returns (bool) {\n\t\t_recipient.transfer(_amount);\n\t\treturn true;\n\t}\n\n\t/**\n\t * @dev Allows Vault to transfer `_amount` of ERC20 Token from this TAO to `_recipient`\n\t * @param _erc20TokenAddress The address of ERC20 Token\n\t * @param _recipient The recipient address\n\t * @param _amount The amount to transfer\n\t * @return true on success\n\t */\n\tfunction transferERC20(address _erc20TokenAddress, address _recipient, uint256 _amount) public onlyVault returns (bool) {\n\t\tTokenERC20 _erc20 = TokenERC20(_erc20TokenAddress);\n\t\t_erc20.transfer(_recipient, _amount);\n\t\treturn true;\n\t}\n}\n",
	"sourcePath": "/Users/johanmulyono/Work/AO/ao-contracts/contracts/TAO.sol",
	"compiler": {
		"name": "solc",
		"version": "0.5.4+commit.9549d8ff.Emscripten.clang"
	},
	"schemaVersion": "3.0.9",
	"updatedAt": "2019-05-28T07:14:51.389Z",
	"devdoc": {
		"methods": {
			"constructor": {
				"details": "Constructor function"
			},
			"transferERC20(address,address,uint256)": {
				"details": "Allows Vault to transfer `_amount` of ERC20 Token from this TAO to `_recipient`",
				"params": {
					"_amount": "The amount to transfer",
					"_erc20TokenAddress": "The address of ERC20 Token",
					"_recipient": "The recipient address"
				},
				"return": "true on success"
			},
			"transferEth(address,uint256)": {
				"details": "Allows Vault to transfer `_amount` of ETH from this TAO to `_recipient`",
				"params": {
					"_amount": "The amount to transfer",
					"_recipient": "The recipient address"
				},
				"return": "true on success"
			}
		},
		"title": "TAO"
	},
	"userdoc": {
		"methods": {}
	}
}