{
  "contractName": "TAO",
  "abi": [
    {
      "constant": true,
      "inputs": [],
      "name": "datHash",
      "outputs": [
        {
          "name": "",
          "type": "string"
        }
      ],
      "payable": false,
      "stateMutability": "view",
      "type": "function"
    },
    {
      "constant": true,
      "inputs": [],
      "name": "name",
      "outputs": [
        {
          "name": "",
          "type": "string"
        }
      ],
      "payable": false,
      "stateMutability": "view",
      "type": "function"
    },
    {
      "constant": true,
      "inputs": [],
      "name": "originId",
      "outputs": [
        {
          "name": "",
          "type": "address"
        }
      ],
      "payable": false,
      "stateMutability": "view",
      "type": "function"
    },
    {
      "constant": true,
      "inputs": [],
      "name": "vaultAddress",
      "outputs": [
        {
          "name": "",
          "type": "address"
        }
      ],
      "payable": false,
      "stateMutability": "view",
      "type": "function"
    },
    {
      "constant": true,
      "inputs": [],
      "name": "database",
      "outputs": [
        {
          "name": "",
          "type": "string"
        }
      ],
      "payable": false,
      "stateMutability": "view",
      "type": "function"
    },
    {
      "constant": true,
      "inputs": [],
      "name": "typeId",
      "outputs": [
        {
          "name": "",
          "type": "uint8"
        }
      ],
      "payable": false,
      "stateMutability": "view",
      "type": "function"
    },
    {
      "constant": true,
      "inputs": [],
      "name": "keyValue",
      "outputs": [
        {
          "name": "",
          "type": "string"
        }
      ],
      "payable": false,
      "stateMutability": "view",
      "type": "function"
    },
    {
      "constant": true,
      "inputs": [],
      "name": "contentId",
      "outputs": [
        {
          "name": "",
          "type": "bytes32"
        }
      ],
      "payable": false,
      "stateMutability": "view",
      "type": "function"
    },
    {
      "inputs": [
        {
          "name": "_name",
          "type": "string"
        },
        {
          "name": "_originId",
          "type": "address"
        },
        {
          "name": "_datHash",
          "type": "string"
        },
        {
          "name": "_database",
          "type": "string"
        },
        {
          "name": "_keyValue",
          "type": "string"
        },
        {
          "name": "_contentId",
          "type": "bytes32"
        },
        {
          "name": "_vaultAddress",
          "type": "address"
        }
      ],
      "payable": false,
      "stateMutability": "nonpayable",
      "type": "constructor"
    },
    {
      "payable": true,
      "stateMutability": "payable",
      "type": "fallback"
    },
    {
      "constant": false,
      "inputs": [
        {
          "name": "_recipient",
          "type": "address"
        },
        {
          "name": "_amount",
          "type": "uint256"
        }
      ],
      "name": "transferEth",
      "outputs": [
        {
          "name": "",
          "type": "bool"
        }
      ],
      "payable": false,
      "stateMutability": "nonpayable",
      "type": "function"
    },
    {
      "constant": false,
      "inputs": [
        {
          "name": "_erc20TokenAddress",
          "type": "address"
        },
        {
          "name": "_recipient",
          "type": "address"
        },
        {
          "name": "_amount",
          "type": "uint256"
        }
      ],
      "name": "transferERC20",
      "outputs": [
        {
          "name": "",
          "type": "bool"
        }
      ],
      "payable": false,
      "stateMutability": "nonpayable",
      "type": "function"
    }
  ],
  "bytecode": "0x608060405234801561001057600080fd5b50604051610835380380610835833981018060405260e081101561003357600080fd5b81019080805164010000000081111561004b57600080fd5b8201602081018481111561005e57600080fd5b815164010000000081118282018710171561007857600080fd5b5050602082015160409092018051919492939164010000000081111561009d57600080fd5b820160208101848111156100b057600080fd5b81516401000000008111828201871017156100ca57600080fd5b505092919060200180516401000000008111156100e657600080fd5b820160208101848111156100f957600080fd5b815164010000000081118282018710171561011357600080fd5b5050929190602001805164010000000081111561012f57600080fd5b8201602081018481111561014257600080fd5b815164010000000081118282018710171561015c57600080fd5b50506020808301516040909301518951929550929350610181916001918a0190610213565b50600280546001600160a01b0319166001600160a01b03881617905584516101b0906003906020880190610213565b5083516101c4906004906020870190610213565b5082516101d8906005906020860190610213565b506006919091556007805460ff19169055600080546001600160a01b0319166001600160a01b03909216919091179055506102ae9350505050565b828054600181600116156101000203166002900490600052602060002090601f016020900481019282601f1061025457805160ff1916838001178555610281565b82800160010185558215610281579182015b82811115610281578251825591602001919060010190610266565b5061028d929150610291565b5090565b6102ab91905b8082111561028d5760008155600101610297565b90565b610578806102bd6000396000f3fe6080604052600436106100915760003560e01c80638f940f63116100595780638f940f631461018d5780639db5dbe4146101b8578063a727be571461020f578063d97aa97714610224578063e9bb84c21461024b57610091565b8063056847901461009357806306fdde031461011d57806313866efa14610132578063430bf08a14610163578063713b563f14610178575b005b34801561009f57600080fd5b506100a8610284565b6040805160208082528351818301528351919283929083019185019080838360005b838110156100e25781810151838201526020016100ca565b50505050905090810190601f16801561010f5780820380516001836020036101000a031916815260200191505b509250505060405180910390f35b34801561012957600080fd5b506100a8610312565b34801561013e57600080fd5b5061014761036c565b604080516001600160a01b039092168252519081900360200190f35b34801561016f57600080fd5b5061014761037b565b34801561018457600080fd5b506100a861038a565b34801561019957600080fd5b506101a26103e5565b6040805160ff9092168252519081900360200190f35b3480156101c457600080fd5b506101fb600480360360608110156101db57600080fd5b506001600160a01b038135811691602081013590911690604001356103ee565b604080519115158252519081900360200190f35b34801561021b57600080fd5b506100a8610493565b34801561023057600080fd5b506102396104ee565b60408051918252519081900360200190f35b34801561025757600080fd5b506101fb6004803603604081101561026e57600080fd5b506001600160a01b0381351690602001356104f4565b6003805460408051602060026001851615610100026000190190941693909304601f8101849004840282018401909252818152929183018282801561030a5780601f106102df5761010080835404028352916020019161030a565b820191906000526020600020905b8154815290600101906020018083116102ed57829003601f168201915b505050505081565b60018054604080516020600284861615610100026000190190941693909304601f8101849004840282018401909252818152929183018282801561030a5780601f106102df5761010080835404028352916020019161030a565b6002546001600160a01b031681565b6000546001600160a01b031681565b6004805460408051602060026001851615610100026000190190941693909304601f8101849004840282018401909252818152929183018282801561030a5780601f106102df5761010080835404028352916020019161030a565b60075460ff1681565b600080546001600160a01b0316331461040657600080fd5b60408051600160e01b63a9059cbb0281526001600160a01b038581166004830152602482018590529151869283169163a9059cbb9160448083019260209291908290030181600087803b15801561045c57600080fd5b505af1158015610470573d6000803e3d6000fd5b505050506040513d602081101561048657600080fd5b5060019695505050505050565b6005805460408051602060026001851615610100026000190190941693909304601f8101849004840282018401909252818152929183018282801561030a5780601f106102df5761010080835404028352916020019161030a565b60065481565b600080546001600160a01b0316331461050c57600080fd5b6040516001600160a01b0384169083156108fc029084906000818181858888f19350505050158015610542573d6000803e3d6000fd5b506001939250505056fea165627a7a72305820af2e65a0cd79f3c31bf41c0feada9a5d82594191489fd32218d55072bb51c7710029",
  "source": "pragma solidity >=0.5.4 <0.6.0;\n\nimport './SafeMath.sol';\nimport './TokenERC20.sol';\n\n/**\n * @title TAO\n */\ncontract TAO {\n\tusing SafeMath for uint256;\n\n\taddress public vaultAddress;\n\tstring public name;\t\t\t\t// the name for this TAO\n\taddress public originId;\t\t// the ID of the Name that created this TAO. If Name, it's the eth address\n\n\t// TAO's data\n\tstring public datHash;\n\tstring public database;\n\tstring public keyValue;\n\tbytes32 public contentId;\n\n\t/**\n\t * 0 = TAO\n\t * 1 = Name\n\t */\n\tuint8 public typeId;\n\n\t/**\n\t * @dev Constructor function\n\t */\n\tconstructor (string memory _name,\n\t\taddress _originId,\n\t\tstring memory _datHash,\n\t\tstring memory _database,\n\t\tstring memory _keyValue,\n\t\tbytes32 _contentId,\n\t\taddress _vaultAddress\n\t) public {\n\t\tname = _name;\n\t\toriginId = _originId;\n\t\tdatHash = _datHash;\n\t\tdatabase = _database;\n\t\tkeyValue = _keyValue;\n\t\tcontentId = _contentId;\n\n\t\t// Creating TAO\n\t\ttypeId = 0;\n\n\t\tvaultAddress = _vaultAddress;\n\t}\n\n\t/**\n\t * @dev Checks if calling address is Vault contract\n\t */\n\tmodifier onlyVault {\n\t\trequire (msg.sender == vaultAddress);\n\t\t_;\n\t}\n\n\t/**\n\t * Will receive any ETH sent\n\t */\n\tfunction () external payable {\n\t}\n\n\t/**\n\t * @dev Allows Vault to transfer `_amount` of ETH from this TAO to `_recipient`\n\t * @param _recipient The recipient address\n\t * @param _amount The amount to transfer\n\t * @return true on success\n\t */\n\tfunction transferEth(address payable _recipient, uint256 _amount) public onlyVault returns (bool) {\n\t\t_recipient.transfer(_amount);\n\t\treturn true;\n\t}\n\n\t/**\n\t * @dev Allows Vault to transfer `_amount` of ERC20 Token from this TAO to `_recipient`\n\t * @param _erc20TokenAddress The address of ERC20 Token\n\t * @param _recipient The recipient address\n\t * @param _amount The amount to transfer\n\t * @return true on success\n\t */\n\tfunction transferERC20(address _erc20TokenAddress, address _recipient, uint256 _amount) public onlyVault returns (bool) {\n\t\tTokenERC20 _erc20 = TokenERC20(_erc20TokenAddress);\n\t\t_erc20.transfer(_recipient, _amount);\n\t\treturn true;\n\t}\n}\n",
  "sourcePath": "/usr/local/ao-contracts/contracts/TAO.sol",
  "compiler": {
    "name": "solc",
    "version": "0.5.6+commit.b259423e.Emscripten.clang"
  },
  "schemaVersion": "3.0.2",
  "updatedAt": "2019-04-12T01:19:51.595Z",
  "devdoc": {
    "methods": {
      "constructor": {
        "details": "Constructor function"
      },
      "transferERC20(address,address,uint256)": {
        "details": "Allows Vault to transfer `_amount` of ERC20 Token from this TAO to `_recipient`",
        "params": {
          "_amount": "The amount to transfer",
          "_erc20TokenAddress": "The address of ERC20 Token",
          "_recipient": "The recipient address"
        },
        "return": "true on success"
      },
      "transferEth(address,uint256)": {
        "details": "Allows Vault to transfer `_amount` of ETH from this TAO to `_recipient`",
        "params": {
          "_amount": "The amount to transfer",
          "_recipient": "The recipient address"
        },
        "return": "true on success"
      }
    },
    "title": "TAO"
  },
  "userdoc": {
    "methods": {}
  }
}