{
	"contractName": "TAO",
	"abi": [
		{
			"constant": true,
			"inputs": [],
			"name": "datHash",
			"outputs": [
				{
					"name": "",
					"type": "string"
				}
			],
			"payable": false,
			"stateMutability": "view",
			"type": "function"
		},
		{
			"constant": true,
			"inputs": [],
			"name": "originId",
			"outputs": [
				{
					"name": "",
					"type": "address"
				}
			],
			"payable": false,
			"stateMutability": "view",
			"type": "function"
		},
		{
			"constant": true,
			"inputs": [],
			"name": "fromId",
			"outputs": [
				{
					"name": "",
					"type": "address"
				}
			],
			"payable": false,
			"stateMutability": "view",
			"type": "function"
		},
		{
			"constant": true,
			"inputs": [],
			"name": "taoTypeId",
			"outputs": [
				{
					"name": "",
					"type": "uint8"
				}
			],
			"payable": false,
			"stateMutability": "view",
			"type": "function"
		},
		{
			"constant": true,
			"inputs": [],
			"name": "advocateId",
			"outputs": [
				{
					"name": "",
					"type": "address"
				}
			],
			"payable": false,
			"stateMutability": "view",
			"type": "function"
		},
		{
			"constant": true,
			"inputs": [
				{
					"name": "",
					"type": "uint256"
				}
			],
			"name": "subTAOs",
			"outputs": [
				{
					"name": "taoId",
					"type": "address"
				},
				{
					"name": "child",
					"type": "bool"
				},
				{
					"name": "connected",
					"type": "bool"
				}
			],
			"payable": false,
			"stateMutability": "view",
			"type": "function"
		},
		{
			"constant": true,
			"inputs": [],
			"name": "totalChildTAOs",
			"outputs": [
				{
					"name": "",
					"type": "uint256"
				}
			],
			"payable": false,
			"stateMutability": "view",
			"type": "function"
		},
		{
			"constant": true,
			"inputs": [],
			"name": "taoName",
			"outputs": [
				{
					"name": "",
					"type": "string"
				}
			],
			"payable": false,
			"stateMutability": "view",
			"type": "function"
		},
		{
			"constant": true,
			"inputs": [],
			"name": "closed",
			"outputs": [
				{
					"name": "",
					"type": "bool"
				}
			],
			"payable": false,
			"stateMutability": "view",
			"type": "function"
		},
		{
			"constant": true,
			"inputs": [],
			"name": "totalOrphanTAOs",
			"outputs": [
				{
					"name": "",
					"type": "uint256"
				}
			],
			"payable": false,
			"stateMutability": "view",
			"type": "function"
		},
		{
			"constant": true,
			"inputs": [],
			"name": "username",
			"outputs": [
				{
					"name": "",
					"type": "string"
				}
			],
			"payable": false,
			"stateMutability": "view",
			"type": "function"
		},
		{
			"constant": true,
			"inputs": [],
			"name": "throughId",
			"outputs": [
				{
					"name": "",
					"type": "address"
				}
			],
			"payable": false,
			"stateMutability": "view",
			"type": "function"
		},
		{
			"constant": true,
			"inputs": [],
			"name": "listenerId",
			"outputs": [
				{
					"name": "",
					"type": "address"
				}
			],
			"payable": false,
			"stateMutability": "view",
			"type": "function"
		},
		{
			"constant": true,
			"inputs": [],
			"name": "database",
			"outputs": [
				{
					"name": "",
					"type": "string"
				}
			],
			"payable": false,
			"stateMutability": "view",
			"type": "function"
		},
		{
			"constant": true,
			"inputs": [],
			"name": "factoryAddress",
			"outputs": [
				{
					"name": "",
					"type": "address"
				}
			],
			"payable": false,
			"stateMutability": "view",
			"type": "function"
		},
		{
			"constant": true,
			"inputs": [],
			"name": "keyValue",
			"outputs": [
				{
					"name": "",
					"type": "string"
				}
			],
			"payable": false,
			"stateMutability": "view",
			"type": "function"
		},
		{
			"constant": true,
			"inputs": [],
			"name": "nonce",
			"outputs": [
				{
					"name": "",
					"type": "uint256"
				}
			],
			"payable": false,
			"stateMutability": "view",
			"type": "function"
		},
		{
			"constant": true,
			"inputs": [],
			"name": "toId",
			"outputs": [
				{
					"name": "",
					"type": "address"
				}
			],
			"payable": false,
			"stateMutability": "view",
			"type": "function"
		},
		{
			"constant": true,
			"inputs": [],
			"name": "balance",
			"outputs": [
				{
					"name": "",
					"type": "uint256"
				}
			],
			"payable": false,
			"stateMutability": "view",
			"type": "function"
		},
		{
			"constant": true,
			"inputs": [],
			"name": "speakerId",
			"outputs": [
				{
					"name": "",
					"type": "address"
				}
			],
			"payable": false,
			"stateMutability": "view",
			"type": "function"
		},
		{
			"constant": true,
			"inputs": [],
			"name": "locked",
			"outputs": [
				{
					"name": "",
					"type": "bool"
				}
			],
			"payable": false,
			"stateMutability": "view",
			"type": "function"
		},
		{
			"constant": true,
			"inputs": [],
			"name": "contentId",
			"outputs": [
				{
					"name": "",
					"type": "bytes32"
				}
			],
			"payable": false,
			"stateMutability": "view",
			"type": "function"
		},
		{
			"constant": true,
			"inputs": [
				{
					"name": "",
					"type": "address"
				}
			],
			"name": "subTAOInternalIdLookup",
			"outputs": [
				{
					"name": "",
					"type": "uint256"
				}
			],
			"payable": false,
			"stateMutability": "view",
			"type": "function"
		},
		{
			"constant": true,
			"inputs": [],
			"name": "totalSubTAOs",
			"outputs": [
				{
					"name": "",
					"type": "uint256"
				}
			],
			"payable": false,
			"stateMutability": "view",
			"type": "function"
		},
		{
			"inputs": [
				{
					"name": "_username",
					"type": "string"
				},
				{
					"name": "_taoName",
					"type": "string"
				},
				{
					"name": "_originId",
					"type": "address"
				},
				{
					"name": "_datHash",
					"type": "string"
				},
				{
					"name": "_database",
					"type": "string"
				},
				{
					"name": "_keyValue",
					"type": "string"
				},
				{
					"name": "_contentId",
					"type": "bytes32"
				},
				{
					"name": "_fromId",
					"type": "address"
				},
				{
					"name": "_toId",
					"type": "address"
				}
			],
			"payable": false,
			"stateMutability": "nonpayable",
			"type": "constructor"
		},
		{
			"payable": true,
			"stateMutability": "payable",
			"type": "fallback"
		},
		{
			"constant": false,
			"inputs": [
				{
					"name": "_advocateId",
					"type": "address"
				}
			],
			"name": "setAdvocate",
			"outputs": [
				{
					"name": "",
					"type": "uint256"
				}
			],
			"payable": false,
			"stateMutability": "nonpayable",
			"type": "function"
		},
		{
			"constant": false,
			"inputs": [
				{
					"name": "_listenerId",
					"type": "address"
				}
			],
			"name": "setListener",
			"outputs": [
				{
					"name": "",
					"type": "uint256"
				}
			],
			"payable": false,
			"stateMutability": "nonpayable",
			"type": "function"
		},
		{
			"constant": false,
			"inputs": [
				{
					"name": "_speakerId",
					"type": "address"
				}
			],
			"name": "setSpeaker",
			"outputs": [
				{
					"name": "",
					"type": "uint256"
				}
			],
			"payable": false,
			"stateMutability": "nonpayable",
			"type": "function"
		},
		{
			"constant": false,
			"inputs": [
				{
					"name": "_taoId",
					"type": "address"
				},
				{
					"name": "_child",
					"type": "bool"
				}
			],
			"name": "addSubTAO",
			"outputs": [
				{
					"name": "",
					"type": "uint256"
				}
			],
			"payable": false,
			"stateMutability": "nonpayable",
			"type": "function"
		},
		{
			"constant": true,
			"inputs": [
				{
					"name": "_from",
					"type": "uint256"
				},
				{
					"name": "_to",
					"type": "uint256"
				}
			],
			"name": "getSubTAOIds",
			"outputs": [
				{
					"name": "",
					"type": "address[]"
				}
			],
			"payable": false,
			"stateMutability": "view",
			"type": "function"
		},
		{
			"constant": true,
			"inputs": [
				{
					"name": "_childTAOId",
					"type": "address"
				}
			],
			"name": "isChildTAO",
			"outputs": [
				{
					"name": "",
					"type": "bool"
				}
			],
			"payable": false,
			"stateMutability": "view",
			"type": "function"
		},
		{
			"constant": true,
			"inputs": [
				{
					"name": "_orphanTAOId",
					"type": "address"
				}
			],
			"name": "isOrphanTAO",
			"outputs": [
				{
					"name": "",
					"type": "bool"
				}
			],
			"payable": false,
			"stateMutability": "view",
			"type": "function"
		},
		{
			"constant": false,
			"inputs": [
				{
					"name": "_orphanTAOId",
					"type": "address"
				}
			],
			"name": "approveOrphanTAO",
			"outputs": [
				{
					"name": "",
					"type": "uint256"
				}
			],
			"payable": false,
			"stateMutability": "nonpayable",
			"type": "function"
		},
		{
			"constant": false,
			"inputs": [
				{
					"name": "_locked",
					"type": "bool"
				}
			],
			"name": "setLocked",
			"outputs": [
				{
					"name": "",
					"type": "uint256"
				}
			],
			"payable": false,
			"stateMutability": "nonpayable",
			"type": "function"
		},
		{
			"constant": false,
			"inputs": [],
			"name": "close",
			"outputs": [
				{
					"name": "",
					"type": "uint256"
				}
			],
			"payable": false,
			"stateMutability": "nonpayable",
			"type": "function"
		}
	],
	"bytecode": "0x60806040523480156200001157600080fd5b5060405162001292380380620012928339810160409081528151602080840151928401516060850151608086015160a087015160c088015160e08901516101008a0151600080546201000060b060020a031916336201000002179055978a018051909a998a0199969895870197948701969390930194919390926200009d91600191908c019062000196565b508751620000b39060029060208b019062000196565b5060038054600160a060020a038916600160a060020a031991821681179092556004805490911690911790558551620000f490600790602089019062000196565b5084516200010a90600890602088019062000196565b5083516200012090600990602087019062000196565b50600a92909255600b8054600d8054600160a060020a03958616600160a060020a03199182161790915560045460058054831691871691821790556006805490921617905560ff19929093166101000261010060a860020a03199093169290921716905550506001601255506200023b92505050565b828054600181600116156101000203166002900490600052602060002090601f016020900481019282601f10620001d957805160ff191683800117855562000209565b8280016001018555821562000209579182015b8281111562000209578251825591602001919060010190620001ec565b50620002179291506200021b565b5090565b6200023891905b8082111562000217576000815560010162000222565b90565b611047806200024b6000396000f3006080604052600436106101ab5763ffffffff7c01000000000000000000000000000000000000000000000000000000006000350416630568479081146101e95780630cb8eb3a146102735780630d9c8bca146102a657806313866efa146102c7578063211e28b6146102f85780632a9719a4146103125780632c4dd525146103275780632ef193b014610352578063346b584e1461036757806343d726d6146103a95780634ed5aca1146103be5780635745bb6c146103d3578063597e1fb5146103e85780635db6fd631461041157806361fac54d1461042657806368dcb66b1461043b5780636cf99a8f14610450578063713b563f14610465578063806f8bfc1461047a578063966dae0e1461049b5780639fd0b0e7146104b0578063a727be57146104d6578063ac7a4203146104eb578063adcd905b1461050c578063affed0e01461052d578063b000fba314610542578063b0759d0814610563578063b69ef8a814610578578063c86cc85a1461058d578063c996ad25146105f8578063cf3090121461060d578063d97aa97714610622578063e746dc9f14610637578063f00b1dc014610658575b60005460ff161580156101c65750600054610100900460ff16155b15156101d157600080fd5b6011546101e4903463ffffffff61066d16565b601155005b3480156101f557600080fd5b506101fe610680565b6040805160208082528351818301528351919283929083019185019080838360005b83811015610238578181015183820152602001610220565b50505050905090810190601f1680156102655780820380516001836020036101000a031916815260200191505b509250505060405180910390f35b34801561027f57600080fd5b50610294600160a060020a036004351661070e565b60408051918252519081900360200190f35b3480156102b257600080fd5b50610294600160a060020a03600435166107c0565b3480156102d357600080fd5b506102dc610854565b60408051600160a060020a039092168252519081900360200190f35b34801561030457600080fd5b506102946004351515610863565b34801561031e57600080fd5b506102dc6108b6565b34801561033357600080fd5b5061033c6108ca565b6040805160ff9092168252519081900360200190f35b34801561035e57600080fd5b506102dc6108d3565b34801561037357600080fd5b5061037f6004356108e2565b60408051600160a060020a0390941684529115156020840152151582820152519081900360600190f35b3480156103b557600080fd5b50610294610913565b3480156103ca57600080fd5b50610294610964565b3480156103df57600080fd5b506101fe61096a565b3480156103f457600080fd5b506103fd6109c2565b604080519115158252519081900360200190f35b34801561041d57600080fd5b506102946109d0565b34801561043257600080fd5b506101fe6109d6565b34801561044757600080fd5b506102dc610a30565b34801561045c57600080fd5b506102dc610a3f565b34801561047157600080fd5b506101fe610a4e565b34801561048657600080fd5b506103fd600160a060020a0360043516610aa9565b3480156104a757600080fd5b506102dc610b36565b3480156104bc57600080fd5b50610294600160a060020a03600435166024351515610b4b565b3480156104e257600080fd5b506101fe610c92565b3480156104f757600080fd5b506103fd600160a060020a0360043516610ced565b34801561051857600080fd5b50610294600160a060020a0360043516610d7a565b34801561053957600080fd5b50610294610e0e565b34801561054e57600080fd5b50610294600160a060020a0360043516610e14565b34801561056f57600080fd5b506102dc610eb8565b34801561058457600080fd5b50610294610ec7565b34801561059957600080fd5b506105a8600435602435610ecd565b60408051602080825283518183015283519192839290830191858101910280838360005b838110156105e45781810151838201526020016105cc565b505050509050019250505060405180910390f35b34801561060457600080fd5b506102dc610fd3565b34801561061957600080fd5b506103fd610fe2565b34801561062e57600080fd5b50610294610feb565b34801561064357600080fd5b50610294600160a060020a0360043516610ff1565b34801561066457600080fd5b50610294611003565b8181018281101561067a57fe5b92915050565b6007805460408051602060026001851615610100026000190190941693909304601f810184900484028201840190925281815292918301828280156107065780601f106106db57610100808354040283529160200191610706565b820191906000526020600020905b8154815290600101906020018083116106e957829003601f168201915b505050505081565b60008054819060ff1615801561072c5750600054610100900460ff16155b151561073757600080fd5b600054620100009004600160a060020a0316331461075457600080fd5b5050600160a060020a0316600090815260146020908152604080832054835260139091529020805474ff0000000000000000000000000000000000000000191660a060020a179055600e80546001908101909155600f8054600019019055601280549091019081905590565b6000805460ff161580156107dc5750600054610100900460ff16155b15156107e757600080fd5b600054620100009004600160a060020a0316331461080457600080fd5b600160a060020a038216151561081957600080fd5b5060068054600160a060020a03831673ffffffffffffffffffffffffffffffffffffffff199091161790556012805460010190819055919050565b600354600160a060020a031681565b60008054620100009004600160a060020a0316331461088157600080fd5b600054610100900460ff161561089657600080fd5b506000805460ff1916911515919091179055601280546001019081905590565b600b546101009004600160a060020a031681565b600b5460ff1681565b600454600160a060020a031681565b601360205260009081526040902054600160a060020a0381169060ff60a060020a820481169160a860020a90041683565b60008054620100009004600160a060020a0316331461093157600080fd5b600054610100900460ff161561094657600080fd5b506000805461ff001916610100179055601280546001019081905590565b600e5481565b6002805460408051602060018416156101000260001901909316849004601f810184900484028201840190925281815292918301828280156107065780601f106106db57610100808354040283529160200191610706565b600054610100900460ff1681565b600f5481565b60018054604080516020600284861615610100026000190190941693909304601f810184900484028201840190925281815292918301828280156107065780601f106106db57610100808354040283529160200191610706565b600c54600160a060020a031681565b600554600160a060020a031681565b6008805460408051602060026001851615610100026000190190941693909304601f810184900484028201840190925281815292918301828280156107065780601f106106db57610100808354040283529160200191610706565b600160a060020a03811660009081526014602052604081205481108015610afc5750600160a060020a0382166000908152601460209081526040808320548352601390915290205460a060020a900460ff165b801561067a575050600160a060020a03166000908152601460209081526040808320548352601390915290205460a860020a900460ff1690565b600054620100009004600160a060020a031681565b60008054819060ff16158015610b695750600054610100900460ff16155b1515610b7457600080fd5b600054620100009004600160a060020a03163314610b9157600080fd5b600160a060020a0384161515610ba657600080fd5b600160a060020a03841660009081526014602052604090205415610bc957600080fd5b6010805460010190558215610be657600e80546001019055610bf0565b600f805460010190555b5050601054600160a060020a039290921660008181526014602090815260408083208690559482526013905292909220805475ff0000000000000000000000000000000000000000001992151560a060020a0274ff00000000000000000000000000000000000000001973ffffffffffffffffffffffffffffffffffffffff1990921690941716929092171660a860020a179055601280546001019081905590565b6009805460408051602060026001851615610100026000190190941693909304601f810184900484028201840190925281815292918301828280156107065780601f106106db57610100808354040283529160200191610706565b600160a060020a03811660009081526014602052604081205481108015610afc5750600160a060020a0382166000908152601460209081526040808320548352601390915290205460a060020a900460ff1615801561067a575050600160a060020a03166000908152601460209081526040808320548352601390915290205460a860020a900460ff1690565b6000805460ff16158015610d965750600054610100900460ff16155b1515610da157600080fd5b600054620100009004600160a060020a03163314610dbe57600080fd5b600160a060020a0382161515610dd357600080fd5b5060058054600160a060020a03831673ffffffffffffffffffffffffffffffffffffffff199091161790556012805460010190819055919050565b60125481565b6000805460ff16158015610e305750600054610100900460ff16155b1515610e3b57600080fd5b600054620100009004600160a060020a03163314610e5857600080fd5b600160a060020a0382161515610e6d57600080fd5b600b5460ff1615610e7d57600080fd5b5060048054600160a060020a03831673ffffffffffffffffffffffffffffffffffffffff199091161790556012805460010190819055919050565b600d54600160a060020a031681565b60115481565b606080600060018510158015610ee35750848410155b8015610ef157508360105410155b1515610efc57600080fd5b610f1d6001610f11868863ffffffff61100916565b9063ffffffff61066d16565b604051908082528060200260200182016040528015610f46578160200160208202803883390190505b5091508490505b838111610fcb5760008181526013602052604090205460a860020a900460ff16610f78576000610f91565b600081815260136020526040902054600160a060020a03165b82610fa2838863ffffffff61100916565b81518110610fac57fe5b600160a060020a03909216602092830290910190910152600101610f4d565b509392505050565b600654600160a060020a031681565b60005460ff1681565b600a5481565b60146020526000908152604090205481565b60105481565b60008282111561101557fe5b509003905600a165627a7a723058202a25441821f514b940a50dbf25c7565ad5337574927582526c608e71b5dc0c980029",
	"source": "pragma solidity ^0.4.24;\n\nimport './SafeMath.sol';\n\n/**\n * @title TAO\n */\ncontract TAO {\n\tusing SafeMath for uint256;\n\n\t// Public variables\n\tbool public locked;\n\tbool public closed;\n\n\taddress public factoryAddress;\n\tstring public username;\t\t\t// the name of the Name that created this TAO\n\tstring public taoName;\t\t\t// the name of this TAO\n\taddress public originId;\t\t// the ID of the Name/TAO that created this TAO\n\n\taddress public advocateId;\t// current advocateId\n\taddress public listenerId;\t// current listenerId\n\taddress public speakerId;\t// current speakerId\n\n\t// TAO's data\n\tstring public datHash;\n\tstring public database;\n\tstring public keyValue;\n\tbytes32 public contentId;\n\n\t/**\n\t * 0 = create a TAO\n\t * 1 = create a Name\n\t */\n\tuint8 public taoTypeId;\n\n\taddress public fromId;\t\t// The origin TAO ID\n\taddress public throughId;\n\taddress public toId;\t\t// When this TAO wants to be part of a larger TAO but it's not coming from its Advocate\n\n\tuint256 public totalChildTAOs;\n\tuint256 public totalOrphanTAOs;\n\tuint256 public totalSubTAOs;\n\n\tuint256 public balance;\n\tuint256 public nonce;\n\n\tstruct SubTAO {\n\t\taddress taoId;\n\t\tbool child;\t\t\t// If false, then it's an orphan TAO\n\t\tbool connected;\t\t// If false, then parent TAO want to remove this sub TAO\n\t}\n\n\tmapping (uint256 => SubTAO) public subTAOs;\n\tmapping (address => uint256) public subTAOInternalIdLookup;\n\n\t/**\n\t * @dev Constructor function\n\t */\n\tconstructor (string _username, string _taoName, address _originId, string _datHash, string _database, string _keyValue, bytes32 _contentId, address _fromId, address _toId) public {\n\t\tfactoryAddress = msg.sender;\n\t\tusername = _username;\n\t\ttaoName = _taoName;\n\t\toriginId = _originId;\n\t\tadvocateId = _originId;\n\t\tdatHash = _datHash;\n\t\tdatabase = _database;\n\t\tkeyValue = _keyValue;\n\t\tcontentId = _contentId;\n\t\tfromId = _fromId;\n\t\ttoId = _toId;\n\n\t\tlistenerId = advocateId;\n\t\tspeakerId = advocateId;\n\n\t\t// Creating TAO\n\t\ttaoTypeId = 0;\n\n\t\tnonce = 1;\n\t}\n\n\t/**\n\t * @dev Check if contract is active\n\t */\n\tmodifier isActive {\n\t\trequire (locked == false && closed == false);\n\t\t_;\n\t}\n\n\t/**\n\t * @dev Check if calling address is Factory\n\t */\n\tmodifier onlyFactory {\n\t\trequire (msg.sender == factoryAddress);\n\t\t_;\n\t}\n\n\t/**\n\t * @dev Set advocate (only works for a TAO)\n\t * @param _advocateId The advocate ID to be set\n\t * @return the nonce for this transaction\n\t */\n\tfunction setAdvocate(address _advocateId) public isActive onlyFactory returns (uint256) {\n\t\trequire (_advocateId != address(0));\n\t\trequire (taoTypeId == 0);\n\t\tadvocateId = _advocateId;\n\t\tnonce++;\n\t\treturn nonce;\n\t}\n\n\t/**\n\t * @dev Set listener\n\t * @param _listenerId The listener ID to be set\n\t * @return the nonce for this transaction\n\t */\n\tfunction setListener(address _listenerId) public isActive onlyFactory returns (uint256) {\n\t\trequire (_listenerId != address(0));\n\t\tlistenerId = _listenerId;\n\t\tnonce++;\n\t\treturn nonce;\n\t}\n\n\t/**\n\t * @dev Set speaker\n\t * @param _speakerId The speaker ID to be set\n\t * @return the nonce for this transaction\n\t */\n\tfunction setSpeaker(address _speakerId) public isActive onlyFactory returns (uint256) {\n\t\trequire (_speakerId != address(0));\n\t\tspeakerId = _speakerId;\n\t\tnonce++;\n\t\treturn nonce;\n\t}\n\n\t/**\n\t * @dev Add sub TAO\n\t * @param _taoId The TAO ID to be added to as sub TAO\n\t * @param _child True if adding this as a child TAO. False if it's an orphan TAO.\n\t * @return the nonce for this transaction\n\t */\n\tfunction addSubTAO(address _taoId, bool _child) public isActive onlyFactory returns (uint256) {\n\t\trequire (_taoId != address(0));\n\t\trequire (subTAOInternalIdLookup[_taoId] == 0);\n\n\t\ttotalSubTAOs++;\n\t\tif (_child) {\n\t\t\ttotalChildTAOs++;\n\t\t} else {\n\t\t\ttotalOrphanTAOs++;\n\t\t}\n\t\tsubTAOInternalIdLookup[_taoId] = totalSubTAOs;\n\t\tSubTAO storage _subTAO = subTAOs[totalSubTAOs];\n\t\t_subTAO.taoId = _taoId;\n\t\t_subTAO.child = _child;\n\t\t_subTAO.connected = true;\n\t\tnonce++;\n\t\treturn nonce;\n\t}\n\n\t/**\n\t * @dev Get list of sub TAO IDs\n\t * @param _from The starting index (start from 1)\n\t * @param _to The ending index, (max is totalSubTAOs count )\n\t * @return list of sub TAO IDs\n\t */\n\tfunction getSubTAOIds(uint256 _from, uint256 _to) public view returns (address[]) {\n\t\trequire (_from >= 1 && _to >= _from && totalSubTAOs >= _to);\n\t\taddress[] memory _subTAOIds = new address[](_to.sub(_from).add(1));\n\t\tfor (uint256 i = _from; i <= _to; i++) {\n\t\t\t_subTAOIds[i.sub(_from)] = subTAOs[i].connected ? subTAOs[i].taoId : address(0);\n\t\t}\n\t\treturn _subTAOIds;\n\t}\n\n\t/**\n\t * @dev Check if `_childTAOId` is a child TAO\n\t * @param _childTAOId The child TAO ID to check\n\t * @return true if yes. Otherwise return false.\n\t */\n\tfunction isChildTAO(address _childTAOId) public view returns (bool) {\n\t\treturn (subTAOInternalIdLookup[_childTAOId] > 0 && subTAOs[subTAOInternalIdLookup[_childTAOId]].child && subTAOs[subTAOInternalIdLookup[_childTAOId]].connected);\n\t}\n\n\t/**\n\t * @dev Check if `_orphanTAOId` is an orphan TAO\n\t * @param _orphanTAOId The orphan TAO ID to check\n\t * @return true if yes. Otherwise return false.\n\t */\n\tfunction isOrphanTAO(address _orphanTAOId) public view returns (bool) {\n\t\treturn (subTAOInternalIdLookup[_orphanTAOId] > 0 && !subTAOs[subTAOInternalIdLookup[_orphanTAOId]].child && subTAOs[subTAOInternalIdLookup[_orphanTAOId]].connected);\n\t}\n\n\t/**\n\t * @dev Approve orphan TAO and switch it to a child TAO\n\t * @param _orphanTAOId The orphan TAO ID to approve\n\t * @return the nonce for this transaction\n\t */\n\tfunction approveOrphanTAO(address _orphanTAOId) public isActive onlyFactory returns (uint256) {\n\t\tSubTAO storage _subTAO = subTAOs[subTAOInternalIdLookup[_orphanTAOId]];\n\t\t_subTAO.child = true;\n\t\ttotalChildTAOs++;\n\t\ttotalOrphanTAOs--;\n\t\tnonce++;\n\t\treturn nonce;\n\t}\n\n\t/**\n\t * @dev Lock/unlock TAO. If at \"locked\" state, no transaction can be executed on this TAO\n\t\t\tuntil it's unlocked again.\n\t * @param _locked The bool value to set\n\t * @return the nonce for this transaction\n\t */\n\tfunction setLocked(bool _locked) public onlyFactory returns (uint256) {\n\t\trequire (closed == false);\n\t\tlocked = _locked;\n\t\tnonce++;\n\t\treturn nonce;\n\t}\n\n\t/**\n\t * @dev Mark TAO as closed\n\t * @return the nonce for this transaction\n\t */\n\tfunction close() public onlyFactory returns (uint256) {\n\t\trequire (closed == false);\n\t\tclosed = true;\n\t\tnonce++;\n\t\treturn nonce;\n\t}\n\n\t/**\n\t * @dev Receive ETH\n\t */\n\tfunction () public payable isActive {\n\t\tbalance = balance.add(msg.value);\n\t}\n}\n",
	"sourcePath": "/home/jmulyono/ao-contracts/contracts/TAO.sol",
	"compiler": {
		"name": "solc",
		"version": "0.4.24+commit.e67f0147.Emscripten.clang"
	},
	"schemaVersion": "2.0.1",
	"updatedAt": "2018-12-19T04:35:19.217Z"
}