{
	"contractName": "TAO",
	"abi": [
		{
			"constant": true,
			"inputs": [],
			"name": "datHash",
			"outputs": [
				{
					"name": "",
					"type": "string"
				}
			],
			"payable": false,
			"stateMutability": "view",
			"type": "function"
		},
		{
			"constant": true,
			"inputs": [],
			"name": "name",
			"outputs": [
				{
					"name": "",
					"type": "string"
				}
			],
			"payable": false,
			"stateMutability": "view",
			"type": "function"
		},
		{
			"constant": true,
			"inputs": [],
			"name": "originId",
			"outputs": [
				{
					"name": "",
					"type": "address"
				}
			],
			"payable": false,
			"stateMutability": "view",
			"type": "function"
		},
		{
			"constant": true,
			"inputs": [],
			"name": "vaultAddress",
			"outputs": [
				{
					"name": "",
					"type": "address"
				}
			],
			"payable": false,
			"stateMutability": "view",
			"type": "function"
		},
		{
			"constant": true,
			"inputs": [],
			"name": "database",
			"outputs": [
				{
					"name": "",
					"type": "string"
				}
			],
			"payable": false,
			"stateMutability": "view",
			"type": "function"
		},
		{
			"constant": true,
			"inputs": [],
			"name": "typeId",
			"outputs": [
				{
					"name": "",
					"type": "uint8"
				}
			],
			"payable": false,
			"stateMutability": "view",
			"type": "function"
		},
		{
			"constant": true,
			"inputs": [],
			"name": "keyValue",
			"outputs": [
				{
					"name": "",
					"type": "string"
				}
			],
			"payable": false,
			"stateMutability": "view",
			"type": "function"
		},
		{
			"constant": true,
			"inputs": [],
			"name": "contentId",
			"outputs": [
				{
					"name": "",
					"type": "bytes32"
				}
			],
			"payable": false,
			"stateMutability": "view",
			"type": "function"
		},
		{
			"inputs": [
				{
					"name": "_name",
					"type": "string"
				},
				{
					"name": "_originId",
					"type": "address"
				},
				{
					"name": "_datHash",
					"type": "string"
				},
				{
					"name": "_database",
					"type": "string"
				},
				{
					"name": "_keyValue",
					"type": "string"
				},
				{
					"name": "_contentId",
					"type": "bytes32"
				},
				{
					"name": "_vaultAddress",
					"type": "address"
				}
			],
			"payable": false,
			"stateMutability": "nonpayable",
			"type": "constructor"
		},
		{
			"payable": true,
			"stateMutability": "payable",
			"type": "fallback"
		},
		{
			"constant": false,
			"inputs": [
				{
					"name": "_recipient",
					"type": "address"
				},
				{
					"name": "_amount",
					"type": "uint256"
				}
			],
			"name": "transferEth",
			"outputs": [
				{
					"name": "",
					"type": "bool"
				}
			],
			"payable": false,
			"stateMutability": "nonpayable",
			"type": "function"
		},
		{
			"constant": false,
			"inputs": [
				{
					"name": "_erc20TokenAddress",
					"type": "address"
				},
				{
					"name": "_recipient",
					"type": "address"
				},
				{
					"name": "_amount",
					"type": "uint256"
				}
			],
			"name": "transferERC20",
			"outputs": [
				{
					"name": "",
					"type": "bool"
				}
			],
			"payable": false,
			"stateMutability": "nonpayable",
			"type": "function"
		}
	],
	"bytecode": "0x608060405234801561001057600080fd5b5060405161071d38038061071d8339810160409081528151602080840151928401516060850151608086015160a087015160c0880151958801805190989485019693850195929094019390929161006c916001918a01906100fe565b5060028054600160a060020a031916600160a060020a038816179055845161009b9060039060208801906100fe565b5083516100af9060049060208701906100fe565b5082516100c39060059060208601906100fe565b506006919091556007805460ff1916905560008054600160a060020a031916600160a060020a03909216919091179055506101999350505050565b828054600181600116156101000203166002900490600052602060002090601f016020900481019282601f1061013f57805160ff191683800117855561016c565b8280016001018555821561016c579182015b8281111561016c578251825591602001919060010190610151565b5061017892915061017c565b5090565b61019691905b808211156101785760008155600101610182565b90565b610575806101a86000396000f3006080604052600436106100a35763ffffffff7c01000000000000000000000000000000000000000000000000000000006000350416630568479081146100a557806306fdde031461012f57806313866efa14610144578063430bf08a14610175578063713b563f1461018a5780638f940f631461019f5780639db5dbe4146101ca578063a727be5714610208578063d97aa9771461021d578063e9bb84c214610244575b005b3480156100b157600080fd5b506100ba610268565b6040805160208082528351818301528351919283929083019185019080838360005b838110156100f45781810151838201526020016100dc565b50505050905090810190601f1680156101215780820380516001836020036101000a031916815260200191505b509250505060405180910390f35b34801561013b57600080fd5b506100ba6102f6565b34801561015057600080fd5b50610159610350565b60408051600160a060020a039092168252519081900360200190f35b34801561018157600080fd5b5061015961035f565b34801561019657600080fd5b506100ba61036e565b3480156101ab57600080fd5b506101b46103c9565b6040805160ff9092168252519081900360200190f35b3480156101d657600080fd5b506101f4600160a060020a03600435811690602435166044356103d2565b604080519115158252519081900360200190f35b34801561021457600080fd5b506100ba610490565b34801561022957600080fd5b506102326104eb565b60408051918252519081900360200190f35b34801561025057600080fd5b506101f4600160a060020a03600435166024356104f1565b6003805460408051602060026001851615610100026000190190941693909304601f810184900484028201840190925281815292918301828280156102ee5780601f106102c3576101008083540402835291602001916102ee565b820191906000526020600020905b8154815290600101906020018083116102d157829003601f168201915b505050505081565b60018054604080516020600284861615610100026000190190941693909304601f810184900484028201840190925281815292918301828280156102ee5780601f106102c3576101008083540402835291602001916102ee565b600254600160a060020a031681565b600054600160a060020a031681565b6004805460408051602060026001851615610100026000190190941693909304601f810184900484028201840190925281815292918301828280156102ee5780601f106102c3576101008083540402835291602001916102ee565b60075460ff1681565b600080548190600160a060020a031633146103ec57600080fd5b50604080517fa9059cbb000000000000000000000000000000000000000000000000000000008152600160a060020a038581166004830152602482018590529151869283169163a9059cbb9160448083019260209291908290030181600087803b15801561045957600080fd5b505af115801561046d573d6000803e3d6000fd5b505050506040513d602081101561048357600080fd5b5060019695505050505050565b6005805460408051602060026001851615610100026000190190941693909304601f810184900484028201840190925281815292918301828280156102ee5780601f106102c3576101008083540402835291602001916102ee565b60065481565b60008054600160a060020a0316331461050957600080fd5b604051600160a060020a0384169083156108fc029084906000818181858888f1935050505015801561053f573d6000803e3d6000fd5b50600193925050505600a165627a7a72305820999b60fd63678d0b0ec9c43a5427510d404587aedb540dc32d965926357f52f30029",
	"source": "pragma solidity ^0.4.24;\n\nimport './SafeMath.sol';\nimport './TokenERC20.sol';\n\n/**\n * @title TAO\n */\ncontract TAO {\n\tusing SafeMath for uint256;\n\n\taddress public vaultAddress;\n\tstring public name;\t\t\t\t// the name for this TAO\n\taddress public originId;\t\t// the ID of the Name that created this TAO. If Name, it's the eth address\n\n\t// TAO's data\n\tstring public datHash;\n\tstring public database;\n\tstring public keyValue;\n\tbytes32 public contentId;\n\n\t/**\n\t * 0 = TAO\n\t * 1 = Name\n\t */\n\tuint8 public typeId;\n\n\t/**\n\t * @dev Constructor function\n\t */\n\tconstructor (string _name,\n\t\taddress _originId,\n\t\tstring _datHash,\n\t\tstring _database,\n\t\tstring _keyValue,\n\t\tbytes32 _contentId,\n\t\taddress _vaultAddress\n\t) public {\n\t\tname = _name;\n\t\toriginId = _originId;\n\t\tdatHash = _datHash;\n\t\tdatabase = _database;\n\t\tkeyValue = _keyValue;\n\t\tcontentId = _contentId;\n\n\t\t// Creating TAO\n\t\ttypeId = 0;\n\n\t\tvaultAddress = _vaultAddress;\n\t}\n\n\t/**\n\t * @dev Checks if calling address is Vault contract\n\t */\n\tmodifier onlyVault {\n\t\trequire (msg.sender == vaultAddress);\n\t\t_;\n\t}\n\n\t/**\n\t * Will receive any ETH sent\n\t */\n\tfunction () external payable {\n\t}\n\n\t/**\n\t * @dev Allows Vault to transfer `_amount` of ETH from this TAO to `_recipient`\n\t * @param _recipient The recipient address\n\t * @param _amount The amount to transfer\n\t * @return true on success\n\t */\n\tfunction transferEth(address _recipient, uint256 _amount) public onlyVault returns (bool) {\n\t\t_recipient.transfer(_amount);\n\t\treturn true;\n\t}\n\n\t/**\n\t * @dev Allows Vault to transfer `_amount` of ERC20 Token from this TAO to `_recipient`\n\t * @param _erc20TokenAddress The address of ERC20 Token\n\t * @param _recipient The recipient address\n\t * @param _amount The amount to transfer\n\t * @return true on success\n\t */\n\tfunction transferERC20(address _erc20TokenAddress, address _recipient, uint256 _amount) public onlyVault returns (bool) {\n\t\tTokenERC20 _erc20 = TokenERC20(_erc20TokenAddress);\n\t\t_erc20.transfer(_recipient, _amount);\n\t\treturn true;\n\t}\n}\n",
	"sourcePath": "/Users/johanmulyono/Work/AO/ao-contracts/contracts/TAO.sol",
	"compiler": {
		"name": "solc",
		"version": "0.4.24+commit.e67f0147.Emscripten.clang"
	},
	"schemaVersion": "2.0.1",
	"updatedAt": "2019-04-15T11:53:44.159Z"
}