{
	"contractName": "TAOAncestry",
	"abi": [
		{
			"constant": false,
			"inputs": [
				{
					"name": "_nameAccountRecoveryAddress",
					"type": "address"
				}
			],
			"name": "setNameAccountRecoveryAddress",
			"outputs": [],
			"payable": false,
			"stateMutability": "nonpayable",
			"type": "function"
		},
		{
			"constant": true,
			"inputs": [],
			"name": "nameTAOPositionAddress",
			"outputs": [
				{
					"name": "",
					"type": "address"
				}
			],
			"payable": false,
			"stateMutability": "view",
			"type": "function"
		},
		{
			"constant": false,
			"inputs": [
				{
					"name": "_account",
					"type": "address"
				},
				{
					"name": "_whitelist",
					"type": "bool"
				}
			],
			"name": "setWhitelist",
			"outputs": [],
			"payable": false,
			"stateMutability": "nonpayable",
			"type": "function"
		},
		{
			"constant": false,
			"inputs": [
				{
					"name": "_nameTAOPositionAddress",
					"type": "address"
				}
			],
			"name": "setNameTAOPositionAddress",
			"outputs": [],
			"payable": false,
			"stateMutability": "nonpayable",
			"type": "function"
		},
		{
			"constant": false,
			"inputs": [
				{
					"name": "_nameFactoryAddress",
					"type": "address"
				}
			],
			"name": "setNameFactoryAddress",
			"outputs": [],
			"payable": false,
			"stateMutability": "nonpayable",
			"type": "function"
		},
		{
			"constant": true,
			"inputs": [
				{
					"name": "",
					"type": "address"
				}
			],
			"name": "whitelist",
			"outputs": [
				{
					"name": "",
					"type": "bool"
				}
			],
			"payable": false,
			"stateMutability": "view",
			"type": "function"
		},
		{
			"constant": true,
			"inputs": [],
			"name": "nameAccountRecoveryAddress",
			"outputs": [
				{
					"name": "",
					"type": "address"
				}
			],
			"payable": false,
			"stateMutability": "view",
			"type": "function"
		},
		{
			"constant": true,
			"inputs": [],
			"name": "theAO",
			"outputs": [
				{
					"name": "",
					"type": "address"
				}
			],
			"payable": false,
			"stateMutability": "view",
			"type": "function"
		},
		{
			"constant": true,
			"inputs": [],
			"name": "nameFactoryAddress",
			"outputs": [
				{
					"name": "",
					"type": "address"
				}
			],
			"payable": false,
			"stateMutability": "view",
			"type": "function"
		},
		{
			"constant": false,
			"inputs": [
				{
					"name": "_theAO",
					"type": "address"
				}
			],
			"name": "transferOwnership",
			"outputs": [],
			"payable": false,
			"stateMutability": "nonpayable",
			"type": "function"
		},
		{
			"constant": true,
			"inputs": [],
			"name": "taoFactoryAddress",
			"outputs": [
				{
					"name": "",
					"type": "address"
				}
			],
			"payable": false,
			"stateMutability": "view",
			"type": "function"
		},
		{
			"inputs": [
				{
					"name": "_nameFactoryAddress",
					"type": "address"
				},
				{
					"name": "_taoFactoryAddress",
					"type": "address"
				},
				{
					"name": "_nameTAOPositionAddress",
					"type": "address"
				}
			],
			"payable": false,
			"stateMutability": "nonpayable",
			"type": "constructor"
		},
		{
			"anonymous": false,
			"inputs": [
				{
					"indexed": true,
					"name": "taoId",
					"type": "address"
				},
				{
					"indexed": false,
					"name": "childMinLogos",
					"type": "uint256"
				},
				{
					"indexed": false,
					"name": "nonce",
					"type": "uint256"
				}
			],
			"name": "UpdateChildMinLogos",
			"type": "event"
		},
		{
			"anonymous": false,
			"inputs": [
				{
					"indexed": true,
					"name": "taoId",
					"type": "address"
				},
				{
					"indexed": false,
					"name": "taoAdvocate",
					"type": "address"
				},
				{
					"indexed": false,
					"name": "childId",
					"type": "address"
				},
				{
					"indexed": false,
					"name": "childAdvocate",
					"type": "address"
				},
				{
					"indexed": false,
					"name": "approved",
					"type": "bool"
				},
				{
					"indexed": false,
					"name": "connected",
					"type": "bool"
				}
			],
			"name": "AddChild",
			"type": "event"
		},
		{
			"anonymous": false,
			"inputs": [
				{
					"indexed": true,
					"name": "taoId",
					"type": "address"
				},
				{
					"indexed": false,
					"name": "taoAdvocate",
					"type": "address"
				},
				{
					"indexed": false,
					"name": "childId",
					"type": "address"
				},
				{
					"indexed": false,
					"name": "childAdvocate",
					"type": "address"
				},
				{
					"indexed": false,
					"name": "nonce",
					"type": "uint256"
				}
			],
			"name": "ApproveChild",
			"type": "event"
		},
		{
			"anonymous": false,
			"inputs": [
				{
					"indexed": true,
					"name": "taoId",
					"type": "address"
				},
				{
					"indexed": false,
					"name": "taoAdvocate",
					"type": "address"
				},
				{
					"indexed": false,
					"name": "childId",
					"type": "address"
				},
				{
					"indexed": false,
					"name": "childAdvocate",
					"type": "address"
				},
				{
					"indexed": false,
					"name": "nonce",
					"type": "uint256"
				}
			],
			"name": "RemoveChild",
			"type": "event"
		},
		{
			"constant": false,
			"inputs": [
				{
					"name": "_taoFactoryAddress",
					"type": "address"
				}
			],
			"name": "setTAOFactoryAddress",
			"outputs": [],
			"payable": false,
			"stateMutability": "nonpayable",
			"type": "function"
		},
		{
			"constant": true,
			"inputs": [
				{
					"name": "_id",
					"type": "address"
				}
			],
			"name": "isExist",
			"outputs": [
				{
					"name": "",
					"type": "bool"
				}
			],
			"payable": false,
			"stateMutability": "view",
			"type": "function"
		},
		{
			"constant": false,
			"inputs": [
				{
					"name": "_id",
					"type": "address"
				},
				{
					"name": "_parentId",
					"type": "address"
				},
				{
					"name": "_childMinLogos",
					"type": "uint256"
				}
			],
			"name": "initialize",
			"outputs": [
				{
					"name": "",
					"type": "bool"
				}
			],
			"payable": false,
			"stateMutability": "nonpayable",
			"type": "function"
		},
		{
			"constant": true,
			"inputs": [
				{
					"name": "_id",
					"type": "address"
				}
			],
			"name": "getAncestryById",
			"outputs": [
				{
					"name": "",
					"type": "address"
				},
				{
					"name": "",
					"type": "uint256"
				},
				{
					"name": "",
					"type": "uint256"
				}
			],
			"payable": false,
			"stateMutability": "view",
			"type": "function"
		},
		{
			"constant": false,
			"inputs": [
				{
					"name": "_id",
					"type": "address"
				},
				{
					"name": "_childMinLogos",
					"type": "uint256"
				}
			],
			"name": "updateChildMinLogos",
			"outputs": [],
			"payable": false,
			"stateMutability": "nonpayable",
			"type": "function"
		},
		{
			"constant": true,
			"inputs": [
				{
					"name": "_taoId",
					"type": "address"
				},
				{
					"name": "_childId",
					"type": "address"
				}
			],
			"name": "isChild",
			"outputs": [
				{
					"name": "",
					"type": "bool"
				}
			],
			"payable": false,
			"stateMutability": "view",
			"type": "function"
		},
		{
			"constant": true,
			"inputs": [
				{
					"name": "_taoId",
					"type": "address"
				},
				{
					"name": "_childId",
					"type": "address"
				}
			],
			"name": "isNotApprovedChild",
			"outputs": [
				{
					"name": "",
					"type": "bool"
				}
			],
			"payable": false,
			"stateMutability": "view",
			"type": "function"
		},
		{
			"constant": false,
			"inputs": [
				{
					"name": "_taoId",
					"type": "address"
				},
				{
					"name": "_childId",
					"type": "address"
				}
			],
			"name": "addChild",
			"outputs": [
				{
					"name": "",
					"type": "bool"
				}
			],
			"payable": false,
			"stateMutability": "nonpayable",
			"type": "function"
		},
		{
			"constant": false,
			"inputs": [
				{
					"name": "_taoId",
					"type": "address"
				},
				{
					"name": "_childId",
					"type": "address"
				}
			],
			"name": "approveChild",
			"outputs": [],
			"payable": false,
			"stateMutability": "nonpayable",
			"type": "function"
		},
		{
			"constant": false,
			"inputs": [
				{
					"name": "_taoId",
					"type": "address"
				},
				{
					"name": "_childId",
					"type": "address"
				}
			],
			"name": "removeChild",
			"outputs": [],
			"payable": false,
			"stateMutability": "nonpayable",
			"type": "function"
		},
		{
			"constant": true,
			"inputs": [
				{
					"name": "_taoId",
					"type": "address"
				},
				{
					"name": "_from",
					"type": "uint256"
				},
				{
					"name": "_to",
					"type": "uint256"
				}
			],
			"name": "getChildIds",
			"outputs": [
				{
					"name": "",
					"type": "address[]"
				}
			],
			"payable": false,
			"stateMutability": "view",
			"type": "function"
		}
	],
	"bytecode": "0x60806040523480156200001157600080fd5b50604051606080620028a0833981018060405260608110156200003357600080fd5b508051602080830151604090930151600080546001600160a01b031916331790559192919083906200006b90829062000097811b901c565b506200007d826200019860201b60201c565b6200008e816200029960201b60201c565b5050506200039a565b600054600154604080517ff66afcac0000000000000000000000000000000000000000000000000000000081523360048201526001600160a01b0393841660248201529290911660448301525173__AOLibrary_____________________________9163f66afcac916064808301926020929190829003018186803b1580156200012057600080fd5b505af415801562000135573d6000803e3d6000fd5b505050506040513d60208110156200014c57600080fd5b50516200015857600080fd5b6001600160a01b0381166200016c57600080fd5b600380546001600160a01b039092166001600160a01b0319928316811790915560058054909216179055565b600054600154604080517ff66afcac0000000000000000000000000000000000000000000000000000000081523360048201526001600160a01b0393841660248201529290911660448301525173__AOLibrary_____________________________9163f66afcac916064808301926020929190829003018186803b1580156200022157600080fd5b505af415801562000236573d6000803e3d6000fd5b505050506040513d60208110156200024d57600080fd5b50516200025957600080fd5b6001600160a01b0381166200026d57600080fd5b600880546001600160a01b039092166001600160a01b0319928316811790915560098054909216179055565b600054600154604080517ff66afcac0000000000000000000000000000000000000000000000000000000081523360048201526001600160a01b0393841660248201529290911660448301525173__AOLibrary_____________________________9163f66afcac916064808301926020929190829003018186803b1580156200032257600080fd5b505af415801562000337573d6000803e3d6000fd5b505050506040513d60208110156200034e57600080fd5b50516200035a57600080fd5b6001600160a01b0381166200036e57600080fd5b600180546001600160a01b039092166001600160a01b0319928316811790915560068054909216179055565b6124f680620003aa6000396000f3fe608060405234801561001057600080fd5b50600436106101415760003560e01c80637b23a437116100b8578063a4e5fad21161007c578063a4e5fad214610428578063a9b6b38e14610430578063bc40620614610438578063ec5c71b314610440578063f2fde38b146104c2578063ff0374b5146104e857610141565b80637b23a437146103345780638bd0ba67146103825780638c924361146103b05780639b19251a146103d6578063a1784139146103fc57610141565b80634e0be9911161010a5780634e0be991146102325780634ef033f01461026057806353d6fd591461028457806356dbc007146102b25780635cfaf2ef146102e05780636d6297491461030657610141565b806213eb4b146101465780631794bb3c146101805780631dfde2bd146101b65780632191207a146101de578063447843cf14610204575b600080fd5b61016c6004803603602081101561015c57600080fd5b50356001600160a01b03166104f0565b604080519115158252519081900360200190f35b61016c6004803603606081101561019657600080fd5b506001600160a01b03813581169160208101359091169060400135610510565b6101dc600480360360208110156101cc57600080fd5b50356001600160a01b0316610746565b005b6101dc600480360360208110156101f457600080fd5b50356001600160a01b031661082f565b6101dc6004803603604081101561021a57600080fd5b506001600160a01b0381358116916020013516610915565b6101dc6004803603604081101561024857600080fd5b506001600160a01b0381358116916020013516610c9f565b6102686112c2565b604080516001600160a01b039092168252519081900360200190f35b6101dc6004803603604081101561029a57600080fd5b506001600160a01b03813516906020013515156112d1565b61016c600480360360408110156102c857600080fd5b506001600160a01b03813581169160200135166113b6565b6101dc600480360360208110156102f657600080fd5b50356001600160a01b03166114cc565b61016c6004803603604081101561031c57600080fd5b506001600160a01b03813581169160200135166115b2565b61035a6004803603602081101561034a57600080fd5b50356001600160a01b0316611655565b604080516001600160a01b039094168452602084019290925282820152519081900360600190f35b61016c6004803603604081101561039857600080fd5b506001600160a01b03813581169160200135166116dd565b6101dc600480360360208110156103c657600080fd5b50356001600160a01b0316611acd565b61016c600480360360208110156103ec57600080fd5b50356001600160a01b0316611bb3565b6101dc6004803603604081101561041257600080fd5b506001600160a01b038135169060200135611bc8565b610268611f7c565b610268611f8b565b610268611f9a565b6104726004803603606081101561045657600080fd5b506001600160a01b038135169060208101359060400135611fa9565b60408051602080825283518183015283519192839290830191858101910280838360005b838110156104ae578181015183820152602001610496565b505050509050019250505060405180910390f35b6101dc600480360360208110156104d857600080fd5b50356001600160a01b0316612100565b6102686121dc565b6001600160a01b039081166000908152600a602052604090205416151590565b60008373__AOLibrary_____________________________632fca5414826040518263ffffffff1660e01b815260040180826001600160a01b03166001600160a01b0316815260200191505060206040518083038186803b15801561057457600080fd5b505af4158015610588573d6000803e3d6000fd5b505050506040513d602081101561059e57600080fd5b50516105a957600080fd5b8373__AOLibrary_____________________________632d706a34826040518263ffffffff1660e01b815260040180826001600160a01b03166001600160a01b0316815260200191505060206040518083038186803b15801561060b57600080fd5b505af415801561061f573d6000803e3d6000fd5b505050506040513d602081101561063557600080fd5b5051806106c7575060408051600160e21b630bf295050281526001600160a01b0383166004820152905173__AOLibrary_____________________________91632fca5414916024808301926020929190829003018186803b15801561069a57600080fd5b505af41580156106ae573d6000803e3d6000fd5b505050506040513d60208110156106c457600080fd5b50515b6106d057600080fd5b6008546001600160a01b031633146106e757600080fd5b6106f0866104f0565b156106fa57600080fd5b5050506001600160a01b039283166000818152600a6020526040902080546001600160a01b03199081169092178155600180820180549093169490951693909317905560029091015590565b60005460015460408051600160e21b633d9abf2b0281523360048201526001600160a01b0393841660248201529290911660448301525173__AOLibrary_____________________________9163f66afcac916064808301926020929190829003018186803b1580156107b857600080fd5b505af41580156107cc573d6000803e3d6000fd5b505050506040513d60208110156107e257600080fd5b50516107ed57600080fd5b6001600160a01b03811661080057600080fd5b600480546001600160a01b03199081166001600160a01b03938416179182905560078054929093169116179055565b60005460015460408051600160e21b633d9abf2b0281523360048201526001600160a01b0393841660248201529290911660448301525173__AOLibrary_____________________________9163f66afcac916064808301926020929190829003018186803b1580156108a157600080fd5b505af41580156108b5573d6000803e3d6000fd5b505050506040513d60208110156108cb57600080fd5b50516108d657600080fd5b6001600160a01b0381166108e957600080fd5b600880546001600160a01b039092166001600160a01b0319928316811790915560098054909216179055565b8173__AOLibrary_____________________________632fca5414826040518263ffffffff1660e01b815260040180826001600160a01b03166001600160a01b0316815260200191505060206040518083038186803b15801561097757600080fd5b505af415801561098b573d6000803e3d6000fd5b505050506040513d60208110156109a157600080fd5b50516109ac57600080fd5b8173__AOLibrary_____________________________632fca5414826040518263ffffffff1660e01b815260040180826001600160a01b03166001600160a01b0316815260200191505060206040518083038186803b158015610a0e57600080fd5b505af4158015610a22573d6000803e3d6000fd5b505050506040513d6020811015610a3857600080fd5b5051610a4357600080fd5b60055460408051600160e01b63029b7d5302815233600482015290516000926001600160a01b03169163029b7d53916024808301926020929190829003018186803b158015610a9157600080fd5b505afa158015610aa5573d6000803e3d6000fd5b505050506040513d6020811015610abb57600080fd5b50516001600160a01b03161415610ad157600080fd5b60075460055460408051600160e01b63029b7d5302815233600482015290516001600160a01b0393841693633ebc2ab393169163029b7d53916024808301926020929190829003018186803b158015610b2957600080fd5b505afa158015610b3d573d6000803e3d6000fd5b505050506040513d6020811015610b5357600080fd5b50516040805163ffffffff841660e01b81526001600160a01b039092166004830152516024808301926020929190829003018186803b158015610b9557600080fd5b505afa158015610ba9573d6000803e3d6000fd5b505050506040513d6020811015610bbf57600080fd5b505115610bcb57600080fd5b60065460408051600160e01b6371ce52ed0281523360048201526001600160a01b0380881660248301529151879392909216916371ce52ed91604480820192602092909190829003018186803b158015610c2457600080fd5b505afa158015610c38573d6000803e3d6000fd5b505050506040513d6020811015610c4e57600080fd5b5051610c5957600080fd5b610c62856104f0565b8015610c725750610c72846104f0565b610c7b57600080fd5b610c8585856115b2565b610c8e57600080fd5b610c9885856121eb565b5050505050565b8173__AOLibrary_____________________________632fca5414826040518263ffffffff1660e01b815260040180826001600160a01b03166001600160a01b0316815260200191505060206040518083038186803b158015610d0157600080fd5b505af4158015610d15573d6000803e3d6000fd5b505050506040513d6020811015610d2b57600080fd5b5051610d3657600080fd5b8173__AOLibrary_____________________________632fca5414826040518263ffffffff1660e01b815260040180826001600160a01b03166001600160a01b0316815260200191505060206040518083038186803b158015610d9857600080fd5b505af4158015610dac573d6000803e3d6000fd5b505050506040513d6020811015610dc257600080fd5b5051610dcd57600080fd5b60055460408051600160e01b63029b7d5302815233600482015290516000926001600160a01b03169163029b7d53916024808301926020929190829003018186803b158015610e1b57600080fd5b505afa158015610e2f573d6000803e3d6000fd5b505050506040513d6020811015610e4557600080fd5b50516001600160a01b03161415610e5b57600080fd5b60075460055460408051600160e01b63029b7d5302815233600482015290516001600160a01b0393841693633ebc2ab393169163029b7d53916024808301926020929190829003018186803b158015610eb357600080fd5b505afa158015610ec7573d6000803e3d6000fd5b505050506040513d6020811015610edd57600080fd5b50516040805163ffffffff841660e01b81526001600160a01b039092166004830152516024808301926020929190829003018186803b158015610f1f57600080fd5b505afa158015610f33573d6000803e3d6000fd5b505050506040513d6020811015610f4957600080fd5b505115610f5557600080fd5b60065460408051600160e01b6371ce52ed0281523360048201526001600160a01b0380881660248301529151879392909216916371ce52ed91604480820192602092909190829003018186803b158015610fae57600080fd5b505afa158015610fc2573d6000803e3d6000fd5b505050506040513d6020811015610fd857600080fd5b5051610fe357600080fd5b60408051600160e01b6356dbc0070281526001600160a01b03878116600483015286166024820152905130916356dbc007916044808301926020929190829003018186803b15801561103457600080fd5b505afa158015611048573d6000803e3d6000fd5b505050506040513d602081101561105e57600080fd5b505161106957600080fd5b6001600160a01b038086166000818152600a602081815260408084206005810180546000190190558a871680865260048083018552838720805488526003840186528488208054600160a81b60ff02191681559288528790559484528286206001810180546001600160a01b03191690556009548451600160e21b633d5d0f130281529687019890985292519197909692959492169263f5743c4c926024808201939182900301818787803b15801561112157600080fd5b505af1158015611135573d6000803e3d6000fd5b505050506040513d602081101561114b57600080fd5b505190508061115957600080fd5b60065460408051600160e01b63fd6f41370281526001600160a01b038c811660048301529151600093929092169163fd6f413791602480820192602092909190829003018186803b1580156111ad57600080fd5b505afa1580156111c1573d6000803e3d6000fd5b505050506040513d60208110156111d757600080fd5b505160065460408051600160e01b63fd6f41370281526001600160a01b038d811660048301529151939450600093919092169163fd6f4137916024808301926020929190829003018186803b15801561122f57600080fd5b505afa158015611243573d6000803e3d6000fd5b505050506040513d602081101561125957600080fd5b5051604080516001600160a01b0385811682528d8116602083015280841682840152606082018790529151929350908d16917fc0f198af4324ea043d3aeb74e5eb714633d7b769d717646178e52308935094d29181900360800190a25050505050505050505050565b6001546001600160a01b031681565b60005460015460408051600160e21b633d9abf2b0281523360048201526001600160a01b0393841660248201529290911660448301525173__AOLibrary_____________________________9163f66afcac916064808301926020929190829003018186803b15801561134357600080fd5b505af4158015611357573d6000803e3d6000fd5b505050506040513d602081101561136d57600080fd5b505161137857600080fd5b6001600160a01b03821661138b57600080fd5b6001600160a01b03919091166000908152600260205260409020805460ff1916911515919091179055565b60006113c1836104f0565b80156113d157506113d1826104f0565b6113da57600080fd5b6001600160a01b0383166000908152600a602052604090206113fa612489565b506001600160a01b038084166000818152600a60209081526040808320815160a081018352815487168152600182015490961686840152600281015486830152600581015460608701526006015460808601529282526004850190522054801580159061147e57506000818152600384016020526040902054600160a01b900460ff165b80156114a157506000818152600384016020526040902054600160a81b900460ff165b80156114c25750856001600160a01b031682602001516001600160a01b0316145b9695505050505050565b60005460015460408051600160e21b633d9abf2b0281523360048201526001600160a01b0393841660248201529290911660448301525173__AOLibrary_____________________________9163f66afcac916064808301926020929190829003018186803b15801561153e57600080fd5b505af4158015611552573d6000803e3d6000fd5b505050506040513d602081101561156857600080fd5b505161157357600080fd5b6001600160a01b03811661158657600080fd5b600180546001600160a01b039092166001600160a01b0319928316811790915560068054909216179055565b60006115bd836104f0565b80156115cd57506115cd826104f0565b6115d657600080fd5b6001600160a01b038084166000908152600a60209081526040808320938616835260048401909152902054801580159061162857506000818152600383016020526040902054600160a01b900460ff16155b801561164c57506000818152600383016020526040902054600160a81b900460ff16155b95945050505050565b6000806000611663846104f0565b61166c57600080fd5b611674612489565b505050506001600160a01b039081166000908152600a6020908152604091829020825160a0810184528154851681526001820154909416918401829052600281015492840183905260058101546060850181905260069091015460809094019390935292909190565b60008273__AOLibrary_____________________________632fca5414826040518263ffffffff1660e01b815260040180826001600160a01b03166001600160a01b0316815260200191505060206040518083038186803b15801561174157600080fd5b505af4158015611755573d6000803e3d6000fd5b505050506040513d602081101561176b57600080fd5b505161177657600080fd5b8273__AOLibrary_____________________________632fca5414826040518263ffffffff1660e01b815260040180826001600160a01b03166001600160a01b0316815260200191505060206040518083038186803b1580156117d857600080fd5b505af41580156117ec573d6000803e3d6000fd5b505050506040513d602081101561180257600080fd5b505161180d57600080fd5b6008546001600160a01b0316331461182457600080fd5b60408051600160e01b6356dbc0070281526001600160a01b03878116600483015286166024820152905130916356dbc007916044808301926020929190829003018186803b15801561187557600080fd5b505afa158015611889573d6000803e3d6000fd5b505050506040513d602081101561189f57600080fd5b5051156118ab57600080fd5b6001600160a01b038086166000908152600a60209081526040808320938816835260048401909152902054156118e057600080fd5b60068082018054600101908190556001600160a01b03808816600081815260048087016020908152604080842087905595835260038801815285832080546001600160a01b031916909417845595548551600160e01b63fd6f41370281528d8616928101929092529451929591949093169263fd6f41379260248083019392829003018186803b15801561197357600080fd5b505afa158015611987573d6000803e3d6000fd5b505050506040513d602081101561199d57600080fd5b505160065460408051600160e01b63fd6f41370281526001600160a01b038b811660048301529151939450600093919092169163fd6f4137916024808301926020929190829003018186803b1580156119f557600080fd5b505afa158015611a09573d6000803e3d6000fd5b505050506040513d6020811015611a1f57600080fd5b50518354604080516001600160a01b0386811682528c811660208301528085168284015260ff600160a01b8504811615156060840152600160a81b909404909316151560808201529051929350908b16917f8573ba99b8df17a58eb2c2a292145273d192dc5b033c7fcd716706e0bd38deb29181900360a00190a2806001600160a01b0316826001600160a01b03161415611abe57611abe89896121eb565b50600198975050505050505050565b60005460015460408051600160e21b633d9abf2b0281523360048201526001600160a01b0393841660248201529290911660448301525173__AOLibrary_____________________________9163f66afcac916064808301926020929190829003018186803b158015611b3f57600080fd5b505af4158015611b53573d6000803e3d6000fd5b505050506040513d6020811015611b6957600080fd5b5051611b7457600080fd5b6001600160a01b038116611b8757600080fd5b600380546001600160a01b039092166001600160a01b0319928316811790915560058054909216179055565b60026020526000908152604090205460ff1681565b8173__AOLibrary_____________________________632fca5414826040518263ffffffff1660e01b815260040180826001600160a01b03166001600160a01b0316815260200191505060206040518083038186803b158015611c2a57600080fd5b505af4158015611c3e573d6000803e3d6000fd5b505050506040513d6020811015611c5457600080fd5b5051611c5f57600080fd5b60055460408051600160e01b63029b7d5302815233600482015290516000926001600160a01b03169163029b7d53916024808301926020929190829003018186803b158015611cad57600080fd5b505afa158015611cc1573d6000803e3d6000fd5b505050506040513d6020811015611cd757600080fd5b50516001600160a01b03161415611ced57600080fd5b60075460055460408051600160e01b63029b7d5302815233600482015290516001600160a01b0393841693633ebc2ab393169163029b7d53916024808301926020929190829003018186803b158015611d4557600080fd5b505afa158015611d59573d6000803e3d6000fd5b505050506040513d6020811015611d6f57600080fd5b50516040805163ffffffff841660e01b81526001600160a01b039092166004830152516024808301926020929190829003018186803b158015611db157600080fd5b505afa158015611dc5573d6000803e3d6000fd5b505050506040513d6020811015611ddb57600080fd5b505115611de757600080fd5b60065460408051600160e01b6371ce52ed0281523360048201526001600160a01b0380871660248301529151869392909216916371ce52ed91604480820192602092909190829003018186803b158015611e4057600080fd5b505afa158015611e54573d6000803e3d6000fd5b505050506040513d6020811015611e6a57600080fd5b5051611e7557600080fd5b611e7e846104f0565b611e8757600080fd5b6001600160a01b038085166000818152600a60209081526040808320600281018990556009548251600160e21b633d5d0f130281526004810196909652915190959394919093169263f5743c4c9260248084019391929182900301818787803b158015611ef357600080fd5b505af1158015611f07573d6000803e3d6000fd5b505050506040513d6020811015611f1d57600080fd5b5051905080611f2b57600080fd5b6002820154604080519182526020820183905280516001600160a01b038916927f432764b4ba5e42a85ef0b766607df8550deee8129d8f51fe368dc3b1eb684a6f92908290030190a2505050505050565b6004546001600160a01b031681565b6000546001600160a01b031681565b6003546001600160a01b031681565b6060611fb4846104f0565b611fbd57600080fd5b6001600160a01b0384166000908152600a6020526040902060018410801590611fe65750838310155b8015611ff6575082816006015410155b611fff57600080fd5b60606120226001612016868863ffffffff61246416565b9063ffffffff61247616565b60405190808252806020026020018201604052801561204b578160200160208202803883390190505b509050845b8481116120f6576000818152600384016020526040902054600160a01b900460ff16801561209557506000818152600384016020526040902054600160a81b900460ff165b6120a05760006120bb565b60008181526003840160205260409020546001600160a01b03165b826120cc838963ffffffff61246416565b815181106120d657fe5b6001600160a01b0390921660209283029190910190910152600101612050565b5095945050505050565b60005460015460408051600160e21b633d9abf2b0281523360048201526001600160a01b0393841660248201529290911660448301525173__AOLibrary_____________________________9163f66afcac916064808301926020929190829003018186803b15801561217257600080fd5b505af4158015612186573d6000803e3d6000fd5b505050506040513d602081101561219c57600080fd5b50516121a757600080fd5b6001600160a01b0381166121ba57600080fd5b600080546001600160a01b0319166001600160a01b0392909216919091179055565b6008546001600160a01b031681565b6001600160a01b038083166000818152600a602090815260408083208686168452818420600480830185528386205460058401805460019081019091558188526003850187528588208054600160a81b60ff021974ff000000000000000000000000000000000000000019909116600160a01b1716600160a81b17815590840180546001600160a01b0319168a1790556009548651600160e21b633d5d0f13028152938401999099529451939892979096949592169263f5743c4c9260248084019391929182900301818787803b1580156122c557600080fd5b505af11580156122d9573d6000803e3d6000fd5b505050506040513d60208110156122ef57600080fd5b50519050806122fd57600080fd5b60065460408051600160e01b63fd6f41370281526001600160a01b038a811660048301529151600093929092169163fd6f413791602480820192602092909190829003018186803b15801561235157600080fd5b505afa158015612365573d6000803e3d6000fd5b505050506040513d602081101561237b57600080fd5b505160065460408051600160e01b63fd6f41370281526001600160a01b038b811660048301529151939450600093919092169163fd6f4137916024808301926020929190829003018186803b1580156123d357600080fd5b505afa1580156123e7573d6000803e3d6000fd5b505050506040513d60208110156123fd57600080fd5b5051604080516001600160a01b0385811682528b8116602083015280841682840152606082018790529151929350908b16917faddca2e9e867c5dfe4955df18f13db95b67bf1908ead867e1e0916f9d08b3c2c9181900360800190a2505050505050505050565b60008282111561247057fe5b50900390565b8181018281101561248357fe5b92915050565b6040518060a0016040528060006001600160a01b0316815260200160006001600160a01b03168152602001600081526020016000815260200160008152509056fea165627a7a72305820cfad35573592c86d8ecb6eedfc452f9d77c332897ac2064c2dbaa122590c0e960029",
	"source": "pragma solidity >=0.5.4 <0.6.0;\n\nimport './SafeMath.sol';\nimport './AOLibrary.sol';\nimport './TAOController.sol';\nimport './ITAOAncestry.sol';\nimport './ITAOFactory.sol';\n\n/**\n * @title TAOAncestry\n */\ncontract TAOAncestry is TAOController, ITAOAncestry {\n\tusing SafeMath for uint256;\n\n\taddress public taoFactoryAddress;\n\n\tITAOFactory internal _taoFactory;\n\n\tstruct Child {\n\t\taddress taoId;\n\t\tbool approved;\t\t// If false, then waiting for parent TAO approval\n\t\tbool connected;\t\t// If false, then parent TAO want to remove this child TAO\n\t}\n\n\tstruct Ancestry {\n\t\taddress taoId;\n\t\taddress parentId;\t// The parent of this TAO ID (could be a Name or TAO)\n\t\tuint256 childMinLogos;\n\t\tmapping (uint256 => Child) children;\n\t\tmapping (address => uint256) childInternalIdLookup;\n\t\tuint256 totalChildren;\n\t\tuint256 childInternalId;\n\t}\n\n\tmapping (address => Ancestry) internal ancestries;\n\n\t// Event to be broadcasted to public when Advocate updates min required Logos to create a child TAO\n\tevent UpdateChildMinLogos(address indexed taoId, uint256 childMinLogos, uint256 nonce);\n\n\t// Event to be broadcasted to public when a TAO adds a child TAO\n\tevent AddChild(address indexed taoId, address taoAdvocate, address childId, address childAdvocate, bool approved, bool connected);\n\n\t// Event to be broadcasted to public when a TAO approves a child TAO\n\tevent ApproveChild(address indexed taoId, address taoAdvocate, address childId, address childAdvocate, uint256 nonce);\n\n\t// Event to be broadcasted to public when a TAO removes a child TAO\n\tevent RemoveChild(address indexed taoId, address taoAdvocate, address childId, address childAdvocate, uint256 nonce);\n\n\t/**\n\t * @dev Constructor function\n\t */\n\tconstructor(address _nameFactoryAddress, address _taoFactoryAddress, address _nameTAOPositionAddress)\n\t\tTAOController(_nameFactoryAddress) public {\n\t\tsetTAOFactoryAddress(_taoFactoryAddress);\n\t\tsetNameTAOPositionAddress(_nameTAOPositionAddress);\n\t}\n\n\t/**\n\t * @dev Check if calling address is Factory\n\t */\n\tmodifier onlyFactory {\n\t\trequire (msg.sender == taoFactoryAddress);\n\t\t_;\n\t}\n\n\t/***** The AO ONLY METHODS *****/\n\t/**\n\t * @dev The AO set the TAOFactory Address\n\t * @param _taoFactoryAddress The address of TAOFactory\n\t */\n\tfunction setTAOFactoryAddress(address _taoFactoryAddress) public onlyTheAO {\n\t\trequire (_taoFactoryAddress != address(0));\n\t\ttaoFactoryAddress = _taoFactoryAddress;\n\t\t_taoFactory = ITAOFactory(_taoFactoryAddress);\n\t}\n\n\t/***** PUBLIC METHODS *****/\n\t/**\n\t * @dev Check whether or not a TAO ID exist in the list of ancestries\n\t * @param _id The ID to be checked\n\t * @return true if yes, false otherwise\n\t */\n\tfunction isExist(address _id) public view returns (bool) {\n\t\treturn ancestries[_id].taoId != address(0);\n\t}\n\n\t/**\n\t * @dev Store the Ancestry info for a TAO\n\t * @param _id The ID of the TAO\n\t * @param _parentId The parent ID of this TAO\n\t * @param _childMinLogos The min required Logos to create a TAO\n\t * @return true on success\n\t */\n\tfunction initialize(address _id, address _parentId, uint256 _childMinLogos)\n\t\texternal\n\t\tisTAO(_id)\n\t\tisNameOrTAO(_parentId)\n\t\tonlyFactory returns (bool) {\n\t\trequire (!isExist(_id));\n\n\t\tAncestry storage _ancestry = ancestries[_id];\n\t\t_ancestry.taoId = _id;\n\t\t_ancestry.parentId = _parentId;\n\t\t_ancestry.childMinLogos = _childMinLogos;\n\t\treturn true;\n\t}\n\n\t/**\n\t * @dev Get Ancestry info given a TAO ID\n\t * @param _id The ID of the TAO\n\t * @return the parent ID of this TAO (could be a Name/TAO)\n\t * @return the min required Logos to create a child TAO\n\t * @return the total child TAOs count\n\t */\n\tfunction getAncestryById(address _id) external view returns (address, uint256, uint256) {\n\t\trequire (isExist(_id));\n\t\tAncestry memory _ancestry = ancestries[_id];\n\t\treturn (\n\t\t\t_ancestry.parentId,\n\t\t\t_ancestry.childMinLogos,\n\t\t\t_ancestry.totalChildren\n\t\t);\n\t}\n\n\t/**\n\t * @dev Set min required Logos to create a child from this TAO\n\t * @param _childMinLogos The min Logos to set\n\t * @return the nonce for this transaction\n\t */\n\tfunction updateChildMinLogos(address _id, uint256 _childMinLogos)\n\t\tpublic\n\t\tisTAO(_id)\n\t\tsenderIsName\n\t\tsenderNameNotCompromised\n\t\tonlyAdvocate(_id) {\n\t\trequire (isExist(_id));\n\n\t\tAncestry storage _ancestry = ancestries[_id];\n\t\t_ancestry.childMinLogos = _childMinLogos;\n\n\t\tuint256 _nonce = _taoFactory.incrementNonce(_id);\n\t\trequire (_nonce > 0);\n\t\temit UpdateChildMinLogos(_id, _ancestry.childMinLogos, _nonce);\n\t}\n\n\t/**\n\t * @dev Check if `_childId` is a child TAO of `_taoId`\n\t * @param _taoId The TAO ID to be checked\n\t * @param _childId The child TAO ID to check\n\t * @return true if yes. Otherwise return false.\n\t */\n\tfunction isChild(address _taoId, address _childId) external view returns (bool) {\n\t\trequire (isExist(_taoId) && isExist(_childId));\n\t\tAncestry storage _ancestry = ancestries[_taoId];\n\t\tAncestry memory _childAncestry = ancestries[_childId];\n\t\tuint256 _childInternalId = _ancestry.childInternalIdLookup[_childId];\n\t\treturn (\n\t\t\t_childInternalId > 0 &&\n\t\t\t_ancestry.children[_childInternalId].approved &&\n\t\t\t_ancestry.children[_childInternalId].connected &&\n\t\t\t_childAncestry.parentId == _taoId\n\t\t);\n\t}\n\n\t/**\n\t * @dev Check if `_childId` is a child TAO of `_taoId` that is not yet approved\n\t * @param _taoId The TAO ID to be checked\n\t * @param _childId The child TAO ID to check\n\t * @return true if yes. Otherwise return false.\n\t */\n\tfunction isNotApprovedChild(address _taoId, address _childId) public view returns (bool) {\n\t\trequire (isExist(_taoId) && isExist(_childId));\n\t\tAncestry storage _ancestry = ancestries[_taoId];\n\t\tuint256 _childInternalId = _ancestry.childInternalIdLookup[_childId];\n\t\treturn (\n\t\t\t_childInternalId > 0 &&\n\t\t\t!_ancestry.children[_childInternalId].approved &&\n\t\t\t!_ancestry.children[_childInternalId].connected\n\t\t);\n\t}\n\n\t/**\n\t * @dev Add child TAO\n\t * @param _taoId The TAO ID to be added to\n\t * @param _childId The ID to be added to as child TAO\n\t */\n\tfunction addChild(address _taoId, address _childId)\n\t\texternal\n\t\tisTAO(_taoId)\n\t\tisTAO(_childId)\n\t\tonlyFactory returns (bool) {\n\t\trequire (!this.isChild(_taoId, _childId));\n\t\tAncestry storage _ancestry = ancestries[_taoId];\n\t\trequire (_ancestry.childInternalIdLookup[_childId] == 0);\n\n\t\t_ancestry.childInternalId++;\n\t\t_ancestry.childInternalIdLookup[_childId] = _ancestry.childInternalId;\n\n\t\tChild storage _child = _ancestry.children[_ancestry.childInternalId];\n\t\t_child.taoId = _childId;\n\n\t\t// If _taoId's Advocate == _childId's Advocate, then the child is automatically approved and connected\n\t\t// Otherwise, child TAO needs parent TAO approval\n\t\taddress _taoAdvocate = _nameTAOPosition.getAdvocate(_taoId);\n\t\taddress _childAdvocate = _nameTAOPosition.getAdvocate(_childId);\n\t\temit AddChild(_taoId, _taoAdvocate, _childId, _childAdvocate, _child.approved, _child.connected);\n\n\t\tif (_taoAdvocate == _childAdvocate) {\n\t\t\t_approveChild(_taoId, _childId);\n\t\t}\n\t\treturn true;\n\t}\n\n\t/**\n\t * @dev Advocate of `_taoId` approves child `_childId`\n\t * @param _taoId The TAO ID to be checked\n\t * @param _childId The child TAO ID to be approved\n\t */\n\tfunction approveChild(address _taoId, address _childId)\n\t\tpublic\n\t\tisTAO(_taoId)\n\t\tisTAO(_childId)\n\t\tsenderIsName\n\t\tsenderNameNotCompromised\n\t\tonlyAdvocate(_taoId) {\n\t\trequire (isExist(_taoId) && isExist(_childId));\n\t\trequire (isNotApprovedChild(_taoId, _childId));\n\t\t_approveChild(_taoId, _childId);\n\t}\n\n\t/**\n\t * @dev Advocate of `_taoId` removes child `_childId`\n\t * @param _taoId The TAO ID to be checked\n\t * @param _childId The child TAO ID to be removed\n\t */\n\tfunction removeChild(address _taoId, address _childId)\n\t\tpublic\n\t\tisTAO(_taoId)\n\t\tisTAO(_childId)\n\t\tsenderIsName\n\t\tsenderNameNotCompromised\n\t\tonlyAdvocate(_taoId) {\n\t\trequire (this.isChild(_taoId, _childId));\n\n\t\tAncestry storage _ancestry = ancestries[_taoId];\n\t\t_ancestry.totalChildren--;\n\n\t\tChild storage _child = _ancestry.children[_ancestry.childInternalIdLookup[_childId]];\n\t\t_child.connected = false;\n\t\t_ancestry.childInternalIdLookup[_childId] = 0;\n\n\t\tAncestry storage _childAncestry = ancestries[_childId];\n\t\t_childAncestry.parentId = address(0);\n\n\t\tuint256 _nonce = _taoFactory.incrementNonce(_taoId);\n\t\trequire (_nonce > 0);\n\n\t\taddress _taoAdvocate = _nameTAOPosition.getAdvocate(_taoId);\n\t\taddress _childAdvocate = _nameTAOPosition.getAdvocate(_childId);\n\t\temit RemoveChild(_taoId, _taoAdvocate, _childId, _childAdvocate, _nonce);\n\t}\n\n\t/**\n\t * @dev Get list of child TAO IDs\n\t * @param _taoId The TAO ID to be checked\n\t * @param _from The starting index (start from 1)\n\t * @param _to The ending index, (max is childInternalId)\n\t * @return list of child TAO IDs\n\t */\n\tfunction getChildIds(address _taoId, uint256 _from, uint256 _to) public view returns (address[] memory) {\n\t\trequire (isExist(_taoId));\n\t\tAncestry storage _ancestry = ancestries[_taoId];\n\t\trequire (_from >= 1 && _to >= _from && _ancestry.childInternalId >= _to);\n\t\taddress[] memory _childIds = new address[](_to.sub(_from).add(1));\n\t\tfor (uint256 i = _from; i <= _to; i++) {\n\t\t\t_childIds[i.sub(_from)] = _ancestry.children[i].approved && _ancestry.children[i].connected ? _ancestry.children[i].taoId : address(0);\n\t\t}\n\t\treturn _childIds;\n\t}\n\n\t/***** INTERNAL METHOD *****/\n\t/**\n\t * @dev Actually approving the child TAO\n\t * @param _taoId The TAO ID to be checked\n\t * @param _childId The child TAO ID to be approved\n\t */\n\tfunction _approveChild(address _taoId, address _childId) internal {\n\t\tAncestry storage _ancestry = ancestries[_taoId];\n\t\tAncestry storage _childAncestry = ancestries[_childId];\n\t\tuint256 _childInternalId = _ancestry.childInternalIdLookup[_childId];\n\n\t\t_ancestry.totalChildren++;\n\n\t\tChild storage _child = _ancestry.children[_childInternalId];\n\t\t_child.approved = true;\n\t\t_child.connected = true;\n\n\t\t_childAncestry.parentId = _taoId;\n\n\t\tuint256 _nonce = _taoFactory.incrementNonce(_taoId);\n\t\trequire (_nonce > 0);\n\n\t\taddress _taoAdvocate = _nameTAOPosition.getAdvocate(_taoId);\n\t\taddress _childAdvocate = _nameTAOPosition.getAdvocate(_childId);\n\t\temit ApproveChild(_taoId, _taoAdvocate, _childId, _childAdvocate, _nonce);\n\t}\n}\n",
	"sourcePath": "/usr/local/ao-contracts/contracts/TAOAncestry.sol",
	"compiler": {
		"name": "solc",
		"version": "0.5.6+commit.b259423e.Emscripten.clang"
	},
	"schemaVersion": "3.0.2",
	"updatedAt": "2019-04-09T21:05:06.326Z",
	"devdoc": {
		"methods": {
			"addChild(address,address)": {
				"details": "Add child TAO",
				"params": {
					"_childId": "The ID to be added to as child TAO",
					"_taoId": "The TAO ID to be added to"
				}
			},
			"approveChild(address,address)": {
				"details": "Advocate of `_taoId` approves child `_childId`",
				"params": {
					"_childId": "The child TAO ID to be approved",
					"_taoId": "The TAO ID to be checked"
				}
			},
			"constructor": {
				"details": "Constructor function"
			},
			"getAncestryById(address)": {
				"details": "Get Ancestry info given a TAO ID",
				"params": {
					"_id": "The ID of the TAO"
				},
				"return": "the parent ID of this TAO (could be a Name/TAO)the min required Logos to create a child TAOthe total child TAOs count"
			},
			"getChildIds(address,uint256,uint256)": {
				"details": "Get list of child TAO IDs",
				"params": {
					"_from": "The starting index (start from 1)",
					"_taoId": "The TAO ID to be checked",
					"_to": "The ending index, (max is childInternalId)"
				},
				"return": "list of child TAO IDs"
			},
			"initialize(address,address,uint256)": {
				"details": "Store the Ancestry info for a TAO",
				"params": {
					"_childMinLogos": "The min required Logos to create a TAO",
					"_id": "The ID of the TAO",
					"_parentId": "The parent ID of this TAO"
				},
				"return": "true on success"
			},
			"isChild(address,address)": {
				"details": "Check if `_childId` is a child TAO of `_taoId`",
				"params": {
					"_childId": "The child TAO ID to check",
					"_taoId": "The TAO ID to be checked"
				},
				"return": "true if yes. Otherwise return false."
			},
			"isExist(address)": {
				"details": "Check whether or not a TAO ID exist in the list of ancestries",
				"params": {
					"_id": "The ID to be checked"
				},
				"return": "true if yes, false otherwise"
			},
			"isNotApprovedChild(address,address)": {
				"details": "Check if `_childId` is a child TAO of `_taoId` that is not yet approved",
				"params": {
					"_childId": "The child TAO ID to check",
					"_taoId": "The TAO ID to be checked"
				},
				"return": "true if yes. Otherwise return false."
			},
			"removeChild(address,address)": {
				"details": "Advocate of `_taoId` removes child `_childId`",
				"params": {
					"_childId": "The child TAO ID to be removed",
					"_taoId": "The TAO ID to be checked"
				}
			},
			"setNameAccountRecoveryAddress(address)": {
				"details": "The AO set the NameAccountRecovery Address",
				"params": {
					"_nameAccountRecoveryAddress": "The address of NameAccountRecovery"
				}
			},
			"setNameFactoryAddress(address)": {
				"details": "The AO sets NameFactory address",
				"params": {
					"_nameFactoryAddress": "The address of NameFactory"
				}
			},
			"setNameTAOPositionAddress(address)": {
				"details": "The AO sets NameTAOPosition address",
				"params": {
					"_nameTAOPositionAddress": "The address of NameTAOPosition"
				}
			},
			"setTAOFactoryAddress(address)": {
				"details": "The AO set the TAOFactory Address",
				"params": {
					"_taoFactoryAddress": "The address of TAOFactory"
				}
			},
			"setWhitelist(address,bool)": {
				"details": "Whitelist `_account` address to transact on behalf of others",
				"params": {
					"_account": "The address to whitelist",
					"_whitelist": "Either to whitelist or not"
				}
			},
			"transferOwnership(address)": {
				"details": "Transfer ownership of The AO to new address",
				"params": {
					"_theAO": "The new address to be transferred"
				}
			},
			"updateChildMinLogos(address,uint256)": {
				"details": "Set min required Logos to create a child from this TAO",
				"params": {
					"_childMinLogos": "The min Logos to set"
				},
				"return": "the nonce for this transaction"
			}
		},
		"title": "TAOAncestry"
	},
	"userdoc": {
		"methods": {}
	}
}