{
  "contractName": "TAOCurrency",
  "abi": [
    {
      "constant": true,
      "inputs": [],
      "name": "name",
      "outputs": [
        {
          "name": "",
          "type": "string"
        }
      ],
      "payable": false,
      "stateMutability": "view",
      "type": "function"
    },
    {
      "constant": true,
      "inputs": [],
      "name": "powerOfTen",
      "outputs": [
        {
          "name": "",
          "type": "uint256"
        }
      ],
      "payable": false,
      "stateMutability": "view",
      "type": "function"
    },
    {
      "constant": true,
      "inputs": [],
      "name": "totalSupply",
      "outputs": [
        {
          "name": "",
          "type": "uint256"
        }
      ],
      "payable": false,
      "stateMutability": "view",
      "type": "function"
    },
    {
      "constant": true,
      "inputs": [],
      "name": "decimals",
      "outputs": [
        {
          "name": "",
          "type": "uint8"
        }
      ],
      "payable": false,
      "stateMutability": "view",
      "type": "function"
    },
    {
      "constant": true,
      "inputs": [],
      "name": "nameTAOPositionAddress",
      "outputs": [
        {
          "name": "",
          "type": "address"
        }
      ],
      "payable": false,
      "stateMutability": "view",
      "type": "function"
    },
    {
      "constant": true,
      "inputs": [
        {
          "name": "",
          "type": "address"
        }
      ],
      "name": "balanceOf",
      "outputs": [
        {
          "name": "",
          "type": "uint256"
        }
      ],
      "payable": false,
      "stateMutability": "view",
      "type": "function"
    },
    {
      "constant": true,
      "inputs": [],
      "name": "symbol",
      "outputs": [
        {
          "name": "",
          "type": "string"
        }
      ],
      "payable": false,
      "stateMutability": "view",
      "type": "function"
    },
    {
      "constant": true,
      "inputs": [
        {
          "name": "",
          "type": "address"
        }
      ],
      "name": "whitelist",
      "outputs": [
        {
          "name": "",
          "type": "bool"
        }
      ],
      "payable": false,
      "stateMutability": "view",
      "type": "function"
    },
    {
      "constant": true,
      "inputs": [],
      "name": "theAO",
      "outputs": [
        {
          "name": "",
          "type": "address"
        }
      ],
      "payable": false,
      "stateMutability": "view",
      "type": "function"
    },
    {
      "inputs": [
        {
          "name": "_name",
          "type": "string"
        },
        {
          "name": "_symbol",
          "type": "string"
        },
        {
          "name": "_nameTAOPositionAddress",
          "type": "address"
        }
      ],
      "payable": false,
      "stateMutability": "nonpayable",
      "type": "constructor"
    },
    {
      "anonymous": false,
      "inputs": [
        {
          "indexed": true,
          "name": "from",
          "type": "address"
        },
        {
          "indexed": true,
          "name": "to",
          "type": "address"
        },
        {
          "indexed": false,
          "name": "value",
          "type": "uint256"
        }
      ],
      "name": "Transfer",
      "type": "event"
    },
    {
      "anonymous": false,
      "inputs": [
        {
          "indexed": true,
          "name": "from",
          "type": "address"
        },
        {
          "indexed": false,
          "name": "value",
          "type": "uint256"
        }
      ],
      "name": "Burn",
      "type": "event"
    },
    {
      "constant": false,
      "inputs": [
        {
          "name": "_theAO",
          "type": "address"
        }
      ],
      "name": "transferOwnership",
      "outputs": [],
      "payable": false,
      "stateMutability": "nonpayable",
      "type": "function"
    },
    {
      "constant": false,
      "inputs": [
        {
          "name": "_account",
          "type": "address"
        },
        {
          "name": "_whitelist",
          "type": "bool"
        }
      ],
      "name": "setWhitelist",
      "outputs": [],
      "payable": false,
      "stateMutability": "nonpayable",
      "type": "function"
    },
    {
      "constant": false,
      "inputs": [
        {
          "name": "_nameTAOPositionAddress",
          "type": "address"
        }
      ],
      "name": "setNameTAOPositionAddress",
      "outputs": [],
      "payable": false,
      "stateMutability": "nonpayable",
      "type": "function"
    },
    {
      "constant": false,
      "inputs": [
        {
          "name": "_from",
          "type": "address"
        },
        {
          "name": "_to",
          "type": "address"
        },
        {
          "name": "_value",
          "type": "uint256"
        }
      ],
      "name": "transferFrom",
      "outputs": [
        {
          "name": "",
          "type": "bool"
        }
      ],
      "payable": false,
      "stateMutability": "nonpayable",
      "type": "function"
    },
    {
      "constant": false,
      "inputs": [
        {
          "name": "target",
          "type": "address"
        },
        {
          "name": "mintedAmount",
          "type": "uint256"
        }
      ],
      "name": "mint",
      "outputs": [
        {
          "name": "",
          "type": "bool"
        }
      ],
      "payable": false,
      "stateMutability": "nonpayable",
      "type": "function"
    },
    {
      "constant": false,
      "inputs": [
        {
          "name": "_from",
          "type": "address"
        },
        {
          "name": "_value",
          "type": "uint256"
        }
      ],
      "name": "whitelistBurnFrom",
      "outputs": [
        {
          "name": "success",
          "type": "bool"
        }
      ],
      "payable": false,
      "stateMutability": "nonpayable",
      "type": "function"
    }
  ],
  "bytecode": "0x60806040523480156200001157600080fd5b50604051620012d0380380620012d0833981018060405260608110156200003757600080fd5b8101908080516401000000008111156200005057600080fd5b820160208101848111156200006457600080fd5b81516401000000008111828201871017156200007f57600080fd5b505092919060200180516401000000008111156200009c57600080fd5b82016020810184811115620000b057600080fd5b8151640100000000811182820187101715620000cb57600080fd5b5050602091820151600080546001600160a01b0319163317905585519194509250620000fe916003919086019062000236565b5081516200011490600490602085019062000236565b5060006006556005805460ff1916905562000136816200013f602090811b901c565b505050620002db565b600054600154604080517ff66afcac0000000000000000000000000000000000000000000000000000000081523360048201526001600160a01b0393841660248201529290911660448301525173__AOLibrary_____________________________9163f66afcac916064808301926020929190829003018186803b158015620001c857600080fd5b505af4158015620001dd573d6000803e3d6000fd5b505050506040513d6020811015620001f457600080fd5b50516200020057600080fd5b6001600160a01b0381166200021457600080fd5b600180546001600160a01b0319166001600160a01b0392909216919091179055565b828054600181600116156101000203166002900490600052602060002090601f016020900481019282601f106200027957805160ff1916838001178555620002a9565b82800160010185558215620002a9579182015b82811115620002a95782518255916020019190600101906200028c565b50620002b7929150620002bb565b5090565b620002d891905b80821115620002b75760008155600101620002c2565b90565b610fe580620002eb6000396000f3fe608060405234801561001057600080fd5b50600436106100f55760003560e01c806353d6fd59116100975780639b19251a116100665780639b19251a146102d5578063a9b6b38e146102fb578063b1e19d4514610303578063f2fde38b1461032f576100f5565b806353d6fd59146102515780635cfaf2ef1461028157806370a08231146102a757806395d89b41146102cd576100f5565b806323b872dd116100d357806323b872dd14610199578063313ce567146101e357806340c10f19146102015780634ef033f01461022d576100f5565b806306fdde03146100fa5780630aa245461461017757806318160ddd14610191575b600080fd5b610102610355565b6040805160208082528351818301528351919283929083019185019080838360005b8381101561013c578181015183820152602001610124565b50505050905090810190601f1680156101695780820380516001836020036101000a031916815260200191505b509250505060405180910390f35b61017f6103e3565b60408051918252519081900360200190f35b61017f6103e9565b6101cf600480360360608110156101af57600080fd5b506001600160a01b038135811691602081013590911690604001356103ef565b604080519115158252519081900360200190f35b6101eb610675565b6040805160ff9092168252519081900360200190f35b6101cf6004803603604081101561021757600080fd5b506001600160a01b03813516906020013561067e565b6102356107da565b604080516001600160a01b039092168252519081900360200190f35b61027f6004803603604081101561026757600080fd5b506001600160a01b03813516906020013515156107e9565b005b61027f6004803603602081101561029757600080fd5b50356001600160a01b03166108ce565b61017f600480360360208110156102bd57600080fd5b50356001600160a01b03166109aa565b6101026109bc565b6101cf600480360360208110156102eb57600080fd5b50356001600160a01b0316610a17565b610235610a2c565b6101cf6004803603604081101561031957600080fd5b506001600160a01b038135169060200135610a3b565b61027f6004803603602081101561034557600080fd5b50356001600160a01b0316610c49565b6003805460408051602060026001851615610100026000190190941693909304601f810184900484028201840190925281815292918301828280156103db5780601f106103b0576101008083540402835291602001916103db565b820191906000526020600020905b8154815290600101906020018083116103be57829003601f168201915b505050505081565b60065481565b60075481565b3360009081526002602052604081205460ff16151560011461041057600080fd5b8373__AOLibrary_____________________________632d706a34826040518263ffffffff1660e01b815260040180826001600160a01b03166001600160a01b0316815260200191505060206040518083038186803b15801561047257600080fd5b505af4158015610486573d6000803e3d6000fd5b505050506040513d602081101561049c57600080fd5b50518061052e575060408051600160e21b630bf295050281526001600160a01b0383166004820152905173__AOLibrary_____________________________91632fca5414916024808301926020929190829003018186803b15801561050157600080fd5b505af4158015610515573d6000803e3d6000fd5b505050506040513d602081101561052b57600080fd5b50515b61053757600080fd5b8373__AOLibrary_____________________________632d706a34826040518263ffffffff1660e01b815260040180826001600160a01b03166001600160a01b0316815260200191505060206040518083038186803b15801561059957600080fd5b505af41580156105ad573d6000803e3d6000fd5b505050506040513d60208110156105c357600080fd5b505180610655575060408051600160e21b630bf295050281526001600160a01b0383166004820152905173__AOLibrary_____________________________91632fca5414916024808301926020929190829003018186803b15801561062857600080fd5b505af415801561063c573d6000803e3d6000fd5b505050506040513d602081101561065257600080fd5b50515b61065e57600080fd5b610669868686610d25565b50600195945050505050565b60055460ff1681565b3360009081526002602052604081205460ff16151560011461069f57600080fd5b8273__AOLibrary_____________________________632d706a34826040518263ffffffff1660e01b815260040180826001600160a01b03166001600160a01b0316815260200191505060206040518083038186803b15801561070157600080fd5b505af4158015610715573d6000803e3d6000fd5b505050506040513d602081101561072b57600080fd5b5051806107bd575060408051600160e21b630bf295050281526001600160a01b0383166004820152905173__AOLibrary_____________________________91632fca5414916024808301926020929190829003018186803b15801561079057600080fd5b505af41580156107a4573d6000803e3d6000fd5b505050506040513d60208110156107ba57600080fd5b50515b6107c657600080fd5b6107d08484610ec0565b5060019392505050565b6001546001600160a01b031681565b60005460015460408051600160e21b633d9abf2b0281523360048201526001600160a01b0393841660248201529290911660448301525173__AOLibrary_____________________________9163f66afcac916064808301926020929190829003018186803b15801561085b57600080fd5b505af415801561086f573d6000803e3d6000fd5b505050506040513d602081101561088557600080fd5b505161089057600080fd5b6001600160a01b0382166108a357600080fd5b6001600160a01b03919091166000908152600260205260409020805460ff1916911515919091179055565b60005460015460408051600160e21b633d9abf2b0281523360048201526001600160a01b0393841660248201529290911660448301525173__AOLibrary_____________________________9163f66afcac916064808301926020929190829003018186803b15801561094057600080fd5b505af4158015610954573d6000803e3d6000fd5b505050506040513d602081101561096a57600080fd5b505161097557600080fd5b6001600160a01b03811661098857600080fd5b600180546001600160a01b0319166001600160a01b0392909216919091179055565b60086020526000908152604090205481565b6004805460408051602060026001851615610100026000190190941693909304601f810184900484028201840190925281815292918301828280156103db5780601f106103b0576101008083540402835291602001916103db565b60026020526000908152604090205460ff1681565b6000546001600160a01b031681565b3360009081526002602052604081205460ff161515600114610a5c57600080fd5b8273__AOLibrary_____________________________632d706a34826040518263ffffffff1660e01b815260040180826001600160a01b03166001600160a01b0316815260200191505060206040518083038186803b158015610abe57600080fd5b505af4158015610ad2573d6000803e3d6000fd5b505050506040513d6020811015610ae857600080fd5b505180610b7a575060408051600160e21b630bf295050281526001600160a01b0383166004820152905173__AOLibrary_____________________________91632fca5414916024808301926020929190829003018186803b158015610b4d57600080fd5b505af4158015610b61573d6000803e3d6000fd5b505050506040513d6020811015610b7757600080fd5b50515b610b8357600080fd5b6001600160a01b038416600090815260086020526040902054831115610ba857600080fd5b6001600160a01b038416600090815260086020526040902054610bd1908463ffffffff610f9416565b6001600160a01b038516600090815260086020526040902055600754610bfd908463ffffffff610f9416565b6007556040805184815290516001600160a01b038616917fcc16f5dbb4873280815c1ee09dbd06736cffcc184412cf7a71a0fdb75d397ca5919081900360200190a25060019392505050565b60005460015460408051600160e21b633d9abf2b0281523360048201526001600160a01b0393841660248201529290911660448301525173__AOLibrary_____________________________9163f66afcac916064808301926020929190829003018186803b158015610cbb57600080fd5b505af4158015610ccf573d6000803e3d6000fd5b505050506040513d6020811015610ce557600080fd5b5051610cf057600080fd5b6001600160a01b038116610d0357600080fd5b600080546001600160a01b0319166001600160a01b0392909216919091179055565b6001600160a01b038216610d3857600080fd5b6001600160a01b038316600090815260086020526040902054811115610d5d57600080fd5b6001600160a01b038216600090815260086020526040902054610d86818363ffffffff610fa616565b1015610d9157600080fd5b6001600160a01b038083166000908152600860205260408082205492861682528120549091610dc6919063ffffffff610fa616565b6001600160a01b038516600090815260086020526040902054909150610df2908363ffffffff610f9416565b6001600160a01b038086166000908152600860205260408082209390935590851681522054610e27908363ffffffff610fa616565b6001600160a01b0380851660008181526008602090815260409182902094909455805186815290519193928816927fddf252ad1be2c89b69c2b068fc378daa952ba7f163c4a11628f55a4df523b3ef92918290030190a36001600160a01b038084166000908152600860205260408082205492871682529020548291610eb3919063ffffffff610fa616565b14610eba57fe5b50505050565b6001600160a01b038216600090815260086020526040902054610ee9908263ffffffff610fa616565b6001600160a01b038316600090815260086020526040902055600754610f15908263ffffffff610fa616565b60075560408051828152905130916000917fddf252ad1be2c89b69c2b068fc378daa952ba7f163c4a11628f55a4df523b3ef9181900360200190a36040805182815290516001600160a01b0384169130917fddf252ad1be2c89b69c2b068fc378daa952ba7f163c4a11628f55a4df523b3ef9181900360200190a35050565b600082821115610fa057fe5b50900390565b81810182811015610fb357fe5b9291505056fea165627a7a7230582043ef557b71dd6adaf866a3486aa24568e62c9697d6794ee149ff5eb70669cc640029",
  "source": "pragma solidity >=0.5.4 <0.6.0;\n\nimport './SafeMath.sol';\nimport './AOLibrary.sol';\nimport './TheAO.sol';\n\n/**\n * @title TAOCurrency\n */\ncontract TAOCurrency is TheAO {\n\tusing SafeMath for uint256;\n\n\t// Public variables of the contract\n\tstring public name;\n\tstring public symbol;\n\tuint8 public decimals;\n\n\t// To differentiate denomination of TAO Currency\n\tuint256 public powerOfTen;\n\n\tuint256 public totalSupply;\n\n\t// This creates an array with all balances\n\t// address is the address of nameId, not the eth public address\n\tmapping (address => uint256) public balanceOf;\n\n\t// This generates a public event on the blockchain that will notify clients\n\t// address is the address of TAO/Name Id, not eth public address\n\tevent Transfer(address indexed from, address indexed to, uint256 value);\n\n\t// This notifies clients about the amount burnt\n\t// address is the address of TAO/Name Id, not eth public address\n\tevent Burn(address indexed from, uint256 value);\n\n\t/**\n\t * Constructor function\n\t *\n\t * Initializes contract with initial supply TAOCurrency to the creator of the contract\n\t */\n\tconstructor (string memory _name, string memory _symbol, address _nameTAOPositionAddress) public {\n\t\tname = _name;\t\t// Set the name for display purposes\n\t\tsymbol = _symbol;\t// Set the symbol for display purposes\n\n\t\tpowerOfTen = 0;\n\t\tdecimals = 0;\n\n\t\tsetNameTAOPositionAddress(_nameTAOPositionAddress);\n\t}\n\n\t/**\n\t * @dev Checks if the calling contract address is The AO\n\t *\t\tOR\n\t *\t\tIf The AO is set to a Name/TAO, then check if calling address is the Advocate\n\t */\n\tmodifier onlyTheAO {\n\t\trequire (AOLibrary.isTheAO(msg.sender, theAO, nameTAOPositionAddress));\n\t\t_;\n\t}\n\n\t/**\n\t * @dev Check if `_id` is a Name or a TAO\n\t */\n\tmodifier isNameOrTAO(address _id) {\n\t\trequire (AOLibrary.isName(_id) || AOLibrary.isTAO(_id));\n\t\t_;\n\t}\n\n\t/***** The AO ONLY METHODS *****/\n\t/**\n\t * @dev Transfer ownership of The AO to new address\n\t * @param _theAO The new address to be transferred\n\t */\n\tfunction transferOwnership(address _theAO) public onlyTheAO {\n\t\trequire (_theAO != address(0));\n\t\ttheAO = _theAO;\n\t}\n\n\t/**\n\t * @dev Whitelist `_account` address to transact on behalf of others\n\t * @param _account The address to whitelist\n\t * @param _whitelist Either to whitelist or not\n\t */\n\tfunction setWhitelist(address _account, bool _whitelist) public onlyTheAO {\n\t\trequire (_account != address(0));\n\t\twhitelist[_account] = _whitelist;\n\t}\n\n\t/**\n\t * @dev The AO set the NameTAOPosition Address\n\t * @param _nameTAOPositionAddress The address of NameTAOPosition\n\t */\n\tfunction setNameTAOPositionAddress(address _nameTAOPositionAddress) public onlyTheAO {\n\t\trequire (_nameTAOPositionAddress != address(0));\n\t\tnameTAOPositionAddress = _nameTAOPositionAddress;\n\t}\n\n\t/***** PUBLIC METHODS *****/\n\t/**\n\t * @dev transfer TAOCurrency from other address\n\t *\n\t * Send `_value` TAOCurrency to `_to` in behalf of `_from`\n\t *\n\t * @param _from The address of the sender\n\t * @param _to The address of the recipient\n\t * @param _value the amount to send\n\t */\n\tfunction transferFrom(address _from, address _to, uint256 _value) public inWhitelist isNameOrTAO(_from) isNameOrTAO(_to) returns (bool) {\n\t\t_transfer(_from, _to, _value);\n\t\treturn true;\n\t}\n\n\t/**\n\t * @dev Create `mintedAmount` TAOCurrency and send it to `target`\n\t * @param target Address to receive TAOCurrency\n\t * @param mintedAmount The amount of TAOCurrency it will receive\n\t * @return true on success\n\t */\n\tfunction mint(address target, uint256 mintedAmount) public inWhitelist isNameOrTAO(target) returns (bool) {\n\t\t_mint(target, mintedAmount);\n\t\treturn true;\n\t}\n\n\t/**\n\t *\n\t * @dev Whitelisted address remove `_value` TAOCurrency from the system irreversibly on behalf of `_from`.\n\t *\n\t * @param _from the address of the sender\n\t * @param _value the amount of money to burn\n\t */\n\tfunction whitelistBurnFrom(address _from, uint256 _value) public inWhitelist isNameOrTAO(_from) returns (bool success) {\n\t\trequire(balanceOf[_from] >= _value);                // Check if the targeted balance is enough\n\t\tbalanceOf[_from] = balanceOf[_from].sub(_value);    // Subtract from the targeted balance\n\t\ttotalSupply = totalSupply.sub(_value);              // Update totalSupply\n\t\temit Burn(_from, _value);\n\t\treturn true;\n\t}\n\n\t/***** INTERNAL METHODS *****/\n\t/**\n\t * @dev Send `_value` TAOCurrency from `_from` to `_to`\n\t * @param _from The address of sender\n\t * @param _to The address of the recipient\n\t * @param _value The amount to send\n\t */\n\tfunction _transfer(address _from, address _to, uint256 _value) internal {\n\t\trequire (_to != address(0));\t\t\t\t\t\t\t// Prevent transfer to 0x0 address. Use burn() instead\n\t\trequire (balanceOf[_from] >= _value);\t\t\t\t\t// Check if the sender has enough\n\t\trequire (balanceOf[_to].add(_value) >= balanceOf[_to]); // Check for overflows\n\t\tuint256 previousBalances = balanceOf[_from].add(balanceOf[_to]);\n\t\tbalanceOf[_from] = balanceOf[_from].sub(_value);        // Subtract from the sender\n\t\tbalanceOf[_to] = balanceOf[_to].add(_value);            // Add the same to the recipient\n\t\temit Transfer(_from, _to, _value);\n\t\tassert(balanceOf[_from].add(balanceOf[_to]) == previousBalances);\n\t}\n\n\t/**\n\t * @dev Create `mintedAmount` TAOCurrency and send it to `target`\n\t * @param target Address to receive TAOCurrency\n\t * @param mintedAmount The amount of TAOCurrency it will receive\n\t */\n\tfunction _mint(address target, uint256 mintedAmount) internal {\n\t\tbalanceOf[target] = balanceOf[target].add(mintedAmount);\n\t\ttotalSupply = totalSupply.add(mintedAmount);\n\t\temit Transfer(address(0), address(this), mintedAmount);\n\t\temit Transfer(address(this), target, mintedAmount);\n\t}\n}\n",
  "sourcePath": "/usr/local/ao-contracts/contracts/TAOCurrency.sol",
  "compiler": {
    "name": "solc",
    "version": "0.5.6+commit.b259423e.Emscripten.clang"
  },
  "schemaVersion": "3.0.2",
  "updatedAt": "2019-03-28T22:28:46.969Z",
  "devdoc": {
    "methods": {
      "mint(address,uint256)": {
        "details": "Create `mintedAmount` TAOCurrency and send it to `target`",
        "params": {
          "mintedAmount": "The amount of TAOCurrency it will receive",
          "target": "Address to receive TAOCurrency"
        },
        "return": "true on success"
      },
      "setNameTAOPositionAddress(address)": {
        "details": "The AO set the NameTAOPosition Address",
        "params": {
          "_nameTAOPositionAddress": "The address of NameTAOPosition"
        }
      },
      "setWhitelist(address,bool)": {
        "details": "Whitelist `_account` address to transact on behalf of others",
        "params": {
          "_account": "The address to whitelist",
          "_whitelist": "Either to whitelist or not"
        }
      },
      "transferFrom(address,address,uint256)": {
        "details": "transfer TAOCurrency from other address\t * Send `_value` TAOCurrency to `_to` in behalf of `_from`",
        "params": {
          "_from": "The address of the sender",
          "_to": "The address of the recipient",
          "_value": "the amount to send"
        }
      },
      "transferOwnership(address)": {
        "details": "Transfer ownership of The AO to new address",
        "params": {
          "_theAO": "The new address to be transferred"
        }
      },
      "whitelistBurnFrom(address,uint256)": {
        "details": "Whitelisted address remove `_value` TAOCurrency from the system irreversibly on behalf of `_from`.",
        "params": {
          "_from": "the address of the sender",
          "_value": "the amount of money to burn"
        }
      }
    },
    "title": "TAOCurrency"
  },
  "userdoc": {
    "methods": {
      "constructor": "Constructor function\t * Initializes contract with initial supply TAOCurrency to the creator of the contract"
    }
  }
}