{
	"contractName": "TAOController",
	"abi": [
		{
			"constant": true,
			"inputs": [],
			"name": "positionAddress",
			"outputs": [
				{
					"name": "",
					"type": "address"
				}
			],
			"payable": false,
			"stateMutability": "view",
			"type": "function"
		},
		{
			"constant": true,
			"inputs": [],
			"name": "nameFactoryAddress",
			"outputs": [
				{
					"name": "",
					"type": "address"
				}
			],
			"payable": false,
			"stateMutability": "view",
			"type": "function"
		},
		{
			"inputs": [
				{
					"name": "_nameFactoryAddress",
					"type": "address"
				},
				{
					"name": "_positionAddress",
					"type": "address"
				}
			],
			"payable": false,
			"stateMutability": "nonpayable",
			"type": "constructor"
		}
	],
	"bytecode": "0x608060405234801561001057600080fd5b5060405160408061018583398101604052805160209091015160008054600160a060020a03938416600160a060020a0319918216179182905560018054938516938216939093179283905560028054821692851692909217909155600380549091169190921617905560fe806100876000396000f30060806040526004361060485763ffffffff7c0100000000000000000000000000000000000000000000000000000000600035041663636a8bd78114604d578063bc406206146088575b600080fd5b348015605857600080fd5b50605f609a565b6040805173ffffffffffffffffffffffffffffffffffffffff9092168252519081900360200190f35b348015609357600080fd5b50605f60b6565b60015473ffffffffffffffffffffffffffffffffffffffff1681565b60005473ffffffffffffffffffffffffffffffffffffffff16815600a165627a7a72305820594f846eddec0624e86e94330350784850c1908b2f5d27eb1fa7cfe21d23ba8b0029",
	"source": "pragma solidity ^0.4.24;\n\nimport './AOLibrary.sol';\nimport './TAO.sol';\nimport './NameFactory.sol';\nimport './Position.sol';\nimport './SafeMath.sol';\n\n/**\n * @title TAOController\n */\ncontract TAOController {\n\tusing SafeMath for uint256;\n\n\taddress public nameFactoryAddress;\n\taddress public positionAddress;\n\tNameFactory internal _nameFactory;\n\tPosition internal _position;\n\n\t/**\n\t * @dev Constructor function\n\t */\n\tconstructor(address _nameFactoryAddress, address _positionAddress) public {\n\t\tnameFactoryAddress = _nameFactoryAddress;\n\t\tpositionAddress = _positionAddress;\n\n\t\t_nameFactory = NameFactory(nameFactoryAddress);\n\t\t_position = Position(positionAddress);\n\t}\n\n\t/**\n\t * @dev Check if `_taoId` is a TAO\n\t */\n\tmodifier isTAO(address _taoId) {\n\t\trequire (AOLibrary.isTAO(_taoId));\n\t\t_;\n\t}\n\n\t/**\n\t * @dev Check if `_nameId` is a Name\n\t */\n\tmodifier isName(address _nameId) {\n\t\trequire (AOLibrary.isName(_nameId));\n\t\t_;\n\t}\n\n\t/**\n\t * @dev Check if msg.sender is the current advocate of a `_taoId`\n\t */\n\tmodifier onlyAdvocateOfTAO(address _taoId) {\n\t\trequire (AOLibrary.isAdvocateOfTAO(msg.sender, _taoId));\n\t\t_;\n\t}\n\n\t/**\n\t * @dev Check is msg.sender address is a Name\n\t */\n\t modifier senderIsName() {\n\t\trequire (_nameFactory.ethAddressToNameId(msg.sender) != address(0));\n\t\t_;\n\t }\n}\n",
	"sourcePath": "/Users/neilharlow/development/ao-contracts/contracts/TAOController.sol",
	"compiler": {
		"name": "solc",
		"version": "0.4.24+commit.e67f0147.Emscripten.clang"
	},
	"schemaVersion": "2.0.1",
	"updatedAt": "2019-01-07T19:52:25.503Z"
}