{
	"contractName": "TAOController",
	"abi": [
		{
			"constant": true,
			"inputs": [],
			"name": "nameTAOPositionAddress",
			"outputs": [
				{
					"name": "",
					"type": "address"
				}
			],
			"payable": false,
			"stateMutability": "view",
			"type": "function"
		},
		{
			"constant": true,
			"inputs": [
				{
					"name": "",
					"type": "address"
				}
			],
			"name": "whitelist",
			"outputs": [
				{
					"name": "",
					"type": "bool"
				}
			],
			"payable": false,
			"stateMutability": "view",
			"type": "function"
		},
		{
			"constant": true,
			"inputs": [],
			"name": "nameAccountRecoveryAddress",
			"outputs": [
				{
					"name": "",
					"type": "address"
				}
			],
			"payable": false,
			"stateMutability": "view",
			"type": "function"
		},
		{
			"constant": true,
			"inputs": [],
			"name": "theAO",
			"outputs": [
				{
					"name": "",
					"type": "address"
				}
			],
			"payable": false,
			"stateMutability": "view",
			"type": "function"
		},
		{
			"constant": true,
			"inputs": [],
			"name": "nameFactoryAddress",
			"outputs": [
				{
					"name": "",
					"type": "address"
				}
			],
			"payable": false,
			"stateMutability": "view",
			"type": "function"
		},
		{
			"inputs": [
				{
					"name": "_nameFactoryAddress",
					"type": "address"
				}
			],
			"payable": false,
			"stateMutability": "nonpayable",
			"type": "constructor"
		},
		{
			"constant": false,
			"inputs": [
				{
					"name": "_theAO",
					"type": "address"
				}
			],
			"name": "transferOwnership",
			"outputs": [],
			"payable": false,
			"stateMutability": "nonpayable",
			"type": "function"
		},
		{
			"constant": false,
			"inputs": [
				{
					"name": "_account",
					"type": "address"
				},
				{
					"name": "_whitelist",
					"type": "bool"
				}
			],
			"name": "setWhitelist",
			"outputs": [],
			"payable": false,
			"stateMutability": "nonpayable",
			"type": "function"
		},
		{
			"constant": false,
			"inputs": [
				{
					"name": "_nameFactoryAddress",
					"type": "address"
				}
			],
			"name": "setNameFactoryAddress",
			"outputs": [],
			"payable": false,
			"stateMutability": "nonpayable",
			"type": "function"
		},
		{
			"constant": false,
			"inputs": [
				{
					"name": "_nameTAOPositionAddress",
					"type": "address"
				}
			],
			"name": "setNameTAOPositionAddress",
			"outputs": [],
			"payable": false,
			"stateMutability": "nonpayable",
			"type": "function"
		},
		{
			"constant": false,
			"inputs": [
				{
					"name": "_nameAccountRecoveryAddress",
					"type": "address"
				}
			],
			"name": "setNameAccountRecoveryAddress",
			"outputs": [],
			"payable": false,
			"stateMutability": "nonpayable",
			"type": "function"
		}
	],
	"bytecode": "0x608060405234801561001057600080fd5b506040516020806108a48339810180604052602081101561003057600080fd5b505160008054600160a060020a031916331790556100568164010000000061005c810204565b5061015c565b600054600154604080517ff66afcac000000000000000000000000000000000000000000000000000000008152336004820152600160a060020a0393841660248201529290911660448301525173__AOLibrary_____________________________9163f66afcac916064808301926020929190829003018186803b1580156100e457600080fd5b505af41580156100f8573d6000803e3d6000fd5b505050506040513d602081101561010e57600080fd5b5051151561011b57600080fd5b600160a060020a038116151561013057600080fd5b60038054600160a060020a03909216600160a060020a0319928316811790915560058054909216179055565b6107398061016b6000396000f3fe608060405234801561001057600080fd5b50600436106100bb576000357c0100000000000000000000000000000000000000000000000000000000900480639b19251a116100835780639b19251a14610186578063a4e5fad2146101c0578063a9b6b38e146101c8578063bc406206146101d0578063f2fde38b146101d8576100bb565b80631dfde2bd146100c05780634ef033f0146100e857806353d6fd591461010c5780635cfaf2ef1461013a5780638c92436114610160575b600080fd5b6100e6600480360360208110156100d657600080fd5b5035600160a060020a03166101fe565b005b6100f06102f8565b60408051600160a060020a039092168252519081900360200190f35b6100e66004803603604081101561012257600080fd5b50600160a060020a0381351690602001351515610307565b6100e66004803603602081101561015057600080fd5b5035600160a060020a03166103f0565b6100e66004803603602081101561017657600080fd5b5035600160a060020a03166104e7565b6101ac6004803603602081101561019c57600080fd5b5035600160a060020a03166105de565b604080519115158252519081900360200190f35b6100f06105f3565b6100f0610602565b6100f0610611565b6100e6600480360360208110156101ee57600080fd5b5035600160a060020a0316610620565b6000546001546040805160e260020a633d9abf2b028152336004820152600160a060020a0393841660248201529290911660448301525173__AOLibrary_____________________________9163f66afcac916064808301926020929190829003018186803b15801561027057600080fd5b505af4158015610284573d6000803e3d6000fd5b505050506040513d602081101561029a57600080fd5b505115156102a757600080fd5b600160a060020a03811615156102bc57600080fd5b6004805473ffffffffffffffffffffffffffffffffffffffff19908116600160a060020a03938416179182905560078054929093169116179055565b600154600160a060020a031681565b6000546001546040805160e260020a633d9abf2b028152336004820152600160a060020a0393841660248201529290911660448301525173__AOLibrary_____________________________9163f66afcac916064808301926020929190829003018186803b15801561037957600080fd5b505af415801561038d573d6000803e3d6000fd5b505050506040513d60208110156103a357600080fd5b505115156103b057600080fd5b600160a060020a03821615156103c557600080fd5b600160a060020a03919091166000908152600260205260409020805460ff1916911515919091179055565b6000546001546040805160e260020a633d9abf2b028152336004820152600160a060020a0393841660248201529290911660448301525173__AOLibrary_____________________________9163f66afcac916064808301926020929190829003018186803b15801561046257600080fd5b505af4158015610476573d6000803e3d6000fd5b505050506040513d602081101561048c57600080fd5b5051151561049957600080fd5b600160a060020a03811615156104ae57600080fd5b60018054600160a060020a0390921673ffffffffffffffffffffffffffffffffffffffff19928316811790915560068054909216179055565b6000546001546040805160e260020a633d9abf2b028152336004820152600160a060020a0393841660248201529290911660448301525173__AOLibrary_____________________________9163f66afcac916064808301926020929190829003018186803b15801561055957600080fd5b505af415801561056d573d6000803e3d6000fd5b505050506040513d602081101561058357600080fd5b5051151561059057600080fd5b600160a060020a03811615156105a557600080fd5b60038054600160a060020a0390921673ffffffffffffffffffffffffffffffffffffffff19928316811790915560058054909216179055565b60026020526000908152604090205460ff1681565b600454600160a060020a031681565b600054600160a060020a031681565b600354600160a060020a031681565b6000546001546040805160e260020a633d9abf2b028152336004820152600160a060020a0393841660248201529290911660448301525173__AOLibrary_____________________________9163f66afcac916064808301926020929190829003018186803b15801561069257600080fd5b505af41580156106a6573d6000803e3d6000fd5b505050506040513d60208110156106bc57600080fd5b505115156106c957600080fd5b600160a060020a03811615156106de57600080fd5b6000805473ffffffffffffffffffffffffffffffffffffffff1916600160a060020a039290921691909117905556fea165627a7a72305820e2bff4ae7770dc40a372e21a491dcaf926465a82b80dbf02ff19659b01d26cac0029",
	"source": "pragma solidity >=0.5.4 <0.6.0;\n\nimport './TheAO.sol';\nimport './AOLibrary.sol';\nimport './INameFactory.sol';\nimport './INameTAOPosition.sol';\nimport './INameAccountRecovery.sol';\n\n/**\n * @title TAOController\n */\ncontract TAOController is TheAO {\n\taddress public nameFactoryAddress;\n\taddress public nameAccountRecoveryAddress;\n\n\tINameFactory internal _nameFactory;\n\tINameTAOPosition internal _nameTAOPosition;\n\tINameAccountRecovery internal _nameAccountRecovery;\n\n\t/**\n\t * @dev Constructor function\n\t */\n\tconstructor(address _nameFactoryAddress) public {\n\t\tsetNameFactoryAddress(_nameFactoryAddress);\n\t}\n\n\t/**\n\t * @dev Checks if the calling contract address is The AO\n\t *\t\tOR\n\t *\t\tIf The AO is set to a Name/TAO, then check if calling address is the Advocate\n\t */\n\tmodifier onlyTheAO {\n\t\trequire (AOLibrary.isTheAO(msg.sender, theAO, nameTAOPositionAddress));\n\t\t_;\n\t}\n\n\t/**\n\t * @dev Check if `_taoId` is a TAO\n\t */\n\tmodifier isTAO(address _taoId) {\n\t\trequire (AOLibrary.isTAO(_taoId));\n\t\t_;\n\t}\n\n\t/**\n\t * @dev Check if `_nameId` is a Name\n\t */\n\tmodifier isName(address _nameId) {\n\t\trequire (AOLibrary.isName(_nameId));\n\t\t_;\n\t}\n\n\t/**\n\t * @dev Check if `_id` is a Name or a TAO\n\t */\n\tmodifier isNameOrTAO(address _id) {\n\t\trequire (AOLibrary.isName(_id) || AOLibrary.isTAO(_id));\n\t\t_;\n\t}\n\n\t/**\n\t * @dev Check is msg.sender address is a Name\n\t */\n\t modifier senderIsName() {\n\t\trequire (_nameFactory.ethAddressToNameId(msg.sender) != address(0));\n\t\t_;\n\t }\n\n\t/**\n\t * @dev Check if msg.sender is the current advocate of TAO ID\n\t */\n\tmodifier onlyAdvocate(address _id) {\n\t\trequire (_nameTAOPosition.senderIsAdvocate(msg.sender, _id));\n\t\t_;\n\t}\n\n\t/**\n\t * @dev Only allowed if sender's Name is not compromised\n\t */\n\tmodifier senderNameNotCompromised() {\n\t\trequire (!_nameAccountRecovery.isCompromised(_nameFactory.ethAddressToNameId(msg.sender)));\n\t\t_;\n\t}\n\n\t/***** The AO ONLY METHODS *****/\n\t/**\n\t * @dev Transfer ownership of The AO to new address\n\t * @param _theAO The new address to be transferred\n\t */\n\tfunction transferOwnership(address _theAO) public onlyTheAO {\n\t\trequire (_theAO != address(0));\n\t\ttheAO = _theAO;\n\t}\n\n\t/**\n\t * @dev Whitelist `_account` address to transact on behalf of others\n\t * @param _account The address to whitelist\n\t * @param _whitelist Either to whitelist or not\n\t */\n\tfunction setWhitelist(address _account, bool _whitelist) public onlyTheAO {\n\t\trequire (_account != address(0));\n\t\twhitelist[_account] = _whitelist;\n\t}\n\n\t/**\n\t * @dev The AO sets NameFactory address\n\t * @param _nameFactoryAddress The address of NameFactory\n\t */\n\tfunction setNameFactoryAddress(address _nameFactoryAddress) public onlyTheAO {\n\t\trequire (_nameFactoryAddress != address(0));\n\t\tnameFactoryAddress = _nameFactoryAddress;\n\t\t_nameFactory = INameFactory(_nameFactoryAddress);\n\t}\n\n\t/**\n\t * @dev The AO sets NameTAOPosition address\n\t * @param _nameTAOPositionAddress The address of NameTAOPosition\n\t */\n\tfunction setNameTAOPositionAddress(address _nameTAOPositionAddress) public onlyTheAO {\n\t\trequire (_nameTAOPositionAddress != address(0));\n\t\tnameTAOPositionAddress = _nameTAOPositionAddress;\n\t\t_nameTAOPosition = INameTAOPosition(_nameTAOPositionAddress);\n\t}\n\n\t/**\n\t * @dev The AO set the NameAccountRecovery Address\n\t * @param _nameAccountRecoveryAddress The address of NameAccountRecovery\n\t */\n\tfunction setNameAccountRecoveryAddress(address _nameAccountRecoveryAddress) public onlyTheAO {\n\t\trequire (_nameAccountRecoveryAddress != address(0));\n\t\tnameAccountRecoveryAddress = _nameAccountRecoveryAddress;\n\t\t_nameAccountRecovery = INameAccountRecovery(nameAccountRecoveryAddress);\n\t}\n}\n",
	"sourcePath": "/home/jmulyono/ao-contracts/contracts/TAOController.sol",
	"compiler": {
		"name": "solc",
		"version": "0.5.4+commit.9549d8ff.Emscripten.clang"
	},
	"schemaVersion": "3.0.2",
	"updatedAt": "2019-05-15T08:19:36.936Z",
	"devdoc": {
		"methods": {
			"constructor": {
				"details": "Constructor function"
			},
			"setNameAccountRecoveryAddress(address)": {
				"details": "The AO set the NameAccountRecovery Address",
				"params": {
					"_nameAccountRecoveryAddress": "The address of NameAccountRecovery"
				}
			},
			"setNameFactoryAddress(address)": {
				"details": "The AO sets NameFactory address",
				"params": {
					"_nameFactoryAddress": "The address of NameFactory"
				}
			},
			"setNameTAOPositionAddress(address)": {
				"details": "The AO sets NameTAOPosition address",
				"params": {
					"_nameTAOPositionAddress": "The address of NameTAOPosition"
				}
			},
			"setWhitelist(address,bool)": {
				"details": "Whitelist `_account` address to transact on behalf of others",
				"params": {
					"_account": "The address to whitelist",
					"_whitelist": "Either to whitelist or not"
				}
			},
			"transferOwnership(address)": {
				"details": "Transfer ownership of The AO to new address",
				"params": {
					"_theAO": "The new address to be transferred"
				}
			}
		},
		"title": "TAOController"
	},
	"userdoc": {
		"methods": {}
	}
}