{
	"contractName": "TAOFamily",
	"abi": [
		{
			"constant": true,
			"inputs": [],
			"name": "taoFactoryAddress",
			"outputs": [
				{
					"name": "",
					"type": "address"
				}
			],
			"payable": false,
			"stateMutability": "view",
			"type": "function"
		},
		{
			"inputs": [
				{
					"name": "_nameFactoryAddress",
					"type": "address"
				},
				{
					"name": "_nameTAOPositionAddress",
					"type": "address"
				},
				{
					"name": "_taoFactoryAddress",
					"type": "address"
				}
			],
			"payable": false,
			"stateMutability": "nonpayable",
			"type": "constructor"
		},
		{
			"anonymous": false,
			"inputs": [
				{
					"indexed": true,
					"name": "taoId",
					"type": "address"
				},
				{
					"indexed": false,
					"name": "childMinLogos",
					"type": "uint256"
				},
				{
					"indexed": false,
					"name": "nonce",
					"type": "uint256"
				}
			],
			"name": "UpdateChildMinLogos",
			"type": "event"
		},
		{
			"anonymous": false,
			"inputs": [
				{
					"indexed": true,
					"name": "taoId",
					"type": "address"
				},
				{
					"indexed": false,
					"name": "childId",
					"type": "address"
				},
				{
					"indexed": false,
					"name": "approved",
					"type": "bool"
				},
				{
					"indexed": false,
					"name": "connected",
					"type": "bool"
				},
				{
					"indexed": false,
					"name": "nonce",
					"type": "uint256"
				}
			],
			"name": "AddChild",
			"type": "event"
		},
		{
			"anonymous": false,
			"inputs": [
				{
					"indexed": true,
					"name": "taoId",
					"type": "address"
				},
				{
					"indexed": false,
					"name": "childId",
					"type": "address"
				},
				{
					"indexed": false,
					"name": "nonce",
					"type": "uint256"
				}
			],
			"name": "ApproveChild",
			"type": "event"
		},
		{
			"anonymous": false,
			"inputs": [
				{
					"indexed": true,
					"name": "taoId",
					"type": "address"
				},
				{
					"indexed": false,
					"name": "childId",
					"type": "address"
				},
				{
					"indexed": false,
					"name": "nonce",
					"type": "uint256"
				}
			],
			"name": "RemoveChild",
			"type": "event"
		},
		{
			"constant": true,
			"inputs": [
				{
					"name": "_id",
					"type": "address"
				}
			],
			"name": "isExist",
			"outputs": [
				{
					"name": "",
					"type": "bool"
				}
			],
			"payable": false,
			"stateMutability": "view",
			"type": "function"
		},
		{
			"constant": false,
			"inputs": [
				{
					"name": "_id",
					"type": "address"
				},
				{
					"name": "_parentId",
					"type": "address"
				},
				{
					"name": "_childMinLogos",
					"type": "uint256"
				}
			],
			"name": "add",
			"outputs": [
				{
					"name": "",
					"type": "bool"
				}
			],
			"payable": false,
			"stateMutability": "nonpayable",
			"type": "function"
		},
		{
			"constant": true,
			"inputs": [
				{
					"name": "_id",
					"type": "address"
				}
			],
			"name": "getFamilyById",
			"outputs": [
				{
					"name": "",
					"type": "address"
				},
				{
					"name": "",
					"type": "uint256"
				},
				{
					"name": "",
					"type": "uint256"
				}
			],
			"payable": false,
			"stateMutability": "view",
			"type": "function"
		},
		{
			"constant": false,
			"inputs": [
				{
					"name": "_id",
					"type": "address"
				},
				{
					"name": "_childMinLogos",
					"type": "uint256"
				}
			],
			"name": "updateChildMinLogos",
			"outputs": [],
			"payable": false,
			"stateMutability": "nonpayable",
			"type": "function"
		},
		{
			"constant": true,
			"inputs": [
				{
					"name": "_taoId",
					"type": "address"
				},
				{
					"name": "_childId",
					"type": "address"
				}
			],
			"name": "isChild",
			"outputs": [
				{
					"name": "",
					"type": "bool"
				}
			],
			"payable": false,
			"stateMutability": "view",
			"type": "function"
		},
		{
			"constant": false,
			"inputs": [
				{
					"name": "_taoId",
					"type": "address"
				},
				{
					"name": "_childId",
					"type": "address"
				}
			],
			"name": "addChild",
			"outputs": [
				{
					"name": "",
					"type": "bool"
				}
			],
			"payable": false,
			"stateMutability": "nonpayable",
			"type": "function"
		},
		{
			"constant": false,
			"inputs": [
				{
					"name": "_taoId",
					"type": "address"
				},
				{
					"name": "_childId",
					"type": "address"
				}
			],
			"name": "approveChild",
			"outputs": [],
			"payable": false,
			"stateMutability": "nonpayable",
			"type": "function"
		},
		{
			"constant": false,
			"inputs": [
				{
					"name": "_taoId",
					"type": "address"
				},
				{
					"name": "_childId",
					"type": "address"
				}
			],
			"name": "removeChild",
			"outputs": [],
			"payable": false,
			"stateMutability": "nonpayable",
			"type": "function"
		},
		{
			"constant": true,
			"inputs": [
				{
					"name": "_taoId",
					"type": "address"
				},
				{
					"name": "_from",
					"type": "uint256"
				},
				{
					"name": "_to",
					"type": "uint256"
				}
			],
			"name": "getChildIds",
			"outputs": [
				{
					"name": "",
					"type": "address[]"
				}
			],
			"payable": false,
			"stateMutability": "view",
			"type": "function"
		}
	],
	"bytecode": "0x608060405234801561001057600080fd5b50604051606080611a7283398101604090815281516020830151919092015160008054600160a060020a03948516600160a060020a03199182161790915560018054938516938216939093179092556002805493909116928216831790556003805490911690911790556119e9806100896000396000f3006080604052600436106100895763ffffffff60e060020a60003504166213eb4b811461008e578063447843cf146100c35780634e0be991146100ec578063551f8e2a1461011357806356dbc0071461013d5780638bd0ba6714610164578063a17841391461018b578063e1226164146101af578063ec5c71b3146101f8578063ff0374b51461026f575b600080fd5b34801561009a57600080fd5b506100af600160a060020a03600435166102a0565b604080519115158252519081900360200190f35b3480156100cf57600080fd5b506100ea600160a060020a03600435811690602435166102c0565b005b3480156100f857600080fd5b506100ea600160a060020a0360043581169060243516610787565b34801561011f57600080fd5b506100af600160a060020a0360043581169060243516604435610ba5565b34801561014957600080fd5b506100af600160a060020a0360043581169060243516610e0a565b34801561017057600080fd5b506100af600160a060020a0360043581169060243516610f1a565b34801561019757600080fd5b506100ea600160a060020a036004351660243561144b565b3480156101bb57600080fd5b506101d0600160a060020a036004351661175b565b60408051600160a060020a039094168452602084019290925282820152519081900360600190f35b34801561020457600080fd5b5061021f600160a060020a03600435166024356044356117e5565b60408051602080825283518183015283519192839290830191858101910280838360005b8381101561025b578181015183820152602001610243565b505050509050019250505060405180910390f35b34801561027b57600080fd5b50610284611947565b60408051600160a060020a039092168252519081900360200190f35b600160a060020a0390811660009081526004602052604090205416151590565b60008060008060008673__AOLibrary_____________________________632fca5414826040518263ffffffff1660e060020a0281526004018082600160a060020a0316600160a060020a0316815260200191505060206040518083038186803b15801561032d57600080fd5b505af4158015610341573d6000803e3d6000fd5b505050506040513d602081101561035757600080fd5b5051151561036457600080fd5b8673__AOLibrary_____________________________632fca5414826040518263ffffffff1660e060020a0281526004018082600160a060020a0316600160a060020a0316815260200191505060206040518083038186803b1580156103c957600080fd5b505af41580156103dd573d6000803e3d6000fd5b505050506040513d60208110156103f357600080fd5b5051151561040057600080fd5b60008054604080517f029b7d530000000000000000000000000000000000000000000000000000000081523360048201529051600160a060020a039092169163029b7d539160248082019260209290919082900301818787803b15801561046657600080fd5b505af115801561047a573d6000803e3d6000fd5b505050506040513d602081101561049057600080fd5b5051600160a060020a031614156104a657600080fd5b600154604080517f71ce52ed000000000000000000000000000000000000000000000000000000008152336004820152600160a060020a03808d16602483015291518c9392909216916371ce52ed916044808201926020929091908290030181600087803b15801561051757600080fd5b505af115801561052b573d6000803e3d6000fd5b505050506040513d602081101561054157600080fd5b5051151561054e57600080fd5b6105578a6102a0565b80156105675750610567896102a0565b151561057257600080fd5b600160a060020a03808b166000908152600460208181526040808420948e168452808420928501909152822054929a509850909650861180156105cd5750600086815260038901602052604090205460a060020a900460ff16155b80156105f15750600086815260038901602052604090205460a860020a900460ff16155b15156105fc57600080fd5b8760050160008154809291906001019190505550876003016000878152602001908152602001600020945060018560000160146101000a81548160ff02191690831515021790555060018560000160156101000a81548160ff021916908315150217905550898760010160006101000a815481600160a060020a030219169083600160a060020a03160217905550600360009054906101000a9004600160a060020a0316600160a060020a031663f5743c4c8b6040518263ffffffff1660e060020a0281526004018082600160a060020a0316600160a060020a03168152602001915050602060405180830381600087803b1580156106fa57600080fd5b505af115801561070e573d6000803e3d6000fd5b505050506040513d602081101561072457600080fd5b505193506000841161073557600080fd5b60408051600160a060020a038b81168252602082018790528251908d16927f5db0d15bc12737227196a1c7dcb252055cb9410a5327241c9b5a8dd16bd18b47928290030190a250505050505050505050565b6000806000808573__AOLibrary_____________________________632fca5414826040518263ffffffff1660e060020a0281526004018082600160a060020a0316600160a060020a0316815260200191505060206040518083038186803b1580156107f257600080fd5b505af4158015610806573d6000803e3d6000fd5b505050506040513d602081101561081c57600080fd5b5051151561082957600080fd5b8573__AOLibrary_____________________________632fca5414826040518263ffffffff1660e060020a0281526004018082600160a060020a0316600160a060020a0316815260200191505060206040518083038186803b15801561088e57600080fd5b505af41580156108a2573d6000803e3d6000fd5b505050506040513d60208110156108b857600080fd5b505115156108c557600080fd5b60008054604080517f029b7d530000000000000000000000000000000000000000000000000000000081523360048201529051600160a060020a039092169163029b7d539160248082019260209290919082900301818787803b15801561092b57600080fd5b505af115801561093f573d6000803e3d6000fd5b505050506040513d602081101561095557600080fd5b5051600160a060020a0316141561096b57600080fd5b600154604080517f71ce52ed000000000000000000000000000000000000000000000000000000008152336004820152600160a060020a03808c16602483015291518b9392909216916371ce52ed916044808201926020929091908290030181600087803b1580156109dc57600080fd5b505af11580156109f0573d6000803e3d6000fd5b505050506040513d6020811015610a0657600080fd5b50511515610a1357600080fd5b610a1d8989610e0a565b1515610a2857600080fd5b600160a060020a03808a1660008181526004602081815260408084206005810180546000190190558e871680865281850184528286208054875260038084018652848820805475ff000000000000000000000000000000000000000000191681559288529087905585855283872060018101805473ffffffffffffffffffffffffffffffffffffffff19169055905484517ff5743c4c000000000000000000000000000000000000000000000000000000008152968701989098529251919e509c50909a50939094169363f5743c4c9360248084019492939192918390030190829087803b158015610b1957600080fd5b505af1158015610b2d573d6000803e3d6000fd5b505050506040513d6020811015610b4357600080fd5b5051935060008411610b5457600080fd5b60408051600160a060020a038a81168252602082018790528251908c16927fe49573fa5a8d30004e75a17796315ffbd219d0073774ffb3576d7ed50a1d3c7e928290030190a2505050505050505050565b6000808473__AOLibrary_____________________________632fca5414826040518263ffffffff1660e060020a0281526004018082600160a060020a0316600160a060020a0316815260200191505060206040518083038186803b158015610c0d57600080fd5b505af4158015610c21573d6000803e3d6000fd5b505050506040513d6020811015610c3757600080fd5b50511515610c4457600080fd5b8473__AOLibrary_____________________________632d706a34826040518263ffffffff1660e060020a0281526004018082600160a060020a0316600160a060020a0316815260200191505060206040518083038186803b158015610ca957600080fd5b505af4158015610cbd573d6000803e3d6000fd5b505050506040513d6020811015610cd357600080fd5b505180610d7b5750604080517f2fca5414000000000000000000000000000000000000000000000000000000008152600160a060020a0383166004820152905173__AOLibrary_____________________________91632fca5414916024808301926020929190829003018186803b158015610d4e57600080fd5b505af4158015610d62573d6000803e3d6000fd5b505050506040513d6020811015610d7857600080fd5b50515b1515610d8657600080fd5b600254600160a060020a03163314610d9d57600080fd5b610da6876102a0565b15610db057600080fd5b50505050600160a060020a039283166000818152600460205260409020805473ffffffffffffffffffffffffffffffffffffffff199081169092178155600180820180549093169490951693909317905560029091015590565b600080610e1561197b565b6000610e20866102a0565b8015610e305750610e30856102a0565b1515610e3b57600080fd5b505050600160a060020a038084166000908152600460208181526040808420878616808652828620835160a08101855281548916815260018201549098168886015260028101548885015260058101546060890152600601546080880152855292830190915282205490929181118015610ecc5750600081815260038401602052604090205460a060020a900460ff165b8015610eef5750600081815260038401602052604090205460a860020a900460ff165b8015610f10575085600160a060020a03168260200151600160a060020a0316145b9695505050505050565b60008060008060008060008873__AOLibrary_____________________________632fca5414826040518263ffffffff1660e060020a0281526004018082600160a060020a0316600160a060020a0316815260200191505060206040518083038186803b158015610f8a57600080fd5b505af4158015610f9e573d6000803e3d6000fd5b505050506040513d6020811015610fb457600080fd5b50511515610fc157600080fd5b8873__AOLibrary_____________________________632fca5414826040518263ffffffff1660e060020a0281526004018082600160a060020a0316600160a060020a0316815260200191505060206040518083038186803b15801561102657600080fd5b505af415801561103a573d6000803e3d6000fd5b505050506040513d602081101561105057600080fd5b5051151561105d57600080fd5b600254600160a060020a0316331461107457600080fd5b61107e8b8b610e0a565b1561108857600080fd5b600160a060020a03808c166000908152600460208181526040808420948f1684529184019052902054909850156110be57600080fd5b876006016000815480929190600101919050555087600601548860040160008c600160a060020a0316600160a060020a0316815260200190815260200160002081905550600360009054906101000a9004600160a060020a0316600160a060020a031663f5743c4c8c6040518263ffffffff1660e060020a0281526004018082600160a060020a0316600160a060020a03168152602001915050602060405180830381600087803b15801561117257600080fd5b505af1158015611186573d6000803e3d6000fd5b505050506040513d602081101561119c57600080fd5b50519650600087116111ad57600080fd5b876003016000896006015481526020019081526020016000209550898660000160006101000a815481600160a060020a030219169083600160a060020a03160217905550600160009054906101000a9004600160a060020a0316600160a060020a031663fd6f41378c6040518263ffffffff1660e060020a0281526004018082600160a060020a0316600160a060020a03168152602001915050602060405180830381600087803b15801561126157600080fd5b505af1158015611275573d6000803e3d6000fd5b505050506040513d602081101561128b57600080fd5b5051600154604080517ffd6f4137000000000000000000000000000000000000000000000000000000008152600160a060020a038e81166004830152915193985091169163fd6f4137916024808201926020929091908290030181600087803b1580156112f757600080fd5b505af115801561130b573d6000803e3d6000fd5b505050506040513d602081101561132157600080fd5b50519350600160a060020a0385811690851614156113cd576005880180546001908101909155865475ff0000000000000000000000000000000000000000001974ff00000000000000000000000000000000000000001990911660a060020a171660a860020a178755600160a060020a03808c1660009081526004602052604090209182018054918e1673ffffffffffffffffffffffffffffffffffffffff1990921691909117905592505b855460408051600160a060020a038d8116825260ff60a060020a850481161515602084015260a860020a909404909316151581830152606081018a90529051918d16917f9eb5d7e842fcddb2518def367b0150e73168d7b553521df281e5be030d4fa7eb9181900360800190a25060019a9950505050505050505050565b6000808373__AOLibrary_____________________________632fca5414826040518263ffffffff1660e060020a0281526004018082600160a060020a0316600160a060020a0316815260200191505060206040518083038186803b1580156114b357600080fd5b505af41580156114c7573d6000803e3d6000fd5b505050506040513d60208110156114dd57600080fd5b505115156114ea57600080fd5b60008054604080517f029b7d530000000000000000000000000000000000000000000000000000000081523360048201529051600160a060020a039092169163029b7d539160248082019260209290919082900301818787803b15801561155057600080fd5b505af1158015611564573d6000803e3d6000fd5b505050506040513d602081101561157a57600080fd5b5051600160a060020a0316141561159057600080fd5b600154604080517f71ce52ed000000000000000000000000000000000000000000000000000000008152336004820152600160a060020a0380891660248301529151889392909216916371ce52ed916044808201926020929091908290030181600087803b15801561160157600080fd5b505af1158015611615573d6000803e3d6000fd5b505050506040513d602081101561162b57600080fd5b5051151561163857600080fd5b611641866102a0565b151561164c57600080fd5b600160a060020a038087166000818152600460208181526040808420600281018c905560035482517ff5743c4c000000000000000000000000000000000000000000000000000000008152948501969096529051909950939094169363f5743c4c9360248084019492939192918390030190829087803b1580156116cf57600080fd5b505af11580156116e3573d6000803e3d6000fd5b505050506040513d60208110156116f957600080fd5b505192506000831161170a57600080fd5b600284015460408051918252602082018590528051600160a060020a038916927f432764b4ba5e42a85ef0b766607df8550deee8129d8f51fe368dc3b1eb684a6f92908290030190a2505050505050565b600080600061176861197b565b611771856102a0565b151561177c57600080fd5b50505050600160a060020a03908116600090815260046020908152604091829020825160a0810184528154851681526001820154909416918401829052600281015492840183905260058101546060850181905260069091015460809094019390935292909190565b60606000606060006117f6876102a0565b151561180157600080fd5b600160a060020a038716600090815260046020526040902092506001861080159061182c5750858510155b801561183c575084836006015410155b151561184757600080fd5b611868600161185c878963ffffffff61195616565b9063ffffffff61196816565b604051908082528060200260200182016040528015611891578160200160208202803883390190505b5091508590505b84811161193d57600081815260038401602052604090205460a060020a900460ff1680156118dd5750600081815260038401602052604090205460a860020a900460ff165b6118e8576000611903565b6000818152600384016020526040902054600160a060020a03165b82611914838963ffffffff61195616565b8151811061191e57fe5b600160a060020a03909216602092830290910190910152600101611898565b5095945050505050565b600254600160a060020a031681565b60008282111561196257fe5b50900390565b8181018281101561197557fe5b92915050565b60a0604051908101604052806000600160a060020a031681526020016000600160a060020a0316815260200160008152602001600081526020016000815250905600a165627a7a72305820f7df29e732229320521301d9f16bb0463556b16444341d0de1e79981bf1f60780029",
	"source": "pragma solidity ^0.4.24;\n\nimport './SafeMath.sol';\nimport './AOLibrary.sol';\nimport './TAOController.sol';\nimport './TAOFactory.sol';\n\n/**\n * @title TAOFamily\n */\ncontract TAOFamily is TAOController {\n\tusing SafeMath for uint256;\n\n\taddress public taoFactoryAddress;\n\n\tTAOFactory internal _taoFactory;\n\n\tstruct Child {\n\t\taddress taoId;\n\t\tbool approved;\t\t// If false, then waiting for parent TAO approval\n\t\tbool connected;\t\t// If false, then parent TAO want to remove this child TAO\n\t}\n\n\tstruct Family {\n\t\taddress taoId;\n\t\taddress parentId;\t// The parent of this TAO ID (could be a Name or TAO)\n\t\tuint256 childMinLogos;\n\t\tmapping (uint256 => Child) children;\n\t\tmapping (address => uint256) childInternalIdLookup;\n\t\tuint256 totalChildren;\n\t\tuint256 childInternalId;\n\t}\n\n\tmapping (address => Family) internal families;\n\n\t// Event to be broadcasted to public when Advocate updates min required Logos to create a child TAO\n\tevent UpdateChildMinLogos(address indexed taoId, uint256 childMinLogos, uint256 nonce);\n\n\t// Event to be broadcasted to public when a TAO adds a child TAO\n\tevent AddChild(address indexed taoId, address childId, bool approved, bool connected, uint256 nonce);\n\n\t// Event to be broadcasted to public when a TAO approves a child TAO\n\tevent ApproveChild(address indexed taoId, address childId, uint256 nonce);\n\n\t// Event to be broadcasted to public when a TAO removes a child TAO\n\tevent RemoveChild(address indexed taoId, address childId, uint256 nonce);\n\n\t/**\n\t * @dev Constructor function\n\t */\n\tconstructor(address _nameFactoryAddress, address _nameTAOPositionAddress, address _taoFactoryAddress)\n\t\tTAOController(_nameFactoryAddress, _nameTAOPositionAddress) public {\n\t\ttaoFactoryAddress = _taoFactoryAddress;\n\t\t_taoFactory = TAOFactory(_taoFactoryAddress);\n\t}\n\n\t/**\n\t * @dev Check if calling address is Factory\n\t */\n\tmodifier onlyFactory {\n\t\trequire (msg.sender == taoFactoryAddress);\n\t\t_;\n\t}\n\n\t/***** PUBLIC METHODS *****/\n\t/**\n\t * @dev Check whether or not a TAO ID exist in the list of families\n\t * @param _id The ID to be checked\n\t * @return true if yes, false otherwise\n\t */\n\tfunction isExist(address _id) public view returns (bool) {\n\t\treturn families[_id].taoId != address(0);\n\t}\n\n\t/**\n\t * @dev Store the Family info for a TAO\n\t * @param _id The ID of the TAO\n\t * @param _parentId The parent ID of this TAO\n\t * @param _childMinLogos The min required Logos to create a TAO\n\t * @return true on success\n\t */\n\tfunction add(address _id, address _parentId, uint256 _childMinLogos)\n\t\tpublic\n\t\tisTAO(_id)\n\t\tisNameOrTAO(_parentId)\n\t\tonlyFactory returns (bool) {\n\t\trequire (!isExist(_id));\n\n\t\tFamily storage _family = families[_id];\n\t\t_family.taoId = _id;\n\t\t_family.parentId = _parentId;\n\t\t_family.childMinLogos = _childMinLogos;\n\t\treturn true;\n\t}\n\n\t/**\n\t * @dev Get Family info given a TAO ID\n\t * @param _id The ID of the TAO\n\t * @return the parent ID of this TAO (could be a Name/TAO)\n\t * @return the min required Logos to create a child TAO\n\t * @return the total child TAOs count\n\t */\n\tfunction getFamilyById(address _id) public view returns (address, uint256, uint256) {\n\t\trequire (isExist(_id));\n\t\tFamily memory _family = families[_id];\n\t\treturn (\n\t\t\t_family.parentId,\n\t\t\t_family.childMinLogos,\n\t\t\t_family.totalChildren\n\t\t);\n\t}\n\n\t/**\n\t * @dev Set min required Logos to create a child from this TAO\n\t * @param _childMinLogos The min Logos to set\n\t * @return the nonce for this transaction\n\t */\n\tfunction updateChildMinLogos(address _id, uint256 _childMinLogos)\n\t\tpublic\n\t\tisTAO(_id)\n\t\tsenderIsName()\n\t\tonlyAdvocate(_id) {\n\t\trequire (isExist(_id));\n\n\t\tFamily storage _family = families[_id];\n\t\t_family.childMinLogos = _childMinLogos;\n\n\t\tuint256 _nonce = _taoFactory.incrementNonce(_id);\n\t\trequire (_nonce > 0);\n\t\temit UpdateChildMinLogos(_id, _family.childMinLogos, _nonce);\n\t}\n\n\t/**\n\t * @dev Check if `_childId` is a child TAO of `_taoId`\n\t * @param _taoId The TAO ID to be checked\n\t * @param _childId The child TAO ID to check\n\t * @return true if yes. Otherwise return false.\n\t */\n\tfunction isChild(address _taoId, address _childId) public view returns (bool) {\n\t\trequire (isExist(_taoId) && isExist(_childId));\n\t\tFamily storage _family = families[_taoId];\n\t\tFamily memory _childFamily = families[_childId];\n\t\tuint256 _childInternalId = _family.childInternalIdLookup[_childId];\n\t\treturn (\n\t\t\t_childInternalId > 0 &&\n\t\t\t_family.children[_childInternalId].approved &&\n\t\t\t_family.children[_childInternalId].connected &&\n\t\t\t_childFamily.parentId == _taoId\n\t\t);\n\t}\n\n\t/**\n\t * @dev Add child TAO\n\t * @param _taoId The TAO ID to be added to\n\t * @param _childId The ID to be added to as child TAO\n\t */\n\tfunction addChild(address _taoId, address _childId)\n\t\tpublic\n\t\tisTAO(_taoId)\n\t\tisTAO(_childId)\n\t\tonlyFactory returns (bool) {\n\t\trequire (!isChild(_taoId, _childId));\n\t\tFamily storage _family = families[_taoId];\n\t\trequire (_family.childInternalIdLookup[_childId] == 0);\n\n\t\t_family.childInternalId++;\n\t\t_family.childInternalIdLookup[_childId] = _family.childInternalId;\n\t\tuint256 _nonce = _taoFactory.incrementNonce(_taoId);\n\t\trequire (_nonce > 0);\n\n\t\tChild storage _child = _family.children[_family.childInternalId];\n\t\t_child.taoId = _childId;\n\n\t\t// If _taoId's Advocate == _childId's Advocate, then the child is automatically approved and connected\n\t\t// Otherwise, child TAO needs parent TAO approval\n\t\taddress _taoAdvocate = _nameTAOPosition.getAdvocate(_taoId);\n\t\taddress _childAdvocate = _nameTAOPosition.getAdvocate(_childId);\n\t\tif (_taoAdvocate == _childAdvocate) {\n\t\t\t_family.totalChildren++;\n\t\t\t_child.approved = true;\n\t\t\t_child.connected = true;\n\n\t\t\tFamily storage _childFamily = families[_childId];\n\t\t\t_childFamily.parentId = _taoId;\n\t\t}\n\n\t\temit AddChild(_taoId, _childId, _child.approved, _child.connected, _nonce);\n\t\treturn true;\n\t}\n\n\t/**\n\t * @dev Advocate of `_taoId` approves child `_childId`\n\t * @param _taoId The TAO ID to be checked\n\t * @param _childId The child TAO ID to be approved\n\t */\n\tfunction approveChild(address _taoId, address _childId)\n\t\tpublic\n\t\tisTAO(_taoId)\n\t\tisTAO(_childId)\n\t\tsenderIsName()\n\t\tonlyAdvocate(_taoId) {\n\t\trequire (isExist(_taoId) && isExist(_childId));\n\t\tFamily storage _family = families[_taoId];\n\t\tFamily storage _childFamily = families[_childId];\n\t\tuint256 _childInternalId = _family.childInternalIdLookup[_childId];\n\n\t\trequire (_childInternalId > 0 &&\n\t\t\t!_family.children[_childInternalId].approved &&\n\t\t\t!_family.children[_childInternalId].connected\n\t\t);\n\n\t\t_family.totalChildren++;\n\n\t\tChild storage _child = _family.children[_childInternalId];\n\t\t_child.approved = true;\n\t\t_child.connected = true;\n\n\t\t_childFamily.parentId = _taoId;\n\n\t\tuint256 _nonce = _taoFactory.incrementNonce(_taoId);\n\t\trequire (_nonce > 0);\n\n\t\temit ApproveChild(_taoId, _childId, _nonce);\n\t}\n\n\t/**\n\t * @dev Advocate of `_taoId` removes child `_childId`\n\t * @param _taoId The TAO ID to be checked\n\t * @param _childId The child TAO ID to be removed\n\t */\n\tfunction removeChild(address _taoId, address _childId)\n\t\tpublic\n\t\tisTAO(_taoId)\n\t\tisTAO(_childId)\n\t\tsenderIsName()\n\t\tonlyAdvocate(_taoId) {\n\t\trequire (isChild(_taoId, _childId));\n\n\t\tFamily storage _family = families[_taoId];\n\t\t_family.totalChildren--;\n\n\t\tChild storage _child = _family.children[_family.childInternalIdLookup[_childId]];\n\t\t_child.connected = false;\n\t\t_family.childInternalIdLookup[_childId] = 0;\n\n\t\tFamily storage _childFamily = families[_childId];\n\t\t_childFamily.parentId = address(0);\n\n\t\tuint256 _nonce = _taoFactory.incrementNonce(_taoId);\n\t\trequire (_nonce > 0);\n\n\t\temit RemoveChild(_taoId, _childId, _nonce);\n\t}\n\n\t/**\n\t * @dev Get list of child TAO IDs\n\t * @param _taoId The TAO ID to be checked\n\t * @param _from The starting index (start from 1)\n\t * @param _to The ending index, (max is childInternalId)\n\t * @return list of child TAO IDs\n\t */\n\tfunction getChildIds(address _taoId, uint256 _from, uint256 _to) public view returns (address[]) {\n\t\trequire (isExist(_taoId));\n\t\tFamily storage _family = families[_taoId];\n\t\trequire (_from >= 1 && _to >= _from && _family.childInternalId >= _to);\n\t\taddress[] memory _childIds = new address[](_to.sub(_from).add(1));\n\t\tfor (uint256 i = _from; i <= _to; i++) {\n\t\t\t_childIds[i.sub(_from)] = _family.children[i].approved && _family.children[i].connected ? _family.children[i].taoId : address(0);\n\t\t}\n\t\treturn _childIds;\n\t}\n}\n",
	"sourcePath": "/Users/johanmulyono/Work/AO/ao-contracts/contracts/TAOFamily.sol",
	"compiler": {
		"name": "solc",
		"version": "0.4.24+commit.e67f0147.Emscripten.clang"
	},
	"schemaVersion": "2.0.1",
	"updatedAt": "2019-01-07T03:04:13.086Z"
}