{
	"contractName": "TAOFactory",
	"abi": [
		{
			"constant": true,
			"inputs": [],
			"name": "nameTAOPositionAddress",
			"outputs": [
				{
					"name": "",
					"type": "address"
				}
			],
			"payable": false,
			"stateMutability": "view",
			"type": "function"
		},
		{
			"constant": true,
			"inputs": [
				{
					"name": "",
					"type": "address"
				}
			],
			"name": "nonces",
			"outputs": [
				{
					"name": "",
					"type": "uint256"
				}
			],
			"payable": false,
			"stateMutability": "view",
			"type": "function"
		},
		{
			"constant": true,
			"inputs": [
				{
					"name": "",
					"type": "address"
				}
			],
			"name": "whitelist",
			"outputs": [
				{
					"name": "",
					"type": "bool"
				}
			],
			"payable": false,
			"stateMutability": "view",
			"type": "function"
		},
		{
			"constant": true,
			"inputs": [],
			"name": "theAO",
			"outputs": [
				{
					"name": "",
					"type": "address"
				}
			],
			"payable": false,
			"stateMutability": "view",
			"type": "function"
		},
		{
			"constant": true,
			"inputs": [],
			"name": "nameTAOVaultAddress",
			"outputs": [
				{
					"name": "",
					"type": "address"
				}
			],
			"payable": false,
			"stateMutability": "view",
			"type": "function"
		},
		{
			"constant": true,
			"inputs": [],
			"name": "taoFamilyAddress",
			"outputs": [
				{
					"name": "",
					"type": "address"
				}
			],
			"payable": false,
			"stateMutability": "view",
			"type": "function"
		},
		{
			"constant": true,
			"inputs": [],
			"name": "settingTAOId",
			"outputs": [
				{
					"name": "",
					"type": "address"
				}
			],
			"payable": false,
			"stateMutability": "view",
			"type": "function"
		},
		{
			"inputs": [
				{
					"name": "_nameFactoryAddress",
					"type": "address"
				},
				{
					"name": "_nameTAOLookupAddress",
					"type": "address"
				},
				{
					"name": "_nameTAOPositionAddress",
					"type": "address"
				},
				{
					"name": "_aoSettingAddress",
					"type": "address"
				},
				{
					"name": "_logosAddress",
					"type": "address"
				},
				{
					"name": "_nameTAOVaultAddress",
					"type": "address"
				}
			],
			"payable": false,
			"stateMutability": "nonpayable",
			"type": "constructor"
		},
		{
			"anonymous": false,
			"inputs": [
				{
					"indexed": true,
					"name": "ethAddress",
					"type": "address"
				},
				{
					"indexed": false,
					"name": "advocateId",
					"type": "address"
				},
				{
					"indexed": false,
					"name": "taoId",
					"type": "address"
				},
				{
					"indexed": false,
					"name": "index",
					"type": "uint256"
				},
				{
					"indexed": false,
					"name": "parent",
					"type": "address"
				},
				{
					"indexed": false,
					"name": "parentTypeId",
					"type": "uint8"
				}
			],
			"name": "CreateTAO",
			"type": "event"
		},
		{
			"constant": false,
			"inputs": [
				{
					"name": "_theAO",
					"type": "address"
				}
			],
			"name": "transferOwnership",
			"outputs": [],
			"payable": false,
			"stateMutability": "nonpayable",
			"type": "function"
		},
		{
			"constant": false,
			"inputs": [
				{
					"name": "_account",
					"type": "address"
				},
				{
					"name": "_whitelist",
					"type": "bool"
				}
			],
			"name": "setWhitelist",
			"outputs": [],
			"payable": false,
			"stateMutability": "nonpayable",
			"type": "function"
		},
		{
			"constant": false,
			"inputs": [
				{
					"name": "_taoFamilyAddress",
					"type": "address"
				}
			],
			"name": "setTAOFamilyAddress",
			"outputs": [],
			"payable": false,
			"stateMutability": "nonpayable",
			"type": "function"
		},
		{
			"constant": false,
			"inputs": [
				{
					"name": "_settingTAOId",
					"type": "address"
				}
			],
			"name": "setSettingTAOId",
			"outputs": [],
			"payable": false,
			"stateMutability": "nonpayable",
			"type": "function"
		},
		{
			"constant": false,
			"inputs": [
				{
					"name": "_taoId",
					"type": "address"
				}
			],
			"name": "incrementNonce",
			"outputs": [
				{
					"name": "",
					"type": "uint256"
				}
			],
			"payable": false,
			"stateMutability": "nonpayable",
			"type": "function"
		},
		{
			"constant": false,
			"inputs": [
				{
					"name": "_name",
					"type": "string"
				},
				{
					"name": "_datHash",
					"type": "string"
				},
				{
					"name": "_database",
					"type": "string"
				},
				{
					"name": "_keyValue",
					"type": "string"
				},
				{
					"name": "_contentId",
					"type": "bytes32"
				},
				{
					"name": "_parentId",
					"type": "address"
				},
				{
					"name": "_childMinLogos",
					"type": "uint256"
				}
			],
			"name": "createTAO",
			"outputs": [],
			"payable": false,
			"stateMutability": "nonpayable",
			"type": "function"
		},
		{
			"constant": true,
			"inputs": [
				{
					"name": "_taoId",
					"type": "address"
				}
			],
			"name": "getTAO",
			"outputs": [
				{
					"name": "",
					"type": "string"
				},
				{
					"name": "",
					"type": "address"
				},
				{
					"name": "",
					"type": "string"
				},
				{
					"name": "",
					"type": "string"
				},
				{
					"name": "",
					"type": "string"
				},
				{
					"name": "",
					"type": "string"
				},
				{
					"name": "",
					"type": "bytes32"
				},
				{
					"name": "",
					"type": "uint8"
				}
			],
			"payable": false,
			"stateMutability": "view",
			"type": "function"
		},
		{
			"constant": true,
			"inputs": [],
			"name": "getTotalTAOsCount",
			"outputs": [
				{
					"name": "",
					"type": "uint256"
				}
			],
			"payable": false,
			"stateMutability": "view",
			"type": "function"
		},
		{
			"constant": true,
			"inputs": [
				{
					"name": "_from",
					"type": "uint256"
				},
				{
					"name": "_to",
					"type": "uint256"
				}
			],
			"name": "getTAOIds",
			"outputs": [
				{
					"name": "",
					"type": "address[]"
				}
			],
			"payable": false,
			"stateMutability": "view",
			"type": "function"
		},
		{
			"constant": true,
			"inputs": [
				{
					"name": "_data",
					"type": "string"
				},
				{
					"name": "_nonce",
					"type": "uint256"
				},
				{
					"name": "_validateAddress",
					"type": "address"
				},
				{
					"name": "_name",
					"type": "string"
				},
				{
					"name": "_signatureV",
					"type": "uint8"
				},
				{
					"name": "_signatureR",
					"type": "bytes32"
				},
				{
					"name": "_signatureS",
					"type": "bytes32"
				}
			],
			"name": "validateTAOSignature",
			"outputs": [
				{
					"name": "",
					"type": "bool"
				},
				{
					"name": "",
					"type": "string"
				},
				{
					"name": "",
					"type": "uint256"
				}
			],
			"payable": false,
			"stateMutability": "view",
			"type": "function"
		}
	],
	"bytecode": "0x608060405234801561001057600080fd5b5060405160c08061347f83398101604090815281516020830151918301516060840151608085015160a0909501516000805433600160a060020a0319918216178255600380548216600160a060020a03978816179055600480546001805497891697841688179055600780548416958916959095179094556009805483169888169890981790975591821684178216909317909455600b80548516918416919091179055600c8054909316919093161790556133ad9081906100d290396000f300608060405260043610620000e95763ffffffff60e060020a6000350416634ef033f08114620000ee57806353d6fd5914620001225780637ecebe00146200014d5780639b19251a14620001835780639d0e0cd314620001bb578063a28555d514620001d3578063a9b6b38e14620001f7578063afb2dd87146200020f578063d6830af31462000227578063da3986e4146200024b578063da8ad6b614620002bb578063e15a6f641462000533578063e6a9b2d8146200054b578063e7c501851462000676578063ed9c7c11146200068e578063f2fde38b14620007d7578063f5743c4c14620007fb575b600080fd5b348015620000fb57600080fd5b50620001066200081f565b60408051600160a060020a039092168252519081900360200190f35b3480156200012f57600080fd5b506200014b600160a060020a036004351660243515156200082e565b005b3480156200015a57600080fd5b5062000171600160a060020a03600435166200091c565b60408051918252519081900360200190f35b3480156200019057600080fd5b50620001a7600160a060020a03600435166200092e565b604080519115158252519081900360200190f35b348015620001c857600080fd5b506200017162000943565b348015620001e057600080fd5b506200014b600160a060020a036004351662000949565b3480156200020457600080fd5b506200010662000a48565b3480156200021c57600080fd5b506200010662000a57565b3480156200023457600080fd5b506200014b600160a060020a036004351662000a66565b3480156200025857600080fd5b506200026960043560243562000be3565b60408051602080825283518183015283519192839290830191858101910280838360005b83811015620002a75781810151838201526020016200028d565b505050509050019250505060405180910390f35b348015620002c857600080fd5b50620002df600160a060020a036004351662000cdb565b604051808060200189600160a060020a0316600160a060020a031681526020018060200180602001806020018060200188600019166000191681526020018760ff1660ff16815260200186810386528e818151815260200191508051906020019080838360005b838110156200036057818101518382015260200162000346565b50505050905090810190601f1680156200038e5780820380516001836020036101000a031916815260200191505b5086810385528c5181528c516020918201918e019080838360005b83811015620003c3578181015183820152602001620003a9565b50505050905090810190601f168015620003f15780820380516001836020036101000a031916815260200191505b5086810384528b5181528b516020918201918d019080838360005b83811015620004265781810151838201526020016200040c565b50505050905090810190601f168015620004545780820380516001836020036101000a031916815260200191505b5086810383528a5181528a516020918201918c019080838360005b83811015620004895781810151838201526020016200046f565b50505050905090810190601f168015620004b75780820380516001836020036101000a031916815260200191505b5086810382528951815289516020918201918b019080838360005b83811015620004ec578181015183820152602001620004d2565b50505050905090810190601f1680156200051a5780820380516001836020036101000a031916815260200191505b509d505050505050505050505050505060405180910390f35b3480156200054057600080fd5b50620001066200131f565b3480156200055857600080fd5b506040805160206004803580820135601f81018490048402850184019095528484526200014b94369492936024939284019190819084018382808284375050604080516020601f89358b018035918201839004830284018301909452808352979a99988101979196509182019450925082915084018382808284375050604080516020601f89358b018035918201839004830284018301909452808352979a99988101979196509182019450925082915084018382808284375050604080516020601f89358b018035918201839004830284018301909452808352979a99988101979196509182019450925082915084018382808284375094975050843595505050506020820135600160a060020a0316916040013590506200132e565b3480156200068357600080fd5b506200010662002216565b3480156200069b57600080fd5b506040805160206004803580820135601f81018490048402850184019095528484526200074d94369492936024939284019190819084018382808284375050604080516020888301358a018035601f8101839004830284018301909452838352979a89359a8a830135600160a060020a03169a919990985060609091019650919450908101925081908401838280828437509497505050833560ff169450505060208201359160400135905062002225565b604080518415158152908101829052606060208083018281528551928401929092528451608084019186019080838360005b83811015620007995781810151838201526020016200077f565b50505050905090810190601f168015620007c75780820380516001836020036101000a031916815260200191505b5094505050505060405180910390f35b348015620007e457600080fd5b506200014b600160a060020a0360043516620026a7565b3480156200080857600080fd5b5062000171600160a060020a036004351662002799565b600154600160a060020a031681565b6000546001546040805160e260020a633d9abf2b028152336004820152600160a060020a0393841660248201529290911660448301525173__AOLibrary_____________________________9163f66afcac916064808301926020929190829003018186803b158015620008a157600080fd5b505af4158015620008b6573d6000803e3d6000fd5b505050506040513d6020811015620008cd57600080fd5b50511515620008db57600080fd5b600160a060020a0382161515620008f157600080fd5b600160a060020a03919091166000908152600260205260409020805460ff1916911515919091179055565b600d6020526000908152604090205481565b60026020526000908152604090205460ff1681565b60055490565b6000546001546040805160e260020a633d9abf2b028152336004820152600160a060020a0393841660248201529290911660448301525173__AOLibrary_____________________________9163f66afcac916064808301926020929190829003018186803b158015620009bc57600080fd5b505af4158015620009d1573d6000803e3d6000fd5b505050506040513d6020811015620009e857600080fd5b50511515620009f657600080fd5b600160a060020a038116151562000a0c57600080fd5b6006805473ffffffffffffffffffffffffffffffffffffffff19908116600160a060020a039384161791829055600a8054929093169116179055565b600054600160a060020a031681565b600754600160a060020a031681565b6000546001546040805160e260020a633d9abf2b028152336004820152600160a060020a0393841660248201529290911660448301525173__AOLibrary_____________________________9163f66afcac916064808301926020929190829003018186803b15801562000ad957600080fd5b505af415801562000aee573d6000803e3d6000fd5b505050506040513d602081101562000b0557600080fd5b5051151562000b1357600080fd5b8073__AOLibrary_____________________________632fca5414826040518263ffffffff1660e060020a0281526004018082600160a060020a0316600160a060020a0316815260200191505060206040518083038186803b15801562000b7957600080fd5b505af415801562000b8e573d6000803e3d6000fd5b505050506040513d602081101562000ba557600080fd5b5051151562000bb357600080fd5b506008805473ffffffffffffffffffffffffffffffffffffffff1916600160a060020a0392909216919091179055565b606080600080851015801562000bf95750848410155b801562000c07575060055484105b151562000c1357600080fd5b62000c38600162000c2b868863ffffffff6200281416565b9063ffffffff6200282716565b60405190808252806020026020018201604052801562000c62578160200160208202803883390190505b5091508490505b83811162000cd357600580548290811062000c8057fe5b600091825260209091200154600160a060020a03168262000ca8838863ffffffff6200281416565b8151811062000cb357fe5b600160a060020a0390921660209283029091019091015260010162000c69565b509392505050565b60606000606080606080600080600089905080600160a060020a03166306fdde036040518163ffffffff1660e060020a028152600401600060405180830381600087803b15801562000d2c57600080fd5b505af115801562000d41573d6000803e3d6000fd5b505050506040513d6000823e601f3d908101601f19168201604052602081101562000d6b57600080fd5b81019080805164010000000081111562000d8457600080fd5b8201602081018481111562000d9857600080fd5b815164010000000081118282018710171562000db357600080fd5b505092919050505081600160a060020a03166313866efa6040518163ffffffff1660e060020a028152600401602060405180830381600087803b15801562000dfa57600080fd5b505af115801562000e0f573d6000803e3d6000fd5b505050506040513d602081101562000e2657600080fd5b5051604080517f13866efa0000000000000000000000000000000000000000000000000000000081529051600160a060020a038516916313866efa9160048083019260209291908290030181600087803b15801562000e8457600080fd5b505af115801562000e99573d6000803e3d6000fd5b505050506040513d602081101562000eb057600080fd5b5051604080517f06fdde030000000000000000000000000000000000000000000000000000000081529051600160a060020a03909216916306fdde039160048082019260009290919082900301818387803b15801562000f0f57600080fd5b505af115801562000f24573d6000803e3d6000fd5b505050506040513d6000823e601f3d908101601f19168201604052602081101562000f4e57600080fd5b81019080805164010000000081111562000f6757600080fd5b8201602081018481111562000f7b57600080fd5b815164010000000081118282018710171562000f9657600080fd5b505092919050505083600160a060020a031663056847906040518163ffffffff1660e060020a028152600401600060405180830381600087803b15801562000fdd57600080fd5b505af115801562000ff2573d6000803e3d6000fd5b505050506040513d6000823e601f3d908101601f1916820160405260208110156200101c57600080fd5b8101908080516401000000008111156200103557600080fd5b820160208101848111156200104957600080fd5b81516401000000008111828201871017156200106457600080fd5b505092919050505084600160a060020a031663713b563f6040518163ffffffff1660e060020a028152600401600060405180830381600087803b158015620010ab57600080fd5b505af1158015620010c0573d6000803e3d6000fd5b505050506040513d6000823e601f3d908101601f191682016040526020811015620010ea57600080fd5b8101908080516401000000008111156200110357600080fd5b820160208101848111156200111757600080fd5b81516401000000008111828201871017156200113257600080fd5b505092919050505085600160a060020a031663a727be576040518163ffffffff1660e060020a028152600401600060405180830381600087803b1580156200117957600080fd5b505af11580156200118e573d6000803e3d6000fd5b505050506040513d6000823e601f3d908101601f191682016040526020811015620011b857600080fd5b810190808051640100000000811115620011d157600080fd5b82016020810184811115620011e557600080fd5b81516401000000008111828201871017156200120057600080fd5b505092919050505086600160a060020a031663d97aa9776040518163ffffffff1660e060020a028152600401602060405180830381600087803b1580156200124757600080fd5b505af11580156200125c573d6000803e3d6000fd5b505050506040513d60208110156200127357600080fd5b5051604080517f8f940f630000000000000000000000000000000000000000000000000000000081529051600160a060020a038a1691638f940f639160048083019260209291908290030181600087803b158015620012d157600080fd5b505af1158015620012e6573d6000803e3d6000fd5b505050506040513d6020811015620012fd57600080fd5b5051969f50949d50929b50909950975095509350915050919395975091939597565b600654600160a060020a031681565b600354604080517f029b7d5300000000000000000000000000000000000000000000000000000000815233600482015290516000928392839283928392600160a060020a039091169163029b7d539160248082019260209290919082900301818787803b1580156200139f57600080fd5b505af1158015620013b4573d6000803e3d6000fd5b505050506040513d6020811015620013cb57600080fd5b5051600160a060020a03161415620013e257600080fd5b8573__AOLibrary_____________________________632d706a34826040518263ffffffff1660e060020a0281526004018082600160a060020a0316600160a060020a0316815260200191505060206040518083038186803b1580156200144857600080fd5b505af41580156200145d573d6000803e3d6000fd5b505050506040513d60208110156200147457600080fd5b505180620015205750604080517f2fca5414000000000000000000000000000000000000000000000000000000008152600160a060020a0383166004820152905173__AOLibrary_____________________________91632fca5414916024808301926020929190829003018186803b158015620014f157600080fd5b505af415801562001506573d6000803e3d6000fd5b505050506040513d60208110156200151d57600080fd5b50515b15156200152c57600080fd5b8b516000106200153b57600080fd5b600960009054906101000a9004600160a060020a0316600160a060020a0316634d3d096b8d6040518263ffffffff1660e060020a0281526004018080602001828103825283818151815260200191508051906020019080838360005b83811015620015b157818101518382015260200162001597565b50505050905090810190601f168015620015df5780820380516001836020036101000a031916815260200191505b5092505050602060405180830381600087803b158015620015ff57600080fd5b505af115801562001614573d6000803e3d6000fd5b505050506040513d60208110156200162b57600080fd5b5051156200163857600080fd5b600354604080517f029b7d530000000000000000000000000000000000000000000000000000000081523360048201529051600160a060020a039092169163029b7d53916024808201926020929091908290030181600087803b1580156200169f57600080fd5b505af1158015620016b4573d6000803e3d6000fd5b505050506040513d6020811015620016cb57600080fd5b50519450620016d96200283b565b925073__AOLibrary_____________________________632fca5414886040518263ffffffff1660e060020a0281526004018082600160a060020a0316600160a060020a0316815260200191505060206040518083038186803b1580156200174057600080fd5b505af415801562001755573d6000803e3d6000fd5b505050506040513d60208110156200176c57600080fd5b5051156200181157600a54604080517fe1226164000000000000000000000000000000000000000000000000000000008152600160a060020a038a811660048301529151919092169163e12261649160248083019260609291908290030181600087803b158015620017dd57600080fd5b505af1158015620017f2573d6000803e3d6000fd5b505050506040513d60608110156200180957600080fd5b506020015193505b6000841115620018c757600c54604080517f985e4cd0000000000000000000000000000000000000000000000000000000008152600160a060020a03888116600483015291518793929092169163985e4cd0916024808201926020929091908290030181600087803b1580156200188757600080fd5b505af11580156200189c573d6000803e3d6000fd5b505050506040513d6020811015620018b357600080fd5b50511015620018c157600080fd5b62001977565b60008311156200197757600c54604080517f985e4cd0000000000000000000000000000000000000000000000000000000008152600160a060020a03888116600483015291518693929092169163985e4cd0916024808201926020929091908290030181600087803b1580156200193d57600080fd5b505af115801562001952573d6000803e3d6000fd5b505050506040513d60208110156200196957600080fd5b505110156200197757600080fd5b6007548c9086908d908d908d908d90600160a060020a03166200199962002c50565b600160a060020a0380881660208084019190915260a0830185905290831660c083015260e0808352895190830152885182916040830191606084019160808501916101008601918e019080838360005b8381101562001a03578181015183820152602001620019e9565b50505050905090810190601f16801562001a315780820380516001836020036101000a031916815260200191505b5085810384528a5181528a516020918201918c019080838360005b8381101562001a6657818101518382015260200162001a4c565b50505050905090810190601f16801562001a945780820380516001836020036101000a031916815260200191505b5085810383528951815289516020918201918b019080838360005b8381101562001ac957818101518382015260200162001aaf565b50505050905090810190601f16801562001af75780820380516001836020036101000a031916815260200191505b5085810382528851815288516020918201918a019080838360005b8381101562001b2c57818101518382015260200162001b12565b50505050905090810190601f16801562001b5a5780820380516001836020036101000a031916815260200191505b509b505050505050505050505050604051809103906000f08015801562001b85573d6000803e3d6000fd5b509150600d600083600160a060020a0316600160a060020a0316815260200190815260200160002060008154809291906001019190505550600960009054906101000a9004600160a060020a0316600160a060020a031663847d97ab8d848a600160a060020a03166306fdde036040518163ffffffff1660e060020a028152600401600060405180830381600087803b15801562001c2257600080fd5b505af115801562001c37573d6000803e3d6000fd5b505050506040513d6000823e601f3d908101601f19168201604052602081101562001c6157600080fd5b81019080805164010000000081111562001c7a57600080fd5b8201602081018481111562001c8e57600080fd5b815164010000000081118282018710171562001ca957600080fd5b505060405160e060020a63ffffffff8916028152600160a060020a038616602482015260006064820181905260806004830190815288516084840152885193965090945092508291604482019160a401906020890190808383895b8381101562001d1e57818101518382015260200162001d04565b50505050905090810190601f16801562001d4c5780820380516001836020036101000a031916815260200191505b50838103825285518152855160209182019187019080838360005b8381101562001d8157818101518382015260200162001d67565b50505050905090810190601f16801562001daf5780820380516001836020036101000a031916815260200191505b509650505050505050602060405180830381600087803b15801562001dd357600080fd5b505af115801562001de8573d6000803e3d6000fd5b505050506040513d602081101562001dff57600080fd5b5051151562001e0d57600080fd5b60048054604080517f5baf039f000000000000000000000000000000000000000000000000000000008152600160a060020a03868116948201949094528884166024820181905260448201819052606482015290519290911691635baf039f916084808201926020929091908290030181600087803b15801562001e9057600080fd5b505af115801562001ea5573d6000803e3d6000fd5b505050506040513d602081101562001ebc57600080fd5b5051151562001eca57600080fd5b600a54604080517f551f8e2a000000000000000000000000000000000000000000000000000000008152600160a060020a0385811660048301528a81166024830152604482018a90529151919092169163551f8e2a9160648083019260209291908290030181600087803b15801562001f4257600080fd5b505af115801562001f57573d6000803e3d6000fd5b505050506040513d602081101562001f6e57600080fd5b5051151562001f7c57600080fd5b600580546001808201835560008390527f036b6384b5eca791c62761152d0c79bb0604c104a5fb6f4eb0703f3154bb3db0909101805473ffffffffffffffffffffffffffffffffffffffff1916600160a060020a038616179055905433917f99e31d932a8dc18a1c2fdc042033221392c096cb2cba47bd413ae5e36b915ce791889186916200200b9162002814565b8b8c600160a060020a0316638f940f636040518163ffffffff1660e060020a028152600401602060405180830381600087803b1580156200204b57600080fd5b505af115801562002060573d6000803e3d6000fd5b505050506040513d60208110156200207757600080fd5b505160408051600160a060020a0396871681529486166020860152848101939093529316606083015260ff909216608082015290519081900360a00190a2604080517f2fca5414000000000000000000000000000000000000000000000000000000008152600160a060020a0389166004820152905173__AOLibrary_____________________________91632fca5414916024808301926020929190829003018186803b1580156200212957600080fd5b505af41580156200213e573d6000803e3d6000fd5b505050506040513d60208110156200215557600080fd5b5051156200220857600a54604080517f8bd0ba67000000000000000000000000000000000000000000000000000000008152600160a060020a038a81166004830152858116602483015291519190921691638bd0ba679160448083019260209291908290030181600087803b158015620021ce57600080fd5b505af1158015620021e3573d6000803e3d6000fd5b505050506040513d6020811015620021fa57600080fd5b505115156200220857600080fd5b505050505050505050505050565b600854600160a060020a031681565b60006060600080620022378862002990565b604080517f2fca5414000000000000000000000000000000000000000000000000000000008152600160a060020a0383166004820152905173__AOLibrary_____________________________91632fca5414916024808301926020929190829003018186803b158015620022ab57600080fd5b505af4158015620022c0573d6000803e3d6000fd5b505050506040513d6020811015620022d757600080fd5b50511515620022e557600080fd5b73__AOLibrary_____________________________63271b5311308e8e8c8c8c6040518763ffffffff1660e060020a0281526004018087600160a060020a0316600160a060020a03168152602001806020018681526020018560ff1660ff16815260200184600019166000191681526020018360001916600019168152602001828103825287818151815260200191508051906020019080838360005b838110156200239c57818101518382015260200162002382565b50505050905090810190601f168015620023ca5780820380516001836020036101000a031916815260200191505b5097505050505050505060206040518083038186803b158015620023ed57600080fd5b505af415801562002402573d6000803e3d6000fd5b505050506040513d60208110156200241957600080fd5b50519150620024358a836200242e8c62002990565b8e62002a8b565b156200268057600354604080517f029b7d53000000000000000000000000000000000000000000000000000000008152600160a060020a0385811660048301529151600193929092169163029b7d53916024808201926020929091908290030181600087803b158015620024a857600080fd5b505af1158015620024bd573d6000803e3d6000fd5b505050506040513d6020811015620024d457600080fd5b5051604080517f06fdde030000000000000000000000000000000000000000000000000000000081529051600160a060020a03909216916306fdde039160048082019260009290919082900301818387803b1580156200253357600080fd5b505af115801562002548573d6000803e3d6000fd5b505050506040513d6000823e601f3d908101601f1916820160405260208110156200257257600080fd5b8101908080516401000000008111156200258b57600080fd5b820160208101848111156200259f57600080fd5b8151640100000000811182820187101715620025ba57600080fd5b5050600454909350600160a060020a03169150637a1d66dd905085620025e08e62002990565b6040518363ffffffff1660e060020a0281526004018083600160a060020a0316600160a060020a0316815260200182600160a060020a0316600160a060020a0316815260200192505050602060405180830381600087803b1580156200264557600080fd5b505af11580156200265a573d6000803e3d6000fd5b505050506040513d60208110156200267157600080fd5b50519196509450925062002698565b60408051602081019091526000808252955093508492505b50509750975097945050505050565b6000546001546040805160e260020a633d9abf2b028152336004820152600160a060020a0393841660248201529290911660448301525173__AOLibrary_____________________________9163f66afcac916064808301926020929190829003018186803b1580156200271a57600080fd5b505af41580156200272f573d6000803e3d6000fd5b505050506040513d60208110156200274657600080fd5b505115156200275457600080fd5b600160a060020a03811615156200276a57600080fd5b6000805473ffffffffffffffffffffffffffffffffffffffff1916600160a060020a0392909216919091179055565b600154600090600160a060020a0316331480620027c05750600654600160a060020a031633145b1515620027cc57600080fd5b600160a060020a0382166000908152600d602052604081205411620027f057600080fd5b50600160a060020a03166000908152600d6020526040902080546001019081905590565b6000828211156200282157fe5b50900390565b818101828110156200283557fe5b92915050565b600b54600854604080517f7065bedc000000000000000000000000000000000000000000000000000000008152600160a060020a03928316600482015260248101829052601660448201527f6372656174654368696c6454414f4d696e4c6f676f73000000000000000000006064820152905160009384931691637065bedc916084808301928692919082900301818387803b158015620028db57600080fd5b505af1158015620028f0573d6000803e3d6000fd5b505050506040513d6000823e601f3d908101601f1916820160405260a08110156200291a57600080fd5b8151602083015160408401516060850151608086018051949693959294919392830192916401000000008111156200295157600080fd5b820160208101848111156200296557600080fd5b81516401000000008111828201871017156200298057600080fd5b50979a9950505050505050505050565b6009546040517f9a65ddec000000000000000000000000000000000000000000000000000000008152602060048201818152845160248401528451600094600160a060020a031693639a65ddec938793928392604401918501908083838b5b8381101562002a09578181015183820152602001620029ef565b50505050905090810190601f16801562002a375780820380516001836020036101000a031916815260200191505b5092505050602060405180830381600087803b15801562002a5757600080fd5b505af115801562002a6c573d6000803e3d6000fd5b505050506040513d602081101562002a8357600080fd5b505192915050565b6000600160a060020a0385161562002b9d57600160a060020a0383166000908152600d602052604090205462002ac990600163ffffffff6200282716565b8214801562002ae9575084600160a060020a031684600160a060020a0316145b801562002b95575060048054604080517fe2c8e54a000000000000000000000000000000000000000000000000000000008152600160a060020a038981169482019490945286841660248201529051929091169163e2c8e54a916044808201926020929091908290030181600087803b15801562002b6657600080fd5b505af115801562002b7b573d6000803e3d6000fd5b505050506040513d602081101562002b9257600080fd5b50515b905062002c48565b600160a060020a0383166000908152600d602052604090205462002bc990600163ffffffff6200282716565b8214801562002b95575060048054604080517fe2c8e54a000000000000000000000000000000000000000000000000000000008152600160a060020a038881169482019490945286841660248201529051929091169163e2c8e54a916044808201926020929091908290030181600087803b15801562002b6657600080fd5b949350505050565b6040516107208062002c62833901905600608060405234801561001057600080fd5b506040516107203803806107208339810160409081528151602080840151928401516060850151608086015160a087015160c0880151958801805190989485019693850195929094019390929161006c916001918a01906100fe565b5060028054600160a060020a031916600160a060020a038816179055845161009b9060039060208801906100fe565b5083516100af9060049060208701906100fe565b5082516100c39060059060208601906100fe565b506006919091556007805460ff1916905560008054600160a060020a031916600160a060020a03909216919091179055506101999350505050565b828054600181600116156101000203166002900490600052602060002090601f016020900481019282601f1061013f57805160ff191683800117855561016c565b8280016001018555821561016c579182015b8281111561016c578251825591602001919060010190610151565b5061017892915061017c565b5090565b61019691905b808211156101785760008155600101610182565b90565b610578806101a86000396000f3006080604052600436106100a35763ffffffff7c01000000000000000000000000000000000000000000000000000000006000350416630568479081146100a857806306fdde031461013257806313866efa14610147578063430bf08a14610178578063713b563f1461018d5780638f940f63146101a25780639db5dbe4146101cd578063a727be571461020b578063d97aa97714610220578063e9bb84c214610247575b600080fd5b3480156100b457600080fd5b506100bd61026b565b6040805160208082528351818301528351919283929083019185019080838360005b838110156100f75781810151838201526020016100df565b50505050905090810190601f1680156101245780820380516001836020036101000a031916815260200191505b509250505060405180910390f35b34801561013e57600080fd5b506100bd6102f9565b34801561015357600080fd5b5061015c610353565b60408051600160a060020a039092168252519081900360200190f35b34801561018457600080fd5b5061015c610362565b34801561019957600080fd5b506100bd610371565b3480156101ae57600080fd5b506101b76103cc565b6040805160ff9092168252519081900360200190f35b3480156101d957600080fd5b506101f7600160a060020a03600435811690602435166044356103d5565b604080519115158252519081900360200190f35b34801561021757600080fd5b506100bd610493565b34801561022c57600080fd5b506102356104ee565b60408051918252519081900360200190f35b34801561025357600080fd5b506101f7600160a060020a03600435166024356104f4565b6003805460408051602060026001851615610100026000190190941693909304601f810184900484028201840190925281815292918301828280156102f15780601f106102c6576101008083540402835291602001916102f1565b820191906000526020600020905b8154815290600101906020018083116102d457829003601f168201915b505050505081565b60018054604080516020600284861615610100026000190190941693909304601f810184900484028201840190925281815292918301828280156102f15780601f106102c6576101008083540402835291602001916102f1565b600254600160a060020a031681565b600054600160a060020a031681565b6004805460408051602060026001851615610100026000190190941693909304601f810184900484028201840190925281815292918301828280156102f15780601f106102c6576101008083540402835291602001916102f1565b60075460ff1681565b600080548190600160a060020a031633146103ef57600080fd5b50604080517fa9059cbb000000000000000000000000000000000000000000000000000000008152600160a060020a038581166004830152602482018590529151869283169163a9059cbb9160448083019260209291908290030181600087803b15801561045c57600080fd5b505af1158015610470573d6000803e3d6000fd5b505050506040513d602081101561048657600080fd5b5060019695505050505050565b6005805460408051602060026001851615610100026000190190941693909304601f810184900484028201840190925281815292918301828280156102f15780601f106102c6576101008083540402835291602001916102f1565b60065481565b60008054600160a060020a0316331461050c57600080fd5b604051600160a060020a0384169083156108fc029084906000818181858888f19350505050158015610542573d6000803e3d6000fd5b50600193925050505600a165627a7a72305820c289656a270f8d20c178c10d17b01d7e523afeecab585c4b00f222b1d20b4be40029a165627a7a72305820695c6db9f4769fb79602dc0f321fbc128d3dfd550e3f56a59536fe156cfda8a30029",
	"source": "pragma solidity ^0.4.24;\n\nimport './SafeMath.sol';\nimport './TheAO.sol';\nimport './TAOController.sol';\nimport './Name.sol';\nimport './NameTAOLookup.sol';\t\t// Store the name lookup for a Name/TAO\nimport './TAOFamily.sol';\t\t\t// Store TAO's child information\nimport './AOSetting.sol';\nimport './Logos.sol';\n\n/**\n * @title TAOFactory\n *\n * The purpose of this contract is to allow node to create TAO\n */\ncontract TAOFactory is TheAO, TAOController {\n\tusing SafeMath for uint256;\n\taddress[] internal taos;\n\n\taddress public taoFamilyAddress;\n\taddress public nameTAOVaultAddress;\n\taddress public settingTAOId;\n\n\tNameTAOLookup internal _nameTAOLookup;\n\tTAOFamily internal _taoFamily;\n\tAOSetting internal _aoSetting;\n\tLogos internal _logos;\n\n\t// Mapping from TAO ID to its nonce\n\tmapping (address => uint256) public nonces;\n\n\t// Event to be broadcasted to public when Advocate creates a TAO\n\tevent CreateTAO(address indexed ethAddress, address advocateId, address taoId, uint256 index, address parent, uint8 parentTypeId);\n\n\t/**\n\t * @dev Constructor function\n\t */\n\tconstructor(address _nameFactoryAddress, address _nameTAOLookupAddress, address _nameTAOPositionAddress, address _aoSettingAddress, address _logosAddress, address _nameTAOVaultAddress)\n\t\tTAOController(_nameFactoryAddress, _nameTAOPositionAddress) public {\n\t\tnameTAOPositionAddress = _nameTAOPositionAddress;\n\t\tnameTAOVaultAddress = _nameTAOVaultAddress;\n\n\t\t_nameTAOLookup = NameTAOLookup(_nameTAOLookupAddress);\n\t\t_nameTAOPosition = NameTAOPosition(_nameTAOPositionAddress);\n\t\t_aoSetting = AOSetting(_aoSettingAddress);\n\t\t_logos = Logos(_logosAddress);\n\t}\n\n\t/**\n\t * @dev Checks if the calling contract address is The AO\n\t *\t\tOR\n\t *\t\tIf The AO is set to a Name/TAO, then check if calling address is the Advocate\n\t */\n\tmodifier onlyTheAO {\n\t\trequire (AOLibrary.isTheAO(msg.sender, theAO, nameTAOPositionAddress));\n\t\t_;\n\t}\n\n\t/**\n\t * @dev Checks if calling address can update TAO's nonce\n\t */\n\tmodifier canUpdateNonce {\n\t\trequire (msg.sender == nameTAOPositionAddress || msg.sender == taoFamilyAddress);\n\t\t_;\n\t}\n\n\t/***** The AO ONLY METHODS *****/\n\t/**\n\t * @dev Transfer ownership of The AO to new address\n\t * @param _theAO The new address to be transferred\n\t */\n\tfunction transferOwnership(address _theAO) public onlyTheAO {\n\t\trequire (_theAO != address(0));\n\t\ttheAO = _theAO;\n\t}\n\n\t/**\n\t * @dev Whitelist `_account` address to transact on behalf of others\n\t * @param _account The address to whitelist\n\t * @param _whitelist Either to whitelist or not\n\t */\n\tfunction setWhitelist(address _account, bool _whitelist) public onlyTheAO {\n\t\trequire (_account != address(0));\n\t\twhitelist[_account] = _whitelist;\n\t}\n\n\t/**\n\t * @dev The AO set the TAOFamily Address\n\t * @param _taoFamilyAddress The address of TAOFamily\n\t */\n\tfunction setTAOFamilyAddress(address _taoFamilyAddress) public onlyTheAO {\n\t\trequire (_taoFamilyAddress != address(0));\n\t\ttaoFamilyAddress = _taoFamilyAddress;\n\t\t_taoFamily = TAOFamily(taoFamilyAddress);\n\t}\n\n\t/**\n\t * @dev The AO set settingTAOId (The TAO ID that holds the setting values)\n\t * @param _settingTAOId The address of settingTAOId\n\t */\n\tfunction setSettingTAOId(address _settingTAOId) public onlyTheAO isTAO(_settingTAOId) {\n\t\tsettingTAOId = _settingTAOId;\n\t}\n\n\t/***** PUBLIC METHODS *****/\n\t/**\n\t * @dev Increment the nonce of a TAO\n\t * @param _taoId The ID of the TAO\n\t * @return current nonce\n\t */\n\tfunction incrementNonce(address _taoId) public canUpdateNonce returns (uint256) {\n\t\t// Check if _taoId exist\n\t\trequire (nonces[_taoId] > 0);\n\t\tnonces[_taoId]++;\n\t\treturn nonces[_taoId];\n\t}\n\n\t/**\n\t * @dev Name creates a TAO\n\t * @param _name The name of the TAO\n\t * @param _datHash The datHash of this TAO\n\t * @param _database The database for this TAO\n\t * @param _keyValue The key/value pair to be checked on the database\n\t * @param _contentId The contentId related to this TAO\n\t * @param _parentId The parent of this TAO (has to be a Name or TAO)\n\t * @param _childMinLogos The min required Logos to create a child from this TAO\n\t */\n\tfunction createTAO(\n\t\tstring _name,\n\t\tstring _datHash,\n\t\tstring _database,\n\t\tstring _keyValue,\n\t\tbytes32 _contentId,\n\t\taddress _parentId,\n\t\tuint256 _childMinLogos\n\t) public senderIsName() isNameOrTAO(_parentId) {\n\t\trequire (bytes(_name).length > 0);\n\t\trequire (!_nameTAOLookup.isExist(_name));\n\n\t\taddress _nameId = _nameFactory.ethAddressToNameId(msg.sender);\n\n\t\tuint256 _parentCreateChildTAOMinLogos;\n\t\tuint256 _createChildTAOMinLogos = _getSettingVariables();\n\t\tif (AOLibrary.isTAO(_parentId)) {\n\t\t\t(, _parentCreateChildTAOMinLogos,) = _taoFamily.getFamilyById(_parentId);\n\t\t}\n\t\tif (_parentCreateChildTAOMinLogos > 0) {\n\t\t\trequire (_logos.sumBalanceOf(_nameId) >= _parentCreateChildTAOMinLogos);\n\t\t} else if (_createChildTAOMinLogos > 0) {\n\t\t\trequire (_logos.sumBalanceOf(_nameId) >= _createChildTAOMinLogos);\n\t\t}\n\n\t\t// Create the TAO\n\t\taddress taoId = new TAO(_name, _nameId, _datHash, _database, _keyValue, _contentId, nameTAOVaultAddress);\n\n\t\t// Increment the nonce\n\t\tnonces[taoId]++;\n\n\t\t// Store the name lookup information\n\t\trequire (_nameTAOLookup.add(_name, taoId, TAO(_parentId).name(), 0));\n\n\t\t// Store the Advocate/Listener/Speaker information\n\t\trequire (_nameTAOPosition.add(taoId, _nameId, _nameId, _nameId));\n\n\t\trequire (_taoFamily.add(taoId, _parentId, _childMinLogos));\n\t\ttaos.push(taoId);\n\n\t\temit CreateTAO(msg.sender, _nameId, taoId, taos.length.sub(1), _parentId, TAO(_parentId).typeId());\n\n\t\tif (AOLibrary.isTAO(_parentId)) {\n\t\t\trequire (_taoFamily.addChild(_parentId, taoId));\n\t\t}\n\t}\n\n\t/**\n\t * @dev Get TAO information\n\t * @param _taoId The ID of the TAO to be queried\n\t * @return The name of the TAO\n\t * @return The origin Name ID that created the TAO\n\t * @return The name of Name that created the TAO\n\t * @return The datHash of the TAO\n\t * @return The database of the TAO\n\t * @return The keyValue of the TAO\n\t * @return The contentId of the TAO\n\t * @return The typeId of the TAO\n\t */\n\tfunction getTAO(address _taoId) public view returns (string, address, string, string, string, string, bytes32, uint8) {\n\t\tTAO _tao = TAO(_taoId);\n\t\treturn (\n\t\t\t_tao.name(),\n\t\t\t_tao.originId(),\n\t\t\tName(_tao.originId()).name(),\n\t\t\t_tao.datHash(),\n\t\t\t_tao.database(),\n\t\t\t_tao.keyValue(),\n\t\t\t_tao.contentId(),\n\t\t\t_tao.typeId()\n\t\t);\n\t}\n\n\t/**\n\t * @dev Get total TAOs count\n\t * @return total TAOs count\n\t */\n\tfunction getTotalTAOsCount() public view returns (uint256) {\n\t\treturn taos.length;\n\t}\n\n\t/**\n\t * @dev Get list of TAO IDs\n\t * @param _from The starting index\n\t * @param _to The ending index\n\t * @return list of TAO IDs\n\t */\n\tfunction getTAOIds(uint256 _from, uint256 _to) public view returns (address[]) {\n\t\trequire (_from >= 0 && _to >= _from && taos.length > _to);\n\n\t\taddress[] memory _taos = new address[](_to.sub(_from).add(1));\n\t\tfor (uint256 i = _from; i <= _to; i++) {\n\t\t\t_taos[i.sub(_from)] = taos[i];\n\t\t}\n\t\treturn _taos;\n\t}\n\n\t/**\n\t * @dev Check whether or not the signature is valid\n\t * @param _data The signed string data\n\t * @param _nonce The signed uint256 nonce (should be TAO's current nonce + 1)\n\t * @param _validateAddress The ETH address to be validated (optional)\n\t * @param _name The Name of the TAO\n\t * @param _signatureV The V part of the signature\n\t * @param _signatureR The R part of the signature\n\t * @param _signatureS The S part of the signature\n\t * @return true if valid. false otherwise\n\t * @return The name of the Name that created the signature\n\t * @return The Position of the Name that created the signature.\n\t *\t\t\t0 == unknown. 1 == Advocate. 2 == Listener. 3 == Speaker\n\t */\n\tfunction validateTAOSignature(\n\t\tstring _data,\n\t\tuint256 _nonce,\n\t\taddress _validateAddress,\n\t\tstring _name,\n\t\tuint8 _signatureV,\n\t\tbytes32 _signatureR,\n\t\tbytes32 _signatureS\n\t) public isTAO(_getTAOIdByName(_name)) view returns (bool, string, uint256) {\n\t\taddress _signatureAddress = AOLibrary.getValidateSignatureAddress(address(this), _data, _nonce, _signatureV, _signatureR, _signatureS);\n\t\tif (_isTAOSignatureAddressValid(_validateAddress, _signatureAddress, _getTAOIdByName(_name), _nonce)) {\n\t\t\treturn (true, Name(_nameFactory.ethAddressToNameId(_signatureAddress)).name(), _nameTAOPosition.determinePosition(_signatureAddress, _getTAOIdByName(_name)));\n\t\t} else {\n\t\t\treturn (false, \"\", 0);\n\t\t}\n\t}\n\n\t/***** INTERNAL METHOD *****/\n\t/**\n\t * @dev Check whether or not the address recovered from the signature is valid\n\t * @param _validateAddress The ETH address to be validated (optional)\n\t * @param _signatureAddress The address recovered from the signature\n\t * @param _taoId The ID of the TAO\n\t * @param _nonce The signed uint256 nonce\n\t * @return true if valid. false otherwise\n\t */\n\tfunction _isTAOSignatureAddressValid(\n\t\taddress _validateAddress,\n\t\taddress _signatureAddress,\n\t\taddress _taoId,\n\t\tuint256 _nonce\n\t) internal view returns (bool) {\n\t\tif (_validateAddress != address(0)) {\n\t\t\treturn (_nonce == nonces[_taoId].add(1) &&\n\t\t\t\t_signatureAddress == _validateAddress &&\n\t\t\t\t_nameTAOPosition.senderIsPosition(_validateAddress, _taoId)\n\t\t\t);\n\t\t} else {\n\t\t\treturn (\n\t\t\t\t_nonce == nonces[_taoId].add(1) &&\n\t\t\t\t_nameTAOPosition.senderIsPosition(_signatureAddress, _taoId)\n\t\t\t);\n\t\t}\n\t}\n\n\t/**\n\t * @dev Internal function to get the TAO Id by name\n\t * @param _name The name of the TAO\n\t * @return the TAO ID\n\t */\n\tfunction _getTAOIdByName(string _name) internal view returns (address) {\n\t\treturn _nameTAOLookup.getAddressByName(_name);\n\t}\n\n\t/**\n\t * @dev Get setting variables\n\t * @return createChildTAOMinLogos The minimum required Logos to create a TAO\n\t */\n\tfunction _getSettingVariables() internal view returns (uint256) {\n\t\t(uint256 createChildTAOMinLogos,,,,) = _aoSetting.getSettingValuesByTAOName(settingTAOId, 'createChildTAOMinLogos');\n\t\treturn createChildTAOMinLogos;\n\t}\n}\n",
	"sourcePath": "/Users/johanmulyono/Work/AO/ao-contracts/contracts/TAOFactory.sol",
	"compiler": {
		"name": "solc",
		"version": "0.4.24+commit.e67f0147.Emscripten.clang"
	},
	"schemaVersion": "2.0.1",
	"updatedAt": "2019-01-07T03:04:13.076Z"
}