{
	"contractName": "TAOFactory",
	"abi": [
		{
			"constant": true,
			"inputs": [],
			"name": "positionAddress",
			"outputs": [
				{
					"name": "",
					"type": "address"
				}
			],
			"payable": false,
			"stateMutability": "view",
			"type": "function"
		},
		{
			"constant": true,
			"inputs": [],
			"name": "nameFactoryAddress",
			"outputs": [
				{
					"name": "",
					"type": "address"
				}
			],
			"payable": false,
			"stateMutability": "view",
			"type": "function"
		},
		{
			"inputs": [
				{
					"name": "_nameFactoryAddress",
					"type": "address"
				},
				{
					"name": "_positionAddress",
					"type": "address"
				}
			],
			"payable": false,
			"stateMutability": "nonpayable",
			"type": "constructor"
		},
		{
			"anonymous": false,
			"inputs": [
				{
					"indexed": true,
					"name": "ethAddress",
					"type": "address"
				},
				{
					"indexed": false,
					"name": "advocateId",
					"type": "address"
				},
				{
					"indexed": false,
					"name": "taoId",
					"type": "address"
				},
				{
					"indexed": false,
					"name": "index",
					"type": "uint256"
				},
				{
					"indexed": false,
					"name": "from",
					"type": "address"
				},
				{
					"indexed": false,
					"name": "fromTAOTypeId",
					"type": "uint8"
				},
				{
					"indexed": false,
					"name": "to",
					"type": "address"
				}
			],
			"name": "CreateTAO",
			"type": "event"
		},
		{
			"anonymous": false,
			"inputs": [
				{
					"indexed": true,
					"name": "taoId",
					"type": "address"
				},
				{
					"indexed": false,
					"name": "oldAdvocateId",
					"type": "address"
				},
				{
					"indexed": false,
					"name": "newAdvocateId",
					"type": "address"
				},
				{
					"indexed": false,
					"name": "nonce",
					"type": "uint256"
				}
			],
			"name": "SetTAOAdvocate",
			"type": "event"
		},
		{
			"anonymous": false,
			"inputs": [
				{
					"indexed": true,
					"name": "taoId",
					"type": "address"
				},
				{
					"indexed": false,
					"name": "oldListenerId",
					"type": "address"
				},
				{
					"indexed": false,
					"name": "newListenerId",
					"type": "address"
				},
				{
					"indexed": false,
					"name": "nonce",
					"type": "uint256"
				}
			],
			"name": "SetTAOListener",
			"type": "event"
		},
		{
			"anonymous": false,
			"inputs": [
				{
					"indexed": true,
					"name": "taoId",
					"type": "address"
				},
				{
					"indexed": false,
					"name": "oldSpeakerId",
					"type": "address"
				},
				{
					"indexed": false,
					"name": "newSpeakerId",
					"type": "address"
				},
				{
					"indexed": false,
					"name": "nonce",
					"type": "uint256"
				}
			],
			"name": "SetTAOSpeaker",
			"type": "event"
		},
		{
			"anonymous": false,
			"inputs": [
				{
					"indexed": true,
					"name": "parentTAOId",
					"type": "address"
				},
				{
					"indexed": false,
					"name": "childTAOId",
					"type": "address"
				},
				{
					"indexed": false,
					"name": "nonce",
					"type": "uint256"
				}
			],
			"name": "AddChildTAO",
			"type": "event"
		},
		{
			"anonymous": false,
			"inputs": [
				{
					"indexed": true,
					"name": "parentTAOId",
					"type": "address"
				},
				{
					"indexed": false,
					"name": "orphanTAOId",
					"type": "address"
				},
				{
					"indexed": false,
					"name": "nonce",
					"type": "uint256"
				}
			],
			"name": "AddOrphanTAO",
			"type": "event"
		},
		{
			"anonymous": false,
			"inputs": [
				{
					"indexed": true,
					"name": "listenerId",
					"type": "address"
				},
				{
					"indexed": false,
					"name": "parentTAOId",
					"type": "address"
				},
				{
					"indexed": false,
					"name": "orphanTAOId",
					"type": "address"
				},
				{
					"indexed": false,
					"name": "nonce",
					"type": "uint256"
				}
			],
			"name": "ApproveOrphanTAO",
			"type": "event"
		},
		{
			"anonymous": false,
			"inputs": [
				{
					"indexed": true,
					"name": "taoId",
					"type": "address"
				},
				{
					"indexed": false,
					"name": "locked",
					"type": "bool"
				},
				{
					"indexed": false,
					"name": "nonce",
					"type": "uint256"
				}
			],
			"name": "SetTAOLocked",
			"type": "event"
		},
		{
			"anonymous": false,
			"inputs": [
				{
					"indexed": true,
					"name": "taoId",
					"type": "address"
				},
				{
					"indexed": false,
					"name": "nonce",
					"type": "uint256"
				}
			],
			"name": "CloseTAO",
			"type": "event"
		},
		{
			"constant": true,
			"inputs": [
				{
					"name": "_taoName",
					"type": "string"
				}
			],
			"name": "isTAONameExist",
			"outputs": [
				{
					"name": "",
					"type": "bool"
				}
			],
			"payable": false,
			"stateMutability": "view",
			"type": "function"
		},
		{
			"constant": false,
			"inputs": [
				{
					"name": "_taoName",
					"type": "string"
				},
				{
					"name": "_datHash",
					"type": "string"
				},
				{
					"name": "_database",
					"type": "string"
				},
				{
					"name": "_keyValue",
					"type": "string"
				},
				{
					"name": "_contentId",
					"type": "bytes32"
				},
				{
					"name": "_from",
					"type": "address"
				}
			],
			"name": "createTAO",
			"outputs": [],
			"payable": false,
			"stateMutability": "nonpayable",
			"type": "function"
		},
		{
			"constant": true,
			"inputs": [
				{
					"name": "_taoId",
					"type": "address"
				}
			],
			"name": "getTAO",
			"outputs": [
				{
					"name": "",
					"type": "string"
				},
				{
					"name": "",
					"type": "string"
				},
				{
					"name": "",
					"type": "address"
				},
				{
					"name": "",
					"type": "string"
				},
				{
					"name": "",
					"type": "string"
				},
				{
					"name": "",
					"type": "string"
				},
				{
					"name": "",
					"type": "bytes32"
				},
				{
					"name": "",
					"type": "uint8"
				},
				{
					"name": "",
					"type": "uint256"
				}
			],
			"payable": false,
			"stateMutability": "view",
			"type": "function"
		},
		{
			"constant": true,
			"inputs": [
				{
					"name": "_taoId",
					"type": "address"
				}
			],
			"name": "getTAOPosition",
			"outputs": [
				{
					"name": "",
					"type": "address"
				},
				{
					"name": "",
					"type": "address"
				},
				{
					"name": "",
					"type": "address"
				}
			],
			"payable": false,
			"stateMutability": "view",
			"type": "function"
		},
		{
			"constant": true,
			"inputs": [
				{
					"name": "_taoName",
					"type": "string"
				}
			],
			"name": "getTAOIdByName",
			"outputs": [
				{
					"name": "",
					"type": "address"
				}
			],
			"payable": false,
			"stateMutability": "view",
			"type": "function"
		},
		{
			"constant": true,
			"inputs": [],
			"name": "getTotalTAOsCount",
			"outputs": [
				{
					"name": "",
					"type": "uint256"
				}
			],
			"payable": false,
			"stateMutability": "view",
			"type": "function"
		},
		{
			"constant": true,
			"inputs": [
				{
					"name": "_from",
					"type": "uint256"
				},
				{
					"name": "_to",
					"type": "uint256"
				}
			],
			"name": "getTAOIds",
			"outputs": [
				{
					"name": "",
					"type": "address[]"
				}
			],
			"payable": false,
			"stateMutability": "view",
			"type": "function"
		},
		{
			"constant": false,
			"inputs": [
				{
					"name": "_taoId",
					"type": "address"
				},
				{
					"name": "_newAdvocateId",
					"type": "address"
				}
			],
			"name": "setTAOAdvocate",
			"outputs": [],
			"payable": false,
			"stateMutability": "nonpayable",
			"type": "function"
		},
		{
			"constant": false,
			"inputs": [
				{
					"name": "_taoId",
					"type": "address"
				},
				{
					"name": "_newListenerId",
					"type": "address"
				}
			],
			"name": "setTAOListener",
			"outputs": [],
			"payable": false,
			"stateMutability": "nonpayable",
			"type": "function"
		},
		{
			"constant": false,
			"inputs": [
				{
					"name": "_taoId",
					"type": "address"
				},
				{
					"name": "_newSpeakerId",
					"type": "address"
				}
			],
			"name": "setTAOSpeaker",
			"outputs": [],
			"payable": false,
			"stateMutability": "nonpayable",
			"type": "function"
		},
		{
			"constant": true,
			"inputs": [
				{
					"name": "_taoId",
					"type": "address"
				}
			],
			"name": "getTAORelationship",
			"outputs": [
				{
					"name": "",
					"type": "address"
				},
				{
					"name": "",
					"type": "address"
				},
				{
					"name": "",
					"type": "address"
				}
			],
			"payable": false,
			"stateMutability": "view",
			"type": "function"
		},
		{
			"constant": true,
			"inputs": [
				{
					"name": "_taoId",
					"type": "address"
				},
				{
					"name": "_from",
					"type": "uint256"
				},
				{
					"name": "_to",
					"type": "uint256"
				}
			],
			"name": "getSubTAOIds",
			"outputs": [
				{
					"name": "",
					"type": "address[]"
				}
			],
			"payable": false,
			"stateMutability": "view",
			"type": "function"
		},
		{
			"constant": true,
			"inputs": [
				{
					"name": "_taoId",
					"type": "address"
				}
			],
			"name": "getTotalSubTAOsCount",
			"outputs": [
				{
					"name": "",
					"type": "uint256"
				}
			],
			"payable": false,
			"stateMutability": "view",
			"type": "function"
		},
		{
			"constant": true,
			"inputs": [
				{
					"name": "_taoId",
					"type": "address"
				}
			],
			"name": "getTotalChildTAOsCount",
			"outputs": [
				{
					"name": "",
					"type": "uint256"
				}
			],
			"payable": false,
			"stateMutability": "view",
			"type": "function"
		},
		{
			"constant": true,
			"inputs": [
				{
					"name": "_taoId",
					"type": "address"
				}
			],
			"name": "getTotalOrphanTAOsCount",
			"outputs": [
				{
					"name": "",
					"type": "uint256"
				}
			],
			"payable": false,
			"stateMutability": "view",
			"type": "function"
		},
		{
			"constant": true,
			"inputs": [
				{
					"name": "_taoId",
					"type": "address"
				},
				{
					"name": "_childTAOId",
					"type": "address"
				}
			],
			"name": "isChildTAOOfTAO",
			"outputs": [
				{
					"name": "",
					"type": "bool"
				}
			],
			"payable": false,
			"stateMutability": "view",
			"type": "function"
		},
		{
			"constant": true,
			"inputs": [
				{
					"name": "_taoId",
					"type": "address"
				},
				{
					"name": "_orphanTAOId",
					"type": "address"
				}
			],
			"name": "isOrphanTAOOfTAO",
			"outputs": [
				{
					"name": "",
					"type": "bool"
				}
			],
			"payable": false,
			"stateMutability": "view",
			"type": "function"
		},
		{
			"constant": false,
			"inputs": [
				{
					"name": "_taoId",
					"type": "address"
				},
				{
					"name": "_orphanTAOId",
					"type": "address"
				}
			],
			"name": "approveOrphanTAO",
			"outputs": [],
			"payable": false,
			"stateMutability": "nonpayable",
			"type": "function"
		},
		{
			"constant": false,
			"inputs": [
				{
					"name": "_taoId",
					"type": "address"
				},
				{
					"name": "_locked",
					"type": "bool"
				}
			],
			"name": "setTAOLocked",
			"outputs": [],
			"payable": false,
			"stateMutability": "nonpayable",
			"type": "function"
		},
		{
			"constant": false,
			"inputs": [
				{
					"name": "_taoId",
					"type": "address"
				}
			],
			"name": "closeTAO",
			"outputs": [],
			"payable": false,
			"stateMutability": "nonpayable",
			"type": "function"
		},
		{
			"constant": true,
			"inputs": [
				{
					"name": "_data",
					"type": "string"
				},
				{
					"name": "_nonce",
					"type": "uint256"
				},
				{
					"name": "_validateAddress",
					"type": "address"
				},
				{
					"name": "_taoName",
					"type": "string"
				},
				{
					"name": "_signatureV",
					"type": "uint8"
				},
				{
					"name": "_signatureR",
					"type": "bytes32"
				},
				{
					"name": "_signatureS",
					"type": "bytes32"
				}
			],
			"name": "validateTAOSignature",
			"outputs": [
				{
					"name": "",
					"type": "bool"
				},
				{
					"name": "",
					"type": "string"
				},
				{
					"name": "",
					"type": "uint256"
				}
			],
			"payable": false,
			"stateMutability": "view",
			"type": "function"
		}
	],
	"bytecode": "0x608060405234801561001057600080fd5b5060405160408061599083398101604052805160209091015160008054600160a060020a03938416600160a060020a03199182161791829055600180549385169382169390931792839055600280548216928516929092179091556003805490911691909216179055615908806100886000396000f300608060405260043610620001315763ffffffff60e060020a600035041663011c85d681146200013657806319e1622014620001745780631d8e642b14620001a0578063249ecc0214620001c457806324f9af1a14620002135780635cc474201462000237578063636a8bd714620002615780636cf605e914620002955780637f151ca114620002be57806383ec6b8b14620002e85780639d0e0cd3146200040f578063a4178da11462000439578063a44910b71462000495578063ba230bce14620004b9578063bc4062061462000515578063bda31446146200052d578063c43a16bf1462000557578063da3986e4146200057b578063da8ad6b614620005eb578063e6a196f3146200086d578063ea4132511462000897578063ed9c7c1114620008bb578063f5a7de721462000a04575b600080fd5b3480156200014357600080fd5b5062000160600160a060020a036004358116906024351662000a2e565b604080519115158252519081900360200190f35b3480156200018157600080fd5b506200019e600160a060020a036004358116906024351662000c03565b005b348015620001ad57600080fd5b506200019e600160a060020a036004351662000fec565b348015620001d157600080fd5b50620001e8600160a060020a036004351662001284565b60408051600160a060020a039485168152928416602084015292168183015290519081900360600190f35b3480156200022057600080fd5b50620001e8600160a060020a03600435166200141c565b3480156200024457600080fd5b506200019e600160a060020a036004358116906024351662001578565b3480156200026e57600080fd5b506200027962001961565b60408051600160a060020a039092168252519081900360200190f35b348015620002a257600080fd5b506200019e600160a060020a0360043516602435151562001970565b348015620002cb57600080fd5b506200019e600160a060020a036004358116906024351662001c34565b348015620002f557600080fd5b506040805160206004803580820135601f81018490048402850184019095528484526200019e94369492936024939284019190819084018382808284375050604080516020601f89358b018035918201839004830284018301909452808352979a99988101979196509182019450925082915084018382808284375050604080516020601f89358b018035918201839004830284018301909452808352979a99988101979196509182019450925082915084018382808284375050604080516020601f89358b018035918201839004830284018301909452808352979a9998810197919650918201945092508291508401838280828437509497505084359550505050602090910135600160a060020a0316905062001f5e565b3480156200041c57600080fd5b506200042762002aea565b60408051918252519081900360200190f35b3480156200044657600080fd5b506040805160206004803580820135601f81018490048402850184019095528484526200016094369492936024939284019190819084018382808284375094975062002af09650505050505050565b348015620004a257600080fd5b5062000427600160a060020a036004351662002cf4565b348015620004c657600080fd5b506040805160206004803580820135601f81018490048402850184019095528484526200027994369492936024939284019190819084018382808284375094975062002e0a9650505050505050565b3480156200052257600080fd5b506200027962002ef4565b3480156200053a57600080fd5b506200019e600160a060020a036004358116906024351662002f03565b3480156200056457600080fd5b5062000427600160a060020a0360043516620032ec565b3480156200058857600080fd5b5062000599600435602435620033cd565b60408051602080825283518183015283519192839290830191858101910280838360005b83811015620005d7578181015183820152602001620005bd565b505050509050019250505060405180910390f35b348015620005f857600080fd5b506200060f600160a060020a0360043516620034c5565b6040518080602001806020018a600160a060020a0316600160a060020a0316815260200180602001806020018060200189600019166000191681526020018860ff1660ff16815260200187815260200186810386528f818151815260200191508051906020019080838360005b83811015620006965781810151838201526020016200067c565b50505050905090810190601f168015620006c45780820380516001836020036101000a031916815260200191505b5086810385528e818151815260200191508051906020019080838360005b83811015620006fc578181015183820152602001620006e2565b50505050905090810190601f1680156200072a5780820380516001836020036101000a031916815260200191505b5086810384528c5181528c516020918201918e019080838360005b838110156200075f57818101518382015260200162000745565b50505050905090810190601f1680156200078d5780820380516001836020036101000a031916815260200191505b5086810383528b5181528b516020918201918d019080838360005b83811015620007c2578181015183820152602001620007a8565b50505050905090810190601f168015620007f05780820380516001836020036101000a031916815260200191505b5086810382528a5181528a516020918201918c019080838360005b83811015620008255781810151838201526020016200080b565b50505050905090810190601f168015620008535780820380516001836020036101000a031916815260200191505b509e50505050505050505050505050505060405180910390f35b3480156200087a57600080fd5b5062000160600160a060020a036004358116906024351662003b26565b348015620008a457600080fd5b5062000427600160a060020a036004351662003cc4565b348015620008c857600080fd5b506040805160206004803580820135601f81018490048402850184019095528484526200097a94369492936024939284019190819084018382808284375050604080516020888301358a018035601f8101839004830284018301909452838352979a89359a8a830135600160a060020a03169a919990985060609091019650919450908101925081908401838280828437509497505050833560ff169450505060208201359160400135905062003da5565b604080518415158152908101829052606060208083018281528551928401929092528451608084019186019080838360005b83811015620009c6578181015183820152602001620009ac565b50505050905090810190601f168015620009f45780820380516001836020036101000a031916815260200191505b5094505050505060405180910390f35b34801562000a1157600080fd5b5062000599600160a060020a036004351660243560443562004215565b60008273__AOLibrary_____________________________632fca5414826040518263ffffffff1660e060020a0281526004018082600160a060020a0316600160a060020a0316815260200191505060206040518083038186803b15801562000a9657600080fd5b505af415801562000aab573d6000803e3d6000fd5b505050506040513d602081101562000ac257600080fd5b5051151562000ad057600080fd5b8273__AOLibrary_____________________________632fca5414826040518263ffffffff1660e060020a0281526004018082600160a060020a0316600160a060020a0316815260200191505060206040518083038186803b15801562000b3657600080fd5b505af415801562000b4b573d6000803e3d6000fd5b505050506040513d602081101562000b6257600080fd5b5051151562000b7057600080fd5b84600160a060020a031663806f8bfc856040518263ffffffff1660e060020a0281526004018082600160a060020a0316600160a060020a03168152602001915050602060405180830381600087803b15801562000bcc57600080fd5b505af115801562000be1573d6000803e3d6000fd5b505050506040513d602081101562000bf857600080fd5b505195945050505050565b60008060008473__AOLibrary_____________________________632fca5414826040518263ffffffff1660e060020a0281526004018082600160a060020a0316600160a060020a0316815260200191505060206040518083038186803b15801562000c6e57600080fd5b505af415801562000c83573d6000803e3d6000fd5b505050506040513d602081101562000c9a57600080fd5b5051151562000ca857600080fd5b8473__AOLibrary_____________________________632d706a34826040518263ffffffff1660e060020a0281526004018082600160a060020a0316600160a060020a0316815260200191505060206040518083038186803b15801562000d0e57600080fd5b505af415801562000d23573d6000803e3d6000fd5b505050506040513d602081101562000d3a57600080fd5b5051151562000d4857600080fd5b6002546040805160e060020a63029b7d530281523360048201529051600092600160a060020a03169163029b7d5391602480830192602092919082900301818787803b15801562000d9857600080fd5b505af115801562000dad573d6000803e3d6000fd5b505050506040513d602081101562000dc457600080fd5b5051600160a060020a0316141562000ddb57600080fd5b6040805160e360020a631ef8075d028152336004820152600160a060020a03891660248201529051889173__AOLibrary_____________________________9163f7c03ae891604480820192602092909190829003018186803b15801562000e4257600080fd5b505af415801562000e57573d6000803e3d6000fd5b505050506040513d602081101562000e6e57600080fd5b5051151562000e7c57600080fd5b87955085600160a060020a031663c996ad256040518163ffffffff1660e060020a028152600401602060405180830381600087803b15801562000ebe57600080fd5b505af115801562000ed3573d6000803e3d6000fd5b505050506040513d602081101562000eea57600080fd5b5051604080517f0d9c8bca000000000000000000000000000000000000000000000000000000008152600160a060020a038a81166004830152915192975090881691630d9c8bca916024808201926020929091908290030181600087803b15801562000f5557600080fd5b505af115801562000f6a573d6000803e3d6000fd5b505050506040513d602081101562000f8157600080fd5b505193506000841162000f9357600080fd5b60408051600160a060020a03878116825289811660208301528183018790529151918a16917f77fc85a622d66968ad801c7a7c5d7ae0e0b53f7d50a68bf2611f137096bfd2cd9181900360600190a25050505050505050565b60008173__AOLibrary_____________________________632fca5414826040518263ffffffff1660e060020a0281526004018082600160a060020a0316600160a060020a0316815260200191505060206040518083038186803b1580156200105457600080fd5b505af415801562001069573d6000803e3d6000fd5b505050506040513d60208110156200108057600080fd5b505115156200108e57600080fd5b6002546040805160e060020a63029b7d530281523360048201529051600092600160a060020a03169163029b7d5391602480830192602092919082900301818787803b158015620010de57600080fd5b505af1158015620010f3573d6000803e3d6000fd5b505050506040513d60208110156200110a57600080fd5b5051600160a060020a031614156200112157600080fd5b6040805160e360020a631ef8075d028152336004820152600160a060020a03851660248201529051849173__AOLibrary_____________________________9163f7c03ae891604480820192602092909190829003018186803b1580156200118857600080fd5b505af41580156200119d573d6000803e3d6000fd5b505050506040513d6020811015620011b457600080fd5b50511515620011c257600080fd5b83600160a060020a03166343d726d66040518163ffffffff1660e060020a028152600401602060405180830381600087803b1580156200120157600080fd5b505af115801562001216573d6000803e3d6000fd5b505050506040513d60208110156200122d57600080fd5b50519250600083116200123f57600080fd5b604080518481529051600160a060020a038616917f665bcc75caed8eee88660a98dcd01d53436c067037baee8c4115aa7eaf030a83919081900360200190a250505050565b60008060008084905080600160a060020a0316632a9719a46040518163ffffffff1660e060020a028152600401602060405180830381600087803b158015620012cc57600080fd5b505af1158015620012e1573d6000803e3d6000fd5b505050506040513d6020811015620012f857600080fd5b5051604080517f68dcb66b0000000000000000000000000000000000000000000000000000000081529051600160a060020a038416916368dcb66b9160048083019260209291908290030181600087803b1580156200135657600080fd5b505af11580156200136b573d6000803e3d6000fd5b505050506040513d60208110156200138257600080fd5b5051604080517fb0759d080000000000000000000000000000000000000000000000000000000081529051600160a060020a0385169163b0759d089160048083019260209291908290030181600087803b158015620013e057600080fd5b505af1158015620013f5573d6000803e3d6000fd5b505050506040513d60208110156200140c57600080fd5b5051919790965090945092505050565b60008060008084905080600160a060020a0316632ef193b06040518163ffffffff1660e060020a028152600401602060405180830381600087803b1580156200146457600080fd5b505af115801562001479573d6000803e3d6000fd5b505050506040513d60208110156200149057600080fd5b5051604080517f6cf99a8f0000000000000000000000000000000000000000000000000000000081529051600160a060020a03841691636cf99a8f9160048083019260209291908290030181600087803b158015620014ee57600080fd5b505af115801562001503573d6000803e3d6000fd5b505050506040513d60208110156200151a57600080fd5b5051604080517fc996ad250000000000000000000000000000000000000000000000000000000081529051600160a060020a0385169163c996ad259160048083019260209291908290030181600087803b158015620013e057600080fd5b60008060008473__AOLibrary_____________________________632fca5414826040518263ffffffff1660e060020a0281526004018082600160a060020a0316600160a060020a0316815260200191505060206040518083038186803b158015620015e357600080fd5b505af4158015620015f8573d6000803e3d6000fd5b505050506040513d60208110156200160f57600080fd5b505115156200161d57600080fd5b8473__AOLibrary_____________________________632d706a34826040518263ffffffff1660e060020a0281526004018082600160a060020a0316600160a060020a0316815260200191505060206040518083038186803b1580156200168357600080fd5b505af415801562001698573d6000803e3d6000fd5b505050506040513d6020811015620016af57600080fd5b50511515620016bd57600080fd5b6002546040805160e060020a63029b7d530281523360048201529051600092600160a060020a03169163029b7d5391602480830192602092919082900301818787803b1580156200170d57600080fd5b505af115801562001722573d6000803e3d6000fd5b505050506040513d60208110156200173957600080fd5b5051600160a060020a031614156200175057600080fd5b6040805160e360020a631ef8075d028152336004820152600160a060020a03891660248201529051889173__AOLibrary_____________________________9163f7c03ae891604480820192602092909190829003018186803b158015620017b757600080fd5b505af4158015620017cc573d6000803e3d6000fd5b505050506040513d6020811015620017e357600080fd5b50511515620017f157600080fd5b87955085600160a060020a0316632ef193b06040518163ffffffff1660e060020a028152600401602060405180830381600087803b1580156200183357600080fd5b505af115801562001848573d6000803e3d6000fd5b505050506040513d60208110156200185f57600080fd5b5051604080517fb000fba3000000000000000000000000000000000000000000000000000000008152600160a060020a038a8116600483015291519297509088169163b000fba3916024808201926020929091908290030181600087803b158015620018ca57600080fd5b505af1158015620018df573d6000803e3d6000fd5b505050506040513d6020811015620018f657600080fd5b50519350600084116200190857600080fd5b60408051600160a060020a03878116825289811660208301528183018790529151918a16917ffac731a16f491addb623bb6e9e7a1b8ace20eb6d87f5073cf057d6d9db326c1b9181900360600190a25050505050505050565b600154600160a060020a031681565b60008273__AOLibrary_____________________________632fca5414826040518263ffffffff1660e060020a0281526004018082600160a060020a0316600160a060020a0316815260200191505060206040518083038186803b158015620019d857600080fd5b505af4158015620019ed573d6000803e3d6000fd5b505050506040513d602081101562001a0457600080fd5b5051151562001a1257600080fd5b6002546040805160e060020a63029b7d530281523360048201529051600092600160a060020a03169163029b7d5391602480830192602092919082900301818787803b15801562001a6257600080fd5b505af115801562001a77573d6000803e3d6000fd5b505050506040513d602081101562001a8e57600080fd5b5051600160a060020a0316141562001aa557600080fd5b6040805160e360020a631ef8075d028152336004820152600160a060020a03861660248201529051859173__AOLibrary_____________________________9163f7c03ae891604480820192602092909190829003018186803b15801562001b0c57600080fd5b505af415801562001b21573d6000803e3d6000fd5b505050506040513d602081101562001b3857600080fd5b5051151562001b4657600080fd5b604080517f211e28b600000000000000000000000000000000000000000000000000000000815285151560048201529051600160a060020a0387169163211e28b69160248083019260209291908290030181600087803b15801562001baa57600080fd5b505af115801562001bbf573d6000803e3d6000fd5b505050506040513d602081101562001bd657600080fd5b505192506000831162001be857600080fd5b604080518515158152602081018590528151600160a060020a038816927f2a0aeeb832f163ca938b8b66cf278052dd8dd6fb2c64b6ab059d357f665dd389928290030190a25050505050565b6002546040805160e060020a63029b7d53028152336004820152905160009283928392600160a060020a039092169163029b7d539160248082019260209290919082900301818787803b15801562001c8b57600080fd5b505af115801562001ca0573d6000803e3d6000fd5b505050506040513d602081101562001cb757600080fd5b5051600160a060020a0316141562001cce57600080fd5b62001cda848462003b26565b151562001ce657600080fd5b83915033600160a060020a031682600160a060020a0316636cf99a8f6040518163ffffffff1660e060020a028152600401602060405180830381600087803b15801562001d3257600080fd5b505af115801562001d47573d6000803e3d6000fd5b505050506040513d602081101562001d5e57600080fd5b5051604080517f13866efa0000000000000000000000000000000000000000000000000000000081529051600160a060020a03909216916313866efa916004808201926020929091908290030181600087803b15801562001dbe57600080fd5b505af115801562001dd3573d6000803e3d6000fd5b505050506040513d602081101562001dea57600080fd5b5051600160a060020a03161462001e0057600080fd5b81600160a060020a0316630cb8eb3a846040518263ffffffff1660e060020a0281526004018082600160a060020a0316600160a060020a03168152602001915050602060405180830381600087803b15801562001e5c57600080fd5b505af115801562001e71573d6000803e3d6000fd5b505050506040513d602081101562001e8857600080fd5b505190506000811162001e9a57600080fd5b81600160a060020a0316636cf99a8f6040518163ffffffff1660e060020a028152600401602060405180830381600087803b15801562001ed957600080fd5b505af115801562001eee573d6000803e3d6000fd5b505050506040513d602081101562001f0557600080fd5b505160408051600160a060020a0387811682528681166020830152818301859052915191909216917fce59d66c83fb77eacde7aa7fb3d9cd3c2d750bb720cd8b0755bb7f005d14a258919081900360600190a250505050565b6002546040805160e060020a63029b7d53028152336004820152905160009283928392839283928392600160a060020a039092169163029b7d539160248082019260209290919082900301818787803b15801562001fbb57600080fd5b505af115801562001fd0573d6000803e3d6000fd5b505050506040513d602081101562001fe757600080fd5b5051600160a060020a0316141562001ffe57600080fd5b8a516000106200200d57600080fd5b620020188b62002af0565b156200202357600080fd5b6002546040805160e060020a63029b7d530281523360048201529051600160a060020a039092169163029b7d53916024808201926020929091908290030181600087803b1580156200207457600080fd5b505af115801562002089573d6000803e3d6000fd5b505050506040513d6020811015620020a057600080fd5b50519450600160a060020a038616158015906200213c57506000600160a060020a031686600160a060020a03166313866efa6040518163ffffffff1660e060020a028152600401602060405180830381600087803b1580156200210257600080fd5b505af115801562002117573d6000803e3d6000fd5b505050506040513d60208110156200212e57600080fd5b5051600160a060020a031614155b15156200214857600080fd5b8593506000925083600160a060020a0316632c4dd5256040518163ffffffff1660e060020a028152600401602060405180830381600087803b1580156200218e57600080fd5b505af1158015620021a3573d6000803e3d6000fd5b505050506040513d6020811015620021ba57600080fd5b505160ff161580156200224b575084600160a060020a031684600160a060020a0316632ef193b06040518163ffffffff1660e060020a028152600401602060405180830381600087803b1580156200221157600080fd5b505af115801562002226573d6000803e3d6000fd5b505050506040513d60208110156200223d57600080fd5b5051600160a060020a031614155b1562002258578493508592505b84600160a060020a03166361fac54d6040518163ffffffff1660e060020a028152600401600060405180830381600087803b1580156200229757600080fd5b505af1158015620022ac573d6000803e3d6000fd5b505050506040513d6000823e601f3d908101601f191682016040526020811015620022d657600080fd5b810190808051640100000000811115620022ef57600080fd5b820160208101848111156200230357600080fd5b81516401000000008111828201871017156200231e57600080fd5b50509291905050508b868c8c8c8c8a8a6200233862004639565b8080602001806020018a600160a060020a0316600160a060020a03168152602001806020018060200180602001896000191660001916815260200188600160a060020a0316600160a060020a0316815260200187600160a060020a0316600160a060020a0316815260200186810386528f818151815260200191508051906020019080838360005b83811015620023da578181015183820152602001620023c0565b50505050905090810190601f168015620024085780820380516001836020036101000a031916815260200191505b5086810385528e818151815260200191508051906020019080838360005b838110156200244057818101518382015260200162002426565b50505050905090810190601f1680156200246e5780820380516001836020036101000a031916815260200191505b5086810384528c5181528c516020918201918e019080838360005b83811015620024a357818101518382015260200162002489565b50505050905090810190601f168015620024d15780820380516001836020036101000a031916815260200191505b5086810383528b5181528b516020918201918d019080838360005b8381101562002506578181015183820152602001620024ec565b50505050905090810190601f168015620025345780820380516001836020036101000a031916815260200191505b5086810382528a5181528a516020918201918c019080838360005b83811015620025695781810151838201526020016200254f565b50505050905090810190601f168015620025975780820380516001836020036101000a031916815260200191505b509e505050505050505050505050505050604051809103906000f080158015620025c5573d6000803e3d6000fd5b50915081600560008d6040516020018082805190602001908083835b60208310620026025780518252601f199092019160209182019101620025e1565b6001836020036101000a0380198251168184511680821785525050505050509050019150506040516020818303038152906040526040518082805190602001908083835b60208310620026675780518252601f19909201916020918201910162002646565b51815160209384036101000a600019018019909216911617905260408051929094018290039091208652850195909552929092016000908120805473ffffffffffffffffffffffffffffffffffffffff19908116600160a060020a03978816179091556004805460018181018355938290527f8a35acfbc15ff81a39ae7d344fd709f28e8600b4aa8c65c6b64bfe7fe36bd19b018054909216968916969096179055935433947f0ab299cabf08d1aff2a1c72255d4f3c6c6b4f656b9d6737056a9f9ac0871c24c94508a9350879250620027429190620043c0565b8889600160a060020a0316632c4dd5256040518163ffffffff1660e060020a028152600401602060405180830381600087803b1580156200278257600080fd5b505af115801562002797573d6000803e3d6000fd5b505050506040513d6020811015620027ae57600080fd5b505160408051600160a060020a039687168152948616602086015284810193909352908416606084015260ff16608083015291871660a082015290519081900360c00190a285600160a060020a0316632c4dd5256040518163ffffffff1660e060020a028152600401602060405180830381600087803b1580156200283257600080fd5b505af115801562002847573d6000803e3d6000fd5b505050506040513d60208110156200285e57600080fd5b505160ff16151562002add5784600160a060020a031686600160a060020a0316632ef193b06040518163ffffffff1660e060020a028152600401602060405180830381600087803b158015620028b357600080fd5b505af1158015620028c8573d6000803e3d6000fd5b505050506040513d6020811015620028df57600080fd5b5051600160a060020a03161415620029e857604080517f9fd0b0e7000000000000000000000000000000000000000000000000000000008152600160a060020a03848116600483015260016024830152915191881691639fd0b0e7916044808201926020929091908290030181600087803b1580156200295e57600080fd5b505af115801562002973573d6000803e3d6000fd5b505050506040513d60208110156200298a57600080fd5b50519050600081116200299c57600080fd5b60408051600160a060020a038481168252602082018490528251908916927f2a875fe70326f4b2bd5aaf50226f54bd66244f34caa7d08d63f780114c7aa6fb928290030190a262002add565b604080517f9fd0b0e7000000000000000000000000000000000000000000000000000000008152600160a060020a038481166004830152600060248301819052925190891692639fd0b0e792604480820193602093909283900390910190829087803b15801562002a5857600080fd5b505af115801562002a6d573d6000803e3d6000fd5b505050506040513d602081101562002a8457600080fd5b505190506000811162002a9657600080fd5b60408051600160a060020a038481168252602082018490528251908916927f73289b492cff57cef42e46db9c2b67720a2336c0e406977d856f890c4d8bf8f6928290030190a25b5050505050505050505050565b60045490565b600080600160a060020a031660056000846040516020018082805190602001908083835b6020831062002b355780518252601f19909201916020918201910162002b14565b6001836020036101000a0380198251168184511680821785525050505050509050019150506040516020818303038152906040526040518082805190602001908083835b6020831062002b9a5780518252601f19909201916020918201910162002b79565b51815160209384036101000a6000190180199092169116179052604080519290940182900390912086528501959095529290920160002054600160a060020a03169390931415925082915062002cee905057506002546040517f1742107c000000000000000000000000000000000000000000000000000000008152602060048201818152855160248401528551600094600160a060020a031693631742107c938893928392604401918501908083838b5b8381101562002c6657818101518382015260200162002c4c565b50505050905090810190601f16801562002c945780820380516001836020036101000a031916815260200191505b5092505050602060405180830381600087803b15801562002cb457600080fd5b505af115801562002cc9573d6000803e3d6000fd5b505050506040513d602081101562002ce057600080fd5b5051600160a060020a031614155b92915050565b60008173__AOLibrary_____________________________632fca5414826040518263ffffffff1660e060020a0281526004018082600160a060020a0316600160a060020a0316815260200191505060206040518083038186803b15801562002d5c57600080fd5b505af415801562002d71573d6000803e3d6000fd5b505050506040513d602081101562002d8857600080fd5b5051151562002d9657600080fd5b82600160a060020a0316635db6fd636040518163ffffffff1660e060020a028152600401602060405180830381600087803b15801562002dd557600080fd5b505af115801562002dea573d6000803e3d6000fd5b505050506040513d602081101562002e0157600080fd5b50519392505050565b600060056000836040516020018082805190602001908083835b6020831062002e455780518252601f19909201916020918201910162002e24565b6001836020036101000a0380198251168184511680821785525050505050509050019150506040516020818303038152906040526040518082805190602001908083835b6020831062002eaa5780518252601f19909201916020918201910162002e89565b51815160209384036101000a6000190180199092169116179052604080519290940182900390912086528501959095529290920160002054600160a060020a031695945050505050565b600054600160a060020a031681565b60008060008473__AOLibrary_____________________________632fca5414826040518263ffffffff1660e060020a0281526004018082600160a060020a0316600160a060020a0316815260200191505060206040518083038186803b15801562002f6e57600080fd5b505af415801562002f83573d6000803e3d6000fd5b505050506040513d602081101562002f9a57600080fd5b5051151562002fa857600080fd5b8473__AOLibrary_____________________________632d706a34826040518263ffffffff1660e060020a0281526004018082600160a060020a0316600160a060020a0316815260200191505060206040518083038186803b1580156200300e57600080fd5b505af415801562003023573d6000803e3d6000fd5b505050506040513d60208110156200303a57600080fd5b505115156200304857600080fd5b6002546040805160e060020a63029b7d530281523360048201529051600092600160a060020a03169163029b7d5391602480830192602092919082900301818787803b1580156200309857600080fd5b505af1158015620030ad573d6000803e3d6000fd5b505050506040513d6020811015620030c457600080fd5b5051600160a060020a03161415620030db57600080fd5b6040805160e360020a631ef8075d028152336004820152600160a060020a03891660248201529051889173__AOLibrary_____________________________9163f7c03ae891604480820192602092909190829003018186803b1580156200314257600080fd5b505af415801562003157573d6000803e3d6000fd5b505050506040513d60208110156200316e57600080fd5b505115156200317c57600080fd5b87955085600160a060020a0316636cf99a8f6040518163ffffffff1660e060020a028152600401602060405180830381600087803b158015620031be57600080fd5b505af1158015620031d3573d6000803e3d6000fd5b505050506040513d6020811015620031ea57600080fd5b5051604080517fadcd905b000000000000000000000000000000000000000000000000000000008152600160a060020a038a8116600483015291519297509088169163adcd905b916024808201926020929091908290030181600087803b1580156200325557600080fd5b505af11580156200326a573d6000803e3d6000fd5b505050506040513d60208110156200328157600080fd5b50519350600084116200329357600080fd5b60408051600160a060020a03878116825289811660208301528183018790529151918a16917f23491f0ef3aba364c8fdd0623418e9e90385fd2c9706c7c96a1c438e4cddc9799181900360600190a25050505050505050565b60008173__AOLibrary_____________________________632fca5414826040518263ffffffff1660e060020a0281526004018082600160a060020a0316600160a060020a0316815260200191505060206040518083038186803b1580156200335457600080fd5b505af415801562003369573d6000803e3d6000fd5b505050506040513d60208110156200338057600080fd5b505115156200338e57600080fd5b82600160a060020a031663f00b1dc06040518163ffffffff1660e060020a028152600401602060405180830381600087803b15801562002dd557600080fd5b6060806000808510158015620033e35750848410155b8015620033f1575060045484105b1515620033fd57600080fd5b62003422600162003415868863ffffffff620043c016565b9063ffffffff620043d316565b6040519080825280602002602001820160405280156200344c578160200160208202803883390190505b5091508490505b838111620034bd5760048054829081106200346a57fe5b600091825260209091200154600160a060020a03168262003492838863ffffffff620043c016565b815181106200349d57fe5b600160a060020a0390921660209283029091019091015260010162003453565b509392505050565b606080600060608060606000806000808a905080600160a060020a03166361fac54d6040518163ffffffff1660e060020a028152600401600060405180830381600087803b1580156200351757600080fd5b505af11580156200352c573d6000803e3d6000fd5b505050506040513d6000823e601f3d908101601f1916820160405260208110156200355657600080fd5b8101908080516401000000008111156200356f57600080fd5b820160208101848111156200358357600080fd5b81516401000000008111828201871017156200359e57600080fd5b505092919050505081600160a060020a0316635745bb6c6040518163ffffffff1660e060020a028152600401600060405180830381600087803b158015620035e557600080fd5b505af1158015620035fa573d6000803e3d6000fd5b505050506040513d6000823e601f3d908101601f1916820160405260208110156200362457600080fd5b8101908080516401000000008111156200363d57600080fd5b820160208101848111156200365157600080fd5b81516401000000008111828201871017156200366c57600080fd5b505092919050505082600160a060020a03166313866efa6040518163ffffffff1660e060020a028152600401602060405180830381600087803b158015620036b357600080fd5b505af1158015620036c8573d6000803e3d6000fd5b505050506040513d6020811015620036df57600080fd5b5051604080517f056847900000000000000000000000000000000000000000000000000000000081529051600160a060020a03861691630568479091600480830192600092919082900301818387803b1580156200373c57600080fd5b505af115801562003751573d6000803e3d6000fd5b505050506040513d6000823e601f3d908101601f1916820160405260208110156200377b57600080fd5b8101908080516401000000008111156200379457600080fd5b82016020810184811115620037a857600080fd5b8151640100000000811182820187101715620037c357600080fd5b505092919050505084600160a060020a031663713b563f6040518163ffffffff1660e060020a028152600401600060405180830381600087803b1580156200380a57600080fd5b505af11580156200381f573d6000803e3d6000fd5b505050506040513d6000823e601f3d908101601f1916820160405260208110156200384957600080fd5b8101908080516401000000008111156200386257600080fd5b820160208101848111156200387657600080fd5b81516401000000008111828201871017156200389157600080fd5b505092919050505085600160a060020a031663a727be576040518163ffffffff1660e060020a028152600401600060405180830381600087803b158015620038d857600080fd5b505af1158015620038ed573d6000803e3d6000fd5b505050506040513d6000823e601f3d908101601f1916820160405260208110156200391757600080fd5b8101908080516401000000008111156200393057600080fd5b820160208101848111156200394457600080fd5b81516401000000008111828201871017156200395f57600080fd5b505092919050505086600160a060020a031663d97aa9776040518163ffffffff1660e060020a028152600401602060405180830381600087803b158015620039a657600080fd5b505af1158015620039bb573d6000803e3d6000fd5b505050506040513d6020811015620039d257600080fd5b5051604080517f2c4dd5250000000000000000000000000000000000000000000000000000000081529051600160a060020a038a1691632c4dd5259160048083019260209291908290030181600087803b15801562003a3057600080fd5b505af115801562003a45573d6000803e3d6000fd5b505050506040513d602081101562003a5c57600080fd5b5051604080517faffed0e00000000000000000000000000000000000000000000000000000000081529051600160a060020a038b169163affed0e09160048083019260209291908290030181600087803b15801562003aba57600080fd5b505af115801562003acf573d6000803e3d6000fd5b505050506040513d602081101562003ae657600080fd5b8101908080519060200190929190505050889850879750859550849450839350995099509950995099509950995099509950509193959799909294969850565b60008273__AOLibrary_____________________________632fca5414826040518263ffffffff1660e060020a0281526004018082600160a060020a0316600160a060020a0316815260200191505060206040518083038186803b15801562003b8e57600080fd5b505af415801562003ba3573d6000803e3d6000fd5b505050506040513d602081101562003bba57600080fd5b5051151562003bc857600080fd5b8273__AOLibrary_____________________________632fca5414826040518263ffffffff1660e060020a0281526004018082600160a060020a0316600160a060020a0316815260200191505060206040518083038186803b15801562003c2e57600080fd5b505af415801562003c43573d6000803e3d6000fd5b505050506040513d602081101562003c5a57600080fd5b5051151562003c6857600080fd5b84600160a060020a031663ac7a4203856040518263ffffffff1660e060020a0281526004018082600160a060020a0316600160a060020a03168152602001915050602060405180830381600087803b15801562000bcc57600080fd5b60008173__AOLibrary_____________________________632fca5414826040518263ffffffff1660e060020a0281526004018082600160a060020a0316600160a060020a0316815260200191505060206040518083038186803b15801562003d2c57600080fd5b505af415801562003d41573d6000803e3d6000fd5b505050506040513d602081101562003d5857600080fd5b5051151562003d6657600080fd5b82600160a060020a0316634ed5aca16040518163ffffffff1660e060020a028152600401602060405180830381600087803b15801562002dd557600080fd5b6000606060008062003db78862002e0a565b604080517f2fca5414000000000000000000000000000000000000000000000000000000008152600160a060020a0383166004820152905173__AOLibrary_____________________________91632fca5414916024808301926020929190829003018186803b15801562003e2b57600080fd5b505af415801562003e40573d6000803e3d6000fd5b505050506040513d602081101562003e5757600080fd5b5051151562003e6557600080fd5b73__AOLibrary_____________________________63271b5311308e8e8c8c8c6040518763ffffffff1660e060020a0281526004018087600160a060020a0316600160a060020a03168152602001806020018681526020018560ff1660ff16815260200184600019166000191681526020018360001916600019168152602001828103825287818151815260200191508051906020019080838360005b8381101562003f1c57818101518382015260200162003f02565b50505050905090810190601f16801562003f4a5780820380516001836020036101000a031916815260200191505b5097505050505050505060206040518083038186803b15801562003f6d57600080fd5b505af415801562003f82573d6000803e3d6000fd5b505050506040513d602081101562003f9957600080fd5b5051915062003fb58a8362003fae8c62002e0a565b8e620043e1565b15620041ee576002546040805160e060020a63029b7d53028152600160a060020a0385811660048301529151600193929092169163029b7d53916024808201926020929091908290030181600087803b1580156200401257600080fd5b505af115801562004027573d6000803e3d6000fd5b505050506040513d60208110156200403e57600080fd5b5051604080517f61fac54d0000000000000000000000000000000000000000000000000000000081529051600160a060020a03909216916361fac54d9160048082019260009290919082900301818387803b1580156200409d57600080fd5b505af1158015620040b2573d6000803e3d6000fd5b505050506040513d6000823e601f3d908101601f191682016040526020811015620040dc57600080fd5b810190808051640100000000811115620040f557600080fd5b820160208101848111156200410957600080fd5b81516401000000008111828201871017156200412457600080fd5b505060005490935073__AOLibrary_____________________________925063b5d2a3db9150600160a060020a0316866200415f8f62002e0a565b6040805160e060020a63ffffffff8716028152600160a060020a03948516600482015292841660248401529216604482015290516064808301926020929190829003018186803b158015620041b357600080fd5b505af4158015620041c8573d6000803e3d6000fd5b505050506040513d6020811015620041df57600080fd5b50519196509450925062004206565b60408051602081019091526000808252955093508492505b50509750975097945050505050565b60608373__AOLibrary_____________________________632fca5414826040518263ffffffff1660e060020a0281526004018082600160a060020a0316600160a060020a0316815260200191505060206040518083038186803b1580156200427d57600080fd5b505af415801562004292573d6000803e3d6000fd5b505050506040513d6020811015620042a957600080fd5b50511515620042b757600080fd5b60018410158015620042c95750838310155b1515620042d557600080fd5b84600160a060020a031663c86cc85a85856040518363ffffffff1660e060020a0281526004018083815260200182815260200192505050600060405180830381600087803b1580156200432757600080fd5b505af11580156200433c573d6000803e3d6000fd5b505050506040513d6000823e601f3d908101601f1916820160405260208110156200436657600080fd5b8101908080516401000000008111156200437f57600080fd5b820160208101848111156200439357600080fd5b8151856020820283011164010000000082111715620043b157600080fd5b50909998505050505050505050565b600082821115620043cd57fe5b50900390565b8181018281101562002cee57fe5b600082600160a060020a038616156200455a5762004474600182600160a060020a031663affed0e06040518163ffffffff1660e060020a028152600401602060405180830381600087803b1580156200443957600080fd5b505af11580156200444e573d6000803e3d6000fd5b505050506040513d60208110156200446557600080fd5b50519063ffffffff620043d316565b8314801562004494575085600160a060020a031685600160a060020a0316145b8015620045525750600054604080517f0855c5c9000000000000000000000000000000000000000000000000000000008152600160a060020a039283166004820152888316602482015291861660448301525173__AOLibrary_____________________________91630855c5c9916064808301926020929190829003018186803b1580156200452357600080fd5b505af415801562004538573d6000803e3d6000fd5b505050506040513d60208110156200454f57600080fd5b50515b915062004630565b6200459f600182600160a060020a031663affed0e06040518163ffffffff1660e060020a028152600401602060405180830381600087803b1580156200443957600080fd5b83148015620045525750600054604080517f0855c5c9000000000000000000000000000000000000000000000000000000008152600160a060020a039283166004820152878316602482015291861660448301525173__AOLibrary_____________________________91630855c5c9916064808301926020929190829003018186803b1580156200452357600080fd5b50949350505050565b604051611292806200464b83390190560060806040523480156200001157600080fd5b5060405162001292380380620012928339810160409081528151602080840151928401516060850151608086015160a087015160c088015160e08901516101008a0151600080546201000060b060020a031916336201000002179055978a018051909a998a0199969895870197948701969390930194919390926200009d91600191908c019062000196565b508751620000b39060029060208b019062000196565b5060038054600160a060020a038916600160a060020a031991821681179092556004805490911690911790558551620000f490600790602089019062000196565b5084516200010a90600890602088019062000196565b5083516200012090600990602087019062000196565b50600a92909255600b8054600d8054600160a060020a03958616600160a060020a03199182161790915560045460058054831691871691821790556006805490921617905560ff19929093166101000261010060a860020a03199093169290921716905550506001601255506200023b92505050565b828054600181600116156101000203166002900490600052602060002090601f016020900481019282601f10620001d957805160ff191683800117855562000209565b8280016001018555821562000209579182015b8281111562000209578251825591602001919060010190620001ec565b50620002179291506200021b565b5090565b6200023891905b8082111562000217576000815560010162000222565b90565b611047806200024b6000396000f3006080604052600436106101ab5763ffffffff7c01000000000000000000000000000000000000000000000000000000006000350416630568479081146101e95780630cb8eb3a146102735780630d9c8bca146102a657806313866efa146102c7578063211e28b6146102f85780632a9719a4146103125780632c4dd525146103275780632ef193b014610352578063346b584e1461036757806343d726d6146103a95780634ed5aca1146103be5780635745bb6c146103d3578063597e1fb5146103e85780635db6fd631461041157806361fac54d1461042657806368dcb66b1461043b5780636cf99a8f14610450578063713b563f14610465578063806f8bfc1461047a578063966dae0e1461049b5780639fd0b0e7146104b0578063a727be57146104d6578063ac7a4203146104eb578063adcd905b1461050c578063affed0e01461052d578063b000fba314610542578063b0759d0814610563578063b69ef8a814610578578063c86cc85a1461058d578063c996ad25146105f8578063cf3090121461060d578063d97aa97714610622578063e746dc9f14610637578063f00b1dc014610658575b60005460ff161580156101c65750600054610100900460ff16155b15156101d157600080fd5b6011546101e4903463ffffffff61066d16565b601155005b3480156101f557600080fd5b506101fe610680565b6040805160208082528351818301528351919283929083019185019080838360005b83811015610238578181015183820152602001610220565b50505050905090810190601f1680156102655780820380516001836020036101000a031916815260200191505b509250505060405180910390f35b34801561027f57600080fd5b50610294600160a060020a036004351661070e565b60408051918252519081900360200190f35b3480156102b257600080fd5b50610294600160a060020a03600435166107c0565b3480156102d357600080fd5b506102dc610854565b60408051600160a060020a039092168252519081900360200190f35b34801561030457600080fd5b506102946004351515610863565b34801561031e57600080fd5b506102dc6108b6565b34801561033357600080fd5b5061033c6108ca565b6040805160ff9092168252519081900360200190f35b34801561035e57600080fd5b506102dc6108d3565b34801561037357600080fd5b5061037f6004356108e2565b60408051600160a060020a0390941684529115156020840152151582820152519081900360600190f35b3480156103b557600080fd5b50610294610913565b3480156103ca57600080fd5b50610294610964565b3480156103df57600080fd5b506101fe61096a565b3480156103f457600080fd5b506103fd6109c2565b604080519115158252519081900360200190f35b34801561041d57600080fd5b506102946109d0565b34801561043257600080fd5b506101fe6109d6565b34801561044757600080fd5b506102dc610a30565b34801561045c57600080fd5b506102dc610a3f565b34801561047157600080fd5b506101fe610a4e565b34801561048657600080fd5b506103fd600160a060020a0360043516610aa9565b3480156104a757600080fd5b506102dc610b36565b3480156104bc57600080fd5b50610294600160a060020a03600435166024351515610b4b565b3480156104e257600080fd5b506101fe610c92565b3480156104f757600080fd5b506103fd600160a060020a0360043516610ced565b34801561051857600080fd5b50610294600160a060020a0360043516610d7a565b34801561053957600080fd5b50610294610e0e565b34801561054e57600080fd5b50610294600160a060020a0360043516610e14565b34801561056f57600080fd5b506102dc610eb8565b34801561058457600080fd5b50610294610ec7565b34801561059957600080fd5b506105a8600435602435610ecd565b60408051602080825283518183015283519192839290830191858101910280838360005b838110156105e45781810151838201526020016105cc565b505050509050019250505060405180910390f35b34801561060457600080fd5b506102dc610fd3565b34801561061957600080fd5b506103fd610fe2565b34801561062e57600080fd5b50610294610feb565b34801561064357600080fd5b50610294600160a060020a0360043516610ff1565b34801561066457600080fd5b50610294611003565b8181018281101561067a57fe5b92915050565b6007805460408051602060026001851615610100026000190190941693909304601f810184900484028201840190925281815292918301828280156107065780601f106106db57610100808354040283529160200191610706565b820191906000526020600020905b8154815290600101906020018083116106e957829003601f168201915b505050505081565b60008054819060ff1615801561072c5750600054610100900460ff16155b151561073757600080fd5b600054620100009004600160a060020a0316331461075457600080fd5b5050600160a060020a0316600090815260146020908152604080832054835260139091529020805474ff0000000000000000000000000000000000000000191660a060020a179055600e80546001908101909155600f8054600019019055601280549091019081905590565b6000805460ff161580156107dc5750600054610100900460ff16155b15156107e757600080fd5b600054620100009004600160a060020a0316331461080457600080fd5b600160a060020a038216151561081957600080fd5b5060068054600160a060020a03831673ffffffffffffffffffffffffffffffffffffffff199091161790556012805460010190819055919050565b600354600160a060020a031681565b60008054620100009004600160a060020a0316331461088157600080fd5b600054610100900460ff161561089657600080fd5b506000805460ff1916911515919091179055601280546001019081905590565b600b546101009004600160a060020a031681565b600b5460ff1681565b600454600160a060020a031681565b601360205260009081526040902054600160a060020a0381169060ff60a060020a820481169160a860020a90041683565b60008054620100009004600160a060020a0316331461093157600080fd5b600054610100900460ff161561094657600080fd5b506000805461ff001916610100179055601280546001019081905590565b600e5481565b6002805460408051602060018416156101000260001901909316849004601f810184900484028201840190925281815292918301828280156107065780601f106106db57610100808354040283529160200191610706565b600054610100900460ff1681565b600f5481565b60018054604080516020600284861615610100026000190190941693909304601f810184900484028201840190925281815292918301828280156107065780601f106106db57610100808354040283529160200191610706565b600c54600160a060020a031681565b600554600160a060020a031681565b6008805460408051602060026001851615610100026000190190941693909304601f810184900484028201840190925281815292918301828280156107065780601f106106db57610100808354040283529160200191610706565b600160a060020a03811660009081526014602052604081205481108015610afc5750600160a060020a0382166000908152601460209081526040808320548352601390915290205460a060020a900460ff165b801561067a575050600160a060020a03166000908152601460209081526040808320548352601390915290205460a860020a900460ff1690565b600054620100009004600160a060020a031681565b60008054819060ff16158015610b695750600054610100900460ff16155b1515610b7457600080fd5b600054620100009004600160a060020a03163314610b9157600080fd5b600160a060020a0384161515610ba657600080fd5b600160a060020a03841660009081526014602052604090205415610bc957600080fd5b6010805460010190558215610be657600e80546001019055610bf0565b600f805460010190555b5050601054600160a060020a039290921660008181526014602090815260408083208690559482526013905292909220805475ff0000000000000000000000000000000000000000001992151560a060020a0274ff00000000000000000000000000000000000000001973ffffffffffffffffffffffffffffffffffffffff1990921690941716929092171660a860020a179055601280546001019081905590565b6009805460408051602060026001851615610100026000190190941693909304601f810184900484028201840190925281815292918301828280156107065780601f106106db57610100808354040283529160200191610706565b600160a060020a03811660009081526014602052604081205481108015610afc5750600160a060020a0382166000908152601460209081526040808320548352601390915290205460a060020a900460ff1615801561067a575050600160a060020a03166000908152601460209081526040808320548352601390915290205460a860020a900460ff1690565b6000805460ff16158015610d965750600054610100900460ff16155b1515610da157600080fd5b600054620100009004600160a060020a03163314610dbe57600080fd5b600160a060020a0382161515610dd357600080fd5b5060058054600160a060020a03831673ffffffffffffffffffffffffffffffffffffffff199091161790556012805460010190819055919050565b60125481565b6000805460ff16158015610e305750600054610100900460ff16155b1515610e3b57600080fd5b600054620100009004600160a060020a03163314610e5857600080fd5b600160a060020a0382161515610e6d57600080fd5b600b5460ff1615610e7d57600080fd5b5060048054600160a060020a03831673ffffffffffffffffffffffffffffffffffffffff199091161790556012805460010190819055919050565b600d54600160a060020a031681565b60115481565b606080600060018510158015610ee35750848410155b8015610ef157508360105410155b1515610efc57600080fd5b610f1d6001610f11868863ffffffff61100916565b9063ffffffff61066d16565b604051908082528060200260200182016040528015610f46578160200160208202803883390190505b5091508490505b838111610fcb5760008181526013602052604090205460a860020a900460ff16610f78576000610f91565b600081815260136020526040902054600160a060020a03165b82610fa2838863ffffffff61100916565b81518110610fac57fe5b600160a060020a03909216602092830290910190910152600101610f4d565b509392505050565b600654600160a060020a031681565b60005460ff1681565b600a5481565b60146020526000908152604090205481565b60105481565b60008282111561101557fe5b509003905600a165627a7a723058202a25441821f514b940a50dbf25c7565ad5337574927582526c608e71b5dc0c980029a165627a7a7230582071914195047beace50a0fc916cc158fb8d511dcee0c315e6f9ef927f4ef9af030029",
	"source": "pragma solidity ^0.4.24;\n\nimport './TAOController.sol';\nimport './Name.sol';\n\n/**\n * @title TAOFactory\n *\n * The purpose of this contract is to allow node to create TAO\n */\ncontract TAOFactory is TAOController {\n\taddress[] internal taos;\n\n\tmapping (bytes32 => address) internal taoNamesLookup;\n\n\t// Event to be broadcasted to public when Advocate creates a TAO\n\tevent CreateTAO(address indexed ethAddress, address advocateId, address taoId, uint256 index, address from, uint8 fromTAOTypeId, address to);\n\n\t// Event to be broadcasted to public when current Advocate sets New Advocate for a TAO\n\tevent SetTAOAdvocate(address indexed taoId, address oldAdvocateId, address newAdvocateId, uint256 nonce);\n\n\t// Event to be broadcasted to public when current Advocate sets New Listener for a TAO\n\tevent SetTAOListener(address indexed taoId, address oldListenerId, address newListenerId, uint256 nonce);\n\n\t// Event to be broadcasted to public when current Advocate sets New Speaker for a TAO\n\tevent SetTAOSpeaker(address indexed taoId, address oldSpeakerId, address newSpeakerId, uint256 nonce);\n\n\t// Event to be broadcasted to public when a parent TAO adds a child TAO\n\tevent AddChildTAO(address indexed parentTAOId, address childTAOId, uint256 nonce);\n\n\t// Event to be broadcasted to public when a parent TAO adds an orphan TAO\n\tevent AddOrphanTAO(address indexed parentTAOId, address orphanTAOId, uint256 nonce);\n\n\t// Event to be broadcasted to public when a parent TAO's Listener approves an orphan TAO\n\tevent ApproveOrphanTAO(address indexed listenerId, address parentTAOId, address orphanTAOId, uint256 nonce);\n\n\t// Event to be broadcasted to public when a TAO is locked/unlocked\n\tevent SetTAOLocked(address indexed taoId, bool locked, uint256 nonce);\n\n\t// Event to be broadcasted to public when a TAO is closed\n\tevent CloseTAO(address indexed taoId, uint256 nonce);\n\n\t/**\n\t * @dev Constructor function\n\t */\n\tconstructor(address _nameFactoryAddress, address _positionAddress)\n\t\tTAOController(_nameFactoryAddress, _positionAddress) public {}\n\n\t/**\n\t * @dev Check whether or not taoName exist. Should be unique to both Names and TAOS\n\t * @param _taoName The value to be checked\n\t * @return true if exist, false otherwise\n\t */\n\tfunction isTAONameExist(string _taoName) public view returns (bool) {\n\t\treturn (\n\t\t\ttaoNamesLookup[keccak256(abi.encodePacked(_taoName))] != address(0) ||\n\t\t\t_nameFactory.getNameIdByUsername(_taoName) != address(0)\n\t\t);\n\t}\n\n\t/**\n\t * @dev Name creates a TAO\n\t * @param _taoName The name of the TAO\n\t * @param _datHash The datHash of this TAO\n\t * @param _database The database for this TAO\n\t * @param _keyValue The key/value pair to be checked on the database\n\t * @param _contentId The contentId related to this TAO\n\t * @param _from The origin of this TAO (has to be a Name or TAO)\n\t */\n\tfunction createTAO(string _taoName, string _datHash, string _database, string _keyValue, bytes32 _contentId, address _from) public senderIsName() {\n\t\trequire (bytes(_taoName).length > 0);\n\t\trequire (!isTAONameExist(_taoName));\n\t\taddress _nameId = _nameFactory.ethAddressToNameId(msg.sender);\n\n\t\t// Make sure _from is a TAO/Name\n\t\trequire (_from != address(0) && TAO(_from).originId() != address(0));\n\n\t\t/**\n\t\t * If _from is a TAO (TAOTypeId == 0)\n\t\t * Decide what are the _from and _to IDs\n\t\t * 1. If the _from's advocateId is the same as msg.sender's nameId, then\n\t\t *    the same advocateId is creating this new TAO from _from TAO.\n\t\t *    In this case, _from doesn't change, and _to is address(0).\n\t\t *\n\t\t * 2. If the _from's advocateId is different from msg.sender's nameId, then\n\t\t *    another advocate is creating this new TAO and want to be part of\n\t\t *    _from TAO.\n\t\t *\t  In this case, _from is the nameId, and _to is _from\n\t\t */\n\t\taddress _assignedFrom = _from;\n\t\taddress _assignedTo = address(0);\n\t\tif (TAO(_assignedFrom).taoTypeId() == 0 && TAO(_assignedFrom).advocateId() != _nameId) {\n\t\t\t_assignedFrom = _nameId;\n\t\t\t_assignedTo = _from;\n\t\t}\n\n\t\taddress taoId = new TAO(Name(_nameId).username(), _taoName, _nameId, _datHash, _database, _keyValue, _contentId, _assignedFrom, _assignedTo);\n\t\ttaoNamesLookup[keccak256(abi.encodePacked(_taoName))] = taoId;\n\t\ttaos.push(taoId);\n\n\t\temit CreateTAO(msg.sender, _nameId, taoId, taos.length.sub(1), _assignedFrom, TAO(_assignedFrom).taoTypeId(), _assignedTo);\n\n\t\tif (TAO(_from).taoTypeId() == 0) {\n\t\t\t// If this TAO is created from another TAO from the same advocate,\n\t\t\t// Want to add this TAO to its parent TAO as a ChildTAO\n\t\t\tif (TAO(_from).advocateId() == _nameId) {\n\t\t\t\tuint256 _nonce = TAO(_from).addSubTAO(taoId, true);\n\t\t\t\trequire (_nonce > 0);\n\t\t\t\temit AddChildTAO(_from, taoId, _nonce);\n\t\t\t} else {\n\t\t\t\t// Otherwise, add this TAO to its parent TAO as an OrphanTAO\n\t\t\t\t_nonce = TAO(_from).addSubTAO(taoId, false);\n\t\t\t\trequire (_nonce > 0);\n\t\t\t\temit AddOrphanTAO(_from, taoId, _nonce);\n\t\t\t}\n\t\t}\n\t}\n\n\t/**\n\t * @dev Get TAO information\n\t * @param _taoId The ID of the TAO to be queried\n\t * @return The username of the Name that created this TAO\n\t * @return The name of the TAO\n\t * @return The origin Name/TAO ID of the TAO\n\t * @return The datHash of the TAO\n\t * @return The database of the TAO\n\t * @return The keyValue of the TAO\n\t * @return The contentId of the TAO\n\t * @return The taoTypeId of the TAO\n\t * @return The current nonce of the Name\n\t */\n\tfunction getTAO(address _taoId) public view returns (string, string, address, string, string, string, bytes32, uint8, uint256) {\n\t\tTAO _tao = TAO(_taoId);\n\t\treturn (\n\t\t\t_tao.username(),\n\t\t\t_tao.taoName(),\n\t\t\t_tao.originId(),\n\t\t\t_tao.datHash(),\n\t\t\t_tao.database(),\n\t\t\t_tao.keyValue(),\n\t\t\t_tao.contentId(),\n\t\t\t_tao.taoTypeId(),\n\t\t\t_tao.nonce()\n\t\t);\n\t}\n\n\t/**\n\t * @dev Given a TAO ID, wants to get the TAO's Position, i.e Advocate/Listener/Speaker\n\t * @param _taoId The ID of the TAO\n\t * @return The advocateId of the TAO\n\t * @return The listenerId of the TAO\n\t * @return The speakerId of the TAO\n\t */\n\tfunction getTAOPosition(address _taoId) public view returns (address, address, address) {\n\t\tTAO _tao = TAO(_taoId);\n\t\treturn (\n\t\t\t_tao.advocateId(),\n\t\t\t_tao.listenerId(),\n\t\t\t_tao.speakerId()\n\t\t);\n\t}\n\n\t/**\n\t * @dev Get the taoId given a taoName\n\t * @param _taoName The TAO's name to check\n\t * @return taoId of the name\n\t */\n\tfunction getTAOIdByName(string _taoName) public view returns (address) {\n\t\treturn taoNamesLookup[keccak256(abi.encodePacked(_taoName))];\n\t}\n\n\t/**\n\t * @dev Get total TAOs count\n\t * @return total TAOs count\n\t */\n\tfunction getTotalTAOsCount() public view returns (uint256) {\n\t\treturn taos.length;\n\t}\n\n\t/**\n\t * @dev Get list of TAO IDs\n\t * @param _from The starting index\n\t * @param _to The ending index\n\t * @return list of TAO IDs\n\t */\n\tfunction getTAOIds(uint256 _from, uint256 _to) public view returns (address[]) {\n\t\trequire (_from >= 0 && _to >= _from && taos.length > _to);\n\n\t\taddress[] memory _taos = new address[](_to.sub(_from).add(1));\n\t\tfor (uint256 i = _from; i <= _to; i++) {\n\t\t\t_taos[i.sub(_from)] = taos[i];\n\t\t}\n\t\treturn _taos;\n\t}\n\n\t/**\n\t * @dev Set TAO's advocate\n\t * @param _taoId The ID of the TAO\n\t * @param _newAdvocateId The new advocate ID to be set\n\t */\n\tfunction setTAOAdvocate(address _taoId, address _newAdvocateId) public isTAO(_taoId) isName(_newAdvocateId) senderIsName() onlyAdvocateOfTAO(_taoId) {\n\t\tTAO _tao = TAO(_taoId);\n\n\t\taddress _currentAdvocateId = _tao.advocateId();\n\n\t\t// Set the new advocate\n\t\tuint256 _nonce = _tao.setAdvocate(_newAdvocateId);\n\t\trequire (_nonce > 0);\n\n\t\temit SetTAOAdvocate(_taoId, _currentAdvocateId, _newAdvocateId, _nonce);\n\t}\n\n\t/**\n\t * @dev Set TAO's listener\n\t * @param _taoId The ID of the TAO\n\t * @param _newListenerId The new listener ID to be set\n\t */\n\tfunction setTAOListener(address _taoId, address _newListenerId) public isTAO(_taoId) isName(_newListenerId) senderIsName() onlyAdvocateOfTAO(_taoId) {\n\t\tTAO _tao = TAO(_taoId);\n\n\t\t// Set the new listener\n\t\taddress _currentListenerId = _tao.listenerId();\n\t\tuint256 _nonce = _tao.setListener(_newListenerId);\n\t\trequire (_nonce > 0);\n\n\t\temit SetTAOListener(_taoId, _currentListenerId, _newListenerId, _nonce);\n\t}\n\n\t/**\n\t * @dev Set TAO's speaker\n\t * @param _taoId The ID of the TAO\n\t * @param _newSpeakerId The new speaker ID to be set\n\t */\n\tfunction setTAOSpeaker(address _taoId, address _newSpeakerId) public isTAO(_taoId) isName(_newSpeakerId) senderIsName() onlyAdvocateOfTAO(_taoId) {\n\t\tTAO _tao = TAO(_taoId);\n\n\t\t// Set the new speaker\n\t\taddress _currentSpeakerId = _tao.speakerId();\n\t\tuint256 _nonce = _tao.setSpeaker(_newSpeakerId);\n\t\trequire (_nonce > 0);\n\n\t\temit SetTAOSpeaker(_taoId, _currentSpeakerId, _newSpeakerId, _nonce);\n\t}\n\n\t/**\n\t * @dev Get TAO's relationship\n\t * @param _taoId The ID of the TAO\n\t * @return fromId (Origin of the TAO)\n\t * @return throughId\n\t * @return toId (Destination of the TAO)\n\t */\n\tfunction getTAORelationship(address _taoId) public view returns (address, address, address) {\n\t\tTAO _tao = TAO(_taoId);\n\t\treturn (\n\t\t\t_tao.fromId(),\n\t\t\t_tao.throughId(),\n\t\t\t_tao.toId()\n\t\t);\n\t}\n\n\t/**\n\t * @dev Get TAO's sub TAO Ids\n\t * @param _taoId The ID of the TAO\n\t * @param _from The starting index\n\t * @param _to The ending index\n\t * @return list of sub TAO IDs\n\t */\n\tfunction getSubTAOIds(address _taoId, uint256 _from, uint256 _to) public isTAO(_taoId) view returns (address[]) {\n\t\trequire (_from >= 1 && _to >= _from);\n\t\treturn TAO(_taoId).getSubTAOIds(_from, _to);\n\t}\n\n\t/**\n\t * @dev Get TAO's sub TAOs total count\n\t * @param _taoId The ID of the TAO\n\t * @return total sub TAOs count\n\t */\n\tfunction getTotalSubTAOsCount(address _taoId) public isTAO(_taoId) view returns (uint256) {\n\t\treturn TAO(_taoId).totalSubTAOs();\n\t}\n\n\t/**\n\t * @dev Get TAO's child TAOs total count\n\t * @param _taoId The ID of the TAO\n\t * @return total child TAOs count\n\t */\n\tfunction getTotalChildTAOsCount(address _taoId) public isTAO(_taoId) view returns (uint256) {\n\t\treturn TAO(_taoId).totalChildTAOs();\n\t}\n\n\t/**\n\t * @dev Get TAO's orphan TAOs total count\n\t * @param _taoId The ID of the TAO\n\t * @return total orphan TAOs count\n\t */\n\tfunction getTotalOrphanTAOsCount(address _taoId) public isTAO(_taoId) view returns (uint256) {\n\t\treturn TAO(_taoId).totalOrphanTAOs();\n\t}\n\n\t/**\n\t * @dev Check if `_childTAOId` is child TAO of `_taoId`\n\t * @param _taoId The ID of the parent TAO\n\t * @param _childTAOId The child TAO ID to check\n\t * @return return true if yes. Otherwise return false.\n\t */\n\tfunction isChildTAOOfTAO(address _taoId, address _childTAOId) public isTAO(_taoId) isTAO(_childTAOId) view returns (bool) {\n\t\treturn TAO(_taoId).isChildTAO(_childTAOId);\n\t}\n\n\t/**\n\t * @dev Check if `_orphanTAOId` is orphan TAO of `_taoId`\n\t * @param _taoId The ID of the parent TAO\n\t * @param _orphanTAOId The orphan TAO ID to check\n\t * @return return true if yes. Otherwise return false.\n\t */\n\tfunction isOrphanTAOOfTAO(address _taoId, address _orphanTAOId) public isTAO(_taoId) isTAO(_orphanTAOId) view returns (bool) {\n\t\treturn TAO(_taoId).isOrphanTAO(_orphanTAOId);\n\t}\n\n\t/**\n\t * @dev Listener approves orphan TAO.\n\t *\t\tThis will switch orphan TAO to becoming a child TAO.\n\t * @param _taoId The ID of the parent TAO\n\t * @param _orphanTAOId The orphan TAO ID to approve\n\t */\n\tfunction approveOrphanTAO(address _taoId, address _orphanTAOId) public senderIsName() {\n\t\trequire (isOrphanTAOOfTAO(_taoId, _orphanTAOId));\n\n\t\tTAO _tao = TAO(_taoId);\n\n\t\t// Only TAO's current listener can approve orphan TAO\n\t\trequire (Name(_tao.listenerId()).originId() == msg.sender);\n\n\t\tuint256 _nonce = _tao.approveOrphanTAO(_orphanTAOId);\n\t\trequire (_nonce > 0);\n\n\t\temit ApproveOrphanTAO(_tao.listenerId(), _taoId, _orphanTAOId, _nonce);\n\t}\n\n\t/**\n\t * @dev Advocate locks/unlocks a TAO.\n\t\t\tWhen a TAO is locked, no transaction can happen on the TAO (i.e adding funds, adding sub TAO, etc.)\n\t\t\tuntil the TAO is unlocked again.\n\t * @param _taoId The ID of the TAO\n\t * @param _locked The bool value to be set\n\t */\n\tfunction setTAOLocked(address _taoId, bool _locked) public isTAO(_taoId) senderIsName() onlyAdvocateOfTAO(_taoId) {\n\t\tuint256 _nonce = TAO(_taoId).setLocked(_locked);\n\t\trequire (_nonce > 0);\n\n\t\temit SetTAOLocked(_taoId, _locked, _nonce);\n\t}\n\n\t/**\n\t * @dev Advocate close a TAO.\n\t * @param _taoId The ID of the TAO\n\t */\n\tfunction closeTAO(address _taoId) public isTAO(_taoId) senderIsName() onlyAdvocateOfTAO(_taoId) {\n\t\tuint256 _nonce = TAO(_taoId).close();\n\t\trequire (_nonce > 0);\n\n\t\temit CloseTAO(_taoId, _nonce);\n\t}\n\n\t/**\n\t * @dev Check whether or not the signature is valid\n\t * @param _data The signed string data\n\t * @param _nonce The signed uint256 nonce (should be TAO's current nonce + 1)\n\t * @param _validateAddress The ETH address to be validated (optional)\n\t * @param _taoName The Name of the TAO\n\t * @param _signatureV The V part of the signature\n\t * @param _signatureR The R part of the signature\n\t * @param _signatureS The S part of the signature\n\t * @return true if valid. false otherwise\n\t * @return The username of the Name that created the signature\n\t * @return The Position of the Name that created the signature.\n\t *\t\t\t0 == unknown. 1 == Advocate. 2 == Listener. 3 == Speaker\n\t */\n\tfunction validateTAOSignature(\n\t\tstring _data,\n\t\tuint256 _nonce,\n\t\taddress _validateAddress,\n\t\tstring _taoName,\n\t\tuint8 _signatureV,\n\t\tbytes32 _signatureR,\n\t\tbytes32 _signatureS\n\t) public isTAO(getTAOIdByName(_taoName)) view returns (bool, string, uint256) {\n\t\taddress _signatureAddress = AOLibrary.getValidateSignatureAddress(address(this), _data, _nonce, _signatureV, _signatureR, _signatureS);\n\t\tif (_isTAOSignatureAddressValid(_validateAddress, _signatureAddress, getTAOIdByName(_taoName), _nonce)) {\n\t\t\treturn (true, Name(_nameFactory.ethAddressToNameId(_signatureAddress)).username(), AOLibrary.determineAddressPositionInTAO(nameFactoryAddress, _signatureAddress, getTAOIdByName(_taoName)));\n\t\t} else {\n\t\t\treturn (false, \"\", 0);\n\t\t}\n\t}\n\n\t/***** INTERNAL METHOD *****/\n\t/**\n\t * @dev Check whether or not the address recovered from the signature is valid\n\t * @param _validateAddress The ETH address to be validated (optional)\n\t * @param _signatureAddress The address recovered from the signature\n\t * @param _taoId The ID of the TAO\n\t * @param _nonce The signed uint256 nonce\n\t * @return true if valid. false otherwise\n\t */\n\tfunction _isTAOSignatureAddressValid(\n\t\taddress _validateAddress,\n\t\taddress _signatureAddress,\n\t\taddress _taoId,\n\t\tuint256 _nonce\n\t) internal view returns (bool) {\n\t\tTAO _tao = TAO(_taoId);\n\t\tif (_validateAddress != address(0)) {\n\t\t\treturn (_nonce == _tao.nonce().add(1) &&\n\t\t\t\t_signatureAddress == _validateAddress &&\n\t\t\t\tAOLibrary.addressIsTAOAdvocateListenerSpeaker(nameFactoryAddress, _validateAddress, _taoId)\n\t\t\t);\n\t\t} else {\n\t\t\treturn (\n\t\t\t\t_nonce == _tao.nonce().add(1) &&\n\t\t\t\tAOLibrary.addressIsTAOAdvocateListenerSpeaker(nameFactoryAddress, _signatureAddress, _taoId)\n\t\t\t);\n\t\t}\n\t}\n}\n",
	"sourcePath": "/home/jmulyono/ao-contracts/contracts/TAOFactory.sol",
	"compiler": {
		"name": "solc",
		"version": "0.4.24+commit.e67f0147.Emscripten.clang"
	},
	"schemaVersion": "2.0.1",
	"updatedAt": "2018-12-19T05:20:18.338Z"
}