{
  "contractName": "TAOPool",
  "abi": [
    {
      "constant": false,
      "inputs": [
        {
          "name": "_nameAccountRecoveryAddress",
          "type": "address"
        }
      ],
      "name": "setNameAccountRecoveryAddress",
      "outputs": [],
      "payable": false,
      "stateMutability": "nonpayable",
      "type": "function"
    },
    {
      "constant": true,
      "inputs": [
        {
          "name": "",
          "type": "address"
        }
      ],
      "name": "totalEthosStaked",
      "outputs": [
        {
          "name": "",
          "type": "uint256"
        }
      ],
      "payable": false,
      "stateMutability": "view",
      "type": "function"
    },
    {
      "constant": true,
      "inputs": [
        {
          "name": "",
          "type": "address"
        }
      ],
      "name": "poolTotalLogosWithdrawn",
      "outputs": [
        {
          "name": "",
          "type": "uint256"
        }
      ],
      "payable": false,
      "stateMutability": "view",
      "type": "function"
    },
    {
      "constant": true,
      "inputs": [],
      "name": "logosAddress",
      "outputs": [
        {
          "name": "",
          "type": "address"
        }
      ],
      "payable": false,
      "stateMutability": "view",
      "type": "function"
    },
    {
      "constant": true,
      "inputs": [],
      "name": "pathosAddress",
      "outputs": [
        {
          "name": "",
          "type": "address"
        }
      ],
      "payable": false,
      "stateMutability": "view",
      "type": "function"
    },
    {
      "constant": true,
      "inputs": [
        {
          "name": "",
          "type": "address"
        }
      ],
      "name": "totalLogosWithdrawn",
      "outputs": [
        {
          "name": "",
          "type": "uint256"
        }
      ],
      "payable": false,
      "stateMutability": "view",
      "type": "function"
    },
    {
      "constant": true,
      "inputs": [],
      "name": "nameTAOPositionAddress",
      "outputs": [
        {
          "name": "",
          "type": "address"
        }
      ],
      "payable": false,
      "stateMutability": "view",
      "type": "function"
    },
    {
      "constant": false,
      "inputs": [
        {
          "name": "_account",
          "type": "address"
        },
        {
          "name": "_whitelist",
          "type": "bool"
        }
      ],
      "name": "setWhitelist",
      "outputs": [],
      "payable": false,
      "stateMutability": "nonpayable",
      "type": "function"
    },
    {
      "constant": true,
      "inputs": [
        {
          "name": "",
          "type": "address"
        }
      ],
      "name": "totalPathosStaked",
      "outputs": [
        {
          "name": "",
          "type": "uint256"
        }
      ],
      "payable": false,
      "stateMutability": "view",
      "type": "function"
    },
    {
      "constant": false,
      "inputs": [
        {
          "name": "_nameTAOPositionAddress",
          "type": "address"
        }
      ],
      "name": "setNameTAOPositionAddress",
      "outputs": [],
      "payable": false,
      "stateMutability": "nonpayable",
      "type": "function"
    },
    {
      "constant": true,
      "inputs": [
        {
          "name": "",
          "type": "address"
        },
        {
          "name": "",
          "type": "address"
        }
      ],
      "name": "namePoolPathosStaked",
      "outputs": [
        {
          "name": "",
          "type": "uint256"
        }
      ],
      "payable": false,
      "stateMutability": "view",
      "type": "function"
    },
    {
      "constant": true,
      "inputs": [
        {
          "name": "",
          "type": "bytes32"
        }
      ],
      "name": "ethosLots",
      "outputs": [
        {
          "name": "ethosLotId",
          "type": "bytes32"
        },
        {
          "name": "nameId",
          "type": "address"
        },
        {
          "name": "lotQuantity",
          "type": "uint256"
        },
        {
          "name": "taoId",
          "type": "address"
        },
        {
          "name": "poolPreStakeSnapshot",
          "type": "uint256"
        },
        {
          "name": "poolStakeLotSnapshot",
          "type": "uint256"
        },
        {
          "name": "lotValueInLogos",
          "type": "uint256"
        },
        {
          "name": "logosWithdrawn",
          "type": "uint256"
        },
        {
          "name": "timestamp",
          "type": "uint256"
        }
      ],
      "payable": false,
      "stateMutability": "view",
      "type": "function"
    },
    {
      "constant": true,
      "inputs": [],
      "name": "contractTotalPathosStake",
      "outputs": [
        {
          "name": "",
          "type": "uint256"
        }
      ],
      "payable": false,
      "stateMutability": "view",
      "type": "function"
    },
    {
      "constant": true,
      "inputs": [],
      "name": "contractTotalEthos",
      "outputs": [
        {
          "name": "",
          "type": "uint256"
        }
      ],
      "payable": false,
      "stateMutability": "view",
      "type": "function"
    },
    {
      "constant": false,
      "inputs": [
        {
          "name": "_nameFactoryAddress",
          "type": "address"
        }
      ],
      "name": "setNameFactoryAddress",
      "outputs": [],
      "payable": false,
      "stateMutability": "nonpayable",
      "type": "function"
    },
    {
      "constant": true,
      "inputs": [
        {
          "name": "",
          "type": "address"
        }
      ],
      "name": "poolTotalEthosLot",
      "outputs": [
        {
          "name": "",
          "type": "uint256"
        }
      ],
      "payable": false,
      "stateMutability": "view",
      "type": "function"
    },
    {
      "constant": true,
      "inputs": [],
      "name": "ethosAddress",
      "outputs": [
        {
          "name": "",
          "type": "address"
        }
      ],
      "payable": false,
      "stateMutability": "view",
      "type": "function"
    },
    {
      "constant": true,
      "inputs": [
        {
          "name": "",
          "type": "address"
        },
        {
          "name": "",
          "type": "address"
        }
      ],
      "name": "namePoolLogosWithdrawn",
      "outputs": [
        {
          "name": "",
          "type": "uint256"
        }
      ],
      "payable": false,
      "stateMutability": "view",
      "type": "function"
    },
    {
      "constant": true,
      "inputs": [],
      "name": "contractTotalLogosWithdrawn",
      "outputs": [
        {
          "name": "",
          "type": "uint256"
        }
      ],
      "payable": false,
      "stateMutability": "view",
      "type": "function"
    },
    {
      "constant": true,
      "inputs": [
        {
          "name": "",
          "type": "address"
        }
      ],
      "name": "whitelist",
      "outputs": [
        {
          "name": "",
          "type": "bool"
        }
      ],
      "payable": false,
      "stateMutability": "view",
      "type": "function"
    },
    {
      "constant": true,
      "inputs": [
        {
          "name": "",
          "type": "address"
        }
      ],
      "name": "pools",
      "outputs": [
        {
          "name": "taoId",
          "type": "address"
        },
        {
          "name": "ethosCapStatus",
          "type": "bool"
        },
        {
          "name": "ethosCapAmount",
          "type": "uint256"
        },
        {
          "name": "status",
          "type": "bool"
        }
      ],
      "payable": false,
      "stateMutability": "view",
      "type": "function"
    },
    {
      "constant": true,
      "inputs": [],
      "name": "nameAccountRecoveryAddress",
      "outputs": [
        {
          "name": "",
          "type": "address"
        }
      ],
      "payable": false,
      "stateMutability": "view",
      "type": "function"
    },
    {
      "constant": true,
      "inputs": [],
      "name": "theAO",
      "outputs": [
        {
          "name": "",
          "type": "address"
        }
      ],
      "payable": false,
      "stateMutability": "view",
      "type": "function"
    },
    {
      "constant": true,
      "inputs": [
        {
          "name": "",
          "type": "address"
        },
        {
          "name": "",
          "type": "address"
        }
      ],
      "name": "namePoolEthosStaked",
      "outputs": [
        {
          "name": "",
          "type": "uint256"
        }
      ],
      "payable": false,
      "stateMutability": "view",
      "type": "function"
    },
    {
      "constant": true,
      "inputs": [],
      "name": "nameFactoryAddress",
      "outputs": [
        {
          "name": "",
          "type": "address"
        }
      ],
      "payable": false,
      "stateMutability": "view",
      "type": "function"
    },
    {
      "constant": true,
      "inputs": [],
      "name": "contractTotalPathos",
      "outputs": [
        {
          "name": "",
          "type": "uint256"
        }
      ],
      "payable": false,
      "stateMutability": "view",
      "type": "function"
    },
    {
      "constant": true,
      "inputs": [],
      "name": "contractTotalEthosLot",
      "outputs": [
        {
          "name": "",
          "type": "uint256"
        }
      ],
      "payable": false,
      "stateMutability": "view",
      "type": "function"
    },
    {
      "constant": false,
      "inputs": [
        {
          "name": "_theAO",
          "type": "address"
        }
      ],
      "name": "transferOwnership",
      "outputs": [],
      "payable": false,
      "stateMutability": "nonpayable",
      "type": "function"
    },
    {
      "constant": true,
      "inputs": [],
      "name": "taoFactoryAddress",
      "outputs": [
        {
          "name": "",
          "type": "address"
        }
      ],
      "payable": false,
      "stateMutability": "view",
      "type": "function"
    },
    {
      "inputs": [
        {
          "name": "_nameFactoryAddress",
          "type": "address"
        },
        {
          "name": "_taoFactoryAddress",
          "type": "address"
        },
        {
          "name": "_nameTAOPositionAddress",
          "type": "address"
        },
        {
          "name": "_pathosAddress",
          "type": "address"
        },
        {
          "name": "_ethosAddress",
          "type": "address"
        },
        {
          "name": "_logosAddress",
          "type": "address"
        }
      ],
      "payable": false,
      "stateMutability": "nonpayable",
      "type": "constructor"
    },
    {
      "anonymous": false,
      "inputs": [
        {
          "indexed": true,
          "name": "taoId",
          "type": "address"
        },
        {
          "indexed": false,
          "name": "ethosCapStatus",
          "type": "bool"
        },
        {
          "indexed": false,
          "name": "ethosCapAmount",
          "type": "uint256"
        },
        {
          "indexed": false,
          "name": "status",
          "type": "bool"
        }
      ],
      "name": "CreatePool",
      "type": "event"
    },
    {
      "anonymous": false,
      "inputs": [
        {
          "indexed": true,
          "name": "taoId",
          "type": "address"
        },
        {
          "indexed": false,
          "name": "status",
          "type": "bool"
        },
        {
          "indexed": false,
          "name": "nonce",
          "type": "uint256"
        }
      ],
      "name": "UpdatePoolStatus",
      "type": "event"
    },
    {
      "anonymous": false,
      "inputs": [
        {
          "indexed": true,
          "name": "taoId",
          "type": "address"
        },
        {
          "indexed": false,
          "name": "ethosCapStatus",
          "type": "bool"
        },
        {
          "indexed": false,
          "name": "ethosCapAmount",
          "type": "uint256"
        },
        {
          "indexed": false,
          "name": "nonce",
          "type": "uint256"
        }
      ],
      "name": "UpdatePoolEthosCap",
      "type": "event"
    },
    {
      "anonymous": false,
      "inputs": [
        {
          "indexed": true,
          "name": "taoId",
          "type": "address"
        },
        {
          "indexed": true,
          "name": "ethosLotId",
          "type": "bytes32"
        },
        {
          "indexed": true,
          "name": "nameId",
          "type": "address"
        },
        {
          "indexed": false,
          "name": "lotQuantity",
          "type": "uint256"
        },
        {
          "indexed": false,
          "name": "poolPreStakeSnapshot",
          "type": "uint256"
        },
        {
          "indexed": false,
          "name": "poolStakeLotSnapshot",
          "type": "uint256"
        },
        {
          "indexed": false,
          "name": "lotValueInLogos",
          "type": "uint256"
        },
        {
          "indexed": false,
          "name": "timestamp",
          "type": "uint256"
        }
      ],
      "name": "StakeEthos",
      "type": "event"
    },
    {
      "anonymous": false,
      "inputs": [
        {
          "indexed": true,
          "name": "taoId",
          "type": "address"
        },
        {
          "indexed": true,
          "name": "stakeId",
          "type": "bytes32"
        },
        {
          "indexed": true,
          "name": "nameId",
          "type": "address"
        },
        {
          "indexed": false,
          "name": "stakeQuantity",
          "type": "uint256"
        },
        {
          "indexed": false,
          "name": "currentPoolTotalStakedPathos",
          "type": "uint256"
        },
        {
          "indexed": false,
          "name": "timestamp",
          "type": "uint256"
        }
      ],
      "name": "StakePathos",
      "type": "event"
    },
    {
      "anonymous": false,
      "inputs": [
        {
          "indexed": true,
          "name": "nameId",
          "type": "address"
        },
        {
          "indexed": true,
          "name": "ethosLotId",
          "type": "bytes32"
        },
        {
          "indexed": true,
          "name": "taoId",
          "type": "address"
        },
        {
          "indexed": false,
          "name": "withdrawnAmount",
          "type": "uint256"
        },
        {
          "indexed": false,
          "name": "currentLotValueInLogos",
          "type": "uint256"
        },
        {
          "indexed": false,
          "name": "currentLotLogosWithdrawn",
          "type": "uint256"
        },
        {
          "indexed": false,
          "name": "timestamp",
          "type": "uint256"
        }
      ],
      "name": "WithdrawLogos",
      "type": "event"
    },
    {
      "constant": false,
      "inputs": [
        {
          "name": "_taoFactoryAddress",
          "type": "address"
        }
      ],
      "name": "setTAOFactoryAddress",
      "outputs": [],
      "payable": false,
      "stateMutability": "nonpayable",
      "type": "function"
    },
    {
      "constant": false,
      "inputs": [
        {
          "name": "_pathosAddress",
          "type": "address"
        }
      ],
      "name": "setPathosAddress",
      "outputs": [],
      "payable": false,
      "stateMutability": "nonpayable",
      "type": "function"
    },
    {
      "constant": false,
      "inputs": [
        {
          "name": "_ethosAddress",
          "type": "address"
        }
      ],
      "name": "setEthosAddress",
      "outputs": [],
      "payable": false,
      "stateMutability": "nonpayable",
      "type": "function"
    },
    {
      "constant": false,
      "inputs": [
        {
          "name": "_logosAddress",
          "type": "address"
        }
      ],
      "name": "setLogosAddress",
      "outputs": [],
      "payable": false,
      "stateMutability": "nonpayable",
      "type": "function"
    },
    {
      "constant": true,
      "inputs": [
        {
          "name": "_id",
          "type": "address"
        }
      ],
      "name": "isExist",
      "outputs": [
        {
          "name": "",
          "type": "bool"
        }
      ],
      "payable": false,
      "stateMutability": "view",
      "type": "function"
    },
    {
      "constant": false,
      "inputs": [
        {
          "name": "_taoId",
          "type": "address"
        },
        {
          "name": "_ethosCapStatus",
          "type": "bool"
        },
        {
          "name": "_ethosCapAmount",
          "type": "uint256"
        }
      ],
      "name": "createPool",
      "outputs": [
        {
          "name": "",
          "type": "bool"
        }
      ],
      "payable": false,
      "stateMutability": "nonpayable",
      "type": "function"
    },
    {
      "constant": false,
      "inputs": [
        {
          "name": "_taoId",
          "type": "address"
        },
        {
          "name": "_status",
          "type": "bool"
        }
      ],
      "name": "updatePoolStatus",
      "outputs": [],
      "payable": false,
      "stateMutability": "nonpayable",
      "type": "function"
    },
    {
      "constant": false,
      "inputs": [
        {
          "name": "_taoId",
          "type": "address"
        },
        {
          "name": "_ethosCapStatus",
          "type": "bool"
        },
        {
          "name": "_ethosCapAmount",
          "type": "uint256"
        }
      ],
      "name": "updatePoolEthosCap",
      "outputs": [],
      "payable": false,
      "stateMutability": "nonpayable",
      "type": "function"
    },
    {
      "constant": false,
      "inputs": [
        {
          "name": "_taoId",
          "type": "address"
        },
        {
          "name": "_quantity",
          "type": "uint256"
        }
      ],
      "name": "stakeEthos",
      "outputs": [],
      "payable": false,
      "stateMutability": "nonpayable",
      "type": "function"
    },
    {
      "constant": true,
      "inputs": [
        {
          "name": "_nameId",
          "type": "address"
        }
      ],
      "name": "ownerTotalEthosLot",
      "outputs": [
        {
          "name": "",
          "type": "uint256"
        }
      ],
      "payable": false,
      "stateMutability": "view",
      "type": "function"
    },
    {
      "constant": true,
      "inputs": [
        {
          "name": "_nameId",
          "type": "address"
        },
        {
          "name": "_from",
          "type": "uint256"
        },
        {
          "name": "_to",
          "type": "uint256"
        }
      ],
      "name": "ownerEthosLotIds",
      "outputs": [
        {
          "name": "",
          "type": "bytes32[]"
        }
      ],
      "payable": false,
      "stateMutability": "view",
      "type": "function"
    },
    {
      "constant": true,
      "inputs": [
        {
          "name": "_taoId",
          "type": "address"
        }
      ],
      "name": "availablePathosToStake",
      "outputs": [
        {
          "name": "",
          "type": "uint256"
        }
      ],
      "payable": false,
      "stateMutability": "view",
      "type": "function"
    },
    {
      "constant": false,
      "inputs": [
        {
          "name": "_taoId",
          "type": "address"
        },
        {
          "name": "_quantity",
          "type": "uint256"
        }
      ],
      "name": "stakePathos",
      "outputs": [],
      "payable": false,
      "stateMutability": "nonpayable",
      "type": "function"
    },
    {
      "constant": false,
      "inputs": [
        {
          "name": "_ethosLotId",
          "type": "bytes32"
        }
      ],
      "name": "withdrawLogos",
      "outputs": [],
      "payable": false,
      "stateMutability": "nonpayable",
      "type": "function"
    },
    {
      "constant": true,
      "inputs": [
        {
          "name": "_ethosLotId",
          "type": "bytes32"
        }
      ],
      "name": "lotLogosAvailableToWithdraw",
      "outputs": [
        {
          "name": "",
          "type": "uint256"
        }
      ],
      "payable": false,
      "stateMutability": "view",
      "type": "function"
    }
  ],
  "bytecode": "0x60806040523480156200001157600080fd5b5060405160c08062003bcc833981018060405260c08110156200003357600080fd5b50805160208083015160408401516060850151608086015160a090960151600080546001600160a01b0319163317905594959294919390929190869062000080908290620000e2811b901c565b506200009285620001e360201b60201c565b620000a384620002e460201b60201c565b620000b483620003e560201b60201c565b620000c582620004e660201b60201c565b620000d681620005e760201b60201c565b505050505050620006e8565b600054600154604080517ff66afcac0000000000000000000000000000000000000000000000000000000081523360048201526001600160a01b0393841660248201529290911660448301525173__AOLibrary_____________________________9163f66afcac916064808301926020929190829003018186803b1580156200016b57600080fd5b505af415801562000180573d6000803e3d6000fd5b505050506040513d60208110156200019757600080fd5b5051620001a357600080fd5b6001600160a01b038116620001b757600080fd5b600380546001600160a01b039092166001600160a01b0319928316811790915560058054909216179055565b600054600154604080517ff66afcac0000000000000000000000000000000000000000000000000000000081523360048201526001600160a01b0393841660248201529290911660448301525173__AOLibrary_____________________________9163f66afcac916064808301926020929190829003018186803b1580156200026c57600080fd5b505af415801562000281573d6000803e3d6000fd5b505050506040513d60208110156200029857600080fd5b5051620002a457600080fd5b6001600160a01b038116620002b857600080fd5b600880546001600160a01b039092166001600160a01b03199283168117909155600c8054909216179055565b600054600154604080517ff66afcac0000000000000000000000000000000000000000000000000000000081523360048201526001600160a01b0393841660248201529290911660448301525173__AOLibrary_____________________________9163f66afcac916064808301926020929190829003018186803b1580156200036d57600080fd5b505af415801562000382573d6000803e3d6000fd5b505050506040513d60208110156200039957600080fd5b5051620003a557600080fd5b6001600160a01b038116620003b957600080fd5b600180546001600160a01b039092166001600160a01b0319928316811790915560068054909216179055565b600054600154604080517ff66afcac0000000000000000000000000000000000000000000000000000000081523360048201526001600160a01b0393841660248201529290911660448301525173__AOLibrary_____________________________9163f66afcac916064808301926020929190829003018186803b1580156200046e57600080fd5b505af415801562000483573d6000803e3d6000fd5b505050506040513d60208110156200049a57600080fd5b5051620004a657600080fd5b6001600160a01b038116620004ba57600080fd5b600980546001600160a01b039092166001600160a01b03199283168117909155600d8054909216179055565b600054600154604080517ff66afcac0000000000000000000000000000000000000000000000000000000081523360048201526001600160a01b0393841660248201529290911660448301525173__AOLibrary_____________________________9163f66afcac916064808301926020929190829003018186803b1580156200056f57600080fd5b505af415801562000584573d6000803e3d6000fd5b505050506040513d60208110156200059b57600080fd5b5051620005a757600080fd5b6001600160a01b038116620005bb57600080fd5b600a80546001600160a01b039092166001600160a01b03199283168117909155600e8054909216179055565b600054600154604080517ff66afcac0000000000000000000000000000000000000000000000000000000081523360048201526001600160a01b0393841660248201529290911660448301525173__AOLibrary_____________________________9163f66afcac916064808301926020929190829003018186803b1580156200067057600080fd5b505af415801562000685573d6000803e3d6000fd5b505050506040513d60208110156200069c57600080fd5b5051620006a857600080fd5b6001600160a01b038116620006bc57600080fd5b600b80546001600160a01b039092166001600160a01b03199283168117909155600f8054909216179055565b6134d480620006f86000396000f3fe608060405234801561001057600080fd5b50600436106102735760003560e01c80637b3d601311610151578063a9b6b38e116100c3578063e3fcd93011610087578063e3fcd93014610832578063ef3070f81461084f578063f2fde38b14610857578063f68d8f5a1461087d578063ff0374b5146108a9578063ff3781c6146108b157610273565b8063a9b6b38e1461076a578063b2e6b2fc14610772578063bc406206146107a0578063c6185ae1146107a8578063ddd332d2146107b057610273565b8063917f84e211610115578063917f84e21461068857806395c13f0a146106b657806398334461146106be5780639b19251a146106e4578063a4063dbc1461070a578063a4e5fad21461076257610273565b80637b3d6013146106245780638bce77f31461062c5780638c924361146106345780638f55e65f1461065a5780639093a7901461068057610273565b80634486ab0a116101ea5780635cfaf2ef116101ae5780635cfaf2ef146104dd5780635f7f0ad814610503578063698b7764146105315780636dfdf69b146105655780637565fb6a146105d8578063793c8228146105fe57610273565b80634486ab0a1461045357806349c82bc41461045b5780634ef033f01461048157806353d6fd59146104895780635baf6a47146104b757610273565b806328d313b51161023c57806328d313b5146103525780632f4f6bc41461038a5780632fbb7695146103be57806332232636146103db57806334172c9e1461040157806338da7de71461042f57610273565b806213eb4b146102785780631add5b98146102b25780631dfde2bd146102da5780632191207a1461030057806324d7231714610326575b600080fd5b61029e6004803603602081101561028e57600080fd5b50356001600160a01b03166108d7565b604080519115158252519081900360200190f35b6102d8600480360360208110156102c857600080fd5b50356001600160a01b03166108f7565b005b6102d8600480360360208110156102f057600080fd5b50356001600160a01b03166109dd565b6102d86004803603602081101561031657600080fd5b50356001600160a01b0316610ac6565b6102d86004803603604081101561033c57600080fd5b506001600160a01b038135169060200135610bac565b6103786004803603602081101561036857600080fd5b50356001600160a01b0316611233565b60408051918252519081900360200190f35b6102d8600480360360608110156103a057600080fd5b506001600160a01b0381351690602081013515159060400135611245565b610378600480360360208110156103d457600080fd5b503561165e565b610378600480360360208110156103f157600080fd5b50356001600160a01b03166118ea565b6102d86004803603604081101561041757600080fd5b506001600160a01b03813516906020013515156118fc565b610437611c30565b604080516001600160a01b039092168252519081900360200190f35b610437611c3f565b6103786004803603602081101561047157600080fd5b50356001600160a01b0316611c4e565b610437611c60565b6102d86004803603604081101561049f57600080fd5b506001600160a01b0381351690602001351515611c6f565b610378600480360360208110156104cd57600080fd5b50356001600160a01b0316611d54565b6102d8600480360360208110156104f357600080fd5b50356001600160a01b0316611d66565b6103786004803603604081101561051957600080fd5b506001600160a01b0381358116916020013516611e4c565b61029e6004803603606081101561054757600080fd5b506001600160a01b0381351690602081013515159060400135611e69565b6105826004803603602081101561057b57600080fd5b5035612027565b60408051998a526001600160a01b0398891660208b015289810197909752949096166060880152608087019290925260a086015260c085015260e084019290925261010083019190915251908190036101200190f35b610378600480360360208110156105ee57600080fd5b50356001600160a01b031661207e565b6102d86004803603602081101561061457600080fd5b50356001600160a01b0316612099565b61037861217f565b610378612185565b6102d86004803603602081101561064a57600080fd5b50356001600160a01b031661218b565b6103786004803603602081101561067057600080fd5b50356001600160a01b0316612271565b610437612283565b6103786004803603604081101561069e57600080fd5b506001600160a01b0381358116916020013516612292565b6103786122af565b610378600480360360208110156106d457600080fd5b50356001600160a01b03166122b5565b61029e600480360360208110156106fa57600080fd5b50356001600160a01b031661245a565b6107306004803603602081101561072057600080fd5b50356001600160a01b031661246f565b604080516001600160a01b03909516855292151560208501528383019190915215156060830152519081900360800190f35b6104376124a8565b6104376124b7565b6103786004803603604081101561078857600080fd5b506001600160a01b03813581169160200135166124c6565b6104376124e3565b6103786124f2565b6107e2600480360360608110156107c657600080fd5b506001600160a01b0381351690602081013590604001356124f8565b60408051602080825283518183015283519192839290830191858101910280838360005b8381101561081e578181015183820152602001610806565b505050509050019250505060405180910390f35b6102d86004803603602081101561084857600080fd5b50356125e9565b610378612a85565b6102d86004803603602081101561086d57600080fd5b50356001600160a01b0316612a8b565b6102d86004803603604081101561089357600080fd5b506001600160a01b038135169060200135612b67565b610437613306565b6102d8600480360360208110156108c757600080fd5b50356001600160a01b0316613315565b6001600160a01b0390811660009081526015602052604090205416151590565b60005460015460408051600160e21b633d9abf2b0281523360048201526001600160a01b0393841660248201529290911660448301525173__AOLibrary_____________________________9163f66afcac916064808301926020929190829003018186803b15801561096957600080fd5b505af415801561097d573d6000803e3d6000fd5b505050506040513d602081101561099357600080fd5b505161099e57600080fd5b6001600160a01b0381166109b157600080fd5b600a80546001600160a01b039092166001600160a01b03199283168117909155600e8054909216179055565b60005460015460408051600160e21b633d9abf2b0281523360048201526001600160a01b0393841660248201529290911660448301525173__AOLibrary_____________________________9163f66afcac916064808301926020929190829003018186803b158015610a4f57600080fd5b505af4158015610a63573d6000803e3d6000fd5b505050506040513d6020811015610a7957600080fd5b5051610a8457600080fd5b6001600160a01b038116610a9757600080fd5b600480546001600160a01b03199081166001600160a01b03938416179182905560078054929093169116179055565b60005460015460408051600160e21b633d9abf2b0281523360048201526001600160a01b0393841660248201529290911660448301525173__AOLibrary_____________________________9163f66afcac916064808301926020929190829003018186803b158015610b3857600080fd5b505af4158015610b4c573d6000803e3d6000fd5b505050506040513d6020811015610b6257600080fd5b5051610b6d57600080fd5b6001600160a01b038116610b8057600080fd5b600880546001600160a01b039092166001600160a01b03199283168117909155600c8054909216179055565b8173__AOLibrary_____________________________632fca5414826040518263ffffffff1660e01b815260040180826001600160a01b03166001600160a01b0316815260200191505060206040518083038186803b158015610c0e57600080fd5b505af4158015610c22573d6000803e3d6000fd5b505050506040513d6020811015610c3857600080fd5b5051610c4357600080fd5b60055460408051600160e01b63029b7d5302815233600482015290516000926001600160a01b03169163029b7d53916024808301926020929190829003018186803b158015610c9157600080fd5b505afa158015610ca5573d6000803e3d6000fd5b505050506040513d6020811015610cbb57600080fd5b50516001600160a01b03161415610cd157600080fd5b60075460055460408051600160e01b63029b7d5302815233600482015290516001600160a01b0393841693633ebc2ab393169163029b7d53916024808301926020929190829003018186803b158015610d2957600080fd5b505afa158015610d3d573d6000803e3d6000fd5b505050506040513d6020811015610d5357600080fd5b50516040805163ffffffff841660e01b81526001600160a01b039092166004830152516024808301926020929190829003018186803b158015610d9557600080fd5b505afa158015610da9573d6000803e3d6000fd5b505050506040513d6020811015610dbf57600080fd5b505115610dcb57600080fd5b610dd3613420565b506001600160a01b03808416600090815260156020908152604080832081516080810183528154808716825260ff600160a01b9091048116151582860152600183015482850152600290920154909116151560608201526005548251600160e01b63029b7d5302815233600482015292519195169263029b7d539260248082019391829003018186803b158015610e6957600080fd5b505afa158015610e7d573d6000803e3d6000fd5b505050506040513d6020811015610e9357600080fd5b5051606083015190915015156001148015610eae5750600084115b8015610f375750600d5460408051600160e01b6370a082310281526001600160a01b0384811660048301529151879392909216916370a0823191602480820192602092909190829003018186803b158015610f0857600080fd5b505afa158015610f1c573d6000803e3d6000fd5b505050506040513d6020811015610f3257600080fd5b505110155b8015610f4b5750610f47856122b5565b8411155b610f5457600080fd5b6011805460010190556001600160a01b0381166000908152601b6020526040902054610f86908563ffffffff6133fb16565b6001600160a01b038083166000908152601b6020908152604080832094909455601e81528382209289168252919091522054610fc8908563ffffffff6133fb16565b6001600160a01b038083166000908152601e60209081526040808320938a1683529290522055601354611001908563ffffffff6133fb16565b6013556011546040805130606090811b6020808401919091523390911b60348301526048808301949094528251808303909401845260688201808452845194820194909420600d54600160e01b6323b872dd029095526001600160a01b03868116606c8501528a8116608c85015260ac84018a905293519094909316926323b872dd9260cc8082019392918290030181600087803b1580156110a257600080fd5b505af11580156110b6573d6000803e3d6000fd5b505050506040513d60208110156110cc57600080fd5b50516110d757600080fd5b600f5460408051600160e01b6397fe5ea30281526001600160a01b03898116600483015260248201899052915191909216916397fe5ea39160448083019260209291908290030181600087803b15801561113057600080fd5b505af1158015611144573d6000803e3d6000fd5b505050506040513d602081101561115a57600080fd5b505161116557600080fd5b600d5460408051600160e01b6370a082310281526001600160a01b03898116600483018190529251818716948694937f8b94cee0a5e9ffbca07138e4e77976118bfa50f795533045acb35a073a8d084a938c939216916370a0823191602480820192602092909190829003018186803b1580156111e157600080fd5b505afa1580156111f5573d6000803e3d6000fd5b505050506040513d602081101561120b57600080fd5b50516040805192835260208301919091524282820152519081900360600190a4505050505050565b601a6020526000908152604090205481565b8273__AOLibrary_____________________________632fca5414826040518263ffffffff1660e01b815260040180826001600160a01b03166001600160a01b0316815260200191505060206040518083038186803b1580156112a757600080fd5b505af41580156112bb573d6000803e3d6000fd5b505050506040513d60208110156112d157600080fd5b50516112dc57600080fd5b60065460408051600160e01b6371ce52ed0281523360048201526001600160a01b0380881660248301529151879392909216916371ce52ed91604480820192602092909190829003018186803b15801561133557600080fd5b505afa158015611349573d6000803e3d6000fd5b505050506040513d602081101561135f57600080fd5b505161136a57600080fd5b60075460055460408051600160e01b63029b7d5302815233600482015290516001600160a01b0393841693633ebc2ab393169163029b7d53916024808301926020929190829003018186803b1580156113c257600080fd5b505afa1580156113d6573d6000803e3d6000fd5b505050506040513d60208110156113ec57600080fd5b50516040805163ffffffff841660e01b81526001600160a01b039092166004830152516024808301926020929190829003018186803b15801561142e57600080fd5b505afa158015611442573d6000803e3d6000fd5b505050506040513d602081101561145857600080fd5b50511561146457600080fd5b6001600160a01b038581166000908152601560205260409020541661148857600080fd5b8315611521576000831180156115185750600d5460408051600160e01b6370a082310281526001600160a01b038881166004830152915191909216916370a08231916024808301926020929190829003018186803b1580156114e957600080fd5b505afa1580156114fd573d6000803e3d6000fd5b505050506040513d602081101561151357600080fd5b505183115b61152157600080fd5b6001600160a01b0385166000908152601560205260409020805485158015600160a01b02600160a01b60ff02199092169190911790915561157b576001600160a01b03851660009081526015602052604090206001018390555b600c5460408051600160e21b633d5d0f130281526001600160a01b0388811660048301529151600093929092169163f5743c4c9160248082019260209290919082900301818787803b1580156115d057600080fd5b505af11580156115e4573d6000803e3d6000fd5b505050506040513d60208110156115fa57600080fd5b505190508061160857600080fd5b6040805186151581526020810186905280820183905290516001600160a01b038816917f710a196358986b34ff7b89eb2ca10d88508cb3f52d8392a2f595722804cc1325919081900360600190a2505050505050565b6000611668613447565b506000828152601660209081526040918290208251610120810184528154815260018201546001600160a01b039081169382018490526002830154948201949094526003820154909316606084015260048101546080840152600581015460a0840152600681015460c0840152600781015460e0840152600801546101008301526116f257600080fd5b6080810151600d54606083015160408051600160e01b6370a082310281526001600160a01b03928316600482015290516000949392909216916370a0823191602480820192602092909190829003018186803b15801561175157600080fd5b505afa158015611765573d6000803e3d6000fd5b505050506040513d602081101561177b57600080fd5b505111801561178e575060008260c00151115b156118e35760a0820151600d54606084015160408051600160e01b6370a082310281526001600160a01b039283166004820152905191909216916370a08231916024808301926020929190829003018186803b1580156117ed57600080fd5b505afa158015611801573d6000803e3d6000fd5b505050506040513d602081101561181757600080fd5b505110156118bc576080820151600d54606084015160408051600160e01b6370a082310281526001600160a01b03928316600482015290516118b7949392909216916370a0823191602480820192602092909190829003018186803b15801561187f57600080fd5b505afa158015611893573d6000803e3d6000fd5b505050506040513d60208110156118a957600080fd5b50519063ffffffff61340e16565b6118c2565b81604001515b905080156118e35760e08201516118e090829063ffffffff61340e16565b90505b9392505050565b60186020526000908152604090205481565b8173__AOLibrary_____________________________632fca5414826040518263ffffffff1660e01b815260040180826001600160a01b03166001600160a01b0316815260200191505060206040518083038186803b15801561195e57600080fd5b505af4158015611972573d6000803e3d6000fd5b505050506040513d602081101561198857600080fd5b505161199357600080fd5b60065460408051600160e01b6371ce52ed0281523360048201526001600160a01b0380871660248301529151869392909216916371ce52ed91604480820192602092909190829003018186803b1580156119ec57600080fd5b505afa158015611a00573d6000803e3d6000fd5b505050506040513d6020811015611a1657600080fd5b5051611a2157600080fd5b60075460055460408051600160e01b63029b7d5302815233600482015290516001600160a01b0393841693633ebc2ab393169163029b7d53916024808301926020929190829003018186803b158015611a7957600080fd5b505afa158015611a8d573d6000803e3d6000fd5b505050506040513d6020811015611aa357600080fd5b50516040805163ffffffff841660e01b81526001600160a01b039092166004830152516024808301926020929190829003018186803b158015611ae557600080fd5b505afa158015611af9573d6000803e3d6000fd5b505050506040513d6020811015611b0f57600080fd5b505115611b1b57600080fd5b6001600160a01b0384811660009081526015602052604090205416611b3f57600080fd5b6001600160a01b038481166000818152601560209081526040808320600201805460ff1916891515179055600c548151600160e21b633d5d0f13028152600481019590955290519294169263f5743c4c926024808301939282900301818787803b158015611bac57600080fd5b505af1158015611bc0573d6000803e3d6000fd5b505050506040513d6020811015611bd657600080fd5b5051905080611be457600080fd5b6040805185151581526020810183905281516001600160a01b038816927ff5f6f496ff95818da72c68de653328ef258d57133b8c64064a809a21df3b2d15928290030190a25050505050565b600b546001600160a01b031681565b6009546001600160a01b031681565b601c6020526000908152604090205481565b6001546001600160a01b031681565b60005460015460408051600160e21b633d9abf2b0281523360048201526001600160a01b0393841660248201529290911660448301525173__AOLibrary_____________________________9163f66afcac916064808301926020929190829003018186803b158015611ce157600080fd5b505af4158015611cf5573d6000803e3d6000fd5b505050506040513d6020811015611d0b57600080fd5b5051611d1657600080fd5b6001600160a01b038216611d2957600080fd5b6001600160a01b03919091166000908152600260205260409020805460ff1916911515919091179055565b601b6020526000908152604090205481565b60005460015460408051600160e21b633d9abf2b0281523360048201526001600160a01b0393841660248201529290911660448301525173__AOLibrary_____________________________9163f66afcac916064808301926020929190829003018186803b158015611dd857600080fd5b505af4158015611dec573d6000803e3d6000fd5b505050506040513d6020811015611e0257600080fd5b5051611e0d57600080fd5b6001600160a01b038116611e2057600080fd5b600180546001600160a01b039092166001600160a01b0319928316811790915560068054909216179055565b601e60209081526000928352604080842090915290825290205481565b60008373__AOLibrary_____________________________632fca5414826040518263ffffffff1660e01b815260040180826001600160a01b03166001600160a01b0316815260200191505060206040518083038186803b158015611ecd57600080fd5b505af4158015611ee1573d6000803e3d6000fd5b505050506040513d6020811015611ef757600080fd5b5051611f0257600080fd5b6008546001600160a01b03163314611f1957600080fd5b8315611f2c5760008311611f2c57600080fd5b6001600160a01b038581166000908152601560205260409020541615611f5157600080fd5b6001600160a01b03851660008181526015602052604090208054600282018054600160ff199091161790556001600160a01b031916909117600160a01b60ff021916600160a01b8615801591909102919091178255611fb257600181018490555b8054600182015460028301546040805160ff600160a01b860481161515825260208201949094529190921615158183015290516001600160a01b03909216917f2d333584a4195376719b161f274a701d7dbe5698253665deb3edc1c1e4b8c6bd9181900360600190a250600195945050505050565b60166020526000908152604090208054600182015460028301546003840154600485015460058601546006870154600788015460089098015496976001600160a01b03968716979596909416949293919290919089565b6001600160a01b031660009081526019602052604090205490565b60005460015460408051600160e21b633d9abf2b0281523360048201526001600160a01b0393841660248201529290911660448301525173__AOLibrary_____________________________9163f66afcac916064808301926020929190829003018186803b15801561210b57600080fd5b505af415801561211f573d6000803e3d6000fd5b505050506040513d602081101561213557600080fd5b505161214057600080fd5b6001600160a01b03811661215357600080fd5b600980546001600160a01b039092166001600160a01b03199283168117909155600d8054909216179055565b60115481565b60125481565b60005460015460408051600160e21b633d9abf2b0281523360048201526001600160a01b0393841660248201529290911660448301525173__AOLibrary_____________________________9163f66afcac916064808301926020929190829003018186803b1580156121fd57600080fd5b505af4158015612211573d6000803e3d6000fd5b505050506040513d602081101561222757600080fd5b505161223257600080fd5b6001600160a01b03811661224557600080fd5b600380546001600160a01b039092166001600160a01b0319928316811790915560058054909216179055565b60176020526000908152604090205481565b600a546001600160a01b031681565b601f60209081526000928352604080842090915290825290205481565b60145481565b60008173__AOLibrary_____________________________632fca5414826040518263ffffffff1660e01b815260040180826001600160a01b03166001600160a01b0316815260200191505060206040518083038186803b15801561231957600080fd5b505af415801561232d573d6000803e3d6000fd5b505050506040513d602081101561234357600080fd5b505161234e57600080fd5b6001600160a01b03831660009081526015602052604090206002015460ff1615156001141561244f57600d5460408051600160e01b6370a082310281526001600160a01b03868116600483015291516124489392909216916370a0823191602480820192602092909190829003018186803b1580156123cc57600080fd5b505afa1580156123e0573d6000803e3d6000fd5b505050506040513d60208110156123f657600080fd5b5051600e5460408051600160e01b6370a082310281526001600160a01b038881166004830152915191909216916370a08231916024808301926020929190829003018186803b15801561187f57600080fd5b9150612454565b600091505b50919050565b60026020526000908152604090205460ff1681565b6015602052600090815260409020805460018201546002909201546001600160a01b0382169260ff600160a01b90930483169290911684565b6004546001600160a01b031681565b6000546001600160a01b031681565b601d60209081526000928352604080842090915290825290205481565b6003546001600160a01b031681565b60135481565b606082821015801561252157506001600160a01b03841660009081526019602052604090205482105b61252a57600080fd5b606061254d6001612541858763ffffffff61340e16565b9063ffffffff6133fb16565b604051908082528060200260200182016040528015612576578160200160208202803883390190505b509050835b8381116125e0576001600160a01b03861660009081526019602052604090208054829081106125a657fe5b600091825260209091200154826125c3838863ffffffff61340e16565b815181106125cd57fe5b602090810291909101015260010161257b565b50949350505050565b60055460408051600160e01b63029b7d5302815233600482015290516000926001600160a01b03169163029b7d53916024808301926020929190829003018186803b15801561263757600080fd5b505afa15801561264b573d6000803e3d6000fd5b505050506040513d602081101561266157600080fd5b50516001600160a01b0316141561267757600080fd5b60075460055460408051600160e01b63029b7d5302815233600482015290516001600160a01b0393841693633ebc2ab393169163029b7d53916024808301926020929190829003018186803b1580156126cf57600080fd5b505afa1580156126e3573d6000803e3d6000fd5b505050506040513d60208110156126f957600080fd5b50516040805163ffffffff841660e01b81526001600160a01b039092166004830152516024808301926020929190829003018186803b15801561273b57600080fd5b505afa15801561274f573d6000803e3d6000fd5b505050506040513d602081101561276557600080fd5b50511561277157600080fd5b60008181526016602090815260408083206005548251600160e01b63029b7d5302815233600482015292519194936001600160a01b039091169263029b7d539260248083019392829003018186803b1580156127cc57600080fd5b505afa1580156127e0573d6000803e3d6000fd5b505050506040513d60208110156127f657600080fd5b505160018301549091506001600160a01b03808316911614801561281e575060008260060154115b61282757600080fd5b60006128328461165e565b9050600081118015612848575082600601548111155b61285157600080fd5b6007830154612866908263ffffffff6133fb16565b60078401556006830154612880908263ffffffff61340e16565b6006840155601454612898908263ffffffff6133fb16565b60145560038301546001600160a01b03166000908152601860205260409020546128c8908263ffffffff6133fb16565b60038401546001600160a01b0390811660009081526018602090815260408083209490945560018701549092168152601c909152205461290e908263ffffffff6133fb16565b6001840180546001600160a01b039081166000908152601c6020908152604080832095909555925482168152601f8352838120600388015490921681529152205461295f908263ffffffff6133fb16565b60018401546001600160a01b039081166000908152601f60209081526040808320600389015485168452825280832094909455600f548451600160e01b6340c10f1902815287851660048201526024810187905294519316936340c10f199360448083019491928390030190829087803b1580156129dc57600080fd5b505af11580156129f0573d6000803e3d6000fd5b505050506040513d6020811015612a0657600080fd5b5051612a1157600080fd5b6003830154835460018501546006860154600787015460408051878152602081019390935282810191909152426060830152516001600160a01b039485169492909216917f04948b7acb9fd946cfe937519700b8b415b7e2b1b2ed0c45464add19548c05cc9181900360800190a450505050565b60105481565b60005460015460408051600160e21b633d9abf2b0281523360048201526001600160a01b0393841660248201529290911660448301525173__AOLibrary_____________________________9163f66afcac916064808301926020929190829003018186803b158015612afd57600080fd5b505af4158015612b11573d6000803e3d6000fd5b505050506040513d6020811015612b2757600080fd5b5051612b3257600080fd5b6001600160a01b038116612b4557600080fd5b600080546001600160a01b0319166001600160a01b0392909216919091179055565b8173__AOLibrary_____________________________632fca5414826040518263ffffffff1660e01b815260040180826001600160a01b03166001600160a01b0316815260200191505060206040518083038186803b158015612bc957600080fd5b505af4158015612bdd573d6000803e3d6000fd5b505050506040513d6020811015612bf357600080fd5b5051612bfe57600080fd5b60055460408051600160e01b63029b7d5302815233600482015290516000926001600160a01b03169163029b7d53916024808301926020929190829003018186803b158015612c4c57600080fd5b505afa158015612c60573d6000803e3d6000fd5b505050506040513d6020811015612c7657600080fd5b50516001600160a01b03161415612c8c57600080fd5b60075460055460408051600160e01b63029b7d5302815233600482015290516001600160a01b0393841693633ebc2ab393169163029b7d53916024808301926020929190829003018186803b158015612ce457600080fd5b505afa158015612cf8573d6000803e3d6000fd5b505050506040513d6020811015612d0e57600080fd5b50516040805163ffffffff841660e01b81526001600160a01b039092166004830152516024808301926020929190829003018186803b158015612d5057600080fd5b505afa158015612d64573d6000803e3d6000fd5b505050506040513d6020811015612d7a57600080fd5b505115612d8657600080fd5b612d8e613420565b506001600160a01b03808416600090815260156020908152604080832081516080810183528154808716825260ff600160a01b9091048116151582860152600183015482850152600290920154909116151560608201526005548251600160e01b63029b7d5302815233600482015292519195169263029b7d539260248082019391829003018186803b158015612e2457600080fd5b505afa158015612e38573d6000803e3d6000fd5b505050506040513d6020811015612e4e57600080fd5b5051606083015190915015156001148015612e695750600084115b8015612ef25750600e5460408051600160e01b6370a082310281526001600160a01b0384811660048301529151879392909216916370a0823191602480820192602092909190829003018186803b158015612ec357600080fd5b505afa158015612ed7573d6000803e3d6000fd5b505050506040513d6020811015612eed57600080fd5b505110155b612efb57600080fd5b816020015115612fa457604080830151600e548251600160e01b6370a082310281526001600160a01b03898116600483015293519293612f9993899391909116916370a08231916024808301926020929190829003018186803b158015612f6157600080fd5b505afa158015612f75573d6000803e3d6000fd5b505050506040513d6020811015612f8b57600080fd5b50519063ffffffff6133fb16565b1115612fa457600080fd5b60108054600190810182556001600160a01b0380881660008181526017602090815260408083208054870190559554865130606090811b8285015233901b60348201526048808201929092528751808203909201825260688101808952825192840192909220808552601684529388902084815596870180548a88166001600160a01b031991821617909155600288018d905560038801805490911686179055600e54600160e01b6370a0823102909252606c81019490945295519195909316926370a0823192608c8082019391829003018186803b15801561308657600080fd5b505afa15801561309a573d6000803e3d6000fd5b505050506040513d60208110156130b057600080fd5b5051600480830191909155600e5460408051600160e01b6370a082310281526001600160a01b038b8116948201949094529051613110938a9316916370a08231916024808301926020929190829003018186803b158015612f6157600080fd5b6005820155600681018690554260088201556001600160a01b0383166000818152601960209081526040808320805460018101825590845282842001869055928252601a90522054613168908763ffffffff6133fb16565b6001600160a01b038085166000908152601a6020908152604080832094909455601d8152838220928b1682529190915220546131aa908763ffffffff6133fb16565b6001600160a01b038085166000908152601d60209081526040808320938c16835292905220556012546131e3908763ffffffff6133fb16565b601255600e5460408051600160e01b6323b872dd0281526001600160a01b0386811660048301528a81166024830152604482018a9052915191909216916323b872dd9160648083019260209291908290030181600087803b15801561324757600080fd5b505af115801561325b573d6000803e3d6000fd5b505050506040513d602081101561327157600080fd5b505161327c57600080fd5b600181015481546003830154600284015460048501546005860154600687015460088801546040805195865260208601949094528484019290925260608401526080830152516001600160a01b039485169492909216917f649ebc3a713a736fd86489f7362fff3bb4099403c0f6de86bd7d409aeb9808389181900360a00190a450505050505050565b6008546001600160a01b031681565b60005460015460408051600160e21b633d9abf2b0281523360048201526001600160a01b0393841660248201529290911660448301525173__AOLibrary_____________________________9163f66afcac916064808301926020929190829003018186803b15801561338757600080fd5b505af415801561339b573d6000803e3d6000fd5b505050506040513d60208110156133b157600080fd5b50516133bc57600080fd5b6001600160a01b0381166133cf57600080fd5b600b80546001600160a01b039092166001600160a01b03199283168117909155600f8054909216179055565b8181018281101561340857fe5b92915050565b60008282111561341a57fe5b50900390565b60408051608081018252600080825260208201819052918101829052606081019190915290565b6040518061012001604052806000801916815260200160006001600160a01b031681526020016000815260200160006001600160a01b031681526020016000815260200160008152602001600081526020016000815260200160008152509056fea165627a7a7230582075ad654c91f7b3045945c7579abbc51fbd4e63514c8065fab50abd4e739bfbfd0029",
  "source": "pragma solidity >=0.5.4 <0.6.0;\n\nimport './SafeMath.sol';\nimport './TAOController.sol';\nimport './ITAOPool.sol';\nimport './ITAOFactory.sol';\nimport './TAOCurrency.sol';\nimport './Logos.sol';\nimport './TAO.sol';\n\n/**\n * @title TAOPool\n *\n * This contract acts as the bookkeeper of TAO Currencies that are staked on TAO\n */\ncontract TAOPool is TAOController, ITAOPool {\n\tusing SafeMath for uint256;\n\n\taddress public taoFactoryAddress;\n\taddress public pathosAddress;\n\taddress public ethosAddress;\n\taddress public logosAddress;\n\n\tITAOFactory internal _taoFactory;\n\tTAOCurrency internal _pathos;\n\tTAOCurrency internal _ethos;\n\tLogos internal _logos;\n\n\tstruct Pool {\n\t\taddress taoId;\n\t\t/**\n\t\t * If true, has ethos cap. Otherwise, no ethos cap.\n\t\t */\n\t\tbool ethosCapStatus;\n\t\tuint256 ethosCapAmount;\t// Creates a cap for the amount of Ethos that can be staked into this pool\n\n\t\t/**\n\t\t * If true, Pool is live and can be staked into.\n\t\t */\n\t\tbool status;\n\t}\n\n\tstruct EthosLot {\n\t\tbytes32 ethosLotId;\t\t\t\t\t// The ID of this Lot\n\t\taddress nameId;\t\t\t\t\t\t// The ID of the Name that staked Ethos\n\t\tuint256 lotQuantity;\t\t\t\t// Amount of Ethos being staked to the Pool from this Lot\n\t\taddress taoId;\t\t\t\t\t\t// Identifier for the Pool this Lot is adding to\n\t\tuint256 poolPreStakeSnapshot;\t\t// Amount of Ethos contributed to the Pool prior to this Lot Number\n\t\tuint256 poolStakeLotSnapshot;\t\t// poolPreStakeSnapshot + lotQuantity\n\t\tuint256 lotValueInLogos;\n\t\tuint256 logosWithdrawn;\t\t\t\t// Amount of Logos withdrawn from this Lot\n\t\tuint256 timestamp;\n\t}\n\n\tuint256 public contractTotalEthosLot;\t\t// Total Ethos lot from all pools\n\tuint256 public contractTotalPathosStake;\t// Total Pathos stake from all pools (how many Pathos stakes are there in contract)\n\tuint256 public contractTotalEthos;\t\t\t// Quantity of Ethos that has been staked to all Pools\n\tuint256 public contractTotalPathos;\t\t\t// Quantity of Pathos that has been staked to all Pools\n\tuint256 public contractTotalLogosWithdrawn;\t\t// Quantity of Logos that has been withdrawn from all Pools\n\n\t// Mapping from TAO ID to Pool\n\tmapping (address => Pool) public pools;\n\n\t// Mapping from Ethos Lot ID to Ethos Lot\n\tmapping (bytes32 => EthosLot) public ethosLots;\n\n\t// Mapping from Pool's TAO ID to total Ethos Lots in the Pool\n\tmapping (address => uint256) public poolTotalEthosLot;\n\n\t// Mapping from Pool's TAO ID to quantity of Logos that has been withdrawn from the Pool\n\tmapping (address => uint256) public poolTotalLogosWithdrawn;\n\n\t// Mapping from a Name ID to its Ethos Lots\n\tmapping (address => bytes32[]) internal ownerEthosLots;\n\n\t// Mapping from a Name ID to quantity of Ethos staked from all Ethos lots\n\tmapping (address => uint256) public totalEthosStaked;\n\n\t// Mapping from a Name ID to quantity of Pathos staked from all Ethos lots\n\tmapping (address => uint256) public totalPathosStaked;\n\n\t// Mapping from a Name ID to total Logos withdrawn from all Ethos lots\n\tmapping (address => uint256) public totalLogosWithdrawn;\n\n\t// Mapping from a Name ID to quantity of Ethos staked from all Ethos lots on a Pool\n\tmapping (address => mapping (address => uint256)) public namePoolEthosStaked;\n\n\t// Mapping from a Name ID to quantity of Pathos staked on a Pool\n\tmapping (address => mapping (address => uint256)) public namePoolPathosStaked;\n\n\t// Mapping from a Name ID to quantity of Logos withdrawn from a Pool\n\tmapping (address => mapping (address => uint256)) public namePoolLogosWithdrawn;\n\n\t// Event to be broadcasted to public when Pool is created\n\tevent CreatePool(address indexed taoId, bool ethosCapStatus, uint256 ethosCapAmount, bool status);\n\n\t// Event to be broadcasted to public when Pool's status is updated\n\t// If status == true, start Pool\n\t// Otherwise, stop Pool\n\tevent UpdatePoolStatus(address indexed taoId, bool status, uint256 nonce);\n\n\t// Event to be broadcasted to public when Pool's Ethos cap is updated\n\tevent UpdatePoolEthosCap(address indexed taoId, bool ethosCapStatus, uint256 ethosCapAmount, uint256 nonce);\n\n\t/**\n\t * Event to be broadcasted to public when nameId stakes Ethos\n\t */\n\tevent StakeEthos(address indexed taoId, bytes32 indexed ethosLotId, address indexed nameId, uint256 lotQuantity, uint256 poolPreStakeSnapshot, uint256 poolStakeLotSnapshot, uint256 lotValueInLogos, uint256 timestamp);\n\n\t// Event to be broadcasted to public when nameId stakes Pathos\n\tevent StakePathos(address indexed taoId, bytes32 indexed stakeId, address indexed nameId, uint256 stakeQuantity, uint256 currentPoolTotalStakedPathos, uint256 timestamp);\n\n\t// Event to be broadcasted to public when nameId withdraws Logos from Ethos Lot\n\tevent WithdrawLogos(address indexed nameId, bytes32 indexed ethosLotId, address indexed taoId, uint256 withdrawnAmount, uint256 currentLotValueInLogos, uint256 currentLotLogosWithdrawn, uint256 timestamp);\n\n\t/**\n\t * @dev Constructor function\n\t */\n\tconstructor(address _nameFactoryAddress, address _taoFactoryAddress, address _nameTAOPositionAddress, address _pathosAddress, address _ethosAddress, address _logosAddress)\n\t\tTAOController(_nameFactoryAddress) public {\n\t\tsetTAOFactoryAddress(_taoFactoryAddress);\n\t\tsetNameTAOPositionAddress(_nameTAOPositionAddress);\n\t\tsetPathosAddress(_pathosAddress);\n\t\tsetEthosAddress(_ethosAddress);\n\t\tsetLogosAddress(_logosAddress);\n\t}\n\n\t/**\n\t * @dev Check if calling address is TAO Factory address\n\t */\n\tmodifier onlyTAOFactory {\n\t\trequire (msg.sender == taoFactoryAddress);\n\t\t_;\n\t}\n\n\t/***** The AO ONLY METHODS *****/\n\t/**\n\t * @dev The AO set the TAOFactory Address\n\t * @param _taoFactoryAddress The address of TAOFactory\n\t */\n\tfunction setTAOFactoryAddress(address _taoFactoryAddress) public onlyTheAO {\n\t\trequire (_taoFactoryAddress != address(0));\n\t\ttaoFactoryAddress = _taoFactoryAddress;\n\t\t_taoFactory = ITAOFactory(_taoFactoryAddress);\n\t}\n\n\t/**\n\t * @dev The AO set the Pathos Address\n\t * @param _pathosAddress The address of Pathos\n\t */\n\tfunction setPathosAddress(address _pathosAddress) public onlyTheAO {\n\t\trequire (_pathosAddress != address(0));\n\t\tpathosAddress = _pathosAddress;\n\t\t_pathos = TAOCurrency(_pathosAddress);\n\t}\n\n\t/**\n\t * @dev The AO set the Ethos Address\n\t * @param _ethosAddress The address of Ethos\n\t */\n\tfunction setEthosAddress(address _ethosAddress) public onlyTheAO {\n\t\trequire (_ethosAddress != address(0));\n\t\tethosAddress = _ethosAddress;\n\t\t_ethos = TAOCurrency(_ethosAddress);\n\t}\n\n\t/**\n\t * @dev The AO set the Logos Address\n\t * @param _logosAddress The address of Logos\n\t */\n\tfunction setLogosAddress(address _logosAddress) public onlyTheAO {\n\t\trequire (_logosAddress != address(0));\n\t\tlogosAddress = _logosAddress;\n\t\t_logos = Logos(_logosAddress);\n\t}\n\n\t/***** PUBLIC METHODS *****/\n\t/**\n\t * @dev Check whether or not Pool exist for a TAO ID\n\t * @param _id The ID to be checked\n\t * @return true if yes, false otherwise\n\t */\n\tfunction isExist(address _id) public view returns (bool) {\n\t\treturn pools[_id].taoId != address(0);\n\t}\n\n\t/**\n\t * @dev Create a pool for a TAO\n\t */\n\tfunction createPool(\n\t\taddress _taoId,\n\t\tbool _ethosCapStatus,\n\t\tuint256 _ethosCapAmount\n\t) external isTAO(_taoId) onlyTAOFactory returns (bool) {\n\t\t// Make sure ethos cap amount is provided if ethos cap is enabled\n\t\tif (_ethosCapStatus) {\n\t\t\trequire (_ethosCapAmount > 0);\n\t\t}\n\t\t// Make sure the pool is not yet created\n\t\trequire (pools[_taoId].taoId == address(0));\n\n\t\tPool storage _pool = pools[_taoId];\n\t\t_pool.taoId = _taoId;\n\t\t_pool.status = true;\n\t\t_pool.ethosCapStatus = _ethosCapStatus;\n\t\tif (_ethosCapStatus) {\n\t\t\t_pool.ethosCapAmount = _ethosCapAmount;\n\t\t}\n\n\t\temit CreatePool(_pool.taoId, _pool.ethosCapStatus, _pool.ethosCapAmount, _pool.status);\n\t\treturn true;\n\t}\n\n\t/**\n\t * @dev Start/Stop a Pool\n\t * @param _taoId The TAO ID of the Pool\n\t * @param _status The status to set. true = start. false = stop\n\t */\n\tfunction updatePoolStatus(address _taoId, bool _status) public isTAO(_taoId) onlyAdvocate(_taoId) senderNameNotCompromised {\n\t\trequire (pools[_taoId].taoId != address(0));\n\t\tpools[_taoId].status = _status;\n\n\t\tuint256 _nonce = _taoFactory.incrementNonce(_taoId);\n\t\trequire (_nonce > 0);\n\n\t\temit UpdatePoolStatus(_taoId, _status, _nonce);\n\t}\n\n\t/**\n\t * @dev Update Ethos cap of a Pool\n\t * @param _taoId The TAO ID of the Pool\n\t * @param _ethosCapStatus The ethos cap status to set\n\t * @param _ethosCapAmount The ethos cap amount to set\n\t */\n\tfunction updatePoolEthosCap(address _taoId, bool _ethosCapStatus, uint256 _ethosCapAmount) public isTAO(_taoId) onlyAdvocate(_taoId) senderNameNotCompromised {\n\t\trequire (pools[_taoId].taoId != address(0));\n\t\t// If there is an ethos cap\n\t\tif (_ethosCapStatus) {\n\t\t\trequire (_ethosCapAmount > 0 && _ethosCapAmount > _pathos.balanceOf(_taoId));\n\t\t}\n\n\t\tpools[_taoId].ethosCapStatus = _ethosCapStatus;\n\t\tif (_ethosCapStatus) {\n\t\t\tpools[_taoId].ethosCapAmount = _ethosCapAmount;\n\t\t}\n\n\t\tuint256 _nonce = _taoFactory.incrementNonce(_taoId);\n\t\trequire (_nonce > 0);\n\n\t\temit UpdatePoolEthosCap(_taoId, _ethosCapStatus, _ethosCapAmount, _nonce);\n\t}\n\n\t/**\n\t * @dev A Name stakes Ethos in Pool `_taoId`\n\t * @param _taoId The TAO ID of the Pool\n\t * @param _quantity The amount of Ethos to be staked\n\t */\n\tfunction stakeEthos(address _taoId, uint256 _quantity) public isTAO(_taoId) senderIsName senderNameNotCompromised {\n\t\tPool memory _pool = pools[_taoId];\n\t\taddress _nameId = _nameFactory.ethAddressToNameId(msg.sender);\n\t\trequire (_pool.status == true && _quantity > 0 && _ethos.balanceOf(_nameId) >= _quantity);\n\n\t\t// If there is an ethos cap\n\t\tif (_pool.ethosCapStatus) {\n\t\t\trequire (_ethos.balanceOf(_taoId).add(_quantity) <= _pool.ethosCapAmount);\n\t\t}\n\n\t\t// Create Ethos Lot for this transaction\n\t\tcontractTotalEthosLot++;\n\t\tpoolTotalEthosLot[_taoId]++;\n\n\t\t// Generate Ethos Lot ID\n\t\tbytes32 _ethosLotId = keccak256(abi.encodePacked(this, msg.sender, contractTotalEthosLot));\n\n\t\tEthosLot storage _ethosLot = ethosLots[_ethosLotId];\n\t\t_ethosLot.ethosLotId = _ethosLotId;\n\t\t_ethosLot.nameId = _nameId;\n\t\t_ethosLot.lotQuantity = _quantity;\n\t\t_ethosLot.taoId = _taoId;\n\t\t_ethosLot.poolPreStakeSnapshot = _ethos.balanceOf(_taoId);\n\t\t_ethosLot.poolStakeLotSnapshot = _ethos.balanceOf(_taoId).add(_quantity);\n\t\t_ethosLot.lotValueInLogos = _quantity;\n\t\t_ethosLot.timestamp = now;\n\n\t\townerEthosLots[_nameId].push(_ethosLotId);\n\n\t\t// Update contract variables\n\t\ttotalEthosStaked[_nameId] = totalEthosStaked[_nameId].add(_quantity);\n\t\tnamePoolEthosStaked[_nameId][_taoId] = namePoolEthosStaked[_nameId][_taoId].add(_quantity);\n\t\tcontractTotalEthos = contractTotalEthos.add(_quantity);\n\n\t\trequire (_ethos.transferFrom(_nameId, _taoId, _quantity));\n\n\t\temit StakeEthos(_ethosLot.taoId, _ethosLot.ethosLotId, _ethosLot.nameId, _ethosLot.lotQuantity, _ethosLot.poolPreStakeSnapshot, _ethosLot.poolStakeLotSnapshot, _ethosLot.lotValueInLogos, _ethosLot.timestamp);\n\t}\n\n\t/**\n\t * @dev Retrieve number of Ethos Lots a `_nameId` has\n\t * @param _nameId The Name ID of the Ethos Lot's owner\n\t * @return Total Ethos Lots the owner has\n\t */\n\tfunction ownerTotalEthosLot(address _nameId) public view returns (uint256) {\n\t\treturn ownerEthosLots[_nameId].length;\n\t}\n\n\t/**\n\t * @dev Get list of owner's Ethos Lot IDs from `_from` to `_to` index\n\t * @param _nameId The Name Id of the Ethos Lot's owner\n\t * @param _from The starting index, (i.e 0)\n\t * @param _to The ending index, (i.e total - 1)\n\t * @return list of owner's Ethos Lot IDs\n\t */\n\tfunction ownerEthosLotIds(address _nameId, uint256 _from, uint256 _to) public view returns (bytes32[] memory) {\n\t\trequire (_from >= 0 && _to >= _from && ownerEthosLots[_nameId].length > _to);\n\t\tbytes32[] memory _ethosLotIds = new bytes32[](_to.sub(_from).add(1));\n\t\tfor (uint256 i = _from; i <= _to; i++) {\n\t\t\t_ethosLotIds[i.sub(_from)] = ownerEthosLots[_nameId][i];\n\t\t}\n\t\treturn _ethosLotIds;\n\t}\n\n\t/**\n\t * @dev Return the amount of Pathos that can be staked on Pool\n\t * @param _taoId The TAO ID of the Pool\n\t * @return The amount of Pathos that can be staked\n\t */\n\tfunction availablePathosToStake(address _taoId) public isTAO(_taoId) view returns (uint256) {\n\t\tif (pools[_taoId].status == true) {\n\t\t\treturn _ethos.balanceOf(_taoId).sub(_pathos.balanceOf(_taoId));\n\t\t} else {\n\t\t\treturn 0;\n\t\t}\n\t}\n\n\t/**\n\t * @dev A Name stakes Pathos in Pool `_taoId`\n\t * @param _taoId The TAO ID of the Pool\n\t * @param _quantity The amount of Pathos to stake\n\t */\n\tfunction stakePathos(address _taoId, uint256 _quantity) public isTAO(_taoId) senderIsName senderNameNotCompromised {\n\t\tPool memory _pool = pools[_taoId];\n\t\taddress _nameId = _nameFactory.ethAddressToNameId(msg.sender);\n\t\trequire (_pool.status == true && _quantity > 0 && _pathos.balanceOf(_nameId) >= _quantity && _quantity <= availablePathosToStake(_taoId));\n\n\t\t// Update contract variables\n\t\tcontractTotalPathosStake++;\n\t\ttotalPathosStaked[_nameId] = totalPathosStaked[_nameId].add(_quantity);\n\t\tnamePoolPathosStaked[_nameId][_taoId] = namePoolPathosStaked[_nameId][_taoId].add(_quantity);\n\t\tcontractTotalPathos = contractTotalPathos.add(_quantity);\n\n\t\t// Generate Pathos Stake ID\n\t\tbytes32 _stakeId = keccak256(abi.encodePacked(this, msg.sender, contractTotalPathosStake));\n\n\t\trequire (_pathos.transferFrom(_nameId, _taoId, _quantity));\n\n\t\t// Also add advocated TAO logos to Advocate of _taoId\n\t\trequire (_logos.addAdvocatedTAOLogos(_taoId, _quantity));\n\n\t\temit StakePathos(_taoId, _stakeId, _nameId, _quantity, _pathos.balanceOf(_taoId), now);\n\t}\n\n\t/**\n\t * @dev Name that staked Ethos withdraw Logos from Ethos Lot `_ethosLotId`\n\t * @param _ethosLotId The ID of the Ethos Lot\n\t */\n\tfunction withdrawLogos(bytes32 _ethosLotId) public senderIsName senderNameNotCompromised {\n\t\tEthosLot storage _ethosLot = ethosLots[_ethosLotId];\n\t\taddress _nameId = _nameFactory.ethAddressToNameId(msg.sender);\n\t\trequire (_ethosLot.nameId == _nameId && _ethosLot.lotValueInLogos > 0);\n\n\t\tuint256 logosAvailableToWithdraw = lotLogosAvailableToWithdraw(_ethosLotId);\n\n\t\trequire (logosAvailableToWithdraw > 0 && logosAvailableToWithdraw <= _ethosLot.lotValueInLogos);\n\n\t\t// Update lot variables\n\t\t_ethosLot.logosWithdrawn = _ethosLot.logosWithdrawn.add(logosAvailableToWithdraw);\n\t\t_ethosLot.lotValueInLogos = _ethosLot.lotValueInLogos.sub(logosAvailableToWithdraw);\n\n\t\t// Update contract variables\n\t\tcontractTotalLogosWithdrawn = contractTotalLogosWithdrawn.add(logosAvailableToWithdraw);\n\t\tpoolTotalLogosWithdrawn[_ethosLot.taoId] = poolTotalLogosWithdrawn[_ethosLot.taoId].add(logosAvailableToWithdraw);\n\t\ttotalLogosWithdrawn[_ethosLot.nameId] = totalLogosWithdrawn[_ethosLot.nameId].add(logosAvailableToWithdraw);\n\t\tnamePoolLogosWithdrawn[_ethosLot.nameId][_ethosLot.taoId] = namePoolLogosWithdrawn[_ethosLot.nameId][_ethosLot.taoId].add(logosAvailableToWithdraw);\n\n\t\t// Mint logos to seller\n\t\trequire (_logos.mint(_nameId, logosAvailableToWithdraw));\n\n\t\temit WithdrawLogos(_ethosLot.nameId, _ethosLot.ethosLotId, _ethosLot.taoId, logosAvailableToWithdraw, _ethosLot.lotValueInLogos, _ethosLot.logosWithdrawn, now);\n\t}\n\n\t/**\n\t * @dev Name gets Ethos Lot `_ethosLotId` available Logos to withdraw\n\t * @param _ethosLotId The ID of the Ethos Lot\n\t * @return The amount of Logos available to withdraw\n\t */\n\tfunction lotLogosAvailableToWithdraw(bytes32 _ethosLotId) public view returns (uint256) {\n\t\tEthosLot memory _ethosLot = ethosLots[_ethosLotId];\n\t\trequire (_ethosLot.nameId != address(0));\n\n\t\tuint256 logosAvailableToWithdraw = 0;\n\n\t\tif (_pathos.balanceOf(_ethosLot.taoId) > _ethosLot.poolPreStakeSnapshot && _ethosLot.lotValueInLogos > 0) {\n\t\t\tlogosAvailableToWithdraw = (_pathos.balanceOf(_ethosLot.taoId) >= _ethosLot.poolStakeLotSnapshot) ? _ethosLot.lotQuantity : _pathos.balanceOf(_ethosLot.taoId).sub(_ethosLot.poolPreStakeSnapshot);\n\t\t\tif (logosAvailableToWithdraw > 0) {\n\t\t\t\tlogosAvailableToWithdraw = logosAvailableToWithdraw.sub(_ethosLot.logosWithdrawn);\n\t\t\t}\n\t\t}\n\t\treturn logosAvailableToWithdraw;\n\t}\n}\n",
  "sourcePath": "/usr/local/ao-contracts/contracts/TAOPool.sol",
  "compiler": {
    "name": "solc",
    "version": "0.5.6+commit.b259423e.Emscripten.clang"
  },
  "schemaVersion": "3.0.2",
  "updatedAt": "2019-04-11T01:08:06.366Z",
  "devdoc": {
    "methods": {
      "availablePathosToStake(address)": {
        "details": "Return the amount of Pathos that can be staked on Pool",
        "params": {
          "_taoId": "The TAO ID of the Pool"
        },
        "return": "The amount of Pathos that can be staked"
      },
      "constructor": {
        "details": "Constructor function"
      },
      "createPool(address,bool,uint256)": {
        "details": "Create a pool for a TAO"
      },
      "isExist(address)": {
        "details": "Check whether or not Pool exist for a TAO ID",
        "params": {
          "_id": "The ID to be checked"
        },
        "return": "true if yes, false otherwise"
      },
      "lotLogosAvailableToWithdraw(bytes32)": {
        "details": "Name gets Ethos Lot `_ethosLotId` available Logos to withdraw",
        "params": {
          "_ethosLotId": "The ID of the Ethos Lot"
        },
        "return": "The amount of Logos available to withdraw"
      },
      "ownerEthosLotIds(address,uint256,uint256)": {
        "details": "Get list of owner's Ethos Lot IDs from `_from` to `_to` index",
        "params": {
          "_from": "The starting index, (i.e 0)",
          "_nameId": "The Name Id of the Ethos Lot's owner",
          "_to": "The ending index, (i.e total - 1)"
        },
        "return": "list of owner's Ethos Lot IDs"
      },
      "ownerTotalEthosLot(address)": {
        "details": "Retrieve number of Ethos Lots a `_nameId` has",
        "params": {
          "_nameId": "The Name ID of the Ethos Lot's owner"
        },
        "return": "Total Ethos Lots the owner has"
      },
      "setEthosAddress(address)": {
        "details": "The AO set the Ethos Address",
        "params": {
          "_ethosAddress": "The address of Ethos"
        }
      },
      "setLogosAddress(address)": {
        "details": "The AO set the Logos Address",
        "params": {
          "_logosAddress": "The address of Logos"
        }
      },
      "setNameAccountRecoveryAddress(address)": {
        "details": "The AO set the NameAccountRecovery Address",
        "params": {
          "_nameAccountRecoveryAddress": "The address of NameAccountRecovery"
        }
      },
      "setNameFactoryAddress(address)": {
        "details": "The AO sets NameFactory address",
        "params": {
          "_nameFactoryAddress": "The address of NameFactory"
        }
      },
      "setNameTAOPositionAddress(address)": {
        "details": "The AO sets NameTAOPosition address",
        "params": {
          "_nameTAOPositionAddress": "The address of NameTAOPosition"
        }
      },
      "setPathosAddress(address)": {
        "details": "The AO set the Pathos Address",
        "params": {
          "_pathosAddress": "The address of Pathos"
        }
      },
      "setTAOFactoryAddress(address)": {
        "details": "The AO set the TAOFactory Address",
        "params": {
          "_taoFactoryAddress": "The address of TAOFactory"
        }
      },
      "setWhitelist(address,bool)": {
        "details": "Whitelist `_account` address to transact on behalf of others",
        "params": {
          "_account": "The address to whitelist",
          "_whitelist": "Either to whitelist or not"
        }
      },
      "stakeEthos(address,uint256)": {
        "details": "A Name stakes Ethos in Pool `_taoId`",
        "params": {
          "_quantity": "The amount of Ethos to be staked",
          "_taoId": "The TAO ID of the Pool"
        }
      },
      "stakePathos(address,uint256)": {
        "details": "A Name stakes Pathos in Pool `_taoId`",
        "params": {
          "_quantity": "The amount of Pathos to stake",
          "_taoId": "The TAO ID of the Pool"
        }
      },
      "transferOwnership(address)": {
        "details": "Transfer ownership of The AO to new address",
        "params": {
          "_theAO": "The new address to be transferred"
        }
      },
      "updatePoolEthosCap(address,bool,uint256)": {
        "details": "Update Ethos cap of a Pool",
        "params": {
          "_ethosCapAmount": "The ethos cap amount to set",
          "_ethosCapStatus": "The ethos cap status to set",
          "_taoId": "The TAO ID of the Pool"
        }
      },
      "updatePoolStatus(address,bool)": {
        "details": "Start/Stop a Pool",
        "params": {
          "_status": "The status to set. true = start. false = stop",
          "_taoId": "The TAO ID of the Pool"
        }
      },
      "withdrawLogos(bytes32)": {
        "details": "Name that staked Ethos withdraw Logos from Ethos Lot `_ethosLotId`",
        "params": {
          "_ethosLotId": "The ID of the Ethos Lot"
        }
      }
    },
    "title": "TAOPool * This contract acts as the bookkeeper of TAO Currencies that are staked on TAO"
  },
  "userdoc": {
    "methods": {}
  }
}