{
  "contractName": "TAOPool",
  "abi": [
    {
      "constant": false,
      "inputs": [
        {
          "name": "_nameAccountRecoveryAddress",
          "type": "address"
        }
      ],
      "name": "setNameAccountRecoveryAddress",
      "outputs": [],
      "payable": false,
      "stateMutability": "nonpayable",
      "type": "function"
    },
    {
      "constant": true,
      "inputs": [
        {
          "name": "",
          "type": "address"
        }
      ],
      "name": "totalEthosStaked",
      "outputs": [
        {
          "name": "",
          "type": "uint256"
        }
      ],
      "payable": false,
      "stateMutability": "view",
      "type": "function"
    },
    {
      "constant": true,
      "inputs": [
        {
          "name": "",
          "type": "address"
        }
      ],
      "name": "poolTotalLogosWithdrawn",
      "outputs": [
        {
          "name": "",
          "type": "uint256"
        }
      ],
      "payable": false,
      "stateMutability": "view",
      "type": "function"
    },
    {
      "constant": true,
      "inputs": [],
      "name": "logosAddress",
      "outputs": [
        {
          "name": "",
          "type": "address"
        }
      ],
      "payable": false,
      "stateMutability": "view",
      "type": "function"
    },
    {
      "constant": true,
      "inputs": [
        {
          "name": "",
          "type": "address"
        }
      ],
      "name": "poolTotalLot",
      "outputs": [
        {
          "name": "",
          "type": "uint256"
        }
      ],
      "payable": false,
      "stateMutability": "view",
      "type": "function"
    },
    {
      "constant": true,
      "inputs": [],
      "name": "pathosAddress",
      "outputs": [
        {
          "name": "",
          "type": "address"
        }
      ],
      "payable": false,
      "stateMutability": "view",
      "type": "function"
    },
    {
      "constant": true,
      "inputs": [],
      "name": "nameTAOPositionAddress",
      "outputs": [
        {
          "name": "",
          "type": "address"
        }
      ],
      "payable": false,
      "stateMutability": "view",
      "type": "function"
    },
    {
      "constant": true,
      "inputs": [],
      "name": "contractTotalLot",
      "outputs": [
        {
          "name": "",
          "type": "uint256"
        }
      ],
      "payable": false,
      "stateMutability": "view",
      "type": "function"
    },
    {
      "constant": false,
      "inputs": [
        {
          "name": "_account",
          "type": "address"
        },
        {
          "name": "_whitelist",
          "type": "bool"
        }
      ],
      "name": "setWhitelist",
      "outputs": [],
      "payable": false,
      "stateMutability": "nonpayable",
      "type": "function"
    },
    {
      "constant": true,
      "inputs": [
        {
          "name": "",
          "type": "address"
        }
      ],
      "name": "totalPathosStaked",
      "outputs": [
        {
          "name": "",
          "type": "uint256"
        }
      ],
      "payable": false,
      "stateMutability": "view",
      "type": "function"
    },
    {
      "constant": false,
      "inputs": [
        {
          "name": "_nameTAOPositionAddress",
          "type": "address"
        }
      ],
      "name": "setNameTAOPositionAddress",
      "outputs": [],
      "payable": false,
      "stateMutability": "nonpayable",
      "type": "function"
    },
    {
      "constant": true,
      "inputs": [],
      "name": "contractTotalEthos",
      "outputs": [
        {
          "name": "",
          "type": "uint256"
        }
      ],
      "payable": false,
      "stateMutability": "view",
      "type": "function"
    },
    {
      "constant": false,
      "inputs": [
        {
          "name": "_nameFactoryAddress",
          "type": "address"
        }
      ],
      "name": "setNameFactoryAddress",
      "outputs": [],
      "payable": false,
      "stateMutability": "nonpayable",
      "type": "function"
    },
    {
      "constant": true,
      "inputs": [],
      "name": "ethosAddress",
      "outputs": [
        {
          "name": "",
          "type": "address"
        }
      ],
      "payable": false,
      "stateMutability": "view",
      "type": "function"
    },
    {
      "constant": true,
      "inputs": [],
      "name": "contractTotalLogosWithdrawn",
      "outputs": [
        {
          "name": "",
          "type": "uint256"
        }
      ],
      "payable": false,
      "stateMutability": "view",
      "type": "function"
    },
    {
      "constant": true,
      "inputs": [
        {
          "name": "",
          "type": "address"
        }
      ],
      "name": "whitelist",
      "outputs": [
        {
          "name": "",
          "type": "bool"
        }
      ],
      "payable": false,
      "stateMutability": "view",
      "type": "function"
    },
    {
      "constant": true,
      "inputs": [
        {
          "name": "",
          "type": "address"
        }
      ],
      "name": "pools",
      "outputs": [
        {
          "name": "taoId",
          "type": "address"
        },
        {
          "name": "ethosCapStatus",
          "type": "bool"
        },
        {
          "name": "ethosCapAmount",
          "type": "uint256"
        },
        {
          "name": "status",
          "type": "bool"
        }
      ],
      "payable": false,
      "stateMutability": "view",
      "type": "function"
    },
    {
      "constant": true,
      "inputs": [],
      "name": "nameAccountRecoveryAddress",
      "outputs": [
        {
          "name": "",
          "type": "address"
        }
      ],
      "payable": false,
      "stateMutability": "view",
      "type": "function"
    },
    {
      "constant": true,
      "inputs": [],
      "name": "theAO",
      "outputs": [
        {
          "name": "",
          "type": "address"
        }
      ],
      "payable": false,
      "stateMutability": "view",
      "type": "function"
    },
    {
      "constant": true,
      "inputs": [],
      "name": "nameFactoryAddress",
      "outputs": [
        {
          "name": "",
          "type": "address"
        }
      ],
      "payable": false,
      "stateMutability": "view",
      "type": "function"
    },
    {
      "constant": true,
      "inputs": [],
      "name": "contractTotalPathos",
      "outputs": [
        {
          "name": "",
          "type": "uint256"
        }
      ],
      "payable": false,
      "stateMutability": "view",
      "type": "function"
    },
    {
      "constant": true,
      "inputs": [
        {
          "name": "",
          "type": "bytes32"
        }
      ],
      "name": "lots",
      "outputs": [
        {
          "name": "lotId",
          "type": "bytes32"
        },
        {
          "name": "nameId",
          "type": "address"
        },
        {
          "name": "lotQuantity",
          "type": "uint256"
        },
        {
          "name": "taoId",
          "type": "address"
        },
        {
          "name": "poolPreStakeSnapshot",
          "type": "uint256"
        },
        {
          "name": "poolStakeLotSnapshot",
          "type": "uint256"
        },
        {
          "name": "lotValueInLogos",
          "type": "uint256"
        },
        {
          "name": "logosWithdrawn",
          "type": "uint256"
        },
        {
          "name": "timestamp",
          "type": "uint256"
        }
      ],
      "payable": false,
      "stateMutability": "view",
      "type": "function"
    },
    {
      "constant": false,
      "inputs": [
        {
          "name": "_theAO",
          "type": "address"
        }
      ],
      "name": "transferOwnership",
      "outputs": [],
      "payable": false,
      "stateMutability": "nonpayable",
      "type": "function"
    },
    {
      "constant": true,
      "inputs": [],
      "name": "taoFactoryAddress",
      "outputs": [
        {
          "name": "",
          "type": "address"
        }
      ],
      "payable": false,
      "stateMutability": "view",
      "type": "function"
    },
    {
      "inputs": [
        {
          "name": "_nameFactoryAddress",
          "type": "address"
        },
        {
          "name": "_taoFactoryAddress",
          "type": "address"
        },
        {
          "name": "_nameTAOPositionAddress",
          "type": "address"
        },
        {
          "name": "_pathosAddress",
          "type": "address"
        },
        {
          "name": "_ethosAddress",
          "type": "address"
        },
        {
          "name": "_logosAddress",
          "type": "address"
        }
      ],
      "payable": false,
      "stateMutability": "nonpayable",
      "type": "constructor"
    },
    {
      "anonymous": false,
      "inputs": [
        {
          "indexed": true,
          "name": "taoId",
          "type": "address"
        },
        {
          "indexed": false,
          "name": "ethosCapStatus",
          "type": "bool"
        },
        {
          "indexed": false,
          "name": "ethosCapAmount",
          "type": "uint256"
        },
        {
          "indexed": false,
          "name": "status",
          "type": "bool"
        }
      ],
      "name": "CreatePool",
      "type": "event"
    },
    {
      "anonymous": false,
      "inputs": [
        {
          "indexed": true,
          "name": "taoId",
          "type": "address"
        },
        {
          "indexed": false,
          "name": "status",
          "type": "bool"
        },
        {
          "indexed": false,
          "name": "nonce",
          "type": "uint256"
        }
      ],
      "name": "UpdatePoolStatus",
      "type": "event"
    },
    {
      "anonymous": false,
      "inputs": [
        {
          "indexed": true,
          "name": "taoId",
          "type": "address"
        },
        {
          "indexed": false,
          "name": "ethosCapStatus",
          "type": "bool"
        },
        {
          "indexed": false,
          "name": "ethosCapAmount",
          "type": "uint256"
        },
        {
          "indexed": false,
          "name": "nonce",
          "type": "uint256"
        }
      ],
      "name": "UpdatePoolEthosCap",
      "type": "event"
    },
    {
      "anonymous": false,
      "inputs": [
        {
          "indexed": true,
          "name": "taoId",
          "type": "address"
        },
        {
          "indexed": true,
          "name": "lotId",
          "type": "bytes32"
        },
        {
          "indexed": true,
          "name": "nameId",
          "type": "address"
        },
        {
          "indexed": false,
          "name": "lotQuantity",
          "type": "uint256"
        },
        {
          "indexed": false,
          "name": "poolPreStakeSnapshot",
          "type": "uint256"
        },
        {
          "indexed": false,
          "name": "poolStakeLotSnapshot",
          "type": "uint256"
        },
        {
          "indexed": false,
          "name": "lotValueInLogos",
          "type": "uint256"
        },
        {
          "indexed": false,
          "name": "timestamp",
          "type": "uint256"
        }
      ],
      "name": "StakeEthos",
      "type": "event"
    },
    {
      "anonymous": false,
      "inputs": [
        {
          "indexed": true,
          "name": "taoId",
          "type": "address"
        },
        {
          "indexed": true,
          "name": "nameId",
          "type": "address"
        },
        {
          "indexed": false,
          "name": "stakeQuantity",
          "type": "uint256"
        },
        {
          "indexed": false,
          "name": "currentPoolTotalStakedPathos",
          "type": "uint256"
        }
      ],
      "name": "StakePathos",
      "type": "event"
    },
    {
      "anonymous": false,
      "inputs": [
        {
          "indexed": true,
          "name": "nameId",
          "type": "address"
        },
        {
          "indexed": true,
          "name": "lotId",
          "type": "bytes32"
        },
        {
          "indexed": true,
          "name": "taoId",
          "type": "address"
        },
        {
          "indexed": false,
          "name": "withdrawnAmount",
          "type": "uint256"
        },
        {
          "indexed": false,
          "name": "currentLotValueInLogos",
          "type": "uint256"
        },
        {
          "indexed": false,
          "name": "currentLotLogosWithdrawn",
          "type": "uint256"
        }
      ],
      "name": "WithdrawLogos",
      "type": "event"
    },
    {
      "constant": false,
      "inputs": [
        {
          "name": "_taoFactoryAddress",
          "type": "address"
        }
      ],
      "name": "setTAOFactoryAddress",
      "outputs": [],
      "payable": false,
      "stateMutability": "nonpayable",
      "type": "function"
    },
    {
      "constant": false,
      "inputs": [
        {
          "name": "_pathosAddress",
          "type": "address"
        }
      ],
      "name": "setPathosAddress",
      "outputs": [],
      "payable": false,
      "stateMutability": "nonpayable",
      "type": "function"
    },
    {
      "constant": false,
      "inputs": [
        {
          "name": "_ethosAddress",
          "type": "address"
        }
      ],
      "name": "setEthosAddress",
      "outputs": [],
      "payable": false,
      "stateMutability": "nonpayable",
      "type": "function"
    },
    {
      "constant": false,
      "inputs": [
        {
          "name": "_logosAddress",
          "type": "address"
        }
      ],
      "name": "setLogosAddress",
      "outputs": [],
      "payable": false,
      "stateMutability": "nonpayable",
      "type": "function"
    },
    {
      "constant": true,
      "inputs": [
        {
          "name": "_id",
          "type": "address"
        }
      ],
      "name": "isExist",
      "outputs": [
        {
          "name": "",
          "type": "bool"
        }
      ],
      "payable": false,
      "stateMutability": "view",
      "type": "function"
    },
    {
      "constant": false,
      "inputs": [
        {
          "name": "_taoId",
          "type": "address"
        },
        {
          "name": "_ethosCapStatus",
          "type": "bool"
        },
        {
          "name": "_ethosCapAmount",
          "type": "uint256"
        }
      ],
      "name": "createPool",
      "outputs": [
        {
          "name": "",
          "type": "bool"
        }
      ],
      "payable": false,
      "stateMutability": "nonpayable",
      "type": "function"
    },
    {
      "constant": false,
      "inputs": [
        {
          "name": "_taoId",
          "type": "address"
        },
        {
          "name": "_status",
          "type": "bool"
        }
      ],
      "name": "updatePoolStatus",
      "outputs": [],
      "payable": false,
      "stateMutability": "nonpayable",
      "type": "function"
    },
    {
      "constant": false,
      "inputs": [
        {
          "name": "_taoId",
          "type": "address"
        },
        {
          "name": "_ethosCapStatus",
          "type": "bool"
        },
        {
          "name": "_ethosCapAmount",
          "type": "uint256"
        }
      ],
      "name": "updatePoolEthosCap",
      "outputs": [],
      "payable": false,
      "stateMutability": "nonpayable",
      "type": "function"
    },
    {
      "constant": false,
      "inputs": [
        {
          "name": "_taoId",
          "type": "address"
        },
        {
          "name": "_quantity",
          "type": "uint256"
        }
      ],
      "name": "stakeEthos",
      "outputs": [],
      "payable": false,
      "stateMutability": "nonpayable",
      "type": "function"
    },
    {
      "constant": true,
      "inputs": [
        {
          "name": "_nameId",
          "type": "address"
        }
      ],
      "name": "ownerTotalLot",
      "outputs": [
        {
          "name": "",
          "type": "uint256"
        }
      ],
      "payable": false,
      "stateMutability": "view",
      "type": "function"
    },
    {
      "constant": true,
      "inputs": [
        {
          "name": "_nameId",
          "type": "address"
        },
        {
          "name": "_from",
          "type": "uint256"
        },
        {
          "name": "_to",
          "type": "uint256"
        }
      ],
      "name": "ownerLotIds",
      "outputs": [
        {
          "name": "",
          "type": "bytes32[]"
        }
      ],
      "payable": false,
      "stateMutability": "view",
      "type": "function"
    },
    {
      "constant": true,
      "inputs": [
        {
          "name": "_taoId",
          "type": "address"
        }
      ],
      "name": "availablePathosToStake",
      "outputs": [
        {
          "name": "",
          "type": "uint256"
        }
      ],
      "payable": false,
      "stateMutability": "view",
      "type": "function"
    },
    {
      "constant": false,
      "inputs": [
        {
          "name": "_taoId",
          "type": "address"
        },
        {
          "name": "_quantity",
          "type": "uint256"
        }
      ],
      "name": "stakePathos",
      "outputs": [],
      "payable": false,
      "stateMutability": "nonpayable",
      "type": "function"
    },
    {
      "constant": false,
      "inputs": [
        {
          "name": "_lotId",
          "type": "bytes32"
        }
      ],
      "name": "withdrawLogos",
      "outputs": [],
      "payable": false,
      "stateMutability": "nonpayable",
      "type": "function"
    },
    {
      "constant": true,
      "inputs": [
        {
          "name": "_lotId",
          "type": "bytes32"
        }
      ],
      "name": "lotLogosAvailableToWithdraw",
      "outputs": [
        {
          "name": "",
          "type": "uint256"
        }
      ],
      "payable": false,
      "stateMutability": "view",
      "type": "function"
    }
  ],
  "bytecode": "0x60806040523480156200001157600080fd5b5060405160c08062003a5b833981018060405260c08110156200003357600080fd5b508051602082015160408301516060840151608085015160a09095015160008054600160a060020a031916331790559394929391929091856200007f81640100000000620000f0810204565b506200009485640100000000620001f5810204565b620000a884640100000000620002fa810204565b620000bc83640100000000620003ff810204565b620000d08264010000000062000504810204565b620000e48164010000000062000609810204565b5050505050506200070e565b600054600154604080517ff66afcac000000000000000000000000000000000000000000000000000000008152336004820152600160a060020a0393841660248201529290911660448301525173__AOLibrary_____________________________9163f66afcac916064808301926020929190829003018186803b1580156200017957600080fd5b505af41580156200018e573d6000803e3d6000fd5b505050506040513d6020811015620001a557600080fd5b50511515620001b357600080fd5b600160a060020a0381161515620001c957600080fd5b60038054600160a060020a03909216600160a060020a0319928316811790915560058054909216179055565b600054600154604080517ff66afcac000000000000000000000000000000000000000000000000000000008152336004820152600160a060020a0393841660248201529290911660448301525173__AOLibrary_____________________________9163f66afcac916064808301926020929190829003018186803b1580156200027e57600080fd5b505af415801562000293573d6000803e3d6000fd5b505050506040513d6020811015620002aa57600080fd5b50511515620002b857600080fd5b600160a060020a0381161515620002ce57600080fd5b60088054600160a060020a03909216600160a060020a03199283168117909155600c8054909216179055565b600054600154604080517ff66afcac000000000000000000000000000000000000000000000000000000008152336004820152600160a060020a0393841660248201529290911660448301525173__AOLibrary_____________________________9163f66afcac916064808301926020929190829003018186803b1580156200038357600080fd5b505af415801562000398573d6000803e3d6000fd5b505050506040513d6020811015620003af57600080fd5b50511515620003bd57600080fd5b600160a060020a0381161515620003d357600080fd5b60018054600160a060020a03909216600160a060020a0319928316811790915560068054909216179055565b600054600154604080517ff66afcac000000000000000000000000000000000000000000000000000000008152336004820152600160a060020a0393841660248201529290911660448301525173__AOLibrary_____________________________9163f66afcac916064808301926020929190829003018186803b1580156200048857600080fd5b505af41580156200049d573d6000803e3d6000fd5b505050506040513d6020811015620004b457600080fd5b50511515620004c257600080fd5b600160a060020a0381161515620004d857600080fd5b60098054600160a060020a03909216600160a060020a03199283168117909155600d8054909216179055565b600054600154604080517ff66afcac000000000000000000000000000000000000000000000000000000008152336004820152600160a060020a0393841660248201529290911660448301525173__AOLibrary_____________________________9163f66afcac916064808301926020929190829003018186803b1580156200058d57600080fd5b505af4158015620005a2573d6000803e3d6000fd5b505050506040513d6020811015620005b957600080fd5b50511515620005c757600080fd5b600160a060020a0381161515620005dd57600080fd5b600a8054600160a060020a03909216600160a060020a03199283168117909155600e8054909216179055565b600054600154604080517ff66afcac000000000000000000000000000000000000000000000000000000008152336004820152600160a060020a0393841660248201529290911660448301525173__AOLibrary_____________________________9163f66afcac916064808301926020929190829003018186803b1580156200069257600080fd5b505af4158015620006a7573d6000803e3d6000fd5b505050506040513d6020811015620006be57600080fd5b50511515620006cc57600080fd5b600160a060020a0381161515620006e257600080fd5b600b8054600160a060020a03909216600160a060020a03199283168117909155600f8054909216179055565b61333d806200071e6000396000f3fe608060405234801561001057600080fd5b50600436106102405760003560e060020a90048063698b77641161013f578063a9b6b38e116100bc578063f2fde38b11610080578063f2fde38b146106ea578063f68d8f5a14610710578063f838955a1461073c578063ff0374b5146107be578063ff3781c6146107c657610240565b8063a9b6b38e14610642578063bc4062061461064a578063c6185ae114610652578063de4796cd1461065a578063e3fcd930146106cd57610240565b806395c13f0a1161010357806395c13f0a1461058e57806398334461146105965780639b19251a146105bc578063a4063dbc146105e2578063a4e5fad21461063a57610240565b8063698b7764146104fe578063793c8228146105325780638bce77f3146105585780638c924361146105605780639093a7901461058657610240565b806334172c9e116101cd57806350159a9e1161019157806350159a9e1461045657806353d6fd591461045e5780635baf6a471461048c5780635cfaf2ef146104b25780635d813eb4146104d857610240565b806334172c9e146103ce57806338da7de7146103fc5780633a10617d146104205780634486ab0a146104465780634ef033f01461044e57610240565b806324d723171161021457806324d72317146102f357806328d313b51461031f5780632f4f6bc4146103575780632fbb76951461038b57806332232636146103a857610240565b806213eb4b146102455780631add5b981461027f5780631dfde2bd146102a75780632191207a146102cd575b600080fd5b61026b6004803603602081101561025b57600080fd5b5035600160a060020a03166107ec565b604080519115158252519081900360200190f35b6102a56004803603602081101561029557600080fd5b5035600160a060020a031661080c565b005b6102a5600480360360208110156102bd57600080fd5b5035600160a060020a03166108f6565b6102a5600480360360208110156102e357600080fd5b5035600160a060020a03166109e3565b6102a56004803603604081101561030957600080fd5b50600160a060020a038135169060200135610acd565b6103456004803603602081101561033557600080fd5b5035600160a060020a03166110f0565b60408051918252519081900360200190f35b6102a56004803603606081101561036d57600080fd5b50600160a060020a0381351690602081013515159060400135611102565b610345600480360360208110156103a157600080fd5b5035611566565b610345600480360360208110156103be57600080fd5b5035600160a060020a03166117f7565b6102a5600480360360408110156103e457600080fd5b50600160a060020a0381351690602001351515611809565b610404611b78565b60408051600160a060020a039092168252519081900360200190f35b6103456004803603602081101561043657600080fd5b5035600160a060020a0316611b87565b610404611b99565b610404611ba8565b610345611bb7565b6102a56004803603604081101561047457600080fd5b50600160a060020a0381351690602001351515611bbd565b610345600480360360208110156104a257600080fd5b5035600160a060020a0316611ca6565b6102a5600480360360208110156104c857600080fd5b5035600160a060020a0316611cb8565b610345600480360360208110156104ee57600080fd5b5035600160a060020a0316611da2565b61026b6004803603606081101561051457600080fd5b50600160a060020a0381351690602081013515159060400135611dbd565b6102a56004803603602081101561054857600080fd5b5035600160a060020a0316611f8e565b610345612078565b6102a56004803603602081101561057657600080fd5b5035600160a060020a031661207e565b610404612168565b610345612177565b610345600480360360208110156105ac57600080fd5b5035600160a060020a031661217d565b61026b600480360360208110156105d257600080fd5b5035600160a060020a0316612327565b610608600480360360208110156105f857600080fd5b5035600160a060020a031661233c565b60408051600160a060020a03909516855292151560208501528383019190915215156060830152519081900360800190f35b610404612375565b610404612384565b610404612393565b6103456123a2565b6106776004803603602081101561067057600080fd5b50356123a8565b60408051998a52600160a060020a0398891660208b015289810197909752949096166060880152608087019290925260a086015260c085015260e084019290925261010083019190915251908190036101200190f35b6102a5600480360360208110156106e357600080fd5b50356123ff565b6102a56004803603602081101561070057600080fd5b5035600160a060020a031661280f565b6102a56004803603604081101561072657600080fd5b50600160a060020a0381351690602001356128ef565b61076e6004803603606081101561075257600080fd5b50600160a060020a03813516906020810135906040013561306b565b60408051602080825283518183015283519192839290830191858101910280838360005b838110156107aa578181015183820152602001610792565b505050509050019250505060405180910390f35b61040461316a565b6102a5600480360360208110156107dc57600080fd5b5035600160a060020a0316613179565b600160a060020a0390811660009081526014602052604090205416151590565b6000546001546040805160e260020a633d9abf2b028152336004820152600160a060020a0393841660248201529290911660448301525173__AOLibrary_____________________________9163f66afcac916064808301926020929190829003018186803b15801561087e57600080fd5b505af4158015610892573d6000803e3d6000fd5b505050506040513d60208110156108a857600080fd5b505115156108b557600080fd5b600160a060020a03811615156108ca57600080fd5b600a8054600160a060020a03909216600160a060020a03199283168117909155600e8054909216179055565b6000546001546040805160e260020a633d9abf2b028152336004820152600160a060020a0393841660248201529290911660448301525173__AOLibrary_____________________________9163f66afcac916064808301926020929190829003018186803b15801561096857600080fd5b505af415801561097c573d6000803e3d6000fd5b505050506040513d602081101561099257600080fd5b5051151561099f57600080fd5b600160a060020a03811615156109b457600080fd5b60048054600160a060020a0319908116600160a060020a03938416179182905560078054929093169116179055565b6000546001546040805160e260020a633d9abf2b028152336004820152600160a060020a0393841660248201529290911660448301525173__AOLibrary_____________________________9163f66afcac916064808301926020929190829003018186803b158015610a5557600080fd5b505af4158015610a69573d6000803e3d6000fd5b505050506040513d6020811015610a7f57600080fd5b50511515610a8c57600080fd5b600160a060020a0381161515610aa157600080fd5b60088054600160a060020a03909216600160a060020a03199283168117909155600c8054909216179055565b8173__AOLibrary_____________________________632fca5414826040518263ffffffff1660e060020a0281526004018082600160a060020a0316600160a060020a0316815260200191505060206040518083038186803b158015610b3257600080fd5b505af4158015610b46573d6000803e3d6000fd5b505050506040513d6020811015610b5c57600080fd5b50511515610b6957600080fd5b6005546040805160e060020a63029b7d530281523360048201529051600092600160a060020a03169163029b7d53916024808301926020929190829003018186803b158015610bb757600080fd5b505afa158015610bcb573d6000803e3d6000fd5b505050506040513d6020811015610be157600080fd5b5051600160a060020a03161415610bf757600080fd5b6007546005546040805160e060020a63029b7d530281523360048201529051600160a060020a0393841693633ebc2ab393169163029b7d53916024808301926020929190829003018186803b158015610c4f57600080fd5b505afa158015610c63573d6000803e3d6000fd5b505050506040513d6020811015610c7957600080fd5b50516040805160e060020a63ffffffff8516028152600160a060020a039092166004830152516024808301926020929190829003018186803b158015610cbe57600080fd5b505afa158015610cd2573d6000803e3d6000fd5b505050506040513d6020811015610ce857600080fd5b505115610cf457600080fd5b610cfc613288565b50600160a060020a03808416600090815260146020908152604080832081516080810183528154808716825260ff60a060020a909104811615158286015260018301548285015260029092015490911615156060820152600554825160e060020a63029b7d5302815233600482015292519195169263029b7d539260248082019391829003018186803b158015610d9257600080fd5b505afa158015610da6573d6000803e3d6000fd5b505050506040513d6020811015610dbc57600080fd5b5051606083015190915015156001148015610dd75750600084115b8015610e605750600d546040805160e060020a6370a08231028152600160a060020a0384811660048301529151879392909216916370a0823191602480820192602092909190829003018186803b158015610e3157600080fd5b505afa158015610e45573d6000803e3d6000fd5b505050506040513d6020811015610e5b57600080fd5b505110155b8015610e745750610e708561217d565b8411155b1515610e7f57600080fd5b600160a060020a0381166000908152601a6020526040902054610ea8908563ffffffff61326316565b600160a060020a0382166000908152601a6020526040902055601254610ed4908563ffffffff61326316565b601255600d54604080517f23b872dd000000000000000000000000000000000000000000000000000000008152600160a060020a038481166004830152888116602483015260448201889052915191909216916323b872dd9160648083019260209291908290030181600087803b158015610f4e57600080fd5b505af1158015610f62573d6000803e3d6000fd5b505050506040513d6020811015610f7857600080fd5b50511515610f8557600080fd5b600f54604080517f97fe5ea3000000000000000000000000000000000000000000000000000000008152600160a060020a03888116600483015260248201889052915191909216916397fe5ea39160448083019260209291908290030181600087803b158015610ff457600080fd5b505af1158015611008573d6000803e3d6000fd5b505050506040513d602081101561101e57600080fd5b5051151561102b57600080fd5b600d546040805160e060020a6370a08231028152600160a060020a03888116600483018190529251858216947fad55db0d41c96097ea516af16ed6458bb2b54fdf95347b6108c0822c0442b1ba938a93909116916370a0823191602480820192602092909190829003018186803b1580156110a557600080fd5b505afa1580156110b9573d6000803e3d6000fd5b505050506040513d60208110156110cf57600080fd5b50516040805192835260208301919091528051918290030190a35050505050565b60196020526000908152604090205481565b8273__AOLibrary_____________________________632fca5414826040518263ffffffff1660e060020a0281526004018082600160a060020a0316600160a060020a0316815260200191505060206040518083038186803b15801561116757600080fd5b505af415801561117b573d6000803e3d6000fd5b505050506040513d602081101561119157600080fd5b5051151561119e57600080fd5b600654604080517f71ce52ed000000000000000000000000000000000000000000000000000000008152336004820152600160a060020a0380881660248301529151879392909216916371ce52ed91604480820192602092909190829003018186803b15801561120d57600080fd5b505afa158015611221573d6000803e3d6000fd5b505050506040513d602081101561123757600080fd5b5051151561124457600080fd5b6007546005546040805160e060020a63029b7d530281523360048201529051600160a060020a0393841693633ebc2ab393169163029b7d53916024808301926020929190829003018186803b15801561129c57600080fd5b505afa1580156112b0573d6000803e3d6000fd5b505050506040513d60208110156112c657600080fd5b50516040805160e060020a63ffffffff8516028152600160a060020a039092166004830152516024808301926020929190829003018186803b15801561130b57600080fd5b505afa15801561131f573d6000803e3d6000fd5b505050506040513d602081101561133557600080fd5b50511561134157600080fd5b600160a060020a0385811660009081526014602052604090205416151561136757600080fd5b8315611402576000831180156113f75750600d546040805160e060020a6370a08231028152600160a060020a038881166004830152915191909216916370a08231916024808301926020929190829003018186803b1580156113c857600080fd5b505afa1580156113dc573d6000803e3d6000fd5b505050506040513d60208110156113f257600080fd5b505183115b151561140257600080fd5b600160a060020a038516600090815260146020526040902080548515801560a060020a0274ff0000000000000000000000000000000000000000199092169190911790915561146a57600160a060020a03851660009081526014602052604090206001018390555b600c54604080517ff5743c4c000000000000000000000000000000000000000000000000000000008152600160a060020a0388811660048301529151600093929092169163f5743c4c9160248082019260209290919082900301818787803b1580156114d557600080fd5b505af11580156114e9573d6000803e3d6000fd5b505050506040513d60208110156114ff57600080fd5b505190506000811161151057600080fd5b604080518615158152602081018690528082018390529051600160a060020a038816917f710a196358986b34ff7b89eb2ca10d88508cb3f52d8392a2f595722804cc1325919081900360600190a2505050505050565b60006115706132af565b50600082815260156020908152604091829020825161012081018452815481526001820154600160a060020a039081169382018490526002830154948201949094526003820154909316606084015260048101546080840152600581015460a0840152600681015460c0840152600781015460e08401526008015461010083015215156115fc57600080fd5b6080810151600d5460608301516040805160e060020a6370a08231028152600160a060020a03928316600482015290516000949392909216916370a0823191602480820192602092909190829003018186803b15801561165b57600080fd5b505afa15801561166f573d6000803e3d6000fd5b505050506040513d602081101561168557600080fd5b5051118015611698575060008260c00151115b156117f05760a0820151600d5460608401516040805160e060020a6370a08231028152600160a060020a039283166004820152905191909216916370a08231916024808301926020929190829003018186803b1580156116f757600080fd5b505afa15801561170b573d6000803e3d6000fd5b505050506040513d602081101561172157600080fd5b505110156117c6576080820151600d5460608401516040805160e060020a6370a08231028152600160a060020a03928316600482015290516117c1949392909216916370a0823191602480820192602092909190829003018186803b15801561178957600080fd5b505afa15801561179d573d6000803e3d6000fd5b505050506040513d60208110156117b357600080fd5b50519063ffffffff61327616565b6117cc565b81604001515b905060008111156117f05760e08201516117ed90829063ffffffff61327616565b90505b9392505050565b60176020526000908152604090205481565b8173__AOLibrary_____________________________632fca5414826040518263ffffffff1660e060020a0281526004018082600160a060020a0316600160a060020a0316815260200191505060206040518083038186803b15801561186e57600080fd5b505af4158015611882573d6000803e3d6000fd5b505050506040513d602081101561189857600080fd5b505115156118a557600080fd5b600654604080517f71ce52ed000000000000000000000000000000000000000000000000000000008152336004820152600160a060020a0380871660248301529151869392909216916371ce52ed91604480820192602092909190829003018186803b15801561191457600080fd5b505afa158015611928573d6000803e3d6000fd5b505050506040513d602081101561193e57600080fd5b5051151561194b57600080fd5b6007546005546040805160e060020a63029b7d530281523360048201529051600160a060020a0393841693633ebc2ab393169163029b7d53916024808301926020929190829003018186803b1580156119a357600080fd5b505afa1580156119b7573d6000803e3d6000fd5b505050506040513d60208110156119cd57600080fd5b50516040805160e060020a63ffffffff8516028152600160a060020a039092166004830152516024808301926020929190829003018186803b158015611a1257600080fd5b505afa158015611a26573d6000803e3d6000fd5b505050506040513d6020811015611a3c57600080fd5b505115611a4857600080fd5b600160a060020a03848116600090815260146020526040902054161515611a6e57600080fd5b600160a060020a038481166000818152601460209081526040808320600201805460ff1916891515179055600c5481517ff5743c4c000000000000000000000000000000000000000000000000000000008152600481019590955290519294169263f5743c4c926024808301939282900301818787803b158015611af157600080fd5b505af1158015611b05573d6000803e3d6000fd5b505050506040513d6020811015611b1b57600080fd5b5051905060008111611b2c57600080fd5b604080518515158152602081018390528151600160a060020a038816927ff5f6f496ff95818da72c68de653328ef258d57133b8c64064a809a21df3b2d15928290030190a25050505050565b600b54600160a060020a031681565b60166020526000908152604090205481565b600954600160a060020a031681565b600154600160a060020a031681565b60105481565b6000546001546040805160e260020a633d9abf2b028152336004820152600160a060020a0393841660248201529290911660448301525173__AOLibrary_____________________________9163f66afcac916064808301926020929190829003018186803b158015611c2f57600080fd5b505af4158015611c43573d6000803e3d6000fd5b505050506040513d6020811015611c5957600080fd5b50511515611c6657600080fd5b600160a060020a0382161515611c7b57600080fd5b600160a060020a03919091166000908152600260205260409020805460ff1916911515919091179055565b601a6020526000908152604090205481565b6000546001546040805160e260020a633d9abf2b028152336004820152600160a060020a0393841660248201529290911660448301525173__AOLibrary_____________________________9163f66afcac916064808301926020929190829003018186803b158015611d2a57600080fd5b505af4158015611d3e573d6000803e3d6000fd5b505050506040513d6020811015611d5457600080fd5b50511515611d6157600080fd5b600160a060020a0381161515611d7657600080fd5b60018054600160a060020a03909216600160a060020a0319928316811790915560068054909216179055565b600160a060020a031660009081526018602052604090205490565b60008373__AOLibrary_____________________________632fca5414826040518263ffffffff1660e060020a0281526004018082600160a060020a0316600160a060020a0316815260200191505060206040518083038186803b158015611e2457600080fd5b505af4158015611e38573d6000803e3d6000fd5b505050506040513d6020811015611e4e57600080fd5b50511515611e5b57600080fd5b600854600160a060020a03163314611e7257600080fd5b8315611e855760008311611e8557600080fd5b600160a060020a038581166000908152601460205260409020541615611eaa57600080fd5b600160a060020a03851660008181526014602052604090208054600282018054600160ff19909116179055600160a060020a03191690911774ff0000000000000000000000000000000000000000191660a060020a8615801591909102919091178255611f1957600181018490555b8054600182015460028301546040805160ff60a060020a86048116151582526020820194909452919092161515818301529051600160a060020a03909216917f2d333584a4195376719b161f274a701d7dbe5698253665deb3edc1c1e4b8c6bd9181900360600190a250600195945050505050565b6000546001546040805160e260020a633d9abf2b028152336004820152600160a060020a0393841660248201529290911660448301525173__AOLibrary_____________________________9163f66afcac916064808301926020929190829003018186803b15801561200057600080fd5b505af4158015612014573d6000803e3d6000fd5b505050506040513d602081101561202a57600080fd5b5051151561203757600080fd5b600160a060020a038116151561204c57600080fd5b60098054600160a060020a03909216600160a060020a03199283168117909155600d8054909216179055565b60115481565b6000546001546040805160e260020a633d9abf2b028152336004820152600160a060020a0393841660248201529290911660448301525173__AOLibrary_____________________________9163f66afcac916064808301926020929190829003018186803b1580156120f057600080fd5b505af4158015612104573d6000803e3d6000fd5b505050506040513d602081101561211a57600080fd5b5051151561212757600080fd5b600160a060020a038116151561213c57600080fd5b60038054600160a060020a03909216600160a060020a0319928316811790915560058054909216179055565b600a54600160a060020a031681565b60135481565b60008173__AOLibrary_____________________________632fca5414826040518263ffffffff1660e060020a0281526004018082600160a060020a0316600160a060020a0316815260200191505060206040518083038186803b1580156121e457600080fd5b505af41580156121f8573d6000803e3d6000fd5b505050506040513d602081101561220e57600080fd5b5051151561221b57600080fd5b600160a060020a03831660009081526014602052604090206002015460ff1615156001141561231c57600d546040805160e060020a6370a08231028152600160a060020a03868116600483015291516123159392909216916370a0823191602480820192602092909190829003018186803b15801561229957600080fd5b505afa1580156122ad573d6000803e3d6000fd5b505050506040513d60208110156122c357600080fd5b5051600e546040805160e060020a6370a08231028152600160a060020a038881166004830152915191909216916370a08231916024808301926020929190829003018186803b15801561178957600080fd5b9150612321565b600091505b50919050565b60026020526000908152604090205460ff1681565b601460205260009081526040902080546001820154600290920154600160a060020a0382169260ff60a060020a90930483169290911684565b600454600160a060020a031681565b600054600160a060020a031681565b600354600160a060020a031681565b60125481565b6015602052600090815260409020805460018201546002830154600384015460048501546005860154600687015460078801546008909801549697600160a060020a03968716979596909416949293919290919089565b6005546040805160e060020a63029b7d530281523360048201529051600092600160a060020a03169163029b7d53916024808301926020929190829003018186803b15801561244d57600080fd5b505afa158015612461573d6000803e3d6000fd5b505050506040513d602081101561247757600080fd5b5051600160a060020a0316141561248d57600080fd5b6007546005546040805160e060020a63029b7d530281523360048201529051600160a060020a0393841693633ebc2ab393169163029b7d53916024808301926020929190829003018186803b1580156124e557600080fd5b505afa1580156124f9573d6000803e3d6000fd5b505050506040513d602081101561250f57600080fd5b50516040805160e060020a63ffffffff8516028152600160a060020a039092166004830152516024808301926020929190829003018186803b15801561255457600080fd5b505afa158015612568573d6000803e3d6000fd5b505050506040513d602081101561257e57600080fd5b50511561258a57600080fd5b6000818152601560209081526040808320600554825160e060020a63029b7d530281523360048201529251919493600160a060020a039091169263029b7d539260248083019392829003018186803b1580156125e557600080fd5b505afa1580156125f9573d6000803e3d6000fd5b505050506040513d602081101561260f57600080fd5b50516001830154909150600160a060020a038083169116148015612637575060008260060154115b151561264257600080fd5b600061264d84611566565b9050600081118015612663575082600601548111155b151561266e57600080fd5b6007830154612683908263ffffffff61326316565b6007840155600683015461269d908263ffffffff61327616565b60068401556013546126b5908263ffffffff61326316565b6013556003830154600160a060020a03166000908152601760205260409020546126e5908263ffffffff61326316565b6003840154600160a060020a03908116600090815260176020908152604080832094909455600f5484517f40c10f1900000000000000000000000000000000000000000000000000000000815287851660048201526024810187905294519316936340c10f199360448083019491928390030190829087803b15801561276a57600080fd5b505af115801561277e573d6000803e3d6000fd5b505050506040513d602081101561279457600080fd5b505115156127a157600080fd5b600383015483546001850154600686015460078701546040805187815260208101939093528281019190915251600160a060020a039485169492909216917fb0d51de1a22d42472f71d0eae171c27ae2e8fc84aaf70008c7a57857ae0a079d9181900360600190a450505050565b6000546001546040805160e260020a633d9abf2b028152336004820152600160a060020a0393841660248201529290911660448301525173__AOLibrary_____________________________9163f66afcac916064808301926020929190829003018186803b15801561288157600080fd5b505af4158015612895573d6000803e3d6000fd5b505050506040513d60208110156128ab57600080fd5b505115156128b857600080fd5b600160a060020a03811615156128cd57600080fd5b60008054600160a060020a031916600160a060020a0392909216919091179055565b8173__AOLibrary_____________________________632fca5414826040518263ffffffff1660e060020a0281526004018082600160a060020a0316600160a060020a0316815260200191505060206040518083038186803b15801561295457600080fd5b505af4158015612968573d6000803e3d6000fd5b505050506040513d602081101561297e57600080fd5b5051151561298b57600080fd5b6005546040805160e060020a63029b7d530281523360048201529051600092600160a060020a03169163029b7d53916024808301926020929190829003018186803b1580156129d957600080fd5b505afa1580156129ed573d6000803e3d6000fd5b505050506040513d6020811015612a0357600080fd5b5051600160a060020a03161415612a1957600080fd5b6007546005546040805160e060020a63029b7d530281523360048201529051600160a060020a0393841693633ebc2ab393169163029b7d53916024808301926020929190829003018186803b158015612a7157600080fd5b505afa158015612a85573d6000803e3d6000fd5b505050506040513d6020811015612a9b57600080fd5b50516040805160e060020a63ffffffff8516028152600160a060020a039092166004830152516024808301926020929190829003018186803b158015612ae057600080fd5b505afa158015612af4573d6000803e3d6000fd5b505050506040513d6020811015612b0a57600080fd5b505115612b1657600080fd5b612b1e613288565b50600160a060020a03808416600090815260146020908152604080832081516080810183528154808716825260ff60a060020a909104811615158286015260018301548285015260029092015490911615156060820152600554825160e060020a63029b7d5302815233600482015292519195169263029b7d539260248082019391829003018186803b158015612bb457600080fd5b505afa158015612bc8573d6000803e3d6000fd5b505050506040513d6020811015612bde57600080fd5b5051606083015190915015156001148015612bf95750600084115b8015612c825750600e546040805160e060020a6370a08231028152600160a060020a0384811660048301529151879392909216916370a0823191602480820192602092909190829003018186803b158015612c5357600080fd5b505afa158015612c67573d6000803e3d6000fd5b505050506040513d6020811015612c7d57600080fd5b505110155b1515612c8d57600080fd5b816020015115612d3657604080830151600e54825160e060020a6370a08231028152600160a060020a03898116600483015293519293612d2b93899391909116916370a08231916024808301926020929190829003018186803b158015612cf357600080fd5b505afa158015612d07573d6000803e3d6000fd5b505050506040513d6020811015612d1d57600080fd5b50519063ffffffff61326316565b1115612d3657600080fd5b6010805460019081018255600160a060020a038088166000818152601660209081526040808320805487019055955486516c0100000000000000000000000030810282850152330260348201526048808201929092528751808203909201825260688101808952825192840192909220808552601584529388902084815596870180548a8816600160a060020a031991821617909155600288018d905560038801805490911686179055600e5460e060020a6370a0823102909252606c81019490945295519195909316926370a0823192608c8082019391829003018186803b158015612e2257600080fd5b505afa158015612e36573d6000803e3d6000fd5b505050506040513d6020811015612e4c57600080fd5b5051600480830191909155600e546040805160e060020a6370a08231028152600160a060020a038b8116948201949094529051612eac938a9316916370a08231916024808301926020929190829003018186803b158015612cf357600080fd5b600582015560068101869055426008820155600160a060020a0383166000818152601860209081526040808320805460018101825590845282842001869055928252601990522054612f04908763ffffffff61326316565b600160a060020a038416600090815260196020526040902055601154612f30908763ffffffff61326316565b601155600e54604080517f23b872dd000000000000000000000000000000000000000000000000000000008152600160a060020a0386811660048301528a81166024830152604482018a9052915191909216916323b872dd9160648083019260209291908290030181600087803b158015612faa57600080fd5b505af1158015612fbe573d6000803e3d6000fd5b505050506040513d6020811015612fd457600080fd5b50511515612fe157600080fd5b60018101548154600383015460028401546004850154600586015460068701546008880154604080519586526020860194909452848401929092526060840152608083015251600160a060020a039485169492909216917f649ebc3a713a736fd86489f7362fff3bb4099403c0f6de86bd7d409aeb9808389181900360a00190a450505050505050565b60606000831015801561307e5750828210155b80156130a15750600160a060020a03841660009081526018602052604090205482105b15156130ac57600080fd5b60606130cf60016130c3858763ffffffff61327616565b9063ffffffff61326316565b6040519080825280602002602001820160405280156130f8578160200160208202803883390190505b509050835b83811161316157600160a060020a038616600090815260186020526040902080548290811061312857fe5b60009182526020909120015482613145838863ffffffff61327616565b8151811061314f57fe5b602090810290910101526001016130fd565b50949350505050565b600854600160a060020a031681565b6000546001546040805160e260020a633d9abf2b028152336004820152600160a060020a0393841660248201529290911660448301525173__AOLibrary_____________________________9163f66afcac916064808301926020929190829003018186803b1580156131eb57600080fd5b505af41580156131ff573d6000803e3d6000fd5b505050506040513d602081101561321557600080fd5b5051151561322257600080fd5b600160a060020a038116151561323757600080fd5b600b8054600160a060020a03909216600160a060020a03199283168117909155600f8054909216179055565b8181018281101561327057fe5b92915050565b60008282111561328257fe5b50900390565b60408051608081018252600080825260208201819052918101829052606081019190915290565b61012060405190810160405280600080191681526020016000600160a060020a03168152602001600081526020016000600160a060020a031681526020016000815260200160008152602001600081526020016000815260200160008152509056fea165627a7a72305820e624416e86227c617945fb2886c203d39861eac90f46f256c0e40838eb1e3bde0029",
  "source": "pragma solidity ^0.5.4;\n\nimport './SafeMath.sol';\nimport './TAOController.sol';\nimport './ITAOPool.sol';\nimport './ITAOFactory.sol';\nimport './TAOCurrency.sol';\nimport './Logos.sol';\nimport './TAO.sol';\n\n/**\n * @title TAOPool\n *\n * This contract acts as the bookkeeper of TAO Currencies that are staked on TAO\n */\ncontract TAOPool is TAOController, ITAOPool {\n\tusing SafeMath for uint256;\n\n\taddress public taoFactoryAddress;\n\taddress public pathosAddress;\n\taddress public ethosAddress;\n\taddress public logosAddress;\n\n\tITAOFactory internal _taoFactory;\n\tTAOCurrency internal _pathos;\n\tTAOCurrency internal _ethos;\n\tLogos internal _logos;\n\n\tstruct Pool {\n\t\taddress taoId;\n\t\t/**\n\t\t * If true, has ethos cap. Otherwise, no ethos cap.\n\t\t */\n\t\tbool ethosCapStatus;\n\t\tuint256 ethosCapAmount;\t// Creates a cap for the amount of Ethos that can be staked into this pool\n\n\t\t/**\n\t\t * If true, Pool is live and can be staked into.\n\t\t */\n\t\tbool status;\n\t}\n\n\tstruct Lot {\n\t\tbytes32 lotId;\t\t\t\t\t\t// The ID of this Lot\n\t\taddress nameId;\t\t\t\t\t\t// The ID of the Name that staked Ethos\n\t\tuint256 lotQuantity;\t\t\t\t// Amount of Ethos being staked to the Pool from this Lot\n\t\taddress taoId;\t\t\t\t\t\t// Identifier for the Pool this Lot is adding to\n\t\tuint256 poolPreStakeSnapshot;\t\t// Amount of Ethos contributed to the Pool prior to this Lot Number\n\t\tuint256 poolStakeLotSnapshot;\t\t// poolPreStakeSnapshot + lotQuantity - logosWithdrawn\n\t\tuint256 lotValueInLogos;\n\t\tuint256 logosWithdrawn;\t\t\t\t// Amount of Logos withdrawn from this Lot\n\t\tuint256 timestamp;\n\t}\n\n\tuint256 public contractTotalLot;\t\t// Total lot from all pools\n\tuint256 public contractTotalEthos;\t\t// Quantity of Ethos that has been staked to all Pools\n\tuint256 public contractTotalPathos;\t\t// Quantity of Pathos that has been staked to all Pools\n\tuint256 public contractTotalLogosWithdrawn;\t\t// Quantity of Logos that has been withdrawn from all Pools\n\n\t// Mapping from TAO ID to Pool\n\tmapping (address => Pool) public pools;\n\n\t// Mapping from Lot ID to Lot\n\tmapping (bytes32 => Lot) public lots;\n\n\t// Mapping from Pool's TAO ID to total Lots in the Pool\n\tmapping (address => uint256) public poolTotalLot;\n\n\t// Mapping from Pool's TAO ID to quantity of Logos that has been withdrawn from the Pool\n\tmapping (address => uint256) public poolTotalLogosWithdrawn;\n\n\t// Mapping from a Name ID to its Lots\n\tmapping (address => bytes32[]) internal ownerLots;\n\n\t// Mapping from a Name ID to quantity of Ethos staked from all lots\n\tmapping (address => uint256) public totalEthosStaked;\n\n\t// Mapping from a Name ID to quantity of Pathos staked from all lots\n\tmapping (address => uint256) public totalPathosStaked;\n\n\t// Event to be broadcasted to public when Pool is created\n\tevent CreatePool(address indexed taoId, bool ethosCapStatus, uint256 ethosCapAmount, bool status);\n\n\t// Event to be broadcasted to public when Pool's status is updated\n\t// If status == true, start Pool\n\t// Otherwise, stop Pool\n\tevent UpdatePoolStatus(address indexed taoId, bool status, uint256 nonce);\n\n\t// Event to be broadcasted to public when Pool's Ethos cap is updated\n\tevent UpdatePoolEthosCap(address indexed taoId, bool ethosCapStatus, uint256 ethosCapAmount, uint256 nonce);\n\n\t/**\n\t * Event to be broadcasted to public when nameId stakes Ethos\n\t */\n\tevent StakeEthos(address indexed taoId, bytes32 indexed lotId, address indexed nameId, uint256 lotQuantity, uint256 poolPreStakeSnapshot, uint256 poolStakeLotSnapshot, uint256 lotValueInLogos, uint256 timestamp);\n\n\t// Event to be broadcasted to public when nameId stakes Pathos\n\tevent StakePathos(address indexed taoId, address indexed nameId, uint256 stakeQuantity, uint256 currentPoolTotalStakedPathos);\n\n\t// Event to be broadcasted to public when nameId withdraws Logos from Lot\n\tevent WithdrawLogos(address indexed nameId, bytes32 indexed lotId, address indexed taoId, uint256 withdrawnAmount, uint256 currentLotValueInLogos, uint256 currentLotLogosWithdrawn);\n\n\t/**\n\t * @dev Constructor function\n\t */\n\tconstructor(address _nameFactoryAddress, address _taoFactoryAddress, address _nameTAOPositionAddress, address _pathosAddress, address _ethosAddress, address _logosAddress)\n\t\tTAOController(_nameFactoryAddress) public {\n\t\tsetTAOFactoryAddress(_taoFactoryAddress);\n\t\tsetNameTAOPositionAddress(_nameTAOPositionAddress);\n\t\tsetPathosAddress(_pathosAddress);\n\t\tsetEthosAddress(_ethosAddress);\n\t\tsetLogosAddress(_logosAddress);\n\t}\n\n\t/**\n\t * @dev Check if calling address is TAO Factory address\n\t */\n\tmodifier onlyTAOFactory {\n\t\trequire (msg.sender == taoFactoryAddress);\n\t\t_;\n\t}\n\n\t/***** The AO ONLY METHODS *****/\n\t/**\n\t * @dev The AO set the TAOFactory Address\n\t * @param _taoFactoryAddress The address of TAOFactory\n\t */\n\tfunction setTAOFactoryAddress(address _taoFactoryAddress) public onlyTheAO {\n\t\trequire (_taoFactoryAddress != address(0));\n\t\ttaoFactoryAddress = _taoFactoryAddress;\n\t\t_taoFactory = ITAOFactory(_taoFactoryAddress);\n\t}\n\n\t/**\n\t * @dev The AO set the Pathos Address\n\t * @param _pathosAddress The address of Pathos\n\t */\n\tfunction setPathosAddress(address _pathosAddress) public onlyTheAO {\n\t\trequire (_pathosAddress != address(0));\n\t\tpathosAddress = _pathosAddress;\n\t\t_pathos = TAOCurrency(_pathosAddress);\n\t}\n\n\t/**\n\t * @dev The AO set the Ethos Address\n\t * @param _ethosAddress The address of Ethos\n\t */\n\tfunction setEthosAddress(address _ethosAddress) public onlyTheAO {\n\t\trequire (_ethosAddress != address(0));\n\t\tethosAddress = _ethosAddress;\n\t\t_ethos = TAOCurrency(_ethosAddress);\n\t}\n\n\t/**\n\t * @dev The AO set the Logos Address\n\t * @param _logosAddress The address of Logos\n\t */\n\tfunction setLogosAddress(address _logosAddress) public onlyTheAO {\n\t\trequire (_logosAddress != address(0));\n\t\tlogosAddress = _logosAddress;\n\t\t_logos = Logos(_logosAddress);\n\t}\n\n\t/***** PUBLIC METHODS *****/\n\t/**\n\t * @dev Check whether or not Pool exist for a TAO ID\n\t * @param _id The ID to be checked\n\t * @return true if yes, false otherwise\n\t */\n\tfunction isExist(address _id) public view returns (bool) {\n\t\treturn pools[_id].taoId != address(0);\n\t}\n\n\t/**\n\t * @dev Create a pool for a TAO\n\t */\n\tfunction createPool(\n\t\taddress _taoId,\n\t\tbool _ethosCapStatus,\n\t\tuint256 _ethosCapAmount\n\t) external isTAO(_taoId) onlyTAOFactory returns (bool) {\n\t\t// Make sure ethos cap amount is provided if ethos cap is enabled\n\t\tif (_ethosCapStatus) {\n\t\t\trequire (_ethosCapAmount > 0);\n\t\t}\n\t\t// Make sure the pool is not yet created\n\t\trequire (pools[_taoId].taoId == address(0));\n\n\t\tPool storage _pool = pools[_taoId];\n\t\t_pool.taoId = _taoId;\n\t\t_pool.status = true;\n\t\t_pool.ethosCapStatus = _ethosCapStatus;\n\t\tif (_ethosCapStatus) {\n\t\t\t_pool.ethosCapAmount = _ethosCapAmount;\n\t\t}\n\n\t\temit CreatePool(_pool.taoId, _pool.ethosCapStatus, _pool.ethosCapAmount, _pool.status);\n\t\treturn true;\n\t}\n\n\t/**\n\t * @dev Start/Stop a Pool\n\t * @param _taoId The TAO ID of the Pool\n\t * @param _status The status to set. true = start. false = stop\n\t */\n\tfunction updatePoolStatus(address _taoId, bool _status) public isTAO(_taoId) onlyAdvocate(_taoId) senderNameNotCompromised {\n\t\trequire (pools[_taoId].taoId != address(0));\n\t\tpools[_taoId].status = _status;\n\n\t\tuint256 _nonce = _taoFactory.incrementNonce(_taoId);\n\t\trequire (_nonce > 0);\n\n\t\temit UpdatePoolStatus(_taoId, _status, _nonce);\n\t}\n\n\t/**\n\t * @dev Update Ethos cap of a Pool\n\t * @param _taoId The TAO ID of the Pool\n\t * @param _ethosCapStatus The ethos cap status to set\n\t * @param _ethosCapAmount The ethos cap amount to set\n\t */\n\tfunction updatePoolEthosCap(address _taoId, bool _ethosCapStatus, uint256 _ethosCapAmount) public isTAO(_taoId) onlyAdvocate(_taoId) senderNameNotCompromised {\n\t\trequire (pools[_taoId].taoId != address(0));\n\t\t// If there is an ethos cap\n\t\tif (_ethosCapStatus) {\n\t\t\trequire (_ethosCapAmount > 0 && _ethosCapAmount > _pathos.balanceOf(_taoId));\n\t\t}\n\n\t\tpools[_taoId].ethosCapStatus = _ethosCapStatus;\n\t\tif (_ethosCapStatus) {\n\t\t\tpools[_taoId].ethosCapAmount = _ethosCapAmount;\n\t\t}\n\n\t\tuint256 _nonce = _taoFactory.incrementNonce(_taoId);\n\t\trequire (_nonce > 0);\n\n\t\temit UpdatePoolEthosCap(_taoId, _ethosCapStatus, _ethosCapAmount, _nonce);\n\t}\n\n\t/**\n\t * @dev A Name stakes Ethos in Pool `_taoId`\n\t * @param _taoId The TAO ID of the Pool\n\t * @param _quantity The amount of Ethos to be staked\n\t */\n\tfunction stakeEthos(address _taoId, uint256 _quantity) public isTAO(_taoId) senderIsName senderNameNotCompromised {\n\t\tPool memory _pool = pools[_taoId];\n\t\taddress _nameId = _nameFactory.ethAddressToNameId(msg.sender);\n\t\trequire (_pool.status == true && _quantity > 0 && _ethos.balanceOf(_nameId) >= _quantity);\n\n\t\t// If there is an ethos cap\n\t\tif (_pool.ethosCapStatus) {\n\t\t\trequire (_ethos.balanceOf(_taoId).add(_quantity) <= _pool.ethosCapAmount);\n\t\t}\n\n\t\t// Create Lot for this transaction\n\t\tcontractTotalLot++;\n\t\tpoolTotalLot[_taoId]++;\n\n\t\t// Generate Lot ID\n\t\tbytes32 _lotId = keccak256(abi.encodePacked(this, msg.sender, contractTotalLot));\n\n\t\tLot storage _lot = lots[_lotId];\n\t\t_lot.lotId = _lotId;\n\t\t_lot.nameId = _nameId;\n\t\t_lot.lotQuantity = _quantity;\n\t\t_lot.taoId = _taoId;\n\t\t_lot.poolPreStakeSnapshot = _ethos.balanceOf(_taoId);\n\t\t_lot.poolStakeLotSnapshot = _ethos.balanceOf(_taoId).add(_quantity);\n\t\t_lot.lotValueInLogos = _quantity;\n\t\t_lot.timestamp = now;\n\n\t\townerLots[_nameId].push(_lotId);\n\n\t\t// Update contract variables\n\t\ttotalEthosStaked[_nameId] = totalEthosStaked[_nameId].add(_quantity);\n\t\tcontractTotalEthos = contractTotalEthos.add(_quantity);\n\n\t\trequire (_ethos.transferFrom(_nameId, _taoId, _quantity));\n\n\t\temit StakeEthos(_lot.taoId, _lot.lotId, _lot.nameId, _lot.lotQuantity, _lot.poolPreStakeSnapshot, _lot.poolStakeLotSnapshot, _lot.lotValueInLogos, _lot.timestamp);\n\t}\n\n\t/**\n\t * @dev Retrieve number of Lots a `_nameId` has\n\t * @param _nameId The Name ID of the Lot's owner\n\t * @return Total Lots the owner has\n\t */\n\tfunction ownerTotalLot(address _nameId) public view returns (uint256) {\n\t\treturn ownerLots[_nameId].length;\n\t}\n\n\t/**\n\t * @dev Get list of owner's Lot IDs from `_from` to `_to` index\n\t * @param _nameId The Name Id of the Lot's owner\n\t * @param _from The starting index, (i.e 0)\n\t * @param _to The ending index, (i.e total - 1)\n\t * @return list of owner's Lot IDs\n\t */\n\tfunction ownerLotIds(address _nameId, uint256 _from, uint256 _to) public view returns (bytes32[] memory) {\n\t\trequire (_from >= 0 && _to >= _from && ownerLots[_nameId].length > _to);\n\t\tbytes32[] memory _lotIds = new bytes32[](_to.sub(_from).add(1));\n\t\tfor (uint256 i = _from; i <= _to; i++) {\n\t\t\t_lotIds[i.sub(_from)] = ownerLots[_nameId][i];\n\t\t}\n\t\treturn _lotIds;\n\t}\n\n\t/**\n\t * @dev Return the amount of Pathos that can be staked on Pool\n\t * @param _taoId The TAO ID of the Pool\n\t * @return The amount of Pathos that can be staked\n\t */\n\tfunction availablePathosToStake(address _taoId) public isTAO(_taoId) view returns (uint256) {\n\t\tif (pools[_taoId].status == true) {\n\t\t\treturn _ethos.balanceOf(_taoId).sub(_pathos.balanceOf(_taoId));\n\t\t} else {\n\t\t\treturn 0;\n\t\t}\n\t}\n\n\t/**\n\t * @dev A Name stakes Pathos in Pool `_taoId`\n\t * @param _taoId The TAO ID of the Pool\n\t * @param _quantity The amount of Pathos to stake\n\t */\n\tfunction stakePathos(address _taoId, uint256 _quantity) public isTAO(_taoId) senderIsName senderNameNotCompromised {\n\t\tPool memory _pool = pools[_taoId];\n\t\taddress _nameId = _nameFactory.ethAddressToNameId(msg.sender);\n\t\trequire (_pool.status == true && _quantity > 0 && _pathos.balanceOf(_nameId) >= _quantity && _quantity <= availablePathosToStake(_taoId));\n\n\t\t// Update contract variables\n\t\ttotalPathosStaked[_nameId] = totalPathosStaked[_nameId].add(_quantity);\n\t\tcontractTotalPathos = contractTotalPathos.add(_quantity);\n\n\t\trequire (_pathos.transferFrom(_nameId, _taoId, _quantity));\n\n\t\t// Also add advocated TAO logos to Advocate of _taoId\n\t\trequire (_logos.addAdvocatedTAOLogos(_taoId, _quantity));\n\n\t\temit StakePathos(_taoId, _nameId, _quantity, _pathos.balanceOf(_taoId));\n\t}\n\n\t/**\n\t * @dev Name that staked Ethos withdraw Logos from Lot `_lotId`\n\t * @param _lotId The ID of the Lot\n\t */\n\tfunction withdrawLogos(bytes32 _lotId) public senderIsName senderNameNotCompromised {\n\t\tLot storage _lot = lots[_lotId];\n\t\taddress _nameId = _nameFactory.ethAddressToNameId(msg.sender);\n\t\trequire (_lot.nameId == _nameId && _lot.lotValueInLogos > 0);\n\n\t\tuint256 logosAvailableToWithdraw = lotLogosAvailableToWithdraw(_lotId);\n\n\t\trequire (logosAvailableToWithdraw > 0 && logosAvailableToWithdraw <= _lot.lotValueInLogos);\n\n\t\t// Update lot variables\n\t\t_lot.logosWithdrawn = _lot.logosWithdrawn.add(logosAvailableToWithdraw);\n\t\t_lot.lotValueInLogos = _lot.lotValueInLogos.sub(logosAvailableToWithdraw);\n\n\t\t// Update contract variables\n\t\tcontractTotalLogosWithdrawn = contractTotalLogosWithdrawn.add(logosAvailableToWithdraw);\n\t\tpoolTotalLogosWithdrawn[_lot.taoId] = poolTotalLogosWithdrawn[_lot.taoId].add(logosAvailableToWithdraw);\n\n\t\t// Mint logos to seller\n\t\trequire (_logos.mint(_nameId, logosAvailableToWithdraw));\n\n\t\temit WithdrawLogos(_lot.nameId, _lot.lotId, _lot.taoId, logosAvailableToWithdraw, _lot.lotValueInLogos, _lot.logosWithdrawn);\n\t}\n\n\t/**\n\t * @dev Name gets Lot `_lotId` available Logos to withdraw\n\t * @param _lotId The ID of the Lot\n\t * @return The amount of Logos available to withdraw\n\t */\n\tfunction lotLogosAvailableToWithdraw(bytes32 _lotId) public view returns (uint256) {\n\t\tLot memory _lot = lots[_lotId];\n\t\trequire (_lot.nameId != address(0));\n\n\t\tuint256 logosAvailableToWithdraw = 0;\n\n\t\tif (_pathos.balanceOf(_lot.taoId) > _lot.poolPreStakeSnapshot && _lot.lotValueInLogos > 0) {\n\t\t\tlogosAvailableToWithdraw = (_pathos.balanceOf(_lot.taoId) >= _lot.poolStakeLotSnapshot) ? _lot.lotQuantity : _pathos.balanceOf(_lot.taoId).sub(_lot.poolPreStakeSnapshot);\n\t\t\tif (logosAvailableToWithdraw > 0) {\n\t\t\t\tlogosAvailableToWithdraw = logosAvailableToWithdraw.sub(_lot.logosWithdrawn);\n\t\t\t}\n\t\t}\n\t\treturn logosAvailableToWithdraw;\n\t}\n}\n",
  "sourcePath": "/usr/local/ao-contracts/contracts/TAOPool.sol",
  "compiler": {
    "name": "solc",
    "version": "0.5.4+commit.9549d8ff.Emscripten.clang"
  },
  "schemaVersion": "3.0.2",
  "updatedAt": "2019-03-21T02:41:21.413Z",
  "devdoc": {
    "methods": {
      "availablePathosToStake(address)": {
        "details": "Return the amount of Pathos that can be staked on Pool",
        "params": {
          "_taoId": "The TAO ID of the Pool"
        },
        "return": "The amount of Pathos that can be staked"
      },
      "constructor": {
        "details": "Constructor function"
      },
      "createPool(address,bool,uint256)": {
        "details": "Create a pool for a TAO"
      },
      "isExist(address)": {
        "details": "Check whether or not Pool exist for a TAO ID",
        "params": {
          "_id": "The ID to be checked"
        },
        "return": "true if yes, false otherwise"
      },
      "lotLogosAvailableToWithdraw(bytes32)": {
        "details": "Name gets Lot `_lotId` available Logos to withdraw",
        "params": {
          "_lotId": "The ID of the Lot"
        },
        "return": "The amount of Logos available to withdraw"
      },
      "ownerLotIds(address,uint256,uint256)": {
        "details": "Get list of owner's Lot IDs from `_from` to `_to` index",
        "params": {
          "_from": "The starting index, (i.e 0)",
          "_nameId": "The Name Id of the Lot's owner",
          "_to": "The ending index, (i.e total - 1)"
        },
        "return": "list of owner's Lot IDs"
      },
      "ownerTotalLot(address)": {
        "details": "Retrieve number of Lots a `_nameId` has",
        "params": {
          "_nameId": "The Name ID of the Lot's owner"
        },
        "return": "Total Lots the owner has"
      },
      "setEthosAddress(address)": {
        "details": "The AO set the Ethos Address",
        "params": {
          "_ethosAddress": "The address of Ethos"
        }
      },
      "setLogosAddress(address)": {
        "details": "The AO set the Logos Address",
        "params": {
          "_logosAddress": "The address of Logos"
        }
      },
      "setNameAccountRecoveryAddress(address)": {
        "details": "The AO set the NameAccountRecovery Address",
        "params": {
          "_nameAccountRecoveryAddress": "The address of NameAccountRecovery"
        }
      },
      "setNameFactoryAddress(address)": {
        "details": "The AO sets NameFactory address",
        "params": {
          "_nameFactoryAddress": "The address of NameFactory"
        }
      },
      "setNameTAOPositionAddress(address)": {
        "details": "The AO sets NameTAOPosition address",
        "params": {
          "_nameTAOPositionAddress": "The address of NameTAOPosition"
        }
      },
      "setPathosAddress(address)": {
        "details": "The AO set the Pathos Address",
        "params": {
          "_pathosAddress": "The address of Pathos"
        }
      },
      "setTAOFactoryAddress(address)": {
        "details": "The AO set the TAOFactory Address",
        "params": {
          "_taoFactoryAddress": "The address of TAOFactory"
        }
      },
      "setWhitelist(address,bool)": {
        "details": "Whitelist `_account` address to transact on behalf of others",
        "params": {
          "_account": "The address to whitelist",
          "_whitelist": "Either to whitelist or not"
        }
      },
      "stakeEthos(address,uint256)": {
        "details": "A Name stakes Ethos in Pool `_taoId`",
        "params": {
          "_quantity": "The amount of Ethos to be staked",
          "_taoId": "The TAO ID of the Pool"
        }
      },
      "stakePathos(address,uint256)": {
        "details": "A Name stakes Pathos in Pool `_taoId`",
        "params": {
          "_quantity": "The amount of Pathos to stake",
          "_taoId": "The TAO ID of the Pool"
        }
      },
      "transferOwnership(address)": {
        "details": "Transfer ownership of The AO to new address",
        "params": {
          "_theAO": "The new address to be transferred"
        }
      },
      "updatePoolEthosCap(address,bool,uint256)": {
        "details": "Update Ethos cap of a Pool",
        "params": {
          "_ethosCapAmount": "The ethos cap amount to set",
          "_ethosCapStatus": "The ethos cap status to set",
          "_taoId": "The TAO ID of the Pool"
        }
      },
      "updatePoolStatus(address,bool)": {
        "details": "Start/Stop a Pool",
        "params": {
          "_status": "The status to set. true = start. false = stop",
          "_taoId": "The TAO ID of the Pool"
        }
      },
      "withdrawLogos(bytes32)": {
        "details": "Name that staked Ethos withdraw Logos from Lot `_lotId`",
        "params": {
          "_lotId": "The ID of the Lot"
        }
      }
    },
    "title": "TAOPool * This contract acts as the bookkeeper of TAO Currencies that are staked on TAO"
  },
  "userdoc": {
    "methods": {}
  }
}