{
	"contractName": "TAOPool",
	"abi": [
		{
			"constant": true,
			"inputs": [
				{
					"name": "",
					"type": "address"
				}
			],
			"name": "totalEthosStaked",
			"outputs": [
				{
					"name": "",
					"type": "uint256"
				}
			],
			"payable": false,
			"stateMutability": "view",
			"type": "function"
		},
		{
			"constant": true,
			"inputs": [
				{
					"name": "",
					"type": "address"
				}
			],
			"name": "poolTotalLot",
			"outputs": [
				{
					"name": "",
					"type": "uint256"
				}
			],
			"payable": false,
			"stateMutability": "view",
			"type": "function"
		},
		{
			"constant": true,
			"inputs": [],
			"name": "contractTotalLot",
			"outputs": [
				{
					"name": "",
					"type": "uint256"
				}
			],
			"payable": false,
			"stateMutability": "view",
			"type": "function"
		},
		{
			"constant": true,
			"inputs": [
				{
					"name": "",
					"type": "address"
				}
			],
			"name": "totalPathosStaked",
			"outputs": [
				{
					"name": "",
					"type": "uint256"
				}
			],
			"payable": false,
			"stateMutability": "view",
			"type": "function"
		},
		{
			"constant": true,
			"inputs": [],
			"name": "TAOFactoryAddress",
			"outputs": [
				{
					"name": "",
					"type": "address"
				}
			],
			"payable": false,
			"stateMutability": "view",
			"type": "function"
		},
		{
			"constant": true,
			"inputs": [],
			"name": "contractTotalEthos",
			"outputs": [
				{
					"name": "",
					"type": "uint256"
				}
			],
			"payable": false,
			"stateMutability": "view",
			"type": "function"
		},
		{
			"constant": true,
			"inputs": [],
			"name": "contractTotalLogosWithdrawn",
			"outputs": [
				{
					"name": "",
					"type": "uint256"
				}
			],
			"payable": false,
			"stateMutability": "view",
			"type": "function"
		},
		{
			"constant": true,
			"inputs": [
				{
					"name": "",
					"type": "address"
				}
			],
			"name": "pools",
			"outputs": [
				{
					"name": "taoId",
					"type": "address"
				},
				{
					"name": "ethosCapStatus",
					"type": "bool"
				},
				{
					"name": "ethosCapAmount",
					"type": "uint256"
				},
				{
					"name": "status",
					"type": "bool"
				}
			],
			"payable": false,
			"stateMutability": "view",
			"type": "function"
		},
		{
			"constant": true,
			"inputs": [],
			"name": "contractTotalPathos",
			"outputs": [
				{
					"name": "",
					"type": "uint256"
				}
			],
			"payable": false,
			"stateMutability": "view",
			"type": "function"
		},
		{
			"constant": true,
			"inputs": [
				{
					"name": "",
					"type": "bytes32"
				}
			],
			"name": "lots",
			"outputs": [
				{
					"name": "lotId",
					"type": "bytes32"
				},
				{
					"name": "nameId",
					"type": "address"
				},
				{
					"name": "lotQuantity",
					"type": "uint256"
				},
				{
					"name": "taoId",
					"type": "address"
				},
				{
					"name": "poolPreStakeSnapshot",
					"type": "uint256"
				},
				{
					"name": "poolStakeLotSnapshot",
					"type": "uint256"
				},
				{
					"name": "lotValueInLogos",
					"type": "uint256"
				},
				{
					"name": "logosWithdrawn",
					"type": "uint256"
				},
				{
					"name": "timestamp",
					"type": "uint256"
				}
			],
			"payable": false,
			"stateMutability": "view",
			"type": "function"
		},
		{
			"inputs": [
				{
					"name": "_nameFactoryAddress",
					"type": "address"
				},
				{
					"name": "_nameTAOPositionAddress",
					"type": "address"
				},
				{
					"name": "_TAOFactoryAddress",
					"type": "address"
				},
				{
					"name": "_pathosAddress",
					"type": "address"
				},
				{
					"name": "_ethosAddress",
					"type": "address"
				},
				{
					"name": "_logosAddress",
					"type": "address"
				}
			],
			"payable": false,
			"stateMutability": "nonpayable",
			"type": "constructor"
		},
		{
			"anonymous": false,
			"inputs": [
				{
					"indexed": true,
					"name": "taoId",
					"type": "address"
				},
				{
					"indexed": false,
					"name": "ethosCapStatus",
					"type": "bool"
				},
				{
					"indexed": false,
					"name": "ethosCapAmount",
					"type": "uint256"
				},
				{
					"indexed": false,
					"name": "status",
					"type": "bool"
				}
			],
			"name": "CreatePool",
			"type": "event"
		},
		{
			"anonymous": false,
			"inputs": [
				{
					"indexed": true,
					"name": "taoId",
					"type": "address"
				},
				{
					"indexed": false,
					"name": "status",
					"type": "bool"
				}
			],
			"name": "UpdatePoolStatus",
			"type": "event"
		},
		{
			"anonymous": false,
			"inputs": [
				{
					"indexed": true,
					"name": "taoId",
					"type": "address"
				},
				{
					"indexed": true,
					"name": "lotId",
					"type": "bytes32"
				},
				{
					"indexed": true,
					"name": "nameId",
					"type": "address"
				},
				{
					"indexed": false,
					"name": "lotQuantity",
					"type": "uint256"
				},
				{
					"indexed": false,
					"name": "poolPreStakeSnapshot",
					"type": "uint256"
				},
				{
					"indexed": false,
					"name": "poolStakeLotSnapshot",
					"type": "uint256"
				},
				{
					"indexed": false,
					"name": "lotValueInLogos",
					"type": "uint256"
				},
				{
					"indexed": false,
					"name": "timestamp",
					"type": "uint256"
				}
			],
			"name": "StakeEthos",
			"type": "event"
		},
		{
			"anonymous": false,
			"inputs": [
				{
					"indexed": true,
					"name": "taoId",
					"type": "address"
				},
				{
					"indexed": true,
					"name": "nameId",
					"type": "address"
				},
				{
					"indexed": false,
					"name": "stakeQuantity",
					"type": "uint256"
				},
				{
					"indexed": false,
					"name": "currentPoolTotalStakedPathos",
					"type": "uint256"
				}
			],
			"name": "StakePathos",
			"type": "event"
		},
		{
			"anonymous": false,
			"inputs": [
				{
					"indexed": true,
					"name": "nameId",
					"type": "address"
				},
				{
					"indexed": true,
					"name": "lotId",
					"type": "bytes32"
				},
				{
					"indexed": true,
					"name": "taoId",
					"type": "address"
				},
				{
					"indexed": false,
					"name": "withdrawnAmount",
					"type": "uint256"
				},
				{
					"indexed": false,
					"name": "currentLotValueInLogos",
					"type": "uint256"
				},
				{
					"indexed": false,
					"name": "currentLotLogosWithdrawn",
					"type": "uint256"
				}
			],
			"name": "WithdrawLogos",
			"type": "event"
		},
		{
			"constant": false,
			"inputs": [
				{
					"name": "_taoId",
					"type": "address"
				},
				{
					"name": "_ethosCapStatus",
					"type": "bool"
				},
				{
					"name": "_ethosCapAmount",
					"type": "uint256"
				}
			],
			"name": "createPool",
			"outputs": [
				{
					"name": "",
					"type": "bool"
				}
			],
			"payable": false,
			"stateMutability": "nonpayable",
			"type": "function"
		},
		{
			"constant": false,
			"inputs": [
				{
					"name": "_taoId",
					"type": "address"
				},
				{
					"name": "_status",
					"type": "bool"
				}
			],
			"name": "updatePoolStatus",
			"outputs": [],
			"payable": false,
			"stateMutability": "nonpayable",
			"type": "function"
		},
		{
			"constant": false,
			"inputs": [
				{
					"name": "_taoId",
					"type": "address"
				},
				{
					"name": "_quantity",
					"type": "uint256"
				}
			],
			"name": "stakeEthos",
			"outputs": [],
			"payable": false,
			"stateMutability": "nonpayable",
			"type": "function"
		},
		{
			"constant": true,
			"inputs": [
				{
					"name": "_nameId",
					"type": "address"
				}
			],
			"name": "ownerTotalLot",
			"outputs": [
				{
					"name": "",
					"type": "uint256"
				}
			],
			"payable": false,
			"stateMutability": "view",
			"type": "function"
		},
		{
			"constant": true,
			"inputs": [
				{
					"name": "_nameId",
					"type": "address"
				},
				{
					"name": "_from",
					"type": "uint256"
				},
				{
					"name": "_to",
					"type": "uint256"
				}
			],
			"name": "ownerLotIds",
			"outputs": [
				{
					"name": "",
					"type": "bytes32[]"
				}
			],
			"payable": false,
			"stateMutability": "view",
			"type": "function"
		},
		{
			"constant": false,
			"inputs": [
				{
					"name": "_taoId",
					"type": "address"
				},
				{
					"name": "_quantity",
					"type": "uint256"
				}
			],
			"name": "stakePathos",
			"outputs": [],
			"payable": false,
			"stateMutability": "nonpayable",
			"type": "function"
		},
		{
			"constant": false,
			"inputs": [
				{
					"name": "_lotId",
					"type": "bytes32"
				}
			],
			"name": "withdrawLogos",
			"outputs": [],
			"payable": false,
			"stateMutability": "nonpayable",
			"type": "function"
		},
		{
			"constant": true,
			"inputs": [
				{
					"name": "_lotId",
					"type": "bytes32"
				}
			],
			"name": "lotLogosAvailableToWithdraw",
			"outputs": [
				{
					"name": "",
					"type": "uint256"
				}
			],
			"payable": false,
			"stateMutability": "view",
			"type": "function"
		}
	],
	"bytecode": "0x608060405234801561001057600080fd5b5060405160c080611e0683398101604090815281516020830151918301516060840151608085015160a09095015160008054600160a060020a0319908116600160a060020a03968716178255600180548216978716979097179096556002805487169486169490941790935560038054861692851692909217909155600480548516958416959095179094556005805490931691909316179055611d4c9081906100ba90396000f3006080604052600436106100e25763ffffffff60e060020a60003504166324d7231781146100e757806328d313b51461010d5780632fbb76951461014057806334172c9e146101585780633a10617d1461017e57806350159a9e1461019f5780635baf6a47146101b45780635d813eb4146101d5578063698b7764146101f65780637ac1ae90146102335780638bce77f31461026457806395c13f0a14610279578063a4063dbc1461028e578063c6185ae1146102e1578063de4796cd146102f6578063e3fcd93014610364578063f68d8f5a1461037c578063f838955a146103a0575b600080fd5b3480156100f357600080fd5b5061010b600160a060020a0360043516602435610417565b005b34801561011957600080fd5b5061012e600160a060020a03600435166109c1565b60408051918252519081900360200190f35b34801561014c57600080fd5b5061012e6004356109d3565b34801561016457600080fd5b5061010b600160a060020a03600435166024351515610c6b565b34801561018a57600080fd5b5061012e600160a060020a0360043516610e3a565b3480156101ab57600080fd5b5061012e610e4c565b3480156101c057600080fd5b5061012e600160a060020a0360043516610e52565b3480156101e157600080fd5b5061012e600160a060020a0360043516610e64565b34801561020257600080fd5b5061021f600160a060020a03600435166024351515604435610e7f565b604080519115158252519081900360200190f35b34801561023f57600080fd5b50610248611065565b60408051600160a060020a039092168252519081900360200190f35b34801561027057600080fd5b5061012e611074565b34801561028557600080fd5b5061012e61107a565b34801561029a57600080fd5b506102af600160a060020a0360043516611080565b60408051600160a060020a03909516855292151560208501528383019190915215156060830152519081900360800190f35b3480156102ed57600080fd5b5061012e6110b9565b34801561030257600080fd5b5061030e6004356110bf565b60408051998a52600160a060020a0398891660208b015289810197909752949096166060880152608087019290925260a086015260c085015260e084019290925261010083019190915251908190036101200190f35b34801561037057600080fd5b5061010b600435611116565b34801561038857600080fd5b5061010b600160a060020a03600435166024356113ee565b3480156103ac57600080fd5b506103c7600160a060020a0360043516602435604435611b71565b60408051602080825283518183015283519192839290830191858101910280838360005b838110156104035781810151838201526020016103eb565b505050509050019250505060405180910390f35b61041f611c97565b60008373__AOLibrary_____________________________632fca5414826040518263ffffffff1660e060020a0281526004018082600160a060020a0316600160a060020a0316815260200191505060206040518083038186803b15801561048657600080fd5b505af415801561049a573d6000803e3d6000fd5b505050506040513d60208110156104b057600080fd5b505115156104bd57600080fd5b600080546040805160e060020a63029b7d530281523360048201529051600160a060020a039092169163029b7d539160248082019260209290919082900301818787803b15801561050d57600080fd5b505af1158015610521573d6000803e3d6000fd5b505050506040513d602081101561053757600080fd5b5051600160a060020a0316141561054d57600080fd5b600160a060020a038086166000908152600a6020908152604080832081516080810183528154808716825260ff60a060020a9091048116151582860152600183015482850152600290920154909116151560608201528354825160e060020a63029b7d5302815233600482015292519198509094169363029b7d5393602480840194938390030190829087803b1580156105e657600080fd5b505af11580156105fa573d6000803e3d6000fd5b505050506040513d602081101561061057600080fd5b505160608401519092501515600114801561062b5750600084115b80156106b657506003546040805160e060020a6370a08231028152600160a060020a0385811660048301529151879392909216916370a08231916024808201926020929091908290030181600087803b15801561068757600080fd5b505af115801561069b573d6000803e3d6000fd5b505050506040513d60208110156106b157600080fd5b505110155b80156107435750600480546040805160e060020a6370a08231028152600160a060020a0389811694820194909452905192909116916370a08231916024808201926020929091908290030181600087803b15801561071357600080fd5b505af1158015610727573d6000803e3d6000fd5b505050506040513d602081101561073d57600080fd5b50518411155b151561074e57600080fd5b600160a060020a0382166000908152600f6020526040902054610777908563ffffffff611c7216565b600160a060020a0383166000908152600f60205260409020556008546107a3908563ffffffff611c7216565b600855600354604080517f23b872dd000000000000000000000000000000000000000000000000000000008152600160a060020a038581166004830152888116602483015260448201889052915191909216916323b872dd9160648083019260209291908290030181600087803b15801561081d57600080fd5b505af1158015610831573d6000803e3d6000fd5b505050506040513d602081101561084757600080fd5b5051151561085457600080fd5b600554604080517f97fe5ea3000000000000000000000000000000000000000000000000000000008152600160a060020a03888116600483015260248201889052915191909216916397fe5ea39160448083019260209291908290030181600087803b1580156108c357600080fd5b505af11580156108d7573d6000803e3d6000fd5b505050506040513d60208110156108ed57600080fd5b505115156108fa57600080fd5b6003546040805160e060020a6370a08231028152600160a060020a03888116600483018190529251868216947fad55db0d41c96097ea516af16ed6458bb2b54fdf95347b6108c0822c0442b1ba938a93909116916370a08231916024808201926020929091908290030181600087803b15801561097657600080fd5b505af115801561098a573d6000803e3d6000fd5b505050506040513d60208110156109a057600080fd5b50516040805192835260208301919091528051918290030190a35050505050565b600e6020526000908152604090205481565b60006109dd611cbe565b506000828152600b60209081526040808320815161012081018352815481526001820154600160a060020a039081169482018590526002830154938201939093526003820154909216606083015260048101546080830152600581015460a0830152600681015460c0830152600781015460e08301526008015461010082015291901515610a6a57600080fd5b50608081015160035460608301516040805160e060020a6370a08231028152600160a060020a03928316600482015290516000949392909216916370a082319160248082019260209290919082900301818887803b158015610acb57600080fd5b505af1158015610adf573d6000803e3d6000fd5b505050506040513d6020811015610af557600080fd5b5051118015610b08575060008260c00151115b15610c645760a082015160035460608401516040805160e060020a6370a08231028152600160a060020a039283166004820152905191909216916370a082319160248083019260209291908290030181600087803b158015610b6957600080fd5b505af1158015610b7d573d6000803e3d6000fd5b505050506040513d6020811015610b9357600080fd5b50511015610c3a57608082015160035460608401516040805160e060020a6370a08231028152600160a060020a0392831660048201529051610c35949392909216916370a08231916024808201926020929091908290030181600087803b158015610bfd57600080fd5b505af1158015610c11573d6000803e3d6000fd5b505050506040513d6020811015610c2757600080fd5b50519063ffffffff611c8516565b610c40565b81604001515b90506000811115610c645760e0820151610c6190829063ffffffff611c8516565b90505b9392505050565b8173__AOLibrary_____________________________632fca5414826040518263ffffffff1660e060020a0281526004018082600160a060020a0316600160a060020a0316815260200191505060206040518083038186803b158015610cd057600080fd5b505af4158015610ce4573d6000803e3d6000fd5b505050506040513d6020811015610cfa57600080fd5b50511515610d0757600080fd5b600154604080517f71ce52ed000000000000000000000000000000000000000000000000000000008152336004820152600160a060020a0380871660248301529151869392909216916371ce52ed916044808201926020929091908290030181600087803b158015610d7857600080fd5b505af1158015610d8c573d6000803e3d6000fd5b505050506040513d6020811015610da257600080fd5b50511515610daf57600080fd5b600160a060020a038481166000908152600a6020526040902054161515610dd557600080fd5b600160a060020a0384166000818152600a6020908152604091829020600201805460ff1916871515908117909155825190815291517ff42c4514c5443bc92344a80472c81668c8dd5a9417f857e6677f1ef38ec5a0b89281900390910190a250505050565b600c6020526000908152604090205481565b60065481565b600f6020526000908152604090205481565b600160a060020a03166000908152600d602052604090205490565b6000808473__AOLibrary_____________________________632fca5414826040518263ffffffff1660e060020a0281526004018082600160a060020a0316600160a060020a0316815260200191505060206040518083038186803b158015610ee757600080fd5b505af4158015610efb573d6000803e3d6000fd5b505050506040513d6020811015610f1157600080fd5b50511515610f1e57600080fd5b600254600160a060020a03163314610f3557600080fd5b60018515151415610f4d5760008411610f4d57600080fd5b600160a060020a038681166000908152600a60205260409020541615610f7257600080fd5b600160a060020a0386166000818152600a60205260409020805460028201805460ff191660011790558715801560a060020a0274ff00000000000000000000000000000000000000001973ffffffffffffffffffffffffffffffffffffffff19909316909417919091169290921781559250610ff057600182018490555b8154600183015460028401546040805160ff60a060020a86048116151582526020820194909452919092161515818301529051600160a060020a03909216917f2d333584a4195376719b161f274a701d7dbe5698253665deb3edc1c1e4b8c6bd9181900360600190a250600195945050505050565b600254600160a060020a031681565b60075481565b60095481565b600a60205260009081526040902080546001820154600290920154600160a060020a0382169260ff60a060020a90930483169290911684565b60085481565b600b602052600090815260409020805460018201546002830154600384015460048501546005860154600687015460078801546008909801549697600160a060020a03968716979596909416949293919290919089565b600080546040805160e060020a63029b7d530281523360048201529051839283928392600160a060020a039092169163029b7d539160248082019260209290919082900301818787803b15801561116c57600080fd5b505af1158015611180573d6000803e3d6000fd5b505050506040513d602081101561119657600080fd5b5051600160a060020a031614156111ac57600080fd5b6000848152600b602090815260408083208354825160e060020a63029b7d530281523360048201529251919750600160a060020a03169363029b7d5393602480850194919392918390030190829087803b15801561120957600080fd5b505af115801561121d573d6000803e3d6000fd5b505050506040513d602081101561123357600080fd5b50516001840154909250600160a060020a03808416911614801561125b575060008360060154115b151561126657600080fd5b61126f846109d3565b9050600081118015611285575082600601548111155b151561129057600080fd5b60078301546112a5908263ffffffff611c7216565b600784015560068301546112bf908263ffffffff611c8516565b60068401556009546112d7908263ffffffff611c7216565b600955600554604080517f79c65068000000000000000000000000000000000000000000000000000000008152600160a060020a03858116600483015260248201859052915191909216916379c650689160448083019260209291908290030181600087803b15801561134957600080fd5b505af115801561135d573d6000803e3d6000fd5b505050506040513d602081101561137357600080fd5b5051151561138057600080fd5b600383015483546001850154600686015460078701546040805187815260208101939093528281019190915251600160a060020a039485169492909216917fb0d51de1a22d42472f71d0eae171c27ae2e8fc84aaf70008c7a57857ae0a079d9181900360600190a450505050565b6113f6611c97565b60008060008573__AOLibrary_____________________________632fca5414826040518263ffffffff1660e060020a0281526004018082600160a060020a0316600160a060020a0316815260200191505060206040518083038186803b15801561146057600080fd5b505af4158015611474573d6000803e3d6000fd5b505050506040513d602081101561148a57600080fd5b5051151561149757600080fd5b600080546040805160e060020a63029b7d530281523360048201529051600160a060020a039092169163029b7d539160248082019260209290919082900301818787803b1580156114e757600080fd5b505af11580156114fb573d6000803e3d6000fd5b505050506040513d602081101561151157600080fd5b5051600160a060020a0316141561152757600080fd5b600160a060020a038088166000908152600a6020908152604080832081516080810183528154808716825260ff60a060020a9091048116151582860152600183015482850152600290920154909116151560608201528354825160e060020a63029b7d530281523360048201529251919a509094169363029b7d5393602480840194938390030190829087803b1580156115c057600080fd5b505af11580156115d4573d6000803e3d6000fd5b505050506040513d60208110156115ea57600080fd5b50516060860151909450151560011480156116055750600086115b80156116925750600480546040805160e060020a6370a08231028152600160a060020a038881169482019490945290518993909216916370a08231916024808201926020929091908290030181600087803b15801561166357600080fd5b505af1158015611677573d6000803e3d6000fd5b505050506040513d602081101561168d57600080fd5b505110155b151561169d57600080fd5b602085015115156001141561176857846040015161175d87600460009054906101000a9004600160a060020a0316600160a060020a03166370a082318b6040518263ffffffff1660e060020a0281526004018082600160a060020a0316600160a060020a03168152602001915050602060405180830381600087803b15801561172557600080fd5b505af1158015611739573d6000803e3d6000fd5b505050506040513d602081101561174f57600080fd5b50519063ffffffff611c7216565b111561176857600080fd5b6006805460019081018255600160a060020a0389166000908152600c60209081526040918290208054909301909255915482516c010000000000000000000000003081028285015233026034820152604880820192909252835180820390920182526068019283905280519092918291908401908083835b602083106117ff5780518252601f1990920191602091820191016117e0565b6001836020036101000a03801982511681845116808217855250505050505090500191505060405180910390209250600b60008460001916600019168152602001908152602001600020915082826000018160001916905550838260010160006101000a815481600160a060020a030219169083600160a060020a03160217905550858260020181905550868260030160006101000a815481600160a060020a030219169083600160a060020a03160217905550600460009054906101000a9004600160a060020a0316600160a060020a03166370a08231886040518263ffffffff1660e060020a0281526004018082600160a060020a0316600160a060020a03168152602001915050602060405180830381600087803b15801561192357600080fd5b505af1158015611937573d6000803e3d6000fd5b505050506040513d602081101561194d57600080fd5b505160048084019190915580546040805160e060020a6370a08231028152600160a060020a038b81169482019490945290516119ae938a9316916370a082319160248083019260209291908290030181600087803b15801561172557600080fd5b600583015560068201869055426008830155600160a060020a0384166000818152600d60209081526040808320805460018101825590845282842001879055928252600e90522054611a06908763ffffffff611c7216565b600160a060020a0385166000908152600e6020526040902055600754611a32908763ffffffff611c7216565b60075560048054604080517f23b872dd000000000000000000000000000000000000000000000000000000008152600160a060020a03888116948201949094528a84166024820152604481018a9052905192909116916323b872dd916064808201926020929091908290030181600087803b158015611ab057600080fd5b505af1158015611ac4573d6000803e3d6000fd5b505050506040513d6020811015611ada57600080fd5b50511515611ae757600080fd5b60018201548254600384015460028501546004860154600587015460068801546008890154604080519586526020860194909452848401929092526060840152608083015251600160a060020a039485169492909216917f649ebc3a713a736fd86489f7362fff3bb4099403c0f6de86bd7d409aeb9808389181900360a00190a450505050505050565b6060806000808510158015611b865750848410155b8015611ba95750600160a060020a0386166000908152600d602052604090205484105b1515611bb457600080fd5b611bd56001611bc9868863ffffffff611c8516565b9063ffffffff611c7216565b604051908082528060200260200182016040528015611bfe578160200160208202803883390190505b5091508490505b838111611c6957600160a060020a0386166000908152600d60205260409020805482908110611c3057fe5b60009182526020909120015482611c4d838863ffffffff611c8516565b81518110611c5757fe5b60209081029091010152600101611c05565b50949350505050565b81810182811015611c7f57fe5b92915050565b600082821115611c9157fe5b50900390565b60408051608081018252600080825260208201819052918101829052606081019190915290565b61012060405190810160405280600080191681526020016000600160a060020a03168152602001600081526020016000600160a060020a03168152602001600081526020016000815260200160008152602001600081526020016000815250905600a165627a7a7230582042521a4b4551868b631858762affd018aac53d73c457c019b5333f26bd3106400029",
	"source": "pragma solidity ^0.4.24;\n\nimport './SafeMath.sol';\nimport './TAOController.sol';\nimport './TAOCurrency.sol';\nimport './Logos.sol';\nimport './TAO.sol';\n\n/**\n * @title TAOPool\n *\n * This contract acts as the bookkeeper of TAO Currencies that are staked on TAO\n */\ncontract TAOPool is TAOController {\n\tusing SafeMath for uint256;\n\n\taddress public TAOFactoryAddress;\n\n\tTAOCurrency internal _pathos;\n\tTAOCurrency internal _ethos;\n\tLogos internal _logos;\n\n\tstruct Pool {\n\t\taddress taoId;\n\t\t/**\n\t\t * If true, has ethos cap. Otherwise, no ethos cap.\n\t\t */\n\t\tbool ethosCapStatus;\n\t\tuint256 ethosCapAmount;\t// Creates a cap for the amount of Ethos that can be staked into this pool\n\n\t\t/**\n\t\t * If true, Pool is live and can be staked into.\n\t\t */\n\t\tbool status;\n\t}\n\n\tstruct Lot {\n\t\tbytes32 lotId;\t\t\t\t\t\t// The ID of this Lot\n\t\taddress nameId;\t\t\t\t\t\t// The ID of the Name that staked Ethos\n\t\tuint256 lotQuantity;\t\t\t\t// Amount of Ethos being staked to the Pool from this Lot\n\t\taddress taoId;\t\t\t\t\t\t// Identifier for the Pool this Lot is adding to\n\t\tuint256 poolPreStakeSnapshot;\t\t// Amount of Ethos contributed to the Pool prior to this Lot Number\n\t\tuint256 poolStakeLotSnapshot;\t\t// poolPreStakeSnapshot + lotQuantity - logosWithdrawn\n\t\tuint256 lotValueInLogos;\n\t\tuint256 logosWithdrawn;\t\t\t\t// Amount of Logos withdrawn from this Lot\n\t\tuint256 timestamp;\n\t}\n\n\tuint256 public contractTotalLot;\t\t// Total lot from all pools\n\tuint256 public contractTotalEthos;\t\t// Quantity of Ethos that has been staked to all Pools\n\tuint256 public contractTotalPathos;\t\t// Quantity of Pathos that has been staked to all Pools\n\tuint256 public contractTotalLogosWithdrawn;\t\t// Quantity of Logos that has been withdrawn from all Pools\n\n\t// Mapping from TAO ID to Pool\n\tmapping (address => Pool) public pools;\n\n\t// Mapping from Lot ID to Lot\n\tmapping (bytes32 => Lot) public lots;\n\n\t// Mapping from Pool's TAO ID to total Lots in the Pool\n\tmapping (address => uint256) public poolTotalLot;\n\n\t// Mapping from a Name ID to its Lots\n\tmapping (address => bytes32[]) internal ownerLots;\n\n\t// Mapping from a Name ID to quantity of Ethos staked from all lots\n\tmapping (address => uint256) public totalEthosStaked;\n\n\t// Mapping from a Name ID to quantity of Pathos staked from all lots\n\tmapping (address => uint256) public totalPathosStaked;\n\n\t// Event to be broadcasted to public when Pool is created\n\tevent CreatePool(address indexed taoId, bool ethosCapStatus, uint256 ethosCapAmount, bool status);\n\n\t// Event to be broadcasted to public when Pool's status is updated\n\t// If status == true, start Pool\n\t// Otherwise, stop Pool\n\tevent UpdatePoolStatus(address indexed taoId, bool status);\n\n\t/**\n\t * Event to be broadcasted to public when nameId stakes Ethos\n\t */\n\tevent StakeEthos(address indexed taoId, bytes32 indexed lotId, address indexed nameId, uint256 lotQuantity, uint256 poolPreStakeSnapshot, uint256 poolStakeLotSnapshot, uint256 lotValueInLogos, uint256 timestamp);\n\n\t// Event to be broadcasted to public when nameId stakes Pathos\n\tevent StakePathos(address indexed taoId, address indexed nameId, uint256 stakeQuantity, uint256 currentPoolTotalStakedPathos);\n\n\t// Event to be broadcasted to public when nameId withdraws Logos from Lot\n\tevent WithdrawLogos(address indexed nameId, bytes32 indexed lotId, address indexed taoId, uint256 withdrawnAmount, uint256 currentLotValueInLogos, uint256 currentLotLogosWithdrawn);\n\n\t/**\n\t * @dev Constructor function\n\t */\n\tconstructor(address _nameFactoryAddress, address _nameTAOPositionAddress, address _TAOFactoryAddress, address _pathosAddress, address _ethosAddress, address _logosAddress)\n\t\tTAOController(_nameFactoryAddress, _nameTAOPositionAddress) public {\n\t\tTAOFactoryAddress = _TAOFactoryAddress;\n\n\t\t_pathos = TAOCurrency(_pathosAddress);\n\t\t_ethos = TAOCurrency(_ethosAddress);\n\t\t_logos = Logos(_logosAddress);\n\t}\n\n\t/**\n\t * @dev Check if calling address is TAO Factory address\n\t */\n\tmodifier onlyTAOFactory {\n\t\trequire (msg.sender == TAOFactoryAddress);\n\t\t_;\n\t}\n\n\t/**\n\t * @dev Check if msg.sender is the current advocate of Name/TAO ID\n\t */\n\tmodifier onlyAdvocate(address _id) {\n\t\trequire (_nameTAOPosition.senderIsAdvocate(msg.sender, _id));\n\t\t_;\n\t}\n\n\t/**\n\t * @dev Create a pool for a TAO\n\t */\n\tfunction createPool(\n\t\taddress _taoId,\n\t\tbool _ethosCapStatus,\n\t\tuint256 _ethosCapAmount\n\t) public isTAO(_taoId) onlyTAOFactory returns (bool) {\n\t\t// Make sure ethos cap amount is provided if ethos cap is enabled\n\t\tif (_ethosCapStatus == true) {\n\t\t\trequire (_ethosCapAmount > 0);\n\t\t}\n\t\t// Make sure the pool is not yet created\n\t\trequire (pools[_taoId].taoId == address(0));\n\n\t\tPool storage _pool = pools[_taoId];\n\t\t_pool.taoId = _taoId;\n\t\t_pool.status = true;\n\t\t_pool.ethosCapStatus = _ethosCapStatus;\n\t\tif (_ethosCapStatus) {\n\t\t\t_pool.ethosCapAmount = _ethosCapAmount;\n\t\t}\n\n\t\temit CreatePool(_pool.taoId, _pool.ethosCapStatus, _pool.ethosCapAmount, _pool.status);\n\t\treturn true;\n\t}\n\n\t/**\n\t * @dev Start/Stop a Pool\n\t * @param _taoId The TAO ID of the Pool\n\t * @param _status The status to set. true = start. false = stop\n\t */\n\tfunction updatePoolStatus(address _taoId, bool _status) public isTAO(_taoId) onlyAdvocate(_taoId) {\n\t\trequire (pools[_taoId].taoId != address(0));\n\t\tpools[_taoId].status = _status;\n\t\temit UpdatePoolStatus(_taoId, _status);\n\t}\n\n\t/***** Public Methods *****/\n\t/**\n\t * @dev A Name stakes Ethos in Pool `_taoId`\n\t * @param _taoId The TAO ID of the Pool\n\t * @param _quantity The amount of Ethos to be staked\n\t */\n\tfunction stakeEthos(address _taoId, uint256 _quantity) public isTAO(_taoId) senderIsName {\n\t\tPool memory _pool = pools[_taoId];\n\t\taddress _nameId = _nameFactory.ethAddressToNameId(msg.sender);\n\t\trequire (_pool.status == true && _quantity > 0 && _ethos.balanceOf(_nameId) >= _quantity);\n\n\t\t// If there is an ethos cap\n\t\tif (_pool.ethosCapStatus == true) {\n\t\t\trequire (_ethos.balanceOf(_taoId).add(_quantity) <= _pool.ethosCapAmount);\n\t\t}\n\n\t\t// Create Lot for this transaction\n\t\tcontractTotalLot++;\n\t\tpoolTotalLot[_taoId]++;\n\n\t\t// Generate Lot ID\n\t\tbytes32 _lotId = keccak256(abi.encodePacked(this, msg.sender, contractTotalLot));\n\n\t\tLot storage _lot = lots[_lotId];\n\t\t_lot.lotId = _lotId;\n\t\t_lot.nameId = _nameId;\n\t\t_lot.lotQuantity = _quantity;\n\t\t_lot.taoId = _taoId;\n\t\t_lot.poolPreStakeSnapshot = _ethos.balanceOf(_taoId);\n\t\t_lot.poolStakeLotSnapshot = _ethos.balanceOf(_taoId).add(_quantity);\n\t\t_lot.lotValueInLogos = _quantity;\n\t\t_lot.timestamp = now;\n\n\t\townerLots[_nameId].push(_lotId);\n\n\t\t// Update contract variables\n\t\ttotalEthosStaked[_nameId] = totalEthosStaked[_nameId].add(_quantity);\n\t\tcontractTotalEthos = contractTotalEthos.add(_quantity);\n\n\t\trequire (_ethos.transferFrom(_nameId, _taoId, _quantity));\n\n\t\temit StakeEthos(_lot.taoId, _lot.lotId, _lot.nameId, _lot.lotQuantity, _lot.poolPreStakeSnapshot, _lot.poolStakeLotSnapshot, _lot.lotValueInLogos, _lot.timestamp);\n\t}\n\n\t/**\n\t * @dev Retrieve number of Lots a `_nameId` has\n\t * @param _nameId The Name ID of the Lot's owner\n\t * @return Total Lots the owner has\n\t */\n\tfunction ownerTotalLot(address _nameId) public view returns (uint256) {\n\t\treturn ownerLots[_nameId].length;\n\t}\n\n\t/**\n\t * @dev Get list of owner's Lot IDs from `_from` to `_to` index\n\t * @param _nameId The Name Id of the Lot's owner\n\t * @param _from The starting index, (i.e 0)\n\t * @param _to The ending index, (i.e total - 1)\n\t * @return list of owner's Lot IDs\n\t */\n\tfunction ownerLotIds(address _nameId, uint256 _from, uint256 _to) public view returns (bytes32[]) {\n\t\trequire (_from >= 0 && _to >= _from && ownerLots[_nameId].length > _to);\n\t\tbytes32[] memory _lotIds = new bytes32[](_to.sub(_from).add(1));\n\t\tfor (uint256 i = _from; i <= _to; i++) {\n\t\t\t_lotIds[i.sub(_from)] = ownerLots[_nameId][i];\n\t\t}\n\t\treturn _lotIds;\n\t}\n\n\t/**\n\t * @dev A Name stakes Pathos in Pool `_taoId`\n\t * @param _taoId The TAO ID of the Pool\n\t * @param _quantity The amount of Pathos to stake\n\t */\n\tfunction stakePathos(address _taoId, uint256 _quantity) public isTAO(_taoId) senderIsName {\n\t\tPool memory _pool = pools[_taoId];\n\t\taddress _nameId = _nameFactory.ethAddressToNameId(msg.sender);\n\t\trequire (_pool.status == true && _quantity > 0 && _pathos.balanceOf(_nameId) >= _quantity && _quantity <= _ethos.balanceOf(_taoId));\n\t\t// Update contract variables\n\t\ttotalPathosStaked[_nameId] = totalPathosStaked[_nameId].add(_quantity);\n\t\tcontractTotalPathos = contractTotalPathos.add(_quantity);\n\n\t\trequire (_pathos.transferFrom(_nameId, _taoId, _quantity));\n\n\t\t// Also add advocated TAO logos to Advocate of _taoId\n\t\trequire (_logos.addAdvocatedTAOLogos(_taoId, _quantity));\n\n\t\temit StakePathos(_taoId, _nameId, _quantity, _pathos.balanceOf(_taoId));\n\t}\n\n\t/**\n\t * @dev Name that staked Ethos withdraw Logos from Lot `_lotId`\n\t * @param _lotId The ID of the Lot\n\t */\n\tfunction withdrawLogos(bytes32 _lotId) public senderIsName {\n\t\tLot storage _lot = lots[_lotId];\n\t\taddress _nameId = _nameFactory.ethAddressToNameId(msg.sender);\n\t\trequire (_lot.nameId == _nameId && _lot.lotValueInLogos > 0);\n\n\t\tuint256 logosAvailableToWithdraw = lotLogosAvailableToWithdraw(_lotId);\n\n\t\trequire (logosAvailableToWithdraw > 0 && logosAvailableToWithdraw <= _lot.lotValueInLogos);\n\n\t\t// Update lot variables\n\t\t_lot.logosWithdrawn = _lot.logosWithdrawn.add(logosAvailableToWithdraw);\n\t\t_lot.lotValueInLogos = _lot.lotValueInLogos.sub(logosAvailableToWithdraw);\n\n\t\t// Update contract variables\n\t\tcontractTotalLogosWithdrawn = contractTotalLogosWithdrawn.add(logosAvailableToWithdraw);\n\n\t\t// Mint logos to seller\n\t\trequire (_logos.mintToken(_nameId, logosAvailableToWithdraw));\n\n\t\temit WithdrawLogos(_lot.nameId, _lot.lotId, _lot.taoId, logosAvailableToWithdraw, _lot.lotValueInLogos, _lot.logosWithdrawn);\n\t}\n\n\t/**\n\t * @dev Name gets Lot `_lotId` available Logos to withdraw\n\t * @param _lotId The ID of the Lot\n\t * @return The amount of Logos available to withdraw\n\t */\n\tfunction lotLogosAvailableToWithdraw(bytes32 _lotId) public view returns (uint256) {\n\t\tLot memory _lot = lots[_lotId];\n\t\trequire (_lot.nameId != address(0));\n\n\t\tuint256 logosAvailableToWithdraw = 0;\n\n\t\tif (_pathos.balanceOf(_lot.taoId) > _lot.poolPreStakeSnapshot && _lot.lotValueInLogos > 0) {\n\t\t\tlogosAvailableToWithdraw = (_pathos.balanceOf(_lot.taoId) >= _lot.poolStakeLotSnapshot) ? _lot.lotQuantity : _pathos.balanceOf(_lot.taoId).sub(_lot.poolPreStakeSnapshot);\n\t\t\tif (logosAvailableToWithdraw > 0) {\n\t\t\t\tlogosAvailableToWithdraw = logosAvailableToWithdraw.sub(_lot.logosWithdrawn);\n\t\t\t}\n\t\t}\n\t\treturn logosAvailableToWithdraw;\n\t}\n}\n",
	"sourcePath": "/Users/johanmulyono/Work/AO/ao-contracts/contracts/TAOPool.sol",
	"compiler": {
		"name": "solc",
		"version": "0.4.24+commit.e67f0147.Emscripten.clang"
	},
	"schemaVersion": "2.0.1",
	"updatedAt": "2019-01-07T03:04:13.090Z"
}