{
	"contractName": "TAOPosition",
	"abi": [
		{
			"constant": true,
			"inputs": [],
			"name": "positionAddress",
			"outputs": [
				{
					"name": "",
					"type": "address"
				}
			],
			"payable": false,
			"stateMutability": "view",
			"type": "function"
		},
		{
			"constant": true,
			"inputs": [],
			"name": "nameFactoryAddress",
			"outputs": [
				{
					"name": "",
					"type": "address"
				}
			],
			"payable": false,
			"stateMutability": "view",
			"type": "function"
		},
		{
			"inputs": [
				{
					"name": "_nameFactoryAddress",
					"type": "address"
				},
				{
					"name": "_positionAddress",
					"type": "address"
				}
			],
			"payable": false,
			"stateMutability": "nonpayable",
			"type": "constructor"
		},
		{
			"constant": false,
			"inputs": [
				{
					"name": "_taoId",
					"type": "address"
				},
				{
					"name": "_positionAmount",
					"type": "uint256"
				}
			],
			"name": "stakePosition",
			"outputs": [],
			"payable": false,
			"stateMutability": "nonpayable",
			"type": "function"
		},
		{
			"constant": false,
			"inputs": [
				{
					"name": "_taoId",
					"type": "address"
				},
				{
					"name": "_positionAmount",
					"type": "uint256"
				}
			],
			"name": "unstakePosition",
			"outputs": [],
			"payable": false,
			"stateMutability": "nonpayable",
			"type": "function"
		}
	],
	"bytecode": "0x608060405234801561001057600080fd5b5060405160408061074a83398101604052805160209091015160008054600160a060020a03938416600160a060020a031991821617918290556001805493851693821693909317928390556002805482169285169290921790915560038054909116919092161790556106c2806100886000396000f3006080604052600436106100485763ffffffff60e060020a600035041663636a8bd7811461004d5780638f4c4ea11461007e578063a9d02ed2146100a4578063bc406206146100c8575b600080fd5b34801561005957600080fd5b506100626100dd565b60408051600160a060020a039092168252519081900360200190f35b34801561008a57600080fd5b506100a2600160a060020a03600435166024356100ec565b005b3480156100b057600080fd5b506100a2600160a060020a0360043516602435610418565b3480156100d457600080fd5b50610062610687565b600154600160a060020a031681565b8173__AOLibrary_____________________________632fca5414826040518263ffffffff1660e060020a0281526004018082600160a060020a0316600160a060020a0316815260200191505060206040518083038186803b15801561015157600080fd5b505af4158015610165573d6000803e3d6000fd5b505050506040513d602081101561017b57600080fd5b5051151561018857600080fd5b6002546040805160e060020a63029b7d530281523360048201529051600092600160a060020a03169163029b7d5391602480830192602092919082900301818787803b1580156101d757600080fd5b505af11580156101eb573d6000803e3d6000fd5b505050506040513d602081101561020157600080fd5b5051600160a060020a0316141561021757600080fd5b8280600160a060020a031663cf3090126040518163ffffffff1660e060020a028152600401602060405180830381600087803b15801561025657600080fd5b505af115801561026a573d6000803e3d6000fd5b505050506040513d602081101561028057600080fd5b50511580156102f6575080600160a060020a031663597e1fb56040518163ffffffff1660e060020a028152600401602060405180830381600087803b1580156102c857600080fd5b505af11580156102dc573d6000803e3d6000fd5b505050506040513d60208110156102f257600080fd5b5051155b151561030157600080fd5b6003546002546040805160e060020a63029b7d530281523360048201529051600160a060020a039384169363bf6eac2f93169163029b7d539160248083019260209291908290030181600087803b15801561035b57600080fd5b505af115801561036f573d6000803e3d6000fd5b505050506040513d602081101561038557600080fd5b50516040805160e060020a63ffffffff8516028152600160a060020a0392831660048201529188166024830152604482018790525160648083019260209291908290030181600087803b1580156103db57600080fd5b505af11580156103ef573d6000803e3d6000fd5b505050506040513d602081101561040557600080fd5b5051151561041257600080fd5b50505050565b8173__AOLibrary_____________________________632fca5414826040518263ffffffff1660e060020a0281526004018082600160a060020a0316600160a060020a0316815260200191505060206040518083038186803b15801561047d57600080fd5b505af4158015610491573d6000803e3d6000fd5b505050506040513d60208110156104a757600080fd5b505115156104b457600080fd5b6002546040805160e060020a63029b7d530281523360048201529051600092600160a060020a03169163029b7d5391602480830192602092919082900301818787803b15801561050357600080fd5b505af1158015610517573d6000803e3d6000fd5b505050506040513d602081101561052d57600080fd5b5051600160a060020a0316141561054357600080fd5b8280600160a060020a031663cf3090126040518163ffffffff1660e060020a028152600401602060405180830381600087803b15801561058257600080fd5b505af1158015610596573d6000803e3d6000fd5b505050506040513d60208110156105ac57600080fd5b5051158015610622575080600160a060020a031663597e1fb56040518163ffffffff1660e060020a028152600401602060405180830381600087803b1580156105f457600080fd5b505af1158015610608573d6000803e3d6000fd5b505050506040513d602081101561061e57600080fd5b5051155b151561062d57600080fd5b6003546002546040805160e060020a63029b7d530281523360048201529051600160a060020a03938416936360829f8a93169163029b7d539160248083019260209291908290030181600087803b15801561035b57600080fd5b600054600160a060020a0316815600a165627a7a72305820209073ea116c57dbdb4f2501ed3a5f5008ea57c0ee61bc72216cde85589c12ed0029",
	"source": "pragma solidity ^0.4.24;\n\nimport './TAOController.sol';\n\n/**\n * @title TAOPosition\n *\n * The purpose of this contract is for Name to stake/unstake Position on a TAO\n */\ncontract TAOPosition is TAOController {\n\t/**\n\t * @dev Constructor function\n\t */\n\tconstructor(address _nameFactoryAddress, address _positionAddress)\n\t\tTAOController(_nameFactoryAddress, _positionAddress) public {}\n\n\t/**\n\t * @dev Check if TAO is not locked and closed\n\t */\n\tmodifier isActiveTAO(address _taoId) {\n\t\trequire (TAO(_taoId).locked() == false && TAO(_taoId).closed() == false);\n\t\t_;\n\t}\n\n\t/**\n\t * @dev Name stakes Position on a TAO\n\t * @param _taoId The ID of the TAO\n\t * @param _positionAmount The amount of Position to stake\n\t */\n\tfunction stakePosition(address _taoId, uint256 _positionAmount) public isTAO(_taoId) senderIsName() isActiveTAO(_taoId) {\n\t\trequire (_position.stake(_nameFactory.ethAddressToNameId(msg.sender), _taoId, _positionAmount));\n\t}\n\n\t/**\n\t * @dev Name unstakes Position on a TAO\n\t * @param _taoId The ID of the TAO\n\t * @param _positionAmount The amount of Position to unstake\n\t */\n\tfunction unstakePosition(address _taoId, uint256 _positionAmount) public isTAO(_taoId) senderIsName() isActiveTAO(_taoId) {\n\t\trequire (_position.unstake(_nameFactory.ethAddressToNameId(msg.sender), _taoId, _positionAmount));\n\t}\n}\n",
	"sourcePath": "/Users/neilharlow/development/ao-contracts/contracts/TAOPosition.sol",
	"compiler": {
		"name": "solc",
		"version": "0.4.24+commit.e67f0147.Emscripten.clang"
	},
	"schemaVersion": "2.0.1",
	"updatedAt": "2019-01-07T19:52:25.506Z"
}