{
  "contractName": "TAOPool",
  "abi": [
    {
      "constant": false,
      "inputs": [
        {
          "name": "_nameAccountRecoveryAddress",
          "type": "address"
        }
      ],
      "name": "setNameAccountRecoveryAddress",
      "outputs": [],
      "payable": false,
      "stateMutability": "nonpayable",
      "type": "function"
    },
    {
      "constant": true,
      "inputs": [
        {
          "name": "",
          "type": "address"
        }
      ],
      "name": "totalEthosStaked",
      "outputs": [
        {
          "name": "",
          "type": "uint256"
        }
      ],
      "payable": false,
      "stateMutability": "view",
      "type": "function"
    },
    {
      "constant": true,
      "inputs": [
        {
          "name": "",
          "type": "address"
        }
      ],
      "name": "poolTotalLogosWithdrawn",
      "outputs": [
        {
          "name": "",
          "type": "uint256"
        }
      ],
      "payable": false,
      "stateMutability": "view",
      "type": "function"
    },
    {
      "constant": true,
      "inputs": [],
      "name": "logosAddress",
      "outputs": [
        {
          "name": "",
          "type": "address"
        }
      ],
      "payable": false,
      "stateMutability": "view",
      "type": "function"
    },
    {
      "constant": true,
      "inputs": [
        {
          "name": "",
          "type": "address"
        }
      ],
      "name": "poolTotalLot",
      "outputs": [
        {
          "name": "",
          "type": "uint256"
        }
      ],
      "payable": false,
      "stateMutability": "view",
      "type": "function"
    },
    {
      "constant": true,
      "inputs": [],
      "name": "pathosAddress",
      "outputs": [
        {
          "name": "",
          "type": "address"
        }
      ],
      "payable": false,
      "stateMutability": "view",
      "type": "function"
    },
    {
      "constant": true,
      "inputs": [],
      "name": "nameTAOPositionAddress",
      "outputs": [
        {
          "name": "",
          "type": "address"
        }
      ],
      "payable": false,
      "stateMutability": "view",
      "type": "function"
    },
    {
      "constant": true,
      "inputs": [],
      "name": "contractTotalLot",
      "outputs": [
        {
          "name": "",
          "type": "uint256"
        }
      ],
      "payable": false,
      "stateMutability": "view",
      "type": "function"
    },
    {
      "constant": false,
      "inputs": [
        {
          "name": "_account",
          "type": "address"
        },
        {
          "name": "_whitelist",
          "type": "bool"
        }
      ],
      "name": "setWhitelist",
      "outputs": [],
      "payable": false,
      "stateMutability": "nonpayable",
      "type": "function"
    },
    {
      "constant": true,
      "inputs": [
        {
          "name": "",
          "type": "address"
        }
      ],
      "name": "totalPathosStaked",
      "outputs": [
        {
          "name": "",
          "type": "uint256"
        }
      ],
      "payable": false,
      "stateMutability": "view",
      "type": "function"
    },
    {
      "constant": false,
      "inputs": [
        {
          "name": "_nameTAOPositionAddress",
          "type": "address"
        }
      ],
      "name": "setNameTAOPositionAddress",
      "outputs": [],
      "payable": false,
      "stateMutability": "nonpayable",
      "type": "function"
    },
    {
      "constant": true,
      "inputs": [],
      "name": "contractTotalEthos",
      "outputs": [
        {
          "name": "",
          "type": "uint256"
        }
      ],
      "payable": false,
      "stateMutability": "view",
      "type": "function"
    },
    {
      "constant": false,
      "inputs": [
        {
          "name": "_nameFactoryAddress",
          "type": "address"
        }
      ],
      "name": "setNameFactoryAddress",
      "outputs": [],
      "payable": false,
      "stateMutability": "nonpayable",
      "type": "function"
    },
    {
      "constant": true,
      "inputs": [],
      "name": "ethosAddress",
      "outputs": [
        {
          "name": "",
          "type": "address"
        }
      ],
      "payable": false,
      "stateMutability": "view",
      "type": "function"
    },
    {
      "constant": true,
      "inputs": [],
      "name": "contractTotalLogosWithdrawn",
      "outputs": [
        {
          "name": "",
          "type": "uint256"
        }
      ],
      "payable": false,
      "stateMutability": "view",
      "type": "function"
    },
    {
      "constant": true,
      "inputs": [
        {
          "name": "",
          "type": "address"
        }
      ],
      "name": "whitelist",
      "outputs": [
        {
          "name": "",
          "type": "bool"
        }
      ],
      "payable": false,
      "stateMutability": "view",
      "type": "function"
    },
    {
      "constant": true,
      "inputs": [
        {
          "name": "",
          "type": "address"
        }
      ],
      "name": "pools",
      "outputs": [
        {
          "name": "taoId",
          "type": "address"
        },
        {
          "name": "ethosCapStatus",
          "type": "bool"
        },
        {
          "name": "ethosCapAmount",
          "type": "uint256"
        },
        {
          "name": "status",
          "type": "bool"
        }
      ],
      "payable": false,
      "stateMutability": "view",
      "type": "function"
    },
    {
      "constant": true,
      "inputs": [],
      "name": "nameAccountRecoveryAddress",
      "outputs": [
        {
          "name": "",
          "type": "address"
        }
      ],
      "payable": false,
      "stateMutability": "view",
      "type": "function"
    },
    {
      "constant": true,
      "inputs": [],
      "name": "theAO",
      "outputs": [
        {
          "name": "",
          "type": "address"
        }
      ],
      "payable": false,
      "stateMutability": "view",
      "type": "function"
    },
    {
      "constant": true,
      "inputs": [],
      "name": "nameFactoryAddress",
      "outputs": [
        {
          "name": "",
          "type": "address"
        }
      ],
      "payable": false,
      "stateMutability": "view",
      "type": "function"
    },
    {
      "constant": true,
      "inputs": [],
      "name": "contractTotalPathos",
      "outputs": [
        {
          "name": "",
          "type": "uint256"
        }
      ],
      "payable": false,
      "stateMutability": "view",
      "type": "function"
    },
    {
      "constant": true,
      "inputs": [
        {
          "name": "",
          "type": "bytes32"
        }
      ],
      "name": "lots",
      "outputs": [
        {
          "name": "lotId",
          "type": "bytes32"
        },
        {
          "name": "nameId",
          "type": "address"
        },
        {
          "name": "lotQuantity",
          "type": "uint256"
        },
        {
          "name": "taoId",
          "type": "address"
        },
        {
          "name": "poolPreStakeSnapshot",
          "type": "uint256"
        },
        {
          "name": "poolStakeLotSnapshot",
          "type": "uint256"
        },
        {
          "name": "lotValueInLogos",
          "type": "uint256"
        },
        {
          "name": "logosWithdrawn",
          "type": "uint256"
        },
        {
          "name": "timestamp",
          "type": "uint256"
        }
      ],
      "payable": false,
      "stateMutability": "view",
      "type": "function"
    },
    {
      "constant": false,
      "inputs": [
        {
          "name": "_theAO",
          "type": "address"
        }
      ],
      "name": "transferOwnership",
      "outputs": [],
      "payable": false,
      "stateMutability": "nonpayable",
      "type": "function"
    },
    {
      "constant": true,
      "inputs": [],
      "name": "taoFactoryAddress",
      "outputs": [
        {
          "name": "",
          "type": "address"
        }
      ],
      "payable": false,
      "stateMutability": "view",
      "type": "function"
    },
    {
      "inputs": [
        {
          "name": "_nameFactoryAddress",
          "type": "address"
        },
        {
          "name": "_taoFactoryAddress",
          "type": "address"
        },
        {
          "name": "_nameTAOPositionAddress",
          "type": "address"
        },
        {
          "name": "_pathosAddress",
          "type": "address"
        },
        {
          "name": "_ethosAddress",
          "type": "address"
        },
        {
          "name": "_logosAddress",
          "type": "address"
        }
      ],
      "payable": false,
      "stateMutability": "nonpayable",
      "type": "constructor"
    },
    {
      "anonymous": false,
      "inputs": [
        {
          "indexed": true,
          "name": "taoId",
          "type": "address"
        },
        {
          "indexed": false,
          "name": "ethosCapStatus",
          "type": "bool"
        },
        {
          "indexed": false,
          "name": "ethosCapAmount",
          "type": "uint256"
        },
        {
          "indexed": false,
          "name": "status",
          "type": "bool"
        }
      ],
      "name": "CreatePool",
      "type": "event"
    },
    {
      "anonymous": false,
      "inputs": [
        {
          "indexed": true,
          "name": "taoId",
          "type": "address"
        },
        {
          "indexed": false,
          "name": "status",
          "type": "bool"
        },
        {
          "indexed": false,
          "name": "nonce",
          "type": "uint256"
        }
      ],
      "name": "UpdatePoolStatus",
      "type": "event"
    },
    {
      "anonymous": false,
      "inputs": [
        {
          "indexed": true,
          "name": "taoId",
          "type": "address"
        },
        {
          "indexed": false,
          "name": "ethosCapStatus",
          "type": "bool"
        },
        {
          "indexed": false,
          "name": "ethosCapAmount",
          "type": "uint256"
        },
        {
          "indexed": false,
          "name": "nonce",
          "type": "uint256"
        }
      ],
      "name": "UpdatePoolEthosCap",
      "type": "event"
    },
    {
      "anonymous": false,
      "inputs": [
        {
          "indexed": true,
          "name": "taoId",
          "type": "address"
        },
        {
          "indexed": true,
          "name": "lotId",
          "type": "bytes32"
        },
        {
          "indexed": true,
          "name": "nameId",
          "type": "address"
        },
        {
          "indexed": false,
          "name": "lotQuantity",
          "type": "uint256"
        },
        {
          "indexed": false,
          "name": "poolPreStakeSnapshot",
          "type": "uint256"
        },
        {
          "indexed": false,
          "name": "poolStakeLotSnapshot",
          "type": "uint256"
        },
        {
          "indexed": false,
          "name": "lotValueInLogos",
          "type": "uint256"
        },
        {
          "indexed": false,
          "name": "timestamp",
          "type": "uint256"
        }
      ],
      "name": "StakeEthos",
      "type": "event"
    },
    {
      "anonymous": false,
      "inputs": [
        {
          "indexed": true,
          "name": "taoId",
          "type": "address"
        },
        {
          "indexed": true,
          "name": "nameId",
          "type": "address"
        },
        {
          "indexed": false,
          "name": "stakeQuantity",
          "type": "uint256"
        },
        {
          "indexed": false,
          "name": "currentPoolTotalStakedPathos",
          "type": "uint256"
        }
      ],
      "name": "StakePathos",
      "type": "event"
    },
    {
      "anonymous": false,
      "inputs": [
        {
          "indexed": true,
          "name": "nameId",
          "type": "address"
        },
        {
          "indexed": true,
          "name": "lotId",
          "type": "bytes32"
        },
        {
          "indexed": true,
          "name": "taoId",
          "type": "address"
        },
        {
          "indexed": false,
          "name": "withdrawnAmount",
          "type": "uint256"
        },
        {
          "indexed": false,
          "name": "currentLotValueInLogos",
          "type": "uint256"
        },
        {
          "indexed": false,
          "name": "currentLotLogosWithdrawn",
          "type": "uint256"
        }
      ],
      "name": "WithdrawLogos",
      "type": "event"
    },
    {
      "constant": false,
      "inputs": [
        {
          "name": "_taoFactoryAddress",
          "type": "address"
        }
      ],
      "name": "setTAOFactoryAddress",
      "outputs": [],
      "payable": false,
      "stateMutability": "nonpayable",
      "type": "function"
    },
    {
      "constant": false,
      "inputs": [
        {
          "name": "_pathosAddress",
          "type": "address"
        }
      ],
      "name": "setPathosAddress",
      "outputs": [],
      "payable": false,
      "stateMutability": "nonpayable",
      "type": "function"
    },
    {
      "constant": false,
      "inputs": [
        {
          "name": "_ethosAddress",
          "type": "address"
        }
      ],
      "name": "setEthosAddress",
      "outputs": [],
      "payable": false,
      "stateMutability": "nonpayable",
      "type": "function"
    },
    {
      "constant": false,
      "inputs": [
        {
          "name": "_logosAddress",
          "type": "address"
        }
      ],
      "name": "setLogosAddress",
      "outputs": [],
      "payable": false,
      "stateMutability": "nonpayable",
      "type": "function"
    },
    {
      "constant": true,
      "inputs": [
        {
          "name": "_id",
          "type": "address"
        }
      ],
      "name": "isExist",
      "outputs": [
        {
          "name": "",
          "type": "bool"
        }
      ],
      "payable": false,
      "stateMutability": "view",
      "type": "function"
    },
    {
      "constant": false,
      "inputs": [
        {
          "name": "_taoId",
          "type": "address"
        },
        {
          "name": "_ethosCapStatus",
          "type": "bool"
        },
        {
          "name": "_ethosCapAmount",
          "type": "uint256"
        }
      ],
      "name": "createPool",
      "outputs": [
        {
          "name": "",
          "type": "bool"
        }
      ],
      "payable": false,
      "stateMutability": "nonpayable",
      "type": "function"
    },
    {
      "constant": false,
      "inputs": [
        {
          "name": "_taoId",
          "type": "address"
        },
        {
          "name": "_status",
          "type": "bool"
        }
      ],
      "name": "updatePoolStatus",
      "outputs": [],
      "payable": false,
      "stateMutability": "nonpayable",
      "type": "function"
    },
    {
      "constant": false,
      "inputs": [
        {
          "name": "_taoId",
          "type": "address"
        },
        {
          "name": "_ethosCapStatus",
          "type": "bool"
        },
        {
          "name": "_ethosCapAmount",
          "type": "uint256"
        }
      ],
      "name": "updatePoolEthosCap",
      "outputs": [],
      "payable": false,
      "stateMutability": "nonpayable",
      "type": "function"
    },
    {
      "constant": false,
      "inputs": [
        {
          "name": "_taoId",
          "type": "address"
        },
        {
          "name": "_quantity",
          "type": "uint256"
        }
      ],
      "name": "stakeEthos",
      "outputs": [],
      "payable": false,
      "stateMutability": "nonpayable",
      "type": "function"
    },
    {
      "constant": true,
      "inputs": [
        {
          "name": "_nameId",
          "type": "address"
        }
      ],
      "name": "ownerTotalLot",
      "outputs": [
        {
          "name": "",
          "type": "uint256"
        }
      ],
      "payable": false,
      "stateMutability": "view",
      "type": "function"
    },
    {
      "constant": true,
      "inputs": [
        {
          "name": "_nameId",
          "type": "address"
        },
        {
          "name": "_from",
          "type": "uint256"
        },
        {
          "name": "_to",
          "type": "uint256"
        }
      ],
      "name": "ownerLotIds",
      "outputs": [
        {
          "name": "",
          "type": "bytes32[]"
        }
      ],
      "payable": false,
      "stateMutability": "view",
      "type": "function"
    },
    {
      "constant": true,
      "inputs": [
        {
          "name": "_taoId",
          "type": "address"
        }
      ],
      "name": "availablePathosToStake",
      "outputs": [
        {
          "name": "",
          "type": "uint256"
        }
      ],
      "payable": false,
      "stateMutability": "view",
      "type": "function"
    },
    {
      "constant": false,
      "inputs": [
        {
          "name": "_taoId",
          "type": "address"
        },
        {
          "name": "_quantity",
          "type": "uint256"
        }
      ],
      "name": "stakePathos",
      "outputs": [],
      "payable": false,
      "stateMutability": "nonpayable",
      "type": "function"
    },
    {
      "constant": false,
      "inputs": [
        {
          "name": "_lotId",
          "type": "bytes32"
        }
      ],
      "name": "withdrawLogos",
      "outputs": [],
      "payable": false,
      "stateMutability": "nonpayable",
      "type": "function"
    },
    {
      "constant": true,
      "inputs": [
        {
          "name": "_lotId",
          "type": "bytes32"
        }
      ],
      "name": "lotLogosAvailableToWithdraw",
      "outputs": [
        {
          "name": "",
          "type": "uint256"
        }
      ],
      "payable": false,
      "stateMutability": "view",
      "type": "function"
    }
  ],
  "bytecode": "0x60806040523480156200001157600080fd5b5060405160c080620038d6833981018060405260c08110156200003357600080fd5b50805160208083015160408401516060850151608086015160a090960151600080546001600160a01b0319163317905594959294919390929190869062000080908290620000e2811b901c565b506200009285620001e360201b60201c565b620000a384620002e460201b60201c565b620000b483620003e560201b60201c565b620000c582620004e660201b60201c565b620000d681620005e760201b60201c565b505050505050620006e8565b600054600154604080517ff66afcac0000000000000000000000000000000000000000000000000000000081523360048201526001600160a01b0393841660248201529290911660448301525173__AOLibrary_____________________________9163f66afcac916064808301926020929190829003018186803b1580156200016b57600080fd5b505af415801562000180573d6000803e3d6000fd5b505050506040513d60208110156200019757600080fd5b5051620001a357600080fd5b6001600160a01b038116620001b757600080fd5b600380546001600160a01b039092166001600160a01b0319928316811790915560058054909216179055565b600054600154604080517ff66afcac0000000000000000000000000000000000000000000000000000000081523360048201526001600160a01b0393841660248201529290911660448301525173__AOLibrary_____________________________9163f66afcac916064808301926020929190829003018186803b1580156200026c57600080fd5b505af415801562000281573d6000803e3d6000fd5b505050506040513d60208110156200029857600080fd5b5051620002a457600080fd5b6001600160a01b038116620002b857600080fd5b600880546001600160a01b039092166001600160a01b03199283168117909155600c8054909216179055565b600054600154604080517ff66afcac0000000000000000000000000000000000000000000000000000000081523360048201526001600160a01b0393841660248201529290911660448301525173__AOLibrary_____________________________9163f66afcac916064808301926020929190829003018186803b1580156200036d57600080fd5b505af415801562000382573d6000803e3d6000fd5b505050506040513d60208110156200039957600080fd5b5051620003a557600080fd5b6001600160a01b038116620003b957600080fd5b600180546001600160a01b039092166001600160a01b0319928316811790915560068054909216179055565b600054600154604080517ff66afcac0000000000000000000000000000000000000000000000000000000081523360048201526001600160a01b0393841660248201529290911660448301525173__AOLibrary_____________________________9163f66afcac916064808301926020929190829003018186803b1580156200046e57600080fd5b505af415801562000483573d6000803e3d6000fd5b505050506040513d60208110156200049a57600080fd5b5051620004a657600080fd5b6001600160a01b038116620004ba57600080fd5b600980546001600160a01b039092166001600160a01b03199283168117909155600d8054909216179055565b600054600154604080517ff66afcac0000000000000000000000000000000000000000000000000000000081523360048201526001600160a01b0393841660248201529290911660448301525173__AOLibrary_____________________________9163f66afcac916064808301926020929190829003018186803b1580156200056f57600080fd5b505af415801562000584573d6000803e3d6000fd5b505050506040513d60208110156200059b57600080fd5b5051620005a757600080fd5b6001600160a01b038116620005bb57600080fd5b600a80546001600160a01b039092166001600160a01b03199283168117909155600e8054909216179055565b600054600154604080517ff66afcac0000000000000000000000000000000000000000000000000000000081523360048201526001600160a01b0393841660248201529290911660448301525173__AOLibrary_____________________________9163f66afcac916064808301926020929190829003018186803b1580156200067057600080fd5b505af415801562000685573d6000803e3d6000fd5b505050506040513d60208110156200069c57600080fd5b5051620006a857600080fd5b6001600160a01b038116620006bc57600080fd5b600b80546001600160a01b039092166001600160a01b03199283168117909155600f8054909216179055565b6131de80620006f86000396000f3fe608060405234801561001057600080fd5b506004361061023c5760003560e01c8063698b77641161013b578063a9b6b38e116100b8578063f2fde38b1161007c578063f2fde38b146106e6578063f68d8f5a1461070c578063f838955a14610738578063ff0374b5146107ba578063ff3781c6146107c25761023c565b8063a9b6b38e1461063e578063bc40620614610646578063c6185ae11461064e578063de4796cd14610656578063e3fcd930146106c95761023c565b806395c13f0a116100ff57806395c13f0a1461058a57806398334461146105925780639b19251a146105b8578063a4063dbc146105de578063a4e5fad2146106365761023c565b8063698b7764146104fa578063793c82281461052e5780638bce77f3146105545780638c9243611461055c5780639093a790146105825761023c565b806334172c9e116101c957806350159a9e1161018d57806350159a9e1461045257806353d6fd591461045a5780635baf6a47146104885780635cfaf2ef146104ae5780635d813eb4146104d45761023c565b806334172c9e146103ca57806338da7de7146103f85780633a10617d1461041c5780634486ab0a146104425780634ef033f01461044a5761023c565b806324d723171161021057806324d72317146102ef57806328d313b51461031b5780632f4f6bc4146103535780632fbb76951461038757806332232636146103a45761023c565b806213eb4b146102415780631add5b981461027b5780631dfde2bd146102a35780632191207a146102c9575b600080fd5b6102676004803603602081101561025757600080fd5b50356001600160a01b03166107e8565b604080519115158252519081900360200190f35b6102a16004803603602081101561029157600080fd5b50356001600160a01b0316610808565b005b6102a1600480360360208110156102b957600080fd5b50356001600160a01b03166108ee565b6102a1600480360360208110156102df57600080fd5b50356001600160a01b03166109d7565b6102a16004803603604081101561030557600080fd5b506001600160a01b038135169060200135610abd565b6103416004803603602081101561033157600080fd5b50356001600160a01b03166110a6565b60408051918252519081900360200190f35b6102a16004803603606081101561036957600080fd5b506001600160a01b03813516906020810135151590604001356110b8565b6103416004803603602081101561039d57600080fd5b50356114d1565b610341600480360360208110156103ba57600080fd5b50356001600160a01b031661175d565b6102a1600480360360408110156103e057600080fd5b506001600160a01b038135169060200135151561176f565b610400611aa3565b604080516001600160a01b039092168252519081900360200190f35b6103416004803603602081101561043257600080fd5b50356001600160a01b0316611ab2565b610400611ac4565b610400611ad3565b610341611ae2565b6102a16004803603604081101561047057600080fd5b506001600160a01b0381351690602001351515611ae8565b6103416004803603602081101561049e57600080fd5b50356001600160a01b0316611bcd565b6102a1600480360360208110156104c457600080fd5b50356001600160a01b0316611bdf565b610341600480360360208110156104ea57600080fd5b50356001600160a01b0316611cc5565b6102676004803603606081101561051057600080fd5b506001600160a01b0381351690602081013515159060400135611ce0565b6102a16004803603602081101561054457600080fd5b50356001600160a01b0316611e9e565b610341611f84565b6102a16004803603602081101561057257600080fd5b50356001600160a01b0316611f8a565b610400612070565b61034161207f565b610341600480360360208110156105a857600080fd5b50356001600160a01b0316612085565b610267600480360360208110156105ce57600080fd5b50356001600160a01b031661222a565b610604600480360360208110156105f457600080fd5b50356001600160a01b031661223f565b604080516001600160a01b03909516855292151560208501528383019190915215156060830152519081900360800190f35b610400612278565b610400612287565b610400612296565b6103416122a5565b6106736004803603602081101561066c57600080fd5b50356122ab565b60408051998a526001600160a01b0398891660208b015289810197909752949096166060880152608087019290925260a086015260c085015260e084019290925261010083019190915251908190036101200190f35b6102a1600480360360208110156106df57600080fd5b5035612302565b6102a1600480360360208110156106fc57600080fd5b50356001600160a01b03166126f3565b6102a16004803603604081101561072257600080fd5b506001600160a01b0381351690602001356127cf565b61076a6004803603606081101561074e57600080fd5b506001600160a01b038135169060208101359060400135612f1f565b60408051602080825283518183015283519192839290830191858101910280838360005b838110156107a657818101518382015260200161078e565b505050509050019250505060405180910390f35b610400613010565b6102a1600480360360208110156107d857600080fd5b50356001600160a01b031661301f565b6001600160a01b0390811660009081526014602052604090205416151590565b60005460015460408051600160e21b633d9abf2b0281523360048201526001600160a01b0393841660248201529290911660448301525173__AOLibrary_____________________________9163f66afcac916064808301926020929190829003018186803b15801561087a57600080fd5b505af415801561088e573d6000803e3d6000fd5b505050506040513d60208110156108a457600080fd5b50516108af57600080fd5b6001600160a01b0381166108c257600080fd5b600a80546001600160a01b039092166001600160a01b03199283168117909155600e8054909216179055565b60005460015460408051600160e21b633d9abf2b0281523360048201526001600160a01b0393841660248201529290911660448301525173__AOLibrary_____________________________9163f66afcac916064808301926020929190829003018186803b15801561096057600080fd5b505af4158015610974573d6000803e3d6000fd5b505050506040513d602081101561098a57600080fd5b505161099557600080fd5b6001600160a01b0381166109a857600080fd5b600480546001600160a01b03199081166001600160a01b03938416179182905560078054929093169116179055565b60005460015460408051600160e21b633d9abf2b0281523360048201526001600160a01b0393841660248201529290911660448301525173__AOLibrary_____________________________9163f66afcac916064808301926020929190829003018186803b158015610a4957600080fd5b505af4158015610a5d573d6000803e3d6000fd5b505050506040513d6020811015610a7357600080fd5b5051610a7e57600080fd5b6001600160a01b038116610a9157600080fd5b600880546001600160a01b039092166001600160a01b03199283168117909155600c8054909216179055565b8173__AOLibrary_____________________________632fca5414826040518263ffffffff1660e01b815260040180826001600160a01b03166001600160a01b0316815260200191505060206040518083038186803b158015610b1f57600080fd5b505af4158015610b33573d6000803e3d6000fd5b505050506040513d6020811015610b4957600080fd5b5051610b5457600080fd5b60055460408051600160e01b63029b7d5302815233600482015290516000926001600160a01b03169163029b7d53916024808301926020929190829003018186803b158015610ba257600080fd5b505afa158015610bb6573d6000803e3d6000fd5b505050506040513d6020811015610bcc57600080fd5b50516001600160a01b03161415610be257600080fd5b60075460055460408051600160e01b63029b7d5302815233600482015290516001600160a01b0393841693633ebc2ab393169163029b7d53916024808301926020929190829003018186803b158015610c3a57600080fd5b505afa158015610c4e573d6000803e3d6000fd5b505050506040513d6020811015610c6457600080fd5b50516040805163ffffffff841660e01b81526001600160a01b039092166004830152516024808301926020929190829003018186803b158015610ca657600080fd5b505afa158015610cba573d6000803e3d6000fd5b505050506040513d6020811015610cd057600080fd5b505115610cdc57600080fd5b610ce461312a565b506001600160a01b03808416600090815260146020908152604080832081516080810183528154808716825260ff600160a01b9091048116151582860152600183015482850152600290920154909116151560608201526005548251600160e01b63029b7d5302815233600482015292519195169263029b7d539260248082019391829003018186803b158015610d7a57600080fd5b505afa158015610d8e573d6000803e3d6000fd5b505050506040513d6020811015610da457600080fd5b5051606083015190915015156001148015610dbf5750600084115b8015610e485750600d5460408051600160e01b6370a082310281526001600160a01b0384811660048301529151879392909216916370a0823191602480820192602092909190829003018186803b158015610e1957600080fd5b505afa158015610e2d573d6000803e3d6000fd5b505050506040513d6020811015610e4357600080fd5b505110155b8015610e5c5750610e5885612085565b8411155b610e6557600080fd5b6001600160a01b0381166000908152601a6020526040902054610e8e908563ffffffff61310516565b6001600160a01b0382166000908152601a6020526040902055601254610eba908563ffffffff61310516565b601255600d5460408051600160e01b6323b872dd0281526001600160a01b038481166004830152888116602483015260448201889052915191909216916323b872dd9160648083019260209291908290030181600087803b158015610f1e57600080fd5b505af1158015610f32573d6000803e3d6000fd5b505050506040513d6020811015610f4857600080fd5b5051610f5357600080fd5b600f5460408051600160e01b6397fe5ea30281526001600160a01b03888116600483015260248201889052915191909216916397fe5ea39160448083019260209291908290030181600087803b158015610fac57600080fd5b505af1158015610fc0573d6000803e3d6000fd5b505050506040513d6020811015610fd657600080fd5b5051610fe157600080fd5b600d5460408051600160e01b6370a082310281526001600160a01b03888116600483018190529251858216947fad55db0d41c96097ea516af16ed6458bb2b54fdf95347b6108c0822c0442b1ba938a93909116916370a0823191602480820192602092909190829003018186803b15801561105b57600080fd5b505afa15801561106f573d6000803e3d6000fd5b505050506040513d602081101561108557600080fd5b50516040805192835260208301919091528051918290030190a35050505050565b60196020526000908152604090205481565b8273__AOLibrary_____________________________632fca5414826040518263ffffffff1660e01b815260040180826001600160a01b03166001600160a01b0316815260200191505060206040518083038186803b15801561111a57600080fd5b505af415801561112e573d6000803e3d6000fd5b505050506040513d602081101561114457600080fd5b505161114f57600080fd5b60065460408051600160e01b6371ce52ed0281523360048201526001600160a01b0380881660248301529151879392909216916371ce52ed91604480820192602092909190829003018186803b1580156111a857600080fd5b505afa1580156111bc573d6000803e3d6000fd5b505050506040513d60208110156111d257600080fd5b50516111dd57600080fd5b60075460055460408051600160e01b63029b7d5302815233600482015290516001600160a01b0393841693633ebc2ab393169163029b7d53916024808301926020929190829003018186803b15801561123557600080fd5b505afa158015611249573d6000803e3d6000fd5b505050506040513d602081101561125f57600080fd5b50516040805163ffffffff841660e01b81526001600160a01b039092166004830152516024808301926020929190829003018186803b1580156112a157600080fd5b505afa1580156112b5573d6000803e3d6000fd5b505050506040513d60208110156112cb57600080fd5b5051156112d757600080fd5b6001600160a01b03858116600090815260146020526040902054166112fb57600080fd5b83156113945760008311801561138b5750600d5460408051600160e01b6370a082310281526001600160a01b038881166004830152915191909216916370a08231916024808301926020929190829003018186803b15801561135c57600080fd5b505afa158015611370573d6000803e3d6000fd5b505050506040513d602081101561138657600080fd5b505183115b61139457600080fd5b6001600160a01b0385166000908152601460205260409020805485158015600160a01b02600160a01b60ff0219909216919091179091556113ee576001600160a01b03851660009081526014602052604090206001018390555b600c5460408051600160e21b633d5d0f130281526001600160a01b0388811660048301529151600093929092169163f5743c4c9160248082019260209290919082900301818787803b15801561144357600080fd5b505af1158015611457573d6000803e3d6000fd5b505050506040513d602081101561146d57600080fd5b505190508061147b57600080fd5b6040805186151581526020810186905280820183905290516001600160a01b038816917f710a196358986b34ff7b89eb2ca10d88508cb3f52d8392a2f595722804cc1325919081900360600190a2505050505050565b60006114db613151565b506000828152601560209081526040918290208251610120810184528154815260018201546001600160a01b039081169382018490526002830154948201949094526003820154909316606084015260048101546080840152600581015460a0840152600681015460c0840152600781015460e08401526008015461010083015261156557600080fd5b6080810151600d54606083015160408051600160e01b6370a082310281526001600160a01b03928316600482015290516000949392909216916370a0823191602480820192602092909190829003018186803b1580156115c457600080fd5b505afa1580156115d8573d6000803e3d6000fd5b505050506040513d60208110156115ee57600080fd5b5051118015611601575060008260c00151115b156117565760a0820151600d54606084015160408051600160e01b6370a082310281526001600160a01b039283166004820152905191909216916370a08231916024808301926020929190829003018186803b15801561166057600080fd5b505afa158015611674573d6000803e3d6000fd5b505050506040513d602081101561168a57600080fd5b5051101561172f576080820151600d54606084015160408051600160e01b6370a082310281526001600160a01b039283166004820152905161172a949392909216916370a0823191602480820192602092909190829003018186803b1580156116f257600080fd5b505afa158015611706573d6000803e3d6000fd5b505050506040513d602081101561171c57600080fd5b50519063ffffffff61311816565b611735565b81604001515b905080156117565760e082015161175390829063ffffffff61311816565b90505b9392505050565b60176020526000908152604090205481565b8173__AOLibrary_____________________________632fca5414826040518263ffffffff1660e01b815260040180826001600160a01b03166001600160a01b0316815260200191505060206040518083038186803b1580156117d157600080fd5b505af41580156117e5573d6000803e3d6000fd5b505050506040513d60208110156117fb57600080fd5b505161180657600080fd5b60065460408051600160e01b6371ce52ed0281523360048201526001600160a01b0380871660248301529151869392909216916371ce52ed91604480820192602092909190829003018186803b15801561185f57600080fd5b505afa158015611873573d6000803e3d6000fd5b505050506040513d602081101561188957600080fd5b505161189457600080fd5b60075460055460408051600160e01b63029b7d5302815233600482015290516001600160a01b0393841693633ebc2ab393169163029b7d53916024808301926020929190829003018186803b1580156118ec57600080fd5b505afa158015611900573d6000803e3d6000fd5b505050506040513d602081101561191657600080fd5b50516040805163ffffffff841660e01b81526001600160a01b039092166004830152516024808301926020929190829003018186803b15801561195857600080fd5b505afa15801561196c573d6000803e3d6000fd5b505050506040513d602081101561198257600080fd5b50511561198e57600080fd5b6001600160a01b03848116600090815260146020526040902054166119b257600080fd5b6001600160a01b038481166000818152601460209081526040808320600201805460ff1916891515179055600c548151600160e21b633d5d0f13028152600481019590955290519294169263f5743c4c926024808301939282900301818787803b158015611a1f57600080fd5b505af1158015611a33573d6000803e3d6000fd5b505050506040513d6020811015611a4957600080fd5b5051905080611a5757600080fd5b6040805185151581526020810183905281516001600160a01b038816927ff5f6f496ff95818da72c68de653328ef258d57133b8c64064a809a21df3b2d15928290030190a25050505050565b600b546001600160a01b031681565b60166020526000908152604090205481565b6009546001600160a01b031681565b6001546001600160a01b031681565b60105481565b60005460015460408051600160e21b633d9abf2b0281523360048201526001600160a01b0393841660248201529290911660448301525173__AOLibrary_____________________________9163f66afcac916064808301926020929190829003018186803b158015611b5a57600080fd5b505af4158015611b6e573d6000803e3d6000fd5b505050506040513d6020811015611b8457600080fd5b5051611b8f57600080fd5b6001600160a01b038216611ba257600080fd5b6001600160a01b03919091166000908152600260205260409020805460ff1916911515919091179055565b601a6020526000908152604090205481565b60005460015460408051600160e21b633d9abf2b0281523360048201526001600160a01b0393841660248201529290911660448301525173__AOLibrary_____________________________9163f66afcac916064808301926020929190829003018186803b158015611c5157600080fd5b505af4158015611c65573d6000803e3d6000fd5b505050506040513d6020811015611c7b57600080fd5b5051611c8657600080fd5b6001600160a01b038116611c9957600080fd5b600180546001600160a01b039092166001600160a01b0319928316811790915560068054909216179055565b6001600160a01b031660009081526018602052604090205490565b60008373__AOLibrary_____________________________632fca5414826040518263ffffffff1660e01b815260040180826001600160a01b03166001600160a01b0316815260200191505060206040518083038186803b158015611d4457600080fd5b505af4158015611d58573d6000803e3d6000fd5b505050506040513d6020811015611d6e57600080fd5b5051611d7957600080fd5b6008546001600160a01b03163314611d9057600080fd5b8315611da35760008311611da357600080fd5b6001600160a01b038581166000908152601460205260409020541615611dc857600080fd5b6001600160a01b03851660008181526014602052604090208054600282018054600160ff199091161790556001600160a01b031916909117600160a01b60ff021916600160a01b8615801591909102919091178255611e2957600181018490555b8054600182015460028301546040805160ff600160a01b860481161515825260208201949094529190921615158183015290516001600160a01b03909216917f2d333584a4195376719b161f274a701d7dbe5698253665deb3edc1c1e4b8c6bd9181900360600190a250600195945050505050565b60005460015460408051600160e21b633d9abf2b0281523360048201526001600160a01b0393841660248201529290911660448301525173__AOLibrary_____________________________9163f66afcac916064808301926020929190829003018186803b158015611f1057600080fd5b505af4158015611f24573d6000803e3d6000fd5b505050506040513d6020811015611f3a57600080fd5b5051611f4557600080fd5b6001600160a01b038116611f5857600080fd5b600980546001600160a01b039092166001600160a01b03199283168117909155600d8054909216179055565b60115481565b60005460015460408051600160e21b633d9abf2b0281523360048201526001600160a01b0393841660248201529290911660448301525173__AOLibrary_____________________________9163f66afcac916064808301926020929190829003018186803b158015611ffc57600080fd5b505af4158015612010573d6000803e3d6000fd5b505050506040513d602081101561202657600080fd5b505161203157600080fd5b6001600160a01b03811661204457600080fd5b600380546001600160a01b039092166001600160a01b0319928316811790915560058054909216179055565b600a546001600160a01b031681565b60135481565b60008173__AOLibrary_____________________________632fca5414826040518263ffffffff1660e01b815260040180826001600160a01b03166001600160a01b0316815260200191505060206040518083038186803b1580156120e957600080fd5b505af41580156120fd573d6000803e3d6000fd5b505050506040513d602081101561211357600080fd5b505161211e57600080fd5b6001600160a01b03831660009081526014602052604090206002015460ff1615156001141561221f57600d5460408051600160e01b6370a082310281526001600160a01b03868116600483015291516122189392909216916370a0823191602480820192602092909190829003018186803b15801561219c57600080fd5b505afa1580156121b0573d6000803e3d6000fd5b505050506040513d60208110156121c657600080fd5b5051600e5460408051600160e01b6370a082310281526001600160a01b038881166004830152915191909216916370a08231916024808301926020929190829003018186803b1580156116f257600080fd5b9150612224565b600091505b50919050565b60026020526000908152604090205460ff1681565b6014602052600090815260409020805460018201546002909201546001600160a01b0382169260ff600160a01b90930483169290911684565b6004546001600160a01b031681565b6000546001600160a01b031681565b6003546001600160a01b031681565b60125481565b60156020526000908152604090208054600182015460028301546003840154600485015460058601546006870154600788015460089098015496976001600160a01b03968716979596909416949293919290919089565b60055460408051600160e01b63029b7d5302815233600482015290516000926001600160a01b03169163029b7d53916024808301926020929190829003018186803b15801561235057600080fd5b505afa158015612364573d6000803e3d6000fd5b505050506040513d602081101561237a57600080fd5b50516001600160a01b0316141561239057600080fd5b60075460055460408051600160e01b63029b7d5302815233600482015290516001600160a01b0393841693633ebc2ab393169163029b7d53916024808301926020929190829003018186803b1580156123e857600080fd5b505afa1580156123fc573d6000803e3d6000fd5b505050506040513d602081101561241257600080fd5b50516040805163ffffffff841660e01b81526001600160a01b039092166004830152516024808301926020929190829003018186803b15801561245457600080fd5b505afa158015612468573d6000803e3d6000fd5b505050506040513d602081101561247e57600080fd5b50511561248a57600080fd5b60008181526015602090815260408083206005548251600160e01b63029b7d5302815233600482015292519194936001600160a01b039091169263029b7d539260248083019392829003018186803b1580156124e557600080fd5b505afa1580156124f9573d6000803e3d6000fd5b505050506040513d602081101561250f57600080fd5b505160018301549091506001600160a01b038083169116148015612537575060008260060154115b61254057600080fd5b600061254b846114d1565b9050600081118015612561575082600601548111155b61256a57600080fd5b600783015461257f908263ffffffff61310516565b60078401556006830154612599908263ffffffff61311816565b60068401556013546125b1908263ffffffff61310516565b60135560038301546001600160a01b03166000908152601760205260409020546125e1908263ffffffff61310516565b60038401546001600160a01b03908116600090815260176020908152604080832094909455600f548451600160e01b6340c10f1902815287851660048201526024810187905294519316936340c10f199360448083019491928390030190829087803b15801561265057600080fd5b505af1158015612664573d6000803e3d6000fd5b505050506040513d602081101561267a57600080fd5b505161268557600080fd5b6003830154835460018501546006860154600787015460408051878152602081019390935282810191909152516001600160a01b039485169492909216917fb0d51de1a22d42472f71d0eae171c27ae2e8fc84aaf70008c7a57857ae0a079d9181900360600190a450505050565b60005460015460408051600160e21b633d9abf2b0281523360048201526001600160a01b0393841660248201529290911660448301525173__AOLibrary_____________________________9163f66afcac916064808301926020929190829003018186803b15801561276557600080fd5b505af4158015612779573d6000803e3d6000fd5b505050506040513d602081101561278f57600080fd5b505161279a57600080fd5b6001600160a01b0381166127ad57600080fd5b600080546001600160a01b0319166001600160a01b0392909216919091179055565b8173__AOLibrary_____________________________632fca5414826040518263ffffffff1660e01b815260040180826001600160a01b03166001600160a01b0316815260200191505060206040518083038186803b15801561283157600080fd5b505af4158015612845573d6000803e3d6000fd5b505050506040513d602081101561285b57600080fd5b505161286657600080fd5b60055460408051600160e01b63029b7d5302815233600482015290516000926001600160a01b03169163029b7d53916024808301926020929190829003018186803b1580156128b457600080fd5b505afa1580156128c8573d6000803e3d6000fd5b505050506040513d60208110156128de57600080fd5b50516001600160a01b031614156128f457600080fd5b60075460055460408051600160e01b63029b7d5302815233600482015290516001600160a01b0393841693633ebc2ab393169163029b7d53916024808301926020929190829003018186803b15801561294c57600080fd5b505afa158015612960573d6000803e3d6000fd5b505050506040513d602081101561297657600080fd5b50516040805163ffffffff841660e01b81526001600160a01b039092166004830152516024808301926020929190829003018186803b1580156129b857600080fd5b505afa1580156129cc573d6000803e3d6000fd5b505050506040513d60208110156129e257600080fd5b5051156129ee57600080fd5b6129f661312a565b506001600160a01b03808416600090815260146020908152604080832081516080810183528154808716825260ff600160a01b9091048116151582860152600183015482850152600290920154909116151560608201526005548251600160e01b63029b7d5302815233600482015292519195169263029b7d539260248082019391829003018186803b158015612a8c57600080fd5b505afa158015612aa0573d6000803e3d6000fd5b505050506040513d6020811015612ab657600080fd5b5051606083015190915015156001148015612ad15750600084115b8015612b5a5750600e5460408051600160e01b6370a082310281526001600160a01b0384811660048301529151879392909216916370a0823191602480820192602092909190829003018186803b158015612b2b57600080fd5b505afa158015612b3f573d6000803e3d6000fd5b505050506040513d6020811015612b5557600080fd5b505110155b612b6357600080fd5b816020015115612c0c57604080830151600e548251600160e01b6370a082310281526001600160a01b03898116600483015293519293612c0193899391909116916370a08231916024808301926020929190829003018186803b158015612bc957600080fd5b505afa158015612bdd573d6000803e3d6000fd5b505050506040513d6020811015612bf357600080fd5b50519063ffffffff61310516565b1115612c0c57600080fd5b60108054600190810182556001600160a01b0380881660008181526016602090815260408083208054870190559554865130606090811b8285015233901b60348201526048808201929092528751808203909201825260688101808952825192840192909220808552601584529388902084815596870180548a88166001600160a01b031991821617909155600288018d905560038801805490911686179055600e54600160e01b6370a0823102909252606c81019490945295519195909316926370a0823192608c8082019391829003018186803b158015612cee57600080fd5b505afa158015612d02573d6000803e3d6000fd5b505050506040513d6020811015612d1857600080fd5b5051600480830191909155600e5460408051600160e01b6370a082310281526001600160a01b038b8116948201949094529051612d78938a9316916370a08231916024808301926020929190829003018186803b158015612bc957600080fd5b6005820155600681018690554260088201556001600160a01b0383166000818152601860209081526040808320805460018101825590845282842001869055928252601990522054612dd0908763ffffffff61310516565b6001600160a01b038416600090815260196020526040902055601154612dfc908763ffffffff61310516565b601155600e5460408051600160e01b6323b872dd0281526001600160a01b0386811660048301528a81166024830152604482018a9052915191909216916323b872dd9160648083019260209291908290030181600087803b158015612e6057600080fd5b505af1158015612e74573d6000803e3d6000fd5b505050506040513d6020811015612e8a57600080fd5b5051612e9557600080fd5b600181015481546003830154600284015460048501546005860154600687015460088801546040805195865260208601949094528484019290925260608401526080830152516001600160a01b039485169492909216917f649ebc3a713a736fd86489f7362fff3bb4099403c0f6de86bd7d409aeb9808389181900360a00190a450505050505050565b6060828210158015612f4857506001600160a01b03841660009081526018602052604090205482105b612f5157600080fd5b6060612f746001612f68858763ffffffff61311816565b9063ffffffff61310516565b604051908082528060200260200182016040528015612f9d578160200160208202803883390190505b509050835b838111613007576001600160a01b0386166000908152601860205260409020805482908110612fcd57fe5b60009182526020909120015482612fea838863ffffffff61311816565b81518110612ff457fe5b6020908102919091010152600101612fa2565b50949350505050565b6008546001600160a01b031681565b60005460015460408051600160e21b633d9abf2b0281523360048201526001600160a01b0393841660248201529290911660448301525173__AOLibrary_____________________________9163f66afcac916064808301926020929190829003018186803b15801561309157600080fd5b505af41580156130a5573d6000803e3d6000fd5b505050506040513d60208110156130bb57600080fd5b50516130c657600080fd5b6001600160a01b0381166130d957600080fd5b600b80546001600160a01b039092166001600160a01b03199283168117909155600f8054909216179055565b8181018281101561311257fe5b92915050565b60008282111561312457fe5b50900390565b60408051608081018252600080825260208201819052918101829052606081019190915290565b6040518061012001604052806000801916815260200160006001600160a01b031681526020016000815260200160006001600160a01b031681526020016000815260200160008152602001600081526020016000815260200160008152509056fea165627a7a72305820a61ca46e74fc69ef4b28abe240ad89240a0a0b70bbe9693442919082efce7b610029",
  "source": "pragma solidity >=0.5.4 <0.6.0;\n\nimport './SafeMath.sol';\nimport './TAOController.sol';\nimport './ITAOPool.sol';\nimport './ITAOFactory.sol';\nimport './TAOCurrency.sol';\nimport './Logos.sol';\nimport './TAO.sol';\n\n/**\n * @title TAOPool\n *\n * This contract acts as the bookkeeper of TAO Currencies that are staked on TAO\n */\ncontract TAOPool is TAOController, ITAOPool {\n\tusing SafeMath for uint256;\n\n\taddress public taoFactoryAddress;\n\taddress public pathosAddress;\n\taddress public ethosAddress;\n\taddress public logosAddress;\n\n\tITAOFactory internal _taoFactory;\n\tTAOCurrency internal _pathos;\n\tTAOCurrency internal _ethos;\n\tLogos internal _logos;\n\n\tstruct Pool {\n\t\taddress taoId;\n\t\t/**\n\t\t * If true, has ethos cap. Otherwise, no ethos cap.\n\t\t */\n\t\tbool ethosCapStatus;\n\t\tuint256 ethosCapAmount;\t// Creates a cap for the amount of Ethos that can be staked into this pool\n\n\t\t/**\n\t\t * If true, Pool is live and can be staked into.\n\t\t */\n\t\tbool status;\n\t}\n\n\tstruct Lot {\n\t\tbytes32 lotId;\t\t\t\t\t\t// The ID of this Lot\n\t\taddress nameId;\t\t\t\t\t\t// The ID of the Name that staked Ethos\n\t\tuint256 lotQuantity;\t\t\t\t// Amount of Ethos being staked to the Pool from this Lot\n\t\taddress taoId;\t\t\t\t\t\t// Identifier for the Pool this Lot is adding to\n\t\tuint256 poolPreStakeSnapshot;\t\t// Amount of Ethos contributed to the Pool prior to this Lot Number\n\t\tuint256 poolStakeLotSnapshot;\t\t// poolPreStakeSnapshot + lotQuantity - logosWithdrawn\n\t\tuint256 lotValueInLogos;\n\t\tuint256 logosWithdrawn;\t\t\t\t// Amount of Logos withdrawn from this Lot\n\t\tuint256 timestamp;\n\t}\n\n\tuint256 public contractTotalLot;\t\t// Total lot from all pools\n\tuint256 public contractTotalEthos;\t\t// Quantity of Ethos that has been staked to all Pools\n\tuint256 public contractTotalPathos;\t\t// Quantity of Pathos that has been staked to all Pools\n\tuint256 public contractTotalLogosWithdrawn;\t\t// Quantity of Logos that has been withdrawn from all Pools\n\n\t// Mapping from TAO ID to Pool\n\tmapping (address => Pool) public pools;\n\n\t// Mapping from Lot ID to Lot\n\tmapping (bytes32 => Lot) public lots;\n\n\t// Mapping from Pool's TAO ID to total Lots in the Pool\n\tmapping (address => uint256) public poolTotalLot;\n\n\t// Mapping from Pool's TAO ID to quantity of Logos that has been withdrawn from the Pool\n\tmapping (address => uint256) public poolTotalLogosWithdrawn;\n\n\t// Mapping from a Name ID to its Lots\n\tmapping (address => bytes32[]) internal ownerLots;\n\n\t// Mapping from a Name ID to quantity of Ethos staked from all lots\n\tmapping (address => uint256) public totalEthosStaked;\n\n\t// Mapping from a Name ID to quantity of Pathos staked from all lots\n\tmapping (address => uint256) public totalPathosStaked;\n\n\t// Event to be broadcasted to public when Pool is created\n\tevent CreatePool(address indexed taoId, bool ethosCapStatus, uint256 ethosCapAmount, bool status);\n\n\t// Event to be broadcasted to public when Pool's status is updated\n\t// If status == true, start Pool\n\t// Otherwise, stop Pool\n\tevent UpdatePoolStatus(address indexed taoId, bool status, uint256 nonce);\n\n\t// Event to be broadcasted to public when Pool's Ethos cap is updated\n\tevent UpdatePoolEthosCap(address indexed taoId, bool ethosCapStatus, uint256 ethosCapAmount, uint256 nonce);\n\n\t/**\n\t * Event to be broadcasted to public when nameId stakes Ethos\n\t */\n\tevent StakeEthos(address indexed taoId, bytes32 indexed lotId, address indexed nameId, uint256 lotQuantity, uint256 poolPreStakeSnapshot, uint256 poolStakeLotSnapshot, uint256 lotValueInLogos, uint256 timestamp);\n\n\t// Event to be broadcasted to public when nameId stakes Pathos\n\tevent StakePathos(address indexed taoId, address indexed nameId, uint256 stakeQuantity, uint256 currentPoolTotalStakedPathos);\n\n\t// Event to be broadcasted to public when nameId withdraws Logos from Lot\n\tevent WithdrawLogos(address indexed nameId, bytes32 indexed lotId, address indexed taoId, uint256 withdrawnAmount, uint256 currentLotValueInLogos, uint256 currentLotLogosWithdrawn);\n\n\t/**\n\t * @dev Constructor function\n\t */\n\tconstructor(address _nameFactoryAddress, address _taoFactoryAddress, address _nameTAOPositionAddress, address _pathosAddress, address _ethosAddress, address _logosAddress)\n\t\tTAOController(_nameFactoryAddress) public {\n\t\tsetTAOFactoryAddress(_taoFactoryAddress);\n\t\tsetNameTAOPositionAddress(_nameTAOPositionAddress);\n\t\tsetPathosAddress(_pathosAddress);\n\t\tsetEthosAddress(_ethosAddress);\n\t\tsetLogosAddress(_logosAddress);\n\t}\n\n\t/**\n\t * @dev Check if calling address is TAO Factory address\n\t */\n\tmodifier onlyTAOFactory {\n\t\trequire (msg.sender == taoFactoryAddress);\n\t\t_;\n\t}\n\n\t/***** The AO ONLY METHODS *****/\n\t/**\n\t * @dev The AO set the TAOFactory Address\n\t * @param _taoFactoryAddress The address of TAOFactory\n\t */\n\tfunction setTAOFactoryAddress(address _taoFactoryAddress) public onlyTheAO {\n\t\trequire (_taoFactoryAddress != address(0));\n\t\ttaoFactoryAddress = _taoFactoryAddress;\n\t\t_taoFactory = ITAOFactory(_taoFactoryAddress);\n\t}\n\n\t/**\n\t * @dev The AO set the Pathos Address\n\t * @param _pathosAddress The address of Pathos\n\t */\n\tfunction setPathosAddress(address _pathosAddress) public onlyTheAO {\n\t\trequire (_pathosAddress != address(0));\n\t\tpathosAddress = _pathosAddress;\n\t\t_pathos = TAOCurrency(_pathosAddress);\n\t}\n\n\t/**\n\t * @dev The AO set the Ethos Address\n\t * @param _ethosAddress The address of Ethos\n\t */\n\tfunction setEthosAddress(address _ethosAddress) public onlyTheAO {\n\t\trequire (_ethosAddress != address(0));\n\t\tethosAddress = _ethosAddress;\n\t\t_ethos = TAOCurrency(_ethosAddress);\n\t}\n\n\t/**\n\t * @dev The AO set the Logos Address\n\t * @param _logosAddress The address of Logos\n\t */\n\tfunction setLogosAddress(address _logosAddress) public onlyTheAO {\n\t\trequire (_logosAddress != address(0));\n\t\tlogosAddress = _logosAddress;\n\t\t_logos = Logos(_logosAddress);\n\t}\n\n\t/***** PUBLIC METHODS *****/\n\t/**\n\t * @dev Check whether or not Pool exist for a TAO ID\n\t * @param _id The ID to be checked\n\t * @return true if yes, false otherwise\n\t */\n\tfunction isExist(address _id) public view returns (bool) {\n\t\treturn pools[_id].taoId != address(0);\n\t}\n\n\t/**\n\t * @dev Create a pool for a TAO\n\t */\n\tfunction createPool(\n\t\taddress _taoId,\n\t\tbool _ethosCapStatus,\n\t\tuint256 _ethosCapAmount\n\t) external isTAO(_taoId) onlyTAOFactory returns (bool) {\n\t\t// Make sure ethos cap amount is provided if ethos cap is enabled\n\t\tif (_ethosCapStatus) {\n\t\t\trequire (_ethosCapAmount > 0);\n\t\t}\n\t\t// Make sure the pool is not yet created\n\t\trequire (pools[_taoId].taoId == address(0));\n\n\t\tPool storage _pool = pools[_taoId];\n\t\t_pool.taoId = _taoId;\n\t\t_pool.status = true;\n\t\t_pool.ethosCapStatus = _ethosCapStatus;\n\t\tif (_ethosCapStatus) {\n\t\t\t_pool.ethosCapAmount = _ethosCapAmount;\n\t\t}\n\n\t\temit CreatePool(_pool.taoId, _pool.ethosCapStatus, _pool.ethosCapAmount, _pool.status);\n\t\treturn true;\n\t}\n\n\t/**\n\t * @dev Start/Stop a Pool\n\t * @param _taoId The TAO ID of the Pool\n\t * @param _status The status to set. true = start. false = stop\n\t */\n\tfunction updatePoolStatus(address _taoId, bool _status) public isTAO(_taoId) onlyAdvocate(_taoId) senderNameNotCompromised {\n\t\trequire (pools[_taoId].taoId != address(0));\n\t\tpools[_taoId].status = _status;\n\n\t\tuint256 _nonce = _taoFactory.incrementNonce(_taoId);\n\t\trequire (_nonce > 0);\n\n\t\temit UpdatePoolStatus(_taoId, _status, _nonce);\n\t}\n\n\t/**\n\t * @dev Update Ethos cap of a Pool\n\t * @param _taoId The TAO ID of the Pool\n\t * @param _ethosCapStatus The ethos cap status to set\n\t * @param _ethosCapAmount The ethos cap amount to set\n\t */\n\tfunction updatePoolEthosCap(address _taoId, bool _ethosCapStatus, uint256 _ethosCapAmount) public isTAO(_taoId) onlyAdvocate(_taoId) senderNameNotCompromised {\n\t\trequire (pools[_taoId].taoId != address(0));\n\t\t// If there is an ethos cap\n\t\tif (_ethosCapStatus) {\n\t\t\trequire (_ethosCapAmount > 0 && _ethosCapAmount > _pathos.balanceOf(_taoId));\n\t\t}\n\n\t\tpools[_taoId].ethosCapStatus = _ethosCapStatus;\n\t\tif (_ethosCapStatus) {\n\t\t\tpools[_taoId].ethosCapAmount = _ethosCapAmount;\n\t\t}\n\n\t\tuint256 _nonce = _taoFactory.incrementNonce(_taoId);\n\t\trequire (_nonce > 0);\n\n\t\temit UpdatePoolEthosCap(_taoId, _ethosCapStatus, _ethosCapAmount, _nonce);\n\t}\n\n\t/**\n\t * @dev A Name stakes Ethos in Pool `_taoId`\n\t * @param _taoId The TAO ID of the Pool\n\t * @param _quantity The amount of Ethos to be staked\n\t */\n\tfunction stakeEthos(address _taoId, uint256 _quantity) public isTAO(_taoId) senderIsName senderNameNotCompromised {\n\t\tPool memory _pool = pools[_taoId];\n\t\taddress _nameId = _nameFactory.ethAddressToNameId(msg.sender);\n\t\trequire (_pool.status == true && _quantity > 0 && _ethos.balanceOf(_nameId) >= _quantity);\n\n\t\t// If there is an ethos cap\n\t\tif (_pool.ethosCapStatus) {\n\t\t\trequire (_ethos.balanceOf(_taoId).add(_quantity) <= _pool.ethosCapAmount);\n\t\t}\n\n\t\t// Create Lot for this transaction\n\t\tcontractTotalLot++;\n\t\tpoolTotalLot[_taoId]++;\n\n\t\t// Generate Lot ID\n\t\tbytes32 _lotId = keccak256(abi.encodePacked(this, msg.sender, contractTotalLot));\n\n\t\tLot storage _lot = lots[_lotId];\n\t\t_lot.lotId = _lotId;\n\t\t_lot.nameId = _nameId;\n\t\t_lot.lotQuantity = _quantity;\n\t\t_lot.taoId = _taoId;\n\t\t_lot.poolPreStakeSnapshot = _ethos.balanceOf(_taoId);\n\t\t_lot.poolStakeLotSnapshot = _ethos.balanceOf(_taoId).add(_quantity);\n\t\t_lot.lotValueInLogos = _quantity;\n\t\t_lot.timestamp = now;\n\n\t\townerLots[_nameId].push(_lotId);\n\n\t\t// Update contract variables\n\t\ttotalEthosStaked[_nameId] = totalEthosStaked[_nameId].add(_quantity);\n\t\tcontractTotalEthos = contractTotalEthos.add(_quantity);\n\n\t\trequire (_ethos.transferFrom(_nameId, _taoId, _quantity));\n\n\t\temit StakeEthos(_lot.taoId, _lot.lotId, _lot.nameId, _lot.lotQuantity, _lot.poolPreStakeSnapshot, _lot.poolStakeLotSnapshot, _lot.lotValueInLogos, _lot.timestamp);\n\t}\n\n\t/**\n\t * @dev Retrieve number of Lots a `_nameId` has\n\t * @param _nameId The Name ID of the Lot's owner\n\t * @return Total Lots the owner has\n\t */\n\tfunction ownerTotalLot(address _nameId) public view returns (uint256) {\n\t\treturn ownerLots[_nameId].length;\n\t}\n\n\t/**\n\t * @dev Get list of owner's Lot IDs from `_from` to `_to` index\n\t * @param _nameId The Name Id of the Lot's owner\n\t * @param _from The starting index, (i.e 0)\n\t * @param _to The ending index, (i.e total - 1)\n\t * @return list of owner's Lot IDs\n\t */\n\tfunction ownerLotIds(address _nameId, uint256 _from, uint256 _to) public view returns (bytes32[] memory) {\n\t\trequire (_from >= 0 && _to >= _from && ownerLots[_nameId].length > _to);\n\t\tbytes32[] memory _lotIds = new bytes32[](_to.sub(_from).add(1));\n\t\tfor (uint256 i = _from; i <= _to; i++) {\n\t\t\t_lotIds[i.sub(_from)] = ownerLots[_nameId][i];\n\t\t}\n\t\treturn _lotIds;\n\t}\n\n\t/**\n\t * @dev Return the amount of Pathos that can be staked on Pool\n\t * @param _taoId The TAO ID of the Pool\n\t * @return The amount of Pathos that can be staked\n\t */\n\tfunction availablePathosToStake(address _taoId) public isTAO(_taoId) view returns (uint256) {\n\t\tif (pools[_taoId].status == true) {\n\t\t\treturn _ethos.balanceOf(_taoId).sub(_pathos.balanceOf(_taoId));\n\t\t} else {\n\t\t\treturn 0;\n\t\t}\n\t}\n\n\t/**\n\t * @dev A Name stakes Pathos in Pool `_taoId`\n\t * @param _taoId The TAO ID of the Pool\n\t * @param _quantity The amount of Pathos to stake\n\t */\n\tfunction stakePathos(address _taoId, uint256 _quantity) public isTAO(_taoId) senderIsName senderNameNotCompromised {\n\t\tPool memory _pool = pools[_taoId];\n\t\taddress _nameId = _nameFactory.ethAddressToNameId(msg.sender);\n\t\trequire (_pool.status == true && _quantity > 0 && _pathos.balanceOf(_nameId) >= _quantity && _quantity <= availablePathosToStake(_taoId));\n\n\t\t// Update contract variables\n\t\ttotalPathosStaked[_nameId] = totalPathosStaked[_nameId].add(_quantity);\n\t\tcontractTotalPathos = contractTotalPathos.add(_quantity);\n\n\t\trequire (_pathos.transferFrom(_nameId, _taoId, _quantity));\n\n\t\t// Also add advocated TAO logos to Advocate of _taoId\n\t\trequire (_logos.addAdvocatedTAOLogos(_taoId, _quantity));\n\n\t\temit StakePathos(_taoId, _nameId, _quantity, _pathos.balanceOf(_taoId));\n\t}\n\n\t/**\n\t * @dev Name that staked Ethos withdraw Logos from Lot `_lotId`\n\t * @param _lotId The ID of the Lot\n\t */\n\tfunction withdrawLogos(bytes32 _lotId) public senderIsName senderNameNotCompromised {\n\t\tLot storage _lot = lots[_lotId];\n\t\taddress _nameId = _nameFactory.ethAddressToNameId(msg.sender);\n\t\trequire (_lot.nameId == _nameId && _lot.lotValueInLogos > 0);\n\n\t\tuint256 logosAvailableToWithdraw = lotLogosAvailableToWithdraw(_lotId);\n\n\t\trequire (logosAvailableToWithdraw > 0 && logosAvailableToWithdraw <= _lot.lotValueInLogos);\n\n\t\t// Update lot variables\n\t\t_lot.logosWithdrawn = _lot.logosWithdrawn.add(logosAvailableToWithdraw);\n\t\t_lot.lotValueInLogos = _lot.lotValueInLogos.sub(logosAvailableToWithdraw);\n\n\t\t// Update contract variables\n\t\tcontractTotalLogosWithdrawn = contractTotalLogosWithdrawn.add(logosAvailableToWithdraw);\n\t\tpoolTotalLogosWithdrawn[_lot.taoId] = poolTotalLogosWithdrawn[_lot.taoId].add(logosAvailableToWithdraw);\n\n\t\t// Mint logos to seller\n\t\trequire (_logos.mint(_nameId, logosAvailableToWithdraw));\n\n\t\temit WithdrawLogos(_lot.nameId, _lot.lotId, _lot.taoId, logosAvailableToWithdraw, _lot.lotValueInLogos, _lot.logosWithdrawn);\n\t}\n\n\t/**\n\t * @dev Name gets Lot `_lotId` available Logos to withdraw\n\t * @param _lotId The ID of the Lot\n\t * @return The amount of Logos available to withdraw\n\t */\n\tfunction lotLogosAvailableToWithdraw(bytes32 _lotId) public view returns (uint256) {\n\t\tLot memory _lot = lots[_lotId];\n\t\trequire (_lot.nameId != address(0));\n\n\t\tuint256 logosAvailableToWithdraw = 0;\n\n\t\tif (_pathos.balanceOf(_lot.taoId) > _lot.poolPreStakeSnapshot && _lot.lotValueInLogos > 0) {\n\t\t\tlogosAvailableToWithdraw = (_pathos.balanceOf(_lot.taoId) >= _lot.poolStakeLotSnapshot) ? _lot.lotQuantity : _pathos.balanceOf(_lot.taoId).sub(_lot.poolPreStakeSnapshot);\n\t\t\tif (logosAvailableToWithdraw > 0) {\n\t\t\t\tlogosAvailableToWithdraw = logosAvailableToWithdraw.sub(_lot.logosWithdrawn);\n\t\t\t}\n\t\t}\n\t\treturn logosAvailableToWithdraw;\n\t}\n}\n",
  "sourcePath": "/usr/local/ao-contracts/contracts/TAOPool.sol",
  "compiler": {
    "name": "solc",
    "version": "0.5.6+commit.b259423e.Emscripten.clang"
  },
  "schemaVersion": "3.0.2",
  "updatedAt": "2019-03-26T16:54:31.349Z",
  "devdoc": {
    "methods": {
      "availablePathosToStake(address)": {
        "details": "Return the amount of Pathos that can be staked on Pool",
        "params": {
          "_taoId": "The TAO ID of the Pool"
        },
        "return": "The amount of Pathos that can be staked"
      },
      "constructor": {
        "details": "Constructor function"
      },
      "createPool(address,bool,uint256)": {
        "details": "Create a pool for a TAO"
      },
      "isExist(address)": {
        "details": "Check whether or not Pool exist for a TAO ID",
        "params": {
          "_id": "The ID to be checked"
        },
        "return": "true if yes, false otherwise"
      },
      "lotLogosAvailableToWithdraw(bytes32)": {
        "details": "Name gets Lot `_lotId` available Logos to withdraw",
        "params": {
          "_lotId": "The ID of the Lot"
        },
        "return": "The amount of Logos available to withdraw"
      },
      "ownerLotIds(address,uint256,uint256)": {
        "details": "Get list of owner's Lot IDs from `_from` to `_to` index",
        "params": {
          "_from": "The starting index, (i.e 0)",
          "_nameId": "The Name Id of the Lot's owner",
          "_to": "The ending index, (i.e total - 1)"
        },
        "return": "list of owner's Lot IDs"
      },
      "ownerTotalLot(address)": {
        "details": "Retrieve number of Lots a `_nameId` has",
        "params": {
          "_nameId": "The Name ID of the Lot's owner"
        },
        "return": "Total Lots the owner has"
      },
      "setEthosAddress(address)": {
        "details": "The AO set the Ethos Address",
        "params": {
          "_ethosAddress": "The address of Ethos"
        }
      },
      "setLogosAddress(address)": {
        "details": "The AO set the Logos Address",
        "params": {
          "_logosAddress": "The address of Logos"
        }
      },
      "setNameAccountRecoveryAddress(address)": {
        "details": "The AO set the NameAccountRecovery Address",
        "params": {
          "_nameAccountRecoveryAddress": "The address of NameAccountRecovery"
        }
      },
      "setNameFactoryAddress(address)": {
        "details": "The AO sets NameFactory address",
        "params": {
          "_nameFactoryAddress": "The address of NameFactory"
        }
      },
      "setNameTAOPositionAddress(address)": {
        "details": "The AO sets NameTAOPosition address",
        "params": {
          "_nameTAOPositionAddress": "The address of NameTAOPosition"
        }
      },
      "setPathosAddress(address)": {
        "details": "The AO set the Pathos Address",
        "params": {
          "_pathosAddress": "The address of Pathos"
        }
      },
      "setTAOFactoryAddress(address)": {
        "details": "The AO set the TAOFactory Address",
        "params": {
          "_taoFactoryAddress": "The address of TAOFactory"
        }
      },
      "setWhitelist(address,bool)": {
        "details": "Whitelist `_account` address to transact on behalf of others",
        "params": {
          "_account": "The address to whitelist",
          "_whitelist": "Either to whitelist or not"
        }
      },
      "stakeEthos(address,uint256)": {
        "details": "A Name stakes Ethos in Pool `_taoId`",
        "params": {
          "_quantity": "The amount of Ethos to be staked",
          "_taoId": "The TAO ID of the Pool"
        }
      },
      "stakePathos(address,uint256)": {
        "details": "A Name stakes Pathos in Pool `_taoId`",
        "params": {
          "_quantity": "The amount of Pathos to stake",
          "_taoId": "The TAO ID of the Pool"
        }
      },
      "transferOwnership(address)": {
        "details": "Transfer ownership of The AO to new address",
        "params": {
          "_theAO": "The new address to be transferred"
        }
      },
      "updatePoolEthosCap(address,bool,uint256)": {
        "details": "Update Ethos cap of a Pool",
        "params": {
          "_ethosCapAmount": "The ethos cap amount to set",
          "_ethosCapStatus": "The ethos cap status to set",
          "_taoId": "The TAO ID of the Pool"
        }
      },
      "updatePoolStatus(address,bool)": {
        "details": "Start/Stop a Pool",
        "params": {
          "_status": "The status to set. true = start. false = stop",
          "_taoId": "The TAO ID of the Pool"
        }
      },
      "withdrawLogos(bytes32)": {
        "details": "Name that staked Ethos withdraw Logos from Lot `_lotId`",
        "params": {
          "_lotId": "The ID of the Lot"
        }
      }
    },
    "title": "TAOPool * This contract acts as the bookkeeper of TAO Currencies that are staked on TAO"
  },
  "userdoc": {
    "methods": {}
  }
}