{
	"contractName": "TAOPosition",
	"abi": [
		{
			"inputs": [
				{
					"name": "_nameFactoryAddress",
					"type": "address"
				},
				{
					"name": "_nameTAOPositionAddress",
					"type": "address"
				},
				{
					"name": "_positionAddress",
					"type": "address"
				}
			],
			"payable": false,
			"stateMutability": "nonpayable",
			"type": "constructor"
		},
		{
			"constant": false,
			"inputs": [
				{
					"name": "_taoId",
					"type": "address"
				},
				{
					"name": "_positionAmount",
					"type": "uint256"
				}
			],
			"name": "stakePosition",
			"outputs": [],
			"payable": false,
			"stateMutability": "nonpayable",
			"type": "function"
		},
		{
			"constant": false,
			"inputs": [
				{
					"name": "_taoId",
					"type": "address"
				},
				{
					"name": "_positionAmount",
					"type": "uint256"
				}
			],
			"name": "unstakePosition",
			"outputs": [],
			"payable": false,
			"stateMutability": "nonpayable",
			"type": "function"
		}
	],
	"bytecode": "0x608060405234801561001057600080fd5b506040516060806104fb83398101604090815281516020830151919092015160008054600160a060020a0319908116600160a060020a0395861617825560018054821694861694909417909355600280549093169390911692909217905561047d90819061007e90396000f3006080604052600436106100325763ffffffff60e060020a6000350416638f4c4ea18114610037578063a9d02ed21461005d575b600080fd5b34801561004357600080fd5b5061005b600160a060020a0360043516602435610081565b005b34801561006957600080fd5b5061005b600160a060020a03600435166024356102c7565b8173__AOLibrary_____________________________632fca5414826040518263ffffffff1660e060020a0281526004018082600160a060020a0316600160a060020a0316815260200191505060206040518083038186803b1580156100e657600080fd5b505af41580156100fa573d6000803e3d6000fd5b505050506040513d602081101561011057600080fd5b5051151561011d57600080fd5b600080546040805160e060020a63029b7d530281523360048201529051600160a060020a039092169163029b7d539160248082019260209290919082900301818787803b15801561016d57600080fd5b505af1158015610181573d6000803e3d6000fd5b505050506040513d602081101561019757600080fd5b5051600160a060020a031614156101ad57600080fd5b600254600080546040805160e060020a63029b7d530281523360048201529051600160a060020a039485169463bf6eac2f9493169263029b7d5392602480820193602093909283900390910190829087803b15801561020b57600080fd5b505af115801561021f573d6000803e3d6000fd5b505050506040513d602081101561023557600080fd5b50516040805160e060020a63ffffffff8516028152600160a060020a0392831660048201529187166024830152604482018690525160648083019260209291908290030181600087803b15801561028b57600080fd5b505af115801561029f573d6000803e3d6000fd5b505050506040513d60208110156102b557600080fd5b505115156102c257600080fd5b505050565b8173__AOLibrary_____________________________632fca5414826040518263ffffffff1660e060020a0281526004018082600160a060020a0316600160a060020a0316815260200191505060206040518083038186803b15801561032c57600080fd5b505af4158015610340573d6000803e3d6000fd5b505050506040513d602081101561035657600080fd5b5051151561036357600080fd5b600080546040805160e060020a63029b7d530281523360048201529051600160a060020a039092169163029b7d539160248082019260209290919082900301818787803b1580156103b357600080fd5b505af11580156103c7573d6000803e3d6000fd5b505050506040513d60208110156103dd57600080fd5b5051600160a060020a031614156103f357600080fd5b600254600080546040805160e060020a63029b7d530281523360048201529051600160a060020a03948516946360829f8a9493169263029b7d5392602480820193602093909283900390910190829087803b15801561020b57600080fd00a165627a7a7230582072f9e574b80c5daac7262ebd79925fef81d5413f279631380024b0c3820ba5490029",
	"source": "pragma solidity ^0.4.24;\n\nimport './TAOController.sol';\nimport './Position.sol';\n\n/**\n * @title TAOPosition\n *\n * The purpose of this contract is for Name to stake/unstake Position on a TAO\n */\ncontract TAOPosition is TAOController {\n\tPosition internal _position;\n\t/**\n\t * @dev Constructor function\n\t */\n\tconstructor(address _nameFactoryAddress, address _nameTAOPositionAddress, address _positionAddress)\n\t\tTAOController(_nameFactoryAddress, _nameTAOPositionAddress) public {\n\t\t_position = Position(_positionAddress);\n\t}\n\n\t/**\n\t * @dev Name stakes Position on a TAO\n\t * @param _taoId The ID of the TAO\n\t * @param _positionAmount The amount of Position to stake\n\t */\n\tfunction stakePosition(address _taoId, uint256 _positionAmount) public isTAO(_taoId) senderIsName() {\n\t\trequire (_position.stake(_nameFactory.ethAddressToNameId(msg.sender), _taoId, _positionAmount));\n\t}\n\n\t/**\n\t * @dev Name unstakes Position on a TAO\n\t * @param _taoId The ID of the TAO\n\t * @param _positionAmount The amount of Position to unstake\n\t */\n\tfunction unstakePosition(address _taoId, uint256 _positionAmount) public isTAO(_taoId) senderIsName() {\n\t\trequire (_position.unstake(_nameFactory.ethAddressToNameId(msg.sender), _taoId, _positionAmount));\n\t}\n}\n",
	"sourcePath": "/Users/johanmulyono/Work/AO/ao-contracts/contracts/TAOPosition.sol",
	"compiler": {
		"name": "solc",
		"version": "0.4.24+commit.e67f0147.Emscripten.clang"
	},
	"schemaVersion": "2.0.1",
	"updatedAt": "2019-01-07T03:04:13.107Z"
}