{
  "contractName": "TAOVoice",
  "abi": [
    {
      "constant": false,
      "inputs": [
        {
          "name": "_nameAccountRecoveryAddress",
          "type": "address"
        }
      ],
      "name": "setNameAccountRecoveryAddress",
      "outputs": [],
      "payable": false,
      "stateMutability": "nonpayable",
      "type": "function",
      "signature": "0x1dfde2bd"
    },
    {
      "constant": true,
      "inputs": [],
      "name": "voiceAddress",
      "outputs": [
        {
          "name": "",
          "type": "address"
        }
      ],
      "payable": false,
      "stateMutability": "view",
      "type": "function",
      "signature": "0x2d2f45b9"
    },
    {
      "constant": true,
      "inputs": [],
      "name": "nameTAOPositionAddress",
      "outputs": [
        {
          "name": "",
          "type": "address"
        }
      ],
      "payable": false,
      "stateMutability": "view",
      "type": "function",
      "signature": "0x4ef033f0"
    },
    {
      "constant": false,
      "inputs": [
        {
          "name": "_account",
          "type": "address"
        },
        {
          "name": "_whitelist",
          "type": "bool"
        }
      ],
      "name": "setWhitelist",
      "outputs": [],
      "payable": false,
      "stateMutability": "nonpayable",
      "type": "function",
      "signature": "0x53d6fd59"
    },
    {
      "constant": false,
      "inputs": [
        {
          "name": "_nameTAOPositionAddress",
          "type": "address"
        }
      ],
      "name": "setNameTAOPositionAddress",
      "outputs": [],
      "payable": false,
      "stateMutability": "nonpayable",
      "type": "function",
      "signature": "0x5cfaf2ef"
    },
    {
      "constant": false,
      "inputs": [
        {
          "name": "_nameFactoryAddress",
          "type": "address"
        }
      ],
      "name": "setNameFactoryAddress",
      "outputs": [],
      "payable": false,
      "stateMutability": "nonpayable",
      "type": "function",
      "signature": "0x8c924361"
    },
    {
      "constant": true,
      "inputs": [
        {
          "name": "",
          "type": "address"
        }
      ],
      "name": "whitelist",
      "outputs": [
        {
          "name": "",
          "type": "bool"
        }
      ],
      "payable": false,
      "stateMutability": "view",
      "type": "function",
      "signature": "0x9b19251a"
    },
    {
      "constant": true,
      "inputs": [],
      "name": "nameAccountRecoveryAddress",
      "outputs": [
        {
          "name": "",
          "type": "address"
        }
      ],
      "payable": false,
      "stateMutability": "view",
      "type": "function",
      "signature": "0xa4e5fad2"
    },
    {
      "constant": true,
      "inputs": [],
      "name": "theAO",
      "outputs": [
        {
          "name": "",
          "type": "address"
        }
      ],
      "payable": false,
      "stateMutability": "view",
      "type": "function",
      "signature": "0xa9b6b38e"
    },
    {
      "constant": true,
      "inputs": [],
      "name": "nameFactoryAddress",
      "outputs": [
        {
          "name": "",
          "type": "address"
        }
      ],
      "payable": false,
      "stateMutability": "view",
      "type": "function",
      "signature": "0xbc406206"
    },
    {
      "constant": false,
      "inputs": [
        {
          "name": "_theAO",
          "type": "address"
        }
      ],
      "name": "transferOwnership",
      "outputs": [],
      "payable": false,
      "stateMutability": "nonpayable",
      "type": "function",
      "signature": "0xf2fde38b"
    },
    {
      "inputs": [
        {
          "name": "_nameFactoryAddress",
          "type": "address"
        },
        {
          "name": "_voiceAddress",
          "type": "address"
        },
        {
          "name": "_nameTAOPositionAddress",
          "type": "address"
        }
      ],
      "payable": false,
      "stateMutability": "nonpayable",
      "type": "constructor",
      "signature": "constructor"
    },
    {
      "constant": false,
      "inputs": [
        {
          "name": "_voiceAddress",
          "type": "address"
        }
      ],
      "name": "setVoiceAddress",
      "outputs": [],
      "payable": false,
      "stateMutability": "nonpayable",
      "type": "function",
      "signature": "0x19d4cc31"
    },
    {
      "constant": false,
      "inputs": [
        {
          "name": "_taoId",
          "type": "address"
        },
        {
          "name": "_voiceAmount",
          "type": "uint256"
        }
      ],
      "name": "stakeVoice",
      "outputs": [],
      "payable": false,
      "stateMutability": "nonpayable",
      "type": "function",
      "signature": "0x034767ec"
    },
    {
      "constant": false,
      "inputs": [
        {
          "name": "_taoId",
          "type": "address"
        },
        {
          "name": "_voiceAmount",
          "type": "uint256"
        }
      ],
      "name": "unstakeVoice",
      "outputs": [],
      "payable": false,
      "stateMutability": "nonpayable",
      "type": "function",
      "signature": "0xf9297843"
    }
  ],
  "bytecode": "0x60806040523480156200001157600080fd5b50604051606080620011ea833981018060405260608110156200003357600080fd5b508051602080830151604090930151600080546001600160a01b031916331790559192919083906200006b90829062000097811b901c565b506200007d826200019860201b60201c565b6200008e816200029960201b60201c565b5050506200039a565b600054600154604080517ff66afcac0000000000000000000000000000000000000000000000000000000081523360048201526001600160a01b0393841660248201529290911660448301525173__AOLibrary_____________________________9163f66afcac916064808301926020929190829003018186803b1580156200012057600080fd5b505af415801562000135573d6000803e3d6000fd5b505050506040513d60208110156200014c57600080fd5b50516200015857600080fd5b6001600160a01b0381166200016c57600080fd5b600380546001600160a01b039092166001600160a01b0319928316811790915560058054909216179055565b600054600154604080517ff66afcac0000000000000000000000000000000000000000000000000000000081523360048201526001600160a01b0393841660248201529290911660448301525173__AOLibrary_____________________________9163f66afcac916064808301926020929190829003018186803b1580156200022157600080fd5b505af415801562000236573d6000803e3d6000fd5b505050506040513d60208110156200024d57600080fd5b50516200025957600080fd5b6001600160a01b0381166200026d57600080fd5b600880546001600160a01b039092166001600160a01b0319928316811790915560098054909216179055565b600054600154604080517ff66afcac0000000000000000000000000000000000000000000000000000000081523360048201526001600160a01b0393841660248201529290911660448301525173__AOLibrary_____________________________9163f66afcac916064808301926020929190829003018186803b1580156200032257600080fd5b505af415801562000337573d6000803e3d6000fd5b505050506040513d60208110156200034e57600080fd5b50516200035a57600080fd5b6001600160a01b0381166200036e57600080fd5b600180546001600160a01b039092166001600160a01b0319928316811790915560068054909216179055565b610e4080620003aa6000396000f3fe608060405234801561001057600080fd5b50600436106100ea5760003560e01c80638c9243611161008c578063a9b6b38e11610066578063a9b6b38e14610251578063bc40620614610259578063f2fde38b14610261578063f929784314610287576100ea565b80638c924361146101e95780639b19251a1461020f578063a4e5fad214610249576100ea565b80632d2f45b9116100c85780632d2f45b9146101695780634ef033f01461018d57806353d6fd59146101955780635cfaf2ef146101c3576100ea565b8063034767ec146100ef57806319d4cc311461011d5780631dfde2bd14610143575b600080fd5b61011b6004803603604081101561010557600080fd5b506001600160a01b0381351690602001356102b3565b005b61011b6004803603602081101561013357600080fd5b50356001600160a01b03166105e1565b61011b6004803603602081101561015957600080fd5b50356001600160a01b03166106c7565b6101716107b0565b604080516001600160a01b039092168252519081900360200190f35b6101716107bf565b61011b600480360360408110156101ab57600080fd5b506001600160a01b03813516906020013515156107ce565b61011b600480360360208110156101d957600080fd5b50356001600160a01b03166108b3565b61011b600480360360208110156101ff57600080fd5b50356001600160a01b0316610999565b6102356004803603602081101561022557600080fd5b50356001600160a01b0316610a7f565b604080519115158252519081900360200190f35b610171610a94565b610171610aa3565b610171610ab2565b61011b6004803603602081101561027757600080fd5b50356001600160a01b0316610ac1565b61011b6004803603604081101561029d57600080fd5b506001600160a01b038135169060200135610b9d565b8173__AOLibrary_____________________________632fca5414826040518263ffffffff1660e01b815260040180826001600160a01b03166001600160a01b0316815260200191505060206040518083038186803b15801561031557600080fd5b505af4158015610329573d6000803e3d6000fd5b505050506040513d602081101561033f57600080fd5b505161034a57600080fd5b60055460408051600160e01b63029b7d5302815233600482015290516000926001600160a01b03169163029b7d53916024808301926020929190829003018186803b15801561039857600080fd5b505afa1580156103ac573d6000803e3d6000fd5b505050506040513d60208110156103c257600080fd5b50516001600160a01b031614156103d857600080fd5b60075460055460408051600160e01b63029b7d5302815233600482015290516001600160a01b0393841693633ebc2ab393169163029b7d53916024808301926020929190829003018186803b15801561043057600080fd5b505afa158015610444573d6000803e3d6000fd5b505050506040513d602081101561045a57600080fd5b50516040805163ffffffff841660e01b81526001600160a01b039092166004830152516024808301926020929190829003018186803b15801561049c57600080fd5b505afa1580156104b0573d6000803e3d6000fd5b505050506040513d60208110156104c657600080fd5b5051156104d257600080fd5b60095460055460408051600160e01b63029b7d5302815233600482015290516001600160a01b039384169363bf6eac2f93169163029b7d53916024808301926020929190829003018186803b15801561052a57600080fd5b505afa15801561053e573d6000803e3d6000fd5b505050506040513d602081101561055457600080fd5b50516040805163ffffffff841660e01b81526001600160a01b0392831660048201529187166024830152604482018690525160648083019260209291908290030181600087803b1580156105a757600080fd5b505af11580156105bb573d6000803e3d6000fd5b505050506040513d60208110156105d157600080fd5b50516105dc57600080fd5b505050565b60005460015460408051600160e21b633d9abf2b0281523360048201526001600160a01b0393841660248201529290911660448301525173__AOLibrary_____________________________9163f66afcac916064808301926020929190829003018186803b15801561065357600080fd5b505af4158015610667573d6000803e3d6000fd5b505050506040513d602081101561067d57600080fd5b505161068857600080fd5b6001600160a01b03811661069b57600080fd5b600880546001600160a01b039092166001600160a01b0319928316811790915560098054909216179055565b60005460015460408051600160e21b633d9abf2b0281523360048201526001600160a01b0393841660248201529290911660448301525173__AOLibrary_____________________________9163f66afcac916064808301926020929190829003018186803b15801561073957600080fd5b505af415801561074d573d6000803e3d6000fd5b505050506040513d602081101561076357600080fd5b505161076e57600080fd5b6001600160a01b03811661078157600080fd5b600480546001600160a01b03199081166001600160a01b03938416179182905560078054929093169116179055565b6008546001600160a01b031681565b6001546001600160a01b031681565b60005460015460408051600160e21b633d9abf2b0281523360048201526001600160a01b0393841660248201529290911660448301525173__AOLibrary_____________________________9163f66afcac916064808301926020929190829003018186803b15801561084057600080fd5b505af4158015610854573d6000803e3d6000fd5b505050506040513d602081101561086a57600080fd5b505161087557600080fd5b6001600160a01b03821661088857600080fd5b6001600160a01b03919091166000908152600260205260409020805460ff1916911515919091179055565b60005460015460408051600160e21b633d9abf2b0281523360048201526001600160a01b0393841660248201529290911660448301525173__AOLibrary_____________________________9163f66afcac916064808301926020929190829003018186803b15801561092557600080fd5b505af4158015610939573d6000803e3d6000fd5b505050506040513d602081101561094f57600080fd5b505161095a57600080fd5b6001600160a01b03811661096d57600080fd5b600180546001600160a01b039092166001600160a01b0319928316811790915560068054909216179055565b60005460015460408051600160e21b633d9abf2b0281523360048201526001600160a01b0393841660248201529290911660448301525173__AOLibrary_____________________________9163f66afcac916064808301926020929190829003018186803b158015610a0b57600080fd5b505af4158015610a1f573d6000803e3d6000fd5b505050506040513d6020811015610a3557600080fd5b5051610a4057600080fd5b6001600160a01b038116610a5357600080fd5b600380546001600160a01b039092166001600160a01b0319928316811790915560058054909216179055565b60026020526000908152604090205460ff1681565b6004546001600160a01b031681565b6000546001600160a01b031681565b6003546001600160a01b031681565b60005460015460408051600160e21b633d9abf2b0281523360048201526001600160a01b0393841660248201529290911660448301525173__AOLibrary_____________________________9163f66afcac916064808301926020929190829003018186803b158015610b3357600080fd5b505af4158015610b47573d6000803e3d6000fd5b505050506040513d6020811015610b5d57600080fd5b5051610b6857600080fd5b6001600160a01b038116610b7b57600080fd5b600080546001600160a01b0319166001600160a01b0392909216919091179055565b8173__AOLibrary_____________________________632fca5414826040518263ffffffff1660e01b815260040180826001600160a01b03166001600160a01b0316815260200191505060206040518083038186803b158015610bff57600080fd5b505af4158015610c13573d6000803e3d6000fd5b505050506040513d6020811015610c2957600080fd5b5051610c3457600080fd5b60055460408051600160e01b63029b7d5302815233600482015290516000926001600160a01b03169163029b7d53916024808301926020929190829003018186803b158015610c8257600080fd5b505afa158015610c96573d6000803e3d6000fd5b505050506040513d6020811015610cac57600080fd5b50516001600160a01b03161415610cc257600080fd5b60075460055460408051600160e01b63029b7d5302815233600482015290516001600160a01b0393841693633ebc2ab393169163029b7d53916024808301926020929190829003018186803b158015610d1a57600080fd5b505afa158015610d2e573d6000803e3d6000fd5b505050506040513d6020811015610d4457600080fd5b50516040805163ffffffff841660e01b81526001600160a01b039092166004830152516024808301926020929190829003018186803b158015610d8657600080fd5b505afa158015610d9a573d6000803e3d6000fd5b505050506040513d6020811015610db057600080fd5b505115610dbc57600080fd5b60095460055460408051600160e01b63029b7d5302815233600482015290516001600160a01b03938416936360829f8a93169163029b7d53916024808301926020929190829003018186803b15801561052a57600080fdfea165627a7a72305820179c5d7cbd0c3b19b670abf09aa6b3214412a823e3944930151df633ace08eff0029",
  "source": "pragma solidity >=0.5.4 <0.6.0;\n\nimport './TAOController.sol';\nimport './Voice.sol';\n\n/**\n * @title TAOVoice\n *\n * The purpose of this contract is for Name to stake/unstake Voice on a TAO\n */\ncontract TAOVoice is TAOController {\n\taddress public voiceAddress;\n\n\tVoice internal _voice;\n\n\t/**\n\t * @dev Constructor function\n\t */\n\tconstructor(address _nameFactoryAddress, address _voiceAddress, address _nameTAOPositionAddress)\n\t\tTAOController(_nameFactoryAddress) public {\n\t\tsetVoiceAddress(_voiceAddress);\n\t\tsetNameTAOPositionAddress(_nameTAOPositionAddress);\n\t}\n\n\t/***** The AO ONLY METHODS *****/\n\t/**\n\t * @dev The AO set the Voice Address\n\t * @param _voiceAddress The address of Voice\n\t */\n\tfunction setVoiceAddress(address _voiceAddress) public onlyTheAO {\n\t\trequire (_voiceAddress != address(0));\n\t\tvoiceAddress = _voiceAddress;\n\t\t_voice = Voice(_voiceAddress);\n\t}\n\n\t/***** PUBLIC METHODS *****/\n\t/**\n\t * @dev Name stakes Voice on a TAO\n\t * @param _taoId The ID of the TAO\n\t * @param _voiceAmount The amount of Voice to stake\n\t */\n\tfunction stakeVoice(address _taoId, uint256 _voiceAmount) public isTAO(_taoId) senderIsName senderNameNotCompromised {\n\t\trequire (_voice.stake(_nameFactory.ethAddressToNameId(msg.sender), _taoId, _voiceAmount));\n\t}\n\n\t/**\n\t * @dev Name unstakes Voice on a TAO\n\t * @param _taoId The ID of the TAO\n\t * @param _voiceAmount The amount of Voice to unstake\n\t */\n\tfunction unstakeVoice(address _taoId, uint256 _voiceAmount) public isTAO(_taoId) senderIsName senderNameNotCompromised {\n\t\trequire (_voice.unstake(_nameFactory.ethAddressToNameId(msg.sender), _taoId, _voiceAmount));\n\t}\n}\n",
  "sourcePath": "/usr/local/ao-contracts/contracts/TAOVoice.sol",
  "compiler": {
    "name": "solc",
    "version": "0.5.6+commit.b259423e.Emscripten.clang"
  },
  "schemaVersion": "3.0.2",
  "updatedAt": "2019-04-12T01:21:03.730Z",
  "devdoc": {
    "methods": {
      "constructor": {
        "details": "Constructor function"
      },
      "setNameAccountRecoveryAddress(address)": {
        "details": "The AO set the NameAccountRecovery Address",
        "params": {
          "_nameAccountRecoveryAddress": "The address of NameAccountRecovery"
        }
      },
      "setNameFactoryAddress(address)": {
        "details": "The AO sets NameFactory address",
        "params": {
          "_nameFactoryAddress": "The address of NameFactory"
        }
      },
      "setNameTAOPositionAddress(address)": {
        "details": "The AO sets NameTAOPosition address",
        "params": {
          "_nameTAOPositionAddress": "The address of NameTAOPosition"
        }
      },
      "setVoiceAddress(address)": {
        "details": "The AO set the Voice Address",
        "params": {
          "_voiceAddress": "The address of Voice"
        }
      },
      "setWhitelist(address,bool)": {
        "details": "Whitelist `_account` address to transact on behalf of others",
        "params": {
          "_account": "The address to whitelist",
          "_whitelist": "Either to whitelist or not"
        }
      },
      "stakeVoice(address,uint256)": {
        "details": "Name stakes Voice on a TAO",
        "params": {
          "_taoId": "The ID of the TAO",
          "_voiceAmount": "The amount of Voice to stake"
        }
      },
      "transferOwnership(address)": {
        "details": "Transfer ownership of The AO to new address",
        "params": {
          "_theAO": "The new address to be transferred"
        }
      },
      "unstakeVoice(address,uint256)": {
        "details": "Name unstakes Voice on a TAO",
        "params": {
          "_taoId": "The ID of the TAO",
          "_voiceAmount": "The amount of Voice to unstake"
        }
      }
    },
    "title": "TAOVoice * The purpose of this contract is for Name to stake/unstake Voice on a TAO"
  },
  "userdoc": {
    "methods": {}
  }
}