{
  "contractName": "TAOVoice",
  "abi": [
    {
      "constant": false,
      "inputs": [
        {
          "name": "_nameAccountRecoveryAddress",
          "type": "address"
        }
      ],
      "name": "setNameAccountRecoveryAddress",
      "outputs": [],
      "payable": false,
      "stateMutability": "nonpayable",
      "type": "function"
    },
    {
      "constant": true,
      "inputs": [],
      "name": "voiceAddress",
      "outputs": [
        {
          "name": "",
          "type": "address"
        }
      ],
      "payable": false,
      "stateMutability": "view",
      "type": "function"
    },
    {
      "constant": true,
      "inputs": [],
      "name": "nameTAOPositionAddress",
      "outputs": [
        {
          "name": "",
          "type": "address"
        }
      ],
      "payable": false,
      "stateMutability": "view",
      "type": "function"
    },
    {
      "constant": false,
      "inputs": [
        {
          "name": "_account",
          "type": "address"
        },
        {
          "name": "_whitelist",
          "type": "bool"
        }
      ],
      "name": "setWhitelist",
      "outputs": [],
      "payable": false,
      "stateMutability": "nonpayable",
      "type": "function"
    },
    {
      "constant": false,
      "inputs": [
        {
          "name": "_nameTAOPositionAddress",
          "type": "address"
        }
      ],
      "name": "setNameTAOPositionAddress",
      "outputs": [],
      "payable": false,
      "stateMutability": "nonpayable",
      "type": "function"
    },
    {
      "constant": false,
      "inputs": [
        {
          "name": "_nameFactoryAddress",
          "type": "address"
        }
      ],
      "name": "setNameFactoryAddress",
      "outputs": [],
      "payable": false,
      "stateMutability": "nonpayable",
      "type": "function"
    },
    {
      "constant": true,
      "inputs": [
        {
          "name": "",
          "type": "address"
        }
      ],
      "name": "whitelist",
      "outputs": [
        {
          "name": "",
          "type": "bool"
        }
      ],
      "payable": false,
      "stateMutability": "view",
      "type": "function"
    },
    {
      "constant": true,
      "inputs": [],
      "name": "nameAccountRecoveryAddress",
      "outputs": [
        {
          "name": "",
          "type": "address"
        }
      ],
      "payable": false,
      "stateMutability": "view",
      "type": "function"
    },
    {
      "constant": true,
      "inputs": [],
      "name": "theAO",
      "outputs": [
        {
          "name": "",
          "type": "address"
        }
      ],
      "payable": false,
      "stateMutability": "view",
      "type": "function"
    },
    {
      "constant": true,
      "inputs": [],
      "name": "nameFactoryAddress",
      "outputs": [
        {
          "name": "",
          "type": "address"
        }
      ],
      "payable": false,
      "stateMutability": "view",
      "type": "function"
    },
    {
      "constant": false,
      "inputs": [
        {
          "name": "_theAO",
          "type": "address"
        }
      ],
      "name": "transferOwnership",
      "outputs": [],
      "payable": false,
      "stateMutability": "nonpayable",
      "type": "function"
    },
    {
      "inputs": [
        {
          "name": "_nameFactoryAddress",
          "type": "address"
        },
        {
          "name": "_voiceAddress",
          "type": "address"
        },
        {
          "name": "_nameTAOPositionAddress",
          "type": "address"
        }
      ],
      "payable": false,
      "stateMutability": "nonpayable",
      "type": "constructor"
    },
    {
      "constant": false,
      "inputs": [
        {
          "name": "_voiceAddress",
          "type": "address"
        }
      ],
      "name": "setVoiceAddress",
      "outputs": [],
      "payable": false,
      "stateMutability": "nonpayable",
      "type": "function"
    },
    {
      "constant": false,
      "inputs": [
        {
          "name": "_taoId",
          "type": "address"
        },
        {
          "name": "_voiceAmount",
          "type": "uint256"
        }
      ],
      "name": "stakeVoice",
      "outputs": [],
      "payable": false,
      "stateMutability": "nonpayable",
      "type": "function"
    },
    {
      "constant": false,
      "inputs": [
        {
          "name": "_taoId",
          "type": "address"
        },
        {
          "name": "_voiceAmount",
          "type": "uint256"
        }
      ],
      "name": "unstakeVoice",
      "outputs": [],
      "payable": false,
      "stateMutability": "nonpayable",
      "type": "function"
    }
  ],
  "bytecode": "0x60806040523480156200001157600080fd5b506040516060806200126e833981018060405260608110156200003357600080fd5b508051602082015160409092015160008054600160a060020a03191633179055909190826200006b816401000000006200009d810204565b506200008082640100000000620001a2810204565b6200009481640100000000620002a7810204565b505050620003ac565b600054600154604080517ff66afcac000000000000000000000000000000000000000000000000000000008152336004820152600160a060020a0393841660248201529290911660448301525173__AOLibrary_____________________________9163f66afcac916064808301926020929190829003018186803b1580156200012657600080fd5b505af41580156200013b573d6000803e3d6000fd5b505050506040513d60208110156200015257600080fd5b505115156200016057600080fd5b600160a060020a03811615156200017657600080fd5b60038054600160a060020a03909216600160a060020a0319928316811790915560058054909216179055565b600054600154604080517ff66afcac000000000000000000000000000000000000000000000000000000008152336004820152600160a060020a0393841660248201529290911660448301525173__AOLibrary_____________________________9163f66afcac916064808301926020929190829003018186803b1580156200022b57600080fd5b505af415801562000240573d6000803e3d6000fd5b505050506040513d60208110156200025757600080fd5b505115156200026557600080fd5b600160a060020a03811615156200027b57600080fd5b60088054600160a060020a03909216600160a060020a0319928316811790915560098054909216179055565b600054600154604080517ff66afcac000000000000000000000000000000000000000000000000000000008152336004820152600160a060020a0393841660248201529290911660448301525173__AOLibrary_____________________________9163f66afcac916064808301926020929190829003018186803b1580156200033057600080fd5b505af415801562000345573d6000803e3d6000fd5b505050506040513d60208110156200035c57600080fd5b505115156200036a57600080fd5b600160a060020a03811615156200038057600080fd5b60018054600160a060020a03909216600160a060020a0319928316811790915560068054909216179055565b610eb280620003bc6000396000f3fe608060405234801561001057600080fd5b50600436106100ee5760003560e060020a900480638c92436111610090578063a9b6b38e1161006a578063a9b6b38e14610255578063bc4062061461025d578063f2fde38b14610265578063f92978431461028b576100ee565b80638c924361146101ed5780639b19251a14610213578063a4e5fad21461024d576100ee565b80632d2f45b9116100cc5780632d2f45b91461016d5780634ef033f01461019157806353d6fd59146101995780635cfaf2ef146101c7576100ee565b8063034767ec146100f357806319d4cc31146101215780631dfde2bd14610147575b600080fd5b61011f6004803603604081101561010957600080fd5b50600160a060020a0381351690602001356102b7565b005b61011f6004803603602081101561013757600080fd5b5035600160a060020a03166105f2565b61011f6004803603602081101561015d57600080fd5b5035600160a060020a03166106e9565b6101756107e3565b60408051600160a060020a039092168252519081900360200190f35b6101756107f2565b61011f600480360360408110156101af57600080fd5b50600160a060020a0381351690602001351515610801565b61011f600480360360208110156101dd57600080fd5b5035600160a060020a03166108ea565b61011f6004803603602081101561020357600080fd5b5035600160a060020a03166109e1565b6102396004803603602081101561022957600080fd5b5035600160a060020a0316610ad8565b604080519115158252519081900360200190f35b610175610aed565b610175610afc565b610175610b0b565b61011f6004803603602081101561027b57600080fd5b5035600160a060020a0316610b1a565b61011f600480360360408110156102a157600080fd5b50600160a060020a038135169060200135610c07565b8173__AOLibrary_____________________________632fca5414826040518263ffffffff1660e060020a0281526004018082600160a060020a0316600160a060020a0316815260200191505060206040518083038186803b15801561031c57600080fd5b505af4158015610330573d6000803e3d6000fd5b505050506040513d602081101561034657600080fd5b5051151561035357600080fd5b6005546040805160e060020a63029b7d530281523360048201529051600092600160a060020a03169163029b7d53916024808301926020929190829003018186803b1580156103a157600080fd5b505afa1580156103b5573d6000803e3d6000fd5b505050506040513d60208110156103cb57600080fd5b5051600160a060020a031614156103e157600080fd5b6007546005546040805160e060020a63029b7d530281523360048201529051600160a060020a0393841693633ebc2ab393169163029b7d53916024808301926020929190829003018186803b15801561043957600080fd5b505afa15801561044d573d6000803e3d6000fd5b505050506040513d602081101561046357600080fd5b50516040805160e060020a63ffffffff8516028152600160a060020a039092166004830152516024808301926020929190829003018186803b1580156104a857600080fd5b505afa1580156104bc573d6000803e3d6000fd5b505050506040513d60208110156104d257600080fd5b5051156104de57600080fd5b6009546005546040805160e060020a63029b7d530281523360048201529051600160a060020a039384169363bf6eac2f93169163029b7d53916024808301926020929190829003018186803b15801561053657600080fd5b505afa15801561054a573d6000803e3d6000fd5b505050506040513d602081101561056057600080fd5b50516040805160e060020a63ffffffff8516028152600160a060020a0392831660048201529187166024830152604482018690525160648083019260209291908290030181600087803b1580156105b657600080fd5b505af11580156105ca573d6000803e3d6000fd5b505050506040513d60208110156105e057600080fd5b505115156105ed57600080fd5b505050565b6000546001546040805160e260020a633d9abf2b028152336004820152600160a060020a0393841660248201529290911660448301525173__AOLibrary_____________________________9163f66afcac916064808301926020929190829003018186803b15801561066457600080fd5b505af4158015610678573d6000803e3d6000fd5b505050506040513d602081101561068e57600080fd5b5051151561069b57600080fd5b600160a060020a03811615156106b057600080fd5b60088054600160a060020a0390921673ffffffffffffffffffffffffffffffffffffffff19928316811790915560098054909216179055565b6000546001546040805160e260020a633d9abf2b028152336004820152600160a060020a0393841660248201529290911660448301525173__AOLibrary_____________________________9163f66afcac916064808301926020929190829003018186803b15801561075b57600080fd5b505af415801561076f573d6000803e3d6000fd5b505050506040513d602081101561078557600080fd5b5051151561079257600080fd5b600160a060020a03811615156107a757600080fd5b6004805473ffffffffffffffffffffffffffffffffffffffff19908116600160a060020a03938416179182905560078054929093169116179055565b600854600160a060020a031681565b600154600160a060020a031681565b6000546001546040805160e260020a633d9abf2b028152336004820152600160a060020a0393841660248201529290911660448301525173__AOLibrary_____________________________9163f66afcac916064808301926020929190829003018186803b15801561087357600080fd5b505af4158015610887573d6000803e3d6000fd5b505050506040513d602081101561089d57600080fd5b505115156108aa57600080fd5b600160a060020a03821615156108bf57600080fd5b600160a060020a03919091166000908152600260205260409020805460ff1916911515919091179055565b6000546001546040805160e260020a633d9abf2b028152336004820152600160a060020a0393841660248201529290911660448301525173__AOLibrary_____________________________9163f66afcac916064808301926020929190829003018186803b15801561095c57600080fd5b505af4158015610970573d6000803e3d6000fd5b505050506040513d602081101561098657600080fd5b5051151561099357600080fd5b600160a060020a03811615156109a857600080fd5b60018054600160a060020a0390921673ffffffffffffffffffffffffffffffffffffffff19928316811790915560068054909216179055565b6000546001546040805160e260020a633d9abf2b028152336004820152600160a060020a0393841660248201529290911660448301525173__AOLibrary_____________________________9163f66afcac916064808301926020929190829003018186803b158015610a5357600080fd5b505af4158015610a67573d6000803e3d6000fd5b505050506040513d6020811015610a7d57600080fd5b50511515610a8a57600080fd5b600160a060020a0381161515610a9f57600080fd5b60038054600160a060020a0390921673ffffffffffffffffffffffffffffffffffffffff19928316811790915560058054909216179055565b60026020526000908152604090205460ff1681565b600454600160a060020a031681565b600054600160a060020a031681565b600354600160a060020a031681565b6000546001546040805160e260020a633d9abf2b028152336004820152600160a060020a0393841660248201529290911660448301525173__AOLibrary_____________________________9163f66afcac916064808301926020929190829003018186803b158015610b8c57600080fd5b505af4158015610ba0573d6000803e3d6000fd5b505050506040513d6020811015610bb657600080fd5b50511515610bc357600080fd5b600160a060020a0381161515610bd857600080fd5b6000805473ffffffffffffffffffffffffffffffffffffffff1916600160a060020a0392909216919091179055565b8173__AOLibrary_____________________________632fca5414826040518263ffffffff1660e060020a0281526004018082600160a060020a0316600160a060020a0316815260200191505060206040518083038186803b158015610c6c57600080fd5b505af4158015610c80573d6000803e3d6000fd5b505050506040513d6020811015610c9657600080fd5b50511515610ca357600080fd5b6005546040805160e060020a63029b7d530281523360048201529051600092600160a060020a03169163029b7d53916024808301926020929190829003018186803b158015610cf157600080fd5b505afa158015610d05573d6000803e3d6000fd5b505050506040513d6020811015610d1b57600080fd5b5051600160a060020a03161415610d3157600080fd5b6007546005546040805160e060020a63029b7d530281523360048201529051600160a060020a0393841693633ebc2ab393169163029b7d53916024808301926020929190829003018186803b158015610d8957600080fd5b505afa158015610d9d573d6000803e3d6000fd5b505050506040513d6020811015610db357600080fd5b50516040805160e060020a63ffffffff8516028152600160a060020a039092166004830152516024808301926020929190829003018186803b158015610df857600080fd5b505afa158015610e0c573d6000803e3d6000fd5b505050506040513d6020811015610e2257600080fd5b505115610e2e57600080fd5b6009546005546040805160e060020a63029b7d530281523360048201529051600160a060020a03938416936360829f8a93169163029b7d53916024808301926020929190829003018186803b15801561053657600080fdfea165627a7a72305820a3b6406401e6c21686d80e8144250934cfb22eeeac7cebe6b36e836021969f7e0029",
  "source": "pragma solidity ^0.5.4;\n\nimport './TAOController.sol';\nimport './Voice.sol';\n\n/**\n * @title TAOVoice\n *\n * The purpose of this contract is for Name to stake/unstake Voice on a TAO\n */\ncontract TAOVoice is TAOController {\n\taddress public voiceAddress;\n\n\tVoice internal _voice;\n\n\t/**\n\t * @dev Constructor function\n\t */\n\tconstructor(address _nameFactoryAddress, address _voiceAddress, address _nameTAOPositionAddress)\n\t\tTAOController(_nameFactoryAddress) public {\n\t\tsetVoiceAddress(_voiceAddress);\n\t\tsetNameTAOPositionAddress(_nameTAOPositionAddress);\n\t}\n\n\t/***** The AO ONLY METHODS *****/\n\t/**\n\t * @dev The AO set the Voice Address\n\t * @param _voiceAddress The address of Voice\n\t */\n\tfunction setVoiceAddress(address _voiceAddress) public onlyTheAO {\n\t\trequire (_voiceAddress != address(0));\n\t\tvoiceAddress = _voiceAddress;\n\t\t_voice = Voice(_voiceAddress);\n\t}\n\n\t/***** PUBLIC METHODS *****/\n\t/**\n\t * @dev Name stakes Voice on a TAO\n\t * @param _taoId The ID of the TAO\n\t * @param _voiceAmount The amount of Voice to stake\n\t */\n\tfunction stakeVoice(address _taoId, uint256 _voiceAmount) public isTAO(_taoId) senderIsName senderNameNotCompromised {\n\t\trequire (_voice.stake(_nameFactory.ethAddressToNameId(msg.sender), _taoId, _voiceAmount));\n\t}\n\n\t/**\n\t * @dev Name unstakes Voice on a TAO\n\t * @param _taoId The ID of the TAO\n\t * @param _voiceAmount The amount of Voice to unstake\n\t */\n\tfunction unstakeVoice(address _taoId, uint256 _voiceAmount) public isTAO(_taoId) senderIsName senderNameNotCompromised {\n\t\trequire (_voice.unstake(_nameFactory.ethAddressToNameId(msg.sender), _taoId, _voiceAmount));\n\t}\n}\n",
  "sourcePath": "/usr/local/ao-contracts/contracts/TAOVoice.sol",
  "compiler": {
    "name": "solc",
    "version": "0.5.4+commit.9549d8ff.Emscripten.clang"
  },
  "schemaVersion": "3.0.2",
  "updatedAt": "2019-03-21T02:41:21.026Z",
  "devdoc": {
    "methods": {
      "constructor": {
        "details": "Constructor function"
      },
      "setNameAccountRecoveryAddress(address)": {
        "details": "The AO set the NameAccountRecovery Address",
        "params": {
          "_nameAccountRecoveryAddress": "The address of NameAccountRecovery"
        }
      },
      "setNameFactoryAddress(address)": {
        "details": "The AO sets NameFactory address",
        "params": {
          "_nameFactoryAddress": "The address of NameFactory"
        }
      },
      "setNameTAOPositionAddress(address)": {
        "details": "The AO sets NameTAOPosition address",
        "params": {
          "_nameTAOPositionAddress": "The address of NameTAOPosition"
        }
      },
      "setVoiceAddress(address)": {
        "details": "The AO set the Voice Address",
        "params": {
          "_voiceAddress": "The address of Voice"
        }
      },
      "setWhitelist(address,bool)": {
        "details": "Whitelist `_account` address to transact on behalf of others",
        "params": {
          "_account": "The address to whitelist",
          "_whitelist": "Either to whitelist or not"
        }
      },
      "stakeVoice(address,uint256)": {
        "details": "Name stakes Voice on a TAO",
        "params": {
          "_taoId": "The ID of the TAO",
          "_voiceAmount": "The amount of Voice to stake"
        }
      },
      "transferOwnership(address)": {
        "details": "Transfer ownership of The AO to new address",
        "params": {
          "_theAO": "The new address to be transferred"
        }
      },
      "unstakeVoice(address,uint256)": {
        "details": "Name unstakes Voice on a TAO",
        "params": {
          "_taoId": "The ID of the TAO",
          "_voiceAmount": "The amount of Voice to unstake"
        }
      }
    },
    "title": "TAOVoice * The purpose of this contract is for Name to stake/unstake Voice on a TAO"
  },
  "userdoc": {
    "methods": {}
  }
}