{
	"contractName": "TheAO",
	"abi": [
		{
			"constant": true,
			"inputs": [],
			"name": "nameTAOPositionAddress",
			"outputs": [
				{
					"name": "",
					"type": "address"
				}
			],
			"payable": false,
			"stateMutability": "view",
			"type": "function"
		},
		{
			"constant": true,
			"inputs": [
				{
					"name": "",
					"type": "address"
				}
			],
			"name": "whitelist",
			"outputs": [
				{
					"name": "",
					"type": "bool"
				}
			],
			"payable": false,
			"stateMutability": "view",
			"type": "function"
		},
		{
			"constant": true,
			"inputs": [],
			"name": "theAO",
			"outputs": [
				{
					"name": "",
					"type": "address"
				}
			],
			"payable": false,
			"stateMutability": "view",
			"type": "function"
		},
		{
			"inputs": [],
			"payable": false,
			"stateMutability": "nonpayable",
			"type": "constructor"
		},
		{
			"constant": false,
			"inputs": [
				{
					"name": "_theAO",
					"type": "address"
				}
			],
			"name": "transferOwnership",
			"outputs": [],
			"payable": false,
			"stateMutability": "nonpayable",
			"type": "function"
		},
		{
			"constant": false,
			"inputs": [
				{
					"name": "_account",
					"type": "address"
				},
				{
					"name": "_whitelist",
					"type": "bool"
				}
			],
			"name": "setWhitelist",
			"outputs": [],
			"payable": false,
			"stateMutability": "nonpayable",
			"type": "function"
		}
	],
	"bytecode": "0x608060405234801561001057600080fd5b5060008054600160a060020a03191633179055610245806100326000396000f3fe608060405234801561001057600080fd5b5060043610610073577c010000000000000000000000000000000000000000000000000000000060003504634ef033f0811461007857806353d6fd591461009c5780639b19251a146100cc578063a9b6b38e14610106578063f2fde38b1461010e575b600080fd5b610080610134565b60408051600160a060020a039092168252519081900360200190f35b6100ca600480360360408110156100b257600080fd5b50600160a060020a0381351690602001351515610143565b005b6100f2600480360360208110156100e257600080fd5b5035600160a060020a031661019a565b604080519115158252519081900360200190f35b6100806101af565b6100ca6004803603602081101561012457600080fd5b5035600160a060020a03166101be565b600154600160a060020a031681565b600054600160a060020a0316331461015a57600080fd5b600160a060020a038216151561016f57600080fd5b600160a060020a03919091166000908152600260205260409020805460ff1916911515919091179055565b60026020526000908152604090205460ff1681565b600054600160a060020a031681565b600054600160a060020a031633146101d557600080fd5b600160a060020a03811615156101ea57600080fd5b6000805473ffffffffffffffffffffffffffffffffffffffff1916600160a060020a039290921691909117905556fea165627a7a723058208778a18c27a2158ce094bb149bd9022e264bfddfe6b8855eeb1f2a36ee85b41c0029",
	"source": "pragma solidity >=0.5.4 <0.6.0;\n\ncontract TheAO {\n\taddress public theAO;\n\taddress public nameTAOPositionAddress;\n\n\t// Check whether an address is whitelisted and granted access to transact\n\t// on behalf of others\n\tmapping (address => bool) public whitelist;\n\n\tconstructor() public {\n\t\ttheAO = msg.sender;\n\t}\n\n\t/**\n\t * @dev Checks if msg.sender is in whitelist.\n\t */\n\tmodifier inWhitelist() {\n\t\trequire (whitelist[msg.sender] == true);\n\t\t_;\n\t}\n\n\t/**\n\t * @dev Transfer ownership of The AO to new address\n\t * @param _theAO The new address to be transferred\n\t */\n\tfunction transferOwnership(address _theAO) public {\n\t\trequire (msg.sender == theAO);\n\t\trequire (_theAO != address(0));\n\t\ttheAO = _theAO;\n\t}\n\n\t/**\n\t * @dev Whitelist `_account` address to transact on behalf of others\n\t * @param _account The address to whitelist\n\t * @param _whitelist Either to whitelist or not\n\t */\n\tfunction setWhitelist(address _account, bool _whitelist) public {\n\t\trequire (msg.sender == theAO);\n\t\trequire (_account != address(0));\n\t\twhitelist[_account] = _whitelist;\n\t}\n}\n",
	"sourcePath": "/Users/johanmulyono/Work/AO/ao-contracts/contracts/TheAO.sol",
	"compiler": {
		"name": "solc",
		"version": "0.5.4+commit.9549d8ff.Emscripten.clang"
	},
	"schemaVersion": "3.0.9",
	"updatedAt": "2019-05-24T07:36:51.632Z",
	"devdoc": {
		"methods": {
			"setWhitelist(address,bool)": {
				"details": "Whitelist `_account` address to transact on behalf of others",
				"params": {
					"_account": "The address to whitelist",
					"_whitelist": "Either to whitelist or not"
				}
			},
			"transferOwnership(address)": {
				"details": "Transfer ownership of The AO to new address",
				"params": {
					"_theAO": "The new address to be transferred"
				}
			}
		}
	},
	"userdoc": {
		"methods": {}
	}
}