{
	"contractName": "ThoughtPosition",
	"abi": [
		{
			"constant": true,
			"inputs": [],
			"name": "positionAddress",
			"outputs": [
				{
					"name": "",
					"type": "address"
				}
			],
			"payable": false,
			"stateMutability": "view",
			"type": "function"
		},
		{
			"constant": true,
			"inputs": [],
			"name": "nameFactoryAddress",
			"outputs": [
				{
					"name": "",
					"type": "address"
				}
			],
			"payable": false,
			"stateMutability": "view",
			"type": "function"
		},
		{
			"inputs": [
				{
					"name": "_nameFactoryAddress",
					"type": "address"
				},
				{
					"name": "_positionAddress",
					"type": "address"
				}
			],
			"payable": false,
			"stateMutability": "nonpayable",
			"type": "constructor"
		},
		{
			"anonymous": false,
			"inputs": [
				{
					"indexed": true,
					"name": "thoughtId",
					"type": "address"
				},
				{
					"indexed": false,
					"name": "isTAO",
					"type": "bool"
				}
			],
			"name": "IsTAO",
			"type": "event"
		},
		{
			"constant": true,
			"inputs": [
				{
					"name": "_thoughtId",
					"type": "address"
				}
			],
			"name": "isTAO",
			"outputs": [
				{
					"name": "",
					"type": "bool"
				}
			],
			"payable": false,
			"stateMutability": "view",
			"type": "function"
		},
		{
			"constant": false,
			"inputs": [
				{
					"name": "_thoughtId",
					"type": "address"
				},
				{
					"name": "_positionAmount",
					"type": "uint256"
				}
			],
			"name": "stakePosition",
			"outputs": [],
			"payable": false,
			"stateMutability": "nonpayable",
			"type": "function"
		},
		{
			"constant": false,
			"inputs": [
				{
					"name": "_thoughtId",
					"type": "address"
				},
				{
					"name": "_positionAmount",
					"type": "uint256"
				}
			],
			"name": "unstakePosition",
			"outputs": [],
			"payable": false,
			"stateMutability": "nonpayable",
			"type": "function"
		}
	],
	"bytecode": "0x608060405234801561001057600080fd5b50604051604080610c5783398101604052805160209091015160008054600160a060020a03938416600160a060020a03199182161791829055600180549385169382169390931792839055600280548216928516929092179091556003805490911691909216179055610bcf806100886000396000f3006080604052600436106100535763ffffffff60e060020a6000350416632fca54148114610058578063636a8bd71461008d5780638f4c4ea1146100be578063a9d02ed2146100e4578063bc40620614610108575b600080fd5b34801561006457600080fd5b50610079600160a060020a036004351661011d565b604080519115158252519081900360200190f35b34801561009957600080fd5b506100a26101a3565b60408051600160a060020a039092168252519081900360200190f35b3480156100ca57600080fd5b506100e2600160a060020a03600435166024356101b2565b005b3480156100f057600080fd5b506100e2600160a060020a03600435166024356106a4565b34801561011457600080fd5b506100a2610b94565b6003546040805160e060020a639a25f511028152600160a060020a038481166004830152915160009384931691639a25f51191602480830192602092919082900301818787803b15801561017057600080fd5b505af1158015610184573d6000803e3d6000fd5b505050506040513d602081101561019a57600080fd5b50511192915050565b600154600160a060020a031681565b6000826000600160a060020a031681600160a060020a03166379bddde86040518163ffffffff1660e060020a028152600401602060405180830381600087803b1580156101fe57600080fd5b505af1158015610212573d6000803e3d6000fd5b505050506040513d602081101561022857600080fd5b5051600160a060020a0316148015906102ab575080600160a060020a0316636bccedba6040518163ffffffff1660e060020a028152600401602060405180830381600087803b15801561027a57600080fd5b505af115801561028e573d6000803e3d6000fd5b505050506040513d60208110156102a457600080fd5b505160ff16155b15156102b657600080fd5b6002546040805160e060020a63029b7d53028152336004820181905291519192600092600160a060020a039091169163029b7d5391602480830192602092919082900301818787803b15801561030b57600080fd5b505af115801561031f573d6000803e3d6000fd5b505050506040513d602081101561033557600080fd5b5051600160a060020a0316141561034b57600080fd5b8480600160a060020a031663cf3090126040518163ffffffff1660e060020a028152600401602060405180830381600087803b15801561038a57600080fd5b505af115801561039e573d6000803e3d6000fd5b505050506040513d60208110156103b457600080fd5b505115801561042a575080600160a060020a031663597e1fb56040518163ffffffff1660e060020a028152600401602060405180830381600087803b1580156103fc57600080fd5b505af1158015610410573d6000803e3d6000fd5b505050506040513d602081101561042657600080fd5b5051155b151561043557600080fd5b6003546040805160e060020a639a25f511028152600160a060020a03898116600483015291519190921691639a25f5119160248083019260209291908290030181600087803b15801561048757600080fd5b505af115801561049b573d6000803e3d6000fd5b505050506040513d60208110156104b157600080fd5b50516003546002546040805160e060020a63029b7d530281523360048201529051939750600160a060020a039283169363bf6eac2f939092169163029b7d53916024808201926020929091908290030181600087803b15801561051357600080fd5b505af1158015610527573d6000803e3d6000fd5b505050506040513d602081101561053d57600080fd5b50516040805160e060020a63ffffffff8516028152600160a060020a039283166004820152918a166024830152604482018990525160648083019260209291908290030181600087803b15801561059357600080fd5b505af11580156105a7573d6000803e3d6000fd5b505050506040513d60208110156105bd57600080fd5b505115156105ca57600080fd5b8315801561065657506003546040805160e060020a639a25f511028152600160a060020a03898116600483015291516000939290921691639a25f5119160248082019260209290919082900301818787803b15801561062857600080fd5b505af115801561063c573d6000803e3d6000fd5b505050506040513d602081101561065257600080fd5b5051115b1561069c5760408051600181529051600160a060020a038816917fb0fe2f69515b6dcb621c2b6c8b3c386be532b3a2e947959554580182da0b03e1919081900360200190a25b505050505050565b6000826000600160a060020a031681600160a060020a03166379bddde86040518163ffffffff1660e060020a028152600401602060405180830381600087803b1580156106f057600080fd5b505af1158015610704573d6000803e3d6000fd5b505050506040513d602081101561071a57600080fd5b5051600160a060020a03161480159061079d575080600160a060020a0316636bccedba6040518163ffffffff1660e060020a028152600401602060405180830381600087803b15801561076c57600080fd5b505af1158015610780573d6000803e3d6000fd5b505050506040513d602081101561079657600080fd5b505160ff16155b15156107a857600080fd5b6002546040805160e060020a63029b7d53028152336004820181905291519192600092600160a060020a039091169163029b7d5391602480830192602092919082900301818787803b1580156107fd57600080fd5b505af1158015610811573d6000803e3d6000fd5b505050506040513d602081101561082757600080fd5b5051600160a060020a0316141561083d57600080fd5b8480600160a060020a031663cf3090126040518163ffffffff1660e060020a028152600401602060405180830381600087803b15801561087c57600080fd5b505af1158015610890573d6000803e3d6000fd5b505050506040513d60208110156108a657600080fd5b505115801561091c575080600160a060020a031663597e1fb56040518163ffffffff1660e060020a028152600401602060405180830381600087803b1580156108ee57600080fd5b505af1158015610902573d6000803e3d6000fd5b505050506040513d602081101561091857600080fd5b5051155b151561092757600080fd5b6003546040805160e060020a639a25f511028152600160a060020a03898116600483015291519190921691639a25f5119160248083019260209291908290030181600087803b15801561097957600080fd5b505af115801561098d573d6000803e3d6000fd5b505050506040513d60208110156109a357600080fd5b50516003546002546040805160e060020a63029b7d530281523360048201529051939750600160a060020a03928316936360829f8a939092169163029b7d53916024808201926020929091908290030181600087803b158015610a0557600080fd5b505af1158015610a19573d6000803e3d6000fd5b505050506040513d6020811015610a2f57600080fd5b50516040805160e060020a63ffffffff8516028152600160a060020a039283166004820152918a166024830152604482018990525160648083019260209291908290030181600087803b158015610a8557600080fd5b505af1158015610a99573d6000803e3d6000fd5b505050506040513d6020811015610aaf57600080fd5b50511515610abc57600080fd5b600084118015610b4757506003546040805160e060020a639a25f511028152600160a060020a03898116600483015291519190921691639a25f5119160248083019260209291908290030181600087803b158015610b1957600080fd5b505af1158015610b2d573d6000803e3d6000fd5b505050506040513d6020811015610b4357600080fd5b5051155b1561069c5760408051600081529051600160a060020a038816917fb0fe2f69515b6dcb621c2b6c8b3c386be532b3a2e947959554580182da0b03e1919081900360200190a2505050505050565b600054600160a060020a0316815600a165627a7a723058201a83ad65bb849f77a3a37c32ee93d55ecd97e0355ff40ad38e14b1004a5597c80029",
	"source": "pragma solidity ^0.4.24;\n\nimport './ThoughtController.sol';\n\n/**\n * @title ThoughtPosition\n *\n * The purpose of this contract is for Name to stake/unstake Position on a Thought\n */\ncontract ThoughtPosition is ThoughtController {\n\t// Event to be broadcasted to public when a Thought becomes a TAO, or no longer is a TAO\n\t// TAO is a Thought with Position that is not a Name\n\tevent IsTAO(address indexed thoughtId, bool isTAO);\n\n\t/**\n\t * @dev Constructor function\n\t */\n\tconstructor(address _nameFactoryAddress, address _positionAddress)\n\t\tThoughtController(_nameFactoryAddress, _positionAddress) public {}\n\n\t/**\n\t * @dev Check if Thought is not locked and closed\n\t */\n\tmodifier isActiveThought(address _thoughtId) {\n\t\trequire (Thought(_thoughtId).locked() == false && Thought(_thoughtId).closed() == false);\n\t\t_;\n\t}\n\n\t/**\n\t * @dev Check whether or not a Thought is a TAO\n\t *\t\tTAO is a Thought with Position that is not a Name\n\t * @param _thoughtId The ID of the Thought\n\t * @return true if it's a TAO, false otherwise.\n\t */\n\tfunction isTAO(address _thoughtId) public view returns (bool) {\n\t\treturn (_position.totalThoughtStakedBalance(_thoughtId) > 0);\n\t}\n\n\t/**\n\t * @dev Name stakes Position on a Thought\n\t * @param _thoughtId The ID of the Thought\n\t * @param _positionAmount The amount of Position to stake\n\t */\n\tfunction stakePosition(address _thoughtId, uint256 _positionAmount) public isThought(_thoughtId) senderIsName(msg.sender) isActiveThought(_thoughtId) {\n\t\tuint256 _previousStakedBalance = _position.totalThoughtStakedBalance(_thoughtId);\n\t\trequire (_position.stake(_nameFactory.ethAddressToNameId(msg.sender), _thoughtId, _positionAmount));\n\t\tif (_previousStakedBalance == 0 && _position.totalThoughtStakedBalance(_thoughtId) > 0) {\n\t\t\temit IsTAO(_thoughtId, true);\n\t\t}\n\t}\n\n\t/**\n\t * @dev Name unstakes Position on a Thought\n\t * @param _thoughtId The ID of the Thought\n\t * @param _positionAmount The amount of Position to unstake\n\t */\n\tfunction unstakePosition(address _thoughtId, uint256 _positionAmount) public isThought(_thoughtId) senderIsName(msg.sender) isActiveThought(_thoughtId) {\n\t\tuint256 _previousStakedBalance = _position.totalThoughtStakedBalance(_thoughtId);\n\t\trequire (_position.unstake(_nameFactory.ethAddressToNameId(msg.sender), _thoughtId, _positionAmount));\n\t\tif (_previousStakedBalance > 0 && _position.totalThoughtStakedBalance(_thoughtId) == 0) {\n\t\t\temit IsTAO(_thoughtId, false);\n\t\t}\n\t}\n}\n",
	"sourcePath": "/home/jmulyono/ao-contracts/contracts/ThoughtPosition.sol",
	"compiler": {
		"name": "solc",
		"version": "0.4.24+commit.e67f0147.Emscripten.clang"
	},
	"schemaVersion": "2.0.1",
	"updatedAt": "2018-12-11T08:43:54.374Z"
}