{
	"contractName": "ThoughtFactory",
	"abi": [
		{
			"constant": true,
			"inputs": [],
			"name": "positionAddress",
			"outputs": [
				{
					"name": "",
					"type": "address"
				}
			],
			"payable": false,
			"stateMutability": "view",
			"type": "function"
		},
		{
			"constant": true,
			"inputs": [],
			"name": "nameFactoryAddress",
			"outputs": [
				{
					"name": "",
					"type": "address"
				}
			],
			"payable": false,
			"stateMutability": "view",
			"type": "function"
		},
		{
			"inputs": [
				{
					"name": "_nameFactoryAddress",
					"type": "address"
				},
				{
					"name": "_positionAddress",
					"type": "address"
				}
			],
			"payable": false,
			"stateMutability": "nonpayable",
			"type": "constructor"
		},
		{
			"anonymous": false,
			"inputs": [
				{
					"indexed": true,
					"name": "ethAddress",
					"type": "address"
				},
				{
					"indexed": false,
					"name": "advocateId",
					"type": "address"
				},
				{
					"indexed": false,
					"name": "thoughtId",
					"type": "address"
				},
				{
					"indexed": false,
					"name": "index",
					"type": "uint256"
				},
				{
					"indexed": false,
					"name": "from",
					"type": "address"
				},
				{
					"indexed": false,
					"name": "fromThoughtTypeId",
					"type": "uint8"
				},
				{
					"indexed": false,
					"name": "to",
					"type": "address"
				}
			],
			"name": "CreateThought",
			"type": "event"
		},
		{
			"anonymous": false,
			"inputs": [
				{
					"indexed": true,
					"name": "thoughtId",
					"type": "address"
				},
				{
					"indexed": false,
					"name": "oldAdvocateId",
					"type": "address"
				},
				{
					"indexed": false,
					"name": "newAdvocateId",
					"type": "address"
				}
			],
			"name": "SetThoughtAdvocate",
			"type": "event"
		},
		{
			"anonymous": false,
			"inputs": [
				{
					"indexed": true,
					"name": "thoughtId",
					"type": "address"
				},
				{
					"indexed": false,
					"name": "oldListenerId",
					"type": "address"
				},
				{
					"indexed": false,
					"name": "newListenerId",
					"type": "address"
				}
			],
			"name": "SetThoughtListener",
			"type": "event"
		},
		{
			"anonymous": false,
			"inputs": [
				{
					"indexed": true,
					"name": "thoughtId",
					"type": "address"
				},
				{
					"indexed": false,
					"name": "oldSpeakerId",
					"type": "address"
				},
				{
					"indexed": false,
					"name": "newSpeakerId",
					"type": "address"
				}
			],
			"name": "SetThoughtSpeaker",
			"type": "event"
		},
		{
			"anonymous": false,
			"inputs": [
				{
					"indexed": true,
					"name": "parentThoughtId",
					"type": "address"
				},
				{
					"indexed": false,
					"name": "childThoughtId",
					"type": "address"
				}
			],
			"name": "AddChildThought",
			"type": "event"
		},
		{
			"anonymous": false,
			"inputs": [
				{
					"indexed": true,
					"name": "parentThoughtId",
					"type": "address"
				},
				{
					"indexed": false,
					"name": "orphanThoughtId",
					"type": "address"
				}
			],
			"name": "AddOrphanThought",
			"type": "event"
		},
		{
			"anonymous": false,
			"inputs": [
				{
					"indexed": true,
					"name": "listenerId",
					"type": "address"
				},
				{
					"indexed": false,
					"name": "parentThoughtId",
					"type": "address"
				},
				{
					"indexed": false,
					"name": "orphanThoughtId",
					"type": "address"
				}
			],
			"name": "ApproveOrphanThought",
			"type": "event"
		},
		{
			"anonymous": false,
			"inputs": [
				{
					"indexed": true,
					"name": "thoughtId",
					"type": "address"
				},
				{
					"indexed": false,
					"name": "locked",
					"type": "bool"
				}
			],
			"name": "SetThoughtLocked",
			"type": "event"
		},
		{
			"constant": false,
			"inputs": [
				{
					"name": "_datHash",
					"type": "string"
				},
				{
					"name": "_database",
					"type": "string"
				},
				{
					"name": "_keyValue",
					"type": "string"
				},
				{
					"name": "_contentId",
					"type": "bytes32"
				},
				{
					"name": "_from",
					"type": "address"
				}
			],
			"name": "createThought",
			"outputs": [],
			"payable": false,
			"stateMutability": "nonpayable",
			"type": "function"
		},
		{
			"constant": true,
			"inputs": [
				{
					"name": "_thoughtId",
					"type": "address"
				}
			],
			"name": "getThought",
			"outputs": [
				{
					"name": "",
					"type": "string"
				},
				{
					"name": "",
					"type": "address"
				},
				{
					"name": "",
					"type": "address"
				},
				{
					"name": "",
					"type": "address"
				},
				{
					"name": "",
					"type": "address"
				},
				{
					"name": "",
					"type": "string"
				},
				{
					"name": "",
					"type": "string"
				},
				{
					"name": "",
					"type": "string"
				},
				{
					"name": "",
					"type": "bytes32"
				},
				{
					"name": "",
					"type": "uint8"
				}
			],
			"payable": false,
			"stateMutability": "view",
			"type": "function"
		},
		{
			"constant": true,
			"inputs": [],
			"name": "getTotalThoughtsCount",
			"outputs": [
				{
					"name": "",
					"type": "uint256"
				}
			],
			"payable": false,
			"stateMutability": "view",
			"type": "function"
		},
		{
			"constant": true,
			"inputs": [
				{
					"name": "_from",
					"type": "uint256"
				},
				{
					"name": "_to",
					"type": "uint256"
				}
			],
			"name": "getThoughtIds",
			"outputs": [
				{
					"name": "",
					"type": "address[]"
				}
			],
			"payable": false,
			"stateMutability": "view",
			"type": "function"
		},
		{
			"constant": false,
			"inputs": [
				{
					"name": "_thoughtId",
					"type": "address"
				},
				{
					"name": "_newAdvocateId",
					"type": "address"
				}
			],
			"name": "setThoughtAdvocate",
			"outputs": [],
			"payable": false,
			"stateMutability": "nonpayable",
			"type": "function"
		},
		{
			"constant": false,
			"inputs": [
				{
					"name": "_thoughtId",
					"type": "address"
				},
				{
					"name": "_newListenerId",
					"type": "address"
				}
			],
			"name": "setThoughtListener",
			"outputs": [],
			"payable": false,
			"stateMutability": "nonpayable",
			"type": "function"
		},
		{
			"constant": false,
			"inputs": [
				{
					"name": "_thoughtId",
					"type": "address"
				},
				{
					"name": "_newSpeakerId",
					"type": "address"
				}
			],
			"name": "setThoughtSpeaker",
			"outputs": [],
			"payable": false,
			"stateMutability": "nonpayable",
			"type": "function"
		},
		{
			"constant": true,
			"inputs": [
				{
					"name": "_thoughtId",
					"type": "address"
				}
			],
			"name": "getThoughtRelationship",
			"outputs": [
				{
					"name": "",
					"type": "address"
				},
				{
					"name": "",
					"type": "address"
				},
				{
					"name": "",
					"type": "address"
				}
			],
			"payable": false,
			"stateMutability": "view",
			"type": "function"
		},
		{
			"constant": true,
			"inputs": [
				{
					"name": "_thoughtId",
					"type": "address"
				},
				{
					"name": "_from",
					"type": "uint256"
				},
				{
					"name": "_to",
					"type": "uint256"
				}
			],
			"name": "getSubThoughtIds",
			"outputs": [
				{
					"name": "",
					"type": "address[]"
				}
			],
			"payable": false,
			"stateMutability": "view",
			"type": "function"
		},
		{
			"constant": true,
			"inputs": [
				{
					"name": "_thoughtId",
					"type": "address"
				}
			],
			"name": "getTotalSubThoughtsCount",
			"outputs": [
				{
					"name": "",
					"type": "uint256"
				}
			],
			"payable": false,
			"stateMutability": "view",
			"type": "function"
		},
		{
			"constant": true,
			"inputs": [
				{
					"name": "_thoughtId",
					"type": "address"
				}
			],
			"name": "getTotalChildThoughtsCount",
			"outputs": [
				{
					"name": "",
					"type": "uint256"
				}
			],
			"payable": false,
			"stateMutability": "view",
			"type": "function"
		},
		{
			"constant": true,
			"inputs": [
				{
					"name": "_thoughtId",
					"type": "address"
				}
			],
			"name": "getTotalOrphanThoughtsCount",
			"outputs": [
				{
					"name": "",
					"type": "uint256"
				}
			],
			"payable": false,
			"stateMutability": "view",
			"type": "function"
		},
		{
			"constant": true,
			"inputs": [
				{
					"name": "_thoughtId",
					"type": "address"
				},
				{
					"name": "_childThoughtId",
					"type": "address"
				}
			],
			"name": "isChildThoughtOfThought",
			"outputs": [
				{
					"name": "",
					"type": "bool"
				}
			],
			"payable": false,
			"stateMutability": "view",
			"type": "function"
		},
		{
			"constant": true,
			"inputs": [
				{
					"name": "_thoughtId",
					"type": "address"
				},
				{
					"name": "_orphanThoughtId",
					"type": "address"
				}
			],
			"name": "isOrphanThoughtOfThought",
			"outputs": [
				{
					"name": "",
					"type": "bool"
				}
			],
			"payable": false,
			"stateMutability": "view",
			"type": "function"
		},
		{
			"constant": false,
			"inputs": [
				{
					"name": "_thoughtId",
					"type": "address"
				},
				{
					"name": "_orphanThoughtId",
					"type": "address"
				}
			],
			"name": "approveOrphanThought",
			"outputs": [],
			"payable": false,
			"stateMutability": "nonpayable",
			"type": "function"
		},
		{
			"constant": false,
			"inputs": [
				{
					"name": "_thoughtId",
					"type": "address"
				},
				{
					"name": "_locked",
					"type": "bool"
				}
			],
			"name": "setThoughtLocked",
			"outputs": [],
			"payable": false,
			"stateMutability": "nonpayable",
			"type": "function"
		}
	],
	"bytecode": "0x608060405234801561001057600080fd5b50604051604080614e0583398101604052805160209091015160008054600160a060020a03938416600160a060020a03199182161791829055600180549385169382169390931792839055600280548216928516929092179091556003805490911691909216179055614d7d806100886000396000f300608060405260043610620000f55763ffffffff60e060020a6000350416631731d1628114620000fa57806327fcb15314620001385780632a90da3214620001a85780633a441f5214620001de5780635f2d90d514620002085780636124f60a146200022c578063636a8bd71462000486578063750091e414620004ba57806376d8667f14620004e55780638cd9f193146200050f5780639fed49ab14620005f8578063a6fd2c661462000622578063b1920bd21462000671578063b61fbe881462000689578063b907e79414620006b3578063bc40620614620006dd578063cfcffa9314620006f5578063e65785cc1462000719575b600080fd5b3480156200010757600080fd5b5062000124600160a060020a036004358116906024351662000743565b604080519115158252519081900360200190f35b3480156200014557600080fd5b5062000156600435602435620009ec565b60408051602080825283518183015283519192839290830191858101910280838360005b83811015620001945781810151838201526020016200017a565b505050509050019250505060405180910390f35b348015620001b557600080fd5b50620001cc600160a060020a036004351662000ae4565b60408051918252519081900360200190f35b348015620001eb57600080fd5b5062000156600160a060020a036004351660243560443562000c64565b3480156200021557600080fd5b50620001cc600160a060020a036004351662000e79565b3480156200023957600080fd5b5062000250600160a060020a036004351662000fc4565b60405180806020018b600160a060020a0316600160a060020a031681526020018a600160a060020a0316600160a060020a0316815260200189600160a060020a0316600160a060020a0316815260200188600160a060020a0316600160a060020a0316815260200180602001806020018060200187600019166000191681526020018660ff1660ff16815260200185810385528f818151815260200191508051906020019080838360005b8381101562000315578181015183820152602001620002fb565b50505050905090810190601f168015620003435780820380516001836020036101000a031916815260200191505b5085810384528a5181528a516020918201918c019080838360005b83811015620003785781810151838201526020016200035e565b50505050905090810190601f168015620003a65780820380516001836020036101000a031916815260200191505b5085810383528951815289516020918201918b019080838360005b83811015620003db578181015183820152602001620003c1565b50505050905090810190601f168015620004095780820380516001836020036101000a031916815260200191505b5085810382528851815288516020918201918a019080838360005b838110156200043e57818101518382015260200162000424565b50505050905090810190601f1680156200046c5780820380516001836020036101000a031916815260200191505b509e50505050505050505050505050505060405180910390f35b3480156200049357600080fd5b506200049e6200166c565b60408051600160a060020a039092168252519081900360200190f35b348015620004c757600080fd5b50620004e3600160a060020a036004351660243515156200167b565b005b348015620004f257600080fd5b5062000124600160a060020a036004358116906024351662001a08565b3480156200051c57600080fd5b506040805160206004803580820135601f8101849004840285018401909552848452620004e394369492936024939284019190819084018382808284375050604080516020601f89358b018035918201839004830284018301909452808352979a99988101979196509182019450925082915084018382808284375050604080516020601f89358b018035918201839004830284018301909452808352979a9998810197919650918201945092508291508401838280828437509497505084359550505050602090910135600160a060020a0316905062001c7a565b3480156200060557600080fd5b50620004e3600160a060020a03600435811690602435166200264e565b3480156200062f57600080fd5b5062000646600160a060020a036004351662002b68565b60408051600160a060020a039485168152928416602084015292168183015290519081900360600190f35b3480156200067e57600080fd5b50620001cc62002d00565b3480156200069657600080fd5b50620004e3600160a060020a036004358116906024351662002d06565b348015620006c057600080fd5b50620004e3600160a060020a03600435811690602435166200300e565b348015620006ea57600080fd5b506200049e62003528565b3480156200070257600080fd5b50620001cc600160a060020a036004351662003537565b3480156200072657600080fd5b50620004e3600160a060020a036004358116906024351662003682565b6000826000600160a060020a031681600160a060020a03166379bddde86040518163ffffffff1660e060020a028152600401602060405180830381600087803b1580156200079057600080fd5b505af1158015620007a5573d6000803e3d6000fd5b505050506040513d6020811015620007bc57600080fd5b5051600160a060020a03161480159062000843575080600160a060020a0316636bccedba6040518163ffffffff1660e060020a028152600401602060405180830381600087803b1580156200081057600080fd5b505af115801562000825573d6000803e3d6000fd5b505050506040513d60208110156200083c57600080fd5b505160ff16155b15156200084f57600080fd5b826000600160a060020a031681600160a060020a03166379bddde86040518163ffffffff1660e060020a028152600401602060405180830381600087803b1580156200089a57600080fd5b505af1158015620008af573d6000803e3d6000fd5b505050506040513d6020811015620008c657600080fd5b5051600160a060020a0316148015906200094d575080600160a060020a0316636bccedba6040518163ffffffff1660e060020a028152600401602060405180830381600087803b1580156200091a57600080fd5b505af11580156200092f573d6000803e3d6000fd5b505050506040513d60208110156200094657600080fd5b505160ff16155b15156200095957600080fd5b84600160a060020a03166344b194bd856040518263ffffffff1660e060020a0281526004018082600160a060020a0316600160a060020a03168152602001915050602060405180830381600087803b158015620009b557600080fd5b505af1158015620009ca573d6000803e3d6000fd5b505050506040513d6020811015620009e157600080fd5b505195945050505050565b606080600080851015801562000a025750848410155b801562000a10575060045484105b151562000a1c57600080fd5b62000a41600162000a34868863ffffffff62003b9c16565b9063ffffffff62003baf16565b60405190808252806020026020018201604052801562000a6b578160200160208202803883390190505b5091508490505b83811162000adc57600480548290811062000a8957fe5b600091825260209091200154600160a060020a03168262000ab1838863ffffffff62003b9c16565b8151811062000abc57fe5b600160a060020a0390921660209283029091019091015260010162000a72565b509392505050565b6000816000600160a060020a031681600160a060020a03166379bddde86040518163ffffffff1660e060020a028152600401602060405180830381600087803b15801562000b3157600080fd5b505af115801562000b46573d6000803e3d6000fd5b505050506040513d602081101562000b5d57600080fd5b5051600160a060020a03161480159062000be4575080600160a060020a0316636bccedba6040518163ffffffff1660e060020a028152600401602060405180830381600087803b15801562000bb157600080fd5b505af115801562000bc6573d6000803e3d6000fd5b505050506040513d602081101562000bdd57600080fd5b505160ff16155b151562000bf057600080fd5b82600160a060020a0316638005e7786040518163ffffffff1660e060020a028152600401602060405180830381600087803b15801562000c2f57600080fd5b505af115801562000c44573d6000803e3d6000fd5b505050506040513d602081101562000c5b57600080fd5b50519392505050565b6060836000600160a060020a031681600160a060020a03166379bddde86040518163ffffffff1660e060020a028152600401602060405180830381600087803b15801562000cb157600080fd5b505af115801562000cc6573d6000803e3d6000fd5b505050506040513d602081101562000cdd57600080fd5b5051600160a060020a03161480159062000d64575080600160a060020a0316636bccedba6040518163ffffffff1660e060020a028152600401602060405180830381600087803b15801562000d3157600080fd5b505af115801562000d46573d6000803e3d6000fd5b505050506040513d602081101562000d5d57600080fd5b505160ff16155b151562000d7057600080fd5b6001841015801562000d825750838310155b151562000d8e57600080fd5b84600160a060020a0316630e54d78585856040518363ffffffff1660e060020a0281526004018083815260200182815260200192505050600060405180830381600087803b15801562000de057600080fd5b505af115801562000df5573d6000803e3d6000fd5b505050506040513d6000823e601f3d908101601f19168201604052602081101562000e1f57600080fd5b81019080805164010000000081111562000e3857600080fd5b8201602081018481111562000e4c57600080fd5b815185602082028301116401000000008211171562000e6a57600080fd5b50909998505050505050505050565b6000816000600160a060020a031681600160a060020a03166379bddde86040518163ffffffff1660e060020a028152600401602060405180830381600087803b15801562000ec657600080fd5b505af115801562000edb573d6000803e3d6000fd5b505050506040513d602081101562000ef257600080fd5b5051600160a060020a03161480159062000f79575080600160a060020a0316636bccedba6040518163ffffffff1660e060020a028152600401602060405180830381600087803b15801562000f4657600080fd5b505af115801562000f5b573d6000803e3d6000fd5b505050506040513d602081101562000f7257600080fd5b505160ff16155b151562000f8557600080fd5b82600160a060020a0316638c5c3e236040518163ffffffff1660e060020a028152600401602060405180830381600087803b15801562000c2f57600080fd5b6060600080600080606080606060008060008b905080600160a060020a0316630785581c6040518163ffffffff1660e060020a028152600401600060405180830381600087803b1580156200101857600080fd5b505af11580156200102d573d6000803e3d6000fd5b505050506040513d6000823e601f3d908101601f1916820160405260208110156200105757600080fd5b8101908080516401000000008111156200107057600080fd5b820160208101848111156200108457600080fd5b81516401000000008111828201871017156200109f57600080fd5b505092919050505081600160a060020a03166379bddde86040518163ffffffff1660e060020a028152600401602060405180830381600087803b158015620010e657600080fd5b505af1158015620010fb573d6000803e3d6000fd5b505050506040513d60208110156200111257600080fd5b5051604080517f2ef193b00000000000000000000000000000000000000000000000000000000081529051600160a060020a03851691632ef193b09160048083019260209291908290030181600087803b1580156200117057600080fd5b505af115801562001185573d6000803e3d6000fd5b505050506040513d60208110156200119c57600080fd5b5051604080517f6cf99a8f0000000000000000000000000000000000000000000000000000000081529051600160a060020a03861691636cf99a8f9160048083019260209291908290030181600087803b158015620011fa57600080fd5b505af11580156200120f573d6000803e3d6000fd5b505050506040513d60208110156200122657600080fd5b5051604080517fc996ad250000000000000000000000000000000000000000000000000000000081529051600160a060020a0387169163c996ad259160048083019260209291908290030181600087803b1580156200128457600080fd5b505af115801562001299573d6000803e3d6000fd5b505050506040513d6020811015620012b057600080fd5b5051604080517f056847900000000000000000000000000000000000000000000000000000000081529051600160a060020a03881691630568479091600480830192600092919082900301818387803b1580156200130d57600080fd5b505af115801562001322573d6000803e3d6000fd5b505050506040513d6000823e601f3d908101601f1916820160405260208110156200134c57600080fd5b8101908080516401000000008111156200136557600080fd5b820160208101848111156200137957600080fd5b81516401000000008111828201871017156200139457600080fd5b505092919050505086600160a060020a031663713b563f6040518163ffffffff1660e060020a028152600401600060405180830381600087803b158015620013db57600080fd5b505af1158015620013f0573d6000803e3d6000fd5b505050506040513d6000823e601f3d908101601f1916820160405260208110156200141a57600080fd5b8101908080516401000000008111156200143357600080fd5b820160208101848111156200144757600080fd5b81516401000000008111828201871017156200146257600080fd5b505092919050505087600160a060020a031663a727be576040518163ffffffff1660e060020a028152600401600060405180830381600087803b158015620014a957600080fd5b505af1158015620014be573d6000803e3d6000fd5b505050506040513d6000823e601f3d908101601f191682016040526020811015620014e857600080fd5b8101908080516401000000008111156200150157600080fd5b820160208101848111156200151557600080fd5b81516401000000008111828201871017156200153057600080fd5b505092919050505088600160a060020a031663d97aa9776040518163ffffffff1660e060020a028152600401602060405180830381600087803b1580156200157757600080fd5b505af11580156200158c573d6000803e3d6000fd5b505050506040513d6020811015620015a357600080fd5b5051604080517f6bccedba0000000000000000000000000000000000000000000000000000000081529051600160a060020a038c1691636bccedba9160048083019260209291908290030181600087803b1580156200160157600080fd5b505af115801562001616573d6000803e3d6000fd5b505050506040513d60208110156200162d57600080fd5b81019080805190602001909291905050508999508494508393508292509a509a509a509a509a509a509a509a509a509a50509193959799509193959799565b600154600160a060020a031681565b816000600160a060020a031681600160a060020a03166379bddde86040518163ffffffff1660e060020a028152600401602060405180830381600087803b158015620016c657600080fd5b505af1158015620016db573d6000803e3d6000fd5b505050506040513d6020811015620016f257600080fd5b5051600160a060020a03161480159062001779575080600160a060020a0316636bccedba6040518163ffffffff1660e060020a028152600401602060405180830381600087803b1580156200174657600080fd5b505af11580156200175b573d6000803e3d6000fd5b505050506040513d60208110156200177257600080fd5b505160ff16155b15156200178557600080fd5b6002546040805160e060020a63029b7d53028152336004820181905291519192600092600160a060020a039091169163029b7d5391602480830192602092919082900301818787803b158015620017db57600080fd5b505af1158015620017f0573d6000803e3d6000fd5b505050506040513d60208110156200180757600080fd5b5051600160a060020a031614156200181e57600080fd5b338481600160a060020a031681600160a060020a0316632ef193b06040518163ffffffff1660e060020a028152600401602060405180830381600087803b1580156200186957600080fd5b505af11580156200187e573d6000803e3d6000fd5b505050506040513d60208110156200189557600080fd5b50516040805160e360020a630f37bbbd0281529051600160a060020a03909216916379bddde8916004808201926020929091908290030181600087803b158015620018df57600080fd5b505af1158015620018f4573d6000803e3d6000fd5b505050506040513d60208110156200190b57600080fd5b5051600160a060020a0316146200192157600080fd5b604080517f211e28b600000000000000000000000000000000000000000000000000000000815286151560048201529051600160a060020a0388169163211e28b69160248083019260209291908290030181600087803b1580156200198557600080fd5b505af11580156200199a573d6000803e3d6000fd5b505050506040513d6020811015620019b157600080fd5b50511515620019bf57600080fd5b6040805186151581529051600160a060020a038816917f86dd9e0e62659dd587e6c6dc86fe85398750befcaa8a7cfd276c64e3f3ed4f44919081900360200190a2505050505050565b6000826000600160a060020a031681600160a060020a03166379bddde86040518163ffffffff1660e060020a028152600401602060405180830381600087803b15801562001a5557600080fd5b505af115801562001a6a573d6000803e3d6000fd5b505050506040513d602081101562001a8157600080fd5b5051600160a060020a03161480159062001b08575080600160a060020a0316636bccedba6040518163ffffffff1660e060020a028152600401602060405180830381600087803b15801562001ad557600080fd5b505af115801562001aea573d6000803e3d6000fd5b505050506040513d602081101562001b0157600080fd5b505160ff16155b151562001b1457600080fd5b826000600160a060020a031681600160a060020a03166379bddde86040518163ffffffff1660e060020a028152600401602060405180830381600087803b15801562001b5f57600080fd5b505af115801562001b74573d6000803e3d6000fd5b505050506040513d602081101562001b8b57600080fd5b5051600160a060020a03161480159062001c12575080600160a060020a0316636bccedba6040518163ffffffff1660e060020a028152600401602060405180830381600087803b15801562001bdf57600080fd5b505af115801562001bf4573d6000803e3d6000fd5b505050506040513d602081101562001c0b57600080fd5b505160ff16155b151562001c1e57600080fd5b84600160a060020a0316636c3e3213856040518263ffffffff1660e060020a0281526004018082600160a060020a0316600160a060020a03168152602001915050602060405180830381600087803b158015620009b557600080fd5b6002546040805160e060020a63029b7d530281523360048201819052915160009384938493849391928492600160a060020a039091169163029b7d5391602480830192602092919082900301818787803b15801562001cd857600080fd5b505af115801562001ced573d6000803e3d6000fd5b505050506040513d602081101562001d0457600080fd5b5051600160a060020a0316141562001d1b57600080fd5b6002546040805160e060020a63029b7d530281523360048201529051600160a060020a039092169163029b7d53916024808201926020929091908290030181600087803b15801562001d6c57600080fd5b505af115801562001d81573d6000803e3d6000fd5b505050506040513d602081101562001d9857600080fd5b50519450600160a060020a0386161580159062001e3457506000600160a060020a031686600160a060020a03166379bddde86040518163ffffffff1660e060020a028152600401602060405180830381600087803b15801562001dfa57600080fd5b505af115801562001e0f573d6000803e3d6000fd5b505050506040513d602081101562001e2657600080fd5b5051600160a060020a031614155b151562001e4057600080fd5b8593506000925083600160a060020a0316636bccedba6040518163ffffffff1660e060020a028152600401602060405180830381600087803b15801562001e8657600080fd5b505af115801562001e9b573d6000803e3d6000fd5b505050506040513d602081101562001eb257600080fd5b505160ff1615801562001f43575084600160a060020a031684600160a060020a0316632ef193b06040518163ffffffff1660e060020a028152600401602060405180830381600087803b15801562001f0957600080fd5b505af115801562001f1e573d6000803e3d6000fd5b505050506040513d602081101562001f3557600080fd5b5051600160a060020a031614155b1562001f50578493508592505b84600160a060020a0316630785581c6040518163ffffffff1660e060020a028152600401600060405180830381600087803b15801562001f8f57600080fd5b505af115801562001fa4573d6000803e3d6000fd5b505050506040513d6000823e601f3d908101601f19168201604052602081101562001fce57600080fd5b81019080805164010000000081111562001fe757600080fd5b8201602081018481111562001ffb57600080fd5b81516401000000008111828201871017156200201657600080fd5b5050929190505050858b8b8b8b89896200202f62003bc3565b600160a060020a0380891660208084019190915260a0830186905284821660c084015290831660e08301526101008083528a5190830152895182916040830191606084019160808501916101208601918f019080838360005b83811015620020a257818101518382015260200162002088565b50505050905090810190601f168015620020d05780820380516001836020036101000a031916815260200191505b5085810384528b5181528b516020918201918d019080838360005b8381101562002105578181015183820152602001620020eb565b50505050905090810190601f168015620021335780820380516001836020036101000a031916815260200191505b5085810383528a5181528a516020918201918c019080838360005b83811015620021685781810151838201526020016200214e565b50505050905090810190601f168015620021965780820380516001836020036101000a031916815260200191505b5085810382528951815289516020918201918b019080838360005b83811015620021cb578181015183820152602001620021b1565b50505050905090810190601f168015620021f95780820380516001836020036101000a031916815260200191505b509c50505050505050505050505050604051809103906000f08015801562002225573d6000803e3d6000fd5b50600480546001808201835560008390527f8a35acfbc15ff81a39ae7d344fd709f28e8600b4aa8c65c6b64bfe7fe36bd19b909101805473ffffffffffffffffffffffffffffffffffffffff1916600160a060020a038516179055905491935033917f4a2dafe65f68d7551baa0c58a825dc2ebc3965cfe65e02abf43f4b99bb51d6a39188918691620022b9919062003b9c565b8889600160a060020a0316636bccedba6040518163ffffffff1660e060020a028152600401602060405180830381600087803b158015620022f957600080fd5b505af11580156200230e573d6000803e3d6000fd5b505050506040513d60208110156200232557600080fd5b505160408051600160a060020a039687168152948616602086015284810193909352908416606084015260ff16608083015291871660a082015290519081900360c00190a285600160a060020a0316636bccedba6040518163ffffffff1660e060020a028152600401602060405180830381600087803b158015620023a957600080fd5b505af1158015620023be573d6000803e3d6000fd5b505050506040513d6020811015620023d557600080fd5b505160ff161515620026425784600160a060020a031686600160a060020a0316632ef193b06040518163ffffffff1660e060020a028152600401602060405180830381600087803b1580156200242a57600080fd5b505af11580156200243f573d6000803e3d6000fd5b505050506040513d60208110156200245657600080fd5b5051600160a060020a031614156200255657604080517f573d7b89000000000000000000000000000000000000000000000000000000008152600160a060020a0384811660048301526001602483015291519188169163573d7b89916044808201926020929091908290030181600087803b158015620024d557600080fd5b505af1158015620024ea573d6000803e3d6000fd5b505050506040513d60208110156200250157600080fd5b505115156200250f57600080fd5b60408051600160a060020a0384811682529151918816917f3f58d14e33273fb5dc73594f7990e8c22af81bb1f6cdeb9a7ea628950e2041749181900360200190a262002642565b604080517f573d7b89000000000000000000000000000000000000000000000000000000008152600160a060020a03848116600483015260006024830181905292519089169263573d7b8992604480820193602093909283900390910190829087803b158015620025c657600080fd5b505af1158015620025db573d6000803e3d6000fd5b505050506040513d6020811015620025f257600080fd5b505115156200260057600080fd5b60408051600160a060020a0384811682529151918816917f4b56dc469847f9a47d1cfc3c3acd08c29bbd90cd7316ba3999bb62818433d9559181900360200190a25b50505050505050505050565b600080836000600160a060020a031681600160a060020a03166379bddde86040518163ffffffff1660e060020a028152600401602060405180830381600087803b1580156200269c57600080fd5b505af1158015620026b1573d6000803e3d6000fd5b505050506040513d6020811015620026c857600080fd5b5051600160a060020a0316148015906200274f575080600160a060020a0316636bccedba6040518163ffffffff1660e060020a028152600401602060405180830381600087803b1580156200271c57600080fd5b505af115801562002731573d6000803e3d6000fd5b505050506040513d60208110156200274857600080fd5b505160ff16155b15156200275b57600080fd5b836000600160a060020a031681600160a060020a03166379bddde86040518163ffffffff1660e060020a028152600401602060405180830381600087803b158015620027a657600080fd5b505af1158015620027bb573d6000803e3d6000fd5b505050506040513d6020811015620027d257600080fd5b5051600160a060020a0316148015906200285b575080600160a060020a0316636bccedba6040518163ffffffff1660e060020a028152600401602060405180830381600087803b1580156200282657600080fd5b505af11580156200283b573d6000803e3d6000fd5b505050506040513d60208110156200285257600080fd5b505160ff166001145b15156200286757600080fd5b6002546040805160e060020a63029b7d53028152336004820181905291519192600092600160a060020a039091169163029b7d5391602480830192602092919082900301818787803b158015620028bd57600080fd5b505af1158015620028d2573d6000803e3d6000fd5b505050506040513d6020811015620028e957600080fd5b5051600160a060020a031614156200290057600080fd5b338781600160a060020a031681600160a060020a0316632ef193b06040518163ffffffff1660e060020a028152600401602060405180830381600087803b1580156200294b57600080fd5b505af115801562002960573d6000803e3d6000fd5b505050506040513d60208110156200297757600080fd5b50516040805160e360020a630f37bbbd0281529051600160a060020a03909216916379bddde8916004808201926020929091908290030181600087803b158015620029c157600080fd5b505af1158015620029d6573d6000803e3d6000fd5b505050506040513d6020811015620029ed57600080fd5b5051600160a060020a03161462002a0357600080fd5b88965086600160a060020a031663c996ad256040518163ffffffff1660e060020a028152600401602060405180830381600087803b15801562002a4557600080fd5b505af115801562002a5a573d6000803e3d6000fd5b505050506040513d602081101562002a7157600080fd5b5051604080517f0d9c8bca000000000000000000000000000000000000000000000000000000008152600160a060020a038b81166004830152915192985090891691630d9c8bca916024808201926020929091908290030181600087803b15801562002adc57600080fd5b505af115801562002af1573d6000803e3d6000fd5b505050506040513d602081101562002b0857600080fd5b5051151562002b1657600080fd5b60408051600160a060020a0388811682528a811660208301528251908c16927f1a4bdedbc0074764dbc1c5789e6310f7efd8e93e45fefb0fd8a76be122306718928290030190a2505050505050505050565b60008060008084905080600160a060020a0316632a9719a46040518163ffffffff1660e060020a028152600401602060405180830381600087803b15801562002bb057600080fd5b505af115801562002bc5573d6000803e3d6000fd5b505050506040513d602081101562002bdc57600080fd5b5051604080517f68dcb66b0000000000000000000000000000000000000000000000000000000081529051600160a060020a038416916368dcb66b9160048083019260209291908290030181600087803b15801562002c3a57600080fd5b505af115801562002c4f573d6000803e3d6000fd5b505050506040513d602081101562002c6657600080fd5b5051604080517fb0759d080000000000000000000000000000000000000000000000000000000081529051600160a060020a0385169163b0759d089160048083019260209291908290030181600087803b15801562002cc457600080fd5b505af115801562002cd9573d6000803e3d6000fd5b505050506040513d602081101562002cf057600080fd5b5051919790965090945092505050565b60045490565b6002546040805160e060020a63029b7d53028152336004820181905291516000938492600160a060020a039091169163029b7d539160248082019260209290919082900301818787803b15801562002d5d57600080fd5b505af115801562002d72573d6000803e3d6000fd5b505050506040513d602081101562002d8957600080fd5b5051600160a060020a0316141562002da057600080fd5b62002dac848462000743565b151562002db857600080fd5b83915033600160a060020a031682600160a060020a0316636cf99a8f6040518163ffffffff1660e060020a028152600401602060405180830381600087803b15801562002e0457600080fd5b505af115801562002e19573d6000803e3d6000fd5b505050506040513d602081101562002e3057600080fd5b50516040805160e360020a630f37bbbd0281529051600160a060020a03909216916379bddde8916004808201926020929091908290030181600087803b15801562002e7a57600080fd5b505af115801562002e8f573d6000803e3d6000fd5b505050506040513d602081101562002ea657600080fd5b5051600160a060020a03161462002ebc57600080fd5b81600160a060020a0316634e9d1a23846040518263ffffffff1660e060020a0281526004018082600160a060020a0316600160a060020a03168152602001915050602060405180830381600087803b15801562002f1857600080fd5b505af115801562002f2d573d6000803e3d6000fd5b505050506040513d602081101562002f4457600080fd5b5051151562002f5257600080fd5b81600160a060020a0316636cf99a8f6040518163ffffffff1660e060020a028152600401602060405180830381600087803b15801562002f9157600080fd5b505af115801562002fa6573d6000803e3d6000fd5b505050506040513d602081101562002fbd57600080fd5b505160408051600160a060020a038781168252868116602083015282519316927f377c216e66fd0ba509a3514f90d6dcd60ac42cbc1263dc6c73c82c378c88201d929181900390910190a250505050565b600080836000600160a060020a031681600160a060020a03166379bddde86040518163ffffffff1660e060020a028152600401602060405180830381600087803b1580156200305c57600080fd5b505af115801562003071573d6000803e3d6000fd5b505050506040513d60208110156200308857600080fd5b5051600160a060020a0316148015906200310f575080600160a060020a0316636bccedba6040518163ffffffff1660e060020a028152600401602060405180830381600087803b158015620030dc57600080fd5b505af1158015620030f1573d6000803e3d6000fd5b505050506040513d60208110156200310857600080fd5b505160ff16155b15156200311b57600080fd5b836000600160a060020a031681600160a060020a03166379bddde86040518163ffffffff1660e060020a028152600401602060405180830381600087803b1580156200316657600080fd5b505af11580156200317b573d6000803e3d6000fd5b505050506040513d60208110156200319257600080fd5b5051600160a060020a0316148015906200321b575080600160a060020a0316636bccedba6040518163ffffffff1660e060020a028152600401602060405180830381600087803b158015620031e657600080fd5b505af1158015620031fb573d6000803e3d6000fd5b505050506040513d60208110156200321257600080fd5b505160ff166001145b15156200322757600080fd5b6002546040805160e060020a63029b7d53028152336004820181905291519192600092600160a060020a039091169163029b7d5391602480830192602092919082900301818787803b1580156200327d57600080fd5b505af115801562003292573d6000803e3d6000fd5b505050506040513d6020811015620032a957600080fd5b5051600160a060020a03161415620032c057600080fd5b338781600160a060020a031681600160a060020a0316632ef193b06040518163ffffffff1660e060020a028152600401602060405180830381600087803b1580156200330b57600080fd5b505af115801562003320573d6000803e3d6000fd5b505050506040513d60208110156200333757600080fd5b50516040805160e360020a630f37bbbd0281529051600160a060020a03909216916379bddde8916004808201926020929091908290030181600087803b1580156200338157600080fd5b505af115801562003396573d6000803e3d6000fd5b505050506040513d6020811015620033ad57600080fd5b5051600160a060020a031614620033c357600080fd5b88965086600160a060020a0316636cf99a8f6040518163ffffffff1660e060020a028152600401602060405180830381600087803b1580156200340557600080fd5b505af11580156200341a573d6000803e3d6000fd5b505050506040513d60208110156200343157600080fd5b5051604080517fadcd905b000000000000000000000000000000000000000000000000000000008152600160a060020a038b8116600483015291519298509089169163adcd905b916024808201926020929091908290030181600087803b1580156200349c57600080fd5b505af1158015620034b1573d6000803e3d6000fd5b505050506040513d6020811015620034c857600080fd5b50511515620034d657600080fd5b60408051600160a060020a0388811682528a811660208301528251908c16927f3690a09b0fa10cd8b61b08088b8d86c1d86dbb5c0fbda92c7dea4114b34787be928290030190a2505050505050505050565b600054600160a060020a031681565b6000816000600160a060020a031681600160a060020a03166379bddde86040518163ffffffff1660e060020a028152600401602060405180830381600087803b1580156200358457600080fd5b505af115801562003599573d6000803e3d6000fd5b505050506040513d6020811015620035b057600080fd5b5051600160a060020a03161480159062003637575080600160a060020a0316636bccedba6040518163ffffffff1660e060020a028152600401602060405180830381600087803b1580156200360457600080fd5b505af115801562003619573d6000803e3d6000fd5b505050506040513d60208110156200363057600080fd5b505160ff16155b15156200364357600080fd5b82600160a060020a03166375305ee46040518163ffffffff1660e060020a028152600401602060405180830381600087803b15801562000c2f57600080fd5b600080836000600160a060020a031681600160a060020a03166379bddde86040518163ffffffff1660e060020a028152600401602060405180830381600087803b158015620036d057600080fd5b505af1158015620036e5573d6000803e3d6000fd5b505050506040513d6020811015620036fc57600080fd5b5051600160a060020a03161480159062003783575080600160a060020a0316636bccedba6040518163ffffffff1660e060020a028152600401602060405180830381600087803b1580156200375057600080fd5b505af115801562003765573d6000803e3d6000fd5b505050506040513d60208110156200377c57600080fd5b505160ff16155b15156200378f57600080fd5b836000600160a060020a031681600160a060020a03166379bddde86040518163ffffffff1660e060020a028152600401602060405180830381600087803b158015620037da57600080fd5b505af1158015620037ef573d6000803e3d6000fd5b505050506040513d60208110156200380657600080fd5b5051600160a060020a0316148015906200388f575080600160a060020a0316636bccedba6040518163ffffffff1660e060020a028152600401602060405180830381600087803b1580156200385a57600080fd5b505af11580156200386f573d6000803e3d6000fd5b505050506040513d60208110156200388657600080fd5b505160ff166001145b15156200389b57600080fd5b6002546040805160e060020a63029b7d53028152336004820181905291519192600092600160a060020a039091169163029b7d5391602480830192602092919082900301818787803b158015620038f157600080fd5b505af115801562003906573d6000803e3d6000fd5b505050506040513d60208110156200391d57600080fd5b5051600160a060020a031614156200393457600080fd5b338781600160a060020a031681600160a060020a0316632ef193b06040518163ffffffff1660e060020a028152600401602060405180830381600087803b1580156200397f57600080fd5b505af115801562003994573d6000803e3d6000fd5b505050506040513d6020811015620039ab57600080fd5b50516040805160e360020a630f37bbbd0281529051600160a060020a03909216916379bddde8916004808201926020929091908290030181600087803b158015620039f557600080fd5b505af115801562003a0a573d6000803e3d6000fd5b505050506040513d602081101562003a2157600080fd5b5051600160a060020a03161462003a3757600080fd5b88965086600160a060020a0316632ef193b06040518163ffffffff1660e060020a028152600401602060405180830381600087803b15801562003a7957600080fd5b505af115801562003a8e573d6000803e3d6000fd5b505050506040513d602081101562003aa557600080fd5b5051604080517fb000fba3000000000000000000000000000000000000000000000000000000008152600160a060020a038b8116600483015291519298509089169163b000fba3916024808201926020929091908290030181600087803b15801562003b1057600080fd5b505af115801562003b25573d6000803e3d6000fd5b505050506040513d602081101562003b3c57600080fd5b5051151562003b4a57600080fd5b60408051600160a060020a0388811682528a811660208301528251908c16927f2e38ba54b713d77820b9bb9b89f17633da8c60b7b935d5721265455909cd17ad928290030190a2505050505050505050565b60008282111562003ba957fe5b50900390565b8181018281101562003bbd57fe5b92915050565b60405161117d8062003bd583390190560060806040523480156200001157600080fd5b506040516200117d3803806200117d8339810160409081528151602080840151928401516060850151608086015160a087015160c088015160e0890151600080546201000060b060020a03191633620100000217905596890180519099958601979486019693909501949193909290916200009391600191908b019062000170565b5060028054600160a060020a038916600160a060020a031991821681179092556003805490911690911790558551620000d490600690602089019062000170565b508451620000ea90600790602088019062000170565b5083516200010090600890602087019062000170565b50600992909255600a8054600c8054600160a060020a03958616600160a060020a03199182161790915560035460048054831691871691821790556005805490921617905560ff19929093166101000261010060a860020a03199093169290921716905550620002159350505050565b828054600181600116156101000203166002900490600052602060002090601f016020900481019282601f10620001b357805160ff1916838001178555620001e3565b82800160010185558215620001e3579182015b82811115620001e3578251825591602001919060010190620001c6565b50620001f1929150620001f5565b5090565b6200021291905b80821115620001f15760008155600101620001fc565b90565b610f5880620002256000396000f3006080604052600436106101955763ffffffff7c01000000000000000000000000000000000000000000000000000000006000350416630568479081146101d35780630785581c1461025d5780630d723dc5146102725780630d9c8bca146102b45780630e54d785146102e9578063211e28b6146103545780632a9719a41461036e5780632ef193b01461039f57806332511d5b146103b457806344b194bd146103c95780634e9d1a23146103ea578063573d7b891461040b578063597e1fb51461043157806368dcb66b146104465780636bccedba1461045b5780636c3e3213146104865780636cf99a8f146104a7578063713b563f146104bc57806375305ee4146104d157806379bddde8146104f85780638005e7781461050d5780638c5c3e2314610522578063966dae0e14610537578063a727be571461054c578063adcd905b14610561578063b000fba314610582578063b0759d08146105a3578063b69ef8a8146105b8578063c996ad25146105cd578063cf309012146105e2578063d97aa977146105f7578063f9302dfd1461060c575b60005460ff161580156101b05750600054610100900460ff16155b15156101bb57600080fd5b6010546101ce903463ffffffff61062d16565b601055005b3480156101df57600080fd5b506101e8610640565b6040805160208082528351818301528351919283929083019185019080838360005b8381101561022257818101518382015260200161020a565b50505050905090810190601f16801561024f5780820380516001836020036101000a031916815260200191505b509250505060405180910390f35b34801561026957600080fd5b506101e86106ce565b34801561027e57600080fd5b5061028a600435610728565b60408051600160a060020a0390941684529115156020840152151582820152519081900360600190f35b3480156102c057600080fd5b506102d5600160a060020a0360043516610759565b604080519115158252519081900360200190f35b3480156102f557600080fd5b506103046004356024356107e4565b60408051602080825283518183015283519192839290830191858101910280838360005b83811015610340578181015183820152602001610328565b505050509050019250505060405180910390f35b34801561036057600080fd5b506102d560043515156108ea565b34801561037a57600080fd5b50610383610934565b60408051600160a060020a039092168252519081900360200190f35b3480156103ab57600080fd5b50610383610948565b3480156103c057600080fd5b506102d5610957565b3480156103d557600080fd5b506102d5600160a060020a036004351661099f565b3480156103f657600080fd5b506102d5600160a060020a0360043516610a2d565b34801561041757600080fd5b506102d5600160a060020a03600435166024351515610ad4565b34801561043d57600080fd5b506102d5610c12565b34801561045257600080fd5b50610383610c20565b34801561046757600080fd5b50610470610c2f565b6040805160ff9092168252519081900360200190f35b34801561049257600080fd5b506102d5600160a060020a0360043516610c38565b3480156104b357600080fd5b50610383610cc4565b3480156104c857600080fd5b506101e8610cd3565b3480156104dd57600080fd5b506104e6610d2e565b60408051918252519081900360200190f35b34801561050457600080fd5b50610383610d34565b34801561051957600080fd5b506104e6610d43565b34801561052e57600080fd5b506104e6610d49565b34801561054357600080fd5b50610383610d4f565b34801561055857600080fd5b506101e8610d64565b34801561056d57600080fd5b506102d5600160a060020a0360043516610dbf565b34801561058e57600080fd5b506102d5600160a060020a0360043516610e4a565b3480156105af57600080fd5b50610383610ed5565b3480156105c457600080fd5b506104e6610ee4565b3480156105d957600080fd5b50610383610eea565b3480156105ee57600080fd5b506102d5610ef9565b34801561060357600080fd5b506104e6610f02565b34801561061857600080fd5b506104e6600160a060020a0360043516610f08565b8181018281101561063a57fe5b92915050565b6006805460408051602060026001851615610100026000190190941693909304601f810184900484028201840190925281815292918301828280156106c65780601f1061069b576101008083540402835291602001916106c6565b820191906000526020600020905b8154815290600101906020018083116106a957829003601f168201915b505050505081565b60018054604080516020600284861615610100026000190190941693909304601f810184900484028201840190925281815292918301828280156106c65780601f1061069b576101008083540402835291602001916106c6565b601160205260009081526040902054600160a060020a0381169060ff60a060020a820481169160a860020a90041683565b6000805460ff161580156107755750600054610100900460ff16155b151561078057600080fd5b600054620100009004600160a060020a0316331461079d57600080fd5b600160a060020a03821615156107b257600080fd5b5060058054600160a060020a03831673ffffffffffffffffffffffffffffffffffffffff199091161790556001919050565b6060806000600185101580156107fa5750848410155b8015610808575083600f5410155b151561081357600080fd5b6108346001610828868863ffffffff610f1a16565b9063ffffffff61062d16565b60405190808252806020026020018201604052801561085d578160200160208202803883390190505b5091508490505b8381116108e25760008181526011602052604090205460a860020a900460ff1661088f5760006108a8565b600081815260116020526040902054600160a060020a03165b826108b9838863ffffffff610f1a16565b815181106108c357fe5b600160a060020a03909216602092830290910190910152600101610864565b509392505050565b60008054620100009004600160a060020a0316331461090857600080fd5b600054610100900460ff161561091d57600080fd5b506000805460ff1916911515919091179055600190565b600a546101009004600160a060020a031681565b600354600160a060020a031681565b60008054620100009004600160a060020a0316331461097557600080fd5b600054610100900460ff161561098a57600080fd5b506000805461ff001916610100179055600190565b600160a060020a038116600090815260126020526040812054811080156109f35750600160a060020a0382166000908152601260209081526040808320548352601190915290205460a060020a900460ff16155b801561063a575050600160a060020a03166000908152601260209081526040808320548352601190915290205460a860020a900460ff1690565b60008054819060ff16158015610a4b5750600054610100900460ff16155b1515610a5657600080fd5b600054620100009004600160a060020a03163314610a7357600080fd5b5050600160a060020a0316600090815260126020908152604080832054835260119091529020805474ff0000000000000000000000000000000000000000191660a060020a179055600d80546001908101909155600e805460001901905590565b60008054819060ff16158015610af25750600054610100900460ff16155b1515610afd57600080fd5b600054620100009004600160a060020a03163314610b1a57600080fd5b600160a060020a0384161515610b2f57600080fd5b600160a060020a03841660009081526012602052604090205415610b5257600080fd5b600f805460010190558215610b6f57600d80546001019055610b79565b600e805460010190555b5050600f54600160a060020a039290921660008181526012602090815260408083208690559482526011905292909220805475ff0000000000000000000000000000000000000000001992151560a060020a0274ff00000000000000000000000000000000000000001973ffffffffffffffffffffffffffffffffffffffff1990921690941716929092171660a860020a179055600190565b600054610100900460ff1681565b600b54600160a060020a031681565b600a5460ff1681565b600160a060020a038116600090815260126020526040812054811080156109f35750600160a060020a0382166000908152601260209081526040808320548352601190915290205460a060020a900460ff16801561063a575050600160a060020a03166000908152601260209081526040808320548352601190915290205460a860020a900460ff1690565b600454600160a060020a031681565b6007805460408051602060026001851615610100026000190190941693909304601f810184900484028201840190925281815292918301828280156106c65780601f1061069b576101008083540402835291602001916106c6565b600e5481565b600254600160a060020a031681565b600f5481565b600d5481565b600054620100009004600160a060020a031681565b6008805460408051602060026001851615610100026000190190941693909304601f810184900484028201840190925281815292918301828280156106c65780601f1061069b576101008083540402835291602001916106c6565b6000805460ff16158015610ddb5750600054610100900460ff16155b1515610de657600080fd5b600054620100009004600160a060020a03163314610e0357600080fd5b600160a060020a0382161515610e1857600080fd5b5060048054600160a060020a03831673ffffffffffffffffffffffffffffffffffffffff199091161790556001919050565b6000805460ff16158015610e665750600054610100900460ff16155b1515610e7157600080fd5b600054620100009004600160a060020a03163314610e8e57600080fd5b600160a060020a0382161515610ea357600080fd5b5060038054600160a060020a03831673ffffffffffffffffffffffffffffffffffffffff199091161790556001919050565b600c54600160a060020a031681565b60105481565b600554600160a060020a031681565b60005460ff1681565b60095481565b60126020526000908152604090205481565b600082821115610f2657fe5b509003905600a165627a7a72305820c98df68672b0ef38a3ddbb23f162b2789f54778a1f275d24e9acddb34937ea7d0029a165627a7a7230582053d1c6e06f71003a738655cdc1c923b772d042e90ffe330cdc105bf4d0fffb930029",
	"source": "pragma solidity ^0.4.24;\n\nimport './ThoughtController.sol';\n\n/**\n * @title ThoughtFactory\n *\n * The purpose of this contract is to allow node to create Thought\n */\ncontract ThoughtFactory is ThoughtController {\n\taddress[] internal thoughts;\n\n\t// Event to be broadcasted to public when Advocate creates a Thought\n\tevent CreateThought(address indexed ethAddress, address advocateId, address thoughtId, uint256 index, address from, uint8 fromThoughtTypeId, address to);\n\n\t// Event to be broadcasted to public when current Advocate sets New Advocate for a Thought\n\tevent SetThoughtAdvocate(address indexed thoughtId, address oldAdvocateId, address newAdvocateId);\n\n\t// Event to be broadcasted to public when current Advocate sets New Listener for a Thought\n\tevent SetThoughtListener(address indexed thoughtId, address oldListenerId, address newListenerId);\n\n\t// Event to be broadcasted to public when current Advocate sets New Speaker for a Thought\n\tevent SetThoughtSpeaker(address indexed thoughtId, address oldSpeakerId, address newSpeakerId);\n\n\t// Event to be broadcasted to public when a parent Thought adds a child Thought\n\tevent AddChildThought(address indexed parentThoughtId, address childThoughtId);\n\n\t// Event to be broadcasted to public when a parent Thought adds an orphan Thought\n\tevent AddOrphanThought(address indexed parentThoughtId, address orphanThoughtId);\n\n\t// Event to be broadcasted to public when a parent Thought's Listener approves an orphan Thought\n\tevent ApproveOrphanThought(address indexed listenerId, address parentThoughtId, address orphanThoughtId);\n\n\t// Event to be broadcasted to public when a Thought is locked/unlocked\n\tevent SetThoughtLocked(address indexed thoughtId, bool locked);\n\n\t/**\n\t * @dev Constructor function\n\t */\n\tconstructor(address _nameFactoryAddress, address _positionAddress)\n\t\tThoughtController(_nameFactoryAddress, _positionAddress) public {}\n\n\t/**\n\t * @dev Name creates a Thought\n\t * @param _datHash The datHash of this Thought\n\t * @param _database The database for this Thought\n\t * @param _keyValue The key/value pair to be checked on the database\n\t * @param _contentId The contentId related to this Thought\n\t * @param _from The origin of this Thought (has to be a Name or Thought)\n\t */\n\tfunction createThought(string _datHash, string _database, string _keyValue, bytes32 _contentId, address _from) public senderIsName(msg.sender) {\n\t\taddress _nameId = _nameFactory.ethAddressToNameId(msg.sender);\n\n\t\t// Make sure _from is a Thought/Name\n\t\trequire (_from != address(0) && Thought(_from).originNameId() != address(0));\n\n\t\t/**\n\t\t * If _from is a Thought (ThoughtTypeId == 0)\n\t\t * Decide what are the _from and _to IDs\n\t\t * 1. If the _from's advocateId is the same as msg.sender's nameId, then\n\t\t *    the same advocateId is creating this new Thought from _from Thought.\n\t\t *    In this case, _from doesn't change, and _to is address(0).\n\t\t *\n\t\t * 2. If the _from's advocateId is different from msg.sender's nameId, then\n\t\t *    another advocate is creating this new Thought and want to be part of\n\t\t *    _from Thought.\n\t\t *\t  In this case, _from is the nameId, and _to is _from\n\t\t */\n\t\taddress _assignedFrom = _from;\n\t\taddress _assignedTo = address(0);\n\t\tif (Thought(_assignedFrom).thoughtTypeId() == 0 && Thought(_assignedFrom).advocateId() != _nameId) {\n\t\t\t_assignedFrom = _nameId;\n\t\t\t_assignedTo = _from;\n\t\t}\n\n\t\taddress thoughtId = new Thought(Name(_nameId).originName(), _nameId, _datHash, _database, _keyValue, _contentId, _assignedFrom, _assignedTo);\n\t\tthoughts.push(thoughtId);\n\n\t\temit CreateThought(msg.sender, _nameId, thoughtId, thoughts.length.sub(1), _assignedFrom, Thought(_assignedFrom).thoughtTypeId(), _assignedTo);\n\n\t\tif (Thought(_from).thoughtTypeId() == 0) {\n\t\t\t// If this Thought is created from another Thought from the same advocate,\n\t\t\t// Want to add this Thought to its parent Thought as a ChildThought\n\t\t\tif (Thought(_from).advocateId() == _nameId) {\n\t\t\t\trequire (Thought(_from).addSubThought(thoughtId, true));\n\t\t\t\temit AddChildThought(_from, thoughtId);\n\t\t\t} else {\n\t\t\t\t// Otherwise, add this Thought to its parent Thought as an OrphanThought\n\t\t\t\trequire (Thought(_from).addSubThought(thoughtId, false));\n\t\t\t\temit AddOrphanThought(_from, thoughtId);\n\t\t\t}\n\t\t}\n\t}\n\n\t/**\n\t * @dev Get Thought information\n\t * @param _thoughtId The ID of the Thought to be queried\n\t * @return The origin name of the Thought\n\t * @return The origin Name ID of the Thought\n\t * @return The advocateId of the Thought\n\t * @return The listenerId of the Thought\n\t * @return The speakerId of the Thought\n\t * @return The datHash of the Thought\n\t * @return The database of the Thought\n\t * @return The keyValue of the Thought\n\t * @return The contentId of the Thought\n\t * @return The thoughtTypeId of the Thought\n\t */\n\tfunction getThought(address _thoughtId) public view returns (string, address, address, address, address, string, string, string, bytes32, uint8) {\n\t\tThought _thought = Thought(_thoughtId);\n\t\treturn (\n\t\t\t_thought.originName(),\n\t\t\t_thought.originNameId(),\n\t\t\t_thought.advocateId(),\n\t\t\t_thought.listenerId(),\n\t\t\t_thought.speakerId(),\n\t\t\t_thought.datHash(),\n\t\t\t_thought.database(),\n\t\t\t_thought.keyValue(),\n\t\t\t_thought.contentId(),\n\t\t\t_thought.thoughtTypeId()\n\t\t);\n\t}\n\n\t/**\n\t * @dev Get total Thoughts count\n\t * @return total Thoughts count\n\t */\n\tfunction getTotalThoughtsCount() public view returns (uint256) {\n\t\treturn thoughts.length;\n\t}\n\n\t/**\n\t * @dev Get list of Thought IDs\n\t * @param _from The starting index\n\t * @param _to The ending index\n\t * @return list of Thought IDs\n\t */\n\tfunction getThoughtIds(uint256 _from, uint256 _to) public view returns (address[]) {\n\t\trequire (_from >= 0 && _to >= _from && thoughts.length > _to);\n\n\t\taddress[] memory _thoughts = new address[](_to.sub(_from).add(1));\n\t\tfor (uint256 i = _from; i <= _to; i++) {\n\t\t\t_thoughts[i.sub(_from)] = thoughts[i];\n\t\t}\n\t\treturn _thoughts;\n\t}\n\n\t/**\n\t * @dev Set Thought's advocate\n\t * @param _thoughtId The ID of the Thought\n\t * @param _newAdvocateId The new advocate ID to be set\n\t */\n\tfunction setThoughtAdvocate(address _thoughtId, address _newAdvocateId) public isThought(_thoughtId) isName(_newAdvocateId) senderIsName(msg.sender) onlyAdvocateOf(msg.sender, _thoughtId) {\n\t\tThought _thought = Thought(_thoughtId);\n\n\t\taddress _currentAdvocateId = _thought.advocateId();\n\n\t\t// Set the new advocate\n\t\trequire (_thought.setAdvocate(_newAdvocateId));\n\n\t\temit SetThoughtAdvocate(_thoughtId, _currentAdvocateId, _newAdvocateId);\n\t}\n\n\t/**\n\t * @dev Set Thought's listener\n\t * @param _thoughtId The ID of the Thought\n\t * @param _newListenerId The new listener ID to be set\n\t */\n\tfunction setThoughtListener(address _thoughtId, address _newListenerId) public isThought(_thoughtId) isName(_newListenerId) senderIsName(msg.sender) onlyAdvocateOf(msg.sender, _thoughtId) {\n\t\tThought _thought = Thought(_thoughtId);\n\n\t\t// Set the new listener\n\t\taddress _currentListenerId = _thought.listenerId();\n\t\trequire (_thought.setListener(_newListenerId));\n\n\t\temit SetThoughtListener(_thoughtId, _currentListenerId, _newListenerId);\n\t}\n\n\t/**\n\t * @dev Set Thought's speaker\n\t * @param _thoughtId The ID of the Thought\n\t * @param _newSpeakerId The new speaker ID to be set\n\t */\n\tfunction setThoughtSpeaker(address _thoughtId, address _newSpeakerId) public isThought(_thoughtId) isName(_newSpeakerId) senderIsName(msg.sender) onlyAdvocateOf(msg.sender, _thoughtId) {\n\t\tThought _thought = Thought(_thoughtId);\n\n\t\t// Set the new speaker\n\t\taddress _currentSpeakerId = _thought.speakerId();\n\t\trequire (_thought.setSpeaker(_newSpeakerId));\n\n\t\temit SetThoughtSpeaker(_thoughtId, _currentSpeakerId, _newSpeakerId);\n\t}\n\n\t/**\n\t * @dev Get Thought's relationship\n\t * @param _thoughtId The ID of the Thought\n\t * @return fromId (Origin of the Thought)\n\t * @return throughId\n\t * @return toId (Destination of the Thought)\n\t */\n\tfunction getThoughtRelationship(address _thoughtId) public view returns (address, address, address) {\n\t\tThought _thought = Thought(_thoughtId);\n\t\treturn (\n\t\t\t_thought.fromId(),\n\t\t\t_thought.throughId(),\n\t\t\t_thought.toId()\n\t\t);\n\t}\n\n\t/**\n\t * @dev Get Thought's sub Thought Ids\n\t * @param _thoughtId The ID of the Thought\n\t * @param _from The starting index\n\t * @param _to The ending index\n\t * @return list of sub Thought IDs\n\t */\n\tfunction getSubThoughtIds(address _thoughtId, uint256 _from, uint256 _to) public isThought(_thoughtId) view returns (address[]) {\n\t\trequire (_from >= 1 && _to >= _from);\n\t\treturn Thought(_thoughtId).getSubThoughtIds(_from, _to);\n\t}\n\n\t/**\n\t * @dev Get Thought's sub Thoughts total count\n\t * @param _thoughtId The ID of the Thought\n\t * @return total sub Thoughts count\n\t */\n\tfunction getTotalSubThoughtsCount(address _thoughtId) public isThought(_thoughtId) view returns (uint256) {\n\t\treturn Thought(_thoughtId).totalSubThoughts();\n\t}\n\n\t/**\n\t * @dev Get Thought's child Thoughts total count\n\t * @param _thoughtId The ID of the Thought\n\t * @return total child Thoughts count\n\t */\n\tfunction getTotalChildThoughtsCount(address _thoughtId) public isThought(_thoughtId) view returns (uint256) {\n\t\treturn Thought(_thoughtId).totalChildThoughts();\n\t}\n\n\t/**\n\t * @dev Get Thought's orphan Thoughts total count\n\t * @param _thoughtId The ID of the Thought\n\t * @return total orphan Thoughts count\n\t */\n\tfunction getTotalOrphanThoughtsCount(address _thoughtId) public isThought(_thoughtId) view returns (uint256) {\n\t\treturn Thought(_thoughtId).totalOrphanThoughts();\n\t}\n\n\t/**\n\t * @dev Check if `_childThoughtId` is child Thought of `_thoughtId`\n\t * @param _thoughtId The ID of the parent Thought\n\t * @param _childThoughtId The child Thought ID to check\n\t * @return return true if yes. Otherwise return false.\n\t */\n\tfunction isChildThoughtOfThought(address _thoughtId, address _childThoughtId) public isThought(_thoughtId) isThought(_childThoughtId) view returns (bool) {\n\t\treturn Thought(_thoughtId).isChildThought(_childThoughtId);\n\t}\n\n\t/**\n\t * @dev Check if `_orphanThoughtId` is orphan Thought of `_thoughtId`\n\t * @param _thoughtId The ID of the parent Thought\n\t * @param _orphanThoughtId The orphan Thought ID to check\n\t * @return return true if yes. Otherwise return false.\n\t */\n\tfunction isOrphanThoughtOfThought(address _thoughtId, address _orphanThoughtId) public isThought(_thoughtId) isThought(_orphanThoughtId) view returns (bool) {\n\t\treturn Thought(_thoughtId).isOrphanThought(_orphanThoughtId);\n\t}\n\n\t/**\n\t * @dev Listener approves orphan Thought.\n\t *\t\tThis will switch orphan Thought to becoming a child Thought.\n\t * @param _thoughtId The ID of the parent Thought\n\t * @param _orphanThoughtId The orphan Thought ID to approve\n\t */\n\tfunction approveOrphanThought(address _thoughtId, address _orphanThoughtId) public senderIsName(msg.sender) {\n\t\trequire (isOrphanThoughtOfThought(_thoughtId, _orphanThoughtId));\n\n\t\tThought _thought = Thought(_thoughtId);\n\n\t\t// Only Thought's current listener can approve orphan Thought\n\t\trequire (Name(_thought.listenerId()).originNameId() == msg.sender);\n\n\t\trequire (_thought.approveOrphanThought(_orphanThoughtId));\n\n\t\temit ApproveOrphanThought(_thought.listenerId(), _thoughtId, _orphanThoughtId);\n\t}\n\n\t/**\n\t * @dev Advocate locks/unlocks a Thought.\n\t\t\tWhen a Thought is locked, no transaction can happen on the Thought (i.e adding funds, adding sub Thought, etc.)\n\t\t\tuntil the Thought is unlocked again.\n\t * @param _thoughtId The ID of the Thought\n\t * @param _locked The bool value to be set\n\t */\n\tfunction setThoughtLocked(address _thoughtId, bool _locked) public isThought(_thoughtId) senderIsName(msg.sender) onlyAdvocateOf(msg.sender, _thoughtId) {\n\t\trequire (Thought(_thoughtId).setLocked(_locked));\n\n\t\temit SetThoughtLocked(_thoughtId, _locked);\n\t}\n}\n",
	"sourcePath": "/home/jmulyono/ao-contracts/contracts/ThoughtFactory.sol",
	"compiler": {
		"name": "solc",
		"version": "0.4.24+commit.e67f0147.Emscripten.clang"
	},
	"schemaVersion": "2.0.1",
	"updatedAt": "2018-12-11T08:43:54.404Z"
}