{
	"contractName": "ThoughtController",
	"abi": [
		{
			"constant": true,
			"inputs": [],
			"name": "positionAddress",
			"outputs": [
				{
					"name": "",
					"type": "address"
				}
			],
			"payable": false,
			"stateMutability": "view",
			"type": "function"
		},
		{
			"constant": true,
			"inputs": [],
			"name": "nameFactoryAddress",
			"outputs": [
				{
					"name": "",
					"type": "address"
				}
			],
			"payable": false,
			"stateMutability": "view",
			"type": "function"
		},
		{
			"inputs": [
				{
					"name": "_nameFactoryAddress",
					"type": "address"
				},
				{
					"name": "_positionAddress",
					"type": "address"
				}
			],
			"payable": false,
			"stateMutability": "nonpayable",
			"type": "constructor"
		}
	],
	"bytecode": "0x608060405234801561001057600080fd5b5060405160408061018583398101604052805160209091015160008054600160a060020a03938416600160a060020a0319918216179182905560018054938516938216939093179283905560028054821692851692909217909155600380549091169190921617905560fe806100876000396000f30060806040526004361060485763ffffffff7c0100000000000000000000000000000000000000000000000000000000600035041663636a8bd78114604d578063bc406206146088575b600080fd5b348015605857600080fd5b50605f609a565b6040805173ffffffffffffffffffffffffffffffffffffffff9092168252519081900360200190f35b348015609357600080fd5b50605f60b6565b60015473ffffffffffffffffffffffffffffffffffffffff1681565b60005473ffffffffffffffffffffffffffffffffffffffff16815600a165627a7a723058204e7ef7b359c06ca3910be29081969f760cca1ea66524fac3fdc3a8736cc77e470029",
	"source": "pragma solidity ^0.4.24;\n\nimport './Thought.sol';\nimport './Name.sol';\nimport './NameFactory.sol';\nimport './Position.sol';\nimport './SafeMath.sol';\n\n/**\n * @title ThoughtController\n */\ncontract ThoughtController {\n\tusing SafeMath for uint256;\n\n\taddress public nameFactoryAddress;\n\taddress public positionAddress;\n\tNameFactory internal _nameFactory;\n\tPosition internal _position;\n\n\t/**\n\t * @dev Constructor function\n\t */\n\tconstructor(address _nameFactoryAddress, address _positionAddress) public {\n\t\tnameFactoryAddress = _nameFactoryAddress;\n\t\tpositionAddress = _positionAddress;\n\n\t\t_nameFactory = NameFactory(nameFactoryAddress);\n\t\t_position = Position(positionAddress);\n\t}\n\n\t/**\n\t * @dev Check if `_thoughtId` is a Thought\n\t */\n\tmodifier isThought(address _thoughtId) {\n\t\trequire (Thought(_thoughtId).originNameId() != address(0) && Thought(_thoughtId).thoughtTypeId() == 0);\n\t\t_;\n\t}\n\n\t/**\n\t * @dev Check if `_nameId` is a Name\n\t */\n\tmodifier isName(address _nameId) {\n\t\trequire (Name(_nameId).originNameId() != address(0) && Name(_nameId).thoughtTypeId() == 1);\n\t\t_;\n\t}\n\n\t/**\n\t * @dev Check if `_sender` address is the current advocate of a `_thoughtId`\n\t */\n\tmodifier onlyAdvocateOf(address _sender, address _thoughtId) {\n\t\trequire (Name(Thought(_thoughtId).advocateId()).originNameId() == _sender);\n\t\t_;\n\t}\n\n\t/**\n\t * @dev Check is `_sender` address is a Name\n\t */\n\t modifier senderIsName(address _sender) {\n\t\trequire (_nameFactory.ethAddressToNameId(_sender) != address(0));\n\t\t_;\n\t }\n}\n",
	"sourcePath": "/home/jmulyono/ao-contracts/contracts/ThoughtController.sol",
	"compiler": {
		"name": "solc",
		"version": "0.4.24+commit.e67f0147.Emscripten.clang"
	},
	"schemaVersion": "2.0.1",
	"updatedAt": "2018-12-11T07:35:34.195Z"
}