{
  "contractName": "TokenTwo",
  "abi": [
    {
      "constant": true,
      "inputs": [],
      "name": "name",
      "outputs": [
        {
          "name": "",
          "type": "string"
        }
      ],
      "payable": false,
      "stateMutability": "view",
      "type": "function"
    },
    {
      "constant": false,
      "inputs": [
        {
          "name": "_spender",
          "type": "address"
        },
        {
          "name": "_value",
          "type": "uint256"
        }
      ],
      "name": "approve",
      "outputs": [
        {
          "name": "success",
          "type": "bool"
        }
      ],
      "payable": false,
      "stateMutability": "nonpayable",
      "type": "function"
    },
    {
      "constant": true,
      "inputs": [],
      "name": "totalSupply",
      "outputs": [
        {
          "name": "",
          "type": "uint256"
        }
      ],
      "payable": false,
      "stateMutability": "view",
      "type": "function"
    },
    {
      "constant": false,
      "inputs": [
        {
          "name": "_from",
          "type": "address"
        },
        {
          "name": "_to",
          "type": "address"
        },
        {
          "name": "_value",
          "type": "uint256"
        }
      ],
      "name": "transferFrom",
      "outputs": [
        {
          "name": "success",
          "type": "bool"
        }
      ],
      "payable": false,
      "stateMutability": "nonpayable",
      "type": "function"
    },
    {
      "constant": true,
      "inputs": [],
      "name": "decimals",
      "outputs": [
        {
          "name": "",
          "type": "uint8"
        }
      ],
      "payable": false,
      "stateMutability": "view",
      "type": "function"
    },
    {
      "constant": false,
      "inputs": [
        {
          "name": "_value",
          "type": "uint256"
        }
      ],
      "name": "burn",
      "outputs": [
        {
          "name": "success",
          "type": "bool"
        }
      ],
      "payable": false,
      "stateMutability": "nonpayable",
      "type": "function"
    },
    {
      "constant": true,
      "inputs": [
        {
          "name": "",
          "type": "address"
        }
      ],
      "name": "balanceOf",
      "outputs": [
        {
          "name": "",
          "type": "uint256"
        }
      ],
      "payable": false,
      "stateMutability": "view",
      "type": "function"
    },
    {
      "constant": false,
      "inputs": [
        {
          "name": "_from",
          "type": "address"
        },
        {
          "name": "_value",
          "type": "uint256"
        }
      ],
      "name": "burnFrom",
      "outputs": [
        {
          "name": "success",
          "type": "bool"
        }
      ],
      "payable": false,
      "stateMutability": "nonpayable",
      "type": "function"
    },
    {
      "constant": true,
      "inputs": [],
      "name": "symbol",
      "outputs": [
        {
          "name": "",
          "type": "string"
        }
      ],
      "payable": false,
      "stateMutability": "view",
      "type": "function"
    },
    {
      "constant": false,
      "inputs": [
        {
          "name": "_to",
          "type": "address"
        },
        {
          "name": "_value",
          "type": "uint256"
        }
      ],
      "name": "transfer",
      "outputs": [
        {
          "name": "success",
          "type": "bool"
        }
      ],
      "payable": false,
      "stateMutability": "nonpayable",
      "type": "function"
    },
    {
      "constant": false,
      "inputs": [
        {
          "name": "_spender",
          "type": "address"
        },
        {
          "name": "_value",
          "type": "uint256"
        },
        {
          "name": "_extraData",
          "type": "bytes"
        }
      ],
      "name": "approveAndCall",
      "outputs": [
        {
          "name": "success",
          "type": "bool"
        }
      ],
      "payable": false,
      "stateMutability": "nonpayable",
      "type": "function"
    },
    {
      "constant": true,
      "inputs": [
        {
          "name": "",
          "type": "address"
        },
        {
          "name": "",
          "type": "address"
        }
      ],
      "name": "allowance",
      "outputs": [
        {
          "name": "",
          "type": "uint256"
        }
      ],
      "payable": false,
      "stateMutability": "view",
      "type": "function"
    },
    {
      "inputs": [
        {
          "name": "initialSupply",
          "type": "uint256"
        },
        {
          "name": "tokenName",
          "type": "string"
        },
        {
          "name": "tokenSymbol",
          "type": "string"
        }
      ],
      "payable": false,
      "stateMutability": "nonpayable",
      "type": "constructor"
    },
    {
      "anonymous": false,
      "inputs": [
        {
          "indexed": true,
          "name": "from",
          "type": "address"
        },
        {
          "indexed": true,
          "name": "to",
          "type": "address"
        },
        {
          "indexed": false,
          "name": "value",
          "type": "uint256"
        }
      ],
      "name": "Transfer",
      "type": "event"
    },
    {
      "anonymous": false,
      "inputs": [
        {
          "indexed": true,
          "name": "_owner",
          "type": "address"
        },
        {
          "indexed": true,
          "name": "_spender",
          "type": "address"
        },
        {
          "indexed": false,
          "name": "_value",
          "type": "uint256"
        }
      ],
      "name": "Approval",
      "type": "event"
    },
    {
      "anonymous": false,
      "inputs": [
        {
          "indexed": true,
          "name": "from",
          "type": "address"
        },
        {
          "indexed": false,
          "name": "value",
          "type": "uint256"
        }
      ],
      "name": "Burn",
      "type": "event"
    }
  ],
  "bytecode": "0x60806040526002805460ff1916601217905534801561001d57600080fd5b50604051610b44380380610b448339810180604052606081101561004057600080fd5b81516020830180519193928301929164010000000081111561006157600080fd5b8201602081018481111561007457600080fd5b815164010000000081118282018710171561008e57600080fd5b505092919060200180516401000000008111156100aa57600080fd5b820160208101848111156100bd57600080fd5b81516401000000008111828201871017156100d757600080fd5b505060025460ff16600a0a860260038190553360009081526004602090815260408220929092558651929550879450869350859261011792850190610164565b50805161012b906001906020840190610164565b50506002805460ff191681179081905560ff16600a0a94909402600381905533600090815260046020526040902055506101ff92505050565b828054600181600116156101000203166002900490600052602060002090601f016020900481019282601f106101a557805160ff19168380011785556101d2565b828001600101855582156101d2579182015b828111156101d25782518255916020019190600101906101b7565b506101de9291506101e2565b5090565b6101fc91905b808211156101de57600081556001016101e8565b90565b6109368061020e6000396000f3fe608060405234801561001057600080fd5b50600436106100d1576000357c01000000000000000000000000000000000000000000000000000000009004806370a082311161008e57806370a082311461021e57806379cc67901461024457806395d89b4114610270578063a9059cbb14610278578063cae9ca51146102a4578063dd62ed3e1461035f576100d1565b806306fdde03146100d6578063095ea7b31461015357806318160ddd1461019357806323b872dd146101ad578063313ce567146101e357806342966c6814610201575b600080fd5b6100de61038d565b6040805160208082528351818301528351919283929083019185019080838360005b83811015610118578181015183820152602001610100565b50505050905090810190601f1680156101455780820380516001836020036101000a031916815260200191505b509250505060405180910390f35b61017f6004803603604081101561016957600080fd5b50600160a060020a03813516906020013561041b565b604080519115158252519081900360200190f35b61019b610481565b60408051918252519081900360200190f35b61017f600480360360608110156101c357600080fd5b50600160a060020a03813581169160208101359091169060400135610487565b6101eb6104f7565b6040805160ff9092168252519081900360200190f35b61017f6004803603602081101561021757600080fd5b5035610500565b61019b6004803603602081101561023457600080fd5b5035600160a060020a0316610578565b61017f6004803603604081101561025a57600080fd5b50600160a060020a03813516906020013561058a565b6100de61065b565b61017f6004803603604081101561028e57600080fd5b50600160a060020a0381351690602001356106b5565b61017f600480360360608110156102ba57600080fd5b600160a060020a03823516916020810135918101906060810160408201356401000000008111156102ea57600080fd5b8201836020820111156102fc57600080fd5b8035906020019184600183028401116401000000008311171561031e57600080fd5b91908080601f0160208091040260200160405190810160405280939291908181526020018383808284376000920191909152509295506106cb945050505050565b61019b6004803603604081101561037557600080fd5b50600160a060020a03813581169160200135166107e9565b6000805460408051602060026001851615610100026000190190941693909304601f810184900484028201840190925281815292918301828280156104135780601f106103e857610100808354040283529160200191610413565b820191906000526020600020905b8154815290600101906020018083116103f657829003601f168201915b505050505081565b336000818152600560209081526040808320600160a060020a038716808552908352818420869055815186815291519394909390927f8c5be1e5ebec7d5bd14f71427d1e84f3dd0314c0f7b2291e5b200ac8c7c3b925928290030190a350600192915050565b60035481565b600160a060020a03831660009081526005602090815260408083203384529091528120548211156104b757600080fd5b600160a060020a03841660009081526005602090815260408083203384529091529020805483900390556104ec848484610806565b5060015b9392505050565b60025460ff1681565b3360009081526004602052604081205482111561051c57600080fd5b3360008181526004602090815260409182902080548690039055600380548690039055815185815291517fcc16f5dbb4873280815c1ee09dbd06736cffcc184412cf7a71a0fdb75d397ca59281900390910190a2506001919050565b60046020526000908152604090205481565b600160a060020a0382166000908152600460205260408120548211156105af57600080fd5b600160a060020a03831660009081526005602090815260408083203384529091529020548211156105df57600080fd5b600160a060020a0383166000818152600460209081526040808320805487900390556005825280832033845282529182902080548690039055600380548690039055815185815291517fcc16f5dbb4873280815c1ee09dbd06736cffcc184412cf7a71a0fdb75d397ca59281900390910190a250600192915050565b60018054604080516020600284861615610100026000190190941693909304601f810184900484028201840190925281815292918301828280156104135780601f106103e857610100808354040283529160200191610413565b60006106c2338484610806565b50600192915050565b6000836106d8818561041b565b156107e1576040517f8f4ffcb10000000000000000000000000000000000000000000000000000000081523360048201818152602483018790523060448401819052608060648501908152875160848601528751600160a060020a03871695638f4ffcb195948b94938b939192909160a490910190602085019080838360005b83811015610770578181015183820152602001610758565b50505050905090810190601f16801561079d5780820380516001836020036101000a031916815260200191505b5095505050505050600060405180830381600087803b1580156107bf57600080fd5b505af11580156107d3573d6000803e3d6000fd5b5050505060019150506104f0565b509392505050565b600560209081526000928352604080842090915290825290205481565b600160a060020a038216151561081b57600080fd5b600160a060020a03831660009081526004602052604090205481111561084057600080fd5b600160a060020a0382166000908152600460205260409020548181011161086657600080fd5b600160a060020a038083166000818152600460209081526040808320805495891680855282852080548981039091559486905281548801909155815187815291519390950194927fddf252ad1be2c89b69c2b068fc378daa952ba7f163c4a11628f55a4df523b3ef929181900390910190a3600160a060020a0380841660009081526004602052604080822054928716825290205401811461090457fe5b5050505056fea165627a7a723058204d82a93f7169ad07542f15425febf319f3764e9f68075ff06bbb07e9f39f8f640029",
  "source": "pragma solidity ^0.5.4;\n\nimport './TokenERC20.sol';\n\n/**\n * @title TokenTwo\n */\ncontract TokenTwo is TokenERC20 {\n\t/**\n\t * @dev Constructor function\n\t */\n\tconstructor(uint256 initialSupply, string memory tokenName, string memory tokenSymbol)\n\t\tTokenERC20(initialSupply, tokenName, tokenSymbol) public {\n\t\tdecimals = 2;\n\t\ttotalSupply = initialSupply * 10 ** uint256(decimals);  // Update total supply with the decimal amount\n\t\tbalanceOf[msg.sender] = totalSupply;                // Give the creator all initial tokens\n\t}\n}\n",
  "sourcePath": "/usr/local/ao-contracts/contracts/TokenTwo.sol",
  "compiler": {
    "name": "solc",
    "version": "0.5.4+commit.9549d8ff.Emscripten.clang"
  },
  "schemaVersion": "3.0.2",
  "updatedAt": "2019-03-21T02:41:20.982Z",
  "devdoc": {
    "methods": {
      "approve(address,uint256)": {
        "params": {
          "_spender": "The address authorized to spend",
          "_value": "the max amount they can spend"
        }
      },
      "approveAndCall(address,uint256,bytes)": {
        "params": {
          "_extraData": "some extra information to send to the approved contract",
          "_spender": "The address authorized to spend",
          "_value": "the max amount they can spend"
        }
      },
      "burn(uint256)": {
        "params": {
          "_value": "the amount of money to burn"
        }
      },
      "burnFrom(address,uint256)": {
        "params": {
          "_from": "the address of the sender",
          "_value": "the amount of money to burn"
        }
      },
      "constructor": {
        "details": "Constructor function"
      },
      "transfer(address,uint256)": {
        "params": {
          "_to": "The address of the recipient",
          "_value": "the amount to send"
        }
      },
      "transferFrom(address,address,uint256)": {
        "params": {
          "_from": "The address of the sender",
          "_to": "The address of the recipient",
          "_value": "the amount to send"
        }
      }
    },
    "title": "TokenTwo"
  },
  "userdoc": {
    "methods": {
      "approve(address,uint256)": {
        "notice": "Set allowance for other address\t * Allows `_spender` to spend no more than `_value` tokens in your behalf"
      },
      "approveAndCall(address,uint256,bytes)": {
        "notice": "Set allowance for other address and notify\t * Allows `_spender` to spend no more than `_value` tokens in your behalf, and then ping the contract about it"
      },
      "burn(uint256)": {
        "notice": "Destroy tokens\t * Remove `_value` tokens from the system irreversibly"
      },
      "burnFrom(address,uint256)": {
        "notice": "Destroy tokens from other account\t * Remove `_value` tokens from the system irreversibly on behalf of `_from`."
      },
      "transfer(address,uint256)": {
        "notice": "Transfer tokens\t * Send `_value` tokens to `_to` from your account"
      },
      "transferFrom(address,address,uint256)": {
        "notice": "Transfer tokens from other address\t * Send `_value` tokens to `_to` in behalf of `_from`"
      }
    }
  }
}