{
	"contractName": "Voice",
	"abi": [
		{
			"constant": true,
			"inputs": [],
			"name": "name",
			"outputs": [
				{
					"name": "",
					"type": "string"
				}
			],
			"payable": false,
			"stateMutability": "view",
			"type": "function"
		},
		{
			"constant": true,
			"inputs": [],
			"name": "totalSupply",
			"outputs": [
				{
					"name": "",
					"type": "uint256"
				}
			],
			"payable": false,
			"stateMutability": "view",
			"type": "function"
		},
		{
			"constant": true,
			"inputs": [],
			"name": "decimals",
			"outputs": [
				{
					"name": "",
					"type": "uint8"
				}
			],
			"payable": false,
			"stateMutability": "view",
			"type": "function"
		},
		{
			"constant": true,
			"inputs": [
				{
					"name": "",
					"type": "address"
				},
				{
					"name": "",
					"type": "address"
				}
			],
			"name": "taoStakedBalance",
			"outputs": [
				{
					"name": "",
					"type": "uint256"
				}
			],
			"payable": false,
			"stateMutability": "view",
			"type": "function"
		},
		{
			"constant": true,
			"inputs": [],
			"name": "nameTAOPositionAddress",
			"outputs": [
				{
					"name": "",
					"type": "address"
				}
			],
			"payable": false,
			"stateMutability": "view",
			"type": "function"
		},
		{
			"constant": true,
			"inputs": [
				{
					"name": "",
					"type": "address"
				}
			],
			"name": "hasReceived",
			"outputs": [
				{
					"name": "",
					"type": "bool"
				}
			],
			"payable": false,
			"stateMutability": "view",
			"type": "function"
		},
		{
			"constant": true,
			"inputs": [
				{
					"name": "",
					"type": "address"
				}
			],
			"name": "balanceOf",
			"outputs": [
				{
					"name": "",
					"type": "uint256"
				}
			],
			"payable": false,
			"stateMutability": "view",
			"type": "function"
		},
		{
			"constant": true,
			"inputs": [],
			"name": "MAX_SUPPLY_PER_NAME",
			"outputs": [
				{
					"name": "",
					"type": "uint256"
				}
			],
			"payable": false,
			"stateMutability": "view",
			"type": "function"
		},
		{
			"constant": true,
			"inputs": [],
			"name": "symbol",
			"outputs": [
				{
					"name": "",
					"type": "string"
				}
			],
			"payable": false,
			"stateMutability": "view",
			"type": "function"
		},
		{
			"constant": true,
			"inputs": [
				{
					"name": "",
					"type": "address"
				}
			],
			"name": "whitelist",
			"outputs": [
				{
					"name": "",
					"type": "bool"
				}
			],
			"payable": false,
			"stateMutability": "view",
			"type": "function"
		},
		{
			"constant": true,
			"inputs": [],
			"name": "theAO",
			"outputs": [
				{
					"name": "",
					"type": "address"
				}
			],
			"payable": false,
			"stateMutability": "view",
			"type": "function"
		},
		{
			"inputs": [
				{
					"name": "_name",
					"type": "string"
				},
				{
					"name": "_symbol",
					"type": "string"
				}
			],
			"payable": false,
			"stateMutability": "nonpayable",
			"type": "constructor"
		},
		{
			"anonymous": false,
			"inputs": [
				{
					"indexed": true,
					"name": "nameId",
					"type": "address"
				},
				{
					"indexed": false,
					"name": "value",
					"type": "uint256"
				}
			],
			"name": "Mint",
			"type": "event"
		},
		{
			"anonymous": false,
			"inputs": [
				{
					"indexed": true,
					"name": "nameId",
					"type": "address"
				},
				{
					"indexed": true,
					"name": "taoId",
					"type": "address"
				},
				{
					"indexed": false,
					"name": "value",
					"type": "uint256"
				}
			],
			"name": "Stake",
			"type": "event"
		},
		{
			"anonymous": false,
			"inputs": [
				{
					"indexed": true,
					"name": "nameId",
					"type": "address"
				},
				{
					"indexed": true,
					"name": "taoId",
					"type": "address"
				},
				{
					"indexed": false,
					"name": "value",
					"type": "uint256"
				}
			],
			"name": "Unstake",
			"type": "event"
		},
		{
			"constant": false,
			"inputs": [
				{
					"name": "_theAO",
					"type": "address"
				}
			],
			"name": "transferOwnership",
			"outputs": [],
			"payable": false,
			"stateMutability": "nonpayable",
			"type": "function"
		},
		{
			"constant": false,
			"inputs": [
				{
					"name": "_account",
					"type": "address"
				},
				{
					"name": "_whitelist",
					"type": "bool"
				}
			],
			"name": "setWhitelist",
			"outputs": [],
			"payable": false,
			"stateMutability": "nonpayable",
			"type": "function"
		},
		{
			"constant": false,
			"inputs": [
				{
					"name": "_nameTAOPositionAddress",
					"type": "address"
				}
			],
			"name": "setNameTAOPositionAddress",
			"outputs": [],
			"payable": false,
			"stateMutability": "nonpayable",
			"type": "function"
		},
		{
			"constant": false,
			"inputs": [
				{
					"name": "_nameId",
					"type": "address"
				}
			],
			"name": "mint",
			"outputs": [
				{
					"name": "",
					"type": "bool"
				}
			],
			"payable": false,
			"stateMutability": "nonpayable",
			"type": "function"
		},
		{
			"constant": true,
			"inputs": [
				{
					"name": "_nameId",
					"type": "address"
				}
			],
			"name": "stakedBalance",
			"outputs": [
				{
					"name": "",
					"type": "uint256"
				}
			],
			"payable": false,
			"stateMutability": "view",
			"type": "function"
		},
		{
			"constant": false,
			"inputs": [
				{
					"name": "_nameId",
					"type": "address"
				},
				{
					"name": "_taoId",
					"type": "address"
				},
				{
					"name": "_value",
					"type": "uint256"
				}
			],
			"name": "stake",
			"outputs": [
				{
					"name": "",
					"type": "bool"
				}
			],
			"payable": false,
			"stateMutability": "nonpayable",
			"type": "function"
		},
		{
			"constant": false,
			"inputs": [
				{
					"name": "_nameId",
					"type": "address"
				},
				{
					"name": "_taoId",
					"type": "address"
				},
				{
					"name": "_value",
					"type": "uint256"
				}
			],
			"name": "unstake",
			"outputs": [
				{
					"name": "",
					"type": "bool"
				}
			],
			"payable": false,
			"stateMutability": "nonpayable",
			"type": "function"
		}
	],
	"bytecode": "0x60806040526005805460ff191660041790553480156200001e57600080fd5b506040516200129f3803806200129f833981018060405260408110156200004457600080fd5b8101908080516401000000008111156200005d57600080fd5b820160208101848111156200007157600080fd5b81516401000000008111828201871017156200008c57600080fd5b50509291906020018051640100000000811115620000a957600080fd5b82016020810184811115620000bd57600080fd5b8151640100000000811182820187101715620000d857600080fd5b505060008054600160a060020a03191633179055845190935062000106925060039150602085019062000125565b5080516200011c90600490602084019062000125565b505050620001ca565b828054600181600116156101000203166002900490600052602060002090601f016020900481019282601f106200016857805160ff191683800117855562000198565b8280016001018555821562000198579182015b82811115620001985782518255916020019190600101906200017b565b50620001a6929150620001aa565b5090565b620001c791905b80821115620001a65760008155600101620001b1565b90565b6110c580620001da6000396000f3fe608060405234801561001057600080fd5b506004361061011a5760003560e060020a9004806367327ecc116100a657806395d89b411161007557806395d89b41146103665780639b19251a1461036e578063a9b6b38e14610394578063bf6eac2f1461039c578063f2fde38b146103d25761011a565b806367327ecc146102ec5780636a6278421461031257806370a08231146103385780637c291a0e1461035e5761011a565b80634ef033f0116100ed5780634ef033f01461020257806353d6fd59146102265780635cfaf2ef14610256578063602172671461027c57806360829f8a146102a25761011a565b806306fdde031461011f57806318160ddd1461019c578063313ce567146101b657806331d5e94d146101d4575b600080fd5b6101276103f8565b6040805160208082528351818301528351919283929083019185019080838360005b83811015610161578181015183820152602001610149565b50505050905090810190601f16801561018e5780820380516001836020036101000a031916815260200191505b509250505060405180910390f35b6101a4610486565b60408051918252519081900360200190f35b6101be61048c565b6040805160ff9092168252519081900360200190f35b6101a4600480360360408110156101ea57600080fd5b50600160a060020a0381358116916020013516610495565b61020a6104b2565b60408051600160a060020a039092168252519081900360200190f35b6102546004803603604081101561023c57600080fd5b50600160a060020a03813516906020013515156104c1565b005b6102546004803603602081101561026c57600080fd5b5035600160a060020a03166105c0565b6101a46004803603602081101561029257600080fd5b5035600160a060020a03166106c3565b6102d8600480360360608110156102b857600080fd5b50600160a060020a03813581169160208101359091169060400135610795565b604080519115158252519081900360200190f35b6102d86004803603602081101561030257600080fd5b5035600160a060020a0316610a76565b6102d86004803603602081101561032857600080fd5b5035600160a060020a0316610a8b565b6101a46004803603602081101561034e57600080fd5b5035600160a060020a0316610c2c565b6101a4610c3e565b610127610c45565b6102d86004803603602081101561038457600080fd5b5035600160a060020a0316610ca0565b61020a610cb5565b6102d8600480360360608110156103b257600080fd5b50600160a060020a03813581169160208101359091169060400135610cc4565b610254600480360360208110156103e857600080fd5b5035600160a060020a0316610f71565b6003805460408051602060026001851615610100026000190190941693909304601f8101849004840282018401909252818152929183018282801561047e5780601f106104535761010080835404028352916020019161047e565b820191906000526020600020905b81548152906001019060200180831161046157829003601f168201915b505050505081565b60065481565b60055460ff1681565b600960209081526000928352604080842090915290825290205481565b600154600160a060020a031681565b600054600154604080517ff66afcac000000000000000000000000000000000000000000000000000000008152336004820152600160a060020a0393841660248201529290911660448301525173__AOLibrary_____________________________9163f66afcac916064808301926020929190829003018186803b15801561054957600080fd5b505af415801561055d573d6000803e3d6000fd5b505050506040513d602081101561057357600080fd5b5051151561058057600080fd5b600160a060020a038216151561059557600080fd5b600160a060020a03919091166000908152600260205260409020805460ff1916911515919091179055565b600054600154604080517ff66afcac000000000000000000000000000000000000000000000000000000008152336004820152600160a060020a0393841660248201529290911660448301525173__AOLibrary_____________________________9163f66afcac916064808301926020929190829003018186803b15801561064857600080fd5b505af415801561065c573d6000803e3d6000fd5b505050506040513d602081101561067257600080fd5b5051151561067f57600080fd5b600160a060020a038116151561069457600080fd5b6001805473ffffffffffffffffffffffffffffffffffffffff1916600160a060020a0392909216919091179055565b60008173__AOLibrary_____________________________632d706a34826040518263ffffffff1660e060020a0281526004018082600160a060020a0316600160a060020a0316815260200191505060206040518083038186803b15801561072a57600080fd5b505af415801561073e573d6000803e3d6000fd5b505050506040513d602081101561075457600080fd5b5051151561076157600080fd5b600160a060020a03831660009081526008602052604090205461078e90620f42409063ffffffff61107416565b9392505050565b3360009081526002602052604081205460ff1615156001146107b657600080fd5b8373__AOLibrary_____________________________632d706a34826040518263ffffffff1660e060020a0281526004018082600160a060020a0316600160a060020a0316815260200191505060206040518083038186803b15801561081b57600080fd5b505af415801561082f573d6000803e3d6000fd5b505050506040513d602081101561084557600080fd5b5051151561085257600080fd5b8373__AOLibrary_____________________________632fca5414826040518263ffffffff1660e060020a0281526004018082600160a060020a0316600160a060020a0316815260200191505060206040518083038186803b1580156108b757600080fd5b505af41580156108cb573d6000803e3d6000fd5b505050506040513d60208110156108e157600080fd5b505115156108ee57600080fd5b6000841180156109015750620f42408411155b151561090c57600080fd5b600160a060020a0380871660009081526009602090815260408083209389168352929052205484111561093e57600080fd5b600160a060020a03851660009081526008602052604090205484111561096357600080fd5b600160a060020a03808716600090815260096020908152604080832093891683529290522054610999908563ffffffff61107416565b600160a060020a038088166000908152600960209081526040808320938a1683529281528282209390935560089092529020546109dc908563ffffffff61107416565b600160a060020a038087166000908152600860205260408082209390935590881681522054610a11908563ffffffff61108616565b600160a060020a0380881660008181526008602090815260409182902094909455805188815290519289169391927f390b1276974b9463e5d66ab10df69b6f3d7b930eb066a0e66df327edd2cc811c929181900390910190a350600195945050505050565b60076020526000908152604090205460ff1681565b3360009081526002602052604081205460ff161515600114610aac57600080fd5b8173__AOLibrary_____________________________632d706a34826040518263ffffffff1660e060020a0281526004018082600160a060020a0316600160a060020a0316815260200191505060206040518083038186803b158015610b1157600080fd5b505af4158015610b25573d6000803e3d6000fd5b505050506040513d6020811015610b3b57600080fd5b50511515610b4857600080fd5b600160a060020a03831660009081526007602052604090205460ff1615610b6e57600080fd5b600160a060020a0383166000908152600760209081526040808320805460ff191660011790556008909152902054610baf90620f424063ffffffff61108616565b600160a060020a038416600090815260086020526040902055600654610bde90620f424063ffffffff61108616565b60065560408051620f424081529051600160a060020a038516917f0f6798a560793a54c3bcfe86a93cde1e73087d944c0ea20544137d4121396885919081900360200190a250600192915050565b60086020526000908152604090205481565b620f424081565b6004805460408051602060026001851615610100026000190190941693909304601f8101849004840282018401909252818152929183018282801561047e5780601f106104535761010080835404028352916020019161047e565b60026020526000908152604090205460ff1681565b600054600160a060020a031681565b3360009081526002602052604081205460ff161515600114610ce557600080fd5b8373__AOLibrary_____________________________632d706a34826040518263ffffffff1660e060020a0281526004018082600160a060020a0316600160a060020a0316815260200191505060206040518083038186803b158015610d4a57600080fd5b505af4158015610d5e573d6000803e3d6000fd5b505050506040513d6020811015610d7457600080fd5b50511515610d8157600080fd5b8373__AOLibrary_____________________________632fca5414826040518263ffffffff1660e060020a0281526004018082600160a060020a0316600160a060020a0316815260200191505060206040518083038186803b158015610de657600080fd5b505af4158015610dfa573d6000803e3d6000fd5b505050506040513d6020811015610e1057600080fd5b50511515610e1d57600080fd5b600084118015610e305750620f42408411155b1515610e3b57600080fd5b600160a060020a038616600090815260086020526040902054841115610e6057600080fd5b600160a060020a038616600090815260086020526040902054610e89908563ffffffff61107416565b600160a060020a03808816600090815260086020908152604080832094909455600981528382209289168252919091522054610ecb908563ffffffff61108616565b600160a060020a038088166000908152600960209081526040808320938a168352928152828220939093556008909252902054610f0e908563ffffffff61108616565b600160a060020a0380871660008181526008602090815260409182902094909455805188815290519193928a16927f99039fcf0a98f484616c5196ee8b2ecfa971babf0b519848289ea4db381f85f792918290030190a350600195945050505050565b600054600154604080517ff66afcac000000000000000000000000000000000000000000000000000000008152336004820152600160a060020a0393841660248201529290911660448301525173__AOLibrary_____________________________9163f66afcac916064808301926020929190829003018186803b158015610ff957600080fd5b505af415801561100d573d6000803e3d6000fd5b505050506040513d602081101561102357600080fd5b5051151561103057600080fd5b600160a060020a038116151561104557600080fd5b6000805473ffffffffffffffffffffffffffffffffffffffff1916600160a060020a0392909216919091179055565b60008282111561108057fe5b50900390565b8181018281101561109357fe5b9291505056fea165627a7a723058201afbe18f477560394ace3b73310f25ee47b7d8dfa1b1fe6fd83a961576f6d1d90029",
	"source": "pragma solidity >=0.5.4 <0.6.0;\n\nimport './SafeMath.sol';\nimport './AOLibrary.sol';\nimport './TheAO.sol';\n\n/**\n * @title Voice\n */\ncontract Voice is TheAO {\n\tusing SafeMath for uint256;\n\n\t// Public variables of the contract\n\tstring public name;\n\tstring public symbol;\n\tuint8 public decimals = 4;\n\n\tuint256 constant public MAX_SUPPLY_PER_NAME = 100 * (10 ** 4);\n\n\tuint256 public totalSupply;\n\n\t// Mapping from Name ID to bool value whether or not it has received Voice\n\tmapping (address => bool) public hasReceived;\n\n\t// Mapping from Name/TAO ID to its total available balance\n\tmapping (address => uint256) public balanceOf;\n\n\t// Mapping from Name ID to TAO ID and its staked amount\n\tmapping (address => mapping(address => uint256)) public taoStakedBalance;\n\n\t// This generates a public event on the blockchain that will notify clients\n\tevent Mint(address indexed nameId, uint256 value);\n\tevent Stake(address indexed nameId, address indexed taoId, uint256 value);\n\tevent Unstake(address indexed nameId, address indexed taoId, uint256 value);\n\n\t/**\n\t * Constructor function\n\t */\n\tconstructor (string memory _name, string memory _symbol) public {\n\t\tname = _name;\t\t\t\t\t\t// Set the name for display purposes\n\t\tsymbol = _symbol;\t\t\t\t\t// Set the symbol for display purposes\n\t}\n\n\t/**\n\t * @dev Checks if the calling contract address is The AO\n\t *\t\tOR\n\t *\t\tIf The AO is set to a Name/TAO, then check if calling address is the Advocate\n\t */\n\tmodifier onlyTheAO {\n\t\trequire (AOLibrary.isTheAO(msg.sender, theAO, nameTAOPositionAddress));\n\t\t_;\n\t}\n\n\t/**\n\t * @dev Check if `_taoId` is a TAO\n\t */\n\tmodifier isTAO(address _taoId) {\n\t\trequire (AOLibrary.isTAO(_taoId));\n\t\t_;\n\t}\n\n\t/**\n\t * @dev Check if `_nameId` is a Name\n\t */\n\tmodifier isName(address _nameId) {\n\t\trequire (AOLibrary.isName(_nameId));\n\t\t_;\n\t}\n\n\t/***** The AO ONLY METHODS *****/\n\t/**\n\t * @dev Transfer ownership of The AO to new address\n\t * @param _theAO The new address to be transferred\n\t */\n\tfunction transferOwnership(address _theAO) public onlyTheAO {\n\t\trequire (_theAO != address(0));\n\t\ttheAO = _theAO;\n\t}\n\n\t/**\n\t * @dev Whitelist `_account` address to transact on behalf of others\n\t * @param _account The address to whitelist\n\t * @param _whitelist Either to whitelist or not\n\t */\n\tfunction setWhitelist(address _account, bool _whitelist) public onlyTheAO {\n\t\trequire (_account != address(0));\n\t\twhitelist[_account] = _whitelist;\n\t}\n\n\t/**\n\t * @dev The AO set the NameTAOPosition Address\n\t * @param _nameTAOPositionAddress The address of NameTAOPosition\n\t */\n\tfunction setNameTAOPositionAddress(address _nameTAOPositionAddress) public onlyTheAO {\n\t\trequire (_nameTAOPositionAddress != address(0));\n\t\tnameTAOPositionAddress = _nameTAOPositionAddress;\n\t}\n\n\t/***** PUBLIC METHODS *****/\n\t/**\n\t * @dev Create `MAX_SUPPLY_PER_NAME` Voice and send it to `_nameId`\n\t * @param _nameId Address to receive Voice\n\t * @return true on success\n\t */\n\tfunction mint(address _nameId) public inWhitelist isName(_nameId) returns (bool) {\n\t\t// Make sure _nameId has not received Voice\n\t\trequire (hasReceived[_nameId] == false);\n\n\t\thasReceived[_nameId] = true;\n\t\tbalanceOf[_nameId] = balanceOf[_nameId].add(MAX_SUPPLY_PER_NAME);\n\t\ttotalSupply = totalSupply.add(MAX_SUPPLY_PER_NAME);\n\t\temit Mint(_nameId, MAX_SUPPLY_PER_NAME);\n\t\treturn true;\n\t}\n\n\t/**\n\t * @dev Get staked balance of `_nameId`\n\t * @param _nameId The Name ID to be queried\n\t * @return total staked balance\n\t */\n\tfunction stakedBalance(address _nameId) public isName(_nameId) view returns (uint256) {\n\t\treturn MAX_SUPPLY_PER_NAME.sub(balanceOf[_nameId]);\n\t}\n\n\t/**\n\t * @dev Stake `_value` Voice on `_taoId` from `_nameId`\n\t * @param _nameId The Name ID that wants to stake\n\t * @param _taoId The TAO ID to stake\n\t * @param _value The amount to stake\n\t * @return true on success\n\t */\n\tfunction stake(address _nameId, address _taoId, uint256 _value) public inWhitelist isName(_nameId) isTAO(_taoId) returns (bool) {\n\t\trequire (_value > 0 && _value <= MAX_SUPPLY_PER_NAME);\n\t\trequire (balanceOf[_nameId] >= _value);\t\t\t\t\t\t\t// Check if the targeted balance is enough\n\t\tbalanceOf[_nameId] = balanceOf[_nameId].sub(_value);\t\t\t// Subtract from the targeted balance\n\t\ttaoStakedBalance[_nameId][_taoId] = taoStakedBalance[_nameId][_taoId].add(_value);\t// Add to the targeted staked balance\n\t\tbalanceOf[_taoId] = balanceOf[_taoId].add(_value);\n\t\temit Stake(_nameId, _taoId, _value);\n\t\treturn true;\n\t}\n\n\t/**\n\t * @dev Unstake `_value` Voice from `_nameId`'s `_taoId`\n\t * @param _nameId The Name ID that wants to unstake\n\t * @param _taoId The TAO ID to unstake\n\t * @param _value The amount to unstake\n\t * @return true on success\n\t */\n\tfunction unstake(address _nameId, address _taoId, uint256 _value) public inWhitelist isName(_nameId) isTAO(_taoId) returns (bool) {\n\t\trequire (_value > 0 && _value <= MAX_SUPPLY_PER_NAME);\n\t\trequire (taoStakedBalance[_nameId][_taoId] >= _value);\t// Check if the targeted staked balance is enough\n\t\trequire (balanceOf[_taoId] >= _value);\t// Check if the total targeted staked balance is enough\n\t\ttaoStakedBalance[_nameId][_taoId] = taoStakedBalance[_nameId][_taoId].sub(_value);\t// Subtract from the targeted staked balance\n\t\tbalanceOf[_taoId] = balanceOf[_taoId].sub(_value);\n\t\tbalanceOf[_nameId] = balanceOf[_nameId].add(_value);\t\t\t// Add to the targeted balance\n\t\temit Unstake(_nameId, _taoId, _value);\n\t\treturn true;\n\t}\n}\n",
	"sourcePath": "/home/jmulyono/ao-contracts/contracts/Voice.sol",
	"compiler": {
		"name": "solc",
		"version": "0.5.4+commit.9549d8ff.Emscripten.clang"
	},
	"schemaVersion": "3.0.9",
	"updatedAt": "2019-05-21T06:22:07.823Z",
	"devdoc": {
		"methods": {
			"mint(address)": {
				"details": "Create `MAX_SUPPLY_PER_NAME` Voice and send it to `_nameId`",
				"params": {
					"_nameId": "Address to receive Voice"
				},
				"return": "true on success"
			},
			"setNameTAOPositionAddress(address)": {
				"details": "The AO set the NameTAOPosition Address",
				"params": {
					"_nameTAOPositionAddress": "The address of NameTAOPosition"
				}
			},
			"setWhitelist(address,bool)": {
				"details": "Whitelist `_account` address to transact on behalf of others",
				"params": {
					"_account": "The address to whitelist",
					"_whitelist": "Either to whitelist or not"
				}
			},
			"stake(address,address,uint256)": {
				"details": "Stake `_value` Voice on `_taoId` from `_nameId`",
				"params": {
					"_nameId": "The Name ID that wants to stake",
					"_taoId": "The TAO ID to stake",
					"_value": "The amount to stake"
				},
				"return": "true on success"
			},
			"stakedBalance(address)": {
				"details": "Get staked balance of `_nameId`",
				"params": {
					"_nameId": "The Name ID to be queried"
				},
				"return": "total staked balance"
			},
			"transferOwnership(address)": {
				"details": "Transfer ownership of The AO to new address",
				"params": {
					"_theAO": "The new address to be transferred"
				}
			},
			"unstake(address,address,uint256)": {
				"details": "Unstake `_value` Voice from `_nameId`'s `_taoId`",
				"params": {
					"_nameId": "The Name ID that wants to unstake",
					"_taoId": "The TAO ID to unstake",
					"_value": "The amount to unstake"
				},
				"return": "true on success"
			}
		},
		"title": "Voice"
	},
	"userdoc": {
		"methods": {
			"constructor": "Constructor function"
		}
	}
}